{
  "_format": "hh-sol-artifact-1",
  "contractName": "DAI",
  "sourceName": "contracts/tests/tokens/assets/DAI.sol",
  "abi": [
    {
      "inputs": [],
      "stateMutability": "nonpayable",
      "type": "constructor"
    },
    {
      "anonymous": false,
      "inputs": [
        {
          "indexed": true,
          "internalType": "address",
          "name": "owner",
          "type": "address"
        },
        {
          "indexed": true,
          "internalType": "address",
          "name": "spender",
          "type": "address"
        },
        {
          "indexed": false,
          "internalType": "uint256",
          "name": "value",
          "type": "uint256"
        }
      ],
      "name": "Approval",
      "type": "event"
    },
    {
      "anonymous": false,
      "inputs": [
        {
          "indexed": true,
          "internalType": "address",
          "name": "from",
          "type": "address"
        },
        {
          "indexed": true,
          "internalType": "address",
          "name": "to",
          "type": "address"
        },
        {
          "indexed": false,
          "internalType": "uint256",
          "name": "value",
          "type": "uint256"
        }
      ],
      "name": "Transfer",
      "type": "event"
    },
    {
      "inputs": [
        {
          "internalType": "address",
          "name": "owner",
          "type": "address"
        },
        {
          "internalType": "address",
          "name": "spender",
          "type": "address"
        }
      ],
      "name": "allowance",
      "outputs": [
        {
          "internalType": "uint256",
          "name": "",
          "type": "uint256"
        }
      ],
      "stateMutability": "view",
      "type": "function"
    },
    {
      "inputs": [
        {
          "internalType": "address",
          "name": "spender",
          "type": "address"
        },
        {
          "internalType": "uint256",
          "name": "amount",
          "type": "uint256"
        }
      ],
      "name": "approve",
      "outputs": [
        {
          "internalType": "bool",
          "name": "",
          "type": "bool"
        }
      ],
      "stateMutability": "nonpayable",
      "type": "function"
    },
    {
      "inputs": [
        {
          "internalType": "address",
          "name": "account",
          "type": "address"
        }
      ],
      "name": "balanceOf",
      "outputs": [
        {
          "internalType": "uint256",
          "name": "",
          "type": "uint256"
        }
      ],
      "stateMutability": "view",
      "type": "function"
    },
    {
      "inputs": [
        {
          "internalType": "address",
          "name": "account",
          "type": "address"
        },
        {
          "internalType": "uint256",
          "name": "amount",
          "type": "uint256"
        }
      ],
      "name": "burn",
      "outputs": [
        {
          "internalType": "bool",
          "name": "",
          "type": "bool"
        }
      ],
      "stateMutability": "nonpayable",
      "type": "function"
    },
    {
      "inputs": [],
      "name": "decimals",
      "outputs": [
        {
          "internalType": "uint8",
          "name": "",
          "type": "uint8"
        }
      ],
      "stateMutability": "view",
      "type": "function"
    },
    {
      "inputs": [
        {
          "internalType": "address",
          "name": "spender",
          "type": "address"
        },
        {
          "internalType": "uint256",
          "name": "subtractedValue",
          "type": "uint256"
        }
      ],
      "name": "decreaseAllowance",
      "outputs": [
        {
          "internalType": "bool",
          "name": "",
          "type": "bool"
        }
      ],
      "stateMutability": "nonpayable",
      "type": "function"
    },
    {
      "inputs": [
        {
          "internalType": "address",
          "name": "spender",
          "type": "address"
        },
        {
          "internalType": "uint256",
          "name": "addedValue",
          "type": "uint256"
        }
      ],
      "name": "increaseAllowance",
      "outputs": [
        {
          "internalType": "bool",
          "name": "",
          "type": "bool"
        }
      ],
      "stateMutability": "nonpayable",
      "type": "function"
    },
    {
      "inputs": [
        {
          "internalType": "address",
          "name": "account",
          "type": "address"
        },
        {
          "internalType": "uint256",
          "name": "amount",
          "type": "uint256"
        }
      ],
      "name": "mint",
      "outputs": [
        {
          "internalType": "bool",
          "name": "",
          "type": "bool"
        }
      ],
      "stateMutability": "nonpayable",
      "type": "function"
    },
    {
      "inputs": [],
      "name": "name",
      "outputs": [
        {
          "internalType": "string",
          "name": "",
          "type": "string"
        }
      ],
      "stateMutability": "view",
      "type": "function"
    },
    {
      "inputs": [],
      "name": "symbol",
      "outputs": [
        {
          "internalType": "string",
          "name": "",
          "type": "string"
        }
      ],
      "stateMutability": "view",
      "type": "function"
    },
    {
      "inputs": [],
      "name": "totalSupply",
      "outputs": [
        {
          "internalType": "uint256",
          "name": "",
          "type": "uint256"
        }
      ],
      "stateMutability": "view",
      "type": "function"
    },
    {
      "inputs": [
        {
          "internalType": "address",
          "name": "to",
          "type": "address"
        },
        {
          "internalType": "uint256",
          "name": "amount",
          "type": "uint256"
        }
      ],
      "name": "transfer",
      "outputs": [
        {
          "internalType": "bool",
          "name": "",
          "type": "bool"
        }
      ],
      "stateMutability": "nonpayable",
      "type": "function"
    },
    {
      "inputs": [
        {
          "internalType": "address",
          "name": "from",
          "type": "address"
        },
        {
          "internalType": "address",
          "name": "to",
          "type": "address"
        },
        {
          "internalType": "uint256",
          "name": "amount",
          "type": "uint256"
        }
      ],
      "name": "transferFrom",
      "outputs": [
        {
          "internalType": "bool",
          "name": "",
          "type": "bool"
        }
      ],
      "stateMutability": "nonpayable",
      "type": "function"
    }
  ],
  "bytecode": "0x6080346200030e576040906001600160401b0390808301828111828210176200020e57835260098152602091682220a4902a37b5b2b760b91b838301528351848101818110838211176200020e5785526003908181526244414960e81b858201528351908382116200020e578254916001958684811c9416801562000303575b88851014620002ed578190601f9485811162000297575b508890858311600114620002305760009262000224575b505060001982861b1c191690861b1783555b80519384116200020e5760049586548681811c9116801562000203575b82821014620001ee57838111620001a3575b508092851160011462000135575093839491849260009562000129575b50501b92600019911b1c19161790555b51610b769081620003148239f35b0151935038806200010b565b92919084601f1981168860005285600020956000905b898383106200018857505050106200016d575b50505050811b0190556200011b565b01519060f884600019921b161c19169055388080806200015e565b8587015189559097019694850194889350908101906200014b565b87600052816000208480880160051c820192848910620001e4575b0160051c019087905b828110620001d7575050620000ee565b60008155018790620001c7565b92508192620001be565b602288634e487b7160e01b6000525260246000fd5b90607f1690620000dc565b634e487b7160e01b600052604160045260246000fd5b015190503880620000ad565b90889350601f19831691876000528a6000209260005b8c82821062000280575050841162000267575b505050811b018355620000bf565b015160001983881b60f8161c1916905538808062000259565b8385015186558c9790950194938401930162000246565b90915085600052886000208580850160051c8201928b8610620002e3575b918a91869594930160051c01915b828110620002d357505062000096565b600081558594508a9101620002c3565b92508192620002b5565b634e487b7160e01b600052602260045260246000fd5b93607f16936200007f565b600080fdfe608060408181526004918236101561001657600080fd5b600092833560e01c91826306fdde03146106df57508163095ea7b3146106b557816318160ddd1461069657816323b872dd146105cb578163313ce567146105af578163395093511461056057816340c10f191461049e57816370a082311461046857816395d89b41146103495781639dc29fac146101f0578163a457c2d71461012f57508063a9059cbb146100ff5763dd62ed3e146100b457600080fd5b346100fb57806003193601126100fb57806020926100d0610804565b6100d861081f565b6001600160a01b0391821683526001865283832091168252845220549051908152f35b5080fd5b50346100fb57806003193601126100fb5760209061012861011e610804565b6024359033610858565b5160018152f35b905082346101ed57826003193601126101ed5761014a610804565b91836024359233815260016020528181206001600160a01b0386168252602052205490828210610184576020856101288585038733610a0c565b608490602086519162461bcd60e51b8352820152602560248201527f45524332303a2064656372656173656420616c6c6f77616e63652062656c6f7760448201527f207a65726f0000000000000000000000000000000000000000000000000000006064820152fd5b80fd5b8284346101ed57816003193601126101ed5761020a610804565b6001600160a01b031660243581156102e05781835282602052838320548181106102775760209550817fddf252ad1be2c89b69c2b068fc378daa952ba7f163c4a11628f55a4df523b3ef928792858752868452038686205580600254036002558551908152a35160018152f35b608486602087519162461bcd60e51b8352820152602260248201527f45524332303a206275726e20616d6f756e7420657863656564732062616c616e60448201527f63650000000000000000000000000000000000000000000000000000000000006064820152fd5b608485602086519162461bcd60e51b8352820152602160248201527f45524332303a206275726e2066726f6d20746865207a65726f2061646472657360448201527f73000000000000000000000000000000000000000000000000000000000000006064820152fd5b8383346100fb57816003193601126100fb57805190828454600181811c9080831692831561045e575b602093848410811461044b5783885290811561042f57506001146103da575b505050829003601f01601f191682019267ffffffffffffffff8411838510176103c757508291826103c39252826107bb565b0390f35b80604186634e487b7160e01b6024945252fd5b8787529192508591837f8a35acfbc15ff81a39ae7d344fd709f28e8600b4aa8c65c6b64bfe7fe36bd19b5b83851061041b5750505050830101858080610391565b805488860183015293019284908201610405565b60ff1916878501525050151560051b8401019050858080610391565b60248960228c634e487b7160e01b835252fd5b91607f1691610372565b5050346100fb5760203660031901126100fb57806020926001600160a01b0361048f610804565b16815280845220549051908152f35b8284346101ed57816003193601126101ed576104b8610804565b6001600160a01b031690602435821561051d576020809550816104fe7fddf252ad1be2c89b69c2b068fc378daa952ba7f163c4a11628f55a4df523b3ef93600254610835565b6002558484528382528584208181540190558551908152a35160018152f35b606485602086519162461bcd60e51b8352820152601f60248201527f45524332303a206d696e7420746f20746865207a65726f2061646472657373006044820152fd5b5050346100fb57806003193601126100fb576101286020926105a8610583610804565b91338152600186528481206001600160a01b0384168252865284602435912054610835565b9033610a0c565b5050346100fb57816003193601126100fb576020905160128152f35b839150346100fb5760603660031901126100fb576105e7610804565b6105ef61081f565b9184604435946001600160a01b03841681526001602052818120338252602052205490600019820361062a575b602086610128878787610858565b84821061065357509183916106486020969561012895033383610a0c565b91939481935061061c565b606490602087519162461bcd60e51b8352820152601d60248201527f45524332303a20696e73756666696369656e7420616c6c6f77616e63650000006044820152fd5b5050346100fb57816003193601126100fb576020906002549051908152f35b5050346100fb57806003193601126100fb576020906101286106d5610804565b6024359033610a0c565b849084346107b757826003193601126107b75782600354600181811c908083169283156107ad575b602093848410811461044b5783885290811561042f575060011461075757505050829003601f01601f191682019267ffffffffffffffff8411838510176103c757508291826103c39252826107bb565b600387529192508591837fc2575a0e9e593c00f959f8c92f12db2869c3395a3b0502d05e2516446f71f85b5b8385106107995750505050830101858080610391565b805488860183015293019284908201610783565b91607f1691610707565b8280fd5b6020808252825181830181905290939260005b8281106107f057505060409293506000838284010152601f8019910116010190565b8181018601518482016040015285016107ce565b600435906001600160a01b038216820361081a57565b600080fd5b602435906001600160a01b038216820361081a57565b9190820180921161084257565b634e487b7160e01b600052601160045260246000fd5b6001600160a01b038091169182156109a25716918215610938576000828152806020526040812054918083106108ce57604082827fddf252ad1be2c89b69c2b068fc378daa952ba7f163c4a11628f55a4df523b3ef958760209652828652038282205586815220818154019055604051908152a3565b608460405162461bcd60e51b815260206004820152602660248201527f45524332303a207472616e7366657220616d6f756e742065786365656473206260448201527f616c616e636500000000000000000000000000000000000000000000000000006064820152fd5b608460405162461bcd60e51b815260206004820152602360248201527f45524332303a207472616e7366657220746f20746865207a65726f206164647260448201527f65737300000000000000000000000000000000000000000000000000000000006064820152fd5b608460405162461bcd60e51b815260206004820152602560248201527f45524332303a207472616e736665722066726f6d20746865207a65726f20616460448201527f64726573730000000000000000000000000000000000000000000000000000006064820152fd5b6001600160a01b03809116918215610ad75716918215610a6d5760207f8c5be1e5ebec7d5bd14f71427d1e84f3dd0314c0f7b2291e5b200ac8c7c3b925918360005260018252604060002085600052825280604060002055604051908152a3565b608460405162461bcd60e51b815260206004820152602260248201527f45524332303a20617070726f766520746f20746865207a65726f20616464726560448201527f73730000000000000000000000000000000000000000000000000000000000006064820152fd5b608460405162461bcd60e51b8152602060048201526024808201527f45524332303a20617070726f76652066726f6d20746865207a65726f2061646460448201527f72657373000000000000000000000000000000000000000000000000000000006064820152fdfea26469706673582212201f1919acaa4a6486a0808c2acfd1ba2ef53f0bc9007670d6051dd6999886d70664736f6c63430008130033",
  "linkReferences": {},
  "deployedLinkReferences": {}
}