{
  "_format": "hh-sol-artifact-1",
  "contractName": "CouponMath",
  "sourceName": "contracts/coupon/CouponMath.sol",
  "abi": [
    {
      "inputs": [
        {
          "internalType": "address",
          "name": "_investor",
          "type": "address"
        },
        {
          "internalType": "address",
          "name": "_bondContract",
          "type": "address"
        }
      ],
      "name": "annualInterest",
      "outputs": [
        {
          "internalType": "uint256",
          "name": "",
          "type": "uint256"
        }
      ],
      "stateMutability": "view",
      "type": "function"
    },
    {
      "inputs": [
        {
          "internalType": "address",
          "name": "_investor",
          "type": "address"
        },
        {
          "internalType": "uint256",
          "name": "_duration",
          "type": "uint256"
        },
        {
          "internalType": "address",
          "name": "_bondContract",
          "type": "address"
        }
      ],
      "name": "interest",
      "outputs": [
        {
          "internalType": "uint256",
          "name": "",
          "type": "uint256"
        }
      ],
      "stateMutability": "view",
      "type": "function"
    }
  ],
  "bytecode": "0x610618610053600b82828239805160001a607314610046577f4e487b7100000000000000000000000000000000000000000000000000000000600052600060045260246000fd5b30600052607381538281f3fe73000000000000000000000000000000000000000030146080604052600436106100405760003560e01c80630b75d95f14610045578063df91e76c14610075575b600080fd5b61005f600480360381019061005a91906103b2565b6100a5565b60405161006c919061040b565b60405180910390f35b61008f600480360381019061008a9190610452565b6101ad565b60405161009c919061040b565b60405180910390f35b6000808273ffffffffffffffffffffffffffffffffffffffff1663c0bcb26f6040518163ffffffff1660e01b8152600401602060405180830381865afa1580156100f3573d6000803e3d6000fd5b505050506040513d601f19601f8201168201806040525081019061011791906104ba565b905060008373ffffffffffffffffffffffffffffffffffffffff166361e20a1c866040518263ffffffff1660e01b815260040161015491906104f6565b602060405180830381865afa158015610171573d6000803e3d6000fd5b505050506040513d601f19601f8201168201806040525081019061019591906104ba565b905081816101a39190610540565b9250505092915050565b6000808273ffffffffffffffffffffffffffffffffffffffff1663c0bcb26f6040518163ffffffff1660e01b8152600401602060405180830381865afa1580156101fb573d6000803e3d6000fd5b505050506040513d601f19601f8201168201806040525081019061021f91906104ba565b905060008373ffffffffffffffffffffffffffffffffffffffff166361e20a1c876040518263ffffffff1660e01b815260040161025c91906104f6565b602060405180830381865afa158015610279573d6000803e3d6000fd5b505050506040513d601f19601f8201168201806040525081019061029d91906104ba565b905060008473ffffffffffffffffffffffffffffffffffffffff16635eb0b3d06040518163ffffffff1660e01b8152600401602060405180830381865afa1580156102ec573d6000803e3d6000fd5b505050506040513d601f19601f8201168201806040525081019061031091906104ba565b90506301e13380816103229190610540565b86848461032f9190610540565b6103399190610540565b61034391906105b1565b93505050509392505050565b600080fd5b600073ffffffffffffffffffffffffffffffffffffffff82169050919050565b600061037f82610354565b9050919050565b61038f81610374565b811461039a57600080fd5b50565b6000813590506103ac81610386565b92915050565b600080604083850312156103c9576103c861034f565b5b60006103d78582860161039d565b92505060206103e88582860161039d565b9150509250929050565b6000819050919050565b610405816103f2565b82525050565b600060208201905061042060008301846103fc565b92915050565b61042f816103f2565b811461043a57600080fd5b50565b60008135905061044c81610426565b92915050565b60008060006060848603121561046b5761046a61034f565b5b60006104798682870161039d565b935050602061048a8682870161043d565b925050604061049b8682870161039d565b9150509250925092565b6000815190506104b481610426565b92915050565b6000602082840312156104d0576104cf61034f565b5b60006104de848285016104a5565b91505092915050565b6104f081610374565b82525050565b600060208201905061050b60008301846104e7565b92915050565b7f4e487b7100000000000000000000000000000000000000000000000000000000600052601160045260246000fd5b600061054b826103f2565b9150610556836103f2565b9250828202610564816103f2565b9150828204841483151761057b5761057a610511565b5b5092915050565b7f4e487b7100000000000000000000000000000000000000000000000000000000600052601260045260246000fd5b60006105bc826103f2565b91506105c7836103f2565b9250826105d7576105d6610582565b5b82820490509291505056fea264697066735822122033ebf81d21ad7acbbb8bb9ce3fc558474f983844ac389a232626db476e9e876464736f6c63430008130033",
  "linkReferences": {},
  "deployedLinkReferences": {}
}