{
  "_format": "hh-sol-artifact-1",
  "contractName": "CouponMath",
  "sourceName": "contracts/coupon/CouponMath.sol",
  "abi": [
    {
      "inputs": [
        {
          "internalType": "address",
          "name": "_investor",
          "type": "address"
        },
        {
          "internalType": "address",
          "name": "_bondContract",
          "type": "address"
        }
      ],
      "name": "annualInterest",
      "outputs": [
        {
          "internalType": "uint256",
          "name": "",
          "type": "uint256"
        }
      ],
      "stateMutability": "view",
      "type": "function"
    },
    {
      "inputs": [
        {
          "internalType": "address",
          "name": "_investor",
          "type": "address"
        },
        {
          "internalType": "uint256",
          "name": "_duration",
          "type": "uint256"
        },
        {
          "internalType": "address",
          "name": "_bondContract",
          "type": "address"
        }
      ],
      "name": "interest",
      "outputs": [
        {
          "internalType": "uint256",
          "name": "",
          "type": "uint256"
        }
      ],
      "stateMutability": "view",
      "type": "function"
    }
  ],
  "bytecode": "0x6080806040523461001a576103f59081610020823930815050f35b600080fdfe6080604081815260048036101561001557600080fd5b600092833560e01c9081630b75d95f14610211575063df91e76c1461003957600080fd5b606036600319011261018a5761004d610336565b916044359373ffffffffffffffffffffffffffffffffffffffff9384861680960361020d57825163c0bcb26f60e01b8152602095868287818b5afa9182156102035784926101d0575b50845192631878828760e21b8452168583015285826024818a5afa91821561019557839261019f575b50858596978551968780927f5eb0b3d00000000000000000000000000000000000000000000000000000000082525afa948515610195578395610160575b509061010f6101149260243592610396565b610396565b936301e133809384810294818604149015171561014d57831561013a5750505191048152f35b906012602492634e487b7160e01b835252fd5b906011602492634e487b7160e01b835252fd5b9094508681813d831161018e575b610178818361035e565b8101031261018a57519361010f6100fd565b8280fd5b503d61016e565b84513d85823e3d90fd5b9691508587813d83116101c9575b6101b7818361035e565b8101031261018a5795519095856100bf565b503d6101ad565b9091508681813d83116101fc575b6101e8818361035e565b810103126101f857519038610096565b8380fd5b503d6101de565b85513d86823e3d90fd5b5080fd5b91939050826003193601126102dd57610228610336565b936024359473ffffffffffffffffffffffffffffffffffffffff908187168097036101f85763c0bcb26f60e01b855260209687868581845afa95861561032c57908893929186976102f2575b509060249188519586948593631878828760e21b855216908301525afa9182156102e75780926102b2575b5050906102ab91610396565b9051908152f35b9091508482813d83116102e0575b6102ca818361035e565b810103126102dd5750516102ab3861029f565b80fd5b503d6102c0565b8451903d90823e3d90fd5b84819394959298503d8311610325575b61030c818361035e565b81010312610321575194879291906024610274565b8480fd5b503d610302565b87513d87823e3d90fd5b6004359073ffffffffffffffffffffffffffffffffffffffff8216820361035957565b600080fd5b90601f8019910116810190811067ffffffffffffffff82111761038057604052565b634e487b7160e01b600052604160045260246000fd5b818102929181159184041417156103a957565b634e487b7160e01b600052601160045260246000fdfea2646970667358221220f386d0e3bec4b1960acadeb42fbcb9febee8f07166ea28a19e7eed0fc9de7b9c64736f6c63430008130033",
  "linkReferences": {},
  "deployedLinkReferences": {}
}