{
  "_format": "hh-sol-artifact-1",
  "contractName": "IdentityRegistry",
  "sourceName": "contracts/Registry/IdentityRegistry.sol",
  "abi": [
    {
      "inputs": [
        {
          "internalType": "address",
          "name": "_owner",
          "type": "address"
        }
      ],
      "stateMutability": "nonpayable",
      "type": "constructor"
    },
    {
      "inputs": [],
      "name": "AlreadyVerified",
      "type": "error"
    },
    {
      "inputs": [
        {
          "internalType": "address",
          "name": "caller",
          "type": "address"
        }
      ],
      "name": "InvalidAddress",
      "type": "error"
    },
    {
      "inputs": [
        {
          "internalType": "address",
          "name": "_stakeHolderAddress",
          "type": "address"
        }
      ],
      "name": "getStakeHolder",
      "outputs": [
        {
          "components": [
            {
              "internalType": "bytes32",
              "name": "identityID",
              "type": "bytes32"
            },
            {
              "internalType": "address",
              "name": "walletAddress",
              "type": "address"
            }
          ],
          "internalType": "struct RegistryData.Stakeholder",
          "name": "",
          "type": "tuple"
        }
      ],
      "stateMutability": "view",
      "type": "function"
    },
    {
      "inputs": [
        {
          "internalType": "address",
          "name": "_stakeHolderAddress",
          "type": "address"
        }
      ],
      "name": "isVerified",
      "outputs": [
        {
          "internalType": "bool",
          "name": "",
          "type": "bool"
        }
      ],
      "stateMutability": "view",
      "type": "function"
    },
    {
      "inputs": [],
      "name": "owner",
      "outputs": [
        {
          "internalType": "address",
          "name": "",
          "type": "address"
        }
      ],
      "stateMutability": "view",
      "type": "function"
    },
    {
      "inputs": [
        {
          "components": [
            {
              "internalType": "bytes32",
              "name": "identityID",
              "type": "bytes32"
            },
            {
              "internalType": "address",
              "name": "walletAddress",
              "type": "address"
            }
          ],
          "internalType": "struct RegistryData.Stakeholder",
          "name": "_stakeholder",
          "type": "tuple"
        }
      ],
      "name": "register",
      "outputs": [],
      "stateMutability": "nonpayable",
      "type": "function"
    }
  ],
  "bytecode": "0x608060405234801561001057600080fd5b506040516109aa3803806109aa833981810160405281019061003291906100dc565b80600260006101000a81548173ffffffffffffffffffffffffffffffffffffffff021916908373ffffffffffffffffffffffffffffffffffffffff16021790555050610109565b600080fd5b600073ffffffffffffffffffffffffffffffffffffffff82169050919050565b60006100a98261007e565b9050919050565b6100b98161009e565b81146100c457600080fd5b50565b6000815190506100d6816100b0565b92915050565b6000602082840312156100f2576100f1610079565b5b6000610100848285016100c7565b91505092915050565b610892806101186000396000f3fe608060405234801561001057600080fd5b506004361061004c5760003560e01c806374dc243a146100515780638da5cb5b146100815780639b25c0c81461009f578063b9209e33146100bb575b600080fd5b61006b600480360381019061006691906104f0565b6100eb565b6040516100789190610574565b60405180910390f35b6100896101a3565b604051610096919061059e565b60405180910390f35b6100b960048036038101906100b491906105dd565b6101c9565b005b6100d560048036038101906100d091906104f0565b6103d0565b6040516100e29190610625565b60405180910390f35b6100f361045a565b6000808373ffffffffffffffffffffffffffffffffffffffff1673ffffffffffffffffffffffffffffffffffffffff168152602001908152602001600020604051806040016040529081600082015481526020016001820160009054906101000a900473ffffffffffffffffffffffffffffffffffffffff1673ffffffffffffffffffffffffffffffffffffffff1673ffffffffffffffffffffffffffffffffffffffff16815250509050919050565b600260009054906101000a900473ffffffffffffffffffffffffffffffffffffffff1681565b8060200160208101906101dc91906104f0565b73ffffffffffffffffffffffffffffffffffffffff163373ffffffffffffffffffffffffffffffffffffffff161461025d5780602001602081019061022191906104f0565b6040517f8e4c8aa6000000000000000000000000000000000000000000000000000000008152600401610254919061059e565b60405180910390fd5b6001808111156102705761026f610640565b5b600160003373ffffffffffffffffffffffffffffffffffffffff1673ffffffffffffffffffffffffffffffffffffffff16815260200190815260200160002060009054906101000a900460ff1660018111156102cf576102ce610640565b5b03610306576040517f118fd7b800000000000000000000000000000000000000000000000000000000815260040160405180910390fd5b600180600083602001602081019061031e91906104f0565b73ffffffffffffffffffffffffffffffffffffffff1673ffffffffffffffffffffffffffffffffffffffff16815260200190815260200160002060006101000a81548160ff0219169083600181111561037a57610379610640565b5b0217905550806000803373ffffffffffffffffffffffffffffffffffffffff1673ffffffffffffffffffffffffffffffffffffffff16815260200190815260200160002081816103ca919061084e565b90505050565b60006001808111156103e5576103e4610640565b5b600160008473ffffffffffffffffffffffffffffffffffffffff1673ffffffffffffffffffffffffffffffffffffffff16815260200190815260200160002060009054906101000a900460ff16600181111561044457610443610640565b5b14610450576000610453565b60015b9050919050565b604051806040016040528060008019168152602001600073ffffffffffffffffffffffffffffffffffffffff1681525090565b600080fd5b600073ffffffffffffffffffffffffffffffffffffffff82169050919050565b60006104bd82610492565b9050919050565b6104cd816104b2565b81146104d857600080fd5b50565b6000813590506104ea816104c4565b92915050565b6000602082840312156105065761050561048d565b5b6000610514848285016104db565b91505092915050565b6000819050919050565b6105308161051d565b82525050565b61053f816104b2565b82525050565b60408201600082015161055b6000850182610527565b50602082015161056e6020850182610536565b50505050565b60006040820190506105896000830184610545565b92915050565b610598816104b2565b82525050565b60006020820190506105b3600083018461058f565b92915050565b600080fd5b6000604082840312156105d4576105d36105b9565b5b81905092915050565b6000604082840312156105f3576105f261048d565b5b6000610601848285016105be565b91505092915050565b60008115159050919050565b61061f8161060a565b82525050565b600060208201905061063a6000830184610616565b92915050565b7f4e487b7100000000000000000000000000000000000000000000000000000000600052602160045260246000fd5b6106788161051d565b811461068357600080fd5b50565b600081356106938161066f565b80915050919050565b60008160001b9050919050565b60007fffffffffffffffffffffffffffffffffffffffffffffffffffffffffffffffff6106d58461069c565b9350801983169250808416831791505092915050565b60006106f68261051d565b9050919050565b60008160001c9050919050565b6000610715826106fd565b9050919050565b610725826106eb565b6107386107318261070a565b83546106a9565b8255505050565b6000813561074c816104c4565b80915050919050565b600073ffffffffffffffffffffffffffffffffffffffff6107758461069c565b9350801983169250808416831791505092915050565b6000819050919050565b60006107b06107ab6107a684610492565b61078b565b610492565b9050919050565b60006107c282610795565b9050919050565b60006107d4826107b7565b9050919050565b6000819050919050565b6107ee826107c9565b6108016107fa826107db565b8354610755565b8255505050565b60008101600083018061081a81610686565b9050610826818461071c565b50505060018101602083018061083b8161073f565b905061084781846107e5565b5050505050565b6108588282610808565b505056fea2646970667358221220922f95ba77f437d70da55ba07952cbdd8502ff9b8c5a287812df679a767c2f6e64736f6c63430008130033",
  "linkReferences": {},
  "deployedLinkReferences": {}
}