{
  "_format": "hh-sol-artifact-1",
  "contractName": "IdentityRegistry",
  "sourceName": "contracts/Registry/IdentityRegistry.sol",
  "abi": [
    {
      "inputs": [],
      "stateMutability": "nonpayable",
      "type": "constructor"
    },
    {
      "inputs": [],
      "name": "AlreadyVerified",
      "type": "error"
    },
    {
      "inputs": [
        {
          "internalType": "address",
          "name": "caller",
          "type": "address"
        }
      ],
      "name": "InvalidAddress",
      "type": "error"
    },
    {
      "inputs": [],
      "name": "authenticationContract",
      "outputs": [
        {
          "internalType": "address",
          "name": "",
          "type": "address"
        }
      ],
      "stateMutability": "view",
      "type": "function"
    },
    {
      "inputs": [
        {
          "internalType": "address",
          "name": "_stakeHolderAddress",
          "type": "address"
        }
      ],
      "name": "getStakeHolder",
      "outputs": [
        {
          "components": [
            {
              "internalType": "string",
              "name": "identityID",
              "type": "string"
            },
            {
              "internalType": "address",
              "name": "walletAddress",
              "type": "address"
            }
          ],
          "internalType": "struct RegistryData.Stakeholder",
          "name": "",
          "type": "tuple"
        }
      ],
      "stateMutability": "view",
      "type": "function"
    },
    {
      "inputs": [
        {
          "internalType": "address",
          "name": "_stakeHolderAddress",
          "type": "address"
        }
      ],
      "name": "isVerified",
      "outputs": [
        {
          "internalType": "bool",
          "name": "",
          "type": "bool"
        }
      ],
      "stateMutability": "view",
      "type": "function"
    },
    {
      "inputs": [],
      "name": "owner",
      "outputs": [
        {
          "internalType": "address",
          "name": "",
          "type": "address"
        }
      ],
      "stateMutability": "view",
      "type": "function"
    },
    {
      "inputs": [
        {
          "internalType": "string",
          "name": "_identityID",
          "type": "string"
        },
        {
          "internalType": "string",
          "name": "_signature",
          "type": "string"
        }
      ],
      "name": "register",
      "outputs": [],
      "stateMutability": "nonpayable",
      "type": "function"
    },
    {
      "inputs": [
        {
          "internalType": "address",
          "name": "_authenticationContract",
          "type": "address"
        }
      ],
      "name": "setAuthenticationContract",
      "outputs": [],
      "stateMutability": "nonpayable",
      "type": "function"
    }
  ],
  "bytecode": "0x608060405234801561001057600080fd5b5033600260006101000a81548173ffffffffffffffffffffffffffffffffffffffff021916908373ffffffffffffffffffffffffffffffffffffffff160217905550610e9e806100616000396000f3fe608060405234801561001057600080fd5b50600436106100625760003560e01c8063090820a614610067578063383788a3146100855780633ffbd47f146100a157806374dc243a146100bd5780638da5cb5b146100ed578063b9209e331461010b575b600080fd5b61006f61013b565b60405161007c9190610702565b60405180910390f35b61009f600480360381019061009a919061075d565b610161565b005b6100bb60048036038101906100b691906108d0565b610235565b005b6100d760048036038101906100d2919061075d565b6104a1565b6040516100e49190610a13565b60405180910390f35b6100f56105e1565b6040516101029190610702565b60405180910390f35b6101256004803603810190610120919061075d565b610607565b6040516101329190610a50565b60405180910390f35b600360009054906101000a900473ffffffffffffffffffffffffffffffffffffffff1681565b600260009054906101000a900473ffffffffffffffffffffffffffffffffffffffff1673ffffffffffffffffffffffffffffffffffffffff163373ffffffffffffffffffffffffffffffffffffffff16146101f1576040517f08c379a00000000000000000000000000000000000000000000000000000000081526004016101e890610ac8565b60405180910390fd5b80600360006101000a81548173ffffffffffffffffffffffffffffffffffffffff021916908373ffffffffffffffffffffffffffffffffffffffff16021790555050565b60018081111561024857610247610ae8565b5b600160003373ffffffffffffffffffffffffffffffffffffffff1673ffffffffffffffffffffffffffffffffffffffff16815260200190815260200160002060009054906101000a900460ff1660018111156102a7576102a6610ae8565b5b036102de576040517f118fd7b800000000000000000000000000000000000000000000000000000000815260040160405180910390fd5b60018060003373ffffffffffffffffffffffffffffffffffffffff1673ffffffffffffffffffffffffffffffffffffffff16815260200190815260200160002060006101000a81548160ff021916908360018111156103405761033f610ae8565b5b021790555060405180604001604052808381526020013373ffffffffffffffffffffffffffffffffffffffff168152506000803373ffffffffffffffffffffffffffffffffffffffff1673ffffffffffffffffffffffffffffffffffffffff16815260200190815260200160002060008201518160000190816103c39190610d2d565b5060208201518160010160006101000a81548173ffffffffffffffffffffffffffffffffffffffff021916908373ffffffffffffffffffffffffffffffffffffffff160217905550905050600360009054906101000a900473ffffffffffffffffffffffffffffffffffffffff1673ffffffffffffffffffffffffffffffffffffffff16631e59c52982336040518363ffffffff1660e01b815260040161046b929190610e38565b600060405180830381600087803b15801561048557600080fd5b505af1158015610499573d6000803e3d6000fd5b505050505050565b6104a9610691565b6000808373ffffffffffffffffffffffffffffffffffffffff1673ffffffffffffffffffffffffffffffffffffffff16815260200190815260200160002060405180604001604052908160008201805461050290610b46565b80601f016020809104026020016040519081016040528092919081815260200182805461052e90610b46565b801561057b5780601f106105505761010080835404028352916020019161057b565b820191906000526020600020905b81548152906001019060200180831161055e57829003601f168201915b505050505081526020016001820160009054906101000a900473ffffffffffffffffffffffffffffffffffffffff1673ffffffffffffffffffffffffffffffffffffffff1673ffffffffffffffffffffffffffffffffffffffff16815250509050919050565b600260009054906101000a900473ffffffffffffffffffffffffffffffffffffffff1681565b600060018081111561061c5761061b610ae8565b5b600160008473ffffffffffffffffffffffffffffffffffffffff1673ffffffffffffffffffffffffffffffffffffffff16815260200190815260200160002060009054906101000a900460ff16600181111561067b5761067a610ae8565b5b1461068757600061068a565b60015b9050919050565b604051806040016040528060608152602001600073ffffffffffffffffffffffffffffffffffffffff1681525090565b600073ffffffffffffffffffffffffffffffffffffffff82169050919050565b60006106ec826106c1565b9050919050565b6106fc816106e1565b82525050565b600060208201905061071760008301846106f3565b92915050565b6000604051905090565b600080fd5b600080fd5b61073a816106e1565b811461074557600080fd5b50565b60008135905061075781610731565b92915050565b60006020828403121561077357610772610727565b5b600061078184828501610748565b91505092915050565b600080fd5b600080fd5b6000601f19601f8301169050919050565b7f4e487b7100000000000000000000000000000000000000000000000000000000600052604160045260246000fd5b6107dd82610794565b810181811067ffffffffffffffff821117156107fc576107fb6107a5565b5b80604052505050565b600061080f61071d565b905061081b82826107d4565b919050565b600067ffffffffffffffff82111561083b5761083a6107a5565b5b61084482610794565b9050602081019050919050565b82818337600083830152505050565b600061087361086e84610820565b610805565b90508281526020810184848401111561088f5761088e61078f565b5b61089a848285610851565b509392505050565b600082601f8301126108b7576108b661078a565b5b81356108c7848260208601610860565b91505092915050565b600080604083850312156108e7576108e6610727565b5b600083013567ffffffffffffffff8111156109055761090461072c565b5b610911858286016108a2565b925050602083013567ffffffffffffffff8111156109325761093161072c565b5b61093e858286016108a2565b9150509250929050565b600081519050919050565b600082825260208201905092915050565b60005b83811015610982578082015181840152602081019050610967565b60008484015250505050565b600061099982610948565b6109a38185610953565b93506109b3818560208601610964565b6109bc81610794565b840191505092915050565b6109d0816106e1565b82525050565b600060408301600083015184820360008601526109f3828261098e565b9150506020830151610a0860208601826109c7565b508091505092915050565b60006020820190508181036000830152610a2d81846109d6565b905092915050565b60008115159050919050565b610a4a81610a35565b82525050565b6000602082019050610a656000830184610a41565b92915050565b600082825260208201905092915050565b7f4f4e4c595f4f574e455200000000000000000000000000000000000000000000600082015250565b6000610ab2600a83610a6b565b9150610abd82610a7c565b602082019050919050565b60006020820190508181036000830152610ae181610aa5565b9050919050565b7f4e487b7100000000000000000000000000000000000000000000000000000000600052602160045260246000fd5b7f4e487b7100000000000000000000000000000000000000000000000000000000600052602260045260246000fd5b60006002820490506001821680610b5e57607f821691505b602082108103610b7157610b70610b17565b5b50919050565b60008190508160005260206000209050919050565b60006020601f8301049050919050565b600082821b905092915050565b600060088302610bd97fffffffffffffffffffffffffffffffffffffffffffffffffffffffffffffffff82610b9c565b610be38683610b9c565b95508019841693508086168417925050509392505050565b6000819050919050565b6000819050919050565b6000610c2a610c25610c2084610bfb565b610c05565b610bfb565b9050919050565b6000819050919050565b610c4483610c0f565b610c58610c5082610c31565b848454610ba9565b825550505050565b600090565b610c6d610c60565b610c78818484610c3b565b505050565b5b81811015610c9c57610c91600082610c65565b600181019050610c7e565b5050565b601f821115610ce157610cb281610b77565b610cbb84610b8c565b81016020851015610cca578190505b610cde610cd685610b8c565b830182610c7d565b50505b505050565b600082821c905092915050565b6000610d0460001984600802610ce6565b1980831691505092915050565b6000610d1d8383610cf3565b9150826002028217905092915050565b610d3682610948565b67ffffffffffffffff811115610d4f57610d4e6107a5565b5b610d598254610b46565b610d64828285610ca0565b600060209050601f831160018114610d975760008415610d85578287015190505b610d8f8582610d11565b865550610df7565b601f198416610da586610b77565b60005b82811015610dcd57848901518255600182019150602085019450602081019050610da8565b86831015610dea5784890151610de6601f891682610cf3565b8355505b6001600288020188555050505b505050505050565b6000610e0a82610948565b610e148185610a6b565b9350610e24818560208601610964565b610e2d81610794565b840191505092915050565b60006040820190508181036000830152610e528185610dff565b9050610e6160208301846106f3565b939250505056fea2646970667358221220bb6f7d275d90b48f86e250ced9caf0e3f77324a954de095494f2c1da653cf8e464736f6c63430008130033",
  "linkReferences": {},
  "deployedLinkReferences": {}
}