{
  "_format": "hh-sol-artifact-1",
  "contractName": "IdentityRegistry",
  "sourceName": "contracts/Registry/IdentityRegistry.sol",
  "abi": [
    {
      "inputs": [],
      "stateMutability": "nonpayable",
      "type": "constructor"
    },
    {
      "inputs": [],
      "name": "AlreadyVerified",
      "type": "error"
    },
    {
      "inputs": [
        {
          "internalType": "address",
          "name": "caller",
          "type": "address"
        }
      ],
      "name": "InvalidAddress",
      "type": "error"
    },
    {
      "inputs": [],
      "name": "authenticationContract",
      "outputs": [
        {
          "internalType": "address",
          "name": "",
          "type": "address"
        }
      ],
      "stateMutability": "view",
      "type": "function"
    },
    {
      "inputs": [
        {
          "internalType": "address",
          "name": "_stakeHolderAddress",
          "type": "address"
        }
      ],
      "name": "getStakeHolder",
      "outputs": [
        {
          "components": [
            {
              "internalType": "string",
              "name": "identityID",
              "type": "string"
            },
            {
              "internalType": "address",
              "name": "walletAddress",
              "type": "address"
            }
          ],
          "internalType": "struct RegistryData.Stakeholder",
          "name": "",
          "type": "tuple"
        }
      ],
      "stateMutability": "view",
      "type": "function"
    },
    {
      "inputs": [
        {
          "internalType": "address",
          "name": "_stakeHolderAddress",
          "type": "address"
        }
      ],
      "name": "isVerified",
      "outputs": [
        {
          "internalType": "bool",
          "name": "",
          "type": "bool"
        }
      ],
      "stateMutability": "view",
      "type": "function"
    },
    {
      "inputs": [
        {
          "internalType": "string",
          "name": "",
          "type": "string"
        }
      ],
      "name": "kwcPassed",
      "outputs": [
        {
          "internalType": "bool",
          "name": "",
          "type": "bool"
        }
      ],
      "stateMutability": "view",
      "type": "function"
    },
    {
      "inputs": [],
      "name": "owner",
      "outputs": [
        {
          "internalType": "address",
          "name": "",
          "type": "address"
        }
      ],
      "stateMutability": "view",
      "type": "function"
    },
    {
      "inputs": [
        {
          "internalType": "string",
          "name": "_identityID",
          "type": "string"
        },
        {
          "internalType": "string",
          "name": "_signature",
          "type": "string"
        }
      ],
      "name": "register",
      "outputs": [],
      "stateMutability": "nonpayable",
      "type": "function"
    },
    {
      "inputs": [
        {
          "internalType": "address",
          "name": "_authenticationContract",
          "type": "address"
        }
      ],
      "name": "setAuthenticationContract",
      "outputs": [],
      "stateMutability": "nonpayable",
      "type": "function"
    }
  ],
  "bytecode": "0x608060405234801561001057600080fd5b5033600360006101000a81548173ffffffffffffffffffffffffffffffffffffffff021916908373ffffffffffffffffffffffffffffffffffffffff1602179055506112f5806100616000396000f3fe608060405234801561001057600080fd5b506004361061007d5760003560e01c8063503ad38b1161005b578063503ad38b146100d857806374dc243a146101085780638da5cb5b14610138578063b9209e33146101565761007d565b8063090820a614610082578063383788a3146100a05780633ffbd47f146100bc575b600080fd5b61008a610186565b604051610097919061093e565b60405180910390f35b6100ba60048036038101906100b59190610999565b6101ac565b005b6100d660048036038101906100d19190610b0c565b610280565b005b6100f260048036038101906100ed9190610b84565b6106a7565b6040516100ff9190610be8565b60405180910390f35b610122600480360381019061011d9190610999565b6106dd565b60405161012f9190610cce565b60405180910390f35b61014061081d565b60405161014d919061093e565b60405180910390f35b610170600480360381019061016b9190610999565b610843565b60405161017d9190610be8565b60405180910390f35b600460009054906101000a900473ffffffffffffffffffffffffffffffffffffffff1681565b600360009054906101000a900473ffffffffffffffffffffffffffffffffffffffff1673ffffffffffffffffffffffffffffffffffffffff163373ffffffffffffffffffffffffffffffffffffffff161461023c576040517f08c379a000000000000000000000000000000000000000000000000000000000815260040161023390610d4d565b60405180910390fd5b80600460006101000a81548173ffffffffffffffffffffffffffffffffffffffff021916908373ffffffffffffffffffffffffffffffffffffffff16021790555050565b60018081111561029357610292610d6d565b5b600160003373ffffffffffffffffffffffffffffffffffffffff1673ffffffffffffffffffffffffffffffffffffffff16815260200190815260200160002060009054906101000a900460ff1660018111156102f2576102f1610d6d565b5b03610329576040517f118fd7b800000000000000000000000000000000000000000000000000000000815260040160405180910390fd5b6002826040516103399190610dd8565b908152602001604051809103902060009054906101000a900460ff1615610395576040517f08c379a000000000000000000000000000000000000000000000000000000000815260040161038c90610e3b565b60405180910390fd5b6040516020016103a490610e81565b60405160208183030381529060405280519060200120826040516020016103cb9190610dd8565b6040516020818303038152906040528051906020012003610421576040517f08c379a000000000000000000000000000000000000000000000000000000000815260040161041890610ee2565b60405180910390fd5b60405160200161043090610e81565b60405160208183030381529060405280519060200120816040516020016104579190610dd8565b60405160208183030381529060405280519060200120036104ad576040517f08c379a00000000000000000000000000000000000000000000000000000000081526004016104a490610f4e565b60405180910390fd5b60016002836040516104bf9190610dd8565b908152602001604051809103902060006101000a81548160ff02191690831515021790555060018060003373ffffffffffffffffffffffffffffffffffffffff1673ffffffffffffffffffffffffffffffffffffffff16815260200190815260200160002060006101000a81548160ff0219169083600181111561054657610545610d6d565b5b021790555060405180604001604052808381526020013373ffffffffffffffffffffffffffffffffffffffff168152506000803373ffffffffffffffffffffffffffffffffffffffff1673ffffffffffffffffffffffffffffffffffffffff16815260200190815260200160002060008201518160000190816105c99190611184565b5060208201518160010160006101000a81548173ffffffffffffffffffffffffffffffffffffffff021916908373ffffffffffffffffffffffffffffffffffffffff160217905550905050600460009054906101000a900473ffffffffffffffffffffffffffffffffffffffff1673ffffffffffffffffffffffffffffffffffffffff16631e59c52982336040518363ffffffff1660e01b815260040161067192919061128f565b600060405180830381600087803b15801561068b57600080fd5b505af115801561069f573d6000803e3d6000fd5b505050505050565b6002818051602081018201805184825260208301602085012081835280955050505050506000915054906101000a900460ff1681565b6106e56108cd565b6000808373ffffffffffffffffffffffffffffffffffffffff1673ffffffffffffffffffffffffffffffffffffffff16815260200190815260200160002060405180604001604052908160008201805461073e90610f9d565b80601f016020809104026020016040519081016040528092919081815260200182805461076a90610f9d565b80156107b75780601f1061078c576101008083540402835291602001916107b7565b820191906000526020600020905b81548152906001019060200180831161079a57829003601f168201915b505050505081526020016001820160009054906101000a900473ffffffffffffffffffffffffffffffffffffffff1673ffffffffffffffffffffffffffffffffffffffff1673ffffffffffffffffffffffffffffffffffffffff16815250509050919050565b600360009054906101000a900473ffffffffffffffffffffffffffffffffffffffff1681565b600060018081111561085857610857610d6d565b5b600160008473ffffffffffffffffffffffffffffffffffffffff1673ffffffffffffffffffffffffffffffffffffffff16815260200190815260200160002060009054906101000a900460ff1660018111156108b7576108b6610d6d565b5b146108c35760006108c6565b60015b9050919050565b604051806040016040528060608152602001600073ffffffffffffffffffffffffffffffffffffffff1681525090565b600073ffffffffffffffffffffffffffffffffffffffff82169050919050565b6000610928826108fd565b9050919050565b6109388161091d565b82525050565b6000602082019050610953600083018461092f565b92915050565b6000604051905090565b600080fd5b600080fd5b6109768161091d565b811461098157600080fd5b50565b6000813590506109938161096d565b92915050565b6000602082840312156109af576109ae610963565b5b60006109bd84828501610984565b91505092915050565b600080fd5b600080fd5b6000601f19601f8301169050919050565b7f4e487b7100000000000000000000000000000000000000000000000000000000600052604160045260246000fd5b610a19826109d0565b810181811067ffffffffffffffff82111715610a3857610a376109e1565b5b80604052505050565b6000610a4b610959565b9050610a578282610a10565b919050565b600067ffffffffffffffff821115610a7757610a766109e1565b5b610a80826109d0565b9050602081019050919050565b82818337600083830152505050565b6000610aaf610aaa84610a5c565b610a41565b905082815260208101848484011115610acb57610aca6109cb565b5b610ad6848285610a8d565b509392505050565b600082601f830112610af357610af26109c6565b5b8135610b03848260208601610a9c565b91505092915050565b60008060408385031215610b2357610b22610963565b5b600083013567ffffffffffffffff811115610b4157610b40610968565b5b610b4d85828601610ade565b925050602083013567ffffffffffffffff811115610b6e57610b6d610968565b5b610b7a85828601610ade565b9150509250929050565b600060208284031215610b9a57610b99610963565b5b600082013567ffffffffffffffff811115610bb857610bb7610968565b5b610bc484828501610ade565b91505092915050565b60008115159050919050565b610be281610bcd565b82525050565b6000602082019050610bfd6000830184610bd9565b92915050565b600081519050919050565b600082825260208201905092915050565b60005b83811015610c3d578082015181840152602081019050610c22565b60008484015250505050565b6000610c5482610c03565b610c5e8185610c0e565b9350610c6e818560208601610c1f565b610c77816109d0565b840191505092915050565b610c8b8161091d565b82525050565b60006040830160008301518482036000860152610cae8282610c49565b9150506020830151610cc36020860182610c82565b508091505092915050565b60006020820190508181036000830152610ce88184610c91565b905092915050565b600082825260208201905092915050565b7f4f4e4c595f4f574e455200000000000000000000000000000000000000000000600082015250565b6000610d37600a83610cf0565b9150610d4282610d01565b602082019050919050565b60006020820190508181036000830152610d6681610d2a565b9050919050565b7f4e487b7100000000000000000000000000000000000000000000000000000000600052602160045260246000fd5b600081905092915050565b6000610db282610c03565b610dbc8185610d9c565b9350610dcc818560208601610c1f565b80840191505092915050565b6000610de48284610da7565b915081905092915050565b7f414c52454144595f5041535345445f4b57430000000000000000000000000000600082015250565b6000610e25601283610cf0565b9150610e3082610def565b602082019050919050565b60006020820190508181036000830152610e5481610e18565b9050919050565b50565b6000610e6b600083610d9c565b9150610e7682610e5b565b600082019050919050565b6000610e8c82610e5e565b9150819050919050565b7f494e56414c49445f4944454e544954595f494400000000000000000000000000600082015250565b6000610ecc601383610cf0565b9150610ed782610e96565b602082019050919050565b60006020820190508181036000830152610efb81610ebf565b9050919050565b7f494e56414c49445f5349474e4154555245000000000000000000000000000000600082015250565b6000610f38601183610cf0565b9150610f4382610f02565b602082019050919050565b60006020820190508181036000830152610f6781610f2b565b9050919050565b7f4e487b7100000000000000000000000000000000000000000000000000000000600052602260045260246000fd5b60006002820490506001821680610fb557607f821691505b602082108103610fc857610fc7610f6e565b5b50919050565b60008190508160005260206000209050919050565b60006020601f8301049050919050565b600082821b905092915050565b6000600883026110307fffffffffffffffffffffffffffffffffffffffffffffffffffffffffffffffff82610ff3565b61103a8683610ff3565b95508019841693508086168417925050509392505050565b6000819050919050565b6000819050919050565b600061108161107c61107784611052565b61105c565b611052565b9050919050565b6000819050919050565b61109b83611066565b6110af6110a782611088565b848454611000565b825550505050565b600090565b6110c46110b7565b6110cf818484611092565b505050565b5b818110156110f3576110e86000826110bc565b6001810190506110d5565b5050565b601f8211156111385761110981610fce565b61111284610fe3565b81016020851015611121578190505b61113561112d85610fe3565b8301826110d4565b50505b505050565b600082821c905092915050565b600061115b6000198460080261113d565b1980831691505092915050565b6000611174838361114a565b9150826002028217905092915050565b61118d82610c03565b67ffffffffffffffff8111156111a6576111a56109e1565b5b6111b08254610f9d565b6111bb8282856110f7565b600060209050601f8311600181146111ee57600084156111dc578287015190505b6111e68582611168565b86555061124e565b601f1984166111fc86610fce565b60005b82811015611224578489015182556001820191506020850194506020810190506111ff565b86831015611241578489015161123d601f89168261114a565b8355505b6001600288020188555050505b505050505050565b600061126182610c03565b61126b8185610cf0565b935061127b818560208601610c1f565b611284816109d0565b840191505092915050565b600060408201905081810360008301526112a98185611256565b90506112b8602083018461092f565b939250505056fea2646970667358221220a61ad0bc551d2d727f74ca3ea6fa7e362a8bdd165c49b905ae02eef150a92c4d64736f6c63430008130033",
  "linkReferences": {},
  "deployedLinkReferences": {}
}