{
  "_format": "hh-sol-artifact-1",
  "contractName": "ExchangeBondsStorage",
  "sourceName": "contracts/Topos/Exchange/ExchangeBondsStorage.sol",
  "abi": [
    {
      "inputs": [
        {
          "internalType": "address",
          "name": "_bankContract",
          "type": "address"
        },
        {
          "internalType": "address",
          "name": "_exchangeContract",
          "type": "address"
        },
        {
          "internalType": "address",
          "name": "_bondCallContract",
          "type": "address"
        }
      ],
      "stateMutability": "nonpayable",
      "type": "constructor"
    },
    {
      "inputs": [],
      "name": "bankContract",
      "outputs": [
        {
          "internalType": "address",
          "name": "",
          "type": "address"
        }
      ],
      "stateMutability": "view",
      "type": "function"
    },
    {
      "inputs": [],
      "name": "bondCallContract",
      "outputs": [
        {
          "internalType": "address",
          "name": "",
          "type": "address"
        }
      ],
      "stateMutability": "view",
      "type": "function"
    },
    {
      "inputs": [
        {
          "internalType": "string",
          "name": "_dealID",
          "type": "string"
        },
        {
          "internalType": "address",
          "name": "_seller",
          "type": "address"
        },
        {
          "internalType": "address",
          "name": "_buyer",
          "type": "address"
        },
        {
          "internalType": "uint256",
          "name": "_amount",
          "type": "uint256"
        }
      ],
      "name": "buy",
      "outputs": [],
      "stateMutability": "nonpayable",
      "type": "function"
    },
    {
      "inputs": [
        {
          "internalType": "string",
          "name": "_dealID",
          "type": "string"
        },
        {
          "internalType": "address",
          "name": "_seller",
          "type": "address"
        }
      ],
      "name": "cancelBonds",
      "outputs": [],
      "stateMutability": "nonpayable",
      "type": "function"
    },
    {
      "inputs": [
        {
          "internalType": "address",
          "name": "_seller",
          "type": "address"
        },
        {
          "internalType": "string",
          "name": "_dealID",
          "type": "string"
        },
        {
          "internalType": "uint256",
          "name": "_amount",
          "type": "uint256"
        },
        {
          "internalType": "uint256",
          "name": "_price",
          "type": "uint256"
        }
      ],
      "name": "depositBonds",
      "outputs": [],
      "stateMutability": "nonpayable",
      "type": "function"
    },
    {
      "inputs": [],
      "name": "exchangeContract",
      "outputs": [
        {
          "internalType": "address",
          "name": "",
          "type": "address"
        }
      ],
      "stateMutability": "view",
      "type": "function"
    },
    {
      "inputs": [],
      "name": "getDealsListed",
      "outputs": [
        {
          "components": [
            {
              "internalType": "string",
              "name": "dealID",
              "type": "string"
            },
            {
              "internalType": "address",
              "name": "owner",
              "type": "address"
            },
            {
              "internalType": "uint256",
              "name": "amount",
              "type": "uint256"
            },
            {
              "internalType": "uint256",
              "name": "price",
              "type": "uint256"
            },
            {
              "internalType": "uint256",
              "name": "index",
              "type": "uint256"
            },
            {
              "internalType": "uint256",
              "name": "listingTime",
              "type": "uint256"
            }
          ],
          "internalType": "struct BondData.Listing[]",
          "name": "",
          "type": "tuple[]"
        }
      ],
      "stateMutability": "view",
      "type": "function"
    },
    {
      "inputs": [
        {
          "internalType": "address",
          "name": "_seller",
          "type": "address"
        },
        {
          "internalType": "string",
          "name": "_dealID",
          "type": "string"
        }
      ],
      "name": "getInvestorListing",
      "outputs": [
        {
          "components": [
            {
              "internalType": "string",
              "name": "dealID",
              "type": "string"
            },
            {
              "internalType": "address",
              "name": "owner",
              "type": "address"
            },
            {
              "internalType": "uint256",
              "name": "amount",
              "type": "uint256"
            },
            {
              "internalType": "uint256",
              "name": "price",
              "type": "uint256"
            },
            {
              "internalType": "uint256",
              "name": "index",
              "type": "uint256"
            },
            {
              "internalType": "uint256",
              "name": "listingTime",
              "type": "uint256"
            }
          ],
          "internalType": "struct BondData.Listing",
          "name": "",
          "type": "tuple"
        }
      ],
      "stateMutability": "view",
      "type": "function"
    },
    {
      "inputs": [
        {
          "internalType": "string",
          "name": "_dealID",
          "type": "string"
        },
        {
          "internalType": "address",
          "name": "_seller",
          "type": "address"
        },
        {
          "internalType": "uint256",
          "name": "_amountToAdd",
          "type": "uint256"
        }
      ],
      "name": "increaseAmount",
      "outputs": [],
      "stateMutability": "nonpayable",
      "type": "function"
    },
    {
      "inputs": [
        {
          "internalType": "address",
          "name": "",
          "type": "address"
        },
        {
          "internalType": "string",
          "name": "",
          "type": "string"
        }
      ],
      "name": "investorListing",
      "outputs": [
        {
          "internalType": "string",
          "name": "dealID",
          "type": "string"
        },
        {
          "internalType": "address",
          "name": "owner",
          "type": "address"
        },
        {
          "internalType": "uint256",
          "name": "amount",
          "type": "uint256"
        },
        {
          "internalType": "uint256",
          "name": "price",
          "type": "uint256"
        },
        {
          "internalType": "uint256",
          "name": "index",
          "type": "uint256"
        },
        {
          "internalType": "uint256",
          "name": "listingTime",
          "type": "uint256"
        }
      ],
      "stateMutability": "view",
      "type": "function"
    },
    {
      "inputs": [
        {
          "internalType": "string",
          "name": "_dealID",
          "type": "string"
        },
        {
          "internalType": "address",
          "name": "_seller",
          "type": "address"
        },
        {
          "internalType": "uint256",
          "name": "_newPrice",
          "type": "uint256"
        }
      ],
      "name": "updatePrice",
      "outputs": [],
      "stateMutability": "nonpayable",
      "type": "function"
    }
  ],
  "bytecode": "0x60806040523480156200001157600080fd5b5060405162001e2938038062001e29833981016040819052620000349162000094565b600180546001600160a01b039485166001600160a01b031991821617909155600280549385169382169390931790925560038054919093169116179055620000de565b80516001600160a01b03811681146200008f57600080fd5b919050565b600080600060608486031215620000aa57600080fd5b620000b58462000077565b9250620000c56020850162000077565b9150620000d56040850162000077565b90509250925092565b611d3b80620000ee6000396000f3fe608060405234801561001057600080fd5b50600436106100c95760003560e01c80635e43522e11610081578063d32e0f271161005b578063d32e0f2714610197578063d59dd022146101aa578063f14049d5146101ca57600080fd5b80635e43522e1461015e578063995ae7d014610171578063a33f7da01461018457600080fd5b80632d9fc161116100b25780632d9fc161146101135780633f0a0797146101385780635b91e7521461014b57600080fd5b806307c2e449146100ce5780632cc9143f146100fe575b600080fd5b6001546100e1906001600160a01b031681565b6040516001600160a01b0390911681526020015b60405180910390f35b61011161010c3660046116a8565b6101df565b005b6101266101213660046116fa565b6105cd565b6040516100f59695949392919061179a565b6002546100e1906001600160a01b031681565b6101116101593660046117df565b6106ad565b6003546100e1906001600160a01b031681565b61011161017f36600461183f565b610861565b61011161019236600461183f565b610ae1565b6101116101a5366004611899565b610f1f565b6101bd6101b83660046116fa565b611362565b6040516100f5919061195f565b6101d26114bb565b6040516100f59190611979565b6002546001600160a01b0316331461022e5760405162461bcd60e51b815260206004820152600d60248201526c4f6e6c792045786368616e676560981b60448201526064015b60405180910390fd5b6001546040516302f6679160e41b81526000916001600160a01b031690632f6679109061025f9086906004016119db565b602060405180830381865afa15801561027c573d6000803e3d6000fd5b505050506040513d601f19601f820116820180604052508101906102a091906119ee565b9050600080836001600160a01b03166001600160a01b03168152602001908152602001600020836040516102d49190611a0b565b908152604051908190036020019020600101546001600160a01b038381169116146103325760405162461bcd60e51b815260206004820152600e60248201526d34b73b30b634b21039b2b63632b960911b6044820152606401610225565b6001600160a01b0382166000908152602081905260408082209051610358908690611a0b565b9081526040805160209281900383018120600201546001600160a01b038716600090815293849052918320919350610391908790611a0b565b9081526020016040518091039020600401549050600082116103e65760405162461bcd60e51b815260206004820152600e60248201526d1a5b9d985b1a5908185b5bdd5b9d60921b6044820152606401610225565b6001600160a01b038416600090815260208190526040808220905161040c908890611a0b565b908152604080519182900360209081018320600201939093556001600160a01b038716600090815292839052822090610446908890611a0b565b908152604080519182900360209081018320600301939093556001600160a01b038716600090815292839052822090610480908890611a0b565b9081526040805160209281900383018120600501939093556001600160a01b0387166000908152918290529020906104b9908790611a0b565b9081526020016040518091039020600482815481106104da576104da611a27565b60009182526020909120600690910201806104f58382611ac2565b5060018281015490820180546001600160a01b0319166001600160a01b0392831617905560028084015490830155600380840154818401556004808501548185015560059485015494909301939093556040805180820182529384526203078360ec1b602085015251635f22feb160e11b81529086169263be45fd62926105829289928892909101611ba3565b6020604051808303816000875af11580156105a1573d6000803e3d6000fd5b505050506040513d601f19601f820116820180604052508101906105c59190611bd4565b505050505050565b6000602081815292815260409020815180830184018051928152908401929093019190912091528054819061060190611a3d565b80601f016020809104026020016040519081016040528092919081815260200182805461062d90611a3d565b801561067a5780601f1061064f5761010080835404028352916020019161067a565b820191906000526020600020905b81548152906001019060200180831161065d57829003601f168201915b505050600184015460028501546003860154600487015460059097015495966001600160a01b0390931695919450925086565b6002546001600160a01b031633146106f75760405162461bcd60e51b815260206004820152600d60248201526c4f6e6c792045786368616e676560981b6044820152606401610225565b6040805160c0810182528481526001600160a01b03861660208083018290528284018690526060830185905260045460808401524260a08401526000918252819052829020915190919061074c908690611a0b565b908152604051908190036020019020815181906107699082611bf6565b506020828101516001830180546001600160a01b0319166001600160a01b03928316179055604080850151600285015560608501516003850155608085015160048086019190915560a090950151600590940193909355871660009081529081905281902090516107db908690611a0b565b9081526040516020918190038201902082546001810184556000938452919092206006909102018061080d8382611ac2565b5060018281015490820180546001600160a01b0319166001600160a01b0390921691909117905560028083015490820155600380830154908201556004808301549082015560059182015491015550505050565b6002546001600160a01b031633146108ab5760405162461bcd60e51b815260206004820152600d60248201526c4f6e6c792045786368616e676560981b6044820152606401610225565b6001600160a01b03821660009081526020819052604080822090516108d1908690611a0b565b9081526040805160209281900383018120600401546001600160a01b03871660009081529384905291832091935061090a908790611a0b565b9081526040805160209281900383018120600201546001600160a01b038816600090815293849052918320919350610943908890611a0b565b908152604051908190036020019020600101546001600160a01b039081169150851681146109a45760405162461bcd60e51b815260206004820152600e60248201526d34b73b30b634b21039b2b63632b960911b6044820152606401610225565b600082116109e55760405162461bcd60e51b815260206004820152600e60248201526d1a5b9d985b1a5908185b5bdd5b9d60921b6044820152606401610225565b6109ef8483611cc6565b6001600160a01b038616600090815260208190526040908190209051610a16908990611a0b565b9081526040805160209281900383018120600201939093556001600160a01b038816600090815291829052902090610a4f908890611a0b565b908152602001604051809103902060048481548110610a7057610a70611a27565b6000918252602090912060069091020180610a8b8382611ac2565b5060018281015490820180546001600160a01b0319166001600160a01b03909216919091179055600280830154908201556003808301549082015560048083015490820155600591820154910155505050505050565b6002546001600160a01b03163314610b2b5760405162461bcd60e51b815260206004820152600d60248201526c4f6e6c792045786368616e676560981b6044820152606401610225565b6001600160a01b0382166000908152602081905260408082209051610b51908690611a0b565b9081526040805160209281900383018120600301546001600160a01b038716600090815293849052918320919350610b8a908790611a0b565b9081526040805160209281900383018120600401546001600160a01b038816600090815293849052918320919350610bc3908890611a0b565b9081526040805160209281900383018120600201546001600160a01b038916600090815293849052918320919350610bfc908990611a0b565b90815260405190819003602001812060019081015490546302f6679160e41b83526001600160a01b039182169350600092911690632f66791090610c44908b906004016119db565b602060405180830381865afa158015610c61573d6000803e3d6000fd5b505050506040513d601f19601f82011682018060405250810190610c8591906119ee565b90506000816001600160a01b031663d59624b46040518163ffffffff1660e01b8152600401602060405180830381865afa158015610cc7573d6000803e3d6000fd5b505050506040513d601f19601f82011682018060405250810190610ceb9190611cd9565b9050876001600160a01b0316836001600160a01b031614610d3f5760405162461bcd60e51b815260206004820152600e60248201526d34b73b30b634b21039b2b63632b960911b6044820152606401610225565b60008411610d805760405162461bcd60e51b815260206004820152600e60248201526d1a5b9d985b1a5908185b5bdd5b9d60921b6044820152606401610225565b858703610dcf5760405162461bcd60e51b815260206004820152600f60248201527f756e6368616e67656420707269636500000000000000000000000000000000006044820152606401610225565b804210610e1e5760405162461bcd60e51b815260206004820152600d60248201527f626f6e6473206d617475726564000000000000000000000000000000000000006044820152606401610225565b866000808a6001600160a01b03166001600160a01b031681526020019081526020016000208a604051610e519190611a0b565b9081526040805160209281900383018120600301939093556001600160a01b038b16600090815291829052902090610e8a908b90611a0b565b908152602001604051809103902060048681548110610eab57610eab611a27565b6000918252602090912060069091020180610ec68382611ac2565b5060018281015490820180546001600160a01b0319166001600160a01b03909216919091179055600280830154908201556003808301549082015560048083015490820155600591820154910155505050505050505050565b6002546001600160a01b03163314610f695760405162461bcd60e51b815260206004820152600d60248201526c4f6e6c792045786368616e676560981b6044820152606401610225565b6001546040516302f6679160e41b81526000916001600160a01b031690632f66791090610f9a9088906004016119db565b602060405180830381865afa158015610fb7573d6000803e3d6000fd5b505050506040513d601f19601f82011682018060405250810190610fdb91906119ee565b6001600160a01b03851660009081526020819052604080822090519293509091611006908890611a0b565b9081526040805160209281900383018120600401546001600160a01b03891660009081529384905291832091935061103f908990611a0b565b9081526040805160209281900383018120600201546001600160a01b038a16600090815293849052918320919350611078908a90611a0b565b908152604051908190036020019020600101546001600160a01b039081169150871681146110d95760405162461bcd60e51b815260206004820152600e60248201526d34b73b30b634b21039b2b63632b960911b6044820152606401610225565b6000821180156110e95750848210155b6111265760405162461bcd60e51b815260206004820152600e60248201526d1a5b9d985b1a5908185b5bdd5b9d60921b6044820152606401610225565b8482036111df576001600160a01b0387166000908152602081905260408082209051611153908b90611a0b565b908152604080519182900360209081018320600201939093556001600160a01b038a1660009081529283905282209061118d908b90611a0b565b908152604080519182900360209081018320600301939093556001600160a01b038a166000908152928390528220906111c7908b90611a0b565b90815260405190819003602001902060050155611224565b6111e98583611cf2565b6001600160a01b038816600090815260208190526040908190209051611210908b90611a0b565b908152604051908190036020019020600201555b6001600160a01b03871660009081526020819052604090819020905161124b908a90611a0b565b90815260200160405180910390206004848154811061126c5761126c611a27565b60009182526020909120600690910201806112878382611ac2565b5060018281015490820180546001600160a01b0319166001600160a01b0392831617905560028084015490830155600380840154818401556004808501548185015560059485015494909301939093556040805180820182529384526203078360ec1b602085015251635f22feb160e11b81529087169263be45fd6292611314928b928b92909101611ba3565b6020604051808303816000875af1158015611333573d6000803e3d6000fd5b505050506040513d601f19601f820116820180604052508101906113579190611bd4565b505050505050505050565b6113a46040518060c001604052806060815260200160006001600160a01b03168152602001600081526020016000815260200160008152602001600081525090565b6001600160a01b0383166000908152602081905260409081902090516113cb908490611a0b565b90815260200160405180910390206040518060c00160405290816000820180546113f490611a3d565b80601f016020809104026020016040519081016040528092919081815260200182805461142090611a3d565b801561146d5780601f106114425761010080835404028352916020019161146d565b820191906000526020600020905b81548152906001019060200180831161145057829003601f168201915b505050918352505060018201546001600160a01b0316602082015260028201546040820152600382015460608201526004820154608082015260059091015460a09091015290505b92915050565b60606004805480602002602001604051908101604052809291908181526020016000905b828210156115e457838290600052602060002090600602016040518060c001604052908160008201805461151290611a3d565b80601f016020809104026020016040519081016040528092919081815260200182805461153e90611a3d565b801561158b5780601f106115605761010080835404028352916020019161158b565b820191906000526020600020905b81548152906001019060200180831161156e57829003601f168201915b50505091835250506001828101546001600160a01b031660208084019190915260028401546040840152600384015460608401526004840154608084015260059093015460a090920191909152918352920191016114df565b50505050905090565b634e487b7160e01b600052604160045260246000fd5b600082601f83011261161457600080fd5b813567ffffffffffffffff8082111561162f5761162f6115ed565b604051601f8301601f19908116603f01168101908282118183101715611657576116576115ed565b8160405283815286602085880101111561167057600080fd5b836020870160208301376000602085830101528094505050505092915050565b6001600160a01b03811681146116a557600080fd5b50565b600080604083850312156116bb57600080fd5b823567ffffffffffffffff8111156116d257600080fd5b6116de85828601611603565b92505060208301356116ef81611690565b809150509250929050565b6000806040838503121561170d57600080fd5b823561171881611690565b9150602083013567ffffffffffffffff81111561173457600080fd5b61174085828601611603565b9150509250929050565b60005b8381101561176557818101518382015260200161174d565b50506000910152565b6000815180845261178681602086016020860161174a565b601f01601f19169290920160200192915050565b60c0815260006117ad60c083018961176e565b6001600160a01b039790971660208301525060408101949094526060840192909252608083015260a090910152919050565b600080600080608085870312156117f557600080fd5b843561180081611690565b9350602085013567ffffffffffffffff81111561181c57600080fd5b61182887828801611603565b949794965050505060408301359260600135919050565b60008060006060848603121561185457600080fd5b833567ffffffffffffffff81111561186b57600080fd5b61187786828701611603565b935050602084013561188881611690565b929592945050506040919091013590565b600080600080608085870312156118af57600080fd5b843567ffffffffffffffff8111156118c657600080fd5b6118d287828801611603565b94505060208501356118e381611690565b925060408501356118f381611690565b9396929550929360600135925050565b6000815160c0845261191860c085018261176e565b90506001600160a01b03602084015116602085015260408301516040850152606083015160608501526080830151608085015260a083015160a08501528091505092915050565b6020815260006119726020830184611903565b9392505050565b6000602080830181845280855180835260408601915060408160051b870101925083870160005b828110156119ce57603f198886030184526119bc858351611903565b945092850192908501906001016119a0565b5092979650505050505050565b602081526000611972602083018461176e565b600060208284031215611a0057600080fd5b815161197281611690565b60008251611a1d81846020870161174a565b9190910192915050565b634e487b7160e01b600052603260045260246000fd5b600181811c90821680611a5157607f821691505b602082108103611a7157634e487b7160e01b600052602260045260246000fd5b50919050565b601f821115611abd57600081815260208120601f850160051c81016020861015611a9e5750805b601f850160051c820191505b818110156105c557828155600101611aaa565b505050565b818103611acd575050565b611ad78254611a3d565b67ffffffffffffffff811115611aef57611aef6115ed565b611b0381611afd8454611a3d565b84611a77565b6000601f821160018114611b375760008315611b1f5750848201545b600019600385901b1c1916600184901b178455611b9c565b600085815260209020601f19841690600086815260209020845b83811015611b715782860154825560019586019590910190602001611b51565b5085831015611b8f5781850154600019600388901b60f8161c191681555b50505060018360011b0184555b5050505050565b6001600160a01b0384168152826020820152606060408201526000611bcb606083018461176e565b95945050505050565b600060208284031215611be657600080fd5b8151801515811461197257600080fd5b815167ffffffffffffffff811115611c1057611c106115ed565b611c1e81611afd8454611a3d565b602080601f831160018114611c535760008415611c3b5750858301515b600019600386901b1c1916600185901b1785556105c5565b600085815260208120601f198616915b82811015611c8257888601518255948401946001909101908401611c63565b5085821015611ca05787850151600019600388901b60f8161c191681555b5050505050600190811b01905550565b634e487b7160e01b600052601160045260246000fd5b808201808211156114b5576114b5611cb0565b600060208284031215611ceb57600080fd5b5051919050565b818103818111156114b5576114b5611cb056fea26469706673582212206a8c5225431d2084fcea9d9957251309fdc636300390e3b864358b52609f1ac864736f6c63430008130033",
  "linkReferences": {},
  "deployedLinkReferences": {}
}