{
  "_format": "hh-sol-artifact-1",
  "contractName": "CouponPayment",
  "sourceName": "contracts/coupon/CouponPayment.sol",
  "abi": [
    {
      "inputs": [],
      "stateMutability": "nonpayable",
      "type": "constructor"
    },
    {
      "inputs": [],
      "name": "bankContract",
      "outputs": [
        {
          "internalType": "address",
          "name": "",
          "type": "address"
        }
      ],
      "stateMutability": "view",
      "type": "function"
    },
    {
      "inputs": [
        {
          "internalType": "address",
          "name": "_bondContract",
          "type": "address"
        }
      ],
      "name": "contractBalance",
      "outputs": [
        {
          "internalType": "uint256",
          "name": "",
          "type": "uint256"
        }
      ],
      "stateMutability": "view",
      "type": "function"
    },
    {
      "inputs": [
        {
          "internalType": "address",
          "name": "_bondContract",
          "type": "address"
        }
      ],
      "name": "getListOfInterestsPaid",
      "outputs": [
        {
          "components": [
            {
              "internalType": "uint256",
              "name": "issueVolume",
              "type": "uint256"
            },
            {
              "internalType": "uint256",
              "name": "couponRate",
              "type": "uint256"
            },
            {
              "internalType": "uint256",
              "name": "interestPaid",
              "type": "uint256"
            }
          ],
          "internalType": "struct BondData.CouponPaymentReceipt[]",
          "name": "",
          "type": "tuple[]"
        }
      ],
      "stateMutability": "view",
      "type": "function"
    },
    {
      "inputs": [
        {
          "internalType": "address",
          "name": "_bondContract",
          "type": "address"
        }
      ],
      "name": "payAnnualInterest",
      "outputs": [],
      "stateMutability": "nonpayable",
      "type": "function"
    },
    {
      "inputs": [
        {
          "internalType": "uint256",
          "name": "_duration",
          "type": "uint256"
        },
        {
          "internalType": "address",
          "name": "_bondContract",
          "type": "address"
        }
      ],
      "name": "payInterest",
      "outputs": [],
      "stateMutability": "nonpayable",
      "type": "function"
    },
    {
      "inputs": [
        {
          "internalType": "address",
          "name": "_bondContract",
          "type": "address"
        }
      ],
      "name": "payInterestEveryMinutes",
      "outputs": [],
      "stateMutability": "nonpayable",
      "type": "function"
    },
    {
      "inputs": [],
      "name": "toposManager",
      "outputs": [
        {
          "internalType": "address",
          "name": "",
          "type": "address"
        }
      ],
      "stateMutability": "view",
      "type": "function"
    },
    {
      "inputs": [
        {
          "internalType": "address",
          "name": "_bondContract",
          "type": "address"
        }
      ],
      "name": "totalAnnualInterestToPay",
      "outputs": [
        {
          "internalType": "uint256",
          "name": "",
          "type": "uint256"
        }
      ],
      "stateMutability": "view",
      "type": "function"
    },
    {
      "inputs": [
        {
          "internalType": "uint256",
          "name": "_duration",
          "type": "uint256"
        },
        {
          "internalType": "address",
          "name": "_bondContract",
          "type": "address"
        }
      ],
      "name": "totalInterestToPay",
      "outputs": [
        {
          "internalType": "uint256",
          "name": "",
          "type": "uint256"
        }
      ],
      "stateMutability": "view",
      "type": "function"
    }
  ],
  "bytecode": "0x608060405234801561001057600080fd5b50336000806101000a81548173ffffffffffffffffffffffffffffffffffffffff021916908373ffffffffffffffffffffffffffffffffffffffff160217905550611a1e806100606000396000f3fe608060405234801561001057600080fd5b50600436106100935760003560e01c80636dd09528116100665780636dd09528146101325780637f31ed731461014e578063b8f16e781461016c578063c53b77021461019c578063dd634c30146101cc57610093565b806307c2e4491461009857806313676c62146100b65780633fddb0dd146100d25780634098332b14610102575b600080fd5b6100a06101e8565b6040516100ad919061121e565b60405180910390f35b6100d060048036038101906100cb9190611279565b61020e565b005b6100ec60048036038101906100e79190611279565b6104ed565b6040516100f991906113b0565b60405180910390f35b61011c600480360381019061011791906113fe565b6105a9565b604051610129919061144d565b60405180910390f35b61014c600480360381019061014791906113fe565b610721565b005b610156610b96565b604051610163919061121e565b60405180910390f35b61018660048036038101906101819190611279565b610bba565b604051610193919061144d565b60405180910390f35b6101b660048036038101906101b19190611279565b610d2f565b6040516101c3919061144d565b60405180910390f35b6101e660048036038101906101e19190611279565b610e25565b005b600160009054906101000a900473ffffffffffffffffffffffffffffffffffffffff1681565b60008054906101000a900473ffffffffffffffffffffffffffffffffffffffff1673ffffffffffffffffffffffffffffffffffffffff163373ffffffffffffffffffffffffffffffffffffffff161461029c576040517f08c379a0000000000000000000000000000000000000000000000000000000008152600401610293906114c5565b60405180910390fd5b60008173ffffffffffffffffffffffffffffffffffffffff16638db6f28a6040518163ffffffff1660e01b8152600401600060405180830381865afa1580156102e9573d6000803e3d6000fd5b505050506040513d6000823e3d601f19601f8201168201806040525081019061031291906116bd565b905060008273ffffffffffffffffffffffffffffffffffffffff1663e5a6b10f6040518163ffffffff1660e01b8152600401602060405180830381865afa158015610361573d6000803e3d6000fd5b505050506040513d601f19601f820116820180604052508101906103859190611706565b905060005b82518110156104e75760008382815181106103a8576103a7611733565b5b60200260200101516000015190506000670de0b6b3a764000073__$8ea466f8ddc120f03f94e9376a86d0f114$__630b75d95f84896040518363ffffffff1660e01b81526004016103fa929190611771565b602060405180830381865af4158015610417573d6000803e3d6000fd5b505050506040513d601f19601f8201168201806040525081019061043b919061179a565b61044591906117f6565b90508373ffffffffffffffffffffffffffffffffffffffff1663a9059cbb836064846104719190611867565b6040518363ffffffff1660e01b815260040161048e929190611898565b6020604051808303816000875af11580156104ad573d6000803e3d6000fd5b505050506040513d601f19601f820116820180604052508101906104d191906118f9565b50505080806104df90611926565b91505061038a565b50505050565b6060600260008373ffffffffffffffffffffffffffffffffffffffff1673ffffffffffffffffffffffffffffffffffffffff168152602001908152602001600020805480602002602001604051908101604052809291908181526020016000905b8282101561059e578382906000526020600020906003020160405180606001604052908160008201548152602001600182015481526020016002820154815250508152602001906001019061054e565b505050509050919050565b6000808273ffffffffffffffffffffffffffffffffffffffff16638db6f28a6040518163ffffffff1660e01b8152600401600060405180830381865afa1580156105f7573d6000803e3d6000fd5b505050506040513d6000823e3d601f19601f8201168201806040525081019061062091906116bd565b90506000805b82518110156106f557600083828151811061064457610643611733565b5b6020026020010151600001519050600073__$8ea466f8ddc120f03f94e9376a86d0f114$__63df91e76c838a8a6040518463ffffffff1660e01b815260040161068f9392919061197d565b602060405180830381865af41580156106ac573d6000803e3d6000fd5b505050506040513d601f19601f820116820180604052508101906106d0919061179a565b905080846106de91906119b4565b9350505080806106ed90611926565b915050610626565b50612710670de0b6b3a76400008261070d91906117f6565b6107179190611867565b9250505092915050565b60008054906101000a900473ffffffffffffffffffffffffffffffffffffffff1673ffffffffffffffffffffffffffffffffffffffff163373ffffffffffffffffffffffffffffffffffffffff16146107af576040517f08c379a00000000000000000000000000000000000000000000000000000000081526004016107a6906114c5565b60405180910390fd5b60008173ffffffffffffffffffffffffffffffffffffffff16638db6f28a6040518163ffffffff1660e01b8152600401600060405180830381865afa1580156107fc573d6000803e3d6000fd5b505050506040513d6000823e3d601f19601f8201168201806040525081019061082591906116bd565b905060008273ffffffffffffffffffffffffffffffffffffffff1663e5a6b10f6040518163ffffffff1660e01b8152600401602060405180830381865afa158015610874573d6000803e3d6000fd5b505050506040513d601f19601f820116820180604052508101906108989190611706565b905060008373ffffffffffffffffffffffffffffffffffffffff1663710d33296040518163ffffffff1660e01b8152600401602060405180830381865afa1580156108e7573d6000803e3d6000fd5b505050506040513d601f19601f8201168201806040525081019061090b919061179a565b905060008473ffffffffffffffffffffffffffffffffffffffff1663c0bcb26f6040518163ffffffff1660e01b8152600401602060405180830381865afa15801561095a573d6000803e3d6000fd5b505050506040513d601f19601f8201168201806040525081019061097e919061179a565b90506000805b8551811015610ae35760008682815181106109a2576109a1611733565b5b60200260200101516000015190506000655af3107a400073__$8ea466f8ddc120f03f94e9376a86d0f114$__63df91e76c848d8d6040518463ffffffff1660e01b81526004016109f49392919061197d565b602060405180830381865af4158015610a11573d6000803e3d6000fd5b505050506040513d601f19601f82011682018060405250810190610a35919061179a565b610a3f91906117f6565b90508673ffffffffffffffffffffffffffffffffffffffff1663a9059cbb83836040518363ffffffff1660e01b8152600401610a7c929190611898565b6020604051808303816000875af1158015610a9b573d6000803e3d6000fd5b505050506040513d601f19601f82011682018060405250810190610abf91906118f9565b508084610acc91906119b4565b935050508080610adb90611926565b915050610984565b5060006040518060600160405280858152602001848152602001838152509050600260008873ffffffffffffffffffffffffffffffffffffffff1673ffffffffffffffffffffffffffffffffffffffff16815260200190815260200160002081908060018154018082558091505060019003906000526020600020906003020160009091909190915060008201518160000155602082015181600101556040820151816002015550505050505050505050565b60008054906101000a900473ffffffffffffffffffffffffffffffffffffffff1681565b6000808273ffffffffffffffffffffffffffffffffffffffff16638db6f28a6040518163ffffffff1660e01b8152600401600060405180830381865afa158015610c08573d6000803e3d6000fd5b505050506040513d6000823e3d601f19601f82011682018060405250810190610c3191906116bd565b90506000805b8251811015610d24576000838281518110610c5557610c54611733565b5b60200260200101516000015190506000612710670de0b6b3a764000073__$8ea466f8ddc120f03f94e9376a86d0f114$__630b75d95f858b6040518363ffffffff1660e01b8152600401610caa929190611771565b602060405180830381865af4158015610cc7573d6000803e3d6000fd5b505050506040513d601f19601f82011682018060405250810190610ceb919061179a565b610cf591906117f6565b610cff9190611867565b90508084610d0d91906119b4565b935050508080610d1c90611926565b915050610c37565b508092505050919050565b6000808273ffffffffffffffffffffffffffffffffffffffff1663e5a6b10f6040518163ffffffff1660e01b8152600401602060405180830381865afa158015610d7d573d6000803e3d6000fd5b505050506040513d601f19601f82011682018060405250810190610da19190611706565b90508073ffffffffffffffffffffffffffffffffffffffff166370a08231306040518263ffffffff1660e01b8152600401610ddc919061121e565b602060405180830381865afa158015610df9573d6000803e3d6000fd5b505050506040513d601f19601f82011682018060405250810190610e1d919061179a565b915050919050565b60008173ffffffffffffffffffffffffffffffffffffffff16638db6f28a6040518163ffffffff1660e01b8152600401600060405180830381865afa158015610e72573d6000803e3d6000fd5b505050506040513d6000823e3d601f19601f82011682018060405250810190610e9b91906116bd565b905060008273ffffffffffffffffffffffffffffffffffffffff1663710d33296040518163ffffffff1660e01b8152600401602060405180830381865afa158015610eea573d6000803e3d6000fd5b505050506040513d601f19601f82011682018060405250810190610f0e919061179a565b905060008373ffffffffffffffffffffffffffffffffffffffff1663c0bcb26f6040518163ffffffff1660e01b8152600401602060405180830381865afa158015610f5d573d6000803e3d6000fd5b505050506040513d601f19601f82011682018060405250810190610f81919061179a565b905060008473ffffffffffffffffffffffffffffffffffffffff1663e5a6b10f6040518163ffffffff1660e01b8152600401602060405180830381865afa158015610fd0573d6000803e3d6000fd5b505050506040513d601f19601f82011682018060405250810190610ff49190611706565b90506000805b855181101561112b57600086828151811061101857611017611733565b5b6020026020010151600001519050600087838151811061103b5761103a611733565b5b6020026020010151602001519050600064496cebb800607888670de0b6b3a76400008561106891906117f6565b61107291906117f6565b61107c91906117f6565b6110869190611867565b90508573ffffffffffffffffffffffffffffffffffffffff1663a9059cbb84836040518363ffffffff1660e01b81526004016110c3929190611898565b6020604051808303816000875af11580156110e2573d6000803e3d6000fd5b505050506040513d601f19601f8201168201806040525081019061110691906118f9565b50808561111391906119b4565b9450505050808061112390611926565b915050610ffa565b5060006040518060600160405280868152602001858152602001838152509050600260008873ffffffffffffffffffffffffffffffffffffffff1673ffffffffffffffffffffffffffffffffffffffff168152602001908152602001600020819080600181540180825580915050600190039060005260206000209060030201600090919091909150600082015181600001556020820151816001015560408201518160020155505050505050505050565b600073ffffffffffffffffffffffffffffffffffffffff82169050919050565b6000611208826111dd565b9050919050565b611218816111fd565b82525050565b6000602082019050611233600083018461120f565b92915050565b6000604051905090565b600080fd5b600080fd5b611256816111fd565b811461126157600080fd5b50565b6000813590506112738161124d565b92915050565b60006020828403121561128f5761128e611243565b5b600061129d84828501611264565b91505092915050565b600081519050919050565b600082825260208201905092915050565b6000819050602082019050919050565b6000819050919050565b6112e5816112d2565b82525050565b60608201600082015161130160008501826112dc565b50602082015161131460208501826112dc565b50604082015161132760408501826112dc565b50505050565b600061133983836112eb565b60608301905092915050565b6000602082019050919050565b600061135d826112a6565b61136781856112b1565b9350611372836112c2565b8060005b838110156113a357815161138a888261132d565b975061139583611345565b925050600181019050611376565b5085935050505092915050565b600060208201905081810360008301526113ca8184611352565b905092915050565b6113db816112d2565b81146113e657600080fd5b50565b6000813590506113f8816113d2565b92915050565b6000806040838503121561141557611414611243565b5b6000611423858286016113e9565b925050602061143485828601611264565b9150509250929050565b611447816112d2565b82525050565b6000602082019050611462600083018461143e565b92915050565b600082825260208201905092915050565b7f436f75706f6e5061796d656e743a204f4e4c595f42414e4b5f4d414e41474552600082015250565b60006114af602083611468565b91506114ba82611479565b602082019050919050565b600060208201905081810360008301526114de816114a2565b9050919050565b600080fd5b6000601f19601f8301169050919050565b7f4e487b7100000000000000000000000000000000000000000000000000000000600052604160045260246000fd5b611533826114ea565b810181811067ffffffffffffffff82111715611552576115516114fb565b5b80604052505050565b6000611565611239565b9050611571828261152a565b919050565b600067ffffffffffffffff821115611591576115906114fb565b5b602082029050602081019050919050565b600080fd5b600080fd5b6000815190506115bb8161124d565b92915050565b6000815190506115d0816113d2565b92915050565b6000604082840312156115ec576115eb6115a7565b5b6115f6604061155b565b90506000611606848285016115ac565b600083015250602061161a848285016115c1565b60208301525092915050565b600061163961163484611576565b61155b565b9050808382526020820190506040840283018581111561165c5761165b6115a2565b5b835b81811015611685578061167188826115d6565b84526020840193505060408101905061165e565b5050509392505050565b600082601f8301126116a4576116a36114e5565b5b81516116b4848260208601611626565b91505092915050565b6000602082840312156116d3576116d2611243565b5b600082015167ffffffffffffffff8111156116f1576116f0611248565b5b6116fd8482850161168f565b91505092915050565b60006020828403121561171c5761171b611243565b5b600061172a848285016115ac565b91505092915050565b7f4e487b7100000000000000000000000000000000000000000000000000000000600052603260045260246000fd5b61176b816111fd565b82525050565b60006040820190506117866000830185611762565b6117936020830184611762565b9392505050565b6000602082840312156117b0576117af611243565b5b60006117be848285016115c1565b91505092915050565b7f4e487b7100000000000000000000000000000000000000000000000000000000600052601160045260246000fd5b6000611801826112d2565b915061180c836112d2565b925082820261181a816112d2565b91508282048414831517611831576118306117c7565b5b5092915050565b7f4e487b7100000000000000000000000000000000000000000000000000000000600052601260045260246000fd5b6000611872826112d2565b915061187d836112d2565b92508261188d5761188c611838565b5b828204905092915050565b60006040820190506118ad600083018561120f565b6118ba602083018461143e565b9392505050565b60008115159050919050565b6118d6816118c1565b81146118e157600080fd5b50565b6000815190506118f3816118cd565b92915050565b60006020828403121561190f5761190e611243565b5b600061191d848285016118e4565b91505092915050565b6000611931826112d2565b91507fffffffffffffffffffffffffffffffffffffffffffffffffffffffffffffffff8203611963576119626117c7565b5b600182019050919050565b611977816112d2565b82525050565b60006060820190506119926000830186611762565b61199f602083018561196e565b6119ac6040830184611762565b949350505050565b60006119bf826112d2565b91506119ca836112d2565b92508282019050808211156119e2576119e16117c7565b5b9291505056fea26469706673582212207d228fed32ad18df86d4331b82bc6fa7f706753f2ba519aa1c64d8b68c6b4bc064736f6c63430008130033",
  "linkReferences": {
    "contracts/coupon/CouponMath.sol": {
      "CouponMath": [
        {
          "length": 20,
          "start": 1059
        },
        {
          "length": 20,
          "start": 1718
        },
        {
          "length": 20,
          "start": 2587
        },
        {
          "length": 20,
          "start": 3283
        }
      ]
    }
  },
  "deployedLinkReferences": {
    "contracts/coupon/CouponMath.sol": {
      "CouponMath": [
        {
          "length": 20,
          "start": 963
        },
        {
          "length": 20,
          "start": 1622
        },
        {
          "length": 20,
          "start": 2491
        },
        {
          "length": 20,
          "start": 3187
        }
      ]
    }
  }
}