{
  "_format": "hh-sol-artifact-1",
  "contractName": "ExchangeBondsStorage",
  "sourceName": "contracts/Topos/Exchange/ExchangeBondsStorage.sol",
  "abi": [
    {
      "inputs": [
        {
          "internalType": "address",
          "name": "_bankContract",
          "type": "address"
        },
        {
          "internalType": "address",
          "name": "_exchangeContract",
          "type": "address"
        },
        {
          "internalType": "address",
          "name": "_bondCallContract",
          "type": "address"
        }
      ],
      "stateMutability": "nonpayable",
      "type": "constructor"
    },
    {
      "inputs": [],
      "name": "bankContract",
      "outputs": [
        {
          "internalType": "address",
          "name": "",
          "type": "address"
        }
      ],
      "stateMutability": "view",
      "type": "function"
    },
    {
      "inputs": [],
      "name": "bondCallContract",
      "outputs": [
        {
          "internalType": "address",
          "name": "",
          "type": "address"
        }
      ],
      "stateMutability": "view",
      "type": "function"
    },
    {
      "inputs": [
        {
          "internalType": "string",
          "name": "_dealID",
          "type": "string"
        },
        {
          "internalType": "address",
          "name": "_seller",
          "type": "address"
        },
        {
          "internalType": "address",
          "name": "_buyer",
          "type": "address"
        },
        {
          "internalType": "uint256",
          "name": "_amount",
          "type": "uint256"
        }
      ],
      "name": "buy",
      "outputs": [],
      "stateMutability": "nonpayable",
      "type": "function"
    },
    {
      "inputs": [
        {
          "internalType": "string",
          "name": "_dealID",
          "type": "string"
        },
        {
          "internalType": "address",
          "name": "_seller",
          "type": "address"
        }
      ],
      "name": "cancelBonds",
      "outputs": [],
      "stateMutability": "nonpayable",
      "type": "function"
    },
    {
      "inputs": [
        {
          "internalType": "address",
          "name": "_seller",
          "type": "address"
        },
        {
          "internalType": "string",
          "name": "_dealID",
          "type": "string"
        },
        {
          "internalType": "uint256",
          "name": "_amount",
          "type": "uint256"
        },
        {
          "internalType": "uint256",
          "name": "_price",
          "type": "uint256"
        }
      ],
      "name": "depositBonds",
      "outputs": [],
      "stateMutability": "nonpayable",
      "type": "function"
    },
    {
      "inputs": [],
      "name": "exchangeContract",
      "outputs": [
        {
          "internalType": "address",
          "name": "",
          "type": "address"
        }
      ],
      "stateMutability": "view",
      "type": "function"
    },
    {
      "inputs": [],
      "name": "getDealsListed",
      "outputs": [
        {
          "components": [
            {
              "internalType": "string",
              "name": "dealID",
              "type": "string"
            },
            {
              "internalType": "address",
              "name": "owner",
              "type": "address"
            },
            {
              "internalType": "uint256",
              "name": "amount",
              "type": "uint256"
            },
            {
              "internalType": "uint256",
              "name": "price",
              "type": "uint256"
            },
            {
              "internalType": "uint256",
              "name": "index",
              "type": "uint256"
            },
            {
              "internalType": "uint256",
              "name": "listingTime",
              "type": "uint256"
            }
          ],
          "internalType": "struct BondData.Listing[]",
          "name": "",
          "type": "tuple[]"
        }
      ],
      "stateMutability": "view",
      "type": "function"
    },
    {
      "inputs": [
        {
          "internalType": "address",
          "name": "_seller",
          "type": "address"
        },
        {
          "internalType": "string",
          "name": "_dealID",
          "type": "string"
        }
      ],
      "name": "getInvestorListing",
      "outputs": [
        {
          "components": [
            {
              "internalType": "string",
              "name": "dealID",
              "type": "string"
            },
            {
              "internalType": "address",
              "name": "owner",
              "type": "address"
            },
            {
              "internalType": "uint256",
              "name": "amount",
              "type": "uint256"
            },
            {
              "internalType": "uint256",
              "name": "price",
              "type": "uint256"
            },
            {
              "internalType": "uint256",
              "name": "index",
              "type": "uint256"
            },
            {
              "internalType": "uint256",
              "name": "listingTime",
              "type": "uint256"
            }
          ],
          "internalType": "struct BondData.Listing",
          "name": "",
          "type": "tuple"
        }
      ],
      "stateMutability": "view",
      "type": "function"
    },
    {
      "inputs": [
        {
          "internalType": "string",
          "name": "_dealID",
          "type": "string"
        },
        {
          "internalType": "address",
          "name": "_seller",
          "type": "address"
        },
        {
          "internalType": "uint256",
          "name": "_amountToAdd",
          "type": "uint256"
        }
      ],
      "name": "increaseAmount",
      "outputs": [],
      "stateMutability": "nonpayable",
      "type": "function"
    },
    {
      "inputs": [
        {
          "internalType": "address",
          "name": "",
          "type": "address"
        },
        {
          "internalType": "string",
          "name": "",
          "type": "string"
        }
      ],
      "name": "investorListing",
      "outputs": [
        {
          "internalType": "string",
          "name": "dealID",
          "type": "string"
        },
        {
          "internalType": "address",
          "name": "owner",
          "type": "address"
        },
        {
          "internalType": "uint256",
          "name": "amount",
          "type": "uint256"
        },
        {
          "internalType": "uint256",
          "name": "price",
          "type": "uint256"
        },
        {
          "internalType": "uint256",
          "name": "index",
          "type": "uint256"
        },
        {
          "internalType": "uint256",
          "name": "listingTime",
          "type": "uint256"
        }
      ],
      "stateMutability": "view",
      "type": "function"
    },
    {
      "inputs": [
        {
          "internalType": "string",
          "name": "_dealID",
          "type": "string"
        },
        {
          "internalType": "address",
          "name": "_seller",
          "type": "address"
        },
        {
          "internalType": "uint256",
          "name": "_newPrice",
          "type": "uint256"
        }
      ],
      "name": "updatePrice",
      "outputs": [],
      "stateMutability": "nonpayable",
      "type": "function"
    }
  ],
  "bytecode": "0x60806040523480156200001157600080fd5b50604051620033473803806200334783398181016040528101906200003791906200016d565b82600160006101000a81548173ffffffffffffffffffffffffffffffffffffffff021916908373ffffffffffffffffffffffffffffffffffffffff16021790555081600260006101000a81548173ffffffffffffffffffffffffffffffffffffffff021916908373ffffffffffffffffffffffffffffffffffffffff16021790555080600360006101000a81548173ffffffffffffffffffffffffffffffffffffffff021916908373ffffffffffffffffffffffffffffffffffffffff160217905550505050620001c9565b600080fd5b600073ffffffffffffffffffffffffffffffffffffffff82169050919050565b6000620001358262000108565b9050919050565b620001478162000128565b81146200015357600080fd5b50565b60008151905062000167816200013c565b92915050565b60008060006060848603121562000189576200018862000103565b5b6000620001998682870162000156565b9350506020620001ac8682870162000156565b9250506040620001bf8682870162000156565b9150509250925092565b61316e80620001d96000396000f3fe608060405234801561001057600080fd5b50600436106100a95760003560e01c80635e43522e116100715780635e43522e14610157578063995ae7d014610175578063a33f7da014610191578063d32e0f27146101ad578063d59dd022146101c9578063f14049d5146101f9576100a9565b806307c2e449146100ae5780632cc9143f146100cc5780632d9fc161146100e85780633f0a07971461011d5780635b91e7521461013b575b600080fd5b6100b6610217565b6040516100c3919061210f565b60405180910390f35b6100e660048036038101906100e191906122b0565b61023d565b005b61010260048036038101906100fd919061230c565b610868565b60405161011496959493929190612400565b60405180910390f35b61012561096f565b604051610132919061210f565b60405180910390f35b61015560048036038101906101509190612494565b610995565b005b61015f610c80565b60405161016c919061210f565b60405180910390f35b61018f600480360381019061018a9190612517565b610ca6565b005b6101ab60048036038101906101a69190612517565b6110c5565b005b6101c760048036038101906101c29190612586565b6116d5565b005b6101e360048036038101906101de919061230c565b611d8e565b6040516101f091906126fa565b60405180910390f35b610201611f13565b60405161020e9190612867565b60405180910390f35b600160009054906101000a900473ffffffffffffffffffffffffffffffffffffffff1681565b600260009054906101000a900473ffffffffffffffffffffffffffffffffffffffff1673ffffffffffffffffffffffffffffffffffffffff163373ffffffffffffffffffffffffffffffffffffffff16146102cd576040517f08c379a00000000000000000000000000000000000000000000000000000000081526004016102c4906128d5565b60405180910390fd5b6000600160009054906101000a900473ffffffffffffffffffffffffffffffffffffffff1673ffffffffffffffffffffffffffffffffffffffff16632f667910846040518263ffffffff1660e01b815260040161032a91906128f5565b602060405180830381865afa158015610347573d6000803e3d6000fd5b505050506040513d601f19601f8201168201806040525081019061036b919061292c565b90506000808373ffffffffffffffffffffffffffffffffffffffff1673ffffffffffffffffffffffffffffffffffffffff168152602001908152602001600020836040516103b99190612995565b908152602001604051809103902060010160009054906101000a900473ffffffffffffffffffffffffffffffffffffffff1673ffffffffffffffffffffffffffffffffffffffff168273ffffffffffffffffffffffffffffffffffffffff1614610458576040517f08c379a000000000000000000000000000000000000000000000000000000000815260040161044f906129f8565b60405180910390fd5b60008060008473ffffffffffffffffffffffffffffffffffffffff1673ffffffffffffffffffffffffffffffffffffffff168152602001908152602001600020846040516104a69190612995565b908152602001604051809103902060020154905060008060008573ffffffffffffffffffffffffffffffffffffffff1673ffffffffffffffffffffffffffffffffffffffff168152602001908152602001600020856040516105089190612995565b90815260200160405180910390206004015490506000821161055f576040517f08c379a000000000000000000000000000000000000000000000000000000000815260040161055690612a64565b60405180910390fd5b60008060008673ffffffffffffffffffffffffffffffffffffffff1673ffffffffffffffffffffffffffffffffffffffff168152602001908152602001600020866040516105ad9190612995565b90815260200160405180910390206002018190555060008060008673ffffffffffffffffffffffffffffffffffffffff1673ffffffffffffffffffffffffffffffffffffffff168152602001908152602001600020866040516106109190612995565b90815260200160405180910390206003018190555060008060008673ffffffffffffffffffffffffffffffffffffffff1673ffffffffffffffffffffffffffffffffffffffff168152602001908152602001600020866040516106739190612995565b9081526020016040518091039020600501819055506000808573ffffffffffffffffffffffffffffffffffffffff1673ffffffffffffffffffffffffffffffffffffffff168152602001908152602001600020856040516106d49190612995565b9081526020016040518091039020600482815481106106f6576106f5612a84565b5b9060005260206000209060060201600082018160000190816107189190612cd5565b506001820160009054906101000a900473ffffffffffffffffffffffffffffffffffffffff168160010160006101000a81548173ffffffffffffffffffffffffffffffffffffffff021916908373ffffffffffffffffffffffffffffffffffffffff160217905550600282015481600201556003820154816003015560048201548160040155600582015481600501559050508273ffffffffffffffffffffffffffffffffffffffff1663be45fd6285846040518060400160405280600381526020017f30783000000000000000000000000000000000000000000000000000000000008152506040518463ffffffff1660e01b815260040161081d93929190612e12565b6020604051808303816000875af115801561083c573d6000803e3d6000fd5b505050506040513d601f19601f820116820180604052508101906108609190612e88565b505050505050565b600060205281600052604060002081805160208101820180518482526020830160208501208183528095505050505050600091509150508060000180546108ae90612ae2565b80601f01602080910402602001604051908101604052809291908181526020018280546108da90612ae2565b80156109275780601f106108fc57610100808354040283529160200191610927565b820191906000526020600020905b81548152906001019060200180831161090a57829003601f168201915b5050505050908060010160009054906101000a900473ffffffffffffffffffffffffffffffffffffffff16908060020154908060030154908060040154908060050154905086565b600260009054906101000a900473ffffffffffffffffffffffffffffffffffffffff1681565b600260009054906101000a900473ffffffffffffffffffffffffffffffffffffffff1673ffffffffffffffffffffffffffffffffffffffff163373ffffffffffffffffffffffffffffffffffffffff1614610a25576040517f08c379a0000000000000000000000000000000000000000000000000000000008152600401610a1c906128d5565b60405180910390fd5b6040518060c001604052808481526020018573ffffffffffffffffffffffffffffffffffffffff1681526020018381526020018281526020016004805490508152602001428152506000808673ffffffffffffffffffffffffffffffffffffffff1673ffffffffffffffffffffffffffffffffffffffff16815260200190815260200160002084604051610ab99190612995565b90815260200160405180910390206000820151816000019081610adc9190612eb5565b5060208201518160010160006101000a81548173ffffffffffffffffffffffffffffffffffffffff021916908373ffffffffffffffffffffffffffffffffffffffff16021790555060408201518160020155606082015181600301556080820151816004015560a0820151816005015590505060046000808673ffffffffffffffffffffffffffffffffffffffff1673ffffffffffffffffffffffffffffffffffffffff16815260200190815260200160002084604051610b9d9190612995565b9081526020016040518091039020908060018154018082558091505060019003906000526020600020906006020160009091909190915060008201816000019081610be89190612cd5565b506001820160009054906101000a900473ffffffffffffffffffffffffffffffffffffffff168160010160006101000a81548173ffffffffffffffffffffffffffffffffffffffff021916908373ffffffffffffffffffffffffffffffffffffffff16021790555060028201548160020155600382015481600301556004820154816004015560058201548160050155505050505050565b600360009054906101000a900473ffffffffffffffffffffffffffffffffffffffff1681565b600260009054906101000a900473ffffffffffffffffffffffffffffffffffffffff1673ffffffffffffffffffffffffffffffffffffffff163373ffffffffffffffffffffffffffffffffffffffff1614610d36576040517f08c379a0000000000000000000000000000000000000000000000000000000008152600401610d2d906128d5565b60405180910390fd5b60008060008473ffffffffffffffffffffffffffffffffffffffff1673ffffffffffffffffffffffffffffffffffffffff16815260200190815260200160002084604051610d849190612995565b908152602001604051809103902060040154905060008060008573ffffffffffffffffffffffffffffffffffffffff1673ffffffffffffffffffffffffffffffffffffffff16815260200190815260200160002085604051610de69190612995565b908152602001604051809103902060020154905060008060008673ffffffffffffffffffffffffffffffffffffffff1673ffffffffffffffffffffffffffffffffffffffff16815260200190815260200160002086604051610e489190612995565b908152602001604051809103902060010160009054906101000a900473ffffffffffffffffffffffffffffffffffffffff1690508473ffffffffffffffffffffffffffffffffffffffff168173ffffffffffffffffffffffffffffffffffffffff1614610eea576040517f08c379a0000000000000000000000000000000000000000000000000000000008152600401610ee1906129f8565b60405180910390fd5b60008211610f2d576040517f08c379a0000000000000000000000000000000000000000000000000000000008152600401610f2490612a64565b60405180910390fd5b8382610f399190612fb6565b6000808773ffffffffffffffffffffffffffffffffffffffff1673ffffffffffffffffffffffffffffffffffffffff16815260200190815260200160002087604051610f859190612995565b9081526020016040518091039020600201819055506000808673ffffffffffffffffffffffffffffffffffffffff1673ffffffffffffffffffffffffffffffffffffffff16815260200190815260200160002086604051610fe69190612995565b90815260200160405180910390206004848154811061100857611007612a84565b5b90600052602060002090600602016000820181600001908161102a9190612cd5565b506001820160009054906101000a900473ffffffffffffffffffffffffffffffffffffffff168160010160006101000a81548173ffffffffffffffffffffffffffffffffffffffff021916908373ffffffffffffffffffffffffffffffffffffffff16021790555060028201548160020155600382015481600301556004820154816004015560058201548160050155905050505050505050565b600260009054906101000a900473ffffffffffffffffffffffffffffffffffffffff1673ffffffffffffffffffffffffffffffffffffffff163373ffffffffffffffffffffffffffffffffffffffff1614611155576040517f08c379a000000000000000000000000000000000000000000000000000000000815260040161114c906128d5565b60405180910390fd5b60008060008473ffffffffffffffffffffffffffffffffffffffff1673ffffffffffffffffffffffffffffffffffffffff168152602001908152602001600020846040516111a39190612995565b908152602001604051809103902060030154905060008060008573ffffffffffffffffffffffffffffffffffffffff1673ffffffffffffffffffffffffffffffffffffffff168152602001908152602001600020856040516112059190612995565b908152602001604051809103902060040154905060008060008673ffffffffffffffffffffffffffffffffffffffff1673ffffffffffffffffffffffffffffffffffffffff168152602001908152602001600020866040516112679190612995565b908152602001604051809103902060020154905060008060008773ffffffffffffffffffffffffffffffffffffffff1673ffffffffffffffffffffffffffffffffffffffff168152602001908152602001600020876040516112c99190612995565b908152602001604051809103902060010160009054906101000a900473ffffffffffffffffffffffffffffffffffffffff1690506000600160009054906101000a900473ffffffffffffffffffffffffffffffffffffffff1673ffffffffffffffffffffffffffffffffffffffff16632f667910896040518263ffffffff1660e01b815260040161135a91906128f5565b602060405180830381865afa158015611377573d6000803e3d6000fd5b505050506040513d601f19601f8201168201806040525081019061139b919061292c565b905060008173ffffffffffffffffffffffffffffffffffffffff1663d59624b46040518163ffffffff1660e01b8152600401602060405180830381865afa1580156113ea573d6000803e3d6000fd5b505050506040513d601f19601f8201168201806040525081019061140e9190612fff565b90508773ffffffffffffffffffffffffffffffffffffffff168373ffffffffffffffffffffffffffffffffffffffff161461147e576040517f08c379a0000000000000000000000000000000000000000000000000000000008152600401611475906129f8565b60405180910390fd5b600084116114c1576040517f08c379a00000000000000000000000000000000000000000000000000000000081526004016114b890612a64565b60405180910390fd5b858703611503576040517f08c379a00000000000000000000000000000000000000000000000000000000081526004016114fa90613078565b60405180910390fd5b804210611545576040517f08c379a000000000000000000000000000000000000000000000000000000000815260040161153c906130e4565b60405180910390fd5b866000808a73ffffffffffffffffffffffffffffffffffffffff1673ffffffffffffffffffffffffffffffffffffffff1681526020019081526020016000208a6040516115929190612995565b9081526020016040518091039020600301819055506000808973ffffffffffffffffffffffffffffffffffffffff1673ffffffffffffffffffffffffffffffffffffffff168152602001908152602001600020896040516115f39190612995565b90815260200160405180910390206004868154811061161557611614612a84565b5b9060005260206000209060060201600082018160000190816116379190612cd5565b506001820160009054906101000a900473ffffffffffffffffffffffffffffffffffffffff168160010160006101000a81548173ffffffffffffffffffffffffffffffffffffffff021916908373ffffffffffffffffffffffffffffffffffffffff16021790555060028201548160020155600382015481600301556004820154816004015560058201548160050155905050505050505050505050565b600260009054906101000a900473ffffffffffffffffffffffffffffffffffffffff1673ffffffffffffffffffffffffffffffffffffffff163373ffffffffffffffffffffffffffffffffffffffff1614611765576040517f08c379a000000000000000000000000000000000000000000000000000000000815260040161175c906128d5565b60405180910390fd5b6000600160009054906101000a900473ffffffffffffffffffffffffffffffffffffffff1673ffffffffffffffffffffffffffffffffffffffff16632f667910866040518263ffffffff1660e01b81526004016117c291906128f5565b602060405180830381865afa1580156117df573d6000803e3d6000fd5b505050506040513d601f19601f82011682018060405250810190611803919061292c565b905060008060008673ffffffffffffffffffffffffffffffffffffffff1673ffffffffffffffffffffffffffffffffffffffff168152602001908152602001600020866040516118539190612995565b908152602001604051809103902060040154905060008060008773ffffffffffffffffffffffffffffffffffffffff1673ffffffffffffffffffffffffffffffffffffffff168152602001908152602001600020876040516118b59190612995565b908152602001604051809103902060020154905060008060008873ffffffffffffffffffffffffffffffffffffffff1673ffffffffffffffffffffffffffffffffffffffff168152602001908152602001600020886040516119179190612995565b908152602001604051809103902060010160009054906101000a900473ffffffffffffffffffffffffffffffffffffffff1690508673ffffffffffffffffffffffffffffffffffffffff168173ffffffffffffffffffffffffffffffffffffffff16146119b9576040517f08c379a00000000000000000000000000000000000000000000000000000000081526004016119b0906129f8565b60405180910390fd5b6000821180156119c95750848210155b611a08576040517f08c379a00000000000000000000000000000000000000000000000000000000081526004016119ff90612a64565b60405180910390fd5b848203611b3d5760008060008973ffffffffffffffffffffffffffffffffffffffff1673ffffffffffffffffffffffffffffffffffffffff16815260200190815260200160002089604051611a5d9190612995565b90815260200160405180910390206002018190555060008060008973ffffffffffffffffffffffffffffffffffffffff1673ffffffffffffffffffffffffffffffffffffffff16815260200190815260200160002089604051611ac09190612995565b90815260200160405180910390206003018190555060008060008973ffffffffffffffffffffffffffffffffffffffff1673ffffffffffffffffffffffffffffffffffffffff16815260200190815260200160002089604051611b239190612995565b908152602001604051809103902060050181905550611bab565b8482611b499190613104565b6000808973ffffffffffffffffffffffffffffffffffffffff1673ffffffffffffffffffffffffffffffffffffffff16815260200190815260200160002089604051611b959190612995565b9081526020016040518091039020600201819055505b6000808873ffffffffffffffffffffffffffffffffffffffff1673ffffffffffffffffffffffffffffffffffffffff16815260200190815260200160002088604051611bf79190612995565b908152602001604051809103902060048481548110611c1957611c18612a84565b5b906000526020600020906006020160008201816000019081611c3b9190612cd5565b506001820160009054906101000a900473ffffffffffffffffffffffffffffffffffffffff168160010160006101000a81548173ffffffffffffffffffffffffffffffffffffffff021916908373ffffffffffffffffffffffffffffffffffffffff160217905550600282015481600201556003820154816003015560048201548160040155600582015481600501559050508373ffffffffffffffffffffffffffffffffffffffff1663be45fd6287876040518060400160405280600381526020017f30783000000000000000000000000000000000000000000000000000000000008152506040518463ffffffff1660e01b8152600401611d4093929190612e12565b6020604051808303816000875af1158015611d5f573d6000803e3d6000fd5b505050506040513d601f19601f82011682018060405250810190611d839190612e88565b505050505050505050565b611d96612082565b6000808473ffffffffffffffffffffffffffffffffffffffff1673ffffffffffffffffffffffffffffffffffffffff16815260200190815260200160002082604051611de29190612995565b90815260200160405180910390206040518060c0016040529081600082018054611e0b90612ae2565b80601f0160208091040260200160405190810160405280929190818152602001828054611e3790612ae2565b8015611e845780601f10611e5957610100808354040283529160200191611e84565b820191906000526020600020905b815481529060010190602001808311611e6757829003601f168201915b505050505081526020016001820160009054906101000a900473ffffffffffffffffffffffffffffffffffffffff1673ffffffffffffffffffffffffffffffffffffffff1673ffffffffffffffffffffffffffffffffffffffff168152602001600282015481526020016003820154815260200160048201548152602001600582015481525050905092915050565b60606004805480602002602001604051908101604052809291908181526020016000905b8282101561207957838290600052602060002090600602016040518060c0016040529081600082018054611f6a90612ae2565b80601f0160208091040260200160405190810160405280929190818152602001828054611f9690612ae2565b8015611fe35780601f10611fb857610100808354040283529160200191611fe3565b820191906000526020600020905b815481529060010190602001808311611fc657829003601f168201915b505050505081526020016001820160009054906101000a900473ffffffffffffffffffffffffffffffffffffffff1673ffffffffffffffffffffffffffffffffffffffff1673ffffffffffffffffffffffffffffffffffffffff16815260200160028201548152602001600382015481526020016004820154815260200160058201548152505081526020019060010190611f37565b50505050905090565b6040518060c0016040528060608152602001600073ffffffffffffffffffffffffffffffffffffffff168152602001600081526020016000815260200160008152602001600081525090565b600073ffffffffffffffffffffffffffffffffffffffff82169050919050565b60006120f9826120ce565b9050919050565b612109816120ee565b82525050565b60006020820190506121246000830184612100565b92915050565b6000604051905090565b600080fd5b600080fd5b600080fd5b600080fd5b6000601f19601f8301169050919050565b7f4e487b7100000000000000000000000000000000000000000000000000000000600052604160045260246000fd5b61219182612148565b810181811067ffffffffffffffff821117156121b0576121af612159565b5b80604052505050565b60006121c361212a565b90506121cf8282612188565b919050565b600067ffffffffffffffff8211156121ef576121ee612159565b5b6121f882612148565b9050602081019050919050565b82818337600083830152505050565b6000612227612222846121d4565b6121b9565b90508281526020810184848401111561224357612242612143565b5b61224e848285612205565b509392505050565b600082601f83011261226b5761226a61213e565b5b813561227b848260208601612214565b91505092915050565b61228d816120ee565b811461229857600080fd5b50565b6000813590506122aa81612284565b92915050565b600080604083850312156122c7576122c6612134565b5b600083013567ffffffffffffffff8111156122e5576122e4612139565b5b6122f185828601612256565b92505060206123028582860161229b565b9150509250929050565b6000806040838503121561232357612322612134565b5b60006123318582860161229b565b925050602083013567ffffffffffffffff81111561235257612351612139565b5b61235e85828601612256565b9150509250929050565b600081519050919050565b600082825260208201905092915050565b60005b838110156123a2578082015181840152602081019050612387565b60008484015250505050565b60006123b982612368565b6123c38185612373565b93506123d3818560208601612384565b6123dc81612148565b840191505092915050565b6000819050919050565b6123fa816123e7565b82525050565b600060c082019050818103600083015261241a81896123ae565b90506124296020830188612100565b61243660408301876123f1565b61244360608301866123f1565b61245060808301856123f1565b61245d60a08301846123f1565b979650505050505050565b612471816123e7565b811461247c57600080fd5b50565b60008135905061248e81612468565b92915050565b600080600080608085870312156124ae576124ad612134565b5b60006124bc8782880161229b565b945050602085013567ffffffffffffffff8111156124dd576124dc612139565b5b6124e987828801612256565b93505060406124fa8782880161247f565b925050606061250b8782880161247f565b91505092959194509250565b6000806000606084860312156125305761252f612134565b5b600084013567ffffffffffffffff81111561254e5761254d612139565b5b61255a86828701612256565b935050602061256b8682870161229b565b925050604061257c8682870161247f565b9150509250925092565b600080600080608085870312156125a05761259f612134565b5b600085013567ffffffffffffffff8111156125be576125bd612139565b5b6125ca87828801612256565b94505060206125db8782880161229b565b93505060406125ec8782880161229b565b92505060606125fd8782880161247f565b91505092959194509250565b600082825260208201905092915050565b600061262582612368565b61262f8185612609565b935061263f818560208601612384565b61264881612148565b840191505092915050565b61265c816120ee565b82525050565b61266b816123e7565b82525050565b600060c083016000830151848203600086015261268e828261261a565b91505060208301516126a36020860182612653565b5060408301516126b66040860182612662565b5060608301516126c96060860182612662565b5060808301516126dc6080860182612662565b5060a08301516126ef60a0860182612662565b508091505092915050565b600060208201905081810360008301526127148184612671565b905092915050565b600081519050919050565b600082825260208201905092915050565b6000819050602082019050919050565b600060c0830160008301518482036000860152612765828261261a565b915050602083015161277a6020860182612653565b50604083015161278d6040860182612662565b5060608301516127a06060860182612662565b5060808301516127b36080860182612662565b5060a08301516127c660a0860182612662565b508091505092915050565b60006127dd8383612748565b905092915050565b6000602082019050919050565b60006127fd8261271c565b6128078185612727565b93508360208202850161281985612738565b8060005b85811015612855578484038952815161283685826127d1565b9450612841836127e5565b925060208a0199505060018101905061281d565b50829750879550505050505092915050565b6000602082019050818103600083015261288181846127f2565b905092915050565b7f4f6e6c792045786368616e676500000000000000000000000000000000000000600082015250565b60006128bf600d83612373565b91506128ca82612889565b602082019050919050565b600060208201905081810360008301526128ee816128b2565b9050919050565b6000602082019050818103600083015261290f81846123ae565b905092915050565b60008151905061292681612284565b92915050565b60006020828403121561294257612941612134565b5b600061295084828501612917565b91505092915050565b600081905092915050565b600061296f82612368565b6129798185612959565b9350612989818560208601612384565b80840191505092915050565b60006129a18284612964565b915081905092915050565b7f696e76616c69642073656c6c6572000000000000000000000000000000000000600082015250565b60006129e2600e83612373565b91506129ed826129ac565b602082019050919050565b60006020820190508181036000830152612a11816129d5565b9050919050565b7f696e76616c696420616d6f756e74000000000000000000000000000000000000600082015250565b6000612a4e600e83612373565b9150612a5982612a18565b602082019050919050565b60006020820190508181036000830152612a7d81612a41565b9050919050565b7f4e487b7100000000000000000000000000000000000000000000000000000000600052603260045260246000fd5b7f4e487b7100000000000000000000000000000000000000000000000000000000600052602260045260246000fd5b60006002820490506001821680612afa57607f821691505b602082108103612b0d57612b0c612ab3565b5b50919050565b600081549050612b2281612ae2565b9050919050565b60008190508160005260206000209050919050565b60006020601f8301049050919050565b600082821b905092915050565b600060088302612b8b7fffffffffffffffffffffffffffffffffffffffffffffffffffffffffffffffff82612b4e565b612b958683612b4e565b95508019841693508086168417925050509392505050565b6000819050919050565b6000612bd2612bcd612bc8846123e7565b612bad565b6123e7565b9050919050565b6000819050919050565b612bec83612bb7565b612c00612bf882612bd9565b848454612b5b565b825550505050565b600090565b612c15612c08565b612c20818484612be3565b505050565b5b81811015612c4457612c39600082612c0d565b600181019050612c26565b5050565b601f821115612c8957612c5a81612b29565b612c6384612b3e565b81016020851015612c72578190505b612c86612c7e85612b3e565b830182612c25565b50505b505050565b600082821c905092915050565b6000612cac60001984600802612c8e565b1980831691505092915050565b6000612cc58383612c9b565b9150826002028217905092915050565b818103612ce3575050612dbb565b612cec82612b13565b67ffffffffffffffff811115612d0557612d04612159565b5b612d0f8254612ae2565b612d1a828285612c48565b6000601f831160018114612d495760008415612d37578287015490505b612d418582612cb9565b865550612db4565b601f198416612d5787612b29565b9650612d6286612b29565b60005b82811015612d8a57848901548255600182019150600185019450602081019050612d65565b86831015612da75784890154612da3601f891682612c9b565b8355505b6001600288020188555050505b5050505050505b565b600081519050919050565b600082825260208201905092915050565b6000612de482612dbd565b612dee8185612dc8565b9350612dfe818560208601612384565b612e0781612148565b840191505092915050565b6000606082019050612e276000830186612100565b612e3460208301856123f1565b8181036040830152612e468184612dd9565b9050949350505050565b60008115159050919050565b612e6581612e50565b8114612e7057600080fd5b50565b600081519050612e8281612e5c565b92915050565b600060208284031215612e9e57612e9d612134565b5b6000612eac84828501612e73565b91505092915050565b612ebe82612368565b67ffffffffffffffff811115612ed757612ed6612159565b5b612ee18254612ae2565b612eec828285612c48565b600060209050601f831160018114612f1f5760008415612f0d578287015190505b612f178582612cb9565b865550612f7f565b601f198416612f2d86612b29565b60005b82811015612f5557848901518255600182019150602085019450602081019050612f30565b86831015612f725784890151612f6e601f891682612c9b565b8355505b6001600288020188555050505b505050505050565b7f4e487b7100000000000000000000000000000000000000000000000000000000600052601160045260246000fd5b6000612fc1826123e7565b9150612fcc836123e7565b9250828201905080821115612fe457612fe3612f87565b5b92915050565b600081519050612ff981612468565b92915050565b60006020828403121561301557613014612134565b5b600061302384828501612fea565b91505092915050565b7f756e6368616e6765642070726963650000000000000000000000000000000000600082015250565b6000613062600f83612373565b915061306d8261302c565b602082019050919050565b6000602082019050818103600083015261309181613055565b9050919050565b7f626f6e6473206d61747572656400000000000000000000000000000000000000600082015250565b60006130ce600d83612373565b91506130d982613098565b602082019050919050565b600060208201905081810360008301526130fd816130c1565b9050919050565b600061310f826123e7565b915061311a836123e7565b925082820390508181111561313257613131612f87565b5b9291505056fea2646970667358221220dc44138525145c3cd86f412cf526bbc61b4335330c1f5dbf82358c1e13a484f764736f6c63430008130033",
  "linkReferences": {},
  "deployedLinkReferences": {}
}