{
  "_format": "hh-sol-artifact-1",
  "contractName": "ExchangeBondsStorage",
  "sourceName": "contracts/Topos/Exchange/ExchangeBondsStorage.sol",
  "abi": [
    {
      "inputs": [
        {
          "internalType": "address",
          "name": "_bankContract",
          "type": "address"
        },
        {
          "internalType": "address",
          "name": "_exchangeContract",
          "type": "address"
        },
        {
          "internalType": "address",
          "name": "_bondCallContract",
          "type": "address"
        }
      ],
      "stateMutability": "nonpayable",
      "type": "constructor"
    },
    {
      "inputs": [],
      "name": "bankContract",
      "outputs": [
        {
          "internalType": "address",
          "name": "",
          "type": "address"
        }
      ],
      "stateMutability": "view",
      "type": "function"
    },
    {
      "inputs": [],
      "name": "bondCallContract",
      "outputs": [
        {
          "internalType": "address",
          "name": "",
          "type": "address"
        }
      ],
      "stateMutability": "view",
      "type": "function"
    },
    {
      "inputs": [
        {
          "internalType": "string",
          "name": "_dealID",
          "type": "string"
        },
        {
          "internalType": "address",
          "name": "_seller",
          "type": "address"
        },
        {
          "internalType": "address",
          "name": "_buyer",
          "type": "address"
        },
        {
          "internalType": "uint256",
          "name": "_amount",
          "type": "uint256"
        }
      ],
      "name": "buy",
      "outputs": [],
      "stateMutability": "nonpayable",
      "type": "function"
    },
    {
      "inputs": [
        {
          "internalType": "string",
          "name": "_dealID",
          "type": "string"
        },
        {
          "internalType": "address",
          "name": "_seller",
          "type": "address"
        }
      ],
      "name": "cancelBonds",
      "outputs": [],
      "stateMutability": "nonpayable",
      "type": "function"
    },
    {
      "inputs": [
        {
          "internalType": "address",
          "name": "_seller",
          "type": "address"
        },
        {
          "internalType": "string",
          "name": "_dealID",
          "type": "string"
        },
        {
          "internalType": "uint256",
          "name": "_amount",
          "type": "uint256"
        },
        {
          "internalType": "uint256",
          "name": "_price",
          "type": "uint256"
        }
      ],
      "name": "depositBonds",
      "outputs": [],
      "stateMutability": "nonpayable",
      "type": "function"
    },
    {
      "inputs": [],
      "name": "exchangeContract",
      "outputs": [
        {
          "internalType": "address",
          "name": "",
          "type": "address"
        }
      ],
      "stateMutability": "view",
      "type": "function"
    },
    {
      "inputs": [],
      "name": "getDealsListed",
      "outputs": [
        {
          "components": [
            {
              "internalType": "string",
              "name": "dealID",
              "type": "string"
            },
            {
              "internalType": "address",
              "name": "owner",
              "type": "address"
            },
            {
              "internalType": "uint256",
              "name": "amount",
              "type": "uint256"
            },
            {
              "internalType": "uint256",
              "name": "price",
              "type": "uint256"
            },
            {
              "internalType": "uint256",
              "name": "index",
              "type": "uint256"
            },
            {
              "internalType": "uint256",
              "name": "listingTime",
              "type": "uint256"
            }
          ],
          "internalType": "struct BondData.Listing[]",
          "name": "",
          "type": "tuple[]"
        }
      ],
      "stateMutability": "view",
      "type": "function"
    },
    {
      "inputs": [
        {
          "internalType": "string",
          "name": "_dealID",
          "type": "string"
        },
        {
          "internalType": "address",
          "name": "_seller",
          "type": "address"
        },
        {
          "internalType": "uint256",
          "name": "_amountToAdd",
          "type": "uint256"
        }
      ],
      "name": "increaseAmount",
      "outputs": [],
      "stateMutability": "nonpayable",
      "type": "function"
    },
    {
      "inputs": [
        {
          "internalType": "address",
          "name": "",
          "type": "address"
        },
        {
          "internalType": "string",
          "name": "",
          "type": "string"
        }
      ],
      "name": "investorListing",
      "outputs": [
        {
          "internalType": "string",
          "name": "dealID",
          "type": "string"
        },
        {
          "internalType": "address",
          "name": "owner",
          "type": "address"
        },
        {
          "internalType": "uint256",
          "name": "amount",
          "type": "uint256"
        },
        {
          "internalType": "uint256",
          "name": "price",
          "type": "uint256"
        },
        {
          "internalType": "uint256",
          "name": "index",
          "type": "uint256"
        },
        {
          "internalType": "uint256",
          "name": "listingTime",
          "type": "uint256"
        }
      ],
      "stateMutability": "view",
      "type": "function"
    },
    {
      "inputs": [
        {
          "internalType": "string",
          "name": "_dealID",
          "type": "string"
        },
        {
          "internalType": "address",
          "name": "_seller",
          "type": "address"
        },
        {
          "internalType": "uint256",
          "name": "_newPrice",
          "type": "uint256"
        }
      ],
      "name": "updatePrice",
      "outputs": [],
      "stateMutability": "nonpayable",
      "type": "function"
    }
  ],
  "bytecode": "0x60806040523480156200001157600080fd5b50604051620030903803806200309083398181016040528101906200003791906200016d565b82600160006101000a81548173ffffffffffffffffffffffffffffffffffffffff021916908373ffffffffffffffffffffffffffffffffffffffff16021790555081600260006101000a81548173ffffffffffffffffffffffffffffffffffffffff021916908373ffffffffffffffffffffffffffffffffffffffff16021790555080600360006101000a81548173ffffffffffffffffffffffffffffffffffffffff021916908373ffffffffffffffffffffffffffffffffffffffff160217905550505050620001c9565b600080fd5b600073ffffffffffffffffffffffffffffffffffffffff82169050919050565b6000620001358262000108565b9050919050565b620001478162000128565b81146200015357600080fd5b50565b60008151905062000167816200013c565b92915050565b60008060006060848603121562000189576200018862000103565b5b6000620001998682870162000156565b9350506020620001ac8682870162000156565b9250506040620001bf8682870162000156565b9150509250925092565b612eb780620001d96000396000f3fe608060405234801561001057600080fd5b506004361061009e5760003560e01c80635e43522e116100665780635e43522e1461014c578063995ae7d01461016a578063a33f7da014610186578063d32e0f27146101a2578063f14049d5146101be5761009e565b806307c2e449146100a35780632cc9143f146100c15780632d9fc161146100dd5780633f0a0797146101125780635b91e75214610130575b600080fd5b6100ab6101dc565b6040516100b89190611f03565b60405180910390f35b6100db60048036038101906100d691906120a4565b610202565b005b6100f760048036038101906100f29190612100565b61082d565b604051610109969594939291906121f4565b60405180910390f35b61011a610934565b6040516101279190611f03565b60405180910390f35b61014a60048036038101906101459190612288565b61095a565b005b610154610c45565b6040516101619190611f03565b60405180910390f35b610184600480360381019061017f919061230b565b610c6b565b005b6101a0600480360381019061019b919061230b565b61108a565b005b6101bc60048036038101906101b7919061237a565b61169a565b005b6101c6611d53565b6040516101d391906125b0565b60405180910390f35b600160009054906101000a900473ffffffffffffffffffffffffffffffffffffffff1681565b600260009054906101000a900473ffffffffffffffffffffffffffffffffffffffff1673ffffffffffffffffffffffffffffffffffffffff163373ffffffffffffffffffffffffffffffffffffffff1614610292576040517f08c379a00000000000000000000000000000000000000000000000000000000081526004016102899061261e565b60405180910390fd5b6000600160009054906101000a900473ffffffffffffffffffffffffffffffffffffffff1673ffffffffffffffffffffffffffffffffffffffff16632f667910846040518263ffffffff1660e01b81526004016102ef919061263e565b602060405180830381865afa15801561030c573d6000803e3d6000fd5b505050506040513d601f19601f820116820180604052508101906103309190612675565b90506000808373ffffffffffffffffffffffffffffffffffffffff1673ffffffffffffffffffffffffffffffffffffffff1681526020019081526020016000208360405161037e91906126de565b908152602001604051809103902060010160009054906101000a900473ffffffffffffffffffffffffffffffffffffffff1673ffffffffffffffffffffffffffffffffffffffff168273ffffffffffffffffffffffffffffffffffffffff161461041d576040517f08c379a000000000000000000000000000000000000000000000000000000000815260040161041490612741565b60405180910390fd5b60008060008473ffffffffffffffffffffffffffffffffffffffff1673ffffffffffffffffffffffffffffffffffffffff1681526020019081526020016000208460405161046b91906126de565b908152602001604051809103902060020154905060008060008573ffffffffffffffffffffffffffffffffffffffff1673ffffffffffffffffffffffffffffffffffffffff168152602001908152602001600020856040516104cd91906126de565b908152602001604051809103902060040154905060008211610524576040517f08c379a000000000000000000000000000000000000000000000000000000000815260040161051b906127ad565b60405180910390fd5b60008060008673ffffffffffffffffffffffffffffffffffffffff1673ffffffffffffffffffffffffffffffffffffffff1681526020019081526020016000208660405161057291906126de565b90815260200160405180910390206002018190555060008060008673ffffffffffffffffffffffffffffffffffffffff1673ffffffffffffffffffffffffffffffffffffffff168152602001908152602001600020866040516105d591906126de565b90815260200160405180910390206003018190555060008060008673ffffffffffffffffffffffffffffffffffffffff1673ffffffffffffffffffffffffffffffffffffffff1681526020019081526020016000208660405161063891906126de565b9081526020016040518091039020600501819055506000808573ffffffffffffffffffffffffffffffffffffffff1673ffffffffffffffffffffffffffffffffffffffff1681526020019081526020016000208560405161069991906126de565b9081526020016040518091039020600482815481106106bb576106ba6127cd565b5b9060005260206000209060060201600082018160000190816106dd9190612a1e565b506001820160009054906101000a900473ffffffffffffffffffffffffffffffffffffffff168160010160006101000a81548173ffffffffffffffffffffffffffffffffffffffff021916908373ffffffffffffffffffffffffffffffffffffffff160217905550600282015481600201556003820154816003015560048201548160040155600582015481600501559050508273ffffffffffffffffffffffffffffffffffffffff1663be45fd6285846040518060400160405280600381526020017f30783000000000000000000000000000000000000000000000000000000000008152506040518463ffffffff1660e01b81526004016107e293929190612b5b565b6020604051808303816000875af1158015610801573d6000803e3d6000fd5b505050506040513d601f19601f820116820180604052508101906108259190612bd1565b505050505050565b600060205281600052604060002081805160208101820180518482526020830160208501208183528095505050505050600091509150508060000180546108739061282b565b80601f016020809104026020016040519081016040528092919081815260200182805461089f9061282b565b80156108ec5780601f106108c1576101008083540402835291602001916108ec565b820191906000526020600020905b8154815290600101906020018083116108cf57829003601f168201915b5050505050908060010160009054906101000a900473ffffffffffffffffffffffffffffffffffffffff16908060020154908060030154908060040154908060050154905086565b600260009054906101000a900473ffffffffffffffffffffffffffffffffffffffff1681565b600260009054906101000a900473ffffffffffffffffffffffffffffffffffffffff1673ffffffffffffffffffffffffffffffffffffffff163373ffffffffffffffffffffffffffffffffffffffff16146109ea576040517f08c379a00000000000000000000000000000000000000000000000000000000081526004016109e19061261e565b60405180910390fd5b6040518060c001604052808481526020018573ffffffffffffffffffffffffffffffffffffffff1681526020018381526020018281526020016004805490508152602001428152506000808673ffffffffffffffffffffffffffffffffffffffff1673ffffffffffffffffffffffffffffffffffffffff16815260200190815260200160002084604051610a7e91906126de565b90815260200160405180910390206000820151816000019081610aa19190612bfe565b5060208201518160010160006101000a81548173ffffffffffffffffffffffffffffffffffffffff021916908373ffffffffffffffffffffffffffffffffffffffff16021790555060408201518160020155606082015181600301556080820151816004015560a0820151816005015590505060046000808673ffffffffffffffffffffffffffffffffffffffff1673ffffffffffffffffffffffffffffffffffffffff16815260200190815260200160002084604051610b6291906126de565b9081526020016040518091039020908060018154018082558091505060019003906000526020600020906006020160009091909190915060008201816000019081610bad9190612a1e565b506001820160009054906101000a900473ffffffffffffffffffffffffffffffffffffffff168160010160006101000a81548173ffffffffffffffffffffffffffffffffffffffff021916908373ffffffffffffffffffffffffffffffffffffffff16021790555060028201548160020155600382015481600301556004820154816004015560058201548160050155505050505050565b600360009054906101000a900473ffffffffffffffffffffffffffffffffffffffff1681565b600260009054906101000a900473ffffffffffffffffffffffffffffffffffffffff1673ffffffffffffffffffffffffffffffffffffffff163373ffffffffffffffffffffffffffffffffffffffff1614610cfb576040517f08c379a0000000000000000000000000000000000000000000000000000000008152600401610cf29061261e565b60405180910390fd5b60008060008473ffffffffffffffffffffffffffffffffffffffff1673ffffffffffffffffffffffffffffffffffffffff16815260200190815260200160002084604051610d4991906126de565b908152602001604051809103902060040154905060008060008573ffffffffffffffffffffffffffffffffffffffff1673ffffffffffffffffffffffffffffffffffffffff16815260200190815260200160002085604051610dab91906126de565b908152602001604051809103902060020154905060008060008673ffffffffffffffffffffffffffffffffffffffff1673ffffffffffffffffffffffffffffffffffffffff16815260200190815260200160002086604051610e0d91906126de565b908152602001604051809103902060010160009054906101000a900473ffffffffffffffffffffffffffffffffffffffff1690508473ffffffffffffffffffffffffffffffffffffffff168173ffffffffffffffffffffffffffffffffffffffff1614610eaf576040517f08c379a0000000000000000000000000000000000000000000000000000000008152600401610ea690612741565b60405180910390fd5b60008211610ef2576040517f08c379a0000000000000000000000000000000000000000000000000000000008152600401610ee9906127ad565b60405180910390fd5b8382610efe9190612cff565b6000808773ffffffffffffffffffffffffffffffffffffffff1673ffffffffffffffffffffffffffffffffffffffff16815260200190815260200160002087604051610f4a91906126de565b9081526020016040518091039020600201819055506000808673ffffffffffffffffffffffffffffffffffffffff1673ffffffffffffffffffffffffffffffffffffffff16815260200190815260200160002086604051610fab91906126de565b908152602001604051809103902060048481548110610fcd57610fcc6127cd565b5b906000526020600020906006020160008201816000019081610fef9190612a1e565b506001820160009054906101000a900473ffffffffffffffffffffffffffffffffffffffff168160010160006101000a81548173ffffffffffffffffffffffffffffffffffffffff021916908373ffffffffffffffffffffffffffffffffffffffff16021790555060028201548160020155600382015481600301556004820154816004015560058201548160050155905050505050505050565b600260009054906101000a900473ffffffffffffffffffffffffffffffffffffffff1673ffffffffffffffffffffffffffffffffffffffff163373ffffffffffffffffffffffffffffffffffffffff161461111a576040517f08c379a00000000000000000000000000000000000000000000000000000000081526004016111119061261e565b60405180910390fd5b60008060008473ffffffffffffffffffffffffffffffffffffffff1673ffffffffffffffffffffffffffffffffffffffff1681526020019081526020016000208460405161116891906126de565b908152602001604051809103902060030154905060008060008573ffffffffffffffffffffffffffffffffffffffff1673ffffffffffffffffffffffffffffffffffffffff168152602001908152602001600020856040516111ca91906126de565b908152602001604051809103902060040154905060008060008673ffffffffffffffffffffffffffffffffffffffff1673ffffffffffffffffffffffffffffffffffffffff1681526020019081526020016000208660405161122c91906126de565b908152602001604051809103902060020154905060008060008773ffffffffffffffffffffffffffffffffffffffff1673ffffffffffffffffffffffffffffffffffffffff1681526020019081526020016000208760405161128e91906126de565b908152602001604051809103902060010160009054906101000a900473ffffffffffffffffffffffffffffffffffffffff1690506000600160009054906101000a900473ffffffffffffffffffffffffffffffffffffffff1673ffffffffffffffffffffffffffffffffffffffff16632f667910896040518263ffffffff1660e01b815260040161131f919061263e565b602060405180830381865afa15801561133c573d6000803e3d6000fd5b505050506040513d601f19601f820116820180604052508101906113609190612675565b905060008173ffffffffffffffffffffffffffffffffffffffff1663d59624b46040518163ffffffff1660e01b8152600401602060405180830381865afa1580156113af573d6000803e3d6000fd5b505050506040513d601f19601f820116820180604052508101906113d39190612d48565b90508773ffffffffffffffffffffffffffffffffffffffff168373ffffffffffffffffffffffffffffffffffffffff1614611443576040517f08c379a000000000000000000000000000000000000000000000000000000000815260040161143a90612741565b60405180910390fd5b60008411611486576040517f08c379a000000000000000000000000000000000000000000000000000000000815260040161147d906127ad565b60405180910390fd5b8587036114c8576040517f08c379a00000000000000000000000000000000000000000000000000000000081526004016114bf90612dc1565b60405180910390fd5b80421061150a576040517f08c379a000000000000000000000000000000000000000000000000000000000815260040161150190612e2d565b60405180910390fd5b866000808a73ffffffffffffffffffffffffffffffffffffffff1673ffffffffffffffffffffffffffffffffffffffff1681526020019081526020016000208a60405161155791906126de565b9081526020016040518091039020600301819055506000808973ffffffffffffffffffffffffffffffffffffffff1673ffffffffffffffffffffffffffffffffffffffff168152602001908152602001600020896040516115b891906126de565b9081526020016040518091039020600486815481106115da576115d96127cd565b5b9060005260206000209060060201600082018160000190816115fc9190612a1e565b506001820160009054906101000a900473ffffffffffffffffffffffffffffffffffffffff168160010160006101000a81548173ffffffffffffffffffffffffffffffffffffffff021916908373ffffffffffffffffffffffffffffffffffffffff16021790555060028201548160020155600382015481600301556004820154816004015560058201548160050155905050505050505050505050565b600260009054906101000a900473ffffffffffffffffffffffffffffffffffffffff1673ffffffffffffffffffffffffffffffffffffffff163373ffffffffffffffffffffffffffffffffffffffff161461172a576040517f08c379a00000000000000000000000000000000000000000000000000000000081526004016117219061261e565b60405180910390fd5b6000600160009054906101000a900473ffffffffffffffffffffffffffffffffffffffff1673ffffffffffffffffffffffffffffffffffffffff16632f667910866040518263ffffffff1660e01b8152600401611787919061263e565b602060405180830381865afa1580156117a4573d6000803e3d6000fd5b505050506040513d601f19601f820116820180604052508101906117c89190612675565b905060008060008673ffffffffffffffffffffffffffffffffffffffff1673ffffffffffffffffffffffffffffffffffffffff1681526020019081526020016000208660405161181891906126de565b908152602001604051809103902060040154905060008060008773ffffffffffffffffffffffffffffffffffffffff1673ffffffffffffffffffffffffffffffffffffffff1681526020019081526020016000208760405161187a91906126de565b908152602001604051809103902060020154905060008060008873ffffffffffffffffffffffffffffffffffffffff1673ffffffffffffffffffffffffffffffffffffffff168152602001908152602001600020886040516118dc91906126de565b908152602001604051809103902060010160009054906101000a900473ffffffffffffffffffffffffffffffffffffffff1690508673ffffffffffffffffffffffffffffffffffffffff168173ffffffffffffffffffffffffffffffffffffffff161461197e576040517f08c379a000000000000000000000000000000000000000000000000000000000815260040161197590612741565b60405180910390fd5b60008211801561198e5750848210155b6119cd576040517f08c379a00000000000000000000000000000000000000000000000000000000081526004016119c4906127ad565b60405180910390fd5b848203611b025760008060008973ffffffffffffffffffffffffffffffffffffffff1673ffffffffffffffffffffffffffffffffffffffff16815260200190815260200160002089604051611a2291906126de565b90815260200160405180910390206002018190555060008060008973ffffffffffffffffffffffffffffffffffffffff1673ffffffffffffffffffffffffffffffffffffffff16815260200190815260200160002089604051611a8591906126de565b90815260200160405180910390206003018190555060008060008973ffffffffffffffffffffffffffffffffffffffff1673ffffffffffffffffffffffffffffffffffffffff16815260200190815260200160002089604051611ae891906126de565b908152602001604051809103902060050181905550611b70565b8482611b0e9190612e4d565b6000808973ffffffffffffffffffffffffffffffffffffffff1673ffffffffffffffffffffffffffffffffffffffff16815260200190815260200160002089604051611b5a91906126de565b9081526020016040518091039020600201819055505b6000808873ffffffffffffffffffffffffffffffffffffffff1673ffffffffffffffffffffffffffffffffffffffff16815260200190815260200160002088604051611bbc91906126de565b908152602001604051809103902060048481548110611bde57611bdd6127cd565b5b906000526020600020906006020160008201816000019081611c009190612a1e565b506001820160009054906101000a900473ffffffffffffffffffffffffffffffffffffffff168160010160006101000a81548173ffffffffffffffffffffffffffffffffffffffff021916908373ffffffffffffffffffffffffffffffffffffffff160217905550600282015481600201556003820154816003015560048201548160040155600582015481600501559050508373ffffffffffffffffffffffffffffffffffffffff1663be45fd6287876040518060400160405280600381526020017f30783000000000000000000000000000000000000000000000000000000000008152506040518463ffffffff1660e01b8152600401611d0593929190612b5b565b6020604051808303816000875af1158015611d24573d6000803e3d6000fd5b505050506040513d601f19601f82011682018060405250810190611d489190612bd1565b505050505050505050565b60606004805480602002602001604051908101604052809291908181526020016000905b82821015611eb957838290600052602060002090600602016040518060c0016040529081600082018054611daa9061282b565b80601f0160208091040260200160405190810160405280929190818152602001828054611dd69061282b565b8015611e235780601f10611df857610100808354040283529160200191611e23565b820191906000526020600020905b815481529060010190602001808311611e0657829003601f168201915b505050505081526020016001820160009054906101000a900473ffffffffffffffffffffffffffffffffffffffff1673ffffffffffffffffffffffffffffffffffffffff1673ffffffffffffffffffffffffffffffffffffffff16815260200160028201548152602001600382015481526020016004820154815260200160058201548152505081526020019060010190611d77565b50505050905090565b600073ffffffffffffffffffffffffffffffffffffffff82169050919050565b6000611eed82611ec2565b9050919050565b611efd81611ee2565b82525050565b6000602082019050611f186000830184611ef4565b92915050565b6000604051905090565b600080fd5b600080fd5b600080fd5b600080fd5b6000601f19601f8301169050919050565b7f4e487b7100000000000000000000000000000000000000000000000000000000600052604160045260246000fd5b611f8582611f3c565b810181811067ffffffffffffffff82111715611fa457611fa3611f4d565b5b80604052505050565b6000611fb7611f1e565b9050611fc38282611f7c565b919050565b600067ffffffffffffffff821115611fe357611fe2611f4d565b5b611fec82611f3c565b9050602081019050919050565b82818337600083830152505050565b600061201b61201684611fc8565b611fad565b90508281526020810184848401111561203757612036611f37565b5b612042848285611ff9565b509392505050565b600082601f83011261205f5761205e611f32565b5b813561206f848260208601612008565b91505092915050565b61208181611ee2565b811461208c57600080fd5b50565b60008135905061209e81612078565b92915050565b600080604083850312156120bb576120ba611f28565b5b600083013567ffffffffffffffff8111156120d9576120d8611f2d565b5b6120e58582860161204a565b92505060206120f68582860161208f565b9150509250929050565b6000806040838503121561211757612116611f28565b5b60006121258582860161208f565b925050602083013567ffffffffffffffff81111561214657612145611f2d565b5b6121528582860161204a565b9150509250929050565b600081519050919050565b600082825260208201905092915050565b60005b8381101561219657808201518184015260208101905061217b565b60008484015250505050565b60006121ad8261215c565b6121b78185612167565b93506121c7818560208601612178565b6121d081611f3c565b840191505092915050565b6000819050919050565b6121ee816121db565b82525050565b600060c082019050818103600083015261220e81896121a2565b905061221d6020830188611ef4565b61222a60408301876121e5565b61223760608301866121e5565b61224460808301856121e5565b61225160a08301846121e5565b979650505050505050565b612265816121db565b811461227057600080fd5b50565b6000813590506122828161225c565b92915050565b600080600080608085870312156122a2576122a1611f28565b5b60006122b08782880161208f565b945050602085013567ffffffffffffffff8111156122d1576122d0611f2d565b5b6122dd8782880161204a565b93505060406122ee87828801612273565b92505060606122ff87828801612273565b91505092959194509250565b60008060006060848603121561232457612323611f28565b5b600084013567ffffffffffffffff81111561234257612341611f2d565b5b61234e8682870161204a565b935050602061235f8682870161208f565b925050604061237086828701612273565b9150509250925092565b6000806000806080858703121561239457612393611f28565b5b600085013567ffffffffffffffff8111156123b2576123b1611f2d565b5b6123be8782880161204a565b94505060206123cf8782880161208f565b93505060406123e08782880161208f565b92505060606123f187828801612273565b91505092959194509250565b600081519050919050565b600082825260208201905092915050565b6000819050602082019050919050565b600082825260208201905092915050565b60006124458261215c565b61244f8185612429565b935061245f818560208601612178565b61246881611f3c565b840191505092915050565b61247c81611ee2565b82525050565b61248b816121db565b82525050565b600060c08301600083015184820360008601526124ae828261243a565b91505060208301516124c36020860182612473565b5060408301516124d66040860182612482565b5060608301516124e96060860182612482565b5060808301516124fc6080860182612482565b5060a083015161250f60a0860182612482565b508091505092915050565b60006125268383612491565b905092915050565b6000602082019050919050565b6000612546826123fd565b6125508185612408565b93508360208202850161256285612419565b8060005b8581101561259e578484038952815161257f858261251a565b945061258a8361252e565b925060208a01995050600181019050612566565b50829750879550505050505092915050565b600060208201905081810360008301526125ca818461253b565b905092915050565b7f4f6e6c792045786368616e676500000000000000000000000000000000000000600082015250565b6000612608600d83612167565b9150612613826125d2565b602082019050919050565b60006020820190508181036000830152612637816125fb565b9050919050565b6000602082019050818103600083015261265881846121a2565b905092915050565b60008151905061266f81612078565b92915050565b60006020828403121561268b5761268a611f28565b5b600061269984828501612660565b91505092915050565b600081905092915050565b60006126b88261215c565b6126c281856126a2565b93506126d2818560208601612178565b80840191505092915050565b60006126ea82846126ad565b915081905092915050565b7f696e76616c69642073656c6c6572000000000000000000000000000000000000600082015250565b600061272b600e83612167565b9150612736826126f5565b602082019050919050565b6000602082019050818103600083015261275a8161271e565b9050919050565b7f696e76616c696420616d6f756e74000000000000000000000000000000000000600082015250565b6000612797600e83612167565b91506127a282612761565b602082019050919050565b600060208201905081810360008301526127c68161278a565b9050919050565b7f4e487b7100000000000000000000000000000000000000000000000000000000600052603260045260246000fd5b7f4e487b7100000000000000000000000000000000000000000000000000000000600052602260045260246000fd5b6000600282049050600182168061284357607f821691505b602082108103612856576128556127fc565b5b50919050565b60008154905061286b8161282b565b9050919050565b60008190508160005260206000209050919050565b60006020601f8301049050919050565b600082821b905092915050565b6000600883026128d47fffffffffffffffffffffffffffffffffffffffffffffffffffffffffffffffff82612897565b6128de8683612897565b95508019841693508086168417925050509392505050565b6000819050919050565b600061291b612916612911846121db565b6128f6565b6121db565b9050919050565b6000819050919050565b61293583612900565b61294961294182612922565b8484546128a4565b825550505050565b600090565b61295e612951565b61296981848461292c565b505050565b5b8181101561298d57612982600082612956565b60018101905061296f565b5050565b601f8211156129d2576129a381612872565b6129ac84612887565b810160208510156129bb578190505b6129cf6129c785612887565b83018261296e565b50505b505050565b600082821c905092915050565b60006129f5600019846008026129d7565b1980831691505092915050565b6000612a0e83836129e4565b9150826002028217905092915050565b818103612a2c575050612b04565b612a358261285c565b67ffffffffffffffff811115612a4e57612a4d611f4d565b5b612a58825461282b565b612a63828285612991565b6000601f831160018114612a925760008415612a80578287015490505b612a8a8582612a02565b865550612afd565b601f198416612aa087612872565b9650612aab86612872565b60005b82811015612ad357848901548255600182019150600185019450602081019050612aae565b86831015612af05784890154612aec601f8916826129e4565b8355505b6001600288020188555050505b5050505050505b565b600081519050919050565b600082825260208201905092915050565b6000612b2d82612b06565b612b378185612b11565b9350612b47818560208601612178565b612b5081611f3c565b840191505092915050565b6000606082019050612b706000830186611ef4565b612b7d60208301856121e5565b8181036040830152612b8f8184612b22565b9050949350505050565b60008115159050919050565b612bae81612b99565b8114612bb957600080fd5b50565b600081519050612bcb81612ba5565b92915050565b600060208284031215612be757612be6611f28565b5b6000612bf584828501612bbc565b91505092915050565b612c078261215c565b67ffffffffffffffff811115612c2057612c1f611f4d565b5b612c2a825461282b565b612c35828285612991565b600060209050601f831160018114612c685760008415612c56578287015190505b612c608582612a02565b865550612cc8565b601f198416612c7686612872565b60005b82811015612c9e57848901518255600182019150602085019450602081019050612c79565b86831015612cbb5784890151612cb7601f8916826129e4565b8355505b6001600288020188555050505b505050505050565b7f4e487b7100000000000000000000000000000000000000000000000000000000600052601160045260246000fd5b6000612d0a826121db565b9150612d15836121db565b9250828201905080821115612d2d57612d2c612cd0565b5b92915050565b600081519050612d428161225c565b92915050565b600060208284031215612d5e57612d5d611f28565b5b6000612d6c84828501612d33565b91505092915050565b7f756e6368616e6765642070726963650000000000000000000000000000000000600082015250565b6000612dab600f83612167565b9150612db682612d75565b602082019050919050565b60006020820190508181036000830152612dda81612d9e565b9050919050565b7f626f6e6473206d61747572656400000000000000000000000000000000000000600082015250565b6000612e17600d83612167565b9150612e2282612de1565b602082019050919050565b60006020820190508181036000830152612e4681612e0a565b9050919050565b6000612e58826121db565b9150612e63836121db565b9250828203905081811115612e7b57612e7a612cd0565b5b9291505056fea26469706673582212200075986a73e1cf7f68b66ae9cab19390f3e5f339ac0ea3b13a9835a9502bc9e564736f6c63430008130033",
  "linkReferences": {},
  "deployedLinkReferences": {}
}