{
  "_format": "hh-sol-artifact-1",
  "contractName": "ExchangeBondsStorage",
  "sourceName": "contracts/Topos/Exchange/ExchangeBondsStorage.sol",
  "abi": [
    {
      "inputs": [
        {
          "internalType": "address",
          "name": "_bankContract",
          "type": "address"
        },
        {
          "internalType": "address",
          "name": "_exchangeContract",
          "type": "address"
        },
        {
          "internalType": "address",
          "name": "_bondCallContract",
          "type": "address"
        }
      ],
      "stateMutability": "nonpayable",
      "type": "constructor"
    },
    {
      "inputs": [],
      "name": "bankContract",
      "outputs": [
        {
          "internalType": "address",
          "name": "",
          "type": "address"
        }
      ],
      "stateMutability": "view",
      "type": "function"
    },
    {
      "inputs": [],
      "name": "bondCallContract",
      "outputs": [
        {
          "internalType": "address",
          "name": "",
          "type": "address"
        }
      ],
      "stateMutability": "view",
      "type": "function"
    },
    {
      "inputs": [
        {
          "internalType": "string",
          "name": "_dealID",
          "type": "string"
        },
        {
          "internalType": "address",
          "name": "_seller",
          "type": "address"
        },
        {
          "internalType": "address",
          "name": "_buyer",
          "type": "address"
        },
        {
          "internalType": "uint256",
          "name": "_amount",
          "type": "uint256"
        }
      ],
      "name": "buy",
      "outputs": [],
      "stateMutability": "nonpayable",
      "type": "function"
    },
    {
      "inputs": [
        {
          "internalType": "string",
          "name": "_dealID",
          "type": "string"
        },
        {
          "internalType": "address",
          "name": "_seller",
          "type": "address"
        }
      ],
      "name": "cancelBonds",
      "outputs": [],
      "stateMutability": "nonpayable",
      "type": "function"
    },
    {
      "inputs": [
        {
          "internalType": "address",
          "name": "_seller",
          "type": "address"
        },
        {
          "internalType": "string",
          "name": "_dealID",
          "type": "string"
        },
        {
          "internalType": "uint256",
          "name": "_amount",
          "type": "uint256"
        },
        {
          "internalType": "uint256",
          "name": "_price",
          "type": "uint256"
        }
      ],
      "name": "depositBonds",
      "outputs": [],
      "stateMutability": "nonpayable",
      "type": "function"
    },
    {
      "inputs": [],
      "name": "exchangeContract",
      "outputs": [
        {
          "internalType": "address",
          "name": "",
          "type": "address"
        }
      ],
      "stateMutability": "view",
      "type": "function"
    },
    {
      "inputs": [
        {
          "internalType": "string",
          "name": "_dealID",
          "type": "string"
        },
        {
          "internalType": "address",
          "name": "_seller",
          "type": "address"
        },
        {
          "internalType": "uint256",
          "name": "_amountToAdd",
          "type": "uint256"
        }
      ],
      "name": "increaseAmount",
      "outputs": [],
      "stateMutability": "nonpayable",
      "type": "function"
    },
    {
      "inputs": [
        {
          "internalType": "address",
          "name": "",
          "type": "address"
        },
        {
          "internalType": "string",
          "name": "",
          "type": "string"
        }
      ],
      "name": "investorListing",
      "outputs": [
        {
          "internalType": "string",
          "name": "dealID",
          "type": "string"
        },
        {
          "internalType": "address",
          "name": "owner",
          "type": "address"
        },
        {
          "internalType": "uint256",
          "name": "amount",
          "type": "uint256"
        },
        {
          "internalType": "uint256",
          "name": "price",
          "type": "uint256"
        },
        {
          "internalType": "uint256",
          "name": "index",
          "type": "uint256"
        },
        {
          "internalType": "uint256",
          "name": "listingTime",
          "type": "uint256"
        }
      ],
      "stateMutability": "view",
      "type": "function"
    },
    {
      "inputs": [
        {
          "internalType": "string",
          "name": "_dealID",
          "type": "string"
        },
        {
          "internalType": "address",
          "name": "_seller",
          "type": "address"
        },
        {
          "internalType": "uint256",
          "name": "_newPrice",
          "type": "uint256"
        }
      ],
      "name": "updatePrice",
      "outputs": [],
      "stateMutability": "nonpayable",
      "type": "function"
    }
  ],
  "bytecode": "0x60806040523480156200001157600080fd5b5060405162002d2338038062002d2383398181016040528101906200003791906200016d565b82600160006101000a81548173ffffffffffffffffffffffffffffffffffffffff021916908373ffffffffffffffffffffffffffffffffffffffff16021790555081600260006101000a81548173ffffffffffffffffffffffffffffffffffffffff021916908373ffffffffffffffffffffffffffffffffffffffff16021790555080600360006101000a81548173ffffffffffffffffffffffffffffffffffffffff021916908373ffffffffffffffffffffffffffffffffffffffff160217905550505050620001c9565b600080fd5b600073ffffffffffffffffffffffffffffffffffffffff82169050919050565b6000620001358262000108565b9050919050565b620001478162000128565b81146200015357600080fd5b50565b60008151905062000167816200013c565b92915050565b60008060006060848603121562000189576200018862000103565b5b6000620001998682870162000156565b9350506020620001ac8682870162000156565b9250506040620001bf8682870162000156565b9150509250925092565b612b4a80620001d96000396000f3fe608060405234801561001057600080fd5b50600436106100935760003560e01c80635b91e752116100665780635b91e752146101255780635e43522e14610141578063995ae7d01461015f578063a33f7da01461017b578063d32e0f271461019757610093565b806307c2e449146100985780632cc9143f146100b65780632d9fc161146100d25780633f0a079714610107575b600080fd5b6100a06101b3565b6040516100ad9190611d6b565b60405180910390f35b6100d060048036038101906100cb9190611f0c565b6101d9565b005b6100ec60048036038101906100e79190611f68565b610804565b6040516100fe9695949392919061205c565b60405180910390f35b61010f61090b565b60405161011c9190611d6b565b60405180910390f35b61013f600480360381019061013a91906120f0565b610931565b005b610149610c1c565b6040516101569190611d6b565b60405180910390f35b61017960048036038101906101749190612173565b610c42565b005b61019560048036038101906101909190612173565b611061565b005b6101b160048036038101906101ac91906121e2565b611671565b005b600160009054906101000a900473ffffffffffffffffffffffffffffffffffffffff1681565b600260009054906101000a900473ffffffffffffffffffffffffffffffffffffffff1673ffffffffffffffffffffffffffffffffffffffff163373ffffffffffffffffffffffffffffffffffffffff1614610269576040517f08c379a0000000000000000000000000000000000000000000000000000000008152600401610260906122b1565b60405180910390fd5b6000600160009054906101000a900473ffffffffffffffffffffffffffffffffffffffff1673ffffffffffffffffffffffffffffffffffffffff16632f667910846040518263ffffffff1660e01b81526004016102c691906122d1565b602060405180830381865afa1580156102e3573d6000803e3d6000fd5b505050506040513d601f19601f820116820180604052508101906103079190612308565b90506000808373ffffffffffffffffffffffffffffffffffffffff1673ffffffffffffffffffffffffffffffffffffffff168152602001908152602001600020836040516103559190612371565b908152602001604051809103902060010160009054906101000a900473ffffffffffffffffffffffffffffffffffffffff1673ffffffffffffffffffffffffffffffffffffffff168273ffffffffffffffffffffffffffffffffffffffff16146103f4576040517f08c379a00000000000000000000000000000000000000000000000000000000081526004016103eb906123d4565b60405180910390fd5b60008060008473ffffffffffffffffffffffffffffffffffffffff1673ffffffffffffffffffffffffffffffffffffffff168152602001908152602001600020846040516104429190612371565b908152602001604051809103902060020154905060008060008573ffffffffffffffffffffffffffffffffffffffff1673ffffffffffffffffffffffffffffffffffffffff168152602001908152602001600020856040516104a49190612371565b9081526020016040518091039020600401549050600082116104fb576040517f08c379a00000000000000000000000000000000000000000000000000000000081526004016104f290612440565b60405180910390fd5b60008060008673ffffffffffffffffffffffffffffffffffffffff1673ffffffffffffffffffffffffffffffffffffffff168152602001908152602001600020866040516105499190612371565b90815260200160405180910390206002018190555060008060008673ffffffffffffffffffffffffffffffffffffffff1673ffffffffffffffffffffffffffffffffffffffff168152602001908152602001600020866040516105ac9190612371565b90815260200160405180910390206003018190555060008060008673ffffffffffffffffffffffffffffffffffffffff1673ffffffffffffffffffffffffffffffffffffffff1681526020019081526020016000208660405161060f9190612371565b9081526020016040518091039020600501819055506000808573ffffffffffffffffffffffffffffffffffffffff1673ffffffffffffffffffffffffffffffffffffffff168152602001908152602001600020856040516106709190612371565b90815260200160405180910390206004828154811061069257610691612460565b5b9060005260206000209060060201600082018160000190816106b491906126b1565b506001820160009054906101000a900473ffffffffffffffffffffffffffffffffffffffff168160010160006101000a81548173ffffffffffffffffffffffffffffffffffffffff021916908373ffffffffffffffffffffffffffffffffffffffff160217905550600282015481600201556003820154816003015560048201548160040155600582015481600501559050508273ffffffffffffffffffffffffffffffffffffffff1663be45fd6285846040518060400160405280600381526020017f30783000000000000000000000000000000000000000000000000000000000008152506040518463ffffffff1660e01b81526004016107b9939291906127ee565b6020604051808303816000875af11580156107d8573d6000803e3d6000fd5b505050506040513d601f19601f820116820180604052508101906107fc9190612864565b505050505050565b6000602052816000526040600020818051602081018201805184825260208301602085012081835280955050505050506000915091505080600001805461084a906124be565b80601f0160208091040260200160405190810160405280929190818152602001828054610876906124be565b80156108c35780601f10610898576101008083540402835291602001916108c3565b820191906000526020600020905b8154815290600101906020018083116108a657829003601f168201915b5050505050908060010160009054906101000a900473ffffffffffffffffffffffffffffffffffffffff16908060020154908060030154908060040154908060050154905086565b600260009054906101000a900473ffffffffffffffffffffffffffffffffffffffff1681565b600260009054906101000a900473ffffffffffffffffffffffffffffffffffffffff1673ffffffffffffffffffffffffffffffffffffffff163373ffffffffffffffffffffffffffffffffffffffff16146109c1576040517f08c379a00000000000000000000000000000000000000000000000000000000081526004016109b8906122b1565b60405180910390fd5b6040518060c001604052808481526020018573ffffffffffffffffffffffffffffffffffffffff1681526020018381526020018281526020016004805490508152602001428152506000808673ffffffffffffffffffffffffffffffffffffffff1673ffffffffffffffffffffffffffffffffffffffff16815260200190815260200160002084604051610a559190612371565b90815260200160405180910390206000820151816000019081610a789190612891565b5060208201518160010160006101000a81548173ffffffffffffffffffffffffffffffffffffffff021916908373ffffffffffffffffffffffffffffffffffffffff16021790555060408201518160020155606082015181600301556080820151816004015560a0820151816005015590505060046000808673ffffffffffffffffffffffffffffffffffffffff1673ffffffffffffffffffffffffffffffffffffffff16815260200190815260200160002084604051610b399190612371565b9081526020016040518091039020908060018154018082558091505060019003906000526020600020906006020160009091909190915060008201816000019081610b8491906126b1565b506001820160009054906101000a900473ffffffffffffffffffffffffffffffffffffffff168160010160006101000a81548173ffffffffffffffffffffffffffffffffffffffff021916908373ffffffffffffffffffffffffffffffffffffffff16021790555060028201548160020155600382015481600301556004820154816004015560058201548160050155505050505050565b600360009054906101000a900473ffffffffffffffffffffffffffffffffffffffff1681565b600260009054906101000a900473ffffffffffffffffffffffffffffffffffffffff1673ffffffffffffffffffffffffffffffffffffffff163373ffffffffffffffffffffffffffffffffffffffff1614610cd2576040517f08c379a0000000000000000000000000000000000000000000000000000000008152600401610cc9906122b1565b60405180910390fd5b60008060008473ffffffffffffffffffffffffffffffffffffffff1673ffffffffffffffffffffffffffffffffffffffff16815260200190815260200160002084604051610d209190612371565b908152602001604051809103902060040154905060008060008573ffffffffffffffffffffffffffffffffffffffff1673ffffffffffffffffffffffffffffffffffffffff16815260200190815260200160002085604051610d829190612371565b908152602001604051809103902060020154905060008060008673ffffffffffffffffffffffffffffffffffffffff1673ffffffffffffffffffffffffffffffffffffffff16815260200190815260200160002086604051610de49190612371565b908152602001604051809103902060010160009054906101000a900473ffffffffffffffffffffffffffffffffffffffff1690508473ffffffffffffffffffffffffffffffffffffffff168173ffffffffffffffffffffffffffffffffffffffff1614610e86576040517f08c379a0000000000000000000000000000000000000000000000000000000008152600401610e7d906123d4565b60405180910390fd5b60008211610ec9576040517f08c379a0000000000000000000000000000000000000000000000000000000008152600401610ec090612440565b60405180910390fd5b8382610ed59190612992565b6000808773ffffffffffffffffffffffffffffffffffffffff1673ffffffffffffffffffffffffffffffffffffffff16815260200190815260200160002087604051610f219190612371565b9081526020016040518091039020600201819055506000808673ffffffffffffffffffffffffffffffffffffffff1673ffffffffffffffffffffffffffffffffffffffff16815260200190815260200160002086604051610f829190612371565b908152602001604051809103902060048481548110610fa457610fa3612460565b5b906000526020600020906006020160008201816000019081610fc691906126b1565b506001820160009054906101000a900473ffffffffffffffffffffffffffffffffffffffff168160010160006101000a81548173ffffffffffffffffffffffffffffffffffffffff021916908373ffffffffffffffffffffffffffffffffffffffff16021790555060028201548160020155600382015481600301556004820154816004015560058201548160050155905050505050505050565b600260009054906101000a900473ffffffffffffffffffffffffffffffffffffffff1673ffffffffffffffffffffffffffffffffffffffff163373ffffffffffffffffffffffffffffffffffffffff16146110f1576040517f08c379a00000000000000000000000000000000000000000000000000000000081526004016110e8906122b1565b60405180910390fd5b60008060008473ffffffffffffffffffffffffffffffffffffffff1673ffffffffffffffffffffffffffffffffffffffff1681526020019081526020016000208460405161113f9190612371565b908152602001604051809103902060030154905060008060008573ffffffffffffffffffffffffffffffffffffffff1673ffffffffffffffffffffffffffffffffffffffff168152602001908152602001600020856040516111a19190612371565b908152602001604051809103902060040154905060008060008673ffffffffffffffffffffffffffffffffffffffff1673ffffffffffffffffffffffffffffffffffffffff168152602001908152602001600020866040516112039190612371565b908152602001604051809103902060020154905060008060008773ffffffffffffffffffffffffffffffffffffffff1673ffffffffffffffffffffffffffffffffffffffff168152602001908152602001600020876040516112659190612371565b908152602001604051809103902060010160009054906101000a900473ffffffffffffffffffffffffffffffffffffffff1690506000600160009054906101000a900473ffffffffffffffffffffffffffffffffffffffff1673ffffffffffffffffffffffffffffffffffffffff16632f667910896040518263ffffffff1660e01b81526004016112f691906122d1565b602060405180830381865afa158015611313573d6000803e3d6000fd5b505050506040513d601f19601f820116820180604052508101906113379190612308565b905060008173ffffffffffffffffffffffffffffffffffffffff1663d59624b46040518163ffffffff1660e01b8152600401602060405180830381865afa158015611386573d6000803e3d6000fd5b505050506040513d601f19601f820116820180604052508101906113aa91906129db565b90508773ffffffffffffffffffffffffffffffffffffffff168373ffffffffffffffffffffffffffffffffffffffff161461141a576040517f08c379a0000000000000000000000000000000000000000000000000000000008152600401611411906123d4565b60405180910390fd5b6000841161145d576040517f08c379a000000000000000000000000000000000000000000000000000000000815260040161145490612440565b60405180910390fd5b85870361149f576040517f08c379a000000000000000000000000000000000000000000000000000000000815260040161149690612a54565b60405180910390fd5b8042106114e1576040517f08c379a00000000000000000000000000000000000000000000000000000000081526004016114d890612ac0565b60405180910390fd5b866000808a73ffffffffffffffffffffffffffffffffffffffff1673ffffffffffffffffffffffffffffffffffffffff1681526020019081526020016000208a60405161152e9190612371565b9081526020016040518091039020600301819055506000808973ffffffffffffffffffffffffffffffffffffffff1673ffffffffffffffffffffffffffffffffffffffff1681526020019081526020016000208960405161158f9190612371565b9081526020016040518091039020600486815481106115b1576115b0612460565b5b9060005260206000209060060201600082018160000190816115d391906126b1565b506001820160009054906101000a900473ffffffffffffffffffffffffffffffffffffffff168160010160006101000a81548173ffffffffffffffffffffffffffffffffffffffff021916908373ffffffffffffffffffffffffffffffffffffffff16021790555060028201548160020155600382015481600301556004820154816004015560058201548160050155905050505050505050505050565b600260009054906101000a900473ffffffffffffffffffffffffffffffffffffffff1673ffffffffffffffffffffffffffffffffffffffff163373ffffffffffffffffffffffffffffffffffffffff1614611701576040517f08c379a00000000000000000000000000000000000000000000000000000000081526004016116f8906122b1565b60405180910390fd5b6000600160009054906101000a900473ffffffffffffffffffffffffffffffffffffffff1673ffffffffffffffffffffffffffffffffffffffff16632f667910866040518263ffffffff1660e01b815260040161175e91906122d1565b602060405180830381865afa15801561177b573d6000803e3d6000fd5b505050506040513d601f19601f8201168201806040525081019061179f9190612308565b905060008060008673ffffffffffffffffffffffffffffffffffffffff1673ffffffffffffffffffffffffffffffffffffffff168152602001908152602001600020866040516117ef9190612371565b908152602001604051809103902060040154905060008060008773ffffffffffffffffffffffffffffffffffffffff1673ffffffffffffffffffffffffffffffffffffffff168152602001908152602001600020876040516118519190612371565b908152602001604051809103902060020154905060008060008873ffffffffffffffffffffffffffffffffffffffff1673ffffffffffffffffffffffffffffffffffffffff168152602001908152602001600020886040516118b39190612371565b908152602001604051809103902060010160009054906101000a900473ffffffffffffffffffffffffffffffffffffffff1690508673ffffffffffffffffffffffffffffffffffffffff168173ffffffffffffffffffffffffffffffffffffffff1614611955576040517f08c379a000000000000000000000000000000000000000000000000000000000815260040161194c906123d4565b60405180910390fd5b6000821180156119655750848210155b6119a4576040517f08c379a000000000000000000000000000000000000000000000000000000000815260040161199b90612440565b60405180910390fd5b848203611ad95760008060008973ffffffffffffffffffffffffffffffffffffffff1673ffffffffffffffffffffffffffffffffffffffff168152602001908152602001600020896040516119f99190612371565b90815260200160405180910390206002018190555060008060008973ffffffffffffffffffffffffffffffffffffffff1673ffffffffffffffffffffffffffffffffffffffff16815260200190815260200160002089604051611a5c9190612371565b90815260200160405180910390206003018190555060008060008973ffffffffffffffffffffffffffffffffffffffff1673ffffffffffffffffffffffffffffffffffffffff16815260200190815260200160002089604051611abf9190612371565b908152602001604051809103902060050181905550611b47565b8482611ae59190612ae0565b6000808973ffffffffffffffffffffffffffffffffffffffff1673ffffffffffffffffffffffffffffffffffffffff16815260200190815260200160002089604051611b319190612371565b9081526020016040518091039020600201819055505b6000808873ffffffffffffffffffffffffffffffffffffffff1673ffffffffffffffffffffffffffffffffffffffff16815260200190815260200160002088604051611b939190612371565b908152602001604051809103902060048481548110611bb557611bb4612460565b5b906000526020600020906006020160008201816000019081611bd791906126b1565b506001820160009054906101000a900473ffffffffffffffffffffffffffffffffffffffff168160010160006101000a81548173ffffffffffffffffffffffffffffffffffffffff021916908373ffffffffffffffffffffffffffffffffffffffff160217905550600282015481600201556003820154816003015560048201548160040155600582015481600501559050508373ffffffffffffffffffffffffffffffffffffffff1663be45fd6287876040518060400160405280600381526020017f30783000000000000000000000000000000000000000000000000000000000008152506040518463ffffffff1660e01b8152600401611cdc939291906127ee565b6020604051808303816000875af1158015611cfb573d6000803e3d6000fd5b505050506040513d601f19601f82011682018060405250810190611d1f9190612864565b505050505050505050565b600073ffffffffffffffffffffffffffffffffffffffff82169050919050565b6000611d5582611d2a565b9050919050565b611d6581611d4a565b82525050565b6000602082019050611d806000830184611d5c565b92915050565b6000604051905090565b600080fd5b600080fd5b600080fd5b600080fd5b6000601f19601f8301169050919050565b7f4e487b7100000000000000000000000000000000000000000000000000000000600052604160045260246000fd5b611ded82611da4565b810181811067ffffffffffffffff82111715611e0c57611e0b611db5565b5b80604052505050565b6000611e1f611d86565b9050611e2b8282611de4565b919050565b600067ffffffffffffffff821115611e4b57611e4a611db5565b5b611e5482611da4565b9050602081019050919050565b82818337600083830152505050565b6000611e83611e7e84611e30565b611e15565b905082815260208101848484011115611e9f57611e9e611d9f565b5b611eaa848285611e61565b509392505050565b600082601f830112611ec757611ec6611d9a565b5b8135611ed7848260208601611e70565b91505092915050565b611ee981611d4a565b8114611ef457600080fd5b50565b600081359050611f0681611ee0565b92915050565b60008060408385031215611f2357611f22611d90565b5b600083013567ffffffffffffffff811115611f4157611f40611d95565b5b611f4d85828601611eb2565b9250506020611f5e85828601611ef7565b9150509250929050565b60008060408385031215611f7f57611f7e611d90565b5b6000611f8d85828601611ef7565b925050602083013567ffffffffffffffff811115611fae57611fad611d95565b5b611fba85828601611eb2565b9150509250929050565b600081519050919050565b600082825260208201905092915050565b60005b83811015611ffe578082015181840152602081019050611fe3565b60008484015250505050565b600061201582611fc4565b61201f8185611fcf565b935061202f818560208601611fe0565b61203881611da4565b840191505092915050565b6000819050919050565b61205681612043565b82525050565b600060c0820190508181036000830152612076818961200a565b90506120856020830188611d5c565b612092604083018761204d565b61209f606083018661204d565b6120ac608083018561204d565b6120b960a083018461204d565b979650505050505050565b6120cd81612043565b81146120d857600080fd5b50565b6000813590506120ea816120c4565b92915050565b6000806000806080858703121561210a57612109611d90565b5b600061211887828801611ef7565b945050602085013567ffffffffffffffff81111561213957612138611d95565b5b61214587828801611eb2565b9350506040612156878288016120db565b9250506060612167878288016120db565b91505092959194509250565b60008060006060848603121561218c5761218b611d90565b5b600084013567ffffffffffffffff8111156121aa576121a9611d95565b5b6121b686828701611eb2565b93505060206121c786828701611ef7565b92505060406121d8868287016120db565b9150509250925092565b600080600080608085870312156121fc576121fb611d90565b5b600085013567ffffffffffffffff81111561221a57612219611d95565b5b61222687828801611eb2565b945050602061223787828801611ef7565b935050604061224887828801611ef7565b9250506060612259878288016120db565b91505092959194509250565b7f4f6e6c792045786368616e676500000000000000000000000000000000000000600082015250565b600061229b600d83611fcf565b91506122a682612265565b602082019050919050565b600060208201905081810360008301526122ca8161228e565b9050919050565b600060208201905081810360008301526122eb818461200a565b905092915050565b60008151905061230281611ee0565b92915050565b60006020828403121561231e5761231d611d90565b5b600061232c848285016122f3565b91505092915050565b600081905092915050565b600061234b82611fc4565b6123558185612335565b9350612365818560208601611fe0565b80840191505092915050565b600061237d8284612340565b915081905092915050565b7f696e76616c69642073656c6c6572000000000000000000000000000000000000600082015250565b60006123be600e83611fcf565b91506123c982612388565b602082019050919050565b600060208201905081810360008301526123ed816123b1565b9050919050565b7f696e76616c696420616d6f756e74000000000000000000000000000000000000600082015250565b600061242a600e83611fcf565b9150612435826123f4565b602082019050919050565b600060208201905081810360008301526124598161241d565b9050919050565b7f4e487b7100000000000000000000000000000000000000000000000000000000600052603260045260246000fd5b7f4e487b7100000000000000000000000000000000000000000000000000000000600052602260045260246000fd5b600060028204905060018216806124d657607f821691505b6020821081036124e9576124e861248f565b5b50919050565b6000815490506124fe816124be565b9050919050565b60008190508160005260206000209050919050565b60006020601f8301049050919050565b600082821b905092915050565b6000600883026125677fffffffffffffffffffffffffffffffffffffffffffffffffffffffffffffffff8261252a565b612571868361252a565b95508019841693508086168417925050509392505050565b6000819050919050565b60006125ae6125a96125a484612043565b612589565b612043565b9050919050565b6000819050919050565b6125c883612593565b6125dc6125d4826125b5565b848454612537565b825550505050565b600090565b6125f16125e4565b6125fc8184846125bf565b505050565b5b81811015612620576126156000826125e9565b600181019050612602565b5050565b601f8211156126655761263681612505565b61263f8461251a565b8101602085101561264e578190505b61266261265a8561251a565b830182612601565b50505b505050565b600082821c905092915050565b60006126886000198460080261266a565b1980831691505092915050565b60006126a18383612677565b9150826002028217905092915050565b8181036126bf575050612797565b6126c8826124ef565b67ffffffffffffffff8111156126e1576126e0611db5565b5b6126eb82546124be565b6126f6828285612624565b6000601f8311600181146127255760008415612713578287015490505b61271d8582612695565b865550612790565b601f19841661273387612505565b965061273e86612505565b60005b8281101561276657848901548255600182019150600185019450602081019050612741565b86831015612783578489015461277f601f891682612677565b8355505b6001600288020188555050505b5050505050505b565b600081519050919050565b600082825260208201905092915050565b60006127c082612799565b6127ca81856127a4565b93506127da818560208601611fe0565b6127e381611da4565b840191505092915050565b60006060820190506128036000830186611d5c565b612810602083018561204d565b818103604083015261282281846127b5565b9050949350505050565b60008115159050919050565b6128418161282c565b811461284c57600080fd5b50565b60008151905061285e81612838565b92915050565b60006020828403121561287a57612879611d90565b5b60006128888482850161284f565b91505092915050565b61289a82611fc4565b67ffffffffffffffff8111156128b3576128b2611db5565b5b6128bd82546124be565b6128c8828285612624565b600060209050601f8311600181146128fb57600084156128e9578287015190505b6128f38582612695565b86555061295b565b601f19841661290986612505565b60005b828110156129315784890151825560018201915060208501945060208101905061290c565b8683101561294e578489015161294a601f891682612677565b8355505b6001600288020188555050505b505050505050565b7f4e487b7100000000000000000000000000000000000000000000000000000000600052601160045260246000fd5b600061299d82612043565b91506129a883612043565b92508282019050808211156129c0576129bf612963565b5b92915050565b6000815190506129d5816120c4565b92915050565b6000602082840312156129f1576129f0611d90565b5b60006129ff848285016129c6565b91505092915050565b7f756e6368616e6765642070726963650000000000000000000000000000000000600082015250565b6000612a3e600f83611fcf565b9150612a4982612a08565b602082019050919050565b60006020820190508181036000830152612a6d81612a31565b9050919050565b7f626f6e6473206d61747572656400000000000000000000000000000000000000600082015250565b6000612aaa600d83611fcf565b9150612ab582612a74565b602082019050919050565b60006020820190508181036000830152612ad981612a9d565b9050919050565b6000612aeb82612043565b9150612af683612043565b9250828203905081811115612b0e57612b0d612963565b5b9291505056fea264697066735822122078f87b99f7842a2a842dfd586a169dab6ef6f364b2ffdf139145726f4b81f5ca64736f6c63430008130033",
  "linkReferences": {},
  "deployedLinkReferences": {}
}