{
  "_format": "hh-sol-artifact-1",
  "contractName": "ExchangeBondsStorage",
  "sourceName": "contracts/Topos/Exchange/ExchangeBondsStorage.sol",
  "abi": [
    {
      "inputs": [
        {
          "internalType": "address",
          "name": "_bankContract",
          "type": "address"
        },
        {
          "internalType": "address",
          "name": "_exchangeContract",
          "type": "address"
        },
        {
          "internalType": "address",
          "name": "_bondCallContract",
          "type": "address"
        }
      ],
      "stateMutability": "nonpayable",
      "type": "constructor"
    },
    {
      "inputs": [],
      "name": "bankContract",
      "outputs": [
        {
          "internalType": "address",
          "name": "",
          "type": "address"
        }
      ],
      "stateMutability": "view",
      "type": "function"
    },
    {
      "inputs": [],
      "name": "bondCallContract",
      "outputs": [
        {
          "internalType": "address",
          "name": "",
          "type": "address"
        }
      ],
      "stateMutability": "view",
      "type": "function"
    },
    {
      "inputs": [
        {
          "internalType": "string",
          "name": "_dealID",
          "type": "string"
        },
        {
          "internalType": "address",
          "name": "_seller",
          "type": "address"
        },
        {
          "internalType": "address",
          "name": "_buyer",
          "type": "address"
        },
        {
          "internalType": "uint256",
          "name": "_amount",
          "type": "uint256"
        }
      ],
      "name": "buy",
      "outputs": [],
      "stateMutability": "nonpayable",
      "type": "function"
    },
    {
      "inputs": [
        {
          "internalType": "string",
          "name": "_dealID",
          "type": "string"
        },
        {
          "internalType": "address",
          "name": "_seller",
          "type": "address"
        }
      ],
      "name": "cancelBonds",
      "outputs": [],
      "stateMutability": "nonpayable",
      "type": "function"
    },
    {
      "inputs": [
        {
          "internalType": "address",
          "name": "_seller",
          "type": "address"
        },
        {
          "internalType": "string",
          "name": "_dealID",
          "type": "string"
        },
        {
          "internalType": "uint256",
          "name": "_amount",
          "type": "uint256"
        },
        {
          "internalType": "uint256",
          "name": "_price",
          "type": "uint256"
        }
      ],
      "name": "depositBonds",
      "outputs": [],
      "stateMutability": "nonpayable",
      "type": "function"
    },
    {
      "inputs": [],
      "name": "exchangeContract",
      "outputs": [
        {
          "internalType": "address",
          "name": "",
          "type": "address"
        }
      ],
      "stateMutability": "view",
      "type": "function"
    },
    {
      "inputs": [
        {
          "internalType": "string",
          "name": "_dealID",
          "type": "string"
        },
        {
          "internalType": "address",
          "name": "_seller",
          "type": "address"
        },
        {
          "internalType": "uint256",
          "name": "_amountToAdd",
          "type": "uint256"
        }
      ],
      "name": "increaseAmount",
      "outputs": [],
      "stateMutability": "nonpayable",
      "type": "function"
    },
    {
      "inputs": [
        {
          "internalType": "address",
          "name": "",
          "type": "address"
        },
        {
          "internalType": "string",
          "name": "",
          "type": "string"
        }
      ],
      "name": "investorListing",
      "outputs": [
        {
          "internalType": "string",
          "name": "dealID",
          "type": "string"
        },
        {
          "internalType": "address",
          "name": "owner",
          "type": "address"
        },
        {
          "internalType": "uint256",
          "name": "amount",
          "type": "uint256"
        },
        {
          "internalType": "uint256",
          "name": "price",
          "type": "uint256"
        },
        {
          "internalType": "uint256",
          "name": "index",
          "type": "uint256"
        },
        {
          "internalType": "uint256",
          "name": "listingTime",
          "type": "uint256"
        }
      ],
      "stateMutability": "view",
      "type": "function"
    },
    {
      "inputs": [
        {
          "internalType": "string",
          "name": "_dealID",
          "type": "string"
        },
        {
          "internalType": "address",
          "name": "_seller",
          "type": "address"
        },
        {
          "internalType": "uint256",
          "name": "_newPrice",
          "type": "uint256"
        }
      ],
      "name": "updatePrice",
      "outputs": [],
      "stateMutability": "nonpayable",
      "type": "function"
    }
  ],
  "bytecode": "0x60806040523480156200001157600080fd5b5060405162002d1d38038062002d1d83398181016040528101906200003791906200016d565b82600160006101000a81548173ffffffffffffffffffffffffffffffffffffffff021916908373ffffffffffffffffffffffffffffffffffffffff16021790555081600260006101000a81548173ffffffffffffffffffffffffffffffffffffffff021916908373ffffffffffffffffffffffffffffffffffffffff16021790555080600360006101000a81548173ffffffffffffffffffffffffffffffffffffffff021916908373ffffffffffffffffffffffffffffffffffffffff160217905550505050620001c9565b600080fd5b600073ffffffffffffffffffffffffffffffffffffffff82169050919050565b6000620001358262000108565b9050919050565b620001478162000128565b81146200015357600080fd5b50565b60008151905062000167816200013c565b92915050565b60008060006060848603121562000189576200018862000103565b5b6000620001998682870162000156565b9350506020620001ac8682870162000156565b9250506040620001bf8682870162000156565b9150509250925092565b612b4480620001d96000396000f3fe608060405234801561001057600080fd5b50600436106100935760003560e01c80635b91e752116100665780635b91e752146101255780635e43522e14610141578063995ae7d01461015f578063a33f7da01461017b578063d32e0f271461019757610093565b806307c2e449146100985780632cc9143f146100b65780632d9fc161146100d25780633f0a079714610107575b600080fd5b6100a06101b3565b6040516100ad9190611dbc565b60405180910390f35b6100d060048036038101906100cb9190611f5d565b6101d9565b005b6100ec60048036038101906100e79190611fb9565b610816565b6040516100fe969594939291906120ad565b60405180910390f35b61010f61091d565b60405161011c9190611dbc565b60405180910390f35b61013f600480360381019061013a9190612141565b610943565b005b610149610c2e565b6040516101569190611dbc565b60405180910390f35b610179600480360381019061017491906121c4565b610c54565b005b610195600480360381019061019091906121c4565b611073565b005b6101b160048036038101906101ac9190612233565b6116b0565b005b600160009054906101000a900473ffffffffffffffffffffffffffffffffffffffff1681565b600260009054906101000a900473ffffffffffffffffffffffffffffffffffffffff1673ffffffffffffffffffffffffffffffffffffffff163373ffffffffffffffffffffffffffffffffffffffff1614610269576040517f08c379a000000000000000000000000000000000000000000000000000000000815260040161026090612302565b60405180910390fd5b6000600160009054906101000a900473ffffffffffffffffffffffffffffffffffffffff1673ffffffffffffffffffffffffffffffffffffffff16632f667910846040518263ffffffff1660e01b81526004016102c69190612322565b602060405180830381865afa1580156102e3573d6000803e3d6000fd5b505050506040513d601f19601f820116820180604052508101906103079190612359565b90506000808373ffffffffffffffffffffffffffffffffffffffff1673ffffffffffffffffffffffffffffffffffffffff1681526020019081526020016000208360405161035591906123c2565b908152602001604051809103902060010160009054906101000a900473ffffffffffffffffffffffffffffffffffffffff1673ffffffffffffffffffffffffffffffffffffffff168273ffffffffffffffffffffffffffffffffffffffff16146103f4576040517f08c379a00000000000000000000000000000000000000000000000000000000081526004016103eb90612425565b60405180910390fd5b60008060008473ffffffffffffffffffffffffffffffffffffffff1673ffffffffffffffffffffffffffffffffffffffff1681526020019081526020016000208460405161044291906123c2565b908152602001604051809103902060020154905060008060008573ffffffffffffffffffffffffffffffffffffffff1673ffffffffffffffffffffffffffffffffffffffff168152602001908152602001600020856040516104a491906123c2565b9081526020016040518091039020600401549050600082116104fb576040517f08c379a00000000000000000000000000000000000000000000000000000000081526004016104f290612491565b60405180910390fd5b60008060008673ffffffffffffffffffffffffffffffffffffffff1673ffffffffffffffffffffffffffffffffffffffff1681526020019081526020016000208660405161054991906123c2565b90815260200160405180910390206002018190555060008060008673ffffffffffffffffffffffffffffffffffffffff1673ffffffffffffffffffffffffffffffffffffffff168152602001908152602001600020866040516105ac91906123c2565b90815260200160405180910390206003018190555060008060008673ffffffffffffffffffffffffffffffffffffffff1673ffffffffffffffffffffffffffffffffffffffff1681526020019081526020016000208660405161060f91906123c2565b9081526020016040518091039020600501819055506000808573ffffffffffffffffffffffffffffffffffffffff1673ffffffffffffffffffffffffffffffffffffffff1681526020019081526020016000208560405161067091906123c2565b908152602001604051809103902060048281548110610692576106916124b1565b5b9060005260206000209060060201600082018160000190816106b49190612702565b506001820160009054906101000a900473ffffffffffffffffffffffffffffffffffffffff168160010160006101000a81548173ffffffffffffffffffffffffffffffffffffffff021916908373ffffffffffffffffffffffffffffffffffffffff16021790555060028201548160020155600382015481600301556004820154816004015560058201548160050155905050600360009054906101000a900473ffffffffffffffffffffffffffffffffffffffff1673ffffffffffffffffffffffffffffffffffffffff1663efa3404f85846040518060400160405280600381526020017f3078300000000000000000000000000000000000000000000000000000000000815250876040518563ffffffff1660e01b81526004016107dd949392919061283f565b600060405180830381600087803b1580156107f757600080fd5b505af115801561080b573d6000803e3d6000fd5b505050505050505050565b6000602052816000526040600020818051602081018201805184825260208301602085012081835280955050505050506000915091505080600001805461085c9061250f565b80601f01602080910402602001604051908101604052809291908181526020018280546108889061250f565b80156108d55780601f106108aa576101008083540402835291602001916108d5565b820191906000526020600020905b8154815290600101906020018083116108b857829003601f168201915b5050505050908060010160009054906101000a900473ffffffffffffffffffffffffffffffffffffffff16908060020154908060030154908060040154908060050154905086565b600260009054906101000a900473ffffffffffffffffffffffffffffffffffffffff1681565b600260009054906101000a900473ffffffffffffffffffffffffffffffffffffffff1673ffffffffffffffffffffffffffffffffffffffff163373ffffffffffffffffffffffffffffffffffffffff16146109d3576040517f08c379a00000000000000000000000000000000000000000000000000000000081526004016109ca90612302565b60405180910390fd5b6040518060c001604052808481526020018573ffffffffffffffffffffffffffffffffffffffff1681526020018381526020018281526020016004805490508152602001428152506000808673ffffffffffffffffffffffffffffffffffffffff1673ffffffffffffffffffffffffffffffffffffffff16815260200190815260200160002084604051610a6791906123c2565b90815260200160405180910390206000820151816000019081610a8a919061288b565b5060208201518160010160006101000a81548173ffffffffffffffffffffffffffffffffffffffff021916908373ffffffffffffffffffffffffffffffffffffffff16021790555060408201518160020155606082015181600301556080820151816004015560a0820151816005015590505060046000808673ffffffffffffffffffffffffffffffffffffffff1673ffffffffffffffffffffffffffffffffffffffff16815260200190815260200160002084604051610b4b91906123c2565b9081526020016040518091039020908060018154018082558091505060019003906000526020600020906006020160009091909190915060008201816000019081610b969190612702565b506001820160009054906101000a900473ffffffffffffffffffffffffffffffffffffffff168160010160006101000a81548173ffffffffffffffffffffffffffffffffffffffff021916908373ffffffffffffffffffffffffffffffffffffffff16021790555060028201548160020155600382015481600301556004820154816004015560058201548160050155505050505050565b600360009054906101000a900473ffffffffffffffffffffffffffffffffffffffff1681565b600260009054906101000a900473ffffffffffffffffffffffffffffffffffffffff1673ffffffffffffffffffffffffffffffffffffffff163373ffffffffffffffffffffffffffffffffffffffff1614610ce4576040517f08c379a0000000000000000000000000000000000000000000000000000000008152600401610cdb90612302565b60405180910390fd5b60008060008473ffffffffffffffffffffffffffffffffffffffff1673ffffffffffffffffffffffffffffffffffffffff16815260200190815260200160002084604051610d3291906123c2565b908152602001604051809103902060040154905060008060008573ffffffffffffffffffffffffffffffffffffffff1673ffffffffffffffffffffffffffffffffffffffff16815260200190815260200160002085604051610d9491906123c2565b908152602001604051809103902060020154905060008060008673ffffffffffffffffffffffffffffffffffffffff1673ffffffffffffffffffffffffffffffffffffffff16815260200190815260200160002086604051610df691906123c2565b908152602001604051809103902060010160009054906101000a900473ffffffffffffffffffffffffffffffffffffffff1690508473ffffffffffffffffffffffffffffffffffffffff168173ffffffffffffffffffffffffffffffffffffffff1614610e98576040517f08c379a0000000000000000000000000000000000000000000000000000000008152600401610e8f90612425565b60405180910390fd5b60008211610edb576040517f08c379a0000000000000000000000000000000000000000000000000000000008152600401610ed290612491565b60405180910390fd5b8382610ee7919061298c565b6000808773ffffffffffffffffffffffffffffffffffffffff1673ffffffffffffffffffffffffffffffffffffffff16815260200190815260200160002087604051610f3391906123c2565b9081526020016040518091039020600201819055506000808673ffffffffffffffffffffffffffffffffffffffff1673ffffffffffffffffffffffffffffffffffffffff16815260200190815260200160002086604051610f9491906123c2565b908152602001604051809103902060048481548110610fb657610fb56124b1565b5b906000526020600020906006020160008201816000019081610fd89190612702565b506001820160009054906101000a900473ffffffffffffffffffffffffffffffffffffffff168160010160006101000a81548173ffffffffffffffffffffffffffffffffffffffff021916908373ffffffffffffffffffffffffffffffffffffffff16021790555060028201548160020155600382015481600301556004820154816004015560058201548160050155905050505050505050565b600260009054906101000a900473ffffffffffffffffffffffffffffffffffffffff1673ffffffffffffffffffffffffffffffffffffffff163373ffffffffffffffffffffffffffffffffffffffff1614611103576040517f08c379a00000000000000000000000000000000000000000000000000000000081526004016110fa90612302565b60405180910390fd5b60008060008473ffffffffffffffffffffffffffffffffffffffff1673ffffffffffffffffffffffffffffffffffffffff1681526020019081526020016000208460405161115191906123c2565b908152602001604051809103902060030154905060008060008573ffffffffffffffffffffffffffffffffffffffff1673ffffffffffffffffffffffffffffffffffffffff168152602001908152602001600020856040516111b391906123c2565b908152602001604051809103902060040154905060008060008673ffffffffffffffffffffffffffffffffffffffff1673ffffffffffffffffffffffffffffffffffffffff1681526020019081526020016000208660405161121591906123c2565b908152602001604051809103902060020154905060008060008773ffffffffffffffffffffffffffffffffffffffff1673ffffffffffffffffffffffffffffffffffffffff1681526020019081526020016000208760405161127791906123c2565b908152602001604051809103902060010160009054906101000a900473ffffffffffffffffffffffffffffffffffffffff1690506000600160009054906101000a900473ffffffffffffffffffffffffffffffffffffffff1673ffffffffffffffffffffffffffffffffffffffff16632f667910896040518263ffffffff1660e01b81526004016113089190612322565b602060405180830381865afa158015611325573d6000803e3d6000fd5b505050506040513d601f19601f820116820180604052508101906113499190612359565b90506000600360009054906101000a900473ffffffffffffffffffffffffffffffffffffffff1673ffffffffffffffffffffffffffffffffffffffff166366ac49c9836040518263ffffffff1660e01b81526004016113a89190611dbc565b602060405180830381865afa1580156113c5573d6000803e3d6000fd5b505050506040513d601f19601f820116820180604052508101906113e991906129d5565b90508773ffffffffffffffffffffffffffffffffffffffff168373ffffffffffffffffffffffffffffffffffffffff1614611459576040517f08c379a000000000000000000000000000000000000000000000000000000000815260040161145090612425565b60405180910390fd5b6000841161149c576040517f08c379a000000000000000000000000000000000000000000000000000000000815260040161149390612491565b60405180910390fd5b8587036114de576040517f08c379a00000000000000000000000000000000000000000000000000000000081526004016114d590612a4e565b60405180910390fd5b804210611520576040517f08c379a000000000000000000000000000000000000000000000000000000000815260040161151790612aba565b60405180910390fd5b866000808a73ffffffffffffffffffffffffffffffffffffffff1673ffffffffffffffffffffffffffffffffffffffff1681526020019081526020016000208a60405161156d91906123c2565b9081526020016040518091039020600301819055506000808973ffffffffffffffffffffffffffffffffffffffff1673ffffffffffffffffffffffffffffffffffffffff168152602001908152602001600020896040516115ce91906123c2565b9081526020016040518091039020600486815481106115f0576115ef6124b1565b5b9060005260206000209060060201600082018160000190816116129190612702565b506001820160009054906101000a900473ffffffffffffffffffffffffffffffffffffffff168160010160006101000a81548173ffffffffffffffffffffffffffffffffffffffff021916908373ffffffffffffffffffffffffffffffffffffffff16021790555060028201548160020155600382015481600301556004820154816004015560058201548160050155905050505050505050505050565b600260009054906101000a900473ffffffffffffffffffffffffffffffffffffffff1673ffffffffffffffffffffffffffffffffffffffff163373ffffffffffffffffffffffffffffffffffffffff1614611740576040517f08c379a000000000000000000000000000000000000000000000000000000000815260040161173790612302565b60405180910390fd5b6000600160009054906101000a900473ffffffffffffffffffffffffffffffffffffffff1673ffffffffffffffffffffffffffffffffffffffff16632f667910866040518263ffffffff1660e01b815260040161179d9190612322565b602060405180830381865afa1580156117ba573d6000803e3d6000fd5b505050506040513d601f19601f820116820180604052508101906117de9190612359565b905060008060008673ffffffffffffffffffffffffffffffffffffffff1673ffffffffffffffffffffffffffffffffffffffff1681526020019081526020016000208660405161182e91906123c2565b908152602001604051809103902060040154905060008060008773ffffffffffffffffffffffffffffffffffffffff1673ffffffffffffffffffffffffffffffffffffffff1681526020019081526020016000208760405161189091906123c2565b908152602001604051809103902060020154905060008060008873ffffffffffffffffffffffffffffffffffffffff1673ffffffffffffffffffffffffffffffffffffffff168152602001908152602001600020886040516118f291906123c2565b908152602001604051809103902060010160009054906101000a900473ffffffffffffffffffffffffffffffffffffffff1690508673ffffffffffffffffffffffffffffffffffffffff168173ffffffffffffffffffffffffffffffffffffffff1614611994576040517f08c379a000000000000000000000000000000000000000000000000000000000815260040161198b90612425565b60405180910390fd5b6000821180156119a45750848210155b6119e3576040517f08c379a00000000000000000000000000000000000000000000000000000000081526004016119da90612491565b60405180910390fd5b848203611b185760008060008973ffffffffffffffffffffffffffffffffffffffff1673ffffffffffffffffffffffffffffffffffffffff16815260200190815260200160002089604051611a3891906123c2565b90815260200160405180910390206002018190555060008060008973ffffffffffffffffffffffffffffffffffffffff1673ffffffffffffffffffffffffffffffffffffffff16815260200190815260200160002089604051611a9b91906123c2565b90815260200160405180910390206003018190555060008060008973ffffffffffffffffffffffffffffffffffffffff1673ffffffffffffffffffffffffffffffffffffffff16815260200190815260200160002089604051611afe91906123c2565b908152602001604051809103902060050181905550611b86565b8482611b249190612ada565b6000808973ffffffffffffffffffffffffffffffffffffffff1673ffffffffffffffffffffffffffffffffffffffff16815260200190815260200160002089604051611b7091906123c2565b9081526020016040518091039020600201819055505b6000808873ffffffffffffffffffffffffffffffffffffffff1673ffffffffffffffffffffffffffffffffffffffff16815260200190815260200160002088604051611bd291906123c2565b908152602001604051809103902060048481548110611bf457611bf36124b1565b5b906000526020600020906006020160008201816000019081611c169190612702565b506001820160009054906101000a900473ffffffffffffffffffffffffffffffffffffffff168160010160006101000a81548173ffffffffffffffffffffffffffffffffffffffff021916908373ffffffffffffffffffffffffffffffffffffffff16021790555060028201548160020155600382015481600301556004820154816004015560058201548160050155905050600360009054906101000a900473ffffffffffffffffffffffffffffffffffffffff1673ffffffffffffffffffffffffffffffffffffffff1663efa3404f87876040518060400160405280600381526020017f3078300000000000000000000000000000000000000000000000000000000000815250886040518563ffffffff1660e01b8152600401611d3f949392919061283f565b600060405180830381600087803b158015611d5957600080fd5b505af1158015611d6d573d6000803e3d6000fd5b505050505050505050505050565b600073ffffffffffffffffffffffffffffffffffffffff82169050919050565b6000611da682611d7b565b9050919050565b611db681611d9b565b82525050565b6000602082019050611dd16000830184611dad565b92915050565b6000604051905090565b600080fd5b600080fd5b600080fd5b600080fd5b6000601f19601f8301169050919050565b7f4e487b7100000000000000000000000000000000000000000000000000000000600052604160045260246000fd5b611e3e82611df5565b810181811067ffffffffffffffff82111715611e5d57611e5c611e06565b5b80604052505050565b6000611e70611dd7565b9050611e7c8282611e35565b919050565b600067ffffffffffffffff821115611e9c57611e9b611e06565b5b611ea582611df5565b9050602081019050919050565b82818337600083830152505050565b6000611ed4611ecf84611e81565b611e66565b905082815260208101848484011115611ef057611eef611df0565b5b611efb848285611eb2565b509392505050565b600082601f830112611f1857611f17611deb565b5b8135611f28848260208601611ec1565b91505092915050565b611f3a81611d9b565b8114611f4557600080fd5b50565b600081359050611f5781611f31565b92915050565b60008060408385031215611f7457611f73611de1565b5b600083013567ffffffffffffffff811115611f9257611f91611de6565b5b611f9e85828601611f03565b9250506020611faf85828601611f48565b9150509250929050565b60008060408385031215611fd057611fcf611de1565b5b6000611fde85828601611f48565b925050602083013567ffffffffffffffff811115611fff57611ffe611de6565b5b61200b85828601611f03565b9150509250929050565b600081519050919050565b600082825260208201905092915050565b60005b8381101561204f578082015181840152602081019050612034565b60008484015250505050565b600061206682612015565b6120708185612020565b9350612080818560208601612031565b61208981611df5565b840191505092915050565b6000819050919050565b6120a781612094565b82525050565b600060c08201905081810360008301526120c7818961205b565b90506120d66020830188611dad565b6120e3604083018761209e565b6120f0606083018661209e565b6120fd608083018561209e565b61210a60a083018461209e565b979650505050505050565b61211e81612094565b811461212957600080fd5b50565b60008135905061213b81612115565b92915050565b6000806000806080858703121561215b5761215a611de1565b5b600061216987828801611f48565b945050602085013567ffffffffffffffff81111561218a57612189611de6565b5b61219687828801611f03565b93505060406121a78782880161212c565b92505060606121b88782880161212c565b91505092959194509250565b6000806000606084860312156121dd576121dc611de1565b5b600084013567ffffffffffffffff8111156121fb576121fa611de6565b5b61220786828701611f03565b935050602061221886828701611f48565b92505060406122298682870161212c565b9150509250925092565b6000806000806080858703121561224d5761224c611de1565b5b600085013567ffffffffffffffff81111561226b5761226a611de6565b5b61227787828801611f03565b945050602061228887828801611f48565b935050604061229987828801611f48565b92505060606122aa8782880161212c565b91505092959194509250565b7f4f6e6c792045786368616e676500000000000000000000000000000000000000600082015250565b60006122ec600d83612020565b91506122f7826122b6565b602082019050919050565b6000602082019050818103600083015261231b816122df565b9050919050565b6000602082019050818103600083015261233c818461205b565b905092915050565b60008151905061235381611f31565b92915050565b60006020828403121561236f5761236e611de1565b5b600061237d84828501612344565b91505092915050565b600081905092915050565b600061239c82612015565b6123a68185612386565b93506123b6818560208601612031565b80840191505092915050565b60006123ce8284612391565b915081905092915050565b7f696e76616c69642073656c6c6572000000000000000000000000000000000000600082015250565b600061240f600e83612020565b915061241a826123d9565b602082019050919050565b6000602082019050818103600083015261243e81612402565b9050919050565b7f696e76616c696420616d6f756e74000000000000000000000000000000000000600082015250565b600061247b600e83612020565b915061248682612445565b602082019050919050565b600060208201905081810360008301526124aa8161246e565b9050919050565b7f4e487b7100000000000000000000000000000000000000000000000000000000600052603260045260246000fd5b7f4e487b7100000000000000000000000000000000000000000000000000000000600052602260045260246000fd5b6000600282049050600182168061252757607f821691505b60208210810361253a576125396124e0565b5b50919050565b60008154905061254f8161250f565b9050919050565b60008190508160005260206000209050919050565b60006020601f8301049050919050565b600082821b905092915050565b6000600883026125b87fffffffffffffffffffffffffffffffffffffffffffffffffffffffffffffffff8261257b565b6125c2868361257b565b95508019841693508086168417925050509392505050565b6000819050919050565b60006125ff6125fa6125f584612094565b6125da565b612094565b9050919050565b6000819050919050565b612619836125e4565b61262d61262582612606565b848454612588565b825550505050565b600090565b612642612635565b61264d818484612610565b505050565b5b818110156126715761266660008261263a565b600181019050612653565b5050565b601f8211156126b65761268781612556565b6126908461256b565b8101602085101561269f578190505b6126b36126ab8561256b565b830182612652565b50505b505050565b600082821c905092915050565b60006126d9600019846008026126bb565b1980831691505092915050565b60006126f283836126c8565b9150826002028217905092915050565b8181036127105750506127e8565b61271982612540565b67ffffffffffffffff81111561273257612731611e06565b5b61273c825461250f565b612747828285612675565b6000601f8311600181146127765760008415612764578287015490505b61276e85826126e6565b8655506127e1565b601f19841661278487612556565b965061278f86612556565b60005b828110156127b757848901548255600182019150600185019450602081019050612792565b868310156127d457848901546127d0601f8916826126c8565b8355505b6001600288020188555050505b5050505050505b565b600081519050919050565b600082825260208201905092915050565b6000612811826127ea565b61281b81856127f5565b935061282b818560208601612031565b61283481611df5565b840191505092915050565b60006080820190506128546000830187611dad565b612861602083018661209e565b81810360408301526128738185612806565b90506128826060830184611dad565b95945050505050565b61289482612015565b67ffffffffffffffff8111156128ad576128ac611e06565b5b6128b7825461250f565b6128c2828285612675565b600060209050601f8311600181146128f557600084156128e3578287015190505b6128ed85826126e6565b865550612955565b601f19841661290386612556565b60005b8281101561292b57848901518255600182019150602085019450602081019050612906565b868310156129485784890151612944601f8916826126c8565b8355505b6001600288020188555050505b505050505050565b7f4e487b7100000000000000000000000000000000000000000000000000000000600052601160045260246000fd5b600061299782612094565b91506129a283612094565b92508282019050808211156129ba576129b961295d565b5b92915050565b6000815190506129cf81612115565b92915050565b6000602082840312156129eb576129ea611de1565b5b60006129f9848285016129c0565b91505092915050565b7f756e6368616e6765642070726963650000000000000000000000000000000000600082015250565b6000612a38600f83612020565b9150612a4382612a02565b602082019050919050565b60006020820190508181036000830152612a6781612a2b565b9050919050565b7f626f6e6473206d61747572656400000000000000000000000000000000000000600082015250565b6000612aa4600d83612020565b9150612aaf82612a6e565b602082019050919050565b60006020820190508181036000830152612ad381612a97565b9050919050565b6000612ae582612094565b9150612af083612094565b9250828203905081811115612b0857612b0761295d565b5b9291505056fea2646970667358221220db13ab9db126025ae74d303e262c769103720cb2233aa9e949f52166811564f364736f6c63430008130033",
  "linkReferences": {},
  "deployedLinkReferences": {}
}