{
  "_format": "hh-sol-artifact-1",
  "contractName": "Investor",
  "sourceName": "contracts/Topos/Bank/Investor.sol",
  "abi": [
    {
      "inputs": [
        {
          "internalType": "address",
          "name": "_toposBankContract",
          "type": "address"
        }
      ],
      "stateMutability": "nonpayable",
      "type": "constructor"
    },
    {
      "anonymous": false,
      "inputs": [
        {
          "indexed": false,
          "internalType": "address",
          "name": "investor",
          "type": "address"
        }
      ],
      "name": "ApproveInvestor",
      "type": "event"
    },
    {
      "anonymous": false,
      "inputs": [
        {
          "indexed": false,
          "internalType": "address",
          "name": "investor",
          "type": "address"
        }
      ],
      "name": "RejectInvestor",
      "type": "event"
    },
    {
      "anonymous": false,
      "inputs": [
        {
          "indexed": false,
          "internalType": "address",
          "name": "investor",
          "type": "address"
        }
      ],
      "name": "RequestInvestorRegistration",
      "type": "event"
    },
    {
      "inputs": [
        {
          "internalType": "address",
          "name": "_investor",
          "type": "address"
        }
      ],
      "name": "approveInvestor",
      "outputs": [],
      "stateMutability": "nonpayable",
      "type": "function"
    },
    {
      "inputs": [
        {
          "internalType": "address",
          "name": "",
          "type": "address"
        }
      ],
      "name": "investorStatus",
      "outputs": [
        {
          "internalType": "enum BondData.StakeHolderStatus",
          "name": "",
          "type": "uint8"
        }
      ],
      "stateMutability": "view",
      "type": "function"
    },
    {
      "inputs": [
        {
          "internalType": "address",
          "name": "",
          "type": "address"
        }
      ],
      "name": "investors",
      "outputs": [
        {
          "internalType": "string",
          "name": "name",
          "type": "string"
        },
        {
          "internalType": "string",
          "name": "country",
          "type": "string"
        },
        {
          "internalType": "string",
          "name": "investorType",
          "type": "string"
        },
        {
          "internalType": "address",
          "name": "walletAddress",
          "type": "address"
        }
      ],
      "stateMutability": "view",
      "type": "function"
    },
    {
      "inputs": [
        {
          "internalType": "address",
          "name": "_investor",
          "type": "address"
        }
      ],
      "name": "rejectInvestor",
      "outputs": [],
      "stateMutability": "nonpayable",
      "type": "function"
    },
    {
      "inputs": [
        {
          "components": [
            {
              "internalType": "string",
              "name": "name",
              "type": "string"
            },
            {
              "internalType": "string",
              "name": "country",
              "type": "string"
            },
            {
              "internalType": "string",
              "name": "investorType",
              "type": "string"
            },
            {
              "internalType": "address",
              "name": "walletAddress",
              "type": "address"
            }
          ],
          "internalType": "struct BondData.Investor",
          "name": "_investor",
          "type": "tuple"
        }
      ],
      "name": "requestRegistrationInvestor",
      "outputs": [],
      "stateMutability": "nonpayable",
      "type": "function"
    },
    {
      "inputs": [],
      "name": "toposBankContract",
      "outputs": [
        {
          "internalType": "address",
          "name": "",
          "type": "address"
        }
      ],
      "stateMutability": "view",
      "type": "function"
    }
  ],
  "bytecode": "0x60806040523480156200001157600080fd5b506040516200186b3803806200186b8339818101604052810190620000379190620000e9565b80600260006101000a81548173ffffffffffffffffffffffffffffffffffffffff021916908373ffffffffffffffffffffffffffffffffffffffff160217905550506200011b565b600080fd5b600073ffffffffffffffffffffffffffffffffffffffff82169050919050565b6000620000b18262000084565b9050919050565b620000c381620000a4565b8114620000cf57600080fd5b50565b600081519050620000e381620000b8565b92915050565b6000602082840312156200010257620001016200007f565b5b60006200011284828501620000d2565b91505092915050565b611740806200012b6000396000f3fe608060405234801561001057600080fd5b50600436106100625760003560e01c80636f7bc9be146100675780637de141291461009a5780639c34712a146100b6578063d304a813146100d4578063d31628a0146100f0578063f936d49d1461010c575b600080fd5b610081600480360381019061007c9190610ca7565b61013c565b6040516100919493929190610d73565b60405180910390f35b6100b460048036038101906100af9190610ca7565b610324565b005b6100be6105ef565b6040516100cb9190610dcd565b60405180910390f35b6100ee60048036038101906100e99190610ca7565b610615565b005b61010a60048036038101906101059190610e0c565b610872565b005b61012660048036038101906101219190610ca7565b610c1f565b6040516101339190610ecc565b60405180910390f35b600060205280600052604060002060009150905080600001805461015f90610f16565b80601f016020809104026020016040519081016040528092919081815260200182805461018b90610f16565b80156101d85780601f106101ad576101008083540402835291602001916101d8565b820191906000526020600020905b8154815290600101906020018083116101bb57829003601f168201915b5050505050908060010180546101ed90610f16565b80601f016020809104026020016040519081016040528092919081815260200182805461021990610f16565b80156102665780601f1061023b57610100808354040283529160200191610266565b820191906000526020600020905b81548152906001019060200180831161024957829003601f168201915b50505050509080600201805461027b90610f16565b80601f01602080910402602001604051908101604052809291908181526020018280546102a790610f16565b80156102f45780601f106102c9576101008083540402835291602001916102f4565b820191906000526020600020905b8154815290600101906020018083116102d757829003601f168201915b5050505050908060030160009054906101000a900473ffffffffffffffffffffffffffffffffffffffff16905084565b600080600260009054906101000a900473ffffffffffffffffffffffffffffffffffffffff1673ffffffffffffffffffffffffffffffffffffffff1663c3a2a93a6040518163ffffffff1660e01b815260040160a060405180830381865afa158015610394573d6000803e3d6000fd5b505050506040513d601f19601f820116820180604052508101906103b89190610f5c565b505050915091508173ffffffffffffffffffffffffffffffffffffffff163373ffffffffffffffffffffffffffffffffffffffff161461042d576040517f08c379a000000000000000000000000000000000000000000000000000000000815260040161042490611023565b60405180910390fd5b6001600381111561044157610440610e55565b5b600160008573ffffffffffffffffffffffffffffffffffffffff1673ffffffffffffffffffffffffffffffffffffffff16815260200190815260200160002060009054906101000a900460ff1660038111156104a05761049f610e55565b5b146104e0576040517f08c379a00000000000000000000000000000000000000000000000000000000081526004016104d79061108f565b60405180910390fd5b6002600160008573ffffffffffffffffffffffffffffffffffffffff1673ffffffffffffffffffffffffffffffffffffffff16815260200190815260200160002060006101000a81548160ff0219169083600381111561054357610542610e55565b5b02179055508073ffffffffffffffffffffffffffffffffffffffff1663cfde1890846040518263ffffffff1660e01b815260040161058191906110fb565b600060405180830381600087803b15801561059b57600080fd5b505af11580156105af573d6000803e3d6000fd5b505050507f45b6e306480b490c59801f6f851ed6d7d4bd880db4c8f75dd1112d2fc0a1c9d7836040516105e29190610dcd565b60405180910390a1505050565b600260009054906101000a900473ffffffffffffffffffffffffffffffffffffffff1681565b6000600260009054906101000a900473ffffffffffffffffffffffffffffffffffffffff1673ffffffffffffffffffffffffffffffffffffffff1663c3a2a93a6040518163ffffffff1660e01b815260040160a060405180830381865afa158015610684573d6000803e3d6000fd5b505050506040513d601f19601f820116820180604052508101906106a89190610f5c565b5050505090508073ffffffffffffffffffffffffffffffffffffffff163373ffffffffffffffffffffffffffffffffffffffff161461071c576040517f08c379a000000000000000000000000000000000000000000000000000000000815260040161071390611023565b60405180910390fd5b600160038111156107305761072f610e55565b5b600160008473ffffffffffffffffffffffffffffffffffffffff1673ffffffffffffffffffffffffffffffffffffffff16815260200190815260200160002060009054906101000a900460ff16600381111561078f5761078e610e55565b5b146107cf576040517f08c379a00000000000000000000000000000000000000000000000000000000081526004016107c69061108f565b60405180910390fd5b6003600160008473ffffffffffffffffffffffffffffffffffffffff1673ffffffffffffffffffffffffffffffffffffffff16815260200190815260200160002060006101000a81548160ff0219169083600381111561083257610831610e55565b5b02179055507f7456ce1c99ee8a1b09f67c52be737a92db545ec137e72de0e1b70bc0c4a12809826040516108669190610dcd565b60405180910390a15050565b8060600160208101906108859190610ca7565b6000600260009054906101000a900473ffffffffffffffffffffffffffffffffffffffff1673ffffffffffffffffffffffffffffffffffffffff1663c3a2a93a6040518163ffffffff1660e01b815260040160a060405180830381865afa1580156108f4573d6000803e3d6000fd5b505050506040513d601f19601f820116820180604052508101906109189190610f5c565b5050925050508073ffffffffffffffffffffffffffffffffffffffff1663b9209e33836040518263ffffffff1660e01b81526004016109579190610dcd565b602060405180830381865afa158015610974573d6000803e3d6000fd5b505050506040513d601f19601f820116820180604052508101906109989190611161565b6109d7576040517f08c379a00000000000000000000000000000000000000000000000000000000081526004016109ce906111da565b60405180910390fd5b8260600160208101906109ea9190610ca7565b73ffffffffffffffffffffffffffffffffffffffff163373ffffffffffffffffffffffffffffffffffffffff1614610a57576040517f08c379a0000000000000000000000000000000000000000000000000000000008152600401610a4e90611246565b60405180910390fd5b60006003811115610a6b57610a6a610e55565b5b600160003373ffffffffffffffffffffffffffffffffffffffff1673ffffffffffffffffffffffffffffffffffffffff16815260200190815260200160002060009054906101000a900460ff166003811115610aca57610ac9610e55565b5b14610b0a576040517f08c379a0000000000000000000000000000000000000000000000000000000008152600401610b019061108f565b60405180910390fd5b82600080856060016020810190610b219190610ca7565b73ffffffffffffffffffffffffffffffffffffffff1673ffffffffffffffffffffffffffffffffffffffff1681526020019081526020016000208181610b6791906116fc565b90505060018060003373ffffffffffffffffffffffffffffffffffffffff1673ffffffffffffffffffffffffffffffffffffffff16815260200190815260200160002060006101000a81548160ff02191690836003811115610bcc57610bcb610e55565b5b02179055507fe42136ccc1d423b080e7fa005aa542f4bc344c1e5420e3c313fbe9ce0077ad54836060016020810190610c059190610ca7565b604051610c129190610dcd565b60405180910390a1505050565b60016020528060005260406000206000915054906101000a900460ff1681565b600080fd5b600080fd5b600073ffffffffffffffffffffffffffffffffffffffff82169050919050565b6000610c7482610c49565b9050919050565b610c8481610c69565b8114610c8f57600080fd5b50565b600081359050610ca181610c7b565b92915050565b600060208284031215610cbd57610cbc610c3f565b5b6000610ccb84828501610c92565b91505092915050565b600081519050919050565b600082825260208201905092915050565b60005b83811015610d0e578082015181840152602081019050610cf3565b60008484015250505050565b6000601f19601f8301169050919050565b6000610d3682610cd4565b610d408185610cdf565b9350610d50818560208601610cf0565b610d5981610d1a565b840191505092915050565b610d6d81610c69565b82525050565b60006080820190508181036000830152610d8d8187610d2b565b90508181036020830152610da18186610d2b565b90508181036040830152610db58185610d2b565b9050610dc46060830184610d64565b95945050505050565b6000602082019050610de26000830184610d64565b92915050565b600080fd5b600060808284031215610e0357610e02610de8565b5b81905092915050565b600060208284031215610e2257610e21610c3f565b5b600082013567ffffffffffffffff811115610e4057610e3f610c44565b5b610e4c84828501610ded565b91505092915050565b7f4e487b7100000000000000000000000000000000000000000000000000000000600052602160045260246000fd5b60048110610e9557610e94610e55565b5b50565b6000819050610ea682610e84565b919050565b6000610eb682610e98565b9050919050565b610ec681610eab565b82525050565b6000602082019050610ee16000830184610ebd565b92915050565b7f4e487b7100000000000000000000000000000000000000000000000000000000600052602260045260246000fd5b60006002820490506001821680610f2e57607f821691505b602082108103610f4157610f40610ee7565b5b50919050565b600081519050610f5681610c7b565b92915050565b600080600080600060a08688031215610f7857610f77610c3f565b5b6000610f8688828901610f47565b9550506020610f9788828901610f47565b9450506040610fa888828901610f47565b9350506060610fb988828901610f47565b9250506080610fca88828901610f47565b9150509295509295909350565b7f4f4e4c595f544f504f535f4d414e414745520000000000000000000000000000600082015250565b600061100d601283610cdf565b915061101882610fd7565b602082019050919050565b6000602082019050818103600083015261103c81611000565b9050919050565b7f434845434b5f594f55525f535441545553000000000000000000000000000000600082015250565b6000611079601183610cdf565b915061108482611043565b602082019050919050565b600060208201905081810360008301526110a88161106c565b9050919050565b7f494e564553544f52000000000000000000000000000000000000000000000000600082015250565b60006110e5600883610cdf565b91506110f0826110af565b602082019050919050565b60006040820190508181036000830152611114816110d8565b90506111236020830184610d64565b92915050565b60008115159050919050565b61113e81611129565b811461114957600080fd5b50565b60008151905061115b81611135565b92915050565b60006020828403121561117757611176610c3f565b5b60006111858482850161114c565b91505092915050565b7f4143434f554e545f4e4f545f414150524f564544000000000000000000000000600082015250565b60006111c4601483610cdf565b91506111cf8261118e565b602082019050919050565b600060208201905081810360008301526111f3816111b7565b9050919050565b7f494e56414c49445f414444524553530000000000000000000000000000000000600082015250565b6000611230600f83610cdf565b915061123b826111fa565b602082019050919050565b6000602082019050818103600083015261125f81611223565b9050919050565b600080fd5b600080fd5b600080fd5b6000808335600160200384360303811261129257611291611266565b5b80840192508235915067ffffffffffffffff8211156112b4576112b361126b565b5b6020830192506001820236038313156112d0576112cf611270565b5b509250929050565b600082905092915050565b7f4e487b7100000000000000000000000000000000000000000000000000000000600052604160045260246000fd5b60008190508160005260206000209050919050565b60006020601f8301049050919050565b600082821b905092915050565b6000600883026113747fffffffffffffffffffffffffffffffffffffffffffffffffffffffffffffffff82611337565b61137e8683611337565b95508019841693508086168417925050509392505050565b6000819050919050565b6000819050919050565b60006113c56113c06113bb84611396565b6113a0565b611396565b9050919050565b6000819050919050565b6113df836113aa565b6113f36113eb826113cc565b848454611344565b825550505050565b600090565b6114086113fb565b6114138184846113d6565b505050565b5b818110156114375761142c600082611400565b600181019050611419565b5050565b601f82111561147c5761144d81611312565b61145684611327565b81016020851015611465578190505b61147961147185611327565b830182611418565b50505b505050565b600082821c905092915050565b600061149f60001984600802611481565b1980831691505092915050565b60006114b8838361148e565b9150826002028217905092915050565b6114d283836112d8565b67ffffffffffffffff8111156114eb576114ea6112e3565b5b6114f58254610f16565b61150082828561143b565b6000601f83116001811461152f576000841561151d578287013590505b61152785826114ac565b86555061158f565b601f19841661153d86611312565b60005b8281101561156557848901358255600182019150602085019450602081019050611540565b86831015611582578489013561157e601f89168261148e565b8355505b6001600288020188555050505b50505050505050565b6115a38383836114c8565b505050565b600081356115b581610c7b565b80915050919050565b60008160001b9050919050565b600073ffffffffffffffffffffffffffffffffffffffff6115eb846115be565b9350801983169250808416831791505092915050565b600061161c61161761161284610c49565b6113a0565b610c49565b9050919050565b600061162e82611601565b9050919050565b600061164082611623565b9050919050565b6000819050919050565b61165a82611635565b61166d61166682611647565b83546115cb565b8255505050565b60008101600083016116868185611275565b611691818386611598565b5050505060018101602083016116a78185611275565b6116b2818386611598565b5050505060028101604083016116c88185611275565b6116d3818386611598565b505050506003810160608301806116e9816115a8565b90506116f58184611651565b5050505050565b6117068282611674565b505056fea2646970667358221220bf515458408db3eda5e7e3890e4ca943cf7ecaa1b980729dc8b611389004173464736f6c63430008130033",
  "linkReferences": {},
  "deployedLinkReferences": {}
}