{
  "_format": "hh-sol-artifact-1",
  "contractName": "Investor",
  "sourceName": "contracts/Topos/Bank/Investor.sol",
  "abi": [
    {
      "inputs": [
        {
          "internalType": "address",
          "name": "_toposBankContract",
          "type": "address"
        }
      ],
      "stateMutability": "nonpayable",
      "type": "constructor"
    },
    {
      "anonymous": false,
      "inputs": [
        {
          "indexed": false,
          "internalType": "address",
          "name": "investor",
          "type": "address"
        }
      ],
      "name": "ApproveInvestor",
      "type": "event"
    },
    {
      "anonymous": false,
      "inputs": [
        {
          "indexed": false,
          "internalType": "address",
          "name": "investor",
          "type": "address"
        }
      ],
      "name": "RejectInvestor",
      "type": "event"
    },
    {
      "anonymous": false,
      "inputs": [
        {
          "indexed": false,
          "internalType": "address",
          "name": "investor",
          "type": "address"
        }
      ],
      "name": "RequestInvestorRegistration",
      "type": "event"
    },
    {
      "inputs": [
        {
          "internalType": "address",
          "name": "_investorAddress",
          "type": "address"
        }
      ],
      "name": "approveInvestor",
      "outputs": [],
      "stateMutability": "nonpayable",
      "type": "function"
    },
    {
      "inputs": [],
      "name": "getInvestors",
      "outputs": [
        {
          "components": [
            {
              "internalType": "string",
              "name": "name",
              "type": "string"
            },
            {
              "internalType": "string",
              "name": "country",
              "type": "string"
            },
            {
              "internalType": "string",
              "name": "investorType",
              "type": "string"
            },
            {
              "internalType": "address",
              "name": "walletAddress",
              "type": "address"
            },
            {
              "internalType": "enum BondData.StakeHolderStatus",
              "name": "status",
              "type": "uint8"
            },
            {
              "internalType": "uint256",
              "name": "index",
              "type": "uint256"
            }
          ],
          "internalType": "struct BondData.Investor[]",
          "name": "",
          "type": "tuple[]"
        }
      ],
      "stateMutability": "view",
      "type": "function"
    },
    {
      "inputs": [
        {
          "internalType": "address",
          "name": "",
          "type": "address"
        }
      ],
      "name": "investors",
      "outputs": [
        {
          "internalType": "string",
          "name": "name",
          "type": "string"
        },
        {
          "internalType": "string",
          "name": "country",
          "type": "string"
        },
        {
          "internalType": "string",
          "name": "investorType",
          "type": "string"
        },
        {
          "internalType": "address",
          "name": "walletAddress",
          "type": "address"
        },
        {
          "internalType": "enum BondData.StakeHolderStatus",
          "name": "status",
          "type": "uint8"
        },
        {
          "internalType": "uint256",
          "name": "index",
          "type": "uint256"
        }
      ],
      "stateMutability": "view",
      "type": "function"
    },
    {
      "inputs": [
        {
          "internalType": "address",
          "name": "_investorAddress",
          "type": "address"
        }
      ],
      "name": "rejectInvestor",
      "outputs": [],
      "stateMutability": "nonpayable",
      "type": "function"
    },
    {
      "inputs": [
        {
          "components": [
            {
              "internalType": "string",
              "name": "name",
              "type": "string"
            },
            {
              "internalType": "string",
              "name": "country",
              "type": "string"
            },
            {
              "internalType": "string",
              "name": "investorType",
              "type": "string"
            },
            {
              "internalType": "address",
              "name": "walletAddress",
              "type": "address"
            },
            {
              "internalType": "enum BondData.StakeHolderStatus",
              "name": "status",
              "type": "uint8"
            },
            {
              "internalType": "uint256",
              "name": "index",
              "type": "uint256"
            }
          ],
          "internalType": "struct BondData.Investor",
          "name": "_investor",
          "type": "tuple"
        }
      ],
      "name": "requestRegistrationInvestor",
      "outputs": [],
      "stateMutability": "nonpayable",
      "type": "function"
    },
    {
      "inputs": [],
      "name": "toposBankContract",
      "outputs": [
        {
          "internalType": "address",
          "name": "",
          "type": "address"
        }
      ],
      "stateMutability": "view",
      "type": "function"
    }
  ],
  "bytecode": "0x60803461007457601f61126138819003918201601f19168301916001600160401b038311848410176100795780849260209460405283398101031261007457516001600160a01b0381169081900361007457600180546001600160a01b0319169190911790556040516111d190816100908239f35b600080fd5b634e487b7160e01b600052604160045260246000fdfe608080604052600436101561001357600080fd5b600090813560e01c9081633d2be8f91461061d575080636f7bc9be1461055e5780637de14129146103515780639c34712a1461032a578063b2f5a54c146101bf5763d304a8131461006357600080fd5b346101bc5760203660031901126101bc576004356001600160a01b038082168092036101b85781835282602052600461009e604085206110ce565b9160a08160015416604051938480926361d1549d60e11b82525afa80156101ad576100d392869161017b575b50163314611150565b60808101516004811015610167579160209161011260017f7456ce1c99ee8a1b09f67c52be737a92db545ec137e72de0e1b70bc0c4a128099514610e9e565b8185528483526003604086200190600361015460a0740300000000000000000000000000000000000000009360ff60a01b199585878254161790550151610fa4565b500191825416179055604051908152a180f35b602484634e487b7160e01b81526021600452fd5b61019c915060a03d81116101a6575b6101948183610ce6565b810190610e54565b50505050386100ca565b503d61018a565b6040513d87823e3d90fd5b8280fd5b80fd5b50346101bc57806003193601126101bc576002549067ffffffffffffffff821161031657604051916020916005936101fb8484871b0182610ce6565b8281526002825283810192827f405787fa12a823e0f2b7631cc41b3ba8828b3321ca811111fa75cd3aa3bb5ace87865b8484106102f0575050505050604051938085019181865251809252604082818701971b8601019392955b8287106102625785850386f35b909192938280600192603f198982030185528751906102b161029f61028f845160c0808652850190610dc4565b8585015184820387860152610dc4565b60408401518382036040850152610dc4565b9160606001600160a01b038183015116908301526102d760808083015190840190610e04565b60a0809101519101529601920196019592919092610255565b9088600192610302859b98999b6110ce565b81520192019201919088909795949761022b565b80634e487b7160e01b602492526041600452fd5b50346101bc57806003193601126101bc5760206001600160a01b0360015416604051908152f35b50346101bc5760203660031901126101bc57600435906001600160a01b038083168093036105135782825281602052600461038e604084206110ce565b60a08360015416604051938480926361d1549d60e11b82525afa9182156105535783908590869461052b575b50906103c891163314611150565b608081015160048110156105175760016103e29114610e9e565b848452836020526003604085200190600361042560a0740200000000000000000000000000000000000000009360ff60a01b199585878254161790550151610fa4565b50019182541617905516803b15610513578180916084604051809481937fcfde189000000000000000000000000000000000000000000000000000000000835260406004840152600860448401527f494e564553544f5200000000000000000000000000000000000000000000000060648401528860248401525af18015610508576104db575b507f45b6e306480b490c59801f6f851ed6d7d4bd880db4c8f75dd1112d2fc0a1c9d7602083604051908152a180f35b67ffffffffffffffff81116104f45760405260206104ac565b602482634e487b7160e01b81526041600452fd5b6040513d84823e3d90fd5b5080fd5b602485634e487b7160e01b81526021600452fd5b6103c8929450610549915060a03d81116101a6576101948183610ce6565b50505093916103ba565b6040513d86823e3d90fd5b50346101bc5760203660031901126101bc576004356001600160a01b03908181168091036101b857826040916105e0945280602052209061059e82610d1e565b916106146105ae60018301610d1e565b916105fc6105be60028301610d1e565b6105ee6004600385015494015495604051998a9960c08b5260c08b0190610dc4565b9089820360208b0152610dc4565b908782036040890152610dc4565b938116606086015260ff608086019160a01c16610e04565b60a08301520390f35b905034610513576003196020368201126101b85767ffffffffffffffff600435116101b85760c090600435360301126105135761065e606460043501610e27565b60a0826004816001600160a01b03600154166361d1549d60e11b82525afa918215610ca1578392610c6d575b506001600160a01b0360246020928260405195869485937fb9209e33000000000000000000000000000000000000000000000000000000008552166004840152165afa908115610508578291610c32575b5015610bee576106ef606460043501610e27565b6001600160a01b03610705606460043501610e27565b163303610baa576001600160a01b03811682528160205260ff600360408420015460a01c166004811015610b965761073d9015610e9e565b6001600160a01b0381168252602082905260408220610760600480350180610ee9565b9067ffffffffffffffff8211610a9a578190610786826107808654610cac565b86610f1c565b8590601f8311600114610b30578692610b25575b50508160011b916000199060031b1c19161781555b6107c3602460043501600435600401610ee9565b9067ffffffffffffffff8211610a9a5781906107ef826107e66001870154610cac565b60018701610f1c565b8590601f8311600114610ab9578692610aae575b50508160011b916000199060031b1c19161760018201555b61082f604460043501600435600401610ee9565b67ffffffffffffffff8111610a9a57806002840192610852826107808654610cac565b8690601f8311600114610a34578792610a29575b50508160011b916000199060031b1c19161790555b60038101906001600160a01b03610896606460043501610e27565b16917fffffffffffffffffffffffff00000000000000000000000000000000000000009283825416178155608460043501356004811015610a25576108da91610f70565b600460a4813501359101556001600160a01b03821683528260205260408320600381017401000000000000000000000000000000000000000060ff60a01b1982541617815560025490600483019180835568010000000000000000811015610a115780600161094c9201600255610fa4565b9490946109fe5791839185937fe42136ccc1d423b080e7fa005aa542f4bc344c1e5420e3c313fbe9ce0077ad5497956020970361099c575b50505050506001600160a01b0360405191168152a180f35b60ff6109f0926109ce6002876109b46004998b610ff5565b6109c46001820160018c01610ff5565b0160028901610ff5565b60038701926001600160a01b03825416908454161783555460a01c1690610f70565b549101553880808080610984565b602487634e487b7160e01b815280600452fd5b602487634e487b7160e01b81526041600452fd5b8580fd5b013590503880610866565b84885260208820889450915b601f1984168510610a82576001945083601f19811610610a68575b505050811b01905561087b565b0135600019600384901b60f8161c19169055388080610a5b565b81810135835560209485019460019093019201610a40565b602485634e487b7160e01b81526041600452fd5b013590503880610803565b60018501875260208720879450915b601f1984168510610b0d576001945083601f19811610610af3575b505050811b01600182015561081b565b0135600019600384901b60f8161c19169055388080610ae3565b81810135835560209485019460019093019201610ac8565b01359050388061079a565b84875260208720879450915b601f1984168510610b7e576001945083601f19811610610b64575b505050811b0181556107af565b0135600019600384901b60f8161c19169055388080610b57565b81810135835560209485019460019093019201610b3c565b602483634e487b7160e01b81526021600452fd5b606460405162461bcd60e51b815260206004820152600f60248201527f494e56414c49445f4144445245535300000000000000000000000000000000006044820152fd5b606460405162461bcd60e51b815260206004820152601460248201527f4143434f554e545f4e4f545f414150524f5645440000000000000000000000006044820152fd5b90506020813d602011610c65575b81610c4d60209383610ce6565b810103126105135751801515810361051357386106db565b3d9150610c40565b60209192506024610c936001600160a01b039260a03d81116101a6576101948183610ce6565b50509150509392505061068a565b6040513d85823e3d90fd5b90600182811c92168015610cdc575b6020831014610cc657565b634e487b7160e01b600052602260045260246000fd5b91607f1691610cbb565b90601f8019910116810190811067ffffffffffffffff821117610d0857604052565b634e487b7160e01b600052604160045260246000fd5b9060405191826000825492610d3284610cac565b908184526001948581169081600014610da15750600114610d5e575b5050610d5c92500383610ce6565b565b9093915060005260209081600020936000915b818310610d89575050610d5c93508201013880610d4e565b85548884018501529485019487945091830191610d71565b915050610d5c94506020925060ff191682840152151560051b8201013880610d4e565b919082519283825260005b848110610df0575050826000602080949584010152601f8019910116010190565b602081830181015184830182015201610dcf565b906004821015610e115752565b634e487b7160e01b600052602160045260246000fd5b356001600160a01b0381168103610e3b5790565b600080fd5b51906001600160a01b0382168203610e3b57565b908160a0910312610e3b57610e6881610e40565b91610e7560208301610e40565b91610e8260408201610e40565b91610e9b6080610e9460608501610e40565b9301610e40565b90565b15610ea557565b606460405162461bcd60e51b815260206004820152601160248201527f434845434b5f594f55525f5354415455530000000000000000000000000000006044820152fd5b903590601e1981360301821215610e3b570180359067ffffffffffffffff8211610e3b57602001918136038313610e3b57565b90601f8111610f2a57505050565b600091825260208220906020601f850160051c83019410610f66575b601f0160051c01915b828110610f5b57505050565b818155600101610f4f565b9092508290610f46565b906004811015610e115760ff60a01b1974ff000000000000000000000000000000000000000083549260a01b169116179055565b600254811015610fdf576005906002600052027f405787fa12a823e0f2b7631cc41b3ba8828b3321ca811111fa75cd3aa3bb5ace0190600090565b634e487b7160e01b600052603260045260246000fd5b908082146110ca576110078154610cac565b9067ffffffffffffffff8211610d08578190611027826107808654610cac565b600090601f831160011461105e57600092611053575b50508160011b916000199060031b1c1916179055565b01549050388061103d565b81526020808220858352818320935090601f1985169083905b8282106110b1575050908460019594939210611098575b505050811b019055565b015460001960f88460031b161c1916905538808061108e565b8495819295850154815560018091019601940190611077565b5050565b9060405160c0810181811067ffffffffffffffff821117610d085760405280926110f781610d1e565b825261110560018201610d1e565b602083015261111660028201610d1e565b604083015260ff60038201546001600160a01b038116606085015260a01c166004811015610e115760a09160049160808501520154910152565b1561115757565b606460405162461bcd60e51b815260206004820152601260248201527f4f4e4c595f544f504f535f4d414e4147455200000000000000000000000000006044820152fdfea26469706673582212201ca351fd66ee096b5ed8d7cbbafbea745356f24e724d175eb14f374a3b1111c664736f6c63430008130033",
  "linkReferences": {},
  "deployedLinkReferences": {}
}