{
  "_format": "hh-sol-artifact-1",
  "contractName": "Issuer",
  "sourceName": "contracts/Topos/Bank/Issuer.sol",
  "abi": [
    {
      "inputs": [
        {
          "internalType": "address",
          "name": "_toposBankContract",
          "type": "address"
        }
      ],
      "stateMutability": "nonpayable",
      "type": "constructor"
    },
    {
      "anonymous": false,
      "inputs": [
        {
          "indexed": false,
          "internalType": "address",
          "name": "issuer",
          "type": "address"
        }
      ],
      "name": "ApproveIssuer",
      "type": "event"
    },
    {
      "anonymous": false,
      "inputs": [
        {
          "indexed": false,
          "internalType": "address",
          "name": "issuer",
          "type": "address"
        }
      ],
      "name": "RejectIssuer",
      "type": "event"
    },
    {
      "anonymous": false,
      "inputs": [
        {
          "indexed": false,
          "internalType": "address",
          "name": "issuer",
          "type": "address"
        }
      ],
      "name": "RequestIssuerRegistration",
      "type": "event"
    },
    {
      "inputs": [
        {
          "internalType": "address",
          "name": "_issuer",
          "type": "address"
        }
      ],
      "name": "approveIssuer",
      "outputs": [],
      "stateMutability": "nonpayable",
      "type": "function"
    },
    {
      "inputs": [
        {
          "internalType": "address",
          "name": "",
          "type": "address"
        }
      ],
      "name": "issuerStatus",
      "outputs": [
        {
          "internalType": "enum BondData.StakeHolderStatus",
          "name": "",
          "type": "uint8"
        }
      ],
      "stateMutability": "view",
      "type": "function"
    },
    {
      "inputs": [
        {
          "internalType": "address",
          "name": "",
          "type": "address"
        }
      ],
      "name": "issuers",
      "outputs": [
        {
          "internalType": "string",
          "name": "documentURI",
          "type": "string"
        },
        {
          "internalType": "string",
          "name": "name",
          "type": "string"
        },
        {
          "internalType": "string",
          "name": "country",
          "type": "string"
        },
        {
          "internalType": "string",
          "name": "issuerType",
          "type": "string"
        },
        {
          "internalType": "string",
          "name": "creditRating",
          "type": "string"
        },
        {
          "internalType": "uint256",
          "name": "carbonCredit",
          "type": "uint256"
        },
        {
          "internalType": "address",
          "name": "walletAddress",
          "type": "address"
        }
      ],
      "stateMutability": "view",
      "type": "function"
    },
    {
      "inputs": [
        {
          "internalType": "address",
          "name": "_issuer",
          "type": "address"
        }
      ],
      "name": "rejectIssuer",
      "outputs": [],
      "stateMutability": "nonpayable",
      "type": "function"
    },
    {
      "inputs": [
        {
          "components": [
            {
              "internalType": "string",
              "name": "documentURI",
              "type": "string"
            },
            {
              "internalType": "string",
              "name": "name",
              "type": "string"
            },
            {
              "internalType": "string",
              "name": "country",
              "type": "string"
            },
            {
              "internalType": "string",
              "name": "issuerType",
              "type": "string"
            },
            {
              "internalType": "string",
              "name": "creditRating",
              "type": "string"
            },
            {
              "internalType": "uint256",
              "name": "carbonCredit",
              "type": "uint256"
            },
            {
              "internalType": "address",
              "name": "walletAddress",
              "type": "address"
            }
          ],
          "internalType": "struct BondData.Issuer",
          "name": "_issuer",
          "type": "tuple"
        }
      ],
      "name": "requestRegistrationIssuer",
      "outputs": [],
      "stateMutability": "nonpayable",
      "type": "function"
    },
    {
      "inputs": [],
      "name": "toposBankContract",
      "outputs": [
        {
          "internalType": "address",
          "name": "",
          "type": "address"
        }
      ],
      "stateMutability": "view",
      "type": "function"
    }
  ],
  "bytecode": "0x60806040523480156200001157600080fd5b5060405162001acc38038062001acc8339818101604052810190620000379190620000e9565b80600260006101000a81548173ffffffffffffffffffffffffffffffffffffffff021916908373ffffffffffffffffffffffffffffffffffffffff160217905550506200011b565b600080fd5b600073ffffffffffffffffffffffffffffffffffffffff82169050919050565b6000620000b18262000084565b9050919050565b620000c381620000a4565b8114620000cf57600080fd5b50565b600081519050620000e381620000b8565b92915050565b6000602082840312156200010257620001016200007f565b5b60006200011284828501620000d2565b91505092915050565b6119a1806200012b6000396000f3fe608060405234801561001057600080fd5b50600436106100625760003560e01c806338a7543e146100675780633dc349be1461009d57806382deb86e146100b95780639c34712a146100d5578063c88efe65146100f3578063fcbb3c181461010f575b600080fd5b610081600480360381019061007c9190610dcc565b61013f565b6040516100949796959493929190610eb1565b60405180910390f35b6100b760048036038101906100b29190610f67565b610449565b005b6100d360048036038101906100ce9190610dcc565b6107f6565b005b6100dd610ac1565b6040516100ea9190610fb0565b60405180910390f35b61010d60048036038101906101089190610dcc565b610ae7565b005b61012960048036038101906101249190610dcc565b610d44565b6040516101369190611042565b60405180910390f35b60006020528060005260406000206000915090508060000180546101629061108c565b80601f016020809104026020016040519081016040528092919081815260200182805461018e9061108c565b80156101db5780601f106101b0576101008083540402835291602001916101db565b820191906000526020600020905b8154815290600101906020018083116101be57829003601f168201915b5050505050908060010180546101f09061108c565b80601f016020809104026020016040519081016040528092919081815260200182805461021c9061108c565b80156102695780601f1061023e57610100808354040283529160200191610269565b820191906000526020600020905b81548152906001019060200180831161024c57829003601f168201915b50505050509080600201805461027e9061108c565b80601f01602080910402602001604051908101604052809291908181526020018280546102aa9061108c565b80156102f75780601f106102cc576101008083540402835291602001916102f7565b820191906000526020600020905b8154815290600101906020018083116102da57829003601f168201915b50505050509080600301805461030c9061108c565b80601f01602080910402602001604051908101604052809291908181526020018280546103389061108c565b80156103855780601f1061035a57610100808354040283529160200191610385565b820191906000526020600020905b81548152906001019060200180831161036857829003601f168201915b50505050509080600401805461039a9061108c565b80601f01602080910402602001604051908101604052809291908181526020018280546103c69061108c565b80156104135780601f106103e857610100808354040283529160200191610413565b820191906000526020600020905b8154815290600101906020018083116103f657829003601f168201915b5050505050908060050154908060060160009054906101000a900473ffffffffffffffffffffffffffffffffffffffff16905087565b8060c001602081019061045c9190610dcc565b6000600260009054906101000a900473ffffffffffffffffffffffffffffffffffffffff1673ffffffffffffffffffffffffffffffffffffffff1663c3a2a93a6040518163ffffffff1660e01b815260040160a060405180830381865afa1580156104cb573d6000803e3d6000fd5b505050506040513d601f19601f820116820180604052508101906104ef91906110d2565b5050925050508073ffffffffffffffffffffffffffffffffffffffff1663b9209e33836040518263ffffffff1660e01b815260040161052e9190610fb0565b602060405180830381865afa15801561054b573d6000803e3d6000fd5b505050506040513d601f19601f8201168201806040525081019061056f9190611185565b6105ae576040517f08c379a00000000000000000000000000000000000000000000000000000000081526004016105a5906111fe565b60405180910390fd5b8260c00160208101906105c19190610dcc565b73ffffffffffffffffffffffffffffffffffffffff163373ffffffffffffffffffffffffffffffffffffffff161461062e576040517f08c379a00000000000000000000000000000000000000000000000000000000081526004016106259061126a565b60405180910390fd5b6000600381111561064257610641610fcb565b5b600160003373ffffffffffffffffffffffffffffffffffffffff1673ffffffffffffffffffffffffffffffffffffffff16815260200190815260200160002060009054906101000a900460ff1660038111156106a1576106a0610fcb565b5b146106e1576040517f08c379a00000000000000000000000000000000000000000000000000000000081526004016106d8906112d6565b60405180910390fd5b826000808560c00160208101906106f89190610dcc565b73ffffffffffffffffffffffffffffffffffffffff1673ffffffffffffffffffffffffffffffffffffffff168152602001908152602001600020818161073e9190611877565b90505060018060003373ffffffffffffffffffffffffffffffffffffffff1673ffffffffffffffffffffffffffffffffffffffff16815260200190815260200160002060006101000a81548160ff021916908360038111156107a3576107a2610fcb565b5b02179055507f0a0028275fa37d11ea8d5d29fd14fd8aa6c52af0e0cf819b89ca2cd9193f11858360c00160208101906107dc9190610dcc565b6040516107e99190610fb0565b60405180910390a1505050565b600080600260009054906101000a900473ffffffffffffffffffffffffffffffffffffffff1673ffffffffffffffffffffffffffffffffffffffff1663c3a2a93a6040518163ffffffff1660e01b815260040160a060405180830381865afa158015610866573d6000803e3d6000fd5b505050506040513d601f19601f8201168201806040525081019061088a91906110d2565b505050915091508173ffffffffffffffffffffffffffffffffffffffff163373ffffffffffffffffffffffffffffffffffffffff16146108ff576040517f08c379a00000000000000000000000000000000000000000000000000000000081526004016108f6906118d1565b60405180910390fd5b6001600381111561091357610912610fcb565b5b600160008573ffffffffffffffffffffffffffffffffffffffff1673ffffffffffffffffffffffffffffffffffffffff16815260200190815260200160002060009054906101000a900460ff16600381111561097257610971610fcb565b5b146109b2576040517f08c379a00000000000000000000000000000000000000000000000000000000081526004016109a9906112d6565b60405180910390fd5b6002600160008573ffffffffffffffffffffffffffffffffffffffff1673ffffffffffffffffffffffffffffffffffffffff16815260200190815260200160002060006101000a81548160ff02191690836003811115610a1557610a14610fcb565b5b02179055508073ffffffffffffffffffffffffffffffffffffffff1663cfde1890846040518263ffffffff1660e01b8152600401610a53919061193d565b600060405180830381600087803b158015610a6d57600080fd5b505af1158015610a81573d6000803e3d6000fd5b505050507f0e387c88130575bf91cadf15934854a1ed11d5c16d63f1106b6fd6e139d1202e83604051610ab49190610fb0565b60405180910390a1505050565b600260009054906101000a900473ffffffffffffffffffffffffffffffffffffffff1681565b6000600260009054906101000a900473ffffffffffffffffffffffffffffffffffffffff1673ffffffffffffffffffffffffffffffffffffffff1663c3a2a93a6040518163ffffffff1660e01b815260040160a060405180830381865afa158015610b56573d6000803e3d6000fd5b505050506040513d601f19601f82011682018060405250810190610b7a91906110d2565b5050505090508073ffffffffffffffffffffffffffffffffffffffff163373ffffffffffffffffffffffffffffffffffffffff1614610bee576040517f08c379a0000000000000000000000000000000000000000000000000000000008152600401610be5906118d1565b60405180910390fd5b60016003811115610c0257610c01610fcb565b5b600160008473ffffffffffffffffffffffffffffffffffffffff1673ffffffffffffffffffffffffffffffffffffffff16815260200190815260200160002060009054906101000a900460ff166003811115610c6157610c60610fcb565b5b14610ca1576040517f08c379a0000000000000000000000000000000000000000000000000000000008152600401610c98906112d6565b60405180910390fd5b6003600160008473ffffffffffffffffffffffffffffffffffffffff1673ffffffffffffffffffffffffffffffffffffffff16815260200190815260200160002060006101000a81548160ff02191690836003811115610d0457610d03610fcb565b5b02179055507fe341ab2ef130ae159f5f54c8be96a79ffe8f98948aa6d0e1bdeb60e6201ada2a82604051610d389190610fb0565b60405180910390a15050565b60016020528060005260406000206000915054906101000a900460ff1681565b600080fd5b600080fd5b600073ffffffffffffffffffffffffffffffffffffffff82169050919050565b6000610d9982610d6e565b9050919050565b610da981610d8e565b8114610db457600080fd5b50565b600081359050610dc681610da0565b92915050565b600060208284031215610de257610de1610d64565b5b6000610df084828501610db7565b91505092915050565b600081519050919050565b600082825260208201905092915050565b60005b83811015610e33578082015181840152602081019050610e18565b60008484015250505050565b6000601f19601f8301169050919050565b6000610e5b82610df9565b610e658185610e04565b9350610e75818560208601610e15565b610e7e81610e3f565b840191505092915050565b6000819050919050565b610e9c81610e89565b82525050565b610eab81610d8e565b82525050565b600060e0820190508181036000830152610ecb818a610e50565b90508181036020830152610edf8189610e50565b90508181036040830152610ef38188610e50565b90508181036060830152610f078187610e50565b90508181036080830152610f1b8186610e50565b9050610f2a60a0830185610e93565b610f3760c0830184610ea2565b98975050505050505050565b600080fd5b600060e08284031215610f5e57610f5d610f43565b5b81905092915050565b600060208284031215610f7d57610f7c610d64565b5b600082013567ffffffffffffffff811115610f9b57610f9a610d69565b5b610fa784828501610f48565b91505092915050565b6000602082019050610fc56000830184610ea2565b92915050565b7f4e487b7100000000000000000000000000000000000000000000000000000000600052602160045260246000fd5b6004811061100b5761100a610fcb565b5b50565b600081905061101c82610ffa565b919050565b600061102c8261100e565b9050919050565b61103c81611021565b82525050565b60006020820190506110576000830184611033565b92915050565b7f4e487b7100000000000000000000000000000000000000000000000000000000600052602260045260246000fd5b600060028204905060018216806110a457607f821691505b6020821081036110b7576110b661105d565b5b50919050565b6000815190506110cc81610da0565b92915050565b600080600080600060a086880312156110ee576110ed610d64565b5b60006110fc888289016110bd565b955050602061110d888289016110bd565b945050604061111e888289016110bd565b935050606061112f888289016110bd565b9250506080611140888289016110bd565b9150509295509295909350565b60008115159050919050565b6111628161114d565b811461116d57600080fd5b50565b60008151905061117f81611159565b92915050565b60006020828403121561119b5761119a610d64565b5b60006111a984828501611170565b91505092915050565b7f4143434f554e545f4e4f545f414150524f564544000000000000000000000000600082015250565b60006111e8601483610e04565b91506111f3826111b2565b602082019050919050565b60006020820190508181036000830152611217816111db565b9050919050565b7f494e56414c49445f414444524553530000000000000000000000000000000000600082015250565b6000611254600f83610e04565b915061125f8261121e565b602082019050919050565b6000602082019050818103600083015261128381611247565b9050919050565b7f434845434b5f594f55525f535441545553000000000000000000000000000000600082015250565b60006112c0601183610e04565b91506112cb8261128a565b602082019050919050565b600060208201905081810360008301526112ef816112b3565b9050919050565b600080fd5b600080fd5b600080fd5b60008083356001602003843603038112611322576113216112f6565b5b80840192508235915067ffffffffffffffff821115611344576113436112fb565b5b6020830192506001820236038313156113605761135f611300565b5b509250929050565b600082905092915050565b7f4e487b7100000000000000000000000000000000000000000000000000000000600052604160045260246000fd5b60008190508160005260206000209050919050565b60006020601f8301049050919050565b600082821b905092915050565b6000600883026114047fffffffffffffffffffffffffffffffffffffffffffffffffffffffffffffffff826113c7565b61140e86836113c7565b95508019841693508086168417925050509392505050565b6000819050919050565b600061144b61144661144184610e89565b611426565b610e89565b9050919050565b6000819050919050565b61146583611430565b61147961147182611452565b8484546113d4565b825550505050565b600090565b61148e611481565b61149981848461145c565b505050565b5b818110156114bd576114b2600082611486565b60018101905061149f565b5050565b601f821115611502576114d3816113a2565b6114dc846113b7565b810160208510156114eb578190505b6114ff6114f7856113b7565b83018261149e565b50505b505050565b600082821c905092915050565b600061152560001984600802611507565b1980831691505092915050565b600061153e8383611514565b9150826002028217905092915050565b6115588383611368565b67ffffffffffffffff81111561157157611570611373565b5b61157b825461108c565b6115868282856114c1565b6000601f8311600181146115b557600084156115a3578287013590505b6115ad8582611532565b865550611615565b601f1984166115c3866113a2565b60005b828110156115eb578489013582556001820191506020850194506020810190506115c6565b868310156116085784890135611604601f891682611514565b8355505b6001600288020188555050505b50505050505050565b61162983838361154e565b505050565b61163781610e89565b811461164257600080fd5b50565b600081356116528161162e565b80915050919050565b60008160001b9050919050565b60007fffffffffffffffffffffffffffffffffffffffffffffffffffffffffffffffff6116948461165b565b9350801983169250808416831791505092915050565b6116b382611430565b6116c66116bf82611452565b8354611668565b8255505050565b600081356116da81610da0565b80915050919050565b600073ffffffffffffffffffffffffffffffffffffffff6117038461165b565b9350801983169250808416831791505092915050565b600061173461172f61172a84610d6e565b611426565b610d6e565b9050919050565b600061174682611719565b9050919050565b60006117588261173b565b9050919050565b6000819050919050565b6117728261174d565b61178561177e8261175f565b83546116e3565b8255505050565b600081016000830161179e8185611305565b6117a981838661161e565b5050505060018101602083016117bf8185611305565b6117ca81838661161e565b5050505060028101604083016117e08185611305565b6117eb81838661161e565b5050505060038101606083016118018185611305565b61180c81838661161e565b5050505060048101608083016118228185611305565b61182d81838661161e565b505050506005810160a083018061184381611645565b905061184f81846116aa565b5050506006810160c0830180611864816116cd565b90506118708184611769565b5050505050565b611881828261178c565b5050565b7f4f4e4c595f544f504f535f4d414e414745520000000000000000000000000000600082015250565b60006118bb601283610e04565b91506118c682611885565b602082019050919050565b600060208201905081810360008301526118ea816118ae565b9050919050565b7f4953535545520000000000000000000000000000000000000000000000000000600082015250565b6000611927600683610e04565b9150611932826118f1565b602082019050919050565b600060408201905081810360008301526119568161191a565b90506119656020830184610ea2565b9291505056fea26469706673582212201bdca6da75b7ad2ffa8b81d1619f6be2d6366a0a4b8d6f4d287656fa10d1652764736f6c63430008130033",
  "linkReferences": {},
  "deployedLinkReferences": {}
}