{
  "_format": "hh-sol-artifact-1",
  "contractName": "Issuer",
  "sourceName": "contracts/Topos/Bank/Issuer.sol",
  "abi": [
    {
      "inputs": [
        {
          "internalType": "address",
          "name": "_toposBankContract",
          "type": "address"
        }
      ],
      "stateMutability": "nonpayable",
      "type": "constructor"
    },
    {
      "anonymous": false,
      "inputs": [
        {
          "indexed": false,
          "internalType": "address",
          "name": "issuer",
          "type": "address"
        }
      ],
      "name": "ApproveIssuer",
      "type": "event"
    },
    {
      "anonymous": false,
      "inputs": [
        {
          "indexed": false,
          "internalType": "address",
          "name": "issuer",
          "type": "address"
        }
      ],
      "name": "RejectIssuer",
      "type": "event"
    },
    {
      "anonymous": false,
      "inputs": [
        {
          "indexed": false,
          "internalType": "address",
          "name": "issuer",
          "type": "address"
        }
      ],
      "name": "RequestIssuerRegistration",
      "type": "event"
    },
    {
      "inputs": [
        {
          "internalType": "address",
          "name": "_issuer",
          "type": "address"
        }
      ],
      "name": "approveIssuer",
      "outputs": [],
      "stateMutability": "nonpayable",
      "type": "function"
    },
    {
      "inputs": [
        {
          "internalType": "address",
          "name": "",
          "type": "address"
        }
      ],
      "name": "issuerStatus",
      "outputs": [
        {
          "internalType": "enum BondData.StakeHolderStatus",
          "name": "",
          "type": "uint8"
        }
      ],
      "stateMutability": "view",
      "type": "function"
    },
    {
      "inputs": [
        {
          "internalType": "address",
          "name": "",
          "type": "address"
        }
      ],
      "name": "issuers",
      "outputs": [
        {
          "internalType": "string",
          "name": "documentURI",
          "type": "string"
        },
        {
          "internalType": "string",
          "name": "name",
          "type": "string"
        },
        {
          "internalType": "string",
          "name": "country",
          "type": "string"
        },
        {
          "internalType": "string",
          "name": "issuerType",
          "type": "string"
        },
        {
          "internalType": "string",
          "name": "creditRating",
          "type": "string"
        },
        {
          "internalType": "uint256",
          "name": "carbonCredit",
          "type": "uint256"
        },
        {
          "internalType": "address",
          "name": "walletAddress",
          "type": "address"
        }
      ],
      "stateMutability": "view",
      "type": "function"
    },
    {
      "inputs": [
        {
          "internalType": "address",
          "name": "_issuer",
          "type": "address"
        }
      ],
      "name": "rejectIssuer",
      "outputs": [],
      "stateMutability": "nonpayable",
      "type": "function"
    },
    {
      "inputs": [
        {
          "components": [
            {
              "internalType": "string",
              "name": "documentURI",
              "type": "string"
            },
            {
              "internalType": "string",
              "name": "name",
              "type": "string"
            },
            {
              "internalType": "string",
              "name": "country",
              "type": "string"
            },
            {
              "internalType": "string",
              "name": "issuerType",
              "type": "string"
            },
            {
              "internalType": "string",
              "name": "creditRating",
              "type": "string"
            },
            {
              "internalType": "uint256",
              "name": "carbonCredit",
              "type": "uint256"
            },
            {
              "internalType": "address",
              "name": "walletAddress",
              "type": "address"
            }
          ],
          "internalType": "struct BondData.Issuer",
          "name": "_issuer",
          "type": "tuple"
        }
      ],
      "name": "requestRegistrationIssuer",
      "outputs": [],
      "stateMutability": "nonpayable",
      "type": "function"
    },
    {
      "inputs": [],
      "name": "toposBankContract",
      "outputs": [
        {
          "internalType": "address",
          "name": "",
          "type": "address"
        }
      ],
      "stateMutability": "view",
      "type": "function"
    }
  ],
  "bytecode": "0x60806040523480156200001157600080fd5b5060405162001ab538038062001ab58339818101604052810190620000379190620000e9565b80600260006101000a81548173ffffffffffffffffffffffffffffffffffffffff021916908373ffffffffffffffffffffffffffffffffffffffff160217905550506200011b565b600080fd5b600073ffffffffffffffffffffffffffffffffffffffff82169050919050565b6000620000b18262000084565b9050919050565b620000c381620000a4565b8114620000cf57600080fd5b50565b600081519050620000e381620000b8565b92915050565b6000602082840312156200010257620001016200007f565b5b60006200011284828501620000d2565b91505092915050565b61198a806200012b6000396000f3fe608060405234801561001057600080fd5b50600436106100625760003560e01c806338a7543e146100675780633dc349be1461009d57806382deb86e146100b95780639c34712a146100d5578063c88efe65146100f3578063fcbb3c181461010f575b600080fd5b610081600480360381019061007c9190610dc9565b61013f565b6040516100949796959493929190610eae565b60405180910390f35b6100b760048036038101906100b29190610f64565b610449565b005b6100d360048036038101906100ce9190610dc9565b6107f5565b005b6100dd610abf565b6040516100ea9190610fad565b60405180910390f35b61010d60048036038101906101089190610dc9565b610ae5565b005b61012960048036038101906101249190610dc9565b610d41565b604051610136919061103f565b60405180910390f35b600060205280600052604060002060009150905080600001805461016290611089565b80601f016020809104026020016040519081016040528092919081815260200182805461018e90611089565b80156101db5780601f106101b0576101008083540402835291602001916101db565b820191906000526020600020905b8154815290600101906020018083116101be57829003601f168201915b5050505050908060010180546101f090611089565b80601f016020809104026020016040519081016040528092919081815260200182805461021c90611089565b80156102695780601f1061023e57610100808354040283529160200191610269565b820191906000526020600020905b81548152906001019060200180831161024c57829003601f168201915b50505050509080600201805461027e90611089565b80601f01602080910402602001604051908101604052809291908181526020018280546102aa90611089565b80156102f75780601f106102cc576101008083540402835291602001916102f7565b820191906000526020600020905b8154815290600101906020018083116102da57829003601f168201915b50505050509080600301805461030c90611089565b80601f016020809104026020016040519081016040528092919081815260200182805461033890611089565b80156103855780601f1061035a57610100808354040283529160200191610385565b820191906000526020600020905b81548152906001019060200180831161036857829003601f168201915b50505050509080600401805461039a90611089565b80601f01602080910402602001604051908101604052809291908181526020018280546103c690611089565b80156104135780601f106103e857610100808354040283529160200191610413565b820191906000526020600020905b8154815290600101906020018083116103f657829003601f168201915b5050505050908060050154908060060160009054906101000a900473ffffffffffffffffffffffffffffffffffffffff16905087565b8060c001602081019061045c9190610dc9565b6000600260009054906101000a900473ffffffffffffffffffffffffffffffffffffffff1673ffffffffffffffffffffffffffffffffffffffff1663c3a2a93a6040518163ffffffff1660e01b8152600401608060405180830381865afa1580156104cb573d6000803e3d6000fd5b505050506040513d601f19601f820116820180604052508101906104ef91906110cf565b50925050508073ffffffffffffffffffffffffffffffffffffffff1663b9209e33836040518263ffffffff1660e01b815260040161052d9190610fad565b602060405180830381865afa15801561054a573d6000803e3d6000fd5b505050506040513d601f19601f8201168201806040525081019061056e919061116e565b6105ad576040517f08c379a00000000000000000000000000000000000000000000000000000000081526004016105a4906111e7565b60405180910390fd5b8260c00160208101906105c09190610dc9565b73ffffffffffffffffffffffffffffffffffffffff163373ffffffffffffffffffffffffffffffffffffffff161461062d576040517f08c379a000000000000000000000000000000000000000000000000000000000815260040161062490611253565b60405180910390fd5b6000600381111561064157610640610fc8565b5b600160003373ffffffffffffffffffffffffffffffffffffffff1673ffffffffffffffffffffffffffffffffffffffff16815260200190815260200160002060009054906101000a900460ff1660038111156106a05761069f610fc8565b5b146106e0576040517f08c379a00000000000000000000000000000000000000000000000000000000081526004016106d7906112bf565b60405180910390fd5b826000808560c00160208101906106f79190610dc9565b73ffffffffffffffffffffffffffffffffffffffff1673ffffffffffffffffffffffffffffffffffffffff168152602001908152602001600020818161073d9190611860565b90505060018060003373ffffffffffffffffffffffffffffffffffffffff1673ffffffffffffffffffffffffffffffffffffffff16815260200190815260200160002060006101000a81548160ff021916908360038111156107a2576107a1610fc8565b5b02179055507f0a0028275fa37d11ea8d5d29fd14fd8aa6c52af0e0cf819b89ca2cd9193f11858360c00160208101906107db9190610dc9565b6040516107e89190610fad565b60405180910390a1505050565b600080600260009054906101000a900473ffffffffffffffffffffffffffffffffffffffff1673ffffffffffffffffffffffffffffffffffffffff1663c3a2a93a6040518163ffffffff1660e01b8152600401608060405180830381865afa158015610865573d6000803e3d6000fd5b505050506040513d601f19601f8201168201806040525081019061088991906110cf565b5050915091508173ffffffffffffffffffffffffffffffffffffffff163373ffffffffffffffffffffffffffffffffffffffff16146108fd576040517f08c379a00000000000000000000000000000000000000000000000000000000081526004016108f4906118ba565b60405180910390fd5b6001600381111561091157610910610fc8565b5b600160008573ffffffffffffffffffffffffffffffffffffffff1673ffffffffffffffffffffffffffffffffffffffff16815260200190815260200160002060009054906101000a900460ff1660038111156109705761096f610fc8565b5b146109b0576040517f08c379a00000000000000000000000000000000000000000000000000000000081526004016109a7906112bf565b60405180910390fd5b6002600160008573ffffffffffffffffffffffffffffffffffffffff1673ffffffffffffffffffffffffffffffffffffffff16815260200190815260200160002060006101000a81548160ff02191690836003811115610a1357610a12610fc8565b5b02179055508073ffffffffffffffffffffffffffffffffffffffff1663cfde1890846040518263ffffffff1660e01b8152600401610a519190611926565b600060405180830381600087803b158015610a6b57600080fd5b505af1158015610a7f573d6000803e3d6000fd5b505050507f0e387c88130575bf91cadf15934854a1ed11d5c16d63f1106b6fd6e139d1202e83604051610ab29190610fad565b60405180910390a1505050565b600260009054906101000a900473ffffffffffffffffffffffffffffffffffffffff1681565b6000600260009054906101000a900473ffffffffffffffffffffffffffffffffffffffff1673ffffffffffffffffffffffffffffffffffffffff1663c3a2a93a6040518163ffffffff1660e01b8152600401608060405180830381865afa158015610b54573d6000803e3d6000fd5b505050506040513d601f19601f82011682018060405250810190610b7891906110cf565b50505090508073ffffffffffffffffffffffffffffffffffffffff163373ffffffffffffffffffffffffffffffffffffffff1614610beb576040517f08c379a0000000000000000000000000000000000000000000000000000000008152600401610be2906118ba565b60405180910390fd5b60016003811115610bff57610bfe610fc8565b5b600160008473ffffffffffffffffffffffffffffffffffffffff1673ffffffffffffffffffffffffffffffffffffffff16815260200190815260200160002060009054906101000a900460ff166003811115610c5e57610c5d610fc8565b5b14610c9e576040517f08c379a0000000000000000000000000000000000000000000000000000000008152600401610c95906112bf565b60405180910390fd5b6003600160008473ffffffffffffffffffffffffffffffffffffffff1673ffffffffffffffffffffffffffffffffffffffff16815260200190815260200160002060006101000a81548160ff02191690836003811115610d0157610d00610fc8565b5b02179055507fe341ab2ef130ae159f5f54c8be96a79ffe8f98948aa6d0e1bdeb60e6201ada2a82604051610d359190610fad565b60405180910390a15050565b60016020528060005260406000206000915054906101000a900460ff1681565b600080fd5b600080fd5b600073ffffffffffffffffffffffffffffffffffffffff82169050919050565b6000610d9682610d6b565b9050919050565b610da681610d8b565b8114610db157600080fd5b50565b600081359050610dc381610d9d565b92915050565b600060208284031215610ddf57610dde610d61565b5b6000610ded84828501610db4565b91505092915050565b600081519050919050565b600082825260208201905092915050565b60005b83811015610e30578082015181840152602081019050610e15565b60008484015250505050565b6000601f19601f8301169050919050565b6000610e5882610df6565b610e628185610e01565b9350610e72818560208601610e12565b610e7b81610e3c565b840191505092915050565b6000819050919050565b610e9981610e86565b82525050565b610ea881610d8b565b82525050565b600060e0820190508181036000830152610ec8818a610e4d565b90508181036020830152610edc8189610e4d565b90508181036040830152610ef08188610e4d565b90508181036060830152610f048187610e4d565b90508181036080830152610f188186610e4d565b9050610f2760a0830185610e90565b610f3460c0830184610e9f565b98975050505050505050565b600080fd5b600060e08284031215610f5b57610f5a610f40565b5b81905092915050565b600060208284031215610f7a57610f79610d61565b5b600082013567ffffffffffffffff811115610f9857610f97610d66565b5b610fa484828501610f45565b91505092915050565b6000602082019050610fc26000830184610e9f565b92915050565b7f4e487b7100000000000000000000000000000000000000000000000000000000600052602160045260246000fd5b6004811061100857611007610fc8565b5b50565b600081905061101982610ff7565b919050565b60006110298261100b565b9050919050565b6110398161101e565b82525050565b60006020820190506110546000830184611030565b92915050565b7f4e487b7100000000000000000000000000000000000000000000000000000000600052602260045260246000fd5b600060028204905060018216806110a157607f821691505b6020821081036110b4576110b361105a565b5b50919050565b6000815190506110c981610d9d565b92915050565b600080600080608085870312156110e9576110e8610d61565b5b60006110f7878288016110ba565b9450506020611108878288016110ba565b9350506040611119878288016110ba565b925050606061112a878288016110ba565b91505092959194509250565b60008115159050919050565b61114b81611136565b811461115657600080fd5b50565b60008151905061116881611142565b92915050565b60006020828403121561118457611183610d61565b5b600061119284828501611159565b91505092915050565b7f4143434f554e545f4e4f545f414150524f564544000000000000000000000000600082015250565b60006111d1601483610e01565b91506111dc8261119b565b602082019050919050565b60006020820190508181036000830152611200816111c4565b9050919050565b7f494e56414c49445f414444524553530000000000000000000000000000000000600082015250565b600061123d600f83610e01565b915061124882611207565b602082019050919050565b6000602082019050818103600083015261126c81611230565b9050919050565b7f434845434b5f594f55525f535441545553000000000000000000000000000000600082015250565b60006112a9601183610e01565b91506112b482611273565b602082019050919050565b600060208201905081810360008301526112d88161129c565b9050919050565b600080fd5b600080fd5b600080fd5b6000808335600160200384360303811261130b5761130a6112df565b5b80840192508235915067ffffffffffffffff82111561132d5761132c6112e4565b5b602083019250600182023603831315611349576113486112e9565b5b509250929050565b600082905092915050565b7f4e487b7100000000000000000000000000000000000000000000000000000000600052604160045260246000fd5b60008190508160005260206000209050919050565b60006020601f8301049050919050565b600082821b905092915050565b6000600883026113ed7fffffffffffffffffffffffffffffffffffffffffffffffffffffffffffffffff826113b0565b6113f786836113b0565b95508019841693508086168417925050509392505050565b6000819050919050565b600061143461142f61142a84610e86565b61140f565b610e86565b9050919050565b6000819050919050565b61144e83611419565b61146261145a8261143b565b8484546113bd565b825550505050565b600090565b61147761146a565b611482818484611445565b505050565b5b818110156114a65761149b60008261146f565b600181019050611488565b5050565b601f8211156114eb576114bc8161138b565b6114c5846113a0565b810160208510156114d4578190505b6114e86114e0856113a0565b830182611487565b50505b505050565b600082821c905092915050565b600061150e600019846008026114f0565b1980831691505092915050565b600061152783836114fd565b9150826002028217905092915050565b6115418383611351565b67ffffffffffffffff81111561155a5761155961135c565b5b6115648254611089565b61156f8282856114aa565b6000601f83116001811461159e576000841561158c578287013590505b611596858261151b565b8655506115fe565b601f1984166115ac8661138b565b60005b828110156115d4578489013582556001820191506020850194506020810190506115af565b868310156115f157848901356115ed601f8916826114fd565b8355505b6001600288020188555050505b50505050505050565b611612838383611537565b505050565b61162081610e86565b811461162b57600080fd5b50565b6000813561163b81611617565b80915050919050565b60008160001b9050919050565b60007fffffffffffffffffffffffffffffffffffffffffffffffffffffffffffffffff61167d84611644565b9350801983169250808416831791505092915050565b61169c82611419565b6116af6116a88261143b565b8354611651565b8255505050565b600081356116c381610d9d565b80915050919050565b600073ffffffffffffffffffffffffffffffffffffffff6116ec84611644565b9350801983169250808416831791505092915050565b600061171d61171861171384610d6b565b61140f565b610d6b565b9050919050565b600061172f82611702565b9050919050565b600061174182611724565b9050919050565b6000819050919050565b61175b82611736565b61176e61176782611748565b83546116cc565b8255505050565b600081016000830161178781856112ee565b611792818386611607565b5050505060018101602083016117a881856112ee565b6117b3818386611607565b5050505060028101604083016117c981856112ee565b6117d4818386611607565b5050505060038101606083016117ea81856112ee565b6117f5818386611607565b50505050600481016080830161180b81856112ee565b611816818386611607565b505050506005810160a083018061182c8161162e565b90506118388184611693565b5050506006810160c083018061184d816116b6565b90506118598184611752565b5050505050565b61186a8282611775565b5050565b7f4f4e4c595f544f504f535f4d414e414745520000000000000000000000000000600082015250565b60006118a4601283610e01565b91506118af8261186e565b602082019050919050565b600060208201905081810360008301526118d381611897565b9050919050565b7f4953535545520000000000000000000000000000000000000000000000000000600082015250565b6000611910600683610e01565b915061191b826118da565b602082019050919050565b6000604082019050818103600083015261193f81611903565b905061194e6020830184610e9f565b9291505056fea2646970667358221220bc799642c3f372ea2d4d2eba3b13d50dace973f7c5553fa3b65421ac5826407b64736f6c63430008130033",
  "linkReferences": {},
  "deployedLinkReferences": {}
}