{
  "_format": "hh-sol-artifact-1",
  "contractName": "Issuer",
  "sourceName": "contracts/Topos/Bank/Issuer.sol",
  "abi": [
    {
      "inputs": [
        {
          "internalType": "address",
          "name": "_toposBankContract",
          "type": "address"
        }
      ],
      "stateMutability": "nonpayable",
      "type": "constructor"
    },
    {
      "anonymous": false,
      "inputs": [
        {
          "indexed": false,
          "internalType": "address",
          "name": "issuer",
          "type": "address"
        }
      ],
      "name": "ApproveIssuer",
      "type": "event"
    },
    {
      "anonymous": false,
      "inputs": [
        {
          "indexed": false,
          "internalType": "address",
          "name": "issuer",
          "type": "address"
        }
      ],
      "name": "RejectIssuer",
      "type": "event"
    },
    {
      "anonymous": false,
      "inputs": [
        {
          "indexed": false,
          "internalType": "address",
          "name": "issuer",
          "type": "address"
        }
      ],
      "name": "RequestIssuerRegistration",
      "type": "event"
    },
    {
      "inputs": [
        {
          "internalType": "address",
          "name": "_issuerAddress",
          "type": "address"
        }
      ],
      "name": "approveIssuer",
      "outputs": [],
      "stateMutability": "nonpayable",
      "type": "function"
    },
    {
      "inputs": [],
      "name": "getIssuers",
      "outputs": [
        {
          "components": [
            {
              "internalType": "string",
              "name": "documentURI",
              "type": "string"
            },
            {
              "internalType": "string",
              "name": "name",
              "type": "string"
            },
            {
              "internalType": "string",
              "name": "country",
              "type": "string"
            },
            {
              "internalType": "string",
              "name": "issuerType",
              "type": "string"
            },
            {
              "internalType": "string",
              "name": "creditRating",
              "type": "string"
            },
            {
              "internalType": "uint256",
              "name": "carbonCredit",
              "type": "uint256"
            },
            {
              "internalType": "address",
              "name": "walletAddress",
              "type": "address"
            },
            {
              "internalType": "enum BondData.StakeHolderStatus",
              "name": "status",
              "type": "uint8"
            },
            {
              "internalType": "uint256",
              "name": "index",
              "type": "uint256"
            }
          ],
          "internalType": "struct BondData.Issuer[]",
          "name": "",
          "type": "tuple[]"
        }
      ],
      "stateMutability": "view",
      "type": "function"
    },
    {
      "inputs": [
        {
          "internalType": "address",
          "name": "",
          "type": "address"
        }
      ],
      "name": "issuers",
      "outputs": [
        {
          "internalType": "string",
          "name": "documentURI",
          "type": "string"
        },
        {
          "internalType": "string",
          "name": "name",
          "type": "string"
        },
        {
          "internalType": "string",
          "name": "country",
          "type": "string"
        },
        {
          "internalType": "string",
          "name": "issuerType",
          "type": "string"
        },
        {
          "internalType": "string",
          "name": "creditRating",
          "type": "string"
        },
        {
          "internalType": "uint256",
          "name": "carbonCredit",
          "type": "uint256"
        },
        {
          "internalType": "address",
          "name": "walletAddress",
          "type": "address"
        },
        {
          "internalType": "enum BondData.StakeHolderStatus",
          "name": "status",
          "type": "uint8"
        },
        {
          "internalType": "uint256",
          "name": "index",
          "type": "uint256"
        }
      ],
      "stateMutability": "view",
      "type": "function"
    },
    {
      "inputs": [
        {
          "internalType": "address",
          "name": "_issuerAddress",
          "type": "address"
        }
      ],
      "name": "rejectIssuer",
      "outputs": [],
      "stateMutability": "nonpayable",
      "type": "function"
    },
    {
      "inputs": [
        {
          "components": [
            {
              "internalType": "string",
              "name": "documentURI",
              "type": "string"
            },
            {
              "internalType": "string",
              "name": "name",
              "type": "string"
            },
            {
              "internalType": "string",
              "name": "country",
              "type": "string"
            },
            {
              "internalType": "string",
              "name": "issuerType",
              "type": "string"
            },
            {
              "internalType": "string",
              "name": "creditRating",
              "type": "string"
            },
            {
              "internalType": "uint256",
              "name": "carbonCredit",
              "type": "uint256"
            },
            {
              "internalType": "address",
              "name": "walletAddress",
              "type": "address"
            },
            {
              "internalType": "enum BondData.StakeHolderStatus",
              "name": "status",
              "type": "uint8"
            },
            {
              "internalType": "uint256",
              "name": "index",
              "type": "uint256"
            }
          ],
          "internalType": "struct BondData.Issuer",
          "name": "_issuer",
          "type": "tuple"
        }
      ],
      "name": "requestRegistrationIssuer",
      "outputs": [],
      "stateMutability": "nonpayable",
      "type": "function"
    },
    {
      "inputs": [],
      "name": "toposBankContract",
      "outputs": [
        {
          "internalType": "address",
          "name": "",
          "type": "address"
        }
      ],
      "stateMutability": "view",
      "type": "function"
    }
  ],
  "bytecode": "0x60806040523480156200001157600080fd5b5060405162002c6038038062002c608339818101604052810190620000379190620000e9565b80600160006101000a81548173ffffffffffffffffffffffffffffffffffffffff021916908373ffffffffffffffffffffffffffffffffffffffff160217905550506200011b565b600080fd5b600073ffffffffffffffffffffffffffffffffffffffff82169050919050565b6000620000b18262000084565b9050919050565b620000c381620000a4565b8114620000cf57600080fd5b50565b600081519050620000e381620000b8565b92915050565b6000602082840312156200010257620001016200007f565b5b60006200011284828501620000d2565b91505092915050565b612b35806200012b6000396000f3fe608060405234801561001057600080fd5b50600436106100625760003560e01c806338a7543e1461006757806382deb86e1461009f5780639c34712a146100bb578063a594da95146100d9578063ad88e687146100f7578063c88efe6514610113575b600080fd5b610081600480360381019061007c9190611b07565b61012f565b60405161009699989796959493929190611c63565b60405180910390f35b6100b960048036038101906100b49190611b07565b610452565b005b6100c3610af7565b6040516100d09190611d13565b60405180910390f35b6100e1610b1d565b6040516100ee9190611f48565b60405180910390f35b610111600480360381019061010c9190611f8f565b610efc565b005b61012d60048036038101906101289190611b07565b611467565b005b600060205280600052604060002060009150905080600001805461015290612007565b80601f016020809104026020016040519081016040528092919081815260200182805461017e90612007565b80156101cb5780601f106101a0576101008083540402835291602001916101cb565b820191906000526020600020905b8154815290600101906020018083116101ae57829003601f168201915b5050505050908060010180546101e090612007565b80601f016020809104026020016040519081016040528092919081815260200182805461020c90612007565b80156102595780601f1061022e57610100808354040283529160200191610259565b820191906000526020600020905b81548152906001019060200180831161023c57829003601f168201915b50505050509080600201805461026e90612007565b80601f016020809104026020016040519081016040528092919081815260200182805461029a90612007565b80156102e75780601f106102bc576101008083540402835291602001916102e7565b820191906000526020600020905b8154815290600101906020018083116102ca57829003601f168201915b5050505050908060030180546102fc90612007565b80601f016020809104026020016040519081016040528092919081815260200182805461032890612007565b80156103755780601f1061034a57610100808354040283529160200191610375565b820191906000526020600020905b81548152906001019060200180831161035857829003601f168201915b50505050509080600401805461038a90612007565b80601f01602080910402602001604051908101604052809291908181526020018280546103b690612007565b80156104035780601f106103d857610100808354040283529160200191610403565b820191906000526020600020905b8154815290600101906020018083116103e657829003601f168201915b5050505050908060050154908060060160009054906101000a900473ffffffffffffffffffffffffffffffffffffffff16908060060160149054906101000a900460ff16908060070154905089565b60008060008373ffffffffffffffffffffffffffffffffffffffff1673ffffffffffffffffffffffffffffffffffffffff168152602001908152602001600020604051806101200160405290816000820180546104ae90612007565b80601f01602080910402602001604051908101604052809291908181526020018280546104da90612007565b80156105275780601f106104fc57610100808354040283529160200191610527565b820191906000526020600020905b81548152906001019060200180831161050a57829003601f168201915b5050505050815260200160018201805461054090612007565b80601f016020809104026020016040519081016040528092919081815260200182805461056c90612007565b80156105b95780601f1061058e576101008083540402835291602001916105b9565b820191906000526020600020905b81548152906001019060200180831161059c57829003601f168201915b505050505081526020016002820180546105d290612007565b80601f01602080910402602001604051908101604052809291908181526020018280546105fe90612007565b801561064b5780601f106106205761010080835404028352916020019161064b565b820191906000526020600020905b81548152906001019060200180831161062e57829003601f168201915b5050505050815260200160038201805461066490612007565b80601f016020809104026020016040519081016040528092919081815260200182805461069090612007565b80156106dd5780601f106106b2576101008083540402835291602001916106dd565b820191906000526020600020905b8154815290600101906020018083116106c057829003601f168201915b505050505081526020016004820180546106f690612007565b80601f016020809104026020016040519081016040528092919081815260200182805461072290612007565b801561076f5780601f106107445761010080835404028352916020019161076f565b820191906000526020600020905b81548152906001019060200180831161075257829003601f168201915b50505050508152602001600582015481526020016006820160009054906101000a900473ffffffffffffffffffffffffffffffffffffffff1673ffffffffffffffffffffffffffffffffffffffff1673ffffffffffffffffffffffffffffffffffffffff1681526020016006820160149054906101000a900460ff1660038111156107fd576107fc611bec565b5b600381111561080f5761080e611bec565b5b81526020016007820154815250509050600080600160009054906101000a900473ffffffffffffffffffffffffffffffffffffffff1673ffffffffffffffffffffffffffffffffffffffff1663c3a2a93a6040518163ffffffff1660e01b815260040160a060405180830381865afa15801561088f573d6000803e3d6000fd5b505050506040513d601f19601f820116820180604052508101906108b3919061204d565b505050915091508173ffffffffffffffffffffffffffffffffffffffff163373ffffffffffffffffffffffffffffffffffffffff1614610928576040517f08c379a000000000000000000000000000000000000000000000000000000000815260040161091f90612114565b60405180910390fd5b6001600381111561093c5761093b611bec565b5b8360e00151600381111561095357610952611bec565b5b14610993576040517f08c379a000000000000000000000000000000000000000000000000000000000815260040161098a90612180565b60405180910390fd5b60026000808673ffffffffffffffffffffffffffffffffffffffff1673ffffffffffffffffffffffffffffffffffffffff16815260200190815260200160002060060160146101000a81548160ff021916908360038111156109f8576109f7611bec565b5b021790555060028084610100015181548110610a1757610a166121a0565b5b906000526020600020906008020160060160146101000a81548160ff02191690836003811115610a4a57610a49611bec565b5b02179055508073ffffffffffffffffffffffffffffffffffffffff1663cfde1890856040518263ffffffff1660e01b8152600401610a88919061221b565b600060405180830381600087803b158015610aa257600080fd5b505af1158015610ab6573d6000803e3d6000fd5b505050507f0e387c88130575bf91cadf15934854a1ed11d5c16d63f1106b6fd6e139d1202e84604051610ae99190611d13565b60405180910390a150505050565b600160009054906101000a900473ffffffffffffffffffffffffffffffffffffffff1681565b60606002805480602002602001604051908101604052809291908181526020016000905b82821015610ef3578382906000526020600020906008020160405180610120016040529081600082018054610b7590612007565b80601f0160208091040260200160405190810160405280929190818152602001828054610ba190612007565b8015610bee5780601f10610bc357610100808354040283529160200191610bee565b820191906000526020600020905b815481529060010190602001808311610bd157829003601f168201915b50505050508152602001600182018054610c0790612007565b80601f0160208091040260200160405190810160405280929190818152602001828054610c3390612007565b8015610c805780601f10610c5557610100808354040283529160200191610c80565b820191906000526020600020905b815481529060010190602001808311610c6357829003601f168201915b50505050508152602001600282018054610c9990612007565b80601f0160208091040260200160405190810160405280929190818152602001828054610cc590612007565b8015610d125780601f10610ce757610100808354040283529160200191610d12565b820191906000526020600020905b815481529060010190602001808311610cf557829003601f168201915b50505050508152602001600382018054610d2b90612007565b80601f0160208091040260200160405190810160405280929190818152602001828054610d5790612007565b8015610da45780601f10610d7957610100808354040283529160200191610da4565b820191906000526020600020905b815481529060010190602001808311610d8757829003601f168201915b50505050508152602001600482018054610dbd90612007565b80601f0160208091040260200160405190810160405280929190818152602001828054610de990612007565b8015610e365780601f10610e0b57610100808354040283529160200191610e36565b820191906000526020600020905b815481529060010190602001808311610e1957829003601f168201915b50505050508152602001600582015481526020016006820160009054906101000a900473ffffffffffffffffffffffffffffffffffffffff1673ffffffffffffffffffffffffffffffffffffffff1673ffffffffffffffffffffffffffffffffffffffff1681526020016006820160149054906101000a900460ff166003811115610ec457610ec3611bec565b5b6003811115610ed657610ed5611bec565b5b815260200160078201548152505081526020019060010190610b41565b50505050905090565b8060c0016020810190610f0f9190611b07565b6000600160009054906101000a900473ffffffffffffffffffffffffffffffffffffffff1673ffffffffffffffffffffffffffffffffffffffff1663c3a2a93a6040518163ffffffff1660e01b815260040160a060405180830381865afa158015610f7e573d6000803e3d6000fd5b505050506040513d601f19601f82011682018060405250810190610fa2919061204d565b5050925050508073ffffffffffffffffffffffffffffffffffffffff1663b9209e33836040518263ffffffff1660e01b8152600401610fe19190611d13565b602060405180830381865afa158015610ffe573d6000803e3d6000fd5b505050506040513d601f19601f820116820180604052508101906110229190612281565b611061576040517f08c379a0000000000000000000000000000000000000000000000000000000008152600401611058906122fa565b60405180910390fd5b60008360c00160208101906110769190611b07565b90508073ffffffffffffffffffffffffffffffffffffffff163373ffffffffffffffffffffffffffffffffffffffff16146110e6576040517f08c379a00000000000000000000000000000000000000000000000000000000081526004016110dd90612366565b60405180910390fd5b600060038111156110fa576110f9611bec565b5b6000808373ffffffffffffffffffffffffffffffffffffffff1673ffffffffffffffffffffffffffffffffffffffff16815260200190815260200160002060060160149054906101000a900460ff16600381111561115b5761115a611bec565b5b1461119b576040517f08c379a000000000000000000000000000000000000000000000000000000000815260040161119290612180565b60405180910390fd5b836000808373ffffffffffffffffffffffffffffffffffffffff1673ffffffffffffffffffffffffffffffffffffffff16815260200190815260200160002081816111e691906129f3565b90505060016000808373ffffffffffffffffffffffffffffffffffffffff1673ffffffffffffffffffffffffffffffffffffffff16815260200190815260200160002060060160146101000a81548160ff0219169083600381111561124e5761124d611bec565b5b02179055506002805490506000808373ffffffffffffffffffffffffffffffffffffffff1673ffffffffffffffffffffffffffffffffffffffff1681526020019081526020016000206007018190555060026000808373ffffffffffffffffffffffffffffffffffffffff1673ffffffffffffffffffffffffffffffffffffffff16815260200190815260200160002090806001815401808255809150506001900390600052602060002090600802016000909190919091506000820181600001908161131b9190612a17565b50600182018160010190816113309190612a17565b50600282018160020190816113459190612a17565b506003820181600301908161135a9190612a17565b506004820181600401908161136f9190612a17565b50600582015481600501556006820160009054906101000a900473ffffffffffffffffffffffffffffffffffffffff168160060160006101000a81548173ffffffffffffffffffffffffffffffffffffffff021916908373ffffffffffffffffffffffffffffffffffffffff1602179055506006820160149054906101000a900460ff168160060160146101000a81548160ff0219169083600381111561141957611418611bec565b5b02179055506007820154816007015550507f0a0028275fa37d11ea8d5d29fd14fd8aa6c52af0e0cf819b89ca2cd9193f1185816040516114599190611d13565b60405180910390a150505050565b60008060008373ffffffffffffffffffffffffffffffffffffffff1673ffffffffffffffffffffffffffffffffffffffff168152602001908152602001600020604051806101200160405290816000820180546114c390612007565b80601f01602080910402602001604051908101604052809291908181526020018280546114ef90612007565b801561153c5780601f106115115761010080835404028352916020019161153c565b820191906000526020600020905b81548152906001019060200180831161151f57829003601f168201915b5050505050815260200160018201805461155590612007565b80601f016020809104026020016040519081016040528092919081815260200182805461158190612007565b80156115ce5780601f106115a3576101008083540402835291602001916115ce565b820191906000526020600020905b8154815290600101906020018083116115b157829003601f168201915b505050505081526020016002820180546115e790612007565b80601f016020809104026020016040519081016040528092919081815260200182805461161390612007565b80156116605780601f1061163557610100808354040283529160200191611660565b820191906000526020600020905b81548152906001019060200180831161164357829003601f168201915b5050505050815260200160038201805461167990612007565b80601f01602080910402602001604051908101604052809291908181526020018280546116a590612007565b80156116f25780601f106116c7576101008083540402835291602001916116f2565b820191906000526020600020905b8154815290600101906020018083116116d557829003601f168201915b5050505050815260200160048201805461170b90612007565b80601f016020809104026020016040519081016040528092919081815260200182805461173790612007565b80156117845780601f1061175957610100808354040283529160200191611784565b820191906000526020600020905b81548152906001019060200180831161176757829003601f168201915b50505050508152602001600582015481526020016006820160009054906101000a900473ffffffffffffffffffffffffffffffffffffffff1673ffffffffffffffffffffffffffffffffffffffff1673ffffffffffffffffffffffffffffffffffffffff1681526020016006820160149054906101000a900460ff16600381111561181257611811611bec565b5b600381111561182457611823611bec565b5b815260200160078201548152505090506000600160009054906101000a900473ffffffffffffffffffffffffffffffffffffffff1673ffffffffffffffffffffffffffffffffffffffff1663c3a2a93a6040518163ffffffff1660e01b815260040160a060405180830381865afa1580156118a3573d6000803e3d6000fd5b505050506040513d601f19601f820116820180604052508101906118c7919061204d565b5050505090508073ffffffffffffffffffffffffffffffffffffffff163373ffffffffffffffffffffffffffffffffffffffff161461193b576040517f08c379a000000000000000000000000000000000000000000000000000000000815260040161193290612114565b60405180910390fd5b6001600381111561194f5761194e611bec565b5b8260e00151600381111561196657611965611bec565b5b146119a6576040517f08c379a000000000000000000000000000000000000000000000000000000000815260040161199d90612180565b60405180910390fd5b60036000808573ffffffffffffffffffffffffffffffffffffffff1673ffffffffffffffffffffffffffffffffffffffff16815260200190815260200160002060060160146101000a81548160ff02191690836003811115611a0b57611a0a611bec565b5b02179055506003600283610100015181548110611a2b57611a2a6121a0565b5b906000526020600020906008020160060160146101000a81548160ff02191690836003811115611a5e57611a5d611bec565b5b02179055507fe341ab2ef130ae159f5f54c8be96a79ffe8f98948aa6d0e1bdeb60e6201ada2a83604051611a929190611d13565b60405180910390a1505050565b600080fd5b600080fd5b600073ffffffffffffffffffffffffffffffffffffffff82169050919050565b6000611ad482611aa9565b9050919050565b611ae481611ac9565b8114611aef57600080fd5b50565b600081359050611b0181611adb565b92915050565b600060208284031215611b1d57611b1c611a9f565b5b6000611b2b84828501611af2565b91505092915050565b600081519050919050565b600082825260208201905092915050565b60005b83811015611b6e578082015181840152602081019050611b53565b60008484015250505050565b6000601f19601f8301169050919050565b6000611b9682611b34565b611ba08185611b3f565b9350611bb0818560208601611b50565b611bb981611b7a565b840191505092915050565b6000819050919050565b611bd781611bc4565b82525050565b611be681611ac9565b82525050565b7f4e487b7100000000000000000000000000000000000000000000000000000000600052602160045260246000fd5b60048110611c2c57611c2b611bec565b5b50565b6000819050611c3d82611c1b565b919050565b6000611c4d82611c2f565b9050919050565b611c5d81611c42565b82525050565b6000610120820190508181036000830152611c7e818c611b8b565b90508181036020830152611c92818b611b8b565b90508181036040830152611ca6818a611b8b565b90508181036060830152611cba8189611b8b565b90508181036080830152611cce8188611b8b565b9050611cdd60a0830187611bce565b611cea60c0830186611bdd565b611cf760e0830185611c54565b611d05610100830184611bce565b9a9950505050505050505050565b6000602082019050611d286000830184611bdd565b92915050565b600081519050919050565b600082825260208201905092915050565b6000819050602082019050919050565b600082825260208201905092915050565b6000611d7682611b34565b611d808185611d5a565b9350611d90818560208601611b50565b611d9981611b7a565b840191505092915050565b611dad81611bc4565b82525050565b611dbc81611ac9565b82525050565b611dcb81611c42565b82525050565b6000610120830160008301518482036000860152611def8282611d6b565b91505060208301518482036020860152611e098282611d6b565b91505060408301518482036040860152611e238282611d6b565b91505060608301518482036060860152611e3d8282611d6b565b91505060808301518482036080860152611e578282611d6b565b91505060a0830151611e6c60a0860182611da4565b5060c0830151611e7f60c0860182611db3565b5060e0830151611e9260e0860182611dc2565b50610100830151611ea7610100860182611da4565b508091505092915050565b6000611ebe8383611dd1565b905092915050565b6000602082019050919050565b6000611ede82611d2e565b611ee88185611d39565b935083602082028501611efa85611d4a565b8060005b85811015611f365784840389528151611f178582611eb2565b9450611f2283611ec6565b925060208a01995050600181019050611efe565b50829750879550505050505092915050565b60006020820190508181036000830152611f628184611ed3565b905092915050565b600080fd5b60006101208284031215611f8657611f85611f6a565b5b81905092915050565b600060208284031215611fa557611fa4611a9f565b5b600082013567ffffffffffffffff811115611fc357611fc2611aa4565b5b611fcf84828501611f6f565b91505092915050565b7f4e487b7100000000000000000000000000000000000000000000000000000000600052602260045260246000fd5b6000600282049050600182168061201f57607f821691505b60208210810361203257612031611fd8565b5b50919050565b60008151905061204781611adb565b92915050565b600080600080600060a0868803121561206957612068611a9f565b5b600061207788828901612038565b955050602061208888828901612038565b945050604061209988828901612038565b93505060606120aa88828901612038565b92505060806120bb88828901612038565b9150509295509295909350565b7f4f4e4c595f544f504f535f4d414e414745520000000000000000000000000000600082015250565b60006120fe601283611b3f565b9150612109826120c8565b602082019050919050565b6000602082019050818103600083015261212d816120f1565b9050919050565b7f434845434b5f594f55525f535441545553000000000000000000000000000000600082015250565b600061216a601183611b3f565b915061217582612134565b602082019050919050565b600060208201905081810360008301526121998161215d565b9050919050565b7f4e487b7100000000000000000000000000000000000000000000000000000000600052603260045260246000fd5b7f4953535545520000000000000000000000000000000000000000000000000000600082015250565b6000612205600683611b3f565b9150612210826121cf565b602082019050919050565b60006040820190508181036000830152612234816121f8565b90506122436020830184611bdd565b92915050565b60008115159050919050565b61225e81612249565b811461226957600080fd5b50565b60008151905061227b81612255565b92915050565b60006020828403121561229757612296611a9f565b5b60006122a58482850161226c565b91505092915050565b7f4143434f554e545f4e4f545f414150524f564544000000000000000000000000600082015250565b60006122e4601483611b3f565b91506122ef826122ae565b602082019050919050565b60006020820190508181036000830152612313816122d7565b9050919050565b7f494e56414c49445f414444524553530000000000000000000000000000000000600082015250565b6000612350600f83611b3f565b915061235b8261231a565b602082019050919050565b6000602082019050818103600083015261237f81612343565b9050919050565b600080fd5b600080fd5b600080fd5b600080833560016020038436030381126123b2576123b1612386565b5b80840192508235915067ffffffffffffffff8211156123d4576123d361238b565b5b6020830192506001820236038313156123f0576123ef612390565b5b509250929050565b600082905092915050565b7f4e487b7100000000000000000000000000000000000000000000000000000000600052604160045260246000fd5b60008190508160005260206000209050919050565b60006020601f8301049050919050565b600082821b905092915050565b6000600883026124947fffffffffffffffffffffffffffffffffffffffffffffffffffffffffffffffff82612457565b61249e8683612457565b95508019841693508086168417925050509392505050565b6000819050919050565b60006124db6124d66124d184611bc4565b6124b6565b611bc4565b9050919050565b6000819050919050565b6124f5836124c0565b612509612501826124e2565b848454612464565b825550505050565b600090565b61251e612511565b6125298184846124ec565b505050565b5b8181101561254d57612542600082612516565b60018101905061252f565b5050565b601f8211156125925761256381612432565b61256c84612447565b8101602085101561257b578190505b61258f61258785612447565b83018261252e565b50505b505050565b600082821c905092915050565b60006125b560001984600802612597565b1980831691505092915050565b60006125ce83836125a4565b9150826002028217905092915050565b6125e883836123f8565b67ffffffffffffffff81111561260157612600612403565b5b61260b8254612007565b612616828285612551565b6000601f8311600181146126455760008415612633578287013590505b61263d85826125c2565b8655506126a5565b601f19841661265386612432565b60005b8281101561267b57848901358255600182019150602085019450602081019050612656565b868310156126985784890135612694601f8916826125a4565b8355505b6001600288020188555050505b50505050505050565b6126b98383836125de565b505050565b6126c781611bc4565b81146126d257600080fd5b50565b600081356126e2816126be565b80915050919050565b60008160001b9050919050565b60007fffffffffffffffffffffffffffffffffffffffffffffffffffffffffffffffff612724846126eb565b9350801983169250808416831791505092915050565b612743826124c0565b61275661274f826124e2565b83546126f8565b8255505050565b6000813561276a81611adb565b80915050919050565b600073ffffffffffffffffffffffffffffffffffffffff612793846126eb565b9350801983169250808416831791505092915050565b60006127c46127bf6127ba84611aa9565b6124b6565b611aa9565b9050919050565b60006127d6826127a9565b9050919050565b60006127e8826127cb565b9050919050565b6000819050919050565b612802826127dd565b61281561280e826127ef565b8354612773565b8255505050565b6004811061282957600080fd5b50565b600081356128398161281c565b80915050919050565b60008160a01b9050919050565b600074ff000000000000000000000000000000000000000061287084612842565b9350801983169250808416831791505092915050565b600061289182611c2f565b9050919050565b6000819050919050565b6128ab82612886565b6128be6128b782612898565b835461284f565b8255505050565b60008101600083016128d78185612395565b6128e28183866126ae565b5050505060018101602083016128f88185612395565b6129038183866126ae565b5050505060028101604083016129198185612395565b6129248183866126ae565b50505050600381016060830161293a8185612395565b6129458183866126ae565b50505050600481016080830161295b8185612395565b6129668183866126ae565b505050506005810160a083018061297c816126d5565b9050612988818461273a565b5050506006810160c083018061299d8161275d565b90506129a981846127f9565b5050506006810160e08301806129be8161282c565b90506129ca81846128a2565b505050600781016101008301806129e0816126d5565b90506129ec818461273a565b5050505050565b6129fd82826128c5565b5050565b600081549050612a1081612007565b9050919050565b818103612a25575050612afd565b612a2e82612a01565b67ffffffffffffffff811115612a4757612a46612403565b5b612a518254612007565b612a5c828285612551565b6000601f831160018114612a8b5760008415612a79578287015490505b612a8385826125c2565b865550612af6565b601f198416612a9987612432565b9650612aa486612432565b60005b82811015612acc57848901548255600182019150600185019450602081019050612aa7565b86831015612ae95784890154612ae5601f8916826125a4565b8355505b6001600288020188555050505b5050505050505b56fea26469706673582212204bc1bf9a2afceaa11881dfc2ad9ac834d00706b82ba8e7dc1bd66c7ee1f4c92c64736f6c63430008130033",
  "linkReferences": {},
  "deployedLinkReferences": {}
}