{
  "_format": "hh-sol-artifact-1",
  "contractName": "BondCall",
  "sourceName": "contracts/BondCall.sol",
  "abi": [
    {
      "inputs": [
        {
          "internalType": "address",
          "name": "_owner",
          "type": "address"
        },
        {
          "internalType": "address",
          "name": "_spender",
          "type": "address"
        },
        {
          "internalType": "address",
          "name": "_bondContract",
          "type": "address"
        }
      ],
      "name": "allowance",
      "outputs": [
        {
          "internalType": "uint256",
          "name": "",
          "type": "uint256"
        }
      ],
      "stateMutability": "view",
      "type": "function"
    },
    {
      "inputs": [
        {
          "internalType": "address",
          "name": "_spender",
          "type": "address"
        },
        {
          "internalType": "uint256",
          "name": "_amount",
          "type": "uint256"
        },
        {
          "internalType": "address",
          "name": "_bondContract",
          "type": "address"
        }
      ],
      "name": "approve",
      "outputs": [],
      "stateMutability": "nonpayable",
      "type": "function"
    },
    {
      "inputs": [
        {
          "internalType": "address",
          "name": "_bondContract",
          "type": "address"
        }
      ],
      "name": "bankContract",
      "outputs": [
        {
          "internalType": "address",
          "name": "",
          "type": "address"
        }
      ],
      "stateMutability": "view",
      "type": "function"
    },
    {
      "inputs": [
        {
          "internalType": "address",
          "name": "_bondContract",
          "type": "address"
        }
      ],
      "name": "bondCallContract",
      "outputs": [
        {
          "internalType": "address",
          "name": "",
          "type": "address"
        }
      ],
      "stateMutability": "view",
      "type": "function"
    },
    {
      "inputs": [
        {
          "internalType": "address",
          "name": "_bondContract",
          "type": "address"
        }
      ],
      "name": "bondInfo",
      "outputs": [
        {
          "components": [
            {
              "internalType": "string",
              "name": "isin",
              "type": "string"
            },
            {
              "internalType": "string",
              "name": "name",
              "type": "string"
            },
            {
              "internalType": "string",
              "name": "symbol",
              "type": "string"
            },
            {
              "internalType": "address",
              "name": "currency",
              "type": "address"
            },
            {
              "internalType": "uint256",
              "name": "denomination",
              "type": "uint256"
            },
            {
              "internalType": "uint256",
              "name": "issueVolume",
              "type": "uint256"
            },
            {
              "internalType": "uint256",
              "name": "couponRate",
              "type": "uint256"
            },
            {
              "internalType": "uint8",
              "name": "couponType",
              "type": "uint8"
            },
            {
              "internalType": "uint256",
              "name": "couponFrequency",
              "type": "uint256"
            },
            {
              "internalType": "uint256",
              "name": "issueDate",
              "type": "uint256"
            },
            {
              "internalType": "uint256",
              "name": "maturityDate",
              "type": "uint256"
            }
          ],
          "internalType": "struct BondData.Bond",
          "name": "",
          "type": "tuple"
        }
      ],
      "stateMutability": "view",
      "type": "function"
    },
    {
      "inputs": [
        {
          "internalType": "address",
          "name": "_bondContract",
          "type": "address"
        }
      ],
      "name": "bondManager",
      "outputs": [
        {
          "internalType": "address",
          "name": "",
          "type": "address"
        }
      ],
      "stateMutability": "view",
      "type": "function"
    },
    {
      "inputs": [
        {
          "internalType": "address",
          "name": "_bondContract",
          "type": "address"
        }
      ],
      "name": "bondStatus",
      "outputs": [
        {
          "internalType": "enum BondData.BondStatus",
          "name": "",
          "type": "uint8"
        }
      ],
      "stateMutability": "view",
      "type": "function"
    },
    {
      "inputs": [
        {
          "internalType": "address",
          "name": "_bondContract",
          "type": "address"
        }
      ],
      "name": "countryOfIssuance",
      "outputs": [
        {
          "internalType": "string",
          "name": "",
          "type": "string"
        }
      ],
      "stateMutability": "view",
      "type": "function"
    },
    {
      "inputs": [
        {
          "internalType": "address",
          "name": "_bondContract",
          "type": "address"
        }
      ],
      "name": "couponFrequency",
      "outputs": [
        {
          "internalType": "uint256",
          "name": "",
          "type": "uint256"
        }
      ],
      "stateMutability": "view",
      "type": "function"
    },
    {
      "inputs": [
        {
          "internalType": "address",
          "name": "_bondContract",
          "type": "address"
        }
      ],
      "name": "couponRate",
      "outputs": [
        {
          "internalType": "uint256",
          "name": "",
          "type": "uint256"
        }
      ],
      "stateMutability": "view",
      "type": "function"
    },
    {
      "inputs": [
        {
          "internalType": "address",
          "name": "_bondContract",
          "type": "address"
        }
      ],
      "name": "couponType",
      "outputs": [
        {
          "internalType": "uint256",
          "name": "",
          "type": "uint256"
        }
      ],
      "stateMutability": "view",
      "type": "function"
    },
    {
      "inputs": [
        {
          "internalType": "address",
          "name": "_bondContract",
          "type": "address"
        }
      ],
      "name": "currency",
      "outputs": [
        {
          "internalType": "address",
          "name": "",
          "type": "address"
        }
      ],
      "stateMutability": "view",
      "type": "function"
    },
    {
      "inputs": [
        {
          "internalType": "address",
          "name": "_bondContract",
          "type": "address"
        }
      ],
      "name": "dealID",
      "outputs": [
        {
          "internalType": "string",
          "name": "",
          "type": "string"
        }
      ],
      "stateMutability": "view",
      "type": "function"
    },
    {
      "inputs": [
        {
          "internalType": "address",
          "name": "_spender",
          "type": "address"
        },
        {
          "internalType": "uint256",
          "name": "_amount",
          "type": "uint256"
        },
        {
          "internalType": "address",
          "name": "_bondContract",
          "type": "address"
        }
      ],
      "name": "decreaseAllowance",
      "outputs": [],
      "stateMutability": "nonpayable",
      "type": "function"
    },
    {
      "inputs": [
        {
          "internalType": "address",
          "name": "_bondContract",
          "type": "address"
        }
      ],
      "name": "denomination",
      "outputs": [
        {
          "internalType": "uint256",
          "name": "",
          "type": "uint256"
        }
      ],
      "stateMutability": "view",
      "type": "function"
    },
    {
      "inputs": [
        {
          "internalType": "address",
          "name": "_account",
          "type": "address"
        },
        {
          "internalType": "address",
          "name": "_bondContract",
          "type": "address"
        }
      ],
      "name": "isInvestors",
      "outputs": [
        {
          "internalType": "bool",
          "name": "",
          "type": "bool"
        }
      ],
      "stateMutability": "view",
      "type": "function"
    },
    {
      "inputs": [
        {
          "internalType": "address",
          "name": "_bondContract",
          "type": "address"
        }
      ],
      "name": "isin",
      "outputs": [
        {
          "internalType": "string",
          "name": "",
          "type": "string"
        }
      ],
      "stateMutability": "view",
      "type": "function"
    },
    {
      "inputs": [
        {
          "internalType": "address",
          "name": "_bondContract",
          "type": "address"
        }
      ],
      "name": "issueDate",
      "outputs": [
        {
          "internalType": "uint256",
          "name": "",
          "type": "uint256"
        }
      ],
      "stateMutability": "view",
      "type": "function"
    },
    {
      "inputs": [
        {
          "internalType": "address",
          "name": "_bondContract",
          "type": "address"
        }
      ],
      "name": "issueVolume",
      "outputs": [
        {
          "internalType": "uint256",
          "name": "",
          "type": "uint256"
        }
      ],
      "stateMutability": "view",
      "type": "function"
    },
    {
      "inputs": [
        {
          "internalType": "address",
          "name": "_bondContract",
          "type": "address"
        }
      ],
      "name": "issuerInfo",
      "outputs": [
        {
          "internalType": "address",
          "name": "",
          "type": "address"
        }
      ],
      "stateMutability": "view",
      "type": "function"
    },
    {
      "inputs": [
        {
          "internalType": "address",
          "name": "_bondContract",
          "type": "address"
        }
      ],
      "name": "listOfInvestors",
      "outputs": [
        {
          "components": [
            {
              "internalType": "address",
              "name": "investor",
              "type": "address"
            },
            {
              "internalType": "uint256",
              "name": "amount",
              "type": "uint256"
            }
          ],
          "internalType": "struct BondData.DealInvestment[]",
          "name": "",
          "type": "tuple[]"
        }
      ],
      "stateMutability": "view",
      "type": "function"
    },
    {
      "inputs": [
        {
          "internalType": "address",
          "name": "_bondContract",
          "type": "address"
        }
      ],
      "name": "maturityDate",
      "outputs": [
        {
          "internalType": "uint256",
          "name": "",
          "type": "uint256"
        }
      ],
      "stateMutability": "view",
      "type": "function"
    },
    {
      "inputs": [
        {
          "internalType": "address",
          "name": "_bondContract",
          "type": "address"
        }
      ],
      "name": "name",
      "outputs": [
        {
          "internalType": "string",
          "name": "",
          "type": "string"
        }
      ],
      "stateMutability": "view",
      "type": "function"
    },
    {
      "inputs": [
        {
          "internalType": "address",
          "name": "_account",
          "type": "address"
        },
        {
          "internalType": "address",
          "name": "_bondContract",
          "type": "address"
        }
      ],
      "name": "principalOf",
      "outputs": [
        {
          "internalType": "uint256",
          "name": "",
          "type": "uint256"
        }
      ],
      "stateMutability": "view",
      "type": "function"
    },
    {
      "inputs": [
        {
          "internalType": "address",
          "name": "_bondContract",
          "type": "address"
        }
      ],
      "name": "symbol",
      "outputs": [
        {
          "internalType": "string",
          "name": "",
          "type": "string"
        }
      ],
      "stateMutability": "view",
      "type": "function"
    },
    {
      "inputs": [
        {
          "internalType": "address",
          "name": "_to",
          "type": "address"
        },
        {
          "internalType": "uint256",
          "name": "_amount",
          "type": "uint256"
        },
        {
          "internalType": "bytes",
          "name": "_data",
          "type": "bytes"
        },
        {
          "internalType": "address",
          "name": "_bondContract",
          "type": "address"
        }
      ],
      "name": "transfer",
      "outputs": [],
      "stateMutability": "nonpayable",
      "type": "function"
    },
    {
      "inputs": [
        {
          "internalType": "address",
          "name": "_from",
          "type": "address"
        },
        {
          "internalType": "address",
          "name": "_to",
          "type": "address"
        },
        {
          "internalType": "uint256",
          "name": "_amount",
          "type": "uint256"
        },
        {
          "internalType": "bytes",
          "name": "_data",
          "type": "bytes"
        },
        {
          "internalType": "address",
          "name": "_bondContract",
          "type": "address"
        }
      ],
      "name": "transferFrom",
      "outputs": [],
      "stateMutability": "nonpayable",
      "type": "function"
    }
  ],
  "bytecode": "0x608060405234801561001057600080fd5b50612320806100206000396000f3fe608060405234801561001057600080fd5b50600436106101a95760003560e01c80638eb37014116100f9578063be875e4f11610097578063cd1234b311610071578063cd1234b3146105c2578063db288769146105f2578063ef53573c14610622578063efa3404f14610652576101a9565b8063be875e4f14610532578063c71ea1c214610562578063c8d12bb914610592576101a9565b8063927da105116100d3578063927da10514610486578063a86e3576146104b6578063b2a7bd19146104e6578063ba52305314610502576101a9565b80638eb370141461040a5780638fea1e4d1461043a57806390c2b17d14610456576101a9565b80633c39751f116101665780636a72754a116101405780636a72754a1461034a5780637b2bd98d1461037a5780637ce73895146103aa57806388fa1f74146103da576101a9565b80633c39751f146102ba5780634f254d98146102ea57806366ac49c91461031a576101a9565b806301984892146101ae5780631271f09a146101de57806319ebf028146101fa5780631b993b4f1461022a578063322b5c611461025a578063327c7c0f1461028a575b600080fd5b6101c860048036038101906101c3919061147b565b61066e565b6040516101d59190611538565b60405180910390f35b6101f860048036038101906101f39190611590565b6106eb565b005b610214600480360381019061020f919061147b565b61076f565b60405161022191906115f2565b60405180910390f35b610244600480360381019061023f919061160d565b6107e7565b6040516102519190611668565b60405180910390f35b610274600480360381019061026f919061147b565b61086b565b60405161028191906115f2565b60405180910390f35b6102a4600480360381019061029f919061147b565b6108e3565b6040516102b19190611692565b60405180910390f35b6102d460048036038101906102cf919061147b565b61095b565b6040516102e19190611538565b60405180910390f35b61030460048036038101906102ff919061147b565b6109d8565b60405161031191906115f2565b60405180910390f35b610334600480360381019061032f919061147b565b610a50565b6040516103419190611692565b60405180910390f35b610364600480360381019061035f919061147b565b610ac8565b6040516103719190611724565b60405180910390f35b610394600480360381019061038f919061147b565b610b40565b6040516103a19190611692565b60405180910390f35b6103c460048036038101906103bf919061147b565b610bb8565b6040516103d19190611538565b60405180910390f35b6103f460048036038101906103ef919061147b565b610c35565b6040516104019190611692565b60405180910390f35b610424600480360381019061041f919061147b565b610cad565b60405161043191906115f2565b60405180910390f35b610454600480360381019061044f9190611590565b610d25565b005b610470600480360381019061046b919061147b565b610d97565b60405161047d91906115f2565b60405180910390f35b6104a0600480360381019061049b919061173f565b610e0f565b6040516104ad9190611692565b60405180910390f35b6104d060048036038101906104cb919061147b565b610e96565b6040516104dd9190611538565b60405180910390f35b61050060048036038101906104fb91906117f7565b610f13565b005b61051c6004803603810190610517919061147b565b610fa0565b6040516105299190611692565b60405180910390f35b61054c6004803603810190610547919061160d565b611018565b6040516105599190611692565b60405180910390f35b61057c6004803603810190610577919061147b565b61109c565b604051610589919061198d565b60405180910390f35b6105ac60048036038101906105a7919061147b565b611119565b6040516105b99190611692565b60405180910390f35b6105dc60048036038101906105d7919061147b565b611191565b6040516105e99190611b12565b60405180910390f35b61060c6004803603810190610607919061147b565b611214565b6040516106199190611692565b60405180910390f35b61063c6004803603810190610637919061147b565b61128f565b6040516106499190611538565b60405180910390f35b61066c60048036038101906106679190611b34565b61130c565b005b60608173ffffffffffffffffffffffffffffffffffffffff166306fdde036040518163ffffffff1660e01b8152600401600060405180830381865afa1580156106bb573d6000803e3d6000fd5b505050506040513d6000823e3d601f19601f820116820180604052508101906106e49190611cdd565b9050919050565b8073ffffffffffffffffffffffffffffffffffffffff1663095ea7b384846040518363ffffffff1660e01b8152600401610726929190611d26565b6020604051808303816000875af1158015610745573d6000803e3d6000fd5b505050506040513d601f19601f820116820180604052508101906107699190611d7b565b50505050565b60008173ffffffffffffffffffffffffffffffffffffffff1663e5a6b10f6040518163ffffffff1660e01b8152600401602060405180830381865afa1580156107bc573d6000803e3d6000fd5b505050506040513d601f19601f820116820180604052508101906107e09190611dbd565b9050919050565b60008173ffffffffffffffffffffffffffffffffffffffff16632352c788846040518263ffffffff1660e01b815260040161082291906115f2565b602060405180830381865afa15801561083f573d6000803e3d6000fd5b505050506040513d601f19601f820116820180604052508101906108639190611d7b565b905092915050565b60008173ffffffffffffffffffffffffffffffffffffffff1663363cc4276040518163ffffffff1660e01b8152600401602060405180830381865afa1580156108b8573d6000803e3d6000fd5b505050506040513d601f19601f820116820180604052508101906108dc9190611dbd565b9050919050565b60008173ffffffffffffffffffffffffffffffffffffffff1663c0bcb26f6040518163ffffffff1660e01b8152600401602060405180830381865afa158015610930573d6000803e3d6000fd5b505050506040513d601f19601f820116820180604052508101906109549190611dff565b9050919050565b60608173ffffffffffffffffffffffffffffffffffffffff16631ec647746040518163ffffffff1660e01b8152600401600060405180830381865afa1580156109a8573d6000803e3d6000fd5b505050506040513d6000823e3d601f19601f820116820180604052508101906109d19190611cdd565b9050919050565b60008173ffffffffffffffffffffffffffffffffffffffff16635e43522e6040518163ffffffff1660e01b8152600401602060405180830381865afa158015610a25573d6000803e3d6000fd5b505050506040513d601f19601f82011682018060405250810190610a499190611dbd565b9050919050565b60008173ffffffffffffffffffffffffffffffffffffffff1663d59624b46040518163ffffffff1660e01b8152600401602060405180830381865afa158015610a9d573d6000803e3d6000fd5b505050506040513d601f19601f82011682018060405250810190610ac19190611dff565b9050919050565b60008173ffffffffffffffffffffffffffffffffffffffff1663c16aa7796040518163ffffffff1660e01b8152600401602060405180830381865afa158015610b15573d6000803e3d6000fd5b505050506040513d601f19601f82011682018060405250810190610b399190611e51565b9050919050565b60008173ffffffffffffffffffffffffffffffffffffffff16635eb0b3d06040518163ffffffff1660e01b8152600401602060405180830381865afa158015610b8d573d6000803e3d6000fd5b505050506040513d601f19601f82011682018060405250810190610bb19190611dff565b9050919050565b60608173ffffffffffffffffffffffffffffffffffffffff166382d5a60d6040518163ffffffff1660e01b8152600401600060405180830381865afa158015610c05573d6000803e3d6000fd5b505050506040513d6000823e3d601f19601f82011682018060405250810190610c2e9190611cdd565b9050919050565b60008173ffffffffffffffffffffffffffffffffffffffff16638d1343e06040518163ffffffff1660e01b8152600401602060405180830381865afa158015610c82573d6000803e3d6000fd5b505050506040513d601f19601f82011682018060405250810190610ca69190611dff565b9050919050565b60008173ffffffffffffffffffffffffffffffffffffffff166307c2e4496040518163ffffffff1660e01b8152600401602060405180830381865afa158015610cfa573d6000803e3d6000fd5b505050506040513d601f19601f82011682018060405250810190610d1e9190611dbd565b9050919050565b8073ffffffffffffffffffffffffffffffffffffffff1663a457c2d784846040518363ffffffff1660e01b8152600401610d60929190611d26565b600060405180830381600087803b158015610d7a57600080fd5b505af1158015610d8e573d6000803e3d6000fd5b50505050505050565b60008173ffffffffffffffffffffffffffffffffffffffff166303bbc8ab6040518163ffffffff1660e01b8152600401602060405180830381865afa158015610de4573d6000803e3d6000fd5b505050506040513d601f19601f82011682018060405250810190610e089190611dbd565b9050919050565b60008173ffffffffffffffffffffffffffffffffffffffff1663dd62ed3e85856040518363ffffffff1660e01b8152600401610e4c929190611e7e565b602060405180830381865afa158015610e69573d6000803e3d6000fd5b505050506040513d601f19601f82011682018060405250810190610e8d9190611dff565b90509392505050565b60608173ffffffffffffffffffffffffffffffffffffffff166395d89b416040518163ffffffff1660e01b8152600401600060405180830381865afa158015610ee3573d6000803e3d6000fd5b505050506040513d6000823e3d601f19601f82011682018060405250810190610f0c9190611cdd565b9050919050565b8073ffffffffffffffffffffffffffffffffffffffff1663ab67aa5887878787876040518663ffffffff1660e01b8152600401610f54959493929190611ef4565b6020604051808303816000875af1158015610f73573d6000803e3d6000fd5b505050506040513d601f19601f82011682018060405250810190610f979190611d7b565b50505050505050565b60008173ffffffffffffffffffffffffffffffffffffffff1663710d33296040518163ffffffff1660e01b8152600401602060405180830381865afa158015610fed573d6000803e3d6000fd5b505050506040513d601f19601f820116820180604052508101906110119190611dff565b9050919050565b60008173ffffffffffffffffffffffffffffffffffffffff166361e20a1c846040518263ffffffff1660e01b815260040161105391906115f2565b602060405180830381865afa158015611070573d6000803e3d6000fd5b505050506040513d601f19601f820116820180604052508101906110949190611dff565b905092915050565b60608173ffffffffffffffffffffffffffffffffffffffff16638db6f28a6040518163ffffffff1660e01b8152600401600060405180830381865afa1580156110e9573d6000803e3d6000fd5b505050506040513d6000823e3d601f19601f82011682018060405250810190611112919061205f565b9050919050565b60008173ffffffffffffffffffffffffffffffffffffffff16638bca6d166040518163ffffffff1660e01b8152600401602060405180830381865afa158015611166573d6000803e3d6000fd5b505050506040513d601f19601f8201168201806040525081019061118a9190611dff565b9050919050565b611199611396565b8173ffffffffffffffffffffffffffffffffffffffff1663f3b39b5b6040518163ffffffff1660e01b8152600401600060405180830381865afa1580156111e4573d6000803e3d6000fd5b505050506040513d6000823e3d601f19601f8201168201806040525081019061120d9190612234565b9050919050565b60008173ffffffffffffffffffffffffffffffffffffffff1663045017ce6040518163ffffffff1660e01b8152600401602060405180830381865afa158015611261573d6000803e3d6000fd5b505050506040513d601f19601f82011682018060405250810190611285919061227d565b60ff169050919050565b60608173ffffffffffffffffffffffffffffffffffffffff166373975df16040518163ffffffff1660e01b8152600401600060405180830381865afa1580156112dc573d6000803e3d6000fd5b505050506040513d6000823e3d601f19601f820116820180604052508101906113059190611cdd565b9050919050565b8073ffffffffffffffffffffffffffffffffffffffff1663be45fd62868686866040518563ffffffff1660e01b815260040161134b94939291906122aa565b6020604051808303816000875af115801561136a573d6000803e3d6000fd5b505050506040513d601f19601f8201168201806040525081019061138e9190611d7b565b505050505050565b604051806101600160405280606081526020016060815260200160608152602001600073ffffffffffffffffffffffffffffffffffffffff168152602001600081526020016000815260200160008152602001600060ff1681526020016000815260200160008152602001600081525090565b6000604051905090565b600080fd5b600080fd5b600073ffffffffffffffffffffffffffffffffffffffff82169050919050565b60006114488261141d565b9050919050565b6114588161143d565b811461146357600080fd5b50565b6000813590506114758161144f565b92915050565b60006020828403121561149157611490611413565b5b600061149f84828501611466565b91505092915050565b600081519050919050565b600082825260208201905092915050565b60005b838110156114e25780820151818401526020810190506114c7565b60008484015250505050565b6000601f19601f8301169050919050565b600061150a826114a8565b61151481856114b3565b93506115248185602086016114c4565b61152d816114ee565b840191505092915050565b6000602082019050818103600083015261155281846114ff565b905092915050565b6000819050919050565b61156d8161155a565b811461157857600080fd5b50565b60008135905061158a81611564565b92915050565b6000806000606084860312156115a9576115a8611413565b5b60006115b786828701611466565b93505060206115c88682870161157b565b92505060406115d986828701611466565b9150509250925092565b6115ec8161143d565b82525050565b600060208201905061160760008301846115e3565b92915050565b6000806040838503121561162457611623611413565b5b600061163285828601611466565b925050602061164385828601611466565b9150509250929050565b60008115159050919050565b6116628161164d565b82525050565b600060208201905061167d6000830184611659565b92915050565b61168c8161155a565b82525050565b60006020820190506116a76000830184611683565b92915050565b7f4e487b7100000000000000000000000000000000000000000000000000000000600052602160045260246000fd5b600281106116ed576116ec6116ad565b5b50565b60008190506116fe826116dc565b919050565b600061170e826116f0565b9050919050565b61171e81611703565b82525050565b60006020820190506117396000830184611715565b92915050565b60008060006060848603121561175857611757611413565b5b600061176686828701611466565b935050602061177786828701611466565b925050604061178886828701611466565b9150509250925092565b600080fd5b600080fd5b600080fd5b60008083601f8401126117b7576117b6611792565b5b8235905067ffffffffffffffff8111156117d4576117d3611797565b5b6020830191508360018202830111156117f0576117ef61179c565b5b9250929050565b60008060008060008060a0878903121561181457611813611413565b5b600061182289828a01611466565b965050602061183389828a01611466565b955050604061184489828a0161157b565b945050606087013567ffffffffffffffff81111561186557611864611418565b5b61187189828a016117a1565b9350935050608061188489828a01611466565b9150509295509295509295565b600081519050919050565b600082825260208201905092915050565b6000819050602082019050919050565b6118c68161143d565b82525050565b6118d58161155a565b82525050565b6040820160008201516118f160008501826118bd565b50602082015161190460208501826118cc565b50505050565b600061191683836118db565b60408301905092915050565b6000602082019050919050565b600061193a82611891565b611944818561189c565b935061194f836118ad565b8060005b83811015611980578151611967888261190a565b975061197283611922565b925050600181019050611953565b5085935050505092915050565b600060208201905081810360008301526119a7818461192f565b905092915050565b600082825260208201905092915050565b60006119cb826114a8565b6119d581856119af565b93506119e58185602086016114c4565b6119ee816114ee565b840191505092915050565b600060ff82169050919050565b611a0f816119f9565b82525050565b6000610160830160008301518482036000860152611a3382826119c0565b91505060208301518482036020860152611a4d82826119c0565b91505060408301518482036040860152611a6782826119c0565b9150506060830151611a7c60608601826118bd565b506080830151611a8f60808601826118cc565b5060a0830151611aa260a08601826118cc565b5060c0830151611ab560c08601826118cc565b5060e0830151611ac860e0860182611a06565b50610100830151611add6101008601826118cc565b50610120830151611af26101208601826118cc565b50610140830151611b076101408601826118cc565b508091505092915050565b60006020820190508181036000830152611b2c8184611a15565b905092915050565b600080600080600060808688031215611b5057611b4f611413565b5b6000611b5e88828901611466565b9550506020611b6f8882890161157b565b945050604086013567ffffffffffffffff811115611b9057611b8f611418565b5b611b9c888289016117a1565b93509350506060611baf88828901611466565b9150509295509295909350565b600080fd5b7f4e487b7100000000000000000000000000000000000000000000000000000000600052604160045260246000fd5b611bf9826114ee565b810181811067ffffffffffffffff82111715611c1857611c17611bc1565b5b80604052505050565b6000611c2b611409565b9050611c378282611bf0565b919050565b600067ffffffffffffffff821115611c5757611c56611bc1565b5b611c60826114ee565b9050602081019050919050565b6000611c80611c7b84611c3c565b611c21565b905082815260208101848484011115611c9c57611c9b611bbc565b5b611ca78482856114c4565b509392505050565b600082601f830112611cc457611cc3611792565b5b8151611cd4848260208601611c6d565b91505092915050565b600060208284031215611cf357611cf2611413565b5b600082015167ffffffffffffffff811115611d1157611d10611418565b5b611d1d84828501611caf565b91505092915050565b6000604082019050611d3b60008301856115e3565b611d486020830184611683565b9392505050565b611d588161164d565b8114611d6357600080fd5b50565b600081519050611d7581611d4f565b92915050565b600060208284031215611d9157611d90611413565b5b6000611d9f84828501611d66565b91505092915050565b600081519050611db78161144f565b92915050565b600060208284031215611dd357611dd2611413565b5b6000611de184828501611da8565b91505092915050565b600081519050611df981611564565b92915050565b600060208284031215611e1557611e14611413565b5b6000611e2384828501611dea565b91505092915050565b60028110611e3957600080fd5b50565b600081519050611e4b81611e2c565b92915050565b600060208284031215611e6757611e66611413565b5b6000611e7584828501611e3c565b91505092915050565b6000604082019050611e9360008301856115e3565b611ea060208301846115e3565b9392505050565b600082825260208201905092915050565b82818337600083830152505050565b6000611ed38385611ea7565b9350611ee0838584611eb8565b611ee9836114ee565b840190509392505050565b6000608082019050611f0960008301886115e3565b611f1660208301876115e3565b611f236040830186611683565b8181036060830152611f36818486611ec7565b90509695505050505050565b600067ffffffffffffffff821115611f5d57611f5c611bc1565b5b602082029050602081019050919050565b600080fd5b600080fd5b600060408284031215611f8e57611f8d611f6e565b5b611f986040611c21565b90506000611fa884828501611da8565b6000830152506020611fbc84828501611dea565b60208301525092915050565b6000611fdb611fd684611f42565b611c21565b90508083825260208201905060408402830185811115611ffe57611ffd61179c565b5b835b8181101561202757806120138882611f78565b845260208401935050604081019050612000565b5050509392505050565b600082601f83011261204657612045611792565b5b8151612056848260208601611fc8565b91505092915050565b60006020828403121561207557612074611413565b5b600082015167ffffffffffffffff81111561209357612092611418565b5b61209f84828501612031565b91505092915050565b6120b1816119f9565b81146120bc57600080fd5b50565b6000815190506120ce816120a8565b92915050565b600061016082840312156120eb576120ea611f6e565b5b6120f6610160611c21565b9050600082015167ffffffffffffffff81111561211657612115611f73565b5b61212284828501611caf565b600083015250602082015167ffffffffffffffff81111561214657612145611f73565b5b61215284828501611caf565b602083015250604082015167ffffffffffffffff81111561217657612175611f73565b5b61218284828501611caf565b604083015250606061219684828501611da8565b60608301525060806121aa84828501611dea565b60808301525060a06121be84828501611dea565b60a08301525060c06121d284828501611dea565b60c08301525060e06121e6848285016120bf565b60e0830152506101006121fb84828501611dea565b6101008301525061012061221184828501611dea565b6101208301525061014061222784828501611dea565b6101408301525092915050565b60006020828403121561224a57612249611413565b5b600082015167ffffffffffffffff81111561226857612267611418565b5b612274848285016120d4565b91505092915050565b60006020828403121561229357612292611413565b5b60006122a1848285016120bf565b91505092915050565b60006060820190506122bf60008301876115e3565b6122cc6020830186611683565b81810360408301526122df818486611ec7565b90509594505050505056fea264697066735822122023a8e917c6c59c129d3329642485e99ac978b07c6315f1364abe779dfb6f3f3664736f6c63430008130033",
  "linkReferences": {},
  "deployedLinkReferences": {}
}