{
  "_format": "hh-sol-artifact-1",
  "contractName": "BondCall",
  "sourceName": "contracts/BondCall.sol",
  "abi": [
    {
      "inputs": [
        {
          "internalType": "address",
          "name": "_owner",
          "type": "address"
        },
        {
          "internalType": "address",
          "name": "_spender",
          "type": "address"
        },
        {
          "internalType": "address",
          "name": "_bondContract",
          "type": "address"
        }
      ],
      "name": "allowance",
      "outputs": [
        {
          "internalType": "uint256",
          "name": "",
          "type": "uint256"
        }
      ],
      "stateMutability": "view",
      "type": "function"
    },
    {
      "inputs": [
        {
          "internalType": "address",
          "name": "_spender",
          "type": "address"
        },
        {
          "internalType": "uint256",
          "name": "_amount",
          "type": "uint256"
        },
        {
          "internalType": "address",
          "name": "_bondContract",
          "type": "address"
        }
      ],
      "name": "approve",
      "outputs": [],
      "stateMutability": "nonpayable",
      "type": "function"
    },
    {
      "inputs": [
        {
          "internalType": "address",
          "name": "_bondContract",
          "type": "address"
        }
      ],
      "name": "bankContract",
      "outputs": [
        {
          "internalType": "address",
          "name": "",
          "type": "address"
        }
      ],
      "stateMutability": "view",
      "type": "function"
    },
    {
      "inputs": [
        {
          "internalType": "address",
          "name": "_bondContract",
          "type": "address"
        }
      ],
      "name": "bondCallContract",
      "outputs": [
        {
          "internalType": "address",
          "name": "",
          "type": "address"
        }
      ],
      "stateMutability": "view",
      "type": "function"
    },
    {
      "inputs": [
        {
          "internalType": "address",
          "name": "_bondContract",
          "type": "address"
        }
      ],
      "name": "bondInfo",
      "outputs": [
        {
          "components": [
            {
              "internalType": "string",
              "name": "isin",
              "type": "string"
            },
            {
              "internalType": "string",
              "name": "name",
              "type": "string"
            },
            {
              "internalType": "string",
              "name": "symbol",
              "type": "string"
            },
            {
              "internalType": "address",
              "name": "currency",
              "type": "address"
            },
            {
              "internalType": "uint256",
              "name": "denomination",
              "type": "uint256"
            },
            {
              "internalType": "uint256",
              "name": "issueVolume",
              "type": "uint256"
            },
            {
              "internalType": "uint256",
              "name": "couponRate",
              "type": "uint256"
            },
            {
              "internalType": "uint8",
              "name": "couponType",
              "type": "uint8"
            },
            {
              "internalType": "uint256",
              "name": "couponFrequency",
              "type": "uint256"
            },
            {
              "internalType": "uint256",
              "name": "issueDate",
              "type": "uint256"
            },
            {
              "internalType": "uint256",
              "name": "maturityDate",
              "type": "uint256"
            }
          ],
          "internalType": "struct BondData.Bond",
          "name": "",
          "type": "tuple"
        }
      ],
      "stateMutability": "view",
      "type": "function"
    },
    {
      "inputs": [
        {
          "internalType": "address",
          "name": "_bondContract",
          "type": "address"
        }
      ],
      "name": "bondManager",
      "outputs": [
        {
          "internalType": "address",
          "name": "",
          "type": "address"
        }
      ],
      "stateMutability": "view",
      "type": "function"
    },
    {
      "inputs": [
        {
          "internalType": "address",
          "name": "_bondContract",
          "type": "address"
        }
      ],
      "name": "bondStatus",
      "outputs": [
        {
          "internalType": "enum BondData.BondStatus",
          "name": "",
          "type": "uint8"
        }
      ],
      "stateMutability": "view",
      "type": "function"
    },
    {
      "inputs": [
        {
          "internalType": "address",
          "name": "_bondContract",
          "type": "address"
        }
      ],
      "name": "countryOfIssuance",
      "outputs": [
        {
          "internalType": "string",
          "name": "",
          "type": "string"
        }
      ],
      "stateMutability": "view",
      "type": "function"
    },
    {
      "inputs": [
        {
          "internalType": "address",
          "name": "_bondContract",
          "type": "address"
        }
      ],
      "name": "couponFrequency",
      "outputs": [
        {
          "internalType": "uint256",
          "name": "",
          "type": "uint256"
        }
      ],
      "stateMutability": "view",
      "type": "function"
    },
    {
      "inputs": [
        {
          "internalType": "address",
          "name": "_bondContract",
          "type": "address"
        }
      ],
      "name": "couponRate",
      "outputs": [
        {
          "internalType": "uint256",
          "name": "",
          "type": "uint256"
        }
      ],
      "stateMutability": "view",
      "type": "function"
    },
    {
      "inputs": [
        {
          "internalType": "address",
          "name": "_bondContract",
          "type": "address"
        }
      ],
      "name": "couponType",
      "outputs": [
        {
          "internalType": "uint256",
          "name": "",
          "type": "uint256"
        }
      ],
      "stateMutability": "view",
      "type": "function"
    },
    {
      "inputs": [
        {
          "internalType": "address",
          "name": "_bondContract",
          "type": "address"
        }
      ],
      "name": "currency",
      "outputs": [
        {
          "internalType": "address",
          "name": "",
          "type": "address"
        }
      ],
      "stateMutability": "view",
      "type": "function"
    },
    {
      "inputs": [
        {
          "internalType": "address",
          "name": "_bondContract",
          "type": "address"
        }
      ],
      "name": "dealID",
      "outputs": [
        {
          "internalType": "string",
          "name": "",
          "type": "string"
        }
      ],
      "stateMutability": "view",
      "type": "function"
    },
    {
      "inputs": [
        {
          "internalType": "address",
          "name": "_spender",
          "type": "address"
        },
        {
          "internalType": "uint256",
          "name": "_amount",
          "type": "uint256"
        },
        {
          "internalType": "address",
          "name": "_bondContract",
          "type": "address"
        }
      ],
      "name": "decreaseAllowance",
      "outputs": [],
      "stateMutability": "nonpayable",
      "type": "function"
    },
    {
      "inputs": [
        {
          "internalType": "address",
          "name": "_bondContract",
          "type": "address"
        }
      ],
      "name": "denomination",
      "outputs": [
        {
          "internalType": "uint256",
          "name": "",
          "type": "uint256"
        }
      ],
      "stateMutability": "view",
      "type": "function"
    },
    {
      "inputs": [
        {
          "internalType": "address",
          "name": "_account",
          "type": "address"
        },
        {
          "internalType": "address",
          "name": "_bondContract",
          "type": "address"
        }
      ],
      "name": "isInvestors",
      "outputs": [
        {
          "internalType": "bool",
          "name": "",
          "type": "bool"
        }
      ],
      "stateMutability": "view",
      "type": "function"
    },
    {
      "inputs": [
        {
          "internalType": "address",
          "name": "_bondContract",
          "type": "address"
        }
      ],
      "name": "isin",
      "outputs": [
        {
          "internalType": "string",
          "name": "",
          "type": "string"
        }
      ],
      "stateMutability": "view",
      "type": "function"
    },
    {
      "inputs": [
        {
          "internalType": "address",
          "name": "_bondContract",
          "type": "address"
        }
      ],
      "name": "issueDate",
      "outputs": [
        {
          "internalType": "uint256",
          "name": "",
          "type": "uint256"
        }
      ],
      "stateMutability": "view",
      "type": "function"
    },
    {
      "inputs": [
        {
          "internalType": "address",
          "name": "_bondContract",
          "type": "address"
        }
      ],
      "name": "issueVolume",
      "outputs": [
        {
          "internalType": "uint256",
          "name": "",
          "type": "uint256"
        }
      ],
      "stateMutability": "view",
      "type": "function"
    },
    {
      "inputs": [
        {
          "internalType": "address",
          "name": "_bondContract",
          "type": "address"
        }
      ],
      "name": "issuerInfo",
      "outputs": [
        {
          "internalType": "address",
          "name": "",
          "type": "address"
        }
      ],
      "stateMutability": "view",
      "type": "function"
    },
    {
      "inputs": [
        {
          "internalType": "address",
          "name": "_bondContract",
          "type": "address"
        }
      ],
      "name": "listOfInvestors",
      "outputs": [
        {
          "components": [
            {
              "internalType": "address",
              "name": "investor",
              "type": "address"
            },
            {
              "internalType": "uint256",
              "name": "amount",
              "type": "uint256"
            }
          ],
          "internalType": "struct BondData.DealInvestment[]",
          "name": "",
          "type": "tuple[]"
        }
      ],
      "stateMutability": "view",
      "type": "function"
    },
    {
      "inputs": [
        {
          "internalType": "address",
          "name": "_bondContract",
          "type": "address"
        }
      ],
      "name": "maturityDate",
      "outputs": [
        {
          "internalType": "uint256",
          "name": "",
          "type": "uint256"
        }
      ],
      "stateMutability": "view",
      "type": "function"
    },
    {
      "inputs": [
        {
          "internalType": "address",
          "name": "_bondContract",
          "type": "address"
        }
      ],
      "name": "name",
      "outputs": [
        {
          "internalType": "string",
          "name": "",
          "type": "string"
        }
      ],
      "stateMutability": "view",
      "type": "function"
    },
    {
      "inputs": [
        {
          "internalType": "address",
          "name": "_account",
          "type": "address"
        },
        {
          "internalType": "address",
          "name": "_bondContract",
          "type": "address"
        }
      ],
      "name": "principalOf",
      "outputs": [
        {
          "internalType": "uint256",
          "name": "",
          "type": "uint256"
        }
      ],
      "stateMutability": "view",
      "type": "function"
    },
    {
      "inputs": [
        {
          "internalType": "address",
          "name": "_bondContract",
          "type": "address"
        }
      ],
      "name": "symbol",
      "outputs": [
        {
          "internalType": "string",
          "name": "",
          "type": "string"
        }
      ],
      "stateMutability": "view",
      "type": "function"
    },
    {
      "inputs": [
        {
          "internalType": "address",
          "name": "_to",
          "type": "address"
        },
        {
          "internalType": "uint256",
          "name": "_amount",
          "type": "uint256"
        },
        {
          "internalType": "bytes",
          "name": "_data",
          "type": "bytes"
        },
        {
          "internalType": "address",
          "name": "_bondContract",
          "type": "address"
        }
      ],
      "name": "transfer",
      "outputs": [],
      "stateMutability": "nonpayable",
      "type": "function"
    },
    {
      "inputs": [
        {
          "internalType": "address",
          "name": "_from",
          "type": "address"
        },
        {
          "internalType": "address",
          "name": "_to",
          "type": "address"
        },
        {
          "internalType": "uint256",
          "name": "_amount",
          "type": "uint256"
        },
        {
          "internalType": "bytes",
          "name": "_data",
          "type": "bytes"
        },
        {
          "internalType": "address",
          "name": "_bondContract",
          "type": "address"
        }
      ],
      "name": "transferFrom",
      "outputs": [],
      "stateMutability": "nonpayable",
      "type": "function"
    }
  ],
  "bytecode": "0x60808060405234610016576115ac908161001c8239f35b600080fdfe608060408181526004908136101561001657600080fd5b60009260e08435811c9185836301984892146112e557505081631271f09a1461126357816319ebf028146111f85781631b993b4f1461115e578163322b5c61146110f3578163327c7c0f1461108b5781633c39751f146110165781634f254d9814610fab57816366ac49c914610f435781636a72754a14610e775781637b2bd98d14610e0f5781637ce7389514610d9a57816388fa1f7414610cff5781638eb3701414610c945781638fea1e4d14610bd957816390c2b17d14610b33578163927da10514610aa3578163a86e357614610a2e578163b2a7bd191461097a578163ba52305314610914578163be875e4f1461085b578163c71ea1c2146106a3578163c8d12bb91461060d578163cd1234b3146103ac57508063db288769146102f1578063ef53573c146102495763efa3404f1461015157600080fd5b346102455760803660031901126102455761016a611375565b60443567ffffffffffffffff811161024157610189903690850161141d565b9390606435906001600160a01b039081831680930361023c576020946101f489928851998a97889687957fbe45fd6200000000000000000000000000000000000000000000000000000000875216908501526024356024850152606060448501526064840191611555565b03925af19081156102335750610208575080f35b6102289060203d811161022c575b610220818361147e565b81019061153d565b5080f35b503d610216565b513d84823e3d90fd5b600080fd5b8480fd5b8280fd5b503461024557602036600319011261024557826001600160a01b0361026c611375565b168251938480927f73975df10000000000000000000000000000000000000000000000000000000082525afa9182156102e757836102be94936102c2575b5050519182916020835260208301906113c4565b0390f35b6102df9293503d8091833e6102d7818361147e565b8101906114f5565b9038806102aa565b81513d85823e3d90fd5b508290346103a8576020928360031936011261024557836001600160a01b03610318611375565b168351928380927f045017ce0000000000000000000000000000000000000000000000000000000082525afa92831561039d57809361035e575b505060ff905191168152f35b909192508382813d8311610396575b610377818361147e565b81010312610393575061038b60ff9161152f565b919084610352565b80fd5b503d61036d565b8251903d90823e3d90fd5b5080fd5b828486346103935760209081600319360112610393576103ca611375565b928451916103d78361144b565b6060948584528585850152858785015281868501528160808501528160a08501528160c08501528188850152610100908282860152610120928084870152806101408097015280895180967ff3b39b5b000000000000000000000000000000000000000000000000000000008252816001600160a01b038096165afa948515610601578195610500575b50506104b99860ff9189519a8b9a898c528751998c8c6104a86104916101609e8f868601526101808501906113c4565b938c015193601f19948585830301878601526113c4565b938b015192828503019101526113c4565b988601511660808a0152608085015160a08a015260a085015160c08a015260c0850151818a0152840151168188015282015181870152810151828601520151908301520390f35b909194503d8083833e610513818361147e565b8101878282031261024557815167ffffffffffffffff92838211610241570191610160838303126105fd578a519361054a8561144b565b83518281116103a8578361055f9186016114a0565b8552898401518281116103a857836105789186016114a0565b8a8601528b84015191821161039357508261059d60ff95938a936104b99f96016114a0565b8c8401526105ac8b820161151b565b8b8401526080810151608084015260a081015160a084015260c081015160c08401526105d984820161152f565b84840152858101518684015286810151878401520151878201529491819a50610461565b8380fd5b508851903d90823e3d90fd5b838584346103a8576020928360031936011261024557836001600160a01b03610634611375565b168351928380927f8bca6d160000000000000000000000000000000000000000000000000000000082525afa92831561039d5792610674575b5051908152f35b9091508281813d831161069c575b61068c818361147e565b8101031261023c5751908361066d565b503d610682565b828585346103a85760209283600319360112610245576001600160a01b03938284866106cd611375565b168451928380927f8db6f28a0000000000000000000000000000000000000000000000000000000082525afa938415610851578594610752575b5050929080519380850191818652845180935281818701950193905b8382106107305786860387f35b8451805189168752830151868401529485019493820193600190910190610723565b909193503d8086843e610765818461147e565b820191848184031261084d57805167ffffffffffffffff9182821161084957019183601f8401121561084557825191808311610832578551946107ad888560051b018761147e565b838652878087019460061b8601019481861161082e578801935b8585106107dc57505050505050918580610707565b878583031261082e5787518881018181108582111761081957895288918a916108048861151b565b815282880151838201528152019401936107c7565b604186634e487b7160e01b6000525260246000fd5b8980fd5b602488604184634e487b7160e01b835252fd5b8680fd5b8780fd5b8580fd5b83513d87823e3d90fd5b838584346103a857806003193601126103a8576020610878611375565b60246001600160a01b03918261088c61138b565b16855197889485937f61e20a1c00000000000000000000000000000000000000000000000000000000855216908301525afa91821561090957916108d5575b6020925051908152f35b90506020823d8211610901575b816108ef6020938361147e565b8101031261023c5760209151906108cb565b3d91506108e2565b9051903d90823e3d90fd5b838584346103a8576020928360031936011261024557836001600160a01b0361093b611375565b168351928380927f710d33290000000000000000000000000000000000000000000000000000000082525afa92831561039d5792610674575051908152f35b5050346102455760a036600319011261024557610995611375565b61099d61138b565b9260643567ffffffffffffffff811161084d576109bd903690830161141d565b92608435916001600160a01b039182841680940361023c576101f48992602097858a519b8c998a9889977fab67aa5800000000000000000000000000000000000000000000000000000000895216908701521660248501526044356044850152608060648501526084840191611555565b50503461024557602036600319011261024557826001600160a01b03610a52611375565b168251938480927f95d89b410000000000000000000000000000000000000000000000000000000082525afa9182156102e757836102be94936102c2575050519182916020835260208301906113c4565b838584346103a85760603660031901126103a857610abf611375565b610ac761138b565b90604435916001600160a01b039182841680940361023c57602093836044938751998a9687957fdd62ed3e00000000000000000000000000000000000000000000000000000000875216908501521660248301525afa91821561090957916108d5576020925051908152f35b828585346103a85760209283600319360112610245576001600160a01b03918483610b5c611375565b168351928380927f03bbc8ab0000000000000000000000000000000000000000000000000000000082525afa93841561039d578094610b9f575b50505191168152f35b909193508482813d8311610bd2575b610bb8818361147e565b810103126103935750610bca9061151b565b918480610b96565b503d610bae565b505034610245576001600160a01b039183610bf3366113e9565b9590919516803b1561024557610c4d958386518098819582947fa457c2d7000000000000000000000000000000000000000000000000000000008452898401602090939291936001600160a01b0360408201951681520152565b03925af18015610c8a57610c5f578380f35b67ffffffffffffffff8311610c775750523880808380f35b836041602492634e487b7160e01b835252fd5b82513d86823e3d90fd5b828585346103a85760209283600319360112610245576001600160a01b03918483610cbd611375565b168351928380927f07c2e4490000000000000000000000000000000000000000000000000000000082525afa93841561039d578094610b9f5750505191168152f35b838584346103a8576020928360031936011261024557836001600160a01b03610d26611375565b168351928380927f8d1343e00000000000000000000000000000000000000000000000000000000082525afa92831561039d578093610d68575b505051908152f35b909192508382813d8311610d93575b610d81818361147e565b81010312610393575051908380610d60565b503d610d77565b50503461024557602036600319011261024557826001600160a01b03610dbe611375565b168251938480927f82d5a60d0000000000000000000000000000000000000000000000000000000082525afa9182156102e757836102be94936102c2575050519182916020835260208301906113c4565b838584346103a8576020928360031936011261024557836001600160a01b03610e36611375565b168351928380927f5eb0b3d00000000000000000000000000000000000000000000000000000000082525afa92831561039d578093610d6857505051908152f35b5050913461039357602092836003193601126103a857908291846001600160a01b03610ea1611375565b168251948580927fc16aa7790000000000000000000000000000000000000000000000000000000082525afa928315610f38578293610f00575b5051926002831015610eed5750508152f35b906021602492634e487b7160e01b835252fd5b9092508481813d8311610f31575b610f18818361147e565b810103126103a8575160028110156103a8579138610edb565b503d610f0e565b5051903d90823e3d90fd5b838584346103a8576020928360031936011261024557836001600160a01b03610f6a611375565b168351928380927fd59624b40000000000000000000000000000000000000000000000000000000082525afa92831561039d578093610d6857505051908152f35b828585346103a85760209283600319360112610245576001600160a01b03918483610fd4611375565b168351928380927f5e43522e0000000000000000000000000000000000000000000000000000000082525afa93841561039d578094610b9f5750505191168152f35b50503461024557602036600319011261024557826001600160a01b0361103a611375565b168251938480927f1ec647740000000000000000000000000000000000000000000000000000000082525afa9182156102e757836102be94936102c2575050519182916020835260208301906113c4565b838584346103a8576020928360031936011261024557836001600160a01b036110b2611375565b168351928380927fc0bcb26f0000000000000000000000000000000000000000000000000000000082525afa92831561039d578093610d6857505051908152f35b828585346103a85760209283600319360112610245576001600160a01b0391848361111c611375565b168351928380927f363cc4270000000000000000000000000000000000000000000000000000000082525afa93841561039d578094610b9f5750505191168152f35b505034610245578060031936011261024557602061117a611375565b60246001600160a01b03918261118e61138b565b16855196879485937f2352c78800000000000000000000000000000000000000000000000000000000855216908301525afa9182156102e757602093926111d9575b50519015158152f35b6111f1919250833d811161022c57610220818361147e565b90386111d0565b828585346103a85760209283600319360112610245576001600160a01b03918483611221611375565b168351928380927fe5a6b10f0000000000000000000000000000000000000000000000000000000082525afa93841561039d578094610b9f5750505191168152f35b5050346102455760206112d092846001600160a01b03611282366113e9565b93919290948751988996879586937f095ea7b30000000000000000000000000000000000000000000000000000000085528401602090939291936001600160a01b0360408201951681520152565b0393165af19081156102335750610208575080f35b90848287346103a85760203660031901126103a8578390816001600160a01b0361130d611375565b167f06fdde030000000000000000000000000000000000000000000000000000000082525afa9182156102e757836102be9493611358575050519182916020835260208301906113c4565b61136d9293503d8091833e6102d7818361147e565b9083806102aa565b600435906001600160a01b038216820361023c57565b602435906001600160a01b038216820361023c57565b60005b8381106113b45750506000910152565b81810151838201526020016113a4565b906020916113dd815180928185528580860191016113a1565b601f01601f1916010190565b606090600319011261023c576001600160a01b03600435818116810361023c579160243591604435908116810361023c5790565b9181601f8401121561023c5782359167ffffffffffffffff831161023c576020838186019501011161023c57565b610160810190811067ffffffffffffffff82111761146857604052565b634e487b7160e01b600052604160045260246000fd5b90601f8019910116810190811067ffffffffffffffff82111761146857604052565b81601f8201121561023c57805167ffffffffffffffff811161146857604051926114d4601f8301601f19166020018561147e565b8184526020828401011161023c576114f291602080850191016113a1565b90565b9060208282031261023c57815167ffffffffffffffff811161023c576114f292016114a0565b51906001600160a01b038216820361023c57565b519060ff8216820361023c57565b9081602091031261023c5751801515810361023c5790565b908060209392818452848401376000828201840152601f01601f191601019056fea264697066735822122046b7511366a607882bfc047e0d1590a7a5edec274aa59b894b6f8f544f42ce0c64736f6c63430008130033",
  "linkReferences": {},
  "deployedLinkReferences": {}
}