{
  "_format": "hh-sol-artifact-1",
  "contractName": "BondStorage",
  "sourceName": "contracts/BondStorage.sol",
  "abi": [
    {
      "inputs": [],
      "name": "bondManager",
      "outputs": [
        {
          "internalType": "address",
          "name": "",
          "type": "address"
        }
      ],
      "stateMutability": "view",
      "type": "function"
    },
    {
      "inputs": [],
      "name": "bondStatus",
      "outputs": [
        {
          "internalType": "enum BondData.BondStatus",
          "name": "",
          "type": "uint8"
        }
      ],
      "stateMutability": "view",
      "type": "function"
    },
    {
      "inputs": [
        {
          "internalType": "string",
          "name": "",
          "type": "string"
        }
      ],
      "name": "bonds",
      "outputs": [
        {
          "internalType": "string",
          "name": "isin",
          "type": "string"
        },
        {
          "internalType": "string",
          "name": "name",
          "type": "string"
        },
        {
          "internalType": "string",
          "name": "symbol",
          "type": "string"
        },
        {
          "internalType": "address",
          "name": "currency",
          "type": "address"
        },
        {
          "internalType": "uint256",
          "name": "denomination",
          "type": "uint256"
        },
        {
          "internalType": "uint256",
          "name": "issueVolume",
          "type": "uint256"
        },
        {
          "internalType": "uint256",
          "name": "couponRate",
          "type": "uint256"
        },
        {
          "internalType": "uint8",
          "name": "couponType",
          "type": "uint8"
        },
        {
          "internalType": "uint256",
          "name": "couponFrequency",
          "type": "uint256"
        },
        {
          "internalType": "uint256",
          "name": "issueDate",
          "type": "uint256"
        },
        {
          "internalType": "uint256",
          "name": "maturityDate",
          "type": "uint256"
        }
      ],
      "stateMutability": "view",
      "type": "function"
    },
    {
      "inputs": [],
      "name": "dealID",
      "outputs": [
        {
          "internalType": "string",
          "name": "",
          "type": "string"
        }
      ],
      "stateMutability": "view",
      "type": "function"
    },
    {
      "inputs": [
        {
          "internalType": "address",
          "name": "",
          "type": "address"
        }
      ],
      "name": "investorsIDs",
      "outputs": [
        {
          "internalType": "uint256",
          "name": "",
          "type": "uint256"
        }
      ],
      "stateMutability": "view",
      "type": "function"
    },
    {
      "inputs": [
        {
          "internalType": "address",
          "name": "",
          "type": "address"
        }
      ],
      "name": "isInvestor",
      "outputs": [
        {
          "internalType": "bool",
          "name": "",
          "type": "bool"
        }
      ],
      "stateMutability": "view",
      "type": "function"
    },
    {
      "inputs": [
        {
          "internalType": "string",
          "name": "",
          "type": "string"
        }
      ],
      "name": "issueData",
      "outputs": [
        {
          "internalType": "address",
          "name": "issuerWalletAddress",
          "type": "address"
        },
        {
          "internalType": "string",
          "name": "countryOfIssuance",
          "type": "string"
        }
      ],
      "stateMutability": "view",
      "type": "function"
    },
    {
      "inputs": [],
      "name": "toposBankContract",
      "outputs": [
        {
          "internalType": "address",
          "name": "",
          "type": "address"
        }
      ],
      "stateMutability": "view",
      "type": "function"
    }
  ],
  "bytecode": "0x608060405234801561001057600080fd5b506107af806100206000396000f3fe608060405234801561001057600080fd5b50600436106100885760003560e01c80639c34712a1161005b5780639c34712a1461011d578063c16aa77914610130578063cee2a9cf14610162578063e6ba4fea1461019557600080fd5b8063363cc4271461008d57806341d6a582146100bd57806346e8de21146100de57806373975df114610108575b600080fd5b6007546100a0906001600160a01b031681565b6040516001600160a01b0390911681526020015b60405180910390f35b6100d06100cb366004610527565b6101c3565b6040516100b492919061061e565b6100f16100ec366004610527565b61027d565b6040516100b49b9a99989796959493929190610648565b610110610483565b6040516100b491906106d4565b6008546100a0906001600160a01b031681565b6008546101559074010000000000000000000000000000000000000000900460ff1681565b6040516100b491906106ee565b610185610170366004610716565b60036020526000908152604090205460ff1681565b60405190151581526020016100b4565b6101b56101a3366004610716565b60046020526000908152604090205481565b6040519081526020016100b4565b8051602081830181018051600082529282019190930120915280546001820180546001600160a01b0390921692916101fa9061073f565b80601f01602080910402602001604051908101604052809291908181526020018280546102269061073f565b80156102735780601f1061024857610100808354040283529160200191610273565b820191906000526020600020905b81548152906001019060200180831161025657829003601f168201915b5050505050905082565b80516020818301810180516001825292820191909301209152805481906102a39061073f565b80601f01602080910402602001604051908101604052809291908181526020018280546102cf9061073f565b801561031c5780601f106102f15761010080835404028352916020019161031c565b820191906000526020600020905b8154815290600101906020018083116102ff57829003601f168201915b5050505050908060010180546103319061073f565b80601f016020809104026020016040519081016040528092919081815260200182805461035d9061073f565b80156103aa5780601f1061037f576101008083540402835291602001916103aa565b820191906000526020600020905b81548152906001019060200180831161038d57829003601f168201915b5050505050908060020180546103bf9061073f565b80601f01602080910402602001604051908101604052809291908181526020018280546103eb9061073f565b80156104385780601f1061040d57610100808354040283529160200191610438565b820191906000526020600020905b81548152906001019060200180831161041b57829003601f168201915b50505060038401546004850154600586015460068701546007880154600889015460098a0154600a909a015498996001600160a01b0390961698949750929550909360ff909116928b565b600680546104909061073f565b80601f01602080910402602001604051908101604052809291908181526020018280546104bc9061073f565b80156105095780601f106104de57610100808354040283529160200191610509565b820191906000526020600020905b8154815290600101906020018083116104ec57829003601f168201915b505050505081565b634e487b7160e01b600052604160045260246000fd5b60006020828403121561053957600080fd5b813567ffffffffffffffff8082111561055157600080fd5b818401915084601f83011261056557600080fd5b81358181111561057757610577610511565b604051601f8201601f19908116603f0116810190838211818310171561059f5761059f610511565b816040528281528760208487010111156105b857600080fd5b826020860160208301376000928101602001929092525095945050505050565b6000815180845260005b818110156105fe576020818501810151868301820152016105e2565b506000602082860101526020601f19601f83011685010191505092915050565b6001600160a01b038316815260406020820152600061064060408301846105d8565b949350505050565b600061016080835261065c8184018f6105d8565b90508281036020840152610670818e6105d8565b90508281036040840152610684818d6105d8565b6001600160a01b039b909b1660608401525050608081019790975260a087019590955260c086019390935260ff9190911660e0850152610100840152610120830152610140909101529392505050565b6020815260006106e760208301846105d8565b9392505050565b602081016002831061071057634e487b7160e01b600052602160045260246000fd5b91905290565b60006020828403121561072857600080fd5b81356001600160a01b03811681146106e757600080fd5b600181811c9082168061075357607f821691505b60208210810361077357634e487b7160e01b600052602260045260246000fd5b5091905056fea26469706673582212202a9603071103a90d1b3ce94d022cce2508761d44581c8e0f77efa959873bf24664736f6c63430008130033",
  "linkReferences": {},
  "deployedLinkReferences": {}
}