{
  "_format": "hh-sol-artifact-1",
  "contractName": "BondStorage",
  "sourceName": "contracts/BondStorage.sol",
  "abi": [
    {
      "inputs": [],
      "name": "bondManager",
      "outputs": [
        {
          "internalType": "address",
          "name": "",
          "type": "address"
        }
      ],
      "stateMutability": "view",
      "type": "function"
    },
    {
      "inputs": [],
      "name": "bondStatus",
      "outputs": [
        {
          "internalType": "enum BondData.BondStatus",
          "name": "",
          "type": "uint8"
        }
      ],
      "stateMutability": "view",
      "type": "function"
    },
    {
      "inputs": [
        {
          "internalType": "string",
          "name": "",
          "type": "string"
        }
      ],
      "name": "bonds",
      "outputs": [
        {
          "internalType": "string",
          "name": "isin",
          "type": "string"
        },
        {
          "internalType": "string",
          "name": "name",
          "type": "string"
        },
        {
          "internalType": "string",
          "name": "symbol",
          "type": "string"
        },
        {
          "internalType": "address",
          "name": "currency",
          "type": "address"
        },
        {
          "internalType": "uint256",
          "name": "denomination",
          "type": "uint256"
        },
        {
          "internalType": "uint256",
          "name": "issueVolume",
          "type": "uint256"
        },
        {
          "internalType": "uint256",
          "name": "couponRate",
          "type": "uint256"
        },
        {
          "internalType": "uint8",
          "name": "couponType",
          "type": "uint8"
        },
        {
          "internalType": "uint256",
          "name": "couponFrequency",
          "type": "uint256"
        },
        {
          "internalType": "uint256",
          "name": "issueDate",
          "type": "uint256"
        },
        {
          "internalType": "uint256",
          "name": "maturityDate",
          "type": "uint256"
        }
      ],
      "stateMutability": "view",
      "type": "function"
    },
    {
      "inputs": [],
      "name": "dealID",
      "outputs": [
        {
          "internalType": "string",
          "name": "",
          "type": "string"
        }
      ],
      "stateMutability": "view",
      "type": "function"
    },
    {
      "inputs": [
        {
          "internalType": "address",
          "name": "",
          "type": "address"
        }
      ],
      "name": "investorsIDs",
      "outputs": [
        {
          "internalType": "uint256",
          "name": "",
          "type": "uint256"
        }
      ],
      "stateMutability": "view",
      "type": "function"
    },
    {
      "inputs": [
        {
          "internalType": "address",
          "name": "",
          "type": "address"
        }
      ],
      "name": "isInvestor",
      "outputs": [
        {
          "internalType": "bool",
          "name": "",
          "type": "bool"
        }
      ],
      "stateMutability": "view",
      "type": "function"
    },
    {
      "inputs": [
        {
          "internalType": "string",
          "name": "",
          "type": "string"
        }
      ],
      "name": "issueData",
      "outputs": [
        {
          "internalType": "address",
          "name": "issuerWalletAddress",
          "type": "address"
        },
        {
          "internalType": "string",
          "name": "countryOfIssuance",
          "type": "string"
        }
      ],
      "stateMutability": "view",
      "type": "function"
    },
    {
      "inputs": [],
      "name": "toposBankContract",
      "outputs": [
        {
          "internalType": "address",
          "name": "",
          "type": "address"
        }
      ],
      "stateMutability": "view",
      "type": "function"
    }
  ],
  "bytecode": "0x608060405234801561001057600080fd5b50610ba3806100206000396000f3fe608060405234801561001057600080fd5b50600436106100885760003560e01c80639c34712a1161005b5780639c34712a14610134578063c16aa77914610152578063cee2a9cf14610170578063e6ba4fea146101a057610088565b8063363cc4271461008d57806341d6a582146100ab57806346e8de21146100dc57806373975df114610116575b600080fd5b6100956101d0565b6040516100a2919061064d565b60405180910390f35b6100c560048036038101906100c091906107c2565b6101f6565b6040516100d392919061088a565b60405180910390f35b6100f660048036038101906100f191906107c2565b6102d8565b60405161010d9b9a999897969594939291906108ef565b60405180910390f35b61011e61050d565b60405161012b91906109af565b60405180910390f35b61013c61059b565b604051610149919061064d565b60405180910390f35b61015a6105c1565b6040516101679190610a48565b60405180910390f35b61018a60048036038101906101859190610a8f565b6105d4565b6040516101979190610ad7565b60405180910390f35b6101ba60048036038101906101b59190610a8f565b6105f4565b6040516101c79190610af2565b60405180910390f35b600760009054906101000a900473ffffffffffffffffffffffffffffffffffffffff1681565b6000818051602081018201805184825260208301602085012081835280955050505050506000915090508060000160009054906101000a900473ffffffffffffffffffffffffffffffffffffffff169080600101805461025590610b3c565b80601f016020809104026020016040519081016040528092919081815260200182805461028190610b3c565b80156102ce5780601f106102a3576101008083540402835291602001916102ce565b820191906000526020600020905b8154815290600101906020018083116102b157829003601f168201915b5050505050905082565b60018180516020810182018051848252602083016020850120818352809550505050505060009150905080600001805461031190610b3c565b80601f016020809104026020016040519081016040528092919081815260200182805461033d90610b3c565b801561038a5780601f1061035f5761010080835404028352916020019161038a565b820191906000526020600020905b81548152906001019060200180831161036d57829003601f168201915b50505050509080600101805461039f90610b3c565b80601f01602080910402602001604051908101604052809291908181526020018280546103cb90610b3c565b80156104185780601f106103ed57610100808354040283529160200191610418565b820191906000526020600020905b8154815290600101906020018083116103fb57829003601f168201915b50505050509080600201805461042d90610b3c565b80601f016020809104026020016040519081016040528092919081815260200182805461045990610b3c565b80156104a65780601f1061047b576101008083540402835291602001916104a6565b820191906000526020600020905b81548152906001019060200180831161048957829003601f168201915b5050505050908060030160009054906101000a900473ffffffffffffffffffffffffffffffffffffffff16908060040154908060050154908060060154908060070160009054906101000a900460ff169080600801549080600901549080600a015490508b565b6006805461051a90610b3c565b80601f016020809104026020016040519081016040528092919081815260200182805461054690610b3c565b80156105935780601f1061056857610100808354040283529160200191610593565b820191906000526020600020905b81548152906001019060200180831161057657829003601f168201915b505050505081565b600860009054906101000a900473ffffffffffffffffffffffffffffffffffffffff1681565b600860149054906101000a900460ff1681565b60036020528060005260406000206000915054906101000a900460ff1681565b60046020528060005260406000206000915090505481565b600073ffffffffffffffffffffffffffffffffffffffff82169050919050565b60006106378261060c565b9050919050565b6106478161062c565b82525050565b6000602082019050610662600083018461063e565b92915050565b6000604051905090565b600080fd5b600080fd5b600080fd5b600080fd5b6000601f19601f8301169050919050565b7f4e487b7100000000000000000000000000000000000000000000000000000000600052604160045260246000fd5b6106cf82610686565b810181811067ffffffffffffffff821117156106ee576106ed610697565b5b80604052505050565b6000610701610668565b905061070d82826106c6565b919050565b600067ffffffffffffffff82111561072d5761072c610697565b5b61073682610686565b9050602081019050919050565b82818337600083830152505050565b600061076561076084610712565b6106f7565b90508281526020810184848401111561078157610780610681565b5b61078c848285610743565b509392505050565b600082601f8301126107a9576107a861067c565b5b81356107b9848260208601610752565b91505092915050565b6000602082840312156107d8576107d7610672565b5b600082013567ffffffffffffffff8111156107f6576107f5610677565b5b61080284828501610794565b91505092915050565b600081519050919050565b600082825260208201905092915050565b60005b8381101561084557808201518184015260208101905061082a565b60008484015250505050565b600061085c8261080b565b6108668185610816565b9350610876818560208601610827565b61087f81610686565b840191505092915050565b600060408201905061089f600083018561063e565b81810360208301526108b18184610851565b90509392505050565b6000819050919050565b6108cd816108ba565b82525050565b600060ff82169050919050565b6108e9816108d3565b82525050565b600061016082019050818103600083015261090a818e610851565b9050818103602083015261091e818d610851565b90508181036040830152610932818c610851565b9050610941606083018b61063e565b61094e608083018a6108c4565b61095b60a08301896108c4565b61096860c08301886108c4565b61097560e08301876108e0565b6109836101008301866108c4565b6109916101208301856108c4565b61099f6101408301846108c4565b9c9b505050505050505050505050565b600060208201905081810360008301526109c98184610851565b905092915050565b7f4e487b7100000000000000000000000000000000000000000000000000000000600052602160045260246000fd5b60028110610a1157610a106109d1565b5b50565b6000819050610a2282610a00565b919050565b6000610a3282610a14565b9050919050565b610a4281610a27565b82525050565b6000602082019050610a5d6000830184610a39565b92915050565b610a6c8161062c565b8114610a7757600080fd5b50565b600081359050610a8981610a63565b92915050565b600060208284031215610aa557610aa4610672565b5b6000610ab384828501610a7a565b91505092915050565b60008115159050919050565b610ad181610abc565b82525050565b6000602082019050610aec6000830184610ac8565b92915050565b6000602082019050610b0760008301846108c4565b92915050565b7f4e487b7100000000000000000000000000000000000000000000000000000000600052602260045260246000fd5b60006002820490506001821680610b5457607f821691505b602082108103610b6757610b66610b0d565b5b5091905056fea26469706673582212203f62935c3239e7c7fb9437d6e9fc89e08dd76887ac48f70941e2ea259ecd4c1164736f6c63430008130033",
  "linkReferences": {},
  "deployedLinkReferences": {}
}