{
  "_format": "hh-sol-artifact-1",
  "contractName": "IdentityRegistry",
  "sourceName": "contracts/Registry/IdentityRegistry.sol",
  "abi": [
    {
      "inputs": [],
      "stateMutability": "nonpayable",
      "type": "constructor"
    },
    {
      "inputs": [],
      "name": "AlreadyVerified",
      "type": "error"
    },
    {
      "inputs": [
        {
          "internalType": "address",
          "name": "caller",
          "type": "address"
        }
      ],
      "name": "InvalidAddress",
      "type": "error"
    },
    {
      "inputs": [],
      "name": "authenticationContract",
      "outputs": [
        {
          "internalType": "address",
          "name": "",
          "type": "address"
        }
      ],
      "stateMutability": "view",
      "type": "function"
    },
    {
      "inputs": [
        {
          "internalType": "address",
          "name": "_stakeHolderAddress",
          "type": "address"
        }
      ],
      "name": "getStakeHolder",
      "outputs": [
        {
          "components": [
            {
              "internalType": "string",
              "name": "identityID",
              "type": "string"
            },
            {
              "internalType": "address",
              "name": "walletAddress",
              "type": "address"
            }
          ],
          "internalType": "struct RegistryData.Stakeholder",
          "name": "",
          "type": "tuple"
        }
      ],
      "stateMutability": "view",
      "type": "function"
    },
    {
      "inputs": [
        {
          "internalType": "address",
          "name": "_stakeHolderAddress",
          "type": "address"
        }
      ],
      "name": "isVerified",
      "outputs": [
        {
          "internalType": "bool",
          "name": "",
          "type": "bool"
        }
      ],
      "stateMutability": "view",
      "type": "function"
    },
    {
      "inputs": [
        {
          "internalType": "string",
          "name": "",
          "type": "string"
        }
      ],
      "name": "kwcPassed",
      "outputs": [
        {
          "internalType": "bool",
          "name": "",
          "type": "bool"
        }
      ],
      "stateMutability": "view",
      "type": "function"
    },
    {
      "inputs": [],
      "name": "owner",
      "outputs": [
        {
          "internalType": "address",
          "name": "",
          "type": "address"
        }
      ],
      "stateMutability": "view",
      "type": "function"
    },
    {
      "inputs": [
        {
          "internalType": "string",
          "name": "_identityID",
          "type": "string"
        },
        {
          "internalType": "string",
          "name": "_signature",
          "type": "string"
        }
      ],
      "name": "register",
      "outputs": [],
      "stateMutability": "nonpayable",
      "type": "function"
    },
    {
      "inputs": [
        {
          "internalType": "address",
          "name": "_contractAddress",
          "type": "address"
        }
      ],
      "name": "registerContract",
      "outputs": [],
      "stateMutability": "nonpayable",
      "type": "function"
    },
    {
      "inputs": [
        {
          "internalType": "address",
          "name": "_authenticationContract",
          "type": "address"
        }
      ],
      "name": "setAuthenticationContract",
      "outputs": [],
      "stateMutability": "nonpayable",
      "type": "function"
    }
  ],
  "bytecode": "0x608060405234801561001057600080fd5b50600380546001600160a01b03191633179055610a73806100326000396000f3fe608060405234801561001057600080fd5b50600436106100885760003560e01c8063503ad38b1161005b578063503ad38b146100f857806374dc243a146101365780638da5cb5b14610156578063b9209e331461016957600080fd5b8063090820a61461008d57806322a5dde4146100bd578063383788a3146100d25780633ffbd47f146100e5575b600080fd5b6004546100a0906001600160a01b031681565b6040516001600160a01b0390911681526020015b60405180910390f35b6100d06100cb36600461069c565b61017c565b005b6100d06100e036600461069c565b610202565b6100d06100f336600461076f565b61028b565b6101266101063660046107d3565b805160208183018101805160028252928201919093012091525460ff1681565b60405190151581526020016100b4565b61014961014436600461069c565b610576565b6040516100b49190610860565b6003546100a0906001600160a01b031681565b61012661017736600461069c565b610659565b6003546001600160a01b031633146101db5760405162461bcd60e51b815260206004820152600a60248201527f6f6e6c79206f776e65720000000000000000000000000000000000000000000060448201526064015b60405180910390fd5b6001600160a01b03166000908152600160208190526040909120805460ff19169091179055565b6003546001600160a01b0316331461025c5760405162461bcd60e51b815260206004820152600a60248201527f4f4e4c595f4f574e45520000000000000000000000000000000000000000000060448201526064016101d2565b6004805473ffffffffffffffffffffffffffffffffffffffff19166001600160a01b0392909216919091179055565b3360009081526001602081905260409091205460ff16818111156102b1576102b161089b565b036102e8576040517f118fd7b800000000000000000000000000000000000000000000000000000000815260040160405180910390fd5b6002826040516102f891906108b1565b9081526040519081900360200190205460ff16156103585760405162461bcd60e51b815260206004820152601260248201527f414c52454144595f5041535345445f4b5743000000000000000000000000000060448201526064016101d2565b6040805160008152602081018083528151902091610378918591016108b1565b60405160208183030381529060405280519060200120036103db5760405162461bcd60e51b815260206004820152601360248201527f494e56414c49445f4944454e544954595f49440000000000000000000000000060448201526064016101d2565b60408051600081526020810180835281519020916103fb918491016108b1565b604051602081830303815290604052805190602001200361045e5760405162461bcd60e51b815260206004820152601160248201527f494e56414c49445f5349474e415455524500000000000000000000000000000060448201526064016101d2565b600160028360405161047091906108b1565b908152604080519182900360209081018320805494151560ff19958616179055336000818152600180845284822080549097161790955583830183528684528184018190528452839052909120815181906104cb9082610952565b50602091909101516001909101805473ffffffffffffffffffffffffffffffffffffffff19166001600160a01b03928316179055600480546040517f1e59c529000000000000000000000000000000000000000000000000000000008152921691631e59c52991610540918591339101610a12565b600060405180830381600087803b15801561055a57600080fd5b505af115801561056e573d6000803e3d6000fd5b505050505050565b6040805180820190915260608152600060208201526001600160a01b0382166000908152602081905260409081902081518083019092528054829082906105bc906108cd565b80601f01602080910402602001604051908101604052809291908181526020018280546105e8906108cd565b80156106355780601f1061060a57610100808354040283529160200191610635565b820191906000526020600020905b81548152906001019060200180831161061857829003601f168201915b5050509183525050600191909101546001600160a01b031660209091015292915050565b6001600160a01b038116600090815260016020819052604082205460ff16818111156106875761068761089b565b14610693576000610696565b60015b92915050565b6000602082840312156106ae57600080fd5b81356001600160a01b03811681146106c557600080fd5b9392505050565b634e487b7160e01b600052604160045260246000fd5b600082601f8301126106f357600080fd5b813567ffffffffffffffff8082111561070e5761070e6106cc565b604051601f8301601f19908116603f01168101908282118183101715610736576107366106cc565b8160405283815286602085880101111561074f57600080fd5b836020870160208301376000602085830101528094505050505092915050565b6000806040838503121561078257600080fd5b823567ffffffffffffffff8082111561079a57600080fd5b6107a6868387016106e2565b935060208501359150808211156107bc57600080fd5b506107c9858286016106e2565b9150509250929050565b6000602082840312156107e557600080fd5b813567ffffffffffffffff8111156107fc57600080fd5b610808848285016106e2565b949350505050565b60005b8381101561082b578181015183820152602001610813565b50506000910152565b6000815180845261084c816020860160208601610810565b601f01601f19169290920160200192915050565b60208152600082516040602084015261087c6060840182610834565b90506001600160a01b0360208501511660408401528091505092915050565b634e487b7160e01b600052602160045260246000fd5b600082516108c3818460208701610810565b9190910192915050565b600181811c908216806108e157607f821691505b60208210810361090157634e487b7160e01b600052602260045260246000fd5b50919050565b601f82111561094d57600081815260208120601f850160051c8101602086101561092e5750805b601f850160051c820191505b8181101561056e5782815560010161093a565b505050565b815167ffffffffffffffff81111561096c5761096c6106cc565b6109808161097a84546108cd565b84610907565b602080601f8311600181146109b5576000841561099d5750858301515b600019600386901b1c1916600185901b17855561056e565b600085815260208120601f198616915b828110156109e4578886015182559484019460019091019084016109c5565b5085821015610a025787850151600019600388901b60f8161c191681555b5050505050600190811b01905550565b604081526000610a256040830185610834565b90506001600160a01b0383166020830152939250505056fea2646970667358221220ef27160fc93868e7b6fd37a4c7422754ccdb277a4ce526fb79b26e297bb3080f64736f6c63430008130033",
  "linkReferences": {},
  "deployedLinkReferences": {}
}