{
  "_format": "hh-sol-artifact-1",
  "contractName": "IdentityRegistry",
  "sourceName": "contracts/Registry/IdentityRegistry.sol",
  "abi": [
    {
      "inputs": [],
      "stateMutability": "nonpayable",
      "type": "constructor"
    },
    {
      "inputs": [],
      "name": "AlreadyVerified",
      "type": "error"
    },
    {
      "inputs": [
        {
          "internalType": "address",
          "name": "caller",
          "type": "address"
        }
      ],
      "name": "InvalidAddress",
      "type": "error"
    },
    {
      "inputs": [],
      "name": "authenticationContract",
      "outputs": [
        {
          "internalType": "address",
          "name": "",
          "type": "address"
        }
      ],
      "stateMutability": "view",
      "type": "function"
    },
    {
      "inputs": [
        {
          "internalType": "address",
          "name": "_stakeHolderAddress",
          "type": "address"
        }
      ],
      "name": "getStakeHolder",
      "outputs": [
        {
          "components": [
            {
              "internalType": "string",
              "name": "identityID",
              "type": "string"
            },
            {
              "internalType": "address",
              "name": "walletAddress",
              "type": "address"
            }
          ],
          "internalType": "struct RegistryData.Stakeholder",
          "name": "",
          "type": "tuple"
        }
      ],
      "stateMutability": "view",
      "type": "function"
    },
    {
      "inputs": [
        {
          "internalType": "address",
          "name": "_stakeHolderAddress",
          "type": "address"
        }
      ],
      "name": "isVerified",
      "outputs": [
        {
          "internalType": "bool",
          "name": "",
          "type": "bool"
        }
      ],
      "stateMutability": "view",
      "type": "function"
    },
    {
      "inputs": [
        {
          "internalType": "string",
          "name": "",
          "type": "string"
        }
      ],
      "name": "kwcPassed",
      "outputs": [
        {
          "internalType": "bool",
          "name": "",
          "type": "bool"
        }
      ],
      "stateMutability": "view",
      "type": "function"
    },
    {
      "inputs": [],
      "name": "owner",
      "outputs": [
        {
          "internalType": "address",
          "name": "",
          "type": "address"
        }
      ],
      "stateMutability": "view",
      "type": "function"
    },
    {
      "inputs": [
        {
          "internalType": "string",
          "name": "_identityID",
          "type": "string"
        },
        {
          "internalType": "string",
          "name": "_signature",
          "type": "string"
        }
      ],
      "name": "register",
      "outputs": [],
      "stateMutability": "nonpayable",
      "type": "function"
    },
    {
      "inputs": [
        {
          "internalType": "address",
          "name": "_contractAddress",
          "type": "address"
        }
      ],
      "name": "registerContract",
      "outputs": [],
      "stateMutability": "nonpayable",
      "type": "function"
    },
    {
      "inputs": [
        {
          "internalType": "address",
          "name": "_authenticationContract",
          "type": "address"
        }
      ],
      "name": "setAuthenticationContract",
      "outputs": [],
      "stateMutability": "nonpayable",
      "type": "function"
    }
  ],
  "bytecode": "0x6080806040523461002857600380546001600160a01b031916331790556109aa908161002e8239f35b600080fdfe608060408181526004918236101561001657600080fd5b600090813560e01c908163090820a6146108015750806322a5dde414610774578063383788a3146106db5780633ffbd47f146102a3578063503ad38b1461024257806374dc243a146101185780638da5cb5b146100f05763b9209e331461007c57600080fd5b346100ed5760203660031901126100ed5782356001600160a01b0381168091036100e9578152600160205260ff82822054169260028410156100d657506020926001036100d057506001905b519015158152f35b906100c8565b906021602492634e487b7160e01b835252fd5b5080fd5b80fd5b5090346100e957816003193601126100e9576020906001600160a01b03600354169051908152f35b5082346100e9576020908160031936011261023e57356001600160a01b039081811680910361023a579084918484845161015181610826565b60608152015284528383528184209382519461016c86610826565b83518282549361017b8561093a565b90818452600195878a8883169283600014610216575050506001146101de575b505091816101b06101d3959387950382610874565b885201541693808601948552835196879682885251918701526060860190610915565b925116908301520390f35b908892508482528282205b8183106101fe575050820101816101b061019b565b80548584018501528b985089939092019186016101e9565b60ff19168188015293151560051b860190930193508492506101b0915061019b9050565b8380fd5b8280fd5b50346100ed5760203660031901126100ed5782359067ffffffffffffffff82116100ed575061028e602061027c819560ff94369101610896565b818551938285809451938492016108f2565b81016002815203019020541690519015158152f35b5090346100e957806003193601126100e95767ffffffffffffffff833581811161023a576102d49036908601610896565b9360249182358181116106d7576102ee9036908401610896565b33865260019660209780895260ff878920541660028110156106c557811461069d57865160ff8351918b81818701946103288183886108f2565b81016002815203019020541661065c5787518a81019061035d8c8287516103508187896108f2565b8101038084520182610874565b51902088518a815261036e81610858565b8b81519101201461061b5787518a8101906103938c8288516103508187858d016108f2565b51902088518a81526103a481610858565b8b8151910120146105da57896103c49189518093819287519283916108f2565b8101600281520301902060ff19908282825416179055338952818a5281888a20918254161790558651916103f783610826565b825288820191338352338952888a528789209051998a51908682116105c857610420835461093a565b601f8111610582575b5080601f831160011461051d575081908b9c8c92610512575b5050600019600383901b1c191690831b1781555b016001600160a01b038092511673ffffffffffffffffffffffffffffffffffffffff1982541617905583541690813b1561050e5786916104ca9187519889809481937f1e59c5290000000000000000000000000000000000000000000000000000000083528b8a8401526044830190610915565b338a83015203925af18015610504576104e1578580f35b84116104f35750505238808080808580f35b60418591634e487b7160e01b835252fd5b84513d88823e3d90fd5b8680fd5b015190503880610442565b919b601f198d16848d52838d20938d905b82821061056b575050918593918e8e9f9410610552575b505050811b018155610456565b015160001960f88460031b161c19169055388080610545565b80888697829497870151815501960194019061052e565b838c52818c20601f840160051c8101918385106105be575b601f0160051c019085905b8281106105b3575050610429565b8d81550185906105a5565b909150819061059a565b888b60418a634e487b7160e01b835252fd5b6064866011898d8c519362461bcd60e51b85528401528201527f494e56414c49445f5349474e41545552450000000000000000000000000000006044820152fd5b6064866013898d8c519362461bcd60e51b85528401528201527f494e56414c49445f4944454e544954595f4944000000000000000000000000006044820152fd5b6064866012898d8c519362461bcd60e51b85528401528201527f414c52454144595f5041535345445f4b574300000000000000000000000000006044820152fd5b8487517f118fd7b8000000000000000000000000000000000000000000000000000000008152fd5b8689602188634e487b7160e01b835252fd5b8580fd5b5091903461023e57602036600319011261023e578135906001600160a01b038083168093036107705760035416330361072e575073ffffffffffffffffffffffffffffffffffffffff1982541617905580f35b5162461bcd60e51b8152602081840152600a60248201527f4f4e4c595f4f574e4552000000000000000000000000000000000000000000006044820152606490fd5b8480fd5b50913461023e57602036600319011261023e578035906001600160a01b03808316809303610770576003541633036107be5750825260016020528120600160ff1982541617905580f35b606490602084519162461bcd60e51b8352820152600a60248201527f6f6e6c79206f776e6572000000000000000000000000000000000000000000006044820152fd5b925050346100ed57806003193601126100ed57506001600160a01b0360209254168152f35b6040810190811067ffffffffffffffff82111761084257604052565b634e487b7160e01b600052604160045260246000fd5b6020810190811067ffffffffffffffff82111761084257604052565b90601f8019910116810190811067ffffffffffffffff82111761084257604052565b81601f820112156108ed5780359067ffffffffffffffff821161084257604051926108cb601f8401601f191660200185610874565b828452602083830101116108ed57816000926020809301838601378301015290565b600080fd5b60005b8381106109055750506000910152565b81810151838201526020016108f5565b9060209161092e815180928185528580860191016108f2565b601f01601f1916010190565b90600182811c9216801561096a575b602083101461095457565b634e487b7160e01b600052602260045260246000fd5b91607f169161094956fea2646970667358221220603350ba2dcc04de841edc59a8015cbd89f9455375f2d409b74b4fbf92ee115d64736f6c63430008130033",
  "linkReferences": {},
  "deployedLinkReferences": {}
}