{
  "_format": "hh-sol-artifact-1",
  "contractName": "Exchange",
  "sourceName": "contracts/Topos/Exchange/Exchange.sol",
  "abi": [
    {
      "inputs": [
        {
          "internalType": "address",
          "name": "_bankContract",
          "type": "address"
        },
        {
          "internalType": "address",
          "name": "_bondCallContract",
          "type": "address"
        }
      ],
      "stateMutability": "nonpayable",
      "type": "constructor"
    },
    {
      "inputs": [],
      "name": "bankContract",
      "outputs": [
        {
          "internalType": "address",
          "name": "",
          "type": "address"
        }
      ],
      "stateMutability": "view",
      "type": "function"
    },
    {
      "inputs": [],
      "name": "bondCallContract",
      "outputs": [
        {
          "internalType": "address",
          "name": "",
          "type": "address"
        }
      ],
      "stateMutability": "view",
      "type": "function"
    },
    {
      "inputs": [
        {
          "internalType": "string",
          "name": "",
          "type": "string"
        },
        {
          "internalType": "uint256",
          "name": "",
          "type": "uint256"
        }
      ],
      "name": "dealListings",
      "outputs": [
        {
          "internalType": "string",
          "name": "dealID",
          "type": "string"
        },
        {
          "internalType": "address",
          "name": "owner",
          "type": "address"
        },
        {
          "internalType": "uint256",
          "name": "amount",
          "type": "uint256"
        },
        {
          "internalType": "uint256",
          "name": "price",
          "type": "uint256"
        },
        {
          "internalType": "uint256",
          "name": "index",
          "type": "uint256"
        }
      ],
      "stateMutability": "view",
      "type": "function"
    },
    {
      "inputs": [
        {
          "internalType": "address",
          "name": "",
          "type": "address"
        },
        {
          "internalType": "string",
          "name": "",
          "type": "string"
        }
      ],
      "name": "investorListing",
      "outputs": [
        {
          "internalType": "string",
          "name": "dealID",
          "type": "string"
        },
        {
          "internalType": "address",
          "name": "owner",
          "type": "address"
        },
        {
          "internalType": "uint256",
          "name": "amount",
          "type": "uint256"
        },
        {
          "internalType": "uint256",
          "name": "price",
          "type": "uint256"
        },
        {
          "internalType": "uint256",
          "name": "index",
          "type": "uint256"
        }
      ],
      "stateMutability": "view",
      "type": "function"
    },
    {
      "inputs": [
        {
          "components": [
            {
              "internalType": "string",
              "name": "dealID",
              "type": "string"
            },
            {
              "internalType": "address",
              "name": "owner",
              "type": "address"
            },
            {
              "internalType": "uint256",
              "name": "amount",
              "type": "uint256"
            },
            {
              "internalType": "uint256",
              "name": "price",
              "type": "uint256"
            },
            {
              "internalType": "uint256",
              "name": "index",
              "type": "uint256"
            }
          ],
          "internalType": "struct BondData.Listing",
          "name": "_listing",
          "type": "tuple"
        }
      ],
      "name": "listBonds",
      "outputs": [],
      "stateMutability": "nonpayable",
      "type": "function"
    }
  ],
  "bytecode": "0x60806040523480156200001157600080fd5b50604051620011683803806200116883398181016040528101906200003791906200012b565b81600260006101000a81548173ffffffffffffffffffffffffffffffffffffffff021916908373ffffffffffffffffffffffffffffffffffffffff16021790555080600360006101000a81548173ffffffffffffffffffffffffffffffffffffffff021916908373ffffffffffffffffffffffffffffffffffffffff160217905550505062000172565b600080fd5b600073ffffffffffffffffffffffffffffffffffffffff82169050919050565b6000620000f382620000c6565b9050919050565b6200010581620000e6565b81146200011157600080fd5b50565b6000815190506200012581620000fa565b92915050565b60008060408385031215620001455762000144620000c1565b5b6000620001558582860162000114565b9250506020620001688582860162000114565b9150509250929050565b610fe680620001826000396000f3fe608060405234801561001057600080fd5b50600436106100575760003560e01c806307c2e4491461005c5780631ccf43e61461007a5780632d9fc161146100965780635e43522e146100ca578063d7fe4c25146100e8575b600080fd5b61006461011c565b6040516100719190610545565b60405180910390f35b610094600480360381019061008f9190610598565b610142565b005b6100b060048036038101906100ab9190610753565b6102cc565b6040516100c1959493929190610847565b60405180910390f35b6100d26103cd565b6040516100df9190610545565b60405180910390f35b61010260048036038101906100fd91906108cd565b6103f3565b604051610113959493929190610847565b60405180910390f35b600260009054906101000a900473ffffffffffffffffffffffffffffffffffffffff1681565b6000600360009054906101000a900473ffffffffffffffffffffffffffffffffffffffff1673ffffffffffffffffffffffffffffffffffffffff1663be875e4f33600360009054906101000a900473ffffffffffffffffffffffffffffffffffffffff166040518363ffffffff1660e01b81526004016101c3929190610929565b602060405180830381865afa1580156101e0573d6000803e3d6000fd5b505050506040513d601f19601f820116820180604052508101906102049190610967565b9050816040013581101561024d576040517f08c379a0000000000000000000000000000000000000000000000000000000008152600401610244906109e0565b60405180910390fd5b81600160003373ffffffffffffffffffffffffffffffffffffffff1673ffffffffffffffffffffffffffffffffffffffff16815260200190815260200160002083806000019061029d9190610a0f565b6040516102ab929190610aa2565b908152602001604051809103902081816102c59190610fa2565b9050505050565b6001602052816000526040600020818051602081018201805184825260208301602085012081835280955050505050506000915091505080600001805461031290610af5565b80601f016020809104026020016040519081016040528092919081815260200182805461033e90610af5565b801561038b5780601f106103605761010080835404028352916020019161038b565b820191906000526020600020905b81548152906001019060200180831161036e57829003601f168201915b5050505050908060010160009054906101000a900473ffffffffffffffffffffffffffffffffffffffff16908060020154908060030154908060040154905085565b600360009054906101000a900473ffffffffffffffffffffffffffffffffffffffff1681565b600082805160208101820180518482526020830160208501208183528095505050505050818154811061042557600080fd5b90600052602060002090600502016000915091505080600001805461044990610af5565b80601f016020809104026020016040519081016040528092919081815260200182805461047590610af5565b80156104c25780601f10610497576101008083540402835291602001916104c2565b820191906000526020600020905b8154815290600101906020018083116104a557829003601f168201915b5050505050908060010160009054906101000a900473ffffffffffffffffffffffffffffffffffffffff16908060020154908060030154908060040154905085565b600073ffffffffffffffffffffffffffffffffffffffff82169050919050565b600061052f82610504565b9050919050565b61053f81610524565b82525050565b600060208201905061055a6000830184610536565b92915050565b6000604051905090565b600080fd5b600080fd5b600080fd5b600060a0828403121561058f5761058e610574565b5b81905092915050565b6000602082840312156105ae576105ad61056a565b5b600082013567ffffffffffffffff8111156105cc576105cb61056f565b5b6105d884828501610579565b91505092915050565b6105ea81610524565b81146105f557600080fd5b50565b600081359050610607816105e1565b92915050565b600080fd5b600080fd5b6000601f19601f8301169050919050565b7f4e487b7100000000000000000000000000000000000000000000000000000000600052604160045260246000fd5b61066082610617565b810181811067ffffffffffffffff8211171561067f5761067e610628565b5b80604052505050565b6000610692610560565b905061069e8282610657565b919050565b600067ffffffffffffffff8211156106be576106bd610628565b5b6106c782610617565b9050602081019050919050565b82818337600083830152505050565b60006106f66106f1846106a3565b610688565b90508281526020810184848401111561071257610711610612565b5b61071d8482856106d4565b509392505050565b600082601f83011261073a5761073961060d565b5b813561074a8482602086016106e3565b91505092915050565b6000806040838503121561076a5761076961056a565b5b6000610778858286016105f8565b925050602083013567ffffffffffffffff8111156107995761079861056f565b5b6107a585828601610725565b9150509250929050565b600081519050919050565b600082825260208201905092915050565b60005b838110156107e95780820151818401526020810190506107ce565b60008484015250505050565b6000610800826107af565b61080a81856107ba565b935061081a8185602086016107cb565b61082381610617565b840191505092915050565b6000819050919050565b6108418161082e565b82525050565b600060a082019050818103600083015261086181886107f5565b90506108706020830187610536565b61087d6040830186610838565b61088a6060830185610838565b6108976080830184610838565b9695505050505050565b6108aa8161082e565b81146108b557600080fd5b50565b6000813590506108c7816108a1565b92915050565b600080604083850312156108e4576108e361056a565b5b600083013567ffffffffffffffff8111156109025761090161056f565b5b61090e85828601610725565b925050602061091f858286016108b8565b9150509250929050565b600060408201905061093e6000830185610536565b61094b6020830184610536565b9392505050565b600081519050610961816108a1565b92915050565b60006020828403121561097d5761097c61056a565b5b600061098b84828501610952565b91505092915050565b7f4e6f7420656e6f75676820626f6e647300000000000000000000000000000000600082015250565b60006109ca6010836107ba565b91506109d582610994565b602082019050919050565b600060208201905081810360008301526109f9816109bd565b9050919050565b600080fd5b600080fd5b600080fd5b60008083356001602003843603038112610a2c57610a2b610a00565b5b80840192508235915067ffffffffffffffff821115610a4e57610a4d610a05565b5b602083019250600182023603831315610a6a57610a69610a0a565b5b509250929050565b600081905092915050565b6000610a898385610a72565b9350610a968385846106d4565b82840190509392505050565b6000610aaf828486610a7d565b91508190509392505050565b600082905092915050565b7f4e487b7100000000000000000000000000000000000000000000000000000000600052602260045260246000fd5b60006002820490506001821680610b0d57607f821691505b602082108103610b2057610b1f610ac6565b5b50919050565b60008190508160005260206000209050919050565b60006020601f8301049050919050565b600082821b905092915050565b600060088302610b887fffffffffffffffffffffffffffffffffffffffffffffffffffffffffffffffff82610b4b565b610b928683610b4b565b95508019841693508086168417925050509392505050565b6000819050919050565b6000610bcf610bca610bc58461082e565b610baa565b61082e565b9050919050565b6000819050919050565b610be983610bb4565b610bfd610bf582610bd6565b848454610b58565b825550505050565b600090565b610c12610c05565b610c1d818484610be0565b505050565b5b81811015610c4157610c36600082610c0a565b600181019050610c23565b5050565b601f821115610c8657610c5781610b26565b610c6084610b3b565b81016020851015610c6f578190505b610c83610c7b85610b3b565b830182610c22565b50505b505050565b600082821c905092915050565b6000610ca960001984600802610c8b565b1980831691505092915050565b6000610cc28383610c98565b9150826002028217905092915050565b610cdc8383610abb565b67ffffffffffffffff811115610cf557610cf4610628565b5b610cff8254610af5565b610d0a828285610c45565b6000601f831160018114610d395760008415610d27578287013590505b610d318582610cb6565b865550610d99565b601f198416610d4786610b26565b60005b82811015610d6f57848901358255600182019150602085019450602081019050610d4a565b86831015610d8c5784890135610d88601f891682610c98565b8355505b6001600288020188555050505b50505050505050565b610dad838383610cd2565b505050565b60008135610dbf816105e1565b80915050919050565b60008160001b9050919050565b600073ffffffffffffffffffffffffffffffffffffffff610df584610dc8565b9350801983169250808416831791505092915050565b6000610e26610e21610e1c84610504565b610baa565b610504565b9050919050565b6000610e3882610e0b565b9050919050565b6000610e4a82610e2d565b9050919050565b6000819050919050565b610e6482610e3f565b610e77610e7082610e51565b8354610dd5565b8255505050565b60008135610e8b816108a1565b80915050919050565b60007fffffffffffffffffffffffffffffffffffffffffffffffffffffffffffffffff610ec084610dc8565b9350801983169250808416831791505092915050565b610edf82610bb4565b610ef2610eeb82610bd6565b8354610e94565b8255505050565b6000810160008301610f0b8185610a0f565b610f16818386610da2565b50505050600181016020830180610f2c81610db2565b9050610f388184610e5b565b505050600281016040830180610f4d81610e7e565b9050610f598184610ed6565b505050600381016060830180610f6e81610e7e565b9050610f7a8184610ed6565b505050600481016080830180610f8f81610e7e565b9050610f9b8184610ed6565b5050505050565b610fac8282610ef9565b505056fea2646970667358221220e5148fe873105d82b4b1ac9c01b88612f0d40692fe4c29fc6cb4650eb62757ae64736f6c63430008130033",
  "linkReferences": {},
  "deployedLinkReferences": {}
}