{
  "_format": "hh-sol-artifact-1",
  "contractName": "Exchange",
  "sourceName": "contracts/Topos/Exchange/Exchange.sol",
  "abi": [
    {
      "inputs": [
        {
          "internalType": "address",
          "name": "_bankContract",
          "type": "address"
        },
        {
          "internalType": "address",
          "name": "_bondCallContract",
          "type": "address"
        }
      ],
      "stateMutability": "nonpayable",
      "type": "constructor"
    },
    {
      "anonymous": false,
      "inputs": [
        {
          "indexed": false,
          "internalType": "string",
          "name": "dealID",
          "type": "string"
        },
        {
          "indexed": false,
          "internalType": "address",
          "name": "seller",
          "type": "address"
        },
        {
          "indexed": false,
          "internalType": "uint256",
          "name": "amountToAdd",
          "type": "uint256"
        }
      ],
      "name": "AmountIncreased",
      "type": "event"
    },
    {
      "anonymous": false,
      "inputs": [
        {
          "indexed": false,
          "internalType": "string",
          "name": "dealID",
          "type": "string"
        },
        {
          "indexed": false,
          "internalType": "address",
          "name": "seller",
          "type": "address"
        },
        {
          "indexed": false,
          "internalType": "address",
          "name": "buyer",
          "type": "address"
        },
        {
          "indexed": false,
          "internalType": "uint256",
          "name": "amount",
          "type": "uint256"
        }
      ],
      "name": "BondBought",
      "type": "event"
    },
    {
      "anonymous": false,
      "inputs": [
        {
          "indexed": false,
          "internalType": "string",
          "name": "dealID",
          "type": "string"
        },
        {
          "indexed": false,
          "internalType": "address",
          "name": "seller",
          "type": "address"
        }
      ],
      "name": "BondsCanceled",
      "type": "event"
    },
    {
      "anonymous": false,
      "inputs": [
        {
          "indexed": false,
          "internalType": "string",
          "name": "dealID",
          "type": "string"
        },
        {
          "indexed": false,
          "internalType": "address",
          "name": "seller",
          "type": "address"
        },
        {
          "indexed": false,
          "internalType": "uint256",
          "name": "amount",
          "type": "uint256"
        },
        {
          "indexed": false,
          "internalType": "uint256",
          "name": "price",
          "type": "uint256"
        }
      ],
      "name": "BondsListed",
      "type": "event"
    },
    {
      "anonymous": false,
      "inputs": [
        {
          "indexed": false,
          "internalType": "string",
          "name": "dealID",
          "type": "string"
        },
        {
          "indexed": false,
          "internalType": "address",
          "name": "seller",
          "type": "address"
        },
        {
          "indexed": false,
          "internalType": "uint256",
          "name": "newPrice",
          "type": "uint256"
        }
      ],
      "name": "PriceUpdated",
      "type": "event"
    },
    {
      "inputs": [],
      "name": "bankContract",
      "outputs": [
        {
          "internalType": "address",
          "name": "",
          "type": "address"
        }
      ],
      "stateMutability": "view",
      "type": "function"
    },
    {
      "inputs": [],
      "name": "bondCallContract",
      "outputs": [
        {
          "internalType": "address",
          "name": "",
          "type": "address"
        }
      ],
      "stateMutability": "view",
      "type": "function"
    },
    {
      "inputs": [
        {
          "internalType": "string",
          "name": "_dealID",
          "type": "string"
        },
        {
          "internalType": "address",
          "name": "_seller",
          "type": "address"
        },
        {
          "internalType": "uint256",
          "name": "_amount",
          "type": "uint256"
        }
      ],
      "name": "buyBonds",
      "outputs": [],
      "stateMutability": "nonpayable",
      "type": "function"
    },
    {
      "inputs": [],
      "name": "exchangeBondsStorage",
      "outputs": [
        {
          "internalType": "address",
          "name": "",
          "type": "address"
        }
      ],
      "stateMutability": "view",
      "type": "function"
    },
    {
      "inputs": [
        {
          "internalType": "string",
          "name": "_dealID",
          "type": "string"
        },
        {
          "internalType": "uint256",
          "name": "_amountToAdd",
          "type": "uint256"
        }
      ],
      "name": "increaseListingAmount",
      "outputs": [],
      "stateMutability": "nonpayable",
      "type": "function"
    },
    {
      "inputs": [
        {
          "internalType": "address",
          "name": "",
          "type": "address"
        },
        {
          "internalType": "string",
          "name": "",
          "type": "string"
        }
      ],
      "name": "investorListing",
      "outputs": [
        {
          "internalType": "string",
          "name": "dealID",
          "type": "string"
        },
        {
          "internalType": "address",
          "name": "owner",
          "type": "address"
        },
        {
          "internalType": "uint256",
          "name": "amount",
          "type": "uint256"
        },
        {
          "internalType": "uint256",
          "name": "price",
          "type": "uint256"
        },
        {
          "internalType": "uint256",
          "name": "index",
          "type": "uint256"
        },
        {
          "internalType": "uint256",
          "name": "listingTime",
          "type": "uint256"
        }
      ],
      "stateMutability": "view",
      "type": "function"
    },
    {
      "inputs": [
        {
          "internalType": "string",
          "name": "_dealID",
          "type": "string"
        },
        {
          "internalType": "uint256",
          "name": "_amount",
          "type": "uint256"
        },
        {
          "internalType": "uint256",
          "name": "_price",
          "type": "uint256"
        }
      ],
      "name": "listBonds",
      "outputs": [],
      "stateMutability": "nonpayable",
      "type": "function"
    },
    {
      "inputs": [],
      "name": "owner",
      "outputs": [
        {
          "internalType": "address",
          "name": "",
          "type": "address"
        }
      ],
      "stateMutability": "view",
      "type": "function"
    },
    {
      "inputs": [
        {
          "internalType": "address",
          "name": "_exchangeBondsStorage",
          "type": "address"
        }
      ],
      "name": "setExchangeBondsStorage",
      "outputs": [],
      "stateMutability": "nonpayable",
      "type": "function"
    },
    {
      "inputs": [
        {
          "internalType": "string",
          "name": "_dealID",
          "type": "string"
        }
      ],
      "name": "unlistBonds",
      "outputs": [],
      "stateMutability": "nonpayable",
      "type": "function"
    },
    {
      "inputs": [
        {
          "internalType": "string",
          "name": "_dealID",
          "type": "string"
        },
        {
          "internalType": "uint256",
          "name": "_newPrice",
          "type": "uint256"
        }
      ],
      "name": "updateDealPrice",
      "outputs": [],
      "stateMutability": "nonpayable",
      "type": "function"
    }
  ],
  "bytecode": "0x60806040523480156200001157600080fd5b5060405162001e2438038062001e2483398181016040528101906200003791906200016c565b33600160006101000a81548173ffffffffffffffffffffffffffffffffffffffff021916908373ffffffffffffffffffffffffffffffffffffffff16021790555081600260006101000a81548173ffffffffffffffffffffffffffffffffffffffff021916908373ffffffffffffffffffffffffffffffffffffffff16021790555080600360006101000a81548173ffffffffffffffffffffffffffffffffffffffff021916908373ffffffffffffffffffffffffffffffffffffffff1602179055505050620001b3565b600080fd5b600073ffffffffffffffffffffffffffffffffffffffff82169050919050565b6000620001348262000107565b9050919050565b620001468162000127565b81146200015257600080fd5b50565b60008151905062000166816200013b565b92915050565b6000806040838503121562000186576200018562000102565b5b6000620001968582860162000155565b9250506020620001a98582860162000155565b9150509250929050565b611c6180620001c36000396000f3fe608060405234801561001057600080fd5b50600436106100a95760003560e01c8063865287901161007157806386528790146101575780638da5cb5b14610173578063916cdbfc14610191578063aa522a2c146101af578063ae7076ec146101cb578063cdd619f6146101e7576100a9565b806307c2e449146100ae5780632d9fc161146100cc5780634a51c8df146101015780635e43522e1461011d5780636f3b14101461013b575b600080fd5b6100b6610203565b6040516100c39190611120565b60405180910390f35b6100e660048036038101906100e191906112c1565b610229565b6040516100f8969594939291906113b5565b60405180910390f35b61011b6004803603810190610116919061141d565b610330565b005b61012561043d565b6040516101329190611120565b60405180910390f35b61015560048036038101906101509190611476565b610463565b005b610171600480360381019061016c91906114d2565b610576565b005b61017b6108cd565b6040516101889190611120565b60405180910390f35b6101996108f3565b6040516101a69190611120565b60405180910390f35b6101c960048036038101906101c49190611476565b610919565b005b6101e560048036038101906101e09190611541565b610c6b565b005b61020160048036038101906101fc91906115b0565b611014565b005b600260009054906101000a900473ffffffffffffffffffffffffffffffffffffffff1681565b6000602052816000526040600020818051602081018201805184825260208301602085012081835280955050505050506000915091505080600001805461026f90611628565b80601f016020809104026020016040519081016040528092919081815260200182805461029b90611628565b80156102e85780601f106102bd576101008083540402835291602001916102e8565b820191906000526020600020905b8154815290600101906020018083116102cb57829003601f168201915b5050505050908060010160009054906101000a900473ffffffffffffffffffffffffffffffffffffffff16908060020154908060030154908060040154908060050154905086565b600160009054906101000a900473ffffffffffffffffffffffffffffffffffffffff1673ffffffffffffffffffffffffffffffffffffffff163373ffffffffffffffffffffffffffffffffffffffff16146103c0576040517f08c379a00000000000000000000000000000000000000000000000000000000081526004016103b7906116a5565b60405180910390fd5b600073ffffffffffffffffffffffffffffffffffffffff168173ffffffffffffffffffffffffffffffffffffffff16036103f957600080fd5b80600460006101000a81548173ffffffffffffffffffffffffffffffffffffffff021916908373ffffffffffffffffffffffffffffffffffffffff16021790555050565b600360009054906101000a900473ffffffffffffffffffffffffffffffffffffffff1681565b600081116104a6576040517f08c379a000000000000000000000000000000000000000000000000000000000815260040161049d90611711565b60405180910390fd5b600460009054906101000a900473ffffffffffffffffffffffffffffffffffffffff1673ffffffffffffffffffffffffffffffffffffffff1663a33f7da08333846040518463ffffffff1660e01b815260040161050593929190611731565b600060405180830381600087803b15801561051f57600080fd5b505af1158015610533573d6000803e3d6000fd5b505050507f6a1d07ea5e6ff75e796159ad10cd2c8cff5620be1d029d17c1c910c607c4999b82338360405161056a93929190611731565b60405180910390a15050565b6000600260009054906101000a900473ffffffffffffffffffffffffffffffffffffffff1673ffffffffffffffffffffffffffffffffffffffff16632f667910856040518263ffffffff1660e01b81526004016105d3919061176f565b602060405180830381865afa1580156105f0573d6000803e3d6000fd5b505050506040513d601f19601f8201168201806040525081019061061491906117a6565b905060008173ffffffffffffffffffffffffffffffffffffffff1663dd62ed3e33306040518363ffffffff1660e01b81526004016106539291906117d3565b602060405180830381865afa158015610670573d6000803e3d6000fd5b505050506040513d601f19601f820116820180604052508101906106949190611811565b9050808411156106d9576040517f08c379a00000000000000000000000000000000000000000000000000000000081526004016106d09061188a565b60405180910390fd5b6000841161071c576040517f08c379a000000000000000000000000000000000000000000000000000000000815260040161071390611711565b60405180910390fd5b600460009054906101000a900473ffffffffffffffffffffffffffffffffffffffff1673ffffffffffffffffffffffffffffffffffffffff16635b91e752338787876040518563ffffffff1660e01b815260040161077d94939291906118aa565b600060405180830381600087803b15801561079757600080fd5b505af11580156107ab573d6000803e3d6000fd5b505050508173ffffffffffffffffffffffffffffffffffffffff1663ab67aa5833600460009054906101000a900473ffffffffffffffffffffffffffffffffffffffff16876040518060400160405280600381526020017f30783000000000000000000000000000000000000000000000000000000000008152506040518563ffffffff1660e01b8152600401610845949392919061194b565b6020604051808303816000875af1158015610864573d6000803e3d6000fd5b505050506040513d601f19601f8201168201806040525081019061088891906119cf565b507fe6cec3038e34f0ea6f50abffcc0f879c25f6a9983d5e7f3c35673cac0c5708f0853386866040516108be94939291906119fc565b60405180910390a15050505050565b600160009054906101000a900473ffffffffffffffffffffffffffffffffffffffff1681565b600460009054906101000a900473ffffffffffffffffffffffffffffffffffffffff1681565b6000600260009054906101000a900473ffffffffffffffffffffffffffffffffffffffff1673ffffffffffffffffffffffffffffffffffffffff16632f667910846040518263ffffffff1660e01b8152600401610976919061176f565b602060405180830381865afa158015610993573d6000803e3d6000fd5b505050506040513d601f19601f820116820180604052508101906109b791906117a6565b9050600082116109fc576040517f08c379a00000000000000000000000000000000000000000000000000000000081526004016109f390611711565b60405180910390fd5b600460009054906101000a900473ffffffffffffffffffffffffffffffffffffffff1673ffffffffffffffffffffffffffffffffffffffff1663995ae7d08433856040518463ffffffff1660e01b8152600401610a5b93929190611731565b600060405180830381600087803b158015610a7557600080fd5b505af1158015610a89573d6000803e3d6000fd5b5050505060008173ffffffffffffffffffffffffffffffffffffffff1663dd62ed3e33306040518363ffffffff1660e01b8152600401610aca9291906117d3565b602060405180830381865afa158015610ae7573d6000803e3d6000fd5b505050506040513d601f19601f82011682018060405250810190610b0b9190611811565b905080831115610b50576040517f08c379a0000000000000000000000000000000000000000000000000000000008152600401610b479061188a565b60405180910390fd5b8173ffffffffffffffffffffffffffffffffffffffff1663ab67aa5833600460009054906101000a900473ffffffffffffffffffffffffffffffffffffffff16866040518060400160405280600381526020017f30783000000000000000000000000000000000000000000000000000000000008152506040518563ffffffff1660e01b8152600401610be6949392919061194b565b6020604051808303816000875af1158015610c05573d6000803e3d6000fd5b505050506040513d601f19601f82011682018060405250810190610c2991906119cf565b507f1b98d975dd919d26350a21845e2ac202f276edc4dabd039c8bf8fdfdc1259221843385604051610c5d93929190611731565b60405180910390a150505050565b6000600260009054906101000a900473ffffffffffffffffffffffffffffffffffffffff1673ffffffffffffffffffffffffffffffffffffffff16632f667910856040518263ffffffff1660e01b8152600401610cc8919061176f565b602060405180830381865afa158015610ce5573d6000803e3d6000fd5b505050506040513d601f19601f82011682018060405250810190610d0991906117a6565b905060008173ffffffffffffffffffffffffffffffffffffffff1663e5a6b10f6040518163ffffffff1660e01b8152600401602060405180830381865afa158015610d58573d6000803e3d6000fd5b505050506040513d601f19601f82011682018060405250810190610d7c91906117a6565b905060008060008673ffffffffffffffffffffffffffffffffffffffff1673ffffffffffffffffffffffffffffffffffffffff16815260200190815260200160002086604051610dcc9190611a84565b90815260200160405180910390206003015490506000670de0b6b3a764000082610df69190611aca565b905060008373ffffffffffffffffffffffffffffffffffffffff166370a08231336040518263ffffffff1660e01b8152600401610e339190611120565b602060405180830381865afa158015610e50573d6000803e3d6000fd5b505050506040513d601f19601f82011682018060405250810190610e749190611811565b905081811015610eb9576040517f08c379a0000000000000000000000000000000000000000000000000000000008152600401610eb090611b58565b60405180910390fd5b600460009054906101000a900473ffffffffffffffffffffffffffffffffffffffff1673ffffffffffffffffffffffffffffffffffffffff1663d32e0f278989338a6040518563ffffffff1660e01b8152600401610f1a9493929190611b78565b600060405180830381600087803b158015610f3457600080fd5b505af1158015610f48573d6000803e3d6000fd5b505050508373ffffffffffffffffffffffffffffffffffffffff166323b872dd3389856040518463ffffffff1660e01b8152600401610f8993929190611bc4565b6020604051808303816000875af1158015610fa8573d6000803e3d6000fd5b505050506040513d601f19601f82011682018060405250810190610fcc91906119cf565b507f820bf2ae1f4bcd166e4adb6e32d112ef2164e186e503a62eba485748d1c72ea1888833896040516110029493929190611b78565b60405180910390a15050505050505050565b600460009054906101000a900473ffffffffffffffffffffffffffffffffffffffff1673ffffffffffffffffffffffffffffffffffffffff16632cc9143f82336040518363ffffffff1660e01b8152600401611071929190611bfb565b600060405180830381600087803b15801561108b57600080fd5b505af115801561109f573d6000803e3d6000fd5b505050507fa7236108b1b13656f4c805e22e6ec64d5570479fface325dcf755e3e984e80e881336040516110d4929190611bfb565b60405180910390a150565b600073ffffffffffffffffffffffffffffffffffffffff82169050919050565b600061110a826110df565b9050919050565b61111a816110ff565b82525050565b60006020820190506111356000830184611111565b92915050565b6000604051905090565b600080fd5b600080fd5b611158816110ff565b811461116357600080fd5b50565b6000813590506111758161114f565b92915050565b600080fd5b600080fd5b6000601f19601f8301169050919050565b7f4e487b7100000000000000000000000000000000000000000000000000000000600052604160045260246000fd5b6111ce82611185565b810181811067ffffffffffffffff821117156111ed576111ec611196565b5b80604052505050565b600061120061113b565b905061120c82826111c5565b919050565b600067ffffffffffffffff82111561122c5761122b611196565b5b61123582611185565b9050602081019050919050565b82818337600083830152505050565b600061126461125f84611211565b6111f6565b9050828152602081018484840111156112805761127f611180565b5b61128b848285611242565b509392505050565b600082601f8301126112a8576112a761117b565b5b81356112b8848260208601611251565b91505092915050565b600080604083850312156112d8576112d7611145565b5b60006112e685828601611166565b925050602083013567ffffffffffffffff8111156113075761130661114a565b5b61131385828601611293565b9150509250929050565b600081519050919050565b600082825260208201905092915050565b60005b8381101561135757808201518184015260208101905061133c565b60008484015250505050565b600061136e8261131d565b6113788185611328565b9350611388818560208601611339565b61139181611185565b840191505092915050565b6000819050919050565b6113af8161139c565b82525050565b600060c08201905081810360008301526113cf8189611363565b90506113de6020830188611111565b6113eb60408301876113a6565b6113f860608301866113a6565b61140560808301856113a6565b61141260a08301846113a6565b979650505050505050565b60006020828403121561143357611432611145565b5b600061144184828501611166565b91505092915050565b6114538161139c565b811461145e57600080fd5b50565b6000813590506114708161144a565b92915050565b6000806040838503121561148d5761148c611145565b5b600083013567ffffffffffffffff8111156114ab576114aa61114a565b5b6114b785828601611293565b92505060206114c885828601611461565b9150509250929050565b6000806000606084860312156114eb576114ea611145565b5b600084013567ffffffffffffffff8111156115095761150861114a565b5b61151586828701611293565b935050602061152686828701611461565b925050604061153786828701611461565b9150509250925092565b60008060006060848603121561155a57611559611145565b5b600084013567ffffffffffffffff8111156115785761157761114a565b5b61158486828701611293565b935050602061159586828701611166565b92505060406115a686828701611461565b9150509250925092565b6000602082840312156115c6576115c5611145565b5b600082013567ffffffffffffffff8111156115e4576115e361114a565b5b6115f084828501611293565b91505092915050565b7f4e487b7100000000000000000000000000000000000000000000000000000000600052602260045260246000fd5b6000600282049050600182168061164057607f821691505b602082108103611653576116526115f9565b5b50919050565b7f4f6e6c79206f776e657200000000000000000000000000000000000000000000600082015250565b600061168f600a83611328565b915061169a82611659565b602082019050919050565b600060208201905081810360008301526116be81611682565b9050919050565b7f696e76616c696420616d6f756e74000000000000000000000000000000000000600082015250565b60006116fb600e83611328565b9150611706826116c5565b602082019050919050565b6000602082019050818103600083015261172a816116ee565b9050919050565b6000606082019050818103600083015261174b8186611363565b905061175a6020830185611111565b61176760408301846113a6565b949350505050565b600060208201905081810360008301526117898184611363565b905092915050565b6000815190506117a08161114f565b92915050565b6000602082840312156117bc576117bb611145565b5b60006117ca84828501611791565b91505092915050565b60006040820190506117e86000830185611111565b6117f56020830184611111565b9392505050565b60008151905061180b8161144a565b92915050565b60006020828403121561182757611826611145565b5b6000611835848285016117fc565b91505092915050565b7f616c6c6f77616e63650000000000000000000000000000000000000000000000600082015250565b6000611874600983611328565b915061187f8261183e565b602082019050919050565b600060208201905081810360008301526118a381611867565b9050919050565b60006080820190506118bf6000830187611111565b81810360208301526118d18186611363565b90506118e060408301856113a6565b6118ed60608301846113a6565b95945050505050565b600081519050919050565b600082825260208201905092915050565b600061191d826118f6565b6119278185611901565b9350611937818560208601611339565b61194081611185565b840191505092915050565b60006080820190506119606000830187611111565b61196d6020830186611111565b61197a60408301856113a6565b818103606083015261198c8184611912565b905095945050505050565b60008115159050919050565b6119ac81611997565b81146119b757600080fd5b50565b6000815190506119c9816119a3565b92915050565b6000602082840312156119e5576119e4611145565b5b60006119f3848285016119ba565b91505092915050565b60006080820190508181036000830152611a168187611363565b9050611a256020830186611111565b611a3260408301856113a6565b611a3f60608301846113a6565b95945050505050565b600081905092915050565b6000611a5e8261131d565b611a688185611a48565b9350611a78818560208601611339565b80840191505092915050565b6000611a908284611a53565b915081905092915050565b7f4e487b7100000000000000000000000000000000000000000000000000000000600052601160045260246000fd5b6000611ad58261139c565b9150611ae08361139c565b9250828202611aee8161139c565b91508282048414831517611b0557611b04611a9b565b5b5092915050565b7f62616c616e636500000000000000000000000000000000000000000000000000600082015250565b6000611b42600783611328565b9150611b4d82611b0c565b602082019050919050565b60006020820190508181036000830152611b7181611b35565b9050919050565b60006080820190508181036000830152611b928187611363565b9050611ba16020830186611111565b611bae6040830185611111565b611bbb60608301846113a6565b95945050505050565b6000606082019050611bd96000830186611111565b611be66020830185611111565b611bf360408301846113a6565b949350505050565b60006040820190508181036000830152611c158185611363565b9050611c246020830184611111565b939250505056fea2646970667358221220507a7ac6d03ddea8c6292807679c1890a2c33951b72a30c09ba78d5991b5b6c464736f6c63430008130033",
  "linkReferences": {},
  "deployedLinkReferences": {}
}