{
  "_format": "hh-sol-artifact-1",
  "contractName": "Exchange",
  "sourceName": "contracts/Topos/Exchange/Exchange.sol",
  "abi": [
    {
      "inputs": [
        {
          "internalType": "address",
          "name": "_bondCallContract",
          "type": "address"
        }
      ],
      "stateMutability": "nonpayable",
      "type": "constructor"
    },
    {
      "inputs": [],
      "name": "bondCallContract",
      "outputs": [
        {
          "internalType": "address",
          "name": "",
          "type": "address"
        }
      ],
      "stateMutability": "view",
      "type": "function"
    },
    {
      "inputs": [
        {
          "components": [
            {
              "internalType": "address",
              "name": "owner",
              "type": "address"
            },
            {
              "internalType": "uint256",
              "name": "amount",
              "type": "uint256"
            },
            {
              "internalType": "address",
              "name": "bondContract",
              "type": "address"
            }
          ],
          "internalType": "struct BondData.Listing",
          "name": "_listing",
          "type": "tuple"
        }
      ],
      "name": "listBonds",
      "outputs": [],
      "stateMutability": "nonpayable",
      "type": "function"
    }
  ],
  "bytecode": "0x608060405234801561001057600080fd5b5060405161029b38038061029b833981810160405281019061003291906100db565b806000806101000a81548173ffffffffffffffffffffffffffffffffffffffff021916908373ffffffffffffffffffffffffffffffffffffffff16021790555050610108565b600080fd5b600073ffffffffffffffffffffffffffffffffffffffff82169050919050565b60006100a88261007d565b9050919050565b6100b88161009d565b81146100c357600080fd5b50565b6000815190506100d5816100af565b92915050565b6000602082840312156100f1576100f0610078565b5b60006100ff848285016100c6565b91505092915050565b610184806101176000396000f3fe608060405234801561001057600080fd5b50600436106100365760003560e01c80631df7dfdf1461003b5780635e43522e14610057575b600080fd5b610055600480360381019061005091906100c5565b610075565b005b61005f610078565b60405161006c9190610133565b60405180910390f35b50565b60008054906101000a900473ffffffffffffffffffffffffffffffffffffffff1681565b600080fd5b600080fd5b6000606082840312156100bc576100bb6100a1565b5b81905092915050565b6000606082840312156100db576100da61009c565b5b60006100e9848285016100a6565b91505092915050565b600073ffffffffffffffffffffffffffffffffffffffff82169050919050565b600061011d826100f2565b9050919050565b61012d81610112565b82525050565b60006020820190506101486000830184610124565b9291505056fea2646970667358221220c5ac9f41b8313e7ec1c41926833935993b8405c7001c913f545760f811e5721964736f6c63430008130033",
  "linkReferences": {},
  "deployedLinkReferences": {}
}