{
  "_format": "hh-sol-artifact-1",
  "contractName": "Exchange",
  "sourceName": "contracts/Topos/Exchange/Exchange.sol",
  "abi": [
    {
      "inputs": [
        {
          "internalType": "address",
          "name": "_bankContract",
          "type": "address"
        },
        {
          "internalType": "address",
          "name": "_bondCallContract",
          "type": "address"
        }
      ],
      "stateMutability": "nonpayable",
      "type": "constructor"
    },
    {
      "anonymous": false,
      "inputs": [
        {
          "indexed": false,
          "internalType": "string",
          "name": "dealID",
          "type": "string"
        },
        {
          "indexed": false,
          "internalType": "address",
          "name": "seller",
          "type": "address"
        },
        {
          "indexed": false,
          "internalType": "uint256",
          "name": "amountToAdd",
          "type": "uint256"
        }
      ],
      "name": "AmountIncreased",
      "type": "event"
    },
    {
      "anonymous": false,
      "inputs": [
        {
          "indexed": false,
          "internalType": "string",
          "name": "dealID",
          "type": "string"
        },
        {
          "indexed": false,
          "internalType": "address",
          "name": "seller",
          "type": "address"
        },
        {
          "indexed": false,
          "internalType": "address",
          "name": "buyer",
          "type": "address"
        },
        {
          "indexed": false,
          "internalType": "uint256",
          "name": "amount",
          "type": "uint256"
        }
      ],
      "name": "BondBought",
      "type": "event"
    },
    {
      "anonymous": false,
      "inputs": [
        {
          "indexed": false,
          "internalType": "string",
          "name": "dealID",
          "type": "string"
        },
        {
          "indexed": false,
          "internalType": "address",
          "name": "seller",
          "type": "address"
        }
      ],
      "name": "BondsCanceled",
      "type": "event"
    },
    {
      "anonymous": false,
      "inputs": [
        {
          "indexed": false,
          "internalType": "string",
          "name": "dealID",
          "type": "string"
        },
        {
          "indexed": false,
          "internalType": "address",
          "name": "seller",
          "type": "address"
        },
        {
          "indexed": false,
          "internalType": "uint256",
          "name": "amount",
          "type": "uint256"
        },
        {
          "indexed": false,
          "internalType": "uint256",
          "name": "price",
          "type": "uint256"
        }
      ],
      "name": "BondsListed",
      "type": "event"
    },
    {
      "anonymous": false,
      "inputs": [
        {
          "indexed": false,
          "internalType": "string",
          "name": "dealID",
          "type": "string"
        },
        {
          "indexed": false,
          "internalType": "address",
          "name": "seller",
          "type": "address"
        },
        {
          "indexed": false,
          "internalType": "uint256",
          "name": "newPrice",
          "type": "uint256"
        }
      ],
      "name": "PriceUpdated",
      "type": "event"
    },
    {
      "inputs": [],
      "name": "bankContract",
      "outputs": [
        {
          "internalType": "address",
          "name": "",
          "type": "address"
        }
      ],
      "stateMutability": "view",
      "type": "function"
    },
    {
      "inputs": [],
      "name": "bondCallContract",
      "outputs": [
        {
          "internalType": "address",
          "name": "",
          "type": "address"
        }
      ],
      "stateMutability": "view",
      "type": "function"
    },
    {
      "inputs": [
        {
          "internalType": "string",
          "name": "_dealID",
          "type": "string"
        },
        {
          "internalType": "address",
          "name": "_seller",
          "type": "address"
        },
        {
          "internalType": "uint256",
          "name": "_amount",
          "type": "uint256"
        }
      ],
      "name": "buyBonds",
      "outputs": [],
      "stateMutability": "nonpayable",
      "type": "function"
    },
    {
      "inputs": [],
      "name": "exchangeBondsStorage",
      "outputs": [
        {
          "internalType": "address",
          "name": "",
          "type": "address"
        }
      ],
      "stateMutability": "view",
      "type": "function"
    },
    {
      "inputs": [],
      "name": "getDealsListed",
      "outputs": [
        {
          "components": [
            {
              "internalType": "string",
              "name": "dealID",
              "type": "string"
            },
            {
              "internalType": "address",
              "name": "owner",
              "type": "address"
            },
            {
              "internalType": "uint256",
              "name": "amount",
              "type": "uint256"
            },
            {
              "internalType": "uint256",
              "name": "price",
              "type": "uint256"
            },
            {
              "internalType": "uint256",
              "name": "index",
              "type": "uint256"
            },
            {
              "internalType": "uint256",
              "name": "listingTime",
              "type": "uint256"
            }
          ],
          "internalType": "struct BondData.Listing[]",
          "name": "",
          "type": "tuple[]"
        }
      ],
      "stateMutability": "view",
      "type": "function"
    },
    {
      "inputs": [
        {
          "internalType": "string",
          "name": "_dealID",
          "type": "string"
        },
        {
          "internalType": "uint256",
          "name": "_amountToAdd",
          "type": "uint256"
        }
      ],
      "name": "increaseListingAmount",
      "outputs": [],
      "stateMutability": "nonpayable",
      "type": "function"
    },
    {
      "inputs": [
        {
          "internalType": "address",
          "name": "",
          "type": "address"
        },
        {
          "internalType": "string",
          "name": "",
          "type": "string"
        }
      ],
      "name": "investorListing",
      "outputs": [
        {
          "internalType": "string",
          "name": "dealID",
          "type": "string"
        },
        {
          "internalType": "address",
          "name": "owner",
          "type": "address"
        },
        {
          "internalType": "uint256",
          "name": "amount",
          "type": "uint256"
        },
        {
          "internalType": "uint256",
          "name": "price",
          "type": "uint256"
        },
        {
          "internalType": "uint256",
          "name": "index",
          "type": "uint256"
        },
        {
          "internalType": "uint256",
          "name": "listingTime",
          "type": "uint256"
        }
      ],
      "stateMutability": "view",
      "type": "function"
    },
    {
      "inputs": [
        {
          "internalType": "string",
          "name": "_dealID",
          "type": "string"
        },
        {
          "internalType": "uint256",
          "name": "_amount",
          "type": "uint256"
        },
        {
          "internalType": "uint256",
          "name": "_price",
          "type": "uint256"
        }
      ],
      "name": "listBonds",
      "outputs": [],
      "stateMutability": "nonpayable",
      "type": "function"
    },
    {
      "inputs": [],
      "name": "owner",
      "outputs": [
        {
          "internalType": "address",
          "name": "",
          "type": "address"
        }
      ],
      "stateMutability": "view",
      "type": "function"
    },
    {
      "inputs": [
        {
          "internalType": "address",
          "name": "_exchangeBondsStorage",
          "type": "address"
        }
      ],
      "name": "setExchangeBondsStorage",
      "outputs": [],
      "stateMutability": "nonpayable",
      "type": "function"
    },
    {
      "inputs": [
        {
          "internalType": "string",
          "name": "_dealID",
          "type": "string"
        }
      ],
      "name": "unlistBonds",
      "outputs": [],
      "stateMutability": "nonpayable",
      "type": "function"
    },
    {
      "inputs": [
        {
          "internalType": "string",
          "name": "_dealID",
          "type": "string"
        },
        {
          "internalType": "uint256",
          "name": "_newPrice",
          "type": "uint256"
        }
      ],
      "name": "updateDealPrice",
      "outputs": [],
      "stateMutability": "nonpayable",
      "type": "function"
    }
  ],
  "bytecode": "0x60806040523480156200001157600080fd5b50604051620021913803806200219183398181016040528101906200003791906200016c565b33600160006101000a81548173ffffffffffffffffffffffffffffffffffffffff021916908373ffffffffffffffffffffffffffffffffffffffff16021790555081600260006101000a81548173ffffffffffffffffffffffffffffffffffffffff021916908373ffffffffffffffffffffffffffffffffffffffff16021790555080600360006101000a81548173ffffffffffffffffffffffffffffffffffffffff021916908373ffffffffffffffffffffffffffffffffffffffff1602179055505050620001b3565b600080fd5b600073ffffffffffffffffffffffffffffffffffffffff82169050919050565b6000620001348262000107565b9050919050565b620001468162000127565b81146200015257600080fd5b50565b60008151905062000166816200013b565b92915050565b6000806040838503121562000186576200018562000102565b5b6000620001968582860162000155565b9250506020620001a98582860162000155565b9150509250929050565b611fce80620001c36000396000f3fe608060405234801561001057600080fd5b50600436106100b45760003560e01c80638da5cb5b116100715780638da5cb5b1461017e578063916cdbfc1461019c578063aa522a2c146101ba578063ae7076ec146101d6578063cdd619f6146101f2578063f14049d51461020e576100b4565b806307c2e449146100b95780632d9fc161146100d75780634a51c8df1461010c5780635e43522e146101285780636f3b1410146101465780638652879014610162575b600080fd5b6100c161022c565b6040516100ce91906112b8565b60405180910390f35b6100f160048036038101906100ec9190611459565b610252565b6040516101039695949392919061154d565b60405180910390f35b610126600480360381019061012191906115b5565b610359565b005b610130610466565b60405161013d91906112b8565b60405180910390f35b610160600480360381019061015b919061160e565b61048c565b005b61017c6004803603810190610177919061166a565b61059f565b005b6101866108f6565b60405161019391906112b8565b60405180910390f35b6101a461091c565b6040516101b191906112b8565b60405180910390f35b6101d460048036038101906101cf919061160e565b610942565b005b6101f060048036038101906101eb91906116d9565b610c94565b005b61020c60048036038101906102079190611748565b61103d565b005b610216611108565b6040516102239190611944565b60405180910390f35b600260009054906101000a900473ffffffffffffffffffffffffffffffffffffffff1681565b6000602052816000526040600020818051602081018201805184825260208301602085012081835280955050505050506000915091505080600001805461029890611995565b80601f01602080910402602001604051908101604052809291908181526020018280546102c490611995565b80156103115780601f106102e657610100808354040283529160200191610311565b820191906000526020600020905b8154815290600101906020018083116102f457829003601f168201915b5050505050908060010160009054906101000a900473ffffffffffffffffffffffffffffffffffffffff16908060020154908060030154908060040154908060050154905086565b600160009054906101000a900473ffffffffffffffffffffffffffffffffffffffff1673ffffffffffffffffffffffffffffffffffffffff163373ffffffffffffffffffffffffffffffffffffffff16146103e9576040517f08c379a00000000000000000000000000000000000000000000000000000000081526004016103e090611a12565b60405180910390fd5b600073ffffffffffffffffffffffffffffffffffffffff168173ffffffffffffffffffffffffffffffffffffffff160361042257600080fd5b80600460006101000a81548173ffffffffffffffffffffffffffffffffffffffff021916908373ffffffffffffffffffffffffffffffffffffffff16021790555050565b600360009054906101000a900473ffffffffffffffffffffffffffffffffffffffff1681565b600081116104cf576040517f08c379a00000000000000000000000000000000000000000000000000000000081526004016104c690611a7e565b60405180910390fd5b600460009054906101000a900473ffffffffffffffffffffffffffffffffffffffff1673ffffffffffffffffffffffffffffffffffffffff1663a33f7da08333846040518463ffffffff1660e01b815260040161052e93929190611a9e565b600060405180830381600087803b15801561054857600080fd5b505af115801561055c573d6000803e3d6000fd5b505050507f6a1d07ea5e6ff75e796159ad10cd2c8cff5620be1d029d17c1c910c607c4999b82338360405161059393929190611a9e565b60405180910390a15050565b6000600260009054906101000a900473ffffffffffffffffffffffffffffffffffffffff1673ffffffffffffffffffffffffffffffffffffffff16632f667910856040518263ffffffff1660e01b81526004016105fc9190611adc565b602060405180830381865afa158015610619573d6000803e3d6000fd5b505050506040513d601f19601f8201168201806040525081019061063d9190611b13565b905060008173ffffffffffffffffffffffffffffffffffffffff1663dd62ed3e33306040518363ffffffff1660e01b815260040161067c929190611b40565b602060405180830381865afa158015610699573d6000803e3d6000fd5b505050506040513d601f19601f820116820180604052508101906106bd9190611b7e565b905080841115610702576040517f08c379a00000000000000000000000000000000000000000000000000000000081526004016106f990611bf7565b60405180910390fd5b60008411610745576040517f08c379a000000000000000000000000000000000000000000000000000000000815260040161073c90611a7e565b60405180910390fd5b600460009054906101000a900473ffffffffffffffffffffffffffffffffffffffff1673ffffffffffffffffffffffffffffffffffffffff16635b91e752338787876040518563ffffffff1660e01b81526004016107a69493929190611c17565b600060405180830381600087803b1580156107c057600080fd5b505af11580156107d4573d6000803e3d6000fd5b505050508173ffffffffffffffffffffffffffffffffffffffff1663ab67aa5833600460009054906101000a900473ffffffffffffffffffffffffffffffffffffffff16876040518060400160405280600381526020017f30783000000000000000000000000000000000000000000000000000000000008152506040518563ffffffff1660e01b815260040161086e9493929190611cb8565b6020604051808303816000875af115801561088d573d6000803e3d6000fd5b505050506040513d601f19601f820116820180604052508101906108b19190611d3c565b507fe6cec3038e34f0ea6f50abffcc0f879c25f6a9983d5e7f3c35673cac0c5708f0853386866040516108e79493929190611d69565b60405180910390a15050505050565b600160009054906101000a900473ffffffffffffffffffffffffffffffffffffffff1681565b600460009054906101000a900473ffffffffffffffffffffffffffffffffffffffff1681565b6000600260009054906101000a900473ffffffffffffffffffffffffffffffffffffffff1673ffffffffffffffffffffffffffffffffffffffff16632f667910846040518263ffffffff1660e01b815260040161099f9190611adc565b602060405180830381865afa1580156109bc573d6000803e3d6000fd5b505050506040513d601f19601f820116820180604052508101906109e09190611b13565b905060008211610a25576040517f08c379a0000000000000000000000000000000000000000000000000000000008152600401610a1c90611a7e565b60405180910390fd5b600460009054906101000a900473ffffffffffffffffffffffffffffffffffffffff1673ffffffffffffffffffffffffffffffffffffffff1663995ae7d08433856040518463ffffffff1660e01b8152600401610a8493929190611a9e565b600060405180830381600087803b158015610a9e57600080fd5b505af1158015610ab2573d6000803e3d6000fd5b5050505060008173ffffffffffffffffffffffffffffffffffffffff1663dd62ed3e33306040518363ffffffff1660e01b8152600401610af3929190611b40565b602060405180830381865afa158015610b10573d6000803e3d6000fd5b505050506040513d601f19601f82011682018060405250810190610b349190611b7e565b905080831115610b79576040517f08c379a0000000000000000000000000000000000000000000000000000000008152600401610b7090611bf7565b60405180910390fd5b8173ffffffffffffffffffffffffffffffffffffffff1663ab67aa5833600460009054906101000a900473ffffffffffffffffffffffffffffffffffffffff16866040518060400160405280600381526020017f30783000000000000000000000000000000000000000000000000000000000008152506040518563ffffffff1660e01b8152600401610c0f9493929190611cb8565b6020604051808303816000875af1158015610c2e573d6000803e3d6000fd5b505050506040513d601f19601f82011682018060405250810190610c529190611d3c565b507f1b98d975dd919d26350a21845e2ac202f276edc4dabd039c8bf8fdfdc1259221843385604051610c8693929190611a9e565b60405180910390a150505050565b6000600260009054906101000a900473ffffffffffffffffffffffffffffffffffffffff1673ffffffffffffffffffffffffffffffffffffffff16632f667910856040518263ffffffff1660e01b8152600401610cf19190611adc565b602060405180830381865afa158015610d0e573d6000803e3d6000fd5b505050506040513d601f19601f82011682018060405250810190610d329190611b13565b905060008173ffffffffffffffffffffffffffffffffffffffff1663e5a6b10f6040518163ffffffff1660e01b8152600401602060405180830381865afa158015610d81573d6000803e3d6000fd5b505050506040513d601f19601f82011682018060405250810190610da59190611b13565b905060008060008673ffffffffffffffffffffffffffffffffffffffff1673ffffffffffffffffffffffffffffffffffffffff16815260200190815260200160002086604051610df59190611df1565b90815260200160405180910390206003015490506000670de0b6b3a764000082610e1f9190611e37565b905060008373ffffffffffffffffffffffffffffffffffffffff166370a08231336040518263ffffffff1660e01b8152600401610e5c91906112b8565b602060405180830381865afa158015610e79573d6000803e3d6000fd5b505050506040513d601f19601f82011682018060405250810190610e9d9190611b7e565b905081811015610ee2576040517f08c379a0000000000000000000000000000000000000000000000000000000008152600401610ed990611ec5565b60405180910390fd5b600460009054906101000a900473ffffffffffffffffffffffffffffffffffffffff1673ffffffffffffffffffffffffffffffffffffffff1663d32e0f278989338a6040518563ffffffff1660e01b8152600401610f439493929190611ee5565b600060405180830381600087803b158015610f5d57600080fd5b505af1158015610f71573d6000803e3d6000fd5b505050508373ffffffffffffffffffffffffffffffffffffffff166323b872dd3389856040518463ffffffff1660e01b8152600401610fb293929190611f31565b6020604051808303816000875af1158015610fd1573d6000803e3d6000fd5b505050506040513d601f19601f82011682018060405250810190610ff59190611d3c565b507f820bf2ae1f4bcd166e4adb6e32d112ef2164e186e503a62eba485748d1c72ea18888338960405161102b9493929190611ee5565b60405180910390a15050505050505050565b600460009054906101000a900473ffffffffffffffffffffffffffffffffffffffff1673ffffffffffffffffffffffffffffffffffffffff16632cc9143f82336040518363ffffffff1660e01b815260040161109a929190611f68565b600060405180830381600087803b1580156110b457600080fd5b505af11580156110c8573d6000803e3d6000fd5b505050507fa7236108b1b13656f4c805e22e6ec64d5570479fface325dcf755e3e984e80e881336040516110fd929190611f68565b60405180910390a150565b60606005805480602002602001604051908101604052809291908181526020016000905b8282101561126e57838290600052602060002090600602016040518060c001604052908160008201805461115f90611995565b80601f016020809104026020016040519081016040528092919081815260200182805461118b90611995565b80156111d85780601f106111ad576101008083540402835291602001916111d8565b820191906000526020600020905b8154815290600101906020018083116111bb57829003601f168201915b505050505081526020016001820160009054906101000a900473ffffffffffffffffffffffffffffffffffffffff1673ffffffffffffffffffffffffffffffffffffffff1673ffffffffffffffffffffffffffffffffffffffff1681526020016002820154815260200160038201548152602001600482015481526020016005820154815250508152602001906001019061112c565b50505050905090565b600073ffffffffffffffffffffffffffffffffffffffff82169050919050565b60006112a282611277565b9050919050565b6112b281611297565b82525050565b60006020820190506112cd60008301846112a9565b92915050565b6000604051905090565b600080fd5b600080fd5b6112f081611297565b81146112fb57600080fd5b50565b60008135905061130d816112e7565b92915050565b600080fd5b600080fd5b6000601f19601f8301169050919050565b7f4e487b7100000000000000000000000000000000000000000000000000000000600052604160045260246000fd5b6113668261131d565b810181811067ffffffffffffffff821117156113855761138461132e565b5b80604052505050565b60006113986112d3565b90506113a4828261135d565b919050565b600067ffffffffffffffff8211156113c4576113c361132e565b5b6113cd8261131d565b9050602081019050919050565b82818337600083830152505050565b60006113fc6113f7846113a9565b61138e565b90508281526020810184848401111561141857611417611318565b5b6114238482856113da565b509392505050565b600082601f8301126114405761143f611313565b5b81356114508482602086016113e9565b91505092915050565b600080604083850312156114705761146f6112dd565b5b600061147e858286016112fe565b925050602083013567ffffffffffffffff81111561149f5761149e6112e2565b5b6114ab8582860161142b565b9150509250929050565b600081519050919050565b600082825260208201905092915050565b60005b838110156114ef5780820151818401526020810190506114d4565b60008484015250505050565b6000611506826114b5565b61151081856114c0565b93506115208185602086016114d1565b6115298161131d565b840191505092915050565b6000819050919050565b61154781611534565b82525050565b600060c082019050818103600083015261156781896114fb565b905061157660208301886112a9565b611583604083018761153e565b611590606083018661153e565b61159d608083018561153e565b6115aa60a083018461153e565b979650505050505050565b6000602082840312156115cb576115ca6112dd565b5b60006115d9848285016112fe565b91505092915050565b6115eb81611534565b81146115f657600080fd5b50565b600081359050611608816115e2565b92915050565b60008060408385031215611625576116246112dd565b5b600083013567ffffffffffffffff811115611643576116426112e2565b5b61164f8582860161142b565b9250506020611660858286016115f9565b9150509250929050565b600080600060608486031215611683576116826112dd565b5b600084013567ffffffffffffffff8111156116a1576116a06112e2565b5b6116ad8682870161142b565b93505060206116be868287016115f9565b92505060406116cf868287016115f9565b9150509250925092565b6000806000606084860312156116f2576116f16112dd565b5b600084013567ffffffffffffffff8111156117105761170f6112e2565b5b61171c8682870161142b565b935050602061172d868287016112fe565b925050604061173e868287016115f9565b9150509250925092565b60006020828403121561175e5761175d6112dd565b5b600082013567ffffffffffffffff81111561177c5761177b6112e2565b5b6117888482850161142b565b91505092915050565b600081519050919050565b600082825260208201905092915050565b6000819050602082019050919050565b600082825260208201905092915050565b60006117d9826114b5565b6117e381856117bd565b93506117f38185602086016114d1565b6117fc8161131d565b840191505092915050565b61181081611297565b82525050565b61181f81611534565b82525050565b600060c083016000830151848203600086015261184282826117ce565b91505060208301516118576020860182611807565b50604083015161186a6040860182611816565b50606083015161187d6060860182611816565b5060808301516118906080860182611816565b5060a08301516118a360a0860182611816565b508091505092915050565b60006118ba8383611825565b905092915050565b6000602082019050919050565b60006118da82611791565b6118e4818561179c565b9350836020820285016118f6856117ad565b8060005b85811015611932578484038952815161191385826118ae565b945061191e836118c2565b925060208a019950506001810190506118fa565b50829750879550505050505092915050565b6000602082019050818103600083015261195e81846118cf565b905092915050565b7f4e487b7100000000000000000000000000000000000000000000000000000000600052602260045260246000fd5b600060028204905060018216806119ad57607f821691505b6020821081036119c0576119bf611966565b5b50919050565b7f4f6e6c79206f776e657200000000000000000000000000000000000000000000600082015250565b60006119fc600a836114c0565b9150611a07826119c6565b602082019050919050565b60006020820190508181036000830152611a2b816119ef565b9050919050565b7f696e76616c696420616d6f756e74000000000000000000000000000000000000600082015250565b6000611a68600e836114c0565b9150611a7382611a32565b602082019050919050565b60006020820190508181036000830152611a9781611a5b565b9050919050565b60006060820190508181036000830152611ab881866114fb565b9050611ac760208301856112a9565b611ad4604083018461153e565b949350505050565b60006020820190508181036000830152611af681846114fb565b905092915050565b600081519050611b0d816112e7565b92915050565b600060208284031215611b2957611b286112dd565b5b6000611b3784828501611afe565b91505092915050565b6000604082019050611b5560008301856112a9565b611b6260208301846112a9565b9392505050565b600081519050611b78816115e2565b92915050565b600060208284031215611b9457611b936112dd565b5b6000611ba284828501611b69565b91505092915050565b7f616c6c6f77616e63650000000000000000000000000000000000000000000000600082015250565b6000611be16009836114c0565b9150611bec82611bab565b602082019050919050565b60006020820190508181036000830152611c1081611bd4565b9050919050565b6000608082019050611c2c60008301876112a9565b8181036020830152611c3e81866114fb565b9050611c4d604083018561153e565b611c5a606083018461153e565b95945050505050565b600081519050919050565b600082825260208201905092915050565b6000611c8a82611c63565b611c948185611c6e565b9350611ca48185602086016114d1565b611cad8161131d565b840191505092915050565b6000608082019050611ccd60008301876112a9565b611cda60208301866112a9565b611ce7604083018561153e565b8181036060830152611cf98184611c7f565b905095945050505050565b60008115159050919050565b611d1981611d04565b8114611d2457600080fd5b50565b600081519050611d3681611d10565b92915050565b600060208284031215611d5257611d516112dd565b5b6000611d6084828501611d27565b91505092915050565b60006080820190508181036000830152611d8381876114fb565b9050611d9260208301866112a9565b611d9f604083018561153e565b611dac606083018461153e565b95945050505050565b600081905092915050565b6000611dcb826114b5565b611dd58185611db5565b9350611de58185602086016114d1565b80840191505092915050565b6000611dfd8284611dc0565b915081905092915050565b7f4e487b7100000000000000000000000000000000000000000000000000000000600052601160045260246000fd5b6000611e4282611534565b9150611e4d83611534565b9250828202611e5b81611534565b91508282048414831517611e7257611e71611e08565b5b5092915050565b7f62616c616e636500000000000000000000000000000000000000000000000000600082015250565b6000611eaf6007836114c0565b9150611eba82611e79565b602082019050919050565b60006020820190508181036000830152611ede81611ea2565b9050919050565b60006080820190508181036000830152611eff81876114fb565b9050611f0e60208301866112a9565b611f1b60408301856112a9565b611f28606083018461153e565b95945050505050565b6000606082019050611f4660008301866112a9565b611f5360208301856112a9565b611f60604083018461153e565b949350505050565b60006040820190508181036000830152611f8281856114fb565b9050611f9160208301846112a9565b939250505056fea26469706673582212202c6b41a9e306b77897c1024f5be83214d4e3d7b9fd2cb5363275f1b4c086ab2c64736f6c63430008130033",
  "linkReferences": {},
  "deployedLinkReferences": {}
}