{
  "_format": "hh-sol-artifact-1",
  "contractName": "IRSFactory",
  "sourceName": "contracts/Topos/Factory/IRSFactory.sol",
  "abi": [
    {
      "inputs": [
        {
          "internalType": "address",
          "name": "_toposBankContract",
          "type": "address"
        }
      ],
      "stateMutability": "nonpayable",
      "type": "constructor"
    },
    {
      "inputs": [
        {
          "internalType": "address",
          "name": "_fixedPayerContract",
          "type": "address"
        },
        {
          "internalType": "address",
          "name": "_floatingPayerContract",
          "type": "address"
        },
        {
          "internalType": "uint8",
          "name": "_numberOfSwaps",
          "type": "uint8"
        },
        {
          "internalType": "string",
          "name": "_irsTokenName",
          "type": "string"
        },
        {
          "internalType": "string",
          "name": "_irsTokenSymbol",
          "type": "string"
        },
        {
          "components": [
            {
              "internalType": "address",
              "name": "fixedInterestPayer",
              "type": "address"
            },
            {
              "internalType": "address",
              "name": "floatingInterestPayer",
              "type": "address"
            },
            {
              "internalType": "uint8",
              "name": "ratesDecimals",
              "type": "uint8"
            },
            {
              "internalType": "uint256",
              "name": "swapRate",
              "type": "uint256"
            },
            {
              "internalType": "uint256",
              "name": "spread",
              "type": "uint256"
            },
            {
              "internalType": "address",
              "name": "assetContract",
              "type": "address"
            },
            {
              "internalType": "uint256",
              "name": "notionalAmount",
              "type": "uint256"
            },
            {
              "internalType": "uint256",
              "name": "paymentFrequency",
              "type": "uint256"
            },
            {
              "internalType": "uint256",
              "name": "startingDate",
              "type": "uint256"
            },
            {
              "internalType": "uint256",
              "name": "maturityDate",
              "type": "uint256"
            },
            {
              "internalType": "uint256",
              "name": "benchmark",
              "type": "uint256"
            }
          ],
          "internalType": "struct IRSTypes.IRS",
          "name": "_irs",
          "type": "tuple"
        },
        {
          "internalType": "address",
          "name": "_toposBankContract",
          "type": "address"
        }
      ],
      "name": "deployIRSContract",
      "outputs": [],
      "stateMutability": "nonpayable",
      "type": "function"
    },
    {
      "inputs": [
        {
          "internalType": "address",
          "name": "",
          "type": "address"
        },
        {
          "internalType": "address",
          "name": "",
          "type": "address"
        }
      ],
      "name": "isIRSContract",
      "outputs": [
        {
          "internalType": "bool",
          "name": "",
          "type": "bool"
        }
      ],
      "stateMutability": "view",
      "type": "function"
    },
    {
      "inputs": [],
      "name": "toposBankContract",
      "outputs": [
        {
          "internalType": "address",
          "name": "",
          "type": "address"
        }
      ],
      "stateMutability": "view",
      "type": "function"
    },
    {
      "inputs": [],
      "name": "toposManager",
      "outputs": [
        {
          "internalType": "address",
          "name": "",
          "type": "address"
        }
      ],
      "stateMutability": "view",
      "type": "function"
    }
  ],
  "bytecode": "0x608060405234801561001057600080fd5b506040516126f33803806126f383398101604081905261002f91610062565b60018054336001600160a01b031991821617909155600280549091166001600160a01b0392909216919091179055610092565b60006020828403121561007457600080fd5b81516001600160a01b038116811461008b57600080fd5b9392505050565b612652806100a16000396000f3fe60806040523480156200001157600080fd5b5060043610620000525760003560e01c80631e0e928f146200005757806359b6ee2f146200009a5780637f31ed7314620000b35780639c34712a14620000e0575b600080fd5b62000085620000683660046200034b565b600060208181529281526040808220909352908152205460ff1681565b60405190151581526020015b60405180910390f35b620000b1620000ab36600462000486565b620000f4565b005b600154620000c7906001600160a01b031681565b6040516001600160a01b03909116815260200162000091565b600254620000c7906001600160a01b031681565b6001546001600160a01b03163314620001545760405162461bcd60e51b815260206004820152600b60248201527f6e6f7420616c6c6f77656400000000000000000000000000000000000000000060448201526064015b60405180910390fd5b6001600160a01b03808816600090815260208181526040808320938a168352929052205460ff1615620001ca5760405162461bcd60e51b815260206004820152600860248201527f4465706c6f79656400000000000000000000000000000000000000000000000060448201526064016200014b565b6040516bffffffffffffffffffffffff19606089811b8216602084015288901b1660348201526000906048016040516020818303038152906040526200021090620005fc565b88888888888888604051620002259062000320565b6200023797969594939291906200066c565b8190604051809103906000f590508015801562000258573d6000803e3d6000fd5b506002546040517ffeb45fa60000000000000000000000000000000000000000000000000000000081526001600160a01b038b811660048301528a81166024830152808416604483015292935091169063feb45fa690606401600060405180830381600087803b158015620002cc57600080fd5b505af1158015620002e1573d6000803e3d6000fd5b5050506001600160a01b039889166000908152602081815260408083209a909b1682529890985250505094909320805460ff1916600117905550505050565b611e9a806200078383390190565b80356001600160a01b03811681146200034657600080fd5b919050565b600080604083850312156200035f57600080fd5b6200036a836200032e565b91506200037a602084016200032e565b90509250929050565b803560ff811681146200034657600080fd5b7f4e487b7100000000000000000000000000000000000000000000000000000000600052604160045260246000fd5b604051610160810167ffffffffffffffff81118282101715620003eb57620003eb62000395565b60405290565b600082601f8301126200040357600080fd5b813567ffffffffffffffff8082111562000421576200042162000395565b604051601f8301601f19908116603f011681019082821181831017156200044c576200044c62000395565b816040528381528660208588010111156200046657600080fd5b836020870160208301376000602085830101528094505050505092915050565b6000806000806000806000878903610220811215620004a457600080fd5b620004af896200032e565b9750620004bf60208a016200032e565b9650620004cf60408a0162000383565b9550606089013567ffffffffffffffff80821115620004ed57600080fd5b620004fb8c838d01620003f1565b965060808b01359150808211156200051257600080fd5b50620005218b828c01620003f1565b94505061016080609f19830112156200053957600080fd5b62000543620003c4565b91506200055360a08b016200032e565b82526200056360c08b016200032e565b60208301526200057660e08b0162000383565b6040830152610100808b01356060840152610120808c01356080850152610140620005a3818e016200032e565b60a0860152928c013560c08501526101808c013560e08501526101a08c0135918401919091526101c08b0135908301526101e08a0135908201529150620005ee61020089016200032e565b905092959891949750929550565b805160208083015191908110156200061e576000198160200360031b1b821691505b50919050565b6000815180845260005b818110156200064c576020818501810151868301820152016200062e565b506000602082860101526020601f19601f83011685010191505092915050565b60006102206001600160a01b03808b168452808a1660208501525060ff88166040840152806060840152620006a48184018862000624565b90508281036080840152620006ba818762000624565b915050620006d460a0830185516001600160a01b03169052565b60208401516001600160a01b03811660c084015250604084015160ff811660e0840152506060840151610100818185015260808601519150610120828186015260a0870151925061014062000733818701856001600160a01b03169052565b60c088015161016087015260e0880151610180870152918701516101a08601528601516101c08501528501516101e0840152506001600160a01b0383166102008301529897505050505050505056fe60806040523480156200001157600080fd5b5060405162001e9a38038062001e9a8339810160408190526200003491620003d5565b83836011620000448382620005da565b506012620000538282620005da565b50505086600a60006101000a8154816001600160a01b0302191690836001600160a01b0316021790555085600b60006101000a8154816001600160a01b0302191690836001600160a01b0316021790555084600d60156101000a81548160ff021916908360ff160217905550816000808201518160000160006101000a8154816001600160a01b0302191690836001600160a01b0316021790555060208201518160010160006101000a8154816001600160a01b0302191690836001600160a01b0316021790555060408201518160010160146101000a81548160ff021916908360ff160217905550606082015181600201556080820151816003015560a08201518160040160006101000a8154816001600160a01b0302191690836001600160a01b0316021790555060c0820151816005015560e082015181600601556101008201518160070155610120820151816008015561014082015181600901559050506001600d60146101000a81548160ff021916908360ff16021790555033600c60006101000a8154816001600160a01b0302191690836001600160a01b0316021790555080600d60006101000a8154816001600160a01b0302191690836001600160a01b031602179055508460ff16600e600084600001516001600160a01b03166001600160a01b03168152602001908152602001600020819055508460ff16600e600084602001516001600160a01b03166001600160a01b03168152602001908152602001600020819055508460ff166002620002939190620006a6565b60105550620006d295505050505050565b80516001600160a01b0381168114620002bc57600080fd5b919050565b805160ff81168114620002bc57600080fd5b634e487b7160e01b600052604160045260246000fd5b60405161016081016001600160401b03811182821017156200030f576200030f620002d3565b60405290565b604051601f8201601f191681016001600160401b0381118282101715620003405762000340620002d3565b604052919050565b600082601f8301126200035a57600080fd5b81516001600160401b03811115620003765762000376620002d3565b60206200038c601f8301601f1916820162000315565b8281528582848701011115620003a157600080fd5b60005b83811015620003c1578581018301518282018401528201620003a4565b506000928101909101919091529392505050565b6000806000806000806000878903610220811215620003f357600080fd5b620003fe89620002a4565b97506200040e60208a01620002a4565b96506200041e60408a01620002c1565b60608a01519096506001600160401b03808211156200043c57600080fd5b6200044a8c838d0162000348565b965060808b01519150808211156200046157600080fd5b50620004708b828c0162000348565b94505061016080609f19830112156200048857600080fd5b62000492620002e9565b9150620004a260a08b01620002a4565b8252620004b260c08b01620002a4565b6020830152620004c560e08b01620002c1565b6040830152610100808b01516060840152610120808c01516080850152610140620004f2818e01620002a4565b60a0860152928c015160c08501526101808c015160e08501526101a08c0151918401919091526101c08b0151908301526101e08a01519082015291506200053d6102008901620002a4565b905092959891949750929550565b600181811c908216806200056057607f821691505b6020821081036200058157634e487b7160e01b600052602260045260246000fd5b50919050565b601f821115620005d557600081815260208120601f850160051c81016020861015620005b05750805b601f850160051c820191505b81811015620005d157828155600101620005bc565b5050505b505050565b81516001600160401b03811115620005f657620005f6620002d3565b6200060e816200060784546200054b565b8462000587565b602080601f8311600181146200064657600084156200062d5750858301515b600019600386901b1c1916600185901b178555620005d1565b600085815260208120601f198616915b82811015620006775788860151825594840194600190910190840162000656565b5085821015620006965787850151600019600388901b60f8161c191681555b5050505050600190811b01905550565b8082028115828204841417620006cc57634e487b7160e01b600052601160045260246000fd5b92915050565b6117b880620006e26000396000f3fe608060405234801561001057600080fd5b50600436106102c85760003560e01c80638119c0651161017b578063a9059cbb116100d8578063d81671bc1161008c578063e823b1da11610071578063e823b1da14610587578063e8f9d2f914610599578063ecba89c5146105ad57600080fd5b8063d81671bc1461053c578063dd62ed3e1461054e57600080fd5b8063beb9ad5f116100bd578063beb9ad5f14610512578063c4c22a8414610523578063d59624b41461053457600080fd5b8063a9059cbb146104ee578063be2da8731461050157600080fd5b806395d89b411161012f5780639dc29fac116101145780639dc29fac146104c0578063a26c1aa2146104d3578063a457c2d7146104db57600080fd5b806395d89b41146104a55780639c34712a146104ad57600080fd5b80638da5cb5b116101605780638da5cb5b146104785780638e5893151461048b5780638f5949f91461049357600080fd5b80638119c065146104685780638903c5a21461047057600080fd5b806340c10f1911610229578063530c61cf116101dd57806368a2da51116101c257806368a2da5114610424578063698518e51461043757806370a082311461043f57600080fd5b8063530c61cf146104095780635c25c76c1461041c57600080fd5b8063442447ca1161020e578063442447ca146103dc5780634d16304f146103e65780634d1d62fa146103f757600080fd5b806340c10f19146103b457806342abea79146103c757600080fd5b80632eff0d9e1161028057806338cb8a251161026557806338cb8a251461037457806339509351146103995780633e3ff7b6146103ac57600080fd5b80632eff0d9e14610359578063313ce5671461036d57600080fd5b806318160ddd116102b157806318160ddd1461030e57806322f3e2d41461032057806323b872dd1461034657600080fd5b806306fdde03146102cd578063095ea7b3146102eb575b600080fd5b6102d56105c0565b6040516102e291906114ab565b60405180910390f35b6102fe6102f9366004611515565b610652565b60405190151581526020016102e2565b6010545b6040519081526020016102e2565b600d5461033490600160a01b900460ff1681565b60405160ff90911681526020016102e2565b6102fe61035436600461153f565b61066c565b600d5461033490600160b01b900460ff1681565b6012610334565b600b546001600160a01b03165b6040516001600160a01b0390911681526020016102e2565b6102fe6103a7366004611515565b610690565b600754610312565b6102fe6103c2366004611515565b6106cf565b6103cf61079c565b6040516102e2919061157b565b6103e4610898565b005b6004546001600160a01b0316610381565b600d54600160a81b900460ff16610334565b600b54610381906001600160a01b031681565b600354610312565b6103e461043236600461162a565b61096f565b600254610312565b61031261044d366004611643565b6001600160a01b03166000908152600e602052604090205490565b6102fe610a4c565b600954610312565b600c54610381906001600160a01b031681565b600654610312565b600d54600160a01b900460ff16610334565b6102d5610dc6565b600d54610381906001600160a01b031681565b6102fe6104ce366004611515565b610dd5565b600554610312565b6102fe6104e9366004611515565b610f42565b6102fe6104fc366004611515565b610fec565b6001546001600160a01b0316610381565b600a546001600160a01b0316610381565b6000546001600160a01b0316610381565b600854610312565b600d54600160b01b900460ff16610334565b61031261055c366004611665565b6001600160a01b039182166000908152600f6020908152604080832093909416825291909152205490565b600154600160a01b900460ff16610334565b600d5461033490600160a81b900460ff1681565b600a54610381906001600160a01b031681565b6060601180546105cf90611698565b80601f01602080910402602001604051908101604052809291908181526020018280546105fb90611698565b80156106485780601f1061061d57610100808354040283529160200191610648565b820191906000526020600020905b81548152906001019060200180831161062b57829003601f168201915b5050505050905090565b600033610660818585610ffa565b60019150505b92915050565b60003361067a858285611152565b6106858585856111e4565b506001949350505050565b336000818152600f602090815260408083206001600160a01b038716845290915281205490919061066090829086906106ca9087906116e8565b610ffa565b60006001600160a01b03831661072c5760405162461bcd60e51b815260206004820152601f60248201527f45524332303a206d696e7420746f20746865207a65726f20616464726573730060448201526064015b60405180910390fd5b816010600082825461073e91906116e8565b90915550506001600160a01b0383166000818152600e60209081526040808320805487019055518581527fddf252ad1be2c89b69c2b068fc378daa952ba7f163c4a11628f55a4df523b3ef910160405180910390a350600192915050565b61081760405180610160016040528060006001600160a01b0316815260200160006001600160a01b03168152602001600060ff168152602001600081526020016000815260200160006001600160a01b0316815260200160008152602001600081526020016000815260200160008152602001600081525090565b5060408051610160810182526000546001600160a01b0390811682526001548082166020840152600160a01b900460ff16928201929092526002546060820152600354608082015260045490911660a082015260055460c082015260065460e082015260075461010082015260085461012082015260095461014082015290565b600d546001600160a01b031633146108e75760405162461bcd60e51b815260206004820152601260248201527113db9b1e4810985b9ac810dbdb9d1c9858dd60721b6044820152606401610723565b600d54600160a01b900460ff166001146109305760405162461bcd60e51b815260206004820152600a6024820152694e6f742041637469766560b01b6044820152606401610723565b600154600080546040516001600160a01b0393841693909116917f1aa6c8c6f9b0ff26b8661bdc3ce83e7caf565c568af549f21922fa9561363cc291a3565b600d546001600160a01b031633146109be5760405162461bcd60e51b815260206004820152601260248201527113db9b1e4810985b9ac810dbdb9d1c9858dd60721b6044820152606401610723565b600d54600160a01b900460ff16600114610a075760405162461bcd60e51b815260206004820152600a6024820152694e6f742041637469766560b01b6044820152606401610723565b600980549082905560408051828152602081018490527f743e05f5a593a6524d8aa1166b2a7d2a2b0f422b1a979f1d925c7d9a1798697b910160405180910390a15050565b600d546000906001600160a01b03163314610a9e5760405162461bcd60e51b815260206004820152601260248201527113db9b1e4810985b9ac810dbdb9d1c9858dd60721b6044820152606401610723565b600d54600160a01b900460ff16600114610ae75760405162461bcd60e51b815260206004820152600a6024820152694e6f742041637469766560b01b6044820152606401610723565b600254600354600954600091610afc916116e8565b6005549091506000610b0e84836116fb565b90506000610b1c84846116fb565b90506000806000838503610b725760405162461bcd60e51b815260206004820152600e60248201527f4e6f74696e6720746f20737761700000000000000000000000000000000000006044820152606401610723565b83851115610ba257610b848486611712565b6001546000549194506001600160a01b039081169350169050610bc6565b610bac8585611712565b6000546001549194506001600160a01b0390811693501690505b600d54600160b01b900460ff16610bde816001611725565b600d80547fffffffffffffffffff00ffffffffffffffffffffffffffffffffffffffffffff16600160b01b60ff93841681029190911791829055600160a81b8204831691049091161115610c745760405162461bcd60e51b815260206004820152600f60248201527f416c6c20737761707320646f6e652100000000000000000000000000000000006044820152606401610723565b600054610c92906001600160a01b0316670de0b6b3a7640000610dd5565b50600154610cb1906001600160a01b0316670de0b6b3a7640000610dd5565b506004546001600160a01b03166323b872dd8385612710610cda89670de0b6b3a76400006116fb565b610ce4919061173e565b6040517fffffffff0000000000000000000000000000000000000000000000000000000060e086901b1681526001600160a01b03938416600482015292909116602483015260448201526064016020604051808303816000875af1158015610d50573d6000803e3d6000fd5b505050506040513d601f19601f82011682018060405250810190610d749190611760565b50604080518581526001600160a01b03851660208201527f757e61e0d078d58246a59b2ffe29975dc7053b43aa3a163b3b5b43fc1fb0c147910160405180910390a16001995050505050505050505090565b6060601280546105cf90611698565b60006001600160a01b038316610e535760405162461bcd60e51b815260206004820152602160248201527f45524332303a206275726e2066726f6d20746865207a65726f2061646472657360448201527f73000000000000000000000000000000000000000000000000000000000000006064820152608401610723565b6001600160a01b0383166000908152600e602052604090205482811015610ee25760405162461bcd60e51b815260206004820152602260248201527f45524332303a206275726e20616d6f756e7420657863656564732062616c616e60448201527f63650000000000000000000000000000000000000000000000000000000000006064820152608401610723565b6001600160a01b0384166000818152600e602090815260408083208786039055601080548890039055518681529192917fddf252ad1be2c89b69c2b068fc378daa952ba7f163c4a11628f55a4df523b3ef910160405180910390a3610660565b336000818152600f602090815260408083206001600160a01b038716845290915281205490919083811015610fdf5760405162461bcd60e51b815260206004820152602560248201527f45524332303a2064656372656173656420616c6c6f77616e63652062656c6f7760448201527f207a65726f0000000000000000000000000000000000000000000000000000006064820152608401610723565b6106858286868403610ffa565b6000336106608185856111e4565b6001600160a01b0383166110755760405162461bcd60e51b8152602060048201526024808201527f45524332303a20617070726f76652066726f6d20746865207a65726f2061646460448201527f72657373000000000000000000000000000000000000000000000000000000006064820152608401610723565b6001600160a01b0382166110f15760405162461bcd60e51b815260206004820152602260248201527f45524332303a20617070726f766520746f20746865207a65726f20616464726560448201527f73730000000000000000000000000000000000000000000000000000000000006064820152608401610723565b6001600160a01b038381166000818152600f602090815260408083209487168084529482529182902085905590518481527f8c5be1e5ebec7d5bd14f71427d1e84f3dd0314c0f7b2291e5b200ac8c7c3b925910160405180910390a3505050565b6001600160a01b038381166000908152600f602090815260408083209386168352929052205460001981146111de57818110156111d15760405162461bcd60e51b815260206004820152601d60248201527f45524332303a20696e73756666696369656e7420616c6c6f77616e63650000006044820152606401610723565b6111de8484848403610ffa565b50505050565b6001600160a01b0383166112605760405162461bcd60e51b815260206004820152602560248201527f45524332303a207472616e736665722066726f6d20746865207a65726f20616460448201527f64726573730000000000000000000000000000000000000000000000000000006064820152608401610723565b6001600160a01b0382166112dc5760405162461bcd60e51b815260206004820152602360248201527f45524332303a207472616e7366657220746f20746865207a65726f206164647260448201527f65737300000000000000000000000000000000000000000000000000000000006064820152608401610723565b6001600160a01b0383166000908152600e60205260409020548181101561136b5760405162461bcd60e51b815260206004820152602660248201527f45524332303a207472616e7366657220616d6f756e742065786365656473206260448201527f616c616e636500000000000000000000000000000000000000000000000000006064820152608401610723565b6001600160a01b038085166000818152600e60205260408082208686039055868416825281208054860190555490911690036113ce576000805473ffffffffffffffffffffffffffffffffffffffff19166001600160a01b038516179055611459565b6001546001600160a01b0390811690851603611411576001805473ffffffffffffffffffffffffffffffffffffffff19166001600160a01b038516179055611459565b60405162461bcd60e51b815260206004820152601460248201527f696e76616c69642066726f6d20616464726573730000000000000000000000006044820152606401610723565b826001600160a01b0316846001600160a01b03167fddf252ad1be2c89b69c2b068fc378daa952ba7f163c4a11628f55a4df523b3ef8460405161149e91815260200190565b60405180910390a36111de565b600060208083528351808285015260005b818110156114d8578581018301518582016040015282016114bc565b506000604082860101526040601f19601f8301168501019250505092915050565b80356001600160a01b038116811461151057600080fd5b919050565b6000806040838503121561152857600080fd5b611531836114f9565b946020939093013593505050565b60008060006060848603121561155457600080fd5b61155d846114f9565b925061156b602085016114f9565b9150604084013590509250925092565b81516001600160a01b03168152610160810160208301516115a760208401826001600160a01b03169052565b5060408301516115bc604084018260ff169052565b50606083015160608301526080830151608083015260a08301516115eb60a08401826001600160a01b03169052565b5060c083015160c083015260e083015160e083015261010080840151818401525061012080840151818401525061014080840151818401525092915050565b60006020828403121561163c57600080fd5b5035919050565b60006020828403121561165557600080fd5b61165e826114f9565b9392505050565b6000806040838503121561167857600080fd5b611681836114f9565b915061168f602084016114f9565b90509250929050565b600181811c908216806116ac57607f821691505b6020821081036116cc57634e487b7160e01b600052602260045260246000fd5b50919050565b634e487b7160e01b600052601160045260246000fd5b80820180821115610666576106666116d2565b8082028115828204841417610666576106666116d2565b81810381811115610666576106666116d2565b60ff8181168382160190811115610666576106666116d2565b60008261175b57634e487b7160e01b600052601260045260246000fd5b500490565b60006020828403121561177257600080fd5b8151801515811461165e57600080fdfea2646970667358221220ad973885dad3c861737a4f2ca93b3c22b742a08c3496ff4304d969f8e863149264736f6c63430008130033a264697066735822122076a1d78efe3a7710355846ad2a8923256cca6ca669075fc5186129d501e800de64736f6c63430008130033",
  "linkReferences": {},
  "deployedLinkReferences": {}
}