{
  "_format": "hh-sol-artifact-1",
  "contractName": "Issuer",
  "sourceName": "contracts/Topos/Bank/Issuer.sol",
  "abi": [
    {
      "inputs": [
        {
          "internalType": "address",
          "name": "_toposBankContract",
          "type": "address"
        }
      ],
      "stateMutability": "nonpayable",
      "type": "constructor"
    },
    {
      "anonymous": false,
      "inputs": [
        {
          "indexed": false,
          "internalType": "address",
          "name": "issuer",
          "type": "address"
        }
      ],
      "name": "ApproveIssuer",
      "type": "event"
    },
    {
      "anonymous": false,
      "inputs": [
        {
          "indexed": false,
          "internalType": "address",
          "name": "issuer",
          "type": "address"
        }
      ],
      "name": "RejectIssuer",
      "type": "event"
    },
    {
      "anonymous": false,
      "inputs": [
        {
          "indexed": false,
          "internalType": "address",
          "name": "issuer",
          "type": "address"
        }
      ],
      "name": "RequestIssuerRegistration",
      "type": "event"
    },
    {
      "inputs": [
        {
          "internalType": "address",
          "name": "_issuerAddress",
          "type": "address"
        }
      ],
      "name": "approveIssuer",
      "outputs": [],
      "stateMutability": "nonpayable",
      "type": "function"
    },
    {
      "inputs": [],
      "name": "getIssuers",
      "outputs": [
        {
          "components": [
            {
              "internalType": "string",
              "name": "documentURI",
              "type": "string"
            },
            {
              "internalType": "string",
              "name": "name",
              "type": "string"
            },
            {
              "internalType": "string",
              "name": "country",
              "type": "string"
            },
            {
              "internalType": "string",
              "name": "issuerType",
              "type": "string"
            },
            {
              "internalType": "string",
              "name": "creditRating",
              "type": "string"
            },
            {
              "internalType": "uint256",
              "name": "carbonCredit",
              "type": "uint256"
            },
            {
              "internalType": "address",
              "name": "walletAddress",
              "type": "address"
            },
            {
              "internalType": "enum BondData.StakeHolderStatus",
              "name": "status",
              "type": "uint8"
            },
            {
              "internalType": "uint256",
              "name": "index",
              "type": "uint256"
            },
            {
              "internalType": "string",
              "name": "logoURI",
              "type": "string"
            }
          ],
          "internalType": "struct BondData.Issuer[]",
          "name": "",
          "type": "tuple[]"
        }
      ],
      "stateMutability": "view",
      "type": "function"
    },
    {
      "inputs": [
        {
          "internalType": "address",
          "name": "",
          "type": "address"
        }
      ],
      "name": "issuers",
      "outputs": [
        {
          "internalType": "string",
          "name": "documentURI",
          "type": "string"
        },
        {
          "internalType": "string",
          "name": "name",
          "type": "string"
        },
        {
          "internalType": "string",
          "name": "country",
          "type": "string"
        },
        {
          "internalType": "string",
          "name": "issuerType",
          "type": "string"
        },
        {
          "internalType": "string",
          "name": "creditRating",
          "type": "string"
        },
        {
          "internalType": "uint256",
          "name": "carbonCredit",
          "type": "uint256"
        },
        {
          "internalType": "address",
          "name": "walletAddress",
          "type": "address"
        },
        {
          "internalType": "enum BondData.StakeHolderStatus",
          "name": "status",
          "type": "uint8"
        },
        {
          "internalType": "uint256",
          "name": "index",
          "type": "uint256"
        },
        {
          "internalType": "string",
          "name": "logoURI",
          "type": "string"
        }
      ],
      "stateMutability": "view",
      "type": "function"
    },
    {
      "inputs": [
        {
          "internalType": "address",
          "name": "_issuerAddress",
          "type": "address"
        }
      ],
      "name": "rejectIssuer",
      "outputs": [],
      "stateMutability": "nonpayable",
      "type": "function"
    },
    {
      "inputs": [
        {
          "components": [
            {
              "internalType": "string",
              "name": "documentURI",
              "type": "string"
            },
            {
              "internalType": "string",
              "name": "name",
              "type": "string"
            },
            {
              "internalType": "string",
              "name": "country",
              "type": "string"
            },
            {
              "internalType": "string",
              "name": "issuerType",
              "type": "string"
            },
            {
              "internalType": "string",
              "name": "creditRating",
              "type": "string"
            },
            {
              "internalType": "uint256",
              "name": "carbonCredit",
              "type": "uint256"
            },
            {
              "internalType": "address",
              "name": "walletAddress",
              "type": "address"
            },
            {
              "internalType": "enum BondData.StakeHolderStatus",
              "name": "status",
              "type": "uint8"
            },
            {
              "internalType": "uint256",
              "name": "index",
              "type": "uint256"
            },
            {
              "internalType": "string",
              "name": "logoURI",
              "type": "string"
            }
          ],
          "internalType": "struct BondData.Issuer",
          "name": "_issuer",
          "type": "tuple"
        }
      ],
      "name": "requestRegistrationIssuer",
      "outputs": [],
      "stateMutability": "nonpayable",
      "type": "function"
    },
    {
      "inputs": [],
      "name": "toposBankContract",
      "outputs": [
        {
          "internalType": "address",
          "name": "",
          "type": "address"
        }
      ],
      "stateMutability": "view",
      "type": "function"
    }
  ],
  "bytecode": "0x608060405234801561001057600080fd5b50604051620022093803806200220983398101604081905261003191610056565b600180546001600160a01b0319166001600160a01b0392909216919091179055610086565b60006020828403121561006857600080fd5b81516001600160a01b038116811461007f57600080fd5b9392505050565b61217380620000966000396000f3fe608060405234801561001057600080fd5b50600436106100725760003560e01c8063a594da9511610050578063a594da95146100e9578063c88efe65146100fe578063d64492031461011157600080fd5b806338a7543e1461007757806382deb86e146100a95780639c34712a146100be575b600080fd5b61008a6100853660046119b6565b610124565b6040516100a09a99989796959493929190611a58565b60405180910390f35b6100bc6100b73660046119b6565b6104b3565b005b6001546100d1906001600160a01b031681565b6040516001600160a01b0390911681526020016100a0565b6100f1610b5f565b6040516100a09190611b0b565b6100bc61010c3660046119b6565b610f88565b6100bc61011f366004611c45565b611580565b60006020819052908152604090208054819061013f90611c81565b80601f016020809104026020016040519081016040528092919081815260200182805461016b90611c81565b80156101b85780601f1061018d576101008083540402835291602001916101b8565b820191906000526020600020905b81548152906001019060200180831161019b57829003601f168201915b5050505050908060010180546101cd90611c81565b80601f01602080910402602001604051908101604052809291908181526020018280546101f990611c81565b80156102465780601f1061021b57610100808354040283529160200191610246565b820191906000526020600020905b81548152906001019060200180831161022957829003601f168201915b50505050509080600201805461025b90611c81565b80601f016020809104026020016040519081016040528092919081815260200182805461028790611c81565b80156102d45780601f106102a9576101008083540402835291602001916102d4565b820191906000526020600020905b8154815290600101906020018083116102b757829003601f168201915b5050505050908060030180546102e990611c81565b80601f016020809104026020016040519081016040528092919081815260200182805461031590611c81565b80156103625780601f1061033757610100808354040283529160200191610362565b820191906000526020600020905b81548152906001019060200180831161034557829003601f168201915b50505050509080600401805461037790611c81565b80601f01602080910402602001604051908101604052809291908181526020018280546103a390611c81565b80156103f05780601f106103c5576101008083540402835291602001916103f0565b820191906000526020600020905b8154815290600101906020018083116103d357829003601f168201915b50505050600583015460068401546007850154600886018054959693956001600160a01b0384169550600160a01b90930460ff1693919261043090611c81565b80601f016020809104026020016040519081016040528092919081815260200182805461045c90611c81565b80156104a95780601f1061047e576101008083540402835291602001916104a9565b820191906000526020600020905b81548152906001019060200180831161048c57829003601f168201915b505050505090508a565b6001600160a01b038116600090815260208190526040808220815161014081019092528054829082906104e590611c81565b80601f016020809104026020016040519081016040528092919081815260200182805461051190611c81565b801561055e5780601f106105335761010080835404028352916020019161055e565b820191906000526020600020905b81548152906001019060200180831161054157829003601f168201915b5050505050815260200160018201805461057790611c81565b80601f01602080910402602001604051908101604052809291908181526020018280546105a390611c81565b80156105f05780601f106105c5576101008083540402835291602001916105f0565b820191906000526020600020905b8154815290600101906020018083116105d357829003601f168201915b5050505050815260200160028201805461060990611c81565b80601f016020809104026020016040519081016040528092919081815260200182805461063590611c81565b80156106825780601f1061065757610100808354040283529160200191610682565b820191906000526020600020905b81548152906001019060200180831161066557829003601f168201915b5050505050815260200160038201805461069b90611c81565b80601f01602080910402602001604051908101604052809291908181526020018280546106c790611c81565b80156107145780601f106106e957610100808354040283529160200191610714565b820191906000526020600020905b8154815290600101906020018083116106f757829003601f168201915b5050505050815260200160048201805461072d90611c81565b80601f016020809104026020016040519081016040528092919081815260200182805461075990611c81565b80156107a65780601f1061077b576101008083540402835291602001916107a6565b820191906000526020600020905b81548152906001019060200180831161078957829003601f168201915b50505091835250506005820154602082015260068201546001600160a01b0381166040830152606090910190600160a01b900460ff1660038111156107ed576107ed611a20565b60038111156107fe576107fe611a20565b81526020016007820154815260200160088201805461081c90611c81565b80601f016020809104026020016040519081016040528092919081815260200182805461084890611c81565b80156108955780601f1061086a57610100808354040283529160200191610895565b820191906000526020600020905b81548152906001019060200180831161087857829003601f168201915b5050505050815250509050600080600160009054906101000a90046001600160a01b03166001600160a01b031663c3a2a93a6040518163ffffffff1660e01b815260040160a060405180830381865afa1580156108f6573d6000803e3d6000fd5b505050506040513d601f19601f8201168201806040525081019061091a9190611cbb565b50505091509150816001600160a01b0316336001600160a01b0316146109875760405162461bcd60e51b815260206004820152601260248201527f4f4e4c595f544f504f535f4d414e41474552000000000000000000000000000060448201526064015b60405180910390fd5b60018360e00151600381111561099f5761099f611a20565b146109e05760405162461bcd60e51b8152602060048201526011602482015270434845434b5f594f55525f53544154555360781b604482015260640161097e565b6001600160a01b0384166000908152602081905260409020600601805460ff60a01b19167402000000000000000000000000000000000000000017905561010083015160028054909182918110610a3957610a39611d30565b60009182526020909120600660099092020101805460ff60a01b1916600160a01b836003811115610a6c57610a6c611a20565b0217905550604080517fcfde18900000000000000000000000000000000000000000000000000000000081526004810191909152600660448201527f495353554552000000000000000000000000000000000000000000000000000060648201526001600160a01b03858116602483015282169063cfde189090608401600060405180830381600087803b158015610b0357600080fd5b505af1158015610b17573d6000803e3d6000fd5b50506040516001600160a01b03871681527f0e387c88130575bf91cadf15934854a1ed11d5c16d63f1106b6fd6e139d1202e925060200190505b60405180910390a150505050565b60606002805480602002602001604051908101604052809291908181526020016000905b82821015610f7f578382906000526020600020906009020160405180610140016040529081600082018054610bb790611c81565b80601f0160208091040260200160405190810160405280929190818152602001828054610be390611c81565b8015610c305780601f10610c0557610100808354040283529160200191610c30565b820191906000526020600020905b815481529060010190602001808311610c1357829003601f168201915b50505050508152602001600182018054610c4990611c81565b80601f0160208091040260200160405190810160405280929190818152602001828054610c7590611c81565b8015610cc25780601f10610c9757610100808354040283529160200191610cc2565b820191906000526020600020905b815481529060010190602001808311610ca557829003601f168201915b50505050508152602001600282018054610cdb90611c81565b80601f0160208091040260200160405190810160405280929190818152602001828054610d0790611c81565b8015610d545780601f10610d2957610100808354040283529160200191610d54565b820191906000526020600020905b815481529060010190602001808311610d3757829003601f168201915b50505050508152602001600382018054610d6d90611c81565b80601f0160208091040260200160405190810160405280929190818152602001828054610d9990611c81565b8015610de65780601f10610dbb57610100808354040283529160200191610de6565b820191906000526020600020905b815481529060010190602001808311610dc957829003601f168201915b50505050508152602001600482018054610dff90611c81565b80601f0160208091040260200160405190810160405280929190818152602001828054610e2b90611c81565b8015610e785780601f10610e4d57610100808354040283529160200191610e78565b820191906000526020600020905b815481529060010190602001808311610e5b57829003601f168201915b50505091835250506005820154602082015260068201546001600160a01b0381166040830152606090910190600160a01b900460ff166003811115610ebf57610ebf611a20565b6003811115610ed057610ed0611a20565b815260200160078201548152602001600882018054610eee90611c81565b80601f0160208091040260200160405190810160405280929190818152602001828054610f1a90611c81565b8015610f675780601f10610f3c57610100808354040283529160200191610f67565b820191906000526020600020905b815481529060010190602001808311610f4a57829003601f168201915b50505050508152505081526020019060010190610b83565b50505050905090565b6001600160a01b03811660009081526020819052604080822081516101408101909252805482908290610fba90611c81565b80601f0160208091040260200160405190810160405280929190818152602001828054610fe690611c81565b80156110335780601f1061100857610100808354040283529160200191611033565b820191906000526020600020905b81548152906001019060200180831161101657829003601f168201915b5050505050815260200160018201805461104c90611c81565b80601f016020809104026020016040519081016040528092919081815260200182805461107890611c81565b80156110c55780601f1061109a576101008083540402835291602001916110c5565b820191906000526020600020905b8154815290600101906020018083116110a857829003601f168201915b505050505081526020016002820180546110de90611c81565b80601f016020809104026020016040519081016040528092919081815260200182805461110a90611c81565b80156111575780601f1061112c57610100808354040283529160200191611157565b820191906000526020600020905b81548152906001019060200180831161113a57829003601f168201915b5050505050815260200160038201805461117090611c81565b80601f016020809104026020016040519081016040528092919081815260200182805461119c90611c81565b80156111e95780601f106111be576101008083540402835291602001916111e9565b820191906000526020600020905b8154815290600101906020018083116111cc57829003601f168201915b5050505050815260200160048201805461120290611c81565b80601f016020809104026020016040519081016040528092919081815260200182805461122e90611c81565b801561127b5780601f106112505761010080835404028352916020019161127b565b820191906000526020600020905b81548152906001019060200180831161125e57829003601f168201915b50505091835250506005820154602082015260068201546001600160a01b0381166040830152606090910190600160a01b900460ff1660038111156112c2576112c2611a20565b60038111156112d3576112d3611a20565b8152602001600782015481526020016008820180546112f190611c81565b80601f016020809104026020016040519081016040528092919081815260200182805461131d90611c81565b801561136a5780601f1061133f5761010080835404028352916020019161136a565b820191906000526020600020905b81548152906001019060200180831161134d57829003601f168201915b50505050508152505090506000600160009054906101000a90046001600160a01b03166001600160a01b031663c3a2a93a6040518163ffffffff1660e01b815260040160a060405180830381865afa1580156113ca573d6000803e3d6000fd5b505050506040513d601f19601f820116820180604052508101906113ee9190611cbb565b505050509050806001600160a01b0316336001600160a01b0316146114555760405162461bcd60e51b815260206004820152601260248201527f4f4e4c595f544f504f535f4d414e414745520000000000000000000000000000604482015260640161097e565b60018260e00151600381111561146d5761146d611a20565b146114ae5760405162461bcd60e51b8152602060048201526011602482015270434845434b5f594f55525f53544154555360781b604482015260640161097e565b6001600160a01b0383166000908152602081905260409020600601805460ff60a01b1916740300000000000000000000000000000000000000001790556101008201516002805460039290811061150757611507611d30565b60009182526020909120600660099092020101805460ff60a01b1916600160a01b83600381111561153a5761153a611a20565b02179055506040516001600160a01b03841681527fe341ab2ef130ae159f5f54c8be96a79ffe8f98948aa6d0e1bdeb60e6201ada2a9060200160405180910390a1505050565b61159060e0820160c083016119b6565b600154604080517fc3a2a93a00000000000000000000000000000000000000000000000000000000815290516000926001600160a01b03169163c3a2a93a9160048083019260a09291908290030181865afa1580156115f3573d6000803e3d6000fd5b505050506040513d601f19601f820116820180604052508101906116179190611cbb565b50506040517fb9209e330000000000000000000000000000000000000000000000000000000081526001600160a01b038681166004830152919450908416925063b9209e339150602401602060405180830381865afa15801561167e573d6000803e3d6000fd5b505050506040513d601f19601f820116820180604052508101906116a29190611d46565b6116ee5760405162461bcd60e51b815260206004820152601460248201527f4143434f554e545f4e4f545f414150524f564544000000000000000000000000604482015260640161097e565b600061170060e0850160c086016119b6565b9050336001600160a01b0382161461175a5760405162461bcd60e51b815260206004820152600f60248201527f494e56414c49445f414444524553530000000000000000000000000000000000604482015260640161097e565b60006001600160a01b038216600090815260208190526040902060060154600160a01b900460ff16600381111561179357611793611a20565b146117d45760405162461bcd60e51b8152602060048201526011602482015270434845434b5f594f55525f53544154555360781b604482015260640161097e565b6001600160a01b038116600090815260208190526040902084906117f88282611f4b565b50506001600160a01b038116600090815260208190526040812060068101805460ff60a01b1916600160a01b17905560028054600783018190556001810182559252906009027f405787fa12a823e0f2b7631cc41b3ba8828b3321ca811111fa75cd3aa3bb5ace018061186b8382612060565b5060018181019061187e90840182612060565b5060028181019061189190840182612060565b506003818101906118a490840182612060565b506004818101906118b790840182612060565b506005828101549082015560068083018054918301805473ffffffffffffffffffffffffffffffffffffffff1981166001600160a01b039094169384178255915460ff600160a01b91829004169391927fffffffffffffffffffffff000000000000000000000000000000000000000000169091179083600381111561193f5761193f611a20565b021790555060078201548160070155600882018160080190816119629190612060565b50506040516001600160a01b03831681527f0a0028275fa37d11ea8d5d29fd14fd8aa6c52af0e0cf819b89ca2cd9193f11859150602001610b51565b6001600160a01b03811681146119b357600080fd5b50565b6000602082840312156119c857600080fd5b81356119d38161199e565b9392505050565b6000815180845260005b81811015611a00576020818501810151868301820152016119e4565b506000602082860101526020601f19601f83011685010191505092915050565b634e487b7160e01b600052602160045260246000fd5b60048110611a5457634e487b7160e01b600052602160045260246000fd5b9052565b6000610140808352611a6c8184018e6119da565b90508281036020840152611a80818d6119da565b90508281036040840152611a94818c6119da565b90508281036060840152611aa8818b6119da565b90508281036080840152611abc818a6119da565b90508760a08401526001600160a01b03871660c0840152611ae060e0840187611a36565b84610100840152828103610120840152611afa81856119da565b9d9c50505050505050505050505050565b60006020808301818452808551808352604092508286019150828160051b87010184880160005b83811015611c3757603f1989840301855281516101408151818652611b59828701826119da565b915050888201518582038a870152611b7182826119da565b9150508782015185820389870152611b8982826119da565b91505060608083015186830382880152611ba383826119da565b9250505060808083015186830382880152611bbe83826119da565b9250505060a080830151818701525060c080830151611be7828801826001600160a01b03169052565b505060e080830151611bfb82880182611a36565b505061010082810151908601526101209182015185820392860192909252611c2381836119da565b968901969450505090860190600101611b32565b509098975050505050505050565b600060208284031215611c5757600080fd5b813567ffffffffffffffff811115611c6e57600080fd5b820161014081850312156119d357600080fd5b600181811c90821680611c9557607f821691505b602082108103611cb557634e487b7160e01b600052602260045260246000fd5b50919050565b600080600080600060a08688031215611cd357600080fd5b8551611cde8161199e565b6020870151909550611cef8161199e565b6040870151909450611d008161199e565b6060870151909350611d118161199e565b6080870151909250611d228161199e565b809150509295509295909350565b634e487b7160e01b600052603260045260246000fd5b600060208284031215611d5857600080fd5b815180151581146119d357600080fd5b6000808335601e19843603018112611d7f57600080fd5b83018035915067ffffffffffffffff821115611d9a57600080fd5b602001915036819003821315611daf57600080fd5b9250929050565b634e487b7160e01b600052604160045260246000fd5b601f821115611e1657600081815260208120601f850160051c81016020861015611df35750805b601f850160051c820191505b81811015611e1257828155600101611dff565b5050505b505050565b67ffffffffffffffff831115611e3357611e33611db6565b611e4783611e418354611c81565b83611dcc565b6000601f841160018114611e7b5760008515611e635750838201355b600019600387901b1c1916600186901b178355611ed5565b600083815260209020601f19861690835b82811015611eac5786850135825560209485019460019092019101611e8c565b5086821015611ec95760001960f88860031b161c19848701351681555b505060018560011b0183555b5050505050565b60008135611ee98161199e565b92915050565b6000813560048110611ee957600080fd5b60048210611f1e57634e487b7160e01b600052602160045260246000fd5b805474ff00000000000000000000000000000000000000008360a01b1660ff60a01b198216178255505050565b611f558283611d68565b611f60818385611e1b565b5050611f6f6020830183611d68565b611f7d818360018601611e1b565b5050611f8c6040830183611d68565b611f9a818360028601611e1b565b5050611fa96060830183611d68565b611fb7818360038601611e1b565b5050611fc66080830183611d68565b611fd4818360048601611e1b565b505060a082013560058201556006810161201d611ff360c08501611edc565b825473ffffffffffffffffffffffffffffffffffffffff19166001600160a01b0391909116178255565b61203261202c60e08501611eef565b82611f00565b50610100820135600782015561204c610120830183611d68565b61205a818360088601611e1b565b50505050565b81810361206b575050565b6120758254611c81565b67ffffffffffffffff81111561208d5761208d611db6565b6120a18161209b8454611c81565b84611dcc565b6000601f8211600181146120d557600083156120bd5750848201545b600019600385901b1c1916600184901b178455611ed5565b600085815260209020601f19841690600086815260209020845b8381101561210f57828601548255600195860195909101906020016120ef565b508583101561212d5781850154600019600388901b60f8161c191681555b5050505050600190811b0190555056fea264697066735822122095a70cbeca0d46d90357a7115209ad5d8331b56266f94523c95fb9c5274e82e064736f6c63430008130033",
  "linkReferences": {},
  "deployedLinkReferences": {}
}