{
  "_format": "hh-sol-artifact-1",
  "contractName": "IRSCall",
  "sourceName": "contracts/IRSCall.sol",
  "abi": [
    {
      "inputs": [
        {
          "internalType": "address",
          "name": "_owner",
          "type": "address"
        },
        {
          "internalType": "address",
          "name": "_spender",
          "type": "address"
        },
        {
          "internalType": "address",
          "name": "_irsContract",
          "type": "address"
        }
      ],
      "name": "allowance",
      "outputs": [
        {
          "internalType": "uint256",
          "name": "",
          "type": "uint256"
        }
      ],
      "stateMutability": "view",
      "type": "function"
    },
    {
      "inputs": [
        {
          "internalType": "address",
          "name": "_spender",
          "type": "address"
        },
        {
          "internalType": "uint256",
          "name": "_amount",
          "type": "uint256"
        },
        {
          "internalType": "address",
          "name": "_irsContract",
          "type": "address"
        }
      ],
      "name": "approve",
      "outputs": [],
      "stateMutability": "nonpayable",
      "type": "function"
    },
    {
      "inputs": [
        {
          "internalType": "address",
          "name": "_account",
          "type": "address"
        },
        {
          "internalType": "address",
          "name": "_irsContract",
          "type": "address"
        }
      ],
      "name": "balanceOf",
      "outputs": [
        {
          "internalType": "uint256",
          "name": "",
          "type": "uint256"
        }
      ],
      "stateMutability": "view",
      "type": "function"
    },
    {
      "inputs": [
        {
          "internalType": "address",
          "name": "_account",
          "type": "address"
        },
        {
          "internalType": "uint256",
          "name": "_amount",
          "type": "uint256"
        },
        {
          "internalType": "address",
          "name": "_irsContract",
          "type": "address"
        }
      ],
      "name": "burn",
      "outputs": [],
      "stateMutability": "nonpayable",
      "type": "function"
    },
    {
      "inputs": [
        {
          "internalType": "address",
          "name": "_irsContract",
          "type": "address"
        }
      ],
      "name": "decimals",
      "outputs": [
        {
          "internalType": "uint8",
          "name": "",
          "type": "uint8"
        }
      ],
      "stateMutability": "view",
      "type": "function"
    },
    {
      "inputs": [
        {
          "internalType": "address",
          "name": "_spender",
          "type": "address"
        },
        {
          "internalType": "uint256",
          "name": "_subtractedValue",
          "type": "uint256"
        },
        {
          "internalType": "address",
          "name": "_irsContract",
          "type": "address"
        }
      ],
      "name": "decreaseAllowance",
      "outputs": [],
      "stateMutability": "nonpayable",
      "type": "function"
    },
    {
      "inputs": [
        {
          "internalType": "address",
          "name": "_irsContract",
          "type": "address"
        }
      ],
      "name": "getFixedPayerContract",
      "outputs": [
        {
          "internalType": "address",
          "name": "",
          "type": "address"
        }
      ],
      "stateMutability": "view",
      "type": "function"
    },
    {
      "inputs": [
        {
          "internalType": "address",
          "name": "_irsContract",
          "type": "address"
        }
      ],
      "name": "getFloatingPayerContract",
      "outputs": [
        {
          "internalType": "address",
          "name": "",
          "type": "address"
        }
      ],
      "stateMutability": "view",
      "type": "function"
    },
    {
      "inputs": [
        {
          "internalType": "address",
          "name": "_irsContract",
          "type": "address"
        }
      ],
      "name": "getIRSInfo",
      "outputs": [
        {
          "components": [
            {
              "internalType": "address",
              "name": "irsContract",
              "type": "address"
            },
            {
              "internalType": "address",
              "name": "fixedInterestPayer",
              "type": "address"
            },
            {
              "internalType": "address",
              "name": "floatingInterestPayer",
              "type": "address"
            },
            {
              "internalType": "uint8",
              "name": "ratesDecimals",
              "type": "uint8"
            },
            {
              "internalType": "uint8",
              "name": "status",
              "type": "uint8"
            },
            {
              "internalType": "uint256",
              "name": "swapRate",
              "type": "uint256"
            },
            {
              "internalType": "uint256",
              "name": "spread",
              "type": "uint256"
            },
            {
              "internalType": "address",
              "name": "assetContract",
              "type": "address"
            },
            {
              "internalType": "uint256",
              "name": "notionalAmount",
              "type": "uint256"
            },
            {
              "internalType": "uint256",
              "name": "paymentFrequency",
              "type": "uint256"
            },
            {
              "internalType": "uint256",
              "name": "startingDate",
              "type": "uint256"
            },
            {
              "internalType": "uint256",
              "name": "maturityDate",
              "type": "uint256"
            },
            {
              "internalType": "uint256",
              "name": "benchmark",
              "type": "uint256"
            },
            {
              "internalType": "uint8",
              "name": "index",
              "type": "uint8"
            }
          ],
          "internalType": "struct IRSTypes.IRS",
          "name": "",
          "type": "tuple"
        }
      ],
      "stateMutability": "view",
      "type": "function"
    },
    {
      "inputs": [
        {
          "internalType": "address",
          "name": "_irsContract",
          "type": "address"
        }
      ],
      "name": "getNumberOfSwaps",
      "outputs": [
        {
          "internalType": "uint8",
          "name": "",
          "type": "uint8"
        }
      ],
      "stateMutability": "view",
      "type": "function"
    },
    {
      "inputs": [
        {
          "internalType": "address",
          "name": "_irsContract",
          "type": "address"
        }
      ],
      "name": "getSwapCount",
      "outputs": [
        {
          "internalType": "uint8",
          "name": "",
          "type": "uint8"
        }
      ],
      "stateMutability": "view",
      "type": "function"
    },
    {
      "inputs": [
        {
          "internalType": "address",
          "name": "_spender",
          "type": "address"
        },
        {
          "internalType": "uint256",
          "name": "_addedValue",
          "type": "uint256"
        },
        {
          "internalType": "address",
          "name": "_irsContract",
          "type": "address"
        }
      ],
      "name": "increaseAllowance",
      "outputs": [],
      "stateMutability": "nonpayable",
      "type": "function"
    },
    {
      "inputs": [
        {
          "internalType": "address",
          "name": "_irsContract",
          "type": "address"
        }
      ],
      "name": "isContractActive",
      "outputs": [
        {
          "internalType": "uint8",
          "name": "",
          "type": "uint8"
        }
      ],
      "stateMutability": "view",
      "type": "function"
    },
    {
      "inputs": [
        {
          "internalType": "address",
          "name": "_irsContract",
          "type": "address"
        }
      ],
      "name": "name",
      "outputs": [
        {
          "internalType": "string",
          "name": "",
          "type": "string"
        }
      ],
      "stateMutability": "view",
      "type": "function"
    },
    {
      "inputs": [
        {
          "internalType": "address",
          "name": "_irsContract",
          "type": "address"
        }
      ],
      "name": "symbol",
      "outputs": [
        {
          "internalType": "string",
          "name": "",
          "type": "string"
        }
      ],
      "stateMutability": "view",
      "type": "function"
    },
    {
      "inputs": [
        {
          "internalType": "address",
          "name": "_irsContract",
          "type": "address"
        }
      ],
      "name": "totalSupply",
      "outputs": [
        {
          "internalType": "uint256",
          "name": "",
          "type": "uint256"
        }
      ],
      "stateMutability": "view",
      "type": "function"
    },
    {
      "inputs": [
        {
          "internalType": "address",
          "name": "_to",
          "type": "address"
        },
        {
          "internalType": "uint256",
          "name": "_amount",
          "type": "uint256"
        },
        {
          "internalType": "address",
          "name": "_irsContract",
          "type": "address"
        }
      ],
      "name": "transfer",
      "outputs": [],
      "stateMutability": "nonpayable",
      "type": "function"
    },
    {
      "inputs": [
        {
          "internalType": "address",
          "name": "_from",
          "type": "address"
        },
        {
          "internalType": "address",
          "name": "_to",
          "type": "address"
        },
        {
          "internalType": "uint256",
          "name": "_amount",
          "type": "uint256"
        },
        {
          "internalType": "address",
          "name": "_irsContract",
          "type": "address"
        }
      ],
      "name": "transferFrom",
      "outputs": [],
      "stateMutability": "nonpayable",
      "type": "function"
    }
  ],
  "bytecode": "0x608060405234801561001057600080fd5b50610f90806100206000396000f3fe608060405234801561001057600080fd5b50600436106101365760003560e01c8063b8ce670d116100b2578063cdfdb7d611610081578063dbba0f0111610066578063dbba0f01146102b5578063e4dc2aa4146102c8578063f7888aec146102db57600080fd5b8063cdfdb7d61461028f578063d449a832146102a257600080fd5b8063b8ce670d14610236578063c774d0b414610249578063c84b0e501461025c578063caff59921461027c57600080fd5b80638fea1e4d11610109578063927da105116100ee578063927da105146101d757806394018c5b146101f8578063a86e35761461022357600080fd5b80638fea1e4d146101b157806391ca76f4146101c457600080fd5b8063019848921461013b5780631271f09a146101645780635fc9309c1461017957806364e9d7321461018c575b600080fd5b61014e610149366004610a72565b6102ee565b60405161015b9190610ab3565b60405180910390f35b610177610172366004610ae6565b61035c565b005b610177610187366004610b28565b6103ef565b61019f61019a366004610a72565b61048a565b60405160ff909116815260200161015b565b6101776101bf366004610ae6565b6104ee565b61019f6101d2366004610a72565b61056f565b6101ea6101e5366004610b7b565b6105af565b60405190815260200161015b565b61020b610206366004610a72565b610646565b6040516001600160a01b03909116815260200161015b565b61014e610231366004610a72565b6106aa565b610177610244366004610ae6565b6106ea565b61019f610257366004610a72565b610738565b61026f61026a366004610a72565b610778565b60405161015b9190610bbb565b61020b61028a366004610a72565b61084c565b61017761029d366004610ae6565b61088c565b61019f6102b0366004610a72565b6108da565b6101776102c3366004610ae6565b61091a565b6101ea6102d6366004610a72565b610968565b6101ea6102e9366004610ca8565b6109cc565b6060816001600160a01b03166306fdde036040518163ffffffff1660e01b8152600401600060405180830381865afa15801561032e573d6000803e3d6000fd5b505050506040513d6000823e601f3d908101601f191682016040526103569190810190610d3a565b92915050565b6040517f095ea7b30000000000000000000000000000000000000000000000000000000081526001600160a01b0384811660048301526024820184905282169063095ea7b3906044015b6020604051808303816000875af11580156103c5573d6000803e3d6000fd5b505050506040513d601f19601f820116820180604052508101906103e99190610de7565b50505050565b6040517f23b872dd0000000000000000000000000000000000000000000000000000000081526001600160a01b0385811660048301528481166024830152604482018490528216906323b872dd906064016020604051808303816000875af115801561045f573d6000803e3d6000fd5b505050506040513d601f19601f820116820180604052508101906104839190610de7565b5050505050565b6000816001600160a01b0316638f5949f96040518163ffffffff1660e01b8152600401602060405180830381865afa1580156104ca573d6000803e3d6000fd5b505050506040513d601f19601f820116820180604052508101906103569190610e1f565b6040517fa457c2d70000000000000000000000000000000000000000000000000000000081526001600160a01b0384811660048301526024820184905282169063a457c2d7906044015b600060405180830381600087803b15801561055257600080fd5b505af1158015610566573d6000803e3d6000fd5b50505050505050565b6000816001600160a01b031663d81671bc6040518163ffffffff1660e01b8152600401602060405180830381865afa1580156104ca573d6000803e3d6000fd5b6040517fdd62ed3e0000000000000000000000000000000000000000000000000000000081526001600160a01b03848116600483015283811660248301526000919083169063dd62ed3e90604401602060405180830381865afa15801561061a573d6000803e3d6000fd5b505050506040513d601f19601f8201168201806040525081019061063e9190610e3a565b949350505050565b6000816001600160a01b031663beb9ad5f6040518163ffffffff1660e01b8152600401602060405180830381865afa158015610686573d6000803e3d6000fd5b505050506040513d601f19601f820116820180604052508101906103569190610e5e565b6060816001600160a01b03166395d89b416040518163ffffffff1660e01b8152600401600060405180830381865afa15801561032e573d6000803e3d6000fd5b6040517f9dc29fac0000000000000000000000000000000000000000000000000000000081526001600160a01b03848116600483015260248201849052821690639dc29fac90604401610538565b6000816001600160a01b0316634d1d62fa6040518163ffffffff1660e01b8152600401602060405180830381865afa1580156104ca573d6000803e3d6000fd5b604080516101c081018252600080825260208201819052918101829052606081018290526080810182905260a0810182905260c0810182905260e08101829052610100810182905261012081018290526101408101829052610160810182905261018081018290526101a0810191909152816001600160a01b03166342abea796040518163ffffffff1660e01b81526004016101c060405180830381865afa158015610828573d6000803e3d6000fd5b505050506040513d601f19601f820116820180604052508101906103569190610e7b565b6000816001600160a01b03166338cb8a256040518163ffffffff1660e01b8152600401602060405180830381865afa158015610686573d6000803e3d6000fd5b6040517f395093510000000000000000000000000000000000000000000000000000000081526001600160a01b03848116600483015260248201849052821690633950935190604401610538565b6000816001600160a01b031663313ce5676040518163ffffffff1660e01b8152600401602060405180830381865afa1580156104ca573d6000803e3d6000fd5b6040517fa9059cbb0000000000000000000000000000000000000000000000000000000081526001600160a01b0384811660048301526024820184905282169063a9059cbb906044016103a6565b6000816001600160a01b03166318160ddd6040518163ffffffff1660e01b8152600401602060405180830381865afa1580156109a8573d6000803e3d6000fd5b505050506040513d601f19601f820116820180604052508101906103569190610e3a565b6040517f70a082310000000000000000000000000000000000000000000000000000000081526001600160a01b038381166004830152600091908316906370a0823190602401602060405180830381865afa158015610a2f573d6000803e3d6000fd5b505050506040513d601f19601f82011682018060405250810190610a539190610e3a565b9392505050565b6001600160a01b0381168114610a6f57600080fd5b50565b600060208284031215610a8457600080fd5b8135610a5381610a5a565b60005b83811015610aaa578181015183820152602001610a92565b50506000910152565b6020815260008251806020840152610ad2816040850160208701610a8f565b601f01601f19169190910160400192915050565b600080600060608486031215610afb57600080fd5b8335610b0681610a5a565b9250602084013591506040840135610b1d81610a5a565b809150509250925092565b60008060008060808587031215610b3e57600080fd5b8435610b4981610a5a565b93506020850135610b5981610a5a565b9250604085013591506060850135610b7081610a5a565b939692955090935050565b600080600060608486031215610b9057600080fd5b8335610b9b81610a5a565b92506020840135610bab81610a5a565b91506040840135610b1d81610a5a565b81516001600160a01b031681526101c081016020830151610be760208401826001600160a01b03169052565b506040830151610c0260408401826001600160a01b03169052565b506060830151610c17606084018260ff169052565b506080830151610c2c608084018260ff169052565b5060a083015160a083015260c083015160c083015260e0830151610c5b60e08401826001600160a01b03169052565b50610100838101519083015261012080840151908301526101408084015190830152610160808401519083015261018080840151908301526101a09283015160ff16929091019190915290565b60008060408385031215610cbb57600080fd5b8235610cc681610a5a565b91506020830135610cd681610a5a565b809150509250929050565b7f4e487b7100000000000000000000000000000000000000000000000000000000600052604160045260246000fd5b6040516101c0810167ffffffffffffffff81118282101715610d3457610d34610ce1565b60405290565b600060208284031215610d4c57600080fd5b815167ffffffffffffffff80821115610d6457600080fd5b818401915084601f830112610d7857600080fd5b815181811115610d8a57610d8a610ce1565b604051601f8201601f19908116603f01168101908382118183101715610db257610db2610ce1565b81604052828152876020848701011115610dcb57600080fd5b610ddc836020830160208801610a8f565b979650505050505050565b600060208284031215610df957600080fd5b81518015158114610a5357600080fd5b805160ff81168114610e1a57600080fd5b919050565b600060208284031215610e3157600080fd5b610a5382610e09565b600060208284031215610e4c57600080fd5b5051919050565b8051610e1a81610a5a565b600060208284031215610e7057600080fd5b8151610a5381610a5a565b60006101c08284031215610e8e57600080fd5b610e96610d10565b610e9f83610e53565b8152610ead60208401610e53565b6020820152610ebe60408401610e53565b6040820152610ecf60608401610e09565b6060820152610ee060808401610e09565b608082015260a083015160a082015260c083015160c0820152610f0560e08401610e53565b60e0820152610100838101519082015261012080840151908201526101408084015190820152610160808401519082015261018080840151908201526101a0610f4f818501610e09565b90820152939250505056fea2646970667358221220f7571f74f0bb5a8fd3a3b3cf9fc30f7671a53e132189ca52480e846b7cdfed6964736f6c63430008130033",
  "linkReferences": {},
  "deployedLinkReferences": {}
}