{
  "_format": "hh-sol-artifact-1",
  "contractName": "IRSCall",
  "sourceName": "contracts/IRSCall.sol",
  "abi": [
    {
      "inputs": [
        {
          "internalType": "address",
          "name": "_owner",
          "type": "address"
        },
        {
          "internalType": "address",
          "name": "_spender",
          "type": "address"
        },
        {
          "internalType": "address",
          "name": "_irsContract",
          "type": "address"
        }
      ],
      "name": "allowance",
      "outputs": [
        {
          "internalType": "uint256",
          "name": "",
          "type": "uint256"
        }
      ],
      "stateMutability": "view",
      "type": "function"
    },
    {
      "inputs": [
        {
          "internalType": "address",
          "name": "_spender",
          "type": "address"
        },
        {
          "internalType": "uint256",
          "name": "_amount",
          "type": "uint256"
        },
        {
          "internalType": "address",
          "name": "_irsContract",
          "type": "address"
        }
      ],
      "name": "approve",
      "outputs": [],
      "stateMutability": "nonpayable",
      "type": "function"
    },
    {
      "inputs": [
        {
          "internalType": "address",
          "name": "_account",
          "type": "address"
        },
        {
          "internalType": "address",
          "name": "_irsContract",
          "type": "address"
        }
      ],
      "name": "balanceOf",
      "outputs": [
        {
          "internalType": "uint256",
          "name": "",
          "type": "uint256"
        }
      ],
      "stateMutability": "view",
      "type": "function"
    },
    {
      "inputs": [
        {
          "internalType": "address",
          "name": "_account",
          "type": "address"
        },
        {
          "internalType": "uint256",
          "name": "_amount",
          "type": "uint256"
        },
        {
          "internalType": "address",
          "name": "_irsContract",
          "type": "address"
        }
      ],
      "name": "burn",
      "outputs": [],
      "stateMutability": "nonpayable",
      "type": "function"
    },
    {
      "inputs": [
        {
          "internalType": "address",
          "name": "_irsContract",
          "type": "address"
        }
      ],
      "name": "decimals",
      "outputs": [
        {
          "internalType": "uint8",
          "name": "",
          "type": "uint8"
        }
      ],
      "stateMutability": "view",
      "type": "function"
    },
    {
      "inputs": [
        {
          "internalType": "address",
          "name": "_spender",
          "type": "address"
        },
        {
          "internalType": "uint256",
          "name": "_subtractedValue",
          "type": "uint256"
        },
        {
          "internalType": "address",
          "name": "_irsContract",
          "type": "address"
        }
      ],
      "name": "decreaseAllowance",
      "outputs": [],
      "stateMutability": "nonpayable",
      "type": "function"
    },
    {
      "inputs": [
        {
          "internalType": "address",
          "name": "_irsContract",
          "type": "address"
        }
      ],
      "name": "getFixedPayerContract",
      "outputs": [
        {
          "internalType": "address",
          "name": "",
          "type": "address"
        }
      ],
      "stateMutability": "view",
      "type": "function"
    },
    {
      "inputs": [
        {
          "internalType": "address",
          "name": "_irsContract",
          "type": "address"
        }
      ],
      "name": "getFloatingPayerContract",
      "outputs": [
        {
          "internalType": "address",
          "name": "",
          "type": "address"
        }
      ],
      "stateMutability": "view",
      "type": "function"
    },
    {
      "inputs": [
        {
          "internalType": "address",
          "name": "_irsContract",
          "type": "address"
        }
      ],
      "name": "getIRSInfo",
      "outputs": [
        {
          "components": [
            {
              "internalType": "address",
              "name": "irsContract",
              "type": "address"
            },
            {
              "internalType": "address",
              "name": "fixedInterestPayer",
              "type": "address"
            },
            {
              "internalType": "address",
              "name": "floatingInterestPayer",
              "type": "address"
            },
            {
              "internalType": "uint8",
              "name": "ratesDecimals",
              "type": "uint8"
            },
            {
              "internalType": "uint8",
              "name": "status",
              "type": "uint8"
            },
            {
              "internalType": "uint256",
              "name": "swapRate",
              "type": "uint256"
            },
            {
              "internalType": "uint256",
              "name": "spread",
              "type": "uint256"
            },
            {
              "internalType": "address",
              "name": "assetContract",
              "type": "address"
            },
            {
              "internalType": "uint256",
              "name": "notionalAmount",
              "type": "uint256"
            },
            {
              "internalType": "uint256",
              "name": "paymentFrequency",
              "type": "uint256"
            },
            {
              "internalType": "uint256",
              "name": "startingDate",
              "type": "uint256"
            },
            {
              "internalType": "uint256",
              "name": "maturityDate",
              "type": "uint256"
            },
            {
              "internalType": "uint8",
              "name": "index",
              "type": "uint8"
            }
          ],
          "internalType": "struct IRSTypes.IRS",
          "name": "",
          "type": "tuple"
        }
      ],
      "stateMutability": "view",
      "type": "function"
    },
    {
      "inputs": [
        {
          "internalType": "address",
          "name": "_irsContract",
          "type": "address"
        }
      ],
      "name": "getIRSReceipt",
      "outputs": [
        {
          "components": [
            {
              "internalType": "address",
              "name": "from",
              "type": "address"
            },
            {
              "internalType": "address",
              "name": "to",
              "type": "address"
            },
            {
              "internalType": "address",
              "name": "currency",
              "type": "address"
            },
            {
              "internalType": "uint256",
              "name": "amount",
              "type": "uint256"
            }
          ],
          "internalType": "struct IRSTypes.IRSReceipt[]",
          "name": "",
          "type": "tuple[]"
        }
      ],
      "stateMutability": "view",
      "type": "function"
    },
    {
      "inputs": [
        {
          "internalType": "address",
          "name": "_irsContract",
          "type": "address"
        }
      ],
      "name": "getNumberOfSwaps",
      "outputs": [
        {
          "internalType": "uint8",
          "name": "",
          "type": "uint8"
        }
      ],
      "stateMutability": "view",
      "type": "function"
    },
    {
      "inputs": [
        {
          "internalType": "address",
          "name": "_irsContract",
          "type": "address"
        }
      ],
      "name": "getSwapCount",
      "outputs": [
        {
          "internalType": "uint8",
          "name": "",
          "type": "uint8"
        }
      ],
      "stateMutability": "view",
      "type": "function"
    },
    {
      "inputs": [
        {
          "internalType": "address",
          "name": "_spender",
          "type": "address"
        },
        {
          "internalType": "uint256",
          "name": "_addedValue",
          "type": "uint256"
        },
        {
          "internalType": "address",
          "name": "_irsContract",
          "type": "address"
        }
      ],
      "name": "increaseAllowance",
      "outputs": [],
      "stateMutability": "nonpayable",
      "type": "function"
    },
    {
      "inputs": [
        {
          "internalType": "address",
          "name": "_irsContract",
          "type": "address"
        }
      ],
      "name": "isContractActive",
      "outputs": [
        {
          "internalType": "uint8",
          "name": "",
          "type": "uint8"
        }
      ],
      "stateMutability": "view",
      "type": "function"
    },
    {
      "inputs": [
        {
          "internalType": "address",
          "name": "_irsContract",
          "type": "address"
        }
      ],
      "name": "name",
      "outputs": [
        {
          "internalType": "string",
          "name": "",
          "type": "string"
        }
      ],
      "stateMutability": "view",
      "type": "function"
    },
    {
      "inputs": [
        {
          "internalType": "address",
          "name": "_irsContract",
          "type": "address"
        }
      ],
      "name": "symbol",
      "outputs": [
        {
          "internalType": "string",
          "name": "",
          "type": "string"
        }
      ],
      "stateMutability": "view",
      "type": "function"
    },
    {
      "inputs": [
        {
          "internalType": "address",
          "name": "_irsContract",
          "type": "address"
        }
      ],
      "name": "totalSupply",
      "outputs": [
        {
          "internalType": "uint256",
          "name": "",
          "type": "uint256"
        }
      ],
      "stateMutability": "view",
      "type": "function"
    },
    {
      "inputs": [
        {
          "internalType": "address",
          "name": "_to",
          "type": "address"
        },
        {
          "internalType": "uint256",
          "name": "_amount",
          "type": "uint256"
        },
        {
          "internalType": "address",
          "name": "_irsContract",
          "type": "address"
        }
      ],
      "name": "transfer",
      "outputs": [],
      "stateMutability": "nonpayable",
      "type": "function"
    },
    {
      "inputs": [
        {
          "internalType": "address",
          "name": "_from",
          "type": "address"
        },
        {
          "internalType": "address",
          "name": "_to",
          "type": "address"
        },
        {
          "internalType": "uint256",
          "name": "_amount",
          "type": "uint256"
        },
        {
          "internalType": "address",
          "name": "_irsContract",
          "type": "address"
        }
      ],
      "name": "transferFrom",
      "outputs": [],
      "stateMutability": "nonpayable",
      "type": "function"
    }
  ],
  "bytecode": "0x608080604052346100165761108a908161001c8239f35b600080fdfe60806040908082526004918236101561001757600080fd5b60009160e08335811c9182630198489214610e2a5750816311c44aa714610c385781631271f09a14610bca5781635fc9309c14610b3757816364e9d73214610acc5781638fea1e4d14610a3957816391ca76f4146109ce578163927da1051461093f57816394018c5b146108d4578163a86e357614610832578163b8ce670d146107bb578163c774d0b414610750578163c84b0e501461050257508063caff59921461045d578063cdfdb7d6146103bb578063d449a83214610311578063dbba0f011461025a578063e4dc2aa4146101b75763f7888aec146100f857600080fd5b346101b357806003193601126101b3576020610112610e96565b60246001600160a01b039182610126610eac565b16855197889485937f70a0823100000000000000000000000000000000000000000000000000000000855216908301525afa9182156101a8579161016f575b6020925051908152f35b90506020823d82116101a0575b8161018960209383610f8c565b8101031261019b576020915190610165565b600080fd5b3d915061017c565b9051903d90823e3d90fd5b5080fd5b50346101b3576020928360031936011261025657836001600160a01b036101dc610e96565b168351928380927f18160ddd0000000000000000000000000000000000000000000000000000000082525afa92831561024b579261021c575b5051908152f35b9091508281813d8311610244575b6102348183610f8c565b8101031261019b57519038610215565b503d61022a565b8251903d90823e3d90fd5b8280fd5b508290346102565760206102c892846001600160a01b0361027a36610f11565b93919290948751988996879586937fa9059cbb0000000000000000000000000000000000000000000000000000000085528401602090939291936001600160a01b0360408201951681520152565b0393165af190811561030857506102dd575080f35b6102fd9060203d8111610301575b6102f58183610f8c565b810190611028565b5080f35b503d6102eb565b513d84823e3d90fd5b50346101b3576020928360031936011261025657836001600160a01b03610336610e96565b168351928380927f313ce5670000000000000000000000000000000000000000000000000000000082525afa92831561024b57809361037c575b505060ff905191168152f35b909192508382813d83116103b4575b6103958183610f8c565b810103126103b157506103a960ff9161101a565b919038610370565b80fd5b503d61038b565b5091819234610459576001600160a01b03916103d636610f11565b9490919416803b1561045557610432948680948651978895869485937f395093510000000000000000000000000000000000000000000000000000000085528401602090939291936001600160a01b0360408201951681520152565b03925af190811561030857506104455750f35b61044e90610f45565b6103b15780f35b8580fd5b5050fd5b5091346101b35760209283600319360112610256576001600160a01b03918483610485610e96565b168351928380927f38cb8a250000000000000000000000000000000000000000000000000000000082525afa93841561024b5780946104c8575b50505191168152f35b909193508482813d83116104fb575b6104e18183610f8c565b810103126103b157506104f390611040565b9138806104bf565b503d6104d7565b849291503461074c576020918260031936011261074857610521610e96565b9381519261052e84610f6f565b868452868585015286838501528660608501528660808501528660a08501528660c0850152868185015261010087818601526101208881870152610140918983880152610160938a858901528a610180809901528651998a967f42abea790000000000000000000000000000000000000000000000000000000088526101a09b8c91816001600160a01b038095165afa96871561073e578c8a9b9c9d9a999a98610653575b50508860ff99519b828951168d5282818a015116908d0152818189015116908c01528860608801511660608c01528860808801511660808c015260a087015160a08c015260c087015160c08c01528187015116908a0152808501519089015280840151908801528083015190870152808201519086015201511690820152f35b919395975091939597508b82813d8311610737575b6106728183610f8c565b810103126103b1575091879593918a61072b8b809a989660ff9c519361069785610f6f565b6106a082611040565b85526106ad818301611040565b908501526106bc8b8201611040565b8b8501526106cc6060820161101a565b60608501526106dd6080820161101a565b608085015260a081015160a085015260c081015160c0850152610701868201611040565b86850152868101518785015287810151888501528881015189850152898101518a8501520161101a565b8982015296988d6105d3565b503d610668565b88513d8e823e3d90fd5b8480fd5b8380fd5b5050346101b3576020928360031936011261025657836001600160a01b03610776610e96565b168351928380927f4d1d62fa0000000000000000000000000000000000000000000000000000000082525afa92831561024b57809361037c57505060ff905191168152f35b8380868534610459576001600160a01b03916107d636610f11565b9490919416803b1561045557610432948680948651978895869485937f9dc29fac0000000000000000000000000000000000000000000000000000000085528401602090939291936001600160a01b0360408201951681520152565b8385843461025657602036600319011261025657826001600160a01b03610857610e96565b168251938480927f95d89b410000000000000000000000000000000000000000000000000000000082525afa9182156108ca57836108a194936108a5575b50505191829182610ee5565b0390f35b6108c29293503d8091833e6108ba8183610f8c565b810190610fae565b908380610895565b81513d85823e3d90fd5b505091346101b35760209283600319360112610256576001600160a01b039184836108fd610e96565b168351928380927fbeb9ad5f0000000000000000000000000000000000000000000000000000000082525afa93841561024b5780946104c85750505191168152f35b5050346101b35760603660031901126101b35761095a610e96565b610962610eac565b90604435916001600160a01b039182841680940361019b57602093836044938751998a9687957fdd62ed3e00000000000000000000000000000000000000000000000000000000875216908501521660248301525afa9182156101a8579161016f576020925051908152f35b5050346101b3576020928360031936011261025657836001600160a01b036109f4610e96565b168351928380927fd81671bc0000000000000000000000000000000000000000000000000000000082525afa92831561024b57809361037c57505060ff905191168152f35b8385843461025657826001600160a01b03610a5336610f11565b90921690813b1561074c5783610aac968651978895869485937fa457c2d70000000000000000000000000000000000000000000000000000000085528401602090939291936001600160a01b0360408201951681520152565b03925af19081156103085750610ac0575080f35b610ac990610f45565b80f35b5050346101b3576020928360031936011261025657836001600160a01b03610af2610e96565b168351928380927f8f5949f90000000000000000000000000000000000000000000000000000000082525afa92831561024b57809361037c57505060ff905191168152f35b8385843461025657608036600319011261025657610b53610e96565b610b5b610eac565b90606435916001600160a01b0391868385168095036103b157602094846064948851998a9788967f23b872dd000000000000000000000000000000000000000000000000000000008852169086015216602484015260443560448401525af190811561030857506102dd575080f35b838584346102565760206102c892846001600160a01b03610bea36610f11565b93919290948751988996879586937f095ea7b30000000000000000000000000000000000000000000000000000000085528401602090939291936001600160a01b0360408201951681520152565b505091346101b357602080600319360112610256576001600160a01b0390828483610c61610e96565b168751928380927f299421d40000000000000000000000000000000000000000000000000000000082525afa938415610e20578594610cff575b5050929084519380850191818652845180935281878701950193905b838210610cc45786860387f35b845180518216875280840151821687850152888101518216898801526060908101519087015260809095019493820193600190910190610cb7565b909193503d8086843e610d128184610f8c565b820191848184031261045557805167ffffffffffffffff91828211610e1c57019083601f83011215610e1857815190808211610e0557885194610d5a888460051b0187610f8c565b828652878087019360071b85010193818511610e01578801925b848410610d8957505050505050913880610c9b565b60808085840312610dfd578b5190810181811085821117610dea578c526080918a91610db487611040565b8152610dc1838801611040565b838201528d610dd1818901611040565b9082015260608088015190820152815201930192610d74565b60248c60418a634e487b7160e01b835252fd5b8a80fd5b8980fd5b602488604186634e487b7160e01b835252fd5b8680fd5b8780fd5b86513d87823e3d90fd5b8490848288346101b35760203660031901126101b3578390816001600160a01b03610e53610e96565b167f06fdde030000000000000000000000000000000000000000000000000000000082525afa9182156108ca57836108a194936108a55750505191829182610ee5565b600435906001600160a01b038216820361019b57565b602435906001600160a01b038216820361019b57565b60005b838110610ed55750506000910152565b8181015183820152602001610ec5565b60409160208252610f058151809281602086015260208686019101610ec2565b601f01601f1916010190565b606090600319011261019b576001600160a01b03600435818116810361019b579160243591604435908116810361019b5790565b67ffffffffffffffff8111610f5957604052565b634e487b7160e01b600052604160045260246000fd5b6101a0810190811067ffffffffffffffff821117610f5957604052565b90601f8019910116810190811067ffffffffffffffff821117610f5957604052565b60208183031261019b57805167ffffffffffffffff9182821161019b57019082601f8301121561019b578151908111610f595760405192610ff9601f8301601f191660200185610f8c565b8184526020828401011161019b576110179160208085019101610ec2565b90565b519060ff8216820361019b57565b9081602091031261019b5751801515810361019b5790565b51906001600160a01b038216820361019b5756fea26469706673582212203c705aa21b8c02459e72fc38258a12283582d643d26554fe2cc159d03a82aa3264736f6c63430008130033",
  "linkReferences": {},
  "deployedLinkReferences": {}
}