{"contracts/BondTopos.sol":{"BondTopos":{"abi":[{"inputs":[{"internalType":"string","name":"_dealID","type":"string"},{"internalType":"address","name":"_issuerWalletAddress","type":"address"},{"internalType":"address","name":"_toposBankContract","type":"address"},{"internalType":"string","name":"_countryOfIssuance","type":"string"}],"stateMutability":"nonpayable","type":"constructor"},{"anonymous":false,"inputs":[{"indexed":false,"internalType":"address","name":"_owner","type":"address"},{"indexed":false,"internalType":"address","name":"_spender","type":"address"},{"indexed":false,"internalType":"uint256","name":"_amount","type":"uint256"}],"name":"Approval","type":"event"},{"anonymous":false,"inputs":[{"indexed":false,"internalType":"address","name":"_from","type":"address"},{"indexed":false,"internalType":"address","name":"_to","type":"address"},{"indexed":false,"internalType":"uint256","name":"_amount","type":"uint256"}],"name":"Transfer","type":"event"},{"inputs":[{"internalType":"address","name":"_owner","type":"address"},{"internalType":"address","name":"_spender","type":"address"}],"name":"allowance","outputs":[{"internalType":"uint256","name":"","type":"uint256"}],"stateMutability":"view","type":"function"},{"inputs":[{"internalType":"address","name":"_spender","type":"address"},{"internalType":"uint256","name":"_amount","type":"uint256"}],"name":"approve","outputs":[{"internalType":"bool","name":"","type":"bool"}],"stateMutability":"nonpayable","type":"function"},{"inputs":[{"internalType":"address","name":"_account","type":"address"}],"name":"balanceOf","outputs":[{"internalType":"uint256","name":"","type":"uint256"}],"stateMutability":"view","type":"function"},{"inputs":[],"name":"bankContract","outputs":[{"internalType":"address","name":"","type":"address"}],"stateMutability":"view","type":"function"},{"inputs":[],"name":"bondManager","outputs":[{"internalType":"address","name":"","type":"address"}],"stateMutability":"view","type":"function"},{"inputs":[],"name":"bondStatus","outputs":[{"internalType":"enum BondData.BondStatus","name":"","type":"uint8"}],"stateMutability":"view","type":"function"},{"inputs":[{"internalType":"string","name":"","type":"string"}],"name":"bonds","outputs":[{"internalType":"string","name":"isin","type":"string"},{"internalType":"string","name":"name","type":"string"},{"internalType":"string","name":"symbol","type":"string"},{"internalType":"address","name":"currency","type":"address"},{"internalType":"uint256","name":"denomination","type":"uint256"},{"internalType":"uint256","name":"issueVolume","type":"uint256"},{"internalType":"uint256","name":"couponRate","type":"uint256"},{"internalType":"uint8","name":"couponType","type":"uint8"},{"internalType":"uint256","name":"couponFrequency","type":"uint256"},{"internalType":"uint256","name":"issueDate","type":"uint256"},{"internalType":"uint256","name":"maturityDate","type":"uint256"}],"stateMutability":"view","type":"function"},{"inputs":[],"name":"couponFrequency","outputs":[{"internalType":"uint256","name":"","type":"uint256"}],"stateMutability":"view","type":"function"},{"inputs":[],"name":"couponRate","outputs":[{"internalType":"uint256","name":"","type":"uint256"}],"stateMutability":"view","type":"function"},{"inputs":[],"name":"couponType","outputs":[{"internalType":"uint8","name":"","type":"uint8"}],"stateMutability":"view","type":"function"},{"inputs":[],"name":"currency","outputs":[{"internalType":"address","name":"","type":"address"}],"stateMutability":"view","type":"function"},{"inputs":[],"name":"dealID","outputs":[{"internalType":"string","name":"","type":"string"}],"stateMutability":"view","type":"function"},{"inputs":[{"internalType":"address","name":"_spender","type":"address"},{"internalType":"uint256","name":"_amount","type":"uint256"}],"name":"decreaseAllowance","outputs":[],"stateMutability":"nonpayable","type":"function"},{"inputs":[],"name":"denomination","outputs":[{"internalType":"uint256","name":"","type":"uint256"}],"stateMutability":"view","type":"function"},{"inputs":[],"name":"getListOfInvestors","outputs":[{"components":[{"internalType":"address","name":"investor","type":"address"},{"internalType":"uint256","name":"amount","type":"uint256"}],"internalType":"struct BondData.DealInvestment[]","name":"","type":"tuple[]"}],"stateMutability":"view","type":"function"},{"inputs":[{"internalType":"address","name":"","type":"address"}],"name":"investorsIDs","outputs":[{"internalType":"uint256","name":"","type":"uint256"}],"stateMutability":"view","type":"function"},{"inputs":[{"internalType":"address","name":"","type":"address"}],"name":"isInvestor","outputs":[{"internalType":"bool","name":"","type":"bool"}],"stateMutability":"view","type":"function"},{"inputs":[],"name":"isin","outputs":[{"internalType":"string","name":"","type":"string"}],"stateMutability":"view","type":"function"},{"inputs":[{"components":[{"internalType":"string","name":"isin","type":"string"},{"internalType":"string","name":"name","type":"string"},{"internalType":"string","name":"symbol","type":"string"},{"internalType":"address","name":"currency","type":"address"},{"internalType":"uint256","name":"denomination","type":"uint256"},{"internalType":"uint256","name":"issueVolume","type":"uint256"},{"internalType":"uint256","name":"couponRate","type":"uint256"},{"internalType":"uint8","name":"couponType","type":"uint8"},{"internalType":"uint256","name":"couponFrequency","type":"uint256"},{"internalType":"uint256","name":"issueDate","type":"uint256"},{"internalType":"uint256","name":"maturityDate","type":"uint256"}],"internalType":"struct BondData.Bond","name":"_bond","type":"tuple"}],"name":"issue","outputs":[],"stateMutability":"nonpayable","type":"function"},{"inputs":[{"internalType":"string","name":"","type":"string"}],"name":"issueData","outputs":[{"internalType":"address","name":"issuerWalletAddress","type":"address"},{"internalType":"string","name":"countryOfIssuance","type":"string"}],"stateMutability":"view","type":"function"},{"inputs":[],"name":"issueDate","outputs":[{"internalType":"uint256","name":"","type":"uint256"}],"stateMutability":"view","type":"function"},{"inputs":[],"name":"issueVolume","outputs":[{"internalType":"uint256","name":"","type":"uint256"}],"stateMutability":"view","type":"function"},{"inputs":[],"name":"maturityDate","outputs":[{"internalType":"uint256","name":"","type":"uint256"}],"stateMutability":"view","type":"function"},{"inputs":[],"name":"name","outputs":[{"internalType":"string","name":"","type":"string"}],"stateMutability":"view","type":"function"},{"inputs":[{"internalType":"address","name":"_account","type":"address"}],"name":"principalOf","outputs":[{"internalType":"uint256","name":"","type":"uint256"}],"stateMutability":"view","type":"function"},{"inputs":[],"name":"redeem","outputs":[],"stateMutability":"nonpayable","type":"function"},{"inputs":[],"name":"symbol","outputs":[{"internalType":"string","name":"","type":"string"}],"stateMutability":"view","type":"function"},{"inputs":[],"name":"toposBankContract","outputs":[{"internalType":"address","name":"","type":"address"}],"stateMutability":"view","type":"function"},{"inputs":[],"name":"totalSupply","outputs":[{"internalType":"uint256","name":"","type":"uint256"}],"stateMutability":"view","type":"function"},{"inputs":[{"internalType":"address","name":"_to","type":"address"},{"internalType":"uint256","name":"_amount","type":"uint256"},{"internalType":"bytes","name":"_data","type":"bytes"}],"name":"transfer","outputs":[{"internalType":"bool","name":"","type":"bool"}],"stateMutability":"nonpayable","type":"function"},{"inputs":[{"internalType":"address","name":"_from","type":"address"},{"internalType":"address","name":"_to","type":"address"},{"internalType":"uint256","name":"_amount","type":"uint256"},{"internalType":"bytes","name":"_data","type":"bytes"}],"name":"transferFrom","outputs":[{"internalType":"bool","name":"","type":"bool"}],"stateMutability":"nonpayable","type":"function"}],"evm":{"bytecode":{"linkReferences":{},"object":"608060405234620003985762002394803803806200001d816200039d565b928339810190608081830312620003985780516001600160401b03929083811162000398578162000050918401620003e8565b92602090620000618285016200043f565b9362000070604082016200043f565b93606082015183811162000398576200008a9201620003e8565b90855191818311620002b357600654906001938483811c931680156200038d575b868410146200029257601f9283811162000341575b508086848211600114620002d557600091620002c9575b50600019600383901b1c191690851b176006555b836200014f8660018060a01b03199a338c6007541617600755604051908051918381818401946200011e818388620003c3565b60009082019081520301902080548e166001600160a01b039d8e1617905560405190519093849282908490620003c3565b8101600081520301902001948151938411620002b35785548581811c91168015620002a8575b82821014620002925783811162000247575b5080928411600114620001dc5750928293918392600094620001d0575b50501b916000199060031b1c19161790555b16906008541617600855604051611f3f9081620004558239f35b015192503880620001a4565b919083601f1981168760005284600020946000905b888383106200022c575050501062000212575b505050811b019055620001b6565b015160001960f88460031b161c1916905538808062000204565b858701518855909601959485019487935090810190620001f1565b86600052816000208480870160051c82019284881062000288575b0160051c019086905b8281106200027b57505062000187565b600081550186906200026b565b9250819262000262565b634e487b7160e01b600052602260045260246000fd5b90607f169062000175565b634e487b7160e01b600052604160045260246000fd5b905089015138620000d7565b869250601f19821690600660005288600020918c8a6000915b838310620003295750505083116200030f575b5050811b01600655620000eb565b8b015160001960f88460031b161c19169055388062000301565b84015185558a969094019392830192018a8e620002ee565b6006600052866000208480840160051c82019289851062000383575b0160051c019086905b82811062000376575050620000c0565b6000815501869062000366565b925081926200035d565b92607f1692620000ab565b600080fd5b6040519190601f01601f191682016001600160401b03811183821017620002b357604052565b60005b838110620003d75750506000910152565b8181015183820152602001620003c6565b81601f82011215620003985780516001600160401b038111620002b3576200041a601f8201601f19166020016200039d565b928184526020828401011162000398576200043c9160208085019101620003c3565b90565b51906001600160a01b0382168203620003985756fe604060808152600436101561001357600080fd5b60003560e01c8063045017ce1461174d57806306fdde031461172757806307c2e44914611187578063095ea7b31461162057806318160ddd146115f2578063363cc427146115ca57806341d6a5821461156257806346e8de211461144a5780635eb0b3d01461142b57806361e20a1c146113f257806370a08231146113ab578063710d33291461138c57806373975df11461136757806382d5a60d146113385780638bca6d16146113195780638d1343e0146112fa5780638db6f28a146111fe57806395d89b41146111af5780639c34712a14611187578063a457c2d71461107e578063ab67aa5814610d9e578063be040fb014610c59578063be45fd6214610981578063c0bcb26f1461095d578063c16aa7791461091a578063cee2a9cf146108dc578063d59624b4146108b4578063d76805aa1461022e578063dd62ed3e146101e0578063e5a6b10f146101af5763e6ba4fea1461017257600080fd5b346101aa5760203660031901126101aa576020906001600160a01b036101966117b6565b166000526004825280600020549051908152f35b600080fd5b50346101aa5760003660031901126101aa576020906001600160a01b0360036101d6611a7e565b0154169051908152f35b50346101aa57806003193601126101aa576020906101fc6117b6565b6102046117cc565b906001600160a01b0380911660005260058452826000209116600052825280600020549051908152f35b50346101aa576003196020368201126101aa5767ffffffffffffffff600435116101aa5761016090600435360301126101aa576001600160a01b0360085416610278813314611a33565b8151907f605936ea00000000000000000000000000000000000000000000000000000000825260206004830152602082806102b5602482016118cb565b0381845afa91821561087557600092610880575b508160a46004350135036101aa5760008351809263646bfb1760e11b82526020600483015281806102fc602482016118cb565b03915afa90811561087557600091610852575b50600461031a611a7e565b01549060009160005b82518110156103e2576001600160a01b0361033e8285611d96565b51511690602061034e8286611d96565b5101519482156101aa57851515806103c8575b156101aa576103c392610377876103be93611b3f565b96816000526002602052808a60002055600360205289600020600160ff198254161790556004602052838a600020558951916103b2836117e2565b82526020820152611e0d565b611d87565b610323565b506103dc846103d78189611dc0565b611dc0565b15610361565b5050506103ed611a7e565b6103fb600480350180611e81565b67ffffffffffffffff81959295116106c7576104178354611891565b601f811161080e575b506000601f82116001146107a757819293949560009261079c575b50508160011b916000199060031b1c19161782555b610464602460043501600435600401611e81565b67ffffffffffffffff81959295116106c7576104836001850154611891565b601f8111610755575b506000601f82116001146106e85781929394956000926106dd575b50508160011b916000199060031b1c19161760018401555b6104d3604460043501600435600401611e81565b67ffffffffffffffff81959295116106c7576104f26002830154611891565b601f811161067c575b506000601f821160011461060f578192939495600092610604575b50508160011b916000199060031b1c19161760028201555b60038101606460043501356001600160a01b0381168091036101aa5773ffffffffffffffffffffffffffffffffffffffff1982541617905560846004350135600482015560a46004350135600582015560c4600435013560068201556007810160e4600435013560ff81168091036101aa5760ff198254161790556101046004350135600882015561012460043501356009820155600a61014460043501359101554260096105db611a7e565b015560ff60a01b196008541660085542600a6105f5611a7e565b015411156101aa57036101aa57005b013590508580610516565b601f198216956002840160005260206000209160005b8881106106645750836001959697981061064a575b505050811b01600282015561052e565b0135600019600384901b60f8161c1916905585808061063a565b90926020600181928686013581550194019101610625565b600283016000526020600020601f830160051c810191602084106106bd575b601f0160051c01905b8181106106b157506104fb565b600081556001016106a4565b909150819061069b565b634e487b7160e01b600052604160045260246000fd5b0135905085806104a7565b601f198216956001860160005260206000209160005b88811061073d57508360019596979810610723575b505050811b0160018401556104bf565b0135600019600384901b60f8161c19169055858080610713565b909260206001819286860135815501940191016106fe565b600185016000526020600020601f830160051c810160208410610795575b601f830160051c8201811061078957505061048c565b60008155600101610773565b5080610773565b01359050858061043b565b601f198216958460005260206000209160005b8881106107f6575083600195969798106107dc575b505050811b018255610450565b0135600019600384901b60f8161c191690558580806107cf565b909260206001819286860135815501940191016107ba565b836000526020600020601f830160051c81016020841061084b575b601f830160051c8201811061083f575050610420565b60008155600101610829565b5080610829565b61086f91503d806000833e61086781836117fe565b810190611ce1565b3861030f565b83513d6000823e3d90fd5b9091506020813d6020116108ac575b8161089c602093836117fe565b810103126101aa575190386102c9565b3d915061088f565b50346101aa5760003660031901126101aa57602090600a6108d3611a7e565b01549051908152f35b50346101aa5760203660031901126101aa576020906001600160a01b036109016117b6565b166000526003825260ff81600020541690519015158152f35b50346101aa5760003660031901126101aa5760ff60085460a01c1690516002821015610947576020918152f35b634e487b7160e01b600052602160045260246000fd5b50346101aa5760003660031901126101aa5760209061097a611b4c565b9051908152f35b50346101aa5760603660031901126101aa5761099b6117b6565b9060443560243567ffffffffffffffff82116101aa576109c060049236908401611a05565b50506001600160a01b039360a085600854168551948580926361d1549d60e11b82525afa928315610c4e57600093610c19575b50835163b9209e3360e01b815285821693846004830152816024816020998a94165afa908115610c0e5790610a3091600091610be1575b50611c7e565b33156101aa5782156101aa5781156101aa57336000526002928386528460002054936004610a5c611a7e565b015494600a610a69611a7e565b0154610a80610a788884611b1f565b914210611eb4565b85116101aa57610a9986610a948188611dc0565b611eff565b6101aa577fddf252ad1be2c89b69c2b068fc378daa952ba7f163c4a11628f55a4df523b3ef95836000528289528760002054908602809233600052038860002055836000520186600020556003875260ff86600020541615600014610b9957816000526003875285600020600160ff19825416179055336000528087528560002054600488526001610b2e8860002054611dd3565b500155816000528652610b578560002054865190610b4b826117e2565b83825288820152611e0d565b60001960095401906000526004865284600020555b83513381526001600160a01b039091166020820152604081019190915280606081015b0390a15160018152f35b90336000528187528560002054600488526001610bb98860002054611dd3565b50015560005285528360002054600486526001610bd98660002054611dd3565b500155610b6c565b610c019150873d8911610c07575b610bf981836117fe565b810190611c66565b38610a2a565b503d610bef565b85513d6000823e3d90fd5b610c3b91935060a03d8111610c47575b610c3381836117fe565b810190611c1f565b505091505091386109f3565b503d610c29565b84513d6000823e3d90fd5b50346101aa5760003660031901126101aa57600854906001600160a01b039182811691610c87833314611a33565b60ff8260a01c169160029283811015610947576101aa57600a610ca8611a7e565b01544211156101aa5760ff60a01b197401000000000000000000000000000000000000000091161760085580519163646bfb1760e11b83526000836020958660048301528180610cfa602482016118cb565b03915afa928315610d9357600093610d76575b5060005b8351811015610d74578086610d29610d409387611d96565b5151166000528286528360002054610d4557611d87565b610d11565b86610d508287611d96565b51511660005282865260008481205560006001610d6c83611dd3565b500155611d87565b005b610d8c9193503d806000833e61086781836117fe565b9138610d0d565b82513d6000823e3d90fd5b50346101aa5760803660031901126101aa57610db86117b6565b90610dc16117cc565b91604435926064359167ffffffffffffffff83116101aa57610de860049336908501611a05565b50506001600160a01b039460a086600854168651958680926361d1549d60e11b82525afa938415610c0e57600094611059575b5085855163b9209e3360e01b8152818516958660048301528160248160209b8c94165afa90811561104e5790610e58916000916110375750611c7e565b82169081600052600587528560002033600052875285600020548082116101aa57819083600052600589528760002033600052895203866000205581156101aa5784156101aa5780156101aa57816000526002948588528660002054956004610ebf611a7e565b015493600a610ecc611a7e565b0154610edb610a78878b611b1f565b84116101aa57610eef85610a948187611dc0565b6101aa577fddf252ad1be2c89b69c2b068fc378daa952ba7f163c4a11628f55a4df523b3ef97610b8f9584600052838c528a60002054908602809284600052038b600020558460005201896000205560038a5260ff89600020541615600014610fee578260005260038a5288600020600160ff19825416179055600052808952876000205460048a526001610f878a60002054611dd3565b500155816000528852610fb08760002054885190610fa4826117e2565b8382528a820152611e0d565b60001960095401906000526004885286600020555b8551938493846040919493929460608201956001600160a01b0380921683521660208201520152565b600092919252818952876000205460048a52600161100f8a60002054611dd3565b5001556000528752856000205460048852600161102f8860002054611dd3565b500155610fc5565b610c019150893d8b11610c0757610bf981836117fe565b87513d6000823e3d90fd5b61107291945060a03d8111610c4757610c3381836117fe565b50509150509238610e1b565b50346101aa57806003193601126101aa576110976117b6565b6024359032156101aa576001600160a01b03811680156101aa5782156101aa57326000526005602052836000208160005260205283600020549360046110db611a7e565b0154600a6110e7611a7e565b01544210156101aa578585116101aa5780610a946111059287611dc0565b6101aa57838503948511611171573260008181526005602090815283822094825293845282902095909555519384526001600160a01b03919091169083015260408201527f8c5be1e5ebec7d5bd14f71427d1e84f3dd0314c0f7b2291e5b200ac8c7c3b92590606090a1005b634e487b7160e01b600052601160045260246000fd5b50346101aa5760003660031901126101aa576020906001600160a01b03600854169051908152f35b50346101aa5760003660031901126101aa576111e16111fa916111e860026111d5611a7e565b0182519384809261196f565b03836117fe565b51918291602083526020830190611791565b0390f35b50346101aa5760003660031901126101aa576009549061121d82611cc9565b9161122a825193846117fe565b808352602091828401918260096000527f6e1540171b6c0c960b71a7020d9f60077f6af931a8bbf590da0223dacf75c7af6000915b8383106112bd57505050508051938385948501918186525180925282850193926000905b8382106112905786860387f35b845180516001600160a01b0316875283015186840152879650948501949382019360019190910190611283565b600287600192879a989997516112d2816117e2565b6001600160a01b0386541681528486015483820152815201920192019190969395949661125f565b50346101aa5760003660031901126101aa5760209060096108d3611a7e565b50346101aa5760003660031901126101aa5760209060046108d3611a7e565b50346101aa5760003660031901126101aa576111e16111fa916111e861135c611a7e565b82519384809261196f565b50346101aa5760003660031901126101aa5780516111fa916111e8826111e1816118cb565b50346101aa5760003660031901126101aa5760209060056108d3611a7e565b50346101aa5760203660031901126101aa576020906001600160a01b036113d06117b6565b166000526002825261097a816000205460046113ea611a7e565b015490611b1f565b50346101aa5760203660031901126101aa576020906001600160a01b036114176117b6565b166000526002825280600020549051908152f35b50346101aa5760003660031901126101aa5760209060086108d3611a7e565b50346101aa57611517611473602061146136611820565b8185519382858094519384920161176e565b810160018152030190209180516114958161148e818761196f565b03826117fe565b8151936114b0856114a9816001850161196f565b03866117fe565b82516114c38161148e816002860161196f565b6001600160a01b03600383015416936004830154600584015460068501549161153260ff60078801541694600888015496611525600a60098b01549a01549a83519e8f9e8f92610160808552840190611791565b916020818403910152611791565b918c8303908d0152611791565b9760608a0152608089015260a088015260c087015260e08601526101008501526101208401526101408301520390f35b50346101aa57611588602061157636611820565b8184519382858094519384920161176e565b810160008152030190206111fa60016115b56001600160a01b038454169361148e8651809481930161196f565b83519384938452806020850152830190611791565b50346101aa5760003660031901126101aa576020906001600160a01b03600754169051908152f35b50346101aa5760003660031901126101aa5760209061097a6005611614611a7e565b015460046113ea611a7e565b50346101aa57806003193601126101aa576116396117b6565b9060243532156101aa576001600160a01b0383169081156101aa5780156101aa57326000526020936002855283600020549260058652846000208160005286528460002054936004611689611a7e565b0154906116a5610a7883600a61169d611a7e565b015493611b1f565b84116101aa5780610a946116b99286611dc0565b6101aa576116e8837f8c5be1e5ebec7d5bd14f71427d1e84f3dd0314c0f7b2291e5b200ac8c7c3b92595611b3f565b32600081815260058952878120938152928852918690205584519081526001600160a01b03909116602082015260408101919091528060608101610b8f565b50346101aa5760003660031901126101aa576111e16111fa916111e860016111d5611a7e565b50346101aa5760003660031901126101aa5760209060ff60076101d6611a7e565b60005b8381106117815750506000910152565b8181015183820152602001611771565b906020916117aa8151809281855285808601910161176e565b601f01601f1916010190565b600435906001600160a01b03821682036101aa57565b602435906001600160a01b03821682036101aa57565b6040810190811067ffffffffffffffff8211176106c757604052565b90601f8019910116810190811067ffffffffffffffff8211176106c757604052565b60206003198201126101aa5767ffffffffffffffff6004358181116101aa57826023820112156101aa5780600401359182116106c7576040519261186e601f8401601f1916602001856117fe565b828452602483830101116101aa5781600092602460209301838601378301015290565b90600182811c921680156118c1575b60208310146118ab57565b634e487b7160e01b600052602260045260246000fd5b91607f16916118a0565b600654600092916118db82611891565b8082529160019081811690811561195257506001146118f957505050565b9192935060066000527ff652222313e28459528d920b65115c16c04f3efc82aaedc97be59f3f377c0d3f916000925b84841061193a57505060209250010190565b80546020858501810191909152909301928101611928565b915050602093945060ff929192191683830152151560051b010190565b906000929180549161198083611891565b9182825260019384811690816000146119e257506001146119a2575b50505050565b90919394506000526020928360002092846000945b8386106119ce57505050500101903880808061199c565b8054858701830152940193859082016119b7565b9294505050602093945060ff191683830152151560051b0101903880808061199c565b9181601f840112156101aa5782359167ffffffffffffffff83116101aa57602083818601950101116101aa57565b15611a3a57565b606460405162461bcd60e51b815260206004820152601860248201527f4f4e4c595f544f504f535f42414e4b5f434f4e545241435400000000000000006044820152fd5b604051600654816000611a9083611891565b600193808516908115611b095750600114611ab3575b5060209281520301902090565b92905060066000527ff652222313e28459528d920b65115c16c04f3efc82aaedc97be59f3f377c0d3f9260005b818110611af4575090925081016020611aa6565b84548682015293820193859350602001611ae0565b60ff191684525080151502820190506020611aa6565b8115611b29570490565b634e487b7160e01b600052601260045260246000fd5b9190820180921161117157565b600460206001600160a01b0360085416604051928380927f79a945690000000000000000000000000000000000000000000000000000000082525afa908115611bff57600091611bcb575b506006611ba2611a7e565b015490600260ff6007611bb3611a7e565b01541603611bc757611bc491611b3f565b90565b5090565b906020823d8211611bf7575b81611be4602093836117fe565b81010312611bf457505138611b97565b80fd5b3d9150611bd7565b6040513d6000823e3d90fd5b51906001600160a01b03821682036101aa57565b908160a09103126101aa57611c3381611c0b565b91611c4060208301611c0b565b91611c4d60408201611c0b565b91611bc46080611c5f60608501611c0b565b9301611c0b565b908160209103126101aa575180151581036101aa5790565b15611c8557565b606460405162461bcd60e51b815260206004820152601460248201527f4143434f554e545f4e4f545f414150524f5645440000000000000000000000006044820152fd5b67ffffffffffffffff81116106c75760051b60200190565b9060209182818303126101aa5780519067ffffffffffffffff82116101aa570181601f820112156101aa57805192611d1884611cc9565b93604093611d28855196876117fe565b818652828087019260061b850101938185116101aa578301915b848310611d525750505050505090565b85838303126101aa578386918251611d69816117e2565b611d7286611c0b565b81528286015183820152815201920191611d42565b60001981146111715760010190565b8051821015611daa5760209160051b010190565b634e487b7160e01b600052603260045260246000fd5b8181029291811591840414171561117157565b600954811015611daa57600960005260011b7f6e1540171b6c0c960b71a7020d9f60077f6af931a8bbf590da0223dacf75c7af0190600090565b600954680100000000000000008110156106c757806001611e319201600955611dd3565b919091611e6b576020816001600160a01b03600193511673ffffffffffffffffffffffffffffffffffffffff198554161784550151910155565b634e487b7160e01b600052600060045260246000fd5b903590601e19813603018212156101aa570180359067ffffffffffffffff82116101aa576020019181360383136101aa57565b15611ebb57565b606460405162461bcd60e51b815260206004820152600760248201527f6d617475726564000000000000000000000000000000000000000000000000006044820152fd5b8115611b2957069056fea26469706673582212200f02369b4b11beb074a1c84354e100894a99bc922a75fe40a6860ad25d32fd5764736f6c63430008130033","opcodes":"PUSH1 0x80 PUSH1 0x40 MSTORE CALLVALUE PUSH3 0x398 JUMPI PUSH3 0x2394 DUP1 CODESIZE SUB DUP1 PUSH3 0x1D DUP2 PUSH3 0x39D JUMP JUMPDEST SWAP3 DUP4 CODECOPY DUP2 ADD SWAP1 PUSH1 0x80 DUP2 DUP4 SUB SLT PUSH3 0x398 JUMPI DUP1 MLOAD PUSH1 0x1 PUSH1 0x1 PUSH1 0x40 SHL SUB SWAP3 SWAP1 DUP4 DUP2 GT PUSH3 0x398 JUMPI DUP2 PUSH3 0x50 SWAP2 DUP5 ADD PUSH3 0x3E8 JUMP JUMPDEST SWAP3 PUSH1 0x20 SWAP1 PUSH3 0x61 DUP3 DUP6 ADD PUSH3 0x43F JUMP JUMPDEST SWAP4 PUSH3 0x70 PUSH1 0x40 DUP3 ADD PUSH3 0x43F JUMP JUMPDEST SWAP4 PUSH1 0x60 DUP3 ADD MLOAD DUP4 DUP2 GT PUSH3 0x398 JUMPI PUSH3 0x8A SWAP3 ADD PUSH3 0x3E8 JUMP JUMPDEST SWAP1 DUP6 MLOAD SWAP2 DUP2 DUP4 GT PUSH3 0x2B3 JUMPI PUSH1 0x6 SLOAD SWAP1 PUSH1 0x1 SWAP4 DUP5 DUP4 DUP2 SHR SWAP4 AND DUP1 ISZERO PUSH3 0x38D JUMPI JUMPDEST DUP7 DUP5 LT EQ PUSH3 0x292 JUMPI PUSH1 0x1F SWAP3 DUP4 DUP2 GT PUSH3 0x341 JUMPI JUMPDEST POP DUP1 DUP7 DUP5 DUP3 GT PUSH1 0x1 EQ PUSH3 0x2D5 JUMPI PUSH1 0x0 SWAP2 PUSH3 0x2C9 JUMPI JUMPDEST POP PUSH1 0x0 NOT PUSH1 0x3 DUP4 SWAP1 SHL SHR NOT AND SWAP1 DUP6 SHL OR PUSH1 0x6 SSTORE JUMPDEST DUP4 PUSH3 0x14F DUP7 PUSH1 0x1 DUP1 PUSH1 0xA0 SHL SUB NOT SWAP11 CALLER DUP13 PUSH1 0x7 SLOAD AND OR PUSH1 0x7 SSTORE PUSH1 0x40 MLOAD SWAP1 DUP1 MLOAD SWAP2 DUP4 DUP2 DUP2 DUP5 ADD SWAP5 PUSH3 0x11E DUP2 DUP4 DUP9 PUSH3 0x3C3 JUMP JUMPDEST PUSH1 0x0 SWAP1 DUP3 ADD SWAP1 DUP2 MSTORE SUB ADD SWAP1 KECCAK256 DUP1 SLOAD DUP15 AND PUSH1 0x1 PUSH1 0x1 PUSH1 0xA0 SHL SUB SWAP14 DUP15 AND OR SWAP1 SSTORE PUSH1 0x40 MLOAD SWAP1 MLOAD SWAP1 SWAP4 DUP5 SWAP3 DUP3 SWAP1 DUP5 SWAP1 PUSH3 0x3C3 JUMP JUMPDEST DUP2 ADD PUSH1 0x0 DUP2 MSTORE SUB ADD SWAP1 KECCAK256 ADD SWAP5 DUP2 MLOAD SWAP4 DUP5 GT PUSH3 0x2B3 JUMPI DUP6 SLOAD DUP6 DUP2 DUP2 SHR SWAP2 AND DUP1 ISZERO PUSH3 0x2A8 JUMPI JUMPDEST DUP3 DUP3 LT EQ PUSH3 0x292 JUMPI DUP4 DUP2 GT PUSH3 0x247 JUMPI JUMPDEST POP DUP1 SWAP3 DUP5 GT PUSH1 0x1 EQ PUSH3 0x1DC JUMPI POP SWAP3 DUP3 SWAP4 SWAP2 DUP4 SWAP3 PUSH1 0x0 SWAP5 PUSH3 0x1D0 JUMPI JUMPDEST POP POP SHL SWAP2 PUSH1 0x0 NOT SWAP1 PUSH1 0x3 SHL SHR NOT AND OR SWAP1 SSTORE JUMPDEST AND SWAP1 PUSH1 0x8 SLOAD AND OR PUSH1 0x8 SSTORE PUSH1 0x40 MLOAD PUSH2 0x1F3F SWAP1 DUP2 PUSH3 0x455 DUP3 CODECOPY RETURN JUMPDEST ADD MLOAD SWAP3 POP CODESIZE DUP1 PUSH3 0x1A4 JUMP JUMPDEST SWAP2 SWAP1 DUP4 PUSH1 0x1F NOT DUP2 AND DUP8 PUSH1 0x0 MSTORE DUP5 PUSH1 0x0 KECCAK256 SWAP5 PUSH1 0x0 SWAP1 JUMPDEST DUP9 DUP4 DUP4 LT PUSH3 0x22C JUMPI POP POP POP LT PUSH3 0x212 JUMPI JUMPDEST POP POP POP DUP2 SHL ADD SWAP1 SSTORE PUSH3 0x1B6 JUMP JUMPDEST ADD MLOAD PUSH1 0x0 NOT PUSH1 0xF8 DUP5 PUSH1 0x3 SHL AND SHR NOT AND SWAP1 SSTORE CODESIZE DUP1 DUP1 PUSH3 0x204 JUMP JUMPDEST DUP6 DUP8 ADD MLOAD DUP9 SSTORE SWAP1 SWAP7 ADD SWAP6 SWAP5 DUP6 ADD SWAP5 DUP8 SWAP4 POP SWAP1 DUP2 ADD SWAP1 PUSH3 0x1F1 JUMP JUMPDEST DUP7 PUSH1 0x0 MSTORE DUP2 PUSH1 0x0 KECCAK256 DUP5 DUP1 DUP8 ADD PUSH1 0x5 SHR DUP3 ADD SWAP3 DUP5 DUP9 LT PUSH3 0x288 JUMPI JUMPDEST ADD PUSH1 0x5 SHR ADD SWAP1 DUP7 SWAP1 JUMPDEST DUP3 DUP2 LT PUSH3 0x27B JUMPI POP POP PUSH3 0x187 JUMP JUMPDEST PUSH1 0x0 DUP2 SSTORE ADD DUP7 SWAP1 PUSH3 0x26B JUMP JUMPDEST SWAP3 POP DUP2 SWAP3 PUSH3 0x262 JUMP JUMPDEST PUSH4 0x4E487B71 PUSH1 0xE0 SHL PUSH1 0x0 MSTORE PUSH1 0x22 PUSH1 0x4 MSTORE PUSH1 0x24 PUSH1 0x0 REVERT JUMPDEST SWAP1 PUSH1 0x7F AND SWAP1 PUSH3 0x175 JUMP JUMPDEST PUSH4 0x4E487B71 PUSH1 0xE0 SHL PUSH1 0x0 MSTORE PUSH1 0x41 PUSH1 0x4 MSTORE PUSH1 0x24 PUSH1 0x0 REVERT JUMPDEST SWAP1 POP DUP10 ADD MLOAD CODESIZE PUSH3 0xD7 JUMP JUMPDEST DUP7 SWAP3 POP PUSH1 0x1F NOT DUP3 AND SWAP1 PUSH1 0x6 PUSH1 0x0 MSTORE DUP9 PUSH1 0x0 KECCAK256 SWAP2 DUP13 DUP11 PUSH1 0x0 SWAP2 JUMPDEST DUP4 DUP4 LT PUSH3 0x329 JUMPI POP POP POP DUP4 GT PUSH3 0x30F JUMPI JUMPDEST POP POP DUP2 SHL ADD PUSH1 0x6 SSTORE PUSH3 0xEB JUMP JUMPDEST DUP12 ADD MLOAD PUSH1 0x0 NOT PUSH1 0xF8 DUP5 PUSH1 0x3 SHL AND SHR NOT AND SWAP1 SSTORE CODESIZE DUP1 PUSH3 0x301 JUMP JUMPDEST DUP5 ADD MLOAD DUP6 SSTORE DUP11 SWAP7 SWAP1 SWAP5 ADD SWAP4 SWAP3 DUP4 ADD SWAP3 ADD DUP11 DUP15 PUSH3 0x2EE JUMP JUMPDEST PUSH1 0x6 PUSH1 0x0 MSTORE DUP7 PUSH1 0x0 KECCAK256 DUP5 DUP1 DUP5 ADD PUSH1 0x5 SHR DUP3 ADD SWAP3 DUP10 DUP6 LT PUSH3 0x383 JUMPI JUMPDEST ADD PUSH1 0x5 SHR ADD SWAP1 DUP7 SWAP1 JUMPDEST DUP3 DUP2 LT PUSH3 0x376 JUMPI POP POP PUSH3 0xC0 JUMP JUMPDEST PUSH1 0x0 DUP2 SSTORE ADD DUP7 SWAP1 PUSH3 0x366 JUMP JUMPDEST SWAP3 POP DUP2 SWAP3 PUSH3 0x35D JUMP JUMPDEST SWAP3 PUSH1 0x7F AND SWAP3 PUSH3 0xAB JUMP JUMPDEST PUSH1 0x0 DUP1 REVERT JUMPDEST PUSH1 0x40 MLOAD SWAP2 SWAP1 PUSH1 0x1F ADD PUSH1 0x1F NOT AND DUP3 ADD PUSH1 0x1 PUSH1 0x1 PUSH1 0x40 SHL SUB DUP2 GT DUP4 DUP3 LT OR PUSH3 0x2B3 JUMPI PUSH1 0x40 MSTORE JUMP JUMPDEST PUSH1 0x0 JUMPDEST DUP4 DUP2 LT PUSH3 0x3D7 JUMPI POP POP PUSH1 0x0 SWAP2 ADD MSTORE JUMP JUMPDEST DUP2 DUP2 ADD MLOAD DUP4 DUP3 ADD MSTORE PUSH1 0x20 ADD PUSH3 0x3C6 JUMP JUMPDEST DUP2 PUSH1 0x1F DUP3 ADD SLT ISZERO PUSH3 0x398 JUMPI DUP1 MLOAD PUSH1 0x1 PUSH1 0x1 PUSH1 0x40 SHL SUB DUP2 GT PUSH3 0x2B3 JUMPI PUSH3 0x41A PUSH1 0x1F DUP3 ADD PUSH1 0x1F NOT AND PUSH1 0x20 ADD PUSH3 0x39D JUMP JUMPDEST SWAP3 DUP2 DUP5 MSTORE PUSH1 0x20 DUP3 DUP5 ADD ADD GT PUSH3 0x398 JUMPI PUSH3 0x43C SWAP2 PUSH1 0x20 DUP1 DUP6 ADD SWAP2 ADD PUSH3 0x3C3 JUMP JUMPDEST SWAP1 JUMP JUMPDEST MLOAD SWAP1 PUSH1 0x1 PUSH1 0x1 PUSH1 0xA0 SHL SUB DUP3 AND DUP3 SUB PUSH3 0x398 JUMPI JUMP INVALID PUSH1 0x40 PUSH1 0x80 DUP2 MSTORE PUSH1 0x4 CALLDATASIZE LT ISZERO PUSH2 0x13 JUMPI PUSH1 0x0 DUP1 REVERT JUMPDEST PUSH1 0x0 CALLDATALOAD PUSH1 0xE0 SHR DUP1 PUSH4 0x45017CE EQ PUSH2 0x174D JUMPI DUP1 PUSH4 0x6FDDE03 EQ PUSH2 0x1727 JUMPI DUP1 PUSH4 0x7C2E449 EQ PUSH2 0x1187 JUMPI DUP1 PUSH4 0x95EA7B3 EQ PUSH2 0x1620 JUMPI DUP1 PUSH4 0x18160DDD EQ PUSH2 0x15F2 JUMPI DUP1 PUSH4 0x363CC427 EQ PUSH2 0x15CA JUMPI DUP1 PUSH4 0x41D6A582 EQ PUSH2 0x1562 JUMPI DUP1 PUSH4 0x46E8DE21 EQ PUSH2 0x144A JUMPI DUP1 PUSH4 0x5EB0B3D0 EQ PUSH2 0x142B JUMPI DUP1 PUSH4 0x61E20A1C EQ PUSH2 0x13F2 JUMPI DUP1 PUSH4 0x70A08231 EQ PUSH2 0x13AB JUMPI DUP1 PUSH4 0x710D3329 EQ PUSH2 0x138C JUMPI DUP1 PUSH4 0x73975DF1 EQ PUSH2 0x1367 JUMPI DUP1 PUSH4 0x82D5A60D EQ PUSH2 0x1338 JUMPI DUP1 PUSH4 0x8BCA6D16 EQ PUSH2 0x1319 JUMPI DUP1 PUSH4 0x8D1343E0 EQ PUSH2 0x12FA JUMPI DUP1 PUSH4 0x8DB6F28A EQ PUSH2 0x11FE JUMPI DUP1 PUSH4 0x95D89B41 EQ PUSH2 0x11AF JUMPI DUP1 PUSH4 0x9C34712A EQ PUSH2 0x1187 JUMPI DUP1 PUSH4 0xA457C2D7 EQ PUSH2 0x107E JUMPI DUP1 PUSH4 0xAB67AA58 EQ PUSH2 0xD9E JUMPI DUP1 PUSH4 0xBE040FB0 EQ PUSH2 0xC59 JUMPI DUP1 PUSH4 0xBE45FD62 EQ PUSH2 0x981 JUMPI DUP1 PUSH4 0xC0BCB26F EQ PUSH2 0x95D JUMPI DUP1 PUSH4 0xC16AA779 EQ PUSH2 0x91A JUMPI DUP1 PUSH4 0xCEE2A9CF EQ PUSH2 0x8DC JUMPI DUP1 PUSH4 0xD59624B4 EQ PUSH2 0x8B4 JUMPI DUP1 PUSH4 0xD76805AA EQ PUSH2 0x22E JUMPI DUP1 PUSH4 0xDD62ED3E EQ PUSH2 0x1E0 JUMPI DUP1 PUSH4 0xE5A6B10F EQ PUSH2 0x1AF JUMPI PUSH4 0xE6BA4FEA EQ PUSH2 0x172 JUMPI PUSH1 0x0 DUP1 REVERT JUMPDEST CALLVALUE PUSH2 0x1AA JUMPI PUSH1 0x20 CALLDATASIZE PUSH1 0x3 NOT ADD SLT PUSH2 0x1AA JUMPI PUSH1 0x20 SWAP1 PUSH1 0x1 PUSH1 0x1 PUSH1 0xA0 SHL SUB PUSH2 0x196 PUSH2 0x17B6 JUMP JUMPDEST AND PUSH1 0x0 MSTORE PUSH1 0x4 DUP3 MSTORE DUP1 PUSH1 0x0 KECCAK256 SLOAD SWAP1 MLOAD SWAP1 DUP2 MSTORE RETURN JUMPDEST PUSH1 0x0 DUP1 REVERT JUMPDEST POP CALLVALUE PUSH2 0x1AA JUMPI PUSH1 0x0 CALLDATASIZE PUSH1 0x3 NOT ADD SLT PUSH2 0x1AA JUMPI PUSH1 0x20 SWAP1 PUSH1 0x1 PUSH1 0x1 PUSH1 0xA0 SHL SUB PUSH1 0x3 PUSH2 0x1D6 PUSH2 0x1A7E JUMP JUMPDEST ADD SLOAD AND SWAP1 MLOAD SWAP1 DUP2 MSTORE RETURN JUMPDEST POP CALLVALUE PUSH2 0x1AA JUMPI DUP1 PUSH1 0x3 NOT CALLDATASIZE ADD SLT PUSH2 0x1AA JUMPI PUSH1 0x20 SWAP1 PUSH2 0x1FC PUSH2 0x17B6 JUMP JUMPDEST PUSH2 0x204 PUSH2 0x17CC JUMP JUMPDEST SWAP1 PUSH1 0x1 PUSH1 0x1 PUSH1 0xA0 SHL SUB DUP1 SWAP2 AND PUSH1 0x0 MSTORE PUSH1 0x5 DUP5 MSTORE DUP3 PUSH1 0x0 KECCAK256 SWAP2 AND PUSH1 0x0 MSTORE DUP3 MSTORE DUP1 PUSH1 0x0 KECCAK256 SLOAD SWAP1 MLOAD SWAP1 DUP2 MSTORE RETURN JUMPDEST POP CALLVALUE PUSH2 0x1AA JUMPI PUSH1 0x3 NOT PUSH1 0x20 CALLDATASIZE DUP3 ADD SLT PUSH2 0x1AA JUMPI PUSH8 0xFFFFFFFFFFFFFFFF PUSH1 0x4 CALLDATALOAD GT PUSH2 0x1AA JUMPI PUSH2 0x160 SWAP1 PUSH1 0x4 CALLDATALOAD CALLDATASIZE SUB ADD SLT PUSH2 0x1AA JUMPI PUSH1 0x1 PUSH1 0x1 PUSH1 0xA0 SHL SUB PUSH1 0x8 SLOAD AND PUSH2 0x278 DUP2 CALLER EQ PUSH2 0x1A33 JUMP JUMPDEST DUP2 MLOAD SWAP1 PUSH32 0x605936EA00000000000000000000000000000000000000000000000000000000 DUP3 MSTORE PUSH1 0x20 PUSH1 0x4 DUP4 ADD MSTORE PUSH1 0x20 DUP3 DUP1 PUSH2 0x2B5 PUSH1 0x24 DUP3 ADD PUSH2 0x18CB JUMP JUMPDEST SUB DUP2 DUP5 GAS STATICCALL SWAP2 DUP3 ISZERO PUSH2 0x875 JUMPI PUSH1 0x0 SWAP3 PUSH2 0x880 JUMPI JUMPDEST POP DUP2 PUSH1 0xA4 PUSH1 0x4 CALLDATALOAD ADD CALLDATALOAD SUB PUSH2 0x1AA JUMPI PUSH1 0x0 DUP4 MLOAD DUP1 SWAP3 PUSH4 0x646BFB17 PUSH1 0xE1 SHL DUP3 MSTORE PUSH1 0x20 PUSH1 0x4 DUP4 ADD MSTORE DUP2 DUP1 PUSH2 0x2FC PUSH1 0x24 DUP3 ADD PUSH2 0x18CB JUMP JUMPDEST SUB SWAP2 GAS STATICCALL SWAP1 DUP2 ISZERO PUSH2 0x875 JUMPI PUSH1 0x0 SWAP2 PUSH2 0x852 JUMPI JUMPDEST POP PUSH1 0x4 PUSH2 0x31A PUSH2 0x1A7E JUMP JUMPDEST ADD SLOAD SWAP1 PUSH1 0x0 SWAP2 PUSH1 0x0 JUMPDEST DUP3 MLOAD DUP2 LT ISZERO PUSH2 0x3E2 JUMPI PUSH1 0x1 PUSH1 0x1 PUSH1 0xA0 SHL SUB PUSH2 0x33E DUP3 DUP6 PUSH2 0x1D96 JUMP JUMPDEST MLOAD MLOAD AND SWAP1 PUSH1 0x20 PUSH2 0x34E DUP3 DUP7 PUSH2 0x1D96 JUMP JUMPDEST MLOAD ADD MLOAD SWAP5 DUP3 ISZERO PUSH2 0x1AA JUMPI DUP6 ISZERO ISZERO DUP1 PUSH2 0x3C8 JUMPI JUMPDEST ISZERO PUSH2 0x1AA JUMPI PUSH2 0x3C3 SWAP3 PUSH2 0x377 DUP8 PUSH2 0x3BE SWAP4 PUSH2 0x1B3F JUMP JUMPDEST SWAP7 DUP2 PUSH1 0x0 MSTORE PUSH1 0x2 PUSH1 0x20 MSTORE DUP1 DUP11 PUSH1 0x0 KECCAK256 SSTORE PUSH1 0x3 PUSH1 0x20 MSTORE DUP10 PUSH1 0x0 KECCAK256 PUSH1 0x1 PUSH1 0xFF NOT DUP3 SLOAD AND OR SWAP1 SSTORE PUSH1 0x4 PUSH1 0x20 MSTORE DUP4 DUP11 PUSH1 0x0 KECCAK256 SSTORE DUP10 MLOAD SWAP2 PUSH2 0x3B2 DUP4 PUSH2 0x17E2 JUMP JUMPDEST DUP3 MSTORE PUSH1 0x20 DUP3 ADD MSTORE PUSH2 0x1E0D JUMP JUMPDEST PUSH2 0x1D87 JUMP JUMPDEST PUSH2 0x323 JUMP JUMPDEST POP PUSH2 0x3DC DUP5 PUSH2 0x3D7 DUP2 DUP10 PUSH2 0x1DC0 JUMP JUMPDEST PUSH2 0x1DC0 JUMP JUMPDEST ISZERO PUSH2 0x361 JUMP JUMPDEST POP POP POP PUSH2 0x3ED PUSH2 0x1A7E JUMP JUMPDEST PUSH2 0x3FB PUSH1 0x4 DUP1 CALLDATALOAD ADD DUP1 PUSH2 0x1E81 JUMP JUMPDEST PUSH8 0xFFFFFFFFFFFFFFFF DUP2 SWAP6 SWAP3 SWAP6 GT PUSH2 0x6C7 JUMPI PUSH2 0x417 DUP4 SLOAD PUSH2 0x1891 JUMP JUMPDEST PUSH1 0x1F DUP2 GT PUSH2 0x80E JUMPI JUMPDEST POP PUSH1 0x0 PUSH1 0x1F DUP3 GT PUSH1 0x1 EQ PUSH2 0x7A7 JUMPI DUP2 SWAP3 SWAP4 SWAP5 SWAP6 PUSH1 0x0 SWAP3 PUSH2 0x79C JUMPI JUMPDEST POP POP DUP2 PUSH1 0x1 SHL SWAP2 PUSH1 0x0 NOT SWAP1 PUSH1 0x3 SHL SHR NOT AND OR DUP3 SSTORE JUMPDEST PUSH2 0x464 PUSH1 0x24 PUSH1 0x4 CALLDATALOAD ADD PUSH1 0x4 CALLDATALOAD PUSH1 0x4 ADD PUSH2 0x1E81 JUMP JUMPDEST PUSH8 0xFFFFFFFFFFFFFFFF DUP2 SWAP6 SWAP3 SWAP6 GT PUSH2 0x6C7 JUMPI PUSH2 0x483 PUSH1 0x1 DUP6 ADD SLOAD PUSH2 0x1891 JUMP JUMPDEST PUSH1 0x1F DUP2 GT PUSH2 0x755 JUMPI JUMPDEST POP PUSH1 0x0 PUSH1 0x1F DUP3 GT PUSH1 0x1 EQ PUSH2 0x6E8 JUMPI DUP2 SWAP3 SWAP4 SWAP5 SWAP6 PUSH1 0x0 SWAP3 PUSH2 0x6DD JUMPI JUMPDEST POP POP DUP2 PUSH1 0x1 SHL SWAP2 PUSH1 0x0 NOT SWAP1 PUSH1 0x3 SHL SHR NOT AND OR PUSH1 0x1 DUP5 ADD SSTORE JUMPDEST PUSH2 0x4D3 PUSH1 0x44 PUSH1 0x4 CALLDATALOAD ADD PUSH1 0x4 CALLDATALOAD PUSH1 0x4 ADD PUSH2 0x1E81 JUMP JUMPDEST PUSH8 0xFFFFFFFFFFFFFFFF DUP2 SWAP6 SWAP3 SWAP6 GT PUSH2 0x6C7 JUMPI PUSH2 0x4F2 PUSH1 0x2 DUP4 ADD SLOAD PUSH2 0x1891 JUMP JUMPDEST PUSH1 0x1F DUP2 GT PUSH2 0x67C JUMPI JUMPDEST POP PUSH1 0x0 PUSH1 0x1F DUP3 GT PUSH1 0x1 EQ PUSH2 0x60F JUMPI DUP2 SWAP3 SWAP4 SWAP5 SWAP6 PUSH1 0x0 SWAP3 PUSH2 0x604 JUMPI JUMPDEST POP POP DUP2 PUSH1 0x1 SHL SWAP2 PUSH1 0x0 NOT SWAP1 PUSH1 0x3 SHL SHR NOT AND OR PUSH1 0x2 DUP3 ADD SSTORE JUMPDEST PUSH1 0x3 DUP2 ADD PUSH1 0x64 PUSH1 0x4 CALLDATALOAD ADD CALLDATALOAD PUSH1 0x1 PUSH1 0x1 PUSH1 0xA0 SHL SUB DUP2 AND DUP1 SWAP2 SUB PUSH2 0x1AA JUMPI PUSH20 0xFFFFFFFFFFFFFFFFFFFFFFFFFFFFFFFFFFFFFFFF NOT DUP3 SLOAD AND OR SWAP1 SSTORE PUSH1 0x84 PUSH1 0x4 CALLDATALOAD ADD CALLDATALOAD PUSH1 0x4 DUP3 ADD SSTORE PUSH1 0xA4 PUSH1 0x4 CALLDATALOAD ADD CALLDATALOAD PUSH1 0x5 DUP3 ADD SSTORE PUSH1 0xC4 PUSH1 0x4 CALLDATALOAD ADD CALLDATALOAD PUSH1 0x6 DUP3 ADD SSTORE PUSH1 0x7 DUP2 ADD PUSH1 0xE4 PUSH1 0x4 CALLDATALOAD ADD CALLDATALOAD PUSH1 0xFF DUP2 AND DUP1 SWAP2 SUB PUSH2 0x1AA JUMPI PUSH1 0xFF NOT DUP3 SLOAD AND OR SWAP1 SSTORE PUSH2 0x104 PUSH1 0x4 CALLDATALOAD ADD CALLDATALOAD PUSH1 0x8 DUP3 ADD SSTORE PUSH2 0x124 PUSH1 0x4 CALLDATALOAD ADD CALLDATALOAD PUSH1 0x9 DUP3 ADD SSTORE PUSH1 0xA PUSH2 0x144 PUSH1 0x4 CALLDATALOAD ADD CALLDATALOAD SWAP2 ADD SSTORE TIMESTAMP PUSH1 0x9 PUSH2 0x5DB PUSH2 0x1A7E JUMP JUMPDEST ADD SSTORE PUSH1 0xFF PUSH1 0xA0 SHL NOT PUSH1 0x8 SLOAD AND PUSH1 0x8 SSTORE TIMESTAMP PUSH1 0xA PUSH2 0x5F5 PUSH2 0x1A7E JUMP JUMPDEST ADD SLOAD GT ISZERO PUSH2 0x1AA JUMPI SUB PUSH2 0x1AA JUMPI STOP JUMPDEST ADD CALLDATALOAD SWAP1 POP DUP6 DUP1 PUSH2 0x516 JUMP JUMPDEST PUSH1 0x1F NOT DUP3 AND SWAP6 PUSH1 0x2 DUP5 ADD PUSH1 0x0 MSTORE PUSH1 0x20 PUSH1 0x0 KECCAK256 SWAP2 PUSH1 0x0 JUMPDEST DUP9 DUP2 LT PUSH2 0x664 JUMPI POP DUP4 PUSH1 0x1 SWAP6 SWAP7 SWAP8 SWAP9 LT PUSH2 0x64A JUMPI JUMPDEST POP POP POP DUP2 SHL ADD PUSH1 0x2 DUP3 ADD SSTORE PUSH2 0x52E JUMP JUMPDEST ADD CALLDATALOAD PUSH1 0x0 NOT PUSH1 0x3 DUP5 SWAP1 SHL PUSH1 0xF8 AND SHR NOT AND SWAP1 SSTORE DUP6 DUP1 DUP1 PUSH2 0x63A JUMP JUMPDEST SWAP1 SWAP3 PUSH1 0x20 PUSH1 0x1 DUP2 SWAP3 DUP7 DUP7 ADD CALLDATALOAD DUP2 SSTORE ADD SWAP5 ADD SWAP2 ADD PUSH2 0x625 JUMP JUMPDEST PUSH1 0x2 DUP4 ADD PUSH1 0x0 MSTORE PUSH1 0x20 PUSH1 0x0 KECCAK256 PUSH1 0x1F DUP4 ADD PUSH1 0x5 SHR DUP2 ADD SWAP2 PUSH1 0x20 DUP5 LT PUSH2 0x6BD JUMPI JUMPDEST PUSH1 0x1F ADD PUSH1 0x5 SHR ADD SWAP1 JUMPDEST DUP2 DUP2 LT PUSH2 0x6B1 JUMPI POP PUSH2 0x4FB JUMP JUMPDEST PUSH1 0x0 DUP2 SSTORE PUSH1 0x1 ADD PUSH2 0x6A4 JUMP JUMPDEST SWAP1 SWAP2 POP DUP2 SWAP1 PUSH2 0x69B JUMP JUMPDEST PUSH4 0x4E487B71 PUSH1 0xE0 SHL PUSH1 0x0 MSTORE PUSH1 0x41 PUSH1 0x4 MSTORE PUSH1 0x24 PUSH1 0x0 REVERT JUMPDEST ADD CALLDATALOAD SWAP1 POP DUP6 DUP1 PUSH2 0x4A7 JUMP JUMPDEST PUSH1 0x1F NOT DUP3 AND SWAP6 PUSH1 0x1 DUP7 ADD PUSH1 0x0 MSTORE PUSH1 0x20 PUSH1 0x0 KECCAK256 SWAP2 PUSH1 0x0 JUMPDEST DUP9 DUP2 LT PUSH2 0x73D JUMPI POP DUP4 PUSH1 0x1 SWAP6 SWAP7 SWAP8 SWAP9 LT PUSH2 0x723 JUMPI JUMPDEST POP POP POP DUP2 SHL ADD PUSH1 0x1 DUP5 ADD SSTORE PUSH2 0x4BF JUMP JUMPDEST ADD CALLDATALOAD PUSH1 0x0 NOT PUSH1 0x3 DUP5 SWAP1 SHL PUSH1 0xF8 AND SHR NOT AND SWAP1 SSTORE DUP6 DUP1 DUP1 PUSH2 0x713 JUMP JUMPDEST SWAP1 SWAP3 PUSH1 0x20 PUSH1 0x1 DUP2 SWAP3 DUP7 DUP7 ADD CALLDATALOAD DUP2 SSTORE ADD SWAP5 ADD SWAP2 ADD PUSH2 0x6FE JUMP JUMPDEST PUSH1 0x1 DUP6 ADD PUSH1 0x0 MSTORE PUSH1 0x20 PUSH1 0x0 KECCAK256 PUSH1 0x1F DUP4 ADD PUSH1 0x5 SHR DUP2 ADD PUSH1 0x20 DUP5 LT PUSH2 0x795 JUMPI JUMPDEST PUSH1 0x1F DUP4 ADD PUSH1 0x5 SHR DUP3 ADD DUP2 LT PUSH2 0x789 JUMPI POP POP PUSH2 0x48C JUMP JUMPDEST PUSH1 0x0 DUP2 SSTORE PUSH1 0x1 ADD PUSH2 0x773 JUMP JUMPDEST POP DUP1 PUSH2 0x773 JUMP JUMPDEST ADD CALLDATALOAD SWAP1 POP DUP6 DUP1 PUSH2 0x43B JUMP JUMPDEST PUSH1 0x1F NOT DUP3 AND SWAP6 DUP5 PUSH1 0x0 MSTORE PUSH1 0x20 PUSH1 0x0 KECCAK256 SWAP2 PUSH1 0x0 JUMPDEST DUP9 DUP2 LT PUSH2 0x7F6 JUMPI POP DUP4 PUSH1 0x1 SWAP6 SWAP7 SWAP8 SWAP9 LT PUSH2 0x7DC JUMPI JUMPDEST POP POP POP DUP2 SHL ADD DUP3 SSTORE PUSH2 0x450 JUMP JUMPDEST ADD CALLDATALOAD PUSH1 0x0 NOT PUSH1 0x3 DUP5 SWAP1 SHL PUSH1 0xF8 AND SHR NOT AND SWAP1 SSTORE DUP6 DUP1 DUP1 PUSH2 0x7CF JUMP JUMPDEST SWAP1 SWAP3 PUSH1 0x20 PUSH1 0x1 DUP2 SWAP3 DUP7 DUP7 ADD CALLDATALOAD DUP2 SSTORE ADD SWAP5 ADD SWAP2 ADD PUSH2 0x7BA JUMP JUMPDEST DUP4 PUSH1 0x0 MSTORE PUSH1 0x20 PUSH1 0x0 KECCAK256 PUSH1 0x1F DUP4 ADD PUSH1 0x5 SHR DUP2 ADD PUSH1 0x20 DUP5 LT PUSH2 0x84B JUMPI JUMPDEST PUSH1 0x1F DUP4 ADD PUSH1 0x5 SHR DUP3 ADD DUP2 LT PUSH2 0x83F JUMPI POP POP PUSH2 0x420 JUMP JUMPDEST PUSH1 0x0 DUP2 SSTORE PUSH1 0x1 ADD PUSH2 0x829 JUMP JUMPDEST POP DUP1 PUSH2 0x829 JUMP JUMPDEST PUSH2 0x86F SWAP2 POP RETURNDATASIZE DUP1 PUSH1 0x0 DUP4 RETURNDATACOPY PUSH2 0x867 DUP2 DUP4 PUSH2 0x17FE JUMP JUMPDEST DUP2 ADD SWAP1 PUSH2 0x1CE1 JUMP JUMPDEST CODESIZE PUSH2 0x30F JUMP JUMPDEST DUP4 MLOAD RETURNDATASIZE PUSH1 0x0 DUP3 RETURNDATACOPY RETURNDATASIZE SWAP1 REVERT JUMPDEST SWAP1 SWAP2 POP PUSH1 0x20 DUP2 RETURNDATASIZE PUSH1 0x20 GT PUSH2 0x8AC JUMPI JUMPDEST DUP2 PUSH2 0x89C PUSH1 0x20 SWAP4 DUP4 PUSH2 0x17FE JUMP JUMPDEST DUP2 ADD SUB SLT PUSH2 0x1AA JUMPI MLOAD SWAP1 CODESIZE PUSH2 0x2C9 JUMP JUMPDEST RETURNDATASIZE SWAP2 POP PUSH2 0x88F JUMP JUMPDEST POP CALLVALUE PUSH2 0x1AA JUMPI PUSH1 0x0 CALLDATASIZE PUSH1 0x3 NOT ADD SLT PUSH2 0x1AA JUMPI PUSH1 0x20 SWAP1 PUSH1 0xA PUSH2 0x8D3 PUSH2 0x1A7E JUMP JUMPDEST ADD SLOAD SWAP1 MLOAD SWAP1 DUP2 MSTORE RETURN JUMPDEST POP CALLVALUE PUSH2 0x1AA JUMPI PUSH1 0x20 CALLDATASIZE PUSH1 0x3 NOT ADD SLT PUSH2 0x1AA JUMPI PUSH1 0x20 SWAP1 PUSH1 0x1 PUSH1 0x1 PUSH1 0xA0 SHL SUB PUSH2 0x901 PUSH2 0x17B6 JUMP JUMPDEST AND PUSH1 0x0 MSTORE PUSH1 0x3 DUP3 MSTORE PUSH1 0xFF DUP2 PUSH1 0x0 KECCAK256 SLOAD AND SWAP1 MLOAD SWAP1 ISZERO ISZERO DUP2 MSTORE RETURN JUMPDEST POP CALLVALUE PUSH2 0x1AA JUMPI PUSH1 0x0 CALLDATASIZE PUSH1 0x3 NOT ADD SLT PUSH2 0x1AA JUMPI PUSH1 0xFF PUSH1 0x8 SLOAD PUSH1 0xA0 SHR AND SWAP1 MLOAD PUSH1 0x2 DUP3 LT ISZERO PUSH2 0x947 JUMPI PUSH1 0x20 SWAP2 DUP2 MSTORE RETURN JUMPDEST PUSH4 0x4E487B71 PUSH1 0xE0 SHL PUSH1 0x0 MSTORE PUSH1 0x21 PUSH1 0x4 MSTORE PUSH1 0x24 PUSH1 0x0 REVERT JUMPDEST POP CALLVALUE PUSH2 0x1AA JUMPI PUSH1 0x0 CALLDATASIZE PUSH1 0x3 NOT ADD SLT PUSH2 0x1AA JUMPI PUSH1 0x20 SWAP1 PUSH2 0x97A PUSH2 0x1B4C JUMP JUMPDEST SWAP1 MLOAD SWAP1 DUP2 MSTORE RETURN JUMPDEST POP CALLVALUE PUSH2 0x1AA JUMPI PUSH1 0x60 CALLDATASIZE PUSH1 0x3 NOT ADD SLT PUSH2 0x1AA JUMPI PUSH2 0x99B PUSH2 0x17B6 JUMP JUMPDEST SWAP1 PUSH1 0x44 CALLDATALOAD PUSH1 0x24 CALLDATALOAD PUSH8 0xFFFFFFFFFFFFFFFF DUP3 GT PUSH2 0x1AA JUMPI PUSH2 0x9C0 PUSH1 0x4 SWAP3 CALLDATASIZE SWAP1 DUP5 ADD PUSH2 0x1A05 JUMP JUMPDEST POP POP PUSH1 0x1 PUSH1 0x1 PUSH1 0xA0 SHL SUB SWAP4 PUSH1 0xA0 DUP6 PUSH1 0x8 SLOAD AND DUP6 MLOAD SWAP5 DUP6 DUP1 SWAP3 PUSH4 0x61D1549D PUSH1 0xE1 SHL DUP3 MSTORE GAS STATICCALL SWAP3 DUP4 ISZERO PUSH2 0xC4E JUMPI PUSH1 0x0 SWAP4 PUSH2 0xC19 JUMPI JUMPDEST POP DUP4 MLOAD PUSH4 0xB9209E33 PUSH1 0xE0 SHL DUP2 MSTORE DUP6 DUP3 AND SWAP4 DUP5 PUSH1 0x4 DUP4 ADD MSTORE DUP2 PUSH1 0x24 DUP2 PUSH1 0x20 SWAP10 DUP11 SWAP5 AND GAS STATICCALL SWAP1 DUP2 ISZERO PUSH2 0xC0E JUMPI SWAP1 PUSH2 0xA30 SWAP2 PUSH1 0x0 SWAP2 PUSH2 0xBE1 JUMPI JUMPDEST POP PUSH2 0x1C7E JUMP JUMPDEST CALLER ISZERO PUSH2 0x1AA JUMPI DUP3 ISZERO PUSH2 0x1AA JUMPI DUP2 ISZERO PUSH2 0x1AA JUMPI CALLER PUSH1 0x0 MSTORE PUSH1 0x2 SWAP3 DUP4 DUP7 MSTORE DUP5 PUSH1 0x0 KECCAK256 SLOAD SWAP4 PUSH1 0x4 PUSH2 0xA5C PUSH2 0x1A7E JUMP JUMPDEST ADD SLOAD SWAP5 PUSH1 0xA PUSH2 0xA69 PUSH2 0x1A7E JUMP JUMPDEST ADD SLOAD PUSH2 0xA80 PUSH2 0xA78 DUP9 DUP5 PUSH2 0x1B1F JUMP JUMPDEST SWAP2 TIMESTAMP LT PUSH2 0x1EB4 JUMP JUMPDEST DUP6 GT PUSH2 0x1AA JUMPI PUSH2 0xA99 DUP7 PUSH2 0xA94 DUP2 DUP9 PUSH2 0x1DC0 JUMP JUMPDEST PUSH2 0x1EFF JUMP JUMPDEST PUSH2 0x1AA JUMPI PUSH32 0xDDF252AD1BE2C89B69C2B068FC378DAA952BA7F163C4A11628F55A4DF523B3EF SWAP6 DUP4 PUSH1 0x0 MSTORE DUP3 DUP10 MSTORE DUP8 PUSH1 0x0 KECCAK256 SLOAD SWAP1 DUP7 MUL DUP1 SWAP3 CALLER PUSH1 0x0 MSTORE SUB DUP9 PUSH1 0x0 KECCAK256 SSTORE DUP4 PUSH1 0x0 MSTORE ADD DUP7 PUSH1 0x0 KECCAK256 SSTORE PUSH1 0x3 DUP8 MSTORE PUSH1 0xFF DUP7 PUSH1 0x0 KECCAK256 SLOAD AND ISZERO PUSH1 0x0 EQ PUSH2 0xB99 JUMPI DUP2 PUSH1 0x0 MSTORE PUSH1 0x3 DUP8 MSTORE DUP6 PUSH1 0x0 KECCAK256 PUSH1 0x1 PUSH1 0xFF NOT DUP3 SLOAD AND OR SWAP1 SSTORE CALLER PUSH1 0x0 MSTORE DUP1 DUP8 MSTORE DUP6 PUSH1 0x0 KECCAK256 SLOAD PUSH1 0x4 DUP9 MSTORE PUSH1 0x1 PUSH2 0xB2E DUP9 PUSH1 0x0 KECCAK256 SLOAD PUSH2 0x1DD3 JUMP JUMPDEST POP ADD SSTORE DUP2 PUSH1 0x0 MSTORE DUP7 MSTORE PUSH2 0xB57 DUP6 PUSH1 0x0 KECCAK256 SLOAD DUP7 MLOAD SWAP1 PUSH2 0xB4B DUP3 PUSH2 0x17E2 JUMP JUMPDEST DUP4 DUP3 MSTORE DUP9 DUP3 ADD MSTORE PUSH2 0x1E0D JUMP JUMPDEST PUSH1 0x0 NOT PUSH1 0x9 SLOAD ADD SWAP1 PUSH1 0x0 MSTORE PUSH1 0x4 DUP7 MSTORE DUP5 PUSH1 0x0 KECCAK256 SSTORE JUMPDEST DUP4 MLOAD CALLER DUP2 MSTORE PUSH1 0x1 PUSH1 0x1 PUSH1 0xA0 SHL SUB SWAP1 SWAP2 AND PUSH1 0x20 DUP3 ADD MSTORE PUSH1 0x40 DUP2 ADD SWAP2 SWAP1 SWAP2 MSTORE DUP1 PUSH1 0x60 DUP2 ADD JUMPDEST SUB SWAP1 LOG1 MLOAD PUSH1 0x1 DUP2 MSTORE RETURN JUMPDEST SWAP1 CALLER PUSH1 0x0 MSTORE DUP2 DUP8 MSTORE DUP6 PUSH1 0x0 KECCAK256 SLOAD PUSH1 0x4 DUP9 MSTORE PUSH1 0x1 PUSH2 0xBB9 DUP9 PUSH1 0x0 KECCAK256 SLOAD PUSH2 0x1DD3 JUMP JUMPDEST POP ADD SSTORE PUSH1 0x0 MSTORE DUP6 MSTORE DUP4 PUSH1 0x0 KECCAK256 SLOAD PUSH1 0x4 DUP7 MSTORE PUSH1 0x1 PUSH2 0xBD9 DUP7 PUSH1 0x0 KECCAK256 SLOAD PUSH2 0x1DD3 JUMP JUMPDEST POP ADD SSTORE PUSH2 0xB6C JUMP JUMPDEST PUSH2 0xC01 SWAP2 POP DUP8 RETURNDATASIZE DUP10 GT PUSH2 0xC07 JUMPI JUMPDEST PUSH2 0xBF9 DUP2 DUP4 PUSH2 0x17FE JUMP JUMPDEST DUP2 ADD SWAP1 PUSH2 0x1C66 JUMP JUMPDEST CODESIZE PUSH2 0xA2A JUMP JUMPDEST POP RETURNDATASIZE PUSH2 0xBEF JUMP JUMPDEST DUP6 MLOAD RETURNDATASIZE PUSH1 0x0 DUP3 RETURNDATACOPY RETURNDATASIZE SWAP1 REVERT JUMPDEST PUSH2 0xC3B SWAP2 SWAP4 POP PUSH1 0xA0 RETURNDATASIZE DUP2 GT PUSH2 0xC47 JUMPI JUMPDEST PUSH2 0xC33 DUP2 DUP4 PUSH2 0x17FE JUMP JUMPDEST DUP2 ADD SWAP1 PUSH2 0x1C1F JUMP JUMPDEST POP POP SWAP2 POP POP SWAP2 CODESIZE PUSH2 0x9F3 JUMP JUMPDEST POP RETURNDATASIZE PUSH2 0xC29 JUMP JUMPDEST DUP5 MLOAD RETURNDATASIZE PUSH1 0x0 DUP3 RETURNDATACOPY RETURNDATASIZE SWAP1 REVERT JUMPDEST POP CALLVALUE PUSH2 0x1AA JUMPI PUSH1 0x0 CALLDATASIZE PUSH1 0x3 NOT ADD SLT PUSH2 0x1AA JUMPI PUSH1 0x8 SLOAD SWAP1 PUSH1 0x1 PUSH1 0x1 PUSH1 0xA0 SHL SUB SWAP2 DUP3 DUP2 AND SWAP2 PUSH2 0xC87 DUP4 CALLER EQ PUSH2 0x1A33 JUMP JUMPDEST PUSH1 0xFF DUP3 PUSH1 0xA0 SHR AND SWAP2 PUSH1 0x2 SWAP3 DUP4 DUP2 LT ISZERO PUSH2 0x947 JUMPI PUSH2 0x1AA JUMPI PUSH1 0xA PUSH2 0xCA8 PUSH2 0x1A7E JUMP JUMPDEST ADD SLOAD TIMESTAMP GT ISZERO PUSH2 0x1AA JUMPI PUSH1 0xFF PUSH1 0xA0 SHL NOT PUSH21 0x10000000000000000000000000000000000000000 SWAP2 AND OR PUSH1 0x8 SSTORE DUP1 MLOAD SWAP2 PUSH4 0x646BFB17 PUSH1 0xE1 SHL DUP4 MSTORE PUSH1 0x0 DUP4 PUSH1 0x20 SWAP6 DUP7 PUSH1 0x4 DUP4 ADD MSTORE DUP2 DUP1 PUSH2 0xCFA PUSH1 0x24 DUP3 ADD PUSH2 0x18CB JUMP JUMPDEST SUB SWAP2 GAS STATICCALL SWAP3 DUP4 ISZERO PUSH2 0xD93 JUMPI PUSH1 0x0 SWAP4 PUSH2 0xD76 JUMPI JUMPDEST POP PUSH1 0x0 JUMPDEST DUP4 MLOAD DUP2 LT ISZERO PUSH2 0xD74 JUMPI DUP1 DUP7 PUSH2 0xD29 PUSH2 0xD40 SWAP4 DUP8 PUSH2 0x1D96 JUMP JUMPDEST MLOAD MLOAD AND PUSH1 0x0 MSTORE DUP3 DUP7 MSTORE DUP4 PUSH1 0x0 KECCAK256 SLOAD PUSH2 0xD45 JUMPI PUSH2 0x1D87 JUMP JUMPDEST PUSH2 0xD11 JUMP JUMPDEST DUP7 PUSH2 0xD50 DUP3 DUP8 PUSH2 0x1D96 JUMP JUMPDEST MLOAD MLOAD AND PUSH1 0x0 MSTORE DUP3 DUP7 MSTORE PUSH1 0x0 DUP5 DUP2 KECCAK256 SSTORE PUSH1 0x0 PUSH1 0x1 PUSH2 0xD6C DUP4 PUSH2 0x1DD3 JUMP JUMPDEST POP ADD SSTORE PUSH2 0x1D87 JUMP JUMPDEST STOP JUMPDEST PUSH2 0xD8C SWAP2 SWAP4 POP RETURNDATASIZE DUP1 PUSH1 0x0 DUP4 RETURNDATACOPY PUSH2 0x867 DUP2 DUP4 PUSH2 0x17FE JUMP JUMPDEST SWAP2 CODESIZE PUSH2 0xD0D JUMP JUMPDEST DUP3 MLOAD RETURNDATASIZE PUSH1 0x0 DUP3 RETURNDATACOPY RETURNDATASIZE SWAP1 REVERT JUMPDEST POP CALLVALUE PUSH2 0x1AA JUMPI PUSH1 0x80 CALLDATASIZE PUSH1 0x3 NOT ADD SLT PUSH2 0x1AA JUMPI PUSH2 0xDB8 PUSH2 0x17B6 JUMP JUMPDEST SWAP1 PUSH2 0xDC1 PUSH2 0x17CC JUMP JUMPDEST SWAP2 PUSH1 0x44 CALLDATALOAD SWAP3 PUSH1 0x64 CALLDATALOAD SWAP2 PUSH8 0xFFFFFFFFFFFFFFFF DUP4 GT PUSH2 0x1AA JUMPI PUSH2 0xDE8 PUSH1 0x4 SWAP4 CALLDATASIZE SWAP1 DUP6 ADD PUSH2 0x1A05 JUMP JUMPDEST POP POP PUSH1 0x1 PUSH1 0x1 PUSH1 0xA0 SHL SUB SWAP5 PUSH1 0xA0 DUP7 PUSH1 0x8 SLOAD AND DUP7 MLOAD SWAP6 DUP7 DUP1 SWAP3 PUSH4 0x61D1549D PUSH1 0xE1 SHL DUP3 MSTORE GAS STATICCALL SWAP4 DUP5 ISZERO PUSH2 0xC0E JUMPI PUSH1 0x0 SWAP5 PUSH2 0x1059 JUMPI JUMPDEST POP DUP6 DUP6 MLOAD PUSH4 0xB9209E33 PUSH1 0xE0 SHL DUP2 MSTORE DUP2 DUP6 AND SWAP6 DUP7 PUSH1 0x4 DUP4 ADD MSTORE DUP2 PUSH1 0x24 DUP2 PUSH1 0x20 SWAP12 DUP13 SWAP5 AND GAS STATICCALL SWAP1 DUP2 ISZERO PUSH2 0x104E JUMPI SWAP1 PUSH2 0xE58 SWAP2 PUSH1 0x0 SWAP2 PUSH2 0x1037 JUMPI POP PUSH2 0x1C7E JUMP JUMPDEST DUP3 AND SWAP1 DUP2 PUSH1 0x0 MSTORE PUSH1 0x5 DUP8 MSTORE DUP6 PUSH1 0x0 KECCAK256 CALLER PUSH1 0x0 MSTORE DUP8 MSTORE DUP6 PUSH1 0x0 KECCAK256 SLOAD DUP1 DUP3 GT PUSH2 0x1AA JUMPI DUP2 SWAP1 DUP4 PUSH1 0x0 MSTORE PUSH1 0x5 DUP10 MSTORE DUP8 PUSH1 0x0 KECCAK256 CALLER PUSH1 0x0 MSTORE DUP10 MSTORE SUB DUP7 PUSH1 0x0 KECCAK256 SSTORE DUP2 ISZERO PUSH2 0x1AA JUMPI DUP5 ISZERO PUSH2 0x1AA JUMPI DUP1 ISZERO PUSH2 0x1AA JUMPI DUP2 PUSH1 0x0 MSTORE PUSH1 0x2 SWAP5 DUP6 DUP9 MSTORE DUP7 PUSH1 0x0 KECCAK256 SLOAD SWAP6 PUSH1 0x4 PUSH2 0xEBF PUSH2 0x1A7E JUMP JUMPDEST ADD SLOAD SWAP4 PUSH1 0xA PUSH2 0xECC PUSH2 0x1A7E JUMP JUMPDEST ADD SLOAD PUSH2 0xEDB PUSH2 0xA78 DUP8 DUP12 PUSH2 0x1B1F JUMP JUMPDEST DUP5 GT PUSH2 0x1AA JUMPI PUSH2 0xEEF DUP6 PUSH2 0xA94 DUP2 DUP8 PUSH2 0x1DC0 JUMP JUMPDEST PUSH2 0x1AA JUMPI PUSH32 0xDDF252AD1BE2C89B69C2B068FC378DAA952BA7F163C4A11628F55A4DF523B3EF SWAP8 PUSH2 0xB8F SWAP6 DUP5 PUSH1 0x0 MSTORE DUP4 DUP13 MSTORE DUP11 PUSH1 0x0 KECCAK256 SLOAD SWAP1 DUP7 MUL DUP1 SWAP3 DUP5 PUSH1 0x0 MSTORE SUB DUP12 PUSH1 0x0 KECCAK256 SSTORE DUP5 PUSH1 0x0 MSTORE ADD DUP10 PUSH1 0x0 KECCAK256 SSTORE PUSH1 0x3 DUP11 MSTORE PUSH1 0xFF DUP10 PUSH1 0x0 KECCAK256 SLOAD AND ISZERO PUSH1 0x0 EQ PUSH2 0xFEE JUMPI DUP3 PUSH1 0x0 MSTORE PUSH1 0x3 DUP11 MSTORE DUP9 PUSH1 0x0 KECCAK256 PUSH1 0x1 PUSH1 0xFF NOT DUP3 SLOAD AND OR SWAP1 SSTORE PUSH1 0x0 MSTORE DUP1 DUP10 MSTORE DUP8 PUSH1 0x0 KECCAK256 SLOAD PUSH1 0x4 DUP11 MSTORE PUSH1 0x1 PUSH2 0xF87 DUP11 PUSH1 0x0 KECCAK256 SLOAD PUSH2 0x1DD3 JUMP JUMPDEST POP ADD SSTORE DUP2 PUSH1 0x0 MSTORE DUP9 MSTORE PUSH2 0xFB0 DUP8 PUSH1 0x0 KECCAK256 SLOAD DUP9 MLOAD SWAP1 PUSH2 0xFA4 DUP3 PUSH2 0x17E2 JUMP JUMPDEST DUP4 DUP3 MSTORE DUP11 DUP3 ADD MSTORE PUSH2 0x1E0D JUMP JUMPDEST PUSH1 0x0 NOT PUSH1 0x9 SLOAD ADD SWAP1 PUSH1 0x0 MSTORE PUSH1 0x4 DUP9 MSTORE DUP7 PUSH1 0x0 KECCAK256 SSTORE JUMPDEST DUP6 MLOAD SWAP4 DUP5 SWAP4 DUP5 PUSH1 0x40 SWAP2 SWAP5 SWAP4 SWAP3 SWAP5 PUSH1 0x60 DUP3 ADD SWAP6 PUSH1 0x1 PUSH1 0x1 PUSH1 0xA0 SHL SUB DUP1 SWAP3 AND DUP4 MSTORE AND PUSH1 0x20 DUP3 ADD MSTORE ADD MSTORE JUMP JUMPDEST PUSH1 0x0 SWAP3 SWAP2 SWAP3 MSTORE DUP2 DUP10 MSTORE DUP8 PUSH1 0x0 KECCAK256 SLOAD PUSH1 0x4 DUP11 MSTORE PUSH1 0x1 PUSH2 0x100F DUP11 PUSH1 0x0 KECCAK256 SLOAD PUSH2 0x1DD3 JUMP JUMPDEST POP ADD SSTORE PUSH1 0x0 MSTORE DUP8 MSTORE DUP6 PUSH1 0x0 KECCAK256 SLOAD PUSH1 0x4 DUP9 MSTORE PUSH1 0x1 PUSH2 0x102F DUP9 PUSH1 0x0 KECCAK256 SLOAD PUSH2 0x1DD3 JUMP JUMPDEST POP ADD SSTORE PUSH2 0xFC5 JUMP JUMPDEST PUSH2 0xC01 SWAP2 POP DUP10 RETURNDATASIZE DUP12 GT PUSH2 0xC07 JUMPI PUSH2 0xBF9 DUP2 DUP4 PUSH2 0x17FE JUMP JUMPDEST DUP8 MLOAD RETURNDATASIZE PUSH1 0x0 DUP3 RETURNDATACOPY RETURNDATASIZE SWAP1 REVERT JUMPDEST PUSH2 0x1072 SWAP2 SWAP5 POP PUSH1 0xA0 RETURNDATASIZE DUP2 GT PUSH2 0xC47 JUMPI PUSH2 0xC33 DUP2 DUP4 PUSH2 0x17FE JUMP JUMPDEST POP POP SWAP2 POP POP SWAP3 CODESIZE PUSH2 0xE1B JUMP JUMPDEST POP CALLVALUE PUSH2 0x1AA JUMPI DUP1 PUSH1 0x3 NOT CALLDATASIZE ADD SLT PUSH2 0x1AA JUMPI PUSH2 0x1097 PUSH2 0x17B6 JUMP JUMPDEST PUSH1 0x24 CALLDATALOAD SWAP1 ORIGIN ISZERO PUSH2 0x1AA JUMPI PUSH1 0x1 PUSH1 0x1 PUSH1 0xA0 SHL SUB DUP2 AND DUP1 ISZERO PUSH2 0x1AA JUMPI DUP3 ISZERO PUSH2 0x1AA JUMPI ORIGIN PUSH1 0x0 MSTORE PUSH1 0x5 PUSH1 0x20 MSTORE DUP4 PUSH1 0x0 KECCAK256 DUP2 PUSH1 0x0 MSTORE PUSH1 0x20 MSTORE DUP4 PUSH1 0x0 KECCAK256 SLOAD SWAP4 PUSH1 0x4 PUSH2 0x10DB PUSH2 0x1A7E JUMP JUMPDEST ADD SLOAD PUSH1 0xA PUSH2 0x10E7 PUSH2 0x1A7E JUMP JUMPDEST ADD SLOAD TIMESTAMP LT ISZERO PUSH2 0x1AA JUMPI DUP6 DUP6 GT PUSH2 0x1AA JUMPI DUP1 PUSH2 0xA94 PUSH2 0x1105 SWAP3 DUP8 PUSH2 0x1DC0 JUMP JUMPDEST PUSH2 0x1AA JUMPI DUP4 DUP6 SUB SWAP5 DUP6 GT PUSH2 0x1171 JUMPI ORIGIN PUSH1 0x0 DUP2 DUP2 MSTORE PUSH1 0x5 PUSH1 0x20 SWAP1 DUP2 MSTORE DUP4 DUP3 KECCAK256 SWAP5 DUP3 MSTORE SWAP4 DUP5 MSTORE DUP3 SWAP1 KECCAK256 SWAP6 SWAP1 SWAP6 SSTORE MLOAD SWAP4 DUP5 MSTORE PUSH1 0x1 PUSH1 0x1 PUSH1 0xA0 SHL SUB SWAP2 SWAP1 SWAP2 AND SWAP1 DUP4 ADD MSTORE PUSH1 0x40 DUP3 ADD MSTORE PUSH32 0x8C5BE1E5EBEC7D5BD14F71427D1E84F3DD0314C0F7B2291E5B200AC8C7C3B925 SWAP1 PUSH1 0x60 SWAP1 LOG1 STOP JUMPDEST PUSH4 0x4E487B71 PUSH1 0xE0 SHL PUSH1 0x0 MSTORE PUSH1 0x11 PUSH1 0x4 MSTORE PUSH1 0x24 PUSH1 0x0 REVERT JUMPDEST POP CALLVALUE PUSH2 0x1AA JUMPI PUSH1 0x0 CALLDATASIZE PUSH1 0x3 NOT ADD SLT PUSH2 0x1AA JUMPI PUSH1 0x20 SWAP1 PUSH1 0x1 PUSH1 0x1 PUSH1 0xA0 SHL SUB PUSH1 0x8 SLOAD AND SWAP1 MLOAD SWAP1 DUP2 MSTORE RETURN JUMPDEST POP CALLVALUE PUSH2 0x1AA JUMPI PUSH1 0x0 CALLDATASIZE PUSH1 0x3 NOT ADD SLT PUSH2 0x1AA JUMPI PUSH2 0x11E1 PUSH2 0x11FA SWAP2 PUSH2 0x11E8 PUSH1 0x2 PUSH2 0x11D5 PUSH2 0x1A7E JUMP JUMPDEST ADD DUP3 MLOAD SWAP4 DUP5 DUP1 SWAP3 PUSH2 0x196F JUMP JUMPDEST SUB DUP4 PUSH2 0x17FE JUMP JUMPDEST MLOAD SWAP2 DUP3 SWAP2 PUSH1 0x20 DUP4 MSTORE PUSH1 0x20 DUP4 ADD SWAP1 PUSH2 0x1791 JUMP JUMPDEST SUB SWAP1 RETURN JUMPDEST POP CALLVALUE PUSH2 0x1AA JUMPI PUSH1 0x0 CALLDATASIZE PUSH1 0x3 NOT ADD SLT PUSH2 0x1AA JUMPI PUSH1 0x9 SLOAD SWAP1 PUSH2 0x121D DUP3 PUSH2 0x1CC9 JUMP JUMPDEST SWAP2 PUSH2 0x122A DUP3 MLOAD SWAP4 DUP5 PUSH2 0x17FE JUMP JUMPDEST DUP1 DUP4 MSTORE PUSH1 0x20 SWAP2 DUP3 DUP5 ADD SWAP2 DUP3 PUSH1 0x9 PUSH1 0x0 MSTORE PUSH32 0x6E1540171B6C0C960B71A7020D9F60077F6AF931A8BBF590DA0223DACF75C7AF PUSH1 0x0 SWAP2 JUMPDEST DUP4 DUP4 LT PUSH2 0x12BD JUMPI POP POP POP POP DUP1 MLOAD SWAP4 DUP4 DUP6 SWAP5 DUP6 ADD SWAP2 DUP2 DUP7 MSTORE MLOAD DUP1 SWAP3 MSTORE DUP3 DUP6 ADD SWAP4 SWAP3 PUSH1 0x0 SWAP1 JUMPDEST DUP4 DUP3 LT PUSH2 0x1290 JUMPI DUP7 DUP7 SUB DUP8 RETURN JUMPDEST DUP5 MLOAD DUP1 MLOAD PUSH1 0x1 PUSH1 0x1 PUSH1 0xA0 SHL SUB AND DUP8 MSTORE DUP4 ADD MLOAD DUP7 DUP5 ADD MSTORE DUP8 SWAP7 POP SWAP5 DUP6 ADD SWAP5 SWAP4 DUP3 ADD SWAP4 PUSH1 0x1 SWAP2 SWAP1 SWAP2 ADD SWAP1 PUSH2 0x1283 JUMP JUMPDEST PUSH1 0x2 DUP8 PUSH1 0x1 SWAP3 DUP8 SWAP11 SWAP9 SWAP10 SWAP8 MLOAD PUSH2 0x12D2 DUP2 PUSH2 0x17E2 JUMP JUMPDEST PUSH1 0x1 PUSH1 0x1 PUSH1 0xA0 SHL SUB DUP7 SLOAD AND DUP2 MSTORE DUP5 DUP7 ADD SLOAD DUP4 DUP3 ADD MSTORE DUP2 MSTORE ADD SWAP3 ADD SWAP3 ADD SWAP2 SWAP1 SWAP7 SWAP4 SWAP6 SWAP5 SWAP7 PUSH2 0x125F JUMP JUMPDEST POP CALLVALUE PUSH2 0x1AA JUMPI PUSH1 0x0 CALLDATASIZE PUSH1 0x3 NOT ADD SLT PUSH2 0x1AA JUMPI PUSH1 0x20 SWAP1 PUSH1 0x9 PUSH2 0x8D3 PUSH2 0x1A7E JUMP JUMPDEST POP CALLVALUE PUSH2 0x1AA JUMPI PUSH1 0x0 CALLDATASIZE PUSH1 0x3 NOT ADD SLT PUSH2 0x1AA JUMPI PUSH1 0x20 SWAP1 PUSH1 0x4 PUSH2 0x8D3 PUSH2 0x1A7E JUMP JUMPDEST POP CALLVALUE PUSH2 0x1AA JUMPI PUSH1 0x0 CALLDATASIZE PUSH1 0x3 NOT ADD SLT PUSH2 0x1AA JUMPI PUSH2 0x11E1 PUSH2 0x11FA SWAP2 PUSH2 0x11E8 PUSH2 0x135C PUSH2 0x1A7E JUMP JUMPDEST DUP3 MLOAD SWAP4 DUP5 DUP1 SWAP3 PUSH2 0x196F JUMP JUMPDEST POP CALLVALUE PUSH2 0x1AA JUMPI PUSH1 0x0 CALLDATASIZE PUSH1 0x3 NOT ADD SLT PUSH2 0x1AA JUMPI DUP1 MLOAD PUSH2 0x11FA SWAP2 PUSH2 0x11E8 DUP3 PUSH2 0x11E1 DUP2 PUSH2 0x18CB JUMP JUMPDEST POP CALLVALUE PUSH2 0x1AA JUMPI PUSH1 0x0 CALLDATASIZE PUSH1 0x3 NOT ADD SLT PUSH2 0x1AA JUMPI PUSH1 0x20 SWAP1 PUSH1 0x5 PUSH2 0x8D3 PUSH2 0x1A7E JUMP JUMPDEST POP CALLVALUE PUSH2 0x1AA JUMPI PUSH1 0x20 CALLDATASIZE PUSH1 0x3 NOT ADD SLT PUSH2 0x1AA JUMPI PUSH1 0x20 SWAP1 PUSH1 0x1 PUSH1 0x1 PUSH1 0xA0 SHL SUB PUSH2 0x13D0 PUSH2 0x17B6 JUMP JUMPDEST AND PUSH1 0x0 MSTORE PUSH1 0x2 DUP3 MSTORE PUSH2 0x97A DUP2 PUSH1 0x0 KECCAK256 SLOAD PUSH1 0x4 PUSH2 0x13EA PUSH2 0x1A7E JUMP JUMPDEST ADD SLOAD SWAP1 PUSH2 0x1B1F JUMP JUMPDEST POP CALLVALUE PUSH2 0x1AA JUMPI PUSH1 0x20 CALLDATASIZE PUSH1 0x3 NOT ADD SLT PUSH2 0x1AA JUMPI PUSH1 0x20 SWAP1 PUSH1 0x1 PUSH1 0x1 PUSH1 0xA0 SHL SUB PUSH2 0x1417 PUSH2 0x17B6 JUMP JUMPDEST AND PUSH1 0x0 MSTORE PUSH1 0x2 DUP3 MSTORE DUP1 PUSH1 0x0 KECCAK256 SLOAD SWAP1 MLOAD SWAP1 DUP2 MSTORE RETURN JUMPDEST POP CALLVALUE PUSH2 0x1AA JUMPI PUSH1 0x0 CALLDATASIZE PUSH1 0x3 NOT ADD SLT PUSH2 0x1AA JUMPI PUSH1 0x20 SWAP1 PUSH1 0x8 PUSH2 0x8D3 PUSH2 0x1A7E JUMP JUMPDEST POP CALLVALUE PUSH2 0x1AA JUMPI PUSH2 0x1517 PUSH2 0x1473 PUSH1 0x20 PUSH2 0x1461 CALLDATASIZE PUSH2 0x1820 JUMP JUMPDEST DUP2 DUP6 MLOAD SWAP4 DUP3 DUP6 DUP1 SWAP5 MLOAD SWAP4 DUP5 SWAP3 ADD PUSH2 0x176E JUMP JUMPDEST DUP2 ADD PUSH1 0x1 DUP2 MSTORE SUB ADD SWAP1 KECCAK256 SWAP2 DUP1 MLOAD PUSH2 0x1495 DUP2 PUSH2 0x148E DUP2 DUP8 PUSH2 0x196F JUMP JUMPDEST SUB DUP3 PUSH2 0x17FE JUMP JUMPDEST DUP2 MLOAD SWAP4 PUSH2 0x14B0 DUP6 PUSH2 0x14A9 DUP2 PUSH1 0x1 DUP6 ADD PUSH2 0x196F JUMP JUMPDEST SUB DUP7 PUSH2 0x17FE JUMP JUMPDEST DUP3 MLOAD PUSH2 0x14C3 DUP2 PUSH2 0x148E DUP2 PUSH1 0x2 DUP7 ADD PUSH2 0x196F JUMP JUMPDEST PUSH1 0x1 PUSH1 0x1 PUSH1 0xA0 SHL SUB PUSH1 0x3 DUP4 ADD SLOAD AND SWAP4 PUSH1 0x4 DUP4 ADD SLOAD PUSH1 0x5 DUP5 ADD SLOAD PUSH1 0x6 DUP6 ADD SLOAD SWAP2 PUSH2 0x1532 PUSH1 0xFF PUSH1 0x7 DUP9 ADD SLOAD AND SWAP5 PUSH1 0x8 DUP9 ADD SLOAD SWAP7 PUSH2 0x1525 PUSH1 0xA PUSH1 0x9 DUP12 ADD SLOAD SWAP11 ADD SLOAD SWAP11 DUP4 MLOAD SWAP15 DUP16 SWAP15 DUP16 SWAP3 PUSH2 0x160 DUP1 DUP6 MSTORE DUP5 ADD SWAP1 PUSH2 0x1791 JUMP JUMPDEST SWAP2 PUSH1 0x20 DUP2 DUP5 SUB SWAP2 ADD MSTORE PUSH2 0x1791 JUMP JUMPDEST SWAP2 DUP13 DUP4 SUB SWAP1 DUP14 ADD MSTORE PUSH2 0x1791 JUMP JUMPDEST SWAP8 PUSH1 0x60 DUP11 ADD MSTORE PUSH1 0x80 DUP10 ADD MSTORE PUSH1 0xA0 DUP9 ADD MSTORE PUSH1 0xC0 DUP8 ADD MSTORE PUSH1 0xE0 DUP7 ADD MSTORE PUSH2 0x100 DUP6 ADD MSTORE PUSH2 0x120 DUP5 ADD MSTORE PUSH2 0x140 DUP4 ADD MSTORE SUB SWAP1 RETURN JUMPDEST POP CALLVALUE PUSH2 0x1AA JUMPI PUSH2 0x1588 PUSH1 0x20 PUSH2 0x1576 CALLDATASIZE PUSH2 0x1820 JUMP JUMPDEST DUP2 DUP5 MLOAD SWAP4 DUP3 DUP6 DUP1 SWAP5 MLOAD SWAP4 DUP5 SWAP3 ADD PUSH2 0x176E JUMP JUMPDEST DUP2 ADD PUSH1 0x0 DUP2 MSTORE SUB ADD SWAP1 KECCAK256 PUSH2 0x11FA PUSH1 0x1 PUSH2 0x15B5 PUSH1 0x1 PUSH1 0x1 PUSH1 0xA0 SHL SUB DUP5 SLOAD AND SWAP4 PUSH2 0x148E DUP7 MLOAD DUP1 SWAP5 DUP2 SWAP4 ADD PUSH2 0x196F JUMP JUMPDEST DUP4 MLOAD SWAP4 DUP5 SWAP4 DUP5 MSTORE DUP1 PUSH1 0x20 DUP6 ADD MSTORE DUP4 ADD SWAP1 PUSH2 0x1791 JUMP JUMPDEST POP CALLVALUE PUSH2 0x1AA JUMPI PUSH1 0x0 CALLDATASIZE PUSH1 0x3 NOT ADD SLT PUSH2 0x1AA JUMPI PUSH1 0x20 SWAP1 PUSH1 0x1 PUSH1 0x1 PUSH1 0xA0 SHL SUB PUSH1 0x7 SLOAD AND SWAP1 MLOAD SWAP1 DUP2 MSTORE RETURN JUMPDEST POP CALLVALUE PUSH2 0x1AA JUMPI PUSH1 0x0 CALLDATASIZE PUSH1 0x3 NOT ADD SLT PUSH2 0x1AA JUMPI PUSH1 0x20 SWAP1 PUSH2 0x97A PUSH1 0x5 PUSH2 0x1614 PUSH2 0x1A7E JUMP JUMPDEST ADD SLOAD PUSH1 0x4 PUSH2 0x13EA PUSH2 0x1A7E JUMP JUMPDEST POP CALLVALUE PUSH2 0x1AA JUMPI DUP1 PUSH1 0x3 NOT CALLDATASIZE ADD SLT PUSH2 0x1AA JUMPI PUSH2 0x1639 PUSH2 0x17B6 JUMP JUMPDEST SWAP1 PUSH1 0x24 CALLDATALOAD ORIGIN ISZERO PUSH2 0x1AA JUMPI PUSH1 0x1 PUSH1 0x1 PUSH1 0xA0 SHL SUB DUP4 AND SWAP1 DUP2 ISZERO PUSH2 0x1AA JUMPI DUP1 ISZERO PUSH2 0x1AA JUMPI ORIGIN PUSH1 0x0 MSTORE PUSH1 0x20 SWAP4 PUSH1 0x2 DUP6 MSTORE DUP4 PUSH1 0x0 KECCAK256 SLOAD SWAP3 PUSH1 0x5 DUP7 MSTORE DUP5 PUSH1 0x0 KECCAK256 DUP2 PUSH1 0x0 MSTORE DUP7 MSTORE DUP5 PUSH1 0x0 KECCAK256 SLOAD SWAP4 PUSH1 0x4 PUSH2 0x1689 PUSH2 0x1A7E JUMP JUMPDEST ADD SLOAD SWAP1 PUSH2 0x16A5 PUSH2 0xA78 DUP4 PUSH1 0xA PUSH2 0x169D PUSH2 0x1A7E JUMP JUMPDEST ADD SLOAD SWAP4 PUSH2 0x1B1F JUMP JUMPDEST DUP5 GT PUSH2 0x1AA JUMPI DUP1 PUSH2 0xA94 PUSH2 0x16B9 SWAP3 DUP7 PUSH2 0x1DC0 JUMP JUMPDEST PUSH2 0x1AA JUMPI PUSH2 0x16E8 DUP4 PUSH32 0x8C5BE1E5EBEC7D5BD14F71427D1E84F3DD0314C0F7B2291E5B200AC8C7C3B925 SWAP6 PUSH2 0x1B3F JUMP JUMPDEST ORIGIN PUSH1 0x0 DUP2 DUP2 MSTORE PUSH1 0x5 DUP10 MSTORE DUP8 DUP2 KECCAK256 SWAP4 DUP2 MSTORE SWAP3 DUP9 MSTORE SWAP2 DUP7 SWAP1 KECCAK256 SSTORE DUP5 MLOAD SWAP1 DUP2 MSTORE PUSH1 0x1 PUSH1 0x1 PUSH1 0xA0 SHL SUB SWAP1 SWAP2 AND PUSH1 0x20 DUP3 ADD MSTORE PUSH1 0x40 DUP2 ADD SWAP2 SWAP1 SWAP2 MSTORE DUP1 PUSH1 0x60 DUP2 ADD PUSH2 0xB8F JUMP JUMPDEST POP CALLVALUE PUSH2 0x1AA JUMPI PUSH1 0x0 CALLDATASIZE PUSH1 0x3 NOT ADD SLT PUSH2 0x1AA JUMPI PUSH2 0x11E1 PUSH2 0x11FA SWAP2 PUSH2 0x11E8 PUSH1 0x1 PUSH2 0x11D5 PUSH2 0x1A7E JUMP JUMPDEST POP CALLVALUE PUSH2 0x1AA JUMPI PUSH1 0x0 CALLDATASIZE PUSH1 0x3 NOT ADD SLT PUSH2 0x1AA JUMPI PUSH1 0x20 SWAP1 PUSH1 0xFF PUSH1 0x7 PUSH2 0x1D6 PUSH2 0x1A7E JUMP JUMPDEST PUSH1 0x0 JUMPDEST DUP4 DUP2 LT PUSH2 0x1781 JUMPI POP POP PUSH1 0x0 SWAP2 ADD MSTORE JUMP JUMPDEST DUP2 DUP2 ADD MLOAD DUP4 DUP3 ADD MSTORE PUSH1 0x20 ADD PUSH2 0x1771 JUMP JUMPDEST SWAP1 PUSH1 0x20 SWAP2 PUSH2 0x17AA DUP2 MLOAD DUP1 SWAP3 DUP2 DUP6 MSTORE DUP6 DUP1 DUP7 ADD SWAP2 ADD PUSH2 0x176E JUMP JUMPDEST PUSH1 0x1F ADD PUSH1 0x1F NOT AND ADD ADD SWAP1 JUMP JUMPDEST PUSH1 0x4 CALLDATALOAD SWAP1 PUSH1 0x1 PUSH1 0x1 PUSH1 0xA0 SHL SUB DUP3 AND DUP3 SUB PUSH2 0x1AA JUMPI JUMP JUMPDEST PUSH1 0x24 CALLDATALOAD SWAP1 PUSH1 0x1 PUSH1 0x1 PUSH1 0xA0 SHL SUB DUP3 AND DUP3 SUB PUSH2 0x1AA JUMPI JUMP JUMPDEST PUSH1 0x40 DUP2 ADD SWAP1 DUP2 LT PUSH8 0xFFFFFFFFFFFFFFFF DUP3 GT OR PUSH2 0x6C7 JUMPI PUSH1 0x40 MSTORE JUMP JUMPDEST SWAP1 PUSH1 0x1F DUP1 NOT SWAP2 ADD AND DUP2 ADD SWAP1 DUP2 LT PUSH8 0xFFFFFFFFFFFFFFFF DUP3 GT OR PUSH2 0x6C7 JUMPI PUSH1 0x40 MSTORE JUMP JUMPDEST PUSH1 0x20 PUSH1 0x3 NOT DUP3 ADD SLT PUSH2 0x1AA JUMPI PUSH8 0xFFFFFFFFFFFFFFFF PUSH1 0x4 CALLDATALOAD DUP2 DUP2 GT PUSH2 0x1AA JUMPI DUP3 PUSH1 0x23 DUP3 ADD SLT ISZERO PUSH2 0x1AA JUMPI DUP1 PUSH1 0x4 ADD CALLDATALOAD SWAP2 DUP3 GT PUSH2 0x6C7 JUMPI PUSH1 0x40 MLOAD SWAP3 PUSH2 0x186E PUSH1 0x1F DUP5 ADD PUSH1 0x1F NOT AND PUSH1 0x20 ADD DUP6 PUSH2 0x17FE JUMP JUMPDEST DUP3 DUP5 MSTORE PUSH1 0x24 DUP4 DUP4 ADD ADD GT PUSH2 0x1AA JUMPI DUP2 PUSH1 0x0 SWAP3 PUSH1 0x24 PUSH1 0x20 SWAP4 ADD DUP4 DUP7 ADD CALLDATACOPY DUP4 ADD ADD MSTORE SWAP1 JUMP JUMPDEST SWAP1 PUSH1 0x1 DUP3 DUP2 SHR SWAP3 AND DUP1 ISZERO PUSH2 0x18C1 JUMPI JUMPDEST PUSH1 0x20 DUP4 LT EQ PUSH2 0x18AB JUMPI JUMP JUMPDEST PUSH4 0x4E487B71 PUSH1 0xE0 SHL PUSH1 0x0 MSTORE PUSH1 0x22 PUSH1 0x4 MSTORE PUSH1 0x24 PUSH1 0x0 REVERT JUMPDEST SWAP2 PUSH1 0x7F AND SWAP2 PUSH2 0x18A0 JUMP JUMPDEST PUSH1 0x6 SLOAD PUSH1 0x0 SWAP3 SWAP2 PUSH2 0x18DB DUP3 PUSH2 0x1891 JUMP JUMPDEST DUP1 DUP3 MSTORE SWAP2 PUSH1 0x1 SWAP1 DUP2 DUP2 AND SWAP1 DUP2 ISZERO PUSH2 0x1952 JUMPI POP PUSH1 0x1 EQ PUSH2 0x18F9 JUMPI POP POP POP JUMP JUMPDEST SWAP2 SWAP3 SWAP4 POP PUSH1 0x6 PUSH1 0x0 MSTORE PUSH32 0xF652222313E28459528D920B65115C16C04F3EFC82AAEDC97BE59F3F377C0D3F SWAP2 PUSH1 0x0 SWAP3 JUMPDEST DUP5 DUP5 LT PUSH2 0x193A JUMPI POP POP PUSH1 0x20 SWAP3 POP ADD ADD SWAP1 JUMP JUMPDEST DUP1 SLOAD PUSH1 0x20 DUP6 DUP6 ADD DUP2 ADD SWAP2 SWAP1 SWAP2 MSTORE SWAP1 SWAP4 ADD SWAP3 DUP2 ADD PUSH2 0x1928 JUMP JUMPDEST SWAP2 POP POP PUSH1 0x20 SWAP4 SWAP5 POP PUSH1 0xFF SWAP3 SWAP2 SWAP3 NOT AND DUP4 DUP4 ADD MSTORE ISZERO ISZERO PUSH1 0x5 SHL ADD ADD SWAP1 JUMP JUMPDEST SWAP1 PUSH1 0x0 SWAP3 SWAP2 DUP1 SLOAD SWAP2 PUSH2 0x1980 DUP4 PUSH2 0x1891 JUMP JUMPDEST SWAP2 DUP3 DUP3 MSTORE PUSH1 0x1 SWAP4 DUP5 DUP2 AND SWAP1 DUP2 PUSH1 0x0 EQ PUSH2 0x19E2 JUMPI POP PUSH1 0x1 EQ PUSH2 0x19A2 JUMPI JUMPDEST POP POP POP POP JUMP JUMPDEST SWAP1 SWAP2 SWAP4 SWAP5 POP PUSH1 0x0 MSTORE PUSH1 0x20 SWAP3 DUP4 PUSH1 0x0 KECCAK256 SWAP3 DUP5 PUSH1 0x0 SWAP5 JUMPDEST DUP4 DUP7 LT PUSH2 0x19CE JUMPI POP POP POP POP ADD ADD SWAP1 CODESIZE DUP1 DUP1 DUP1 PUSH2 0x199C JUMP JUMPDEST DUP1 SLOAD DUP6 DUP8 ADD DUP4 ADD MSTORE SWAP5 ADD SWAP4 DUP6 SWAP1 DUP3 ADD PUSH2 0x19B7 JUMP JUMPDEST SWAP3 SWAP5 POP POP POP PUSH1 0x20 SWAP4 SWAP5 POP PUSH1 0xFF NOT AND DUP4 DUP4 ADD MSTORE ISZERO ISZERO PUSH1 0x5 SHL ADD ADD SWAP1 CODESIZE DUP1 DUP1 DUP1 PUSH2 0x199C JUMP JUMPDEST SWAP2 DUP2 PUSH1 0x1F DUP5 ADD SLT ISZERO PUSH2 0x1AA JUMPI DUP3 CALLDATALOAD SWAP2 PUSH8 0xFFFFFFFFFFFFFFFF DUP4 GT PUSH2 0x1AA JUMPI PUSH1 0x20 DUP4 DUP2 DUP7 ADD SWAP6 ADD ADD GT PUSH2 0x1AA JUMPI JUMP JUMPDEST ISZERO PUSH2 0x1A3A JUMPI JUMP JUMPDEST PUSH1 0x64 PUSH1 0x40 MLOAD PUSH3 0x461BCD PUSH1 0xE5 SHL DUP2 MSTORE PUSH1 0x20 PUSH1 0x4 DUP3 ADD MSTORE PUSH1 0x18 PUSH1 0x24 DUP3 ADD MSTORE PUSH32 0x4F4E4C595F544F504F535F42414E4B5F434F4E54524143540000000000000000 PUSH1 0x44 DUP3 ADD MSTORE REVERT JUMPDEST PUSH1 0x40 MLOAD PUSH1 0x6 SLOAD DUP2 PUSH1 0x0 PUSH2 0x1A90 DUP4 PUSH2 0x1891 JUMP JUMPDEST PUSH1 0x1 SWAP4 DUP1 DUP6 AND SWAP1 DUP2 ISZERO PUSH2 0x1B09 JUMPI POP PUSH1 0x1 EQ PUSH2 0x1AB3 JUMPI JUMPDEST POP PUSH1 0x20 SWAP3 DUP2 MSTORE SUB ADD SWAP1 KECCAK256 SWAP1 JUMP JUMPDEST SWAP3 SWAP1 POP PUSH1 0x6 PUSH1 0x0 MSTORE PUSH32 0xF652222313E28459528D920B65115C16C04F3EFC82AAEDC97BE59F3F377C0D3F SWAP3 PUSH1 0x0 JUMPDEST DUP2 DUP2 LT PUSH2 0x1AF4 JUMPI POP SWAP1 SWAP3 POP DUP2 ADD PUSH1 0x20 PUSH2 0x1AA6 JUMP JUMPDEST DUP5 SLOAD DUP7 DUP3 ADD MSTORE SWAP4 DUP3 ADD SWAP4 DUP6 SWAP4 POP PUSH1 0x20 ADD PUSH2 0x1AE0 JUMP JUMPDEST PUSH1 0xFF NOT AND DUP5 MSTORE POP DUP1 ISZERO ISZERO MUL DUP3 ADD SWAP1 POP PUSH1 0x20 PUSH2 0x1AA6 JUMP JUMPDEST DUP2 ISZERO PUSH2 0x1B29 JUMPI DIV SWAP1 JUMP JUMPDEST PUSH4 0x4E487B71 PUSH1 0xE0 SHL PUSH1 0x0 MSTORE PUSH1 0x12 PUSH1 0x4 MSTORE PUSH1 0x24 PUSH1 0x0 REVERT JUMPDEST SWAP2 SWAP1 DUP3 ADD DUP1 SWAP3 GT PUSH2 0x1171 JUMPI JUMP JUMPDEST PUSH1 0x4 PUSH1 0x20 PUSH1 0x1 PUSH1 0x1 PUSH1 0xA0 SHL SUB PUSH1 0x8 SLOAD AND PUSH1 0x40 MLOAD SWAP3 DUP4 DUP1 SWAP3 PUSH32 0x79A9456900000000000000000000000000000000000000000000000000000000 DUP3 MSTORE GAS STATICCALL SWAP1 DUP2 ISZERO PUSH2 0x1BFF JUMPI PUSH1 0x0 SWAP2 PUSH2 0x1BCB JUMPI JUMPDEST POP PUSH1 0x6 PUSH2 0x1BA2 PUSH2 0x1A7E JUMP JUMPDEST ADD SLOAD SWAP1 PUSH1 0x2 PUSH1 0xFF PUSH1 0x7 PUSH2 0x1BB3 PUSH2 0x1A7E JUMP JUMPDEST ADD SLOAD AND SUB PUSH2 0x1BC7 JUMPI PUSH2 0x1BC4 SWAP2 PUSH2 0x1B3F JUMP JUMPDEST SWAP1 JUMP JUMPDEST POP SWAP1 JUMP JUMPDEST SWAP1 PUSH1 0x20 DUP3 RETURNDATASIZE DUP3 GT PUSH2 0x1BF7 JUMPI JUMPDEST DUP2 PUSH2 0x1BE4 PUSH1 0x20 SWAP4 DUP4 PUSH2 0x17FE JUMP JUMPDEST DUP2 ADD SUB SLT PUSH2 0x1BF4 JUMPI POP MLOAD CODESIZE PUSH2 0x1B97 JUMP JUMPDEST DUP1 REVERT JUMPDEST RETURNDATASIZE SWAP2 POP PUSH2 0x1BD7 JUMP JUMPDEST PUSH1 0x40 MLOAD RETURNDATASIZE PUSH1 0x0 DUP3 RETURNDATACOPY RETURNDATASIZE SWAP1 REVERT JUMPDEST MLOAD SWAP1 PUSH1 0x1 PUSH1 0x1 PUSH1 0xA0 SHL SUB DUP3 AND DUP3 SUB PUSH2 0x1AA JUMPI JUMP JUMPDEST SWAP1 DUP2 PUSH1 0xA0 SWAP2 SUB SLT PUSH2 0x1AA JUMPI PUSH2 0x1C33 DUP2 PUSH2 0x1C0B JUMP JUMPDEST SWAP2 PUSH2 0x1C40 PUSH1 0x20 DUP4 ADD PUSH2 0x1C0B JUMP JUMPDEST SWAP2 PUSH2 0x1C4D PUSH1 0x40 DUP3 ADD PUSH2 0x1C0B JUMP JUMPDEST SWAP2 PUSH2 0x1BC4 PUSH1 0x80 PUSH2 0x1C5F PUSH1 0x60 DUP6 ADD PUSH2 0x1C0B JUMP JUMPDEST SWAP4 ADD PUSH2 0x1C0B JUMP JUMPDEST SWAP1 DUP2 PUSH1 0x20 SWAP2 SUB SLT PUSH2 0x1AA JUMPI MLOAD DUP1 ISZERO ISZERO DUP2 SUB PUSH2 0x1AA JUMPI SWAP1 JUMP JUMPDEST ISZERO PUSH2 0x1C85 JUMPI JUMP JUMPDEST PUSH1 0x64 PUSH1 0x40 MLOAD PUSH3 0x461BCD PUSH1 0xE5 SHL DUP2 MSTORE PUSH1 0x20 PUSH1 0x4 DUP3 ADD MSTORE PUSH1 0x14 PUSH1 0x24 DUP3 ADD MSTORE PUSH32 0x4143434F554E545F4E4F545F414150524F564544000000000000000000000000 PUSH1 0x44 DUP3 ADD MSTORE REVERT JUMPDEST PUSH8 0xFFFFFFFFFFFFFFFF DUP2 GT PUSH2 0x6C7 JUMPI PUSH1 0x5 SHL PUSH1 0x20 ADD SWAP1 JUMP JUMPDEST SWAP1 PUSH1 0x20 SWAP2 DUP3 DUP2 DUP4 SUB SLT PUSH2 0x1AA JUMPI DUP1 MLOAD SWAP1 PUSH8 0xFFFFFFFFFFFFFFFF DUP3 GT PUSH2 0x1AA JUMPI ADD DUP2 PUSH1 0x1F DUP3 ADD SLT ISZERO PUSH2 0x1AA JUMPI DUP1 MLOAD SWAP3 PUSH2 0x1D18 DUP5 PUSH2 0x1CC9 JUMP JUMPDEST SWAP4 PUSH1 0x40 SWAP4 PUSH2 0x1D28 DUP6 MLOAD SWAP7 DUP8 PUSH2 0x17FE JUMP JUMPDEST DUP2 DUP7 MSTORE DUP3 DUP1 DUP8 ADD SWAP3 PUSH1 0x6 SHL DUP6 ADD ADD SWAP4 DUP2 DUP6 GT PUSH2 0x1AA JUMPI DUP4 ADD SWAP2 JUMPDEST DUP5 DUP4 LT PUSH2 0x1D52 JUMPI POP POP POP POP POP POP SWAP1 JUMP JUMPDEST DUP6 DUP4 DUP4 SUB SLT PUSH2 0x1AA JUMPI DUP4 DUP7 SWAP2 DUP3 MLOAD PUSH2 0x1D69 DUP2 PUSH2 0x17E2 JUMP JUMPDEST PUSH2 0x1D72 DUP7 PUSH2 0x1C0B JUMP JUMPDEST DUP2 MSTORE DUP3 DUP7 ADD MLOAD DUP4 DUP3 ADD MSTORE DUP2 MSTORE ADD SWAP3 ADD SWAP2 PUSH2 0x1D42 JUMP JUMPDEST PUSH1 0x0 NOT DUP2 EQ PUSH2 0x1171 JUMPI PUSH1 0x1 ADD SWAP1 JUMP JUMPDEST DUP1 MLOAD DUP3 LT ISZERO PUSH2 0x1DAA JUMPI PUSH1 0x20 SWAP2 PUSH1 0x5 SHL ADD ADD SWAP1 JUMP JUMPDEST PUSH4 0x4E487B71 PUSH1 0xE0 SHL PUSH1 0x0 MSTORE PUSH1 0x32 PUSH1 0x4 MSTORE PUSH1 0x24 PUSH1 0x0 REVERT JUMPDEST DUP2 DUP2 MUL SWAP3 SWAP2 DUP2 ISZERO SWAP2 DUP5 DIV EQ OR ISZERO PUSH2 0x1171 JUMPI JUMP JUMPDEST PUSH1 0x9 SLOAD DUP2 LT ISZERO PUSH2 0x1DAA JUMPI PUSH1 0x9 PUSH1 0x0 MSTORE PUSH1 0x1 SHL PUSH32 0x6E1540171B6C0C960B71A7020D9F60077F6AF931A8BBF590DA0223DACF75C7AF ADD SWAP1 PUSH1 0x0 SWAP1 JUMP JUMPDEST PUSH1 0x9 SLOAD PUSH9 0x10000000000000000 DUP2 LT ISZERO PUSH2 0x6C7 JUMPI DUP1 PUSH1 0x1 PUSH2 0x1E31 SWAP3 ADD PUSH1 0x9 SSTORE PUSH2 0x1DD3 JUMP JUMPDEST SWAP2 SWAP1 SWAP2 PUSH2 0x1E6B JUMPI PUSH1 0x20 DUP2 PUSH1 0x1 PUSH1 0x1 PUSH1 0xA0 SHL SUB PUSH1 0x1 SWAP4 MLOAD AND PUSH20 0xFFFFFFFFFFFFFFFFFFFFFFFFFFFFFFFFFFFFFFFF NOT DUP6 SLOAD AND OR DUP5 SSTORE ADD MLOAD SWAP2 ADD SSTORE JUMP JUMPDEST PUSH4 0x4E487B71 PUSH1 0xE0 SHL PUSH1 0x0 MSTORE PUSH1 0x0 PUSH1 0x4 MSTORE PUSH1 0x24 PUSH1 0x0 REVERT JUMPDEST SWAP1 CALLDATALOAD SWAP1 PUSH1 0x1E NOT DUP2 CALLDATASIZE SUB ADD DUP3 SLT ISZERO PUSH2 0x1AA JUMPI ADD DUP1 CALLDATALOAD SWAP1 PUSH8 0xFFFFFFFFFFFFFFFF DUP3 GT PUSH2 0x1AA JUMPI PUSH1 0x20 ADD SWAP2 DUP2 CALLDATASIZE SUB DUP4 SGT PUSH2 0x1AA JUMPI JUMP JUMPDEST ISZERO PUSH2 0x1EBB JUMPI JUMP JUMPDEST PUSH1 0x64 PUSH1 0x40 MLOAD PUSH3 0x461BCD PUSH1 0xE5 SHL DUP2 MSTORE PUSH1 0x20 PUSH1 0x4 DUP3 ADD MSTORE PUSH1 0x7 PUSH1 0x24 DUP3 ADD MSTORE PUSH32 0x6D61747572656400000000000000000000000000000000000000000000000000 PUSH1 0x44 DUP3 ADD MSTORE REVERT JUMPDEST DUP2 ISZERO PUSH2 0x1B29 JUMPI MOD SWAP1 JUMP INVALID LOG2 PUSH5 0x6970667358 0x22 SLT KECCAK256 0xF MUL CALLDATASIZE SWAP12 0x4B GT 0xBE 0xB0 PUSH21 0xA1C84354E100894A99BC922A75FE40A6860AD25D32 REVERT JUMPI PUSH5 0x736F6C6343 STOP ADDMOD SGT STOP CALLER "},"methodIdentifiers":{"allowance(address,address)":"dd62ed3e","approve(address,uint256)":"095ea7b3","balanceOf(address)":"70a08231","bankContract()":"07c2e449","bondManager()":"363cc427","bondStatus()":"c16aa779","bonds(string)":"46e8de21","couponFrequency()":"5eb0b3d0","couponRate()":"c0bcb26f","couponType()":"045017ce","currency()":"e5a6b10f","dealID()":"73975df1","decreaseAllowance(address,uint256)":"a457c2d7","denomination()":"8bca6d16","getListOfInvestors()":"8db6f28a","investorsIDs(address)":"e6ba4fea","isInvestor(address)":"cee2a9cf","isin()":"82d5a60d","issue((string,string,string,address,uint256,uint256,uint256,uint8,uint256,uint256,uint256))":"d76805aa","issueData(string)":"41d6a582","issueDate()":"8d1343e0","issueVolume()":"710d3329","maturityDate()":"d59624b4","name()":"06fdde03","principalOf(address)":"61e20a1c","redeem()":"be040fb0","symbol()":"95d89b41","toposBankContract()":"9c34712a","totalSupply()":"18160ddd","transfer(address,uint256,bytes)":"be45fd62","transferFrom(address,address,uint256,bytes)":"ab67aa58"}}}}}