{"contracts/Topos/Bank/ToposBankStorage.sol":{"ToposBankStorage":{"abi":[{"anonymous":false,"inputs":[{"indexed":false,"internalType":"string","name":"_dealID","type":"string"}],"name":"BondIssue","type":"event"},{"anonymous":false,"inputs":[{"indexed":false,"internalType":"string","name":"_dealID","type":"string"}],"name":"BondRedeem","type":"event"},{"anonymous":false,"inputs":[{"indexed":false,"internalType":"string","name":"dealID","type":"string"}],"name":"DealAPproved","type":"event"},{"anonymous":false,"inputs":[{"indexed":false,"internalType":"string","name":"dealID","type":"string"}],"name":"DealARejected","type":"event"},{"anonymous":false,"inputs":[{"indexed":false,"internalType":"string","name":"dealID","type":"string"},{"components":[{"internalType":"string","name":"dealID","type":"string"},{"internalType":"string","name":"prospectusURI","type":"string"},{"internalType":"address","name":"issuerAddress","type":"address"},{"internalType":"uint256","name":"debtAmount","type":"uint256"},{"internalType":"uint256","name":"denomination","type":"uint256"},{"internalType":"uint256","name":"couponRate","type":"uint256"},{"internalType":"uint256","name":"couponFrequency","type":"uint256"},{"internalType":"uint256","name":"maturityDate","type":"uint256"},{"internalType":"uint256","name":"index","type":"uint256"},{"internalType":"address","name":"currency","type":"address"},{"internalType":"uint8","name":"couponType","type":"uint8"},{"internalType":"enum BondData.DealStatus","name":"status","type":"uint8"}],"indexed":false,"internalType":"struct BondData.Deal","name":"deal","type":"tuple"}],"name":"DealSubmitted","type":"event"},{"anonymous":false,"inputs":[{"indexed":false,"internalType":"string","name":"dealID","type":"string"},{"indexed":false,"internalType":"address","name":"investor","type":"address"}],"name":"RegisterForDeal","type":"event"},{"inputs":[{"internalType":"address","name":"investorAccount","type":"address"},{"internalType":"string","name":"","type":"string"}],"name":"amountInvested","outputs":[{"internalType":"uint256","name":"amount","type":"uint256"},{"internalType":"bool","name":"hasInvested","type":"bool"},{"internalType":"uint256","name":"index","type":"uint256"}],"stateMutability":"view","type":"function"},{"inputs":[],"name":"bondCallContract","outputs":[{"internalType":"address","name":"","type":"address"}],"stateMutability":"view","type":"function"},{"inputs":[{"internalType":"string","name":"","type":"string"}],"name":"dealBondContracts","outputs":[{"internalType":"address","name":"","type":"address"}],"stateMutability":"view","type":"function"},{"inputs":[],"name":"dealFees","outputs":[{"internalType":"uint256","name":"","type":"uint256"}],"stateMutability":"view","type":"function"},{"inputs":[{"internalType":"string","name":"","type":"string"},{"internalType":"uint256","name":"","type":"uint256"}],"name":"dealInvestment","outputs":[{"internalType":"address","name":"investor","type":"address"},{"internalType":"uint256","name":"amount","type":"uint256"}],"stateMutability":"view","type":"function"},{"inputs":[{"internalType":"string","name":"","type":"string"}],"name":"deals","outputs":[{"internalType":"string","name":"dealID","type":"string"},{"internalType":"string","name":"prospectusURI","type":"string"},{"internalType":"address","name":"issuerAddress","type":"address"},{"internalType":"uint256","name":"debtAmount","type":"uint256"},{"internalType":"uint256","name":"denomination","type":"uint256"},{"internalType":"uint256","name":"couponRate","type":"uint256"},{"internalType":"uint256","name":"couponFrequency","type":"uint256"},{"internalType":"uint256","name":"maturityDate","type":"uint256"},{"internalType":"uint256","name":"index","type":"uint256"},{"internalType":"address","name":"currency","type":"address"},{"internalType":"uint8","name":"couponType","type":"uint8"},{"internalType":"enum BondData.DealStatus","name":"status","type":"uint8"}],"stateMutability":"view","type":"function"},{"inputs":[],"name":"identityRegistryContract","outputs":[{"internalType":"address","name":"","type":"address"}],"stateMutability":"view","type":"function"},{"inputs":[],"name":"irsCallContract","outputs":[{"internalType":"address","name":"","type":"address"}],"stateMutability":"view","type":"function"},{"inputs":[{"internalType":"address","name":"issuerAccount","type":"address"},{"internalType":"uint256","name":"","type":"uint256"}],"name":"issuerDeals","outputs":[{"internalType":"string","name":"dealID","type":"string"},{"internalType":"string","name":"prospectusURI","type":"string"},{"internalType":"address","name":"issuerAddress","type":"address"},{"internalType":"uint256","name":"debtAmount","type":"uint256"},{"internalType":"uint256","name":"denomination","type":"uint256"},{"internalType":"uint256","name":"couponRate","type":"uint256"},{"internalType":"uint256","name":"couponFrequency","type":"uint256"},{"internalType":"uint256","name":"maturityDate","type":"uint256"},{"internalType":"uint256","name":"index","type":"uint256"},{"internalType":"address","name":"currency","type":"address"},{"internalType":"uint8","name":"couponType","type":"uint8"},{"internalType":"enum BondData.DealStatus","name":"status","type":"uint8"}],"stateMutability":"view","type":"function"},{"inputs":[{"internalType":"address","name":"issuerAccount","type":"address"},{"internalType":"uint256","name":"","type":"uint256"}],"name":"issuerIRS","outputs":[{"internalType":"address","name":"irsContract","type":"address"},{"internalType":"address","name":"fixedInterestPayer","type":"address"},{"internalType":"address","name":"floatingInterestPayer","type":"address"},{"internalType":"uint8","name":"ratesDecimals","type":"uint8"},{"internalType":"uint8","name":"status","type":"uint8"},{"internalType":"uint256","name":"swapRate","type":"uint256"},{"internalType":"uint256","name":"spread","type":"uint256"},{"internalType":"address","name":"assetContract","type":"address"},{"internalType":"uint256","name":"notionalAmount","type":"uint256"},{"internalType":"uint256","name":"paymentFrequency","type":"uint256"},{"internalType":"uint256","name":"startingDate","type":"uint256"},{"internalType":"uint256","name":"maturityDate","type":"uint256"},{"internalType":"uint8","name":"index","type":"uint8"}],"stateMutability":"view","type":"function"},{"inputs":[],"name":"issuersFundContract","outputs":[{"internalType":"address","name":"","type":"address"}],"stateMutability":"view","type":"function"},{"inputs":[],"name":"rolesContract","outputs":[{"internalType":"address","name":"","type":"address"}],"stateMutability":"view","type":"function"},{"inputs":[],"name":"toposManager","outputs":[{"internalType":"address","name":"","type":"address"}],"stateMutability":"view","type":"function"},{"inputs":[{"internalType":"string","name":"","type":"string"}],"name":"totalAmountInvestedForDeal","outputs":[{"internalType":"uint256","name":"","type":"uint256"}],"stateMutability":"view","type":"function"}],"evm":{"bytecode":{"linkReferences":{},"object":"608080604052346100165761089a908161001c8239f35b600080fdfe6040608081526004908136101561001557600080fd5b6000803560e01c8063041e9b8914610572578063088674e01461054a5780633bbada4614610466578063499fa18a146103e057806349f5d1d91461032b5780635e43522e146103035780635ed7e2c1146102a65780637af4d6521461027e5780637f31ed7314610256578063a0a57dac14610194578063af9080f814610175578063ca53b3911461014d578063fb90e441146101215763fe0ab4b3146100ba57600080fd5b3461011e57602036600319011261011e5782359067ffffffffffffffff821161011e575061010b60206100f981956001600160a01b039436910161065b565b818551938285809451938492016106b2565b8101600181520301902054169051908152f35b80fd5b5090346101495781600319360112610149576020906001600160a01b03600d54169051908152f35b5080fd5b5090346101495781600319360112610149576020906001600160a01b03600954169051908152f35b509034610149578160031936011261014957602090600e549051908152f35b503461011e57602036600319011261011e57823567ffffffffffffffff8111610149576020610252926101cd6101e0933690880161065b565b90828651948386809551938492016106b2565b8201908152030190206101f2816106d5565b926101ff600183016106d5565b936001600160a01b0392836002820154169660038201549082015460058301546006840154916007850154936009600887015496015497519b8c9b60ff8a60a81c169a60ff8b60a01c169a16988d6107cb565b0390f35b5090346101495781600319360112610149576020906001600160a01b03600854169051908152f35b5090346101495781600319360112610149576020906001600160a01b03600c54169051908152f35b503461011e57602036600319011261011e5782359067ffffffffffffffff821161011e5750602080936102df6102f2933690830161065b565b90828551948386809551938492016106b2565b820190815203019020549051908152f35b5090346101495781600319360112610149576020906001600160a01b03600b54169051908152f35b509190346103dc57806003193601126103dc57610346610608565b6024356001600160a01b038092168552600660205282852080548210156103d857602086600a92610252969798522091020192610382846106d5565b61038e600186016106d5565b94836002820154169660038201549082015460058301546006840154916007850154936009600887015496015497519b8c9b60ff8a60a81c169a60ff8b60a01c169a16988d6107cb565b8580fd5b8280fd5b508234610149578260031936011261014957803567ffffffffffffffff81116103dc5761040f9136910161065b565b9061042b602060243593818651938285809451938492016106b2565b81016003815203019020805483101561014957906020918152209060011b0160016001600160a01b0382541691015482519182526020820152f35b5091346103dc57816003193601126103dc57610480610608565b6024356001600160a01b038092168552600760205283852080548210156103d857602086600b926101a09852209102019080825416938160018401541693600284015490600385015490850154846005870154169160ff60068801549460078901549660088a01549883600a60098d01549c0154169b602083519e8f90815201528216908c0152818160a01c1660608c015260a81c1660808a015260a089015260c088015260e0870152610100860152610120850152610140840152610160830152610180820152f35b5090346101495781600319360112610149576020906001600160a01b03600a54169051908152f35b5091346103dc57816003193601126103dc5761058c610608565b9060243567ffffffffffffffff81116106045791836060956001600160a01b036105be6020956105d99736910161065b565b931681526005845220828551948386809551938492016106b2565b820190815203019020805491600260ff60018401541692015491815193845215156020840152820152f35b8480fd5b600435906001600160a01b038216820361061e57565b600080fd5b90601f8019910116810190811067ffffffffffffffff82111761064557604052565b634e487b7160e01b600052604160045260246000fd5b81601f8201121561061e5780359067ffffffffffffffff82116106455760405192610690601f8401601f191660200185610623565b8284526020838301011161061e57816000926020809301838601378301015290565b60005b8381106106c55750506000910152565b81810151838201526020016106b5565b90604051906000835490600182811c9080841696871561079c575b602094858410891461078857879884899798995290816000146107665750600114610727575b50505061072592500383610623565b565b600090815285812095935091905b81831061074e5750506107259350820101388080610716565b85548884018501529485019487945091830191610735565b9250505061072594925060ff191682840152151560051b820101388080610716565b602485634e487b7160e01b81526022600452fd5b91607f16916106f0565b906020916107bf815180928185528580860191016106b2565b601f01601f1916010190565b999591610800906107f2959e9d9c999560ff9b97939995998d6101809081815201906107a6565b8c810360208e0152906107a6565b9c6001600160a01b0380981660408c015260608b015260808a015260a089015260c088015260e08701526101008601521661012084015216610140820152600682101561084e576101600152565b634e487b7160e01b600052602160045260246000fdfea2646970667358221220cd8a790a377938f206af2686a32bfc6bbf439c0360bb8356160fdaa277a17ece64736f6c63430008130033","opcodes":"PUSH1 0x80 DUP1 PUSH1 0x40 MSTORE CALLVALUE PUSH2 0x16 JUMPI PUSH2 0x89A SWAP1 DUP2 PUSH2 0x1C DUP3 CODECOPY RETURN JUMPDEST PUSH1 0x0 DUP1 REVERT INVALID PUSH1 0x40 PUSH1 0x80 DUP2 MSTORE PUSH1 0x4 SWAP1 DUP2 CALLDATASIZE LT ISZERO PUSH2 0x15 JUMPI PUSH1 0x0 DUP1 REVERT JUMPDEST PUSH1 0x0 DUP1 CALLDATALOAD PUSH1 0xE0 SHR DUP1 PUSH4 0x41E9B89 EQ PUSH2 0x572 JUMPI DUP1 PUSH4 0x88674E0 EQ PUSH2 0x54A JUMPI DUP1 PUSH4 0x3BBADA46 EQ PUSH2 0x466 JUMPI DUP1 PUSH4 0x499FA18A EQ PUSH2 0x3E0 JUMPI DUP1 PUSH4 0x49F5D1D9 EQ PUSH2 0x32B JUMPI DUP1 PUSH4 0x5E43522E EQ PUSH2 0x303 JUMPI DUP1 PUSH4 0x5ED7E2C1 EQ PUSH2 0x2A6 JUMPI DUP1 PUSH4 0x7AF4D652 EQ PUSH2 0x27E JUMPI DUP1 PUSH4 0x7F31ED73 EQ PUSH2 0x256 JUMPI DUP1 PUSH4 0xA0A57DAC EQ PUSH2 0x194 JUMPI DUP1 PUSH4 0xAF9080F8 EQ PUSH2 0x175 JUMPI DUP1 PUSH4 0xCA53B391 EQ PUSH2 0x14D JUMPI DUP1 PUSH4 0xFB90E441 EQ PUSH2 0x121 JUMPI PUSH4 0xFE0AB4B3 EQ PUSH2 0xBA JUMPI PUSH1 0x0 DUP1 REVERT JUMPDEST CALLVALUE PUSH2 0x11E JUMPI PUSH1 0x20 CALLDATASIZE PUSH1 0x3 NOT ADD SLT PUSH2 0x11E JUMPI DUP3 CALLDATALOAD SWAP1 PUSH8 0xFFFFFFFFFFFFFFFF DUP3 GT PUSH2 0x11E JUMPI POP PUSH2 0x10B PUSH1 0x20 PUSH2 0xF9 DUP2 SWAP6 PUSH1 0x1 PUSH1 0x1 PUSH1 0xA0 SHL SUB SWAP5 CALLDATASIZE SWAP2 ADD PUSH2 0x65B JUMP JUMPDEST DUP2 DUP6 MLOAD SWAP4 DUP3 DUP6 DUP1 SWAP5 MLOAD SWAP4 DUP5 SWAP3 ADD PUSH2 0x6B2 JUMP JUMPDEST DUP2 ADD PUSH1 0x1 DUP2 MSTORE SUB ADD SWAP1 KECCAK256 SLOAD AND SWAP1 MLOAD SWAP1 DUP2 MSTORE RETURN JUMPDEST DUP1 REVERT JUMPDEST POP SWAP1 CALLVALUE PUSH2 0x149 JUMPI DUP2 PUSH1 0x3 NOT CALLDATASIZE ADD SLT PUSH2 0x149 JUMPI PUSH1 0x20 SWAP1 PUSH1 0x1 PUSH1 0x1 PUSH1 0xA0 SHL SUB PUSH1 0xD SLOAD AND SWAP1 MLOAD SWAP1 DUP2 MSTORE RETURN JUMPDEST POP DUP1 REVERT JUMPDEST POP SWAP1 CALLVALUE PUSH2 0x149 JUMPI DUP2 PUSH1 0x3 NOT CALLDATASIZE ADD SLT PUSH2 0x149 JUMPI PUSH1 0x20 SWAP1 PUSH1 0x1 PUSH1 0x1 PUSH1 0xA0 SHL SUB PUSH1 0x9 SLOAD AND SWAP1 MLOAD SWAP1 DUP2 MSTORE RETURN JUMPDEST POP SWAP1 CALLVALUE PUSH2 0x149 JUMPI DUP2 PUSH1 0x3 NOT CALLDATASIZE ADD SLT PUSH2 0x149 JUMPI PUSH1 0x20 SWAP1 PUSH1 0xE SLOAD SWAP1 MLOAD SWAP1 DUP2 MSTORE RETURN JUMPDEST POP CALLVALUE PUSH2 0x11E JUMPI PUSH1 0x20 CALLDATASIZE PUSH1 0x3 NOT ADD SLT PUSH2 0x11E JUMPI DUP3 CALLDATALOAD PUSH8 0xFFFFFFFFFFFFFFFF DUP2 GT PUSH2 0x149 JUMPI PUSH1 0x20 PUSH2 0x252 SWAP3 PUSH2 0x1CD PUSH2 0x1E0 SWAP4 CALLDATASIZE SWAP1 DUP9 ADD PUSH2 0x65B JUMP JUMPDEST SWAP1 DUP3 DUP7 MLOAD SWAP5 DUP4 DUP7 DUP1 SWAP6 MLOAD SWAP4 DUP5 SWAP3 ADD PUSH2 0x6B2 JUMP JUMPDEST DUP3 ADD SWAP1 DUP2 MSTORE SUB ADD SWAP1 KECCAK256 PUSH2 0x1F2 DUP2 PUSH2 0x6D5 JUMP JUMPDEST SWAP3 PUSH2 0x1FF PUSH1 0x1 DUP4 ADD PUSH2 0x6D5 JUMP JUMPDEST SWAP4 PUSH1 0x1 PUSH1 0x1 PUSH1 0xA0 SHL SUB SWAP3 DUP4 PUSH1 0x2 DUP3 ADD SLOAD AND SWAP7 PUSH1 0x3 DUP3 ADD SLOAD SWAP1 DUP3 ADD SLOAD PUSH1 0x5 DUP4 ADD SLOAD PUSH1 0x6 DUP5 ADD SLOAD SWAP2 PUSH1 0x7 DUP6 ADD SLOAD SWAP4 PUSH1 0x9 PUSH1 0x8 DUP8 ADD SLOAD SWAP7 ADD SLOAD SWAP8 MLOAD SWAP12 DUP13 SWAP12 PUSH1 0xFF DUP11 PUSH1 0xA8 SHR AND SWAP11 PUSH1 0xFF DUP12 PUSH1 0xA0 SHR AND SWAP11 AND SWAP9 DUP14 PUSH2 0x7CB JUMP JUMPDEST SUB SWAP1 RETURN JUMPDEST POP SWAP1 CALLVALUE PUSH2 0x149 JUMPI DUP2 PUSH1 0x3 NOT CALLDATASIZE ADD SLT PUSH2 0x149 JUMPI PUSH1 0x20 SWAP1 PUSH1 0x1 PUSH1 0x1 PUSH1 0xA0 SHL SUB PUSH1 0x8 SLOAD AND SWAP1 MLOAD SWAP1 DUP2 MSTORE RETURN JUMPDEST POP SWAP1 CALLVALUE PUSH2 0x149 JUMPI DUP2 PUSH1 0x3 NOT CALLDATASIZE ADD SLT PUSH2 0x149 JUMPI PUSH1 0x20 SWAP1 PUSH1 0x1 PUSH1 0x1 PUSH1 0xA0 SHL SUB PUSH1 0xC SLOAD AND SWAP1 MLOAD SWAP1 DUP2 MSTORE RETURN JUMPDEST POP CALLVALUE PUSH2 0x11E JUMPI PUSH1 0x20 CALLDATASIZE PUSH1 0x3 NOT ADD SLT PUSH2 0x11E JUMPI DUP3 CALLDATALOAD SWAP1 PUSH8 0xFFFFFFFFFFFFFFFF DUP3 GT PUSH2 0x11E JUMPI POP PUSH1 0x20 DUP1 SWAP4 PUSH2 0x2DF PUSH2 0x2F2 SWAP4 CALLDATASIZE SWAP1 DUP4 ADD PUSH2 0x65B JUMP JUMPDEST SWAP1 DUP3 DUP6 MLOAD SWAP5 DUP4 DUP7 DUP1 SWAP6 MLOAD SWAP4 DUP5 SWAP3 ADD PUSH2 0x6B2 JUMP JUMPDEST DUP3 ADD SWAP1 DUP2 MSTORE SUB ADD SWAP1 KECCAK256 SLOAD SWAP1 MLOAD SWAP1 DUP2 MSTORE RETURN JUMPDEST POP SWAP1 CALLVALUE PUSH2 0x149 JUMPI DUP2 PUSH1 0x3 NOT CALLDATASIZE ADD SLT PUSH2 0x149 JUMPI PUSH1 0x20 SWAP1 PUSH1 0x1 PUSH1 0x1 PUSH1 0xA0 SHL SUB PUSH1 0xB SLOAD AND SWAP1 MLOAD SWAP1 DUP2 MSTORE RETURN JUMPDEST POP SWAP2 SWAP1 CALLVALUE PUSH2 0x3DC JUMPI DUP1 PUSH1 0x3 NOT CALLDATASIZE ADD SLT PUSH2 0x3DC JUMPI PUSH2 0x346 PUSH2 0x608 JUMP JUMPDEST PUSH1 0x24 CALLDATALOAD PUSH1 0x1 PUSH1 0x1 PUSH1 0xA0 SHL SUB DUP1 SWAP3 AND DUP6 MSTORE PUSH1 0x6 PUSH1 0x20 MSTORE DUP3 DUP6 KECCAK256 DUP1 SLOAD DUP3 LT ISZERO PUSH2 0x3D8 JUMPI PUSH1 0x20 DUP7 PUSH1 0xA SWAP3 PUSH2 0x252 SWAP7 SWAP8 SWAP9 MSTORE KECCAK256 SWAP2 MUL ADD SWAP3 PUSH2 0x382 DUP5 PUSH2 0x6D5 JUMP JUMPDEST PUSH2 0x38E PUSH1 0x1 DUP7 ADD PUSH2 0x6D5 JUMP JUMPDEST SWAP5 DUP4 PUSH1 0x2 DUP3 ADD SLOAD AND SWAP7 PUSH1 0x3 DUP3 ADD SLOAD SWAP1 DUP3 ADD SLOAD PUSH1 0x5 DUP4 ADD SLOAD PUSH1 0x6 DUP5 ADD SLOAD SWAP2 PUSH1 0x7 DUP6 ADD SLOAD SWAP4 PUSH1 0x9 PUSH1 0x8 DUP8 ADD SLOAD SWAP7 ADD SLOAD SWAP8 MLOAD SWAP12 DUP13 SWAP12 PUSH1 0xFF DUP11 PUSH1 0xA8 SHR AND SWAP11 PUSH1 0xFF DUP12 PUSH1 0xA0 SHR AND SWAP11 AND SWAP9 DUP14 PUSH2 0x7CB JUMP JUMPDEST DUP6 DUP1 REVERT JUMPDEST DUP3 DUP1 REVERT JUMPDEST POP DUP3 CALLVALUE PUSH2 0x149 JUMPI DUP3 PUSH1 0x3 NOT CALLDATASIZE ADD SLT PUSH2 0x149 JUMPI DUP1 CALLDATALOAD PUSH8 0xFFFFFFFFFFFFFFFF DUP2 GT PUSH2 0x3DC JUMPI PUSH2 0x40F SWAP2 CALLDATASIZE SWAP2 ADD PUSH2 0x65B JUMP JUMPDEST SWAP1 PUSH2 0x42B PUSH1 0x20 PUSH1 0x24 CALLDATALOAD SWAP4 DUP2 DUP7 MLOAD SWAP4 DUP3 DUP6 DUP1 SWAP5 MLOAD SWAP4 DUP5 SWAP3 ADD PUSH2 0x6B2 JUMP JUMPDEST DUP2 ADD PUSH1 0x3 DUP2 MSTORE SUB ADD SWAP1 KECCAK256 DUP1 SLOAD DUP4 LT ISZERO PUSH2 0x149 JUMPI SWAP1 PUSH1 0x20 SWAP2 DUP2 MSTORE KECCAK256 SWAP1 PUSH1 0x1 SHL ADD PUSH1 0x1 PUSH1 0x1 PUSH1 0x1 PUSH1 0xA0 SHL SUB DUP3 SLOAD AND SWAP2 ADD SLOAD DUP3 MLOAD SWAP2 DUP3 MSTORE PUSH1 0x20 DUP3 ADD MSTORE RETURN JUMPDEST POP SWAP2 CALLVALUE PUSH2 0x3DC JUMPI DUP2 PUSH1 0x3 NOT CALLDATASIZE ADD SLT PUSH2 0x3DC JUMPI PUSH2 0x480 PUSH2 0x608 JUMP JUMPDEST PUSH1 0x24 CALLDATALOAD PUSH1 0x1 PUSH1 0x1 PUSH1 0xA0 SHL SUB DUP1 SWAP3 AND DUP6 MSTORE PUSH1 0x7 PUSH1 0x20 MSTORE DUP4 DUP6 KECCAK256 DUP1 SLOAD DUP3 LT ISZERO PUSH2 0x3D8 JUMPI PUSH1 0x20 DUP7 PUSH1 0xB SWAP3 PUSH2 0x1A0 SWAP9 MSTORE KECCAK256 SWAP2 MUL ADD SWAP1 DUP1 DUP3 SLOAD AND SWAP4 DUP2 PUSH1 0x1 DUP5 ADD SLOAD AND SWAP4 PUSH1 0x2 DUP5 ADD SLOAD SWAP1 PUSH1 0x3 DUP6 ADD SLOAD SWAP1 DUP6 ADD SLOAD DUP5 PUSH1 0x5 DUP8 ADD SLOAD AND SWAP2 PUSH1 0xFF PUSH1 0x6 DUP9 ADD SLOAD SWAP5 PUSH1 0x7 DUP10 ADD SLOAD SWAP7 PUSH1 0x8 DUP11 ADD SLOAD SWAP9 DUP4 PUSH1 0xA PUSH1 0x9 DUP14 ADD SLOAD SWAP13 ADD SLOAD AND SWAP12 PUSH1 0x20 DUP4 MLOAD SWAP15 DUP16 SWAP1 DUP2 MSTORE ADD MSTORE DUP3 AND SWAP1 DUP13 ADD MSTORE DUP2 DUP2 PUSH1 0xA0 SHR AND PUSH1 0x60 DUP13 ADD MSTORE PUSH1 0xA8 SHR AND PUSH1 0x80 DUP11 ADD MSTORE PUSH1 0xA0 DUP10 ADD MSTORE PUSH1 0xC0 DUP9 ADD MSTORE PUSH1 0xE0 DUP8 ADD MSTORE PUSH2 0x100 DUP7 ADD MSTORE PUSH2 0x120 DUP6 ADD MSTORE PUSH2 0x140 DUP5 ADD MSTORE PUSH2 0x160 DUP4 ADD MSTORE PUSH2 0x180 DUP3 ADD MSTORE RETURN JUMPDEST POP SWAP1 CALLVALUE PUSH2 0x149 JUMPI DUP2 PUSH1 0x3 NOT CALLDATASIZE ADD SLT PUSH2 0x149 JUMPI PUSH1 0x20 SWAP1 PUSH1 0x1 PUSH1 0x1 PUSH1 0xA0 SHL SUB PUSH1 0xA SLOAD AND SWAP1 MLOAD SWAP1 DUP2 MSTORE RETURN JUMPDEST POP SWAP2 CALLVALUE PUSH2 0x3DC JUMPI DUP2 PUSH1 0x3 NOT CALLDATASIZE ADD SLT PUSH2 0x3DC JUMPI PUSH2 0x58C PUSH2 0x608 JUMP JUMPDEST SWAP1 PUSH1 0x24 CALLDATALOAD PUSH8 0xFFFFFFFFFFFFFFFF DUP2 GT PUSH2 0x604 JUMPI SWAP2 DUP4 PUSH1 0x60 SWAP6 PUSH1 0x1 PUSH1 0x1 PUSH1 0xA0 SHL SUB PUSH2 0x5BE PUSH1 0x20 SWAP6 PUSH2 0x5D9 SWAP8 CALLDATASIZE SWAP2 ADD PUSH2 0x65B JUMP JUMPDEST SWAP4 AND DUP2 MSTORE PUSH1 0x5 DUP5 MSTORE KECCAK256 DUP3 DUP6 MLOAD SWAP5 DUP4 DUP7 DUP1 SWAP6 MLOAD SWAP4 DUP5 SWAP3 ADD PUSH2 0x6B2 JUMP JUMPDEST DUP3 ADD SWAP1 DUP2 MSTORE SUB ADD SWAP1 KECCAK256 DUP1 SLOAD SWAP2 PUSH1 0x2 PUSH1 0xFF PUSH1 0x1 DUP5 ADD SLOAD AND SWAP3 ADD SLOAD SWAP2 DUP2 MLOAD SWAP4 DUP5 MSTORE ISZERO ISZERO PUSH1 0x20 DUP5 ADD MSTORE DUP3 ADD MSTORE RETURN JUMPDEST DUP5 DUP1 REVERT JUMPDEST PUSH1 0x4 CALLDATALOAD SWAP1 PUSH1 0x1 PUSH1 0x1 PUSH1 0xA0 SHL SUB DUP3 AND DUP3 SUB PUSH2 0x61E JUMPI JUMP JUMPDEST PUSH1 0x0 DUP1 REVERT JUMPDEST SWAP1 PUSH1 0x1F DUP1 NOT SWAP2 ADD AND DUP2 ADD SWAP1 DUP2 LT PUSH8 0xFFFFFFFFFFFFFFFF DUP3 GT OR PUSH2 0x645 JUMPI PUSH1 0x40 MSTORE JUMP JUMPDEST PUSH4 0x4E487B71 PUSH1 0xE0 SHL PUSH1 0x0 MSTORE PUSH1 0x41 PUSH1 0x4 MSTORE PUSH1 0x24 PUSH1 0x0 REVERT JUMPDEST DUP2 PUSH1 0x1F DUP3 ADD SLT ISZERO PUSH2 0x61E JUMPI DUP1 CALLDATALOAD SWAP1 PUSH8 0xFFFFFFFFFFFFFFFF DUP3 GT PUSH2 0x645 JUMPI PUSH1 0x40 MLOAD SWAP3 PUSH2 0x690 PUSH1 0x1F DUP5 ADD PUSH1 0x1F NOT AND PUSH1 0x20 ADD DUP6 PUSH2 0x623 JUMP JUMPDEST DUP3 DUP5 MSTORE PUSH1 0x20 DUP4 DUP4 ADD ADD GT PUSH2 0x61E JUMPI DUP2 PUSH1 0x0 SWAP3 PUSH1 0x20 DUP1 SWAP4 ADD DUP4 DUP7 ADD CALLDATACOPY DUP4 ADD ADD MSTORE SWAP1 JUMP JUMPDEST PUSH1 0x0 JUMPDEST DUP4 DUP2 LT PUSH2 0x6C5 JUMPI POP POP PUSH1 0x0 SWAP2 ADD MSTORE JUMP JUMPDEST DUP2 DUP2 ADD MLOAD DUP4 DUP3 ADD MSTORE PUSH1 0x20 ADD PUSH2 0x6B5 JUMP JUMPDEST SWAP1 PUSH1 0x40 MLOAD SWAP1 PUSH1 0x0 DUP4 SLOAD SWAP1 PUSH1 0x1 DUP3 DUP2 SHR SWAP1 DUP1 DUP5 AND SWAP7 DUP8 ISZERO PUSH2 0x79C JUMPI JUMPDEST PUSH1 0x20 SWAP5 DUP6 DUP5 LT DUP10 EQ PUSH2 0x788 JUMPI DUP8 SWAP9 DUP5 DUP10 SWAP8 SWAP9 SWAP10 MSTORE SWAP1 DUP2 PUSH1 0x0 EQ PUSH2 0x766 JUMPI POP PUSH1 0x1 EQ PUSH2 0x727 JUMPI JUMPDEST POP POP POP PUSH2 0x725 SWAP3 POP SUB DUP4 PUSH2 0x623 JUMP JUMPDEST JUMP JUMPDEST PUSH1 0x0 SWAP1 DUP2 MSTORE DUP6 DUP2 KECCAK256 SWAP6 SWAP4 POP SWAP2 SWAP1 JUMPDEST DUP2 DUP4 LT PUSH2 0x74E JUMPI POP POP PUSH2 0x725 SWAP4 POP DUP3 ADD ADD CODESIZE DUP1 DUP1 PUSH2 0x716 JUMP JUMPDEST DUP6 SLOAD DUP9 DUP5 ADD DUP6 ADD MSTORE SWAP5 DUP6 ADD SWAP5 DUP8 SWAP5 POP SWAP2 DUP4 ADD SWAP2 PUSH2 0x735 JUMP JUMPDEST SWAP3 POP POP POP PUSH2 0x725 SWAP5 SWAP3 POP PUSH1 0xFF NOT AND DUP3 DUP5 ADD MSTORE ISZERO ISZERO PUSH1 0x5 SHL DUP3 ADD ADD CODESIZE DUP1 DUP1 PUSH2 0x716 JUMP JUMPDEST PUSH1 0x24 DUP6 PUSH4 0x4E487B71 PUSH1 0xE0 SHL DUP2 MSTORE PUSH1 0x22 PUSH1 0x4 MSTORE REVERT JUMPDEST SWAP2 PUSH1 0x7F AND SWAP2 PUSH2 0x6F0 JUMP JUMPDEST SWAP1 PUSH1 0x20 SWAP2 PUSH2 0x7BF DUP2 MLOAD DUP1 SWAP3 DUP2 DUP6 MSTORE DUP6 DUP1 DUP7 ADD SWAP2 ADD PUSH2 0x6B2 JUMP JUMPDEST PUSH1 0x1F ADD PUSH1 0x1F NOT AND ADD ADD SWAP1 JUMP JUMPDEST SWAP10 SWAP6 SWAP2 PUSH2 0x800 SWAP1 PUSH2 0x7F2 SWAP6 SWAP15 SWAP14 SWAP13 SWAP10 SWAP6 PUSH1 0xFF SWAP12 SWAP8 SWAP4 SWAP10 SWAP6 SWAP10 DUP14 PUSH2 0x180 SWAP1 DUP2 DUP2 MSTORE ADD SWAP1 PUSH2 0x7A6 JUMP JUMPDEST DUP13 DUP2 SUB PUSH1 0x20 DUP15 ADD MSTORE SWAP1 PUSH2 0x7A6 JUMP JUMPDEST SWAP13 PUSH1 0x1 PUSH1 0x1 PUSH1 0xA0 SHL SUB DUP1 SWAP9 AND PUSH1 0x40 DUP13 ADD MSTORE PUSH1 0x60 DUP12 ADD MSTORE PUSH1 0x80 DUP11 ADD MSTORE PUSH1 0xA0 DUP10 ADD MSTORE PUSH1 0xC0 DUP9 ADD MSTORE PUSH1 0xE0 DUP8 ADD MSTORE PUSH2 0x100 DUP7 ADD MSTORE AND PUSH2 0x120 DUP5 ADD MSTORE AND PUSH2 0x140 DUP3 ADD MSTORE PUSH1 0x6 DUP3 LT ISZERO PUSH2 0x84E JUMPI PUSH2 0x160 ADD MSTORE JUMP JUMPDEST PUSH4 0x4E487B71 PUSH1 0xE0 SHL PUSH1 0x0 MSTORE PUSH1 0x21 PUSH1 0x4 MSTORE PUSH1 0x24 PUSH1 0x0 REVERT INVALID LOG2 PUSH5 0x6970667358 0x22 SLT KECCAK256 0xCD DUP11 PUSH26 0xA377938F206AF2686A32BFC6BBF439C0360BB8356160FDAA277 LOG1 PUSH31 0xCE64736F6C6343000813003300000000000000000000000000000000000000 "},"methodIdentifiers":{"amountInvested(address,string)":"041e9b89","bondCallContract()":"5e43522e","dealBondContracts(string)":"fe0ab4b3","dealFees()":"af9080f8","dealInvestment(string,uint256)":"499fa18a","deals(string)":"a0a57dac","identityRegistryContract()":"088674e0","irsCallContract()":"7af4d652","issuerDeals(address,uint256)":"49f5d1d9","issuerIRS(address,uint256)":"3bbada46","issuersFundContract()":"fb90e441","rolesContract()":"ca53b391","toposManager()":"7f31ed73","totalAmountInvestedForDeal(string)":"5ed7e2c1"}}}}}