{"contracts/Topos/IRS/ERC7586.sol":{"ERC7586":{"abi":[{"inputs":[{"internalType":"address","name":"_fixedPayerContract","type":"address"},{"internalType":"address","name":"_floatingPayerContract","type":"address"},{"internalType":"uint8","name":"_numberOfSwaps","type":"uint8"},{"internalType":"string","name":"_irsTokenName","type":"string"},{"internalType":"string","name":"_irsTokenSymbol","type":"string"},{"components":[{"internalType":"address","name":"irsContract","type":"address"},{"internalType":"address","name":"fixedInterestPayer","type":"address"},{"internalType":"address","name":"floatingInterestPayer","type":"address"},{"internalType":"uint8","name":"ratesDecimals","type":"uint8"},{"internalType":"uint8","name":"status","type":"uint8"},{"internalType":"uint256","name":"swapRate","type":"uint256"},{"internalType":"uint256","name":"spread","type":"uint256"},{"internalType":"address","name":"assetContract","type":"address"},{"internalType":"uint256","name":"notionalAmount","type":"uint256"},{"internalType":"uint256","name":"paymentFrequency","type":"uint256"},{"internalType":"uint256","name":"startingDate","type":"uint256"},{"internalType":"uint256","name":"maturityDate","type":"uint256"},{"internalType":"uint8","name":"index","type":"uint8"}],"internalType":"struct IRSTypes.IRS","name":"_irs","type":"tuple"},{"internalType":"address","name":"_toposBankContract","type":"address"}],"stateMutability":"nonpayable","type":"constructor"},{"anonymous":false,"inputs":[{"indexed":true,"internalType":"address","name":"owner","type":"address"},{"indexed":true,"internalType":"address","name":"spender","type":"address"},{"indexed":false,"internalType":"uint256","name":"value","type":"uint256"}],"name":"Approval","type":"event"},{"anonymous":false,"inputs":[{"indexed":false,"internalType":"uint256","name":"oldBenchmark","type":"uint256"},{"indexed":false,"internalType":"uint256","name":"newBenchmark","type":"uint256"}],"name":"SetBenchmark","type":"event"},{"anonymous":false,"inputs":[{"indexed":false,"internalType":"uint256","name":"_amount","type":"uint256"},{"indexed":false,"internalType":"address","name":"_account","type":"address"}],"name":"Swap","type":"event"},{"anonymous":false,"inputs":[{"indexed":true,"internalType":"address","name":"_payer","type":"address"},{"indexed":true,"internalType":"address","name":"_receiver","type":"address"}],"name":"TerminateSwap","type":"event"},{"anonymous":false,"inputs":[{"indexed":true,"internalType":"address","name":"from","type":"address"},{"indexed":true,"internalType":"address","name":"to","type":"address"},{"indexed":false,"internalType":"uint256","name":"value","type":"uint256"}],"name":"Transfer","type":"event"},{"inputs":[{"internalType":"address","name":"owner","type":"address"},{"internalType":"address","name":"spender","type":"address"}],"name":"allowance","outputs":[{"internalType":"uint256","name":"","type":"uint256"}],"stateMutability":"view","type":"function"},{"inputs":[{"internalType":"address","name":"spender","type":"address"},{"internalType":"uint256","name":"amount","type":"uint256"}],"name":"approve","outputs":[{"internalType":"bool","name":"","type":"bool"}],"stateMutability":"nonpayable","type":"function"},{"inputs":[],"name":"assetContract","outputs":[{"internalType":"address","name":"","type":"address"}],"stateMutability":"view","type":"function"},{"inputs":[{"internalType":"address","name":"account","type":"address"}],"name":"balanceOf","outputs":[{"internalType":"uint256","name":"","type":"uint256"}],"stateMutability":"view","type":"function"},{"inputs":[],"name":"benchmark","outputs":[{"internalType":"uint256","name":"","type":"uint256"}],"stateMutability":"view","type":"function"},{"inputs":[{"internalType":"address","name":"account","type":"address"},{"internalType":"uint256","name":"amount","type":"uint256"}],"name":"burn","outputs":[{"internalType":"bool","name":"","type":"bool"}],"stateMutability":"nonpayable","type":"function"},{"inputs":[],"name":"decimals","outputs":[{"internalType":"uint8","name":"","type":"uint8"}],"stateMutability":"view","type":"function"},{"inputs":[{"internalType":"address","name":"spender","type":"address"},{"internalType":"uint256","name":"subtractedValue","type":"uint256"}],"name":"decreaseAllowance","outputs":[{"internalType":"bool","name":"","type":"bool"}],"stateMutability":"nonpayable","type":"function"},{"inputs":[],"name":"fixedInterestPayer","outputs":[{"internalType":"address","name":"","type":"address"}],"stateMutability":"view","type":"function"},{"inputs":[],"name":"fixedPayerContract","outputs":[{"internalType":"address","name":"","type":"address"}],"stateMutability":"view","type":"function"},{"inputs":[],"name":"floatingInterestPayer","outputs":[{"internalType":"address","name":"","type":"address"}],"stateMutability":"view","type":"function"},{"inputs":[],"name":"floatingPayerContract","outputs":[{"internalType":"address","name":"","type":"address"}],"stateMutability":"view","type":"function"},{"inputs":[],"name":"getFixedPayerContract","outputs":[{"internalType":"address","name":"","type":"address"}],"stateMutability":"view","type":"function"},{"inputs":[],"name":"getFloatingPayerContract","outputs":[{"internalType":"address","name":"","type":"address"}],"stateMutability":"view","type":"function"},{"inputs":[],"name":"getIRSReceipt","outputs":[{"components":[{"internalType":"address","name":"from","type":"address"},{"internalType":"address","name":"to","type":"address"},{"internalType":"address","name":"currency","type":"address"},{"internalType":"uint256","name":"amount","type":"uint256"}],"internalType":"struct IRSTypes.IRSReceipt[]","name":"","type":"tuple[]"}],"stateMutability":"view","type":"function"},{"inputs":[],"name":"getNumberOfSwaps","outputs":[{"internalType":"uint8","name":"","type":"uint8"}],"stateMutability":"view","type":"function"},{"inputs":[],"name":"getSwapCount","outputs":[{"internalType":"uint8","name":"","type":"uint8"}],"stateMutability":"view","type":"function"},{"inputs":[{"internalType":"address","name":"spender","type":"address"},{"internalType":"uint256","name":"addedValue","type":"uint256"}],"name":"increaseAllowance","outputs":[{"internalType":"bool","name":"","type":"bool"}],"stateMutability":"nonpayable","type":"function"},{"inputs":[],"name":"irsInfo","outputs":[{"components":[{"internalType":"address","name":"irsContract","type":"address"},{"internalType":"address","name":"fixedInterestPayer","type":"address"},{"internalType":"address","name":"floatingInterestPayer","type":"address"},{"internalType":"uint8","name":"ratesDecimals","type":"uint8"},{"internalType":"uint8","name":"status","type":"uint8"},{"internalType":"uint256","name":"swapRate","type":"uint256"},{"internalType":"uint256","name":"spread","type":"uint256"},{"internalType":"address","name":"assetContract","type":"address"},{"internalType":"uint256","name":"notionalAmount","type":"uint256"},{"internalType":"uint256","name":"paymentFrequency","type":"uint256"},{"internalType":"uint256","name":"startingDate","type":"uint256"},{"internalType":"uint256","name":"maturityDate","type":"uint256"},{"internalType":"uint8","name":"index","type":"uint8"}],"internalType":"struct IRSTypes.IRS","name":"","type":"tuple"}],"stateMutability":"view","type":"function"},{"inputs":[],"name":"isActive","outputs":[{"internalType":"uint8","name":"","type":"uint8"}],"stateMutability":"view","type":"function"},{"inputs":[],"name":"isContractActive","outputs":[{"internalType":"uint8","name":"","type":"uint8"}],"stateMutability":"view","type":"function"},{"inputs":[],"name":"maturityDate","outputs":[{"internalType":"uint256","name":"","type":"uint256"}],"stateMutability":"view","type":"function"},{"inputs":[{"internalType":"address","name":"account","type":"address"},{"internalType":"uint256","name":"amount","type":"uint256"}],"name":"mint","outputs":[{"internalType":"bool","name":"","type":"bool"}],"stateMutability":"nonpayable","type":"function"},{"inputs":[],"name":"name","outputs":[{"internalType":"string","name":"","type":"string"}],"stateMutability":"view","type":"function"},{"inputs":[],"name":"notionalAmount","outputs":[{"internalType":"uint256","name":"","type":"uint256"}],"stateMutability":"view","type":"function"},{"inputs":[],"name":"numberOfSwaps","outputs":[{"internalType":"uint8","name":"","type":"uint8"}],"stateMutability":"view","type":"function"},{"inputs":[],"name":"owner","outputs":[{"internalType":"address","name":"","type":"address"}],"stateMutability":"view","type":"function"},{"inputs":[],"name":"paymentFrequency","outputs":[{"internalType":"uint256","name":"","type":"uint256"}],"stateMutability":"view","type":"function"},{"inputs":[],"name":"ratesDecimals","outputs":[{"internalType":"uint8","name":"","type":"uint8"}],"stateMutability":"view","type":"function"},{"inputs":[],"name":"spread","outputs":[{"internalType":"uint256","name":"","type":"uint256"}],"stateMutability":"view","type":"function"},{"inputs":[],"name":"startingDate","outputs":[{"internalType":"uint256","name":"","type":"uint256"}],"stateMutability":"view","type":"function"},{"inputs":[],"name":"swap","outputs":[{"internalType":"bool","name":"","type":"bool"}],"stateMutability":"nonpayable","type":"function"},{"inputs":[],"name":"swapCount","outputs":[{"internalType":"uint8","name":"","type":"uint8"}],"stateMutability":"view","type":"function"},{"inputs":[],"name":"swapRate","outputs":[{"internalType":"uint256","name":"","type":"uint256"}],"stateMutability":"view","type":"function"},{"inputs":[],"name":"symbol","outputs":[{"internalType":"string","name":"","type":"string"}],"stateMutability":"view","type":"function"},{"inputs":[],"name":"terminateSwap","outputs":[],"stateMutability":"nonpayable","type":"function"},{"inputs":[],"name":"toposBankContract","outputs":[{"internalType":"address","name":"","type":"address"}],"stateMutability":"view","type":"function"},{"inputs":[],"name":"totalSupply","outputs":[{"internalType":"uint256","name":"","type":"uint256"}],"stateMutability":"view","type":"function"},{"inputs":[{"internalType":"address","name":"to","type":"address"},{"internalType":"uint256","name":"amount","type":"uint256"}],"name":"transfer","outputs":[{"internalType":"bool","name":"","type":"bool"}],"stateMutability":"nonpayable","type":"function"},{"inputs":[{"internalType":"address","name":"from","type":"address"},{"internalType":"address","name":"to","type":"address"},{"internalType":"uint256","name":"amount","type":"uint256"}],"name":"transferFrom","outputs":[{"internalType":"bool","name":"","type":"bool"}],"stateMutability":"nonpayable","type":"function"}],"evm":{"bytecode":{"linkReferences":{},"object":"60806040523462000664576200219b803803806200001d8162000669565b928339810190808203610260811262000664576200003b826200068f565b926200004a602084016200068f565b926200005960408201620006a4565b60608201519093906001600160401b0381116200066457836200007e918401620006b3565b60808301519093906001600160401b03811162000664576101a091620000a6918501620006b3565b91609f1901126200066457604051946101a086016001600160401b038111878210176200055857604052620000de60a084016200068f565b8652620000ee60c084016200068f565b60208701526200010160e084016200068f565b6040870152620001156101008401620006a4565b6060870152620001296101208401620006a4565b6080870152610140968784015160a0880152610160928385015160c0890152620001ab61024061018096620001608882016200068f565b60e08c01526101a08101516101008c01526101c08101516101208c01526101e08101518c8c0152610200810151878c0152620001a06102208201620006a4565b888c0152016200068f565b865190966001600160401b038211620005585760135490600182811c9216801562000659575b6020831014620005375781601f849311620005f8575b50602090601f83116001146200057a576000926200056e575b50508160011b916000199060031b1c1916176013555b8051906001600160401b0382116200055857601454600181811c911680156200054d575b60208210146200053757601f8111620004d1575b50602090601f831160011462000454579360ff999a95919383608098948c968e9860009262000448575b50508160011b916000199060031b1c1916176014555b600b80546001600160a01b03199081166001600160a01b0393841617909155600c8054821693831693909317909255600e80548751600080548616918516919091179055602088015160018054861691851691909117905560408801516002805460608b01519c909a01516001600160b01b03199a8b16928616929092179b891660a090811b9c909c1791891660a890811b929092179055998e015160035560c08e015160045560e08e01516005805486169185169190911790556101008e01516006556101208e0151600755978d0151600855928c0151600955928b0151600a80548c1916918616919091179055600d8054909116331790559290931690861690931b92909217921691909117600160a01b179055670de0b6b3a764000091168181029291811582850490911417156200043257671bc16d674ec800009160018060a01b03602082015116600052601060205283604060002055604060018060a01b03910151166000528260406000205502908160011c0362000432576012556002805460ff60a81b1916600160a81b179055604051611a559081620007268239f35b634e487b7160e01b600052601160045260246000fd5b01519050388062000278565b90601460005260206000209160005b601f1985168110620004b85750936001848c9d989460ff9d98948e9860809c98601f198116106200049e575b505050811b016014556200028e565b015160001960f88460031b161c191690553880806200048f565b9192602060018192868501518155019401920162000463565b60146000527fce6d7b5282bd9a3661ae061feed1dbda4e52ab073b1f9285be6e155d9c38d4ec601f840160051c8101602085106200052f575b601f830160051c82018110620005225750506200024e565b600081556001016200050a565b50806200050a565b634e487b7160e01b600052602260045260246000fd5b90607f16906200023a565b634e487b7160e01b600052604160045260246000fd5b01519050388062000200565b6013600090815293506000805160206200217b83398151915291905b601f1984168510620005dc576001945083601f19811610620005c2575b505050811b0160135562000216565b015160001960f88460031b161c19169055388080620005b3565b8181015183556020948501946001909301929091019062000596565b60136000529091506000805160206200217b833981519152601f840160051c81016020851062000651575b90849392915b601f830160051c8201811062000641575050620001e7565b6000815585945060010162000629565b508062000623565b91607f1691620001d1565b600080fd5b6040519190601f01601f191682016001600160401b038111838210176200055857604052565b51906001600160a01b03821682036200066457565b519060ff821682036200066457565b919080601f84011215620006645782516001600160401b0381116200055857602090620006e9601f8201601f1916830162000669565b92818452828287010111620006645760005b8181106200071157508260009394955001015290565b8581018301518482018401528201620006fb56fe608080604052600436101561001357600080fd5b600090813560e01c90816306fdde031461125157508063095ea7b31461122a57806318160ddd1461120c57806322f3e2d4146106e057806323b872dd14611152578063299421d41461100b5780632eff0d9e14610295578063313ce56714610fef57806338cb8a2514610c035780633950935114610f9e5780633e3ff7b614610f8057806340c10f1914610eb957806342abea7914610cfd578063442447ca14610c515780634d16304f14610c2a5780634d1d62fa14610202578063530c61cf14610c035780635c25c76c14610be5578063698518e514610bc757806370a0823114610b8f5780638119c065146107da5780638903c5a2146107495780638da5cb5b146107225780638e589315146107045780638f5949f9146106e057806395d89b41146105de5780639c34712a146105b75780639dc29fac14610456578063a26c1aa214610438578063a457c2d71461037e578063a9059cbb1461034c578063be2da87314610325578063beb9ad5f146102fe578063c4c22a84146102d7578063d59624b4146102b9578063d81671bc14610295578063dd62ed3e1461024a578063e823b1da14610226578063e8f9d2f9146102025763ecba89c5146101d957600080fd5b346101ff57806003193601126101ff5760206001600160a01b03600b5416604051908152f35b80fd5b50346101ff57806003193601126101ff57602060ff600e5460a81c16604051908152f35b50346101ff57806003193601126101ff57602060ff60025460a01c16604051908152f35b50346101ff5760403660031901126101ff576040602091610269611353565b61027161136e565b6001600160a01b039182168352601185528383209116825283522054604051908152f35b50346101ff57806003193601126101ff57602060ff600e5460b01c16604051908152f35b50346101ff57806003193601126101ff576020600954604051908152f35b50346101ff57806003193601126101ff5760206001600160a01b0360015416604051908152f35b50346101ff57806003193601126101ff5760206001600160a01b03600b5416604051908152f35b50346101ff57806003193601126101ff5760206001600160a01b0360025416604051908152f35b50346101ff5760403660031901126101ff57610373610369611353565b60243590336115ec565b602060405160018152f35b50346101ff5760403660031901126101ff57610398611353565b60406024359233815260116020528181206001600160a01b03841682526020522054918083106103ce57610373920390336118eb565b608460405162461bcd60e51b815260206004820152602560248201527f45524332303a2064656372656173656420616c6c6f77616e63652062656c6f7760448201527f207a65726f0000000000000000000000000000000000000000000000000000006064820152fd5b50346101ff57806003193601126101ff576020600654604051908152f35b50346101ff5760403660031901126101ff57610470611353565b6001600160a01b0316602435811561054d57818352601060205260408320548181106104e357817fddf252ad1be2c89b69c2b068fc378daa952ba7f163c4a11628f55a4df523b3ef92602092858752601084520360408620558060125403601255604051908152a3602060405160018152f35b608460405162461bcd60e51b815260206004820152602260248201527f45524332303a206275726e20616d6f756e7420657863656564732062616c616e60448201527f63650000000000000000000000000000000000000000000000000000000000006064820152fd5b608460405162461bcd60e51b815260206004820152602160248201527f45524332303a206275726e2066726f6d20746865207a65726f2061646472657360448201527f73000000000000000000000000000000000000000000000000000000000000006064820152fd5b50346101ff57806003193601126101ff5760206001600160a01b03600e5416604051908152f35b50346101ff57806003193601126101ff576040518160145490600182811c918184169384156106d6575b60209485851081146106c2578487529081156106a05750600114610647575b61064385610637818903826113d3565b6040519182918261130a565b0390f35b929450601483527fce6d7b5282bd9a3661ae061feed1dbda4e52ab073b1f9285be6e155d9c38d4ec5b82841061068d575050508161064393610637928201019338610627565b8054858501870152928501928101610670565b60ff191686860152505050151560051b82010191506106378161064338610627565b602483634e487b7160e01b81526022600452fd5b92607f1692610608565b50346101ff57806003193601126101ff57602060ff600e5460a01c16604051908152f35b50346101ff57806003193601126101ff576020600754604051908152f35b50346101ff57806003193601126101ff5760206001600160a01b03600d5416604051908152f35b50346101ff57806003193601126101ff57600460206001600160a01b03600e5416604051928380926379a9456960e01b82525afa9081156107cf578291610796575b602082604051908152f35b90506020813d82116107c7575b816107b0602093836113d3565b810103126107c35760209150513861078b565b5080fd5b3d91506107a3565b6040513d84823e3d90fd5b50346101ff57806003193601126101ff57600e54906001600160a01b03808316926108068433146113f5565b60019261081b8460ff809460a01c1614611440565b60025484838260a81c1603610b4b5760035460405180976379a9456960e01b825281600460209a8b935afa908115610b40578491610b0d575b50610865610878916004549061148b565b61087260065493846114ae565b926114ae565b908082036108c4576064886040519062461bcd60e51b82526004820152600e60248201527f4e6f74696e6720746f20737761700000000000000000000000000000000000006044820152fd5b81811115610ae1576108d692506114c1565b92806002541690808654169361090f8260055416604051906108f782611384565b878252858b83015260408201528760608201526114ce565b600e5487828260b01c1601828111610acd5776ff000000000000000000000000000000000000000000007fffffffffffffffffff00ffffffffffffffffffffffffffffffffffffffffffff9160b01b169116179081600e55808260a81c169160b01c1611610a895761098381875416611869565b506109918160025416611869565b50806005541693670de0b6b3a764000094858702958787041487151715610a75578291856064926127108c9660405198899788967f23b872dd00000000000000000000000000000000000000000000000000000000885216600487015216998a60248601520460448401525af180156107cf57610a42575b50507f757e61e0d078d58246a59b2ffe29975dc7053b43aa3a163b3b5b43fc1fb0c14791604091825191825285820152a1604051908152f35b8581813d8311610a6e575b610a5781836113d3565b810103126107c35751801515036101ff5780610a09565b503d610a4d565b602485634e487b7160e01b81526011600452fd5b6064876040519062461bcd60e51b82526004820152600f60248201527f416c6c20737761707320646f6e652100000000000000000000000000000000006044820152fd5b602486634e487b7160e01b81526011600452fd5b610aea916114c1565b938080875416921693610b088260055416604051906108f782611384565b61090f565b90508781813d8311610b39575b610b2481836113d3565b81010312610b355751610865610854565b8380fd5b503d610b1a565b6040513d86823e3d90fd5b606460405162461bcd60e51b815260206004820152601260248201527f4e6f74204578697374206f7220456e64656400000000000000000000000000006044820152fd5b50346101ff5760203660031901126101ff5760406020916001600160a01b03610bb6611353565b168152601083522054604051908152f35b50346101ff57806003193601126101ff576020600354604051908152f35b50346101ff57806003193601126101ff576020600454604051908152f35b50346101ff57806003193601126101ff5760206001600160a01b03600c5416604051908152f35b50346101ff57806003193601126101ff5760206001600160a01b0360055416604051908152f35b50346101ff57806003193601126101ff57600e54610c8c600160ff6001600160a01b0393610c8285821633146113f5565b60a01c1614611440565b6002549075020000000000000000000000000000000000000000007fffffffffffffffffffff00ffffffffffffffffffffffffffffffffffffffffff83161760025580600154169116907f1aa6c8c6f9b0ff26b8661bdc3ce83e7caf565c568af549f21922fa9561363cc28380a380f35b50346101ff57806003193601126101ff57806101a091610180604051610d22816113b6565b8281528260208201528260408201528260608201528260808201528260a08201528260c08201528260e082015282610100820152826101208201528261014082015282610160820152015260ff6101806001600160a01b0360405193610d87856113b6565b5416928381526001600160a01b03600154166020820152826002546001600160a01b0381166040840152818160a01c16606084015260a81c16608082015260035460a082015260045460c08201526001600160a01b036005541660e082015260065461010082015260075461012082015260085461014082015260095461016082015282600a5416828201526040519384526001600160a01b0360208201511660208501526001600160a01b03604082015116604085015282606082015116606085015282608082015116608085015260a081015160a085015260c081015160c08501526001600160a01b0360e08201511660e0850152610100810151610100850152610120810151610120850152610140810151610140850152610160810151610160850152015116610180820152f35b50346101ff5760403660031901126101ff57610ed3611353565b6001600160a01b0316906024358215610f3c57602081610f167fddf252ad1be2c89b69c2b068fc378daa952ba7f163c4a11628f55a4df523b3ef9360125461148b565b6012558484526010825260408420818154019055604051908152a3602060405160018152f35b606460405162461bcd60e51b815260206004820152601f60248201527f45524332303a206d696e7420746f20746865207a65726f2061646472657373006044820152fd5b50346101ff57806003193601126101ff576020600854604051908152f35b50346101ff5760403660031901126101ff5761037390610fe8610fbf611353565b913381526011602052604081206001600160a01b0384168252602052604060243591205461148b565b90336118eb565b50346101ff57806003193601126101ff57602060405160128152f35b50346101ff57806003193601126101ff57600f549067ffffffffffffffff821161113e579060405190602091611046838360051b01826113d3565b818152600f845282810191847f8d1108e10bcb7c27dddfc02ed9d693a074039d026cf4ea4240b40f7d581ac802845b8383106110e757505050506040519280840191818552518092526040840192945b8281106110a35784840385f35b855180516001600160a01b03908116865281840151811686850152604080830151909116908601526060908101519085015294810194608090930192600101611096565b60048760019260409a9997989a516110fe81611384565b6001600160a01b03808754168252808688015416848301526002870154166040820152600386015460608201528152019201920191909694939596611075565b80634e487b7160e01b602492526041600452fd5b50346101ff5760603660031901126101ff5761116c611353565b9061117561136e565b6040604435926001600160a01b0385168152601160205281812033825260205220549260001984036111ac575b61037393506115ec565b8284106111c8576111c383610373950333836118eb565b6111a2565b606460405162461bcd60e51b815260206004820152601d60248201527f45524332303a20696e73756666696369656e7420616c6c6f77616e63650000006044820152fd5b50346101ff57806003193601126101ff576020601254604051908152f35b50346101ff5760403660031901126101ff57610373611247611353565b60243590336118eb565b9050346107c357816003193601126107c3578160135490600182811c91818416938415611300575b60209485851081146106c2578487529081156106a057506001146112a75761064385610637818903826113d3565b929450601383527f66de8ffda797e3de9c05e8fc57b3bf0ec28a930d40b0d285d93c06501cf6a0905b8284106112ed575050508161064393610637928201019338610627565b80548585018701529285019281016112d0565b92607f1692611279565b6020808252825181830181905290939260005b82811061133f57505060409293506000838284010152601f8019910116010190565b81810186015184820160400152850161131d565b600435906001600160a01b038216820361136957565b600080fd5b602435906001600160a01b038216820361136957565b6080810190811067ffffffffffffffff8211176113a057604052565b634e487b7160e01b600052604160045260246000fd5b6101a0810190811067ffffffffffffffff8211176113a057604052565b90601f8019910116810190811067ffffffffffffffff8211176113a057604052565b156113fc57565b606460405162461bcd60e51b815260206004820152601260248201527f4f6e6c792042616e6b20436f6e747261637400000000000000000000000000006044820152fd5b1561144757565b606460405162461bcd60e51b815260206004820152600a60248201527f4e6f7420416374697665000000000000000000000000000000000000000000006044820152fd5b9190820180921161149857565b634e487b7160e01b600052601160045260246000fd5b8181029291811591840414171561149857565b9190820391821161149857565b600f54680100000000000000008110156113a0576001810180600f558110156115d65760607f8d1108e10bcb7c27dddfc02ed9d693a074039d026cf4ea4240b40f7d581ac80591600f60005260021b92837f8d1108e10bcb7c27dddfc02ed9d693a074039d026cf4ea4240b40f7d581ac802016001600160a01b0390818351169073ffffffffffffffffffffffffffffffffffffffff1991828254161790557f8d1108e10bcb7c27dddfc02ed9d693a074039d026cf4ea4240b40f7d581ac803860182602085015116828254161790557f8d1108e10bcb7c27dddfc02ed9d693a074039d026cf4ea4240b40f7d581ac804860191604084015116908254161790550151910155565b634e487b7160e01b600052603260045260246000fd5b916001600160a01b038093169182156117ff5783169283156117955760009083825260106020526040918281205484811061172c579084849287835260106020520382822055868152208381540190558060015416841460001461169757507fddf252ad1be2c89b69c2b068fc378daa952ba7f163c4a11628f55a4df523b3ef916020918573ffffffffffffffffffffffffffffffffffffffff1960015416176001555b51908152a3565b60025490811684036116e95773ffffffffffffffffffffffffffffffffffffffff191684176002557fddf252ad1be2c89b69c2b068fc378daa952ba7f163c4a11628f55a4df523b3ef91602091611690565b6064825162461bcd60e51b815260206004820152601460248201527f696e76616c69642066726f6d20616464726573730000000000000000000000006044820152fd5b6084845162461bcd60e51b815260206004820152602660248201527f45524332303a207472616e7366657220616d6f756e742065786365656473206260448201527f616c616e636500000000000000000000000000000000000000000000000000006064820152fd5b608460405162461bcd60e51b815260206004820152602360248201527f45524332303a207472616e7366657220746f20746865207a65726f206164647260448201527f65737300000000000000000000000000000000000000000000000000000000006064820152fd5b608460405162461bcd60e51b815260206004820152602560248201527f45524332303a207472616e736665722066726f6d20746865207a65726f20616460448201527f64726573730000000000000000000000000000000000000000000000000000006064820152fd5b6001600160a01b0316801561054d5780600052601060205260406000205490670de0b6b3a76400008083106104e35760207fddf252ad1be2c89b69c2b068fc378daa952ba7f163c4a11628f55a4df523b3ef9160009484865260108352670de0b6b3a763ffff19809101604087205560125401601255604051908152a3600190565b6001600160a01b038091169182156119b6571691821561194c5760207f8c5be1e5ebec7d5bd14f71427d1e84f3dd0314c0f7b2291e5b200ac8c7c3b925918360005260118252604060002085600052825280604060002055604051908152a3565b608460405162461bcd60e51b815260206004820152602260248201527f45524332303a20617070726f766520746f20746865207a65726f20616464726560448201527f73730000000000000000000000000000000000000000000000000000000000006064820152fd5b608460405162461bcd60e51b8152602060048201526024808201527f45524332303a20617070726f76652066726f6d20746865207a65726f2061646460448201527f72657373000000000000000000000000000000000000000000000000000000006064820152fdfea26469706673582212208f6ee87dbdbca48831e6c90b0391c367549c3f4d26ef457171ee2eacb175bce264736f6c6343000813003366de8ffda797e3de9c05e8fc57b3bf0ec28a930d40b0d285d93c06501cf6a090","opcodes":"PUSH1 0x80 PUSH1 0x40 MSTORE CALLVALUE PUSH3 0x664 JUMPI PUSH3 0x219B DUP1 CODESIZE SUB DUP1 PUSH3 0x1D DUP2 PUSH3 0x669 JUMP JUMPDEST SWAP3 DUP4 CODECOPY DUP2 ADD SWAP1 DUP1 DUP3 SUB PUSH2 0x260 DUP2 SLT PUSH3 0x664 JUMPI PUSH3 0x3B DUP3 PUSH3 0x68F JUMP JUMPDEST SWAP3 PUSH3 0x4A PUSH1 0x20 DUP5 ADD PUSH3 0x68F JUMP JUMPDEST SWAP3 PUSH3 0x59 PUSH1 0x40 DUP3 ADD PUSH3 0x6A4 JUMP JUMPDEST PUSH1 0x60 DUP3 ADD MLOAD SWAP1 SWAP4 SWAP1 PUSH1 0x1 PUSH1 0x1 PUSH1 0x40 SHL SUB DUP2 GT PUSH3 0x664 JUMPI DUP4 PUSH3 0x7E SWAP2 DUP5 ADD PUSH3 0x6B3 JUMP JUMPDEST PUSH1 0x80 DUP4 ADD MLOAD SWAP1 SWAP4 SWAP1 PUSH1 0x1 PUSH1 0x1 PUSH1 0x40 SHL SUB DUP2 GT PUSH3 0x664 JUMPI PUSH2 0x1A0 SWAP2 PUSH3 0xA6 SWAP2 DUP6 ADD PUSH3 0x6B3 JUMP JUMPDEST SWAP2 PUSH1 0x9F NOT ADD SLT PUSH3 0x664 JUMPI PUSH1 0x40 MLOAD SWAP5 PUSH2 0x1A0 DUP7 ADD PUSH1 0x1 PUSH1 0x1 PUSH1 0x40 SHL SUB DUP2 GT DUP8 DUP3 LT OR PUSH3 0x558 JUMPI PUSH1 0x40 MSTORE PUSH3 0xDE PUSH1 0xA0 DUP5 ADD PUSH3 0x68F JUMP JUMPDEST DUP7 MSTORE PUSH3 0xEE PUSH1 0xC0 DUP5 ADD PUSH3 0x68F JUMP JUMPDEST PUSH1 0x20 DUP8 ADD MSTORE PUSH3 0x101 PUSH1 0xE0 DUP5 ADD PUSH3 0x68F JUMP JUMPDEST PUSH1 0x40 DUP8 ADD MSTORE PUSH3 0x115 PUSH2 0x100 DUP5 ADD PUSH3 0x6A4 JUMP JUMPDEST PUSH1 0x60 DUP8 ADD MSTORE PUSH3 0x129 PUSH2 0x120 DUP5 ADD PUSH3 0x6A4 JUMP JUMPDEST PUSH1 0x80 DUP8 ADD MSTORE PUSH2 0x140 SWAP7 DUP8 DUP5 ADD MLOAD PUSH1 0xA0 DUP9 ADD MSTORE PUSH2 0x160 SWAP3 DUP4 DUP6 ADD MLOAD PUSH1 0xC0 DUP10 ADD MSTORE PUSH3 0x1AB PUSH2 0x240 PUSH2 0x180 SWAP7 PUSH3 0x160 DUP9 DUP3 ADD PUSH3 0x68F JUMP JUMPDEST PUSH1 0xE0 DUP13 ADD MSTORE PUSH2 0x1A0 DUP2 ADD MLOAD PUSH2 0x100 DUP13 ADD MSTORE PUSH2 0x1C0 DUP2 ADD MLOAD PUSH2 0x120 DUP13 ADD MSTORE PUSH2 0x1E0 DUP2 ADD MLOAD DUP13 DUP13 ADD MSTORE PUSH2 0x200 DUP2 ADD MLOAD DUP8 DUP13 ADD MSTORE PUSH3 0x1A0 PUSH2 0x220 DUP3 ADD PUSH3 0x6A4 JUMP JUMPDEST DUP9 DUP13 ADD MSTORE ADD PUSH3 0x68F JUMP JUMPDEST DUP7 MLOAD SWAP1 SWAP7 PUSH1 0x1 PUSH1 0x1 PUSH1 0x40 SHL SUB DUP3 GT PUSH3 0x558 JUMPI PUSH1 0x13 SLOAD SWAP1 PUSH1 0x1 DUP3 DUP2 SHR SWAP3 AND DUP1 ISZERO PUSH3 0x659 JUMPI JUMPDEST PUSH1 0x20 DUP4 LT EQ PUSH3 0x537 JUMPI DUP2 PUSH1 0x1F DUP5 SWAP4 GT PUSH3 0x5F8 JUMPI JUMPDEST POP PUSH1 0x20 SWAP1 PUSH1 0x1F DUP4 GT PUSH1 0x1 EQ PUSH3 0x57A JUMPI PUSH1 0x0 SWAP3 PUSH3 0x56E JUMPI JUMPDEST POP POP DUP2 PUSH1 0x1 SHL SWAP2 PUSH1 0x0 NOT SWAP1 PUSH1 0x3 SHL SHR NOT AND OR PUSH1 0x13 SSTORE JUMPDEST DUP1 MLOAD SWAP1 PUSH1 0x1 PUSH1 0x1 PUSH1 0x40 SHL SUB DUP3 GT PUSH3 0x558 JUMPI PUSH1 0x14 SLOAD PUSH1 0x1 DUP2 DUP2 SHR SWAP2 AND DUP1 ISZERO PUSH3 0x54D JUMPI JUMPDEST PUSH1 0x20 DUP3 LT EQ PUSH3 0x537 JUMPI PUSH1 0x1F DUP2 GT PUSH3 0x4D1 JUMPI JUMPDEST POP PUSH1 0x20 SWAP1 PUSH1 0x1F DUP4 GT PUSH1 0x1 EQ PUSH3 0x454 JUMPI SWAP4 PUSH1 0xFF SWAP10 SWAP11 SWAP6 SWAP2 SWAP4 DUP4 PUSH1 0x80 SWAP9 SWAP5 DUP13 SWAP7 DUP15 SWAP9 PUSH1 0x0 SWAP3 PUSH3 0x448 JUMPI JUMPDEST POP POP DUP2 PUSH1 0x1 SHL SWAP2 PUSH1 0x0 NOT SWAP1 PUSH1 0x3 SHL SHR NOT AND OR PUSH1 0x14 SSTORE JUMPDEST PUSH1 0xB DUP1 SLOAD PUSH1 0x1 PUSH1 0x1 PUSH1 0xA0 SHL SUB NOT SWAP1 DUP2 AND PUSH1 0x1 PUSH1 0x1 PUSH1 0xA0 SHL SUB SWAP4 DUP5 AND OR SWAP1 SWAP2 SSTORE PUSH1 0xC DUP1 SLOAD DUP3 AND SWAP4 DUP4 AND SWAP4 SWAP1 SWAP4 OR SWAP1 SWAP3 SSTORE PUSH1 0xE DUP1 SLOAD DUP8 MLOAD PUSH1 0x0 DUP1 SLOAD DUP7 AND SWAP2 DUP6 AND SWAP2 SWAP1 SWAP2 OR SWAP1 SSTORE PUSH1 0x20 DUP9 ADD MLOAD PUSH1 0x1 DUP1 SLOAD DUP7 AND SWAP2 DUP6 AND SWAP2 SWAP1 SWAP2 OR SWAP1 SSTORE PUSH1 0x40 DUP9 ADD MLOAD PUSH1 0x2 DUP1 SLOAD PUSH1 0x60 DUP12 ADD MLOAD SWAP13 SWAP1 SWAP11 ADD MLOAD PUSH1 0x1 PUSH1 0x1 PUSH1 0xB0 SHL SUB NOT SWAP11 DUP12 AND SWAP3 DUP7 AND SWAP3 SWAP1 SWAP3 OR SWAP12 DUP10 AND PUSH1 0xA0 SWAP1 DUP2 SHL SWAP13 SWAP1 SWAP13 OR SWAP2 DUP10 AND PUSH1 0xA8 SWAP1 DUP2 SHL SWAP3 SWAP1 SWAP3 OR SWAP1 SSTORE SWAP10 DUP15 ADD MLOAD PUSH1 0x3 SSTORE PUSH1 0xC0 DUP15 ADD MLOAD PUSH1 0x4 SSTORE PUSH1 0xE0 DUP15 ADD MLOAD PUSH1 0x5 DUP1 SLOAD DUP7 AND SWAP2 DUP6 AND SWAP2 SWAP1 SWAP2 OR SWAP1 SSTORE PUSH2 0x100 DUP15 ADD MLOAD PUSH1 0x6 SSTORE PUSH2 0x120 DUP15 ADD MLOAD PUSH1 0x7 SSTORE SWAP8 DUP14 ADD MLOAD PUSH1 0x8 SSTORE SWAP3 DUP13 ADD MLOAD PUSH1 0x9 SSTORE SWAP3 DUP12 ADD MLOAD PUSH1 0xA DUP1 SLOAD DUP13 NOT AND SWAP2 DUP7 AND SWAP2 SWAP1 SWAP2 OR SWAP1 SSTORE PUSH1 0xD DUP1 SLOAD SWAP1 SWAP2 AND CALLER OR SWAP1 SSTORE SWAP3 SWAP1 SWAP4 AND SWAP1 DUP7 AND SWAP1 SWAP4 SHL SWAP3 SWAP1 SWAP3 OR SWAP3 AND SWAP2 SWAP1 SWAP2 OR PUSH1 0x1 PUSH1 0xA0 SHL OR SWAP1 SSTORE PUSH8 0xDE0B6B3A7640000 SWAP2 AND DUP2 DUP2 MUL SWAP3 SWAP2 DUP2 ISZERO DUP3 DUP6 DIV SWAP1 SWAP2 EQ OR ISZERO PUSH3 0x432 JUMPI PUSH8 0x1BC16D674EC80000 SWAP2 PUSH1 0x1 DUP1 PUSH1 0xA0 SHL SUB PUSH1 0x20 DUP3 ADD MLOAD AND PUSH1 0x0 MSTORE PUSH1 0x10 PUSH1 0x20 MSTORE DUP4 PUSH1 0x40 PUSH1 0x0 KECCAK256 SSTORE PUSH1 0x40 PUSH1 0x1 DUP1 PUSH1 0xA0 SHL SUB SWAP2 ADD MLOAD AND PUSH1 0x0 MSTORE DUP3 PUSH1 0x40 PUSH1 0x0 KECCAK256 SSTORE MUL SWAP1 DUP2 PUSH1 0x1 SHR SUB PUSH3 0x432 JUMPI PUSH1 0x12 SSTORE PUSH1 0x2 DUP1 SLOAD PUSH1 0xFF PUSH1 0xA8 SHL NOT AND PUSH1 0x1 PUSH1 0xA8 SHL OR SWAP1 SSTORE PUSH1 0x40 MLOAD PUSH2 0x1A55 SWAP1 DUP2 PUSH3 0x726 DUP3 CODECOPY RETURN JUMPDEST PUSH4 0x4E487B71 PUSH1 0xE0 SHL PUSH1 0x0 MSTORE PUSH1 0x11 PUSH1 0x4 MSTORE PUSH1 0x24 PUSH1 0x0 REVERT JUMPDEST ADD MLOAD SWAP1 POP CODESIZE DUP1 PUSH3 0x278 JUMP JUMPDEST SWAP1 PUSH1 0x14 PUSH1 0x0 MSTORE PUSH1 0x20 PUSH1 0x0 KECCAK256 SWAP2 PUSH1 0x0 JUMPDEST PUSH1 0x1F NOT DUP6 AND DUP2 LT PUSH3 0x4B8 JUMPI POP SWAP4 PUSH1 0x1 DUP5 DUP13 SWAP14 SWAP9 SWAP5 PUSH1 0xFF SWAP14 SWAP9 SWAP5 DUP15 SWAP9 PUSH1 0x80 SWAP13 SWAP9 PUSH1 0x1F NOT DUP2 AND LT PUSH3 0x49E JUMPI JUMPDEST POP POP POP DUP2 SHL ADD PUSH1 0x14 SSTORE PUSH3 0x28E JUMP JUMPDEST ADD MLOAD PUSH1 0x0 NOT PUSH1 0xF8 DUP5 PUSH1 0x3 SHL AND SHR NOT AND SWAP1 SSTORE CODESIZE DUP1 DUP1 PUSH3 0x48F JUMP JUMPDEST SWAP2 SWAP3 PUSH1 0x20 PUSH1 0x1 DUP2 SWAP3 DUP7 DUP6 ADD MLOAD DUP2 SSTORE ADD SWAP5 ADD SWAP3 ADD PUSH3 0x463 JUMP JUMPDEST PUSH1 0x14 PUSH1 0x0 MSTORE PUSH32 0xCE6D7B5282BD9A3661AE061FEED1DBDA4E52AB073B1F9285BE6E155D9C38D4EC PUSH1 0x1F DUP5 ADD PUSH1 0x5 SHR DUP2 ADD PUSH1 0x20 DUP6 LT PUSH3 0x52F JUMPI JUMPDEST PUSH1 0x1F DUP4 ADD PUSH1 0x5 SHR DUP3 ADD DUP2 LT PUSH3 0x522 JUMPI POP POP PUSH3 0x24E JUMP JUMPDEST PUSH1 0x0 DUP2 SSTORE PUSH1 0x1 ADD PUSH3 0x50A JUMP JUMPDEST POP DUP1 PUSH3 0x50A JUMP JUMPDEST PUSH4 0x4E487B71 PUSH1 0xE0 SHL PUSH1 0x0 MSTORE PUSH1 0x22 PUSH1 0x4 MSTORE PUSH1 0x24 PUSH1 0x0 REVERT JUMPDEST SWAP1 PUSH1 0x7F AND SWAP1 PUSH3 0x23A JUMP JUMPDEST PUSH4 0x4E487B71 PUSH1 0xE0 SHL PUSH1 0x0 MSTORE PUSH1 0x41 PUSH1 0x4 MSTORE PUSH1 0x24 PUSH1 0x0 REVERT JUMPDEST ADD MLOAD SWAP1 POP CODESIZE DUP1 PUSH3 0x200 JUMP JUMPDEST PUSH1 0x13 PUSH1 0x0 SWAP1 DUP2 MSTORE SWAP4 POP PUSH1 0x0 DUP1 MLOAD PUSH1 0x20 PUSH3 0x217B DUP4 CODECOPY DUP2 MLOAD SWAP2 MSTORE SWAP2 SWAP1 JUMPDEST PUSH1 0x1F NOT DUP5 AND DUP6 LT PUSH3 0x5DC JUMPI PUSH1 0x1 SWAP5 POP DUP4 PUSH1 0x1F NOT DUP2 AND LT PUSH3 0x5C2 JUMPI JUMPDEST POP POP POP DUP2 SHL ADD PUSH1 0x13 SSTORE PUSH3 0x216 JUMP JUMPDEST ADD MLOAD PUSH1 0x0 NOT PUSH1 0xF8 DUP5 PUSH1 0x3 SHL AND SHR NOT AND SWAP1 SSTORE CODESIZE DUP1 DUP1 PUSH3 0x5B3 JUMP JUMPDEST DUP2 DUP2 ADD MLOAD DUP4 SSTORE PUSH1 0x20 SWAP5 DUP6 ADD SWAP5 PUSH1 0x1 SWAP1 SWAP4 ADD SWAP3 SWAP1 SWAP2 ADD SWAP1 PUSH3 0x596 JUMP JUMPDEST PUSH1 0x13 PUSH1 0x0 MSTORE SWAP1 SWAP2 POP PUSH1 0x0 DUP1 MLOAD PUSH1 0x20 PUSH3 0x217B DUP4 CODECOPY DUP2 MLOAD SWAP2 MSTORE PUSH1 0x1F DUP5 ADD PUSH1 0x5 SHR DUP2 ADD PUSH1 0x20 DUP6 LT PUSH3 0x651 JUMPI JUMPDEST SWAP1 DUP5 SWAP4 SWAP3 SWAP2 JUMPDEST PUSH1 0x1F DUP4 ADD PUSH1 0x5 SHR DUP3 ADD DUP2 LT PUSH3 0x641 JUMPI POP POP PUSH3 0x1E7 JUMP JUMPDEST PUSH1 0x0 DUP2 SSTORE DUP6 SWAP5 POP PUSH1 0x1 ADD PUSH3 0x629 JUMP JUMPDEST POP DUP1 PUSH3 0x623 JUMP JUMPDEST SWAP2 PUSH1 0x7F AND SWAP2 PUSH3 0x1D1 JUMP JUMPDEST PUSH1 0x0 DUP1 REVERT JUMPDEST PUSH1 0x40 MLOAD SWAP2 SWAP1 PUSH1 0x1F ADD PUSH1 0x1F NOT AND DUP3 ADD PUSH1 0x1 PUSH1 0x1 PUSH1 0x40 SHL SUB DUP2 GT DUP4 DUP3 LT OR PUSH3 0x558 JUMPI PUSH1 0x40 MSTORE JUMP JUMPDEST MLOAD SWAP1 PUSH1 0x1 PUSH1 0x1 PUSH1 0xA0 SHL SUB DUP3 AND DUP3 SUB PUSH3 0x664 JUMPI JUMP JUMPDEST MLOAD SWAP1 PUSH1 0xFF DUP3 AND DUP3 SUB PUSH3 0x664 JUMPI JUMP JUMPDEST SWAP2 SWAP1 DUP1 PUSH1 0x1F DUP5 ADD SLT ISZERO PUSH3 0x664 JUMPI DUP3 MLOAD PUSH1 0x1 PUSH1 0x1 PUSH1 0x40 SHL SUB DUP2 GT PUSH3 0x558 JUMPI PUSH1 0x20 SWAP1 PUSH3 0x6E9 PUSH1 0x1F DUP3 ADD PUSH1 0x1F NOT AND DUP4 ADD PUSH3 0x669 JUMP JUMPDEST SWAP3 DUP2 DUP5 MSTORE DUP3 DUP3 DUP8 ADD ADD GT PUSH3 0x664 JUMPI PUSH1 0x0 JUMPDEST DUP2 DUP2 LT PUSH3 0x711 JUMPI POP DUP3 PUSH1 0x0 SWAP4 SWAP5 SWAP6 POP ADD ADD MSTORE SWAP1 JUMP JUMPDEST DUP6 DUP2 ADD DUP4 ADD MLOAD DUP5 DUP3 ADD DUP5 ADD MSTORE DUP3 ADD PUSH3 0x6FB JUMP INVALID PUSH1 0x80 DUP1 PUSH1 0x40 MSTORE PUSH1 0x4 CALLDATASIZE LT ISZERO PUSH2 0x13 JUMPI PUSH1 0x0 DUP1 REVERT JUMPDEST PUSH1 0x0 SWAP1 DUP2 CALLDATALOAD PUSH1 0xE0 SHR SWAP1 DUP2 PUSH4 0x6FDDE03 EQ PUSH2 0x1251 JUMPI POP DUP1 PUSH4 0x95EA7B3 EQ PUSH2 0x122A JUMPI DUP1 PUSH4 0x18160DDD EQ PUSH2 0x120C JUMPI DUP1 PUSH4 0x22F3E2D4 EQ PUSH2 0x6E0 JUMPI DUP1 PUSH4 0x23B872DD EQ PUSH2 0x1152 JUMPI DUP1 PUSH4 0x299421D4 EQ PUSH2 0x100B JUMPI DUP1 PUSH4 0x2EFF0D9E EQ PUSH2 0x295 JUMPI DUP1 PUSH4 0x313CE567 EQ PUSH2 0xFEF JUMPI DUP1 PUSH4 0x38CB8A25 EQ PUSH2 0xC03 JUMPI DUP1 PUSH4 0x39509351 EQ PUSH2 0xF9E JUMPI DUP1 PUSH4 0x3E3FF7B6 EQ PUSH2 0xF80 JUMPI DUP1 PUSH4 0x40C10F19 EQ PUSH2 0xEB9 JUMPI DUP1 PUSH4 0x42ABEA79 EQ PUSH2 0xCFD JUMPI DUP1 PUSH4 0x442447CA EQ PUSH2 0xC51 JUMPI DUP1 PUSH4 0x4D16304F EQ PUSH2 0xC2A JUMPI DUP1 PUSH4 0x4D1D62FA EQ PUSH2 0x202 JUMPI DUP1 PUSH4 0x530C61CF EQ PUSH2 0xC03 JUMPI DUP1 PUSH4 0x5C25C76C EQ PUSH2 0xBE5 JUMPI DUP1 PUSH4 0x698518E5 EQ PUSH2 0xBC7 JUMPI DUP1 PUSH4 0x70A08231 EQ PUSH2 0xB8F JUMPI DUP1 PUSH4 0x8119C065 EQ PUSH2 0x7DA JUMPI DUP1 PUSH4 0x8903C5A2 EQ PUSH2 0x749 JUMPI DUP1 PUSH4 0x8DA5CB5B EQ PUSH2 0x722 JUMPI DUP1 PUSH4 0x8E589315 EQ PUSH2 0x704 JUMPI DUP1 PUSH4 0x8F5949F9 EQ PUSH2 0x6E0 JUMPI DUP1 PUSH4 0x95D89B41 EQ PUSH2 0x5DE JUMPI DUP1 PUSH4 0x9C34712A EQ PUSH2 0x5B7 JUMPI DUP1 PUSH4 0x9DC29FAC EQ PUSH2 0x456 JUMPI DUP1 PUSH4 0xA26C1AA2 EQ PUSH2 0x438 JUMPI DUP1 PUSH4 0xA457C2D7 EQ PUSH2 0x37E JUMPI DUP1 PUSH4 0xA9059CBB EQ PUSH2 0x34C JUMPI DUP1 PUSH4 0xBE2DA873 EQ PUSH2 0x325 JUMPI DUP1 PUSH4 0xBEB9AD5F EQ PUSH2 0x2FE JUMPI DUP1 PUSH4 0xC4C22A84 EQ PUSH2 0x2D7 JUMPI DUP1 PUSH4 0xD59624B4 EQ PUSH2 0x2B9 JUMPI DUP1 PUSH4 0xD81671BC EQ PUSH2 0x295 JUMPI DUP1 PUSH4 0xDD62ED3E EQ PUSH2 0x24A JUMPI DUP1 PUSH4 0xE823B1DA EQ PUSH2 0x226 JUMPI DUP1 PUSH4 0xE8F9D2F9 EQ PUSH2 0x202 JUMPI PUSH4 0xECBA89C5 EQ PUSH2 0x1D9 JUMPI PUSH1 0x0 DUP1 REVERT JUMPDEST CALLVALUE PUSH2 0x1FF JUMPI DUP1 PUSH1 0x3 NOT CALLDATASIZE ADD SLT PUSH2 0x1FF JUMPI PUSH1 0x20 PUSH1 0x1 PUSH1 0x1 PUSH1 0xA0 SHL SUB PUSH1 0xB SLOAD AND PUSH1 0x40 MLOAD SWAP1 DUP2 MSTORE RETURN JUMPDEST DUP1 REVERT JUMPDEST POP CALLVALUE PUSH2 0x1FF JUMPI DUP1 PUSH1 0x3 NOT CALLDATASIZE ADD SLT PUSH2 0x1FF JUMPI PUSH1 0x20 PUSH1 0xFF PUSH1 0xE SLOAD PUSH1 0xA8 SHR AND PUSH1 0x40 MLOAD SWAP1 DUP2 MSTORE RETURN JUMPDEST POP CALLVALUE PUSH2 0x1FF JUMPI DUP1 PUSH1 0x3 NOT CALLDATASIZE ADD SLT PUSH2 0x1FF JUMPI PUSH1 0x20 PUSH1 0xFF PUSH1 0x2 SLOAD PUSH1 0xA0 SHR AND PUSH1 0x40 MLOAD SWAP1 DUP2 MSTORE RETURN JUMPDEST POP CALLVALUE PUSH2 0x1FF JUMPI PUSH1 0x40 CALLDATASIZE PUSH1 0x3 NOT ADD SLT PUSH2 0x1FF JUMPI PUSH1 0x40 PUSH1 0x20 SWAP2 PUSH2 0x269 PUSH2 0x1353 JUMP JUMPDEST PUSH2 0x271 PUSH2 0x136E JUMP JUMPDEST PUSH1 0x1 PUSH1 0x1 PUSH1 0xA0 SHL SUB SWAP2 DUP3 AND DUP4 MSTORE PUSH1 0x11 DUP6 MSTORE DUP4 DUP4 KECCAK256 SWAP2 AND DUP3 MSTORE DUP4 MSTORE KECCAK256 SLOAD PUSH1 0x40 MLOAD SWAP1 DUP2 MSTORE RETURN JUMPDEST POP CALLVALUE PUSH2 0x1FF JUMPI DUP1 PUSH1 0x3 NOT CALLDATASIZE ADD SLT PUSH2 0x1FF JUMPI PUSH1 0x20 PUSH1 0xFF PUSH1 0xE SLOAD PUSH1 0xB0 SHR AND PUSH1 0x40 MLOAD SWAP1 DUP2 MSTORE RETURN JUMPDEST POP CALLVALUE PUSH2 0x1FF JUMPI DUP1 PUSH1 0x3 NOT CALLDATASIZE ADD SLT PUSH2 0x1FF JUMPI PUSH1 0x20 PUSH1 0x9 SLOAD PUSH1 0x40 MLOAD SWAP1 DUP2 MSTORE RETURN JUMPDEST POP CALLVALUE PUSH2 0x1FF JUMPI DUP1 PUSH1 0x3 NOT CALLDATASIZE ADD SLT PUSH2 0x1FF JUMPI PUSH1 0x20 PUSH1 0x1 PUSH1 0x1 PUSH1 0xA0 SHL SUB PUSH1 0x1 SLOAD AND PUSH1 0x40 MLOAD SWAP1 DUP2 MSTORE RETURN JUMPDEST POP CALLVALUE PUSH2 0x1FF JUMPI DUP1 PUSH1 0x3 NOT CALLDATASIZE ADD SLT PUSH2 0x1FF JUMPI PUSH1 0x20 PUSH1 0x1 PUSH1 0x1 PUSH1 0xA0 SHL SUB PUSH1 0xB SLOAD AND PUSH1 0x40 MLOAD SWAP1 DUP2 MSTORE RETURN JUMPDEST POP CALLVALUE PUSH2 0x1FF JUMPI DUP1 PUSH1 0x3 NOT CALLDATASIZE ADD SLT PUSH2 0x1FF JUMPI PUSH1 0x20 PUSH1 0x1 PUSH1 0x1 PUSH1 0xA0 SHL SUB PUSH1 0x2 SLOAD AND PUSH1 0x40 MLOAD SWAP1 DUP2 MSTORE RETURN JUMPDEST POP CALLVALUE PUSH2 0x1FF JUMPI PUSH1 0x40 CALLDATASIZE PUSH1 0x3 NOT ADD SLT PUSH2 0x1FF JUMPI PUSH2 0x373 PUSH2 0x369 PUSH2 0x1353 JUMP JUMPDEST PUSH1 0x24 CALLDATALOAD SWAP1 CALLER PUSH2 0x15EC JUMP JUMPDEST PUSH1 0x20 PUSH1 0x40 MLOAD PUSH1 0x1 DUP2 MSTORE RETURN JUMPDEST POP CALLVALUE PUSH2 0x1FF JUMPI PUSH1 0x40 CALLDATASIZE PUSH1 0x3 NOT ADD SLT PUSH2 0x1FF JUMPI PUSH2 0x398 PUSH2 0x1353 JUMP JUMPDEST PUSH1 0x40 PUSH1 0x24 CALLDATALOAD SWAP3 CALLER DUP2 MSTORE PUSH1 0x11 PUSH1 0x20 MSTORE DUP2 DUP2 KECCAK256 PUSH1 0x1 PUSH1 0x1 PUSH1 0xA0 SHL SUB DUP5 AND DUP3 MSTORE PUSH1 0x20 MSTORE KECCAK256 SLOAD SWAP2 DUP1 DUP4 LT PUSH2 0x3CE JUMPI PUSH2 0x373 SWAP3 SUB SWAP1 CALLER PUSH2 0x18EB JUMP JUMPDEST PUSH1 0x84 PUSH1 0x40 MLOAD PUSH3 0x461BCD PUSH1 0xE5 SHL DUP2 MSTORE PUSH1 0x20 PUSH1 0x4 DUP3 ADD MSTORE PUSH1 0x25 PUSH1 0x24 DUP3 ADD MSTORE PUSH32 0x45524332303A2064656372656173656420616C6C6F77616E63652062656C6F77 PUSH1 0x44 DUP3 ADD MSTORE PUSH32 0x207A65726F000000000000000000000000000000000000000000000000000000 PUSH1 0x64 DUP3 ADD MSTORE REVERT JUMPDEST POP CALLVALUE PUSH2 0x1FF JUMPI DUP1 PUSH1 0x3 NOT CALLDATASIZE ADD SLT PUSH2 0x1FF JUMPI PUSH1 0x20 PUSH1 0x6 SLOAD PUSH1 0x40 MLOAD SWAP1 DUP2 MSTORE RETURN JUMPDEST POP CALLVALUE PUSH2 0x1FF JUMPI PUSH1 0x40 CALLDATASIZE PUSH1 0x3 NOT ADD SLT PUSH2 0x1FF JUMPI PUSH2 0x470 PUSH2 0x1353 JUMP JUMPDEST PUSH1 0x1 PUSH1 0x1 PUSH1 0xA0 SHL SUB AND PUSH1 0x24 CALLDATALOAD DUP2 ISZERO PUSH2 0x54D JUMPI DUP2 DUP4 MSTORE PUSH1 0x10 PUSH1 0x20 MSTORE PUSH1 0x40 DUP4 KECCAK256 SLOAD DUP2 DUP2 LT PUSH2 0x4E3 JUMPI DUP2 PUSH32 0xDDF252AD1BE2C89B69C2B068FC378DAA952BA7F163C4A11628F55A4DF523B3EF SWAP3 PUSH1 0x20 SWAP3 DUP6 DUP8 MSTORE PUSH1 0x10 DUP5 MSTORE SUB PUSH1 0x40 DUP7 KECCAK256 SSTORE DUP1 PUSH1 0x12 SLOAD SUB PUSH1 0x12 SSTORE PUSH1 0x40 MLOAD SWAP1 DUP2 MSTORE LOG3 PUSH1 0x20 PUSH1 0x40 MLOAD PUSH1 0x1 DUP2 MSTORE RETURN JUMPDEST PUSH1 0x84 PUSH1 0x40 MLOAD PUSH3 0x461BCD PUSH1 0xE5 SHL DUP2 MSTORE PUSH1 0x20 PUSH1 0x4 DUP3 ADD MSTORE PUSH1 0x22 PUSH1 0x24 DUP3 ADD MSTORE PUSH32 0x45524332303A206275726E20616D6F756E7420657863656564732062616C616E PUSH1 0x44 DUP3 ADD MSTORE PUSH32 0x6365000000000000000000000000000000000000000000000000000000000000 PUSH1 0x64 DUP3 ADD MSTORE REVERT JUMPDEST PUSH1 0x84 PUSH1 0x40 MLOAD PUSH3 0x461BCD PUSH1 0xE5 SHL DUP2 MSTORE PUSH1 0x20 PUSH1 0x4 DUP3 ADD MSTORE PUSH1 0x21 PUSH1 0x24 DUP3 ADD MSTORE PUSH32 0x45524332303A206275726E2066726F6D20746865207A65726F20616464726573 PUSH1 0x44 DUP3 ADD MSTORE PUSH32 0x7300000000000000000000000000000000000000000000000000000000000000 PUSH1 0x64 DUP3 ADD MSTORE REVERT JUMPDEST POP CALLVALUE PUSH2 0x1FF JUMPI DUP1 PUSH1 0x3 NOT CALLDATASIZE ADD SLT PUSH2 0x1FF JUMPI PUSH1 0x20 PUSH1 0x1 PUSH1 0x1 PUSH1 0xA0 SHL SUB PUSH1 0xE SLOAD AND PUSH1 0x40 MLOAD SWAP1 DUP2 MSTORE RETURN JUMPDEST POP CALLVALUE PUSH2 0x1FF JUMPI DUP1 PUSH1 0x3 NOT CALLDATASIZE ADD SLT PUSH2 0x1FF JUMPI PUSH1 0x40 MLOAD DUP2 PUSH1 0x14 SLOAD SWAP1 PUSH1 0x1 DUP3 DUP2 SHR SWAP2 DUP2 DUP5 AND SWAP4 DUP5 ISZERO PUSH2 0x6D6 JUMPI JUMPDEST PUSH1 0x20 SWAP5 DUP6 DUP6 LT DUP2 EQ PUSH2 0x6C2 JUMPI DUP5 DUP8 MSTORE SWAP1 DUP2 ISZERO PUSH2 0x6A0 JUMPI POP PUSH1 0x1 EQ PUSH2 0x647 JUMPI JUMPDEST PUSH2 0x643 DUP6 PUSH2 0x637 DUP2 DUP10 SUB DUP3 PUSH2 0x13D3 JUMP JUMPDEST PUSH1 0x40 MLOAD SWAP2 DUP3 SWAP2 DUP3 PUSH2 0x130A JUMP JUMPDEST SUB SWAP1 RETURN JUMPDEST SWAP3 SWAP5 POP PUSH1 0x14 DUP4 MSTORE PUSH32 0xCE6D7B5282BD9A3661AE061FEED1DBDA4E52AB073B1F9285BE6E155D9C38D4EC JUMPDEST DUP3 DUP5 LT PUSH2 0x68D JUMPI POP POP POP DUP2 PUSH2 0x643 SWAP4 PUSH2 0x637 SWAP3 DUP3 ADD ADD SWAP4 CODESIZE PUSH2 0x627 JUMP JUMPDEST DUP1 SLOAD DUP6 DUP6 ADD DUP8 ADD MSTORE SWAP3 DUP6 ADD SWAP3 DUP2 ADD PUSH2 0x670 JUMP JUMPDEST PUSH1 0xFF NOT AND DUP7 DUP7 ADD MSTORE POP POP POP ISZERO ISZERO PUSH1 0x5 SHL DUP3 ADD ADD SWAP2 POP PUSH2 0x637 DUP2 PUSH2 0x643 CODESIZE PUSH2 0x627 JUMP JUMPDEST PUSH1 0x24 DUP4 PUSH4 0x4E487B71 PUSH1 0xE0 SHL DUP2 MSTORE PUSH1 0x22 PUSH1 0x4 MSTORE REVERT JUMPDEST SWAP3 PUSH1 0x7F AND SWAP3 PUSH2 0x608 JUMP JUMPDEST POP CALLVALUE PUSH2 0x1FF JUMPI DUP1 PUSH1 0x3 NOT CALLDATASIZE ADD SLT PUSH2 0x1FF JUMPI PUSH1 0x20 PUSH1 0xFF PUSH1 0xE SLOAD PUSH1 0xA0 SHR AND PUSH1 0x40 MLOAD SWAP1 DUP2 MSTORE RETURN JUMPDEST POP CALLVALUE PUSH2 0x1FF JUMPI DUP1 PUSH1 0x3 NOT CALLDATASIZE ADD SLT PUSH2 0x1FF JUMPI PUSH1 0x20 PUSH1 0x7 SLOAD PUSH1 0x40 MLOAD SWAP1 DUP2 MSTORE RETURN JUMPDEST POP CALLVALUE PUSH2 0x1FF JUMPI DUP1 PUSH1 0x3 NOT CALLDATASIZE ADD SLT PUSH2 0x1FF JUMPI PUSH1 0x20 PUSH1 0x1 PUSH1 0x1 PUSH1 0xA0 SHL SUB PUSH1 0xD SLOAD AND PUSH1 0x40 MLOAD SWAP1 DUP2 MSTORE RETURN JUMPDEST POP CALLVALUE PUSH2 0x1FF JUMPI DUP1 PUSH1 0x3 NOT CALLDATASIZE ADD SLT PUSH2 0x1FF JUMPI PUSH1 0x4 PUSH1 0x20 PUSH1 0x1 PUSH1 0x1 PUSH1 0xA0 SHL SUB PUSH1 0xE SLOAD AND PUSH1 0x40 MLOAD SWAP3 DUP4 DUP1 SWAP3 PUSH4 0x79A94569 PUSH1 0xE0 SHL DUP3 MSTORE GAS STATICCALL SWAP1 DUP2 ISZERO PUSH2 0x7CF JUMPI DUP3 SWAP2 PUSH2 0x796 JUMPI JUMPDEST PUSH1 0x20 DUP3 PUSH1 0x40 MLOAD SWAP1 DUP2 MSTORE RETURN JUMPDEST SWAP1 POP PUSH1 0x20 DUP2 RETURNDATASIZE DUP3 GT PUSH2 0x7C7 JUMPI JUMPDEST DUP2 PUSH2 0x7B0 PUSH1 0x20 SWAP4 DUP4 PUSH2 0x13D3 JUMP JUMPDEST DUP2 ADD SUB SLT PUSH2 0x7C3 JUMPI PUSH1 0x20 SWAP2 POP MLOAD CODESIZE PUSH2 0x78B JUMP JUMPDEST POP DUP1 REVERT JUMPDEST RETURNDATASIZE SWAP2 POP PUSH2 0x7A3 JUMP JUMPDEST PUSH1 0x40 MLOAD RETURNDATASIZE DUP5 DUP3 RETURNDATACOPY RETURNDATASIZE SWAP1 REVERT JUMPDEST POP CALLVALUE PUSH2 0x1FF JUMPI DUP1 PUSH1 0x3 NOT CALLDATASIZE ADD SLT PUSH2 0x1FF JUMPI PUSH1 0xE SLOAD SWAP1 PUSH1 0x1 PUSH1 0x1 PUSH1 0xA0 SHL SUB DUP1 DUP4 AND SWAP3 PUSH2 0x806 DUP5 CALLER EQ PUSH2 0x13F5 JUMP JUMPDEST PUSH1 0x1 SWAP3 PUSH2 0x81B DUP5 PUSH1 0xFF DUP1 SWAP5 PUSH1 0xA0 SHR AND EQ PUSH2 0x1440 JUMP JUMPDEST PUSH1 0x2 SLOAD DUP5 DUP4 DUP3 PUSH1 0xA8 SHR AND SUB PUSH2 0xB4B JUMPI PUSH1 0x3 SLOAD PUSH1 0x40 MLOAD DUP1 SWAP8 PUSH4 0x79A94569 PUSH1 0xE0 SHL DUP3 MSTORE DUP2 PUSH1 0x4 PUSH1 0x20 SWAP11 DUP12 SWAP4 GAS STATICCALL SWAP1 DUP2 ISZERO PUSH2 0xB40 JUMPI DUP5 SWAP2 PUSH2 0xB0D JUMPI JUMPDEST POP PUSH2 0x865 PUSH2 0x878 SWAP2 PUSH1 0x4 SLOAD SWAP1 PUSH2 0x148B JUMP JUMPDEST PUSH2 0x872 PUSH1 0x6 SLOAD SWAP4 DUP5 PUSH2 0x14AE JUMP JUMPDEST SWAP3 PUSH2 0x14AE JUMP JUMPDEST SWAP1 DUP1 DUP3 SUB PUSH2 0x8C4 JUMPI PUSH1 0x64 DUP9 PUSH1 0x40 MLOAD SWAP1 PUSH3 0x461BCD PUSH1 0xE5 SHL DUP3 MSTORE PUSH1 0x4 DUP3 ADD MSTORE PUSH1 0xE PUSH1 0x24 DUP3 ADD MSTORE PUSH32 0x4E6F74696E6720746F2073776170000000000000000000000000000000000000 PUSH1 0x44 DUP3 ADD MSTORE REVERT JUMPDEST DUP2 DUP2 GT ISZERO PUSH2 0xAE1 JUMPI PUSH2 0x8D6 SWAP3 POP PUSH2 0x14C1 JUMP JUMPDEST SWAP3 DUP1 PUSH1 0x2 SLOAD AND SWAP1 DUP1 DUP7 SLOAD AND SWAP4 PUSH2 0x90F DUP3 PUSH1 0x5 SLOAD AND PUSH1 0x40 MLOAD SWAP1 PUSH2 0x8F7 DUP3 PUSH2 0x1384 JUMP JUMPDEST DUP8 DUP3 MSTORE DUP6 DUP12 DUP4 ADD MSTORE PUSH1 0x40 DUP3 ADD MSTORE DUP8 PUSH1 0x60 DUP3 ADD MSTORE PUSH2 0x14CE JUMP JUMPDEST PUSH1 0xE SLOAD DUP8 DUP3 DUP3 PUSH1 0xB0 SHR AND ADD DUP3 DUP2 GT PUSH2 0xACD JUMPI PUSH23 0xFF00000000000000000000000000000000000000000000 PUSH32 0xFFFFFFFFFFFFFFFFFF00FFFFFFFFFFFFFFFFFFFFFFFFFFFFFFFFFFFFFFFFFFFF SWAP2 PUSH1 0xB0 SHL AND SWAP2 AND OR SWAP1 DUP2 PUSH1 0xE SSTORE DUP1 DUP3 PUSH1 0xA8 SHR AND SWAP2 PUSH1 0xB0 SHR AND GT PUSH2 0xA89 JUMPI PUSH2 0x983 DUP2 DUP8 SLOAD AND PUSH2 0x1869 JUMP JUMPDEST POP PUSH2 0x991 DUP2 PUSH1 0x2 SLOAD AND PUSH2 0x1869 JUMP JUMPDEST POP DUP1 PUSH1 0x5 SLOAD AND SWAP4 PUSH8 0xDE0B6B3A7640000 SWAP5 DUP6 DUP8 MUL SWAP6 DUP8 DUP8 DIV EQ DUP8 ISZERO OR ISZERO PUSH2 0xA75 JUMPI DUP3 SWAP2 DUP6 PUSH1 0x64 SWAP3 PUSH2 0x2710 DUP13 SWAP7 PUSH1 0x40 MLOAD SWAP9 DUP10 SWAP8 DUP9 SWAP7 PUSH32 0x23B872DD00000000000000000000000000000000000000000000000000000000 DUP9 MSTORE AND PUSH1 0x4 DUP8 ADD MSTORE AND SWAP10 DUP11 PUSH1 0x24 DUP7 ADD MSTORE DIV PUSH1 0x44 DUP5 ADD MSTORE GAS CALL DUP1 ISZERO PUSH2 0x7CF JUMPI PUSH2 0xA42 JUMPI JUMPDEST POP POP PUSH32 0x757E61E0D078D58246A59B2FFE29975DC7053B43AA3A163B3B5B43FC1FB0C147 SWAP2 PUSH1 0x40 SWAP2 DUP3 MLOAD SWAP2 DUP3 MSTORE DUP6 DUP3 ADD MSTORE LOG1 PUSH1 0x40 MLOAD SWAP1 DUP2 MSTORE RETURN JUMPDEST DUP6 DUP2 DUP2 RETURNDATASIZE DUP4 GT PUSH2 0xA6E JUMPI JUMPDEST PUSH2 0xA57 DUP2 DUP4 PUSH2 0x13D3 JUMP JUMPDEST DUP2 ADD SUB SLT PUSH2 0x7C3 JUMPI MLOAD DUP1 ISZERO ISZERO SUB PUSH2 0x1FF JUMPI DUP1 PUSH2 0xA09 JUMP JUMPDEST POP RETURNDATASIZE PUSH2 0xA4D JUMP JUMPDEST PUSH1 0x24 DUP6 PUSH4 0x4E487B71 PUSH1 0xE0 SHL DUP2 MSTORE PUSH1 0x11 PUSH1 0x4 MSTORE REVERT JUMPDEST PUSH1 0x64 DUP8 PUSH1 0x40 MLOAD SWAP1 PUSH3 0x461BCD PUSH1 0xE5 SHL DUP3 MSTORE PUSH1 0x4 DUP3 ADD MSTORE PUSH1 0xF PUSH1 0x24 DUP3 ADD MSTORE PUSH32 0x416C6C20737761707320646F6E65210000000000000000000000000000000000 PUSH1 0x44 DUP3 ADD MSTORE REVERT JUMPDEST PUSH1 0x24 DUP7 PUSH4 0x4E487B71 PUSH1 0xE0 SHL DUP2 MSTORE PUSH1 0x11 PUSH1 0x4 MSTORE REVERT JUMPDEST PUSH2 0xAEA SWAP2 PUSH2 0x14C1 JUMP JUMPDEST SWAP4 DUP1 DUP1 DUP8 SLOAD AND SWAP3 AND SWAP4 PUSH2 0xB08 DUP3 PUSH1 0x5 SLOAD AND PUSH1 0x40 MLOAD SWAP1 PUSH2 0x8F7 DUP3 PUSH2 0x1384 JUMP JUMPDEST PUSH2 0x90F JUMP JUMPDEST SWAP1 POP DUP8 DUP2 DUP2 RETURNDATASIZE DUP4 GT PUSH2 0xB39 JUMPI JUMPDEST PUSH2 0xB24 DUP2 DUP4 PUSH2 0x13D3 JUMP JUMPDEST DUP2 ADD SUB SLT PUSH2 0xB35 JUMPI MLOAD PUSH2 0x865 PUSH2 0x854 JUMP JUMPDEST DUP4 DUP1 REVERT JUMPDEST POP RETURNDATASIZE PUSH2 0xB1A JUMP JUMPDEST PUSH1 0x40 MLOAD RETURNDATASIZE DUP7 DUP3 RETURNDATACOPY RETURNDATASIZE SWAP1 REVERT JUMPDEST PUSH1 0x64 PUSH1 0x40 MLOAD PUSH3 0x461BCD PUSH1 0xE5 SHL DUP2 MSTORE PUSH1 0x20 PUSH1 0x4 DUP3 ADD MSTORE PUSH1 0x12 PUSH1 0x24 DUP3 ADD MSTORE PUSH32 0x4E6F74204578697374206F7220456E6465640000000000000000000000000000 PUSH1 0x44 DUP3 ADD MSTORE REVERT JUMPDEST POP CALLVALUE PUSH2 0x1FF JUMPI PUSH1 0x20 CALLDATASIZE PUSH1 0x3 NOT ADD SLT PUSH2 0x1FF JUMPI PUSH1 0x40 PUSH1 0x20 SWAP2 PUSH1 0x1 PUSH1 0x1 PUSH1 0xA0 SHL SUB PUSH2 0xBB6 PUSH2 0x1353 JUMP JUMPDEST AND DUP2 MSTORE PUSH1 0x10 DUP4 MSTORE KECCAK256 SLOAD PUSH1 0x40 MLOAD SWAP1 DUP2 MSTORE RETURN JUMPDEST POP CALLVALUE PUSH2 0x1FF JUMPI DUP1 PUSH1 0x3 NOT CALLDATASIZE ADD SLT PUSH2 0x1FF JUMPI PUSH1 0x20 PUSH1 0x3 SLOAD PUSH1 0x40 MLOAD SWAP1 DUP2 MSTORE RETURN JUMPDEST POP CALLVALUE PUSH2 0x1FF JUMPI DUP1 PUSH1 0x3 NOT CALLDATASIZE ADD SLT PUSH2 0x1FF JUMPI PUSH1 0x20 PUSH1 0x4 SLOAD PUSH1 0x40 MLOAD SWAP1 DUP2 MSTORE RETURN JUMPDEST POP CALLVALUE PUSH2 0x1FF JUMPI DUP1 PUSH1 0x3 NOT CALLDATASIZE ADD SLT PUSH2 0x1FF JUMPI PUSH1 0x20 PUSH1 0x1 PUSH1 0x1 PUSH1 0xA0 SHL SUB PUSH1 0xC SLOAD AND PUSH1 0x40 MLOAD SWAP1 DUP2 MSTORE RETURN JUMPDEST POP CALLVALUE PUSH2 0x1FF JUMPI DUP1 PUSH1 0x3 NOT CALLDATASIZE ADD SLT PUSH2 0x1FF JUMPI PUSH1 0x20 PUSH1 0x1 PUSH1 0x1 PUSH1 0xA0 SHL SUB PUSH1 0x5 SLOAD AND PUSH1 0x40 MLOAD SWAP1 DUP2 MSTORE RETURN JUMPDEST POP CALLVALUE PUSH2 0x1FF JUMPI DUP1 PUSH1 0x3 NOT CALLDATASIZE ADD SLT PUSH2 0x1FF JUMPI PUSH1 0xE SLOAD PUSH2 0xC8C PUSH1 0x1 PUSH1 0xFF PUSH1 0x1 PUSH1 0x1 PUSH1 0xA0 SHL SUB SWAP4 PUSH2 0xC82 DUP6 DUP3 AND CALLER EQ PUSH2 0x13F5 JUMP JUMPDEST PUSH1 0xA0 SHR AND EQ PUSH2 0x1440 JUMP JUMPDEST PUSH1 0x2 SLOAD SWAP1 PUSH22 0x2000000000000000000000000000000000000000000 PUSH32 0xFFFFFFFFFFFFFFFFFFFF00FFFFFFFFFFFFFFFFFFFFFFFFFFFFFFFFFFFFFFFFFF DUP4 AND OR PUSH1 0x2 SSTORE DUP1 PUSH1 0x1 SLOAD AND SWAP2 AND SWAP1 PUSH32 0x1AA6C8C6F9B0FF26B8661BDC3CE83E7CAF565C568AF549F21922FA9561363CC2 DUP4 DUP1 LOG3 DUP1 RETURN JUMPDEST POP CALLVALUE PUSH2 0x1FF JUMPI DUP1 PUSH1 0x3 NOT CALLDATASIZE ADD SLT PUSH2 0x1FF JUMPI DUP1 PUSH2 0x1A0 SWAP2 PUSH2 0x180 PUSH1 0x40 MLOAD PUSH2 0xD22 DUP2 PUSH2 0x13B6 JUMP JUMPDEST DUP3 DUP2 MSTORE DUP3 PUSH1 0x20 DUP3 ADD MSTORE DUP3 PUSH1 0x40 DUP3 ADD MSTORE DUP3 PUSH1 0x60 DUP3 ADD MSTORE DUP3 PUSH1 0x80 DUP3 ADD MSTORE DUP3 PUSH1 0xA0 DUP3 ADD MSTORE DUP3 PUSH1 0xC0 DUP3 ADD MSTORE DUP3 PUSH1 0xE0 DUP3 ADD MSTORE DUP3 PUSH2 0x100 DUP3 ADD MSTORE DUP3 PUSH2 0x120 DUP3 ADD MSTORE DUP3 PUSH2 0x140 DUP3 ADD MSTORE DUP3 PUSH2 0x160 DUP3 ADD MSTORE ADD MSTORE PUSH1 0xFF PUSH2 0x180 PUSH1 0x1 PUSH1 0x1 PUSH1 0xA0 SHL SUB PUSH1 0x40 MLOAD SWAP4 PUSH2 0xD87 DUP6 PUSH2 0x13B6 JUMP JUMPDEST SLOAD AND SWAP3 DUP4 DUP2 MSTORE PUSH1 0x1 PUSH1 0x1 PUSH1 0xA0 SHL SUB PUSH1 0x1 SLOAD AND PUSH1 0x20 DUP3 ADD MSTORE DUP3 PUSH1 0x2 SLOAD PUSH1 0x1 PUSH1 0x1 PUSH1 0xA0 SHL SUB DUP2 AND PUSH1 0x40 DUP5 ADD MSTORE DUP2 DUP2 PUSH1 0xA0 SHR AND PUSH1 0x60 DUP5 ADD MSTORE PUSH1 0xA8 SHR AND PUSH1 0x80 DUP3 ADD MSTORE PUSH1 0x3 SLOAD PUSH1 0xA0 DUP3 ADD MSTORE PUSH1 0x4 SLOAD PUSH1 0xC0 DUP3 ADD MSTORE PUSH1 0x1 PUSH1 0x1 PUSH1 0xA0 SHL SUB PUSH1 0x5 SLOAD AND PUSH1 0xE0 DUP3 ADD MSTORE PUSH1 0x6 SLOAD PUSH2 0x100 DUP3 ADD MSTORE PUSH1 0x7 SLOAD PUSH2 0x120 DUP3 ADD MSTORE PUSH1 0x8 SLOAD PUSH2 0x140 DUP3 ADD MSTORE PUSH1 0x9 SLOAD PUSH2 0x160 DUP3 ADD MSTORE DUP3 PUSH1 0xA SLOAD AND DUP3 DUP3 ADD MSTORE PUSH1 0x40 MLOAD SWAP4 DUP5 MSTORE PUSH1 0x1 PUSH1 0x1 PUSH1 0xA0 SHL SUB PUSH1 0x20 DUP3 ADD MLOAD AND PUSH1 0x20 DUP6 ADD MSTORE PUSH1 0x1 PUSH1 0x1 PUSH1 0xA0 SHL SUB PUSH1 0x40 DUP3 ADD MLOAD AND PUSH1 0x40 DUP6 ADD MSTORE DUP3 PUSH1 0x60 DUP3 ADD MLOAD AND PUSH1 0x60 DUP6 ADD MSTORE DUP3 PUSH1 0x80 DUP3 ADD MLOAD AND PUSH1 0x80 DUP6 ADD MSTORE PUSH1 0xA0 DUP2 ADD MLOAD PUSH1 0xA0 DUP6 ADD MSTORE PUSH1 0xC0 DUP2 ADD MLOAD PUSH1 0xC0 DUP6 ADD MSTORE PUSH1 0x1 PUSH1 0x1 PUSH1 0xA0 SHL SUB PUSH1 0xE0 DUP3 ADD MLOAD AND PUSH1 0xE0 DUP6 ADD MSTORE PUSH2 0x100 DUP2 ADD MLOAD PUSH2 0x100 DUP6 ADD MSTORE PUSH2 0x120 DUP2 ADD MLOAD PUSH2 0x120 DUP6 ADD MSTORE PUSH2 0x140 DUP2 ADD MLOAD PUSH2 0x140 DUP6 ADD MSTORE PUSH2 0x160 DUP2 ADD MLOAD PUSH2 0x160 DUP6 ADD MSTORE ADD MLOAD AND PUSH2 0x180 DUP3 ADD MSTORE RETURN JUMPDEST POP CALLVALUE PUSH2 0x1FF JUMPI PUSH1 0x40 CALLDATASIZE PUSH1 0x3 NOT ADD SLT PUSH2 0x1FF JUMPI PUSH2 0xED3 PUSH2 0x1353 JUMP JUMPDEST PUSH1 0x1 PUSH1 0x1 PUSH1 0xA0 SHL SUB AND SWAP1 PUSH1 0x24 CALLDATALOAD DUP3 ISZERO PUSH2 0xF3C JUMPI PUSH1 0x20 DUP2 PUSH2 0xF16 PUSH32 0xDDF252AD1BE2C89B69C2B068FC378DAA952BA7F163C4A11628F55A4DF523B3EF SWAP4 PUSH1 0x12 SLOAD PUSH2 0x148B JUMP JUMPDEST PUSH1 0x12 SSTORE DUP5 DUP5 MSTORE PUSH1 0x10 DUP3 MSTORE PUSH1 0x40 DUP5 KECCAK256 DUP2 DUP2 SLOAD ADD SWAP1 SSTORE PUSH1 0x40 MLOAD SWAP1 DUP2 MSTORE LOG3 PUSH1 0x20 PUSH1 0x40 MLOAD PUSH1 0x1 DUP2 MSTORE RETURN JUMPDEST PUSH1 0x64 PUSH1 0x40 MLOAD PUSH3 0x461BCD PUSH1 0xE5 SHL DUP2 MSTORE PUSH1 0x20 PUSH1 0x4 DUP3 ADD MSTORE PUSH1 0x1F PUSH1 0x24 DUP3 ADD MSTORE PUSH32 0x45524332303A206D696E7420746F20746865207A65726F206164647265737300 PUSH1 0x44 DUP3 ADD MSTORE REVERT JUMPDEST POP CALLVALUE PUSH2 0x1FF JUMPI DUP1 PUSH1 0x3 NOT CALLDATASIZE ADD SLT PUSH2 0x1FF JUMPI PUSH1 0x20 PUSH1 0x8 SLOAD PUSH1 0x40 MLOAD SWAP1 DUP2 MSTORE RETURN JUMPDEST POP CALLVALUE PUSH2 0x1FF JUMPI PUSH1 0x40 CALLDATASIZE PUSH1 0x3 NOT ADD SLT PUSH2 0x1FF JUMPI PUSH2 0x373 SWAP1 PUSH2 0xFE8 PUSH2 0xFBF PUSH2 0x1353 JUMP JUMPDEST SWAP2 CALLER DUP2 MSTORE PUSH1 0x11 PUSH1 0x20 MSTORE PUSH1 0x40 DUP2 KECCAK256 PUSH1 0x1 PUSH1 0x1 PUSH1 0xA0 SHL SUB DUP5 AND DUP3 MSTORE PUSH1 0x20 MSTORE PUSH1 0x40 PUSH1 0x24 CALLDATALOAD SWAP2 KECCAK256 SLOAD PUSH2 0x148B JUMP JUMPDEST SWAP1 CALLER PUSH2 0x18EB JUMP JUMPDEST POP CALLVALUE PUSH2 0x1FF JUMPI DUP1 PUSH1 0x3 NOT CALLDATASIZE ADD SLT PUSH2 0x1FF JUMPI PUSH1 0x20 PUSH1 0x40 MLOAD PUSH1 0x12 DUP2 MSTORE RETURN JUMPDEST POP CALLVALUE PUSH2 0x1FF JUMPI DUP1 PUSH1 0x3 NOT CALLDATASIZE ADD SLT PUSH2 0x1FF JUMPI PUSH1 0xF SLOAD SWAP1 PUSH8 0xFFFFFFFFFFFFFFFF DUP3 GT PUSH2 0x113E JUMPI SWAP1 PUSH1 0x40 MLOAD SWAP1 PUSH1 0x20 SWAP2 PUSH2 0x1046 DUP4 DUP4 PUSH1 0x5 SHL ADD DUP3 PUSH2 0x13D3 JUMP JUMPDEST DUP2 DUP2 MSTORE PUSH1 0xF DUP5 MSTORE DUP3 DUP2 ADD SWAP2 DUP5 PUSH32 0x8D1108E10BCB7C27DDDFC02ED9D693A074039D026CF4EA4240B40F7D581AC802 DUP5 JUMPDEST DUP4 DUP4 LT PUSH2 0x10E7 JUMPI POP POP POP POP PUSH1 0x40 MLOAD SWAP3 DUP1 DUP5 ADD SWAP2 DUP2 DUP6 MSTORE MLOAD DUP1 SWAP3 MSTORE PUSH1 0x40 DUP5 ADD SWAP3 SWAP5 JUMPDEST DUP3 DUP2 LT PUSH2 0x10A3 JUMPI DUP5 DUP5 SUB DUP6 RETURN JUMPDEST DUP6 MLOAD DUP1 MLOAD PUSH1 0x1 PUSH1 0x1 PUSH1 0xA0 SHL SUB SWAP1 DUP2 AND DUP7 MSTORE DUP2 DUP5 ADD MLOAD DUP2 AND DUP7 DUP6 ADD MSTORE PUSH1 0x40 DUP1 DUP4 ADD MLOAD SWAP1 SWAP2 AND SWAP1 DUP7 ADD MSTORE PUSH1 0x60 SWAP1 DUP2 ADD MLOAD SWAP1 DUP6 ADD MSTORE SWAP5 DUP2 ADD SWAP5 PUSH1 0x80 SWAP1 SWAP4 ADD SWAP3 PUSH1 0x1 ADD PUSH2 0x1096 JUMP JUMPDEST PUSH1 0x4 DUP8 PUSH1 0x1 SWAP3 PUSH1 0x40 SWAP11 SWAP10 SWAP8 SWAP9 SWAP11 MLOAD PUSH2 0x10FE DUP2 PUSH2 0x1384 JUMP JUMPDEST PUSH1 0x1 PUSH1 0x1 PUSH1 0xA0 SHL SUB DUP1 DUP8 SLOAD AND DUP3 MSTORE DUP1 DUP7 DUP9 ADD SLOAD AND DUP5 DUP4 ADD MSTORE PUSH1 0x2 DUP8 ADD SLOAD AND PUSH1 0x40 DUP3 ADD MSTORE PUSH1 0x3 DUP7 ADD SLOAD PUSH1 0x60 DUP3 ADD MSTORE DUP2 MSTORE ADD SWAP3 ADD SWAP3 ADD SWAP2 SWAP1 SWAP7 SWAP5 SWAP4 SWAP6 SWAP7 PUSH2 0x1075 JUMP JUMPDEST DUP1 PUSH4 0x4E487B71 PUSH1 0xE0 SHL PUSH1 0x24 SWAP3 MSTORE PUSH1 0x41 PUSH1 0x4 MSTORE REVERT JUMPDEST POP CALLVALUE PUSH2 0x1FF JUMPI PUSH1 0x60 CALLDATASIZE PUSH1 0x3 NOT ADD SLT PUSH2 0x1FF JUMPI PUSH2 0x116C PUSH2 0x1353 JUMP JUMPDEST SWAP1 PUSH2 0x1175 PUSH2 0x136E JUMP JUMPDEST PUSH1 0x40 PUSH1 0x44 CALLDATALOAD SWAP3 PUSH1 0x1 PUSH1 0x1 PUSH1 0xA0 SHL SUB DUP6 AND DUP2 MSTORE PUSH1 0x11 PUSH1 0x20 MSTORE DUP2 DUP2 KECCAK256 CALLER DUP3 MSTORE PUSH1 0x20 MSTORE KECCAK256 SLOAD SWAP3 PUSH1 0x0 NOT DUP5 SUB PUSH2 0x11AC JUMPI JUMPDEST PUSH2 0x373 SWAP4 POP PUSH2 0x15EC JUMP JUMPDEST DUP3 DUP5 LT PUSH2 0x11C8 JUMPI PUSH2 0x11C3 DUP4 PUSH2 0x373 SWAP6 SUB CALLER DUP4 PUSH2 0x18EB JUMP JUMPDEST PUSH2 0x11A2 JUMP JUMPDEST PUSH1 0x64 PUSH1 0x40 MLOAD PUSH3 0x461BCD PUSH1 0xE5 SHL DUP2 MSTORE PUSH1 0x20 PUSH1 0x4 DUP3 ADD MSTORE PUSH1 0x1D PUSH1 0x24 DUP3 ADD MSTORE PUSH32 0x45524332303A20696E73756666696369656E7420616C6C6F77616E6365000000 PUSH1 0x44 DUP3 ADD MSTORE REVERT JUMPDEST POP CALLVALUE PUSH2 0x1FF JUMPI DUP1 PUSH1 0x3 NOT CALLDATASIZE ADD SLT PUSH2 0x1FF JUMPI PUSH1 0x20 PUSH1 0x12 SLOAD PUSH1 0x40 MLOAD SWAP1 DUP2 MSTORE RETURN JUMPDEST POP CALLVALUE PUSH2 0x1FF JUMPI PUSH1 0x40 CALLDATASIZE PUSH1 0x3 NOT ADD SLT PUSH2 0x1FF JUMPI PUSH2 0x373 PUSH2 0x1247 PUSH2 0x1353 JUMP JUMPDEST PUSH1 0x24 CALLDATALOAD SWAP1 CALLER PUSH2 0x18EB JUMP JUMPDEST SWAP1 POP CALLVALUE PUSH2 0x7C3 JUMPI DUP2 PUSH1 0x3 NOT CALLDATASIZE ADD SLT PUSH2 0x7C3 JUMPI DUP2 PUSH1 0x13 SLOAD SWAP1 PUSH1 0x1 DUP3 DUP2 SHR SWAP2 DUP2 DUP5 AND SWAP4 DUP5 ISZERO PUSH2 0x1300 JUMPI JUMPDEST PUSH1 0x20 SWAP5 DUP6 DUP6 LT DUP2 EQ PUSH2 0x6C2 JUMPI DUP5 DUP8 MSTORE SWAP1 DUP2 ISZERO PUSH2 0x6A0 JUMPI POP PUSH1 0x1 EQ PUSH2 0x12A7 JUMPI PUSH2 0x643 DUP6 PUSH2 0x637 DUP2 DUP10 SUB DUP3 PUSH2 0x13D3 JUMP JUMPDEST SWAP3 SWAP5 POP PUSH1 0x13 DUP4 MSTORE PUSH32 0x66DE8FFDA797E3DE9C05E8FC57B3BF0EC28A930D40B0D285D93C06501CF6A090 JUMPDEST DUP3 DUP5 LT PUSH2 0x12ED JUMPI POP POP POP DUP2 PUSH2 0x643 SWAP4 PUSH2 0x637 SWAP3 DUP3 ADD ADD SWAP4 CODESIZE PUSH2 0x627 JUMP JUMPDEST DUP1 SLOAD DUP6 DUP6 ADD DUP8 ADD MSTORE SWAP3 DUP6 ADD SWAP3 DUP2 ADD PUSH2 0x12D0 JUMP JUMPDEST SWAP3 PUSH1 0x7F AND SWAP3 PUSH2 0x1279 JUMP JUMPDEST PUSH1 0x20 DUP1 DUP3 MSTORE DUP3 MLOAD DUP2 DUP4 ADD DUP2 SWAP1 MSTORE SWAP1 SWAP4 SWAP3 PUSH1 0x0 JUMPDEST DUP3 DUP2 LT PUSH2 0x133F JUMPI POP POP PUSH1 0x40 SWAP3 SWAP4 POP PUSH1 0x0 DUP4 DUP3 DUP5 ADD ADD MSTORE PUSH1 0x1F DUP1 NOT SWAP2 ADD AND ADD ADD SWAP1 JUMP JUMPDEST DUP2 DUP2 ADD DUP7 ADD MLOAD DUP5 DUP3 ADD PUSH1 0x40 ADD MSTORE DUP6 ADD PUSH2 0x131D JUMP JUMPDEST PUSH1 0x4 CALLDATALOAD SWAP1 PUSH1 0x1 PUSH1 0x1 PUSH1 0xA0 SHL SUB DUP3 AND DUP3 SUB PUSH2 0x1369 JUMPI JUMP JUMPDEST PUSH1 0x0 DUP1 REVERT JUMPDEST PUSH1 0x24 CALLDATALOAD SWAP1 PUSH1 0x1 PUSH1 0x1 PUSH1 0xA0 SHL SUB DUP3 AND DUP3 SUB PUSH2 0x1369 JUMPI JUMP JUMPDEST PUSH1 0x80 DUP2 ADD SWAP1 DUP2 LT PUSH8 0xFFFFFFFFFFFFFFFF DUP3 GT OR PUSH2 0x13A0 JUMPI PUSH1 0x40 MSTORE JUMP JUMPDEST PUSH4 0x4E487B71 PUSH1 0xE0 SHL PUSH1 0x0 MSTORE PUSH1 0x41 PUSH1 0x4 MSTORE PUSH1 0x24 PUSH1 0x0 REVERT JUMPDEST PUSH2 0x1A0 DUP2 ADD SWAP1 DUP2 LT PUSH8 0xFFFFFFFFFFFFFFFF DUP3 GT OR PUSH2 0x13A0 JUMPI PUSH1 0x40 MSTORE JUMP JUMPDEST SWAP1 PUSH1 0x1F DUP1 NOT SWAP2 ADD AND DUP2 ADD SWAP1 DUP2 LT PUSH8 0xFFFFFFFFFFFFFFFF DUP3 GT OR PUSH2 0x13A0 JUMPI PUSH1 0x40 MSTORE JUMP JUMPDEST ISZERO PUSH2 0x13FC JUMPI JUMP JUMPDEST PUSH1 0x64 PUSH1 0x40 MLOAD PUSH3 0x461BCD PUSH1 0xE5 SHL DUP2 MSTORE PUSH1 0x20 PUSH1 0x4 DUP3 ADD MSTORE PUSH1 0x12 PUSH1 0x24 DUP3 ADD MSTORE PUSH32 0x4F6E6C792042616E6B20436F6E74726163740000000000000000000000000000 PUSH1 0x44 DUP3 ADD MSTORE REVERT JUMPDEST ISZERO PUSH2 0x1447 JUMPI JUMP JUMPDEST PUSH1 0x64 PUSH1 0x40 MLOAD PUSH3 0x461BCD PUSH1 0xE5 SHL DUP2 MSTORE PUSH1 0x20 PUSH1 0x4 DUP3 ADD MSTORE PUSH1 0xA PUSH1 0x24 DUP3 ADD MSTORE PUSH32 0x4E6F742041637469766500000000000000000000000000000000000000000000 PUSH1 0x44 DUP3 ADD MSTORE REVERT JUMPDEST SWAP2 SWAP1 DUP3 ADD DUP1 SWAP3 GT PUSH2 0x1498 JUMPI JUMP JUMPDEST PUSH4 0x4E487B71 PUSH1 0xE0 SHL PUSH1 0x0 MSTORE PUSH1 0x11 PUSH1 0x4 MSTORE PUSH1 0x24 PUSH1 0x0 REVERT JUMPDEST DUP2 DUP2 MUL SWAP3 SWAP2 DUP2 ISZERO SWAP2 DUP5 DIV EQ OR ISZERO PUSH2 0x1498 JUMPI JUMP JUMPDEST SWAP2 SWAP1 DUP3 SUB SWAP2 DUP3 GT PUSH2 0x1498 JUMPI JUMP JUMPDEST PUSH1 0xF SLOAD PUSH9 0x10000000000000000 DUP2 LT ISZERO PUSH2 0x13A0 JUMPI PUSH1 0x1 DUP2 ADD DUP1 PUSH1 0xF SSTORE DUP2 LT ISZERO PUSH2 0x15D6 JUMPI PUSH1 0x60 PUSH32 0x8D1108E10BCB7C27DDDFC02ED9D693A074039D026CF4EA4240B40F7D581AC805 SWAP2 PUSH1 0xF PUSH1 0x0 MSTORE PUSH1 0x2 SHL SWAP3 DUP4 PUSH32 0x8D1108E10BCB7C27DDDFC02ED9D693A074039D026CF4EA4240B40F7D581AC802 ADD PUSH1 0x1 PUSH1 0x1 PUSH1 0xA0 SHL SUB SWAP1 DUP2 DUP4 MLOAD AND SWAP1 PUSH20 0xFFFFFFFFFFFFFFFFFFFFFFFFFFFFFFFFFFFFFFFF NOT SWAP2 DUP3 DUP3 SLOAD AND OR SWAP1 SSTORE PUSH32 0x8D1108E10BCB7C27DDDFC02ED9D693A074039D026CF4EA4240B40F7D581AC803 DUP7 ADD DUP3 PUSH1 0x20 DUP6 ADD MLOAD AND DUP3 DUP3 SLOAD AND OR SWAP1 SSTORE PUSH32 0x8D1108E10BCB7C27DDDFC02ED9D693A074039D026CF4EA4240B40F7D581AC804 DUP7 ADD SWAP2 PUSH1 0x40 DUP5 ADD MLOAD AND SWAP1 DUP3 SLOAD AND OR SWAP1 SSTORE ADD MLOAD SWAP2 ADD SSTORE JUMP JUMPDEST PUSH4 0x4E487B71 PUSH1 0xE0 SHL PUSH1 0x0 MSTORE PUSH1 0x32 PUSH1 0x4 MSTORE PUSH1 0x24 PUSH1 0x0 REVERT JUMPDEST SWAP2 PUSH1 0x1 PUSH1 0x1 PUSH1 0xA0 SHL SUB DUP1 SWAP4 AND SWAP2 DUP3 ISZERO PUSH2 0x17FF JUMPI DUP4 AND SWAP3 DUP4 ISZERO PUSH2 0x1795 JUMPI PUSH1 0x0 SWAP1 DUP4 DUP3 MSTORE PUSH1 0x10 PUSH1 0x20 MSTORE PUSH1 0x40 SWAP2 DUP3 DUP2 KECCAK256 SLOAD DUP5 DUP2 LT PUSH2 0x172C JUMPI SWAP1 DUP5 DUP5 SWAP3 DUP8 DUP4 MSTORE PUSH1 0x10 PUSH1 0x20 MSTORE SUB DUP3 DUP3 KECCAK256 SSTORE DUP7 DUP2 MSTORE KECCAK256 DUP4 DUP2 SLOAD ADD SWAP1 SSTORE DUP1 PUSH1 0x1 SLOAD AND DUP5 EQ PUSH1 0x0 EQ PUSH2 0x1697 JUMPI POP PUSH32 0xDDF252AD1BE2C89B69C2B068FC378DAA952BA7F163C4A11628F55A4DF523B3EF SWAP2 PUSH1 0x20 SWAP2 DUP6 PUSH20 0xFFFFFFFFFFFFFFFFFFFFFFFFFFFFFFFFFFFFFFFF NOT PUSH1 0x1 SLOAD AND OR PUSH1 0x1 SSTORE JUMPDEST MLOAD SWAP1 DUP2 MSTORE LOG3 JUMP JUMPDEST PUSH1 0x2 SLOAD SWAP1 DUP2 AND DUP5 SUB PUSH2 0x16E9 JUMPI PUSH20 0xFFFFFFFFFFFFFFFFFFFFFFFFFFFFFFFFFFFFFFFF NOT AND DUP5 OR PUSH1 0x2 SSTORE PUSH32 0xDDF252AD1BE2C89B69C2B068FC378DAA952BA7F163C4A11628F55A4DF523B3EF SWAP2 PUSH1 0x20 SWAP2 PUSH2 0x1690 JUMP JUMPDEST PUSH1 0x64 DUP3 MLOAD PUSH3 0x461BCD PUSH1 0xE5 SHL DUP2 MSTORE PUSH1 0x20 PUSH1 0x4 DUP3 ADD MSTORE PUSH1 0x14 PUSH1 0x24 DUP3 ADD MSTORE PUSH32 0x696E76616C69642066726F6D2061646472657373000000000000000000000000 PUSH1 0x44 DUP3 ADD MSTORE REVERT JUMPDEST PUSH1 0x84 DUP5 MLOAD PUSH3 0x461BCD PUSH1 0xE5 SHL DUP2 MSTORE PUSH1 0x20 PUSH1 0x4 DUP3 ADD MSTORE PUSH1 0x26 PUSH1 0x24 DUP3 ADD MSTORE PUSH32 0x45524332303A207472616E7366657220616D6F756E7420657863656564732062 PUSH1 0x44 DUP3 ADD MSTORE PUSH32 0x616C616E63650000000000000000000000000000000000000000000000000000 PUSH1 0x64 DUP3 ADD MSTORE REVERT JUMPDEST PUSH1 0x84 PUSH1 0x40 MLOAD PUSH3 0x461BCD PUSH1 0xE5 SHL DUP2 MSTORE PUSH1 0x20 PUSH1 0x4 DUP3 ADD MSTORE PUSH1 0x23 PUSH1 0x24 DUP3 ADD MSTORE PUSH32 0x45524332303A207472616E7366657220746F20746865207A65726F2061646472 PUSH1 0x44 DUP3 ADD MSTORE PUSH32 0x6573730000000000000000000000000000000000000000000000000000000000 PUSH1 0x64 DUP3 ADD MSTORE REVERT JUMPDEST PUSH1 0x84 PUSH1 0x40 MLOAD PUSH3 0x461BCD PUSH1 0xE5 SHL DUP2 MSTORE PUSH1 0x20 PUSH1 0x4 DUP3 ADD MSTORE PUSH1 0x25 PUSH1 0x24 DUP3 ADD MSTORE PUSH32 0x45524332303A207472616E736665722066726F6D20746865207A65726F206164 PUSH1 0x44 DUP3 ADD MSTORE PUSH32 0x6472657373000000000000000000000000000000000000000000000000000000 PUSH1 0x64 DUP3 ADD MSTORE REVERT JUMPDEST PUSH1 0x1 PUSH1 0x1 PUSH1 0xA0 SHL SUB AND DUP1 ISZERO PUSH2 0x54D JUMPI DUP1 PUSH1 0x0 MSTORE PUSH1 0x10 PUSH1 0x20 MSTORE PUSH1 0x40 PUSH1 0x0 KECCAK256 SLOAD SWAP1 PUSH8 0xDE0B6B3A7640000 DUP1 DUP4 LT PUSH2 0x4E3 JUMPI PUSH1 0x20 PUSH32 0xDDF252AD1BE2C89B69C2B068FC378DAA952BA7F163C4A11628F55A4DF523B3EF SWAP2 PUSH1 0x0 SWAP5 DUP5 DUP7 MSTORE PUSH1 0x10 DUP4 MSTORE PUSH8 0xDE0B6B3A763FFFF NOT DUP1 SWAP2 ADD PUSH1 0x40 DUP8 KECCAK256 SSTORE PUSH1 0x12 SLOAD ADD PUSH1 0x12 SSTORE PUSH1 0x40 MLOAD SWAP1 DUP2 MSTORE LOG3 PUSH1 0x1 SWAP1 JUMP JUMPDEST PUSH1 0x1 PUSH1 0x1 PUSH1 0xA0 SHL SUB DUP1 SWAP2 AND SWAP2 DUP3 ISZERO PUSH2 0x19B6 JUMPI AND SWAP2 DUP3 ISZERO PUSH2 0x194C JUMPI PUSH1 0x20 PUSH32 0x8C5BE1E5EBEC7D5BD14F71427D1E84F3DD0314C0F7B2291E5B200AC8C7C3B925 SWAP2 DUP4 PUSH1 0x0 MSTORE PUSH1 0x11 DUP3 MSTORE PUSH1 0x40 PUSH1 0x0 KECCAK256 DUP6 PUSH1 0x0 MSTORE DUP3 MSTORE DUP1 PUSH1 0x40 PUSH1 0x0 KECCAK256 SSTORE PUSH1 0x40 MLOAD SWAP1 DUP2 MSTORE LOG3 JUMP JUMPDEST PUSH1 0x84 PUSH1 0x40 MLOAD PUSH3 0x461BCD PUSH1 0xE5 SHL DUP2 MSTORE PUSH1 0x20 PUSH1 0x4 DUP3 ADD MSTORE PUSH1 0x22 PUSH1 0x24 DUP3 ADD MSTORE PUSH32 0x45524332303A20617070726F766520746F20746865207A65726F206164647265 PUSH1 0x44 DUP3 ADD MSTORE PUSH32 0x7373000000000000000000000000000000000000000000000000000000000000 PUSH1 0x64 DUP3 ADD MSTORE REVERT JUMPDEST PUSH1 0x84 PUSH1 0x40 MLOAD PUSH3 0x461BCD PUSH1 0xE5 SHL DUP2 MSTORE PUSH1 0x20 PUSH1 0x4 DUP3 ADD MSTORE PUSH1 0x24 DUP1 DUP3 ADD MSTORE PUSH32 0x45524332303A20617070726F76652066726F6D20746865207A65726F20616464 PUSH1 0x44 DUP3 ADD MSTORE PUSH32 0x7265737300000000000000000000000000000000000000000000000000000000 PUSH1 0x64 DUP3 ADD MSTORE REVERT INVALID LOG2 PUSH5 0x6970667358 0x22 SLT KECCAK256 DUP16 PUSH15 0xE87DBDBCA48831E6C90B0391C36754 SWAP13 EXTCODEHASH 0x4D 0x26 0xEF GASLIMIT PUSH18 0x71EE2EACB175BCE264736F6C634300081300 CALLER PUSH7 0xDE8FFDA797E3DE SWAP13 SDIV 0xE8 0xFC JUMPI 0xB3 0xBF 0xE 0xC2 DUP11 SWAP4 0xD BLOCKHASH 0xB0 0xD2 DUP6 0xD9 EXTCODECOPY MOD POP SHR 0xF6 LOG0 SWAP1 "},"methodIdentifiers":{"allowance(address,address)":"dd62ed3e","approve(address,uint256)":"095ea7b3","assetContract()":"4d16304f","balanceOf(address)":"70a08231","benchmark()":"8903c5a2","burn(address,uint256)":"9dc29fac","decimals()":"313ce567","decreaseAllowance(address,uint256)":"a457c2d7","fixedInterestPayer()":"c4c22a84","fixedPayerContract()":"ecba89c5","floatingInterestPayer()":"be2da873","floatingPayerContract()":"530c61cf","getFixedPayerContract()":"beb9ad5f","getFloatingPayerContract()":"38cb8a25","getIRSReceipt()":"299421d4","getNumberOfSwaps()":"4d1d62fa","getSwapCount()":"d81671bc","increaseAllowance(address,uint256)":"39509351","irsInfo()":"42abea79","isActive()":"22f3e2d4","isContractActive()":"8f5949f9","maturityDate()":"d59624b4","mint(address,uint256)":"40c10f19","name()":"06fdde03","notionalAmount()":"a26c1aa2","numberOfSwaps()":"e8f9d2f9","owner()":"8da5cb5b","paymentFrequency()":"8e589315","ratesDecimals()":"e823b1da","spread()":"5c25c76c","startingDate()":"3e3ff7b6","swap()":"8119c065","swapCount()":"2eff0d9e","swapRate()":"698518e5","symbol()":"95d89b41","terminateSwap()":"442447ca","toposBankContract()":"9c34712a","totalSupply()":"18160ddd","transfer(address,uint256)":"a9059cbb","transferFrom(address,address,uint256)":"23b872dd"}}}}}