{"contracts/treasury/IssuersFund.sol.sol":{"IssuersFund":{"abi":[{"inputs":[{"internalType":"address","name":"_bankContract","type":"address"},{"internalType":"address","name":"_toposTreasury","type":"address"}],"stateMutability":"nonpayable","type":"constructor"},{"inputs":[{"internalType":"string","name":"_dealID","type":"string"},{"internalType":"uint256","name":"_amount","type":"uint256"}],"name":"addFund","outputs":[],"stateMutability":"nonpayable","type":"function"},{"inputs":[],"name":"toposBankContract","outputs":[{"internalType":"address","name":"","type":"address"}],"stateMutability":"view","type":"function"},{"inputs":[],"name":"toposManager","outputs":[{"internalType":"address","name":"","type":"address"}],"stateMutability":"view","type":"function"},{"inputs":[],"name":"toposTreasury","outputs":[{"internalType":"address","name":"","type":"address"}],"stateMutability":"view","type":"function"},{"inputs":[{"internalType":"string","name":"","type":"string"}],"name":"totalAmount","outputs":[{"internalType":"uint256","name":"","type":"uint256"}],"stateMutability":"view","type":"function"},{"inputs":[{"internalType":"address","name":"_to","type":"address"},{"internalType":"uint256","name":"_amount","type":"uint256"},{"internalType":"address","name":"_tokenAddress","type":"address"}],"name":"withdraw","outputs":[],"stateMutability":"nonpayable","type":"function"},{"inputs":[{"internalType":"string","name":"_dealID","type":"string"},{"internalType":"address","name":"_issuer","type":"address"},{"internalType":"address","name":"_tokenAddress","type":"address"}],"name":"withdrawFund","outputs":[],"stateMutability":"nonpayable","type":"function"}],"evm":{"bytecode":{"linkReferences":{},"object":"60806040523480156200001157600080fd5b50604051620011403803806200114083398181016040528101906200003791906200016c565b33600160006101000a81548173ffffffffffffffffffffffffffffffffffffffff021916908373ffffffffffffffffffffffffffffffffffffffff16021790555081600260006101000a81548173ffffffffffffffffffffffffffffffffffffffff021916908373ffffffffffffffffffffffffffffffffffffffff16021790555080600360006101000a81548173ffffffffffffffffffffffffffffffffffffffff021916908373ffffffffffffffffffffffffffffffffffffffff1602179055505050620001b3565b600080fd5b600073ffffffffffffffffffffffffffffffffffffffff82169050919050565b6000620001348262000107565b9050919050565b620001468162000127565b81146200015257600080fd5b50565b60008151905062000166816200013b565b92915050565b6000806040838503121562000186576200018562000102565b5b6000620001968582860162000155565b9250506020620001a98582860162000155565b9150509250929050565b610f7d80620001c36000396000f3fe608060405234801561001057600080fd5b506004361061007d5760003560e01c80637f31ed731161005b5780637f31ed73146100ec578063925b7cb61461010a5780639c34712a14610126578063e04cd97f146101445761007d565b806314fccfcb146100825780633d52baf9146100b257806369328dec146100d0575b600080fd5b61009c60048036038101906100979190610904565b610160565b6040516100a99190610966565b60405180910390f35b6100ba61018e565b6040516100c791906109c2565b60405180910390f35b6100ea60048036038101906100e59190610a35565b6101b4565b005b6100f461038c565b60405161010191906109c2565b60405180910390f35b610124600480360381019061011f9190610a88565b6103b2565b005b61012e610497565b60405161013b91906109c2565b60405180910390f35b61015e60048036038101906101599190610ae4565b6104bd565b005b6000818051602081018201805184825260208301602085012081835280955050505050506000915090505481565b600360009054906101000a900473ffffffffffffffffffffffffffffffffffffffff1681565b600160009054906101000a900473ffffffffffffffffffffffffffffffffffffffff1673ffffffffffffffffffffffffffffffffffffffff163373ffffffffffffffffffffffffffffffffffffffff1614610244576040517f08c379a000000000000000000000000000000000000000000000000000000000815260040161023b90610bb0565b60405180910390fd5b60008173ffffffffffffffffffffffffffffffffffffffff166370a08231306040518263ffffffff1660e01b815260040161027f91906109c2565b602060405180830381865afa15801561029c573d6000803e3d6000fd5b505050506040513d601f19601f820116820180604052508101906102c09190610be5565b905080831115610305576040517f08c379a00000000000000000000000000000000000000000000000000000000081526004016102fc90610c5e565b60405180910390fd5b8173ffffffffffffffffffffffffffffffffffffffff166323b872dd3086866040518463ffffffff1660e01b815260040161034293929190610c7e565b6020604051808303816000875af1158015610361573d6000803e3d6000fd5b505050506040513d601f19601f820116820180604052508101906103859190610ced565b5050505050565b600160009054906101000a900473ffffffffffffffffffffffffffffffffffffffff1681565b600260009054906101000a900473ffffffffffffffffffffffffffffffffffffffff1673ffffffffffffffffffffffffffffffffffffffff163373ffffffffffffffffffffffffffffffffffffffff1614610442576040517f08c379a000000000000000000000000000000000000000000000000000000000815260040161043990610d66565b60405180910390fd5b600080836040516104539190610df7565b908152602001604051809103902054905081816104709190610e3d565b6000846040516104809190610df7565b908152602001604051809103902081905550505050565b600260009054906101000a900473ffffffffffffffffffffffffffffffffffffffff1681565b600260009054906101000a900473ffffffffffffffffffffffffffffffffffffffff1673ffffffffffffffffffffffffffffffffffffffff163373ffffffffffffffffffffffffffffffffffffffff161461054d576040517f08c379a000000000000000000000000000000000000000000000000000000000815260040161054490610d66565b60405180910390fd5b6000808460405161055e9190610df7565b90815260200160405180910390205490506000600260009054906101000a900473ffffffffffffffffffffffffffffffffffffffff1673ffffffffffffffffffffffffffffffffffffffff1663ff6689d06040518163ffffffff1660e01b8152600401602060405180830381865afa1580156105de573d6000803e3d6000fd5b505050506040513d601f19601f820116820180604052508101906106029190610be5565b90508273ffffffffffffffffffffffffffffffffffffffff166323b872dd30600360009054906101000a900473ffffffffffffffffffffffffffffffffffffffff16612710670de0b6b3a76400008661065b9190610e71565b6106659190610ee2565b6040518463ffffffff1660e01b815260040161068393929190610c7e565b6020604051808303816000875af11580156106a2573d6000803e3d6000fd5b505050506040513d601f19601f820116820180604052508101906106c69190610ced565b508273ffffffffffffffffffffffffffffffffffffffff166323b872dd3086612710670de0b6b3a764000086886127106107009190610e71565b61070a9190610f13565b6107149190610e71565b61071e9190610ee2565b6040518463ffffffff1660e01b815260040161073c93929190610c7e565b6020604051808303816000875af115801561075b573d6000803e3d6000fd5b505050506040513d601f19601f8201168201806040525081019061077f9190610ced565b50600080866040516107919190610df7565b9081526020016040518091039020819055505050505050565b6000604051905090565b600080fd5b600080fd5b600080fd5b600080fd5b6000601f19601f8301169050919050565b7f4e487b7100000000000000000000000000000000000000000000000000000000600052604160045260246000fd5b610811826107c8565b810181811067ffffffffffffffff821117156108305761082f6107d9565b5b80604052505050565b60006108436107aa565b905061084f8282610808565b919050565b600067ffffffffffffffff82111561086f5761086e6107d9565b5b610878826107c8565b9050602081019050919050565b82818337600083830152505050565b60006108a76108a284610854565b610839565b9050828152602081018484840111156108c3576108c26107c3565b5b6108ce848285610885565b509392505050565b600082601f8301126108eb576108ea6107be565b5b81356108fb848260208601610894565b91505092915050565b60006020828403121561091a576109196107b4565b5b600082013567ffffffffffffffff811115610938576109376107b9565b5b610944848285016108d6565b91505092915050565b6000819050919050565b6109608161094d565b82525050565b600060208201905061097b6000830184610957565b92915050565b600073ffffffffffffffffffffffffffffffffffffffff82169050919050565b60006109ac82610981565b9050919050565b6109bc816109a1565b82525050565b60006020820190506109d760008301846109b3565b92915050565b6109e6816109a1565b81146109f157600080fd5b50565b600081359050610a03816109dd565b92915050565b610a128161094d565b8114610a1d57600080fd5b50565b600081359050610a2f81610a09565b92915050565b600080600060608486031215610a4e57610a4d6107b4565b5b6000610a5c868287016109f4565b9350506020610a6d86828701610a20565b9250506040610a7e868287016109f4565b9150509250925092565b60008060408385031215610a9f57610a9e6107b4565b5b600083013567ffffffffffffffff811115610abd57610abc6107b9565b5b610ac9858286016108d6565b9250506020610ada85828601610a20565b9150509250929050565b600080600060608486031215610afd57610afc6107b4565b5b600084013567ffffffffffffffff811115610b1b57610b1a6107b9565b5b610b27868287016108d6565b9350506020610b38868287016109f4565b9250506040610b49868287016109f4565b9150509250925092565b600082825260208201905092915050565b7f4e4f545f414c4c4f574544000000000000000000000000000000000000000000600082015250565b6000610b9a600b83610b53565b9150610ba582610b64565b602082019050919050565b60006020820190508181036000830152610bc981610b8d565b9050919050565b600081519050610bdf81610a09565b92915050565b600060208284031215610bfb57610bfa6107b4565b5b6000610c0984828501610bd0565b91505092915050565b7f494e53554646494349454e545f46554e44530000000000000000000000000000600082015250565b6000610c48601283610b53565b9150610c5382610c12565b602082019050919050565b60006020820190508181036000830152610c7781610c3b565b9050919050565b6000606082019050610c9360008301866109b3565b610ca060208301856109b3565b610cad6040830184610957565b949350505050565b60008115159050919050565b610cca81610cb5565b8114610cd557600080fd5b50565b600081519050610ce781610cc1565b92915050565b600060208284031215610d0357610d026107b4565b5b6000610d1184828501610cd8565b91505092915050565b7f4973737565727346756e643a204f4e4c595f42414e4b00000000000000000000600082015250565b6000610d50601683610b53565b9150610d5b82610d1a565b602082019050919050565b60006020820190508181036000830152610d7f81610d43565b9050919050565b600081519050919050565b600081905092915050565b60005b83811015610dba578082015181840152602081019050610d9f565b60008484015250505050565b6000610dd182610d86565b610ddb8185610d91565b9350610deb818560208601610d9c565b80840191505092915050565b6000610e038284610dc6565b915081905092915050565b7f4e487b7100000000000000000000000000000000000000000000000000000000600052601160045260246000fd5b6000610e488261094d565b9150610e538361094d565b9250828201905080821115610e6b57610e6a610e0e565b5b92915050565b6000610e7c8261094d565b9150610e878361094d565b9250828202610e958161094d565b91508282048414831517610eac57610eab610e0e565b5b5092915050565b7f4e487b7100000000000000000000000000000000000000000000000000000000600052601260045260246000fd5b6000610eed8261094d565b9150610ef88361094d565b925082610f0857610f07610eb3565b5b828204905092915050565b6000610f1e8261094d565b9150610f298361094d565b9250828203905081811115610f4157610f40610e0e565b5b9291505056fea2646970667358221220d58be0c948d8392db05f92a41ccbf87562a4019c6efed516d515dc74b44a3a5364736f6c63430008130033","opcodes":"PUSH1 0x80 PUSH1 0x40 MSTORE CALLVALUE DUP1 ISZERO PUSH3 0x11 JUMPI PUSH1 0x0 DUP1 REVERT JUMPDEST POP PUSH1 0x40 MLOAD PUSH3 0x1140 CODESIZE SUB DUP1 PUSH3 0x1140 DUP4 CODECOPY DUP2 DUP2 ADD PUSH1 0x40 MSTORE DUP2 ADD SWAP1 PUSH3 0x37 SWAP2 SWAP1 PUSH3 0x16C JUMP JUMPDEST CALLER PUSH1 0x1 PUSH1 0x0 PUSH2 0x100 EXP DUP2 SLOAD DUP2 PUSH20 0xFFFFFFFFFFFFFFFFFFFFFFFFFFFFFFFFFFFFFFFF MUL NOT AND SWAP1 DUP4 PUSH20 0xFFFFFFFFFFFFFFFFFFFFFFFFFFFFFFFFFFFFFFFF AND MUL OR SWAP1 SSTORE POP DUP2 PUSH1 0x2 PUSH1 0x0 PUSH2 0x100 EXP DUP2 SLOAD DUP2 PUSH20 0xFFFFFFFFFFFFFFFFFFFFFFFFFFFFFFFFFFFFFFFF MUL NOT AND SWAP1 DUP4 PUSH20 0xFFFFFFFFFFFFFFFFFFFFFFFFFFFFFFFFFFFFFFFF AND MUL OR SWAP1 SSTORE POP DUP1 PUSH1 0x3 PUSH1 0x0 PUSH2 0x100 EXP DUP2 SLOAD DUP2 PUSH20 0xFFFFFFFFFFFFFFFFFFFFFFFFFFFFFFFFFFFFFFFF MUL NOT AND SWAP1 DUP4 PUSH20 0xFFFFFFFFFFFFFFFFFFFFFFFFFFFFFFFFFFFFFFFF AND MUL OR SWAP1 SSTORE POP POP POP PUSH3 0x1B3 JUMP JUMPDEST PUSH1 0x0 DUP1 REVERT JUMPDEST PUSH1 0x0 PUSH20 0xFFFFFFFFFFFFFFFFFFFFFFFFFFFFFFFFFFFFFFFF DUP3 AND SWAP1 POP SWAP2 SWAP1 POP JUMP JUMPDEST PUSH1 0x0 PUSH3 0x134 DUP3 PUSH3 0x107 JUMP JUMPDEST SWAP1 POP SWAP2 SWAP1 POP JUMP JUMPDEST PUSH3 0x146 DUP2 PUSH3 0x127 JUMP JUMPDEST DUP2 EQ PUSH3 0x152 JUMPI PUSH1 0x0 DUP1 REVERT JUMPDEST POP JUMP JUMPDEST PUSH1 0x0 DUP2 MLOAD SWAP1 POP PUSH3 0x166 DUP2 PUSH3 0x13B JUMP JUMPDEST SWAP3 SWAP2 POP POP JUMP JUMPDEST PUSH1 0x0 DUP1 PUSH1 0x40 DUP4 DUP6 SUB SLT ISZERO PUSH3 0x186 JUMPI PUSH3 0x185 PUSH3 0x102 JUMP JUMPDEST JUMPDEST PUSH1 0x0 PUSH3 0x196 DUP6 DUP3 DUP7 ADD PUSH3 0x155 JUMP JUMPDEST SWAP3 POP POP PUSH1 0x20 PUSH3 0x1A9 DUP6 DUP3 DUP7 ADD PUSH3 0x155 JUMP JUMPDEST SWAP2 POP POP SWAP3 POP SWAP3 SWAP1 POP JUMP JUMPDEST PUSH2 0xF7D DUP1 PUSH3 0x1C3 PUSH1 0x0 CODECOPY PUSH1 0x0 RETURN INVALID PUSH1 0x80 PUSH1 0x40 MSTORE CALLVALUE DUP1 ISZERO PUSH2 0x10 JUMPI PUSH1 0x0 DUP1 REVERT JUMPDEST POP PUSH1 0x4 CALLDATASIZE LT PUSH2 0x7D JUMPI PUSH1 0x0 CALLDATALOAD PUSH1 0xE0 SHR DUP1 PUSH4 0x7F31ED73 GT PUSH2 0x5B JUMPI DUP1 PUSH4 0x7F31ED73 EQ PUSH2 0xEC JUMPI DUP1 PUSH4 0x925B7CB6 EQ PUSH2 0x10A JUMPI DUP1 PUSH4 0x9C34712A EQ PUSH2 0x126 JUMPI DUP1 PUSH4 0xE04CD97F EQ PUSH2 0x144 JUMPI PUSH2 0x7D JUMP JUMPDEST DUP1 PUSH4 0x14FCCFCB EQ PUSH2 0x82 JUMPI DUP1 PUSH4 0x3D52BAF9 EQ PUSH2 0xB2 JUMPI DUP1 PUSH4 0x69328DEC EQ PUSH2 0xD0 JUMPI JUMPDEST PUSH1 0x0 DUP1 REVERT JUMPDEST PUSH2 0x9C PUSH1 0x4 DUP1 CALLDATASIZE SUB DUP2 ADD SWAP1 PUSH2 0x97 SWAP2 SWAP1 PUSH2 0x904 JUMP JUMPDEST PUSH2 0x160 JUMP JUMPDEST PUSH1 0x40 MLOAD PUSH2 0xA9 SWAP2 SWAP1 PUSH2 0x966 JUMP JUMPDEST PUSH1 0x40 MLOAD DUP1 SWAP2 SUB SWAP1 RETURN JUMPDEST PUSH2 0xBA PUSH2 0x18E JUMP JUMPDEST PUSH1 0x40 MLOAD PUSH2 0xC7 SWAP2 SWAP1 PUSH2 0x9C2 JUMP JUMPDEST PUSH1 0x40 MLOAD DUP1 SWAP2 SUB SWAP1 RETURN JUMPDEST PUSH2 0xEA PUSH1 0x4 DUP1 CALLDATASIZE SUB DUP2 ADD SWAP1 PUSH2 0xE5 SWAP2 SWAP1 PUSH2 0xA35 JUMP JUMPDEST PUSH2 0x1B4 JUMP JUMPDEST STOP JUMPDEST PUSH2 0xF4 PUSH2 0x38C JUMP JUMPDEST PUSH1 0x40 MLOAD PUSH2 0x101 SWAP2 SWAP1 PUSH2 0x9C2 JUMP JUMPDEST PUSH1 0x40 MLOAD DUP1 SWAP2 SUB SWAP1 RETURN JUMPDEST PUSH2 0x124 PUSH1 0x4 DUP1 CALLDATASIZE SUB DUP2 ADD SWAP1 PUSH2 0x11F SWAP2 SWAP1 PUSH2 0xA88 JUMP JUMPDEST PUSH2 0x3B2 JUMP JUMPDEST STOP JUMPDEST PUSH2 0x12E PUSH2 0x497 JUMP JUMPDEST PUSH1 0x40 MLOAD PUSH2 0x13B SWAP2 SWAP1 PUSH2 0x9C2 JUMP JUMPDEST PUSH1 0x40 MLOAD DUP1 SWAP2 SUB SWAP1 RETURN JUMPDEST PUSH2 0x15E PUSH1 0x4 DUP1 CALLDATASIZE SUB DUP2 ADD SWAP1 PUSH2 0x159 SWAP2 SWAP1 PUSH2 0xAE4 JUMP JUMPDEST PUSH2 0x4BD JUMP JUMPDEST STOP JUMPDEST PUSH1 0x0 DUP2 DUP1 MLOAD PUSH1 0x20 DUP2 ADD DUP3 ADD DUP1 MLOAD DUP5 DUP3 MSTORE PUSH1 0x20 DUP4 ADD PUSH1 0x20 DUP6 ADD KECCAK256 DUP2 DUP4 MSTORE DUP1 SWAP6 POP POP POP POP POP POP PUSH1 0x0 SWAP2 POP SWAP1 POP SLOAD DUP2 JUMP JUMPDEST PUSH1 0x3 PUSH1 0x0 SWAP1 SLOAD SWAP1 PUSH2 0x100 EXP SWAP1 DIV PUSH20 0xFFFFFFFFFFFFFFFFFFFFFFFFFFFFFFFFFFFFFFFF AND DUP2 JUMP JUMPDEST PUSH1 0x1 PUSH1 0x0 SWAP1 SLOAD SWAP1 PUSH2 0x100 EXP SWAP1 DIV PUSH20 0xFFFFFFFFFFFFFFFFFFFFFFFFFFFFFFFFFFFFFFFF AND PUSH20 0xFFFFFFFFFFFFFFFFFFFFFFFFFFFFFFFFFFFFFFFF AND CALLER PUSH20 0xFFFFFFFFFFFFFFFFFFFFFFFFFFFFFFFFFFFFFFFF AND EQ PUSH2 0x244 JUMPI PUSH1 0x40 MLOAD PUSH32 0x8C379A000000000000000000000000000000000000000000000000000000000 DUP2 MSTORE PUSH1 0x4 ADD PUSH2 0x23B SWAP1 PUSH2 0xBB0 JUMP JUMPDEST PUSH1 0x40 MLOAD DUP1 SWAP2 SUB SWAP1 REVERT JUMPDEST PUSH1 0x0 DUP2 PUSH20 0xFFFFFFFFFFFFFFFFFFFFFFFFFFFFFFFFFFFFFFFF AND PUSH4 0x70A08231 ADDRESS PUSH1 0x40 MLOAD DUP3 PUSH4 0xFFFFFFFF AND PUSH1 0xE0 SHL DUP2 MSTORE PUSH1 0x4 ADD PUSH2 0x27F SWAP2 SWAP1 PUSH2 0x9C2 JUMP JUMPDEST PUSH1 0x20 PUSH1 0x40 MLOAD DUP1 DUP4 SUB DUP2 DUP7 GAS STATICCALL ISZERO DUP1 ISZERO PUSH2 0x29C JUMPI RETURNDATASIZE PUSH1 0x0 DUP1 RETURNDATACOPY RETURNDATASIZE PUSH1 0x0 REVERT JUMPDEST POP POP POP POP PUSH1 0x40 MLOAD RETURNDATASIZE PUSH1 0x1F NOT PUSH1 0x1F DUP3 ADD AND DUP3 ADD DUP1 PUSH1 0x40 MSTORE POP DUP2 ADD SWAP1 PUSH2 0x2C0 SWAP2 SWAP1 PUSH2 0xBE5 JUMP JUMPDEST SWAP1 POP DUP1 DUP4 GT ISZERO PUSH2 0x305 JUMPI PUSH1 0x40 MLOAD PUSH32 0x8C379A000000000000000000000000000000000000000000000000000000000 DUP2 MSTORE PUSH1 0x4 ADD PUSH2 0x2FC SWAP1 PUSH2 0xC5E JUMP JUMPDEST PUSH1 0x40 MLOAD DUP1 SWAP2 SUB SWAP1 REVERT JUMPDEST DUP2 PUSH20 0xFFFFFFFFFFFFFFFFFFFFFFFFFFFFFFFFFFFFFFFF AND PUSH4 0x23B872DD ADDRESS DUP7 DUP7 PUSH1 0x40 MLOAD DUP5 PUSH4 0xFFFFFFFF AND PUSH1 0xE0 SHL DUP2 MSTORE PUSH1 0x4 ADD PUSH2 0x342 SWAP4 SWAP3 SWAP2 SWAP1 PUSH2 0xC7E JUMP JUMPDEST PUSH1 0x20 PUSH1 0x40 MLOAD DUP1 DUP4 SUB DUP2 PUSH1 0x0 DUP8 GAS CALL ISZERO DUP1 ISZERO PUSH2 0x361 JUMPI RETURNDATASIZE PUSH1 0x0 DUP1 RETURNDATACOPY RETURNDATASIZE PUSH1 0x0 REVERT JUMPDEST POP POP POP POP PUSH1 0x40 MLOAD RETURNDATASIZE PUSH1 0x1F NOT PUSH1 0x1F DUP3 ADD AND DUP3 ADD DUP1 PUSH1 0x40 MSTORE POP DUP2 ADD SWAP1 PUSH2 0x385 SWAP2 SWAP1 PUSH2 0xCED JUMP JUMPDEST POP POP POP POP POP JUMP JUMPDEST PUSH1 0x1 PUSH1 0x0 SWAP1 SLOAD SWAP1 PUSH2 0x100 EXP SWAP1 DIV PUSH20 0xFFFFFFFFFFFFFFFFFFFFFFFFFFFFFFFFFFFFFFFF AND DUP2 JUMP JUMPDEST PUSH1 0x2 PUSH1 0x0 SWAP1 SLOAD SWAP1 PUSH2 0x100 EXP SWAP1 DIV PUSH20 0xFFFFFFFFFFFFFFFFFFFFFFFFFFFFFFFFFFFFFFFF AND PUSH20 0xFFFFFFFFFFFFFFFFFFFFFFFFFFFFFFFFFFFFFFFF AND CALLER PUSH20 0xFFFFFFFFFFFFFFFFFFFFFFFFFFFFFFFFFFFFFFFF AND EQ PUSH2 0x442 JUMPI PUSH1 0x40 MLOAD PUSH32 0x8C379A000000000000000000000000000000000000000000000000000000000 DUP2 MSTORE PUSH1 0x4 ADD PUSH2 0x439 SWAP1 PUSH2 0xD66 JUMP JUMPDEST PUSH1 0x40 MLOAD DUP1 SWAP2 SUB SWAP1 REVERT JUMPDEST PUSH1 0x0 DUP1 DUP4 PUSH1 0x40 MLOAD PUSH2 0x453 SWAP2 SWAP1 PUSH2 0xDF7 JUMP JUMPDEST SWAP1 DUP2 MSTORE PUSH1 0x20 ADD PUSH1 0x40 MLOAD DUP1 SWAP2 SUB SWAP1 KECCAK256 SLOAD SWAP1 POP DUP2 DUP2 PUSH2 0x470 SWAP2 SWAP1 PUSH2 0xE3D JUMP JUMPDEST PUSH1 0x0 DUP5 PUSH1 0x40 MLOAD PUSH2 0x480 SWAP2 SWAP1 PUSH2 0xDF7 JUMP JUMPDEST SWAP1 DUP2 MSTORE PUSH1 0x20 ADD PUSH1 0x40 MLOAD DUP1 SWAP2 SUB SWAP1 KECCAK256 DUP2 SWAP1 SSTORE POP POP POP POP JUMP JUMPDEST PUSH1 0x2 PUSH1 0x0 SWAP1 SLOAD SWAP1 PUSH2 0x100 EXP SWAP1 DIV PUSH20 0xFFFFFFFFFFFFFFFFFFFFFFFFFFFFFFFFFFFFFFFF AND DUP2 JUMP JUMPDEST PUSH1 0x2 PUSH1 0x0 SWAP1 SLOAD SWAP1 PUSH2 0x100 EXP SWAP1 DIV PUSH20 0xFFFFFFFFFFFFFFFFFFFFFFFFFFFFFFFFFFFFFFFF AND PUSH20 0xFFFFFFFFFFFFFFFFFFFFFFFFFFFFFFFFFFFFFFFF AND CALLER PUSH20 0xFFFFFFFFFFFFFFFFFFFFFFFFFFFFFFFFFFFFFFFF AND EQ PUSH2 0x54D JUMPI PUSH1 0x40 MLOAD PUSH32 0x8C379A000000000000000000000000000000000000000000000000000000000 DUP2 MSTORE PUSH1 0x4 ADD PUSH2 0x544 SWAP1 PUSH2 0xD66 JUMP JUMPDEST PUSH1 0x40 MLOAD DUP1 SWAP2 SUB SWAP1 REVERT JUMPDEST PUSH1 0x0 DUP1 DUP5 PUSH1 0x40 MLOAD PUSH2 0x55E SWAP2 SWAP1 PUSH2 0xDF7 JUMP JUMPDEST SWAP1 DUP2 MSTORE PUSH1 0x20 ADD PUSH1 0x40 MLOAD DUP1 SWAP2 SUB SWAP1 KECCAK256 SLOAD SWAP1 POP PUSH1 0x0 PUSH1 0x2 PUSH1 0x0 SWAP1 SLOAD SWAP1 PUSH2 0x100 EXP SWAP1 DIV PUSH20 0xFFFFFFFFFFFFFFFFFFFFFFFFFFFFFFFFFFFFFFFF AND PUSH20 0xFFFFFFFFFFFFFFFFFFFFFFFFFFFFFFFFFFFFFFFF AND PUSH4 0xFF6689D0 PUSH1 0x40 MLOAD DUP2 PUSH4 0xFFFFFFFF AND PUSH1 0xE0 SHL DUP2 MSTORE PUSH1 0x4 ADD PUSH1 0x20 PUSH1 0x40 MLOAD DUP1 DUP4 SUB DUP2 DUP7 GAS STATICCALL ISZERO DUP1 ISZERO PUSH2 0x5DE JUMPI RETURNDATASIZE PUSH1 0x0 DUP1 RETURNDATACOPY RETURNDATASIZE PUSH1 0x0 REVERT JUMPDEST POP POP POP POP PUSH1 0x40 MLOAD RETURNDATASIZE PUSH1 0x1F NOT PUSH1 0x1F DUP3 ADD AND DUP3 ADD DUP1 PUSH1 0x40 MSTORE POP DUP2 ADD SWAP1 PUSH2 0x602 SWAP2 SWAP1 PUSH2 0xBE5 JUMP JUMPDEST SWAP1 POP DUP3 PUSH20 0xFFFFFFFFFFFFFFFFFFFFFFFFFFFFFFFFFFFFFFFF AND PUSH4 0x23B872DD ADDRESS PUSH1 0x3 PUSH1 0x0 SWAP1 SLOAD SWAP1 PUSH2 0x100 EXP SWAP1 DIV PUSH20 0xFFFFFFFFFFFFFFFFFFFFFFFFFFFFFFFFFFFFFFFF AND PUSH2 0x2710 PUSH8 0xDE0B6B3A7640000 DUP7 PUSH2 0x65B SWAP2 SWAP1 PUSH2 0xE71 JUMP JUMPDEST PUSH2 0x665 SWAP2 SWAP1 PUSH2 0xEE2 JUMP JUMPDEST PUSH1 0x40 MLOAD DUP5 PUSH4 0xFFFFFFFF AND PUSH1 0xE0 SHL DUP2 MSTORE PUSH1 0x4 ADD PUSH2 0x683 SWAP4 SWAP3 SWAP2 SWAP1 PUSH2 0xC7E JUMP JUMPDEST PUSH1 0x20 PUSH1 0x40 MLOAD DUP1 DUP4 SUB DUP2 PUSH1 0x0 DUP8 GAS CALL ISZERO DUP1 ISZERO PUSH2 0x6A2 JUMPI RETURNDATASIZE PUSH1 0x0 DUP1 RETURNDATACOPY RETURNDATASIZE PUSH1 0x0 REVERT JUMPDEST POP POP POP POP PUSH1 0x40 MLOAD RETURNDATASIZE PUSH1 0x1F NOT PUSH1 0x1F DUP3 ADD AND DUP3 ADD DUP1 PUSH1 0x40 MSTORE POP DUP2 ADD SWAP1 PUSH2 0x6C6 SWAP2 SWAP1 PUSH2 0xCED JUMP JUMPDEST POP DUP3 PUSH20 0xFFFFFFFFFFFFFFFFFFFFFFFFFFFFFFFFFFFFFFFF AND PUSH4 0x23B872DD ADDRESS DUP7 PUSH2 0x2710 PUSH8 0xDE0B6B3A7640000 DUP7 DUP9 PUSH2 0x2710 PUSH2 0x700 SWAP2 SWAP1 PUSH2 0xE71 JUMP JUMPDEST PUSH2 0x70A SWAP2 SWAP1 PUSH2 0xF13 JUMP JUMPDEST PUSH2 0x714 SWAP2 SWAP1 PUSH2 0xE71 JUMP JUMPDEST PUSH2 0x71E SWAP2 SWAP1 PUSH2 0xEE2 JUMP JUMPDEST PUSH1 0x40 MLOAD DUP5 PUSH4 0xFFFFFFFF AND PUSH1 0xE0 SHL DUP2 MSTORE PUSH1 0x4 ADD PUSH2 0x73C SWAP4 SWAP3 SWAP2 SWAP1 PUSH2 0xC7E JUMP JUMPDEST PUSH1 0x20 PUSH1 0x40 MLOAD DUP1 DUP4 SUB DUP2 PUSH1 0x0 DUP8 GAS CALL ISZERO DUP1 ISZERO PUSH2 0x75B JUMPI RETURNDATASIZE PUSH1 0x0 DUP1 RETURNDATACOPY RETURNDATASIZE PUSH1 0x0 REVERT JUMPDEST POP POP POP POP PUSH1 0x40 MLOAD RETURNDATASIZE PUSH1 0x1F NOT PUSH1 0x1F DUP3 ADD AND DUP3 ADD DUP1 PUSH1 0x40 MSTORE POP DUP2 ADD SWAP1 PUSH2 0x77F SWAP2 SWAP1 PUSH2 0xCED JUMP JUMPDEST POP PUSH1 0x0 DUP1 DUP7 PUSH1 0x40 MLOAD PUSH2 0x791 SWAP2 SWAP1 PUSH2 0xDF7 JUMP JUMPDEST SWAP1 DUP2 MSTORE PUSH1 0x20 ADD PUSH1 0x40 MLOAD DUP1 SWAP2 SUB SWAP1 KECCAK256 DUP2 SWAP1 SSTORE POP POP POP POP POP POP JUMP JUMPDEST PUSH1 0x0 PUSH1 0x40 MLOAD SWAP1 POP SWAP1 JUMP JUMPDEST PUSH1 0x0 DUP1 REVERT JUMPDEST PUSH1 0x0 DUP1 REVERT JUMPDEST PUSH1 0x0 DUP1 REVERT JUMPDEST PUSH1 0x0 DUP1 REVERT JUMPDEST PUSH1 0x0 PUSH1 0x1F NOT PUSH1 0x1F DUP4 ADD AND SWAP1 POP SWAP2 SWAP1 POP JUMP JUMPDEST PUSH32 0x4E487B7100000000000000000000000000000000000000000000000000000000 PUSH1 0x0 MSTORE PUSH1 0x41 PUSH1 0x4 MSTORE PUSH1 0x24 PUSH1 0x0 REVERT JUMPDEST PUSH2 0x811 DUP3 PUSH2 0x7C8 JUMP JUMPDEST DUP2 ADD DUP2 DUP2 LT PUSH8 0xFFFFFFFFFFFFFFFF DUP3 GT OR ISZERO PUSH2 0x830 JUMPI PUSH2 0x82F PUSH2 0x7D9 JUMP JUMPDEST JUMPDEST DUP1 PUSH1 0x40 MSTORE POP POP POP JUMP JUMPDEST PUSH1 0x0 PUSH2 0x843 PUSH2 0x7AA JUMP JUMPDEST SWAP1 POP PUSH2 0x84F DUP3 DUP3 PUSH2 0x808 JUMP JUMPDEST SWAP2 SWAP1 POP JUMP JUMPDEST PUSH1 0x0 PUSH8 0xFFFFFFFFFFFFFFFF DUP3 GT ISZERO PUSH2 0x86F JUMPI PUSH2 0x86E PUSH2 0x7D9 JUMP JUMPDEST JUMPDEST PUSH2 0x878 DUP3 PUSH2 0x7C8 JUMP JUMPDEST SWAP1 POP PUSH1 0x20 DUP2 ADD SWAP1 POP SWAP2 SWAP1 POP JUMP JUMPDEST DUP3 DUP2 DUP4 CALLDATACOPY PUSH1 0x0 DUP4 DUP4 ADD MSTORE POP POP POP JUMP JUMPDEST PUSH1 0x0 PUSH2 0x8A7 PUSH2 0x8A2 DUP5 PUSH2 0x854 JUMP JUMPDEST PUSH2 0x839 JUMP JUMPDEST SWAP1 POP DUP3 DUP2 MSTORE PUSH1 0x20 DUP2 ADD DUP5 DUP5 DUP5 ADD GT ISZERO PUSH2 0x8C3 JUMPI PUSH2 0x8C2 PUSH2 0x7C3 JUMP JUMPDEST JUMPDEST PUSH2 0x8CE DUP5 DUP3 DUP6 PUSH2 0x885 JUMP JUMPDEST POP SWAP4 SWAP3 POP POP POP JUMP JUMPDEST PUSH1 0x0 DUP3 PUSH1 0x1F DUP4 ADD SLT PUSH2 0x8EB JUMPI PUSH2 0x8EA PUSH2 0x7BE JUMP JUMPDEST JUMPDEST DUP2 CALLDATALOAD PUSH2 0x8FB DUP5 DUP3 PUSH1 0x20 DUP7 ADD PUSH2 0x894 JUMP JUMPDEST SWAP2 POP POP SWAP3 SWAP2 POP POP JUMP JUMPDEST PUSH1 0x0 PUSH1 0x20 DUP3 DUP5 SUB SLT ISZERO PUSH2 0x91A JUMPI PUSH2 0x919 PUSH2 0x7B4 JUMP JUMPDEST JUMPDEST PUSH1 0x0 DUP3 ADD CALLDATALOAD PUSH8 0xFFFFFFFFFFFFFFFF DUP2 GT ISZERO PUSH2 0x938 JUMPI PUSH2 0x937 PUSH2 0x7B9 JUMP JUMPDEST JUMPDEST PUSH2 0x944 DUP5 DUP3 DUP6 ADD PUSH2 0x8D6 JUMP JUMPDEST SWAP2 POP POP SWAP3 SWAP2 POP POP JUMP JUMPDEST PUSH1 0x0 DUP2 SWAP1 POP SWAP2 SWAP1 POP JUMP JUMPDEST PUSH2 0x960 DUP2 PUSH2 0x94D JUMP JUMPDEST DUP3 MSTORE POP POP JUMP JUMPDEST PUSH1 0x0 PUSH1 0x20 DUP3 ADD SWAP1 POP PUSH2 0x97B PUSH1 0x0 DUP4 ADD DUP5 PUSH2 0x957 JUMP JUMPDEST SWAP3 SWAP2 POP POP JUMP JUMPDEST PUSH1 0x0 PUSH20 0xFFFFFFFFFFFFFFFFFFFFFFFFFFFFFFFFFFFFFFFF DUP3 AND SWAP1 POP SWAP2 SWAP1 POP JUMP JUMPDEST PUSH1 0x0 PUSH2 0x9AC DUP3 PUSH2 0x981 JUMP JUMPDEST SWAP1 POP SWAP2 SWAP1 POP JUMP JUMPDEST PUSH2 0x9BC DUP2 PUSH2 0x9A1 JUMP JUMPDEST DUP3 MSTORE POP POP JUMP JUMPDEST PUSH1 0x0 PUSH1 0x20 DUP3 ADD SWAP1 POP PUSH2 0x9D7 PUSH1 0x0 DUP4 ADD DUP5 PUSH2 0x9B3 JUMP JUMPDEST SWAP3 SWAP2 POP POP JUMP JUMPDEST PUSH2 0x9E6 DUP2 PUSH2 0x9A1 JUMP JUMPDEST DUP2 EQ PUSH2 0x9F1 JUMPI PUSH1 0x0 DUP1 REVERT JUMPDEST POP JUMP JUMPDEST PUSH1 0x0 DUP2 CALLDATALOAD SWAP1 POP PUSH2 0xA03 DUP2 PUSH2 0x9DD JUMP JUMPDEST SWAP3 SWAP2 POP POP JUMP JUMPDEST PUSH2 0xA12 DUP2 PUSH2 0x94D JUMP JUMPDEST DUP2 EQ PUSH2 0xA1D JUMPI PUSH1 0x0 DUP1 REVERT JUMPDEST POP JUMP JUMPDEST PUSH1 0x0 DUP2 CALLDATALOAD SWAP1 POP PUSH2 0xA2F DUP2 PUSH2 0xA09 JUMP JUMPDEST SWAP3 SWAP2 POP POP JUMP JUMPDEST PUSH1 0x0 DUP1 PUSH1 0x0 PUSH1 0x60 DUP5 DUP7 SUB SLT ISZERO PUSH2 0xA4E JUMPI PUSH2 0xA4D PUSH2 0x7B4 JUMP JUMPDEST JUMPDEST PUSH1 0x0 PUSH2 0xA5C DUP7 DUP3 DUP8 ADD PUSH2 0x9F4 JUMP JUMPDEST SWAP4 POP POP PUSH1 0x20 PUSH2 0xA6D DUP7 DUP3 DUP8 ADD PUSH2 0xA20 JUMP JUMPDEST SWAP3 POP POP PUSH1 0x40 PUSH2 0xA7E DUP7 DUP3 DUP8 ADD PUSH2 0x9F4 JUMP JUMPDEST SWAP2 POP POP SWAP3 POP SWAP3 POP SWAP3 JUMP JUMPDEST PUSH1 0x0 DUP1 PUSH1 0x40 DUP4 DUP6 SUB SLT ISZERO PUSH2 0xA9F JUMPI PUSH2 0xA9E PUSH2 0x7B4 JUMP JUMPDEST JUMPDEST PUSH1 0x0 DUP4 ADD CALLDATALOAD PUSH8 0xFFFFFFFFFFFFFFFF DUP2 GT ISZERO PUSH2 0xABD JUMPI PUSH2 0xABC PUSH2 0x7B9 JUMP JUMPDEST JUMPDEST PUSH2 0xAC9 DUP6 DUP3 DUP7 ADD PUSH2 0x8D6 JUMP JUMPDEST SWAP3 POP POP PUSH1 0x20 PUSH2 0xADA DUP6 DUP3 DUP7 ADD PUSH2 0xA20 JUMP JUMPDEST SWAP2 POP POP SWAP3 POP SWAP3 SWAP1 POP JUMP JUMPDEST PUSH1 0x0 DUP1 PUSH1 0x0 PUSH1 0x60 DUP5 DUP7 SUB SLT ISZERO PUSH2 0xAFD JUMPI PUSH2 0xAFC PUSH2 0x7B4 JUMP JUMPDEST JUMPDEST PUSH1 0x0 DUP5 ADD CALLDATALOAD PUSH8 0xFFFFFFFFFFFFFFFF DUP2 GT ISZERO PUSH2 0xB1B JUMPI PUSH2 0xB1A PUSH2 0x7B9 JUMP JUMPDEST JUMPDEST PUSH2 0xB27 DUP7 DUP3 DUP8 ADD PUSH2 0x8D6 JUMP JUMPDEST SWAP4 POP POP PUSH1 0x20 PUSH2 0xB38 DUP7 DUP3 DUP8 ADD PUSH2 0x9F4 JUMP JUMPDEST SWAP3 POP POP PUSH1 0x40 PUSH2 0xB49 DUP7 DUP3 DUP8 ADD PUSH2 0x9F4 JUMP JUMPDEST SWAP2 POP POP SWAP3 POP SWAP3 POP SWAP3 JUMP JUMPDEST PUSH1 0x0 DUP3 DUP3 MSTORE PUSH1 0x20 DUP3 ADD SWAP1 POP SWAP3 SWAP2 POP POP JUMP JUMPDEST PUSH32 0x4E4F545F414C4C4F574544000000000000000000000000000000000000000000 PUSH1 0x0 DUP3 ADD MSTORE POP JUMP JUMPDEST PUSH1 0x0 PUSH2 0xB9A PUSH1 0xB DUP4 PUSH2 0xB53 JUMP JUMPDEST SWAP2 POP PUSH2 0xBA5 DUP3 PUSH2 0xB64 JUMP JUMPDEST PUSH1 0x20 DUP3 ADD SWAP1 POP SWAP2 SWAP1 POP JUMP JUMPDEST PUSH1 0x0 PUSH1 0x20 DUP3 ADD SWAP1 POP DUP2 DUP2 SUB PUSH1 0x0 DUP4 ADD MSTORE PUSH2 0xBC9 DUP2 PUSH2 0xB8D JUMP JUMPDEST SWAP1 POP SWAP2 SWAP1 POP JUMP JUMPDEST PUSH1 0x0 DUP2 MLOAD SWAP1 POP PUSH2 0xBDF DUP2 PUSH2 0xA09 JUMP JUMPDEST SWAP3 SWAP2 POP POP JUMP JUMPDEST PUSH1 0x0 PUSH1 0x20 DUP3 DUP5 SUB SLT ISZERO PUSH2 0xBFB JUMPI PUSH2 0xBFA PUSH2 0x7B4 JUMP JUMPDEST JUMPDEST PUSH1 0x0 PUSH2 0xC09 DUP5 DUP3 DUP6 ADD PUSH2 0xBD0 JUMP JUMPDEST SWAP2 POP POP SWAP3 SWAP2 POP POP JUMP JUMPDEST PUSH32 0x494E53554646494349454E545F46554E44530000000000000000000000000000 PUSH1 0x0 DUP3 ADD MSTORE POP JUMP JUMPDEST PUSH1 0x0 PUSH2 0xC48 PUSH1 0x12 DUP4 PUSH2 0xB53 JUMP JUMPDEST SWAP2 POP PUSH2 0xC53 DUP3 PUSH2 0xC12 JUMP JUMPDEST PUSH1 0x20 DUP3 ADD SWAP1 POP SWAP2 SWAP1 POP JUMP JUMPDEST PUSH1 0x0 PUSH1 0x20 DUP3 ADD SWAP1 POP DUP2 DUP2 SUB PUSH1 0x0 DUP4 ADD MSTORE PUSH2 0xC77 DUP2 PUSH2 0xC3B JUMP JUMPDEST SWAP1 POP SWAP2 SWAP1 POP JUMP JUMPDEST PUSH1 0x0 PUSH1 0x60 DUP3 ADD SWAP1 POP PUSH2 0xC93 PUSH1 0x0 DUP4 ADD DUP7 PUSH2 0x9B3 JUMP JUMPDEST PUSH2 0xCA0 PUSH1 0x20 DUP4 ADD DUP6 PUSH2 0x9B3 JUMP JUMPDEST PUSH2 0xCAD PUSH1 0x40 DUP4 ADD DUP5 PUSH2 0x957 JUMP JUMPDEST SWAP5 SWAP4 POP POP POP POP JUMP JUMPDEST PUSH1 0x0 DUP2 ISZERO ISZERO SWAP1 POP SWAP2 SWAP1 POP JUMP JUMPDEST PUSH2 0xCCA DUP2 PUSH2 0xCB5 JUMP JUMPDEST DUP2 EQ PUSH2 0xCD5 JUMPI PUSH1 0x0 DUP1 REVERT JUMPDEST POP JUMP JUMPDEST PUSH1 0x0 DUP2 MLOAD SWAP1 POP PUSH2 0xCE7 DUP2 PUSH2 0xCC1 JUMP JUMPDEST SWAP3 SWAP2 POP POP JUMP JUMPDEST PUSH1 0x0 PUSH1 0x20 DUP3 DUP5 SUB SLT ISZERO PUSH2 0xD03 JUMPI PUSH2 0xD02 PUSH2 0x7B4 JUMP JUMPDEST JUMPDEST PUSH1 0x0 PUSH2 0xD11 DUP5 DUP3 DUP6 ADD PUSH2 0xCD8 JUMP JUMPDEST SWAP2 POP POP SWAP3 SWAP2 POP POP JUMP JUMPDEST PUSH32 0x4973737565727346756E643A204F4E4C595F42414E4B00000000000000000000 PUSH1 0x0 DUP3 ADD MSTORE POP JUMP JUMPDEST PUSH1 0x0 PUSH2 0xD50 PUSH1 0x16 DUP4 PUSH2 0xB53 JUMP JUMPDEST SWAP2 POP PUSH2 0xD5B DUP3 PUSH2 0xD1A JUMP JUMPDEST PUSH1 0x20 DUP3 ADD SWAP1 POP SWAP2 SWAP1 POP JUMP JUMPDEST PUSH1 0x0 PUSH1 0x20 DUP3 ADD SWAP1 POP DUP2 DUP2 SUB PUSH1 0x0 DUP4 ADD MSTORE PUSH2 0xD7F DUP2 PUSH2 0xD43 JUMP JUMPDEST SWAP1 POP SWAP2 SWAP1 POP JUMP JUMPDEST PUSH1 0x0 DUP2 MLOAD SWAP1 POP SWAP2 SWAP1 POP JUMP JUMPDEST PUSH1 0x0 DUP2 SWAP1 POP SWAP3 SWAP2 POP POP JUMP JUMPDEST PUSH1 0x0 JUMPDEST DUP4 DUP2 LT ISZERO PUSH2 0xDBA JUMPI DUP1 DUP3 ADD MLOAD DUP2 DUP5 ADD MSTORE PUSH1 0x20 DUP2 ADD SWAP1 POP PUSH2 0xD9F JUMP JUMPDEST PUSH1 0x0 DUP5 DUP5 ADD MSTORE POP POP POP POP JUMP JUMPDEST PUSH1 0x0 PUSH2 0xDD1 DUP3 PUSH2 0xD86 JUMP JUMPDEST PUSH2 0xDDB DUP2 DUP6 PUSH2 0xD91 JUMP JUMPDEST SWAP4 POP PUSH2 0xDEB DUP2 DUP6 PUSH1 0x20 DUP7 ADD PUSH2 0xD9C JUMP JUMPDEST DUP1 DUP5 ADD SWAP2 POP POP SWAP3 SWAP2 POP POP JUMP JUMPDEST PUSH1 0x0 PUSH2 0xE03 DUP3 DUP5 PUSH2 0xDC6 JUMP JUMPDEST SWAP2 POP DUP2 SWAP1 POP SWAP3 SWAP2 POP POP JUMP JUMPDEST PUSH32 0x4E487B7100000000000000000000000000000000000000000000000000000000 PUSH1 0x0 MSTORE PUSH1 0x11 PUSH1 0x4 MSTORE PUSH1 0x24 PUSH1 0x0 REVERT JUMPDEST PUSH1 0x0 PUSH2 0xE48 DUP3 PUSH2 0x94D JUMP JUMPDEST SWAP2 POP PUSH2 0xE53 DUP4 PUSH2 0x94D JUMP JUMPDEST SWAP3 POP DUP3 DUP3 ADD SWAP1 POP DUP1 DUP3 GT ISZERO PUSH2 0xE6B JUMPI PUSH2 0xE6A PUSH2 0xE0E JUMP JUMPDEST JUMPDEST SWAP3 SWAP2 POP POP JUMP JUMPDEST PUSH1 0x0 PUSH2 0xE7C DUP3 PUSH2 0x94D JUMP JUMPDEST SWAP2 POP PUSH2 0xE87 DUP4 PUSH2 0x94D JUMP JUMPDEST SWAP3 POP DUP3 DUP3 MUL PUSH2 0xE95 DUP2 PUSH2 0x94D JUMP JUMPDEST SWAP2 POP DUP3 DUP3 DIV DUP5 EQ DUP4 ISZERO OR PUSH2 0xEAC JUMPI PUSH2 0xEAB PUSH2 0xE0E JUMP JUMPDEST JUMPDEST POP SWAP3 SWAP2 POP POP JUMP JUMPDEST PUSH32 0x4E487B7100000000000000000000000000000000000000000000000000000000 PUSH1 0x0 MSTORE PUSH1 0x12 PUSH1 0x4 MSTORE PUSH1 0x24 PUSH1 0x0 REVERT JUMPDEST PUSH1 0x0 PUSH2 0xEED DUP3 PUSH2 0x94D JUMP JUMPDEST SWAP2 POP PUSH2 0xEF8 DUP4 PUSH2 0x94D JUMP JUMPDEST SWAP3 POP DUP3 PUSH2 0xF08 JUMPI PUSH2 0xF07 PUSH2 0xEB3 JUMP JUMPDEST JUMPDEST DUP3 DUP3 DIV SWAP1 POP SWAP3 SWAP2 POP POP JUMP JUMPDEST PUSH1 0x0 PUSH2 0xF1E DUP3 PUSH2 0x94D JUMP JUMPDEST SWAP2 POP PUSH2 0xF29 DUP4 PUSH2 0x94D JUMP JUMPDEST SWAP3 POP DUP3 DUP3 SUB SWAP1 POP DUP2 DUP2 GT ISZERO PUSH2 0xF41 JUMPI PUSH2 0xF40 PUSH2 0xE0E JUMP JUMPDEST JUMPDEST SWAP3 SWAP2 POP POP JUMP INVALID LOG2 PUSH5 0x6970667358 0x22 SLT KECCAK256 0xD5 DUP12 0xE0 0xC9 BASEFEE 0xD8 CODECOPY 0x2D 0xB0 0x5F SWAP3 LOG4 SHR 0xCB 0xF8 PUSH22 0x62A4019C6EFED516D515DC74B44A3A5364736F6C6343 STOP ADDMOD SGT STOP CALLER "},"methodIdentifiers":{"addFund(string,uint256)":"925b7cb6","toposBankContract()":"9c34712a","toposManager()":"7f31ed73","toposTreasury()":"3d52baf9","totalAmount(string)":"14fccfcb","withdraw(address,uint256,address)":"69328dec","withdrawFund(string,address,address)":"e04cd97f"}}}}}