{"contracts/Topos/Bank/Issuer.sol":{"Issuer":{"abi":[{"inputs":[{"internalType":"address","name":"_toposBankContract","type":"address"}],"stateMutability":"nonpayable","type":"constructor"},{"anonymous":false,"inputs":[{"indexed":false,"internalType":"address","name":"issuer","type":"address"}],"name":"ApproveIssuer","type":"event"},{"anonymous":false,"inputs":[{"indexed":false,"internalType":"address","name":"issuer","type":"address"}],"name":"RejectIssuer","type":"event"},{"anonymous":false,"inputs":[{"indexed":false,"internalType":"address","name":"issuer","type":"address"}],"name":"RequestIssuerRegistration","type":"event"},{"inputs":[{"internalType":"address","name":"_issuer","type":"address"}],"name":"approveIssuer","outputs":[],"stateMutability":"nonpayable","type":"function"},{"inputs":[{"internalType":"address","name":"","type":"address"}],"name":"issuerStatus","outputs":[{"internalType":"enum BondData.StakeHolderStatus","name":"","type":"uint8"}],"stateMutability":"view","type":"function"},{"inputs":[{"internalType":"address","name":"","type":"address"}],"name":"issuers","outputs":[{"internalType":"string","name":"documentURI","type":"string"},{"internalType":"string","name":"name","type":"string"},{"internalType":"string","name":"country","type":"string"},{"internalType":"string","name":"issuerType","type":"string"},{"internalType":"string","name":"creditRating","type":"string"},{"internalType":"uint256","name":"carbonCredit","type":"uint256"},{"internalType":"address","name":"walletAddress","type":"address"}],"stateMutability":"view","type":"function"},{"inputs":[{"internalType":"address","name":"_issuer","type":"address"}],"name":"rejectIssuer","outputs":[],"stateMutability":"nonpayable","type":"function"},{"inputs":[{"components":[{"internalType":"string","name":"documentURI","type":"string"},{"internalType":"string","name":"name","type":"string"},{"internalType":"string","name":"country","type":"string"},{"internalType":"string","name":"issuerType","type":"string"},{"internalType":"string","name":"creditRating","type":"string"},{"internalType":"uint256","name":"carbonCredit","type":"uint256"},{"internalType":"address","name":"walletAddress","type":"address"}],"internalType":"struct BondData.Issuer","name":"_issuer","type":"tuple"}],"name":"requestRegistrationIssuer","outputs":[],"stateMutability":"nonpayable","type":"function"},{"inputs":[],"name":"toposBankContract","outputs":[{"internalType":"address","name":"","type":"address"}],"stateMutability":"view","type":"function"}],"evm":{"bytecode":{"linkReferences":{},"object":"60806040523480156200001157600080fd5b5060405162001acc38038062001acc8339818101604052810190620000379190620000e9565b80600260006101000a81548173ffffffffffffffffffffffffffffffffffffffff021916908373ffffffffffffffffffffffffffffffffffffffff160217905550506200011b565b600080fd5b600073ffffffffffffffffffffffffffffffffffffffff82169050919050565b6000620000b18262000084565b9050919050565b620000c381620000a4565b8114620000cf57600080fd5b50565b600081519050620000e381620000b8565b92915050565b6000602082840312156200010257620001016200007f565b5b60006200011284828501620000d2565b91505092915050565b6119a1806200012b6000396000f3fe608060405234801561001057600080fd5b50600436106100625760003560e01c806338a7543e146100675780633dc349be1461009d57806382deb86e146100b95780639c34712a146100d5578063c88efe65146100f3578063fcbb3c181461010f575b600080fd5b610081600480360381019061007c9190610dcc565b61013f565b6040516100949796959493929190610eb1565b60405180910390f35b6100b760048036038101906100b29190610f67565b610449565b005b6100d360048036038101906100ce9190610dcc565b6107f6565b005b6100dd610ac1565b6040516100ea9190610fb0565b60405180910390f35b61010d60048036038101906101089190610dcc565b610ae7565b005b61012960048036038101906101249190610dcc565b610d44565b6040516101369190611042565b60405180910390f35b60006020528060005260406000206000915090508060000180546101629061108c565b80601f016020809104026020016040519081016040528092919081815260200182805461018e9061108c565b80156101db5780601f106101b0576101008083540402835291602001916101db565b820191906000526020600020905b8154815290600101906020018083116101be57829003601f168201915b5050505050908060010180546101f09061108c565b80601f016020809104026020016040519081016040528092919081815260200182805461021c9061108c565b80156102695780601f1061023e57610100808354040283529160200191610269565b820191906000526020600020905b81548152906001019060200180831161024c57829003601f168201915b50505050509080600201805461027e9061108c565b80601f01602080910402602001604051908101604052809291908181526020018280546102aa9061108c565b80156102f75780601f106102cc576101008083540402835291602001916102f7565b820191906000526020600020905b8154815290600101906020018083116102da57829003601f168201915b50505050509080600301805461030c9061108c565b80601f01602080910402602001604051908101604052809291908181526020018280546103389061108c565b80156103855780601f1061035a57610100808354040283529160200191610385565b820191906000526020600020905b81548152906001019060200180831161036857829003601f168201915b50505050509080600401805461039a9061108c565b80601f01602080910402602001604051908101604052809291908181526020018280546103c69061108c565b80156104135780601f106103e857610100808354040283529160200191610413565b820191906000526020600020905b8154815290600101906020018083116103f657829003601f168201915b5050505050908060050154908060060160009054906101000a900473ffffffffffffffffffffffffffffffffffffffff16905087565b8060c001602081019061045c9190610dcc565b6000600260009054906101000a900473ffffffffffffffffffffffffffffffffffffffff1673ffffffffffffffffffffffffffffffffffffffff1663c3a2a93a6040518163ffffffff1660e01b815260040160a060405180830381865afa1580156104cb573d6000803e3d6000fd5b505050506040513d601f19601f820116820180604052508101906104ef91906110d2565b5050925050508073ffffffffffffffffffffffffffffffffffffffff1663b9209e33836040518263ffffffff1660e01b815260040161052e9190610fb0565b602060405180830381865afa15801561054b573d6000803e3d6000fd5b505050506040513d601f19601f8201168201806040525081019061056f9190611185565b6105ae576040517f08c379a00000000000000000000000000000000000000000000000000000000081526004016105a5906111fe565b60405180910390fd5b8260c00160208101906105c19190610dcc565b73ffffffffffffffffffffffffffffffffffffffff163373ffffffffffffffffffffffffffffffffffffffff161461062e576040517f08c379a00000000000000000000000000000000000000000000000000000000081526004016106259061126a565b60405180910390fd5b6000600381111561064257610641610fcb565b5b600160003373ffffffffffffffffffffffffffffffffffffffff1673ffffffffffffffffffffffffffffffffffffffff16815260200190815260200160002060009054906101000a900460ff1660038111156106a1576106a0610fcb565b5b146106e1576040517f08c379a00000000000000000000000000000000000000000000000000000000081526004016106d8906112d6565b60405180910390fd5b826000808560c00160208101906106f89190610dcc565b73ffffffffffffffffffffffffffffffffffffffff1673ffffffffffffffffffffffffffffffffffffffff168152602001908152602001600020818161073e9190611877565b90505060018060003373ffffffffffffffffffffffffffffffffffffffff1673ffffffffffffffffffffffffffffffffffffffff16815260200190815260200160002060006101000a81548160ff021916908360038111156107a3576107a2610fcb565b5b02179055507f0a0028275fa37d11ea8d5d29fd14fd8aa6c52af0e0cf819b89ca2cd9193f11858360c00160208101906107dc9190610dcc565b6040516107e99190610fb0565b60405180910390a1505050565b600080600260009054906101000a900473ffffffffffffffffffffffffffffffffffffffff1673ffffffffffffffffffffffffffffffffffffffff1663c3a2a93a6040518163ffffffff1660e01b815260040160a060405180830381865afa158015610866573d6000803e3d6000fd5b505050506040513d601f19601f8201168201806040525081019061088a91906110d2565b505050915091508173ffffffffffffffffffffffffffffffffffffffff163373ffffffffffffffffffffffffffffffffffffffff16146108ff576040517f08c379a00000000000000000000000000000000000000000000000000000000081526004016108f6906118d1565b60405180910390fd5b6001600381111561091357610912610fcb565b5b600160008573ffffffffffffffffffffffffffffffffffffffff1673ffffffffffffffffffffffffffffffffffffffff16815260200190815260200160002060009054906101000a900460ff16600381111561097257610971610fcb565b5b146109b2576040517f08c379a00000000000000000000000000000000000000000000000000000000081526004016109a9906112d6565b60405180910390fd5b6002600160008573ffffffffffffffffffffffffffffffffffffffff1673ffffffffffffffffffffffffffffffffffffffff16815260200190815260200160002060006101000a81548160ff02191690836003811115610a1557610a14610fcb565b5b02179055508073ffffffffffffffffffffffffffffffffffffffff1663cfde1890846040518263ffffffff1660e01b8152600401610a53919061193d565b600060405180830381600087803b158015610a6d57600080fd5b505af1158015610a81573d6000803e3d6000fd5b505050507f0e387c88130575bf91cadf15934854a1ed11d5c16d63f1106b6fd6e139d1202e83604051610ab49190610fb0565b60405180910390a1505050565b600260009054906101000a900473ffffffffffffffffffffffffffffffffffffffff1681565b6000600260009054906101000a900473ffffffffffffffffffffffffffffffffffffffff1673ffffffffffffffffffffffffffffffffffffffff1663c3a2a93a6040518163ffffffff1660e01b815260040160a060405180830381865afa158015610b56573d6000803e3d6000fd5b505050506040513d601f19601f82011682018060405250810190610b7a91906110d2565b5050505090508073ffffffffffffffffffffffffffffffffffffffff163373ffffffffffffffffffffffffffffffffffffffff1614610bee576040517f08c379a0000000000000000000000000000000000000000000000000000000008152600401610be5906118d1565b60405180910390fd5b60016003811115610c0257610c01610fcb565b5b600160008473ffffffffffffffffffffffffffffffffffffffff1673ffffffffffffffffffffffffffffffffffffffff16815260200190815260200160002060009054906101000a900460ff166003811115610c6157610c60610fcb565b5b14610ca1576040517f08c379a0000000000000000000000000000000000000000000000000000000008152600401610c98906112d6565b60405180910390fd5b6003600160008473ffffffffffffffffffffffffffffffffffffffff1673ffffffffffffffffffffffffffffffffffffffff16815260200190815260200160002060006101000a81548160ff02191690836003811115610d0457610d03610fcb565b5b02179055507fe341ab2ef130ae159f5f54c8be96a79ffe8f98948aa6d0e1bdeb60e6201ada2a82604051610d389190610fb0565b60405180910390a15050565b60016020528060005260406000206000915054906101000a900460ff1681565b600080fd5b600080fd5b600073ffffffffffffffffffffffffffffffffffffffff82169050919050565b6000610d9982610d6e565b9050919050565b610da981610d8e565b8114610db457600080fd5b50565b600081359050610dc681610da0565b92915050565b600060208284031215610de257610de1610d64565b5b6000610df084828501610db7565b91505092915050565b600081519050919050565b600082825260208201905092915050565b60005b83811015610e33578082015181840152602081019050610e18565b60008484015250505050565b6000601f19601f8301169050919050565b6000610e5b82610df9565b610e658185610e04565b9350610e75818560208601610e15565b610e7e81610e3f565b840191505092915050565b6000819050919050565b610e9c81610e89565b82525050565b610eab81610d8e565b82525050565b600060e0820190508181036000830152610ecb818a610e50565b90508181036020830152610edf8189610e50565b90508181036040830152610ef38188610e50565b90508181036060830152610f078187610e50565b90508181036080830152610f1b8186610e50565b9050610f2a60a0830185610e93565b610f3760c0830184610ea2565b98975050505050505050565b600080fd5b600060e08284031215610f5e57610f5d610f43565b5b81905092915050565b600060208284031215610f7d57610f7c610d64565b5b600082013567ffffffffffffffff811115610f9b57610f9a610d69565b5b610fa784828501610f48565b91505092915050565b6000602082019050610fc56000830184610ea2565b92915050565b7f4e487b7100000000000000000000000000000000000000000000000000000000600052602160045260246000fd5b6004811061100b5761100a610fcb565b5b50565b600081905061101c82610ffa565b919050565b600061102c8261100e565b9050919050565b61103c81611021565b82525050565b60006020820190506110576000830184611033565b92915050565b7f4e487b7100000000000000000000000000000000000000000000000000000000600052602260045260246000fd5b600060028204905060018216806110a457607f821691505b6020821081036110b7576110b661105d565b5b50919050565b6000815190506110cc81610da0565b92915050565b600080600080600060a086880312156110ee576110ed610d64565b5b60006110fc888289016110bd565b955050602061110d888289016110bd565b945050604061111e888289016110bd565b935050606061112f888289016110bd565b9250506080611140888289016110bd565b9150509295509295909350565b60008115159050919050565b6111628161114d565b811461116d57600080fd5b50565b60008151905061117f81611159565b92915050565b60006020828403121561119b5761119a610d64565b5b60006111a984828501611170565b91505092915050565b7f4143434f554e545f4e4f545f414150524f564544000000000000000000000000600082015250565b60006111e8601483610e04565b91506111f3826111b2565b602082019050919050565b60006020820190508181036000830152611217816111db565b9050919050565b7f494e56414c49445f414444524553530000000000000000000000000000000000600082015250565b6000611254600f83610e04565b915061125f8261121e565b602082019050919050565b6000602082019050818103600083015261128381611247565b9050919050565b7f434845434b5f594f55525f535441545553000000000000000000000000000000600082015250565b60006112c0601183610e04565b91506112cb8261128a565b602082019050919050565b600060208201905081810360008301526112ef816112b3565b9050919050565b600080fd5b600080fd5b600080fd5b60008083356001602003843603038112611322576113216112f6565b5b80840192508235915067ffffffffffffffff821115611344576113436112fb565b5b6020830192506001820236038313156113605761135f611300565b5b509250929050565b600082905092915050565b7f4e487b7100000000000000000000000000000000000000000000000000000000600052604160045260246000fd5b60008190508160005260206000209050919050565b60006020601f8301049050919050565b600082821b905092915050565b6000600883026114047fffffffffffffffffffffffffffffffffffffffffffffffffffffffffffffffff826113c7565b61140e86836113c7565b95508019841693508086168417925050509392505050565b6000819050919050565b600061144b61144661144184610e89565b611426565b610e89565b9050919050565b6000819050919050565b61146583611430565b61147961147182611452565b8484546113d4565b825550505050565b600090565b61148e611481565b61149981848461145c565b505050565b5b818110156114bd576114b2600082611486565b60018101905061149f565b5050565b601f821115611502576114d3816113a2565b6114dc846113b7565b810160208510156114eb578190505b6114ff6114f7856113b7565b83018261149e565b50505b505050565b600082821c905092915050565b600061152560001984600802611507565b1980831691505092915050565b600061153e8383611514565b9150826002028217905092915050565b6115588383611368565b67ffffffffffffffff81111561157157611570611373565b5b61157b825461108c565b6115868282856114c1565b6000601f8311600181146115b557600084156115a3578287013590505b6115ad8582611532565b865550611615565b601f1984166115c3866113a2565b60005b828110156115eb578489013582556001820191506020850194506020810190506115c6565b868310156116085784890135611604601f891682611514565b8355505b6001600288020188555050505b50505050505050565b61162983838361154e565b505050565b61163781610e89565b811461164257600080fd5b50565b600081356116528161162e565b80915050919050565b60008160001b9050919050565b60007fffffffffffffffffffffffffffffffffffffffffffffffffffffffffffffffff6116948461165b565b9350801983169250808416831791505092915050565b6116b382611430565b6116c66116bf82611452565b8354611668565b8255505050565b600081356116da81610da0565b80915050919050565b600073ffffffffffffffffffffffffffffffffffffffff6117038461165b565b9350801983169250808416831791505092915050565b600061173461172f61172a84610d6e565b611426565b610d6e565b9050919050565b600061174682611719565b9050919050565b60006117588261173b565b9050919050565b6000819050919050565b6117728261174d565b61178561177e8261175f565b83546116e3565b8255505050565b600081016000830161179e8185611305565b6117a981838661161e565b5050505060018101602083016117bf8185611305565b6117ca81838661161e565b5050505060028101604083016117e08185611305565b6117eb81838661161e565b5050505060038101606083016118018185611305565b61180c81838661161e565b5050505060048101608083016118228185611305565b61182d81838661161e565b505050506005810160a083018061184381611645565b905061184f81846116aa565b5050506006810160c0830180611864816116cd565b90506118708184611769565b5050505050565b611881828261178c565b5050565b7f4f4e4c595f544f504f535f4d414e414745520000000000000000000000000000600082015250565b60006118bb601283610e04565b91506118c682611885565b602082019050919050565b600060208201905081810360008301526118ea816118ae565b9050919050565b7f4953535545520000000000000000000000000000000000000000000000000000600082015250565b6000611927600683610e04565b9150611932826118f1565b602082019050919050565b600060408201905081810360008301526119568161191a565b90506119656020830184610ea2565b9291505056fea2646970667358221220c85194594907922ca931ca74585d577f25ac18e221cd07d5cfb29594443858b564736f6c63430008130033","opcodes":"PUSH1 0x80 PUSH1 0x40 MSTORE CALLVALUE DUP1 ISZERO PUSH3 0x11 JUMPI PUSH1 0x0 DUP1 REVERT JUMPDEST POP PUSH1 0x40 MLOAD PUSH3 0x1ACC CODESIZE SUB DUP1 PUSH3 0x1ACC DUP4 CODECOPY DUP2 DUP2 ADD PUSH1 0x40 MSTORE DUP2 ADD SWAP1 PUSH3 0x37 SWAP2 SWAP1 PUSH3 0xE9 JUMP JUMPDEST DUP1 PUSH1 0x2 PUSH1 0x0 PUSH2 0x100 EXP DUP2 SLOAD DUP2 PUSH20 0xFFFFFFFFFFFFFFFFFFFFFFFFFFFFFFFFFFFFFFFF MUL NOT AND SWAP1 DUP4 PUSH20 0xFFFFFFFFFFFFFFFFFFFFFFFFFFFFFFFFFFFFFFFF AND MUL OR SWAP1 SSTORE POP POP PUSH3 0x11B JUMP JUMPDEST PUSH1 0x0 DUP1 REVERT JUMPDEST PUSH1 0x0 PUSH20 0xFFFFFFFFFFFFFFFFFFFFFFFFFFFFFFFFFFFFFFFF DUP3 AND SWAP1 POP SWAP2 SWAP1 POP JUMP JUMPDEST PUSH1 0x0 PUSH3 0xB1 DUP3 PUSH3 0x84 JUMP JUMPDEST SWAP1 POP SWAP2 SWAP1 POP JUMP JUMPDEST PUSH3 0xC3 DUP2 PUSH3 0xA4 JUMP JUMPDEST DUP2 EQ PUSH3 0xCF JUMPI PUSH1 0x0 DUP1 REVERT JUMPDEST POP JUMP JUMPDEST PUSH1 0x0 DUP2 MLOAD SWAP1 POP PUSH3 0xE3 DUP2 PUSH3 0xB8 JUMP JUMPDEST SWAP3 SWAP2 POP POP JUMP JUMPDEST PUSH1 0x0 PUSH1 0x20 DUP3 DUP5 SUB SLT ISZERO PUSH3 0x102 JUMPI PUSH3 0x101 PUSH3 0x7F JUMP JUMPDEST JUMPDEST PUSH1 0x0 PUSH3 0x112 DUP5 DUP3 DUP6 ADD PUSH3 0xD2 JUMP JUMPDEST SWAP2 POP POP SWAP3 SWAP2 POP POP JUMP JUMPDEST PUSH2 0x19A1 DUP1 PUSH3 0x12B PUSH1 0x0 CODECOPY PUSH1 0x0 RETURN INVALID PUSH1 0x80 PUSH1 0x40 MSTORE CALLVALUE DUP1 ISZERO PUSH2 0x10 JUMPI PUSH1 0x0 DUP1 REVERT JUMPDEST POP PUSH1 0x4 CALLDATASIZE LT PUSH2 0x62 JUMPI PUSH1 0x0 CALLDATALOAD PUSH1 0xE0 SHR DUP1 PUSH4 0x38A7543E EQ PUSH2 0x67 JUMPI DUP1 PUSH4 0x3DC349BE EQ PUSH2 0x9D JUMPI DUP1 PUSH4 0x82DEB86E EQ PUSH2 0xB9 JUMPI DUP1 PUSH4 0x9C34712A EQ PUSH2 0xD5 JUMPI DUP1 PUSH4 0xC88EFE65 EQ PUSH2 0xF3 JUMPI DUP1 PUSH4 0xFCBB3C18 EQ PUSH2 0x10F JUMPI JUMPDEST PUSH1 0x0 DUP1 REVERT JUMPDEST PUSH2 0x81 PUSH1 0x4 DUP1 CALLDATASIZE SUB DUP2 ADD SWAP1 PUSH2 0x7C SWAP2 SWAP1 PUSH2 0xDCC JUMP JUMPDEST PUSH2 0x13F JUMP JUMPDEST PUSH1 0x40 MLOAD PUSH2 0x94 SWAP8 SWAP7 SWAP6 SWAP5 SWAP4 SWAP3 SWAP2 SWAP1 PUSH2 0xEB1 JUMP JUMPDEST PUSH1 0x40 MLOAD DUP1 SWAP2 SUB SWAP1 RETURN JUMPDEST PUSH2 0xB7 PUSH1 0x4 DUP1 CALLDATASIZE SUB DUP2 ADD SWAP1 PUSH2 0xB2 SWAP2 SWAP1 PUSH2 0xF67 JUMP JUMPDEST PUSH2 0x449 JUMP JUMPDEST STOP JUMPDEST PUSH2 0xD3 PUSH1 0x4 DUP1 CALLDATASIZE SUB DUP2 ADD SWAP1 PUSH2 0xCE SWAP2 SWAP1 PUSH2 0xDCC JUMP JUMPDEST PUSH2 0x7F6 JUMP JUMPDEST STOP JUMPDEST PUSH2 0xDD PUSH2 0xAC1 JUMP JUMPDEST PUSH1 0x40 MLOAD PUSH2 0xEA SWAP2 SWAP1 PUSH2 0xFB0 JUMP JUMPDEST PUSH1 0x40 MLOAD DUP1 SWAP2 SUB SWAP1 RETURN JUMPDEST PUSH2 0x10D PUSH1 0x4 DUP1 CALLDATASIZE SUB DUP2 ADD SWAP1 PUSH2 0x108 SWAP2 SWAP1 PUSH2 0xDCC JUMP JUMPDEST PUSH2 0xAE7 JUMP JUMPDEST STOP JUMPDEST PUSH2 0x129 PUSH1 0x4 DUP1 CALLDATASIZE SUB DUP2 ADD SWAP1 PUSH2 0x124 SWAP2 SWAP1 PUSH2 0xDCC JUMP JUMPDEST PUSH2 0xD44 JUMP JUMPDEST PUSH1 0x40 MLOAD PUSH2 0x136 SWAP2 SWAP1 PUSH2 0x1042 JUMP JUMPDEST PUSH1 0x40 MLOAD DUP1 SWAP2 SUB SWAP1 RETURN JUMPDEST PUSH1 0x0 PUSH1 0x20 MSTORE DUP1 PUSH1 0x0 MSTORE PUSH1 0x40 PUSH1 0x0 KECCAK256 PUSH1 0x0 SWAP2 POP SWAP1 POP DUP1 PUSH1 0x0 ADD DUP1 SLOAD PUSH2 0x162 SWAP1 PUSH2 0x108C JUMP JUMPDEST DUP1 PUSH1 0x1F ADD PUSH1 0x20 DUP1 SWAP2 DIV MUL PUSH1 0x20 ADD PUSH1 0x40 MLOAD SWAP1 DUP2 ADD PUSH1 0x40 MSTORE DUP1 SWAP3 SWAP2 SWAP1 DUP2 DUP2 MSTORE PUSH1 0x20 ADD DUP3 DUP1 SLOAD PUSH2 0x18E SWAP1 PUSH2 0x108C JUMP JUMPDEST DUP1 ISZERO PUSH2 0x1DB JUMPI DUP1 PUSH1 0x1F LT PUSH2 0x1B0 JUMPI PUSH2 0x100 DUP1 DUP4 SLOAD DIV MUL DUP4 MSTORE SWAP2 PUSH1 0x20 ADD SWAP2 PUSH2 0x1DB JUMP JUMPDEST DUP3 ADD SWAP2 SWAP1 PUSH1 0x0 MSTORE PUSH1 0x20 PUSH1 0x0 KECCAK256 SWAP1 JUMPDEST DUP2 SLOAD DUP2 MSTORE SWAP1 PUSH1 0x1 ADD SWAP1 PUSH1 0x20 ADD DUP1 DUP4 GT PUSH2 0x1BE JUMPI DUP3 SWAP1 SUB PUSH1 0x1F AND DUP3 ADD SWAP2 JUMPDEST POP POP POP POP POP SWAP1 DUP1 PUSH1 0x1 ADD DUP1 SLOAD PUSH2 0x1F0 SWAP1 PUSH2 0x108C JUMP JUMPDEST DUP1 PUSH1 0x1F ADD PUSH1 0x20 DUP1 SWAP2 DIV MUL PUSH1 0x20 ADD PUSH1 0x40 MLOAD SWAP1 DUP2 ADD PUSH1 0x40 MSTORE DUP1 SWAP3 SWAP2 SWAP1 DUP2 DUP2 MSTORE PUSH1 0x20 ADD DUP3 DUP1 SLOAD PUSH2 0x21C SWAP1 PUSH2 0x108C JUMP JUMPDEST DUP1 ISZERO PUSH2 0x269 JUMPI DUP1 PUSH1 0x1F LT PUSH2 0x23E JUMPI PUSH2 0x100 DUP1 DUP4 SLOAD DIV MUL DUP4 MSTORE SWAP2 PUSH1 0x20 ADD SWAP2 PUSH2 0x269 JUMP JUMPDEST DUP3 ADD SWAP2 SWAP1 PUSH1 0x0 MSTORE PUSH1 0x20 PUSH1 0x0 KECCAK256 SWAP1 JUMPDEST DUP2 SLOAD DUP2 MSTORE SWAP1 PUSH1 0x1 ADD SWAP1 PUSH1 0x20 ADD DUP1 DUP4 GT PUSH2 0x24C JUMPI DUP3 SWAP1 SUB PUSH1 0x1F AND DUP3 ADD SWAP2 JUMPDEST POP POP POP POP POP SWAP1 DUP1 PUSH1 0x2 ADD DUP1 SLOAD PUSH2 0x27E SWAP1 PUSH2 0x108C JUMP JUMPDEST DUP1 PUSH1 0x1F ADD PUSH1 0x20 DUP1 SWAP2 DIV MUL PUSH1 0x20 ADD PUSH1 0x40 MLOAD SWAP1 DUP2 ADD PUSH1 0x40 MSTORE DUP1 SWAP3 SWAP2 SWAP1 DUP2 DUP2 MSTORE PUSH1 0x20 ADD DUP3 DUP1 SLOAD PUSH2 0x2AA SWAP1 PUSH2 0x108C JUMP JUMPDEST DUP1 ISZERO PUSH2 0x2F7 JUMPI DUP1 PUSH1 0x1F LT PUSH2 0x2CC JUMPI PUSH2 0x100 DUP1 DUP4 SLOAD DIV MUL DUP4 MSTORE SWAP2 PUSH1 0x20 ADD SWAP2 PUSH2 0x2F7 JUMP JUMPDEST DUP3 ADD SWAP2 SWAP1 PUSH1 0x0 MSTORE PUSH1 0x20 PUSH1 0x0 KECCAK256 SWAP1 JUMPDEST DUP2 SLOAD DUP2 MSTORE SWAP1 PUSH1 0x1 ADD SWAP1 PUSH1 0x20 ADD DUP1 DUP4 GT PUSH2 0x2DA JUMPI DUP3 SWAP1 SUB PUSH1 0x1F AND DUP3 ADD SWAP2 JUMPDEST POP POP POP POP POP SWAP1 DUP1 PUSH1 0x3 ADD DUP1 SLOAD PUSH2 0x30C SWAP1 PUSH2 0x108C JUMP JUMPDEST DUP1 PUSH1 0x1F ADD PUSH1 0x20 DUP1 SWAP2 DIV MUL PUSH1 0x20 ADD PUSH1 0x40 MLOAD SWAP1 DUP2 ADD PUSH1 0x40 MSTORE DUP1 SWAP3 SWAP2 SWAP1 DUP2 DUP2 MSTORE PUSH1 0x20 ADD DUP3 DUP1 SLOAD PUSH2 0x338 SWAP1 PUSH2 0x108C JUMP JUMPDEST DUP1 ISZERO PUSH2 0x385 JUMPI DUP1 PUSH1 0x1F LT PUSH2 0x35A JUMPI PUSH2 0x100 DUP1 DUP4 SLOAD DIV MUL DUP4 MSTORE SWAP2 PUSH1 0x20 ADD SWAP2 PUSH2 0x385 JUMP JUMPDEST DUP3 ADD SWAP2 SWAP1 PUSH1 0x0 MSTORE PUSH1 0x20 PUSH1 0x0 KECCAK256 SWAP1 JUMPDEST DUP2 SLOAD DUP2 MSTORE SWAP1 PUSH1 0x1 ADD SWAP1 PUSH1 0x20 ADD DUP1 DUP4 GT PUSH2 0x368 JUMPI DUP3 SWAP1 SUB PUSH1 0x1F AND DUP3 ADD SWAP2 JUMPDEST POP POP POP POP POP SWAP1 DUP1 PUSH1 0x4 ADD DUP1 SLOAD PUSH2 0x39A SWAP1 PUSH2 0x108C JUMP JUMPDEST DUP1 PUSH1 0x1F ADD PUSH1 0x20 DUP1 SWAP2 DIV MUL PUSH1 0x20 ADD PUSH1 0x40 MLOAD SWAP1 DUP2 ADD PUSH1 0x40 MSTORE DUP1 SWAP3 SWAP2 SWAP1 DUP2 DUP2 MSTORE PUSH1 0x20 ADD DUP3 DUP1 SLOAD PUSH2 0x3C6 SWAP1 PUSH2 0x108C JUMP JUMPDEST DUP1 ISZERO PUSH2 0x413 JUMPI DUP1 PUSH1 0x1F LT PUSH2 0x3E8 JUMPI PUSH2 0x100 DUP1 DUP4 SLOAD DIV MUL DUP4 MSTORE SWAP2 PUSH1 0x20 ADD SWAP2 PUSH2 0x413 JUMP JUMPDEST DUP3 ADD SWAP2 SWAP1 PUSH1 0x0 MSTORE PUSH1 0x20 PUSH1 0x0 KECCAK256 SWAP1 JUMPDEST DUP2 SLOAD DUP2 MSTORE SWAP1 PUSH1 0x1 ADD SWAP1 PUSH1 0x20 ADD DUP1 DUP4 GT PUSH2 0x3F6 JUMPI DUP3 SWAP1 SUB PUSH1 0x1F AND DUP3 ADD SWAP2 JUMPDEST POP POP POP POP POP SWAP1 DUP1 PUSH1 0x5 ADD SLOAD SWAP1 DUP1 PUSH1 0x6 ADD PUSH1 0x0 SWAP1 SLOAD SWAP1 PUSH2 0x100 EXP SWAP1 DIV PUSH20 0xFFFFFFFFFFFFFFFFFFFFFFFFFFFFFFFFFFFFFFFF AND SWAP1 POP DUP8 JUMP JUMPDEST DUP1 PUSH1 0xC0 ADD PUSH1 0x20 DUP2 ADD SWAP1 PUSH2 0x45C SWAP2 SWAP1 PUSH2 0xDCC JUMP JUMPDEST PUSH1 0x0 PUSH1 0x2 PUSH1 0x0 SWAP1 SLOAD SWAP1 PUSH2 0x100 EXP SWAP1 DIV PUSH20 0xFFFFFFFFFFFFFFFFFFFFFFFFFFFFFFFFFFFFFFFF AND PUSH20 0xFFFFFFFFFFFFFFFFFFFFFFFFFFFFFFFFFFFFFFFF AND PUSH4 0xC3A2A93A PUSH1 0x40 MLOAD DUP2 PUSH4 0xFFFFFFFF AND PUSH1 0xE0 SHL DUP2 MSTORE PUSH1 0x4 ADD PUSH1 0xA0 PUSH1 0x40 MLOAD DUP1 DUP4 SUB DUP2 DUP7 GAS STATICCALL ISZERO DUP1 ISZERO PUSH2 0x4CB JUMPI RETURNDATASIZE PUSH1 0x0 DUP1 RETURNDATACOPY RETURNDATASIZE PUSH1 0x0 REVERT JUMPDEST POP POP POP POP PUSH1 0x40 MLOAD RETURNDATASIZE PUSH1 0x1F NOT PUSH1 0x1F DUP3 ADD AND DUP3 ADD DUP1 PUSH1 0x40 MSTORE POP DUP2 ADD SWAP1 PUSH2 0x4EF SWAP2 SWAP1 PUSH2 0x10D2 JUMP JUMPDEST POP POP SWAP3 POP POP POP DUP1 PUSH20 0xFFFFFFFFFFFFFFFFFFFFFFFFFFFFFFFFFFFFFFFF AND PUSH4 0xB9209E33 DUP4 PUSH1 0x40 MLOAD DUP3 PUSH4 0xFFFFFFFF AND PUSH1 0xE0 SHL DUP2 MSTORE PUSH1 0x4 ADD PUSH2 0x52E SWAP2 SWAP1 PUSH2 0xFB0 JUMP JUMPDEST PUSH1 0x20 PUSH1 0x40 MLOAD DUP1 DUP4 SUB DUP2 DUP7 GAS STATICCALL ISZERO DUP1 ISZERO PUSH2 0x54B JUMPI RETURNDATASIZE PUSH1 0x0 DUP1 RETURNDATACOPY RETURNDATASIZE PUSH1 0x0 REVERT JUMPDEST POP POP POP POP PUSH1 0x40 MLOAD RETURNDATASIZE PUSH1 0x1F NOT PUSH1 0x1F DUP3 ADD AND DUP3 ADD DUP1 PUSH1 0x40 MSTORE POP DUP2 ADD SWAP1 PUSH2 0x56F SWAP2 SWAP1 PUSH2 0x1185 JUMP JUMPDEST PUSH2 0x5AE JUMPI PUSH1 0x40 MLOAD PUSH32 0x8C379A000000000000000000000000000000000000000000000000000000000 DUP2 MSTORE PUSH1 0x4 ADD PUSH2 0x5A5 SWAP1 PUSH2 0x11FE JUMP JUMPDEST PUSH1 0x40 MLOAD DUP1 SWAP2 SUB SWAP1 REVERT JUMPDEST DUP3 PUSH1 0xC0 ADD PUSH1 0x20 DUP2 ADD SWAP1 PUSH2 0x5C1 SWAP2 SWAP1 PUSH2 0xDCC JUMP JUMPDEST PUSH20 0xFFFFFFFFFFFFFFFFFFFFFFFFFFFFFFFFFFFFFFFF AND CALLER PUSH20 0xFFFFFFFFFFFFFFFFFFFFFFFFFFFFFFFFFFFFFFFF AND EQ PUSH2 0x62E JUMPI PUSH1 0x40 MLOAD PUSH32 0x8C379A000000000000000000000000000000000000000000000000000000000 DUP2 MSTORE PUSH1 0x4 ADD PUSH2 0x625 SWAP1 PUSH2 0x126A JUMP JUMPDEST PUSH1 0x40 MLOAD DUP1 SWAP2 SUB SWAP1 REVERT JUMPDEST PUSH1 0x0 PUSH1 0x3 DUP2 GT ISZERO PUSH2 0x642 JUMPI PUSH2 0x641 PUSH2 0xFCB JUMP JUMPDEST JUMPDEST PUSH1 0x1 PUSH1 0x0 CALLER PUSH20 0xFFFFFFFFFFFFFFFFFFFFFFFFFFFFFFFFFFFFFFFF AND PUSH20 0xFFFFFFFFFFFFFFFFFFFFFFFFFFFFFFFFFFFFFFFF AND DUP2 MSTORE PUSH1 0x20 ADD SWAP1 DUP2 MSTORE PUSH1 0x20 ADD PUSH1 0x0 KECCAK256 PUSH1 0x0 SWAP1 SLOAD SWAP1 PUSH2 0x100 EXP SWAP1 DIV PUSH1 0xFF AND PUSH1 0x3 DUP2 GT ISZERO PUSH2 0x6A1 JUMPI PUSH2 0x6A0 PUSH2 0xFCB JUMP JUMPDEST JUMPDEST EQ PUSH2 0x6E1 JUMPI PUSH1 0x40 MLOAD PUSH32 0x8C379A000000000000000000000000000000000000000000000000000000000 DUP2 MSTORE PUSH1 0x4 ADD PUSH2 0x6D8 SWAP1 PUSH2 0x12D6 JUMP JUMPDEST PUSH1 0x40 MLOAD DUP1 SWAP2 SUB SWAP1 REVERT JUMPDEST DUP3 PUSH1 0x0 DUP1 DUP6 PUSH1 0xC0 ADD PUSH1 0x20 DUP2 ADD SWAP1 PUSH2 0x6F8 SWAP2 SWAP1 PUSH2 0xDCC JUMP JUMPDEST PUSH20 0xFFFFFFFFFFFFFFFFFFFFFFFFFFFFFFFFFFFFFFFF AND PUSH20 0xFFFFFFFFFFFFFFFFFFFFFFFFFFFFFFFFFFFFFFFF AND DUP2 MSTORE PUSH1 0x20 ADD SWAP1 DUP2 MSTORE PUSH1 0x20 ADD PUSH1 0x0 KECCAK256 DUP2 DUP2 PUSH2 0x73E SWAP2 SWAP1 PUSH2 0x1877 JUMP JUMPDEST SWAP1 POP POP PUSH1 0x1 DUP1 PUSH1 0x0 CALLER PUSH20 0xFFFFFFFFFFFFFFFFFFFFFFFFFFFFFFFFFFFFFFFF AND PUSH20 0xFFFFFFFFFFFFFFFFFFFFFFFFFFFFFFFFFFFFFFFF AND DUP2 MSTORE PUSH1 0x20 ADD SWAP1 DUP2 MSTORE PUSH1 0x20 ADD PUSH1 0x0 KECCAK256 PUSH1 0x0 PUSH2 0x100 EXP DUP2 SLOAD DUP2 PUSH1 0xFF MUL NOT AND SWAP1 DUP4 PUSH1 0x3 DUP2 GT ISZERO PUSH2 0x7A3 JUMPI PUSH2 0x7A2 PUSH2 0xFCB JUMP JUMPDEST JUMPDEST MUL OR SWAP1 SSTORE POP PUSH32 0xA0028275FA37D11EA8D5D29FD14FD8AA6C52AF0E0CF819B89CA2CD9193F1185 DUP4 PUSH1 0xC0 ADD PUSH1 0x20 DUP2 ADD SWAP1 PUSH2 0x7DC SWAP2 SWAP1 PUSH2 0xDCC JUMP JUMPDEST PUSH1 0x40 MLOAD PUSH2 0x7E9 SWAP2 SWAP1 PUSH2 0xFB0 JUMP JUMPDEST PUSH1 0x40 MLOAD DUP1 SWAP2 SUB SWAP1 LOG1 POP POP POP JUMP JUMPDEST PUSH1 0x0 DUP1 PUSH1 0x2 PUSH1 0x0 SWAP1 SLOAD SWAP1 PUSH2 0x100 EXP SWAP1 DIV PUSH20 0xFFFFFFFFFFFFFFFFFFFFFFFFFFFFFFFFFFFFFFFF AND PUSH20 0xFFFFFFFFFFFFFFFFFFFFFFFFFFFFFFFFFFFFFFFF AND PUSH4 0xC3A2A93A PUSH1 0x40 MLOAD DUP2 PUSH4 0xFFFFFFFF AND PUSH1 0xE0 SHL DUP2 MSTORE PUSH1 0x4 ADD PUSH1 0xA0 PUSH1 0x40 MLOAD DUP1 DUP4 SUB DUP2 DUP7 GAS STATICCALL ISZERO DUP1 ISZERO PUSH2 0x866 JUMPI RETURNDATASIZE PUSH1 0x0 DUP1 RETURNDATACOPY RETURNDATASIZE PUSH1 0x0 REVERT JUMPDEST POP POP POP POP PUSH1 0x40 MLOAD RETURNDATASIZE PUSH1 0x1F NOT PUSH1 0x1F DUP3 ADD AND DUP3 ADD DUP1 PUSH1 0x40 MSTORE POP DUP2 ADD SWAP1 PUSH2 0x88A SWAP2 SWAP1 PUSH2 0x10D2 JUMP JUMPDEST POP POP POP SWAP2 POP SWAP2 POP DUP2 PUSH20 0xFFFFFFFFFFFFFFFFFFFFFFFFFFFFFFFFFFFFFFFF AND CALLER PUSH20 0xFFFFFFFFFFFFFFFFFFFFFFFFFFFFFFFFFFFFFFFF AND EQ PUSH2 0x8FF JUMPI PUSH1 0x40 MLOAD PUSH32 0x8C379A000000000000000000000000000000000000000000000000000000000 DUP2 MSTORE PUSH1 0x4 ADD PUSH2 0x8F6 SWAP1 PUSH2 0x18D1 JUMP JUMPDEST PUSH1 0x40 MLOAD DUP1 SWAP2 SUB SWAP1 REVERT JUMPDEST PUSH1 0x1 PUSH1 0x3 DUP2 GT ISZERO PUSH2 0x913 JUMPI PUSH2 0x912 PUSH2 0xFCB JUMP JUMPDEST JUMPDEST PUSH1 0x1 PUSH1 0x0 DUP6 PUSH20 0xFFFFFFFFFFFFFFFFFFFFFFFFFFFFFFFFFFFFFFFF AND PUSH20 0xFFFFFFFFFFFFFFFFFFFFFFFFFFFFFFFFFFFFFFFF AND DUP2 MSTORE PUSH1 0x20 ADD SWAP1 DUP2 MSTORE PUSH1 0x20 ADD PUSH1 0x0 KECCAK256 PUSH1 0x0 SWAP1 SLOAD SWAP1 PUSH2 0x100 EXP SWAP1 DIV PUSH1 0xFF AND PUSH1 0x3 DUP2 GT ISZERO PUSH2 0x972 JUMPI PUSH2 0x971 PUSH2 0xFCB JUMP JUMPDEST JUMPDEST EQ PUSH2 0x9B2 JUMPI PUSH1 0x40 MLOAD PUSH32 0x8C379A000000000000000000000000000000000000000000000000000000000 DUP2 MSTORE PUSH1 0x4 ADD PUSH2 0x9A9 SWAP1 PUSH2 0x12D6 JUMP JUMPDEST PUSH1 0x40 MLOAD DUP1 SWAP2 SUB SWAP1 REVERT JUMPDEST PUSH1 0x2 PUSH1 0x1 PUSH1 0x0 DUP6 PUSH20 0xFFFFFFFFFFFFFFFFFFFFFFFFFFFFFFFFFFFFFFFF AND PUSH20 0xFFFFFFFFFFFFFFFFFFFFFFFFFFFFFFFFFFFFFFFF AND DUP2 MSTORE PUSH1 0x20 ADD SWAP1 DUP2 MSTORE PUSH1 0x20 ADD PUSH1 0x0 KECCAK256 PUSH1 0x0 PUSH2 0x100 EXP DUP2 SLOAD DUP2 PUSH1 0xFF MUL NOT AND SWAP1 DUP4 PUSH1 0x3 DUP2 GT ISZERO PUSH2 0xA15 JUMPI PUSH2 0xA14 PUSH2 0xFCB JUMP JUMPDEST JUMPDEST MUL OR SWAP1 SSTORE POP DUP1 PUSH20 0xFFFFFFFFFFFFFFFFFFFFFFFFFFFFFFFFFFFFFFFF AND PUSH4 0xCFDE1890 DUP5 PUSH1 0x40 MLOAD DUP3 PUSH4 0xFFFFFFFF AND PUSH1 0xE0 SHL DUP2 MSTORE PUSH1 0x4 ADD PUSH2 0xA53 SWAP2 SWAP1 PUSH2 0x193D JUMP JUMPDEST PUSH1 0x0 PUSH1 0x40 MLOAD DUP1 DUP4 SUB DUP2 PUSH1 0x0 DUP8 DUP1 EXTCODESIZE ISZERO DUP1 ISZERO PUSH2 0xA6D JUMPI PUSH1 0x0 DUP1 REVERT JUMPDEST POP GAS CALL ISZERO DUP1 ISZERO PUSH2 0xA81 JUMPI RETURNDATASIZE PUSH1 0x0 DUP1 RETURNDATACOPY RETURNDATASIZE PUSH1 0x0 REVERT JUMPDEST POP POP POP POP PUSH32 0xE387C88130575BF91CADF15934854A1ED11D5C16D63F1106B6FD6E139D1202E DUP4 PUSH1 0x40 MLOAD PUSH2 0xAB4 SWAP2 SWAP1 PUSH2 0xFB0 JUMP JUMPDEST PUSH1 0x40 MLOAD DUP1 SWAP2 SUB SWAP1 LOG1 POP POP POP JUMP JUMPDEST PUSH1 0x2 PUSH1 0x0 SWAP1 SLOAD SWAP1 PUSH2 0x100 EXP SWAP1 DIV PUSH20 0xFFFFFFFFFFFFFFFFFFFFFFFFFFFFFFFFFFFFFFFF AND DUP2 JUMP JUMPDEST PUSH1 0x0 PUSH1 0x2 PUSH1 0x0 SWAP1 SLOAD SWAP1 PUSH2 0x100 EXP SWAP1 DIV PUSH20 0xFFFFFFFFFFFFFFFFFFFFFFFFFFFFFFFFFFFFFFFF AND PUSH20 0xFFFFFFFFFFFFFFFFFFFFFFFFFFFFFFFFFFFFFFFF AND PUSH4 0xC3A2A93A PUSH1 0x40 MLOAD DUP2 PUSH4 0xFFFFFFFF AND PUSH1 0xE0 SHL DUP2 MSTORE PUSH1 0x4 ADD PUSH1 0xA0 PUSH1 0x40 MLOAD DUP1 DUP4 SUB DUP2 DUP7 GAS STATICCALL ISZERO DUP1 ISZERO PUSH2 0xB56 JUMPI RETURNDATASIZE PUSH1 0x0 DUP1 RETURNDATACOPY RETURNDATASIZE PUSH1 0x0 REVERT JUMPDEST POP POP POP POP PUSH1 0x40 MLOAD RETURNDATASIZE PUSH1 0x1F NOT PUSH1 0x1F DUP3 ADD AND DUP3 ADD DUP1 PUSH1 0x40 MSTORE POP DUP2 ADD SWAP1 PUSH2 0xB7A SWAP2 SWAP1 PUSH2 0x10D2 JUMP JUMPDEST POP POP POP POP SWAP1 POP DUP1 PUSH20 0xFFFFFFFFFFFFFFFFFFFFFFFFFFFFFFFFFFFFFFFF AND CALLER PUSH20 0xFFFFFFFFFFFFFFFFFFFFFFFFFFFFFFFFFFFFFFFF AND EQ PUSH2 0xBEE JUMPI PUSH1 0x40 MLOAD PUSH32 0x8C379A000000000000000000000000000000000000000000000000000000000 DUP2 MSTORE PUSH1 0x4 ADD PUSH2 0xBE5 SWAP1 PUSH2 0x18D1 JUMP JUMPDEST PUSH1 0x40 MLOAD DUP1 SWAP2 SUB SWAP1 REVERT JUMPDEST PUSH1 0x1 PUSH1 0x3 DUP2 GT ISZERO PUSH2 0xC02 JUMPI PUSH2 0xC01 PUSH2 0xFCB JUMP JUMPDEST JUMPDEST PUSH1 0x1 PUSH1 0x0 DUP5 PUSH20 0xFFFFFFFFFFFFFFFFFFFFFFFFFFFFFFFFFFFFFFFF AND PUSH20 0xFFFFFFFFFFFFFFFFFFFFFFFFFFFFFFFFFFFFFFFF AND DUP2 MSTORE PUSH1 0x20 ADD SWAP1 DUP2 MSTORE PUSH1 0x20 ADD PUSH1 0x0 KECCAK256 PUSH1 0x0 SWAP1 SLOAD SWAP1 PUSH2 0x100 EXP SWAP1 DIV PUSH1 0xFF AND PUSH1 0x3 DUP2 GT ISZERO PUSH2 0xC61 JUMPI PUSH2 0xC60 PUSH2 0xFCB JUMP JUMPDEST JUMPDEST EQ PUSH2 0xCA1 JUMPI PUSH1 0x40 MLOAD PUSH32 0x8C379A000000000000000000000000000000000000000000000000000000000 DUP2 MSTORE PUSH1 0x4 ADD PUSH2 0xC98 SWAP1 PUSH2 0x12D6 JUMP JUMPDEST PUSH1 0x40 MLOAD DUP1 SWAP2 SUB SWAP1 REVERT JUMPDEST PUSH1 0x3 PUSH1 0x1 PUSH1 0x0 DUP5 PUSH20 0xFFFFFFFFFFFFFFFFFFFFFFFFFFFFFFFFFFFFFFFF AND PUSH20 0xFFFFFFFFFFFFFFFFFFFFFFFFFFFFFFFFFFFFFFFF AND DUP2 MSTORE PUSH1 0x20 ADD SWAP1 DUP2 MSTORE PUSH1 0x20 ADD PUSH1 0x0 KECCAK256 PUSH1 0x0 PUSH2 0x100 EXP DUP2 SLOAD DUP2 PUSH1 0xFF MUL NOT AND SWAP1 DUP4 PUSH1 0x3 DUP2 GT ISZERO PUSH2 0xD04 JUMPI PUSH2 0xD03 PUSH2 0xFCB JUMP JUMPDEST JUMPDEST MUL OR SWAP1 SSTORE POP PUSH32 0xE341AB2EF130AE159F5F54C8BE96A79FFE8F98948AA6D0E1BDEB60E6201ADA2A DUP3 PUSH1 0x40 MLOAD PUSH2 0xD38 SWAP2 SWAP1 PUSH2 0xFB0 JUMP JUMPDEST PUSH1 0x40 MLOAD DUP1 SWAP2 SUB SWAP1 LOG1 POP POP JUMP JUMPDEST PUSH1 0x1 PUSH1 0x20 MSTORE DUP1 PUSH1 0x0 MSTORE PUSH1 0x40 PUSH1 0x0 KECCAK256 PUSH1 0x0 SWAP2 POP SLOAD SWAP1 PUSH2 0x100 EXP SWAP1 DIV PUSH1 0xFF AND DUP2 JUMP JUMPDEST PUSH1 0x0 DUP1 REVERT JUMPDEST PUSH1 0x0 DUP1 REVERT JUMPDEST PUSH1 0x0 PUSH20 0xFFFFFFFFFFFFFFFFFFFFFFFFFFFFFFFFFFFFFFFF DUP3 AND SWAP1 POP SWAP2 SWAP1 POP JUMP JUMPDEST PUSH1 0x0 PUSH2 0xD99 DUP3 PUSH2 0xD6E JUMP JUMPDEST SWAP1 POP SWAP2 SWAP1 POP JUMP JUMPDEST PUSH2 0xDA9 DUP2 PUSH2 0xD8E JUMP JUMPDEST DUP2 EQ PUSH2 0xDB4 JUMPI PUSH1 0x0 DUP1 REVERT JUMPDEST POP JUMP JUMPDEST PUSH1 0x0 DUP2 CALLDATALOAD SWAP1 POP PUSH2 0xDC6 DUP2 PUSH2 0xDA0 JUMP JUMPDEST SWAP3 SWAP2 POP POP JUMP JUMPDEST PUSH1 0x0 PUSH1 0x20 DUP3 DUP5 SUB SLT ISZERO PUSH2 0xDE2 JUMPI PUSH2 0xDE1 PUSH2 0xD64 JUMP JUMPDEST JUMPDEST PUSH1 0x0 PUSH2 0xDF0 DUP5 DUP3 DUP6 ADD PUSH2 0xDB7 JUMP JUMPDEST SWAP2 POP POP SWAP3 SWAP2 POP POP JUMP JUMPDEST PUSH1 0x0 DUP2 MLOAD SWAP1 POP SWAP2 SWAP1 POP JUMP JUMPDEST PUSH1 0x0 DUP3 DUP3 MSTORE PUSH1 0x20 DUP3 ADD SWAP1 POP SWAP3 SWAP2 POP POP JUMP JUMPDEST PUSH1 0x0 JUMPDEST DUP4 DUP2 LT ISZERO PUSH2 0xE33 JUMPI DUP1 DUP3 ADD MLOAD DUP2 DUP5 ADD MSTORE PUSH1 0x20 DUP2 ADD SWAP1 POP PUSH2 0xE18 JUMP JUMPDEST PUSH1 0x0 DUP5 DUP5 ADD MSTORE POP POP POP POP JUMP JUMPDEST PUSH1 0x0 PUSH1 0x1F NOT PUSH1 0x1F DUP4 ADD AND SWAP1 POP SWAP2 SWAP1 POP JUMP JUMPDEST PUSH1 0x0 PUSH2 0xE5B DUP3 PUSH2 0xDF9 JUMP JUMPDEST PUSH2 0xE65 DUP2 DUP6 PUSH2 0xE04 JUMP JUMPDEST SWAP4 POP PUSH2 0xE75 DUP2 DUP6 PUSH1 0x20 DUP7 ADD PUSH2 0xE15 JUMP JUMPDEST PUSH2 0xE7E DUP2 PUSH2 0xE3F JUMP JUMPDEST DUP5 ADD SWAP2 POP POP SWAP3 SWAP2 POP POP JUMP JUMPDEST PUSH1 0x0 DUP2 SWAP1 POP SWAP2 SWAP1 POP JUMP JUMPDEST PUSH2 0xE9C DUP2 PUSH2 0xE89 JUMP JUMPDEST DUP3 MSTORE POP POP JUMP JUMPDEST PUSH2 0xEAB DUP2 PUSH2 0xD8E JUMP JUMPDEST DUP3 MSTORE POP POP JUMP JUMPDEST PUSH1 0x0 PUSH1 0xE0 DUP3 ADD SWAP1 POP DUP2 DUP2 SUB PUSH1 0x0 DUP4 ADD MSTORE PUSH2 0xECB DUP2 DUP11 PUSH2 0xE50 JUMP JUMPDEST SWAP1 POP DUP2 DUP2 SUB PUSH1 0x20 DUP4 ADD MSTORE PUSH2 0xEDF DUP2 DUP10 PUSH2 0xE50 JUMP JUMPDEST SWAP1 POP DUP2 DUP2 SUB PUSH1 0x40 DUP4 ADD MSTORE PUSH2 0xEF3 DUP2 DUP9 PUSH2 0xE50 JUMP JUMPDEST SWAP1 POP DUP2 DUP2 SUB PUSH1 0x60 DUP4 ADD MSTORE PUSH2 0xF07 DUP2 DUP8 PUSH2 0xE50 JUMP JUMPDEST SWAP1 POP DUP2 DUP2 SUB PUSH1 0x80 DUP4 ADD MSTORE PUSH2 0xF1B DUP2 DUP7 PUSH2 0xE50 JUMP JUMPDEST SWAP1 POP PUSH2 0xF2A PUSH1 0xA0 DUP4 ADD DUP6 PUSH2 0xE93 JUMP JUMPDEST PUSH2 0xF37 PUSH1 0xC0 DUP4 ADD DUP5 PUSH2 0xEA2 JUMP JUMPDEST SWAP9 SWAP8 POP POP POP POP POP POP POP POP JUMP JUMPDEST PUSH1 0x0 DUP1 REVERT JUMPDEST PUSH1 0x0 PUSH1 0xE0 DUP3 DUP5 SUB SLT ISZERO PUSH2 0xF5E JUMPI PUSH2 0xF5D PUSH2 0xF43 JUMP JUMPDEST JUMPDEST DUP2 SWAP1 POP SWAP3 SWAP2 POP POP JUMP JUMPDEST PUSH1 0x0 PUSH1 0x20 DUP3 DUP5 SUB SLT ISZERO PUSH2 0xF7D JUMPI PUSH2 0xF7C PUSH2 0xD64 JUMP JUMPDEST JUMPDEST PUSH1 0x0 DUP3 ADD CALLDATALOAD PUSH8 0xFFFFFFFFFFFFFFFF DUP2 GT ISZERO PUSH2 0xF9B JUMPI PUSH2 0xF9A PUSH2 0xD69 JUMP JUMPDEST JUMPDEST PUSH2 0xFA7 DUP5 DUP3 DUP6 ADD PUSH2 0xF48 JUMP JUMPDEST SWAP2 POP POP SWAP3 SWAP2 POP POP JUMP JUMPDEST PUSH1 0x0 PUSH1 0x20 DUP3 ADD SWAP1 POP PUSH2 0xFC5 PUSH1 0x0 DUP4 ADD DUP5 PUSH2 0xEA2 JUMP JUMPDEST SWAP3 SWAP2 POP POP JUMP JUMPDEST PUSH32 0x4E487B7100000000000000000000000000000000000000000000000000000000 PUSH1 0x0 MSTORE PUSH1 0x21 PUSH1 0x4 MSTORE PUSH1 0x24 PUSH1 0x0 REVERT JUMPDEST PUSH1 0x4 DUP2 LT PUSH2 0x100B JUMPI PUSH2 0x100A PUSH2 0xFCB JUMP JUMPDEST JUMPDEST POP JUMP JUMPDEST PUSH1 0x0 DUP2 SWAP1 POP PUSH2 0x101C DUP3 PUSH2 0xFFA JUMP JUMPDEST SWAP2 SWAP1 POP JUMP JUMPDEST PUSH1 0x0 PUSH2 0x102C DUP3 PUSH2 0x100E JUMP JUMPDEST SWAP1 POP SWAP2 SWAP1 POP JUMP JUMPDEST PUSH2 0x103C DUP2 PUSH2 0x1021 JUMP JUMPDEST DUP3 MSTORE POP POP JUMP JUMPDEST PUSH1 0x0 PUSH1 0x20 DUP3 ADD SWAP1 POP PUSH2 0x1057 PUSH1 0x0 DUP4 ADD DUP5 PUSH2 0x1033 JUMP JUMPDEST SWAP3 SWAP2 POP POP JUMP JUMPDEST PUSH32 0x4E487B7100000000000000000000000000000000000000000000000000000000 PUSH1 0x0 MSTORE PUSH1 0x22 PUSH1 0x4 MSTORE PUSH1 0x24 PUSH1 0x0 REVERT JUMPDEST PUSH1 0x0 PUSH1 0x2 DUP3 DIV SWAP1 POP PUSH1 0x1 DUP3 AND DUP1 PUSH2 0x10A4 JUMPI PUSH1 0x7F DUP3 AND SWAP2 POP JUMPDEST PUSH1 0x20 DUP3 LT DUP2 SUB PUSH2 0x10B7 JUMPI PUSH2 0x10B6 PUSH2 0x105D JUMP JUMPDEST JUMPDEST POP SWAP2 SWAP1 POP JUMP JUMPDEST PUSH1 0x0 DUP2 MLOAD SWAP1 POP PUSH2 0x10CC DUP2 PUSH2 0xDA0 JUMP JUMPDEST SWAP3 SWAP2 POP POP JUMP JUMPDEST PUSH1 0x0 DUP1 PUSH1 0x0 DUP1 PUSH1 0x0 PUSH1 0xA0 DUP7 DUP9 SUB SLT ISZERO PUSH2 0x10EE JUMPI PUSH2 0x10ED PUSH2 0xD64 JUMP JUMPDEST JUMPDEST PUSH1 0x0 PUSH2 0x10FC DUP9 DUP3 DUP10 ADD PUSH2 0x10BD JUMP JUMPDEST SWAP6 POP POP PUSH1 0x20 PUSH2 0x110D DUP9 DUP3 DUP10 ADD PUSH2 0x10BD JUMP JUMPDEST SWAP5 POP POP PUSH1 0x40 PUSH2 0x111E DUP9 DUP3 DUP10 ADD PUSH2 0x10BD JUMP JUMPDEST SWAP4 POP POP PUSH1 0x60 PUSH2 0x112F DUP9 DUP3 DUP10 ADD PUSH2 0x10BD JUMP JUMPDEST SWAP3 POP POP PUSH1 0x80 PUSH2 0x1140 DUP9 DUP3 DUP10 ADD PUSH2 0x10BD JUMP JUMPDEST SWAP2 POP POP SWAP3 SWAP6 POP SWAP3 SWAP6 SWAP1 SWAP4 POP JUMP JUMPDEST PUSH1 0x0 DUP2 ISZERO ISZERO SWAP1 POP SWAP2 SWAP1 POP JUMP JUMPDEST PUSH2 0x1162 DUP2 PUSH2 0x114D JUMP JUMPDEST DUP2 EQ PUSH2 0x116D JUMPI PUSH1 0x0 DUP1 REVERT JUMPDEST POP JUMP JUMPDEST PUSH1 0x0 DUP2 MLOAD SWAP1 POP PUSH2 0x117F DUP2 PUSH2 0x1159 JUMP JUMPDEST SWAP3 SWAP2 POP POP JUMP JUMPDEST PUSH1 0x0 PUSH1 0x20 DUP3 DUP5 SUB SLT ISZERO PUSH2 0x119B JUMPI PUSH2 0x119A PUSH2 0xD64 JUMP JUMPDEST JUMPDEST PUSH1 0x0 PUSH2 0x11A9 DUP5 DUP3 DUP6 ADD PUSH2 0x1170 JUMP JUMPDEST SWAP2 POP POP SWAP3 SWAP2 POP POP JUMP JUMPDEST PUSH32 0x4143434F554E545F4E4F545F414150524F564544000000000000000000000000 PUSH1 0x0 DUP3 ADD MSTORE POP JUMP JUMPDEST PUSH1 0x0 PUSH2 0x11E8 PUSH1 0x14 DUP4 PUSH2 0xE04 JUMP JUMPDEST SWAP2 POP PUSH2 0x11F3 DUP3 PUSH2 0x11B2 JUMP JUMPDEST PUSH1 0x20 DUP3 ADD SWAP1 POP SWAP2 SWAP1 POP JUMP JUMPDEST PUSH1 0x0 PUSH1 0x20 DUP3 ADD SWAP1 POP DUP2 DUP2 SUB PUSH1 0x0 DUP4 ADD MSTORE PUSH2 0x1217 DUP2 PUSH2 0x11DB JUMP JUMPDEST SWAP1 POP SWAP2 SWAP1 POP JUMP JUMPDEST PUSH32 0x494E56414C49445F414444524553530000000000000000000000000000000000 PUSH1 0x0 DUP3 ADD MSTORE POP JUMP JUMPDEST PUSH1 0x0 PUSH2 0x1254 PUSH1 0xF DUP4 PUSH2 0xE04 JUMP JUMPDEST SWAP2 POP PUSH2 0x125F DUP3 PUSH2 0x121E JUMP JUMPDEST PUSH1 0x20 DUP3 ADD SWAP1 POP SWAP2 SWAP1 POP JUMP JUMPDEST PUSH1 0x0 PUSH1 0x20 DUP3 ADD SWAP1 POP DUP2 DUP2 SUB PUSH1 0x0 DUP4 ADD MSTORE PUSH2 0x1283 DUP2 PUSH2 0x1247 JUMP JUMPDEST SWAP1 POP SWAP2 SWAP1 POP JUMP JUMPDEST PUSH32 0x434845434B5F594F55525F535441545553000000000000000000000000000000 PUSH1 0x0 DUP3 ADD MSTORE POP JUMP JUMPDEST PUSH1 0x0 PUSH2 0x12C0 PUSH1 0x11 DUP4 PUSH2 0xE04 JUMP JUMPDEST SWAP2 POP PUSH2 0x12CB DUP3 PUSH2 0x128A JUMP JUMPDEST PUSH1 0x20 DUP3 ADD SWAP1 POP SWAP2 SWAP1 POP JUMP JUMPDEST PUSH1 0x0 PUSH1 0x20 DUP3 ADD SWAP1 POP DUP2 DUP2 SUB PUSH1 0x0 DUP4 ADD MSTORE PUSH2 0x12EF DUP2 PUSH2 0x12B3 JUMP JUMPDEST SWAP1 POP SWAP2 SWAP1 POP JUMP JUMPDEST PUSH1 0x0 DUP1 REVERT JUMPDEST PUSH1 0x0 DUP1 REVERT JUMPDEST PUSH1 0x0 DUP1 REVERT JUMPDEST PUSH1 0x0 DUP1 DUP4 CALLDATALOAD PUSH1 0x1 PUSH1 0x20 SUB DUP5 CALLDATASIZE SUB SUB DUP2 SLT PUSH2 0x1322 JUMPI PUSH2 0x1321 PUSH2 0x12F6 JUMP JUMPDEST JUMPDEST DUP1 DUP5 ADD SWAP3 POP DUP3 CALLDATALOAD SWAP2 POP PUSH8 0xFFFFFFFFFFFFFFFF DUP3 GT ISZERO PUSH2 0x1344 JUMPI PUSH2 0x1343 PUSH2 0x12FB JUMP JUMPDEST JUMPDEST PUSH1 0x20 DUP4 ADD SWAP3 POP PUSH1 0x1 DUP3 MUL CALLDATASIZE SUB DUP4 SGT ISZERO PUSH2 0x1360 JUMPI PUSH2 0x135F PUSH2 0x1300 JUMP JUMPDEST JUMPDEST POP SWAP3 POP SWAP3 SWAP1 POP JUMP JUMPDEST PUSH1 0x0 DUP3 SWAP1 POP SWAP3 SWAP2 POP POP JUMP JUMPDEST PUSH32 0x4E487B7100000000000000000000000000000000000000000000000000000000 PUSH1 0x0 MSTORE PUSH1 0x41 PUSH1 0x4 MSTORE PUSH1 0x24 PUSH1 0x0 REVERT JUMPDEST PUSH1 0x0 DUP2 SWAP1 POP DUP2 PUSH1 0x0 MSTORE PUSH1 0x20 PUSH1 0x0 KECCAK256 SWAP1 POP SWAP2 SWAP1 POP JUMP JUMPDEST PUSH1 0x0 PUSH1 0x20 PUSH1 0x1F DUP4 ADD DIV SWAP1 POP SWAP2 SWAP1 POP JUMP JUMPDEST PUSH1 0x0 DUP3 DUP3 SHL SWAP1 POP SWAP3 SWAP2 POP POP JUMP JUMPDEST PUSH1 0x0 PUSH1 0x8 DUP4 MUL PUSH2 0x1404 PUSH32 0xFFFFFFFFFFFFFFFFFFFFFFFFFFFFFFFFFFFFFFFFFFFFFFFFFFFFFFFFFFFFFFFF DUP3 PUSH2 0x13C7 JUMP JUMPDEST PUSH2 0x140E DUP7 DUP4 PUSH2 0x13C7 JUMP JUMPDEST SWAP6 POP DUP1 NOT DUP5 AND SWAP4 POP DUP1 DUP7 AND DUP5 OR SWAP3 POP POP POP SWAP4 SWAP3 POP POP POP JUMP JUMPDEST PUSH1 0x0 DUP2 SWAP1 POP SWAP2 SWAP1 POP JUMP JUMPDEST PUSH1 0x0 PUSH2 0x144B PUSH2 0x1446 PUSH2 0x1441 DUP5 PUSH2 0xE89 JUMP JUMPDEST PUSH2 0x1426 JUMP JUMPDEST PUSH2 0xE89 JUMP JUMPDEST SWAP1 POP SWAP2 SWAP1 POP JUMP JUMPDEST PUSH1 0x0 DUP2 SWAP1 POP SWAP2 SWAP1 POP JUMP JUMPDEST PUSH2 0x1465 DUP4 PUSH2 0x1430 JUMP JUMPDEST PUSH2 0x1479 PUSH2 0x1471 DUP3 PUSH2 0x1452 JUMP JUMPDEST DUP5 DUP5 SLOAD PUSH2 0x13D4 JUMP JUMPDEST DUP3 SSTORE POP POP POP POP JUMP JUMPDEST PUSH1 0x0 SWAP1 JUMP JUMPDEST PUSH2 0x148E PUSH2 0x1481 JUMP JUMPDEST PUSH2 0x1499 DUP2 DUP5 DUP5 PUSH2 0x145C JUMP JUMPDEST POP POP POP JUMP JUMPDEST JUMPDEST DUP2 DUP2 LT ISZERO PUSH2 0x14BD JUMPI PUSH2 0x14B2 PUSH1 0x0 DUP3 PUSH2 0x1486 JUMP JUMPDEST PUSH1 0x1 DUP2 ADD SWAP1 POP PUSH2 0x149F JUMP JUMPDEST POP POP JUMP JUMPDEST PUSH1 0x1F DUP3 GT ISZERO PUSH2 0x1502 JUMPI PUSH2 0x14D3 DUP2 PUSH2 0x13A2 JUMP JUMPDEST PUSH2 0x14DC DUP5 PUSH2 0x13B7 JUMP JUMPDEST DUP2 ADD PUSH1 0x20 DUP6 LT ISZERO PUSH2 0x14EB JUMPI DUP2 SWAP1 POP JUMPDEST PUSH2 0x14FF PUSH2 0x14F7 DUP6 PUSH2 0x13B7 JUMP JUMPDEST DUP4 ADD DUP3 PUSH2 0x149E JUMP JUMPDEST POP POP JUMPDEST POP POP POP JUMP JUMPDEST PUSH1 0x0 DUP3 DUP3 SHR SWAP1 POP SWAP3 SWAP2 POP POP JUMP JUMPDEST PUSH1 0x0 PUSH2 0x1525 PUSH1 0x0 NOT DUP5 PUSH1 0x8 MUL PUSH2 0x1507 JUMP JUMPDEST NOT DUP1 DUP4 AND SWAP2 POP POP SWAP3 SWAP2 POP POP JUMP JUMPDEST PUSH1 0x0 PUSH2 0x153E DUP4 DUP4 PUSH2 0x1514 JUMP JUMPDEST SWAP2 POP DUP3 PUSH1 0x2 MUL DUP3 OR SWAP1 POP SWAP3 SWAP2 POP POP JUMP JUMPDEST PUSH2 0x1558 DUP4 DUP4 PUSH2 0x1368 JUMP JUMPDEST PUSH8 0xFFFFFFFFFFFFFFFF DUP2 GT ISZERO PUSH2 0x1571 JUMPI PUSH2 0x1570 PUSH2 0x1373 JUMP JUMPDEST JUMPDEST PUSH2 0x157B DUP3 SLOAD PUSH2 0x108C JUMP JUMPDEST PUSH2 0x1586 DUP3 DUP3 DUP6 PUSH2 0x14C1 JUMP JUMPDEST PUSH1 0x0 PUSH1 0x1F DUP4 GT PUSH1 0x1 DUP2 EQ PUSH2 0x15B5 JUMPI PUSH1 0x0 DUP5 ISZERO PUSH2 0x15A3 JUMPI DUP3 DUP8 ADD CALLDATALOAD SWAP1 POP JUMPDEST PUSH2 0x15AD DUP6 DUP3 PUSH2 0x1532 JUMP JUMPDEST DUP7 SSTORE POP PUSH2 0x1615 JUMP JUMPDEST PUSH1 0x1F NOT DUP5 AND PUSH2 0x15C3 DUP7 PUSH2 0x13A2 JUMP JUMPDEST PUSH1 0x0 JUMPDEST DUP3 DUP2 LT ISZERO PUSH2 0x15EB JUMPI DUP5 DUP10 ADD CALLDATALOAD DUP3 SSTORE PUSH1 0x1 DUP3 ADD SWAP2 POP PUSH1 0x20 DUP6 ADD SWAP5 POP PUSH1 0x20 DUP2 ADD SWAP1 POP PUSH2 0x15C6 JUMP JUMPDEST DUP7 DUP4 LT ISZERO PUSH2 0x1608 JUMPI DUP5 DUP10 ADD CALLDATALOAD PUSH2 0x1604 PUSH1 0x1F DUP10 AND DUP3 PUSH2 0x1514 JUMP JUMPDEST DUP4 SSTORE POP JUMPDEST PUSH1 0x1 PUSH1 0x2 DUP9 MUL ADD DUP9 SSTORE POP POP POP JUMPDEST POP POP POP POP POP POP POP JUMP JUMPDEST PUSH2 0x1629 DUP4 DUP4 DUP4 PUSH2 0x154E JUMP JUMPDEST POP POP POP JUMP JUMPDEST PUSH2 0x1637 DUP2 PUSH2 0xE89 JUMP JUMPDEST DUP2 EQ PUSH2 0x1642 JUMPI PUSH1 0x0 DUP1 REVERT JUMPDEST POP JUMP JUMPDEST PUSH1 0x0 DUP2 CALLDATALOAD PUSH2 0x1652 DUP2 PUSH2 0x162E JUMP JUMPDEST DUP1 SWAP2 POP POP SWAP2 SWAP1 POP JUMP JUMPDEST PUSH1 0x0 DUP2 PUSH1 0x0 SHL SWAP1 POP SWAP2 SWAP1 POP JUMP JUMPDEST PUSH1 0x0 PUSH32 0xFFFFFFFFFFFFFFFFFFFFFFFFFFFFFFFFFFFFFFFFFFFFFFFFFFFFFFFFFFFFFFFF PUSH2 0x1694 DUP5 PUSH2 0x165B JUMP JUMPDEST SWAP4 POP DUP1 NOT DUP4 AND SWAP3 POP DUP1 DUP5 AND DUP4 OR SWAP2 POP POP SWAP3 SWAP2 POP POP JUMP JUMPDEST PUSH2 0x16B3 DUP3 PUSH2 0x1430 JUMP JUMPDEST PUSH2 0x16C6 PUSH2 0x16BF DUP3 PUSH2 0x1452 JUMP JUMPDEST DUP4 SLOAD PUSH2 0x1668 JUMP JUMPDEST DUP3 SSTORE POP POP POP JUMP JUMPDEST PUSH1 0x0 DUP2 CALLDATALOAD PUSH2 0x16DA DUP2 PUSH2 0xDA0 JUMP JUMPDEST DUP1 SWAP2 POP POP SWAP2 SWAP1 POP JUMP JUMPDEST PUSH1 0x0 PUSH20 0xFFFFFFFFFFFFFFFFFFFFFFFFFFFFFFFFFFFFFFFF PUSH2 0x1703 DUP5 PUSH2 0x165B JUMP JUMPDEST SWAP4 POP DUP1 NOT DUP4 AND SWAP3 POP DUP1 DUP5 AND DUP4 OR SWAP2 POP POP SWAP3 SWAP2 POP POP JUMP JUMPDEST PUSH1 0x0 PUSH2 0x1734 PUSH2 0x172F PUSH2 0x172A DUP5 PUSH2 0xD6E JUMP JUMPDEST PUSH2 0x1426 JUMP JUMPDEST PUSH2 0xD6E JUMP JUMPDEST SWAP1 POP SWAP2 SWAP1 POP JUMP JUMPDEST PUSH1 0x0 PUSH2 0x1746 DUP3 PUSH2 0x1719 JUMP JUMPDEST SWAP1 POP SWAP2 SWAP1 POP JUMP JUMPDEST PUSH1 0x0 PUSH2 0x1758 DUP3 PUSH2 0x173B JUMP JUMPDEST SWAP1 POP SWAP2 SWAP1 POP JUMP JUMPDEST PUSH1 0x0 DUP2 SWAP1 POP SWAP2 SWAP1 POP JUMP JUMPDEST PUSH2 0x1772 DUP3 PUSH2 0x174D JUMP JUMPDEST PUSH2 0x1785 PUSH2 0x177E DUP3 PUSH2 0x175F JUMP JUMPDEST DUP4 SLOAD PUSH2 0x16E3 JUMP JUMPDEST DUP3 SSTORE POP POP POP JUMP JUMPDEST PUSH1 0x0 DUP2 ADD PUSH1 0x0 DUP4 ADD PUSH2 0x179E DUP2 DUP6 PUSH2 0x1305 JUMP JUMPDEST PUSH2 0x17A9 DUP2 DUP4 DUP7 PUSH2 0x161E JUMP JUMPDEST POP POP POP POP PUSH1 0x1 DUP2 ADD PUSH1 0x20 DUP4 ADD PUSH2 0x17BF DUP2 DUP6 PUSH2 0x1305 JUMP JUMPDEST PUSH2 0x17CA DUP2 DUP4 DUP7 PUSH2 0x161E JUMP JUMPDEST POP POP POP POP PUSH1 0x2 DUP2 ADD PUSH1 0x40 DUP4 ADD PUSH2 0x17E0 DUP2 DUP6 PUSH2 0x1305 JUMP JUMPDEST PUSH2 0x17EB DUP2 DUP4 DUP7 PUSH2 0x161E JUMP JUMPDEST POP POP POP POP PUSH1 0x3 DUP2 ADD PUSH1 0x60 DUP4 ADD PUSH2 0x1801 DUP2 DUP6 PUSH2 0x1305 JUMP JUMPDEST PUSH2 0x180C DUP2 DUP4 DUP7 PUSH2 0x161E JUMP JUMPDEST POP POP POP POP PUSH1 0x4 DUP2 ADD PUSH1 0x80 DUP4 ADD PUSH2 0x1822 DUP2 DUP6 PUSH2 0x1305 JUMP JUMPDEST PUSH2 0x182D DUP2 DUP4 DUP7 PUSH2 0x161E JUMP JUMPDEST POP POP POP POP PUSH1 0x5 DUP2 ADD PUSH1 0xA0 DUP4 ADD DUP1 PUSH2 0x1843 DUP2 PUSH2 0x1645 JUMP JUMPDEST SWAP1 POP PUSH2 0x184F DUP2 DUP5 PUSH2 0x16AA JUMP JUMPDEST POP POP POP PUSH1 0x6 DUP2 ADD PUSH1 0xC0 DUP4 ADD DUP1 PUSH2 0x1864 DUP2 PUSH2 0x16CD JUMP JUMPDEST SWAP1 POP PUSH2 0x1870 DUP2 DUP5 PUSH2 0x1769 JUMP JUMPDEST POP POP POP POP POP JUMP JUMPDEST PUSH2 0x1881 DUP3 DUP3 PUSH2 0x178C JUMP JUMPDEST POP POP JUMP JUMPDEST PUSH32 0x4F4E4C595F544F504F535F4D414E414745520000000000000000000000000000 PUSH1 0x0 DUP3 ADD MSTORE POP JUMP JUMPDEST PUSH1 0x0 PUSH2 0x18BB PUSH1 0x12 DUP4 PUSH2 0xE04 JUMP JUMPDEST SWAP2 POP PUSH2 0x18C6 DUP3 PUSH2 0x1885 JUMP JUMPDEST PUSH1 0x20 DUP3 ADD SWAP1 POP SWAP2 SWAP1 POP JUMP JUMPDEST PUSH1 0x0 PUSH1 0x20 DUP3 ADD SWAP1 POP DUP2 DUP2 SUB PUSH1 0x0 DUP4 ADD MSTORE PUSH2 0x18EA DUP2 PUSH2 0x18AE JUMP JUMPDEST SWAP1 POP SWAP2 SWAP1 POP JUMP JUMPDEST PUSH32 0x4953535545520000000000000000000000000000000000000000000000000000 PUSH1 0x0 DUP3 ADD MSTORE POP JUMP JUMPDEST PUSH1 0x0 PUSH2 0x1927 PUSH1 0x6 DUP4 PUSH2 0xE04 JUMP JUMPDEST SWAP2 POP PUSH2 0x1932 DUP3 PUSH2 0x18F1 JUMP JUMPDEST PUSH1 0x20 DUP3 ADD SWAP1 POP SWAP2 SWAP1 POP JUMP JUMPDEST PUSH1 0x0 PUSH1 0x40 DUP3 ADD SWAP1 POP DUP2 DUP2 SUB PUSH1 0x0 DUP4 ADD MSTORE PUSH2 0x1956 DUP2 PUSH2 0x191A JUMP JUMPDEST SWAP1 POP PUSH2 0x1965 PUSH1 0x20 DUP4 ADD DUP5 PUSH2 0xEA2 JUMP JUMPDEST SWAP3 SWAP2 POP POP JUMP INVALID LOG2 PUSH5 0x6970667358 0x22 SLT KECCAK256 0xC8 MLOAD SWAP5 MSIZE 0x49 SMOD SWAP3 0x2C 0xA9 BALANCE 0xCA PUSH21 0x585D577F25AC18E221CD07D5CFB29594443858B564 PUSH20 0x6F6C634300081300330000000000000000000000 "},"methodIdentifiers":{"approveIssuer(address)":"82deb86e","issuerStatus(address)":"fcbb3c18","issuers(address)":"38a7543e","rejectIssuer(address)":"c88efe65","requestRegistrationIssuer((string,string,string,string,string,uint256,address))":"3dc349be","toposBankContract()":"9c34712a"}}}}}