{"contracts/Topos/Exchange/Exchange.sol":{"Exchange":{"abi":[{"inputs":[{"internalType":"address","name":"_bankContract","type":"address"},{"internalType":"address","name":"_bondCallContract","type":"address"}],"stateMutability":"nonpayable","type":"constructor"},{"anonymous":false,"inputs":[{"indexed":false,"internalType":"string","name":"dealID","type":"string"},{"indexed":false,"internalType":"address","name":"seller","type":"address"},{"indexed":false,"internalType":"uint256","name":"amountToAdd","type":"uint256"}],"name":"AmountIncreased","type":"event"},{"anonymous":false,"inputs":[{"indexed":false,"internalType":"string","name":"dealID","type":"string"},{"indexed":false,"internalType":"address","name":"seller","type":"address"},{"indexed":false,"internalType":"address","name":"buyer","type":"address"},{"indexed":false,"internalType":"uint256","name":"amount","type":"uint256"}],"name":"BondBought","type":"event"},{"anonymous":false,"inputs":[{"indexed":false,"internalType":"string","name":"dealID","type":"string"},{"indexed":false,"internalType":"address","name":"seller","type":"address"}],"name":"BondsCanceled","type":"event"},{"anonymous":false,"inputs":[{"indexed":false,"internalType":"string","name":"dealID","type":"string"},{"indexed":false,"internalType":"address","name":"seller","type":"address"},{"indexed":false,"internalType":"uint256","name":"amount","type":"uint256"},{"indexed":false,"internalType":"uint256","name":"price","type":"uint256"}],"name":"BondsListed","type":"event"},{"anonymous":false,"inputs":[{"indexed":false,"internalType":"string","name":"dealID","type":"string"},{"indexed":false,"internalType":"address","name":"seller","type":"address"},{"indexed":false,"internalType":"uint256","name":"newPrice","type":"uint256"}],"name":"PriceUpdated","type":"event"},{"inputs":[],"name":"bankContract","outputs":[{"internalType":"address","name":"","type":"address"}],"stateMutability":"view","type":"function"},{"inputs":[],"name":"bondCallContract","outputs":[{"internalType":"address","name":"","type":"address"}],"stateMutability":"view","type":"function"},{"inputs":[{"internalType":"string","name":"_dealID","type":"string"},{"internalType":"address","name":"_seller","type":"address"},{"internalType":"uint256","name":"_amount","type":"uint256"}],"name":"buyBonds","outputs":[],"stateMutability":"nonpayable","type":"function"},{"inputs":[],"name":"exchangeBondsStorage","outputs":[{"internalType":"address","name":"","type":"address"}],"stateMutability":"view","type":"function"},{"inputs":[],"name":"getDealsListed","outputs":[{"components":[{"internalType":"string","name":"dealID","type":"string"},{"internalType":"address","name":"owner","type":"address"},{"internalType":"uint256","name":"amount","type":"uint256"},{"internalType":"uint256","name":"price","type":"uint256"},{"internalType":"uint256","name":"index","type":"uint256"},{"internalType":"uint256","name":"listingTime","type":"uint256"}],"internalType":"struct BondData.Listing[]","name":"","type":"tuple[]"}],"stateMutability":"view","type":"function"},{"inputs":[{"internalType":"string","name":"_dealID","type":"string"},{"internalType":"uint256","name":"_amountToAdd","type":"uint256"}],"name":"increaseListingAmount","outputs":[],"stateMutability":"nonpayable","type":"function"},{"inputs":[{"internalType":"address","name":"","type":"address"},{"internalType":"string","name":"","type":"string"}],"name":"investorListing","outputs":[{"internalType":"string","name":"dealID","type":"string"},{"internalType":"address","name":"owner","type":"address"},{"internalType":"uint256","name":"amount","type":"uint256"},{"internalType":"uint256","name":"price","type":"uint256"},{"internalType":"uint256","name":"index","type":"uint256"},{"internalType":"uint256","name":"listingTime","type":"uint256"}],"stateMutability":"view","type":"function"},{"inputs":[{"internalType":"string","name":"_dealID","type":"string"},{"internalType":"uint256","name":"_amount","type":"uint256"},{"internalType":"uint256","name":"_price","type":"uint256"}],"name":"listBonds","outputs":[],"stateMutability":"nonpayable","type":"function"},{"inputs":[],"name":"owner","outputs":[{"internalType":"address","name":"","type":"address"}],"stateMutability":"view","type":"function"},{"inputs":[{"internalType":"address","name":"_exchangeBondsStorage","type":"address"}],"name":"setExchangeBondsStorage","outputs":[],"stateMutability":"nonpayable","type":"function"},{"inputs":[{"internalType":"string","name":"_dealID","type":"string"}],"name":"unlistBonds","outputs":[],"stateMutability":"nonpayable","type":"function"},{"inputs":[{"internalType":"string","name":"_dealID","type":"string"},{"internalType":"uint256","name":"_newPrice","type":"uint256"}],"name":"updateDealPrice","outputs":[],"stateMutability":"nonpayable","type":"function"}],"evm":{"bytecode":{"linkReferences":{},"object":"60806040523480156200001157600080fd5b50604051620022363803806200223683398181016040528101906200003791906200016c565b33600160006101000a81548173ffffffffffffffffffffffffffffffffffffffff021916908373ffffffffffffffffffffffffffffffffffffffff16021790555081600260006101000a81548173ffffffffffffffffffffffffffffffffffffffff021916908373ffffffffffffffffffffffffffffffffffffffff16021790555080600360006101000a81548173ffffffffffffffffffffffffffffffffffffffff021916908373ffffffffffffffffffffffffffffffffffffffff1602179055505050620001b3565b600080fd5b600073ffffffffffffffffffffffffffffffffffffffff82169050919050565b6000620001348262000107565b9050919050565b620001468162000127565b81146200015257600080fd5b50565b60008151905062000166816200013b565b92915050565b6000806040838503121562000186576200018562000102565b5b6000620001968582860162000155565b9250506020620001a98582860162000155565b9150509250929050565b61207380620001c36000396000f3fe608060405234801561001057600080fd5b50600436106100b45760003560e01c80638da5cb5b116100715780638da5cb5b1461017e578063916cdbfc1461019c578063aa522a2c146101ba578063ae7076ec146101d6578063cdd619f6146101f2578063f14049d51461020e576100b4565b806307c2e449146100b95780632d9fc161146100d75780634a51c8df1461010c5780635e43522e146101285780636f3b1410146101465780638652879014610162575b600080fd5b6100c161022c565b6040516100ce919061134f565b60405180910390f35b6100f160048036038101906100ec91906114f0565b610252565b604051610103969594939291906115e4565b60405180910390f35b6101266004803603810190610121919061164c565b610359565b005b610130610466565b60405161013d919061134f565b60405180910390f35b610160600480360381019061015b91906116a5565b61048c565b005b61017c60048036038101906101779190611701565b61059f565b005b61018661092c565b604051610193919061134f565b60405180910390f35b6101a4610952565b6040516101b1919061134f565b60405180910390f35b6101d460048036038101906101cf91906116a5565b610978565b005b6101f060048036038101906101eb9190611770565b610d00565b005b61020c600480360381019061020791906117df565b6110d4565b005b61021661119f565b60405161022391906119db565b60405180910390f35b600260009054906101000a900473ffffffffffffffffffffffffffffffffffffffff1681565b6000602052816000526040600020818051602081018201805184825260208301602085012081835280955050505050506000915091505080600001805461029890611a2c565b80601f01602080910402602001604051908101604052809291908181526020018280546102c490611a2c565b80156103115780601f106102e657610100808354040283529160200191610311565b820191906000526020600020905b8154815290600101906020018083116102f457829003601f168201915b5050505050908060010160009054906101000a900473ffffffffffffffffffffffffffffffffffffffff16908060020154908060030154908060040154908060050154905086565b600160009054906101000a900473ffffffffffffffffffffffffffffffffffffffff1673ffffffffffffffffffffffffffffffffffffffff163373ffffffffffffffffffffffffffffffffffffffff16146103e9576040517f08c379a00000000000000000000000000000000000000000000000000000000081526004016103e090611aa9565b60405180910390fd5b600073ffffffffffffffffffffffffffffffffffffffff168173ffffffffffffffffffffffffffffffffffffffff160361042257600080fd5b80600460006101000a81548173ffffffffffffffffffffffffffffffffffffffff021916908373ffffffffffffffffffffffffffffffffffffffff16021790555050565b600360009054906101000a900473ffffffffffffffffffffffffffffffffffffffff1681565b600081116104cf576040517f08c379a00000000000000000000000000000000000000000000000000000000081526004016104c690611b15565b60405180910390fd5b600460009054906101000a900473ffffffffffffffffffffffffffffffffffffffff1673ffffffffffffffffffffffffffffffffffffffff1663a33f7da08333846040518463ffffffff1660e01b815260040161052e93929190611b35565b600060405180830381600087803b15801561054857600080fd5b505af115801561055c573d6000803e3d6000fd5b505050507f6a1d07ea5e6ff75e796159ad10cd2c8cff5620be1d029d17c1c910c607c4999b82338360405161059393929190611b35565b60405180910390a15050565b6000600260009054906101000a900473ffffffffffffffffffffffffffffffffffffffff1673ffffffffffffffffffffffffffffffffffffffff16632f667910856040518263ffffffff1660e01b81526004016105fc9190611b73565b602060405180830381865afa158015610619573d6000803e3d6000fd5b505050506040513d601f19601f8201168201806040525081019061063d9190611baa565b90506000600360009054906101000a900473ffffffffffffffffffffffffffffffffffffffff1673ffffffffffffffffffffffffffffffffffffffff1663927da1053330856040518463ffffffff1660e01b81526004016106a093929190611bd7565b602060405180830381865afa1580156106bd573d6000803e3d6000fd5b505050506040513d601f19601f820116820180604052508101906106e19190611c23565b905080841115610726576040517f08c379a000000000000000000000000000000000000000000000000000000000815260040161071d90611c9c565b60405180910390fd5b60008411610769576040517f08c379a000000000000000000000000000000000000000000000000000000000815260040161076090611b15565b60405180910390fd5b600460009054906101000a900473ffffffffffffffffffffffffffffffffffffffff1673ffffffffffffffffffffffffffffffffffffffff16635b91e752338787876040518563ffffffff1660e01b81526004016107ca9493929190611cbc565b600060405180830381600087803b1580156107e457600080fd5b505af11580156107f8573d6000803e3d6000fd5b50505050600360009054906101000a900473ffffffffffffffffffffffffffffffffffffffff1673ffffffffffffffffffffffffffffffffffffffff1663b2a7bd1933600460009054906101000a900473ffffffffffffffffffffffffffffffffffffffff16876040518060400160405280600381526020017f3078300000000000000000000000000000000000000000000000000000000000815250876040518663ffffffff1660e01b81526004016108b6959493929190611d5d565b600060405180830381600087803b1580156108d057600080fd5b505af11580156108e4573d6000803e3d6000fd5b505050507fe6cec3038e34f0ea6f50abffcc0f879c25f6a9983d5e7f3c35673cac0c5708f08533868660405161091d9493929190611db7565b60405180910390a15050505050565b600160009054906101000a900473ffffffffffffffffffffffffffffffffffffffff1681565b600460009054906101000a900473ffffffffffffffffffffffffffffffffffffffff1681565b6000600260009054906101000a900473ffffffffffffffffffffffffffffffffffffffff1673ffffffffffffffffffffffffffffffffffffffff16632f667910846040518263ffffffff1660e01b81526004016109d59190611b73565b602060405180830381865afa1580156109f2573d6000803e3d6000fd5b505050506040513d601f19601f82011682018060405250810190610a169190611baa565b905060008211610a5b576040517f08c379a0000000000000000000000000000000000000000000000000000000008152600401610a5290611b15565b60405180910390fd5b600460009054906101000a900473ffffffffffffffffffffffffffffffffffffffff1673ffffffffffffffffffffffffffffffffffffffff1663995ae7d08433856040518463ffffffff1660e01b8152600401610aba93929190611b35565b600060405180830381600087803b158015610ad457600080fd5b505af1158015610ae8573d6000803e3d6000fd5b505050506000600360009054906101000a900473ffffffffffffffffffffffffffffffffffffffff1673ffffffffffffffffffffffffffffffffffffffff1663927da1053330856040518463ffffffff1660e01b8152600401610b4d93929190611bd7565b602060405180830381865afa158015610b6a573d6000803e3d6000fd5b505050506040513d601f19601f82011682018060405250810190610b8e9190611c23565b905080831115610bd3576040517f08c379a0000000000000000000000000000000000000000000000000000000008152600401610bca90611c9c565b60405180910390fd5b600360009054906101000a900473ffffffffffffffffffffffffffffffffffffffff1673ffffffffffffffffffffffffffffffffffffffff1663b2a7bd1933600460009054906101000a900473ffffffffffffffffffffffffffffffffffffffff16866040518060400160405280600381526020017f3078300000000000000000000000000000000000000000000000000000000000815250876040518663ffffffff1660e01b8152600401610c8d959493929190611d5d565b600060405180830381600087803b158015610ca757600080fd5b505af1158015610cbb573d6000803e3d6000fd5b505050507f1b98d975dd919d26350a21845e2ac202f276edc4dabd039c8bf8fdfdc1259221843385604051610cf293929190611b35565b60405180910390a150505050565b6000600260009054906101000a900473ffffffffffffffffffffffffffffffffffffffff1673ffffffffffffffffffffffffffffffffffffffff16632f667910856040518263ffffffff1660e01b8152600401610d5d9190611b73565b602060405180830381865afa158015610d7a573d6000803e3d6000fd5b505050506040513d601f19601f82011682018060405250810190610d9e9190611baa565b90506000600360009054906101000a900473ffffffffffffffffffffffffffffffffffffffff1673ffffffffffffffffffffffffffffffffffffffff166319ebf028836040518263ffffffff1660e01b8152600401610dfd919061134f565b602060405180830381865afa158015610e1a573d6000803e3d6000fd5b505050506040513d601f19601f82011682018060405250810190610e3e9190611baa565b905060008060008673ffffffffffffffffffffffffffffffffffffffff1673ffffffffffffffffffffffffffffffffffffffff16815260200190815260200160002086604051610e8e9190611e3f565b90815260200160405180910390206003015490506000670de0b6b3a764000082610eb89190611e85565b905060008373ffffffffffffffffffffffffffffffffffffffff166370a08231336040518263ffffffff1660e01b8152600401610ef5919061134f565b602060405180830381865afa158015610f12573d6000803e3d6000fd5b505050506040513d601f19601f82011682018060405250810190610f369190611c23565b905081811015610f7b576040517f08c379a0000000000000000000000000000000000000000000000000000000008152600401610f7290611f13565b60405180910390fd5b600460009054906101000a900473ffffffffffffffffffffffffffffffffffffffff1673ffffffffffffffffffffffffffffffffffffffff1663d32e0f278989338a6040518563ffffffff1660e01b8152600401610fdc9493929190611f33565b600060405180830381600087803b158015610ff657600080fd5b505af115801561100a573d6000803e3d6000fd5b505050508373ffffffffffffffffffffffffffffffffffffffff1663a9059cbb88846040518363ffffffff1660e01b8152600401611049929190611f7f565b6020604051808303816000875af1158015611068573d6000803e3d6000fd5b505050506040513d601f19601f8201168201806040525081019061108c9190611fe0565b507f820bf2ae1f4bcd166e4adb6e32d112ef2164e186e503a62eba485748d1c72ea1888833896040516110c29493929190611f33565b60405180910390a15050505050505050565b600460009054906101000a900473ffffffffffffffffffffffffffffffffffffffff1673ffffffffffffffffffffffffffffffffffffffff16632cc9143f82336040518363ffffffff1660e01b815260040161113192919061200d565b600060405180830381600087803b15801561114b57600080fd5b505af115801561115f573d6000803e3d6000fd5b505050507fa7236108b1b13656f4c805e22e6ec64d5570479fface325dcf755e3e984e80e8813360405161119492919061200d565b60405180910390a150565b60606005805480602002602001604051908101604052809291908181526020016000905b8282101561130557838290600052602060002090600602016040518060c00160405290816000820180546111f690611a2c565b80601f016020809104026020016040519081016040528092919081815260200182805461122290611a2c565b801561126f5780601f106112445761010080835404028352916020019161126f565b820191906000526020600020905b81548152906001019060200180831161125257829003601f168201915b505050505081526020016001820160009054906101000a900473ffffffffffffffffffffffffffffffffffffffff1673ffffffffffffffffffffffffffffffffffffffff1673ffffffffffffffffffffffffffffffffffffffff168152602001600282015481526020016003820154815260200160048201548152602001600582015481525050815260200190600101906111c3565b50505050905090565b600073ffffffffffffffffffffffffffffffffffffffff82169050919050565b60006113398261130e565b9050919050565b6113498161132e565b82525050565b60006020820190506113646000830184611340565b92915050565b6000604051905090565b600080fd5b600080fd5b6113878161132e565b811461139257600080fd5b50565b6000813590506113a48161137e565b92915050565b600080fd5b600080fd5b6000601f19601f8301169050919050565b7f4e487b7100000000000000000000000000000000000000000000000000000000600052604160045260246000fd5b6113fd826113b4565b810181811067ffffffffffffffff8211171561141c5761141b6113c5565b5b80604052505050565b600061142f61136a565b905061143b82826113f4565b919050565b600067ffffffffffffffff82111561145b5761145a6113c5565b5b611464826113b4565b9050602081019050919050565b82818337600083830152505050565b600061149361148e84611440565b611425565b9050828152602081018484840111156114af576114ae6113af565b5b6114ba848285611471565b509392505050565b600082601f8301126114d7576114d66113aa565b5b81356114e7848260208601611480565b91505092915050565b6000806040838503121561150757611506611374565b5b600061151585828601611395565b925050602083013567ffffffffffffffff81111561153657611535611379565b5b611542858286016114c2565b9150509250929050565b600081519050919050565b600082825260208201905092915050565b60005b8381101561158657808201518184015260208101905061156b565b60008484015250505050565b600061159d8261154c565b6115a78185611557565b93506115b7818560208601611568565b6115c0816113b4565b840191505092915050565b6000819050919050565b6115de816115cb565b82525050565b600060c08201905081810360008301526115fe8189611592565b905061160d6020830188611340565b61161a60408301876115d5565b61162760608301866115d5565b61163460808301856115d5565b61164160a08301846115d5565b979650505050505050565b60006020828403121561166257611661611374565b5b600061167084828501611395565b91505092915050565b611682816115cb565b811461168d57600080fd5b50565b60008135905061169f81611679565b92915050565b600080604083850312156116bc576116bb611374565b5b600083013567ffffffffffffffff8111156116da576116d9611379565b5b6116e6858286016114c2565b92505060206116f785828601611690565b9150509250929050565b60008060006060848603121561171a57611719611374565b5b600084013567ffffffffffffffff81111561173857611737611379565b5b611744868287016114c2565b935050602061175586828701611690565b925050604061176686828701611690565b9150509250925092565b60008060006060848603121561178957611788611374565b5b600084013567ffffffffffffffff8111156117a7576117a6611379565b5b6117b3868287016114c2565b93505060206117c486828701611395565b92505060406117d586828701611690565b9150509250925092565b6000602082840312156117f5576117f4611374565b5b600082013567ffffffffffffffff81111561181357611812611379565b5b61181f848285016114c2565b91505092915050565b600081519050919050565b600082825260208201905092915050565b6000819050602082019050919050565b600082825260208201905092915050565b60006118708261154c565b61187a8185611854565b935061188a818560208601611568565b611893816113b4565b840191505092915050565b6118a78161132e565b82525050565b6118b6816115cb565b82525050565b600060c08301600083015184820360008601526118d98282611865565b91505060208301516118ee602086018261189e565b50604083015161190160408601826118ad565b50606083015161191460608601826118ad565b50608083015161192760808601826118ad565b5060a083015161193a60a08601826118ad565b508091505092915050565b600061195183836118bc565b905092915050565b6000602082019050919050565b600061197182611828565b61197b8185611833565b93508360208202850161198d85611844565b8060005b858110156119c957848403895281516119aa8582611945565b94506119b583611959565b925060208a01995050600181019050611991565b50829750879550505050505092915050565b600060208201905081810360008301526119f58184611966565b905092915050565b7f4e487b7100000000000000000000000000000000000000000000000000000000600052602260045260246000fd5b60006002820490506001821680611a4457607f821691505b602082108103611a5757611a566119fd565b5b50919050565b7f4f6e6c79206f776e657200000000000000000000000000000000000000000000600082015250565b6000611a93600a83611557565b9150611a9e82611a5d565b602082019050919050565b60006020820190508181036000830152611ac281611a86565b9050919050565b7f696e76616c696420616d6f756e74000000000000000000000000000000000000600082015250565b6000611aff600e83611557565b9150611b0a82611ac9565b602082019050919050565b60006020820190508181036000830152611b2e81611af2565b9050919050565b60006060820190508181036000830152611b4f8186611592565b9050611b5e6020830185611340565b611b6b60408301846115d5565b949350505050565b60006020820190508181036000830152611b8d8184611592565b905092915050565b600081519050611ba48161137e565b92915050565b600060208284031215611bc057611bbf611374565b5b6000611bce84828501611b95565b91505092915050565b6000606082019050611bec6000830186611340565b611bf96020830185611340565b611c066040830184611340565b949350505050565b600081519050611c1d81611679565b92915050565b600060208284031215611c3957611c38611374565b5b6000611c4784828501611c0e565b91505092915050565b7f616c6c6f77616e63650000000000000000000000000000000000000000000000600082015250565b6000611c86600983611557565b9150611c9182611c50565b602082019050919050565b60006020820190508181036000830152611cb581611c79565b9050919050565b6000608082019050611cd16000830187611340565b8181036020830152611ce38186611592565b9050611cf260408301856115d5565b611cff60608301846115d5565b95945050505050565b600081519050919050565b600082825260208201905092915050565b6000611d2f82611d08565b611d398185611d13565b9350611d49818560208601611568565b611d52816113b4565b840191505092915050565b600060a082019050611d726000830188611340565b611d7f6020830187611340565b611d8c60408301866115d5565b8181036060830152611d9e8185611d24565b9050611dad6080830184611340565b9695505050505050565b60006080820190508181036000830152611dd18187611592565b9050611de06020830186611340565b611ded60408301856115d5565b611dfa60608301846115d5565b95945050505050565b600081905092915050565b6000611e198261154c565b611e238185611e03565b9350611e33818560208601611568565b80840191505092915050565b6000611e4b8284611e0e565b915081905092915050565b7f4e487b7100000000000000000000000000000000000000000000000000000000600052601160045260246000fd5b6000611e90826115cb565b9150611e9b836115cb565b9250828202611ea9816115cb565b91508282048414831517611ec057611ebf611e56565b5b5092915050565b7f62616c616e636500000000000000000000000000000000000000000000000000600082015250565b6000611efd600783611557565b9150611f0882611ec7565b602082019050919050565b60006020820190508181036000830152611f2c81611ef0565b9050919050565b60006080820190508181036000830152611f4d8187611592565b9050611f5c6020830186611340565b611f696040830185611340565b611f7660608301846115d5565b95945050505050565b6000604082019050611f946000830185611340565b611fa160208301846115d5565b9392505050565b60008115159050919050565b611fbd81611fa8565b8114611fc857600080fd5b50565b600081519050611fda81611fb4565b92915050565b600060208284031215611ff657611ff5611374565b5b600061200484828501611fcb565b91505092915050565b600060408201905081810360008301526120278185611592565b90506120366020830184611340565b939250505056fea2646970667358221220afd3bc5e3e2b23e7b90acfeabb1681048ad76f59c1bee982735f41baca2b9f0964736f6c63430008130033","opcodes":"PUSH1 0x80 PUSH1 0x40 MSTORE CALLVALUE DUP1 ISZERO PUSH3 0x11 JUMPI PUSH1 0x0 DUP1 REVERT JUMPDEST POP PUSH1 0x40 MLOAD PUSH3 0x2236 CODESIZE SUB DUP1 PUSH3 0x2236 DUP4 CODECOPY DUP2 DUP2 ADD PUSH1 0x40 MSTORE DUP2 ADD SWAP1 PUSH3 0x37 SWAP2 SWAP1 PUSH3 0x16C JUMP JUMPDEST CALLER PUSH1 0x1 PUSH1 0x0 PUSH2 0x100 EXP DUP2 SLOAD DUP2 PUSH20 0xFFFFFFFFFFFFFFFFFFFFFFFFFFFFFFFFFFFFFFFF MUL NOT AND SWAP1 DUP4 PUSH20 0xFFFFFFFFFFFFFFFFFFFFFFFFFFFFFFFFFFFFFFFF AND MUL OR SWAP1 SSTORE POP DUP2 PUSH1 0x2 PUSH1 0x0 PUSH2 0x100 EXP DUP2 SLOAD DUP2 PUSH20 0xFFFFFFFFFFFFFFFFFFFFFFFFFFFFFFFFFFFFFFFF MUL NOT AND SWAP1 DUP4 PUSH20 0xFFFFFFFFFFFFFFFFFFFFFFFFFFFFFFFFFFFFFFFF AND MUL OR SWAP1 SSTORE POP DUP1 PUSH1 0x3 PUSH1 0x0 PUSH2 0x100 EXP DUP2 SLOAD DUP2 PUSH20 0xFFFFFFFFFFFFFFFFFFFFFFFFFFFFFFFFFFFFFFFF MUL NOT AND SWAP1 DUP4 PUSH20 0xFFFFFFFFFFFFFFFFFFFFFFFFFFFFFFFFFFFFFFFF AND MUL OR SWAP1 SSTORE POP POP POP PUSH3 0x1B3 JUMP JUMPDEST PUSH1 0x0 DUP1 REVERT JUMPDEST PUSH1 0x0 PUSH20 0xFFFFFFFFFFFFFFFFFFFFFFFFFFFFFFFFFFFFFFFF DUP3 AND SWAP1 POP SWAP2 SWAP1 POP JUMP JUMPDEST PUSH1 0x0 PUSH3 0x134 DUP3 PUSH3 0x107 JUMP JUMPDEST SWAP1 POP SWAP2 SWAP1 POP JUMP JUMPDEST PUSH3 0x146 DUP2 PUSH3 0x127 JUMP JUMPDEST DUP2 EQ PUSH3 0x152 JUMPI PUSH1 0x0 DUP1 REVERT JUMPDEST POP JUMP JUMPDEST PUSH1 0x0 DUP2 MLOAD SWAP1 POP PUSH3 0x166 DUP2 PUSH3 0x13B JUMP JUMPDEST SWAP3 SWAP2 POP POP JUMP JUMPDEST PUSH1 0x0 DUP1 PUSH1 0x40 DUP4 DUP6 SUB SLT ISZERO PUSH3 0x186 JUMPI PUSH3 0x185 PUSH3 0x102 JUMP JUMPDEST JUMPDEST PUSH1 0x0 PUSH3 0x196 DUP6 DUP3 DUP7 ADD PUSH3 0x155 JUMP JUMPDEST SWAP3 POP POP PUSH1 0x20 PUSH3 0x1A9 DUP6 DUP3 DUP7 ADD PUSH3 0x155 JUMP JUMPDEST SWAP2 POP POP SWAP3 POP SWAP3 SWAP1 POP JUMP JUMPDEST PUSH2 0x2073 DUP1 PUSH3 0x1C3 PUSH1 0x0 CODECOPY PUSH1 0x0 RETURN INVALID PUSH1 0x80 PUSH1 0x40 MSTORE CALLVALUE DUP1 ISZERO PUSH2 0x10 JUMPI PUSH1 0x0 DUP1 REVERT JUMPDEST POP PUSH1 0x4 CALLDATASIZE LT PUSH2 0xB4 JUMPI PUSH1 0x0 CALLDATALOAD PUSH1 0xE0 SHR DUP1 PUSH4 0x8DA5CB5B GT PUSH2 0x71 JUMPI DUP1 PUSH4 0x8DA5CB5B EQ PUSH2 0x17E JUMPI DUP1 PUSH4 0x916CDBFC EQ PUSH2 0x19C JUMPI DUP1 PUSH4 0xAA522A2C EQ PUSH2 0x1BA JUMPI DUP1 PUSH4 0xAE7076EC EQ PUSH2 0x1D6 JUMPI DUP1 PUSH4 0xCDD619F6 EQ PUSH2 0x1F2 JUMPI DUP1 PUSH4 0xF14049D5 EQ PUSH2 0x20E JUMPI PUSH2 0xB4 JUMP JUMPDEST DUP1 PUSH4 0x7C2E449 EQ PUSH2 0xB9 JUMPI DUP1 PUSH4 0x2D9FC161 EQ PUSH2 0xD7 JUMPI DUP1 PUSH4 0x4A51C8DF EQ PUSH2 0x10C JUMPI DUP1 PUSH4 0x5E43522E EQ PUSH2 0x128 JUMPI DUP1 PUSH4 0x6F3B1410 EQ PUSH2 0x146 JUMPI DUP1 PUSH4 0x86528790 EQ PUSH2 0x162 JUMPI JUMPDEST PUSH1 0x0 DUP1 REVERT JUMPDEST PUSH2 0xC1 PUSH2 0x22C JUMP JUMPDEST PUSH1 0x40 MLOAD PUSH2 0xCE SWAP2 SWAP1 PUSH2 0x134F JUMP JUMPDEST PUSH1 0x40 MLOAD DUP1 SWAP2 SUB SWAP1 RETURN JUMPDEST PUSH2 0xF1 PUSH1 0x4 DUP1 CALLDATASIZE SUB DUP2 ADD SWAP1 PUSH2 0xEC SWAP2 SWAP1 PUSH2 0x14F0 JUMP JUMPDEST PUSH2 0x252 JUMP JUMPDEST PUSH1 0x40 MLOAD PUSH2 0x103 SWAP7 SWAP6 SWAP5 SWAP4 SWAP3 SWAP2 SWAP1 PUSH2 0x15E4 JUMP JUMPDEST PUSH1 0x40 MLOAD DUP1 SWAP2 SUB SWAP1 RETURN JUMPDEST PUSH2 0x126 PUSH1 0x4 DUP1 CALLDATASIZE SUB DUP2 ADD SWAP1 PUSH2 0x121 SWAP2 SWAP1 PUSH2 0x164C JUMP JUMPDEST PUSH2 0x359 JUMP JUMPDEST STOP JUMPDEST PUSH2 0x130 PUSH2 0x466 JUMP JUMPDEST PUSH1 0x40 MLOAD PUSH2 0x13D SWAP2 SWAP1 PUSH2 0x134F JUMP JUMPDEST PUSH1 0x40 MLOAD DUP1 SWAP2 SUB SWAP1 RETURN JUMPDEST PUSH2 0x160 PUSH1 0x4 DUP1 CALLDATASIZE SUB DUP2 ADD SWAP1 PUSH2 0x15B SWAP2 SWAP1 PUSH2 0x16A5 JUMP JUMPDEST PUSH2 0x48C JUMP JUMPDEST STOP JUMPDEST PUSH2 0x17C PUSH1 0x4 DUP1 CALLDATASIZE SUB DUP2 ADD SWAP1 PUSH2 0x177 SWAP2 SWAP1 PUSH2 0x1701 JUMP JUMPDEST PUSH2 0x59F JUMP JUMPDEST STOP JUMPDEST PUSH2 0x186 PUSH2 0x92C JUMP JUMPDEST PUSH1 0x40 MLOAD PUSH2 0x193 SWAP2 SWAP1 PUSH2 0x134F JUMP JUMPDEST PUSH1 0x40 MLOAD DUP1 SWAP2 SUB SWAP1 RETURN JUMPDEST PUSH2 0x1A4 PUSH2 0x952 JUMP JUMPDEST PUSH1 0x40 MLOAD PUSH2 0x1B1 SWAP2 SWAP1 PUSH2 0x134F JUMP JUMPDEST PUSH1 0x40 MLOAD DUP1 SWAP2 SUB SWAP1 RETURN JUMPDEST PUSH2 0x1D4 PUSH1 0x4 DUP1 CALLDATASIZE SUB DUP2 ADD SWAP1 PUSH2 0x1CF SWAP2 SWAP1 PUSH2 0x16A5 JUMP JUMPDEST PUSH2 0x978 JUMP JUMPDEST STOP JUMPDEST PUSH2 0x1F0 PUSH1 0x4 DUP1 CALLDATASIZE SUB DUP2 ADD SWAP1 PUSH2 0x1EB SWAP2 SWAP1 PUSH2 0x1770 JUMP JUMPDEST PUSH2 0xD00 JUMP JUMPDEST STOP JUMPDEST PUSH2 0x20C PUSH1 0x4 DUP1 CALLDATASIZE SUB DUP2 ADD SWAP1 PUSH2 0x207 SWAP2 SWAP1 PUSH2 0x17DF JUMP JUMPDEST PUSH2 0x10D4 JUMP JUMPDEST STOP JUMPDEST PUSH2 0x216 PUSH2 0x119F JUMP JUMPDEST PUSH1 0x40 MLOAD PUSH2 0x223 SWAP2 SWAP1 PUSH2 0x19DB JUMP JUMPDEST PUSH1 0x40 MLOAD DUP1 SWAP2 SUB SWAP1 RETURN JUMPDEST PUSH1 0x2 PUSH1 0x0 SWAP1 SLOAD SWAP1 PUSH2 0x100 EXP SWAP1 DIV PUSH20 0xFFFFFFFFFFFFFFFFFFFFFFFFFFFFFFFFFFFFFFFF AND DUP2 JUMP JUMPDEST PUSH1 0x0 PUSH1 0x20 MSTORE DUP2 PUSH1 0x0 MSTORE PUSH1 0x40 PUSH1 0x0 KECCAK256 DUP2 DUP1 MLOAD PUSH1 0x20 DUP2 ADD DUP3 ADD DUP1 MLOAD DUP5 DUP3 MSTORE PUSH1 0x20 DUP4 ADD PUSH1 0x20 DUP6 ADD KECCAK256 DUP2 DUP4 MSTORE DUP1 SWAP6 POP POP POP POP POP POP PUSH1 0x0 SWAP2 POP SWAP2 POP POP DUP1 PUSH1 0x0 ADD DUP1 SLOAD PUSH2 0x298 SWAP1 PUSH2 0x1A2C JUMP JUMPDEST DUP1 PUSH1 0x1F ADD PUSH1 0x20 DUP1 SWAP2 DIV MUL PUSH1 0x20 ADD PUSH1 0x40 MLOAD SWAP1 DUP2 ADD PUSH1 0x40 MSTORE DUP1 SWAP3 SWAP2 SWAP1 DUP2 DUP2 MSTORE PUSH1 0x20 ADD DUP3 DUP1 SLOAD PUSH2 0x2C4 SWAP1 PUSH2 0x1A2C JUMP JUMPDEST DUP1 ISZERO PUSH2 0x311 JUMPI DUP1 PUSH1 0x1F LT PUSH2 0x2E6 JUMPI PUSH2 0x100 DUP1 DUP4 SLOAD DIV MUL DUP4 MSTORE SWAP2 PUSH1 0x20 ADD SWAP2 PUSH2 0x311 JUMP JUMPDEST DUP3 ADD SWAP2 SWAP1 PUSH1 0x0 MSTORE PUSH1 0x20 PUSH1 0x0 KECCAK256 SWAP1 JUMPDEST DUP2 SLOAD DUP2 MSTORE SWAP1 PUSH1 0x1 ADD SWAP1 PUSH1 0x20 ADD DUP1 DUP4 GT PUSH2 0x2F4 JUMPI DUP3 SWAP1 SUB PUSH1 0x1F AND DUP3 ADD SWAP2 JUMPDEST POP POP POP POP POP SWAP1 DUP1 PUSH1 0x1 ADD PUSH1 0x0 SWAP1 SLOAD SWAP1 PUSH2 0x100 EXP SWAP1 DIV PUSH20 0xFFFFFFFFFFFFFFFFFFFFFFFFFFFFFFFFFFFFFFFF AND SWAP1 DUP1 PUSH1 0x2 ADD SLOAD SWAP1 DUP1 PUSH1 0x3 ADD SLOAD SWAP1 DUP1 PUSH1 0x4 ADD SLOAD SWAP1 DUP1 PUSH1 0x5 ADD SLOAD SWAP1 POP DUP7 JUMP JUMPDEST PUSH1 0x1 PUSH1 0x0 SWAP1 SLOAD SWAP1 PUSH2 0x100 EXP SWAP1 DIV PUSH20 0xFFFFFFFFFFFFFFFFFFFFFFFFFFFFFFFFFFFFFFFF AND PUSH20 0xFFFFFFFFFFFFFFFFFFFFFFFFFFFFFFFFFFFFFFFF AND CALLER PUSH20 0xFFFFFFFFFFFFFFFFFFFFFFFFFFFFFFFFFFFFFFFF AND EQ PUSH2 0x3E9 JUMPI PUSH1 0x40 MLOAD PUSH32 0x8C379A000000000000000000000000000000000000000000000000000000000 DUP2 MSTORE PUSH1 0x4 ADD PUSH2 0x3E0 SWAP1 PUSH2 0x1AA9 JUMP JUMPDEST PUSH1 0x40 MLOAD DUP1 SWAP2 SUB SWAP1 REVERT JUMPDEST PUSH1 0x0 PUSH20 0xFFFFFFFFFFFFFFFFFFFFFFFFFFFFFFFFFFFFFFFF AND DUP2 PUSH20 0xFFFFFFFFFFFFFFFFFFFFFFFFFFFFFFFFFFFFFFFF AND SUB PUSH2 0x422 JUMPI PUSH1 0x0 DUP1 REVERT JUMPDEST DUP1 PUSH1 0x4 PUSH1 0x0 PUSH2 0x100 EXP DUP2 SLOAD DUP2 PUSH20 0xFFFFFFFFFFFFFFFFFFFFFFFFFFFFFFFFFFFFFFFF MUL NOT AND SWAP1 DUP4 PUSH20 0xFFFFFFFFFFFFFFFFFFFFFFFFFFFFFFFFFFFFFFFF AND MUL OR SWAP1 SSTORE POP POP JUMP JUMPDEST PUSH1 0x3 PUSH1 0x0 SWAP1 SLOAD SWAP1 PUSH2 0x100 EXP SWAP1 DIV PUSH20 0xFFFFFFFFFFFFFFFFFFFFFFFFFFFFFFFFFFFFFFFF AND DUP2 JUMP JUMPDEST PUSH1 0x0 DUP2 GT PUSH2 0x4CF JUMPI PUSH1 0x40 MLOAD PUSH32 0x8C379A000000000000000000000000000000000000000000000000000000000 DUP2 MSTORE PUSH1 0x4 ADD PUSH2 0x4C6 SWAP1 PUSH2 0x1B15 JUMP JUMPDEST PUSH1 0x40 MLOAD DUP1 SWAP2 SUB SWAP1 REVERT JUMPDEST PUSH1 0x4 PUSH1 0x0 SWAP1 SLOAD SWAP1 PUSH2 0x100 EXP SWAP1 DIV PUSH20 0xFFFFFFFFFFFFFFFFFFFFFFFFFFFFFFFFFFFFFFFF AND PUSH20 0xFFFFFFFFFFFFFFFFFFFFFFFFFFFFFFFFFFFFFFFF AND PUSH4 0xA33F7DA0 DUP4 CALLER DUP5 PUSH1 0x40 MLOAD DUP5 PUSH4 0xFFFFFFFF AND PUSH1 0xE0 SHL DUP2 MSTORE PUSH1 0x4 ADD PUSH2 0x52E SWAP4 SWAP3 SWAP2 SWAP1 PUSH2 0x1B35 JUMP JUMPDEST PUSH1 0x0 PUSH1 0x40 MLOAD DUP1 DUP4 SUB DUP2 PUSH1 0x0 DUP8 DUP1 EXTCODESIZE ISZERO DUP1 ISZERO PUSH2 0x548 JUMPI PUSH1 0x0 DUP1 REVERT JUMPDEST POP GAS CALL ISZERO DUP1 ISZERO PUSH2 0x55C JUMPI RETURNDATASIZE PUSH1 0x0 DUP1 RETURNDATACOPY RETURNDATASIZE PUSH1 0x0 REVERT JUMPDEST POP POP POP POP PUSH32 0x6A1D07EA5E6FF75E796159AD10CD2C8CFF5620BE1D029D17C1C910C607C4999B DUP3 CALLER DUP4 PUSH1 0x40 MLOAD PUSH2 0x593 SWAP4 SWAP3 SWAP2 SWAP1 PUSH2 0x1B35 JUMP JUMPDEST PUSH1 0x40 MLOAD DUP1 SWAP2 SUB SWAP1 LOG1 POP POP JUMP JUMPDEST PUSH1 0x0 PUSH1 0x2 PUSH1 0x0 SWAP1 SLOAD SWAP1 PUSH2 0x100 EXP SWAP1 DIV PUSH20 0xFFFFFFFFFFFFFFFFFFFFFFFFFFFFFFFFFFFFFFFF AND PUSH20 0xFFFFFFFFFFFFFFFFFFFFFFFFFFFFFFFFFFFFFFFF AND PUSH4 0x2F667910 DUP6 PUSH1 0x40 MLOAD DUP3 PUSH4 0xFFFFFFFF AND PUSH1 0xE0 SHL DUP2 MSTORE PUSH1 0x4 ADD PUSH2 0x5FC SWAP2 SWAP1 PUSH2 0x1B73 JUMP JUMPDEST PUSH1 0x20 PUSH1 0x40 MLOAD DUP1 DUP4 SUB DUP2 DUP7 GAS STATICCALL ISZERO DUP1 ISZERO PUSH2 0x619 JUMPI RETURNDATASIZE PUSH1 0x0 DUP1 RETURNDATACOPY RETURNDATASIZE PUSH1 0x0 REVERT JUMPDEST POP POP POP POP PUSH1 0x40 MLOAD RETURNDATASIZE PUSH1 0x1F NOT PUSH1 0x1F DUP3 ADD AND DUP3 ADD DUP1 PUSH1 0x40 MSTORE POP DUP2 ADD SWAP1 PUSH2 0x63D SWAP2 SWAP1 PUSH2 0x1BAA JUMP JUMPDEST SWAP1 POP PUSH1 0x0 PUSH1 0x3 PUSH1 0x0 SWAP1 SLOAD SWAP1 PUSH2 0x100 EXP SWAP1 DIV PUSH20 0xFFFFFFFFFFFFFFFFFFFFFFFFFFFFFFFFFFFFFFFF AND PUSH20 0xFFFFFFFFFFFFFFFFFFFFFFFFFFFFFFFFFFFFFFFF AND PUSH4 0x927DA105 CALLER ADDRESS DUP6 PUSH1 0x40 MLOAD DUP5 PUSH4 0xFFFFFFFF AND PUSH1 0xE0 SHL DUP2 MSTORE PUSH1 0x4 ADD PUSH2 0x6A0 SWAP4 SWAP3 SWAP2 SWAP1 PUSH2 0x1BD7 JUMP JUMPDEST PUSH1 0x20 PUSH1 0x40 MLOAD DUP1 DUP4 SUB DUP2 DUP7 GAS STATICCALL ISZERO DUP1 ISZERO PUSH2 0x6BD JUMPI RETURNDATASIZE PUSH1 0x0 DUP1 RETURNDATACOPY RETURNDATASIZE PUSH1 0x0 REVERT JUMPDEST POP POP POP POP PUSH1 0x40 MLOAD RETURNDATASIZE PUSH1 0x1F NOT PUSH1 0x1F DUP3 ADD AND DUP3 ADD DUP1 PUSH1 0x40 MSTORE POP DUP2 ADD SWAP1 PUSH2 0x6E1 SWAP2 SWAP1 PUSH2 0x1C23 JUMP JUMPDEST SWAP1 POP DUP1 DUP5 GT ISZERO PUSH2 0x726 JUMPI PUSH1 0x40 MLOAD PUSH32 0x8C379A000000000000000000000000000000000000000000000000000000000 DUP2 MSTORE PUSH1 0x4 ADD PUSH2 0x71D SWAP1 PUSH2 0x1C9C JUMP JUMPDEST PUSH1 0x40 MLOAD DUP1 SWAP2 SUB SWAP1 REVERT JUMPDEST PUSH1 0x0 DUP5 GT PUSH2 0x769 JUMPI PUSH1 0x40 MLOAD PUSH32 0x8C379A000000000000000000000000000000000000000000000000000000000 DUP2 MSTORE PUSH1 0x4 ADD PUSH2 0x760 SWAP1 PUSH2 0x1B15 JUMP JUMPDEST PUSH1 0x40 MLOAD DUP1 SWAP2 SUB SWAP1 REVERT JUMPDEST PUSH1 0x4 PUSH1 0x0 SWAP1 SLOAD SWAP1 PUSH2 0x100 EXP SWAP1 DIV PUSH20 0xFFFFFFFFFFFFFFFFFFFFFFFFFFFFFFFFFFFFFFFF AND PUSH20 0xFFFFFFFFFFFFFFFFFFFFFFFFFFFFFFFFFFFFFFFF AND PUSH4 0x5B91E752 CALLER DUP8 DUP8 DUP8 PUSH1 0x40 MLOAD DUP6 PUSH4 0xFFFFFFFF AND PUSH1 0xE0 SHL DUP2 MSTORE PUSH1 0x4 ADD PUSH2 0x7CA SWAP5 SWAP4 SWAP3 SWAP2 SWAP1 PUSH2 0x1CBC JUMP JUMPDEST PUSH1 0x0 PUSH1 0x40 MLOAD DUP1 DUP4 SUB DUP2 PUSH1 0x0 DUP8 DUP1 EXTCODESIZE ISZERO DUP1 ISZERO PUSH2 0x7E4 JUMPI PUSH1 0x0 DUP1 REVERT JUMPDEST POP GAS CALL ISZERO DUP1 ISZERO PUSH2 0x7F8 JUMPI RETURNDATASIZE PUSH1 0x0 DUP1 RETURNDATACOPY RETURNDATASIZE PUSH1 0x0 REVERT JUMPDEST POP POP POP POP PUSH1 0x3 PUSH1 0x0 SWAP1 SLOAD SWAP1 PUSH2 0x100 EXP SWAP1 DIV PUSH20 0xFFFFFFFFFFFFFFFFFFFFFFFFFFFFFFFFFFFFFFFF AND PUSH20 0xFFFFFFFFFFFFFFFFFFFFFFFFFFFFFFFFFFFFFFFF AND PUSH4 0xB2A7BD19 CALLER PUSH1 0x4 PUSH1 0x0 SWAP1 SLOAD SWAP1 PUSH2 0x100 EXP SWAP1 DIV PUSH20 0xFFFFFFFFFFFFFFFFFFFFFFFFFFFFFFFFFFFFFFFF AND DUP8 PUSH1 0x40 MLOAD DUP1 PUSH1 0x40 ADD PUSH1 0x40 MSTORE DUP1 PUSH1 0x3 DUP2 MSTORE PUSH1 0x20 ADD PUSH32 0x3078300000000000000000000000000000000000000000000000000000000000 DUP2 MSTORE POP DUP8 PUSH1 0x40 MLOAD DUP7 PUSH4 0xFFFFFFFF AND PUSH1 0xE0 SHL DUP2 MSTORE PUSH1 0x4 ADD PUSH2 0x8B6 SWAP6 SWAP5 SWAP4 SWAP3 SWAP2 SWAP1 PUSH2 0x1D5D JUMP JUMPDEST PUSH1 0x0 PUSH1 0x40 MLOAD DUP1 DUP4 SUB DUP2 PUSH1 0x0 DUP8 DUP1 EXTCODESIZE ISZERO DUP1 ISZERO PUSH2 0x8D0 JUMPI PUSH1 0x0 DUP1 REVERT JUMPDEST POP GAS CALL ISZERO DUP1 ISZERO PUSH2 0x8E4 JUMPI RETURNDATASIZE PUSH1 0x0 DUP1 RETURNDATACOPY RETURNDATASIZE PUSH1 0x0 REVERT JUMPDEST POP POP POP POP PUSH32 0xE6CEC3038E34F0EA6F50ABFFCC0F879C25F6A9983D5E7F3C35673CAC0C5708F0 DUP6 CALLER DUP7 DUP7 PUSH1 0x40 MLOAD PUSH2 0x91D SWAP5 SWAP4 SWAP3 SWAP2 SWAP1 PUSH2 0x1DB7 JUMP JUMPDEST PUSH1 0x40 MLOAD DUP1 SWAP2 SUB SWAP1 LOG1 POP POP POP POP POP JUMP JUMPDEST PUSH1 0x1 PUSH1 0x0 SWAP1 SLOAD SWAP1 PUSH2 0x100 EXP SWAP1 DIV PUSH20 0xFFFFFFFFFFFFFFFFFFFFFFFFFFFFFFFFFFFFFFFF AND DUP2 JUMP JUMPDEST PUSH1 0x4 PUSH1 0x0 SWAP1 SLOAD SWAP1 PUSH2 0x100 EXP SWAP1 DIV PUSH20 0xFFFFFFFFFFFFFFFFFFFFFFFFFFFFFFFFFFFFFFFF AND DUP2 JUMP JUMPDEST PUSH1 0x0 PUSH1 0x2 PUSH1 0x0 SWAP1 SLOAD SWAP1 PUSH2 0x100 EXP SWAP1 DIV PUSH20 0xFFFFFFFFFFFFFFFFFFFFFFFFFFFFFFFFFFFFFFFF AND PUSH20 0xFFFFFFFFFFFFFFFFFFFFFFFFFFFFFFFFFFFFFFFF AND PUSH4 0x2F667910 DUP5 PUSH1 0x40 MLOAD DUP3 PUSH4 0xFFFFFFFF AND PUSH1 0xE0 SHL DUP2 MSTORE PUSH1 0x4 ADD PUSH2 0x9D5 SWAP2 SWAP1 PUSH2 0x1B73 JUMP JUMPDEST PUSH1 0x20 PUSH1 0x40 MLOAD DUP1 DUP4 SUB DUP2 DUP7 GAS STATICCALL ISZERO DUP1 ISZERO PUSH2 0x9F2 JUMPI RETURNDATASIZE PUSH1 0x0 DUP1 RETURNDATACOPY RETURNDATASIZE PUSH1 0x0 REVERT JUMPDEST POP POP POP POP PUSH1 0x40 MLOAD RETURNDATASIZE PUSH1 0x1F NOT PUSH1 0x1F DUP3 ADD AND DUP3 ADD DUP1 PUSH1 0x40 MSTORE POP DUP2 ADD SWAP1 PUSH2 0xA16 SWAP2 SWAP1 PUSH2 0x1BAA JUMP JUMPDEST SWAP1 POP PUSH1 0x0 DUP3 GT PUSH2 0xA5B JUMPI PUSH1 0x40 MLOAD PUSH32 0x8C379A000000000000000000000000000000000000000000000000000000000 DUP2 MSTORE PUSH1 0x4 ADD PUSH2 0xA52 SWAP1 PUSH2 0x1B15 JUMP JUMPDEST PUSH1 0x40 MLOAD DUP1 SWAP2 SUB SWAP1 REVERT JUMPDEST PUSH1 0x4 PUSH1 0x0 SWAP1 SLOAD SWAP1 PUSH2 0x100 EXP SWAP1 DIV PUSH20 0xFFFFFFFFFFFFFFFFFFFFFFFFFFFFFFFFFFFFFFFF AND PUSH20 0xFFFFFFFFFFFFFFFFFFFFFFFFFFFFFFFFFFFFFFFF AND PUSH4 0x995AE7D0 DUP5 CALLER DUP6 PUSH1 0x40 MLOAD DUP5 PUSH4 0xFFFFFFFF AND PUSH1 0xE0 SHL DUP2 MSTORE PUSH1 0x4 ADD PUSH2 0xABA SWAP4 SWAP3 SWAP2 SWAP1 PUSH2 0x1B35 JUMP JUMPDEST PUSH1 0x0 PUSH1 0x40 MLOAD DUP1 DUP4 SUB DUP2 PUSH1 0x0 DUP8 DUP1 EXTCODESIZE ISZERO DUP1 ISZERO PUSH2 0xAD4 JUMPI PUSH1 0x0 DUP1 REVERT JUMPDEST POP GAS CALL ISZERO DUP1 ISZERO PUSH2 0xAE8 JUMPI RETURNDATASIZE PUSH1 0x0 DUP1 RETURNDATACOPY RETURNDATASIZE PUSH1 0x0 REVERT JUMPDEST POP POP POP POP PUSH1 0x0 PUSH1 0x3 PUSH1 0x0 SWAP1 SLOAD SWAP1 PUSH2 0x100 EXP SWAP1 DIV PUSH20 0xFFFFFFFFFFFFFFFFFFFFFFFFFFFFFFFFFFFFFFFF AND PUSH20 0xFFFFFFFFFFFFFFFFFFFFFFFFFFFFFFFFFFFFFFFF AND PUSH4 0x927DA105 CALLER ADDRESS DUP6 PUSH1 0x40 MLOAD DUP5 PUSH4 0xFFFFFFFF AND PUSH1 0xE0 SHL DUP2 MSTORE PUSH1 0x4 ADD PUSH2 0xB4D SWAP4 SWAP3 SWAP2 SWAP1 PUSH2 0x1BD7 JUMP JUMPDEST PUSH1 0x20 PUSH1 0x40 MLOAD DUP1 DUP4 SUB DUP2 DUP7 GAS STATICCALL ISZERO DUP1 ISZERO PUSH2 0xB6A JUMPI RETURNDATASIZE PUSH1 0x0 DUP1 RETURNDATACOPY RETURNDATASIZE PUSH1 0x0 REVERT JUMPDEST POP POP POP POP PUSH1 0x40 MLOAD RETURNDATASIZE PUSH1 0x1F NOT PUSH1 0x1F DUP3 ADD AND DUP3 ADD DUP1 PUSH1 0x40 MSTORE POP DUP2 ADD SWAP1 PUSH2 0xB8E SWAP2 SWAP1 PUSH2 0x1C23 JUMP JUMPDEST SWAP1 POP DUP1 DUP4 GT ISZERO PUSH2 0xBD3 JUMPI PUSH1 0x40 MLOAD PUSH32 0x8C379A000000000000000000000000000000000000000000000000000000000 DUP2 MSTORE PUSH1 0x4 ADD PUSH2 0xBCA SWAP1 PUSH2 0x1C9C JUMP JUMPDEST PUSH1 0x40 MLOAD DUP1 SWAP2 SUB SWAP1 REVERT JUMPDEST PUSH1 0x3 PUSH1 0x0 SWAP1 SLOAD SWAP1 PUSH2 0x100 EXP SWAP1 DIV PUSH20 0xFFFFFFFFFFFFFFFFFFFFFFFFFFFFFFFFFFFFFFFF AND PUSH20 0xFFFFFFFFFFFFFFFFFFFFFFFFFFFFFFFFFFFFFFFF AND PUSH4 0xB2A7BD19 CALLER PUSH1 0x4 PUSH1 0x0 SWAP1 SLOAD SWAP1 PUSH2 0x100 EXP SWAP1 DIV PUSH20 0xFFFFFFFFFFFFFFFFFFFFFFFFFFFFFFFFFFFFFFFF AND DUP7 PUSH1 0x40 MLOAD DUP1 PUSH1 0x40 ADD PUSH1 0x40 MSTORE DUP1 PUSH1 0x3 DUP2 MSTORE PUSH1 0x20 ADD PUSH32 0x3078300000000000000000000000000000000000000000000000000000000000 DUP2 MSTORE POP DUP8 PUSH1 0x40 MLOAD DUP7 PUSH4 0xFFFFFFFF AND PUSH1 0xE0 SHL DUP2 MSTORE PUSH1 0x4 ADD PUSH2 0xC8D SWAP6 SWAP5 SWAP4 SWAP3 SWAP2 SWAP1 PUSH2 0x1D5D JUMP JUMPDEST PUSH1 0x0 PUSH1 0x40 MLOAD DUP1 DUP4 SUB DUP2 PUSH1 0x0 DUP8 DUP1 EXTCODESIZE ISZERO DUP1 ISZERO PUSH2 0xCA7 JUMPI PUSH1 0x0 DUP1 REVERT JUMPDEST POP GAS CALL ISZERO DUP1 ISZERO PUSH2 0xCBB JUMPI RETURNDATASIZE PUSH1 0x0 DUP1 RETURNDATACOPY RETURNDATASIZE PUSH1 0x0 REVERT JUMPDEST POP POP POP POP PUSH32 0x1B98D975DD919D26350A21845E2AC202F276EDC4DABD039C8BF8FDFDC1259221 DUP5 CALLER DUP6 PUSH1 0x40 MLOAD PUSH2 0xCF2 SWAP4 SWAP3 SWAP2 SWAP1 PUSH2 0x1B35 JUMP JUMPDEST PUSH1 0x40 MLOAD DUP1 SWAP2 SUB SWAP1 LOG1 POP POP POP POP JUMP JUMPDEST PUSH1 0x0 PUSH1 0x2 PUSH1 0x0 SWAP1 SLOAD SWAP1 PUSH2 0x100 EXP SWAP1 DIV PUSH20 0xFFFFFFFFFFFFFFFFFFFFFFFFFFFFFFFFFFFFFFFF AND PUSH20 0xFFFFFFFFFFFFFFFFFFFFFFFFFFFFFFFFFFFFFFFF AND PUSH4 0x2F667910 DUP6 PUSH1 0x40 MLOAD DUP3 PUSH4 0xFFFFFFFF AND PUSH1 0xE0 SHL DUP2 MSTORE PUSH1 0x4 ADD PUSH2 0xD5D SWAP2 SWAP1 PUSH2 0x1B73 JUMP JUMPDEST PUSH1 0x20 PUSH1 0x40 MLOAD DUP1 DUP4 SUB DUP2 DUP7 GAS STATICCALL ISZERO DUP1 ISZERO PUSH2 0xD7A JUMPI RETURNDATASIZE PUSH1 0x0 DUP1 RETURNDATACOPY RETURNDATASIZE PUSH1 0x0 REVERT JUMPDEST POP POP POP POP PUSH1 0x40 MLOAD RETURNDATASIZE PUSH1 0x1F NOT PUSH1 0x1F DUP3 ADD AND DUP3 ADD DUP1 PUSH1 0x40 MSTORE POP DUP2 ADD SWAP1 PUSH2 0xD9E SWAP2 SWAP1 PUSH2 0x1BAA JUMP JUMPDEST SWAP1 POP PUSH1 0x0 PUSH1 0x3 PUSH1 0x0 SWAP1 SLOAD SWAP1 PUSH2 0x100 EXP SWAP1 DIV PUSH20 0xFFFFFFFFFFFFFFFFFFFFFFFFFFFFFFFFFFFFFFFF AND PUSH20 0xFFFFFFFFFFFFFFFFFFFFFFFFFFFFFFFFFFFFFFFF AND PUSH4 0x19EBF028 DUP4 PUSH1 0x40 MLOAD DUP3 PUSH4 0xFFFFFFFF AND PUSH1 0xE0 SHL DUP2 MSTORE PUSH1 0x4 ADD PUSH2 0xDFD SWAP2 SWAP1 PUSH2 0x134F JUMP JUMPDEST PUSH1 0x20 PUSH1 0x40 MLOAD DUP1 DUP4 SUB DUP2 DUP7 GAS STATICCALL ISZERO DUP1 ISZERO PUSH2 0xE1A JUMPI RETURNDATASIZE PUSH1 0x0 DUP1 RETURNDATACOPY RETURNDATASIZE PUSH1 0x0 REVERT JUMPDEST POP POP POP POP PUSH1 0x40 MLOAD RETURNDATASIZE PUSH1 0x1F NOT PUSH1 0x1F DUP3 ADD AND DUP3 ADD DUP1 PUSH1 0x40 MSTORE POP DUP2 ADD SWAP1 PUSH2 0xE3E SWAP2 SWAP1 PUSH2 0x1BAA JUMP JUMPDEST SWAP1 POP PUSH1 0x0 DUP1 PUSH1 0x0 DUP7 PUSH20 0xFFFFFFFFFFFFFFFFFFFFFFFFFFFFFFFFFFFFFFFF AND PUSH20 0xFFFFFFFFFFFFFFFFFFFFFFFFFFFFFFFFFFFFFFFF AND DUP2 MSTORE PUSH1 0x20 ADD SWAP1 DUP2 MSTORE PUSH1 0x20 ADD PUSH1 0x0 KECCAK256 DUP7 PUSH1 0x40 MLOAD PUSH2 0xE8E SWAP2 SWAP1 PUSH2 0x1E3F JUMP JUMPDEST SWAP1 DUP2 MSTORE PUSH1 0x20 ADD PUSH1 0x40 MLOAD DUP1 SWAP2 SUB SWAP1 KECCAK256 PUSH1 0x3 ADD SLOAD SWAP1 POP PUSH1 0x0 PUSH8 0xDE0B6B3A7640000 DUP3 PUSH2 0xEB8 SWAP2 SWAP1 PUSH2 0x1E85 JUMP JUMPDEST SWAP1 POP PUSH1 0x0 DUP4 PUSH20 0xFFFFFFFFFFFFFFFFFFFFFFFFFFFFFFFFFFFFFFFF AND PUSH4 0x70A08231 CALLER PUSH1 0x40 MLOAD DUP3 PUSH4 0xFFFFFFFF AND PUSH1 0xE0 SHL DUP2 MSTORE PUSH1 0x4 ADD PUSH2 0xEF5 SWAP2 SWAP1 PUSH2 0x134F JUMP JUMPDEST PUSH1 0x20 PUSH1 0x40 MLOAD DUP1 DUP4 SUB DUP2 DUP7 GAS STATICCALL ISZERO DUP1 ISZERO PUSH2 0xF12 JUMPI RETURNDATASIZE PUSH1 0x0 DUP1 RETURNDATACOPY RETURNDATASIZE PUSH1 0x0 REVERT JUMPDEST POP POP POP POP PUSH1 0x40 MLOAD RETURNDATASIZE PUSH1 0x1F NOT PUSH1 0x1F DUP3 ADD AND DUP3 ADD DUP1 PUSH1 0x40 MSTORE POP DUP2 ADD SWAP1 PUSH2 0xF36 SWAP2 SWAP1 PUSH2 0x1C23 JUMP JUMPDEST SWAP1 POP DUP2 DUP2 LT ISZERO PUSH2 0xF7B JUMPI PUSH1 0x40 MLOAD PUSH32 0x8C379A000000000000000000000000000000000000000000000000000000000 DUP2 MSTORE PUSH1 0x4 ADD PUSH2 0xF72 SWAP1 PUSH2 0x1F13 JUMP JUMPDEST PUSH1 0x40 MLOAD DUP1 SWAP2 SUB SWAP1 REVERT JUMPDEST PUSH1 0x4 PUSH1 0x0 SWAP1 SLOAD SWAP1 PUSH2 0x100 EXP SWAP1 DIV PUSH20 0xFFFFFFFFFFFFFFFFFFFFFFFFFFFFFFFFFFFFFFFF AND PUSH20 0xFFFFFFFFFFFFFFFFFFFFFFFFFFFFFFFFFFFFFFFF AND PUSH4 0xD32E0F27 DUP10 DUP10 CALLER DUP11 PUSH1 0x40 MLOAD DUP6 PUSH4 0xFFFFFFFF AND PUSH1 0xE0 SHL DUP2 MSTORE PUSH1 0x4 ADD PUSH2 0xFDC SWAP5 SWAP4 SWAP3 SWAP2 SWAP1 PUSH2 0x1F33 JUMP JUMPDEST PUSH1 0x0 PUSH1 0x40 MLOAD DUP1 DUP4 SUB DUP2 PUSH1 0x0 DUP8 DUP1 EXTCODESIZE ISZERO DUP1 ISZERO PUSH2 0xFF6 JUMPI PUSH1 0x0 DUP1 REVERT JUMPDEST POP GAS CALL ISZERO DUP1 ISZERO PUSH2 0x100A JUMPI RETURNDATASIZE PUSH1 0x0 DUP1 RETURNDATACOPY RETURNDATASIZE PUSH1 0x0 REVERT JUMPDEST POP POP POP POP DUP4 PUSH20 0xFFFFFFFFFFFFFFFFFFFFFFFFFFFFFFFFFFFFFFFF AND PUSH4 0xA9059CBB DUP9 DUP5 PUSH1 0x40 MLOAD DUP4 PUSH4 0xFFFFFFFF AND PUSH1 0xE0 SHL DUP2 MSTORE PUSH1 0x4 ADD PUSH2 0x1049 SWAP3 SWAP2 SWAP1 PUSH2 0x1F7F JUMP JUMPDEST PUSH1 0x20 PUSH1 0x40 MLOAD DUP1 DUP4 SUB DUP2 PUSH1 0x0 DUP8 GAS CALL ISZERO DUP1 ISZERO PUSH2 0x1068 JUMPI RETURNDATASIZE PUSH1 0x0 DUP1 RETURNDATACOPY RETURNDATASIZE PUSH1 0x0 REVERT JUMPDEST POP POP POP POP PUSH1 0x40 MLOAD RETURNDATASIZE PUSH1 0x1F NOT PUSH1 0x1F DUP3 ADD AND DUP3 ADD DUP1 PUSH1 0x40 MSTORE POP DUP2 ADD SWAP1 PUSH2 0x108C SWAP2 SWAP1 PUSH2 0x1FE0 JUMP JUMPDEST POP PUSH32 0x820BF2AE1F4BCD166E4ADB6E32D112EF2164E186E503A62EBA485748D1C72EA1 DUP9 DUP9 CALLER DUP10 PUSH1 0x40 MLOAD PUSH2 0x10C2 SWAP5 SWAP4 SWAP3 SWAP2 SWAP1 PUSH2 0x1F33 JUMP JUMPDEST PUSH1 0x40 MLOAD DUP1 SWAP2 SUB SWAP1 LOG1 POP POP POP POP POP POP POP POP JUMP JUMPDEST PUSH1 0x4 PUSH1 0x0 SWAP1 SLOAD SWAP1 PUSH2 0x100 EXP SWAP1 DIV PUSH20 0xFFFFFFFFFFFFFFFFFFFFFFFFFFFFFFFFFFFFFFFF AND PUSH20 0xFFFFFFFFFFFFFFFFFFFFFFFFFFFFFFFFFFFFFFFF AND PUSH4 0x2CC9143F DUP3 CALLER PUSH1 0x40 MLOAD DUP4 PUSH4 0xFFFFFFFF AND PUSH1 0xE0 SHL DUP2 MSTORE PUSH1 0x4 ADD PUSH2 0x1131 SWAP3 SWAP2 SWAP1 PUSH2 0x200D JUMP JUMPDEST PUSH1 0x0 PUSH1 0x40 MLOAD DUP1 DUP4 SUB DUP2 PUSH1 0x0 DUP8 DUP1 EXTCODESIZE ISZERO DUP1 ISZERO PUSH2 0x114B JUMPI PUSH1 0x0 DUP1 REVERT JUMPDEST POP GAS CALL ISZERO DUP1 ISZERO PUSH2 0x115F JUMPI RETURNDATASIZE PUSH1 0x0 DUP1 RETURNDATACOPY RETURNDATASIZE PUSH1 0x0 REVERT JUMPDEST POP POP POP POP PUSH32 0xA7236108B1B13656F4C805E22E6EC64D5570479FFACE325DCF755E3E984E80E8 DUP2 CALLER PUSH1 0x40 MLOAD PUSH2 0x1194 SWAP3 SWAP2 SWAP1 PUSH2 0x200D JUMP JUMPDEST PUSH1 0x40 MLOAD DUP1 SWAP2 SUB SWAP1 LOG1 POP JUMP JUMPDEST PUSH1 0x60 PUSH1 0x5 DUP1 SLOAD DUP1 PUSH1 0x20 MUL PUSH1 0x20 ADD PUSH1 0x40 MLOAD SWAP1 DUP2 ADD PUSH1 0x40 MSTORE DUP1 SWAP3 SWAP2 SWAP1 DUP2 DUP2 MSTORE PUSH1 0x20 ADD PUSH1 0x0 SWAP1 JUMPDEST DUP3 DUP3 LT ISZERO PUSH2 0x1305 JUMPI DUP4 DUP3 SWAP1 PUSH1 0x0 MSTORE PUSH1 0x20 PUSH1 0x0 KECCAK256 SWAP1 PUSH1 0x6 MUL ADD PUSH1 0x40 MLOAD DUP1 PUSH1 0xC0 ADD PUSH1 0x40 MSTORE SWAP1 DUP2 PUSH1 0x0 DUP3 ADD DUP1 SLOAD PUSH2 0x11F6 SWAP1 PUSH2 0x1A2C JUMP JUMPDEST DUP1 PUSH1 0x1F ADD PUSH1 0x20 DUP1 SWAP2 DIV MUL PUSH1 0x20 ADD PUSH1 0x40 MLOAD SWAP1 DUP2 ADD PUSH1 0x40 MSTORE DUP1 SWAP3 SWAP2 SWAP1 DUP2 DUP2 MSTORE PUSH1 0x20 ADD DUP3 DUP1 SLOAD PUSH2 0x1222 SWAP1 PUSH2 0x1A2C JUMP JUMPDEST DUP1 ISZERO PUSH2 0x126F JUMPI DUP1 PUSH1 0x1F LT PUSH2 0x1244 JUMPI PUSH2 0x100 DUP1 DUP4 SLOAD DIV MUL DUP4 MSTORE SWAP2 PUSH1 0x20 ADD SWAP2 PUSH2 0x126F JUMP JUMPDEST DUP3 ADD SWAP2 SWAP1 PUSH1 0x0 MSTORE PUSH1 0x20 PUSH1 0x0 KECCAK256 SWAP1 JUMPDEST DUP2 SLOAD DUP2 MSTORE SWAP1 PUSH1 0x1 ADD SWAP1 PUSH1 0x20 ADD DUP1 DUP4 GT PUSH2 0x1252 JUMPI DUP3 SWAP1 SUB PUSH1 0x1F AND DUP3 ADD SWAP2 JUMPDEST POP POP POP POP POP DUP2 MSTORE PUSH1 0x20 ADD PUSH1 0x1 DUP3 ADD PUSH1 0x0 SWAP1 SLOAD SWAP1 PUSH2 0x100 EXP SWAP1 DIV PUSH20 0xFFFFFFFFFFFFFFFFFFFFFFFFFFFFFFFFFFFFFFFF AND PUSH20 0xFFFFFFFFFFFFFFFFFFFFFFFFFFFFFFFFFFFFFFFF AND PUSH20 0xFFFFFFFFFFFFFFFFFFFFFFFFFFFFFFFFFFFFFFFF AND DUP2 MSTORE PUSH1 0x20 ADD PUSH1 0x2 DUP3 ADD SLOAD DUP2 MSTORE PUSH1 0x20 ADD PUSH1 0x3 DUP3 ADD SLOAD DUP2 MSTORE PUSH1 0x20 ADD PUSH1 0x4 DUP3 ADD SLOAD DUP2 MSTORE PUSH1 0x20 ADD PUSH1 0x5 DUP3 ADD SLOAD DUP2 MSTORE POP POP DUP2 MSTORE PUSH1 0x20 ADD SWAP1 PUSH1 0x1 ADD SWAP1 PUSH2 0x11C3 JUMP JUMPDEST POP POP POP POP SWAP1 POP SWAP1 JUMP JUMPDEST PUSH1 0x0 PUSH20 0xFFFFFFFFFFFFFFFFFFFFFFFFFFFFFFFFFFFFFFFF DUP3 AND SWAP1 POP SWAP2 SWAP1 POP JUMP JUMPDEST PUSH1 0x0 PUSH2 0x1339 DUP3 PUSH2 0x130E JUMP JUMPDEST SWAP1 POP SWAP2 SWAP1 POP JUMP JUMPDEST PUSH2 0x1349 DUP2 PUSH2 0x132E JUMP JUMPDEST DUP3 MSTORE POP POP JUMP JUMPDEST PUSH1 0x0 PUSH1 0x20 DUP3 ADD SWAP1 POP PUSH2 0x1364 PUSH1 0x0 DUP4 ADD DUP5 PUSH2 0x1340 JUMP JUMPDEST SWAP3 SWAP2 POP POP JUMP JUMPDEST PUSH1 0x0 PUSH1 0x40 MLOAD SWAP1 POP SWAP1 JUMP JUMPDEST PUSH1 0x0 DUP1 REVERT JUMPDEST PUSH1 0x0 DUP1 REVERT JUMPDEST PUSH2 0x1387 DUP2 PUSH2 0x132E JUMP JUMPDEST DUP2 EQ PUSH2 0x1392 JUMPI PUSH1 0x0 DUP1 REVERT JUMPDEST POP JUMP JUMPDEST PUSH1 0x0 DUP2 CALLDATALOAD SWAP1 POP PUSH2 0x13A4 DUP2 PUSH2 0x137E JUMP JUMPDEST SWAP3 SWAP2 POP POP JUMP JUMPDEST PUSH1 0x0 DUP1 REVERT JUMPDEST PUSH1 0x0 DUP1 REVERT JUMPDEST PUSH1 0x0 PUSH1 0x1F NOT PUSH1 0x1F DUP4 ADD AND SWAP1 POP SWAP2 SWAP1 POP JUMP JUMPDEST PUSH32 0x4E487B7100000000000000000000000000000000000000000000000000000000 PUSH1 0x0 MSTORE PUSH1 0x41 PUSH1 0x4 MSTORE PUSH1 0x24 PUSH1 0x0 REVERT JUMPDEST PUSH2 0x13FD DUP3 PUSH2 0x13B4 JUMP JUMPDEST DUP2 ADD DUP2 DUP2 LT PUSH8 0xFFFFFFFFFFFFFFFF DUP3 GT OR ISZERO PUSH2 0x141C JUMPI PUSH2 0x141B PUSH2 0x13C5 JUMP JUMPDEST JUMPDEST DUP1 PUSH1 0x40 MSTORE POP POP POP JUMP JUMPDEST PUSH1 0x0 PUSH2 0x142F PUSH2 0x136A JUMP JUMPDEST SWAP1 POP PUSH2 0x143B DUP3 DUP3 PUSH2 0x13F4 JUMP JUMPDEST SWAP2 SWAP1 POP JUMP JUMPDEST PUSH1 0x0 PUSH8 0xFFFFFFFFFFFFFFFF DUP3 GT ISZERO PUSH2 0x145B JUMPI PUSH2 0x145A PUSH2 0x13C5 JUMP JUMPDEST JUMPDEST PUSH2 0x1464 DUP3 PUSH2 0x13B4 JUMP JUMPDEST SWAP1 POP PUSH1 0x20 DUP2 ADD SWAP1 POP SWAP2 SWAP1 POP JUMP JUMPDEST DUP3 DUP2 DUP4 CALLDATACOPY PUSH1 0x0 DUP4 DUP4 ADD MSTORE POP POP POP JUMP JUMPDEST PUSH1 0x0 PUSH2 0x1493 PUSH2 0x148E DUP5 PUSH2 0x1440 JUMP JUMPDEST PUSH2 0x1425 JUMP JUMPDEST SWAP1 POP DUP3 DUP2 MSTORE PUSH1 0x20 DUP2 ADD DUP5 DUP5 DUP5 ADD GT ISZERO PUSH2 0x14AF JUMPI PUSH2 0x14AE PUSH2 0x13AF JUMP JUMPDEST JUMPDEST PUSH2 0x14BA DUP5 DUP3 DUP6 PUSH2 0x1471 JUMP JUMPDEST POP SWAP4 SWAP3 POP POP POP JUMP JUMPDEST PUSH1 0x0 DUP3 PUSH1 0x1F DUP4 ADD SLT PUSH2 0x14D7 JUMPI PUSH2 0x14D6 PUSH2 0x13AA JUMP JUMPDEST JUMPDEST DUP2 CALLDATALOAD PUSH2 0x14E7 DUP5 DUP3 PUSH1 0x20 DUP7 ADD PUSH2 0x1480 JUMP JUMPDEST SWAP2 POP POP SWAP3 SWAP2 POP POP JUMP JUMPDEST PUSH1 0x0 DUP1 PUSH1 0x40 DUP4 DUP6 SUB SLT ISZERO PUSH2 0x1507 JUMPI PUSH2 0x1506 PUSH2 0x1374 JUMP JUMPDEST JUMPDEST PUSH1 0x0 PUSH2 0x1515 DUP6 DUP3 DUP7 ADD PUSH2 0x1395 JUMP JUMPDEST SWAP3 POP POP PUSH1 0x20 DUP4 ADD CALLDATALOAD PUSH8 0xFFFFFFFFFFFFFFFF DUP2 GT ISZERO PUSH2 0x1536 JUMPI PUSH2 0x1535 PUSH2 0x1379 JUMP JUMPDEST JUMPDEST PUSH2 0x1542 DUP6 DUP3 DUP7 ADD PUSH2 0x14C2 JUMP JUMPDEST SWAP2 POP POP SWAP3 POP SWAP3 SWAP1 POP JUMP JUMPDEST PUSH1 0x0 DUP2 MLOAD SWAP1 POP SWAP2 SWAP1 POP JUMP JUMPDEST PUSH1 0x0 DUP3 DUP3 MSTORE PUSH1 0x20 DUP3 ADD SWAP1 POP SWAP3 SWAP2 POP POP JUMP JUMPDEST PUSH1 0x0 JUMPDEST DUP4 DUP2 LT ISZERO PUSH2 0x1586 JUMPI DUP1 DUP3 ADD MLOAD DUP2 DUP5 ADD MSTORE PUSH1 0x20 DUP2 ADD SWAP1 POP PUSH2 0x156B JUMP JUMPDEST PUSH1 0x0 DUP5 DUP5 ADD MSTORE POP POP POP POP JUMP JUMPDEST PUSH1 0x0 PUSH2 0x159D DUP3 PUSH2 0x154C JUMP JUMPDEST PUSH2 0x15A7 DUP2 DUP6 PUSH2 0x1557 JUMP JUMPDEST SWAP4 POP PUSH2 0x15B7 DUP2 DUP6 PUSH1 0x20 DUP7 ADD PUSH2 0x1568 JUMP JUMPDEST PUSH2 0x15C0 DUP2 PUSH2 0x13B4 JUMP JUMPDEST DUP5 ADD SWAP2 POP POP SWAP3 SWAP2 POP POP JUMP JUMPDEST PUSH1 0x0 DUP2 SWAP1 POP SWAP2 SWAP1 POP JUMP JUMPDEST PUSH2 0x15DE DUP2 PUSH2 0x15CB JUMP JUMPDEST DUP3 MSTORE POP POP JUMP JUMPDEST PUSH1 0x0 PUSH1 0xC0 DUP3 ADD SWAP1 POP DUP2 DUP2 SUB PUSH1 0x0 DUP4 ADD MSTORE PUSH2 0x15FE DUP2 DUP10 PUSH2 0x1592 JUMP JUMPDEST SWAP1 POP PUSH2 0x160D PUSH1 0x20 DUP4 ADD DUP9 PUSH2 0x1340 JUMP JUMPDEST PUSH2 0x161A PUSH1 0x40 DUP4 ADD DUP8 PUSH2 0x15D5 JUMP JUMPDEST PUSH2 0x1627 PUSH1 0x60 DUP4 ADD DUP7 PUSH2 0x15D5 JUMP JUMPDEST PUSH2 0x1634 PUSH1 0x80 DUP4 ADD DUP6 PUSH2 0x15D5 JUMP JUMPDEST PUSH2 0x1641 PUSH1 0xA0 DUP4 ADD DUP5 PUSH2 0x15D5 JUMP JUMPDEST SWAP8 SWAP7 POP POP POP POP POP POP POP JUMP JUMPDEST PUSH1 0x0 PUSH1 0x20 DUP3 DUP5 SUB SLT ISZERO PUSH2 0x1662 JUMPI PUSH2 0x1661 PUSH2 0x1374 JUMP JUMPDEST JUMPDEST PUSH1 0x0 PUSH2 0x1670 DUP5 DUP3 DUP6 ADD PUSH2 0x1395 JUMP JUMPDEST SWAP2 POP POP SWAP3 SWAP2 POP POP JUMP JUMPDEST PUSH2 0x1682 DUP2 PUSH2 0x15CB JUMP JUMPDEST DUP2 EQ PUSH2 0x168D JUMPI PUSH1 0x0 DUP1 REVERT JUMPDEST POP JUMP JUMPDEST PUSH1 0x0 DUP2 CALLDATALOAD SWAP1 POP PUSH2 0x169F DUP2 PUSH2 0x1679 JUMP JUMPDEST SWAP3 SWAP2 POP POP JUMP JUMPDEST PUSH1 0x0 DUP1 PUSH1 0x40 DUP4 DUP6 SUB SLT ISZERO PUSH2 0x16BC JUMPI PUSH2 0x16BB PUSH2 0x1374 JUMP JUMPDEST JUMPDEST PUSH1 0x0 DUP4 ADD CALLDATALOAD PUSH8 0xFFFFFFFFFFFFFFFF DUP2 GT ISZERO PUSH2 0x16DA JUMPI PUSH2 0x16D9 PUSH2 0x1379 JUMP JUMPDEST JUMPDEST PUSH2 0x16E6 DUP6 DUP3 DUP7 ADD PUSH2 0x14C2 JUMP JUMPDEST SWAP3 POP POP PUSH1 0x20 PUSH2 0x16F7 DUP6 DUP3 DUP7 ADD PUSH2 0x1690 JUMP JUMPDEST SWAP2 POP POP SWAP3 POP SWAP3 SWAP1 POP JUMP JUMPDEST PUSH1 0x0 DUP1 PUSH1 0x0 PUSH1 0x60 DUP5 DUP7 SUB SLT ISZERO PUSH2 0x171A JUMPI PUSH2 0x1719 PUSH2 0x1374 JUMP JUMPDEST JUMPDEST PUSH1 0x0 DUP5 ADD CALLDATALOAD PUSH8 0xFFFFFFFFFFFFFFFF DUP2 GT ISZERO PUSH2 0x1738 JUMPI PUSH2 0x1737 PUSH2 0x1379 JUMP JUMPDEST JUMPDEST PUSH2 0x1744 DUP7 DUP3 DUP8 ADD PUSH2 0x14C2 JUMP JUMPDEST SWAP4 POP POP PUSH1 0x20 PUSH2 0x1755 DUP7 DUP3 DUP8 ADD PUSH2 0x1690 JUMP JUMPDEST SWAP3 POP POP PUSH1 0x40 PUSH2 0x1766 DUP7 DUP3 DUP8 ADD PUSH2 0x1690 JUMP JUMPDEST SWAP2 POP POP SWAP3 POP SWAP3 POP SWAP3 JUMP JUMPDEST PUSH1 0x0 DUP1 PUSH1 0x0 PUSH1 0x60 DUP5 DUP7 SUB SLT ISZERO PUSH2 0x1789 JUMPI PUSH2 0x1788 PUSH2 0x1374 JUMP JUMPDEST JUMPDEST PUSH1 0x0 DUP5 ADD CALLDATALOAD PUSH8 0xFFFFFFFFFFFFFFFF DUP2 GT ISZERO PUSH2 0x17A7 JUMPI PUSH2 0x17A6 PUSH2 0x1379 JUMP JUMPDEST JUMPDEST PUSH2 0x17B3 DUP7 DUP3 DUP8 ADD PUSH2 0x14C2 JUMP JUMPDEST SWAP4 POP POP PUSH1 0x20 PUSH2 0x17C4 DUP7 DUP3 DUP8 ADD PUSH2 0x1395 JUMP JUMPDEST SWAP3 POP POP PUSH1 0x40 PUSH2 0x17D5 DUP7 DUP3 DUP8 ADD PUSH2 0x1690 JUMP JUMPDEST SWAP2 POP POP SWAP3 POP SWAP3 POP SWAP3 JUMP JUMPDEST PUSH1 0x0 PUSH1 0x20 DUP3 DUP5 SUB SLT ISZERO PUSH2 0x17F5 JUMPI PUSH2 0x17F4 PUSH2 0x1374 JUMP JUMPDEST JUMPDEST PUSH1 0x0 DUP3 ADD CALLDATALOAD PUSH8 0xFFFFFFFFFFFFFFFF DUP2 GT ISZERO PUSH2 0x1813 JUMPI PUSH2 0x1812 PUSH2 0x1379 JUMP JUMPDEST JUMPDEST PUSH2 0x181F DUP5 DUP3 DUP6 ADD PUSH2 0x14C2 JUMP JUMPDEST SWAP2 POP POP SWAP3 SWAP2 POP POP JUMP JUMPDEST PUSH1 0x0 DUP2 MLOAD SWAP1 POP SWAP2 SWAP1 POP JUMP JUMPDEST PUSH1 0x0 DUP3 DUP3 MSTORE PUSH1 0x20 DUP3 ADD SWAP1 POP SWAP3 SWAP2 POP POP JUMP JUMPDEST PUSH1 0x0 DUP2 SWAP1 POP PUSH1 0x20 DUP3 ADD SWAP1 POP SWAP2 SWAP1 POP JUMP JUMPDEST PUSH1 0x0 DUP3 DUP3 MSTORE PUSH1 0x20 DUP3 ADD SWAP1 POP SWAP3 SWAP2 POP POP JUMP JUMPDEST PUSH1 0x0 PUSH2 0x1870 DUP3 PUSH2 0x154C JUMP JUMPDEST PUSH2 0x187A DUP2 DUP6 PUSH2 0x1854 JUMP JUMPDEST SWAP4 POP PUSH2 0x188A DUP2 DUP6 PUSH1 0x20 DUP7 ADD PUSH2 0x1568 JUMP JUMPDEST PUSH2 0x1893 DUP2 PUSH2 0x13B4 JUMP JUMPDEST DUP5 ADD SWAP2 POP POP SWAP3 SWAP2 POP POP JUMP JUMPDEST PUSH2 0x18A7 DUP2 PUSH2 0x132E JUMP JUMPDEST DUP3 MSTORE POP POP JUMP JUMPDEST PUSH2 0x18B6 DUP2 PUSH2 0x15CB JUMP JUMPDEST DUP3 MSTORE POP POP JUMP JUMPDEST PUSH1 0x0 PUSH1 0xC0 DUP4 ADD PUSH1 0x0 DUP4 ADD MLOAD DUP5 DUP3 SUB PUSH1 0x0 DUP7 ADD MSTORE PUSH2 0x18D9 DUP3 DUP3 PUSH2 0x1865 JUMP JUMPDEST SWAP2 POP POP PUSH1 0x20 DUP4 ADD MLOAD PUSH2 0x18EE PUSH1 0x20 DUP7 ADD DUP3 PUSH2 0x189E JUMP JUMPDEST POP PUSH1 0x40 DUP4 ADD MLOAD PUSH2 0x1901 PUSH1 0x40 DUP7 ADD DUP3 PUSH2 0x18AD JUMP JUMPDEST POP PUSH1 0x60 DUP4 ADD MLOAD PUSH2 0x1914 PUSH1 0x60 DUP7 ADD DUP3 PUSH2 0x18AD JUMP JUMPDEST POP PUSH1 0x80 DUP4 ADD MLOAD PUSH2 0x1927 PUSH1 0x80 DUP7 ADD DUP3 PUSH2 0x18AD JUMP JUMPDEST POP PUSH1 0xA0 DUP4 ADD MLOAD PUSH2 0x193A PUSH1 0xA0 DUP7 ADD DUP3 PUSH2 0x18AD JUMP JUMPDEST POP DUP1 SWAP2 POP POP SWAP3 SWAP2 POP POP JUMP JUMPDEST PUSH1 0x0 PUSH2 0x1951 DUP4 DUP4 PUSH2 0x18BC JUMP JUMPDEST SWAP1 POP SWAP3 SWAP2 POP POP JUMP JUMPDEST PUSH1 0x0 PUSH1 0x20 DUP3 ADD SWAP1 POP SWAP2 SWAP1 POP JUMP JUMPDEST PUSH1 0x0 PUSH2 0x1971 DUP3 PUSH2 0x1828 JUMP JUMPDEST PUSH2 0x197B DUP2 DUP6 PUSH2 0x1833 JUMP JUMPDEST SWAP4 POP DUP4 PUSH1 0x20 DUP3 MUL DUP6 ADD PUSH2 0x198D DUP6 PUSH2 0x1844 JUMP JUMPDEST DUP1 PUSH1 0x0 JUMPDEST DUP6 DUP2 LT ISZERO PUSH2 0x19C9 JUMPI DUP5 DUP5 SUB DUP10 MSTORE DUP2 MLOAD PUSH2 0x19AA DUP6 DUP3 PUSH2 0x1945 JUMP JUMPDEST SWAP5 POP PUSH2 0x19B5 DUP4 PUSH2 0x1959 JUMP JUMPDEST SWAP3 POP PUSH1 0x20 DUP11 ADD SWAP10 POP POP PUSH1 0x1 DUP2 ADD SWAP1 POP PUSH2 0x1991 JUMP JUMPDEST POP DUP3 SWAP8 POP DUP8 SWAP6 POP POP POP POP POP POP SWAP3 SWAP2 POP POP JUMP JUMPDEST PUSH1 0x0 PUSH1 0x20 DUP3 ADD SWAP1 POP DUP2 DUP2 SUB PUSH1 0x0 DUP4 ADD MSTORE PUSH2 0x19F5 DUP2 DUP5 PUSH2 0x1966 JUMP JUMPDEST SWAP1 POP SWAP3 SWAP2 POP POP JUMP JUMPDEST PUSH32 0x4E487B7100000000000000000000000000000000000000000000000000000000 PUSH1 0x0 MSTORE PUSH1 0x22 PUSH1 0x4 MSTORE PUSH1 0x24 PUSH1 0x0 REVERT JUMPDEST PUSH1 0x0 PUSH1 0x2 DUP3 DIV SWAP1 POP PUSH1 0x1 DUP3 AND DUP1 PUSH2 0x1A44 JUMPI PUSH1 0x7F DUP3 AND SWAP2 POP JUMPDEST PUSH1 0x20 DUP3 LT DUP2 SUB PUSH2 0x1A57 JUMPI PUSH2 0x1A56 PUSH2 0x19FD JUMP JUMPDEST JUMPDEST POP SWAP2 SWAP1 POP JUMP JUMPDEST PUSH32 0x4F6E6C79206F776E657200000000000000000000000000000000000000000000 PUSH1 0x0 DUP3 ADD MSTORE POP JUMP JUMPDEST PUSH1 0x0 PUSH2 0x1A93 PUSH1 0xA DUP4 PUSH2 0x1557 JUMP JUMPDEST SWAP2 POP PUSH2 0x1A9E DUP3 PUSH2 0x1A5D JUMP JUMPDEST PUSH1 0x20 DUP3 ADD SWAP1 POP SWAP2 SWAP1 POP JUMP JUMPDEST PUSH1 0x0 PUSH1 0x20 DUP3 ADD SWAP1 POP DUP2 DUP2 SUB PUSH1 0x0 DUP4 ADD MSTORE PUSH2 0x1AC2 DUP2 PUSH2 0x1A86 JUMP JUMPDEST SWAP1 POP SWAP2 SWAP1 POP JUMP JUMPDEST PUSH32 0x696E76616C696420616D6F756E74000000000000000000000000000000000000 PUSH1 0x0 DUP3 ADD MSTORE POP JUMP JUMPDEST PUSH1 0x0 PUSH2 0x1AFF PUSH1 0xE DUP4 PUSH2 0x1557 JUMP JUMPDEST SWAP2 POP PUSH2 0x1B0A DUP3 PUSH2 0x1AC9 JUMP JUMPDEST PUSH1 0x20 DUP3 ADD SWAP1 POP SWAP2 SWAP1 POP JUMP JUMPDEST PUSH1 0x0 PUSH1 0x20 DUP3 ADD SWAP1 POP DUP2 DUP2 SUB PUSH1 0x0 DUP4 ADD MSTORE PUSH2 0x1B2E DUP2 PUSH2 0x1AF2 JUMP JUMPDEST SWAP1 POP SWAP2 SWAP1 POP JUMP JUMPDEST PUSH1 0x0 PUSH1 0x60 DUP3 ADD SWAP1 POP DUP2 DUP2 SUB PUSH1 0x0 DUP4 ADD MSTORE PUSH2 0x1B4F DUP2 DUP7 PUSH2 0x1592 JUMP JUMPDEST SWAP1 POP PUSH2 0x1B5E PUSH1 0x20 DUP4 ADD DUP6 PUSH2 0x1340 JUMP JUMPDEST PUSH2 0x1B6B PUSH1 0x40 DUP4 ADD DUP5 PUSH2 0x15D5 JUMP JUMPDEST SWAP5 SWAP4 POP POP POP POP JUMP JUMPDEST PUSH1 0x0 PUSH1 0x20 DUP3 ADD SWAP1 POP DUP2 DUP2 SUB PUSH1 0x0 DUP4 ADD MSTORE PUSH2 0x1B8D DUP2 DUP5 PUSH2 0x1592 JUMP JUMPDEST SWAP1 POP SWAP3 SWAP2 POP POP JUMP JUMPDEST PUSH1 0x0 DUP2 MLOAD SWAP1 POP PUSH2 0x1BA4 DUP2 PUSH2 0x137E JUMP JUMPDEST SWAP3 SWAP2 POP POP JUMP JUMPDEST PUSH1 0x0 PUSH1 0x20 DUP3 DUP5 SUB SLT ISZERO PUSH2 0x1BC0 JUMPI PUSH2 0x1BBF PUSH2 0x1374 JUMP JUMPDEST JUMPDEST PUSH1 0x0 PUSH2 0x1BCE DUP5 DUP3 DUP6 ADD PUSH2 0x1B95 JUMP JUMPDEST SWAP2 POP POP SWAP3 SWAP2 POP POP JUMP JUMPDEST PUSH1 0x0 PUSH1 0x60 DUP3 ADD SWAP1 POP PUSH2 0x1BEC PUSH1 0x0 DUP4 ADD DUP7 PUSH2 0x1340 JUMP JUMPDEST PUSH2 0x1BF9 PUSH1 0x20 DUP4 ADD DUP6 PUSH2 0x1340 JUMP JUMPDEST PUSH2 0x1C06 PUSH1 0x40 DUP4 ADD DUP5 PUSH2 0x1340 JUMP JUMPDEST SWAP5 SWAP4 POP POP POP POP JUMP JUMPDEST PUSH1 0x0 DUP2 MLOAD SWAP1 POP PUSH2 0x1C1D DUP2 PUSH2 0x1679 JUMP JUMPDEST SWAP3 SWAP2 POP POP JUMP JUMPDEST PUSH1 0x0 PUSH1 0x20 DUP3 DUP5 SUB SLT ISZERO PUSH2 0x1C39 JUMPI PUSH2 0x1C38 PUSH2 0x1374 JUMP JUMPDEST JUMPDEST PUSH1 0x0 PUSH2 0x1C47 DUP5 DUP3 DUP6 ADD PUSH2 0x1C0E JUMP JUMPDEST SWAP2 POP POP SWAP3 SWAP2 POP POP JUMP JUMPDEST PUSH32 0x616C6C6F77616E63650000000000000000000000000000000000000000000000 PUSH1 0x0 DUP3 ADD MSTORE POP JUMP JUMPDEST PUSH1 0x0 PUSH2 0x1C86 PUSH1 0x9 DUP4 PUSH2 0x1557 JUMP JUMPDEST SWAP2 POP PUSH2 0x1C91 DUP3 PUSH2 0x1C50 JUMP JUMPDEST PUSH1 0x20 DUP3 ADD SWAP1 POP SWAP2 SWAP1 POP JUMP JUMPDEST PUSH1 0x0 PUSH1 0x20 DUP3 ADD SWAP1 POP DUP2 DUP2 SUB PUSH1 0x0 DUP4 ADD MSTORE PUSH2 0x1CB5 DUP2 PUSH2 0x1C79 JUMP JUMPDEST SWAP1 POP SWAP2 SWAP1 POP JUMP JUMPDEST PUSH1 0x0 PUSH1 0x80 DUP3 ADD SWAP1 POP PUSH2 0x1CD1 PUSH1 0x0 DUP4 ADD DUP8 PUSH2 0x1340 JUMP JUMPDEST DUP2 DUP2 SUB PUSH1 0x20 DUP4 ADD MSTORE PUSH2 0x1CE3 DUP2 DUP7 PUSH2 0x1592 JUMP JUMPDEST SWAP1 POP PUSH2 0x1CF2 PUSH1 0x40 DUP4 ADD DUP6 PUSH2 0x15D5 JUMP JUMPDEST PUSH2 0x1CFF PUSH1 0x60 DUP4 ADD DUP5 PUSH2 0x15D5 JUMP JUMPDEST SWAP6 SWAP5 POP POP POP POP POP JUMP JUMPDEST PUSH1 0x0 DUP2 MLOAD SWAP1 POP SWAP2 SWAP1 POP JUMP JUMPDEST PUSH1 0x0 DUP3 DUP3 MSTORE PUSH1 0x20 DUP3 ADD SWAP1 POP SWAP3 SWAP2 POP POP JUMP JUMPDEST PUSH1 0x0 PUSH2 0x1D2F DUP3 PUSH2 0x1D08 JUMP JUMPDEST PUSH2 0x1D39 DUP2 DUP6 PUSH2 0x1D13 JUMP JUMPDEST SWAP4 POP PUSH2 0x1D49 DUP2 DUP6 PUSH1 0x20 DUP7 ADD PUSH2 0x1568 JUMP JUMPDEST PUSH2 0x1D52 DUP2 PUSH2 0x13B4 JUMP JUMPDEST DUP5 ADD SWAP2 POP POP SWAP3 SWAP2 POP POP JUMP JUMPDEST PUSH1 0x0 PUSH1 0xA0 DUP3 ADD SWAP1 POP PUSH2 0x1D72 PUSH1 0x0 DUP4 ADD DUP9 PUSH2 0x1340 JUMP JUMPDEST PUSH2 0x1D7F PUSH1 0x20 DUP4 ADD DUP8 PUSH2 0x1340 JUMP JUMPDEST PUSH2 0x1D8C PUSH1 0x40 DUP4 ADD DUP7 PUSH2 0x15D5 JUMP JUMPDEST DUP2 DUP2 SUB PUSH1 0x60 DUP4 ADD MSTORE PUSH2 0x1D9E DUP2 DUP6 PUSH2 0x1D24 JUMP JUMPDEST SWAP1 POP PUSH2 0x1DAD PUSH1 0x80 DUP4 ADD DUP5 PUSH2 0x1340 JUMP JUMPDEST SWAP7 SWAP6 POP POP POP POP POP POP JUMP JUMPDEST PUSH1 0x0 PUSH1 0x80 DUP3 ADD SWAP1 POP DUP2 DUP2 SUB PUSH1 0x0 DUP4 ADD MSTORE PUSH2 0x1DD1 DUP2 DUP8 PUSH2 0x1592 JUMP JUMPDEST SWAP1 POP PUSH2 0x1DE0 PUSH1 0x20 DUP4 ADD DUP7 PUSH2 0x1340 JUMP JUMPDEST PUSH2 0x1DED PUSH1 0x40 DUP4 ADD DUP6 PUSH2 0x15D5 JUMP JUMPDEST PUSH2 0x1DFA PUSH1 0x60 DUP4 ADD DUP5 PUSH2 0x15D5 JUMP JUMPDEST SWAP6 SWAP5 POP POP POP POP POP JUMP JUMPDEST PUSH1 0x0 DUP2 SWAP1 POP SWAP3 SWAP2 POP POP JUMP JUMPDEST PUSH1 0x0 PUSH2 0x1E19 DUP3 PUSH2 0x154C JUMP JUMPDEST PUSH2 0x1E23 DUP2 DUP6 PUSH2 0x1E03 JUMP JUMPDEST SWAP4 POP PUSH2 0x1E33 DUP2 DUP6 PUSH1 0x20 DUP7 ADD PUSH2 0x1568 JUMP JUMPDEST DUP1 DUP5 ADD SWAP2 POP POP SWAP3 SWAP2 POP POP JUMP JUMPDEST PUSH1 0x0 PUSH2 0x1E4B DUP3 DUP5 PUSH2 0x1E0E JUMP JUMPDEST SWAP2 POP DUP2 SWAP1 POP SWAP3 SWAP2 POP POP JUMP JUMPDEST PUSH32 0x4E487B7100000000000000000000000000000000000000000000000000000000 PUSH1 0x0 MSTORE PUSH1 0x11 PUSH1 0x4 MSTORE PUSH1 0x24 PUSH1 0x0 REVERT JUMPDEST PUSH1 0x0 PUSH2 0x1E90 DUP3 PUSH2 0x15CB JUMP JUMPDEST SWAP2 POP PUSH2 0x1E9B DUP4 PUSH2 0x15CB JUMP JUMPDEST SWAP3 POP DUP3 DUP3 MUL PUSH2 0x1EA9 DUP2 PUSH2 0x15CB JUMP JUMPDEST SWAP2 POP DUP3 DUP3 DIV DUP5 EQ DUP4 ISZERO OR PUSH2 0x1EC0 JUMPI PUSH2 0x1EBF PUSH2 0x1E56 JUMP JUMPDEST JUMPDEST POP SWAP3 SWAP2 POP POP JUMP JUMPDEST PUSH32 0x62616C616E636500000000000000000000000000000000000000000000000000 PUSH1 0x0 DUP3 ADD MSTORE POP JUMP JUMPDEST PUSH1 0x0 PUSH2 0x1EFD PUSH1 0x7 DUP4 PUSH2 0x1557 JUMP JUMPDEST SWAP2 POP PUSH2 0x1F08 DUP3 PUSH2 0x1EC7 JUMP JUMPDEST PUSH1 0x20 DUP3 ADD SWAP1 POP SWAP2 SWAP1 POP JUMP JUMPDEST PUSH1 0x0 PUSH1 0x20 DUP3 ADD SWAP1 POP DUP2 DUP2 SUB PUSH1 0x0 DUP4 ADD MSTORE PUSH2 0x1F2C DUP2 PUSH2 0x1EF0 JUMP JUMPDEST SWAP1 POP SWAP2 SWAP1 POP JUMP JUMPDEST PUSH1 0x0 PUSH1 0x80 DUP3 ADD SWAP1 POP DUP2 DUP2 SUB PUSH1 0x0 DUP4 ADD MSTORE PUSH2 0x1F4D DUP2 DUP8 PUSH2 0x1592 JUMP JUMPDEST SWAP1 POP PUSH2 0x1F5C PUSH1 0x20 DUP4 ADD DUP7 PUSH2 0x1340 JUMP JUMPDEST PUSH2 0x1F69 PUSH1 0x40 DUP4 ADD DUP6 PUSH2 0x1340 JUMP JUMPDEST PUSH2 0x1F76 PUSH1 0x60 DUP4 ADD DUP5 PUSH2 0x15D5 JUMP JUMPDEST SWAP6 SWAP5 POP POP POP POP POP JUMP JUMPDEST PUSH1 0x0 PUSH1 0x40 DUP3 ADD SWAP1 POP PUSH2 0x1F94 PUSH1 0x0 DUP4 ADD DUP6 PUSH2 0x1340 JUMP JUMPDEST PUSH2 0x1FA1 PUSH1 0x20 DUP4 ADD DUP5 PUSH2 0x15D5 JUMP JUMPDEST SWAP4 SWAP3 POP POP POP JUMP JUMPDEST PUSH1 0x0 DUP2 ISZERO ISZERO SWAP1 POP SWAP2 SWAP1 POP JUMP JUMPDEST PUSH2 0x1FBD DUP2 PUSH2 0x1FA8 JUMP JUMPDEST DUP2 EQ PUSH2 0x1FC8 JUMPI PUSH1 0x0 DUP1 REVERT JUMPDEST POP JUMP JUMPDEST PUSH1 0x0 DUP2 MLOAD SWAP1 POP PUSH2 0x1FDA DUP2 PUSH2 0x1FB4 JUMP JUMPDEST SWAP3 SWAP2 POP POP JUMP JUMPDEST PUSH1 0x0 PUSH1 0x20 DUP3 DUP5 SUB SLT ISZERO PUSH2 0x1FF6 JUMPI PUSH2 0x1FF5 PUSH2 0x1374 JUMP JUMPDEST JUMPDEST PUSH1 0x0 PUSH2 0x2004 DUP5 DUP3 DUP6 ADD PUSH2 0x1FCB JUMP JUMPDEST SWAP2 POP POP SWAP3 SWAP2 POP POP JUMP JUMPDEST PUSH1 0x0 PUSH1 0x40 DUP3 ADD SWAP1 POP DUP2 DUP2 SUB PUSH1 0x0 DUP4 ADD MSTORE PUSH2 0x2027 DUP2 DUP6 PUSH2 0x1592 JUMP JUMPDEST SWAP1 POP PUSH2 0x2036 PUSH1 0x20 DUP4 ADD DUP5 PUSH2 0x1340 JUMP JUMPDEST SWAP4 SWAP3 POP POP POP JUMP INVALID LOG2 PUSH5 0x6970667358 0x22 SLT KECCAK256 0xAF 0xD3 0xBC 0x5E RETURNDATACOPY 0x2B 0x23 0xE7 0xB9 EXP 0xCF 0xEA 0xBB AND DUP2 DIV DUP11 0xD7 PUSH16 0x59C1BEE982735F41BACA2B9F0964736F PUSH13 0x63430008130033000000000000 "},"methodIdentifiers":{"bankContract()":"07c2e449","bondCallContract()":"5e43522e","buyBonds(string,address,uint256)":"ae7076ec","exchangeBondsStorage()":"916cdbfc","getDealsListed()":"f14049d5","increaseListingAmount(string,uint256)":"aa522a2c","investorListing(address,string)":"2d9fc161","listBonds(string,uint256,uint256)":"86528790","owner()":"8da5cb5b","setExchangeBondsStorage(address)":"4a51c8df","unlistBonds(string)":"cdd619f6","updateDealPrice(string,uint256)":"6f3b1410"}}}}}