{"contracts/Topos/Factory/BondFactory.sol":{"BondFactory":{"abi":[{"inputs":[{"internalType":"address","name":"_toposBankContract","type":"address"}],"stateMutability":"nonpayable","type":"constructor"},{"inputs":[{"internalType":"string","name":"_dealID","type":"string"},{"internalType":"address","name":"_issuerWalletAddress","type":"address"},{"internalType":"address","name":"_toposBankContract","type":"address"},{"internalType":"string","name":"_countryOfIssuance","type":"string"}],"name":"DeployBondContract","outputs":[],"stateMutability":"nonpayable","type":"function"},{"inputs":[{"internalType":"string","name":"","type":"string"}],"name":"isBondContract","outputs":[{"internalType":"bool","name":"","type":"bool"}],"stateMutability":"view","type":"function"},{"inputs":[],"name":"toposBankContract","outputs":[{"internalType":"address","name":"","type":"address"}],"stateMutability":"view","type":"function"},{"inputs":[],"name":"toposManager","outputs":[{"internalType":"address","name":"","type":"address"}],"stateMutability":"view","type":"function"}],"evm":{"bytecode":{"linkReferences":{},"object":"608060405234801561001057600080fd5b5060405162005ab238038062005ab28339818101604052810190610034919061011f565b33600160006101000a81548173ffffffffffffffffffffffffffffffffffffffff021916908373ffffffffffffffffffffffffffffffffffffffff16021790555080600260006101000a81548173ffffffffffffffffffffffffffffffffffffffff021916908373ffffffffffffffffffffffffffffffffffffffff1602179055505061014c565b600080fd5b600073ffffffffffffffffffffffffffffffffffffffff82169050919050565b60006100ec826100c1565b9050919050565b6100fc816100e1565b811461010757600080fd5b50565b600081519050610119816100f3565b92915050565b600060208284031215610135576101346100bc565b5b60006101438482850161010a565b91505092915050565b615956806200015c6000396000f3fe60806040523480156200001157600080fd5b5060043610620000525760003560e01c806306f0e27a14620000575780637f31ed73146200008d5780639c34712a14620000af578063c044511714620000d1575b600080fd5b6200007560048036038101906200006f919062000550565b620000f1565b604051620000849190620005be565b60405180910390f35b6200009762000127565b604051620000a6919062000620565b60405180910390f35b620000b96200014d565b604051620000c8919062000620565b60405180910390f35b620000ef6004803603810190620000e99190620006d7565b62000173565b005b6000818051602081018201805184825260208301602085012081835280955050505050506000915054906101000a900460ff1681565b600160009054906101000a900473ffffffffffffffffffffffffffffffffffffffff1681565b600260009054906101000a900473ffffffffffffffffffffffffffffffffffffffff1681565b600160009054906101000a900473ffffffffffffffffffffffffffffffffffffffff1673ffffffffffffffffffffffffffffffffffffffff163373ffffffffffffffffffffffffffffffffffffffff161462000206576040517f08c379a0000000000000000000000000000000000000000000000000000000008152600401620001fd90620007f0565b60405180910390fd5b600086866040516200021a92919062000846565b908152602001604051809103902060009054906101000a900460ff161562000279576040517f08c379a00000000000000000000000000000000000000000000000000000000081526004016200027090620008b1565b60405180910390fd5b600086866040516020016200029092919062000846565b604051602081830303815290604052620002aa906200091c565b878787878787604051620002be90620003cc565b620002cf96959493929190620009bf565b8190604051809103906000f5905080158015620002f0573d6000803e3d6000fd5b509050600260009054906101000a900473ffffffffffffffffffffffffffffffffffffffff1673ffffffffffffffffffffffffffffffffffffffff16631882c1958888846040518463ffffffff1660e01b8152600401620003549392919062000a1e565b600060405180830381600087803b1580156200036f57600080fd5b505af115801562000384573d6000803e3d6000fd5b505050506001600088886040516200039e92919062000846565b908152602001604051809103902060006101000a81548160ff02191690831515021790555050505050505050565b614ecc8062000a5583390190565b6000604051905090565b600080fd5b600080fd5b600080fd5b600080fd5b6000601f19601f8301169050919050565b7f4e487b7100000000000000000000000000000000000000000000000000000000600052604160045260246000fd5b6200044382620003f8565b810181811067ffffffffffffffff8211171562000465576200046462000409565b5b80604052505050565b60006200047a620003da565b905062000488828262000438565b919050565b600067ffffffffffffffff821115620004ab57620004aa62000409565b5b620004b682620003f8565b9050602081019050919050565b82818337600083830152505050565b6000620004e9620004e3846200048d565b6200046e565b905082815260208101848484011115620005085762000507620003f3565b5b62000515848285620004c3565b509392505050565b600082601f830112620005355762000534620003ee565b5b813562000547848260208601620004d2565b91505092915050565b600060208284031215620005695762000568620003e4565b5b600082013567ffffffffffffffff8111156200058a5762000589620003e9565b5b62000598848285016200051d565b91505092915050565b60008115159050919050565b620005b881620005a1565b82525050565b6000602082019050620005d56000830184620005ad565b92915050565b600073ffffffffffffffffffffffffffffffffffffffff82169050919050565b60006200060882620005db565b9050919050565b6200061a81620005fb565b82525050565b60006020820190506200063760008301846200060f565b92915050565b600080fd5b600080fd5b60008083601f84011262000660576200065f620003ee565b5b8235905067ffffffffffffffff81111562000680576200067f6200063d565b5b6020830191508360018202830111156200069f576200069e62000642565b5b9250929050565b620006b181620005fb565b8114620006bd57600080fd5b50565b600081359050620006d181620006a6565b92915050565b60008060008060008060808789031215620006f757620006f6620003e4565b5b600087013567ffffffffffffffff811115620007185762000717620003e9565b5b6200072689828a0162000647565b965096505060206200073b89828a01620006c0565b94505060406200074e89828a01620006c0565b935050606087013567ffffffffffffffff811115620007725762000771620003e9565b5b6200078089828a0162000647565b92509250509295509295509295565b600082825260208201905092915050565b7f6e6f7420616c6c6f776564000000000000000000000000000000000000000000600082015250565b6000620007d8600b836200078f565b9150620007e582620007a0565b602082019050919050565b600060208201905081810360008301526200080b81620007c9565b9050919050565b600081905092915050565b60006200082b838562000812565b93506200083a838584620004c3565b82840190509392505050565b6000620008558284866200081d565b91508190509392505050565b7f6465706c6f796564000000000000000000000000000000000000000000000000600082015250565b6000620008996008836200078f565b9150620008a68262000861565b602082019050919050565b60006020820190508181036000830152620008cc816200088a565b9050919050565b600081519050919050565b6000819050602082019050919050565b6000819050919050565b6000620009068251620008ee565b80915050919050565b600082821b905092915050565b60006200092982620008d3565b826200093584620008de565b90506200094281620008f8565b925060208210156200098557620009807fffffffffffffffffffffffffffffffffffffffffffffffffffffffffffffffff836020036008026200090f565b831692505b5050919050565b60006200099a83856200078f565b9350620009a9838584620004c3565b620009b483620003f8565b840190509392505050565b60006080820190508181036000830152620009dc81888a6200098c565b9050620009ed60208301876200060f565b620009fc60408301866200060f565b818103606083015262000a118184866200098c565b9050979650505050505050565b6000604082019050818103600083015262000a3b8185876200098c565b905062000a4c60208301846200060f565b94935050505056fe60806040523480156200001157600080fd5b5060405162004ecc38038062004ecc833981810160405281019062000037919062000362565b83600690816200004891906200065d565b5033600760006101000a81548173ffffffffffffffffffffffffffffffffffffffff021916908373ffffffffffffffffffffffffffffffffffffffff160217905550826000856040516200009d919062000786565b908152602001604051809103902060000160006101000a81548173ffffffffffffffffffffffffffffffffffffffff021916908373ffffffffffffffffffffffffffffffffffffffff16021790555080600085604051620000ff919062000786565b908152602001604051809103902060010190816200011e91906200065d565b5081600860006101000a81548173ffffffffffffffffffffffffffffffffffffffff021916908373ffffffffffffffffffffffffffffffffffffffff160217905550505050506200079f565b6000604051905090565b600080fd5b600080fd5b600080fd5b600080fd5b6000601f19601f8301169050919050565b7f4e487b7100000000000000000000000000000000000000000000000000000000600052604160045260246000fd5b620001d38262000188565b810181811067ffffffffffffffff82111715620001f557620001f462000199565b5b80604052505050565b60006200020a6200016a565b9050620002188282620001c8565b919050565b600067ffffffffffffffff8211156200023b576200023a62000199565b5b620002468262000188565b9050602081019050919050565b60005b838110156200027357808201518184015260208101905062000256565b60008484015250505050565b60006200029662000290846200021d565b620001fe565b905082815260208101848484011115620002b557620002b462000183565b5b620002c284828562000253565b509392505050565b600082601f830112620002e257620002e16200017e565b5b8151620002f48482602086016200027f565b91505092915050565b600073ffffffffffffffffffffffffffffffffffffffff82169050919050565b60006200032a82620002fd565b9050919050565b6200033c816200031d565b81146200034857600080fd5b50565b6000815190506200035c8162000331565b92915050565b600080600080608085870312156200037f576200037e62000174565b5b600085015167ffffffffffffffff811115620003a0576200039f62000179565b5b620003ae87828801620002ca565b9450506020620003c1878288016200034b565b9350506040620003d4878288016200034b565b925050606085015167ffffffffffffffff811115620003f857620003f762000179565b5b6200040687828801620002ca565b91505092959194509250565b600081519050919050565b7f4e487b7100000000000000000000000000000000000000000000000000000000600052602260045260246000fd5b600060028204905060018216806200046557607f821691505b6020821081036200047b576200047a6200041d565b5b50919050565b60008190508160005260206000209050919050565b60006020601f8301049050919050565b600082821b905092915050565b600060088302620004e57fffffffffffffffffffffffffffffffffffffffffffffffffffffffffffffffff82620004a6565b620004f18683620004a6565b95508019841693508086168417925050509392505050565b6000819050919050565b6000819050919050565b60006200053e62000538620005328462000509565b62000513565b62000509565b9050919050565b6000819050919050565b6200055a836200051d565b62000572620005698262000545565b848454620004b3565b825550505050565b600090565b620005896200057a565b620005968184846200054f565b505050565b5b81811015620005be57620005b26000826200057f565b6001810190506200059c565b5050565b601f8211156200060d57620005d78162000481565b620005e28462000496565b81016020851015620005f2578190505b6200060a620006018562000496565b8301826200059b565b50505b505050565b600082821c905092915050565b6000620006326000198460080262000612565b1980831691505092915050565b60006200064d83836200061f565b9150826002028217905092915050565b620006688262000412565b67ffffffffffffffff81111562000684576200068362000199565b5b6200069082546200044c565b6200069d828285620005c2565b600060209050601f831160018114620006d55760008415620006c0578287015190505b620006cc85826200063f565b8655506200073c565b601f198416620006e58662000481565b60005b828110156200070f57848901518255600182019150602085019450602081019050620006e8565b868310156200072f57848901516200072b601f8916826200061f565b8355505b6001600288020188555050505b505050505050565b600081905092915050565b60006200075c8262000412565b62000768818562000744565b93506200077a81856020860162000253565b80840191505092915050565b60006200079482846200074f565b915081905092915050565b61471d80620007af6000396000f3fe608060405234801561001057600080fd5b50600436106101da5760003560e01c80638db6f28a11610104578063c0bcb26f116100a2578063d76805aa11610071578063d76805aa14610570578063dd62ed3e1461058c578063e5a6b10f146105bc578063e6ba4fea146105da576101da565b8063c0bcb26f146104e6578063c16aa77914610504578063cee2a9cf14610522578063d59624b414610552576101da565b8063a457c2d7116100de578063a457c2d714610460578063ab67aa581461047c578063be040fb0146104ac578063be45fd62146104b6576101da565b80638db6f28a1461040657806395d89b41146104245780639c34712a14610442576101da565b80635eb0b3d01161017c57806373975df11161014b57806373975df11461038e57806382d5a60d146103ac5780638bca6d16146103ca5780638d1343e0146103e8576101da565b80635eb0b3d0146102f257806361e20a1c1461031057806370a0823114610340578063710d332914610370576101da565b806318160ddd116101b857806318160ddd1461024b578063363cc4271461026957806341d6a5821461028757806346e8de21146102b8576101da565b8063045017ce146101df57806306fdde03146101fd578063095ea7b31461021b575b600080fd5b6101e761060a565b6040516101f49190613051565b60405180910390f35b610205610641565b60405161021291906130fc565b60405180910390f35b610235600480360381019061023091906131c6565b6106f3565b6040516102429190613221565b60405180910390f35b6102536108a1565b604051610260919061324b565b60405180910390f35b6102716108f8565b60405161027e9190613275565b60405180910390f35b6102a1600480360381019061029c91906133c5565b61091e565b6040516102af92919061340e565b60405180910390f35b6102d260048036038101906102cd91906133c5565b610a00565b6040516102e99b9a9998979695949392919061343e565b60405180910390f35b6102fa610c35565b604051610307919061324b565b60405180910390f35b61032a600480360381019061032591906134fe565b610c5f565b604051610337919061324b565b60405180910390f35b61035a600480360381019061035591906134fe565b610ca8565b604051610367919061324b565b60405180910390f35b610378610d1e565b604051610385919061324b565b60405180910390f35b610396610d48565b6040516103a391906130fc565b60405180910390f35b6103b4610dd6565b6040516103c191906130fc565b60405180910390f35b6103d2610e88565b6040516103df919061324b565b60405180910390f35b6103f0610eb2565b6040516103fd919061324b565b60405180910390f35b61040e610edc565b60405161041b9190613627565b60405180910390f35b61042c610f9b565b60405161043991906130fc565b60405180910390f35b61044a61104d565b6040516104579190613275565b60405180910390f35b61047a600480360381019061047591906131c6565b611073565b005b610496600480360381019061049191906136a9565b6110c4565b6040516104a39190613221565b60405180910390f35b6104b4611282565b005b6104d060048036038101906104cb9190613731565b61131c565b6040516104dd9190613221565b60405180910390f35b6104ee6114ce565b6040516104fb919061324b565b60405180910390f35b61050c6114f8565b604051610519919061381c565b60405180910390f35b61053c600480360381019061053791906134fe565b61150b565b6040516105499190613221565b60405180910390f35b61055a61152b565b604051610567919061324b565b60405180910390f35b61058a6004803603810190610585919061385c565b611555565b005b6105a660048036038101906105a191906138a5565b6115f1565b6040516105b3919061324b565b60405180910390f35b6105c4611678565b6040516105d19190613275565b60405180910390f35b6105f460048036038101906105ef91906134fe565b6116c2565b604051610601919061324b565b60405180910390f35b60006001600660405161061d91906139e8565b908152602001604051809103902060070160009054906101000a900460ff16905090565b60606001600660405161065491906139e8565b9081526020016040518091039020600101805461067090613914565b80601f016020809104026020016040519081016040528092919081815260200182805461069c90613914565b80156106e95780601f106106be576101008083540402835291602001916106e9565b820191906000526020600020905b8154815290600101906020018083116106cc57829003601f168201915b5050505050905090565b6000826000600860009054906101000a900473ffffffffffffffffffffffffffffffffffffffff1673ffffffffffffffffffffffffffffffffffffffff1663c3a2a93a6040518163ffffffff1660e01b815260040160a060405180830381865afa158015610765573d6000803e3d6000fd5b505050506040513d601f19601f820116820180604052508101906107899190613a14565b5050925050508073ffffffffffffffffffffffffffffffffffffffff1663b9209e33836040518263ffffffff1660e01b81526004016107c89190613275565b602060405180830381865afa1580156107e5573d6000803e3d6000fd5b505050506040513d601f19601f820116820180604052508101906108099190613abb565b610848576040517f08c379a000000000000000000000000000000000000000000000000000000000815260040161083f90613b34565b60405180910390fd5b60003373ffffffffffffffffffffffffffffffffffffffff163273ffffffffffffffffffffffffffffffffffffffff160361088557329050610889565b3390505b6108948187876116da565b6001935050505092915050565b6000600160066040516108b491906139e8565b908152602001604051809103902060040154600160066040516108d791906139e8565b9081526020016040518091039020600501546108f39190613bb2565b905090565b600760009054906101000a900473ffffffffffffffffffffffffffffffffffffffff1681565b6000818051602081018201805184825260208301602085012081835280955050505050506000915090508060000160009054906101000a900473ffffffffffffffffffffffffffffffffffffffff169080600101805461097d90613914565b80601f01602080910402602001604051908101604052809291908181526020018280546109a990613914565b80156109f65780601f106109cb576101008083540402835291602001916109f6565b820191906000526020600020905b8154815290600101906020018083116109d957829003601f168201915b5050505050905082565b600181805160208101820180518482526020830160208501208183528095505050505050600091509050806000018054610a3990613914565b80601f0160208091040260200160405190810160405280929190818152602001828054610a6590613914565b8015610ab25780601f10610a8757610100808354040283529160200191610ab2565b820191906000526020600020905b815481529060010190602001808311610a9557829003601f168201915b505050505090806001018054610ac790613914565b80601f0160208091040260200160405190810160405280929190818152602001828054610af390613914565b8015610b405780601f10610b1557610100808354040283529160200191610b40565b820191906000526020600020905b815481529060010190602001808311610b2357829003601f168201915b505050505090806002018054610b5590613914565b80601f0160208091040260200160405190810160405280929190818152602001828054610b8190613914565b8015610bce5780601f10610ba357610100808354040283529160200191610bce565b820191906000526020600020905b815481529060010190602001808311610bb157829003601f168201915b5050505050908060030160009054906101000a900473ffffffffffffffffffffffffffffffffffffffff16908060040154908060050154908060060154908060070160009054906101000a900460ff169080600801549080600901549080600a015490508b565b600060016006604051610c4891906139e8565b908152602001604051809103902060080154905090565b6000600260008373ffffffffffffffffffffffffffffffffffffffff1673ffffffffffffffffffffffffffffffffffffffff168152602001908152602001600020549050919050565b600060016006604051610cbb91906139e8565b908152602001604051809103902060040154600260008473ffffffffffffffffffffffffffffffffffffffff1673ffffffffffffffffffffffffffffffffffffffff16815260200190815260200160002054610d179190613bb2565b9050919050565b600060016006604051610d3191906139e8565b908152602001604051809103902060050154905090565b60068054610d5590613914565b80601f0160208091040260200160405190810160405280929190818152602001828054610d8190613914565b8015610dce5780601f10610da357610100808354040283529160200191610dce565b820191906000526020600020905b815481529060010190602001808311610db157829003601f168201915b505050505081565b606060016006604051610de991906139e8565b90815260200160405180910390206000018054610e0590613914565b80601f0160208091040260200160405190810160405280929190818152602001828054610e3190613914565b8015610e7e5780601f10610e5357610100808354040283529160200191610e7e565b820191906000526020600020905b815481529060010190602001808311610e6157829003601f168201915b5050505050905090565b600060016006604051610e9b91906139e8565b908152602001604051809103902060040154905090565b600060016006604051610ec591906139e8565b908152602001604051809103902060090154905090565b60606009805480602002602001604051908101604052809291908181526020016000905b82821015610f9257838290600052602060002090600202016040518060400160405290816000820160009054906101000a900473ffffffffffffffffffffffffffffffffffffffff1673ffffffffffffffffffffffffffffffffffffffff1673ffffffffffffffffffffffffffffffffffffffff16815260200160018201548152505081526020019060010190610f00565b50505050905090565b606060016006604051610fae91906139e8565b90815260200160405180910390206002018054610fca90613914565b80601f0160208091040260200160405190810160405280929190818152602001828054610ff690613914565b80156110435780601f1061101857610100808354040283529160200191611043565b820191906000526020600020905b81548152906001019060200180831161102657829003601f168201915b5050505050905090565b600860009054906101000a900473ffffffffffffffffffffffffffffffffffffffff1681565b60003373ffffffffffffffffffffffffffffffffffffffff163273ffffffffffffffffffffffffffffffffffffffff16036110b0573290506110b4565b3390505b6110bf8184846119bf565b505050565b6000846000600860009054906101000a900473ffffffffffffffffffffffffffffffffffffffff1673ffffffffffffffffffffffffffffffffffffffff1663c3a2a93a6040518163ffffffff1660e01b815260040160a060405180830381865afa158015611136573d6000803e3d6000fd5b505050506040513d601f19601f8201168201806040525081019061115a9190613a14565b5050925050508073ffffffffffffffffffffffffffffffffffffffff1663b9209e33836040518263ffffffff1660e01b81526004016111999190613275565b602060405180830381865afa1580156111b6573d6000803e3d6000fd5b505050506040513d601f19601f820116820180604052508101906111da9190613abb565b611219576040517f08c379a000000000000000000000000000000000000000000000000000000000815260040161121090613b34565b60405180910390fd5b60003373ffffffffffffffffffffffffffffffffffffffff163273ffffffffffffffffffffffffffffffffffffffff16036112565732905061125a565b3390505b611265898289611c18565b6112728989898989611d2f565b6001935050505095945050505050565b600860009054906101000a900473ffffffffffffffffffffffffffffffffffffffff1673ffffffffffffffffffffffffffffffffffffffff163373ffffffffffffffffffffffffffffffffffffffff1614611312576040517f08c379a000000000000000000000000000000000000000000000000000000000815260040161130990613c2f565b60405180910390fd5b61131a612928565b565b6000846000600860009054906101000a900473ffffffffffffffffffffffffffffffffffffffff1673ffffffffffffffffffffffffffffffffffffffff1663c3a2a93a6040518163ffffffff1660e01b815260040160a060405180830381865afa15801561138e573d6000803e3d6000fd5b505050506040513d601f19601f820116820180604052508101906113b29190613a14565b5050925050508073ffffffffffffffffffffffffffffffffffffffff1663b9209e33836040518263ffffffff1660e01b81526004016113f19190613275565b602060405180830381865afa15801561140e573d6000803e3d6000fd5b505050506040513d601f19601f820116820180604052508101906114329190613abb565b611471576040517f08c379a000000000000000000000000000000000000000000000000000000000815260040161146890613b34565b60405180910390fd5b60003373ffffffffffffffffffffffffffffffffffffffff163273ffffffffffffffffffffffffffffffffffffffff16036114ae573290506114b2565b3390505b6114bf8189898989611d2f565b60019350505050949350505050565b6000600160066040516114e191906139e8565b908152602001604051809103902060060154905090565b600860149054906101000a900460ff1681565b60036020528060005260406000206000915054906101000a900460ff1681565b60006001600660405161153e91906139e8565b9081526020016040518091039020600a0154905090565b600860009054906101000a900473ffffffffffffffffffffffffffffffffffffffff1673ffffffffffffffffffffffffffffffffffffffff163373ffffffffffffffffffffffffffffffffffffffff16146115e5576040517f08c379a00000000000000000000000000000000000000000000000000000000081526004016115dc90613c2f565b60405180910390fd5b6115ee81612b7e565b50565b6000600560008473ffffffffffffffffffffffffffffffffffffffff1673ffffffffffffffffffffffffffffffffffffffff16815260200190815260200160002060008373ffffffffffffffffffffffffffffffffffffffff1673ffffffffffffffffffffffffffffffffffffffff16815260200190815260200160002054905092915050565b60006001600660405161168b91906139e8565b908152602001604051809103902060030160009054906101000a900473ffffffffffffffffffffffffffffffffffffffff16905090565b60046020528060005260406000206000915090505481565b600073ffffffffffffffffffffffffffffffffffffffff168373ffffffffffffffffffffffffffffffffffffffff160361171357600080fd5b600073ffffffffffffffffffffffffffffffffffffffff168273ffffffffffffffffffffffffffffffffffffffff160361174c57600080fd5b6000811161175957600080fd5b6000600260008573ffffffffffffffffffffffffffffffffffffffff1673ffffffffffffffffffffffffffffffffffffffff1681526020019081526020016000205490506000600560008673ffffffffffffffffffffffffffffffffffffffff1673ffffffffffffffffffffffffffffffffffffffff16815260200190815260200160002060008573ffffffffffffffffffffffffffffffffffffffff1673ffffffffffffffffffffffffffffffffffffffff16815260200190815260200160002054905060006001600660405161183191906139e8565b908152602001604051809103902060040154905060006001600660405161185891906139e8565b9081526020016040518091039020600a015490506000828561187a9190613bb2565b90508142106118be576040517f08c379a00000000000000000000000000000000000000000000000000000000081526004016118b590613c9b565b60405180910390fd5b808611156118cb57600080fd5b60008384886118da9190613cbb565b6118e49190613cfd565b146118ee57600080fd5b85846118fa9190613d2e565b600560008a73ffffffffffffffffffffffffffffffffffffffff1673ffffffffffffffffffffffffffffffffffffffff16815260200190815260200160002060008973ffffffffffffffffffffffffffffffffffffffff1673ffffffffffffffffffffffffffffffffffffffff168152602001908152602001600020819055507f8c5be1e5ebec7d5bd14f71427d1e84f3dd0314c0f7b2291e5b200ac8c7c3b9258888886040516119ad93929190613d62565b60405180910390a15050505050505050565b600073ffffffffffffffffffffffffffffffffffffffff168373ffffffffffffffffffffffffffffffffffffffff16036119f857600080fd5b600073ffffffffffffffffffffffffffffffffffffffff168273ffffffffffffffffffffffffffffffffffffffff1603611a3157600080fd5b60008111611a3e57600080fd5b6000600560008573ffffffffffffffffffffffffffffffffffffffff1673ffffffffffffffffffffffffffffffffffffffff16815260200190815260200160002060008473ffffffffffffffffffffffffffffffffffffffff1673ffffffffffffffffffffffffffffffffffffffff168152602001908152602001600020549050600060016006604051611ad291906139e8565b9081526020016040518091039020600401549050600060016006604051611af991906139e8565b9081526020016040518091039020600a01549050804210611b1957600080fd5b82841115611b2657600080fd5b6000828386611b359190613cbb565b611b3f9190613cfd565b14611b4957600080fd5b8383611b559190613d99565b600560008873ffffffffffffffffffffffffffffffffffffffff1673ffffffffffffffffffffffffffffffffffffffff16815260200190815260200160002060008773ffffffffffffffffffffffffffffffffffffffff1673ffffffffffffffffffffffffffffffffffffffff168152602001908152602001600020819055507f8c5be1e5ebec7d5bd14f71427d1e84f3dd0314c0f7b2291e5b200ac8c7c3b925868686604051611c0893929190613d62565b60405180910390a1505050505050565b6000600560008573ffffffffffffffffffffffffffffffffffffffff1673ffffffffffffffffffffffffffffffffffffffff16815260200190815260200160002060008473ffffffffffffffffffffffffffffffffffffffff1673ffffffffffffffffffffffffffffffffffffffff16815260200190815260200160002054905080821115611ca657600080fd5b818103600560008673ffffffffffffffffffffffffffffffffffffffff1673ffffffffffffffffffffffffffffffffffffffff16815260200190815260200160002060008573ffffffffffffffffffffffffffffffffffffffff1673ffffffffffffffffffffffffffffffffffffffff1681526020019081526020016000208190555050505050565b600073ffffffffffffffffffffffffffffffffffffffff168573ffffffffffffffffffffffffffffffffffffffff1603611d6857600080fd5b600073ffffffffffffffffffffffffffffffffffffffff168473ffffffffffffffffffffffffffffffffffffffff1603611da157600080fd5b60008311611dae57600080fd5b6000600260008773ffffffffffffffffffffffffffffffffffffffff1673ffffffffffffffffffffffffffffffffffffffff168152602001908152602001600020549050600060016006604051611e0591906139e8565b9081526020016040518091039020600401549050600060016006604051611e2c91906139e8565b9081526020016040518091039020600a0154905060008284611e4e9190613bb2565b9050814210611e92576040517f08c379a0000000000000000000000000000000000000000000000000000000008152600401611e8990613c9b565b60405180910390fd5b80871115611e9f57600080fd5b6000838489611eae9190613cbb565b611eb89190613cfd565b14611ec257600080fd5b611ecf8989898989613027565b6000600260008a73ffffffffffffffffffffffffffffffffffffffff1673ffffffffffffffffffffffffffffffffffffffff16815260200190815260200160002054905060008489029050808603600260008d73ffffffffffffffffffffffffffffffffffffffff1673ffffffffffffffffffffffffffffffffffffffff16815260200190815260200160002081905550808201600260008c73ffffffffffffffffffffffffffffffffffffffff1673ffffffffffffffffffffffffffffffffffffffff168152602001908152602001600020819055508289036123d8576000600360008d73ffffffffffffffffffffffffffffffffffffffff1673ffffffffffffffffffffffffffffffffffffffff16815260200190815260200160002060006101000a81548160ff021916908315150217905550600360008b73ffffffffffffffffffffffffffffffffffffffff1673ffffffffffffffffffffffffffffffffffffffff16815260200190815260200160002060009054906101000a900460ff166121d2576001600360008c73ffffffffffffffffffffffffffffffffffffffff1673ffffffffffffffffffffffffffffffffffffffff16815260200190815260200160002060006101000a81548160ff02191690831515021790555060405180604001604052808b73ffffffffffffffffffffffffffffffffffffffff168152602001600260008d73ffffffffffffffffffffffffffffffffffffffff1673ffffffffffffffffffffffffffffffffffffffff168152602001908152602001600020548152506009600460008e73ffffffffffffffffffffffffffffffffffffffff1673ffffffffffffffffffffffffffffffffffffffff168152602001908152602001600020548154811061216b5761216a613dcd565b5b906000526020600020906002020160008201518160000160006101000a81548173ffffffffffffffffffffffffffffffffffffffff021916908373ffffffffffffffffffffffffffffffffffffffff160217905550602082015181600101559050506123d3565b60405180604001604052808c73ffffffffffffffffffffffffffffffffffffffff16815260200160008152506009600460008e73ffffffffffffffffffffffffffffffffffffffff1673ffffffffffffffffffffffffffffffffffffffff168152602001908152602001600020548154811061225157612250613dcd565b5b906000526020600020906002020160008201518160000160006101000a81548173ffffffffffffffffffffffffffffffffffffffff021916908373ffffffffffffffffffffffffffffffffffffffff1602179055506020820151816001015590505060405180604001604052808b73ffffffffffffffffffffffffffffffffffffffff168152602001600260008d73ffffffffffffffffffffffffffffffffffffffff1673ffffffffffffffffffffffffffffffffffffffff168152602001908152602001600020548152506009600460008d73ffffffffffffffffffffffffffffffffffffffff1673ffffffffffffffffffffffffffffffffffffffff16815260200190815260200160002054815481106123705761236f613dcd565b5b906000526020600020906002020160008201518160000160006101000a81548173ffffffffffffffffffffffffffffffffffffffff021916908373ffffffffffffffffffffffffffffffffffffffff160217905550602082015181600101559050505b6128d3565b600360008b73ffffffffffffffffffffffffffffffffffffffff1673ffffffffffffffffffffffffffffffffffffffff16815260200190815260200160002060009054906101000a900460ff16612693576000600460008d73ffffffffffffffffffffffffffffffffffffffff1673ffffffffffffffffffffffffffffffffffffffff16815260200190815260200160002054905060405180604001604052808d73ffffffffffffffffffffffffffffffffffffffff168152602001600260008f73ffffffffffffffffffffffffffffffffffffffff1673ffffffffffffffffffffffffffffffffffffffff16815260200190815260200160002054815250600982815481106124eb576124ea613dcd565b5b906000526020600020906002020160008201518160000160006101000a81548173ffffffffffffffffffffffffffffffffffffffff021916908373ffffffffffffffffffffffffffffffffffffffff160217905550602082015181600101559050506001600360008d73ffffffffffffffffffffffffffffffffffffffff1673ffffffffffffffffffffffffffffffffffffffff16815260200190815260200160002060006101000a81548160ff021916908315150217905550600960405180604001604052808d73ffffffffffffffffffffffffffffffffffffffff168152602001600260008f73ffffffffffffffffffffffffffffffffffffffff1673ffffffffffffffffffffffffffffffffffffffff16815260200190815260200160002054815250908060018154018082558091505060019003906000526020600020906002020160009091909190915060008201518160000160006101000a81548173ffffffffffffffffffffffffffffffffffffffff021916908373ffffffffffffffffffffffffffffffffffffffff160217905550602082015181600101555050506128d2565b60405180604001604052808c73ffffffffffffffffffffffffffffffffffffffff168152602001600260008e73ffffffffffffffffffffffffffffffffffffffff1673ffffffffffffffffffffffffffffffffffffffff168152602001908152602001600020548152506009600460008e73ffffffffffffffffffffffffffffffffffffffff1673ffffffffffffffffffffffffffffffffffffffff16815260200190815260200160002054815481106127505761274f613dcd565b5b906000526020600020906002020160008201518160000160006101000a81548173ffffffffffffffffffffffffffffffffffffffff021916908373ffffffffffffffffffffffffffffffffffffffff1602179055506020820151816001015590505060405180604001604052808b73ffffffffffffffffffffffffffffffffffffffff168152602001600260008d73ffffffffffffffffffffffffffffffffffffffff1673ffffffffffffffffffffffffffffffffffffffff168152602001908152602001600020548152506009600460008d73ffffffffffffffffffffffffffffffffffffffff1673ffffffffffffffffffffffffffffffffffffffff168152602001908152602001600020548154811061286f5761286e613dcd565b5b906000526020600020906002020160008201518160000160006101000a81548173ffffffffffffffffffffffffffffffffffffffff021916908373ffffffffffffffffffffffffffffffffffffffff160217905550602082015181600101559050505b5b506128e18a8a8a8a8a61302e565b7fddf252ad1be2c89b69c2b068fc378daa952ba7f163c4a11628f55a4df523b3ef8a8a8a60405161291493929190613d62565b60405180910390a150505050505050505050565b6000600181111561293c5761293b6137a5565b5b600860149054906101000a900460ff16600181111561295e5761295d6137a5565b5b1461296857600080fd5b6001600660405161297991906139e8565b9081526020016040518091039020600a0154421161299657600080fd5b6001600860146101000a81548160ff021916908360018111156129bc576129bb6137a5565b5b02179055506000600860009054906101000a900473ffffffffffffffffffffffffffffffffffffffff1673ffffffffffffffffffffffffffffffffffffffff1663c8d7f62e60066040518263ffffffff1660e01b8152600401612a1f9190613e80565b600060405180830381865afa158015612a3c573d6000803e3d6000fd5b505050506040513d6000823e3d601f19601f82011682018060405250810190612a659190613fcf565b905060005b8151811015612b7a57600060026000848481518110612a8c57612a8b613dcd565b5b60200260200101516000015173ffffffffffffffffffffffffffffffffffffffff1673ffffffffffffffffffffffffffffffffffffffff1681526020019081526020016000205414612b6757600060026000848481518110612af157612af0613dcd565b5b60200260200101516000015173ffffffffffffffffffffffffffffffffffffffff1673ffffffffffffffffffffffffffffffffffffffff16815260200190815260200160002081905550600060098281548110612b5157612b50613dcd565b5b9060005260206000209060020201600101819055505b8080612b7290614018565b915050612a6a565b5050565b6000600860009054906101000a900473ffffffffffffffffffffffffffffffffffffffff1673ffffffffffffffffffffffffffffffffffffffff1663605936ea60066040518263ffffffff1660e01b8152600401612bdc9190613e80565b602060405180830381865afa158015612bf9573d6000803e3d6000fd5b505050506040513d601f19601f82011682018060405250810190612c1d9190614060565b9050808260a0013514612c2f57600080fd5b6000600860009054906101000a900473ffffffffffffffffffffffffffffffffffffffff1673ffffffffffffffffffffffffffffffffffffffff1663c8d7f62e60066040518263ffffffff1660e01b8152600401612c8d9190613e80565b600060405180830381865afa158015612caa573d6000803e3d6000fd5b505050506040513d6000823e3d601f19601f82011682018060405250810190612cd39190613fcf565b9050600060016006604051612ce891906139e8565b90815260200160405180910390206004015490506000805b8351811015612f64576000848281518110612d1e57612d1d613dcd565b5b60200260200101516000015190506000858381518110612d4157612d40613dcd565b5b6020026020010151602001519050600073ffffffffffffffffffffffffffffffffffffffff168273ffffffffffffffffffffffffffffffffffffffff1603612d8857600080fd5b60008114158015612daf57506000858683612da39190613cbb565b612dad9190613cbb565b145b612db857600080fd5b8084612dc49190613d2e565b935080600260008473ffffffffffffffffffffffffffffffffffffffff1673ffffffffffffffffffffffffffffffffffffffff168152602001908152602001600020819055506001600360008473ffffffffffffffffffffffffffffffffffffffff1673ffffffffffffffffffffffffffffffffffffffff16815260200190815260200160002060006101000a81548160ff02191690831515021790555082600460008473ffffffffffffffffffffffffffffffffffffffff1673ffffffffffffffffffffffffffffffffffffffff16815260200190815260200160002081905550600960405180604001604052808473ffffffffffffffffffffffffffffffffffffffff16815260200183815250908060018154018082558091505060019003906000526020600020906002020160009091909190915060008201518160000160006101000a81548173ffffffffffffffffffffffffffffffffffffffff021916908373ffffffffffffffffffffffffffffffffffffffff16021790555060208201518160010155505050508080612f5c90614018565b915050612d00565b508460016006604051612f7791906139e8565b90815260200160405180910390208181612f9191906146d9565b9050504260016006604051612fa691906139e8565b9081526020016040518091039020600901819055506000600860146101000a81548160ff02191690836001811115612fe157612fe06137a5565b5b02179055504260016006604051612ff891906139e8565b9081526020016040518091039020600a01541161301457600080fd5b83811461302057600080fd5b5050505050565b5050505050565b5050505050565b600060ff82169050919050565b61304b81613035565b82525050565b60006020820190506130666000830184613042565b92915050565b600081519050919050565b600082825260208201905092915050565b60005b838110156130a657808201518184015260208101905061308b565b60008484015250505050565b6000601f19601f8301169050919050565b60006130ce8261306c565b6130d88185613077565b93506130e8818560208601613088565b6130f1816130b2565b840191505092915050565b6000602082019050818103600083015261311681846130c3565b905092915050565b6000604051905090565b600080fd5b600080fd5b600073ffffffffffffffffffffffffffffffffffffffff82169050919050565b600061315d82613132565b9050919050565b61316d81613152565b811461317857600080fd5b50565b60008135905061318a81613164565b92915050565b6000819050919050565b6131a381613190565b81146131ae57600080fd5b50565b6000813590506131c08161319a565b92915050565b600080604083850312156131dd576131dc613128565b5b60006131eb8582860161317b565b92505060206131fc858286016131b1565b9150509250929050565b60008115159050919050565b61321b81613206565b82525050565b60006020820190506132366000830184613212565b92915050565b61324581613190565b82525050565b6000602082019050613260600083018461323c565b92915050565b61326f81613152565b82525050565b600060208201905061328a6000830184613266565b92915050565b600080fd5b600080fd5b7f4e487b7100000000000000000000000000000000000000000000000000000000600052604160045260246000fd5b6132d2826130b2565b810181811067ffffffffffffffff821117156132f1576132f061329a565b5b80604052505050565b600061330461311e565b905061331082826132c9565b919050565b600067ffffffffffffffff8211156133305761332f61329a565b5b613339826130b2565b9050602081019050919050565b82818337600083830152505050565b600061336861336384613315565b6132fa565b90508281526020810184848401111561338457613383613295565b5b61338f848285613346565b509392505050565b600082601f8301126133ac576133ab613290565b5b81356133bc848260208601613355565b91505092915050565b6000602082840312156133db576133da613128565b5b600082013567ffffffffffffffff8111156133f9576133f861312d565b5b61340584828501613397565b91505092915050565b60006040820190506134236000830185613266565b818103602083015261343581846130c3565b90509392505050565b6000610160820190508181036000830152613459818e6130c3565b9050818103602083015261346d818d6130c3565b90508181036040830152613481818c6130c3565b9050613490606083018b613266565b61349d608083018a61323c565b6134aa60a083018961323c565b6134b760c083018861323c565b6134c460e0830187613042565b6134d261010083018661323c565b6134e061012083018561323c565b6134ee61014083018461323c565b9c9b505050505050505050505050565b60006020828403121561351457613513613128565b5b60006135228482850161317b565b91505092915050565b600081519050919050565b600082825260208201905092915050565b6000819050602082019050919050565b61356081613152565b82525050565b61356f81613190565b82525050565b60408201600082015161358b6000850182613557565b50602082015161359e6020850182613566565b50505050565b60006135b08383613575565b60408301905092915050565b6000602082019050919050565b60006135d48261352b565b6135de8185613536565b93506135e983613547565b8060005b8381101561361a57815161360188826135a4565b975061360c836135bc565b9250506001810190506135ed565b5085935050505092915050565b6000602082019050818103600083015261364181846135c9565b905092915050565b600080fd5b600080fd5b60008083601f84011261366957613668613290565b5b8235905067ffffffffffffffff81111561368657613685613649565b5b6020830191508360018202830111156136a2576136a161364e565b5b9250929050565b6000806000806000608086880312156136c5576136c4613128565b5b60006136d38882890161317b565b95505060206136e48882890161317b565b94505060406136f5888289016131b1565b935050606086013567ffffffffffffffff8111156137165761371561312d565b5b61372288828901613653565b92509250509295509295909350565b6000806000806060858703121561374b5761374a613128565b5b60006137598782880161317b565b945050602061376a878288016131b1565b935050604085013567ffffffffffffffff81111561378b5761378a61312d565b5b61379787828801613653565b925092505092959194509250565b7f4e487b7100000000000000000000000000000000000000000000000000000000600052602160045260246000fd5b600281106137e5576137e46137a5565b5b50565b60008190506137f6826137d4565b919050565b6000613806826137e8565b9050919050565b613816816137fb565b82525050565b6000602082019050613831600083018461380d565b92915050565b600080fd5b6000610160828403121561385357613852613837565b5b81905092915050565b60006020828403121561387257613871613128565b5b600082013567ffffffffffffffff8111156138905761388f61312d565b5b61389c8482850161383c565b91505092915050565b600080604083850312156138bc576138bb613128565b5b60006138ca8582860161317b565b92505060206138db8582860161317b565b9150509250929050565b7f4e487b7100000000000000000000000000000000000000000000000000000000600052602260045260246000fd5b6000600282049050600182168061392c57607f821691505b60208210810361393f5761393e6138e5565b5b50919050565b600081905092915050565b60008190508160005260206000209050919050565b6000815461397281613914565b61397c8186613945565b9450600182166000811461399757600181146139ac576139df565b60ff19831686528115158202860193506139df565b6139b585613950565b60005b838110156139d7578154818901526001820191506020810190506139b8565b838801955050505b50505092915050565b60006139f48284613965565b915081905092915050565b600081519050613a0e81613164565b92915050565b600080600080600060a08688031215613a3057613a2f613128565b5b6000613a3e888289016139ff565b9550506020613a4f888289016139ff565b9450506040613a60888289016139ff565b9350506060613a71888289016139ff565b9250506080613a82888289016139ff565b9150509295509295909350565b613a9881613206565b8114613aa357600080fd5b50565b600081519050613ab581613a8f565b92915050565b600060208284031215613ad157613ad0613128565b5b6000613adf84828501613aa6565b91505092915050565b7f4143434f554e545f4e4f545f414150524f564544000000000000000000000000600082015250565b6000613b1e601483613077565b9150613b2982613ae8565b602082019050919050565b60006020820190508181036000830152613b4d81613b11565b9050919050565b7f4e487b7100000000000000000000000000000000000000000000000000000000600052601260045260246000fd5b7f4e487b7100000000000000000000000000000000000000000000000000000000600052601160045260246000fd5b6000613bbd82613190565b9150613bc883613190565b925082613bd857613bd7613b54565b5b828204905092915050565b7f4f4e4c595f544f504f535f42414e4b5f434f4e54524143540000000000000000600082015250565b6000613c19601883613077565b9150613c2482613be3565b602082019050919050565b60006020820190508181036000830152613c4881613c0c565b9050919050565b7f6d61747572656400000000000000000000000000000000000000000000000000600082015250565b6000613c85600783613077565b9150613c9082613c4f565b602082019050919050565b60006020820190508181036000830152613cb481613c78565b9050919050565b6000613cc682613190565b9150613cd183613190565b9250828202613cdf81613190565b91508282048414831517613cf657613cf5613b83565b5b5092915050565b6000613d0882613190565b9150613d1383613190565b925082613d2357613d22613b54565b5b828206905092915050565b6000613d3982613190565b9150613d4483613190565b9250828201905080821115613d5c57613d5b613b83565b5b92915050565b6000606082019050613d776000830186613266565b613d846020830185613266565b613d91604083018461323c565b949350505050565b6000613da482613190565b9150613daf83613190565b9250828203905081811115613dc757613dc6613b83565b5b92915050565b7f4e487b7100000000000000000000000000000000000000000000000000000000600052603260045260246000fd5b60008154613e0981613914565b613e138186613077565b94506001821660008114613e2e5760018114613e4457613e77565b60ff198316865281151560200286019350613e77565b613e4d85613950565b60005b83811015613e6f57815481890152600182019150602081019050613e50565b808801955050505b50505092915050565b60006020820190508181036000830152613e9a8184613dfc565b905092915050565b600067ffffffffffffffff821115613ebd57613ebc61329a565b5b602082029050602081019050919050565b600080fd5b600081519050613ee28161319a565b92915050565b600060408284031215613efe57613efd613ece565b5b613f0860406132fa565b90506000613f18848285016139ff565b6000830152506020613f2c84828501613ed3565b60208301525092915050565b6000613f4b613f4684613ea2565b6132fa565b90508083825260208201905060408402830185811115613f6e57613f6d61364e565b5b835b81811015613f975780613f838882613ee8565b845260208401935050604081019050613f70565b5050509392505050565b600082601f830112613fb657613fb5613290565b5b8151613fc6848260208601613f38565b91505092915050565b600060208284031215613fe557613fe4613128565b5b600082015167ffffffffffffffff8111156140035761400261312d565b5b61400f84828501613fa1565b91505092915050565b600061402382613190565b91507fffffffffffffffffffffffffffffffffffffffffffffffffffffffffffffffff820361405557614054613b83565b5b600182019050919050565b60006020828403121561407657614075613128565b5b600061408484828501613ed3565b91505092915050565b600080fd5b600080fd5b600080fd5b600080833560016020038436030381126140b9576140b861408d565b5b80840192508235915067ffffffffffffffff8211156140db576140da614092565b5b6020830192506001820236038313156140f7576140f6614097565b5b509250929050565b600082905092915050565b60006020601f8301049050919050565b600082821b905092915050565b6000600883026141577fffffffffffffffffffffffffffffffffffffffffffffffffffffffffffffffff8261411a565b614161868361411a565b95508019841693508086168417925050509392505050565b6000819050919050565b600061419e61419961419484613190565b614179565b613190565b9050919050565b6000819050919050565b6141b883614183565b6141cc6141c4826141a5565b848454614127565b825550505050565b600090565b6141e16141d4565b6141ec8184846141af565b505050565b5b81811015614210576142056000826141d9565b6001810190506141f2565b5050565b601f8211156142555761422681613950565b61422f8461410a565b8101602085101561423e578190505b61425261424a8561410a565b8301826141f1565b50505b505050565b600082821c905092915050565b60006142786000198460080261425a565b1980831691505092915050565b60006142918383614267565b9150826002028217905092915050565b6142ab83836140ff565b67ffffffffffffffff8111156142c4576142c361329a565b5b6142ce8254613914565b6142d9828285614214565b6000601f83116001811461430857600084156142f6578287013590505b6143008582614285565b865550614368565b601f19841661431686613950565b60005b8281101561433e57848901358255600182019150602085019450602081019050614319565b8683101561435b5784890135614357601f891682614267565b8355505b6001600288020188555050505b50505050505050565b61437c8383836142a1565b505050565b6000813561438e81613164565b80915050919050565b60008160001b9050919050565b600073ffffffffffffffffffffffffffffffffffffffff6143c484614397565b9350801983169250808416831791505092915050565b60006143f56143f06143eb84613132565b614179565b613132565b9050919050565b6000614407826143da565b9050919050565b6000614419826143fc565b9050919050565b6000819050919050565b6144338261440e565b61444661443f82614420565b83546143a4565b8255505050565b6000813561445a8161319a565b80915050919050565b60007fffffffffffffffffffffffffffffffffffffffffffffffffffffffffffffffff61448f84614397565b9350801983169250808416831791505092915050565b6144ae82614183565b6144c16144ba826141a5565b8354614463565b8255505050565b6144d181613035565b81146144dc57600080fd5b50565b600081356144ec816144c8565b80915050919050565b600060ff61450284614397565b9350801983169250808416831791505092915050565b600061453361452e61452984613035565b614179565b613035565b9050919050565b6000819050919050565b61454d82614518565b6145606145598261453a565b83546144f5565b8255505050565b6000810160008301614579818561409c565b614584818386614371565b50505050600181016020830161459a818561409c565b6145a5818386614371565b5050505060028101604083016145bb818561409c565b6145c6818386614371565b505050506003810160608301806145dc81614381565b90506145e8818461442a565b5050506004810160808301806145fd8161444d565b905061460981846144a5565b5050506005810160a083018061461e8161444d565b905061462a81846144a5565b5050506006810160c083018061463f8161444d565b905061464b81846144a5565b5050506007810160e0830180614660816144df565b905061466c8184614544565b505050600881016101008301806146828161444d565b905061468e81846144a5565b505050600981016101208301806146a48161444d565b90506146b081846144a5565b505050600a81016101408301806146c68161444d565b90506146d281846144a5565b5050505050565b6146e38282614567565b505056fea2646970667358221220b7adbbc88333b7a81c54faa4ca2a41703a7b111b90dfb9958f8c7a3b7086977864736f6c63430008130033a2646970667358221220e6763a0e65ed4ffe1994d770c880f2d9e104572edd42d1ce10288a5ce7fc4f2464736f6c63430008130033","opcodes":"PUSH1 0x80 PUSH1 0x40 MSTORE CALLVALUE DUP1 ISZERO PUSH2 0x10 JUMPI PUSH1 0x0 DUP1 REVERT JUMPDEST POP PUSH1 0x40 MLOAD PUSH3 0x5AB2 CODESIZE SUB DUP1 PUSH3 0x5AB2 DUP4 CODECOPY DUP2 DUP2 ADD PUSH1 0x40 MSTORE DUP2 ADD SWAP1 PUSH2 0x34 SWAP2 SWAP1 PUSH2 0x11F JUMP JUMPDEST CALLER PUSH1 0x1 PUSH1 0x0 PUSH2 0x100 EXP DUP2 SLOAD DUP2 PUSH20 0xFFFFFFFFFFFFFFFFFFFFFFFFFFFFFFFFFFFFFFFF MUL NOT AND SWAP1 DUP4 PUSH20 0xFFFFFFFFFFFFFFFFFFFFFFFFFFFFFFFFFFFFFFFF AND MUL OR SWAP1 SSTORE POP DUP1 PUSH1 0x2 PUSH1 0x0 PUSH2 0x100 EXP DUP2 SLOAD DUP2 PUSH20 0xFFFFFFFFFFFFFFFFFFFFFFFFFFFFFFFFFFFFFFFF MUL NOT AND SWAP1 DUP4 PUSH20 0xFFFFFFFFFFFFFFFFFFFFFFFFFFFFFFFFFFFFFFFF AND MUL OR SWAP1 SSTORE POP POP PUSH2 0x14C JUMP JUMPDEST PUSH1 0x0 DUP1 REVERT JUMPDEST PUSH1 0x0 PUSH20 0xFFFFFFFFFFFFFFFFFFFFFFFFFFFFFFFFFFFFFFFF DUP3 AND SWAP1 POP SWAP2 SWAP1 POP JUMP JUMPDEST PUSH1 0x0 PUSH2 0xEC DUP3 PUSH2 0xC1 JUMP JUMPDEST SWAP1 POP SWAP2 SWAP1 POP JUMP JUMPDEST PUSH2 0xFC DUP2 PUSH2 0xE1 JUMP JUMPDEST DUP2 EQ PUSH2 0x107 JUMPI PUSH1 0x0 DUP1 REVERT JUMPDEST POP JUMP JUMPDEST PUSH1 0x0 DUP2 MLOAD SWAP1 POP PUSH2 0x119 DUP2 PUSH2 0xF3 JUMP JUMPDEST SWAP3 SWAP2 POP POP JUMP JUMPDEST PUSH1 0x0 PUSH1 0x20 DUP3 DUP5 SUB SLT ISZERO PUSH2 0x135 JUMPI PUSH2 0x134 PUSH2 0xBC JUMP JUMPDEST JUMPDEST PUSH1 0x0 PUSH2 0x143 DUP5 DUP3 DUP6 ADD PUSH2 0x10A JUMP JUMPDEST SWAP2 POP POP SWAP3 SWAP2 POP POP JUMP JUMPDEST PUSH2 0x5956 DUP1 PUSH3 0x15C PUSH1 0x0 CODECOPY PUSH1 0x0 RETURN INVALID PUSH1 0x80 PUSH1 0x40 MSTORE CALLVALUE DUP1 ISZERO PUSH3 0x11 JUMPI PUSH1 0x0 DUP1 REVERT JUMPDEST POP PUSH1 0x4 CALLDATASIZE LT PUSH3 0x52 JUMPI PUSH1 0x0 CALLDATALOAD PUSH1 0xE0 SHR DUP1 PUSH4 0x6F0E27A EQ PUSH3 0x57 JUMPI DUP1 PUSH4 0x7F31ED73 EQ PUSH3 0x8D JUMPI DUP1 PUSH4 0x9C34712A EQ PUSH3 0xAF JUMPI DUP1 PUSH4 0xC0445117 EQ PUSH3 0xD1 JUMPI JUMPDEST PUSH1 0x0 DUP1 REVERT JUMPDEST PUSH3 0x75 PUSH1 0x4 DUP1 CALLDATASIZE SUB DUP2 ADD SWAP1 PUSH3 0x6F SWAP2 SWAP1 PUSH3 0x550 JUMP JUMPDEST PUSH3 0xF1 JUMP JUMPDEST PUSH1 0x40 MLOAD PUSH3 0x84 SWAP2 SWAP1 PUSH3 0x5BE JUMP JUMPDEST PUSH1 0x40 MLOAD DUP1 SWAP2 SUB SWAP1 RETURN JUMPDEST PUSH3 0x97 PUSH3 0x127 JUMP JUMPDEST PUSH1 0x40 MLOAD PUSH3 0xA6 SWAP2 SWAP1 PUSH3 0x620 JUMP JUMPDEST PUSH1 0x40 MLOAD DUP1 SWAP2 SUB SWAP1 RETURN JUMPDEST PUSH3 0xB9 PUSH3 0x14D JUMP JUMPDEST PUSH1 0x40 MLOAD PUSH3 0xC8 SWAP2 SWAP1 PUSH3 0x620 JUMP JUMPDEST PUSH1 0x40 MLOAD DUP1 SWAP2 SUB SWAP1 RETURN JUMPDEST PUSH3 0xEF PUSH1 0x4 DUP1 CALLDATASIZE SUB DUP2 ADD SWAP1 PUSH3 0xE9 SWAP2 SWAP1 PUSH3 0x6D7 JUMP JUMPDEST PUSH3 0x173 JUMP JUMPDEST STOP JUMPDEST PUSH1 0x0 DUP2 DUP1 MLOAD PUSH1 0x20 DUP2 ADD DUP3 ADD DUP1 MLOAD DUP5 DUP3 MSTORE PUSH1 0x20 DUP4 ADD PUSH1 0x20 DUP6 ADD KECCAK256 DUP2 DUP4 MSTORE DUP1 SWAP6 POP POP POP POP POP POP PUSH1 0x0 SWAP2 POP SLOAD SWAP1 PUSH2 0x100 EXP SWAP1 DIV PUSH1 0xFF AND DUP2 JUMP JUMPDEST PUSH1 0x1 PUSH1 0x0 SWAP1 SLOAD SWAP1 PUSH2 0x100 EXP SWAP1 DIV PUSH20 0xFFFFFFFFFFFFFFFFFFFFFFFFFFFFFFFFFFFFFFFF AND DUP2 JUMP JUMPDEST PUSH1 0x2 PUSH1 0x0 SWAP1 SLOAD SWAP1 PUSH2 0x100 EXP SWAP1 DIV PUSH20 0xFFFFFFFFFFFFFFFFFFFFFFFFFFFFFFFFFFFFFFFF AND DUP2 JUMP JUMPDEST PUSH1 0x1 PUSH1 0x0 SWAP1 SLOAD SWAP1 PUSH2 0x100 EXP SWAP1 DIV PUSH20 0xFFFFFFFFFFFFFFFFFFFFFFFFFFFFFFFFFFFFFFFF AND PUSH20 0xFFFFFFFFFFFFFFFFFFFFFFFFFFFFFFFFFFFFFFFF AND CALLER PUSH20 0xFFFFFFFFFFFFFFFFFFFFFFFFFFFFFFFFFFFFFFFF AND EQ PUSH3 0x206 JUMPI PUSH1 0x40 MLOAD PUSH32 0x8C379A000000000000000000000000000000000000000000000000000000000 DUP2 MSTORE PUSH1 0x4 ADD PUSH3 0x1FD SWAP1 PUSH3 0x7F0 JUMP JUMPDEST PUSH1 0x40 MLOAD DUP1 SWAP2 SUB SWAP1 REVERT JUMPDEST PUSH1 0x0 DUP7 DUP7 PUSH1 0x40 MLOAD PUSH3 0x21A SWAP3 SWAP2 SWAP1 PUSH3 0x846 JUMP JUMPDEST SWAP1 DUP2 MSTORE PUSH1 0x20 ADD PUSH1 0x40 MLOAD DUP1 SWAP2 SUB SWAP1 KECCAK256 PUSH1 0x0 SWAP1 SLOAD SWAP1 PUSH2 0x100 EXP SWAP1 DIV PUSH1 0xFF AND ISZERO PUSH3 0x279 JUMPI PUSH1 0x40 MLOAD PUSH32 0x8C379A000000000000000000000000000000000000000000000000000000000 DUP2 MSTORE PUSH1 0x4 ADD PUSH3 0x270 SWAP1 PUSH3 0x8B1 JUMP JUMPDEST PUSH1 0x40 MLOAD DUP1 SWAP2 SUB SWAP1 REVERT JUMPDEST PUSH1 0x0 DUP7 DUP7 PUSH1 0x40 MLOAD PUSH1 0x20 ADD PUSH3 0x290 SWAP3 SWAP2 SWAP1 PUSH3 0x846 JUMP JUMPDEST PUSH1 0x40 MLOAD PUSH1 0x20 DUP2 DUP4 SUB SUB DUP2 MSTORE SWAP1 PUSH1 0x40 MSTORE PUSH3 0x2AA SWAP1 PUSH3 0x91C JUMP JUMPDEST DUP8 DUP8 DUP8 DUP8 DUP8 DUP8 PUSH1 0x40 MLOAD PUSH3 0x2BE SWAP1 PUSH3 0x3CC JUMP JUMPDEST PUSH3 0x2CF SWAP7 SWAP6 SWAP5 SWAP4 SWAP3 SWAP2 SWAP1 PUSH3 0x9BF JUMP JUMPDEST DUP2 SWAP1 PUSH1 0x40 MLOAD DUP1 SWAP2 SUB SWAP1 PUSH1 0x0 CREATE2 SWAP1 POP DUP1 ISZERO DUP1 ISZERO PUSH3 0x2F0 JUMPI RETURNDATASIZE PUSH1 0x0 DUP1 RETURNDATACOPY RETURNDATASIZE PUSH1 0x0 REVERT JUMPDEST POP SWAP1 POP PUSH1 0x2 PUSH1 0x0 SWAP1 SLOAD SWAP1 PUSH2 0x100 EXP SWAP1 DIV PUSH20 0xFFFFFFFFFFFFFFFFFFFFFFFFFFFFFFFFFFFFFFFF AND PUSH20 0xFFFFFFFFFFFFFFFFFFFFFFFFFFFFFFFFFFFFFFFF AND PUSH4 0x1882C195 DUP9 DUP9 DUP5 PUSH1 0x40 MLOAD DUP5 PUSH4 0xFFFFFFFF AND PUSH1 0xE0 SHL DUP2 MSTORE PUSH1 0x4 ADD PUSH3 0x354 SWAP4 SWAP3 SWAP2 SWAP1 PUSH3 0xA1E JUMP JUMPDEST PUSH1 0x0 PUSH1 0x40 MLOAD DUP1 DUP4 SUB DUP2 PUSH1 0x0 DUP8 DUP1 EXTCODESIZE ISZERO DUP1 ISZERO PUSH3 0x36F JUMPI PUSH1 0x0 DUP1 REVERT JUMPDEST POP GAS CALL ISZERO DUP1 ISZERO PUSH3 0x384 JUMPI RETURNDATASIZE PUSH1 0x0 DUP1 RETURNDATACOPY RETURNDATASIZE PUSH1 0x0 REVERT JUMPDEST POP POP POP POP PUSH1 0x1 PUSH1 0x0 DUP9 DUP9 PUSH1 0x40 MLOAD PUSH3 0x39E SWAP3 SWAP2 SWAP1 PUSH3 0x846 JUMP JUMPDEST SWAP1 DUP2 MSTORE PUSH1 0x20 ADD PUSH1 0x40 MLOAD DUP1 SWAP2 SUB SWAP1 KECCAK256 PUSH1 0x0 PUSH2 0x100 EXP DUP2 SLOAD DUP2 PUSH1 0xFF MUL NOT AND SWAP1 DUP4 ISZERO ISZERO MUL OR SWAP1 SSTORE POP POP POP POP POP POP POP POP JUMP JUMPDEST PUSH2 0x4ECC DUP1 PUSH3 0xA55 DUP4 CODECOPY ADD SWAP1 JUMP JUMPDEST PUSH1 0x0 PUSH1 0x40 MLOAD SWAP1 POP SWAP1 JUMP JUMPDEST PUSH1 0x0 DUP1 REVERT JUMPDEST PUSH1 0x0 DUP1 REVERT JUMPDEST PUSH1 0x0 DUP1 REVERT JUMPDEST PUSH1 0x0 DUP1 REVERT JUMPDEST PUSH1 0x0 PUSH1 0x1F NOT PUSH1 0x1F DUP4 ADD AND SWAP1 POP SWAP2 SWAP1 POP JUMP JUMPDEST PUSH32 0x4E487B7100000000000000000000000000000000000000000000000000000000 PUSH1 0x0 MSTORE PUSH1 0x41 PUSH1 0x4 MSTORE PUSH1 0x24 PUSH1 0x0 REVERT JUMPDEST PUSH3 0x443 DUP3 PUSH3 0x3F8 JUMP JUMPDEST DUP2 ADD DUP2 DUP2 LT PUSH8 0xFFFFFFFFFFFFFFFF DUP3 GT OR ISZERO PUSH3 0x465 JUMPI PUSH3 0x464 PUSH3 0x409 JUMP JUMPDEST JUMPDEST DUP1 PUSH1 0x40 MSTORE POP POP POP JUMP JUMPDEST PUSH1 0x0 PUSH3 0x47A PUSH3 0x3DA JUMP JUMPDEST SWAP1 POP PUSH3 0x488 DUP3 DUP3 PUSH3 0x438 JUMP JUMPDEST SWAP2 SWAP1 POP JUMP JUMPDEST PUSH1 0x0 PUSH8 0xFFFFFFFFFFFFFFFF DUP3 GT ISZERO PUSH3 0x4AB JUMPI PUSH3 0x4AA PUSH3 0x409 JUMP JUMPDEST JUMPDEST PUSH3 0x4B6 DUP3 PUSH3 0x3F8 JUMP JUMPDEST SWAP1 POP PUSH1 0x20 DUP2 ADD SWAP1 POP SWAP2 SWAP1 POP JUMP JUMPDEST DUP3 DUP2 DUP4 CALLDATACOPY PUSH1 0x0 DUP4 DUP4 ADD MSTORE POP POP POP JUMP JUMPDEST PUSH1 0x0 PUSH3 0x4E9 PUSH3 0x4E3 DUP5 PUSH3 0x48D JUMP JUMPDEST PUSH3 0x46E JUMP JUMPDEST SWAP1 POP DUP3 DUP2 MSTORE PUSH1 0x20 DUP2 ADD DUP5 DUP5 DUP5 ADD GT ISZERO PUSH3 0x508 JUMPI PUSH3 0x507 PUSH3 0x3F3 JUMP JUMPDEST JUMPDEST PUSH3 0x515 DUP5 DUP3 DUP6 PUSH3 0x4C3 JUMP JUMPDEST POP SWAP4 SWAP3 POP POP POP JUMP JUMPDEST PUSH1 0x0 DUP3 PUSH1 0x1F DUP4 ADD SLT PUSH3 0x535 JUMPI PUSH3 0x534 PUSH3 0x3EE JUMP JUMPDEST JUMPDEST DUP2 CALLDATALOAD PUSH3 0x547 DUP5 DUP3 PUSH1 0x20 DUP7 ADD PUSH3 0x4D2 JUMP JUMPDEST SWAP2 POP POP SWAP3 SWAP2 POP POP JUMP JUMPDEST PUSH1 0x0 PUSH1 0x20 DUP3 DUP5 SUB SLT ISZERO PUSH3 0x569 JUMPI PUSH3 0x568 PUSH3 0x3E4 JUMP JUMPDEST JUMPDEST PUSH1 0x0 DUP3 ADD CALLDATALOAD PUSH8 0xFFFFFFFFFFFFFFFF DUP2 GT ISZERO PUSH3 0x58A JUMPI PUSH3 0x589 PUSH3 0x3E9 JUMP JUMPDEST JUMPDEST PUSH3 0x598 DUP5 DUP3 DUP6 ADD PUSH3 0x51D JUMP JUMPDEST SWAP2 POP POP SWAP3 SWAP2 POP POP JUMP JUMPDEST PUSH1 0x0 DUP2 ISZERO ISZERO SWAP1 POP SWAP2 SWAP1 POP JUMP JUMPDEST PUSH3 0x5B8 DUP2 PUSH3 0x5A1 JUMP JUMPDEST DUP3 MSTORE POP POP JUMP JUMPDEST PUSH1 0x0 PUSH1 0x20 DUP3 ADD SWAP1 POP PUSH3 0x5D5 PUSH1 0x0 DUP4 ADD DUP5 PUSH3 0x5AD JUMP JUMPDEST SWAP3 SWAP2 POP POP JUMP JUMPDEST PUSH1 0x0 PUSH20 0xFFFFFFFFFFFFFFFFFFFFFFFFFFFFFFFFFFFFFFFF DUP3 AND SWAP1 POP SWAP2 SWAP1 POP JUMP JUMPDEST PUSH1 0x0 PUSH3 0x608 DUP3 PUSH3 0x5DB JUMP JUMPDEST SWAP1 POP SWAP2 SWAP1 POP JUMP JUMPDEST PUSH3 0x61A DUP2 PUSH3 0x5FB JUMP JUMPDEST DUP3 MSTORE POP POP JUMP JUMPDEST PUSH1 0x0 PUSH1 0x20 DUP3 ADD SWAP1 POP PUSH3 0x637 PUSH1 0x0 DUP4 ADD DUP5 PUSH3 0x60F JUMP JUMPDEST SWAP3 SWAP2 POP POP JUMP JUMPDEST PUSH1 0x0 DUP1 REVERT JUMPDEST PUSH1 0x0 DUP1 REVERT JUMPDEST PUSH1 0x0 DUP1 DUP4 PUSH1 0x1F DUP5 ADD SLT PUSH3 0x660 JUMPI PUSH3 0x65F PUSH3 0x3EE JUMP JUMPDEST JUMPDEST DUP3 CALLDATALOAD SWAP1 POP PUSH8 0xFFFFFFFFFFFFFFFF DUP2 GT ISZERO PUSH3 0x680 JUMPI PUSH3 0x67F PUSH3 0x63D JUMP JUMPDEST JUMPDEST PUSH1 0x20 DUP4 ADD SWAP2 POP DUP4 PUSH1 0x1 DUP3 MUL DUP4 ADD GT ISZERO PUSH3 0x69F JUMPI PUSH3 0x69E PUSH3 0x642 JUMP JUMPDEST JUMPDEST SWAP3 POP SWAP3 SWAP1 POP JUMP JUMPDEST PUSH3 0x6B1 DUP2 PUSH3 0x5FB JUMP JUMPDEST DUP2 EQ PUSH3 0x6BD JUMPI PUSH1 0x0 DUP1 REVERT JUMPDEST POP JUMP JUMPDEST PUSH1 0x0 DUP2 CALLDATALOAD SWAP1 POP PUSH3 0x6D1 DUP2 PUSH3 0x6A6 JUMP JUMPDEST SWAP3 SWAP2 POP POP JUMP JUMPDEST PUSH1 0x0 DUP1 PUSH1 0x0 DUP1 PUSH1 0x0 DUP1 PUSH1 0x80 DUP8 DUP10 SUB SLT ISZERO PUSH3 0x6F7 JUMPI PUSH3 0x6F6 PUSH3 0x3E4 JUMP JUMPDEST JUMPDEST PUSH1 0x0 DUP8 ADD CALLDATALOAD PUSH8 0xFFFFFFFFFFFFFFFF DUP2 GT ISZERO PUSH3 0x718 JUMPI PUSH3 0x717 PUSH3 0x3E9 JUMP JUMPDEST JUMPDEST PUSH3 0x726 DUP10 DUP3 DUP11 ADD PUSH3 0x647 JUMP JUMPDEST SWAP7 POP SWAP7 POP POP PUSH1 0x20 PUSH3 0x73B DUP10 DUP3 DUP11 ADD PUSH3 0x6C0 JUMP JUMPDEST SWAP5 POP POP PUSH1 0x40 PUSH3 0x74E DUP10 DUP3 DUP11 ADD PUSH3 0x6C0 JUMP JUMPDEST SWAP4 POP POP PUSH1 0x60 DUP8 ADD CALLDATALOAD PUSH8 0xFFFFFFFFFFFFFFFF DUP2 GT ISZERO PUSH3 0x772 JUMPI PUSH3 0x771 PUSH3 0x3E9 JUMP JUMPDEST JUMPDEST PUSH3 0x780 DUP10 DUP3 DUP11 ADD PUSH3 0x647 JUMP JUMPDEST SWAP3 POP SWAP3 POP POP SWAP3 SWAP6 POP SWAP3 SWAP6 POP SWAP3 SWAP6 JUMP JUMPDEST PUSH1 0x0 DUP3 DUP3 MSTORE PUSH1 0x20 DUP3 ADD SWAP1 POP SWAP3 SWAP2 POP POP JUMP JUMPDEST PUSH32 0x6E6F7420616C6C6F776564000000000000000000000000000000000000000000 PUSH1 0x0 DUP3 ADD MSTORE POP JUMP JUMPDEST PUSH1 0x0 PUSH3 0x7D8 PUSH1 0xB DUP4 PUSH3 0x78F JUMP JUMPDEST SWAP2 POP PUSH3 0x7E5 DUP3 PUSH3 0x7A0 JUMP JUMPDEST PUSH1 0x20 DUP3 ADD SWAP1 POP SWAP2 SWAP1 POP JUMP JUMPDEST PUSH1 0x0 PUSH1 0x20 DUP3 ADD SWAP1 POP DUP2 DUP2 SUB PUSH1 0x0 DUP4 ADD MSTORE PUSH3 0x80B DUP2 PUSH3 0x7C9 JUMP JUMPDEST SWAP1 POP SWAP2 SWAP1 POP JUMP JUMPDEST PUSH1 0x0 DUP2 SWAP1 POP SWAP3 SWAP2 POP POP JUMP JUMPDEST PUSH1 0x0 PUSH3 0x82B DUP4 DUP6 PUSH3 0x812 JUMP JUMPDEST SWAP4 POP PUSH3 0x83A DUP4 DUP6 DUP5 PUSH3 0x4C3 JUMP JUMPDEST DUP3 DUP5 ADD SWAP1 POP SWAP4 SWAP3 POP POP POP JUMP JUMPDEST PUSH1 0x0 PUSH3 0x855 DUP3 DUP5 DUP7 PUSH3 0x81D JUMP JUMPDEST SWAP2 POP DUP2 SWAP1 POP SWAP4 SWAP3 POP POP POP JUMP JUMPDEST PUSH32 0x6465706C6F796564000000000000000000000000000000000000000000000000 PUSH1 0x0 DUP3 ADD MSTORE POP JUMP JUMPDEST PUSH1 0x0 PUSH3 0x899 PUSH1 0x8 DUP4 PUSH3 0x78F JUMP JUMPDEST SWAP2 POP PUSH3 0x8A6 DUP3 PUSH3 0x861 JUMP JUMPDEST PUSH1 0x20 DUP3 ADD SWAP1 POP SWAP2 SWAP1 POP JUMP JUMPDEST PUSH1 0x0 PUSH1 0x20 DUP3 ADD SWAP1 POP DUP2 DUP2 SUB PUSH1 0x0 DUP4 ADD MSTORE PUSH3 0x8CC DUP2 PUSH3 0x88A JUMP JUMPDEST SWAP1 POP SWAP2 SWAP1 POP JUMP JUMPDEST PUSH1 0x0 DUP2 MLOAD SWAP1 POP SWAP2 SWAP1 POP JUMP JUMPDEST PUSH1 0x0 DUP2 SWAP1 POP PUSH1 0x20 DUP3 ADD SWAP1 POP SWAP2 SWAP1 POP JUMP JUMPDEST PUSH1 0x0 DUP2 SWAP1 POP SWAP2 SWAP1 POP JUMP JUMPDEST PUSH1 0x0 PUSH3 0x906 DUP3 MLOAD PUSH3 0x8EE JUMP JUMPDEST DUP1 SWAP2 POP POP SWAP2 SWAP1 POP JUMP JUMPDEST PUSH1 0x0 DUP3 DUP3 SHL SWAP1 POP SWAP3 SWAP2 POP POP JUMP JUMPDEST PUSH1 0x0 PUSH3 0x929 DUP3 PUSH3 0x8D3 JUMP JUMPDEST DUP3 PUSH3 0x935 DUP5 PUSH3 0x8DE JUMP JUMPDEST SWAP1 POP PUSH3 0x942 DUP2 PUSH3 0x8F8 JUMP JUMPDEST SWAP3 POP PUSH1 0x20 DUP3 LT ISZERO PUSH3 0x985 JUMPI PUSH3 0x980 PUSH32 0xFFFFFFFFFFFFFFFFFFFFFFFFFFFFFFFFFFFFFFFFFFFFFFFFFFFFFFFFFFFFFFFF DUP4 PUSH1 0x20 SUB PUSH1 0x8 MUL PUSH3 0x90F JUMP JUMPDEST DUP4 AND SWAP3 POP JUMPDEST POP POP SWAP2 SWAP1 POP JUMP JUMPDEST PUSH1 0x0 PUSH3 0x99A DUP4 DUP6 PUSH3 0x78F JUMP JUMPDEST SWAP4 POP PUSH3 0x9A9 DUP4 DUP6 DUP5 PUSH3 0x4C3 JUMP JUMPDEST PUSH3 0x9B4 DUP4 PUSH3 0x3F8 JUMP JUMPDEST DUP5 ADD SWAP1 POP SWAP4 SWAP3 POP POP POP JUMP JUMPDEST PUSH1 0x0 PUSH1 0x80 DUP3 ADD SWAP1 POP DUP2 DUP2 SUB PUSH1 0x0 DUP4 ADD MSTORE PUSH3 0x9DC DUP2 DUP9 DUP11 PUSH3 0x98C JUMP JUMPDEST SWAP1 POP PUSH3 0x9ED PUSH1 0x20 DUP4 ADD DUP8 PUSH3 0x60F JUMP JUMPDEST PUSH3 0x9FC PUSH1 0x40 DUP4 ADD DUP7 PUSH3 0x60F JUMP JUMPDEST DUP2 DUP2 SUB PUSH1 0x60 DUP4 ADD MSTORE PUSH3 0xA11 DUP2 DUP5 DUP7 PUSH3 0x98C JUMP JUMPDEST SWAP1 POP SWAP8 SWAP7 POP POP POP POP POP POP POP JUMP JUMPDEST PUSH1 0x0 PUSH1 0x40 DUP3 ADD SWAP1 POP DUP2 DUP2 SUB PUSH1 0x0 DUP4 ADD MSTORE PUSH3 0xA3B DUP2 DUP6 DUP8 PUSH3 0x98C JUMP JUMPDEST SWAP1 POP PUSH3 0xA4C PUSH1 0x20 DUP4 ADD DUP5 PUSH3 0x60F JUMP JUMPDEST SWAP5 SWAP4 POP POP POP POP JUMP INVALID PUSH1 0x80 PUSH1 0x40 MSTORE CALLVALUE DUP1 ISZERO PUSH3 0x11 JUMPI PUSH1 0x0 DUP1 REVERT JUMPDEST POP PUSH1 0x40 MLOAD PUSH3 0x4ECC CODESIZE SUB DUP1 PUSH3 0x4ECC DUP4 CODECOPY DUP2 DUP2 ADD PUSH1 0x40 MSTORE DUP2 ADD SWAP1 PUSH3 0x37 SWAP2 SWAP1 PUSH3 0x362 JUMP JUMPDEST DUP4 PUSH1 0x6 SWAP1 DUP2 PUSH3 0x48 SWAP2 SWAP1 PUSH3 0x65D JUMP JUMPDEST POP CALLER PUSH1 0x7 PUSH1 0x0 PUSH2 0x100 EXP DUP2 SLOAD DUP2 PUSH20 0xFFFFFFFFFFFFFFFFFFFFFFFFFFFFFFFFFFFFFFFF MUL NOT AND SWAP1 DUP4 PUSH20 0xFFFFFFFFFFFFFFFFFFFFFFFFFFFFFFFFFFFFFFFF AND MUL OR SWAP1 SSTORE POP DUP3 PUSH1 0x0 DUP6 PUSH1 0x40 MLOAD PUSH3 0x9D SWAP2 SWAP1 PUSH3 0x786 JUMP JUMPDEST SWAP1 DUP2 MSTORE PUSH1 0x20 ADD PUSH1 0x40 MLOAD DUP1 SWAP2 SUB SWAP1 KECCAK256 PUSH1 0x0 ADD PUSH1 0x0 PUSH2 0x100 EXP DUP2 SLOAD DUP2 PUSH20 0xFFFFFFFFFFFFFFFFFFFFFFFFFFFFFFFFFFFFFFFF MUL NOT AND SWAP1 DUP4 PUSH20 0xFFFFFFFFFFFFFFFFFFFFFFFFFFFFFFFFFFFFFFFF AND MUL OR SWAP1 SSTORE POP DUP1 PUSH1 0x0 DUP6 PUSH1 0x40 MLOAD PUSH3 0xFF SWAP2 SWAP1 PUSH3 0x786 JUMP JUMPDEST SWAP1 DUP2 MSTORE PUSH1 0x20 ADD PUSH1 0x40 MLOAD DUP1 SWAP2 SUB SWAP1 KECCAK256 PUSH1 0x1 ADD SWAP1 DUP2 PUSH3 0x11E SWAP2 SWAP1 PUSH3 0x65D JUMP JUMPDEST POP DUP2 PUSH1 0x8 PUSH1 0x0 PUSH2 0x100 EXP DUP2 SLOAD DUP2 PUSH20 0xFFFFFFFFFFFFFFFFFFFFFFFFFFFFFFFFFFFFFFFF MUL NOT AND SWAP1 DUP4 PUSH20 0xFFFFFFFFFFFFFFFFFFFFFFFFFFFFFFFFFFFFFFFF AND MUL OR SWAP1 SSTORE POP POP POP POP POP PUSH3 0x79F JUMP JUMPDEST PUSH1 0x0 PUSH1 0x40 MLOAD SWAP1 POP SWAP1 JUMP JUMPDEST PUSH1 0x0 DUP1 REVERT JUMPDEST PUSH1 0x0 DUP1 REVERT JUMPDEST PUSH1 0x0 DUP1 REVERT JUMPDEST PUSH1 0x0 DUP1 REVERT JUMPDEST PUSH1 0x0 PUSH1 0x1F NOT PUSH1 0x1F DUP4 ADD AND SWAP1 POP SWAP2 SWAP1 POP JUMP JUMPDEST PUSH32 0x4E487B7100000000000000000000000000000000000000000000000000000000 PUSH1 0x0 MSTORE PUSH1 0x41 PUSH1 0x4 MSTORE PUSH1 0x24 PUSH1 0x0 REVERT JUMPDEST PUSH3 0x1D3 DUP3 PUSH3 0x188 JUMP JUMPDEST DUP2 ADD DUP2 DUP2 LT PUSH8 0xFFFFFFFFFFFFFFFF DUP3 GT OR ISZERO PUSH3 0x1F5 JUMPI PUSH3 0x1F4 PUSH3 0x199 JUMP JUMPDEST JUMPDEST DUP1 PUSH1 0x40 MSTORE POP POP POP JUMP JUMPDEST PUSH1 0x0 PUSH3 0x20A PUSH3 0x16A JUMP JUMPDEST SWAP1 POP PUSH3 0x218 DUP3 DUP3 PUSH3 0x1C8 JUMP JUMPDEST SWAP2 SWAP1 POP JUMP JUMPDEST PUSH1 0x0 PUSH8 0xFFFFFFFFFFFFFFFF DUP3 GT ISZERO PUSH3 0x23B JUMPI PUSH3 0x23A PUSH3 0x199 JUMP JUMPDEST JUMPDEST PUSH3 0x246 DUP3 PUSH3 0x188 JUMP JUMPDEST SWAP1 POP PUSH1 0x20 DUP2 ADD SWAP1 POP SWAP2 SWAP1 POP JUMP JUMPDEST PUSH1 0x0 JUMPDEST DUP4 DUP2 LT ISZERO PUSH3 0x273 JUMPI DUP1 DUP3 ADD MLOAD DUP2 DUP5 ADD MSTORE PUSH1 0x20 DUP2 ADD SWAP1 POP PUSH3 0x256 JUMP JUMPDEST PUSH1 0x0 DUP5 DUP5 ADD MSTORE POP POP POP POP JUMP JUMPDEST PUSH1 0x0 PUSH3 0x296 PUSH3 0x290 DUP5 PUSH3 0x21D JUMP JUMPDEST PUSH3 0x1FE JUMP JUMPDEST SWAP1 POP DUP3 DUP2 MSTORE PUSH1 0x20 DUP2 ADD DUP5 DUP5 DUP5 ADD GT ISZERO PUSH3 0x2B5 JUMPI PUSH3 0x2B4 PUSH3 0x183 JUMP JUMPDEST JUMPDEST PUSH3 0x2C2 DUP5 DUP3 DUP6 PUSH3 0x253 JUMP JUMPDEST POP SWAP4 SWAP3 POP POP POP JUMP JUMPDEST PUSH1 0x0 DUP3 PUSH1 0x1F DUP4 ADD SLT PUSH3 0x2E2 JUMPI PUSH3 0x2E1 PUSH3 0x17E JUMP JUMPDEST JUMPDEST DUP2 MLOAD PUSH3 0x2F4 DUP5 DUP3 PUSH1 0x20 DUP7 ADD PUSH3 0x27F JUMP JUMPDEST SWAP2 POP POP SWAP3 SWAP2 POP POP JUMP JUMPDEST PUSH1 0x0 PUSH20 0xFFFFFFFFFFFFFFFFFFFFFFFFFFFFFFFFFFFFFFFF DUP3 AND SWAP1 POP SWAP2 SWAP1 POP JUMP JUMPDEST PUSH1 0x0 PUSH3 0x32A DUP3 PUSH3 0x2FD JUMP JUMPDEST SWAP1 POP SWAP2 SWAP1 POP JUMP JUMPDEST PUSH3 0x33C DUP2 PUSH3 0x31D JUMP JUMPDEST DUP2 EQ PUSH3 0x348 JUMPI PUSH1 0x0 DUP1 REVERT JUMPDEST POP JUMP JUMPDEST PUSH1 0x0 DUP2 MLOAD SWAP1 POP PUSH3 0x35C DUP2 PUSH3 0x331 JUMP JUMPDEST SWAP3 SWAP2 POP POP JUMP JUMPDEST PUSH1 0x0 DUP1 PUSH1 0x0 DUP1 PUSH1 0x80 DUP6 DUP8 SUB SLT ISZERO PUSH3 0x37F JUMPI PUSH3 0x37E PUSH3 0x174 JUMP JUMPDEST JUMPDEST PUSH1 0x0 DUP6 ADD MLOAD PUSH8 0xFFFFFFFFFFFFFFFF DUP2 GT ISZERO PUSH3 0x3A0 JUMPI PUSH3 0x39F PUSH3 0x179 JUMP JUMPDEST JUMPDEST PUSH3 0x3AE DUP8 DUP3 DUP9 ADD PUSH3 0x2CA JUMP JUMPDEST SWAP5 POP POP PUSH1 0x20 PUSH3 0x3C1 DUP8 DUP3 DUP9 ADD PUSH3 0x34B JUMP JUMPDEST SWAP4 POP POP PUSH1 0x40 PUSH3 0x3D4 DUP8 DUP3 DUP9 ADD PUSH3 0x34B JUMP JUMPDEST SWAP3 POP POP PUSH1 0x60 DUP6 ADD MLOAD PUSH8 0xFFFFFFFFFFFFFFFF DUP2 GT ISZERO PUSH3 0x3F8 JUMPI PUSH3 0x3F7 PUSH3 0x179 JUMP JUMPDEST JUMPDEST PUSH3 0x406 DUP8 DUP3 DUP9 ADD PUSH3 0x2CA JUMP JUMPDEST SWAP2 POP POP SWAP3 SWAP6 SWAP2 SWAP5 POP SWAP3 POP JUMP JUMPDEST PUSH1 0x0 DUP2 MLOAD SWAP1 POP SWAP2 SWAP1 POP JUMP JUMPDEST PUSH32 0x4E487B7100000000000000000000000000000000000000000000000000000000 PUSH1 0x0 MSTORE PUSH1 0x22 PUSH1 0x4 MSTORE PUSH1 0x24 PUSH1 0x0 REVERT JUMPDEST PUSH1 0x0 PUSH1 0x2 DUP3 DIV SWAP1 POP PUSH1 0x1 DUP3 AND DUP1 PUSH3 0x465 JUMPI PUSH1 0x7F DUP3 AND SWAP2 POP JUMPDEST PUSH1 0x20 DUP3 LT DUP2 SUB PUSH3 0x47B JUMPI PUSH3 0x47A PUSH3 0x41D JUMP JUMPDEST JUMPDEST POP SWAP2 SWAP1 POP JUMP JUMPDEST PUSH1 0x0 DUP2 SWAP1 POP DUP2 PUSH1 0x0 MSTORE PUSH1 0x20 PUSH1 0x0 KECCAK256 SWAP1 POP SWAP2 SWAP1 POP JUMP JUMPDEST PUSH1 0x0 PUSH1 0x20 PUSH1 0x1F DUP4 ADD DIV SWAP1 POP SWAP2 SWAP1 POP JUMP JUMPDEST PUSH1 0x0 DUP3 DUP3 SHL SWAP1 POP SWAP3 SWAP2 POP POP JUMP JUMPDEST PUSH1 0x0 PUSH1 0x8 DUP4 MUL PUSH3 0x4E5 PUSH32 0xFFFFFFFFFFFFFFFFFFFFFFFFFFFFFFFFFFFFFFFFFFFFFFFFFFFFFFFFFFFFFFFF DUP3 PUSH3 0x4A6 JUMP JUMPDEST PUSH3 0x4F1 DUP7 DUP4 PUSH3 0x4A6 JUMP JUMPDEST SWAP6 POP DUP1 NOT DUP5 AND SWAP4 POP DUP1 DUP7 AND DUP5 OR SWAP3 POP POP POP SWAP4 SWAP3 POP POP POP JUMP JUMPDEST PUSH1 0x0 DUP2 SWAP1 POP SWAP2 SWAP1 POP JUMP JUMPDEST PUSH1 0x0 DUP2 SWAP1 POP SWAP2 SWAP1 POP JUMP JUMPDEST PUSH1 0x0 PUSH3 0x53E PUSH3 0x538 PUSH3 0x532 DUP5 PUSH3 0x509 JUMP JUMPDEST PUSH3 0x513 JUMP JUMPDEST PUSH3 0x509 JUMP JUMPDEST SWAP1 POP SWAP2 SWAP1 POP JUMP JUMPDEST PUSH1 0x0 DUP2 SWAP1 POP SWAP2 SWAP1 POP JUMP JUMPDEST PUSH3 0x55A DUP4 PUSH3 0x51D JUMP JUMPDEST PUSH3 0x572 PUSH3 0x569 DUP3 PUSH3 0x545 JUMP JUMPDEST DUP5 DUP5 SLOAD PUSH3 0x4B3 JUMP JUMPDEST DUP3 SSTORE POP POP POP POP JUMP JUMPDEST PUSH1 0x0 SWAP1 JUMP JUMPDEST PUSH3 0x589 PUSH3 0x57A JUMP JUMPDEST PUSH3 0x596 DUP2 DUP5 DUP5 PUSH3 0x54F JUMP JUMPDEST POP POP POP JUMP JUMPDEST JUMPDEST DUP2 DUP2 LT ISZERO PUSH3 0x5BE JUMPI PUSH3 0x5B2 PUSH1 0x0 DUP3 PUSH3 0x57F JUMP JUMPDEST PUSH1 0x1 DUP2 ADD SWAP1 POP PUSH3 0x59C JUMP JUMPDEST POP POP JUMP JUMPDEST PUSH1 0x1F DUP3 GT ISZERO PUSH3 0x60D JUMPI PUSH3 0x5D7 DUP2 PUSH3 0x481 JUMP JUMPDEST PUSH3 0x5E2 DUP5 PUSH3 0x496 JUMP JUMPDEST DUP2 ADD PUSH1 0x20 DUP6 LT ISZERO PUSH3 0x5F2 JUMPI DUP2 SWAP1 POP JUMPDEST PUSH3 0x60A PUSH3 0x601 DUP6 PUSH3 0x496 JUMP JUMPDEST DUP4 ADD DUP3 PUSH3 0x59B JUMP JUMPDEST POP POP JUMPDEST POP POP POP JUMP JUMPDEST PUSH1 0x0 DUP3 DUP3 SHR SWAP1 POP SWAP3 SWAP2 POP POP JUMP JUMPDEST PUSH1 0x0 PUSH3 0x632 PUSH1 0x0 NOT DUP5 PUSH1 0x8 MUL PUSH3 0x612 JUMP JUMPDEST NOT DUP1 DUP4 AND SWAP2 POP POP SWAP3 SWAP2 POP POP JUMP JUMPDEST PUSH1 0x0 PUSH3 0x64D DUP4 DUP4 PUSH3 0x61F JUMP JUMPDEST SWAP2 POP DUP3 PUSH1 0x2 MUL DUP3 OR SWAP1 POP SWAP3 SWAP2 POP POP JUMP JUMPDEST PUSH3 0x668 DUP3 PUSH3 0x412 JUMP JUMPDEST PUSH8 0xFFFFFFFFFFFFFFFF DUP2 GT ISZERO PUSH3 0x684 JUMPI PUSH3 0x683 PUSH3 0x199 JUMP JUMPDEST JUMPDEST PUSH3 0x690 DUP3 SLOAD PUSH3 0x44C JUMP JUMPDEST PUSH3 0x69D DUP3 DUP3 DUP6 PUSH3 0x5C2 JUMP JUMPDEST PUSH1 0x0 PUSH1 0x20 SWAP1 POP PUSH1 0x1F DUP4 GT PUSH1 0x1 DUP2 EQ PUSH3 0x6D5 JUMPI PUSH1 0x0 DUP5 ISZERO PUSH3 0x6C0 JUMPI DUP3 DUP8 ADD MLOAD SWAP1 POP JUMPDEST PUSH3 0x6CC DUP6 DUP3 PUSH3 0x63F JUMP JUMPDEST DUP7 SSTORE POP PUSH3 0x73C JUMP JUMPDEST PUSH1 0x1F NOT DUP5 AND PUSH3 0x6E5 DUP7 PUSH3 0x481 JUMP JUMPDEST PUSH1 0x0 JUMPDEST DUP3 DUP2 LT ISZERO PUSH3 0x70F JUMPI DUP5 DUP10 ADD MLOAD DUP3 SSTORE PUSH1 0x1 DUP3 ADD SWAP2 POP PUSH1 0x20 DUP6 ADD SWAP5 POP PUSH1 0x20 DUP2 ADD SWAP1 POP PUSH3 0x6E8 JUMP JUMPDEST DUP7 DUP4 LT ISZERO PUSH3 0x72F JUMPI DUP5 DUP10 ADD MLOAD PUSH3 0x72B PUSH1 0x1F DUP10 AND DUP3 PUSH3 0x61F JUMP JUMPDEST DUP4 SSTORE POP JUMPDEST PUSH1 0x1 PUSH1 0x2 DUP9 MUL ADD DUP9 SSTORE POP POP POP JUMPDEST POP POP POP POP POP POP JUMP JUMPDEST PUSH1 0x0 DUP2 SWAP1 POP SWAP3 SWAP2 POP POP JUMP JUMPDEST PUSH1 0x0 PUSH3 0x75C DUP3 PUSH3 0x412 JUMP JUMPDEST PUSH3 0x768 DUP2 DUP6 PUSH3 0x744 JUMP JUMPDEST SWAP4 POP PUSH3 0x77A DUP2 DUP6 PUSH1 0x20 DUP7 ADD PUSH3 0x253 JUMP JUMPDEST DUP1 DUP5 ADD SWAP2 POP POP SWAP3 SWAP2 POP POP JUMP JUMPDEST PUSH1 0x0 PUSH3 0x794 DUP3 DUP5 PUSH3 0x74F JUMP JUMPDEST SWAP2 POP DUP2 SWAP1 POP SWAP3 SWAP2 POP POP JUMP JUMPDEST PUSH2 0x471D DUP1 PUSH3 0x7AF PUSH1 0x0 CODECOPY PUSH1 0x0 RETURN INVALID PUSH1 0x80 PUSH1 0x40 MSTORE CALLVALUE DUP1 ISZERO PUSH2 0x10 JUMPI PUSH1 0x0 DUP1 REVERT JUMPDEST POP PUSH1 0x4 CALLDATASIZE LT PUSH2 0x1DA JUMPI PUSH1 0x0 CALLDATALOAD PUSH1 0xE0 SHR DUP1 PUSH4 0x8DB6F28A GT PUSH2 0x104 JUMPI DUP1 PUSH4 0xC0BCB26F GT PUSH2 0xA2 JUMPI DUP1 PUSH4 0xD76805AA GT PUSH2 0x71 JUMPI DUP1 PUSH4 0xD76805AA EQ PUSH2 0x570 JUMPI DUP1 PUSH4 0xDD62ED3E EQ PUSH2 0x58C JUMPI DUP1 PUSH4 0xE5A6B10F EQ PUSH2 0x5BC JUMPI DUP1 PUSH4 0xE6BA4FEA EQ PUSH2 0x5DA JUMPI PUSH2 0x1DA JUMP JUMPDEST DUP1 PUSH4 0xC0BCB26F EQ PUSH2 0x4E6 JUMPI DUP1 PUSH4 0xC16AA779 EQ PUSH2 0x504 JUMPI DUP1 PUSH4 0xCEE2A9CF EQ PUSH2 0x522 JUMPI DUP1 PUSH4 0xD59624B4 EQ PUSH2 0x552 JUMPI PUSH2 0x1DA JUMP JUMPDEST DUP1 PUSH4 0xA457C2D7 GT PUSH2 0xDE JUMPI DUP1 PUSH4 0xA457C2D7 EQ PUSH2 0x460 JUMPI DUP1 PUSH4 0xAB67AA58 EQ PUSH2 0x47C JUMPI DUP1 PUSH4 0xBE040FB0 EQ PUSH2 0x4AC JUMPI DUP1 PUSH4 0xBE45FD62 EQ PUSH2 0x4B6 JUMPI PUSH2 0x1DA JUMP JUMPDEST DUP1 PUSH4 0x8DB6F28A EQ PUSH2 0x406 JUMPI DUP1 PUSH4 0x95D89B41 EQ PUSH2 0x424 JUMPI DUP1 PUSH4 0x9C34712A EQ PUSH2 0x442 JUMPI PUSH2 0x1DA JUMP JUMPDEST DUP1 PUSH4 0x5EB0B3D0 GT PUSH2 0x17C JUMPI DUP1 PUSH4 0x73975DF1 GT PUSH2 0x14B JUMPI DUP1 PUSH4 0x73975DF1 EQ PUSH2 0x38E JUMPI DUP1 PUSH4 0x82D5A60D EQ PUSH2 0x3AC JUMPI DUP1 PUSH4 0x8BCA6D16 EQ PUSH2 0x3CA JUMPI DUP1 PUSH4 0x8D1343E0 EQ PUSH2 0x3E8 JUMPI PUSH2 0x1DA JUMP JUMPDEST DUP1 PUSH4 0x5EB0B3D0 EQ PUSH2 0x2F2 JUMPI DUP1 PUSH4 0x61E20A1C EQ PUSH2 0x310 JUMPI DUP1 PUSH4 0x70A08231 EQ PUSH2 0x340 JUMPI DUP1 PUSH4 0x710D3329 EQ PUSH2 0x370 JUMPI PUSH2 0x1DA JUMP JUMPDEST DUP1 PUSH4 0x18160DDD GT PUSH2 0x1B8 JUMPI DUP1 PUSH4 0x18160DDD EQ PUSH2 0x24B JUMPI DUP1 PUSH4 0x363CC427 EQ PUSH2 0x269 JUMPI DUP1 PUSH4 0x41D6A582 EQ PUSH2 0x287 JUMPI DUP1 PUSH4 0x46E8DE21 EQ PUSH2 0x2B8 JUMPI PUSH2 0x1DA JUMP JUMPDEST DUP1 PUSH4 0x45017CE EQ PUSH2 0x1DF JUMPI DUP1 PUSH4 0x6FDDE03 EQ PUSH2 0x1FD JUMPI DUP1 PUSH4 0x95EA7B3 EQ PUSH2 0x21B JUMPI JUMPDEST PUSH1 0x0 DUP1 REVERT JUMPDEST PUSH2 0x1E7 PUSH2 0x60A JUMP JUMPDEST PUSH1 0x40 MLOAD PUSH2 0x1F4 SWAP2 SWAP1 PUSH2 0x3051 JUMP JUMPDEST PUSH1 0x40 MLOAD DUP1 SWAP2 SUB SWAP1 RETURN JUMPDEST PUSH2 0x205 PUSH2 0x641 JUMP JUMPDEST PUSH1 0x40 MLOAD PUSH2 0x212 SWAP2 SWAP1 PUSH2 0x30FC JUMP JUMPDEST PUSH1 0x40 MLOAD DUP1 SWAP2 SUB SWAP1 RETURN JUMPDEST PUSH2 0x235 PUSH1 0x4 DUP1 CALLDATASIZE SUB DUP2 ADD SWAP1 PUSH2 0x230 SWAP2 SWAP1 PUSH2 0x31C6 JUMP JUMPDEST PUSH2 0x6F3 JUMP JUMPDEST PUSH1 0x40 MLOAD PUSH2 0x242 SWAP2 SWAP1 PUSH2 0x3221 JUMP JUMPDEST PUSH1 0x40 MLOAD DUP1 SWAP2 SUB SWAP1 RETURN JUMPDEST PUSH2 0x253 PUSH2 0x8A1 JUMP JUMPDEST PUSH1 0x40 MLOAD PUSH2 0x260 SWAP2 SWAP1 PUSH2 0x324B JUMP JUMPDEST PUSH1 0x40 MLOAD DUP1 SWAP2 SUB SWAP1 RETURN JUMPDEST PUSH2 0x271 PUSH2 0x8F8 JUMP JUMPDEST PUSH1 0x40 MLOAD PUSH2 0x27E SWAP2 SWAP1 PUSH2 0x3275 JUMP JUMPDEST PUSH1 0x40 MLOAD DUP1 SWAP2 SUB SWAP1 RETURN JUMPDEST PUSH2 0x2A1 PUSH1 0x4 DUP1 CALLDATASIZE SUB DUP2 ADD SWAP1 PUSH2 0x29C SWAP2 SWAP1 PUSH2 0x33C5 JUMP JUMPDEST PUSH2 0x91E JUMP JUMPDEST PUSH1 0x40 MLOAD PUSH2 0x2AF SWAP3 SWAP2 SWAP1 PUSH2 0x340E JUMP JUMPDEST PUSH1 0x40 MLOAD DUP1 SWAP2 SUB SWAP1 RETURN JUMPDEST PUSH2 0x2D2 PUSH1 0x4 DUP1 CALLDATASIZE SUB DUP2 ADD SWAP1 PUSH2 0x2CD SWAP2 SWAP1 PUSH2 0x33C5 JUMP JUMPDEST PUSH2 0xA00 JUMP JUMPDEST PUSH1 0x40 MLOAD PUSH2 0x2E9 SWAP12 SWAP11 SWAP10 SWAP9 SWAP8 SWAP7 SWAP6 SWAP5 SWAP4 SWAP3 SWAP2 SWAP1 PUSH2 0x343E JUMP JUMPDEST PUSH1 0x40 MLOAD DUP1 SWAP2 SUB SWAP1 RETURN JUMPDEST PUSH2 0x2FA PUSH2 0xC35 JUMP JUMPDEST PUSH1 0x40 MLOAD PUSH2 0x307 SWAP2 SWAP1 PUSH2 0x324B JUMP JUMPDEST PUSH1 0x40 MLOAD DUP1 SWAP2 SUB SWAP1 RETURN JUMPDEST PUSH2 0x32A PUSH1 0x4 DUP1 CALLDATASIZE SUB DUP2 ADD SWAP1 PUSH2 0x325 SWAP2 SWAP1 PUSH2 0x34FE JUMP JUMPDEST PUSH2 0xC5F JUMP JUMPDEST PUSH1 0x40 MLOAD PUSH2 0x337 SWAP2 SWAP1 PUSH2 0x324B JUMP JUMPDEST PUSH1 0x40 MLOAD DUP1 SWAP2 SUB SWAP1 RETURN JUMPDEST PUSH2 0x35A PUSH1 0x4 DUP1 CALLDATASIZE SUB DUP2 ADD SWAP1 PUSH2 0x355 SWAP2 SWAP1 PUSH2 0x34FE JUMP JUMPDEST PUSH2 0xCA8 JUMP JUMPDEST PUSH1 0x40 MLOAD PUSH2 0x367 SWAP2 SWAP1 PUSH2 0x324B JUMP JUMPDEST PUSH1 0x40 MLOAD DUP1 SWAP2 SUB SWAP1 RETURN JUMPDEST PUSH2 0x378 PUSH2 0xD1E JUMP JUMPDEST PUSH1 0x40 MLOAD PUSH2 0x385 SWAP2 SWAP1 PUSH2 0x324B JUMP JUMPDEST PUSH1 0x40 MLOAD DUP1 SWAP2 SUB SWAP1 RETURN JUMPDEST PUSH2 0x396 PUSH2 0xD48 JUMP JUMPDEST PUSH1 0x40 MLOAD PUSH2 0x3A3 SWAP2 SWAP1 PUSH2 0x30FC JUMP JUMPDEST PUSH1 0x40 MLOAD DUP1 SWAP2 SUB SWAP1 RETURN JUMPDEST PUSH2 0x3B4 PUSH2 0xDD6 JUMP JUMPDEST PUSH1 0x40 MLOAD PUSH2 0x3C1 SWAP2 SWAP1 PUSH2 0x30FC JUMP JUMPDEST PUSH1 0x40 MLOAD DUP1 SWAP2 SUB SWAP1 RETURN JUMPDEST PUSH2 0x3D2 PUSH2 0xE88 JUMP JUMPDEST PUSH1 0x40 MLOAD PUSH2 0x3DF SWAP2 SWAP1 PUSH2 0x324B JUMP JUMPDEST PUSH1 0x40 MLOAD DUP1 SWAP2 SUB SWAP1 RETURN JUMPDEST PUSH2 0x3F0 PUSH2 0xEB2 JUMP JUMPDEST PUSH1 0x40 MLOAD PUSH2 0x3FD SWAP2 SWAP1 PUSH2 0x324B JUMP JUMPDEST PUSH1 0x40 MLOAD DUP1 SWAP2 SUB SWAP1 RETURN JUMPDEST PUSH2 0x40E PUSH2 0xEDC JUMP JUMPDEST PUSH1 0x40 MLOAD PUSH2 0x41B SWAP2 SWAP1 PUSH2 0x3627 JUMP JUMPDEST PUSH1 0x40 MLOAD DUP1 SWAP2 SUB SWAP1 RETURN JUMPDEST PUSH2 0x42C PUSH2 0xF9B JUMP JUMPDEST PUSH1 0x40 MLOAD PUSH2 0x439 SWAP2 SWAP1 PUSH2 0x30FC JUMP JUMPDEST PUSH1 0x40 MLOAD DUP1 SWAP2 SUB SWAP1 RETURN JUMPDEST PUSH2 0x44A PUSH2 0x104D JUMP JUMPDEST PUSH1 0x40 MLOAD PUSH2 0x457 SWAP2 SWAP1 PUSH2 0x3275 JUMP JUMPDEST PUSH1 0x40 MLOAD DUP1 SWAP2 SUB SWAP1 RETURN JUMPDEST PUSH2 0x47A PUSH1 0x4 DUP1 CALLDATASIZE SUB DUP2 ADD SWAP1 PUSH2 0x475 SWAP2 SWAP1 PUSH2 0x31C6 JUMP JUMPDEST PUSH2 0x1073 JUMP JUMPDEST STOP JUMPDEST PUSH2 0x496 PUSH1 0x4 DUP1 CALLDATASIZE SUB DUP2 ADD SWAP1 PUSH2 0x491 SWAP2 SWAP1 PUSH2 0x36A9 JUMP JUMPDEST PUSH2 0x10C4 JUMP JUMPDEST PUSH1 0x40 MLOAD PUSH2 0x4A3 SWAP2 SWAP1 PUSH2 0x3221 JUMP JUMPDEST PUSH1 0x40 MLOAD DUP1 SWAP2 SUB SWAP1 RETURN JUMPDEST PUSH2 0x4B4 PUSH2 0x1282 JUMP JUMPDEST STOP JUMPDEST PUSH2 0x4D0 PUSH1 0x4 DUP1 CALLDATASIZE SUB DUP2 ADD SWAP1 PUSH2 0x4CB SWAP2 SWAP1 PUSH2 0x3731 JUMP JUMPDEST PUSH2 0x131C JUMP JUMPDEST PUSH1 0x40 MLOAD PUSH2 0x4DD SWAP2 SWAP1 PUSH2 0x3221 JUMP JUMPDEST PUSH1 0x40 MLOAD DUP1 SWAP2 SUB SWAP1 RETURN JUMPDEST PUSH2 0x4EE PUSH2 0x14CE JUMP JUMPDEST PUSH1 0x40 MLOAD PUSH2 0x4FB SWAP2 SWAP1 PUSH2 0x324B JUMP JUMPDEST PUSH1 0x40 MLOAD DUP1 SWAP2 SUB SWAP1 RETURN JUMPDEST PUSH2 0x50C PUSH2 0x14F8 JUMP JUMPDEST PUSH1 0x40 MLOAD PUSH2 0x519 SWAP2 SWAP1 PUSH2 0x381C JUMP JUMPDEST PUSH1 0x40 MLOAD DUP1 SWAP2 SUB SWAP1 RETURN JUMPDEST PUSH2 0x53C PUSH1 0x4 DUP1 CALLDATASIZE SUB DUP2 ADD SWAP1 PUSH2 0x537 SWAP2 SWAP1 PUSH2 0x34FE JUMP JUMPDEST PUSH2 0x150B JUMP JUMPDEST PUSH1 0x40 MLOAD PUSH2 0x549 SWAP2 SWAP1 PUSH2 0x3221 JUMP JUMPDEST PUSH1 0x40 MLOAD DUP1 SWAP2 SUB SWAP1 RETURN JUMPDEST PUSH2 0x55A PUSH2 0x152B JUMP JUMPDEST PUSH1 0x40 MLOAD PUSH2 0x567 SWAP2 SWAP1 PUSH2 0x324B JUMP JUMPDEST PUSH1 0x40 MLOAD DUP1 SWAP2 SUB SWAP1 RETURN JUMPDEST PUSH2 0x58A PUSH1 0x4 DUP1 CALLDATASIZE SUB DUP2 ADD SWAP1 PUSH2 0x585 SWAP2 SWAP1 PUSH2 0x385C JUMP JUMPDEST PUSH2 0x1555 JUMP JUMPDEST STOP JUMPDEST PUSH2 0x5A6 PUSH1 0x4 DUP1 CALLDATASIZE SUB DUP2 ADD SWAP1 PUSH2 0x5A1 SWAP2 SWAP1 PUSH2 0x38A5 JUMP JUMPDEST PUSH2 0x15F1 JUMP JUMPDEST PUSH1 0x40 MLOAD PUSH2 0x5B3 SWAP2 SWAP1 PUSH2 0x324B JUMP JUMPDEST PUSH1 0x40 MLOAD DUP1 SWAP2 SUB SWAP1 RETURN JUMPDEST PUSH2 0x5C4 PUSH2 0x1678 JUMP JUMPDEST PUSH1 0x40 MLOAD PUSH2 0x5D1 SWAP2 SWAP1 PUSH2 0x3275 JUMP JUMPDEST PUSH1 0x40 MLOAD DUP1 SWAP2 SUB SWAP1 RETURN JUMPDEST PUSH2 0x5F4 PUSH1 0x4 DUP1 CALLDATASIZE SUB DUP2 ADD SWAP1 PUSH2 0x5EF SWAP2 SWAP1 PUSH2 0x34FE JUMP JUMPDEST PUSH2 0x16C2 JUMP JUMPDEST PUSH1 0x40 MLOAD PUSH2 0x601 SWAP2 SWAP1 PUSH2 0x324B JUMP JUMPDEST PUSH1 0x40 MLOAD DUP1 SWAP2 SUB SWAP1 RETURN JUMPDEST PUSH1 0x0 PUSH1 0x1 PUSH1 0x6 PUSH1 0x40 MLOAD PUSH2 0x61D SWAP2 SWAP1 PUSH2 0x39E8 JUMP JUMPDEST SWAP1 DUP2 MSTORE PUSH1 0x20 ADD PUSH1 0x40 MLOAD DUP1 SWAP2 SUB SWAP1 KECCAK256 PUSH1 0x7 ADD PUSH1 0x0 SWAP1 SLOAD SWAP1 PUSH2 0x100 EXP SWAP1 DIV PUSH1 0xFF AND SWAP1 POP SWAP1 JUMP JUMPDEST PUSH1 0x60 PUSH1 0x1 PUSH1 0x6 PUSH1 0x40 MLOAD PUSH2 0x654 SWAP2 SWAP1 PUSH2 0x39E8 JUMP JUMPDEST SWAP1 DUP2 MSTORE PUSH1 0x20 ADD PUSH1 0x40 MLOAD DUP1 SWAP2 SUB SWAP1 KECCAK256 PUSH1 0x1 ADD DUP1 SLOAD PUSH2 0x670 SWAP1 PUSH2 0x3914 JUMP JUMPDEST DUP1 PUSH1 0x1F ADD PUSH1 0x20 DUP1 SWAP2 DIV MUL PUSH1 0x20 ADD PUSH1 0x40 MLOAD SWAP1 DUP2 ADD PUSH1 0x40 MSTORE DUP1 SWAP3 SWAP2 SWAP1 DUP2 DUP2 MSTORE PUSH1 0x20 ADD DUP3 DUP1 SLOAD PUSH2 0x69C SWAP1 PUSH2 0x3914 JUMP JUMPDEST DUP1 ISZERO PUSH2 0x6E9 JUMPI DUP1 PUSH1 0x1F LT PUSH2 0x6BE JUMPI PUSH2 0x100 DUP1 DUP4 SLOAD DIV MUL DUP4 MSTORE SWAP2 PUSH1 0x20 ADD SWAP2 PUSH2 0x6E9 JUMP JUMPDEST DUP3 ADD SWAP2 SWAP1 PUSH1 0x0 MSTORE PUSH1 0x20 PUSH1 0x0 KECCAK256 SWAP1 JUMPDEST DUP2 SLOAD DUP2 MSTORE SWAP1 PUSH1 0x1 ADD SWAP1 PUSH1 0x20 ADD DUP1 DUP4 GT PUSH2 0x6CC JUMPI DUP3 SWAP1 SUB PUSH1 0x1F AND DUP3 ADD SWAP2 JUMPDEST POP POP POP POP POP SWAP1 POP SWAP1 JUMP JUMPDEST PUSH1 0x0 DUP3 PUSH1 0x0 PUSH1 0x8 PUSH1 0x0 SWAP1 SLOAD SWAP1 PUSH2 0x100 EXP SWAP1 DIV PUSH20 0xFFFFFFFFFFFFFFFFFFFFFFFFFFFFFFFFFFFFFFFF AND PUSH20 0xFFFFFFFFFFFFFFFFFFFFFFFFFFFFFFFFFFFFFFFF AND PUSH4 0xC3A2A93A PUSH1 0x40 MLOAD DUP2 PUSH4 0xFFFFFFFF AND PUSH1 0xE0 SHL DUP2 MSTORE PUSH1 0x4 ADD PUSH1 0xA0 PUSH1 0x40 MLOAD DUP1 DUP4 SUB DUP2 DUP7 GAS STATICCALL ISZERO DUP1 ISZERO PUSH2 0x765 JUMPI RETURNDATASIZE PUSH1 0x0 DUP1 RETURNDATACOPY RETURNDATASIZE PUSH1 0x0 REVERT JUMPDEST POP POP POP POP PUSH1 0x40 MLOAD RETURNDATASIZE PUSH1 0x1F NOT PUSH1 0x1F DUP3 ADD AND DUP3 ADD DUP1 PUSH1 0x40 MSTORE POP DUP2 ADD SWAP1 PUSH2 0x789 SWAP2 SWAP1 PUSH2 0x3A14 JUMP JUMPDEST POP POP SWAP3 POP POP POP DUP1 PUSH20 0xFFFFFFFFFFFFFFFFFFFFFFFFFFFFFFFFFFFFFFFF AND PUSH4 0xB9209E33 DUP4 PUSH1 0x40 MLOAD DUP3 PUSH4 0xFFFFFFFF AND PUSH1 0xE0 SHL DUP2 MSTORE PUSH1 0x4 ADD PUSH2 0x7C8 SWAP2 SWAP1 PUSH2 0x3275 JUMP JUMPDEST PUSH1 0x20 PUSH1 0x40 MLOAD DUP1 DUP4 SUB DUP2 DUP7 GAS STATICCALL ISZERO DUP1 ISZERO PUSH2 0x7E5 JUMPI RETURNDATASIZE PUSH1 0x0 DUP1 RETURNDATACOPY RETURNDATASIZE PUSH1 0x0 REVERT JUMPDEST POP POP POP POP PUSH1 0x40 MLOAD RETURNDATASIZE PUSH1 0x1F NOT PUSH1 0x1F DUP3 ADD AND DUP3 ADD DUP1 PUSH1 0x40 MSTORE POP DUP2 ADD SWAP1 PUSH2 0x809 SWAP2 SWAP1 PUSH2 0x3ABB JUMP JUMPDEST PUSH2 0x848 JUMPI PUSH1 0x40 MLOAD PUSH32 0x8C379A000000000000000000000000000000000000000000000000000000000 DUP2 MSTORE PUSH1 0x4 ADD PUSH2 0x83F SWAP1 PUSH2 0x3B34 JUMP JUMPDEST PUSH1 0x40 MLOAD DUP1 SWAP2 SUB SWAP1 REVERT JUMPDEST PUSH1 0x0 CALLER PUSH20 0xFFFFFFFFFFFFFFFFFFFFFFFFFFFFFFFFFFFFFFFF AND ORIGIN PUSH20 0xFFFFFFFFFFFFFFFFFFFFFFFFFFFFFFFFFFFFFFFF AND SUB PUSH2 0x885 JUMPI ORIGIN SWAP1 POP PUSH2 0x889 JUMP JUMPDEST CALLER SWAP1 POP JUMPDEST PUSH2 0x894 DUP2 DUP8 DUP8 PUSH2 0x16DA JUMP JUMPDEST PUSH1 0x1 SWAP4 POP POP POP POP SWAP3 SWAP2 POP POP JUMP JUMPDEST PUSH1 0x0 PUSH1 0x1 PUSH1 0x6 PUSH1 0x40 MLOAD PUSH2 0x8B4 SWAP2 SWAP1 PUSH2 0x39E8 JUMP JUMPDEST SWAP1 DUP2 MSTORE PUSH1 0x20 ADD PUSH1 0x40 MLOAD DUP1 SWAP2 SUB SWAP1 KECCAK256 PUSH1 0x4 ADD SLOAD PUSH1 0x1 PUSH1 0x6 PUSH1 0x40 MLOAD PUSH2 0x8D7 SWAP2 SWAP1 PUSH2 0x39E8 JUMP JUMPDEST SWAP1 DUP2 MSTORE PUSH1 0x20 ADD PUSH1 0x40 MLOAD DUP1 SWAP2 SUB SWAP1 KECCAK256 PUSH1 0x5 ADD SLOAD PUSH2 0x8F3 SWAP2 SWAP1 PUSH2 0x3BB2 JUMP JUMPDEST SWAP1 POP SWAP1 JUMP JUMPDEST PUSH1 0x7 PUSH1 0x0 SWAP1 SLOAD SWAP1 PUSH2 0x100 EXP SWAP1 DIV PUSH20 0xFFFFFFFFFFFFFFFFFFFFFFFFFFFFFFFFFFFFFFFF AND DUP2 JUMP JUMPDEST PUSH1 0x0 DUP2 DUP1 MLOAD PUSH1 0x20 DUP2 ADD DUP3 ADD DUP1 MLOAD DUP5 DUP3 MSTORE PUSH1 0x20 DUP4 ADD PUSH1 0x20 DUP6 ADD KECCAK256 DUP2 DUP4 MSTORE DUP1 SWAP6 POP POP POP POP POP POP PUSH1 0x0 SWAP2 POP SWAP1 POP DUP1 PUSH1 0x0 ADD PUSH1 0x0 SWAP1 SLOAD SWAP1 PUSH2 0x100 EXP SWAP1 DIV PUSH20 0xFFFFFFFFFFFFFFFFFFFFFFFFFFFFFFFFFFFFFFFF AND SWAP1 DUP1 PUSH1 0x1 ADD DUP1 SLOAD PUSH2 0x97D SWAP1 PUSH2 0x3914 JUMP JUMPDEST DUP1 PUSH1 0x1F ADD PUSH1 0x20 DUP1 SWAP2 DIV MUL PUSH1 0x20 ADD PUSH1 0x40 MLOAD SWAP1 DUP2 ADD PUSH1 0x40 MSTORE DUP1 SWAP3 SWAP2 SWAP1 DUP2 DUP2 MSTORE PUSH1 0x20 ADD DUP3 DUP1 SLOAD PUSH2 0x9A9 SWAP1 PUSH2 0x3914 JUMP JUMPDEST DUP1 ISZERO PUSH2 0x9F6 JUMPI DUP1 PUSH1 0x1F LT PUSH2 0x9CB JUMPI PUSH2 0x100 DUP1 DUP4 SLOAD DIV MUL DUP4 MSTORE SWAP2 PUSH1 0x20 ADD SWAP2 PUSH2 0x9F6 JUMP JUMPDEST DUP3 ADD SWAP2 SWAP1 PUSH1 0x0 MSTORE PUSH1 0x20 PUSH1 0x0 KECCAK256 SWAP1 JUMPDEST DUP2 SLOAD DUP2 MSTORE SWAP1 PUSH1 0x1 ADD SWAP1 PUSH1 0x20 ADD DUP1 DUP4 GT PUSH2 0x9D9 JUMPI DUP3 SWAP1 SUB PUSH1 0x1F AND DUP3 ADD SWAP2 JUMPDEST POP POP POP POP POP SWAP1 POP DUP3 JUMP JUMPDEST PUSH1 0x1 DUP2 DUP1 MLOAD PUSH1 0x20 DUP2 ADD DUP3 ADD DUP1 MLOAD DUP5 DUP3 MSTORE PUSH1 0x20 DUP4 ADD PUSH1 0x20 DUP6 ADD KECCAK256 DUP2 DUP4 MSTORE DUP1 SWAP6 POP POP POP POP POP POP PUSH1 0x0 SWAP2 POP SWAP1 POP DUP1 PUSH1 0x0 ADD DUP1 SLOAD PUSH2 0xA39 SWAP1 PUSH2 0x3914 JUMP JUMPDEST DUP1 PUSH1 0x1F ADD PUSH1 0x20 DUP1 SWAP2 DIV MUL PUSH1 0x20 ADD PUSH1 0x40 MLOAD SWAP1 DUP2 ADD PUSH1 0x40 MSTORE DUP1 SWAP3 SWAP2 SWAP1 DUP2 DUP2 MSTORE PUSH1 0x20 ADD DUP3 DUP1 SLOAD PUSH2 0xA65 SWAP1 PUSH2 0x3914 JUMP JUMPDEST DUP1 ISZERO PUSH2 0xAB2 JUMPI DUP1 PUSH1 0x1F LT PUSH2 0xA87 JUMPI PUSH2 0x100 DUP1 DUP4 SLOAD DIV MUL DUP4 MSTORE SWAP2 PUSH1 0x20 ADD SWAP2 PUSH2 0xAB2 JUMP JUMPDEST DUP3 ADD SWAP2 SWAP1 PUSH1 0x0 MSTORE PUSH1 0x20 PUSH1 0x0 KECCAK256 SWAP1 JUMPDEST DUP2 SLOAD DUP2 MSTORE SWAP1 PUSH1 0x1 ADD SWAP1 PUSH1 0x20 ADD DUP1 DUP4 GT PUSH2 0xA95 JUMPI DUP3 SWAP1 SUB PUSH1 0x1F AND DUP3 ADD SWAP2 JUMPDEST POP POP POP POP POP SWAP1 DUP1 PUSH1 0x1 ADD DUP1 SLOAD PUSH2 0xAC7 SWAP1 PUSH2 0x3914 JUMP JUMPDEST DUP1 PUSH1 0x1F ADD PUSH1 0x20 DUP1 SWAP2 DIV MUL PUSH1 0x20 ADD PUSH1 0x40 MLOAD SWAP1 DUP2 ADD PUSH1 0x40 MSTORE DUP1 SWAP3 SWAP2 SWAP1 DUP2 DUP2 MSTORE PUSH1 0x20 ADD DUP3 DUP1 SLOAD PUSH2 0xAF3 SWAP1 PUSH2 0x3914 JUMP JUMPDEST DUP1 ISZERO PUSH2 0xB40 JUMPI DUP1 PUSH1 0x1F LT PUSH2 0xB15 JUMPI PUSH2 0x100 DUP1 DUP4 SLOAD DIV MUL DUP4 MSTORE SWAP2 PUSH1 0x20 ADD SWAP2 PUSH2 0xB40 JUMP JUMPDEST DUP3 ADD SWAP2 SWAP1 PUSH1 0x0 MSTORE PUSH1 0x20 PUSH1 0x0 KECCAK256 SWAP1 JUMPDEST DUP2 SLOAD DUP2 MSTORE SWAP1 PUSH1 0x1 ADD SWAP1 PUSH1 0x20 ADD DUP1 DUP4 GT PUSH2 0xB23 JUMPI DUP3 SWAP1 SUB PUSH1 0x1F AND DUP3 ADD SWAP2 JUMPDEST POP POP POP POP POP SWAP1 DUP1 PUSH1 0x2 ADD DUP1 SLOAD PUSH2 0xB55 SWAP1 PUSH2 0x3914 JUMP JUMPDEST DUP1 PUSH1 0x1F ADD PUSH1 0x20 DUP1 SWAP2 DIV MUL PUSH1 0x20 ADD PUSH1 0x40 MLOAD SWAP1 DUP2 ADD PUSH1 0x40 MSTORE DUP1 SWAP3 SWAP2 SWAP1 DUP2 DUP2 MSTORE PUSH1 0x20 ADD DUP3 DUP1 SLOAD PUSH2 0xB81 SWAP1 PUSH2 0x3914 JUMP JUMPDEST DUP1 ISZERO PUSH2 0xBCE JUMPI DUP1 PUSH1 0x1F LT PUSH2 0xBA3 JUMPI PUSH2 0x100 DUP1 DUP4 SLOAD DIV MUL DUP4 MSTORE SWAP2 PUSH1 0x20 ADD SWAP2 PUSH2 0xBCE JUMP JUMPDEST DUP3 ADD SWAP2 SWAP1 PUSH1 0x0 MSTORE PUSH1 0x20 PUSH1 0x0 KECCAK256 SWAP1 JUMPDEST DUP2 SLOAD DUP2 MSTORE SWAP1 PUSH1 0x1 ADD SWAP1 PUSH1 0x20 ADD DUP1 DUP4 GT PUSH2 0xBB1 JUMPI DUP3 SWAP1 SUB PUSH1 0x1F AND DUP3 ADD SWAP2 JUMPDEST POP POP POP POP POP SWAP1 DUP1 PUSH1 0x3 ADD PUSH1 0x0 SWAP1 SLOAD SWAP1 PUSH2 0x100 EXP SWAP1 DIV PUSH20 0xFFFFFFFFFFFFFFFFFFFFFFFFFFFFFFFFFFFFFFFF AND SWAP1 DUP1 PUSH1 0x4 ADD SLOAD SWAP1 DUP1 PUSH1 0x5 ADD SLOAD SWAP1 DUP1 PUSH1 0x6 ADD SLOAD SWAP1 DUP1 PUSH1 0x7 ADD PUSH1 0x0 SWAP1 SLOAD SWAP1 PUSH2 0x100 EXP SWAP1 DIV PUSH1 0xFF AND SWAP1 DUP1 PUSH1 0x8 ADD SLOAD SWAP1 DUP1 PUSH1 0x9 ADD SLOAD SWAP1 DUP1 PUSH1 0xA ADD SLOAD SWAP1 POP DUP12 JUMP JUMPDEST PUSH1 0x0 PUSH1 0x1 PUSH1 0x6 PUSH1 0x40 MLOAD PUSH2 0xC48 SWAP2 SWAP1 PUSH2 0x39E8 JUMP JUMPDEST SWAP1 DUP2 MSTORE PUSH1 0x20 ADD PUSH1 0x40 MLOAD DUP1 SWAP2 SUB SWAP1 KECCAK256 PUSH1 0x8 ADD SLOAD SWAP1 POP SWAP1 JUMP JUMPDEST PUSH1 0x0 PUSH1 0x2 PUSH1 0x0 DUP4 PUSH20 0xFFFFFFFFFFFFFFFFFFFFFFFFFFFFFFFFFFFFFFFF AND PUSH20 0xFFFFFFFFFFFFFFFFFFFFFFFFFFFFFFFFFFFFFFFF AND DUP2 MSTORE PUSH1 0x20 ADD SWAP1 DUP2 MSTORE PUSH1 0x20 ADD PUSH1 0x0 KECCAK256 SLOAD SWAP1 POP SWAP2 SWAP1 POP JUMP JUMPDEST PUSH1 0x0 PUSH1 0x1 PUSH1 0x6 PUSH1 0x40 MLOAD PUSH2 0xCBB SWAP2 SWAP1 PUSH2 0x39E8 JUMP JUMPDEST SWAP1 DUP2 MSTORE PUSH1 0x20 ADD PUSH1 0x40 MLOAD DUP1 SWAP2 SUB SWAP1 KECCAK256 PUSH1 0x4 ADD SLOAD PUSH1 0x2 PUSH1 0x0 DUP5 PUSH20 0xFFFFFFFFFFFFFFFFFFFFFFFFFFFFFFFFFFFFFFFF AND PUSH20 0xFFFFFFFFFFFFFFFFFFFFFFFFFFFFFFFFFFFFFFFF AND DUP2 MSTORE PUSH1 0x20 ADD SWAP1 DUP2 MSTORE PUSH1 0x20 ADD PUSH1 0x0 KECCAK256 SLOAD PUSH2 0xD17 SWAP2 SWAP1 PUSH2 0x3BB2 JUMP JUMPDEST SWAP1 POP SWAP2 SWAP1 POP JUMP JUMPDEST PUSH1 0x0 PUSH1 0x1 PUSH1 0x6 PUSH1 0x40 MLOAD PUSH2 0xD31 SWAP2 SWAP1 PUSH2 0x39E8 JUMP JUMPDEST SWAP1 DUP2 MSTORE PUSH1 0x20 ADD PUSH1 0x40 MLOAD DUP1 SWAP2 SUB SWAP1 KECCAK256 PUSH1 0x5 ADD SLOAD SWAP1 POP SWAP1 JUMP JUMPDEST PUSH1 0x6 DUP1 SLOAD PUSH2 0xD55 SWAP1 PUSH2 0x3914 JUMP JUMPDEST DUP1 PUSH1 0x1F ADD PUSH1 0x20 DUP1 SWAP2 DIV MUL PUSH1 0x20 ADD PUSH1 0x40 MLOAD SWAP1 DUP2 ADD PUSH1 0x40 MSTORE DUP1 SWAP3 SWAP2 SWAP1 DUP2 DUP2 MSTORE PUSH1 0x20 ADD DUP3 DUP1 SLOAD PUSH2 0xD81 SWAP1 PUSH2 0x3914 JUMP JUMPDEST DUP1 ISZERO PUSH2 0xDCE JUMPI DUP1 PUSH1 0x1F LT PUSH2 0xDA3 JUMPI PUSH2 0x100 DUP1 DUP4 SLOAD DIV MUL DUP4 MSTORE SWAP2 PUSH1 0x20 ADD SWAP2 PUSH2 0xDCE JUMP JUMPDEST DUP3 ADD SWAP2 SWAP1 PUSH1 0x0 MSTORE PUSH1 0x20 PUSH1 0x0 KECCAK256 SWAP1 JUMPDEST DUP2 SLOAD DUP2 MSTORE SWAP1 PUSH1 0x1 ADD SWAP1 PUSH1 0x20 ADD DUP1 DUP4 GT PUSH2 0xDB1 JUMPI DUP3 SWAP1 SUB PUSH1 0x1F AND DUP3 ADD SWAP2 JUMPDEST POP POP POP POP POP DUP2 JUMP JUMPDEST PUSH1 0x60 PUSH1 0x1 PUSH1 0x6 PUSH1 0x40 MLOAD PUSH2 0xDE9 SWAP2 SWAP1 PUSH2 0x39E8 JUMP JUMPDEST SWAP1 DUP2 MSTORE PUSH1 0x20 ADD PUSH1 0x40 MLOAD DUP1 SWAP2 SUB SWAP1 KECCAK256 PUSH1 0x0 ADD DUP1 SLOAD PUSH2 0xE05 SWAP1 PUSH2 0x3914 JUMP JUMPDEST DUP1 PUSH1 0x1F ADD PUSH1 0x20 DUP1 SWAP2 DIV MUL PUSH1 0x20 ADD PUSH1 0x40 MLOAD SWAP1 DUP2 ADD PUSH1 0x40 MSTORE DUP1 SWAP3 SWAP2 SWAP1 DUP2 DUP2 MSTORE PUSH1 0x20 ADD DUP3 DUP1 SLOAD PUSH2 0xE31 SWAP1 PUSH2 0x3914 JUMP JUMPDEST DUP1 ISZERO PUSH2 0xE7E JUMPI DUP1 PUSH1 0x1F LT PUSH2 0xE53 JUMPI PUSH2 0x100 DUP1 DUP4 SLOAD DIV MUL DUP4 MSTORE SWAP2 PUSH1 0x20 ADD SWAP2 PUSH2 0xE7E JUMP JUMPDEST DUP3 ADD SWAP2 SWAP1 PUSH1 0x0 MSTORE PUSH1 0x20 PUSH1 0x0 KECCAK256 SWAP1 JUMPDEST DUP2 SLOAD DUP2 MSTORE SWAP1 PUSH1 0x1 ADD SWAP1 PUSH1 0x20 ADD DUP1 DUP4 GT PUSH2 0xE61 JUMPI DUP3 SWAP1 SUB PUSH1 0x1F AND DUP3 ADD SWAP2 JUMPDEST POP POP POP POP POP SWAP1 POP SWAP1 JUMP JUMPDEST PUSH1 0x0 PUSH1 0x1 PUSH1 0x6 PUSH1 0x40 MLOAD PUSH2 0xE9B SWAP2 SWAP1 PUSH2 0x39E8 JUMP JUMPDEST SWAP1 DUP2 MSTORE PUSH1 0x20 ADD PUSH1 0x40 MLOAD DUP1 SWAP2 SUB SWAP1 KECCAK256 PUSH1 0x4 ADD SLOAD SWAP1 POP SWAP1 JUMP JUMPDEST PUSH1 0x0 PUSH1 0x1 PUSH1 0x6 PUSH1 0x40 MLOAD PUSH2 0xEC5 SWAP2 SWAP1 PUSH2 0x39E8 JUMP JUMPDEST SWAP1 DUP2 MSTORE PUSH1 0x20 ADD PUSH1 0x40 MLOAD DUP1 SWAP2 SUB SWAP1 KECCAK256 PUSH1 0x9 ADD SLOAD SWAP1 POP SWAP1 JUMP JUMPDEST PUSH1 0x60 PUSH1 0x9 DUP1 SLOAD DUP1 PUSH1 0x20 MUL PUSH1 0x20 ADD PUSH1 0x40 MLOAD SWAP1 DUP2 ADD PUSH1 0x40 MSTORE DUP1 SWAP3 SWAP2 SWAP1 DUP2 DUP2 MSTORE PUSH1 0x20 ADD PUSH1 0x0 SWAP1 JUMPDEST DUP3 DUP3 LT ISZERO PUSH2 0xF92 JUMPI DUP4 DUP3 SWAP1 PUSH1 0x0 MSTORE PUSH1 0x20 PUSH1 0x0 KECCAK256 SWAP1 PUSH1 0x2 MUL ADD PUSH1 0x40 MLOAD DUP1 PUSH1 0x40 ADD PUSH1 0x40 MSTORE SWAP1 DUP2 PUSH1 0x0 DUP3 ADD PUSH1 0x0 SWAP1 SLOAD SWAP1 PUSH2 0x100 EXP SWAP1 DIV PUSH20 0xFFFFFFFFFFFFFFFFFFFFFFFFFFFFFFFFFFFFFFFF AND PUSH20 0xFFFFFFFFFFFFFFFFFFFFFFFFFFFFFFFFFFFFFFFF AND PUSH20 0xFFFFFFFFFFFFFFFFFFFFFFFFFFFFFFFFFFFFFFFF AND DUP2 MSTORE PUSH1 0x20 ADD PUSH1 0x1 DUP3 ADD SLOAD DUP2 MSTORE POP POP DUP2 MSTORE PUSH1 0x20 ADD SWAP1 PUSH1 0x1 ADD SWAP1 PUSH2 0xF00 JUMP JUMPDEST POP POP POP POP SWAP1 POP SWAP1 JUMP JUMPDEST PUSH1 0x60 PUSH1 0x1 PUSH1 0x6 PUSH1 0x40 MLOAD PUSH2 0xFAE SWAP2 SWAP1 PUSH2 0x39E8 JUMP JUMPDEST SWAP1 DUP2 MSTORE PUSH1 0x20 ADD PUSH1 0x40 MLOAD DUP1 SWAP2 SUB SWAP1 KECCAK256 PUSH1 0x2 ADD DUP1 SLOAD PUSH2 0xFCA SWAP1 PUSH2 0x3914 JUMP JUMPDEST DUP1 PUSH1 0x1F ADD PUSH1 0x20 DUP1 SWAP2 DIV MUL PUSH1 0x20 ADD PUSH1 0x40 MLOAD SWAP1 DUP2 ADD PUSH1 0x40 MSTORE DUP1 SWAP3 SWAP2 SWAP1 DUP2 DUP2 MSTORE PUSH1 0x20 ADD DUP3 DUP1 SLOAD PUSH2 0xFF6 SWAP1 PUSH2 0x3914 JUMP JUMPDEST DUP1 ISZERO PUSH2 0x1043 JUMPI DUP1 PUSH1 0x1F LT PUSH2 0x1018 JUMPI PUSH2 0x100 DUP1 DUP4 SLOAD DIV MUL DUP4 MSTORE SWAP2 PUSH1 0x20 ADD SWAP2 PUSH2 0x1043 JUMP JUMPDEST DUP3 ADD SWAP2 SWAP1 PUSH1 0x0 MSTORE PUSH1 0x20 PUSH1 0x0 KECCAK256 SWAP1 JUMPDEST DUP2 SLOAD DUP2 MSTORE SWAP1 PUSH1 0x1 ADD SWAP1 PUSH1 0x20 ADD DUP1 DUP4 GT PUSH2 0x1026 JUMPI DUP3 SWAP1 SUB PUSH1 0x1F AND DUP3 ADD SWAP2 JUMPDEST POP POP POP POP POP SWAP1 POP SWAP1 JUMP JUMPDEST PUSH1 0x8 PUSH1 0x0 SWAP1 SLOAD SWAP1 PUSH2 0x100 EXP SWAP1 DIV PUSH20 0xFFFFFFFFFFFFFFFFFFFFFFFFFFFFFFFFFFFFFFFF AND DUP2 JUMP JUMPDEST PUSH1 0x0 CALLER PUSH20 0xFFFFFFFFFFFFFFFFFFFFFFFFFFFFFFFFFFFFFFFF AND ORIGIN PUSH20 0xFFFFFFFFFFFFFFFFFFFFFFFFFFFFFFFFFFFFFFFF AND SUB PUSH2 0x10B0 JUMPI ORIGIN SWAP1 POP PUSH2 0x10B4 JUMP JUMPDEST CALLER SWAP1 POP JUMPDEST PUSH2 0x10BF DUP2 DUP5 DUP5 PUSH2 0x19BF JUMP JUMPDEST POP POP POP JUMP JUMPDEST PUSH1 0x0 DUP5 PUSH1 0x0 PUSH1 0x8 PUSH1 0x0 SWAP1 SLOAD SWAP1 PUSH2 0x100 EXP SWAP1 DIV PUSH20 0xFFFFFFFFFFFFFFFFFFFFFFFFFFFFFFFFFFFFFFFF AND PUSH20 0xFFFFFFFFFFFFFFFFFFFFFFFFFFFFFFFFFFFFFFFF AND PUSH4 0xC3A2A93A PUSH1 0x40 MLOAD DUP2 PUSH4 0xFFFFFFFF AND PUSH1 0xE0 SHL DUP2 MSTORE PUSH1 0x4 ADD PUSH1 0xA0 PUSH1 0x40 MLOAD DUP1 DUP4 SUB DUP2 DUP7 GAS STATICCALL ISZERO DUP1 ISZERO PUSH2 0x1136 JUMPI RETURNDATASIZE PUSH1 0x0 DUP1 RETURNDATACOPY RETURNDATASIZE PUSH1 0x0 REVERT JUMPDEST POP POP POP POP PUSH1 0x40 MLOAD RETURNDATASIZE PUSH1 0x1F NOT PUSH1 0x1F DUP3 ADD AND DUP3 ADD DUP1 PUSH1 0x40 MSTORE POP DUP2 ADD SWAP1 PUSH2 0x115A SWAP2 SWAP1 PUSH2 0x3A14 JUMP JUMPDEST POP POP SWAP3 POP POP POP DUP1 PUSH20 0xFFFFFFFFFFFFFFFFFFFFFFFFFFFFFFFFFFFFFFFF AND PUSH4 0xB9209E33 DUP4 PUSH1 0x40 MLOAD DUP3 PUSH4 0xFFFFFFFF AND PUSH1 0xE0 SHL DUP2 MSTORE PUSH1 0x4 ADD PUSH2 0x1199 SWAP2 SWAP1 PUSH2 0x3275 JUMP JUMPDEST PUSH1 0x20 PUSH1 0x40 MLOAD DUP1 DUP4 SUB DUP2 DUP7 GAS STATICCALL ISZERO DUP1 ISZERO PUSH2 0x11B6 JUMPI RETURNDATASIZE PUSH1 0x0 DUP1 RETURNDATACOPY RETURNDATASIZE PUSH1 0x0 REVERT JUMPDEST POP POP POP POP PUSH1 0x40 MLOAD RETURNDATASIZE PUSH1 0x1F NOT PUSH1 0x1F DUP3 ADD AND DUP3 ADD DUP1 PUSH1 0x40 MSTORE POP DUP2 ADD SWAP1 PUSH2 0x11DA SWAP2 SWAP1 PUSH2 0x3ABB JUMP JUMPDEST PUSH2 0x1219 JUMPI PUSH1 0x40 MLOAD PUSH32 0x8C379A000000000000000000000000000000000000000000000000000000000 DUP2 MSTORE PUSH1 0x4 ADD PUSH2 0x1210 SWAP1 PUSH2 0x3B34 JUMP JUMPDEST PUSH1 0x40 MLOAD DUP1 SWAP2 SUB SWAP1 REVERT JUMPDEST PUSH1 0x0 CALLER PUSH20 0xFFFFFFFFFFFFFFFFFFFFFFFFFFFFFFFFFFFFFFFF AND ORIGIN PUSH20 0xFFFFFFFFFFFFFFFFFFFFFFFFFFFFFFFFFFFFFFFF AND SUB PUSH2 0x1256 JUMPI ORIGIN SWAP1 POP PUSH2 0x125A JUMP JUMPDEST CALLER SWAP1 POP JUMPDEST PUSH2 0x1265 DUP10 DUP3 DUP10 PUSH2 0x1C18 JUMP JUMPDEST PUSH2 0x1272 DUP10 DUP10 DUP10 DUP10 DUP10 PUSH2 0x1D2F JUMP JUMPDEST PUSH1 0x1 SWAP4 POP POP POP POP SWAP6 SWAP5 POP POP POP POP POP JUMP JUMPDEST PUSH1 0x8 PUSH1 0x0 SWAP1 SLOAD SWAP1 PUSH2 0x100 EXP SWAP1 DIV PUSH20 0xFFFFFFFFFFFFFFFFFFFFFFFFFFFFFFFFFFFFFFFF AND PUSH20 0xFFFFFFFFFFFFFFFFFFFFFFFFFFFFFFFFFFFFFFFF AND CALLER PUSH20 0xFFFFFFFFFFFFFFFFFFFFFFFFFFFFFFFFFFFFFFFF AND EQ PUSH2 0x1312 JUMPI PUSH1 0x40 MLOAD PUSH32 0x8C379A000000000000000000000000000000000000000000000000000000000 DUP2 MSTORE PUSH1 0x4 ADD PUSH2 0x1309 SWAP1 PUSH2 0x3C2F JUMP JUMPDEST PUSH1 0x40 MLOAD DUP1 SWAP2 SUB SWAP1 REVERT JUMPDEST PUSH2 0x131A PUSH2 0x2928 JUMP JUMPDEST JUMP JUMPDEST PUSH1 0x0 DUP5 PUSH1 0x0 PUSH1 0x8 PUSH1 0x0 SWAP1 SLOAD SWAP1 PUSH2 0x100 EXP SWAP1 DIV PUSH20 0xFFFFFFFFFFFFFFFFFFFFFFFFFFFFFFFFFFFFFFFF AND PUSH20 0xFFFFFFFFFFFFFFFFFFFFFFFFFFFFFFFFFFFFFFFF AND PUSH4 0xC3A2A93A PUSH1 0x40 MLOAD DUP2 PUSH4 0xFFFFFFFF AND PUSH1 0xE0 SHL DUP2 MSTORE PUSH1 0x4 ADD PUSH1 0xA0 PUSH1 0x40 MLOAD DUP1 DUP4 SUB DUP2 DUP7 GAS STATICCALL ISZERO DUP1 ISZERO PUSH2 0x138E JUMPI RETURNDATASIZE PUSH1 0x0 DUP1 RETURNDATACOPY RETURNDATASIZE PUSH1 0x0 REVERT JUMPDEST POP POP POP POP PUSH1 0x40 MLOAD RETURNDATASIZE PUSH1 0x1F NOT PUSH1 0x1F DUP3 ADD AND DUP3 ADD DUP1 PUSH1 0x40 MSTORE POP DUP2 ADD SWAP1 PUSH2 0x13B2 SWAP2 SWAP1 PUSH2 0x3A14 JUMP JUMPDEST POP POP SWAP3 POP POP POP DUP1 PUSH20 0xFFFFFFFFFFFFFFFFFFFFFFFFFFFFFFFFFFFFFFFF AND PUSH4 0xB9209E33 DUP4 PUSH1 0x40 MLOAD DUP3 PUSH4 0xFFFFFFFF AND PUSH1 0xE0 SHL DUP2 MSTORE PUSH1 0x4 ADD PUSH2 0x13F1 SWAP2 SWAP1 PUSH2 0x3275 JUMP JUMPDEST PUSH1 0x20 PUSH1 0x40 MLOAD DUP1 DUP4 SUB DUP2 DUP7 GAS STATICCALL ISZERO DUP1 ISZERO PUSH2 0x140E JUMPI RETURNDATASIZE PUSH1 0x0 DUP1 RETURNDATACOPY RETURNDATASIZE PUSH1 0x0 REVERT JUMPDEST POP POP POP POP PUSH1 0x40 MLOAD RETURNDATASIZE PUSH1 0x1F NOT PUSH1 0x1F DUP3 ADD AND DUP3 ADD DUP1 PUSH1 0x40 MSTORE POP DUP2 ADD SWAP1 PUSH2 0x1432 SWAP2 SWAP1 PUSH2 0x3ABB JUMP JUMPDEST PUSH2 0x1471 JUMPI PUSH1 0x40 MLOAD PUSH32 0x8C379A000000000000000000000000000000000000000000000000000000000 DUP2 MSTORE PUSH1 0x4 ADD PUSH2 0x1468 SWAP1 PUSH2 0x3B34 JUMP JUMPDEST PUSH1 0x40 MLOAD DUP1 SWAP2 SUB SWAP1 REVERT JUMPDEST PUSH1 0x0 CALLER PUSH20 0xFFFFFFFFFFFFFFFFFFFFFFFFFFFFFFFFFFFFFFFF AND ORIGIN PUSH20 0xFFFFFFFFFFFFFFFFFFFFFFFFFFFFFFFFFFFFFFFF AND SUB PUSH2 0x14AE JUMPI ORIGIN SWAP1 POP PUSH2 0x14B2 JUMP JUMPDEST CALLER SWAP1 POP JUMPDEST PUSH2 0x14BF DUP2 DUP10 DUP10 DUP10 DUP10 PUSH2 0x1D2F JUMP JUMPDEST PUSH1 0x1 SWAP4 POP POP POP POP SWAP5 SWAP4 POP POP POP POP JUMP JUMPDEST PUSH1 0x0 PUSH1 0x1 PUSH1 0x6 PUSH1 0x40 MLOAD PUSH2 0x14E1 SWAP2 SWAP1 PUSH2 0x39E8 JUMP JUMPDEST SWAP1 DUP2 MSTORE PUSH1 0x20 ADD PUSH1 0x40 MLOAD DUP1 SWAP2 SUB SWAP1 KECCAK256 PUSH1 0x6 ADD SLOAD SWAP1 POP SWAP1 JUMP JUMPDEST PUSH1 0x8 PUSH1 0x14 SWAP1 SLOAD SWAP1 PUSH2 0x100 EXP SWAP1 DIV PUSH1 0xFF AND DUP2 JUMP JUMPDEST PUSH1 0x3 PUSH1 0x20 MSTORE DUP1 PUSH1 0x0 MSTORE PUSH1 0x40 PUSH1 0x0 KECCAK256 PUSH1 0x0 SWAP2 POP SLOAD SWAP1 PUSH2 0x100 EXP SWAP1 DIV PUSH1 0xFF AND DUP2 JUMP JUMPDEST PUSH1 0x0 PUSH1 0x1 PUSH1 0x6 PUSH1 0x40 MLOAD PUSH2 0x153E SWAP2 SWAP1 PUSH2 0x39E8 JUMP JUMPDEST SWAP1 DUP2 MSTORE PUSH1 0x20 ADD PUSH1 0x40 MLOAD DUP1 SWAP2 SUB SWAP1 KECCAK256 PUSH1 0xA ADD SLOAD SWAP1 POP SWAP1 JUMP JUMPDEST PUSH1 0x8 PUSH1 0x0 SWAP1 SLOAD SWAP1 PUSH2 0x100 EXP SWAP1 DIV PUSH20 0xFFFFFFFFFFFFFFFFFFFFFFFFFFFFFFFFFFFFFFFF AND PUSH20 0xFFFFFFFFFFFFFFFFFFFFFFFFFFFFFFFFFFFFFFFF AND CALLER PUSH20 0xFFFFFFFFFFFFFFFFFFFFFFFFFFFFFFFFFFFFFFFF AND EQ PUSH2 0x15E5 JUMPI PUSH1 0x40 MLOAD PUSH32 0x8C379A000000000000000000000000000000000000000000000000000000000 DUP2 MSTORE PUSH1 0x4 ADD PUSH2 0x15DC SWAP1 PUSH2 0x3C2F JUMP JUMPDEST PUSH1 0x40 MLOAD DUP1 SWAP2 SUB SWAP1 REVERT JUMPDEST PUSH2 0x15EE DUP2 PUSH2 0x2B7E JUMP JUMPDEST POP JUMP JUMPDEST PUSH1 0x0 PUSH1 0x5 PUSH1 0x0 DUP5 PUSH20 0xFFFFFFFFFFFFFFFFFFFFFFFFFFFFFFFFFFFFFFFF AND PUSH20 0xFFFFFFFFFFFFFFFFFFFFFFFFFFFFFFFFFFFFFFFF AND DUP2 MSTORE PUSH1 0x20 ADD SWAP1 DUP2 MSTORE PUSH1 0x20 ADD PUSH1 0x0 KECCAK256 PUSH1 0x0 DUP4 PUSH20 0xFFFFFFFFFFFFFFFFFFFFFFFFFFFFFFFFFFFFFFFF AND PUSH20 0xFFFFFFFFFFFFFFFFFFFFFFFFFFFFFFFFFFFFFFFF AND DUP2 MSTORE PUSH1 0x20 ADD SWAP1 DUP2 MSTORE PUSH1 0x20 ADD PUSH1 0x0 KECCAK256 SLOAD SWAP1 POP SWAP3 SWAP2 POP POP JUMP JUMPDEST PUSH1 0x0 PUSH1 0x1 PUSH1 0x6 PUSH1 0x40 MLOAD PUSH2 0x168B SWAP2 SWAP1 PUSH2 0x39E8 JUMP JUMPDEST SWAP1 DUP2 MSTORE PUSH1 0x20 ADD PUSH1 0x40 MLOAD DUP1 SWAP2 SUB SWAP1 KECCAK256 PUSH1 0x3 ADD PUSH1 0x0 SWAP1 SLOAD SWAP1 PUSH2 0x100 EXP SWAP1 DIV PUSH20 0xFFFFFFFFFFFFFFFFFFFFFFFFFFFFFFFFFFFFFFFF AND SWAP1 POP SWAP1 JUMP JUMPDEST PUSH1 0x4 PUSH1 0x20 MSTORE DUP1 PUSH1 0x0 MSTORE PUSH1 0x40 PUSH1 0x0 KECCAK256 PUSH1 0x0 SWAP2 POP SWAP1 POP SLOAD DUP2 JUMP JUMPDEST PUSH1 0x0 PUSH20 0xFFFFFFFFFFFFFFFFFFFFFFFFFFFFFFFFFFFFFFFF AND DUP4 PUSH20 0xFFFFFFFFFFFFFFFFFFFFFFFFFFFFFFFFFFFFFFFF AND SUB PUSH2 0x1713 JUMPI PUSH1 0x0 DUP1 REVERT JUMPDEST PUSH1 0x0 PUSH20 0xFFFFFFFFFFFFFFFFFFFFFFFFFFFFFFFFFFFFFFFF AND DUP3 PUSH20 0xFFFFFFFFFFFFFFFFFFFFFFFFFFFFFFFFFFFFFFFF AND SUB PUSH2 0x174C JUMPI PUSH1 0x0 DUP1 REVERT JUMPDEST PUSH1 0x0 DUP2 GT PUSH2 0x1759 JUMPI PUSH1 0x0 DUP1 REVERT JUMPDEST PUSH1 0x0 PUSH1 0x2 PUSH1 0x0 DUP6 PUSH20 0xFFFFFFFFFFFFFFFFFFFFFFFFFFFFFFFFFFFFFFFF AND PUSH20 0xFFFFFFFFFFFFFFFFFFFFFFFFFFFFFFFFFFFFFFFF AND DUP2 MSTORE PUSH1 0x20 ADD SWAP1 DUP2 MSTORE PUSH1 0x20 ADD PUSH1 0x0 KECCAK256 SLOAD SWAP1 POP PUSH1 0x0 PUSH1 0x5 PUSH1 0x0 DUP7 PUSH20 0xFFFFFFFFFFFFFFFFFFFFFFFFFFFFFFFFFFFFFFFF AND PUSH20 0xFFFFFFFFFFFFFFFFFFFFFFFFFFFFFFFFFFFFFFFF AND DUP2 MSTORE PUSH1 0x20 ADD SWAP1 DUP2 MSTORE PUSH1 0x20 ADD PUSH1 0x0 KECCAK256 PUSH1 0x0 DUP6 PUSH20 0xFFFFFFFFFFFFFFFFFFFFFFFFFFFFFFFFFFFFFFFF AND PUSH20 0xFFFFFFFFFFFFFFFFFFFFFFFFFFFFFFFFFFFFFFFF AND DUP2 MSTORE PUSH1 0x20 ADD SWAP1 DUP2 MSTORE PUSH1 0x20 ADD PUSH1 0x0 KECCAK256 SLOAD SWAP1 POP PUSH1 0x0 PUSH1 0x1 PUSH1 0x6 PUSH1 0x40 MLOAD PUSH2 0x1831 SWAP2 SWAP1 PUSH2 0x39E8 JUMP JUMPDEST SWAP1 DUP2 MSTORE PUSH1 0x20 ADD PUSH1 0x40 MLOAD DUP1 SWAP2 SUB SWAP1 KECCAK256 PUSH1 0x4 ADD SLOAD SWAP1 POP PUSH1 0x0 PUSH1 0x1 PUSH1 0x6 PUSH1 0x40 MLOAD PUSH2 0x1858 SWAP2 SWAP1 PUSH2 0x39E8 JUMP JUMPDEST SWAP1 DUP2 MSTORE PUSH1 0x20 ADD PUSH1 0x40 MLOAD DUP1 SWAP2 SUB SWAP1 KECCAK256 PUSH1 0xA ADD SLOAD SWAP1 POP PUSH1 0x0 DUP3 DUP6 PUSH2 0x187A SWAP2 SWAP1 PUSH2 0x3BB2 JUMP JUMPDEST SWAP1 POP DUP2 TIMESTAMP LT PUSH2 0x18BE JUMPI PUSH1 0x40 MLOAD PUSH32 0x8C379A000000000000000000000000000000000000000000000000000000000 DUP2 MSTORE PUSH1 0x4 ADD PUSH2 0x18B5 SWAP1 PUSH2 0x3C9B JUMP JUMPDEST PUSH1 0x40 MLOAD DUP1 SWAP2 SUB SWAP1 REVERT JUMPDEST DUP1 DUP7 GT ISZERO PUSH2 0x18CB JUMPI PUSH1 0x0 DUP1 REVERT JUMPDEST PUSH1 0x0 DUP4 DUP5 DUP9 PUSH2 0x18DA SWAP2 SWAP1 PUSH2 0x3CBB JUMP JUMPDEST PUSH2 0x18E4 SWAP2 SWAP1 PUSH2 0x3CFD JUMP JUMPDEST EQ PUSH2 0x18EE JUMPI PUSH1 0x0 DUP1 REVERT JUMPDEST DUP6 DUP5 PUSH2 0x18FA SWAP2 SWAP1 PUSH2 0x3D2E JUMP JUMPDEST PUSH1 0x5 PUSH1 0x0 DUP11 PUSH20 0xFFFFFFFFFFFFFFFFFFFFFFFFFFFFFFFFFFFFFFFF AND PUSH20 0xFFFFFFFFFFFFFFFFFFFFFFFFFFFFFFFFFFFFFFFF AND DUP2 MSTORE PUSH1 0x20 ADD SWAP1 DUP2 MSTORE PUSH1 0x20 ADD PUSH1 0x0 KECCAK256 PUSH1 0x0 DUP10 PUSH20 0xFFFFFFFFFFFFFFFFFFFFFFFFFFFFFFFFFFFFFFFF AND PUSH20 0xFFFFFFFFFFFFFFFFFFFFFFFFFFFFFFFFFFFFFFFF AND DUP2 MSTORE PUSH1 0x20 ADD SWAP1 DUP2 MSTORE PUSH1 0x20 ADD PUSH1 0x0 KECCAK256 DUP2 SWAP1 SSTORE POP PUSH32 0x8C5BE1E5EBEC7D5BD14F71427D1E84F3DD0314C0F7B2291E5B200AC8C7C3B925 DUP9 DUP9 DUP9 PUSH1 0x40 MLOAD PUSH2 0x19AD SWAP4 SWAP3 SWAP2 SWAP1 PUSH2 0x3D62 JUMP JUMPDEST PUSH1 0x40 MLOAD DUP1 SWAP2 SUB SWAP1 LOG1 POP POP POP POP POP POP POP POP JUMP JUMPDEST PUSH1 0x0 PUSH20 0xFFFFFFFFFFFFFFFFFFFFFFFFFFFFFFFFFFFFFFFF AND DUP4 PUSH20 0xFFFFFFFFFFFFFFFFFFFFFFFFFFFFFFFFFFFFFFFF AND SUB PUSH2 0x19F8 JUMPI PUSH1 0x0 DUP1 REVERT JUMPDEST PUSH1 0x0 PUSH20 0xFFFFFFFFFFFFFFFFFFFFFFFFFFFFFFFFFFFFFFFF AND DUP3 PUSH20 0xFFFFFFFFFFFFFFFFFFFFFFFFFFFFFFFFFFFFFFFF AND SUB PUSH2 0x1A31 JUMPI PUSH1 0x0 DUP1 REVERT JUMPDEST PUSH1 0x0 DUP2 GT PUSH2 0x1A3E JUMPI PUSH1 0x0 DUP1 REVERT JUMPDEST PUSH1 0x0 PUSH1 0x5 PUSH1 0x0 DUP6 PUSH20 0xFFFFFFFFFFFFFFFFFFFFFFFFFFFFFFFFFFFFFFFF AND PUSH20 0xFFFFFFFFFFFFFFFFFFFFFFFFFFFFFFFFFFFFFFFF AND DUP2 MSTORE PUSH1 0x20 ADD SWAP1 DUP2 MSTORE PUSH1 0x20 ADD PUSH1 0x0 KECCAK256 PUSH1 0x0 DUP5 PUSH20 0xFFFFFFFFFFFFFFFFFFFFFFFFFFFFFFFFFFFFFFFF AND PUSH20 0xFFFFFFFFFFFFFFFFFFFFFFFFFFFFFFFFFFFFFFFF AND DUP2 MSTORE PUSH1 0x20 ADD SWAP1 DUP2 MSTORE PUSH1 0x20 ADD PUSH1 0x0 KECCAK256 SLOAD SWAP1 POP PUSH1 0x0 PUSH1 0x1 PUSH1 0x6 PUSH1 0x40 MLOAD PUSH2 0x1AD2 SWAP2 SWAP1 PUSH2 0x39E8 JUMP JUMPDEST SWAP1 DUP2 MSTORE PUSH1 0x20 ADD PUSH1 0x40 MLOAD DUP1 SWAP2 SUB SWAP1 KECCAK256 PUSH1 0x4 ADD SLOAD SWAP1 POP PUSH1 0x0 PUSH1 0x1 PUSH1 0x6 PUSH1 0x40 MLOAD PUSH2 0x1AF9 SWAP2 SWAP1 PUSH2 0x39E8 JUMP JUMPDEST SWAP1 DUP2 MSTORE PUSH1 0x20 ADD PUSH1 0x40 MLOAD DUP1 SWAP2 SUB SWAP1 KECCAK256 PUSH1 0xA ADD SLOAD SWAP1 POP DUP1 TIMESTAMP LT PUSH2 0x1B19 JUMPI PUSH1 0x0 DUP1 REVERT JUMPDEST DUP3 DUP5 GT ISZERO PUSH2 0x1B26 JUMPI PUSH1 0x0 DUP1 REVERT JUMPDEST PUSH1 0x0 DUP3 DUP4 DUP7 PUSH2 0x1B35 SWAP2 SWAP1 PUSH2 0x3CBB JUMP JUMPDEST PUSH2 0x1B3F SWAP2 SWAP1 PUSH2 0x3CFD JUMP JUMPDEST EQ PUSH2 0x1B49 JUMPI PUSH1 0x0 DUP1 REVERT JUMPDEST DUP4 DUP4 PUSH2 0x1B55 SWAP2 SWAP1 PUSH2 0x3D99 JUMP JUMPDEST PUSH1 0x5 PUSH1 0x0 DUP9 PUSH20 0xFFFFFFFFFFFFFFFFFFFFFFFFFFFFFFFFFFFFFFFF AND PUSH20 0xFFFFFFFFFFFFFFFFFFFFFFFFFFFFFFFFFFFFFFFF AND DUP2 MSTORE PUSH1 0x20 ADD SWAP1 DUP2 MSTORE PUSH1 0x20 ADD PUSH1 0x0 KECCAK256 PUSH1 0x0 DUP8 PUSH20 0xFFFFFFFFFFFFFFFFFFFFFFFFFFFFFFFFFFFFFFFF AND PUSH20 0xFFFFFFFFFFFFFFFFFFFFFFFFFFFFFFFFFFFFFFFF AND DUP2 MSTORE PUSH1 0x20 ADD SWAP1 DUP2 MSTORE PUSH1 0x20 ADD PUSH1 0x0 KECCAK256 DUP2 SWAP1 SSTORE POP PUSH32 0x8C5BE1E5EBEC7D5BD14F71427D1E84F3DD0314C0F7B2291E5B200AC8C7C3B925 DUP7 DUP7 DUP7 PUSH1 0x40 MLOAD PUSH2 0x1C08 SWAP4 SWAP3 SWAP2 SWAP1 PUSH2 0x3D62 JUMP JUMPDEST PUSH1 0x40 MLOAD DUP1 SWAP2 SUB SWAP1 LOG1 POP POP POP POP POP POP JUMP JUMPDEST PUSH1 0x0 PUSH1 0x5 PUSH1 0x0 DUP6 PUSH20 0xFFFFFFFFFFFFFFFFFFFFFFFFFFFFFFFFFFFFFFFF AND PUSH20 0xFFFFFFFFFFFFFFFFFFFFFFFFFFFFFFFFFFFFFFFF AND DUP2 MSTORE PUSH1 0x20 ADD SWAP1 DUP2 MSTORE PUSH1 0x20 ADD PUSH1 0x0 KECCAK256 PUSH1 0x0 DUP5 PUSH20 0xFFFFFFFFFFFFFFFFFFFFFFFFFFFFFFFFFFFFFFFF AND PUSH20 0xFFFFFFFFFFFFFFFFFFFFFFFFFFFFFFFFFFFFFFFF AND DUP2 MSTORE PUSH1 0x20 ADD SWAP1 DUP2 MSTORE PUSH1 0x20 ADD PUSH1 0x0 KECCAK256 SLOAD SWAP1 POP DUP1 DUP3 GT ISZERO PUSH2 0x1CA6 JUMPI PUSH1 0x0 DUP1 REVERT JUMPDEST DUP2 DUP2 SUB PUSH1 0x5 PUSH1 0x0 DUP7 PUSH20 0xFFFFFFFFFFFFFFFFFFFFFFFFFFFFFFFFFFFFFFFF AND PUSH20 0xFFFFFFFFFFFFFFFFFFFFFFFFFFFFFFFFFFFFFFFF AND DUP2 MSTORE PUSH1 0x20 ADD SWAP1 DUP2 MSTORE PUSH1 0x20 ADD PUSH1 0x0 KECCAK256 PUSH1 0x0 DUP6 PUSH20 0xFFFFFFFFFFFFFFFFFFFFFFFFFFFFFFFFFFFFFFFF AND PUSH20 0xFFFFFFFFFFFFFFFFFFFFFFFFFFFFFFFFFFFFFFFF AND DUP2 MSTORE PUSH1 0x20 ADD SWAP1 DUP2 MSTORE PUSH1 0x20 ADD PUSH1 0x0 KECCAK256 DUP2 SWAP1 SSTORE POP POP POP POP POP JUMP JUMPDEST PUSH1 0x0 PUSH20 0xFFFFFFFFFFFFFFFFFFFFFFFFFFFFFFFFFFFFFFFF AND DUP6 PUSH20 0xFFFFFFFFFFFFFFFFFFFFFFFFFFFFFFFFFFFFFFFF AND SUB PUSH2 0x1D68 JUMPI PUSH1 0x0 DUP1 REVERT JUMPDEST PUSH1 0x0 PUSH20 0xFFFFFFFFFFFFFFFFFFFFFFFFFFFFFFFFFFFFFFFF AND DUP5 PUSH20 0xFFFFFFFFFFFFFFFFFFFFFFFFFFFFFFFFFFFFFFFF AND SUB PUSH2 0x1DA1 JUMPI PUSH1 0x0 DUP1 REVERT JUMPDEST PUSH1 0x0 DUP4 GT PUSH2 0x1DAE JUMPI PUSH1 0x0 DUP1 REVERT JUMPDEST PUSH1 0x0 PUSH1 0x2 PUSH1 0x0 DUP8 PUSH20 0xFFFFFFFFFFFFFFFFFFFFFFFFFFFFFFFFFFFFFFFF AND PUSH20 0xFFFFFFFFFFFFFFFFFFFFFFFFFFFFFFFFFFFFFFFF AND DUP2 MSTORE PUSH1 0x20 ADD SWAP1 DUP2 MSTORE PUSH1 0x20 ADD PUSH1 0x0 KECCAK256 SLOAD SWAP1 POP PUSH1 0x0 PUSH1 0x1 PUSH1 0x6 PUSH1 0x40 MLOAD PUSH2 0x1E05 SWAP2 SWAP1 PUSH2 0x39E8 JUMP JUMPDEST SWAP1 DUP2 MSTORE PUSH1 0x20 ADD PUSH1 0x40 MLOAD DUP1 SWAP2 SUB SWAP1 KECCAK256 PUSH1 0x4 ADD SLOAD SWAP1 POP PUSH1 0x0 PUSH1 0x1 PUSH1 0x6 PUSH1 0x40 MLOAD PUSH2 0x1E2C SWAP2 SWAP1 PUSH2 0x39E8 JUMP JUMPDEST SWAP1 DUP2 MSTORE PUSH1 0x20 ADD PUSH1 0x40 MLOAD DUP1 SWAP2 SUB SWAP1 KECCAK256 PUSH1 0xA ADD SLOAD SWAP1 POP PUSH1 0x0 DUP3 DUP5 PUSH2 0x1E4E SWAP2 SWAP1 PUSH2 0x3BB2 JUMP JUMPDEST SWAP1 POP DUP2 TIMESTAMP LT PUSH2 0x1E92 JUMPI PUSH1 0x40 MLOAD PUSH32 0x8C379A000000000000000000000000000000000000000000000000000000000 DUP2 MSTORE PUSH1 0x4 ADD PUSH2 0x1E89 SWAP1 PUSH2 0x3C9B JUMP JUMPDEST PUSH1 0x40 MLOAD DUP1 SWAP2 SUB SWAP1 REVERT JUMPDEST DUP1 DUP8 GT ISZERO PUSH2 0x1E9F JUMPI PUSH1 0x0 DUP1 REVERT JUMPDEST PUSH1 0x0 DUP4 DUP5 DUP10 PUSH2 0x1EAE SWAP2 SWAP1 PUSH2 0x3CBB JUMP JUMPDEST PUSH2 0x1EB8 SWAP2 SWAP1 PUSH2 0x3CFD JUMP JUMPDEST EQ PUSH2 0x1EC2 JUMPI PUSH1 0x0 DUP1 REVERT JUMPDEST PUSH2 0x1ECF DUP10 DUP10 DUP10 DUP10 DUP10 PUSH2 0x3027 JUMP JUMPDEST PUSH1 0x0 PUSH1 0x2 PUSH1 0x0 DUP11 PUSH20 0xFFFFFFFFFFFFFFFFFFFFFFFFFFFFFFFFFFFFFFFF AND PUSH20 0xFFFFFFFFFFFFFFFFFFFFFFFFFFFFFFFFFFFFFFFF AND DUP2 MSTORE PUSH1 0x20 ADD SWAP1 DUP2 MSTORE PUSH1 0x20 ADD PUSH1 0x0 KECCAK256 SLOAD SWAP1 POP PUSH1 0x0 DUP5 DUP10 MUL SWAP1 POP DUP1 DUP7 SUB PUSH1 0x2 PUSH1 0x0 DUP14 PUSH20 0xFFFFFFFFFFFFFFFFFFFFFFFFFFFFFFFFFFFFFFFF AND PUSH20 0xFFFFFFFFFFFFFFFFFFFFFFFFFFFFFFFFFFFFFFFF AND DUP2 MSTORE PUSH1 0x20 ADD SWAP1 DUP2 MSTORE PUSH1 0x20 ADD PUSH1 0x0 KECCAK256 DUP2 SWAP1 SSTORE POP DUP1 DUP3 ADD PUSH1 0x2 PUSH1 0x0 DUP13 PUSH20 0xFFFFFFFFFFFFFFFFFFFFFFFFFFFFFFFFFFFFFFFF AND PUSH20 0xFFFFFFFFFFFFFFFFFFFFFFFFFFFFFFFFFFFFFFFF AND DUP2 MSTORE PUSH1 0x20 ADD SWAP1 DUP2 MSTORE PUSH1 0x20 ADD PUSH1 0x0 KECCAK256 DUP2 SWAP1 SSTORE POP DUP3 DUP10 SUB PUSH2 0x23D8 JUMPI PUSH1 0x0 PUSH1 0x3 PUSH1 0x0 DUP14 PUSH20 0xFFFFFFFFFFFFFFFFFFFFFFFFFFFFFFFFFFFFFFFF AND PUSH20 0xFFFFFFFFFFFFFFFFFFFFFFFFFFFFFFFFFFFFFFFF AND DUP2 MSTORE PUSH1 0x20 ADD SWAP1 DUP2 MSTORE PUSH1 0x20 ADD PUSH1 0x0 KECCAK256 PUSH1 0x0 PUSH2 0x100 EXP DUP2 SLOAD DUP2 PUSH1 0xFF MUL NOT AND SWAP1 DUP4 ISZERO ISZERO MUL OR SWAP1 SSTORE POP PUSH1 0x3 PUSH1 0x0 DUP12 PUSH20 0xFFFFFFFFFFFFFFFFFFFFFFFFFFFFFFFFFFFFFFFF AND PUSH20 0xFFFFFFFFFFFFFFFFFFFFFFFFFFFFFFFFFFFFFFFF AND DUP2 MSTORE PUSH1 0x20 ADD SWAP1 DUP2 MSTORE PUSH1 0x20 ADD PUSH1 0x0 KECCAK256 PUSH1 0x0 SWAP1 SLOAD SWAP1 PUSH2 0x100 EXP SWAP1 DIV PUSH1 0xFF AND PUSH2 0x21D2 JUMPI PUSH1 0x1 PUSH1 0x3 PUSH1 0x0 DUP13 PUSH20 0xFFFFFFFFFFFFFFFFFFFFFFFFFFFFFFFFFFFFFFFF AND PUSH20 0xFFFFFFFFFFFFFFFFFFFFFFFFFFFFFFFFFFFFFFFF AND DUP2 MSTORE PUSH1 0x20 ADD SWAP1 DUP2 MSTORE PUSH1 0x20 ADD PUSH1 0x0 KECCAK256 PUSH1 0x0 PUSH2 0x100 EXP DUP2 SLOAD DUP2 PUSH1 0xFF MUL NOT AND SWAP1 DUP4 ISZERO ISZERO MUL OR SWAP1 SSTORE POP PUSH1 0x40 MLOAD DUP1 PUSH1 0x40 ADD PUSH1 0x40 MSTORE DUP1 DUP12 PUSH20 0xFFFFFFFFFFFFFFFFFFFFFFFFFFFFFFFFFFFFFFFF AND DUP2 MSTORE PUSH1 0x20 ADD PUSH1 0x2 PUSH1 0x0 DUP14 PUSH20 0xFFFFFFFFFFFFFFFFFFFFFFFFFFFFFFFFFFFFFFFF AND PUSH20 0xFFFFFFFFFFFFFFFFFFFFFFFFFFFFFFFFFFFFFFFF AND DUP2 MSTORE PUSH1 0x20 ADD SWAP1 DUP2 MSTORE PUSH1 0x20 ADD PUSH1 0x0 KECCAK256 SLOAD DUP2 MSTORE POP PUSH1 0x9 PUSH1 0x4 PUSH1 0x0 DUP15 PUSH20 0xFFFFFFFFFFFFFFFFFFFFFFFFFFFFFFFFFFFFFFFF AND PUSH20 0xFFFFFFFFFFFFFFFFFFFFFFFFFFFFFFFFFFFFFFFF AND DUP2 MSTORE PUSH1 0x20 ADD SWAP1 DUP2 MSTORE PUSH1 0x20 ADD PUSH1 0x0 KECCAK256 SLOAD DUP2 SLOAD DUP2 LT PUSH2 0x216B JUMPI PUSH2 0x216A PUSH2 0x3DCD JUMP JUMPDEST JUMPDEST SWAP1 PUSH1 0x0 MSTORE PUSH1 0x20 PUSH1 0x0 KECCAK256 SWAP1 PUSH1 0x2 MUL ADD PUSH1 0x0 DUP3 ADD MLOAD DUP2 PUSH1 0x0 ADD PUSH1 0x0 PUSH2 0x100 EXP DUP2 SLOAD DUP2 PUSH20 0xFFFFFFFFFFFFFFFFFFFFFFFFFFFFFFFFFFFFFFFF MUL NOT AND SWAP1 DUP4 PUSH20 0xFFFFFFFFFFFFFFFFFFFFFFFFFFFFFFFFFFFFFFFF AND MUL OR SWAP1 SSTORE POP PUSH1 0x20 DUP3 ADD MLOAD DUP2 PUSH1 0x1 ADD SSTORE SWAP1 POP POP PUSH2 0x23D3 JUMP JUMPDEST PUSH1 0x40 MLOAD DUP1 PUSH1 0x40 ADD PUSH1 0x40 MSTORE DUP1 DUP13 PUSH20 0xFFFFFFFFFFFFFFFFFFFFFFFFFFFFFFFFFFFFFFFF AND DUP2 MSTORE PUSH1 0x20 ADD PUSH1 0x0 DUP2 MSTORE POP PUSH1 0x9 PUSH1 0x4 PUSH1 0x0 DUP15 PUSH20 0xFFFFFFFFFFFFFFFFFFFFFFFFFFFFFFFFFFFFFFFF AND PUSH20 0xFFFFFFFFFFFFFFFFFFFFFFFFFFFFFFFFFFFFFFFF AND DUP2 MSTORE PUSH1 0x20 ADD SWAP1 DUP2 MSTORE PUSH1 0x20 ADD PUSH1 0x0 KECCAK256 SLOAD DUP2 SLOAD DUP2 LT PUSH2 0x2251 JUMPI PUSH2 0x2250 PUSH2 0x3DCD JUMP JUMPDEST JUMPDEST SWAP1 PUSH1 0x0 MSTORE PUSH1 0x20 PUSH1 0x0 KECCAK256 SWAP1 PUSH1 0x2 MUL ADD PUSH1 0x0 DUP3 ADD MLOAD DUP2 PUSH1 0x0 ADD PUSH1 0x0 PUSH2 0x100 EXP DUP2 SLOAD DUP2 PUSH20 0xFFFFFFFFFFFFFFFFFFFFFFFFFFFFFFFFFFFFFFFF MUL NOT AND SWAP1 DUP4 PUSH20 0xFFFFFFFFFFFFFFFFFFFFFFFFFFFFFFFFFFFFFFFF AND MUL OR SWAP1 SSTORE POP PUSH1 0x20 DUP3 ADD MLOAD DUP2 PUSH1 0x1 ADD SSTORE SWAP1 POP POP PUSH1 0x40 MLOAD DUP1 PUSH1 0x40 ADD PUSH1 0x40 MSTORE DUP1 DUP12 PUSH20 0xFFFFFFFFFFFFFFFFFFFFFFFFFFFFFFFFFFFFFFFF AND DUP2 MSTORE PUSH1 0x20 ADD PUSH1 0x2 PUSH1 0x0 DUP14 PUSH20 0xFFFFFFFFFFFFFFFFFFFFFFFFFFFFFFFFFFFFFFFF AND PUSH20 0xFFFFFFFFFFFFFFFFFFFFFFFFFFFFFFFFFFFFFFFF AND DUP2 MSTORE PUSH1 0x20 ADD SWAP1 DUP2 MSTORE PUSH1 0x20 ADD PUSH1 0x0 KECCAK256 SLOAD DUP2 MSTORE POP PUSH1 0x9 PUSH1 0x4 PUSH1 0x0 DUP14 PUSH20 0xFFFFFFFFFFFFFFFFFFFFFFFFFFFFFFFFFFFFFFFF AND PUSH20 0xFFFFFFFFFFFFFFFFFFFFFFFFFFFFFFFFFFFFFFFF AND DUP2 MSTORE PUSH1 0x20 ADD SWAP1 DUP2 MSTORE PUSH1 0x20 ADD PUSH1 0x0 KECCAK256 SLOAD DUP2 SLOAD DUP2 LT PUSH2 0x2370 JUMPI PUSH2 0x236F PUSH2 0x3DCD JUMP JUMPDEST JUMPDEST SWAP1 PUSH1 0x0 MSTORE PUSH1 0x20 PUSH1 0x0 KECCAK256 SWAP1 PUSH1 0x2 MUL ADD PUSH1 0x0 DUP3 ADD MLOAD DUP2 PUSH1 0x0 ADD PUSH1 0x0 PUSH2 0x100 EXP DUP2 SLOAD DUP2 PUSH20 0xFFFFFFFFFFFFFFFFFFFFFFFFFFFFFFFFFFFFFFFF MUL NOT AND SWAP1 DUP4 PUSH20 0xFFFFFFFFFFFFFFFFFFFFFFFFFFFFFFFFFFFFFFFF AND MUL OR SWAP1 SSTORE POP PUSH1 0x20 DUP3 ADD MLOAD DUP2 PUSH1 0x1 ADD SSTORE SWAP1 POP POP JUMPDEST PUSH2 0x28D3 JUMP JUMPDEST PUSH1 0x3 PUSH1 0x0 DUP12 PUSH20 0xFFFFFFFFFFFFFFFFFFFFFFFFFFFFFFFFFFFFFFFF AND PUSH20 0xFFFFFFFFFFFFFFFFFFFFFFFFFFFFFFFFFFFFFFFF AND DUP2 MSTORE PUSH1 0x20 ADD SWAP1 DUP2 MSTORE PUSH1 0x20 ADD PUSH1 0x0 KECCAK256 PUSH1 0x0 SWAP1 SLOAD SWAP1 PUSH2 0x100 EXP SWAP1 DIV PUSH1 0xFF AND PUSH2 0x2693 JUMPI PUSH1 0x0 PUSH1 0x4 PUSH1 0x0 DUP14 PUSH20 0xFFFFFFFFFFFFFFFFFFFFFFFFFFFFFFFFFFFFFFFF AND PUSH20 0xFFFFFFFFFFFFFFFFFFFFFFFFFFFFFFFFFFFFFFFF AND DUP2 MSTORE PUSH1 0x20 ADD SWAP1 DUP2 MSTORE PUSH1 0x20 ADD PUSH1 0x0 KECCAK256 SLOAD SWAP1 POP PUSH1 0x40 MLOAD DUP1 PUSH1 0x40 ADD PUSH1 0x40 MSTORE DUP1 DUP14 PUSH20 0xFFFFFFFFFFFFFFFFFFFFFFFFFFFFFFFFFFFFFFFF AND DUP2 MSTORE PUSH1 0x20 ADD PUSH1 0x2 PUSH1 0x0 DUP16 PUSH20 0xFFFFFFFFFFFFFFFFFFFFFFFFFFFFFFFFFFFFFFFF AND PUSH20 0xFFFFFFFFFFFFFFFFFFFFFFFFFFFFFFFFFFFFFFFF AND DUP2 MSTORE PUSH1 0x20 ADD SWAP1 DUP2 MSTORE PUSH1 0x20 ADD PUSH1 0x0 KECCAK256 SLOAD DUP2 MSTORE POP PUSH1 0x9 DUP3 DUP2 SLOAD DUP2 LT PUSH2 0x24EB JUMPI PUSH2 0x24EA PUSH2 0x3DCD JUMP JUMPDEST JUMPDEST SWAP1 PUSH1 0x0 MSTORE PUSH1 0x20 PUSH1 0x0 KECCAK256 SWAP1 PUSH1 0x2 MUL ADD PUSH1 0x0 DUP3 ADD MLOAD DUP2 PUSH1 0x0 ADD PUSH1 0x0 PUSH2 0x100 EXP DUP2 SLOAD DUP2 PUSH20 0xFFFFFFFFFFFFFFFFFFFFFFFFFFFFFFFFFFFFFFFF MUL NOT AND SWAP1 DUP4 PUSH20 0xFFFFFFFFFFFFFFFFFFFFFFFFFFFFFFFFFFFFFFFF AND MUL OR SWAP1 SSTORE POP PUSH1 0x20 DUP3 ADD MLOAD DUP2 PUSH1 0x1 ADD SSTORE SWAP1 POP POP PUSH1 0x1 PUSH1 0x3 PUSH1 0x0 DUP14 PUSH20 0xFFFFFFFFFFFFFFFFFFFFFFFFFFFFFFFFFFFFFFFF AND PUSH20 0xFFFFFFFFFFFFFFFFFFFFFFFFFFFFFFFFFFFFFFFF AND DUP2 MSTORE PUSH1 0x20 ADD SWAP1 DUP2 MSTORE PUSH1 0x20 ADD PUSH1 0x0 KECCAK256 PUSH1 0x0 PUSH2 0x100 EXP DUP2 SLOAD DUP2 PUSH1 0xFF MUL NOT AND SWAP1 DUP4 ISZERO ISZERO MUL OR SWAP1 SSTORE POP PUSH1 0x9 PUSH1 0x40 MLOAD DUP1 PUSH1 0x40 ADD PUSH1 0x40 MSTORE DUP1 DUP14 PUSH20 0xFFFFFFFFFFFFFFFFFFFFFFFFFFFFFFFFFFFFFFFF AND DUP2 MSTORE PUSH1 0x20 ADD PUSH1 0x2 PUSH1 0x0 DUP16 PUSH20 0xFFFFFFFFFFFFFFFFFFFFFFFFFFFFFFFFFFFFFFFF AND PUSH20 0xFFFFFFFFFFFFFFFFFFFFFFFFFFFFFFFFFFFFFFFF AND DUP2 MSTORE PUSH1 0x20 ADD SWAP1 DUP2 MSTORE PUSH1 0x20 ADD PUSH1 0x0 KECCAK256 SLOAD DUP2 MSTORE POP SWAP1 DUP1 PUSH1 0x1 DUP2 SLOAD ADD DUP1 DUP3 SSTORE DUP1 SWAP2 POP POP PUSH1 0x1 SWAP1 SUB SWAP1 PUSH1 0x0 MSTORE PUSH1 0x20 PUSH1 0x0 KECCAK256 SWAP1 PUSH1 0x2 MUL ADD PUSH1 0x0 SWAP1 SWAP2 SWAP1 SWAP2 SWAP1 SWAP2 POP PUSH1 0x0 DUP3 ADD MLOAD DUP2 PUSH1 0x0 ADD PUSH1 0x0 PUSH2 0x100 EXP DUP2 SLOAD DUP2 PUSH20 0xFFFFFFFFFFFFFFFFFFFFFFFFFFFFFFFFFFFFFFFF MUL NOT AND SWAP1 DUP4 PUSH20 0xFFFFFFFFFFFFFFFFFFFFFFFFFFFFFFFFFFFFFFFF AND MUL OR SWAP1 SSTORE POP PUSH1 0x20 DUP3 ADD MLOAD DUP2 PUSH1 0x1 ADD SSTORE POP POP POP PUSH2 0x28D2 JUMP JUMPDEST PUSH1 0x40 MLOAD DUP1 PUSH1 0x40 ADD PUSH1 0x40 MSTORE DUP1 DUP13 PUSH20 0xFFFFFFFFFFFFFFFFFFFFFFFFFFFFFFFFFFFFFFFF AND DUP2 MSTORE PUSH1 0x20 ADD PUSH1 0x2 PUSH1 0x0 DUP15 PUSH20 0xFFFFFFFFFFFFFFFFFFFFFFFFFFFFFFFFFFFFFFFF AND PUSH20 0xFFFFFFFFFFFFFFFFFFFFFFFFFFFFFFFFFFFFFFFF AND DUP2 MSTORE PUSH1 0x20 ADD SWAP1 DUP2 MSTORE PUSH1 0x20 ADD PUSH1 0x0 KECCAK256 SLOAD DUP2 MSTORE POP PUSH1 0x9 PUSH1 0x4 PUSH1 0x0 DUP15 PUSH20 0xFFFFFFFFFFFFFFFFFFFFFFFFFFFFFFFFFFFFFFFF AND PUSH20 0xFFFFFFFFFFFFFFFFFFFFFFFFFFFFFFFFFFFFFFFF AND DUP2 MSTORE PUSH1 0x20 ADD SWAP1 DUP2 MSTORE PUSH1 0x20 ADD PUSH1 0x0 KECCAK256 SLOAD DUP2 SLOAD DUP2 LT PUSH2 0x2750 JUMPI PUSH2 0x274F PUSH2 0x3DCD JUMP JUMPDEST JUMPDEST SWAP1 PUSH1 0x0 MSTORE PUSH1 0x20 PUSH1 0x0 KECCAK256 SWAP1 PUSH1 0x2 MUL ADD PUSH1 0x0 DUP3 ADD MLOAD DUP2 PUSH1 0x0 ADD PUSH1 0x0 PUSH2 0x100 EXP DUP2 SLOAD DUP2 PUSH20 0xFFFFFFFFFFFFFFFFFFFFFFFFFFFFFFFFFFFFFFFF MUL NOT AND SWAP1 DUP4 PUSH20 0xFFFFFFFFFFFFFFFFFFFFFFFFFFFFFFFFFFFFFFFF AND MUL OR SWAP1 SSTORE POP PUSH1 0x20 DUP3 ADD MLOAD DUP2 PUSH1 0x1 ADD SSTORE SWAP1 POP POP PUSH1 0x40 MLOAD DUP1 PUSH1 0x40 ADD PUSH1 0x40 MSTORE DUP1 DUP12 PUSH20 0xFFFFFFFFFFFFFFFFFFFFFFFFFFFFFFFFFFFFFFFF AND DUP2 MSTORE PUSH1 0x20 ADD PUSH1 0x2 PUSH1 0x0 DUP14 PUSH20 0xFFFFFFFFFFFFFFFFFFFFFFFFFFFFFFFFFFFFFFFF AND PUSH20 0xFFFFFFFFFFFFFFFFFFFFFFFFFFFFFFFFFFFFFFFF AND DUP2 MSTORE PUSH1 0x20 ADD SWAP1 DUP2 MSTORE PUSH1 0x20 ADD PUSH1 0x0 KECCAK256 SLOAD DUP2 MSTORE POP PUSH1 0x9 PUSH1 0x4 PUSH1 0x0 DUP14 PUSH20 0xFFFFFFFFFFFFFFFFFFFFFFFFFFFFFFFFFFFFFFFF AND PUSH20 0xFFFFFFFFFFFFFFFFFFFFFFFFFFFFFFFFFFFFFFFF AND DUP2 MSTORE PUSH1 0x20 ADD SWAP1 DUP2 MSTORE PUSH1 0x20 ADD PUSH1 0x0 KECCAK256 SLOAD DUP2 SLOAD DUP2 LT PUSH2 0x286F JUMPI PUSH2 0x286E PUSH2 0x3DCD JUMP JUMPDEST JUMPDEST SWAP1 PUSH1 0x0 MSTORE PUSH1 0x20 PUSH1 0x0 KECCAK256 SWAP1 PUSH1 0x2 MUL ADD PUSH1 0x0 DUP3 ADD MLOAD DUP2 PUSH1 0x0 ADD PUSH1 0x0 PUSH2 0x100 EXP DUP2 SLOAD DUP2 PUSH20 0xFFFFFFFFFFFFFFFFFFFFFFFFFFFFFFFFFFFFFFFF MUL NOT AND SWAP1 DUP4 PUSH20 0xFFFFFFFFFFFFFFFFFFFFFFFFFFFFFFFFFFFFFFFF AND MUL OR SWAP1 SSTORE POP PUSH1 0x20 DUP3 ADD MLOAD DUP2 PUSH1 0x1 ADD SSTORE SWAP1 POP POP JUMPDEST JUMPDEST POP PUSH2 0x28E1 DUP11 DUP11 DUP11 DUP11 DUP11 PUSH2 0x302E JUMP JUMPDEST PUSH32 0xDDF252AD1BE2C89B69C2B068FC378DAA952BA7F163C4A11628F55A4DF523B3EF DUP11 DUP11 DUP11 PUSH1 0x40 MLOAD PUSH2 0x2914 SWAP4 SWAP3 SWAP2 SWAP1 PUSH2 0x3D62 JUMP JUMPDEST PUSH1 0x40 MLOAD DUP1 SWAP2 SUB SWAP1 LOG1 POP POP POP POP POP POP POP POP POP POP JUMP JUMPDEST PUSH1 0x0 PUSH1 0x1 DUP2 GT ISZERO PUSH2 0x293C JUMPI PUSH2 0x293B PUSH2 0x37A5 JUMP JUMPDEST JUMPDEST PUSH1 0x8 PUSH1 0x14 SWAP1 SLOAD SWAP1 PUSH2 0x100 EXP SWAP1 DIV PUSH1 0xFF AND PUSH1 0x1 DUP2 GT ISZERO PUSH2 0x295E JUMPI PUSH2 0x295D PUSH2 0x37A5 JUMP JUMPDEST JUMPDEST EQ PUSH2 0x2968 JUMPI PUSH1 0x0 DUP1 REVERT JUMPDEST PUSH1 0x1 PUSH1 0x6 PUSH1 0x40 MLOAD PUSH2 0x2979 SWAP2 SWAP1 PUSH2 0x39E8 JUMP JUMPDEST SWAP1 DUP2 MSTORE PUSH1 0x20 ADD PUSH1 0x40 MLOAD DUP1 SWAP2 SUB SWAP1 KECCAK256 PUSH1 0xA ADD SLOAD TIMESTAMP GT PUSH2 0x2996 JUMPI PUSH1 0x0 DUP1 REVERT JUMPDEST PUSH1 0x1 PUSH1 0x8 PUSH1 0x14 PUSH2 0x100 EXP DUP2 SLOAD DUP2 PUSH1 0xFF MUL NOT AND SWAP1 DUP4 PUSH1 0x1 DUP2 GT ISZERO PUSH2 0x29BC JUMPI PUSH2 0x29BB PUSH2 0x37A5 JUMP JUMPDEST JUMPDEST MUL OR SWAP1 SSTORE POP PUSH1 0x0 PUSH1 0x8 PUSH1 0x0 SWAP1 SLOAD SWAP1 PUSH2 0x100 EXP SWAP1 DIV PUSH20 0xFFFFFFFFFFFFFFFFFFFFFFFFFFFFFFFFFFFFFFFF AND PUSH20 0xFFFFFFFFFFFFFFFFFFFFFFFFFFFFFFFFFFFFFFFF AND PUSH4 0xC8D7F62E PUSH1 0x6 PUSH1 0x40 MLOAD DUP3 PUSH4 0xFFFFFFFF AND PUSH1 0xE0 SHL DUP2 MSTORE PUSH1 0x4 ADD PUSH2 0x2A1F SWAP2 SWAP1 PUSH2 0x3E80 JUMP JUMPDEST PUSH1 0x0 PUSH1 0x40 MLOAD DUP1 DUP4 SUB DUP2 DUP7 GAS STATICCALL ISZERO DUP1 ISZERO PUSH2 0x2A3C JUMPI RETURNDATASIZE PUSH1 0x0 DUP1 RETURNDATACOPY RETURNDATASIZE PUSH1 0x0 REVERT JUMPDEST POP POP POP POP PUSH1 0x40 MLOAD RETURNDATASIZE PUSH1 0x0 DUP3 RETURNDATACOPY RETURNDATASIZE PUSH1 0x1F NOT PUSH1 0x1F DUP3 ADD AND DUP3 ADD DUP1 PUSH1 0x40 MSTORE POP DUP2 ADD SWAP1 PUSH2 0x2A65 SWAP2 SWAP1 PUSH2 0x3FCF JUMP JUMPDEST SWAP1 POP PUSH1 0x0 JUMPDEST DUP2 MLOAD DUP2 LT ISZERO PUSH2 0x2B7A JUMPI PUSH1 0x0 PUSH1 0x2 PUSH1 0x0 DUP5 DUP5 DUP2 MLOAD DUP2 LT PUSH2 0x2A8C JUMPI PUSH2 0x2A8B PUSH2 0x3DCD JUMP JUMPDEST JUMPDEST PUSH1 0x20 MUL PUSH1 0x20 ADD ADD MLOAD PUSH1 0x0 ADD MLOAD PUSH20 0xFFFFFFFFFFFFFFFFFFFFFFFFFFFFFFFFFFFFFFFF AND PUSH20 0xFFFFFFFFFFFFFFFFFFFFFFFFFFFFFFFFFFFFFFFF AND DUP2 MSTORE PUSH1 0x20 ADD SWAP1 DUP2 MSTORE PUSH1 0x20 ADD PUSH1 0x0 KECCAK256 SLOAD EQ PUSH2 0x2B67 JUMPI PUSH1 0x0 PUSH1 0x2 PUSH1 0x0 DUP5 DUP5 DUP2 MLOAD DUP2 LT PUSH2 0x2AF1 JUMPI PUSH2 0x2AF0 PUSH2 0x3DCD JUMP JUMPDEST JUMPDEST PUSH1 0x20 MUL PUSH1 0x20 ADD ADD MLOAD PUSH1 0x0 ADD MLOAD PUSH20 0xFFFFFFFFFFFFFFFFFFFFFFFFFFFFFFFFFFFFFFFF AND PUSH20 0xFFFFFFFFFFFFFFFFFFFFFFFFFFFFFFFFFFFFFFFF AND DUP2 MSTORE PUSH1 0x20 ADD SWAP1 DUP2 MSTORE PUSH1 0x20 ADD PUSH1 0x0 KECCAK256 DUP2 SWAP1 SSTORE POP PUSH1 0x0 PUSH1 0x9 DUP3 DUP2 SLOAD DUP2 LT PUSH2 0x2B51 JUMPI PUSH2 0x2B50 PUSH2 0x3DCD JUMP JUMPDEST JUMPDEST SWAP1 PUSH1 0x0 MSTORE PUSH1 0x20 PUSH1 0x0 KECCAK256 SWAP1 PUSH1 0x2 MUL ADD PUSH1 0x1 ADD DUP2 SWAP1 SSTORE POP JUMPDEST DUP1 DUP1 PUSH2 0x2B72 SWAP1 PUSH2 0x4018 JUMP JUMPDEST SWAP2 POP POP PUSH2 0x2A6A JUMP JUMPDEST POP POP JUMP JUMPDEST PUSH1 0x0 PUSH1 0x8 PUSH1 0x0 SWAP1 SLOAD SWAP1 PUSH2 0x100 EXP SWAP1 DIV PUSH20 0xFFFFFFFFFFFFFFFFFFFFFFFFFFFFFFFFFFFFFFFF AND PUSH20 0xFFFFFFFFFFFFFFFFFFFFFFFFFFFFFFFFFFFFFFFF AND PUSH4 0x605936EA PUSH1 0x6 PUSH1 0x40 MLOAD DUP3 PUSH4 0xFFFFFFFF AND PUSH1 0xE0 SHL DUP2 MSTORE PUSH1 0x4 ADD PUSH2 0x2BDC SWAP2 SWAP1 PUSH2 0x3E80 JUMP JUMPDEST PUSH1 0x20 PUSH1 0x40 MLOAD DUP1 DUP4 SUB DUP2 DUP7 GAS STATICCALL ISZERO DUP1 ISZERO PUSH2 0x2BF9 JUMPI RETURNDATASIZE PUSH1 0x0 DUP1 RETURNDATACOPY RETURNDATASIZE PUSH1 0x0 REVERT JUMPDEST POP POP POP POP PUSH1 0x40 MLOAD RETURNDATASIZE PUSH1 0x1F NOT PUSH1 0x1F DUP3 ADD AND DUP3 ADD DUP1 PUSH1 0x40 MSTORE POP DUP2 ADD SWAP1 PUSH2 0x2C1D SWAP2 SWAP1 PUSH2 0x4060 JUMP JUMPDEST SWAP1 POP DUP1 DUP3 PUSH1 0xA0 ADD CALLDATALOAD EQ PUSH2 0x2C2F JUMPI PUSH1 0x0 DUP1 REVERT JUMPDEST PUSH1 0x0 PUSH1 0x8 PUSH1 0x0 SWAP1 SLOAD SWAP1 PUSH2 0x100 EXP SWAP1 DIV PUSH20 0xFFFFFFFFFFFFFFFFFFFFFFFFFFFFFFFFFFFFFFFF AND PUSH20 0xFFFFFFFFFFFFFFFFFFFFFFFFFFFFFFFFFFFFFFFF AND PUSH4 0xC8D7F62E PUSH1 0x6 PUSH1 0x40 MLOAD DUP3 PUSH4 0xFFFFFFFF AND PUSH1 0xE0 SHL DUP2 MSTORE PUSH1 0x4 ADD PUSH2 0x2C8D SWAP2 SWAP1 PUSH2 0x3E80 JUMP JUMPDEST PUSH1 0x0 PUSH1 0x40 MLOAD DUP1 DUP4 SUB DUP2 DUP7 GAS STATICCALL ISZERO DUP1 ISZERO PUSH2 0x2CAA JUMPI RETURNDATASIZE PUSH1 0x0 DUP1 RETURNDATACOPY RETURNDATASIZE PUSH1 0x0 REVERT JUMPDEST POP POP POP POP PUSH1 0x40 MLOAD RETURNDATASIZE PUSH1 0x0 DUP3 RETURNDATACOPY RETURNDATASIZE PUSH1 0x1F NOT PUSH1 0x1F DUP3 ADD AND DUP3 ADD DUP1 PUSH1 0x40 MSTORE POP DUP2 ADD SWAP1 PUSH2 0x2CD3 SWAP2 SWAP1 PUSH2 0x3FCF JUMP JUMPDEST SWAP1 POP PUSH1 0x0 PUSH1 0x1 PUSH1 0x6 PUSH1 0x40 MLOAD PUSH2 0x2CE8 SWAP2 SWAP1 PUSH2 0x39E8 JUMP JUMPDEST SWAP1 DUP2 MSTORE PUSH1 0x20 ADD PUSH1 0x40 MLOAD DUP1 SWAP2 SUB SWAP1 KECCAK256 PUSH1 0x4 ADD SLOAD SWAP1 POP PUSH1 0x0 DUP1 JUMPDEST DUP4 MLOAD DUP2 LT ISZERO PUSH2 0x2F64 JUMPI PUSH1 0x0 DUP5 DUP3 DUP2 MLOAD DUP2 LT PUSH2 0x2D1E JUMPI PUSH2 0x2D1D PUSH2 0x3DCD JUMP JUMPDEST JUMPDEST PUSH1 0x20 MUL PUSH1 0x20 ADD ADD MLOAD PUSH1 0x0 ADD MLOAD SWAP1 POP PUSH1 0x0 DUP6 DUP4 DUP2 MLOAD DUP2 LT PUSH2 0x2D41 JUMPI PUSH2 0x2D40 PUSH2 0x3DCD JUMP JUMPDEST JUMPDEST PUSH1 0x20 MUL PUSH1 0x20 ADD ADD MLOAD PUSH1 0x20 ADD MLOAD SWAP1 POP PUSH1 0x0 PUSH20 0xFFFFFFFFFFFFFFFFFFFFFFFFFFFFFFFFFFFFFFFF AND DUP3 PUSH20 0xFFFFFFFFFFFFFFFFFFFFFFFFFFFFFFFFFFFFFFFF AND SUB PUSH2 0x2D88 JUMPI PUSH1 0x0 DUP1 REVERT JUMPDEST PUSH1 0x0 DUP2 EQ ISZERO DUP1 ISZERO PUSH2 0x2DAF JUMPI POP PUSH1 0x0 DUP6 DUP7 DUP4 PUSH2 0x2DA3 SWAP2 SWAP1 PUSH2 0x3CBB JUMP JUMPDEST PUSH2 0x2DAD SWAP2 SWAP1 PUSH2 0x3CBB JUMP JUMPDEST EQ JUMPDEST PUSH2 0x2DB8 JUMPI PUSH1 0x0 DUP1 REVERT JUMPDEST DUP1 DUP5 PUSH2 0x2DC4 SWAP2 SWAP1 PUSH2 0x3D2E JUMP JUMPDEST SWAP4 POP DUP1 PUSH1 0x2 PUSH1 0x0 DUP5 PUSH20 0xFFFFFFFFFFFFFFFFFFFFFFFFFFFFFFFFFFFFFFFF AND PUSH20 0xFFFFFFFFFFFFFFFFFFFFFFFFFFFFFFFFFFFFFFFF AND DUP2 MSTORE PUSH1 0x20 ADD SWAP1 DUP2 MSTORE PUSH1 0x20 ADD PUSH1 0x0 KECCAK256 DUP2 SWAP1 SSTORE POP PUSH1 0x1 PUSH1 0x3 PUSH1 0x0 DUP5 PUSH20 0xFFFFFFFFFFFFFFFFFFFFFFFFFFFFFFFFFFFFFFFF AND PUSH20 0xFFFFFFFFFFFFFFFFFFFFFFFFFFFFFFFFFFFFFFFF AND DUP2 MSTORE PUSH1 0x20 ADD SWAP1 DUP2 MSTORE PUSH1 0x20 ADD PUSH1 0x0 KECCAK256 PUSH1 0x0 PUSH2 0x100 EXP DUP2 SLOAD DUP2 PUSH1 0xFF MUL NOT AND SWAP1 DUP4 ISZERO ISZERO MUL OR SWAP1 SSTORE POP DUP3 PUSH1 0x4 PUSH1 0x0 DUP5 PUSH20 0xFFFFFFFFFFFFFFFFFFFFFFFFFFFFFFFFFFFFFFFF AND PUSH20 0xFFFFFFFFFFFFFFFFFFFFFFFFFFFFFFFFFFFFFFFF AND DUP2 MSTORE PUSH1 0x20 ADD SWAP1 DUP2 MSTORE PUSH1 0x20 ADD PUSH1 0x0 KECCAK256 DUP2 SWAP1 SSTORE POP PUSH1 0x9 PUSH1 0x40 MLOAD DUP1 PUSH1 0x40 ADD PUSH1 0x40 MSTORE DUP1 DUP5 PUSH20 0xFFFFFFFFFFFFFFFFFFFFFFFFFFFFFFFFFFFFFFFF AND DUP2 MSTORE PUSH1 0x20 ADD DUP4 DUP2 MSTORE POP SWAP1 DUP1 PUSH1 0x1 DUP2 SLOAD ADD DUP1 DUP3 SSTORE DUP1 SWAP2 POP POP PUSH1 0x1 SWAP1 SUB SWAP1 PUSH1 0x0 MSTORE PUSH1 0x20 PUSH1 0x0 KECCAK256 SWAP1 PUSH1 0x2 MUL ADD PUSH1 0x0 SWAP1 SWAP2 SWAP1 SWAP2 SWAP1 SWAP2 POP PUSH1 0x0 DUP3 ADD MLOAD DUP2 PUSH1 0x0 ADD PUSH1 0x0 PUSH2 0x100 EXP DUP2 SLOAD DUP2 PUSH20 0xFFFFFFFFFFFFFFFFFFFFFFFFFFFFFFFFFFFFFFFF MUL NOT AND SWAP1 DUP4 PUSH20 0xFFFFFFFFFFFFFFFFFFFFFFFFFFFFFFFFFFFFFFFF AND MUL OR SWAP1 SSTORE POP PUSH1 0x20 DUP3 ADD MLOAD DUP2 PUSH1 0x1 ADD SSTORE POP POP POP POP DUP1 DUP1 PUSH2 0x2F5C SWAP1 PUSH2 0x4018 JUMP JUMPDEST SWAP2 POP POP PUSH2 0x2D00 JUMP JUMPDEST POP DUP5 PUSH1 0x1 PUSH1 0x6 PUSH1 0x40 MLOAD PUSH2 0x2F77 SWAP2 SWAP1 PUSH2 0x39E8 JUMP JUMPDEST SWAP1 DUP2 MSTORE PUSH1 0x20 ADD PUSH1 0x40 MLOAD DUP1 SWAP2 SUB SWAP1 KECCAK256 DUP2 DUP2 PUSH2 0x2F91 SWAP2 SWAP1 PUSH2 0x46D9 JUMP JUMPDEST SWAP1 POP POP TIMESTAMP PUSH1 0x1 PUSH1 0x6 PUSH1 0x40 MLOAD PUSH2 0x2FA6 SWAP2 SWAP1 PUSH2 0x39E8 JUMP JUMPDEST SWAP1 DUP2 MSTORE PUSH1 0x20 ADD PUSH1 0x40 MLOAD DUP1 SWAP2 SUB SWAP1 KECCAK256 PUSH1 0x9 ADD DUP2 SWAP1 SSTORE POP PUSH1 0x0 PUSH1 0x8 PUSH1 0x14 PUSH2 0x100 EXP DUP2 SLOAD DUP2 PUSH1 0xFF MUL NOT AND SWAP1 DUP4 PUSH1 0x1 DUP2 GT ISZERO PUSH2 0x2FE1 JUMPI PUSH2 0x2FE0 PUSH2 0x37A5 JUMP JUMPDEST JUMPDEST MUL OR SWAP1 SSTORE POP TIMESTAMP PUSH1 0x1 PUSH1 0x6 PUSH1 0x40 MLOAD PUSH2 0x2FF8 SWAP2 SWAP1 PUSH2 0x39E8 JUMP JUMPDEST SWAP1 DUP2 MSTORE PUSH1 0x20 ADD PUSH1 0x40 MLOAD DUP1 SWAP2 SUB SWAP1 KECCAK256 PUSH1 0xA ADD SLOAD GT PUSH2 0x3014 JUMPI PUSH1 0x0 DUP1 REVERT JUMPDEST DUP4 DUP2 EQ PUSH2 0x3020 JUMPI PUSH1 0x0 DUP1 REVERT JUMPDEST POP POP POP POP POP JUMP JUMPDEST POP POP POP POP POP JUMP JUMPDEST POP POP POP POP POP JUMP JUMPDEST PUSH1 0x0 PUSH1 0xFF DUP3 AND SWAP1 POP SWAP2 SWAP1 POP JUMP JUMPDEST PUSH2 0x304B DUP2 PUSH2 0x3035 JUMP JUMPDEST DUP3 MSTORE POP POP JUMP JUMPDEST PUSH1 0x0 PUSH1 0x20 DUP3 ADD SWAP1 POP PUSH2 0x3066 PUSH1 0x0 DUP4 ADD DUP5 PUSH2 0x3042 JUMP JUMPDEST SWAP3 SWAP2 POP POP JUMP JUMPDEST PUSH1 0x0 DUP2 MLOAD SWAP1 POP SWAP2 SWAP1 POP JUMP JUMPDEST PUSH1 0x0 DUP3 DUP3 MSTORE PUSH1 0x20 DUP3 ADD SWAP1 POP SWAP3 SWAP2 POP POP JUMP JUMPDEST PUSH1 0x0 JUMPDEST DUP4 DUP2 LT ISZERO PUSH2 0x30A6 JUMPI DUP1 DUP3 ADD MLOAD DUP2 DUP5 ADD MSTORE PUSH1 0x20 DUP2 ADD SWAP1 POP PUSH2 0x308B JUMP JUMPDEST PUSH1 0x0 DUP5 DUP5 ADD MSTORE POP POP POP POP JUMP JUMPDEST PUSH1 0x0 PUSH1 0x1F NOT PUSH1 0x1F DUP4 ADD AND SWAP1 POP SWAP2 SWAP1 POP JUMP JUMPDEST PUSH1 0x0 PUSH2 0x30CE DUP3 PUSH2 0x306C JUMP JUMPDEST PUSH2 0x30D8 DUP2 DUP6 PUSH2 0x3077 JUMP JUMPDEST SWAP4 POP PUSH2 0x30E8 DUP2 DUP6 PUSH1 0x20 DUP7 ADD PUSH2 0x3088 JUMP JUMPDEST PUSH2 0x30F1 DUP2 PUSH2 0x30B2 JUMP JUMPDEST DUP5 ADD SWAP2 POP POP SWAP3 SWAP2 POP POP JUMP JUMPDEST PUSH1 0x0 PUSH1 0x20 DUP3 ADD SWAP1 POP DUP2 DUP2 SUB PUSH1 0x0 DUP4 ADD MSTORE PUSH2 0x3116 DUP2 DUP5 PUSH2 0x30C3 JUMP JUMPDEST SWAP1 POP SWAP3 SWAP2 POP POP JUMP JUMPDEST PUSH1 0x0 PUSH1 0x40 MLOAD SWAP1 POP SWAP1 JUMP JUMPDEST PUSH1 0x0 DUP1 REVERT JUMPDEST PUSH1 0x0 DUP1 REVERT JUMPDEST PUSH1 0x0 PUSH20 0xFFFFFFFFFFFFFFFFFFFFFFFFFFFFFFFFFFFFFFFF DUP3 AND SWAP1 POP SWAP2 SWAP1 POP JUMP JUMPDEST PUSH1 0x0 PUSH2 0x315D DUP3 PUSH2 0x3132 JUMP JUMPDEST SWAP1 POP SWAP2 SWAP1 POP JUMP JUMPDEST PUSH2 0x316D DUP2 PUSH2 0x3152 JUMP JUMPDEST DUP2 EQ PUSH2 0x3178 JUMPI PUSH1 0x0 DUP1 REVERT JUMPDEST POP JUMP JUMPDEST PUSH1 0x0 DUP2 CALLDATALOAD SWAP1 POP PUSH2 0x318A DUP2 PUSH2 0x3164 JUMP JUMPDEST SWAP3 SWAP2 POP POP JUMP JUMPDEST PUSH1 0x0 DUP2 SWAP1 POP SWAP2 SWAP1 POP JUMP JUMPDEST PUSH2 0x31A3 DUP2 PUSH2 0x3190 JUMP JUMPDEST DUP2 EQ PUSH2 0x31AE JUMPI PUSH1 0x0 DUP1 REVERT JUMPDEST POP JUMP JUMPDEST PUSH1 0x0 DUP2 CALLDATALOAD SWAP1 POP PUSH2 0x31C0 DUP2 PUSH2 0x319A JUMP JUMPDEST SWAP3 SWAP2 POP POP JUMP JUMPDEST PUSH1 0x0 DUP1 PUSH1 0x40 DUP4 DUP6 SUB SLT ISZERO PUSH2 0x31DD JUMPI PUSH2 0x31DC PUSH2 0x3128 JUMP JUMPDEST JUMPDEST PUSH1 0x0 PUSH2 0x31EB DUP6 DUP3 DUP7 ADD PUSH2 0x317B JUMP JUMPDEST SWAP3 POP POP PUSH1 0x20 PUSH2 0x31FC DUP6 DUP3 DUP7 ADD PUSH2 0x31B1 JUMP JUMPDEST SWAP2 POP POP SWAP3 POP SWAP3 SWAP1 POP JUMP JUMPDEST PUSH1 0x0 DUP2 ISZERO ISZERO SWAP1 POP SWAP2 SWAP1 POP JUMP JUMPDEST PUSH2 0x321B DUP2 PUSH2 0x3206 JUMP JUMPDEST DUP3 MSTORE POP POP JUMP JUMPDEST PUSH1 0x0 PUSH1 0x20 DUP3 ADD SWAP1 POP PUSH2 0x3236 PUSH1 0x0 DUP4 ADD DUP5 PUSH2 0x3212 JUMP JUMPDEST SWAP3 SWAP2 POP POP JUMP JUMPDEST PUSH2 0x3245 DUP2 PUSH2 0x3190 JUMP JUMPDEST DUP3 MSTORE POP POP JUMP JUMPDEST PUSH1 0x0 PUSH1 0x20 DUP3 ADD SWAP1 POP PUSH2 0x3260 PUSH1 0x0 DUP4 ADD DUP5 PUSH2 0x323C JUMP JUMPDEST SWAP3 SWAP2 POP POP JUMP JUMPDEST PUSH2 0x326F DUP2 PUSH2 0x3152 JUMP JUMPDEST DUP3 MSTORE POP POP JUMP JUMPDEST PUSH1 0x0 PUSH1 0x20 DUP3 ADD SWAP1 POP PUSH2 0x328A PUSH1 0x0 DUP4 ADD DUP5 PUSH2 0x3266 JUMP JUMPDEST SWAP3 SWAP2 POP POP JUMP JUMPDEST PUSH1 0x0 DUP1 REVERT JUMPDEST PUSH1 0x0 DUP1 REVERT JUMPDEST PUSH32 0x4E487B7100000000000000000000000000000000000000000000000000000000 PUSH1 0x0 MSTORE PUSH1 0x41 PUSH1 0x4 MSTORE PUSH1 0x24 PUSH1 0x0 REVERT JUMPDEST PUSH2 0x32D2 DUP3 PUSH2 0x30B2 JUMP JUMPDEST DUP2 ADD DUP2 DUP2 LT PUSH8 0xFFFFFFFFFFFFFFFF DUP3 GT OR ISZERO PUSH2 0x32F1 JUMPI PUSH2 0x32F0 PUSH2 0x329A JUMP JUMPDEST JUMPDEST DUP1 PUSH1 0x40 MSTORE POP POP POP JUMP JUMPDEST PUSH1 0x0 PUSH2 0x3304 PUSH2 0x311E JUMP JUMPDEST SWAP1 POP PUSH2 0x3310 DUP3 DUP3 PUSH2 0x32C9 JUMP JUMPDEST SWAP2 SWAP1 POP JUMP JUMPDEST PUSH1 0x0 PUSH8 0xFFFFFFFFFFFFFFFF DUP3 GT ISZERO PUSH2 0x3330 JUMPI PUSH2 0x332F PUSH2 0x329A JUMP JUMPDEST JUMPDEST PUSH2 0x3339 DUP3 PUSH2 0x30B2 JUMP JUMPDEST SWAP1 POP PUSH1 0x20 DUP2 ADD SWAP1 POP SWAP2 SWAP1 POP JUMP JUMPDEST DUP3 DUP2 DUP4 CALLDATACOPY PUSH1 0x0 DUP4 DUP4 ADD MSTORE POP POP POP JUMP JUMPDEST PUSH1 0x0 PUSH2 0x3368 PUSH2 0x3363 DUP5 PUSH2 0x3315 JUMP JUMPDEST PUSH2 0x32FA JUMP JUMPDEST SWAP1 POP DUP3 DUP2 MSTORE PUSH1 0x20 DUP2 ADD DUP5 DUP5 DUP5 ADD GT ISZERO PUSH2 0x3384 JUMPI PUSH2 0x3383 PUSH2 0x3295 JUMP JUMPDEST JUMPDEST PUSH2 0x338F DUP5 DUP3 DUP6 PUSH2 0x3346 JUMP JUMPDEST POP SWAP4 SWAP3 POP POP POP JUMP JUMPDEST PUSH1 0x0 DUP3 PUSH1 0x1F DUP4 ADD SLT PUSH2 0x33AC JUMPI PUSH2 0x33AB PUSH2 0x3290 JUMP JUMPDEST JUMPDEST DUP2 CALLDATALOAD PUSH2 0x33BC DUP5 DUP3 PUSH1 0x20 DUP7 ADD PUSH2 0x3355 JUMP JUMPDEST SWAP2 POP POP SWAP3 SWAP2 POP POP JUMP JUMPDEST PUSH1 0x0 PUSH1 0x20 DUP3 DUP5 SUB SLT ISZERO PUSH2 0x33DB JUMPI PUSH2 0x33DA PUSH2 0x3128 JUMP JUMPDEST JUMPDEST PUSH1 0x0 DUP3 ADD CALLDATALOAD PUSH8 0xFFFFFFFFFFFFFFFF DUP2 GT ISZERO PUSH2 0x33F9 JUMPI PUSH2 0x33F8 PUSH2 0x312D JUMP JUMPDEST JUMPDEST PUSH2 0x3405 DUP5 DUP3 DUP6 ADD PUSH2 0x3397 JUMP JUMPDEST SWAP2 POP POP SWAP3 SWAP2 POP POP JUMP JUMPDEST PUSH1 0x0 PUSH1 0x40 DUP3 ADD SWAP1 POP PUSH2 0x3423 PUSH1 0x0 DUP4 ADD DUP6 PUSH2 0x3266 JUMP JUMPDEST DUP2 DUP2 SUB PUSH1 0x20 DUP4 ADD MSTORE PUSH2 0x3435 DUP2 DUP5 PUSH2 0x30C3 JUMP JUMPDEST SWAP1 POP SWAP4 SWAP3 POP POP POP JUMP JUMPDEST PUSH1 0x0 PUSH2 0x160 DUP3 ADD SWAP1 POP DUP2 DUP2 SUB PUSH1 0x0 DUP4 ADD MSTORE PUSH2 0x3459 DUP2 DUP15 PUSH2 0x30C3 JUMP JUMPDEST SWAP1 POP DUP2 DUP2 SUB PUSH1 0x20 DUP4 ADD MSTORE PUSH2 0x346D DUP2 DUP14 PUSH2 0x30C3 JUMP JUMPDEST SWAP1 POP DUP2 DUP2 SUB PUSH1 0x40 DUP4 ADD MSTORE PUSH2 0x3481 DUP2 DUP13 PUSH2 0x30C3 JUMP JUMPDEST SWAP1 POP PUSH2 0x3490 PUSH1 0x60 DUP4 ADD DUP12 PUSH2 0x3266 JUMP JUMPDEST PUSH2 0x349D PUSH1 0x80 DUP4 ADD DUP11 PUSH2 0x323C JUMP JUMPDEST PUSH2 0x34AA PUSH1 0xA0 DUP4 ADD DUP10 PUSH2 0x323C JUMP JUMPDEST PUSH2 0x34B7 PUSH1 0xC0 DUP4 ADD DUP9 PUSH2 0x323C JUMP JUMPDEST PUSH2 0x34C4 PUSH1 0xE0 DUP4 ADD DUP8 PUSH2 0x3042 JUMP JUMPDEST PUSH2 0x34D2 PUSH2 0x100 DUP4 ADD DUP7 PUSH2 0x323C JUMP JUMPDEST PUSH2 0x34E0 PUSH2 0x120 DUP4 ADD DUP6 PUSH2 0x323C JUMP JUMPDEST PUSH2 0x34EE PUSH2 0x140 DUP4 ADD DUP5 PUSH2 0x323C JUMP JUMPDEST SWAP13 SWAP12 POP POP POP POP POP POP POP POP POP POP POP POP JUMP JUMPDEST PUSH1 0x0 PUSH1 0x20 DUP3 DUP5 SUB SLT ISZERO PUSH2 0x3514 JUMPI PUSH2 0x3513 PUSH2 0x3128 JUMP JUMPDEST JUMPDEST PUSH1 0x0 PUSH2 0x3522 DUP5 DUP3 DUP6 ADD PUSH2 0x317B JUMP JUMPDEST SWAP2 POP POP SWAP3 SWAP2 POP POP JUMP JUMPDEST PUSH1 0x0 DUP2 MLOAD SWAP1 POP SWAP2 SWAP1 POP JUMP JUMPDEST PUSH1 0x0 DUP3 DUP3 MSTORE PUSH1 0x20 DUP3 ADD SWAP1 POP SWAP3 SWAP2 POP POP JUMP JUMPDEST PUSH1 0x0 DUP2 SWAP1 POP PUSH1 0x20 DUP3 ADD SWAP1 POP SWAP2 SWAP1 POP JUMP JUMPDEST PUSH2 0x3560 DUP2 PUSH2 0x3152 JUMP JUMPDEST DUP3 MSTORE POP POP JUMP JUMPDEST PUSH2 0x356F DUP2 PUSH2 0x3190 JUMP JUMPDEST DUP3 MSTORE POP POP JUMP JUMPDEST PUSH1 0x40 DUP3 ADD PUSH1 0x0 DUP3 ADD MLOAD PUSH2 0x358B PUSH1 0x0 DUP6 ADD DUP3 PUSH2 0x3557 JUMP JUMPDEST POP PUSH1 0x20 DUP3 ADD MLOAD PUSH2 0x359E PUSH1 0x20 DUP6 ADD DUP3 PUSH2 0x3566 JUMP JUMPDEST POP POP POP POP JUMP JUMPDEST PUSH1 0x0 PUSH2 0x35B0 DUP4 DUP4 PUSH2 0x3575 JUMP JUMPDEST PUSH1 0x40 DUP4 ADD SWAP1 POP SWAP3 SWAP2 POP POP JUMP JUMPDEST PUSH1 0x0 PUSH1 0x20 DUP3 ADD SWAP1 POP SWAP2 SWAP1 POP JUMP JUMPDEST PUSH1 0x0 PUSH2 0x35D4 DUP3 PUSH2 0x352B JUMP JUMPDEST PUSH2 0x35DE DUP2 DUP6 PUSH2 0x3536 JUMP JUMPDEST SWAP4 POP PUSH2 0x35E9 DUP4 PUSH2 0x3547 JUMP JUMPDEST DUP1 PUSH1 0x0 JUMPDEST DUP4 DUP2 LT ISZERO PUSH2 0x361A JUMPI DUP2 MLOAD PUSH2 0x3601 DUP9 DUP3 PUSH2 0x35A4 JUMP JUMPDEST SWAP8 POP PUSH2 0x360C DUP4 PUSH2 0x35BC JUMP JUMPDEST SWAP3 POP POP PUSH1 0x1 DUP2 ADD SWAP1 POP PUSH2 0x35ED JUMP JUMPDEST POP DUP6 SWAP4 POP POP POP POP SWAP3 SWAP2 POP POP JUMP JUMPDEST PUSH1 0x0 PUSH1 0x20 DUP3 ADD SWAP1 POP DUP2 DUP2 SUB PUSH1 0x0 DUP4 ADD MSTORE PUSH2 0x3641 DUP2 DUP5 PUSH2 0x35C9 JUMP JUMPDEST SWAP1 POP SWAP3 SWAP2 POP POP JUMP JUMPDEST PUSH1 0x0 DUP1 REVERT JUMPDEST PUSH1 0x0 DUP1 REVERT JUMPDEST PUSH1 0x0 DUP1 DUP4 PUSH1 0x1F DUP5 ADD SLT PUSH2 0x3669 JUMPI PUSH2 0x3668 PUSH2 0x3290 JUMP JUMPDEST JUMPDEST DUP3 CALLDATALOAD SWAP1 POP PUSH8 0xFFFFFFFFFFFFFFFF DUP2 GT ISZERO PUSH2 0x3686 JUMPI PUSH2 0x3685 PUSH2 0x3649 JUMP JUMPDEST JUMPDEST PUSH1 0x20 DUP4 ADD SWAP2 POP DUP4 PUSH1 0x1 DUP3 MUL DUP4 ADD GT ISZERO PUSH2 0x36A2 JUMPI PUSH2 0x36A1 PUSH2 0x364E JUMP JUMPDEST JUMPDEST SWAP3 POP SWAP3 SWAP1 POP JUMP JUMPDEST PUSH1 0x0 DUP1 PUSH1 0x0 DUP1 PUSH1 0x0 PUSH1 0x80 DUP7 DUP9 SUB SLT ISZERO PUSH2 0x36C5 JUMPI PUSH2 0x36C4 PUSH2 0x3128 JUMP JUMPDEST JUMPDEST PUSH1 0x0 PUSH2 0x36D3 DUP9 DUP3 DUP10 ADD PUSH2 0x317B JUMP JUMPDEST SWAP6 POP POP PUSH1 0x20 PUSH2 0x36E4 DUP9 DUP3 DUP10 ADD PUSH2 0x317B JUMP JUMPDEST SWAP5 POP POP PUSH1 0x40 PUSH2 0x36F5 DUP9 DUP3 DUP10 ADD PUSH2 0x31B1 JUMP JUMPDEST SWAP4 POP POP PUSH1 0x60 DUP7 ADD CALLDATALOAD PUSH8 0xFFFFFFFFFFFFFFFF DUP2 GT ISZERO PUSH2 0x3716 JUMPI PUSH2 0x3715 PUSH2 0x312D JUMP JUMPDEST JUMPDEST PUSH2 0x3722 DUP9 DUP3 DUP10 ADD PUSH2 0x3653 JUMP JUMPDEST SWAP3 POP SWAP3 POP POP SWAP3 SWAP6 POP SWAP3 SWAP6 SWAP1 SWAP4 POP JUMP JUMPDEST PUSH1 0x0 DUP1 PUSH1 0x0 DUP1 PUSH1 0x60 DUP6 DUP8 SUB SLT ISZERO PUSH2 0x374B JUMPI PUSH2 0x374A PUSH2 0x3128 JUMP JUMPDEST JUMPDEST PUSH1 0x0 PUSH2 0x3759 DUP8 DUP3 DUP9 ADD PUSH2 0x317B JUMP JUMPDEST SWAP5 POP POP PUSH1 0x20 PUSH2 0x376A DUP8 DUP3 DUP9 ADD PUSH2 0x31B1 JUMP JUMPDEST SWAP4 POP POP PUSH1 0x40 DUP6 ADD CALLDATALOAD PUSH8 0xFFFFFFFFFFFFFFFF DUP2 GT ISZERO PUSH2 0x378B JUMPI PUSH2 0x378A PUSH2 0x312D JUMP JUMPDEST JUMPDEST PUSH2 0x3797 DUP8 DUP3 DUP9 ADD PUSH2 0x3653 JUMP JUMPDEST SWAP3 POP SWAP3 POP POP SWAP3 SWAP6 SWAP2 SWAP5 POP SWAP3 POP JUMP JUMPDEST PUSH32 0x4E487B7100000000000000000000000000000000000000000000000000000000 PUSH1 0x0 MSTORE PUSH1 0x21 PUSH1 0x4 MSTORE PUSH1 0x24 PUSH1 0x0 REVERT JUMPDEST PUSH1 0x2 DUP2 LT PUSH2 0x37E5 JUMPI PUSH2 0x37E4 PUSH2 0x37A5 JUMP JUMPDEST JUMPDEST POP JUMP JUMPDEST PUSH1 0x0 DUP2 SWAP1 POP PUSH2 0x37F6 DUP3 PUSH2 0x37D4 JUMP JUMPDEST SWAP2 SWAP1 POP JUMP JUMPDEST PUSH1 0x0 PUSH2 0x3806 DUP3 PUSH2 0x37E8 JUMP JUMPDEST SWAP1 POP SWAP2 SWAP1 POP JUMP JUMPDEST PUSH2 0x3816 DUP2 PUSH2 0x37FB JUMP JUMPDEST DUP3 MSTORE POP POP JUMP JUMPDEST PUSH1 0x0 PUSH1 0x20 DUP3 ADD SWAP1 POP PUSH2 0x3831 PUSH1 0x0 DUP4 ADD DUP5 PUSH2 0x380D JUMP JUMPDEST SWAP3 SWAP2 POP POP JUMP JUMPDEST PUSH1 0x0 DUP1 REVERT JUMPDEST PUSH1 0x0 PUSH2 0x160 DUP3 DUP5 SUB SLT ISZERO PUSH2 0x3853 JUMPI PUSH2 0x3852 PUSH2 0x3837 JUMP JUMPDEST JUMPDEST DUP2 SWAP1 POP SWAP3 SWAP2 POP POP JUMP JUMPDEST PUSH1 0x0 PUSH1 0x20 DUP3 DUP5 SUB SLT ISZERO PUSH2 0x3872 JUMPI PUSH2 0x3871 PUSH2 0x3128 JUMP JUMPDEST JUMPDEST PUSH1 0x0 DUP3 ADD CALLDATALOAD PUSH8 0xFFFFFFFFFFFFFFFF DUP2 GT ISZERO PUSH2 0x3890 JUMPI PUSH2 0x388F PUSH2 0x312D JUMP JUMPDEST JUMPDEST PUSH2 0x389C DUP5 DUP3 DUP6 ADD PUSH2 0x383C JUMP JUMPDEST SWAP2 POP POP SWAP3 SWAP2 POP POP JUMP JUMPDEST PUSH1 0x0 DUP1 PUSH1 0x40 DUP4 DUP6 SUB SLT ISZERO PUSH2 0x38BC JUMPI PUSH2 0x38BB PUSH2 0x3128 JUMP JUMPDEST JUMPDEST PUSH1 0x0 PUSH2 0x38CA DUP6 DUP3 DUP7 ADD PUSH2 0x317B JUMP JUMPDEST SWAP3 POP POP PUSH1 0x20 PUSH2 0x38DB DUP6 DUP3 DUP7 ADD PUSH2 0x317B JUMP JUMPDEST SWAP2 POP POP SWAP3 POP SWAP3 SWAP1 POP JUMP JUMPDEST PUSH32 0x4E487B7100000000000000000000000000000000000000000000000000000000 PUSH1 0x0 MSTORE PUSH1 0x22 PUSH1 0x4 MSTORE PUSH1 0x24 PUSH1 0x0 REVERT JUMPDEST PUSH1 0x0 PUSH1 0x2 DUP3 DIV SWAP1 POP PUSH1 0x1 DUP3 AND DUP1 PUSH2 0x392C JUMPI PUSH1 0x7F DUP3 AND SWAP2 POP JUMPDEST PUSH1 0x20 DUP3 LT DUP2 SUB PUSH2 0x393F JUMPI PUSH2 0x393E PUSH2 0x38E5 JUMP JUMPDEST JUMPDEST POP SWAP2 SWAP1 POP JUMP JUMPDEST PUSH1 0x0 DUP2 SWAP1 POP SWAP3 SWAP2 POP POP JUMP JUMPDEST PUSH1 0x0 DUP2 SWAP1 POP DUP2 PUSH1 0x0 MSTORE PUSH1 0x20 PUSH1 0x0 KECCAK256 SWAP1 POP SWAP2 SWAP1 POP JUMP JUMPDEST PUSH1 0x0 DUP2 SLOAD PUSH2 0x3972 DUP2 PUSH2 0x3914 JUMP JUMPDEST PUSH2 0x397C DUP2 DUP7 PUSH2 0x3945 JUMP JUMPDEST SWAP5 POP PUSH1 0x1 DUP3 AND PUSH1 0x0 DUP2 EQ PUSH2 0x3997 JUMPI PUSH1 0x1 DUP2 EQ PUSH2 0x39AC JUMPI PUSH2 0x39DF JUMP JUMPDEST PUSH1 0xFF NOT DUP4 AND DUP7 MSTORE DUP2 ISZERO ISZERO DUP3 MUL DUP7 ADD SWAP4 POP PUSH2 0x39DF JUMP JUMPDEST PUSH2 0x39B5 DUP6 PUSH2 0x3950 JUMP JUMPDEST PUSH1 0x0 JUMPDEST DUP4 DUP2 LT ISZERO PUSH2 0x39D7 JUMPI DUP2 SLOAD DUP2 DUP10 ADD MSTORE PUSH1 0x1 DUP3 ADD SWAP2 POP PUSH1 0x20 DUP2 ADD SWAP1 POP PUSH2 0x39B8 JUMP JUMPDEST DUP4 DUP9 ADD SWAP6 POP POP POP JUMPDEST POP POP POP SWAP3 SWAP2 POP POP JUMP JUMPDEST PUSH1 0x0 PUSH2 0x39F4 DUP3 DUP5 PUSH2 0x3965 JUMP JUMPDEST SWAP2 POP DUP2 SWAP1 POP SWAP3 SWAP2 POP POP JUMP JUMPDEST PUSH1 0x0 DUP2 MLOAD SWAP1 POP PUSH2 0x3A0E DUP2 PUSH2 0x3164 JUMP JUMPDEST SWAP3 SWAP2 POP POP JUMP JUMPDEST PUSH1 0x0 DUP1 PUSH1 0x0 DUP1 PUSH1 0x0 PUSH1 0xA0 DUP7 DUP9 SUB SLT ISZERO PUSH2 0x3A30 JUMPI PUSH2 0x3A2F PUSH2 0x3128 JUMP JUMPDEST JUMPDEST PUSH1 0x0 PUSH2 0x3A3E DUP9 DUP3 DUP10 ADD PUSH2 0x39FF JUMP JUMPDEST SWAP6 POP POP PUSH1 0x20 PUSH2 0x3A4F DUP9 DUP3 DUP10 ADD PUSH2 0x39FF JUMP JUMPDEST SWAP5 POP POP PUSH1 0x40 PUSH2 0x3A60 DUP9 DUP3 DUP10 ADD PUSH2 0x39FF JUMP JUMPDEST SWAP4 POP POP PUSH1 0x60 PUSH2 0x3A71 DUP9 DUP3 DUP10 ADD PUSH2 0x39FF JUMP JUMPDEST SWAP3 POP POP PUSH1 0x80 PUSH2 0x3A82 DUP9 DUP3 DUP10 ADD PUSH2 0x39FF JUMP JUMPDEST SWAP2 POP POP SWAP3 SWAP6 POP SWAP3 SWAP6 SWAP1 SWAP4 POP JUMP JUMPDEST PUSH2 0x3A98 DUP2 PUSH2 0x3206 JUMP JUMPDEST DUP2 EQ PUSH2 0x3AA3 JUMPI PUSH1 0x0 DUP1 REVERT JUMPDEST POP JUMP JUMPDEST PUSH1 0x0 DUP2 MLOAD SWAP1 POP PUSH2 0x3AB5 DUP2 PUSH2 0x3A8F JUMP JUMPDEST SWAP3 SWAP2 POP POP JUMP JUMPDEST PUSH1 0x0 PUSH1 0x20 DUP3 DUP5 SUB SLT ISZERO PUSH2 0x3AD1 JUMPI PUSH2 0x3AD0 PUSH2 0x3128 JUMP JUMPDEST JUMPDEST PUSH1 0x0 PUSH2 0x3ADF DUP5 DUP3 DUP6 ADD PUSH2 0x3AA6 JUMP JUMPDEST SWAP2 POP POP SWAP3 SWAP2 POP POP JUMP JUMPDEST PUSH32 0x4143434F554E545F4E4F545F414150524F564544000000000000000000000000 PUSH1 0x0 DUP3 ADD MSTORE POP JUMP JUMPDEST PUSH1 0x0 PUSH2 0x3B1E PUSH1 0x14 DUP4 PUSH2 0x3077 JUMP JUMPDEST SWAP2 POP PUSH2 0x3B29 DUP3 PUSH2 0x3AE8 JUMP JUMPDEST PUSH1 0x20 DUP3 ADD SWAP1 POP SWAP2 SWAP1 POP JUMP JUMPDEST PUSH1 0x0 PUSH1 0x20 DUP3 ADD SWAP1 POP DUP2 DUP2 SUB PUSH1 0x0 DUP4 ADD MSTORE PUSH2 0x3B4D DUP2 PUSH2 0x3B11 JUMP JUMPDEST SWAP1 POP SWAP2 SWAP1 POP JUMP JUMPDEST PUSH32 0x4E487B7100000000000000000000000000000000000000000000000000000000 PUSH1 0x0 MSTORE PUSH1 0x12 PUSH1 0x4 MSTORE PUSH1 0x24 PUSH1 0x0 REVERT JUMPDEST PUSH32 0x4E487B7100000000000000000000000000000000000000000000000000000000 PUSH1 0x0 MSTORE PUSH1 0x11 PUSH1 0x4 MSTORE PUSH1 0x24 PUSH1 0x0 REVERT JUMPDEST PUSH1 0x0 PUSH2 0x3BBD DUP3 PUSH2 0x3190 JUMP JUMPDEST SWAP2 POP PUSH2 0x3BC8 DUP4 PUSH2 0x3190 JUMP JUMPDEST SWAP3 POP DUP3 PUSH2 0x3BD8 JUMPI PUSH2 0x3BD7 PUSH2 0x3B54 JUMP JUMPDEST JUMPDEST DUP3 DUP3 DIV SWAP1 POP SWAP3 SWAP2 POP POP JUMP JUMPDEST PUSH32 0x4F4E4C595F544F504F535F42414E4B5F434F4E54524143540000000000000000 PUSH1 0x0 DUP3 ADD MSTORE POP JUMP JUMPDEST PUSH1 0x0 PUSH2 0x3C19 PUSH1 0x18 DUP4 PUSH2 0x3077 JUMP JUMPDEST SWAP2 POP PUSH2 0x3C24 DUP3 PUSH2 0x3BE3 JUMP JUMPDEST PUSH1 0x20 DUP3 ADD SWAP1 POP SWAP2 SWAP1 POP JUMP JUMPDEST PUSH1 0x0 PUSH1 0x20 DUP3 ADD SWAP1 POP DUP2 DUP2 SUB PUSH1 0x0 DUP4 ADD MSTORE PUSH2 0x3C48 DUP2 PUSH2 0x3C0C JUMP JUMPDEST SWAP1 POP SWAP2 SWAP1 POP JUMP JUMPDEST PUSH32 0x6D61747572656400000000000000000000000000000000000000000000000000 PUSH1 0x0 DUP3 ADD MSTORE POP JUMP JUMPDEST PUSH1 0x0 PUSH2 0x3C85 PUSH1 0x7 DUP4 PUSH2 0x3077 JUMP JUMPDEST SWAP2 POP PUSH2 0x3C90 DUP3 PUSH2 0x3C4F JUMP JUMPDEST PUSH1 0x20 DUP3 ADD SWAP1 POP SWAP2 SWAP1 POP JUMP JUMPDEST PUSH1 0x0 PUSH1 0x20 DUP3 ADD SWAP1 POP DUP2 DUP2 SUB PUSH1 0x0 DUP4 ADD MSTORE PUSH2 0x3CB4 DUP2 PUSH2 0x3C78 JUMP JUMPDEST SWAP1 POP SWAP2 SWAP1 POP JUMP JUMPDEST PUSH1 0x0 PUSH2 0x3CC6 DUP3 PUSH2 0x3190 JUMP JUMPDEST SWAP2 POP PUSH2 0x3CD1 DUP4 PUSH2 0x3190 JUMP JUMPDEST SWAP3 POP DUP3 DUP3 MUL PUSH2 0x3CDF DUP2 PUSH2 0x3190 JUMP JUMPDEST SWAP2 POP DUP3 DUP3 DIV DUP5 EQ DUP4 ISZERO OR PUSH2 0x3CF6 JUMPI PUSH2 0x3CF5 PUSH2 0x3B83 JUMP JUMPDEST JUMPDEST POP SWAP3 SWAP2 POP POP JUMP JUMPDEST PUSH1 0x0 PUSH2 0x3D08 DUP3 PUSH2 0x3190 JUMP JUMPDEST SWAP2 POP PUSH2 0x3D13 DUP4 PUSH2 0x3190 JUMP JUMPDEST SWAP3 POP DUP3 PUSH2 0x3D23 JUMPI PUSH2 0x3D22 PUSH2 0x3B54 JUMP JUMPDEST JUMPDEST DUP3 DUP3 MOD SWAP1 POP SWAP3 SWAP2 POP POP JUMP JUMPDEST PUSH1 0x0 PUSH2 0x3D39 DUP3 PUSH2 0x3190 JUMP JUMPDEST SWAP2 POP PUSH2 0x3D44 DUP4 PUSH2 0x3190 JUMP JUMPDEST SWAP3 POP DUP3 DUP3 ADD SWAP1 POP DUP1 DUP3 GT ISZERO PUSH2 0x3D5C JUMPI PUSH2 0x3D5B PUSH2 0x3B83 JUMP JUMPDEST JUMPDEST SWAP3 SWAP2 POP POP JUMP JUMPDEST PUSH1 0x0 PUSH1 0x60 DUP3 ADD SWAP1 POP PUSH2 0x3D77 PUSH1 0x0 DUP4 ADD DUP7 PUSH2 0x3266 JUMP JUMPDEST PUSH2 0x3D84 PUSH1 0x20 DUP4 ADD DUP6 PUSH2 0x3266 JUMP JUMPDEST PUSH2 0x3D91 PUSH1 0x40 DUP4 ADD DUP5 PUSH2 0x323C JUMP JUMPDEST SWAP5 SWAP4 POP POP POP POP JUMP JUMPDEST PUSH1 0x0 PUSH2 0x3DA4 DUP3 PUSH2 0x3190 JUMP JUMPDEST SWAP2 POP PUSH2 0x3DAF DUP4 PUSH2 0x3190 JUMP JUMPDEST SWAP3 POP DUP3 DUP3 SUB SWAP1 POP DUP2 DUP2 GT ISZERO PUSH2 0x3DC7 JUMPI PUSH2 0x3DC6 PUSH2 0x3B83 JUMP JUMPDEST JUMPDEST SWAP3 SWAP2 POP POP JUMP JUMPDEST PUSH32 0x4E487B7100000000000000000000000000000000000000000000000000000000 PUSH1 0x0 MSTORE PUSH1 0x32 PUSH1 0x4 MSTORE PUSH1 0x24 PUSH1 0x0 REVERT JUMPDEST PUSH1 0x0 DUP2 SLOAD PUSH2 0x3E09 DUP2 PUSH2 0x3914 JUMP JUMPDEST PUSH2 0x3E13 DUP2 DUP7 PUSH2 0x3077 JUMP JUMPDEST SWAP5 POP PUSH1 0x1 DUP3 AND PUSH1 0x0 DUP2 EQ PUSH2 0x3E2E JUMPI PUSH1 0x1 DUP2 EQ PUSH2 0x3E44 JUMPI PUSH2 0x3E77 JUMP JUMPDEST PUSH1 0xFF NOT DUP4 AND DUP7 MSTORE DUP2 ISZERO ISZERO PUSH1 0x20 MUL DUP7 ADD SWAP4 POP PUSH2 0x3E77 JUMP JUMPDEST PUSH2 0x3E4D DUP6 PUSH2 0x3950 JUMP JUMPDEST PUSH1 0x0 JUMPDEST DUP4 DUP2 LT ISZERO PUSH2 0x3E6F JUMPI DUP2 SLOAD DUP2 DUP10 ADD MSTORE PUSH1 0x1 DUP3 ADD SWAP2 POP PUSH1 0x20 DUP2 ADD SWAP1 POP PUSH2 0x3E50 JUMP JUMPDEST DUP1 DUP9 ADD SWAP6 POP POP POP JUMPDEST POP POP POP SWAP3 SWAP2 POP POP JUMP JUMPDEST PUSH1 0x0 PUSH1 0x20 DUP3 ADD SWAP1 POP DUP2 DUP2 SUB PUSH1 0x0 DUP4 ADD MSTORE PUSH2 0x3E9A DUP2 DUP5 PUSH2 0x3DFC JUMP JUMPDEST SWAP1 POP SWAP3 SWAP2 POP POP JUMP JUMPDEST PUSH1 0x0 PUSH8 0xFFFFFFFFFFFFFFFF DUP3 GT ISZERO PUSH2 0x3EBD JUMPI PUSH2 0x3EBC PUSH2 0x329A JUMP JUMPDEST JUMPDEST PUSH1 0x20 DUP3 MUL SWAP1 POP PUSH1 0x20 DUP2 ADD SWAP1 POP SWAP2 SWAP1 POP JUMP JUMPDEST PUSH1 0x0 DUP1 REVERT JUMPDEST PUSH1 0x0 DUP2 MLOAD SWAP1 POP PUSH2 0x3EE2 DUP2 PUSH2 0x319A JUMP JUMPDEST SWAP3 SWAP2 POP POP JUMP JUMPDEST PUSH1 0x0 PUSH1 0x40 DUP3 DUP5 SUB SLT ISZERO PUSH2 0x3EFE JUMPI PUSH2 0x3EFD PUSH2 0x3ECE JUMP JUMPDEST JUMPDEST PUSH2 0x3F08 PUSH1 0x40 PUSH2 0x32FA JUMP JUMPDEST SWAP1 POP PUSH1 0x0 PUSH2 0x3F18 DUP5 DUP3 DUP6 ADD PUSH2 0x39FF JUMP JUMPDEST PUSH1 0x0 DUP4 ADD MSTORE POP PUSH1 0x20 PUSH2 0x3F2C DUP5 DUP3 DUP6 ADD PUSH2 0x3ED3 JUMP JUMPDEST PUSH1 0x20 DUP4 ADD MSTORE POP SWAP3 SWAP2 POP POP JUMP JUMPDEST PUSH1 0x0 PUSH2 0x3F4B PUSH2 0x3F46 DUP5 PUSH2 0x3EA2 JUMP JUMPDEST PUSH2 0x32FA JUMP JUMPDEST SWAP1 POP DUP1 DUP4 DUP3 MSTORE PUSH1 0x20 DUP3 ADD SWAP1 POP PUSH1 0x40 DUP5 MUL DUP4 ADD DUP6 DUP2 GT ISZERO PUSH2 0x3F6E JUMPI PUSH2 0x3F6D PUSH2 0x364E JUMP JUMPDEST JUMPDEST DUP4 JUMPDEST DUP2 DUP2 LT ISZERO PUSH2 0x3F97 JUMPI DUP1 PUSH2 0x3F83 DUP9 DUP3 PUSH2 0x3EE8 JUMP JUMPDEST DUP5 MSTORE PUSH1 0x20 DUP5 ADD SWAP4 POP POP PUSH1 0x40 DUP2 ADD SWAP1 POP PUSH2 0x3F70 JUMP JUMPDEST POP POP POP SWAP4 SWAP3 POP POP POP JUMP JUMPDEST PUSH1 0x0 DUP3 PUSH1 0x1F DUP4 ADD SLT PUSH2 0x3FB6 JUMPI PUSH2 0x3FB5 PUSH2 0x3290 JUMP JUMPDEST JUMPDEST DUP2 MLOAD PUSH2 0x3FC6 DUP5 DUP3 PUSH1 0x20 DUP7 ADD PUSH2 0x3F38 JUMP JUMPDEST SWAP2 POP POP SWAP3 SWAP2 POP POP JUMP JUMPDEST PUSH1 0x0 PUSH1 0x20 DUP3 DUP5 SUB SLT ISZERO PUSH2 0x3FE5 JUMPI PUSH2 0x3FE4 PUSH2 0x3128 JUMP JUMPDEST JUMPDEST PUSH1 0x0 DUP3 ADD MLOAD PUSH8 0xFFFFFFFFFFFFFFFF DUP2 GT ISZERO PUSH2 0x4003 JUMPI PUSH2 0x4002 PUSH2 0x312D JUMP JUMPDEST JUMPDEST PUSH2 0x400F DUP5 DUP3 DUP6 ADD PUSH2 0x3FA1 JUMP JUMPDEST SWAP2 POP POP SWAP3 SWAP2 POP POP JUMP JUMPDEST PUSH1 0x0 PUSH2 0x4023 DUP3 PUSH2 0x3190 JUMP JUMPDEST SWAP2 POP PUSH32 0xFFFFFFFFFFFFFFFFFFFFFFFFFFFFFFFFFFFFFFFFFFFFFFFFFFFFFFFFFFFFFFFF DUP3 SUB PUSH2 0x4055 JUMPI PUSH2 0x4054 PUSH2 0x3B83 JUMP JUMPDEST JUMPDEST PUSH1 0x1 DUP3 ADD SWAP1 POP SWAP2 SWAP1 POP JUMP JUMPDEST PUSH1 0x0 PUSH1 0x20 DUP3 DUP5 SUB SLT ISZERO PUSH2 0x4076 JUMPI PUSH2 0x4075 PUSH2 0x3128 JUMP JUMPDEST JUMPDEST PUSH1 0x0 PUSH2 0x4084 DUP5 DUP3 DUP6 ADD PUSH2 0x3ED3 JUMP JUMPDEST SWAP2 POP POP SWAP3 SWAP2 POP POP JUMP JUMPDEST PUSH1 0x0 DUP1 REVERT JUMPDEST PUSH1 0x0 DUP1 REVERT JUMPDEST PUSH1 0x0 DUP1 REVERT JUMPDEST PUSH1 0x0 DUP1 DUP4 CALLDATALOAD PUSH1 0x1 PUSH1 0x20 SUB DUP5 CALLDATASIZE SUB SUB DUP2 SLT PUSH2 0x40B9 JUMPI PUSH2 0x40B8 PUSH2 0x408D JUMP JUMPDEST JUMPDEST DUP1 DUP5 ADD SWAP3 POP DUP3 CALLDATALOAD SWAP2 POP PUSH8 0xFFFFFFFFFFFFFFFF DUP3 GT ISZERO PUSH2 0x40DB JUMPI PUSH2 0x40DA PUSH2 0x4092 JUMP JUMPDEST JUMPDEST PUSH1 0x20 DUP4 ADD SWAP3 POP PUSH1 0x1 DUP3 MUL CALLDATASIZE SUB DUP4 SGT ISZERO PUSH2 0x40F7 JUMPI PUSH2 0x40F6 PUSH2 0x4097 JUMP JUMPDEST JUMPDEST POP SWAP3 POP SWAP3 SWAP1 POP JUMP JUMPDEST PUSH1 0x0 DUP3 SWAP1 POP SWAP3 SWAP2 POP POP JUMP JUMPDEST PUSH1 0x0 PUSH1 0x20 PUSH1 0x1F DUP4 ADD DIV SWAP1 POP SWAP2 SWAP1 POP JUMP JUMPDEST PUSH1 0x0 DUP3 DUP3 SHL SWAP1 POP SWAP3 SWAP2 POP POP JUMP JUMPDEST PUSH1 0x0 PUSH1 0x8 DUP4 MUL PUSH2 0x4157 PUSH32 0xFFFFFFFFFFFFFFFFFFFFFFFFFFFFFFFFFFFFFFFFFFFFFFFFFFFFFFFFFFFFFFFF DUP3 PUSH2 0x411A JUMP JUMPDEST PUSH2 0x4161 DUP7 DUP4 PUSH2 0x411A JUMP JUMPDEST SWAP6 POP DUP1 NOT DUP5 AND SWAP4 POP DUP1 DUP7 AND DUP5 OR SWAP3 POP POP POP SWAP4 SWAP3 POP POP POP JUMP JUMPDEST PUSH1 0x0 DUP2 SWAP1 POP SWAP2 SWAP1 POP JUMP JUMPDEST PUSH1 0x0 PUSH2 0x419E PUSH2 0x4199 PUSH2 0x4194 DUP5 PUSH2 0x3190 JUMP JUMPDEST PUSH2 0x4179 JUMP JUMPDEST PUSH2 0x3190 JUMP JUMPDEST SWAP1 POP SWAP2 SWAP1 POP JUMP JUMPDEST PUSH1 0x0 DUP2 SWAP1 POP SWAP2 SWAP1 POP JUMP JUMPDEST PUSH2 0x41B8 DUP4 PUSH2 0x4183 JUMP JUMPDEST PUSH2 0x41CC PUSH2 0x41C4 DUP3 PUSH2 0x41A5 JUMP JUMPDEST DUP5 DUP5 SLOAD PUSH2 0x4127 JUMP JUMPDEST DUP3 SSTORE POP POP POP POP JUMP JUMPDEST PUSH1 0x0 SWAP1 JUMP JUMPDEST PUSH2 0x41E1 PUSH2 0x41D4 JUMP JUMPDEST PUSH2 0x41EC DUP2 DUP5 DUP5 PUSH2 0x41AF JUMP JUMPDEST POP POP POP JUMP JUMPDEST JUMPDEST DUP2 DUP2 LT ISZERO PUSH2 0x4210 JUMPI PUSH2 0x4205 PUSH1 0x0 DUP3 PUSH2 0x41D9 JUMP JUMPDEST PUSH1 0x1 DUP2 ADD SWAP1 POP PUSH2 0x41F2 JUMP JUMPDEST POP POP JUMP JUMPDEST PUSH1 0x1F DUP3 GT ISZERO PUSH2 0x4255 JUMPI PUSH2 0x4226 DUP2 PUSH2 0x3950 JUMP JUMPDEST PUSH2 0x422F DUP5 PUSH2 0x410A JUMP JUMPDEST DUP2 ADD PUSH1 0x20 DUP6 LT ISZERO PUSH2 0x423E JUMPI DUP2 SWAP1 POP JUMPDEST PUSH2 0x4252 PUSH2 0x424A DUP6 PUSH2 0x410A JUMP JUMPDEST DUP4 ADD DUP3 PUSH2 0x41F1 JUMP JUMPDEST POP POP JUMPDEST POP POP POP JUMP JUMPDEST PUSH1 0x0 DUP3 DUP3 SHR SWAP1 POP SWAP3 SWAP2 POP POP JUMP JUMPDEST PUSH1 0x0 PUSH2 0x4278 PUSH1 0x0 NOT DUP5 PUSH1 0x8 MUL PUSH2 0x425A JUMP JUMPDEST NOT DUP1 DUP4 AND SWAP2 POP POP SWAP3 SWAP2 POP POP JUMP JUMPDEST PUSH1 0x0 PUSH2 0x4291 DUP4 DUP4 PUSH2 0x4267 JUMP JUMPDEST SWAP2 POP DUP3 PUSH1 0x2 MUL DUP3 OR SWAP1 POP SWAP3 SWAP2 POP POP JUMP JUMPDEST PUSH2 0x42AB DUP4 DUP4 PUSH2 0x40FF JUMP JUMPDEST PUSH8 0xFFFFFFFFFFFFFFFF DUP2 GT ISZERO PUSH2 0x42C4 JUMPI PUSH2 0x42C3 PUSH2 0x329A JUMP JUMPDEST JUMPDEST PUSH2 0x42CE DUP3 SLOAD PUSH2 0x3914 JUMP JUMPDEST PUSH2 0x42D9 DUP3 DUP3 DUP6 PUSH2 0x4214 JUMP JUMPDEST PUSH1 0x0 PUSH1 0x1F DUP4 GT PUSH1 0x1 DUP2 EQ PUSH2 0x4308 JUMPI PUSH1 0x0 DUP5 ISZERO PUSH2 0x42F6 JUMPI DUP3 DUP8 ADD CALLDATALOAD SWAP1 POP JUMPDEST PUSH2 0x4300 DUP6 DUP3 PUSH2 0x4285 JUMP JUMPDEST DUP7 SSTORE POP PUSH2 0x4368 JUMP JUMPDEST PUSH1 0x1F NOT DUP5 AND PUSH2 0x4316 DUP7 PUSH2 0x3950 JUMP JUMPDEST PUSH1 0x0 JUMPDEST DUP3 DUP2 LT ISZERO PUSH2 0x433E JUMPI DUP5 DUP10 ADD CALLDATALOAD DUP3 SSTORE PUSH1 0x1 DUP3 ADD SWAP2 POP PUSH1 0x20 DUP6 ADD SWAP5 POP PUSH1 0x20 DUP2 ADD SWAP1 POP PUSH2 0x4319 JUMP JUMPDEST DUP7 DUP4 LT ISZERO PUSH2 0x435B JUMPI DUP5 DUP10 ADD CALLDATALOAD PUSH2 0x4357 PUSH1 0x1F DUP10 AND DUP3 PUSH2 0x4267 JUMP JUMPDEST DUP4 SSTORE POP JUMPDEST PUSH1 0x1 PUSH1 0x2 DUP9 MUL ADD DUP9 SSTORE POP POP POP JUMPDEST POP POP POP POP POP POP POP JUMP JUMPDEST PUSH2 0x437C DUP4 DUP4 DUP4 PUSH2 0x42A1 JUMP JUMPDEST POP POP POP JUMP JUMPDEST PUSH1 0x0 DUP2 CALLDATALOAD PUSH2 0x438E DUP2 PUSH2 0x3164 JUMP JUMPDEST DUP1 SWAP2 POP POP SWAP2 SWAP1 POP JUMP JUMPDEST PUSH1 0x0 DUP2 PUSH1 0x0 SHL SWAP1 POP SWAP2 SWAP1 POP JUMP JUMPDEST PUSH1 0x0 PUSH20 0xFFFFFFFFFFFFFFFFFFFFFFFFFFFFFFFFFFFFFFFF PUSH2 0x43C4 DUP5 PUSH2 0x4397 JUMP JUMPDEST SWAP4 POP DUP1 NOT DUP4 AND SWAP3 POP DUP1 DUP5 AND DUP4 OR SWAP2 POP POP SWAP3 SWAP2 POP POP JUMP JUMPDEST PUSH1 0x0 PUSH2 0x43F5 PUSH2 0x43F0 PUSH2 0x43EB DUP5 PUSH2 0x3132 JUMP JUMPDEST PUSH2 0x4179 JUMP JUMPDEST PUSH2 0x3132 JUMP JUMPDEST SWAP1 POP SWAP2 SWAP1 POP JUMP JUMPDEST PUSH1 0x0 PUSH2 0x4407 DUP3 PUSH2 0x43DA JUMP JUMPDEST SWAP1 POP SWAP2 SWAP1 POP JUMP JUMPDEST PUSH1 0x0 PUSH2 0x4419 DUP3 PUSH2 0x43FC JUMP JUMPDEST SWAP1 POP SWAP2 SWAP1 POP JUMP JUMPDEST PUSH1 0x0 DUP2 SWAP1 POP SWAP2 SWAP1 POP JUMP JUMPDEST PUSH2 0x4433 DUP3 PUSH2 0x440E JUMP JUMPDEST PUSH2 0x4446 PUSH2 0x443F DUP3 PUSH2 0x4420 JUMP JUMPDEST DUP4 SLOAD PUSH2 0x43A4 JUMP JUMPDEST DUP3 SSTORE POP POP POP JUMP JUMPDEST PUSH1 0x0 DUP2 CALLDATALOAD PUSH2 0x445A DUP2 PUSH2 0x319A JUMP JUMPDEST DUP1 SWAP2 POP POP SWAP2 SWAP1 POP JUMP JUMPDEST PUSH1 0x0 PUSH32 0xFFFFFFFFFFFFFFFFFFFFFFFFFFFFFFFFFFFFFFFFFFFFFFFFFFFFFFFFFFFFFFFF PUSH2 0x448F DUP5 PUSH2 0x4397 JUMP JUMPDEST SWAP4 POP DUP1 NOT DUP4 AND SWAP3 POP DUP1 DUP5 AND DUP4 OR SWAP2 POP POP SWAP3 SWAP2 POP POP JUMP JUMPDEST PUSH2 0x44AE DUP3 PUSH2 0x4183 JUMP JUMPDEST PUSH2 0x44C1 PUSH2 0x44BA DUP3 PUSH2 0x41A5 JUMP JUMPDEST DUP4 SLOAD PUSH2 0x4463 JUMP JUMPDEST DUP3 SSTORE POP POP POP JUMP JUMPDEST PUSH2 0x44D1 DUP2 PUSH2 0x3035 JUMP JUMPDEST DUP2 EQ PUSH2 0x44DC JUMPI PUSH1 0x0 DUP1 REVERT JUMPDEST POP JUMP JUMPDEST PUSH1 0x0 DUP2 CALLDATALOAD PUSH2 0x44EC DUP2 PUSH2 0x44C8 JUMP JUMPDEST DUP1 SWAP2 POP POP SWAP2 SWAP1 POP JUMP JUMPDEST PUSH1 0x0 PUSH1 0xFF PUSH2 0x4502 DUP5 PUSH2 0x4397 JUMP JUMPDEST SWAP4 POP DUP1 NOT DUP4 AND SWAP3 POP DUP1 DUP5 AND DUP4 OR SWAP2 POP POP SWAP3 SWAP2 POP POP JUMP JUMPDEST PUSH1 0x0 PUSH2 0x4533 PUSH2 0x452E PUSH2 0x4529 DUP5 PUSH2 0x3035 JUMP JUMPDEST PUSH2 0x4179 JUMP JUMPDEST PUSH2 0x3035 JUMP JUMPDEST SWAP1 POP SWAP2 SWAP1 POP JUMP JUMPDEST PUSH1 0x0 DUP2 SWAP1 POP SWAP2 SWAP1 POP JUMP JUMPDEST PUSH2 0x454D DUP3 PUSH2 0x4518 JUMP JUMPDEST PUSH2 0x4560 PUSH2 0x4559 DUP3 PUSH2 0x453A JUMP JUMPDEST DUP4 SLOAD PUSH2 0x44F5 JUMP JUMPDEST DUP3 SSTORE POP POP POP JUMP JUMPDEST PUSH1 0x0 DUP2 ADD PUSH1 0x0 DUP4 ADD PUSH2 0x4579 DUP2 DUP6 PUSH2 0x409C JUMP JUMPDEST PUSH2 0x4584 DUP2 DUP4 DUP7 PUSH2 0x4371 JUMP JUMPDEST POP POP POP POP PUSH1 0x1 DUP2 ADD PUSH1 0x20 DUP4 ADD PUSH2 0x459A DUP2 DUP6 PUSH2 0x409C JUMP JUMPDEST PUSH2 0x45A5 DUP2 DUP4 DUP7 PUSH2 0x4371 JUMP JUMPDEST POP POP POP POP PUSH1 0x2 DUP2 ADD PUSH1 0x40 DUP4 ADD PUSH2 0x45BB DUP2 DUP6 PUSH2 0x409C JUMP JUMPDEST PUSH2 0x45C6 DUP2 DUP4 DUP7 PUSH2 0x4371 JUMP JUMPDEST POP POP POP POP PUSH1 0x3 DUP2 ADD PUSH1 0x60 DUP4 ADD DUP1 PUSH2 0x45DC DUP2 PUSH2 0x4381 JUMP JUMPDEST SWAP1 POP PUSH2 0x45E8 DUP2 DUP5 PUSH2 0x442A JUMP JUMPDEST POP POP POP PUSH1 0x4 DUP2 ADD PUSH1 0x80 DUP4 ADD DUP1 PUSH2 0x45FD DUP2 PUSH2 0x444D JUMP JUMPDEST SWAP1 POP PUSH2 0x4609 DUP2 DUP5 PUSH2 0x44A5 JUMP JUMPDEST POP POP POP PUSH1 0x5 DUP2 ADD PUSH1 0xA0 DUP4 ADD DUP1 PUSH2 0x461E DUP2 PUSH2 0x444D JUMP JUMPDEST SWAP1 POP PUSH2 0x462A DUP2 DUP5 PUSH2 0x44A5 JUMP JUMPDEST POP POP POP PUSH1 0x6 DUP2 ADD PUSH1 0xC0 DUP4 ADD DUP1 PUSH2 0x463F DUP2 PUSH2 0x444D JUMP JUMPDEST SWAP1 POP PUSH2 0x464B DUP2 DUP5 PUSH2 0x44A5 JUMP JUMPDEST POP POP POP PUSH1 0x7 DUP2 ADD PUSH1 0xE0 DUP4 ADD DUP1 PUSH2 0x4660 DUP2 PUSH2 0x44DF JUMP JUMPDEST SWAP1 POP PUSH2 0x466C DUP2 DUP5 PUSH2 0x4544 JUMP JUMPDEST POP POP POP PUSH1 0x8 DUP2 ADD PUSH2 0x100 DUP4 ADD DUP1 PUSH2 0x4682 DUP2 PUSH2 0x444D JUMP JUMPDEST SWAP1 POP PUSH2 0x468E DUP2 DUP5 PUSH2 0x44A5 JUMP JUMPDEST POP POP POP PUSH1 0x9 DUP2 ADD PUSH2 0x120 DUP4 ADD DUP1 PUSH2 0x46A4 DUP2 PUSH2 0x444D JUMP JUMPDEST SWAP1 POP PUSH2 0x46B0 DUP2 DUP5 PUSH2 0x44A5 JUMP JUMPDEST POP POP POP PUSH1 0xA DUP2 ADD PUSH2 0x140 DUP4 ADD DUP1 PUSH2 0x46C6 DUP2 PUSH2 0x444D JUMP JUMPDEST SWAP1 POP PUSH2 0x46D2 DUP2 DUP5 PUSH2 0x44A5 JUMP JUMPDEST POP POP POP POP POP JUMP JUMPDEST PUSH2 0x46E3 DUP3 DUP3 PUSH2 0x4567 JUMP JUMPDEST POP POP JUMP INVALID LOG2 PUSH5 0x6970667358 0x22 SLT KECCAK256 0xB7 0xAD 0xBB 0xC8 DUP4 CALLER 0xB7 0xA8 SHR SLOAD STATICCALL LOG4 0xCA 0x2A COINBASE PUSH17 0x3A7B111B90DFB9958F8C7A3B7086977864 PUSH20 0x6F6C63430008130033A2646970667358221220E6 PUSH23 0x3A0E65ED4FFE1994D770C880F2D9E104572EDD42D1CE10 0x28 DUP11 0x5C 0xE7 0xFC 0x4F 0x24 PUSH5 0x736F6C6343 STOP ADDMOD SGT STOP CALLER "},"methodIdentifiers":{"DeployBondContract(string,address,address,string)":"c0445117","isBondContract(string)":"06f0e27a","toposBankContract()":"9c34712a","toposManager()":"7f31ed73"}}}}}