{"contracts/Topos/Bank/ToposBank.sol":{"ToposBank":{"abi":[{"inputs":[{"internalType":"address","name":"_toposManager","type":"address"},{"internalType":"address","name":"_rolesContract","type":"address"},{"internalType":"address","name":"_identityRegistryContract","type":"address"},{"internalType":"address","name":"_bondCallContract","type":"address"},{"internalType":"address","name":"_irsCallContract","type":"address"},{"internalType":"uint256","name":"_dealFees","type":"uint256"}],"stateMutability":"nonpayable","type":"constructor"},{"inputs":[{"internalType":"uint256","name":"amount","type":"uint256"}],"name":"InvalidAmount","type":"error"},{"inputs":[{"internalType":"string","name":"dealID","type":"string"}],"name":"InvalidDealStatus","type":"error"},{"anonymous":false,"inputs":[{"indexed":false,"internalType":"string","name":"_dealID","type":"string"}],"name":"BondIssue","type":"event"},{"anonymous":false,"inputs":[{"indexed":false,"internalType":"string","name":"_dealID","type":"string"}],"name":"BondRedeem","type":"event"},{"anonymous":false,"inputs":[{"indexed":false,"internalType":"string","name":"dealID","type":"string"}],"name":"DealAPproved","type":"event"},{"anonymous":false,"inputs":[{"indexed":false,"internalType":"string","name":"dealID","type":"string"}],"name":"DealARejected","type":"event"},{"anonymous":false,"inputs":[{"indexed":false,"internalType":"string","name":"dealID","type":"string"},{"components":[{"internalType":"string","name":"dealID","type":"string"},{"internalType":"string","name":"prospectusURI","type":"string"},{"internalType":"address","name":"issuerAddress","type":"address"},{"internalType":"uint256","name":"debtAmount","type":"uint256"},{"internalType":"uint256","name":"denomination","type":"uint256"},{"internalType":"uint256","name":"couponRate","type":"uint256"},{"internalType":"uint256","name":"couponFrequency","type":"uint256"},{"internalType":"uint256","name":"maturityDate","type":"uint256"},{"internalType":"uint256","name":"index","type":"uint256"},{"internalType":"address","name":"currency","type":"address"},{"internalType":"uint8","name":"couponType","type":"uint8"},{"internalType":"enum BondData.DealStatus","name":"status","type":"uint8"}],"indexed":false,"internalType":"struct BondData.Deal","name":"deal","type":"tuple"}],"name":"DealSubmitted","type":"event"},{"anonymous":false,"inputs":[{"indexed":false,"internalType":"string","name":"dealID","type":"string"},{"indexed":false,"internalType":"address","name":"investor","type":"address"}],"name":"RegisterForDeal","type":"event"},{"inputs":[{"internalType":"address","name":"","type":"address"},{"internalType":"string","name":"","type":"string"}],"name":"amountInvested","outputs":[{"internalType":"uint256","name":"amount","type":"uint256"},{"internalType":"bool","name":"hasInvested","type":"bool"},{"internalType":"uint256","name":"index","type":"uint256"}],"stateMutability":"view","type":"function"},{"inputs":[{"internalType":"string","name":"_dealID","type":"string"}],"name":"approveDeal","outputs":[],"stateMutability":"nonpayable","type":"function"},{"inputs":[],"name":"bondCallContract","outputs":[{"internalType":"address","name":"","type":"address"}],"stateMutability":"view","type":"function"},{"inputs":[{"internalType":"string","name":"","type":"string"}],"name":"dealBondContracts","outputs":[{"internalType":"address","name":"","type":"address"}],"stateMutability":"view","type":"function"},{"inputs":[],"name":"dealFees","outputs":[{"internalType":"uint256","name":"","type":"uint256"}],"stateMutability":"view","type":"function"},{"inputs":[{"internalType":"string","name":"","type":"string"},{"internalType":"uint256","name":"","type":"uint256"}],"name":"dealInvestment","outputs":[{"internalType":"address","name":"investor","type":"address"},{"internalType":"uint256","name":"amount","type":"uint256"}],"stateMutability":"view","type":"function"},{"inputs":[{"internalType":"string","name":"","type":"string"}],"name":"deals","outputs":[{"internalType":"string","name":"dealID","type":"string"},{"internalType":"string","name":"prospectusURI","type":"string"},{"internalType":"address","name":"issuerAddress","type":"address"},{"internalType":"uint256","name":"debtAmount","type":"uint256"},{"internalType":"uint256","name":"denomination","type":"uint256"},{"internalType":"uint256","name":"couponRate","type":"uint256"},{"internalType":"uint256","name":"couponFrequency","type":"uint256"},{"internalType":"uint256","name":"maturityDate","type":"uint256"},{"internalType":"uint256","name":"index","type":"uint256"},{"internalType":"address","name":"currency","type":"address"},{"internalType":"uint8","name":"couponType","type":"uint8"},{"internalType":"enum BondData.DealStatus","name":"status","type":"uint8"}],"stateMutability":"view","type":"function"},{"inputs":[{"internalType":"address","name":"_swapContract","type":"address"}],"name":"endSwapContract","outputs":[],"stateMutability":"nonpayable","type":"function"},{"inputs":[],"name":"getBenchmark","outputs":[{"internalType":"uint256","name":"","type":"uint256"}],"stateMutability":"view","type":"function"},{"inputs":[],"name":"getContracts","outputs":[{"internalType":"address","name":"manager","type":"address"},{"internalType":"address","name":"roles","type":"address"},{"internalType":"address","name":"identityRegistry","type":"address"},{"internalType":"address","name":"bondCall","type":"address"},{"internalType":"address","name":"issuerFund","type":"address"}],"stateMutability":"view","type":"function"},{"inputs":[{"internalType":"string","name":"_dealID","type":"string"}],"name":"getDeal","outputs":[{"components":[{"internalType":"string","name":"dealID","type":"string"},{"internalType":"string","name":"prospectusURI","type":"string"},{"internalType":"address","name":"issuerAddress","type":"address"},{"internalType":"uint256","name":"debtAmount","type":"uint256"},{"internalType":"uint256","name":"denomination","type":"uint256"},{"internalType":"uint256","name":"couponRate","type":"uint256"},{"internalType":"uint256","name":"couponFrequency","type":"uint256"},{"internalType":"uint256","name":"maturityDate","type":"uint256"},{"internalType":"uint256","name":"index","type":"uint256"},{"internalType":"address","name":"currency","type":"address"},{"internalType":"uint8","name":"couponType","type":"uint8"},{"internalType":"enum BondData.DealStatus","name":"status","type":"uint8"}],"internalType":"struct BondData.Deal","name":"","type":"tuple"}],"stateMutability":"view","type":"function"},{"inputs":[{"internalType":"string","name":"_dealID","type":"string"}],"name":"getDealBondContract","outputs":[{"internalType":"address","name":"","type":"address"}],"stateMutability":"view","type":"function"},{"inputs":[],"name":"getDealFees","outputs":[{"internalType":"uint256","name":"","type":"uint256"}],"stateMutability":"view","type":"function"},{"inputs":[{"internalType":"string","name":"_dealID","type":"string"}],"name":"getDealInvestment","outputs":[{"components":[{"internalType":"address","name":"investor","type":"address"},{"internalType":"uint256","name":"amount","type":"uint256"}],"internalType":"struct BondData.DealInvestment[]","name":"","type":"tuple[]"}],"stateMutability":"view","type":"function"},{"inputs":[{"internalType":"address","name":"_fixedPayerContract","type":"address"},{"internalType":"address","name":"_floatingPayerContract","type":"address"}],"name":"getIRSContract","outputs":[{"internalType":"address","name":"","type":"address"}],"stateMutability":"view","type":"function"},{"inputs":[],"name":"getListOfBonds","outputs":[{"components":[{"internalType":"string","name":"isin","type":"string"},{"internalType":"string","name":"name","type":"string"},{"internalType":"string","name":"symbol","type":"string"},{"internalType":"address","name":"currency","type":"address"},{"internalType":"uint256","name":"denomination","type":"uint256"},{"internalType":"uint256","name":"issueVolume","type":"uint256"},{"internalType":"uint256","name":"couponRate","type":"uint256"},{"internalType":"uint8","name":"couponType","type":"uint8"},{"internalType":"uint256","name":"couponFrequency","type":"uint256"},{"internalType":"uint256","name":"issueDate","type":"uint256"},{"internalType":"uint256","name":"maturityDate","type":"uint256"}],"internalType":"struct BondData.Bond[]","name":"","type":"tuple[]"}],"stateMutability":"view","type":"function"},{"inputs":[],"name":"getListOfBondsDealIDs","outputs":[{"internalType":"string[]","name":"","type":"string[]"}],"stateMutability":"view","type":"function"},{"inputs":[],"name":"getListOfDeals","outputs":[{"components":[{"internalType":"string","name":"dealID","type":"string"},{"internalType":"string","name":"prospectusURI","type":"string"},{"internalType":"address","name":"issuerAddress","type":"address"},{"internalType":"uint256","name":"debtAmount","type":"uint256"},{"internalType":"uint256","name":"denomination","type":"uint256"},{"internalType":"uint256","name":"couponRate","type":"uint256"},{"internalType":"uint256","name":"couponFrequency","type":"uint256"},{"internalType":"uint256","name":"maturityDate","type":"uint256"},{"internalType":"uint256","name":"index","type":"uint256"},{"internalType":"address","name":"currency","type":"address"},{"internalType":"uint8","name":"couponType","type":"uint8"},{"internalType":"enum BondData.DealStatus","name":"status","type":"uint8"}],"internalType":"struct BondData.Deal[]","name":"","type":"tuple[]"}],"stateMutability":"view","type":"function"},{"inputs":[],"name":"getListOfIRS","outputs":[{"components":[{"internalType":"address","name":"fixedInterestPayer","type":"address"},{"internalType":"address","name":"floatingInterestPayer","type":"address"},{"internalType":"uint8","name":"ratesDecimals","type":"uint8"},{"internalType":"uint8","name":"status","type":"uint8"},{"internalType":"uint256","name":"swapRate","type":"uint256"},{"internalType":"uint256","name":"spread","type":"uint256"},{"internalType":"address","name":"assetContract","type":"address"},{"internalType":"uint256","name":"notionalAmount","type":"uint256"},{"internalType":"uint256","name":"paymentFrequency","type":"uint256"},{"internalType":"uint256","name":"startingDate","type":"uint256"},{"internalType":"uint256","name":"maturityDate","type":"uint256"},{"internalType":"uint256","name":"benchmark","type":"uint256"}],"internalType":"struct IRSTypes.IRS[]","name":"","type":"tuple[]"}],"stateMutability":"view","type":"function"},{"inputs":[{"internalType":"string","name":"_dealID","type":"string"}],"name":"getTotalAmounInvested","outputs":[{"internalType":"uint256","name":"","type":"uint256"}],"stateMutability":"view","type":"function"},{"inputs":[],"name":"identityRegistryContract","outputs":[{"internalType":"address","name":"","type":"address"}],"stateMutability":"view","type":"function"},{"inputs":[],"name":"irsCallContract","outputs":[{"internalType":"address","name":"","type":"address"}],"stateMutability":"view","type":"function"},{"inputs":[{"internalType":"string","name":"_dealID","type":"string"},{"components":[{"internalType":"string","name":"isin","type":"string"},{"internalType":"string","name":"name","type":"string"},{"internalType":"string","name":"symbol","type":"string"},{"internalType":"address","name":"currency","type":"address"},{"internalType":"uint256","name":"denomination","type":"uint256"},{"internalType":"uint256","name":"issueVolume","type":"uint256"},{"internalType":"uint256","name":"couponRate","type":"uint256"},{"internalType":"uint8","name":"couponType","type":"uint8"},{"internalType":"uint256","name":"couponFrequency","type":"uint256"},{"internalType":"uint256","name":"issueDate","type":"uint256"},{"internalType":"uint256","name":"maturityDate","type":"uint256"}],"internalType":"struct BondData.Bond","name":"_bond","type":"tuple"},{"internalType":"address","name":"_bondContract","type":"address"}],"name":"issue","outputs":[],"stateMutability":"nonpayable","type":"function"},{"inputs":[{"internalType":"address","name":"","type":"address"},{"internalType":"uint256","name":"","type":"uint256"}],"name":"issuerDeals","outputs":[{"internalType":"string","name":"dealID","type":"string"},{"internalType":"string","name":"prospectusURI","type":"string"},{"internalType":"address","name":"issuerAddress","type":"address"},{"internalType":"uint256","name":"debtAmount","type":"uint256"},{"internalType":"uint256","name":"denomination","type":"uint256"},{"internalType":"uint256","name":"couponRate","type":"uint256"},{"internalType":"uint256","name":"couponFrequency","type":"uint256"},{"internalType":"uint256","name":"maturityDate","type":"uint256"},{"internalType":"uint256","name":"index","type":"uint256"},{"internalType":"address","name":"currency","type":"address"},{"internalType":"uint8","name":"couponType","type":"uint8"},{"internalType":"enum BondData.DealStatus","name":"status","type":"uint8"}],"stateMutability":"view","type":"function"},{"inputs":[],"name":"issuersFundContract","outputs":[{"internalType":"address","name":"","type":"address"}],"stateMutability":"view","type":"function"},{"inputs":[{"internalType":"string","name":"_dealID","type":"string"},{"internalType":"address","name":"_bondContract","type":"address"}],"name":"redeem","outputs":[],"stateMutability":"nonpayable","type":"function"},{"inputs":[{"internalType":"string","name":"_dealID","type":"string"},{"internalType":"uint256","name":"_amount","type":"uint256"}],"name":"registerForDeal","outputs":[],"stateMutability":"nonpayable","type":"function"},{"inputs":[{"internalType":"string","name":"_dealID","type":"string"}],"name":"rejectDeal","outputs":[],"stateMutability":"nonpayable","type":"function"},{"inputs":[],"name":"rolesContract","outputs":[{"internalType":"address","name":"","type":"address"}],"stateMutability":"view","type":"function"},{"inputs":[{"internalType":"uint256","name":"_benchmark","type":"uint256"}],"name":"setBenchmark","outputs":[],"stateMutability":"nonpayable","type":"function"},{"inputs":[{"internalType":"string","name":"_dealID","type":"string"},{"internalType":"address","name":"_bondContractAddress","type":"address"}],"name":"setBondContractAddress","outputs":[],"stateMutability":"nonpayable","type":"function"},{"inputs":[{"internalType":"uint256","name":"_newBenchmark","type":"uint256"},{"internalType":"address","name":"_swapContract","type":"address"}],"name":"setIRSBenchmark","outputs":[],"stateMutability":"nonpayable","type":"function"},{"inputs":[{"internalType":"address","name":"_fixedPayerContract","type":"address"},{"internalType":"address","name":"_floatingPayerContract","type":"address"},{"internalType":"address","name":"_irsContractAddress","type":"address"},{"components":[{"internalType":"address","name":"fixedInterestPayer","type":"address"},{"internalType":"address","name":"floatingInterestPayer","type":"address"},{"internalType":"uint8","name":"ratesDecimals","type":"uint8"},{"internalType":"uint8","name":"status","type":"uint8"},{"internalType":"uint256","name":"swapRate","type":"uint256"},{"internalType":"uint256","name":"spread","type":"uint256"},{"internalType":"address","name":"assetContract","type":"address"},{"internalType":"uint256","name":"notionalAmount","type":"uint256"},{"internalType":"uint256","name":"paymentFrequency","type":"uint256"},{"internalType":"uint256","name":"startingDate","type":"uint256"},{"internalType":"uint256","name":"maturityDate","type":"uint256"},{"internalType":"uint256","name":"benchmark","type":"uint256"}],"internalType":"struct IRSTypes.IRS","name":"_irs","type":"tuple"}],"name":"setIRSContractAddress","outputs":[],"stateMutability":"nonpayable","type":"function"},{"inputs":[{"internalType":"address","name":"_issuerFundContract","type":"address"}],"name":"setIssuerFundContract","outputs":[],"stateMutability":"nonpayable","type":"function"},{"inputs":[{"internalType":"address","name":"_toposManager","type":"address"}],"name":"setManager","outputs":[],"stateMutability":"nonpayable","type":"function"},{"inputs":[{"internalType":"string","name":"_dealID","type":"string"},{"components":[{"internalType":"string","name":"dealID","type":"string"},{"internalType":"string","name":"prospectusURI","type":"string"},{"internalType":"address","name":"issuerAddress","type":"address"},{"internalType":"uint256","name":"debtAmount","type":"uint256"},{"internalType":"uint256","name":"denomination","type":"uint256"},{"internalType":"uint256","name":"couponRate","type":"uint256"},{"internalType":"uint256","name":"couponFrequency","type":"uint256"},{"internalType":"uint256","name":"maturityDate","type":"uint256"},{"internalType":"uint256","name":"index","type":"uint256"},{"internalType":"address","name":"currency","type":"address"},{"internalType":"uint8","name":"couponType","type":"uint8"},{"internalType":"enum BondData.DealStatus","name":"status","type":"uint8"}],"internalType":"struct BondData.Deal","name":"_deal","type":"tuple"}],"name":"submitDeal","outputs":[],"stateMutability":"nonpayable","type":"function"},{"inputs":[{"internalType":"address","name":"_swapContract","type":"address"}],"name":"swapIRS","outputs":[],"stateMutability":"nonpayable","type":"function"},{"inputs":[],"name":"toposManager","outputs":[{"internalType":"address","name":"","type":"address"}],"stateMutability":"view","type":"function"},{"inputs":[{"internalType":"string","name":"","type":"string"}],"name":"totalAmountInvestedForDeal","outputs":[{"internalType":"uint256","name":"","type":"uint256"}],"stateMutability":"view","type":"function"},{"inputs":[{"internalType":"string","name":"_dealID","type":"string"}],"name":"withdrawIssuerFund","outputs":[],"stateMutability":"nonpayable","type":"function"}],"evm":{"bytecode":{"linkReferences":{},"object":"60806040523480156200001157600080fd5b506040516200472d3803806200472d8339810160408190526200003491620000b8565b600780546001600160a01b03199081166001600160a01b03988916179091556008805482169688169690961790955560098054861694871694909417909355600a8054851692861692909217909155600b80549093169316929092179055600d5562000130565b80516001600160a01b0381168114620000b357600080fd5b919050565b60008060008060008060c08789031215620000d257600080fd5b620000dd876200009b565b9550620000ed602088016200009b565b9450620000fd604088016200009b565b93506200010d606088016200009b565b92506200011d608088016200009b565b915060a087015190509295509295509295565b6145ed80620001406000396000f3fe608060405234801561001057600080fd5b50600436106102c85760003560e01c8063760848d01161017b578063c8d7f62e116100d8578063f3413c4f1161008c578063fe0ab4b311610071578063fe0ab4b3146108f1578063fe3b85b714610925578063ff6689d01461095d57600080fd5b8063f3413c4f146108c9578063fb90e441146108de57600080fd5b8063d0ebdbe7116100bd578063d0ebdbe714610883578063d7c4029c14610896578063e7079180146108a957600080fd5b8063c8d7f62e14610850578063ca53b3911461087057600080fd5b80639f0d8d2a1161012f578063af9080f811610114578063af9080f8146107ea578063b83c7fba146107f3578063c3a2a93a1461080657600080fd5b80639f0d8d2a146107c4578063a0a57dac146107d757600080fd5b80637af4d652116101605780637af4d6521461078b5780637bafe3d01461079e5780637f31ed73146107b157600080fd5b8063760848d01461052157806379a945691461078357600080fd5b80633887bdcf116102295780635e43522e116101dd578063605936ea116101c2578063605936ea146104e857806368a2da51146104fb578063754f399a1461050e57600080fd5b80635e43522e1461049c5780635ed7e2c1146104af57600080fd5b8063499fa18a1161020e578063499fa18a1461042c57806349f5d1d91461045e578063507251cb1461048957600080fd5b80633887bdcf1461040657806348f92ee81461041957600080fd5b80631b59122c11610280578063281ddc8e11610265578063281ddc8e146103c95780632f667910146103de57806336f9c4da146103f157600080fd5b80631b59122c146103a1578063234b153f146103b457600080fd5b80630df8bfda116102b15780630df8bfda146103665780631882c1951461037b57806319662d8e1461038e57600080fd5b8063041e9b89146102cd578063088674e01461033b575b600080fd5b61031b6102db3660046132a3565b60056020908152600092835260409092208151808301840180519281529084019290930191909120915280546001820154600290920154909160ff169083565b604080519384529115156020840152908201526060015b60405180910390f35b60095461034e906001600160a01b031681565b6040516001600160a01b039091168152602001610332565b61037961037436600461333c565b610965565b005b610379610389366004613388565b611045565b61037961039c3660046133da565b611089565b6103796103af36600461344b565b611448565b6103bc611625565b6040516103329190613488565b6103d1611715565b60405161033291906135a9565b61034e6103ec36600461344b565b6117e5565b6103f9611816565b6040516103329190613717565b61037961041436600461376c565b611a38565b610379610427366004613790565b611ac2565b61043f61043a3660046137d2565b611c82565b604080516001600160a01b039093168352602083019190915201610332565b61047161046c366004613817565b611cd7565b6040516103329c9b9a99989796959493929190613843565b6103796104973660046138d5565b611e80565b600a5461034e906001600160a01b031681565b6104da6104bd36600461344b565b805160208183018101805160048252928201919093012091525481565b604051908152602001610332565b6104da6104f6366004613790565b6122d4565b610379610509366004613957565b612300565b61037961051c366004613790565b612354565b61037961052f36600461398a565b6001600160a01b039384166000908152600260209081526040808320958716835294815284822080546001600160a01b031990811695881695909517905560128054600181018255925282517fbb8a6a4669ba250d26cd7a459eca9d215f8307e33aebe50379bc5a3617ec3444600a909302928301805486169188169190911790558201517fbb8a6a4669ba250d26cd7a459eca9d215f8307e33aebe50379bc5a3617ec34458201805495840151606085015192881674ffffffffffffffffffffffffffffffffffffffffff1990971696909617600160a01b60ff978816021760ff60a81b1916600160a81b96909216959095021790935560808101517fbb8a6a4669ba250d26cd7a459eca9d215f8307e33aebe50379bc5a3617ec344684015560a08101517fbb8a6a4669ba250d26cd7a459eca9d215f8307e33aebe50379bc5a3617ec344784015560c08101517fbb8a6a4669ba250d26cd7a459eca9d215f8307e33aebe50379bc5a3617ec344884018054909316941693909317905560e08201517fbb8a6a4669ba250d26cd7a459eca9d215f8307e33aebe50379bc5a3617ec34498201556101008201517fbb8a6a4669ba250d26cd7a459eca9d215f8307e33aebe50379bc5a3617ec344a8201556101208201517fbb8a6a4669ba250d26cd7a459eca9d215f8307e33aebe50379bc5a3617ec344b8201556101408201517fbb8a6a4669ba250d26cd7a459eca9d215f8307e33aebe50379bc5a3617ec344c820155610160909101517fbb8a6a4669ba250d26cd7a459eca9d215f8307e33aebe50379bc5a3617ec344d90910155565b600e546104da565b600b5461034e906001600160a01b031681565b6103796107ac36600461376c565b612508565b60075461034e906001600160a01b031681565b6103796107d2366004613a9c565b61258c565b6104716107e536600461344b565b612652565b6104da600d5481565b61037961080136600461376c565b612678565b600754600854600954600a54600c54604080516001600160a01b0396871681529486166020860152928516928401929092528316606083015291909116608082015260a001610332565b61086361085e366004613790565b612702565b6040516103329190613ac1565b60085461034e906001600160a01b031681565b61037961089136600461376c565b612798565b6103796108a4366004613b0c565b612868565b6108bc6108b736600461344b565b612cb6565b6040516103329190613b58565b6108d1612eb8565b6040516103329190613b6b565b600c5461034e906001600160a01b031681565b61034e6108ff36600461344b565b80516020818301810180516001825292820191909301209152546001600160a01b031681565b61034e610933366004613c73565b6001600160a01b039182166000908152600260209081526040808320938516835292905220541690565b600d546104da565b6009546040517fb9209e330000000000000000000000000000000000000000000000000000000081523360048201819052916001600160a01b03169063b9209e3390602401602060405180830381865afa1580156109c7573d6000803e3d6000fd5b505050506040513d601f19601f820116820180604052508101906109eb9190613ca1565b610a3c5760405162461bcd60e51b815260206004820152601460248201527f4143434f554e545f4e4f545f414150524f56454400000000000000000000000060448201526064015b60405180910390fd5b600260008585604051610a50929190613cc3565b9081526040519081900360200190206009015460ff600160a81b909104166005811115610a7f57610a7f61360b565b14610aa1578383604051632dc5942160e21b8152600401610a33929190613cfc565b60008484604051610ab3929190613cc3565b90815260200160405180910390206004015460008585604051610ad7929190613cc3565b90815260200160405180910390206004015483610af49190613d26565b610afe9190613d3d565b15610b38576040517f3728b83d00000000000000000000000000000000000000000000000000000000815260048101839052602401610a33565b8115801590610b95575060008484604051610b54929190613cc3565b90815260200160405180910390206003015460048585604051610b78929190613cc3565b90815260200160405180910390205483610b929190613d5f565b11155b610be15760405162461bcd60e51b815260206004820152600660248201527f616d6f756e7400000000000000000000000000000000000000000000000000006044820152606401610a33565b8160048585604051610bf4929190613cc3565b908152602001604051809103902054610c0d9190613d5f565b60048585604051610c1f929190613cc3565b9081526040805160209281900383018120939093553360009081526005909252902090610c4f9086908690613cc3565b9081526040519081900360200190206001015460ff1615610da45733600090815260056020526040908190209051839190610c8d9087908790613cc3565b90815260405190819003602001902054610ca79190613d5f565b60038585604051610cb9929190613cc3565b90815260408051918290036020908101832033600090815260059092529190209091610ce89088908890613cc3565b90815260200160405180910390206002015481548110610d0a57610d0a613d72565b9060005260206000209060020201600101819055508160056000336001600160a01b03166001600160a01b031681526020019081526020016000208585604051610d55929190613cc3565b90815260405190819003602001902054610d6f9190613d5f565b33600090815260056020526040908190209051610d8f9087908790613cc3565b90815260405190819003602001902055610ea5565b604051806060016040528083815260200160011515815260200160038686604051610dd0929190613cc3565b90815260408051602092819003830190205490925233600090815260059091528190209051610e029087908790613cc3565b9081526040805160209281900383018120845181559284015160018401805460ff1916911515919091179055920151600290910155600390610e479086908690613cc3565b90815260408051602092819003830181208183019092523381528281018581528254600180820185556000948552949093209151600290930290910180546001600160a01b0319166001600160a01b03909316929092178255519101555b600c546040517f925b7cb60000000000000000000000000000000000000000000000000000000081526001600160a01b039091169063925b7cb690610ef290879087908790600401613d88565b600060405180830381600087803b158015610f0c57600080fd5b505af1158015610f20573d6000803e3d6000fd5b5050505060008484604051610f36929190613cc3565b90815260405190819003602001902060090154600c546001600160a01b03918216916323b872dd91339116610f7386670de0b6b3a7640000613d26565b6040517fffffffff0000000000000000000000000000000000000000000000000000000060e086901b1681526001600160a01b03938416600482015292909116602483015260448201526064016020604051808303816000875af1158015610fdf573d6000803e3d6000fd5b505050506040513d601f19601f820116820180604052508101906110039190613ca1565b507f0bdaf52b4de514796607307fbbcf007ee6d59e81e1be436b67c5a567a2e8d12184843360405161103793929190613dac565b60405180910390a150505050565b806001836040516110569190613dd9565b90815260405190819003602001902080546001600160a01b03929092166001600160a01b03199092169190911790555050565b6008546040517f877b9a670000000000000000000000000000000000000000000000000000000081523360048201526001600160a01b039091169063877b9a6790602401602060405180830381865afa1580156110ea573d6000803e3d6000fd5b505050506040513d601f19601f8201168201806040525081019061110e9190613ca1565b61115a5760405162461bcd60e51b815260206004820152600a60248201527f6e6f7420697373756572000000000000000000000000000000000000000000006044820152606401610a33565b61116a606082016040830161376c565b6001600160a01b0316336001600160a01b0316146111b45760405162461bcd60e51b81526020600482015260076024820152666164647265737360c81b6044820152606401610a33565b60008084846040516111c7929190613cc3565b9081526040519081900360200190206009015460ff600160a81b9091041660058111156111f6576111f661360b565b1461122c5760405162461bcd60e51b815260206004820152600660248201526573746174757360d01b6044820152606401610a33565b806000848460405161123f929190613cc3565b9081526040519081900360200190206112588282614001565b90505060016000848460405161126f929190613cc3565b908152604051908190036020019020600901805460ff60a81b1916600160a81b8360058111156112a1576112a161360b565b02179055506010546040516000906112bc9086908690613cc3565b9081526020016040518091039020600801819055506010600084846040516112e5929190613cc3565b908152604051602091819003820190208254600181018455600093845291909220600a9091020180611317838261413f565b5060018181019061132a9084018261413f565b5060028281015490820180546001600160a01b039283166001600160a01b0319918216179091556003808501549084015560048085015490840155600580850154818501556006808601549085015560078086015490850155600880860154908501556009808601805491860180549290951693821684178555805474ffffffffffffffffffffffffffffffffffffffffff19909216909317600160a01b9182900460ff908116909202178085559254600160a81b90819004909116939260ff60a81b19169184908111156114015761140161360b565b021790555050507febc5645d06a6c6900ffbabb37c6fc84326bd870990f736254f05abb3287ffd4183838360405161143b9392919061426d565b60405180910390a1505050565b6000816040516114589190613dd9565b90815260405190819003602001902060020154336001600160a01b03909116148061148d57506007546001600160a01b031633145b6114c35760405162461bcd60e51b81526020600482015260076024820152666164647265737360c81b6044820152606401610a33565b60006001600160a01b03166000826040516114de9190613dd9565b908152604051908190036020019020600901546001600160a01b0316036115475760405162461bcd60e51b815260206004820152600560248201527f746f6b656e0000000000000000000000000000000000000000000000000000006044820152606401610a33565b600c546040516001600160a01b039091169063e04cd97f90839060009061156f908390613dd9565b908152604051908190036020018120600201546001600160a01b03169060009061159a908790613dd9565b908152604051908190036020018120600901547fffffffff0000000000000000000000000000000000000000000000000000000060e086901b1682526115f09392916001600160a01b039091169060040161437f565b600060405180830381600087803b15801561160a57600080fd5b505af115801561161e573d6000803e3d6000fd5b5050505050565b60606012805480602002602001604051908101604052809291908181526020016000905b8282101561170c5760008481526020908190206040805161018081018252600a860290920180546001600160a01b0390811684526001808301548083168688015260ff600160a01b8204811695870195909552600160a81b9004909316606085015260028201546080850152600382015460a085015260048201541660c0840152600581015460e0840152600681015461010084015260078101546101208401526008810154610140840152600901546101608301529083529092019101611649565b50505050905090565b60606011805480602002602001604051908101604052809291908181526020016000905b8282101561170c57838290600052602060002001805461175890613e3c565b80601f016020809104026020016040519081016040528092919081815260200182805461178490613e3c565b80156117d15780601f106117a6576101008083540402835291602001916117d1565b820191906000526020600020905b8154815290600101906020018083116117b457829003601f168201915b505050505081526020019060010190611739565b60006001826040516117f79190613dd9565b908152604051908190036020019020546001600160a01b031692915050565b60606010805480602002602001604051908101604052809291908181526020016000905b8282101561170c57838290600052602060002090600a02016040518061018001604052908160008201805461186e90613e3c565b80601f016020809104026020016040519081016040528092919081815260200182805461189a90613e3c565b80156118e75780601f106118bc576101008083540402835291602001916118e7565b820191906000526020600020905b8154815290600101906020018083116118ca57829003601f168201915b5050505050815260200160018201805461190090613e3c565b80601f016020809104026020016040519081016040528092919081815260200182805461192c90613e3c565b80156119795780601f1061194e57610100808354040283529160200191611979565b820191906000526020600020905b81548152906001019060200180831161195c57829003601f168201915b505050918352505060028201546001600160a01b03908116602083015260038301546040830152600483015460608301526005808401546080840152600684015460a0840152600784015460c0840152600884015460e0840152600984015491821661010084015260ff600160a01b8304811661012085015261014090930192600160a81b90920490911690811115611a1457611a1461360b565b6005811115611a2557611a2561360b565b815250508152602001906001019061183a565b6007546001600160a01b03163314611a875760405162461bcd60e51b815260206004820152601260248201527127a7262cafaa27a827a9afa6a0a720a3a2a960711b6044820152606401610a33565b806001600160a01b0316638119c0656040518163ffffffff1660e01b8152600401600060405180830381600087803b15801561160a57600080fd5b6007546001600160a01b03163314611b115760405162461bcd60e51b815260206004820152601260248201527127a7262cafaa27a827a9afa6a0a720a3a2a960711b6044820152606401610a33565b600160008383604051611b25929190613cc3565b9081526040519081900360200190206009015460ff600160a81b909104166005811115611b5457611b5461360b565b14611b8a5760405162461bcd60e51b815260206004820152600660248201526573746174757360d01b6044820152606401610a33565b600260008383604051611b9e929190613cc3565b908152604051908190036020019020600901805460ff60a81b1916600160a81b836005811115611bd057611bd061360b565b02179055506002601060008484604051611beb929190613cc3565b90815260200160405180910390206008015481548110611c0d57611c0d613d72565b600091825260209091206009600a9092020101805460ff60a81b1916600160a81b836005811115611c4057611c4061360b565b02179055507f039501081328ffe3eb02459ad6f6e90b69e23ba1422b574ee84c1f52b2fc03108282604051611c76929190613cfc565b60405180910390a15050565b81516020818401810180516003825292820191850191909120919052805482908110611cad57600080fd5b6000918252602090912060029091020180546001909101546001600160a01b039091169250905082565b60066020528160005260406000208181548110611cf357600080fd5b90600052602060002090600a020160009150915050806000018054611d1790613e3c565b80601f0160208091040260200160405190810160405280929190818152602001828054611d4390613e3c565b8015611d905780601f10611d6557610100808354040283529160200191611d90565b820191906000526020600020905b815481529060010190602001808311611d7357829003601f168201915b505050505090806001018054611da590613e3c565b80601f0160208091040260200160405190810160405280929190818152602001828054611dd190613e3c565b8015611e1e5780601f10611df357610100808354040283529160200191611e1e565b820191906000526020600020905b815481529060010190602001808311611e0157829003601f168201915b50505060028401546003850154600486015460058701546006880154600789015460088a01546009909a015498996001600160a01b0396871699959850939650919490939192919081169060ff600160a01b8204811691600160a81b9004168c565b6007546001600160a01b03163314611ecf5760405162461bcd60e51b815260206004820152601260248201527127a7262cafaa27a827a9afa6a0a720a3a2a960711b6044820152606401610a33565b600260008585604051611ee3929190613cc3565b9081526040519081900360200190206009015460ff600160a81b909104166005811115611f1257611f1261360b565b14611f34578383604051632dc5942160e21b8152600401610a33929190613cfc565b8060018585604051611f47929190613cc3565b908152602001604051809103902060006101000a8154816001600160a01b0302191690836001600160a01b03160217905550600460008585604051611f8d929190613cc3565b908152604051908190036020019020600901805460ff60a81b1916600160a81b836005811115611fbf57611fbf61360b565b02179055506004601060008686604051611fda929190613cc3565b90815260200160405180910390206008015481548110611ffc57611ffc613d72565b600091825260209091206009600a9092020101805460ff60a81b1916600160a81b83600581111561202f5761202f61360b565b021790555060066000808686604051612049929190613cc3565b9081526040805160209281900383019020600201546001600160a01b03168352908201929092528101600090812091516120869087908790613cc3565b908152604051602091819003820190208254600181018455600093845291909220600a90910201806120b8838261413f565b506001818101906120cb9084018261413f565b5060028281015490820180546001600160a01b039283166001600160a01b0319918216179091556003808501549084015560048085015490840155600580850154818501556006808601549085015560078086015490850155600880860154908501556009808601805491860180549290951693821684178555805474ffffffffffffffffffffffffffffffffffffffffff19909216909317600160a01b9182900460ff908116909202178085559254600160a81b90819004909116939260ff60a81b19169184908111156121a2576121a261360b565b021790555050601180546001810182556000919091527f31ecc21a745e3968a04e9570e4425bc18fa8019c68028196b546d1669c200c680190506121e7848683613ec1565b506040517fd76805aa0000000000000000000000000000000000000000000000000000000081526001600160a01b0382169063d76805aa9061222d9085906004016143b2565b600060405180830381600087803b15801561224757600080fd5b505af115801561225b573d6000803e3d6000fd5b5050600f8054600181018255600091909152849250600b027f8d1108e10bcb7c27dddfc02ed9d693a074039d026cf4ea4240b40f7d581ac8020190506122a182826144b6565b50507f44b55c2d9270546faf6ff2f0acac078011883b82782d9b08de2d3af4543c2b188484604051611037929190613cfc565b6000600483836040516122e8929190613cc3565b90815260200160405180910390205490505b92915050565b6007546001600160a01b0316331461234f5760405162461bcd60e51b815260206004820152601260248201527127a7262cafaa27a827a9afa6a0a720a3a2a960711b6044820152606401610a33565b600e55565b6007546001600160a01b031633146123a35760405162461bcd60e51b815260206004820152601260248201527127a7262cafaa27a827a9afa6a0a720a3a2a960711b6044820152606401610a33565b6001600083836040516123b7929190613cc3565b9081526040519081900360200190206009015460ff600160a81b9091041660058111156123e6576123e661360b565b1461241c5760405162461bcd60e51b815260206004820152600660248201526573746174757360d01b6044820152606401610a33565b600360008383604051612430929190613cc3565b908152604051908190036020019020600901805460ff60a81b1916600160a81b8360058111156124625761246261360b565b0217905550600360106000848460405161247d929190613cc3565b9081526020016040518091039020600801548154811061249f5761249f613d72565b600091825260209091206009600a9092020101805460ff60a81b1916600160a81b8360058111156124d2576124d261360b565b02179055507f735ccdd611541d36c82a3622baab7f58b8a0f5be664555b0d9c95ddde16096d38282604051611c76929190613cfc565b6007546001600160a01b031633146125575760405162461bcd60e51b815260206004820152601260248201527127a7262cafaa27a827a9afa6a0a720a3a2a960711b6044820152606401610a33565b6001600160a01b03811661256a57600080fd5b600c80546001600160a01b0319166001600160a01b0392909216919091179055565b6007546001600160a01b031633146125db5760405162461bcd60e51b815260206004820152601260248201527127a7262cafaa27a827a9afa6a0a720a3a2a960711b6044820152606401610a33565b6040517f68a2da51000000000000000000000000000000000000000000000000000000008152600481018390526001600160a01b038216906368a2da5190602401600060405180830381600087803b15801561263657600080fd5b505af115801561264a573d6000803e3d6000fd5b505050505050565b8051602081830181018051600082529282019190930120915280548190611d1790613e3c565b6007546001600160a01b031633146126c75760405162461bcd60e51b815260206004820152601260248201527127a7262cafaa27a827a9afa6a0a720a3a2a960711b6044820152606401610a33565b806001600160a01b031663442447ca6040518163ffffffff1660e01b8152600401600060405180830381600087803b15801561160a57600080fd5b606060038383604051612716929190613cc3565b9081526020016040518091039020805480602002602001604051908101604052809291908181526020016000905b8282101561278c576000848152602090819020604080518082019091526002850290910180546001600160a01b03168252600190810154828401529083529092019101612744565b50505050905092915050565b6007546001600160a01b031633146127e75760405162461bcd60e51b815260206004820152601260248201527127a7262cafaa27a827a9afa6a0a720a3a2a960711b6044820152606401610a33565b600854604080517fcfde18900000000000000000000000000000000000000000000000000000000081526004810191909152600760448201527f4d414e414745520000000000000000000000000000000000000000000000000060648201526001600160a01b0383811660248301529091169063cfde1890906084016115f0565b6007546001600160a01b031633146128b75760405162461bcd60e51b815260206004820152601260248201527127a7262cafaa27a827a9afa6a0a720a3a2a960711b6044820152606401610a33565b6004600084846040516128cb929190613cc3565b9081526040519081900360200190206009015460ff600160a81b9091041660058111156128fa576128fa61360b565b1461291c578282604051632dc5942160e21b8152600401610a33929190613cfc565b600560008484604051612930929190613cc3565b908152604051908190036020019020600901805460ff60a81b1916600160a81b8360058111156129625761296261360b565b0217905550600560106000858560405161297d929190613cc3565b9081526020016040518091039020600801548154811061299f5761299f613d72565b600091825260209091206009600a9092020101805460ff60a81b1916600160a81b8360058111156129d2576129d261360b565b02179055506005600660008086866040516129ee929190613cc3565b9081526040805160209281900383019020600201546001600160a01b0316835290820192909252810160009081209151612a2b9087908790613cc3565b90815260200160405180910390206008015481548110612a4d57612a4d613d72565b600091825260209091206009600a9092020101805460ff60a81b1916600160a81b836005811115612a8057612a8061360b565b0217905550806001600160a01b031663be040fb06040518163ffffffff1660e01b8152600401600060405180830381600087803b158015612ac057600080fd5b505af1158015612ad4573d6000803e3d6000fd5b5050505060005b60038484604051612aed929190613cc3565b90815260405190819003602001902054811015612c8457600060038585604051612b18929190613cc3565b90815260200160405180910390208281548110612b3757612b37613d72565b9060005260206000209060020201600101549050600060038686604051612b5f929190613cc3565b90815260200160405180910390208381548110612b7e57612b7e613d72565b60009182526020909120600290910201546001600160a01b031690508115612c6f5760008686604051612bb2929190613cc3565b908152604051908190036020019020600901546001600160a01b031663a9059cbb82612be685670de0b6b3a7640000613d26565b6040517fffffffff0000000000000000000000000000000000000000000000000000000060e085901b1681526001600160a01b03909216600483015260248201526044016020604051808303816000875af1158015612c49573d6000803e3d6000fd5b505050506040513d601f19601f82011682018060405250810190612c6d9190613ca1565b505b50508080612c7c9061459e565b915050612adb565b507fdfdf42ff0d0eb3e6ec5b40d8cf21fb2f7102b67e5e2d56ab36e817f807213c5b838360405161143b929190613cfc565b612cbe613128565b600082604051612cce9190613dd9565b908152602001604051809103902060405180610180016040529081600082018054612cf890613e3c565b80601f0160208091040260200160405190810160405280929190818152602001828054612d2490613e3c565b8015612d715780601f10612d4657610100808354040283529160200191612d71565b820191906000526020600020905b815481529060010190602001808311612d5457829003601f168201915b50505050508152602001600182018054612d8a90613e3c565b80601f0160208091040260200160405190810160405280929190818152602001828054612db690613e3c565b8015612e035780601f10612dd857610100808354040283529160200191612e03565b820191906000526020600020905b815481529060010190602001808311612de657829003601f168201915b505050918352505060028201546001600160a01b03908116602083015260038301546040830152600483015460608301526005808401546080840152600684015460a0840152600784015460c0840152600884015460e0840152600984015491821661010084015260ff600160a01b8304811661012085015261014090930192600160a81b90920490911690811115612e9e57612e9e61360b565b6005811115612eaf57612eaf61360b565b90525092915050565b6060600f805480602002602001604051908101604052809291908181526020016000905b8282101561170c57838290600052602060002090600b020160405180610160016040529081600082018054612f1090613e3c565b80601f0160208091040260200160405190810160405280929190818152602001828054612f3c90613e3c565b8015612f895780601f10612f5e57610100808354040283529160200191612f89565b820191906000526020600020905b815481529060010190602001808311612f6c57829003601f168201915b50505050508152602001600182018054612fa290613e3c565b80601f0160208091040260200160405190810160405280929190818152602001828054612fce90613e3c565b801561301b5780601f10612ff05761010080835404028352916020019161301b565b820191906000526020600020905b815481529060010190602001808311612ffe57829003601f168201915b5050505050815260200160028201805461303490613e3c565b80601f016020809104026020016040519081016040528092919081815260200182805461306090613e3c565b80156130ad5780601f10613082576101008083540402835291602001916130ad565b820191906000526020600020905b81548152906001019060200180831161309057829003601f168201915b505050918352505060038201546001600160a01b0316602080830191909152600483015460408301526005830154606083015260068301546080830152600783015460ff1660a0830152600883015460c0830152600983015460e0830152600a90920154610100909101529082526001929092019101612edc565b604051806101800160405280606081526020016060815260200160006001600160a01b0316815260200160008152602001600081526020016000815260200160008152602001600081526020016000815260200160006001600160a01b03168152602001600060ff168152602001600060058111156131a9576131a961360b565b905290565b6001600160a01b03811681146131c357600080fd5b50565b80356131d1816131ae565b919050565b634e487b7160e01b600052604160045260246000fd5b604051610180810167ffffffffffffffff81118282101715613210576132106131d6565b60405290565b600082601f83011261322757600080fd5b813567ffffffffffffffff80821115613242576132426131d6565b604051601f8301601f19908116603f0116810190828211818310171561326a5761326a6131d6565b8160405283815286602085880101111561328357600080fd5b836020870160208301376000602085830101528094505050505092915050565b600080604083850312156132b657600080fd5b82356132c1816131ae565b9150602083013567ffffffffffffffff8111156132dd57600080fd5b6132e985828601613216565b9150509250929050565b60008083601f84011261330557600080fd5b50813567ffffffffffffffff81111561331d57600080fd5b60208301915083602082850101111561333557600080fd5b9250929050565b60008060006040848603121561335157600080fd5b833567ffffffffffffffff81111561336857600080fd5b613374868287016132f3565b909790965060209590950135949350505050565b6000806040838503121561339b57600080fd5b823567ffffffffffffffff8111156133b257600080fd5b6133be85828601613216565b92505060208301356133cf816131ae565b809150509250929050565b6000806000604084860312156133ef57600080fd5b833567ffffffffffffffff8082111561340757600080fd5b613413878388016132f3565b9095509350602086013591508082111561342c57600080fd5b508401610180818703121561344057600080fd5b809150509250925092565b60006020828403121561345d57600080fd5b813567ffffffffffffffff81111561347457600080fd5b61348084828501613216565b949350505050565b602080825282518282018190526000919060409081850190868401855b8281101561354c57815180516001600160a01b039081168652878201518116888701528682015160ff90811688880152606080840151909116908701526080808301519087015260a0808301519087015260c0808301519091169086015260e08082015190860152610100808201519086015261012080820151908601526101408082015190860152610160908101519085015261018090930192908501906001016134a5565b5091979650505050505050565b60005b8381101561357457818101518382015260200161355c565b50506000910152565b60008151808452613595816020860160208601613559565b601f01601f19169290920160200192915050565b6000602080830181845280855180835260408601915060408160051b870101925083870160005b828110156135fe57603f198886030184526135ec85835161357d565b945092850192908501906001016135d0565b5092979650505050505050565b634e487b7160e01b600052602160045260246000fd5b6006811061363f57634e487b7160e01b600052602160045260246000fd5b9052565b600061018082518185526136598286018261357d565b91505060208301518482036020860152613673828261357d565b915050604083015161369060408601826001600160a01b03169052565b50606083015160608501526080830151608085015260a083015160a085015260c083015160c085015260e083015160e0850152610100808401518186015250610120808401516136ea828701826001600160a01b03169052565b50506101408381015160ff16908501526101608084015161370d82870182613621565b5090949350505050565b6000602080830181845280855180835260408601915060408160051b870101925083870160005b828110156135fe57603f1988860301845261375a858351613643565b9450928501929085019060010161373e565b60006020828403121561377e57600080fd5b8135613789816131ae565b9392505050565b600080602083850312156137a357600080fd5b823567ffffffffffffffff8111156137ba57600080fd5b6137c6858286016132f3565b90969095509350505050565b600080604083850312156137e557600080fd5b823567ffffffffffffffff8111156137fc57600080fd5b61380885828601613216565b95602094909401359450505050565b6000806040838503121561382a57600080fd5b8235613835816131ae565b946020939093013593505050565b6101808152600061385861018083018f61357d565b828103602084015261386a818f61357d565b9150506001600160a01b03808d1660408401528b60608401528a60808401528960a08401528860c08401528760e0840152866101008401528086166101208401525060ff84166101408301526138c4610160830184613621565b9d9c50505050505050505050505050565b600080600080606085870312156138eb57600080fd5b843567ffffffffffffffff8082111561390357600080fd5b61390f888389016132f3565b9096509450602087013591508082111561392857600080fd5b508501610160818803121561393c57600080fd5b9150604085013561394c816131ae565b939692955090935050565b60006020828403121561396957600080fd5b5035919050565b60ff811681146131c357600080fd5b80356131d181613970565b6000806000808486036101e08112156139a257600080fd5b85356139ad816131ae565b945060208601356139bd816131ae565b935060408601356139cd816131ae565b9250610180605f1982018113156139e357600080fd5b6139eb6131ec565b91506139f9606088016131c6565b8252613a07608088016131c6565b6020830152613a1860a0880161397f565b6040830152613a2960c0880161397f565b606083015260e087013560808301526101008088013560a0840152610120613a52818a016131c6565b60c0850152610140808a013560e0860152610160808b013584870152848b0135838701526101a08b0135828701526101c08b01358187015250505050508091505092959194509250565b60008060408385031215613aaf57600080fd5b8235915060208301356133cf816131ae565b602080825282518282018190526000919060409081850190868401855b8281101561354c57815180516001600160a01b03168552860151868501529284019290850190600101613ade565b600080600060408486031215613b2157600080fd5b833567ffffffffffffffff811115613b3857600080fd5b613b44868287016132f3565b9094509250506020840135613440816131ae565b6020815260006137896020830184613643565b60006020808301818452808551808352604092508286019150828160051b87010184880160005b83811015613c6557603f1989840301855281516101608151818652613bb98287018261357d565b915050888201518582038a870152613bd1828261357d565b9150508782015185820389870152613be9828261357d565b915050606080830151613c06828801826001600160a01b03169052565b50506080828101519086015260a0808301519086015260c0808301519086015260e08083015160ff1690860152610100808301519086015261012080830151908601526101409182015191909401529386019390860190600101613b92565b509098975050505050505050565b60008060408385031215613c8657600080fd5b8235613c91816131ae565b915060208301356133cf816131ae565b600060208284031215613cb357600080fd5b8151801515811461378957600080fd5b8183823760009101908152919050565b81835281816020850137506000828201602090810191909152601f909101601f19169091010190565b602081526000613480602083018486613cd3565b634e487b7160e01b600052601160045260246000fd5b80820281158282048414176122fa576122fa613d10565b600082613d5a57634e487b7160e01b600052601260045260246000fd5b500690565b808201808211156122fa576122fa613d10565b634e487b7160e01b600052603260045260246000fd5b604081526000613d9c604083018587613cd3565b9050826020830152949350505050565b604081526000613dc0604083018587613cd3565b90506001600160a01b0383166020830152949350505050565b60008251613deb818460208701613559565b9190910192915050565b6000808335601e19843603018112613e0c57600080fd5b83018035915067ffffffffffffffff821115613e2757600080fd5b60200191503681900382131561333557600080fd5b600181811c90821680613e5057607f821691505b602082108103613e7057634e487b7160e01b600052602260045260246000fd5b50919050565b601f821115613ebc57600081815260208120601f850160051c81016020861015613e9d5750805b601f850160051c820191505b8181101561264a57828155600101613ea9565b505050565b67ffffffffffffffff831115613ed957613ed96131d6565b613eed83613ee78354613e3c565b83613e76565b6000601f841160018114613f215760008515613f095750838201355b600019600387901b1c1916600186901b17835561161e565b600083815260209020601f19861690835b82811015613f525786850135825560209485019460019092019101613f32565b5086821015613f6f5760001960f88860031b161c19848701351681555b505060018560011b0183555050505050565b600081356122fa816131ae565b600081356122fa81613970565b600681106131c357600080fd5b600081356122fa81613f9b565b60068210613fd357634e487b7160e01b600052602160045260246000fd5b805475ff0000000000000000000000000000000000000000008360a81b1660ff60a81b198216178255505050565b61400b8283613df5565b614016818385613ec1565b50506140256020830183613df5565b614033818360018601613ec1565b505061406561404460408401613f81565b600283016001600160a01b0382166001600160a01b03198254161781555050565b606082013560038201556080820135600482015560a0820135600582015560c0820135600682015560e082013560078201556101008201356008820155600981016140d36140b66101208501613f81565b82546001600160a01b0319166001600160a01b0391909116178255565b6141296140e36101408501613f8e565b82547fffffffffffffffffffffff00ffffffffffffffffffffffffffffffffffffffff1660a09190911b74ff000000000000000000000000000000000000000016178255565b613ebc6141396101608501613fa8565b82613fb5565b81810361414a575050565b6141548254613e3c565b67ffffffffffffffff81111561416c5761416c6131d6565b6141808161417a8454613e3c565b84613e76565b6000601f8211600181146141b4576000831561419c5750848201545b600019600385901b1c1916600184901b17845561161e565b600085815260209020601f19841690600086815260209020845b838110156141ee57828601548255600195860195909101906020016141ce565b508583101561420c5781850154600019600388901b60f8161c191681555b5050505050600190811b01905550565b6000808335601e1984360301811261423357600080fd5b830160208101925035905067ffffffffffffffff81111561425357600080fd5b80360382131561333557600080fd5b80356131d181613f9b565b604081526000614281604083018587613cd3565b8281036020840152610180614296858661421c565b8284526142a68385018284613cd3565b925050506142b7602086018661421c565b83830360208501526142ca838284613cd3565b925050506142da604086016131c6565b6001600160a01b038116604084015250606085013560608301526080850135608083015260a085013560a083015260c085013560c083015260e085013560e08301526101008086013581840152506101206143368187016131c6565b6001600160a01b03169083015261014061435186820161397f565b60ff1690830152610160614366868201614262565b61437282850182613621565b5090979650505050505050565b606081526000614392606083018661357d565b6001600160a01b0394851660208401529290931660409091015292915050565b6020815260006143c2838461421c565b6101608060208601526143da61018086018385613cd3565b92506143e9602087018761421c565b9250601f1980878603016040880152614403858584613cd3565b9450614412604089018961421c565b94509150808786030160608801525061442c848483613cd3565b93505061443b606087016131c6565b6001600160a01b03811660808701529150608086013560a086015260a086013560c086015260c086013560e086015261447660e0870161397f565b91506101006144898187018460ff169052565b86013561012086810191909152860135610140808701919091529095013594909301939093525090919050565b6144c08283613df5565b6144cb818385613ec1565b50506144da6020830183613df5565b6144e8818360018601613ec1565b50506144f76040830183613df5565b614505818360028601613ec1565b505061453761451660608401613f81565b600383016001600160a01b0382166001600160a01b03198254161781555050565b6080820135600482015560a0820135600582015560c0820135600682015561457961456460e08401613f8e565b6007830160ff821660ff198254161781555050565b61010082013560088201556101208201356009820155610140820135600a8201555050565b6000600182016145b0576145b0613d10565b506001019056fea2646970667358221220a3aa99cdb84f81223b9b0c7a425c91d9f2d853f7aaa598bd46fe1fa8ff52f90a64736f6c63430008130033","opcodes":"PUSH1 0x80 PUSH1 0x40 MSTORE CALLVALUE DUP1 ISZERO PUSH3 0x11 JUMPI PUSH1 0x0 DUP1 REVERT JUMPDEST POP PUSH1 0x40 MLOAD PUSH3 0x472D CODESIZE SUB DUP1 PUSH3 0x472D DUP4 CODECOPY DUP2 ADD PUSH1 0x40 DUP2 SWAP1 MSTORE PUSH3 0x34 SWAP2 PUSH3 0xB8 JUMP JUMPDEST PUSH1 0x7 DUP1 SLOAD PUSH1 0x1 PUSH1 0x1 PUSH1 0xA0 SHL SUB NOT SWAP1 DUP2 AND PUSH1 0x1 PUSH1 0x1 PUSH1 0xA0 SHL SUB SWAP9 DUP10 AND OR SWAP1 SWAP2 SSTORE PUSH1 0x8 DUP1 SLOAD DUP3 AND SWAP7 DUP9 AND SWAP7 SWAP1 SWAP7 OR SWAP1 SWAP6 SSTORE PUSH1 0x9 DUP1 SLOAD DUP7 AND SWAP5 DUP8 AND SWAP5 SWAP1 SWAP5 OR SWAP1 SWAP4 SSTORE PUSH1 0xA DUP1 SLOAD DUP6 AND SWAP3 DUP7 AND SWAP3 SWAP1 SWAP3 OR SWAP1 SWAP2 SSTORE PUSH1 0xB DUP1 SLOAD SWAP1 SWAP4 AND SWAP4 AND SWAP3 SWAP1 SWAP3 OR SWAP1 SSTORE PUSH1 0xD SSTORE PUSH3 0x130 JUMP JUMPDEST DUP1 MLOAD PUSH1 0x1 PUSH1 0x1 PUSH1 0xA0 SHL SUB DUP2 AND DUP2 EQ PUSH3 0xB3 JUMPI PUSH1 0x0 DUP1 REVERT JUMPDEST SWAP2 SWAP1 POP JUMP JUMPDEST PUSH1 0x0 DUP1 PUSH1 0x0 DUP1 PUSH1 0x0 DUP1 PUSH1 0xC0 DUP8 DUP10 SUB SLT ISZERO PUSH3 0xD2 JUMPI PUSH1 0x0 DUP1 REVERT JUMPDEST PUSH3 0xDD DUP8 PUSH3 0x9B JUMP JUMPDEST SWAP6 POP PUSH3 0xED PUSH1 0x20 DUP9 ADD PUSH3 0x9B JUMP JUMPDEST SWAP5 POP PUSH3 0xFD PUSH1 0x40 DUP9 ADD PUSH3 0x9B JUMP JUMPDEST SWAP4 POP PUSH3 0x10D PUSH1 0x60 DUP9 ADD PUSH3 0x9B JUMP JUMPDEST SWAP3 POP PUSH3 0x11D PUSH1 0x80 DUP9 ADD PUSH3 0x9B JUMP JUMPDEST SWAP2 POP PUSH1 0xA0 DUP8 ADD MLOAD SWAP1 POP SWAP3 SWAP6 POP SWAP3 SWAP6 POP SWAP3 SWAP6 JUMP JUMPDEST PUSH2 0x45ED DUP1 PUSH3 0x140 PUSH1 0x0 CODECOPY PUSH1 0x0 RETURN INVALID PUSH1 0x80 PUSH1 0x40 MSTORE CALLVALUE DUP1 ISZERO PUSH2 0x10 JUMPI PUSH1 0x0 DUP1 REVERT JUMPDEST POP PUSH1 0x4 CALLDATASIZE LT PUSH2 0x2C8 JUMPI PUSH1 0x0 CALLDATALOAD PUSH1 0xE0 SHR DUP1 PUSH4 0x760848D0 GT PUSH2 0x17B JUMPI DUP1 PUSH4 0xC8D7F62E GT PUSH2 0xD8 JUMPI DUP1 PUSH4 0xF3413C4F GT PUSH2 0x8C JUMPI DUP1 PUSH4 0xFE0AB4B3 GT PUSH2 0x71 JUMPI DUP1 PUSH4 0xFE0AB4B3 EQ PUSH2 0x8F1 JUMPI DUP1 PUSH4 0xFE3B85B7 EQ PUSH2 0x925 JUMPI DUP1 PUSH4 0xFF6689D0 EQ PUSH2 0x95D JUMPI PUSH1 0x0 DUP1 REVERT JUMPDEST DUP1 PUSH4 0xF3413C4F EQ PUSH2 0x8C9 JUMPI DUP1 PUSH4 0xFB90E441 EQ PUSH2 0x8DE JUMPI PUSH1 0x0 DUP1 REVERT JUMPDEST DUP1 PUSH4 0xD0EBDBE7 GT PUSH2 0xBD JUMPI DUP1 PUSH4 0xD0EBDBE7 EQ PUSH2 0x883 JUMPI DUP1 PUSH4 0xD7C4029C EQ PUSH2 0x896 JUMPI DUP1 PUSH4 0xE7079180 EQ PUSH2 0x8A9 JUMPI PUSH1 0x0 DUP1 REVERT JUMPDEST DUP1 PUSH4 0xC8D7F62E EQ PUSH2 0x850 JUMPI DUP1 PUSH4 0xCA53B391 EQ PUSH2 0x870 JUMPI PUSH1 0x0 DUP1 REVERT JUMPDEST DUP1 PUSH4 0x9F0D8D2A GT PUSH2 0x12F JUMPI DUP1 PUSH4 0xAF9080F8 GT PUSH2 0x114 JUMPI DUP1 PUSH4 0xAF9080F8 EQ PUSH2 0x7EA JUMPI DUP1 PUSH4 0xB83C7FBA EQ PUSH2 0x7F3 JUMPI DUP1 PUSH4 0xC3A2A93A EQ PUSH2 0x806 JUMPI PUSH1 0x0 DUP1 REVERT JUMPDEST DUP1 PUSH4 0x9F0D8D2A EQ PUSH2 0x7C4 JUMPI DUP1 PUSH4 0xA0A57DAC EQ PUSH2 0x7D7 JUMPI PUSH1 0x0 DUP1 REVERT JUMPDEST DUP1 PUSH4 0x7AF4D652 GT PUSH2 0x160 JUMPI DUP1 PUSH4 0x7AF4D652 EQ PUSH2 0x78B JUMPI DUP1 PUSH4 0x7BAFE3D0 EQ PUSH2 0x79E JUMPI DUP1 PUSH4 0x7F31ED73 EQ PUSH2 0x7B1 JUMPI PUSH1 0x0 DUP1 REVERT JUMPDEST DUP1 PUSH4 0x760848D0 EQ PUSH2 0x521 JUMPI DUP1 PUSH4 0x79A94569 EQ PUSH2 0x783 JUMPI PUSH1 0x0 DUP1 REVERT JUMPDEST DUP1 PUSH4 0x3887BDCF GT PUSH2 0x229 JUMPI DUP1 PUSH4 0x5E43522E GT PUSH2 0x1DD JUMPI DUP1 PUSH4 0x605936EA GT PUSH2 0x1C2 JUMPI DUP1 PUSH4 0x605936EA EQ PUSH2 0x4E8 JUMPI DUP1 PUSH4 0x68A2DA51 EQ PUSH2 0x4FB JUMPI DUP1 PUSH4 0x754F399A EQ PUSH2 0x50E JUMPI PUSH1 0x0 DUP1 REVERT JUMPDEST DUP1 PUSH4 0x5E43522E EQ PUSH2 0x49C JUMPI DUP1 PUSH4 0x5ED7E2C1 EQ PUSH2 0x4AF JUMPI PUSH1 0x0 DUP1 REVERT JUMPDEST DUP1 PUSH4 0x499FA18A GT PUSH2 0x20E JUMPI DUP1 PUSH4 0x499FA18A EQ PUSH2 0x42C JUMPI DUP1 PUSH4 0x49F5D1D9 EQ PUSH2 0x45E JUMPI DUP1 PUSH4 0x507251CB EQ PUSH2 0x489 JUMPI PUSH1 0x0 DUP1 REVERT JUMPDEST DUP1 PUSH4 0x3887BDCF EQ PUSH2 0x406 JUMPI DUP1 PUSH4 0x48F92EE8 EQ PUSH2 0x419 JUMPI PUSH1 0x0 DUP1 REVERT JUMPDEST DUP1 PUSH4 0x1B59122C GT PUSH2 0x280 JUMPI DUP1 PUSH4 0x281DDC8E GT PUSH2 0x265 JUMPI DUP1 PUSH4 0x281DDC8E EQ PUSH2 0x3C9 JUMPI DUP1 PUSH4 0x2F667910 EQ PUSH2 0x3DE JUMPI DUP1 PUSH4 0x36F9C4DA EQ PUSH2 0x3F1 JUMPI PUSH1 0x0 DUP1 REVERT JUMPDEST DUP1 PUSH4 0x1B59122C EQ PUSH2 0x3A1 JUMPI DUP1 PUSH4 0x234B153F EQ PUSH2 0x3B4 JUMPI PUSH1 0x0 DUP1 REVERT JUMPDEST DUP1 PUSH4 0xDF8BFDA GT PUSH2 0x2B1 JUMPI DUP1 PUSH4 0xDF8BFDA EQ PUSH2 0x366 JUMPI DUP1 PUSH4 0x1882C195 EQ PUSH2 0x37B JUMPI DUP1 PUSH4 0x19662D8E EQ PUSH2 0x38E JUMPI PUSH1 0x0 DUP1 REVERT JUMPDEST DUP1 PUSH4 0x41E9B89 EQ PUSH2 0x2CD JUMPI DUP1 PUSH4 0x88674E0 EQ PUSH2 0x33B JUMPI JUMPDEST PUSH1 0x0 DUP1 REVERT JUMPDEST PUSH2 0x31B PUSH2 0x2DB CALLDATASIZE PUSH1 0x4 PUSH2 0x32A3 JUMP JUMPDEST PUSH1 0x5 PUSH1 0x20 SWAP1 DUP2 MSTORE PUSH1 0x0 SWAP3 DUP4 MSTORE PUSH1 0x40 SWAP1 SWAP3 KECCAK256 DUP2 MLOAD DUP1 DUP4 ADD DUP5 ADD DUP1 MLOAD SWAP3 DUP2 MSTORE SWAP1 DUP5 ADD SWAP3 SWAP1 SWAP4 ADD SWAP2 SWAP1 SWAP2 KECCAK256 SWAP2 MSTORE DUP1 SLOAD PUSH1 0x1 DUP3 ADD SLOAD PUSH1 0x2 SWAP1 SWAP3 ADD SLOAD SWAP1 SWAP2 PUSH1 0xFF AND SWAP1 DUP4 JUMP JUMPDEST PUSH1 0x40 DUP1 MLOAD SWAP4 DUP5 MSTORE SWAP2 ISZERO ISZERO PUSH1 0x20 DUP5 ADD MSTORE SWAP1 DUP3 ADD MSTORE PUSH1 0x60 ADD JUMPDEST PUSH1 0x40 MLOAD DUP1 SWAP2 SUB SWAP1 RETURN JUMPDEST PUSH1 0x9 SLOAD PUSH2 0x34E SWAP1 PUSH1 0x1 PUSH1 0x1 PUSH1 0xA0 SHL SUB AND DUP2 JUMP JUMPDEST PUSH1 0x40 MLOAD PUSH1 0x1 PUSH1 0x1 PUSH1 0xA0 SHL SUB SWAP1 SWAP2 AND DUP2 MSTORE PUSH1 0x20 ADD PUSH2 0x332 JUMP JUMPDEST PUSH2 0x379 PUSH2 0x374 CALLDATASIZE PUSH1 0x4 PUSH2 0x333C JUMP JUMPDEST PUSH2 0x965 JUMP JUMPDEST STOP JUMPDEST PUSH2 0x379 PUSH2 0x389 CALLDATASIZE PUSH1 0x4 PUSH2 0x3388 JUMP JUMPDEST PUSH2 0x1045 JUMP JUMPDEST PUSH2 0x379 PUSH2 0x39C CALLDATASIZE PUSH1 0x4 PUSH2 0x33DA JUMP JUMPDEST PUSH2 0x1089 JUMP JUMPDEST PUSH2 0x379 PUSH2 0x3AF CALLDATASIZE PUSH1 0x4 PUSH2 0x344B JUMP JUMPDEST PUSH2 0x1448 JUMP JUMPDEST PUSH2 0x3BC PUSH2 0x1625 JUMP JUMPDEST PUSH1 0x40 MLOAD PUSH2 0x332 SWAP2 SWAP1 PUSH2 0x3488 JUMP JUMPDEST PUSH2 0x3D1 PUSH2 0x1715 JUMP JUMPDEST PUSH1 0x40 MLOAD PUSH2 0x332 SWAP2 SWAP1 PUSH2 0x35A9 JUMP JUMPDEST PUSH2 0x34E PUSH2 0x3EC CALLDATASIZE PUSH1 0x4 PUSH2 0x344B JUMP JUMPDEST PUSH2 0x17E5 JUMP JUMPDEST PUSH2 0x3F9 PUSH2 0x1816 JUMP JUMPDEST PUSH1 0x40 MLOAD PUSH2 0x332 SWAP2 SWAP1 PUSH2 0x3717 JUMP JUMPDEST PUSH2 0x379 PUSH2 0x414 CALLDATASIZE PUSH1 0x4 PUSH2 0x376C JUMP JUMPDEST PUSH2 0x1A38 JUMP JUMPDEST PUSH2 0x379 PUSH2 0x427 CALLDATASIZE PUSH1 0x4 PUSH2 0x3790 JUMP JUMPDEST PUSH2 0x1AC2 JUMP JUMPDEST PUSH2 0x43F PUSH2 0x43A CALLDATASIZE PUSH1 0x4 PUSH2 0x37D2 JUMP JUMPDEST PUSH2 0x1C82 JUMP JUMPDEST PUSH1 0x40 DUP1 MLOAD PUSH1 0x1 PUSH1 0x1 PUSH1 0xA0 SHL SUB SWAP1 SWAP4 AND DUP4 MSTORE PUSH1 0x20 DUP4 ADD SWAP2 SWAP1 SWAP2 MSTORE ADD PUSH2 0x332 JUMP JUMPDEST PUSH2 0x471 PUSH2 0x46C CALLDATASIZE PUSH1 0x4 PUSH2 0x3817 JUMP JUMPDEST PUSH2 0x1CD7 JUMP JUMPDEST PUSH1 0x40 MLOAD PUSH2 0x332 SWAP13 SWAP12 SWAP11 SWAP10 SWAP9 SWAP8 SWAP7 SWAP6 SWAP5 SWAP4 SWAP3 SWAP2 SWAP1 PUSH2 0x3843 JUMP JUMPDEST PUSH2 0x379 PUSH2 0x497 CALLDATASIZE PUSH1 0x4 PUSH2 0x38D5 JUMP JUMPDEST PUSH2 0x1E80 JUMP JUMPDEST PUSH1 0xA SLOAD PUSH2 0x34E SWAP1 PUSH1 0x1 PUSH1 0x1 PUSH1 0xA0 SHL SUB AND DUP2 JUMP JUMPDEST PUSH2 0x4DA PUSH2 0x4BD CALLDATASIZE PUSH1 0x4 PUSH2 0x344B JUMP JUMPDEST DUP1 MLOAD PUSH1 0x20 DUP2 DUP4 ADD DUP2 ADD DUP1 MLOAD PUSH1 0x4 DUP3 MSTORE SWAP3 DUP3 ADD SWAP2 SWAP1 SWAP4 ADD KECCAK256 SWAP2 MSTORE SLOAD DUP2 JUMP JUMPDEST PUSH1 0x40 MLOAD SWAP1 DUP2 MSTORE PUSH1 0x20 ADD PUSH2 0x332 JUMP JUMPDEST PUSH2 0x4DA PUSH2 0x4F6 CALLDATASIZE PUSH1 0x4 PUSH2 0x3790 JUMP JUMPDEST PUSH2 0x22D4 JUMP JUMPDEST PUSH2 0x379 PUSH2 0x509 CALLDATASIZE PUSH1 0x4 PUSH2 0x3957 JUMP JUMPDEST PUSH2 0x2300 JUMP JUMPDEST PUSH2 0x379 PUSH2 0x51C CALLDATASIZE PUSH1 0x4 PUSH2 0x3790 JUMP JUMPDEST PUSH2 0x2354 JUMP JUMPDEST PUSH2 0x379 PUSH2 0x52F CALLDATASIZE PUSH1 0x4 PUSH2 0x398A JUMP JUMPDEST PUSH1 0x1 PUSH1 0x1 PUSH1 0xA0 SHL SUB SWAP4 DUP5 AND PUSH1 0x0 SWAP1 DUP2 MSTORE PUSH1 0x2 PUSH1 0x20 SWAP1 DUP2 MSTORE PUSH1 0x40 DUP1 DUP4 KECCAK256 SWAP6 DUP8 AND DUP4 MSTORE SWAP5 DUP2 MSTORE DUP5 DUP3 KECCAK256 DUP1 SLOAD PUSH1 0x1 PUSH1 0x1 PUSH1 0xA0 SHL SUB NOT SWAP1 DUP2 AND SWAP6 DUP9 AND SWAP6 SWAP1 SWAP6 OR SWAP1 SSTORE PUSH1 0x12 DUP1 SLOAD PUSH1 0x1 DUP2 ADD DUP3 SSTORE SWAP3 MSTORE DUP3 MLOAD PUSH32 0xBB8A6A4669BA250D26CD7A459ECA9D215F8307E33AEBE50379BC5A3617EC3444 PUSH1 0xA SWAP1 SWAP4 MUL SWAP3 DUP4 ADD DUP1 SLOAD DUP7 AND SWAP2 DUP9 AND SWAP2 SWAP1 SWAP2 OR SWAP1 SSTORE DUP3 ADD MLOAD PUSH32 0xBB8A6A4669BA250D26CD7A459ECA9D215F8307E33AEBE50379BC5A3617EC3445 DUP3 ADD DUP1 SLOAD SWAP6 DUP5 ADD MLOAD PUSH1 0x60 DUP6 ADD MLOAD SWAP3 DUP9 AND PUSH21 0xFFFFFFFFFFFFFFFFFFFFFFFFFFFFFFFFFFFFFFFFFF NOT SWAP1 SWAP8 AND SWAP7 SWAP1 SWAP7 OR PUSH1 0x1 PUSH1 0xA0 SHL PUSH1 0xFF SWAP8 DUP9 AND MUL OR PUSH1 0xFF PUSH1 0xA8 SHL NOT AND PUSH1 0x1 PUSH1 0xA8 SHL SWAP7 SWAP1 SWAP3 AND SWAP6 SWAP1 SWAP6 MUL OR SWAP1 SWAP4 SSTORE PUSH1 0x80 DUP2 ADD MLOAD PUSH32 0xBB8A6A4669BA250D26CD7A459ECA9D215F8307E33AEBE50379BC5A3617EC3446 DUP5 ADD SSTORE PUSH1 0xA0 DUP2 ADD MLOAD PUSH32 0xBB8A6A4669BA250D26CD7A459ECA9D215F8307E33AEBE50379BC5A3617EC3447 DUP5 ADD SSTORE PUSH1 0xC0 DUP2 ADD MLOAD PUSH32 0xBB8A6A4669BA250D26CD7A459ECA9D215F8307E33AEBE50379BC5A3617EC3448 DUP5 ADD DUP1 SLOAD SWAP1 SWAP4 AND SWAP5 AND SWAP4 SWAP1 SWAP4 OR SWAP1 SSTORE PUSH1 0xE0 DUP3 ADD MLOAD PUSH32 0xBB8A6A4669BA250D26CD7A459ECA9D215F8307E33AEBE50379BC5A3617EC3449 DUP3 ADD SSTORE PUSH2 0x100 DUP3 ADD MLOAD PUSH32 0xBB8A6A4669BA250D26CD7A459ECA9D215F8307E33AEBE50379BC5A3617EC344A DUP3 ADD SSTORE PUSH2 0x120 DUP3 ADD MLOAD PUSH32 0xBB8A6A4669BA250D26CD7A459ECA9D215F8307E33AEBE50379BC5A3617EC344B DUP3 ADD SSTORE PUSH2 0x140 DUP3 ADD MLOAD PUSH32 0xBB8A6A4669BA250D26CD7A459ECA9D215F8307E33AEBE50379BC5A3617EC344C DUP3 ADD SSTORE PUSH2 0x160 SWAP1 SWAP2 ADD MLOAD PUSH32 0xBB8A6A4669BA250D26CD7A459ECA9D215F8307E33AEBE50379BC5A3617EC344D SWAP1 SWAP2 ADD SSTORE JUMP JUMPDEST PUSH1 0xE SLOAD PUSH2 0x4DA JUMP JUMPDEST PUSH1 0xB SLOAD PUSH2 0x34E SWAP1 PUSH1 0x1 PUSH1 0x1 PUSH1 0xA0 SHL SUB AND DUP2 JUMP JUMPDEST PUSH2 0x379 PUSH2 0x7AC CALLDATASIZE PUSH1 0x4 PUSH2 0x376C JUMP JUMPDEST PUSH2 0x2508 JUMP JUMPDEST PUSH1 0x7 SLOAD PUSH2 0x34E SWAP1 PUSH1 0x1 PUSH1 0x1 PUSH1 0xA0 SHL SUB AND DUP2 JUMP JUMPDEST PUSH2 0x379 PUSH2 0x7D2 CALLDATASIZE PUSH1 0x4 PUSH2 0x3A9C JUMP JUMPDEST PUSH2 0x258C JUMP JUMPDEST PUSH2 0x471 PUSH2 0x7E5 CALLDATASIZE PUSH1 0x4 PUSH2 0x344B JUMP JUMPDEST PUSH2 0x2652 JUMP JUMPDEST PUSH2 0x4DA PUSH1 0xD SLOAD DUP2 JUMP JUMPDEST PUSH2 0x379 PUSH2 0x801 CALLDATASIZE PUSH1 0x4 PUSH2 0x376C JUMP JUMPDEST PUSH2 0x2678 JUMP JUMPDEST PUSH1 0x7 SLOAD PUSH1 0x8 SLOAD PUSH1 0x9 SLOAD PUSH1 0xA SLOAD PUSH1 0xC SLOAD PUSH1 0x40 DUP1 MLOAD PUSH1 0x1 PUSH1 0x1 PUSH1 0xA0 SHL SUB SWAP7 DUP8 AND DUP2 MSTORE SWAP5 DUP7 AND PUSH1 0x20 DUP7 ADD MSTORE SWAP3 DUP6 AND SWAP3 DUP5 ADD SWAP3 SWAP1 SWAP3 MSTORE DUP4 AND PUSH1 0x60 DUP4 ADD MSTORE SWAP2 SWAP1 SWAP2 AND PUSH1 0x80 DUP3 ADD MSTORE PUSH1 0xA0 ADD PUSH2 0x332 JUMP JUMPDEST PUSH2 0x863 PUSH2 0x85E CALLDATASIZE PUSH1 0x4 PUSH2 0x3790 JUMP JUMPDEST PUSH2 0x2702 JUMP JUMPDEST PUSH1 0x40 MLOAD PUSH2 0x332 SWAP2 SWAP1 PUSH2 0x3AC1 JUMP JUMPDEST PUSH1 0x8 SLOAD PUSH2 0x34E SWAP1 PUSH1 0x1 PUSH1 0x1 PUSH1 0xA0 SHL SUB AND DUP2 JUMP JUMPDEST PUSH2 0x379 PUSH2 0x891 CALLDATASIZE PUSH1 0x4 PUSH2 0x376C JUMP JUMPDEST PUSH2 0x2798 JUMP JUMPDEST PUSH2 0x379 PUSH2 0x8A4 CALLDATASIZE PUSH1 0x4 PUSH2 0x3B0C JUMP JUMPDEST PUSH2 0x2868 JUMP JUMPDEST PUSH2 0x8BC PUSH2 0x8B7 CALLDATASIZE PUSH1 0x4 PUSH2 0x344B JUMP JUMPDEST PUSH2 0x2CB6 JUMP JUMPDEST PUSH1 0x40 MLOAD PUSH2 0x332 SWAP2 SWAP1 PUSH2 0x3B58 JUMP JUMPDEST PUSH2 0x8D1 PUSH2 0x2EB8 JUMP JUMPDEST PUSH1 0x40 MLOAD PUSH2 0x332 SWAP2 SWAP1 PUSH2 0x3B6B JUMP JUMPDEST PUSH1 0xC SLOAD PUSH2 0x34E SWAP1 PUSH1 0x1 PUSH1 0x1 PUSH1 0xA0 SHL SUB AND DUP2 JUMP JUMPDEST PUSH2 0x34E PUSH2 0x8FF CALLDATASIZE PUSH1 0x4 PUSH2 0x344B JUMP JUMPDEST DUP1 MLOAD PUSH1 0x20 DUP2 DUP4 ADD DUP2 ADD DUP1 MLOAD PUSH1 0x1 DUP3 MSTORE SWAP3 DUP3 ADD SWAP2 SWAP1 SWAP4 ADD KECCAK256 SWAP2 MSTORE SLOAD PUSH1 0x1 PUSH1 0x1 PUSH1 0xA0 SHL SUB AND DUP2 JUMP JUMPDEST PUSH2 0x34E PUSH2 0x933 CALLDATASIZE PUSH1 0x4 PUSH2 0x3C73 JUMP JUMPDEST PUSH1 0x1 PUSH1 0x1 PUSH1 0xA0 SHL SUB SWAP2 DUP3 AND PUSH1 0x0 SWAP1 DUP2 MSTORE PUSH1 0x2 PUSH1 0x20 SWAP1 DUP2 MSTORE PUSH1 0x40 DUP1 DUP4 KECCAK256 SWAP4 DUP6 AND DUP4 MSTORE SWAP3 SWAP1 MSTORE KECCAK256 SLOAD AND SWAP1 JUMP JUMPDEST PUSH1 0xD SLOAD PUSH2 0x4DA JUMP JUMPDEST PUSH1 0x9 SLOAD PUSH1 0x40 MLOAD PUSH32 0xB9209E3300000000000000000000000000000000000000000000000000000000 DUP2 MSTORE CALLER PUSH1 0x4 DUP3 ADD DUP2 SWAP1 MSTORE SWAP2 PUSH1 0x1 PUSH1 0x1 PUSH1 0xA0 SHL SUB AND SWAP1 PUSH4 0xB9209E33 SWAP1 PUSH1 0x24 ADD PUSH1 0x20 PUSH1 0x40 MLOAD DUP1 DUP4 SUB DUP2 DUP7 GAS STATICCALL ISZERO DUP1 ISZERO PUSH2 0x9C7 JUMPI RETURNDATASIZE PUSH1 0x0 DUP1 RETURNDATACOPY RETURNDATASIZE PUSH1 0x0 REVERT JUMPDEST POP POP POP POP PUSH1 0x40 MLOAD RETURNDATASIZE PUSH1 0x1F NOT PUSH1 0x1F DUP3 ADD AND DUP3 ADD DUP1 PUSH1 0x40 MSTORE POP DUP2 ADD SWAP1 PUSH2 0x9EB SWAP2 SWAP1 PUSH2 0x3CA1 JUMP JUMPDEST PUSH2 0xA3C JUMPI PUSH1 0x40 MLOAD PUSH3 0x461BCD PUSH1 0xE5 SHL DUP2 MSTORE PUSH1 0x20 PUSH1 0x4 DUP3 ADD MSTORE PUSH1 0x14 PUSH1 0x24 DUP3 ADD MSTORE PUSH32 0x4143434F554E545F4E4F545F414150524F564544000000000000000000000000 PUSH1 0x44 DUP3 ADD MSTORE PUSH1 0x64 ADD JUMPDEST PUSH1 0x40 MLOAD DUP1 SWAP2 SUB SWAP1 REVERT JUMPDEST PUSH1 0x2 PUSH1 0x0 DUP6 DUP6 PUSH1 0x40 MLOAD PUSH2 0xA50 SWAP3 SWAP2 SWAP1 PUSH2 0x3CC3 JUMP JUMPDEST SWAP1 DUP2 MSTORE PUSH1 0x40 MLOAD SWAP1 DUP2 SWAP1 SUB PUSH1 0x20 ADD SWAP1 KECCAK256 PUSH1 0x9 ADD SLOAD PUSH1 0xFF PUSH1 0x1 PUSH1 0xA8 SHL SWAP1 SWAP2 DIV AND PUSH1 0x5 DUP2 GT ISZERO PUSH2 0xA7F JUMPI PUSH2 0xA7F PUSH2 0x360B JUMP JUMPDEST EQ PUSH2 0xAA1 JUMPI DUP4 DUP4 PUSH1 0x40 MLOAD PUSH4 0x2DC59421 PUSH1 0xE2 SHL DUP2 MSTORE PUSH1 0x4 ADD PUSH2 0xA33 SWAP3 SWAP2 SWAP1 PUSH2 0x3CFC JUMP JUMPDEST PUSH1 0x0 DUP5 DUP5 PUSH1 0x40 MLOAD PUSH2 0xAB3 SWAP3 SWAP2 SWAP1 PUSH2 0x3CC3 JUMP JUMPDEST SWAP1 DUP2 MSTORE PUSH1 0x20 ADD PUSH1 0x40 MLOAD DUP1 SWAP2 SUB SWAP1 KECCAK256 PUSH1 0x4 ADD SLOAD PUSH1 0x0 DUP6 DUP6 PUSH1 0x40 MLOAD PUSH2 0xAD7 SWAP3 SWAP2 SWAP1 PUSH2 0x3CC3 JUMP JUMPDEST SWAP1 DUP2 MSTORE PUSH1 0x20 ADD PUSH1 0x40 MLOAD DUP1 SWAP2 SUB SWAP1 KECCAK256 PUSH1 0x4 ADD SLOAD DUP4 PUSH2 0xAF4 SWAP2 SWAP1 PUSH2 0x3D26 JUMP JUMPDEST PUSH2 0xAFE SWAP2 SWAP1 PUSH2 0x3D3D JUMP JUMPDEST ISZERO PUSH2 0xB38 JUMPI PUSH1 0x40 MLOAD PUSH32 0x3728B83D00000000000000000000000000000000000000000000000000000000 DUP2 MSTORE PUSH1 0x4 DUP2 ADD DUP4 SWAP1 MSTORE PUSH1 0x24 ADD PUSH2 0xA33 JUMP JUMPDEST DUP2 ISZERO DUP1 ISZERO SWAP1 PUSH2 0xB95 JUMPI POP PUSH1 0x0 DUP5 DUP5 PUSH1 0x40 MLOAD PUSH2 0xB54 SWAP3 SWAP2 SWAP1 PUSH2 0x3CC3 JUMP JUMPDEST SWAP1 DUP2 MSTORE PUSH1 0x20 ADD PUSH1 0x40 MLOAD DUP1 SWAP2 SUB SWAP1 KECCAK256 PUSH1 0x3 ADD SLOAD PUSH1 0x4 DUP6 DUP6 PUSH1 0x40 MLOAD PUSH2 0xB78 SWAP3 SWAP2 SWAP1 PUSH2 0x3CC3 JUMP JUMPDEST SWAP1 DUP2 MSTORE PUSH1 0x20 ADD PUSH1 0x40 MLOAD DUP1 SWAP2 SUB SWAP1 KECCAK256 SLOAD DUP4 PUSH2 0xB92 SWAP2 SWAP1 PUSH2 0x3D5F JUMP JUMPDEST GT ISZERO JUMPDEST PUSH2 0xBE1 JUMPI PUSH1 0x40 MLOAD PUSH3 0x461BCD PUSH1 0xE5 SHL DUP2 MSTORE PUSH1 0x20 PUSH1 0x4 DUP3 ADD MSTORE PUSH1 0x6 PUSH1 0x24 DUP3 ADD MSTORE PUSH32 0x616D6F756E740000000000000000000000000000000000000000000000000000 PUSH1 0x44 DUP3 ADD MSTORE PUSH1 0x64 ADD PUSH2 0xA33 JUMP JUMPDEST DUP2 PUSH1 0x4 DUP6 DUP6 PUSH1 0x40 MLOAD PUSH2 0xBF4 SWAP3 SWAP2 SWAP1 PUSH2 0x3CC3 JUMP JUMPDEST SWAP1 DUP2 MSTORE PUSH1 0x20 ADD PUSH1 0x40 MLOAD DUP1 SWAP2 SUB SWAP1 KECCAK256 SLOAD PUSH2 0xC0D SWAP2 SWAP1 PUSH2 0x3D5F JUMP JUMPDEST PUSH1 0x4 DUP6 DUP6 PUSH1 0x40 MLOAD PUSH2 0xC1F SWAP3 SWAP2 SWAP1 PUSH2 0x3CC3 JUMP JUMPDEST SWAP1 DUP2 MSTORE PUSH1 0x40 DUP1 MLOAD PUSH1 0x20 SWAP3 DUP2 SWAP1 SUB DUP4 ADD DUP2 KECCAK256 SWAP4 SWAP1 SWAP4 SSTORE CALLER PUSH1 0x0 SWAP1 DUP2 MSTORE PUSH1 0x5 SWAP1 SWAP3 MSTORE SWAP1 KECCAK256 SWAP1 PUSH2 0xC4F SWAP1 DUP7 SWAP1 DUP7 SWAP1 PUSH2 0x3CC3 JUMP JUMPDEST SWAP1 DUP2 MSTORE PUSH1 0x40 MLOAD SWAP1 DUP2 SWAP1 SUB PUSH1 0x20 ADD SWAP1 KECCAK256 PUSH1 0x1 ADD SLOAD PUSH1 0xFF AND ISZERO PUSH2 0xDA4 JUMPI CALLER PUSH1 0x0 SWAP1 DUP2 MSTORE PUSH1 0x5 PUSH1 0x20 MSTORE PUSH1 0x40 SWAP1 DUP2 SWAP1 KECCAK256 SWAP1 MLOAD DUP4 SWAP2 SWAP1 PUSH2 0xC8D SWAP1 DUP8 SWAP1 DUP8 SWAP1 PUSH2 0x3CC3 JUMP JUMPDEST SWAP1 DUP2 MSTORE PUSH1 0x40 MLOAD SWAP1 DUP2 SWAP1 SUB PUSH1 0x20 ADD SWAP1 KECCAK256 SLOAD PUSH2 0xCA7 SWAP2 SWAP1 PUSH2 0x3D5F JUMP JUMPDEST PUSH1 0x3 DUP6 DUP6 PUSH1 0x40 MLOAD PUSH2 0xCB9 SWAP3 SWAP2 SWAP1 PUSH2 0x3CC3 JUMP JUMPDEST SWAP1 DUP2 MSTORE PUSH1 0x40 DUP1 MLOAD SWAP2 DUP3 SWAP1 SUB PUSH1 0x20 SWAP1 DUP2 ADD DUP4 KECCAK256 CALLER PUSH1 0x0 SWAP1 DUP2 MSTORE PUSH1 0x5 SWAP1 SWAP3 MSTORE SWAP2 SWAP1 KECCAK256 SWAP1 SWAP2 PUSH2 0xCE8 SWAP1 DUP9 SWAP1 DUP9 SWAP1 PUSH2 0x3CC3 JUMP JUMPDEST SWAP1 DUP2 MSTORE PUSH1 0x20 ADD PUSH1 0x40 MLOAD DUP1 SWAP2 SUB SWAP1 KECCAK256 PUSH1 0x2 ADD SLOAD DUP2 SLOAD DUP2 LT PUSH2 0xD0A JUMPI PUSH2 0xD0A PUSH2 0x3D72 JUMP JUMPDEST SWAP1 PUSH1 0x0 MSTORE PUSH1 0x20 PUSH1 0x0 KECCAK256 SWAP1 PUSH1 0x2 MUL ADD PUSH1 0x1 ADD DUP2 SWAP1 SSTORE POP DUP2 PUSH1 0x5 PUSH1 0x0 CALLER PUSH1 0x1 PUSH1 0x1 PUSH1 0xA0 SHL SUB AND PUSH1 0x1 PUSH1 0x1 PUSH1 0xA0 SHL SUB AND DUP2 MSTORE PUSH1 0x20 ADD SWAP1 DUP2 MSTORE PUSH1 0x20 ADD PUSH1 0x0 KECCAK256 DUP6 DUP6 PUSH1 0x40 MLOAD PUSH2 0xD55 SWAP3 SWAP2 SWAP1 PUSH2 0x3CC3 JUMP JUMPDEST SWAP1 DUP2 MSTORE PUSH1 0x40 MLOAD SWAP1 DUP2 SWAP1 SUB PUSH1 0x20 ADD SWAP1 KECCAK256 SLOAD PUSH2 0xD6F SWAP2 SWAP1 PUSH2 0x3D5F JUMP JUMPDEST CALLER PUSH1 0x0 SWAP1 DUP2 MSTORE PUSH1 0x5 PUSH1 0x20 MSTORE PUSH1 0x40 SWAP1 DUP2 SWAP1 KECCAK256 SWAP1 MLOAD PUSH2 0xD8F SWAP1 DUP8 SWAP1 DUP8 SWAP1 PUSH2 0x3CC3 JUMP JUMPDEST SWAP1 DUP2 MSTORE PUSH1 0x40 MLOAD SWAP1 DUP2 SWAP1 SUB PUSH1 0x20 ADD SWAP1 KECCAK256 SSTORE PUSH2 0xEA5 JUMP JUMPDEST PUSH1 0x40 MLOAD DUP1 PUSH1 0x60 ADD PUSH1 0x40 MSTORE DUP1 DUP4 DUP2 MSTORE PUSH1 0x20 ADD PUSH1 0x1 ISZERO ISZERO DUP2 MSTORE PUSH1 0x20 ADD PUSH1 0x3 DUP7 DUP7 PUSH1 0x40 MLOAD PUSH2 0xDD0 SWAP3 SWAP2 SWAP1 PUSH2 0x3CC3 JUMP JUMPDEST SWAP1 DUP2 MSTORE PUSH1 0x40 DUP1 MLOAD PUSH1 0x20 SWAP3 DUP2 SWAP1 SUB DUP4 ADD SWAP1 KECCAK256 SLOAD SWAP1 SWAP3 MSTORE CALLER PUSH1 0x0 SWAP1 DUP2 MSTORE PUSH1 0x5 SWAP1 SWAP2 MSTORE DUP2 SWAP1 KECCAK256 SWAP1 MLOAD PUSH2 0xE02 SWAP1 DUP8 SWAP1 DUP8 SWAP1 PUSH2 0x3CC3 JUMP JUMPDEST SWAP1 DUP2 MSTORE PUSH1 0x40 DUP1 MLOAD PUSH1 0x20 SWAP3 DUP2 SWAP1 SUB DUP4 ADD DUP2 KECCAK256 DUP5 MLOAD DUP2 SSTORE SWAP3 DUP5 ADD MLOAD PUSH1 0x1 DUP5 ADD DUP1 SLOAD PUSH1 0xFF NOT AND SWAP2 ISZERO ISZERO SWAP2 SWAP1 SWAP2 OR SWAP1 SSTORE SWAP3 ADD MLOAD PUSH1 0x2 SWAP1 SWAP2 ADD SSTORE PUSH1 0x3 SWAP1 PUSH2 0xE47 SWAP1 DUP7 SWAP1 DUP7 SWAP1 PUSH2 0x3CC3 JUMP JUMPDEST SWAP1 DUP2 MSTORE PUSH1 0x40 DUP1 MLOAD PUSH1 0x20 SWAP3 DUP2 SWAP1 SUB DUP4 ADD DUP2 KECCAK256 DUP2 DUP4 ADD SWAP1 SWAP3 MSTORE CALLER DUP2 MSTORE DUP3 DUP2 ADD DUP6 DUP2 MSTORE DUP3 SLOAD PUSH1 0x1 DUP1 DUP3 ADD DUP6 SSTORE PUSH1 0x0 SWAP5 DUP6 MSTORE SWAP5 SWAP1 SWAP4 KECCAK256 SWAP2 MLOAD PUSH1 0x2 SWAP1 SWAP4 MUL SWAP1 SWAP2 ADD DUP1 SLOAD PUSH1 0x1 PUSH1 0x1 PUSH1 0xA0 SHL SUB NOT AND PUSH1 0x1 PUSH1 0x1 PUSH1 0xA0 SHL SUB SWAP1 SWAP4 AND SWAP3 SWAP1 SWAP3 OR DUP3 SSTORE MLOAD SWAP2 ADD SSTORE JUMPDEST PUSH1 0xC SLOAD PUSH1 0x40 MLOAD PUSH32 0x925B7CB600000000000000000000000000000000000000000000000000000000 DUP2 MSTORE PUSH1 0x1 PUSH1 0x1 PUSH1 0xA0 SHL SUB SWAP1 SWAP2 AND SWAP1 PUSH4 0x925B7CB6 SWAP1 PUSH2 0xEF2 SWAP1 DUP8 SWAP1 DUP8 SWAP1 DUP8 SWAP1 PUSH1 0x4 ADD PUSH2 0x3D88 JUMP JUMPDEST PUSH1 0x0 PUSH1 0x40 MLOAD DUP1 DUP4 SUB DUP2 PUSH1 0x0 DUP8 DUP1 EXTCODESIZE ISZERO DUP1 ISZERO PUSH2 0xF0C JUMPI PUSH1 0x0 DUP1 REVERT JUMPDEST POP GAS CALL ISZERO DUP1 ISZERO PUSH2 0xF20 JUMPI RETURNDATASIZE PUSH1 0x0 DUP1 RETURNDATACOPY RETURNDATASIZE PUSH1 0x0 REVERT JUMPDEST POP POP POP POP PUSH1 0x0 DUP5 DUP5 PUSH1 0x40 MLOAD PUSH2 0xF36 SWAP3 SWAP2 SWAP1 PUSH2 0x3CC3 JUMP JUMPDEST SWAP1 DUP2 MSTORE PUSH1 0x40 MLOAD SWAP1 DUP2 SWAP1 SUB PUSH1 0x20 ADD SWAP1 KECCAK256 PUSH1 0x9 ADD SLOAD PUSH1 0xC SLOAD PUSH1 0x1 PUSH1 0x1 PUSH1 0xA0 SHL SUB SWAP2 DUP3 AND SWAP2 PUSH4 0x23B872DD SWAP2 CALLER SWAP2 AND PUSH2 0xF73 DUP7 PUSH8 0xDE0B6B3A7640000 PUSH2 0x3D26 JUMP JUMPDEST PUSH1 0x40 MLOAD PUSH32 0xFFFFFFFF00000000000000000000000000000000000000000000000000000000 PUSH1 0xE0 DUP7 SWAP1 SHL AND DUP2 MSTORE PUSH1 0x1 PUSH1 0x1 PUSH1 0xA0 SHL SUB SWAP4 DUP5 AND PUSH1 0x4 DUP3 ADD MSTORE SWAP3 SWAP1 SWAP2 AND PUSH1 0x24 DUP4 ADD MSTORE PUSH1 0x44 DUP3 ADD MSTORE PUSH1 0x64 ADD PUSH1 0x20 PUSH1 0x40 MLOAD DUP1 DUP4 SUB DUP2 PUSH1 0x0 DUP8 GAS CALL ISZERO DUP1 ISZERO PUSH2 0xFDF JUMPI RETURNDATASIZE PUSH1 0x0 DUP1 RETURNDATACOPY RETURNDATASIZE PUSH1 0x0 REVERT JUMPDEST POP POP POP POP PUSH1 0x40 MLOAD RETURNDATASIZE PUSH1 0x1F NOT PUSH1 0x1F DUP3 ADD AND DUP3 ADD DUP1 PUSH1 0x40 MSTORE POP DUP2 ADD SWAP1 PUSH2 0x1003 SWAP2 SWAP1 PUSH2 0x3CA1 JUMP JUMPDEST POP PUSH32 0xBDAF52B4DE514796607307FBBCF007EE6D59E81E1BE436B67C5A567A2E8D121 DUP5 DUP5 CALLER PUSH1 0x40 MLOAD PUSH2 0x1037 SWAP4 SWAP3 SWAP2 SWAP1 PUSH2 0x3DAC JUMP JUMPDEST PUSH1 0x40 MLOAD DUP1 SWAP2 SUB SWAP1 LOG1 POP POP POP POP JUMP JUMPDEST DUP1 PUSH1 0x1 DUP4 PUSH1 0x40 MLOAD PUSH2 0x1056 SWAP2 SWAP1 PUSH2 0x3DD9 JUMP JUMPDEST SWAP1 DUP2 MSTORE PUSH1 0x40 MLOAD SWAP1 DUP2 SWAP1 SUB PUSH1 0x20 ADD SWAP1 KECCAK256 DUP1 SLOAD PUSH1 0x1 PUSH1 0x1 PUSH1 0xA0 SHL SUB SWAP3 SWAP1 SWAP3 AND PUSH1 0x1 PUSH1 0x1 PUSH1 0xA0 SHL SUB NOT SWAP1 SWAP3 AND SWAP2 SWAP1 SWAP2 OR SWAP1 SSTORE POP POP JUMP JUMPDEST PUSH1 0x8 SLOAD PUSH1 0x40 MLOAD PUSH32 0x877B9A6700000000000000000000000000000000000000000000000000000000 DUP2 MSTORE CALLER PUSH1 0x4 DUP3 ADD MSTORE PUSH1 0x1 PUSH1 0x1 PUSH1 0xA0 SHL SUB SWAP1 SWAP2 AND SWAP1 PUSH4 0x877B9A67 SWAP1 PUSH1 0x24 ADD PUSH1 0x20 PUSH1 0x40 MLOAD DUP1 DUP4 SUB DUP2 DUP7 GAS STATICCALL ISZERO DUP1 ISZERO PUSH2 0x10EA JUMPI RETURNDATASIZE PUSH1 0x0 DUP1 RETURNDATACOPY RETURNDATASIZE PUSH1 0x0 REVERT JUMPDEST POP POP POP POP PUSH1 0x40 MLOAD RETURNDATASIZE PUSH1 0x1F NOT PUSH1 0x1F DUP3 ADD AND DUP3 ADD DUP1 PUSH1 0x40 MSTORE POP DUP2 ADD SWAP1 PUSH2 0x110E SWAP2 SWAP1 PUSH2 0x3CA1 JUMP JUMPDEST PUSH2 0x115A JUMPI PUSH1 0x40 MLOAD PUSH3 0x461BCD PUSH1 0xE5 SHL DUP2 MSTORE PUSH1 0x20 PUSH1 0x4 DUP3 ADD MSTORE PUSH1 0xA PUSH1 0x24 DUP3 ADD MSTORE PUSH32 0x6E6F742069737375657200000000000000000000000000000000000000000000 PUSH1 0x44 DUP3 ADD MSTORE PUSH1 0x64 ADD PUSH2 0xA33 JUMP JUMPDEST PUSH2 0x116A PUSH1 0x60 DUP3 ADD PUSH1 0x40 DUP4 ADD PUSH2 0x376C JUMP JUMPDEST PUSH1 0x1 PUSH1 0x1 PUSH1 0xA0 SHL SUB AND CALLER PUSH1 0x1 PUSH1 0x1 PUSH1 0xA0 SHL SUB AND EQ PUSH2 0x11B4 JUMPI PUSH1 0x40 MLOAD PUSH3 0x461BCD PUSH1 0xE5 SHL DUP2 MSTORE PUSH1 0x20 PUSH1 0x4 DUP3 ADD MSTORE PUSH1 0x7 PUSH1 0x24 DUP3 ADD MSTORE PUSH7 0x61646472657373 PUSH1 0xC8 SHL PUSH1 0x44 DUP3 ADD MSTORE PUSH1 0x64 ADD PUSH2 0xA33 JUMP JUMPDEST PUSH1 0x0 DUP1 DUP5 DUP5 PUSH1 0x40 MLOAD PUSH2 0x11C7 SWAP3 SWAP2 SWAP1 PUSH2 0x3CC3 JUMP JUMPDEST SWAP1 DUP2 MSTORE PUSH1 0x40 MLOAD SWAP1 DUP2 SWAP1 SUB PUSH1 0x20 ADD SWAP1 KECCAK256 PUSH1 0x9 ADD SLOAD PUSH1 0xFF PUSH1 0x1 PUSH1 0xA8 SHL SWAP1 SWAP2 DIV AND PUSH1 0x5 DUP2 GT ISZERO PUSH2 0x11F6 JUMPI PUSH2 0x11F6 PUSH2 0x360B JUMP JUMPDEST EQ PUSH2 0x122C JUMPI PUSH1 0x40 MLOAD PUSH3 0x461BCD PUSH1 0xE5 SHL DUP2 MSTORE PUSH1 0x20 PUSH1 0x4 DUP3 ADD MSTORE PUSH1 0x6 PUSH1 0x24 DUP3 ADD MSTORE PUSH6 0x737461747573 PUSH1 0xD0 SHL PUSH1 0x44 DUP3 ADD MSTORE PUSH1 0x64 ADD PUSH2 0xA33 JUMP JUMPDEST DUP1 PUSH1 0x0 DUP5 DUP5 PUSH1 0x40 MLOAD PUSH2 0x123F SWAP3 SWAP2 SWAP1 PUSH2 0x3CC3 JUMP JUMPDEST SWAP1 DUP2 MSTORE PUSH1 0x40 MLOAD SWAP1 DUP2 SWAP1 SUB PUSH1 0x20 ADD SWAP1 KECCAK256 PUSH2 0x1258 DUP3 DUP3 PUSH2 0x4001 JUMP JUMPDEST SWAP1 POP POP PUSH1 0x1 PUSH1 0x0 DUP5 DUP5 PUSH1 0x40 MLOAD PUSH2 0x126F SWAP3 SWAP2 SWAP1 PUSH2 0x3CC3 JUMP JUMPDEST SWAP1 DUP2 MSTORE PUSH1 0x40 MLOAD SWAP1 DUP2 SWAP1 SUB PUSH1 0x20 ADD SWAP1 KECCAK256 PUSH1 0x9 ADD DUP1 SLOAD PUSH1 0xFF PUSH1 0xA8 SHL NOT AND PUSH1 0x1 PUSH1 0xA8 SHL DUP4 PUSH1 0x5 DUP2 GT ISZERO PUSH2 0x12A1 JUMPI PUSH2 0x12A1 PUSH2 0x360B JUMP JUMPDEST MUL OR SWAP1 SSTORE POP PUSH1 0x10 SLOAD PUSH1 0x40 MLOAD PUSH1 0x0 SWAP1 PUSH2 0x12BC SWAP1 DUP7 SWAP1 DUP7 SWAP1 PUSH2 0x3CC3 JUMP JUMPDEST SWAP1 DUP2 MSTORE PUSH1 0x20 ADD PUSH1 0x40 MLOAD DUP1 SWAP2 SUB SWAP1 KECCAK256 PUSH1 0x8 ADD DUP2 SWAP1 SSTORE POP PUSH1 0x10 PUSH1 0x0 DUP5 DUP5 PUSH1 0x40 MLOAD PUSH2 0x12E5 SWAP3 SWAP2 SWAP1 PUSH2 0x3CC3 JUMP JUMPDEST SWAP1 DUP2 MSTORE PUSH1 0x40 MLOAD PUSH1 0x20 SWAP2 DUP2 SWAP1 SUB DUP3 ADD SWAP1 KECCAK256 DUP3 SLOAD PUSH1 0x1 DUP2 ADD DUP5 SSTORE PUSH1 0x0 SWAP4 DUP5 MSTORE SWAP2 SWAP1 SWAP3 KECCAK256 PUSH1 0xA SWAP1 SWAP2 MUL ADD DUP1 PUSH2 0x1317 DUP4 DUP3 PUSH2 0x413F JUMP JUMPDEST POP PUSH1 0x1 DUP2 DUP2 ADD SWAP1 PUSH2 0x132A SWAP1 DUP5 ADD DUP3 PUSH2 0x413F JUMP JUMPDEST POP PUSH1 0x2 DUP3 DUP2 ADD SLOAD SWAP1 DUP3 ADD DUP1 SLOAD PUSH1 0x1 PUSH1 0x1 PUSH1 0xA0 SHL SUB SWAP3 DUP4 AND PUSH1 0x1 PUSH1 0x1 PUSH1 0xA0 SHL SUB NOT SWAP2 DUP3 AND OR SWAP1 SWAP2 SSTORE PUSH1 0x3 DUP1 DUP6 ADD SLOAD SWAP1 DUP5 ADD SSTORE PUSH1 0x4 DUP1 DUP6 ADD SLOAD SWAP1 DUP5 ADD SSTORE PUSH1 0x5 DUP1 DUP6 ADD SLOAD DUP2 DUP6 ADD SSTORE PUSH1 0x6 DUP1 DUP7 ADD SLOAD SWAP1 DUP6 ADD SSTORE PUSH1 0x7 DUP1 DUP7 ADD SLOAD SWAP1 DUP6 ADD SSTORE PUSH1 0x8 DUP1 DUP7 ADD SLOAD SWAP1 DUP6 ADD SSTORE PUSH1 0x9 DUP1 DUP7 ADD DUP1 SLOAD SWAP2 DUP7 ADD DUP1 SLOAD SWAP3 SWAP1 SWAP6 AND SWAP4 DUP3 AND DUP5 OR DUP6 SSTORE DUP1 SLOAD PUSH21 0xFFFFFFFFFFFFFFFFFFFFFFFFFFFFFFFFFFFFFFFFFF NOT SWAP1 SWAP3 AND SWAP1 SWAP4 OR PUSH1 0x1 PUSH1 0xA0 SHL SWAP2 DUP3 SWAP1 DIV PUSH1 0xFF SWAP1 DUP2 AND SWAP1 SWAP3 MUL OR DUP1 DUP6 SSTORE SWAP3 SLOAD PUSH1 0x1 PUSH1 0xA8 SHL SWAP1 DUP2 SWAP1 DIV SWAP1 SWAP2 AND SWAP4 SWAP3 PUSH1 0xFF PUSH1 0xA8 SHL NOT AND SWAP2 DUP5 SWAP1 DUP2 GT ISZERO PUSH2 0x1401 JUMPI PUSH2 0x1401 PUSH2 0x360B JUMP JUMPDEST MUL OR SWAP1 SSTORE POP POP POP PUSH32 0xEBC5645D06A6C6900FFBABB37C6FC84326BD870990F736254F05ABB3287FFD41 DUP4 DUP4 DUP4 PUSH1 0x40 MLOAD PUSH2 0x143B SWAP4 SWAP3 SWAP2 SWAP1 PUSH2 0x426D JUMP JUMPDEST PUSH1 0x40 MLOAD DUP1 SWAP2 SUB SWAP1 LOG1 POP POP POP JUMP JUMPDEST PUSH1 0x0 DUP2 PUSH1 0x40 MLOAD PUSH2 0x1458 SWAP2 SWAP1 PUSH2 0x3DD9 JUMP JUMPDEST SWAP1 DUP2 MSTORE PUSH1 0x40 MLOAD SWAP1 DUP2 SWAP1 SUB PUSH1 0x20 ADD SWAP1 KECCAK256 PUSH1 0x2 ADD SLOAD CALLER PUSH1 0x1 PUSH1 0x1 PUSH1 0xA0 SHL SUB SWAP1 SWAP2 AND EQ DUP1 PUSH2 0x148D JUMPI POP PUSH1 0x7 SLOAD PUSH1 0x1 PUSH1 0x1 PUSH1 0xA0 SHL SUB AND CALLER EQ JUMPDEST PUSH2 0x14C3 JUMPI PUSH1 0x40 MLOAD PUSH3 0x461BCD PUSH1 0xE5 SHL DUP2 MSTORE PUSH1 0x20 PUSH1 0x4 DUP3 ADD MSTORE PUSH1 0x7 PUSH1 0x24 DUP3 ADD MSTORE PUSH7 0x61646472657373 PUSH1 0xC8 SHL PUSH1 0x44 DUP3 ADD MSTORE PUSH1 0x64 ADD PUSH2 0xA33 JUMP JUMPDEST PUSH1 0x0 PUSH1 0x1 PUSH1 0x1 PUSH1 0xA0 SHL SUB AND PUSH1 0x0 DUP3 PUSH1 0x40 MLOAD PUSH2 0x14DE SWAP2 SWAP1 PUSH2 0x3DD9 JUMP JUMPDEST SWAP1 DUP2 MSTORE PUSH1 0x40 MLOAD SWAP1 DUP2 SWAP1 SUB PUSH1 0x20 ADD SWAP1 KECCAK256 PUSH1 0x9 ADD SLOAD PUSH1 0x1 PUSH1 0x1 PUSH1 0xA0 SHL SUB AND SUB PUSH2 0x1547 JUMPI PUSH1 0x40 MLOAD PUSH3 0x461BCD PUSH1 0xE5 SHL DUP2 MSTORE PUSH1 0x20 PUSH1 0x4 DUP3 ADD MSTORE PUSH1 0x5 PUSH1 0x24 DUP3 ADD MSTORE PUSH32 0x746F6B656E000000000000000000000000000000000000000000000000000000 PUSH1 0x44 DUP3 ADD MSTORE PUSH1 0x64 ADD PUSH2 0xA33 JUMP JUMPDEST PUSH1 0xC SLOAD PUSH1 0x40 MLOAD PUSH1 0x1 PUSH1 0x1 PUSH1 0xA0 SHL SUB SWAP1 SWAP2 AND SWAP1 PUSH4 0xE04CD97F SWAP1 DUP4 SWAP1 PUSH1 0x0 SWAP1 PUSH2 0x156F SWAP1 DUP4 SWAP1 PUSH2 0x3DD9 JUMP JUMPDEST SWAP1 DUP2 MSTORE PUSH1 0x40 MLOAD SWAP1 DUP2 SWAP1 SUB PUSH1 0x20 ADD DUP2 KECCAK256 PUSH1 0x2 ADD SLOAD PUSH1 0x1 PUSH1 0x1 PUSH1 0xA0 SHL SUB AND SWAP1 PUSH1 0x0 SWAP1 PUSH2 0x159A SWAP1 DUP8 SWAP1 PUSH2 0x3DD9 JUMP JUMPDEST SWAP1 DUP2 MSTORE PUSH1 0x40 MLOAD SWAP1 DUP2 SWAP1 SUB PUSH1 0x20 ADD DUP2 KECCAK256 PUSH1 0x9 ADD SLOAD PUSH32 0xFFFFFFFF00000000000000000000000000000000000000000000000000000000 PUSH1 0xE0 DUP7 SWAP1 SHL AND DUP3 MSTORE PUSH2 0x15F0 SWAP4 SWAP3 SWAP2 PUSH1 0x1 PUSH1 0x1 PUSH1 0xA0 SHL SUB SWAP1 SWAP2 AND SWAP1 PUSH1 0x4 ADD PUSH2 0x437F JUMP JUMPDEST PUSH1 0x0 PUSH1 0x40 MLOAD DUP1 DUP4 SUB DUP2 PUSH1 0x0 DUP8 DUP1 EXTCODESIZE ISZERO DUP1 ISZERO PUSH2 0x160A JUMPI PUSH1 0x0 DUP1 REVERT JUMPDEST POP GAS CALL ISZERO DUP1 ISZERO PUSH2 0x161E JUMPI RETURNDATASIZE PUSH1 0x0 DUP1 RETURNDATACOPY RETURNDATASIZE PUSH1 0x0 REVERT JUMPDEST POP POP POP POP POP JUMP JUMPDEST PUSH1 0x60 PUSH1 0x12 DUP1 SLOAD DUP1 PUSH1 0x20 MUL PUSH1 0x20 ADD PUSH1 0x40 MLOAD SWAP1 DUP2 ADD PUSH1 0x40 MSTORE DUP1 SWAP3 SWAP2 SWAP1 DUP2 DUP2 MSTORE PUSH1 0x20 ADD PUSH1 0x0 SWAP1 JUMPDEST DUP3 DUP3 LT ISZERO PUSH2 0x170C JUMPI PUSH1 0x0 DUP5 DUP2 MSTORE PUSH1 0x20 SWAP1 DUP2 SWAP1 KECCAK256 PUSH1 0x40 DUP1 MLOAD PUSH2 0x180 DUP2 ADD DUP3 MSTORE PUSH1 0xA DUP7 MUL SWAP1 SWAP3 ADD DUP1 SLOAD PUSH1 0x1 PUSH1 0x1 PUSH1 0xA0 SHL SUB SWAP1 DUP2 AND DUP5 MSTORE PUSH1 0x1 DUP1 DUP4 ADD SLOAD DUP1 DUP4 AND DUP7 DUP9 ADD MSTORE PUSH1 0xFF PUSH1 0x1 PUSH1 0xA0 SHL DUP3 DIV DUP2 AND SWAP6 DUP8 ADD SWAP6 SWAP1 SWAP6 MSTORE PUSH1 0x1 PUSH1 0xA8 SHL SWAP1 DIV SWAP1 SWAP4 AND PUSH1 0x60 DUP6 ADD MSTORE PUSH1 0x2 DUP3 ADD SLOAD PUSH1 0x80 DUP6 ADD MSTORE PUSH1 0x3 DUP3 ADD SLOAD PUSH1 0xA0 DUP6 ADD MSTORE PUSH1 0x4 DUP3 ADD SLOAD AND PUSH1 0xC0 DUP5 ADD MSTORE PUSH1 0x5 DUP2 ADD SLOAD PUSH1 0xE0 DUP5 ADD MSTORE PUSH1 0x6 DUP2 ADD SLOAD PUSH2 0x100 DUP5 ADD MSTORE PUSH1 0x7 DUP2 ADD SLOAD PUSH2 0x120 DUP5 ADD MSTORE PUSH1 0x8 DUP2 ADD SLOAD PUSH2 0x140 DUP5 ADD MSTORE PUSH1 0x9 ADD SLOAD PUSH2 0x160 DUP4 ADD MSTORE SWAP1 DUP4 MSTORE SWAP1 SWAP3 ADD SWAP2 ADD PUSH2 0x1649 JUMP JUMPDEST POP POP POP POP SWAP1 POP SWAP1 JUMP JUMPDEST PUSH1 0x60 PUSH1 0x11 DUP1 SLOAD DUP1 PUSH1 0x20 MUL PUSH1 0x20 ADD PUSH1 0x40 MLOAD SWAP1 DUP2 ADD PUSH1 0x40 MSTORE DUP1 SWAP3 SWAP2 SWAP1 DUP2 DUP2 MSTORE PUSH1 0x20 ADD PUSH1 0x0 SWAP1 JUMPDEST DUP3 DUP3 LT ISZERO PUSH2 0x170C JUMPI DUP4 DUP3 SWAP1 PUSH1 0x0 MSTORE PUSH1 0x20 PUSH1 0x0 KECCAK256 ADD DUP1 SLOAD PUSH2 0x1758 SWAP1 PUSH2 0x3E3C JUMP JUMPDEST DUP1 PUSH1 0x1F ADD PUSH1 0x20 DUP1 SWAP2 DIV MUL PUSH1 0x20 ADD PUSH1 0x40 MLOAD SWAP1 DUP2 ADD PUSH1 0x40 MSTORE DUP1 SWAP3 SWAP2 SWAP1 DUP2 DUP2 MSTORE PUSH1 0x20 ADD DUP3 DUP1 SLOAD PUSH2 0x1784 SWAP1 PUSH2 0x3E3C JUMP JUMPDEST DUP1 ISZERO PUSH2 0x17D1 JUMPI DUP1 PUSH1 0x1F LT PUSH2 0x17A6 JUMPI PUSH2 0x100 DUP1 DUP4 SLOAD DIV MUL DUP4 MSTORE SWAP2 PUSH1 0x20 ADD SWAP2 PUSH2 0x17D1 JUMP JUMPDEST DUP3 ADD SWAP2 SWAP1 PUSH1 0x0 MSTORE PUSH1 0x20 PUSH1 0x0 KECCAK256 SWAP1 JUMPDEST DUP2 SLOAD DUP2 MSTORE SWAP1 PUSH1 0x1 ADD SWAP1 PUSH1 0x20 ADD DUP1 DUP4 GT PUSH2 0x17B4 JUMPI DUP3 SWAP1 SUB PUSH1 0x1F AND DUP3 ADD SWAP2 JUMPDEST POP POP POP POP POP DUP2 MSTORE PUSH1 0x20 ADD SWAP1 PUSH1 0x1 ADD SWAP1 PUSH2 0x1739 JUMP JUMPDEST PUSH1 0x0 PUSH1 0x1 DUP3 PUSH1 0x40 MLOAD PUSH2 0x17F7 SWAP2 SWAP1 PUSH2 0x3DD9 JUMP JUMPDEST SWAP1 DUP2 MSTORE PUSH1 0x40 MLOAD SWAP1 DUP2 SWAP1 SUB PUSH1 0x20 ADD SWAP1 KECCAK256 SLOAD PUSH1 0x1 PUSH1 0x1 PUSH1 0xA0 SHL SUB AND SWAP3 SWAP2 POP POP JUMP JUMPDEST PUSH1 0x60 PUSH1 0x10 DUP1 SLOAD DUP1 PUSH1 0x20 MUL PUSH1 0x20 ADD PUSH1 0x40 MLOAD SWAP1 DUP2 ADD PUSH1 0x40 MSTORE DUP1 SWAP3 SWAP2 SWAP1 DUP2 DUP2 MSTORE PUSH1 0x20 ADD PUSH1 0x0 SWAP1 JUMPDEST DUP3 DUP3 LT ISZERO PUSH2 0x170C JUMPI DUP4 DUP3 SWAP1 PUSH1 0x0 MSTORE PUSH1 0x20 PUSH1 0x0 KECCAK256 SWAP1 PUSH1 0xA MUL ADD PUSH1 0x40 MLOAD DUP1 PUSH2 0x180 ADD PUSH1 0x40 MSTORE SWAP1 DUP2 PUSH1 0x0 DUP3 ADD DUP1 SLOAD PUSH2 0x186E SWAP1 PUSH2 0x3E3C JUMP JUMPDEST DUP1 PUSH1 0x1F ADD PUSH1 0x20 DUP1 SWAP2 DIV MUL PUSH1 0x20 ADD PUSH1 0x40 MLOAD SWAP1 DUP2 ADD PUSH1 0x40 MSTORE DUP1 SWAP3 SWAP2 SWAP1 DUP2 DUP2 MSTORE PUSH1 0x20 ADD DUP3 DUP1 SLOAD PUSH2 0x189A SWAP1 PUSH2 0x3E3C JUMP JUMPDEST DUP1 ISZERO PUSH2 0x18E7 JUMPI DUP1 PUSH1 0x1F LT PUSH2 0x18BC JUMPI PUSH2 0x100 DUP1 DUP4 SLOAD DIV MUL DUP4 MSTORE SWAP2 PUSH1 0x20 ADD SWAP2 PUSH2 0x18E7 JUMP JUMPDEST DUP3 ADD SWAP2 SWAP1 PUSH1 0x0 MSTORE PUSH1 0x20 PUSH1 0x0 KECCAK256 SWAP1 JUMPDEST DUP2 SLOAD DUP2 MSTORE SWAP1 PUSH1 0x1 ADD SWAP1 PUSH1 0x20 ADD DUP1 DUP4 GT PUSH2 0x18CA JUMPI DUP3 SWAP1 SUB PUSH1 0x1F AND DUP3 ADD SWAP2 JUMPDEST POP POP POP POP POP DUP2 MSTORE PUSH1 0x20 ADD PUSH1 0x1 DUP3 ADD DUP1 SLOAD PUSH2 0x1900 SWAP1 PUSH2 0x3E3C JUMP JUMPDEST DUP1 PUSH1 0x1F ADD PUSH1 0x20 DUP1 SWAP2 DIV MUL PUSH1 0x20 ADD PUSH1 0x40 MLOAD SWAP1 DUP2 ADD PUSH1 0x40 MSTORE DUP1 SWAP3 SWAP2 SWAP1 DUP2 DUP2 MSTORE PUSH1 0x20 ADD DUP3 DUP1 SLOAD PUSH2 0x192C SWAP1 PUSH2 0x3E3C JUMP JUMPDEST DUP1 ISZERO PUSH2 0x1979 JUMPI DUP1 PUSH1 0x1F LT PUSH2 0x194E JUMPI PUSH2 0x100 DUP1 DUP4 SLOAD DIV MUL DUP4 MSTORE SWAP2 PUSH1 0x20 ADD SWAP2 PUSH2 0x1979 JUMP JUMPDEST DUP3 ADD SWAP2 SWAP1 PUSH1 0x0 MSTORE PUSH1 0x20 PUSH1 0x0 KECCAK256 SWAP1 JUMPDEST DUP2 SLOAD DUP2 MSTORE SWAP1 PUSH1 0x1 ADD SWAP1 PUSH1 0x20 ADD DUP1 DUP4 GT PUSH2 0x195C JUMPI DUP3 SWAP1 SUB PUSH1 0x1F AND DUP3 ADD SWAP2 JUMPDEST POP POP POP SWAP2 DUP4 MSTORE POP POP PUSH1 0x2 DUP3 ADD SLOAD PUSH1 0x1 PUSH1 0x1 PUSH1 0xA0 SHL SUB SWAP1 DUP2 AND PUSH1 0x20 DUP4 ADD MSTORE PUSH1 0x3 DUP4 ADD SLOAD PUSH1 0x40 DUP4 ADD MSTORE PUSH1 0x4 DUP4 ADD SLOAD PUSH1 0x60 DUP4 ADD MSTORE PUSH1 0x5 DUP1 DUP5 ADD SLOAD PUSH1 0x80 DUP5 ADD MSTORE PUSH1 0x6 DUP5 ADD SLOAD PUSH1 0xA0 DUP5 ADD MSTORE PUSH1 0x7 DUP5 ADD SLOAD PUSH1 0xC0 DUP5 ADD MSTORE PUSH1 0x8 DUP5 ADD SLOAD PUSH1 0xE0 DUP5 ADD MSTORE PUSH1 0x9 DUP5 ADD SLOAD SWAP2 DUP3 AND PUSH2 0x100 DUP5 ADD MSTORE PUSH1 0xFF PUSH1 0x1 PUSH1 0xA0 SHL DUP4 DIV DUP2 AND PUSH2 0x120 DUP6 ADD MSTORE PUSH2 0x140 SWAP1 SWAP4 ADD SWAP3 PUSH1 0x1 PUSH1 0xA8 SHL SWAP1 SWAP3 DIV SWAP1 SWAP2 AND SWAP1 DUP2 GT ISZERO PUSH2 0x1A14 JUMPI PUSH2 0x1A14 PUSH2 0x360B JUMP JUMPDEST PUSH1 0x5 DUP2 GT ISZERO PUSH2 0x1A25 JUMPI PUSH2 0x1A25 PUSH2 0x360B JUMP JUMPDEST DUP2 MSTORE POP POP DUP2 MSTORE PUSH1 0x20 ADD SWAP1 PUSH1 0x1 ADD SWAP1 PUSH2 0x183A JUMP JUMPDEST PUSH1 0x7 SLOAD PUSH1 0x1 PUSH1 0x1 PUSH1 0xA0 SHL SUB AND CALLER EQ PUSH2 0x1A87 JUMPI PUSH1 0x40 MLOAD PUSH3 0x461BCD PUSH1 0xE5 SHL DUP2 MSTORE PUSH1 0x20 PUSH1 0x4 DUP3 ADD MSTORE PUSH1 0x12 PUSH1 0x24 DUP3 ADD MSTORE PUSH18 0x27A7262CAFAA27A827A9AFA6A0A720A3A2A9 PUSH1 0x71 SHL PUSH1 0x44 DUP3 ADD MSTORE PUSH1 0x64 ADD PUSH2 0xA33 JUMP JUMPDEST DUP1 PUSH1 0x1 PUSH1 0x1 PUSH1 0xA0 SHL SUB AND PUSH4 0x8119C065 PUSH1 0x40 MLOAD DUP2 PUSH4 0xFFFFFFFF AND PUSH1 0xE0 SHL DUP2 MSTORE PUSH1 0x4 ADD PUSH1 0x0 PUSH1 0x40 MLOAD DUP1 DUP4 SUB DUP2 PUSH1 0x0 DUP8 DUP1 EXTCODESIZE ISZERO DUP1 ISZERO PUSH2 0x160A JUMPI PUSH1 0x0 DUP1 REVERT JUMPDEST PUSH1 0x7 SLOAD PUSH1 0x1 PUSH1 0x1 PUSH1 0xA0 SHL SUB AND CALLER EQ PUSH2 0x1B11 JUMPI PUSH1 0x40 MLOAD PUSH3 0x461BCD PUSH1 0xE5 SHL DUP2 MSTORE PUSH1 0x20 PUSH1 0x4 DUP3 ADD MSTORE PUSH1 0x12 PUSH1 0x24 DUP3 ADD MSTORE PUSH18 0x27A7262CAFAA27A827A9AFA6A0A720A3A2A9 PUSH1 0x71 SHL PUSH1 0x44 DUP3 ADD MSTORE PUSH1 0x64 ADD PUSH2 0xA33 JUMP JUMPDEST PUSH1 0x1 PUSH1 0x0 DUP4 DUP4 PUSH1 0x40 MLOAD PUSH2 0x1B25 SWAP3 SWAP2 SWAP1 PUSH2 0x3CC3 JUMP JUMPDEST SWAP1 DUP2 MSTORE PUSH1 0x40 MLOAD SWAP1 DUP2 SWAP1 SUB PUSH1 0x20 ADD SWAP1 KECCAK256 PUSH1 0x9 ADD SLOAD PUSH1 0xFF PUSH1 0x1 PUSH1 0xA8 SHL SWAP1 SWAP2 DIV AND PUSH1 0x5 DUP2 GT ISZERO PUSH2 0x1B54 JUMPI PUSH2 0x1B54 PUSH2 0x360B JUMP JUMPDEST EQ PUSH2 0x1B8A JUMPI PUSH1 0x40 MLOAD PUSH3 0x461BCD PUSH1 0xE5 SHL DUP2 MSTORE PUSH1 0x20 PUSH1 0x4 DUP3 ADD MSTORE PUSH1 0x6 PUSH1 0x24 DUP3 ADD MSTORE PUSH6 0x737461747573 PUSH1 0xD0 SHL PUSH1 0x44 DUP3 ADD MSTORE PUSH1 0x64 ADD PUSH2 0xA33 JUMP JUMPDEST PUSH1 0x2 PUSH1 0x0 DUP4 DUP4 PUSH1 0x40 MLOAD PUSH2 0x1B9E SWAP3 SWAP2 SWAP1 PUSH2 0x3CC3 JUMP JUMPDEST SWAP1 DUP2 MSTORE PUSH1 0x40 MLOAD SWAP1 DUP2 SWAP1 SUB PUSH1 0x20 ADD SWAP1 KECCAK256 PUSH1 0x9 ADD DUP1 SLOAD PUSH1 0xFF PUSH1 0xA8 SHL NOT AND PUSH1 0x1 PUSH1 0xA8 SHL DUP4 PUSH1 0x5 DUP2 GT ISZERO PUSH2 0x1BD0 JUMPI PUSH2 0x1BD0 PUSH2 0x360B JUMP JUMPDEST MUL OR SWAP1 SSTORE POP PUSH1 0x2 PUSH1 0x10 PUSH1 0x0 DUP5 DUP5 PUSH1 0x40 MLOAD PUSH2 0x1BEB SWAP3 SWAP2 SWAP1 PUSH2 0x3CC3 JUMP JUMPDEST SWAP1 DUP2 MSTORE PUSH1 0x20 ADD PUSH1 0x40 MLOAD DUP1 SWAP2 SUB SWAP1 KECCAK256 PUSH1 0x8 ADD SLOAD DUP2 SLOAD DUP2 LT PUSH2 0x1C0D JUMPI PUSH2 0x1C0D PUSH2 0x3D72 JUMP JUMPDEST PUSH1 0x0 SWAP2 DUP3 MSTORE PUSH1 0x20 SWAP1 SWAP2 KECCAK256 PUSH1 0x9 PUSH1 0xA SWAP1 SWAP3 MUL ADD ADD DUP1 SLOAD PUSH1 0xFF PUSH1 0xA8 SHL NOT AND PUSH1 0x1 PUSH1 0xA8 SHL DUP4 PUSH1 0x5 DUP2 GT ISZERO PUSH2 0x1C40 JUMPI PUSH2 0x1C40 PUSH2 0x360B JUMP JUMPDEST MUL OR SWAP1 SSTORE POP PUSH32 0x39501081328FFE3EB02459AD6F6E90B69E23BA1422B574EE84C1F52B2FC0310 DUP3 DUP3 PUSH1 0x40 MLOAD PUSH2 0x1C76 SWAP3 SWAP2 SWAP1 PUSH2 0x3CFC JUMP JUMPDEST PUSH1 0x40 MLOAD DUP1 SWAP2 SUB SWAP1 LOG1 POP POP JUMP JUMPDEST DUP2 MLOAD PUSH1 0x20 DUP2 DUP5 ADD DUP2 ADD DUP1 MLOAD PUSH1 0x3 DUP3 MSTORE SWAP3 DUP3 ADD SWAP2 DUP6 ADD SWAP2 SWAP1 SWAP2 KECCAK256 SWAP2 SWAP1 MSTORE DUP1 SLOAD DUP3 SWAP1 DUP2 LT PUSH2 0x1CAD JUMPI PUSH1 0x0 DUP1 REVERT JUMPDEST PUSH1 0x0 SWAP2 DUP3 MSTORE PUSH1 0x20 SWAP1 SWAP2 KECCAK256 PUSH1 0x2 SWAP1 SWAP2 MUL ADD DUP1 SLOAD PUSH1 0x1 SWAP1 SWAP2 ADD SLOAD PUSH1 0x1 PUSH1 0x1 PUSH1 0xA0 SHL SUB SWAP1 SWAP2 AND SWAP3 POP SWAP1 POP DUP3 JUMP JUMPDEST PUSH1 0x6 PUSH1 0x20 MSTORE DUP2 PUSH1 0x0 MSTORE PUSH1 0x40 PUSH1 0x0 KECCAK256 DUP2 DUP2 SLOAD DUP2 LT PUSH2 0x1CF3 JUMPI PUSH1 0x0 DUP1 REVERT JUMPDEST SWAP1 PUSH1 0x0 MSTORE PUSH1 0x20 PUSH1 0x0 KECCAK256 SWAP1 PUSH1 0xA MUL ADD PUSH1 0x0 SWAP2 POP SWAP2 POP POP DUP1 PUSH1 0x0 ADD DUP1 SLOAD PUSH2 0x1D17 SWAP1 PUSH2 0x3E3C JUMP JUMPDEST DUP1 PUSH1 0x1F ADD PUSH1 0x20 DUP1 SWAP2 DIV MUL PUSH1 0x20 ADD PUSH1 0x40 MLOAD SWAP1 DUP2 ADD PUSH1 0x40 MSTORE DUP1 SWAP3 SWAP2 SWAP1 DUP2 DUP2 MSTORE PUSH1 0x20 ADD DUP3 DUP1 SLOAD PUSH2 0x1D43 SWAP1 PUSH2 0x3E3C JUMP JUMPDEST DUP1 ISZERO PUSH2 0x1D90 JUMPI DUP1 PUSH1 0x1F LT PUSH2 0x1D65 JUMPI PUSH2 0x100 DUP1 DUP4 SLOAD DIV MUL DUP4 MSTORE SWAP2 PUSH1 0x20 ADD SWAP2 PUSH2 0x1D90 JUMP JUMPDEST DUP3 ADD SWAP2 SWAP1 PUSH1 0x0 MSTORE PUSH1 0x20 PUSH1 0x0 KECCAK256 SWAP1 JUMPDEST DUP2 SLOAD DUP2 MSTORE SWAP1 PUSH1 0x1 ADD SWAP1 PUSH1 0x20 ADD DUP1 DUP4 GT PUSH2 0x1D73 JUMPI DUP3 SWAP1 SUB PUSH1 0x1F AND DUP3 ADD SWAP2 JUMPDEST POP POP POP POP POP SWAP1 DUP1 PUSH1 0x1 ADD DUP1 SLOAD PUSH2 0x1DA5 SWAP1 PUSH2 0x3E3C JUMP JUMPDEST DUP1 PUSH1 0x1F ADD PUSH1 0x20 DUP1 SWAP2 DIV MUL PUSH1 0x20 ADD PUSH1 0x40 MLOAD SWAP1 DUP2 ADD PUSH1 0x40 MSTORE DUP1 SWAP3 SWAP2 SWAP1 DUP2 DUP2 MSTORE PUSH1 0x20 ADD DUP3 DUP1 SLOAD PUSH2 0x1DD1 SWAP1 PUSH2 0x3E3C JUMP JUMPDEST DUP1 ISZERO PUSH2 0x1E1E JUMPI DUP1 PUSH1 0x1F LT PUSH2 0x1DF3 JUMPI PUSH2 0x100 DUP1 DUP4 SLOAD DIV MUL DUP4 MSTORE SWAP2 PUSH1 0x20 ADD SWAP2 PUSH2 0x1E1E JUMP JUMPDEST DUP3 ADD SWAP2 SWAP1 PUSH1 0x0 MSTORE PUSH1 0x20 PUSH1 0x0 KECCAK256 SWAP1 JUMPDEST DUP2 SLOAD DUP2 MSTORE SWAP1 PUSH1 0x1 ADD SWAP1 PUSH1 0x20 ADD DUP1 DUP4 GT PUSH2 0x1E01 JUMPI DUP3 SWAP1 SUB PUSH1 0x1F AND DUP3 ADD SWAP2 JUMPDEST POP POP POP PUSH1 0x2 DUP5 ADD SLOAD PUSH1 0x3 DUP6 ADD SLOAD PUSH1 0x4 DUP7 ADD SLOAD PUSH1 0x5 DUP8 ADD SLOAD PUSH1 0x6 DUP9 ADD SLOAD PUSH1 0x7 DUP10 ADD SLOAD PUSH1 0x8 DUP11 ADD SLOAD PUSH1 0x9 SWAP1 SWAP11 ADD SLOAD SWAP9 SWAP10 PUSH1 0x1 PUSH1 0x1 PUSH1 0xA0 SHL SUB SWAP7 DUP8 AND SWAP10 SWAP6 SWAP9 POP SWAP4 SWAP7 POP SWAP2 SWAP5 SWAP1 SWAP4 SWAP2 SWAP3 SWAP2 SWAP1 DUP2 AND SWAP1 PUSH1 0xFF PUSH1 0x1 PUSH1 0xA0 SHL DUP3 DIV DUP2 AND SWAP2 PUSH1 0x1 PUSH1 0xA8 SHL SWAP1 DIV AND DUP13 JUMP JUMPDEST PUSH1 0x7 SLOAD PUSH1 0x1 PUSH1 0x1 PUSH1 0xA0 SHL SUB AND CALLER EQ PUSH2 0x1ECF JUMPI PUSH1 0x40 MLOAD PUSH3 0x461BCD PUSH1 0xE5 SHL DUP2 MSTORE PUSH1 0x20 PUSH1 0x4 DUP3 ADD MSTORE PUSH1 0x12 PUSH1 0x24 DUP3 ADD MSTORE PUSH18 0x27A7262CAFAA27A827A9AFA6A0A720A3A2A9 PUSH1 0x71 SHL PUSH1 0x44 DUP3 ADD MSTORE PUSH1 0x64 ADD PUSH2 0xA33 JUMP JUMPDEST PUSH1 0x2 PUSH1 0x0 DUP6 DUP6 PUSH1 0x40 MLOAD PUSH2 0x1EE3 SWAP3 SWAP2 SWAP1 PUSH2 0x3CC3 JUMP JUMPDEST SWAP1 DUP2 MSTORE PUSH1 0x40 MLOAD SWAP1 DUP2 SWAP1 SUB PUSH1 0x20 ADD SWAP1 KECCAK256 PUSH1 0x9 ADD SLOAD PUSH1 0xFF PUSH1 0x1 PUSH1 0xA8 SHL SWAP1 SWAP2 DIV AND PUSH1 0x5 DUP2 GT ISZERO PUSH2 0x1F12 JUMPI PUSH2 0x1F12 PUSH2 0x360B JUMP JUMPDEST EQ PUSH2 0x1F34 JUMPI DUP4 DUP4 PUSH1 0x40 MLOAD PUSH4 0x2DC59421 PUSH1 0xE2 SHL DUP2 MSTORE PUSH1 0x4 ADD PUSH2 0xA33 SWAP3 SWAP2 SWAP1 PUSH2 0x3CFC JUMP JUMPDEST DUP1 PUSH1 0x1 DUP6 DUP6 PUSH1 0x40 MLOAD PUSH2 0x1F47 SWAP3 SWAP2 SWAP1 PUSH2 0x3CC3 JUMP JUMPDEST SWAP1 DUP2 MSTORE PUSH1 0x20 ADD PUSH1 0x40 MLOAD DUP1 SWAP2 SUB SWAP1 KECCAK256 PUSH1 0x0 PUSH2 0x100 EXP DUP2 SLOAD DUP2 PUSH1 0x1 PUSH1 0x1 PUSH1 0xA0 SHL SUB MUL NOT AND SWAP1 DUP4 PUSH1 0x1 PUSH1 0x1 PUSH1 0xA0 SHL SUB AND MUL OR SWAP1 SSTORE POP PUSH1 0x4 PUSH1 0x0 DUP6 DUP6 PUSH1 0x40 MLOAD PUSH2 0x1F8D SWAP3 SWAP2 SWAP1 PUSH2 0x3CC3 JUMP JUMPDEST SWAP1 DUP2 MSTORE PUSH1 0x40 MLOAD SWAP1 DUP2 SWAP1 SUB PUSH1 0x20 ADD SWAP1 KECCAK256 PUSH1 0x9 ADD DUP1 SLOAD PUSH1 0xFF PUSH1 0xA8 SHL NOT AND PUSH1 0x1 PUSH1 0xA8 SHL DUP4 PUSH1 0x5 DUP2 GT ISZERO PUSH2 0x1FBF JUMPI PUSH2 0x1FBF PUSH2 0x360B JUMP JUMPDEST MUL OR SWAP1 SSTORE POP PUSH1 0x4 PUSH1 0x10 PUSH1 0x0 DUP7 DUP7 PUSH1 0x40 MLOAD PUSH2 0x1FDA SWAP3 SWAP2 SWAP1 PUSH2 0x3CC3 JUMP JUMPDEST SWAP1 DUP2 MSTORE PUSH1 0x20 ADD PUSH1 0x40 MLOAD DUP1 SWAP2 SUB SWAP1 KECCAK256 PUSH1 0x8 ADD SLOAD DUP2 SLOAD DUP2 LT PUSH2 0x1FFC JUMPI PUSH2 0x1FFC PUSH2 0x3D72 JUMP JUMPDEST PUSH1 0x0 SWAP2 DUP3 MSTORE PUSH1 0x20 SWAP1 SWAP2 KECCAK256 PUSH1 0x9 PUSH1 0xA SWAP1 SWAP3 MUL ADD ADD DUP1 SLOAD PUSH1 0xFF PUSH1 0xA8 SHL NOT AND PUSH1 0x1 PUSH1 0xA8 SHL DUP4 PUSH1 0x5 DUP2 GT ISZERO PUSH2 0x202F JUMPI PUSH2 0x202F PUSH2 0x360B JUMP JUMPDEST MUL OR SWAP1 SSTORE POP PUSH1 0x6 PUSH1 0x0 DUP1 DUP7 DUP7 PUSH1 0x40 MLOAD PUSH2 0x2049 SWAP3 SWAP2 SWAP1 PUSH2 0x3CC3 JUMP JUMPDEST SWAP1 DUP2 MSTORE PUSH1 0x40 DUP1 MLOAD PUSH1 0x20 SWAP3 DUP2 SWAP1 SUB DUP4 ADD SWAP1 KECCAK256 PUSH1 0x2 ADD SLOAD PUSH1 0x1 PUSH1 0x1 PUSH1 0xA0 SHL SUB AND DUP4 MSTORE SWAP1 DUP3 ADD SWAP3 SWAP1 SWAP3 MSTORE DUP2 ADD PUSH1 0x0 SWAP1 DUP2 KECCAK256 SWAP2 MLOAD PUSH2 0x2086 SWAP1 DUP8 SWAP1 DUP8 SWAP1 PUSH2 0x3CC3 JUMP JUMPDEST SWAP1 DUP2 MSTORE PUSH1 0x40 MLOAD PUSH1 0x20 SWAP2 DUP2 SWAP1 SUB DUP3 ADD SWAP1 KECCAK256 DUP3 SLOAD PUSH1 0x1 DUP2 ADD DUP5 SSTORE PUSH1 0x0 SWAP4 DUP5 MSTORE SWAP2 SWAP1 SWAP3 KECCAK256 PUSH1 0xA SWAP1 SWAP2 MUL ADD DUP1 PUSH2 0x20B8 DUP4 DUP3 PUSH2 0x413F JUMP JUMPDEST POP PUSH1 0x1 DUP2 DUP2 ADD SWAP1 PUSH2 0x20CB SWAP1 DUP5 ADD DUP3 PUSH2 0x413F JUMP JUMPDEST POP PUSH1 0x2 DUP3 DUP2 ADD SLOAD SWAP1 DUP3 ADD DUP1 SLOAD PUSH1 0x1 PUSH1 0x1 PUSH1 0xA0 SHL SUB SWAP3 DUP4 AND PUSH1 0x1 PUSH1 0x1 PUSH1 0xA0 SHL SUB NOT SWAP2 DUP3 AND OR SWAP1 SWAP2 SSTORE PUSH1 0x3 DUP1 DUP6 ADD SLOAD SWAP1 DUP5 ADD SSTORE PUSH1 0x4 DUP1 DUP6 ADD SLOAD SWAP1 DUP5 ADD SSTORE PUSH1 0x5 DUP1 DUP6 ADD SLOAD DUP2 DUP6 ADD SSTORE PUSH1 0x6 DUP1 DUP7 ADD SLOAD SWAP1 DUP6 ADD SSTORE PUSH1 0x7 DUP1 DUP7 ADD SLOAD SWAP1 DUP6 ADD SSTORE PUSH1 0x8 DUP1 DUP7 ADD SLOAD SWAP1 DUP6 ADD SSTORE PUSH1 0x9 DUP1 DUP7 ADD DUP1 SLOAD SWAP2 DUP7 ADD DUP1 SLOAD SWAP3 SWAP1 SWAP6 AND SWAP4 DUP3 AND DUP5 OR DUP6 SSTORE DUP1 SLOAD PUSH21 0xFFFFFFFFFFFFFFFFFFFFFFFFFFFFFFFFFFFFFFFFFF NOT SWAP1 SWAP3 AND SWAP1 SWAP4 OR PUSH1 0x1 PUSH1 0xA0 SHL SWAP2 DUP3 SWAP1 DIV PUSH1 0xFF SWAP1 DUP2 AND SWAP1 SWAP3 MUL OR DUP1 DUP6 SSTORE SWAP3 SLOAD PUSH1 0x1 PUSH1 0xA8 SHL SWAP1 DUP2 SWAP1 DIV SWAP1 SWAP2 AND SWAP4 SWAP3 PUSH1 0xFF PUSH1 0xA8 SHL NOT AND SWAP2 DUP5 SWAP1 DUP2 GT ISZERO PUSH2 0x21A2 JUMPI PUSH2 0x21A2 PUSH2 0x360B JUMP JUMPDEST MUL OR SWAP1 SSTORE POP POP PUSH1 0x11 DUP1 SLOAD PUSH1 0x1 DUP2 ADD DUP3 SSTORE PUSH1 0x0 SWAP2 SWAP1 SWAP2 MSTORE PUSH32 0x31ECC21A745E3968A04E9570E4425BC18FA8019C68028196B546D1669C200C68 ADD SWAP1 POP PUSH2 0x21E7 DUP5 DUP7 DUP4 PUSH2 0x3EC1 JUMP JUMPDEST POP PUSH1 0x40 MLOAD PUSH32 0xD76805AA00000000000000000000000000000000000000000000000000000000 DUP2 MSTORE PUSH1 0x1 PUSH1 0x1 PUSH1 0xA0 SHL SUB DUP3 AND SWAP1 PUSH4 0xD76805AA SWAP1 PUSH2 0x222D SWAP1 DUP6 SWAP1 PUSH1 0x4 ADD PUSH2 0x43B2 JUMP JUMPDEST PUSH1 0x0 PUSH1 0x40 MLOAD DUP1 DUP4 SUB DUP2 PUSH1 0x0 DUP8 DUP1 EXTCODESIZE ISZERO DUP1 ISZERO PUSH2 0x2247 JUMPI PUSH1 0x0 DUP1 REVERT JUMPDEST POP GAS CALL ISZERO DUP1 ISZERO PUSH2 0x225B JUMPI RETURNDATASIZE PUSH1 0x0 DUP1 RETURNDATACOPY RETURNDATASIZE PUSH1 0x0 REVERT JUMPDEST POP POP PUSH1 0xF DUP1 SLOAD PUSH1 0x1 DUP2 ADD DUP3 SSTORE PUSH1 0x0 SWAP2 SWAP1 SWAP2 MSTORE DUP5 SWAP3 POP PUSH1 0xB MUL PUSH32 0x8D1108E10BCB7C27DDDFC02ED9D693A074039D026CF4EA4240B40F7D581AC802 ADD SWAP1 POP PUSH2 0x22A1 DUP3 DUP3 PUSH2 0x44B6 JUMP JUMPDEST POP POP PUSH32 0x44B55C2D9270546FAF6FF2F0ACAC078011883B82782D9B08DE2D3AF4543C2B18 DUP5 DUP5 PUSH1 0x40 MLOAD PUSH2 0x1037 SWAP3 SWAP2 SWAP1 PUSH2 0x3CFC JUMP JUMPDEST PUSH1 0x0 PUSH1 0x4 DUP4 DUP4 PUSH1 0x40 MLOAD PUSH2 0x22E8 SWAP3 SWAP2 SWAP1 PUSH2 0x3CC3 JUMP JUMPDEST SWAP1 DUP2 MSTORE PUSH1 0x20 ADD PUSH1 0x40 MLOAD DUP1 SWAP2 SUB SWAP1 KECCAK256 SLOAD SWAP1 POP JUMPDEST SWAP3 SWAP2 POP POP JUMP JUMPDEST PUSH1 0x7 SLOAD PUSH1 0x1 PUSH1 0x1 PUSH1 0xA0 SHL SUB AND CALLER EQ PUSH2 0x234F JUMPI PUSH1 0x40 MLOAD PUSH3 0x461BCD PUSH1 0xE5 SHL DUP2 MSTORE PUSH1 0x20 PUSH1 0x4 DUP3 ADD MSTORE PUSH1 0x12 PUSH1 0x24 DUP3 ADD MSTORE PUSH18 0x27A7262CAFAA27A827A9AFA6A0A720A3A2A9 PUSH1 0x71 SHL PUSH1 0x44 DUP3 ADD MSTORE PUSH1 0x64 ADD PUSH2 0xA33 JUMP JUMPDEST PUSH1 0xE SSTORE JUMP JUMPDEST PUSH1 0x7 SLOAD PUSH1 0x1 PUSH1 0x1 PUSH1 0xA0 SHL SUB AND CALLER EQ PUSH2 0x23A3 JUMPI PUSH1 0x40 MLOAD PUSH3 0x461BCD PUSH1 0xE5 SHL DUP2 MSTORE PUSH1 0x20 PUSH1 0x4 DUP3 ADD MSTORE PUSH1 0x12 PUSH1 0x24 DUP3 ADD MSTORE PUSH18 0x27A7262CAFAA27A827A9AFA6A0A720A3A2A9 PUSH1 0x71 SHL PUSH1 0x44 DUP3 ADD MSTORE PUSH1 0x64 ADD PUSH2 0xA33 JUMP JUMPDEST PUSH1 0x1 PUSH1 0x0 DUP4 DUP4 PUSH1 0x40 MLOAD PUSH2 0x23B7 SWAP3 SWAP2 SWAP1 PUSH2 0x3CC3 JUMP JUMPDEST SWAP1 DUP2 MSTORE PUSH1 0x40 MLOAD SWAP1 DUP2 SWAP1 SUB PUSH1 0x20 ADD SWAP1 KECCAK256 PUSH1 0x9 ADD SLOAD PUSH1 0xFF PUSH1 0x1 PUSH1 0xA8 SHL SWAP1 SWAP2 DIV AND PUSH1 0x5 DUP2 GT ISZERO PUSH2 0x23E6 JUMPI PUSH2 0x23E6 PUSH2 0x360B JUMP JUMPDEST EQ PUSH2 0x241C JUMPI PUSH1 0x40 MLOAD PUSH3 0x461BCD PUSH1 0xE5 SHL DUP2 MSTORE PUSH1 0x20 PUSH1 0x4 DUP3 ADD MSTORE PUSH1 0x6 PUSH1 0x24 DUP3 ADD MSTORE PUSH6 0x737461747573 PUSH1 0xD0 SHL PUSH1 0x44 DUP3 ADD MSTORE PUSH1 0x64 ADD PUSH2 0xA33 JUMP JUMPDEST PUSH1 0x3 PUSH1 0x0 DUP4 DUP4 PUSH1 0x40 MLOAD PUSH2 0x2430 SWAP3 SWAP2 SWAP1 PUSH2 0x3CC3 JUMP JUMPDEST SWAP1 DUP2 MSTORE PUSH1 0x40 MLOAD SWAP1 DUP2 SWAP1 SUB PUSH1 0x20 ADD SWAP1 KECCAK256 PUSH1 0x9 ADD DUP1 SLOAD PUSH1 0xFF PUSH1 0xA8 SHL NOT AND PUSH1 0x1 PUSH1 0xA8 SHL DUP4 PUSH1 0x5 DUP2 GT ISZERO PUSH2 0x2462 JUMPI PUSH2 0x2462 PUSH2 0x360B JUMP JUMPDEST MUL OR SWAP1 SSTORE POP PUSH1 0x3 PUSH1 0x10 PUSH1 0x0 DUP5 DUP5 PUSH1 0x40 MLOAD PUSH2 0x247D SWAP3 SWAP2 SWAP1 PUSH2 0x3CC3 JUMP JUMPDEST SWAP1 DUP2 MSTORE PUSH1 0x20 ADD PUSH1 0x40 MLOAD DUP1 SWAP2 SUB SWAP1 KECCAK256 PUSH1 0x8 ADD SLOAD DUP2 SLOAD DUP2 LT PUSH2 0x249F JUMPI PUSH2 0x249F PUSH2 0x3D72 JUMP JUMPDEST PUSH1 0x0 SWAP2 DUP3 MSTORE PUSH1 0x20 SWAP1 SWAP2 KECCAK256 PUSH1 0x9 PUSH1 0xA SWAP1 SWAP3 MUL ADD ADD DUP1 SLOAD PUSH1 0xFF PUSH1 0xA8 SHL NOT AND PUSH1 0x1 PUSH1 0xA8 SHL DUP4 PUSH1 0x5 DUP2 GT ISZERO PUSH2 0x24D2 JUMPI PUSH2 0x24D2 PUSH2 0x360B JUMP JUMPDEST MUL OR SWAP1 SSTORE POP PUSH32 0x735CCDD611541D36C82A3622BAAB7F58B8A0F5BE664555B0D9C95DDDE16096D3 DUP3 DUP3 PUSH1 0x40 MLOAD PUSH2 0x1C76 SWAP3 SWAP2 SWAP1 PUSH2 0x3CFC JUMP JUMPDEST PUSH1 0x7 SLOAD PUSH1 0x1 PUSH1 0x1 PUSH1 0xA0 SHL SUB AND CALLER EQ PUSH2 0x2557 JUMPI PUSH1 0x40 MLOAD PUSH3 0x461BCD PUSH1 0xE5 SHL DUP2 MSTORE PUSH1 0x20 PUSH1 0x4 DUP3 ADD MSTORE PUSH1 0x12 PUSH1 0x24 DUP3 ADD MSTORE PUSH18 0x27A7262CAFAA27A827A9AFA6A0A720A3A2A9 PUSH1 0x71 SHL PUSH1 0x44 DUP3 ADD MSTORE PUSH1 0x64 ADD PUSH2 0xA33 JUMP JUMPDEST PUSH1 0x1 PUSH1 0x1 PUSH1 0xA0 SHL SUB DUP2 AND PUSH2 0x256A JUMPI PUSH1 0x0 DUP1 REVERT JUMPDEST PUSH1 0xC DUP1 SLOAD PUSH1 0x1 PUSH1 0x1 PUSH1 0xA0 SHL SUB NOT AND PUSH1 0x1 PUSH1 0x1 PUSH1 0xA0 SHL SUB SWAP3 SWAP1 SWAP3 AND SWAP2 SWAP1 SWAP2 OR SWAP1 SSTORE JUMP JUMPDEST PUSH1 0x7 SLOAD PUSH1 0x1 PUSH1 0x1 PUSH1 0xA0 SHL SUB AND CALLER EQ PUSH2 0x25DB JUMPI PUSH1 0x40 MLOAD PUSH3 0x461BCD PUSH1 0xE5 SHL DUP2 MSTORE PUSH1 0x20 PUSH1 0x4 DUP3 ADD MSTORE PUSH1 0x12 PUSH1 0x24 DUP3 ADD MSTORE PUSH18 0x27A7262CAFAA27A827A9AFA6A0A720A3A2A9 PUSH1 0x71 SHL PUSH1 0x44 DUP3 ADD MSTORE PUSH1 0x64 ADD PUSH2 0xA33 JUMP JUMPDEST PUSH1 0x40 MLOAD PUSH32 0x68A2DA5100000000000000000000000000000000000000000000000000000000 DUP2 MSTORE PUSH1 0x4 DUP2 ADD DUP4 SWAP1 MSTORE PUSH1 0x1 PUSH1 0x1 PUSH1 0xA0 SHL SUB DUP3 AND SWAP1 PUSH4 0x68A2DA51 SWAP1 PUSH1 0x24 ADD PUSH1 0x0 PUSH1 0x40 MLOAD DUP1 DUP4 SUB DUP2 PUSH1 0x0 DUP8 DUP1 EXTCODESIZE ISZERO DUP1 ISZERO PUSH2 0x2636 JUMPI PUSH1 0x0 DUP1 REVERT JUMPDEST POP GAS CALL ISZERO DUP1 ISZERO PUSH2 0x264A JUMPI RETURNDATASIZE PUSH1 0x0 DUP1 RETURNDATACOPY RETURNDATASIZE PUSH1 0x0 REVERT JUMPDEST POP POP POP POP POP POP JUMP JUMPDEST DUP1 MLOAD PUSH1 0x20 DUP2 DUP4 ADD DUP2 ADD DUP1 MLOAD PUSH1 0x0 DUP3 MSTORE SWAP3 DUP3 ADD SWAP2 SWAP1 SWAP4 ADD KECCAK256 SWAP2 MSTORE DUP1 SLOAD DUP2 SWAP1 PUSH2 0x1D17 SWAP1 PUSH2 0x3E3C JUMP JUMPDEST PUSH1 0x7 SLOAD PUSH1 0x1 PUSH1 0x1 PUSH1 0xA0 SHL SUB AND CALLER EQ PUSH2 0x26C7 JUMPI PUSH1 0x40 MLOAD PUSH3 0x461BCD PUSH1 0xE5 SHL DUP2 MSTORE PUSH1 0x20 PUSH1 0x4 DUP3 ADD MSTORE PUSH1 0x12 PUSH1 0x24 DUP3 ADD MSTORE PUSH18 0x27A7262CAFAA27A827A9AFA6A0A720A3A2A9 PUSH1 0x71 SHL PUSH1 0x44 DUP3 ADD MSTORE PUSH1 0x64 ADD PUSH2 0xA33 JUMP JUMPDEST DUP1 PUSH1 0x1 PUSH1 0x1 PUSH1 0xA0 SHL SUB AND PUSH4 0x442447CA PUSH1 0x40 MLOAD DUP2 PUSH4 0xFFFFFFFF AND PUSH1 0xE0 SHL DUP2 MSTORE PUSH1 0x4 ADD PUSH1 0x0 PUSH1 0x40 MLOAD DUP1 DUP4 SUB DUP2 PUSH1 0x0 DUP8 DUP1 EXTCODESIZE ISZERO DUP1 ISZERO PUSH2 0x160A JUMPI PUSH1 0x0 DUP1 REVERT JUMPDEST PUSH1 0x60 PUSH1 0x3 DUP4 DUP4 PUSH1 0x40 MLOAD PUSH2 0x2716 SWAP3 SWAP2 SWAP1 PUSH2 0x3CC3 JUMP JUMPDEST SWAP1 DUP2 MSTORE PUSH1 0x20 ADD PUSH1 0x40 MLOAD DUP1 SWAP2 SUB SWAP1 KECCAK256 DUP1 SLOAD DUP1 PUSH1 0x20 MUL PUSH1 0x20 ADD PUSH1 0x40 MLOAD SWAP1 DUP2 ADD PUSH1 0x40 MSTORE DUP1 SWAP3 SWAP2 SWAP1 DUP2 DUP2 MSTORE PUSH1 0x20 ADD PUSH1 0x0 SWAP1 JUMPDEST DUP3 DUP3 LT ISZERO PUSH2 0x278C JUMPI PUSH1 0x0 DUP5 DUP2 MSTORE PUSH1 0x20 SWAP1 DUP2 SWAP1 KECCAK256 PUSH1 0x40 DUP1 MLOAD DUP1 DUP3 ADD SWAP1 SWAP2 MSTORE PUSH1 0x2 DUP6 MUL SWAP1 SWAP2 ADD DUP1 SLOAD PUSH1 0x1 PUSH1 0x1 PUSH1 0xA0 SHL SUB AND DUP3 MSTORE PUSH1 0x1 SWAP1 DUP2 ADD SLOAD DUP3 DUP5 ADD MSTORE SWAP1 DUP4 MSTORE SWAP1 SWAP3 ADD SWAP2 ADD PUSH2 0x2744 JUMP JUMPDEST POP POP POP POP SWAP1 POP SWAP3 SWAP2 POP POP JUMP JUMPDEST PUSH1 0x7 SLOAD PUSH1 0x1 PUSH1 0x1 PUSH1 0xA0 SHL SUB AND CALLER EQ PUSH2 0x27E7 JUMPI PUSH1 0x40 MLOAD PUSH3 0x461BCD PUSH1 0xE5 SHL DUP2 MSTORE PUSH1 0x20 PUSH1 0x4 DUP3 ADD MSTORE PUSH1 0x12 PUSH1 0x24 DUP3 ADD MSTORE PUSH18 0x27A7262CAFAA27A827A9AFA6A0A720A3A2A9 PUSH1 0x71 SHL PUSH1 0x44 DUP3 ADD MSTORE PUSH1 0x64 ADD PUSH2 0xA33 JUMP JUMPDEST PUSH1 0x8 SLOAD PUSH1 0x40 DUP1 MLOAD PUSH32 0xCFDE189000000000000000000000000000000000000000000000000000000000 DUP2 MSTORE PUSH1 0x4 DUP2 ADD SWAP2 SWAP1 SWAP2 MSTORE PUSH1 0x7 PUSH1 0x44 DUP3 ADD MSTORE PUSH32 0x4D414E4147455200000000000000000000000000000000000000000000000000 PUSH1 0x64 DUP3 ADD MSTORE PUSH1 0x1 PUSH1 0x1 PUSH1 0xA0 SHL SUB DUP4 DUP2 AND PUSH1 0x24 DUP4 ADD MSTORE SWAP1 SWAP2 AND SWAP1 PUSH4 0xCFDE1890 SWAP1 PUSH1 0x84 ADD PUSH2 0x15F0 JUMP JUMPDEST PUSH1 0x7 SLOAD PUSH1 0x1 PUSH1 0x1 PUSH1 0xA0 SHL SUB AND CALLER EQ PUSH2 0x28B7 JUMPI PUSH1 0x40 MLOAD PUSH3 0x461BCD PUSH1 0xE5 SHL DUP2 MSTORE PUSH1 0x20 PUSH1 0x4 DUP3 ADD MSTORE PUSH1 0x12 PUSH1 0x24 DUP3 ADD MSTORE PUSH18 0x27A7262CAFAA27A827A9AFA6A0A720A3A2A9 PUSH1 0x71 SHL PUSH1 0x44 DUP3 ADD MSTORE PUSH1 0x64 ADD PUSH2 0xA33 JUMP JUMPDEST PUSH1 0x4 PUSH1 0x0 DUP5 DUP5 PUSH1 0x40 MLOAD PUSH2 0x28CB SWAP3 SWAP2 SWAP1 PUSH2 0x3CC3 JUMP JUMPDEST SWAP1 DUP2 MSTORE PUSH1 0x40 MLOAD SWAP1 DUP2 SWAP1 SUB PUSH1 0x20 ADD SWAP1 KECCAK256 PUSH1 0x9 ADD SLOAD PUSH1 0xFF PUSH1 0x1 PUSH1 0xA8 SHL SWAP1 SWAP2 DIV AND PUSH1 0x5 DUP2 GT ISZERO PUSH2 0x28FA JUMPI PUSH2 0x28FA PUSH2 0x360B JUMP JUMPDEST EQ PUSH2 0x291C JUMPI DUP3 DUP3 PUSH1 0x40 MLOAD PUSH4 0x2DC59421 PUSH1 0xE2 SHL DUP2 MSTORE PUSH1 0x4 ADD PUSH2 0xA33 SWAP3 SWAP2 SWAP1 PUSH2 0x3CFC JUMP JUMPDEST PUSH1 0x5 PUSH1 0x0 DUP5 DUP5 PUSH1 0x40 MLOAD PUSH2 0x2930 SWAP3 SWAP2 SWAP1 PUSH2 0x3CC3 JUMP JUMPDEST SWAP1 DUP2 MSTORE PUSH1 0x40 MLOAD SWAP1 DUP2 SWAP1 SUB PUSH1 0x20 ADD SWAP1 KECCAK256 PUSH1 0x9 ADD DUP1 SLOAD PUSH1 0xFF PUSH1 0xA8 SHL NOT AND PUSH1 0x1 PUSH1 0xA8 SHL DUP4 PUSH1 0x5 DUP2 GT ISZERO PUSH2 0x2962 JUMPI PUSH2 0x2962 PUSH2 0x360B JUMP JUMPDEST MUL OR SWAP1 SSTORE POP PUSH1 0x5 PUSH1 0x10 PUSH1 0x0 DUP6 DUP6 PUSH1 0x40 MLOAD PUSH2 0x297D SWAP3 SWAP2 SWAP1 PUSH2 0x3CC3 JUMP JUMPDEST SWAP1 DUP2 MSTORE PUSH1 0x20 ADD PUSH1 0x40 MLOAD DUP1 SWAP2 SUB SWAP1 KECCAK256 PUSH1 0x8 ADD SLOAD DUP2 SLOAD DUP2 LT PUSH2 0x299F JUMPI PUSH2 0x299F PUSH2 0x3D72 JUMP JUMPDEST PUSH1 0x0 SWAP2 DUP3 MSTORE PUSH1 0x20 SWAP1 SWAP2 KECCAK256 PUSH1 0x9 PUSH1 0xA SWAP1 SWAP3 MUL ADD ADD DUP1 SLOAD PUSH1 0xFF PUSH1 0xA8 SHL NOT AND PUSH1 0x1 PUSH1 0xA8 SHL DUP4 PUSH1 0x5 DUP2 GT ISZERO PUSH2 0x29D2 JUMPI PUSH2 0x29D2 PUSH2 0x360B JUMP JUMPDEST MUL OR SWAP1 SSTORE POP PUSH1 0x5 PUSH1 0x6 PUSH1 0x0 DUP1 DUP7 DUP7 PUSH1 0x40 MLOAD PUSH2 0x29EE SWAP3 SWAP2 SWAP1 PUSH2 0x3CC3 JUMP JUMPDEST SWAP1 DUP2 MSTORE PUSH1 0x40 DUP1 MLOAD PUSH1 0x20 SWAP3 DUP2 SWAP1 SUB DUP4 ADD SWAP1 KECCAK256 PUSH1 0x2 ADD SLOAD PUSH1 0x1 PUSH1 0x1 PUSH1 0xA0 SHL SUB AND DUP4 MSTORE SWAP1 DUP3 ADD SWAP3 SWAP1 SWAP3 MSTORE DUP2 ADD PUSH1 0x0 SWAP1 DUP2 KECCAK256 SWAP2 MLOAD PUSH2 0x2A2B SWAP1 DUP8 SWAP1 DUP8 SWAP1 PUSH2 0x3CC3 JUMP JUMPDEST SWAP1 DUP2 MSTORE PUSH1 0x20 ADD PUSH1 0x40 MLOAD DUP1 SWAP2 SUB SWAP1 KECCAK256 PUSH1 0x8 ADD SLOAD DUP2 SLOAD DUP2 LT PUSH2 0x2A4D JUMPI PUSH2 0x2A4D PUSH2 0x3D72 JUMP JUMPDEST PUSH1 0x0 SWAP2 DUP3 MSTORE PUSH1 0x20 SWAP1 SWAP2 KECCAK256 PUSH1 0x9 PUSH1 0xA SWAP1 SWAP3 MUL ADD ADD DUP1 SLOAD PUSH1 0xFF PUSH1 0xA8 SHL NOT AND PUSH1 0x1 PUSH1 0xA8 SHL DUP4 PUSH1 0x5 DUP2 GT ISZERO PUSH2 0x2A80 JUMPI PUSH2 0x2A80 PUSH2 0x360B JUMP JUMPDEST MUL OR SWAP1 SSTORE POP DUP1 PUSH1 0x1 PUSH1 0x1 PUSH1 0xA0 SHL SUB AND PUSH4 0xBE040FB0 PUSH1 0x40 MLOAD DUP2 PUSH4 0xFFFFFFFF AND PUSH1 0xE0 SHL DUP2 MSTORE PUSH1 0x4 ADD PUSH1 0x0 PUSH1 0x40 MLOAD DUP1 DUP4 SUB DUP2 PUSH1 0x0 DUP8 DUP1 EXTCODESIZE ISZERO DUP1 ISZERO PUSH2 0x2AC0 JUMPI PUSH1 0x0 DUP1 REVERT JUMPDEST POP GAS CALL ISZERO DUP1 ISZERO PUSH2 0x2AD4 JUMPI RETURNDATASIZE PUSH1 0x0 DUP1 RETURNDATACOPY RETURNDATASIZE PUSH1 0x0 REVERT JUMPDEST POP POP POP POP PUSH1 0x0 JUMPDEST PUSH1 0x3 DUP5 DUP5 PUSH1 0x40 MLOAD PUSH2 0x2AED SWAP3 SWAP2 SWAP1 PUSH2 0x3CC3 JUMP JUMPDEST SWAP1 DUP2 MSTORE PUSH1 0x40 MLOAD SWAP1 DUP2 SWAP1 SUB PUSH1 0x20 ADD SWAP1 KECCAK256 SLOAD DUP2 LT ISZERO PUSH2 0x2C84 JUMPI PUSH1 0x0 PUSH1 0x3 DUP6 DUP6 PUSH1 0x40 MLOAD PUSH2 0x2B18 SWAP3 SWAP2 SWAP1 PUSH2 0x3CC3 JUMP JUMPDEST SWAP1 DUP2 MSTORE PUSH1 0x20 ADD PUSH1 0x40 MLOAD DUP1 SWAP2 SUB SWAP1 KECCAK256 DUP3 DUP2 SLOAD DUP2 LT PUSH2 0x2B37 JUMPI PUSH2 0x2B37 PUSH2 0x3D72 JUMP JUMPDEST SWAP1 PUSH1 0x0 MSTORE PUSH1 0x20 PUSH1 0x0 KECCAK256 SWAP1 PUSH1 0x2 MUL ADD PUSH1 0x1 ADD SLOAD SWAP1 POP PUSH1 0x0 PUSH1 0x3 DUP7 DUP7 PUSH1 0x40 MLOAD PUSH2 0x2B5F SWAP3 SWAP2 SWAP1 PUSH2 0x3CC3 JUMP JUMPDEST SWAP1 DUP2 MSTORE PUSH1 0x20 ADD PUSH1 0x40 MLOAD DUP1 SWAP2 SUB SWAP1 KECCAK256 DUP4 DUP2 SLOAD DUP2 LT PUSH2 0x2B7E JUMPI PUSH2 0x2B7E PUSH2 0x3D72 JUMP JUMPDEST PUSH1 0x0 SWAP2 DUP3 MSTORE PUSH1 0x20 SWAP1 SWAP2 KECCAK256 PUSH1 0x2 SWAP1 SWAP2 MUL ADD SLOAD PUSH1 0x1 PUSH1 0x1 PUSH1 0xA0 SHL SUB AND SWAP1 POP DUP2 ISZERO PUSH2 0x2C6F JUMPI PUSH1 0x0 DUP7 DUP7 PUSH1 0x40 MLOAD PUSH2 0x2BB2 SWAP3 SWAP2 SWAP1 PUSH2 0x3CC3 JUMP JUMPDEST SWAP1 DUP2 MSTORE PUSH1 0x40 MLOAD SWAP1 DUP2 SWAP1 SUB PUSH1 0x20 ADD SWAP1 KECCAK256 PUSH1 0x9 ADD SLOAD PUSH1 0x1 PUSH1 0x1 PUSH1 0xA0 SHL SUB AND PUSH4 0xA9059CBB DUP3 PUSH2 0x2BE6 DUP6 PUSH8 0xDE0B6B3A7640000 PUSH2 0x3D26 JUMP JUMPDEST PUSH1 0x40 MLOAD PUSH32 0xFFFFFFFF00000000000000000000000000000000000000000000000000000000 PUSH1 0xE0 DUP6 SWAP1 SHL AND DUP2 MSTORE PUSH1 0x1 PUSH1 0x1 PUSH1 0xA0 SHL SUB SWAP1 SWAP3 AND PUSH1 0x4 DUP4 ADD MSTORE PUSH1 0x24 DUP3 ADD MSTORE PUSH1 0x44 ADD PUSH1 0x20 PUSH1 0x40 MLOAD DUP1 DUP4 SUB DUP2 PUSH1 0x0 DUP8 GAS CALL ISZERO DUP1 ISZERO PUSH2 0x2C49 JUMPI RETURNDATASIZE PUSH1 0x0 DUP1 RETURNDATACOPY RETURNDATASIZE PUSH1 0x0 REVERT JUMPDEST POP POP POP POP PUSH1 0x40 MLOAD RETURNDATASIZE PUSH1 0x1F NOT PUSH1 0x1F DUP3 ADD AND DUP3 ADD DUP1 PUSH1 0x40 MSTORE POP DUP2 ADD SWAP1 PUSH2 0x2C6D SWAP2 SWAP1 PUSH2 0x3CA1 JUMP JUMPDEST POP JUMPDEST POP POP DUP1 DUP1 PUSH2 0x2C7C SWAP1 PUSH2 0x459E JUMP JUMPDEST SWAP2 POP POP PUSH2 0x2ADB JUMP JUMPDEST POP PUSH32 0xDFDF42FF0D0EB3E6EC5B40D8CF21FB2F7102B67E5E2D56AB36E817F807213C5B DUP4 DUP4 PUSH1 0x40 MLOAD PUSH2 0x143B SWAP3 SWAP2 SWAP1 PUSH2 0x3CFC JUMP JUMPDEST PUSH2 0x2CBE PUSH2 0x3128 JUMP JUMPDEST PUSH1 0x0 DUP3 PUSH1 0x40 MLOAD PUSH2 0x2CCE SWAP2 SWAP1 PUSH2 0x3DD9 JUMP JUMPDEST SWAP1 DUP2 MSTORE PUSH1 0x20 ADD PUSH1 0x40 MLOAD DUP1 SWAP2 SUB SWAP1 KECCAK256 PUSH1 0x40 MLOAD DUP1 PUSH2 0x180 ADD PUSH1 0x40 MSTORE SWAP1 DUP2 PUSH1 0x0 DUP3 ADD DUP1 SLOAD PUSH2 0x2CF8 SWAP1 PUSH2 0x3E3C JUMP JUMPDEST DUP1 PUSH1 0x1F ADD PUSH1 0x20 DUP1 SWAP2 DIV MUL PUSH1 0x20 ADD PUSH1 0x40 MLOAD SWAP1 DUP2 ADD PUSH1 0x40 MSTORE DUP1 SWAP3 SWAP2 SWAP1 DUP2 DUP2 MSTORE PUSH1 0x20 ADD DUP3 DUP1 SLOAD PUSH2 0x2D24 SWAP1 PUSH2 0x3E3C JUMP JUMPDEST DUP1 ISZERO PUSH2 0x2D71 JUMPI DUP1 PUSH1 0x1F LT PUSH2 0x2D46 JUMPI PUSH2 0x100 DUP1 DUP4 SLOAD DIV MUL DUP4 MSTORE SWAP2 PUSH1 0x20 ADD SWAP2 PUSH2 0x2D71 JUMP JUMPDEST DUP3 ADD SWAP2 SWAP1 PUSH1 0x0 MSTORE PUSH1 0x20 PUSH1 0x0 KECCAK256 SWAP1 JUMPDEST DUP2 SLOAD DUP2 MSTORE SWAP1 PUSH1 0x1 ADD SWAP1 PUSH1 0x20 ADD DUP1 DUP4 GT PUSH2 0x2D54 JUMPI DUP3 SWAP1 SUB PUSH1 0x1F AND DUP3 ADD SWAP2 JUMPDEST POP POP POP POP POP DUP2 MSTORE PUSH1 0x20 ADD PUSH1 0x1 DUP3 ADD DUP1 SLOAD PUSH2 0x2D8A SWAP1 PUSH2 0x3E3C JUMP JUMPDEST DUP1 PUSH1 0x1F ADD PUSH1 0x20 DUP1 SWAP2 DIV MUL PUSH1 0x20 ADD PUSH1 0x40 MLOAD SWAP1 DUP2 ADD PUSH1 0x40 MSTORE DUP1 SWAP3 SWAP2 SWAP1 DUP2 DUP2 MSTORE PUSH1 0x20 ADD DUP3 DUP1 SLOAD PUSH2 0x2DB6 SWAP1 PUSH2 0x3E3C JUMP JUMPDEST DUP1 ISZERO PUSH2 0x2E03 JUMPI DUP1 PUSH1 0x1F LT PUSH2 0x2DD8 JUMPI PUSH2 0x100 DUP1 DUP4 SLOAD DIV MUL DUP4 MSTORE SWAP2 PUSH1 0x20 ADD SWAP2 PUSH2 0x2E03 JUMP JUMPDEST DUP3 ADD SWAP2 SWAP1 PUSH1 0x0 MSTORE PUSH1 0x20 PUSH1 0x0 KECCAK256 SWAP1 JUMPDEST DUP2 SLOAD DUP2 MSTORE SWAP1 PUSH1 0x1 ADD SWAP1 PUSH1 0x20 ADD DUP1 DUP4 GT PUSH2 0x2DE6 JUMPI DUP3 SWAP1 SUB PUSH1 0x1F AND DUP3 ADD SWAP2 JUMPDEST POP POP POP SWAP2 DUP4 MSTORE POP POP PUSH1 0x2 DUP3 ADD SLOAD PUSH1 0x1 PUSH1 0x1 PUSH1 0xA0 SHL SUB SWAP1 DUP2 AND PUSH1 0x20 DUP4 ADD MSTORE PUSH1 0x3 DUP4 ADD SLOAD PUSH1 0x40 DUP4 ADD MSTORE PUSH1 0x4 DUP4 ADD SLOAD PUSH1 0x60 DUP4 ADD MSTORE PUSH1 0x5 DUP1 DUP5 ADD SLOAD PUSH1 0x80 DUP5 ADD MSTORE PUSH1 0x6 DUP5 ADD SLOAD PUSH1 0xA0 DUP5 ADD MSTORE PUSH1 0x7 DUP5 ADD SLOAD PUSH1 0xC0 DUP5 ADD MSTORE PUSH1 0x8 DUP5 ADD SLOAD PUSH1 0xE0 DUP5 ADD MSTORE PUSH1 0x9 DUP5 ADD SLOAD SWAP2 DUP3 AND PUSH2 0x100 DUP5 ADD MSTORE PUSH1 0xFF PUSH1 0x1 PUSH1 0xA0 SHL DUP4 DIV DUP2 AND PUSH2 0x120 DUP6 ADD MSTORE PUSH2 0x140 SWAP1 SWAP4 ADD SWAP3 PUSH1 0x1 PUSH1 0xA8 SHL SWAP1 SWAP3 DIV SWAP1 SWAP2 AND SWAP1 DUP2 GT ISZERO PUSH2 0x2E9E JUMPI PUSH2 0x2E9E PUSH2 0x360B JUMP JUMPDEST PUSH1 0x5 DUP2 GT ISZERO PUSH2 0x2EAF JUMPI PUSH2 0x2EAF PUSH2 0x360B JUMP JUMPDEST SWAP1 MSTORE POP SWAP3 SWAP2 POP POP JUMP JUMPDEST PUSH1 0x60 PUSH1 0xF DUP1 SLOAD DUP1 PUSH1 0x20 MUL PUSH1 0x20 ADD PUSH1 0x40 MLOAD SWAP1 DUP2 ADD PUSH1 0x40 MSTORE DUP1 SWAP3 SWAP2 SWAP1 DUP2 DUP2 MSTORE PUSH1 0x20 ADD PUSH1 0x0 SWAP1 JUMPDEST DUP3 DUP3 LT ISZERO PUSH2 0x170C JUMPI DUP4 DUP3 SWAP1 PUSH1 0x0 MSTORE PUSH1 0x20 PUSH1 0x0 KECCAK256 SWAP1 PUSH1 0xB MUL ADD PUSH1 0x40 MLOAD DUP1 PUSH2 0x160 ADD PUSH1 0x40 MSTORE SWAP1 DUP2 PUSH1 0x0 DUP3 ADD DUP1 SLOAD PUSH2 0x2F10 SWAP1 PUSH2 0x3E3C JUMP JUMPDEST DUP1 PUSH1 0x1F ADD PUSH1 0x20 DUP1 SWAP2 DIV MUL PUSH1 0x20 ADD PUSH1 0x40 MLOAD SWAP1 DUP2 ADD PUSH1 0x40 MSTORE DUP1 SWAP3 SWAP2 SWAP1 DUP2 DUP2 MSTORE PUSH1 0x20 ADD DUP3 DUP1 SLOAD PUSH2 0x2F3C SWAP1 PUSH2 0x3E3C JUMP JUMPDEST DUP1 ISZERO PUSH2 0x2F89 JUMPI DUP1 PUSH1 0x1F LT PUSH2 0x2F5E JUMPI PUSH2 0x100 DUP1 DUP4 SLOAD DIV MUL DUP4 MSTORE SWAP2 PUSH1 0x20 ADD SWAP2 PUSH2 0x2F89 JUMP JUMPDEST DUP3 ADD SWAP2 SWAP1 PUSH1 0x0 MSTORE PUSH1 0x20 PUSH1 0x0 KECCAK256 SWAP1 JUMPDEST DUP2 SLOAD DUP2 MSTORE SWAP1 PUSH1 0x1 ADD SWAP1 PUSH1 0x20 ADD DUP1 DUP4 GT PUSH2 0x2F6C JUMPI DUP3 SWAP1 SUB PUSH1 0x1F AND DUP3 ADD SWAP2 JUMPDEST POP POP POP POP POP DUP2 MSTORE PUSH1 0x20 ADD PUSH1 0x1 DUP3 ADD DUP1 SLOAD PUSH2 0x2FA2 SWAP1 PUSH2 0x3E3C JUMP JUMPDEST DUP1 PUSH1 0x1F ADD PUSH1 0x20 DUP1 SWAP2 DIV MUL PUSH1 0x20 ADD PUSH1 0x40 MLOAD SWAP1 DUP2 ADD PUSH1 0x40 MSTORE DUP1 SWAP3 SWAP2 SWAP1 DUP2 DUP2 MSTORE PUSH1 0x20 ADD DUP3 DUP1 SLOAD PUSH2 0x2FCE SWAP1 PUSH2 0x3E3C JUMP JUMPDEST DUP1 ISZERO PUSH2 0x301B JUMPI DUP1 PUSH1 0x1F LT PUSH2 0x2FF0 JUMPI PUSH2 0x100 DUP1 DUP4 SLOAD DIV MUL DUP4 MSTORE SWAP2 PUSH1 0x20 ADD SWAP2 PUSH2 0x301B JUMP JUMPDEST DUP3 ADD SWAP2 SWAP1 PUSH1 0x0 MSTORE PUSH1 0x20 PUSH1 0x0 KECCAK256 SWAP1 JUMPDEST DUP2 SLOAD DUP2 MSTORE SWAP1 PUSH1 0x1 ADD SWAP1 PUSH1 0x20 ADD DUP1 DUP4 GT PUSH2 0x2FFE JUMPI DUP3 SWAP1 SUB PUSH1 0x1F AND DUP3 ADD SWAP2 JUMPDEST POP POP POP POP POP DUP2 MSTORE PUSH1 0x20 ADD PUSH1 0x2 DUP3 ADD DUP1 SLOAD PUSH2 0x3034 SWAP1 PUSH2 0x3E3C JUMP JUMPDEST DUP1 PUSH1 0x1F ADD PUSH1 0x20 DUP1 SWAP2 DIV MUL PUSH1 0x20 ADD PUSH1 0x40 MLOAD SWAP1 DUP2 ADD PUSH1 0x40 MSTORE DUP1 SWAP3 SWAP2 SWAP1 DUP2 DUP2 MSTORE PUSH1 0x20 ADD DUP3 DUP1 SLOAD PUSH2 0x3060 SWAP1 PUSH2 0x3E3C JUMP JUMPDEST DUP1 ISZERO PUSH2 0x30AD JUMPI DUP1 PUSH1 0x1F LT PUSH2 0x3082 JUMPI PUSH2 0x100 DUP1 DUP4 SLOAD DIV MUL DUP4 MSTORE SWAP2 PUSH1 0x20 ADD SWAP2 PUSH2 0x30AD JUMP JUMPDEST DUP3 ADD SWAP2 SWAP1 PUSH1 0x0 MSTORE PUSH1 0x20 PUSH1 0x0 KECCAK256 SWAP1 JUMPDEST DUP2 SLOAD DUP2 MSTORE SWAP1 PUSH1 0x1 ADD SWAP1 PUSH1 0x20 ADD DUP1 DUP4 GT PUSH2 0x3090 JUMPI DUP3 SWAP1 SUB PUSH1 0x1F AND DUP3 ADD SWAP2 JUMPDEST POP POP POP SWAP2 DUP4 MSTORE POP POP PUSH1 0x3 DUP3 ADD SLOAD PUSH1 0x1 PUSH1 0x1 PUSH1 0xA0 SHL SUB AND PUSH1 0x20 DUP1 DUP4 ADD SWAP2 SWAP1 SWAP2 MSTORE PUSH1 0x4 DUP4 ADD SLOAD PUSH1 0x40 DUP4 ADD MSTORE PUSH1 0x5 DUP4 ADD SLOAD PUSH1 0x60 DUP4 ADD MSTORE PUSH1 0x6 DUP4 ADD SLOAD PUSH1 0x80 DUP4 ADD MSTORE PUSH1 0x7 DUP4 ADD SLOAD PUSH1 0xFF AND PUSH1 0xA0 DUP4 ADD MSTORE PUSH1 0x8 DUP4 ADD SLOAD PUSH1 0xC0 DUP4 ADD MSTORE PUSH1 0x9 DUP4 ADD SLOAD PUSH1 0xE0 DUP4 ADD MSTORE PUSH1 0xA SWAP1 SWAP3 ADD SLOAD PUSH2 0x100 SWAP1 SWAP2 ADD MSTORE SWAP1 DUP3 MSTORE PUSH1 0x1 SWAP3 SWAP1 SWAP3 ADD SWAP2 ADD PUSH2 0x2EDC JUMP JUMPDEST PUSH1 0x40 MLOAD DUP1 PUSH2 0x180 ADD PUSH1 0x40 MSTORE DUP1 PUSH1 0x60 DUP2 MSTORE PUSH1 0x20 ADD PUSH1 0x60 DUP2 MSTORE PUSH1 0x20 ADD PUSH1 0x0 PUSH1 0x1 PUSH1 0x1 PUSH1 0xA0 SHL SUB AND DUP2 MSTORE PUSH1 0x20 ADD PUSH1 0x0 DUP2 MSTORE PUSH1 0x20 ADD PUSH1 0x0 DUP2 MSTORE PUSH1 0x20 ADD PUSH1 0x0 DUP2 MSTORE PUSH1 0x20 ADD PUSH1 0x0 DUP2 MSTORE PUSH1 0x20 ADD PUSH1 0x0 DUP2 MSTORE PUSH1 0x20 ADD PUSH1 0x0 DUP2 MSTORE PUSH1 0x20 ADD PUSH1 0x0 PUSH1 0x1 PUSH1 0x1 PUSH1 0xA0 SHL SUB AND DUP2 MSTORE PUSH1 0x20 ADD PUSH1 0x0 PUSH1 0xFF AND DUP2 MSTORE PUSH1 0x20 ADD PUSH1 0x0 PUSH1 0x5 DUP2 GT ISZERO PUSH2 0x31A9 JUMPI PUSH2 0x31A9 PUSH2 0x360B JUMP JUMPDEST SWAP1 MSTORE SWAP1 JUMP JUMPDEST PUSH1 0x1 PUSH1 0x1 PUSH1 0xA0 SHL SUB DUP2 AND DUP2 EQ PUSH2 0x31C3 JUMPI PUSH1 0x0 DUP1 REVERT JUMPDEST POP JUMP JUMPDEST DUP1 CALLDATALOAD PUSH2 0x31D1 DUP2 PUSH2 0x31AE JUMP JUMPDEST SWAP2 SWAP1 POP JUMP JUMPDEST PUSH4 0x4E487B71 PUSH1 0xE0 SHL PUSH1 0x0 MSTORE PUSH1 0x41 PUSH1 0x4 MSTORE PUSH1 0x24 PUSH1 0x0 REVERT JUMPDEST PUSH1 0x40 MLOAD PUSH2 0x180 DUP2 ADD PUSH8 0xFFFFFFFFFFFFFFFF DUP2 GT DUP3 DUP3 LT OR ISZERO PUSH2 0x3210 JUMPI PUSH2 0x3210 PUSH2 0x31D6 JUMP JUMPDEST PUSH1 0x40 MSTORE SWAP1 JUMP JUMPDEST PUSH1 0x0 DUP3 PUSH1 0x1F DUP4 ADD SLT PUSH2 0x3227 JUMPI PUSH1 0x0 DUP1 REVERT JUMPDEST DUP2 CALLDATALOAD PUSH8 0xFFFFFFFFFFFFFFFF DUP1 DUP3 GT ISZERO PUSH2 0x3242 JUMPI PUSH2 0x3242 PUSH2 0x31D6 JUMP JUMPDEST PUSH1 0x40 MLOAD PUSH1 0x1F DUP4 ADD PUSH1 0x1F NOT SWAP1 DUP2 AND PUSH1 0x3F ADD AND DUP2 ADD SWAP1 DUP3 DUP3 GT DUP2 DUP4 LT OR ISZERO PUSH2 0x326A JUMPI PUSH2 0x326A PUSH2 0x31D6 JUMP JUMPDEST DUP2 PUSH1 0x40 MSTORE DUP4 DUP2 MSTORE DUP7 PUSH1 0x20 DUP6 DUP9 ADD ADD GT ISZERO PUSH2 0x3283 JUMPI PUSH1 0x0 DUP1 REVERT JUMPDEST DUP4 PUSH1 0x20 DUP8 ADD PUSH1 0x20 DUP4 ADD CALLDATACOPY PUSH1 0x0 PUSH1 0x20 DUP6 DUP4 ADD ADD MSTORE DUP1 SWAP5 POP POP POP POP POP SWAP3 SWAP2 POP POP JUMP JUMPDEST PUSH1 0x0 DUP1 PUSH1 0x40 DUP4 DUP6 SUB SLT ISZERO PUSH2 0x32B6 JUMPI PUSH1 0x0 DUP1 REVERT JUMPDEST DUP3 CALLDATALOAD PUSH2 0x32C1 DUP2 PUSH2 0x31AE JUMP JUMPDEST SWAP2 POP PUSH1 0x20 DUP4 ADD CALLDATALOAD PUSH8 0xFFFFFFFFFFFFFFFF DUP2 GT ISZERO PUSH2 0x32DD JUMPI PUSH1 0x0 DUP1 REVERT JUMPDEST PUSH2 0x32E9 DUP6 DUP3 DUP7 ADD PUSH2 0x3216 JUMP JUMPDEST SWAP2 POP POP SWAP3 POP SWAP3 SWAP1 POP JUMP JUMPDEST PUSH1 0x0 DUP1 DUP4 PUSH1 0x1F DUP5 ADD SLT PUSH2 0x3305 JUMPI PUSH1 0x0 DUP1 REVERT JUMPDEST POP DUP2 CALLDATALOAD PUSH8 0xFFFFFFFFFFFFFFFF DUP2 GT ISZERO PUSH2 0x331D JUMPI PUSH1 0x0 DUP1 REVERT JUMPDEST PUSH1 0x20 DUP4 ADD SWAP2 POP DUP4 PUSH1 0x20 DUP3 DUP6 ADD ADD GT ISZERO PUSH2 0x3335 JUMPI PUSH1 0x0 DUP1 REVERT JUMPDEST SWAP3 POP SWAP3 SWAP1 POP JUMP JUMPDEST PUSH1 0x0 DUP1 PUSH1 0x0 PUSH1 0x40 DUP5 DUP7 SUB SLT ISZERO PUSH2 0x3351 JUMPI PUSH1 0x0 DUP1 REVERT JUMPDEST DUP4 CALLDATALOAD PUSH8 0xFFFFFFFFFFFFFFFF DUP2 GT ISZERO PUSH2 0x3368 JUMPI PUSH1 0x0 DUP1 REVERT JUMPDEST PUSH2 0x3374 DUP7 DUP3 DUP8 ADD PUSH2 0x32F3 JUMP JUMPDEST SWAP1 SWAP8 SWAP1 SWAP7 POP PUSH1 0x20 SWAP6 SWAP1 SWAP6 ADD CALLDATALOAD SWAP5 SWAP4 POP POP POP POP JUMP JUMPDEST PUSH1 0x0 DUP1 PUSH1 0x40 DUP4 DUP6 SUB SLT ISZERO PUSH2 0x339B JUMPI PUSH1 0x0 DUP1 REVERT JUMPDEST DUP3 CALLDATALOAD PUSH8 0xFFFFFFFFFFFFFFFF DUP2 GT ISZERO PUSH2 0x33B2 JUMPI PUSH1 0x0 DUP1 REVERT JUMPDEST PUSH2 0x33BE DUP6 DUP3 DUP7 ADD PUSH2 0x3216 JUMP JUMPDEST SWAP3 POP POP PUSH1 0x20 DUP4 ADD CALLDATALOAD PUSH2 0x33CF DUP2 PUSH2 0x31AE JUMP JUMPDEST DUP1 SWAP2 POP POP SWAP3 POP SWAP3 SWAP1 POP JUMP JUMPDEST PUSH1 0x0 DUP1 PUSH1 0x0 PUSH1 0x40 DUP5 DUP7 SUB SLT ISZERO PUSH2 0x33EF JUMPI PUSH1 0x0 DUP1 REVERT JUMPDEST DUP4 CALLDATALOAD PUSH8 0xFFFFFFFFFFFFFFFF DUP1 DUP3 GT ISZERO PUSH2 0x3407 JUMPI PUSH1 0x0 DUP1 REVERT JUMPDEST PUSH2 0x3413 DUP8 DUP4 DUP9 ADD PUSH2 0x32F3 JUMP JUMPDEST SWAP1 SWAP6 POP SWAP4 POP PUSH1 0x20 DUP7 ADD CALLDATALOAD SWAP2 POP DUP1 DUP3 GT ISZERO PUSH2 0x342C JUMPI PUSH1 0x0 DUP1 REVERT JUMPDEST POP DUP5 ADD PUSH2 0x180 DUP2 DUP8 SUB SLT ISZERO PUSH2 0x3440 JUMPI PUSH1 0x0 DUP1 REVERT JUMPDEST DUP1 SWAP2 POP POP SWAP3 POP SWAP3 POP SWAP3 JUMP JUMPDEST PUSH1 0x0 PUSH1 0x20 DUP3 DUP5 SUB SLT ISZERO PUSH2 0x345D JUMPI PUSH1 0x0 DUP1 REVERT JUMPDEST DUP2 CALLDATALOAD PUSH8 0xFFFFFFFFFFFFFFFF DUP2 GT ISZERO PUSH2 0x3474 JUMPI PUSH1 0x0 DUP1 REVERT JUMPDEST PUSH2 0x3480 DUP5 DUP3 DUP6 ADD PUSH2 0x3216 JUMP JUMPDEST SWAP5 SWAP4 POP POP POP POP JUMP JUMPDEST PUSH1 0x20 DUP1 DUP3 MSTORE DUP3 MLOAD DUP3 DUP3 ADD DUP2 SWAP1 MSTORE PUSH1 0x0 SWAP2 SWAP1 PUSH1 0x40 SWAP1 DUP2 DUP6 ADD SWAP1 DUP7 DUP5 ADD DUP6 JUMPDEST DUP3 DUP2 LT ISZERO PUSH2 0x354C JUMPI DUP2 MLOAD DUP1 MLOAD PUSH1 0x1 PUSH1 0x1 PUSH1 0xA0 SHL SUB SWAP1 DUP2 AND DUP7 MSTORE DUP8 DUP3 ADD MLOAD DUP2 AND DUP9 DUP8 ADD MSTORE DUP7 DUP3 ADD MLOAD PUSH1 0xFF SWAP1 DUP2 AND DUP9 DUP9 ADD MSTORE PUSH1 0x60 DUP1 DUP5 ADD MLOAD SWAP1 SWAP2 AND SWAP1 DUP8 ADD MSTORE PUSH1 0x80 DUP1 DUP4 ADD MLOAD SWAP1 DUP8 ADD MSTORE PUSH1 0xA0 DUP1 DUP4 ADD MLOAD SWAP1 DUP8 ADD MSTORE PUSH1 0xC0 DUP1 DUP4 ADD MLOAD SWAP1 SWAP2 AND SWAP1 DUP7 ADD MSTORE PUSH1 0xE0 DUP1 DUP3 ADD MLOAD SWAP1 DUP7 ADD MSTORE PUSH2 0x100 DUP1 DUP3 ADD MLOAD SWAP1 DUP7 ADD MSTORE PUSH2 0x120 DUP1 DUP3 ADD MLOAD SWAP1 DUP7 ADD MSTORE PUSH2 0x140 DUP1 DUP3 ADD MLOAD SWAP1 DUP7 ADD MSTORE PUSH2 0x160 SWAP1 DUP2 ADD MLOAD SWAP1 DUP6 ADD MSTORE PUSH2 0x180 SWAP1 SWAP4 ADD SWAP3 SWAP1 DUP6 ADD SWAP1 PUSH1 0x1 ADD PUSH2 0x34A5 JUMP JUMPDEST POP SWAP2 SWAP8 SWAP7 POP POP POP POP POP POP POP JUMP JUMPDEST PUSH1 0x0 JUMPDEST DUP4 DUP2 LT ISZERO PUSH2 0x3574 JUMPI DUP2 DUP2 ADD MLOAD DUP4 DUP3 ADD MSTORE PUSH1 0x20 ADD PUSH2 0x355C JUMP JUMPDEST POP POP PUSH1 0x0 SWAP2 ADD MSTORE JUMP JUMPDEST PUSH1 0x0 DUP2 MLOAD DUP1 DUP5 MSTORE PUSH2 0x3595 DUP2 PUSH1 0x20 DUP7 ADD PUSH1 0x20 DUP7 ADD PUSH2 0x3559 JUMP JUMPDEST PUSH1 0x1F ADD PUSH1 0x1F NOT AND SWAP3 SWAP1 SWAP3 ADD PUSH1 0x20 ADD SWAP3 SWAP2 POP POP JUMP JUMPDEST PUSH1 0x0 PUSH1 0x20 DUP1 DUP4 ADD DUP2 DUP5 MSTORE DUP1 DUP6 MLOAD DUP1 DUP4 MSTORE PUSH1 0x40 DUP7 ADD SWAP2 POP PUSH1 0x40 DUP2 PUSH1 0x5 SHL DUP8 ADD ADD SWAP3 POP DUP4 DUP8 ADD PUSH1 0x0 JUMPDEST DUP3 DUP2 LT ISZERO PUSH2 0x35FE JUMPI PUSH1 0x3F NOT DUP9 DUP7 SUB ADD DUP5 MSTORE PUSH2 0x35EC DUP6 DUP4 MLOAD PUSH2 0x357D JUMP JUMPDEST SWAP5 POP SWAP3 DUP6 ADD SWAP3 SWAP1 DUP6 ADD SWAP1 PUSH1 0x1 ADD PUSH2 0x35D0 JUMP JUMPDEST POP SWAP3 SWAP8 SWAP7 POP POP POP POP POP POP POP JUMP JUMPDEST PUSH4 0x4E487B71 PUSH1 0xE0 SHL PUSH1 0x0 MSTORE PUSH1 0x21 PUSH1 0x4 MSTORE PUSH1 0x24 PUSH1 0x0 REVERT JUMPDEST PUSH1 0x6 DUP2 LT PUSH2 0x363F JUMPI PUSH4 0x4E487B71 PUSH1 0xE0 SHL PUSH1 0x0 MSTORE PUSH1 0x21 PUSH1 0x4 MSTORE PUSH1 0x24 PUSH1 0x0 REVERT JUMPDEST SWAP1 MSTORE JUMP JUMPDEST PUSH1 0x0 PUSH2 0x180 DUP3 MLOAD DUP2 DUP6 MSTORE PUSH2 0x3659 DUP3 DUP7 ADD DUP3 PUSH2 0x357D JUMP JUMPDEST SWAP2 POP POP PUSH1 0x20 DUP4 ADD MLOAD DUP5 DUP3 SUB PUSH1 0x20 DUP7 ADD MSTORE PUSH2 0x3673 DUP3 DUP3 PUSH2 0x357D JUMP JUMPDEST SWAP2 POP POP PUSH1 0x40 DUP4 ADD MLOAD PUSH2 0x3690 PUSH1 0x40 DUP7 ADD DUP3 PUSH1 0x1 PUSH1 0x1 PUSH1 0xA0 SHL SUB AND SWAP1 MSTORE JUMP JUMPDEST POP PUSH1 0x60 DUP4 ADD MLOAD PUSH1 0x60 DUP6 ADD MSTORE PUSH1 0x80 DUP4 ADD MLOAD PUSH1 0x80 DUP6 ADD MSTORE PUSH1 0xA0 DUP4 ADD MLOAD PUSH1 0xA0 DUP6 ADD MSTORE PUSH1 0xC0 DUP4 ADD MLOAD PUSH1 0xC0 DUP6 ADD MSTORE PUSH1 0xE0 DUP4 ADD MLOAD PUSH1 0xE0 DUP6 ADD MSTORE PUSH2 0x100 DUP1 DUP5 ADD MLOAD DUP2 DUP7 ADD MSTORE POP PUSH2 0x120 DUP1 DUP5 ADD MLOAD PUSH2 0x36EA DUP3 DUP8 ADD DUP3 PUSH1 0x1 PUSH1 0x1 PUSH1 0xA0 SHL SUB AND SWAP1 MSTORE JUMP JUMPDEST POP POP PUSH2 0x140 DUP4 DUP2 ADD MLOAD PUSH1 0xFF AND SWAP1 DUP6 ADD MSTORE PUSH2 0x160 DUP1 DUP5 ADD MLOAD PUSH2 0x370D DUP3 DUP8 ADD DUP3 PUSH2 0x3621 JUMP JUMPDEST POP SWAP1 SWAP5 SWAP4 POP POP POP POP JUMP JUMPDEST PUSH1 0x0 PUSH1 0x20 DUP1 DUP4 ADD DUP2 DUP5 MSTORE DUP1 DUP6 MLOAD DUP1 DUP4 MSTORE PUSH1 0x40 DUP7 ADD SWAP2 POP PUSH1 0x40 DUP2 PUSH1 0x5 SHL DUP8 ADD ADD SWAP3 POP DUP4 DUP8 ADD PUSH1 0x0 JUMPDEST DUP3 DUP2 LT ISZERO PUSH2 0x35FE JUMPI PUSH1 0x3F NOT DUP9 DUP7 SUB ADD DUP5 MSTORE PUSH2 0x375A DUP6 DUP4 MLOAD PUSH2 0x3643 JUMP JUMPDEST SWAP5 POP SWAP3 DUP6 ADD SWAP3 SWAP1 DUP6 ADD SWAP1 PUSH1 0x1 ADD PUSH2 0x373E JUMP JUMPDEST PUSH1 0x0 PUSH1 0x20 DUP3 DUP5 SUB SLT ISZERO PUSH2 0x377E JUMPI PUSH1 0x0 DUP1 REVERT JUMPDEST DUP2 CALLDATALOAD PUSH2 0x3789 DUP2 PUSH2 0x31AE JUMP JUMPDEST SWAP4 SWAP3 POP POP POP JUMP JUMPDEST PUSH1 0x0 DUP1 PUSH1 0x20 DUP4 DUP6 SUB SLT ISZERO PUSH2 0x37A3 JUMPI PUSH1 0x0 DUP1 REVERT JUMPDEST DUP3 CALLDATALOAD PUSH8 0xFFFFFFFFFFFFFFFF DUP2 GT ISZERO PUSH2 0x37BA JUMPI PUSH1 0x0 DUP1 REVERT JUMPDEST PUSH2 0x37C6 DUP6 DUP3 DUP7 ADD PUSH2 0x32F3 JUMP JUMPDEST SWAP1 SWAP7 SWAP1 SWAP6 POP SWAP4 POP POP POP POP JUMP JUMPDEST PUSH1 0x0 DUP1 PUSH1 0x40 DUP4 DUP6 SUB SLT ISZERO PUSH2 0x37E5 JUMPI PUSH1 0x0 DUP1 REVERT JUMPDEST DUP3 CALLDATALOAD PUSH8 0xFFFFFFFFFFFFFFFF DUP2 GT ISZERO PUSH2 0x37FC JUMPI PUSH1 0x0 DUP1 REVERT JUMPDEST PUSH2 0x3808 DUP6 DUP3 DUP7 ADD PUSH2 0x3216 JUMP JUMPDEST SWAP6 PUSH1 0x20 SWAP5 SWAP1 SWAP5 ADD CALLDATALOAD SWAP5 POP POP POP POP JUMP JUMPDEST PUSH1 0x0 DUP1 PUSH1 0x40 DUP4 DUP6 SUB SLT ISZERO PUSH2 0x382A JUMPI PUSH1 0x0 DUP1 REVERT JUMPDEST DUP3 CALLDATALOAD PUSH2 0x3835 DUP2 PUSH2 0x31AE JUMP JUMPDEST SWAP5 PUSH1 0x20 SWAP4 SWAP1 SWAP4 ADD CALLDATALOAD SWAP4 POP POP POP JUMP JUMPDEST PUSH2 0x180 DUP2 MSTORE PUSH1 0x0 PUSH2 0x3858 PUSH2 0x180 DUP4 ADD DUP16 PUSH2 0x357D JUMP JUMPDEST DUP3 DUP2 SUB PUSH1 0x20 DUP5 ADD MSTORE PUSH2 0x386A DUP2 DUP16 PUSH2 0x357D JUMP JUMPDEST SWAP2 POP POP PUSH1 0x1 PUSH1 0x1 PUSH1 0xA0 SHL SUB DUP1 DUP14 AND PUSH1 0x40 DUP5 ADD MSTORE DUP12 PUSH1 0x60 DUP5 ADD MSTORE DUP11 PUSH1 0x80 DUP5 ADD MSTORE DUP10 PUSH1 0xA0 DUP5 ADD MSTORE DUP9 PUSH1 0xC0 DUP5 ADD MSTORE DUP8 PUSH1 0xE0 DUP5 ADD MSTORE DUP7 PUSH2 0x100 DUP5 ADD MSTORE DUP1 DUP7 AND PUSH2 0x120 DUP5 ADD MSTORE POP PUSH1 0xFF DUP5 AND PUSH2 0x140 DUP4 ADD MSTORE PUSH2 0x38C4 PUSH2 0x160 DUP4 ADD DUP5 PUSH2 0x3621 JUMP JUMPDEST SWAP14 SWAP13 POP POP POP POP POP POP POP POP POP POP POP POP POP JUMP JUMPDEST PUSH1 0x0 DUP1 PUSH1 0x0 DUP1 PUSH1 0x60 DUP6 DUP8 SUB SLT ISZERO PUSH2 0x38EB JUMPI PUSH1 0x0 DUP1 REVERT JUMPDEST DUP5 CALLDATALOAD PUSH8 0xFFFFFFFFFFFFFFFF DUP1 DUP3 GT ISZERO PUSH2 0x3903 JUMPI PUSH1 0x0 DUP1 REVERT JUMPDEST PUSH2 0x390F DUP9 DUP4 DUP10 ADD PUSH2 0x32F3 JUMP JUMPDEST SWAP1 SWAP7 POP SWAP5 POP PUSH1 0x20 DUP8 ADD CALLDATALOAD SWAP2 POP DUP1 DUP3 GT ISZERO PUSH2 0x3928 JUMPI PUSH1 0x0 DUP1 REVERT JUMPDEST POP DUP6 ADD PUSH2 0x160 DUP2 DUP9 SUB SLT ISZERO PUSH2 0x393C JUMPI PUSH1 0x0 DUP1 REVERT JUMPDEST SWAP2 POP PUSH1 0x40 DUP6 ADD CALLDATALOAD PUSH2 0x394C DUP2 PUSH2 0x31AE JUMP JUMPDEST SWAP4 SWAP7 SWAP3 SWAP6 POP SWAP1 SWAP4 POP POP JUMP JUMPDEST PUSH1 0x0 PUSH1 0x20 DUP3 DUP5 SUB SLT ISZERO PUSH2 0x3969 JUMPI PUSH1 0x0 DUP1 REVERT JUMPDEST POP CALLDATALOAD SWAP2 SWAP1 POP JUMP JUMPDEST PUSH1 0xFF DUP2 AND DUP2 EQ PUSH2 0x31C3 JUMPI PUSH1 0x0 DUP1 REVERT JUMPDEST DUP1 CALLDATALOAD PUSH2 0x31D1 DUP2 PUSH2 0x3970 JUMP JUMPDEST PUSH1 0x0 DUP1 PUSH1 0x0 DUP1 DUP5 DUP7 SUB PUSH2 0x1E0 DUP2 SLT ISZERO PUSH2 0x39A2 JUMPI PUSH1 0x0 DUP1 REVERT JUMPDEST DUP6 CALLDATALOAD PUSH2 0x39AD DUP2 PUSH2 0x31AE JUMP JUMPDEST SWAP5 POP PUSH1 0x20 DUP7 ADD CALLDATALOAD PUSH2 0x39BD DUP2 PUSH2 0x31AE JUMP JUMPDEST SWAP4 POP PUSH1 0x40 DUP7 ADD CALLDATALOAD PUSH2 0x39CD DUP2 PUSH2 0x31AE JUMP JUMPDEST SWAP3 POP PUSH2 0x180 PUSH1 0x5F NOT DUP3 ADD DUP2 SGT ISZERO PUSH2 0x39E3 JUMPI PUSH1 0x0 DUP1 REVERT JUMPDEST PUSH2 0x39EB PUSH2 0x31EC JUMP JUMPDEST SWAP2 POP PUSH2 0x39F9 PUSH1 0x60 DUP9 ADD PUSH2 0x31C6 JUMP JUMPDEST DUP3 MSTORE PUSH2 0x3A07 PUSH1 0x80 DUP9 ADD PUSH2 0x31C6 JUMP JUMPDEST PUSH1 0x20 DUP4 ADD MSTORE PUSH2 0x3A18 PUSH1 0xA0 DUP9 ADD PUSH2 0x397F JUMP JUMPDEST PUSH1 0x40 DUP4 ADD MSTORE PUSH2 0x3A29 PUSH1 0xC0 DUP9 ADD PUSH2 0x397F JUMP JUMPDEST PUSH1 0x60 DUP4 ADD MSTORE PUSH1 0xE0 DUP8 ADD CALLDATALOAD PUSH1 0x80 DUP4 ADD MSTORE PUSH2 0x100 DUP1 DUP9 ADD CALLDATALOAD PUSH1 0xA0 DUP5 ADD MSTORE PUSH2 0x120 PUSH2 0x3A52 DUP2 DUP11 ADD PUSH2 0x31C6 JUMP JUMPDEST PUSH1 0xC0 DUP6 ADD MSTORE PUSH2 0x140 DUP1 DUP11 ADD CALLDATALOAD PUSH1 0xE0 DUP7 ADD MSTORE PUSH2 0x160 DUP1 DUP12 ADD CALLDATALOAD DUP5 DUP8 ADD MSTORE DUP5 DUP12 ADD CALLDATALOAD DUP4 DUP8 ADD MSTORE PUSH2 0x1A0 DUP12 ADD CALLDATALOAD DUP3 DUP8 ADD MSTORE PUSH2 0x1C0 DUP12 ADD CALLDATALOAD DUP2 DUP8 ADD MSTORE POP POP POP POP POP DUP1 SWAP2 POP POP SWAP3 SWAP6 SWAP2 SWAP5 POP SWAP3 POP JUMP JUMPDEST PUSH1 0x0 DUP1 PUSH1 0x40 DUP4 DUP6 SUB SLT ISZERO PUSH2 0x3AAF JUMPI PUSH1 0x0 DUP1 REVERT JUMPDEST DUP3 CALLDATALOAD SWAP2 POP PUSH1 0x20 DUP4 ADD CALLDATALOAD PUSH2 0x33CF DUP2 PUSH2 0x31AE JUMP JUMPDEST PUSH1 0x20 DUP1 DUP3 MSTORE DUP3 MLOAD DUP3 DUP3 ADD DUP2 SWAP1 MSTORE PUSH1 0x0 SWAP2 SWAP1 PUSH1 0x40 SWAP1 DUP2 DUP6 ADD SWAP1 DUP7 DUP5 ADD DUP6 JUMPDEST DUP3 DUP2 LT ISZERO PUSH2 0x354C JUMPI DUP2 MLOAD DUP1 MLOAD PUSH1 0x1 PUSH1 0x1 PUSH1 0xA0 SHL SUB AND DUP6 MSTORE DUP7 ADD MLOAD DUP7 DUP6 ADD MSTORE SWAP3 DUP5 ADD SWAP3 SWAP1 DUP6 ADD SWAP1 PUSH1 0x1 ADD PUSH2 0x3ADE JUMP JUMPDEST PUSH1 0x0 DUP1 PUSH1 0x0 PUSH1 0x40 DUP5 DUP7 SUB SLT ISZERO PUSH2 0x3B21 JUMPI PUSH1 0x0 DUP1 REVERT JUMPDEST DUP4 CALLDATALOAD PUSH8 0xFFFFFFFFFFFFFFFF DUP2 GT ISZERO PUSH2 0x3B38 JUMPI PUSH1 0x0 DUP1 REVERT JUMPDEST PUSH2 0x3B44 DUP7 DUP3 DUP8 ADD PUSH2 0x32F3 JUMP JUMPDEST SWAP1 SWAP5 POP SWAP3 POP POP PUSH1 0x20 DUP5 ADD CALLDATALOAD PUSH2 0x3440 DUP2 PUSH2 0x31AE JUMP JUMPDEST PUSH1 0x20 DUP2 MSTORE PUSH1 0x0 PUSH2 0x3789 PUSH1 0x20 DUP4 ADD DUP5 PUSH2 0x3643 JUMP JUMPDEST PUSH1 0x0 PUSH1 0x20 DUP1 DUP4 ADD DUP2 DUP5 MSTORE DUP1 DUP6 MLOAD DUP1 DUP4 MSTORE PUSH1 0x40 SWAP3 POP DUP3 DUP7 ADD SWAP2 POP DUP3 DUP2 PUSH1 0x5 SHL DUP8 ADD ADD DUP5 DUP9 ADD PUSH1 0x0 JUMPDEST DUP4 DUP2 LT ISZERO PUSH2 0x3C65 JUMPI PUSH1 0x3F NOT DUP10 DUP5 SUB ADD DUP6 MSTORE DUP2 MLOAD PUSH2 0x160 DUP2 MLOAD DUP2 DUP7 MSTORE PUSH2 0x3BB9 DUP3 DUP8 ADD DUP3 PUSH2 0x357D JUMP JUMPDEST SWAP2 POP POP DUP9 DUP3 ADD MLOAD DUP6 DUP3 SUB DUP11 DUP8 ADD MSTORE PUSH2 0x3BD1 DUP3 DUP3 PUSH2 0x357D JUMP JUMPDEST SWAP2 POP POP DUP8 DUP3 ADD MLOAD DUP6 DUP3 SUB DUP10 DUP8 ADD MSTORE PUSH2 0x3BE9 DUP3 DUP3 PUSH2 0x357D JUMP JUMPDEST SWAP2 POP POP PUSH1 0x60 DUP1 DUP4 ADD MLOAD PUSH2 0x3C06 DUP3 DUP9 ADD DUP3 PUSH1 0x1 PUSH1 0x1 PUSH1 0xA0 SHL SUB AND SWAP1 MSTORE JUMP JUMPDEST POP POP PUSH1 0x80 DUP3 DUP2 ADD MLOAD SWAP1 DUP7 ADD MSTORE PUSH1 0xA0 DUP1 DUP4 ADD MLOAD SWAP1 DUP7 ADD MSTORE PUSH1 0xC0 DUP1 DUP4 ADD MLOAD SWAP1 DUP7 ADD MSTORE PUSH1 0xE0 DUP1 DUP4 ADD MLOAD PUSH1 0xFF AND SWAP1 DUP7 ADD MSTORE PUSH2 0x100 DUP1 DUP4 ADD MLOAD SWAP1 DUP7 ADD MSTORE PUSH2 0x120 DUP1 DUP4 ADD MLOAD SWAP1 DUP7 ADD MSTORE PUSH2 0x140 SWAP2 DUP3 ADD MLOAD SWAP2 SWAP1 SWAP5 ADD MSTORE SWAP4 DUP7 ADD SWAP4 SWAP1 DUP7 ADD SWAP1 PUSH1 0x1 ADD PUSH2 0x3B92 JUMP JUMPDEST POP SWAP1 SWAP9 SWAP8 POP POP POP POP POP POP POP POP JUMP JUMPDEST PUSH1 0x0 DUP1 PUSH1 0x40 DUP4 DUP6 SUB SLT ISZERO PUSH2 0x3C86 JUMPI PUSH1 0x0 DUP1 REVERT JUMPDEST DUP3 CALLDATALOAD PUSH2 0x3C91 DUP2 PUSH2 0x31AE JUMP JUMPDEST SWAP2 POP PUSH1 0x20 DUP4 ADD CALLDATALOAD PUSH2 0x33CF DUP2 PUSH2 0x31AE JUMP JUMPDEST PUSH1 0x0 PUSH1 0x20 DUP3 DUP5 SUB SLT ISZERO PUSH2 0x3CB3 JUMPI PUSH1 0x0 DUP1 REVERT JUMPDEST DUP2 MLOAD DUP1 ISZERO ISZERO DUP2 EQ PUSH2 0x3789 JUMPI PUSH1 0x0 DUP1 REVERT JUMPDEST DUP2 DUP4 DUP3 CALLDATACOPY PUSH1 0x0 SWAP2 ADD SWAP1 DUP2 MSTORE SWAP2 SWAP1 POP JUMP JUMPDEST DUP2 DUP4 MSTORE DUP2 DUP2 PUSH1 0x20 DUP6 ADD CALLDATACOPY POP PUSH1 0x0 DUP3 DUP3 ADD PUSH1 0x20 SWAP1 DUP2 ADD SWAP2 SWAP1 SWAP2 MSTORE PUSH1 0x1F SWAP1 SWAP2 ADD PUSH1 0x1F NOT AND SWAP1 SWAP2 ADD ADD SWAP1 JUMP JUMPDEST PUSH1 0x20 DUP2 MSTORE PUSH1 0x0 PUSH2 0x3480 PUSH1 0x20 DUP4 ADD DUP5 DUP7 PUSH2 0x3CD3 JUMP JUMPDEST PUSH4 0x4E487B71 PUSH1 0xE0 SHL PUSH1 0x0 MSTORE PUSH1 0x11 PUSH1 0x4 MSTORE PUSH1 0x24 PUSH1 0x0 REVERT JUMPDEST DUP1 DUP3 MUL DUP2 ISZERO DUP3 DUP3 DIV DUP5 EQ OR PUSH2 0x22FA JUMPI PUSH2 0x22FA PUSH2 0x3D10 JUMP JUMPDEST PUSH1 0x0 DUP3 PUSH2 0x3D5A JUMPI PUSH4 0x4E487B71 PUSH1 0xE0 SHL PUSH1 0x0 MSTORE PUSH1 0x12 PUSH1 0x4 MSTORE PUSH1 0x24 PUSH1 0x0 REVERT JUMPDEST POP MOD SWAP1 JUMP JUMPDEST DUP1 DUP3 ADD DUP1 DUP3 GT ISZERO PUSH2 0x22FA JUMPI PUSH2 0x22FA PUSH2 0x3D10 JUMP JUMPDEST PUSH4 0x4E487B71 PUSH1 0xE0 SHL PUSH1 0x0 MSTORE PUSH1 0x32 PUSH1 0x4 MSTORE PUSH1 0x24 PUSH1 0x0 REVERT JUMPDEST PUSH1 0x40 DUP2 MSTORE PUSH1 0x0 PUSH2 0x3D9C PUSH1 0x40 DUP4 ADD DUP6 DUP8 PUSH2 0x3CD3 JUMP JUMPDEST SWAP1 POP DUP3 PUSH1 0x20 DUP4 ADD MSTORE SWAP5 SWAP4 POP POP POP POP JUMP JUMPDEST PUSH1 0x40 DUP2 MSTORE PUSH1 0x0 PUSH2 0x3DC0 PUSH1 0x40 DUP4 ADD DUP6 DUP8 PUSH2 0x3CD3 JUMP JUMPDEST SWAP1 POP PUSH1 0x1 PUSH1 0x1 PUSH1 0xA0 SHL SUB DUP4 AND PUSH1 0x20 DUP4 ADD MSTORE SWAP5 SWAP4 POP POP POP POP JUMP JUMPDEST PUSH1 0x0 DUP3 MLOAD PUSH2 0x3DEB DUP2 DUP5 PUSH1 0x20 DUP8 ADD PUSH2 0x3559 JUMP JUMPDEST SWAP2 SWAP1 SWAP2 ADD SWAP3 SWAP2 POP POP JUMP JUMPDEST PUSH1 0x0 DUP1 DUP4 CALLDATALOAD PUSH1 0x1E NOT DUP5 CALLDATASIZE SUB ADD DUP2 SLT PUSH2 0x3E0C JUMPI PUSH1 0x0 DUP1 REVERT JUMPDEST DUP4 ADD DUP1 CALLDATALOAD SWAP2 POP PUSH8 0xFFFFFFFFFFFFFFFF DUP3 GT ISZERO PUSH2 0x3E27 JUMPI PUSH1 0x0 DUP1 REVERT JUMPDEST PUSH1 0x20 ADD SWAP2 POP CALLDATASIZE DUP2 SWAP1 SUB DUP3 SGT ISZERO PUSH2 0x3335 JUMPI PUSH1 0x0 DUP1 REVERT JUMPDEST PUSH1 0x1 DUP2 DUP2 SHR SWAP1 DUP3 AND DUP1 PUSH2 0x3E50 JUMPI PUSH1 0x7F DUP3 AND SWAP2 POP JUMPDEST PUSH1 0x20 DUP3 LT DUP2 SUB PUSH2 0x3E70 JUMPI PUSH4 0x4E487B71 PUSH1 0xE0 SHL PUSH1 0x0 MSTORE PUSH1 0x22 PUSH1 0x4 MSTORE PUSH1 0x24 PUSH1 0x0 REVERT JUMPDEST POP SWAP2 SWAP1 POP JUMP JUMPDEST PUSH1 0x1F DUP3 GT ISZERO PUSH2 0x3EBC JUMPI PUSH1 0x0 DUP2 DUP2 MSTORE PUSH1 0x20 DUP2 KECCAK256 PUSH1 0x1F DUP6 ADD PUSH1 0x5 SHR DUP2 ADD PUSH1 0x20 DUP7 LT ISZERO PUSH2 0x3E9D JUMPI POP DUP1 JUMPDEST PUSH1 0x1F DUP6 ADD PUSH1 0x5 SHR DUP3 ADD SWAP2 POP JUMPDEST DUP2 DUP2 LT ISZERO PUSH2 0x264A JUMPI DUP3 DUP2 SSTORE PUSH1 0x1 ADD PUSH2 0x3EA9 JUMP JUMPDEST POP POP POP JUMP JUMPDEST PUSH8 0xFFFFFFFFFFFFFFFF DUP4 GT ISZERO PUSH2 0x3ED9 JUMPI PUSH2 0x3ED9 PUSH2 0x31D6 JUMP JUMPDEST PUSH2 0x3EED DUP4 PUSH2 0x3EE7 DUP4 SLOAD PUSH2 0x3E3C JUMP JUMPDEST DUP4 PUSH2 0x3E76 JUMP JUMPDEST PUSH1 0x0 PUSH1 0x1F DUP5 GT PUSH1 0x1 DUP2 EQ PUSH2 0x3F21 JUMPI PUSH1 0x0 DUP6 ISZERO PUSH2 0x3F09 JUMPI POP DUP4 DUP3 ADD CALLDATALOAD JUMPDEST PUSH1 0x0 NOT PUSH1 0x3 DUP8 SWAP1 SHL SHR NOT AND PUSH1 0x1 DUP7 SWAP1 SHL OR DUP4 SSTORE PUSH2 0x161E JUMP JUMPDEST PUSH1 0x0 DUP4 DUP2 MSTORE PUSH1 0x20 SWAP1 KECCAK256 PUSH1 0x1F NOT DUP7 AND SWAP1 DUP4 JUMPDEST DUP3 DUP2 LT ISZERO PUSH2 0x3F52 JUMPI DUP7 DUP6 ADD CALLDATALOAD DUP3 SSTORE PUSH1 0x20 SWAP5 DUP6 ADD SWAP5 PUSH1 0x1 SWAP1 SWAP3 ADD SWAP2 ADD PUSH2 0x3F32 JUMP JUMPDEST POP DUP7 DUP3 LT ISZERO PUSH2 0x3F6F JUMPI PUSH1 0x0 NOT PUSH1 0xF8 DUP9 PUSH1 0x3 SHL AND SHR NOT DUP5 DUP8 ADD CALLDATALOAD AND DUP2 SSTORE JUMPDEST POP POP PUSH1 0x1 DUP6 PUSH1 0x1 SHL ADD DUP4 SSTORE POP POP POP POP POP JUMP JUMPDEST PUSH1 0x0 DUP2 CALLDATALOAD PUSH2 0x22FA DUP2 PUSH2 0x31AE JUMP JUMPDEST PUSH1 0x0 DUP2 CALLDATALOAD PUSH2 0x22FA DUP2 PUSH2 0x3970 JUMP JUMPDEST PUSH1 0x6 DUP2 LT PUSH2 0x31C3 JUMPI PUSH1 0x0 DUP1 REVERT JUMPDEST PUSH1 0x0 DUP2 CALLDATALOAD PUSH2 0x22FA DUP2 PUSH2 0x3F9B JUMP JUMPDEST PUSH1 0x6 DUP3 LT PUSH2 0x3FD3 JUMPI PUSH4 0x4E487B71 PUSH1 0xE0 SHL PUSH1 0x0 MSTORE PUSH1 0x21 PUSH1 0x4 MSTORE PUSH1 0x24 PUSH1 0x0 REVERT JUMPDEST DUP1 SLOAD PUSH22 0xFF000000000000000000000000000000000000000000 DUP4 PUSH1 0xA8 SHL AND PUSH1 0xFF PUSH1 0xA8 SHL NOT DUP3 AND OR DUP3 SSTORE POP POP POP JUMP JUMPDEST PUSH2 0x400B DUP3 DUP4 PUSH2 0x3DF5 JUMP JUMPDEST PUSH2 0x4016 DUP2 DUP4 DUP6 PUSH2 0x3EC1 JUMP JUMPDEST POP POP PUSH2 0x4025 PUSH1 0x20 DUP4 ADD DUP4 PUSH2 0x3DF5 JUMP JUMPDEST PUSH2 0x4033 DUP2 DUP4 PUSH1 0x1 DUP7 ADD PUSH2 0x3EC1 JUMP JUMPDEST POP POP PUSH2 0x4065 PUSH2 0x4044 PUSH1 0x40 DUP5 ADD PUSH2 0x3F81 JUMP JUMPDEST PUSH1 0x2 DUP4 ADD PUSH1 0x1 PUSH1 0x1 PUSH1 0xA0 SHL SUB DUP3 AND PUSH1 0x1 PUSH1 0x1 PUSH1 0xA0 SHL SUB NOT DUP3 SLOAD AND OR DUP2 SSTORE POP POP JUMP JUMPDEST PUSH1 0x60 DUP3 ADD CALLDATALOAD PUSH1 0x3 DUP3 ADD SSTORE PUSH1 0x80 DUP3 ADD CALLDATALOAD PUSH1 0x4 DUP3 ADD SSTORE PUSH1 0xA0 DUP3 ADD CALLDATALOAD PUSH1 0x5 DUP3 ADD SSTORE PUSH1 0xC0 DUP3 ADD CALLDATALOAD PUSH1 0x6 DUP3 ADD SSTORE PUSH1 0xE0 DUP3 ADD CALLDATALOAD PUSH1 0x7 DUP3 ADD SSTORE PUSH2 0x100 DUP3 ADD CALLDATALOAD PUSH1 0x8 DUP3 ADD SSTORE PUSH1 0x9 DUP2 ADD PUSH2 0x40D3 PUSH2 0x40B6 PUSH2 0x120 DUP6 ADD PUSH2 0x3F81 JUMP JUMPDEST DUP3 SLOAD PUSH1 0x1 PUSH1 0x1 PUSH1 0xA0 SHL SUB NOT AND PUSH1 0x1 PUSH1 0x1 PUSH1 0xA0 SHL SUB SWAP2 SWAP1 SWAP2 AND OR DUP3 SSTORE JUMP JUMPDEST PUSH2 0x4129 PUSH2 0x40E3 PUSH2 0x140 DUP6 ADD PUSH2 0x3F8E JUMP JUMPDEST DUP3 SLOAD PUSH32 0xFFFFFFFFFFFFFFFFFFFFFF00FFFFFFFFFFFFFFFFFFFFFFFFFFFFFFFFFFFFFFFF AND PUSH1 0xA0 SWAP2 SWAP1 SWAP2 SHL PUSH21 0xFF0000000000000000000000000000000000000000 AND OR DUP3 SSTORE JUMP JUMPDEST PUSH2 0x3EBC PUSH2 0x4139 PUSH2 0x160 DUP6 ADD PUSH2 0x3FA8 JUMP JUMPDEST DUP3 PUSH2 0x3FB5 JUMP JUMPDEST DUP2 DUP2 SUB PUSH2 0x414A JUMPI POP POP JUMP JUMPDEST PUSH2 0x4154 DUP3 SLOAD PUSH2 0x3E3C JUMP JUMPDEST PUSH8 0xFFFFFFFFFFFFFFFF DUP2 GT ISZERO PUSH2 0x416C JUMPI PUSH2 0x416C PUSH2 0x31D6 JUMP JUMPDEST PUSH2 0x4180 DUP2 PUSH2 0x417A DUP5 SLOAD PUSH2 0x3E3C JUMP JUMPDEST DUP5 PUSH2 0x3E76 JUMP JUMPDEST PUSH1 0x0 PUSH1 0x1F DUP3 GT PUSH1 0x1 DUP2 EQ PUSH2 0x41B4 JUMPI PUSH1 0x0 DUP4 ISZERO PUSH2 0x419C JUMPI POP DUP5 DUP3 ADD SLOAD JUMPDEST PUSH1 0x0 NOT PUSH1 0x3 DUP6 SWAP1 SHL SHR NOT AND PUSH1 0x1 DUP5 SWAP1 SHL OR DUP5 SSTORE PUSH2 0x161E JUMP JUMPDEST PUSH1 0x0 DUP6 DUP2 MSTORE PUSH1 0x20 SWAP1 KECCAK256 PUSH1 0x1F NOT DUP5 AND SWAP1 PUSH1 0x0 DUP7 DUP2 MSTORE PUSH1 0x20 SWAP1 KECCAK256 DUP5 JUMPDEST DUP4 DUP2 LT ISZERO PUSH2 0x41EE JUMPI DUP3 DUP7 ADD SLOAD DUP3 SSTORE PUSH1 0x1 SWAP6 DUP7 ADD SWAP6 SWAP1 SWAP2 ADD SWAP1 PUSH1 0x20 ADD PUSH2 0x41CE JUMP JUMPDEST POP DUP6 DUP4 LT ISZERO PUSH2 0x420C JUMPI DUP2 DUP6 ADD SLOAD PUSH1 0x0 NOT PUSH1 0x3 DUP9 SWAP1 SHL PUSH1 0xF8 AND SHR NOT AND DUP2 SSTORE JUMPDEST POP POP POP POP POP PUSH1 0x1 SWAP1 DUP2 SHL ADD SWAP1 SSTORE POP JUMP JUMPDEST PUSH1 0x0 DUP1 DUP4 CALLDATALOAD PUSH1 0x1E NOT DUP5 CALLDATASIZE SUB ADD DUP2 SLT PUSH2 0x4233 JUMPI PUSH1 0x0 DUP1 REVERT JUMPDEST DUP4 ADD PUSH1 0x20 DUP2 ADD SWAP3 POP CALLDATALOAD SWAP1 POP PUSH8 0xFFFFFFFFFFFFFFFF DUP2 GT ISZERO PUSH2 0x4253 JUMPI PUSH1 0x0 DUP1 REVERT JUMPDEST DUP1 CALLDATASIZE SUB DUP3 SGT ISZERO PUSH2 0x3335 JUMPI PUSH1 0x0 DUP1 REVERT JUMPDEST DUP1 CALLDATALOAD PUSH2 0x31D1 DUP2 PUSH2 0x3F9B JUMP JUMPDEST PUSH1 0x40 DUP2 MSTORE PUSH1 0x0 PUSH2 0x4281 PUSH1 0x40 DUP4 ADD DUP6 DUP8 PUSH2 0x3CD3 JUMP JUMPDEST DUP3 DUP2 SUB PUSH1 0x20 DUP5 ADD MSTORE PUSH2 0x180 PUSH2 0x4296 DUP6 DUP7 PUSH2 0x421C JUMP JUMPDEST DUP3 DUP5 MSTORE PUSH2 0x42A6 DUP4 DUP6 ADD DUP3 DUP5 PUSH2 0x3CD3 JUMP JUMPDEST SWAP3 POP POP POP PUSH2 0x42B7 PUSH1 0x20 DUP7 ADD DUP7 PUSH2 0x421C JUMP JUMPDEST DUP4 DUP4 SUB PUSH1 0x20 DUP6 ADD MSTORE PUSH2 0x42CA DUP4 DUP3 DUP5 PUSH2 0x3CD3 JUMP JUMPDEST SWAP3 POP POP POP PUSH2 0x42DA PUSH1 0x40 DUP7 ADD PUSH2 0x31C6 JUMP JUMPDEST PUSH1 0x1 PUSH1 0x1 PUSH1 0xA0 SHL SUB DUP2 AND PUSH1 0x40 DUP5 ADD MSTORE POP PUSH1 0x60 DUP6 ADD CALLDATALOAD PUSH1 0x60 DUP4 ADD MSTORE PUSH1 0x80 DUP6 ADD CALLDATALOAD PUSH1 0x80 DUP4 ADD MSTORE PUSH1 0xA0 DUP6 ADD CALLDATALOAD PUSH1 0xA0 DUP4 ADD MSTORE PUSH1 0xC0 DUP6 ADD CALLDATALOAD PUSH1 0xC0 DUP4 ADD MSTORE PUSH1 0xE0 DUP6 ADD CALLDATALOAD PUSH1 0xE0 DUP4 ADD MSTORE PUSH2 0x100 DUP1 DUP7 ADD CALLDATALOAD DUP2 DUP5 ADD MSTORE POP PUSH2 0x120 PUSH2 0x4336 DUP2 DUP8 ADD PUSH2 0x31C6 JUMP JUMPDEST PUSH1 0x1 PUSH1 0x1 PUSH1 0xA0 SHL SUB AND SWAP1 DUP4 ADD MSTORE PUSH2 0x140 PUSH2 0x4351 DUP7 DUP3 ADD PUSH2 0x397F JUMP JUMPDEST PUSH1 0xFF AND SWAP1 DUP4 ADD MSTORE PUSH2 0x160 PUSH2 0x4366 DUP7 DUP3 ADD PUSH2 0x4262 JUMP JUMPDEST PUSH2 0x4372 DUP3 DUP6 ADD DUP3 PUSH2 0x3621 JUMP JUMPDEST POP SWAP1 SWAP8 SWAP7 POP POP POP POP POP POP POP JUMP JUMPDEST PUSH1 0x60 DUP2 MSTORE PUSH1 0x0 PUSH2 0x4392 PUSH1 0x60 DUP4 ADD DUP7 PUSH2 0x357D JUMP JUMPDEST PUSH1 0x1 PUSH1 0x1 PUSH1 0xA0 SHL SUB SWAP5 DUP6 AND PUSH1 0x20 DUP5 ADD MSTORE SWAP3 SWAP1 SWAP4 AND PUSH1 0x40 SWAP1 SWAP2 ADD MSTORE SWAP3 SWAP2 POP POP JUMP JUMPDEST PUSH1 0x20 DUP2 MSTORE PUSH1 0x0 PUSH2 0x43C2 DUP4 DUP5 PUSH2 0x421C JUMP JUMPDEST PUSH2 0x160 DUP1 PUSH1 0x20 DUP7 ADD MSTORE PUSH2 0x43DA PUSH2 0x180 DUP7 ADD DUP4 DUP6 PUSH2 0x3CD3 JUMP JUMPDEST SWAP3 POP PUSH2 0x43E9 PUSH1 0x20 DUP8 ADD DUP8 PUSH2 0x421C JUMP JUMPDEST SWAP3 POP PUSH1 0x1F NOT DUP1 DUP8 DUP7 SUB ADD PUSH1 0x40 DUP9 ADD MSTORE PUSH2 0x4403 DUP6 DUP6 DUP5 PUSH2 0x3CD3 JUMP JUMPDEST SWAP5 POP PUSH2 0x4412 PUSH1 0x40 DUP10 ADD DUP10 PUSH2 0x421C JUMP JUMPDEST SWAP5 POP SWAP2 POP DUP1 DUP8 DUP7 SUB ADD PUSH1 0x60 DUP9 ADD MSTORE POP PUSH2 0x442C DUP5 DUP5 DUP4 PUSH2 0x3CD3 JUMP JUMPDEST SWAP4 POP POP PUSH2 0x443B PUSH1 0x60 DUP8 ADD PUSH2 0x31C6 JUMP JUMPDEST PUSH1 0x1 PUSH1 0x1 PUSH1 0xA0 SHL SUB DUP2 AND PUSH1 0x80 DUP8 ADD MSTORE SWAP2 POP PUSH1 0x80 DUP7 ADD CALLDATALOAD PUSH1 0xA0 DUP7 ADD MSTORE PUSH1 0xA0 DUP7 ADD CALLDATALOAD PUSH1 0xC0 DUP7 ADD MSTORE PUSH1 0xC0 DUP7 ADD CALLDATALOAD PUSH1 0xE0 DUP7 ADD MSTORE PUSH2 0x4476 PUSH1 0xE0 DUP8 ADD PUSH2 0x397F JUMP JUMPDEST SWAP2 POP PUSH2 0x100 PUSH2 0x4489 DUP2 DUP8 ADD DUP5 PUSH1 0xFF AND SWAP1 MSTORE JUMP JUMPDEST DUP7 ADD CALLDATALOAD PUSH2 0x120 DUP7 DUP2 ADD SWAP2 SWAP1 SWAP2 MSTORE DUP7 ADD CALLDATALOAD PUSH2 0x140 DUP1 DUP8 ADD SWAP2 SWAP1 SWAP2 MSTORE SWAP1 SWAP6 ADD CALLDATALOAD SWAP5 SWAP1 SWAP4 ADD SWAP4 SWAP1 SWAP4 MSTORE POP SWAP1 SWAP2 SWAP1 POP JUMP JUMPDEST PUSH2 0x44C0 DUP3 DUP4 PUSH2 0x3DF5 JUMP JUMPDEST PUSH2 0x44CB DUP2 DUP4 DUP6 PUSH2 0x3EC1 JUMP JUMPDEST POP POP PUSH2 0x44DA PUSH1 0x20 DUP4 ADD DUP4 PUSH2 0x3DF5 JUMP JUMPDEST PUSH2 0x44E8 DUP2 DUP4 PUSH1 0x1 DUP7 ADD PUSH2 0x3EC1 JUMP JUMPDEST POP POP PUSH2 0x44F7 PUSH1 0x40 DUP4 ADD DUP4 PUSH2 0x3DF5 JUMP JUMPDEST PUSH2 0x4505 DUP2 DUP4 PUSH1 0x2 DUP7 ADD PUSH2 0x3EC1 JUMP JUMPDEST POP POP PUSH2 0x4537 PUSH2 0x4516 PUSH1 0x60 DUP5 ADD PUSH2 0x3F81 JUMP JUMPDEST PUSH1 0x3 DUP4 ADD PUSH1 0x1 PUSH1 0x1 PUSH1 0xA0 SHL SUB DUP3 AND PUSH1 0x1 PUSH1 0x1 PUSH1 0xA0 SHL SUB NOT DUP3 SLOAD AND OR DUP2 SSTORE POP POP JUMP JUMPDEST PUSH1 0x80 DUP3 ADD CALLDATALOAD PUSH1 0x4 DUP3 ADD SSTORE PUSH1 0xA0 DUP3 ADD CALLDATALOAD PUSH1 0x5 DUP3 ADD SSTORE PUSH1 0xC0 DUP3 ADD CALLDATALOAD PUSH1 0x6 DUP3 ADD SSTORE PUSH2 0x4579 PUSH2 0x4564 PUSH1 0xE0 DUP5 ADD PUSH2 0x3F8E JUMP JUMPDEST PUSH1 0x7 DUP4 ADD PUSH1 0xFF DUP3 AND PUSH1 0xFF NOT DUP3 SLOAD AND OR DUP2 SSTORE POP POP JUMP JUMPDEST PUSH2 0x100 DUP3 ADD CALLDATALOAD PUSH1 0x8 DUP3 ADD SSTORE PUSH2 0x120 DUP3 ADD CALLDATALOAD PUSH1 0x9 DUP3 ADD SSTORE PUSH2 0x140 DUP3 ADD CALLDATALOAD PUSH1 0xA DUP3 ADD SSTORE POP POP JUMP JUMPDEST PUSH1 0x0 PUSH1 0x1 DUP3 ADD PUSH2 0x45B0 JUMPI PUSH2 0x45B0 PUSH2 0x3D10 JUMP JUMPDEST POP PUSH1 0x1 ADD SWAP1 JUMP INVALID LOG2 PUSH5 0x6970667358 0x22 SLT KECCAK256 LOG3 0xAA SWAP10 0xCD 0xB8 0x4F DUP2 0x22 EXTCODESIZE SWAP12 0xC PUSH27 0x425C91D9F2D853F7AAA598BD46FE1FA8FF52F90A64736F6C634300 ADDMOD SGT STOP CALLER "},"methodIdentifiers":{"amountInvested(address,string)":"041e9b89","approveDeal(string)":"48f92ee8","bondCallContract()":"5e43522e","dealBondContracts(string)":"fe0ab4b3","dealFees()":"af9080f8","dealInvestment(string,uint256)":"499fa18a","deals(string)":"a0a57dac","endSwapContract(address)":"b83c7fba","getBenchmark()":"79a94569","getContracts()":"c3a2a93a","getDeal(string)":"e7079180","getDealBondContract(string)":"2f667910","getDealFees()":"ff6689d0","getDealInvestment(string)":"c8d7f62e","getIRSContract(address,address)":"fe3b85b7","getListOfBonds()":"f3413c4f","getListOfBondsDealIDs()":"281ddc8e","getListOfDeals()":"36f9c4da","getListOfIRS()":"234b153f","getTotalAmounInvested(string)":"605936ea","identityRegistryContract()":"088674e0","irsCallContract()":"7af4d652","issue(string,(string,string,string,address,uint256,uint256,uint256,uint8,uint256,uint256,uint256),address)":"507251cb","issuerDeals(address,uint256)":"49f5d1d9","issuersFundContract()":"fb90e441","redeem(string,address)":"d7c4029c","registerForDeal(string,uint256)":"0df8bfda","rejectDeal(string)":"754f399a","rolesContract()":"ca53b391","setBenchmark(uint256)":"68a2da51","setBondContractAddress(string,address)":"1882c195","setIRSBenchmark(uint256,address)":"9f0d8d2a","setIRSContractAddress(address,address,address,(address,address,uint8,uint8,uint256,uint256,address,uint256,uint256,uint256,uint256,uint256))":"760848d0","setIssuerFundContract(address)":"7bafe3d0","setManager(address)":"d0ebdbe7","submitDeal(string,(string,string,address,uint256,uint256,uint256,uint256,uint256,uint256,address,uint8,uint8))":"19662d8e","swapIRS(address)":"3887bdcf","toposManager()":"7f31ed73","totalAmountInvestedForDeal(string)":"5ed7e2c1","withdrawIssuerFund(string)":"1b59122c"}}}}}