{"contracts/IRSCall.sol":{"IRSCall":{"abi":[{"inputs":[{"internalType":"address","name":"_owner","type":"address"},{"internalType":"address","name":"_spender","type":"address"},{"internalType":"address","name":"_irsContract","type":"address"}],"name":"allowance","outputs":[{"internalType":"uint256","name":"","type":"uint256"}],"stateMutability":"view","type":"function"},{"inputs":[{"internalType":"address","name":"_spender","type":"address"},{"internalType":"uint256","name":"_amount","type":"uint256"},{"internalType":"address","name":"_irsContract","type":"address"}],"name":"approve","outputs":[],"stateMutability":"nonpayable","type":"function"},{"inputs":[{"internalType":"address","name":"_account","type":"address"},{"internalType":"address","name":"_irsContract","type":"address"}],"name":"balanceOf","outputs":[{"internalType":"uint256","name":"","type":"uint256"}],"stateMutability":"view","type":"function"},{"inputs":[{"internalType":"address","name":"_account","type":"address"},{"internalType":"uint256","name":"_amount","type":"uint256"},{"internalType":"address","name":"_irsContract","type":"address"}],"name":"burn","outputs":[],"stateMutability":"nonpayable","type":"function"},{"inputs":[{"internalType":"address","name":"_irsContract","type":"address"}],"name":"decimals","outputs":[{"internalType":"uint8","name":"","type":"uint8"}],"stateMutability":"view","type":"function"},{"inputs":[{"internalType":"address","name":"_spender","type":"address"},{"internalType":"uint256","name":"_subtractedValue","type":"uint256"},{"internalType":"address","name":"_irsContract","type":"address"}],"name":"decreaseAllowance","outputs":[],"stateMutability":"nonpayable","type":"function"},{"inputs":[{"internalType":"address","name":"_irsContract","type":"address"}],"name":"getFixedPayerContract","outputs":[{"internalType":"address","name":"","type":"address"}],"stateMutability":"view","type":"function"},{"inputs":[{"internalType":"address","name":"_irsContract","type":"address"}],"name":"getFloatingPayerContract","outputs":[{"internalType":"address","name":"","type":"address"}],"stateMutability":"view","type":"function"},{"inputs":[{"internalType":"address","name":"_irsContract","type":"address"}],"name":"getIRSInfo","outputs":[{"components":[{"internalType":"address","name":"irsContract","type":"address"},{"internalType":"address","name":"fixedInterestPayer","type":"address"},{"internalType":"address","name":"floatingInterestPayer","type":"address"},{"internalType":"uint8","name":"ratesDecimals","type":"uint8"},{"internalType":"uint8","name":"status","type":"uint8"},{"internalType":"uint256","name":"swapRate","type":"uint256"},{"internalType":"uint256","name":"spread","type":"uint256"},{"internalType":"address","name":"assetContract","type":"address"},{"internalType":"uint256","name":"notionalAmount","type":"uint256"},{"internalType":"uint256","name":"paymentFrequency","type":"uint256"},{"internalType":"uint256","name":"startingDate","type":"uint256"},{"internalType":"uint256","name":"maturityDate","type":"uint256"},{"internalType":"uint8","name":"index","type":"uint8"}],"internalType":"struct IRSTypes.IRS","name":"","type":"tuple"}],"stateMutability":"view","type":"function"},{"inputs":[{"internalType":"address","name":"_irsContract","type":"address"}],"name":"getIRSReceipt","outputs":[{"components":[{"internalType":"address","name":"from","type":"address"},{"internalType":"address","name":"to","type":"address"},{"internalType":"uint256","name":"amount","type":"uint256"}],"internalType":"struct IRSTypes.IRSReceipt[]","name":"","type":"tuple[]"}],"stateMutability":"view","type":"function"},{"inputs":[{"internalType":"address","name":"_irsContract","type":"address"}],"name":"getNumberOfSwaps","outputs":[{"internalType":"uint8","name":"","type":"uint8"}],"stateMutability":"view","type":"function"},{"inputs":[{"internalType":"address","name":"_irsContract","type":"address"}],"name":"getSwapCount","outputs":[{"internalType":"uint8","name":"","type":"uint8"}],"stateMutability":"view","type":"function"},{"inputs":[{"internalType":"address","name":"_spender","type":"address"},{"internalType":"uint256","name":"_addedValue","type":"uint256"},{"internalType":"address","name":"_irsContract","type":"address"}],"name":"increaseAllowance","outputs":[],"stateMutability":"nonpayable","type":"function"},{"inputs":[{"internalType":"address","name":"_irsContract","type":"address"}],"name":"isContractActive","outputs":[{"internalType":"uint8","name":"","type":"uint8"}],"stateMutability":"view","type":"function"},{"inputs":[{"internalType":"address","name":"_irsContract","type":"address"}],"name":"name","outputs":[{"internalType":"string","name":"","type":"string"}],"stateMutability":"view","type":"function"},{"inputs":[{"internalType":"address","name":"_irsContract","type":"address"}],"name":"symbol","outputs":[{"internalType":"string","name":"","type":"string"}],"stateMutability":"view","type":"function"},{"inputs":[{"internalType":"address","name":"_irsContract","type":"address"}],"name":"totalSupply","outputs":[{"internalType":"uint256","name":"","type":"uint256"}],"stateMutability":"view","type":"function"},{"inputs":[{"internalType":"address","name":"_to","type":"address"},{"internalType":"uint256","name":"_amount","type":"uint256"},{"internalType":"address","name":"_irsContract","type":"address"}],"name":"transfer","outputs":[],"stateMutability":"nonpayable","type":"function"},{"inputs":[{"internalType":"address","name":"_from","type":"address"},{"internalType":"address","name":"_to","type":"address"},{"internalType":"uint256","name":"_amount","type":"uint256"},{"internalType":"address","name":"_irsContract","type":"address"}],"name":"transferFrom","outputs":[],"stateMutability":"nonpayable","type":"function"}],"evm":{"bytecode":{"linkReferences":{},"object":"6080806040523461001657611067908161001c8239f35b600080fdfe60806040908082526004918236101561001757600080fd5b60009160e08335811c9182630198489214610e075750816311c44aa714610c385781631271f09a14610bca5781635fc9309c14610b3757816364e9d73214610acc5781638fea1e4d14610a3957816391ca76f4146109ce578163927da1051461093f57816394018c5b146108d4578163a86e357614610832578163b8ce670d146107bb578163c774d0b414610750578163c84b0e501461050257508063caff59921461045d578063cdfdb7d6146103bb578063d449a83214610311578063dbba0f011461025a578063e4dc2aa4146101b75763f7888aec146100f857600080fd5b346101b357806003193601126101b3576020610112610e73565b60246001600160a01b039182610126610e89565b16855197889485937f70a0823100000000000000000000000000000000000000000000000000000000855216908301525afa9182156101a8579161016f575b6020925051908152f35b90506020823d82116101a0575b8161018960209383610f69565b8101031261019b576020915190610165565b600080fd5b3d915061017c565b9051903d90823e3d90fd5b5080fd5b50346101b3576020928360031936011261025657836001600160a01b036101dc610e73565b168351928380927f18160ddd0000000000000000000000000000000000000000000000000000000082525afa92831561024b579261021c575b5051908152f35b9091508281813d8311610244575b6102348183610f69565b8101031261019b57519038610215565b503d61022a565b8251903d90823e3d90fd5b8280fd5b508290346102565760206102c892846001600160a01b0361027a36610eee565b93919290948751988996879586937fa9059cbb0000000000000000000000000000000000000000000000000000000085528401602090939291936001600160a01b0360408201951681520152565b0393165af190811561030857506102dd575080f35b6102fd9060203d8111610301575b6102f58183610f69565b810190611005565b5080f35b503d6102eb565b513d84823e3d90fd5b50346101b3576020928360031936011261025657836001600160a01b03610336610e73565b168351928380927f313ce5670000000000000000000000000000000000000000000000000000000082525afa92831561024b57809361037c575b505060ff905191168152f35b909192508382813d83116103b4575b6103958183610f69565b810103126103b157506103a960ff91610ff7565b919038610370565b80fd5b503d61038b565b5091819234610459576001600160a01b03916103d636610eee565b9490919416803b1561045557610432948680948651978895869485937f395093510000000000000000000000000000000000000000000000000000000085528401602090939291936001600160a01b0360408201951681520152565b03925af190811561030857506104455750f35b61044e90610f22565b6103b15780f35b8580fd5b5050fd5b5091346101b35760209283600319360112610256576001600160a01b03918483610485610e73565b168351928380927f38cb8a250000000000000000000000000000000000000000000000000000000082525afa93841561024b5780946104c8575b50505191168152f35b909193508482813d83116104fb575b6104e18183610f69565b810103126103b157506104f39061101d565b9138806104bf565b503d6104d7565b849291503461074c576020918260031936011261074857610521610e73565b9381519261052e84610f4c565b868452868585015286838501528660608501528660808501528660a08501528660c0850152868185015261010087818601526101208881870152610140918983880152610160938a858901528a610180809901528651998a967f42abea790000000000000000000000000000000000000000000000000000000088526101a09b8c91816001600160a01b038095165afa96871561073e578c8a9b9c9d9a999a98610653575b50508860ff99519b828951168d5282818a015116908d0152818189015116908c01528860608801511660608c01528860808801511660808c015260a087015160a08c015260c087015160c08c01528187015116908a0152808501519089015280840151908801528083015190870152808201519086015201511690820152f35b919395975091939597508b82813d8311610737575b6106728183610f69565b810103126103b1575091879593918a61072b8b809a989660ff9c519361069785610f4c565b6106a08261101d565b85526106ad81830161101d565b908501526106bc8b820161101d565b8b8501526106cc60608201610ff7565b60608501526106dd60808201610ff7565b608085015260a081015160a085015260c081015160c085015261070186820161101d565b86850152868101518785015287810151888501528881015189850152898101518a85015201610ff7565b8982015296988d6105d3565b503d610668565b88513d8e823e3d90fd5b8480fd5b8380fd5b5050346101b3576020928360031936011261025657836001600160a01b03610776610e73565b168351928380927f4d1d62fa0000000000000000000000000000000000000000000000000000000082525afa92831561024b57809361037c57505060ff905191168152f35b8380868534610459576001600160a01b03916107d636610eee565b9490919416803b1561045557610432948680948651978895869485937f9dc29fac0000000000000000000000000000000000000000000000000000000085528401602090939291936001600160a01b0360408201951681520152565b8385843461025657602036600319011261025657826001600160a01b03610857610e73565b168251938480927f95d89b410000000000000000000000000000000000000000000000000000000082525afa9182156108ca57836108a194936108a5575b50505191829182610ec2565b0390f35b6108c29293503d8091833e6108ba8183610f69565b810190610f8b565b908380610895565b81513d85823e3d90fd5b505091346101b35760209283600319360112610256576001600160a01b039184836108fd610e73565b168351928380927fbeb9ad5f0000000000000000000000000000000000000000000000000000000082525afa93841561024b5780946104c85750505191168152f35b5050346101b35760603660031901126101b35761095a610e73565b610962610e89565b90604435916001600160a01b039182841680940361019b57602093836044938751998a9687957fdd62ed3e00000000000000000000000000000000000000000000000000000000875216908501521660248301525afa9182156101a8579161016f576020925051908152f35b5050346101b3576020928360031936011261025657836001600160a01b036109f4610e73565b168351928380927fd81671bc0000000000000000000000000000000000000000000000000000000082525afa92831561024b57809361037c57505060ff905191168152f35b8385843461025657826001600160a01b03610a5336610eee565b90921690813b1561074c5783610aac968651978895869485937fa457c2d70000000000000000000000000000000000000000000000000000000085528401602090939291936001600160a01b0360408201951681520152565b03925af19081156103085750610ac0575080f35b610ac990610f22565b80f35b5050346101b3576020928360031936011261025657836001600160a01b03610af2610e73565b168351928380927f8f5949f90000000000000000000000000000000000000000000000000000000082525afa92831561024b57809361037c57505060ff905191168152f35b8385843461025657608036600319011261025657610b53610e73565b610b5b610e89565b90606435916001600160a01b0391868385168095036103b157602094846064948851998a9788967f23b872dd000000000000000000000000000000000000000000000000000000008852169086015216602484015260443560448401525af190811561030857506102dd575080f35b838584346102565760206102c892846001600160a01b03610bea36610eee565b93919290948751988996879586937f095ea7b30000000000000000000000000000000000000000000000000000000085528401602090939291936001600160a01b0360408201951681520152565b505091346101b35760209283600319360112610256576001600160a01b0393828486610c62610e73565b168451928380927f299421d40000000000000000000000000000000000000000000000000000000082525afa938415610dfd578594610cf3575b5050929080519380850191818652845180935281818701950193905b838210610cc55786860387f35b8451805189168752808401518916878501528101518682015260609095019493820193600190910190610cb8565b909193503d8086843e610d068184610f69565b8201848382031261045557825167ffffffffffffffff93848211610df957019080601f83011215610df557815192848411610de257855194610d4d888660051b0187610f69565b8486528786019288606080970286010194818611610dde578901935b858510610d7f5750505050505050913880610c9c565b8685830312610dde57885187810181811085821117610dcb578a5287918b91610da78861101d565b8152610db483890161101d565b838201528b8801518c820152815201940193610d69565b60248d604188634e487b7160e01b835252fd5b8a80fd5b876041602492634e487b7160e01b835252fd5b8680fd5b8780fd5b83513d87823e3d90fd5b8490848288346101b35760203660031901126101b3578390816001600160a01b03610e30610e73565b167f06fdde030000000000000000000000000000000000000000000000000000000082525afa9182156108ca57836108a194936108a55750505191829182610ec2565b600435906001600160a01b038216820361019b57565b602435906001600160a01b038216820361019b57565b60005b838110610eb25750506000910152565b8181015183820152602001610ea2565b60409160208252610ee28151809281602086015260208686019101610e9f565b601f01601f1916010190565b606090600319011261019b576001600160a01b03600435818116810361019b579160243591604435908116810361019b5790565b67ffffffffffffffff8111610f3657604052565b634e487b7160e01b600052604160045260246000fd5b6101a0810190811067ffffffffffffffff821117610f3657604052565b90601f8019910116810190811067ffffffffffffffff821117610f3657604052565b60208183031261019b57805167ffffffffffffffff9182821161019b57019082601f8301121561019b578151908111610f365760405192610fd6601f8301601f191660200185610f69565b8184526020828401011161019b57610ff49160208085019101610e9f565b90565b519060ff8216820361019b57565b9081602091031261019b5751801515810361019b5790565b51906001600160a01b038216820361019b5756fea2646970667358221220144d6bdfac7763c003900a2545d95b5217966367b87d41ab60f7d1287c38fc8564736f6c63430008130033","opcodes":"PUSH1 0x80 DUP1 PUSH1 0x40 MSTORE CALLVALUE PUSH2 0x16 JUMPI PUSH2 0x1067 SWAP1 DUP2 PUSH2 0x1C DUP3 CODECOPY RETURN JUMPDEST PUSH1 0x0 DUP1 REVERT INVALID PUSH1 0x80 PUSH1 0x40 SWAP1 DUP1 DUP3 MSTORE PUSH1 0x4 SWAP2 DUP3 CALLDATASIZE LT ISZERO PUSH2 0x17 JUMPI PUSH1 0x0 DUP1 REVERT JUMPDEST PUSH1 0x0 SWAP2 PUSH1 0xE0 DUP4 CALLDATALOAD DUP2 SHR SWAP2 DUP3 PUSH4 0x1984892 EQ PUSH2 0xE07 JUMPI POP DUP2 PUSH4 0x11C44AA7 EQ PUSH2 0xC38 JUMPI DUP2 PUSH4 0x1271F09A EQ PUSH2 0xBCA JUMPI DUP2 PUSH4 0x5FC9309C EQ PUSH2 0xB37 JUMPI DUP2 PUSH4 0x64E9D732 EQ PUSH2 0xACC JUMPI DUP2 PUSH4 0x8FEA1E4D EQ PUSH2 0xA39 JUMPI DUP2 PUSH4 0x91CA76F4 EQ PUSH2 0x9CE JUMPI DUP2 PUSH4 0x927DA105 EQ PUSH2 0x93F JUMPI DUP2 PUSH4 0x94018C5B EQ PUSH2 0x8D4 JUMPI DUP2 PUSH4 0xA86E3576 EQ PUSH2 0x832 JUMPI DUP2 PUSH4 0xB8CE670D EQ PUSH2 0x7BB JUMPI DUP2 PUSH4 0xC774D0B4 EQ PUSH2 0x750 JUMPI DUP2 PUSH4 0xC84B0E50 EQ PUSH2 0x502 JUMPI POP DUP1 PUSH4 0xCAFF5992 EQ PUSH2 0x45D JUMPI DUP1 PUSH4 0xCDFDB7D6 EQ PUSH2 0x3BB JUMPI DUP1 PUSH4 0xD449A832 EQ PUSH2 0x311 JUMPI DUP1 PUSH4 0xDBBA0F01 EQ PUSH2 0x25A JUMPI DUP1 PUSH4 0xE4DC2AA4 EQ PUSH2 0x1B7 JUMPI PUSH4 0xF7888AEC EQ PUSH2 0xF8 JUMPI PUSH1 0x0 DUP1 REVERT JUMPDEST CALLVALUE PUSH2 0x1B3 JUMPI DUP1 PUSH1 0x3 NOT CALLDATASIZE ADD SLT PUSH2 0x1B3 JUMPI PUSH1 0x20 PUSH2 0x112 PUSH2 0xE73 JUMP JUMPDEST PUSH1 0x24 PUSH1 0x1 PUSH1 0x1 PUSH1 0xA0 SHL SUB SWAP2 DUP3 PUSH2 0x126 PUSH2 0xE89 JUMP JUMPDEST AND DUP6 MLOAD SWAP8 DUP9 SWAP5 DUP6 SWAP4 PUSH32 0x70A0823100000000000000000000000000000000000000000000000000000000 DUP6 MSTORE AND SWAP1 DUP4 ADD MSTORE GAS STATICCALL SWAP2 DUP3 ISZERO PUSH2 0x1A8 JUMPI SWAP2 PUSH2 0x16F JUMPI JUMPDEST PUSH1 0x20 SWAP3 POP MLOAD SWAP1 DUP2 MSTORE RETURN JUMPDEST SWAP1 POP PUSH1 0x20 DUP3 RETURNDATASIZE DUP3 GT PUSH2 0x1A0 JUMPI JUMPDEST DUP2 PUSH2 0x189 PUSH1 0x20 SWAP4 DUP4 PUSH2 0xF69 JUMP JUMPDEST DUP2 ADD SUB SLT PUSH2 0x19B JUMPI PUSH1 0x20 SWAP2 MLOAD SWAP1 PUSH2 0x165 JUMP JUMPDEST PUSH1 0x0 DUP1 REVERT JUMPDEST RETURNDATASIZE SWAP2 POP PUSH2 0x17C JUMP JUMPDEST SWAP1 MLOAD SWAP1 RETURNDATASIZE SWAP1 DUP3 RETURNDATACOPY RETURNDATASIZE SWAP1 REVERT JUMPDEST POP DUP1 REVERT JUMPDEST POP CALLVALUE PUSH2 0x1B3 JUMPI PUSH1 0x20 SWAP3 DUP4 PUSH1 0x3 NOT CALLDATASIZE ADD SLT PUSH2 0x256 JUMPI DUP4 PUSH1 0x1 PUSH1 0x1 PUSH1 0xA0 SHL SUB PUSH2 0x1DC PUSH2 0xE73 JUMP JUMPDEST AND DUP4 MLOAD SWAP3 DUP4 DUP1 SWAP3 PUSH32 0x18160DDD00000000000000000000000000000000000000000000000000000000 DUP3 MSTORE GAS STATICCALL SWAP3 DUP4 ISZERO PUSH2 0x24B JUMPI SWAP3 PUSH2 0x21C JUMPI JUMPDEST POP MLOAD SWAP1 DUP2 MSTORE RETURN JUMPDEST SWAP1 SWAP2 POP DUP3 DUP2 DUP2 RETURNDATASIZE DUP4 GT PUSH2 0x244 JUMPI JUMPDEST PUSH2 0x234 DUP2 DUP4 PUSH2 0xF69 JUMP JUMPDEST DUP2 ADD SUB SLT PUSH2 0x19B JUMPI MLOAD SWAP1 CODESIZE PUSH2 0x215 JUMP JUMPDEST POP RETURNDATASIZE PUSH2 0x22A JUMP JUMPDEST DUP3 MLOAD SWAP1 RETURNDATASIZE SWAP1 DUP3 RETURNDATACOPY RETURNDATASIZE SWAP1 REVERT JUMPDEST DUP3 DUP1 REVERT JUMPDEST POP DUP3 SWAP1 CALLVALUE PUSH2 0x256 JUMPI PUSH1 0x20 PUSH2 0x2C8 SWAP3 DUP5 PUSH1 0x1 PUSH1 0x1 PUSH1 0xA0 SHL SUB PUSH2 0x27A CALLDATASIZE PUSH2 0xEEE JUMP JUMPDEST SWAP4 SWAP2 SWAP3 SWAP1 SWAP5 DUP8 MLOAD SWAP9 DUP10 SWAP7 DUP8 SWAP6 DUP7 SWAP4 PUSH32 0xA9059CBB00000000000000000000000000000000000000000000000000000000 DUP6 MSTORE DUP5 ADD PUSH1 0x20 SWAP1 SWAP4 SWAP3 SWAP2 SWAP4 PUSH1 0x1 PUSH1 0x1 PUSH1 0xA0 SHL SUB PUSH1 0x40 DUP3 ADD SWAP6 AND DUP2 MSTORE ADD MSTORE JUMP JUMPDEST SUB SWAP4 AND GAS CALL SWAP1 DUP2 ISZERO PUSH2 0x308 JUMPI POP PUSH2 0x2DD JUMPI POP DUP1 RETURN JUMPDEST PUSH2 0x2FD SWAP1 PUSH1 0x20 RETURNDATASIZE DUP2 GT PUSH2 0x301 JUMPI JUMPDEST PUSH2 0x2F5 DUP2 DUP4 PUSH2 0xF69 JUMP JUMPDEST DUP2 ADD SWAP1 PUSH2 0x1005 JUMP JUMPDEST POP DUP1 RETURN JUMPDEST POP RETURNDATASIZE PUSH2 0x2EB JUMP JUMPDEST MLOAD RETURNDATASIZE DUP5 DUP3 RETURNDATACOPY RETURNDATASIZE SWAP1 REVERT JUMPDEST POP CALLVALUE PUSH2 0x1B3 JUMPI PUSH1 0x20 SWAP3 DUP4 PUSH1 0x3 NOT CALLDATASIZE ADD SLT PUSH2 0x256 JUMPI DUP4 PUSH1 0x1 PUSH1 0x1 PUSH1 0xA0 SHL SUB PUSH2 0x336 PUSH2 0xE73 JUMP JUMPDEST AND DUP4 MLOAD SWAP3 DUP4 DUP1 SWAP3 PUSH32 0x313CE56700000000000000000000000000000000000000000000000000000000 DUP3 MSTORE GAS STATICCALL SWAP3 DUP4 ISZERO PUSH2 0x24B JUMPI DUP1 SWAP4 PUSH2 0x37C JUMPI JUMPDEST POP POP PUSH1 0xFF SWAP1 MLOAD SWAP2 AND DUP2 MSTORE RETURN JUMPDEST SWAP1 SWAP2 SWAP3 POP DUP4 DUP3 DUP2 RETURNDATASIZE DUP4 GT PUSH2 0x3B4 JUMPI JUMPDEST PUSH2 0x395 DUP2 DUP4 PUSH2 0xF69 JUMP JUMPDEST DUP2 ADD SUB SLT PUSH2 0x3B1 JUMPI POP PUSH2 0x3A9 PUSH1 0xFF SWAP2 PUSH2 0xFF7 JUMP JUMPDEST SWAP2 SWAP1 CODESIZE PUSH2 0x370 JUMP JUMPDEST DUP1 REVERT JUMPDEST POP RETURNDATASIZE PUSH2 0x38B JUMP JUMPDEST POP SWAP2 DUP2 SWAP3 CALLVALUE PUSH2 0x459 JUMPI PUSH1 0x1 PUSH1 0x1 PUSH1 0xA0 SHL SUB SWAP2 PUSH2 0x3D6 CALLDATASIZE PUSH2 0xEEE JUMP JUMPDEST SWAP5 SWAP1 SWAP2 SWAP5 AND DUP1 EXTCODESIZE ISZERO PUSH2 0x455 JUMPI PUSH2 0x432 SWAP5 DUP7 DUP1 SWAP5 DUP7 MLOAD SWAP8 DUP9 SWAP6 DUP7 SWAP5 DUP6 SWAP4 PUSH32 0x3950935100000000000000000000000000000000000000000000000000000000 DUP6 MSTORE DUP5 ADD PUSH1 0x20 SWAP1 SWAP4 SWAP3 SWAP2 SWAP4 PUSH1 0x1 PUSH1 0x1 PUSH1 0xA0 SHL SUB PUSH1 0x40 DUP3 ADD SWAP6 AND DUP2 MSTORE ADD MSTORE JUMP JUMPDEST SUB SWAP3 GAS CALL SWAP1 DUP2 ISZERO PUSH2 0x308 JUMPI POP PUSH2 0x445 JUMPI POP RETURN JUMPDEST PUSH2 0x44E SWAP1 PUSH2 0xF22 JUMP JUMPDEST PUSH2 0x3B1 JUMPI DUP1 RETURN JUMPDEST DUP6 DUP1 REVERT JUMPDEST POP POP REVERT JUMPDEST POP SWAP2 CALLVALUE PUSH2 0x1B3 JUMPI PUSH1 0x20 SWAP3 DUP4 PUSH1 0x3 NOT CALLDATASIZE ADD SLT PUSH2 0x256 JUMPI PUSH1 0x1 PUSH1 0x1 PUSH1 0xA0 SHL SUB SWAP2 DUP5 DUP4 PUSH2 0x485 PUSH2 0xE73 JUMP JUMPDEST AND DUP4 MLOAD SWAP3 DUP4 DUP1 SWAP3 PUSH32 0x38CB8A2500000000000000000000000000000000000000000000000000000000 DUP3 MSTORE GAS STATICCALL SWAP4 DUP5 ISZERO PUSH2 0x24B JUMPI DUP1 SWAP5 PUSH2 0x4C8 JUMPI JUMPDEST POP POP MLOAD SWAP2 AND DUP2 MSTORE RETURN JUMPDEST SWAP1 SWAP2 SWAP4 POP DUP5 DUP3 DUP2 RETURNDATASIZE DUP4 GT PUSH2 0x4FB JUMPI JUMPDEST PUSH2 0x4E1 DUP2 DUP4 PUSH2 0xF69 JUMP JUMPDEST DUP2 ADD SUB SLT PUSH2 0x3B1 JUMPI POP PUSH2 0x4F3 SWAP1 PUSH2 0x101D JUMP JUMPDEST SWAP2 CODESIZE DUP1 PUSH2 0x4BF JUMP JUMPDEST POP RETURNDATASIZE PUSH2 0x4D7 JUMP JUMPDEST DUP5 SWAP3 SWAP2 POP CALLVALUE PUSH2 0x74C JUMPI PUSH1 0x20 SWAP2 DUP3 PUSH1 0x3 NOT CALLDATASIZE ADD SLT PUSH2 0x748 JUMPI PUSH2 0x521 PUSH2 0xE73 JUMP JUMPDEST SWAP4 DUP2 MLOAD SWAP3 PUSH2 0x52E DUP5 PUSH2 0xF4C JUMP JUMPDEST DUP7 DUP5 MSTORE DUP7 DUP6 DUP6 ADD MSTORE DUP7 DUP4 DUP6 ADD MSTORE DUP7 PUSH1 0x60 DUP6 ADD MSTORE DUP7 PUSH1 0x80 DUP6 ADD MSTORE DUP7 PUSH1 0xA0 DUP6 ADD MSTORE DUP7 PUSH1 0xC0 DUP6 ADD MSTORE DUP7 DUP2 DUP6 ADD MSTORE PUSH2 0x100 DUP8 DUP2 DUP7 ADD MSTORE PUSH2 0x120 DUP9 DUP2 DUP8 ADD MSTORE PUSH2 0x140 SWAP2 DUP10 DUP4 DUP9 ADD MSTORE PUSH2 0x160 SWAP4 DUP11 DUP6 DUP10 ADD MSTORE DUP11 PUSH2 0x180 DUP1 SWAP10 ADD MSTORE DUP7 MLOAD SWAP10 DUP11 SWAP7 PUSH32 0x42ABEA7900000000000000000000000000000000000000000000000000000000 DUP9 MSTORE PUSH2 0x1A0 SWAP12 DUP13 SWAP2 DUP2 PUSH1 0x1 PUSH1 0x1 PUSH1 0xA0 SHL SUB DUP1 SWAP6 AND GAS STATICCALL SWAP7 DUP8 ISZERO PUSH2 0x73E JUMPI DUP13 DUP11 SWAP12 SWAP13 SWAP14 SWAP11 SWAP10 SWAP11 SWAP9 PUSH2 0x653 JUMPI JUMPDEST POP POP DUP9 PUSH1 0xFF SWAP10 MLOAD SWAP12 DUP3 DUP10 MLOAD AND DUP14 MSTORE DUP3 DUP2 DUP11 ADD MLOAD AND SWAP1 DUP14 ADD MSTORE DUP2 DUP2 DUP10 ADD MLOAD AND SWAP1 DUP13 ADD MSTORE DUP9 PUSH1 0x60 DUP9 ADD MLOAD AND PUSH1 0x60 DUP13 ADD MSTORE DUP9 PUSH1 0x80 DUP9 ADD MLOAD AND PUSH1 0x80 DUP13 ADD MSTORE PUSH1 0xA0 DUP8 ADD MLOAD PUSH1 0xA0 DUP13 ADD MSTORE PUSH1 0xC0 DUP8 ADD MLOAD PUSH1 0xC0 DUP13 ADD MSTORE DUP2 DUP8 ADD MLOAD AND SWAP1 DUP11 ADD MSTORE DUP1 DUP6 ADD MLOAD SWAP1 DUP10 ADD MSTORE DUP1 DUP5 ADD MLOAD SWAP1 DUP9 ADD MSTORE DUP1 DUP4 ADD MLOAD SWAP1 DUP8 ADD MSTORE DUP1 DUP3 ADD MLOAD SWAP1 DUP7 ADD MSTORE ADD MLOAD AND SWAP1 DUP3 ADD MSTORE RETURN JUMPDEST SWAP2 SWAP4 SWAP6 SWAP8 POP SWAP2 SWAP4 SWAP6 SWAP8 POP DUP12 DUP3 DUP2 RETURNDATASIZE DUP4 GT PUSH2 0x737 JUMPI JUMPDEST PUSH2 0x672 DUP2 DUP4 PUSH2 0xF69 JUMP JUMPDEST DUP2 ADD SUB SLT PUSH2 0x3B1 JUMPI POP SWAP2 DUP8 SWAP6 SWAP4 SWAP2 DUP11 PUSH2 0x72B DUP12 DUP1 SWAP11 SWAP9 SWAP7 PUSH1 0xFF SWAP13 MLOAD SWAP4 PUSH2 0x697 DUP6 PUSH2 0xF4C JUMP JUMPDEST PUSH2 0x6A0 DUP3 PUSH2 0x101D JUMP JUMPDEST DUP6 MSTORE PUSH2 0x6AD DUP2 DUP4 ADD PUSH2 0x101D JUMP JUMPDEST SWAP1 DUP6 ADD MSTORE PUSH2 0x6BC DUP12 DUP3 ADD PUSH2 0x101D JUMP JUMPDEST DUP12 DUP6 ADD MSTORE PUSH2 0x6CC PUSH1 0x60 DUP3 ADD PUSH2 0xFF7 JUMP JUMPDEST PUSH1 0x60 DUP6 ADD MSTORE PUSH2 0x6DD PUSH1 0x80 DUP3 ADD PUSH2 0xFF7 JUMP JUMPDEST PUSH1 0x80 DUP6 ADD MSTORE PUSH1 0xA0 DUP2 ADD MLOAD PUSH1 0xA0 DUP6 ADD MSTORE PUSH1 0xC0 DUP2 ADD MLOAD PUSH1 0xC0 DUP6 ADD MSTORE PUSH2 0x701 DUP7 DUP3 ADD PUSH2 0x101D JUMP JUMPDEST DUP7 DUP6 ADD MSTORE DUP7 DUP2 ADD MLOAD DUP8 DUP6 ADD MSTORE DUP8 DUP2 ADD MLOAD DUP9 DUP6 ADD MSTORE DUP9 DUP2 ADD MLOAD DUP10 DUP6 ADD MSTORE DUP10 DUP2 ADD MLOAD DUP11 DUP6 ADD MSTORE ADD PUSH2 0xFF7 JUMP JUMPDEST DUP10 DUP3 ADD MSTORE SWAP7 SWAP9 DUP14 PUSH2 0x5D3 JUMP JUMPDEST POP RETURNDATASIZE PUSH2 0x668 JUMP JUMPDEST DUP9 MLOAD RETURNDATASIZE DUP15 DUP3 RETURNDATACOPY RETURNDATASIZE SWAP1 REVERT JUMPDEST DUP5 DUP1 REVERT JUMPDEST DUP4 DUP1 REVERT JUMPDEST POP POP CALLVALUE PUSH2 0x1B3 JUMPI PUSH1 0x20 SWAP3 DUP4 PUSH1 0x3 NOT CALLDATASIZE ADD SLT PUSH2 0x256 JUMPI DUP4 PUSH1 0x1 PUSH1 0x1 PUSH1 0xA0 SHL SUB PUSH2 0x776 PUSH2 0xE73 JUMP JUMPDEST AND DUP4 MLOAD SWAP3 DUP4 DUP1 SWAP3 PUSH32 0x4D1D62FA00000000000000000000000000000000000000000000000000000000 DUP3 MSTORE GAS STATICCALL SWAP3 DUP4 ISZERO PUSH2 0x24B JUMPI DUP1 SWAP4 PUSH2 0x37C JUMPI POP POP PUSH1 0xFF SWAP1 MLOAD SWAP2 AND DUP2 MSTORE RETURN JUMPDEST DUP4 DUP1 DUP7 DUP6 CALLVALUE PUSH2 0x459 JUMPI PUSH1 0x1 PUSH1 0x1 PUSH1 0xA0 SHL SUB SWAP2 PUSH2 0x7D6 CALLDATASIZE PUSH2 0xEEE JUMP JUMPDEST SWAP5 SWAP1 SWAP2 SWAP5 AND DUP1 EXTCODESIZE ISZERO PUSH2 0x455 JUMPI PUSH2 0x432 SWAP5 DUP7 DUP1 SWAP5 DUP7 MLOAD SWAP8 DUP9 SWAP6 DUP7 SWAP5 DUP6 SWAP4 PUSH32 0x9DC29FAC00000000000000000000000000000000000000000000000000000000 DUP6 MSTORE DUP5 ADD PUSH1 0x20 SWAP1 SWAP4 SWAP3 SWAP2 SWAP4 PUSH1 0x1 PUSH1 0x1 PUSH1 0xA0 SHL SUB PUSH1 0x40 DUP3 ADD SWAP6 AND DUP2 MSTORE ADD MSTORE JUMP JUMPDEST DUP4 DUP6 DUP5 CALLVALUE PUSH2 0x256 JUMPI PUSH1 0x20 CALLDATASIZE PUSH1 0x3 NOT ADD SLT PUSH2 0x256 JUMPI DUP3 PUSH1 0x1 PUSH1 0x1 PUSH1 0xA0 SHL SUB PUSH2 0x857 PUSH2 0xE73 JUMP JUMPDEST AND DUP3 MLOAD SWAP4 DUP5 DUP1 SWAP3 PUSH32 0x95D89B4100000000000000000000000000000000000000000000000000000000 DUP3 MSTORE GAS STATICCALL SWAP2 DUP3 ISZERO PUSH2 0x8CA JUMPI DUP4 PUSH2 0x8A1 SWAP5 SWAP4 PUSH2 0x8A5 JUMPI JUMPDEST POP POP MLOAD SWAP2 DUP3 SWAP2 DUP3 PUSH2 0xEC2 JUMP JUMPDEST SUB SWAP1 RETURN JUMPDEST PUSH2 0x8C2 SWAP3 SWAP4 POP RETURNDATASIZE DUP1 SWAP2 DUP4 RETURNDATACOPY PUSH2 0x8BA DUP2 DUP4 PUSH2 0xF69 JUMP JUMPDEST DUP2 ADD SWAP1 PUSH2 0xF8B JUMP JUMPDEST SWAP1 DUP4 DUP1 PUSH2 0x895 JUMP JUMPDEST DUP2 MLOAD RETURNDATASIZE DUP6 DUP3 RETURNDATACOPY RETURNDATASIZE SWAP1 REVERT JUMPDEST POP POP SWAP2 CALLVALUE PUSH2 0x1B3 JUMPI PUSH1 0x20 SWAP3 DUP4 PUSH1 0x3 NOT CALLDATASIZE ADD SLT PUSH2 0x256 JUMPI PUSH1 0x1 PUSH1 0x1 PUSH1 0xA0 SHL SUB SWAP2 DUP5 DUP4 PUSH2 0x8FD PUSH2 0xE73 JUMP JUMPDEST AND DUP4 MLOAD SWAP3 DUP4 DUP1 SWAP3 PUSH32 0xBEB9AD5F00000000000000000000000000000000000000000000000000000000 DUP3 MSTORE GAS STATICCALL SWAP4 DUP5 ISZERO PUSH2 0x24B JUMPI DUP1 SWAP5 PUSH2 0x4C8 JUMPI POP POP MLOAD SWAP2 AND DUP2 MSTORE RETURN JUMPDEST POP POP CALLVALUE PUSH2 0x1B3 JUMPI PUSH1 0x60 CALLDATASIZE PUSH1 0x3 NOT ADD SLT PUSH2 0x1B3 JUMPI PUSH2 0x95A PUSH2 0xE73 JUMP JUMPDEST PUSH2 0x962 PUSH2 0xE89 JUMP JUMPDEST SWAP1 PUSH1 0x44 CALLDATALOAD SWAP2 PUSH1 0x1 PUSH1 0x1 PUSH1 0xA0 SHL SUB SWAP2 DUP3 DUP5 AND DUP1 SWAP5 SUB PUSH2 0x19B JUMPI PUSH1 0x20 SWAP4 DUP4 PUSH1 0x44 SWAP4 DUP8 MLOAD SWAP10 DUP11 SWAP7 DUP8 SWAP6 PUSH32 0xDD62ED3E00000000000000000000000000000000000000000000000000000000 DUP8 MSTORE AND SWAP1 DUP6 ADD MSTORE AND PUSH1 0x24 DUP4 ADD MSTORE GAS STATICCALL SWAP2 DUP3 ISZERO PUSH2 0x1A8 JUMPI SWAP2 PUSH2 0x16F JUMPI PUSH1 0x20 SWAP3 POP MLOAD SWAP1 DUP2 MSTORE RETURN JUMPDEST POP POP CALLVALUE PUSH2 0x1B3 JUMPI PUSH1 0x20 SWAP3 DUP4 PUSH1 0x3 NOT CALLDATASIZE ADD SLT PUSH2 0x256 JUMPI DUP4 PUSH1 0x1 PUSH1 0x1 PUSH1 0xA0 SHL SUB PUSH2 0x9F4 PUSH2 0xE73 JUMP JUMPDEST AND DUP4 MLOAD SWAP3 DUP4 DUP1 SWAP3 PUSH32 0xD81671BC00000000000000000000000000000000000000000000000000000000 DUP3 MSTORE GAS STATICCALL SWAP3 DUP4 ISZERO PUSH2 0x24B JUMPI DUP1 SWAP4 PUSH2 0x37C JUMPI POP POP PUSH1 0xFF SWAP1 MLOAD SWAP2 AND DUP2 MSTORE RETURN JUMPDEST DUP4 DUP6 DUP5 CALLVALUE PUSH2 0x256 JUMPI DUP3 PUSH1 0x1 PUSH1 0x1 PUSH1 0xA0 SHL SUB PUSH2 0xA53 CALLDATASIZE PUSH2 0xEEE JUMP JUMPDEST SWAP1 SWAP3 AND SWAP1 DUP2 EXTCODESIZE ISZERO PUSH2 0x74C JUMPI DUP4 PUSH2 0xAAC SWAP7 DUP7 MLOAD SWAP8 DUP9 SWAP6 DUP7 SWAP5 DUP6 SWAP4 PUSH32 0xA457C2D700000000000000000000000000000000000000000000000000000000 DUP6 MSTORE DUP5 ADD PUSH1 0x20 SWAP1 SWAP4 SWAP3 SWAP2 SWAP4 PUSH1 0x1 PUSH1 0x1 PUSH1 0xA0 SHL SUB PUSH1 0x40 DUP3 ADD SWAP6 AND DUP2 MSTORE ADD MSTORE JUMP JUMPDEST SUB SWAP3 GAS CALL SWAP1 DUP2 ISZERO PUSH2 0x308 JUMPI POP PUSH2 0xAC0 JUMPI POP DUP1 RETURN JUMPDEST PUSH2 0xAC9 SWAP1 PUSH2 0xF22 JUMP JUMPDEST DUP1 RETURN JUMPDEST POP POP CALLVALUE PUSH2 0x1B3 JUMPI PUSH1 0x20 SWAP3 DUP4 PUSH1 0x3 NOT CALLDATASIZE ADD SLT PUSH2 0x256 JUMPI DUP4 PUSH1 0x1 PUSH1 0x1 PUSH1 0xA0 SHL SUB PUSH2 0xAF2 PUSH2 0xE73 JUMP JUMPDEST AND DUP4 MLOAD SWAP3 DUP4 DUP1 SWAP3 PUSH32 0x8F5949F900000000000000000000000000000000000000000000000000000000 DUP3 MSTORE GAS STATICCALL SWAP3 DUP4 ISZERO PUSH2 0x24B JUMPI DUP1 SWAP4 PUSH2 0x37C JUMPI POP POP PUSH1 0xFF SWAP1 MLOAD SWAP2 AND DUP2 MSTORE RETURN JUMPDEST DUP4 DUP6 DUP5 CALLVALUE PUSH2 0x256 JUMPI PUSH1 0x80 CALLDATASIZE PUSH1 0x3 NOT ADD SLT PUSH2 0x256 JUMPI PUSH2 0xB53 PUSH2 0xE73 JUMP JUMPDEST PUSH2 0xB5B PUSH2 0xE89 JUMP JUMPDEST SWAP1 PUSH1 0x64 CALLDATALOAD SWAP2 PUSH1 0x1 PUSH1 0x1 PUSH1 0xA0 SHL SUB SWAP2 DUP7 DUP4 DUP6 AND DUP1 SWAP6 SUB PUSH2 0x3B1 JUMPI PUSH1 0x20 SWAP5 DUP5 PUSH1 0x64 SWAP5 DUP9 MLOAD SWAP10 DUP11 SWAP8 DUP9 SWAP7 PUSH32 0x23B872DD00000000000000000000000000000000000000000000000000000000 DUP9 MSTORE AND SWAP1 DUP7 ADD MSTORE AND PUSH1 0x24 DUP5 ADD MSTORE PUSH1 0x44 CALLDATALOAD PUSH1 0x44 DUP5 ADD MSTORE GAS CALL SWAP1 DUP2 ISZERO PUSH2 0x308 JUMPI POP PUSH2 0x2DD JUMPI POP DUP1 RETURN JUMPDEST DUP4 DUP6 DUP5 CALLVALUE PUSH2 0x256 JUMPI PUSH1 0x20 PUSH2 0x2C8 SWAP3 DUP5 PUSH1 0x1 PUSH1 0x1 PUSH1 0xA0 SHL SUB PUSH2 0xBEA CALLDATASIZE PUSH2 0xEEE JUMP JUMPDEST SWAP4 SWAP2 SWAP3 SWAP1 SWAP5 DUP8 MLOAD SWAP9 DUP10 SWAP7 DUP8 SWAP6 DUP7 SWAP4 PUSH32 0x95EA7B300000000000000000000000000000000000000000000000000000000 DUP6 MSTORE DUP5 ADD PUSH1 0x20 SWAP1 SWAP4 SWAP3 SWAP2 SWAP4 PUSH1 0x1 PUSH1 0x1 PUSH1 0xA0 SHL SUB PUSH1 0x40 DUP3 ADD SWAP6 AND DUP2 MSTORE ADD MSTORE JUMP JUMPDEST POP POP SWAP2 CALLVALUE PUSH2 0x1B3 JUMPI PUSH1 0x20 SWAP3 DUP4 PUSH1 0x3 NOT CALLDATASIZE ADD SLT PUSH2 0x256 JUMPI PUSH1 0x1 PUSH1 0x1 PUSH1 0xA0 SHL SUB SWAP4 DUP3 DUP5 DUP7 PUSH2 0xC62 PUSH2 0xE73 JUMP JUMPDEST AND DUP5 MLOAD SWAP3 DUP4 DUP1 SWAP3 PUSH32 0x299421D400000000000000000000000000000000000000000000000000000000 DUP3 MSTORE GAS STATICCALL SWAP4 DUP5 ISZERO PUSH2 0xDFD JUMPI DUP6 SWAP5 PUSH2 0xCF3 JUMPI JUMPDEST POP POP SWAP3 SWAP1 DUP1 MLOAD SWAP4 DUP1 DUP6 ADD SWAP2 DUP2 DUP7 MSTORE DUP5 MLOAD DUP1 SWAP4 MSTORE DUP2 DUP2 DUP8 ADD SWAP6 ADD SWAP4 SWAP1 JUMPDEST DUP4 DUP3 LT PUSH2 0xCC5 JUMPI DUP7 DUP7 SUB DUP8 RETURN JUMPDEST DUP5 MLOAD DUP1 MLOAD DUP10 AND DUP8 MSTORE DUP1 DUP5 ADD MLOAD DUP10 AND DUP8 DUP6 ADD MSTORE DUP2 ADD MLOAD DUP7 DUP3 ADD MSTORE PUSH1 0x60 SWAP1 SWAP6 ADD SWAP5 SWAP4 DUP3 ADD SWAP4 PUSH1 0x1 SWAP1 SWAP2 ADD SWAP1 PUSH2 0xCB8 JUMP JUMPDEST SWAP1 SWAP2 SWAP4 POP RETURNDATASIZE DUP1 DUP7 DUP5 RETURNDATACOPY PUSH2 0xD06 DUP2 DUP5 PUSH2 0xF69 JUMP JUMPDEST DUP3 ADD DUP5 DUP4 DUP3 SUB SLT PUSH2 0x455 JUMPI DUP3 MLOAD PUSH8 0xFFFFFFFFFFFFFFFF SWAP4 DUP5 DUP3 GT PUSH2 0xDF9 JUMPI ADD SWAP1 DUP1 PUSH1 0x1F DUP4 ADD SLT ISZERO PUSH2 0xDF5 JUMPI DUP2 MLOAD SWAP3 DUP5 DUP5 GT PUSH2 0xDE2 JUMPI DUP6 MLOAD SWAP5 PUSH2 0xD4D DUP9 DUP7 PUSH1 0x5 SHL ADD DUP8 PUSH2 0xF69 JUMP JUMPDEST DUP5 DUP7 MSTORE DUP8 DUP7 ADD SWAP3 DUP9 PUSH1 0x60 DUP1 SWAP8 MUL DUP7 ADD ADD SWAP5 DUP2 DUP7 GT PUSH2 0xDDE JUMPI DUP10 ADD SWAP4 JUMPDEST DUP6 DUP6 LT PUSH2 0xD7F JUMPI POP POP POP POP POP POP POP SWAP2 CODESIZE DUP1 PUSH2 0xC9C JUMP JUMPDEST DUP7 DUP6 DUP4 SUB SLT PUSH2 0xDDE JUMPI DUP9 MLOAD DUP8 DUP2 ADD DUP2 DUP2 LT DUP6 DUP3 GT OR PUSH2 0xDCB JUMPI DUP11 MSTORE DUP8 SWAP2 DUP12 SWAP2 PUSH2 0xDA7 DUP9 PUSH2 0x101D JUMP JUMPDEST DUP2 MSTORE PUSH2 0xDB4 DUP4 DUP10 ADD PUSH2 0x101D JUMP JUMPDEST DUP4 DUP3 ADD MSTORE DUP12 DUP9 ADD MLOAD DUP13 DUP3 ADD MSTORE DUP2 MSTORE ADD SWAP5 ADD SWAP4 PUSH2 0xD69 JUMP JUMPDEST PUSH1 0x24 DUP14 PUSH1 0x41 DUP9 PUSH4 0x4E487B71 PUSH1 0xE0 SHL DUP4 MSTORE MSTORE REVERT JUMPDEST DUP11 DUP1 REVERT JUMPDEST DUP8 PUSH1 0x41 PUSH1 0x24 SWAP3 PUSH4 0x4E487B71 PUSH1 0xE0 SHL DUP4 MSTORE MSTORE REVERT JUMPDEST DUP7 DUP1 REVERT JUMPDEST DUP8 DUP1 REVERT JUMPDEST DUP4 MLOAD RETURNDATASIZE DUP8 DUP3 RETURNDATACOPY RETURNDATASIZE SWAP1 REVERT JUMPDEST DUP5 SWAP1 DUP5 DUP3 DUP9 CALLVALUE PUSH2 0x1B3 JUMPI PUSH1 0x20 CALLDATASIZE PUSH1 0x3 NOT ADD SLT PUSH2 0x1B3 JUMPI DUP4 SWAP1 DUP2 PUSH1 0x1 PUSH1 0x1 PUSH1 0xA0 SHL SUB PUSH2 0xE30 PUSH2 0xE73 JUMP JUMPDEST AND PUSH32 0x6FDDE0300000000000000000000000000000000000000000000000000000000 DUP3 MSTORE GAS STATICCALL SWAP2 DUP3 ISZERO PUSH2 0x8CA JUMPI DUP4 PUSH2 0x8A1 SWAP5 SWAP4 PUSH2 0x8A5 JUMPI POP POP MLOAD SWAP2 DUP3 SWAP2 DUP3 PUSH2 0xEC2 JUMP JUMPDEST PUSH1 0x4 CALLDATALOAD SWAP1 PUSH1 0x1 PUSH1 0x1 PUSH1 0xA0 SHL SUB DUP3 AND DUP3 SUB PUSH2 0x19B JUMPI JUMP JUMPDEST PUSH1 0x24 CALLDATALOAD SWAP1 PUSH1 0x1 PUSH1 0x1 PUSH1 0xA0 SHL SUB DUP3 AND DUP3 SUB PUSH2 0x19B JUMPI JUMP JUMPDEST PUSH1 0x0 JUMPDEST DUP4 DUP2 LT PUSH2 0xEB2 JUMPI POP POP PUSH1 0x0 SWAP2 ADD MSTORE JUMP JUMPDEST DUP2 DUP2 ADD MLOAD DUP4 DUP3 ADD MSTORE PUSH1 0x20 ADD PUSH2 0xEA2 JUMP JUMPDEST PUSH1 0x40 SWAP2 PUSH1 0x20 DUP3 MSTORE PUSH2 0xEE2 DUP2 MLOAD DUP1 SWAP3 DUP2 PUSH1 0x20 DUP7 ADD MSTORE PUSH1 0x20 DUP7 DUP7 ADD SWAP2 ADD PUSH2 0xE9F JUMP JUMPDEST PUSH1 0x1F ADD PUSH1 0x1F NOT AND ADD ADD SWAP1 JUMP JUMPDEST PUSH1 0x60 SWAP1 PUSH1 0x3 NOT ADD SLT PUSH2 0x19B JUMPI PUSH1 0x1 PUSH1 0x1 PUSH1 0xA0 SHL SUB PUSH1 0x4 CALLDATALOAD DUP2 DUP2 AND DUP2 SUB PUSH2 0x19B JUMPI SWAP2 PUSH1 0x24 CALLDATALOAD SWAP2 PUSH1 0x44 CALLDATALOAD SWAP1 DUP2 AND DUP2 SUB PUSH2 0x19B JUMPI SWAP1 JUMP JUMPDEST PUSH8 0xFFFFFFFFFFFFFFFF DUP2 GT PUSH2 0xF36 JUMPI PUSH1 0x40 MSTORE JUMP JUMPDEST PUSH4 0x4E487B71 PUSH1 0xE0 SHL PUSH1 0x0 MSTORE PUSH1 0x41 PUSH1 0x4 MSTORE PUSH1 0x24 PUSH1 0x0 REVERT JUMPDEST PUSH2 0x1A0 DUP2 ADD SWAP1 DUP2 LT PUSH8 0xFFFFFFFFFFFFFFFF DUP3 GT OR PUSH2 0xF36 JUMPI PUSH1 0x40 MSTORE JUMP JUMPDEST SWAP1 PUSH1 0x1F DUP1 NOT SWAP2 ADD AND DUP2 ADD SWAP1 DUP2 LT PUSH8 0xFFFFFFFFFFFFFFFF DUP3 GT OR PUSH2 0xF36 JUMPI PUSH1 0x40 MSTORE JUMP JUMPDEST PUSH1 0x20 DUP2 DUP4 SUB SLT PUSH2 0x19B JUMPI DUP1 MLOAD PUSH8 0xFFFFFFFFFFFFFFFF SWAP2 DUP3 DUP3 GT PUSH2 0x19B JUMPI ADD SWAP1 DUP3 PUSH1 0x1F DUP4 ADD SLT ISZERO PUSH2 0x19B JUMPI DUP2 MLOAD SWAP1 DUP2 GT PUSH2 0xF36 JUMPI PUSH1 0x40 MLOAD SWAP3 PUSH2 0xFD6 PUSH1 0x1F DUP4 ADD PUSH1 0x1F NOT AND PUSH1 0x20 ADD DUP6 PUSH2 0xF69 JUMP JUMPDEST DUP2 DUP5 MSTORE PUSH1 0x20 DUP3 DUP5 ADD ADD GT PUSH2 0x19B JUMPI PUSH2 0xFF4 SWAP2 PUSH1 0x20 DUP1 DUP6 ADD SWAP2 ADD PUSH2 0xE9F JUMP JUMPDEST SWAP1 JUMP JUMPDEST MLOAD SWAP1 PUSH1 0xFF DUP3 AND DUP3 SUB PUSH2 0x19B JUMPI JUMP JUMPDEST SWAP1 DUP2 PUSH1 0x20 SWAP2 SUB SLT PUSH2 0x19B JUMPI MLOAD DUP1 ISZERO ISZERO DUP2 SUB PUSH2 0x19B JUMPI SWAP1 JUMP JUMPDEST MLOAD SWAP1 PUSH1 0x1 PUSH1 0x1 PUSH1 0xA0 SHL SUB DUP3 AND DUP3 SUB PUSH2 0x19B JUMPI JUMP INVALID LOG2 PUSH5 0x6970667358 0x22 SLT KECCAK256 EQ 0x4D PUSH12 0xDFAC7763C003900A2545D95B MSTORE OR SWAP7 PUSH4 0x67B87D41 0xAB PUSH1 0xF7 0xD1 0x28 PUSH29 0x38FC8564736F6C63430008130033000000000000000000000000000000 "},"methodIdentifiers":{"allowance(address,address,address)":"927da105","approve(address,uint256,address)":"1271f09a","balanceOf(address,address)":"f7888aec","burn(address,uint256,address)":"b8ce670d","decimals(address)":"d449a832","decreaseAllowance(address,uint256,address)":"8fea1e4d","getFixedPayerContract(address)":"94018c5b","getFloatingPayerContract(address)":"caff5992","getIRSInfo(address)":"c84b0e50","getIRSReceipt(address)":"11c44aa7","getNumberOfSwaps(address)":"c774d0b4","getSwapCount(address)":"91ca76f4","increaseAllowance(address,uint256,address)":"cdfdb7d6","isContractActive(address)":"64e9d732","name(address)":"01984892","symbol(address)":"a86e3576","totalSupply(address)":"e4dc2aa4","transfer(address,uint256,address)":"dbba0f01","transferFrom(address,address,uint256,address)":"5fc9309c"}}}}}