{"contracts/Topos/Bank/ToposBank.sol":{"ToposBank":{"abi":[{"inputs":[{"internalType":"address","name":"_toposManager","type":"address"},{"internalType":"address","name":"_rolesContract","type":"address"},{"internalType":"address","name":"_identityRegistryContract","type":"address"},{"internalType":"uint256","name":"_dealFees","type":"uint256"}],"stateMutability":"nonpayable","type":"constructor"},{"inputs":[{"internalType":"string","name":"dealID","type":"string"}],"name":"InvalidDealStatus","type":"error"},{"anonymous":false,"inputs":[{"indexed":false,"internalType":"address","name":"investor","type":"address"}],"name":"ApproveInvestor","type":"event"},{"anonymous":false,"inputs":[{"indexed":false,"internalType":"address","name":"issuer","type":"address"}],"name":"ApproveIssuer","type":"event"},{"anonymous":false,"inputs":[{"indexed":false,"internalType":"string","name":"_dealID","type":"string"}],"name":"BondIssue","type":"event"},{"anonymous":false,"inputs":[{"indexed":false,"internalType":"string","name":"_dealID","type":"string"}],"name":"BondRedeem","type":"event"},{"anonymous":false,"inputs":[{"indexed":false,"internalType":"string","name":"dealID","type":"string"}],"name":"DealAPproved","type":"event"},{"anonymous":false,"inputs":[{"indexed":false,"internalType":"string","name":"dealID","type":"string"}],"name":"DealARejected","type":"event"},{"anonymous":false,"inputs":[{"indexed":false,"internalType":"string","name":"dealID","type":"string"},{"components":[{"internalType":"string","name":"dealID","type":"string"},{"internalType":"string","name":"prospectusURI","type":"string"},{"internalType":"address","name":"issuerAddress","type":"address"},{"internalType":"uint256","name":"debtAmount","type":"uint256"},{"internalType":"uint256","name":"couponRate","type":"uint256"},{"internalType":"uint256","name":"couponFrequency","type":"uint256"},{"internalType":"uint256","name":"maturityDate","type":"uint256"},{"internalType":"uint256","name":"index","type":"uint256"},{"internalType":"address","name":"currency","type":"address"},{"internalType":"uint8","name":"couponType","type":"uint8"},{"internalType":"enum BondData.DealStatus","name":"status","type":"uint8"}],"indexed":false,"internalType":"struct BondData.Deal","name":"deal","type":"tuple"}],"name":"DealSubmitted","type":"event"},{"anonymous":false,"inputs":[{"indexed":false,"internalType":"string","name":"dealID","type":"string"},{"indexed":false,"internalType":"address","name":"investor","type":"address"}],"name":"RegisterForDeal","type":"event"},{"anonymous":false,"inputs":[{"indexed":false,"internalType":"address","name":"investor","type":"address"}],"name":"RejectInvestor","type":"event"},{"anonymous":false,"inputs":[{"indexed":false,"internalType":"address","name":"issuer","type":"address"}],"name":"RejectIssuer","type":"event"},{"anonymous":false,"inputs":[{"indexed":false,"internalType":"address","name":"investor","type":"address"}],"name":"RequestInvestorRegistration","type":"event"},{"anonymous":false,"inputs":[{"indexed":false,"internalType":"address","name":"issuer","type":"address"}],"name":"RequestIssuerRegistration","type":"event"},{"inputs":[{"internalType":"address","name":"","type":"address"},{"internalType":"string","name":"","type":"string"}],"name":"amountInvested","outputs":[{"internalType":"uint256","name":"amount","type":"uint256"},{"internalType":"bool","name":"hasInvested","type":"bool"},{"internalType":"uint256","name":"index","type":"uint256"}],"stateMutability":"view","type":"function"},{"inputs":[{"internalType":"string","name":"_dealID","type":"string"}],"name":"approveDeal","outputs":[],"stateMutability":"nonpayable","type":"function"},{"inputs":[{"internalType":"address","name":"_investor","type":"address"}],"name":"approveInvestor","outputs":[],"stateMutability":"nonpayable","type":"function"},{"inputs":[{"internalType":"address","name":"_issuer","type":"address"}],"name":"approveIssuer","outputs":[],"stateMutability":"nonpayable","type":"function"},{"inputs":[{"internalType":"string","name":"","type":"string"}],"name":"dealBondContracts","outputs":[{"internalType":"address","name":"","type":"address"}],"stateMutability":"view","type":"function"},{"inputs":[],"name":"dealFees","outputs":[{"internalType":"uint256","name":"","type":"uint256"}],"stateMutability":"view","type":"function"},{"inputs":[{"internalType":"string","name":"","type":"string"},{"internalType":"uint256","name":"","type":"uint256"}],"name":"dealInvestment","outputs":[{"internalType":"address","name":"investor","type":"address"},{"internalType":"uint256","name":"amount","type":"uint256"}],"stateMutability":"view","type":"function"},{"inputs":[{"internalType":"string","name":"","type":"string"}],"name":"deals","outputs":[{"internalType":"string","name":"dealID","type":"string"},{"internalType":"string","name":"prospectusURI","type":"string"},{"internalType":"address","name":"issuerAddress","type":"address"},{"internalType":"uint256","name":"debtAmount","type":"uint256"},{"internalType":"uint256","name":"couponRate","type":"uint256"},{"internalType":"uint256","name":"couponFrequency","type":"uint256"},{"internalType":"uint256","name":"maturityDate","type":"uint256"},{"internalType":"uint256","name":"index","type":"uint256"},{"internalType":"address","name":"currency","type":"address"},{"internalType":"uint8","name":"couponType","type":"uint8"},{"internalType":"enum BondData.DealStatus","name":"status","type":"uint8"}],"stateMutability":"view","type":"function"},{"inputs":[],"name":"getDealFees","outputs":[{"internalType":"uint256","name":"","type":"uint256"}],"stateMutability":"view","type":"function"},{"inputs":[{"internalType":"string","name":"_dealID","type":"string"}],"name":"getDealInvestment","outputs":[{"components":[{"internalType":"address","name":"investor","type":"address"},{"internalType":"uint256","name":"amount","type":"uint256"}],"internalType":"struct BondData.DealInvestment[]","name":"","type":"tuple[]"}],"stateMutability":"view","type":"function"},{"inputs":[{"internalType":"string","name":"_dealID","type":"string"}],"name":"getTotalAmounInvested","outputs":[{"internalType":"uint256","name":"","type":"uint256"}],"stateMutability":"view","type":"function"},{"inputs":[],"name":"identityRegistryContract","outputs":[{"internalType":"address","name":"","type":"address"}],"stateMutability":"view","type":"function"},{"inputs":[{"internalType":"address","name":"","type":"address"}],"name":"investorStatus","outputs":[{"internalType":"enum BondData.StakeHolderStatus","name":"","type":"uint8"}],"stateMutability":"view","type":"function"},{"inputs":[{"internalType":"address","name":"","type":"address"}],"name":"investors","outputs":[{"internalType":"string","name":"name","type":"string"},{"internalType":"string","name":"country","type":"string"},{"internalType":"string","name":"investorType","type":"string"},{"internalType":"address","name":"walletAddress","type":"address"}],"stateMutability":"view","type":"function"},{"inputs":[{"internalType":"string","name":"_dealID","type":"string"},{"components":[{"internalType":"string","name":"isin","type":"string"},{"internalType":"string","name":"name","type":"string"},{"internalType":"string","name":"symbol","type":"string"},{"internalType":"address","name":"currency","type":"address"},{"internalType":"uint256","name":"denomination","type":"uint256"},{"internalType":"uint256","name":"issueVolume","type":"uint256"},{"internalType":"uint256","name":"couponRate","type":"uint256"},{"internalType":"uint8","name":"couponType","type":"uint8"},{"internalType":"uint256","name":"couponFrequency","type":"uint256"},{"internalType":"uint256","name":"issueDate","type":"uint256"},{"internalType":"uint256","name":"maturityDate","type":"uint256"}],"internalType":"struct BondData.Bond","name":"_bond","type":"tuple"},{"internalType":"address","name":"_bondContract","type":"address"}],"name":"issue","outputs":[],"stateMutability":"nonpayable","type":"function"},{"inputs":[{"internalType":"address","name":"","type":"address"},{"internalType":"uint256","name":"","type":"uint256"}],"name":"issuerDeals","outputs":[{"internalType":"string","name":"dealID","type":"string"},{"internalType":"string","name":"prospectusURI","type":"string"},{"internalType":"address","name":"issuerAddress","type":"address"},{"internalType":"uint256","name":"debtAmount","type":"uint256"},{"internalType":"uint256","name":"couponRate","type":"uint256"},{"internalType":"uint256","name":"couponFrequency","type":"uint256"},{"internalType":"uint256","name":"maturityDate","type":"uint256"},{"internalType":"uint256","name":"index","type":"uint256"},{"internalType":"address","name":"currency","type":"address"},{"internalType":"uint8","name":"couponType","type":"uint8"},{"internalType":"enum BondData.DealStatus","name":"status","type":"uint8"}],"stateMutability":"view","type":"function"},{"inputs":[{"internalType":"address","name":"","type":"address"}],"name":"issuerStatus","outputs":[{"internalType":"enum BondData.StakeHolderStatus","name":"","type":"uint8"}],"stateMutability":"view","type":"function"},{"inputs":[{"internalType":"address","name":"","type":"address"}],"name":"issuers","outputs":[{"internalType":"string","name":"documentURI","type":"string"},{"internalType":"string","name":"name","type":"string"},{"internalType":"string","name":"country","type":"string"},{"internalType":"string","name":"issuerType","type":"string"},{"internalType":"string","name":"creditRating","type":"string"},{"internalType":"uint256","name":"carbonCredit","type":"uint256"},{"internalType":"address","name":"walletAddress","type":"address"}],"stateMutability":"view","type":"function"},{"inputs":[],"name":"issuersFundContract","outputs":[{"internalType":"address","name":"","type":"address"}],"stateMutability":"view","type":"function"},{"inputs":[{"internalType":"string","name":"_dealID","type":"string"},{"internalType":"address","name":"_bondContract","type":"address"}],"name":"redeem","outputs":[],"stateMutability":"nonpayable","type":"function"},{"inputs":[{"internalType":"string","name":"_dealID","type":"string"},{"internalType":"uint256","name":"_amount","type":"uint256"}],"name":"registerForDeal","outputs":[],"stateMutability":"nonpayable","type":"function"},{"inputs":[{"internalType":"string","name":"_dealID","type":"string"}],"name":"rejectDeal","outputs":[],"stateMutability":"nonpayable","type":"function"},{"inputs":[{"internalType":"address","name":"_investor","type":"address"}],"name":"rejectInvestor","outputs":[],"stateMutability":"nonpayable","type":"function"},{"inputs":[{"internalType":"address","name":"_issuer","type":"address"}],"name":"rejectIssuer","outputs":[],"stateMutability":"nonpayable","type":"function"},{"inputs":[{"components":[{"internalType":"string","name":"name","type":"string"},{"internalType":"string","name":"country","type":"string"},{"internalType":"string","name":"investorType","type":"string"},{"internalType":"address","name":"walletAddress","type":"address"}],"internalType":"struct BondData.Investor","name":"_investor","type":"tuple"}],"name":"requestRegistrationInvestor","outputs":[],"stateMutability":"nonpayable","type":"function"},{"inputs":[{"components":[{"internalType":"string","name":"documentURI","type":"string"},{"internalType":"string","name":"name","type":"string"},{"internalType":"string","name":"country","type":"string"},{"internalType":"string","name":"issuerType","type":"string"},{"internalType":"string","name":"creditRating","type":"string"},{"internalType":"uint256","name":"carbonCredit","type":"uint256"},{"internalType":"address","name":"walletAddress","type":"address"}],"internalType":"struct BondData.Issuer","name":"_issuer","type":"tuple"}],"name":"requestRegistrationIssuer","outputs":[],"stateMutability":"nonpayable","type":"function"},{"inputs":[],"name":"rolesContract","outputs":[{"internalType":"address","name":"","type":"address"}],"stateMutability":"view","type":"function"},{"inputs":[{"internalType":"string","name":"_dealID","type":"string"},{"internalType":"address","name":"_bondContractAddress","type":"address"}],"name":"setBondContractAddress","outputs":[],"stateMutability":"nonpayable","type":"function"},{"inputs":[{"internalType":"address","name":"_issuerFundContract","type":"address"}],"name":"setIssuerFundContract","outputs":[],"stateMutability":"nonpayable","type":"function"},{"inputs":[{"internalType":"address","name":"_toposManager","type":"address"}],"name":"setManager","outputs":[],"stateMutability":"nonpayable","type":"function"},{"inputs":[{"internalType":"string","name":"_dealID","type":"string"},{"components":[{"internalType":"string","name":"dealID","type":"string"},{"internalType":"string","name":"prospectusURI","type":"string"},{"internalType":"address","name":"issuerAddress","type":"address"},{"internalType":"uint256","name":"debtAmount","type":"uint256"},{"internalType":"uint256","name":"couponRate","type":"uint256"},{"internalType":"uint256","name":"couponFrequency","type":"uint256"},{"internalType":"uint256","name":"maturityDate","type":"uint256"},{"internalType":"uint256","name":"index","type":"uint256"},{"internalType":"address","name":"currency","type":"address"},{"internalType":"uint8","name":"couponType","type":"uint8"},{"internalType":"enum BondData.DealStatus","name":"status","type":"uint8"}],"internalType":"struct BondData.Deal","name":"_deal","type":"tuple"}],"name":"submitDeal","outputs":[],"stateMutability":"nonpayable","type":"function"},{"inputs":[],"name":"toposManager","outputs":[{"internalType":"address","name":"","type":"address"}],"stateMutability":"view","type":"function"},{"inputs":[{"internalType":"string","name":"","type":"string"}],"name":"totalAmountInvestedForDeal","outputs":[{"internalType":"uint256","name":"","type":"uint256"}],"stateMutability":"view","type":"function"},{"inputs":[{"internalType":"string","name":"_dealID","type":"string"}],"name":"withdrawIssuerFund","outputs":[],"stateMutability":"nonpayable","type":"function"}],"evm":{"bytecode":{"linkReferences":{},"object":"60806040523480156200001157600080fd5b50604051620068ce380380620068ce8339818101604052810190620000379190620001b0565b83600a60006101000a81548173ffffffffffffffffffffffffffffffffffffffff021916908373ffffffffffffffffffffffffffffffffffffffff16021790555082600b60006101000a81548173ffffffffffffffffffffffffffffffffffffffff021916908373ffffffffffffffffffffffffffffffffffffffff16021790555081600c60006101000a81548173ffffffffffffffffffffffffffffffffffffffff021916908373ffffffffffffffffffffffffffffffffffffffff16021790555080600e819055505050505062000222565b600080fd5b600073ffffffffffffffffffffffffffffffffffffffff82169050919050565b60006200013d8262000110565b9050919050565b6200014f8162000130565b81146200015b57600080fd5b50565b6000815190506200016f8162000144565b92915050565b6000819050919050565b6200018a8162000175565b81146200019657600080fd5b50565b600081519050620001aa816200017f565b92915050565b60008060008060808587031215620001cd57620001cc6200010b565b5b6000620001dd878288016200015e565b9450506020620001f0878288016200015e565b935050604062000203878288016200015e565b9250506060620002168782880162000199565b91505092959194509250565b61669c80620002326000396000f3fe608060405234801561001057600080fd5b50600436106102065760003560e01c80637de141291161011a578063d0ebdbe7116100ad578063f936d49d1161007c578063f936d49d14610613578063fb90e44114610643578063fcbb3c1814610661578063fe0ab4b314610691578063ff6689d0146106c157610206565b8063d0ebdbe7146105a3578063d304a813146105bf578063d31628a0146105db578063d7c4029c146105f757610206565b8063af9080f8116100e9578063af9080f81461051b578063c88efe6514610539578063c8d7f62e14610555578063ca53b3911461058557610206565b80637de141291461048b5780637f31ed73146104a757806382deb86e146104c5578063a0a57dac146104e157610206565b806348f92ee81161019d5780635ed7e2c11161016c5780635ed7e2c1146103c0578063605936ea146103f05780636f7bc9be14610420578063754f399a146104535780637bafe3d01461046f57610206565b806348f92ee81461031d578063499fa18a1461033957806349f5d1d91461036a578063507251cb146103a457610206565b80631b59122c116101d95780631b59122c1461029357806323c8d706146102af57806338a7543e146102cb5780633dc349be1461030157610206565b8063041e9b891461020b578063088674e01461023d5780630df8bfda1461025b5780631882c19514610277575b600080fd5b6102256004803603810190610220919061428e565b6106df565b6040516102349392919061431e565b60405180910390f35b610245610739565b6040516102529190614364565b60405180910390f35b6102756004803603810190610270919061440b565b61075f565b005b610291600480360381019061028c919061446b565b610f1f565b005b6102ad60048036038101906102a891906144c7565b610f80565b005b6102c960048036038101906102c49190614535565b6111d5565b005b6102e560048036038101906102e091906145b1565b611692565b6040516102f8979695949392919061465d565b60405180910390f35b61031b6004803603810190610316919061470e565b61199c565b005b61033760048036038101906103329190614757565b611cd3565b005b610353600480360381019061034e91906147a4565b611ef4565b604051610361929190614800565b60405180910390f35b610384600480360381019061037f9190614829565b611f6b565b60405161039b9b9a999897969594939291906148fc565b60405180910390f35b6103be60048036038101906103b991906149d5565b61214c565b005b6103da60048036038101906103d591906144c7565b6126e5565b6040516103e79190614a65565b60405180910390f35b61040a60048036038101906104059190614757565b612713565b6040516104179190614a65565b60405180910390f35b61043a600480360381019061043591906145b1565b61273e565b60405161044a9493929190614a80565b60405180910390f35b61046d60048036038101906104689190614757565b612926565b005b610489600480360381019061048491906145b1565b612b47565b005b6104a560048036038101906104a091906145b1565b612c8a565b005b6104af612efc565b6040516104bc9190614364565b60405180910390f35b6104df60048036038101906104da91906145b1565b612f22565b005b6104fb60048036038101906104f691906144c7565b613194565b6040516105129b9a999897969594939291906148fc565b60405180910390f35b61052361336e565b6040516105309190614a65565b60405180910390f35b610553600480360381019061054e91906145b1565b613374565b005b61056f600480360381019061056a9190614757565b613559565b60405161057c9190614bd6565b60405180910390f35b61058d613639565b60405161059a9190614364565b60405180910390f35b6105bd60048036038101906105b891906145b1565b61365f565b005b6105d960048036038101906105d491906145b1565b61377f565b005b6105f560048036038101906105f09190614c17565b613964565b005b610611600480360381019061060c9190614c60565b613c9b565b005b61062d600480360381019061062891906145b1565b61401d565b60405161063a9190614d08565b60405180910390f35b61064b61403d565b6040516106589190614364565b60405180910390f35b61067b600480360381019061067691906145b1565b614063565b6040516106889190614d08565b60405180910390f35b6106ab60048036038101906106a691906144c7565b614083565b6040516106b89190614364565b60405180910390f35b6106c96140cc565b6040516106d69190614a65565b60405180910390f35b600860205281600052604060002081805160208101820180518482526020830160208501208183528095505050505050600091509150508060000154908060010160009054906101000a900460ff16908060020154905083565b600c60009054906101000a900473ffffffffffffffffffffffffffffffffffffffff1681565b33600c60009054906101000a900473ffffffffffffffffffffffffffffffffffffffff1673ffffffffffffffffffffffffffffffffffffffff1663b9209e33826040518263ffffffff1660e01b81526004016107bb9190614364565b602060405180830381865afa1580156107d8573d6000803e3d6000fd5b505050506040513d601f19601f820116820180604052508101906107fc9190614d4f565b61083b576040517f08c379a000000000000000000000000000000000000000000000000000000000815260040161083290614dc8565b60405180910390fd5b60006005858560405161084f929190614e18565b90815260200160405180910390205490506002600581111561087457610873614885565b5b60008686604051610886929190614e18565b908152602001604051809103902060080160159054906101000a900460ff1660058111156108b7576108b6614885565b5b146108fb5784846040517fb71650840000000000000000000000000000000000000000000000000000000081526004016108f2929190614e5e565b60405180910390fd5b6000831415801561093a575060008585604051610919929190614e18565b90815260200160405180910390206003015481846109379190614eb1565b11155b610979576040517f08c379a000000000000000000000000000000000000000000000000000000000815260040161097090614f31565b60405180910390fd5b6000600860003373ffffffffffffffffffffffffffffffffffffffff1673ffffffffffffffffffffffffffffffffffffffff16815260200190815260200160002086866040516109ca929190614e18565b908152602001604051809103902060010160009054906101000a900460ff16905083826109f79190614eb1565b60058787604051610a09929190614e18565b9081526020016040518091039020819055508015610bb5576000600860003373ffffffffffffffffffffffffffffffffffffffff1673ffffffffffffffffffffffffffffffffffffffff1681526020019081526020016000208787604051610a72929190614e18565b90815260200160405180910390206002015490506000600860003373ffffffffffffffffffffffffffffffffffffffff1673ffffffffffffffffffffffffffffffffffffffff1681526020019081526020016000208888604051610ad7929190614e18565b90815260200160405180910390206000015490508581610af79190614eb1565b60048989604051610b09929190614e18565b90815260200160405180910390208381548110610b2957610b28614f51565b5b9060005260206000209060020201600101819055508581610b4a9190614eb1565b600860003373ffffffffffffffffffffffffffffffffffffffff1673ffffffffffffffffffffffffffffffffffffffff1681526020019081526020016000208989604051610b99929190614e18565b9081526020016040518091039020600001819055505050610d52565b604051806060016040528085815260200160011515815260200160048888604051610be1929190614e18565b908152602001604051809103902080549050815250600860003373ffffffffffffffffffffffffffffffffffffffff1673ffffffffffffffffffffffffffffffffffffffff1681526020019081526020016000208787604051610c45929190614e18565b90815260200160405180910390206000820151816000015560208201518160010160006101000a81548160ff0219169083151502179055506040820151816002015590505060048686604051610c9c929190614e18565b908152602001604051809103902060405180604001604052803373ffffffffffffffffffffffffffffffffffffffff16815260200186815250908060018154018082558091505060019003906000526020600020906002020160009091909190915060008201518160000160006101000a81548173ffffffffffffffffffffffffffffffffffffffff021916908373ffffffffffffffffffffffffffffffffffffffff1602179055506020820151816001015550505b600d60009054906101000a900473ffffffffffffffffffffffffffffffffffffffff1673ffffffffffffffffffffffffffffffffffffffff1663925b7cb68787876040518463ffffffff1660e01b8152600401610db193929190614f80565b600060405180830381600087803b158015610dcb57600080fd5b505af1158015610ddf573d6000803e3d6000fd5b5050505060008686604051610df5929190614e18565b908152602001604051809103902060080160009054906101000a900473ffffffffffffffffffffffffffffffffffffffff1673ffffffffffffffffffffffffffffffffffffffff166323b872dd33600d60009054906101000a900473ffffffffffffffffffffffffffffffffffffffff16670de0b6b3a764000088610e7a9190614fb2565b6040518463ffffffff1660e01b8152600401610e9893929190614ff4565b6020604051808303816000875af1158015610eb7573d6000803e3d6000fd5b505050506040513d601f19601f82011682018060405250810190610edb9190614d4f565b507f0bdaf52b4de514796607307fbbcf007ee6d59e81e1be436b67c5a567a2e8d121868633604051610f0f9392919061502b565b60405180910390a1505050505050565b80600383604051610f30919061508e565b908152602001604051809103902060006101000a81548173ffffffffffffffffffffffffffffffffffffffff021916908373ffffffffffffffffffffffffffffffffffffffff1602179055505050565b60008082604051610f91919061508e565b908152602001604051809103902060020160009054906101000a900473ffffffffffffffffffffffffffffffffffffffff16905060008083604051610fd6919061508e565b908152602001604051809103902060080160009054906101000a900473ffffffffffffffffffffffffffffffffffffffff1690508173ffffffffffffffffffffffffffffffffffffffff163373ffffffffffffffffffffffffffffffffffffffff1614806110915750600a60009054906101000a900473ffffffffffffffffffffffffffffffffffffffff1673ffffffffffffffffffffffffffffffffffffffff163373ffffffffffffffffffffffffffffffffffffffff16145b6110d0576040517f08c379a00000000000000000000000000000000000000000000000000000000081526004016110c7906150f1565b60405180910390fd5b600073ffffffffffffffffffffffffffffffffffffffff168173ffffffffffffffffffffffffffffffffffffffff160361113f576040517f08c379a00000000000000000000000000000000000000000000000000000000081526004016111369061515d565b60405180910390fd5b600d60009054906101000a900473ffffffffffffffffffffffffffffffffffffffff1673ffffffffffffffffffffffffffffffffffffffff1663e04cd97f8484846040518463ffffffff1660e01b815260040161119e9392919061517d565b600060405180830381600087803b1580156111b857600080fd5b505af11580156111cc573d6000803e3d6000fd5b50505050505050565b600b60009054906101000a900473ffffffffffffffffffffffffffffffffffffffff1673ffffffffffffffffffffffffffffffffffffffff1663877b9a67336040518263ffffffff1660e01b81526004016112309190614364565b602060405180830381865afa15801561124d573d6000803e3d6000fd5b505050506040513d601f19601f820116820180604052508101906112719190614d4f565b6112b0576040517f08c379a00000000000000000000000000000000000000000000000000000000081526004016112a790615207565b60405180910390fd5b8060400160208101906112c391906145b1565b73ffffffffffffffffffffffffffffffffffffffff163373ffffffffffffffffffffffffffffffffffffffff1614611330576040517f08c379a000000000000000000000000000000000000000000000000000000000815260040161132790615273565b60405180910390fd5b6000600581111561134457611343614885565b5b60008484604051611356929190614e18565b908152602001604051809103902060080160159054906101000a900460ff16600581111561138757611386614885565b5b146113c7576040517f08c379a00000000000000000000000000000000000000000000000000000000081526004016113be906152df565b60405180910390fd5b80600084846040516113da929190614e18565b908152602001604051809103902081816113f49190615a8b565b90505060016000848460405161140b929190614e18565b908152602001604051809103902060080160156101000a81548160ff0219169083600581111561143e5761143d614885565b5b02179055506010805490506000848460405161145b929190614e18565b908152602001604051809103902060070181905550601060008484604051611484929190614e18565b90815260200160405180910390209080600181540180825580915050600190039060005260206000209060090201600090919091909150600082018160000190816114cf9190615aaf565b50600182018160010190816114e49190615aaf565b506002820160009054906101000a900473ffffffffffffffffffffffffffffffffffffffff168160020160006101000a81548173ffffffffffffffffffffffffffffffffffffffff021916908373ffffffffffffffffffffffffffffffffffffffff16021790555060038201548160030155600482015481600401556005820154816005015560068201548160060155600782015481600701556008820160009054906101000a900473ffffffffffffffffffffffffffffffffffffffff168160080160006101000a81548173ffffffffffffffffffffffffffffffffffffffff021916908373ffffffffffffffffffffffffffffffffffffffff1602179055506008820160149054906101000a900460ff168160080160146101000a81548160ff021916908360ff1602179055506008820160159054906101000a900460ff168160080160156101000a81548160ff0219169083600581111561164b5761164a614885565b5b021790555050507fc32e04bf1356c91e89bdc0de134ba5c3fc8df94d30cea4436e9346bc335199ed83838360405161168593929190615e3d565b60405180910390a1505050565b60016020528060005260406000206000915090508060000180546116b5906153ab565b80601f01602080910402602001604051908101604052809291908181526020018280546116e1906153ab565b801561172e5780601f106117035761010080835404028352916020019161172e565b820191906000526020600020905b81548152906001019060200180831161171157829003601f168201915b505050505090806001018054611743906153ab565b80601f016020809104026020016040519081016040528092919081815260200182805461176f906153ab565b80156117bc5780601f10611791576101008083540402835291602001916117bc565b820191906000526020600020905b81548152906001019060200180831161179f57829003601f168201915b5050505050908060020180546117d1906153ab565b80601f01602080910402602001604051908101604052809291908181526020018280546117fd906153ab565b801561184a5780601f1061181f5761010080835404028352916020019161184a565b820191906000526020600020905b81548152906001019060200180831161182d57829003601f168201915b50505050509080600301805461185f906153ab565b80601f016020809104026020016040519081016040528092919081815260200182805461188b906153ab565b80156118d85780601f106118ad576101008083540402835291602001916118d8565b820191906000526020600020905b8154815290600101906020018083116118bb57829003601f168201915b5050505050908060040180546118ed906153ab565b80601f0160208091040260200160405190810160405280929190818152602001828054611919906153ab565b80156119665780601f1061193b57610100808354040283529160200191611966565b820191906000526020600020905b81548152906001019060200180831161194957829003601f168201915b5050505050908060050154908060060160009054906101000a900473ffffffffffffffffffffffffffffffffffffffff16905087565b8060c00160208101906119af91906145b1565b600c60009054906101000a900473ffffffffffffffffffffffffffffffffffffffff1673ffffffffffffffffffffffffffffffffffffffff1663b9209e33826040518263ffffffff1660e01b8152600401611a0a9190614364565b602060405180830381865afa158015611a27573d6000803e3d6000fd5b505050506040513d601f19601f82011682018060405250810190611a4b9190614d4f565b611a8a576040517f08c379a0000000000000000000000000000000000000000000000000000000008152600401611a8190614dc8565b60405180910390fd5b8160c0016020810190611a9d91906145b1565b73ffffffffffffffffffffffffffffffffffffffff163373ffffffffffffffffffffffffffffffffffffffff1614611b0a576040517f08c379a0000000000000000000000000000000000000000000000000000000008152600401611b0190615ec2565b60405180910390fd5b60006003811115611b1e57611b1d614885565b5b600660003373ffffffffffffffffffffffffffffffffffffffff1673ffffffffffffffffffffffffffffffffffffffff16815260200190815260200160002060009054906101000a900460ff166003811115611b7d57611b7c614885565b5b14611bbd576040517f08c379a0000000000000000000000000000000000000000000000000000000008152600401611bb490615f2e565b60405180910390fd5b81600160008460c0016020810190611bd591906145b1565b73ffffffffffffffffffffffffffffffffffffffff1673ffffffffffffffffffffffffffffffffffffffff1681526020019081526020016000208181611c1b9190616039565b9050506001600660003373ffffffffffffffffffffffffffffffffffffffff1673ffffffffffffffffffffffffffffffffffffffff16815260200190815260200160002060006101000a81548160ff02191690836003811115611c8157611c80614885565b5b02179055507f0a0028275fa37d11ea8d5d29fd14fd8aa6c52af0e0cf819b89ca2cd9193f11858260c0016020810190611cba91906145b1565b604051611cc79190614364565b60405180910390a15050565b600a60009054906101000a900473ffffffffffffffffffffffffffffffffffffffff1673ffffffffffffffffffffffffffffffffffffffff163373ffffffffffffffffffffffffffffffffffffffff1614611d63576040517f08c379a0000000000000000000000000000000000000000000000000000000008152600401611d5a90616093565b60405180910390fd5b60016005811115611d7757611d76614885565b5b60008383604051611d89929190614e18565b908152602001604051809103902060080160159054906101000a900460ff166005811115611dba57611db9614885565b5b14611dfa576040517f08c379a0000000000000000000000000000000000000000000000000000000008152600401611df1906152df565b60405180910390fd5b600260008383604051611e0e929190614e18565b908152602001604051809103902060080160156101000a81548160ff02191690836005811115611e4157611e40614885565b5b02179055506002601060008484604051611e5c929190614e18565b90815260200160405180910390206007015481548110611e7f57611e7e614f51565b5b906000526020600020906009020160080160156101000a81548160ff02191690836005811115611eb257611eb1614885565b5b02179055507f039501081328ffe3eb02459ad6f6e90b69e23ba1422b574ee84c1f52b2fc03108282604051611ee8929190614e5e565b60405180910390a15050565b6004828051602081018201805184825260208301602085012081835280955050505050508181548110611f2657600080fd5b9060005260206000209060020201600091509150508060000160009054906101000a900473ffffffffffffffffffffffffffffffffffffffff16908060010154905082565b60096020528160005260406000208181548110611f8757600080fd5b906000526020600020906009020160009150915050806000018054611fab906153ab565b80601f0160208091040260200160405190810160405280929190818152602001828054611fd7906153ab565b80156120245780601f10611ff957610100808354040283529160200191612024565b820191906000526020600020905b81548152906001019060200180831161200757829003601f168201915b505050505090806001018054612039906153ab565b80601f0160208091040260200160405190810160405280929190818152602001828054612065906153ab565b80156120b25780601f10612087576101008083540402835291602001916120b2565b820191906000526020600020905b81548152906001019060200180831161209557829003601f168201915b5050505050908060020160009054906101000a900473ffffffffffffffffffffffffffffffffffffffff16908060030154908060040154908060050154908060060154908060070154908060080160009054906101000a900473ffffffffffffffffffffffffffffffffffffffff16908060080160149054906101000a900460ff16908060080160159054906101000a900460ff1690508b565b600a60009054906101000a900473ffffffffffffffffffffffffffffffffffffffff1673ffffffffffffffffffffffffffffffffffffffff163373ffffffffffffffffffffffffffffffffffffffff16146121dc576040517f08c379a00000000000000000000000000000000000000000000000000000000081526004016121d390616093565b60405180910390fd5b600260058111156121f0576121ef614885565b5b60008585604051612202929190614e18565b908152602001604051809103902060080160159054906101000a900460ff16600581111561223357612232614885565b5b146122775783836040517fb716508400000000000000000000000000000000000000000000000000000000815260040161226e929190614e5e565b60405180910390fd5b806003858560405161228a929190614e18565b908152602001604051809103902060006101000a81548173ffffffffffffffffffffffffffffffffffffffff021916908373ffffffffffffffffffffffffffffffffffffffff160217905550600460058111156122ea576122e9614885565b5b600085856040516122fc929190614e18565b908152602001604051809103902060080160159054906101000a900460ff16600581111561232d5761232c614885565b5b50506004601060008686604051612345929190614e18565b9081526020016040518091039020600701548154811061236857612367614f51565b5b906000526020600020906009020160080160156101000a81548160ff0219169083600581111561239b5761239a614885565b5b0217905550600960008086866040516123b5929190614e18565b908152602001604051809103902060020160009054906101000a900473ffffffffffffffffffffffffffffffffffffffff1673ffffffffffffffffffffffffffffffffffffffff1673ffffffffffffffffffffffffffffffffffffffff16815260200190815260200160002060008585604051612433929190614e18565b908152602001604051809103902090806001815401808255809150506001900390600052602060002090600902016000909190919091506000820181600001908161247e9190615aaf565b50600182018160010190816124939190615aaf565b506002820160009054906101000a900473ffffffffffffffffffffffffffffffffffffffff168160020160006101000a81548173ffffffffffffffffffffffffffffffffffffffff021916908373ffffffffffffffffffffffffffffffffffffffff16021790555060038201548160030155600482015481600401556005820154816005015560068201548160060155600782015481600701556008820160009054906101000a900473ffffffffffffffffffffffffffffffffffffffff168160080160006101000a81548173ffffffffffffffffffffffffffffffffffffffff021916908373ffffffffffffffffffffffffffffffffffffffff1602179055506008820160149054906101000a900460ff168160080160146101000a81548160ff021916908360ff1602179055506008820160159054906101000a900460ff168160080160156101000a81548160ff021916908360058111156125fa576125f9614885565b5b021790555050508073ffffffffffffffffffffffffffffffffffffffff1663d76805aa836040518263ffffffff1660e01b815260040161263a919061620e565b600060405180830381600087803b15801561265457600080fd5b505af1158015612668573d6000803e3d6000fd5b50505050600f8290806001815401808255809150506001900390600052602060002090600b020160009091909190915081816126a491906163e8565b50507f44b55c2d9270546faf6ff2f0acac078011883b82782d9b08de2d3af4543c2b1884846040516126d7929190614e5e565b60405180910390a150505050565b6005818051602081018201805184825260208301602085012081835280955050505050506000915090505481565b600060058383604051612727929190614e18565b908152602001604051809103902054905092915050565b6002602052806000526040600020600091509050806000018054612761906153ab565b80601f016020809104026020016040519081016040528092919081815260200182805461278d906153ab565b80156127da5780601f106127af576101008083540402835291602001916127da565b820191906000526020600020905b8154815290600101906020018083116127bd57829003601f168201915b5050505050908060010180546127ef906153ab565b80601f016020809104026020016040519081016040528092919081815260200182805461281b906153ab565b80156128685780601f1061283d57610100808354040283529160200191612868565b820191906000526020600020905b81548152906001019060200180831161284b57829003601f168201915b50505050509080600201805461287d906153ab565b80601f01602080910402602001604051908101604052809291908181526020018280546128a9906153ab565b80156128f65780601f106128cb576101008083540402835291602001916128f6565b820191906000526020600020905b8154815290600101906020018083116128d957829003601f168201915b5050505050908060030160009054906101000a900473ffffffffffffffffffffffffffffffffffffffff16905084565b600a60009054906101000a900473ffffffffffffffffffffffffffffffffffffffff1673ffffffffffffffffffffffffffffffffffffffff163373ffffffffffffffffffffffffffffffffffffffff16146129b6576040517f08c379a00000000000000000000000000000000000000000000000000000000081526004016129ad90616093565b60405180910390fd5b600160058111156129ca576129c9614885565b5b600083836040516129dc929190614e18565b908152602001604051809103902060080160159054906101000a900460ff166005811115612a0d57612a0c614885565b5b14612a4d576040517f08c379a0000000000000000000000000000000000000000000000000000000008152600401612a44906152df565b60405180910390fd5b600360008383604051612a61929190614e18565b908152602001604051809103902060080160156101000a81548160ff02191690836005811115612a9457612a93614885565b5b02179055506003601060008484604051612aaf929190614e18565b90815260200160405180910390206007015481548110612ad257612ad1614f51565b5b906000526020600020906009020160080160156101000a81548160ff02191690836005811115612b0557612b04614885565b5b02179055507f735ccdd611541d36c82a3622baab7f58b8a0f5be664555b0d9c95ddde16096d38282604051612b3b929190614e5e565b60405180910390a15050565b600a60009054906101000a900473ffffffffffffffffffffffffffffffffffffffff1673ffffffffffffffffffffffffffffffffffffffff163373ffffffffffffffffffffffffffffffffffffffff1614612bd7576040517f08c379a0000000000000000000000000000000000000000000000000000000008152600401612bce90616093565b60405180910390fd5b600073ffffffffffffffffffffffffffffffffffffffff168173ffffffffffffffffffffffffffffffffffffffff1603612c46576040517f08c379a0000000000000000000000000000000000000000000000000000000008152600401612c3d90616442565b60405180910390fd5b80600d60006101000a81548173ffffffffffffffffffffffffffffffffffffffff021916908373ffffffffffffffffffffffffffffffffffffffff16021790555050565b600a60009054906101000a900473ffffffffffffffffffffffffffffffffffffffff1673ffffffffffffffffffffffffffffffffffffffff163373ffffffffffffffffffffffffffffffffffffffff1614612d1a576040517f08c379a0000000000000000000000000000000000000000000000000000000008152600401612d1190616093565b60405180910390fd5b60016003811115612d2e57612d2d614885565b5b600760008373ffffffffffffffffffffffffffffffffffffffff1673ffffffffffffffffffffffffffffffffffffffff16815260200190815260200160002060009054906101000a900460ff166003811115612d8d57612d8c614885565b5b14612dcd576040517f08c379a0000000000000000000000000000000000000000000000000000000008152600401612dc490615f2e565b60405180910390fd5b6002600760008373ffffffffffffffffffffffffffffffffffffffff1673ffffffffffffffffffffffffffffffffffffffff16815260200190815260200160002060006101000a81548160ff02191690836003811115612e3057612e2f614885565b5b0217905550600b60009054906101000a900473ffffffffffffffffffffffffffffffffffffffff1673ffffffffffffffffffffffffffffffffffffffff1663cfde1890826040518263ffffffff1660e01b8152600401612e9091906164ae565b600060405180830381600087803b158015612eaa57600080fd5b505af1158015612ebe573d6000803e3d6000fd5b505050507f45b6e306480b490c59801f6f851ed6d7d4bd880db4c8f75dd1112d2fc0a1c9d781604051612ef19190614364565b60405180910390a150565b600a60009054906101000a900473ffffffffffffffffffffffffffffffffffffffff1681565b600a60009054906101000a900473ffffffffffffffffffffffffffffffffffffffff1673ffffffffffffffffffffffffffffffffffffffff163373ffffffffffffffffffffffffffffffffffffffff1614612fb2576040517f08c379a0000000000000000000000000000000000000000000000000000000008152600401612fa990616093565b60405180910390fd5b60016003811115612fc657612fc5614885565b5b600660008373ffffffffffffffffffffffffffffffffffffffff1673ffffffffffffffffffffffffffffffffffffffff16815260200190815260200160002060009054906101000a900460ff16600381111561302557613024614885565b5b14613065576040517f08c379a000000000000000000000000000000000000000000000000000000000815260040161305c90615f2e565b60405180910390fd5b6002600660008373ffffffffffffffffffffffffffffffffffffffff1673ffffffffffffffffffffffffffffffffffffffff16815260200190815260200160002060006101000a81548160ff021916908360038111156130c8576130c7614885565b5b0217905550600b60009054906101000a900473ffffffffffffffffffffffffffffffffffffffff1673ffffffffffffffffffffffffffffffffffffffff1663cfde1890826040518263ffffffff1660e01b81526004016131289190616528565b600060405180830381600087803b15801561314257600080fd5b505af1158015613156573d6000803e3d6000fd5b505050507f0e387c88130575bf91cadf15934854a1ed11d5c16d63f1106b6fd6e139d1202e816040516131899190614364565b60405180910390a150565b6000818051602081018201805184825260208301602085012081835280955050505050506000915090508060000180546131cd906153ab565b80601f01602080910402602001604051908101604052809291908181526020018280546131f9906153ab565b80156132465780601f1061321b57610100808354040283529160200191613246565b820191906000526020600020905b81548152906001019060200180831161322957829003601f168201915b50505050509080600101805461325b906153ab565b80601f0160208091040260200160405190810160405280929190818152602001828054613287906153ab565b80156132d45780601f106132a9576101008083540402835291602001916132d4565b820191906000526020600020905b8154815290600101906020018083116132b757829003601f168201915b5050505050908060020160009054906101000a900473ffffffffffffffffffffffffffffffffffffffff16908060030154908060040154908060050154908060060154908060070154908060080160009054906101000a900473ffffffffffffffffffffffffffffffffffffffff16908060080160149054906101000a900460ff16908060080160159054906101000a900460ff1690508b565b600e5481565b600a60009054906101000a900473ffffffffffffffffffffffffffffffffffffffff1673ffffffffffffffffffffffffffffffffffffffff163373ffffffffffffffffffffffffffffffffffffffff1614613404576040517f08c379a00000000000000000000000000000000000000000000000000000000081526004016133fb90616093565b60405180910390fd5b6001600381111561341857613417614885565b5b600660008373ffffffffffffffffffffffffffffffffffffffff1673ffffffffffffffffffffffffffffffffffffffff16815260200190815260200160002060009054906101000a900460ff16600381111561347757613476614885565b5b146134b7576040517f08c379a00000000000000000000000000000000000000000000000000000000081526004016134ae90615f2e565b60405180910390fd5b6003600660008373ffffffffffffffffffffffffffffffffffffffff1673ffffffffffffffffffffffffffffffffffffffff16815260200190815260200160002060006101000a81548160ff0219169083600381111561351a57613519614885565b5b02179055507fe341ab2ef130ae159f5f54c8be96a79ffe8f98948aa6d0e1bdeb60e6201ada2a8160405161354e9190614364565b60405180910390a150565b60606004838360405161356d929190614e18565b9081526020016040518091039020805480602002602001604051908101604052809291908181526020016000905b8282101561362d57838290600052602060002090600202016040518060400160405290816000820160009054906101000a900473ffffffffffffffffffffffffffffffffffffffff1673ffffffffffffffffffffffffffffffffffffffff1673ffffffffffffffffffffffffffffffffffffffff1681526020016001820154815250508152602001906001019061359b565b50505050905092915050565b600b60009054906101000a900473ffffffffffffffffffffffffffffffffffffffff1681565b600a60009054906101000a900473ffffffffffffffffffffffffffffffffffffffff1673ffffffffffffffffffffffffffffffffffffffff163373ffffffffffffffffffffffffffffffffffffffff16146136ef576040517f08c379a00000000000000000000000000000000000000000000000000000000081526004016136e690616093565b60405180910390fd5b600b60009054906101000a900473ffffffffffffffffffffffffffffffffffffffff1673ffffffffffffffffffffffffffffffffffffffff1663cfde1890826040518263ffffffff1660e01b815260040161374a91906165a2565b600060405180830381600087803b15801561376457600080fd5b505af1158015613778573d6000803e3d6000fd5b5050505050565b600a60009054906101000a900473ffffffffffffffffffffffffffffffffffffffff1673ffffffffffffffffffffffffffffffffffffffff163373ffffffffffffffffffffffffffffffffffffffff161461380f576040517f08c379a000000000000000000000000000000000000000000000000000000000815260040161380690616093565b60405180910390fd5b6001600381111561382357613822614885565b5b600760008373ffffffffffffffffffffffffffffffffffffffff1673ffffffffffffffffffffffffffffffffffffffff16815260200190815260200160002060009054906101000a900460ff16600381111561388257613881614885565b5b146138c2576040517f08c379a00000000000000000000000000000000000000000000000000000000081526004016138b990615f2e565b60405180910390fd5b6003600760008373ffffffffffffffffffffffffffffffffffffffff1673ffffffffffffffffffffffffffffffffffffffff16815260200190815260200160002060006101000a81548160ff0219169083600381111561392557613924614885565b5b02179055507f7456ce1c99ee8a1b09f67c52be737a92db545ec137e72de0e1b70bc0c4a12809816040516139599190614364565b60405180910390a150565b80606001602081019061397791906145b1565b600c60009054906101000a900473ffffffffffffffffffffffffffffffffffffffff1673ffffffffffffffffffffffffffffffffffffffff1663b9209e33826040518263ffffffff1660e01b81526004016139d29190614364565b602060405180830381865afa1580156139ef573d6000803e3d6000fd5b505050506040513d601f19601f82011682018060405250810190613a139190614d4f565b613a52576040517f08c379a0000000000000000000000000000000000000000000000000000000008152600401613a4990614dc8565b60405180910390fd5b816060016020810190613a6591906145b1565b73ffffffffffffffffffffffffffffffffffffffff163373ffffffffffffffffffffffffffffffffffffffff1614613ad2576040517f08c379a0000000000000000000000000000000000000000000000000000000008152600401613ac990615ec2565b60405180910390fd5b60006003811115613ae657613ae5614885565b5b600760003373ffffffffffffffffffffffffffffffffffffffff1673ffffffffffffffffffffffffffffffffffffffff16815260200190815260200160002060009054906101000a900460ff166003811115613b4557613b44614885565b5b14613b85576040517f08c379a0000000000000000000000000000000000000000000000000000000008152600401613b7c90615f2e565b60405180910390fd5b8160026000846060016020810190613b9d91906145b1565b73ffffffffffffffffffffffffffffffffffffffff1673ffffffffffffffffffffffffffffffffffffffff1681526020019081526020016000208181613be39190616658565b9050506001600760003373ffffffffffffffffffffffffffffffffffffffff1673ffffffffffffffffffffffffffffffffffffffff16815260200190815260200160002060006101000a81548160ff02191690836003811115613c4957613c48614885565b5b02179055507fe42136ccc1d423b080e7fa005aa542f4bc344c1e5420e3c313fbe9ce0077ad54826060016020810190613c8291906145b1565b604051613c8f9190614364565b60405180910390a15050565b600a60009054906101000a900473ffffffffffffffffffffffffffffffffffffffff1673ffffffffffffffffffffffffffffffffffffffff163373ffffffffffffffffffffffffffffffffffffffff1614613d2b576040517f08c379a0000000000000000000000000000000000000000000000000000000008152600401613d2290616093565b60405180910390fd5b60046005811115613d3f57613d3e614885565b5b60008484604051613d51929190614e18565b908152602001604051809103902060080160159054906101000a900460ff166005811115613d8257613d81614885565b5b14613dc65782826040517fb7165084000000000000000000000000000000000000000000000000000000008152600401613dbd929190614e5e565b60405180910390fd5b600580811115613dd957613dd8614885565b5b60008484604051613deb929190614e18565b908152602001604051809103902060080160159054906101000a900460ff166005811115613e1c57613e1b614885565b5b50506005601060008585604051613e34929190614e18565b90815260200160405180910390206007015481548110613e5757613e56614f51565b5b906000526020600020906009020160080160156101000a81548160ff02191690836005811115613e8a57613e89614885565b5b0217905550600560096000808686604051613ea6929190614e18565b908152602001604051809103902060020160009054906101000a900473ffffffffffffffffffffffffffffffffffffffff1673ffffffffffffffffffffffffffffffffffffffff1673ffffffffffffffffffffffffffffffffffffffff16815260200190815260200160002060008585604051613f24929190614e18565b90815260200160405180910390206007015481548110613f4757613f46614f51565b5b906000526020600020906009020160080160156101000a81548160ff02191690836005811115613f7a57613f79614885565b5b02179055508073ffffffffffffffffffffffffffffffffffffffff1663be040fb06040518163ffffffff1660e01b8152600401600060405180830381600087803b158015613fc757600080fd5b505af1158015613fdb573d6000803e3d6000fd5b505050507fdfdf42ff0d0eb3e6ec5b40d8cf21fb2f7102b67e5e2d56ab36e817f807213c5b8383604051614010929190614e5e565b60405180910390a1505050565b60076020528060005260406000206000915054906101000a900460ff1681565b600d60009054906101000a900473ffffffffffffffffffffffffffffffffffffffff1681565b60066020528060005260406000206000915054906101000a900460ff1681565b6003818051602081018201805184825260208301602085012081835280955050505050506000915054906101000a900473ffffffffffffffffffffffffffffffffffffffff1681565b6000600e54905090565b6000604051905090565b600080fd5b600080fd5b600073ffffffffffffffffffffffffffffffffffffffff82169050919050565b6000614115826140ea565b9050919050565b6141258161410a565b811461413057600080fd5b50565b6000813590506141428161411c565b92915050565b600080fd5b600080fd5b6000601f19601f8301169050919050565b7f4e487b7100000000000000000000000000000000000000000000000000000000600052604160045260246000fd5b61419b82614152565b810181811067ffffffffffffffff821117156141ba576141b9614163565b5b80604052505050565b60006141cd6140d6565b90506141d98282614192565b919050565b600067ffffffffffffffff8211156141f9576141f8614163565b5b61420282614152565b9050602081019050919050565b82818337600083830152505050565b600061423161422c846141de565b6141c3565b90508281526020810184848401111561424d5761424c61414d565b5b61425884828561420f565b509392505050565b600082601f83011261427557614274614148565b5b813561428584826020860161421e565b91505092915050565b600080604083850312156142a5576142a46140e0565b5b60006142b385828601614133565b925050602083013567ffffffffffffffff8111156142d4576142d36140e5565b5b6142e085828601614260565b9150509250929050565b6000819050919050565b6142fd816142ea565b82525050565b60008115159050919050565b61431881614303565b82525050565b600060608201905061433360008301866142f4565b614340602083018561430f565b61434d60408301846142f4565b949350505050565b61435e8161410a565b82525050565b60006020820190506143796000830184614355565b92915050565b600080fd5b600080fd5b60008083601f84011261439f5761439e614148565b5b8235905067ffffffffffffffff8111156143bc576143bb61437f565b5b6020830191508360018202830111156143d8576143d7614384565b5b9250929050565b6143e8816142ea565b81146143f357600080fd5b50565b600081359050614405816143df565b92915050565b600080600060408486031215614424576144236140e0565b5b600084013567ffffffffffffffff811115614442576144416140e5565b5b61444e86828701614389565b93509350506020614461868287016143f6565b9150509250925092565b60008060408385031215614482576144816140e0565b5b600083013567ffffffffffffffff8111156144a05761449f6140e5565b5b6144ac85828601614260565b92505060206144bd85828601614133565b9150509250929050565b6000602082840312156144dd576144dc6140e0565b5b600082013567ffffffffffffffff8111156144fb576144fa6140e5565b5b61450784828501614260565b91505092915050565b600080fd5b6000610160828403121561452c5761452b614510565b5b81905092915050565b60008060006040848603121561454e5761454d6140e0565b5b600084013567ffffffffffffffff81111561456c5761456b6140e5565b5b61457886828701614389565b9350935050602084013567ffffffffffffffff81111561459b5761459a6140e5565b5b6145a786828701614515565b9150509250925092565b6000602082840312156145c7576145c66140e0565b5b60006145d584828501614133565b91505092915050565b600081519050919050565b600082825260208201905092915050565b60005b838110156146185780820151818401526020810190506145fd565b60008484015250505050565b600061462f826145de565b61463981856145e9565b93506146498185602086016145fa565b61465281614152565b840191505092915050565b600060e0820190508181036000830152614677818a614624565b9050818103602083015261468b8189614624565b9050818103604083015261469f8188614624565b905081810360608301526146b38187614624565b905081810360808301526146c78186614624565b90506146d660a08301856142f4565b6146e360c0830184614355565b98975050505050505050565b600060e0828403121561470557614704614510565b5b81905092915050565b600060208284031215614724576147236140e0565b5b600082013567ffffffffffffffff811115614742576147416140e5565b5b61474e848285016146ef565b91505092915050565b6000806020838503121561476e5761476d6140e0565b5b600083013567ffffffffffffffff81111561478c5761478b6140e5565b5b61479885828601614389565b92509250509250929050565b600080604083850312156147bb576147ba6140e0565b5b600083013567ffffffffffffffff8111156147d9576147d86140e5565b5b6147e585828601614260565b92505060206147f6858286016143f6565b9150509250929050565b60006040820190506148156000830185614355565b61482260208301846142f4565b9392505050565b600080604083850312156148405761483f6140e0565b5b600061484e85828601614133565b925050602061485f858286016143f6565b9150509250929050565b600060ff82169050919050565b61487f81614869565b82525050565b7f4e487b7100000000000000000000000000000000000000000000000000000000600052602160045260246000fd5b600681106148c5576148c4614885565b5b50565b60008190506148d6826148b4565b919050565b60006148e6826148c8565b9050919050565b6148f6816148db565b82525050565b6000610160820190508181036000830152614917818e614624565b9050818103602083015261492b818d614624565b905061493a604083018c614355565b614947606083018b6142f4565b614954608083018a6142f4565b61496160a08301896142f4565b61496e60c08301886142f4565b61497b60e08301876142f4565b614989610100830186614355565b614997610120830185614876565b6149a56101408301846148ed565b9c9b505050505050505050505050565b600061016082840312156149cc576149cb614510565b5b81905092915050565b600080600080606085870312156149ef576149ee6140e0565b5b600085013567ffffffffffffffff811115614a0d57614a0c6140e5565b5b614a1987828801614389565b9450945050602085013567ffffffffffffffff811115614a3c57614a3b6140e5565b5b614a48878288016149b5565b9250506040614a5987828801614133565b91505092959194509250565b6000602082019050614a7a60008301846142f4565b92915050565b60006080820190508181036000830152614a9a8187614624565b90508181036020830152614aae8186614624565b90508181036040830152614ac28185614624565b9050614ad16060830184614355565b95945050505050565b600081519050919050565b600082825260208201905092915050565b6000819050602082019050919050565b614b0f8161410a565b82525050565b614b1e816142ea565b82525050565b604082016000820151614b3a6000850182614b06565b506020820151614b4d6020850182614b15565b50505050565b6000614b5f8383614b24565b60408301905092915050565b6000602082019050919050565b6000614b8382614ada565b614b8d8185614ae5565b9350614b9883614af6565b8060005b83811015614bc9578151614bb08882614b53565b9750614bbb83614b6b565b925050600181019050614b9c565b5085935050505092915050565b60006020820190508181036000830152614bf08184614b78565b905092915050565b600060808284031215614c0e57614c0d614510565b5b81905092915050565b600060208284031215614c2d57614c2c6140e0565b5b600082013567ffffffffffffffff811115614c4b57614c4a6140e5565b5b614c5784828501614bf8565b91505092915050565b600080600060408486031215614c7957614c786140e0565b5b600084013567ffffffffffffffff811115614c9757614c966140e5565b5b614ca386828701614389565b93509350506020614cb686828701614133565b9150509250925092565b60048110614cd157614cd0614885565b5b50565b6000819050614ce282614cc0565b919050565b6000614cf282614cd4565b9050919050565b614d0281614ce7565b82525050565b6000602082019050614d1d6000830184614cf9565b92915050565b614d2c81614303565b8114614d3757600080fd5b50565b600081519050614d4981614d23565b92915050565b600060208284031215614d6557614d646140e0565b5b6000614d7384828501614d3a565b91505092915050565b7f4143434f554e545f4e4f545f414150524f564544000000000000000000000000600082015250565b6000614db26014836145e9565b9150614dbd82614d7c565b602082019050919050565b60006020820190508181036000830152614de181614da5565b9050919050565b600081905092915050565b6000614dff8385614de8565b9350614e0c83858461420f565b82840190509392505050565b6000614e25828486614df3565b91508190509392505050565b6000614e3d83856145e9565b9350614e4a83858461420f565b614e5383614152565b840190509392505050565b60006020820190508181036000830152614e79818486614e31565b90509392505050565b7f4e487b7100000000000000000000000000000000000000000000000000000000600052601160045260246000fd5b6000614ebc826142ea565b9150614ec7836142ea565b9250828201905080821115614edf57614ede614e82565b5b92915050565b7f494e56414c49445f414d4f554e54000000000000000000000000000000000000600082015250565b6000614f1b600e836145e9565b9150614f2682614ee5565b602082019050919050565b60006020820190508181036000830152614f4a81614f0e565b9050919050565b7f4e487b7100000000000000000000000000000000000000000000000000000000600052603260045260246000fd5b60006040820190508181036000830152614f9b818587614e31565b9050614faa60208301846142f4565b949350505050565b6000614fbd826142ea565b9150614fc8836142ea565b9250828202614fd6816142ea565b91508282048414831517614fed57614fec614e82565b5b5092915050565b60006060820190506150096000830186614355565b6150166020830185614355565b61502360408301846142f4565b949350505050565b60006040820190508181036000830152615046818587614e31565b90506150556020830184614355565b949350505050565b6000615068826145de565b6150728185614de8565b93506150828185602086016145fa565b80840191505092915050565b600061509a828461505d565b915081905092915050565b7f4e4f545f4953535545525f4e4f525f544f504f535f4d414e4147455200000000600082015250565b60006150db601c836145e9565b91506150e6826150a5565b602082019050919050565b6000602082019050818103600083015261510a816150ce565b9050919050565b7f494e56414c49445f544f4b454e5f414444524553530000000000000000000000600082015250565b60006151476015836145e9565b915061515282615111565b602082019050919050565b600060208201905081810360008301526151768161513a565b9050919050565b600060608201905081810360008301526151978186614624565b90506151a66020830185614355565b6151b36040830184614355565b949350505050565b7f4f4e4c595f495353554552530000000000000000000000000000000000000000600082015250565b60006151f1600c836145e9565b91506151fc826151bb565b602082019050919050565b60006020820190508181036000830152615220816151e4565b9050919050565b7f494e56414c49445f4953535545525f4144445245535300000000000000000000600082015250565b600061525d6016836145e9565b915061526882615227565b602082019050919050565b6000602082019050818103600083015261528c81615250565b9050919050565b7f494e56414c49445f4445414c5f53544154555300000000000000000000000000600082015250565b60006152c96013836145e9565b91506152d482615293565b602082019050919050565b600060208201905081810360008301526152f8816152bc565b9050919050565b600080fd5b600080fd5b600080fd5b6000808335600160200384360303811261532b5761532a6152ff565b5b80840192508235915067ffffffffffffffff82111561534d5761534c615304565b5b60208301925060018202360383131561536957615368615309565b5b509250929050565b600082905092915050565b7f4e487b7100000000000000000000000000000000000000000000000000000000600052602260045260246000fd5b600060028204905060018216806153c357607f821691505b6020821081036153d6576153d561537c565b5b50919050565b60008190508160005260206000209050919050565b60006020601f8301049050919050565b600082821b905092915050565b60006008830261543e7fffffffffffffffffffffffffffffffffffffffffffffffffffffffffffffffff82615401565b6154488683615401565b95508019841693508086168417925050509392505050565b6000819050919050565b600061548561548061547b846142ea565b615460565b6142ea565b9050919050565b6000819050919050565b61549f8361546a565b6154b36154ab8261548c565b84845461540e565b825550505050565b600090565b6154c86154bb565b6154d3818484615496565b505050565b5b818110156154f7576154ec6000826154c0565b6001810190506154d9565b5050565b601f82111561553c5761550d816153dc565b615516846153f1565b81016020851015615525578190505b615539615531856153f1565b8301826154d8565b50505b505050565b600082821c905092915050565b600061555f60001984600802615541565b1980831691505092915050565b6000615578838361554e565b9150826002028217905092915050565b6155928383615371565b67ffffffffffffffff8111156155ab576155aa614163565b5b6155b582546153ab565b6155c08282856154fb565b6000601f8311600181146155ef57600084156155dd578287013590505b6155e7858261556c565b86555061564f565b601f1984166155fd866153dc565b60005b8281101561562557848901358255600182019150602085019450602081019050615600565b86831015615642578489013561563e601f89168261554e565b8355505b6001600288020188555050505b50505050505050565b615663838383615588565b505050565b600081356156758161411c565b80915050919050565b60008160001b9050919050565b600073ffffffffffffffffffffffffffffffffffffffff6156ab8461567e565b9350801983169250808416831791505092915050565b60006156dc6156d76156d2846140ea565b615460565b6140ea565b9050919050565b60006156ee826156c1565b9050919050565b6000615700826156e3565b9050919050565b6000819050919050565b61571a826156f5565b61572d61572682615707565b835461568b565b8255505050565b60008135615741816143df565b80915050919050565b60007fffffffffffffffffffffffffffffffffffffffffffffffffffffffffffffffff6157768461567e565b9350801983169250808416831791505092915050565b6157958261546a565b6157a86157a18261548c565b835461574a565b8255505050565b6157b881614869565b81146157c357600080fd5b50565b600081356157d3816157af565b80915050919050565b60008160a01b9050919050565b600074ff000000000000000000000000000000000000000061580a846157dc565b9350801983169250808416831791505092915050565b600061583b61583661583184614869565b615460565b614869565b9050919050565b6000819050919050565b61585582615820565b61586861586182615842565b83546157e9565b8255505050565b6006811061587c57600080fd5b50565b6000813561588c8161586f565b80915050919050565b60008160a81b9050919050565b600075ff0000000000000000000000000000000000000000006158c484615895565b9350801983169250808416831791505092915050565b60006158e5826148c8565b9050919050565b6000819050919050565b6158ff826158da565b61591261590b826158ec565b83546158a2565b8255505050565b600081016000830161592b818561530e565b615936818386615658565b50505050600181016020830161594c818561530e565b615957818386615658565b5050505060028101604083018061596d81615668565b90506159798184615711565b50505060038101606083018061598e81615734565b905061599a818461578c565b5050506004810160808301806159af81615734565b90506159bb818461578c565b5050506005810160a08301806159d081615734565b90506159dc818461578c565b5050506006810160c08301806159f181615734565b90506159fd818461578c565b5050506007810160e0830180615a1281615734565b9050615a1e818461578c565b50505060088101610100830180615a3481615668565b9050615a408184615711565b50505060088101610120830180615a56816157c6565b9050615a62818461584c565b50505060088101610140830180615a788161587f565b9050615a8481846158f6565b5050505050565b615a958282615919565b5050565b600081549050615aa8816153ab565b9050919050565b818103615abd575050615b95565b615ac682615a99565b67ffffffffffffffff811115615adf57615ade614163565b5b615ae982546153ab565b615af48282856154fb565b6000601f831160018114615b235760008415615b11578287015490505b615b1b858261556c565b865550615b8e565b601f198416615b31876153dc565b9650615b3c866153dc565b60005b82811015615b6457848901548255600182019150600185019450602081019050615b3f565b86831015615b815784890154615b7d601f89168261554e565b8355505b6001600288020188555050505b5050505050505b565b600080fd5b600080fd5b600080fd5b60008083356001602003843603038112615bc357615bc2615ba1565b5b83810192508235915060208301925067ffffffffffffffff821115615beb57615bea615b97565b5b600182023603831315615c0157615c00615b9c565b5b509250929050565b600082825260208201905092915050565b6000615c268385615c09565b9350615c3383858461420f565b615c3c83614152565b840190509392505050565b6000615c566020840184614133565b905092915050565b6000615c6d60208401846143f6565b905092915050565b600081359050615c84816157af565b92915050565b6000615c996020840184615c75565b905092915050565b615caa81614869565b82525050565b600081359050615cbf8161586f565b92915050565b6000615cd46020840184615cb0565b905092915050565b615ce5816148db565b82525050565b60006101608301615cff6000840184615ba6565b8583036000870152615d12838284615c1a565b92505050615d236020840184615ba6565b8583036020870152615d36838284615c1a565b92505050615d476040840184615c47565b615d546040860182614b06565b50615d626060840184615c5e565b615d6f6060860182614b15565b50615d7d6080840184615c5e565b615d8a6080860182614b15565b50615d9860a0840184615c5e565b615da560a0860182614b15565b50615db360c0840184615c5e565b615dc060c0860182614b15565b50615dce60e0840184615c5e565b615ddb60e0860182614b15565b50615dea610100840184615c47565b615df8610100860182614b06565b50615e07610120840184615c8a565b615e15610120860182615ca1565b50615e24610140840184615cc5565b615e32610140860182615cdc565b508091505092915050565b60006040820190508181036000830152615e58818587614e31565b90508181036020830152615e6c8184615ceb565b9050949350505050565b7f494e56414c49445f414444524553530000000000000000000000000000000000600082015250565b6000615eac600f836145e9565b9150615eb782615e76565b602082019050919050565b60006020820190508181036000830152615edb81615e9f565b9050919050565b7f434845434b5f594f55525f535441545553000000000000000000000000000000600082015250565b6000615f186011836145e9565b9150615f2382615ee2565b602082019050919050565b60006020820190508181036000830152615f4781615f0b565b9050919050565b6000810160008301615f60818561530e565b615f6b818386615658565b505050506001810160208301615f81818561530e565b615f8c818386615658565b505050506002810160408301615fa2818561530e565b615fad818386615658565b505050506003810160608301615fc3818561530e565b615fce818386615658565b505050506004810160808301615fe4818561530e565b615fef818386615658565b505050506005810160a083018061600581615734565b9050616011818461578c565b5050506006810160c083018061602681615668565b90506160328184615711565b5050505050565b6160438282615f4e565b5050565b7f4f4e4c595f544f504f535f4d414e414745520000000000000000000000000000600082015250565b600061607d6012836145e9565b915061608882616047565b602082019050919050565b600060208201905081810360008301526160ac81616070565b9050919050565b600061016083016160c76000840184615ba6565b85830360008701526160da838284615c1a565b925050506160eb6020840184615ba6565b85830360208701526160fe838284615c1a565b9250505061610f6040840184615ba6565b8583036040870152616122838284615c1a565b925050506161336060840184615c47565b6161406060860182614b06565b5061614e6080840184615c5e565b61615b6080860182614b15565b5061616960a0840184615c5e565b61617660a0860182614b15565b5061618460c0840184615c5e565b61619160c0860182614b15565b5061619f60e0840184615c8a565b6161ac60e0860182615ca1565b506161bb610100840184615c5e565b6161c9610100860182614b15565b506161d8610120840184615c5e565b6161e6610120860182614b15565b506161f5610140840184615c5e565b616203610140860182614b15565b508091505092915050565b6000602082019050818103600083015261622881846160b3565b905092915050565b600060ff61623d8461567e565b9350801983169250808416831791505092915050565b61625c82615820565b61626f61626882615842565b8354616230565b8255505050565b6000810160008301616288818561530e565b616293818386615658565b5050505060018101602083016162a9818561530e565b6162b4818386615658565b5050505060028101604083016162ca818561530e565b6162d5818386615658565b505050506003810160608301806162eb81615668565b90506162f78184615711565b50505060048101608083018061630c81615734565b9050616318818461578c565b5050506005810160a083018061632d81615734565b9050616339818461578c565b5050506006810160c083018061634e81615734565b905061635a818461578c565b5050506007810160e083018061636f816157c6565b905061637b8184616253565b5050506008810161010083018061639181615734565b905061639d818461578c565b505050600981016101208301806163b381615734565b90506163bf818461578c565b505050600a81016101408301806163d581615734565b90506163e1818461578c565b5050505050565b6163f28282616276565b5050565b7f494e56414c49445f434f4e54524143545f414444524553530000000000000000600082015250565b600061642c6018836145e9565b9150616437826163f6565b602082019050919050565b6000602082019050818103600083015261645b8161641f565b9050919050565b7f494e564553544f52000000000000000000000000000000000000000000000000600082015250565b60006164986008836145e9565b91506164a382616462565b602082019050919050565b600060408201905081810360008301526164c78161648b565b90506164d66020830184614355565b92915050565b7f4953535545520000000000000000000000000000000000000000000000000000600082015250565b60006165126006836145e9565b915061651d826164dc565b602082019050919050565b6000604082019050818103600083015261654181616505565b90506165506020830184614355565b92915050565b7f4d414e4147455200000000000000000000000000000000000000000000000000600082015250565b600061658c6007836145e9565b915061659782616556565b602082019050919050565b600060408201905081810360008301526165bb8161657f565b90506165ca6020830184614355565b92915050565b60008101600083016165e2818561530e565b6165ed818386615658565b505050506001810160208301616603818561530e565b61660e818386615658565b505050506002810160408301616624818561530e565b61662f818386615658565b5050505060038101606083018061664581615668565b90506166518184615711565b5050505050565b61666282826165d0565b505056fea26469706673582212208588d9ce60238419d9472500c4eef8fdb5150c617ebde758726827f4822f938264736f6c63430008130033","opcodes":"PUSH1 0x80 PUSH1 0x40 MSTORE CALLVALUE DUP1 ISZERO PUSH3 0x11 JUMPI PUSH1 0x0 DUP1 REVERT JUMPDEST POP PUSH1 0x40 MLOAD PUSH3 0x68CE CODESIZE SUB DUP1 PUSH3 0x68CE DUP4 CODECOPY DUP2 DUP2 ADD PUSH1 0x40 MSTORE DUP2 ADD SWAP1 PUSH3 0x37 SWAP2 SWAP1 PUSH3 0x1B0 JUMP JUMPDEST DUP4 PUSH1 0xA PUSH1 0x0 PUSH2 0x100 EXP DUP2 SLOAD DUP2 PUSH20 0xFFFFFFFFFFFFFFFFFFFFFFFFFFFFFFFFFFFFFFFF MUL NOT AND SWAP1 DUP4 PUSH20 0xFFFFFFFFFFFFFFFFFFFFFFFFFFFFFFFFFFFFFFFF AND MUL OR SWAP1 SSTORE POP DUP3 PUSH1 0xB PUSH1 0x0 PUSH2 0x100 EXP DUP2 SLOAD DUP2 PUSH20 0xFFFFFFFFFFFFFFFFFFFFFFFFFFFFFFFFFFFFFFFF MUL NOT AND SWAP1 DUP4 PUSH20 0xFFFFFFFFFFFFFFFFFFFFFFFFFFFFFFFFFFFFFFFF AND MUL OR SWAP1 SSTORE POP DUP2 PUSH1 0xC PUSH1 0x0 PUSH2 0x100 EXP DUP2 SLOAD DUP2 PUSH20 0xFFFFFFFFFFFFFFFFFFFFFFFFFFFFFFFFFFFFFFFF MUL NOT AND SWAP1 DUP4 PUSH20 0xFFFFFFFFFFFFFFFFFFFFFFFFFFFFFFFFFFFFFFFF AND MUL OR SWAP1 SSTORE POP DUP1 PUSH1 0xE DUP2 SWAP1 SSTORE POP POP POP POP POP PUSH3 0x222 JUMP JUMPDEST PUSH1 0x0 DUP1 REVERT JUMPDEST PUSH1 0x0 PUSH20 0xFFFFFFFFFFFFFFFFFFFFFFFFFFFFFFFFFFFFFFFF DUP3 AND SWAP1 POP SWAP2 SWAP1 POP JUMP JUMPDEST PUSH1 0x0 PUSH3 0x13D DUP3 PUSH3 0x110 JUMP JUMPDEST SWAP1 POP SWAP2 SWAP1 POP JUMP JUMPDEST PUSH3 0x14F DUP2 PUSH3 0x130 JUMP JUMPDEST DUP2 EQ PUSH3 0x15B JUMPI PUSH1 0x0 DUP1 REVERT JUMPDEST POP JUMP JUMPDEST PUSH1 0x0 DUP2 MLOAD SWAP1 POP PUSH3 0x16F DUP2 PUSH3 0x144 JUMP JUMPDEST SWAP3 SWAP2 POP POP JUMP JUMPDEST PUSH1 0x0 DUP2 SWAP1 POP SWAP2 SWAP1 POP JUMP JUMPDEST PUSH3 0x18A DUP2 PUSH3 0x175 JUMP JUMPDEST DUP2 EQ PUSH3 0x196 JUMPI PUSH1 0x0 DUP1 REVERT JUMPDEST POP JUMP JUMPDEST PUSH1 0x0 DUP2 MLOAD SWAP1 POP PUSH3 0x1AA DUP2 PUSH3 0x17F JUMP JUMPDEST SWAP3 SWAP2 POP POP JUMP JUMPDEST PUSH1 0x0 DUP1 PUSH1 0x0 DUP1 PUSH1 0x80 DUP6 DUP8 SUB SLT ISZERO PUSH3 0x1CD JUMPI PUSH3 0x1CC PUSH3 0x10B JUMP JUMPDEST JUMPDEST PUSH1 0x0 PUSH3 0x1DD DUP8 DUP3 DUP9 ADD PUSH3 0x15E JUMP JUMPDEST SWAP5 POP POP PUSH1 0x20 PUSH3 0x1F0 DUP8 DUP3 DUP9 ADD PUSH3 0x15E JUMP JUMPDEST SWAP4 POP POP PUSH1 0x40 PUSH3 0x203 DUP8 DUP3 DUP9 ADD PUSH3 0x15E JUMP JUMPDEST SWAP3 POP POP PUSH1 0x60 PUSH3 0x216 DUP8 DUP3 DUP9 ADD PUSH3 0x199 JUMP JUMPDEST SWAP2 POP POP SWAP3 SWAP6 SWAP2 SWAP5 POP SWAP3 POP JUMP JUMPDEST PUSH2 0x669C DUP1 PUSH3 0x232 PUSH1 0x0 CODECOPY PUSH1 0x0 RETURN INVALID PUSH1 0x80 PUSH1 0x40 MSTORE CALLVALUE DUP1 ISZERO PUSH2 0x10 JUMPI PUSH1 0x0 DUP1 REVERT JUMPDEST POP PUSH1 0x4 CALLDATASIZE LT PUSH2 0x206 JUMPI PUSH1 0x0 CALLDATALOAD PUSH1 0xE0 SHR DUP1 PUSH4 0x7DE14129 GT PUSH2 0x11A JUMPI DUP1 PUSH4 0xD0EBDBE7 GT PUSH2 0xAD JUMPI DUP1 PUSH4 0xF936D49D GT PUSH2 0x7C JUMPI DUP1 PUSH4 0xF936D49D EQ PUSH2 0x613 JUMPI DUP1 PUSH4 0xFB90E441 EQ PUSH2 0x643 JUMPI DUP1 PUSH4 0xFCBB3C18 EQ PUSH2 0x661 JUMPI DUP1 PUSH4 0xFE0AB4B3 EQ PUSH2 0x691 JUMPI DUP1 PUSH4 0xFF6689D0 EQ PUSH2 0x6C1 JUMPI PUSH2 0x206 JUMP JUMPDEST DUP1 PUSH4 0xD0EBDBE7 EQ PUSH2 0x5A3 JUMPI DUP1 PUSH4 0xD304A813 EQ PUSH2 0x5BF JUMPI DUP1 PUSH4 0xD31628A0 EQ PUSH2 0x5DB JUMPI DUP1 PUSH4 0xD7C4029C EQ PUSH2 0x5F7 JUMPI PUSH2 0x206 JUMP JUMPDEST DUP1 PUSH4 0xAF9080F8 GT PUSH2 0xE9 JUMPI DUP1 PUSH4 0xAF9080F8 EQ PUSH2 0x51B JUMPI DUP1 PUSH4 0xC88EFE65 EQ PUSH2 0x539 JUMPI DUP1 PUSH4 0xC8D7F62E EQ PUSH2 0x555 JUMPI DUP1 PUSH4 0xCA53B391 EQ PUSH2 0x585 JUMPI PUSH2 0x206 JUMP JUMPDEST DUP1 PUSH4 0x7DE14129 EQ PUSH2 0x48B JUMPI DUP1 PUSH4 0x7F31ED73 EQ PUSH2 0x4A7 JUMPI DUP1 PUSH4 0x82DEB86E EQ PUSH2 0x4C5 JUMPI DUP1 PUSH4 0xA0A57DAC EQ PUSH2 0x4E1 JUMPI PUSH2 0x206 JUMP JUMPDEST DUP1 PUSH4 0x48F92EE8 GT PUSH2 0x19D JUMPI DUP1 PUSH4 0x5ED7E2C1 GT PUSH2 0x16C JUMPI DUP1 PUSH4 0x5ED7E2C1 EQ PUSH2 0x3C0 JUMPI DUP1 PUSH4 0x605936EA EQ PUSH2 0x3F0 JUMPI DUP1 PUSH4 0x6F7BC9BE EQ PUSH2 0x420 JUMPI DUP1 PUSH4 0x754F399A EQ PUSH2 0x453 JUMPI DUP1 PUSH4 0x7BAFE3D0 EQ PUSH2 0x46F JUMPI PUSH2 0x206 JUMP JUMPDEST DUP1 PUSH4 0x48F92EE8 EQ PUSH2 0x31D JUMPI DUP1 PUSH4 0x499FA18A EQ PUSH2 0x339 JUMPI DUP1 PUSH4 0x49F5D1D9 EQ PUSH2 0x36A JUMPI DUP1 PUSH4 0x507251CB EQ PUSH2 0x3A4 JUMPI PUSH2 0x206 JUMP JUMPDEST DUP1 PUSH4 0x1B59122C GT PUSH2 0x1D9 JUMPI DUP1 PUSH4 0x1B59122C EQ PUSH2 0x293 JUMPI DUP1 PUSH4 0x23C8D706 EQ PUSH2 0x2AF JUMPI DUP1 PUSH4 0x38A7543E EQ PUSH2 0x2CB JUMPI DUP1 PUSH4 0x3DC349BE EQ PUSH2 0x301 JUMPI PUSH2 0x206 JUMP JUMPDEST DUP1 PUSH4 0x41E9B89 EQ PUSH2 0x20B JUMPI DUP1 PUSH4 0x88674E0 EQ PUSH2 0x23D JUMPI DUP1 PUSH4 0xDF8BFDA EQ PUSH2 0x25B JUMPI DUP1 PUSH4 0x1882C195 EQ PUSH2 0x277 JUMPI JUMPDEST PUSH1 0x0 DUP1 REVERT JUMPDEST PUSH2 0x225 PUSH1 0x4 DUP1 CALLDATASIZE SUB DUP2 ADD SWAP1 PUSH2 0x220 SWAP2 SWAP1 PUSH2 0x428E JUMP JUMPDEST PUSH2 0x6DF JUMP JUMPDEST PUSH1 0x40 MLOAD PUSH2 0x234 SWAP4 SWAP3 SWAP2 SWAP1 PUSH2 0x431E JUMP JUMPDEST PUSH1 0x40 MLOAD DUP1 SWAP2 SUB SWAP1 RETURN JUMPDEST PUSH2 0x245 PUSH2 0x739 JUMP JUMPDEST PUSH1 0x40 MLOAD PUSH2 0x252 SWAP2 SWAP1 PUSH2 0x4364 JUMP JUMPDEST PUSH1 0x40 MLOAD DUP1 SWAP2 SUB SWAP1 RETURN JUMPDEST PUSH2 0x275 PUSH1 0x4 DUP1 CALLDATASIZE SUB DUP2 ADD SWAP1 PUSH2 0x270 SWAP2 SWAP1 PUSH2 0x440B JUMP JUMPDEST PUSH2 0x75F JUMP JUMPDEST STOP JUMPDEST PUSH2 0x291 PUSH1 0x4 DUP1 CALLDATASIZE SUB DUP2 ADD SWAP1 PUSH2 0x28C SWAP2 SWAP1 PUSH2 0x446B JUMP JUMPDEST PUSH2 0xF1F JUMP JUMPDEST STOP JUMPDEST PUSH2 0x2AD PUSH1 0x4 DUP1 CALLDATASIZE SUB DUP2 ADD SWAP1 PUSH2 0x2A8 SWAP2 SWAP1 PUSH2 0x44C7 JUMP JUMPDEST PUSH2 0xF80 JUMP JUMPDEST STOP JUMPDEST PUSH2 0x2C9 PUSH1 0x4 DUP1 CALLDATASIZE SUB DUP2 ADD SWAP1 PUSH2 0x2C4 SWAP2 SWAP1 PUSH2 0x4535 JUMP JUMPDEST PUSH2 0x11D5 JUMP JUMPDEST STOP JUMPDEST PUSH2 0x2E5 PUSH1 0x4 DUP1 CALLDATASIZE SUB DUP2 ADD SWAP1 PUSH2 0x2E0 SWAP2 SWAP1 PUSH2 0x45B1 JUMP JUMPDEST PUSH2 0x1692 JUMP JUMPDEST PUSH1 0x40 MLOAD PUSH2 0x2F8 SWAP8 SWAP7 SWAP6 SWAP5 SWAP4 SWAP3 SWAP2 SWAP1 PUSH2 0x465D JUMP JUMPDEST PUSH1 0x40 MLOAD DUP1 SWAP2 SUB SWAP1 RETURN JUMPDEST PUSH2 0x31B PUSH1 0x4 DUP1 CALLDATASIZE SUB DUP2 ADD SWAP1 PUSH2 0x316 SWAP2 SWAP1 PUSH2 0x470E JUMP JUMPDEST PUSH2 0x199C JUMP JUMPDEST STOP JUMPDEST PUSH2 0x337 PUSH1 0x4 DUP1 CALLDATASIZE SUB DUP2 ADD SWAP1 PUSH2 0x332 SWAP2 SWAP1 PUSH2 0x4757 JUMP JUMPDEST PUSH2 0x1CD3 JUMP JUMPDEST STOP JUMPDEST PUSH2 0x353 PUSH1 0x4 DUP1 CALLDATASIZE SUB DUP2 ADD SWAP1 PUSH2 0x34E SWAP2 SWAP1 PUSH2 0x47A4 JUMP JUMPDEST PUSH2 0x1EF4 JUMP JUMPDEST PUSH1 0x40 MLOAD PUSH2 0x361 SWAP3 SWAP2 SWAP1 PUSH2 0x4800 JUMP JUMPDEST PUSH1 0x40 MLOAD DUP1 SWAP2 SUB SWAP1 RETURN JUMPDEST PUSH2 0x384 PUSH1 0x4 DUP1 CALLDATASIZE SUB DUP2 ADD SWAP1 PUSH2 0x37F SWAP2 SWAP1 PUSH2 0x4829 JUMP JUMPDEST PUSH2 0x1F6B JUMP JUMPDEST PUSH1 0x40 MLOAD PUSH2 0x39B SWAP12 SWAP11 SWAP10 SWAP9 SWAP8 SWAP7 SWAP6 SWAP5 SWAP4 SWAP3 SWAP2 SWAP1 PUSH2 0x48FC JUMP JUMPDEST PUSH1 0x40 MLOAD DUP1 SWAP2 SUB SWAP1 RETURN JUMPDEST PUSH2 0x3BE PUSH1 0x4 DUP1 CALLDATASIZE SUB DUP2 ADD SWAP1 PUSH2 0x3B9 SWAP2 SWAP1 PUSH2 0x49D5 JUMP JUMPDEST PUSH2 0x214C JUMP JUMPDEST STOP JUMPDEST PUSH2 0x3DA PUSH1 0x4 DUP1 CALLDATASIZE SUB DUP2 ADD SWAP1 PUSH2 0x3D5 SWAP2 SWAP1 PUSH2 0x44C7 JUMP JUMPDEST PUSH2 0x26E5 JUMP JUMPDEST PUSH1 0x40 MLOAD PUSH2 0x3E7 SWAP2 SWAP1 PUSH2 0x4A65 JUMP JUMPDEST PUSH1 0x40 MLOAD DUP1 SWAP2 SUB SWAP1 RETURN JUMPDEST PUSH2 0x40A PUSH1 0x4 DUP1 CALLDATASIZE SUB DUP2 ADD SWAP1 PUSH2 0x405 SWAP2 SWAP1 PUSH2 0x4757 JUMP JUMPDEST PUSH2 0x2713 JUMP JUMPDEST PUSH1 0x40 MLOAD PUSH2 0x417 SWAP2 SWAP1 PUSH2 0x4A65 JUMP JUMPDEST PUSH1 0x40 MLOAD DUP1 SWAP2 SUB SWAP1 RETURN JUMPDEST PUSH2 0x43A PUSH1 0x4 DUP1 CALLDATASIZE SUB DUP2 ADD SWAP1 PUSH2 0x435 SWAP2 SWAP1 PUSH2 0x45B1 JUMP JUMPDEST PUSH2 0x273E JUMP JUMPDEST PUSH1 0x40 MLOAD PUSH2 0x44A SWAP5 SWAP4 SWAP3 SWAP2 SWAP1 PUSH2 0x4A80 JUMP JUMPDEST PUSH1 0x40 MLOAD DUP1 SWAP2 SUB SWAP1 RETURN JUMPDEST PUSH2 0x46D PUSH1 0x4 DUP1 CALLDATASIZE SUB DUP2 ADD SWAP1 PUSH2 0x468 SWAP2 SWAP1 PUSH2 0x4757 JUMP JUMPDEST PUSH2 0x2926 JUMP JUMPDEST STOP JUMPDEST PUSH2 0x489 PUSH1 0x4 DUP1 CALLDATASIZE SUB DUP2 ADD SWAP1 PUSH2 0x484 SWAP2 SWAP1 PUSH2 0x45B1 JUMP JUMPDEST PUSH2 0x2B47 JUMP JUMPDEST STOP JUMPDEST PUSH2 0x4A5 PUSH1 0x4 DUP1 CALLDATASIZE SUB DUP2 ADD SWAP1 PUSH2 0x4A0 SWAP2 SWAP1 PUSH2 0x45B1 JUMP JUMPDEST PUSH2 0x2C8A JUMP JUMPDEST STOP JUMPDEST PUSH2 0x4AF PUSH2 0x2EFC JUMP JUMPDEST PUSH1 0x40 MLOAD PUSH2 0x4BC SWAP2 SWAP1 PUSH2 0x4364 JUMP JUMPDEST PUSH1 0x40 MLOAD DUP1 SWAP2 SUB SWAP1 RETURN JUMPDEST PUSH2 0x4DF PUSH1 0x4 DUP1 CALLDATASIZE SUB DUP2 ADD SWAP1 PUSH2 0x4DA SWAP2 SWAP1 PUSH2 0x45B1 JUMP JUMPDEST PUSH2 0x2F22 JUMP JUMPDEST STOP JUMPDEST PUSH2 0x4FB PUSH1 0x4 DUP1 CALLDATASIZE SUB DUP2 ADD SWAP1 PUSH2 0x4F6 SWAP2 SWAP1 PUSH2 0x44C7 JUMP JUMPDEST PUSH2 0x3194 JUMP JUMPDEST PUSH1 0x40 MLOAD PUSH2 0x512 SWAP12 SWAP11 SWAP10 SWAP9 SWAP8 SWAP7 SWAP6 SWAP5 SWAP4 SWAP3 SWAP2 SWAP1 PUSH2 0x48FC JUMP JUMPDEST PUSH1 0x40 MLOAD DUP1 SWAP2 SUB SWAP1 RETURN JUMPDEST PUSH2 0x523 PUSH2 0x336E JUMP JUMPDEST PUSH1 0x40 MLOAD PUSH2 0x530 SWAP2 SWAP1 PUSH2 0x4A65 JUMP JUMPDEST PUSH1 0x40 MLOAD DUP1 SWAP2 SUB SWAP1 RETURN JUMPDEST PUSH2 0x553 PUSH1 0x4 DUP1 CALLDATASIZE SUB DUP2 ADD SWAP1 PUSH2 0x54E SWAP2 SWAP1 PUSH2 0x45B1 JUMP JUMPDEST PUSH2 0x3374 JUMP JUMPDEST STOP JUMPDEST PUSH2 0x56F PUSH1 0x4 DUP1 CALLDATASIZE SUB DUP2 ADD SWAP1 PUSH2 0x56A SWAP2 SWAP1 PUSH2 0x4757 JUMP JUMPDEST PUSH2 0x3559 JUMP JUMPDEST PUSH1 0x40 MLOAD PUSH2 0x57C SWAP2 SWAP1 PUSH2 0x4BD6 JUMP JUMPDEST PUSH1 0x40 MLOAD DUP1 SWAP2 SUB SWAP1 RETURN JUMPDEST PUSH2 0x58D PUSH2 0x3639 JUMP JUMPDEST PUSH1 0x40 MLOAD PUSH2 0x59A SWAP2 SWAP1 PUSH2 0x4364 JUMP JUMPDEST PUSH1 0x40 MLOAD DUP1 SWAP2 SUB SWAP1 RETURN JUMPDEST PUSH2 0x5BD PUSH1 0x4 DUP1 CALLDATASIZE SUB DUP2 ADD SWAP1 PUSH2 0x5B8 SWAP2 SWAP1 PUSH2 0x45B1 JUMP JUMPDEST PUSH2 0x365F JUMP JUMPDEST STOP JUMPDEST PUSH2 0x5D9 PUSH1 0x4 DUP1 CALLDATASIZE SUB DUP2 ADD SWAP1 PUSH2 0x5D4 SWAP2 SWAP1 PUSH2 0x45B1 JUMP JUMPDEST PUSH2 0x377F JUMP JUMPDEST STOP JUMPDEST PUSH2 0x5F5 PUSH1 0x4 DUP1 CALLDATASIZE SUB DUP2 ADD SWAP1 PUSH2 0x5F0 SWAP2 SWAP1 PUSH2 0x4C17 JUMP JUMPDEST PUSH2 0x3964 JUMP JUMPDEST STOP JUMPDEST PUSH2 0x611 PUSH1 0x4 DUP1 CALLDATASIZE SUB DUP2 ADD SWAP1 PUSH2 0x60C SWAP2 SWAP1 PUSH2 0x4C60 JUMP JUMPDEST PUSH2 0x3C9B JUMP JUMPDEST STOP JUMPDEST PUSH2 0x62D PUSH1 0x4 DUP1 CALLDATASIZE SUB DUP2 ADD SWAP1 PUSH2 0x628 SWAP2 SWAP1 PUSH2 0x45B1 JUMP JUMPDEST PUSH2 0x401D JUMP JUMPDEST PUSH1 0x40 MLOAD PUSH2 0x63A SWAP2 SWAP1 PUSH2 0x4D08 JUMP JUMPDEST PUSH1 0x40 MLOAD DUP1 SWAP2 SUB SWAP1 RETURN JUMPDEST PUSH2 0x64B PUSH2 0x403D JUMP JUMPDEST PUSH1 0x40 MLOAD PUSH2 0x658 SWAP2 SWAP1 PUSH2 0x4364 JUMP JUMPDEST PUSH1 0x40 MLOAD DUP1 SWAP2 SUB SWAP1 RETURN JUMPDEST PUSH2 0x67B PUSH1 0x4 DUP1 CALLDATASIZE SUB DUP2 ADD SWAP1 PUSH2 0x676 SWAP2 SWAP1 PUSH2 0x45B1 JUMP JUMPDEST PUSH2 0x4063 JUMP JUMPDEST PUSH1 0x40 MLOAD PUSH2 0x688 SWAP2 SWAP1 PUSH2 0x4D08 JUMP JUMPDEST PUSH1 0x40 MLOAD DUP1 SWAP2 SUB SWAP1 RETURN JUMPDEST PUSH2 0x6AB PUSH1 0x4 DUP1 CALLDATASIZE SUB DUP2 ADD SWAP1 PUSH2 0x6A6 SWAP2 SWAP1 PUSH2 0x44C7 JUMP JUMPDEST PUSH2 0x4083 JUMP JUMPDEST PUSH1 0x40 MLOAD PUSH2 0x6B8 SWAP2 SWAP1 PUSH2 0x4364 JUMP JUMPDEST PUSH1 0x40 MLOAD DUP1 SWAP2 SUB SWAP1 RETURN JUMPDEST PUSH2 0x6C9 PUSH2 0x40CC JUMP JUMPDEST PUSH1 0x40 MLOAD PUSH2 0x6D6 SWAP2 SWAP1 PUSH2 0x4A65 JUMP JUMPDEST PUSH1 0x40 MLOAD DUP1 SWAP2 SUB SWAP1 RETURN JUMPDEST PUSH1 0x8 PUSH1 0x20 MSTORE DUP2 PUSH1 0x0 MSTORE PUSH1 0x40 PUSH1 0x0 KECCAK256 DUP2 DUP1 MLOAD PUSH1 0x20 DUP2 ADD DUP3 ADD DUP1 MLOAD DUP5 DUP3 MSTORE PUSH1 0x20 DUP4 ADD PUSH1 0x20 DUP6 ADD KECCAK256 DUP2 DUP4 MSTORE DUP1 SWAP6 POP POP POP POP POP POP PUSH1 0x0 SWAP2 POP SWAP2 POP POP DUP1 PUSH1 0x0 ADD SLOAD SWAP1 DUP1 PUSH1 0x1 ADD PUSH1 0x0 SWAP1 SLOAD SWAP1 PUSH2 0x100 EXP SWAP1 DIV PUSH1 0xFF AND SWAP1 DUP1 PUSH1 0x2 ADD SLOAD SWAP1 POP DUP4 JUMP JUMPDEST PUSH1 0xC PUSH1 0x0 SWAP1 SLOAD SWAP1 PUSH2 0x100 EXP SWAP1 DIV PUSH20 0xFFFFFFFFFFFFFFFFFFFFFFFFFFFFFFFFFFFFFFFF AND DUP2 JUMP JUMPDEST CALLER PUSH1 0xC PUSH1 0x0 SWAP1 SLOAD SWAP1 PUSH2 0x100 EXP SWAP1 DIV PUSH20 0xFFFFFFFFFFFFFFFFFFFFFFFFFFFFFFFFFFFFFFFF AND PUSH20 0xFFFFFFFFFFFFFFFFFFFFFFFFFFFFFFFFFFFFFFFF AND PUSH4 0xB9209E33 DUP3 PUSH1 0x40 MLOAD DUP3 PUSH4 0xFFFFFFFF AND PUSH1 0xE0 SHL DUP2 MSTORE PUSH1 0x4 ADD PUSH2 0x7BB SWAP2 SWAP1 PUSH2 0x4364 JUMP JUMPDEST PUSH1 0x20 PUSH1 0x40 MLOAD DUP1 DUP4 SUB DUP2 DUP7 GAS STATICCALL ISZERO DUP1 ISZERO PUSH2 0x7D8 JUMPI RETURNDATASIZE PUSH1 0x0 DUP1 RETURNDATACOPY RETURNDATASIZE PUSH1 0x0 REVERT JUMPDEST POP POP POP POP PUSH1 0x40 MLOAD RETURNDATASIZE PUSH1 0x1F NOT PUSH1 0x1F DUP3 ADD AND DUP3 ADD DUP1 PUSH1 0x40 MSTORE POP DUP2 ADD SWAP1 PUSH2 0x7FC SWAP2 SWAP1 PUSH2 0x4D4F JUMP JUMPDEST PUSH2 0x83B JUMPI PUSH1 0x40 MLOAD PUSH32 0x8C379A000000000000000000000000000000000000000000000000000000000 DUP2 MSTORE PUSH1 0x4 ADD PUSH2 0x832 SWAP1 PUSH2 0x4DC8 JUMP JUMPDEST PUSH1 0x40 MLOAD DUP1 SWAP2 SUB SWAP1 REVERT JUMPDEST PUSH1 0x0 PUSH1 0x5 DUP6 DUP6 PUSH1 0x40 MLOAD PUSH2 0x84F SWAP3 SWAP2 SWAP1 PUSH2 0x4E18 JUMP JUMPDEST SWAP1 DUP2 MSTORE PUSH1 0x20 ADD PUSH1 0x40 MLOAD DUP1 SWAP2 SUB SWAP1 KECCAK256 SLOAD SWAP1 POP PUSH1 0x2 PUSH1 0x5 DUP2 GT ISZERO PUSH2 0x874 JUMPI PUSH2 0x873 PUSH2 0x4885 JUMP JUMPDEST JUMPDEST PUSH1 0x0 DUP7 DUP7 PUSH1 0x40 MLOAD PUSH2 0x886 SWAP3 SWAP2 SWAP1 PUSH2 0x4E18 JUMP JUMPDEST SWAP1 DUP2 MSTORE PUSH1 0x20 ADD PUSH1 0x40 MLOAD DUP1 SWAP2 SUB SWAP1 KECCAK256 PUSH1 0x8 ADD PUSH1 0x15 SWAP1 SLOAD SWAP1 PUSH2 0x100 EXP SWAP1 DIV PUSH1 0xFF AND PUSH1 0x5 DUP2 GT ISZERO PUSH2 0x8B7 JUMPI PUSH2 0x8B6 PUSH2 0x4885 JUMP JUMPDEST JUMPDEST EQ PUSH2 0x8FB JUMPI DUP5 DUP5 PUSH1 0x40 MLOAD PUSH32 0xB716508400000000000000000000000000000000000000000000000000000000 DUP2 MSTORE PUSH1 0x4 ADD PUSH2 0x8F2 SWAP3 SWAP2 SWAP1 PUSH2 0x4E5E JUMP JUMPDEST PUSH1 0x40 MLOAD DUP1 SWAP2 SUB SWAP1 REVERT JUMPDEST PUSH1 0x0 DUP4 EQ ISZERO DUP1 ISZERO PUSH2 0x93A JUMPI POP PUSH1 0x0 DUP6 DUP6 PUSH1 0x40 MLOAD PUSH2 0x919 SWAP3 SWAP2 SWAP1 PUSH2 0x4E18 JUMP JUMPDEST SWAP1 DUP2 MSTORE PUSH1 0x20 ADD PUSH1 0x40 MLOAD DUP1 SWAP2 SUB SWAP1 KECCAK256 PUSH1 0x3 ADD SLOAD DUP2 DUP5 PUSH2 0x937 SWAP2 SWAP1 PUSH2 0x4EB1 JUMP JUMPDEST GT ISZERO JUMPDEST PUSH2 0x979 JUMPI PUSH1 0x40 MLOAD PUSH32 0x8C379A000000000000000000000000000000000000000000000000000000000 DUP2 MSTORE PUSH1 0x4 ADD PUSH2 0x970 SWAP1 PUSH2 0x4F31 JUMP JUMPDEST PUSH1 0x40 MLOAD DUP1 SWAP2 SUB SWAP1 REVERT JUMPDEST PUSH1 0x0 PUSH1 0x8 PUSH1 0x0 CALLER PUSH20 0xFFFFFFFFFFFFFFFFFFFFFFFFFFFFFFFFFFFFFFFF AND PUSH20 0xFFFFFFFFFFFFFFFFFFFFFFFFFFFFFFFFFFFFFFFF AND DUP2 MSTORE PUSH1 0x20 ADD SWAP1 DUP2 MSTORE PUSH1 0x20 ADD PUSH1 0x0 KECCAK256 DUP7 DUP7 PUSH1 0x40 MLOAD PUSH2 0x9CA SWAP3 SWAP2 SWAP1 PUSH2 0x4E18 JUMP JUMPDEST SWAP1 DUP2 MSTORE PUSH1 0x20 ADD PUSH1 0x40 MLOAD DUP1 SWAP2 SUB SWAP1 KECCAK256 PUSH1 0x1 ADD PUSH1 0x0 SWAP1 SLOAD SWAP1 PUSH2 0x100 EXP SWAP1 DIV PUSH1 0xFF AND SWAP1 POP DUP4 DUP3 PUSH2 0x9F7 SWAP2 SWAP1 PUSH2 0x4EB1 JUMP JUMPDEST PUSH1 0x5 DUP8 DUP8 PUSH1 0x40 MLOAD PUSH2 0xA09 SWAP3 SWAP2 SWAP1 PUSH2 0x4E18 JUMP JUMPDEST SWAP1 DUP2 MSTORE PUSH1 0x20 ADD PUSH1 0x40 MLOAD DUP1 SWAP2 SUB SWAP1 KECCAK256 DUP2 SWAP1 SSTORE POP DUP1 ISZERO PUSH2 0xBB5 JUMPI PUSH1 0x0 PUSH1 0x8 PUSH1 0x0 CALLER PUSH20 0xFFFFFFFFFFFFFFFFFFFFFFFFFFFFFFFFFFFFFFFF AND PUSH20 0xFFFFFFFFFFFFFFFFFFFFFFFFFFFFFFFFFFFFFFFF AND DUP2 MSTORE PUSH1 0x20 ADD SWAP1 DUP2 MSTORE PUSH1 0x20 ADD PUSH1 0x0 KECCAK256 DUP8 DUP8 PUSH1 0x40 MLOAD PUSH2 0xA72 SWAP3 SWAP2 SWAP1 PUSH2 0x4E18 JUMP JUMPDEST SWAP1 DUP2 MSTORE PUSH1 0x20 ADD PUSH1 0x40 MLOAD DUP1 SWAP2 SUB SWAP1 KECCAK256 PUSH1 0x2 ADD SLOAD SWAP1 POP PUSH1 0x0 PUSH1 0x8 PUSH1 0x0 CALLER PUSH20 0xFFFFFFFFFFFFFFFFFFFFFFFFFFFFFFFFFFFFFFFF AND PUSH20 0xFFFFFFFFFFFFFFFFFFFFFFFFFFFFFFFFFFFFFFFF AND DUP2 MSTORE PUSH1 0x20 ADD SWAP1 DUP2 MSTORE PUSH1 0x20 ADD PUSH1 0x0 KECCAK256 DUP9 DUP9 PUSH1 0x40 MLOAD PUSH2 0xAD7 SWAP3 SWAP2 SWAP1 PUSH2 0x4E18 JUMP JUMPDEST SWAP1 DUP2 MSTORE PUSH1 0x20 ADD PUSH1 0x40 MLOAD DUP1 SWAP2 SUB SWAP1 KECCAK256 PUSH1 0x0 ADD SLOAD SWAP1 POP DUP6 DUP2 PUSH2 0xAF7 SWAP2 SWAP1 PUSH2 0x4EB1 JUMP JUMPDEST PUSH1 0x4 DUP10 DUP10 PUSH1 0x40 MLOAD PUSH2 0xB09 SWAP3 SWAP2 SWAP1 PUSH2 0x4E18 JUMP JUMPDEST SWAP1 DUP2 MSTORE PUSH1 0x20 ADD PUSH1 0x40 MLOAD DUP1 SWAP2 SUB SWAP1 KECCAK256 DUP4 DUP2 SLOAD DUP2 LT PUSH2 0xB29 JUMPI PUSH2 0xB28 PUSH2 0x4F51 JUMP JUMPDEST JUMPDEST SWAP1 PUSH1 0x0 MSTORE PUSH1 0x20 PUSH1 0x0 KECCAK256 SWAP1 PUSH1 0x2 MUL ADD PUSH1 0x1 ADD DUP2 SWAP1 SSTORE POP DUP6 DUP2 PUSH2 0xB4A SWAP2 SWAP1 PUSH2 0x4EB1 JUMP JUMPDEST PUSH1 0x8 PUSH1 0x0 CALLER PUSH20 0xFFFFFFFFFFFFFFFFFFFFFFFFFFFFFFFFFFFFFFFF AND PUSH20 0xFFFFFFFFFFFFFFFFFFFFFFFFFFFFFFFFFFFFFFFF AND DUP2 MSTORE PUSH1 0x20 ADD SWAP1 DUP2 MSTORE PUSH1 0x20 ADD PUSH1 0x0 KECCAK256 DUP10 DUP10 PUSH1 0x40 MLOAD PUSH2 0xB99 SWAP3 SWAP2 SWAP1 PUSH2 0x4E18 JUMP JUMPDEST SWAP1 DUP2 MSTORE PUSH1 0x20 ADD PUSH1 0x40 MLOAD DUP1 SWAP2 SUB SWAP1 KECCAK256 PUSH1 0x0 ADD DUP2 SWAP1 SSTORE POP POP POP PUSH2 0xD52 JUMP JUMPDEST PUSH1 0x40 MLOAD DUP1 PUSH1 0x60 ADD PUSH1 0x40 MSTORE DUP1 DUP6 DUP2 MSTORE PUSH1 0x20 ADD PUSH1 0x1 ISZERO ISZERO DUP2 MSTORE PUSH1 0x20 ADD PUSH1 0x4 DUP9 DUP9 PUSH1 0x40 MLOAD PUSH2 0xBE1 SWAP3 SWAP2 SWAP1 PUSH2 0x4E18 JUMP JUMPDEST SWAP1 DUP2 MSTORE PUSH1 0x20 ADD PUSH1 0x40 MLOAD DUP1 SWAP2 SUB SWAP1 KECCAK256 DUP1 SLOAD SWAP1 POP DUP2 MSTORE POP PUSH1 0x8 PUSH1 0x0 CALLER PUSH20 0xFFFFFFFFFFFFFFFFFFFFFFFFFFFFFFFFFFFFFFFF AND PUSH20 0xFFFFFFFFFFFFFFFFFFFFFFFFFFFFFFFFFFFFFFFF AND DUP2 MSTORE PUSH1 0x20 ADD SWAP1 DUP2 MSTORE PUSH1 0x20 ADD PUSH1 0x0 KECCAK256 DUP8 DUP8 PUSH1 0x40 MLOAD PUSH2 0xC45 SWAP3 SWAP2 SWAP1 PUSH2 0x4E18 JUMP JUMPDEST SWAP1 DUP2 MSTORE PUSH1 0x20 ADD PUSH1 0x40 MLOAD DUP1 SWAP2 SUB SWAP1 KECCAK256 PUSH1 0x0 DUP3 ADD MLOAD DUP2 PUSH1 0x0 ADD SSTORE PUSH1 0x20 DUP3 ADD MLOAD DUP2 PUSH1 0x1 ADD PUSH1 0x0 PUSH2 0x100 EXP DUP2 SLOAD DUP2 PUSH1 0xFF MUL NOT AND SWAP1 DUP4 ISZERO ISZERO MUL OR SWAP1 SSTORE POP PUSH1 0x40 DUP3 ADD MLOAD DUP2 PUSH1 0x2 ADD SSTORE SWAP1 POP POP PUSH1 0x4 DUP7 DUP7 PUSH1 0x40 MLOAD PUSH2 0xC9C SWAP3 SWAP2 SWAP1 PUSH2 0x4E18 JUMP JUMPDEST SWAP1 DUP2 MSTORE PUSH1 0x20 ADD PUSH1 0x40 MLOAD DUP1 SWAP2 SUB SWAP1 KECCAK256 PUSH1 0x40 MLOAD DUP1 PUSH1 0x40 ADD PUSH1 0x40 MSTORE DUP1 CALLER PUSH20 0xFFFFFFFFFFFFFFFFFFFFFFFFFFFFFFFFFFFFFFFF AND DUP2 MSTORE PUSH1 0x20 ADD DUP7 DUP2 MSTORE POP SWAP1 DUP1 PUSH1 0x1 DUP2 SLOAD ADD DUP1 DUP3 SSTORE DUP1 SWAP2 POP POP PUSH1 0x1 SWAP1 SUB SWAP1 PUSH1 0x0 MSTORE PUSH1 0x20 PUSH1 0x0 KECCAK256 SWAP1 PUSH1 0x2 MUL ADD PUSH1 0x0 SWAP1 SWAP2 SWAP1 SWAP2 SWAP1 SWAP2 POP PUSH1 0x0 DUP3 ADD MLOAD DUP2 PUSH1 0x0 ADD PUSH1 0x0 PUSH2 0x100 EXP DUP2 SLOAD DUP2 PUSH20 0xFFFFFFFFFFFFFFFFFFFFFFFFFFFFFFFFFFFFFFFF MUL NOT AND SWAP1 DUP4 PUSH20 0xFFFFFFFFFFFFFFFFFFFFFFFFFFFFFFFFFFFFFFFF AND MUL OR SWAP1 SSTORE POP PUSH1 0x20 DUP3 ADD MLOAD DUP2 PUSH1 0x1 ADD SSTORE POP POP JUMPDEST PUSH1 0xD PUSH1 0x0 SWAP1 SLOAD SWAP1 PUSH2 0x100 EXP SWAP1 DIV PUSH20 0xFFFFFFFFFFFFFFFFFFFFFFFFFFFFFFFFFFFFFFFF AND PUSH20 0xFFFFFFFFFFFFFFFFFFFFFFFFFFFFFFFFFFFFFFFF AND PUSH4 0x925B7CB6 DUP8 DUP8 DUP8 PUSH1 0x40 MLOAD DUP5 PUSH4 0xFFFFFFFF AND PUSH1 0xE0 SHL DUP2 MSTORE PUSH1 0x4 ADD PUSH2 0xDB1 SWAP4 SWAP3 SWAP2 SWAP1 PUSH2 0x4F80 JUMP JUMPDEST PUSH1 0x0 PUSH1 0x40 MLOAD DUP1 DUP4 SUB DUP2 PUSH1 0x0 DUP8 DUP1 EXTCODESIZE ISZERO DUP1 ISZERO PUSH2 0xDCB JUMPI PUSH1 0x0 DUP1 REVERT JUMPDEST POP GAS CALL ISZERO DUP1 ISZERO PUSH2 0xDDF JUMPI RETURNDATASIZE PUSH1 0x0 DUP1 RETURNDATACOPY RETURNDATASIZE PUSH1 0x0 REVERT JUMPDEST POP POP POP POP PUSH1 0x0 DUP7 DUP7 PUSH1 0x40 MLOAD PUSH2 0xDF5 SWAP3 SWAP2 SWAP1 PUSH2 0x4E18 JUMP JUMPDEST SWAP1 DUP2 MSTORE PUSH1 0x20 ADD PUSH1 0x40 MLOAD DUP1 SWAP2 SUB SWAP1 KECCAK256 PUSH1 0x8 ADD PUSH1 0x0 SWAP1 SLOAD SWAP1 PUSH2 0x100 EXP SWAP1 DIV PUSH20 0xFFFFFFFFFFFFFFFFFFFFFFFFFFFFFFFFFFFFFFFF AND PUSH20 0xFFFFFFFFFFFFFFFFFFFFFFFFFFFFFFFFFFFFFFFF AND PUSH4 0x23B872DD CALLER PUSH1 0xD PUSH1 0x0 SWAP1 SLOAD SWAP1 PUSH2 0x100 EXP SWAP1 DIV PUSH20 0xFFFFFFFFFFFFFFFFFFFFFFFFFFFFFFFFFFFFFFFF AND PUSH8 0xDE0B6B3A7640000 DUP9 PUSH2 0xE7A SWAP2 SWAP1 PUSH2 0x4FB2 JUMP JUMPDEST PUSH1 0x40 MLOAD DUP5 PUSH4 0xFFFFFFFF AND PUSH1 0xE0 SHL DUP2 MSTORE PUSH1 0x4 ADD PUSH2 0xE98 SWAP4 SWAP3 SWAP2 SWAP1 PUSH2 0x4FF4 JUMP JUMPDEST PUSH1 0x20 PUSH1 0x40 MLOAD DUP1 DUP4 SUB DUP2 PUSH1 0x0 DUP8 GAS CALL ISZERO DUP1 ISZERO PUSH2 0xEB7 JUMPI RETURNDATASIZE PUSH1 0x0 DUP1 RETURNDATACOPY RETURNDATASIZE PUSH1 0x0 REVERT JUMPDEST POP POP POP POP PUSH1 0x40 MLOAD RETURNDATASIZE PUSH1 0x1F NOT PUSH1 0x1F DUP3 ADD AND DUP3 ADD DUP1 PUSH1 0x40 MSTORE POP DUP2 ADD SWAP1 PUSH2 0xEDB SWAP2 SWAP1 PUSH2 0x4D4F JUMP JUMPDEST POP PUSH32 0xBDAF52B4DE514796607307FBBCF007EE6D59E81E1BE436B67C5A567A2E8D121 DUP7 DUP7 CALLER PUSH1 0x40 MLOAD PUSH2 0xF0F SWAP4 SWAP3 SWAP2 SWAP1 PUSH2 0x502B JUMP JUMPDEST PUSH1 0x40 MLOAD DUP1 SWAP2 SUB SWAP1 LOG1 POP POP POP POP POP POP JUMP JUMPDEST DUP1 PUSH1 0x3 DUP4 PUSH1 0x40 MLOAD PUSH2 0xF30 SWAP2 SWAP1 PUSH2 0x508E JUMP JUMPDEST SWAP1 DUP2 MSTORE PUSH1 0x20 ADD PUSH1 0x40 MLOAD DUP1 SWAP2 SUB SWAP1 KECCAK256 PUSH1 0x0 PUSH2 0x100 EXP DUP2 SLOAD DUP2 PUSH20 0xFFFFFFFFFFFFFFFFFFFFFFFFFFFFFFFFFFFFFFFF MUL NOT AND SWAP1 DUP4 PUSH20 0xFFFFFFFFFFFFFFFFFFFFFFFFFFFFFFFFFFFFFFFF AND MUL OR SWAP1 SSTORE POP POP POP JUMP JUMPDEST PUSH1 0x0 DUP1 DUP3 PUSH1 0x40 MLOAD PUSH2 0xF91 SWAP2 SWAP1 PUSH2 0x508E JUMP JUMPDEST SWAP1 DUP2 MSTORE PUSH1 0x20 ADD PUSH1 0x40 MLOAD DUP1 SWAP2 SUB SWAP1 KECCAK256 PUSH1 0x2 ADD PUSH1 0x0 SWAP1 SLOAD SWAP1 PUSH2 0x100 EXP SWAP1 DIV PUSH20 0xFFFFFFFFFFFFFFFFFFFFFFFFFFFFFFFFFFFFFFFF AND SWAP1 POP PUSH1 0x0 DUP1 DUP4 PUSH1 0x40 MLOAD PUSH2 0xFD6 SWAP2 SWAP1 PUSH2 0x508E JUMP JUMPDEST SWAP1 DUP2 MSTORE PUSH1 0x20 ADD PUSH1 0x40 MLOAD DUP1 SWAP2 SUB SWAP1 KECCAK256 PUSH1 0x8 ADD PUSH1 0x0 SWAP1 SLOAD SWAP1 PUSH2 0x100 EXP SWAP1 DIV PUSH20 0xFFFFFFFFFFFFFFFFFFFFFFFFFFFFFFFFFFFFFFFF AND SWAP1 POP DUP2 PUSH20 0xFFFFFFFFFFFFFFFFFFFFFFFFFFFFFFFFFFFFFFFF AND CALLER PUSH20 0xFFFFFFFFFFFFFFFFFFFFFFFFFFFFFFFFFFFFFFFF AND EQ DUP1 PUSH2 0x1091 JUMPI POP PUSH1 0xA PUSH1 0x0 SWAP1 SLOAD SWAP1 PUSH2 0x100 EXP SWAP1 DIV PUSH20 0xFFFFFFFFFFFFFFFFFFFFFFFFFFFFFFFFFFFFFFFF AND PUSH20 0xFFFFFFFFFFFFFFFFFFFFFFFFFFFFFFFFFFFFFFFF AND CALLER PUSH20 0xFFFFFFFFFFFFFFFFFFFFFFFFFFFFFFFFFFFFFFFF AND EQ JUMPDEST PUSH2 0x10D0 JUMPI PUSH1 0x40 MLOAD PUSH32 0x8C379A000000000000000000000000000000000000000000000000000000000 DUP2 MSTORE PUSH1 0x4 ADD PUSH2 0x10C7 SWAP1 PUSH2 0x50F1 JUMP JUMPDEST PUSH1 0x40 MLOAD DUP1 SWAP2 SUB SWAP1 REVERT JUMPDEST PUSH1 0x0 PUSH20 0xFFFFFFFFFFFFFFFFFFFFFFFFFFFFFFFFFFFFFFFF AND DUP2 PUSH20 0xFFFFFFFFFFFFFFFFFFFFFFFFFFFFFFFFFFFFFFFF AND SUB PUSH2 0x113F JUMPI PUSH1 0x40 MLOAD PUSH32 0x8C379A000000000000000000000000000000000000000000000000000000000 DUP2 MSTORE PUSH1 0x4 ADD PUSH2 0x1136 SWAP1 PUSH2 0x515D JUMP JUMPDEST PUSH1 0x40 MLOAD DUP1 SWAP2 SUB SWAP1 REVERT JUMPDEST PUSH1 0xD PUSH1 0x0 SWAP1 SLOAD SWAP1 PUSH2 0x100 EXP SWAP1 DIV PUSH20 0xFFFFFFFFFFFFFFFFFFFFFFFFFFFFFFFFFFFFFFFF AND PUSH20 0xFFFFFFFFFFFFFFFFFFFFFFFFFFFFFFFFFFFFFFFF AND PUSH4 0xE04CD97F DUP5 DUP5 DUP5 PUSH1 0x40 MLOAD DUP5 PUSH4 0xFFFFFFFF AND PUSH1 0xE0 SHL DUP2 MSTORE PUSH1 0x4 ADD PUSH2 0x119E SWAP4 SWAP3 SWAP2 SWAP1 PUSH2 0x517D JUMP JUMPDEST PUSH1 0x0 PUSH1 0x40 MLOAD DUP1 DUP4 SUB DUP2 PUSH1 0x0 DUP8 DUP1 EXTCODESIZE ISZERO DUP1 ISZERO PUSH2 0x11B8 JUMPI PUSH1 0x0 DUP1 REVERT JUMPDEST POP GAS CALL ISZERO DUP1 ISZERO PUSH2 0x11CC JUMPI RETURNDATASIZE PUSH1 0x0 DUP1 RETURNDATACOPY RETURNDATASIZE PUSH1 0x0 REVERT JUMPDEST POP POP POP POP POP POP POP JUMP JUMPDEST PUSH1 0xB PUSH1 0x0 SWAP1 SLOAD SWAP1 PUSH2 0x100 EXP SWAP1 DIV PUSH20 0xFFFFFFFFFFFFFFFFFFFFFFFFFFFFFFFFFFFFFFFF AND PUSH20 0xFFFFFFFFFFFFFFFFFFFFFFFFFFFFFFFFFFFFFFFF AND PUSH4 0x877B9A67 CALLER PUSH1 0x40 MLOAD DUP3 PUSH4 0xFFFFFFFF AND PUSH1 0xE0 SHL DUP2 MSTORE PUSH1 0x4 ADD PUSH2 0x1230 SWAP2 SWAP1 PUSH2 0x4364 JUMP JUMPDEST PUSH1 0x20 PUSH1 0x40 MLOAD DUP1 DUP4 SUB DUP2 DUP7 GAS STATICCALL ISZERO DUP1 ISZERO PUSH2 0x124D JUMPI RETURNDATASIZE PUSH1 0x0 DUP1 RETURNDATACOPY RETURNDATASIZE PUSH1 0x0 REVERT JUMPDEST POP POP POP POP PUSH1 0x40 MLOAD RETURNDATASIZE PUSH1 0x1F NOT PUSH1 0x1F DUP3 ADD AND DUP3 ADD DUP1 PUSH1 0x40 MSTORE POP DUP2 ADD SWAP1 PUSH2 0x1271 SWAP2 SWAP1 PUSH2 0x4D4F JUMP JUMPDEST PUSH2 0x12B0 JUMPI PUSH1 0x40 MLOAD PUSH32 0x8C379A000000000000000000000000000000000000000000000000000000000 DUP2 MSTORE PUSH1 0x4 ADD PUSH2 0x12A7 SWAP1 PUSH2 0x5207 JUMP JUMPDEST PUSH1 0x40 MLOAD DUP1 SWAP2 SUB SWAP1 REVERT JUMPDEST DUP1 PUSH1 0x40 ADD PUSH1 0x20 DUP2 ADD SWAP1 PUSH2 0x12C3 SWAP2 SWAP1 PUSH2 0x45B1 JUMP JUMPDEST PUSH20 0xFFFFFFFFFFFFFFFFFFFFFFFFFFFFFFFFFFFFFFFF AND CALLER PUSH20 0xFFFFFFFFFFFFFFFFFFFFFFFFFFFFFFFFFFFFFFFF AND EQ PUSH2 0x1330 JUMPI PUSH1 0x40 MLOAD PUSH32 0x8C379A000000000000000000000000000000000000000000000000000000000 DUP2 MSTORE PUSH1 0x4 ADD PUSH2 0x1327 SWAP1 PUSH2 0x5273 JUMP JUMPDEST PUSH1 0x40 MLOAD DUP1 SWAP2 SUB SWAP1 REVERT JUMPDEST PUSH1 0x0 PUSH1 0x5 DUP2 GT ISZERO PUSH2 0x1344 JUMPI PUSH2 0x1343 PUSH2 0x4885 JUMP JUMPDEST JUMPDEST PUSH1 0x0 DUP5 DUP5 PUSH1 0x40 MLOAD PUSH2 0x1356 SWAP3 SWAP2 SWAP1 PUSH2 0x4E18 JUMP JUMPDEST SWAP1 DUP2 MSTORE PUSH1 0x20 ADD PUSH1 0x40 MLOAD DUP1 SWAP2 SUB SWAP1 KECCAK256 PUSH1 0x8 ADD PUSH1 0x15 SWAP1 SLOAD SWAP1 PUSH2 0x100 EXP SWAP1 DIV PUSH1 0xFF AND PUSH1 0x5 DUP2 GT ISZERO PUSH2 0x1387 JUMPI PUSH2 0x1386 PUSH2 0x4885 JUMP JUMPDEST JUMPDEST EQ PUSH2 0x13C7 JUMPI PUSH1 0x40 MLOAD PUSH32 0x8C379A000000000000000000000000000000000000000000000000000000000 DUP2 MSTORE PUSH1 0x4 ADD PUSH2 0x13BE SWAP1 PUSH2 0x52DF JUMP JUMPDEST PUSH1 0x40 MLOAD DUP1 SWAP2 SUB SWAP1 REVERT JUMPDEST DUP1 PUSH1 0x0 DUP5 DUP5 PUSH1 0x40 MLOAD PUSH2 0x13DA SWAP3 SWAP2 SWAP1 PUSH2 0x4E18 JUMP JUMPDEST SWAP1 DUP2 MSTORE PUSH1 0x20 ADD PUSH1 0x40 MLOAD DUP1 SWAP2 SUB SWAP1 KECCAK256 DUP2 DUP2 PUSH2 0x13F4 SWAP2 SWAP1 PUSH2 0x5A8B JUMP JUMPDEST SWAP1 POP POP PUSH1 0x1 PUSH1 0x0 DUP5 DUP5 PUSH1 0x40 MLOAD PUSH2 0x140B SWAP3 SWAP2 SWAP1 PUSH2 0x4E18 JUMP JUMPDEST SWAP1 DUP2 MSTORE PUSH1 0x20 ADD PUSH1 0x40 MLOAD DUP1 SWAP2 SUB SWAP1 KECCAK256 PUSH1 0x8 ADD PUSH1 0x15 PUSH2 0x100 EXP DUP2 SLOAD DUP2 PUSH1 0xFF MUL NOT AND SWAP1 DUP4 PUSH1 0x5 DUP2 GT ISZERO PUSH2 0x143E JUMPI PUSH2 0x143D PUSH2 0x4885 JUMP JUMPDEST JUMPDEST MUL OR SWAP1 SSTORE POP PUSH1 0x10 DUP1 SLOAD SWAP1 POP PUSH1 0x0 DUP5 DUP5 PUSH1 0x40 MLOAD PUSH2 0x145B SWAP3 SWAP2 SWAP1 PUSH2 0x4E18 JUMP JUMPDEST SWAP1 DUP2 MSTORE PUSH1 0x20 ADD PUSH1 0x40 MLOAD DUP1 SWAP2 SUB SWAP1 KECCAK256 PUSH1 0x7 ADD DUP2 SWAP1 SSTORE POP PUSH1 0x10 PUSH1 0x0 DUP5 DUP5 PUSH1 0x40 MLOAD PUSH2 0x1484 SWAP3 SWAP2 SWAP1 PUSH2 0x4E18 JUMP JUMPDEST SWAP1 DUP2 MSTORE PUSH1 0x20 ADD PUSH1 0x40 MLOAD DUP1 SWAP2 SUB SWAP1 KECCAK256 SWAP1 DUP1 PUSH1 0x1 DUP2 SLOAD ADD DUP1 DUP3 SSTORE DUP1 SWAP2 POP POP PUSH1 0x1 SWAP1 SUB SWAP1 PUSH1 0x0 MSTORE PUSH1 0x20 PUSH1 0x0 KECCAK256 SWAP1 PUSH1 0x9 MUL ADD PUSH1 0x0 SWAP1 SWAP2 SWAP1 SWAP2 SWAP1 SWAP2 POP PUSH1 0x0 DUP3 ADD DUP2 PUSH1 0x0 ADD SWAP1 DUP2 PUSH2 0x14CF SWAP2 SWAP1 PUSH2 0x5AAF JUMP JUMPDEST POP PUSH1 0x1 DUP3 ADD DUP2 PUSH1 0x1 ADD SWAP1 DUP2 PUSH2 0x14E4 SWAP2 SWAP1 PUSH2 0x5AAF JUMP JUMPDEST POP PUSH1 0x2 DUP3 ADD PUSH1 0x0 SWAP1 SLOAD SWAP1 PUSH2 0x100 EXP SWAP1 DIV PUSH20 0xFFFFFFFFFFFFFFFFFFFFFFFFFFFFFFFFFFFFFFFF AND DUP2 PUSH1 0x2 ADD PUSH1 0x0 PUSH2 0x100 EXP DUP2 SLOAD DUP2 PUSH20 0xFFFFFFFFFFFFFFFFFFFFFFFFFFFFFFFFFFFFFFFF MUL NOT AND SWAP1 DUP4 PUSH20 0xFFFFFFFFFFFFFFFFFFFFFFFFFFFFFFFFFFFFFFFF AND MUL OR SWAP1 SSTORE POP PUSH1 0x3 DUP3 ADD SLOAD DUP2 PUSH1 0x3 ADD SSTORE PUSH1 0x4 DUP3 ADD SLOAD DUP2 PUSH1 0x4 ADD SSTORE PUSH1 0x5 DUP3 ADD SLOAD DUP2 PUSH1 0x5 ADD SSTORE PUSH1 0x6 DUP3 ADD SLOAD DUP2 PUSH1 0x6 ADD SSTORE PUSH1 0x7 DUP3 ADD SLOAD DUP2 PUSH1 0x7 ADD SSTORE PUSH1 0x8 DUP3 ADD PUSH1 0x0 SWAP1 SLOAD SWAP1 PUSH2 0x100 EXP SWAP1 DIV PUSH20 0xFFFFFFFFFFFFFFFFFFFFFFFFFFFFFFFFFFFFFFFF AND DUP2 PUSH1 0x8 ADD PUSH1 0x0 PUSH2 0x100 EXP DUP2 SLOAD DUP2 PUSH20 0xFFFFFFFFFFFFFFFFFFFFFFFFFFFFFFFFFFFFFFFF MUL NOT AND SWAP1 DUP4 PUSH20 0xFFFFFFFFFFFFFFFFFFFFFFFFFFFFFFFFFFFFFFFF AND MUL OR SWAP1 SSTORE POP PUSH1 0x8 DUP3 ADD PUSH1 0x14 SWAP1 SLOAD SWAP1 PUSH2 0x100 EXP SWAP1 DIV PUSH1 0xFF AND DUP2 PUSH1 0x8 ADD PUSH1 0x14 PUSH2 0x100 EXP DUP2 SLOAD DUP2 PUSH1 0xFF MUL NOT AND SWAP1 DUP4 PUSH1 0xFF AND MUL OR SWAP1 SSTORE POP PUSH1 0x8 DUP3 ADD PUSH1 0x15 SWAP1 SLOAD SWAP1 PUSH2 0x100 EXP SWAP1 DIV PUSH1 0xFF AND DUP2 PUSH1 0x8 ADD PUSH1 0x15 PUSH2 0x100 EXP DUP2 SLOAD DUP2 PUSH1 0xFF MUL NOT AND SWAP1 DUP4 PUSH1 0x5 DUP2 GT ISZERO PUSH2 0x164B JUMPI PUSH2 0x164A PUSH2 0x4885 JUMP JUMPDEST JUMPDEST MUL OR SWAP1 SSTORE POP POP POP PUSH32 0xC32E04BF1356C91E89BDC0DE134BA5C3FC8DF94D30CEA4436E9346BC335199ED DUP4 DUP4 DUP4 PUSH1 0x40 MLOAD PUSH2 0x1685 SWAP4 SWAP3 SWAP2 SWAP1 PUSH2 0x5E3D JUMP JUMPDEST PUSH1 0x40 MLOAD DUP1 SWAP2 SUB SWAP1 LOG1 POP POP POP JUMP JUMPDEST PUSH1 0x1 PUSH1 0x20 MSTORE DUP1 PUSH1 0x0 MSTORE PUSH1 0x40 PUSH1 0x0 KECCAK256 PUSH1 0x0 SWAP2 POP SWAP1 POP DUP1 PUSH1 0x0 ADD DUP1 SLOAD PUSH2 0x16B5 SWAP1 PUSH2 0x53AB JUMP JUMPDEST DUP1 PUSH1 0x1F ADD PUSH1 0x20 DUP1 SWAP2 DIV MUL PUSH1 0x20 ADD PUSH1 0x40 MLOAD SWAP1 DUP2 ADD PUSH1 0x40 MSTORE DUP1 SWAP3 SWAP2 SWAP1 DUP2 DUP2 MSTORE PUSH1 0x20 ADD DUP3 DUP1 SLOAD PUSH2 0x16E1 SWAP1 PUSH2 0x53AB JUMP JUMPDEST DUP1 ISZERO PUSH2 0x172E JUMPI DUP1 PUSH1 0x1F LT PUSH2 0x1703 JUMPI PUSH2 0x100 DUP1 DUP4 SLOAD DIV MUL DUP4 MSTORE SWAP2 PUSH1 0x20 ADD SWAP2 PUSH2 0x172E JUMP JUMPDEST DUP3 ADD SWAP2 SWAP1 PUSH1 0x0 MSTORE PUSH1 0x20 PUSH1 0x0 KECCAK256 SWAP1 JUMPDEST DUP2 SLOAD DUP2 MSTORE SWAP1 PUSH1 0x1 ADD SWAP1 PUSH1 0x20 ADD DUP1 DUP4 GT PUSH2 0x1711 JUMPI DUP3 SWAP1 SUB PUSH1 0x1F AND DUP3 ADD SWAP2 JUMPDEST POP POP POP POP POP SWAP1 DUP1 PUSH1 0x1 ADD DUP1 SLOAD PUSH2 0x1743 SWAP1 PUSH2 0x53AB JUMP JUMPDEST DUP1 PUSH1 0x1F ADD PUSH1 0x20 DUP1 SWAP2 DIV MUL PUSH1 0x20 ADD PUSH1 0x40 MLOAD SWAP1 DUP2 ADD PUSH1 0x40 MSTORE DUP1 SWAP3 SWAP2 SWAP1 DUP2 DUP2 MSTORE PUSH1 0x20 ADD DUP3 DUP1 SLOAD PUSH2 0x176F SWAP1 PUSH2 0x53AB JUMP JUMPDEST DUP1 ISZERO PUSH2 0x17BC JUMPI DUP1 PUSH1 0x1F LT PUSH2 0x1791 JUMPI PUSH2 0x100 DUP1 DUP4 SLOAD DIV MUL DUP4 MSTORE SWAP2 PUSH1 0x20 ADD SWAP2 PUSH2 0x17BC JUMP JUMPDEST DUP3 ADD SWAP2 SWAP1 PUSH1 0x0 MSTORE PUSH1 0x20 PUSH1 0x0 KECCAK256 SWAP1 JUMPDEST DUP2 SLOAD DUP2 MSTORE SWAP1 PUSH1 0x1 ADD SWAP1 PUSH1 0x20 ADD DUP1 DUP4 GT PUSH2 0x179F JUMPI DUP3 SWAP1 SUB PUSH1 0x1F AND DUP3 ADD SWAP2 JUMPDEST POP POP POP POP POP SWAP1 DUP1 PUSH1 0x2 ADD DUP1 SLOAD PUSH2 0x17D1 SWAP1 PUSH2 0x53AB JUMP JUMPDEST DUP1 PUSH1 0x1F ADD PUSH1 0x20 DUP1 SWAP2 DIV MUL PUSH1 0x20 ADD PUSH1 0x40 MLOAD SWAP1 DUP2 ADD PUSH1 0x40 MSTORE DUP1 SWAP3 SWAP2 SWAP1 DUP2 DUP2 MSTORE PUSH1 0x20 ADD DUP3 DUP1 SLOAD PUSH2 0x17FD SWAP1 PUSH2 0x53AB JUMP JUMPDEST DUP1 ISZERO PUSH2 0x184A JUMPI DUP1 PUSH1 0x1F LT PUSH2 0x181F JUMPI PUSH2 0x100 DUP1 DUP4 SLOAD DIV MUL DUP4 MSTORE SWAP2 PUSH1 0x20 ADD SWAP2 PUSH2 0x184A JUMP JUMPDEST DUP3 ADD SWAP2 SWAP1 PUSH1 0x0 MSTORE PUSH1 0x20 PUSH1 0x0 KECCAK256 SWAP1 JUMPDEST DUP2 SLOAD DUP2 MSTORE SWAP1 PUSH1 0x1 ADD SWAP1 PUSH1 0x20 ADD DUP1 DUP4 GT PUSH2 0x182D JUMPI DUP3 SWAP1 SUB PUSH1 0x1F AND DUP3 ADD SWAP2 JUMPDEST POP POP POP POP POP SWAP1 DUP1 PUSH1 0x3 ADD DUP1 SLOAD PUSH2 0x185F SWAP1 PUSH2 0x53AB JUMP JUMPDEST DUP1 PUSH1 0x1F ADD PUSH1 0x20 DUP1 SWAP2 DIV MUL PUSH1 0x20 ADD PUSH1 0x40 MLOAD SWAP1 DUP2 ADD PUSH1 0x40 MSTORE DUP1 SWAP3 SWAP2 SWAP1 DUP2 DUP2 MSTORE PUSH1 0x20 ADD DUP3 DUP1 SLOAD PUSH2 0x188B SWAP1 PUSH2 0x53AB JUMP JUMPDEST DUP1 ISZERO PUSH2 0x18D8 JUMPI DUP1 PUSH1 0x1F LT PUSH2 0x18AD JUMPI PUSH2 0x100 DUP1 DUP4 SLOAD DIV MUL DUP4 MSTORE SWAP2 PUSH1 0x20 ADD SWAP2 PUSH2 0x18D8 JUMP JUMPDEST DUP3 ADD SWAP2 SWAP1 PUSH1 0x0 MSTORE PUSH1 0x20 PUSH1 0x0 KECCAK256 SWAP1 JUMPDEST DUP2 SLOAD DUP2 MSTORE SWAP1 PUSH1 0x1 ADD SWAP1 PUSH1 0x20 ADD DUP1 DUP4 GT PUSH2 0x18BB JUMPI DUP3 SWAP1 SUB PUSH1 0x1F AND DUP3 ADD SWAP2 JUMPDEST POP POP POP POP POP SWAP1 DUP1 PUSH1 0x4 ADD DUP1 SLOAD PUSH2 0x18ED SWAP1 PUSH2 0x53AB JUMP JUMPDEST DUP1 PUSH1 0x1F ADD PUSH1 0x20 DUP1 SWAP2 DIV MUL PUSH1 0x20 ADD PUSH1 0x40 MLOAD SWAP1 DUP2 ADD PUSH1 0x40 MSTORE DUP1 SWAP3 SWAP2 SWAP1 DUP2 DUP2 MSTORE PUSH1 0x20 ADD DUP3 DUP1 SLOAD PUSH2 0x1919 SWAP1 PUSH2 0x53AB JUMP JUMPDEST DUP1 ISZERO PUSH2 0x1966 JUMPI DUP1 PUSH1 0x1F LT PUSH2 0x193B JUMPI PUSH2 0x100 DUP1 DUP4 SLOAD DIV MUL DUP4 MSTORE SWAP2 PUSH1 0x20 ADD SWAP2 PUSH2 0x1966 JUMP JUMPDEST DUP3 ADD SWAP2 SWAP1 PUSH1 0x0 MSTORE PUSH1 0x20 PUSH1 0x0 KECCAK256 SWAP1 JUMPDEST DUP2 SLOAD DUP2 MSTORE SWAP1 PUSH1 0x1 ADD SWAP1 PUSH1 0x20 ADD DUP1 DUP4 GT PUSH2 0x1949 JUMPI DUP3 SWAP1 SUB PUSH1 0x1F AND DUP3 ADD SWAP2 JUMPDEST POP POP POP POP POP SWAP1 DUP1 PUSH1 0x5 ADD SLOAD SWAP1 DUP1 PUSH1 0x6 ADD PUSH1 0x0 SWAP1 SLOAD SWAP1 PUSH2 0x100 EXP SWAP1 DIV PUSH20 0xFFFFFFFFFFFFFFFFFFFFFFFFFFFFFFFFFFFFFFFF AND SWAP1 POP DUP8 JUMP JUMPDEST DUP1 PUSH1 0xC0 ADD PUSH1 0x20 DUP2 ADD SWAP1 PUSH2 0x19AF SWAP2 SWAP1 PUSH2 0x45B1 JUMP JUMPDEST PUSH1 0xC PUSH1 0x0 SWAP1 SLOAD SWAP1 PUSH2 0x100 EXP SWAP1 DIV PUSH20 0xFFFFFFFFFFFFFFFFFFFFFFFFFFFFFFFFFFFFFFFF AND PUSH20 0xFFFFFFFFFFFFFFFFFFFFFFFFFFFFFFFFFFFFFFFF AND PUSH4 0xB9209E33 DUP3 PUSH1 0x40 MLOAD DUP3 PUSH4 0xFFFFFFFF AND PUSH1 0xE0 SHL DUP2 MSTORE PUSH1 0x4 ADD PUSH2 0x1A0A SWAP2 SWAP1 PUSH2 0x4364 JUMP JUMPDEST PUSH1 0x20 PUSH1 0x40 MLOAD DUP1 DUP4 SUB DUP2 DUP7 GAS STATICCALL ISZERO DUP1 ISZERO PUSH2 0x1A27 JUMPI RETURNDATASIZE PUSH1 0x0 DUP1 RETURNDATACOPY RETURNDATASIZE PUSH1 0x0 REVERT JUMPDEST POP POP POP POP PUSH1 0x40 MLOAD RETURNDATASIZE PUSH1 0x1F NOT PUSH1 0x1F DUP3 ADD AND DUP3 ADD DUP1 PUSH1 0x40 MSTORE POP DUP2 ADD SWAP1 PUSH2 0x1A4B SWAP2 SWAP1 PUSH2 0x4D4F JUMP JUMPDEST PUSH2 0x1A8A JUMPI PUSH1 0x40 MLOAD PUSH32 0x8C379A000000000000000000000000000000000000000000000000000000000 DUP2 MSTORE PUSH1 0x4 ADD PUSH2 0x1A81 SWAP1 PUSH2 0x4DC8 JUMP JUMPDEST PUSH1 0x40 MLOAD DUP1 SWAP2 SUB SWAP1 REVERT JUMPDEST DUP2 PUSH1 0xC0 ADD PUSH1 0x20 DUP2 ADD SWAP1 PUSH2 0x1A9D SWAP2 SWAP1 PUSH2 0x45B1 JUMP JUMPDEST PUSH20 0xFFFFFFFFFFFFFFFFFFFFFFFFFFFFFFFFFFFFFFFF AND CALLER PUSH20 0xFFFFFFFFFFFFFFFFFFFFFFFFFFFFFFFFFFFFFFFF AND EQ PUSH2 0x1B0A JUMPI PUSH1 0x40 MLOAD PUSH32 0x8C379A000000000000000000000000000000000000000000000000000000000 DUP2 MSTORE PUSH1 0x4 ADD PUSH2 0x1B01 SWAP1 PUSH2 0x5EC2 JUMP JUMPDEST PUSH1 0x40 MLOAD DUP1 SWAP2 SUB SWAP1 REVERT JUMPDEST PUSH1 0x0 PUSH1 0x3 DUP2 GT ISZERO PUSH2 0x1B1E JUMPI PUSH2 0x1B1D PUSH2 0x4885 JUMP JUMPDEST JUMPDEST PUSH1 0x6 PUSH1 0x0 CALLER PUSH20 0xFFFFFFFFFFFFFFFFFFFFFFFFFFFFFFFFFFFFFFFF AND PUSH20 0xFFFFFFFFFFFFFFFFFFFFFFFFFFFFFFFFFFFFFFFF AND DUP2 MSTORE PUSH1 0x20 ADD SWAP1 DUP2 MSTORE PUSH1 0x20 ADD PUSH1 0x0 KECCAK256 PUSH1 0x0 SWAP1 SLOAD SWAP1 PUSH2 0x100 EXP SWAP1 DIV PUSH1 0xFF AND PUSH1 0x3 DUP2 GT ISZERO PUSH2 0x1B7D JUMPI PUSH2 0x1B7C PUSH2 0x4885 JUMP JUMPDEST JUMPDEST EQ PUSH2 0x1BBD JUMPI PUSH1 0x40 MLOAD PUSH32 0x8C379A000000000000000000000000000000000000000000000000000000000 DUP2 MSTORE PUSH1 0x4 ADD PUSH2 0x1BB4 SWAP1 PUSH2 0x5F2E JUMP JUMPDEST PUSH1 0x40 MLOAD DUP1 SWAP2 SUB SWAP1 REVERT JUMPDEST DUP2 PUSH1 0x1 PUSH1 0x0 DUP5 PUSH1 0xC0 ADD PUSH1 0x20 DUP2 ADD SWAP1 PUSH2 0x1BD5 SWAP2 SWAP1 PUSH2 0x45B1 JUMP JUMPDEST PUSH20 0xFFFFFFFFFFFFFFFFFFFFFFFFFFFFFFFFFFFFFFFF AND PUSH20 0xFFFFFFFFFFFFFFFFFFFFFFFFFFFFFFFFFFFFFFFF AND DUP2 MSTORE PUSH1 0x20 ADD SWAP1 DUP2 MSTORE PUSH1 0x20 ADD PUSH1 0x0 KECCAK256 DUP2 DUP2 PUSH2 0x1C1B SWAP2 SWAP1 PUSH2 0x6039 JUMP JUMPDEST SWAP1 POP POP PUSH1 0x1 PUSH1 0x6 PUSH1 0x0 CALLER PUSH20 0xFFFFFFFFFFFFFFFFFFFFFFFFFFFFFFFFFFFFFFFF AND PUSH20 0xFFFFFFFFFFFFFFFFFFFFFFFFFFFFFFFFFFFFFFFF AND DUP2 MSTORE PUSH1 0x20 ADD SWAP1 DUP2 MSTORE PUSH1 0x20 ADD PUSH1 0x0 KECCAK256 PUSH1 0x0 PUSH2 0x100 EXP DUP2 SLOAD DUP2 PUSH1 0xFF MUL NOT AND SWAP1 DUP4 PUSH1 0x3 DUP2 GT ISZERO PUSH2 0x1C81 JUMPI PUSH2 0x1C80 PUSH2 0x4885 JUMP JUMPDEST JUMPDEST MUL OR SWAP1 SSTORE POP PUSH32 0xA0028275FA37D11EA8D5D29FD14FD8AA6C52AF0E0CF819B89CA2CD9193F1185 DUP3 PUSH1 0xC0 ADD PUSH1 0x20 DUP2 ADD SWAP1 PUSH2 0x1CBA SWAP2 SWAP1 PUSH2 0x45B1 JUMP JUMPDEST PUSH1 0x40 MLOAD PUSH2 0x1CC7 SWAP2 SWAP1 PUSH2 0x4364 JUMP JUMPDEST PUSH1 0x40 MLOAD DUP1 SWAP2 SUB SWAP1 LOG1 POP POP JUMP JUMPDEST PUSH1 0xA PUSH1 0x0 SWAP1 SLOAD SWAP1 PUSH2 0x100 EXP SWAP1 DIV PUSH20 0xFFFFFFFFFFFFFFFFFFFFFFFFFFFFFFFFFFFFFFFF AND PUSH20 0xFFFFFFFFFFFFFFFFFFFFFFFFFFFFFFFFFFFFFFFF AND CALLER PUSH20 0xFFFFFFFFFFFFFFFFFFFFFFFFFFFFFFFFFFFFFFFF AND EQ PUSH2 0x1D63 JUMPI PUSH1 0x40 MLOAD PUSH32 0x8C379A000000000000000000000000000000000000000000000000000000000 DUP2 MSTORE PUSH1 0x4 ADD PUSH2 0x1D5A SWAP1 PUSH2 0x6093 JUMP JUMPDEST PUSH1 0x40 MLOAD DUP1 SWAP2 SUB SWAP1 REVERT JUMPDEST PUSH1 0x1 PUSH1 0x5 DUP2 GT ISZERO PUSH2 0x1D77 JUMPI PUSH2 0x1D76 PUSH2 0x4885 JUMP JUMPDEST JUMPDEST PUSH1 0x0 DUP4 DUP4 PUSH1 0x40 MLOAD PUSH2 0x1D89 SWAP3 SWAP2 SWAP1 PUSH2 0x4E18 JUMP JUMPDEST SWAP1 DUP2 MSTORE PUSH1 0x20 ADD PUSH1 0x40 MLOAD DUP1 SWAP2 SUB SWAP1 KECCAK256 PUSH1 0x8 ADD PUSH1 0x15 SWAP1 SLOAD SWAP1 PUSH2 0x100 EXP SWAP1 DIV PUSH1 0xFF AND PUSH1 0x5 DUP2 GT ISZERO PUSH2 0x1DBA JUMPI PUSH2 0x1DB9 PUSH2 0x4885 JUMP JUMPDEST JUMPDEST EQ PUSH2 0x1DFA JUMPI PUSH1 0x40 MLOAD PUSH32 0x8C379A000000000000000000000000000000000000000000000000000000000 DUP2 MSTORE PUSH1 0x4 ADD PUSH2 0x1DF1 SWAP1 PUSH2 0x52DF JUMP JUMPDEST PUSH1 0x40 MLOAD DUP1 SWAP2 SUB SWAP1 REVERT JUMPDEST PUSH1 0x2 PUSH1 0x0 DUP4 DUP4 PUSH1 0x40 MLOAD PUSH2 0x1E0E SWAP3 SWAP2 SWAP1 PUSH2 0x4E18 JUMP JUMPDEST SWAP1 DUP2 MSTORE PUSH1 0x20 ADD PUSH1 0x40 MLOAD DUP1 SWAP2 SUB SWAP1 KECCAK256 PUSH1 0x8 ADD PUSH1 0x15 PUSH2 0x100 EXP DUP2 SLOAD DUP2 PUSH1 0xFF MUL NOT AND SWAP1 DUP4 PUSH1 0x5 DUP2 GT ISZERO PUSH2 0x1E41 JUMPI PUSH2 0x1E40 PUSH2 0x4885 JUMP JUMPDEST JUMPDEST MUL OR SWAP1 SSTORE POP PUSH1 0x2 PUSH1 0x10 PUSH1 0x0 DUP5 DUP5 PUSH1 0x40 MLOAD PUSH2 0x1E5C SWAP3 SWAP2 SWAP1 PUSH2 0x4E18 JUMP JUMPDEST SWAP1 DUP2 MSTORE PUSH1 0x20 ADD PUSH1 0x40 MLOAD DUP1 SWAP2 SUB SWAP1 KECCAK256 PUSH1 0x7 ADD SLOAD DUP2 SLOAD DUP2 LT PUSH2 0x1E7F JUMPI PUSH2 0x1E7E PUSH2 0x4F51 JUMP JUMPDEST JUMPDEST SWAP1 PUSH1 0x0 MSTORE PUSH1 0x20 PUSH1 0x0 KECCAK256 SWAP1 PUSH1 0x9 MUL ADD PUSH1 0x8 ADD PUSH1 0x15 PUSH2 0x100 EXP DUP2 SLOAD DUP2 PUSH1 0xFF MUL NOT AND SWAP1 DUP4 PUSH1 0x5 DUP2 GT ISZERO PUSH2 0x1EB2 JUMPI PUSH2 0x1EB1 PUSH2 0x4885 JUMP JUMPDEST JUMPDEST MUL OR SWAP1 SSTORE POP PUSH32 0x39501081328FFE3EB02459AD6F6E90B69E23BA1422B574EE84C1F52B2FC0310 DUP3 DUP3 PUSH1 0x40 MLOAD PUSH2 0x1EE8 SWAP3 SWAP2 SWAP1 PUSH2 0x4E5E JUMP JUMPDEST PUSH1 0x40 MLOAD DUP1 SWAP2 SUB SWAP1 LOG1 POP POP JUMP JUMPDEST PUSH1 0x4 DUP3 DUP1 MLOAD PUSH1 0x20 DUP2 ADD DUP3 ADD DUP1 MLOAD DUP5 DUP3 MSTORE PUSH1 0x20 DUP4 ADD PUSH1 0x20 DUP6 ADD KECCAK256 DUP2 DUP4 MSTORE DUP1 SWAP6 POP POP POP POP POP POP DUP2 DUP2 SLOAD DUP2 LT PUSH2 0x1F26 JUMPI PUSH1 0x0 DUP1 REVERT JUMPDEST SWAP1 PUSH1 0x0 MSTORE PUSH1 0x20 PUSH1 0x0 KECCAK256 SWAP1 PUSH1 0x2 MUL ADD PUSH1 0x0 SWAP2 POP SWAP2 POP POP DUP1 PUSH1 0x0 ADD PUSH1 0x0 SWAP1 SLOAD SWAP1 PUSH2 0x100 EXP SWAP1 DIV PUSH20 0xFFFFFFFFFFFFFFFFFFFFFFFFFFFFFFFFFFFFFFFF AND SWAP1 DUP1 PUSH1 0x1 ADD SLOAD SWAP1 POP DUP3 JUMP JUMPDEST PUSH1 0x9 PUSH1 0x20 MSTORE DUP2 PUSH1 0x0 MSTORE PUSH1 0x40 PUSH1 0x0 KECCAK256 DUP2 DUP2 SLOAD DUP2 LT PUSH2 0x1F87 JUMPI PUSH1 0x0 DUP1 REVERT JUMPDEST SWAP1 PUSH1 0x0 MSTORE PUSH1 0x20 PUSH1 0x0 KECCAK256 SWAP1 PUSH1 0x9 MUL ADD PUSH1 0x0 SWAP2 POP SWAP2 POP POP DUP1 PUSH1 0x0 ADD DUP1 SLOAD PUSH2 0x1FAB SWAP1 PUSH2 0x53AB JUMP JUMPDEST DUP1 PUSH1 0x1F ADD PUSH1 0x20 DUP1 SWAP2 DIV MUL PUSH1 0x20 ADD PUSH1 0x40 MLOAD SWAP1 DUP2 ADD PUSH1 0x40 MSTORE DUP1 SWAP3 SWAP2 SWAP1 DUP2 DUP2 MSTORE PUSH1 0x20 ADD DUP3 DUP1 SLOAD PUSH2 0x1FD7 SWAP1 PUSH2 0x53AB JUMP JUMPDEST DUP1 ISZERO PUSH2 0x2024 JUMPI DUP1 PUSH1 0x1F LT PUSH2 0x1FF9 JUMPI PUSH2 0x100 DUP1 DUP4 SLOAD DIV MUL DUP4 MSTORE SWAP2 PUSH1 0x20 ADD SWAP2 PUSH2 0x2024 JUMP JUMPDEST DUP3 ADD SWAP2 SWAP1 PUSH1 0x0 MSTORE PUSH1 0x20 PUSH1 0x0 KECCAK256 SWAP1 JUMPDEST DUP2 SLOAD DUP2 MSTORE SWAP1 PUSH1 0x1 ADD SWAP1 PUSH1 0x20 ADD DUP1 DUP4 GT PUSH2 0x2007 JUMPI DUP3 SWAP1 SUB PUSH1 0x1F AND DUP3 ADD SWAP2 JUMPDEST POP POP POP POP POP SWAP1 DUP1 PUSH1 0x1 ADD DUP1 SLOAD PUSH2 0x2039 SWAP1 PUSH2 0x53AB JUMP JUMPDEST DUP1 PUSH1 0x1F ADD PUSH1 0x20 DUP1 SWAP2 DIV MUL PUSH1 0x20 ADD PUSH1 0x40 MLOAD SWAP1 DUP2 ADD PUSH1 0x40 MSTORE DUP1 SWAP3 SWAP2 SWAP1 DUP2 DUP2 MSTORE PUSH1 0x20 ADD DUP3 DUP1 SLOAD PUSH2 0x2065 SWAP1 PUSH2 0x53AB JUMP JUMPDEST DUP1 ISZERO PUSH2 0x20B2 JUMPI DUP1 PUSH1 0x1F LT PUSH2 0x2087 JUMPI PUSH2 0x100 DUP1 DUP4 SLOAD DIV MUL DUP4 MSTORE SWAP2 PUSH1 0x20 ADD SWAP2 PUSH2 0x20B2 JUMP JUMPDEST DUP3 ADD SWAP2 SWAP1 PUSH1 0x0 MSTORE PUSH1 0x20 PUSH1 0x0 KECCAK256 SWAP1 JUMPDEST DUP2 SLOAD DUP2 MSTORE SWAP1 PUSH1 0x1 ADD SWAP1 PUSH1 0x20 ADD DUP1 DUP4 GT PUSH2 0x2095 JUMPI DUP3 SWAP1 SUB PUSH1 0x1F AND DUP3 ADD SWAP2 JUMPDEST POP POP POP POP POP SWAP1 DUP1 PUSH1 0x2 ADD PUSH1 0x0 SWAP1 SLOAD SWAP1 PUSH2 0x100 EXP SWAP1 DIV PUSH20 0xFFFFFFFFFFFFFFFFFFFFFFFFFFFFFFFFFFFFFFFF AND SWAP1 DUP1 PUSH1 0x3 ADD SLOAD SWAP1 DUP1 PUSH1 0x4 ADD SLOAD SWAP1 DUP1 PUSH1 0x5 ADD SLOAD SWAP1 DUP1 PUSH1 0x6 ADD SLOAD SWAP1 DUP1 PUSH1 0x7 ADD SLOAD SWAP1 DUP1 PUSH1 0x8 ADD PUSH1 0x0 SWAP1 SLOAD SWAP1 PUSH2 0x100 EXP SWAP1 DIV PUSH20 0xFFFFFFFFFFFFFFFFFFFFFFFFFFFFFFFFFFFFFFFF AND SWAP1 DUP1 PUSH1 0x8 ADD PUSH1 0x14 SWAP1 SLOAD SWAP1 PUSH2 0x100 EXP SWAP1 DIV PUSH1 0xFF AND SWAP1 DUP1 PUSH1 0x8 ADD PUSH1 0x15 SWAP1 SLOAD SWAP1 PUSH2 0x100 EXP SWAP1 DIV PUSH1 0xFF AND SWAP1 POP DUP12 JUMP JUMPDEST PUSH1 0xA PUSH1 0x0 SWAP1 SLOAD SWAP1 PUSH2 0x100 EXP SWAP1 DIV PUSH20 0xFFFFFFFFFFFFFFFFFFFFFFFFFFFFFFFFFFFFFFFF AND PUSH20 0xFFFFFFFFFFFFFFFFFFFFFFFFFFFFFFFFFFFFFFFF AND CALLER PUSH20 0xFFFFFFFFFFFFFFFFFFFFFFFFFFFFFFFFFFFFFFFF AND EQ PUSH2 0x21DC JUMPI PUSH1 0x40 MLOAD PUSH32 0x8C379A000000000000000000000000000000000000000000000000000000000 DUP2 MSTORE PUSH1 0x4 ADD PUSH2 0x21D3 SWAP1 PUSH2 0x6093 JUMP JUMPDEST PUSH1 0x40 MLOAD DUP1 SWAP2 SUB SWAP1 REVERT JUMPDEST PUSH1 0x2 PUSH1 0x5 DUP2 GT ISZERO PUSH2 0x21F0 JUMPI PUSH2 0x21EF PUSH2 0x4885 JUMP JUMPDEST JUMPDEST PUSH1 0x0 DUP6 DUP6 PUSH1 0x40 MLOAD PUSH2 0x2202 SWAP3 SWAP2 SWAP1 PUSH2 0x4E18 JUMP JUMPDEST SWAP1 DUP2 MSTORE PUSH1 0x20 ADD PUSH1 0x40 MLOAD DUP1 SWAP2 SUB SWAP1 KECCAK256 PUSH1 0x8 ADD PUSH1 0x15 SWAP1 SLOAD SWAP1 PUSH2 0x100 EXP SWAP1 DIV PUSH1 0xFF AND PUSH1 0x5 DUP2 GT ISZERO PUSH2 0x2233 JUMPI PUSH2 0x2232 PUSH2 0x4885 JUMP JUMPDEST JUMPDEST EQ PUSH2 0x2277 JUMPI DUP4 DUP4 PUSH1 0x40 MLOAD PUSH32 0xB716508400000000000000000000000000000000000000000000000000000000 DUP2 MSTORE PUSH1 0x4 ADD PUSH2 0x226E SWAP3 SWAP2 SWAP1 PUSH2 0x4E5E JUMP JUMPDEST PUSH1 0x40 MLOAD DUP1 SWAP2 SUB SWAP1 REVERT JUMPDEST DUP1 PUSH1 0x3 DUP6 DUP6 PUSH1 0x40 MLOAD PUSH2 0x228A SWAP3 SWAP2 SWAP1 PUSH2 0x4E18 JUMP JUMPDEST SWAP1 DUP2 MSTORE PUSH1 0x20 ADD PUSH1 0x40 MLOAD DUP1 SWAP2 SUB SWAP1 KECCAK256 PUSH1 0x0 PUSH2 0x100 EXP DUP2 SLOAD DUP2 PUSH20 0xFFFFFFFFFFFFFFFFFFFFFFFFFFFFFFFFFFFFFFFF MUL NOT AND SWAP1 DUP4 PUSH20 0xFFFFFFFFFFFFFFFFFFFFFFFFFFFFFFFFFFFFFFFF AND MUL OR SWAP1 SSTORE POP PUSH1 0x4 PUSH1 0x5 DUP2 GT ISZERO PUSH2 0x22EA JUMPI PUSH2 0x22E9 PUSH2 0x4885 JUMP JUMPDEST JUMPDEST PUSH1 0x0 DUP6 DUP6 PUSH1 0x40 MLOAD PUSH2 0x22FC SWAP3 SWAP2 SWAP1 PUSH2 0x4E18 JUMP JUMPDEST SWAP1 DUP2 MSTORE PUSH1 0x20 ADD PUSH1 0x40 MLOAD DUP1 SWAP2 SUB SWAP1 KECCAK256 PUSH1 0x8 ADD PUSH1 0x15 SWAP1 SLOAD SWAP1 PUSH2 0x100 EXP SWAP1 DIV PUSH1 0xFF AND PUSH1 0x5 DUP2 GT ISZERO PUSH2 0x232D JUMPI PUSH2 0x232C PUSH2 0x4885 JUMP JUMPDEST JUMPDEST POP POP PUSH1 0x4 PUSH1 0x10 PUSH1 0x0 DUP7 DUP7 PUSH1 0x40 MLOAD PUSH2 0x2345 SWAP3 SWAP2 SWAP1 PUSH2 0x4E18 JUMP JUMPDEST SWAP1 DUP2 MSTORE PUSH1 0x20 ADD PUSH1 0x40 MLOAD DUP1 SWAP2 SUB SWAP1 KECCAK256 PUSH1 0x7 ADD SLOAD DUP2 SLOAD DUP2 LT PUSH2 0x2368 JUMPI PUSH2 0x2367 PUSH2 0x4F51 JUMP JUMPDEST JUMPDEST SWAP1 PUSH1 0x0 MSTORE PUSH1 0x20 PUSH1 0x0 KECCAK256 SWAP1 PUSH1 0x9 MUL ADD PUSH1 0x8 ADD PUSH1 0x15 PUSH2 0x100 EXP DUP2 SLOAD DUP2 PUSH1 0xFF MUL NOT AND SWAP1 DUP4 PUSH1 0x5 DUP2 GT ISZERO PUSH2 0x239B JUMPI PUSH2 0x239A PUSH2 0x4885 JUMP JUMPDEST JUMPDEST MUL OR SWAP1 SSTORE POP PUSH1 0x9 PUSH1 0x0 DUP1 DUP7 DUP7 PUSH1 0x40 MLOAD PUSH2 0x23B5 SWAP3 SWAP2 SWAP1 PUSH2 0x4E18 JUMP JUMPDEST SWAP1 DUP2 MSTORE PUSH1 0x20 ADD PUSH1 0x40 MLOAD DUP1 SWAP2 SUB SWAP1 KECCAK256 PUSH1 0x2 ADD PUSH1 0x0 SWAP1 SLOAD SWAP1 PUSH2 0x100 EXP SWAP1 DIV PUSH20 0xFFFFFFFFFFFFFFFFFFFFFFFFFFFFFFFFFFFFFFFF AND PUSH20 0xFFFFFFFFFFFFFFFFFFFFFFFFFFFFFFFFFFFFFFFF AND PUSH20 0xFFFFFFFFFFFFFFFFFFFFFFFFFFFFFFFFFFFFFFFF AND DUP2 MSTORE PUSH1 0x20 ADD SWAP1 DUP2 MSTORE PUSH1 0x20 ADD PUSH1 0x0 KECCAK256 PUSH1 0x0 DUP6 DUP6 PUSH1 0x40 MLOAD PUSH2 0x2433 SWAP3 SWAP2 SWAP1 PUSH2 0x4E18 JUMP JUMPDEST SWAP1 DUP2 MSTORE PUSH1 0x20 ADD PUSH1 0x40 MLOAD DUP1 SWAP2 SUB SWAP1 KECCAK256 SWAP1 DUP1 PUSH1 0x1 DUP2 SLOAD ADD DUP1 DUP3 SSTORE DUP1 SWAP2 POP POP PUSH1 0x1 SWAP1 SUB SWAP1 PUSH1 0x0 MSTORE PUSH1 0x20 PUSH1 0x0 KECCAK256 SWAP1 PUSH1 0x9 MUL ADD PUSH1 0x0 SWAP1 SWAP2 SWAP1 SWAP2 SWAP1 SWAP2 POP PUSH1 0x0 DUP3 ADD DUP2 PUSH1 0x0 ADD SWAP1 DUP2 PUSH2 0x247E SWAP2 SWAP1 PUSH2 0x5AAF JUMP JUMPDEST POP PUSH1 0x1 DUP3 ADD DUP2 PUSH1 0x1 ADD SWAP1 DUP2 PUSH2 0x2493 SWAP2 SWAP1 PUSH2 0x5AAF JUMP JUMPDEST POP PUSH1 0x2 DUP3 ADD PUSH1 0x0 SWAP1 SLOAD SWAP1 PUSH2 0x100 EXP SWAP1 DIV PUSH20 0xFFFFFFFFFFFFFFFFFFFFFFFFFFFFFFFFFFFFFFFF AND DUP2 PUSH1 0x2 ADD PUSH1 0x0 PUSH2 0x100 EXP DUP2 SLOAD DUP2 PUSH20 0xFFFFFFFFFFFFFFFFFFFFFFFFFFFFFFFFFFFFFFFF MUL NOT AND SWAP1 DUP4 PUSH20 0xFFFFFFFFFFFFFFFFFFFFFFFFFFFFFFFFFFFFFFFF AND MUL OR SWAP1 SSTORE POP PUSH1 0x3 DUP3 ADD SLOAD DUP2 PUSH1 0x3 ADD SSTORE PUSH1 0x4 DUP3 ADD SLOAD DUP2 PUSH1 0x4 ADD SSTORE PUSH1 0x5 DUP3 ADD SLOAD DUP2 PUSH1 0x5 ADD SSTORE PUSH1 0x6 DUP3 ADD SLOAD DUP2 PUSH1 0x6 ADD SSTORE PUSH1 0x7 DUP3 ADD SLOAD DUP2 PUSH1 0x7 ADD SSTORE PUSH1 0x8 DUP3 ADD PUSH1 0x0 SWAP1 SLOAD SWAP1 PUSH2 0x100 EXP SWAP1 DIV PUSH20 0xFFFFFFFFFFFFFFFFFFFFFFFFFFFFFFFFFFFFFFFF AND DUP2 PUSH1 0x8 ADD PUSH1 0x0 PUSH2 0x100 EXP DUP2 SLOAD DUP2 PUSH20 0xFFFFFFFFFFFFFFFFFFFFFFFFFFFFFFFFFFFFFFFF MUL NOT AND SWAP1 DUP4 PUSH20 0xFFFFFFFFFFFFFFFFFFFFFFFFFFFFFFFFFFFFFFFF AND MUL OR SWAP1 SSTORE POP PUSH1 0x8 DUP3 ADD PUSH1 0x14 SWAP1 SLOAD SWAP1 PUSH2 0x100 EXP SWAP1 DIV PUSH1 0xFF AND DUP2 PUSH1 0x8 ADD PUSH1 0x14 PUSH2 0x100 EXP DUP2 SLOAD DUP2 PUSH1 0xFF MUL NOT AND SWAP1 DUP4 PUSH1 0xFF AND MUL OR SWAP1 SSTORE POP PUSH1 0x8 DUP3 ADD PUSH1 0x15 SWAP1 SLOAD SWAP1 PUSH2 0x100 EXP SWAP1 DIV PUSH1 0xFF AND DUP2 PUSH1 0x8 ADD PUSH1 0x15 PUSH2 0x100 EXP DUP2 SLOAD DUP2 PUSH1 0xFF MUL NOT AND SWAP1 DUP4 PUSH1 0x5 DUP2 GT ISZERO PUSH2 0x25FA JUMPI PUSH2 0x25F9 PUSH2 0x4885 JUMP JUMPDEST JUMPDEST MUL OR SWAP1 SSTORE POP POP POP DUP1 PUSH20 0xFFFFFFFFFFFFFFFFFFFFFFFFFFFFFFFFFFFFFFFF AND PUSH4 0xD76805AA DUP4 PUSH1 0x40 MLOAD DUP3 PUSH4 0xFFFFFFFF AND PUSH1 0xE0 SHL DUP2 MSTORE PUSH1 0x4 ADD PUSH2 0x263A SWAP2 SWAP1 PUSH2 0x620E JUMP JUMPDEST PUSH1 0x0 PUSH1 0x40 MLOAD DUP1 DUP4 SUB DUP2 PUSH1 0x0 DUP8 DUP1 EXTCODESIZE ISZERO DUP1 ISZERO PUSH2 0x2654 JUMPI PUSH1 0x0 DUP1 REVERT JUMPDEST POP GAS CALL ISZERO DUP1 ISZERO PUSH2 0x2668 JUMPI RETURNDATASIZE PUSH1 0x0 DUP1 RETURNDATACOPY RETURNDATASIZE PUSH1 0x0 REVERT JUMPDEST POP POP POP POP PUSH1 0xF DUP3 SWAP1 DUP1 PUSH1 0x1 DUP2 SLOAD ADD DUP1 DUP3 SSTORE DUP1 SWAP2 POP POP PUSH1 0x1 SWAP1 SUB SWAP1 PUSH1 0x0 MSTORE PUSH1 0x20 PUSH1 0x0 KECCAK256 SWAP1 PUSH1 0xB MUL ADD PUSH1 0x0 SWAP1 SWAP2 SWAP1 SWAP2 SWAP1 SWAP2 POP DUP2 DUP2 PUSH2 0x26A4 SWAP2 SWAP1 PUSH2 0x63E8 JUMP JUMPDEST POP POP PUSH32 0x44B55C2D9270546FAF6FF2F0ACAC078011883B82782D9B08DE2D3AF4543C2B18 DUP5 DUP5 PUSH1 0x40 MLOAD PUSH2 0x26D7 SWAP3 SWAP2 SWAP1 PUSH2 0x4E5E JUMP JUMPDEST PUSH1 0x40 MLOAD DUP1 SWAP2 SUB SWAP1 LOG1 POP POP POP POP JUMP JUMPDEST PUSH1 0x5 DUP2 DUP1 MLOAD PUSH1 0x20 DUP2 ADD DUP3 ADD DUP1 MLOAD DUP5 DUP3 MSTORE PUSH1 0x20 DUP4 ADD PUSH1 0x20 DUP6 ADD KECCAK256 DUP2 DUP4 MSTORE DUP1 SWAP6 POP POP POP POP POP POP PUSH1 0x0 SWAP2 POP SWAP1 POP SLOAD DUP2 JUMP JUMPDEST PUSH1 0x0 PUSH1 0x5 DUP4 DUP4 PUSH1 0x40 MLOAD PUSH2 0x2727 SWAP3 SWAP2 SWAP1 PUSH2 0x4E18 JUMP JUMPDEST SWAP1 DUP2 MSTORE PUSH1 0x20 ADD PUSH1 0x40 MLOAD DUP1 SWAP2 SUB SWAP1 KECCAK256 SLOAD SWAP1 POP SWAP3 SWAP2 POP POP JUMP JUMPDEST PUSH1 0x2 PUSH1 0x20 MSTORE DUP1 PUSH1 0x0 MSTORE PUSH1 0x40 PUSH1 0x0 KECCAK256 PUSH1 0x0 SWAP2 POP SWAP1 POP DUP1 PUSH1 0x0 ADD DUP1 SLOAD PUSH2 0x2761 SWAP1 PUSH2 0x53AB JUMP JUMPDEST DUP1 PUSH1 0x1F ADD PUSH1 0x20 DUP1 SWAP2 DIV MUL PUSH1 0x20 ADD PUSH1 0x40 MLOAD SWAP1 DUP2 ADD PUSH1 0x40 MSTORE DUP1 SWAP3 SWAP2 SWAP1 DUP2 DUP2 MSTORE PUSH1 0x20 ADD DUP3 DUP1 SLOAD PUSH2 0x278D SWAP1 PUSH2 0x53AB JUMP JUMPDEST DUP1 ISZERO PUSH2 0x27DA JUMPI DUP1 PUSH1 0x1F LT PUSH2 0x27AF JUMPI PUSH2 0x100 DUP1 DUP4 SLOAD DIV MUL DUP4 MSTORE SWAP2 PUSH1 0x20 ADD SWAP2 PUSH2 0x27DA JUMP JUMPDEST DUP3 ADD SWAP2 SWAP1 PUSH1 0x0 MSTORE PUSH1 0x20 PUSH1 0x0 KECCAK256 SWAP1 JUMPDEST DUP2 SLOAD DUP2 MSTORE SWAP1 PUSH1 0x1 ADD SWAP1 PUSH1 0x20 ADD DUP1 DUP4 GT PUSH2 0x27BD JUMPI DUP3 SWAP1 SUB PUSH1 0x1F AND DUP3 ADD SWAP2 JUMPDEST POP POP POP POP POP SWAP1 DUP1 PUSH1 0x1 ADD DUP1 SLOAD PUSH2 0x27EF SWAP1 PUSH2 0x53AB JUMP JUMPDEST DUP1 PUSH1 0x1F ADD PUSH1 0x20 DUP1 SWAP2 DIV MUL PUSH1 0x20 ADD PUSH1 0x40 MLOAD SWAP1 DUP2 ADD PUSH1 0x40 MSTORE DUP1 SWAP3 SWAP2 SWAP1 DUP2 DUP2 MSTORE PUSH1 0x20 ADD DUP3 DUP1 SLOAD PUSH2 0x281B SWAP1 PUSH2 0x53AB JUMP JUMPDEST DUP1 ISZERO PUSH2 0x2868 JUMPI DUP1 PUSH1 0x1F LT PUSH2 0x283D JUMPI PUSH2 0x100 DUP1 DUP4 SLOAD DIV MUL DUP4 MSTORE SWAP2 PUSH1 0x20 ADD SWAP2 PUSH2 0x2868 JUMP JUMPDEST DUP3 ADD SWAP2 SWAP1 PUSH1 0x0 MSTORE PUSH1 0x20 PUSH1 0x0 KECCAK256 SWAP1 JUMPDEST DUP2 SLOAD DUP2 MSTORE SWAP1 PUSH1 0x1 ADD SWAP1 PUSH1 0x20 ADD DUP1 DUP4 GT PUSH2 0x284B JUMPI DUP3 SWAP1 SUB PUSH1 0x1F AND DUP3 ADD SWAP2 JUMPDEST POP POP POP POP POP SWAP1 DUP1 PUSH1 0x2 ADD DUP1 SLOAD PUSH2 0x287D SWAP1 PUSH2 0x53AB JUMP JUMPDEST DUP1 PUSH1 0x1F ADD PUSH1 0x20 DUP1 SWAP2 DIV MUL PUSH1 0x20 ADD PUSH1 0x40 MLOAD SWAP1 DUP2 ADD PUSH1 0x40 MSTORE DUP1 SWAP3 SWAP2 SWAP1 DUP2 DUP2 MSTORE PUSH1 0x20 ADD DUP3 DUP1 SLOAD PUSH2 0x28A9 SWAP1 PUSH2 0x53AB JUMP JUMPDEST DUP1 ISZERO PUSH2 0x28F6 JUMPI DUP1 PUSH1 0x1F LT PUSH2 0x28CB JUMPI PUSH2 0x100 DUP1 DUP4 SLOAD DIV MUL DUP4 MSTORE SWAP2 PUSH1 0x20 ADD SWAP2 PUSH2 0x28F6 JUMP JUMPDEST DUP3 ADD SWAP2 SWAP1 PUSH1 0x0 MSTORE PUSH1 0x20 PUSH1 0x0 KECCAK256 SWAP1 JUMPDEST DUP2 SLOAD DUP2 MSTORE SWAP1 PUSH1 0x1 ADD SWAP1 PUSH1 0x20 ADD DUP1 DUP4 GT PUSH2 0x28D9 JUMPI DUP3 SWAP1 SUB PUSH1 0x1F AND DUP3 ADD SWAP2 JUMPDEST POP POP POP POP POP SWAP1 DUP1 PUSH1 0x3 ADD PUSH1 0x0 SWAP1 SLOAD SWAP1 PUSH2 0x100 EXP SWAP1 DIV PUSH20 0xFFFFFFFFFFFFFFFFFFFFFFFFFFFFFFFFFFFFFFFF AND SWAP1 POP DUP5 JUMP JUMPDEST PUSH1 0xA PUSH1 0x0 SWAP1 SLOAD SWAP1 PUSH2 0x100 EXP SWAP1 DIV PUSH20 0xFFFFFFFFFFFFFFFFFFFFFFFFFFFFFFFFFFFFFFFF AND PUSH20 0xFFFFFFFFFFFFFFFFFFFFFFFFFFFFFFFFFFFFFFFF AND CALLER PUSH20 0xFFFFFFFFFFFFFFFFFFFFFFFFFFFFFFFFFFFFFFFF AND EQ PUSH2 0x29B6 JUMPI PUSH1 0x40 MLOAD PUSH32 0x8C379A000000000000000000000000000000000000000000000000000000000 DUP2 MSTORE PUSH1 0x4 ADD PUSH2 0x29AD SWAP1 PUSH2 0x6093 JUMP JUMPDEST PUSH1 0x40 MLOAD DUP1 SWAP2 SUB SWAP1 REVERT JUMPDEST PUSH1 0x1 PUSH1 0x5 DUP2 GT ISZERO PUSH2 0x29CA JUMPI PUSH2 0x29C9 PUSH2 0x4885 JUMP JUMPDEST JUMPDEST PUSH1 0x0 DUP4 DUP4 PUSH1 0x40 MLOAD PUSH2 0x29DC SWAP3 SWAP2 SWAP1 PUSH2 0x4E18 JUMP JUMPDEST SWAP1 DUP2 MSTORE PUSH1 0x20 ADD PUSH1 0x40 MLOAD DUP1 SWAP2 SUB SWAP1 KECCAK256 PUSH1 0x8 ADD PUSH1 0x15 SWAP1 SLOAD SWAP1 PUSH2 0x100 EXP SWAP1 DIV PUSH1 0xFF AND PUSH1 0x5 DUP2 GT ISZERO PUSH2 0x2A0D JUMPI PUSH2 0x2A0C PUSH2 0x4885 JUMP JUMPDEST JUMPDEST EQ PUSH2 0x2A4D JUMPI PUSH1 0x40 MLOAD PUSH32 0x8C379A000000000000000000000000000000000000000000000000000000000 DUP2 MSTORE PUSH1 0x4 ADD PUSH2 0x2A44 SWAP1 PUSH2 0x52DF JUMP JUMPDEST PUSH1 0x40 MLOAD DUP1 SWAP2 SUB SWAP1 REVERT JUMPDEST PUSH1 0x3 PUSH1 0x0 DUP4 DUP4 PUSH1 0x40 MLOAD PUSH2 0x2A61 SWAP3 SWAP2 SWAP1 PUSH2 0x4E18 JUMP JUMPDEST SWAP1 DUP2 MSTORE PUSH1 0x20 ADD PUSH1 0x40 MLOAD DUP1 SWAP2 SUB SWAP1 KECCAK256 PUSH1 0x8 ADD PUSH1 0x15 PUSH2 0x100 EXP DUP2 SLOAD DUP2 PUSH1 0xFF MUL NOT AND SWAP1 DUP4 PUSH1 0x5 DUP2 GT ISZERO PUSH2 0x2A94 JUMPI PUSH2 0x2A93 PUSH2 0x4885 JUMP JUMPDEST JUMPDEST MUL OR SWAP1 SSTORE POP PUSH1 0x3 PUSH1 0x10 PUSH1 0x0 DUP5 DUP5 PUSH1 0x40 MLOAD PUSH2 0x2AAF SWAP3 SWAP2 SWAP1 PUSH2 0x4E18 JUMP JUMPDEST SWAP1 DUP2 MSTORE PUSH1 0x20 ADD PUSH1 0x40 MLOAD DUP1 SWAP2 SUB SWAP1 KECCAK256 PUSH1 0x7 ADD SLOAD DUP2 SLOAD DUP2 LT PUSH2 0x2AD2 JUMPI PUSH2 0x2AD1 PUSH2 0x4F51 JUMP JUMPDEST JUMPDEST SWAP1 PUSH1 0x0 MSTORE PUSH1 0x20 PUSH1 0x0 KECCAK256 SWAP1 PUSH1 0x9 MUL ADD PUSH1 0x8 ADD PUSH1 0x15 PUSH2 0x100 EXP DUP2 SLOAD DUP2 PUSH1 0xFF MUL NOT AND SWAP1 DUP4 PUSH1 0x5 DUP2 GT ISZERO PUSH2 0x2B05 JUMPI PUSH2 0x2B04 PUSH2 0x4885 JUMP JUMPDEST JUMPDEST MUL OR SWAP1 SSTORE POP PUSH32 0x735CCDD611541D36C82A3622BAAB7F58B8A0F5BE664555B0D9C95DDDE16096D3 DUP3 DUP3 PUSH1 0x40 MLOAD PUSH2 0x2B3B SWAP3 SWAP2 SWAP1 PUSH2 0x4E5E JUMP JUMPDEST PUSH1 0x40 MLOAD DUP1 SWAP2 SUB SWAP1 LOG1 POP POP JUMP JUMPDEST PUSH1 0xA PUSH1 0x0 SWAP1 SLOAD SWAP1 PUSH2 0x100 EXP SWAP1 DIV PUSH20 0xFFFFFFFFFFFFFFFFFFFFFFFFFFFFFFFFFFFFFFFF AND PUSH20 0xFFFFFFFFFFFFFFFFFFFFFFFFFFFFFFFFFFFFFFFF AND CALLER PUSH20 0xFFFFFFFFFFFFFFFFFFFFFFFFFFFFFFFFFFFFFFFF AND EQ PUSH2 0x2BD7 JUMPI PUSH1 0x40 MLOAD PUSH32 0x8C379A000000000000000000000000000000000000000000000000000000000 DUP2 MSTORE PUSH1 0x4 ADD PUSH2 0x2BCE SWAP1 PUSH2 0x6093 JUMP JUMPDEST PUSH1 0x40 MLOAD DUP1 SWAP2 SUB SWAP1 REVERT JUMPDEST PUSH1 0x0 PUSH20 0xFFFFFFFFFFFFFFFFFFFFFFFFFFFFFFFFFFFFFFFF AND DUP2 PUSH20 0xFFFFFFFFFFFFFFFFFFFFFFFFFFFFFFFFFFFFFFFF AND SUB PUSH2 0x2C46 JUMPI PUSH1 0x40 MLOAD PUSH32 0x8C379A000000000000000000000000000000000000000000000000000000000 DUP2 MSTORE PUSH1 0x4 ADD PUSH2 0x2C3D SWAP1 PUSH2 0x6442 JUMP JUMPDEST PUSH1 0x40 MLOAD DUP1 SWAP2 SUB SWAP1 REVERT JUMPDEST DUP1 PUSH1 0xD PUSH1 0x0 PUSH2 0x100 EXP DUP2 SLOAD DUP2 PUSH20 0xFFFFFFFFFFFFFFFFFFFFFFFFFFFFFFFFFFFFFFFF MUL NOT AND SWAP1 DUP4 PUSH20 0xFFFFFFFFFFFFFFFFFFFFFFFFFFFFFFFFFFFFFFFF AND MUL OR SWAP1 SSTORE POP POP JUMP JUMPDEST PUSH1 0xA PUSH1 0x0 SWAP1 SLOAD SWAP1 PUSH2 0x100 EXP SWAP1 DIV PUSH20 0xFFFFFFFFFFFFFFFFFFFFFFFFFFFFFFFFFFFFFFFF AND PUSH20 0xFFFFFFFFFFFFFFFFFFFFFFFFFFFFFFFFFFFFFFFF AND CALLER PUSH20 0xFFFFFFFFFFFFFFFFFFFFFFFFFFFFFFFFFFFFFFFF AND EQ PUSH2 0x2D1A JUMPI PUSH1 0x40 MLOAD PUSH32 0x8C379A000000000000000000000000000000000000000000000000000000000 DUP2 MSTORE PUSH1 0x4 ADD PUSH2 0x2D11 SWAP1 PUSH2 0x6093 JUMP JUMPDEST PUSH1 0x40 MLOAD DUP1 SWAP2 SUB SWAP1 REVERT JUMPDEST PUSH1 0x1 PUSH1 0x3 DUP2 GT ISZERO PUSH2 0x2D2E JUMPI PUSH2 0x2D2D PUSH2 0x4885 JUMP JUMPDEST JUMPDEST PUSH1 0x7 PUSH1 0x0 DUP4 PUSH20 0xFFFFFFFFFFFFFFFFFFFFFFFFFFFFFFFFFFFFFFFF AND PUSH20 0xFFFFFFFFFFFFFFFFFFFFFFFFFFFFFFFFFFFFFFFF AND DUP2 MSTORE PUSH1 0x20 ADD SWAP1 DUP2 MSTORE PUSH1 0x20 ADD PUSH1 0x0 KECCAK256 PUSH1 0x0 SWAP1 SLOAD SWAP1 PUSH2 0x100 EXP SWAP1 DIV PUSH1 0xFF AND PUSH1 0x3 DUP2 GT ISZERO PUSH2 0x2D8D JUMPI PUSH2 0x2D8C PUSH2 0x4885 JUMP JUMPDEST JUMPDEST EQ PUSH2 0x2DCD JUMPI PUSH1 0x40 MLOAD PUSH32 0x8C379A000000000000000000000000000000000000000000000000000000000 DUP2 MSTORE PUSH1 0x4 ADD PUSH2 0x2DC4 SWAP1 PUSH2 0x5F2E JUMP JUMPDEST PUSH1 0x40 MLOAD DUP1 SWAP2 SUB SWAP1 REVERT JUMPDEST PUSH1 0x2 PUSH1 0x7 PUSH1 0x0 DUP4 PUSH20 0xFFFFFFFFFFFFFFFFFFFFFFFFFFFFFFFFFFFFFFFF AND PUSH20 0xFFFFFFFFFFFFFFFFFFFFFFFFFFFFFFFFFFFFFFFF AND DUP2 MSTORE PUSH1 0x20 ADD SWAP1 DUP2 MSTORE PUSH1 0x20 ADD PUSH1 0x0 KECCAK256 PUSH1 0x0 PUSH2 0x100 EXP DUP2 SLOAD DUP2 PUSH1 0xFF MUL NOT AND SWAP1 DUP4 PUSH1 0x3 DUP2 GT ISZERO PUSH2 0x2E30 JUMPI PUSH2 0x2E2F PUSH2 0x4885 JUMP JUMPDEST JUMPDEST MUL OR SWAP1 SSTORE POP PUSH1 0xB PUSH1 0x0 SWAP1 SLOAD SWAP1 PUSH2 0x100 EXP SWAP1 DIV PUSH20 0xFFFFFFFFFFFFFFFFFFFFFFFFFFFFFFFFFFFFFFFF AND PUSH20 0xFFFFFFFFFFFFFFFFFFFFFFFFFFFFFFFFFFFFFFFF AND PUSH4 0xCFDE1890 DUP3 PUSH1 0x40 MLOAD DUP3 PUSH4 0xFFFFFFFF AND PUSH1 0xE0 SHL DUP2 MSTORE PUSH1 0x4 ADD PUSH2 0x2E90 SWAP2 SWAP1 PUSH2 0x64AE JUMP JUMPDEST PUSH1 0x0 PUSH1 0x40 MLOAD DUP1 DUP4 SUB DUP2 PUSH1 0x0 DUP8 DUP1 EXTCODESIZE ISZERO DUP1 ISZERO PUSH2 0x2EAA JUMPI PUSH1 0x0 DUP1 REVERT JUMPDEST POP GAS CALL ISZERO DUP1 ISZERO PUSH2 0x2EBE JUMPI RETURNDATASIZE PUSH1 0x0 DUP1 RETURNDATACOPY RETURNDATASIZE PUSH1 0x0 REVERT JUMPDEST POP POP POP POP PUSH32 0x45B6E306480B490C59801F6F851ED6D7D4BD880DB4C8F75DD1112D2FC0A1C9D7 DUP2 PUSH1 0x40 MLOAD PUSH2 0x2EF1 SWAP2 SWAP1 PUSH2 0x4364 JUMP JUMPDEST PUSH1 0x40 MLOAD DUP1 SWAP2 SUB SWAP1 LOG1 POP JUMP JUMPDEST PUSH1 0xA PUSH1 0x0 SWAP1 SLOAD SWAP1 PUSH2 0x100 EXP SWAP1 DIV PUSH20 0xFFFFFFFFFFFFFFFFFFFFFFFFFFFFFFFFFFFFFFFF AND DUP2 JUMP JUMPDEST PUSH1 0xA PUSH1 0x0 SWAP1 SLOAD SWAP1 PUSH2 0x100 EXP SWAP1 DIV PUSH20 0xFFFFFFFFFFFFFFFFFFFFFFFFFFFFFFFFFFFFFFFF AND PUSH20 0xFFFFFFFFFFFFFFFFFFFFFFFFFFFFFFFFFFFFFFFF AND CALLER PUSH20 0xFFFFFFFFFFFFFFFFFFFFFFFFFFFFFFFFFFFFFFFF AND EQ PUSH2 0x2FB2 JUMPI PUSH1 0x40 MLOAD PUSH32 0x8C379A000000000000000000000000000000000000000000000000000000000 DUP2 MSTORE PUSH1 0x4 ADD PUSH2 0x2FA9 SWAP1 PUSH2 0x6093 JUMP JUMPDEST PUSH1 0x40 MLOAD DUP1 SWAP2 SUB SWAP1 REVERT JUMPDEST PUSH1 0x1 PUSH1 0x3 DUP2 GT ISZERO PUSH2 0x2FC6 JUMPI PUSH2 0x2FC5 PUSH2 0x4885 JUMP JUMPDEST JUMPDEST PUSH1 0x6 PUSH1 0x0 DUP4 PUSH20 0xFFFFFFFFFFFFFFFFFFFFFFFFFFFFFFFFFFFFFFFF AND PUSH20 0xFFFFFFFFFFFFFFFFFFFFFFFFFFFFFFFFFFFFFFFF AND DUP2 MSTORE PUSH1 0x20 ADD SWAP1 DUP2 MSTORE PUSH1 0x20 ADD PUSH1 0x0 KECCAK256 PUSH1 0x0 SWAP1 SLOAD SWAP1 PUSH2 0x100 EXP SWAP1 DIV PUSH1 0xFF AND PUSH1 0x3 DUP2 GT ISZERO PUSH2 0x3025 JUMPI PUSH2 0x3024 PUSH2 0x4885 JUMP JUMPDEST JUMPDEST EQ PUSH2 0x3065 JUMPI PUSH1 0x40 MLOAD PUSH32 0x8C379A000000000000000000000000000000000000000000000000000000000 DUP2 MSTORE PUSH1 0x4 ADD PUSH2 0x305C SWAP1 PUSH2 0x5F2E JUMP JUMPDEST PUSH1 0x40 MLOAD DUP1 SWAP2 SUB SWAP1 REVERT JUMPDEST PUSH1 0x2 PUSH1 0x6 PUSH1 0x0 DUP4 PUSH20 0xFFFFFFFFFFFFFFFFFFFFFFFFFFFFFFFFFFFFFFFF AND PUSH20 0xFFFFFFFFFFFFFFFFFFFFFFFFFFFFFFFFFFFFFFFF AND DUP2 MSTORE PUSH1 0x20 ADD SWAP1 DUP2 MSTORE PUSH1 0x20 ADD PUSH1 0x0 KECCAK256 PUSH1 0x0 PUSH2 0x100 EXP DUP2 SLOAD DUP2 PUSH1 0xFF MUL NOT AND SWAP1 DUP4 PUSH1 0x3 DUP2 GT ISZERO PUSH2 0x30C8 JUMPI PUSH2 0x30C7 PUSH2 0x4885 JUMP JUMPDEST JUMPDEST MUL OR SWAP1 SSTORE POP PUSH1 0xB PUSH1 0x0 SWAP1 SLOAD SWAP1 PUSH2 0x100 EXP SWAP1 DIV PUSH20 0xFFFFFFFFFFFFFFFFFFFFFFFFFFFFFFFFFFFFFFFF AND PUSH20 0xFFFFFFFFFFFFFFFFFFFFFFFFFFFFFFFFFFFFFFFF AND PUSH4 0xCFDE1890 DUP3 PUSH1 0x40 MLOAD DUP3 PUSH4 0xFFFFFFFF AND PUSH1 0xE0 SHL DUP2 MSTORE PUSH1 0x4 ADD PUSH2 0x3128 SWAP2 SWAP1 PUSH2 0x6528 JUMP JUMPDEST PUSH1 0x0 PUSH1 0x40 MLOAD DUP1 DUP4 SUB DUP2 PUSH1 0x0 DUP8 DUP1 EXTCODESIZE ISZERO DUP1 ISZERO PUSH2 0x3142 JUMPI PUSH1 0x0 DUP1 REVERT JUMPDEST POP GAS CALL ISZERO DUP1 ISZERO PUSH2 0x3156 JUMPI RETURNDATASIZE PUSH1 0x0 DUP1 RETURNDATACOPY RETURNDATASIZE PUSH1 0x0 REVERT JUMPDEST POP POP POP POP PUSH32 0xE387C88130575BF91CADF15934854A1ED11D5C16D63F1106B6FD6E139D1202E DUP2 PUSH1 0x40 MLOAD PUSH2 0x3189 SWAP2 SWAP1 PUSH2 0x4364 JUMP JUMPDEST PUSH1 0x40 MLOAD DUP1 SWAP2 SUB SWAP1 LOG1 POP JUMP JUMPDEST PUSH1 0x0 DUP2 DUP1 MLOAD PUSH1 0x20 DUP2 ADD DUP3 ADD DUP1 MLOAD DUP5 DUP3 MSTORE PUSH1 0x20 DUP4 ADD PUSH1 0x20 DUP6 ADD KECCAK256 DUP2 DUP4 MSTORE DUP1 SWAP6 POP POP POP POP POP POP PUSH1 0x0 SWAP2 POP SWAP1 POP DUP1 PUSH1 0x0 ADD DUP1 SLOAD PUSH2 0x31CD SWAP1 PUSH2 0x53AB JUMP JUMPDEST DUP1 PUSH1 0x1F ADD PUSH1 0x20 DUP1 SWAP2 DIV MUL PUSH1 0x20 ADD PUSH1 0x40 MLOAD SWAP1 DUP2 ADD PUSH1 0x40 MSTORE DUP1 SWAP3 SWAP2 SWAP1 DUP2 DUP2 MSTORE PUSH1 0x20 ADD DUP3 DUP1 SLOAD PUSH2 0x31F9 SWAP1 PUSH2 0x53AB JUMP JUMPDEST DUP1 ISZERO PUSH2 0x3246 JUMPI DUP1 PUSH1 0x1F LT PUSH2 0x321B JUMPI PUSH2 0x100 DUP1 DUP4 SLOAD DIV MUL DUP4 MSTORE SWAP2 PUSH1 0x20 ADD SWAP2 PUSH2 0x3246 JUMP JUMPDEST DUP3 ADD SWAP2 SWAP1 PUSH1 0x0 MSTORE PUSH1 0x20 PUSH1 0x0 KECCAK256 SWAP1 JUMPDEST DUP2 SLOAD DUP2 MSTORE SWAP1 PUSH1 0x1 ADD SWAP1 PUSH1 0x20 ADD DUP1 DUP4 GT PUSH2 0x3229 JUMPI DUP3 SWAP1 SUB PUSH1 0x1F AND DUP3 ADD SWAP2 JUMPDEST POP POP POP POP POP SWAP1 DUP1 PUSH1 0x1 ADD DUP1 SLOAD PUSH2 0x325B SWAP1 PUSH2 0x53AB JUMP JUMPDEST DUP1 PUSH1 0x1F ADD PUSH1 0x20 DUP1 SWAP2 DIV MUL PUSH1 0x20 ADD PUSH1 0x40 MLOAD SWAP1 DUP2 ADD PUSH1 0x40 MSTORE DUP1 SWAP3 SWAP2 SWAP1 DUP2 DUP2 MSTORE PUSH1 0x20 ADD DUP3 DUP1 SLOAD PUSH2 0x3287 SWAP1 PUSH2 0x53AB JUMP JUMPDEST DUP1 ISZERO PUSH2 0x32D4 JUMPI DUP1 PUSH1 0x1F LT PUSH2 0x32A9 JUMPI PUSH2 0x100 DUP1 DUP4 SLOAD DIV MUL DUP4 MSTORE SWAP2 PUSH1 0x20 ADD SWAP2 PUSH2 0x32D4 JUMP JUMPDEST DUP3 ADD SWAP2 SWAP1 PUSH1 0x0 MSTORE PUSH1 0x20 PUSH1 0x0 KECCAK256 SWAP1 JUMPDEST DUP2 SLOAD DUP2 MSTORE SWAP1 PUSH1 0x1 ADD SWAP1 PUSH1 0x20 ADD DUP1 DUP4 GT PUSH2 0x32B7 JUMPI DUP3 SWAP1 SUB PUSH1 0x1F AND DUP3 ADD SWAP2 JUMPDEST POP POP POP POP POP SWAP1 DUP1 PUSH1 0x2 ADD PUSH1 0x0 SWAP1 SLOAD SWAP1 PUSH2 0x100 EXP SWAP1 DIV PUSH20 0xFFFFFFFFFFFFFFFFFFFFFFFFFFFFFFFFFFFFFFFF AND SWAP1 DUP1 PUSH1 0x3 ADD SLOAD SWAP1 DUP1 PUSH1 0x4 ADD SLOAD SWAP1 DUP1 PUSH1 0x5 ADD SLOAD SWAP1 DUP1 PUSH1 0x6 ADD SLOAD SWAP1 DUP1 PUSH1 0x7 ADD SLOAD SWAP1 DUP1 PUSH1 0x8 ADD PUSH1 0x0 SWAP1 SLOAD SWAP1 PUSH2 0x100 EXP SWAP1 DIV PUSH20 0xFFFFFFFFFFFFFFFFFFFFFFFFFFFFFFFFFFFFFFFF AND SWAP1 DUP1 PUSH1 0x8 ADD PUSH1 0x14 SWAP1 SLOAD SWAP1 PUSH2 0x100 EXP SWAP1 DIV PUSH1 0xFF AND SWAP1 DUP1 PUSH1 0x8 ADD PUSH1 0x15 SWAP1 SLOAD SWAP1 PUSH2 0x100 EXP SWAP1 DIV PUSH1 0xFF AND SWAP1 POP DUP12 JUMP JUMPDEST PUSH1 0xE SLOAD DUP2 JUMP JUMPDEST PUSH1 0xA PUSH1 0x0 SWAP1 SLOAD SWAP1 PUSH2 0x100 EXP SWAP1 DIV PUSH20 0xFFFFFFFFFFFFFFFFFFFFFFFFFFFFFFFFFFFFFFFF AND PUSH20 0xFFFFFFFFFFFFFFFFFFFFFFFFFFFFFFFFFFFFFFFF AND CALLER PUSH20 0xFFFFFFFFFFFFFFFFFFFFFFFFFFFFFFFFFFFFFFFF AND EQ PUSH2 0x3404 JUMPI PUSH1 0x40 MLOAD PUSH32 0x8C379A000000000000000000000000000000000000000000000000000000000 DUP2 MSTORE PUSH1 0x4 ADD PUSH2 0x33FB SWAP1 PUSH2 0x6093 JUMP JUMPDEST PUSH1 0x40 MLOAD DUP1 SWAP2 SUB SWAP1 REVERT JUMPDEST PUSH1 0x1 PUSH1 0x3 DUP2 GT ISZERO PUSH2 0x3418 JUMPI PUSH2 0x3417 PUSH2 0x4885 JUMP JUMPDEST JUMPDEST PUSH1 0x6 PUSH1 0x0 DUP4 PUSH20 0xFFFFFFFFFFFFFFFFFFFFFFFFFFFFFFFFFFFFFFFF AND PUSH20 0xFFFFFFFFFFFFFFFFFFFFFFFFFFFFFFFFFFFFFFFF AND DUP2 MSTORE PUSH1 0x20 ADD SWAP1 DUP2 MSTORE PUSH1 0x20 ADD PUSH1 0x0 KECCAK256 PUSH1 0x0 SWAP1 SLOAD SWAP1 PUSH2 0x100 EXP SWAP1 DIV PUSH1 0xFF AND PUSH1 0x3 DUP2 GT ISZERO PUSH2 0x3477 JUMPI PUSH2 0x3476 PUSH2 0x4885 JUMP JUMPDEST JUMPDEST EQ PUSH2 0x34B7 JUMPI PUSH1 0x40 MLOAD PUSH32 0x8C379A000000000000000000000000000000000000000000000000000000000 DUP2 MSTORE PUSH1 0x4 ADD PUSH2 0x34AE SWAP1 PUSH2 0x5F2E JUMP JUMPDEST PUSH1 0x40 MLOAD DUP1 SWAP2 SUB SWAP1 REVERT JUMPDEST PUSH1 0x3 PUSH1 0x6 PUSH1 0x0 DUP4 PUSH20 0xFFFFFFFFFFFFFFFFFFFFFFFFFFFFFFFFFFFFFFFF AND PUSH20 0xFFFFFFFFFFFFFFFFFFFFFFFFFFFFFFFFFFFFFFFF AND DUP2 MSTORE PUSH1 0x20 ADD SWAP1 DUP2 MSTORE PUSH1 0x20 ADD PUSH1 0x0 KECCAK256 PUSH1 0x0 PUSH2 0x100 EXP DUP2 SLOAD DUP2 PUSH1 0xFF MUL NOT AND SWAP1 DUP4 PUSH1 0x3 DUP2 GT ISZERO PUSH2 0x351A JUMPI PUSH2 0x3519 PUSH2 0x4885 JUMP JUMPDEST JUMPDEST MUL OR SWAP1 SSTORE POP PUSH32 0xE341AB2EF130AE159F5F54C8BE96A79FFE8F98948AA6D0E1BDEB60E6201ADA2A DUP2 PUSH1 0x40 MLOAD PUSH2 0x354E SWAP2 SWAP1 PUSH2 0x4364 JUMP JUMPDEST PUSH1 0x40 MLOAD DUP1 SWAP2 SUB SWAP1 LOG1 POP JUMP JUMPDEST PUSH1 0x60 PUSH1 0x4 DUP4 DUP4 PUSH1 0x40 MLOAD PUSH2 0x356D SWAP3 SWAP2 SWAP1 PUSH2 0x4E18 JUMP JUMPDEST SWAP1 DUP2 MSTORE PUSH1 0x20 ADD PUSH1 0x40 MLOAD DUP1 SWAP2 SUB SWAP1 KECCAK256 DUP1 SLOAD DUP1 PUSH1 0x20 MUL PUSH1 0x20 ADD PUSH1 0x40 MLOAD SWAP1 DUP2 ADD PUSH1 0x40 MSTORE DUP1 SWAP3 SWAP2 SWAP1 DUP2 DUP2 MSTORE PUSH1 0x20 ADD PUSH1 0x0 SWAP1 JUMPDEST DUP3 DUP3 LT ISZERO PUSH2 0x362D JUMPI DUP4 DUP3 SWAP1 PUSH1 0x0 MSTORE PUSH1 0x20 PUSH1 0x0 KECCAK256 SWAP1 PUSH1 0x2 MUL ADD PUSH1 0x40 MLOAD DUP1 PUSH1 0x40 ADD PUSH1 0x40 MSTORE SWAP1 DUP2 PUSH1 0x0 DUP3 ADD PUSH1 0x0 SWAP1 SLOAD SWAP1 PUSH2 0x100 EXP SWAP1 DIV PUSH20 0xFFFFFFFFFFFFFFFFFFFFFFFFFFFFFFFFFFFFFFFF AND PUSH20 0xFFFFFFFFFFFFFFFFFFFFFFFFFFFFFFFFFFFFFFFF AND PUSH20 0xFFFFFFFFFFFFFFFFFFFFFFFFFFFFFFFFFFFFFFFF AND DUP2 MSTORE PUSH1 0x20 ADD PUSH1 0x1 DUP3 ADD SLOAD DUP2 MSTORE POP POP DUP2 MSTORE PUSH1 0x20 ADD SWAP1 PUSH1 0x1 ADD SWAP1 PUSH2 0x359B JUMP JUMPDEST POP POP POP POP SWAP1 POP SWAP3 SWAP2 POP POP JUMP JUMPDEST PUSH1 0xB PUSH1 0x0 SWAP1 SLOAD SWAP1 PUSH2 0x100 EXP SWAP1 DIV PUSH20 0xFFFFFFFFFFFFFFFFFFFFFFFFFFFFFFFFFFFFFFFF AND DUP2 JUMP JUMPDEST PUSH1 0xA PUSH1 0x0 SWAP1 SLOAD SWAP1 PUSH2 0x100 EXP SWAP1 DIV PUSH20 0xFFFFFFFFFFFFFFFFFFFFFFFFFFFFFFFFFFFFFFFF AND PUSH20 0xFFFFFFFFFFFFFFFFFFFFFFFFFFFFFFFFFFFFFFFF AND CALLER PUSH20 0xFFFFFFFFFFFFFFFFFFFFFFFFFFFFFFFFFFFFFFFF AND EQ PUSH2 0x36EF JUMPI PUSH1 0x40 MLOAD PUSH32 0x8C379A000000000000000000000000000000000000000000000000000000000 DUP2 MSTORE PUSH1 0x4 ADD PUSH2 0x36E6 SWAP1 PUSH2 0x6093 JUMP JUMPDEST PUSH1 0x40 MLOAD DUP1 SWAP2 SUB SWAP1 REVERT JUMPDEST PUSH1 0xB PUSH1 0x0 SWAP1 SLOAD SWAP1 PUSH2 0x100 EXP SWAP1 DIV PUSH20 0xFFFFFFFFFFFFFFFFFFFFFFFFFFFFFFFFFFFFFFFF AND PUSH20 0xFFFFFFFFFFFFFFFFFFFFFFFFFFFFFFFFFFFFFFFF AND PUSH4 0xCFDE1890 DUP3 PUSH1 0x40 MLOAD DUP3 PUSH4 0xFFFFFFFF AND PUSH1 0xE0 SHL DUP2 MSTORE PUSH1 0x4 ADD PUSH2 0x374A SWAP2 SWAP1 PUSH2 0x65A2 JUMP JUMPDEST PUSH1 0x0 PUSH1 0x40 MLOAD DUP1 DUP4 SUB DUP2 PUSH1 0x0 DUP8 DUP1 EXTCODESIZE ISZERO DUP1 ISZERO PUSH2 0x3764 JUMPI PUSH1 0x0 DUP1 REVERT JUMPDEST POP GAS CALL ISZERO DUP1 ISZERO PUSH2 0x3778 JUMPI RETURNDATASIZE PUSH1 0x0 DUP1 RETURNDATACOPY RETURNDATASIZE PUSH1 0x0 REVERT JUMPDEST POP POP POP POP POP JUMP JUMPDEST PUSH1 0xA PUSH1 0x0 SWAP1 SLOAD SWAP1 PUSH2 0x100 EXP SWAP1 DIV PUSH20 0xFFFFFFFFFFFFFFFFFFFFFFFFFFFFFFFFFFFFFFFF AND PUSH20 0xFFFFFFFFFFFFFFFFFFFFFFFFFFFFFFFFFFFFFFFF AND CALLER PUSH20 0xFFFFFFFFFFFFFFFFFFFFFFFFFFFFFFFFFFFFFFFF AND EQ PUSH2 0x380F JUMPI PUSH1 0x40 MLOAD PUSH32 0x8C379A000000000000000000000000000000000000000000000000000000000 DUP2 MSTORE PUSH1 0x4 ADD PUSH2 0x3806 SWAP1 PUSH2 0x6093 JUMP JUMPDEST PUSH1 0x40 MLOAD DUP1 SWAP2 SUB SWAP1 REVERT JUMPDEST PUSH1 0x1 PUSH1 0x3 DUP2 GT ISZERO PUSH2 0x3823 JUMPI PUSH2 0x3822 PUSH2 0x4885 JUMP JUMPDEST JUMPDEST PUSH1 0x7 PUSH1 0x0 DUP4 PUSH20 0xFFFFFFFFFFFFFFFFFFFFFFFFFFFFFFFFFFFFFFFF AND PUSH20 0xFFFFFFFFFFFFFFFFFFFFFFFFFFFFFFFFFFFFFFFF AND DUP2 MSTORE PUSH1 0x20 ADD SWAP1 DUP2 MSTORE PUSH1 0x20 ADD PUSH1 0x0 KECCAK256 PUSH1 0x0 SWAP1 SLOAD SWAP1 PUSH2 0x100 EXP SWAP1 DIV PUSH1 0xFF AND PUSH1 0x3 DUP2 GT ISZERO PUSH2 0x3882 JUMPI PUSH2 0x3881 PUSH2 0x4885 JUMP JUMPDEST JUMPDEST EQ PUSH2 0x38C2 JUMPI PUSH1 0x40 MLOAD PUSH32 0x8C379A000000000000000000000000000000000000000000000000000000000 DUP2 MSTORE PUSH1 0x4 ADD PUSH2 0x38B9 SWAP1 PUSH2 0x5F2E JUMP JUMPDEST PUSH1 0x40 MLOAD DUP1 SWAP2 SUB SWAP1 REVERT JUMPDEST PUSH1 0x3 PUSH1 0x7 PUSH1 0x0 DUP4 PUSH20 0xFFFFFFFFFFFFFFFFFFFFFFFFFFFFFFFFFFFFFFFF AND PUSH20 0xFFFFFFFFFFFFFFFFFFFFFFFFFFFFFFFFFFFFFFFF AND DUP2 MSTORE PUSH1 0x20 ADD SWAP1 DUP2 MSTORE PUSH1 0x20 ADD PUSH1 0x0 KECCAK256 PUSH1 0x0 PUSH2 0x100 EXP DUP2 SLOAD DUP2 PUSH1 0xFF MUL NOT AND SWAP1 DUP4 PUSH1 0x3 DUP2 GT ISZERO PUSH2 0x3925 JUMPI PUSH2 0x3924 PUSH2 0x4885 JUMP JUMPDEST JUMPDEST MUL OR SWAP1 SSTORE POP PUSH32 0x7456CE1C99EE8A1B09F67C52BE737A92DB545EC137E72DE0E1B70BC0C4A12809 DUP2 PUSH1 0x40 MLOAD PUSH2 0x3959 SWAP2 SWAP1 PUSH2 0x4364 JUMP JUMPDEST PUSH1 0x40 MLOAD DUP1 SWAP2 SUB SWAP1 LOG1 POP JUMP JUMPDEST DUP1 PUSH1 0x60 ADD PUSH1 0x20 DUP2 ADD SWAP1 PUSH2 0x3977 SWAP2 SWAP1 PUSH2 0x45B1 JUMP JUMPDEST PUSH1 0xC PUSH1 0x0 SWAP1 SLOAD SWAP1 PUSH2 0x100 EXP SWAP1 DIV PUSH20 0xFFFFFFFFFFFFFFFFFFFFFFFFFFFFFFFFFFFFFFFF AND PUSH20 0xFFFFFFFFFFFFFFFFFFFFFFFFFFFFFFFFFFFFFFFF AND PUSH4 0xB9209E33 DUP3 PUSH1 0x40 MLOAD DUP3 PUSH4 0xFFFFFFFF AND PUSH1 0xE0 SHL DUP2 MSTORE PUSH1 0x4 ADD PUSH2 0x39D2 SWAP2 SWAP1 PUSH2 0x4364 JUMP JUMPDEST PUSH1 0x20 PUSH1 0x40 MLOAD DUP1 DUP4 SUB DUP2 DUP7 GAS STATICCALL ISZERO DUP1 ISZERO PUSH2 0x39EF JUMPI RETURNDATASIZE PUSH1 0x0 DUP1 RETURNDATACOPY RETURNDATASIZE PUSH1 0x0 REVERT JUMPDEST POP POP POP POP PUSH1 0x40 MLOAD RETURNDATASIZE PUSH1 0x1F NOT PUSH1 0x1F DUP3 ADD AND DUP3 ADD DUP1 PUSH1 0x40 MSTORE POP DUP2 ADD SWAP1 PUSH2 0x3A13 SWAP2 SWAP1 PUSH2 0x4D4F JUMP JUMPDEST PUSH2 0x3A52 JUMPI PUSH1 0x40 MLOAD PUSH32 0x8C379A000000000000000000000000000000000000000000000000000000000 DUP2 MSTORE PUSH1 0x4 ADD PUSH2 0x3A49 SWAP1 PUSH2 0x4DC8 JUMP JUMPDEST PUSH1 0x40 MLOAD DUP1 SWAP2 SUB SWAP1 REVERT JUMPDEST DUP2 PUSH1 0x60 ADD PUSH1 0x20 DUP2 ADD SWAP1 PUSH2 0x3A65 SWAP2 SWAP1 PUSH2 0x45B1 JUMP JUMPDEST PUSH20 0xFFFFFFFFFFFFFFFFFFFFFFFFFFFFFFFFFFFFFFFF AND CALLER PUSH20 0xFFFFFFFFFFFFFFFFFFFFFFFFFFFFFFFFFFFFFFFF AND EQ PUSH2 0x3AD2 JUMPI PUSH1 0x40 MLOAD PUSH32 0x8C379A000000000000000000000000000000000000000000000000000000000 DUP2 MSTORE PUSH1 0x4 ADD PUSH2 0x3AC9 SWAP1 PUSH2 0x5EC2 JUMP JUMPDEST PUSH1 0x40 MLOAD DUP1 SWAP2 SUB SWAP1 REVERT JUMPDEST PUSH1 0x0 PUSH1 0x3 DUP2 GT ISZERO PUSH2 0x3AE6 JUMPI PUSH2 0x3AE5 PUSH2 0x4885 JUMP JUMPDEST JUMPDEST PUSH1 0x7 PUSH1 0x0 CALLER PUSH20 0xFFFFFFFFFFFFFFFFFFFFFFFFFFFFFFFFFFFFFFFF AND PUSH20 0xFFFFFFFFFFFFFFFFFFFFFFFFFFFFFFFFFFFFFFFF AND DUP2 MSTORE PUSH1 0x20 ADD SWAP1 DUP2 MSTORE PUSH1 0x20 ADD PUSH1 0x0 KECCAK256 PUSH1 0x0 SWAP1 SLOAD SWAP1 PUSH2 0x100 EXP SWAP1 DIV PUSH1 0xFF AND PUSH1 0x3 DUP2 GT ISZERO PUSH2 0x3B45 JUMPI PUSH2 0x3B44 PUSH2 0x4885 JUMP JUMPDEST JUMPDEST EQ PUSH2 0x3B85 JUMPI PUSH1 0x40 MLOAD PUSH32 0x8C379A000000000000000000000000000000000000000000000000000000000 DUP2 MSTORE PUSH1 0x4 ADD PUSH2 0x3B7C SWAP1 PUSH2 0x5F2E JUMP JUMPDEST PUSH1 0x40 MLOAD DUP1 SWAP2 SUB SWAP1 REVERT JUMPDEST DUP2 PUSH1 0x2 PUSH1 0x0 DUP5 PUSH1 0x60 ADD PUSH1 0x20 DUP2 ADD SWAP1 PUSH2 0x3B9D SWAP2 SWAP1 PUSH2 0x45B1 JUMP JUMPDEST PUSH20 0xFFFFFFFFFFFFFFFFFFFFFFFFFFFFFFFFFFFFFFFF AND PUSH20 0xFFFFFFFFFFFFFFFFFFFFFFFFFFFFFFFFFFFFFFFF AND DUP2 MSTORE PUSH1 0x20 ADD SWAP1 DUP2 MSTORE PUSH1 0x20 ADD PUSH1 0x0 KECCAK256 DUP2 DUP2 PUSH2 0x3BE3 SWAP2 SWAP1 PUSH2 0x6658 JUMP JUMPDEST SWAP1 POP POP PUSH1 0x1 PUSH1 0x7 PUSH1 0x0 CALLER PUSH20 0xFFFFFFFFFFFFFFFFFFFFFFFFFFFFFFFFFFFFFFFF AND PUSH20 0xFFFFFFFFFFFFFFFFFFFFFFFFFFFFFFFFFFFFFFFF AND DUP2 MSTORE PUSH1 0x20 ADD SWAP1 DUP2 MSTORE PUSH1 0x20 ADD PUSH1 0x0 KECCAK256 PUSH1 0x0 PUSH2 0x100 EXP DUP2 SLOAD DUP2 PUSH1 0xFF MUL NOT AND SWAP1 DUP4 PUSH1 0x3 DUP2 GT ISZERO PUSH2 0x3C49 JUMPI PUSH2 0x3C48 PUSH2 0x4885 JUMP JUMPDEST JUMPDEST MUL OR SWAP1 SSTORE POP PUSH32 0xE42136CCC1D423B080E7FA005AA542F4BC344C1E5420E3C313FBE9CE0077AD54 DUP3 PUSH1 0x60 ADD PUSH1 0x20 DUP2 ADD SWAP1 PUSH2 0x3C82 SWAP2 SWAP1 PUSH2 0x45B1 JUMP JUMPDEST PUSH1 0x40 MLOAD PUSH2 0x3C8F SWAP2 SWAP1 PUSH2 0x4364 JUMP JUMPDEST PUSH1 0x40 MLOAD DUP1 SWAP2 SUB SWAP1 LOG1 POP POP JUMP JUMPDEST PUSH1 0xA PUSH1 0x0 SWAP1 SLOAD SWAP1 PUSH2 0x100 EXP SWAP1 DIV PUSH20 0xFFFFFFFFFFFFFFFFFFFFFFFFFFFFFFFFFFFFFFFF AND PUSH20 0xFFFFFFFFFFFFFFFFFFFFFFFFFFFFFFFFFFFFFFFF AND CALLER PUSH20 0xFFFFFFFFFFFFFFFFFFFFFFFFFFFFFFFFFFFFFFFF AND EQ PUSH2 0x3D2B JUMPI PUSH1 0x40 MLOAD PUSH32 0x8C379A000000000000000000000000000000000000000000000000000000000 DUP2 MSTORE PUSH1 0x4 ADD PUSH2 0x3D22 SWAP1 PUSH2 0x6093 JUMP JUMPDEST PUSH1 0x40 MLOAD DUP1 SWAP2 SUB SWAP1 REVERT JUMPDEST PUSH1 0x4 PUSH1 0x5 DUP2 GT ISZERO PUSH2 0x3D3F JUMPI PUSH2 0x3D3E PUSH2 0x4885 JUMP JUMPDEST JUMPDEST PUSH1 0x0 DUP5 DUP5 PUSH1 0x40 MLOAD PUSH2 0x3D51 SWAP3 SWAP2 SWAP1 PUSH2 0x4E18 JUMP JUMPDEST SWAP1 DUP2 MSTORE PUSH1 0x20 ADD PUSH1 0x40 MLOAD DUP1 SWAP2 SUB SWAP1 KECCAK256 PUSH1 0x8 ADD PUSH1 0x15 SWAP1 SLOAD SWAP1 PUSH2 0x100 EXP SWAP1 DIV PUSH1 0xFF AND PUSH1 0x5 DUP2 GT ISZERO PUSH2 0x3D82 JUMPI PUSH2 0x3D81 PUSH2 0x4885 JUMP JUMPDEST JUMPDEST EQ PUSH2 0x3DC6 JUMPI DUP3 DUP3 PUSH1 0x40 MLOAD PUSH32 0xB716508400000000000000000000000000000000000000000000000000000000 DUP2 MSTORE PUSH1 0x4 ADD PUSH2 0x3DBD SWAP3 SWAP2 SWAP1 PUSH2 0x4E5E JUMP JUMPDEST PUSH1 0x40 MLOAD DUP1 SWAP2 SUB SWAP1 REVERT JUMPDEST PUSH1 0x5 DUP1 DUP2 GT ISZERO PUSH2 0x3DD9 JUMPI PUSH2 0x3DD8 PUSH2 0x4885 JUMP JUMPDEST JUMPDEST PUSH1 0x0 DUP5 DUP5 PUSH1 0x40 MLOAD PUSH2 0x3DEB SWAP3 SWAP2 SWAP1 PUSH2 0x4E18 JUMP JUMPDEST SWAP1 DUP2 MSTORE PUSH1 0x20 ADD PUSH1 0x40 MLOAD DUP1 SWAP2 SUB SWAP1 KECCAK256 PUSH1 0x8 ADD PUSH1 0x15 SWAP1 SLOAD SWAP1 PUSH2 0x100 EXP SWAP1 DIV PUSH1 0xFF AND PUSH1 0x5 DUP2 GT ISZERO PUSH2 0x3E1C JUMPI PUSH2 0x3E1B PUSH2 0x4885 JUMP JUMPDEST JUMPDEST POP POP PUSH1 0x5 PUSH1 0x10 PUSH1 0x0 DUP6 DUP6 PUSH1 0x40 MLOAD PUSH2 0x3E34 SWAP3 SWAP2 SWAP1 PUSH2 0x4E18 JUMP JUMPDEST SWAP1 DUP2 MSTORE PUSH1 0x20 ADD PUSH1 0x40 MLOAD DUP1 SWAP2 SUB SWAP1 KECCAK256 PUSH1 0x7 ADD SLOAD DUP2 SLOAD DUP2 LT PUSH2 0x3E57 JUMPI PUSH2 0x3E56 PUSH2 0x4F51 JUMP JUMPDEST JUMPDEST SWAP1 PUSH1 0x0 MSTORE PUSH1 0x20 PUSH1 0x0 KECCAK256 SWAP1 PUSH1 0x9 MUL ADD PUSH1 0x8 ADD PUSH1 0x15 PUSH2 0x100 EXP DUP2 SLOAD DUP2 PUSH1 0xFF MUL NOT AND SWAP1 DUP4 PUSH1 0x5 DUP2 GT ISZERO PUSH2 0x3E8A JUMPI PUSH2 0x3E89 PUSH2 0x4885 JUMP JUMPDEST JUMPDEST MUL OR SWAP1 SSTORE POP PUSH1 0x5 PUSH1 0x9 PUSH1 0x0 DUP1 DUP7 DUP7 PUSH1 0x40 MLOAD PUSH2 0x3EA6 SWAP3 SWAP2 SWAP1 PUSH2 0x4E18 JUMP JUMPDEST SWAP1 DUP2 MSTORE PUSH1 0x20 ADD PUSH1 0x40 MLOAD DUP1 SWAP2 SUB SWAP1 KECCAK256 PUSH1 0x2 ADD PUSH1 0x0 SWAP1 SLOAD SWAP1 PUSH2 0x100 EXP SWAP1 DIV PUSH20 0xFFFFFFFFFFFFFFFFFFFFFFFFFFFFFFFFFFFFFFFF AND PUSH20 0xFFFFFFFFFFFFFFFFFFFFFFFFFFFFFFFFFFFFFFFF AND PUSH20 0xFFFFFFFFFFFFFFFFFFFFFFFFFFFFFFFFFFFFFFFF AND DUP2 MSTORE PUSH1 0x20 ADD SWAP1 DUP2 MSTORE PUSH1 0x20 ADD PUSH1 0x0 KECCAK256 PUSH1 0x0 DUP6 DUP6 PUSH1 0x40 MLOAD PUSH2 0x3F24 SWAP3 SWAP2 SWAP1 PUSH2 0x4E18 JUMP JUMPDEST SWAP1 DUP2 MSTORE PUSH1 0x20 ADD PUSH1 0x40 MLOAD DUP1 SWAP2 SUB SWAP1 KECCAK256 PUSH1 0x7 ADD SLOAD DUP2 SLOAD DUP2 LT PUSH2 0x3F47 JUMPI PUSH2 0x3F46 PUSH2 0x4F51 JUMP JUMPDEST JUMPDEST SWAP1 PUSH1 0x0 MSTORE PUSH1 0x20 PUSH1 0x0 KECCAK256 SWAP1 PUSH1 0x9 MUL ADD PUSH1 0x8 ADD PUSH1 0x15 PUSH2 0x100 EXP DUP2 SLOAD DUP2 PUSH1 0xFF MUL NOT AND SWAP1 DUP4 PUSH1 0x5 DUP2 GT ISZERO PUSH2 0x3F7A JUMPI PUSH2 0x3F79 PUSH2 0x4885 JUMP JUMPDEST JUMPDEST MUL OR SWAP1 SSTORE POP DUP1 PUSH20 0xFFFFFFFFFFFFFFFFFFFFFFFFFFFFFFFFFFFFFFFF AND PUSH4 0xBE040FB0 PUSH1 0x40 MLOAD DUP2 PUSH4 0xFFFFFFFF AND PUSH1 0xE0 SHL DUP2 MSTORE PUSH1 0x4 ADD PUSH1 0x0 PUSH1 0x40 MLOAD DUP1 DUP4 SUB DUP2 PUSH1 0x0 DUP8 DUP1 EXTCODESIZE ISZERO DUP1 ISZERO PUSH2 0x3FC7 JUMPI PUSH1 0x0 DUP1 REVERT JUMPDEST POP GAS CALL ISZERO DUP1 ISZERO PUSH2 0x3FDB JUMPI RETURNDATASIZE PUSH1 0x0 DUP1 RETURNDATACOPY RETURNDATASIZE PUSH1 0x0 REVERT JUMPDEST POP POP POP POP PUSH32 0xDFDF42FF0D0EB3E6EC5B40D8CF21FB2F7102B67E5E2D56AB36E817F807213C5B DUP4 DUP4 PUSH1 0x40 MLOAD PUSH2 0x4010 SWAP3 SWAP2 SWAP1 PUSH2 0x4E5E JUMP JUMPDEST PUSH1 0x40 MLOAD DUP1 SWAP2 SUB SWAP1 LOG1 POP POP POP JUMP JUMPDEST PUSH1 0x7 PUSH1 0x20 MSTORE DUP1 PUSH1 0x0 MSTORE PUSH1 0x40 PUSH1 0x0 KECCAK256 PUSH1 0x0 SWAP2 POP SLOAD SWAP1 PUSH2 0x100 EXP SWAP1 DIV PUSH1 0xFF AND DUP2 JUMP JUMPDEST PUSH1 0xD PUSH1 0x0 SWAP1 SLOAD SWAP1 PUSH2 0x100 EXP SWAP1 DIV PUSH20 0xFFFFFFFFFFFFFFFFFFFFFFFFFFFFFFFFFFFFFFFF AND DUP2 JUMP JUMPDEST PUSH1 0x6 PUSH1 0x20 MSTORE DUP1 PUSH1 0x0 MSTORE PUSH1 0x40 PUSH1 0x0 KECCAK256 PUSH1 0x0 SWAP2 POP SLOAD SWAP1 PUSH2 0x100 EXP SWAP1 DIV PUSH1 0xFF AND DUP2 JUMP JUMPDEST PUSH1 0x3 DUP2 DUP1 MLOAD PUSH1 0x20 DUP2 ADD DUP3 ADD DUP1 MLOAD DUP5 DUP3 MSTORE PUSH1 0x20 DUP4 ADD PUSH1 0x20 DUP6 ADD KECCAK256 DUP2 DUP4 MSTORE DUP1 SWAP6 POP POP POP POP POP POP PUSH1 0x0 SWAP2 POP SLOAD SWAP1 PUSH2 0x100 EXP SWAP1 DIV PUSH20 0xFFFFFFFFFFFFFFFFFFFFFFFFFFFFFFFFFFFFFFFF AND DUP2 JUMP JUMPDEST PUSH1 0x0 PUSH1 0xE SLOAD SWAP1 POP SWAP1 JUMP JUMPDEST PUSH1 0x0 PUSH1 0x40 MLOAD SWAP1 POP SWAP1 JUMP JUMPDEST PUSH1 0x0 DUP1 REVERT JUMPDEST PUSH1 0x0 DUP1 REVERT JUMPDEST PUSH1 0x0 PUSH20 0xFFFFFFFFFFFFFFFFFFFFFFFFFFFFFFFFFFFFFFFF DUP3 AND SWAP1 POP SWAP2 SWAP1 POP JUMP JUMPDEST PUSH1 0x0 PUSH2 0x4115 DUP3 PUSH2 0x40EA JUMP JUMPDEST SWAP1 POP SWAP2 SWAP1 POP JUMP JUMPDEST PUSH2 0x4125 DUP2 PUSH2 0x410A JUMP JUMPDEST DUP2 EQ PUSH2 0x4130 JUMPI PUSH1 0x0 DUP1 REVERT JUMPDEST POP JUMP JUMPDEST PUSH1 0x0 DUP2 CALLDATALOAD SWAP1 POP PUSH2 0x4142 DUP2 PUSH2 0x411C JUMP JUMPDEST SWAP3 SWAP2 POP POP JUMP JUMPDEST PUSH1 0x0 DUP1 REVERT JUMPDEST PUSH1 0x0 DUP1 REVERT JUMPDEST PUSH1 0x0 PUSH1 0x1F NOT PUSH1 0x1F DUP4 ADD AND SWAP1 POP SWAP2 SWAP1 POP JUMP JUMPDEST PUSH32 0x4E487B7100000000000000000000000000000000000000000000000000000000 PUSH1 0x0 MSTORE PUSH1 0x41 PUSH1 0x4 MSTORE PUSH1 0x24 PUSH1 0x0 REVERT JUMPDEST PUSH2 0x419B DUP3 PUSH2 0x4152 JUMP JUMPDEST DUP2 ADD DUP2 DUP2 LT PUSH8 0xFFFFFFFFFFFFFFFF DUP3 GT OR ISZERO PUSH2 0x41BA JUMPI PUSH2 0x41B9 PUSH2 0x4163 JUMP JUMPDEST JUMPDEST DUP1 PUSH1 0x40 MSTORE POP POP POP JUMP JUMPDEST PUSH1 0x0 PUSH2 0x41CD PUSH2 0x40D6 JUMP JUMPDEST SWAP1 POP PUSH2 0x41D9 DUP3 DUP3 PUSH2 0x4192 JUMP JUMPDEST SWAP2 SWAP1 POP JUMP JUMPDEST PUSH1 0x0 PUSH8 0xFFFFFFFFFFFFFFFF DUP3 GT ISZERO PUSH2 0x41F9 JUMPI PUSH2 0x41F8 PUSH2 0x4163 JUMP JUMPDEST JUMPDEST PUSH2 0x4202 DUP3 PUSH2 0x4152 JUMP JUMPDEST SWAP1 POP PUSH1 0x20 DUP2 ADD SWAP1 POP SWAP2 SWAP1 POP JUMP JUMPDEST DUP3 DUP2 DUP4 CALLDATACOPY PUSH1 0x0 DUP4 DUP4 ADD MSTORE POP POP POP JUMP JUMPDEST PUSH1 0x0 PUSH2 0x4231 PUSH2 0x422C DUP5 PUSH2 0x41DE JUMP JUMPDEST PUSH2 0x41C3 JUMP JUMPDEST SWAP1 POP DUP3 DUP2 MSTORE PUSH1 0x20 DUP2 ADD DUP5 DUP5 DUP5 ADD GT ISZERO PUSH2 0x424D JUMPI PUSH2 0x424C PUSH2 0x414D JUMP JUMPDEST JUMPDEST PUSH2 0x4258 DUP5 DUP3 DUP6 PUSH2 0x420F JUMP JUMPDEST POP SWAP4 SWAP3 POP POP POP JUMP JUMPDEST PUSH1 0x0 DUP3 PUSH1 0x1F DUP4 ADD SLT PUSH2 0x4275 JUMPI PUSH2 0x4274 PUSH2 0x4148 JUMP JUMPDEST JUMPDEST DUP2 CALLDATALOAD PUSH2 0x4285 DUP5 DUP3 PUSH1 0x20 DUP7 ADD PUSH2 0x421E JUMP JUMPDEST SWAP2 POP POP SWAP3 SWAP2 POP POP JUMP JUMPDEST PUSH1 0x0 DUP1 PUSH1 0x40 DUP4 DUP6 SUB SLT ISZERO PUSH2 0x42A5 JUMPI PUSH2 0x42A4 PUSH2 0x40E0 JUMP JUMPDEST JUMPDEST PUSH1 0x0 PUSH2 0x42B3 DUP6 DUP3 DUP7 ADD PUSH2 0x4133 JUMP JUMPDEST SWAP3 POP POP PUSH1 0x20 DUP4 ADD CALLDATALOAD PUSH8 0xFFFFFFFFFFFFFFFF DUP2 GT ISZERO PUSH2 0x42D4 JUMPI PUSH2 0x42D3 PUSH2 0x40E5 JUMP JUMPDEST JUMPDEST PUSH2 0x42E0 DUP6 DUP3 DUP7 ADD PUSH2 0x4260 JUMP JUMPDEST SWAP2 POP POP SWAP3 POP SWAP3 SWAP1 POP JUMP JUMPDEST PUSH1 0x0 DUP2 SWAP1 POP SWAP2 SWAP1 POP JUMP JUMPDEST PUSH2 0x42FD DUP2 PUSH2 0x42EA JUMP JUMPDEST DUP3 MSTORE POP POP JUMP JUMPDEST PUSH1 0x0 DUP2 ISZERO ISZERO SWAP1 POP SWAP2 SWAP1 POP JUMP JUMPDEST PUSH2 0x4318 DUP2 PUSH2 0x4303 JUMP JUMPDEST DUP3 MSTORE POP POP JUMP JUMPDEST PUSH1 0x0 PUSH1 0x60 DUP3 ADD SWAP1 POP PUSH2 0x4333 PUSH1 0x0 DUP4 ADD DUP7 PUSH2 0x42F4 JUMP JUMPDEST PUSH2 0x4340 PUSH1 0x20 DUP4 ADD DUP6 PUSH2 0x430F JUMP JUMPDEST PUSH2 0x434D PUSH1 0x40 DUP4 ADD DUP5 PUSH2 0x42F4 JUMP JUMPDEST SWAP5 SWAP4 POP POP POP POP JUMP JUMPDEST PUSH2 0x435E DUP2 PUSH2 0x410A JUMP JUMPDEST DUP3 MSTORE POP POP JUMP JUMPDEST PUSH1 0x0 PUSH1 0x20 DUP3 ADD SWAP1 POP PUSH2 0x4379 PUSH1 0x0 DUP4 ADD DUP5 PUSH2 0x4355 JUMP JUMPDEST SWAP3 SWAP2 POP POP JUMP JUMPDEST PUSH1 0x0 DUP1 REVERT JUMPDEST PUSH1 0x0 DUP1 REVERT JUMPDEST PUSH1 0x0 DUP1 DUP4 PUSH1 0x1F DUP5 ADD SLT PUSH2 0x439F JUMPI PUSH2 0x439E PUSH2 0x4148 JUMP JUMPDEST JUMPDEST DUP3 CALLDATALOAD SWAP1 POP PUSH8 0xFFFFFFFFFFFFFFFF DUP2 GT ISZERO PUSH2 0x43BC JUMPI PUSH2 0x43BB PUSH2 0x437F JUMP JUMPDEST JUMPDEST PUSH1 0x20 DUP4 ADD SWAP2 POP DUP4 PUSH1 0x1 DUP3 MUL DUP4 ADD GT ISZERO PUSH2 0x43D8 JUMPI PUSH2 0x43D7 PUSH2 0x4384 JUMP JUMPDEST JUMPDEST SWAP3 POP SWAP3 SWAP1 POP JUMP JUMPDEST PUSH2 0x43E8 DUP2 PUSH2 0x42EA JUMP JUMPDEST DUP2 EQ PUSH2 0x43F3 JUMPI PUSH1 0x0 DUP1 REVERT JUMPDEST POP JUMP JUMPDEST PUSH1 0x0 DUP2 CALLDATALOAD SWAP1 POP PUSH2 0x4405 DUP2 PUSH2 0x43DF JUMP JUMPDEST SWAP3 SWAP2 POP POP JUMP JUMPDEST PUSH1 0x0 DUP1 PUSH1 0x0 PUSH1 0x40 DUP5 DUP7 SUB SLT ISZERO PUSH2 0x4424 JUMPI PUSH2 0x4423 PUSH2 0x40E0 JUMP JUMPDEST JUMPDEST PUSH1 0x0 DUP5 ADD CALLDATALOAD PUSH8 0xFFFFFFFFFFFFFFFF DUP2 GT ISZERO PUSH2 0x4442 JUMPI PUSH2 0x4441 PUSH2 0x40E5 JUMP JUMPDEST JUMPDEST PUSH2 0x444E DUP7 DUP3 DUP8 ADD PUSH2 0x4389 JUMP JUMPDEST SWAP4 POP SWAP4 POP POP PUSH1 0x20 PUSH2 0x4461 DUP7 DUP3 DUP8 ADD PUSH2 0x43F6 JUMP JUMPDEST SWAP2 POP POP SWAP3 POP SWAP3 POP SWAP3 JUMP JUMPDEST PUSH1 0x0 DUP1 PUSH1 0x40 DUP4 DUP6 SUB SLT ISZERO PUSH2 0x4482 JUMPI PUSH2 0x4481 PUSH2 0x40E0 JUMP JUMPDEST JUMPDEST PUSH1 0x0 DUP4 ADD CALLDATALOAD PUSH8 0xFFFFFFFFFFFFFFFF DUP2 GT ISZERO PUSH2 0x44A0 JUMPI PUSH2 0x449F PUSH2 0x40E5 JUMP JUMPDEST JUMPDEST PUSH2 0x44AC DUP6 DUP3 DUP7 ADD PUSH2 0x4260 JUMP JUMPDEST SWAP3 POP POP PUSH1 0x20 PUSH2 0x44BD DUP6 DUP3 DUP7 ADD PUSH2 0x4133 JUMP JUMPDEST SWAP2 POP POP SWAP3 POP SWAP3 SWAP1 POP JUMP JUMPDEST PUSH1 0x0 PUSH1 0x20 DUP3 DUP5 SUB SLT ISZERO PUSH2 0x44DD JUMPI PUSH2 0x44DC PUSH2 0x40E0 JUMP JUMPDEST JUMPDEST PUSH1 0x0 DUP3 ADD CALLDATALOAD PUSH8 0xFFFFFFFFFFFFFFFF DUP2 GT ISZERO PUSH2 0x44FB JUMPI PUSH2 0x44FA PUSH2 0x40E5 JUMP JUMPDEST JUMPDEST PUSH2 0x4507 DUP5 DUP3 DUP6 ADD PUSH2 0x4260 JUMP JUMPDEST SWAP2 POP POP SWAP3 SWAP2 POP POP JUMP JUMPDEST PUSH1 0x0 DUP1 REVERT JUMPDEST PUSH1 0x0 PUSH2 0x160 DUP3 DUP5 SUB SLT ISZERO PUSH2 0x452C JUMPI PUSH2 0x452B PUSH2 0x4510 JUMP JUMPDEST JUMPDEST DUP2 SWAP1 POP SWAP3 SWAP2 POP POP JUMP JUMPDEST PUSH1 0x0 DUP1 PUSH1 0x0 PUSH1 0x40 DUP5 DUP7 SUB SLT ISZERO PUSH2 0x454E JUMPI PUSH2 0x454D PUSH2 0x40E0 JUMP JUMPDEST JUMPDEST PUSH1 0x0 DUP5 ADD CALLDATALOAD PUSH8 0xFFFFFFFFFFFFFFFF DUP2 GT ISZERO PUSH2 0x456C JUMPI PUSH2 0x456B PUSH2 0x40E5 JUMP JUMPDEST JUMPDEST PUSH2 0x4578 DUP7 DUP3 DUP8 ADD PUSH2 0x4389 JUMP JUMPDEST SWAP4 POP SWAP4 POP POP PUSH1 0x20 DUP5 ADD CALLDATALOAD PUSH8 0xFFFFFFFFFFFFFFFF DUP2 GT ISZERO PUSH2 0x459B JUMPI PUSH2 0x459A PUSH2 0x40E5 JUMP JUMPDEST JUMPDEST PUSH2 0x45A7 DUP7 DUP3 DUP8 ADD PUSH2 0x4515 JUMP JUMPDEST SWAP2 POP POP SWAP3 POP SWAP3 POP SWAP3 JUMP JUMPDEST PUSH1 0x0 PUSH1 0x20 DUP3 DUP5 SUB SLT ISZERO PUSH2 0x45C7 JUMPI PUSH2 0x45C6 PUSH2 0x40E0 JUMP JUMPDEST JUMPDEST PUSH1 0x0 PUSH2 0x45D5 DUP5 DUP3 DUP6 ADD PUSH2 0x4133 JUMP JUMPDEST SWAP2 POP POP SWAP3 SWAP2 POP POP JUMP JUMPDEST PUSH1 0x0 DUP2 MLOAD SWAP1 POP SWAP2 SWAP1 POP JUMP JUMPDEST PUSH1 0x0 DUP3 DUP3 MSTORE PUSH1 0x20 DUP3 ADD SWAP1 POP SWAP3 SWAP2 POP POP JUMP JUMPDEST PUSH1 0x0 JUMPDEST DUP4 DUP2 LT ISZERO PUSH2 0x4618 JUMPI DUP1 DUP3 ADD MLOAD DUP2 DUP5 ADD MSTORE PUSH1 0x20 DUP2 ADD SWAP1 POP PUSH2 0x45FD JUMP JUMPDEST PUSH1 0x0 DUP5 DUP5 ADD MSTORE POP POP POP POP JUMP JUMPDEST PUSH1 0x0 PUSH2 0x462F DUP3 PUSH2 0x45DE JUMP JUMPDEST PUSH2 0x4639 DUP2 DUP6 PUSH2 0x45E9 JUMP JUMPDEST SWAP4 POP PUSH2 0x4649 DUP2 DUP6 PUSH1 0x20 DUP7 ADD PUSH2 0x45FA JUMP JUMPDEST PUSH2 0x4652 DUP2 PUSH2 0x4152 JUMP JUMPDEST DUP5 ADD SWAP2 POP POP SWAP3 SWAP2 POP POP JUMP JUMPDEST PUSH1 0x0 PUSH1 0xE0 DUP3 ADD SWAP1 POP DUP2 DUP2 SUB PUSH1 0x0 DUP4 ADD MSTORE PUSH2 0x4677 DUP2 DUP11 PUSH2 0x4624 JUMP JUMPDEST SWAP1 POP DUP2 DUP2 SUB PUSH1 0x20 DUP4 ADD MSTORE PUSH2 0x468B DUP2 DUP10 PUSH2 0x4624 JUMP JUMPDEST SWAP1 POP DUP2 DUP2 SUB PUSH1 0x40 DUP4 ADD MSTORE PUSH2 0x469F DUP2 DUP9 PUSH2 0x4624 JUMP JUMPDEST SWAP1 POP DUP2 DUP2 SUB PUSH1 0x60 DUP4 ADD MSTORE PUSH2 0x46B3 DUP2 DUP8 PUSH2 0x4624 JUMP JUMPDEST SWAP1 POP DUP2 DUP2 SUB PUSH1 0x80 DUP4 ADD MSTORE PUSH2 0x46C7 DUP2 DUP7 PUSH2 0x4624 JUMP JUMPDEST SWAP1 POP PUSH2 0x46D6 PUSH1 0xA0 DUP4 ADD DUP6 PUSH2 0x42F4 JUMP JUMPDEST PUSH2 0x46E3 PUSH1 0xC0 DUP4 ADD DUP5 PUSH2 0x4355 JUMP JUMPDEST SWAP9 SWAP8 POP POP POP POP POP POP POP POP JUMP JUMPDEST PUSH1 0x0 PUSH1 0xE0 DUP3 DUP5 SUB SLT ISZERO PUSH2 0x4705 JUMPI PUSH2 0x4704 PUSH2 0x4510 JUMP JUMPDEST JUMPDEST DUP2 SWAP1 POP SWAP3 SWAP2 POP POP JUMP JUMPDEST PUSH1 0x0 PUSH1 0x20 DUP3 DUP5 SUB SLT ISZERO PUSH2 0x4724 JUMPI PUSH2 0x4723 PUSH2 0x40E0 JUMP JUMPDEST JUMPDEST PUSH1 0x0 DUP3 ADD CALLDATALOAD PUSH8 0xFFFFFFFFFFFFFFFF DUP2 GT ISZERO PUSH2 0x4742 JUMPI PUSH2 0x4741 PUSH2 0x40E5 JUMP JUMPDEST JUMPDEST PUSH2 0x474E DUP5 DUP3 DUP6 ADD PUSH2 0x46EF JUMP JUMPDEST SWAP2 POP POP SWAP3 SWAP2 POP POP JUMP JUMPDEST PUSH1 0x0 DUP1 PUSH1 0x20 DUP4 DUP6 SUB SLT ISZERO PUSH2 0x476E JUMPI PUSH2 0x476D PUSH2 0x40E0 JUMP JUMPDEST JUMPDEST PUSH1 0x0 DUP4 ADD CALLDATALOAD PUSH8 0xFFFFFFFFFFFFFFFF DUP2 GT ISZERO PUSH2 0x478C JUMPI PUSH2 0x478B PUSH2 0x40E5 JUMP JUMPDEST JUMPDEST PUSH2 0x4798 DUP6 DUP3 DUP7 ADD PUSH2 0x4389 JUMP JUMPDEST SWAP3 POP SWAP3 POP POP SWAP3 POP SWAP3 SWAP1 POP JUMP JUMPDEST PUSH1 0x0 DUP1 PUSH1 0x40 DUP4 DUP6 SUB SLT ISZERO PUSH2 0x47BB JUMPI PUSH2 0x47BA PUSH2 0x40E0 JUMP JUMPDEST JUMPDEST PUSH1 0x0 DUP4 ADD CALLDATALOAD PUSH8 0xFFFFFFFFFFFFFFFF DUP2 GT ISZERO PUSH2 0x47D9 JUMPI PUSH2 0x47D8 PUSH2 0x40E5 JUMP JUMPDEST JUMPDEST PUSH2 0x47E5 DUP6 DUP3 DUP7 ADD PUSH2 0x4260 JUMP JUMPDEST SWAP3 POP POP PUSH1 0x20 PUSH2 0x47F6 DUP6 DUP3 DUP7 ADD PUSH2 0x43F6 JUMP JUMPDEST SWAP2 POP POP SWAP3 POP SWAP3 SWAP1 POP JUMP JUMPDEST PUSH1 0x0 PUSH1 0x40 DUP3 ADD SWAP1 POP PUSH2 0x4815 PUSH1 0x0 DUP4 ADD DUP6 PUSH2 0x4355 JUMP JUMPDEST PUSH2 0x4822 PUSH1 0x20 DUP4 ADD DUP5 PUSH2 0x42F4 JUMP JUMPDEST SWAP4 SWAP3 POP POP POP JUMP JUMPDEST PUSH1 0x0 DUP1 PUSH1 0x40 DUP4 DUP6 SUB SLT ISZERO PUSH2 0x4840 JUMPI PUSH2 0x483F PUSH2 0x40E0 JUMP JUMPDEST JUMPDEST PUSH1 0x0 PUSH2 0x484E DUP6 DUP3 DUP7 ADD PUSH2 0x4133 JUMP JUMPDEST SWAP3 POP POP PUSH1 0x20 PUSH2 0x485F DUP6 DUP3 DUP7 ADD PUSH2 0x43F6 JUMP JUMPDEST SWAP2 POP POP SWAP3 POP SWAP3 SWAP1 POP JUMP JUMPDEST PUSH1 0x0 PUSH1 0xFF DUP3 AND SWAP1 POP SWAP2 SWAP1 POP JUMP JUMPDEST PUSH2 0x487F DUP2 PUSH2 0x4869 JUMP JUMPDEST DUP3 MSTORE POP POP JUMP JUMPDEST PUSH32 0x4E487B7100000000000000000000000000000000000000000000000000000000 PUSH1 0x0 MSTORE PUSH1 0x21 PUSH1 0x4 MSTORE PUSH1 0x24 PUSH1 0x0 REVERT JUMPDEST PUSH1 0x6 DUP2 LT PUSH2 0x48C5 JUMPI PUSH2 0x48C4 PUSH2 0x4885 JUMP JUMPDEST JUMPDEST POP JUMP JUMPDEST PUSH1 0x0 DUP2 SWAP1 POP PUSH2 0x48D6 DUP3 PUSH2 0x48B4 JUMP JUMPDEST SWAP2 SWAP1 POP JUMP JUMPDEST PUSH1 0x0 PUSH2 0x48E6 DUP3 PUSH2 0x48C8 JUMP JUMPDEST SWAP1 POP SWAP2 SWAP1 POP JUMP JUMPDEST PUSH2 0x48F6 DUP2 PUSH2 0x48DB JUMP JUMPDEST DUP3 MSTORE POP POP JUMP JUMPDEST PUSH1 0x0 PUSH2 0x160 DUP3 ADD SWAP1 POP DUP2 DUP2 SUB PUSH1 0x0 DUP4 ADD MSTORE PUSH2 0x4917 DUP2 DUP15 PUSH2 0x4624 JUMP JUMPDEST SWAP1 POP DUP2 DUP2 SUB PUSH1 0x20 DUP4 ADD MSTORE PUSH2 0x492B DUP2 DUP14 PUSH2 0x4624 JUMP JUMPDEST SWAP1 POP PUSH2 0x493A PUSH1 0x40 DUP4 ADD DUP13 PUSH2 0x4355 JUMP JUMPDEST PUSH2 0x4947 PUSH1 0x60 DUP4 ADD DUP12 PUSH2 0x42F4 JUMP JUMPDEST PUSH2 0x4954 PUSH1 0x80 DUP4 ADD DUP11 PUSH2 0x42F4 JUMP JUMPDEST PUSH2 0x4961 PUSH1 0xA0 DUP4 ADD DUP10 PUSH2 0x42F4 JUMP JUMPDEST PUSH2 0x496E PUSH1 0xC0 DUP4 ADD DUP9 PUSH2 0x42F4 JUMP JUMPDEST PUSH2 0x497B PUSH1 0xE0 DUP4 ADD DUP8 PUSH2 0x42F4 JUMP JUMPDEST PUSH2 0x4989 PUSH2 0x100 DUP4 ADD DUP7 PUSH2 0x4355 JUMP JUMPDEST PUSH2 0x4997 PUSH2 0x120 DUP4 ADD DUP6 PUSH2 0x4876 JUMP JUMPDEST PUSH2 0x49A5 PUSH2 0x140 DUP4 ADD DUP5 PUSH2 0x48ED JUMP JUMPDEST SWAP13 SWAP12 POP POP POP POP POP POP POP POP POP POP POP POP JUMP JUMPDEST PUSH1 0x0 PUSH2 0x160 DUP3 DUP5 SUB SLT ISZERO PUSH2 0x49CC JUMPI PUSH2 0x49CB PUSH2 0x4510 JUMP JUMPDEST JUMPDEST DUP2 SWAP1 POP SWAP3 SWAP2 POP POP JUMP JUMPDEST PUSH1 0x0 DUP1 PUSH1 0x0 DUP1 PUSH1 0x60 DUP6 DUP8 SUB SLT ISZERO PUSH2 0x49EF JUMPI PUSH2 0x49EE PUSH2 0x40E0 JUMP JUMPDEST JUMPDEST PUSH1 0x0 DUP6 ADD CALLDATALOAD PUSH8 0xFFFFFFFFFFFFFFFF DUP2 GT ISZERO PUSH2 0x4A0D JUMPI PUSH2 0x4A0C PUSH2 0x40E5 JUMP JUMPDEST JUMPDEST PUSH2 0x4A19 DUP8 DUP3 DUP9 ADD PUSH2 0x4389 JUMP JUMPDEST SWAP5 POP SWAP5 POP POP PUSH1 0x20 DUP6 ADD CALLDATALOAD PUSH8 0xFFFFFFFFFFFFFFFF DUP2 GT ISZERO PUSH2 0x4A3C JUMPI PUSH2 0x4A3B PUSH2 0x40E5 JUMP JUMPDEST JUMPDEST PUSH2 0x4A48 DUP8 DUP3 DUP9 ADD PUSH2 0x49B5 JUMP JUMPDEST SWAP3 POP POP PUSH1 0x40 PUSH2 0x4A59 DUP8 DUP3 DUP9 ADD PUSH2 0x4133 JUMP JUMPDEST SWAP2 POP POP SWAP3 SWAP6 SWAP2 SWAP5 POP SWAP3 POP JUMP JUMPDEST PUSH1 0x0 PUSH1 0x20 DUP3 ADD SWAP1 POP PUSH2 0x4A7A PUSH1 0x0 DUP4 ADD DUP5 PUSH2 0x42F4 JUMP JUMPDEST SWAP3 SWAP2 POP POP JUMP JUMPDEST PUSH1 0x0 PUSH1 0x80 DUP3 ADD SWAP1 POP DUP2 DUP2 SUB PUSH1 0x0 DUP4 ADD MSTORE PUSH2 0x4A9A DUP2 DUP8 PUSH2 0x4624 JUMP JUMPDEST SWAP1 POP DUP2 DUP2 SUB PUSH1 0x20 DUP4 ADD MSTORE PUSH2 0x4AAE DUP2 DUP7 PUSH2 0x4624 JUMP JUMPDEST SWAP1 POP DUP2 DUP2 SUB PUSH1 0x40 DUP4 ADD MSTORE PUSH2 0x4AC2 DUP2 DUP6 PUSH2 0x4624 JUMP JUMPDEST SWAP1 POP PUSH2 0x4AD1 PUSH1 0x60 DUP4 ADD DUP5 PUSH2 0x4355 JUMP JUMPDEST SWAP6 SWAP5 POP POP POP POP POP JUMP JUMPDEST PUSH1 0x0 DUP2 MLOAD SWAP1 POP SWAP2 SWAP1 POP JUMP JUMPDEST PUSH1 0x0 DUP3 DUP3 MSTORE PUSH1 0x20 DUP3 ADD SWAP1 POP SWAP3 SWAP2 POP POP JUMP JUMPDEST PUSH1 0x0 DUP2 SWAP1 POP PUSH1 0x20 DUP3 ADD SWAP1 POP SWAP2 SWAP1 POP JUMP JUMPDEST PUSH2 0x4B0F DUP2 PUSH2 0x410A JUMP JUMPDEST DUP3 MSTORE POP POP JUMP JUMPDEST PUSH2 0x4B1E DUP2 PUSH2 0x42EA JUMP JUMPDEST DUP3 MSTORE POP POP JUMP JUMPDEST PUSH1 0x40 DUP3 ADD PUSH1 0x0 DUP3 ADD MLOAD PUSH2 0x4B3A PUSH1 0x0 DUP6 ADD DUP3 PUSH2 0x4B06 JUMP JUMPDEST POP PUSH1 0x20 DUP3 ADD MLOAD PUSH2 0x4B4D PUSH1 0x20 DUP6 ADD DUP3 PUSH2 0x4B15 JUMP JUMPDEST POP POP POP POP JUMP JUMPDEST PUSH1 0x0 PUSH2 0x4B5F DUP4 DUP4 PUSH2 0x4B24 JUMP JUMPDEST PUSH1 0x40 DUP4 ADD SWAP1 POP SWAP3 SWAP2 POP POP JUMP JUMPDEST PUSH1 0x0 PUSH1 0x20 DUP3 ADD SWAP1 POP SWAP2 SWAP1 POP JUMP JUMPDEST PUSH1 0x0 PUSH2 0x4B83 DUP3 PUSH2 0x4ADA JUMP JUMPDEST PUSH2 0x4B8D DUP2 DUP6 PUSH2 0x4AE5 JUMP JUMPDEST SWAP4 POP PUSH2 0x4B98 DUP4 PUSH2 0x4AF6 JUMP JUMPDEST DUP1 PUSH1 0x0 JUMPDEST DUP4 DUP2 LT ISZERO PUSH2 0x4BC9 JUMPI DUP2 MLOAD PUSH2 0x4BB0 DUP9 DUP3 PUSH2 0x4B53 JUMP JUMPDEST SWAP8 POP PUSH2 0x4BBB DUP4 PUSH2 0x4B6B JUMP JUMPDEST SWAP3 POP POP PUSH1 0x1 DUP2 ADD SWAP1 POP PUSH2 0x4B9C JUMP JUMPDEST POP DUP6 SWAP4 POP POP POP POP SWAP3 SWAP2 POP POP JUMP JUMPDEST PUSH1 0x0 PUSH1 0x20 DUP3 ADD SWAP1 POP DUP2 DUP2 SUB PUSH1 0x0 DUP4 ADD MSTORE PUSH2 0x4BF0 DUP2 DUP5 PUSH2 0x4B78 JUMP JUMPDEST SWAP1 POP SWAP3 SWAP2 POP POP JUMP JUMPDEST PUSH1 0x0 PUSH1 0x80 DUP3 DUP5 SUB SLT ISZERO PUSH2 0x4C0E JUMPI PUSH2 0x4C0D PUSH2 0x4510 JUMP JUMPDEST JUMPDEST DUP2 SWAP1 POP SWAP3 SWAP2 POP POP JUMP JUMPDEST PUSH1 0x0 PUSH1 0x20 DUP3 DUP5 SUB SLT ISZERO PUSH2 0x4C2D JUMPI PUSH2 0x4C2C PUSH2 0x40E0 JUMP JUMPDEST JUMPDEST PUSH1 0x0 DUP3 ADD CALLDATALOAD PUSH8 0xFFFFFFFFFFFFFFFF DUP2 GT ISZERO PUSH2 0x4C4B JUMPI PUSH2 0x4C4A PUSH2 0x40E5 JUMP JUMPDEST JUMPDEST PUSH2 0x4C57 DUP5 DUP3 DUP6 ADD PUSH2 0x4BF8 JUMP JUMPDEST SWAP2 POP POP SWAP3 SWAP2 POP POP JUMP JUMPDEST PUSH1 0x0 DUP1 PUSH1 0x0 PUSH1 0x40 DUP5 DUP7 SUB SLT ISZERO PUSH2 0x4C79 JUMPI PUSH2 0x4C78 PUSH2 0x40E0 JUMP JUMPDEST JUMPDEST PUSH1 0x0 DUP5 ADD CALLDATALOAD PUSH8 0xFFFFFFFFFFFFFFFF DUP2 GT ISZERO PUSH2 0x4C97 JUMPI PUSH2 0x4C96 PUSH2 0x40E5 JUMP JUMPDEST JUMPDEST PUSH2 0x4CA3 DUP7 DUP3 DUP8 ADD PUSH2 0x4389 JUMP JUMPDEST SWAP4 POP SWAP4 POP POP PUSH1 0x20 PUSH2 0x4CB6 DUP7 DUP3 DUP8 ADD PUSH2 0x4133 JUMP JUMPDEST SWAP2 POP POP SWAP3 POP SWAP3 POP SWAP3 JUMP JUMPDEST PUSH1 0x4 DUP2 LT PUSH2 0x4CD1 JUMPI PUSH2 0x4CD0 PUSH2 0x4885 JUMP JUMPDEST JUMPDEST POP JUMP JUMPDEST PUSH1 0x0 DUP2 SWAP1 POP PUSH2 0x4CE2 DUP3 PUSH2 0x4CC0 JUMP JUMPDEST SWAP2 SWAP1 POP JUMP JUMPDEST PUSH1 0x0 PUSH2 0x4CF2 DUP3 PUSH2 0x4CD4 JUMP JUMPDEST SWAP1 POP SWAP2 SWAP1 POP JUMP JUMPDEST PUSH2 0x4D02 DUP2 PUSH2 0x4CE7 JUMP JUMPDEST DUP3 MSTORE POP POP JUMP JUMPDEST PUSH1 0x0 PUSH1 0x20 DUP3 ADD SWAP1 POP PUSH2 0x4D1D PUSH1 0x0 DUP4 ADD DUP5 PUSH2 0x4CF9 JUMP JUMPDEST SWAP3 SWAP2 POP POP JUMP JUMPDEST PUSH2 0x4D2C DUP2 PUSH2 0x4303 JUMP JUMPDEST DUP2 EQ PUSH2 0x4D37 JUMPI PUSH1 0x0 DUP1 REVERT JUMPDEST POP JUMP JUMPDEST PUSH1 0x0 DUP2 MLOAD SWAP1 POP PUSH2 0x4D49 DUP2 PUSH2 0x4D23 JUMP JUMPDEST SWAP3 SWAP2 POP POP JUMP JUMPDEST PUSH1 0x0 PUSH1 0x20 DUP3 DUP5 SUB SLT ISZERO PUSH2 0x4D65 JUMPI PUSH2 0x4D64 PUSH2 0x40E0 JUMP JUMPDEST JUMPDEST PUSH1 0x0 PUSH2 0x4D73 DUP5 DUP3 DUP6 ADD PUSH2 0x4D3A JUMP JUMPDEST SWAP2 POP POP SWAP3 SWAP2 POP POP JUMP JUMPDEST PUSH32 0x4143434F554E545F4E4F545F414150524F564544000000000000000000000000 PUSH1 0x0 DUP3 ADD MSTORE POP JUMP JUMPDEST PUSH1 0x0 PUSH2 0x4DB2 PUSH1 0x14 DUP4 PUSH2 0x45E9 JUMP JUMPDEST SWAP2 POP PUSH2 0x4DBD DUP3 PUSH2 0x4D7C JUMP JUMPDEST PUSH1 0x20 DUP3 ADD SWAP1 POP SWAP2 SWAP1 POP JUMP JUMPDEST PUSH1 0x0 PUSH1 0x20 DUP3 ADD SWAP1 POP DUP2 DUP2 SUB PUSH1 0x0 DUP4 ADD MSTORE PUSH2 0x4DE1 DUP2 PUSH2 0x4DA5 JUMP JUMPDEST SWAP1 POP SWAP2 SWAP1 POP JUMP JUMPDEST PUSH1 0x0 DUP2 SWAP1 POP SWAP3 SWAP2 POP POP JUMP JUMPDEST PUSH1 0x0 PUSH2 0x4DFF DUP4 DUP6 PUSH2 0x4DE8 JUMP JUMPDEST SWAP4 POP PUSH2 0x4E0C DUP4 DUP6 DUP5 PUSH2 0x420F JUMP JUMPDEST DUP3 DUP5 ADD SWAP1 POP SWAP4 SWAP3 POP POP POP JUMP JUMPDEST PUSH1 0x0 PUSH2 0x4E25 DUP3 DUP5 DUP7 PUSH2 0x4DF3 JUMP JUMPDEST SWAP2 POP DUP2 SWAP1 POP SWAP4 SWAP3 POP POP POP JUMP JUMPDEST PUSH1 0x0 PUSH2 0x4E3D DUP4 DUP6 PUSH2 0x45E9 JUMP JUMPDEST SWAP4 POP PUSH2 0x4E4A DUP4 DUP6 DUP5 PUSH2 0x420F JUMP JUMPDEST PUSH2 0x4E53 DUP4 PUSH2 0x4152 JUMP JUMPDEST DUP5 ADD SWAP1 POP SWAP4 SWAP3 POP POP POP JUMP JUMPDEST PUSH1 0x0 PUSH1 0x20 DUP3 ADD SWAP1 POP DUP2 DUP2 SUB PUSH1 0x0 DUP4 ADD MSTORE PUSH2 0x4E79 DUP2 DUP5 DUP7 PUSH2 0x4E31 JUMP JUMPDEST SWAP1 POP SWAP4 SWAP3 POP POP POP JUMP JUMPDEST PUSH32 0x4E487B7100000000000000000000000000000000000000000000000000000000 PUSH1 0x0 MSTORE PUSH1 0x11 PUSH1 0x4 MSTORE PUSH1 0x24 PUSH1 0x0 REVERT JUMPDEST PUSH1 0x0 PUSH2 0x4EBC DUP3 PUSH2 0x42EA JUMP JUMPDEST SWAP2 POP PUSH2 0x4EC7 DUP4 PUSH2 0x42EA JUMP JUMPDEST SWAP3 POP DUP3 DUP3 ADD SWAP1 POP DUP1 DUP3 GT ISZERO PUSH2 0x4EDF JUMPI PUSH2 0x4EDE PUSH2 0x4E82 JUMP JUMPDEST JUMPDEST SWAP3 SWAP2 POP POP JUMP JUMPDEST PUSH32 0x494E56414C49445F414D4F554E54000000000000000000000000000000000000 PUSH1 0x0 DUP3 ADD MSTORE POP JUMP JUMPDEST PUSH1 0x0 PUSH2 0x4F1B PUSH1 0xE DUP4 PUSH2 0x45E9 JUMP JUMPDEST SWAP2 POP PUSH2 0x4F26 DUP3 PUSH2 0x4EE5 JUMP JUMPDEST PUSH1 0x20 DUP3 ADD SWAP1 POP SWAP2 SWAP1 POP JUMP JUMPDEST PUSH1 0x0 PUSH1 0x20 DUP3 ADD SWAP1 POP DUP2 DUP2 SUB PUSH1 0x0 DUP4 ADD MSTORE PUSH2 0x4F4A DUP2 PUSH2 0x4F0E JUMP JUMPDEST SWAP1 POP SWAP2 SWAP1 POP JUMP JUMPDEST PUSH32 0x4E487B7100000000000000000000000000000000000000000000000000000000 PUSH1 0x0 MSTORE PUSH1 0x32 PUSH1 0x4 MSTORE PUSH1 0x24 PUSH1 0x0 REVERT JUMPDEST PUSH1 0x0 PUSH1 0x40 DUP3 ADD SWAP1 POP DUP2 DUP2 SUB PUSH1 0x0 DUP4 ADD MSTORE PUSH2 0x4F9B DUP2 DUP6 DUP8 PUSH2 0x4E31 JUMP JUMPDEST SWAP1 POP PUSH2 0x4FAA PUSH1 0x20 DUP4 ADD DUP5 PUSH2 0x42F4 JUMP JUMPDEST SWAP5 SWAP4 POP POP POP POP JUMP JUMPDEST PUSH1 0x0 PUSH2 0x4FBD DUP3 PUSH2 0x42EA JUMP JUMPDEST SWAP2 POP PUSH2 0x4FC8 DUP4 PUSH2 0x42EA JUMP JUMPDEST SWAP3 POP DUP3 DUP3 MUL PUSH2 0x4FD6 DUP2 PUSH2 0x42EA JUMP JUMPDEST SWAP2 POP DUP3 DUP3 DIV DUP5 EQ DUP4 ISZERO OR PUSH2 0x4FED JUMPI PUSH2 0x4FEC PUSH2 0x4E82 JUMP JUMPDEST JUMPDEST POP SWAP3 SWAP2 POP POP JUMP JUMPDEST PUSH1 0x0 PUSH1 0x60 DUP3 ADD SWAP1 POP PUSH2 0x5009 PUSH1 0x0 DUP4 ADD DUP7 PUSH2 0x4355 JUMP JUMPDEST PUSH2 0x5016 PUSH1 0x20 DUP4 ADD DUP6 PUSH2 0x4355 JUMP JUMPDEST PUSH2 0x5023 PUSH1 0x40 DUP4 ADD DUP5 PUSH2 0x42F4 JUMP JUMPDEST SWAP5 SWAP4 POP POP POP POP JUMP JUMPDEST PUSH1 0x0 PUSH1 0x40 DUP3 ADD SWAP1 POP DUP2 DUP2 SUB PUSH1 0x0 DUP4 ADD MSTORE PUSH2 0x5046 DUP2 DUP6 DUP8 PUSH2 0x4E31 JUMP JUMPDEST SWAP1 POP PUSH2 0x5055 PUSH1 0x20 DUP4 ADD DUP5 PUSH2 0x4355 JUMP JUMPDEST SWAP5 SWAP4 POP POP POP POP JUMP JUMPDEST PUSH1 0x0 PUSH2 0x5068 DUP3 PUSH2 0x45DE JUMP JUMPDEST PUSH2 0x5072 DUP2 DUP6 PUSH2 0x4DE8 JUMP JUMPDEST SWAP4 POP PUSH2 0x5082 DUP2 DUP6 PUSH1 0x20 DUP7 ADD PUSH2 0x45FA JUMP JUMPDEST DUP1 DUP5 ADD SWAP2 POP POP SWAP3 SWAP2 POP POP JUMP JUMPDEST PUSH1 0x0 PUSH2 0x509A DUP3 DUP5 PUSH2 0x505D JUMP JUMPDEST SWAP2 POP DUP2 SWAP1 POP SWAP3 SWAP2 POP POP JUMP JUMPDEST PUSH32 0x4E4F545F4953535545525F4E4F525F544F504F535F4D414E4147455200000000 PUSH1 0x0 DUP3 ADD MSTORE POP JUMP JUMPDEST PUSH1 0x0 PUSH2 0x50DB PUSH1 0x1C DUP4 PUSH2 0x45E9 JUMP JUMPDEST SWAP2 POP PUSH2 0x50E6 DUP3 PUSH2 0x50A5 JUMP JUMPDEST PUSH1 0x20 DUP3 ADD SWAP1 POP SWAP2 SWAP1 POP JUMP JUMPDEST PUSH1 0x0 PUSH1 0x20 DUP3 ADD SWAP1 POP DUP2 DUP2 SUB PUSH1 0x0 DUP4 ADD MSTORE PUSH2 0x510A DUP2 PUSH2 0x50CE JUMP JUMPDEST SWAP1 POP SWAP2 SWAP1 POP JUMP JUMPDEST PUSH32 0x494E56414C49445F544F4B454E5F414444524553530000000000000000000000 PUSH1 0x0 DUP3 ADD MSTORE POP JUMP JUMPDEST PUSH1 0x0 PUSH2 0x5147 PUSH1 0x15 DUP4 PUSH2 0x45E9 JUMP JUMPDEST SWAP2 POP PUSH2 0x5152 DUP3 PUSH2 0x5111 JUMP JUMPDEST PUSH1 0x20 DUP3 ADD SWAP1 POP SWAP2 SWAP1 POP JUMP JUMPDEST PUSH1 0x0 PUSH1 0x20 DUP3 ADD SWAP1 POP DUP2 DUP2 SUB PUSH1 0x0 DUP4 ADD MSTORE PUSH2 0x5176 DUP2 PUSH2 0x513A JUMP JUMPDEST SWAP1 POP SWAP2 SWAP1 POP JUMP JUMPDEST PUSH1 0x0 PUSH1 0x60 DUP3 ADD SWAP1 POP DUP2 DUP2 SUB PUSH1 0x0 DUP4 ADD MSTORE PUSH2 0x5197 DUP2 DUP7 PUSH2 0x4624 JUMP JUMPDEST SWAP1 POP PUSH2 0x51A6 PUSH1 0x20 DUP4 ADD DUP6 PUSH2 0x4355 JUMP JUMPDEST PUSH2 0x51B3 PUSH1 0x40 DUP4 ADD DUP5 PUSH2 0x4355 JUMP JUMPDEST SWAP5 SWAP4 POP POP POP POP JUMP JUMPDEST PUSH32 0x4F4E4C595F495353554552530000000000000000000000000000000000000000 PUSH1 0x0 DUP3 ADD MSTORE POP JUMP JUMPDEST PUSH1 0x0 PUSH2 0x51F1 PUSH1 0xC DUP4 PUSH2 0x45E9 JUMP JUMPDEST SWAP2 POP PUSH2 0x51FC DUP3 PUSH2 0x51BB JUMP JUMPDEST PUSH1 0x20 DUP3 ADD SWAP1 POP SWAP2 SWAP1 POP JUMP JUMPDEST PUSH1 0x0 PUSH1 0x20 DUP3 ADD SWAP1 POP DUP2 DUP2 SUB PUSH1 0x0 DUP4 ADD MSTORE PUSH2 0x5220 DUP2 PUSH2 0x51E4 JUMP JUMPDEST SWAP1 POP SWAP2 SWAP1 POP JUMP JUMPDEST PUSH32 0x494E56414C49445F4953535545525F4144445245535300000000000000000000 PUSH1 0x0 DUP3 ADD MSTORE POP JUMP JUMPDEST PUSH1 0x0 PUSH2 0x525D PUSH1 0x16 DUP4 PUSH2 0x45E9 JUMP JUMPDEST SWAP2 POP PUSH2 0x5268 DUP3 PUSH2 0x5227 JUMP JUMPDEST PUSH1 0x20 DUP3 ADD SWAP1 POP SWAP2 SWAP1 POP JUMP JUMPDEST PUSH1 0x0 PUSH1 0x20 DUP3 ADD SWAP1 POP DUP2 DUP2 SUB PUSH1 0x0 DUP4 ADD MSTORE PUSH2 0x528C DUP2 PUSH2 0x5250 JUMP JUMPDEST SWAP1 POP SWAP2 SWAP1 POP JUMP JUMPDEST PUSH32 0x494E56414C49445F4445414C5F53544154555300000000000000000000000000 PUSH1 0x0 DUP3 ADD MSTORE POP JUMP JUMPDEST PUSH1 0x0 PUSH2 0x52C9 PUSH1 0x13 DUP4 PUSH2 0x45E9 JUMP JUMPDEST SWAP2 POP PUSH2 0x52D4 DUP3 PUSH2 0x5293 JUMP JUMPDEST PUSH1 0x20 DUP3 ADD SWAP1 POP SWAP2 SWAP1 POP JUMP JUMPDEST PUSH1 0x0 PUSH1 0x20 DUP3 ADD SWAP1 POP DUP2 DUP2 SUB PUSH1 0x0 DUP4 ADD MSTORE PUSH2 0x52F8 DUP2 PUSH2 0x52BC JUMP JUMPDEST SWAP1 POP SWAP2 SWAP1 POP JUMP JUMPDEST PUSH1 0x0 DUP1 REVERT JUMPDEST PUSH1 0x0 DUP1 REVERT JUMPDEST PUSH1 0x0 DUP1 REVERT JUMPDEST PUSH1 0x0 DUP1 DUP4 CALLDATALOAD PUSH1 0x1 PUSH1 0x20 SUB DUP5 CALLDATASIZE SUB SUB DUP2 SLT PUSH2 0x532B JUMPI PUSH2 0x532A PUSH2 0x52FF JUMP JUMPDEST JUMPDEST DUP1 DUP5 ADD SWAP3 POP DUP3 CALLDATALOAD SWAP2 POP PUSH8 0xFFFFFFFFFFFFFFFF DUP3 GT ISZERO PUSH2 0x534D JUMPI PUSH2 0x534C PUSH2 0x5304 JUMP JUMPDEST JUMPDEST PUSH1 0x20 DUP4 ADD SWAP3 POP PUSH1 0x1 DUP3 MUL CALLDATASIZE SUB DUP4 SGT ISZERO PUSH2 0x5369 JUMPI PUSH2 0x5368 PUSH2 0x5309 JUMP JUMPDEST JUMPDEST POP SWAP3 POP SWAP3 SWAP1 POP JUMP JUMPDEST PUSH1 0x0 DUP3 SWAP1 POP SWAP3 SWAP2 POP POP JUMP JUMPDEST PUSH32 0x4E487B7100000000000000000000000000000000000000000000000000000000 PUSH1 0x0 MSTORE PUSH1 0x22 PUSH1 0x4 MSTORE PUSH1 0x24 PUSH1 0x0 REVERT JUMPDEST PUSH1 0x0 PUSH1 0x2 DUP3 DIV SWAP1 POP PUSH1 0x1 DUP3 AND DUP1 PUSH2 0x53C3 JUMPI PUSH1 0x7F DUP3 AND SWAP2 POP JUMPDEST PUSH1 0x20 DUP3 LT DUP2 SUB PUSH2 0x53D6 JUMPI PUSH2 0x53D5 PUSH2 0x537C JUMP JUMPDEST JUMPDEST POP SWAP2 SWAP1 POP JUMP JUMPDEST PUSH1 0x0 DUP2 SWAP1 POP DUP2 PUSH1 0x0 MSTORE PUSH1 0x20 PUSH1 0x0 KECCAK256 SWAP1 POP SWAP2 SWAP1 POP JUMP JUMPDEST PUSH1 0x0 PUSH1 0x20 PUSH1 0x1F DUP4 ADD DIV SWAP1 POP SWAP2 SWAP1 POP JUMP JUMPDEST PUSH1 0x0 DUP3 DUP3 SHL SWAP1 POP SWAP3 SWAP2 POP POP JUMP JUMPDEST PUSH1 0x0 PUSH1 0x8 DUP4 MUL PUSH2 0x543E PUSH32 0xFFFFFFFFFFFFFFFFFFFFFFFFFFFFFFFFFFFFFFFFFFFFFFFFFFFFFFFFFFFFFFFF DUP3 PUSH2 0x5401 JUMP JUMPDEST PUSH2 0x5448 DUP7 DUP4 PUSH2 0x5401 JUMP JUMPDEST SWAP6 POP DUP1 NOT DUP5 AND SWAP4 POP DUP1 DUP7 AND DUP5 OR SWAP3 POP POP POP SWAP4 SWAP3 POP POP POP JUMP JUMPDEST PUSH1 0x0 DUP2 SWAP1 POP SWAP2 SWAP1 POP JUMP JUMPDEST PUSH1 0x0 PUSH2 0x5485 PUSH2 0x5480 PUSH2 0x547B DUP5 PUSH2 0x42EA JUMP JUMPDEST PUSH2 0x5460 JUMP JUMPDEST PUSH2 0x42EA JUMP JUMPDEST SWAP1 POP SWAP2 SWAP1 POP JUMP JUMPDEST PUSH1 0x0 DUP2 SWAP1 POP SWAP2 SWAP1 POP JUMP JUMPDEST PUSH2 0x549F DUP4 PUSH2 0x546A JUMP JUMPDEST PUSH2 0x54B3 PUSH2 0x54AB DUP3 PUSH2 0x548C JUMP JUMPDEST DUP5 DUP5 SLOAD PUSH2 0x540E JUMP JUMPDEST DUP3 SSTORE POP POP POP POP JUMP JUMPDEST PUSH1 0x0 SWAP1 JUMP JUMPDEST PUSH2 0x54C8 PUSH2 0x54BB JUMP JUMPDEST PUSH2 0x54D3 DUP2 DUP5 DUP5 PUSH2 0x5496 JUMP JUMPDEST POP POP POP JUMP JUMPDEST JUMPDEST DUP2 DUP2 LT ISZERO PUSH2 0x54F7 JUMPI PUSH2 0x54EC PUSH1 0x0 DUP3 PUSH2 0x54C0 JUMP JUMPDEST PUSH1 0x1 DUP2 ADD SWAP1 POP PUSH2 0x54D9 JUMP JUMPDEST POP POP JUMP JUMPDEST PUSH1 0x1F DUP3 GT ISZERO PUSH2 0x553C JUMPI PUSH2 0x550D DUP2 PUSH2 0x53DC JUMP JUMPDEST PUSH2 0x5516 DUP5 PUSH2 0x53F1 JUMP JUMPDEST DUP2 ADD PUSH1 0x20 DUP6 LT ISZERO PUSH2 0x5525 JUMPI DUP2 SWAP1 POP JUMPDEST PUSH2 0x5539 PUSH2 0x5531 DUP6 PUSH2 0x53F1 JUMP JUMPDEST DUP4 ADD DUP3 PUSH2 0x54D8 JUMP JUMPDEST POP POP JUMPDEST POP POP POP JUMP JUMPDEST PUSH1 0x0 DUP3 DUP3 SHR SWAP1 POP SWAP3 SWAP2 POP POP JUMP JUMPDEST PUSH1 0x0 PUSH2 0x555F PUSH1 0x0 NOT DUP5 PUSH1 0x8 MUL PUSH2 0x5541 JUMP JUMPDEST NOT DUP1 DUP4 AND SWAP2 POP POP SWAP3 SWAP2 POP POP JUMP JUMPDEST PUSH1 0x0 PUSH2 0x5578 DUP4 DUP4 PUSH2 0x554E JUMP JUMPDEST SWAP2 POP DUP3 PUSH1 0x2 MUL DUP3 OR SWAP1 POP SWAP3 SWAP2 POP POP JUMP JUMPDEST PUSH2 0x5592 DUP4 DUP4 PUSH2 0x5371 JUMP JUMPDEST PUSH8 0xFFFFFFFFFFFFFFFF DUP2 GT ISZERO PUSH2 0x55AB JUMPI PUSH2 0x55AA PUSH2 0x4163 JUMP JUMPDEST JUMPDEST PUSH2 0x55B5 DUP3 SLOAD PUSH2 0x53AB JUMP JUMPDEST PUSH2 0x55C0 DUP3 DUP3 DUP6 PUSH2 0x54FB JUMP JUMPDEST PUSH1 0x0 PUSH1 0x1F DUP4 GT PUSH1 0x1 DUP2 EQ PUSH2 0x55EF JUMPI PUSH1 0x0 DUP5 ISZERO PUSH2 0x55DD JUMPI DUP3 DUP8 ADD CALLDATALOAD SWAP1 POP JUMPDEST PUSH2 0x55E7 DUP6 DUP3 PUSH2 0x556C JUMP JUMPDEST DUP7 SSTORE POP PUSH2 0x564F JUMP JUMPDEST PUSH1 0x1F NOT DUP5 AND PUSH2 0x55FD DUP7 PUSH2 0x53DC JUMP JUMPDEST PUSH1 0x0 JUMPDEST DUP3 DUP2 LT ISZERO PUSH2 0x5625 JUMPI DUP5 DUP10 ADD CALLDATALOAD DUP3 SSTORE PUSH1 0x1 DUP3 ADD SWAP2 POP PUSH1 0x20 DUP6 ADD SWAP5 POP PUSH1 0x20 DUP2 ADD SWAP1 POP PUSH2 0x5600 JUMP JUMPDEST DUP7 DUP4 LT ISZERO PUSH2 0x5642 JUMPI DUP5 DUP10 ADD CALLDATALOAD PUSH2 0x563E PUSH1 0x1F DUP10 AND DUP3 PUSH2 0x554E JUMP JUMPDEST DUP4 SSTORE POP JUMPDEST PUSH1 0x1 PUSH1 0x2 DUP9 MUL ADD DUP9 SSTORE POP POP POP JUMPDEST POP POP POP POP POP POP POP JUMP JUMPDEST PUSH2 0x5663 DUP4 DUP4 DUP4 PUSH2 0x5588 JUMP JUMPDEST POP POP POP JUMP JUMPDEST PUSH1 0x0 DUP2 CALLDATALOAD PUSH2 0x5675 DUP2 PUSH2 0x411C JUMP JUMPDEST DUP1 SWAP2 POP POP SWAP2 SWAP1 POP JUMP JUMPDEST PUSH1 0x0 DUP2 PUSH1 0x0 SHL SWAP1 POP SWAP2 SWAP1 POP JUMP JUMPDEST PUSH1 0x0 PUSH20 0xFFFFFFFFFFFFFFFFFFFFFFFFFFFFFFFFFFFFFFFF PUSH2 0x56AB DUP5 PUSH2 0x567E JUMP JUMPDEST SWAP4 POP DUP1 NOT DUP4 AND SWAP3 POP DUP1 DUP5 AND DUP4 OR SWAP2 POP POP SWAP3 SWAP2 POP POP JUMP JUMPDEST PUSH1 0x0 PUSH2 0x56DC PUSH2 0x56D7 PUSH2 0x56D2 DUP5 PUSH2 0x40EA JUMP JUMPDEST PUSH2 0x5460 JUMP JUMPDEST PUSH2 0x40EA JUMP JUMPDEST SWAP1 POP SWAP2 SWAP1 POP JUMP JUMPDEST PUSH1 0x0 PUSH2 0x56EE DUP3 PUSH2 0x56C1 JUMP JUMPDEST SWAP1 POP SWAP2 SWAP1 POP JUMP JUMPDEST PUSH1 0x0 PUSH2 0x5700 DUP3 PUSH2 0x56E3 JUMP JUMPDEST SWAP1 POP SWAP2 SWAP1 POP JUMP JUMPDEST PUSH1 0x0 DUP2 SWAP1 POP SWAP2 SWAP1 POP JUMP JUMPDEST PUSH2 0x571A DUP3 PUSH2 0x56F5 JUMP JUMPDEST PUSH2 0x572D PUSH2 0x5726 DUP3 PUSH2 0x5707 JUMP JUMPDEST DUP4 SLOAD PUSH2 0x568B JUMP JUMPDEST DUP3 SSTORE POP POP POP JUMP JUMPDEST PUSH1 0x0 DUP2 CALLDATALOAD PUSH2 0x5741 DUP2 PUSH2 0x43DF JUMP JUMPDEST DUP1 SWAP2 POP POP SWAP2 SWAP1 POP JUMP JUMPDEST PUSH1 0x0 PUSH32 0xFFFFFFFFFFFFFFFFFFFFFFFFFFFFFFFFFFFFFFFFFFFFFFFFFFFFFFFFFFFFFFFF PUSH2 0x5776 DUP5 PUSH2 0x567E JUMP JUMPDEST SWAP4 POP DUP1 NOT DUP4 AND SWAP3 POP DUP1 DUP5 AND DUP4 OR SWAP2 POP POP SWAP3 SWAP2 POP POP JUMP JUMPDEST PUSH2 0x5795 DUP3 PUSH2 0x546A JUMP JUMPDEST PUSH2 0x57A8 PUSH2 0x57A1 DUP3 PUSH2 0x548C JUMP JUMPDEST DUP4 SLOAD PUSH2 0x574A JUMP JUMPDEST DUP3 SSTORE POP POP POP JUMP JUMPDEST PUSH2 0x57B8 DUP2 PUSH2 0x4869 JUMP JUMPDEST DUP2 EQ PUSH2 0x57C3 JUMPI PUSH1 0x0 DUP1 REVERT JUMPDEST POP JUMP JUMPDEST PUSH1 0x0 DUP2 CALLDATALOAD PUSH2 0x57D3 DUP2 PUSH2 0x57AF JUMP JUMPDEST DUP1 SWAP2 POP POP SWAP2 SWAP1 POP JUMP JUMPDEST PUSH1 0x0 DUP2 PUSH1 0xA0 SHL SWAP1 POP SWAP2 SWAP1 POP JUMP JUMPDEST PUSH1 0x0 PUSH21 0xFF0000000000000000000000000000000000000000 PUSH2 0x580A DUP5 PUSH2 0x57DC JUMP JUMPDEST SWAP4 POP DUP1 NOT DUP4 AND SWAP3 POP DUP1 DUP5 AND DUP4 OR SWAP2 POP POP SWAP3 SWAP2 POP POP JUMP JUMPDEST PUSH1 0x0 PUSH2 0x583B PUSH2 0x5836 PUSH2 0x5831 DUP5 PUSH2 0x4869 JUMP JUMPDEST PUSH2 0x5460 JUMP JUMPDEST PUSH2 0x4869 JUMP JUMPDEST SWAP1 POP SWAP2 SWAP1 POP JUMP JUMPDEST PUSH1 0x0 DUP2 SWAP1 POP SWAP2 SWAP1 POP JUMP JUMPDEST PUSH2 0x5855 DUP3 PUSH2 0x5820 JUMP JUMPDEST PUSH2 0x5868 PUSH2 0x5861 DUP3 PUSH2 0x5842 JUMP JUMPDEST DUP4 SLOAD PUSH2 0x57E9 JUMP JUMPDEST DUP3 SSTORE POP POP POP JUMP JUMPDEST PUSH1 0x6 DUP2 LT PUSH2 0x587C JUMPI PUSH1 0x0 DUP1 REVERT JUMPDEST POP JUMP JUMPDEST PUSH1 0x0 DUP2 CALLDATALOAD PUSH2 0x588C DUP2 PUSH2 0x586F JUMP JUMPDEST DUP1 SWAP2 POP POP SWAP2 SWAP1 POP JUMP JUMPDEST PUSH1 0x0 DUP2 PUSH1 0xA8 SHL SWAP1 POP SWAP2 SWAP1 POP JUMP JUMPDEST PUSH1 0x0 PUSH22 0xFF000000000000000000000000000000000000000000 PUSH2 0x58C4 DUP5 PUSH2 0x5895 JUMP JUMPDEST SWAP4 POP DUP1 NOT DUP4 AND SWAP3 POP DUP1 DUP5 AND DUP4 OR SWAP2 POP POP SWAP3 SWAP2 POP POP JUMP JUMPDEST PUSH1 0x0 PUSH2 0x58E5 DUP3 PUSH2 0x48C8 JUMP JUMPDEST SWAP1 POP SWAP2 SWAP1 POP JUMP JUMPDEST PUSH1 0x0 DUP2 SWAP1 POP SWAP2 SWAP1 POP JUMP JUMPDEST PUSH2 0x58FF DUP3 PUSH2 0x58DA JUMP JUMPDEST PUSH2 0x5912 PUSH2 0x590B DUP3 PUSH2 0x58EC JUMP JUMPDEST DUP4 SLOAD PUSH2 0x58A2 JUMP JUMPDEST DUP3 SSTORE POP POP POP JUMP JUMPDEST PUSH1 0x0 DUP2 ADD PUSH1 0x0 DUP4 ADD PUSH2 0x592B DUP2 DUP6 PUSH2 0x530E JUMP JUMPDEST PUSH2 0x5936 DUP2 DUP4 DUP7 PUSH2 0x5658 JUMP JUMPDEST POP POP POP POP PUSH1 0x1 DUP2 ADD PUSH1 0x20 DUP4 ADD PUSH2 0x594C DUP2 DUP6 PUSH2 0x530E JUMP JUMPDEST PUSH2 0x5957 DUP2 DUP4 DUP7 PUSH2 0x5658 JUMP JUMPDEST POP POP POP POP PUSH1 0x2 DUP2 ADD PUSH1 0x40 DUP4 ADD DUP1 PUSH2 0x596D DUP2 PUSH2 0x5668 JUMP JUMPDEST SWAP1 POP PUSH2 0x5979 DUP2 DUP5 PUSH2 0x5711 JUMP JUMPDEST POP POP POP PUSH1 0x3 DUP2 ADD PUSH1 0x60 DUP4 ADD DUP1 PUSH2 0x598E DUP2 PUSH2 0x5734 JUMP JUMPDEST SWAP1 POP PUSH2 0x599A DUP2 DUP5 PUSH2 0x578C JUMP JUMPDEST POP POP POP PUSH1 0x4 DUP2 ADD PUSH1 0x80 DUP4 ADD DUP1 PUSH2 0x59AF DUP2 PUSH2 0x5734 JUMP JUMPDEST SWAP1 POP PUSH2 0x59BB DUP2 DUP5 PUSH2 0x578C JUMP JUMPDEST POP POP POP PUSH1 0x5 DUP2 ADD PUSH1 0xA0 DUP4 ADD DUP1 PUSH2 0x59D0 DUP2 PUSH2 0x5734 JUMP JUMPDEST SWAP1 POP PUSH2 0x59DC DUP2 DUP5 PUSH2 0x578C JUMP JUMPDEST POP POP POP PUSH1 0x6 DUP2 ADD PUSH1 0xC0 DUP4 ADD DUP1 PUSH2 0x59F1 DUP2 PUSH2 0x5734 JUMP JUMPDEST SWAP1 POP PUSH2 0x59FD DUP2 DUP5 PUSH2 0x578C JUMP JUMPDEST POP POP POP PUSH1 0x7 DUP2 ADD PUSH1 0xE0 DUP4 ADD DUP1 PUSH2 0x5A12 DUP2 PUSH2 0x5734 JUMP JUMPDEST SWAP1 POP PUSH2 0x5A1E DUP2 DUP5 PUSH2 0x578C JUMP JUMPDEST POP POP POP PUSH1 0x8 DUP2 ADD PUSH2 0x100 DUP4 ADD DUP1 PUSH2 0x5A34 DUP2 PUSH2 0x5668 JUMP JUMPDEST SWAP1 POP PUSH2 0x5A40 DUP2 DUP5 PUSH2 0x5711 JUMP JUMPDEST POP POP POP PUSH1 0x8 DUP2 ADD PUSH2 0x120 DUP4 ADD DUP1 PUSH2 0x5A56 DUP2 PUSH2 0x57C6 JUMP JUMPDEST SWAP1 POP PUSH2 0x5A62 DUP2 DUP5 PUSH2 0x584C JUMP JUMPDEST POP POP POP PUSH1 0x8 DUP2 ADD PUSH2 0x140 DUP4 ADD DUP1 PUSH2 0x5A78 DUP2 PUSH2 0x587F JUMP JUMPDEST SWAP1 POP PUSH2 0x5A84 DUP2 DUP5 PUSH2 0x58F6 JUMP JUMPDEST POP POP POP POP POP JUMP JUMPDEST PUSH2 0x5A95 DUP3 DUP3 PUSH2 0x5919 JUMP JUMPDEST POP POP JUMP JUMPDEST PUSH1 0x0 DUP2 SLOAD SWAP1 POP PUSH2 0x5AA8 DUP2 PUSH2 0x53AB JUMP JUMPDEST SWAP1 POP SWAP2 SWAP1 POP JUMP JUMPDEST DUP2 DUP2 SUB PUSH2 0x5ABD JUMPI POP POP PUSH2 0x5B95 JUMP JUMPDEST PUSH2 0x5AC6 DUP3 PUSH2 0x5A99 JUMP JUMPDEST PUSH8 0xFFFFFFFFFFFFFFFF DUP2 GT ISZERO PUSH2 0x5ADF JUMPI PUSH2 0x5ADE PUSH2 0x4163 JUMP JUMPDEST JUMPDEST PUSH2 0x5AE9 DUP3 SLOAD PUSH2 0x53AB JUMP JUMPDEST PUSH2 0x5AF4 DUP3 DUP3 DUP6 PUSH2 0x54FB JUMP JUMPDEST PUSH1 0x0 PUSH1 0x1F DUP4 GT PUSH1 0x1 DUP2 EQ PUSH2 0x5B23 JUMPI PUSH1 0x0 DUP5 ISZERO PUSH2 0x5B11 JUMPI DUP3 DUP8 ADD SLOAD SWAP1 POP JUMPDEST PUSH2 0x5B1B DUP6 DUP3 PUSH2 0x556C JUMP JUMPDEST DUP7 SSTORE POP PUSH2 0x5B8E JUMP JUMPDEST PUSH1 0x1F NOT DUP5 AND PUSH2 0x5B31 DUP8 PUSH2 0x53DC JUMP JUMPDEST SWAP7 POP PUSH2 0x5B3C DUP7 PUSH2 0x53DC JUMP JUMPDEST PUSH1 0x0 JUMPDEST DUP3 DUP2 LT ISZERO PUSH2 0x5B64 JUMPI DUP5 DUP10 ADD SLOAD DUP3 SSTORE PUSH1 0x1 DUP3 ADD SWAP2 POP PUSH1 0x1 DUP6 ADD SWAP5 POP PUSH1 0x20 DUP2 ADD SWAP1 POP PUSH2 0x5B3F JUMP JUMPDEST DUP7 DUP4 LT ISZERO PUSH2 0x5B81 JUMPI DUP5 DUP10 ADD SLOAD PUSH2 0x5B7D PUSH1 0x1F DUP10 AND DUP3 PUSH2 0x554E JUMP JUMPDEST DUP4 SSTORE POP JUMPDEST PUSH1 0x1 PUSH1 0x2 DUP9 MUL ADD DUP9 SSTORE POP POP POP JUMPDEST POP POP POP POP POP POP JUMPDEST JUMP JUMPDEST PUSH1 0x0 DUP1 REVERT JUMPDEST PUSH1 0x0 DUP1 REVERT JUMPDEST PUSH1 0x0 DUP1 REVERT JUMPDEST PUSH1 0x0 DUP1 DUP4 CALLDATALOAD PUSH1 0x1 PUSH1 0x20 SUB DUP5 CALLDATASIZE SUB SUB DUP2 SLT PUSH2 0x5BC3 JUMPI PUSH2 0x5BC2 PUSH2 0x5BA1 JUMP JUMPDEST JUMPDEST DUP4 DUP2 ADD SWAP3 POP DUP3 CALLDATALOAD SWAP2 POP PUSH1 0x20 DUP4 ADD SWAP3 POP PUSH8 0xFFFFFFFFFFFFFFFF DUP3 GT ISZERO PUSH2 0x5BEB JUMPI PUSH2 0x5BEA PUSH2 0x5B97 JUMP JUMPDEST JUMPDEST PUSH1 0x1 DUP3 MUL CALLDATASIZE SUB DUP4 SGT ISZERO PUSH2 0x5C01 JUMPI PUSH2 0x5C00 PUSH2 0x5B9C JUMP JUMPDEST JUMPDEST POP SWAP3 POP SWAP3 SWAP1 POP JUMP JUMPDEST PUSH1 0x0 DUP3 DUP3 MSTORE PUSH1 0x20 DUP3 ADD SWAP1 POP SWAP3 SWAP2 POP POP JUMP JUMPDEST PUSH1 0x0 PUSH2 0x5C26 DUP4 DUP6 PUSH2 0x5C09 JUMP JUMPDEST SWAP4 POP PUSH2 0x5C33 DUP4 DUP6 DUP5 PUSH2 0x420F JUMP JUMPDEST PUSH2 0x5C3C DUP4 PUSH2 0x4152 JUMP JUMPDEST DUP5 ADD SWAP1 POP SWAP4 SWAP3 POP POP POP JUMP JUMPDEST PUSH1 0x0 PUSH2 0x5C56 PUSH1 0x20 DUP5 ADD DUP5 PUSH2 0x4133 JUMP JUMPDEST SWAP1 POP SWAP3 SWAP2 POP POP JUMP JUMPDEST PUSH1 0x0 PUSH2 0x5C6D PUSH1 0x20 DUP5 ADD DUP5 PUSH2 0x43F6 JUMP JUMPDEST SWAP1 POP SWAP3 SWAP2 POP POP JUMP JUMPDEST PUSH1 0x0 DUP2 CALLDATALOAD SWAP1 POP PUSH2 0x5C84 DUP2 PUSH2 0x57AF JUMP JUMPDEST SWAP3 SWAP2 POP POP JUMP JUMPDEST PUSH1 0x0 PUSH2 0x5C99 PUSH1 0x20 DUP5 ADD DUP5 PUSH2 0x5C75 JUMP JUMPDEST SWAP1 POP SWAP3 SWAP2 POP POP JUMP JUMPDEST PUSH2 0x5CAA DUP2 PUSH2 0x4869 JUMP JUMPDEST DUP3 MSTORE POP POP JUMP JUMPDEST PUSH1 0x0 DUP2 CALLDATALOAD SWAP1 POP PUSH2 0x5CBF DUP2 PUSH2 0x586F JUMP JUMPDEST SWAP3 SWAP2 POP POP JUMP JUMPDEST PUSH1 0x0 PUSH2 0x5CD4 PUSH1 0x20 DUP5 ADD DUP5 PUSH2 0x5CB0 JUMP JUMPDEST SWAP1 POP SWAP3 SWAP2 POP POP JUMP JUMPDEST PUSH2 0x5CE5 DUP2 PUSH2 0x48DB JUMP JUMPDEST DUP3 MSTORE POP POP JUMP JUMPDEST PUSH1 0x0 PUSH2 0x160 DUP4 ADD PUSH2 0x5CFF PUSH1 0x0 DUP5 ADD DUP5 PUSH2 0x5BA6 JUMP JUMPDEST DUP6 DUP4 SUB PUSH1 0x0 DUP8 ADD MSTORE PUSH2 0x5D12 DUP4 DUP3 DUP5 PUSH2 0x5C1A JUMP JUMPDEST SWAP3 POP POP POP PUSH2 0x5D23 PUSH1 0x20 DUP5 ADD DUP5 PUSH2 0x5BA6 JUMP JUMPDEST DUP6 DUP4 SUB PUSH1 0x20 DUP8 ADD MSTORE PUSH2 0x5D36 DUP4 DUP3 DUP5 PUSH2 0x5C1A JUMP JUMPDEST SWAP3 POP POP POP PUSH2 0x5D47 PUSH1 0x40 DUP5 ADD DUP5 PUSH2 0x5C47 JUMP JUMPDEST PUSH2 0x5D54 PUSH1 0x40 DUP7 ADD DUP3 PUSH2 0x4B06 JUMP JUMPDEST POP PUSH2 0x5D62 PUSH1 0x60 DUP5 ADD DUP5 PUSH2 0x5C5E JUMP JUMPDEST PUSH2 0x5D6F PUSH1 0x60 DUP7 ADD DUP3 PUSH2 0x4B15 JUMP JUMPDEST POP PUSH2 0x5D7D PUSH1 0x80 DUP5 ADD DUP5 PUSH2 0x5C5E JUMP JUMPDEST PUSH2 0x5D8A PUSH1 0x80 DUP7 ADD DUP3 PUSH2 0x4B15 JUMP JUMPDEST POP PUSH2 0x5D98 PUSH1 0xA0 DUP5 ADD DUP5 PUSH2 0x5C5E JUMP JUMPDEST PUSH2 0x5DA5 PUSH1 0xA0 DUP7 ADD DUP3 PUSH2 0x4B15 JUMP JUMPDEST POP PUSH2 0x5DB3 PUSH1 0xC0 DUP5 ADD DUP5 PUSH2 0x5C5E JUMP JUMPDEST PUSH2 0x5DC0 PUSH1 0xC0 DUP7 ADD DUP3 PUSH2 0x4B15 JUMP JUMPDEST POP PUSH2 0x5DCE PUSH1 0xE0 DUP5 ADD DUP5 PUSH2 0x5C5E JUMP JUMPDEST PUSH2 0x5DDB PUSH1 0xE0 DUP7 ADD DUP3 PUSH2 0x4B15 JUMP JUMPDEST POP PUSH2 0x5DEA PUSH2 0x100 DUP5 ADD DUP5 PUSH2 0x5C47 JUMP JUMPDEST PUSH2 0x5DF8 PUSH2 0x100 DUP7 ADD DUP3 PUSH2 0x4B06 JUMP JUMPDEST POP PUSH2 0x5E07 PUSH2 0x120 DUP5 ADD DUP5 PUSH2 0x5C8A JUMP JUMPDEST PUSH2 0x5E15 PUSH2 0x120 DUP7 ADD DUP3 PUSH2 0x5CA1 JUMP JUMPDEST POP PUSH2 0x5E24 PUSH2 0x140 DUP5 ADD DUP5 PUSH2 0x5CC5 JUMP JUMPDEST PUSH2 0x5E32 PUSH2 0x140 DUP7 ADD DUP3 PUSH2 0x5CDC JUMP JUMPDEST POP DUP1 SWAP2 POP POP SWAP3 SWAP2 POP POP JUMP JUMPDEST PUSH1 0x0 PUSH1 0x40 DUP3 ADD SWAP1 POP DUP2 DUP2 SUB PUSH1 0x0 DUP4 ADD MSTORE PUSH2 0x5E58 DUP2 DUP6 DUP8 PUSH2 0x4E31 JUMP JUMPDEST SWAP1 POP DUP2 DUP2 SUB PUSH1 0x20 DUP4 ADD MSTORE PUSH2 0x5E6C DUP2 DUP5 PUSH2 0x5CEB JUMP JUMPDEST SWAP1 POP SWAP5 SWAP4 POP POP POP POP JUMP JUMPDEST PUSH32 0x494E56414C49445F414444524553530000000000000000000000000000000000 PUSH1 0x0 DUP3 ADD MSTORE POP JUMP JUMPDEST PUSH1 0x0 PUSH2 0x5EAC PUSH1 0xF DUP4 PUSH2 0x45E9 JUMP JUMPDEST SWAP2 POP PUSH2 0x5EB7 DUP3 PUSH2 0x5E76 JUMP JUMPDEST PUSH1 0x20 DUP3 ADD SWAP1 POP SWAP2 SWAP1 POP JUMP JUMPDEST PUSH1 0x0 PUSH1 0x20 DUP3 ADD SWAP1 POP DUP2 DUP2 SUB PUSH1 0x0 DUP4 ADD MSTORE PUSH2 0x5EDB DUP2 PUSH2 0x5E9F JUMP JUMPDEST SWAP1 POP SWAP2 SWAP1 POP JUMP JUMPDEST PUSH32 0x434845434B5F594F55525F535441545553000000000000000000000000000000 PUSH1 0x0 DUP3 ADD MSTORE POP JUMP JUMPDEST PUSH1 0x0 PUSH2 0x5F18 PUSH1 0x11 DUP4 PUSH2 0x45E9 JUMP JUMPDEST SWAP2 POP PUSH2 0x5F23 DUP3 PUSH2 0x5EE2 JUMP JUMPDEST PUSH1 0x20 DUP3 ADD SWAP1 POP SWAP2 SWAP1 POP JUMP JUMPDEST PUSH1 0x0 PUSH1 0x20 DUP3 ADD SWAP1 POP DUP2 DUP2 SUB PUSH1 0x0 DUP4 ADD MSTORE PUSH2 0x5F47 DUP2 PUSH2 0x5F0B JUMP JUMPDEST SWAP1 POP SWAP2 SWAP1 POP JUMP JUMPDEST PUSH1 0x0 DUP2 ADD PUSH1 0x0 DUP4 ADD PUSH2 0x5F60 DUP2 DUP6 PUSH2 0x530E JUMP JUMPDEST PUSH2 0x5F6B DUP2 DUP4 DUP7 PUSH2 0x5658 JUMP JUMPDEST POP POP POP POP PUSH1 0x1 DUP2 ADD PUSH1 0x20 DUP4 ADD PUSH2 0x5F81 DUP2 DUP6 PUSH2 0x530E JUMP JUMPDEST PUSH2 0x5F8C DUP2 DUP4 DUP7 PUSH2 0x5658 JUMP JUMPDEST POP POP POP POP PUSH1 0x2 DUP2 ADD PUSH1 0x40 DUP4 ADD PUSH2 0x5FA2 DUP2 DUP6 PUSH2 0x530E JUMP JUMPDEST PUSH2 0x5FAD DUP2 DUP4 DUP7 PUSH2 0x5658 JUMP JUMPDEST POP POP POP POP PUSH1 0x3 DUP2 ADD PUSH1 0x60 DUP4 ADD PUSH2 0x5FC3 DUP2 DUP6 PUSH2 0x530E JUMP JUMPDEST PUSH2 0x5FCE DUP2 DUP4 DUP7 PUSH2 0x5658 JUMP JUMPDEST POP POP POP POP PUSH1 0x4 DUP2 ADD PUSH1 0x80 DUP4 ADD PUSH2 0x5FE4 DUP2 DUP6 PUSH2 0x530E JUMP JUMPDEST PUSH2 0x5FEF DUP2 DUP4 DUP7 PUSH2 0x5658 JUMP JUMPDEST POP POP POP POP PUSH1 0x5 DUP2 ADD PUSH1 0xA0 DUP4 ADD DUP1 PUSH2 0x6005 DUP2 PUSH2 0x5734 JUMP JUMPDEST SWAP1 POP PUSH2 0x6011 DUP2 DUP5 PUSH2 0x578C JUMP JUMPDEST POP POP POP PUSH1 0x6 DUP2 ADD PUSH1 0xC0 DUP4 ADD DUP1 PUSH2 0x6026 DUP2 PUSH2 0x5668 JUMP JUMPDEST SWAP1 POP PUSH2 0x6032 DUP2 DUP5 PUSH2 0x5711 JUMP JUMPDEST POP POP POP POP POP JUMP JUMPDEST PUSH2 0x6043 DUP3 DUP3 PUSH2 0x5F4E JUMP JUMPDEST POP POP JUMP JUMPDEST PUSH32 0x4F4E4C595F544F504F535F4D414E414745520000000000000000000000000000 PUSH1 0x0 DUP3 ADD MSTORE POP JUMP JUMPDEST PUSH1 0x0 PUSH2 0x607D PUSH1 0x12 DUP4 PUSH2 0x45E9 JUMP JUMPDEST SWAP2 POP PUSH2 0x6088 DUP3 PUSH2 0x6047 JUMP JUMPDEST PUSH1 0x20 DUP3 ADD SWAP1 POP SWAP2 SWAP1 POP JUMP JUMPDEST PUSH1 0x0 PUSH1 0x20 DUP3 ADD SWAP1 POP DUP2 DUP2 SUB PUSH1 0x0 DUP4 ADD MSTORE PUSH2 0x60AC DUP2 PUSH2 0x6070 JUMP JUMPDEST SWAP1 POP SWAP2 SWAP1 POP JUMP JUMPDEST PUSH1 0x0 PUSH2 0x160 DUP4 ADD PUSH2 0x60C7 PUSH1 0x0 DUP5 ADD DUP5 PUSH2 0x5BA6 JUMP JUMPDEST DUP6 DUP4 SUB PUSH1 0x0 DUP8 ADD MSTORE PUSH2 0x60DA DUP4 DUP3 DUP5 PUSH2 0x5C1A JUMP JUMPDEST SWAP3 POP POP POP PUSH2 0x60EB PUSH1 0x20 DUP5 ADD DUP5 PUSH2 0x5BA6 JUMP JUMPDEST DUP6 DUP4 SUB PUSH1 0x20 DUP8 ADD MSTORE PUSH2 0x60FE DUP4 DUP3 DUP5 PUSH2 0x5C1A JUMP JUMPDEST SWAP3 POP POP POP PUSH2 0x610F PUSH1 0x40 DUP5 ADD DUP5 PUSH2 0x5BA6 JUMP JUMPDEST DUP6 DUP4 SUB PUSH1 0x40 DUP8 ADD MSTORE PUSH2 0x6122 DUP4 DUP3 DUP5 PUSH2 0x5C1A JUMP JUMPDEST SWAP3 POP POP POP PUSH2 0x6133 PUSH1 0x60 DUP5 ADD DUP5 PUSH2 0x5C47 JUMP JUMPDEST PUSH2 0x6140 PUSH1 0x60 DUP7 ADD DUP3 PUSH2 0x4B06 JUMP JUMPDEST POP PUSH2 0x614E PUSH1 0x80 DUP5 ADD DUP5 PUSH2 0x5C5E JUMP JUMPDEST PUSH2 0x615B PUSH1 0x80 DUP7 ADD DUP3 PUSH2 0x4B15 JUMP JUMPDEST POP PUSH2 0x6169 PUSH1 0xA0 DUP5 ADD DUP5 PUSH2 0x5C5E JUMP JUMPDEST PUSH2 0x6176 PUSH1 0xA0 DUP7 ADD DUP3 PUSH2 0x4B15 JUMP JUMPDEST POP PUSH2 0x6184 PUSH1 0xC0 DUP5 ADD DUP5 PUSH2 0x5C5E JUMP JUMPDEST PUSH2 0x6191 PUSH1 0xC0 DUP7 ADD DUP3 PUSH2 0x4B15 JUMP JUMPDEST POP PUSH2 0x619F PUSH1 0xE0 DUP5 ADD DUP5 PUSH2 0x5C8A JUMP JUMPDEST PUSH2 0x61AC PUSH1 0xE0 DUP7 ADD DUP3 PUSH2 0x5CA1 JUMP JUMPDEST POP PUSH2 0x61BB PUSH2 0x100 DUP5 ADD DUP5 PUSH2 0x5C5E JUMP JUMPDEST PUSH2 0x61C9 PUSH2 0x100 DUP7 ADD DUP3 PUSH2 0x4B15 JUMP JUMPDEST POP PUSH2 0x61D8 PUSH2 0x120 DUP5 ADD DUP5 PUSH2 0x5C5E JUMP JUMPDEST PUSH2 0x61E6 PUSH2 0x120 DUP7 ADD DUP3 PUSH2 0x4B15 JUMP JUMPDEST POP PUSH2 0x61F5 PUSH2 0x140 DUP5 ADD DUP5 PUSH2 0x5C5E JUMP JUMPDEST PUSH2 0x6203 PUSH2 0x140 DUP7 ADD DUP3 PUSH2 0x4B15 JUMP JUMPDEST POP DUP1 SWAP2 POP POP SWAP3 SWAP2 POP POP JUMP JUMPDEST PUSH1 0x0 PUSH1 0x20 DUP3 ADD SWAP1 POP DUP2 DUP2 SUB PUSH1 0x0 DUP4 ADD MSTORE PUSH2 0x6228 DUP2 DUP5 PUSH2 0x60B3 JUMP JUMPDEST SWAP1 POP SWAP3 SWAP2 POP POP JUMP JUMPDEST PUSH1 0x0 PUSH1 0xFF PUSH2 0x623D DUP5 PUSH2 0x567E JUMP JUMPDEST SWAP4 POP DUP1 NOT DUP4 AND SWAP3 POP DUP1 DUP5 AND DUP4 OR SWAP2 POP POP SWAP3 SWAP2 POP POP JUMP JUMPDEST PUSH2 0x625C DUP3 PUSH2 0x5820 JUMP JUMPDEST PUSH2 0x626F PUSH2 0x6268 DUP3 PUSH2 0x5842 JUMP JUMPDEST DUP4 SLOAD PUSH2 0x6230 JUMP JUMPDEST DUP3 SSTORE POP POP POP JUMP JUMPDEST PUSH1 0x0 DUP2 ADD PUSH1 0x0 DUP4 ADD PUSH2 0x6288 DUP2 DUP6 PUSH2 0x530E JUMP JUMPDEST PUSH2 0x6293 DUP2 DUP4 DUP7 PUSH2 0x5658 JUMP JUMPDEST POP POP POP POP PUSH1 0x1 DUP2 ADD PUSH1 0x20 DUP4 ADD PUSH2 0x62A9 DUP2 DUP6 PUSH2 0x530E JUMP JUMPDEST PUSH2 0x62B4 DUP2 DUP4 DUP7 PUSH2 0x5658 JUMP JUMPDEST POP POP POP POP PUSH1 0x2 DUP2 ADD PUSH1 0x40 DUP4 ADD PUSH2 0x62CA DUP2 DUP6 PUSH2 0x530E JUMP JUMPDEST PUSH2 0x62D5 DUP2 DUP4 DUP7 PUSH2 0x5658 JUMP JUMPDEST POP POP POP POP PUSH1 0x3 DUP2 ADD PUSH1 0x60 DUP4 ADD DUP1 PUSH2 0x62EB DUP2 PUSH2 0x5668 JUMP JUMPDEST SWAP1 POP PUSH2 0x62F7 DUP2 DUP5 PUSH2 0x5711 JUMP JUMPDEST POP POP POP PUSH1 0x4 DUP2 ADD PUSH1 0x80 DUP4 ADD DUP1 PUSH2 0x630C DUP2 PUSH2 0x5734 JUMP JUMPDEST SWAP1 POP PUSH2 0x6318 DUP2 DUP5 PUSH2 0x578C JUMP JUMPDEST POP POP POP PUSH1 0x5 DUP2 ADD PUSH1 0xA0 DUP4 ADD DUP1 PUSH2 0x632D DUP2 PUSH2 0x5734 JUMP JUMPDEST SWAP1 POP PUSH2 0x6339 DUP2 DUP5 PUSH2 0x578C JUMP JUMPDEST POP POP POP PUSH1 0x6 DUP2 ADD PUSH1 0xC0 DUP4 ADD DUP1 PUSH2 0x634E DUP2 PUSH2 0x5734 JUMP JUMPDEST SWAP1 POP PUSH2 0x635A DUP2 DUP5 PUSH2 0x578C JUMP JUMPDEST POP POP POP PUSH1 0x7 DUP2 ADD PUSH1 0xE0 DUP4 ADD DUP1 PUSH2 0x636F DUP2 PUSH2 0x57C6 JUMP JUMPDEST SWAP1 POP PUSH2 0x637B DUP2 DUP5 PUSH2 0x6253 JUMP JUMPDEST POP POP POP PUSH1 0x8 DUP2 ADD PUSH2 0x100 DUP4 ADD DUP1 PUSH2 0x6391 DUP2 PUSH2 0x5734 JUMP JUMPDEST SWAP1 POP PUSH2 0x639D DUP2 DUP5 PUSH2 0x578C JUMP JUMPDEST POP POP POP PUSH1 0x9 DUP2 ADD PUSH2 0x120 DUP4 ADD DUP1 PUSH2 0x63B3 DUP2 PUSH2 0x5734 JUMP JUMPDEST SWAP1 POP PUSH2 0x63BF DUP2 DUP5 PUSH2 0x578C JUMP JUMPDEST POP POP POP PUSH1 0xA DUP2 ADD PUSH2 0x140 DUP4 ADD DUP1 PUSH2 0x63D5 DUP2 PUSH2 0x5734 JUMP JUMPDEST SWAP1 POP PUSH2 0x63E1 DUP2 DUP5 PUSH2 0x578C JUMP JUMPDEST POP POP POP POP POP JUMP JUMPDEST PUSH2 0x63F2 DUP3 DUP3 PUSH2 0x6276 JUMP JUMPDEST POP POP JUMP JUMPDEST PUSH32 0x494E56414C49445F434F4E54524143545F414444524553530000000000000000 PUSH1 0x0 DUP3 ADD MSTORE POP JUMP JUMPDEST PUSH1 0x0 PUSH2 0x642C PUSH1 0x18 DUP4 PUSH2 0x45E9 JUMP JUMPDEST SWAP2 POP PUSH2 0x6437 DUP3 PUSH2 0x63F6 JUMP JUMPDEST PUSH1 0x20 DUP3 ADD SWAP1 POP SWAP2 SWAP1 POP JUMP JUMPDEST PUSH1 0x0 PUSH1 0x20 DUP3 ADD SWAP1 POP DUP2 DUP2 SUB PUSH1 0x0 DUP4 ADD MSTORE PUSH2 0x645B DUP2 PUSH2 0x641F JUMP JUMPDEST SWAP1 POP SWAP2 SWAP1 POP JUMP JUMPDEST PUSH32 0x494E564553544F52000000000000000000000000000000000000000000000000 PUSH1 0x0 DUP3 ADD MSTORE POP JUMP JUMPDEST PUSH1 0x0 PUSH2 0x6498 PUSH1 0x8 DUP4 PUSH2 0x45E9 JUMP JUMPDEST SWAP2 POP PUSH2 0x64A3 DUP3 PUSH2 0x6462 JUMP JUMPDEST PUSH1 0x20 DUP3 ADD SWAP1 POP SWAP2 SWAP1 POP JUMP JUMPDEST PUSH1 0x0 PUSH1 0x40 DUP3 ADD SWAP1 POP DUP2 DUP2 SUB PUSH1 0x0 DUP4 ADD MSTORE PUSH2 0x64C7 DUP2 PUSH2 0x648B JUMP JUMPDEST SWAP1 POP PUSH2 0x64D6 PUSH1 0x20 DUP4 ADD DUP5 PUSH2 0x4355 JUMP JUMPDEST SWAP3 SWAP2 POP POP JUMP JUMPDEST PUSH32 0x4953535545520000000000000000000000000000000000000000000000000000 PUSH1 0x0 DUP3 ADD MSTORE POP JUMP JUMPDEST PUSH1 0x0 PUSH2 0x6512 PUSH1 0x6 DUP4 PUSH2 0x45E9 JUMP JUMPDEST SWAP2 POP PUSH2 0x651D DUP3 PUSH2 0x64DC JUMP JUMPDEST PUSH1 0x20 DUP3 ADD SWAP1 POP SWAP2 SWAP1 POP JUMP JUMPDEST PUSH1 0x0 PUSH1 0x40 DUP3 ADD SWAP1 POP DUP2 DUP2 SUB PUSH1 0x0 DUP4 ADD MSTORE PUSH2 0x6541 DUP2 PUSH2 0x6505 JUMP JUMPDEST SWAP1 POP PUSH2 0x6550 PUSH1 0x20 DUP4 ADD DUP5 PUSH2 0x4355 JUMP JUMPDEST SWAP3 SWAP2 POP POP JUMP JUMPDEST PUSH32 0x4D414E4147455200000000000000000000000000000000000000000000000000 PUSH1 0x0 DUP3 ADD MSTORE POP JUMP JUMPDEST PUSH1 0x0 PUSH2 0x658C PUSH1 0x7 DUP4 PUSH2 0x45E9 JUMP JUMPDEST SWAP2 POP PUSH2 0x6597 DUP3 PUSH2 0x6556 JUMP JUMPDEST PUSH1 0x20 DUP3 ADD SWAP1 POP SWAP2 SWAP1 POP JUMP JUMPDEST PUSH1 0x0 PUSH1 0x40 DUP3 ADD SWAP1 POP DUP2 DUP2 SUB PUSH1 0x0 DUP4 ADD MSTORE PUSH2 0x65BB DUP2 PUSH2 0x657F JUMP JUMPDEST SWAP1 POP PUSH2 0x65CA PUSH1 0x20 DUP4 ADD DUP5 PUSH2 0x4355 JUMP JUMPDEST SWAP3 SWAP2 POP POP JUMP JUMPDEST PUSH1 0x0 DUP2 ADD PUSH1 0x0 DUP4 ADD PUSH2 0x65E2 DUP2 DUP6 PUSH2 0x530E JUMP JUMPDEST PUSH2 0x65ED DUP2 DUP4 DUP7 PUSH2 0x5658 JUMP JUMPDEST POP POP POP POP PUSH1 0x1 DUP2 ADD PUSH1 0x20 DUP4 ADD PUSH2 0x6603 DUP2 DUP6 PUSH2 0x530E JUMP JUMPDEST PUSH2 0x660E DUP2 DUP4 DUP7 PUSH2 0x5658 JUMP JUMPDEST POP POP POP POP PUSH1 0x2 DUP2 ADD PUSH1 0x40 DUP4 ADD PUSH2 0x6624 DUP2 DUP6 PUSH2 0x530E JUMP JUMPDEST PUSH2 0x662F DUP2 DUP4 DUP7 PUSH2 0x5658 JUMP JUMPDEST POP POP POP POP PUSH1 0x3 DUP2 ADD PUSH1 0x60 DUP4 ADD DUP1 PUSH2 0x6645 DUP2 PUSH2 0x5668 JUMP JUMPDEST SWAP1 POP PUSH2 0x6651 DUP2 DUP5 PUSH2 0x5711 JUMP JUMPDEST POP POP POP POP POP JUMP JUMPDEST PUSH2 0x6662 DUP3 DUP3 PUSH2 0x65D0 JUMP JUMPDEST POP POP JUMP INVALID LOG2 PUSH5 0x6970667358 0x22 SLT KECCAK256 DUP6 DUP9 0xD9 0xCE PUSH1 0x23 DUP5 NOT 0xD9 SELFBALANCE 0x25 STOP 0xC4 0xEE 0xF8 REVERT 0xB5 ISZERO 0xC PUSH2 0x7EBD 0xE7 PC PUSH19 0x6827F4822F938264736F6C6343000813003300 "},"methodIdentifiers":{"amountInvested(address,string)":"041e9b89","approveDeal(string)":"48f92ee8","approveInvestor(address)":"7de14129","approveIssuer(address)":"82deb86e","dealBondContracts(string)":"fe0ab4b3","dealFees()":"af9080f8","dealInvestment(string,uint256)":"499fa18a","deals(string)":"a0a57dac","getDealFees()":"ff6689d0","getDealInvestment(string)":"c8d7f62e","getTotalAmounInvested(string)":"605936ea","identityRegistryContract()":"088674e0","investorStatus(address)":"f936d49d","investors(address)":"6f7bc9be","issue(string,(string,string,string,address,uint256,uint256,uint256,uint8,uint256,uint256,uint256),address)":"507251cb","issuerDeals(address,uint256)":"49f5d1d9","issuerStatus(address)":"fcbb3c18","issuers(address)":"38a7543e","issuersFundContract()":"fb90e441","redeem(string,address)":"d7c4029c","registerForDeal(string,uint256)":"0df8bfda","rejectDeal(string)":"754f399a","rejectInvestor(address)":"d304a813","rejectIssuer(address)":"c88efe65","requestRegistrationInvestor((string,string,string,address))":"d31628a0","requestRegistrationIssuer((string,string,string,string,string,uint256,address))":"3dc349be","rolesContract()":"ca53b391","setBondContractAddress(string,address)":"1882c195","setIssuerFundContract(address)":"7bafe3d0","setManager(address)":"d0ebdbe7","submitDeal(string,(string,string,address,uint256,uint256,uint256,uint256,uint256,address,uint8,uint8))":"23c8d706","toposManager()":"7f31ed73","totalAmountInvestedForDeal(string)":"5ed7e2c1","withdrawIssuerFund(string)":"1b59122c"}}}}}