{"contracts/utils/Roles.sol":{"Roles":{"abi":[{"inputs":[],"stateMutability":"nonpayable","type":"constructor"},{"inputs":[{"internalType":"address","name":"_user","type":"address"}],"name":"getRole","outputs":[{"internalType":"string","name":"","type":"string"}],"stateMutability":"view","type":"function"},{"inputs":[{"internalType":"address","name":"_user","type":"address"}],"name":"isInvestor","outputs":[{"internalType":"bool","name":"","type":"bool"}],"stateMutability":"view","type":"function"},{"inputs":[{"internalType":"address","name":"_user","type":"address"}],"name":"isIssuer","outputs":[{"internalType":"bool","name":"","type":"bool"}],"stateMutability":"view","type":"function"},{"inputs":[],"name":"owner","outputs":[{"internalType":"address","name":"","type":"address"}],"stateMutability":"view","type":"function"},{"inputs":[{"internalType":"string","name":"_role","type":"string"},{"internalType":"address","name":"_user","type":"address"}],"name":"setRole","outputs":[],"stateMutability":"nonpayable","type":"function"},{"inputs":[{"internalType":"address","name":"_toposBankContract","type":"address"}],"name":"setToposBankContract","outputs":[],"stateMutability":"nonpayable","type":"function"},{"inputs":[],"name":"toposBankContract","outputs":[{"internalType":"address","name":"","type":"address"}],"stateMutability":"view","type":"function"}],"evm":{"bytecode":{"linkReferences":{},"object":"608060405234801561001057600080fd5b5033600160006101000a81548173ffffffffffffffffffffffffffffffffffffffff021916908373ffffffffffffffffffffffffffffffffffffffff160217905550610e1b806100616000396000f3fe608060405234801561001057600080fd5b506004361061007d5760003560e01c80638da5cb5b1161005b5780638da5cb5b146100fe5780639c34712a1461011c578063cee2a9cf1461013a578063cfde18901461016a5761007d565b8063386c210614610082578063442767331461009e578063877b9a67146100ce575b600080fd5b61009c600480360381019061009791906105ee565b610186565b005b6100b860048036038101906100b391906105ee565b61025a565b6040516100c591906106ab565b60405180910390f35b6100e860048036038101906100e391906105ee565b61032a565b6040516100f591906106e8565b60405180910390f35b6101066103bd565b6040516101139190610712565b60405180910390f35b6101246103e3565b6040516101319190610712565b60405180910390f35b610154600480360381019061014f91906105ee565b610409565b60405161016191906106e8565b60405180910390f35b610184600480360381019061017f9190610862565b61049c565b005b600160009054906101000a900473ffffffffffffffffffffffffffffffffffffffff1673ffffffffffffffffffffffffffffffffffffffff163373ffffffffffffffffffffffffffffffffffffffff1614610216576040517f08c379a000000000000000000000000000000000000000000000000000000000815260040161020d9061090a565b60405180910390fd5b80600260006101000a81548173ffffffffffffffffffffffffffffffffffffffff021916908373ffffffffffffffffffffffffffffffffffffffff16021790555050565b60606000808373ffffffffffffffffffffffffffffffffffffffff1673ffffffffffffffffffffffffffffffffffffffff16815260200190815260200160002080546102a590610959565b80601f01602080910402602001604051908101604052809291908181526020018280546102d190610959565b801561031e5780601f106102f35761010080835404028352916020019161031e565b820191906000526020600020905b81548152906001019060200180831161030157829003601f168201915b50505050509050919050565b600060405160200161033b906109e1565b604051602081830303815290604052805190602001206000808473ffffffffffffffffffffffffffffffffffffffff1673ffffffffffffffffffffffffffffffffffffffff16815260200190815260200160002060405160200161039f9190610a8e565b60405160208183030381529060405280519060200120149050919050565b600160009054906101000a900473ffffffffffffffffffffffffffffffffffffffff1681565b600260009054906101000a900473ffffffffffffffffffffffffffffffffffffffff1681565b600060405160200161041a90610af1565b604051602081830303815290604052805190602001206000808473ffffffffffffffffffffffffffffffffffffffff1673ffffffffffffffffffffffffffffffffffffffff16815260200190815260200160002060405160200161047e9190610a8e565b60405160208183030381529060405280519060200120149050919050565b600260009054906101000a900473ffffffffffffffffffffffffffffffffffffffff1673ffffffffffffffffffffffffffffffffffffffff163373ffffffffffffffffffffffffffffffffffffffff161461052c576040517f08c379a000000000000000000000000000000000000000000000000000000000815260040161052390610b52565b60405180910390fd5b816000808373ffffffffffffffffffffffffffffffffffffffff1673ffffffffffffffffffffffffffffffffffffffff16815260200190815260200160002090816105779190610d13565b505050565b6000604051905090565b600080fd5b600080fd5b600073ffffffffffffffffffffffffffffffffffffffff82169050919050565b60006105bb82610590565b9050919050565b6105cb816105b0565b81146105d657600080fd5b50565b6000813590506105e8816105c2565b92915050565b60006020828403121561060457610603610586565b5b6000610612848285016105d9565b91505092915050565b600081519050919050565b600082825260208201905092915050565b60005b8381101561065557808201518184015260208101905061063a565b60008484015250505050565b6000601f19601f8301169050919050565b600061067d8261061b565b6106878185610626565b9350610697818560208601610637565b6106a081610661565b840191505092915050565b600060208201905081810360008301526106c58184610672565b905092915050565b60008115159050919050565b6106e2816106cd565b82525050565b60006020820190506106fd60008301846106d9565b92915050565b61070c816105b0565b82525050565b60006020820190506107276000830184610703565b92915050565b600080fd5b600080fd5b7f4e487b7100000000000000000000000000000000000000000000000000000000600052604160045260246000fd5b61076f82610661565b810181811067ffffffffffffffff8211171561078e5761078d610737565b5b80604052505050565b60006107a161057c565b90506107ad8282610766565b919050565b600067ffffffffffffffff8211156107cd576107cc610737565b5b6107d682610661565b9050602081019050919050565b82818337600083830152505050565b6000610805610800846107b2565b610797565b90508281526020810184848401111561082157610820610732565b5b61082c8482856107e3565b509392505050565b600082601f8301126108495761084861072d565b5b81356108598482602086016107f2565b91505092915050565b6000806040838503121561087957610878610586565b5b600083013567ffffffffffffffff8111156108975761089661058b565b5b6108a385828601610834565b92505060206108b4858286016105d9565b9150509250929050565b7f4f4e4c595f4f574e455200000000000000000000000000000000000000000000600082015250565b60006108f4600a83610626565b91506108ff826108be565b602082019050919050565b60006020820190508181036000830152610923816108e7565b9050919050565b7f4e487b7100000000000000000000000000000000000000000000000000000000600052602260045260246000fd5b6000600282049050600182168061097157607f821691505b6020821081036109845761098361092a565b5b50919050565b600081905092915050565b7f4953535545520000000000000000000000000000000000000000000000000000600082015250565b60006109cb60068361098a565b91506109d682610995565b600682019050919050565b60006109ec826109be565b9150819050919050565b60008190508160005260206000209050919050565b60008154610a1881610959565b610a22818661098a565b94506001821660008114610a3d5760018114610a5257610a85565b60ff1983168652811515820286019350610a85565b610a5b856109f6565b60005b83811015610a7d57815481890152600182019150602081019050610a5e565b838801955050505b50505092915050565b6000610a9a8284610a0b565b915081905092915050565b7f494e564553544f52000000000000000000000000000000000000000000000000600082015250565b6000610adb60088361098a565b9150610ae682610aa5565b600882019050919050565b6000610afc82610ace565b9150819050919050565b7f526f6c65733a204f4e4c595f544f504f535f42414e4b00000000000000000000600082015250565b6000610b3c601683610626565b9150610b4782610b06565b602082019050919050565b60006020820190508181036000830152610b6b81610b2f565b9050919050565b60006020601f8301049050919050565b600082821b905092915050565b600060088302610bbf7fffffffffffffffffffffffffffffffffffffffffffffffffffffffffffffffff82610b82565b610bc98683610b82565b95508019841693508086168417925050509392505050565b6000819050919050565b6000819050919050565b6000610c10610c0b610c0684610be1565b610beb565b610be1565b9050919050565b6000819050919050565b610c2a83610bf5565b610c3e610c3682610c17565b848454610b8f565b825550505050565b600090565b610c53610c46565b610c5e818484610c21565b505050565b5b81811015610c8257610c77600082610c4b565b600181019050610c64565b5050565b601f821115610cc757610c98816109f6565b610ca184610b72565b81016020851015610cb0578190505b610cc4610cbc85610b72565b830182610c63565b50505b505050565b600082821c905092915050565b6000610cea60001984600802610ccc565b1980831691505092915050565b6000610d038383610cd9565b9150826002028217905092915050565b610d1c8261061b565b67ffffffffffffffff811115610d3557610d34610737565b5b610d3f8254610959565b610d4a828285610c86565b600060209050601f831160018114610d7d5760008415610d6b578287015190505b610d758582610cf7565b865550610ddd565b601f198416610d8b866109f6565b60005b82811015610db357848901518255600182019150602085019450602081019050610d8e565b86831015610dd05784890151610dcc601f891682610cd9565b8355505b6001600288020188555050505b50505050505056fea2646970667358221220662ac5a8324ff3fb7612ce3e0192a8b9e29c1f4a7ac3ce17ff8223ed408ea91664736f6c63430008130033","opcodes":"PUSH1 0x80 PUSH1 0x40 MSTORE CALLVALUE DUP1 ISZERO PUSH2 0x10 JUMPI PUSH1 0x0 DUP1 REVERT JUMPDEST POP CALLER PUSH1 0x1 PUSH1 0x0 PUSH2 0x100 EXP DUP2 SLOAD DUP2 PUSH20 0xFFFFFFFFFFFFFFFFFFFFFFFFFFFFFFFFFFFFFFFF MUL NOT AND SWAP1 DUP4 PUSH20 0xFFFFFFFFFFFFFFFFFFFFFFFFFFFFFFFFFFFFFFFF AND MUL OR SWAP1 SSTORE POP PUSH2 0xE1B DUP1 PUSH2 0x61 PUSH1 0x0 CODECOPY PUSH1 0x0 RETURN INVALID PUSH1 0x80 PUSH1 0x40 MSTORE CALLVALUE DUP1 ISZERO PUSH2 0x10 JUMPI PUSH1 0x0 DUP1 REVERT JUMPDEST POP PUSH1 0x4 CALLDATASIZE LT PUSH2 0x7D JUMPI PUSH1 0x0 CALLDATALOAD PUSH1 0xE0 SHR DUP1 PUSH4 0x8DA5CB5B GT PUSH2 0x5B JUMPI DUP1 PUSH4 0x8DA5CB5B EQ PUSH2 0xFE JUMPI DUP1 PUSH4 0x9C34712A EQ PUSH2 0x11C JUMPI DUP1 PUSH4 0xCEE2A9CF EQ PUSH2 0x13A JUMPI DUP1 PUSH4 0xCFDE1890 EQ PUSH2 0x16A JUMPI PUSH2 0x7D JUMP JUMPDEST DUP1 PUSH4 0x386C2106 EQ PUSH2 0x82 JUMPI DUP1 PUSH4 0x44276733 EQ PUSH2 0x9E JUMPI DUP1 PUSH4 0x877B9A67 EQ PUSH2 0xCE JUMPI JUMPDEST PUSH1 0x0 DUP1 REVERT JUMPDEST PUSH2 0x9C PUSH1 0x4 DUP1 CALLDATASIZE SUB DUP2 ADD SWAP1 PUSH2 0x97 SWAP2 SWAP1 PUSH2 0x5EE JUMP JUMPDEST PUSH2 0x186 JUMP JUMPDEST STOP JUMPDEST PUSH2 0xB8 PUSH1 0x4 DUP1 CALLDATASIZE SUB DUP2 ADD SWAP1 PUSH2 0xB3 SWAP2 SWAP1 PUSH2 0x5EE JUMP JUMPDEST PUSH2 0x25A JUMP JUMPDEST PUSH1 0x40 MLOAD PUSH2 0xC5 SWAP2 SWAP1 PUSH2 0x6AB JUMP JUMPDEST PUSH1 0x40 MLOAD DUP1 SWAP2 SUB SWAP1 RETURN JUMPDEST PUSH2 0xE8 PUSH1 0x4 DUP1 CALLDATASIZE SUB DUP2 ADD SWAP1 PUSH2 0xE3 SWAP2 SWAP1 PUSH2 0x5EE JUMP JUMPDEST PUSH2 0x32A JUMP JUMPDEST PUSH1 0x40 MLOAD PUSH2 0xF5 SWAP2 SWAP1 PUSH2 0x6E8 JUMP JUMPDEST PUSH1 0x40 MLOAD DUP1 SWAP2 SUB SWAP1 RETURN JUMPDEST PUSH2 0x106 PUSH2 0x3BD JUMP JUMPDEST PUSH1 0x40 MLOAD PUSH2 0x113 SWAP2 SWAP1 PUSH2 0x712 JUMP JUMPDEST PUSH1 0x40 MLOAD DUP1 SWAP2 SUB SWAP1 RETURN JUMPDEST PUSH2 0x124 PUSH2 0x3E3 JUMP JUMPDEST PUSH1 0x40 MLOAD PUSH2 0x131 SWAP2 SWAP1 PUSH2 0x712 JUMP JUMPDEST PUSH1 0x40 MLOAD DUP1 SWAP2 SUB SWAP1 RETURN JUMPDEST PUSH2 0x154 PUSH1 0x4 DUP1 CALLDATASIZE SUB DUP2 ADD SWAP1 PUSH2 0x14F SWAP2 SWAP1 PUSH2 0x5EE JUMP JUMPDEST PUSH2 0x409 JUMP JUMPDEST PUSH1 0x40 MLOAD PUSH2 0x161 SWAP2 SWAP1 PUSH2 0x6E8 JUMP JUMPDEST PUSH1 0x40 MLOAD DUP1 SWAP2 SUB SWAP1 RETURN JUMPDEST PUSH2 0x184 PUSH1 0x4 DUP1 CALLDATASIZE SUB DUP2 ADD SWAP1 PUSH2 0x17F SWAP2 SWAP1 PUSH2 0x862 JUMP JUMPDEST PUSH2 0x49C JUMP JUMPDEST STOP JUMPDEST PUSH1 0x1 PUSH1 0x0 SWAP1 SLOAD SWAP1 PUSH2 0x100 EXP SWAP1 DIV PUSH20 0xFFFFFFFFFFFFFFFFFFFFFFFFFFFFFFFFFFFFFFFF AND PUSH20 0xFFFFFFFFFFFFFFFFFFFFFFFFFFFFFFFFFFFFFFFF AND CALLER PUSH20 0xFFFFFFFFFFFFFFFFFFFFFFFFFFFFFFFFFFFFFFFF AND EQ PUSH2 0x216 JUMPI PUSH1 0x40 MLOAD PUSH32 0x8C379A000000000000000000000000000000000000000000000000000000000 DUP2 MSTORE PUSH1 0x4 ADD PUSH2 0x20D SWAP1 PUSH2 0x90A JUMP JUMPDEST PUSH1 0x40 MLOAD DUP1 SWAP2 SUB SWAP1 REVERT JUMPDEST DUP1 PUSH1 0x2 PUSH1 0x0 PUSH2 0x100 EXP DUP2 SLOAD DUP2 PUSH20 0xFFFFFFFFFFFFFFFFFFFFFFFFFFFFFFFFFFFFFFFF MUL NOT AND SWAP1 DUP4 PUSH20 0xFFFFFFFFFFFFFFFFFFFFFFFFFFFFFFFFFFFFFFFF AND MUL OR SWAP1 SSTORE POP POP JUMP JUMPDEST PUSH1 0x60 PUSH1 0x0 DUP1 DUP4 PUSH20 0xFFFFFFFFFFFFFFFFFFFFFFFFFFFFFFFFFFFFFFFF AND PUSH20 0xFFFFFFFFFFFFFFFFFFFFFFFFFFFFFFFFFFFFFFFF AND DUP2 MSTORE PUSH1 0x20 ADD SWAP1 DUP2 MSTORE PUSH1 0x20 ADD PUSH1 0x0 KECCAK256 DUP1 SLOAD PUSH2 0x2A5 SWAP1 PUSH2 0x959 JUMP JUMPDEST DUP1 PUSH1 0x1F ADD PUSH1 0x20 DUP1 SWAP2 DIV MUL PUSH1 0x20 ADD PUSH1 0x40 MLOAD SWAP1 DUP2 ADD PUSH1 0x40 MSTORE DUP1 SWAP3 SWAP2 SWAP1 DUP2 DUP2 MSTORE PUSH1 0x20 ADD DUP3 DUP1 SLOAD PUSH2 0x2D1 SWAP1 PUSH2 0x959 JUMP JUMPDEST DUP1 ISZERO PUSH2 0x31E JUMPI DUP1 PUSH1 0x1F LT PUSH2 0x2F3 JUMPI PUSH2 0x100 DUP1 DUP4 SLOAD DIV MUL DUP4 MSTORE SWAP2 PUSH1 0x20 ADD SWAP2 PUSH2 0x31E JUMP JUMPDEST DUP3 ADD SWAP2 SWAP1 PUSH1 0x0 MSTORE PUSH1 0x20 PUSH1 0x0 KECCAK256 SWAP1 JUMPDEST DUP2 SLOAD DUP2 MSTORE SWAP1 PUSH1 0x1 ADD SWAP1 PUSH1 0x20 ADD DUP1 DUP4 GT PUSH2 0x301 JUMPI DUP3 SWAP1 SUB PUSH1 0x1F AND DUP3 ADD SWAP2 JUMPDEST POP POP POP POP POP SWAP1 POP SWAP2 SWAP1 POP JUMP JUMPDEST PUSH1 0x0 PUSH1 0x40 MLOAD PUSH1 0x20 ADD PUSH2 0x33B SWAP1 PUSH2 0x9E1 JUMP JUMPDEST PUSH1 0x40 MLOAD PUSH1 0x20 DUP2 DUP4 SUB SUB DUP2 MSTORE SWAP1 PUSH1 0x40 MSTORE DUP1 MLOAD SWAP1 PUSH1 0x20 ADD KECCAK256 PUSH1 0x0 DUP1 DUP5 PUSH20 0xFFFFFFFFFFFFFFFFFFFFFFFFFFFFFFFFFFFFFFFF AND PUSH20 0xFFFFFFFFFFFFFFFFFFFFFFFFFFFFFFFFFFFFFFFF AND DUP2 MSTORE PUSH1 0x20 ADD SWAP1 DUP2 MSTORE PUSH1 0x20 ADD PUSH1 0x0 KECCAK256 PUSH1 0x40 MLOAD PUSH1 0x20 ADD PUSH2 0x39F SWAP2 SWAP1 PUSH2 0xA8E JUMP JUMPDEST PUSH1 0x40 MLOAD PUSH1 0x20 DUP2 DUP4 SUB SUB DUP2 MSTORE SWAP1 PUSH1 0x40 MSTORE DUP1 MLOAD SWAP1 PUSH1 0x20 ADD KECCAK256 EQ SWAP1 POP SWAP2 SWAP1 POP JUMP JUMPDEST PUSH1 0x1 PUSH1 0x0 SWAP1 SLOAD SWAP1 PUSH2 0x100 EXP SWAP1 DIV PUSH20 0xFFFFFFFFFFFFFFFFFFFFFFFFFFFFFFFFFFFFFFFF AND DUP2 JUMP JUMPDEST PUSH1 0x2 PUSH1 0x0 SWAP1 SLOAD SWAP1 PUSH2 0x100 EXP SWAP1 DIV PUSH20 0xFFFFFFFFFFFFFFFFFFFFFFFFFFFFFFFFFFFFFFFF AND DUP2 JUMP JUMPDEST PUSH1 0x0 PUSH1 0x40 MLOAD PUSH1 0x20 ADD PUSH2 0x41A SWAP1 PUSH2 0xAF1 JUMP JUMPDEST PUSH1 0x40 MLOAD PUSH1 0x20 DUP2 DUP4 SUB SUB DUP2 MSTORE SWAP1 PUSH1 0x40 MSTORE DUP1 MLOAD SWAP1 PUSH1 0x20 ADD KECCAK256 PUSH1 0x0 DUP1 DUP5 PUSH20 0xFFFFFFFFFFFFFFFFFFFFFFFFFFFFFFFFFFFFFFFF AND PUSH20 0xFFFFFFFFFFFFFFFFFFFFFFFFFFFFFFFFFFFFFFFF AND DUP2 MSTORE PUSH1 0x20 ADD SWAP1 DUP2 MSTORE PUSH1 0x20 ADD PUSH1 0x0 KECCAK256 PUSH1 0x40 MLOAD PUSH1 0x20 ADD PUSH2 0x47E SWAP2 SWAP1 PUSH2 0xA8E JUMP JUMPDEST PUSH1 0x40 MLOAD PUSH1 0x20 DUP2 DUP4 SUB SUB DUP2 MSTORE SWAP1 PUSH1 0x40 MSTORE DUP1 MLOAD SWAP1 PUSH1 0x20 ADD KECCAK256 EQ SWAP1 POP SWAP2 SWAP1 POP JUMP JUMPDEST PUSH1 0x2 PUSH1 0x0 SWAP1 SLOAD SWAP1 PUSH2 0x100 EXP SWAP1 DIV PUSH20 0xFFFFFFFFFFFFFFFFFFFFFFFFFFFFFFFFFFFFFFFF AND PUSH20 0xFFFFFFFFFFFFFFFFFFFFFFFFFFFFFFFFFFFFFFFF AND CALLER PUSH20 0xFFFFFFFFFFFFFFFFFFFFFFFFFFFFFFFFFFFFFFFF AND EQ PUSH2 0x52C JUMPI PUSH1 0x40 MLOAD PUSH32 0x8C379A000000000000000000000000000000000000000000000000000000000 DUP2 MSTORE PUSH1 0x4 ADD PUSH2 0x523 SWAP1 PUSH2 0xB52 JUMP JUMPDEST PUSH1 0x40 MLOAD DUP1 SWAP2 SUB SWAP1 REVERT JUMPDEST DUP2 PUSH1 0x0 DUP1 DUP4 PUSH20 0xFFFFFFFFFFFFFFFFFFFFFFFFFFFFFFFFFFFFFFFF AND PUSH20 0xFFFFFFFFFFFFFFFFFFFFFFFFFFFFFFFFFFFFFFFF AND DUP2 MSTORE PUSH1 0x20 ADD SWAP1 DUP2 MSTORE PUSH1 0x20 ADD PUSH1 0x0 KECCAK256 SWAP1 DUP2 PUSH2 0x577 SWAP2 SWAP1 PUSH2 0xD13 JUMP JUMPDEST POP POP POP JUMP JUMPDEST PUSH1 0x0 PUSH1 0x40 MLOAD SWAP1 POP SWAP1 JUMP JUMPDEST PUSH1 0x0 DUP1 REVERT JUMPDEST PUSH1 0x0 DUP1 REVERT JUMPDEST PUSH1 0x0 PUSH20 0xFFFFFFFFFFFFFFFFFFFFFFFFFFFFFFFFFFFFFFFF DUP3 AND SWAP1 POP SWAP2 SWAP1 POP JUMP JUMPDEST PUSH1 0x0 PUSH2 0x5BB DUP3 PUSH2 0x590 JUMP JUMPDEST SWAP1 POP SWAP2 SWAP1 POP JUMP JUMPDEST PUSH2 0x5CB DUP2 PUSH2 0x5B0 JUMP JUMPDEST DUP2 EQ PUSH2 0x5D6 JUMPI PUSH1 0x0 DUP1 REVERT JUMPDEST POP JUMP JUMPDEST PUSH1 0x0 DUP2 CALLDATALOAD SWAP1 POP PUSH2 0x5E8 DUP2 PUSH2 0x5C2 JUMP JUMPDEST SWAP3 SWAP2 POP POP JUMP JUMPDEST PUSH1 0x0 PUSH1 0x20 DUP3 DUP5 SUB SLT ISZERO PUSH2 0x604 JUMPI PUSH2 0x603 PUSH2 0x586 JUMP JUMPDEST JUMPDEST PUSH1 0x0 PUSH2 0x612 DUP5 DUP3 DUP6 ADD PUSH2 0x5D9 JUMP JUMPDEST SWAP2 POP POP SWAP3 SWAP2 POP POP JUMP JUMPDEST PUSH1 0x0 DUP2 MLOAD SWAP1 POP SWAP2 SWAP1 POP JUMP JUMPDEST PUSH1 0x0 DUP3 DUP3 MSTORE PUSH1 0x20 DUP3 ADD SWAP1 POP SWAP3 SWAP2 POP POP JUMP JUMPDEST PUSH1 0x0 JUMPDEST DUP4 DUP2 LT ISZERO PUSH2 0x655 JUMPI DUP1 DUP3 ADD MLOAD DUP2 DUP5 ADD MSTORE PUSH1 0x20 DUP2 ADD SWAP1 POP PUSH2 0x63A JUMP JUMPDEST PUSH1 0x0 DUP5 DUP5 ADD MSTORE POP POP POP POP JUMP JUMPDEST PUSH1 0x0 PUSH1 0x1F NOT PUSH1 0x1F DUP4 ADD AND SWAP1 POP SWAP2 SWAP1 POP JUMP JUMPDEST PUSH1 0x0 PUSH2 0x67D DUP3 PUSH2 0x61B JUMP JUMPDEST PUSH2 0x687 DUP2 DUP6 PUSH2 0x626 JUMP JUMPDEST SWAP4 POP PUSH2 0x697 DUP2 DUP6 PUSH1 0x20 DUP7 ADD PUSH2 0x637 JUMP JUMPDEST PUSH2 0x6A0 DUP2 PUSH2 0x661 JUMP JUMPDEST DUP5 ADD SWAP2 POP POP SWAP3 SWAP2 POP POP JUMP JUMPDEST PUSH1 0x0 PUSH1 0x20 DUP3 ADD SWAP1 POP DUP2 DUP2 SUB PUSH1 0x0 DUP4 ADD MSTORE PUSH2 0x6C5 DUP2 DUP5 PUSH2 0x672 JUMP JUMPDEST SWAP1 POP SWAP3 SWAP2 POP POP JUMP JUMPDEST PUSH1 0x0 DUP2 ISZERO ISZERO SWAP1 POP SWAP2 SWAP1 POP JUMP JUMPDEST PUSH2 0x6E2 DUP2 PUSH2 0x6CD JUMP JUMPDEST DUP3 MSTORE POP POP JUMP JUMPDEST PUSH1 0x0 PUSH1 0x20 DUP3 ADD SWAP1 POP PUSH2 0x6FD PUSH1 0x0 DUP4 ADD DUP5 PUSH2 0x6D9 JUMP JUMPDEST SWAP3 SWAP2 POP POP JUMP JUMPDEST PUSH2 0x70C DUP2 PUSH2 0x5B0 JUMP JUMPDEST DUP3 MSTORE POP POP JUMP JUMPDEST PUSH1 0x0 PUSH1 0x20 DUP3 ADD SWAP1 POP PUSH2 0x727 PUSH1 0x0 DUP4 ADD DUP5 PUSH2 0x703 JUMP JUMPDEST SWAP3 SWAP2 POP POP JUMP JUMPDEST PUSH1 0x0 DUP1 REVERT JUMPDEST PUSH1 0x0 DUP1 REVERT JUMPDEST PUSH32 0x4E487B7100000000000000000000000000000000000000000000000000000000 PUSH1 0x0 MSTORE PUSH1 0x41 PUSH1 0x4 MSTORE PUSH1 0x24 PUSH1 0x0 REVERT JUMPDEST PUSH2 0x76F DUP3 PUSH2 0x661 JUMP JUMPDEST DUP2 ADD DUP2 DUP2 LT PUSH8 0xFFFFFFFFFFFFFFFF DUP3 GT OR ISZERO PUSH2 0x78E JUMPI PUSH2 0x78D PUSH2 0x737 JUMP JUMPDEST JUMPDEST DUP1 PUSH1 0x40 MSTORE POP POP POP JUMP JUMPDEST PUSH1 0x0 PUSH2 0x7A1 PUSH2 0x57C JUMP JUMPDEST SWAP1 POP PUSH2 0x7AD DUP3 DUP3 PUSH2 0x766 JUMP JUMPDEST SWAP2 SWAP1 POP JUMP JUMPDEST PUSH1 0x0 PUSH8 0xFFFFFFFFFFFFFFFF DUP3 GT ISZERO PUSH2 0x7CD JUMPI PUSH2 0x7CC PUSH2 0x737 JUMP JUMPDEST JUMPDEST PUSH2 0x7D6 DUP3 PUSH2 0x661 JUMP JUMPDEST SWAP1 POP PUSH1 0x20 DUP2 ADD SWAP1 POP SWAP2 SWAP1 POP JUMP JUMPDEST DUP3 DUP2 DUP4 CALLDATACOPY PUSH1 0x0 DUP4 DUP4 ADD MSTORE POP POP POP JUMP JUMPDEST PUSH1 0x0 PUSH2 0x805 PUSH2 0x800 DUP5 PUSH2 0x7B2 JUMP JUMPDEST PUSH2 0x797 JUMP JUMPDEST SWAP1 POP DUP3 DUP2 MSTORE PUSH1 0x20 DUP2 ADD DUP5 DUP5 DUP5 ADD GT ISZERO PUSH2 0x821 JUMPI PUSH2 0x820 PUSH2 0x732 JUMP JUMPDEST JUMPDEST PUSH2 0x82C DUP5 DUP3 DUP6 PUSH2 0x7E3 JUMP JUMPDEST POP SWAP4 SWAP3 POP POP POP JUMP JUMPDEST PUSH1 0x0 DUP3 PUSH1 0x1F DUP4 ADD SLT PUSH2 0x849 JUMPI PUSH2 0x848 PUSH2 0x72D JUMP JUMPDEST JUMPDEST DUP2 CALLDATALOAD PUSH2 0x859 DUP5 DUP3 PUSH1 0x20 DUP7 ADD PUSH2 0x7F2 JUMP JUMPDEST SWAP2 POP POP SWAP3 SWAP2 POP POP JUMP JUMPDEST PUSH1 0x0 DUP1 PUSH1 0x40 DUP4 DUP6 SUB SLT ISZERO PUSH2 0x879 JUMPI PUSH2 0x878 PUSH2 0x586 JUMP JUMPDEST JUMPDEST PUSH1 0x0 DUP4 ADD CALLDATALOAD PUSH8 0xFFFFFFFFFFFFFFFF DUP2 GT ISZERO PUSH2 0x897 JUMPI PUSH2 0x896 PUSH2 0x58B JUMP JUMPDEST JUMPDEST PUSH2 0x8A3 DUP6 DUP3 DUP7 ADD PUSH2 0x834 JUMP JUMPDEST SWAP3 POP POP PUSH1 0x20 PUSH2 0x8B4 DUP6 DUP3 DUP7 ADD PUSH2 0x5D9 JUMP JUMPDEST SWAP2 POP POP SWAP3 POP SWAP3 SWAP1 POP JUMP JUMPDEST PUSH32 0x4F4E4C595F4F574E455200000000000000000000000000000000000000000000 PUSH1 0x0 DUP3 ADD MSTORE POP JUMP JUMPDEST PUSH1 0x0 PUSH2 0x8F4 PUSH1 0xA DUP4 PUSH2 0x626 JUMP JUMPDEST SWAP2 POP PUSH2 0x8FF DUP3 PUSH2 0x8BE JUMP JUMPDEST PUSH1 0x20 DUP3 ADD SWAP1 POP SWAP2 SWAP1 POP JUMP JUMPDEST PUSH1 0x0 PUSH1 0x20 DUP3 ADD SWAP1 POP DUP2 DUP2 SUB PUSH1 0x0 DUP4 ADD MSTORE PUSH2 0x923 DUP2 PUSH2 0x8E7 JUMP JUMPDEST SWAP1 POP SWAP2 SWAP1 POP JUMP JUMPDEST PUSH32 0x4E487B7100000000000000000000000000000000000000000000000000000000 PUSH1 0x0 MSTORE PUSH1 0x22 PUSH1 0x4 MSTORE PUSH1 0x24 PUSH1 0x0 REVERT JUMPDEST PUSH1 0x0 PUSH1 0x2 DUP3 DIV SWAP1 POP PUSH1 0x1 DUP3 AND DUP1 PUSH2 0x971 JUMPI PUSH1 0x7F DUP3 AND SWAP2 POP JUMPDEST PUSH1 0x20 DUP3 LT DUP2 SUB PUSH2 0x984 JUMPI PUSH2 0x983 PUSH2 0x92A JUMP JUMPDEST JUMPDEST POP SWAP2 SWAP1 POP JUMP JUMPDEST PUSH1 0x0 DUP2 SWAP1 POP SWAP3 SWAP2 POP POP JUMP JUMPDEST PUSH32 0x4953535545520000000000000000000000000000000000000000000000000000 PUSH1 0x0 DUP3 ADD MSTORE POP JUMP JUMPDEST PUSH1 0x0 PUSH2 0x9CB PUSH1 0x6 DUP4 PUSH2 0x98A JUMP JUMPDEST SWAP2 POP PUSH2 0x9D6 DUP3 PUSH2 0x995 JUMP JUMPDEST PUSH1 0x6 DUP3 ADD SWAP1 POP SWAP2 SWAP1 POP JUMP JUMPDEST PUSH1 0x0 PUSH2 0x9EC DUP3 PUSH2 0x9BE JUMP JUMPDEST SWAP2 POP DUP2 SWAP1 POP SWAP2 SWAP1 POP JUMP JUMPDEST PUSH1 0x0 DUP2 SWAP1 POP DUP2 PUSH1 0x0 MSTORE PUSH1 0x20 PUSH1 0x0 KECCAK256 SWAP1 POP SWAP2 SWAP1 POP JUMP JUMPDEST PUSH1 0x0 DUP2 SLOAD PUSH2 0xA18 DUP2 PUSH2 0x959 JUMP JUMPDEST PUSH2 0xA22 DUP2 DUP7 PUSH2 0x98A JUMP JUMPDEST SWAP5 POP PUSH1 0x1 DUP3 AND PUSH1 0x0 DUP2 EQ PUSH2 0xA3D JUMPI PUSH1 0x1 DUP2 EQ PUSH2 0xA52 JUMPI PUSH2 0xA85 JUMP JUMPDEST PUSH1 0xFF NOT DUP4 AND DUP7 MSTORE DUP2 ISZERO ISZERO DUP3 MUL DUP7 ADD SWAP4 POP PUSH2 0xA85 JUMP JUMPDEST PUSH2 0xA5B DUP6 PUSH2 0x9F6 JUMP JUMPDEST PUSH1 0x0 JUMPDEST DUP4 DUP2 LT ISZERO PUSH2 0xA7D JUMPI DUP2 SLOAD DUP2 DUP10 ADD MSTORE PUSH1 0x1 DUP3 ADD SWAP2 POP PUSH1 0x20 DUP2 ADD SWAP1 POP PUSH2 0xA5E JUMP JUMPDEST DUP4 DUP9 ADD SWAP6 POP POP POP JUMPDEST POP POP POP SWAP3 SWAP2 POP POP JUMP JUMPDEST PUSH1 0x0 PUSH2 0xA9A DUP3 DUP5 PUSH2 0xA0B JUMP JUMPDEST SWAP2 POP DUP2 SWAP1 POP SWAP3 SWAP2 POP POP JUMP JUMPDEST PUSH32 0x494E564553544F52000000000000000000000000000000000000000000000000 PUSH1 0x0 DUP3 ADD MSTORE POP JUMP JUMPDEST PUSH1 0x0 PUSH2 0xADB PUSH1 0x8 DUP4 PUSH2 0x98A JUMP JUMPDEST SWAP2 POP PUSH2 0xAE6 DUP3 PUSH2 0xAA5 JUMP JUMPDEST PUSH1 0x8 DUP3 ADD SWAP1 POP SWAP2 SWAP1 POP JUMP JUMPDEST PUSH1 0x0 PUSH2 0xAFC DUP3 PUSH2 0xACE JUMP JUMPDEST SWAP2 POP DUP2 SWAP1 POP SWAP2 SWAP1 POP JUMP JUMPDEST PUSH32 0x526F6C65733A204F4E4C595F544F504F535F42414E4B00000000000000000000 PUSH1 0x0 DUP3 ADD MSTORE POP JUMP JUMPDEST PUSH1 0x0 PUSH2 0xB3C PUSH1 0x16 DUP4 PUSH2 0x626 JUMP JUMPDEST SWAP2 POP PUSH2 0xB47 DUP3 PUSH2 0xB06 JUMP JUMPDEST PUSH1 0x20 DUP3 ADD SWAP1 POP SWAP2 SWAP1 POP JUMP JUMPDEST PUSH1 0x0 PUSH1 0x20 DUP3 ADD SWAP1 POP DUP2 DUP2 SUB PUSH1 0x0 DUP4 ADD MSTORE PUSH2 0xB6B DUP2 PUSH2 0xB2F JUMP JUMPDEST SWAP1 POP SWAP2 SWAP1 POP JUMP JUMPDEST PUSH1 0x0 PUSH1 0x20 PUSH1 0x1F DUP4 ADD DIV SWAP1 POP SWAP2 SWAP1 POP JUMP JUMPDEST PUSH1 0x0 DUP3 DUP3 SHL SWAP1 POP SWAP3 SWAP2 POP POP JUMP JUMPDEST PUSH1 0x0 PUSH1 0x8 DUP4 MUL PUSH2 0xBBF PUSH32 0xFFFFFFFFFFFFFFFFFFFFFFFFFFFFFFFFFFFFFFFFFFFFFFFFFFFFFFFFFFFFFFFF DUP3 PUSH2 0xB82 JUMP JUMPDEST PUSH2 0xBC9 DUP7 DUP4 PUSH2 0xB82 JUMP JUMPDEST SWAP6 POP DUP1 NOT DUP5 AND SWAP4 POP DUP1 DUP7 AND DUP5 OR SWAP3 POP POP POP SWAP4 SWAP3 POP POP POP JUMP JUMPDEST PUSH1 0x0 DUP2 SWAP1 POP SWAP2 SWAP1 POP JUMP JUMPDEST PUSH1 0x0 DUP2 SWAP1 POP SWAP2 SWAP1 POP JUMP JUMPDEST PUSH1 0x0 PUSH2 0xC10 PUSH2 0xC0B PUSH2 0xC06 DUP5 PUSH2 0xBE1 JUMP JUMPDEST PUSH2 0xBEB JUMP JUMPDEST PUSH2 0xBE1 JUMP JUMPDEST SWAP1 POP SWAP2 SWAP1 POP JUMP JUMPDEST PUSH1 0x0 DUP2 SWAP1 POP SWAP2 SWAP1 POP JUMP JUMPDEST PUSH2 0xC2A DUP4 PUSH2 0xBF5 JUMP JUMPDEST PUSH2 0xC3E PUSH2 0xC36 DUP3 PUSH2 0xC17 JUMP JUMPDEST DUP5 DUP5 SLOAD PUSH2 0xB8F JUMP JUMPDEST DUP3 SSTORE POP POP POP POP JUMP JUMPDEST PUSH1 0x0 SWAP1 JUMP JUMPDEST PUSH2 0xC53 PUSH2 0xC46 JUMP JUMPDEST PUSH2 0xC5E DUP2 DUP5 DUP5 PUSH2 0xC21 JUMP JUMPDEST POP POP POP JUMP JUMPDEST JUMPDEST DUP2 DUP2 LT ISZERO PUSH2 0xC82 JUMPI PUSH2 0xC77 PUSH1 0x0 DUP3 PUSH2 0xC4B JUMP JUMPDEST PUSH1 0x1 DUP2 ADD SWAP1 POP PUSH2 0xC64 JUMP JUMPDEST POP POP JUMP JUMPDEST PUSH1 0x1F DUP3 GT ISZERO PUSH2 0xCC7 JUMPI PUSH2 0xC98 DUP2 PUSH2 0x9F6 JUMP JUMPDEST PUSH2 0xCA1 DUP5 PUSH2 0xB72 JUMP JUMPDEST DUP2 ADD PUSH1 0x20 DUP6 LT ISZERO PUSH2 0xCB0 JUMPI DUP2 SWAP1 POP JUMPDEST PUSH2 0xCC4 PUSH2 0xCBC DUP6 PUSH2 0xB72 JUMP JUMPDEST DUP4 ADD DUP3 PUSH2 0xC63 JUMP JUMPDEST POP POP JUMPDEST POP POP POP JUMP JUMPDEST PUSH1 0x0 DUP3 DUP3 SHR SWAP1 POP SWAP3 SWAP2 POP POP JUMP JUMPDEST PUSH1 0x0 PUSH2 0xCEA PUSH1 0x0 NOT DUP5 PUSH1 0x8 MUL PUSH2 0xCCC JUMP JUMPDEST NOT DUP1 DUP4 AND SWAP2 POP POP SWAP3 SWAP2 POP POP JUMP JUMPDEST PUSH1 0x0 PUSH2 0xD03 DUP4 DUP4 PUSH2 0xCD9 JUMP JUMPDEST SWAP2 POP DUP3 PUSH1 0x2 MUL DUP3 OR SWAP1 POP SWAP3 SWAP2 POP POP JUMP JUMPDEST PUSH2 0xD1C DUP3 PUSH2 0x61B JUMP JUMPDEST PUSH8 0xFFFFFFFFFFFFFFFF DUP2 GT ISZERO PUSH2 0xD35 JUMPI PUSH2 0xD34 PUSH2 0x737 JUMP JUMPDEST JUMPDEST PUSH2 0xD3F DUP3 SLOAD PUSH2 0x959 JUMP JUMPDEST PUSH2 0xD4A DUP3 DUP3 DUP6 PUSH2 0xC86 JUMP JUMPDEST PUSH1 0x0 PUSH1 0x20 SWAP1 POP PUSH1 0x1F DUP4 GT PUSH1 0x1 DUP2 EQ PUSH2 0xD7D JUMPI PUSH1 0x0 DUP5 ISZERO PUSH2 0xD6B JUMPI DUP3 DUP8 ADD MLOAD SWAP1 POP JUMPDEST PUSH2 0xD75 DUP6 DUP3 PUSH2 0xCF7 JUMP JUMPDEST DUP7 SSTORE POP PUSH2 0xDDD JUMP JUMPDEST PUSH1 0x1F NOT DUP5 AND PUSH2 0xD8B DUP7 PUSH2 0x9F6 JUMP JUMPDEST PUSH1 0x0 JUMPDEST DUP3 DUP2 LT ISZERO PUSH2 0xDB3 JUMPI DUP5 DUP10 ADD MLOAD DUP3 SSTORE PUSH1 0x1 DUP3 ADD SWAP2 POP PUSH1 0x20 DUP6 ADD SWAP5 POP PUSH1 0x20 DUP2 ADD SWAP1 POP PUSH2 0xD8E JUMP JUMPDEST DUP7 DUP4 LT ISZERO PUSH2 0xDD0 JUMPI DUP5 DUP10 ADD MLOAD PUSH2 0xDCC PUSH1 0x1F DUP10 AND DUP3 PUSH2 0xCD9 JUMP JUMPDEST DUP4 SSTORE POP JUMPDEST PUSH1 0x1 PUSH1 0x2 DUP9 MUL ADD DUP9 SSTORE POP POP POP JUMPDEST POP POP POP POP POP POP JUMP INVALID LOG2 PUSH5 0x6970667358 0x22 SLT KECCAK256 PUSH7 0x2AC5A8324FF3FB PUSH23 0x12CE3E0192A8B9E29C1F4A7AC3CE17FF8223ED408EA916 PUSH5 0x736F6C6343 STOP ADDMOD SGT STOP CALLER "},"methodIdentifiers":{"getRole(address)":"44276733","isInvestor(address)":"cee2a9cf","isIssuer(address)":"877b9a67","owner()":"8da5cb5b","setRole(string,address)":"cfde1890","setToposBankContract(address)":"386c2106","toposBankContract()":"9c34712a"}}}}}