{
  "_format": "hh-sol-artifact-1",
  "contractName": "TokenCall",
  "sourceName": "contracts/tests/tokens/TokenCall.sol",
  "abi": [
    {
      "inputs": [],
      "stateMutability": "nonpayable",
      "type": "constructor"
    },
    {
      "inputs": [
        {
          "internalType": "address",
          "name": "_tokenAddress",
          "type": "address"
        }
      ],
      "name": "addTokenAddress",
      "outputs": [],
      "stateMutability": "nonpayable",
      "type": "function"
    },
    {
      "inputs": [
        {
          "internalType": "address",
          "name": "owner",
          "type": "address"
        },
        {
          "internalType": "address",
          "name": "spender",
          "type": "address"
        },
        {
          "internalType": "address",
          "name": "_tokenAddress",
          "type": "address"
        }
      ],
      "name": "allowance",
      "outputs": [
        {
          "internalType": "uint256",
          "name": "",
          "type": "uint256"
        }
      ],
      "stateMutability": "view",
      "type": "function"
    },
    {
      "inputs": [
        {
          "internalType": "address",
          "name": "spender",
          "type": "address"
        },
        {
          "internalType": "uint256",
          "name": "amount",
          "type": "uint256"
        },
        {
          "internalType": "address",
          "name": "_tokenAddress",
          "type": "address"
        }
      ],
      "name": "approve",
      "outputs": [
        {
          "internalType": "bool",
          "name": "",
          "type": "bool"
        }
      ],
      "stateMutability": "nonpayable",
      "type": "function"
    },
    {
      "inputs": [
        {
          "internalType": "address",
          "name": "account",
          "type": "address"
        },
        {
          "internalType": "address",
          "name": "_tokenAddress",
          "type": "address"
        }
      ],
      "name": "balanceOf",
      "outputs": [
        {
          "internalType": "uint256",
          "name": "",
          "type": "uint256"
        }
      ],
      "stateMutability": "view",
      "type": "function"
    },
    {
      "inputs": [
        {
          "internalType": "address",
          "name": "account",
          "type": "address"
        },
        {
          "internalType": "uint256",
          "name": "amount",
          "type": "uint256"
        },
        {
          "internalType": "address",
          "name": "_tokenAddress",
          "type": "address"
        }
      ],
      "name": "burn",
      "outputs": [
        {
          "internalType": "bool",
          "name": "",
          "type": "bool"
        }
      ],
      "stateMutability": "nonpayable",
      "type": "function"
    },
    {
      "inputs": [],
      "name": "getTokenAddresses",
      "outputs": [
        {
          "internalType": "address[]",
          "name": "",
          "type": "address[]"
        }
      ],
      "stateMutability": "view",
      "type": "function"
    },
    {
      "inputs": [],
      "name": "getTokenSymbols",
      "outputs": [
        {
          "internalType": "string[]",
          "name": "",
          "type": "string[]"
        }
      ],
      "stateMutability": "view",
      "type": "function"
    },
    {
      "inputs": [
        {
          "internalType": "address",
          "name": "account",
          "type": "address"
        },
        {
          "internalType": "uint256",
          "name": "amount",
          "type": "uint256"
        },
        {
          "internalType": "address",
          "name": "_tokenAddress",
          "type": "address"
        }
      ],
      "name": "mint",
      "outputs": [
        {
          "internalType": "bool",
          "name": "",
          "type": "bool"
        }
      ],
      "stateMutability": "nonpayable",
      "type": "function"
    },
    {
      "inputs": [
        {
          "internalType": "address",
          "name": "_tokenAddress",
          "type": "address"
        }
      ],
      "name": "name",
      "outputs": [
        {
          "internalType": "string",
          "name": "",
          "type": "string"
        }
      ],
      "stateMutability": "view",
      "type": "function"
    },
    {
      "inputs": [
        {
          "internalType": "address",
          "name": "_tokenAddress",
          "type": "address"
        }
      ],
      "name": "symbol",
      "outputs": [
        {
          "internalType": "string",
          "name": "",
          "type": "string"
        }
      ],
      "stateMutability": "view",
      "type": "function"
    },
    {
      "inputs": [
        {
          "internalType": "address",
          "name": "_tokenAddress",
          "type": "address"
        }
      ],
      "name": "totalSupply",
      "outputs": [
        {
          "internalType": "uint256",
          "name": "",
          "type": "uint256"
        }
      ],
      "stateMutability": "view",
      "type": "function"
    },
    {
      "inputs": [
        {
          "internalType": "address",
          "name": "to",
          "type": "address"
        },
        {
          "internalType": "uint256",
          "name": "amount",
          "type": "uint256"
        },
        {
          "internalType": "address",
          "name": "_tokenAddress",
          "type": "address"
        }
      ],
      "name": "transfer",
      "outputs": [
        {
          "internalType": "bool",
          "name": "",
          "type": "bool"
        }
      ],
      "stateMutability": "nonpayable",
      "type": "function"
    },
    {
      "inputs": [
        {
          "internalType": "address",
          "name": "from",
          "type": "address"
        },
        {
          "internalType": "address",
          "name": "to",
          "type": "address"
        },
        {
          "internalType": "uint256",
          "name": "amount",
          "type": "uint256"
        },
        {
          "internalType": "address",
          "name": "_tokenAddress",
          "type": "address"
        }
      ],
      "name": "transferFrom",
      "outputs": [
        {
          "internalType": "bool",
          "name": "",
          "type": "bool"
        }
      ],
      "stateMutability": "nonpayable",
      "type": "function"
    }
  ],
  "bytecode": "0x608060405234801561001057600080fd5b50336000806101000a81548173ffffffffffffffffffffffffffffffffffffffff021916908373ffffffffffffffffffffffffffffffffffffffff1602179055506116ca806100606000396000f3fe608060405234801561001057600080fd5b50600436106100cf5760003560e01c8063927da1051161008c578063dbba0f0111610066578063dbba0f011461025e578063e4dc2aa41461028e578063ee8c24b8146102be578063f7888aec146102dc576100cf565b8063927da105146101ce578063a86e3576146101fe578063b8ce670d1461022e576100cf565b806301984892146100d457806305b93816146101045780630d4d1513146101225780631271f09a1461015257806351992fcb146101825780635fc9309c1461019e575b600080fd5b6100ee60048036038101906100e99190610bbd565b61030c565b6040516100fb9190610c7a565b60405180910390f35b61010c610389565b6040516101199190610da8565b60405180910390f35b61013c60048036038101906101379190610e00565b610462565b6040516101499190610e6e565b60405180910390f35b61016c60048036038101906101679190610e00565b6104ee565b6040516101799190610e6e565b60405180910390f35b61019c60048036038101906101979190610bbd565b61057a565b005b6101b860048036038101906101b39190610e89565b610716565b6040516101c59190610e6e565b60405180910390f35b6101e860048036038101906101e39190610ef0565b6107a5565b6040516101f59190610f52565b60405180910390f35b61021860048036038101906102139190610bbd565b61082c565b6040516102259190610c7a565b60405180910390f35b61024860048036038101906102439190610e00565b6108a9565b6040516102559190610e6e565b60405180910390f35b61027860048036038101906102739190610e00565b610935565b6040516102859190610e6e565b60405180910390f35b6102a860048036038101906102a39190610bbd565b6109c1565b6040516102b59190610f52565b60405180910390f35b6102c6610a39565b6040516102d3919061102b565b60405180910390f35b6102f660048036038101906102f1919061104d565b610ac7565b6040516103039190610f52565b60405180910390f35b60608173ffffffffffffffffffffffffffffffffffffffff166306fdde036040518163ffffffff1660e01b8152600401600060405180830381865afa158015610359573d6000803e3d6000fd5b505050506040513d6000823e3d601f19601f8201168201806040525081019061038291906111b3565b9050919050565b60606002805480602002602001604051908101604052809291908181526020016000905b828210156104595783829060005260206000200180546103cc9061122b565b80601f01602080910402602001604051908101604052809291908181526020018280546103f89061122b565b80156104455780601f1061041a57610100808354040283529160200191610445565b820191906000526020600020905b81548152906001019060200180831161042857829003601f168201915b5050505050815260200190600101906103ad565b50505050905090565b60008173ffffffffffffffffffffffffffffffffffffffff166340c10f1985856040518363ffffffff1660e01b815260040161049f92919061126b565b6020604051808303816000875af11580156104be573d6000803e3d6000fd5b505050506040513d601f19601f820116820180604052508101906104e291906112c0565b50600190509392505050565b60008173ffffffffffffffffffffffffffffffffffffffff1663095ea7b385856040518363ffffffff1660e01b815260040161052b92919061126b565b6020604051808303816000875af115801561054a573d6000803e3d6000fd5b505050506040513d601f19601f8201168201806040525081019061056e91906112c0565b50600190509392505050565b60008054906101000a900473ffffffffffffffffffffffffffffffffffffffff1673ffffffffffffffffffffffffffffffffffffffff163373ffffffffffffffffffffffffffffffffffffffff1614610608576040517f08c379a00000000000000000000000000000000000000000000000000000000081526004016105ff90611339565b60405180910390fd5b6001819080600181540180825580915050600190039060005260206000200160009091909190916101000a81548173ffffffffffffffffffffffffffffffffffffffff021916908373ffffffffffffffffffffffffffffffffffffffff16021790555060028173ffffffffffffffffffffffffffffffffffffffff166395d89b416040518163ffffffff1660e01b8152600401600060405180830381865afa1580156106b8573d6000803e3d6000fd5b505050506040513d6000823e3d601f19601f820116820180604052508101906106e191906111b3565b9080600181540180825580915050600190039060005260206000200160009091909190915090816107129190611505565b5050565b60008173ffffffffffffffffffffffffffffffffffffffff166323b872dd8686866040518463ffffffff1660e01b8152600401610755939291906115d7565b6020604051808303816000875af1158015610774573d6000803e3d6000fd5b505050506040513d601f19601f8201168201806040525081019061079891906112c0565b5060019050949350505050565b60008173ffffffffffffffffffffffffffffffffffffffff1663dd62ed3e85856040518363ffffffff1660e01b81526004016107e292919061160e565b602060405180830381865afa1580156107ff573d6000803e3d6000fd5b505050506040513d601f19601f82011682018060405250810190610823919061164c565b90509392505050565b60608173ffffffffffffffffffffffffffffffffffffffff166395d89b416040518163ffffffff1660e01b8152600401600060405180830381865afa158015610879573d6000803e3d6000fd5b505050506040513d6000823e3d601f19601f820116820180604052508101906108a291906111b3565b9050919050565b60008173ffffffffffffffffffffffffffffffffffffffff16639dc29fac85856040518363ffffffff1660e01b81526004016108e692919061126b565b6020604051808303816000875af1158015610905573d6000803e3d6000fd5b505050506040513d601f19601f8201168201806040525081019061092991906112c0565b50600190509392505050565b60008173ffffffffffffffffffffffffffffffffffffffff1663a9059cbb85856040518363ffffffff1660e01b815260040161097292919061126b565b6020604051808303816000875af1158015610991573d6000803e3d6000fd5b505050506040513d601f19601f820116820180604052508101906109b591906112c0565b50600190509392505050565b60008173ffffffffffffffffffffffffffffffffffffffff166318160ddd6040518163ffffffff1660e01b8152600401602060405180830381865afa158015610a0e573d6000803e3d6000fd5b505050506040513d601f19601f82011682018060405250810190610a32919061164c565b9050919050565b60606001805480602002602001604051908101604052809291908181526020018280548015610abd57602002820191906000526020600020905b8160009054906101000a900473ffffffffffffffffffffffffffffffffffffffff1673ffffffffffffffffffffffffffffffffffffffff1681526020019060010190808311610a73575b5050505050905090565b60008173ffffffffffffffffffffffffffffffffffffffff166370a08231846040518263ffffffff1660e01b8152600401610b029190611679565b602060405180830381865afa158015610b1f573d6000803e3d6000fd5b505050506040513d601f19601f82011682018060405250810190610b43919061164c565b905092915050565b6000604051905090565b600080fd5b600080fd5b600073ffffffffffffffffffffffffffffffffffffffff82169050919050565b6000610b8a82610b5f565b9050919050565b610b9a81610b7f565b8114610ba557600080fd5b50565b600081359050610bb781610b91565b92915050565b600060208284031215610bd357610bd2610b55565b5b6000610be184828501610ba8565b91505092915050565b600081519050919050565b600082825260208201905092915050565b60005b83811015610c24578082015181840152602081019050610c09565b60008484015250505050565b6000601f19601f8301169050919050565b6000610c4c82610bea565b610c568185610bf5565b9350610c66818560208601610c06565b610c6f81610c30565b840191505092915050565b60006020820190508181036000830152610c948184610c41565b905092915050565b600081519050919050565b600082825260208201905092915050565b6000819050602082019050919050565b600082825260208201905092915050565b6000610ce482610bea565b610cee8185610cc8565b9350610cfe818560208601610c06565b610d0781610c30565b840191505092915050565b6000610d1e8383610cd9565b905092915050565b6000602082019050919050565b6000610d3e82610c9c565b610d488185610ca7565b935083602082028501610d5a85610cb8565b8060005b85811015610d965784840389528151610d778582610d12565b9450610d8283610d26565b925060208a01995050600181019050610d5e565b50829750879550505050505092915050565b60006020820190508181036000830152610dc28184610d33565b905092915050565b6000819050919050565b610ddd81610dca565b8114610de857600080fd5b50565b600081359050610dfa81610dd4565b92915050565b600080600060608486031215610e1957610e18610b55565b5b6000610e2786828701610ba8565b9350506020610e3886828701610deb565b9250506040610e4986828701610ba8565b9150509250925092565b60008115159050919050565b610e6881610e53565b82525050565b6000602082019050610e836000830184610e5f565b92915050565b60008060008060808587031215610ea357610ea2610b55565b5b6000610eb187828801610ba8565b9450506020610ec287828801610ba8565b9350506040610ed387828801610deb565b9250506060610ee487828801610ba8565b91505092959194509250565b600080600060608486031215610f0957610f08610b55565b5b6000610f1786828701610ba8565b9350506020610f2886828701610ba8565b9250506040610f3986828701610ba8565b9150509250925092565b610f4c81610dca565b82525050565b6000602082019050610f676000830184610f43565b92915050565b600081519050919050565b600082825260208201905092915050565b6000819050602082019050919050565b610fa281610b7f565b82525050565b6000610fb48383610f99565b60208301905092915050565b6000602082019050919050565b6000610fd882610f6d565b610fe28185610f78565b9350610fed83610f89565b8060005b8381101561101e5781516110058882610fa8565b975061101083610fc0565b925050600181019050610ff1565b5085935050505092915050565b600060208201905081810360008301526110458184610fcd565b905092915050565b6000806040838503121561106457611063610b55565b5b600061107285828601610ba8565b925050602061108385828601610ba8565b9150509250929050565b600080fd5b600080fd5b7f4e487b7100000000000000000000000000000000000000000000000000000000600052604160045260246000fd5b6110cf82610c30565b810181811067ffffffffffffffff821117156110ee576110ed611097565b5b80604052505050565b6000611101610b4b565b905061110d82826110c6565b919050565b600067ffffffffffffffff82111561112d5761112c611097565b5b61113682610c30565b9050602081019050919050565b600061115661115184611112565b6110f7565b90508281526020810184848401111561117257611171611092565b5b61117d848285610c06565b509392505050565b600082601f83011261119a5761119961108d565b5b81516111aa848260208601611143565b91505092915050565b6000602082840312156111c9576111c8610b55565b5b600082015167ffffffffffffffff8111156111e7576111e6610b5a565b5b6111f384828501611185565b91505092915050565b7f4e487b7100000000000000000000000000000000000000000000000000000000600052602260045260246000fd5b6000600282049050600182168061124357607f821691505b602082108103611256576112556111fc565b5b50919050565b61126581610b7f565b82525050565b6000604082019050611280600083018561125c565b61128d6020830184610f43565b9392505050565b61129d81610e53565b81146112a857600080fd5b50565b6000815190506112ba81611294565b92915050565b6000602082840312156112d6576112d5610b55565b5b60006112e4848285016112ab565b91505092915050565b7f546f6b656e43616c6c3a204f4e4c595f4d414e41474552000000000000000000600082015250565b6000611323601783610bf5565b915061132e826112ed565b602082019050919050565b6000602082019050818103600083015261135281611316565b9050919050565b60008190508160005260206000209050919050565b60006020601f8301049050919050565b600082821b905092915050565b6000600883026113bb7fffffffffffffffffffffffffffffffffffffffffffffffffffffffffffffffff8261137e565b6113c5868361137e565b95508019841693508086168417925050509392505050565b6000819050919050565b60006114026113fd6113f884610dca565b6113dd565b610dca565b9050919050565b6000819050919050565b61141c836113e7565b61143061142882611409565b84845461138b565b825550505050565b600090565b611445611438565b611450818484611413565b505050565b5b818110156114745761146960008261143d565b600181019050611456565b5050565b601f8211156114b95761148a81611359565b6114938461136e565b810160208510156114a2578190505b6114b66114ae8561136e565b830182611455565b50505b505050565b600082821c905092915050565b60006114dc600019846008026114be565b1980831691505092915050565b60006114f583836114cb565b9150826002028217905092915050565b61150e82610bea565b67ffffffffffffffff81111561152757611526611097565b5b611531825461122b565b61153c828285611478565b600060209050601f83116001811461156f576000841561155d578287015190505b61156785826114e9565b8655506115cf565b601f19841661157d86611359565b60005b828110156115a557848901518255600182019150602085019450602081019050611580565b868310156115c257848901516115be601f8916826114cb565b8355505b6001600288020188555050505b505050505050565b60006060820190506115ec600083018661125c565b6115f9602083018561125c565b6116066040830184610f43565b949350505050565b6000604082019050611623600083018561125c565b611630602083018461125c565b9392505050565b60008151905061164681610dd4565b92915050565b60006020828403121561166257611661610b55565b5b600061167084828501611637565b91505092915050565b600060208201905061168e600083018461125c565b9291505056fea26469706673582212208b1567219f57f0a346684f0033473cf423530de7a1b6459c9eee7d5d518fb31d64736f6c63430008130033",
  "linkReferences": {},
  "deployedLinkReferences": {}
}