{
  "_format": "hh-sol-artifact-1",
  "contractName": "TokenCall",
  "sourceName": "contracts/tests/tokens/TokenCall.sol",
  "abi": [
    {
      "inputs": [],
      "stateMutability": "nonpayable",
      "type": "constructor"
    },
    {
      "inputs": [
        {
          "internalType": "address",
          "name": "_tokenAddress",
          "type": "address"
        }
      ],
      "name": "addTokenAddress",
      "outputs": [],
      "stateMutability": "nonpayable",
      "type": "function"
    },
    {
      "inputs": [
        {
          "internalType": "address",
          "name": "owner",
          "type": "address"
        },
        {
          "internalType": "address",
          "name": "spender",
          "type": "address"
        },
        {
          "internalType": "address",
          "name": "_tokenAddress",
          "type": "address"
        }
      ],
      "name": "allowance",
      "outputs": [
        {
          "internalType": "uint256",
          "name": "",
          "type": "uint256"
        }
      ],
      "stateMutability": "view",
      "type": "function"
    },
    {
      "inputs": [
        {
          "internalType": "address",
          "name": "spender",
          "type": "address"
        },
        {
          "internalType": "uint256",
          "name": "amount",
          "type": "uint256"
        },
        {
          "internalType": "address",
          "name": "_tokenAddress",
          "type": "address"
        }
      ],
      "name": "approve",
      "outputs": [
        {
          "internalType": "bool",
          "name": "",
          "type": "bool"
        }
      ],
      "stateMutability": "nonpayable",
      "type": "function"
    },
    {
      "inputs": [
        {
          "internalType": "address",
          "name": "account",
          "type": "address"
        },
        {
          "internalType": "address",
          "name": "_tokenAddress",
          "type": "address"
        }
      ],
      "name": "balanceOf",
      "outputs": [
        {
          "internalType": "uint256",
          "name": "",
          "type": "uint256"
        }
      ],
      "stateMutability": "view",
      "type": "function"
    },
    {
      "inputs": [
        {
          "internalType": "address",
          "name": "account",
          "type": "address"
        },
        {
          "internalType": "uint256",
          "name": "amount",
          "type": "uint256"
        },
        {
          "internalType": "address",
          "name": "_tokenAddress",
          "type": "address"
        }
      ],
      "name": "burn",
      "outputs": [
        {
          "internalType": "bool",
          "name": "",
          "type": "bool"
        }
      ],
      "stateMutability": "nonpayable",
      "type": "function"
    },
    {
      "inputs": [],
      "name": "getTokenAddresses",
      "outputs": [
        {
          "internalType": "address[]",
          "name": "",
          "type": "address[]"
        }
      ],
      "stateMutability": "view",
      "type": "function"
    },
    {
      "inputs": [],
      "name": "getTokenSymbols",
      "outputs": [
        {
          "internalType": "string[]",
          "name": "",
          "type": "string[]"
        }
      ],
      "stateMutability": "view",
      "type": "function"
    },
    {
      "inputs": [
        {
          "internalType": "address",
          "name": "account",
          "type": "address"
        },
        {
          "internalType": "uint256",
          "name": "amount",
          "type": "uint256"
        },
        {
          "internalType": "address",
          "name": "_tokenAddress",
          "type": "address"
        }
      ],
      "name": "mint",
      "outputs": [
        {
          "internalType": "bool",
          "name": "",
          "type": "bool"
        }
      ],
      "stateMutability": "nonpayable",
      "type": "function"
    },
    {
      "inputs": [
        {
          "internalType": "address",
          "name": "_tokenAddress",
          "type": "address"
        }
      ],
      "name": "name",
      "outputs": [
        {
          "internalType": "string",
          "name": "",
          "type": "string"
        }
      ],
      "stateMutability": "view",
      "type": "function"
    },
    {
      "inputs": [
        {
          "internalType": "address",
          "name": "_tokenAddress",
          "type": "address"
        }
      ],
      "name": "symbol",
      "outputs": [
        {
          "internalType": "string",
          "name": "",
          "type": "string"
        }
      ],
      "stateMutability": "view",
      "type": "function"
    },
    {
      "inputs": [
        {
          "internalType": "address",
          "name": "_tokenAddress",
          "type": "address"
        }
      ],
      "name": "totalSupply",
      "outputs": [
        {
          "internalType": "uint256",
          "name": "",
          "type": "uint256"
        }
      ],
      "stateMutability": "view",
      "type": "function"
    },
    {
      "inputs": [
        {
          "internalType": "address",
          "name": "to",
          "type": "address"
        },
        {
          "internalType": "uint256",
          "name": "amount",
          "type": "uint256"
        },
        {
          "internalType": "address",
          "name": "_tokenAddress",
          "type": "address"
        }
      ],
      "name": "transfer",
      "outputs": [
        {
          "internalType": "bool",
          "name": "",
          "type": "bool"
        }
      ],
      "stateMutability": "nonpayable",
      "type": "function"
    },
    {
      "inputs": [
        {
          "internalType": "address",
          "name": "from",
          "type": "address"
        },
        {
          "internalType": "address",
          "name": "to",
          "type": "address"
        },
        {
          "internalType": "uint256",
          "name": "amount",
          "type": "uint256"
        },
        {
          "internalType": "address",
          "name": "_tokenAddress",
          "type": "address"
        }
      ],
      "name": "transferFrom",
      "outputs": [
        {
          "internalType": "bool",
          "name": "",
          "type": "bool"
        }
      ],
      "stateMutability": "nonpayable",
      "type": "function"
    }
  ],
  "bytecode": "0x608060405234801561001057600080fd5b50600080546001600160a01b03191633179055610df3806100326000396000f3fe608060405234801561001057600080fd5b50600436106100df5760003560e01c8063927da1051161008c578063dbba0f0111610066578063dbba0f01146101c7578063e4dc2aa4146101da578063ee8c24b8146101ed578063f7888aec1461020257600080fd5b8063927da10514610180578063a86e3576146101a1578063b8ce670d146101b457600080fd5b80631271f09a116100bd5780631271f09a1461014557806351992fcb146101585780635fc9309c1461016d57600080fd5b806301984892146100e457806305b938161461010d5780630d4d151314610122575b600080fd5b6100f76100f2366004610953565b610215565b60405161010491906109be565b60405180910390f35b610115610283565b60405161010491906109d1565b610135610130366004610a33565b61035c565b6040519015158152602001610104565b610135610153366004610a33565b6103f8565b61016b610166366004610953565b61044a565b005b61013561017b366004610a6f565b6105c4565b61019361018e366004610abc565b610668565b604051908152602001610104565b6100f76101af366004610953565b6106ff565b6101356101c2366004610a33565b61073f565b6101356101d5366004610a33565b610791565b6101936101e8366004610953565b6107e3565b6101f5610847565b6040516101049190610af6565b610193610210366004610b43565b6108a9565b6060816001600160a01b03166306fdde036040518163ffffffff1660e01b8152600401600060405180830381865afa158015610255573d6000803e3d6000fd5b505050506040513d6000823e601f3d908101601f1916820160405261027d9190810190610b8c565b92915050565b60606002805480602002602001604051908101604052809291908181526020016000905b828210156103535783829060005260206000200180546102c690610c39565b80601f01602080910402602001604051908101604052809291908181526020018280546102f290610c39565b801561033f5780601f106103145761010080835404028352916020019161033f565b820191906000526020600020905b81548152906001019060200180831161032257829003601f168201915b5050505050815260200190600101906102a7565b50505050905090565b6040517f40c10f190000000000000000000000000000000000000000000000000000000081526001600160a01b03848116600483015260248201849052600091908316906340c10f19906044015b6020604051808303816000875af11580156103c9573d6000803e3d6000fd5b505050506040513d601f19601f820116820180604052508101906103ed9190610c73565b506001949350505050565b6040517f095ea7b30000000000000000000000000000000000000000000000000000000081526001600160a01b038481166004830152602482018490526000919083169063095ea7b3906044016103aa565b6000546001600160a01b031633146104c2576040517f08c379a000000000000000000000000000000000000000000000000000000000815260206004820152601760248201527f546f6b656e43616c6c3a204f4e4c595f4d414e41474552000000000000000000604482015260640160405180910390fd5b60018054808201825560009182527fb10e2d527612073b26eecdfd717e6a320cf44b4afac2b0732d9fcbe2b7fa0cf60180547fffffffffffffffffffffffff0000000000000000000000000000000000000000166001600160a01b038416908117909155604080517f95d89b4100000000000000000000000000000000000000000000000000000000815290516002936395d89b4192600480820193918290030181865afa158015610578573d6000803e3d6000fd5b505050506040513d6000823e601f3d908101601f191682016040526105a09190810190610b8c565b815460018101835560009283526020909220909101906105c09082610ce4565b5050565b6040517f23b872dd0000000000000000000000000000000000000000000000000000000081526001600160a01b038581166004830152848116602483015260448201849052600091908316906323b872dd906064016020604051808303816000875af1158015610638573d6000803e3d6000fd5b505050506040513d601f19601f8201168201806040525081019061065c9190610c73565b50600195945050505050565b6040517fdd62ed3e0000000000000000000000000000000000000000000000000000000081526001600160a01b03848116600483015283811660248301526000919083169063dd62ed3e90604401602060405180830381865afa1580156106d3573d6000803e3d6000fd5b505050506040513d601f19601f820116820180604052508101906106f79190610da4565b949350505050565b6060816001600160a01b03166395d89b416040518163ffffffff1660e01b8152600401600060405180830381865afa158015610255573d6000803e3d6000fd5b6040517f9dc29fac0000000000000000000000000000000000000000000000000000000081526001600160a01b0384811660048301526024820184905260009190831690639dc29fac906044016103aa565b6040517fa9059cbb0000000000000000000000000000000000000000000000000000000081526001600160a01b038481166004830152602482018490526000919083169063a9059cbb906044016103aa565b6000816001600160a01b03166318160ddd6040518163ffffffff1660e01b8152600401602060405180830381865afa158015610823573d6000803e3d6000fd5b505050506040513d601f19601f8201168201806040525081019061027d9190610da4565b6060600180548060200260200160405190810160405280929190818152602001828054801561089f57602002820191906000526020600020905b81546001600160a01b03168152600190910190602001808311610881575b5050505050905090565b6040517f70a082310000000000000000000000000000000000000000000000000000000081526001600160a01b038381166004830152600091908316906370a0823190602401602060405180830381865afa15801561090c573d6000803e3d6000fd5b505050506040513d601f19601f820116820180604052508101906109309190610da4565b9392505050565b80356001600160a01b038116811461094e57600080fd5b919050565b60006020828403121561096557600080fd5b61093082610937565b60005b83811015610989578181015183820152602001610971565b50506000910152565b600081518084526109aa81602086016020860161096e565b601f01601f19169290920160200192915050565b6020815260006109306020830184610992565b6000602080830181845280855180835260408601915060408160051b870101925083870160005b82811015610a2657603f19888603018452610a14858351610992565b945092850192908501906001016109f8565b5092979650505050505050565b600080600060608486031215610a4857600080fd5b610a5184610937565b925060208401359150610a6660408501610937565b90509250925092565b60008060008060808587031215610a8557600080fd5b610a8e85610937565b9350610a9c60208601610937565b925060408501359150610ab160608601610937565b905092959194509250565b600080600060608486031215610ad157600080fd5b610ada84610937565b9250610ae860208501610937565b9150610a6660408501610937565b6020808252825182820181905260009190848201906040850190845b81811015610b375783516001600160a01b031683529284019291840191600101610b12565b50909695505050505050565b60008060408385031215610b5657600080fd5b610b5f83610937565b9150610b6d60208401610937565b90509250929050565b634e487b7160e01b600052604160045260246000fd5b600060208284031215610b9e57600080fd5b815167ffffffffffffffff80821115610bb657600080fd5b818401915084601f830112610bca57600080fd5b815181811115610bdc57610bdc610b76565b604051601f8201601f19908116603f01168101908382118183101715610c0457610c04610b76565b81604052828152876020848701011115610c1d57600080fd5b610c2e83602083016020880161096e565b979650505050505050565b600181811c90821680610c4d57607f821691505b602082108103610c6d57634e487b7160e01b600052602260045260246000fd5b50919050565b600060208284031215610c8557600080fd5b8151801515811461093057600080fd5b601f821115610cdf57600081815260208120601f850160051c81016020861015610cbc5750805b601f850160051c820191505b81811015610cdb57828155600101610cc8565b5050505b505050565b815167ffffffffffffffff811115610cfe57610cfe610b76565b610d1281610d0c8454610c39565b84610c95565b602080601f831160018114610d475760008415610d2f5750858301515b600019600386901b1c1916600185901b178555610cdb565b600085815260208120601f198616915b82811015610d7657888601518255948401946001909101908401610d57565b5085821015610d945787850151600019600388901b60f8161c191681555b5050505050600190811b01905550565b600060208284031215610db657600080fd5b505191905056fea264697066735822122097cab670065b139a57796caf547cf6f1f88847d98a930f7adec47334768b8c3364736f6c63430008130033",
  "linkReferences": {},
  "deployedLinkReferences": {}
}