{
  "_format": "hh-sol-artifact-1",
  "contractName": "ExchangeStorage",
  "sourceName": "contracts/Topos/Exchange/ExchangeStorage.sol",
  "abi": [
    {
      "inputs": [],
      "name": "bankContract",
      "outputs": [
        {
          "internalType": "address",
          "name": "",
          "type": "address"
        }
      ],
      "stateMutability": "view",
      "type": "function"
    },
    {
      "inputs": [],
      "name": "bondCallContract",
      "outputs": [
        {
          "internalType": "address",
          "name": "",
          "type": "address"
        }
      ],
      "stateMutability": "view",
      "type": "function"
    },
    {
      "inputs": [
        {
          "internalType": "string",
          "name": "",
          "type": "string"
        },
        {
          "internalType": "uint256",
          "name": "",
          "type": "uint256"
        }
      ],
      "name": "dealListings",
      "outputs": [
        {
          "internalType": "string",
          "name": "dealID",
          "type": "string"
        },
        {
          "internalType": "address",
          "name": "owner",
          "type": "address"
        },
        {
          "internalType": "uint256",
          "name": "amount",
          "type": "uint256"
        },
        {
          "internalType": "uint256",
          "name": "price",
          "type": "uint256"
        },
        {
          "internalType": "uint256",
          "name": "index",
          "type": "uint256"
        }
      ],
      "stateMutability": "view",
      "type": "function"
    },
    {
      "inputs": [
        {
          "internalType": "address",
          "name": "",
          "type": "address"
        },
        {
          "internalType": "string",
          "name": "",
          "type": "string"
        }
      ],
      "name": "investorListing",
      "outputs": [
        {
          "internalType": "string",
          "name": "dealID",
          "type": "string"
        },
        {
          "internalType": "address",
          "name": "owner",
          "type": "address"
        },
        {
          "internalType": "uint256",
          "name": "amount",
          "type": "uint256"
        },
        {
          "internalType": "uint256",
          "name": "price",
          "type": "uint256"
        },
        {
          "internalType": "uint256",
          "name": "index",
          "type": "uint256"
        }
      ],
      "stateMutability": "view",
      "type": "function"
    }
  ],
  "bytecode": "0x608060405234801561001057600080fd5b506107a1806100206000396000f3fe608060405234801561001057600080fd5b506004361061004c5760003560e01c806307c2e449146100515780632d9fc1611461006f5780635e43522e146100a3578063d7fe4c25146100c1575b600080fd5b6100596100f5565b6040516100669190610394565b60405180910390f35b61008960048036038101906100849190610535565b61011b565b60405161009a959493929190610629565b60405180910390f35b6100ab61021c565b6040516100b89190610394565b60405180910390f35b6100db60048036038101906100d691906106af565b610242565b6040516100ec959493929190610629565b60405180910390f35b600260009054906101000a900473ffffffffffffffffffffffffffffffffffffffff1681565b600160205281600052604060002081805160208101820180518482526020830160208501208183528095505050505050600091509150508060000180546101619061073a565b80601f016020809104026020016040519081016040528092919081815260200182805461018d9061073a565b80156101da5780601f106101af576101008083540402835291602001916101da565b820191906000526020600020905b8154815290600101906020018083116101bd57829003601f168201915b5050505050908060010160009054906101000a900473ffffffffffffffffffffffffffffffffffffffff16908060020154908060030154908060040154905085565b600360009054906101000a900473ffffffffffffffffffffffffffffffffffffffff1681565b600082805160208101820180518482526020830160208501208183528095505050505050818154811061027457600080fd5b9060005260206000209060050201600091509150508060000180546102989061073a565b80601f01602080910402602001604051908101604052809291908181526020018280546102c49061073a565b80156103115780601f106102e657610100808354040283529160200191610311565b820191906000526020600020905b8154815290600101906020018083116102f457829003601f168201915b5050505050908060010160009054906101000a900473ffffffffffffffffffffffffffffffffffffffff16908060020154908060030154908060040154905085565b600073ffffffffffffffffffffffffffffffffffffffff82169050919050565b600061037e82610353565b9050919050565b61038e81610373565b82525050565b60006020820190506103a96000830184610385565b92915050565b6000604051905090565b600080fd5b600080fd5b6103cc81610373565b81146103d757600080fd5b50565b6000813590506103e9816103c3565b92915050565b600080fd5b600080fd5b6000601f19601f8301169050919050565b7f4e487b7100000000000000000000000000000000000000000000000000000000600052604160045260246000fd5b610442826103f9565b810181811067ffffffffffffffff821117156104615761046061040a565b5b80604052505050565b60006104746103af565b90506104808282610439565b919050565b600067ffffffffffffffff8211156104a05761049f61040a565b5b6104a9826103f9565b9050602081019050919050565b82818337600083830152505050565b60006104d86104d384610485565b61046a565b9050828152602081018484840111156104f4576104f36103f4565b5b6104ff8482856104b6565b509392505050565b600082601f83011261051c5761051b6103ef565b5b813561052c8482602086016104c5565b91505092915050565b6000806040838503121561054c5761054b6103b9565b5b600061055a858286016103da565b925050602083013567ffffffffffffffff81111561057b5761057a6103be565b5b61058785828601610507565b9150509250929050565b600081519050919050565b600082825260208201905092915050565b60005b838110156105cb5780820151818401526020810190506105b0565b60008484015250505050565b60006105e282610591565b6105ec818561059c565b93506105fc8185602086016105ad565b610605816103f9565b840191505092915050565b6000819050919050565b61062381610610565b82525050565b600060a082019050818103600083015261064381886105d7565b90506106526020830187610385565b61065f604083018661061a565b61066c606083018561061a565b610679608083018461061a565b9695505050505050565b61068c81610610565b811461069757600080fd5b50565b6000813590506106a981610683565b92915050565b600080604083850312156106c6576106c56103b9565b5b600083013567ffffffffffffffff8111156106e4576106e36103be565b5b6106f085828601610507565b92505060206107018582860161069a565b9150509250929050565b7f4e487b7100000000000000000000000000000000000000000000000000000000600052602260045260246000fd5b6000600282049050600182168061075257607f821691505b6020821081036107655761076461070b565b5b5091905056fea26469706673582212206df930df4fbb4c64884d157ad80020f847626b171db3e31632a71f1e8ae8266b64736f6c63430008130033",
  "linkReferences": {},
  "deployedLinkReferences": {}
}