{
  "_format": "hh-sol-artifact-1",
  "contractName": "ExchangeStorage",
  "sourceName": "contracts/Topos/Exchange/ExchangeStorage.sol",
  "abi": [
    {
      "anonymous": false,
      "inputs": [
        {
          "indexed": false,
          "internalType": "string",
          "name": "dealID",
          "type": "string"
        },
        {
          "indexed": false,
          "internalType": "address",
          "name": "seller",
          "type": "address"
        },
        {
          "indexed": false,
          "internalType": "uint256",
          "name": "amountToAdd",
          "type": "uint256"
        }
      ],
      "name": "AmountIncreased",
      "type": "event"
    },
    {
      "anonymous": false,
      "inputs": [
        {
          "indexed": false,
          "internalType": "string",
          "name": "dealID",
          "type": "string"
        },
        {
          "indexed": false,
          "internalType": "address",
          "name": "seller",
          "type": "address"
        },
        {
          "indexed": false,
          "internalType": "address",
          "name": "buyer",
          "type": "address"
        },
        {
          "indexed": false,
          "internalType": "uint256",
          "name": "amount",
          "type": "uint256"
        }
      ],
      "name": "BondBought",
      "type": "event"
    },
    {
      "anonymous": false,
      "inputs": [
        {
          "indexed": false,
          "internalType": "string",
          "name": "dealID",
          "type": "string"
        },
        {
          "indexed": false,
          "internalType": "address",
          "name": "seller",
          "type": "address"
        }
      ],
      "name": "BondsCanceled",
      "type": "event"
    },
    {
      "anonymous": false,
      "inputs": [
        {
          "indexed": false,
          "internalType": "string",
          "name": "dealID",
          "type": "string"
        },
        {
          "indexed": false,
          "internalType": "address",
          "name": "seller",
          "type": "address"
        },
        {
          "indexed": false,
          "internalType": "uint256",
          "name": "amount",
          "type": "uint256"
        },
        {
          "indexed": false,
          "internalType": "uint256",
          "name": "price",
          "type": "uint256"
        }
      ],
      "name": "BondsListed",
      "type": "event"
    },
    {
      "anonymous": false,
      "inputs": [
        {
          "indexed": false,
          "internalType": "string",
          "name": "dealID",
          "type": "string"
        },
        {
          "indexed": false,
          "internalType": "address",
          "name": "seller",
          "type": "address"
        },
        {
          "indexed": false,
          "internalType": "uint256",
          "name": "newPrice",
          "type": "uint256"
        }
      ],
      "name": "PriceUpdated",
      "type": "event"
    },
    {
      "inputs": [],
      "name": "bankContract",
      "outputs": [
        {
          "internalType": "address",
          "name": "",
          "type": "address"
        }
      ],
      "stateMutability": "view",
      "type": "function"
    },
    {
      "inputs": [],
      "name": "bondCallContract",
      "outputs": [
        {
          "internalType": "address",
          "name": "",
          "type": "address"
        }
      ],
      "stateMutability": "view",
      "type": "function"
    },
    {
      "inputs": [],
      "name": "exchangeBondsStorage",
      "outputs": [
        {
          "internalType": "address",
          "name": "",
          "type": "address"
        }
      ],
      "stateMutability": "view",
      "type": "function"
    },
    {
      "inputs": [
        {
          "internalType": "address",
          "name": "",
          "type": "address"
        },
        {
          "internalType": "string",
          "name": "",
          "type": "string"
        }
      ],
      "name": "investorListing",
      "outputs": [
        {
          "internalType": "string",
          "name": "dealID",
          "type": "string"
        },
        {
          "internalType": "address",
          "name": "owner",
          "type": "address"
        },
        {
          "internalType": "uint256",
          "name": "amount",
          "type": "uint256"
        },
        {
          "internalType": "uint256",
          "name": "price",
          "type": "uint256"
        },
        {
          "internalType": "uint256",
          "name": "index",
          "type": "uint256"
        },
        {
          "internalType": "uint256",
          "name": "listingTime",
          "type": "uint256"
        }
      ],
      "stateMutability": "view",
      "type": "function"
    },
    {
      "inputs": [],
      "name": "owner",
      "outputs": [
        {
          "internalType": "address",
          "name": "",
          "type": "address"
        }
      ],
      "stateMutability": "view",
      "type": "function"
    }
  ],
  "bytecode": "0x608060405234801561001057600080fd5b5061067c806100206000396000f3fe608060405234801561001057600080fd5b50600436106100575760003560e01c806307c2e4491461005c5780632d9fc1611461007a5780635e43522e146100af5780638da5cb5b146100cd578063916cdbfc146100eb575b600080fd5b610064610109565b60405161007191906102e9565b60405180910390f35b610094600480360381019061008f919061048a565b61012f565b6040516100a69695949392919061057e565b60405180910390f35b6100b7610236565b6040516100c491906102e9565b60405180910390f35b6100d561025c565b6040516100e291906102e9565b60405180910390f35b6100f3610282565b60405161010091906102e9565b60405180910390f35b600260009054906101000a900473ffffffffffffffffffffffffffffffffffffffff1681565b6000602052816000526040600020818051602081018201805184825260208301602085012081835280955050505050506000915091505080600001805461017590610615565b80601f01602080910402602001604051908101604052809291908181526020018280546101a190610615565b80156101ee5780601f106101c3576101008083540402835291602001916101ee565b820191906000526020600020905b8154815290600101906020018083116101d157829003601f168201915b5050505050908060010160009054906101000a900473ffffffffffffffffffffffffffffffffffffffff16908060020154908060030154908060040154908060050154905086565b600360009054906101000a900473ffffffffffffffffffffffffffffffffffffffff1681565b600160009054906101000a900473ffffffffffffffffffffffffffffffffffffffff1681565b600460009054906101000a900473ffffffffffffffffffffffffffffffffffffffff1681565b600073ffffffffffffffffffffffffffffffffffffffff82169050919050565b60006102d3826102a8565b9050919050565b6102e3816102c8565b82525050565b60006020820190506102fe60008301846102da565b92915050565b6000604051905090565b600080fd5b600080fd5b610321816102c8565b811461032c57600080fd5b50565b60008135905061033e81610318565b92915050565b600080fd5b600080fd5b6000601f19601f8301169050919050565b7f4e487b7100000000000000000000000000000000000000000000000000000000600052604160045260246000fd5b6103978261034e565b810181811067ffffffffffffffff821117156103b6576103b561035f565b5b80604052505050565b60006103c9610304565b90506103d5828261038e565b919050565b600067ffffffffffffffff8211156103f5576103f461035f565b5b6103fe8261034e565b9050602081019050919050565b82818337600083830152505050565b600061042d610428846103da565b6103bf565b90508281526020810184848401111561044957610448610349565b5b61045484828561040b565b509392505050565b600082601f83011261047157610470610344565b5b813561048184826020860161041a565b91505092915050565b600080604083850312156104a1576104a061030e565b5b60006104af8582860161032f565b925050602083013567ffffffffffffffff8111156104d0576104cf610313565b5b6104dc8582860161045c565b9150509250929050565b600081519050919050565b600082825260208201905092915050565b60005b83811015610520578082015181840152602081019050610505565b60008484015250505050565b6000610537826104e6565b61054181856104f1565b9350610551818560208601610502565b61055a8161034e565b840191505092915050565b6000819050919050565b61057881610565565b82525050565b600060c0820190508181036000830152610598818961052c565b90506105a760208301886102da565b6105b4604083018761056f565b6105c1606083018661056f565b6105ce608083018561056f565b6105db60a083018461056f565b979650505050505050565b7f4e487b7100000000000000000000000000000000000000000000000000000000600052602260045260246000fd5b6000600282049050600182168061062d57607f821691505b6020821081036106405761063f6105e6565b5b5091905056fea2646970667358221220f3c9b2be80c0b2bb6a3091d74f5f6da6ee1c1fe19175e90e2c6c406d6943edbd64736f6c63430008130033",
  "linkReferences": {},
  "deployedLinkReferences": {}
}