{
  "_format": "hh-sol-artifact-1",
  "contractName": "ToposBankStorage",
  "sourceName": "contracts/Topos/Bank/ToposBankStorage.sol",
  "abi": [
    {
      "anonymous": false,
      "inputs": [
        {
          "indexed": false,
          "internalType": "string",
          "name": "_dealID",
          "type": "string"
        }
      ],
      "name": "BondIssue",
      "type": "event"
    },
    {
      "anonymous": false,
      "inputs": [
        {
          "indexed": false,
          "internalType": "string",
          "name": "_dealID",
          "type": "string"
        }
      ],
      "name": "BondRedeem",
      "type": "event"
    },
    {
      "anonymous": false,
      "inputs": [
        {
          "indexed": false,
          "internalType": "string",
          "name": "dealID",
          "type": "string"
        }
      ],
      "name": "DealAPproved",
      "type": "event"
    },
    {
      "anonymous": false,
      "inputs": [
        {
          "indexed": false,
          "internalType": "string",
          "name": "dealID",
          "type": "string"
        }
      ],
      "name": "DealARejected",
      "type": "event"
    },
    {
      "anonymous": false,
      "inputs": [
        {
          "indexed": false,
          "internalType": "string",
          "name": "dealID",
          "type": "string"
        },
        {
          "components": [
            {
              "internalType": "string",
              "name": "dealID",
              "type": "string"
            },
            {
              "internalType": "string",
              "name": "prospectusURI",
              "type": "string"
            },
            {
              "internalType": "address",
              "name": "issuerAddress",
              "type": "address"
            },
            {
              "internalType": "uint256",
              "name": "debtAmount",
              "type": "uint256"
            },
            {
              "internalType": "uint256",
              "name": "denomination",
              "type": "uint256"
            },
            {
              "internalType": "uint256",
              "name": "couponRate",
              "type": "uint256"
            },
            {
              "internalType": "uint256",
              "name": "couponFrequency",
              "type": "uint256"
            },
            {
              "internalType": "uint256",
              "name": "maturityDate",
              "type": "uint256"
            },
            {
              "internalType": "uint256",
              "name": "index",
              "type": "uint256"
            },
            {
              "internalType": "address",
              "name": "currency",
              "type": "address"
            },
            {
              "internalType": "uint8",
              "name": "couponType",
              "type": "uint8"
            },
            {
              "internalType": "enum BondData.DealStatus",
              "name": "status",
              "type": "uint8"
            }
          ],
          "indexed": false,
          "internalType": "struct BondData.Deal",
          "name": "deal",
          "type": "tuple"
        }
      ],
      "name": "DealSubmitted",
      "type": "event"
    },
    {
      "anonymous": false,
      "inputs": [
        {
          "indexed": false,
          "internalType": "string",
          "name": "dealID",
          "type": "string"
        },
        {
          "indexed": false,
          "internalType": "address",
          "name": "investor",
          "type": "address"
        }
      ],
      "name": "RegisterForDeal",
      "type": "event"
    },
    {
      "inputs": [
        {
          "internalType": "address",
          "name": "",
          "type": "address"
        },
        {
          "internalType": "string",
          "name": "",
          "type": "string"
        }
      ],
      "name": "amountInvested",
      "outputs": [
        {
          "internalType": "uint256",
          "name": "amount",
          "type": "uint256"
        },
        {
          "internalType": "bool",
          "name": "hasInvested",
          "type": "bool"
        },
        {
          "internalType": "uint256",
          "name": "index",
          "type": "uint256"
        }
      ],
      "stateMutability": "view",
      "type": "function"
    },
    {
      "inputs": [],
      "name": "bondCallContract",
      "outputs": [
        {
          "internalType": "address",
          "name": "",
          "type": "address"
        }
      ],
      "stateMutability": "view",
      "type": "function"
    },
    {
      "inputs": [
        {
          "internalType": "string",
          "name": "",
          "type": "string"
        }
      ],
      "name": "dealBondContracts",
      "outputs": [
        {
          "internalType": "address",
          "name": "",
          "type": "address"
        }
      ],
      "stateMutability": "view",
      "type": "function"
    },
    {
      "inputs": [],
      "name": "dealFees",
      "outputs": [
        {
          "internalType": "uint256",
          "name": "",
          "type": "uint256"
        }
      ],
      "stateMutability": "view",
      "type": "function"
    },
    {
      "inputs": [
        {
          "internalType": "string",
          "name": "",
          "type": "string"
        },
        {
          "internalType": "uint256",
          "name": "",
          "type": "uint256"
        }
      ],
      "name": "dealInvestment",
      "outputs": [
        {
          "internalType": "address",
          "name": "investor",
          "type": "address"
        },
        {
          "internalType": "uint256",
          "name": "amount",
          "type": "uint256"
        }
      ],
      "stateMutability": "view",
      "type": "function"
    },
    {
      "inputs": [
        {
          "internalType": "string",
          "name": "",
          "type": "string"
        }
      ],
      "name": "deals",
      "outputs": [
        {
          "internalType": "string",
          "name": "dealID",
          "type": "string"
        },
        {
          "internalType": "string",
          "name": "prospectusURI",
          "type": "string"
        },
        {
          "internalType": "address",
          "name": "issuerAddress",
          "type": "address"
        },
        {
          "internalType": "uint256",
          "name": "debtAmount",
          "type": "uint256"
        },
        {
          "internalType": "uint256",
          "name": "denomination",
          "type": "uint256"
        },
        {
          "internalType": "uint256",
          "name": "couponRate",
          "type": "uint256"
        },
        {
          "internalType": "uint256",
          "name": "couponFrequency",
          "type": "uint256"
        },
        {
          "internalType": "uint256",
          "name": "maturityDate",
          "type": "uint256"
        },
        {
          "internalType": "uint256",
          "name": "index",
          "type": "uint256"
        },
        {
          "internalType": "address",
          "name": "currency",
          "type": "address"
        },
        {
          "internalType": "uint8",
          "name": "couponType",
          "type": "uint8"
        },
        {
          "internalType": "enum BondData.DealStatus",
          "name": "status",
          "type": "uint8"
        }
      ],
      "stateMutability": "view",
      "type": "function"
    },
    {
      "inputs": [],
      "name": "identityRegistryContract",
      "outputs": [
        {
          "internalType": "address",
          "name": "",
          "type": "address"
        }
      ],
      "stateMutability": "view",
      "type": "function"
    },
    {
      "inputs": [],
      "name": "irsCallContract",
      "outputs": [
        {
          "internalType": "address",
          "name": "",
          "type": "address"
        }
      ],
      "stateMutability": "view",
      "type": "function"
    },
    {
      "inputs": [
        {
          "internalType": "address",
          "name": "",
          "type": "address"
        },
        {
          "internalType": "uint256",
          "name": "",
          "type": "uint256"
        }
      ],
      "name": "issuerDeals",
      "outputs": [
        {
          "internalType": "string",
          "name": "dealID",
          "type": "string"
        },
        {
          "internalType": "string",
          "name": "prospectusURI",
          "type": "string"
        },
        {
          "internalType": "address",
          "name": "issuerAddress",
          "type": "address"
        },
        {
          "internalType": "uint256",
          "name": "debtAmount",
          "type": "uint256"
        },
        {
          "internalType": "uint256",
          "name": "denomination",
          "type": "uint256"
        },
        {
          "internalType": "uint256",
          "name": "couponRate",
          "type": "uint256"
        },
        {
          "internalType": "uint256",
          "name": "couponFrequency",
          "type": "uint256"
        },
        {
          "internalType": "uint256",
          "name": "maturityDate",
          "type": "uint256"
        },
        {
          "internalType": "uint256",
          "name": "index",
          "type": "uint256"
        },
        {
          "internalType": "address",
          "name": "currency",
          "type": "address"
        },
        {
          "internalType": "uint8",
          "name": "couponType",
          "type": "uint8"
        },
        {
          "internalType": "enum BondData.DealStatus",
          "name": "status",
          "type": "uint8"
        }
      ],
      "stateMutability": "view",
      "type": "function"
    },
    {
      "inputs": [
        {
          "internalType": "address",
          "name": "",
          "type": "address"
        },
        {
          "internalType": "uint256",
          "name": "",
          "type": "uint256"
        }
      ],
      "name": "issuerIRS",
      "outputs": [
        {
          "internalType": "address",
          "name": "irsContract",
          "type": "address"
        },
        {
          "internalType": "address",
          "name": "fixedInterestPayer",
          "type": "address"
        },
        {
          "internalType": "address",
          "name": "floatingInterestPayer",
          "type": "address"
        },
        {
          "internalType": "uint8",
          "name": "ratesDecimals",
          "type": "uint8"
        },
        {
          "internalType": "uint8",
          "name": "status",
          "type": "uint8"
        },
        {
          "internalType": "uint256",
          "name": "swapRate",
          "type": "uint256"
        },
        {
          "internalType": "uint256",
          "name": "spread",
          "type": "uint256"
        },
        {
          "internalType": "address",
          "name": "assetContract",
          "type": "address"
        },
        {
          "internalType": "uint256",
          "name": "notionalAmount",
          "type": "uint256"
        },
        {
          "internalType": "uint256",
          "name": "paymentFrequency",
          "type": "uint256"
        },
        {
          "internalType": "uint256",
          "name": "startingDate",
          "type": "uint256"
        },
        {
          "internalType": "uint256",
          "name": "maturityDate",
          "type": "uint256"
        },
        {
          "internalType": "uint256",
          "name": "benchmark",
          "type": "uint256"
        },
        {
          "internalType": "uint8",
          "name": "index",
          "type": "uint8"
        }
      ],
      "stateMutability": "view",
      "type": "function"
    },
    {
      "inputs": [],
      "name": "issuersFundContract",
      "outputs": [
        {
          "internalType": "address",
          "name": "",
          "type": "address"
        }
      ],
      "stateMutability": "view",
      "type": "function"
    },
    {
      "inputs": [],
      "name": "rolesContract",
      "outputs": [
        {
          "internalType": "address",
          "name": "",
          "type": "address"
        }
      ],
      "stateMutability": "view",
      "type": "function"
    },
    {
      "inputs": [],
      "name": "toposManager",
      "outputs": [
        {
          "internalType": "address",
          "name": "",
          "type": "address"
        }
      ],
      "stateMutability": "view",
      "type": "function"
    },
    {
      "inputs": [
        {
          "internalType": "string",
          "name": "",
          "type": "string"
        }
      ],
      "name": "totalAmountInvestedForDeal",
      "outputs": [
        {
          "internalType": "uint256",
          "name": "",
          "type": "uint256"
        }
      ],
      "stateMutability": "view",
      "type": "function"
    }
  ],
  "bytecode": "0x60808060405234610016576108aa908161001c8239f35b600080fdfe6040608081526004908136101561001557600080fd5b6000803560e01c8063041e9b8914610582578063088674e01461055a5780633bbada4614610466578063499fa18a146103e057806349f5d1d91461032b5780635e43522e146103035780635ed7e2c1146102a65780637af4d6521461027e5780637f31ed7314610256578063a0a57dac14610194578063af9080f814610175578063ca53b3911461014d578063fb90e441146101215763fe0ab4b3146100ba57600080fd5b3461011e57602036600319011261011e5782359067ffffffffffffffff821161011e575061010b60206100f981956001600160a01b039436910161066b565b818551938285809451938492016106c2565b8101600181520301902054169051908152f35b80fd5b5090346101495781600319360112610149576020906001600160a01b03600d54169051908152f35b5080fd5b5090346101495781600319360112610149576020906001600160a01b03600954169051908152f35b509034610149578160031936011261014957602090600e549051908152f35b503461011e57602036600319011261011e57823567ffffffffffffffff8111610149576020610252926101cd6101e0933690880161066b565b90828651948386809551938492016106c2565b8201908152030190206101f2816106e5565b926101ff600183016106e5565b936001600160a01b0392836002820154169660038201549082015460058301546006840154916007850154936009600887015496015497519b8c9b60ff8a60a81c169a60ff8b60a01c169a16988d6107db565b0390f35b5090346101495781600319360112610149576020906001600160a01b03600854169051908152f35b5090346101495781600319360112610149576020906001600160a01b03600c54169051908152f35b503461011e57602036600319011261011e5782359067ffffffffffffffff821161011e5750602080936102df6102f2933690830161066b565b90828551948386809551938492016106c2565b820190815203019020549051908152f35b5090346101495781600319360112610149576020906001600160a01b03600b54169051908152f35b509190346103dc57806003193601126103dc57610346610618565b6024356001600160a01b038092168552600660205282852080548210156103d857602086600a92610252969798522091020192610382846106e5565b61038e600186016106e5565b94836002820154169660038201549082015460058301546006840154916007850154936009600887015496015497519b8c9b60ff8a60a81c169a60ff8b60a01c169a16988d6107db565b8580fd5b8280fd5b508234610149578260031936011261014957803567ffffffffffffffff81116103dc5761040f9136910161066b565b9061042b602060243593818651938285809451938492016106c2565b81016003815203019020805483101561014957906020918152209060011b0160016001600160a01b0382541691015482519182526020820152f35b5082903461011e578260031936011261011e57610481610618565b90602435906001600160a01b038093168152600760205284812080548310156101495781526020902090600c02019080825416938160018401541693600284015490600385015490850154846005870154169060068701549260078801549460088901549660098a015498600a8b01549a600b015460ff169b8251809e8152602001528216908c01528060a01c60ff1660608c015260a81c60ff1660808b015260a08a015260c089015260e08801526101008701526101208601526101408501526101608401526101808301526101a08201526101c090f35b5090346101495781600319360112610149576020906001600160a01b03600a54169051908152f35b5091346103dc57816003193601126103dc5761059c610618565b9060243567ffffffffffffffff81116106145791836060956001600160a01b036105ce6020956105e99736910161066b565b931681526005845220828551948386809551938492016106c2565b820190815203019020805491600260ff60018401541692015491815193845215156020840152820152f35b8480fd5b600435906001600160a01b038216820361062e57565b600080fd5b90601f8019910116810190811067ffffffffffffffff82111761065557604052565b634e487b7160e01b600052604160045260246000fd5b81601f8201121561062e5780359067ffffffffffffffff821161065557604051926106a0601f8401601f191660200185610633565b8284526020838301011161062e57816000926020809301838601378301015290565b60005b8381106106d55750506000910152565b81810151838201526020016106c5565b90604051906000835490600182811c908084169687156107ac575b602094858410891461079857879884899798995290816000146107765750600114610737575b50505061073592500383610633565b565b600090815285812095935091905b81831061075e5750506107359350820101388080610726565b85548884018501529485019487945091830191610745565b9250505061073594925060ff191682840152151560051b820101388080610726565b602485634e487b7160e01b81526022600452fd5b91607f1691610700565b906020916107cf815180928185528580860191016106c2565b601f01601f1916010190565b99959161081090610802959e9d9c999560ff9b97939995998d6101809081815201906107b6565b8c810360208e0152906107b6565b9c6001600160a01b0380981660408c015260608b015260808a015260a089015260c088015260e08701526101008601521661012084015216610140820152600682101561085e576101600152565b634e487b7160e01b600052602160045260246000fdfea26469706673582212201746271f1c3d79237c0eb0b1db4220250c8578f9faf0e0b9d2487dfec14425b064736f6c63430008130033",
  "linkReferences": {},
  "deployedLinkReferences": {}
}