{
  "_format": "hh-sol-artifact-1",
  "contractName": "CouponPayment",
  "sourceName": "contracts/coupon/CouponPayment.sol",
  "abi": [
    {
      "inputs": [],
      "stateMutability": "nonpayable",
      "type": "constructor"
    },
    {
      "inputs": [],
      "name": "bankContract",
      "outputs": [
        {
          "internalType": "address",
          "name": "",
          "type": "address"
        }
      ],
      "stateMutability": "view",
      "type": "function"
    },
    {
      "inputs": [
        {
          "internalType": "address",
          "name": "_bondContract",
          "type": "address"
        }
      ],
      "name": "contractBalance",
      "outputs": [
        {
          "internalType": "uint256",
          "name": "",
          "type": "uint256"
        }
      ],
      "stateMutability": "view",
      "type": "function"
    },
    {
      "inputs": [
        {
          "internalType": "address",
          "name": "_bondContract",
          "type": "address"
        }
      ],
      "name": "getListOfInterestsPaid",
      "outputs": [
        {
          "components": [
            {
              "internalType": "uint256",
              "name": "issueVolume",
              "type": "uint256"
            },
            {
              "internalType": "uint256",
              "name": "couponRate",
              "type": "uint256"
            },
            {
              "internalType": "uint256",
              "name": "interestPaid",
              "type": "uint256"
            }
          ],
          "internalType": "struct BondData.CouponPaymentReceipt[]",
          "name": "",
          "type": "tuple[]"
        }
      ],
      "stateMutability": "view",
      "type": "function"
    },
    {
      "inputs": [
        {
          "internalType": "address",
          "name": "_bondContract",
          "type": "address"
        }
      ],
      "name": "payAnnualInterest",
      "outputs": [],
      "stateMutability": "nonpayable",
      "type": "function"
    },
    {
      "inputs": [
        {
          "internalType": "uint256",
          "name": "_duration",
          "type": "uint256"
        },
        {
          "internalType": "address",
          "name": "_bondContract",
          "type": "address"
        }
      ],
      "name": "payInterest",
      "outputs": [],
      "stateMutability": "nonpayable",
      "type": "function"
    },
    {
      "inputs": [
        {
          "internalType": "address",
          "name": "_bondContract",
          "type": "address"
        }
      ],
      "name": "payInterestEveryMinutes",
      "outputs": [],
      "stateMutability": "nonpayable",
      "type": "function"
    },
    {
      "inputs": [],
      "name": "toposManager",
      "outputs": [
        {
          "internalType": "address",
          "name": "",
          "type": "address"
        }
      ],
      "stateMutability": "view",
      "type": "function"
    },
    {
      "inputs": [
        {
          "internalType": "address",
          "name": "_bondContract",
          "type": "address"
        }
      ],
      "name": "totalAnnualInterestToPay",
      "outputs": [
        {
          "internalType": "uint256",
          "name": "",
          "type": "uint256"
        }
      ],
      "stateMutability": "view",
      "type": "function"
    },
    {
      "inputs": [
        {
          "internalType": "uint256",
          "name": "_duration",
          "type": "uint256"
        },
        {
          "internalType": "address",
          "name": "_bondContract",
          "type": "address"
        }
      ],
      "name": "totalInterestToPay",
      "outputs": [
        {
          "internalType": "uint256",
          "name": "",
          "type": "uint256"
        }
      ],
      "stateMutability": "view",
      "type": "function"
    }
  ],
  "bytecode": "0x608060405234801561001057600080fd5b50336000806101000a81548173ffffffffffffffffffffffffffffffffffffffff021916908373ffffffffffffffffffffffffffffffffffffffff160217905550611aae806100606000396000f3fe608060405234801561001057600080fd5b50600436106100935760003560e01c80636dd09528116100665780636dd09528146101325780637f31ed731461014e578063b8f16e781461016c578063c53b77021461019c578063dd634c30146101cc57610093565b806307c2e4491461009857806313676c62146100b65780633fddb0dd146100d25780634098332b14610102575b600080fd5b6100a06101e8565b6040516100ad91906112ae565b60405180910390f35b6100d060048036038101906100cb9190611309565b61020e565b005b6100ec60048036038101906100e79190611309565b6104ed565b6040516100f99190611440565b60405180910390f35b61011c6004803603810190610117919061148e565b6105a9565b60405161012991906114dd565b60405180910390f35b61014c6004803603810190610147919061148e565b610721565b005b610156610b96565b60405161016391906112ae565b60405180910390f35b61018660048036038101906101819190611309565b610bba565b60405161019391906114dd565b60405180910390f35b6101b660048036038101906101b19190611309565b610d2f565b6040516101c391906114dd565b60405180910390f35b6101e660048036038101906101e19190611309565b610e25565b005b600160009054906101000a900473ffffffffffffffffffffffffffffffffffffffff1681565b60008054906101000a900473ffffffffffffffffffffffffffffffffffffffff1673ffffffffffffffffffffffffffffffffffffffff163373ffffffffffffffffffffffffffffffffffffffff161461029c576040517f08c379a000000000000000000000000000000000000000000000000000000000815260040161029390611555565b60405180910390fd5b60008173ffffffffffffffffffffffffffffffffffffffff16638db6f28a6040518163ffffffff1660e01b8152600401600060405180830381865afa1580156102e9573d6000803e3d6000fd5b505050506040513d6000823e3d601f19601f82011682018060405250810190610312919061174d565b905060008273ffffffffffffffffffffffffffffffffffffffff1663e5a6b10f6040518163ffffffff1660e01b8152600401602060405180830381865afa158015610361573d6000803e3d6000fd5b505050506040513d601f19601f820116820180604052508101906103859190611796565b905060005b82518110156104e75760008382815181106103a8576103a76117c3565b5b60200260200101516000015190506000670de0b6b3a764000073__$8ea466f8ddc120f03f94e9376a86d0f114$__630b75d95f84896040518363ffffffff1660e01b81526004016103fa929190611801565b602060405180830381865af4158015610417573d6000803e3d6000fd5b505050506040513d601f19601f8201168201806040525081019061043b919061182a565b6104459190611886565b90508373ffffffffffffffffffffffffffffffffffffffff1663a9059cbb8360648461047191906118f7565b6040518363ffffffff1660e01b815260040161048e929190611928565b6020604051808303816000875af11580156104ad573d6000803e3d6000fd5b505050506040513d601f19601f820116820180604052508101906104d19190611989565b50505080806104df906119b6565b91505061038a565b50505050565b6060600260008373ffffffffffffffffffffffffffffffffffffffff1673ffffffffffffffffffffffffffffffffffffffff168152602001908152602001600020805480602002602001604051908101604052809291908181526020016000905b8282101561059e578382906000526020600020906003020160405180606001604052908160008201548152602001600182015481526020016002820154815250508152602001906001019061054e565b505050509050919050565b6000808273ffffffffffffffffffffffffffffffffffffffff16638db6f28a6040518163ffffffff1660e01b8152600401600060405180830381865afa1580156105f7573d6000803e3d6000fd5b505050506040513d6000823e3d601f19601f82011682018060405250810190610620919061174d565b90506000805b82518110156106f5576000838281518110610644576106436117c3565b5b6020026020010151600001519050600073__$8ea466f8ddc120f03f94e9376a86d0f114$__63df91e76c838a8a6040518463ffffffff1660e01b815260040161068f93929190611a0d565b602060405180830381865af41580156106ac573d6000803e3d6000fd5b505050506040513d601f19601f820116820180604052508101906106d0919061182a565b905080846106de9190611a44565b9350505080806106ed906119b6565b915050610626565b50612710670de0b6b3a76400008261070d9190611886565b61071791906118f7565b9250505092915050565b60008054906101000a900473ffffffffffffffffffffffffffffffffffffffff1673ffffffffffffffffffffffffffffffffffffffff163373ffffffffffffffffffffffffffffffffffffffff16146107af576040517f08c379a00000000000000000000000000000000000000000000000000000000081526004016107a690611555565b60405180910390fd5b60008173ffffffffffffffffffffffffffffffffffffffff16638db6f28a6040518163ffffffff1660e01b8152600401600060405180830381865afa1580156107fc573d6000803e3d6000fd5b505050506040513d6000823e3d601f19601f82011682018060405250810190610825919061174d565b905060008273ffffffffffffffffffffffffffffffffffffffff1663e5a6b10f6040518163ffffffff1660e01b8152600401602060405180830381865afa158015610874573d6000803e3d6000fd5b505050506040513d601f19601f820116820180604052508101906108989190611796565b905060008373ffffffffffffffffffffffffffffffffffffffff1663710d33296040518163ffffffff1660e01b8152600401602060405180830381865afa1580156108e7573d6000803e3d6000fd5b505050506040513d601f19601f8201168201806040525081019061090b919061182a565b905060008473ffffffffffffffffffffffffffffffffffffffff1663c0bcb26f6040518163ffffffff1660e01b8152600401602060405180830381865afa15801561095a573d6000803e3d6000fd5b505050506040513d601f19601f8201168201806040525081019061097e919061182a565b90506000805b8551811015610ae35760008682815181106109a2576109a16117c3565b5b60200260200101516000015190506000655af3107a400073__$8ea466f8ddc120f03f94e9376a86d0f114$__63df91e76c848d8d6040518463ffffffff1660e01b81526004016109f493929190611a0d565b602060405180830381865af4158015610a11573d6000803e3d6000fd5b505050506040513d601f19601f82011682018060405250810190610a35919061182a565b610a3f9190611886565b90508673ffffffffffffffffffffffffffffffffffffffff1663a9059cbb83836040518363ffffffff1660e01b8152600401610a7c929190611928565b6020604051808303816000875af1158015610a9b573d6000803e3d6000fd5b505050506040513d601f19601f82011682018060405250810190610abf9190611989565b508084610acc9190611a44565b935050508080610adb906119b6565b915050610984565b5060006040518060600160405280858152602001848152602001838152509050600260008873ffffffffffffffffffffffffffffffffffffffff1673ffffffffffffffffffffffffffffffffffffffff16815260200190815260200160002081908060018154018082558091505060019003906000526020600020906003020160009091909190915060008201518160000155602082015181600101556040820151816002015550505050505050505050565b60008054906101000a900473ffffffffffffffffffffffffffffffffffffffff1681565b6000808273ffffffffffffffffffffffffffffffffffffffff16638db6f28a6040518163ffffffff1660e01b8152600401600060405180830381865afa158015610c08573d6000803e3d6000fd5b505050506040513d6000823e3d601f19601f82011682018060405250810190610c31919061174d565b90506000805b8251811015610d24576000838281518110610c5557610c546117c3565b5b60200260200101516000015190506000612710670de0b6b3a764000073__$8ea466f8ddc120f03f94e9376a86d0f114$__630b75d95f858b6040518363ffffffff1660e01b8152600401610caa929190611801565b602060405180830381865af4158015610cc7573d6000803e3d6000fd5b505050506040513d601f19601f82011682018060405250810190610ceb919061182a565b610cf59190611886565b610cff91906118f7565b90508084610d0d9190611a44565b935050508080610d1c906119b6565b915050610c37565b508092505050919050565b6000808273ffffffffffffffffffffffffffffffffffffffff1663e5a6b10f6040518163ffffffff1660e01b8152600401602060405180830381865afa158015610d7d573d6000803e3d6000fd5b505050506040513d601f19601f82011682018060405250810190610da19190611796565b90508073ffffffffffffffffffffffffffffffffffffffff166370a08231306040518263ffffffff1660e01b8152600401610ddc91906112ae565b602060405180830381865afa158015610df9573d6000803e3d6000fd5b505050506040513d601f19601f82011682018060405250810190610e1d919061182a565b915050919050565b60008054906101000a900473ffffffffffffffffffffffffffffffffffffffff1673ffffffffffffffffffffffffffffffffffffffff163373ffffffffffffffffffffffffffffffffffffffff1614610eb3576040517f08c379a0000000000000000000000000000000000000000000000000000000008152600401610eaa90611555565b60405180910390fd5b60008173ffffffffffffffffffffffffffffffffffffffff16638db6f28a6040518163ffffffff1660e01b8152600401600060405180830381865afa158015610f00573d6000803e3d6000fd5b505050506040513d6000823e3d601f19601f82011682018060405250810190610f29919061174d565b905060008273ffffffffffffffffffffffffffffffffffffffff1663710d33296040518163ffffffff1660e01b8152600401602060405180830381865afa158015610f78573d6000803e3d6000fd5b505050506040513d601f19601f82011682018060405250810190610f9c919061182a565b905060008373ffffffffffffffffffffffffffffffffffffffff1663c0bcb26f6040518163ffffffff1660e01b8152600401602060405180830381865afa158015610feb573d6000803e3d6000fd5b505050506040513d601f19601f8201168201806040525081019061100f919061182a565b905060008473ffffffffffffffffffffffffffffffffffffffff1663e5a6b10f6040518163ffffffff1660e01b8152600401602060405180830381865afa15801561105e573d6000803e3d6000fd5b505050506040513d601f19601f820116820180604052508101906110829190611796565b90506000805b85518110156111bb5760008682815181106110a6576110a56117c3565b5b602002602001015160000151905060008783815181106110c9576110c86117c3565b5b6020026020010151602001519050600064496cebb8006201518088670de0b6b3a7640000856110f89190611886565b6111029190611886565b61110c9190611886565b61111691906118f7565b90508573ffffffffffffffffffffffffffffffffffffffff1663a9059cbb84836040518363ffffffff1660e01b8152600401611153929190611928565b6020604051808303816000875af1158015611172573d6000803e3d6000fd5b505050506040513d601f19601f820116820180604052508101906111969190611989565b5080856111a39190611a44565b945050505080806111b3906119b6565b915050611088565b5060006040518060600160405280868152602001858152602001838152509050600260008873ffffffffffffffffffffffffffffffffffffffff1673ffffffffffffffffffffffffffffffffffffffff168152602001908152602001600020819080600181540180825580915050600190039060005260206000209060030201600090919091909150600082015181600001556020820151816001015560408201518160020155505050505050505050565b600073ffffffffffffffffffffffffffffffffffffffff82169050919050565b60006112988261126d565b9050919050565b6112a88161128d565b82525050565b60006020820190506112c3600083018461129f565b92915050565b6000604051905090565b600080fd5b600080fd5b6112e68161128d565b81146112f157600080fd5b50565b600081359050611303816112dd565b92915050565b60006020828403121561131f5761131e6112d3565b5b600061132d848285016112f4565b91505092915050565b600081519050919050565b600082825260208201905092915050565b6000819050602082019050919050565b6000819050919050565b61137581611362565b82525050565b606082016000820151611391600085018261136c565b5060208201516113a4602085018261136c565b5060408201516113b7604085018261136c565b50505050565b60006113c9838361137b565b60608301905092915050565b6000602082019050919050565b60006113ed82611336565b6113f78185611341565b935061140283611352565b8060005b8381101561143357815161141a88826113bd565b9750611425836113d5565b925050600181019050611406565b5085935050505092915050565b6000602082019050818103600083015261145a81846113e2565b905092915050565b61146b81611362565b811461147657600080fd5b50565b60008135905061148881611462565b92915050565b600080604083850312156114a5576114a46112d3565b5b60006114b385828601611479565b92505060206114c4858286016112f4565b9150509250929050565b6114d781611362565b82525050565b60006020820190506114f260008301846114ce565b92915050565b600082825260208201905092915050565b7f436f75706f6e5061796d656e743a204f4e4c595f42414e4b5f4d414e41474552600082015250565b600061153f6020836114f8565b915061154a82611509565b602082019050919050565b6000602082019050818103600083015261156e81611532565b9050919050565b600080fd5b6000601f19601f8301169050919050565b7f4e487b7100000000000000000000000000000000000000000000000000000000600052604160045260246000fd5b6115c38261157a565b810181811067ffffffffffffffff821117156115e2576115e161158b565b5b80604052505050565b60006115f56112c9565b905061160182826115ba565b919050565b600067ffffffffffffffff8211156116215761162061158b565b5b602082029050602081019050919050565b600080fd5b600080fd5b60008151905061164b816112dd565b92915050565b60008151905061166081611462565b92915050565b60006040828403121561167c5761167b611637565b5b61168660406115eb565b905060006116968482850161163c565b60008301525060206116aa84828501611651565b60208301525092915050565b60006116c96116c484611606565b6115eb565b905080838252602082019050604084028301858111156116ec576116eb611632565b5b835b8181101561171557806117018882611666565b8452602084019350506040810190506116ee565b5050509392505050565b600082601f83011261173457611733611575565b5b81516117448482602086016116b6565b91505092915050565b600060208284031215611763576117626112d3565b5b600082015167ffffffffffffffff811115611781576117806112d8565b5b61178d8482850161171f565b91505092915050565b6000602082840312156117ac576117ab6112d3565b5b60006117ba8482850161163c565b91505092915050565b7f4e487b7100000000000000000000000000000000000000000000000000000000600052603260045260246000fd5b6117fb8161128d565b82525050565b600060408201905061181660008301856117f2565b61182360208301846117f2565b9392505050565b6000602082840312156118405761183f6112d3565b5b600061184e84828501611651565b91505092915050565b7f4e487b7100000000000000000000000000000000000000000000000000000000600052601160045260246000fd5b600061189182611362565b915061189c83611362565b92508282026118aa81611362565b915082820484148315176118c1576118c0611857565b5b5092915050565b7f4e487b7100000000000000000000000000000000000000000000000000000000600052601260045260246000fd5b600061190282611362565b915061190d83611362565b92508261191d5761191c6118c8565b5b828204905092915050565b600060408201905061193d600083018561129f565b61194a60208301846114ce565b9392505050565b60008115159050919050565b61196681611951565b811461197157600080fd5b50565b6000815190506119838161195d565b92915050565b60006020828403121561199f5761199e6112d3565b5b60006119ad84828501611974565b91505092915050565b60006119c182611362565b91507fffffffffffffffffffffffffffffffffffffffffffffffffffffffffffffffff82036119f3576119f2611857565b5b600182019050919050565b611a0781611362565b82525050565b6000606082019050611a2260008301866117f2565b611a2f60208301856119fe565b611a3c60408301846117f2565b949350505050565b6000611a4f82611362565b9150611a5a83611362565b9250828201905080821115611a7257611a71611857565b5b9291505056fea26469706673582212202648d4142ac798ba85ef1d62b95c6e2b443f34763d29be3543c94ddb7429d5c264736f6c63430008130033",
  "linkReferences": {
    "contracts/coupon/CouponMath.sol": {
      "CouponMath": [
        {
          "length": 20,
          "start": 1059
        },
        {
          "length": 20,
          "start": 1718
        },
        {
          "length": 20,
          "start": 2587
        },
        {
          "length": 20,
          "start": 3283
        }
      ]
    }
  },
  "deployedLinkReferences": {
    "contracts/coupon/CouponMath.sol": {
      "CouponMath": [
        {
          "length": 20,
          "start": 963
        },
        {
          "length": 20,
          "start": 1622
        },
        {
          "length": 20,
          "start": 2491
        },
        {
          "length": 20,
          "start": 3187
        }
      ]
    }
  }
}