{
  "_format": "hh-sol-artifact-1",
  "contractName": "CouponPayment",
  "sourceName": "contracts/coupon/CouponPayment.sol",
  "abi": [
    {
      "inputs": [],
      "stateMutability": "nonpayable",
      "type": "constructor"
    },
    {
      "inputs": [
        {
          "internalType": "address",
          "name": "_bondContract",
          "type": "address"
        }
      ],
      "name": "contractBalance",
      "outputs": [
        {
          "internalType": "uint256",
          "name": "",
          "type": "uint256"
        }
      ],
      "stateMutability": "view",
      "type": "function"
    },
    {
      "inputs": [
        {
          "internalType": "address",
          "name": "_bondContract",
          "type": "address"
        }
      ],
      "name": "payAnnualInterest",
      "outputs": [],
      "stateMutability": "nonpayable",
      "type": "function"
    },
    {
      "inputs": [
        {
          "internalType": "uint256",
          "name": "_duration",
          "type": "uint256"
        },
        {
          "internalType": "address",
          "name": "_bondContract",
          "type": "address"
        }
      ],
      "name": "payInterest",
      "outputs": [],
      "stateMutability": "nonpayable",
      "type": "function"
    },
    {
      "inputs": [],
      "name": "toposManager",
      "outputs": [
        {
          "internalType": "address",
          "name": "",
          "type": "address"
        }
      ],
      "stateMutability": "view",
      "type": "function"
    },
    {
      "inputs": [
        {
          "internalType": "address",
          "name": "_bondContract",
          "type": "address"
        }
      ],
      "name": "totalAnnualInterestToPay",
      "outputs": [
        {
          "internalType": "uint256",
          "name": "",
          "type": "uint256"
        }
      ],
      "stateMutability": "view",
      "type": "function"
    },
    {
      "inputs": [
        {
          "internalType": "uint256",
          "name": "_duration",
          "type": "uint256"
        },
        {
          "internalType": "address",
          "name": "_bondContract",
          "type": "address"
        }
      ],
      "name": "totalInterestToPay",
      "outputs": [
        {
          "internalType": "uint256",
          "name": "",
          "type": "uint256"
        }
      ],
      "stateMutability": "view",
      "type": "function"
    }
  ],
  "bytecode": "0x608060405234801561001057600080fd5b50336000806101000a81548173ffffffffffffffffffffffffffffffffffffffff021916908373ffffffffffffffffffffffffffffffffffffffff16021790555061120f806100606000396000f3fe608060405234801561001057600080fd5b50600436106100625760003560e01c806313676c62146100675780634098332b146100835780636dd09528146100b35780637f31ed73146100cf578063b8f16e78146100ed578063c53b77021461011d575b600080fd5b610081600480360381019061007c9190610b62565b61014d565b005b61009d60048036038101906100989190610bc5565b610420565b6040516100aa9190610c14565b60405180910390f35b6100cd60048036038101906100c89190610bc5565b610598565b005b6100d761086e565b6040516100e49190610c3e565b60405180910390f35b61010760048036038101906101029190610b62565b610892565b6040516101149190610c14565b60405180910390f35b61013760048036038101906101329190610b62565b6109fa565b6040516101449190610c14565b60405180910390f35b60008054906101000a900473ffffffffffffffffffffffffffffffffffffffff1673ffffffffffffffffffffffffffffffffffffffff163373ffffffffffffffffffffffffffffffffffffffff16146101db576040517f08c379a00000000000000000000000000000000000000000000000000000000081526004016101d290610cb6565b60405180910390fd5b60008173ffffffffffffffffffffffffffffffffffffffff16638db6f28a6040518163ffffffff1660e01b8152600401600060405180830381865afa158015610228573d6000803e3d6000fd5b505050506040513d6000823e3d601f19601f820116820180604052508101906102519190610eae565b905060008273ffffffffffffffffffffffffffffffffffffffff1663e5a6b10f6040518163ffffffff1660e01b8152600401602060405180830381865afa1580156102a0573d6000803e3d6000fd5b505050506040513d601f19601f820116820180604052508101906102c49190610ef7565b905060005b825181101561041a5760008382815181106102e7576102e6610f24565b5b60200260200101516000015190506000670de0b6b3a764000073__$8ea466f8ddc120f03f94e9376a86d0f114$__630b75d95f84896040518363ffffffff1660e01b8152600401610339929190610f62565b602060405180830381865af4158015610356573d6000803e3d6000fd5b505050506040513d601f19601f8201168201806040525081019061037a9190610f8b565b6103849190610fe7565b90508373ffffffffffffffffffffffffffffffffffffffff1663a9059cbb83836040518363ffffffff1660e01b81526004016103c1929190611029565b6020604051808303816000875af11580156103e0573d6000803e3d6000fd5b505050506040513d601f19601f82011682018060405250810190610404919061108a565b5050508080610412906110b7565b9150506102c9565b50505050565b6000808273ffffffffffffffffffffffffffffffffffffffff16638db6f28a6040518163ffffffff1660e01b8152600401600060405180830381865afa15801561046e573d6000803e3d6000fd5b505050506040513d6000823e3d601f19601f820116820180604052508101906104979190610eae565b90506000805b825181101561057f5760008382815181106104bb576104ba610f24565b5b60200260200101516000015190506000670de0b6b3a764000073__$8ea466f8ddc120f03f94e9376a86d0f114$__63df91e76c848b8b6040518463ffffffff1660e01b815260040161050f9392919061110e565b602060405180830381865af415801561052c573d6000803e3d6000fd5b505050506040513d601f19601f820116820180604052508101906105509190610f8b565b61055a9190610fe7565b905080846105689190611145565b935050508080610577906110b7565b91505061049d565b506127108161058e91906111a8565b9250505092915050565b60008054906101000a900473ffffffffffffffffffffffffffffffffffffffff1673ffffffffffffffffffffffffffffffffffffffff163373ffffffffffffffffffffffffffffffffffffffff1614610626576040517f08c379a000000000000000000000000000000000000000000000000000000000815260040161061d90610cb6565b60405180910390fd5b60008173ffffffffffffffffffffffffffffffffffffffff16638db6f28a6040518163ffffffff1660e01b8152600401600060405180830381865afa158015610673573d6000803e3d6000fd5b505050506040513d6000823e3d601f19601f8201168201806040525081019061069c9190610eae565b905060008273ffffffffffffffffffffffffffffffffffffffff1663e5a6b10f6040518163ffffffff1660e01b8152600401602060405180830381865afa1580156106eb573d6000803e3d6000fd5b505050506040513d601f19601f8201168201806040525081019061070f9190610ef7565b905060005b825181101561086757600083828151811061073257610731610f24565b5b60200260200101516000015190506000670de0b6b3a764000073__$8ea466f8ddc120f03f94e9376a86d0f114$__63df91e76c848a8a6040518463ffffffff1660e01b81526004016107869392919061110e565b602060405180830381865af41580156107a3573d6000803e3d6000fd5b505050506040513d601f19601f820116820180604052508101906107c79190610f8b565b6107d19190610fe7565b90508373ffffffffffffffffffffffffffffffffffffffff1663a9059cbb83836040518363ffffffff1660e01b815260040161080e929190611029565b6020604051808303816000875af115801561082d573d6000803e3d6000fd5b505050506040513d601f19601f82011682018060405250810190610851919061108a565b505050808061085f906110b7565b915050610714565b5050505050565b60008054906101000a900473ffffffffffffffffffffffffffffffffffffffff1681565b6000808273ffffffffffffffffffffffffffffffffffffffff16638db6f28a6040518163ffffffff1660e01b8152600401600060405180830381865afa1580156108e0573d6000803e3d6000fd5b505050506040513d6000823e3d601f19601f820116820180604052508101906109099190610eae565b90506000805b82518110156109ef57600083828151811061092d5761092c610f24565b5b60200260200101516000015190506000670de0b6b3a764000073__$8ea466f8ddc120f03f94e9376a86d0f114$__630b75d95f848a6040518363ffffffff1660e01b815260040161097f929190610f62565b602060405180830381865af415801561099c573d6000803e3d6000fd5b505050506040513d601f19601f820116820180604052508101906109c09190610f8b565b6109ca9190610fe7565b905080846109d89190611145565b9350505080806109e7906110b7565b91505061090f565b508092505050919050565b6000808273ffffffffffffffffffffffffffffffffffffffff1663e5a6b10f6040518163ffffffff1660e01b8152600401602060405180830381865afa158015610a48573d6000803e3d6000fd5b505050506040513d601f19601f82011682018060405250810190610a6c9190610ef7565b90508073ffffffffffffffffffffffffffffffffffffffff166370a08231306040518263ffffffff1660e01b8152600401610aa79190610c3e565b602060405180830381865afa158015610ac4573d6000803e3d6000fd5b505050506040513d601f19601f82011682018060405250810190610ae89190610f8b565b915050919050565b6000604051905090565b600080fd5b600080fd5b600073ffffffffffffffffffffffffffffffffffffffff82169050919050565b6000610b2f82610b04565b9050919050565b610b3f81610b24565b8114610b4a57600080fd5b50565b600081359050610b5c81610b36565b92915050565b600060208284031215610b7857610b77610afa565b5b6000610b8684828501610b4d565b91505092915050565b6000819050919050565b610ba281610b8f565b8114610bad57600080fd5b50565b600081359050610bbf81610b99565b92915050565b60008060408385031215610bdc57610bdb610afa565b5b6000610bea85828601610bb0565b9250506020610bfb85828601610b4d565b9150509250929050565b610c0e81610b8f565b82525050565b6000602082019050610c296000830184610c05565b92915050565b610c3881610b24565b82525050565b6000602082019050610c536000830184610c2f565b92915050565b600082825260208201905092915050565b7f436f75706f6e5061796d656e743a204f4e4c595f42414e4b5f4d414e41474552600082015250565b6000610ca0602083610c59565b9150610cab82610c6a565b602082019050919050565b60006020820190508181036000830152610ccf81610c93565b9050919050565b600080fd5b6000601f19601f8301169050919050565b7f4e487b7100000000000000000000000000000000000000000000000000000000600052604160045260246000fd5b610d2482610cdb565b810181811067ffffffffffffffff82111715610d4357610d42610cec565b5b80604052505050565b6000610d56610af0565b9050610d628282610d1b565b919050565b600067ffffffffffffffff821115610d8257610d81610cec565b5b602082029050602081019050919050565b600080fd5b600080fd5b600081519050610dac81610b36565b92915050565b600081519050610dc181610b99565b92915050565b600060408284031215610ddd57610ddc610d98565b5b610de76040610d4c565b90506000610df784828501610d9d565b6000830152506020610e0b84828501610db2565b60208301525092915050565b6000610e2a610e2584610d67565b610d4c565b90508083825260208201905060408402830185811115610e4d57610e4c610d93565b5b835b81811015610e765780610e628882610dc7565b845260208401935050604081019050610e4f565b5050509392505050565b600082601f830112610e9557610e94610cd6565b5b8151610ea5848260208601610e17565b91505092915050565b600060208284031215610ec457610ec3610afa565b5b600082015167ffffffffffffffff811115610ee257610ee1610aff565b5b610eee84828501610e80565b91505092915050565b600060208284031215610f0d57610f0c610afa565b5b6000610f1b84828501610d9d565b91505092915050565b7f4e487b7100000000000000000000000000000000000000000000000000000000600052603260045260246000fd5b610f5c81610b24565b82525050565b6000604082019050610f776000830185610f53565b610f846020830184610f53565b9392505050565b600060208284031215610fa157610fa0610afa565b5b6000610faf84828501610db2565b91505092915050565b7f4e487b7100000000000000000000000000000000000000000000000000000000600052601160045260246000fd5b6000610ff282610b8f565b9150610ffd83610b8f565b925082820261100b81610b8f565b9150828204841483151761102257611021610fb8565b5b5092915050565b600060408201905061103e6000830185610c2f565b61104b6020830184610c05565b9392505050565b60008115159050919050565b61106781611052565b811461107257600080fd5b50565b6000815190506110848161105e565b92915050565b6000602082840312156110a05761109f610afa565b5b60006110ae84828501611075565b91505092915050565b60006110c282610b8f565b91507fffffffffffffffffffffffffffffffffffffffffffffffffffffffffffffffff82036110f4576110f3610fb8565b5b600182019050919050565b61110881610b8f565b82525050565b60006060820190506111236000830186610f53565b61113060208301856110ff565b61113d6040830184610f53565b949350505050565b600061115082610b8f565b915061115b83610b8f565b925082820190508082111561117357611172610fb8565b5b92915050565b7f4e487b7100000000000000000000000000000000000000000000000000000000600052601260045260246000fd5b60006111b382610b8f565b91506111be83610b8f565b9250826111ce576111cd611179565b5b82820490509291505056fea264697066735822122050a29d3b8be9b63184303bc5e069f87ec0d6a821defe2284d4152a406dd1596964736f6c63430008130033",
  "linkReferences": {
    "contracts/coupon/CouponMath.sol": {
      "CouponMath": [
        {
          "length": 20,
          "start": 866
        },
        {
          "length": 20,
          "start": 1334
        },
        {
          "length": 20,
          "start": 1965
        },
        {
          "length": 20,
          "start": 2472
        }
      ]
    }
  },
  "deployedLinkReferences": {
    "contracts/coupon/CouponMath.sol": {
      "CouponMath": [
        {
          "length": 20,
          "start": 770
        },
        {
          "length": 20,
          "start": 1238
        },
        {
          "length": 20,
          "start": 1869
        },
        {
          "length": 20,
          "start": 2376
        }
      ]
    }
  }
}