{
  "_format": "hh-sol-artifact-1",
  "contractName": "BondStorage",
  "sourceName": "contracts/BondStorage.sol",
  "abi": [
    {
      "inputs": [],
      "name": "bondManager",
      "outputs": [
        {
          "internalType": "address",
          "name": "",
          "type": "address"
        }
      ],
      "stateMutability": "view",
      "type": "function"
    },
    {
      "inputs": [],
      "name": "bondStatus",
      "outputs": [
        {
          "internalType": "enum BondData.BondStatus",
          "name": "",
          "type": "uint8"
        }
      ],
      "stateMutability": "view",
      "type": "function"
    },
    {
      "inputs": [
        {
          "internalType": "string",
          "name": "",
          "type": "string"
        }
      ],
      "name": "bonds",
      "outputs": [
        {
          "internalType": "string",
          "name": "isin",
          "type": "string"
        },
        {
          "internalType": "string",
          "name": "name",
          "type": "string"
        },
        {
          "internalType": "string",
          "name": "symbol",
          "type": "string"
        },
        {
          "internalType": "address",
          "name": "currency",
          "type": "address"
        },
        {
          "internalType": "uint256",
          "name": "denomination",
          "type": "uint256"
        },
        {
          "internalType": "uint256",
          "name": "issueVolume",
          "type": "uint256"
        },
        {
          "internalType": "uint256",
          "name": "couponRate",
          "type": "uint256"
        },
        {
          "internalType": "uint8",
          "name": "couponType",
          "type": "uint8"
        },
        {
          "internalType": "uint256",
          "name": "couponFrequency",
          "type": "uint256"
        },
        {
          "internalType": "uint256",
          "name": "issueDate",
          "type": "uint256"
        },
        {
          "internalType": "uint256",
          "name": "maturityDate",
          "type": "uint256"
        }
      ],
      "stateMutability": "view",
      "type": "function"
    },
    {
      "inputs": [],
      "name": "dealID",
      "outputs": [
        {
          "internalType": "string",
          "name": "",
          "type": "string"
        }
      ],
      "stateMutability": "view",
      "type": "function"
    },
    {
      "inputs": [
        {
          "internalType": "address",
          "name": "",
          "type": "address"
        }
      ],
      "name": "isInvestor",
      "outputs": [
        {
          "internalType": "bool",
          "name": "",
          "type": "bool"
        }
      ],
      "stateMutability": "view",
      "type": "function"
    },
    {
      "inputs": [
        {
          "internalType": "string",
          "name": "",
          "type": "string"
        }
      ],
      "name": "issueData",
      "outputs": [
        {
          "internalType": "address",
          "name": "issuerWalletAddress",
          "type": "address"
        },
        {
          "internalType": "string",
          "name": "countryOfIssuance",
          "type": "string"
        }
      ],
      "stateMutability": "view",
      "type": "function"
    },
    {
      "inputs": [],
      "name": "toposBankContract",
      "outputs": [
        {
          "internalType": "address",
          "name": "",
          "type": "address"
        }
      ],
      "stateMutability": "view",
      "type": "function"
    }
  ],
  "bytecode": "0x608060405234801561001057600080fd5b50610b35806100206000396000f3fe608060405234801561001057600080fd5b506004361061007d5760003560e01c806373975df11161005b57806373975df11461010b5780639c34712a14610129578063c16aa77914610147578063cee2a9cf146101655761007d565b8063363cc4271461008257806341d6a582146100a057806346e8de21146100d1575b600080fd5b61008a610195565b60405161009791906105fa565b60405180910390f35b6100ba60048036038101906100b5919061076f565b6101bb565b6040516100c8929190610837565b60405180910390f35b6100eb60048036038101906100e6919061076f565b61029d565b6040516101029b9a9998979695949392919061089c565b60405180910390f35b6101136104d2565b604051610120919061095c565b60405180910390f35b610131610560565b60405161013e91906105fa565b60405180910390f35b61014f610586565b60405161015c91906109f5565b60405180910390f35b61017f600480360381019061017a9190610a3c565b610599565b60405161018c9190610a84565b60405180910390f35b600660009054906101000a900473ffffffffffffffffffffffffffffffffffffffff1681565b6000818051602081018201805184825260208301602085012081835280955050505050506000915090508060000160009054906101000a900473ffffffffffffffffffffffffffffffffffffffff169080600101805461021a90610ace565b80601f016020809104026020016040519081016040528092919081815260200182805461024690610ace565b80156102935780601f1061026857610100808354040283529160200191610293565b820191906000526020600020905b81548152906001019060200180831161027657829003601f168201915b5050505050905082565b6001818051602081018201805184825260208301602085012081835280955050505050506000915090508060000180546102d690610ace565b80601f016020809104026020016040519081016040528092919081815260200182805461030290610ace565b801561034f5780601f106103245761010080835404028352916020019161034f565b820191906000526020600020905b81548152906001019060200180831161033257829003601f168201915b50505050509080600101805461036490610ace565b80601f016020809104026020016040519081016040528092919081815260200182805461039090610ace565b80156103dd5780601f106103b2576101008083540402835291602001916103dd565b820191906000526020600020905b8154815290600101906020018083116103c057829003601f168201915b5050505050908060020180546103f290610ace565b80601f016020809104026020016040519081016040528092919081815260200182805461041e90610ace565b801561046b5780601f106104405761010080835404028352916020019161046b565b820191906000526020600020905b81548152906001019060200180831161044e57829003601f168201915b5050505050908060030160009054906101000a900473ffffffffffffffffffffffffffffffffffffffff16908060040154908060050154908060060154908060070160009054906101000a900460ff169080600801549080600901549080600a015490508b565b600580546104df90610ace565b80601f016020809104026020016040519081016040528092919081815260200182805461050b90610ace565b80156105585780601f1061052d57610100808354040283529160200191610558565b820191906000526020600020905b81548152906001019060200180831161053b57829003601f168201915b505050505081565b600760009054906101000a900473ffffffffffffffffffffffffffffffffffffffff1681565b600760149054906101000a900460ff1681565b60036020528060005260406000206000915054906101000a900460ff1681565b600073ffffffffffffffffffffffffffffffffffffffff82169050919050565b60006105e4826105b9565b9050919050565b6105f4816105d9565b82525050565b600060208201905061060f60008301846105eb565b92915050565b6000604051905090565b600080fd5b600080fd5b600080fd5b600080fd5b6000601f19601f8301169050919050565b7f4e487b7100000000000000000000000000000000000000000000000000000000600052604160045260246000fd5b61067c82610633565b810181811067ffffffffffffffff8211171561069b5761069a610644565b5b80604052505050565b60006106ae610615565b90506106ba8282610673565b919050565b600067ffffffffffffffff8211156106da576106d9610644565b5b6106e382610633565b9050602081019050919050565b82818337600083830152505050565b600061071261070d846106bf565b6106a4565b90508281526020810184848401111561072e5761072d61062e565b5b6107398482856106f0565b509392505050565b600082601f83011261075657610755610629565b5b81356107668482602086016106ff565b91505092915050565b6000602082840312156107855761078461061f565b5b600082013567ffffffffffffffff8111156107a3576107a2610624565b5b6107af84828501610741565b91505092915050565b600081519050919050565b600082825260208201905092915050565b60005b838110156107f25780820151818401526020810190506107d7565b60008484015250505050565b6000610809826107b8565b61081381856107c3565b93506108238185602086016107d4565b61082c81610633565b840191505092915050565b600060408201905061084c60008301856105eb565b818103602083015261085e81846107fe565b90509392505050565b6000819050919050565b61087a81610867565b82525050565b600060ff82169050919050565b61089681610880565b82525050565b60006101608201905081810360008301526108b7818e6107fe565b905081810360208301526108cb818d6107fe565b905081810360408301526108df818c6107fe565b90506108ee606083018b6105eb565b6108fb608083018a610871565b61090860a0830189610871565b61091560c0830188610871565b61092260e083018761088d565b610930610100830186610871565b61093e610120830185610871565b61094c610140830184610871565b9c9b505050505050505050505050565b6000602082019050818103600083015261097681846107fe565b905092915050565b7f4e487b7100000000000000000000000000000000000000000000000000000000600052602160045260246000fd5b600281106109be576109bd61097e565b5b50565b60008190506109cf826109ad565b919050565b60006109df826109c1565b9050919050565b6109ef816109d4565b82525050565b6000602082019050610a0a60008301846109e6565b92915050565b610a19816105d9565b8114610a2457600080fd5b50565b600081359050610a3681610a10565b92915050565b600060208284031215610a5257610a5161061f565b5b6000610a6084828501610a27565b91505092915050565b60008115159050919050565b610a7e81610a69565b82525050565b6000602082019050610a996000830184610a75565b92915050565b7f4e487b7100000000000000000000000000000000000000000000000000000000600052602260045260246000fd5b60006002820490506001821680610ae657607f821691505b602082108103610af957610af8610a9f565b5b5091905056fea26469706673582212206f18f0dbb2330eb142d4451a44e47092676fc026006d0a1a53341848671bb99564736f6c63430008130033",
  "linkReferences": {},
  "deployedLinkReferences": {}
}