{
  "_format": "hh-sol-artifact-1",
  "contractName": "Exchange",
  "sourceName": "contracts/Topos/Exchange/Exchange.sol",
  "abi": [
    {
      "inputs": [
        {
          "internalType": "address",
          "name": "_bankContract",
          "type": "address"
        },
        {
          "internalType": "address",
          "name": "_bondCallContract",
          "type": "address"
        }
      ],
      "stateMutability": "nonpayable",
      "type": "constructor"
    },
    {
      "anonymous": false,
      "inputs": [
        {
          "indexed": false,
          "internalType": "string",
          "name": "dealID",
          "type": "string"
        },
        {
          "indexed": false,
          "internalType": "address",
          "name": "seller",
          "type": "address"
        },
        {
          "indexed": false,
          "internalType": "uint256",
          "name": "amountToAdd",
          "type": "uint256"
        }
      ],
      "name": "AmountIncreased",
      "type": "event"
    },
    {
      "anonymous": false,
      "inputs": [
        {
          "indexed": false,
          "internalType": "string",
          "name": "dealID",
          "type": "string"
        },
        {
          "indexed": false,
          "internalType": "address",
          "name": "seller",
          "type": "address"
        },
        {
          "indexed": false,
          "internalType": "address",
          "name": "buyer",
          "type": "address"
        },
        {
          "indexed": false,
          "internalType": "uint256",
          "name": "amount",
          "type": "uint256"
        }
      ],
      "name": "BondBought",
      "type": "event"
    },
    {
      "anonymous": false,
      "inputs": [
        {
          "indexed": false,
          "internalType": "string",
          "name": "dealID",
          "type": "string"
        },
        {
          "indexed": false,
          "internalType": "address",
          "name": "seller",
          "type": "address"
        }
      ],
      "name": "BondsCanceled",
      "type": "event"
    },
    {
      "anonymous": false,
      "inputs": [
        {
          "indexed": false,
          "internalType": "string",
          "name": "dealID",
          "type": "string"
        },
        {
          "indexed": false,
          "internalType": "address",
          "name": "seller",
          "type": "address"
        },
        {
          "indexed": false,
          "internalType": "uint256",
          "name": "amount",
          "type": "uint256"
        },
        {
          "indexed": false,
          "internalType": "uint256",
          "name": "price",
          "type": "uint256"
        }
      ],
      "name": "BondsListed",
      "type": "event"
    },
    {
      "anonymous": false,
      "inputs": [
        {
          "indexed": false,
          "internalType": "string",
          "name": "dealID",
          "type": "string"
        },
        {
          "indexed": false,
          "internalType": "address",
          "name": "seller",
          "type": "address"
        },
        {
          "indexed": false,
          "internalType": "uint256",
          "name": "newPrice",
          "type": "uint256"
        }
      ],
      "name": "PriceUpdated",
      "type": "event"
    },
    {
      "inputs": [],
      "name": "bankContract",
      "outputs": [
        {
          "internalType": "address",
          "name": "",
          "type": "address"
        }
      ],
      "stateMutability": "view",
      "type": "function"
    },
    {
      "inputs": [],
      "name": "bondCallContract",
      "outputs": [
        {
          "internalType": "address",
          "name": "",
          "type": "address"
        }
      ],
      "stateMutability": "view",
      "type": "function"
    },
    {
      "inputs": [
        {
          "internalType": "string",
          "name": "_dealID",
          "type": "string"
        },
        {
          "internalType": "address",
          "name": "_seller",
          "type": "address"
        },
        {
          "internalType": "uint256",
          "name": "_amount",
          "type": "uint256"
        }
      ],
      "name": "buyBonds",
      "outputs": [],
      "stateMutability": "nonpayable",
      "type": "function"
    },
    {
      "inputs": [],
      "name": "exchangeBondsStorage",
      "outputs": [
        {
          "internalType": "address",
          "name": "",
          "type": "address"
        }
      ],
      "stateMutability": "view",
      "type": "function"
    },
    {
      "inputs": [
        {
          "internalType": "string",
          "name": "_dealID",
          "type": "string"
        },
        {
          "internalType": "uint256",
          "name": "_amountToAdd",
          "type": "uint256"
        }
      ],
      "name": "increaseListingAmount",
      "outputs": [],
      "stateMutability": "nonpayable",
      "type": "function"
    },
    {
      "inputs": [
        {
          "internalType": "string",
          "name": "_dealID",
          "type": "string"
        },
        {
          "internalType": "uint256",
          "name": "_amount",
          "type": "uint256"
        },
        {
          "internalType": "uint256",
          "name": "_price",
          "type": "uint256"
        }
      ],
      "name": "listBonds",
      "outputs": [],
      "stateMutability": "nonpayable",
      "type": "function"
    },
    {
      "inputs": [],
      "name": "owner",
      "outputs": [
        {
          "internalType": "address",
          "name": "",
          "type": "address"
        }
      ],
      "stateMutability": "view",
      "type": "function"
    },
    {
      "inputs": [
        {
          "internalType": "address",
          "name": "_exchangeBondsStorage",
          "type": "address"
        }
      ],
      "name": "setExchangeBondsStorage",
      "outputs": [],
      "stateMutability": "nonpayable",
      "type": "function"
    },
    {
      "inputs": [
        {
          "internalType": "string",
          "name": "_dealID",
          "type": "string"
        }
      ],
      "name": "unlistBonds",
      "outputs": [],
      "stateMutability": "nonpayable",
      "type": "function"
    },
    {
      "inputs": [
        {
          "internalType": "string",
          "name": "_dealID",
          "type": "string"
        },
        {
          "internalType": "uint256",
          "name": "_newPrice",
          "type": "uint256"
        }
      ],
      "name": "updateDealPrice",
      "outputs": [],
      "stateMutability": "nonpayable",
      "type": "function"
    }
  ],
  "bytecode": "0x60803461009257601f6111ae38819003918201601f19168301916001600160401b0383118484101761009757808492604094855283398101031261009257610052602061004b836100ad565b92016100ad565b9060018060a01b0319913383600054161760005560018060a01b03809216836001541617600155169060025416176002556040516110ec90816100c28239f35b600080fd5b634e487b7160e01b600052604160045260246000fd5b51906001600160a01b03821682036100925756fe608060408181526004908136101561001657600080fd5b600092833560e01c90816307c2e44914610da3575080634a51c8df14610cfb5780635e43522e14610cd35780636f3b141014610be4578063865287901461093c5780638da5cb5b14610916578063916cdbfc146108ee578063aa522a2c1461069f578063ae7076ec1461017f5763cdd619f61461009257600080fd5b3461016d57602036600319011261016d5782823567ffffffffffffffff811161017b576100c29036908501610e30565b926001600160a01b0360035416803b1561016d57610113839291839286519485809481937f2cc9143f0000000000000000000000000000000000000000000000000000000083528b3391840161102f565b03925af1801561017157610159575b5081517fa7236108b1b13656f4c805e22e6ec64d5570479fface325dcf755e3e984e80e8908061015333878361102f565b0390a180f35b61016290610dc8565b61016d578238610122565b8280fd5b83513d84823e3d90fd5b5080fd5b50903461016d57606036600319011261016d5767ffffffffffffffff813581811161069b576101b19036908401610e30565b9160248035926001600160a01b0390818516918286036104cc576102199360443595898360035416948c8b8351809a81927fd59dd0220000000000000000000000000000000000000000000000000000000083528b8884015286898401526044830190610ee0565b0381895afa908115610691578d91610596575b5061025c975084600154168d8c845180936302f6679160e41b8252818060209e8f95868c8401528c830190610ee0565b03915afa90811561058b5787948b9387929361054f575b5051809881937fe5a6b10f000000000000000000000000000000000000000000000000000000008352165afa948515610545578d95610508575b5060600151938489029489860414891517156104f457670de0b6b3a7640000948581029581870414901517156104e257168b8b517f70a08231000000000000000000000000000000000000000000000000000000008152338482015288818681865afa9081156104d8578692916104a2575b5010610461578b90853b1561017b57818961036e978d8f8e8591519b8c95869485937fd32e0f2700000000000000000000000000000000000000000000000000000000855233918d8601611081565b03925af1948515610457578895610439575b6064949596508c5197889687957f23b872dd000000000000000000000000000000000000000000000000000000008752339087015285015260448401525af1801561042f57917f820bf2ae1f4bcd166e4adb6e32d112ef2164e186e503a62eba485748d1c72ea196916101539493610401575b505051938493339185611081565b8161042092903d10610428575b6104188183610df2565b810190610fe5565b5038806103f3565b503d61040e565b86513d89823e3d90fd5b939450946104478291610dc8565b6104545784879493610380565b80fd5b8c513d84823e3d90fd5b506007606492878c519362461bcd60e51b85528401528201527f62616c616e6365000000000000000000000000000000000000000000000000006044820152fd5b809250898092503d83116104d1575b6104bb8183610df2565b810103126104cc578490513861031f565b600080fd5b503d6104b1565b8d513d84823e3d90fd5b838d601185634e487b7160e01b835252fd5b83601184634e487b7160e01b600052526000fd5b9094508781813d831161053e575b6105208183610df2565b8101031261053a57610533606091610ea9565b94906102ad565b8c80fd5b503d610516565b8c513d8f823e3d90fd5b955050505082813d8311610584575b6105688183610df2565b8101031261053a57878c8461057d8895610ea9565b9138610273565b503d61055e565b8451903d90823e3d90fd5b9150503d808d893e6105a88189610df2565b870190602097888184031261068d5780519082821161067557019160c08382031261068d578c519160c0830183811082821117610679578e5283519081116106755783019281601f85011215610675578d9984519261061261060985610e14565b9c519c8d610df2565b838c52818487010111610671578a8f9560a094610637918461025c9f81019101610ebd565b8452610644818301610ea9565b9084015283810151848401526060810151606084015260808101516080840152015160a08201523861022c565b8f80fd5b8e80fd5b86604187634e487b7160e01b600052526000fd5b8d80fd5b82513d8f823e3d90fd5b8480fd5b50903461016d576106af36610e77565b916001600160a01b0390816001541691855180936302f6679160e41b82526020948591828683015281806106e6602482018b610ee0565b03915afa9081156108e45788916108af575b50610704861515610f50565b81600354169088823b156104545788517f995ae7d0000000000000000000000000000000000000000000000000000000008152928190849081838161074d8e338f848f01611056565b03925af19283156108a3578493610886575b50508751636eb1769f60e11b8152338582019081523060208201529092909116908590839081906040010381845afa92831561087c57859388938b91610847575b506107ad90841115610f05565b60035416896107ba610f9b565b956107da8b519788968795869463156cf54b60e31b865233908601610ffd565b03925af1801561083d57917f1b98d975dd919d26350a21845e2ac202f276edc4dabd039c8bf8fdfdc125922195916101539361081f575b505051928392339084611056565b8161083592903d10610428576104188183610df2565b503880610811565b85513d88823e3d90fd5b9350509282813d8311610875575b61085f8183610df2565b810103126104cc5784926107ad889351906107a0565b503d610855565b88513d8b823e3d90fd5b61089291929350610dc8565b61089f578190883861075f565b8780fd5b508851903d90823e3d90fd5b90508381813d83116108dd575b6108c68183610df2565b8101031261089f576108d790610ea9565b386106f8565b503d6108bc565b87513d8a823e3d90fd5b83823461017b578160031936011261017b576020906001600160a01b03600354169051908152f35b83823461017b578160031936011261017b576001600160a01b0360209254169051908152f35b50903461016d57606036600319011261016d57803567ffffffffffffffff8111610b605761096d9036908301610e30565b90602435604435906001600160a01b039286846001541694875180966302f6679160e41b82526020978891828783015281806109ad8d6024830190610ee0565b03915afa8015610bda5782918491610ba2575b508951636eb1769f60e11b81523386820190815230602082015292909116918890829081906040010381855afa908115610b98578491610b64575b50610a0890861115610f05565b610a13851515610f50565b8160035416803b15610b605789517f5b91e75200000000000000000000000000000000000000000000000000000000815233868201526080602482015293908490818381610a64608482018f610ee0565b8b60448301528c606483015203925af1918a8315610b555788948794610b33575b5050600354168a610a94610f9b565b95610ab48c519788968795869463156cf54b60e31b865233908601610ffd565b03925af1801561042f5795610b0295949392917fe6cec3038e34f0ea6f50abffcc0f879c25f6a9983d5e7f3c35673cac0c5708f097610b16575b508051958695608087526080870190610ee0565b93339086015284015260608301520390a180f35b610b2c90853d8711610428576104188183610df2565b5038610aee565b90929450610b42919350610dc8565b610b5157859184918a38610a85565b8880fd5b8a51903d90823e3d90fd5b8380fd5b809450888092503d8311610b91575b610b7d8183610df2565b810103126104cc57610a088a9351906109fb565b503d610b73565b8a513d86823e3d90fd5b809250888092503d8311610bd3575b610bbb8183610df2565b8101031261016d57610bcd8291610ea9565b386109c0565b503d610bb1565b89513d85823e3d90fd5b5091903461017b57610bf536610e77565b91610c01831515610f50565b6001600160a01b036003541690813b1561069b5783610c529286928389518096819582947fa33f7da00000000000000000000000000000000000000000000000000000000084528a33918501611056565b03925af18015610cc957610c94575b506101537f6a1d07ea5e6ff75e796159ad10cd2c8cff5620be1d029d17c1c910c607c4999b939451928392339084611056565b7f6a1d07ea5e6ff75e796159ad10cd2c8cff5620be1d029d17c1c910c607c4999b93610cc261015392610dc8565b9350610c61565b85513d86823e3d90fd5b83823461017b578160031936011261017b576020906001600160a01b03600254169051908152f35b50903461016d57602036600319011261016d578035916001600160a01b0380841680940361069b578454163303610d60575050801561017b577fffffffffffffffffffffffff0000000000000000000000000000000000000000600354161760035580f35b906020606492519162461bcd60e51b8352820152600a60248201527f4f6e6c79206f776e6572000000000000000000000000000000000000000000006044820152fd5b84903461017b578160031936011261017b576020906001600160a01b03600154168152f35b67ffffffffffffffff8111610ddc57604052565b634e487b7160e01b600052604160045260246000fd5b90601f8019910116810190811067ffffffffffffffff821117610ddc57604052565b67ffffffffffffffff8111610ddc57601f01601f191660200190565b81601f820112156104cc57803590610e4782610e14565b92610e556040519485610df2565b828452602083830101116104cc57816000926020809301838601378301015290565b60406003198201126104cc576004359067ffffffffffffffff82116104cc57610ea291600401610e30565b9060243590565b51906001600160a01b03821682036104cc57565b60005b838110610ed05750506000910152565b8181015183820152602001610ec0565b90602091610ef981518092818552858086019101610ebd565b601f01601f1916010190565b15610f0c57565b606460405162461bcd60e51b815260206004820152600960248201527f616c6c6f77616e636500000000000000000000000000000000000000000000006044820152fd5b15610f5757565b606460405162461bcd60e51b815260206004820152600e60248201527f696e76616c696420616d6f756e740000000000000000000000000000000000006044820152fd5b604051906040820182811067ffffffffffffffff821117610ddc57604052600382527f30783000000000000000000000000000000000000000000000000000000000006020830152565b908160209103126104cc575180151581036104cc5790565b909261102c94936080936001600160a01b03809216845216602083015260408201528160608201520190610ee0565b90565b906001600160a01b0361104f602092959495604085526040850190610ee0565b9416910152565b6001600160a01b0361107660409396959496606084526060840190610ee0565b951660208201520152565b909161109b60609396959496608084526080840190610ee0565b956001600160a01b038092166020840152166040820152015256fea2646970667358221220b9292de5208233b3a6d7b50e457fa27146f92955fbf4467a4d369a43d99c444c64736f6c63430008130033",
  "linkReferences": {},
  "deployedLinkReferences": {}
}