{
  "_format": "hh-sol-artifact-1",
  "contractName": "Exchange",
  "sourceName": "contracts/Topos/Exchange/Exchange.sol",
  "abi": [
    {
      "inputs": [
        {
          "internalType": "address",
          "name": "_bankContract",
          "type": "address"
        },
        {
          "internalType": "address",
          "name": "_bondCallContract",
          "type": "address"
        }
      ],
      "stateMutability": "nonpayable",
      "type": "constructor"
    },
    {
      "anonymous": false,
      "inputs": [
        {
          "indexed": false,
          "internalType": "string",
          "name": "dealID",
          "type": "string"
        },
        {
          "indexed": false,
          "internalType": "address",
          "name": "seller",
          "type": "address"
        },
        {
          "indexed": false,
          "internalType": "uint256",
          "name": "amountToAdd",
          "type": "uint256"
        }
      ],
      "name": "AmountIncreased",
      "type": "event"
    },
    {
      "anonymous": false,
      "inputs": [
        {
          "indexed": false,
          "internalType": "string",
          "name": "dealID",
          "type": "string"
        },
        {
          "indexed": false,
          "internalType": "address",
          "name": "seller",
          "type": "address"
        },
        {
          "indexed": false,
          "internalType": "address",
          "name": "buyer",
          "type": "address"
        },
        {
          "indexed": false,
          "internalType": "uint256",
          "name": "amount",
          "type": "uint256"
        }
      ],
      "name": "BondBought",
      "type": "event"
    },
    {
      "anonymous": false,
      "inputs": [
        {
          "indexed": false,
          "internalType": "string",
          "name": "dealID",
          "type": "string"
        },
        {
          "indexed": false,
          "internalType": "address",
          "name": "seller",
          "type": "address"
        }
      ],
      "name": "BondsCanceled",
      "type": "event"
    },
    {
      "anonymous": false,
      "inputs": [
        {
          "indexed": false,
          "internalType": "string",
          "name": "dealID",
          "type": "string"
        },
        {
          "indexed": false,
          "internalType": "address",
          "name": "seller",
          "type": "address"
        },
        {
          "indexed": false,
          "internalType": "uint256",
          "name": "amount",
          "type": "uint256"
        },
        {
          "indexed": false,
          "internalType": "uint256",
          "name": "price",
          "type": "uint256"
        }
      ],
      "name": "BondsListed",
      "type": "event"
    },
    {
      "anonymous": false,
      "inputs": [
        {
          "indexed": false,
          "internalType": "string",
          "name": "dealID",
          "type": "string"
        },
        {
          "indexed": false,
          "internalType": "address",
          "name": "seller",
          "type": "address"
        },
        {
          "indexed": false,
          "internalType": "uint256",
          "name": "newPrice",
          "type": "uint256"
        }
      ],
      "name": "PriceUpdated",
      "type": "event"
    },
    {
      "inputs": [],
      "name": "bankContract",
      "outputs": [
        {
          "internalType": "address",
          "name": "",
          "type": "address"
        }
      ],
      "stateMutability": "view",
      "type": "function"
    },
    {
      "inputs": [],
      "name": "bondCallContract",
      "outputs": [
        {
          "internalType": "address",
          "name": "",
          "type": "address"
        }
      ],
      "stateMutability": "view",
      "type": "function"
    },
    {
      "inputs": [
        {
          "internalType": "string",
          "name": "_dealID",
          "type": "string"
        },
        {
          "internalType": "address",
          "name": "_seller",
          "type": "address"
        },
        {
          "internalType": "uint256",
          "name": "_amount",
          "type": "uint256"
        }
      ],
      "name": "buyBonds",
      "outputs": [],
      "stateMutability": "nonpayable",
      "type": "function"
    },
    {
      "inputs": [],
      "name": "exchangeBondsStorage",
      "outputs": [
        {
          "internalType": "address",
          "name": "",
          "type": "address"
        }
      ],
      "stateMutability": "view",
      "type": "function"
    },
    {
      "inputs": [
        {
          "internalType": "string",
          "name": "_dealID",
          "type": "string"
        },
        {
          "internalType": "uint256",
          "name": "_amountToAdd",
          "type": "uint256"
        }
      ],
      "name": "increaseListingAmount",
      "outputs": [],
      "stateMutability": "nonpayable",
      "type": "function"
    },
    {
      "inputs": [
        {
          "internalType": "string",
          "name": "_dealID",
          "type": "string"
        },
        {
          "internalType": "uint256",
          "name": "_amount",
          "type": "uint256"
        },
        {
          "internalType": "uint256",
          "name": "_price",
          "type": "uint256"
        }
      ],
      "name": "listBonds",
      "outputs": [],
      "stateMutability": "nonpayable",
      "type": "function"
    },
    {
      "inputs": [],
      "name": "owner",
      "outputs": [
        {
          "internalType": "address",
          "name": "",
          "type": "address"
        }
      ],
      "stateMutability": "view",
      "type": "function"
    },
    {
      "inputs": [
        {
          "internalType": "address",
          "name": "_exchangeBondsStorage",
          "type": "address"
        }
      ],
      "name": "setExchangeBondsStorage",
      "outputs": [],
      "stateMutability": "nonpayable",
      "type": "function"
    },
    {
      "inputs": [
        {
          "internalType": "string",
          "name": "_dealID",
          "type": "string"
        }
      ],
      "name": "unlistBonds",
      "outputs": [],
      "stateMutability": "nonpayable",
      "type": "function"
    },
    {
      "inputs": [
        {
          "internalType": "string",
          "name": "_dealID",
          "type": "string"
        },
        {
          "internalType": "uint256",
          "name": "_newPrice",
          "type": "uint256"
        }
      ],
      "name": "updateDealPrice",
      "outputs": [],
      "stateMutability": "nonpayable",
      "type": "function"
    }
  ],
  "bytecode": "0x608060405234801561001057600080fd5b506040516113c13803806113c183398101604081905261002f91610087565b600080546001600160a01b03199081163317909155600180546001600160a01b03948516908316179055600280549290931691161790556100ba565b80516001600160a01b038116811461008257600080fd5b919050565b6000806040838503121561009a57600080fd5b6100a38361006b565b91506100b16020840161006b565b90509250929050565b6112f8806100c96000396000f3fe608060405234801561001057600080fd5b50600436106100be5760003560e01c80638da5cb5b11610076578063aa522a2c1161005b578063aa522a2c14610166578063ae7076ec14610179578063cdd619f61461018c57600080fd5b80638da5cb5b14610140578063916cdbfc1461015357600080fd5b80635e43522e116100a75780635e43522e146101075780636f3b14101461011a578063865287901461012d57600080fd5b806307c2e449146100c35780634a51c8df146100f2575b600080fd5b6001546100d6906001600160a01b031681565b6040516001600160a01b03909116815260200160405180910390f35b610105610100366004610d55565b61019f565b005b6002546100d6906001600160a01b031681565b610105610128366004610e67565b61024b565b61010561013b366004610eac565b61034a565b6000546100d6906001600160a01b031681565b6003546100d6906001600160a01b031681565b610105610174366004610e67565b610606565b610105610187366004610efa565b6108bb565b61010561019a366004610f54565b610c84565b6000546001600160a01b031633146101fe5760405162461bcd60e51b815260206004820152600a60248201527f4f6e6c79206f776e65720000000000000000000000000000000000000000000060448201526064015b60405180910390fd5b6001600160a01b03811661021157600080fd5b600380547fffffffffffffffffffffffff0000000000000000000000000000000000000000166001600160a01b0392909216919091179055565b6000811161028c5760405162461bcd60e51b815260206004820152600e60248201526d1a5b9d985b1a5908185b5bdd5b9d60921b60448201526064016101f5565b6003546040517fa33f7da00000000000000000000000000000000000000000000000000000000081526001600160a01b039091169063a33f7da0906102d990859033908690600401610fe1565b600060405180830381600087803b1580156102f357600080fd5b505af1158015610307573d6000803e3d6000fd5b505050507f6a1d07ea5e6ff75e796159ad10cd2c8cff5620be1d029d17c1c910c607c4999b82338360405161033e93929190610fe1565b60405180910390a15050565b6001546040516302f6679160e41b81526000916001600160a01b031690632f6679109061037b90879060040161100f565b602060405180830381865afa158015610398573d6000803e3d6000fd5b505050506040513d601f19601f820116820180604052508101906103bc9190611032565b604051636eb1769f60e11b81523360048201523060248201529091506000906001600160a01b0383169063dd62ed3e90604401602060405180830381865afa15801561040c573d6000803e3d6000fd5b505050506040513d601f19601f82011682018060405250810190610430919061104f565b90508084111561046e5760405162461bcd60e51b8152602060048201526009602482015268616c6c6f77616e636560b81b60448201526064016101f5565b600084116104af5760405162461bcd60e51b815260206004820152600e60248201526d1a5b9d985b1a5908185b5bdd5b9d60921b60448201526064016101f5565b6003546040517f5b91e7520000000000000000000000000000000000000000000000000000000081526001600160a01b0390911690635b91e752906104fe903390899089908990600401611068565b600060405180830381600087803b15801561051857600080fd5b505af115801561052c573d6000803e3d6000fd5b5050600380546040805180820182529283526203078360ec1b60208401525163156cf54b60e31b81526001600160a01b03808816955063ab67aa58945061057e933393909116918a919060040161109d565b6020604051808303816000875af115801561059d573d6000803e3d6000fd5b505050506040513d601f19601f820116820180604052508101906105c191906110d9565b507fe6cec3038e34f0ea6f50abffcc0f879c25f6a9983d5e7f3c35673cac0c5708f0853386866040516105f794939291906110fb565b60405180910390a15050505050565b6001546040516302f6679160e41b81526000916001600160a01b031690632f6679109061063790869060040161100f565b602060405180830381865afa158015610654573d6000803e3d6000fd5b505050506040513d601f19601f820116820180604052508101906106789190611032565b9050600082116106bb5760405162461bcd60e51b815260206004820152600e60248201526d1a5b9d985b1a5908185b5bdd5b9d60921b60448201526064016101f5565b6003546040517f995ae7d00000000000000000000000000000000000000000000000000000000081526001600160a01b039091169063995ae7d09061070890869033908790600401610fe1565b600060405180830381600087803b15801561072257600080fd5b505af1158015610736573d6000803e3d6000fd5b5050604051636eb1769f60e11b8152336004820152306024820152600092506001600160a01b038416915063dd62ed3e90604401602060405180830381865afa158015610787573d6000803e3d6000fd5b505050506040513d601f19601f820116820180604052508101906107ab919061104f565b9050808311156107e95760405162461bcd60e51b8152602060048201526009602482015268616c6c6f77616e636560b81b60448201526064016101f5565b600380546040805180820182529283526203078360ec1b60208401525163156cf54b60e31b81526001600160a01b038581169363ab67aa589361083693339390911691899160040161109d565b6020604051808303816000875af1158015610855573d6000803e3d6000fd5b505050506040513d601f19601f8201168201806040525081019061087991906110d9565b507f1b98d975dd919d26350a21845e2ac202f276edc4dabd039c8bf8fdfdc12592218433856040516108ad93929190610fe1565b60405180910390a150505050565b6003546040517fd59dd0220000000000000000000000000000000000000000000000000000000081526000916001600160a01b03169063d59dd022906109079086908890600401611133565b600060405180830381865afa158015610924573d6000803e3d6000fd5b505050506040513d6000823e601f3d908101601f1916820160405261094c9190810190611155565b6001546040516302f6679160e41b81529192506000916001600160a01b0390911690632f6679109061098290889060040161100f565b602060405180830381865afa15801561099f573d6000803e3d6000fd5b505050506040513d601f19601f820116820180604052508101906109c39190611032565b90506000816001600160a01b031663e5a6b10f6040518163ffffffff1660e01b8152600401602060405180830381865afa158015610a05573d6000803e3d6000fd5b505050506040513d601f19601f82011682018060405250810190610a299190611032565b60608401519091506000610a3d8287611236565b610a4f90670de0b6b3a7640000611236565b6040517f70a082310000000000000000000000000000000000000000000000000000000081523360048201529091506000906001600160a01b038516906370a0823190602401602060405180830381865afa158015610ab2573d6000803e3d6000fd5b505050506040513d601f19601f82011682018060405250810190610ad6919061104f565b905081811015610b285760405162461bcd60e51b815260206004820152600760248201527f62616c616e63650000000000000000000000000000000000000000000000000060448201526064016101f5565b6003546040517fd32e0f270000000000000000000000000000000000000000000000000000000081526001600160a01b039091169063d32e0f2790610b77908c908c9033908d90600401611261565b600060405180830381600087803b158015610b9157600080fd5b505af1158015610ba5573d6000803e3d6000fd5b50506040517f23b872dd0000000000000000000000000000000000000000000000000000000081523360048201526001600160a01b038b8116602483015260448201869052871692506323b872dd91506064016020604051808303816000875af1158015610c17573d6000803e3d6000fd5b505050506040513d601f19601f82011682018060405250810190610c3b91906110d9565b507f820bf2ae1f4bcd166e4adb6e32d112ef2164e186e503a62eba485748d1c72ea18989338a604051610c719493929190611261565b60405180910390a1505050505050505050565b6003546040517f2cc9143f0000000000000000000000000000000000000000000000000000000081526001600160a01b0390911690632cc9143f90610ccf9084903390600401611297565b600060405180830381600087803b158015610ce957600080fd5b505af1158015610cfd573d6000803e3d6000fd5b505050507fa7236108b1b13656f4c805e22e6ec64d5570479fface325dcf755e3e984e80e88133604051610d32929190611297565b60405180910390a150565b6001600160a01b0381168114610d5257600080fd5b50565b600060208284031215610d6757600080fd5b8135610d7281610d3d565b9392505050565b634e487b7160e01b600052604160045260246000fd5b60405160c0810167ffffffffffffffff81118282101715610db257610db2610d79565b60405290565b604051601f8201601f1916810167ffffffffffffffff81118282101715610de157610de1610d79565b604052919050565b600067ffffffffffffffff821115610e0357610e03610d79565b50601f01601f191660200190565b600082601f830112610e2257600080fd5b8135610e35610e3082610de9565b610db8565b818152846020838601011115610e4a57600080fd5b816020850160208301376000918101602001919091529392505050565b60008060408385031215610e7a57600080fd5b823567ffffffffffffffff811115610e9157600080fd5b610e9d85828601610e11565b95602094909401359450505050565b600080600060608486031215610ec157600080fd5b833567ffffffffffffffff811115610ed857600080fd5b610ee486828701610e11565b9660208601359650604090950135949350505050565b600080600060608486031215610f0f57600080fd5b833567ffffffffffffffff811115610f2657600080fd5b610f3286828701610e11565b9350506020840135610f4381610d3d565b929592945050506040919091013590565b600060208284031215610f6657600080fd5b813567ffffffffffffffff811115610f7d57600080fd5b610f8984828501610e11565b949350505050565b60005b83811015610fac578181015183820152602001610f94565b50506000910152565b60008151808452610fcd816020860160208601610f91565b601f01601f19169290920160200192915050565b606081526000610ff46060830186610fb5565b6001600160a01b039490941660208301525060400152919050565b602081526000610d726020830184610fb5565b805161102d81610d3d565b919050565b60006020828403121561104457600080fd5b8151610d7281610d3d565b60006020828403121561106157600080fd5b5051919050565b6001600160a01b038516815260806020820152600061108a6080830186610fb5565b6040830194909452506060015292915050565b60006001600160a01b038087168352808616602084015250836040830152608060608301526110cf6080830184610fb5565b9695505050505050565b6000602082840312156110eb57600080fd5b81518015158114610d7257600080fd5b60808152600061110e6080830187610fb5565b6001600160a01b03959095166020830152506040810192909252606090910152919050565b6001600160a01b0383168152604060208201526000610f896040830184610fb5565b6000602080838503121561116857600080fd5b825167ffffffffffffffff8082111561118057600080fd5b9084019060c0828703121561119457600080fd5b61119c610d8f565b8251828111156111ab57600080fd5b83019150601f820187136111be57600080fd5b81516111cc610e3082610de9565b81815288868386010111156111e057600080fd5b6111ef82878301888701610f91565b8252506111fd838501611022565b8482015260408301516040820152606083015160608201526080830151608082015260a083015160a08201528094505050505092915050565b808202811582820484141761125b57634e487b7160e01b600052601160045260246000fd5b92915050565b6080815260006112746080830187610fb5565b6001600160a01b0395861660208401529390941660408201526060015292915050565b6040815260006112aa6040830185610fb5565b90506001600160a01b0383166020830152939250505056fea26469706673582212201b73473eb678d668a102e7b93a3a44ce35fb9af79fc8c13cb8f6dc718b7beae964736f6c63430008130033",
  "linkReferences": {},
  "deployedLinkReferences": {}
}