{
  "_format": "hh-sol-artifact-1",
  "contractName": "ERC20IRS",
  "sourceName": "contracts/tests/tokens/ERC20IRS.sol",
  "abi": [
    {
      "inputs": [
        {
          "internalType": "string",
          "name": "name_",
          "type": "string"
        },
        {
          "internalType": "string",
          "name": "symbol_",
          "type": "string"
        }
      ],
      "stateMutability": "nonpayable",
      "type": "constructor"
    },
    {
      "anonymous": false,
      "inputs": [
        {
          "indexed": true,
          "internalType": "address",
          "name": "owner",
          "type": "address"
        },
        {
          "indexed": true,
          "internalType": "address",
          "name": "spender",
          "type": "address"
        },
        {
          "indexed": false,
          "internalType": "uint256",
          "name": "value",
          "type": "uint256"
        }
      ],
      "name": "Approval",
      "type": "event"
    },
    {
      "anonymous": false,
      "inputs": [
        {
          "indexed": false,
          "internalType": "uint256",
          "name": "oldBenchmark",
          "type": "uint256"
        },
        {
          "indexed": false,
          "internalType": "uint256",
          "name": "newBenchmark",
          "type": "uint256"
        }
      ],
      "name": "SetBenchmark",
      "type": "event"
    },
    {
      "anonymous": false,
      "inputs": [
        {
          "indexed": true,
          "internalType": "address",
          "name": "from",
          "type": "address"
        },
        {
          "indexed": true,
          "internalType": "address",
          "name": "to",
          "type": "address"
        },
        {
          "indexed": false,
          "internalType": "uint256",
          "name": "value",
          "type": "uint256"
        }
      ],
      "name": "Transfer",
      "type": "event"
    },
    {
      "inputs": [
        {
          "internalType": "address",
          "name": "owner",
          "type": "address"
        },
        {
          "internalType": "address",
          "name": "spender",
          "type": "address"
        }
      ],
      "name": "allowance",
      "outputs": [
        {
          "internalType": "uint256",
          "name": "",
          "type": "uint256"
        }
      ],
      "stateMutability": "view",
      "type": "function"
    },
    {
      "inputs": [
        {
          "internalType": "address",
          "name": "spender",
          "type": "address"
        },
        {
          "internalType": "uint256",
          "name": "amount",
          "type": "uint256"
        }
      ],
      "name": "approve",
      "outputs": [
        {
          "internalType": "bool",
          "name": "",
          "type": "bool"
        }
      ],
      "stateMutability": "nonpayable",
      "type": "function"
    },
    {
      "inputs": [
        {
          "internalType": "address",
          "name": "account",
          "type": "address"
        }
      ],
      "name": "balanceOf",
      "outputs": [
        {
          "internalType": "uint256",
          "name": "",
          "type": "uint256"
        }
      ],
      "stateMutability": "view",
      "type": "function"
    },
    {
      "inputs": [
        {
          "internalType": "address",
          "name": "account",
          "type": "address"
        },
        {
          "internalType": "uint256",
          "name": "amount",
          "type": "uint256"
        }
      ],
      "name": "burn",
      "outputs": [
        {
          "internalType": "bool",
          "name": "",
          "type": "bool"
        }
      ],
      "stateMutability": "nonpayable",
      "type": "function"
    },
    {
      "inputs": [],
      "name": "decimals",
      "outputs": [
        {
          "internalType": "uint8",
          "name": "",
          "type": "uint8"
        }
      ],
      "stateMutability": "view",
      "type": "function"
    },
    {
      "inputs": [
        {
          "internalType": "address",
          "name": "spender",
          "type": "address"
        },
        {
          "internalType": "uint256",
          "name": "subtractedValue",
          "type": "uint256"
        }
      ],
      "name": "decreaseAllowance",
      "outputs": [
        {
          "internalType": "bool",
          "name": "",
          "type": "bool"
        }
      ],
      "stateMutability": "nonpayable",
      "type": "function"
    },
    {
      "inputs": [],
      "name": "fixedPayerContract",
      "outputs": [
        {
          "internalType": "address",
          "name": "",
          "type": "address"
        }
      ],
      "stateMutability": "view",
      "type": "function"
    },
    {
      "inputs": [],
      "name": "floatingPayerContract",
      "outputs": [
        {
          "internalType": "address",
          "name": "",
          "type": "address"
        }
      ],
      "stateMutability": "view",
      "type": "function"
    },
    {
      "inputs": [
        {
          "internalType": "address",
          "name": "spender",
          "type": "address"
        },
        {
          "internalType": "uint256",
          "name": "addedValue",
          "type": "uint256"
        }
      ],
      "name": "increaseAllowance",
      "outputs": [
        {
          "internalType": "bool",
          "name": "",
          "type": "bool"
        }
      ],
      "stateMutability": "nonpayable",
      "type": "function"
    },
    {
      "inputs": [],
      "name": "isActive",
      "outputs": [
        {
          "internalType": "uint8",
          "name": "",
          "type": "uint8"
        }
      ],
      "stateMutability": "view",
      "type": "function"
    },
    {
      "inputs": [
        {
          "internalType": "address",
          "name": "account",
          "type": "address"
        },
        {
          "internalType": "uint256",
          "name": "amount",
          "type": "uint256"
        }
      ],
      "name": "mint",
      "outputs": [
        {
          "internalType": "bool",
          "name": "",
          "type": "bool"
        }
      ],
      "stateMutability": "nonpayable",
      "type": "function"
    },
    {
      "inputs": [],
      "name": "name",
      "outputs": [
        {
          "internalType": "string",
          "name": "",
          "type": "string"
        }
      ],
      "stateMutability": "view",
      "type": "function"
    },
    {
      "inputs": [],
      "name": "numberOfSwaps",
      "outputs": [
        {
          "internalType": "uint8",
          "name": "",
          "type": "uint8"
        }
      ],
      "stateMutability": "view",
      "type": "function"
    },
    {
      "inputs": [],
      "name": "owner",
      "outputs": [
        {
          "internalType": "address",
          "name": "",
          "type": "address"
        }
      ],
      "stateMutability": "view",
      "type": "function"
    },
    {
      "inputs": [],
      "name": "swapCount",
      "outputs": [
        {
          "internalType": "uint8",
          "name": "",
          "type": "uint8"
        }
      ],
      "stateMutability": "view",
      "type": "function"
    },
    {
      "inputs": [],
      "name": "symbol",
      "outputs": [
        {
          "internalType": "string",
          "name": "",
          "type": "string"
        }
      ],
      "stateMutability": "view",
      "type": "function"
    },
    {
      "inputs": [],
      "name": "toposBankContract",
      "outputs": [
        {
          "internalType": "address",
          "name": "",
          "type": "address"
        }
      ],
      "stateMutability": "view",
      "type": "function"
    },
    {
      "inputs": [],
      "name": "totalSupply",
      "outputs": [
        {
          "internalType": "uint256",
          "name": "",
          "type": "uint256"
        }
      ],
      "stateMutability": "view",
      "type": "function"
    },
    {
      "inputs": [
        {
          "internalType": "address",
          "name": "to",
          "type": "address"
        },
        {
          "internalType": "uint256",
          "name": "amount",
          "type": "uint256"
        }
      ],
      "name": "transfer",
      "outputs": [
        {
          "internalType": "bool",
          "name": "",
          "type": "bool"
        }
      ],
      "stateMutability": "nonpayable",
      "type": "function"
    },
    {
      "inputs": [
        {
          "internalType": "address",
          "name": "from",
          "type": "address"
        },
        {
          "internalType": "address",
          "name": "to",
          "type": "address"
        },
        {
          "internalType": "uint256",
          "name": "amount",
          "type": "uint256"
        }
      ],
      "name": "transferFrom",
      "outputs": [
        {
          "internalType": "bool",
          "name": "",
          "type": "bool"
        }
      ],
      "stateMutability": "nonpayable",
      "type": "function"
    }
  ],
  "bytecode": "0x60806040523480156200001157600080fd5b50604051620010fa380380620010fa83398101604081905262000034916200011f565b601162000042838262000218565b50601262000051828262000218565b505050620002e4565b634e487b7160e01b600052604160045260246000fd5b600082601f8301126200008257600080fd5b81516001600160401b03808211156200009f576200009f6200005a565b604051601f8301601f19908116603f01168101908282118183101715620000ca57620000ca6200005a565b81604052838152602092508683858801011115620000e757600080fd5b600091505b838210156200010b5785820183015181830184015290820190620000ec565b600093810190920192909252949350505050565b600080604083850312156200013357600080fd5b82516001600160401b03808211156200014b57600080fd5b620001598683870162000070565b935060208501519150808211156200017057600080fd5b506200017f8582860162000070565b9150509250929050565b600181811c908216806200019e57607f821691505b602082108103620001bf57634e487b7160e01b600052602260045260246000fd5b50919050565b601f8211156200021357600081815260208120601f850160051c81016020861015620001ee5750805b601f850160051c820191505b818110156200020f57828155600101620001fa565b5050505b505050565b81516001600160401b038111156200023457620002346200005a565b6200024c8162000245845462000189565b84620001c5565b602080601f8311600181146200028457600084156200026b5750858301515b600019600386901b1c1916600185901b1785556200020f565b600085815260208120601f198616915b82811015620002b55788860151825594840194600190910190840162000294565b5085821015620002d45787850151600019600388901b60f8161c191681555b5050505050600190811b01905550565b610e0680620002f46000396000f3fe608060405234801561001057600080fd5b506004361061016c5760003560e01c806370a08231116100cd578063a457c2d711610081578063dd62ed3e11610066578063dd62ed3e1461031d578063e8f9d2f914610356578063ecba89c51461037c57600080fd5b8063a457c2d7146102f7578063a9059cbb1461030a57600080fd5b806395d89b41116100b257806395d89b41146102c95780639c34712a146102d15780639dc29fac146102e457600080fd5b806370a082311461028d5780638da5cb5b146102b657600080fd5b80632eff0d9e116101245780633950935111610109578063395093511461023c57806340c10f191461024f578063530c61cf1461026257600080fd5b80632eff0d9e1461020e578063313ce5671461023557600080fd5b806318160ddd1161015557806318160ddd146101b257806322f3e2d4146101c457806323b872dd146101fb57600080fd5b806306fdde0314610171578063095ea7b31461018f575b600080fd5b61017961038f565b6040516101869190610c50565b60405180910390f35b6101a261019d366004610cba565b610421565b6040519015158152602001610186565b6010545b604051908152602001610186565b600d546101e99074010000000000000000000000000000000000000000900460ff1681565b60405160ff9091168152602001610186565b6101a2610209366004610ce4565b61043b565b600d546101e990760100000000000000000000000000000000000000000000900460ff1681565b60126101e9565b6101a261024a366004610cba565b61045f565b6101a261025d366004610cba565b61049e565b600b54610275906001600160a01b031681565b6040516001600160a01b039091168152602001610186565b6101b661029b366004610d20565b6001600160a01b03166000908152600e602052604090205490565b600c54610275906001600160a01b031681565b61017961056b565b600d54610275906001600160a01b031681565b6101a26102f2366004610cba565b61057a565b6101a2610305366004610cba565b6106e7565b6101a2610318366004610cba565b610791565b6101b661032b366004610d42565b6001600160a01b039182166000908152600f6020908152604080832093909416825291909152205490565b600d546101e9907501000000000000000000000000000000000000000000900460ff1681565b600a54610275906001600160a01b031681565b60606011805461039e90610d75565b80601f01602080910402602001604051908101604052809291908181526020018280546103ca90610d75565b80156104175780601f106103ec57610100808354040283529160200191610417565b820191906000526020600020905b8154815290600101906020018083116103fa57829003601f168201915b5050505050905090565b60003361042f81858561079f565b60019150505b92915050565b6000336104498582856108f7565b610454858585610989565b506001949350505050565b336000818152600f602090815260408083206001600160a01b038716845290915281205490919061042f9082908690610499908790610daf565b61079f565b60006001600160a01b0383166104fb5760405162461bcd60e51b815260206004820152601f60248201527f45524332303a206d696e7420746f20746865207a65726f20616464726573730060448201526064015b60405180910390fd5b816010600082825461050d9190610daf565b90915550506001600160a01b0383166000818152600e60209081526040808320805487019055518581527fddf252ad1be2c89b69c2b068fc378daa952ba7f163c4a11628f55a4df523b3ef910160405180910390a350600192915050565b60606012805461039e90610d75565b60006001600160a01b0383166105f85760405162461bcd60e51b815260206004820152602160248201527f45524332303a206275726e2066726f6d20746865207a65726f2061646472657360448201527f730000000000000000000000000000000000000000000000000000000000000060648201526084016104f2565b6001600160a01b0383166000908152600e6020526040902054828110156106875760405162461bcd60e51b815260206004820152602260248201527f45524332303a206275726e20616d6f756e7420657863656564732062616c616e60448201527f636500000000000000000000000000000000000000000000000000000000000060648201526084016104f2565b6001600160a01b0384166000818152600e602090815260408083208786039055601080548890039055518681529192917fddf252ad1be2c89b69c2b068fc378daa952ba7f163c4a11628f55a4df523b3ef910160405180910390a361042f565b336000818152600f602090815260408083206001600160a01b0387168452909152812054909190838110156107845760405162461bcd60e51b815260206004820152602560248201527f45524332303a2064656372656173656420616c6c6f77616e63652062656c6f7760448201527f207a65726f00000000000000000000000000000000000000000000000000000060648201526084016104f2565b610454828686840361079f565b60003361042f818585610989565b6001600160a01b03831661081a5760405162461bcd60e51b8152602060048201526024808201527f45524332303a20617070726f76652066726f6d20746865207a65726f2061646460448201527f726573730000000000000000000000000000000000000000000000000000000060648201526084016104f2565b6001600160a01b0382166108965760405162461bcd60e51b815260206004820152602260248201527f45524332303a20617070726f766520746f20746865207a65726f20616464726560448201527f737300000000000000000000000000000000000000000000000000000000000060648201526084016104f2565b6001600160a01b038381166000818152600f602090815260408083209487168084529482529182902085905590518481527f8c5be1e5ebec7d5bd14f71427d1e84f3dd0314c0f7b2291e5b200ac8c7c3b925910160405180910390a3505050565b6001600160a01b038381166000908152600f6020908152604080832093861683529290522054600019811461098357818110156109765760405162461bcd60e51b815260206004820152601d60248201527f45524332303a20696e73756666696369656e7420616c6c6f77616e636500000060448201526064016104f2565b610983848484840361079f565b50505050565b6001600160a01b038316610a055760405162461bcd60e51b815260206004820152602560248201527f45524332303a207472616e736665722066726f6d20746865207a65726f20616460448201527f647265737300000000000000000000000000000000000000000000000000000060648201526084016104f2565b6001600160a01b038216610a815760405162461bcd60e51b815260206004820152602360248201527f45524332303a207472616e7366657220746f20746865207a65726f206164647260448201527f657373000000000000000000000000000000000000000000000000000000000060648201526084016104f2565b6001600160a01b0383166000908152600e602052604090205481811015610b105760405162461bcd60e51b815260206004820152602660248201527f45524332303a207472616e7366657220616d6f756e742065786365656473206260448201527f616c616e6365000000000000000000000000000000000000000000000000000060648201526084016104f2565b6001600160a01b038085166000818152600e6020526040808220868603905586841682528120805486019055549091169003610b73576000805473ffffffffffffffffffffffffffffffffffffffff19166001600160a01b038516179055610bfe565b6001546001600160a01b0390811690851603610bb6576001805473ffffffffffffffffffffffffffffffffffffffff19166001600160a01b038516179055610bfe565b60405162461bcd60e51b815260206004820152601460248201527f696e76616c69642066726f6d206164647265737300000000000000000000000060448201526064016104f2565b826001600160a01b0316846001600160a01b03167fddf252ad1be2c89b69c2b068fc378daa952ba7f163c4a11628f55a4df523b3ef84604051610c4391815260200190565b60405180910390a3610983565b600060208083528351808285015260005b81811015610c7d57858101830151858201604001528201610c61565b506000604082860101526040601f19601f8301168501019250505092915050565b80356001600160a01b0381168114610cb557600080fd5b919050565b60008060408385031215610ccd57600080fd5b610cd683610c9e565b946020939093013593505050565b600080600060608486031215610cf957600080fd5b610d0284610c9e565b9250610d1060208501610c9e565b9150604084013590509250925092565b600060208284031215610d3257600080fd5b610d3b82610c9e565b9392505050565b60008060408385031215610d5557600080fd5b610d5e83610c9e565b9150610d6c60208401610c9e565b90509250929050565b600181811c90821680610d8957607f821691505b602082108103610da957634e487b7160e01b600052602260045260246000fd5b50919050565b8082018082111561043557634e487b7160e01b600052601160045260246000fdfea2646970667358221220f751b0f253894901edd52f90e424d0baa9a87aac2cca2b719853df5b708bc1b164736f6c63430008130033",
  "linkReferences": {},
  "deployedLinkReferences": {}
}