{
  "_format": "hh-sol-artifact-1",
  "contractName": "ERC7586",
  "sourceName": "contracts/Topos/IRS/ERC7586.sol",
  "abi": [
    {
      "inputs": [
        {
          "internalType": "address",
          "name": "_fixedPayerContract",
          "type": "address"
        },
        {
          "internalType": "address",
          "name": "_floatingPayerContract",
          "type": "address"
        },
        {
          "internalType": "uint8",
          "name": "_numberOfSwaps",
          "type": "uint8"
        },
        {
          "internalType": "string",
          "name": "_irsTokenName",
          "type": "string"
        },
        {
          "internalType": "string",
          "name": "_irsTokenSymbol",
          "type": "string"
        },
        {
          "components": [
            {
              "internalType": "address",
              "name": "fixedInterestPayer",
              "type": "address"
            },
            {
              "internalType": "address",
              "name": "floatingInterestPayer",
              "type": "address"
            },
            {
              "internalType": "uint8",
              "name": "ratesDecimals",
              "type": "uint8"
            },
            {
              "internalType": "uint256",
              "name": "swapRate",
              "type": "uint256"
            },
            {
              "internalType": "uint256",
              "name": "spread",
              "type": "uint256"
            },
            {
              "internalType": "address",
              "name": "assetContract",
              "type": "address"
            },
            {
              "internalType": "uint256",
              "name": "notionalAmount",
              "type": "uint256"
            },
            {
              "internalType": "uint256",
              "name": "paymentFrequency",
              "type": "uint256"
            },
            {
              "internalType": "uint256",
              "name": "startingDate",
              "type": "uint256"
            },
            {
              "internalType": "uint256",
              "name": "maturityDate",
              "type": "uint256"
            },
            {
              "internalType": "uint256",
              "name": "benchmark",
              "type": "uint256"
            }
          ],
          "internalType": "struct IRSTypes.IRS",
          "name": "_irs",
          "type": "tuple"
        },
        {
          "internalType": "address",
          "name": "_toposBankContract",
          "type": "address"
        }
      ],
      "stateMutability": "nonpayable",
      "type": "constructor"
    },
    {
      "anonymous": false,
      "inputs": [
        {
          "indexed": true,
          "internalType": "address",
          "name": "owner",
          "type": "address"
        },
        {
          "indexed": true,
          "internalType": "address",
          "name": "spender",
          "type": "address"
        },
        {
          "indexed": false,
          "internalType": "uint256",
          "name": "value",
          "type": "uint256"
        }
      ],
      "name": "Approval",
      "type": "event"
    },
    {
      "anonymous": false,
      "inputs": [
        {
          "indexed": false,
          "internalType": "uint256",
          "name": "oldBenchmark",
          "type": "uint256"
        },
        {
          "indexed": false,
          "internalType": "uint256",
          "name": "newBenchmark",
          "type": "uint256"
        }
      ],
      "name": "SetBenchmark",
      "type": "event"
    },
    {
      "anonymous": false,
      "inputs": [
        {
          "indexed": false,
          "internalType": "uint256",
          "name": "_amount",
          "type": "uint256"
        },
        {
          "indexed": false,
          "internalType": "address",
          "name": "_account",
          "type": "address"
        }
      ],
      "name": "Swap",
      "type": "event"
    },
    {
      "anonymous": false,
      "inputs": [
        {
          "indexed": true,
          "internalType": "address",
          "name": "_payer",
          "type": "address"
        },
        {
          "indexed": true,
          "internalType": "address",
          "name": "_receiver",
          "type": "address"
        }
      ],
      "name": "TerminateSwap",
      "type": "event"
    },
    {
      "anonymous": false,
      "inputs": [
        {
          "indexed": true,
          "internalType": "address",
          "name": "from",
          "type": "address"
        },
        {
          "indexed": true,
          "internalType": "address",
          "name": "to",
          "type": "address"
        },
        {
          "indexed": false,
          "internalType": "uint256",
          "name": "value",
          "type": "uint256"
        }
      ],
      "name": "Transfer",
      "type": "event"
    },
    {
      "inputs": [
        {
          "internalType": "address",
          "name": "owner",
          "type": "address"
        },
        {
          "internalType": "address",
          "name": "spender",
          "type": "address"
        }
      ],
      "name": "allowance",
      "outputs": [
        {
          "internalType": "uint256",
          "name": "",
          "type": "uint256"
        }
      ],
      "stateMutability": "view",
      "type": "function"
    },
    {
      "inputs": [
        {
          "internalType": "address",
          "name": "spender",
          "type": "address"
        },
        {
          "internalType": "uint256",
          "name": "amount",
          "type": "uint256"
        }
      ],
      "name": "approve",
      "outputs": [
        {
          "internalType": "bool",
          "name": "",
          "type": "bool"
        }
      ],
      "stateMutability": "nonpayable",
      "type": "function"
    },
    {
      "inputs": [],
      "name": "assetContract",
      "outputs": [
        {
          "internalType": "address",
          "name": "",
          "type": "address"
        }
      ],
      "stateMutability": "view",
      "type": "function"
    },
    {
      "inputs": [
        {
          "internalType": "address",
          "name": "account",
          "type": "address"
        }
      ],
      "name": "balanceOf",
      "outputs": [
        {
          "internalType": "uint256",
          "name": "",
          "type": "uint256"
        }
      ],
      "stateMutability": "view",
      "type": "function"
    },
    {
      "inputs": [],
      "name": "benchmark",
      "outputs": [
        {
          "internalType": "uint256",
          "name": "",
          "type": "uint256"
        }
      ],
      "stateMutability": "view",
      "type": "function"
    },
    {
      "inputs": [
        {
          "internalType": "address",
          "name": "account",
          "type": "address"
        },
        {
          "internalType": "uint256",
          "name": "amount",
          "type": "uint256"
        }
      ],
      "name": "burn",
      "outputs": [
        {
          "internalType": "bool",
          "name": "",
          "type": "bool"
        }
      ],
      "stateMutability": "nonpayable",
      "type": "function"
    },
    {
      "inputs": [],
      "name": "decimals",
      "outputs": [
        {
          "internalType": "uint8",
          "name": "",
          "type": "uint8"
        }
      ],
      "stateMutability": "view",
      "type": "function"
    },
    {
      "inputs": [
        {
          "internalType": "address",
          "name": "spender",
          "type": "address"
        },
        {
          "internalType": "uint256",
          "name": "subtractedValue",
          "type": "uint256"
        }
      ],
      "name": "decreaseAllowance",
      "outputs": [
        {
          "internalType": "bool",
          "name": "",
          "type": "bool"
        }
      ],
      "stateMutability": "nonpayable",
      "type": "function"
    },
    {
      "inputs": [],
      "name": "fixedInterestPayer",
      "outputs": [
        {
          "internalType": "address",
          "name": "",
          "type": "address"
        }
      ],
      "stateMutability": "view",
      "type": "function"
    },
    {
      "inputs": [],
      "name": "fixedPayerContract",
      "outputs": [
        {
          "internalType": "address",
          "name": "",
          "type": "address"
        }
      ],
      "stateMutability": "view",
      "type": "function"
    },
    {
      "inputs": [],
      "name": "floatingInterestPayer",
      "outputs": [
        {
          "internalType": "address",
          "name": "",
          "type": "address"
        }
      ],
      "stateMutability": "view",
      "type": "function"
    },
    {
      "inputs": [],
      "name": "floatingPayerContract",
      "outputs": [
        {
          "internalType": "address",
          "name": "",
          "type": "address"
        }
      ],
      "stateMutability": "view",
      "type": "function"
    },
    {
      "inputs": [],
      "name": "getFixedPayerContract",
      "outputs": [
        {
          "internalType": "address",
          "name": "",
          "type": "address"
        }
      ],
      "stateMutability": "view",
      "type": "function"
    },
    {
      "inputs": [],
      "name": "getFloatingPayerContract",
      "outputs": [
        {
          "internalType": "address",
          "name": "",
          "type": "address"
        }
      ],
      "stateMutability": "view",
      "type": "function"
    },
    {
      "inputs": [],
      "name": "getNumberOfSwaps",
      "outputs": [
        {
          "internalType": "uint8",
          "name": "",
          "type": "uint8"
        }
      ],
      "stateMutability": "view",
      "type": "function"
    },
    {
      "inputs": [],
      "name": "getSwapCount",
      "outputs": [
        {
          "internalType": "uint8",
          "name": "",
          "type": "uint8"
        }
      ],
      "stateMutability": "view",
      "type": "function"
    },
    {
      "inputs": [
        {
          "internalType": "address",
          "name": "spender",
          "type": "address"
        },
        {
          "internalType": "uint256",
          "name": "addedValue",
          "type": "uint256"
        }
      ],
      "name": "increaseAllowance",
      "outputs": [
        {
          "internalType": "bool",
          "name": "",
          "type": "bool"
        }
      ],
      "stateMutability": "nonpayable",
      "type": "function"
    },
    {
      "inputs": [],
      "name": "irsInfo",
      "outputs": [
        {
          "components": [
            {
              "internalType": "address",
              "name": "fixedInterestPayer",
              "type": "address"
            },
            {
              "internalType": "address",
              "name": "floatingInterestPayer",
              "type": "address"
            },
            {
              "internalType": "uint8",
              "name": "ratesDecimals",
              "type": "uint8"
            },
            {
              "internalType": "uint256",
              "name": "swapRate",
              "type": "uint256"
            },
            {
              "internalType": "uint256",
              "name": "spread",
              "type": "uint256"
            },
            {
              "internalType": "address",
              "name": "assetContract",
              "type": "address"
            },
            {
              "internalType": "uint256",
              "name": "notionalAmount",
              "type": "uint256"
            },
            {
              "internalType": "uint256",
              "name": "paymentFrequency",
              "type": "uint256"
            },
            {
              "internalType": "uint256",
              "name": "startingDate",
              "type": "uint256"
            },
            {
              "internalType": "uint256",
              "name": "maturityDate",
              "type": "uint256"
            },
            {
              "internalType": "uint256",
              "name": "benchmark",
              "type": "uint256"
            }
          ],
          "internalType": "struct IRSTypes.IRS",
          "name": "",
          "type": "tuple"
        }
      ],
      "stateMutability": "view",
      "type": "function"
    },
    {
      "inputs": [],
      "name": "isActive",
      "outputs": [
        {
          "internalType": "uint8",
          "name": "",
          "type": "uint8"
        }
      ],
      "stateMutability": "view",
      "type": "function"
    },
    {
      "inputs": [],
      "name": "isContractActive",
      "outputs": [
        {
          "internalType": "uint8",
          "name": "",
          "type": "uint8"
        }
      ],
      "stateMutability": "view",
      "type": "function"
    },
    {
      "inputs": [],
      "name": "maturityDate",
      "outputs": [
        {
          "internalType": "uint256",
          "name": "",
          "type": "uint256"
        }
      ],
      "stateMutability": "view",
      "type": "function"
    },
    {
      "inputs": [
        {
          "internalType": "address",
          "name": "account",
          "type": "address"
        },
        {
          "internalType": "uint256",
          "name": "amount",
          "type": "uint256"
        }
      ],
      "name": "mint",
      "outputs": [
        {
          "internalType": "bool",
          "name": "",
          "type": "bool"
        }
      ],
      "stateMutability": "nonpayable",
      "type": "function"
    },
    {
      "inputs": [],
      "name": "name",
      "outputs": [
        {
          "internalType": "string",
          "name": "",
          "type": "string"
        }
      ],
      "stateMutability": "view",
      "type": "function"
    },
    {
      "inputs": [],
      "name": "notionalAmount",
      "outputs": [
        {
          "internalType": "uint256",
          "name": "",
          "type": "uint256"
        }
      ],
      "stateMutability": "view",
      "type": "function"
    },
    {
      "inputs": [],
      "name": "numberOfSwaps",
      "outputs": [
        {
          "internalType": "uint8",
          "name": "",
          "type": "uint8"
        }
      ],
      "stateMutability": "view",
      "type": "function"
    },
    {
      "inputs": [],
      "name": "owner",
      "outputs": [
        {
          "internalType": "address",
          "name": "",
          "type": "address"
        }
      ],
      "stateMutability": "view",
      "type": "function"
    },
    {
      "inputs": [],
      "name": "paymentFrequency",
      "outputs": [
        {
          "internalType": "uint256",
          "name": "",
          "type": "uint256"
        }
      ],
      "stateMutability": "view",
      "type": "function"
    },
    {
      "inputs": [],
      "name": "ratesDecimals",
      "outputs": [
        {
          "internalType": "uint8",
          "name": "",
          "type": "uint8"
        }
      ],
      "stateMutability": "view",
      "type": "function"
    },
    {
      "inputs": [
        {
          "internalType": "uint256",
          "name": "_newBenchmark",
          "type": "uint256"
        }
      ],
      "name": "setBenchmark",
      "outputs": [],
      "stateMutability": "nonpayable",
      "type": "function"
    },
    {
      "inputs": [],
      "name": "spread",
      "outputs": [
        {
          "internalType": "uint256",
          "name": "",
          "type": "uint256"
        }
      ],
      "stateMutability": "view",
      "type": "function"
    },
    {
      "inputs": [],
      "name": "startingDate",
      "outputs": [
        {
          "internalType": "uint256",
          "name": "",
          "type": "uint256"
        }
      ],
      "stateMutability": "view",
      "type": "function"
    },
    {
      "inputs": [],
      "name": "swap",
      "outputs": [
        {
          "internalType": "bool",
          "name": "",
          "type": "bool"
        }
      ],
      "stateMutability": "nonpayable",
      "type": "function"
    },
    {
      "inputs": [],
      "name": "swapCount",
      "outputs": [
        {
          "internalType": "uint8",
          "name": "",
          "type": "uint8"
        }
      ],
      "stateMutability": "view",
      "type": "function"
    },
    {
      "inputs": [],
      "name": "swapRate",
      "outputs": [
        {
          "internalType": "uint256",
          "name": "",
          "type": "uint256"
        }
      ],
      "stateMutability": "view",
      "type": "function"
    },
    {
      "inputs": [],
      "name": "symbol",
      "outputs": [
        {
          "internalType": "string",
          "name": "",
          "type": "string"
        }
      ],
      "stateMutability": "view",
      "type": "function"
    },
    {
      "inputs": [],
      "name": "terminateSwap",
      "outputs": [],
      "stateMutability": "nonpayable",
      "type": "function"
    },
    {
      "inputs": [],
      "name": "toposBankContract",
      "outputs": [
        {
          "internalType": "address",
          "name": "",
          "type": "address"
        }
      ],
      "stateMutability": "view",
      "type": "function"
    },
    {
      "inputs": [],
      "name": "totalSupply",
      "outputs": [
        {
          "internalType": "uint256",
          "name": "",
          "type": "uint256"
        }
      ],
      "stateMutability": "view",
      "type": "function"
    },
    {
      "inputs": [
        {
          "internalType": "address",
          "name": "to",
          "type": "address"
        },
        {
          "internalType": "uint256",
          "name": "amount",
          "type": "uint256"
        }
      ],
      "name": "transfer",
      "outputs": [
        {
          "internalType": "bool",
          "name": "",
          "type": "bool"
        }
      ],
      "stateMutability": "nonpayable",
      "type": "function"
    },
    {
      "inputs": [
        {
          "internalType": "address",
          "name": "from",
          "type": "address"
        },
        {
          "internalType": "address",
          "name": "to",
          "type": "address"
        },
        {
          "internalType": "uint256",
          "name": "amount",
          "type": "uint256"
        }
      ],
      "name": "transferFrom",
      "outputs": [
        {
          "internalType": "bool",
          "name": "",
          "type": "bool"
        }
      ],
      "stateMutability": "nonpayable",
      "type": "function"
    }
  ],
  "bytecode": "0x60806040523480156200001157600080fd5b5060405162001daa38038062001daa8339810160408190526200003491620002e5565b83836011620000448382620004ea565b506012620000538282620004ea565b5050600a80546001600160a01b03199081166001600160a01b038b811691909117909255600b805482168a8416179055600d8054865160008054851691861691909117815560208801516001805460408b01519288166001600160a81b031990911617600160a01b60ff93841681029190911790915560608a015160025560808a015160035560a08a015160048054881691891691909117905560c08a015160055560e08a01516006556101008a01516007556101208a01516008556101408a0151600955600c80543390881617905561ffff60a01b19909316600160a81b918d1691820260ff60a01b19161790921790931693861693909317905591506200016590670de0b6b3a7640000620005b6565b83516001600160a01b039081166000908152600e60209081526040808320859055908701519092168152208190559050620001a2816002620005b6565b60105550620005e29650505050505050565b80516001600160a01b0381168114620001cc57600080fd5b919050565b805160ff81168114620001cc57600080fd5b634e487b7160e01b600052604160045260246000fd5b60405161016081016001600160401b03811182821017156200021f576200021f620001e3565b60405290565b604051601f8201601f191681016001600160401b0381118282101715620002505762000250620001e3565b604052919050565b600082601f8301126200026a57600080fd5b81516001600160401b03811115620002865762000286620001e3565b60206200029c601f8301601f1916820162000225565b8281528582848701011115620002b157600080fd5b60005b83811015620002d1578581018301518282018401528201620002b4565b506000928101909101919091529392505050565b60008060008060008060008789036102208112156200030357600080fd5b6200030e89620001b4565b97506200031e60208a01620001b4565b96506200032e60408a01620001d1565b60608a01519096506001600160401b03808211156200034c57600080fd5b6200035a8c838d0162000258565b965060808b01519150808211156200037157600080fd5b50620003808b828c0162000258565b94505061016080609f19830112156200039857600080fd5b620003a2620001f9565b9150620003b260a08b01620001b4565b8252620003c260c08b01620001b4565b6020830152620003d560e08b01620001d1565b6040830152610100808b01516060840152610120808c0151608085015261014062000402818e01620001b4565b60a0860152928c015160c08501526101808c015160e08501526101a08c0151918401919091526101c08b0151908301526101e08a01519082015291506200044d6102008901620001b4565b905092959891949750929550565b600181811c908216806200047057607f821691505b6020821081036200049157634e487b7160e01b600052602260045260246000fd5b50919050565b601f821115620004e557600081815260208120601f850160051c81016020861015620004c05750805b601f850160051c820191505b81811015620004e157828155600101620004cc565b5050505b505050565b81516001600160401b03811115620005065762000506620001e3565b6200051e816200051784546200045b565b8462000497565b602080601f8311600181146200055657600084156200053d5750858301515b600019600386901b1c1916600185901b178555620004e1565b600085815260208120601f198616915b82811015620005875788860151825594840194600190910190840162000566565b5085821015620005a65787850151600019600388901b60f8161c191681555b5050505050600190811b01905550565b8082028115828204841417620005dc57634e487b7160e01b600052601160045260246000fd5b92915050565b6117b880620005f26000396000f3fe608060405234801561001057600080fd5b50600436106102c85760003560e01c80638119c0651161017b578063a9059cbb116100d8578063d81671bc1161008c578063e823b1da11610071578063e823b1da14610587578063e8f9d2f914610599578063ecba89c5146105ad57600080fd5b8063d81671bc1461053c578063dd62ed3e1461054e57600080fd5b8063beb9ad5f116100bd578063beb9ad5f14610512578063c4c22a8414610523578063d59624b41461053457600080fd5b8063a9059cbb146104ee578063be2da8731461050157600080fd5b806395d89b411161012f5780639dc29fac116101145780639dc29fac146104c0578063a26c1aa2146104d3578063a457c2d7146104db57600080fd5b806395d89b41146104a55780639c34712a146104ad57600080fd5b80638da5cb5b116101605780638da5cb5b146104785780638e5893151461048b5780638f5949f91461049357600080fd5b80638119c065146104685780638903c5a21461047057600080fd5b806340c10f1911610229578063530c61cf116101dd57806368a2da51116101c257806368a2da5114610424578063698518e51461043757806370a082311461043f57600080fd5b8063530c61cf146104095780635c25c76c1461041c57600080fd5b8063442447ca1161020e578063442447ca146103dc5780634d16304f146103e65780634d1d62fa146103f757600080fd5b806340c10f19146103b457806342abea79146103c757600080fd5b80632eff0d9e1161028057806338cb8a251161026557806338cb8a251461037457806339509351146103995780633e3ff7b6146103ac57600080fd5b80632eff0d9e14610359578063313ce5671461036d57600080fd5b806318160ddd116102b157806318160ddd1461030e57806322f3e2d41461032057806323b872dd1461034657600080fd5b806306fdde03146102cd578063095ea7b3146102eb575b600080fd5b6102d56105c0565b6040516102e291906114ab565b60405180910390f35b6102fe6102f9366004611515565b610652565b60405190151581526020016102e2565b6010545b6040519081526020016102e2565b600d5461033490600160a01b900460ff1681565b60405160ff90911681526020016102e2565b6102fe61035436600461153f565b61066c565b600d5461033490600160b01b900460ff1681565b6012610334565b600b546001600160a01b03165b6040516001600160a01b0390911681526020016102e2565b6102fe6103a7366004611515565b610690565b600754610312565b6102fe6103c2366004611515565b6106cf565b6103cf61079c565b6040516102e2919061157b565b6103e4610898565b005b6004546001600160a01b0316610381565b600d54600160a81b900460ff16610334565b600b54610381906001600160a01b031681565b600354610312565b6103e461043236600461162a565b61096f565b600254610312565b61031261044d366004611643565b6001600160a01b03166000908152600e602052604090205490565b6102fe610a4c565b600954610312565b600c54610381906001600160a01b031681565b600654610312565b600d54600160a01b900460ff16610334565b6102d5610dc6565b600d54610381906001600160a01b031681565b6102fe6104ce366004611515565b610dd5565b600554610312565b6102fe6104e9366004611515565b610f42565b6102fe6104fc366004611515565b610fec565b6001546001600160a01b0316610381565b600a546001600160a01b0316610381565b6000546001600160a01b0316610381565b600854610312565b600d54600160b01b900460ff16610334565b61031261055c366004611665565b6001600160a01b039182166000908152600f6020908152604080832093909416825291909152205490565b600154600160a01b900460ff16610334565b600d5461033490600160a81b900460ff1681565b600a54610381906001600160a01b031681565b6060601180546105cf90611698565b80601f01602080910402602001604051908101604052809291908181526020018280546105fb90611698565b80156106485780601f1061061d57610100808354040283529160200191610648565b820191906000526020600020905b81548152906001019060200180831161062b57829003601f168201915b5050505050905090565b600033610660818585610ffa565b60019150505b92915050565b60003361067a858285611152565b6106858585856111e4565b506001949350505050565b336000818152600f602090815260408083206001600160a01b038716845290915281205490919061066090829086906106ca9087906116e8565b610ffa565b60006001600160a01b03831661072c5760405162461bcd60e51b815260206004820152601f60248201527f45524332303a206d696e7420746f20746865207a65726f20616464726573730060448201526064015b60405180910390fd5b816010600082825461073e91906116e8565b90915550506001600160a01b0383166000818152600e60209081526040808320805487019055518581527fddf252ad1be2c89b69c2b068fc378daa952ba7f163c4a11628f55a4df523b3ef910160405180910390a350600192915050565b61081760405180610160016040528060006001600160a01b0316815260200160006001600160a01b03168152602001600060ff168152602001600081526020016000815260200160006001600160a01b0316815260200160008152602001600081526020016000815260200160008152602001600081525090565b5060408051610160810182526000546001600160a01b0390811682526001548082166020840152600160a01b900460ff16928201929092526002546060820152600354608082015260045490911660a082015260055460c082015260065460e082015260075461010082015260085461012082015260095461014082015290565b600d546001600160a01b031633146108e75760405162461bcd60e51b815260206004820152601260248201527113db9b1e4810985b9ac810dbdb9d1c9858dd60721b6044820152606401610723565b600d54600160a01b900460ff166001146109305760405162461bcd60e51b815260206004820152600a6024820152694e6f742041637469766560b01b6044820152606401610723565b600154600080546040516001600160a01b0393841693909116917f1aa6c8c6f9b0ff26b8661bdc3ce83e7caf565c568af549f21922fa9561363cc291a3565b600d546001600160a01b031633146109be5760405162461bcd60e51b815260206004820152601260248201527113db9b1e4810985b9ac810dbdb9d1c9858dd60721b6044820152606401610723565b600d54600160a01b900460ff16600114610a075760405162461bcd60e51b815260206004820152600a6024820152694e6f742041637469766560b01b6044820152606401610723565b600980549082905560408051828152602081018490527f743e05f5a593a6524d8aa1166b2a7d2a2b0f422b1a979f1d925c7d9a1798697b910160405180910390a15050565b600d546000906001600160a01b03163314610a9e5760405162461bcd60e51b815260206004820152601260248201527113db9b1e4810985b9ac810dbdb9d1c9858dd60721b6044820152606401610723565b600d54600160a01b900460ff16600114610ae75760405162461bcd60e51b815260206004820152600a6024820152694e6f742041637469766560b01b6044820152606401610723565b600254600354600954600091610afc916116e8565b6005549091506000610b0e84836116fb565b90506000610b1c84846116fb565b90506000806000838503610b725760405162461bcd60e51b815260206004820152600e60248201527f4e6f74696e6720746f20737761700000000000000000000000000000000000006044820152606401610723565b83851115610ba257610b848486611712565b6001546000549194506001600160a01b039081169350169050610bc6565b610bac8585611712565b6000546001549194506001600160a01b0390811693501690505b600d54600160b01b900460ff16610bde816001611725565b600d80547fffffffffffffffffff00ffffffffffffffffffffffffffffffffffffffffffff16600160b01b60ff93841681029190911791829055600160a81b8204831691049091161115610c745760405162461bcd60e51b815260206004820152600f60248201527f416c6c20737761707320646f6e652100000000000000000000000000000000006044820152606401610723565b600054610c92906001600160a01b0316670de0b6b3a7640000610dd5565b50600154610cb1906001600160a01b0316670de0b6b3a7640000610dd5565b506004546001600160a01b03166323b872dd8385612710610cda89670de0b6b3a76400006116fb565b610ce4919061173e565b6040517fffffffff0000000000000000000000000000000000000000000000000000000060e086901b1681526001600160a01b03938416600482015292909116602483015260448201526064016020604051808303816000875af1158015610d50573d6000803e3d6000fd5b505050506040513d601f19601f82011682018060405250810190610d749190611760565b50604080518581526001600160a01b03851660208201527f757e61e0d078d58246a59b2ffe29975dc7053b43aa3a163b3b5b43fc1fb0c147910160405180910390a16001995050505050505050505090565b6060601280546105cf90611698565b60006001600160a01b038316610e535760405162461bcd60e51b815260206004820152602160248201527f45524332303a206275726e2066726f6d20746865207a65726f2061646472657360448201527f73000000000000000000000000000000000000000000000000000000000000006064820152608401610723565b6001600160a01b0383166000908152600e602052604090205482811015610ee25760405162461bcd60e51b815260206004820152602260248201527f45524332303a206275726e20616d6f756e7420657863656564732062616c616e60448201527f63650000000000000000000000000000000000000000000000000000000000006064820152608401610723565b6001600160a01b0384166000818152600e602090815260408083208786039055601080548890039055518681529192917fddf252ad1be2c89b69c2b068fc378daa952ba7f163c4a11628f55a4df523b3ef910160405180910390a3610660565b336000818152600f602090815260408083206001600160a01b038716845290915281205490919083811015610fdf5760405162461bcd60e51b815260206004820152602560248201527f45524332303a2064656372656173656420616c6c6f77616e63652062656c6f7760448201527f207a65726f0000000000000000000000000000000000000000000000000000006064820152608401610723565b6106858286868403610ffa565b6000336106608185856111e4565b6001600160a01b0383166110755760405162461bcd60e51b8152602060048201526024808201527f45524332303a20617070726f76652066726f6d20746865207a65726f2061646460448201527f72657373000000000000000000000000000000000000000000000000000000006064820152608401610723565b6001600160a01b0382166110f15760405162461bcd60e51b815260206004820152602260248201527f45524332303a20617070726f766520746f20746865207a65726f20616464726560448201527f73730000000000000000000000000000000000000000000000000000000000006064820152608401610723565b6001600160a01b038381166000818152600f602090815260408083209487168084529482529182902085905590518481527f8c5be1e5ebec7d5bd14f71427d1e84f3dd0314c0f7b2291e5b200ac8c7c3b925910160405180910390a3505050565b6001600160a01b038381166000908152600f602090815260408083209386168352929052205460001981146111de57818110156111d15760405162461bcd60e51b815260206004820152601d60248201527f45524332303a20696e73756666696369656e7420616c6c6f77616e63650000006044820152606401610723565b6111de8484848403610ffa565b50505050565b6001600160a01b0383166112605760405162461bcd60e51b815260206004820152602560248201527f45524332303a207472616e736665722066726f6d20746865207a65726f20616460448201527f64726573730000000000000000000000000000000000000000000000000000006064820152608401610723565b6001600160a01b0382166112dc5760405162461bcd60e51b815260206004820152602360248201527f45524332303a207472616e7366657220746f20746865207a65726f206164647260448201527f65737300000000000000000000000000000000000000000000000000000000006064820152608401610723565b6001600160a01b0383166000908152600e60205260409020548181101561136b5760405162461bcd60e51b815260206004820152602660248201527f45524332303a207472616e7366657220616d6f756e742065786365656473206260448201527f616c616e636500000000000000000000000000000000000000000000000000006064820152608401610723565b6001600160a01b038085166000818152600e60205260408082208686039055868416825281208054860190555490911690036113ce576000805473ffffffffffffffffffffffffffffffffffffffff19166001600160a01b038516179055611459565b6001546001600160a01b0390811690851603611411576001805473ffffffffffffffffffffffffffffffffffffffff19166001600160a01b038516179055611459565b60405162461bcd60e51b815260206004820152601460248201527f696e76616c69642066726f6d20616464726573730000000000000000000000006044820152606401610723565b826001600160a01b0316846001600160a01b03167fddf252ad1be2c89b69c2b068fc378daa952ba7f163c4a11628f55a4df523b3ef8460405161149e91815260200190565b60405180910390a36111de565b600060208083528351808285015260005b818110156114d8578581018301518582016040015282016114bc565b506000604082860101526040601f19601f8301168501019250505092915050565b80356001600160a01b038116811461151057600080fd5b919050565b6000806040838503121561152857600080fd5b611531836114f9565b946020939093013593505050565b60008060006060848603121561155457600080fd5b61155d846114f9565b925061156b602085016114f9565b9150604084013590509250925092565b81516001600160a01b03168152610160810160208301516115a760208401826001600160a01b03169052565b5060408301516115bc604084018260ff169052565b50606083015160608301526080830151608083015260a08301516115eb60a08401826001600160a01b03169052565b5060c083015160c083015260e083015160e083015261010080840151818401525061012080840151818401525061014080840151818401525092915050565b60006020828403121561163c57600080fd5b5035919050565b60006020828403121561165557600080fd5b61165e826114f9565b9392505050565b6000806040838503121561167857600080fd5b611681836114f9565b915061168f602084016114f9565b90509250929050565b600181811c908216806116ac57607f821691505b6020821081036116cc57634e487b7160e01b600052602260045260246000fd5b50919050565b634e487b7160e01b600052601160045260246000fd5b80820180821115610666576106666116d2565b8082028115828204841417610666576106666116d2565b81810381811115610666576106666116d2565b60ff8181168382160190811115610666576106666116d2565b60008261175b57634e487b7160e01b600052601260045260246000fd5b500490565b60006020828403121561177257600080fd5b8151801515811461165e57600080fdfea26469706673582212202fce1a3ed6e2470c6412520b98167827b6edd9e5d181511223adc9650498be6464736f6c63430008130033",
  "linkReferences": {},
  "deployedLinkReferences": {}
}