{
  "_format": "hh-sol-artifact-1",
  "contractName": "ERC7586",
  "sourceName": "contracts/Topos/IRS/ERC7586.sol",
  "abi": [
    {
      "inputs": [
        {
          "internalType": "address",
          "name": "_fixedPayerContract",
          "type": "address"
        },
        {
          "internalType": "address",
          "name": "_floatingPayerContract",
          "type": "address"
        },
        {
          "internalType": "uint8",
          "name": "_numberOfSwaps",
          "type": "uint8"
        },
        {
          "internalType": "string",
          "name": "_irsTokenName",
          "type": "string"
        },
        {
          "internalType": "string",
          "name": "_irsTokenSymbol",
          "type": "string"
        },
        {
          "components": [
            {
              "internalType": "address",
              "name": "irsContract",
              "type": "address"
            },
            {
              "internalType": "address",
              "name": "fixedInterestPayer",
              "type": "address"
            },
            {
              "internalType": "address",
              "name": "floatingInterestPayer",
              "type": "address"
            },
            {
              "internalType": "uint8",
              "name": "ratesDecimals",
              "type": "uint8"
            },
            {
              "internalType": "uint8",
              "name": "status",
              "type": "uint8"
            },
            {
              "internalType": "uint256",
              "name": "swapRate",
              "type": "uint256"
            },
            {
              "internalType": "uint256",
              "name": "spread",
              "type": "uint256"
            },
            {
              "internalType": "address",
              "name": "assetContract",
              "type": "address"
            },
            {
              "internalType": "uint256",
              "name": "notionalAmount",
              "type": "uint256"
            },
            {
              "internalType": "uint256",
              "name": "paymentFrequency",
              "type": "uint256"
            },
            {
              "internalType": "uint256",
              "name": "startingDate",
              "type": "uint256"
            },
            {
              "internalType": "uint256",
              "name": "maturityDate",
              "type": "uint256"
            },
            {
              "internalType": "uint256",
              "name": "benchmark",
              "type": "uint256"
            },
            {
              "internalType": "uint8",
              "name": "index",
              "type": "uint8"
            }
          ],
          "internalType": "struct IRSTypes.IRS",
          "name": "_irs",
          "type": "tuple"
        },
        {
          "internalType": "address",
          "name": "_toposBankContract",
          "type": "address"
        }
      ],
      "stateMutability": "nonpayable",
      "type": "constructor"
    },
    {
      "anonymous": false,
      "inputs": [
        {
          "indexed": true,
          "internalType": "address",
          "name": "owner",
          "type": "address"
        },
        {
          "indexed": true,
          "internalType": "address",
          "name": "spender",
          "type": "address"
        },
        {
          "indexed": false,
          "internalType": "uint256",
          "name": "value",
          "type": "uint256"
        }
      ],
      "name": "Approval",
      "type": "event"
    },
    {
      "anonymous": false,
      "inputs": [
        {
          "indexed": false,
          "internalType": "uint256",
          "name": "oldBenchmark",
          "type": "uint256"
        },
        {
          "indexed": false,
          "internalType": "uint256",
          "name": "newBenchmark",
          "type": "uint256"
        }
      ],
      "name": "SetBenchmark",
      "type": "event"
    },
    {
      "anonymous": false,
      "inputs": [
        {
          "indexed": false,
          "internalType": "uint256",
          "name": "_amount",
          "type": "uint256"
        },
        {
          "indexed": false,
          "internalType": "address",
          "name": "_account",
          "type": "address"
        }
      ],
      "name": "Swap",
      "type": "event"
    },
    {
      "anonymous": false,
      "inputs": [
        {
          "indexed": true,
          "internalType": "address",
          "name": "_payer",
          "type": "address"
        },
        {
          "indexed": true,
          "internalType": "address",
          "name": "_receiver",
          "type": "address"
        }
      ],
      "name": "TerminateSwap",
      "type": "event"
    },
    {
      "anonymous": false,
      "inputs": [
        {
          "indexed": true,
          "internalType": "address",
          "name": "from",
          "type": "address"
        },
        {
          "indexed": true,
          "internalType": "address",
          "name": "to",
          "type": "address"
        },
        {
          "indexed": false,
          "internalType": "uint256",
          "name": "value",
          "type": "uint256"
        }
      ],
      "name": "Transfer",
      "type": "event"
    },
    {
      "inputs": [
        {
          "internalType": "address",
          "name": "owner",
          "type": "address"
        },
        {
          "internalType": "address",
          "name": "spender",
          "type": "address"
        }
      ],
      "name": "allowance",
      "outputs": [
        {
          "internalType": "uint256",
          "name": "",
          "type": "uint256"
        }
      ],
      "stateMutability": "view",
      "type": "function"
    },
    {
      "inputs": [
        {
          "internalType": "address",
          "name": "spender",
          "type": "address"
        },
        {
          "internalType": "uint256",
          "name": "amount",
          "type": "uint256"
        }
      ],
      "name": "approve",
      "outputs": [
        {
          "internalType": "bool",
          "name": "",
          "type": "bool"
        }
      ],
      "stateMutability": "nonpayable",
      "type": "function"
    },
    {
      "inputs": [],
      "name": "assetContract",
      "outputs": [
        {
          "internalType": "address",
          "name": "",
          "type": "address"
        }
      ],
      "stateMutability": "view",
      "type": "function"
    },
    {
      "inputs": [
        {
          "internalType": "address",
          "name": "account",
          "type": "address"
        }
      ],
      "name": "balanceOf",
      "outputs": [
        {
          "internalType": "uint256",
          "name": "",
          "type": "uint256"
        }
      ],
      "stateMutability": "view",
      "type": "function"
    },
    {
      "inputs": [],
      "name": "benchmark",
      "outputs": [
        {
          "internalType": "uint256",
          "name": "",
          "type": "uint256"
        }
      ],
      "stateMutability": "view",
      "type": "function"
    },
    {
      "inputs": [
        {
          "internalType": "address",
          "name": "account",
          "type": "address"
        },
        {
          "internalType": "uint256",
          "name": "amount",
          "type": "uint256"
        }
      ],
      "name": "burn",
      "outputs": [
        {
          "internalType": "bool",
          "name": "",
          "type": "bool"
        }
      ],
      "stateMutability": "nonpayable",
      "type": "function"
    },
    {
      "inputs": [],
      "name": "decimals",
      "outputs": [
        {
          "internalType": "uint8",
          "name": "",
          "type": "uint8"
        }
      ],
      "stateMutability": "view",
      "type": "function"
    },
    {
      "inputs": [
        {
          "internalType": "address",
          "name": "spender",
          "type": "address"
        },
        {
          "internalType": "uint256",
          "name": "subtractedValue",
          "type": "uint256"
        }
      ],
      "name": "decreaseAllowance",
      "outputs": [
        {
          "internalType": "bool",
          "name": "",
          "type": "bool"
        }
      ],
      "stateMutability": "nonpayable",
      "type": "function"
    },
    {
      "inputs": [],
      "name": "fixedInterestPayer",
      "outputs": [
        {
          "internalType": "address",
          "name": "",
          "type": "address"
        }
      ],
      "stateMutability": "view",
      "type": "function"
    },
    {
      "inputs": [],
      "name": "fixedPayerContract",
      "outputs": [
        {
          "internalType": "address",
          "name": "",
          "type": "address"
        }
      ],
      "stateMutability": "view",
      "type": "function"
    },
    {
      "inputs": [],
      "name": "floatingInterestPayer",
      "outputs": [
        {
          "internalType": "address",
          "name": "",
          "type": "address"
        }
      ],
      "stateMutability": "view",
      "type": "function"
    },
    {
      "inputs": [],
      "name": "floatingPayerContract",
      "outputs": [
        {
          "internalType": "address",
          "name": "",
          "type": "address"
        }
      ],
      "stateMutability": "view",
      "type": "function"
    },
    {
      "inputs": [],
      "name": "getFixedPayerContract",
      "outputs": [
        {
          "internalType": "address",
          "name": "",
          "type": "address"
        }
      ],
      "stateMutability": "view",
      "type": "function"
    },
    {
      "inputs": [],
      "name": "getFloatingPayerContract",
      "outputs": [
        {
          "internalType": "address",
          "name": "",
          "type": "address"
        }
      ],
      "stateMutability": "view",
      "type": "function"
    },
    {
      "inputs": [],
      "name": "getNumberOfSwaps",
      "outputs": [
        {
          "internalType": "uint8",
          "name": "",
          "type": "uint8"
        }
      ],
      "stateMutability": "view",
      "type": "function"
    },
    {
      "inputs": [],
      "name": "getSwapCount",
      "outputs": [
        {
          "internalType": "uint8",
          "name": "",
          "type": "uint8"
        }
      ],
      "stateMutability": "view",
      "type": "function"
    },
    {
      "inputs": [
        {
          "internalType": "address",
          "name": "spender",
          "type": "address"
        },
        {
          "internalType": "uint256",
          "name": "addedValue",
          "type": "uint256"
        }
      ],
      "name": "increaseAllowance",
      "outputs": [
        {
          "internalType": "bool",
          "name": "",
          "type": "bool"
        }
      ],
      "stateMutability": "nonpayable",
      "type": "function"
    },
    {
      "inputs": [],
      "name": "irsInfo",
      "outputs": [
        {
          "components": [
            {
              "internalType": "address",
              "name": "irsContract",
              "type": "address"
            },
            {
              "internalType": "address",
              "name": "fixedInterestPayer",
              "type": "address"
            },
            {
              "internalType": "address",
              "name": "floatingInterestPayer",
              "type": "address"
            },
            {
              "internalType": "uint8",
              "name": "ratesDecimals",
              "type": "uint8"
            },
            {
              "internalType": "uint8",
              "name": "status",
              "type": "uint8"
            },
            {
              "internalType": "uint256",
              "name": "swapRate",
              "type": "uint256"
            },
            {
              "internalType": "uint256",
              "name": "spread",
              "type": "uint256"
            },
            {
              "internalType": "address",
              "name": "assetContract",
              "type": "address"
            },
            {
              "internalType": "uint256",
              "name": "notionalAmount",
              "type": "uint256"
            },
            {
              "internalType": "uint256",
              "name": "paymentFrequency",
              "type": "uint256"
            },
            {
              "internalType": "uint256",
              "name": "startingDate",
              "type": "uint256"
            },
            {
              "internalType": "uint256",
              "name": "maturityDate",
              "type": "uint256"
            },
            {
              "internalType": "uint256",
              "name": "benchmark",
              "type": "uint256"
            },
            {
              "internalType": "uint8",
              "name": "index",
              "type": "uint8"
            }
          ],
          "internalType": "struct IRSTypes.IRS",
          "name": "",
          "type": "tuple"
        }
      ],
      "stateMutability": "view",
      "type": "function"
    },
    {
      "inputs": [],
      "name": "isActive",
      "outputs": [
        {
          "internalType": "uint8",
          "name": "",
          "type": "uint8"
        }
      ],
      "stateMutability": "view",
      "type": "function"
    },
    {
      "inputs": [],
      "name": "isContractActive",
      "outputs": [
        {
          "internalType": "uint8",
          "name": "",
          "type": "uint8"
        }
      ],
      "stateMutability": "view",
      "type": "function"
    },
    {
      "inputs": [],
      "name": "maturityDate",
      "outputs": [
        {
          "internalType": "uint256",
          "name": "",
          "type": "uint256"
        }
      ],
      "stateMutability": "view",
      "type": "function"
    },
    {
      "inputs": [
        {
          "internalType": "address",
          "name": "account",
          "type": "address"
        },
        {
          "internalType": "uint256",
          "name": "amount",
          "type": "uint256"
        }
      ],
      "name": "mint",
      "outputs": [
        {
          "internalType": "bool",
          "name": "",
          "type": "bool"
        }
      ],
      "stateMutability": "nonpayable",
      "type": "function"
    },
    {
      "inputs": [],
      "name": "name",
      "outputs": [
        {
          "internalType": "string",
          "name": "",
          "type": "string"
        }
      ],
      "stateMutability": "view",
      "type": "function"
    },
    {
      "inputs": [],
      "name": "notionalAmount",
      "outputs": [
        {
          "internalType": "uint256",
          "name": "",
          "type": "uint256"
        }
      ],
      "stateMutability": "view",
      "type": "function"
    },
    {
      "inputs": [],
      "name": "numberOfSwaps",
      "outputs": [
        {
          "internalType": "uint8",
          "name": "",
          "type": "uint8"
        }
      ],
      "stateMutability": "view",
      "type": "function"
    },
    {
      "inputs": [],
      "name": "owner",
      "outputs": [
        {
          "internalType": "address",
          "name": "",
          "type": "address"
        }
      ],
      "stateMutability": "view",
      "type": "function"
    },
    {
      "inputs": [],
      "name": "paymentFrequency",
      "outputs": [
        {
          "internalType": "uint256",
          "name": "",
          "type": "uint256"
        }
      ],
      "stateMutability": "view",
      "type": "function"
    },
    {
      "inputs": [],
      "name": "ratesDecimals",
      "outputs": [
        {
          "internalType": "uint8",
          "name": "",
          "type": "uint8"
        }
      ],
      "stateMutability": "view",
      "type": "function"
    },
    {
      "inputs": [],
      "name": "spread",
      "outputs": [
        {
          "internalType": "uint256",
          "name": "",
          "type": "uint256"
        }
      ],
      "stateMutability": "view",
      "type": "function"
    },
    {
      "inputs": [],
      "name": "startingDate",
      "outputs": [
        {
          "internalType": "uint256",
          "name": "",
          "type": "uint256"
        }
      ],
      "stateMutability": "view",
      "type": "function"
    },
    {
      "inputs": [],
      "name": "swap",
      "outputs": [
        {
          "internalType": "bool",
          "name": "",
          "type": "bool"
        }
      ],
      "stateMutability": "nonpayable",
      "type": "function"
    },
    {
      "inputs": [],
      "name": "swapCount",
      "outputs": [
        {
          "internalType": "uint8",
          "name": "",
          "type": "uint8"
        }
      ],
      "stateMutability": "view",
      "type": "function"
    },
    {
      "inputs": [],
      "name": "swapRate",
      "outputs": [
        {
          "internalType": "uint256",
          "name": "",
          "type": "uint256"
        }
      ],
      "stateMutability": "view",
      "type": "function"
    },
    {
      "inputs": [],
      "name": "symbol",
      "outputs": [
        {
          "internalType": "string",
          "name": "",
          "type": "string"
        }
      ],
      "stateMutability": "view",
      "type": "function"
    },
    {
      "inputs": [],
      "name": "terminateSwap",
      "outputs": [],
      "stateMutability": "nonpayable",
      "type": "function"
    },
    {
      "inputs": [],
      "name": "toposBankContract",
      "outputs": [
        {
          "internalType": "address",
          "name": "",
          "type": "address"
        }
      ],
      "stateMutability": "view",
      "type": "function"
    },
    {
      "inputs": [],
      "name": "totalSupply",
      "outputs": [
        {
          "internalType": "uint256",
          "name": "",
          "type": "uint256"
        }
      ],
      "stateMutability": "view",
      "type": "function"
    },
    {
      "inputs": [
        {
          "internalType": "address",
          "name": "to",
          "type": "address"
        },
        {
          "internalType": "uint256",
          "name": "amount",
          "type": "uint256"
        }
      ],
      "name": "transfer",
      "outputs": [
        {
          "internalType": "bool",
          "name": "",
          "type": "bool"
        }
      ],
      "stateMutability": "nonpayable",
      "type": "function"
    },
    {
      "inputs": [
        {
          "internalType": "address",
          "name": "from",
          "type": "address"
        },
        {
          "internalType": "address",
          "name": "to",
          "type": "address"
        },
        {
          "internalType": "uint256",
          "name": "amount",
          "type": "uint256"
        }
      ],
      "name": "transferFrom",
      "outputs": [
        {
          "internalType": "bool",
          "name": "",
          "type": "bool"
        }
      ],
      "stateMutability": "nonpayable",
      "type": "function"
    }
  ],
  "bytecode": "0x60806040523480156200001157600080fd5b5060405162001ece38038062001ece83398101604081905262000034916200033e565b8383601362000044838262000583565b50601462000053828262000583565b5050600c80546001600160a01b03199081166001600160a01b038b811691909117909255600d805482168a8416179055600f80548651600080548516918616919091178155602088015160018054861691871691909117905560408801516002805460608b015160808c015160ff60a81b19948a166001600160a81b031990931692909217600160a01b60ff92831681029190911794909416600160a81b92821683021790925560a08b015160035560c08b015160045560e08b0151600580548916918a169190911790556101008b01516006556101208b01516007556101408b01516008556101608b01516009556101808b0151600a556101a08b0151600b805460ff1916918416919091179055600e80543390891617905561ffff60a01b19909416908d1693840260ff60a01b191617179093169386169390931790559150620001a890670de0b6b3a76400006200064f565b6020808501516001600160a01b0390811660009081526010909252604080832084905580870151909116825290208190559050620001e88160026200064f565b60125550506002805460ff60a81b1916600160a81b179055506200067b945050505050565b80516001600160a01b03811681146200022557600080fd5b919050565b805160ff811681146200022557600080fd5b634e487b7160e01b600052604160045260246000fd5b6040516101c081016001600160401b03811182821017156200027857620002786200023c565b60405290565b604051601f8201601f191681016001600160401b0381118282101715620002a957620002a96200023c565b604052919050565b600082601f830112620002c357600080fd5b81516001600160401b03811115620002df57620002df6200023c565b6020620002f5601f8301601f191682016200027e565b82815285828487010111156200030a57600080fd5b60005b838110156200032a5785810183015182820184015282016200030d565b506000928101909101919091529392505050565b60008060008060008060008789036102808112156200035c57600080fd5b62000367896200020d565b97506200037760208a016200020d565b96506200038760408a016200022a565b60608a01519096506001600160401b0380821115620003a557600080fd5b620003b38c838d01620002b1565b965060808b0151915080821115620003ca57600080fd5b50620003d98b828c01620002b1565b9450506101c0609f1982011215620003f057600080fd5b50620003fb62000252565b6200040960a08a016200020d565b81526200041960c08a016200020d565b60208201526200042c60e08a016200020d565b6040820152620004406101008a016200022a565b606082015261012062000455818b016200022a565b6080830152610140808b015160a0840152610160808c015160c085015261018062000482818e016200020d565b60e08601526101a0808e01516101008701526101c08e0151858701526101e08e0151848701526102008e0151838701526102208e015182870152620004cb6102408f016200022a565b9086015250929450620004e69250505061026089016200020d565b905092959891949750929550565b600181811c908216806200050957607f821691505b6020821081036200052a57634e487b7160e01b600052602260045260246000fd5b50919050565b601f8211156200057e57600081815260208120601f850160051c81016020861015620005595750805b601f850160051c820191505b818110156200057a5782815560010162000565565b5050505b505050565b81516001600160401b038111156200059f576200059f6200023c565b620005b781620005b08454620004f4565b8462000530565b602080601f831160018114620005ef5760008415620005d65750858301515b600019600386901b1c1916600185901b1785556200057a565b600085815260208120601f198616915b828110156200062057888601518255948401946001909101908401620005ff565b50858210156200063f5787850151600019600388901b60f8161c191681555b5050505050600190811b01905550565b80820281158282048414176200067557634e487b7160e01b600052601160045260246000fd5b92915050565b611843806200068b6000396000f3fe608060405234801561001057600080fd5b50600436106102ad5760003560e01c80638119c0651161017b578063a9059cbb116100d8578063d81671bc1161008c578063e823b1da11610071578063e823b1da1461066c578063e8f9d2f91461067e578063ecba89c51461069257600080fd5b8063d81671bc14610621578063dd62ed3e1461063357600080fd5b8063beb9ad5f116100bd578063beb9ad5f146105f7578063c4c22a8414610608578063d59624b41461061957600080fd5b8063a9059cbb146105d3578063be2da873146105e657600080fd5b806395d89b411161012f5780639dc29fac116101145780639dc29fac146105a5578063a26c1aa2146105b8578063a457c2d7146105c057600080fd5b806395d89b411461058a5780639c34712a1461059257600080fd5b80638da5cb5b116101605780638da5cb5b1461055d5780638e589315146105705780638f5949f91461057857600080fd5b80638119c0651461054d5780638903c5a21461055557600080fd5b80633e3ff7b6116102295780634d1d62fa116101dd5780635c25c76c116101c25780635c25c76c14610514578063698518e51461051c57806370a082311461052457600080fd5b80634d1d62fa146104ef578063530c61cf1461050157600080fd5b806342abea791161020e57806342abea79146103ac578063442447ca146104d45780634d16304f146104de57600080fd5b80633e3ff7b61461039157806340c10f191461039957600080fd5b806323b872dd11610280578063313ce56711610265578063313ce5671461035257806338cb8a2514610359578063395093511461037e57600080fd5b806323b872dd1461032b5780632eff0d9e1461033e57600080fd5b806306fdde03146102b2578063095ea7b3146102d057806318160ddd146102f357806322f3e2d414610305575b600080fd5b6102ba6106a5565b6040516102c791906114f8565b60405180910390f35b6102e36102de366004611562565b610737565b60405190151581526020016102c7565b6012545b6040519081526020016102c7565b600f5461031990600160a01b900460ff1681565b60405160ff90911681526020016102c7565b6102e361033936600461158c565b610751565b600f5461031990600160b01b900460ff1681565b6012610319565b600d546001600160a01b03165b6040516001600160a01b0390911681526020016102c7565b6102e361038c366004611562565b610775565b6008546102f7565b6102e36103a7366004611562565b6107b4565b6104c7604080516101c081018252600080825260208201819052918101829052606081018290526080810182905260a0810182905260c0810182905260e08101829052610100810182905261012081018290526101408101829052610160810182905261018081018290526101a081019190915250604080516101c0810182526000546001600160a01b039081168252600154811660208301526002548082169383019390935260ff600160a01b840481166060840152600160a81b9093048316608083015260035460a083015260045460c08301526005541660e0820152600654610100820152600754610120820152600854610140820152600954610160820152600a54610180820152600b549091166101a082015290565b6040516102c791906115c8565b6104dc610881565b005b6005546001600160a01b0316610366565b600f54600160a81b900460ff16610319565b600d54610366906001600160a01b031681565b6004546102f7565b6003546102f7565b6102f76105323660046116b5565b6001600160a01b031660009081526010602052604090205490565b6102e36109a4565b6102f7610d85565b600e54610366906001600160a01b031681565b6007546102f7565b600f54600160a01b900460ff16610319565b6102ba610e11565b600f54610366906001600160a01b031681565b6102e36105b3366004611562565b610e20565b6006546102f7565b6102e36105ce366004611562565b610f8d565b6102e36105e1366004611562565b611037565b6002546001600160a01b0316610366565b600c546001600160a01b0316610366565b6001546001600160a01b0316610366565b6009546102f7565b600f54600160b01b900460ff16610319565b6102f76106413660046116d7565b6001600160a01b03918216600090815260116020908152604080832093909416825291909152205490565b600254600160a01b900460ff16610319565b600f5461031990600160a81b900460ff1681565b600c54610366906001600160a01b031681565b6060601380546106b49061170a565b80601f01602080910402602001604051908101604052809291908181526020018280546106e09061170a565b801561072d5780601f106107025761010080835404028352916020019161072d565b820191906000526020600020905b81548152906001019060200180831161071057829003601f168201915b5050505050905090565b600033610745818585611045565b60019150505b92915050565b60003361075f85828561119d565b61076a85858561122f565b506001949350505050565b3360008181526011602090815260408083206001600160a01b038716845290915281205490919061074590829086906107af90879061175a565b611045565b60006001600160a01b0383166108115760405162461bcd60e51b815260206004820152601f60248201527f45524332303a206d696e7420746f20746865207a65726f20616464726573730060448201526064015b60405180910390fd5b8160126000828254610823919061175a565b90915550506001600160a01b0383166000818152601060209081526040808320805487019055518581527fddf252ad1be2c89b69c2b068fc378daa952ba7f163c4a11628f55a4df523b3ef910160405180910390a350600192915050565b600f546001600160a01b031633146108db5760405162461bcd60e51b815260206004820152601260248201527f4f6e6c792042616e6b20436f6e747261637400000000000000000000000000006044820152606401610808565b600f54600160a01b900460ff166001146109245760405162461bcd60e51b815260206004820152600a6024820152694e6f742041637469766560b01b6044820152606401610808565b600280547fffffffffffffffffffff00ffffffffffffffffffffffffffffffffffffffffff81167502000000000000000000000000000000000000000000179091556001546040516001600160a01b0392831692909116907f1aa6c8c6f9b0ff26b8661bdc3ce83e7caf565c568af549f21922fa9561363cc290600090a3565b600f546000906001600160a01b03163314610a015760405162461bcd60e51b815260206004820152601260248201527f4f6e6c792042616e6b20436f6e747261637400000000000000000000000000006044820152606401610808565b600f54600160a01b900460ff16600114610a4a5760405162461bcd60e51b815260206004820152600a6024820152694e6f742041637469766560b01b6044820152606401610808565b600254600160a81b900460ff16600114610aa65760405162461bcd60e51b815260206004820152601260248201527f4e6f74204578697374206f7220456e64656400000000000000000000000000006044820152606401610808565b600354600454600a54600091610abb9161175a565b6006549091506000610acd848361176d565b90506000610adb848461176d565b90506000806000838503610b315760405162461bcd60e51b815260206004820152600e60248201527f4e6f74696e6720746f20737761700000000000000000000000000000000000006044820152606401610808565b83851115610b6157610b438486611784565b6002546001549194506001600160a01b039081169350169050610b85565b610b6b8585611784565b6001546002549194506001600160a01b0390811693501690505b600f54600160b01b900460ff16610b9d816001611797565b600f80547fffffffffffffffffff00ffffffffffffffffffffffffffffffffffffffffffff16600160b01b60ff93841681029190911791829055600160a81b8204831691049091161115610c335760405162461bcd60e51b815260206004820152600f60248201527f416c6c20737761707320646f6e652100000000000000000000000000000000006044820152606401610808565b600154610c51906001600160a01b0316670de0b6b3a7640000610e20565b50600254610c70906001600160a01b0316670de0b6b3a7640000610e20565b506005546001600160a01b03166323b872dd8385612710610c9989670de0b6b3a764000061176d565b610ca391906117b0565b6040517fffffffff0000000000000000000000000000000000000000000000000000000060e086901b1681526001600160a01b03938416600482015292909116602483015260448201526064016020604051808303816000875af1158015610d0f573d6000803e3d6000fd5b505050506040513d601f19601f82011682018060405250810190610d3391906117d2565b50604080518581526001600160a01b03851660208201527f757e61e0d078d58246a59b2ffe29975dc7053b43aa3a163b3b5b43fc1fb0c147910160405180910390a16001995050505050505050505090565b600f54604080517f79a9456900000000000000000000000000000000000000000000000000000000815290516000926001600160a01b0316916379a945699160048083019260209291908290030181865afa158015610de8573d6000803e3d6000fd5b505050506040513d601f19601f82011682018060405250810190610e0c91906117f4565b905090565b6060601480546106b49061170a565b60006001600160a01b038316610e9e5760405162461bcd60e51b815260206004820152602160248201527f45524332303a206275726e2066726f6d20746865207a65726f2061646472657360448201527f73000000000000000000000000000000000000000000000000000000000000006064820152608401610808565b6001600160a01b03831660009081526010602052604090205482811015610f2d5760405162461bcd60e51b815260206004820152602260248201527f45524332303a206275726e20616d6f756e7420657863656564732062616c616e60448201527f63650000000000000000000000000000000000000000000000000000000000006064820152608401610808565b6001600160a01b03841660008181526010602090815260408083208786039055601280548890039055518681529192917fddf252ad1be2c89b69c2b068fc378daa952ba7f163c4a11628f55a4df523b3ef910160405180910390a3610745565b3360008181526011602090815260408083206001600160a01b03871684529091528120549091908381101561102a5760405162461bcd60e51b815260206004820152602560248201527f45524332303a2064656372656173656420616c6c6f77616e63652062656c6f7760448201527f207a65726f0000000000000000000000000000000000000000000000000000006064820152608401610808565b61076a8286868403611045565b60003361074581858561122f565b6001600160a01b0383166110c05760405162461bcd60e51b8152602060048201526024808201527f45524332303a20617070726f76652066726f6d20746865207a65726f2061646460448201527f72657373000000000000000000000000000000000000000000000000000000006064820152608401610808565b6001600160a01b03821661113c5760405162461bcd60e51b815260206004820152602260248201527f45524332303a20617070726f766520746f20746865207a65726f20616464726560448201527f73730000000000000000000000000000000000000000000000000000000000006064820152608401610808565b6001600160a01b0383811660008181526011602090815260408083209487168084529482529182902085905590518481527f8c5be1e5ebec7d5bd14f71427d1e84f3dd0314c0f7b2291e5b200ac8c7c3b925910160405180910390a3505050565b6001600160a01b038381166000908152601160209081526040808320938616835292905220546000198114611229578181101561121c5760405162461bcd60e51b815260206004820152601d60248201527f45524332303a20696e73756666696369656e7420616c6c6f77616e63650000006044820152606401610808565b6112298484848403611045565b50505050565b6001600160a01b0383166112ab5760405162461bcd60e51b815260206004820152602560248201527f45524332303a207472616e736665722066726f6d20746865207a65726f20616460448201527f64726573730000000000000000000000000000000000000000000000000000006064820152608401610808565b6001600160a01b0382166113275760405162461bcd60e51b815260206004820152602360248201527f45524332303a207472616e7366657220746f20746865207a65726f206164647260448201527f65737300000000000000000000000000000000000000000000000000000000006064820152608401610808565b6001600160a01b038316600090815260106020526040902054818110156113b65760405162461bcd60e51b815260206004820152602660248201527f45524332303a207472616e7366657220616d6f756e742065786365656473206260448201527f616c616e636500000000000000000000000000000000000000000000000000006064820152608401610808565b6001600160a01b03808516600081815260106020526040808220868603905586841682529020805485019055600154909116900361141b576001805473ffffffffffffffffffffffffffffffffffffffff19166001600160a01b0385161790556114a6565b6002546001600160a01b039081169085160361145e576002805473ffffffffffffffffffffffffffffffffffffffff19166001600160a01b0385161790556114a6565b60405162461bcd60e51b815260206004820152601460248201527f696e76616c69642066726f6d20616464726573730000000000000000000000006044820152606401610808565b826001600160a01b0316846001600160a01b03167fddf252ad1be2c89b69c2b068fc378daa952ba7f163c4a11628f55a4df523b3ef846040516114eb91815260200190565b60405180910390a3611229565b600060208083528351808285015260005b8181101561152557858101830151858201604001528201611509565b506000604082860101526040601f19601f8301168501019250505092915050565b80356001600160a01b038116811461155d57600080fd5b919050565b6000806040838503121561157557600080fd5b61157e83611546565b946020939093013593505050565b6000806000606084860312156115a157600080fd5b6115aa84611546565b92506115b860208501611546565b9150604084013590509250925092565b81516001600160a01b031681526101c0810160208301516115f460208401826001600160a01b03169052565b50604083015161160f60408401826001600160a01b03169052565b506060830151611624606084018260ff169052565b506080830151611639608084018260ff169052565b5060a083015160a083015260c083015160c083015260e083015161166860e08401826001600160a01b03169052565b50610100838101519083015261012080840151908301526101408084015190830152610160808401519083015261018080840151908301526101a09283015160ff16929091019190915290565b6000602082840312156116c757600080fd5b6116d082611546565b9392505050565b600080604083850312156116ea57600080fd5b6116f383611546565b915061170160208401611546565b90509250929050565b600181811c9082168061171e57607f821691505b60208210810361173e57634e487b7160e01b600052602260045260246000fd5b50919050565b634e487b7160e01b600052601160045260246000fd5b8082018082111561074b5761074b611744565b808202811582820484141761074b5761074b611744565b8181038181111561074b5761074b611744565b60ff818116838216019081111561074b5761074b611744565b6000826117cd57634e487b7160e01b600052601260045260246000fd5b500490565b6000602082840312156117e457600080fd5b815180151581146116d057600080fd5b60006020828403121561180657600080fd5b505191905056fea26469706673582212206dbe5f14754eeed26019a832d8d820c6f9e57d664c1bae7af5ffe8281b86435c64736f6c63430008130033",
  "linkReferences": {},
  "deployedLinkReferences": {}
}