{
  "_format": "hh-sol-artifact-1",
  "contractName": "ERC7586",
  "sourceName": "contracts/Topos/IRS/ERC7586.sol",
  "abi": [
    {
      "inputs": [
        {
          "internalType": "address",
          "name": "_fixedPayerContract",
          "type": "address"
        },
        {
          "internalType": "address",
          "name": "_floatingPayerContract",
          "type": "address"
        },
        {
          "internalType": "uint8",
          "name": "_numberOfSwaps",
          "type": "uint8"
        },
        {
          "internalType": "string",
          "name": "_irsTokenName",
          "type": "string"
        },
        {
          "internalType": "string",
          "name": "_irsTokenSymbol",
          "type": "string"
        },
        {
          "components": [
            {
              "internalType": "address",
              "name": "irsContract",
              "type": "address"
            },
            {
              "internalType": "address",
              "name": "fixedInterestPayer",
              "type": "address"
            },
            {
              "internalType": "address",
              "name": "floatingInterestPayer",
              "type": "address"
            },
            {
              "internalType": "uint8",
              "name": "ratesDecimals",
              "type": "uint8"
            },
            {
              "internalType": "uint8",
              "name": "status",
              "type": "uint8"
            },
            {
              "internalType": "uint256",
              "name": "swapRate",
              "type": "uint256"
            },
            {
              "internalType": "uint256",
              "name": "spread",
              "type": "uint256"
            },
            {
              "internalType": "address",
              "name": "assetContract",
              "type": "address"
            },
            {
              "internalType": "uint256",
              "name": "notionalAmount",
              "type": "uint256"
            },
            {
              "internalType": "uint256",
              "name": "paymentFrequency",
              "type": "uint256"
            },
            {
              "internalType": "uint256",
              "name": "startingDate",
              "type": "uint256"
            },
            {
              "internalType": "uint256",
              "name": "maturityDate",
              "type": "uint256"
            },
            {
              "internalType": "uint8",
              "name": "index",
              "type": "uint8"
            }
          ],
          "internalType": "struct IRSTypes.IRS",
          "name": "_irs",
          "type": "tuple"
        },
        {
          "internalType": "address",
          "name": "_toposBankContract",
          "type": "address"
        }
      ],
      "stateMutability": "nonpayable",
      "type": "constructor"
    },
    {
      "anonymous": false,
      "inputs": [
        {
          "indexed": true,
          "internalType": "address",
          "name": "owner",
          "type": "address"
        },
        {
          "indexed": true,
          "internalType": "address",
          "name": "spender",
          "type": "address"
        },
        {
          "indexed": false,
          "internalType": "uint256",
          "name": "value",
          "type": "uint256"
        }
      ],
      "name": "Approval",
      "type": "event"
    },
    {
      "anonymous": false,
      "inputs": [
        {
          "indexed": false,
          "internalType": "uint256",
          "name": "oldBenchmark",
          "type": "uint256"
        },
        {
          "indexed": false,
          "internalType": "uint256",
          "name": "newBenchmark",
          "type": "uint256"
        }
      ],
      "name": "SetBenchmark",
      "type": "event"
    },
    {
      "anonymous": false,
      "inputs": [
        {
          "indexed": false,
          "internalType": "uint256",
          "name": "_amount",
          "type": "uint256"
        },
        {
          "indexed": false,
          "internalType": "address",
          "name": "_account",
          "type": "address"
        }
      ],
      "name": "Swap",
      "type": "event"
    },
    {
      "anonymous": false,
      "inputs": [
        {
          "indexed": true,
          "internalType": "address",
          "name": "_payer",
          "type": "address"
        },
        {
          "indexed": true,
          "internalType": "address",
          "name": "_receiver",
          "type": "address"
        }
      ],
      "name": "TerminateSwap",
      "type": "event"
    },
    {
      "anonymous": false,
      "inputs": [
        {
          "indexed": true,
          "internalType": "address",
          "name": "from",
          "type": "address"
        },
        {
          "indexed": true,
          "internalType": "address",
          "name": "to",
          "type": "address"
        },
        {
          "indexed": false,
          "internalType": "uint256",
          "name": "value",
          "type": "uint256"
        }
      ],
      "name": "Transfer",
      "type": "event"
    },
    {
      "inputs": [
        {
          "internalType": "address",
          "name": "owner",
          "type": "address"
        },
        {
          "internalType": "address",
          "name": "spender",
          "type": "address"
        }
      ],
      "name": "allowance",
      "outputs": [
        {
          "internalType": "uint256",
          "name": "",
          "type": "uint256"
        }
      ],
      "stateMutability": "view",
      "type": "function"
    },
    {
      "inputs": [
        {
          "internalType": "address",
          "name": "spender",
          "type": "address"
        },
        {
          "internalType": "uint256",
          "name": "amount",
          "type": "uint256"
        }
      ],
      "name": "approve",
      "outputs": [
        {
          "internalType": "bool",
          "name": "",
          "type": "bool"
        }
      ],
      "stateMutability": "nonpayable",
      "type": "function"
    },
    {
      "inputs": [],
      "name": "assetContract",
      "outputs": [
        {
          "internalType": "address",
          "name": "",
          "type": "address"
        }
      ],
      "stateMutability": "view",
      "type": "function"
    },
    {
      "inputs": [
        {
          "internalType": "address",
          "name": "account",
          "type": "address"
        }
      ],
      "name": "balanceOf",
      "outputs": [
        {
          "internalType": "uint256",
          "name": "",
          "type": "uint256"
        }
      ],
      "stateMutability": "view",
      "type": "function"
    },
    {
      "inputs": [],
      "name": "benchmark",
      "outputs": [
        {
          "internalType": "uint256",
          "name": "",
          "type": "uint256"
        }
      ],
      "stateMutability": "view",
      "type": "function"
    },
    {
      "inputs": [
        {
          "internalType": "address",
          "name": "account",
          "type": "address"
        },
        {
          "internalType": "uint256",
          "name": "amount",
          "type": "uint256"
        }
      ],
      "name": "burn",
      "outputs": [
        {
          "internalType": "bool",
          "name": "",
          "type": "bool"
        }
      ],
      "stateMutability": "nonpayable",
      "type": "function"
    },
    {
      "inputs": [],
      "name": "decimals",
      "outputs": [
        {
          "internalType": "uint8",
          "name": "",
          "type": "uint8"
        }
      ],
      "stateMutability": "view",
      "type": "function"
    },
    {
      "inputs": [
        {
          "internalType": "address",
          "name": "spender",
          "type": "address"
        },
        {
          "internalType": "uint256",
          "name": "subtractedValue",
          "type": "uint256"
        }
      ],
      "name": "decreaseAllowance",
      "outputs": [
        {
          "internalType": "bool",
          "name": "",
          "type": "bool"
        }
      ],
      "stateMutability": "nonpayable",
      "type": "function"
    },
    {
      "inputs": [],
      "name": "fixedInterestPayer",
      "outputs": [
        {
          "internalType": "address",
          "name": "",
          "type": "address"
        }
      ],
      "stateMutability": "view",
      "type": "function"
    },
    {
      "inputs": [],
      "name": "fixedPayerContract",
      "outputs": [
        {
          "internalType": "address",
          "name": "",
          "type": "address"
        }
      ],
      "stateMutability": "view",
      "type": "function"
    },
    {
      "inputs": [],
      "name": "floatingInterestPayer",
      "outputs": [
        {
          "internalType": "address",
          "name": "",
          "type": "address"
        }
      ],
      "stateMutability": "view",
      "type": "function"
    },
    {
      "inputs": [],
      "name": "floatingPayerContract",
      "outputs": [
        {
          "internalType": "address",
          "name": "",
          "type": "address"
        }
      ],
      "stateMutability": "view",
      "type": "function"
    },
    {
      "inputs": [],
      "name": "getFixedPayerContract",
      "outputs": [
        {
          "internalType": "address",
          "name": "",
          "type": "address"
        }
      ],
      "stateMutability": "view",
      "type": "function"
    },
    {
      "inputs": [],
      "name": "getFloatingPayerContract",
      "outputs": [
        {
          "internalType": "address",
          "name": "",
          "type": "address"
        }
      ],
      "stateMutability": "view",
      "type": "function"
    },
    {
      "inputs": [],
      "name": "getIRSReceipt",
      "outputs": [
        {
          "components": [
            {
              "internalType": "address",
              "name": "from",
              "type": "address"
            },
            {
              "internalType": "address",
              "name": "to",
              "type": "address"
            },
            {
              "internalType": "address",
              "name": "currency",
              "type": "address"
            },
            {
              "internalType": "uint256",
              "name": "amount",
              "type": "uint256"
            }
          ],
          "internalType": "struct IRSTypes.IRSReceipt[]",
          "name": "",
          "type": "tuple[]"
        }
      ],
      "stateMutability": "view",
      "type": "function"
    },
    {
      "inputs": [],
      "name": "getNumberOfSwaps",
      "outputs": [
        {
          "internalType": "uint8",
          "name": "",
          "type": "uint8"
        }
      ],
      "stateMutability": "view",
      "type": "function"
    },
    {
      "inputs": [],
      "name": "getSwapCount",
      "outputs": [
        {
          "internalType": "uint8",
          "name": "",
          "type": "uint8"
        }
      ],
      "stateMutability": "view",
      "type": "function"
    },
    {
      "inputs": [
        {
          "internalType": "address",
          "name": "spender",
          "type": "address"
        },
        {
          "internalType": "uint256",
          "name": "addedValue",
          "type": "uint256"
        }
      ],
      "name": "increaseAllowance",
      "outputs": [
        {
          "internalType": "bool",
          "name": "",
          "type": "bool"
        }
      ],
      "stateMutability": "nonpayable",
      "type": "function"
    },
    {
      "inputs": [],
      "name": "irsInfo",
      "outputs": [
        {
          "components": [
            {
              "internalType": "address",
              "name": "irsContract",
              "type": "address"
            },
            {
              "internalType": "address",
              "name": "fixedInterestPayer",
              "type": "address"
            },
            {
              "internalType": "address",
              "name": "floatingInterestPayer",
              "type": "address"
            },
            {
              "internalType": "uint8",
              "name": "ratesDecimals",
              "type": "uint8"
            },
            {
              "internalType": "uint8",
              "name": "status",
              "type": "uint8"
            },
            {
              "internalType": "uint256",
              "name": "swapRate",
              "type": "uint256"
            },
            {
              "internalType": "uint256",
              "name": "spread",
              "type": "uint256"
            },
            {
              "internalType": "address",
              "name": "assetContract",
              "type": "address"
            },
            {
              "internalType": "uint256",
              "name": "notionalAmount",
              "type": "uint256"
            },
            {
              "internalType": "uint256",
              "name": "paymentFrequency",
              "type": "uint256"
            },
            {
              "internalType": "uint256",
              "name": "startingDate",
              "type": "uint256"
            },
            {
              "internalType": "uint256",
              "name": "maturityDate",
              "type": "uint256"
            },
            {
              "internalType": "uint8",
              "name": "index",
              "type": "uint8"
            }
          ],
          "internalType": "struct IRSTypes.IRS",
          "name": "",
          "type": "tuple"
        }
      ],
      "stateMutability": "view",
      "type": "function"
    },
    {
      "inputs": [],
      "name": "isActive",
      "outputs": [
        {
          "internalType": "uint8",
          "name": "",
          "type": "uint8"
        }
      ],
      "stateMutability": "view",
      "type": "function"
    },
    {
      "inputs": [],
      "name": "isContractActive",
      "outputs": [
        {
          "internalType": "uint8",
          "name": "",
          "type": "uint8"
        }
      ],
      "stateMutability": "view",
      "type": "function"
    },
    {
      "inputs": [],
      "name": "maturityDate",
      "outputs": [
        {
          "internalType": "uint256",
          "name": "",
          "type": "uint256"
        }
      ],
      "stateMutability": "view",
      "type": "function"
    },
    {
      "inputs": [
        {
          "internalType": "address",
          "name": "account",
          "type": "address"
        },
        {
          "internalType": "uint256",
          "name": "amount",
          "type": "uint256"
        }
      ],
      "name": "mint",
      "outputs": [
        {
          "internalType": "bool",
          "name": "",
          "type": "bool"
        }
      ],
      "stateMutability": "nonpayable",
      "type": "function"
    },
    {
      "inputs": [],
      "name": "name",
      "outputs": [
        {
          "internalType": "string",
          "name": "",
          "type": "string"
        }
      ],
      "stateMutability": "view",
      "type": "function"
    },
    {
      "inputs": [],
      "name": "notionalAmount",
      "outputs": [
        {
          "internalType": "uint256",
          "name": "",
          "type": "uint256"
        }
      ],
      "stateMutability": "view",
      "type": "function"
    },
    {
      "inputs": [],
      "name": "numberOfSwaps",
      "outputs": [
        {
          "internalType": "uint8",
          "name": "",
          "type": "uint8"
        }
      ],
      "stateMutability": "view",
      "type": "function"
    },
    {
      "inputs": [],
      "name": "owner",
      "outputs": [
        {
          "internalType": "address",
          "name": "",
          "type": "address"
        }
      ],
      "stateMutability": "view",
      "type": "function"
    },
    {
      "inputs": [],
      "name": "paymentFrequency",
      "outputs": [
        {
          "internalType": "uint256",
          "name": "",
          "type": "uint256"
        }
      ],
      "stateMutability": "view",
      "type": "function"
    },
    {
      "inputs": [],
      "name": "ratesDecimals",
      "outputs": [
        {
          "internalType": "uint8",
          "name": "",
          "type": "uint8"
        }
      ],
      "stateMutability": "view",
      "type": "function"
    },
    {
      "inputs": [],
      "name": "spread",
      "outputs": [
        {
          "internalType": "uint256",
          "name": "",
          "type": "uint256"
        }
      ],
      "stateMutability": "view",
      "type": "function"
    },
    {
      "inputs": [],
      "name": "startingDate",
      "outputs": [
        {
          "internalType": "uint256",
          "name": "",
          "type": "uint256"
        }
      ],
      "stateMutability": "view",
      "type": "function"
    },
    {
      "inputs": [],
      "name": "swap",
      "outputs": [
        {
          "internalType": "bool",
          "name": "",
          "type": "bool"
        }
      ],
      "stateMutability": "nonpayable",
      "type": "function"
    },
    {
      "inputs": [],
      "name": "swapCount",
      "outputs": [
        {
          "internalType": "uint8",
          "name": "",
          "type": "uint8"
        }
      ],
      "stateMutability": "view",
      "type": "function"
    },
    {
      "inputs": [],
      "name": "swapRate",
      "outputs": [
        {
          "internalType": "uint256",
          "name": "",
          "type": "uint256"
        }
      ],
      "stateMutability": "view",
      "type": "function"
    },
    {
      "inputs": [],
      "name": "symbol",
      "outputs": [
        {
          "internalType": "string",
          "name": "",
          "type": "string"
        }
      ],
      "stateMutability": "view",
      "type": "function"
    },
    {
      "inputs": [],
      "name": "terminateSwap",
      "outputs": [],
      "stateMutability": "nonpayable",
      "type": "function"
    },
    {
      "inputs": [],
      "name": "toposBankContract",
      "outputs": [
        {
          "internalType": "address",
          "name": "",
          "type": "address"
        }
      ],
      "stateMutability": "view",
      "type": "function"
    },
    {
      "inputs": [],
      "name": "totalSupply",
      "outputs": [
        {
          "internalType": "uint256",
          "name": "",
          "type": "uint256"
        }
      ],
      "stateMutability": "view",
      "type": "function"
    },
    {
      "inputs": [
        {
          "internalType": "address",
          "name": "to",
          "type": "address"
        },
        {
          "internalType": "uint256",
          "name": "amount",
          "type": "uint256"
        }
      ],
      "name": "transfer",
      "outputs": [
        {
          "internalType": "bool",
          "name": "",
          "type": "bool"
        }
      ],
      "stateMutability": "nonpayable",
      "type": "function"
    },
    {
      "inputs": [
        {
          "internalType": "address",
          "name": "from",
          "type": "address"
        },
        {
          "internalType": "address",
          "name": "to",
          "type": "address"
        },
        {
          "internalType": "uint256",
          "name": "amount",
          "type": "uint256"
        }
      ],
      "name": "transferFrom",
      "outputs": [
        {
          "internalType": "bool",
          "name": "",
          "type": "bool"
        }
      ],
      "stateMutability": "nonpayable",
      "type": "function"
    }
  ],
  "bytecode": "0x60806040523462000664576200219b803803806200001d8162000669565b928339810190808203610260811262000664576200003b826200068f565b926200004a602084016200068f565b926200005960408201620006a4565b60608201519093906001600160401b0381116200066457836200007e918401620006b3565b60808301519093906001600160401b03811162000664576101a091620000a6918501620006b3565b91609f1901126200066457604051946101a086016001600160401b038111878210176200055857604052620000de60a084016200068f565b8652620000ee60c084016200068f565b60208701526200010160e084016200068f565b6040870152620001156101008401620006a4565b6060870152620001296101208401620006a4565b6080870152610140968784015160a0880152610160928385015160c0890152620001ab61024061018096620001608882016200068f565b60e08c01526101a08101516101008c01526101c08101516101208c01526101e08101518c8c0152610200810151878c0152620001a06102208201620006a4565b888c0152016200068f565b865190966001600160401b038211620005585760135490600182811c9216801562000659575b6020831014620005375781601f849311620005f8575b50602090601f83116001146200057a576000926200056e575b50508160011b916000199060031b1c1916176013555b8051906001600160401b0382116200055857601454600181811c911680156200054d575b60208210146200053757601f8111620004d1575b50602090601f831160011462000454579360ff999a95919383608098948c968e9860009262000448575b50508160011b916000199060031b1c1916176014555b600b80546001600160a01b03199081166001600160a01b0393841617909155600c8054821693831693909317909255600e80548751600080548616918516919091179055602088015160018054861691851691909117905560408801516002805460608b01519c909a01516001600160b01b03199a8b16928616929092179b891660a090811b9c909c1791891660a890811b929092179055998e015160035560c08e015160045560e08e01516005805486169185169190911790556101008e01516006556101208e0151600755978d0151600855928c0151600955928b0151600a80548c1916918616919091179055600d8054909116331790559290931690861690931b92909217921691909117600160a01b179055670de0b6b3a764000091168181029291811582850490911417156200043257671bc16d674ec800009160018060a01b03602082015116600052601060205283604060002055604060018060a01b03910151166000528260406000205502908160011c0362000432576012556002805460ff60a81b1916600160a81b179055604051611a559081620007268239f35b634e487b7160e01b600052601160045260246000fd5b01519050388062000278565b90601460005260206000209160005b601f1985168110620004b85750936001848c9d989460ff9d98948e9860809c98601f198116106200049e575b505050811b016014556200028e565b015160001960f88460031b161c191690553880806200048f565b9192602060018192868501518155019401920162000463565b60146000527fce6d7b5282bd9a3661ae061feed1dbda4e52ab073b1f9285be6e155d9c38d4ec601f840160051c8101602085106200052f575b601f830160051c82018110620005225750506200024e565b600081556001016200050a565b50806200050a565b634e487b7160e01b600052602260045260246000fd5b90607f16906200023a565b634e487b7160e01b600052604160045260246000fd5b01519050388062000200565b6013600090815293506000805160206200217b83398151915291905b601f1984168510620005dc576001945083601f19811610620005c2575b505050811b0160135562000216565b015160001960f88460031b161c19169055388080620005b3565b8181015183556020948501946001909301929091019062000596565b60136000529091506000805160206200217b833981519152601f840160051c81016020851062000651575b90849392915b601f830160051c8201811062000641575050620001e7565b6000815585945060010162000629565b508062000623565b91607f1691620001d1565b600080fd5b6040519190601f01601f191682016001600160401b038111838210176200055857604052565b51906001600160a01b03821682036200066457565b519060ff821682036200066457565b919080601f84011215620006645782516001600160401b0381116200055857602090620006e9601f8201601f1916830162000669565b92818452828287010111620006645760005b8181106200071157508260009394955001015290565b8581018301518482018401528201620006fb56fe608080604052600436101561001357600080fd5b600090813560e01c90816306fdde031461125157508063095ea7b31461122a57806318160ddd1461120c57806322f3e2d4146106e057806323b872dd14611152578063299421d41461100b5780632eff0d9e14610295578063313ce56714610fef57806338cb8a2514610c035780633950935114610f9e5780633e3ff7b614610f8057806340c10f1914610eb957806342abea7914610cfd578063442447ca14610c515780634d16304f14610c2a5780634d1d62fa14610202578063530c61cf14610c035780635c25c76c14610be5578063698518e514610bc757806370a0823114610b8f5780638119c065146107da5780638903c5a2146107495780638da5cb5b146107225780638e589315146107045780638f5949f9146106e057806395d89b41146105de5780639c34712a146105b75780639dc29fac14610456578063a26c1aa214610438578063a457c2d71461037e578063a9059cbb1461034c578063be2da87314610325578063beb9ad5f146102fe578063c4c22a84146102d7578063d59624b4146102b9578063d81671bc14610295578063dd62ed3e1461024a578063e823b1da14610226578063e8f9d2f9146102025763ecba89c5146101d957600080fd5b346101ff57806003193601126101ff5760206001600160a01b03600b5416604051908152f35b80fd5b50346101ff57806003193601126101ff57602060ff600e5460a81c16604051908152f35b50346101ff57806003193601126101ff57602060ff60025460a01c16604051908152f35b50346101ff5760403660031901126101ff576040602091610269611353565b61027161136e565b6001600160a01b039182168352601185528383209116825283522054604051908152f35b50346101ff57806003193601126101ff57602060ff600e5460b01c16604051908152f35b50346101ff57806003193601126101ff576020600954604051908152f35b50346101ff57806003193601126101ff5760206001600160a01b0360015416604051908152f35b50346101ff57806003193601126101ff5760206001600160a01b03600b5416604051908152f35b50346101ff57806003193601126101ff5760206001600160a01b0360025416604051908152f35b50346101ff5760403660031901126101ff57610373610369611353565b60243590336115ec565b602060405160018152f35b50346101ff5760403660031901126101ff57610398611353565b60406024359233815260116020528181206001600160a01b03841682526020522054918083106103ce57610373920390336118eb565b608460405162461bcd60e51b815260206004820152602560248201527f45524332303a2064656372656173656420616c6c6f77616e63652062656c6f7760448201527f207a65726f0000000000000000000000000000000000000000000000000000006064820152fd5b50346101ff57806003193601126101ff576020600654604051908152f35b50346101ff5760403660031901126101ff57610470611353565b6001600160a01b0316602435811561054d57818352601060205260408320548181106104e357817fddf252ad1be2c89b69c2b068fc378daa952ba7f163c4a11628f55a4df523b3ef92602092858752601084520360408620558060125403601255604051908152a3602060405160018152f35b608460405162461bcd60e51b815260206004820152602260248201527f45524332303a206275726e20616d6f756e7420657863656564732062616c616e60448201527f63650000000000000000000000000000000000000000000000000000000000006064820152fd5b608460405162461bcd60e51b815260206004820152602160248201527f45524332303a206275726e2066726f6d20746865207a65726f2061646472657360448201527f73000000000000000000000000000000000000000000000000000000000000006064820152fd5b50346101ff57806003193601126101ff5760206001600160a01b03600e5416604051908152f35b50346101ff57806003193601126101ff576040518160145490600182811c918184169384156106d6575b60209485851081146106c2578487529081156106a05750600114610647575b61064385610637818903826113d3565b6040519182918261130a565b0390f35b929450601483527fce6d7b5282bd9a3661ae061feed1dbda4e52ab073b1f9285be6e155d9c38d4ec5b82841061068d575050508161064393610637928201019338610627565b8054858501870152928501928101610670565b60ff191686860152505050151560051b82010191506106378161064338610627565b602483634e487b7160e01b81526022600452fd5b92607f1692610608565b50346101ff57806003193601126101ff57602060ff600e5460a01c16604051908152f35b50346101ff57806003193601126101ff576020600754604051908152f35b50346101ff57806003193601126101ff5760206001600160a01b03600d5416604051908152f35b50346101ff57806003193601126101ff57600460206001600160a01b03600e5416604051928380926379a9456960e01b82525afa9081156107cf578291610796575b602082604051908152f35b90506020813d82116107c7575b816107b0602093836113d3565b810103126107c35760209150513861078b565b5080fd5b3d91506107a3565b6040513d84823e3d90fd5b50346101ff57806003193601126101ff57600e54906001600160a01b03808316926108068433146113f5565b60019261081b8460ff809460a01c1614611440565b60025484838260a81c1603610b4b5760035460405180976379a9456960e01b825281600460209a8b935afa908115610b40578491610b0d575b50610865610878916004549061148b565b61087260065493846114ae565b926114ae565b908082036108c4576064886040519062461bcd60e51b82526004820152600e60248201527f4e6f74696e6720746f20737761700000000000000000000000000000000000006044820152fd5b81811115610ae1576108d692506114c1565b92806002541690808654169361090f8260055416604051906108f782611384565b878252858b83015260408201528760608201526114ce565b600e5487828260b01c1601828111610acd5776ff000000000000000000000000000000000000000000007fffffffffffffffffff00ffffffffffffffffffffffffffffffffffffffffffff9160b01b169116179081600e55808260a81c169160b01c1611610a895761098381875416611869565b506109918160025416611869565b50806005541693670de0b6b3a764000094858702958787041487151715610a75578291856064926127108c9660405198899788967f23b872dd00000000000000000000000000000000000000000000000000000000885216600487015216998a60248601520460448401525af180156107cf57610a42575b50507f757e61e0d078d58246a59b2ffe29975dc7053b43aa3a163b3b5b43fc1fb0c14791604091825191825285820152a1604051908152f35b8581813d8311610a6e575b610a5781836113d3565b810103126107c35751801515036101ff5780610a09565b503d610a4d565b602485634e487b7160e01b81526011600452fd5b6064876040519062461bcd60e51b82526004820152600f60248201527f416c6c20737761707320646f6e652100000000000000000000000000000000006044820152fd5b602486634e487b7160e01b81526011600452fd5b610aea916114c1565b938080875416921693610b088260055416604051906108f782611384565b61090f565b90508781813d8311610b39575b610b2481836113d3565b81010312610b355751610865610854565b8380fd5b503d610b1a565b6040513d86823e3d90fd5b606460405162461bcd60e51b815260206004820152601260248201527f4e6f74204578697374206f7220456e64656400000000000000000000000000006044820152fd5b50346101ff5760203660031901126101ff5760406020916001600160a01b03610bb6611353565b168152601083522054604051908152f35b50346101ff57806003193601126101ff576020600354604051908152f35b50346101ff57806003193601126101ff576020600454604051908152f35b50346101ff57806003193601126101ff5760206001600160a01b03600c5416604051908152f35b50346101ff57806003193601126101ff5760206001600160a01b0360055416604051908152f35b50346101ff57806003193601126101ff57600e54610c8c600160ff6001600160a01b0393610c8285821633146113f5565b60a01c1614611440565b6002549075020000000000000000000000000000000000000000007fffffffffffffffffffff00ffffffffffffffffffffffffffffffffffffffffff83161760025580600154169116907f1aa6c8c6f9b0ff26b8661bdc3ce83e7caf565c568af549f21922fa9561363cc28380a380f35b50346101ff57806003193601126101ff57806101a091610180604051610d22816113b6565b8281528260208201528260408201528260608201528260808201528260a08201528260c08201528260e082015282610100820152826101208201528261014082015282610160820152015260ff6101806001600160a01b0360405193610d87856113b6565b5416928381526001600160a01b03600154166020820152826002546001600160a01b0381166040840152818160a01c16606084015260a81c16608082015260035460a082015260045460c08201526001600160a01b036005541660e082015260065461010082015260075461012082015260085461014082015260095461016082015282600a5416828201526040519384526001600160a01b0360208201511660208501526001600160a01b03604082015116604085015282606082015116606085015282608082015116608085015260a081015160a085015260c081015160c08501526001600160a01b0360e08201511660e0850152610100810151610100850152610120810151610120850152610140810151610140850152610160810151610160850152015116610180820152f35b50346101ff5760403660031901126101ff57610ed3611353565b6001600160a01b0316906024358215610f3c57602081610f167fddf252ad1be2c89b69c2b068fc378daa952ba7f163c4a11628f55a4df523b3ef9360125461148b565b6012558484526010825260408420818154019055604051908152a3602060405160018152f35b606460405162461bcd60e51b815260206004820152601f60248201527f45524332303a206d696e7420746f20746865207a65726f2061646472657373006044820152fd5b50346101ff57806003193601126101ff576020600854604051908152f35b50346101ff5760403660031901126101ff5761037390610fe8610fbf611353565b913381526011602052604081206001600160a01b0384168252602052604060243591205461148b565b90336118eb565b50346101ff57806003193601126101ff57602060405160128152f35b50346101ff57806003193601126101ff57600f549067ffffffffffffffff821161113e579060405190602091611046838360051b01826113d3565b818152600f845282810191847f8d1108e10bcb7c27dddfc02ed9d693a074039d026cf4ea4240b40f7d581ac802845b8383106110e757505050506040519280840191818552518092526040840192945b8281106110a35784840385f35b855180516001600160a01b03908116865281840151811686850152604080830151909116908601526060908101519085015294810194608090930192600101611096565b60048760019260409a9997989a516110fe81611384565b6001600160a01b03808754168252808688015416848301526002870154166040820152600386015460608201528152019201920191909694939596611075565b80634e487b7160e01b602492526041600452fd5b50346101ff5760603660031901126101ff5761116c611353565b9061117561136e565b6040604435926001600160a01b0385168152601160205281812033825260205220549260001984036111ac575b61037393506115ec565b8284106111c8576111c383610373950333836118eb565b6111a2565b606460405162461bcd60e51b815260206004820152601d60248201527f45524332303a20696e73756666696369656e7420616c6c6f77616e63650000006044820152fd5b50346101ff57806003193601126101ff576020601254604051908152f35b50346101ff5760403660031901126101ff57610373611247611353565b60243590336118eb565b9050346107c357816003193601126107c3578160135490600182811c91818416938415611300575b60209485851081146106c2578487529081156106a057506001146112a75761064385610637818903826113d3565b929450601383527f66de8ffda797e3de9c05e8fc57b3bf0ec28a930d40b0d285d93c06501cf6a0905b8284106112ed575050508161064393610637928201019338610627565b80548585018701529285019281016112d0565b92607f1692611279565b6020808252825181830181905290939260005b82811061133f57505060409293506000838284010152601f8019910116010190565b81810186015184820160400152850161131d565b600435906001600160a01b038216820361136957565b600080fd5b602435906001600160a01b038216820361136957565b6080810190811067ffffffffffffffff8211176113a057604052565b634e487b7160e01b600052604160045260246000fd5b6101a0810190811067ffffffffffffffff8211176113a057604052565b90601f8019910116810190811067ffffffffffffffff8211176113a057604052565b156113fc57565b606460405162461bcd60e51b815260206004820152601260248201527f4f6e6c792042616e6b20436f6e747261637400000000000000000000000000006044820152fd5b1561144757565b606460405162461bcd60e51b815260206004820152600a60248201527f4e6f7420416374697665000000000000000000000000000000000000000000006044820152fd5b9190820180921161149857565b634e487b7160e01b600052601160045260246000fd5b8181029291811591840414171561149857565b9190820391821161149857565b600f54680100000000000000008110156113a0576001810180600f558110156115d65760607f8d1108e10bcb7c27dddfc02ed9d693a074039d026cf4ea4240b40f7d581ac80591600f60005260021b92837f8d1108e10bcb7c27dddfc02ed9d693a074039d026cf4ea4240b40f7d581ac802016001600160a01b0390818351169073ffffffffffffffffffffffffffffffffffffffff1991828254161790557f8d1108e10bcb7c27dddfc02ed9d693a074039d026cf4ea4240b40f7d581ac803860182602085015116828254161790557f8d1108e10bcb7c27dddfc02ed9d693a074039d026cf4ea4240b40f7d581ac804860191604084015116908254161790550151910155565b634e487b7160e01b600052603260045260246000fd5b916001600160a01b038093169182156117ff5783169283156117955760009083825260106020526040918281205484811061172c579084849287835260106020520382822055868152208381540190558060015416841460001461169757507fddf252ad1be2c89b69c2b068fc378daa952ba7f163c4a11628f55a4df523b3ef916020918573ffffffffffffffffffffffffffffffffffffffff1960015416176001555b51908152a3565b60025490811684036116e95773ffffffffffffffffffffffffffffffffffffffff191684176002557fddf252ad1be2c89b69c2b068fc378daa952ba7f163c4a11628f55a4df523b3ef91602091611690565b6064825162461bcd60e51b815260206004820152601460248201527f696e76616c69642066726f6d20616464726573730000000000000000000000006044820152fd5b6084845162461bcd60e51b815260206004820152602660248201527f45524332303a207472616e7366657220616d6f756e742065786365656473206260448201527f616c616e636500000000000000000000000000000000000000000000000000006064820152fd5b608460405162461bcd60e51b815260206004820152602360248201527f45524332303a207472616e7366657220746f20746865207a65726f206164647260448201527f65737300000000000000000000000000000000000000000000000000000000006064820152fd5b608460405162461bcd60e51b815260206004820152602560248201527f45524332303a207472616e736665722066726f6d20746865207a65726f20616460448201527f64726573730000000000000000000000000000000000000000000000000000006064820152fd5b6001600160a01b0316801561054d5780600052601060205260406000205490670de0b6b3a76400008083106104e35760207fddf252ad1be2c89b69c2b068fc378daa952ba7f163c4a11628f55a4df523b3ef9160009484865260108352670de0b6b3a763ffff19809101604087205560125401601255604051908152a3600190565b6001600160a01b038091169182156119b6571691821561194c5760207f8c5be1e5ebec7d5bd14f71427d1e84f3dd0314c0f7b2291e5b200ac8c7c3b925918360005260118252604060002085600052825280604060002055604051908152a3565b608460405162461bcd60e51b815260206004820152602260248201527f45524332303a20617070726f766520746f20746865207a65726f20616464726560448201527f73730000000000000000000000000000000000000000000000000000000000006064820152fd5b608460405162461bcd60e51b8152602060048201526024808201527f45524332303a20617070726f76652066726f6d20746865207a65726f2061646460448201527f72657373000000000000000000000000000000000000000000000000000000006064820152fdfea26469706673582212208f6ee87dbdbca48831e6c90b0391c367549c3f4d26ef457171ee2eacb175bce264736f6c6343000813003366de8ffda797e3de9c05e8fc57b3bf0ec28a930d40b0d285d93c06501cf6a090",
  "linkReferences": {},
  "deployedLinkReferences": {}
}