{
  "_format": "hh-sol-artifact-1",
  "contractName": "ERC7586",
  "sourceName": "contracts/Topos/IRS/ERC7586.sol",
  "abi": [
    {
      "inputs": [
        {
          "internalType": "address",
          "name": "_fixedPayerContract",
          "type": "address"
        },
        {
          "internalType": "address",
          "name": "_floatingPayerContract",
          "type": "address"
        },
        {
          "internalType": "uint8",
          "name": "_numberOfSwaps",
          "type": "uint8"
        },
        {
          "internalType": "string",
          "name": "_irsTokenName",
          "type": "string"
        },
        {
          "internalType": "string",
          "name": "_irsTokenSymbol",
          "type": "string"
        },
        {
          "components": [
            {
              "internalType": "address",
              "name": "irsContract",
              "type": "address"
            },
            {
              "internalType": "address",
              "name": "fixedInterestPayer",
              "type": "address"
            },
            {
              "internalType": "address",
              "name": "floatingInterestPayer",
              "type": "address"
            },
            {
              "internalType": "uint8",
              "name": "ratesDecimals",
              "type": "uint8"
            },
            {
              "internalType": "uint8",
              "name": "status",
              "type": "uint8"
            },
            {
              "internalType": "uint256",
              "name": "swapRate",
              "type": "uint256"
            },
            {
              "internalType": "uint256",
              "name": "spread",
              "type": "uint256"
            },
            {
              "internalType": "address",
              "name": "assetContract",
              "type": "address"
            },
            {
              "internalType": "uint256",
              "name": "notionalAmount",
              "type": "uint256"
            },
            {
              "internalType": "uint256",
              "name": "paymentFrequency",
              "type": "uint256"
            },
            {
              "internalType": "uint256",
              "name": "startingDate",
              "type": "uint256"
            },
            {
              "internalType": "uint256",
              "name": "maturityDate",
              "type": "uint256"
            },
            {
              "internalType": "uint256",
              "name": "benchmark",
              "type": "uint256"
            },
            {
              "internalType": "uint8",
              "name": "index",
              "type": "uint8"
            }
          ],
          "internalType": "struct IRSTypes.IRS",
          "name": "_irs",
          "type": "tuple"
        },
        {
          "internalType": "address",
          "name": "_toposBankContract",
          "type": "address"
        }
      ],
      "stateMutability": "nonpayable",
      "type": "constructor"
    },
    {
      "anonymous": false,
      "inputs": [
        {
          "indexed": true,
          "internalType": "address",
          "name": "owner",
          "type": "address"
        },
        {
          "indexed": true,
          "internalType": "address",
          "name": "spender",
          "type": "address"
        },
        {
          "indexed": false,
          "internalType": "uint256",
          "name": "value",
          "type": "uint256"
        }
      ],
      "name": "Approval",
      "type": "event"
    },
    {
      "anonymous": false,
      "inputs": [
        {
          "indexed": false,
          "internalType": "uint256",
          "name": "oldBenchmark",
          "type": "uint256"
        },
        {
          "indexed": false,
          "internalType": "uint256",
          "name": "newBenchmark",
          "type": "uint256"
        }
      ],
      "name": "SetBenchmark",
      "type": "event"
    },
    {
      "anonymous": false,
      "inputs": [
        {
          "indexed": false,
          "internalType": "uint256",
          "name": "_amount",
          "type": "uint256"
        },
        {
          "indexed": false,
          "internalType": "address",
          "name": "_account",
          "type": "address"
        }
      ],
      "name": "Swap",
      "type": "event"
    },
    {
      "anonymous": false,
      "inputs": [
        {
          "indexed": true,
          "internalType": "address",
          "name": "_payer",
          "type": "address"
        },
        {
          "indexed": true,
          "internalType": "address",
          "name": "_receiver",
          "type": "address"
        }
      ],
      "name": "TerminateSwap",
      "type": "event"
    },
    {
      "anonymous": false,
      "inputs": [
        {
          "indexed": true,
          "internalType": "address",
          "name": "from",
          "type": "address"
        },
        {
          "indexed": true,
          "internalType": "address",
          "name": "to",
          "type": "address"
        },
        {
          "indexed": false,
          "internalType": "uint256",
          "name": "value",
          "type": "uint256"
        }
      ],
      "name": "Transfer",
      "type": "event"
    },
    {
      "inputs": [
        {
          "internalType": "address",
          "name": "owner",
          "type": "address"
        },
        {
          "internalType": "address",
          "name": "spender",
          "type": "address"
        }
      ],
      "name": "allowance",
      "outputs": [
        {
          "internalType": "uint256",
          "name": "",
          "type": "uint256"
        }
      ],
      "stateMutability": "view",
      "type": "function"
    },
    {
      "inputs": [
        {
          "internalType": "address",
          "name": "spender",
          "type": "address"
        },
        {
          "internalType": "uint256",
          "name": "amount",
          "type": "uint256"
        }
      ],
      "name": "approve",
      "outputs": [
        {
          "internalType": "bool",
          "name": "",
          "type": "bool"
        }
      ],
      "stateMutability": "nonpayable",
      "type": "function"
    },
    {
      "inputs": [],
      "name": "assetContract",
      "outputs": [
        {
          "internalType": "address",
          "name": "",
          "type": "address"
        }
      ],
      "stateMutability": "view",
      "type": "function"
    },
    {
      "inputs": [
        {
          "internalType": "address",
          "name": "account",
          "type": "address"
        }
      ],
      "name": "balanceOf",
      "outputs": [
        {
          "internalType": "uint256",
          "name": "",
          "type": "uint256"
        }
      ],
      "stateMutability": "view",
      "type": "function"
    },
    {
      "inputs": [],
      "name": "benchmark",
      "outputs": [
        {
          "internalType": "uint256",
          "name": "",
          "type": "uint256"
        }
      ],
      "stateMutability": "view",
      "type": "function"
    },
    {
      "inputs": [
        {
          "internalType": "address",
          "name": "account",
          "type": "address"
        },
        {
          "internalType": "uint256",
          "name": "amount",
          "type": "uint256"
        }
      ],
      "name": "burn",
      "outputs": [
        {
          "internalType": "bool",
          "name": "",
          "type": "bool"
        }
      ],
      "stateMutability": "nonpayable",
      "type": "function"
    },
    {
      "inputs": [],
      "name": "decimals",
      "outputs": [
        {
          "internalType": "uint8",
          "name": "",
          "type": "uint8"
        }
      ],
      "stateMutability": "view",
      "type": "function"
    },
    {
      "inputs": [
        {
          "internalType": "address",
          "name": "spender",
          "type": "address"
        },
        {
          "internalType": "uint256",
          "name": "subtractedValue",
          "type": "uint256"
        }
      ],
      "name": "decreaseAllowance",
      "outputs": [
        {
          "internalType": "bool",
          "name": "",
          "type": "bool"
        }
      ],
      "stateMutability": "nonpayable",
      "type": "function"
    },
    {
      "inputs": [],
      "name": "fixedInterestPayer",
      "outputs": [
        {
          "internalType": "address",
          "name": "",
          "type": "address"
        }
      ],
      "stateMutability": "view",
      "type": "function"
    },
    {
      "inputs": [],
      "name": "fixedPayerContract",
      "outputs": [
        {
          "internalType": "address",
          "name": "",
          "type": "address"
        }
      ],
      "stateMutability": "view",
      "type": "function"
    },
    {
      "inputs": [],
      "name": "floatingInterestPayer",
      "outputs": [
        {
          "internalType": "address",
          "name": "",
          "type": "address"
        }
      ],
      "stateMutability": "view",
      "type": "function"
    },
    {
      "inputs": [],
      "name": "floatingPayerContract",
      "outputs": [
        {
          "internalType": "address",
          "name": "",
          "type": "address"
        }
      ],
      "stateMutability": "view",
      "type": "function"
    },
    {
      "inputs": [],
      "name": "getFixedPayerContract",
      "outputs": [
        {
          "internalType": "address",
          "name": "",
          "type": "address"
        }
      ],
      "stateMutability": "view",
      "type": "function"
    },
    {
      "inputs": [],
      "name": "getFloatingPayerContract",
      "outputs": [
        {
          "internalType": "address",
          "name": "",
          "type": "address"
        }
      ],
      "stateMutability": "view",
      "type": "function"
    },
    {
      "inputs": [],
      "name": "getNumberOfSwaps",
      "outputs": [
        {
          "internalType": "uint8",
          "name": "",
          "type": "uint8"
        }
      ],
      "stateMutability": "view",
      "type": "function"
    },
    {
      "inputs": [],
      "name": "getSwapCount",
      "outputs": [
        {
          "internalType": "uint8",
          "name": "",
          "type": "uint8"
        }
      ],
      "stateMutability": "view",
      "type": "function"
    },
    {
      "inputs": [
        {
          "internalType": "address",
          "name": "spender",
          "type": "address"
        },
        {
          "internalType": "uint256",
          "name": "addedValue",
          "type": "uint256"
        }
      ],
      "name": "increaseAllowance",
      "outputs": [
        {
          "internalType": "bool",
          "name": "",
          "type": "bool"
        }
      ],
      "stateMutability": "nonpayable",
      "type": "function"
    },
    {
      "inputs": [],
      "name": "irsInfo",
      "outputs": [
        {
          "components": [
            {
              "internalType": "address",
              "name": "irsContract",
              "type": "address"
            },
            {
              "internalType": "address",
              "name": "fixedInterestPayer",
              "type": "address"
            },
            {
              "internalType": "address",
              "name": "floatingInterestPayer",
              "type": "address"
            },
            {
              "internalType": "uint8",
              "name": "ratesDecimals",
              "type": "uint8"
            },
            {
              "internalType": "uint8",
              "name": "status",
              "type": "uint8"
            },
            {
              "internalType": "uint256",
              "name": "swapRate",
              "type": "uint256"
            },
            {
              "internalType": "uint256",
              "name": "spread",
              "type": "uint256"
            },
            {
              "internalType": "address",
              "name": "assetContract",
              "type": "address"
            },
            {
              "internalType": "uint256",
              "name": "notionalAmount",
              "type": "uint256"
            },
            {
              "internalType": "uint256",
              "name": "paymentFrequency",
              "type": "uint256"
            },
            {
              "internalType": "uint256",
              "name": "startingDate",
              "type": "uint256"
            },
            {
              "internalType": "uint256",
              "name": "maturityDate",
              "type": "uint256"
            },
            {
              "internalType": "uint256",
              "name": "benchmark",
              "type": "uint256"
            },
            {
              "internalType": "uint8",
              "name": "index",
              "type": "uint8"
            }
          ],
          "internalType": "struct IRSTypes.IRS",
          "name": "",
          "type": "tuple"
        }
      ],
      "stateMutability": "view",
      "type": "function"
    },
    {
      "inputs": [],
      "name": "isActive",
      "outputs": [
        {
          "internalType": "uint8",
          "name": "",
          "type": "uint8"
        }
      ],
      "stateMutability": "view",
      "type": "function"
    },
    {
      "inputs": [],
      "name": "isContractActive",
      "outputs": [
        {
          "internalType": "uint8",
          "name": "",
          "type": "uint8"
        }
      ],
      "stateMutability": "view",
      "type": "function"
    },
    {
      "inputs": [],
      "name": "maturityDate",
      "outputs": [
        {
          "internalType": "uint256",
          "name": "",
          "type": "uint256"
        }
      ],
      "stateMutability": "view",
      "type": "function"
    },
    {
      "inputs": [
        {
          "internalType": "address",
          "name": "account",
          "type": "address"
        },
        {
          "internalType": "uint256",
          "name": "amount",
          "type": "uint256"
        }
      ],
      "name": "mint",
      "outputs": [
        {
          "internalType": "bool",
          "name": "",
          "type": "bool"
        }
      ],
      "stateMutability": "nonpayable",
      "type": "function"
    },
    {
      "inputs": [],
      "name": "name",
      "outputs": [
        {
          "internalType": "string",
          "name": "",
          "type": "string"
        }
      ],
      "stateMutability": "view",
      "type": "function"
    },
    {
      "inputs": [],
      "name": "notionalAmount",
      "outputs": [
        {
          "internalType": "uint256",
          "name": "",
          "type": "uint256"
        }
      ],
      "stateMutability": "view",
      "type": "function"
    },
    {
      "inputs": [],
      "name": "numberOfSwaps",
      "outputs": [
        {
          "internalType": "uint8",
          "name": "",
          "type": "uint8"
        }
      ],
      "stateMutability": "view",
      "type": "function"
    },
    {
      "inputs": [],
      "name": "owner",
      "outputs": [
        {
          "internalType": "address",
          "name": "",
          "type": "address"
        }
      ],
      "stateMutability": "view",
      "type": "function"
    },
    {
      "inputs": [],
      "name": "paymentFrequency",
      "outputs": [
        {
          "internalType": "uint256",
          "name": "",
          "type": "uint256"
        }
      ],
      "stateMutability": "view",
      "type": "function"
    },
    {
      "inputs": [],
      "name": "ratesDecimals",
      "outputs": [
        {
          "internalType": "uint8",
          "name": "",
          "type": "uint8"
        }
      ],
      "stateMutability": "view",
      "type": "function"
    },
    {
      "inputs": [],
      "name": "spread",
      "outputs": [
        {
          "internalType": "uint256",
          "name": "",
          "type": "uint256"
        }
      ],
      "stateMutability": "view",
      "type": "function"
    },
    {
      "inputs": [],
      "name": "startingDate",
      "outputs": [
        {
          "internalType": "uint256",
          "name": "",
          "type": "uint256"
        }
      ],
      "stateMutability": "view",
      "type": "function"
    },
    {
      "inputs": [],
      "name": "swap",
      "outputs": [
        {
          "internalType": "bool",
          "name": "",
          "type": "bool"
        }
      ],
      "stateMutability": "nonpayable",
      "type": "function"
    },
    {
      "inputs": [],
      "name": "swapCount",
      "outputs": [
        {
          "internalType": "uint8",
          "name": "",
          "type": "uint8"
        }
      ],
      "stateMutability": "view",
      "type": "function"
    },
    {
      "inputs": [],
      "name": "swapRate",
      "outputs": [
        {
          "internalType": "uint256",
          "name": "",
          "type": "uint256"
        }
      ],
      "stateMutability": "view",
      "type": "function"
    },
    {
      "inputs": [],
      "name": "symbol",
      "outputs": [
        {
          "internalType": "string",
          "name": "",
          "type": "string"
        }
      ],
      "stateMutability": "view",
      "type": "function"
    },
    {
      "inputs": [],
      "name": "terminateSwap",
      "outputs": [],
      "stateMutability": "nonpayable",
      "type": "function"
    },
    {
      "inputs": [],
      "name": "toposBankContract",
      "outputs": [
        {
          "internalType": "address",
          "name": "",
          "type": "address"
        }
      ],
      "stateMutability": "view",
      "type": "function"
    },
    {
      "inputs": [],
      "name": "totalSupply",
      "outputs": [
        {
          "internalType": "uint256",
          "name": "",
          "type": "uint256"
        }
      ],
      "stateMutability": "view",
      "type": "function"
    },
    {
      "inputs": [
        {
          "internalType": "address",
          "name": "to",
          "type": "address"
        },
        {
          "internalType": "uint256",
          "name": "amount",
          "type": "uint256"
        }
      ],
      "name": "transfer",
      "outputs": [
        {
          "internalType": "bool",
          "name": "",
          "type": "bool"
        }
      ],
      "stateMutability": "nonpayable",
      "type": "function"
    },
    {
      "inputs": [
        {
          "internalType": "address",
          "name": "from",
          "type": "address"
        },
        {
          "internalType": "address",
          "name": "to",
          "type": "address"
        },
        {
          "internalType": "uint256",
          "name": "amount",
          "type": "uint256"
        }
      ],
      "name": "transferFrom",
      "outputs": [
        {
          "internalType": "bool",
          "name": "",
          "type": "bool"
        }
      ],
      "stateMutability": "nonpayable",
      "type": "function"
    }
  ],
  "bytecode": "0x6080604052346200068f5762001ec9803803806200001d8162000694565b928339810181810361028081126200068f576200003a83620006ba565b916200004960208501620006ba565b6200005760408601620006cf565b60608601519093906001600160401b0381116200068f57836200007c918801620006de565b60808701519093906001600160401b0381116200068f576101c091620000a4918901620006de565b91609f1901126200068f57604051946101c086016001600160401b038111878210176200058357604052620000dc60a08801620006ba565b8652620000ec60c08801620006ba565b6020870152620000ff60e08801620006ba565b6040870152620001136101008801620006cf565b6060870152620001276101208801620006cf565b6080870152610140928388015160a0880152610160918289015160c08901526101809362000157858b01620006ba565b60e08a0152620001b56102606101a09b8c8101516101008d01526101c08101516101208d01526101e0810151898d0152610200810151878d0152610220810151888d0152620001aa6102408201620006cf565b8d8d015201620006ba565b875190976001600160401b038211620005835760135490600182811c9216801562000684575b6020831014620005625781601f84931162000623575b50602090601f8311600114620005a55760009262000599575b50508160011b916000199060031b1c1916176013555b8051906001600160401b0382116200058357601454600181811c9116801562000578575b60208210146200056257601f8111620004fc575b50602090601f83116001146200048257918060ff9b9c9694928c98969460009262000476575b50508160011b916000199060031b1c1916176014555b60018060a01b031660018060a01b0319600c541617600c5560018060a01b031660018060a01b0319600d541617600d55600f549460018060a01b038a511660018060a01b0319600054161760005560018060a01b0360208b01511660018060a01b0319600154161760015560018060a01b0360408b015116600254908660a01b60608d015160a01b169060808d01518860a81b9060a81b169260018060b01b03191617171760025560a08a015160035560c08a015160045560018060a01b0360e08b01511660018060a01b031960055416176005556101008a01516006556101208a0151600755890151600855880151600955870151600a55860151168419600b541617600b553360018060a01b0319600e541617600e55600160a01b9160018060a01b0316908460a81b8460a81b169060018060b01b031916171717600f551690670de0b6b3a7640000918281029281840414811517156200046057671bc16d674ec800009160018060a01b03602082015116600052601060205283604060002055604060018060a01b03910151166000528260406000205502908160011c0362000460576012556002805460ff60a81b1916600160a81b1790556040516117589081620007518239f35b634e487b7160e01b600052601160045260246000fd5b0151905038806200027e565b90601460005260206000209160005b601f1985168110620004e357509260ff9b9c9694926001928d99979583601f19811610620004c9575b505050811b0160145562000294565b015160001960f88460031b161c19169055388080620004ba565b9192602060018192868501518155019401920162000491565b60146000527fce6d7b5282bd9a3661ae061feed1dbda4e52ab073b1f9285be6e155d9c38d4ec601f840160051c8101602085106200055a575b601f830160051c820181106200054d57505062000258565b6000815560010162000535565b508062000535565b634e487b7160e01b600052602260045260246000fd5b90607f169062000244565b634e487b7160e01b600052604160045260246000fd5b0151905038806200020a565b60136000908152935060008051602062001ea983398151915291905b601f198416851062000607576001945083601f19811610620005ed575b505050811b0160135562000220565b015160001960f88460031b161c19169055388080620005de565b81810151835560209485019460019093019290910190620005c1565b601360005290915060008051602062001ea9833981519152601f840160051c8101602085106200067c575b90849392915b601f830160051c820181106200066c575050620001f1565b6000815585945060010162000654565b50806200064e565b91607f1691620001db565b600080fd5b6040519190601f01601f191682016001600160401b038111838210176200058357604052565b51906001600160a01b03821682036200068f57565b519060ff821682036200068f57565b919080601f840112156200068f5782516001600160401b038111620005835760209062000714601f8201601f1916830162000694565b928184528282870101116200068f5760005b8181106200073c57508260009394955001015290565b85810183015184820184015282016200072656fe608080604052600436101561001357600080fd5b600090813560e01c90816306fdde031461108e57508063095ea7b31461106757806318160ddd1461104957806322f3e2d4146106d557806323b872dd14610f8f5780632eff0d9e1461028a578063313ce56714610f7357806338cb8a2514610b6b5780633950935114610f225780633e3ff7b614610f0457806340c10f1914610e3d57806342abea7914610c65578063442447ca14610bb95780634d16304f14610b925780634d1d62fa146101f7578063530c61cf14610b6b5780635c25c76c14610b4d578063698518e514610b2f57806370a0823114610af75780638119c065146107e85780638903c5a21461073e5780638da5cb5b146107175780638e589315146106f95780638f5949f9146106d557806395d89b41146105d35780639c34712a146105ac5780639dc29fac1461044b578063a26c1aa21461042d578063a457c2d714610373578063a9059cbb14610341578063be2da8731461031a578063beb9ad5f146102f3578063c4c22a84146102cc578063d59624b4146102ae578063d81671bc1461028a578063dd62ed3e1461023f578063e823b1da1461021b578063e8f9d2f9146101f75763ecba89c5146101ce57600080fd5b346101f457806003193601126101f45760206001600160a01b03600c5416604051908152f35b80fd5b50346101f457806003193601126101f457602060ff600f5460a81c16604051908152f35b50346101f457806003193601126101f457602060ff60025460a01c16604051908152f35b50346101f45760403660031901126101f457604060209161025e611190565b6102666111ab565b6001600160a01b039182168352601185528383209116825283522054604051908152f35b50346101f457806003193601126101f457602060ff600f5460b01c16604051908152f35b50346101f457806003193601126101f4576020600954604051908152f35b50346101f457806003193601126101f45760206001600160a01b0360015416604051908152f35b50346101f457806003193601126101f45760206001600160a01b03600c5416604051908152f35b50346101f457806003193601126101f45760206001600160a01b0360025416604051908152f35b50346101f45760403660031901126101f45761036861035e611190565b60243590336112ef565b602060405160018152f35b50346101f45760403660031901126101f45761038d611190565b60406024359233815260116020528181206001600160a01b03841682526020522054918083106103c357610368920390336115ee565b608460405162461bcd60e51b815260206004820152602560248201527f45524332303a2064656372656173656420616c6c6f77616e63652062656c6f7760448201527f207a65726f0000000000000000000000000000000000000000000000000000006064820152fd5b50346101f457806003193601126101f4576020600654604051908152f35b50346101f45760403660031901126101f457610465611190565b6001600160a01b0316602435811561054257818352601060205260408320548181106104d857817fddf252ad1be2c89b69c2b068fc378daa952ba7f163c4a11628f55a4df523b3ef92602092858752601084520360408620558060125403601255604051908152a3602060405160018152f35b608460405162461bcd60e51b815260206004820152602260248201527f45524332303a206275726e20616d6f756e7420657863656564732062616c616e60448201527f63650000000000000000000000000000000000000000000000000000000000006064820152fd5b608460405162461bcd60e51b815260206004820152602160248201527f45524332303a206275726e2066726f6d20746865207a65726f2061646472657360448201527f73000000000000000000000000000000000000000000000000000000000000006064820152fd5b50346101f457806003193601126101f45760206001600160a01b03600f5416604051908152f35b50346101f457806003193601126101f4576040518160145490600182811c918184169384156106cb575b60209485851081146106b757848752908115610695575060011461063c575b6106388561062c818903826111f4565b60405191829182611147565b0390f35b929450601483527fce6d7b5282bd9a3661ae061feed1dbda4e52ab073b1f9285be6e155d9c38d4ec5b82841061068257505050816106389361062c92820101933861061c565b8054858501870152928501928101610665565b60ff191686860152505050151560051b820101915061062c816106383861061c565b602483634e487b7160e01b81526022600452fd5b92607f16926105fd565b50346101f457806003193601126101f457602060ff600f5460a01c16604051908152f35b50346101f457806003193601126101f4576020600754604051908152f35b50346101f457806003193601126101f45760206001600160a01b03600e5416604051908152f35b50346101f457806003193601126101f457600460206001600160a01b03600f5416604051928380927f79a945690000000000000000000000000000000000000000000000000000000082525afa9081156107dd5782916107a4575b602082604051908152f35b90506020813d82116107d5575b816107be602093836111f4565b810103126107d157602091505138610799565b5080fd5b3d91506107b1565b6040513d84823e3d90fd5b50346101f457806003193601126101f457600f546001600160a01b036108118183163314611216565b60019160ff9061082784838360a01c1614611261565b6002549284838560a81c1603610ab35760035461085f61084c600a54600454906112ac565b61085960065493846112cf565b926112cf565b908082036108ab57606460405162461bcd60e51b815260206004820152600e60248201527f4e6f74696e6720746f20737761700000000000000000000000000000000000006044820152fd5b81811115610a995782916108be916112e2565b94169281865416925b86828260b01c1601828111610a855776ff000000000000000000000000000000000000000000007fffffffffffffffffff00ffffffffffffffffffffffffffffffffffffffffffff9160b01b169116179081600f55808260a81c169160b01c1611610a41576109388186541661156c565b50610946816002541661156c565b50806005541690670de0b6b3a764000093848602948686041486151715610a2d57816127109189959493604051957f23b872dd0000000000000000000000000000000000000000000000000000000087521660048601521694856024850152046044830152816064816020998a945af180156107dd576109fa575b50507f757e61e0d078d58246a59b2ffe29975dc7053b43aa3a163b3b5b43fc1fb0c14791604091825191825285820152a1604051908152f35b8581813d8311610a26575b610a0f81836111f4565b810103126107d15751801515036101f457806109c1565b503d610a05565b602488634e487b7160e01b81526011600452fd5b606460405162461bcd60e51b815260206004820152600f60248201527f416c6c20737761707320646f6e652100000000000000000000000000000000006044820152fd5b602489634e487b7160e01b81526011600452fd5b610aa5919594956112e2565b9381808754169416926108c7565b606460405162461bcd60e51b815260206004820152601260248201527f4e6f74204578697374206f7220456e64656400000000000000000000000000006044820152fd5b50346101f45760203660031901126101f45760406020916001600160a01b03610b1e611190565b168152601083522054604051908152f35b50346101f457806003193601126101f4576020600354604051908152f35b50346101f457806003193601126101f4576020600454604051908152f35b50346101f457806003193601126101f45760206001600160a01b03600d5416604051908152f35b50346101f457806003193601126101f45760206001600160a01b0360055416604051908152f35b50346101f457806003193601126101f457600f54610bf4600160ff6001600160a01b0393610bea8582163314611216565b60a01c1614611261565b6002549075020000000000000000000000000000000000000000007fffffffffffffffffffff00ffffffffffffffffffffffffffffffffffffffffff83161760025580600154169116907f1aa6c8c6f9b0ff26b8661bdc3ce83e7caf565c568af549f21922fa9561363cc28380a380f35b50346101f457806003193601126101f457806101c0916101a0604051610c8a816111c1565b8281528260208201528260408201528260608201528260808201528260a08201528260c08201528260e08201528261010082015282610120820152826101408201528261016082015282610180820152015260ff6101a06001600160a01b0360405193610cf6856111c1565b5416928381526001600160a01b03600154166020820152826002546001600160a01b0381166040840152818160a01c16606084015260a81c16608082015260035460a082015260045460c08201526001600160a01b036005541660e0820152600654610100820152600754610120820152600854610140820152600954610160820152600a5461018082015282600b5416828201526040519384526001600160a01b0360208201511660208501526001600160a01b03604082015116604085015282606082015116606085015282608082015116608085015260a081015160a085015260c081015160c08501526001600160a01b0360e08201511660e08501526101008101516101008501526101208101516101208501526101408101516101408501526101608101516101608501526101808101516101808501520151166101a0820152f35b50346101f45760403660031901126101f457610e57611190565b6001600160a01b0316906024358215610ec057602081610e9a7fddf252ad1be2c89b69c2b068fc378daa952ba7f163c4a11628f55a4df523b3ef936012546112ac565b6012558484526010825260408420818154019055604051908152a3602060405160018152f35b606460405162461bcd60e51b815260206004820152601f60248201527f45524332303a206d696e7420746f20746865207a65726f2061646472657373006044820152fd5b50346101f457806003193601126101f4576020600854604051908152f35b50346101f45760403660031901126101f45761036890610f6c610f43611190565b913381526011602052604081206001600160a01b038416825260205260406024359120546112ac565b90336115ee565b50346101f457806003193601126101f457602060405160128152f35b50346101f45760603660031901126101f457610fa9611190565b90610fb26111ab565b6040604435926001600160a01b038516815260116020528181203382526020522054926000198403610fe9575b61036893506112ef565b8284106110055761100083610368950333836115ee565b610fdf565b606460405162461bcd60e51b815260206004820152601d60248201527f45524332303a20696e73756666696369656e7420616c6c6f77616e63650000006044820152fd5b50346101f457806003193601126101f4576020601254604051908152f35b50346101f45760403660031901126101f457610368611084611190565b60243590336115ee565b9050346107d157816003193601126107d1578160135490600182811c9181841693841561113d575b60209485851081146106b75784875290811561069557506001146110e4576106388561062c818903826111f4565b929450601383527f66de8ffda797e3de9c05e8fc57b3bf0ec28a930d40b0d285d93c06501cf6a0905b82841061112a57505050816106389361062c92820101933861061c565b805485850187015292850192810161110d565b92607f16926110b6565b6020808252825181830181905290939260005b82811061117c57505060409293506000838284010152601f8019910116010190565b81810186015184820160400152850161115a565b600435906001600160a01b03821682036111a657565b600080fd5b602435906001600160a01b03821682036111a657565b6101c0810190811067ffffffffffffffff8211176111de57604052565b634e487b7160e01b600052604160045260246000fd5b90601f8019910116810190811067ffffffffffffffff8211176111de57604052565b1561121d57565b606460405162461bcd60e51b815260206004820152601260248201527f4f6e6c792042616e6b20436f6e747261637400000000000000000000000000006044820152fd5b1561126857565b606460405162461bcd60e51b815260206004820152600a60248201527f4e6f7420416374697665000000000000000000000000000000000000000000006044820152fd5b919082018092116112b957565b634e487b7160e01b600052601160045260246000fd5b818102929181159184041417156112b957565b919082039182116112b957565b916001600160a01b038093169182156115025783169283156114985760009083825260106020526040918281205484811061142f579084849287835260106020520382822055868152208381540190558060015416841460001461139a57507fddf252ad1be2c89b69c2b068fc378daa952ba7f163c4a11628f55a4df523b3ef916020918573ffffffffffffffffffffffffffffffffffffffff1960015416176001555b51908152a3565b60025490811684036113ec5773ffffffffffffffffffffffffffffffffffffffff191684176002557fddf252ad1be2c89b69c2b068fc378daa952ba7f163c4a11628f55a4df523b3ef91602091611393565b6064825162461bcd60e51b815260206004820152601460248201527f696e76616c69642066726f6d20616464726573730000000000000000000000006044820152fd5b6084845162461bcd60e51b815260206004820152602660248201527f45524332303a207472616e7366657220616d6f756e742065786365656473206260448201527f616c616e636500000000000000000000000000000000000000000000000000006064820152fd5b608460405162461bcd60e51b815260206004820152602360248201527f45524332303a207472616e7366657220746f20746865207a65726f206164647260448201527f65737300000000000000000000000000000000000000000000000000000000006064820152fd5b608460405162461bcd60e51b815260206004820152602560248201527f45524332303a207472616e736665722066726f6d20746865207a65726f20616460448201527f64726573730000000000000000000000000000000000000000000000000000006064820152fd5b6001600160a01b031680156105425780600052601060205260406000205490670de0b6b3a76400008083106104d85760207fddf252ad1be2c89b69c2b068fc378daa952ba7f163c4a11628f55a4df523b3ef9160009484865260108352670de0b6b3a763ffff19809101604087205560125401601255604051908152a3600190565b6001600160a01b038091169182156116b9571691821561164f5760207f8c5be1e5ebec7d5bd14f71427d1e84f3dd0314c0f7b2291e5b200ac8c7c3b925918360005260118252604060002085600052825280604060002055604051908152a3565b608460405162461bcd60e51b815260206004820152602260248201527f45524332303a20617070726f766520746f20746865207a65726f20616464726560448201527f73730000000000000000000000000000000000000000000000000000000000006064820152fd5b608460405162461bcd60e51b8152602060048201526024808201527f45524332303a20617070726f76652066726f6d20746865207a65726f2061646460448201527f72657373000000000000000000000000000000000000000000000000000000006064820152fdfea26469706673582212204ab67abb5d8cdb4bc43cabc7bb4c61a5e777b30a0177a377a287af172a872fc164736f6c6343000813003366de8ffda797e3de9c05e8fc57b3bf0ec28a930d40b0d285d93c06501cf6a090",
  "linkReferences": {},
  "deployedLinkReferences": {}
}