{
  "_format": "hh-sol-artifact-1",
  "contractName": "Roles",
  "sourceName": "contracts/utils/Roles.sol",
  "abi": [
    {
      "inputs": [],
      "stateMutability": "nonpayable",
      "type": "constructor"
    },
    {
      "inputs": [
        {
          "internalType": "address",
          "name": "_user",
          "type": "address"
        }
      ],
      "name": "getRole",
      "outputs": [
        {
          "internalType": "string",
          "name": "",
          "type": "string"
        }
      ],
      "stateMutability": "view",
      "type": "function"
    },
    {
      "inputs": [],
      "name": "investorContract",
      "outputs": [
        {
          "internalType": "address",
          "name": "",
          "type": "address"
        }
      ],
      "stateMutability": "view",
      "type": "function"
    },
    {
      "inputs": [
        {
          "internalType": "address",
          "name": "_user",
          "type": "address"
        }
      ],
      "name": "isInvestor",
      "outputs": [
        {
          "internalType": "bool",
          "name": "",
          "type": "bool"
        }
      ],
      "stateMutability": "view",
      "type": "function"
    },
    {
      "inputs": [
        {
          "internalType": "address",
          "name": "_user",
          "type": "address"
        }
      ],
      "name": "isIssuer",
      "outputs": [
        {
          "internalType": "bool",
          "name": "",
          "type": "bool"
        }
      ],
      "stateMutability": "view",
      "type": "function"
    },
    {
      "inputs": [],
      "name": "issuerContract",
      "outputs": [
        {
          "internalType": "address",
          "name": "",
          "type": "address"
        }
      ],
      "stateMutability": "view",
      "type": "function"
    },
    {
      "inputs": [],
      "name": "owner",
      "outputs": [
        {
          "internalType": "address",
          "name": "",
          "type": "address"
        }
      ],
      "stateMutability": "view",
      "type": "function"
    },
    {
      "inputs": [
        {
          "internalType": "string",
          "name": "_role",
          "type": "string"
        },
        {
          "internalType": "address",
          "name": "_user",
          "type": "address"
        }
      ],
      "name": "setRole",
      "outputs": [],
      "stateMutability": "nonpayable",
      "type": "function"
    },
    {
      "inputs": [
        {
          "internalType": "address",
          "name": "_toposBankContract",
          "type": "address"
        },
        {
          "internalType": "address",
          "name": "_issuerContract",
          "type": "address"
        },
        {
          "internalType": "address",
          "name": "_investorContract",
          "type": "address"
        }
      ],
      "name": "setToposContracts",
      "outputs": [],
      "stateMutability": "nonpayable",
      "type": "function"
    },
    {
      "inputs": [],
      "name": "toposBankContract",
      "outputs": [
        {
          "internalType": "address",
          "name": "",
          "type": "address"
        }
      ],
      "stateMutability": "view",
      "type": "function"
    }
  ],
  "bytecode": "0x60806040523480156200001157600080fd5b5033600160006101000a81548173ffffffffffffffffffffffffffffffffffffffff021916908373ffffffffffffffffffffffffffffffffffffffff1602179055506040518060400160405280600781526020017f4d414e41474552000000000000000000000000000000000000000000000000008152506000803373ffffffffffffffffffffffffffffffffffffffff1673ffffffffffffffffffffffffffffffffffffffff1681526020019081526020016000209081620000d5919062000356565b506200043d565b600081519050919050565b7f4e487b7100000000000000000000000000000000000000000000000000000000600052604160045260246000fd5b7f4e487b7100000000000000000000000000000000000000000000000000000000600052602260045260246000fd5b600060028204905060018216806200015e57607f821691505b60208210810362000174576200017362000116565b5b50919050565b60008190508160005260206000209050919050565b60006020601f8301049050919050565b600082821b905092915050565b600060088302620001de7fffffffffffffffffffffffffffffffffffffffffffffffffffffffffffffffff826200019f565b620001ea86836200019f565b95508019841693508086168417925050509392505050565b6000819050919050565b6000819050919050565b600062000237620002316200022b8462000202565b6200020c565b62000202565b9050919050565b6000819050919050565b620002538362000216565b6200026b62000262826200023e565b848454620001ac565b825550505050565b600090565b6200028262000273565b6200028f81848462000248565b505050565b5b81811015620002b757620002ab60008262000278565b60018101905062000295565b5050565b601f8211156200030657620002d0816200017a565b620002db846200018f565b81016020851015620002eb578190505b62000303620002fa856200018f565b83018262000294565b50505b505050565b600082821c905092915050565b60006200032b600019846008026200030b565b1980831691505092915050565b600062000346838362000318565b9150826002028217905092915050565b6200036182620000dc565b67ffffffffffffffff8111156200037d576200037c620000e7565b5b62000389825462000145565b62000396828285620002bb565b600060209050601f831160018114620003ce5760008415620003b9578287015190505b620003c5858262000338565b86555062000435565b601f198416620003de866200017a565b60005b828110156200040857848901518255600182019150602085019450602081019050620003e1565b8683101562000428578489015162000424601f89168262000318565b8355505b6001600288020188555050505b505050505050565b611040806200044d6000396000f3fe608060405234801561001057600080fd5b50600436106100935760003560e01c80638da5cb5b116100665780638da5cb5b146101345780639c34712a14610152578063a16f902714610170578063cee2a9cf1461018c578063cfde1890146101bc57610093565b80630c43ae9c1461009857806316d2986f146100b657806344276733146100d4578063877b9a6714610104575b600080fd5b6100a06101d8565b6040516100ad919061078f565b60405180910390f35b6100be6101fe565b6040516100cb919061078f565b60405180910390f35b6100ee60048036038101906100e991906107ea565b610224565b6040516100fb91906108a7565b60405180910390f35b61011e600480360381019061011991906107ea565b6102f4565b60405161012b91906108e4565b60405180910390f35b61013c610387565b604051610149919061078f565b60405180910390f35b61015a6103ad565b604051610167919061078f565b60405180910390f35b61018a600480360381019061018591906108ff565b6103d3565b005b6101a660048036038101906101a191906107ea565b61052b565b6040516101b391906108e4565b60405180910390f35b6101d660048036038101906101d19190610a87565b6105be565b005b600360009054906101000a900473ffffffffffffffffffffffffffffffffffffffff1681565b600460009054906101000a900473ffffffffffffffffffffffffffffffffffffffff1681565b60606000808373ffffffffffffffffffffffffffffffffffffffff1673ffffffffffffffffffffffffffffffffffffffff168152602001908152602001600020805461026f90610b12565b80601f016020809104026020016040519081016040528092919081815260200182805461029b90610b12565b80156102e85780601f106102bd576101008083540402835291602001916102e8565b820191906000526020600020905b8154815290600101906020018083116102cb57829003601f168201915b50505050509050919050565b600060405160200161030590610b9a565b604051602081830303815290604052805190602001206000808473ffffffffffffffffffffffffffffffffffffffff1673ffffffffffffffffffffffffffffffffffffffff1681526020019081526020016000206040516020016103699190610c47565b60405160208183030381529060405280519060200120149050919050565b600160009054906101000a900473ffffffffffffffffffffffffffffffffffffffff1681565b600260009054906101000a900473ffffffffffffffffffffffffffffffffffffffff1681565b600160009054906101000a900473ffffffffffffffffffffffffffffffffffffffff1673ffffffffffffffffffffffffffffffffffffffff163373ffffffffffffffffffffffffffffffffffffffff1614610463576040517f08c379a000000000000000000000000000000000000000000000000000000000815260040161045a90610caa565b60405180910390fd5b82600260006101000a81548173ffffffffffffffffffffffffffffffffffffffff021916908373ffffffffffffffffffffffffffffffffffffffff16021790555081600360006101000a81548173ffffffffffffffffffffffffffffffffffffffff021916908373ffffffffffffffffffffffffffffffffffffffff16021790555080600460006101000a81548173ffffffffffffffffffffffffffffffffffffffff021916908373ffffffffffffffffffffffffffffffffffffffff160217905550505050565b600060405160200161053c90610d16565b604051602081830303815290604052805190602001206000808473ffffffffffffffffffffffffffffffffffffffff1673ffffffffffffffffffffffffffffffffffffffff1681526020019081526020016000206040516020016105a09190610c47565b60405160208183030381529060405280519060200120149050919050565b600260009054906101000a900473ffffffffffffffffffffffffffffffffffffffff1673ffffffffffffffffffffffffffffffffffffffff163373ffffffffffffffffffffffffffffffffffffffff1614806106675750600360009054906101000a900473ffffffffffffffffffffffffffffffffffffffff1673ffffffffffffffffffffffffffffffffffffffff163373ffffffffffffffffffffffffffffffffffffffff16145b806106bf5750600460009054906101000a900473ffffffffffffffffffffffffffffffffffffffff1673ffffffffffffffffffffffffffffffffffffffff163373ffffffffffffffffffffffffffffffffffffffff16145b6106fe576040517f08c379a00000000000000000000000000000000000000000000000000000000081526004016106f590610d77565b60405180910390fd5b816000808373ffffffffffffffffffffffffffffffffffffffff1673ffffffffffffffffffffffffffffffffffffffff16815260200190815260200160002090816107499190610f38565b505050565b600073ffffffffffffffffffffffffffffffffffffffff82169050919050565b60006107798261074e565b9050919050565b6107898161076e565b82525050565b60006020820190506107a46000830184610780565b92915050565b6000604051905090565b600080fd5b600080fd5b6107c78161076e565b81146107d257600080fd5b50565b6000813590506107e4816107be565b92915050565b600060208284031215610800576107ff6107b4565b5b600061080e848285016107d5565b91505092915050565b600081519050919050565b600082825260208201905092915050565b60005b83811015610851578082015181840152602081019050610836565b60008484015250505050565b6000601f19601f8301169050919050565b600061087982610817565b6108838185610822565b9350610893818560208601610833565b61089c8161085d565b840191505092915050565b600060208201905081810360008301526108c1818461086e565b905092915050565b60008115159050919050565b6108de816108c9565b82525050565b60006020820190506108f960008301846108d5565b92915050565b600080600060608486031215610918576109176107b4565b5b6000610926868287016107d5565b9350506020610937868287016107d5565b9250506040610948868287016107d5565b9150509250925092565b600080fd5b600080fd5b7f4e487b7100000000000000000000000000000000000000000000000000000000600052604160045260246000fd5b6109948261085d565b810181811067ffffffffffffffff821117156109b3576109b261095c565b5b80604052505050565b60006109c66107aa565b90506109d2828261098b565b919050565b600067ffffffffffffffff8211156109f2576109f161095c565b5b6109fb8261085d565b9050602081019050919050565b82818337600083830152505050565b6000610a2a610a25846109d7565b6109bc565b905082815260208101848484011115610a4657610a45610957565b5b610a51848285610a08565b509392505050565b600082601f830112610a6e57610a6d610952565b5b8135610a7e848260208601610a17565b91505092915050565b60008060408385031215610a9e57610a9d6107b4565b5b600083013567ffffffffffffffff811115610abc57610abb6107b9565b5b610ac885828601610a59565b9250506020610ad9858286016107d5565b9150509250929050565b7f4e487b7100000000000000000000000000000000000000000000000000000000600052602260045260246000fd5b60006002820490506001821680610b2a57607f821691505b602082108103610b3d57610b3c610ae3565b5b50919050565b600081905092915050565b7f4953535545520000000000000000000000000000000000000000000000000000600082015250565b6000610b84600683610b43565b9150610b8f82610b4e565b600682019050919050565b6000610ba582610b77565b9150819050919050565b60008190508160005260206000209050919050565b60008154610bd181610b12565b610bdb8186610b43565b94506001821660008114610bf65760018114610c0b57610c3e565b60ff1983168652811515820286019350610c3e565b610c1485610baf565b60005b83811015610c3657815481890152600182019150602081019050610c17565b838801955050505b50505092915050565b6000610c538284610bc4565b915081905092915050565b7f4f4e4c595f4f574e455200000000000000000000000000000000000000000000600082015250565b6000610c94600a83610822565b9150610c9f82610c5e565b602082019050919050565b60006020820190508181036000830152610cc381610c87565b9050919050565b7f494e564553544f52000000000000000000000000000000000000000000000000600082015250565b6000610d00600883610b43565b9150610d0b82610cca565b600882019050919050565b6000610d2182610cf3565b9150819050919050565b7f476f763a2057524f4e475f434f4e545241435400000000000000000000000000600082015250565b6000610d61601383610822565b9150610d6c82610d2b565b602082019050919050565b60006020820190508181036000830152610d9081610d54565b9050919050565b60006020601f8301049050919050565b600082821b905092915050565b600060088302610de47fffffffffffffffffffffffffffffffffffffffffffffffffffffffffffffffff82610da7565b610dee8683610da7565b95508019841693508086168417925050509392505050565b6000819050919050565b6000819050919050565b6000610e35610e30610e2b84610e06565b610e10565b610e06565b9050919050565b6000819050919050565b610e4f83610e1a565b610e63610e5b82610e3c565b848454610db4565b825550505050565b600090565b610e78610e6b565b610e83818484610e46565b505050565b5b81811015610ea757610e9c600082610e70565b600181019050610e89565b5050565b601f821115610eec57610ebd81610baf565b610ec684610d97565b81016020851015610ed5578190505b610ee9610ee185610d97565b830182610e88565b50505b505050565b600082821c905092915050565b6000610f0f60001984600802610ef1565b1980831691505092915050565b6000610f288383610efe565b9150826002028217905092915050565b610f4182610817565b67ffffffffffffffff811115610f5a57610f5961095c565b5b610f648254610b12565b610f6f828285610eab565b600060209050601f831160018114610fa25760008415610f90578287015190505b610f9a8582610f1c565b865550611002565b601f198416610fb086610baf565b60005b82811015610fd857848901518255600182019150602085019450602081019050610fb3565b86831015610ff55784890151610ff1601f891682610efe565b8355505b6001600288020188555050505b50505050505056fea26469706673582212200106975d308bc17eb031e55aa93aaa2764f9b364cf2e637704a94d967196a77f64736f6c63430008130033",
  "linkReferences": {},
  "deployedLinkReferences": {}
}