{
  "_format": "hh-sol-artifact-1",
  "contractName": "Roles",
  "sourceName": "contracts/utils/Roles.sol",
  "abi": [
    {
      "inputs": [],
      "stateMutability": "nonpayable",
      "type": "constructor"
    },
    {
      "inputs": [
        {
          "internalType": "address",
          "name": "_user",
          "type": "address"
        }
      ],
      "name": "getRole",
      "outputs": [
        {
          "internalType": "string",
          "name": "",
          "type": "string"
        }
      ],
      "stateMutability": "view",
      "type": "function"
    },
    {
      "inputs": [],
      "name": "investorContract",
      "outputs": [
        {
          "internalType": "address",
          "name": "",
          "type": "address"
        }
      ],
      "stateMutability": "view",
      "type": "function"
    },
    {
      "inputs": [
        {
          "internalType": "address",
          "name": "_user",
          "type": "address"
        }
      ],
      "name": "isInvestor",
      "outputs": [
        {
          "internalType": "bool",
          "name": "",
          "type": "bool"
        }
      ],
      "stateMutability": "view",
      "type": "function"
    },
    {
      "inputs": [
        {
          "internalType": "address",
          "name": "_user",
          "type": "address"
        }
      ],
      "name": "isIssuer",
      "outputs": [
        {
          "internalType": "bool",
          "name": "",
          "type": "bool"
        }
      ],
      "stateMutability": "view",
      "type": "function"
    },
    {
      "inputs": [],
      "name": "issuerContract",
      "outputs": [
        {
          "internalType": "address",
          "name": "",
          "type": "address"
        }
      ],
      "stateMutability": "view",
      "type": "function"
    },
    {
      "inputs": [],
      "name": "owner",
      "outputs": [
        {
          "internalType": "address",
          "name": "",
          "type": "address"
        }
      ],
      "stateMutability": "view",
      "type": "function"
    },
    {
      "inputs": [
        {
          "internalType": "string",
          "name": "_role",
          "type": "string"
        },
        {
          "internalType": "address",
          "name": "_user",
          "type": "address"
        }
      ],
      "name": "setRole",
      "outputs": [],
      "stateMutability": "nonpayable",
      "type": "function"
    },
    {
      "inputs": [
        {
          "internalType": "address",
          "name": "_toposBankContract",
          "type": "address"
        },
        {
          "internalType": "address",
          "name": "_issuerContract",
          "type": "address"
        },
        {
          "internalType": "address",
          "name": "_investorContract",
          "type": "address"
        }
      ],
      "name": "setToposContracts",
      "outputs": [],
      "stateMutability": "nonpayable",
      "type": "function"
    },
    {
      "inputs": [],
      "name": "toposBankContract",
      "outputs": [
        {
          "internalType": "address",
          "name": "",
          "type": "address"
        }
      ],
      "stateMutability": "view",
      "type": "function"
    }
  ],
  "bytecode": "0x608080604052346100b757600180546001600160a01b0319163390811782556000908152602081905260408120805490929181831c91831680156100ad575b602083101461009957601f8211610070575b5050600e6626a0a720a3a2a960c91b01909155506107c290816100bd8239f35b838152601f60208220920160051c8201915b82811061008f5750610050565b8181558301610082565b634e487b7160e01b81526022600452602490fd5b91607f169161003e565b600080fdfe608060409080825260048036101561001657600080fd5b600091823560e01c9081630c43ae9c146106255750806316d2986f146105fd57806344276733146104e6578063877b9a671461046c5780638da5cb5b146104445780639c34712a1461041c578063a16f90271461034b578063cee2a9cf146102b85763cfde18901461008757600080fd5b346102b457826003193601126102b45767ffffffffffffffff81358181116102b057366023820112156102b0578083013582811161029d57855195602091601f19936100da8486601f850116018a6106ad565b8189523660248383010111610299578188926024869301838c013789010152610101610665565b6001600160a01b039081600254163314801561028c575b8015610280575b1561023e57168652858252852093865193841161022b575061014184546106cf565b601f81116101e8575b508091601f841160011461018757505083948293949261017c575b50508160011b916000199060031b1c191617905580f35b015190503880610165565b8392919216958486528286209286905b8882106101d0575050836001959697106101b7575b505050811b01905580f35b015160001960f88460031b161c191690553880806101ac565b80600185968294968601518155019501930190610197565b848652818620601f850160051c810191838610610221575b601f0160051c01905b818110610216575061014a565b868155600101610209565b9091508190610200565b856041602492634e487b7160e01b835252fd5b6064878585519162461bcd60e51b8352820152601360248201527f476f763a2057524f4e475f434f4e5452414354000000000000000000000000006044820152fd5b5081875416331461011f565b5081600354163314610118565b8780fd5b602485604186634e487b7160e01b835252fd5b8380fd5b5080fd5b8284346102b45760203660031901126102b457806020926001600160a01b036102df61064a565b168152808452208151610307816102f98682018095610709565b03601f1981018352826106ad565b5190208151838101907f494e564553544f520000000000000000000000000000000000000000000000008252600881526103408161067b565b519020149051908152f35b5082346104185760603660031901126104185761036661064a565b61036e610665565b91604435926001600160a01b039182851680950361041457826001541633036103d25750817fffffffffffffffffffffffff000000000000000000000000000000000000000093168360025416176002551681600354161760035582541617905580f35b5162461bcd60e51b8152602081870152600a60248201527f4f4e4c595f4f574e4552000000000000000000000000000000000000000000006044820152606490fd5b8680fd5b8280fd5b8284346102b457816003193601126102b4576020906001600160a01b03600254169051908152f35b8284346102b457816003193601126102b4576020906001600160a01b03600154169051908152f35b8284346102b45760203660031901126102b457806020926001600160a01b0361049361064a565b1681528084522081516104ad816102f98682018095610709565b5190208151838101907f49535355455200000000000000000000000000000000000000000000000000008252600681526103408161067b565b8284346102b457602091826003193601126105fa576001600160a01b0361050b61064a565b16815280835281812090838351809383908054610527816106cf565b808552916001918083169081156105d7575060011461059a575b50505061055492509593929503826106ad565b82519382859384528251928382860152825b84811061058457505050828201840152601f01601f19168101030190f35b8181018301518882018801528795508201610566565b86528486209492508591905b8183106105bf5750889450508201016105548880610541565b855488840185015294850194879450918301916105a6565b9250505061055494925060ff191682840152151560051b82010186928880610541565b80fd5b509190346105fa57806003193601126105fa57506001600160a01b0360209254169051908152f35b8390346102b457816003193601126102b4576020906001600160a01b03600354168152f35b600435906001600160a01b038216820361066057565b600080fd5b602435906001600160a01b038216820361066057565b6040810190811067ffffffffffffffff82111761069757604052565b634e487b7160e01b600052604160045260246000fd5b90601f8019910116810190811067ffffffffffffffff82111761069757604052565b90600182811c921680156106ff575b60208310146106e957565b634e487b7160e01b600052602260045260246000fd5b91607f16916106de565b600092918154610718816106cf565b926001918083169081156107715750600114610735575b50505050565b90919293945060005260209081600020906000915b858310610760575050505001903880808061072f565b80548584015291830191810161074a565b60ff191684525050508115159091020191503880808061072f56fea264697066735822122036be8f16e4ff2d226a616f3204cf2d01107590993abcf9e0546f64c0ac86ddf264736f6c63430008130033",
  "linkReferences": {},
  "deployedLinkReferences": {}
}