{
  "_format": "hh-sol-artifact-1",
  "contractName": "IssuersFund",
  "sourceName": "contracts/treasury/IssuersFund.sol.sol",
  "abi": [
    {
      "inputs": [
        {
          "internalType": "address",
          "name": "_bankContract",
          "type": "address"
        },
        {
          "internalType": "address",
          "name": "_toposTreasury",
          "type": "address"
        }
      ],
      "stateMutability": "nonpayable",
      "type": "constructor"
    },
    {
      "inputs": [
        {
          "internalType": "string",
          "name": "_dealID",
          "type": "string"
        },
        {
          "internalType": "uint256",
          "name": "_amount",
          "type": "uint256"
        }
      ],
      "name": "addFund",
      "outputs": [],
      "stateMutability": "nonpayable",
      "type": "function"
    },
    {
      "inputs": [],
      "name": "toposBankContract",
      "outputs": [
        {
          "internalType": "address",
          "name": "",
          "type": "address"
        }
      ],
      "stateMutability": "view",
      "type": "function"
    },
    {
      "inputs": [],
      "name": "toposManager",
      "outputs": [
        {
          "internalType": "address",
          "name": "",
          "type": "address"
        }
      ],
      "stateMutability": "view",
      "type": "function"
    },
    {
      "inputs": [],
      "name": "toposTreasury",
      "outputs": [
        {
          "internalType": "address",
          "name": "",
          "type": "address"
        }
      ],
      "stateMutability": "view",
      "type": "function"
    },
    {
      "inputs": [
        {
          "internalType": "string",
          "name": "",
          "type": "string"
        }
      ],
      "name": "totalAmount",
      "outputs": [
        {
          "internalType": "uint256",
          "name": "",
          "type": "uint256"
        }
      ],
      "stateMutability": "view",
      "type": "function"
    },
    {
      "inputs": [
        {
          "internalType": "address",
          "name": "_to",
          "type": "address"
        },
        {
          "internalType": "uint256",
          "name": "_amount",
          "type": "uint256"
        },
        {
          "internalType": "address",
          "name": "_tokenAddress",
          "type": "address"
        }
      ],
      "name": "withdraw",
      "outputs": [],
      "stateMutability": "nonpayable",
      "type": "function"
    },
    {
      "inputs": [
        {
          "internalType": "string",
          "name": "_dealID",
          "type": "string"
        },
        {
          "internalType": "address",
          "name": "_issuer",
          "type": "address"
        },
        {
          "internalType": "address",
          "name": "_tokenAddress",
          "type": "address"
        }
      ],
      "name": "withdrawFund",
      "outputs": [],
      "stateMutability": "nonpayable",
      "type": "function"
    }
  ],
  "bytecode": "0x60803461009257601f61085038819003918201601f19168301916001600160401b0383118484101761009757808492604094855283398101031261009257610052602061004b836100ad565b92016100ad565b9060018060a01b0319913383600154161760015560018060a01b038092168360025416176002551690600354161760035560405161078e90816100c28239f35b600080fd5b634e487b7160e01b600052604160045260246000fd5b51906001600160a01b03821682036100925756fe6040608081526004908136101561001557600080fd5b600090813560e01c806314fccfcb146105ca5780633d52baf9146105a357806369328dec146103dd5780637f31ed73146103b6578063925b7cb61461033c5780639c34712a146103155763e04cd97f1461006e57600080fd5b3461031157606036600319011261031157823567ffffffffffffffff811161030d5761009d903690850161064a565b6024356001600160a01b038082168203610309576100b96106df565b918160025416916100cb8333146106f5565b6100d4856106a6565b549286519485917fff6689d0000000000000000000000000000000000000000000000000000000008352828b60209889935afa9182156102ff5789926102cc575b5081850290851592868304148317156102b957670de0b6b3a764000091828102908082048414901517156102a657916101a6888d95938d8d6127108a980497889316996003541690518095819482937fa9059cbb000000000000000000000000000000000000000000000000000000009c8d85528401602090939291936001600160a01b0360408201951681520152565b03918a5af1801561029c5761027f575b5080870296870414171561026c57840393841161025957908798888694936102018a9b9a519788968795869485528401602090939291936001600160a01b0360408201951681520152565b03925af1801561024f5761021d949550610221575b50506106a6565b5580f35b8161024092903d10610248575b6102388183610612565b810190610740565b503880610216565b503d61022e565b85513d86823e3d90fd5b60248860118b634e487b7160e01b835252fd5b60248960118c634e487b7160e01b835252fd5b61029590893d8b11610248576102388183610612565b50386101b6565b8b513d8e823e3d90fd5b60248b60118e634e487b7160e01b835252fd5b60248a60118d634e487b7160e01b835252fd5b9091508581813d83116102f8575b6102e48183610612565b810103126102f457519038610115565b8880fd5b503d6102da565b88513d8b823e3d90fd5b8480fd5b8280fd5b5080fd5b50346103115781600319360112610311576020906001600160a01b03600254169051908152f35b5082903461030d5736600319011261031157803567ffffffffffffffff811161030d5761036c903690830161064a565b6103826001600160a01b036002541633146106f5565b61038b816106a6565b549160243583018093116103a3575061021d906106a6565b836011602492634e487b7160e01b835252fd5b50346103115781600319360112610311576020906001600160a01b03600154169051908152f35b5082903461030d57606036600319011261030d578135906001600160a01b039182811680910361030957602435926104136106df565b816001541633036105605716938251947f70a0823100000000000000000000000000000000000000000000000000000000865230828701526020958681602481855afa908115610556578891610525575b5085116104e35785929187606492865197889586947f23b872dd0000000000000000000000000000000000000000000000000000000086523090860152602485015260448401525af19081156104da57506104bd578280f35b816104d392903d10610248576102388183610612565b5081808280f35b513d85823e3d90fd5b6064828786519162461bcd60e51b8352820152601260248201527f494e53554646494349454e545f46554e445300000000000000000000000000006044820152fd5b90508681813d831161054f575b61053c8183610612565b8101031261054b575188610464565b8780fd5b503d610532565b85513d8a823e3d90fd5b606486602086519162461bcd60e51b8352820152600b60248201527f4e4f545f414c4c4f5745440000000000000000000000000000000000000000006044820152fd5b50346103115781600319360112610311576020906001600160a01b03600354169051908152f35b50903461060f57602036600319011261060f5782359067ffffffffffffffff821161060f57506106026020936106079236910161064a565b6106a6565b549051908152f35b80fd5b90601f8019910116810190811067ffffffffffffffff82111761063457604052565b634e487b7160e01b600052604160045260246000fd5b81601f820112156106a15780359067ffffffffffffffff8211610634576040519261067f601f8401601f191660200185610612565b828452602083830101116106a157816000926020809301838601378301015290565b600080fd5b604051908181519160005b8381106106ca5750506020918101600081520301902090565b602082820181015186830152859350016106b1565b604435906001600160a01b03821682036106a157565b156106fc57565b606460405162461bcd60e51b815260206004820152601660248201527f4973737565727346756e643a204f4e4c595f42414e4b000000000000000000006044820152fd5b908160209103126106a1575180151581036106a1579056fea264697066735822122080054a9059fe8c90ea7014fd2f3ab57426710297985c503213e634d55c57e4cc64736f6c63430008130033",
  "linkReferences": {},
  "deployedLinkReferences": {}
}