{"contracts/Topos/Factory/IRSFactory.sol":{"IRSFactory":{"abi":[{"inputs":[{"internalType":"address","name":"_toposBankContract","type":"address"}],"stateMutability":"nonpayable","type":"constructor"},{"inputs":[{"internalType":"address","name":"_fixedPayerContract","type":"address"},{"internalType":"address","name":"_floatingPayerContract","type":"address"},{"internalType":"uint8","name":"_numberOfSwaps","type":"uint8"},{"internalType":"string","name":"_irsTokenName","type":"string"},{"internalType":"string","name":"_irsTokenSymbol","type":"string"},{"components":[{"internalType":"address","name":"irsContract","type":"address"},{"internalType":"address","name":"fixedInterestPayer","type":"address"},{"internalType":"address","name":"floatingInterestPayer","type":"address"},{"internalType":"uint8","name":"ratesDecimals","type":"uint8"},{"internalType":"uint8","name":"status","type":"uint8"},{"internalType":"uint256","name":"swapRate","type":"uint256"},{"internalType":"uint256","name":"spread","type":"uint256"},{"internalType":"address","name":"assetContract","type":"address"},{"internalType":"uint256","name":"notionalAmount","type":"uint256"},{"internalType":"uint256","name":"paymentFrequency","type":"uint256"},{"internalType":"uint256","name":"startingDate","type":"uint256"},{"internalType":"uint256","name":"maturityDate","type":"uint256"},{"internalType":"uint256","name":"benchmark","type":"uint256"},{"internalType":"uint8","name":"index","type":"uint8"}],"internalType":"struct IRSTypes.IRS","name":"_irs","type":"tuple"},{"internalType":"address","name":"_toposBankContract","type":"address"}],"name":"deployIRSContract","outputs":[],"stateMutability":"nonpayable","type":"function"},{"inputs":[{"internalType":"address","name":"","type":"address"},{"internalType":"address","name":"","type":"address"}],"name":"isIRSContract","outputs":[{"internalType":"bool","name":"","type":"bool"}],"stateMutability":"view","type":"function"},{"inputs":[],"name":"toposBankContract","outputs":[{"internalType":"address","name":"","type":"address"}],"stateMutability":"view","type":"function"},{"inputs":[],"name":"toposManager","outputs":[{"internalType":"address","name":"","type":"address"}],"stateMutability":"view","type":"function"}],"evm":{"bytecode":{"linkReferences":{},"object":"608060405234801561001057600080fd5b5060405161281c38038061281c83398101604081905261002f91610062565b60018054336001600160a01b031991821617909155600280549091166001600160a01b0392909216919091179055610092565b60006020828403121561007457600080fd5b81516001600160a01b038116811461008b57600080fd5b9392505050565b61277b806100a16000396000f3fe60806040523480156200001157600080fd5b5060043610620000525760003560e01c80631e0e928f14620000575780637f31ed73146200009a5780639c34712a14620000c7578063a07a158914620000db575b600080fd5b620000856200006836600462000372565b600060208181529281526040808220909352908152205460ff1681565b60405190151581526020015b60405180910390f35b600154620000ae906001600160a01b031681565b6040516001600160a01b03909116815260200162000091565b600254620000ae906001600160a01b031681565b620000f2620000ec36600462000494565b620000f4565b005b6001546001600160a01b03163314620001545760405162461bcd60e51b815260206004820152600b60248201527f6e6f7420616c6c6f77656400000000000000000000000000000000000000000060448201526064015b60405180910390fd5b6001600160a01b03808816600090815260208181526040808320938a168352929052205460ff1615620001ca5760405162461bcd60e51b815260206004820152600860248201527f4465706c6f79656400000000000000000000000000000000000000000000000060448201526064016200014b565b6040516bffffffffffffffffffffffff19606089811b8216602084015288901b16603482015260009060480160405160208183030381529060405262000210906200064a565b88888888888888604051620002259062000347565b620002379796959493929190620007a1565b8190604051809103906000f590508015801562000258573d6000803e3d6000fd5b506001608085015260035460ff166101a08501526001600160a01b0380821685526002546040517f2e55f4870000000000000000000000000000000000000000000000000000000081529293501690632e55f48790620002c3908b908b908690899060040162000816565b600060405180830381600087803b158015620002de57600080fd5b505af1158015620002f3573d6000803e3d6000fd5b5050506001600160a01b03808a16600090815260208181526040808320938c168352929052908120805460ff191660011790556003805492509062000338836200084f565b91905055505050505050505050565b611ece806200087883390190565b80356001600160a01b03811681146200036d57600080fd5b919050565b600080604083850312156200038657600080fd5b620003918362000355565b9150620003a16020840162000355565b90509250929050565b803560ff811681146200036d57600080fd5b634e487b7160e01b600052604160045260246000fd5b6040516101c0810167ffffffffffffffff81118282101715620003f957620003f9620003bc565b60405290565b600082601f8301126200041157600080fd5b813567ffffffffffffffff808211156200042f576200042f620003bc565b604051601f8301601f19908116603f011681019082821181831017156200045a576200045a620003bc565b816040528381528660208588010111156200047457600080fd5b836020870160208301376000602085830101528094505050505092915050565b6000806000806000806000878903610280811215620004b257600080fd5b620004bd8962000355565b9750620004cd60208a0162000355565b9650620004dd60408a01620003aa565b9550606089013567ffffffffffffffff80821115620004fb57600080fd5b620005098c838d01620003ff565b965060808b01359150808211156200052057600080fd5b506200052f8b828c01620003ff565b9450506101c0609f19820112156200054657600080fd5b5062000551620003d2565b6200055f60a08a0162000355565b81526200056f60c08a0162000355565b60208201526200058260e08a0162000355565b6040820152620005966101008a01620003aa565b6060820152610120620005ab818b01620003aa565b6080830152610140808b013560a0840152610160808c013560c0850152610180620005d8818e0162000355565b60e08601526101a0808e01356101008701526101c08e0135858701526101e08e0135848701526102008e0135838701526102208e013582870152620006216102408f01620003aa565b90860152509294506200063c92505050610260890162000355565b905092959891949750929550565b805160208083015191908110156200066c576000198160200360031b1b821691505b50919050565b6000815180845260005b818110156200069a576020818501810151868301820152016200067c565b506000602082860101526020601f19601f83011685010191505092915050565b80516001600160a01b031682526020810151620006e260208401826001600160a01b03169052565b506040810151620006fe60408401826001600160a01b03169052565b50606081015162000714606084018260ff169052565b5060808101516200072a608084018260ff169052565b5060a081015160a083015260c081015160c083015260e08101516200075a60e08401826001600160a01b03169052565b50610100818101519083015261012080820151908301526101408082015190830152610160808201519083015261018080820151908301526101a09081015160ff16910152565b60006102806001600160a01b03808b168452808a16602085015260ff89166040850152816060850152620007d88285018962000672565b91508382036080850152620007ee828862000672565b9250620007ff60a0850187620006ba565b808516610260850152505098975050505050505050565b6001600160a01b0385811682528481166020830152831660408201526102208101620008466060830184620006ba565b95945050505050565b6000600182016200087057634e487b7160e01b600052601160045260246000fd5b506001019056fe60806040523480156200001157600080fd5b5060405162001ece38038062001ece83398101604081905262000034916200033e565b8383601362000044838262000583565b50601462000053828262000583565b5050600c80546001600160a01b03199081166001600160a01b038b811691909117909255600d805482168a8416179055600f80548651600080548516918616919091178155602088015160018054861691871691909117905560408801516002805460608b015160808c015160ff60a81b19948a166001600160a81b031990931692909217600160a01b60ff92831681029190911794909416600160a81b92821683021790925560a08b015160035560c08b015160045560e08b0151600580548916918a169190911790556101008b01516006556101208b01516007556101408b01516008556101608b01516009556101808b0151600a556101a08b0151600b805460ff1916918416919091179055600e80543390891617905561ffff60a01b19909416908d1693840260ff60a01b191617179093169386169390931790559150620001a890670de0b6b3a76400006200064f565b6020808501516001600160a01b0390811660009081526010909252604080832084905580870151909116825290208190559050620001e88160026200064f565b60125550506002805460ff60a81b1916600160a81b179055506200067b945050505050565b80516001600160a01b03811681146200022557600080fd5b919050565b805160ff811681146200022557600080fd5b634e487b7160e01b600052604160045260246000fd5b6040516101c081016001600160401b03811182821017156200027857620002786200023c565b60405290565b604051601f8201601f191681016001600160401b0381118282101715620002a957620002a96200023c565b604052919050565b600082601f830112620002c357600080fd5b81516001600160401b03811115620002df57620002df6200023c565b6020620002f5601f8301601f191682016200027e565b82815285828487010111156200030a57600080fd5b60005b838110156200032a5785810183015182820184015282016200030d565b506000928101909101919091529392505050565b60008060008060008060008789036102808112156200035c57600080fd5b62000367896200020d565b97506200037760208a016200020d565b96506200038760408a016200022a565b60608a01519096506001600160401b0380821115620003a557600080fd5b620003b38c838d01620002b1565b965060808b0151915080821115620003ca57600080fd5b50620003d98b828c01620002b1565b9450506101c0609f1982011215620003f057600080fd5b50620003fb62000252565b6200040960a08a016200020d565b81526200041960c08a016200020d565b60208201526200042c60e08a016200020d565b6040820152620004406101008a016200022a565b606082015261012062000455818b016200022a565b6080830152610140808b015160a0840152610160808c015160c085015261018062000482818e016200020d565b60e08601526101a0808e01516101008701526101c08e0151858701526101e08e0151848701526102008e0151838701526102208e015182870152620004cb6102408f016200022a565b9086015250929450620004e69250505061026089016200020d565b905092959891949750929550565b600181811c908216806200050957607f821691505b6020821081036200052a57634e487b7160e01b600052602260045260246000fd5b50919050565b601f8211156200057e57600081815260208120601f850160051c81016020861015620005595750805b601f850160051c820191505b818110156200057a5782815560010162000565565b5050505b505050565b81516001600160401b038111156200059f576200059f6200023c565b620005b781620005b08454620004f4565b8462000530565b602080601f831160018114620005ef5760008415620005d65750858301515b600019600386901b1c1916600185901b1785556200057a565b600085815260208120601f198616915b828110156200062057888601518255948401946001909101908401620005ff565b50858210156200063f5787850151600019600388901b60f8161c191681555b5050505050600190811b01905550565b80820281158282048414176200067557634e487b7160e01b600052601160045260246000fd5b92915050565b611843806200068b6000396000f3fe608060405234801561001057600080fd5b50600436106102ad5760003560e01c80638119c0651161017b578063a9059cbb116100d8578063d81671bc1161008c578063e823b1da11610071578063e823b1da1461066c578063e8f9d2f91461067e578063ecba89c51461069257600080fd5b8063d81671bc14610621578063dd62ed3e1461063357600080fd5b8063beb9ad5f116100bd578063beb9ad5f146105f7578063c4c22a8414610608578063d59624b41461061957600080fd5b8063a9059cbb146105d3578063be2da873146105e657600080fd5b806395d89b411161012f5780639dc29fac116101145780639dc29fac146105a5578063a26c1aa2146105b8578063a457c2d7146105c057600080fd5b806395d89b411461058a5780639c34712a1461059257600080fd5b80638da5cb5b116101605780638da5cb5b1461055d5780638e589315146105705780638f5949f91461057857600080fd5b80638119c0651461054d5780638903c5a21461055557600080fd5b80633e3ff7b6116102295780634d1d62fa116101dd5780635c25c76c116101c25780635c25c76c14610514578063698518e51461051c57806370a082311461052457600080fd5b80634d1d62fa146104ef578063530c61cf1461050157600080fd5b806342abea791161020e57806342abea79146103ac578063442447ca146104d45780634d16304f146104de57600080fd5b80633e3ff7b61461039157806340c10f191461039957600080fd5b806323b872dd11610280578063313ce56711610265578063313ce5671461035257806338cb8a2514610359578063395093511461037e57600080fd5b806323b872dd1461032b5780632eff0d9e1461033e57600080fd5b806306fdde03146102b2578063095ea7b3146102d057806318160ddd146102f357806322f3e2d414610305575b600080fd5b6102ba6106a5565b6040516102c791906114f8565b60405180910390f35b6102e36102de366004611562565b610737565b60405190151581526020016102c7565b6012545b6040519081526020016102c7565b600f5461031990600160a01b900460ff1681565b60405160ff90911681526020016102c7565b6102e361033936600461158c565b610751565b600f5461031990600160b01b900460ff1681565b6012610319565b600d546001600160a01b03165b6040516001600160a01b0390911681526020016102c7565b6102e361038c366004611562565b610775565b6008546102f7565b6102e36103a7366004611562565b6107b4565b6104c7604080516101c081018252600080825260208201819052918101829052606081018290526080810182905260a0810182905260c0810182905260e08101829052610100810182905261012081018290526101408101829052610160810182905261018081018290526101a081019190915250604080516101c0810182526000546001600160a01b039081168252600154811660208301526002548082169383019390935260ff600160a01b840481166060840152600160a81b9093048316608083015260035460a083015260045460c08301526005541660e0820152600654610100820152600754610120820152600854610140820152600954610160820152600a54610180820152600b549091166101a082015290565b6040516102c791906115c8565b6104dc610881565b005b6005546001600160a01b0316610366565b600f54600160a81b900460ff16610319565b600d54610366906001600160a01b031681565b6004546102f7565b6003546102f7565b6102f76105323660046116b5565b6001600160a01b031660009081526010602052604090205490565b6102e36109a4565b6102f7610d85565b600e54610366906001600160a01b031681565b6007546102f7565b600f54600160a01b900460ff16610319565b6102ba610e11565b600f54610366906001600160a01b031681565b6102e36105b3366004611562565b610e20565b6006546102f7565b6102e36105ce366004611562565b610f8d565b6102e36105e1366004611562565b611037565b6002546001600160a01b0316610366565b600c546001600160a01b0316610366565b6001546001600160a01b0316610366565b6009546102f7565b600f54600160b01b900460ff16610319565b6102f76106413660046116d7565b6001600160a01b03918216600090815260116020908152604080832093909416825291909152205490565b600254600160a01b900460ff16610319565b600f5461031990600160a81b900460ff1681565b600c54610366906001600160a01b031681565b6060601380546106b49061170a565b80601f01602080910402602001604051908101604052809291908181526020018280546106e09061170a565b801561072d5780601f106107025761010080835404028352916020019161072d565b820191906000526020600020905b81548152906001019060200180831161071057829003601f168201915b5050505050905090565b600033610745818585611045565b60019150505b92915050565b60003361075f85828561119d565b61076a85858561122f565b506001949350505050565b3360008181526011602090815260408083206001600160a01b038716845290915281205490919061074590829086906107af90879061175a565b611045565b60006001600160a01b0383166108115760405162461bcd60e51b815260206004820152601f60248201527f45524332303a206d696e7420746f20746865207a65726f20616464726573730060448201526064015b60405180910390fd5b8160126000828254610823919061175a565b90915550506001600160a01b0383166000818152601060209081526040808320805487019055518581527fddf252ad1be2c89b69c2b068fc378daa952ba7f163c4a11628f55a4df523b3ef910160405180910390a350600192915050565b600f546001600160a01b031633146108db5760405162461bcd60e51b815260206004820152601260248201527f4f6e6c792042616e6b20436f6e747261637400000000000000000000000000006044820152606401610808565b600f54600160a01b900460ff166001146109245760405162461bcd60e51b815260206004820152600a6024820152694e6f742041637469766560b01b6044820152606401610808565b600280547fffffffffffffffffffff00ffffffffffffffffffffffffffffffffffffffffff81167502000000000000000000000000000000000000000000179091556001546040516001600160a01b0392831692909116907f1aa6c8c6f9b0ff26b8661bdc3ce83e7caf565c568af549f21922fa9561363cc290600090a3565b600f546000906001600160a01b03163314610a015760405162461bcd60e51b815260206004820152601260248201527f4f6e6c792042616e6b20436f6e747261637400000000000000000000000000006044820152606401610808565b600f54600160a01b900460ff16600114610a4a5760405162461bcd60e51b815260206004820152600a6024820152694e6f742041637469766560b01b6044820152606401610808565b600254600160a81b900460ff16600114610aa65760405162461bcd60e51b815260206004820152601260248201527f4e6f74204578697374206f7220456e64656400000000000000000000000000006044820152606401610808565b600354600454600a54600091610abb9161175a565b6006549091506000610acd848361176d565b90506000610adb848461176d565b90506000806000838503610b315760405162461bcd60e51b815260206004820152600e60248201527f4e6f74696e6720746f20737761700000000000000000000000000000000000006044820152606401610808565b83851115610b6157610b438486611784565b6002546001549194506001600160a01b039081169350169050610b85565b610b6b8585611784565b6001546002549194506001600160a01b0390811693501690505b600f54600160b01b900460ff16610b9d816001611797565b600f80547fffffffffffffffffff00ffffffffffffffffffffffffffffffffffffffffffff16600160b01b60ff93841681029190911791829055600160a81b8204831691049091161115610c335760405162461bcd60e51b815260206004820152600f60248201527f416c6c20737761707320646f6e652100000000000000000000000000000000006044820152606401610808565b600154610c51906001600160a01b0316670de0b6b3a7640000610e20565b50600254610c70906001600160a01b0316670de0b6b3a7640000610e20565b506005546001600160a01b03166323b872dd8385612710610c9989670de0b6b3a764000061176d565b610ca391906117b0565b6040517fffffffff0000000000000000000000000000000000000000000000000000000060e086901b1681526001600160a01b03938416600482015292909116602483015260448201526064016020604051808303816000875af1158015610d0f573d6000803e3d6000fd5b505050506040513d601f19601f82011682018060405250810190610d3391906117d2565b50604080518581526001600160a01b03851660208201527f757e61e0d078d58246a59b2ffe29975dc7053b43aa3a163b3b5b43fc1fb0c147910160405180910390a16001995050505050505050505090565b600f54604080517f79a9456900000000000000000000000000000000000000000000000000000000815290516000926001600160a01b0316916379a945699160048083019260209291908290030181865afa158015610de8573d6000803e3d6000fd5b505050506040513d601f19601f82011682018060405250810190610e0c91906117f4565b905090565b6060601480546106b49061170a565b60006001600160a01b038316610e9e5760405162461bcd60e51b815260206004820152602160248201527f45524332303a206275726e2066726f6d20746865207a65726f2061646472657360448201527f73000000000000000000000000000000000000000000000000000000000000006064820152608401610808565b6001600160a01b03831660009081526010602052604090205482811015610f2d5760405162461bcd60e51b815260206004820152602260248201527f45524332303a206275726e20616d6f756e7420657863656564732062616c616e60448201527f63650000000000000000000000000000000000000000000000000000000000006064820152608401610808565b6001600160a01b03841660008181526010602090815260408083208786039055601280548890039055518681529192917fddf252ad1be2c89b69c2b068fc378daa952ba7f163c4a11628f55a4df523b3ef910160405180910390a3610745565b3360008181526011602090815260408083206001600160a01b03871684529091528120549091908381101561102a5760405162461bcd60e51b815260206004820152602560248201527f45524332303a2064656372656173656420616c6c6f77616e63652062656c6f7760448201527f207a65726f0000000000000000000000000000000000000000000000000000006064820152608401610808565b61076a8286868403611045565b60003361074581858561122f565b6001600160a01b0383166110c05760405162461bcd60e51b8152602060048201526024808201527f45524332303a20617070726f76652066726f6d20746865207a65726f2061646460448201527f72657373000000000000000000000000000000000000000000000000000000006064820152608401610808565b6001600160a01b03821661113c5760405162461bcd60e51b815260206004820152602260248201527f45524332303a20617070726f766520746f20746865207a65726f20616464726560448201527f73730000000000000000000000000000000000000000000000000000000000006064820152608401610808565b6001600160a01b0383811660008181526011602090815260408083209487168084529482529182902085905590518481527f8c5be1e5ebec7d5bd14f71427d1e84f3dd0314c0f7b2291e5b200ac8c7c3b925910160405180910390a3505050565b6001600160a01b038381166000908152601160209081526040808320938616835292905220546000198114611229578181101561121c5760405162461bcd60e51b815260206004820152601d60248201527f45524332303a20696e73756666696369656e7420616c6c6f77616e63650000006044820152606401610808565b6112298484848403611045565b50505050565b6001600160a01b0383166112ab5760405162461bcd60e51b815260206004820152602560248201527f45524332303a207472616e736665722066726f6d20746865207a65726f20616460448201527f64726573730000000000000000000000000000000000000000000000000000006064820152608401610808565b6001600160a01b0382166113275760405162461bcd60e51b815260206004820152602360248201527f45524332303a207472616e7366657220746f20746865207a65726f206164647260448201527f65737300000000000000000000000000000000000000000000000000000000006064820152608401610808565b6001600160a01b038316600090815260106020526040902054818110156113b65760405162461bcd60e51b815260206004820152602660248201527f45524332303a207472616e7366657220616d6f756e742065786365656473206260448201527f616c616e636500000000000000000000000000000000000000000000000000006064820152608401610808565b6001600160a01b03808516600081815260106020526040808220868603905586841682529020805485019055600154909116900361141b576001805473ffffffffffffffffffffffffffffffffffffffff19166001600160a01b0385161790556114a6565b6002546001600160a01b039081169085160361145e576002805473ffffffffffffffffffffffffffffffffffffffff19166001600160a01b0385161790556114a6565b60405162461bcd60e51b815260206004820152601460248201527f696e76616c69642066726f6d20616464726573730000000000000000000000006044820152606401610808565b826001600160a01b0316846001600160a01b03167fddf252ad1be2c89b69c2b068fc378daa952ba7f163c4a11628f55a4df523b3ef846040516114eb91815260200190565b60405180910390a3611229565b600060208083528351808285015260005b8181101561152557858101830151858201604001528201611509565b506000604082860101526040601f19601f8301168501019250505092915050565b80356001600160a01b038116811461155d57600080fd5b919050565b6000806040838503121561157557600080fd5b61157e83611546565b946020939093013593505050565b6000806000606084860312156115a157600080fd5b6115aa84611546565b92506115b860208501611546565b9150604084013590509250925092565b81516001600160a01b031681526101c0810160208301516115f460208401826001600160a01b03169052565b50604083015161160f60408401826001600160a01b03169052565b506060830151611624606084018260ff169052565b506080830151611639608084018260ff169052565b5060a083015160a083015260c083015160c083015260e083015161166860e08401826001600160a01b03169052565b50610100838101519083015261012080840151908301526101408084015190830152610160808401519083015261018080840151908301526101a09283015160ff16929091019190915290565b6000602082840312156116c757600080fd5b6116d082611546565b9392505050565b600080604083850312156116ea57600080fd5b6116f383611546565b915061170160208401611546565b90509250929050565b600181811c9082168061171e57607f821691505b60208210810361173e57634e487b7160e01b600052602260045260246000fd5b50919050565b634e487b7160e01b600052601160045260246000fd5b8082018082111561074b5761074b611744565b808202811582820484141761074b5761074b611744565b8181038181111561074b5761074b611744565b60ff818116838216019081111561074b5761074b611744565b6000826117cd57634e487b7160e01b600052601260045260246000fd5b500490565b6000602082840312156117e457600080fd5b815180151581146116d057600080fd5b60006020828403121561180657600080fd5b505191905056fea26469706673582212206dbe5f14754eeed26019a832d8d820c6f9e57d664c1bae7af5ffe8281b86435c64736f6c63430008130033a2646970667358221220132a9ba5663266e779bb7b611ec906e9413e2b5175036bb2f3971c6ca275d1e864736f6c63430008130033","opcodes":"PUSH1 0x80 PUSH1 0x40 MSTORE CALLVALUE DUP1 ISZERO PUSH2 0x10 JUMPI PUSH1 0x0 DUP1 REVERT JUMPDEST POP PUSH1 0x40 MLOAD PUSH2 0x281C CODESIZE SUB DUP1 PUSH2 0x281C DUP4 CODECOPY DUP2 ADD PUSH1 0x40 DUP2 SWAP1 MSTORE PUSH2 0x2F SWAP2 PUSH2 0x62 JUMP JUMPDEST PUSH1 0x1 DUP1 SLOAD CALLER PUSH1 0x1 PUSH1 0x1 PUSH1 0xA0 SHL SUB NOT SWAP2 DUP3 AND OR SWAP1 SWAP2 SSTORE PUSH1 0x2 DUP1 SLOAD SWAP1 SWAP2 AND PUSH1 0x1 PUSH1 0x1 PUSH1 0xA0 SHL SUB SWAP3 SWAP1 SWAP3 AND SWAP2 SWAP1 SWAP2 OR SWAP1 SSTORE PUSH2 0x92 JUMP JUMPDEST PUSH1 0x0 PUSH1 0x20 DUP3 DUP5 SUB SLT ISZERO PUSH2 0x74 JUMPI PUSH1 0x0 DUP1 REVERT JUMPDEST DUP2 MLOAD PUSH1 0x1 PUSH1 0x1 PUSH1 0xA0 SHL SUB DUP2 AND DUP2 EQ PUSH2 0x8B JUMPI PUSH1 0x0 DUP1 REVERT JUMPDEST SWAP4 SWAP3 POP POP POP JUMP JUMPDEST PUSH2 0x277B DUP1 PUSH2 0xA1 PUSH1 0x0 CODECOPY PUSH1 0x0 RETURN INVALID PUSH1 0x80 PUSH1 0x40 MSTORE CALLVALUE DUP1 ISZERO PUSH3 0x11 JUMPI PUSH1 0x0 DUP1 REVERT JUMPDEST POP PUSH1 0x4 CALLDATASIZE LT PUSH3 0x52 JUMPI PUSH1 0x0 CALLDATALOAD PUSH1 0xE0 SHR DUP1 PUSH4 0x1E0E928F EQ PUSH3 0x57 JUMPI DUP1 PUSH4 0x7F31ED73 EQ PUSH3 0x9A JUMPI DUP1 PUSH4 0x9C34712A EQ PUSH3 0xC7 JUMPI DUP1 PUSH4 0xA07A1589 EQ PUSH3 0xDB JUMPI JUMPDEST PUSH1 0x0 DUP1 REVERT JUMPDEST PUSH3 0x85 PUSH3 0x68 CALLDATASIZE PUSH1 0x4 PUSH3 0x372 JUMP JUMPDEST PUSH1 0x0 PUSH1 0x20 DUP2 DUP2 MSTORE SWAP3 DUP2 MSTORE PUSH1 0x40 DUP1 DUP3 KECCAK256 SWAP1 SWAP4 MSTORE SWAP1 DUP2 MSTORE KECCAK256 SLOAD PUSH1 0xFF AND DUP2 JUMP JUMPDEST PUSH1 0x40 MLOAD SWAP1 ISZERO ISZERO DUP2 MSTORE PUSH1 0x20 ADD JUMPDEST PUSH1 0x40 MLOAD DUP1 SWAP2 SUB SWAP1 RETURN JUMPDEST PUSH1 0x1 SLOAD PUSH3 0xAE SWAP1 PUSH1 0x1 PUSH1 0x1 PUSH1 0xA0 SHL SUB AND DUP2 JUMP JUMPDEST PUSH1 0x40 MLOAD PUSH1 0x1 PUSH1 0x1 PUSH1 0xA0 SHL SUB SWAP1 SWAP2 AND DUP2 MSTORE PUSH1 0x20 ADD PUSH3 0x91 JUMP JUMPDEST PUSH1 0x2 SLOAD PUSH3 0xAE SWAP1 PUSH1 0x1 PUSH1 0x1 PUSH1 0xA0 SHL SUB AND DUP2 JUMP JUMPDEST PUSH3 0xF2 PUSH3 0xEC CALLDATASIZE PUSH1 0x4 PUSH3 0x494 JUMP JUMPDEST PUSH3 0xF4 JUMP JUMPDEST STOP JUMPDEST PUSH1 0x1 SLOAD PUSH1 0x1 PUSH1 0x1 PUSH1 0xA0 SHL SUB AND CALLER EQ PUSH3 0x154 JUMPI PUSH1 0x40 MLOAD PUSH3 0x461BCD PUSH1 0xE5 SHL DUP2 MSTORE PUSH1 0x20 PUSH1 0x4 DUP3 ADD MSTORE PUSH1 0xB PUSH1 0x24 DUP3 ADD MSTORE PUSH32 0x6E6F7420616C6C6F776564000000000000000000000000000000000000000000 PUSH1 0x44 DUP3 ADD MSTORE PUSH1 0x64 ADD JUMPDEST PUSH1 0x40 MLOAD DUP1 SWAP2 SUB SWAP1 REVERT JUMPDEST PUSH1 0x1 PUSH1 0x1 PUSH1 0xA0 SHL SUB DUP1 DUP9 AND PUSH1 0x0 SWAP1 DUP2 MSTORE PUSH1 0x20 DUP2 DUP2 MSTORE PUSH1 0x40 DUP1 DUP4 KECCAK256 SWAP4 DUP11 AND DUP4 MSTORE SWAP3 SWAP1 MSTORE KECCAK256 SLOAD PUSH1 0xFF AND ISZERO PUSH3 0x1CA JUMPI PUSH1 0x40 MLOAD PUSH3 0x461BCD PUSH1 0xE5 SHL DUP2 MSTORE PUSH1 0x20 PUSH1 0x4 DUP3 ADD MSTORE PUSH1 0x8 PUSH1 0x24 DUP3 ADD MSTORE PUSH32 0x4465706C6F796564000000000000000000000000000000000000000000000000 PUSH1 0x44 DUP3 ADD MSTORE PUSH1 0x64 ADD PUSH3 0x14B JUMP JUMPDEST PUSH1 0x40 MLOAD PUSH12 0xFFFFFFFFFFFFFFFFFFFFFFFF NOT PUSH1 0x60 DUP10 DUP2 SHL DUP3 AND PUSH1 0x20 DUP5 ADD MSTORE DUP9 SWAP1 SHL AND PUSH1 0x34 DUP3 ADD MSTORE PUSH1 0x0 SWAP1 PUSH1 0x48 ADD PUSH1 0x40 MLOAD PUSH1 0x20 DUP2 DUP4 SUB SUB DUP2 MSTORE SWAP1 PUSH1 0x40 MSTORE PUSH3 0x210 SWAP1 PUSH3 0x64A JUMP JUMPDEST DUP9 DUP9 DUP9 DUP9 DUP9 DUP9 DUP9 PUSH1 0x40 MLOAD PUSH3 0x225 SWAP1 PUSH3 0x347 JUMP JUMPDEST PUSH3 0x237 SWAP8 SWAP7 SWAP6 SWAP5 SWAP4 SWAP3 SWAP2 SWAP1 PUSH3 0x7A1 JUMP JUMPDEST DUP2 SWAP1 PUSH1 0x40 MLOAD DUP1 SWAP2 SUB SWAP1 PUSH1 0x0 CREATE2 SWAP1 POP DUP1 ISZERO DUP1 ISZERO PUSH3 0x258 JUMPI RETURNDATASIZE PUSH1 0x0 DUP1 RETURNDATACOPY RETURNDATASIZE PUSH1 0x0 REVERT JUMPDEST POP PUSH1 0x1 PUSH1 0x80 DUP6 ADD MSTORE PUSH1 0x3 SLOAD PUSH1 0xFF AND PUSH2 0x1A0 DUP6 ADD MSTORE PUSH1 0x1 PUSH1 0x1 PUSH1 0xA0 SHL SUB DUP1 DUP3 AND DUP6 MSTORE PUSH1 0x2 SLOAD PUSH1 0x40 MLOAD PUSH32 0x2E55F48700000000000000000000000000000000000000000000000000000000 DUP2 MSTORE SWAP3 SWAP4 POP AND SWAP1 PUSH4 0x2E55F487 SWAP1 PUSH3 0x2C3 SWAP1 DUP12 SWAP1 DUP12 SWAP1 DUP7 SWAP1 DUP10 SWAP1 PUSH1 0x4 ADD PUSH3 0x816 JUMP JUMPDEST PUSH1 0x0 PUSH1 0x40 MLOAD DUP1 DUP4 SUB DUP2 PUSH1 0x0 DUP8 DUP1 EXTCODESIZE ISZERO DUP1 ISZERO PUSH3 0x2DE JUMPI PUSH1 0x0 DUP1 REVERT JUMPDEST POP GAS CALL ISZERO DUP1 ISZERO PUSH3 0x2F3 JUMPI RETURNDATASIZE PUSH1 0x0 DUP1 RETURNDATACOPY RETURNDATASIZE PUSH1 0x0 REVERT JUMPDEST POP POP POP PUSH1 0x1 PUSH1 0x1 PUSH1 0xA0 SHL SUB DUP1 DUP11 AND PUSH1 0x0 SWAP1 DUP2 MSTORE PUSH1 0x20 DUP2 DUP2 MSTORE PUSH1 0x40 DUP1 DUP4 KECCAK256 SWAP4 DUP13 AND DUP4 MSTORE SWAP3 SWAP1 MSTORE SWAP1 DUP2 KECCAK256 DUP1 SLOAD PUSH1 0xFF NOT AND PUSH1 0x1 OR SWAP1 SSTORE PUSH1 0x3 DUP1 SLOAD SWAP3 POP SWAP1 PUSH3 0x338 DUP4 PUSH3 0x84F JUMP JUMPDEST SWAP2 SWAP1 POP SSTORE POP POP POP POP POP POP POP POP POP JUMP JUMPDEST PUSH2 0x1ECE DUP1 PUSH3 0x878 DUP4 CODECOPY ADD SWAP1 JUMP JUMPDEST DUP1 CALLDATALOAD PUSH1 0x1 PUSH1 0x1 PUSH1 0xA0 SHL SUB DUP2 AND DUP2 EQ PUSH3 0x36D JUMPI PUSH1 0x0 DUP1 REVERT JUMPDEST SWAP2 SWAP1 POP JUMP JUMPDEST PUSH1 0x0 DUP1 PUSH1 0x40 DUP4 DUP6 SUB SLT ISZERO PUSH3 0x386 JUMPI PUSH1 0x0 DUP1 REVERT JUMPDEST PUSH3 0x391 DUP4 PUSH3 0x355 JUMP JUMPDEST SWAP2 POP PUSH3 0x3A1 PUSH1 0x20 DUP5 ADD PUSH3 0x355 JUMP JUMPDEST SWAP1 POP SWAP3 POP SWAP3 SWAP1 POP JUMP JUMPDEST DUP1 CALLDATALOAD PUSH1 0xFF DUP2 AND DUP2 EQ PUSH3 0x36D JUMPI PUSH1 0x0 DUP1 REVERT JUMPDEST PUSH4 0x4E487B71 PUSH1 0xE0 SHL PUSH1 0x0 MSTORE PUSH1 0x41 PUSH1 0x4 MSTORE PUSH1 0x24 PUSH1 0x0 REVERT JUMPDEST PUSH1 0x40 MLOAD PUSH2 0x1C0 DUP2 ADD PUSH8 0xFFFFFFFFFFFFFFFF DUP2 GT DUP3 DUP3 LT OR ISZERO PUSH3 0x3F9 JUMPI PUSH3 0x3F9 PUSH3 0x3BC JUMP JUMPDEST PUSH1 0x40 MSTORE SWAP1 JUMP JUMPDEST PUSH1 0x0 DUP3 PUSH1 0x1F DUP4 ADD SLT PUSH3 0x411 JUMPI PUSH1 0x0 DUP1 REVERT JUMPDEST DUP2 CALLDATALOAD PUSH8 0xFFFFFFFFFFFFFFFF DUP1 DUP3 GT ISZERO PUSH3 0x42F JUMPI PUSH3 0x42F PUSH3 0x3BC JUMP JUMPDEST PUSH1 0x40 MLOAD PUSH1 0x1F DUP4 ADD PUSH1 0x1F NOT SWAP1 DUP2 AND PUSH1 0x3F ADD AND DUP2 ADD SWAP1 DUP3 DUP3 GT DUP2 DUP4 LT OR ISZERO PUSH3 0x45A JUMPI PUSH3 0x45A PUSH3 0x3BC JUMP JUMPDEST DUP2 PUSH1 0x40 MSTORE DUP4 DUP2 MSTORE DUP7 PUSH1 0x20 DUP6 DUP9 ADD ADD GT ISZERO PUSH3 0x474 JUMPI PUSH1 0x0 DUP1 REVERT JUMPDEST DUP4 PUSH1 0x20 DUP8 ADD PUSH1 0x20 DUP4 ADD CALLDATACOPY PUSH1 0x0 PUSH1 0x20 DUP6 DUP4 ADD ADD MSTORE DUP1 SWAP5 POP POP POP POP POP SWAP3 SWAP2 POP POP JUMP JUMPDEST PUSH1 0x0 DUP1 PUSH1 0x0 DUP1 PUSH1 0x0 DUP1 PUSH1 0x0 DUP8 DUP10 SUB PUSH2 0x280 DUP2 SLT ISZERO PUSH3 0x4B2 JUMPI PUSH1 0x0 DUP1 REVERT JUMPDEST PUSH3 0x4BD DUP10 PUSH3 0x355 JUMP JUMPDEST SWAP8 POP PUSH3 0x4CD PUSH1 0x20 DUP11 ADD PUSH3 0x355 JUMP JUMPDEST SWAP7 POP PUSH3 0x4DD PUSH1 0x40 DUP11 ADD PUSH3 0x3AA JUMP JUMPDEST SWAP6 POP PUSH1 0x60 DUP10 ADD CALLDATALOAD PUSH8 0xFFFFFFFFFFFFFFFF DUP1 DUP3 GT ISZERO PUSH3 0x4FB JUMPI PUSH1 0x0 DUP1 REVERT JUMPDEST PUSH3 0x509 DUP13 DUP4 DUP14 ADD PUSH3 0x3FF JUMP JUMPDEST SWAP7 POP PUSH1 0x80 DUP12 ADD CALLDATALOAD SWAP2 POP DUP1 DUP3 GT ISZERO PUSH3 0x520 JUMPI PUSH1 0x0 DUP1 REVERT JUMPDEST POP PUSH3 0x52F DUP12 DUP3 DUP13 ADD PUSH3 0x3FF JUMP JUMPDEST SWAP5 POP POP PUSH2 0x1C0 PUSH1 0x9F NOT DUP3 ADD SLT ISZERO PUSH3 0x546 JUMPI PUSH1 0x0 DUP1 REVERT JUMPDEST POP PUSH3 0x551 PUSH3 0x3D2 JUMP JUMPDEST PUSH3 0x55F PUSH1 0xA0 DUP11 ADD PUSH3 0x355 JUMP JUMPDEST DUP2 MSTORE PUSH3 0x56F PUSH1 0xC0 DUP11 ADD PUSH3 0x355 JUMP JUMPDEST PUSH1 0x20 DUP3 ADD MSTORE PUSH3 0x582 PUSH1 0xE0 DUP11 ADD PUSH3 0x355 JUMP JUMPDEST PUSH1 0x40 DUP3 ADD MSTORE PUSH3 0x596 PUSH2 0x100 DUP11 ADD PUSH3 0x3AA JUMP JUMPDEST PUSH1 0x60 DUP3 ADD MSTORE PUSH2 0x120 PUSH3 0x5AB DUP2 DUP12 ADD PUSH3 0x3AA JUMP JUMPDEST PUSH1 0x80 DUP4 ADD MSTORE PUSH2 0x140 DUP1 DUP12 ADD CALLDATALOAD PUSH1 0xA0 DUP5 ADD MSTORE PUSH2 0x160 DUP1 DUP13 ADD CALLDATALOAD PUSH1 0xC0 DUP6 ADD MSTORE PUSH2 0x180 PUSH3 0x5D8 DUP2 DUP15 ADD PUSH3 0x355 JUMP JUMPDEST PUSH1 0xE0 DUP7 ADD MSTORE PUSH2 0x1A0 DUP1 DUP15 ADD CALLDATALOAD PUSH2 0x100 DUP8 ADD MSTORE PUSH2 0x1C0 DUP15 ADD CALLDATALOAD DUP6 DUP8 ADD MSTORE PUSH2 0x1E0 DUP15 ADD CALLDATALOAD DUP5 DUP8 ADD MSTORE PUSH2 0x200 DUP15 ADD CALLDATALOAD DUP4 DUP8 ADD MSTORE PUSH2 0x220 DUP15 ADD CALLDATALOAD DUP3 DUP8 ADD MSTORE PUSH3 0x621 PUSH2 0x240 DUP16 ADD PUSH3 0x3AA JUMP JUMPDEST SWAP1 DUP7 ADD MSTORE POP SWAP3 SWAP5 POP PUSH3 0x63C SWAP3 POP POP POP PUSH2 0x260 DUP10 ADD PUSH3 0x355 JUMP JUMPDEST SWAP1 POP SWAP3 SWAP6 SWAP9 SWAP2 SWAP5 SWAP8 POP SWAP3 SWAP6 POP JUMP JUMPDEST DUP1 MLOAD PUSH1 0x20 DUP1 DUP4 ADD MLOAD SWAP2 SWAP1 DUP2 LT ISZERO PUSH3 0x66C JUMPI PUSH1 0x0 NOT DUP2 PUSH1 0x20 SUB PUSH1 0x3 SHL SHL DUP3 AND SWAP2 POP JUMPDEST POP SWAP2 SWAP1 POP JUMP JUMPDEST PUSH1 0x0 DUP2 MLOAD DUP1 DUP5 MSTORE PUSH1 0x0 JUMPDEST DUP2 DUP2 LT ISZERO PUSH3 0x69A JUMPI PUSH1 0x20 DUP2 DUP6 ADD DUP2 ADD MLOAD DUP7 DUP4 ADD DUP3 ADD MSTORE ADD PUSH3 0x67C JUMP JUMPDEST POP PUSH1 0x0 PUSH1 0x20 DUP3 DUP7 ADD ADD MSTORE PUSH1 0x20 PUSH1 0x1F NOT PUSH1 0x1F DUP4 ADD AND DUP6 ADD ADD SWAP2 POP POP SWAP3 SWAP2 POP POP JUMP JUMPDEST DUP1 MLOAD PUSH1 0x1 PUSH1 0x1 PUSH1 0xA0 SHL SUB AND DUP3 MSTORE PUSH1 0x20 DUP2 ADD MLOAD PUSH3 0x6E2 PUSH1 0x20 DUP5 ADD DUP3 PUSH1 0x1 PUSH1 0x1 PUSH1 0xA0 SHL SUB AND SWAP1 MSTORE JUMP JUMPDEST POP PUSH1 0x40 DUP2 ADD MLOAD PUSH3 0x6FE PUSH1 0x40 DUP5 ADD DUP3 PUSH1 0x1 PUSH1 0x1 PUSH1 0xA0 SHL SUB AND SWAP1 MSTORE JUMP JUMPDEST POP PUSH1 0x60 DUP2 ADD MLOAD PUSH3 0x714 PUSH1 0x60 DUP5 ADD DUP3 PUSH1 0xFF AND SWAP1 MSTORE JUMP JUMPDEST POP PUSH1 0x80 DUP2 ADD MLOAD PUSH3 0x72A PUSH1 0x80 DUP5 ADD DUP3 PUSH1 0xFF AND SWAP1 MSTORE JUMP JUMPDEST POP PUSH1 0xA0 DUP2 ADD MLOAD PUSH1 0xA0 DUP4 ADD MSTORE PUSH1 0xC0 DUP2 ADD MLOAD PUSH1 0xC0 DUP4 ADD MSTORE PUSH1 0xE0 DUP2 ADD MLOAD PUSH3 0x75A PUSH1 0xE0 DUP5 ADD DUP3 PUSH1 0x1 PUSH1 0x1 PUSH1 0xA0 SHL SUB AND SWAP1 MSTORE JUMP JUMPDEST POP PUSH2 0x100 DUP2 DUP2 ADD MLOAD SWAP1 DUP4 ADD MSTORE PUSH2 0x120 DUP1 DUP3 ADD MLOAD SWAP1 DUP4 ADD MSTORE PUSH2 0x140 DUP1 DUP3 ADD MLOAD SWAP1 DUP4 ADD MSTORE PUSH2 0x160 DUP1 DUP3 ADD MLOAD SWAP1 DUP4 ADD MSTORE PUSH2 0x180 DUP1 DUP3 ADD MLOAD SWAP1 DUP4 ADD MSTORE PUSH2 0x1A0 SWAP1 DUP2 ADD MLOAD PUSH1 0xFF AND SWAP2 ADD MSTORE JUMP JUMPDEST PUSH1 0x0 PUSH2 0x280 PUSH1 0x1 PUSH1 0x1 PUSH1 0xA0 SHL SUB DUP1 DUP12 AND DUP5 MSTORE DUP1 DUP11 AND PUSH1 0x20 DUP6 ADD MSTORE PUSH1 0xFF DUP10 AND PUSH1 0x40 DUP6 ADD MSTORE DUP2 PUSH1 0x60 DUP6 ADD MSTORE PUSH3 0x7D8 DUP3 DUP6 ADD DUP10 PUSH3 0x672 JUMP JUMPDEST SWAP2 POP DUP4 DUP3 SUB PUSH1 0x80 DUP6 ADD MSTORE PUSH3 0x7EE DUP3 DUP9 PUSH3 0x672 JUMP JUMPDEST SWAP3 POP PUSH3 0x7FF PUSH1 0xA0 DUP6 ADD DUP8 PUSH3 0x6BA JUMP JUMPDEST DUP1 DUP6 AND PUSH2 0x260 DUP6 ADD MSTORE POP POP SWAP9 SWAP8 POP POP POP POP POP POP POP POP JUMP JUMPDEST PUSH1 0x1 PUSH1 0x1 PUSH1 0xA0 SHL SUB DUP6 DUP2 AND DUP3 MSTORE DUP5 DUP2 AND PUSH1 0x20 DUP4 ADD MSTORE DUP4 AND PUSH1 0x40 DUP3 ADD MSTORE PUSH2 0x220 DUP2 ADD PUSH3 0x846 PUSH1 0x60 DUP4 ADD DUP5 PUSH3 0x6BA JUMP JUMPDEST SWAP6 SWAP5 POP POP POP POP POP JUMP JUMPDEST PUSH1 0x0 PUSH1 0x1 DUP3 ADD PUSH3 0x870 JUMPI PUSH4 0x4E487B71 PUSH1 0xE0 SHL PUSH1 0x0 MSTORE PUSH1 0x11 PUSH1 0x4 MSTORE PUSH1 0x24 PUSH1 0x0 REVERT JUMPDEST POP PUSH1 0x1 ADD SWAP1 JUMP INVALID PUSH1 0x80 PUSH1 0x40 MSTORE CALLVALUE DUP1 ISZERO PUSH3 0x11 JUMPI PUSH1 0x0 DUP1 REVERT JUMPDEST POP PUSH1 0x40 MLOAD PUSH3 0x1ECE CODESIZE SUB DUP1 PUSH3 0x1ECE DUP4 CODECOPY DUP2 ADD PUSH1 0x40 DUP2 SWAP1 MSTORE PUSH3 0x34 SWAP2 PUSH3 0x33E JUMP JUMPDEST DUP4 DUP4 PUSH1 0x13 PUSH3 0x44 DUP4 DUP3 PUSH3 0x583 JUMP JUMPDEST POP PUSH1 0x14 PUSH3 0x53 DUP3 DUP3 PUSH3 0x583 JUMP JUMPDEST POP POP PUSH1 0xC DUP1 SLOAD PUSH1 0x1 PUSH1 0x1 PUSH1 0xA0 SHL SUB NOT SWAP1 DUP2 AND PUSH1 0x1 PUSH1 0x1 PUSH1 0xA0 SHL SUB DUP12 DUP2 AND SWAP2 SWAP1 SWAP2 OR SWAP1 SWAP3 SSTORE PUSH1 0xD DUP1 SLOAD DUP3 AND DUP11 DUP5 AND OR SWAP1 SSTORE PUSH1 0xF DUP1 SLOAD DUP7 MLOAD PUSH1 0x0 DUP1 SLOAD DUP6 AND SWAP2 DUP7 AND SWAP2 SWAP1 SWAP2 OR DUP2 SSTORE PUSH1 0x20 DUP9 ADD MLOAD PUSH1 0x1 DUP1 SLOAD DUP7 AND SWAP2 DUP8 AND SWAP2 SWAP1 SWAP2 OR SWAP1 SSTORE PUSH1 0x40 DUP9 ADD MLOAD PUSH1 0x2 DUP1 SLOAD PUSH1 0x60 DUP12 ADD MLOAD PUSH1 0x80 DUP13 ADD MLOAD PUSH1 0xFF PUSH1 0xA8 SHL NOT SWAP5 DUP11 AND PUSH1 0x1 PUSH1 0x1 PUSH1 0xA8 SHL SUB NOT SWAP1 SWAP4 AND SWAP3 SWAP1 SWAP3 OR PUSH1 0x1 PUSH1 0xA0 SHL PUSH1 0xFF SWAP3 DUP4 AND DUP2 MUL SWAP2 SWAP1 SWAP2 OR SWAP5 SWAP1 SWAP5 AND PUSH1 0x1 PUSH1 0xA8 SHL SWAP3 DUP3 AND DUP4 MUL OR SWAP1 SWAP3 SSTORE PUSH1 0xA0 DUP12 ADD MLOAD PUSH1 0x3 SSTORE PUSH1 0xC0 DUP12 ADD MLOAD PUSH1 0x4 SSTORE PUSH1 0xE0 DUP12 ADD MLOAD PUSH1 0x5 DUP1 SLOAD DUP10 AND SWAP2 DUP11 AND SWAP2 SWAP1 SWAP2 OR SWAP1 SSTORE PUSH2 0x100 DUP12 ADD MLOAD PUSH1 0x6 SSTORE PUSH2 0x120 DUP12 ADD MLOAD PUSH1 0x7 SSTORE PUSH2 0x140 DUP12 ADD MLOAD PUSH1 0x8 SSTORE PUSH2 0x160 DUP12 ADD MLOAD PUSH1 0x9 SSTORE PUSH2 0x180 DUP12 ADD MLOAD PUSH1 0xA SSTORE PUSH2 0x1A0 DUP12 ADD MLOAD PUSH1 0xB DUP1 SLOAD PUSH1 0xFF NOT AND SWAP2 DUP5 AND SWAP2 SWAP1 SWAP2 OR SWAP1 SSTORE PUSH1 0xE DUP1 SLOAD CALLER SWAP1 DUP10 AND OR SWAP1 SSTORE PUSH2 0xFFFF PUSH1 0xA0 SHL NOT SWAP1 SWAP5 AND SWAP1 DUP14 AND SWAP4 DUP5 MUL PUSH1 0xFF PUSH1 0xA0 SHL NOT AND OR OR SWAP1 SWAP4 AND SWAP4 DUP7 AND SWAP4 SWAP1 SWAP4 OR SWAP1 SSTORE SWAP2 POP PUSH3 0x1A8 SWAP1 PUSH8 0xDE0B6B3A7640000 PUSH3 0x64F JUMP JUMPDEST PUSH1 0x20 DUP1 DUP6 ADD MLOAD PUSH1 0x1 PUSH1 0x1 PUSH1 0xA0 SHL SUB SWAP1 DUP2 AND PUSH1 0x0 SWAP1 DUP2 MSTORE PUSH1 0x10 SWAP1 SWAP3 MSTORE PUSH1 0x40 DUP1 DUP4 KECCAK256 DUP5 SWAP1 SSTORE DUP1 DUP8 ADD MLOAD SWAP1 SWAP2 AND DUP3 MSTORE SWAP1 KECCAK256 DUP2 SWAP1 SSTORE SWAP1 POP PUSH3 0x1E8 DUP2 PUSH1 0x2 PUSH3 0x64F JUMP JUMPDEST PUSH1 0x12 SSTORE POP POP PUSH1 0x2 DUP1 SLOAD PUSH1 0xFF PUSH1 0xA8 SHL NOT AND PUSH1 0x1 PUSH1 0xA8 SHL OR SWAP1 SSTORE POP PUSH3 0x67B SWAP5 POP POP POP POP POP JUMP JUMPDEST DUP1 MLOAD PUSH1 0x1 PUSH1 0x1 PUSH1 0xA0 SHL SUB DUP2 AND DUP2 EQ PUSH3 0x225 JUMPI PUSH1 0x0 DUP1 REVERT JUMPDEST SWAP2 SWAP1 POP JUMP JUMPDEST DUP1 MLOAD PUSH1 0xFF DUP2 AND DUP2 EQ PUSH3 0x225 JUMPI PUSH1 0x0 DUP1 REVERT JUMPDEST PUSH4 0x4E487B71 PUSH1 0xE0 SHL PUSH1 0x0 MSTORE PUSH1 0x41 PUSH1 0x4 MSTORE PUSH1 0x24 PUSH1 0x0 REVERT JUMPDEST PUSH1 0x40 MLOAD PUSH2 0x1C0 DUP2 ADD PUSH1 0x1 PUSH1 0x1 PUSH1 0x40 SHL SUB DUP2 GT DUP3 DUP3 LT OR ISZERO PUSH3 0x278 JUMPI PUSH3 0x278 PUSH3 0x23C JUMP JUMPDEST PUSH1 0x40 MSTORE SWAP1 JUMP JUMPDEST PUSH1 0x40 MLOAD PUSH1 0x1F DUP3 ADD PUSH1 0x1F NOT AND DUP2 ADD PUSH1 0x1 PUSH1 0x1 PUSH1 0x40 SHL SUB DUP2 GT DUP3 DUP3 LT OR ISZERO PUSH3 0x2A9 JUMPI PUSH3 0x2A9 PUSH3 0x23C JUMP JUMPDEST PUSH1 0x40 MSTORE SWAP2 SWAP1 POP JUMP JUMPDEST PUSH1 0x0 DUP3 PUSH1 0x1F DUP4 ADD SLT PUSH3 0x2C3 JUMPI PUSH1 0x0 DUP1 REVERT JUMPDEST DUP2 MLOAD PUSH1 0x1 PUSH1 0x1 PUSH1 0x40 SHL SUB DUP2 GT ISZERO PUSH3 0x2DF JUMPI PUSH3 0x2DF PUSH3 0x23C JUMP JUMPDEST PUSH1 0x20 PUSH3 0x2F5 PUSH1 0x1F DUP4 ADD PUSH1 0x1F NOT AND DUP3 ADD PUSH3 0x27E JUMP JUMPDEST DUP3 DUP2 MSTORE DUP6 DUP3 DUP5 DUP8 ADD ADD GT ISZERO PUSH3 0x30A JUMPI PUSH1 0x0 DUP1 REVERT JUMPDEST PUSH1 0x0 JUMPDEST DUP4 DUP2 LT ISZERO PUSH3 0x32A JUMPI DUP6 DUP2 ADD DUP4 ADD MLOAD DUP3 DUP3 ADD DUP5 ADD MSTORE DUP3 ADD PUSH3 0x30D JUMP JUMPDEST POP PUSH1 0x0 SWAP3 DUP2 ADD SWAP1 SWAP2 ADD SWAP2 SWAP1 SWAP2 MSTORE SWAP4 SWAP3 POP POP POP JUMP JUMPDEST PUSH1 0x0 DUP1 PUSH1 0x0 DUP1 PUSH1 0x0 DUP1 PUSH1 0x0 DUP8 DUP10 SUB PUSH2 0x280 DUP2 SLT ISZERO PUSH3 0x35C JUMPI PUSH1 0x0 DUP1 REVERT JUMPDEST PUSH3 0x367 DUP10 PUSH3 0x20D JUMP JUMPDEST SWAP8 POP PUSH3 0x377 PUSH1 0x20 DUP11 ADD PUSH3 0x20D JUMP JUMPDEST SWAP7 POP PUSH3 0x387 PUSH1 0x40 DUP11 ADD PUSH3 0x22A JUMP JUMPDEST PUSH1 0x60 DUP11 ADD MLOAD SWAP1 SWAP7 POP PUSH1 0x1 PUSH1 0x1 PUSH1 0x40 SHL SUB DUP1 DUP3 GT ISZERO PUSH3 0x3A5 JUMPI PUSH1 0x0 DUP1 REVERT JUMPDEST PUSH3 0x3B3 DUP13 DUP4 DUP14 ADD PUSH3 0x2B1 JUMP JUMPDEST SWAP7 POP PUSH1 0x80 DUP12 ADD MLOAD SWAP2 POP DUP1 DUP3 GT ISZERO PUSH3 0x3CA JUMPI PUSH1 0x0 DUP1 REVERT JUMPDEST POP PUSH3 0x3D9 DUP12 DUP3 DUP13 ADD PUSH3 0x2B1 JUMP JUMPDEST SWAP5 POP POP PUSH2 0x1C0 PUSH1 0x9F NOT DUP3 ADD SLT ISZERO PUSH3 0x3F0 JUMPI PUSH1 0x0 DUP1 REVERT JUMPDEST POP PUSH3 0x3FB PUSH3 0x252 JUMP JUMPDEST PUSH3 0x409 PUSH1 0xA0 DUP11 ADD PUSH3 0x20D JUMP JUMPDEST DUP2 MSTORE PUSH3 0x419 PUSH1 0xC0 DUP11 ADD PUSH3 0x20D JUMP JUMPDEST PUSH1 0x20 DUP3 ADD MSTORE PUSH3 0x42C PUSH1 0xE0 DUP11 ADD PUSH3 0x20D JUMP JUMPDEST PUSH1 0x40 DUP3 ADD MSTORE PUSH3 0x440 PUSH2 0x100 DUP11 ADD PUSH3 0x22A JUMP JUMPDEST PUSH1 0x60 DUP3 ADD MSTORE PUSH2 0x120 PUSH3 0x455 DUP2 DUP12 ADD PUSH3 0x22A JUMP JUMPDEST PUSH1 0x80 DUP4 ADD MSTORE PUSH2 0x140 DUP1 DUP12 ADD MLOAD PUSH1 0xA0 DUP5 ADD MSTORE PUSH2 0x160 DUP1 DUP13 ADD MLOAD PUSH1 0xC0 DUP6 ADD MSTORE PUSH2 0x180 PUSH3 0x482 DUP2 DUP15 ADD PUSH3 0x20D JUMP JUMPDEST PUSH1 0xE0 DUP7 ADD MSTORE PUSH2 0x1A0 DUP1 DUP15 ADD MLOAD PUSH2 0x100 DUP8 ADD MSTORE PUSH2 0x1C0 DUP15 ADD MLOAD DUP6 DUP8 ADD MSTORE PUSH2 0x1E0 DUP15 ADD MLOAD DUP5 DUP8 ADD MSTORE PUSH2 0x200 DUP15 ADD MLOAD DUP4 DUP8 ADD MSTORE PUSH2 0x220 DUP15 ADD MLOAD DUP3 DUP8 ADD MSTORE PUSH3 0x4CB PUSH2 0x240 DUP16 ADD PUSH3 0x22A JUMP JUMPDEST SWAP1 DUP7 ADD MSTORE POP SWAP3 SWAP5 POP PUSH3 0x4E6 SWAP3 POP POP POP PUSH2 0x260 DUP10 ADD PUSH3 0x20D JUMP JUMPDEST SWAP1 POP SWAP3 SWAP6 SWAP9 SWAP2 SWAP5 SWAP8 POP SWAP3 SWAP6 POP JUMP JUMPDEST PUSH1 0x1 DUP2 DUP2 SHR SWAP1 DUP3 AND DUP1 PUSH3 0x509 JUMPI PUSH1 0x7F DUP3 AND SWAP2 POP JUMPDEST PUSH1 0x20 DUP3 LT DUP2 SUB PUSH3 0x52A JUMPI PUSH4 0x4E487B71 PUSH1 0xE0 SHL PUSH1 0x0 MSTORE PUSH1 0x22 PUSH1 0x4 MSTORE PUSH1 0x24 PUSH1 0x0 REVERT JUMPDEST POP SWAP2 SWAP1 POP JUMP JUMPDEST PUSH1 0x1F DUP3 GT ISZERO PUSH3 0x57E JUMPI PUSH1 0x0 DUP2 DUP2 MSTORE PUSH1 0x20 DUP2 KECCAK256 PUSH1 0x1F DUP6 ADD PUSH1 0x5 SHR DUP2 ADD PUSH1 0x20 DUP7 LT ISZERO PUSH3 0x559 JUMPI POP DUP1 JUMPDEST PUSH1 0x1F DUP6 ADD PUSH1 0x5 SHR DUP3 ADD SWAP2 POP JUMPDEST DUP2 DUP2 LT ISZERO PUSH3 0x57A JUMPI DUP3 DUP2 SSTORE PUSH1 0x1 ADD PUSH3 0x565 JUMP JUMPDEST POP POP POP JUMPDEST POP POP POP JUMP JUMPDEST DUP2 MLOAD PUSH1 0x1 PUSH1 0x1 PUSH1 0x40 SHL SUB DUP2 GT ISZERO PUSH3 0x59F JUMPI PUSH3 0x59F PUSH3 0x23C JUMP JUMPDEST PUSH3 0x5B7 DUP2 PUSH3 0x5B0 DUP5 SLOAD PUSH3 0x4F4 JUMP JUMPDEST DUP5 PUSH3 0x530 JUMP JUMPDEST PUSH1 0x20 DUP1 PUSH1 0x1F DUP4 GT PUSH1 0x1 DUP2 EQ PUSH3 0x5EF JUMPI PUSH1 0x0 DUP5 ISZERO PUSH3 0x5D6 JUMPI POP DUP6 DUP4 ADD MLOAD JUMPDEST PUSH1 0x0 NOT PUSH1 0x3 DUP7 SWAP1 SHL SHR NOT AND PUSH1 0x1 DUP6 SWAP1 SHL OR DUP6 SSTORE PUSH3 0x57A JUMP JUMPDEST PUSH1 0x0 DUP6 DUP2 MSTORE PUSH1 0x20 DUP2 KECCAK256 PUSH1 0x1F NOT DUP7 AND SWAP2 JUMPDEST DUP3 DUP2 LT ISZERO PUSH3 0x620 JUMPI DUP9 DUP7 ADD MLOAD DUP3 SSTORE SWAP5 DUP5 ADD SWAP5 PUSH1 0x1 SWAP1 SWAP2 ADD SWAP1 DUP5 ADD PUSH3 0x5FF JUMP JUMPDEST POP DUP6 DUP3 LT ISZERO PUSH3 0x63F JUMPI DUP8 DUP6 ADD MLOAD PUSH1 0x0 NOT PUSH1 0x3 DUP9 SWAP1 SHL PUSH1 0xF8 AND SHR NOT AND DUP2 SSTORE JUMPDEST POP POP POP POP POP PUSH1 0x1 SWAP1 DUP2 SHL ADD SWAP1 SSTORE POP JUMP JUMPDEST DUP1 DUP3 MUL DUP2 ISZERO DUP3 DUP3 DIV DUP5 EQ OR PUSH3 0x675 JUMPI PUSH4 0x4E487B71 PUSH1 0xE0 SHL PUSH1 0x0 MSTORE PUSH1 0x11 PUSH1 0x4 MSTORE PUSH1 0x24 PUSH1 0x0 REVERT JUMPDEST SWAP3 SWAP2 POP POP JUMP JUMPDEST PUSH2 0x1843 DUP1 PUSH3 0x68B PUSH1 0x0 CODECOPY PUSH1 0x0 RETURN INVALID PUSH1 0x80 PUSH1 0x40 MSTORE CALLVALUE DUP1 ISZERO PUSH2 0x10 JUMPI PUSH1 0x0 DUP1 REVERT JUMPDEST POP PUSH1 0x4 CALLDATASIZE LT PUSH2 0x2AD JUMPI PUSH1 0x0 CALLDATALOAD PUSH1 0xE0 SHR DUP1 PUSH4 0x8119C065 GT PUSH2 0x17B JUMPI DUP1 PUSH4 0xA9059CBB GT PUSH2 0xD8 JUMPI DUP1 PUSH4 0xD81671BC GT PUSH2 0x8C JUMPI DUP1 PUSH4 0xE823B1DA GT PUSH2 0x71 JUMPI DUP1 PUSH4 0xE823B1DA EQ PUSH2 0x66C JUMPI DUP1 PUSH4 0xE8F9D2F9 EQ PUSH2 0x67E JUMPI DUP1 PUSH4 0xECBA89C5 EQ PUSH2 0x692 JUMPI PUSH1 0x0 DUP1 REVERT JUMPDEST DUP1 PUSH4 0xD81671BC EQ PUSH2 0x621 JUMPI DUP1 PUSH4 0xDD62ED3E EQ PUSH2 0x633 JUMPI PUSH1 0x0 DUP1 REVERT JUMPDEST DUP1 PUSH4 0xBEB9AD5F GT PUSH2 0xBD JUMPI DUP1 PUSH4 0xBEB9AD5F EQ PUSH2 0x5F7 JUMPI DUP1 PUSH4 0xC4C22A84 EQ PUSH2 0x608 JUMPI DUP1 PUSH4 0xD59624B4 EQ PUSH2 0x619 JUMPI PUSH1 0x0 DUP1 REVERT JUMPDEST DUP1 PUSH4 0xA9059CBB EQ PUSH2 0x5D3 JUMPI DUP1 PUSH4 0xBE2DA873 EQ PUSH2 0x5E6 JUMPI PUSH1 0x0 DUP1 REVERT JUMPDEST DUP1 PUSH4 0x95D89B41 GT PUSH2 0x12F JUMPI DUP1 PUSH4 0x9DC29FAC GT PUSH2 0x114 JUMPI DUP1 PUSH4 0x9DC29FAC EQ PUSH2 0x5A5 JUMPI DUP1 PUSH4 0xA26C1AA2 EQ PUSH2 0x5B8 JUMPI DUP1 PUSH4 0xA457C2D7 EQ PUSH2 0x5C0 JUMPI PUSH1 0x0 DUP1 REVERT JUMPDEST DUP1 PUSH4 0x95D89B41 EQ PUSH2 0x58A JUMPI DUP1 PUSH4 0x9C34712A EQ PUSH2 0x592 JUMPI PUSH1 0x0 DUP1 REVERT JUMPDEST DUP1 PUSH4 0x8DA5CB5B GT PUSH2 0x160 JUMPI DUP1 PUSH4 0x8DA5CB5B EQ PUSH2 0x55D JUMPI DUP1 PUSH4 0x8E589315 EQ PUSH2 0x570 JUMPI DUP1 PUSH4 0x8F5949F9 EQ PUSH2 0x578 JUMPI PUSH1 0x0 DUP1 REVERT JUMPDEST DUP1 PUSH4 0x8119C065 EQ PUSH2 0x54D JUMPI DUP1 PUSH4 0x8903C5A2 EQ PUSH2 0x555 JUMPI PUSH1 0x0 DUP1 REVERT JUMPDEST DUP1 PUSH4 0x3E3FF7B6 GT PUSH2 0x229 JUMPI DUP1 PUSH4 0x4D1D62FA GT PUSH2 0x1DD JUMPI DUP1 PUSH4 0x5C25C76C GT PUSH2 0x1C2 JUMPI DUP1 PUSH4 0x5C25C76C EQ PUSH2 0x514 JUMPI DUP1 PUSH4 0x698518E5 EQ PUSH2 0x51C JUMPI DUP1 PUSH4 0x70A08231 EQ PUSH2 0x524 JUMPI PUSH1 0x0 DUP1 REVERT JUMPDEST DUP1 PUSH4 0x4D1D62FA EQ PUSH2 0x4EF JUMPI DUP1 PUSH4 0x530C61CF EQ PUSH2 0x501 JUMPI PUSH1 0x0 DUP1 REVERT JUMPDEST DUP1 PUSH4 0x42ABEA79 GT PUSH2 0x20E JUMPI DUP1 PUSH4 0x42ABEA79 EQ PUSH2 0x3AC JUMPI DUP1 PUSH4 0x442447CA EQ PUSH2 0x4D4 JUMPI DUP1 PUSH4 0x4D16304F EQ PUSH2 0x4DE JUMPI PUSH1 0x0 DUP1 REVERT JUMPDEST DUP1 PUSH4 0x3E3FF7B6 EQ PUSH2 0x391 JUMPI DUP1 PUSH4 0x40C10F19 EQ PUSH2 0x399 JUMPI PUSH1 0x0 DUP1 REVERT JUMPDEST DUP1 PUSH4 0x23B872DD GT PUSH2 0x280 JUMPI DUP1 PUSH4 0x313CE567 GT PUSH2 0x265 JUMPI DUP1 PUSH4 0x313CE567 EQ PUSH2 0x352 JUMPI DUP1 PUSH4 0x38CB8A25 EQ PUSH2 0x359 JUMPI DUP1 PUSH4 0x39509351 EQ PUSH2 0x37E JUMPI PUSH1 0x0 DUP1 REVERT JUMPDEST DUP1 PUSH4 0x23B872DD EQ PUSH2 0x32B JUMPI DUP1 PUSH4 0x2EFF0D9E EQ PUSH2 0x33E JUMPI PUSH1 0x0 DUP1 REVERT JUMPDEST DUP1 PUSH4 0x6FDDE03 EQ PUSH2 0x2B2 JUMPI DUP1 PUSH4 0x95EA7B3 EQ PUSH2 0x2D0 JUMPI DUP1 PUSH4 0x18160DDD EQ PUSH2 0x2F3 JUMPI DUP1 PUSH4 0x22F3E2D4 EQ PUSH2 0x305 JUMPI JUMPDEST PUSH1 0x0 DUP1 REVERT JUMPDEST PUSH2 0x2BA PUSH2 0x6A5 JUMP JUMPDEST PUSH1 0x40 MLOAD PUSH2 0x2C7 SWAP2 SWAP1 PUSH2 0x14F8 JUMP JUMPDEST PUSH1 0x40 MLOAD DUP1 SWAP2 SUB SWAP1 RETURN JUMPDEST PUSH2 0x2E3 PUSH2 0x2DE CALLDATASIZE PUSH1 0x4 PUSH2 0x1562 JUMP JUMPDEST PUSH2 0x737 JUMP JUMPDEST PUSH1 0x40 MLOAD SWAP1 ISZERO ISZERO DUP2 MSTORE PUSH1 0x20 ADD PUSH2 0x2C7 JUMP JUMPDEST PUSH1 0x12 SLOAD JUMPDEST PUSH1 0x40 MLOAD SWAP1 DUP2 MSTORE PUSH1 0x20 ADD PUSH2 0x2C7 JUMP JUMPDEST PUSH1 0xF SLOAD PUSH2 0x319 SWAP1 PUSH1 0x1 PUSH1 0xA0 SHL SWAP1 DIV PUSH1 0xFF AND DUP2 JUMP JUMPDEST PUSH1 0x40 MLOAD PUSH1 0xFF SWAP1 SWAP2 AND DUP2 MSTORE PUSH1 0x20 ADD PUSH2 0x2C7 JUMP JUMPDEST PUSH2 0x2E3 PUSH2 0x339 CALLDATASIZE PUSH1 0x4 PUSH2 0x158C JUMP JUMPDEST PUSH2 0x751 JUMP JUMPDEST PUSH1 0xF SLOAD PUSH2 0x319 SWAP1 PUSH1 0x1 PUSH1 0xB0 SHL SWAP1 DIV PUSH1 0xFF AND DUP2 JUMP JUMPDEST PUSH1 0x12 PUSH2 0x319 JUMP JUMPDEST PUSH1 0xD SLOAD PUSH1 0x1 PUSH1 0x1 PUSH1 0xA0 SHL SUB AND JUMPDEST PUSH1 0x40 MLOAD PUSH1 0x1 PUSH1 0x1 PUSH1 0xA0 SHL SUB SWAP1 SWAP2 AND DUP2 MSTORE PUSH1 0x20 ADD PUSH2 0x2C7 JUMP JUMPDEST PUSH2 0x2E3 PUSH2 0x38C CALLDATASIZE PUSH1 0x4 PUSH2 0x1562 JUMP JUMPDEST PUSH2 0x775 JUMP JUMPDEST PUSH1 0x8 SLOAD PUSH2 0x2F7 JUMP JUMPDEST PUSH2 0x2E3 PUSH2 0x3A7 CALLDATASIZE PUSH1 0x4 PUSH2 0x1562 JUMP JUMPDEST PUSH2 0x7B4 JUMP JUMPDEST PUSH2 0x4C7 PUSH1 0x40 DUP1 MLOAD PUSH2 0x1C0 DUP2 ADD DUP3 MSTORE PUSH1 0x0 DUP1 DUP3 MSTORE PUSH1 0x20 DUP3 ADD DUP2 SWAP1 MSTORE SWAP2 DUP2 ADD DUP3 SWAP1 MSTORE PUSH1 0x60 DUP2 ADD DUP3 SWAP1 MSTORE PUSH1 0x80 DUP2 ADD DUP3 SWAP1 MSTORE PUSH1 0xA0 DUP2 ADD DUP3 SWAP1 MSTORE PUSH1 0xC0 DUP2 ADD DUP3 SWAP1 MSTORE PUSH1 0xE0 DUP2 ADD DUP3 SWAP1 MSTORE PUSH2 0x100 DUP2 ADD DUP3 SWAP1 MSTORE PUSH2 0x120 DUP2 ADD DUP3 SWAP1 MSTORE PUSH2 0x140 DUP2 ADD DUP3 SWAP1 MSTORE PUSH2 0x160 DUP2 ADD DUP3 SWAP1 MSTORE PUSH2 0x180 DUP2 ADD DUP3 SWAP1 MSTORE PUSH2 0x1A0 DUP2 ADD SWAP2 SWAP1 SWAP2 MSTORE POP PUSH1 0x40 DUP1 MLOAD PUSH2 0x1C0 DUP2 ADD DUP3 MSTORE PUSH1 0x0 SLOAD PUSH1 0x1 PUSH1 0x1 PUSH1 0xA0 SHL SUB SWAP1 DUP2 AND DUP3 MSTORE PUSH1 0x1 SLOAD DUP2 AND PUSH1 0x20 DUP4 ADD MSTORE PUSH1 0x2 SLOAD DUP1 DUP3 AND SWAP4 DUP4 ADD SWAP4 SWAP1 SWAP4 MSTORE PUSH1 0xFF PUSH1 0x1 PUSH1 0xA0 SHL DUP5 DIV DUP2 AND PUSH1 0x60 DUP5 ADD MSTORE PUSH1 0x1 PUSH1 0xA8 SHL SWAP1 SWAP4 DIV DUP4 AND PUSH1 0x80 DUP4 ADD MSTORE PUSH1 0x3 SLOAD PUSH1 0xA0 DUP4 ADD MSTORE PUSH1 0x4 SLOAD PUSH1 0xC0 DUP4 ADD MSTORE PUSH1 0x5 SLOAD AND PUSH1 0xE0 DUP3 ADD MSTORE PUSH1 0x6 SLOAD PUSH2 0x100 DUP3 ADD MSTORE PUSH1 0x7 SLOAD PUSH2 0x120 DUP3 ADD MSTORE PUSH1 0x8 SLOAD PUSH2 0x140 DUP3 ADD MSTORE PUSH1 0x9 SLOAD PUSH2 0x160 DUP3 ADD MSTORE PUSH1 0xA SLOAD PUSH2 0x180 DUP3 ADD MSTORE PUSH1 0xB SLOAD SWAP1 SWAP2 AND PUSH2 0x1A0 DUP3 ADD MSTORE SWAP1 JUMP JUMPDEST PUSH1 0x40 MLOAD PUSH2 0x2C7 SWAP2 SWAP1 PUSH2 0x15C8 JUMP JUMPDEST PUSH2 0x4DC PUSH2 0x881 JUMP JUMPDEST STOP JUMPDEST PUSH1 0x5 SLOAD PUSH1 0x1 PUSH1 0x1 PUSH1 0xA0 SHL SUB AND PUSH2 0x366 JUMP JUMPDEST PUSH1 0xF SLOAD PUSH1 0x1 PUSH1 0xA8 SHL SWAP1 DIV PUSH1 0xFF AND PUSH2 0x319 JUMP JUMPDEST PUSH1 0xD SLOAD PUSH2 0x366 SWAP1 PUSH1 0x1 PUSH1 0x1 PUSH1 0xA0 SHL SUB AND DUP2 JUMP JUMPDEST PUSH1 0x4 SLOAD PUSH2 0x2F7 JUMP JUMPDEST PUSH1 0x3 SLOAD PUSH2 0x2F7 JUMP JUMPDEST PUSH2 0x2F7 PUSH2 0x532 CALLDATASIZE PUSH1 0x4 PUSH2 0x16B5 JUMP JUMPDEST PUSH1 0x1 PUSH1 0x1 PUSH1 0xA0 SHL SUB AND PUSH1 0x0 SWAP1 DUP2 MSTORE PUSH1 0x10 PUSH1 0x20 MSTORE PUSH1 0x40 SWAP1 KECCAK256 SLOAD SWAP1 JUMP JUMPDEST PUSH2 0x2E3 PUSH2 0x9A4 JUMP JUMPDEST PUSH2 0x2F7 PUSH2 0xD85 JUMP JUMPDEST PUSH1 0xE SLOAD PUSH2 0x366 SWAP1 PUSH1 0x1 PUSH1 0x1 PUSH1 0xA0 SHL SUB AND DUP2 JUMP JUMPDEST PUSH1 0x7 SLOAD PUSH2 0x2F7 JUMP JUMPDEST PUSH1 0xF SLOAD PUSH1 0x1 PUSH1 0xA0 SHL SWAP1 DIV PUSH1 0xFF AND PUSH2 0x319 JUMP JUMPDEST PUSH2 0x2BA PUSH2 0xE11 JUMP JUMPDEST PUSH1 0xF SLOAD PUSH2 0x366 SWAP1 PUSH1 0x1 PUSH1 0x1 PUSH1 0xA0 SHL SUB AND DUP2 JUMP JUMPDEST PUSH2 0x2E3 PUSH2 0x5B3 CALLDATASIZE PUSH1 0x4 PUSH2 0x1562 JUMP JUMPDEST PUSH2 0xE20 JUMP JUMPDEST PUSH1 0x6 SLOAD PUSH2 0x2F7 JUMP JUMPDEST PUSH2 0x2E3 PUSH2 0x5CE CALLDATASIZE PUSH1 0x4 PUSH2 0x1562 JUMP JUMPDEST PUSH2 0xF8D JUMP JUMPDEST PUSH2 0x2E3 PUSH2 0x5E1 CALLDATASIZE PUSH1 0x4 PUSH2 0x1562 JUMP JUMPDEST PUSH2 0x1037 JUMP JUMPDEST PUSH1 0x2 SLOAD PUSH1 0x1 PUSH1 0x1 PUSH1 0xA0 SHL SUB AND PUSH2 0x366 JUMP JUMPDEST PUSH1 0xC SLOAD PUSH1 0x1 PUSH1 0x1 PUSH1 0xA0 SHL SUB AND PUSH2 0x366 JUMP JUMPDEST PUSH1 0x1 SLOAD PUSH1 0x1 PUSH1 0x1 PUSH1 0xA0 SHL SUB AND PUSH2 0x366 JUMP JUMPDEST PUSH1 0x9 SLOAD PUSH2 0x2F7 JUMP JUMPDEST PUSH1 0xF SLOAD PUSH1 0x1 PUSH1 0xB0 SHL SWAP1 DIV PUSH1 0xFF AND PUSH2 0x319 JUMP JUMPDEST PUSH2 0x2F7 PUSH2 0x641 CALLDATASIZE PUSH1 0x4 PUSH2 0x16D7 JUMP JUMPDEST PUSH1 0x1 PUSH1 0x1 PUSH1 0xA0 SHL SUB SWAP2 DUP3 AND PUSH1 0x0 SWAP1 DUP2 MSTORE PUSH1 0x11 PUSH1 0x20 SWAP1 DUP2 MSTORE PUSH1 0x40 DUP1 DUP4 KECCAK256 SWAP4 SWAP1 SWAP5 AND DUP3 MSTORE SWAP2 SWAP1 SWAP2 MSTORE KECCAK256 SLOAD SWAP1 JUMP JUMPDEST PUSH1 0x2 SLOAD PUSH1 0x1 PUSH1 0xA0 SHL SWAP1 DIV PUSH1 0xFF AND PUSH2 0x319 JUMP JUMPDEST PUSH1 0xF SLOAD PUSH2 0x319 SWAP1 PUSH1 0x1 PUSH1 0xA8 SHL SWAP1 DIV PUSH1 0xFF AND DUP2 JUMP JUMPDEST PUSH1 0xC SLOAD PUSH2 0x366 SWAP1 PUSH1 0x1 PUSH1 0x1 PUSH1 0xA0 SHL SUB AND DUP2 JUMP JUMPDEST PUSH1 0x60 PUSH1 0x13 DUP1 SLOAD PUSH2 0x6B4 SWAP1 PUSH2 0x170A JUMP JUMPDEST DUP1 PUSH1 0x1F ADD PUSH1 0x20 DUP1 SWAP2 DIV MUL PUSH1 0x20 ADD PUSH1 0x40 MLOAD SWAP1 DUP2 ADD PUSH1 0x40 MSTORE DUP1 SWAP3 SWAP2 SWAP1 DUP2 DUP2 MSTORE PUSH1 0x20 ADD DUP3 DUP1 SLOAD PUSH2 0x6E0 SWAP1 PUSH2 0x170A JUMP JUMPDEST DUP1 ISZERO PUSH2 0x72D JUMPI DUP1 PUSH1 0x1F LT PUSH2 0x702 JUMPI PUSH2 0x100 DUP1 DUP4 SLOAD DIV MUL DUP4 MSTORE SWAP2 PUSH1 0x20 ADD SWAP2 PUSH2 0x72D JUMP JUMPDEST DUP3 ADD SWAP2 SWAP1 PUSH1 0x0 MSTORE PUSH1 0x20 PUSH1 0x0 KECCAK256 SWAP1 JUMPDEST DUP2 SLOAD DUP2 MSTORE SWAP1 PUSH1 0x1 ADD SWAP1 PUSH1 0x20 ADD DUP1 DUP4 GT PUSH2 0x710 JUMPI DUP3 SWAP1 SUB PUSH1 0x1F AND DUP3 ADD SWAP2 JUMPDEST POP POP POP POP POP SWAP1 POP SWAP1 JUMP JUMPDEST PUSH1 0x0 CALLER PUSH2 0x745 DUP2 DUP6 DUP6 PUSH2 0x1045 JUMP JUMPDEST PUSH1 0x1 SWAP2 POP POP JUMPDEST SWAP3 SWAP2 POP POP JUMP JUMPDEST PUSH1 0x0 CALLER PUSH2 0x75F DUP6 DUP3 DUP6 PUSH2 0x119D JUMP JUMPDEST PUSH2 0x76A DUP6 DUP6 DUP6 PUSH2 0x122F JUMP JUMPDEST POP PUSH1 0x1 SWAP5 SWAP4 POP POP POP POP JUMP JUMPDEST CALLER PUSH1 0x0 DUP2 DUP2 MSTORE PUSH1 0x11 PUSH1 0x20 SWAP1 DUP2 MSTORE PUSH1 0x40 DUP1 DUP4 KECCAK256 PUSH1 0x1 PUSH1 0x1 PUSH1 0xA0 SHL SUB DUP8 AND DUP5 MSTORE SWAP1 SWAP2 MSTORE DUP2 KECCAK256 SLOAD SWAP1 SWAP2 SWAP1 PUSH2 0x745 SWAP1 DUP3 SWAP1 DUP7 SWAP1 PUSH2 0x7AF SWAP1 DUP8 SWAP1 PUSH2 0x175A JUMP JUMPDEST PUSH2 0x1045 JUMP JUMPDEST PUSH1 0x0 PUSH1 0x1 PUSH1 0x1 PUSH1 0xA0 SHL SUB DUP4 AND PUSH2 0x811 JUMPI PUSH1 0x40 MLOAD PUSH3 0x461BCD PUSH1 0xE5 SHL DUP2 MSTORE PUSH1 0x20 PUSH1 0x4 DUP3 ADD MSTORE PUSH1 0x1F PUSH1 0x24 DUP3 ADD MSTORE PUSH32 0x45524332303A206D696E7420746F20746865207A65726F206164647265737300 PUSH1 0x44 DUP3 ADD MSTORE PUSH1 0x64 ADD JUMPDEST PUSH1 0x40 MLOAD DUP1 SWAP2 SUB SWAP1 REVERT JUMPDEST DUP2 PUSH1 0x12 PUSH1 0x0 DUP3 DUP3 SLOAD PUSH2 0x823 SWAP2 SWAP1 PUSH2 0x175A JUMP JUMPDEST SWAP1 SWAP2 SSTORE POP POP PUSH1 0x1 PUSH1 0x1 PUSH1 0xA0 SHL SUB DUP4 AND PUSH1 0x0 DUP2 DUP2 MSTORE PUSH1 0x10 PUSH1 0x20 SWAP1 DUP2 MSTORE PUSH1 0x40 DUP1 DUP4 KECCAK256 DUP1 SLOAD DUP8 ADD SWAP1 SSTORE MLOAD DUP6 DUP2 MSTORE PUSH32 0xDDF252AD1BE2C89B69C2B068FC378DAA952BA7F163C4A11628F55A4DF523B3EF SWAP2 ADD PUSH1 0x40 MLOAD DUP1 SWAP2 SUB SWAP1 LOG3 POP PUSH1 0x1 SWAP3 SWAP2 POP POP JUMP JUMPDEST PUSH1 0xF SLOAD PUSH1 0x1 PUSH1 0x1 PUSH1 0xA0 SHL SUB AND CALLER EQ PUSH2 0x8DB JUMPI PUSH1 0x40 MLOAD PUSH3 0x461BCD PUSH1 0xE5 SHL DUP2 MSTORE PUSH1 0x20 PUSH1 0x4 DUP3 ADD MSTORE PUSH1 0x12 PUSH1 0x24 DUP3 ADD MSTORE PUSH32 0x4F6E6C792042616E6B20436F6E74726163740000000000000000000000000000 PUSH1 0x44 DUP3 ADD MSTORE PUSH1 0x64 ADD PUSH2 0x808 JUMP JUMPDEST PUSH1 0xF SLOAD PUSH1 0x1 PUSH1 0xA0 SHL SWAP1 DIV PUSH1 0xFF AND PUSH1 0x1 EQ PUSH2 0x924 JUMPI PUSH1 0x40 MLOAD PUSH3 0x461BCD PUSH1 0xE5 SHL DUP2 MSTORE PUSH1 0x20 PUSH1 0x4 DUP3 ADD MSTORE PUSH1 0xA PUSH1 0x24 DUP3 ADD MSTORE PUSH10 0x4E6F7420416374697665 PUSH1 0xB0 SHL PUSH1 0x44 DUP3 ADD MSTORE PUSH1 0x64 ADD PUSH2 0x808 JUMP JUMPDEST PUSH1 0x2 DUP1 SLOAD PUSH32 0xFFFFFFFFFFFFFFFFFFFF00FFFFFFFFFFFFFFFFFFFFFFFFFFFFFFFFFFFFFFFFFF DUP2 AND PUSH22 0x2000000000000000000000000000000000000000000 OR SWAP1 SWAP2 SSTORE PUSH1 0x1 SLOAD PUSH1 0x40 MLOAD PUSH1 0x1 PUSH1 0x1 PUSH1 0xA0 SHL SUB SWAP3 DUP4 AND SWAP3 SWAP1 SWAP2 AND SWAP1 PUSH32 0x1AA6C8C6F9B0FF26B8661BDC3CE83E7CAF565C568AF549F21922FA9561363CC2 SWAP1 PUSH1 0x0 SWAP1 LOG3 JUMP JUMPDEST PUSH1 0xF SLOAD PUSH1 0x0 SWAP1 PUSH1 0x1 PUSH1 0x1 PUSH1 0xA0 SHL SUB AND CALLER EQ PUSH2 0xA01 JUMPI PUSH1 0x40 MLOAD PUSH3 0x461BCD PUSH1 0xE5 SHL DUP2 MSTORE PUSH1 0x20 PUSH1 0x4 DUP3 ADD MSTORE PUSH1 0x12 PUSH1 0x24 DUP3 ADD MSTORE PUSH32 0x4F6E6C792042616E6B20436F6E74726163740000000000000000000000000000 PUSH1 0x44 DUP3 ADD MSTORE PUSH1 0x64 ADD PUSH2 0x808 JUMP JUMPDEST PUSH1 0xF SLOAD PUSH1 0x1 PUSH1 0xA0 SHL SWAP1 DIV PUSH1 0xFF AND PUSH1 0x1 EQ PUSH2 0xA4A JUMPI PUSH1 0x40 MLOAD PUSH3 0x461BCD PUSH1 0xE5 SHL DUP2 MSTORE PUSH1 0x20 PUSH1 0x4 DUP3 ADD MSTORE PUSH1 0xA PUSH1 0x24 DUP3 ADD MSTORE PUSH10 0x4E6F7420416374697665 PUSH1 0xB0 SHL PUSH1 0x44 DUP3 ADD MSTORE PUSH1 0x64 ADD PUSH2 0x808 JUMP JUMPDEST PUSH1 0x2 SLOAD PUSH1 0x1 PUSH1 0xA8 SHL SWAP1 DIV PUSH1 0xFF AND PUSH1 0x1 EQ PUSH2 0xAA6 JUMPI PUSH1 0x40 MLOAD PUSH3 0x461BCD PUSH1 0xE5 SHL DUP2 MSTORE PUSH1 0x20 PUSH1 0x4 DUP3 ADD MSTORE PUSH1 0x12 PUSH1 0x24 DUP3 ADD MSTORE PUSH32 0x4E6F74204578697374206F7220456E6465640000000000000000000000000000 PUSH1 0x44 DUP3 ADD MSTORE PUSH1 0x64 ADD PUSH2 0x808 JUMP JUMPDEST PUSH1 0x3 SLOAD PUSH1 0x4 SLOAD PUSH1 0xA SLOAD PUSH1 0x0 SWAP2 PUSH2 0xABB SWAP2 PUSH2 0x175A JUMP JUMPDEST PUSH1 0x6 SLOAD SWAP1 SWAP2 POP PUSH1 0x0 PUSH2 0xACD DUP5 DUP4 PUSH2 0x176D JUMP JUMPDEST SWAP1 POP PUSH1 0x0 PUSH2 0xADB DUP5 DUP5 PUSH2 0x176D JUMP JUMPDEST SWAP1 POP PUSH1 0x0 DUP1 PUSH1 0x0 DUP4 DUP6 SUB PUSH2 0xB31 JUMPI PUSH1 0x40 MLOAD PUSH3 0x461BCD PUSH1 0xE5 SHL DUP2 MSTORE PUSH1 0x20 PUSH1 0x4 DUP3 ADD MSTORE PUSH1 0xE PUSH1 0x24 DUP3 ADD MSTORE PUSH32 0x4E6F74696E6720746F2073776170000000000000000000000000000000000000 PUSH1 0x44 DUP3 ADD MSTORE PUSH1 0x64 ADD PUSH2 0x808 JUMP JUMPDEST DUP4 DUP6 GT ISZERO PUSH2 0xB61 JUMPI PUSH2 0xB43 DUP5 DUP7 PUSH2 0x1784 JUMP JUMPDEST PUSH1 0x2 SLOAD PUSH1 0x1 SLOAD SWAP2 SWAP5 POP PUSH1 0x1 PUSH1 0x1 PUSH1 0xA0 SHL SUB SWAP1 DUP2 AND SWAP4 POP AND SWAP1 POP PUSH2 0xB85 JUMP JUMPDEST PUSH2 0xB6B DUP6 DUP6 PUSH2 0x1784 JUMP JUMPDEST PUSH1 0x1 SLOAD PUSH1 0x2 SLOAD SWAP2 SWAP5 POP PUSH1 0x1 PUSH1 0x1 PUSH1 0xA0 SHL SUB SWAP1 DUP2 AND SWAP4 POP AND SWAP1 POP JUMPDEST PUSH1 0xF SLOAD PUSH1 0x1 PUSH1 0xB0 SHL SWAP1 DIV PUSH1 0xFF AND PUSH2 0xB9D DUP2 PUSH1 0x1 PUSH2 0x1797 JUMP JUMPDEST PUSH1 0xF DUP1 SLOAD PUSH32 0xFFFFFFFFFFFFFFFFFF00FFFFFFFFFFFFFFFFFFFFFFFFFFFFFFFFFFFFFFFFFFFF AND PUSH1 0x1 PUSH1 0xB0 SHL PUSH1 0xFF SWAP4 DUP5 AND DUP2 MUL SWAP2 SWAP1 SWAP2 OR SWAP2 DUP3 SWAP1 SSTORE PUSH1 0x1 PUSH1 0xA8 SHL DUP3 DIV DUP4 AND SWAP2 DIV SWAP1 SWAP2 AND GT ISZERO PUSH2 0xC33 JUMPI PUSH1 0x40 MLOAD PUSH3 0x461BCD PUSH1 0xE5 SHL DUP2 MSTORE PUSH1 0x20 PUSH1 0x4 DUP3 ADD MSTORE PUSH1 0xF PUSH1 0x24 DUP3 ADD MSTORE PUSH32 0x416C6C20737761707320646F6E65210000000000000000000000000000000000 PUSH1 0x44 DUP3 ADD MSTORE PUSH1 0x64 ADD PUSH2 0x808 JUMP JUMPDEST PUSH1 0x1 SLOAD PUSH2 0xC51 SWAP1 PUSH1 0x1 PUSH1 0x1 PUSH1 0xA0 SHL SUB AND PUSH8 0xDE0B6B3A7640000 PUSH2 0xE20 JUMP JUMPDEST POP PUSH1 0x2 SLOAD PUSH2 0xC70 SWAP1 PUSH1 0x1 PUSH1 0x1 PUSH1 0xA0 SHL SUB AND PUSH8 0xDE0B6B3A7640000 PUSH2 0xE20 JUMP JUMPDEST POP PUSH1 0x5 SLOAD PUSH1 0x1 PUSH1 0x1 PUSH1 0xA0 SHL SUB AND PUSH4 0x23B872DD DUP4 DUP6 PUSH2 0x2710 PUSH2 0xC99 DUP10 PUSH8 0xDE0B6B3A7640000 PUSH2 0x176D JUMP JUMPDEST PUSH2 0xCA3 SWAP2 SWAP1 PUSH2 0x17B0 JUMP JUMPDEST PUSH1 0x40 MLOAD PUSH32 0xFFFFFFFF00000000000000000000000000000000000000000000000000000000 PUSH1 0xE0 DUP7 SWAP1 SHL AND DUP2 MSTORE PUSH1 0x1 PUSH1 0x1 PUSH1 0xA0 SHL SUB SWAP4 DUP5 AND PUSH1 0x4 DUP3 ADD MSTORE SWAP3 SWAP1 SWAP2 AND PUSH1 0x24 DUP4 ADD MSTORE PUSH1 0x44 DUP3 ADD MSTORE PUSH1 0x64 ADD PUSH1 0x20 PUSH1 0x40 MLOAD DUP1 DUP4 SUB DUP2 PUSH1 0x0 DUP8 GAS CALL ISZERO DUP1 ISZERO PUSH2 0xD0F JUMPI RETURNDATASIZE PUSH1 0x0 DUP1 RETURNDATACOPY RETURNDATASIZE PUSH1 0x0 REVERT JUMPDEST POP POP POP POP PUSH1 0x40 MLOAD RETURNDATASIZE PUSH1 0x1F NOT PUSH1 0x1F DUP3 ADD AND DUP3 ADD DUP1 PUSH1 0x40 MSTORE POP DUP2 ADD SWAP1 PUSH2 0xD33 SWAP2 SWAP1 PUSH2 0x17D2 JUMP JUMPDEST POP PUSH1 0x40 DUP1 MLOAD DUP6 DUP2 MSTORE PUSH1 0x1 PUSH1 0x1 PUSH1 0xA0 SHL SUB DUP6 AND PUSH1 0x20 DUP3 ADD MSTORE PUSH32 0x757E61E0D078D58246A59B2FFE29975DC7053B43AA3A163B3B5B43FC1FB0C147 SWAP2 ADD PUSH1 0x40 MLOAD DUP1 SWAP2 SUB SWAP1 LOG1 PUSH1 0x1 SWAP10 POP POP POP POP POP POP POP POP POP POP SWAP1 JUMP JUMPDEST PUSH1 0xF SLOAD PUSH1 0x40 DUP1 MLOAD PUSH32 0x79A9456900000000000000000000000000000000000000000000000000000000 DUP2 MSTORE SWAP1 MLOAD PUSH1 0x0 SWAP3 PUSH1 0x1 PUSH1 0x1 PUSH1 0xA0 SHL SUB AND SWAP2 PUSH4 0x79A94569 SWAP2 PUSH1 0x4 DUP1 DUP4 ADD SWAP3 PUSH1 0x20 SWAP3 SWAP2 SWAP1 DUP3 SWAP1 SUB ADD DUP2 DUP7 GAS STATICCALL ISZERO DUP1 ISZERO PUSH2 0xDE8 JUMPI RETURNDATASIZE PUSH1 0x0 DUP1 RETURNDATACOPY RETURNDATASIZE PUSH1 0x0 REVERT JUMPDEST POP POP POP POP PUSH1 0x40 MLOAD RETURNDATASIZE PUSH1 0x1F NOT PUSH1 0x1F DUP3 ADD AND DUP3 ADD DUP1 PUSH1 0x40 MSTORE POP DUP2 ADD SWAP1 PUSH2 0xE0C SWAP2 SWAP1 PUSH2 0x17F4 JUMP JUMPDEST SWAP1 POP SWAP1 JUMP JUMPDEST PUSH1 0x60 PUSH1 0x14 DUP1 SLOAD PUSH2 0x6B4 SWAP1 PUSH2 0x170A JUMP JUMPDEST PUSH1 0x0 PUSH1 0x1 PUSH1 0x1 PUSH1 0xA0 SHL SUB DUP4 AND PUSH2 0xE9E JUMPI PUSH1 0x40 MLOAD PUSH3 0x461BCD PUSH1 0xE5 SHL DUP2 MSTORE PUSH1 0x20 PUSH1 0x4 DUP3 ADD MSTORE PUSH1 0x21 PUSH1 0x24 DUP3 ADD MSTORE PUSH32 0x45524332303A206275726E2066726F6D20746865207A65726F20616464726573 PUSH1 0x44 DUP3 ADD MSTORE PUSH32 0x7300000000000000000000000000000000000000000000000000000000000000 PUSH1 0x64 DUP3 ADD MSTORE PUSH1 0x84 ADD PUSH2 0x808 JUMP JUMPDEST PUSH1 0x1 PUSH1 0x1 PUSH1 0xA0 SHL SUB DUP4 AND PUSH1 0x0 SWAP1 DUP2 MSTORE PUSH1 0x10 PUSH1 0x20 MSTORE PUSH1 0x40 SWAP1 KECCAK256 SLOAD DUP3 DUP2 LT ISZERO PUSH2 0xF2D JUMPI PUSH1 0x40 MLOAD PUSH3 0x461BCD PUSH1 0xE5 SHL DUP2 MSTORE PUSH1 0x20 PUSH1 0x4 DUP3 ADD MSTORE PUSH1 0x22 PUSH1 0x24 DUP3 ADD MSTORE PUSH32 0x45524332303A206275726E20616D6F756E7420657863656564732062616C616E PUSH1 0x44 DUP3 ADD MSTORE PUSH32 0x6365000000000000000000000000000000000000000000000000000000000000 PUSH1 0x64 DUP3 ADD MSTORE PUSH1 0x84 ADD PUSH2 0x808 JUMP JUMPDEST PUSH1 0x1 PUSH1 0x1 PUSH1 0xA0 SHL SUB DUP5 AND PUSH1 0x0 DUP2 DUP2 MSTORE PUSH1 0x10 PUSH1 0x20 SWAP1 DUP2 MSTORE PUSH1 0x40 DUP1 DUP4 KECCAK256 DUP8 DUP7 SUB SWAP1 SSTORE PUSH1 0x12 DUP1 SLOAD DUP9 SWAP1 SUB SWAP1 SSTORE MLOAD DUP7 DUP2 MSTORE SWAP2 SWAP3 SWAP2 PUSH32 0xDDF252AD1BE2C89B69C2B068FC378DAA952BA7F163C4A11628F55A4DF523B3EF SWAP2 ADD PUSH1 0x40 MLOAD DUP1 SWAP2 SUB SWAP1 LOG3 PUSH2 0x745 JUMP JUMPDEST CALLER PUSH1 0x0 DUP2 DUP2 MSTORE PUSH1 0x11 PUSH1 0x20 SWAP1 DUP2 MSTORE PUSH1 0x40 DUP1 DUP4 KECCAK256 PUSH1 0x1 PUSH1 0x1 PUSH1 0xA0 SHL SUB DUP8 AND DUP5 MSTORE SWAP1 SWAP2 MSTORE DUP2 KECCAK256 SLOAD SWAP1 SWAP2 SWAP1 DUP4 DUP2 LT ISZERO PUSH2 0x102A JUMPI PUSH1 0x40 MLOAD PUSH3 0x461BCD PUSH1 0xE5 SHL DUP2 MSTORE PUSH1 0x20 PUSH1 0x4 DUP3 ADD MSTORE PUSH1 0x25 PUSH1 0x24 DUP3 ADD MSTORE PUSH32 0x45524332303A2064656372656173656420616C6C6F77616E63652062656C6F77 PUSH1 0x44 DUP3 ADD MSTORE PUSH32 0x207A65726F000000000000000000000000000000000000000000000000000000 PUSH1 0x64 DUP3 ADD MSTORE PUSH1 0x84 ADD PUSH2 0x808 JUMP JUMPDEST PUSH2 0x76A DUP3 DUP7 DUP7 DUP5 SUB PUSH2 0x1045 JUMP JUMPDEST PUSH1 0x0 CALLER PUSH2 0x745 DUP2 DUP6 DUP6 PUSH2 0x122F JUMP JUMPDEST PUSH1 0x1 PUSH1 0x1 PUSH1 0xA0 SHL SUB DUP4 AND PUSH2 0x10C0 JUMPI PUSH1 0x40 MLOAD PUSH3 0x461BCD PUSH1 0xE5 SHL DUP2 MSTORE PUSH1 0x20 PUSH1 0x4 DUP3 ADD MSTORE PUSH1 0x24 DUP1 DUP3 ADD MSTORE PUSH32 0x45524332303A20617070726F76652066726F6D20746865207A65726F20616464 PUSH1 0x44 DUP3 ADD MSTORE PUSH32 0x7265737300000000000000000000000000000000000000000000000000000000 PUSH1 0x64 DUP3 ADD MSTORE PUSH1 0x84 ADD PUSH2 0x808 JUMP JUMPDEST PUSH1 0x1 PUSH1 0x1 PUSH1 0xA0 SHL SUB DUP3 AND PUSH2 0x113C JUMPI PUSH1 0x40 MLOAD PUSH3 0x461BCD PUSH1 0xE5 SHL DUP2 MSTORE PUSH1 0x20 PUSH1 0x4 DUP3 ADD MSTORE PUSH1 0x22 PUSH1 0x24 DUP3 ADD MSTORE PUSH32 0x45524332303A20617070726F766520746F20746865207A65726F206164647265 PUSH1 0x44 DUP3 ADD MSTORE PUSH32 0x7373000000000000000000000000000000000000000000000000000000000000 PUSH1 0x64 DUP3 ADD MSTORE PUSH1 0x84 ADD PUSH2 0x808 JUMP JUMPDEST PUSH1 0x1 PUSH1 0x1 PUSH1 0xA0 SHL SUB DUP4 DUP2 AND PUSH1 0x0 DUP2 DUP2 MSTORE PUSH1 0x11 PUSH1 0x20 SWAP1 DUP2 MSTORE PUSH1 0x40 DUP1 DUP4 KECCAK256 SWAP5 DUP8 AND DUP1 DUP5 MSTORE SWAP5 DUP3 MSTORE SWAP2 DUP3 SWAP1 KECCAK256 DUP6 SWAP1 SSTORE SWAP1 MLOAD DUP5 DUP2 MSTORE PUSH32 0x8C5BE1E5EBEC7D5BD14F71427D1E84F3DD0314C0F7B2291E5B200AC8C7C3B925 SWAP2 ADD PUSH1 0x40 MLOAD DUP1 SWAP2 SUB SWAP1 LOG3 POP POP POP JUMP JUMPDEST PUSH1 0x1 PUSH1 0x1 PUSH1 0xA0 SHL SUB DUP4 DUP2 AND PUSH1 0x0 SWAP1 DUP2 MSTORE PUSH1 0x11 PUSH1 0x20 SWAP1 DUP2 MSTORE PUSH1 0x40 DUP1 DUP4 KECCAK256 SWAP4 DUP7 AND DUP4 MSTORE SWAP3 SWAP1 MSTORE KECCAK256 SLOAD PUSH1 0x0 NOT DUP2 EQ PUSH2 0x1229 JUMPI DUP2 DUP2 LT ISZERO PUSH2 0x121C JUMPI PUSH1 0x40 MLOAD PUSH3 0x461BCD PUSH1 0xE5 SHL DUP2 MSTORE PUSH1 0x20 PUSH1 0x4 DUP3 ADD MSTORE PUSH1 0x1D PUSH1 0x24 DUP3 ADD MSTORE PUSH32 0x45524332303A20696E73756666696369656E7420616C6C6F77616E6365000000 PUSH1 0x44 DUP3 ADD MSTORE PUSH1 0x64 ADD PUSH2 0x808 JUMP JUMPDEST PUSH2 0x1229 DUP5 DUP5 DUP5 DUP5 SUB PUSH2 0x1045 JUMP JUMPDEST POP POP POP POP JUMP JUMPDEST PUSH1 0x1 PUSH1 0x1 PUSH1 0xA0 SHL SUB DUP4 AND PUSH2 0x12AB JUMPI PUSH1 0x40 MLOAD PUSH3 0x461BCD PUSH1 0xE5 SHL DUP2 MSTORE PUSH1 0x20 PUSH1 0x4 DUP3 ADD MSTORE PUSH1 0x25 PUSH1 0x24 DUP3 ADD MSTORE PUSH32 0x45524332303A207472616E736665722066726F6D20746865207A65726F206164 PUSH1 0x44 DUP3 ADD MSTORE PUSH32 0x6472657373000000000000000000000000000000000000000000000000000000 PUSH1 0x64 DUP3 ADD MSTORE PUSH1 0x84 ADD PUSH2 0x808 JUMP JUMPDEST PUSH1 0x1 PUSH1 0x1 PUSH1 0xA0 SHL SUB DUP3 AND PUSH2 0x1327 JUMPI PUSH1 0x40 MLOAD PUSH3 0x461BCD PUSH1 0xE5 SHL DUP2 MSTORE PUSH1 0x20 PUSH1 0x4 DUP3 ADD MSTORE PUSH1 0x23 PUSH1 0x24 DUP3 ADD MSTORE PUSH32 0x45524332303A207472616E7366657220746F20746865207A65726F2061646472 PUSH1 0x44 DUP3 ADD MSTORE PUSH32 0x6573730000000000000000000000000000000000000000000000000000000000 PUSH1 0x64 DUP3 ADD MSTORE PUSH1 0x84 ADD PUSH2 0x808 JUMP JUMPDEST PUSH1 0x1 PUSH1 0x1 PUSH1 0xA0 SHL SUB DUP4 AND PUSH1 0x0 SWAP1 DUP2 MSTORE PUSH1 0x10 PUSH1 0x20 MSTORE PUSH1 0x40 SWAP1 KECCAK256 SLOAD DUP2 DUP2 LT ISZERO PUSH2 0x13B6 JUMPI PUSH1 0x40 MLOAD PUSH3 0x461BCD PUSH1 0xE5 SHL DUP2 MSTORE PUSH1 0x20 PUSH1 0x4 DUP3 ADD MSTORE PUSH1 0x26 PUSH1 0x24 DUP3 ADD MSTORE PUSH32 0x45524332303A207472616E7366657220616D6F756E7420657863656564732062 PUSH1 0x44 DUP3 ADD MSTORE PUSH32 0x616C616E63650000000000000000000000000000000000000000000000000000 PUSH1 0x64 DUP3 ADD MSTORE PUSH1 0x84 ADD PUSH2 0x808 JUMP JUMPDEST PUSH1 0x1 PUSH1 0x1 PUSH1 0xA0 SHL SUB DUP1 DUP6 AND PUSH1 0x0 DUP2 DUP2 MSTORE PUSH1 0x10 PUSH1 0x20 MSTORE PUSH1 0x40 DUP1 DUP3 KECCAK256 DUP7 DUP7 SUB SWAP1 SSTORE DUP7 DUP5 AND DUP3 MSTORE SWAP1 KECCAK256 DUP1 SLOAD DUP6 ADD SWAP1 SSTORE PUSH1 0x1 SLOAD SWAP1 SWAP2 AND SWAP1 SUB PUSH2 0x141B JUMPI PUSH1 0x1 DUP1 SLOAD PUSH20 0xFFFFFFFFFFFFFFFFFFFFFFFFFFFFFFFFFFFFFFFF NOT AND PUSH1 0x1 PUSH1 0x1 PUSH1 0xA0 SHL SUB DUP6 AND OR SWAP1 SSTORE PUSH2 0x14A6 JUMP JUMPDEST PUSH1 0x2 SLOAD PUSH1 0x1 PUSH1 0x1 PUSH1 0xA0 SHL SUB SWAP1 DUP2 AND SWAP1 DUP6 AND SUB PUSH2 0x145E JUMPI PUSH1 0x2 DUP1 SLOAD PUSH20 0xFFFFFFFFFFFFFFFFFFFFFFFFFFFFFFFFFFFFFFFF NOT AND PUSH1 0x1 PUSH1 0x1 PUSH1 0xA0 SHL SUB DUP6 AND OR SWAP1 SSTORE PUSH2 0x14A6 JUMP JUMPDEST PUSH1 0x40 MLOAD PUSH3 0x461BCD PUSH1 0xE5 SHL DUP2 MSTORE PUSH1 0x20 PUSH1 0x4 DUP3 ADD MSTORE PUSH1 0x14 PUSH1 0x24 DUP3 ADD MSTORE PUSH32 0x696E76616C69642066726F6D2061646472657373000000000000000000000000 PUSH1 0x44 DUP3 ADD MSTORE PUSH1 0x64 ADD PUSH2 0x808 JUMP JUMPDEST DUP3 PUSH1 0x1 PUSH1 0x1 PUSH1 0xA0 SHL SUB AND DUP5 PUSH1 0x1 PUSH1 0x1 PUSH1 0xA0 SHL SUB AND PUSH32 0xDDF252AD1BE2C89B69C2B068FC378DAA952BA7F163C4A11628F55A4DF523B3EF DUP5 PUSH1 0x40 MLOAD PUSH2 0x14EB SWAP2 DUP2 MSTORE PUSH1 0x20 ADD SWAP1 JUMP JUMPDEST PUSH1 0x40 MLOAD DUP1 SWAP2 SUB SWAP1 LOG3 PUSH2 0x1229 JUMP JUMPDEST PUSH1 0x0 PUSH1 0x20 DUP1 DUP4 MSTORE DUP4 MLOAD DUP1 DUP3 DUP6 ADD MSTORE PUSH1 0x0 JUMPDEST DUP2 DUP2 LT ISZERO PUSH2 0x1525 JUMPI DUP6 DUP2 ADD DUP4 ADD MLOAD DUP6 DUP3 ADD PUSH1 0x40 ADD MSTORE DUP3 ADD PUSH2 0x1509 JUMP JUMPDEST POP PUSH1 0x0 PUSH1 0x40 DUP3 DUP7 ADD ADD MSTORE PUSH1 0x40 PUSH1 0x1F NOT PUSH1 0x1F DUP4 ADD AND DUP6 ADD ADD SWAP3 POP POP POP SWAP3 SWAP2 POP POP JUMP JUMPDEST DUP1 CALLDATALOAD PUSH1 0x1 PUSH1 0x1 PUSH1 0xA0 SHL SUB DUP2 AND DUP2 EQ PUSH2 0x155D JUMPI PUSH1 0x0 DUP1 REVERT JUMPDEST SWAP2 SWAP1 POP JUMP JUMPDEST PUSH1 0x0 DUP1 PUSH1 0x40 DUP4 DUP6 SUB SLT ISZERO PUSH2 0x1575 JUMPI PUSH1 0x0 DUP1 REVERT JUMPDEST PUSH2 0x157E DUP4 PUSH2 0x1546 JUMP JUMPDEST SWAP5 PUSH1 0x20 SWAP4 SWAP1 SWAP4 ADD CALLDATALOAD SWAP4 POP POP POP JUMP JUMPDEST PUSH1 0x0 DUP1 PUSH1 0x0 PUSH1 0x60 DUP5 DUP7 SUB SLT ISZERO PUSH2 0x15A1 JUMPI PUSH1 0x0 DUP1 REVERT JUMPDEST PUSH2 0x15AA DUP5 PUSH2 0x1546 JUMP JUMPDEST SWAP3 POP PUSH2 0x15B8 PUSH1 0x20 DUP6 ADD PUSH2 0x1546 JUMP JUMPDEST SWAP2 POP PUSH1 0x40 DUP5 ADD CALLDATALOAD SWAP1 POP SWAP3 POP SWAP3 POP SWAP3 JUMP JUMPDEST DUP2 MLOAD PUSH1 0x1 PUSH1 0x1 PUSH1 0xA0 SHL SUB AND DUP2 MSTORE PUSH2 0x1C0 DUP2 ADD PUSH1 0x20 DUP4 ADD MLOAD PUSH2 0x15F4 PUSH1 0x20 DUP5 ADD DUP3 PUSH1 0x1 PUSH1 0x1 PUSH1 0xA0 SHL SUB AND SWAP1 MSTORE JUMP JUMPDEST POP PUSH1 0x40 DUP4 ADD MLOAD PUSH2 0x160F PUSH1 0x40 DUP5 ADD DUP3 PUSH1 0x1 PUSH1 0x1 PUSH1 0xA0 SHL SUB AND SWAP1 MSTORE JUMP JUMPDEST POP PUSH1 0x60 DUP4 ADD MLOAD PUSH2 0x1624 PUSH1 0x60 DUP5 ADD DUP3 PUSH1 0xFF AND SWAP1 MSTORE JUMP JUMPDEST POP PUSH1 0x80 DUP4 ADD MLOAD PUSH2 0x1639 PUSH1 0x80 DUP5 ADD DUP3 PUSH1 0xFF AND SWAP1 MSTORE JUMP JUMPDEST POP PUSH1 0xA0 DUP4 ADD MLOAD PUSH1 0xA0 DUP4 ADD MSTORE PUSH1 0xC0 DUP4 ADD MLOAD PUSH1 0xC0 DUP4 ADD MSTORE PUSH1 0xE0 DUP4 ADD MLOAD PUSH2 0x1668 PUSH1 0xE0 DUP5 ADD DUP3 PUSH1 0x1 PUSH1 0x1 PUSH1 0xA0 SHL SUB AND SWAP1 MSTORE JUMP JUMPDEST POP PUSH2 0x100 DUP4 DUP2 ADD MLOAD SWAP1 DUP4 ADD MSTORE PUSH2 0x120 DUP1 DUP5 ADD MLOAD SWAP1 DUP4 ADD MSTORE PUSH2 0x140 DUP1 DUP5 ADD MLOAD SWAP1 DUP4 ADD MSTORE PUSH2 0x160 DUP1 DUP5 ADD MLOAD SWAP1 DUP4 ADD MSTORE PUSH2 0x180 DUP1 DUP5 ADD MLOAD SWAP1 DUP4 ADD MSTORE PUSH2 0x1A0 SWAP3 DUP4 ADD MLOAD PUSH1 0xFF AND SWAP3 SWAP1 SWAP2 ADD SWAP2 SWAP1 SWAP2 MSTORE SWAP1 JUMP JUMPDEST PUSH1 0x0 PUSH1 0x20 DUP3 DUP5 SUB SLT ISZERO PUSH2 0x16C7 JUMPI PUSH1 0x0 DUP1 REVERT JUMPDEST PUSH2 0x16D0 DUP3 PUSH2 0x1546 JUMP JUMPDEST SWAP4 SWAP3 POP POP POP JUMP JUMPDEST PUSH1 0x0 DUP1 PUSH1 0x40 DUP4 DUP6 SUB SLT ISZERO PUSH2 0x16EA JUMPI PUSH1 0x0 DUP1 REVERT JUMPDEST PUSH2 0x16F3 DUP4 PUSH2 0x1546 JUMP JUMPDEST SWAP2 POP PUSH2 0x1701 PUSH1 0x20 DUP5 ADD PUSH2 0x1546 JUMP JUMPDEST SWAP1 POP SWAP3 POP SWAP3 SWAP1 POP JUMP JUMPDEST PUSH1 0x1 DUP2 DUP2 SHR SWAP1 DUP3 AND DUP1 PUSH2 0x171E JUMPI PUSH1 0x7F DUP3 AND SWAP2 POP JUMPDEST PUSH1 0x20 DUP3 LT DUP2 SUB PUSH2 0x173E JUMPI PUSH4 0x4E487B71 PUSH1 0xE0 SHL PUSH1 0x0 MSTORE PUSH1 0x22 PUSH1 0x4 MSTORE PUSH1 0x24 PUSH1 0x0 REVERT JUMPDEST POP SWAP2 SWAP1 POP JUMP JUMPDEST PUSH4 0x4E487B71 PUSH1 0xE0 SHL PUSH1 0x0 MSTORE PUSH1 0x11 PUSH1 0x4 MSTORE PUSH1 0x24 PUSH1 0x0 REVERT JUMPDEST DUP1 DUP3 ADD DUP1 DUP3 GT ISZERO PUSH2 0x74B JUMPI PUSH2 0x74B PUSH2 0x1744 JUMP JUMPDEST DUP1 DUP3 MUL DUP2 ISZERO DUP3 DUP3 DIV DUP5 EQ OR PUSH2 0x74B JUMPI PUSH2 0x74B PUSH2 0x1744 JUMP JUMPDEST DUP2 DUP2 SUB DUP2 DUP2 GT ISZERO PUSH2 0x74B JUMPI PUSH2 0x74B PUSH2 0x1744 JUMP JUMPDEST PUSH1 0xFF DUP2 DUP2 AND DUP4 DUP3 AND ADD SWAP1 DUP2 GT ISZERO PUSH2 0x74B JUMPI PUSH2 0x74B PUSH2 0x1744 JUMP JUMPDEST PUSH1 0x0 DUP3 PUSH2 0x17CD JUMPI PUSH4 0x4E487B71 PUSH1 0xE0 SHL PUSH1 0x0 MSTORE PUSH1 0x12 PUSH1 0x4 MSTORE PUSH1 0x24 PUSH1 0x0 REVERT JUMPDEST POP DIV SWAP1 JUMP JUMPDEST PUSH1 0x0 PUSH1 0x20 DUP3 DUP5 SUB SLT ISZERO PUSH2 0x17E4 JUMPI PUSH1 0x0 DUP1 REVERT JUMPDEST DUP2 MLOAD DUP1 ISZERO ISZERO DUP2 EQ PUSH2 0x16D0 JUMPI PUSH1 0x0 DUP1 REVERT JUMPDEST PUSH1 0x0 PUSH1 0x20 DUP3 DUP5 SUB SLT ISZERO PUSH2 0x1806 JUMPI PUSH1 0x0 DUP1 REVERT JUMPDEST POP MLOAD SWAP2 SWAP1 POP JUMP INVALID LOG2 PUSH5 0x6970667358 0x22 SLT KECCAK256 PUSH14 0xBE5F14754EEED26019A832D8D820 0xC6 0xF9 0xE5 PUSH30 0x664C1BAE7AF5FFE8281B86435C64736F6C63430008130033A26469706673 PC 0x22 SLT KECCAK256 SGT 0x2A SWAP12 0xA5 PUSH7 0x3266E779BB7B61 0x1E 0xC9 MOD 0xE9 COINBASE RETURNDATACOPY 0x2B MLOAD PUSH22 0x36BB2F3971C6CA275D1E864736F6C63430008130033 "},"methodIdentifiers":{"deployIRSContract(address,address,uint8,string,string,(address,address,address,uint8,uint8,uint256,uint256,address,uint256,uint256,uint256,uint256,uint256,uint8),address)":"a07a1589","isIRSContract(address,address)":"1e0e928f","toposBankContract()":"9c34712a","toposManager()":"7f31ed73"}}}}}