{"contracts/Topos/Bank/ToposBank.sol":{"ToposBank":{"abi":[{"inputs":[{"internalType":"address","name":"_toposManager","type":"address"},{"internalType":"address","name":"_rolesContract","type":"address"},{"internalType":"address","name":"_identityRegistryContract","type":"address"},{"internalType":"address","name":"_bondCallContract","type":"address"},{"internalType":"uint256","name":"_dealFees","type":"uint256"}],"stateMutability":"nonpayable","type":"constructor"},{"inputs":[{"internalType":"uint256","name":"amount","type":"uint256"}],"name":"InvalidAmount","type":"error"},{"inputs":[{"internalType":"string","name":"dealID","type":"string"}],"name":"InvalidDealStatus","type":"error"},{"anonymous":false,"inputs":[{"indexed":false,"internalType":"string","name":"_dealID","type":"string"}],"name":"BondIssue","type":"event"},{"anonymous":false,"inputs":[{"indexed":false,"internalType":"string","name":"_dealID","type":"string"}],"name":"BondRedeem","type":"event"},{"anonymous":false,"inputs":[{"indexed":false,"internalType":"string","name":"dealID","type":"string"}],"name":"DealAPproved","type":"event"},{"anonymous":false,"inputs":[{"indexed":false,"internalType":"string","name":"dealID","type":"string"}],"name":"DealARejected","type":"event"},{"anonymous":false,"inputs":[{"indexed":false,"internalType":"string","name":"dealID","type":"string"},{"components":[{"internalType":"string","name":"dealID","type":"string"},{"internalType":"string","name":"prospectusURI","type":"string"},{"internalType":"address","name":"issuerAddress","type":"address"},{"internalType":"uint256","name":"debtAmount","type":"uint256"},{"internalType":"uint256","name":"denomination","type":"uint256"},{"internalType":"uint256","name":"couponRate","type":"uint256"},{"internalType":"uint256","name":"couponFrequency","type":"uint256"},{"internalType":"uint256","name":"maturityDate","type":"uint256"},{"internalType":"uint256","name":"index","type":"uint256"},{"internalType":"address","name":"currency","type":"address"},{"internalType":"uint8","name":"couponType","type":"uint8"},{"internalType":"enum BondData.DealStatus","name":"status","type":"uint8"}],"indexed":false,"internalType":"struct BondData.Deal","name":"deal","type":"tuple"}],"name":"DealSubmitted","type":"event"},{"anonymous":false,"inputs":[{"indexed":false,"internalType":"string","name":"dealID","type":"string"},{"indexed":false,"internalType":"address","name":"investor","type":"address"}],"name":"RegisterForDeal","type":"event"},{"inputs":[{"internalType":"address","name":"","type":"address"},{"internalType":"string","name":"","type":"string"}],"name":"amountInvested","outputs":[{"internalType":"uint256","name":"amount","type":"uint256"},{"internalType":"bool","name":"hasInvested","type":"bool"},{"internalType":"uint256","name":"index","type":"uint256"}],"stateMutability":"view","type":"function"},{"inputs":[{"internalType":"string","name":"_dealID","type":"string"}],"name":"approveDeal","outputs":[],"stateMutability":"nonpayable","type":"function"},{"inputs":[],"name":"bondCallContract","outputs":[{"internalType":"address","name":"","type":"address"}],"stateMutability":"view","type":"function"},{"inputs":[{"internalType":"string","name":"","type":"string"}],"name":"dealBondContracts","outputs":[{"internalType":"address","name":"","type":"address"}],"stateMutability":"view","type":"function"},{"inputs":[],"name":"dealFees","outputs":[{"internalType":"uint256","name":"","type":"uint256"}],"stateMutability":"view","type":"function"},{"inputs":[{"internalType":"string","name":"","type":"string"},{"internalType":"uint256","name":"","type":"uint256"}],"name":"dealInvestment","outputs":[{"internalType":"address","name":"investor","type":"address"},{"internalType":"uint256","name":"amount","type":"uint256"}],"stateMutability":"view","type":"function"},{"inputs":[{"internalType":"string","name":"","type":"string"}],"name":"deals","outputs":[{"internalType":"string","name":"dealID","type":"string"},{"internalType":"string","name":"prospectusURI","type":"string"},{"internalType":"address","name":"issuerAddress","type":"address"},{"internalType":"uint256","name":"debtAmount","type":"uint256"},{"internalType":"uint256","name":"denomination","type":"uint256"},{"internalType":"uint256","name":"couponRate","type":"uint256"},{"internalType":"uint256","name":"couponFrequency","type":"uint256"},{"internalType":"uint256","name":"maturityDate","type":"uint256"},{"internalType":"uint256","name":"index","type":"uint256"},{"internalType":"address","name":"currency","type":"address"},{"internalType":"uint8","name":"couponType","type":"uint8"},{"internalType":"enum BondData.DealStatus","name":"status","type":"uint8"}],"stateMutability":"view","type":"function"},{"inputs":[],"name":"getContracts","outputs":[{"internalType":"address","name":"manager","type":"address"},{"internalType":"address","name":"roles","type":"address"},{"internalType":"address","name":"identityRegistry","type":"address"},{"internalType":"address","name":"bondCall","type":"address"},{"internalType":"address","name":"issuerFund","type":"address"}],"stateMutability":"view","type":"function"},{"inputs":[],"name":"getDealFees","outputs":[{"internalType":"uint256","name":"","type":"uint256"}],"stateMutability":"view","type":"function"},{"inputs":[{"internalType":"string","name":"_dealID","type":"string"}],"name":"getDealInvestment","outputs":[{"components":[{"internalType":"address","name":"investor","type":"address"},{"internalType":"uint256","name":"amount","type":"uint256"}],"internalType":"struct BondData.DealInvestment[]","name":"","type":"tuple[]"}],"stateMutability":"view","type":"function"},{"inputs":[],"name":"getListOfBonds","outputs":[{"components":[{"internalType":"string","name":"isin","type":"string"},{"internalType":"string","name":"name","type":"string"},{"internalType":"string","name":"symbol","type":"string"},{"internalType":"address","name":"currency","type":"address"},{"internalType":"uint256","name":"denomination","type":"uint256"},{"internalType":"uint256","name":"issueVolume","type":"uint256"},{"internalType":"uint256","name":"couponRate","type":"uint256"},{"internalType":"uint8","name":"couponType","type":"uint8"},{"internalType":"uint256","name":"couponFrequency","type":"uint256"},{"internalType":"uint256","name":"issueDate","type":"uint256"},{"internalType":"uint256","name":"maturityDate","type":"uint256"}],"internalType":"struct BondData.Bond[]","name":"","type":"tuple[]"}],"stateMutability":"view","type":"function"},{"inputs":[],"name":"getListOfBondsDealIDs","outputs":[{"internalType":"string[]","name":"","type":"string[]"}],"stateMutability":"view","type":"function"},{"inputs":[],"name":"getListOfDeals","outputs":[{"components":[{"internalType":"string","name":"dealID","type":"string"},{"internalType":"string","name":"prospectusURI","type":"string"},{"internalType":"address","name":"issuerAddress","type":"address"},{"internalType":"uint256","name":"debtAmount","type":"uint256"},{"internalType":"uint256","name":"denomination","type":"uint256"},{"internalType":"uint256","name":"couponRate","type":"uint256"},{"internalType":"uint256","name":"couponFrequency","type":"uint256"},{"internalType":"uint256","name":"maturityDate","type":"uint256"},{"internalType":"uint256","name":"index","type":"uint256"},{"internalType":"address","name":"currency","type":"address"},{"internalType":"uint8","name":"couponType","type":"uint8"},{"internalType":"enum BondData.DealStatus","name":"status","type":"uint8"}],"internalType":"struct BondData.Deal[]","name":"","type":"tuple[]"}],"stateMutability":"view","type":"function"},{"inputs":[{"internalType":"string","name":"_dealID","type":"string"}],"name":"getTotalAmounInvested","outputs":[{"internalType":"uint256","name":"","type":"uint256"}],"stateMutability":"view","type":"function"},{"inputs":[],"name":"identityRegistryContract","outputs":[{"internalType":"address","name":"","type":"address"}],"stateMutability":"view","type":"function"},{"inputs":[{"internalType":"string","name":"_dealID","type":"string"},{"components":[{"internalType":"string","name":"isin","type":"string"},{"internalType":"string","name":"name","type":"string"},{"internalType":"string","name":"symbol","type":"string"},{"internalType":"address","name":"currency","type":"address"},{"internalType":"uint256","name":"denomination","type":"uint256"},{"internalType":"uint256","name":"issueVolume","type":"uint256"},{"internalType":"uint256","name":"couponRate","type":"uint256"},{"internalType":"uint8","name":"couponType","type":"uint8"},{"internalType":"uint256","name":"couponFrequency","type":"uint256"},{"internalType":"uint256","name":"issueDate","type":"uint256"},{"internalType":"uint256","name":"maturityDate","type":"uint256"}],"internalType":"struct BondData.Bond","name":"_bond","type":"tuple"},{"internalType":"address","name":"_bondContract","type":"address"}],"name":"issue","outputs":[],"stateMutability":"nonpayable","type":"function"},{"inputs":[{"internalType":"address","name":"","type":"address"},{"internalType":"uint256","name":"","type":"uint256"}],"name":"issuerDeals","outputs":[{"internalType":"string","name":"dealID","type":"string"},{"internalType":"string","name":"prospectusURI","type":"string"},{"internalType":"address","name":"issuerAddress","type":"address"},{"internalType":"uint256","name":"debtAmount","type":"uint256"},{"internalType":"uint256","name":"denomination","type":"uint256"},{"internalType":"uint256","name":"couponRate","type":"uint256"},{"internalType":"uint256","name":"couponFrequency","type":"uint256"},{"internalType":"uint256","name":"maturityDate","type":"uint256"},{"internalType":"uint256","name":"index","type":"uint256"},{"internalType":"address","name":"currency","type":"address"},{"internalType":"uint8","name":"couponType","type":"uint8"},{"internalType":"enum BondData.DealStatus","name":"status","type":"uint8"}],"stateMutability":"view","type":"function"},{"inputs":[],"name":"issuersFundContract","outputs":[{"internalType":"address","name":"","type":"address"}],"stateMutability":"view","type":"function"},{"inputs":[{"internalType":"string","name":"_dealID","type":"string"},{"internalType":"address","name":"_bondContract","type":"address"}],"name":"redeem","outputs":[],"stateMutability":"nonpayable","type":"function"},{"inputs":[{"internalType":"string","name":"_dealID","type":"string"},{"internalType":"uint256","name":"_amount","type":"uint256"}],"name":"registerForDeal","outputs":[],"stateMutability":"nonpayable","type":"function"},{"inputs":[{"internalType":"string","name":"_dealID","type":"string"}],"name":"rejectDeal","outputs":[],"stateMutability":"nonpayable","type":"function"},{"inputs":[],"name":"rolesContract","outputs":[{"internalType":"address","name":"","type":"address"}],"stateMutability":"view","type":"function"},{"inputs":[{"internalType":"string","name":"_dealID","type":"string"},{"internalType":"address","name":"_bondContractAddress","type":"address"}],"name":"setBondContractAddress","outputs":[],"stateMutability":"nonpayable","type":"function"},{"inputs":[{"internalType":"address","name":"_issuerFundContract","type":"address"}],"name":"setIssuerFundContract","outputs":[],"stateMutability":"nonpayable","type":"function"},{"inputs":[{"internalType":"address","name":"_toposManager","type":"address"}],"name":"setManager","outputs":[],"stateMutability":"nonpayable","type":"function"},{"inputs":[{"internalType":"string","name":"_dealID","type":"string"},{"components":[{"internalType":"string","name":"dealID","type":"string"},{"internalType":"string","name":"prospectusURI","type":"string"},{"internalType":"address","name":"issuerAddress","type":"address"},{"internalType":"uint256","name":"debtAmount","type":"uint256"},{"internalType":"uint256","name":"denomination","type":"uint256"},{"internalType":"uint256","name":"couponRate","type":"uint256"},{"internalType":"uint256","name":"couponFrequency","type":"uint256"},{"internalType":"uint256","name":"maturityDate","type":"uint256"},{"internalType":"uint256","name":"index","type":"uint256"},{"internalType":"address","name":"currency","type":"address"},{"internalType":"uint8","name":"couponType","type":"uint8"},{"internalType":"enum BondData.DealStatus","name":"status","type":"uint8"}],"internalType":"struct BondData.Deal","name":"_deal","type":"tuple"}],"name":"submitDeal","outputs":[],"stateMutability":"nonpayable","type":"function"},{"inputs":[],"name":"toposManager","outputs":[{"internalType":"address","name":"","type":"address"}],"stateMutability":"view","type":"function"},{"inputs":[{"internalType":"string","name":"","type":"string"}],"name":"totalAmountInvestedForDeal","outputs":[{"internalType":"uint256","name":"","type":"uint256"}],"stateMutability":"view","type":"function"},{"inputs":[{"internalType":"string","name":"_dealID","type":"string"}],"name":"withdrawIssuerFund","outputs":[],"stateMutability":"nonpayable","type":"function"}],"evm":{"bytecode":{"linkReferences":{},"object":"60806040523480156200001157600080fd5b5060405162005d7738038062005d778339818101604052810190620000379190620001f2565b84600660006101000a81548173ffffffffffffffffffffffffffffffffffffffff021916908373ffffffffffffffffffffffffffffffffffffffff16021790555083600760006101000a81548173ffffffffffffffffffffffffffffffffffffffff021916908373ffffffffffffffffffffffffffffffffffffffff16021790555082600860006101000a81548173ffffffffffffffffffffffffffffffffffffffff021916908373ffffffffffffffffffffffffffffffffffffffff16021790555081600960006101000a81548173ffffffffffffffffffffffffffffffffffffffff021916908373ffffffffffffffffffffffffffffffffffffffff16021790555080600b8190555050505050506200027a565b600080fd5b600073ffffffffffffffffffffffffffffffffffffffff82169050919050565b60006200017f8262000152565b9050919050565b620001918162000172565b81146200019d57600080fd5b50565b600081519050620001b18162000186565b92915050565b6000819050919050565b620001cc81620001b7565b8114620001d857600080fd5b50565b600081519050620001ec81620001c1565b92915050565b600080600080600060a086880312156200021157620002106200014d565b5b60006200022188828901620001a0565b95505060206200023488828901620001a0565b94505060406200024788828901620001a0565b93505060606200025a88828901620001a0565b92505060806200026d88828901620001db565b9150509295509295909350565b615aed806200028a6000396000f3fe608060405234801561001057600080fd5b50600436106101cf5760003560e01c8063605936ea11610104578063c8d7f62e116100a2578063f3413c4f11610071578063f3413c4f14610549578063fb90e44114610567578063fe0ab4b314610585578063ff6689d0146105b5576101cf565b8063c8d7f62e146104c3578063ca53b391146104f3578063d0ebdbe714610511578063d7c4029c1461052d576101cf565b80637f31ed73116100de5780637f31ed731461042a578063a0a57dac14610448578063af9080f814610483578063c3a2a93a146104a1576101cf565b8063605936ea146103c2578063754f399a146103f25780637bafe3d01461040e576101cf565b806336f9c4da1161017157806349f5d1d91161014b57806349f5d1d91461031d578063507251cb146103585780635e43522e146103745780635ed7e2c114610392576101cf565b806336f9c4da146102b257806348f92ee8146102d0578063499fa18a146102ec576101cf565b80631882c195116101ad5780631882c1951461024057806319662d8e1461025c5780631b59122c14610278578063281ddc8e14610294576101cf565b8063041e9b89146101d4578063088674e0146102065780630df8bfda14610224575b600080fd5b6101ee60048036038101906101e9919061366b565b6105d3565b6040516101fd939291906136fb565b60405180910390f35b61020e61062d565b60405161021b9190613741565b60405180910390f35b61023e600480360381019061023991906137e8565b610653565b005b61025a60048036038101906102559190613848565b610f1b565b005b610276600480360381019061027191906138c9565b610f7c565b005b610292600480360381019061028d9190613945565b611443565b005b61029c611710565b6040516102a99190613acf565b60405180910390f35b6102ba6117e9565b6040516102c79190613d6f565b60405180910390f35b6102ea60048036038101906102e59190613d91565b611aad565b005b61030660048036038101906103019190613dde565b611cce565b604051610314929190613e3a565b60405180910390f35b61033760048036038101906103329190613e63565b611d45565b60405161034f9c9b9a99989796959493929190613f0b565b60405180910390f35b610372600480360381019061036d9190613ff3565b611f2c565b005b61037c61250d565b6040516103899190613741565b60405180910390f35b6103ac60048036038101906103a79190613945565b612533565b6040516103b99190614083565b60405180910390f35b6103dc60048036038101906103d79190613d91565b612561565b6040516103e99190614083565b60405180910390f35b61040c60048036038101906104079190613d91565b61258c565b005b6104286004803603810190610423919061409e565b6127ad565b005b6104326128f0565b60405161043f9190613741565b60405180910390f35b610462600480360381019061045d9190613945565b612916565b60405161047a9c9b9a99989796959493929190613f0b565b60405180910390f35b61048b612af6565b6040516104989190614083565b60405180910390f35b6104a9612afc565b6040516104ba9594939291906140cb565b60405180910390f35b6104dd60048036038101906104d89190613d91565b612bce565b6040516104ea91906141fc565b60405180910390f35b6104fb612cae565b6040516105089190613741565b60405180910390f35b61052b6004803603810190610526919061409e565b612cd4565b005b6105476004803603810190610542919061421e565b612df4565b005b610551613175565b60405161055e919061443d565b60405180910390f35b61056f61343a565b60405161057c9190613741565b60405180910390f35b61059f600480360381019061059a9190613945565b613460565b6040516105ac9190613741565b60405180910390f35b6105bd6134a9565b6040516105ca9190614083565b60405180910390f35b600460205281600052604060002081805160208101820180518482526020830160208501208183528095505050505050600091509150508060000154908060010160009054906101000a900460ff16908060020154905083565b600860009054906101000a900473ffffffffffffffffffffffffffffffffffffffff1681565b33600860009054906101000a900473ffffffffffffffffffffffffffffffffffffffff1673ffffffffffffffffffffffffffffffffffffffff1663b9209e33826040518263ffffffff1660e01b81526004016106af9190613741565b602060405180830381865afa1580156106cc573d6000803e3d6000fd5b505050506040513d601f19601f820116820180604052508101906106f0919061448b565b61072f576040517f08c379a000000000000000000000000000000000000000000000000000000000815260040161072690614504565b60405180910390fd5b6002600581111561074357610742613b57565b5b60008585604051610755929190614554565b908152602001604051809103902060090160159054906101000a900460ff16600581111561078657610785613b57565b5b146107ca5783836040517fb71650840000000000000000000000000000000000000000000000000000000081526004016107c192919061459a565b60405180910390fd5b60008085856040516107dd929190614554565b90815260200160405180910390206004015460008686604051610801929190614554565b9081526020016040518091039020600401548461081e91906145ed565b610828919061465e565b1461086a57816040517f3728b83d0000000000000000000000000000000000000000000000000000000081526004016108619190614083565b60405180910390fd5b600082141580156108c9575060008484604051610888929190614554565b908152602001604051809103902060030154600385856040516108ac929190614554565b908152602001604051809103902054836108c6919061468f565b11155b610908576040517f08c379a00000000000000000000000000000000000000000000000000000000081526004016108ff9061470f565b60405180910390fd5b816003858560405161091b929190614554565b908152602001604051809103902054610934919061468f565b60038585604051610946929190614554565b908152602001604051809103902081905550600460003373ffffffffffffffffffffffffffffffffffffffff1673ffffffffffffffffffffffffffffffffffffffff16815260200190815260200160002084846040516109a7929190614554565b908152602001604051809103902060010160009054906101000a900460ff1615610bb35781600460003373ffffffffffffffffffffffffffffffffffffffff1673ffffffffffffffffffffffffffffffffffffffff1681526020019081526020016000208585604051610a1b929190614554565b908152602001604051809103902060000154610a37919061468f565b60028585604051610a49929190614554565b9081526020016040518091039020600460003373ffffffffffffffffffffffffffffffffffffffff1673ffffffffffffffffffffffffffffffffffffffff1681526020019081526020016000208686604051610aa6929190614554565b90815260200160405180910390206002015481548110610ac957610ac861472f565b5b90600052602060002090600202016001018190555081600460003373ffffffffffffffffffffffffffffffffffffffff1673ffffffffffffffffffffffffffffffffffffffff1681526020019081526020016000208585604051610b2e929190614554565b908152602001604051809103902060000154610b4a919061468f565b600460003373ffffffffffffffffffffffffffffffffffffffff1673ffffffffffffffffffffffffffffffffffffffff1681526020019081526020016000208585604051610b99929190614554565b908152602001604051809103902060000181905550610d50565b604051806060016040528083815260200160011515815260200160028686604051610bdf929190614554565b908152602001604051809103902080549050815250600460003373ffffffffffffffffffffffffffffffffffffffff1673ffffffffffffffffffffffffffffffffffffffff1681526020019081526020016000208585604051610c43929190614554565b90815260200160405180910390206000820151816000015560208201518160010160006101000a81548160ff0219169083151502179055506040820151816002015590505060028484604051610c9a929190614554565b908152602001604051809103902060405180604001604052803373ffffffffffffffffffffffffffffffffffffffff16815260200184815250908060018154018082558091505060019003906000526020600020906002020160009091909190915060008201518160000160006101000a81548173ffffffffffffffffffffffffffffffffffffffff021916908373ffffffffffffffffffffffffffffffffffffffff1602179055506020820151816001015550505b600a60009054906101000a900473ffffffffffffffffffffffffffffffffffffffff1673ffffffffffffffffffffffffffffffffffffffff1663925b7cb68585856040518463ffffffff1660e01b8152600401610daf9392919061475e565b600060405180830381600087803b158015610dc957600080fd5b505af1158015610ddd573d6000803e3d6000fd5b5050505060008484604051610df3929190614554565b908152602001604051809103902060090160009054906101000a900473ffffffffffffffffffffffffffffffffffffffff1673ffffffffffffffffffffffffffffffffffffffff166323b872dd33600a60009054906101000a900473ffffffffffffffffffffffffffffffffffffffff16670de0b6b3a764000086610e7891906145ed565b6040518463ffffffff1660e01b8152600401610e9693929190614790565b6020604051808303816000875af1158015610eb5573d6000803e3d6000fd5b505050506040513d601f19601f82011682018060405250810190610ed9919061448b565b507f0bdaf52b4de514796607307fbbcf007ee6d59e81e1be436b67c5a567a2e8d121848433604051610f0d939291906147c7565b60405180910390a150505050565b80600183604051610f2c919061482a565b908152602001604051809103902060006101000a81548173ffffffffffffffffffffffffffffffffffffffff021916908373ffffffffffffffffffffffffffffffffffffffff1602179055505050565b600760009054906101000a900473ffffffffffffffffffffffffffffffffffffffff1673ffffffffffffffffffffffffffffffffffffffff1663877b9a67336040518263ffffffff1660e01b8152600401610fd79190613741565b602060405180830381865afa158015610ff4573d6000803e3d6000fd5b505050506040513d601f19601f82011682018060405250810190611018919061448b565b611057576040517f08c379a000000000000000000000000000000000000000000000000000000000815260040161104e9061488d565b60405180910390fd5b80604001602081019061106a919061409e565b73ffffffffffffffffffffffffffffffffffffffff163373ffffffffffffffffffffffffffffffffffffffff16146110d7576040517f08c379a00000000000000000000000000000000000000000000000000000000081526004016110ce906148f9565b60405180910390fd5b600060058111156110eb576110ea613b57565b5b600084846040516110fd929190614554565b908152602001604051809103902060090160159054906101000a900460ff16600581111561112e5761112d613b57565b5b1461116e576040517f08c379a000000000000000000000000000000000000000000000000000000000815260040161116590614965565b60405180910390fd5b8060008484604051611181929190614554565b9081526020016040518091039020818161119b9190615133565b9050506001600084846040516111b2929190614554565b908152602001604051809103902060090160156101000a81548160ff021916908360058111156111e5576111e4613b57565b5b0217905550600d8054905060008484604051611202929190614554565b908152602001604051809103902060080181905550600d6000848460405161122b929190614554565b908152602001604051809103902090806001815401808255809150506001900390600052602060002090600a0201600090919091909150600082018160000190816112769190615157565b506001820181600101908161128b9190615157565b506002820160009054906101000a900473ffffffffffffffffffffffffffffffffffffffff168160020160006101000a81548173ffffffffffffffffffffffffffffffffffffffff021916908373ffffffffffffffffffffffffffffffffffffffff1602179055506003820154816003015560048201548160040155600582015481600501556006820154816006015560078201548160070155600882015481600801556009820160009054906101000a900473ffffffffffffffffffffffffffffffffffffffff168160090160006101000a81548173ffffffffffffffffffffffffffffffffffffffff021916908373ffffffffffffffffffffffffffffffffffffffff1602179055506009820160149054906101000a900460ff168160090160146101000a81548160ff021916908360ff1602179055506009820160159054906101000a900460ff168160090160156101000a81548160ff021916908360058111156113fc576113fb613b57565b5b021790555050507febc5645d06a6c6900ffbabb37c6fc84326bd870990f736254f05abb3287ffd41838383604051611436939291906154d3565b60405180910390a1505050565b600081604051611453919061482a565b908152602001604051809103902060020160009054906101000a900473ffffffffffffffffffffffffffffffffffffffff1673ffffffffffffffffffffffffffffffffffffffff163373ffffffffffffffffffffffffffffffffffffffff16148061150b5750600660009054906101000a900473ffffffffffffffffffffffffffffffffffffffff1673ffffffffffffffffffffffffffffffffffffffff163373ffffffffffffffffffffffffffffffffffffffff16145b61154a576040517f08c379a000000000000000000000000000000000000000000000000000000000815260040161154190615558565b60405180910390fd5b600073ffffffffffffffffffffffffffffffffffffffff16600082604051611572919061482a565b908152602001604051809103902060090160009054906101000a900473ffffffffffffffffffffffffffffffffffffffff1673ffffffffffffffffffffffffffffffffffffffff16036115fa576040517f08c379a00000000000000000000000000000000000000000000000000000000081526004016115f1906155c4565b60405180910390fd5b600a60009054906101000a900473ffffffffffffffffffffffffffffffffffffffff1673ffffffffffffffffffffffffffffffffffffffff1663e04cd97f82600084604051611649919061482a565b908152602001604051809103902060020160009054906101000a900473ffffffffffffffffffffffffffffffffffffffff1660008560405161168b919061482a565b908152602001604051809103902060090160009054906101000a900473ffffffffffffffffffffffffffffffffffffffff166040518463ffffffff1660e01b81526004016116db939291906155e4565b600060405180830381600087803b1580156116f557600080fd5b505af1158015611709573d6000803e3d6000fd5b5050505050565b6060600e805480602002602001604051908101604052809291908181526020016000905b828210156117e057838290600052602060002001805461175390614a31565b80601f016020809104026020016040519081016040528092919081815260200182805461177f90614a31565b80156117cc5780601f106117a1576101008083540402835291602001916117cc565b820191906000526020600020905b8154815290600101906020018083116117af57829003601f168201915b505050505081526020019060010190611734565b50505050905090565b6060600d805480602002602001604051908101604052809291908181526020016000905b82821015611aa457838290600052602060002090600a02016040518061018001604052908160008201805461184190614a31565b80601f016020809104026020016040519081016040528092919081815260200182805461186d90614a31565b80156118ba5780601f1061188f576101008083540402835291602001916118ba565b820191906000526020600020905b81548152906001019060200180831161189d57829003601f168201915b505050505081526020016001820180546118d390614a31565b80601f01602080910402602001604051908101604052809291908181526020018280546118ff90614a31565b801561194c5780601f106119215761010080835404028352916020019161194c565b820191906000526020600020905b81548152906001019060200180831161192f57829003601f168201915b505050505081526020016002820160009054906101000a900473ffffffffffffffffffffffffffffffffffffffff1673ffffffffffffffffffffffffffffffffffffffff1673ffffffffffffffffffffffffffffffffffffffff1681526020016003820154815260200160048201548152602001600582015481526020016006820154815260200160078201548152602001600882015481526020016009820160009054906101000a900473ffffffffffffffffffffffffffffffffffffffff1673ffffffffffffffffffffffffffffffffffffffff1673ffffffffffffffffffffffffffffffffffffffff1681526020016009820160149054906101000a900460ff1660ff1660ff1681526020016009820160159054906101000a900460ff166005811115611a7f57611a7e613b57565b5b6005811115611a9157611a90613b57565b5b815250508152602001906001019061180d565b50505050905090565b600660009054906101000a900473ffffffffffffffffffffffffffffffffffffffff1673ffffffffffffffffffffffffffffffffffffffff163373ffffffffffffffffffffffffffffffffffffffff1614611b3d576040517f08c379a0000000000000000000000000000000000000000000000000000000008152600401611b349061566e565b60405180910390fd5b60016005811115611b5157611b50613b57565b5b60008383604051611b63929190614554565b908152602001604051809103902060090160159054906101000a900460ff166005811115611b9457611b93613b57565b5b14611bd4576040517f08c379a0000000000000000000000000000000000000000000000000000000008152600401611bcb90614965565b60405180910390fd5b600260008383604051611be8929190614554565b908152602001604051809103902060090160156101000a81548160ff02191690836005811115611c1b57611c1a613b57565b5b02179055506002600d60008484604051611c36929190614554565b90815260200160405180910390206008015481548110611c5957611c5861472f565b5b90600052602060002090600a020160090160156101000a81548160ff02191690836005811115611c8c57611c8b613b57565b5b02179055507f039501081328ffe3eb02459ad6f6e90b69e23ba1422b574ee84c1f52b2fc03108282604051611cc292919061459a565b60405180910390a15050565b6002828051602081018201805184825260208301602085012081835280955050505050508181548110611d0057600080fd5b9060005260206000209060020201600091509150508060000160009054906101000a900473ffffffffffffffffffffffffffffffffffffffff16908060010154905082565b60056020528160005260406000208181548110611d6157600080fd5b90600052602060002090600a020160009150915050806000018054611d8590614a31565b80601f0160208091040260200160405190810160405280929190818152602001828054611db190614a31565b8015611dfe5780601f10611dd357610100808354040283529160200191611dfe565b820191906000526020600020905b815481529060010190602001808311611de157829003601f168201915b505050505090806001018054611e1390614a31565b80601f0160208091040260200160405190810160405280929190818152602001828054611e3f90614a31565b8015611e8c5780601f10611e6157610100808354040283529160200191611e8c565b820191906000526020600020905b815481529060010190602001808311611e6f57829003601f168201915b5050505050908060020160009054906101000a900473ffffffffffffffffffffffffffffffffffffffff16908060030154908060040154908060050154908060060154908060070154908060080154908060090160009054906101000a900473ffffffffffffffffffffffffffffffffffffffff16908060090160149054906101000a900460ff16908060090160159054906101000a900460ff1690508c565b600660009054906101000a900473ffffffffffffffffffffffffffffffffffffffff1673ffffffffffffffffffffffffffffffffffffffff163373ffffffffffffffffffffffffffffffffffffffff1614611fbc576040517f08c379a0000000000000000000000000000000000000000000000000000000008152600401611fb39061566e565b60405180910390fd5b60026005811115611fd057611fcf613b57565b5b60008585604051611fe2929190614554565b908152602001604051809103902060090160159054906101000a900460ff16600581111561201357612012613b57565b5b146120575783836040517fb716508400000000000000000000000000000000000000000000000000000000815260040161204e92919061459a565b60405180910390fd5b806001858560405161206a929190614554565b908152602001604051809103902060006101000a81548173ffffffffffffffffffffffffffffffffffffffff021916908373ffffffffffffffffffffffffffffffffffffffff160217905550600460058111156120ca576120c9613b57565b5b600085856040516120dc929190614554565b908152602001604051809103902060090160159054906101000a900460ff16600581111561210d5761210c613b57565b5b50506004600d60008686604051612125929190614554565b908152602001604051809103902060080154815481106121485761214761472f565b5b90600052602060002090600a020160090160156101000a81548160ff0219169083600581111561217b5761217a613b57565b5b021790555060056000808686604051612195929190614554565b908152602001604051809103902060020160009054906101000a900473ffffffffffffffffffffffffffffffffffffffff1673ffffffffffffffffffffffffffffffffffffffff1673ffffffffffffffffffffffffffffffffffffffff16815260200190815260200160002060008585604051612213929190614554565b908152602001604051809103902090806001815401808255809150506001900390600052602060002090600a02016000909190919091506000820181600001908161225e9190615157565b50600182018160010190816122739190615157565b506002820160009054906101000a900473ffffffffffffffffffffffffffffffffffffffff168160020160006101000a81548173ffffffffffffffffffffffffffffffffffffffff021916908373ffffffffffffffffffffffffffffffffffffffff1602179055506003820154816003015560048201548160040155600582015481600501556006820154816006015560078201548160070155600882015481600801556009820160009054906101000a900473ffffffffffffffffffffffffffffffffffffffff168160090160006101000a81548173ffffffffffffffffffffffffffffffffffffffff021916908373ffffffffffffffffffffffffffffffffffffffff1602179055506009820160149054906101000a900460ff168160090160146101000a81548160ff021916908360ff1602179055506009820160159054906101000a900460ff168160090160156101000a81548160ff021916908360058111156123e4576123e3613b57565b5b02179055505050600e848490918060018154018082558091505060019003906000526020600020016000909192909192909192909192509182612428929190614c0e565b508073ffffffffffffffffffffffffffffffffffffffff1663d76805aa836040518263ffffffff1660e01b815260040161246291906157e9565b600060405180830381600087803b15801561247c57600080fd5b505af1158015612490573d6000803e3d6000fd5b50505050600c8290806001815401808255809150506001900390600052602060002090600b020160009091909190915081816124cc91906159c3565b50507f44b55c2d9270546faf6ff2f0acac078011883b82782d9b08de2d3af4543c2b1884846040516124ff92919061459a565b60405180910390a150505050565b600960009054906101000a900473ffffffffffffffffffffffffffffffffffffffff1681565b6003818051602081018201805184825260208301602085012081835280955050505050506000915090505481565b600060038383604051612575929190614554565b908152602001604051809103902054905092915050565b600660009054906101000a900473ffffffffffffffffffffffffffffffffffffffff1673ffffffffffffffffffffffffffffffffffffffff163373ffffffffffffffffffffffffffffffffffffffff161461261c576040517f08c379a00000000000000000000000000000000000000000000000000000000081526004016126139061566e565b60405180910390fd5b600160058111156126305761262f613b57565b5b60008383604051612642929190614554565b908152602001604051809103902060090160159054906101000a900460ff16600581111561267357612672613b57565b5b146126b3576040517f08c379a00000000000000000000000000000000000000000000000000000000081526004016126aa90614965565b60405180910390fd5b6003600083836040516126c7929190614554565b908152602001604051809103902060090160156101000a81548160ff021916908360058111156126fa576126f9613b57565b5b02179055506003600d60008484604051612715929190614554565b908152602001604051809103902060080154815481106127385761273761472f565b5b90600052602060002090600a020160090160156101000a81548160ff0219169083600581111561276b5761276a613b57565b5b02179055507f735ccdd611541d36c82a3622baab7f58b8a0f5be664555b0d9c95ddde16096d382826040516127a192919061459a565b60405180910390a15050565b600660009054906101000a900473ffffffffffffffffffffffffffffffffffffffff1673ffffffffffffffffffffffffffffffffffffffff163373ffffffffffffffffffffffffffffffffffffffff161461283d576040517f08c379a00000000000000000000000000000000000000000000000000000000081526004016128349061566e565b60405180910390fd5b600073ffffffffffffffffffffffffffffffffffffffff168173ffffffffffffffffffffffffffffffffffffffff16036128ac576040517f08c379a00000000000000000000000000000000000000000000000000000000081526004016128a390615a1d565b60405180910390fd5b80600a60006101000a81548173ffffffffffffffffffffffffffffffffffffffff021916908373ffffffffffffffffffffffffffffffffffffffff16021790555050565b600660009054906101000a900473ffffffffffffffffffffffffffffffffffffffff1681565b60008180516020810182018051848252602083016020850120818352809550505050505060009150905080600001805461294f90614a31565b80601f016020809104026020016040519081016040528092919081815260200182805461297b90614a31565b80156129c85780601f1061299d576101008083540402835291602001916129c8565b820191906000526020600020905b8154815290600101906020018083116129ab57829003601f168201915b5050505050908060010180546129dd90614a31565b80601f0160208091040260200160405190810160405280929190818152602001828054612a0990614a31565b8015612a565780601f10612a2b57610100808354040283529160200191612a56565b820191906000526020600020905b815481529060010190602001808311612a3957829003601f168201915b5050505050908060020160009054906101000a900473ffffffffffffffffffffffffffffffffffffffff16908060030154908060040154908060050154908060060154908060070154908060080154908060090160009054906101000a900473ffffffffffffffffffffffffffffffffffffffff16908060090160149054906101000a900460ff16908060090160159054906101000a900460ff1690508c565b600b5481565b6000806000806000600660009054906101000a900473ffffffffffffffffffffffffffffffffffffffff16600760009054906101000a900473ffffffffffffffffffffffffffffffffffffffff16600860009054906101000a900473ffffffffffffffffffffffffffffffffffffffff16600960009054906101000a900473ffffffffffffffffffffffffffffffffffffffff16600a60009054906101000a900473ffffffffffffffffffffffffffffffffffffffff1680955081965082975083985084995050505050509091929394565b606060028383604051612be2929190614554565b9081526020016040518091039020805480602002602001604051908101604052809291908181526020016000905b82821015612ca257838290600052602060002090600202016040518060400160405290816000820160009054906101000a900473ffffffffffffffffffffffffffffffffffffffff1673ffffffffffffffffffffffffffffffffffffffff1673ffffffffffffffffffffffffffffffffffffffff16815260200160018201548152505081526020019060010190612c10565b50505050905092915050565b600760009054906101000a900473ffffffffffffffffffffffffffffffffffffffff1681565b600660009054906101000a900473ffffffffffffffffffffffffffffffffffffffff1673ffffffffffffffffffffffffffffffffffffffff163373ffffffffffffffffffffffffffffffffffffffff1614612d64576040517f08c379a0000000000000000000000000000000000000000000000000000000008152600401612d5b9061566e565b60405180910390fd5b600760009054906101000a900473ffffffffffffffffffffffffffffffffffffffff1673ffffffffffffffffffffffffffffffffffffffff1663cfde1890826040518263ffffffff1660e01b8152600401612dbf9190615a89565b600060405180830381600087803b158015612dd957600080fd5b505af1158015612ded573d6000803e3d6000fd5b5050505050565b600660009054906101000a900473ffffffffffffffffffffffffffffffffffffffff1673ffffffffffffffffffffffffffffffffffffffff163373ffffffffffffffffffffffffffffffffffffffff1614612e84576040517f08c379a0000000000000000000000000000000000000000000000000000000008152600401612e7b9061566e565b60405180910390fd5b60046005811115612e9857612e97613b57565b5b60008484604051612eaa929190614554565b908152602001604051809103902060090160159054906101000a900460ff166005811115612edb57612eda613b57565b5b14612f1f5782826040517fb7165084000000000000000000000000000000000000000000000000000000008152600401612f1692919061459a565b60405180910390fd5b600580811115612f3257612f31613b57565b5b60008484604051612f44929190614554565b908152602001604051809103902060090160159054906101000a900460ff166005811115612f7557612f74613b57565b5b50506005600d60008585604051612f8d929190614554565b90815260200160405180910390206008015481548110612fb057612faf61472f565b5b90600052602060002090600a020160090160156101000a81548160ff02191690836005811115612fe357612fe2613b57565b5b02179055506005806000808686604051612ffe929190614554565b908152602001604051809103902060020160009054906101000a900473ffffffffffffffffffffffffffffffffffffffff1673ffffffffffffffffffffffffffffffffffffffff1673ffffffffffffffffffffffffffffffffffffffff1681526020019081526020016000206000858560405161307c929190614554565b9081526020016040518091039020600801548154811061309f5761309e61472f565b5b90600052602060002090600a020160090160156101000a81548160ff021916908360058111156130d2576130d1613b57565b5b02179055508073ffffffffffffffffffffffffffffffffffffffff1663be040fb06040518163ffffffff1660e01b8152600401600060405180830381600087803b15801561311f57600080fd5b505af1158015613133573d6000803e3d6000fd5b505050507fdfdf42ff0d0eb3e6ec5b40d8cf21fb2f7102b67e5e2d56ab36e817f807213c5b838360405161316892919061459a565b60405180910390a1505050565b6060600c805480602002602001604051908101604052809291908181526020016000905b8282101561343157838290600052602060002090600b0201604051806101600160405290816000820180546131cd90614a31565b80601f01602080910402602001604051908101604052809291908181526020018280546131f990614a31565b80156132465780601f1061321b57610100808354040283529160200191613246565b820191906000526020600020905b81548152906001019060200180831161322957829003601f168201915b5050505050815260200160018201805461325f90614a31565b80601f016020809104026020016040519081016040528092919081815260200182805461328b90614a31565b80156132d85780601f106132ad576101008083540402835291602001916132d8565b820191906000526020600020905b8154815290600101906020018083116132bb57829003601f168201915b505050505081526020016002820180546132f190614a31565b80601f016020809104026020016040519081016040528092919081815260200182805461331d90614a31565b801561336a5780601f1061333f5761010080835404028352916020019161336a565b820191906000526020600020905b81548152906001019060200180831161334d57829003601f168201915b505050505081526020016003820160009054906101000a900473ffffffffffffffffffffffffffffffffffffffff1673ffffffffffffffffffffffffffffffffffffffff1673ffffffffffffffffffffffffffffffffffffffff1681526020016004820154815260200160058201548152602001600682015481526020016007820160009054906101000a900460ff1660ff1660ff1681526020016008820154815260200160098201548152602001600a8201548152505081526020019060010190613199565b50505050905090565b600a60009054906101000a900473ffffffffffffffffffffffffffffffffffffffff1681565b6001818051602081018201805184825260208301602085012081835280955050505050506000915054906101000a900473ffffffffffffffffffffffffffffffffffffffff1681565b6000600b54905090565b6000604051905090565b600080fd5b600080fd5b600073ffffffffffffffffffffffffffffffffffffffff82169050919050565b60006134f2826134c7565b9050919050565b613502816134e7565b811461350d57600080fd5b50565b60008135905061351f816134f9565b92915050565b600080fd5b600080fd5b6000601f19601f8301169050919050565b7f4e487b7100000000000000000000000000000000000000000000000000000000600052604160045260246000fd5b6135788261352f565b810181811067ffffffffffffffff8211171561359757613596613540565b5b80604052505050565b60006135aa6134b3565b90506135b6828261356f565b919050565b600067ffffffffffffffff8211156135d6576135d5613540565b5b6135df8261352f565b9050602081019050919050565b82818337600083830152505050565b600061360e613609846135bb565b6135a0565b90508281526020810184848401111561362a5761362961352a565b5b6136358482856135ec565b509392505050565b600082601f83011261365257613651613525565b5b81356136628482602086016135fb565b91505092915050565b60008060408385031215613682576136816134bd565b5b600061369085828601613510565b925050602083013567ffffffffffffffff8111156136b1576136b06134c2565b5b6136bd8582860161363d565b9150509250929050565b6000819050919050565b6136da816136c7565b82525050565b60008115159050919050565b6136f5816136e0565b82525050565b600060608201905061371060008301866136d1565b61371d60208301856136ec565b61372a60408301846136d1565b949350505050565b61373b816134e7565b82525050565b60006020820190506137566000830184613732565b92915050565b600080fd5b600080fd5b60008083601f84011261377c5761377b613525565b5b8235905067ffffffffffffffff8111156137995761379861375c565b5b6020830191508360018202830111156137b5576137b4613761565b5b9250929050565b6137c5816136c7565b81146137d057600080fd5b50565b6000813590506137e2816137bc565b92915050565b600080600060408486031215613801576138006134bd565b5b600084013567ffffffffffffffff81111561381f5761381e6134c2565b5b61382b86828701613766565b9350935050602061383e868287016137d3565b9150509250925092565b6000806040838503121561385f5761385e6134bd565b5b600083013567ffffffffffffffff81111561387d5761387c6134c2565b5b6138898582860161363d565b925050602061389a85828601613510565b9150509250929050565b600080fd5b600061018082840312156138c0576138bf6138a4565b5b81905092915050565b6000806000604084860312156138e2576138e16134bd565b5b600084013567ffffffffffffffff811115613900576138ff6134c2565b5b61390c86828701613766565b9350935050602084013567ffffffffffffffff81111561392f5761392e6134c2565b5b61393b868287016138a9565b9150509250925092565b60006020828403121561395b5761395a6134bd565b5b600082013567ffffffffffffffff811115613979576139786134c2565b5b6139858482850161363d565b91505092915050565b600081519050919050565b600082825260208201905092915050565b6000819050602082019050919050565b600081519050919050565b600082825260208201905092915050565b60005b838110156139f45780820151818401526020810190506139d9565b60008484015250505050565b6000613a0b826139ba565b613a1581856139c5565b9350613a258185602086016139d6565b613a2e8161352f565b840191505092915050565b6000613a458383613a00565b905092915050565b6000602082019050919050565b6000613a658261398e565b613a6f8185613999565b935083602082028501613a81856139aa565b8060005b85811015613abd5784840389528151613a9e8582613a39565b9450613aa983613a4d565b925060208a01995050600181019050613a85565b50829750879550505050505092915050565b60006020820190508181036000830152613ae98184613a5a565b905092915050565b600081519050919050565b600082825260208201905092915050565b6000819050602082019050919050565b613b26816134e7565b82525050565b613b35816136c7565b82525050565b600060ff82169050919050565b613b5181613b3b565b82525050565b7f4e487b7100000000000000000000000000000000000000000000000000000000600052602160045260246000fd5b60068110613b9757613b96613b57565b5b50565b6000819050613ba882613b86565b919050565b6000613bb882613b9a565b9050919050565b613bc881613bad565b82525050565b6000610180830160008301518482036000860152613bec8282613a00565b91505060208301518482036020860152613c068282613a00565b9150506040830151613c1b6040860182613b1d565b506060830151613c2e6060860182613b2c565b506080830151613c416080860182613b2c565b5060a0830151613c5460a0860182613b2c565b5060c0830151613c6760c0860182613b2c565b5060e0830151613c7a60e0860182613b2c565b50610100830151613c8f610100860182613b2c565b50610120830151613ca4610120860182613b1d565b50610140830151613cb9610140860182613b48565b50610160830151613cce610160860182613bbf565b508091505092915050565b6000613ce58383613bce565b905092915050565b6000602082019050919050565b6000613d0582613af1565b613d0f8185613afc565b935083602082028501613d2185613b0d565b8060005b85811015613d5d5784840389528151613d3e8582613cd9565b9450613d4983613ced565b925060208a01995050600181019050613d25565b50829750879550505050505092915050565b60006020820190508181036000830152613d898184613cfa565b905092915050565b60008060208385031215613da857613da76134bd565b5b600083013567ffffffffffffffff811115613dc657613dc56134c2565b5b613dd285828601613766565b92509250509250929050565b60008060408385031215613df557613df46134bd565b5b600083013567ffffffffffffffff811115613e1357613e126134c2565b5b613e1f8582860161363d565b9250506020613e30858286016137d3565b9150509250929050565b6000604082019050613e4f6000830185613732565b613e5c60208301846136d1565b9392505050565b60008060408385031215613e7a57613e796134bd565b5b6000613e8885828601613510565b9250506020613e99858286016137d3565b9150509250929050565b600082825260208201905092915050565b6000613ebf826139ba565b613ec98185613ea3565b9350613ed98185602086016139d6565b613ee28161352f565b840191505092915050565b613ef681613b3b565b82525050565b613f0581613bad565b82525050565b6000610180820190508181036000830152613f26818f613eb4565b90508181036020830152613f3a818e613eb4565b9050613f49604083018d613732565b613f56606083018c6136d1565b613f63608083018b6136d1565b613f7060a083018a6136d1565b613f7d60c08301896136d1565b613f8a60e08301886136d1565b613f986101008301876136d1565b613fa6610120830186613732565b613fb4610140830185613eed565b613fc2610160830184613efc565b9d9c50505050505050505050505050565b60006101608284031215613fea57613fe96138a4565b5b81905092915050565b6000806000806060858703121561400d5761400c6134bd565b5b600085013567ffffffffffffffff81111561402b5761402a6134c2565b5b61403787828801613766565b9450945050602085013567ffffffffffffffff81111561405a576140596134c2565b5b61406687828801613fd3565b925050604061407787828801613510565b91505092959194509250565b600060208201905061409860008301846136d1565b92915050565b6000602082840312156140b4576140b36134bd565b5b60006140c284828501613510565b91505092915050565b600060a0820190506140e06000830188613732565b6140ed6020830187613732565b6140fa6040830186613732565b6141076060830185613732565b6141146080830184613732565b9695505050505050565b600081519050919050565b600082825260208201905092915050565b6000819050602082019050919050565b6040820160008201516141606000850182613b1d565b5060208201516141736020850182613b2c565b50505050565b6000614185838361414a565b60408301905092915050565b6000602082019050919050565b60006141a98261411e565b6141b38185614129565b93506141be8361413a565b8060005b838110156141ef5781516141d68882614179565b97506141e183614191565b9250506001810190506141c2565b5085935050505092915050565b60006020820190508181036000830152614216818461419e565b905092915050565b600080600060408486031215614237576142366134bd565b5b600084013567ffffffffffffffff811115614255576142546134c2565b5b61426186828701613766565b9350935050602061427486828701613510565b9150509250925092565b600081519050919050565b600082825260208201905092915050565b6000819050602082019050919050565b60006101608301600083015184820360008601526142c88282613a00565b915050602083015184820360208601526142e28282613a00565b915050604083015184820360408601526142fc8282613a00565b91505060608301516143116060860182613b1d565b5060808301516143246080860182613b2c565b5060a083015161433760a0860182613b2c565b5060c083015161434a60c0860182613b2c565b5060e083015161435d60e0860182613b48565b50610100830151614372610100860182613b2c565b50610120830151614387610120860182613b2c565b5061014083015161439c610140860182613b2c565b508091505092915050565b60006143b383836142aa565b905092915050565b6000602082019050919050565b60006143d38261427e565b6143dd8185614289565b9350836020820285016143ef8561429a565b8060005b8581101561442b578484038952815161440c85826143a7565b9450614417836143bb565b925060208a019950506001810190506143f3565b50829750879550505050505092915050565b6000602082019050818103600083015261445781846143c8565b905092915050565b614468816136e0565b811461447357600080fd5b50565b6000815190506144858161445f565b92915050565b6000602082840312156144a1576144a06134bd565b5b60006144af84828501614476565b91505092915050565b7f4143434f554e545f4e4f545f414150524f564544000000000000000000000000600082015250565b60006144ee601483613ea3565b91506144f9826144b8565b602082019050919050565b6000602082019050818103600083015261451d816144e1565b9050919050565b600081905092915050565b600061453b8385614524565b93506145488385846135ec565b82840190509392505050565b600061456182848661452f565b91508190509392505050565b60006145798385613ea3565b93506145868385846135ec565b61458f8361352f565b840190509392505050565b600060208201905081810360008301526145b581848661456d565b90509392505050565b7f4e487b7100000000000000000000000000000000000000000000000000000000600052601160045260246000fd5b60006145f8826136c7565b9150614603836136c7565b9250828202614611816136c7565b91508282048414831517614628576146276145be565b5b5092915050565b7f4e487b7100000000000000000000000000000000000000000000000000000000600052601260045260246000fd5b6000614669826136c7565b9150614674836136c7565b9250826146845761468361462f565b5b828206905092915050565b600061469a826136c7565b91506146a5836136c7565b92508282019050808211156146bd576146bc6145be565b5b92915050565b7f494e56414c49445f414d4f554e54000000000000000000000000000000000000600082015250565b60006146f9600e83613ea3565b9150614704826146c3565b602082019050919050565b60006020820190508181036000830152614728816146ec565b9050919050565b7f4e487b7100000000000000000000000000000000000000000000000000000000600052603260045260246000fd5b6000604082019050818103600083015261477981858761456d565b905061478860208301846136d1565b949350505050565b60006060820190506147a56000830186613732565b6147b26020830185613732565b6147bf60408301846136d1565b949350505050565b600060408201905081810360008301526147e281858761456d565b90506147f16020830184613732565b949350505050565b6000614804826139ba565b61480e8185614524565b935061481e8185602086016139d6565b80840191505092915050565b600061483682846147f9565b915081905092915050565b7f4f4e4c595f495353554552530000000000000000000000000000000000000000600082015250565b6000614877600c83613ea3565b915061488282614841565b602082019050919050565b600060208201905081810360008301526148a68161486a565b9050919050565b7f494e56414c49445f4953535545525f4144445245535300000000000000000000600082015250565b60006148e3601683613ea3565b91506148ee826148ad565b602082019050919050565b60006020820190508181036000830152614912816148d6565b9050919050565b7f494e56414c49445f4445414c5f53544154555300000000000000000000000000600082015250565b600061494f601383613ea3565b915061495a82614919565b602082019050919050565b6000602082019050818103600083015261497e81614942565b9050919050565b600080fd5b600080fd5b600080fd5b600080833560016020038436030381126149b1576149b0614985565b5b80840192508235915067ffffffffffffffff8211156149d3576149d261498a565b5b6020830192506001820236038313156149ef576149ee61498f565b5b509250929050565b600082905092915050565b7f4e487b7100000000000000000000000000000000000000000000000000000000600052602260045260246000fd5b60006002820490506001821680614a4957607f821691505b602082108103614a5c57614a5b614a02565b5b50919050565b60008190508160005260206000209050919050565b60006020601f8301049050919050565b600082821b905092915050565b600060088302614ac47fffffffffffffffffffffffffffffffffffffffffffffffffffffffffffffffff82614a87565b614ace8683614a87565b95508019841693508086168417925050509392505050565b6000819050919050565b6000614b0b614b06614b01846136c7565b614ae6565b6136c7565b9050919050565b6000819050919050565b614b2583614af0565b614b39614b3182614b12565b848454614a94565b825550505050565b600090565b614b4e614b41565b614b59818484614b1c565b505050565b5b81811015614b7d57614b72600082614b46565b600181019050614b5f565b5050565b601f821115614bc257614b9381614a62565b614b9c84614a77565b81016020851015614bab578190505b614bbf614bb785614a77565b830182614b5e565b50505b505050565b600082821c905092915050565b6000614be560001984600802614bc7565b1980831691505092915050565b6000614bfe8383614bd4565b9150826002028217905092915050565b614c1883836149f7565b67ffffffffffffffff811115614c3157614c30613540565b5b614c3b8254614a31565b614c46828285614b81565b6000601f831160018114614c755760008415614c63578287013590505b614c6d8582614bf2565b865550614cd5565b601f198416614c8386614a62565b60005b82811015614cab57848901358255600182019150602085019450602081019050614c86565b86831015614cc85784890135614cc4601f891682614bd4565b8355505b6001600288020188555050505b50505050505050565b614ce9838383614c0e565b505050565b60008135614cfb816134f9565b80915050919050565b60008160001b9050919050565b600073ffffffffffffffffffffffffffffffffffffffff614d3184614d04565b9350801983169250808416831791505092915050565b6000614d62614d5d614d58846134c7565b614ae6565b6134c7565b9050919050565b6000614d7482614d47565b9050919050565b6000614d8682614d69565b9050919050565b6000819050919050565b614da082614d7b565b614db3614dac82614d8d565b8354614d11565b8255505050565b60008135614dc7816137bc565b80915050919050565b60007fffffffffffffffffffffffffffffffffffffffffffffffffffffffffffffffff614dfc84614d04565b9350801983169250808416831791505092915050565b614e1b82614af0565b614e2e614e2782614b12565b8354614dd0565b8255505050565b614e3e81613b3b565b8114614e4957600080fd5b50565b60008135614e5981614e35565b80915050919050565b60008160a01b9050919050565b600074ff0000000000000000000000000000000000000000614e9084614e62565b9350801983169250808416831791505092915050565b6000614ec1614ebc614eb784613b3b565b614ae6565b613b3b565b9050919050565b6000819050919050565b614edb82614ea6565b614eee614ee782614ec8565b8354614e6f565b8255505050565b60068110614f0257600080fd5b50565b60008135614f1281614ef5565b80915050919050565b60008160a81b9050919050565b600075ff000000000000000000000000000000000000000000614f4a84614f1b565b9350801983169250808416831791505092915050565b6000614f6b82613b9a565b9050919050565b6000819050919050565b614f8582614f60565b614f98614f9182614f72565b8354614f28565b8255505050565b6000810160008301614fb18185614994565b614fbc818386614cde565b505050506001810160208301614fd28185614994565b614fdd818386614cde565b50505050600281016040830180614ff381614cee565b9050614fff8184614d97565b50505060038101606083018061501481614dba565b90506150208184614e12565b50505060048101608083018061503581614dba565b90506150418184614e12565b5050506005810160a083018061505681614dba565b90506150628184614e12565b5050506006810160c083018061507781614dba565b90506150838184614e12565b5050506007810160e083018061509881614dba565b90506150a48184614e12565b505050600881016101008301806150ba81614dba565b90506150c68184614e12565b505050600981016101208301806150dc81614cee565b90506150e88184614d97565b505050600981016101408301806150fe81614e4c565b905061510a8184614ed2565b5050506009810161016083018061512081614f05565b905061512c8184614f7c565b5050505050565b61513d8282614f9f565b5050565b60008154905061515081614a31565b9050919050565b81810361516557505061523d565b61516e82615141565b67ffffffffffffffff81111561518757615186613540565b5b6151918254614a31565b61519c828285614b81565b6000601f8311600181146151cb57600084156151b9578287015490505b6151c38582614bf2565b865550615236565b601f1984166151d987614a62565b96506151e486614a62565b60005b8281101561520c578489015482556001820191506001850194506020810190506151e7565b868310156152295784890154615225601f891682614bd4565b8355505b6001600288020188555050505b5050505050505b565b600080fd5b600080fd5b600080fd5b6000808335600160200384360303811261526b5761526a615249565b5b83810192508235915060208301925067ffffffffffffffff8211156152935761529261523f565b5b6001820236038313156152a9576152a8615244565b5b509250929050565b60006152bd83856139c5565b93506152ca8385846135ec565b6152d38361352f565b840190509392505050565b60006152ed6020840184613510565b905092915050565b600061530460208401846137d3565b905092915050565b60008135905061531b81614e35565b92915050565b6000615330602084018461530c565b905092915050565b60008135905061534781614ef5565b92915050565b600061535c6020840184615338565b905092915050565b60006101808301615378600084018461524e565b858303600087015261538b8382846152b1565b9250505061539c602084018461524e565b85830360208701526153af8382846152b1565b925050506153c060408401846152de565b6153cd6040860182613b1d565b506153db60608401846152f5565b6153e86060860182613b2c565b506153f660808401846152f5565b6154036080860182613b2c565b5061541160a08401846152f5565b61541e60a0860182613b2c565b5061542c60c08401846152f5565b61543960c0860182613b2c565b5061544760e08401846152f5565b61545460e0860182613b2c565b506154636101008401846152f5565b615471610100860182613b2c565b506154806101208401846152de565b61548e610120860182613b1d565b5061549d610140840184615321565b6154ab610140860182613b48565b506154ba61016084018461534d565b6154c8610160860182613bbf565b508091505092915050565b600060408201905081810360008301526154ee81858761456d565b905081810360208301526155028184615364565b9050949350505050565b7f4e4f545f4953535545525f4e4f525f544f504f535f4d414e4147455200000000600082015250565b6000615542601c83613ea3565b915061554d8261550c565b602082019050919050565b6000602082019050818103600083015261557181615535565b9050919050565b7f494e56414c49445f544f4b454e5f414444524553530000000000000000000000600082015250565b60006155ae601583613ea3565b91506155b982615578565b602082019050919050565b600060208201905081810360008301526155dd816155a1565b9050919050565b600060608201905081810360008301526155fe8186613eb4565b905061560d6020830185613732565b61561a6040830184613732565b949350505050565b7f4f4e4c595f544f504f535f4d414e414745520000000000000000000000000000600082015250565b6000615658601283613ea3565b915061566382615622565b602082019050919050565b600060208201905081810360008301526156878161564b565b9050919050565b600061016083016156a2600084018461524e565b85830360008701526156b58382846152b1565b925050506156c6602084018461524e565b85830360208701526156d98382846152b1565b925050506156ea604084018461524e565b85830360408701526156fd8382846152b1565b9250505061570e60608401846152de565b61571b6060860182613b1d565b5061572960808401846152f5565b6157366080860182613b2c565b5061574460a08401846152f5565b61575160a0860182613b2c565b5061575f60c08401846152f5565b61576c60c0860182613b2c565b5061577a60e0840184615321565b61578760e0860182613b48565b506157966101008401846152f5565b6157a4610100860182613b2c565b506157b36101208401846152f5565b6157c1610120860182613b2c565b506157d06101408401846152f5565b6157de610140860182613b2c565b508091505092915050565b60006020820190508181036000830152615803818461568e565b905092915050565b600060ff61581884614d04565b9350801983169250808416831791505092915050565b61583782614ea6565b61584a61584382614ec8565b835461580b565b8255505050565b60008101600083016158638185614994565b61586e818386614cde565b5050505060018101602083016158848185614994565b61588f818386614cde565b5050505060028101604083016158a58185614994565b6158b0818386614cde565b505050506003810160608301806158c681614cee565b90506158d28184614d97565b5050506004810160808301806158e781614dba565b90506158f38184614e12565b5050506005810160a083018061590881614dba565b90506159148184614e12565b5050506006810160c083018061592981614dba565b90506159358184614e12565b5050506007810160e083018061594a81614e4c565b9050615956818461582e565b5050506008810161010083018061596c81614dba565b90506159788184614e12565b5050506009810161012083018061598e81614dba565b905061599a8184614e12565b505050600a81016101408301806159b081614dba565b90506159bc8184614e12565b5050505050565b6159cd8282615851565b5050565b7f494e56414c49445f434f4e54524143545f414444524553530000000000000000600082015250565b6000615a07601883613ea3565b9150615a12826159d1565b602082019050919050565b60006020820190508181036000830152615a36816159fa565b9050919050565b7f4d414e4147455200000000000000000000000000000000000000000000000000600082015250565b6000615a73600783613ea3565b9150615a7e82615a3d565b602082019050919050565b60006040820190508181036000830152615aa281615a66565b9050615ab16020830184613732565b9291505056fea2646970667358221220646449441e4d1f7052a7a48838160d0a8016233f7d9e6f436254fcd510a7fe1d64736f6c63430008130033","opcodes":"PUSH1 0x80 PUSH1 0x40 MSTORE CALLVALUE DUP1 ISZERO PUSH3 0x11 JUMPI PUSH1 0x0 DUP1 REVERT JUMPDEST POP PUSH1 0x40 MLOAD PUSH3 0x5D77 CODESIZE SUB DUP1 PUSH3 0x5D77 DUP4 CODECOPY DUP2 DUP2 ADD PUSH1 0x40 MSTORE DUP2 ADD SWAP1 PUSH3 0x37 SWAP2 SWAP1 PUSH3 0x1F2 JUMP JUMPDEST DUP5 PUSH1 0x6 PUSH1 0x0 PUSH2 0x100 EXP DUP2 SLOAD DUP2 PUSH20 0xFFFFFFFFFFFFFFFFFFFFFFFFFFFFFFFFFFFFFFFF MUL NOT AND SWAP1 DUP4 PUSH20 0xFFFFFFFFFFFFFFFFFFFFFFFFFFFFFFFFFFFFFFFF AND MUL OR SWAP1 SSTORE POP DUP4 PUSH1 0x7 PUSH1 0x0 PUSH2 0x100 EXP DUP2 SLOAD DUP2 PUSH20 0xFFFFFFFFFFFFFFFFFFFFFFFFFFFFFFFFFFFFFFFF MUL NOT AND SWAP1 DUP4 PUSH20 0xFFFFFFFFFFFFFFFFFFFFFFFFFFFFFFFFFFFFFFFF AND MUL OR SWAP1 SSTORE POP DUP3 PUSH1 0x8 PUSH1 0x0 PUSH2 0x100 EXP DUP2 SLOAD DUP2 PUSH20 0xFFFFFFFFFFFFFFFFFFFFFFFFFFFFFFFFFFFFFFFF MUL NOT AND SWAP1 DUP4 PUSH20 0xFFFFFFFFFFFFFFFFFFFFFFFFFFFFFFFFFFFFFFFF AND MUL OR SWAP1 SSTORE POP DUP2 PUSH1 0x9 PUSH1 0x0 PUSH2 0x100 EXP DUP2 SLOAD DUP2 PUSH20 0xFFFFFFFFFFFFFFFFFFFFFFFFFFFFFFFFFFFFFFFF MUL NOT AND SWAP1 DUP4 PUSH20 0xFFFFFFFFFFFFFFFFFFFFFFFFFFFFFFFFFFFFFFFF AND MUL OR SWAP1 SSTORE POP DUP1 PUSH1 0xB DUP2 SWAP1 SSTORE POP POP POP POP POP POP PUSH3 0x27A JUMP JUMPDEST PUSH1 0x0 DUP1 REVERT JUMPDEST PUSH1 0x0 PUSH20 0xFFFFFFFFFFFFFFFFFFFFFFFFFFFFFFFFFFFFFFFF DUP3 AND SWAP1 POP SWAP2 SWAP1 POP JUMP JUMPDEST PUSH1 0x0 PUSH3 0x17F DUP3 PUSH3 0x152 JUMP JUMPDEST SWAP1 POP SWAP2 SWAP1 POP JUMP JUMPDEST PUSH3 0x191 DUP2 PUSH3 0x172 JUMP JUMPDEST DUP2 EQ PUSH3 0x19D JUMPI PUSH1 0x0 DUP1 REVERT JUMPDEST POP JUMP JUMPDEST PUSH1 0x0 DUP2 MLOAD SWAP1 POP PUSH3 0x1B1 DUP2 PUSH3 0x186 JUMP JUMPDEST SWAP3 SWAP2 POP POP JUMP JUMPDEST PUSH1 0x0 DUP2 SWAP1 POP SWAP2 SWAP1 POP JUMP JUMPDEST PUSH3 0x1CC DUP2 PUSH3 0x1B7 JUMP JUMPDEST DUP2 EQ PUSH3 0x1D8 JUMPI PUSH1 0x0 DUP1 REVERT JUMPDEST POP JUMP JUMPDEST PUSH1 0x0 DUP2 MLOAD SWAP1 POP PUSH3 0x1EC DUP2 PUSH3 0x1C1 JUMP JUMPDEST SWAP3 SWAP2 POP POP JUMP JUMPDEST PUSH1 0x0 DUP1 PUSH1 0x0 DUP1 PUSH1 0x0 PUSH1 0xA0 DUP7 DUP9 SUB SLT ISZERO PUSH3 0x211 JUMPI PUSH3 0x210 PUSH3 0x14D JUMP JUMPDEST JUMPDEST PUSH1 0x0 PUSH3 0x221 DUP9 DUP3 DUP10 ADD PUSH3 0x1A0 JUMP JUMPDEST SWAP6 POP POP PUSH1 0x20 PUSH3 0x234 DUP9 DUP3 DUP10 ADD PUSH3 0x1A0 JUMP JUMPDEST SWAP5 POP POP PUSH1 0x40 PUSH3 0x247 DUP9 DUP3 DUP10 ADD PUSH3 0x1A0 JUMP JUMPDEST SWAP4 POP POP PUSH1 0x60 PUSH3 0x25A DUP9 DUP3 DUP10 ADD PUSH3 0x1A0 JUMP JUMPDEST SWAP3 POP POP PUSH1 0x80 PUSH3 0x26D DUP9 DUP3 DUP10 ADD PUSH3 0x1DB JUMP JUMPDEST SWAP2 POP POP SWAP3 SWAP6 POP SWAP3 SWAP6 SWAP1 SWAP4 POP JUMP JUMPDEST PUSH2 0x5AED DUP1 PUSH3 0x28A PUSH1 0x0 CODECOPY PUSH1 0x0 RETURN INVALID PUSH1 0x80 PUSH1 0x40 MSTORE CALLVALUE DUP1 ISZERO PUSH2 0x10 JUMPI PUSH1 0x0 DUP1 REVERT JUMPDEST POP PUSH1 0x4 CALLDATASIZE LT PUSH2 0x1CF JUMPI PUSH1 0x0 CALLDATALOAD PUSH1 0xE0 SHR DUP1 PUSH4 0x605936EA GT PUSH2 0x104 JUMPI DUP1 PUSH4 0xC8D7F62E GT PUSH2 0xA2 JUMPI DUP1 PUSH4 0xF3413C4F GT PUSH2 0x71 JUMPI DUP1 PUSH4 0xF3413C4F EQ PUSH2 0x549 JUMPI DUP1 PUSH4 0xFB90E441 EQ PUSH2 0x567 JUMPI DUP1 PUSH4 0xFE0AB4B3 EQ PUSH2 0x585 JUMPI DUP1 PUSH4 0xFF6689D0 EQ PUSH2 0x5B5 JUMPI PUSH2 0x1CF JUMP JUMPDEST DUP1 PUSH4 0xC8D7F62E EQ PUSH2 0x4C3 JUMPI DUP1 PUSH4 0xCA53B391 EQ PUSH2 0x4F3 JUMPI DUP1 PUSH4 0xD0EBDBE7 EQ PUSH2 0x511 JUMPI DUP1 PUSH4 0xD7C4029C EQ PUSH2 0x52D JUMPI PUSH2 0x1CF JUMP JUMPDEST DUP1 PUSH4 0x7F31ED73 GT PUSH2 0xDE JUMPI DUP1 PUSH4 0x7F31ED73 EQ PUSH2 0x42A JUMPI DUP1 PUSH4 0xA0A57DAC EQ PUSH2 0x448 JUMPI DUP1 PUSH4 0xAF9080F8 EQ PUSH2 0x483 JUMPI DUP1 PUSH4 0xC3A2A93A EQ PUSH2 0x4A1 JUMPI PUSH2 0x1CF JUMP JUMPDEST DUP1 PUSH4 0x605936EA EQ PUSH2 0x3C2 JUMPI DUP1 PUSH4 0x754F399A EQ PUSH2 0x3F2 JUMPI DUP1 PUSH4 0x7BAFE3D0 EQ PUSH2 0x40E JUMPI PUSH2 0x1CF JUMP JUMPDEST DUP1 PUSH4 0x36F9C4DA GT PUSH2 0x171 JUMPI DUP1 PUSH4 0x49F5D1D9 GT PUSH2 0x14B JUMPI DUP1 PUSH4 0x49F5D1D9 EQ PUSH2 0x31D JUMPI DUP1 PUSH4 0x507251CB EQ PUSH2 0x358 JUMPI DUP1 PUSH4 0x5E43522E EQ PUSH2 0x374 JUMPI DUP1 PUSH4 0x5ED7E2C1 EQ PUSH2 0x392 JUMPI PUSH2 0x1CF JUMP JUMPDEST DUP1 PUSH4 0x36F9C4DA EQ PUSH2 0x2B2 JUMPI DUP1 PUSH4 0x48F92EE8 EQ PUSH2 0x2D0 JUMPI DUP1 PUSH4 0x499FA18A EQ PUSH2 0x2EC JUMPI PUSH2 0x1CF JUMP JUMPDEST DUP1 PUSH4 0x1882C195 GT PUSH2 0x1AD JUMPI DUP1 PUSH4 0x1882C195 EQ PUSH2 0x240 JUMPI DUP1 PUSH4 0x19662D8E EQ PUSH2 0x25C JUMPI DUP1 PUSH4 0x1B59122C EQ PUSH2 0x278 JUMPI DUP1 PUSH4 0x281DDC8E EQ PUSH2 0x294 JUMPI PUSH2 0x1CF JUMP JUMPDEST DUP1 PUSH4 0x41E9B89 EQ PUSH2 0x1D4 JUMPI DUP1 PUSH4 0x88674E0 EQ PUSH2 0x206 JUMPI DUP1 PUSH4 0xDF8BFDA EQ PUSH2 0x224 JUMPI JUMPDEST PUSH1 0x0 DUP1 REVERT JUMPDEST PUSH2 0x1EE PUSH1 0x4 DUP1 CALLDATASIZE SUB DUP2 ADD SWAP1 PUSH2 0x1E9 SWAP2 SWAP1 PUSH2 0x366B JUMP JUMPDEST PUSH2 0x5D3 JUMP JUMPDEST PUSH1 0x40 MLOAD PUSH2 0x1FD SWAP4 SWAP3 SWAP2 SWAP1 PUSH2 0x36FB JUMP JUMPDEST PUSH1 0x40 MLOAD DUP1 SWAP2 SUB SWAP1 RETURN JUMPDEST PUSH2 0x20E PUSH2 0x62D JUMP JUMPDEST PUSH1 0x40 MLOAD PUSH2 0x21B SWAP2 SWAP1 PUSH2 0x3741 JUMP JUMPDEST PUSH1 0x40 MLOAD DUP1 SWAP2 SUB SWAP1 RETURN JUMPDEST PUSH2 0x23E PUSH1 0x4 DUP1 CALLDATASIZE SUB DUP2 ADD SWAP1 PUSH2 0x239 SWAP2 SWAP1 PUSH2 0x37E8 JUMP JUMPDEST PUSH2 0x653 JUMP JUMPDEST STOP JUMPDEST PUSH2 0x25A PUSH1 0x4 DUP1 CALLDATASIZE SUB DUP2 ADD SWAP1 PUSH2 0x255 SWAP2 SWAP1 PUSH2 0x3848 JUMP JUMPDEST PUSH2 0xF1B JUMP JUMPDEST STOP JUMPDEST PUSH2 0x276 PUSH1 0x4 DUP1 CALLDATASIZE SUB DUP2 ADD SWAP1 PUSH2 0x271 SWAP2 SWAP1 PUSH2 0x38C9 JUMP JUMPDEST PUSH2 0xF7C JUMP JUMPDEST STOP JUMPDEST PUSH2 0x292 PUSH1 0x4 DUP1 CALLDATASIZE SUB DUP2 ADD SWAP1 PUSH2 0x28D SWAP2 SWAP1 PUSH2 0x3945 JUMP JUMPDEST PUSH2 0x1443 JUMP JUMPDEST STOP JUMPDEST PUSH2 0x29C PUSH2 0x1710 JUMP JUMPDEST PUSH1 0x40 MLOAD PUSH2 0x2A9 SWAP2 SWAP1 PUSH2 0x3ACF JUMP JUMPDEST PUSH1 0x40 MLOAD DUP1 SWAP2 SUB SWAP1 RETURN JUMPDEST PUSH2 0x2BA PUSH2 0x17E9 JUMP JUMPDEST PUSH1 0x40 MLOAD PUSH2 0x2C7 SWAP2 SWAP1 PUSH2 0x3D6F JUMP JUMPDEST PUSH1 0x40 MLOAD DUP1 SWAP2 SUB SWAP1 RETURN JUMPDEST PUSH2 0x2EA PUSH1 0x4 DUP1 CALLDATASIZE SUB DUP2 ADD SWAP1 PUSH2 0x2E5 SWAP2 SWAP1 PUSH2 0x3D91 JUMP JUMPDEST PUSH2 0x1AAD JUMP JUMPDEST STOP JUMPDEST PUSH2 0x306 PUSH1 0x4 DUP1 CALLDATASIZE SUB DUP2 ADD SWAP1 PUSH2 0x301 SWAP2 SWAP1 PUSH2 0x3DDE JUMP JUMPDEST PUSH2 0x1CCE JUMP JUMPDEST PUSH1 0x40 MLOAD PUSH2 0x314 SWAP3 SWAP2 SWAP1 PUSH2 0x3E3A JUMP JUMPDEST PUSH1 0x40 MLOAD DUP1 SWAP2 SUB SWAP1 RETURN JUMPDEST PUSH2 0x337 PUSH1 0x4 DUP1 CALLDATASIZE SUB DUP2 ADD SWAP1 PUSH2 0x332 SWAP2 SWAP1 PUSH2 0x3E63 JUMP JUMPDEST PUSH2 0x1D45 JUMP JUMPDEST PUSH1 0x40 MLOAD PUSH2 0x34F SWAP13 SWAP12 SWAP11 SWAP10 SWAP9 SWAP8 SWAP7 SWAP6 SWAP5 SWAP4 SWAP3 SWAP2 SWAP1 PUSH2 0x3F0B JUMP JUMPDEST PUSH1 0x40 MLOAD DUP1 SWAP2 SUB SWAP1 RETURN JUMPDEST PUSH2 0x372 PUSH1 0x4 DUP1 CALLDATASIZE SUB DUP2 ADD SWAP1 PUSH2 0x36D SWAP2 SWAP1 PUSH2 0x3FF3 JUMP JUMPDEST PUSH2 0x1F2C JUMP JUMPDEST STOP JUMPDEST PUSH2 0x37C PUSH2 0x250D JUMP JUMPDEST PUSH1 0x40 MLOAD PUSH2 0x389 SWAP2 SWAP1 PUSH2 0x3741 JUMP JUMPDEST PUSH1 0x40 MLOAD DUP1 SWAP2 SUB SWAP1 RETURN JUMPDEST PUSH2 0x3AC PUSH1 0x4 DUP1 CALLDATASIZE SUB DUP2 ADD SWAP1 PUSH2 0x3A7 SWAP2 SWAP1 PUSH2 0x3945 JUMP JUMPDEST PUSH2 0x2533 JUMP JUMPDEST PUSH1 0x40 MLOAD PUSH2 0x3B9 SWAP2 SWAP1 PUSH2 0x4083 JUMP JUMPDEST PUSH1 0x40 MLOAD DUP1 SWAP2 SUB SWAP1 RETURN JUMPDEST PUSH2 0x3DC PUSH1 0x4 DUP1 CALLDATASIZE SUB DUP2 ADD SWAP1 PUSH2 0x3D7 SWAP2 SWAP1 PUSH2 0x3D91 JUMP JUMPDEST PUSH2 0x2561 JUMP JUMPDEST PUSH1 0x40 MLOAD PUSH2 0x3E9 SWAP2 SWAP1 PUSH2 0x4083 JUMP JUMPDEST PUSH1 0x40 MLOAD DUP1 SWAP2 SUB SWAP1 RETURN JUMPDEST PUSH2 0x40C PUSH1 0x4 DUP1 CALLDATASIZE SUB DUP2 ADD SWAP1 PUSH2 0x407 SWAP2 SWAP1 PUSH2 0x3D91 JUMP JUMPDEST PUSH2 0x258C JUMP JUMPDEST STOP JUMPDEST PUSH2 0x428 PUSH1 0x4 DUP1 CALLDATASIZE SUB DUP2 ADD SWAP1 PUSH2 0x423 SWAP2 SWAP1 PUSH2 0x409E JUMP JUMPDEST PUSH2 0x27AD JUMP JUMPDEST STOP JUMPDEST PUSH2 0x432 PUSH2 0x28F0 JUMP JUMPDEST PUSH1 0x40 MLOAD PUSH2 0x43F SWAP2 SWAP1 PUSH2 0x3741 JUMP JUMPDEST PUSH1 0x40 MLOAD DUP1 SWAP2 SUB SWAP1 RETURN JUMPDEST PUSH2 0x462 PUSH1 0x4 DUP1 CALLDATASIZE SUB DUP2 ADD SWAP1 PUSH2 0x45D SWAP2 SWAP1 PUSH2 0x3945 JUMP JUMPDEST PUSH2 0x2916 JUMP JUMPDEST PUSH1 0x40 MLOAD PUSH2 0x47A SWAP13 SWAP12 SWAP11 SWAP10 SWAP9 SWAP8 SWAP7 SWAP6 SWAP5 SWAP4 SWAP3 SWAP2 SWAP1 PUSH2 0x3F0B JUMP JUMPDEST PUSH1 0x40 MLOAD DUP1 SWAP2 SUB SWAP1 RETURN JUMPDEST PUSH2 0x48B PUSH2 0x2AF6 JUMP JUMPDEST PUSH1 0x40 MLOAD PUSH2 0x498 SWAP2 SWAP1 PUSH2 0x4083 JUMP JUMPDEST PUSH1 0x40 MLOAD DUP1 SWAP2 SUB SWAP1 RETURN JUMPDEST PUSH2 0x4A9 PUSH2 0x2AFC JUMP JUMPDEST PUSH1 0x40 MLOAD PUSH2 0x4BA SWAP6 SWAP5 SWAP4 SWAP3 SWAP2 SWAP1 PUSH2 0x40CB JUMP JUMPDEST PUSH1 0x40 MLOAD DUP1 SWAP2 SUB SWAP1 RETURN JUMPDEST PUSH2 0x4DD PUSH1 0x4 DUP1 CALLDATASIZE SUB DUP2 ADD SWAP1 PUSH2 0x4D8 SWAP2 SWAP1 PUSH2 0x3D91 JUMP JUMPDEST PUSH2 0x2BCE JUMP JUMPDEST PUSH1 0x40 MLOAD PUSH2 0x4EA SWAP2 SWAP1 PUSH2 0x41FC JUMP JUMPDEST PUSH1 0x40 MLOAD DUP1 SWAP2 SUB SWAP1 RETURN JUMPDEST PUSH2 0x4FB PUSH2 0x2CAE JUMP JUMPDEST PUSH1 0x40 MLOAD PUSH2 0x508 SWAP2 SWAP1 PUSH2 0x3741 JUMP JUMPDEST PUSH1 0x40 MLOAD DUP1 SWAP2 SUB SWAP1 RETURN JUMPDEST PUSH2 0x52B PUSH1 0x4 DUP1 CALLDATASIZE SUB DUP2 ADD SWAP1 PUSH2 0x526 SWAP2 SWAP1 PUSH2 0x409E JUMP JUMPDEST PUSH2 0x2CD4 JUMP JUMPDEST STOP JUMPDEST PUSH2 0x547 PUSH1 0x4 DUP1 CALLDATASIZE SUB DUP2 ADD SWAP1 PUSH2 0x542 SWAP2 SWAP1 PUSH2 0x421E JUMP JUMPDEST PUSH2 0x2DF4 JUMP JUMPDEST STOP JUMPDEST PUSH2 0x551 PUSH2 0x3175 JUMP JUMPDEST PUSH1 0x40 MLOAD PUSH2 0x55E SWAP2 SWAP1 PUSH2 0x443D JUMP JUMPDEST PUSH1 0x40 MLOAD DUP1 SWAP2 SUB SWAP1 RETURN JUMPDEST PUSH2 0x56F PUSH2 0x343A JUMP JUMPDEST PUSH1 0x40 MLOAD PUSH2 0x57C SWAP2 SWAP1 PUSH2 0x3741 JUMP JUMPDEST PUSH1 0x40 MLOAD DUP1 SWAP2 SUB SWAP1 RETURN JUMPDEST PUSH2 0x59F PUSH1 0x4 DUP1 CALLDATASIZE SUB DUP2 ADD SWAP1 PUSH2 0x59A SWAP2 SWAP1 PUSH2 0x3945 JUMP JUMPDEST PUSH2 0x3460 JUMP JUMPDEST PUSH1 0x40 MLOAD PUSH2 0x5AC SWAP2 SWAP1 PUSH2 0x3741 JUMP JUMPDEST PUSH1 0x40 MLOAD DUP1 SWAP2 SUB SWAP1 RETURN JUMPDEST PUSH2 0x5BD PUSH2 0x34A9 JUMP JUMPDEST PUSH1 0x40 MLOAD PUSH2 0x5CA SWAP2 SWAP1 PUSH2 0x4083 JUMP JUMPDEST PUSH1 0x40 MLOAD DUP1 SWAP2 SUB SWAP1 RETURN JUMPDEST PUSH1 0x4 PUSH1 0x20 MSTORE DUP2 PUSH1 0x0 MSTORE PUSH1 0x40 PUSH1 0x0 KECCAK256 DUP2 DUP1 MLOAD PUSH1 0x20 DUP2 ADD DUP3 ADD DUP1 MLOAD DUP5 DUP3 MSTORE PUSH1 0x20 DUP4 ADD PUSH1 0x20 DUP6 ADD KECCAK256 DUP2 DUP4 MSTORE DUP1 SWAP6 POP POP POP POP POP POP PUSH1 0x0 SWAP2 POP SWAP2 POP POP DUP1 PUSH1 0x0 ADD SLOAD SWAP1 DUP1 PUSH1 0x1 ADD PUSH1 0x0 SWAP1 SLOAD SWAP1 PUSH2 0x100 EXP SWAP1 DIV PUSH1 0xFF AND SWAP1 DUP1 PUSH1 0x2 ADD SLOAD SWAP1 POP DUP4 JUMP JUMPDEST PUSH1 0x8 PUSH1 0x0 SWAP1 SLOAD SWAP1 PUSH2 0x100 EXP SWAP1 DIV PUSH20 0xFFFFFFFFFFFFFFFFFFFFFFFFFFFFFFFFFFFFFFFF AND DUP2 JUMP JUMPDEST CALLER PUSH1 0x8 PUSH1 0x0 SWAP1 SLOAD SWAP1 PUSH2 0x100 EXP SWAP1 DIV PUSH20 0xFFFFFFFFFFFFFFFFFFFFFFFFFFFFFFFFFFFFFFFF AND PUSH20 0xFFFFFFFFFFFFFFFFFFFFFFFFFFFFFFFFFFFFFFFF AND PUSH4 0xB9209E33 DUP3 PUSH1 0x40 MLOAD DUP3 PUSH4 0xFFFFFFFF AND PUSH1 0xE0 SHL DUP2 MSTORE PUSH1 0x4 ADD PUSH2 0x6AF SWAP2 SWAP1 PUSH2 0x3741 JUMP JUMPDEST PUSH1 0x20 PUSH1 0x40 MLOAD DUP1 DUP4 SUB DUP2 DUP7 GAS STATICCALL ISZERO DUP1 ISZERO PUSH2 0x6CC JUMPI RETURNDATASIZE PUSH1 0x0 DUP1 RETURNDATACOPY RETURNDATASIZE PUSH1 0x0 REVERT JUMPDEST POP POP POP POP PUSH1 0x40 MLOAD RETURNDATASIZE PUSH1 0x1F NOT PUSH1 0x1F DUP3 ADD AND DUP3 ADD DUP1 PUSH1 0x40 MSTORE POP DUP2 ADD SWAP1 PUSH2 0x6F0 SWAP2 SWAP1 PUSH2 0x448B JUMP JUMPDEST PUSH2 0x72F JUMPI PUSH1 0x40 MLOAD PUSH32 0x8C379A000000000000000000000000000000000000000000000000000000000 DUP2 MSTORE PUSH1 0x4 ADD PUSH2 0x726 SWAP1 PUSH2 0x4504 JUMP JUMPDEST PUSH1 0x40 MLOAD DUP1 SWAP2 SUB SWAP1 REVERT JUMPDEST PUSH1 0x2 PUSH1 0x5 DUP2 GT ISZERO PUSH2 0x743 JUMPI PUSH2 0x742 PUSH2 0x3B57 JUMP JUMPDEST JUMPDEST PUSH1 0x0 DUP6 DUP6 PUSH1 0x40 MLOAD PUSH2 0x755 SWAP3 SWAP2 SWAP1 PUSH2 0x4554 JUMP JUMPDEST SWAP1 DUP2 MSTORE PUSH1 0x20 ADD PUSH1 0x40 MLOAD DUP1 SWAP2 SUB SWAP1 KECCAK256 PUSH1 0x9 ADD PUSH1 0x15 SWAP1 SLOAD SWAP1 PUSH2 0x100 EXP SWAP1 DIV PUSH1 0xFF AND PUSH1 0x5 DUP2 GT ISZERO PUSH2 0x786 JUMPI PUSH2 0x785 PUSH2 0x3B57 JUMP JUMPDEST JUMPDEST EQ PUSH2 0x7CA JUMPI DUP4 DUP4 PUSH1 0x40 MLOAD PUSH32 0xB716508400000000000000000000000000000000000000000000000000000000 DUP2 MSTORE PUSH1 0x4 ADD PUSH2 0x7C1 SWAP3 SWAP2 SWAP1 PUSH2 0x459A JUMP JUMPDEST PUSH1 0x40 MLOAD DUP1 SWAP2 SUB SWAP1 REVERT JUMPDEST PUSH1 0x0 DUP1 DUP6 DUP6 PUSH1 0x40 MLOAD PUSH2 0x7DD SWAP3 SWAP2 SWAP1 PUSH2 0x4554 JUMP JUMPDEST SWAP1 DUP2 MSTORE PUSH1 0x20 ADD PUSH1 0x40 MLOAD DUP1 SWAP2 SUB SWAP1 KECCAK256 PUSH1 0x4 ADD SLOAD PUSH1 0x0 DUP7 DUP7 PUSH1 0x40 MLOAD PUSH2 0x801 SWAP3 SWAP2 SWAP1 PUSH2 0x4554 JUMP JUMPDEST SWAP1 DUP2 MSTORE PUSH1 0x20 ADD PUSH1 0x40 MLOAD DUP1 SWAP2 SUB SWAP1 KECCAK256 PUSH1 0x4 ADD SLOAD DUP5 PUSH2 0x81E SWAP2 SWAP1 PUSH2 0x45ED JUMP JUMPDEST PUSH2 0x828 SWAP2 SWAP1 PUSH2 0x465E JUMP JUMPDEST EQ PUSH2 0x86A JUMPI DUP2 PUSH1 0x40 MLOAD PUSH32 0x3728B83D00000000000000000000000000000000000000000000000000000000 DUP2 MSTORE PUSH1 0x4 ADD PUSH2 0x861 SWAP2 SWAP1 PUSH2 0x4083 JUMP JUMPDEST PUSH1 0x40 MLOAD DUP1 SWAP2 SUB SWAP1 REVERT JUMPDEST PUSH1 0x0 DUP3 EQ ISZERO DUP1 ISZERO PUSH2 0x8C9 JUMPI POP PUSH1 0x0 DUP5 DUP5 PUSH1 0x40 MLOAD PUSH2 0x888 SWAP3 SWAP2 SWAP1 PUSH2 0x4554 JUMP JUMPDEST SWAP1 DUP2 MSTORE PUSH1 0x20 ADD PUSH1 0x40 MLOAD DUP1 SWAP2 SUB SWAP1 KECCAK256 PUSH1 0x3 ADD SLOAD PUSH1 0x3 DUP6 DUP6 PUSH1 0x40 MLOAD PUSH2 0x8AC SWAP3 SWAP2 SWAP1 PUSH2 0x4554 JUMP JUMPDEST SWAP1 DUP2 MSTORE PUSH1 0x20 ADD PUSH1 0x40 MLOAD DUP1 SWAP2 SUB SWAP1 KECCAK256 SLOAD DUP4 PUSH2 0x8C6 SWAP2 SWAP1 PUSH2 0x468F JUMP JUMPDEST GT ISZERO JUMPDEST PUSH2 0x908 JUMPI PUSH1 0x40 MLOAD PUSH32 0x8C379A000000000000000000000000000000000000000000000000000000000 DUP2 MSTORE PUSH1 0x4 ADD PUSH2 0x8FF SWAP1 PUSH2 0x470F JUMP JUMPDEST PUSH1 0x40 MLOAD DUP1 SWAP2 SUB SWAP1 REVERT JUMPDEST DUP2 PUSH1 0x3 DUP6 DUP6 PUSH1 0x40 MLOAD PUSH2 0x91B SWAP3 SWAP2 SWAP1 PUSH2 0x4554 JUMP JUMPDEST SWAP1 DUP2 MSTORE PUSH1 0x20 ADD PUSH1 0x40 MLOAD DUP1 SWAP2 SUB SWAP1 KECCAK256 SLOAD PUSH2 0x934 SWAP2 SWAP1 PUSH2 0x468F JUMP JUMPDEST PUSH1 0x3 DUP6 DUP6 PUSH1 0x40 MLOAD PUSH2 0x946 SWAP3 SWAP2 SWAP1 PUSH2 0x4554 JUMP JUMPDEST SWAP1 DUP2 MSTORE PUSH1 0x20 ADD PUSH1 0x40 MLOAD DUP1 SWAP2 SUB SWAP1 KECCAK256 DUP2 SWAP1 SSTORE POP PUSH1 0x4 PUSH1 0x0 CALLER PUSH20 0xFFFFFFFFFFFFFFFFFFFFFFFFFFFFFFFFFFFFFFFF AND PUSH20 0xFFFFFFFFFFFFFFFFFFFFFFFFFFFFFFFFFFFFFFFF AND DUP2 MSTORE PUSH1 0x20 ADD SWAP1 DUP2 MSTORE PUSH1 0x20 ADD PUSH1 0x0 KECCAK256 DUP5 DUP5 PUSH1 0x40 MLOAD PUSH2 0x9A7 SWAP3 SWAP2 SWAP1 PUSH2 0x4554 JUMP JUMPDEST SWAP1 DUP2 MSTORE PUSH1 0x20 ADD PUSH1 0x40 MLOAD DUP1 SWAP2 SUB SWAP1 KECCAK256 PUSH1 0x1 ADD PUSH1 0x0 SWAP1 SLOAD SWAP1 PUSH2 0x100 EXP SWAP1 DIV PUSH1 0xFF AND ISZERO PUSH2 0xBB3 JUMPI DUP2 PUSH1 0x4 PUSH1 0x0 CALLER PUSH20 0xFFFFFFFFFFFFFFFFFFFFFFFFFFFFFFFFFFFFFFFF AND PUSH20 0xFFFFFFFFFFFFFFFFFFFFFFFFFFFFFFFFFFFFFFFF AND DUP2 MSTORE PUSH1 0x20 ADD SWAP1 DUP2 MSTORE PUSH1 0x20 ADD PUSH1 0x0 KECCAK256 DUP6 DUP6 PUSH1 0x40 MLOAD PUSH2 0xA1B SWAP3 SWAP2 SWAP1 PUSH2 0x4554 JUMP JUMPDEST SWAP1 DUP2 MSTORE PUSH1 0x20 ADD PUSH1 0x40 MLOAD DUP1 SWAP2 SUB SWAP1 KECCAK256 PUSH1 0x0 ADD SLOAD PUSH2 0xA37 SWAP2 SWAP1 PUSH2 0x468F JUMP JUMPDEST PUSH1 0x2 DUP6 DUP6 PUSH1 0x40 MLOAD PUSH2 0xA49 SWAP3 SWAP2 SWAP1 PUSH2 0x4554 JUMP JUMPDEST SWAP1 DUP2 MSTORE PUSH1 0x20 ADD PUSH1 0x40 MLOAD DUP1 SWAP2 SUB SWAP1 KECCAK256 PUSH1 0x4 PUSH1 0x0 CALLER PUSH20 0xFFFFFFFFFFFFFFFFFFFFFFFFFFFFFFFFFFFFFFFF AND PUSH20 0xFFFFFFFFFFFFFFFFFFFFFFFFFFFFFFFFFFFFFFFF AND DUP2 MSTORE PUSH1 0x20 ADD SWAP1 DUP2 MSTORE PUSH1 0x20 ADD PUSH1 0x0 KECCAK256 DUP7 DUP7 PUSH1 0x40 MLOAD PUSH2 0xAA6 SWAP3 SWAP2 SWAP1 PUSH2 0x4554 JUMP JUMPDEST SWAP1 DUP2 MSTORE PUSH1 0x20 ADD PUSH1 0x40 MLOAD DUP1 SWAP2 SUB SWAP1 KECCAK256 PUSH1 0x2 ADD SLOAD DUP2 SLOAD DUP2 LT PUSH2 0xAC9 JUMPI PUSH2 0xAC8 PUSH2 0x472F JUMP JUMPDEST JUMPDEST SWAP1 PUSH1 0x0 MSTORE PUSH1 0x20 PUSH1 0x0 KECCAK256 SWAP1 PUSH1 0x2 MUL ADD PUSH1 0x1 ADD DUP2 SWAP1 SSTORE POP DUP2 PUSH1 0x4 PUSH1 0x0 CALLER PUSH20 0xFFFFFFFFFFFFFFFFFFFFFFFFFFFFFFFFFFFFFFFF AND PUSH20 0xFFFFFFFFFFFFFFFFFFFFFFFFFFFFFFFFFFFFFFFF AND DUP2 MSTORE PUSH1 0x20 ADD SWAP1 DUP2 MSTORE PUSH1 0x20 ADD PUSH1 0x0 KECCAK256 DUP6 DUP6 PUSH1 0x40 MLOAD PUSH2 0xB2E SWAP3 SWAP2 SWAP1 PUSH2 0x4554 JUMP JUMPDEST SWAP1 DUP2 MSTORE PUSH1 0x20 ADD PUSH1 0x40 MLOAD DUP1 SWAP2 SUB SWAP1 KECCAK256 PUSH1 0x0 ADD SLOAD PUSH2 0xB4A SWAP2 SWAP1 PUSH2 0x468F JUMP JUMPDEST PUSH1 0x4 PUSH1 0x0 CALLER PUSH20 0xFFFFFFFFFFFFFFFFFFFFFFFFFFFFFFFFFFFFFFFF AND PUSH20 0xFFFFFFFFFFFFFFFFFFFFFFFFFFFFFFFFFFFFFFFF AND DUP2 MSTORE PUSH1 0x20 ADD SWAP1 DUP2 MSTORE PUSH1 0x20 ADD PUSH1 0x0 KECCAK256 DUP6 DUP6 PUSH1 0x40 MLOAD PUSH2 0xB99 SWAP3 SWAP2 SWAP1 PUSH2 0x4554 JUMP JUMPDEST SWAP1 DUP2 MSTORE PUSH1 0x20 ADD PUSH1 0x40 MLOAD DUP1 SWAP2 SUB SWAP1 KECCAK256 PUSH1 0x0 ADD DUP2 SWAP1 SSTORE POP PUSH2 0xD50 JUMP JUMPDEST PUSH1 0x40 MLOAD DUP1 PUSH1 0x60 ADD PUSH1 0x40 MSTORE DUP1 DUP4 DUP2 MSTORE PUSH1 0x20 ADD PUSH1 0x1 ISZERO ISZERO DUP2 MSTORE PUSH1 0x20 ADD PUSH1 0x2 DUP7 DUP7 PUSH1 0x40 MLOAD PUSH2 0xBDF SWAP3 SWAP2 SWAP1 PUSH2 0x4554 JUMP JUMPDEST SWAP1 DUP2 MSTORE PUSH1 0x20 ADD PUSH1 0x40 MLOAD DUP1 SWAP2 SUB SWAP1 KECCAK256 DUP1 SLOAD SWAP1 POP DUP2 MSTORE POP PUSH1 0x4 PUSH1 0x0 CALLER PUSH20 0xFFFFFFFFFFFFFFFFFFFFFFFFFFFFFFFFFFFFFFFF AND PUSH20 0xFFFFFFFFFFFFFFFFFFFFFFFFFFFFFFFFFFFFFFFF AND DUP2 MSTORE PUSH1 0x20 ADD SWAP1 DUP2 MSTORE PUSH1 0x20 ADD PUSH1 0x0 KECCAK256 DUP6 DUP6 PUSH1 0x40 MLOAD PUSH2 0xC43 SWAP3 SWAP2 SWAP1 PUSH2 0x4554 JUMP JUMPDEST SWAP1 DUP2 MSTORE PUSH1 0x20 ADD PUSH1 0x40 MLOAD DUP1 SWAP2 SUB SWAP1 KECCAK256 PUSH1 0x0 DUP3 ADD MLOAD DUP2 PUSH1 0x0 ADD SSTORE PUSH1 0x20 DUP3 ADD MLOAD DUP2 PUSH1 0x1 ADD PUSH1 0x0 PUSH2 0x100 EXP DUP2 SLOAD DUP2 PUSH1 0xFF MUL NOT AND SWAP1 DUP4 ISZERO ISZERO MUL OR SWAP1 SSTORE POP PUSH1 0x40 DUP3 ADD MLOAD DUP2 PUSH1 0x2 ADD SSTORE SWAP1 POP POP PUSH1 0x2 DUP5 DUP5 PUSH1 0x40 MLOAD PUSH2 0xC9A SWAP3 SWAP2 SWAP1 PUSH2 0x4554 JUMP JUMPDEST SWAP1 DUP2 MSTORE PUSH1 0x20 ADD PUSH1 0x40 MLOAD DUP1 SWAP2 SUB SWAP1 KECCAK256 PUSH1 0x40 MLOAD DUP1 PUSH1 0x40 ADD PUSH1 0x40 MSTORE DUP1 CALLER PUSH20 0xFFFFFFFFFFFFFFFFFFFFFFFFFFFFFFFFFFFFFFFF AND DUP2 MSTORE PUSH1 0x20 ADD DUP5 DUP2 MSTORE POP SWAP1 DUP1 PUSH1 0x1 DUP2 SLOAD ADD DUP1 DUP3 SSTORE DUP1 SWAP2 POP POP PUSH1 0x1 SWAP1 SUB SWAP1 PUSH1 0x0 MSTORE PUSH1 0x20 PUSH1 0x0 KECCAK256 SWAP1 PUSH1 0x2 MUL ADD PUSH1 0x0 SWAP1 SWAP2 SWAP1 SWAP2 SWAP1 SWAP2 POP PUSH1 0x0 DUP3 ADD MLOAD DUP2 PUSH1 0x0 ADD PUSH1 0x0 PUSH2 0x100 EXP DUP2 SLOAD DUP2 PUSH20 0xFFFFFFFFFFFFFFFFFFFFFFFFFFFFFFFFFFFFFFFF MUL NOT AND SWAP1 DUP4 PUSH20 0xFFFFFFFFFFFFFFFFFFFFFFFFFFFFFFFFFFFFFFFF AND MUL OR SWAP1 SSTORE POP PUSH1 0x20 DUP3 ADD MLOAD DUP2 PUSH1 0x1 ADD SSTORE POP POP JUMPDEST PUSH1 0xA PUSH1 0x0 SWAP1 SLOAD SWAP1 PUSH2 0x100 EXP SWAP1 DIV PUSH20 0xFFFFFFFFFFFFFFFFFFFFFFFFFFFFFFFFFFFFFFFF AND PUSH20 0xFFFFFFFFFFFFFFFFFFFFFFFFFFFFFFFFFFFFFFFF AND PUSH4 0x925B7CB6 DUP6 DUP6 DUP6 PUSH1 0x40 MLOAD DUP5 PUSH4 0xFFFFFFFF AND PUSH1 0xE0 SHL DUP2 MSTORE PUSH1 0x4 ADD PUSH2 0xDAF SWAP4 SWAP3 SWAP2 SWAP1 PUSH2 0x475E JUMP JUMPDEST PUSH1 0x0 PUSH1 0x40 MLOAD DUP1 DUP4 SUB DUP2 PUSH1 0x0 DUP8 DUP1 EXTCODESIZE ISZERO DUP1 ISZERO PUSH2 0xDC9 JUMPI PUSH1 0x0 DUP1 REVERT JUMPDEST POP GAS CALL ISZERO DUP1 ISZERO PUSH2 0xDDD JUMPI RETURNDATASIZE PUSH1 0x0 DUP1 RETURNDATACOPY RETURNDATASIZE PUSH1 0x0 REVERT JUMPDEST POP POP POP POP PUSH1 0x0 DUP5 DUP5 PUSH1 0x40 MLOAD PUSH2 0xDF3 SWAP3 SWAP2 SWAP1 PUSH2 0x4554 JUMP JUMPDEST SWAP1 DUP2 MSTORE PUSH1 0x20 ADD PUSH1 0x40 MLOAD DUP1 SWAP2 SUB SWAP1 KECCAK256 PUSH1 0x9 ADD PUSH1 0x0 SWAP1 SLOAD SWAP1 PUSH2 0x100 EXP SWAP1 DIV PUSH20 0xFFFFFFFFFFFFFFFFFFFFFFFFFFFFFFFFFFFFFFFF AND PUSH20 0xFFFFFFFFFFFFFFFFFFFFFFFFFFFFFFFFFFFFFFFF AND PUSH4 0x23B872DD CALLER PUSH1 0xA PUSH1 0x0 SWAP1 SLOAD SWAP1 PUSH2 0x100 EXP SWAP1 DIV PUSH20 0xFFFFFFFFFFFFFFFFFFFFFFFFFFFFFFFFFFFFFFFF AND PUSH8 0xDE0B6B3A7640000 DUP7 PUSH2 0xE78 SWAP2 SWAP1 PUSH2 0x45ED JUMP JUMPDEST PUSH1 0x40 MLOAD DUP5 PUSH4 0xFFFFFFFF AND PUSH1 0xE0 SHL DUP2 MSTORE PUSH1 0x4 ADD PUSH2 0xE96 SWAP4 SWAP3 SWAP2 SWAP1 PUSH2 0x4790 JUMP JUMPDEST PUSH1 0x20 PUSH1 0x40 MLOAD DUP1 DUP4 SUB DUP2 PUSH1 0x0 DUP8 GAS CALL ISZERO DUP1 ISZERO PUSH2 0xEB5 JUMPI RETURNDATASIZE PUSH1 0x0 DUP1 RETURNDATACOPY RETURNDATASIZE PUSH1 0x0 REVERT JUMPDEST POP POP POP POP PUSH1 0x40 MLOAD RETURNDATASIZE PUSH1 0x1F NOT PUSH1 0x1F DUP3 ADD AND DUP3 ADD DUP1 PUSH1 0x40 MSTORE POP DUP2 ADD SWAP1 PUSH2 0xED9 SWAP2 SWAP1 PUSH2 0x448B JUMP JUMPDEST POP PUSH32 0xBDAF52B4DE514796607307FBBCF007EE6D59E81E1BE436B67C5A567A2E8D121 DUP5 DUP5 CALLER PUSH1 0x40 MLOAD PUSH2 0xF0D SWAP4 SWAP3 SWAP2 SWAP1 PUSH2 0x47C7 JUMP JUMPDEST PUSH1 0x40 MLOAD DUP1 SWAP2 SUB SWAP1 LOG1 POP POP POP POP JUMP JUMPDEST DUP1 PUSH1 0x1 DUP4 PUSH1 0x40 MLOAD PUSH2 0xF2C SWAP2 SWAP1 PUSH2 0x482A JUMP JUMPDEST SWAP1 DUP2 MSTORE PUSH1 0x20 ADD PUSH1 0x40 MLOAD DUP1 SWAP2 SUB SWAP1 KECCAK256 PUSH1 0x0 PUSH2 0x100 EXP DUP2 SLOAD DUP2 PUSH20 0xFFFFFFFFFFFFFFFFFFFFFFFFFFFFFFFFFFFFFFFF MUL NOT AND SWAP1 DUP4 PUSH20 0xFFFFFFFFFFFFFFFFFFFFFFFFFFFFFFFFFFFFFFFF AND MUL OR SWAP1 SSTORE POP POP POP JUMP JUMPDEST PUSH1 0x7 PUSH1 0x0 SWAP1 SLOAD SWAP1 PUSH2 0x100 EXP SWAP1 DIV PUSH20 0xFFFFFFFFFFFFFFFFFFFFFFFFFFFFFFFFFFFFFFFF AND PUSH20 0xFFFFFFFFFFFFFFFFFFFFFFFFFFFFFFFFFFFFFFFF AND PUSH4 0x877B9A67 CALLER PUSH1 0x40 MLOAD DUP3 PUSH4 0xFFFFFFFF AND PUSH1 0xE0 SHL DUP2 MSTORE PUSH1 0x4 ADD PUSH2 0xFD7 SWAP2 SWAP1 PUSH2 0x3741 JUMP JUMPDEST PUSH1 0x20 PUSH1 0x40 MLOAD DUP1 DUP4 SUB DUP2 DUP7 GAS STATICCALL ISZERO DUP1 ISZERO PUSH2 0xFF4 JUMPI RETURNDATASIZE PUSH1 0x0 DUP1 RETURNDATACOPY RETURNDATASIZE PUSH1 0x0 REVERT JUMPDEST POP POP POP POP PUSH1 0x40 MLOAD RETURNDATASIZE PUSH1 0x1F NOT PUSH1 0x1F DUP3 ADD AND DUP3 ADD DUP1 PUSH1 0x40 MSTORE POP DUP2 ADD SWAP1 PUSH2 0x1018 SWAP2 SWAP1 PUSH2 0x448B JUMP JUMPDEST PUSH2 0x1057 JUMPI PUSH1 0x40 MLOAD PUSH32 0x8C379A000000000000000000000000000000000000000000000000000000000 DUP2 MSTORE PUSH1 0x4 ADD PUSH2 0x104E SWAP1 PUSH2 0x488D JUMP JUMPDEST PUSH1 0x40 MLOAD DUP1 SWAP2 SUB SWAP1 REVERT JUMPDEST DUP1 PUSH1 0x40 ADD PUSH1 0x20 DUP2 ADD SWAP1 PUSH2 0x106A SWAP2 SWAP1 PUSH2 0x409E JUMP JUMPDEST PUSH20 0xFFFFFFFFFFFFFFFFFFFFFFFFFFFFFFFFFFFFFFFF AND CALLER PUSH20 0xFFFFFFFFFFFFFFFFFFFFFFFFFFFFFFFFFFFFFFFF AND EQ PUSH2 0x10D7 JUMPI PUSH1 0x40 MLOAD PUSH32 0x8C379A000000000000000000000000000000000000000000000000000000000 DUP2 MSTORE PUSH1 0x4 ADD PUSH2 0x10CE SWAP1 PUSH2 0x48F9 JUMP JUMPDEST PUSH1 0x40 MLOAD DUP1 SWAP2 SUB SWAP1 REVERT JUMPDEST PUSH1 0x0 PUSH1 0x5 DUP2 GT ISZERO PUSH2 0x10EB JUMPI PUSH2 0x10EA PUSH2 0x3B57 JUMP JUMPDEST JUMPDEST PUSH1 0x0 DUP5 DUP5 PUSH1 0x40 MLOAD PUSH2 0x10FD SWAP3 SWAP2 SWAP1 PUSH2 0x4554 JUMP JUMPDEST SWAP1 DUP2 MSTORE PUSH1 0x20 ADD PUSH1 0x40 MLOAD DUP1 SWAP2 SUB SWAP1 KECCAK256 PUSH1 0x9 ADD PUSH1 0x15 SWAP1 SLOAD SWAP1 PUSH2 0x100 EXP SWAP1 DIV PUSH1 0xFF AND PUSH1 0x5 DUP2 GT ISZERO PUSH2 0x112E JUMPI PUSH2 0x112D PUSH2 0x3B57 JUMP JUMPDEST JUMPDEST EQ PUSH2 0x116E JUMPI PUSH1 0x40 MLOAD PUSH32 0x8C379A000000000000000000000000000000000000000000000000000000000 DUP2 MSTORE PUSH1 0x4 ADD PUSH2 0x1165 SWAP1 PUSH2 0x4965 JUMP JUMPDEST PUSH1 0x40 MLOAD DUP1 SWAP2 SUB SWAP1 REVERT JUMPDEST DUP1 PUSH1 0x0 DUP5 DUP5 PUSH1 0x40 MLOAD PUSH2 0x1181 SWAP3 SWAP2 SWAP1 PUSH2 0x4554 JUMP JUMPDEST SWAP1 DUP2 MSTORE PUSH1 0x20 ADD PUSH1 0x40 MLOAD DUP1 SWAP2 SUB SWAP1 KECCAK256 DUP2 DUP2 PUSH2 0x119B SWAP2 SWAP1 PUSH2 0x5133 JUMP JUMPDEST SWAP1 POP POP PUSH1 0x1 PUSH1 0x0 DUP5 DUP5 PUSH1 0x40 MLOAD PUSH2 0x11B2 SWAP3 SWAP2 SWAP1 PUSH2 0x4554 JUMP JUMPDEST SWAP1 DUP2 MSTORE PUSH1 0x20 ADD PUSH1 0x40 MLOAD DUP1 SWAP2 SUB SWAP1 KECCAK256 PUSH1 0x9 ADD PUSH1 0x15 PUSH2 0x100 EXP DUP2 SLOAD DUP2 PUSH1 0xFF MUL NOT AND SWAP1 DUP4 PUSH1 0x5 DUP2 GT ISZERO PUSH2 0x11E5 JUMPI PUSH2 0x11E4 PUSH2 0x3B57 JUMP JUMPDEST JUMPDEST MUL OR SWAP1 SSTORE POP PUSH1 0xD DUP1 SLOAD SWAP1 POP PUSH1 0x0 DUP5 DUP5 PUSH1 0x40 MLOAD PUSH2 0x1202 SWAP3 SWAP2 SWAP1 PUSH2 0x4554 JUMP JUMPDEST SWAP1 DUP2 MSTORE PUSH1 0x20 ADD PUSH1 0x40 MLOAD DUP1 SWAP2 SUB SWAP1 KECCAK256 PUSH1 0x8 ADD DUP2 SWAP1 SSTORE POP PUSH1 0xD PUSH1 0x0 DUP5 DUP5 PUSH1 0x40 MLOAD PUSH2 0x122B SWAP3 SWAP2 SWAP1 PUSH2 0x4554 JUMP JUMPDEST SWAP1 DUP2 MSTORE PUSH1 0x20 ADD PUSH1 0x40 MLOAD DUP1 SWAP2 SUB SWAP1 KECCAK256 SWAP1 DUP1 PUSH1 0x1 DUP2 SLOAD ADD DUP1 DUP3 SSTORE DUP1 SWAP2 POP POP PUSH1 0x1 SWAP1 SUB SWAP1 PUSH1 0x0 MSTORE PUSH1 0x20 PUSH1 0x0 KECCAK256 SWAP1 PUSH1 0xA MUL ADD PUSH1 0x0 SWAP1 SWAP2 SWAP1 SWAP2 SWAP1 SWAP2 POP PUSH1 0x0 DUP3 ADD DUP2 PUSH1 0x0 ADD SWAP1 DUP2 PUSH2 0x1276 SWAP2 SWAP1 PUSH2 0x5157 JUMP JUMPDEST POP PUSH1 0x1 DUP3 ADD DUP2 PUSH1 0x1 ADD SWAP1 DUP2 PUSH2 0x128B SWAP2 SWAP1 PUSH2 0x5157 JUMP JUMPDEST POP PUSH1 0x2 DUP3 ADD PUSH1 0x0 SWAP1 SLOAD SWAP1 PUSH2 0x100 EXP SWAP1 DIV PUSH20 0xFFFFFFFFFFFFFFFFFFFFFFFFFFFFFFFFFFFFFFFF AND DUP2 PUSH1 0x2 ADD PUSH1 0x0 PUSH2 0x100 EXP DUP2 SLOAD DUP2 PUSH20 0xFFFFFFFFFFFFFFFFFFFFFFFFFFFFFFFFFFFFFFFF MUL NOT AND SWAP1 DUP4 PUSH20 0xFFFFFFFFFFFFFFFFFFFFFFFFFFFFFFFFFFFFFFFF AND MUL OR SWAP1 SSTORE POP PUSH1 0x3 DUP3 ADD SLOAD DUP2 PUSH1 0x3 ADD SSTORE PUSH1 0x4 DUP3 ADD SLOAD DUP2 PUSH1 0x4 ADD SSTORE PUSH1 0x5 DUP3 ADD SLOAD DUP2 PUSH1 0x5 ADD SSTORE PUSH1 0x6 DUP3 ADD SLOAD DUP2 PUSH1 0x6 ADD SSTORE PUSH1 0x7 DUP3 ADD SLOAD DUP2 PUSH1 0x7 ADD SSTORE PUSH1 0x8 DUP3 ADD SLOAD DUP2 PUSH1 0x8 ADD SSTORE PUSH1 0x9 DUP3 ADD PUSH1 0x0 SWAP1 SLOAD SWAP1 PUSH2 0x100 EXP SWAP1 DIV PUSH20 0xFFFFFFFFFFFFFFFFFFFFFFFFFFFFFFFFFFFFFFFF AND DUP2 PUSH1 0x9 ADD PUSH1 0x0 PUSH2 0x100 EXP DUP2 SLOAD DUP2 PUSH20 0xFFFFFFFFFFFFFFFFFFFFFFFFFFFFFFFFFFFFFFFF MUL NOT AND SWAP1 DUP4 PUSH20 0xFFFFFFFFFFFFFFFFFFFFFFFFFFFFFFFFFFFFFFFF AND MUL OR SWAP1 SSTORE POP PUSH1 0x9 DUP3 ADD PUSH1 0x14 SWAP1 SLOAD SWAP1 PUSH2 0x100 EXP SWAP1 DIV PUSH1 0xFF AND DUP2 PUSH1 0x9 ADD PUSH1 0x14 PUSH2 0x100 EXP DUP2 SLOAD DUP2 PUSH1 0xFF MUL NOT AND SWAP1 DUP4 PUSH1 0xFF AND MUL OR SWAP1 SSTORE POP PUSH1 0x9 DUP3 ADD PUSH1 0x15 SWAP1 SLOAD SWAP1 PUSH2 0x100 EXP SWAP1 DIV PUSH1 0xFF AND DUP2 PUSH1 0x9 ADD PUSH1 0x15 PUSH2 0x100 EXP DUP2 SLOAD DUP2 PUSH1 0xFF MUL NOT AND SWAP1 DUP4 PUSH1 0x5 DUP2 GT ISZERO PUSH2 0x13FC JUMPI PUSH2 0x13FB PUSH2 0x3B57 JUMP JUMPDEST JUMPDEST MUL OR SWAP1 SSTORE POP POP POP PUSH32 0xEBC5645D06A6C6900FFBABB37C6FC84326BD870990F736254F05ABB3287FFD41 DUP4 DUP4 DUP4 PUSH1 0x40 MLOAD PUSH2 0x1436 SWAP4 SWAP3 SWAP2 SWAP1 PUSH2 0x54D3 JUMP JUMPDEST PUSH1 0x40 MLOAD DUP1 SWAP2 SUB SWAP1 LOG1 POP POP POP JUMP JUMPDEST PUSH1 0x0 DUP2 PUSH1 0x40 MLOAD PUSH2 0x1453 SWAP2 SWAP1 PUSH2 0x482A JUMP JUMPDEST SWAP1 DUP2 MSTORE PUSH1 0x20 ADD PUSH1 0x40 MLOAD DUP1 SWAP2 SUB SWAP1 KECCAK256 PUSH1 0x2 ADD PUSH1 0x0 SWAP1 SLOAD SWAP1 PUSH2 0x100 EXP SWAP1 DIV PUSH20 0xFFFFFFFFFFFFFFFFFFFFFFFFFFFFFFFFFFFFFFFF AND PUSH20 0xFFFFFFFFFFFFFFFFFFFFFFFFFFFFFFFFFFFFFFFF AND CALLER PUSH20 0xFFFFFFFFFFFFFFFFFFFFFFFFFFFFFFFFFFFFFFFF AND EQ DUP1 PUSH2 0x150B JUMPI POP PUSH1 0x6 PUSH1 0x0 SWAP1 SLOAD SWAP1 PUSH2 0x100 EXP SWAP1 DIV PUSH20 0xFFFFFFFFFFFFFFFFFFFFFFFFFFFFFFFFFFFFFFFF AND PUSH20 0xFFFFFFFFFFFFFFFFFFFFFFFFFFFFFFFFFFFFFFFF AND CALLER PUSH20 0xFFFFFFFFFFFFFFFFFFFFFFFFFFFFFFFFFFFFFFFF AND EQ JUMPDEST PUSH2 0x154A JUMPI PUSH1 0x40 MLOAD PUSH32 0x8C379A000000000000000000000000000000000000000000000000000000000 DUP2 MSTORE PUSH1 0x4 ADD PUSH2 0x1541 SWAP1 PUSH2 0x5558 JUMP JUMPDEST PUSH1 0x40 MLOAD DUP1 SWAP2 SUB SWAP1 REVERT JUMPDEST PUSH1 0x0 PUSH20 0xFFFFFFFFFFFFFFFFFFFFFFFFFFFFFFFFFFFFFFFF AND PUSH1 0x0 DUP3 PUSH1 0x40 MLOAD PUSH2 0x1572 SWAP2 SWAP1 PUSH2 0x482A JUMP JUMPDEST SWAP1 DUP2 MSTORE PUSH1 0x20 ADD PUSH1 0x40 MLOAD DUP1 SWAP2 SUB SWAP1 KECCAK256 PUSH1 0x9 ADD PUSH1 0x0 SWAP1 SLOAD SWAP1 PUSH2 0x100 EXP SWAP1 DIV PUSH20 0xFFFFFFFFFFFFFFFFFFFFFFFFFFFFFFFFFFFFFFFF AND PUSH20 0xFFFFFFFFFFFFFFFFFFFFFFFFFFFFFFFFFFFFFFFF AND SUB PUSH2 0x15FA JUMPI PUSH1 0x40 MLOAD PUSH32 0x8C379A000000000000000000000000000000000000000000000000000000000 DUP2 MSTORE PUSH1 0x4 ADD PUSH2 0x15F1 SWAP1 PUSH2 0x55C4 JUMP JUMPDEST PUSH1 0x40 MLOAD DUP1 SWAP2 SUB SWAP1 REVERT JUMPDEST PUSH1 0xA PUSH1 0x0 SWAP1 SLOAD SWAP1 PUSH2 0x100 EXP SWAP1 DIV PUSH20 0xFFFFFFFFFFFFFFFFFFFFFFFFFFFFFFFFFFFFFFFF AND PUSH20 0xFFFFFFFFFFFFFFFFFFFFFFFFFFFFFFFFFFFFFFFF AND PUSH4 0xE04CD97F DUP3 PUSH1 0x0 DUP5 PUSH1 0x40 MLOAD PUSH2 0x1649 SWAP2 SWAP1 PUSH2 0x482A JUMP JUMPDEST SWAP1 DUP2 MSTORE PUSH1 0x20 ADD PUSH1 0x40 MLOAD DUP1 SWAP2 SUB SWAP1 KECCAK256 PUSH1 0x2 ADD PUSH1 0x0 SWAP1 SLOAD SWAP1 PUSH2 0x100 EXP SWAP1 DIV PUSH20 0xFFFFFFFFFFFFFFFFFFFFFFFFFFFFFFFFFFFFFFFF AND PUSH1 0x0 DUP6 PUSH1 0x40 MLOAD PUSH2 0x168B SWAP2 SWAP1 PUSH2 0x482A JUMP JUMPDEST SWAP1 DUP2 MSTORE PUSH1 0x20 ADD PUSH1 0x40 MLOAD DUP1 SWAP2 SUB SWAP1 KECCAK256 PUSH1 0x9 ADD PUSH1 0x0 SWAP1 SLOAD SWAP1 PUSH2 0x100 EXP SWAP1 DIV PUSH20 0xFFFFFFFFFFFFFFFFFFFFFFFFFFFFFFFFFFFFFFFF AND PUSH1 0x40 MLOAD DUP5 PUSH4 0xFFFFFFFF AND PUSH1 0xE0 SHL DUP2 MSTORE PUSH1 0x4 ADD PUSH2 0x16DB SWAP4 SWAP3 SWAP2 SWAP1 PUSH2 0x55E4 JUMP JUMPDEST PUSH1 0x0 PUSH1 0x40 MLOAD DUP1 DUP4 SUB DUP2 PUSH1 0x0 DUP8 DUP1 EXTCODESIZE ISZERO DUP1 ISZERO PUSH2 0x16F5 JUMPI PUSH1 0x0 DUP1 REVERT JUMPDEST POP GAS CALL ISZERO DUP1 ISZERO PUSH2 0x1709 JUMPI RETURNDATASIZE PUSH1 0x0 DUP1 RETURNDATACOPY RETURNDATASIZE PUSH1 0x0 REVERT JUMPDEST POP POP POP POP POP JUMP JUMPDEST PUSH1 0x60 PUSH1 0xE DUP1 SLOAD DUP1 PUSH1 0x20 MUL PUSH1 0x20 ADD PUSH1 0x40 MLOAD SWAP1 DUP2 ADD PUSH1 0x40 MSTORE DUP1 SWAP3 SWAP2 SWAP1 DUP2 DUP2 MSTORE PUSH1 0x20 ADD PUSH1 0x0 SWAP1 JUMPDEST DUP3 DUP3 LT ISZERO PUSH2 0x17E0 JUMPI DUP4 DUP3 SWAP1 PUSH1 0x0 MSTORE PUSH1 0x20 PUSH1 0x0 KECCAK256 ADD DUP1 SLOAD PUSH2 0x1753 SWAP1 PUSH2 0x4A31 JUMP JUMPDEST DUP1 PUSH1 0x1F ADD PUSH1 0x20 DUP1 SWAP2 DIV MUL PUSH1 0x20 ADD PUSH1 0x40 MLOAD SWAP1 DUP2 ADD PUSH1 0x40 MSTORE DUP1 SWAP3 SWAP2 SWAP1 DUP2 DUP2 MSTORE PUSH1 0x20 ADD DUP3 DUP1 SLOAD PUSH2 0x177F SWAP1 PUSH2 0x4A31 JUMP JUMPDEST DUP1 ISZERO PUSH2 0x17CC JUMPI DUP1 PUSH1 0x1F LT PUSH2 0x17A1 JUMPI PUSH2 0x100 DUP1 DUP4 SLOAD DIV MUL DUP4 MSTORE SWAP2 PUSH1 0x20 ADD SWAP2 PUSH2 0x17CC JUMP JUMPDEST DUP3 ADD SWAP2 SWAP1 PUSH1 0x0 MSTORE PUSH1 0x20 PUSH1 0x0 KECCAK256 SWAP1 JUMPDEST DUP2 SLOAD DUP2 MSTORE SWAP1 PUSH1 0x1 ADD SWAP1 PUSH1 0x20 ADD DUP1 DUP4 GT PUSH2 0x17AF JUMPI DUP3 SWAP1 SUB PUSH1 0x1F AND DUP3 ADD SWAP2 JUMPDEST POP POP POP POP POP DUP2 MSTORE PUSH1 0x20 ADD SWAP1 PUSH1 0x1 ADD SWAP1 PUSH2 0x1734 JUMP JUMPDEST POP POP POP POP SWAP1 POP SWAP1 JUMP JUMPDEST PUSH1 0x60 PUSH1 0xD DUP1 SLOAD DUP1 PUSH1 0x20 MUL PUSH1 0x20 ADD PUSH1 0x40 MLOAD SWAP1 DUP2 ADD PUSH1 0x40 MSTORE DUP1 SWAP3 SWAP2 SWAP1 DUP2 DUP2 MSTORE PUSH1 0x20 ADD PUSH1 0x0 SWAP1 JUMPDEST DUP3 DUP3 LT ISZERO PUSH2 0x1AA4 JUMPI DUP4 DUP3 SWAP1 PUSH1 0x0 MSTORE PUSH1 0x20 PUSH1 0x0 KECCAK256 SWAP1 PUSH1 0xA MUL ADD PUSH1 0x40 MLOAD DUP1 PUSH2 0x180 ADD PUSH1 0x40 MSTORE SWAP1 DUP2 PUSH1 0x0 DUP3 ADD DUP1 SLOAD PUSH2 0x1841 SWAP1 PUSH2 0x4A31 JUMP JUMPDEST DUP1 PUSH1 0x1F ADD PUSH1 0x20 DUP1 SWAP2 DIV MUL PUSH1 0x20 ADD PUSH1 0x40 MLOAD SWAP1 DUP2 ADD PUSH1 0x40 MSTORE DUP1 SWAP3 SWAP2 SWAP1 DUP2 DUP2 MSTORE PUSH1 0x20 ADD DUP3 DUP1 SLOAD PUSH2 0x186D SWAP1 PUSH2 0x4A31 JUMP JUMPDEST DUP1 ISZERO PUSH2 0x18BA JUMPI DUP1 PUSH1 0x1F LT PUSH2 0x188F JUMPI PUSH2 0x100 DUP1 DUP4 SLOAD DIV MUL DUP4 MSTORE SWAP2 PUSH1 0x20 ADD SWAP2 PUSH2 0x18BA JUMP JUMPDEST DUP3 ADD SWAP2 SWAP1 PUSH1 0x0 MSTORE PUSH1 0x20 PUSH1 0x0 KECCAK256 SWAP1 JUMPDEST DUP2 SLOAD DUP2 MSTORE SWAP1 PUSH1 0x1 ADD SWAP1 PUSH1 0x20 ADD DUP1 DUP4 GT PUSH2 0x189D JUMPI DUP3 SWAP1 SUB PUSH1 0x1F AND DUP3 ADD SWAP2 JUMPDEST POP POP POP POP POP DUP2 MSTORE PUSH1 0x20 ADD PUSH1 0x1 DUP3 ADD DUP1 SLOAD PUSH2 0x18D3 SWAP1 PUSH2 0x4A31 JUMP JUMPDEST DUP1 PUSH1 0x1F ADD PUSH1 0x20 DUP1 SWAP2 DIV MUL PUSH1 0x20 ADD PUSH1 0x40 MLOAD SWAP1 DUP2 ADD PUSH1 0x40 MSTORE DUP1 SWAP3 SWAP2 SWAP1 DUP2 DUP2 MSTORE PUSH1 0x20 ADD DUP3 DUP1 SLOAD PUSH2 0x18FF SWAP1 PUSH2 0x4A31 JUMP JUMPDEST DUP1 ISZERO PUSH2 0x194C JUMPI DUP1 PUSH1 0x1F LT PUSH2 0x1921 JUMPI PUSH2 0x100 DUP1 DUP4 SLOAD DIV MUL DUP4 MSTORE SWAP2 PUSH1 0x20 ADD SWAP2 PUSH2 0x194C JUMP JUMPDEST DUP3 ADD SWAP2 SWAP1 PUSH1 0x0 MSTORE PUSH1 0x20 PUSH1 0x0 KECCAK256 SWAP1 JUMPDEST DUP2 SLOAD DUP2 MSTORE SWAP1 PUSH1 0x1 ADD SWAP1 PUSH1 0x20 ADD DUP1 DUP4 GT PUSH2 0x192F JUMPI DUP3 SWAP1 SUB PUSH1 0x1F AND DUP3 ADD SWAP2 JUMPDEST POP POP POP POP POP DUP2 MSTORE PUSH1 0x20 ADD PUSH1 0x2 DUP3 ADD PUSH1 0x0 SWAP1 SLOAD SWAP1 PUSH2 0x100 EXP SWAP1 DIV PUSH20 0xFFFFFFFFFFFFFFFFFFFFFFFFFFFFFFFFFFFFFFFF AND PUSH20 0xFFFFFFFFFFFFFFFFFFFFFFFFFFFFFFFFFFFFFFFF AND PUSH20 0xFFFFFFFFFFFFFFFFFFFFFFFFFFFFFFFFFFFFFFFF AND DUP2 MSTORE PUSH1 0x20 ADD PUSH1 0x3 DUP3 ADD SLOAD DUP2 MSTORE PUSH1 0x20 ADD PUSH1 0x4 DUP3 ADD SLOAD DUP2 MSTORE PUSH1 0x20 ADD PUSH1 0x5 DUP3 ADD SLOAD DUP2 MSTORE PUSH1 0x20 ADD PUSH1 0x6 DUP3 ADD SLOAD DUP2 MSTORE PUSH1 0x20 ADD PUSH1 0x7 DUP3 ADD SLOAD DUP2 MSTORE PUSH1 0x20 ADD PUSH1 0x8 DUP3 ADD SLOAD DUP2 MSTORE PUSH1 0x20 ADD PUSH1 0x9 DUP3 ADD PUSH1 0x0 SWAP1 SLOAD SWAP1 PUSH2 0x100 EXP SWAP1 DIV PUSH20 0xFFFFFFFFFFFFFFFFFFFFFFFFFFFFFFFFFFFFFFFF AND PUSH20 0xFFFFFFFFFFFFFFFFFFFFFFFFFFFFFFFFFFFFFFFF AND PUSH20 0xFFFFFFFFFFFFFFFFFFFFFFFFFFFFFFFFFFFFFFFF AND DUP2 MSTORE PUSH1 0x20 ADD PUSH1 0x9 DUP3 ADD PUSH1 0x14 SWAP1 SLOAD SWAP1 PUSH2 0x100 EXP SWAP1 DIV PUSH1 0xFF AND PUSH1 0xFF AND PUSH1 0xFF AND DUP2 MSTORE PUSH1 0x20 ADD PUSH1 0x9 DUP3 ADD PUSH1 0x15 SWAP1 SLOAD SWAP1 PUSH2 0x100 EXP SWAP1 DIV PUSH1 0xFF AND PUSH1 0x5 DUP2 GT ISZERO PUSH2 0x1A7F JUMPI PUSH2 0x1A7E PUSH2 0x3B57 JUMP JUMPDEST JUMPDEST PUSH1 0x5 DUP2 GT ISZERO PUSH2 0x1A91 JUMPI PUSH2 0x1A90 PUSH2 0x3B57 JUMP JUMPDEST JUMPDEST DUP2 MSTORE POP POP DUP2 MSTORE PUSH1 0x20 ADD SWAP1 PUSH1 0x1 ADD SWAP1 PUSH2 0x180D JUMP JUMPDEST POP POP POP POP SWAP1 POP SWAP1 JUMP JUMPDEST PUSH1 0x6 PUSH1 0x0 SWAP1 SLOAD SWAP1 PUSH2 0x100 EXP SWAP1 DIV PUSH20 0xFFFFFFFFFFFFFFFFFFFFFFFFFFFFFFFFFFFFFFFF AND PUSH20 0xFFFFFFFFFFFFFFFFFFFFFFFFFFFFFFFFFFFFFFFF AND CALLER PUSH20 0xFFFFFFFFFFFFFFFFFFFFFFFFFFFFFFFFFFFFFFFF AND EQ PUSH2 0x1B3D JUMPI PUSH1 0x40 MLOAD PUSH32 0x8C379A000000000000000000000000000000000000000000000000000000000 DUP2 MSTORE PUSH1 0x4 ADD PUSH2 0x1B34 SWAP1 PUSH2 0x566E JUMP JUMPDEST PUSH1 0x40 MLOAD DUP1 SWAP2 SUB SWAP1 REVERT JUMPDEST PUSH1 0x1 PUSH1 0x5 DUP2 GT ISZERO PUSH2 0x1B51 JUMPI PUSH2 0x1B50 PUSH2 0x3B57 JUMP JUMPDEST JUMPDEST PUSH1 0x0 DUP4 DUP4 PUSH1 0x40 MLOAD PUSH2 0x1B63 SWAP3 SWAP2 SWAP1 PUSH2 0x4554 JUMP JUMPDEST SWAP1 DUP2 MSTORE PUSH1 0x20 ADD PUSH1 0x40 MLOAD DUP1 SWAP2 SUB SWAP1 KECCAK256 PUSH1 0x9 ADD PUSH1 0x15 SWAP1 SLOAD SWAP1 PUSH2 0x100 EXP SWAP1 DIV PUSH1 0xFF AND PUSH1 0x5 DUP2 GT ISZERO PUSH2 0x1B94 JUMPI PUSH2 0x1B93 PUSH2 0x3B57 JUMP JUMPDEST JUMPDEST EQ PUSH2 0x1BD4 JUMPI PUSH1 0x40 MLOAD PUSH32 0x8C379A000000000000000000000000000000000000000000000000000000000 DUP2 MSTORE PUSH1 0x4 ADD PUSH2 0x1BCB SWAP1 PUSH2 0x4965 JUMP JUMPDEST PUSH1 0x40 MLOAD DUP1 SWAP2 SUB SWAP1 REVERT JUMPDEST PUSH1 0x2 PUSH1 0x0 DUP4 DUP4 PUSH1 0x40 MLOAD PUSH2 0x1BE8 SWAP3 SWAP2 SWAP1 PUSH2 0x4554 JUMP JUMPDEST SWAP1 DUP2 MSTORE PUSH1 0x20 ADD PUSH1 0x40 MLOAD DUP1 SWAP2 SUB SWAP1 KECCAK256 PUSH1 0x9 ADD PUSH1 0x15 PUSH2 0x100 EXP DUP2 SLOAD DUP2 PUSH1 0xFF MUL NOT AND SWAP1 DUP4 PUSH1 0x5 DUP2 GT ISZERO PUSH2 0x1C1B JUMPI PUSH2 0x1C1A PUSH2 0x3B57 JUMP JUMPDEST JUMPDEST MUL OR SWAP1 SSTORE POP PUSH1 0x2 PUSH1 0xD PUSH1 0x0 DUP5 DUP5 PUSH1 0x40 MLOAD PUSH2 0x1C36 SWAP3 SWAP2 SWAP1 PUSH2 0x4554 JUMP JUMPDEST SWAP1 DUP2 MSTORE PUSH1 0x20 ADD PUSH1 0x40 MLOAD DUP1 SWAP2 SUB SWAP1 KECCAK256 PUSH1 0x8 ADD SLOAD DUP2 SLOAD DUP2 LT PUSH2 0x1C59 JUMPI PUSH2 0x1C58 PUSH2 0x472F JUMP JUMPDEST JUMPDEST SWAP1 PUSH1 0x0 MSTORE PUSH1 0x20 PUSH1 0x0 KECCAK256 SWAP1 PUSH1 0xA MUL ADD PUSH1 0x9 ADD PUSH1 0x15 PUSH2 0x100 EXP DUP2 SLOAD DUP2 PUSH1 0xFF MUL NOT AND SWAP1 DUP4 PUSH1 0x5 DUP2 GT ISZERO PUSH2 0x1C8C JUMPI PUSH2 0x1C8B PUSH2 0x3B57 JUMP JUMPDEST JUMPDEST MUL OR SWAP1 SSTORE POP PUSH32 0x39501081328FFE3EB02459AD6F6E90B69E23BA1422B574EE84C1F52B2FC0310 DUP3 DUP3 PUSH1 0x40 MLOAD PUSH2 0x1CC2 SWAP3 SWAP2 SWAP1 PUSH2 0x459A JUMP JUMPDEST PUSH1 0x40 MLOAD DUP1 SWAP2 SUB SWAP1 LOG1 POP POP JUMP JUMPDEST PUSH1 0x2 DUP3 DUP1 MLOAD PUSH1 0x20 DUP2 ADD DUP3 ADD DUP1 MLOAD DUP5 DUP3 MSTORE PUSH1 0x20 DUP4 ADD PUSH1 0x20 DUP6 ADD KECCAK256 DUP2 DUP4 MSTORE DUP1 SWAP6 POP POP POP POP POP POP DUP2 DUP2 SLOAD DUP2 LT PUSH2 0x1D00 JUMPI PUSH1 0x0 DUP1 REVERT JUMPDEST SWAP1 PUSH1 0x0 MSTORE PUSH1 0x20 PUSH1 0x0 KECCAK256 SWAP1 PUSH1 0x2 MUL ADD PUSH1 0x0 SWAP2 POP SWAP2 POP POP DUP1 PUSH1 0x0 ADD PUSH1 0x0 SWAP1 SLOAD SWAP1 PUSH2 0x100 EXP SWAP1 DIV PUSH20 0xFFFFFFFFFFFFFFFFFFFFFFFFFFFFFFFFFFFFFFFF AND SWAP1 DUP1 PUSH1 0x1 ADD SLOAD SWAP1 POP DUP3 JUMP JUMPDEST PUSH1 0x5 PUSH1 0x20 MSTORE DUP2 PUSH1 0x0 MSTORE PUSH1 0x40 PUSH1 0x0 KECCAK256 DUP2 DUP2 SLOAD DUP2 LT PUSH2 0x1D61 JUMPI PUSH1 0x0 DUP1 REVERT JUMPDEST SWAP1 PUSH1 0x0 MSTORE PUSH1 0x20 PUSH1 0x0 KECCAK256 SWAP1 PUSH1 0xA MUL ADD PUSH1 0x0 SWAP2 POP SWAP2 POP POP DUP1 PUSH1 0x0 ADD DUP1 SLOAD PUSH2 0x1D85 SWAP1 PUSH2 0x4A31 JUMP JUMPDEST DUP1 PUSH1 0x1F ADD PUSH1 0x20 DUP1 SWAP2 DIV MUL PUSH1 0x20 ADD PUSH1 0x40 MLOAD SWAP1 DUP2 ADD PUSH1 0x40 MSTORE DUP1 SWAP3 SWAP2 SWAP1 DUP2 DUP2 MSTORE PUSH1 0x20 ADD DUP3 DUP1 SLOAD PUSH2 0x1DB1 SWAP1 PUSH2 0x4A31 JUMP JUMPDEST DUP1 ISZERO PUSH2 0x1DFE JUMPI DUP1 PUSH1 0x1F LT PUSH2 0x1DD3 JUMPI PUSH2 0x100 DUP1 DUP4 SLOAD DIV MUL DUP4 MSTORE SWAP2 PUSH1 0x20 ADD SWAP2 PUSH2 0x1DFE JUMP JUMPDEST DUP3 ADD SWAP2 SWAP1 PUSH1 0x0 MSTORE PUSH1 0x20 PUSH1 0x0 KECCAK256 SWAP1 JUMPDEST DUP2 SLOAD DUP2 MSTORE SWAP1 PUSH1 0x1 ADD SWAP1 PUSH1 0x20 ADD DUP1 DUP4 GT PUSH2 0x1DE1 JUMPI DUP3 SWAP1 SUB PUSH1 0x1F AND DUP3 ADD SWAP2 JUMPDEST POP POP POP POP POP SWAP1 DUP1 PUSH1 0x1 ADD DUP1 SLOAD PUSH2 0x1E13 SWAP1 PUSH2 0x4A31 JUMP JUMPDEST DUP1 PUSH1 0x1F ADD PUSH1 0x20 DUP1 SWAP2 DIV MUL PUSH1 0x20 ADD PUSH1 0x40 MLOAD SWAP1 DUP2 ADD PUSH1 0x40 MSTORE DUP1 SWAP3 SWAP2 SWAP1 DUP2 DUP2 MSTORE PUSH1 0x20 ADD DUP3 DUP1 SLOAD PUSH2 0x1E3F SWAP1 PUSH2 0x4A31 JUMP JUMPDEST DUP1 ISZERO PUSH2 0x1E8C JUMPI DUP1 PUSH1 0x1F LT PUSH2 0x1E61 JUMPI PUSH2 0x100 DUP1 DUP4 SLOAD DIV MUL DUP4 MSTORE SWAP2 PUSH1 0x20 ADD SWAP2 PUSH2 0x1E8C JUMP JUMPDEST DUP3 ADD SWAP2 SWAP1 PUSH1 0x0 MSTORE PUSH1 0x20 PUSH1 0x0 KECCAK256 SWAP1 JUMPDEST DUP2 SLOAD DUP2 MSTORE SWAP1 PUSH1 0x1 ADD SWAP1 PUSH1 0x20 ADD DUP1 DUP4 GT PUSH2 0x1E6F JUMPI DUP3 SWAP1 SUB PUSH1 0x1F AND DUP3 ADD SWAP2 JUMPDEST POP POP POP POP POP SWAP1 DUP1 PUSH1 0x2 ADD PUSH1 0x0 SWAP1 SLOAD SWAP1 PUSH2 0x100 EXP SWAP1 DIV PUSH20 0xFFFFFFFFFFFFFFFFFFFFFFFFFFFFFFFFFFFFFFFF AND SWAP1 DUP1 PUSH1 0x3 ADD SLOAD SWAP1 DUP1 PUSH1 0x4 ADD SLOAD SWAP1 DUP1 PUSH1 0x5 ADD SLOAD SWAP1 DUP1 PUSH1 0x6 ADD SLOAD SWAP1 DUP1 PUSH1 0x7 ADD SLOAD SWAP1 DUP1 PUSH1 0x8 ADD SLOAD SWAP1 DUP1 PUSH1 0x9 ADD PUSH1 0x0 SWAP1 SLOAD SWAP1 PUSH2 0x100 EXP SWAP1 DIV PUSH20 0xFFFFFFFFFFFFFFFFFFFFFFFFFFFFFFFFFFFFFFFF AND SWAP1 DUP1 PUSH1 0x9 ADD PUSH1 0x14 SWAP1 SLOAD SWAP1 PUSH2 0x100 EXP SWAP1 DIV PUSH1 0xFF AND SWAP1 DUP1 PUSH1 0x9 ADD PUSH1 0x15 SWAP1 SLOAD SWAP1 PUSH2 0x100 EXP SWAP1 DIV PUSH1 0xFF AND SWAP1 POP DUP13 JUMP JUMPDEST PUSH1 0x6 PUSH1 0x0 SWAP1 SLOAD SWAP1 PUSH2 0x100 EXP SWAP1 DIV PUSH20 0xFFFFFFFFFFFFFFFFFFFFFFFFFFFFFFFFFFFFFFFF AND PUSH20 0xFFFFFFFFFFFFFFFFFFFFFFFFFFFFFFFFFFFFFFFF AND CALLER PUSH20 0xFFFFFFFFFFFFFFFFFFFFFFFFFFFFFFFFFFFFFFFF AND EQ PUSH2 0x1FBC JUMPI PUSH1 0x40 MLOAD PUSH32 0x8C379A000000000000000000000000000000000000000000000000000000000 DUP2 MSTORE PUSH1 0x4 ADD PUSH2 0x1FB3 SWAP1 PUSH2 0x566E JUMP JUMPDEST PUSH1 0x40 MLOAD DUP1 SWAP2 SUB SWAP1 REVERT JUMPDEST PUSH1 0x2 PUSH1 0x5 DUP2 GT ISZERO PUSH2 0x1FD0 JUMPI PUSH2 0x1FCF PUSH2 0x3B57 JUMP JUMPDEST JUMPDEST PUSH1 0x0 DUP6 DUP6 PUSH1 0x40 MLOAD PUSH2 0x1FE2 SWAP3 SWAP2 SWAP1 PUSH2 0x4554 JUMP JUMPDEST SWAP1 DUP2 MSTORE PUSH1 0x20 ADD PUSH1 0x40 MLOAD DUP1 SWAP2 SUB SWAP1 KECCAK256 PUSH1 0x9 ADD PUSH1 0x15 SWAP1 SLOAD SWAP1 PUSH2 0x100 EXP SWAP1 DIV PUSH1 0xFF AND PUSH1 0x5 DUP2 GT ISZERO PUSH2 0x2013 JUMPI PUSH2 0x2012 PUSH2 0x3B57 JUMP JUMPDEST JUMPDEST EQ PUSH2 0x2057 JUMPI DUP4 DUP4 PUSH1 0x40 MLOAD PUSH32 0xB716508400000000000000000000000000000000000000000000000000000000 DUP2 MSTORE PUSH1 0x4 ADD PUSH2 0x204E SWAP3 SWAP2 SWAP1 PUSH2 0x459A JUMP JUMPDEST PUSH1 0x40 MLOAD DUP1 SWAP2 SUB SWAP1 REVERT JUMPDEST DUP1 PUSH1 0x1 DUP6 DUP6 PUSH1 0x40 MLOAD PUSH2 0x206A SWAP3 SWAP2 SWAP1 PUSH2 0x4554 JUMP JUMPDEST SWAP1 DUP2 MSTORE PUSH1 0x20 ADD PUSH1 0x40 MLOAD DUP1 SWAP2 SUB SWAP1 KECCAK256 PUSH1 0x0 PUSH2 0x100 EXP DUP2 SLOAD DUP2 PUSH20 0xFFFFFFFFFFFFFFFFFFFFFFFFFFFFFFFFFFFFFFFF MUL NOT AND SWAP1 DUP4 PUSH20 0xFFFFFFFFFFFFFFFFFFFFFFFFFFFFFFFFFFFFFFFF AND MUL OR SWAP1 SSTORE POP PUSH1 0x4 PUSH1 0x5 DUP2 GT ISZERO PUSH2 0x20CA JUMPI PUSH2 0x20C9 PUSH2 0x3B57 JUMP JUMPDEST JUMPDEST PUSH1 0x0 DUP6 DUP6 PUSH1 0x40 MLOAD PUSH2 0x20DC SWAP3 SWAP2 SWAP1 PUSH2 0x4554 JUMP JUMPDEST SWAP1 DUP2 MSTORE PUSH1 0x20 ADD PUSH1 0x40 MLOAD DUP1 SWAP2 SUB SWAP1 KECCAK256 PUSH1 0x9 ADD PUSH1 0x15 SWAP1 SLOAD SWAP1 PUSH2 0x100 EXP SWAP1 DIV PUSH1 0xFF AND PUSH1 0x5 DUP2 GT ISZERO PUSH2 0x210D JUMPI PUSH2 0x210C PUSH2 0x3B57 JUMP JUMPDEST JUMPDEST POP POP PUSH1 0x4 PUSH1 0xD PUSH1 0x0 DUP7 DUP7 PUSH1 0x40 MLOAD PUSH2 0x2125 SWAP3 SWAP2 SWAP1 PUSH2 0x4554 JUMP JUMPDEST SWAP1 DUP2 MSTORE PUSH1 0x20 ADD PUSH1 0x40 MLOAD DUP1 SWAP2 SUB SWAP1 KECCAK256 PUSH1 0x8 ADD SLOAD DUP2 SLOAD DUP2 LT PUSH2 0x2148 JUMPI PUSH2 0x2147 PUSH2 0x472F JUMP JUMPDEST JUMPDEST SWAP1 PUSH1 0x0 MSTORE PUSH1 0x20 PUSH1 0x0 KECCAK256 SWAP1 PUSH1 0xA MUL ADD PUSH1 0x9 ADD PUSH1 0x15 PUSH2 0x100 EXP DUP2 SLOAD DUP2 PUSH1 0xFF MUL NOT AND SWAP1 DUP4 PUSH1 0x5 DUP2 GT ISZERO PUSH2 0x217B JUMPI PUSH2 0x217A PUSH2 0x3B57 JUMP JUMPDEST JUMPDEST MUL OR SWAP1 SSTORE POP PUSH1 0x5 PUSH1 0x0 DUP1 DUP7 DUP7 PUSH1 0x40 MLOAD PUSH2 0x2195 SWAP3 SWAP2 SWAP1 PUSH2 0x4554 JUMP JUMPDEST SWAP1 DUP2 MSTORE PUSH1 0x20 ADD PUSH1 0x40 MLOAD DUP1 SWAP2 SUB SWAP1 KECCAK256 PUSH1 0x2 ADD PUSH1 0x0 SWAP1 SLOAD SWAP1 PUSH2 0x100 EXP SWAP1 DIV PUSH20 0xFFFFFFFFFFFFFFFFFFFFFFFFFFFFFFFFFFFFFFFF AND PUSH20 0xFFFFFFFFFFFFFFFFFFFFFFFFFFFFFFFFFFFFFFFF AND PUSH20 0xFFFFFFFFFFFFFFFFFFFFFFFFFFFFFFFFFFFFFFFF AND DUP2 MSTORE PUSH1 0x20 ADD SWAP1 DUP2 MSTORE PUSH1 0x20 ADD PUSH1 0x0 KECCAK256 PUSH1 0x0 DUP6 DUP6 PUSH1 0x40 MLOAD PUSH2 0x2213 SWAP3 SWAP2 SWAP1 PUSH2 0x4554 JUMP JUMPDEST SWAP1 DUP2 MSTORE PUSH1 0x20 ADD PUSH1 0x40 MLOAD DUP1 SWAP2 SUB SWAP1 KECCAK256 SWAP1 DUP1 PUSH1 0x1 DUP2 SLOAD ADD DUP1 DUP3 SSTORE DUP1 SWAP2 POP POP PUSH1 0x1 SWAP1 SUB SWAP1 PUSH1 0x0 MSTORE PUSH1 0x20 PUSH1 0x0 KECCAK256 SWAP1 PUSH1 0xA MUL ADD PUSH1 0x0 SWAP1 SWAP2 SWAP1 SWAP2 SWAP1 SWAP2 POP PUSH1 0x0 DUP3 ADD DUP2 PUSH1 0x0 ADD SWAP1 DUP2 PUSH2 0x225E SWAP2 SWAP1 PUSH2 0x5157 JUMP JUMPDEST POP PUSH1 0x1 DUP3 ADD DUP2 PUSH1 0x1 ADD SWAP1 DUP2 PUSH2 0x2273 SWAP2 SWAP1 PUSH2 0x5157 JUMP JUMPDEST POP PUSH1 0x2 DUP3 ADD PUSH1 0x0 SWAP1 SLOAD SWAP1 PUSH2 0x100 EXP SWAP1 DIV PUSH20 0xFFFFFFFFFFFFFFFFFFFFFFFFFFFFFFFFFFFFFFFF AND DUP2 PUSH1 0x2 ADD PUSH1 0x0 PUSH2 0x100 EXP DUP2 SLOAD DUP2 PUSH20 0xFFFFFFFFFFFFFFFFFFFFFFFFFFFFFFFFFFFFFFFF MUL NOT AND SWAP1 DUP4 PUSH20 0xFFFFFFFFFFFFFFFFFFFFFFFFFFFFFFFFFFFFFFFF AND MUL OR SWAP1 SSTORE POP PUSH1 0x3 DUP3 ADD SLOAD DUP2 PUSH1 0x3 ADD SSTORE PUSH1 0x4 DUP3 ADD SLOAD DUP2 PUSH1 0x4 ADD SSTORE PUSH1 0x5 DUP3 ADD SLOAD DUP2 PUSH1 0x5 ADD SSTORE PUSH1 0x6 DUP3 ADD SLOAD DUP2 PUSH1 0x6 ADD SSTORE PUSH1 0x7 DUP3 ADD SLOAD DUP2 PUSH1 0x7 ADD SSTORE PUSH1 0x8 DUP3 ADD SLOAD DUP2 PUSH1 0x8 ADD SSTORE PUSH1 0x9 DUP3 ADD PUSH1 0x0 SWAP1 SLOAD SWAP1 PUSH2 0x100 EXP SWAP1 DIV PUSH20 0xFFFFFFFFFFFFFFFFFFFFFFFFFFFFFFFFFFFFFFFF AND DUP2 PUSH1 0x9 ADD PUSH1 0x0 PUSH2 0x100 EXP DUP2 SLOAD DUP2 PUSH20 0xFFFFFFFFFFFFFFFFFFFFFFFFFFFFFFFFFFFFFFFF MUL NOT AND SWAP1 DUP4 PUSH20 0xFFFFFFFFFFFFFFFFFFFFFFFFFFFFFFFFFFFFFFFF AND MUL OR SWAP1 SSTORE POP PUSH1 0x9 DUP3 ADD PUSH1 0x14 SWAP1 SLOAD SWAP1 PUSH2 0x100 EXP SWAP1 DIV PUSH1 0xFF AND DUP2 PUSH1 0x9 ADD PUSH1 0x14 PUSH2 0x100 EXP DUP2 SLOAD DUP2 PUSH1 0xFF MUL NOT AND SWAP1 DUP4 PUSH1 0xFF AND MUL OR SWAP1 SSTORE POP PUSH1 0x9 DUP3 ADD PUSH1 0x15 SWAP1 SLOAD SWAP1 PUSH2 0x100 EXP SWAP1 DIV PUSH1 0xFF AND DUP2 PUSH1 0x9 ADD PUSH1 0x15 PUSH2 0x100 EXP DUP2 SLOAD DUP2 PUSH1 0xFF MUL NOT AND SWAP1 DUP4 PUSH1 0x5 DUP2 GT ISZERO PUSH2 0x23E4 JUMPI PUSH2 0x23E3 PUSH2 0x3B57 JUMP JUMPDEST JUMPDEST MUL OR SWAP1 SSTORE POP POP POP PUSH1 0xE DUP5 DUP5 SWAP1 SWAP2 DUP1 PUSH1 0x1 DUP2 SLOAD ADD DUP1 DUP3 SSTORE DUP1 SWAP2 POP POP PUSH1 0x1 SWAP1 SUB SWAP1 PUSH1 0x0 MSTORE PUSH1 0x20 PUSH1 0x0 KECCAK256 ADD PUSH1 0x0 SWAP1 SWAP2 SWAP3 SWAP1 SWAP2 SWAP3 SWAP1 SWAP2 SWAP3 SWAP1 SWAP2 SWAP3 POP SWAP2 DUP3 PUSH2 0x2428 SWAP3 SWAP2 SWAP1 PUSH2 0x4C0E JUMP JUMPDEST POP DUP1 PUSH20 0xFFFFFFFFFFFFFFFFFFFFFFFFFFFFFFFFFFFFFFFF AND PUSH4 0xD76805AA DUP4 PUSH1 0x40 MLOAD DUP3 PUSH4 0xFFFFFFFF AND PUSH1 0xE0 SHL DUP2 MSTORE PUSH1 0x4 ADD PUSH2 0x2462 SWAP2 SWAP1 PUSH2 0x57E9 JUMP JUMPDEST PUSH1 0x0 PUSH1 0x40 MLOAD DUP1 DUP4 SUB DUP2 PUSH1 0x0 DUP8 DUP1 EXTCODESIZE ISZERO DUP1 ISZERO PUSH2 0x247C JUMPI PUSH1 0x0 DUP1 REVERT JUMPDEST POP GAS CALL ISZERO DUP1 ISZERO PUSH2 0x2490 JUMPI RETURNDATASIZE PUSH1 0x0 DUP1 RETURNDATACOPY RETURNDATASIZE PUSH1 0x0 REVERT JUMPDEST POP POP POP POP PUSH1 0xC DUP3 SWAP1 DUP1 PUSH1 0x1 DUP2 SLOAD ADD DUP1 DUP3 SSTORE DUP1 SWAP2 POP POP PUSH1 0x1 SWAP1 SUB SWAP1 PUSH1 0x0 MSTORE PUSH1 0x20 PUSH1 0x0 KECCAK256 SWAP1 PUSH1 0xB MUL ADD PUSH1 0x0 SWAP1 SWAP2 SWAP1 SWAP2 SWAP1 SWAP2 POP DUP2 DUP2 PUSH2 0x24CC SWAP2 SWAP1 PUSH2 0x59C3 JUMP JUMPDEST POP POP PUSH32 0x44B55C2D9270546FAF6FF2F0ACAC078011883B82782D9B08DE2D3AF4543C2B18 DUP5 DUP5 PUSH1 0x40 MLOAD PUSH2 0x24FF SWAP3 SWAP2 SWAP1 PUSH2 0x459A JUMP JUMPDEST PUSH1 0x40 MLOAD DUP1 SWAP2 SUB SWAP1 LOG1 POP POP POP POP JUMP JUMPDEST PUSH1 0x9 PUSH1 0x0 SWAP1 SLOAD SWAP1 PUSH2 0x100 EXP SWAP1 DIV PUSH20 0xFFFFFFFFFFFFFFFFFFFFFFFFFFFFFFFFFFFFFFFF AND DUP2 JUMP JUMPDEST PUSH1 0x3 DUP2 DUP1 MLOAD PUSH1 0x20 DUP2 ADD DUP3 ADD DUP1 MLOAD DUP5 DUP3 MSTORE PUSH1 0x20 DUP4 ADD PUSH1 0x20 DUP6 ADD KECCAK256 DUP2 DUP4 MSTORE DUP1 SWAP6 POP POP POP POP POP POP PUSH1 0x0 SWAP2 POP SWAP1 POP SLOAD DUP2 JUMP JUMPDEST PUSH1 0x0 PUSH1 0x3 DUP4 DUP4 PUSH1 0x40 MLOAD PUSH2 0x2575 SWAP3 SWAP2 SWAP1 PUSH2 0x4554 JUMP JUMPDEST SWAP1 DUP2 MSTORE PUSH1 0x20 ADD PUSH1 0x40 MLOAD DUP1 SWAP2 SUB SWAP1 KECCAK256 SLOAD SWAP1 POP SWAP3 SWAP2 POP POP JUMP JUMPDEST PUSH1 0x6 PUSH1 0x0 SWAP1 SLOAD SWAP1 PUSH2 0x100 EXP SWAP1 DIV PUSH20 0xFFFFFFFFFFFFFFFFFFFFFFFFFFFFFFFFFFFFFFFF AND PUSH20 0xFFFFFFFFFFFFFFFFFFFFFFFFFFFFFFFFFFFFFFFF AND CALLER PUSH20 0xFFFFFFFFFFFFFFFFFFFFFFFFFFFFFFFFFFFFFFFF AND EQ PUSH2 0x261C JUMPI PUSH1 0x40 MLOAD PUSH32 0x8C379A000000000000000000000000000000000000000000000000000000000 DUP2 MSTORE PUSH1 0x4 ADD PUSH2 0x2613 SWAP1 PUSH2 0x566E JUMP JUMPDEST PUSH1 0x40 MLOAD DUP1 SWAP2 SUB SWAP1 REVERT JUMPDEST PUSH1 0x1 PUSH1 0x5 DUP2 GT ISZERO PUSH2 0x2630 JUMPI PUSH2 0x262F PUSH2 0x3B57 JUMP JUMPDEST JUMPDEST PUSH1 0x0 DUP4 DUP4 PUSH1 0x40 MLOAD PUSH2 0x2642 SWAP3 SWAP2 SWAP1 PUSH2 0x4554 JUMP JUMPDEST SWAP1 DUP2 MSTORE PUSH1 0x20 ADD PUSH1 0x40 MLOAD DUP1 SWAP2 SUB SWAP1 KECCAK256 PUSH1 0x9 ADD PUSH1 0x15 SWAP1 SLOAD SWAP1 PUSH2 0x100 EXP SWAP1 DIV PUSH1 0xFF AND PUSH1 0x5 DUP2 GT ISZERO PUSH2 0x2673 JUMPI PUSH2 0x2672 PUSH2 0x3B57 JUMP JUMPDEST JUMPDEST EQ PUSH2 0x26B3 JUMPI PUSH1 0x40 MLOAD PUSH32 0x8C379A000000000000000000000000000000000000000000000000000000000 DUP2 MSTORE PUSH1 0x4 ADD PUSH2 0x26AA SWAP1 PUSH2 0x4965 JUMP JUMPDEST PUSH1 0x40 MLOAD DUP1 SWAP2 SUB SWAP1 REVERT JUMPDEST PUSH1 0x3 PUSH1 0x0 DUP4 DUP4 PUSH1 0x40 MLOAD PUSH2 0x26C7 SWAP3 SWAP2 SWAP1 PUSH2 0x4554 JUMP JUMPDEST SWAP1 DUP2 MSTORE PUSH1 0x20 ADD PUSH1 0x40 MLOAD DUP1 SWAP2 SUB SWAP1 KECCAK256 PUSH1 0x9 ADD PUSH1 0x15 PUSH2 0x100 EXP DUP2 SLOAD DUP2 PUSH1 0xFF MUL NOT AND SWAP1 DUP4 PUSH1 0x5 DUP2 GT ISZERO PUSH2 0x26FA JUMPI PUSH2 0x26F9 PUSH2 0x3B57 JUMP JUMPDEST JUMPDEST MUL OR SWAP1 SSTORE POP PUSH1 0x3 PUSH1 0xD PUSH1 0x0 DUP5 DUP5 PUSH1 0x40 MLOAD PUSH2 0x2715 SWAP3 SWAP2 SWAP1 PUSH2 0x4554 JUMP JUMPDEST SWAP1 DUP2 MSTORE PUSH1 0x20 ADD PUSH1 0x40 MLOAD DUP1 SWAP2 SUB SWAP1 KECCAK256 PUSH1 0x8 ADD SLOAD DUP2 SLOAD DUP2 LT PUSH2 0x2738 JUMPI PUSH2 0x2737 PUSH2 0x472F JUMP JUMPDEST JUMPDEST SWAP1 PUSH1 0x0 MSTORE PUSH1 0x20 PUSH1 0x0 KECCAK256 SWAP1 PUSH1 0xA MUL ADD PUSH1 0x9 ADD PUSH1 0x15 PUSH2 0x100 EXP DUP2 SLOAD DUP2 PUSH1 0xFF MUL NOT AND SWAP1 DUP4 PUSH1 0x5 DUP2 GT ISZERO PUSH2 0x276B JUMPI PUSH2 0x276A PUSH2 0x3B57 JUMP JUMPDEST JUMPDEST MUL OR SWAP1 SSTORE POP PUSH32 0x735CCDD611541D36C82A3622BAAB7F58B8A0F5BE664555B0D9C95DDDE16096D3 DUP3 DUP3 PUSH1 0x40 MLOAD PUSH2 0x27A1 SWAP3 SWAP2 SWAP1 PUSH2 0x459A JUMP JUMPDEST PUSH1 0x40 MLOAD DUP1 SWAP2 SUB SWAP1 LOG1 POP POP JUMP JUMPDEST PUSH1 0x6 PUSH1 0x0 SWAP1 SLOAD SWAP1 PUSH2 0x100 EXP SWAP1 DIV PUSH20 0xFFFFFFFFFFFFFFFFFFFFFFFFFFFFFFFFFFFFFFFF AND PUSH20 0xFFFFFFFFFFFFFFFFFFFFFFFFFFFFFFFFFFFFFFFF AND CALLER PUSH20 0xFFFFFFFFFFFFFFFFFFFFFFFFFFFFFFFFFFFFFFFF AND EQ PUSH2 0x283D JUMPI PUSH1 0x40 MLOAD PUSH32 0x8C379A000000000000000000000000000000000000000000000000000000000 DUP2 MSTORE PUSH1 0x4 ADD PUSH2 0x2834 SWAP1 PUSH2 0x566E JUMP JUMPDEST PUSH1 0x40 MLOAD DUP1 SWAP2 SUB SWAP1 REVERT JUMPDEST PUSH1 0x0 PUSH20 0xFFFFFFFFFFFFFFFFFFFFFFFFFFFFFFFFFFFFFFFF AND DUP2 PUSH20 0xFFFFFFFFFFFFFFFFFFFFFFFFFFFFFFFFFFFFFFFF AND SUB PUSH2 0x28AC JUMPI PUSH1 0x40 MLOAD PUSH32 0x8C379A000000000000000000000000000000000000000000000000000000000 DUP2 MSTORE PUSH1 0x4 ADD PUSH2 0x28A3 SWAP1 PUSH2 0x5A1D JUMP JUMPDEST PUSH1 0x40 MLOAD DUP1 SWAP2 SUB SWAP1 REVERT JUMPDEST DUP1 PUSH1 0xA PUSH1 0x0 PUSH2 0x100 EXP DUP2 SLOAD DUP2 PUSH20 0xFFFFFFFFFFFFFFFFFFFFFFFFFFFFFFFFFFFFFFFF MUL NOT AND SWAP1 DUP4 PUSH20 0xFFFFFFFFFFFFFFFFFFFFFFFFFFFFFFFFFFFFFFFF AND MUL OR SWAP1 SSTORE POP POP JUMP JUMPDEST PUSH1 0x6 PUSH1 0x0 SWAP1 SLOAD SWAP1 PUSH2 0x100 EXP SWAP1 DIV PUSH20 0xFFFFFFFFFFFFFFFFFFFFFFFFFFFFFFFFFFFFFFFF AND DUP2 JUMP JUMPDEST PUSH1 0x0 DUP2 DUP1 MLOAD PUSH1 0x20 DUP2 ADD DUP3 ADD DUP1 MLOAD DUP5 DUP3 MSTORE PUSH1 0x20 DUP4 ADD PUSH1 0x20 DUP6 ADD KECCAK256 DUP2 DUP4 MSTORE DUP1 SWAP6 POP POP POP POP POP POP PUSH1 0x0 SWAP2 POP SWAP1 POP DUP1 PUSH1 0x0 ADD DUP1 SLOAD PUSH2 0x294F SWAP1 PUSH2 0x4A31 JUMP JUMPDEST DUP1 PUSH1 0x1F ADD PUSH1 0x20 DUP1 SWAP2 DIV MUL PUSH1 0x20 ADD PUSH1 0x40 MLOAD SWAP1 DUP2 ADD PUSH1 0x40 MSTORE DUP1 SWAP3 SWAP2 SWAP1 DUP2 DUP2 MSTORE PUSH1 0x20 ADD DUP3 DUP1 SLOAD PUSH2 0x297B SWAP1 PUSH2 0x4A31 JUMP JUMPDEST DUP1 ISZERO PUSH2 0x29C8 JUMPI DUP1 PUSH1 0x1F LT PUSH2 0x299D JUMPI PUSH2 0x100 DUP1 DUP4 SLOAD DIV MUL DUP4 MSTORE SWAP2 PUSH1 0x20 ADD SWAP2 PUSH2 0x29C8 JUMP JUMPDEST DUP3 ADD SWAP2 SWAP1 PUSH1 0x0 MSTORE PUSH1 0x20 PUSH1 0x0 KECCAK256 SWAP1 JUMPDEST DUP2 SLOAD DUP2 MSTORE SWAP1 PUSH1 0x1 ADD SWAP1 PUSH1 0x20 ADD DUP1 DUP4 GT PUSH2 0x29AB JUMPI DUP3 SWAP1 SUB PUSH1 0x1F AND DUP3 ADD SWAP2 JUMPDEST POP POP POP POP POP SWAP1 DUP1 PUSH1 0x1 ADD DUP1 SLOAD PUSH2 0x29DD SWAP1 PUSH2 0x4A31 JUMP JUMPDEST DUP1 PUSH1 0x1F ADD PUSH1 0x20 DUP1 SWAP2 DIV MUL PUSH1 0x20 ADD PUSH1 0x40 MLOAD SWAP1 DUP2 ADD PUSH1 0x40 MSTORE DUP1 SWAP3 SWAP2 SWAP1 DUP2 DUP2 MSTORE PUSH1 0x20 ADD DUP3 DUP1 SLOAD PUSH2 0x2A09 SWAP1 PUSH2 0x4A31 JUMP JUMPDEST DUP1 ISZERO PUSH2 0x2A56 JUMPI DUP1 PUSH1 0x1F LT PUSH2 0x2A2B JUMPI PUSH2 0x100 DUP1 DUP4 SLOAD DIV MUL DUP4 MSTORE SWAP2 PUSH1 0x20 ADD SWAP2 PUSH2 0x2A56 JUMP JUMPDEST DUP3 ADD SWAP2 SWAP1 PUSH1 0x0 MSTORE PUSH1 0x20 PUSH1 0x0 KECCAK256 SWAP1 JUMPDEST DUP2 SLOAD DUP2 MSTORE SWAP1 PUSH1 0x1 ADD SWAP1 PUSH1 0x20 ADD DUP1 DUP4 GT PUSH2 0x2A39 JUMPI DUP3 SWAP1 SUB PUSH1 0x1F AND DUP3 ADD SWAP2 JUMPDEST POP POP POP POP POP SWAP1 DUP1 PUSH1 0x2 ADD PUSH1 0x0 SWAP1 SLOAD SWAP1 PUSH2 0x100 EXP SWAP1 DIV PUSH20 0xFFFFFFFFFFFFFFFFFFFFFFFFFFFFFFFFFFFFFFFF AND SWAP1 DUP1 PUSH1 0x3 ADD SLOAD SWAP1 DUP1 PUSH1 0x4 ADD SLOAD SWAP1 DUP1 PUSH1 0x5 ADD SLOAD SWAP1 DUP1 PUSH1 0x6 ADD SLOAD SWAP1 DUP1 PUSH1 0x7 ADD SLOAD SWAP1 DUP1 PUSH1 0x8 ADD SLOAD SWAP1 DUP1 PUSH1 0x9 ADD PUSH1 0x0 SWAP1 SLOAD SWAP1 PUSH2 0x100 EXP SWAP1 DIV PUSH20 0xFFFFFFFFFFFFFFFFFFFFFFFFFFFFFFFFFFFFFFFF AND SWAP1 DUP1 PUSH1 0x9 ADD PUSH1 0x14 SWAP1 SLOAD SWAP1 PUSH2 0x100 EXP SWAP1 DIV PUSH1 0xFF AND SWAP1 DUP1 PUSH1 0x9 ADD PUSH1 0x15 SWAP1 SLOAD SWAP1 PUSH2 0x100 EXP SWAP1 DIV PUSH1 0xFF AND SWAP1 POP DUP13 JUMP JUMPDEST PUSH1 0xB SLOAD DUP2 JUMP JUMPDEST PUSH1 0x0 DUP1 PUSH1 0x0 DUP1 PUSH1 0x0 PUSH1 0x6 PUSH1 0x0 SWAP1 SLOAD SWAP1 PUSH2 0x100 EXP SWAP1 DIV PUSH20 0xFFFFFFFFFFFFFFFFFFFFFFFFFFFFFFFFFFFFFFFF AND PUSH1 0x7 PUSH1 0x0 SWAP1 SLOAD SWAP1 PUSH2 0x100 EXP SWAP1 DIV PUSH20 0xFFFFFFFFFFFFFFFFFFFFFFFFFFFFFFFFFFFFFFFF AND PUSH1 0x8 PUSH1 0x0 SWAP1 SLOAD SWAP1 PUSH2 0x100 EXP SWAP1 DIV PUSH20 0xFFFFFFFFFFFFFFFFFFFFFFFFFFFFFFFFFFFFFFFF AND PUSH1 0x9 PUSH1 0x0 SWAP1 SLOAD SWAP1 PUSH2 0x100 EXP SWAP1 DIV PUSH20 0xFFFFFFFFFFFFFFFFFFFFFFFFFFFFFFFFFFFFFFFF AND PUSH1 0xA PUSH1 0x0 SWAP1 SLOAD SWAP1 PUSH2 0x100 EXP SWAP1 DIV PUSH20 0xFFFFFFFFFFFFFFFFFFFFFFFFFFFFFFFFFFFFFFFF AND DUP1 SWAP6 POP DUP2 SWAP7 POP DUP3 SWAP8 POP DUP4 SWAP9 POP DUP5 SWAP10 POP POP POP POP POP POP SWAP1 SWAP2 SWAP3 SWAP4 SWAP5 JUMP JUMPDEST PUSH1 0x60 PUSH1 0x2 DUP4 DUP4 PUSH1 0x40 MLOAD PUSH2 0x2BE2 SWAP3 SWAP2 SWAP1 PUSH2 0x4554 JUMP JUMPDEST SWAP1 DUP2 MSTORE PUSH1 0x20 ADD PUSH1 0x40 MLOAD DUP1 SWAP2 SUB SWAP1 KECCAK256 DUP1 SLOAD DUP1 PUSH1 0x20 MUL PUSH1 0x20 ADD PUSH1 0x40 MLOAD SWAP1 DUP2 ADD PUSH1 0x40 MSTORE DUP1 SWAP3 SWAP2 SWAP1 DUP2 DUP2 MSTORE PUSH1 0x20 ADD PUSH1 0x0 SWAP1 JUMPDEST DUP3 DUP3 LT ISZERO PUSH2 0x2CA2 JUMPI DUP4 DUP3 SWAP1 PUSH1 0x0 MSTORE PUSH1 0x20 PUSH1 0x0 KECCAK256 SWAP1 PUSH1 0x2 MUL ADD PUSH1 0x40 MLOAD DUP1 PUSH1 0x40 ADD PUSH1 0x40 MSTORE SWAP1 DUP2 PUSH1 0x0 DUP3 ADD PUSH1 0x0 SWAP1 SLOAD SWAP1 PUSH2 0x100 EXP SWAP1 DIV PUSH20 0xFFFFFFFFFFFFFFFFFFFFFFFFFFFFFFFFFFFFFFFF AND PUSH20 0xFFFFFFFFFFFFFFFFFFFFFFFFFFFFFFFFFFFFFFFF AND PUSH20 0xFFFFFFFFFFFFFFFFFFFFFFFFFFFFFFFFFFFFFFFF AND DUP2 MSTORE PUSH1 0x20 ADD PUSH1 0x1 DUP3 ADD SLOAD DUP2 MSTORE POP POP DUP2 MSTORE PUSH1 0x20 ADD SWAP1 PUSH1 0x1 ADD SWAP1 PUSH2 0x2C10 JUMP JUMPDEST POP POP POP POP SWAP1 POP SWAP3 SWAP2 POP POP JUMP JUMPDEST PUSH1 0x7 PUSH1 0x0 SWAP1 SLOAD SWAP1 PUSH2 0x100 EXP SWAP1 DIV PUSH20 0xFFFFFFFFFFFFFFFFFFFFFFFFFFFFFFFFFFFFFFFF AND DUP2 JUMP JUMPDEST PUSH1 0x6 PUSH1 0x0 SWAP1 SLOAD SWAP1 PUSH2 0x100 EXP SWAP1 DIV PUSH20 0xFFFFFFFFFFFFFFFFFFFFFFFFFFFFFFFFFFFFFFFF AND PUSH20 0xFFFFFFFFFFFFFFFFFFFFFFFFFFFFFFFFFFFFFFFF AND CALLER PUSH20 0xFFFFFFFFFFFFFFFFFFFFFFFFFFFFFFFFFFFFFFFF AND EQ PUSH2 0x2D64 JUMPI PUSH1 0x40 MLOAD PUSH32 0x8C379A000000000000000000000000000000000000000000000000000000000 DUP2 MSTORE PUSH1 0x4 ADD PUSH2 0x2D5B SWAP1 PUSH2 0x566E JUMP JUMPDEST PUSH1 0x40 MLOAD DUP1 SWAP2 SUB SWAP1 REVERT JUMPDEST PUSH1 0x7 PUSH1 0x0 SWAP1 SLOAD SWAP1 PUSH2 0x100 EXP SWAP1 DIV PUSH20 0xFFFFFFFFFFFFFFFFFFFFFFFFFFFFFFFFFFFFFFFF AND PUSH20 0xFFFFFFFFFFFFFFFFFFFFFFFFFFFFFFFFFFFFFFFF AND PUSH4 0xCFDE1890 DUP3 PUSH1 0x40 MLOAD DUP3 PUSH4 0xFFFFFFFF AND PUSH1 0xE0 SHL DUP2 MSTORE PUSH1 0x4 ADD PUSH2 0x2DBF SWAP2 SWAP1 PUSH2 0x5A89 JUMP JUMPDEST PUSH1 0x0 PUSH1 0x40 MLOAD DUP1 DUP4 SUB DUP2 PUSH1 0x0 DUP8 DUP1 EXTCODESIZE ISZERO DUP1 ISZERO PUSH2 0x2DD9 JUMPI PUSH1 0x0 DUP1 REVERT JUMPDEST POP GAS CALL ISZERO DUP1 ISZERO PUSH2 0x2DED JUMPI RETURNDATASIZE PUSH1 0x0 DUP1 RETURNDATACOPY RETURNDATASIZE PUSH1 0x0 REVERT JUMPDEST POP POP POP POP POP JUMP JUMPDEST PUSH1 0x6 PUSH1 0x0 SWAP1 SLOAD SWAP1 PUSH2 0x100 EXP SWAP1 DIV PUSH20 0xFFFFFFFFFFFFFFFFFFFFFFFFFFFFFFFFFFFFFFFF AND PUSH20 0xFFFFFFFFFFFFFFFFFFFFFFFFFFFFFFFFFFFFFFFF AND CALLER PUSH20 0xFFFFFFFFFFFFFFFFFFFFFFFFFFFFFFFFFFFFFFFF AND EQ PUSH2 0x2E84 JUMPI PUSH1 0x40 MLOAD PUSH32 0x8C379A000000000000000000000000000000000000000000000000000000000 DUP2 MSTORE PUSH1 0x4 ADD PUSH2 0x2E7B SWAP1 PUSH2 0x566E JUMP JUMPDEST PUSH1 0x40 MLOAD DUP1 SWAP2 SUB SWAP1 REVERT JUMPDEST PUSH1 0x4 PUSH1 0x5 DUP2 GT ISZERO PUSH2 0x2E98 JUMPI PUSH2 0x2E97 PUSH2 0x3B57 JUMP JUMPDEST JUMPDEST PUSH1 0x0 DUP5 DUP5 PUSH1 0x40 MLOAD PUSH2 0x2EAA SWAP3 SWAP2 SWAP1 PUSH2 0x4554 JUMP JUMPDEST SWAP1 DUP2 MSTORE PUSH1 0x20 ADD PUSH1 0x40 MLOAD DUP1 SWAP2 SUB SWAP1 KECCAK256 PUSH1 0x9 ADD PUSH1 0x15 SWAP1 SLOAD SWAP1 PUSH2 0x100 EXP SWAP1 DIV PUSH1 0xFF AND PUSH1 0x5 DUP2 GT ISZERO PUSH2 0x2EDB JUMPI PUSH2 0x2EDA PUSH2 0x3B57 JUMP JUMPDEST JUMPDEST EQ PUSH2 0x2F1F JUMPI DUP3 DUP3 PUSH1 0x40 MLOAD PUSH32 0xB716508400000000000000000000000000000000000000000000000000000000 DUP2 MSTORE PUSH1 0x4 ADD PUSH2 0x2F16 SWAP3 SWAP2 SWAP1 PUSH2 0x459A JUMP JUMPDEST PUSH1 0x40 MLOAD DUP1 SWAP2 SUB SWAP1 REVERT JUMPDEST PUSH1 0x5 DUP1 DUP2 GT ISZERO PUSH2 0x2F32 JUMPI PUSH2 0x2F31 PUSH2 0x3B57 JUMP JUMPDEST JUMPDEST PUSH1 0x0 DUP5 DUP5 PUSH1 0x40 MLOAD PUSH2 0x2F44 SWAP3 SWAP2 SWAP1 PUSH2 0x4554 JUMP JUMPDEST SWAP1 DUP2 MSTORE PUSH1 0x20 ADD PUSH1 0x40 MLOAD DUP1 SWAP2 SUB SWAP1 KECCAK256 PUSH1 0x9 ADD PUSH1 0x15 SWAP1 SLOAD SWAP1 PUSH2 0x100 EXP SWAP1 DIV PUSH1 0xFF AND PUSH1 0x5 DUP2 GT ISZERO PUSH2 0x2F75 JUMPI PUSH2 0x2F74 PUSH2 0x3B57 JUMP JUMPDEST JUMPDEST POP POP PUSH1 0x5 PUSH1 0xD PUSH1 0x0 DUP6 DUP6 PUSH1 0x40 MLOAD PUSH2 0x2F8D SWAP3 SWAP2 SWAP1 PUSH2 0x4554 JUMP JUMPDEST SWAP1 DUP2 MSTORE PUSH1 0x20 ADD PUSH1 0x40 MLOAD DUP1 SWAP2 SUB SWAP1 KECCAK256 PUSH1 0x8 ADD SLOAD DUP2 SLOAD DUP2 LT PUSH2 0x2FB0 JUMPI PUSH2 0x2FAF PUSH2 0x472F JUMP JUMPDEST JUMPDEST SWAP1 PUSH1 0x0 MSTORE PUSH1 0x20 PUSH1 0x0 KECCAK256 SWAP1 PUSH1 0xA MUL ADD PUSH1 0x9 ADD PUSH1 0x15 PUSH2 0x100 EXP DUP2 SLOAD DUP2 PUSH1 0xFF MUL NOT AND SWAP1 DUP4 PUSH1 0x5 DUP2 GT ISZERO PUSH2 0x2FE3 JUMPI PUSH2 0x2FE2 PUSH2 0x3B57 JUMP JUMPDEST JUMPDEST MUL OR SWAP1 SSTORE POP PUSH1 0x5 DUP1 PUSH1 0x0 DUP1 DUP7 DUP7 PUSH1 0x40 MLOAD PUSH2 0x2FFE SWAP3 SWAP2 SWAP1 PUSH2 0x4554 JUMP JUMPDEST SWAP1 DUP2 MSTORE PUSH1 0x20 ADD PUSH1 0x40 MLOAD DUP1 SWAP2 SUB SWAP1 KECCAK256 PUSH1 0x2 ADD PUSH1 0x0 SWAP1 SLOAD SWAP1 PUSH2 0x100 EXP SWAP1 DIV PUSH20 0xFFFFFFFFFFFFFFFFFFFFFFFFFFFFFFFFFFFFFFFF AND PUSH20 0xFFFFFFFFFFFFFFFFFFFFFFFFFFFFFFFFFFFFFFFF AND PUSH20 0xFFFFFFFFFFFFFFFFFFFFFFFFFFFFFFFFFFFFFFFF AND DUP2 MSTORE PUSH1 0x20 ADD SWAP1 DUP2 MSTORE PUSH1 0x20 ADD PUSH1 0x0 KECCAK256 PUSH1 0x0 DUP6 DUP6 PUSH1 0x40 MLOAD PUSH2 0x307C SWAP3 SWAP2 SWAP1 PUSH2 0x4554 JUMP JUMPDEST SWAP1 DUP2 MSTORE PUSH1 0x20 ADD PUSH1 0x40 MLOAD DUP1 SWAP2 SUB SWAP1 KECCAK256 PUSH1 0x8 ADD SLOAD DUP2 SLOAD DUP2 LT PUSH2 0x309F JUMPI PUSH2 0x309E PUSH2 0x472F JUMP JUMPDEST JUMPDEST SWAP1 PUSH1 0x0 MSTORE PUSH1 0x20 PUSH1 0x0 KECCAK256 SWAP1 PUSH1 0xA MUL ADD PUSH1 0x9 ADD PUSH1 0x15 PUSH2 0x100 EXP DUP2 SLOAD DUP2 PUSH1 0xFF MUL NOT AND SWAP1 DUP4 PUSH1 0x5 DUP2 GT ISZERO PUSH2 0x30D2 JUMPI PUSH2 0x30D1 PUSH2 0x3B57 JUMP JUMPDEST JUMPDEST MUL OR SWAP1 SSTORE POP DUP1 PUSH20 0xFFFFFFFFFFFFFFFFFFFFFFFFFFFFFFFFFFFFFFFF AND PUSH4 0xBE040FB0 PUSH1 0x40 MLOAD DUP2 PUSH4 0xFFFFFFFF AND PUSH1 0xE0 SHL DUP2 MSTORE PUSH1 0x4 ADD PUSH1 0x0 PUSH1 0x40 MLOAD DUP1 DUP4 SUB DUP2 PUSH1 0x0 DUP8 DUP1 EXTCODESIZE ISZERO DUP1 ISZERO PUSH2 0x311F JUMPI PUSH1 0x0 DUP1 REVERT JUMPDEST POP GAS CALL ISZERO DUP1 ISZERO PUSH2 0x3133 JUMPI RETURNDATASIZE PUSH1 0x0 DUP1 RETURNDATACOPY RETURNDATASIZE PUSH1 0x0 REVERT JUMPDEST POP POP POP POP PUSH32 0xDFDF42FF0D0EB3E6EC5B40D8CF21FB2F7102B67E5E2D56AB36E817F807213C5B DUP4 DUP4 PUSH1 0x40 MLOAD PUSH2 0x3168 SWAP3 SWAP2 SWAP1 PUSH2 0x459A JUMP JUMPDEST PUSH1 0x40 MLOAD DUP1 SWAP2 SUB SWAP1 LOG1 POP POP POP JUMP JUMPDEST PUSH1 0x60 PUSH1 0xC DUP1 SLOAD DUP1 PUSH1 0x20 MUL PUSH1 0x20 ADD PUSH1 0x40 MLOAD SWAP1 DUP2 ADD PUSH1 0x40 MSTORE DUP1 SWAP3 SWAP2 SWAP1 DUP2 DUP2 MSTORE PUSH1 0x20 ADD PUSH1 0x0 SWAP1 JUMPDEST DUP3 DUP3 LT ISZERO PUSH2 0x3431 JUMPI DUP4 DUP3 SWAP1 PUSH1 0x0 MSTORE PUSH1 0x20 PUSH1 0x0 KECCAK256 SWAP1 PUSH1 0xB MUL ADD PUSH1 0x40 MLOAD DUP1 PUSH2 0x160 ADD PUSH1 0x40 MSTORE SWAP1 DUP2 PUSH1 0x0 DUP3 ADD DUP1 SLOAD PUSH2 0x31CD SWAP1 PUSH2 0x4A31 JUMP JUMPDEST DUP1 PUSH1 0x1F ADD PUSH1 0x20 DUP1 SWAP2 DIV MUL PUSH1 0x20 ADD PUSH1 0x40 MLOAD SWAP1 DUP2 ADD PUSH1 0x40 MSTORE DUP1 SWAP3 SWAP2 SWAP1 DUP2 DUP2 MSTORE PUSH1 0x20 ADD DUP3 DUP1 SLOAD PUSH2 0x31F9 SWAP1 PUSH2 0x4A31 JUMP JUMPDEST DUP1 ISZERO PUSH2 0x3246 JUMPI DUP1 PUSH1 0x1F LT PUSH2 0x321B JUMPI PUSH2 0x100 DUP1 DUP4 SLOAD DIV MUL DUP4 MSTORE SWAP2 PUSH1 0x20 ADD SWAP2 PUSH2 0x3246 JUMP JUMPDEST DUP3 ADD SWAP2 SWAP1 PUSH1 0x0 MSTORE PUSH1 0x20 PUSH1 0x0 KECCAK256 SWAP1 JUMPDEST DUP2 SLOAD DUP2 MSTORE SWAP1 PUSH1 0x1 ADD SWAP1 PUSH1 0x20 ADD DUP1 DUP4 GT PUSH2 0x3229 JUMPI DUP3 SWAP1 SUB PUSH1 0x1F AND DUP3 ADD SWAP2 JUMPDEST POP POP POP POP POP DUP2 MSTORE PUSH1 0x20 ADD PUSH1 0x1 DUP3 ADD DUP1 SLOAD PUSH2 0x325F SWAP1 PUSH2 0x4A31 JUMP JUMPDEST DUP1 PUSH1 0x1F ADD PUSH1 0x20 DUP1 SWAP2 DIV MUL PUSH1 0x20 ADD PUSH1 0x40 MLOAD SWAP1 DUP2 ADD PUSH1 0x40 MSTORE DUP1 SWAP3 SWAP2 SWAP1 DUP2 DUP2 MSTORE PUSH1 0x20 ADD DUP3 DUP1 SLOAD PUSH2 0x328B SWAP1 PUSH2 0x4A31 JUMP JUMPDEST DUP1 ISZERO PUSH2 0x32D8 JUMPI DUP1 PUSH1 0x1F LT PUSH2 0x32AD JUMPI PUSH2 0x100 DUP1 DUP4 SLOAD DIV MUL DUP4 MSTORE SWAP2 PUSH1 0x20 ADD SWAP2 PUSH2 0x32D8 JUMP JUMPDEST DUP3 ADD SWAP2 SWAP1 PUSH1 0x0 MSTORE PUSH1 0x20 PUSH1 0x0 KECCAK256 SWAP1 JUMPDEST DUP2 SLOAD DUP2 MSTORE SWAP1 PUSH1 0x1 ADD SWAP1 PUSH1 0x20 ADD DUP1 DUP4 GT PUSH2 0x32BB JUMPI DUP3 SWAP1 SUB PUSH1 0x1F AND DUP3 ADD SWAP2 JUMPDEST POP POP POP POP POP DUP2 MSTORE PUSH1 0x20 ADD PUSH1 0x2 DUP3 ADD DUP1 SLOAD PUSH2 0x32F1 SWAP1 PUSH2 0x4A31 JUMP JUMPDEST DUP1 PUSH1 0x1F ADD PUSH1 0x20 DUP1 SWAP2 DIV MUL PUSH1 0x20 ADD PUSH1 0x40 MLOAD SWAP1 DUP2 ADD PUSH1 0x40 MSTORE DUP1 SWAP3 SWAP2 SWAP1 DUP2 DUP2 MSTORE PUSH1 0x20 ADD DUP3 DUP1 SLOAD PUSH2 0x331D SWAP1 PUSH2 0x4A31 JUMP JUMPDEST DUP1 ISZERO PUSH2 0x336A JUMPI DUP1 PUSH1 0x1F LT PUSH2 0x333F JUMPI PUSH2 0x100 DUP1 DUP4 SLOAD DIV MUL DUP4 MSTORE SWAP2 PUSH1 0x20 ADD SWAP2 PUSH2 0x336A JUMP JUMPDEST DUP3 ADD SWAP2 SWAP1 PUSH1 0x0 MSTORE PUSH1 0x20 PUSH1 0x0 KECCAK256 SWAP1 JUMPDEST DUP2 SLOAD DUP2 MSTORE SWAP1 PUSH1 0x1 ADD SWAP1 PUSH1 0x20 ADD DUP1 DUP4 GT PUSH2 0x334D JUMPI DUP3 SWAP1 SUB PUSH1 0x1F AND DUP3 ADD SWAP2 JUMPDEST POP POP POP POP POP DUP2 MSTORE PUSH1 0x20 ADD PUSH1 0x3 DUP3 ADD PUSH1 0x0 SWAP1 SLOAD SWAP1 PUSH2 0x100 EXP SWAP1 DIV PUSH20 0xFFFFFFFFFFFFFFFFFFFFFFFFFFFFFFFFFFFFFFFF AND PUSH20 0xFFFFFFFFFFFFFFFFFFFFFFFFFFFFFFFFFFFFFFFF AND PUSH20 0xFFFFFFFFFFFFFFFFFFFFFFFFFFFFFFFFFFFFFFFF AND DUP2 MSTORE PUSH1 0x20 ADD PUSH1 0x4 DUP3 ADD SLOAD DUP2 MSTORE PUSH1 0x20 ADD PUSH1 0x5 DUP3 ADD SLOAD DUP2 MSTORE PUSH1 0x20 ADD PUSH1 0x6 DUP3 ADD SLOAD DUP2 MSTORE PUSH1 0x20 ADD PUSH1 0x7 DUP3 ADD PUSH1 0x0 SWAP1 SLOAD SWAP1 PUSH2 0x100 EXP SWAP1 DIV PUSH1 0xFF AND PUSH1 0xFF AND PUSH1 0xFF AND DUP2 MSTORE PUSH1 0x20 ADD PUSH1 0x8 DUP3 ADD SLOAD DUP2 MSTORE PUSH1 0x20 ADD PUSH1 0x9 DUP3 ADD SLOAD DUP2 MSTORE PUSH1 0x20 ADD PUSH1 0xA DUP3 ADD SLOAD DUP2 MSTORE POP POP DUP2 MSTORE PUSH1 0x20 ADD SWAP1 PUSH1 0x1 ADD SWAP1 PUSH2 0x3199 JUMP JUMPDEST POP POP POP POP SWAP1 POP SWAP1 JUMP JUMPDEST PUSH1 0xA PUSH1 0x0 SWAP1 SLOAD SWAP1 PUSH2 0x100 EXP SWAP1 DIV PUSH20 0xFFFFFFFFFFFFFFFFFFFFFFFFFFFFFFFFFFFFFFFF AND DUP2 JUMP JUMPDEST PUSH1 0x1 DUP2 DUP1 MLOAD PUSH1 0x20 DUP2 ADD DUP3 ADD DUP1 MLOAD DUP5 DUP3 MSTORE PUSH1 0x20 DUP4 ADD PUSH1 0x20 DUP6 ADD KECCAK256 DUP2 DUP4 MSTORE DUP1 SWAP6 POP POP POP POP POP POP PUSH1 0x0 SWAP2 POP SLOAD SWAP1 PUSH2 0x100 EXP SWAP1 DIV PUSH20 0xFFFFFFFFFFFFFFFFFFFFFFFFFFFFFFFFFFFFFFFF AND DUP2 JUMP JUMPDEST PUSH1 0x0 PUSH1 0xB SLOAD SWAP1 POP SWAP1 JUMP JUMPDEST PUSH1 0x0 PUSH1 0x40 MLOAD SWAP1 POP SWAP1 JUMP JUMPDEST PUSH1 0x0 DUP1 REVERT JUMPDEST PUSH1 0x0 DUP1 REVERT JUMPDEST PUSH1 0x0 PUSH20 0xFFFFFFFFFFFFFFFFFFFFFFFFFFFFFFFFFFFFFFFF DUP3 AND SWAP1 POP SWAP2 SWAP1 POP JUMP JUMPDEST PUSH1 0x0 PUSH2 0x34F2 DUP3 PUSH2 0x34C7 JUMP JUMPDEST SWAP1 POP SWAP2 SWAP1 POP JUMP JUMPDEST PUSH2 0x3502 DUP2 PUSH2 0x34E7 JUMP JUMPDEST DUP2 EQ PUSH2 0x350D JUMPI PUSH1 0x0 DUP1 REVERT JUMPDEST POP JUMP JUMPDEST PUSH1 0x0 DUP2 CALLDATALOAD SWAP1 POP PUSH2 0x351F DUP2 PUSH2 0x34F9 JUMP JUMPDEST SWAP3 SWAP2 POP POP JUMP JUMPDEST PUSH1 0x0 DUP1 REVERT JUMPDEST PUSH1 0x0 DUP1 REVERT JUMPDEST PUSH1 0x0 PUSH1 0x1F NOT PUSH1 0x1F DUP4 ADD AND SWAP1 POP SWAP2 SWAP1 POP JUMP JUMPDEST PUSH32 0x4E487B7100000000000000000000000000000000000000000000000000000000 PUSH1 0x0 MSTORE PUSH1 0x41 PUSH1 0x4 MSTORE PUSH1 0x24 PUSH1 0x0 REVERT JUMPDEST PUSH2 0x3578 DUP3 PUSH2 0x352F JUMP JUMPDEST DUP2 ADD DUP2 DUP2 LT PUSH8 0xFFFFFFFFFFFFFFFF DUP3 GT OR ISZERO PUSH2 0x3597 JUMPI PUSH2 0x3596 PUSH2 0x3540 JUMP JUMPDEST JUMPDEST DUP1 PUSH1 0x40 MSTORE POP POP POP JUMP JUMPDEST PUSH1 0x0 PUSH2 0x35AA PUSH2 0x34B3 JUMP JUMPDEST SWAP1 POP PUSH2 0x35B6 DUP3 DUP3 PUSH2 0x356F JUMP JUMPDEST SWAP2 SWAP1 POP JUMP JUMPDEST PUSH1 0x0 PUSH8 0xFFFFFFFFFFFFFFFF DUP3 GT ISZERO PUSH2 0x35D6 JUMPI PUSH2 0x35D5 PUSH2 0x3540 JUMP JUMPDEST JUMPDEST PUSH2 0x35DF DUP3 PUSH2 0x352F JUMP JUMPDEST SWAP1 POP PUSH1 0x20 DUP2 ADD SWAP1 POP SWAP2 SWAP1 POP JUMP JUMPDEST DUP3 DUP2 DUP4 CALLDATACOPY PUSH1 0x0 DUP4 DUP4 ADD MSTORE POP POP POP JUMP JUMPDEST PUSH1 0x0 PUSH2 0x360E PUSH2 0x3609 DUP5 PUSH2 0x35BB JUMP JUMPDEST PUSH2 0x35A0 JUMP JUMPDEST SWAP1 POP DUP3 DUP2 MSTORE PUSH1 0x20 DUP2 ADD DUP5 DUP5 DUP5 ADD GT ISZERO PUSH2 0x362A JUMPI PUSH2 0x3629 PUSH2 0x352A JUMP JUMPDEST JUMPDEST PUSH2 0x3635 DUP5 DUP3 DUP6 PUSH2 0x35EC JUMP JUMPDEST POP SWAP4 SWAP3 POP POP POP JUMP JUMPDEST PUSH1 0x0 DUP3 PUSH1 0x1F DUP4 ADD SLT PUSH2 0x3652 JUMPI PUSH2 0x3651 PUSH2 0x3525 JUMP JUMPDEST JUMPDEST DUP2 CALLDATALOAD PUSH2 0x3662 DUP5 DUP3 PUSH1 0x20 DUP7 ADD PUSH2 0x35FB JUMP JUMPDEST SWAP2 POP POP SWAP3 SWAP2 POP POP JUMP JUMPDEST PUSH1 0x0 DUP1 PUSH1 0x40 DUP4 DUP6 SUB SLT ISZERO PUSH2 0x3682 JUMPI PUSH2 0x3681 PUSH2 0x34BD JUMP JUMPDEST JUMPDEST PUSH1 0x0 PUSH2 0x3690 DUP6 DUP3 DUP7 ADD PUSH2 0x3510 JUMP JUMPDEST SWAP3 POP POP PUSH1 0x20 DUP4 ADD CALLDATALOAD PUSH8 0xFFFFFFFFFFFFFFFF DUP2 GT ISZERO PUSH2 0x36B1 JUMPI PUSH2 0x36B0 PUSH2 0x34C2 JUMP JUMPDEST JUMPDEST PUSH2 0x36BD DUP6 DUP3 DUP7 ADD PUSH2 0x363D JUMP JUMPDEST SWAP2 POP POP SWAP3 POP SWAP3 SWAP1 POP JUMP JUMPDEST PUSH1 0x0 DUP2 SWAP1 POP SWAP2 SWAP1 POP JUMP JUMPDEST PUSH2 0x36DA DUP2 PUSH2 0x36C7 JUMP JUMPDEST DUP3 MSTORE POP POP JUMP JUMPDEST PUSH1 0x0 DUP2 ISZERO ISZERO SWAP1 POP SWAP2 SWAP1 POP JUMP JUMPDEST PUSH2 0x36F5 DUP2 PUSH2 0x36E0 JUMP JUMPDEST DUP3 MSTORE POP POP JUMP JUMPDEST PUSH1 0x0 PUSH1 0x60 DUP3 ADD SWAP1 POP PUSH2 0x3710 PUSH1 0x0 DUP4 ADD DUP7 PUSH2 0x36D1 JUMP JUMPDEST PUSH2 0x371D PUSH1 0x20 DUP4 ADD DUP6 PUSH2 0x36EC JUMP JUMPDEST PUSH2 0x372A PUSH1 0x40 DUP4 ADD DUP5 PUSH2 0x36D1 JUMP JUMPDEST SWAP5 SWAP4 POP POP POP POP JUMP JUMPDEST PUSH2 0x373B DUP2 PUSH2 0x34E7 JUMP JUMPDEST DUP3 MSTORE POP POP JUMP JUMPDEST PUSH1 0x0 PUSH1 0x20 DUP3 ADD SWAP1 POP PUSH2 0x3756 PUSH1 0x0 DUP4 ADD DUP5 PUSH2 0x3732 JUMP JUMPDEST SWAP3 SWAP2 POP POP JUMP JUMPDEST PUSH1 0x0 DUP1 REVERT JUMPDEST PUSH1 0x0 DUP1 REVERT JUMPDEST PUSH1 0x0 DUP1 DUP4 PUSH1 0x1F DUP5 ADD SLT PUSH2 0x377C JUMPI PUSH2 0x377B PUSH2 0x3525 JUMP JUMPDEST JUMPDEST DUP3 CALLDATALOAD SWAP1 POP PUSH8 0xFFFFFFFFFFFFFFFF DUP2 GT ISZERO PUSH2 0x3799 JUMPI PUSH2 0x3798 PUSH2 0x375C JUMP JUMPDEST JUMPDEST PUSH1 0x20 DUP4 ADD SWAP2 POP DUP4 PUSH1 0x1 DUP3 MUL DUP4 ADD GT ISZERO PUSH2 0x37B5 JUMPI PUSH2 0x37B4 PUSH2 0x3761 JUMP JUMPDEST JUMPDEST SWAP3 POP SWAP3 SWAP1 POP JUMP JUMPDEST PUSH2 0x37C5 DUP2 PUSH2 0x36C7 JUMP JUMPDEST DUP2 EQ PUSH2 0x37D0 JUMPI PUSH1 0x0 DUP1 REVERT JUMPDEST POP JUMP JUMPDEST PUSH1 0x0 DUP2 CALLDATALOAD SWAP1 POP PUSH2 0x37E2 DUP2 PUSH2 0x37BC JUMP JUMPDEST SWAP3 SWAP2 POP POP JUMP JUMPDEST PUSH1 0x0 DUP1 PUSH1 0x0 PUSH1 0x40 DUP5 DUP7 SUB SLT ISZERO PUSH2 0x3801 JUMPI PUSH2 0x3800 PUSH2 0x34BD JUMP JUMPDEST JUMPDEST PUSH1 0x0 DUP5 ADD CALLDATALOAD PUSH8 0xFFFFFFFFFFFFFFFF DUP2 GT ISZERO PUSH2 0x381F JUMPI PUSH2 0x381E PUSH2 0x34C2 JUMP JUMPDEST JUMPDEST PUSH2 0x382B DUP7 DUP3 DUP8 ADD PUSH2 0x3766 JUMP JUMPDEST SWAP4 POP SWAP4 POP POP PUSH1 0x20 PUSH2 0x383E DUP7 DUP3 DUP8 ADD PUSH2 0x37D3 JUMP JUMPDEST SWAP2 POP POP SWAP3 POP SWAP3 POP SWAP3 JUMP JUMPDEST PUSH1 0x0 DUP1 PUSH1 0x40 DUP4 DUP6 SUB SLT ISZERO PUSH2 0x385F JUMPI PUSH2 0x385E PUSH2 0x34BD JUMP JUMPDEST JUMPDEST PUSH1 0x0 DUP4 ADD CALLDATALOAD PUSH8 0xFFFFFFFFFFFFFFFF DUP2 GT ISZERO PUSH2 0x387D JUMPI PUSH2 0x387C PUSH2 0x34C2 JUMP JUMPDEST JUMPDEST PUSH2 0x3889 DUP6 DUP3 DUP7 ADD PUSH2 0x363D JUMP JUMPDEST SWAP3 POP POP PUSH1 0x20 PUSH2 0x389A DUP6 DUP3 DUP7 ADD PUSH2 0x3510 JUMP JUMPDEST SWAP2 POP POP SWAP3 POP SWAP3 SWAP1 POP JUMP JUMPDEST PUSH1 0x0 DUP1 REVERT JUMPDEST PUSH1 0x0 PUSH2 0x180 DUP3 DUP5 SUB SLT ISZERO PUSH2 0x38C0 JUMPI PUSH2 0x38BF PUSH2 0x38A4 JUMP JUMPDEST JUMPDEST DUP2 SWAP1 POP SWAP3 SWAP2 POP POP JUMP JUMPDEST PUSH1 0x0 DUP1 PUSH1 0x0 PUSH1 0x40 DUP5 DUP7 SUB SLT ISZERO PUSH2 0x38E2 JUMPI PUSH2 0x38E1 PUSH2 0x34BD JUMP JUMPDEST JUMPDEST PUSH1 0x0 DUP5 ADD CALLDATALOAD PUSH8 0xFFFFFFFFFFFFFFFF DUP2 GT ISZERO PUSH2 0x3900 JUMPI PUSH2 0x38FF PUSH2 0x34C2 JUMP JUMPDEST JUMPDEST PUSH2 0x390C DUP7 DUP3 DUP8 ADD PUSH2 0x3766 JUMP JUMPDEST SWAP4 POP SWAP4 POP POP PUSH1 0x20 DUP5 ADD CALLDATALOAD PUSH8 0xFFFFFFFFFFFFFFFF DUP2 GT ISZERO PUSH2 0x392F JUMPI PUSH2 0x392E PUSH2 0x34C2 JUMP JUMPDEST JUMPDEST PUSH2 0x393B DUP7 DUP3 DUP8 ADD PUSH2 0x38A9 JUMP JUMPDEST SWAP2 POP POP SWAP3 POP SWAP3 POP SWAP3 JUMP JUMPDEST PUSH1 0x0 PUSH1 0x20 DUP3 DUP5 SUB SLT ISZERO PUSH2 0x395B JUMPI PUSH2 0x395A PUSH2 0x34BD JUMP JUMPDEST JUMPDEST PUSH1 0x0 DUP3 ADD CALLDATALOAD PUSH8 0xFFFFFFFFFFFFFFFF DUP2 GT ISZERO PUSH2 0x3979 JUMPI PUSH2 0x3978 PUSH2 0x34C2 JUMP JUMPDEST JUMPDEST PUSH2 0x3985 DUP5 DUP3 DUP6 ADD PUSH2 0x363D JUMP JUMPDEST SWAP2 POP POP SWAP3 SWAP2 POP POP JUMP JUMPDEST PUSH1 0x0 DUP2 MLOAD SWAP1 POP SWAP2 SWAP1 POP JUMP JUMPDEST PUSH1 0x0 DUP3 DUP3 MSTORE PUSH1 0x20 DUP3 ADD SWAP1 POP SWAP3 SWAP2 POP POP JUMP JUMPDEST PUSH1 0x0 DUP2 SWAP1 POP PUSH1 0x20 DUP3 ADD SWAP1 POP SWAP2 SWAP1 POP JUMP JUMPDEST PUSH1 0x0 DUP2 MLOAD SWAP1 POP SWAP2 SWAP1 POP JUMP JUMPDEST PUSH1 0x0 DUP3 DUP3 MSTORE PUSH1 0x20 DUP3 ADD SWAP1 POP SWAP3 SWAP2 POP POP JUMP JUMPDEST PUSH1 0x0 JUMPDEST DUP4 DUP2 LT ISZERO PUSH2 0x39F4 JUMPI DUP1 DUP3 ADD MLOAD DUP2 DUP5 ADD MSTORE PUSH1 0x20 DUP2 ADD SWAP1 POP PUSH2 0x39D9 JUMP JUMPDEST PUSH1 0x0 DUP5 DUP5 ADD MSTORE POP POP POP POP JUMP JUMPDEST PUSH1 0x0 PUSH2 0x3A0B DUP3 PUSH2 0x39BA JUMP JUMPDEST PUSH2 0x3A15 DUP2 DUP6 PUSH2 0x39C5 JUMP JUMPDEST SWAP4 POP PUSH2 0x3A25 DUP2 DUP6 PUSH1 0x20 DUP7 ADD PUSH2 0x39D6 JUMP JUMPDEST PUSH2 0x3A2E DUP2 PUSH2 0x352F JUMP JUMPDEST DUP5 ADD SWAP2 POP POP SWAP3 SWAP2 POP POP JUMP JUMPDEST PUSH1 0x0 PUSH2 0x3A45 DUP4 DUP4 PUSH2 0x3A00 JUMP JUMPDEST SWAP1 POP SWAP3 SWAP2 POP POP JUMP JUMPDEST PUSH1 0x0 PUSH1 0x20 DUP3 ADD SWAP1 POP SWAP2 SWAP1 POP JUMP JUMPDEST PUSH1 0x0 PUSH2 0x3A65 DUP3 PUSH2 0x398E JUMP JUMPDEST PUSH2 0x3A6F DUP2 DUP6 PUSH2 0x3999 JUMP JUMPDEST SWAP4 POP DUP4 PUSH1 0x20 DUP3 MUL DUP6 ADD PUSH2 0x3A81 DUP6 PUSH2 0x39AA JUMP JUMPDEST DUP1 PUSH1 0x0 JUMPDEST DUP6 DUP2 LT ISZERO PUSH2 0x3ABD JUMPI DUP5 DUP5 SUB DUP10 MSTORE DUP2 MLOAD PUSH2 0x3A9E DUP6 DUP3 PUSH2 0x3A39 JUMP JUMPDEST SWAP5 POP PUSH2 0x3AA9 DUP4 PUSH2 0x3A4D JUMP JUMPDEST SWAP3 POP PUSH1 0x20 DUP11 ADD SWAP10 POP POP PUSH1 0x1 DUP2 ADD SWAP1 POP PUSH2 0x3A85 JUMP JUMPDEST POP DUP3 SWAP8 POP DUP8 SWAP6 POP POP POP POP POP POP SWAP3 SWAP2 POP POP JUMP JUMPDEST PUSH1 0x0 PUSH1 0x20 DUP3 ADD SWAP1 POP DUP2 DUP2 SUB PUSH1 0x0 DUP4 ADD MSTORE PUSH2 0x3AE9 DUP2 DUP5 PUSH2 0x3A5A JUMP JUMPDEST SWAP1 POP SWAP3 SWAP2 POP POP JUMP JUMPDEST PUSH1 0x0 DUP2 MLOAD SWAP1 POP SWAP2 SWAP1 POP JUMP JUMPDEST PUSH1 0x0 DUP3 DUP3 MSTORE PUSH1 0x20 DUP3 ADD SWAP1 POP SWAP3 SWAP2 POP POP JUMP JUMPDEST PUSH1 0x0 DUP2 SWAP1 POP PUSH1 0x20 DUP3 ADD SWAP1 POP SWAP2 SWAP1 POP JUMP JUMPDEST PUSH2 0x3B26 DUP2 PUSH2 0x34E7 JUMP JUMPDEST DUP3 MSTORE POP POP JUMP JUMPDEST PUSH2 0x3B35 DUP2 PUSH2 0x36C7 JUMP JUMPDEST DUP3 MSTORE POP POP JUMP JUMPDEST PUSH1 0x0 PUSH1 0xFF DUP3 AND SWAP1 POP SWAP2 SWAP1 POP JUMP JUMPDEST PUSH2 0x3B51 DUP2 PUSH2 0x3B3B JUMP JUMPDEST DUP3 MSTORE POP POP JUMP JUMPDEST PUSH32 0x4E487B7100000000000000000000000000000000000000000000000000000000 PUSH1 0x0 MSTORE PUSH1 0x21 PUSH1 0x4 MSTORE PUSH1 0x24 PUSH1 0x0 REVERT JUMPDEST PUSH1 0x6 DUP2 LT PUSH2 0x3B97 JUMPI PUSH2 0x3B96 PUSH2 0x3B57 JUMP JUMPDEST JUMPDEST POP JUMP JUMPDEST PUSH1 0x0 DUP2 SWAP1 POP PUSH2 0x3BA8 DUP3 PUSH2 0x3B86 JUMP JUMPDEST SWAP2 SWAP1 POP JUMP JUMPDEST PUSH1 0x0 PUSH2 0x3BB8 DUP3 PUSH2 0x3B9A JUMP JUMPDEST SWAP1 POP SWAP2 SWAP1 POP JUMP JUMPDEST PUSH2 0x3BC8 DUP2 PUSH2 0x3BAD JUMP JUMPDEST DUP3 MSTORE POP POP JUMP JUMPDEST PUSH1 0x0 PUSH2 0x180 DUP4 ADD PUSH1 0x0 DUP4 ADD MLOAD DUP5 DUP3 SUB PUSH1 0x0 DUP7 ADD MSTORE PUSH2 0x3BEC DUP3 DUP3 PUSH2 0x3A00 JUMP JUMPDEST SWAP2 POP POP PUSH1 0x20 DUP4 ADD MLOAD DUP5 DUP3 SUB PUSH1 0x20 DUP7 ADD MSTORE PUSH2 0x3C06 DUP3 DUP3 PUSH2 0x3A00 JUMP JUMPDEST SWAP2 POP POP PUSH1 0x40 DUP4 ADD MLOAD PUSH2 0x3C1B PUSH1 0x40 DUP7 ADD DUP3 PUSH2 0x3B1D JUMP JUMPDEST POP PUSH1 0x60 DUP4 ADD MLOAD PUSH2 0x3C2E PUSH1 0x60 DUP7 ADD DUP3 PUSH2 0x3B2C JUMP JUMPDEST POP PUSH1 0x80 DUP4 ADD MLOAD PUSH2 0x3C41 PUSH1 0x80 DUP7 ADD DUP3 PUSH2 0x3B2C JUMP JUMPDEST POP PUSH1 0xA0 DUP4 ADD MLOAD PUSH2 0x3C54 PUSH1 0xA0 DUP7 ADD DUP3 PUSH2 0x3B2C JUMP JUMPDEST POP PUSH1 0xC0 DUP4 ADD MLOAD PUSH2 0x3C67 PUSH1 0xC0 DUP7 ADD DUP3 PUSH2 0x3B2C JUMP JUMPDEST POP PUSH1 0xE0 DUP4 ADD MLOAD PUSH2 0x3C7A PUSH1 0xE0 DUP7 ADD DUP3 PUSH2 0x3B2C JUMP JUMPDEST POP PUSH2 0x100 DUP4 ADD MLOAD PUSH2 0x3C8F PUSH2 0x100 DUP7 ADD DUP3 PUSH2 0x3B2C JUMP JUMPDEST POP PUSH2 0x120 DUP4 ADD MLOAD PUSH2 0x3CA4 PUSH2 0x120 DUP7 ADD DUP3 PUSH2 0x3B1D JUMP JUMPDEST POP PUSH2 0x140 DUP4 ADD MLOAD PUSH2 0x3CB9 PUSH2 0x140 DUP7 ADD DUP3 PUSH2 0x3B48 JUMP JUMPDEST POP PUSH2 0x160 DUP4 ADD MLOAD PUSH2 0x3CCE PUSH2 0x160 DUP7 ADD DUP3 PUSH2 0x3BBF JUMP JUMPDEST POP DUP1 SWAP2 POP POP SWAP3 SWAP2 POP POP JUMP JUMPDEST PUSH1 0x0 PUSH2 0x3CE5 DUP4 DUP4 PUSH2 0x3BCE JUMP JUMPDEST SWAP1 POP SWAP3 SWAP2 POP POP JUMP JUMPDEST PUSH1 0x0 PUSH1 0x20 DUP3 ADD SWAP1 POP SWAP2 SWAP1 POP JUMP JUMPDEST PUSH1 0x0 PUSH2 0x3D05 DUP3 PUSH2 0x3AF1 JUMP JUMPDEST PUSH2 0x3D0F DUP2 DUP6 PUSH2 0x3AFC JUMP JUMPDEST SWAP4 POP DUP4 PUSH1 0x20 DUP3 MUL DUP6 ADD PUSH2 0x3D21 DUP6 PUSH2 0x3B0D JUMP JUMPDEST DUP1 PUSH1 0x0 JUMPDEST DUP6 DUP2 LT ISZERO PUSH2 0x3D5D JUMPI DUP5 DUP5 SUB DUP10 MSTORE DUP2 MLOAD PUSH2 0x3D3E DUP6 DUP3 PUSH2 0x3CD9 JUMP JUMPDEST SWAP5 POP PUSH2 0x3D49 DUP4 PUSH2 0x3CED JUMP JUMPDEST SWAP3 POP PUSH1 0x20 DUP11 ADD SWAP10 POP POP PUSH1 0x1 DUP2 ADD SWAP1 POP PUSH2 0x3D25 JUMP JUMPDEST POP DUP3 SWAP8 POP DUP8 SWAP6 POP POP POP POP POP POP SWAP3 SWAP2 POP POP JUMP JUMPDEST PUSH1 0x0 PUSH1 0x20 DUP3 ADD SWAP1 POP DUP2 DUP2 SUB PUSH1 0x0 DUP4 ADD MSTORE PUSH2 0x3D89 DUP2 DUP5 PUSH2 0x3CFA JUMP JUMPDEST SWAP1 POP SWAP3 SWAP2 POP POP JUMP JUMPDEST PUSH1 0x0 DUP1 PUSH1 0x20 DUP4 DUP6 SUB SLT ISZERO PUSH2 0x3DA8 JUMPI PUSH2 0x3DA7 PUSH2 0x34BD JUMP JUMPDEST JUMPDEST PUSH1 0x0 DUP4 ADD CALLDATALOAD PUSH8 0xFFFFFFFFFFFFFFFF DUP2 GT ISZERO PUSH2 0x3DC6 JUMPI PUSH2 0x3DC5 PUSH2 0x34C2 JUMP JUMPDEST JUMPDEST PUSH2 0x3DD2 DUP6 DUP3 DUP7 ADD PUSH2 0x3766 JUMP JUMPDEST SWAP3 POP SWAP3 POP POP SWAP3 POP SWAP3 SWAP1 POP JUMP JUMPDEST PUSH1 0x0 DUP1 PUSH1 0x40 DUP4 DUP6 SUB SLT ISZERO PUSH2 0x3DF5 JUMPI PUSH2 0x3DF4 PUSH2 0x34BD JUMP JUMPDEST JUMPDEST PUSH1 0x0 DUP4 ADD CALLDATALOAD PUSH8 0xFFFFFFFFFFFFFFFF DUP2 GT ISZERO PUSH2 0x3E13 JUMPI PUSH2 0x3E12 PUSH2 0x34C2 JUMP JUMPDEST JUMPDEST PUSH2 0x3E1F DUP6 DUP3 DUP7 ADD PUSH2 0x363D JUMP JUMPDEST SWAP3 POP POP PUSH1 0x20 PUSH2 0x3E30 DUP6 DUP3 DUP7 ADD PUSH2 0x37D3 JUMP JUMPDEST SWAP2 POP POP SWAP3 POP SWAP3 SWAP1 POP JUMP JUMPDEST PUSH1 0x0 PUSH1 0x40 DUP3 ADD SWAP1 POP PUSH2 0x3E4F PUSH1 0x0 DUP4 ADD DUP6 PUSH2 0x3732 JUMP JUMPDEST PUSH2 0x3E5C PUSH1 0x20 DUP4 ADD DUP5 PUSH2 0x36D1 JUMP JUMPDEST SWAP4 SWAP3 POP POP POP JUMP JUMPDEST PUSH1 0x0 DUP1 PUSH1 0x40 DUP4 DUP6 SUB SLT ISZERO PUSH2 0x3E7A JUMPI PUSH2 0x3E79 PUSH2 0x34BD JUMP JUMPDEST JUMPDEST PUSH1 0x0 PUSH2 0x3E88 DUP6 DUP3 DUP7 ADD PUSH2 0x3510 JUMP JUMPDEST SWAP3 POP POP PUSH1 0x20 PUSH2 0x3E99 DUP6 DUP3 DUP7 ADD PUSH2 0x37D3 JUMP JUMPDEST SWAP2 POP POP SWAP3 POP SWAP3 SWAP1 POP JUMP JUMPDEST PUSH1 0x0 DUP3 DUP3 MSTORE PUSH1 0x20 DUP3 ADD SWAP1 POP SWAP3 SWAP2 POP POP JUMP JUMPDEST PUSH1 0x0 PUSH2 0x3EBF DUP3 PUSH2 0x39BA JUMP JUMPDEST PUSH2 0x3EC9 DUP2 DUP6 PUSH2 0x3EA3 JUMP JUMPDEST SWAP4 POP PUSH2 0x3ED9 DUP2 DUP6 PUSH1 0x20 DUP7 ADD PUSH2 0x39D6 JUMP JUMPDEST PUSH2 0x3EE2 DUP2 PUSH2 0x352F JUMP JUMPDEST DUP5 ADD SWAP2 POP POP SWAP3 SWAP2 POP POP JUMP JUMPDEST PUSH2 0x3EF6 DUP2 PUSH2 0x3B3B JUMP JUMPDEST DUP3 MSTORE POP POP JUMP JUMPDEST PUSH2 0x3F05 DUP2 PUSH2 0x3BAD JUMP JUMPDEST DUP3 MSTORE POP POP JUMP JUMPDEST PUSH1 0x0 PUSH2 0x180 DUP3 ADD SWAP1 POP DUP2 DUP2 SUB PUSH1 0x0 DUP4 ADD MSTORE PUSH2 0x3F26 DUP2 DUP16 PUSH2 0x3EB4 JUMP JUMPDEST SWAP1 POP DUP2 DUP2 SUB PUSH1 0x20 DUP4 ADD MSTORE PUSH2 0x3F3A DUP2 DUP15 PUSH2 0x3EB4 JUMP JUMPDEST SWAP1 POP PUSH2 0x3F49 PUSH1 0x40 DUP4 ADD DUP14 PUSH2 0x3732 JUMP JUMPDEST PUSH2 0x3F56 PUSH1 0x60 DUP4 ADD DUP13 PUSH2 0x36D1 JUMP JUMPDEST PUSH2 0x3F63 PUSH1 0x80 DUP4 ADD DUP12 PUSH2 0x36D1 JUMP JUMPDEST PUSH2 0x3F70 PUSH1 0xA0 DUP4 ADD DUP11 PUSH2 0x36D1 JUMP JUMPDEST PUSH2 0x3F7D PUSH1 0xC0 DUP4 ADD DUP10 PUSH2 0x36D1 JUMP JUMPDEST PUSH2 0x3F8A PUSH1 0xE0 DUP4 ADD DUP9 PUSH2 0x36D1 JUMP JUMPDEST PUSH2 0x3F98 PUSH2 0x100 DUP4 ADD DUP8 PUSH2 0x36D1 JUMP JUMPDEST PUSH2 0x3FA6 PUSH2 0x120 DUP4 ADD DUP7 PUSH2 0x3732 JUMP JUMPDEST PUSH2 0x3FB4 PUSH2 0x140 DUP4 ADD DUP6 PUSH2 0x3EED JUMP JUMPDEST PUSH2 0x3FC2 PUSH2 0x160 DUP4 ADD DUP5 PUSH2 0x3EFC JUMP JUMPDEST SWAP14 SWAP13 POP POP POP POP POP POP POP POP POP POP POP POP POP JUMP JUMPDEST PUSH1 0x0 PUSH2 0x160 DUP3 DUP5 SUB SLT ISZERO PUSH2 0x3FEA JUMPI PUSH2 0x3FE9 PUSH2 0x38A4 JUMP JUMPDEST JUMPDEST DUP2 SWAP1 POP SWAP3 SWAP2 POP POP JUMP JUMPDEST PUSH1 0x0 DUP1 PUSH1 0x0 DUP1 PUSH1 0x60 DUP6 DUP8 SUB SLT ISZERO PUSH2 0x400D JUMPI PUSH2 0x400C PUSH2 0x34BD JUMP JUMPDEST JUMPDEST PUSH1 0x0 DUP6 ADD CALLDATALOAD PUSH8 0xFFFFFFFFFFFFFFFF DUP2 GT ISZERO PUSH2 0x402B JUMPI PUSH2 0x402A PUSH2 0x34C2 JUMP JUMPDEST JUMPDEST PUSH2 0x4037 DUP8 DUP3 DUP9 ADD PUSH2 0x3766 JUMP JUMPDEST SWAP5 POP SWAP5 POP POP PUSH1 0x20 DUP6 ADD CALLDATALOAD PUSH8 0xFFFFFFFFFFFFFFFF DUP2 GT ISZERO PUSH2 0x405A JUMPI PUSH2 0x4059 PUSH2 0x34C2 JUMP JUMPDEST JUMPDEST PUSH2 0x4066 DUP8 DUP3 DUP9 ADD PUSH2 0x3FD3 JUMP JUMPDEST SWAP3 POP POP PUSH1 0x40 PUSH2 0x4077 DUP8 DUP3 DUP9 ADD PUSH2 0x3510 JUMP JUMPDEST SWAP2 POP POP SWAP3 SWAP6 SWAP2 SWAP5 POP SWAP3 POP JUMP JUMPDEST PUSH1 0x0 PUSH1 0x20 DUP3 ADD SWAP1 POP PUSH2 0x4098 PUSH1 0x0 DUP4 ADD DUP5 PUSH2 0x36D1 JUMP JUMPDEST SWAP3 SWAP2 POP POP JUMP JUMPDEST PUSH1 0x0 PUSH1 0x20 DUP3 DUP5 SUB SLT ISZERO PUSH2 0x40B4 JUMPI PUSH2 0x40B3 PUSH2 0x34BD JUMP JUMPDEST JUMPDEST PUSH1 0x0 PUSH2 0x40C2 DUP5 DUP3 DUP6 ADD PUSH2 0x3510 JUMP JUMPDEST SWAP2 POP POP SWAP3 SWAP2 POP POP JUMP JUMPDEST PUSH1 0x0 PUSH1 0xA0 DUP3 ADD SWAP1 POP PUSH2 0x40E0 PUSH1 0x0 DUP4 ADD DUP9 PUSH2 0x3732 JUMP JUMPDEST PUSH2 0x40ED PUSH1 0x20 DUP4 ADD DUP8 PUSH2 0x3732 JUMP JUMPDEST PUSH2 0x40FA PUSH1 0x40 DUP4 ADD DUP7 PUSH2 0x3732 JUMP JUMPDEST PUSH2 0x4107 PUSH1 0x60 DUP4 ADD DUP6 PUSH2 0x3732 JUMP JUMPDEST PUSH2 0x4114 PUSH1 0x80 DUP4 ADD DUP5 PUSH2 0x3732 JUMP JUMPDEST SWAP7 SWAP6 POP POP POP POP POP POP JUMP JUMPDEST PUSH1 0x0 DUP2 MLOAD SWAP1 POP SWAP2 SWAP1 POP JUMP JUMPDEST PUSH1 0x0 DUP3 DUP3 MSTORE PUSH1 0x20 DUP3 ADD SWAP1 POP SWAP3 SWAP2 POP POP JUMP JUMPDEST PUSH1 0x0 DUP2 SWAP1 POP PUSH1 0x20 DUP3 ADD SWAP1 POP SWAP2 SWAP1 POP JUMP JUMPDEST PUSH1 0x40 DUP3 ADD PUSH1 0x0 DUP3 ADD MLOAD PUSH2 0x4160 PUSH1 0x0 DUP6 ADD DUP3 PUSH2 0x3B1D JUMP JUMPDEST POP PUSH1 0x20 DUP3 ADD MLOAD PUSH2 0x4173 PUSH1 0x20 DUP6 ADD DUP3 PUSH2 0x3B2C JUMP JUMPDEST POP POP POP POP JUMP JUMPDEST PUSH1 0x0 PUSH2 0x4185 DUP4 DUP4 PUSH2 0x414A JUMP JUMPDEST PUSH1 0x40 DUP4 ADD SWAP1 POP SWAP3 SWAP2 POP POP JUMP JUMPDEST PUSH1 0x0 PUSH1 0x20 DUP3 ADD SWAP1 POP SWAP2 SWAP1 POP JUMP JUMPDEST PUSH1 0x0 PUSH2 0x41A9 DUP3 PUSH2 0x411E JUMP JUMPDEST PUSH2 0x41B3 DUP2 DUP6 PUSH2 0x4129 JUMP JUMPDEST SWAP4 POP PUSH2 0x41BE DUP4 PUSH2 0x413A JUMP JUMPDEST DUP1 PUSH1 0x0 JUMPDEST DUP4 DUP2 LT ISZERO PUSH2 0x41EF JUMPI DUP2 MLOAD PUSH2 0x41D6 DUP9 DUP3 PUSH2 0x4179 JUMP JUMPDEST SWAP8 POP PUSH2 0x41E1 DUP4 PUSH2 0x4191 JUMP JUMPDEST SWAP3 POP POP PUSH1 0x1 DUP2 ADD SWAP1 POP PUSH2 0x41C2 JUMP JUMPDEST POP DUP6 SWAP4 POP POP POP POP SWAP3 SWAP2 POP POP JUMP JUMPDEST PUSH1 0x0 PUSH1 0x20 DUP3 ADD SWAP1 POP DUP2 DUP2 SUB PUSH1 0x0 DUP4 ADD MSTORE PUSH2 0x4216 DUP2 DUP5 PUSH2 0x419E JUMP JUMPDEST SWAP1 POP SWAP3 SWAP2 POP POP JUMP JUMPDEST PUSH1 0x0 DUP1 PUSH1 0x0 PUSH1 0x40 DUP5 DUP7 SUB SLT ISZERO PUSH2 0x4237 JUMPI PUSH2 0x4236 PUSH2 0x34BD JUMP JUMPDEST JUMPDEST PUSH1 0x0 DUP5 ADD CALLDATALOAD PUSH8 0xFFFFFFFFFFFFFFFF DUP2 GT ISZERO PUSH2 0x4255 JUMPI PUSH2 0x4254 PUSH2 0x34C2 JUMP JUMPDEST JUMPDEST PUSH2 0x4261 DUP7 DUP3 DUP8 ADD PUSH2 0x3766 JUMP JUMPDEST SWAP4 POP SWAP4 POP POP PUSH1 0x20 PUSH2 0x4274 DUP7 DUP3 DUP8 ADD PUSH2 0x3510 JUMP JUMPDEST SWAP2 POP POP SWAP3 POP SWAP3 POP SWAP3 JUMP JUMPDEST PUSH1 0x0 DUP2 MLOAD SWAP1 POP SWAP2 SWAP1 POP JUMP JUMPDEST PUSH1 0x0 DUP3 DUP3 MSTORE PUSH1 0x20 DUP3 ADD SWAP1 POP SWAP3 SWAP2 POP POP JUMP JUMPDEST PUSH1 0x0 DUP2 SWAP1 POP PUSH1 0x20 DUP3 ADD SWAP1 POP SWAP2 SWAP1 POP JUMP JUMPDEST PUSH1 0x0 PUSH2 0x160 DUP4 ADD PUSH1 0x0 DUP4 ADD MLOAD DUP5 DUP3 SUB PUSH1 0x0 DUP7 ADD MSTORE PUSH2 0x42C8 DUP3 DUP3 PUSH2 0x3A00 JUMP JUMPDEST SWAP2 POP POP PUSH1 0x20 DUP4 ADD MLOAD DUP5 DUP3 SUB PUSH1 0x20 DUP7 ADD MSTORE PUSH2 0x42E2 DUP3 DUP3 PUSH2 0x3A00 JUMP JUMPDEST SWAP2 POP POP PUSH1 0x40 DUP4 ADD MLOAD DUP5 DUP3 SUB PUSH1 0x40 DUP7 ADD MSTORE PUSH2 0x42FC DUP3 DUP3 PUSH2 0x3A00 JUMP JUMPDEST SWAP2 POP POP PUSH1 0x60 DUP4 ADD MLOAD PUSH2 0x4311 PUSH1 0x60 DUP7 ADD DUP3 PUSH2 0x3B1D JUMP JUMPDEST POP PUSH1 0x80 DUP4 ADD MLOAD PUSH2 0x4324 PUSH1 0x80 DUP7 ADD DUP3 PUSH2 0x3B2C JUMP JUMPDEST POP PUSH1 0xA0 DUP4 ADD MLOAD PUSH2 0x4337 PUSH1 0xA0 DUP7 ADD DUP3 PUSH2 0x3B2C JUMP JUMPDEST POP PUSH1 0xC0 DUP4 ADD MLOAD PUSH2 0x434A PUSH1 0xC0 DUP7 ADD DUP3 PUSH2 0x3B2C JUMP JUMPDEST POP PUSH1 0xE0 DUP4 ADD MLOAD PUSH2 0x435D PUSH1 0xE0 DUP7 ADD DUP3 PUSH2 0x3B48 JUMP JUMPDEST POP PUSH2 0x100 DUP4 ADD MLOAD PUSH2 0x4372 PUSH2 0x100 DUP7 ADD DUP3 PUSH2 0x3B2C JUMP JUMPDEST POP PUSH2 0x120 DUP4 ADD MLOAD PUSH2 0x4387 PUSH2 0x120 DUP7 ADD DUP3 PUSH2 0x3B2C JUMP JUMPDEST POP PUSH2 0x140 DUP4 ADD MLOAD PUSH2 0x439C PUSH2 0x140 DUP7 ADD DUP3 PUSH2 0x3B2C JUMP JUMPDEST POP DUP1 SWAP2 POP POP SWAP3 SWAP2 POP POP JUMP JUMPDEST PUSH1 0x0 PUSH2 0x43B3 DUP4 DUP4 PUSH2 0x42AA JUMP JUMPDEST SWAP1 POP SWAP3 SWAP2 POP POP JUMP JUMPDEST PUSH1 0x0 PUSH1 0x20 DUP3 ADD SWAP1 POP SWAP2 SWAP1 POP JUMP JUMPDEST PUSH1 0x0 PUSH2 0x43D3 DUP3 PUSH2 0x427E JUMP JUMPDEST PUSH2 0x43DD DUP2 DUP6 PUSH2 0x4289 JUMP JUMPDEST SWAP4 POP DUP4 PUSH1 0x20 DUP3 MUL DUP6 ADD PUSH2 0x43EF DUP6 PUSH2 0x429A JUMP JUMPDEST DUP1 PUSH1 0x0 JUMPDEST DUP6 DUP2 LT ISZERO PUSH2 0x442B JUMPI DUP5 DUP5 SUB DUP10 MSTORE DUP2 MLOAD PUSH2 0x440C DUP6 DUP3 PUSH2 0x43A7 JUMP JUMPDEST SWAP5 POP PUSH2 0x4417 DUP4 PUSH2 0x43BB JUMP JUMPDEST SWAP3 POP PUSH1 0x20 DUP11 ADD SWAP10 POP POP PUSH1 0x1 DUP2 ADD SWAP1 POP PUSH2 0x43F3 JUMP JUMPDEST POP DUP3 SWAP8 POP DUP8 SWAP6 POP POP POP POP POP POP SWAP3 SWAP2 POP POP JUMP JUMPDEST PUSH1 0x0 PUSH1 0x20 DUP3 ADD SWAP1 POP DUP2 DUP2 SUB PUSH1 0x0 DUP4 ADD MSTORE PUSH2 0x4457 DUP2 DUP5 PUSH2 0x43C8 JUMP JUMPDEST SWAP1 POP SWAP3 SWAP2 POP POP JUMP JUMPDEST PUSH2 0x4468 DUP2 PUSH2 0x36E0 JUMP JUMPDEST DUP2 EQ PUSH2 0x4473 JUMPI PUSH1 0x0 DUP1 REVERT JUMPDEST POP JUMP JUMPDEST PUSH1 0x0 DUP2 MLOAD SWAP1 POP PUSH2 0x4485 DUP2 PUSH2 0x445F JUMP JUMPDEST SWAP3 SWAP2 POP POP JUMP JUMPDEST PUSH1 0x0 PUSH1 0x20 DUP3 DUP5 SUB SLT ISZERO PUSH2 0x44A1 JUMPI PUSH2 0x44A0 PUSH2 0x34BD JUMP JUMPDEST JUMPDEST PUSH1 0x0 PUSH2 0x44AF DUP5 DUP3 DUP6 ADD PUSH2 0x4476 JUMP JUMPDEST SWAP2 POP POP SWAP3 SWAP2 POP POP JUMP JUMPDEST PUSH32 0x4143434F554E545F4E4F545F414150524F564544000000000000000000000000 PUSH1 0x0 DUP3 ADD MSTORE POP JUMP JUMPDEST PUSH1 0x0 PUSH2 0x44EE PUSH1 0x14 DUP4 PUSH2 0x3EA3 JUMP JUMPDEST SWAP2 POP PUSH2 0x44F9 DUP3 PUSH2 0x44B8 JUMP JUMPDEST PUSH1 0x20 DUP3 ADD SWAP1 POP SWAP2 SWAP1 POP JUMP JUMPDEST PUSH1 0x0 PUSH1 0x20 DUP3 ADD SWAP1 POP DUP2 DUP2 SUB PUSH1 0x0 DUP4 ADD MSTORE PUSH2 0x451D DUP2 PUSH2 0x44E1 JUMP JUMPDEST SWAP1 POP SWAP2 SWAP1 POP JUMP JUMPDEST PUSH1 0x0 DUP2 SWAP1 POP SWAP3 SWAP2 POP POP JUMP JUMPDEST PUSH1 0x0 PUSH2 0x453B DUP4 DUP6 PUSH2 0x4524 JUMP JUMPDEST SWAP4 POP PUSH2 0x4548 DUP4 DUP6 DUP5 PUSH2 0x35EC JUMP JUMPDEST DUP3 DUP5 ADD SWAP1 POP SWAP4 SWAP3 POP POP POP JUMP JUMPDEST PUSH1 0x0 PUSH2 0x4561 DUP3 DUP5 DUP7 PUSH2 0x452F JUMP JUMPDEST SWAP2 POP DUP2 SWAP1 POP SWAP4 SWAP3 POP POP POP JUMP JUMPDEST PUSH1 0x0 PUSH2 0x4579 DUP4 DUP6 PUSH2 0x3EA3 JUMP JUMPDEST SWAP4 POP PUSH2 0x4586 DUP4 DUP6 DUP5 PUSH2 0x35EC JUMP JUMPDEST PUSH2 0x458F DUP4 PUSH2 0x352F JUMP JUMPDEST DUP5 ADD SWAP1 POP SWAP4 SWAP3 POP POP POP JUMP JUMPDEST PUSH1 0x0 PUSH1 0x20 DUP3 ADD SWAP1 POP DUP2 DUP2 SUB PUSH1 0x0 DUP4 ADD MSTORE PUSH2 0x45B5 DUP2 DUP5 DUP7 PUSH2 0x456D JUMP JUMPDEST SWAP1 POP SWAP4 SWAP3 POP POP POP JUMP JUMPDEST PUSH32 0x4E487B7100000000000000000000000000000000000000000000000000000000 PUSH1 0x0 MSTORE PUSH1 0x11 PUSH1 0x4 MSTORE PUSH1 0x24 PUSH1 0x0 REVERT JUMPDEST PUSH1 0x0 PUSH2 0x45F8 DUP3 PUSH2 0x36C7 JUMP JUMPDEST SWAP2 POP PUSH2 0x4603 DUP4 PUSH2 0x36C7 JUMP JUMPDEST SWAP3 POP DUP3 DUP3 MUL PUSH2 0x4611 DUP2 PUSH2 0x36C7 JUMP JUMPDEST SWAP2 POP DUP3 DUP3 DIV DUP5 EQ DUP4 ISZERO OR PUSH2 0x4628 JUMPI PUSH2 0x4627 PUSH2 0x45BE JUMP JUMPDEST JUMPDEST POP SWAP3 SWAP2 POP POP JUMP JUMPDEST PUSH32 0x4E487B7100000000000000000000000000000000000000000000000000000000 PUSH1 0x0 MSTORE PUSH1 0x12 PUSH1 0x4 MSTORE PUSH1 0x24 PUSH1 0x0 REVERT JUMPDEST PUSH1 0x0 PUSH2 0x4669 DUP3 PUSH2 0x36C7 JUMP JUMPDEST SWAP2 POP PUSH2 0x4674 DUP4 PUSH2 0x36C7 JUMP JUMPDEST SWAP3 POP DUP3 PUSH2 0x4684 JUMPI PUSH2 0x4683 PUSH2 0x462F JUMP JUMPDEST JUMPDEST DUP3 DUP3 MOD SWAP1 POP SWAP3 SWAP2 POP POP JUMP JUMPDEST PUSH1 0x0 PUSH2 0x469A DUP3 PUSH2 0x36C7 JUMP JUMPDEST SWAP2 POP PUSH2 0x46A5 DUP4 PUSH2 0x36C7 JUMP JUMPDEST SWAP3 POP DUP3 DUP3 ADD SWAP1 POP DUP1 DUP3 GT ISZERO PUSH2 0x46BD JUMPI PUSH2 0x46BC PUSH2 0x45BE JUMP JUMPDEST JUMPDEST SWAP3 SWAP2 POP POP JUMP JUMPDEST PUSH32 0x494E56414C49445F414D4F554E54000000000000000000000000000000000000 PUSH1 0x0 DUP3 ADD MSTORE POP JUMP JUMPDEST PUSH1 0x0 PUSH2 0x46F9 PUSH1 0xE DUP4 PUSH2 0x3EA3 JUMP JUMPDEST SWAP2 POP PUSH2 0x4704 DUP3 PUSH2 0x46C3 JUMP JUMPDEST PUSH1 0x20 DUP3 ADD SWAP1 POP SWAP2 SWAP1 POP JUMP JUMPDEST PUSH1 0x0 PUSH1 0x20 DUP3 ADD SWAP1 POP DUP2 DUP2 SUB PUSH1 0x0 DUP4 ADD MSTORE PUSH2 0x4728 DUP2 PUSH2 0x46EC JUMP JUMPDEST SWAP1 POP SWAP2 SWAP1 POP JUMP JUMPDEST PUSH32 0x4E487B7100000000000000000000000000000000000000000000000000000000 PUSH1 0x0 MSTORE PUSH1 0x32 PUSH1 0x4 MSTORE PUSH1 0x24 PUSH1 0x0 REVERT JUMPDEST PUSH1 0x0 PUSH1 0x40 DUP3 ADD SWAP1 POP DUP2 DUP2 SUB PUSH1 0x0 DUP4 ADD MSTORE PUSH2 0x4779 DUP2 DUP6 DUP8 PUSH2 0x456D JUMP JUMPDEST SWAP1 POP PUSH2 0x4788 PUSH1 0x20 DUP4 ADD DUP5 PUSH2 0x36D1 JUMP JUMPDEST SWAP5 SWAP4 POP POP POP POP JUMP JUMPDEST PUSH1 0x0 PUSH1 0x60 DUP3 ADD SWAP1 POP PUSH2 0x47A5 PUSH1 0x0 DUP4 ADD DUP7 PUSH2 0x3732 JUMP JUMPDEST PUSH2 0x47B2 PUSH1 0x20 DUP4 ADD DUP6 PUSH2 0x3732 JUMP JUMPDEST PUSH2 0x47BF PUSH1 0x40 DUP4 ADD DUP5 PUSH2 0x36D1 JUMP JUMPDEST SWAP5 SWAP4 POP POP POP POP JUMP JUMPDEST PUSH1 0x0 PUSH1 0x40 DUP3 ADD SWAP1 POP DUP2 DUP2 SUB PUSH1 0x0 DUP4 ADD MSTORE PUSH2 0x47E2 DUP2 DUP6 DUP8 PUSH2 0x456D JUMP JUMPDEST SWAP1 POP PUSH2 0x47F1 PUSH1 0x20 DUP4 ADD DUP5 PUSH2 0x3732 JUMP JUMPDEST SWAP5 SWAP4 POP POP POP POP JUMP JUMPDEST PUSH1 0x0 PUSH2 0x4804 DUP3 PUSH2 0x39BA JUMP JUMPDEST PUSH2 0x480E DUP2 DUP6 PUSH2 0x4524 JUMP JUMPDEST SWAP4 POP PUSH2 0x481E DUP2 DUP6 PUSH1 0x20 DUP7 ADD PUSH2 0x39D6 JUMP JUMPDEST DUP1 DUP5 ADD SWAP2 POP POP SWAP3 SWAP2 POP POP JUMP JUMPDEST PUSH1 0x0 PUSH2 0x4836 DUP3 DUP5 PUSH2 0x47F9 JUMP JUMPDEST SWAP2 POP DUP2 SWAP1 POP SWAP3 SWAP2 POP POP JUMP JUMPDEST PUSH32 0x4F4E4C595F495353554552530000000000000000000000000000000000000000 PUSH1 0x0 DUP3 ADD MSTORE POP JUMP JUMPDEST PUSH1 0x0 PUSH2 0x4877 PUSH1 0xC DUP4 PUSH2 0x3EA3 JUMP JUMPDEST SWAP2 POP PUSH2 0x4882 DUP3 PUSH2 0x4841 JUMP JUMPDEST PUSH1 0x20 DUP3 ADD SWAP1 POP SWAP2 SWAP1 POP JUMP JUMPDEST PUSH1 0x0 PUSH1 0x20 DUP3 ADD SWAP1 POP DUP2 DUP2 SUB PUSH1 0x0 DUP4 ADD MSTORE PUSH2 0x48A6 DUP2 PUSH2 0x486A JUMP JUMPDEST SWAP1 POP SWAP2 SWAP1 POP JUMP JUMPDEST PUSH32 0x494E56414C49445F4953535545525F4144445245535300000000000000000000 PUSH1 0x0 DUP3 ADD MSTORE POP JUMP JUMPDEST PUSH1 0x0 PUSH2 0x48E3 PUSH1 0x16 DUP4 PUSH2 0x3EA3 JUMP JUMPDEST SWAP2 POP PUSH2 0x48EE DUP3 PUSH2 0x48AD JUMP JUMPDEST PUSH1 0x20 DUP3 ADD SWAP1 POP SWAP2 SWAP1 POP JUMP JUMPDEST PUSH1 0x0 PUSH1 0x20 DUP3 ADD SWAP1 POP DUP2 DUP2 SUB PUSH1 0x0 DUP4 ADD MSTORE PUSH2 0x4912 DUP2 PUSH2 0x48D6 JUMP JUMPDEST SWAP1 POP SWAP2 SWAP1 POP JUMP JUMPDEST PUSH32 0x494E56414C49445F4445414C5F53544154555300000000000000000000000000 PUSH1 0x0 DUP3 ADD MSTORE POP JUMP JUMPDEST PUSH1 0x0 PUSH2 0x494F PUSH1 0x13 DUP4 PUSH2 0x3EA3 JUMP JUMPDEST SWAP2 POP PUSH2 0x495A DUP3 PUSH2 0x4919 JUMP JUMPDEST PUSH1 0x20 DUP3 ADD SWAP1 POP SWAP2 SWAP1 POP JUMP JUMPDEST PUSH1 0x0 PUSH1 0x20 DUP3 ADD SWAP1 POP DUP2 DUP2 SUB PUSH1 0x0 DUP4 ADD MSTORE PUSH2 0x497E DUP2 PUSH2 0x4942 JUMP JUMPDEST SWAP1 POP SWAP2 SWAP1 POP JUMP JUMPDEST PUSH1 0x0 DUP1 REVERT JUMPDEST PUSH1 0x0 DUP1 REVERT JUMPDEST PUSH1 0x0 DUP1 REVERT JUMPDEST PUSH1 0x0 DUP1 DUP4 CALLDATALOAD PUSH1 0x1 PUSH1 0x20 SUB DUP5 CALLDATASIZE SUB SUB DUP2 SLT PUSH2 0x49B1 JUMPI PUSH2 0x49B0 PUSH2 0x4985 JUMP JUMPDEST JUMPDEST DUP1 DUP5 ADD SWAP3 POP DUP3 CALLDATALOAD SWAP2 POP PUSH8 0xFFFFFFFFFFFFFFFF DUP3 GT ISZERO PUSH2 0x49D3 JUMPI PUSH2 0x49D2 PUSH2 0x498A JUMP JUMPDEST JUMPDEST PUSH1 0x20 DUP4 ADD SWAP3 POP PUSH1 0x1 DUP3 MUL CALLDATASIZE SUB DUP4 SGT ISZERO PUSH2 0x49EF JUMPI PUSH2 0x49EE PUSH2 0x498F JUMP JUMPDEST JUMPDEST POP SWAP3 POP SWAP3 SWAP1 POP JUMP JUMPDEST PUSH1 0x0 DUP3 SWAP1 POP SWAP3 SWAP2 POP POP JUMP JUMPDEST PUSH32 0x4E487B7100000000000000000000000000000000000000000000000000000000 PUSH1 0x0 MSTORE PUSH1 0x22 PUSH1 0x4 MSTORE PUSH1 0x24 PUSH1 0x0 REVERT JUMPDEST PUSH1 0x0 PUSH1 0x2 DUP3 DIV SWAP1 POP PUSH1 0x1 DUP3 AND DUP1 PUSH2 0x4A49 JUMPI PUSH1 0x7F DUP3 AND SWAP2 POP JUMPDEST PUSH1 0x20 DUP3 LT DUP2 SUB PUSH2 0x4A5C JUMPI PUSH2 0x4A5B PUSH2 0x4A02 JUMP JUMPDEST JUMPDEST POP SWAP2 SWAP1 POP JUMP JUMPDEST PUSH1 0x0 DUP2 SWAP1 POP DUP2 PUSH1 0x0 MSTORE PUSH1 0x20 PUSH1 0x0 KECCAK256 SWAP1 POP SWAP2 SWAP1 POP JUMP JUMPDEST PUSH1 0x0 PUSH1 0x20 PUSH1 0x1F DUP4 ADD DIV SWAP1 POP SWAP2 SWAP1 POP JUMP JUMPDEST PUSH1 0x0 DUP3 DUP3 SHL SWAP1 POP SWAP3 SWAP2 POP POP JUMP JUMPDEST PUSH1 0x0 PUSH1 0x8 DUP4 MUL PUSH2 0x4AC4 PUSH32 0xFFFFFFFFFFFFFFFFFFFFFFFFFFFFFFFFFFFFFFFFFFFFFFFFFFFFFFFFFFFFFFFF DUP3 PUSH2 0x4A87 JUMP JUMPDEST PUSH2 0x4ACE DUP7 DUP4 PUSH2 0x4A87 JUMP JUMPDEST SWAP6 POP DUP1 NOT DUP5 AND SWAP4 POP DUP1 DUP7 AND DUP5 OR SWAP3 POP POP POP SWAP4 SWAP3 POP POP POP JUMP JUMPDEST PUSH1 0x0 DUP2 SWAP1 POP SWAP2 SWAP1 POP JUMP JUMPDEST PUSH1 0x0 PUSH2 0x4B0B PUSH2 0x4B06 PUSH2 0x4B01 DUP5 PUSH2 0x36C7 JUMP JUMPDEST PUSH2 0x4AE6 JUMP JUMPDEST PUSH2 0x36C7 JUMP JUMPDEST SWAP1 POP SWAP2 SWAP1 POP JUMP JUMPDEST PUSH1 0x0 DUP2 SWAP1 POP SWAP2 SWAP1 POP JUMP JUMPDEST PUSH2 0x4B25 DUP4 PUSH2 0x4AF0 JUMP JUMPDEST PUSH2 0x4B39 PUSH2 0x4B31 DUP3 PUSH2 0x4B12 JUMP JUMPDEST DUP5 DUP5 SLOAD PUSH2 0x4A94 JUMP JUMPDEST DUP3 SSTORE POP POP POP POP JUMP JUMPDEST PUSH1 0x0 SWAP1 JUMP JUMPDEST PUSH2 0x4B4E PUSH2 0x4B41 JUMP JUMPDEST PUSH2 0x4B59 DUP2 DUP5 DUP5 PUSH2 0x4B1C JUMP JUMPDEST POP POP POP JUMP JUMPDEST JUMPDEST DUP2 DUP2 LT ISZERO PUSH2 0x4B7D JUMPI PUSH2 0x4B72 PUSH1 0x0 DUP3 PUSH2 0x4B46 JUMP JUMPDEST PUSH1 0x1 DUP2 ADD SWAP1 POP PUSH2 0x4B5F JUMP JUMPDEST POP POP JUMP JUMPDEST PUSH1 0x1F DUP3 GT ISZERO PUSH2 0x4BC2 JUMPI PUSH2 0x4B93 DUP2 PUSH2 0x4A62 JUMP JUMPDEST PUSH2 0x4B9C DUP5 PUSH2 0x4A77 JUMP JUMPDEST DUP2 ADD PUSH1 0x20 DUP6 LT ISZERO PUSH2 0x4BAB JUMPI DUP2 SWAP1 POP JUMPDEST PUSH2 0x4BBF PUSH2 0x4BB7 DUP6 PUSH2 0x4A77 JUMP JUMPDEST DUP4 ADD DUP3 PUSH2 0x4B5E JUMP JUMPDEST POP POP JUMPDEST POP POP POP JUMP JUMPDEST PUSH1 0x0 DUP3 DUP3 SHR SWAP1 POP SWAP3 SWAP2 POP POP JUMP JUMPDEST PUSH1 0x0 PUSH2 0x4BE5 PUSH1 0x0 NOT DUP5 PUSH1 0x8 MUL PUSH2 0x4BC7 JUMP JUMPDEST NOT DUP1 DUP4 AND SWAP2 POP POP SWAP3 SWAP2 POP POP JUMP JUMPDEST PUSH1 0x0 PUSH2 0x4BFE DUP4 DUP4 PUSH2 0x4BD4 JUMP JUMPDEST SWAP2 POP DUP3 PUSH1 0x2 MUL DUP3 OR SWAP1 POP SWAP3 SWAP2 POP POP JUMP JUMPDEST PUSH2 0x4C18 DUP4 DUP4 PUSH2 0x49F7 JUMP JUMPDEST PUSH8 0xFFFFFFFFFFFFFFFF DUP2 GT ISZERO PUSH2 0x4C31 JUMPI PUSH2 0x4C30 PUSH2 0x3540 JUMP JUMPDEST JUMPDEST PUSH2 0x4C3B DUP3 SLOAD PUSH2 0x4A31 JUMP JUMPDEST PUSH2 0x4C46 DUP3 DUP3 DUP6 PUSH2 0x4B81 JUMP JUMPDEST PUSH1 0x0 PUSH1 0x1F DUP4 GT PUSH1 0x1 DUP2 EQ PUSH2 0x4C75 JUMPI PUSH1 0x0 DUP5 ISZERO PUSH2 0x4C63 JUMPI DUP3 DUP8 ADD CALLDATALOAD SWAP1 POP JUMPDEST PUSH2 0x4C6D DUP6 DUP3 PUSH2 0x4BF2 JUMP JUMPDEST DUP7 SSTORE POP PUSH2 0x4CD5 JUMP JUMPDEST PUSH1 0x1F NOT DUP5 AND PUSH2 0x4C83 DUP7 PUSH2 0x4A62 JUMP JUMPDEST PUSH1 0x0 JUMPDEST DUP3 DUP2 LT ISZERO PUSH2 0x4CAB JUMPI DUP5 DUP10 ADD CALLDATALOAD DUP3 SSTORE PUSH1 0x1 DUP3 ADD SWAP2 POP PUSH1 0x20 DUP6 ADD SWAP5 POP PUSH1 0x20 DUP2 ADD SWAP1 POP PUSH2 0x4C86 JUMP JUMPDEST DUP7 DUP4 LT ISZERO PUSH2 0x4CC8 JUMPI DUP5 DUP10 ADD CALLDATALOAD PUSH2 0x4CC4 PUSH1 0x1F DUP10 AND DUP3 PUSH2 0x4BD4 JUMP JUMPDEST DUP4 SSTORE POP JUMPDEST PUSH1 0x1 PUSH1 0x2 DUP9 MUL ADD DUP9 SSTORE POP POP POP JUMPDEST POP POP POP POP POP POP POP JUMP JUMPDEST PUSH2 0x4CE9 DUP4 DUP4 DUP4 PUSH2 0x4C0E JUMP JUMPDEST POP POP POP JUMP JUMPDEST PUSH1 0x0 DUP2 CALLDATALOAD PUSH2 0x4CFB DUP2 PUSH2 0x34F9 JUMP JUMPDEST DUP1 SWAP2 POP POP SWAP2 SWAP1 POP JUMP JUMPDEST PUSH1 0x0 DUP2 PUSH1 0x0 SHL SWAP1 POP SWAP2 SWAP1 POP JUMP JUMPDEST PUSH1 0x0 PUSH20 0xFFFFFFFFFFFFFFFFFFFFFFFFFFFFFFFFFFFFFFFF PUSH2 0x4D31 DUP5 PUSH2 0x4D04 JUMP JUMPDEST SWAP4 POP DUP1 NOT DUP4 AND SWAP3 POP DUP1 DUP5 AND DUP4 OR SWAP2 POP POP SWAP3 SWAP2 POP POP JUMP JUMPDEST PUSH1 0x0 PUSH2 0x4D62 PUSH2 0x4D5D PUSH2 0x4D58 DUP5 PUSH2 0x34C7 JUMP JUMPDEST PUSH2 0x4AE6 JUMP JUMPDEST PUSH2 0x34C7 JUMP JUMPDEST SWAP1 POP SWAP2 SWAP1 POP JUMP JUMPDEST PUSH1 0x0 PUSH2 0x4D74 DUP3 PUSH2 0x4D47 JUMP JUMPDEST SWAP1 POP SWAP2 SWAP1 POP JUMP JUMPDEST PUSH1 0x0 PUSH2 0x4D86 DUP3 PUSH2 0x4D69 JUMP JUMPDEST SWAP1 POP SWAP2 SWAP1 POP JUMP JUMPDEST PUSH1 0x0 DUP2 SWAP1 POP SWAP2 SWAP1 POP JUMP JUMPDEST PUSH2 0x4DA0 DUP3 PUSH2 0x4D7B JUMP JUMPDEST PUSH2 0x4DB3 PUSH2 0x4DAC DUP3 PUSH2 0x4D8D JUMP JUMPDEST DUP4 SLOAD PUSH2 0x4D11 JUMP JUMPDEST DUP3 SSTORE POP POP POP JUMP JUMPDEST PUSH1 0x0 DUP2 CALLDATALOAD PUSH2 0x4DC7 DUP2 PUSH2 0x37BC JUMP JUMPDEST DUP1 SWAP2 POP POP SWAP2 SWAP1 POP JUMP JUMPDEST PUSH1 0x0 PUSH32 0xFFFFFFFFFFFFFFFFFFFFFFFFFFFFFFFFFFFFFFFFFFFFFFFFFFFFFFFFFFFFFFFF PUSH2 0x4DFC DUP5 PUSH2 0x4D04 JUMP JUMPDEST SWAP4 POP DUP1 NOT DUP4 AND SWAP3 POP DUP1 DUP5 AND DUP4 OR SWAP2 POP POP SWAP3 SWAP2 POP POP JUMP JUMPDEST PUSH2 0x4E1B DUP3 PUSH2 0x4AF0 JUMP JUMPDEST PUSH2 0x4E2E PUSH2 0x4E27 DUP3 PUSH2 0x4B12 JUMP JUMPDEST DUP4 SLOAD PUSH2 0x4DD0 JUMP JUMPDEST DUP3 SSTORE POP POP POP JUMP JUMPDEST PUSH2 0x4E3E DUP2 PUSH2 0x3B3B JUMP JUMPDEST DUP2 EQ PUSH2 0x4E49 JUMPI PUSH1 0x0 DUP1 REVERT JUMPDEST POP JUMP JUMPDEST PUSH1 0x0 DUP2 CALLDATALOAD PUSH2 0x4E59 DUP2 PUSH2 0x4E35 JUMP JUMPDEST DUP1 SWAP2 POP POP SWAP2 SWAP1 POP JUMP JUMPDEST PUSH1 0x0 DUP2 PUSH1 0xA0 SHL SWAP1 POP SWAP2 SWAP1 POP JUMP JUMPDEST PUSH1 0x0 PUSH21 0xFF0000000000000000000000000000000000000000 PUSH2 0x4E90 DUP5 PUSH2 0x4E62 JUMP JUMPDEST SWAP4 POP DUP1 NOT DUP4 AND SWAP3 POP DUP1 DUP5 AND DUP4 OR SWAP2 POP POP SWAP3 SWAP2 POP POP JUMP JUMPDEST PUSH1 0x0 PUSH2 0x4EC1 PUSH2 0x4EBC PUSH2 0x4EB7 DUP5 PUSH2 0x3B3B JUMP JUMPDEST PUSH2 0x4AE6 JUMP JUMPDEST PUSH2 0x3B3B JUMP JUMPDEST SWAP1 POP SWAP2 SWAP1 POP JUMP JUMPDEST PUSH1 0x0 DUP2 SWAP1 POP SWAP2 SWAP1 POP JUMP JUMPDEST PUSH2 0x4EDB DUP3 PUSH2 0x4EA6 JUMP JUMPDEST PUSH2 0x4EEE PUSH2 0x4EE7 DUP3 PUSH2 0x4EC8 JUMP JUMPDEST DUP4 SLOAD PUSH2 0x4E6F JUMP JUMPDEST DUP3 SSTORE POP POP POP JUMP JUMPDEST PUSH1 0x6 DUP2 LT PUSH2 0x4F02 JUMPI PUSH1 0x0 DUP1 REVERT JUMPDEST POP JUMP JUMPDEST PUSH1 0x0 DUP2 CALLDATALOAD PUSH2 0x4F12 DUP2 PUSH2 0x4EF5 JUMP JUMPDEST DUP1 SWAP2 POP POP SWAP2 SWAP1 POP JUMP JUMPDEST PUSH1 0x0 DUP2 PUSH1 0xA8 SHL SWAP1 POP SWAP2 SWAP1 POP JUMP JUMPDEST PUSH1 0x0 PUSH22 0xFF000000000000000000000000000000000000000000 PUSH2 0x4F4A DUP5 PUSH2 0x4F1B JUMP JUMPDEST SWAP4 POP DUP1 NOT DUP4 AND SWAP3 POP DUP1 DUP5 AND DUP4 OR SWAP2 POP POP SWAP3 SWAP2 POP POP JUMP JUMPDEST PUSH1 0x0 PUSH2 0x4F6B DUP3 PUSH2 0x3B9A JUMP JUMPDEST SWAP1 POP SWAP2 SWAP1 POP JUMP JUMPDEST PUSH1 0x0 DUP2 SWAP1 POP SWAP2 SWAP1 POP JUMP JUMPDEST PUSH2 0x4F85 DUP3 PUSH2 0x4F60 JUMP JUMPDEST PUSH2 0x4F98 PUSH2 0x4F91 DUP3 PUSH2 0x4F72 JUMP JUMPDEST DUP4 SLOAD PUSH2 0x4F28 JUMP JUMPDEST DUP3 SSTORE POP POP POP JUMP JUMPDEST PUSH1 0x0 DUP2 ADD PUSH1 0x0 DUP4 ADD PUSH2 0x4FB1 DUP2 DUP6 PUSH2 0x4994 JUMP JUMPDEST PUSH2 0x4FBC DUP2 DUP4 DUP7 PUSH2 0x4CDE JUMP JUMPDEST POP POP POP POP PUSH1 0x1 DUP2 ADD PUSH1 0x20 DUP4 ADD PUSH2 0x4FD2 DUP2 DUP6 PUSH2 0x4994 JUMP JUMPDEST PUSH2 0x4FDD DUP2 DUP4 DUP7 PUSH2 0x4CDE JUMP JUMPDEST POP POP POP POP PUSH1 0x2 DUP2 ADD PUSH1 0x40 DUP4 ADD DUP1 PUSH2 0x4FF3 DUP2 PUSH2 0x4CEE JUMP JUMPDEST SWAP1 POP PUSH2 0x4FFF DUP2 DUP5 PUSH2 0x4D97 JUMP JUMPDEST POP POP POP PUSH1 0x3 DUP2 ADD PUSH1 0x60 DUP4 ADD DUP1 PUSH2 0x5014 DUP2 PUSH2 0x4DBA JUMP JUMPDEST SWAP1 POP PUSH2 0x5020 DUP2 DUP5 PUSH2 0x4E12 JUMP JUMPDEST POP POP POP PUSH1 0x4 DUP2 ADD PUSH1 0x80 DUP4 ADD DUP1 PUSH2 0x5035 DUP2 PUSH2 0x4DBA JUMP JUMPDEST SWAP1 POP PUSH2 0x5041 DUP2 DUP5 PUSH2 0x4E12 JUMP JUMPDEST POP POP POP PUSH1 0x5 DUP2 ADD PUSH1 0xA0 DUP4 ADD DUP1 PUSH2 0x5056 DUP2 PUSH2 0x4DBA JUMP JUMPDEST SWAP1 POP PUSH2 0x5062 DUP2 DUP5 PUSH2 0x4E12 JUMP JUMPDEST POP POP POP PUSH1 0x6 DUP2 ADD PUSH1 0xC0 DUP4 ADD DUP1 PUSH2 0x5077 DUP2 PUSH2 0x4DBA JUMP JUMPDEST SWAP1 POP PUSH2 0x5083 DUP2 DUP5 PUSH2 0x4E12 JUMP JUMPDEST POP POP POP PUSH1 0x7 DUP2 ADD PUSH1 0xE0 DUP4 ADD DUP1 PUSH2 0x5098 DUP2 PUSH2 0x4DBA JUMP JUMPDEST SWAP1 POP PUSH2 0x50A4 DUP2 DUP5 PUSH2 0x4E12 JUMP JUMPDEST POP POP POP PUSH1 0x8 DUP2 ADD PUSH2 0x100 DUP4 ADD DUP1 PUSH2 0x50BA DUP2 PUSH2 0x4DBA JUMP JUMPDEST SWAP1 POP PUSH2 0x50C6 DUP2 DUP5 PUSH2 0x4E12 JUMP JUMPDEST POP POP POP PUSH1 0x9 DUP2 ADD PUSH2 0x120 DUP4 ADD DUP1 PUSH2 0x50DC DUP2 PUSH2 0x4CEE JUMP JUMPDEST SWAP1 POP PUSH2 0x50E8 DUP2 DUP5 PUSH2 0x4D97 JUMP JUMPDEST POP POP POP PUSH1 0x9 DUP2 ADD PUSH2 0x140 DUP4 ADD DUP1 PUSH2 0x50FE DUP2 PUSH2 0x4E4C JUMP JUMPDEST SWAP1 POP PUSH2 0x510A DUP2 DUP5 PUSH2 0x4ED2 JUMP JUMPDEST POP POP POP PUSH1 0x9 DUP2 ADD PUSH2 0x160 DUP4 ADD DUP1 PUSH2 0x5120 DUP2 PUSH2 0x4F05 JUMP JUMPDEST SWAP1 POP PUSH2 0x512C DUP2 DUP5 PUSH2 0x4F7C JUMP JUMPDEST POP POP POP POP POP JUMP JUMPDEST PUSH2 0x513D DUP3 DUP3 PUSH2 0x4F9F JUMP JUMPDEST POP POP JUMP JUMPDEST PUSH1 0x0 DUP2 SLOAD SWAP1 POP PUSH2 0x5150 DUP2 PUSH2 0x4A31 JUMP JUMPDEST SWAP1 POP SWAP2 SWAP1 POP JUMP JUMPDEST DUP2 DUP2 SUB PUSH2 0x5165 JUMPI POP POP PUSH2 0x523D JUMP JUMPDEST PUSH2 0x516E DUP3 PUSH2 0x5141 JUMP JUMPDEST PUSH8 0xFFFFFFFFFFFFFFFF DUP2 GT ISZERO PUSH2 0x5187 JUMPI PUSH2 0x5186 PUSH2 0x3540 JUMP JUMPDEST JUMPDEST PUSH2 0x5191 DUP3 SLOAD PUSH2 0x4A31 JUMP JUMPDEST PUSH2 0x519C DUP3 DUP3 DUP6 PUSH2 0x4B81 JUMP JUMPDEST PUSH1 0x0 PUSH1 0x1F DUP4 GT PUSH1 0x1 DUP2 EQ PUSH2 0x51CB JUMPI PUSH1 0x0 DUP5 ISZERO PUSH2 0x51B9 JUMPI DUP3 DUP8 ADD SLOAD SWAP1 POP JUMPDEST PUSH2 0x51C3 DUP6 DUP3 PUSH2 0x4BF2 JUMP JUMPDEST DUP7 SSTORE POP PUSH2 0x5236 JUMP JUMPDEST PUSH1 0x1F NOT DUP5 AND PUSH2 0x51D9 DUP8 PUSH2 0x4A62 JUMP JUMPDEST SWAP7 POP PUSH2 0x51E4 DUP7 PUSH2 0x4A62 JUMP JUMPDEST PUSH1 0x0 JUMPDEST DUP3 DUP2 LT ISZERO PUSH2 0x520C JUMPI DUP5 DUP10 ADD SLOAD DUP3 SSTORE PUSH1 0x1 DUP3 ADD SWAP2 POP PUSH1 0x1 DUP6 ADD SWAP5 POP PUSH1 0x20 DUP2 ADD SWAP1 POP PUSH2 0x51E7 JUMP JUMPDEST DUP7 DUP4 LT ISZERO PUSH2 0x5229 JUMPI DUP5 DUP10 ADD SLOAD PUSH2 0x5225 PUSH1 0x1F DUP10 AND DUP3 PUSH2 0x4BD4 JUMP JUMPDEST DUP4 SSTORE POP JUMPDEST PUSH1 0x1 PUSH1 0x2 DUP9 MUL ADD DUP9 SSTORE POP POP POP JUMPDEST POP POP POP POP POP POP JUMPDEST JUMP JUMPDEST PUSH1 0x0 DUP1 REVERT JUMPDEST PUSH1 0x0 DUP1 REVERT JUMPDEST PUSH1 0x0 DUP1 REVERT JUMPDEST PUSH1 0x0 DUP1 DUP4 CALLDATALOAD PUSH1 0x1 PUSH1 0x20 SUB DUP5 CALLDATASIZE SUB SUB DUP2 SLT PUSH2 0x526B JUMPI PUSH2 0x526A PUSH2 0x5249 JUMP JUMPDEST JUMPDEST DUP4 DUP2 ADD SWAP3 POP DUP3 CALLDATALOAD SWAP2 POP PUSH1 0x20 DUP4 ADD SWAP3 POP PUSH8 0xFFFFFFFFFFFFFFFF DUP3 GT ISZERO PUSH2 0x5293 JUMPI PUSH2 0x5292 PUSH2 0x523F JUMP JUMPDEST JUMPDEST PUSH1 0x1 DUP3 MUL CALLDATASIZE SUB DUP4 SGT ISZERO PUSH2 0x52A9 JUMPI PUSH2 0x52A8 PUSH2 0x5244 JUMP JUMPDEST JUMPDEST POP SWAP3 POP SWAP3 SWAP1 POP JUMP JUMPDEST PUSH1 0x0 PUSH2 0x52BD DUP4 DUP6 PUSH2 0x39C5 JUMP JUMPDEST SWAP4 POP PUSH2 0x52CA DUP4 DUP6 DUP5 PUSH2 0x35EC JUMP JUMPDEST PUSH2 0x52D3 DUP4 PUSH2 0x352F JUMP JUMPDEST DUP5 ADD SWAP1 POP SWAP4 SWAP3 POP POP POP JUMP JUMPDEST PUSH1 0x0 PUSH2 0x52ED PUSH1 0x20 DUP5 ADD DUP5 PUSH2 0x3510 JUMP JUMPDEST SWAP1 POP SWAP3 SWAP2 POP POP JUMP JUMPDEST PUSH1 0x0 PUSH2 0x5304 PUSH1 0x20 DUP5 ADD DUP5 PUSH2 0x37D3 JUMP JUMPDEST SWAP1 POP SWAP3 SWAP2 POP POP JUMP JUMPDEST PUSH1 0x0 DUP2 CALLDATALOAD SWAP1 POP PUSH2 0x531B DUP2 PUSH2 0x4E35 JUMP JUMPDEST SWAP3 SWAP2 POP POP JUMP JUMPDEST PUSH1 0x0 PUSH2 0x5330 PUSH1 0x20 DUP5 ADD DUP5 PUSH2 0x530C JUMP JUMPDEST SWAP1 POP SWAP3 SWAP2 POP POP JUMP JUMPDEST PUSH1 0x0 DUP2 CALLDATALOAD SWAP1 POP PUSH2 0x5347 DUP2 PUSH2 0x4EF5 JUMP JUMPDEST SWAP3 SWAP2 POP POP JUMP JUMPDEST PUSH1 0x0 PUSH2 0x535C PUSH1 0x20 DUP5 ADD DUP5 PUSH2 0x5338 JUMP JUMPDEST SWAP1 POP SWAP3 SWAP2 POP POP JUMP JUMPDEST PUSH1 0x0 PUSH2 0x180 DUP4 ADD PUSH2 0x5378 PUSH1 0x0 DUP5 ADD DUP5 PUSH2 0x524E JUMP JUMPDEST DUP6 DUP4 SUB PUSH1 0x0 DUP8 ADD MSTORE PUSH2 0x538B DUP4 DUP3 DUP5 PUSH2 0x52B1 JUMP JUMPDEST SWAP3 POP POP POP PUSH2 0x539C PUSH1 0x20 DUP5 ADD DUP5 PUSH2 0x524E JUMP JUMPDEST DUP6 DUP4 SUB PUSH1 0x20 DUP8 ADD MSTORE PUSH2 0x53AF DUP4 DUP3 DUP5 PUSH2 0x52B1 JUMP JUMPDEST SWAP3 POP POP POP PUSH2 0x53C0 PUSH1 0x40 DUP5 ADD DUP5 PUSH2 0x52DE JUMP JUMPDEST PUSH2 0x53CD PUSH1 0x40 DUP7 ADD DUP3 PUSH2 0x3B1D JUMP JUMPDEST POP PUSH2 0x53DB PUSH1 0x60 DUP5 ADD DUP5 PUSH2 0x52F5 JUMP JUMPDEST PUSH2 0x53E8 PUSH1 0x60 DUP7 ADD DUP3 PUSH2 0x3B2C JUMP JUMPDEST POP PUSH2 0x53F6 PUSH1 0x80 DUP5 ADD DUP5 PUSH2 0x52F5 JUMP JUMPDEST PUSH2 0x5403 PUSH1 0x80 DUP7 ADD DUP3 PUSH2 0x3B2C JUMP JUMPDEST POP PUSH2 0x5411 PUSH1 0xA0 DUP5 ADD DUP5 PUSH2 0x52F5 JUMP JUMPDEST PUSH2 0x541E PUSH1 0xA0 DUP7 ADD DUP3 PUSH2 0x3B2C JUMP JUMPDEST POP PUSH2 0x542C PUSH1 0xC0 DUP5 ADD DUP5 PUSH2 0x52F5 JUMP JUMPDEST PUSH2 0x5439 PUSH1 0xC0 DUP7 ADD DUP3 PUSH2 0x3B2C JUMP JUMPDEST POP PUSH2 0x5447 PUSH1 0xE0 DUP5 ADD DUP5 PUSH2 0x52F5 JUMP JUMPDEST PUSH2 0x5454 PUSH1 0xE0 DUP7 ADD DUP3 PUSH2 0x3B2C JUMP JUMPDEST POP PUSH2 0x5463 PUSH2 0x100 DUP5 ADD DUP5 PUSH2 0x52F5 JUMP JUMPDEST PUSH2 0x5471 PUSH2 0x100 DUP7 ADD DUP3 PUSH2 0x3B2C JUMP JUMPDEST POP PUSH2 0x5480 PUSH2 0x120 DUP5 ADD DUP5 PUSH2 0x52DE JUMP JUMPDEST PUSH2 0x548E PUSH2 0x120 DUP7 ADD DUP3 PUSH2 0x3B1D JUMP JUMPDEST POP PUSH2 0x549D PUSH2 0x140 DUP5 ADD DUP5 PUSH2 0x5321 JUMP JUMPDEST PUSH2 0x54AB PUSH2 0x140 DUP7 ADD DUP3 PUSH2 0x3B48 JUMP JUMPDEST POP PUSH2 0x54BA PUSH2 0x160 DUP5 ADD DUP5 PUSH2 0x534D JUMP JUMPDEST PUSH2 0x54C8 PUSH2 0x160 DUP7 ADD DUP3 PUSH2 0x3BBF JUMP JUMPDEST POP DUP1 SWAP2 POP POP SWAP3 SWAP2 POP POP JUMP JUMPDEST PUSH1 0x0 PUSH1 0x40 DUP3 ADD SWAP1 POP DUP2 DUP2 SUB PUSH1 0x0 DUP4 ADD MSTORE PUSH2 0x54EE DUP2 DUP6 DUP8 PUSH2 0x456D JUMP JUMPDEST SWAP1 POP DUP2 DUP2 SUB PUSH1 0x20 DUP4 ADD MSTORE PUSH2 0x5502 DUP2 DUP5 PUSH2 0x5364 JUMP JUMPDEST SWAP1 POP SWAP5 SWAP4 POP POP POP POP JUMP JUMPDEST PUSH32 0x4E4F545F4953535545525F4E4F525F544F504F535F4D414E4147455200000000 PUSH1 0x0 DUP3 ADD MSTORE POP JUMP JUMPDEST PUSH1 0x0 PUSH2 0x5542 PUSH1 0x1C DUP4 PUSH2 0x3EA3 JUMP JUMPDEST SWAP2 POP PUSH2 0x554D DUP3 PUSH2 0x550C JUMP JUMPDEST PUSH1 0x20 DUP3 ADD SWAP1 POP SWAP2 SWAP1 POP JUMP JUMPDEST PUSH1 0x0 PUSH1 0x20 DUP3 ADD SWAP1 POP DUP2 DUP2 SUB PUSH1 0x0 DUP4 ADD MSTORE PUSH2 0x5571 DUP2 PUSH2 0x5535 JUMP JUMPDEST SWAP1 POP SWAP2 SWAP1 POP JUMP JUMPDEST PUSH32 0x494E56414C49445F544F4B454E5F414444524553530000000000000000000000 PUSH1 0x0 DUP3 ADD MSTORE POP JUMP JUMPDEST PUSH1 0x0 PUSH2 0x55AE PUSH1 0x15 DUP4 PUSH2 0x3EA3 JUMP JUMPDEST SWAP2 POP PUSH2 0x55B9 DUP3 PUSH2 0x5578 JUMP JUMPDEST PUSH1 0x20 DUP3 ADD SWAP1 POP SWAP2 SWAP1 POP JUMP JUMPDEST PUSH1 0x0 PUSH1 0x20 DUP3 ADD SWAP1 POP DUP2 DUP2 SUB PUSH1 0x0 DUP4 ADD MSTORE PUSH2 0x55DD DUP2 PUSH2 0x55A1 JUMP JUMPDEST SWAP1 POP SWAP2 SWAP1 POP JUMP JUMPDEST PUSH1 0x0 PUSH1 0x60 DUP3 ADD SWAP1 POP DUP2 DUP2 SUB PUSH1 0x0 DUP4 ADD MSTORE PUSH2 0x55FE DUP2 DUP7 PUSH2 0x3EB4 JUMP JUMPDEST SWAP1 POP PUSH2 0x560D PUSH1 0x20 DUP4 ADD DUP6 PUSH2 0x3732 JUMP JUMPDEST PUSH2 0x561A PUSH1 0x40 DUP4 ADD DUP5 PUSH2 0x3732 JUMP JUMPDEST SWAP5 SWAP4 POP POP POP POP JUMP JUMPDEST PUSH32 0x4F4E4C595F544F504F535F4D414E414745520000000000000000000000000000 PUSH1 0x0 DUP3 ADD MSTORE POP JUMP JUMPDEST PUSH1 0x0 PUSH2 0x5658 PUSH1 0x12 DUP4 PUSH2 0x3EA3 JUMP JUMPDEST SWAP2 POP PUSH2 0x5663 DUP3 PUSH2 0x5622 JUMP JUMPDEST PUSH1 0x20 DUP3 ADD SWAP1 POP SWAP2 SWAP1 POP JUMP JUMPDEST PUSH1 0x0 PUSH1 0x20 DUP3 ADD SWAP1 POP DUP2 DUP2 SUB PUSH1 0x0 DUP4 ADD MSTORE PUSH2 0x5687 DUP2 PUSH2 0x564B JUMP JUMPDEST SWAP1 POP SWAP2 SWAP1 POP JUMP JUMPDEST PUSH1 0x0 PUSH2 0x160 DUP4 ADD PUSH2 0x56A2 PUSH1 0x0 DUP5 ADD DUP5 PUSH2 0x524E JUMP JUMPDEST DUP6 DUP4 SUB PUSH1 0x0 DUP8 ADD MSTORE PUSH2 0x56B5 DUP4 DUP3 DUP5 PUSH2 0x52B1 JUMP JUMPDEST SWAP3 POP POP POP PUSH2 0x56C6 PUSH1 0x20 DUP5 ADD DUP5 PUSH2 0x524E JUMP JUMPDEST DUP6 DUP4 SUB PUSH1 0x20 DUP8 ADD MSTORE PUSH2 0x56D9 DUP4 DUP3 DUP5 PUSH2 0x52B1 JUMP JUMPDEST SWAP3 POP POP POP PUSH2 0x56EA PUSH1 0x40 DUP5 ADD DUP5 PUSH2 0x524E JUMP JUMPDEST DUP6 DUP4 SUB PUSH1 0x40 DUP8 ADD MSTORE PUSH2 0x56FD DUP4 DUP3 DUP5 PUSH2 0x52B1 JUMP JUMPDEST SWAP3 POP POP POP PUSH2 0x570E PUSH1 0x60 DUP5 ADD DUP5 PUSH2 0x52DE JUMP JUMPDEST PUSH2 0x571B PUSH1 0x60 DUP7 ADD DUP3 PUSH2 0x3B1D JUMP JUMPDEST POP PUSH2 0x5729 PUSH1 0x80 DUP5 ADD DUP5 PUSH2 0x52F5 JUMP JUMPDEST PUSH2 0x5736 PUSH1 0x80 DUP7 ADD DUP3 PUSH2 0x3B2C JUMP JUMPDEST POP PUSH2 0x5744 PUSH1 0xA0 DUP5 ADD DUP5 PUSH2 0x52F5 JUMP JUMPDEST PUSH2 0x5751 PUSH1 0xA0 DUP7 ADD DUP3 PUSH2 0x3B2C JUMP JUMPDEST POP PUSH2 0x575F PUSH1 0xC0 DUP5 ADD DUP5 PUSH2 0x52F5 JUMP JUMPDEST PUSH2 0x576C PUSH1 0xC0 DUP7 ADD DUP3 PUSH2 0x3B2C JUMP JUMPDEST POP PUSH2 0x577A PUSH1 0xE0 DUP5 ADD DUP5 PUSH2 0x5321 JUMP JUMPDEST PUSH2 0x5787 PUSH1 0xE0 DUP7 ADD DUP3 PUSH2 0x3B48 JUMP JUMPDEST POP PUSH2 0x5796 PUSH2 0x100 DUP5 ADD DUP5 PUSH2 0x52F5 JUMP JUMPDEST PUSH2 0x57A4 PUSH2 0x100 DUP7 ADD DUP3 PUSH2 0x3B2C JUMP JUMPDEST POP PUSH2 0x57B3 PUSH2 0x120 DUP5 ADD DUP5 PUSH2 0x52F5 JUMP JUMPDEST PUSH2 0x57C1 PUSH2 0x120 DUP7 ADD DUP3 PUSH2 0x3B2C JUMP JUMPDEST POP PUSH2 0x57D0 PUSH2 0x140 DUP5 ADD DUP5 PUSH2 0x52F5 JUMP JUMPDEST PUSH2 0x57DE PUSH2 0x140 DUP7 ADD DUP3 PUSH2 0x3B2C JUMP JUMPDEST POP DUP1 SWAP2 POP POP SWAP3 SWAP2 POP POP JUMP JUMPDEST PUSH1 0x0 PUSH1 0x20 DUP3 ADD SWAP1 POP DUP2 DUP2 SUB PUSH1 0x0 DUP4 ADD MSTORE PUSH2 0x5803 DUP2 DUP5 PUSH2 0x568E JUMP JUMPDEST SWAP1 POP SWAP3 SWAP2 POP POP JUMP JUMPDEST PUSH1 0x0 PUSH1 0xFF PUSH2 0x5818 DUP5 PUSH2 0x4D04 JUMP JUMPDEST SWAP4 POP DUP1 NOT DUP4 AND SWAP3 POP DUP1 DUP5 AND DUP4 OR SWAP2 POP POP SWAP3 SWAP2 POP POP JUMP JUMPDEST PUSH2 0x5837 DUP3 PUSH2 0x4EA6 JUMP JUMPDEST PUSH2 0x584A PUSH2 0x5843 DUP3 PUSH2 0x4EC8 JUMP JUMPDEST DUP4 SLOAD PUSH2 0x580B JUMP JUMPDEST DUP3 SSTORE POP POP POP JUMP JUMPDEST PUSH1 0x0 DUP2 ADD PUSH1 0x0 DUP4 ADD PUSH2 0x5863 DUP2 DUP6 PUSH2 0x4994 JUMP JUMPDEST PUSH2 0x586E DUP2 DUP4 DUP7 PUSH2 0x4CDE JUMP JUMPDEST POP POP POP POP PUSH1 0x1 DUP2 ADD PUSH1 0x20 DUP4 ADD PUSH2 0x5884 DUP2 DUP6 PUSH2 0x4994 JUMP JUMPDEST PUSH2 0x588F DUP2 DUP4 DUP7 PUSH2 0x4CDE JUMP JUMPDEST POP POP POP POP PUSH1 0x2 DUP2 ADD PUSH1 0x40 DUP4 ADD PUSH2 0x58A5 DUP2 DUP6 PUSH2 0x4994 JUMP JUMPDEST PUSH2 0x58B0 DUP2 DUP4 DUP7 PUSH2 0x4CDE JUMP JUMPDEST POP POP POP POP PUSH1 0x3 DUP2 ADD PUSH1 0x60 DUP4 ADD DUP1 PUSH2 0x58C6 DUP2 PUSH2 0x4CEE JUMP JUMPDEST SWAP1 POP PUSH2 0x58D2 DUP2 DUP5 PUSH2 0x4D97 JUMP JUMPDEST POP POP POP PUSH1 0x4 DUP2 ADD PUSH1 0x80 DUP4 ADD DUP1 PUSH2 0x58E7 DUP2 PUSH2 0x4DBA JUMP JUMPDEST SWAP1 POP PUSH2 0x58F3 DUP2 DUP5 PUSH2 0x4E12 JUMP JUMPDEST POP POP POP PUSH1 0x5 DUP2 ADD PUSH1 0xA0 DUP4 ADD DUP1 PUSH2 0x5908 DUP2 PUSH2 0x4DBA JUMP JUMPDEST SWAP1 POP PUSH2 0x5914 DUP2 DUP5 PUSH2 0x4E12 JUMP JUMPDEST POP POP POP PUSH1 0x6 DUP2 ADD PUSH1 0xC0 DUP4 ADD DUP1 PUSH2 0x5929 DUP2 PUSH2 0x4DBA JUMP JUMPDEST SWAP1 POP PUSH2 0x5935 DUP2 DUP5 PUSH2 0x4E12 JUMP JUMPDEST POP POP POP PUSH1 0x7 DUP2 ADD PUSH1 0xE0 DUP4 ADD DUP1 PUSH2 0x594A DUP2 PUSH2 0x4E4C JUMP JUMPDEST SWAP1 POP PUSH2 0x5956 DUP2 DUP5 PUSH2 0x582E JUMP JUMPDEST POP POP POP PUSH1 0x8 DUP2 ADD PUSH2 0x100 DUP4 ADD DUP1 PUSH2 0x596C DUP2 PUSH2 0x4DBA JUMP JUMPDEST SWAP1 POP PUSH2 0x5978 DUP2 DUP5 PUSH2 0x4E12 JUMP JUMPDEST POP POP POP PUSH1 0x9 DUP2 ADD PUSH2 0x120 DUP4 ADD DUP1 PUSH2 0x598E DUP2 PUSH2 0x4DBA JUMP JUMPDEST SWAP1 POP PUSH2 0x599A DUP2 DUP5 PUSH2 0x4E12 JUMP JUMPDEST POP POP POP PUSH1 0xA DUP2 ADD PUSH2 0x140 DUP4 ADD DUP1 PUSH2 0x59B0 DUP2 PUSH2 0x4DBA JUMP JUMPDEST SWAP1 POP PUSH2 0x59BC DUP2 DUP5 PUSH2 0x4E12 JUMP JUMPDEST POP POP POP POP POP JUMP JUMPDEST PUSH2 0x59CD DUP3 DUP3 PUSH2 0x5851 JUMP JUMPDEST POP POP JUMP JUMPDEST PUSH32 0x494E56414C49445F434F4E54524143545F414444524553530000000000000000 PUSH1 0x0 DUP3 ADD MSTORE POP JUMP JUMPDEST PUSH1 0x0 PUSH2 0x5A07 PUSH1 0x18 DUP4 PUSH2 0x3EA3 JUMP JUMPDEST SWAP2 POP PUSH2 0x5A12 DUP3 PUSH2 0x59D1 JUMP JUMPDEST PUSH1 0x20 DUP3 ADD SWAP1 POP SWAP2 SWAP1 POP JUMP JUMPDEST PUSH1 0x0 PUSH1 0x20 DUP3 ADD SWAP1 POP DUP2 DUP2 SUB PUSH1 0x0 DUP4 ADD MSTORE PUSH2 0x5A36 DUP2 PUSH2 0x59FA JUMP JUMPDEST SWAP1 POP SWAP2 SWAP1 POP JUMP JUMPDEST PUSH32 0x4D414E4147455200000000000000000000000000000000000000000000000000 PUSH1 0x0 DUP3 ADD MSTORE POP JUMP JUMPDEST PUSH1 0x0 PUSH2 0x5A73 PUSH1 0x7 DUP4 PUSH2 0x3EA3 JUMP JUMPDEST SWAP2 POP PUSH2 0x5A7E DUP3 PUSH2 0x5A3D JUMP JUMPDEST PUSH1 0x20 DUP3 ADD SWAP1 POP SWAP2 SWAP1 POP JUMP JUMPDEST PUSH1 0x0 PUSH1 0x40 DUP3 ADD SWAP1 POP DUP2 DUP2 SUB PUSH1 0x0 DUP4 ADD MSTORE PUSH2 0x5AA2 DUP2 PUSH2 0x5A66 JUMP JUMPDEST SWAP1 POP PUSH2 0x5AB1 PUSH1 0x20 DUP4 ADD DUP5 PUSH2 0x3732 JUMP JUMPDEST SWAP3 SWAP2 POP POP JUMP INVALID LOG2 PUSH5 0x6970667358 0x22 SLT KECCAK256 PUSH5 0x6449441E4D 0x1F PUSH17 0x52A7A48838160D0A8016233F7D9E6F4362 SLOAD 0xFC 0xD5 LT 0xA7 INVALID SAR PUSH5 0x736F6C6343 STOP ADDMOD SGT STOP CALLER "},"methodIdentifiers":{"amountInvested(address,string)":"041e9b89","approveDeal(string)":"48f92ee8","bondCallContract()":"5e43522e","dealBondContracts(string)":"fe0ab4b3","dealFees()":"af9080f8","dealInvestment(string,uint256)":"499fa18a","deals(string)":"a0a57dac","getContracts()":"c3a2a93a","getDealFees()":"ff6689d0","getDealInvestment(string)":"c8d7f62e","getListOfBonds()":"f3413c4f","getListOfBondsDealIDs()":"281ddc8e","getListOfDeals()":"36f9c4da","getTotalAmounInvested(string)":"605936ea","identityRegistryContract()":"088674e0","issue(string,(string,string,string,address,uint256,uint256,uint256,uint8,uint256,uint256,uint256),address)":"507251cb","issuerDeals(address,uint256)":"49f5d1d9","issuersFundContract()":"fb90e441","redeem(string,address)":"d7c4029c","registerForDeal(string,uint256)":"0df8bfda","rejectDeal(string)":"754f399a","rolesContract()":"ca53b391","setBondContractAddress(string,address)":"1882c195","setIssuerFundContract(address)":"7bafe3d0","setManager(address)":"d0ebdbe7","submitDeal(string,(string,string,address,uint256,uint256,uint256,uint256,uint256,uint256,address,uint8,uint8))":"19662d8e","toposManager()":"7f31ed73","totalAmountInvestedForDeal(string)":"5ed7e2c1","withdrawIssuerFund(string)":"1b59122c"}}}}}