{"contracts/Topos/Bank/ToposBank.sol":{"ToposBank":{"abi":[{"inputs":[{"internalType":"address","name":"_toposManager","type":"address"},{"internalType":"address","name":"_rolesContract","type":"address"},{"internalType":"address","name":"_identityRegistryContract","type":"address"},{"internalType":"address","name":"_bondCallContract","type":"address"},{"internalType":"address","name":"_irsCallContract","type":"address"},{"internalType":"uint256","name":"_dealFees","type":"uint256"}],"stateMutability":"nonpayable","type":"constructor"},{"inputs":[{"internalType":"uint256","name":"amount","type":"uint256"}],"name":"InvalidAmount","type":"error"},{"inputs":[{"internalType":"string","name":"dealID","type":"string"}],"name":"InvalidDealStatus","type":"error"},{"anonymous":false,"inputs":[{"indexed":false,"internalType":"string","name":"_dealID","type":"string"}],"name":"BondIssue","type":"event"},{"anonymous":false,"inputs":[{"indexed":false,"internalType":"string","name":"_dealID","type":"string"}],"name":"BondRedeem","type":"event"},{"anonymous":false,"inputs":[{"indexed":false,"internalType":"string","name":"dealID","type":"string"}],"name":"DealAPproved","type":"event"},{"anonymous":false,"inputs":[{"indexed":false,"internalType":"string","name":"dealID","type":"string"}],"name":"DealARejected","type":"event"},{"anonymous":false,"inputs":[{"indexed":false,"internalType":"string","name":"dealID","type":"string"},{"components":[{"internalType":"string","name":"dealID","type":"string"},{"internalType":"string","name":"prospectusURI","type":"string"},{"internalType":"address","name":"issuerAddress","type":"address"},{"internalType":"uint256","name":"debtAmount","type":"uint256"},{"internalType":"uint256","name":"denomination","type":"uint256"},{"internalType":"uint256","name":"couponRate","type":"uint256"},{"internalType":"uint256","name":"couponFrequency","type":"uint256"},{"internalType":"uint256","name":"maturityDate","type":"uint256"},{"internalType":"uint256","name":"index","type":"uint256"},{"internalType":"address","name":"currency","type":"address"},{"internalType":"uint8","name":"couponType","type":"uint8"},{"internalType":"enum BondData.DealStatus","name":"status","type":"uint8"}],"indexed":false,"internalType":"struct BondData.Deal","name":"deal","type":"tuple"}],"name":"DealSubmitted","type":"event"},{"anonymous":false,"inputs":[{"indexed":false,"internalType":"string","name":"dealID","type":"string"},{"indexed":false,"internalType":"address","name":"investor","type":"address"}],"name":"RegisterForDeal","type":"event"},{"inputs":[{"internalType":"address","name":"","type":"address"},{"internalType":"string","name":"","type":"string"}],"name":"amountInvested","outputs":[{"internalType":"uint256","name":"amount","type":"uint256"},{"internalType":"bool","name":"hasInvested","type":"bool"},{"internalType":"uint256","name":"index","type":"uint256"}],"stateMutability":"view","type":"function"},{"inputs":[{"internalType":"string","name":"_dealID","type":"string"}],"name":"approveDeal","outputs":[],"stateMutability":"nonpayable","type":"function"},{"inputs":[],"name":"bondCallContract","outputs":[{"internalType":"address","name":"","type":"address"}],"stateMutability":"view","type":"function"},{"inputs":[{"internalType":"string","name":"","type":"string"}],"name":"dealBondContracts","outputs":[{"internalType":"address","name":"","type":"address"}],"stateMutability":"view","type":"function"},{"inputs":[],"name":"dealFees","outputs":[{"internalType":"uint256","name":"","type":"uint256"}],"stateMutability":"view","type":"function"},{"inputs":[{"internalType":"string","name":"","type":"string"},{"internalType":"uint256","name":"","type":"uint256"}],"name":"dealInvestment","outputs":[{"internalType":"address","name":"investor","type":"address"},{"internalType":"uint256","name":"amount","type":"uint256"}],"stateMutability":"view","type":"function"},{"inputs":[{"internalType":"string","name":"","type":"string"}],"name":"deals","outputs":[{"internalType":"string","name":"dealID","type":"string"},{"internalType":"string","name":"prospectusURI","type":"string"},{"internalType":"address","name":"issuerAddress","type":"address"},{"internalType":"uint256","name":"debtAmount","type":"uint256"},{"internalType":"uint256","name":"denomination","type":"uint256"},{"internalType":"uint256","name":"couponRate","type":"uint256"},{"internalType":"uint256","name":"couponFrequency","type":"uint256"},{"internalType":"uint256","name":"maturityDate","type":"uint256"},{"internalType":"uint256","name":"index","type":"uint256"},{"internalType":"address","name":"currency","type":"address"},{"internalType":"uint8","name":"couponType","type":"uint8"},{"internalType":"enum BondData.DealStatus","name":"status","type":"uint8"}],"stateMutability":"view","type":"function"},{"inputs":[{"internalType":"address","name":"_swapContract","type":"address"}],"name":"endSwapContract","outputs":[],"stateMutability":"nonpayable","type":"function"},{"inputs":[],"name":"getBenchmark","outputs":[{"internalType":"uint256","name":"","type":"uint256"}],"stateMutability":"view","type":"function"},{"inputs":[],"name":"getContracts","outputs":[{"internalType":"address","name":"manager","type":"address"},{"internalType":"address","name":"roles","type":"address"},{"internalType":"address","name":"identityRegistry","type":"address"},{"internalType":"address","name":"bondCall","type":"address"},{"internalType":"address","name":"issuerFund","type":"address"}],"stateMutability":"view","type":"function"},{"inputs":[{"internalType":"string","name":"_dealID","type":"string"}],"name":"getDeal","outputs":[{"components":[{"internalType":"string","name":"dealID","type":"string"},{"internalType":"string","name":"prospectusURI","type":"string"},{"internalType":"address","name":"issuerAddress","type":"address"},{"internalType":"uint256","name":"debtAmount","type":"uint256"},{"internalType":"uint256","name":"denomination","type":"uint256"},{"internalType":"uint256","name":"couponRate","type":"uint256"},{"internalType":"uint256","name":"couponFrequency","type":"uint256"},{"internalType":"uint256","name":"maturityDate","type":"uint256"},{"internalType":"uint256","name":"index","type":"uint256"},{"internalType":"address","name":"currency","type":"address"},{"internalType":"uint8","name":"couponType","type":"uint8"},{"internalType":"enum BondData.DealStatus","name":"status","type":"uint8"}],"internalType":"struct BondData.Deal","name":"","type":"tuple"}],"stateMutability":"view","type":"function"},{"inputs":[{"internalType":"string","name":"_dealID","type":"string"}],"name":"getDealBondContract","outputs":[{"internalType":"address","name":"","type":"address"}],"stateMutability":"view","type":"function"},{"inputs":[],"name":"getDealFees","outputs":[{"internalType":"uint256","name":"","type":"uint256"}],"stateMutability":"view","type":"function"},{"inputs":[{"internalType":"string","name":"_dealID","type":"string"}],"name":"getDealInvestment","outputs":[{"components":[{"internalType":"address","name":"investor","type":"address"},{"internalType":"uint256","name":"amount","type":"uint256"}],"internalType":"struct BondData.DealInvestment[]","name":"","type":"tuple[]"}],"stateMutability":"view","type":"function"},{"inputs":[{"internalType":"address","name":"_fixedPayerContract","type":"address"},{"internalType":"address","name":"_floatingPayerContract","type":"address"}],"name":"getIRSContract","outputs":[{"internalType":"address","name":"","type":"address"}],"stateMutability":"view","type":"function"},{"inputs":[{"internalType":"address","name":"_account","type":"address"}],"name":"getIssuerIRS","outputs":[{"components":[{"internalType":"address","name":"irsContract","type":"address"},{"internalType":"address","name":"fixedInterestPayer","type":"address"},{"internalType":"address","name":"floatingInterestPayer","type":"address"},{"internalType":"uint8","name":"ratesDecimals","type":"uint8"},{"internalType":"uint8","name":"status","type":"uint8"},{"internalType":"uint256","name":"swapRate","type":"uint256"},{"internalType":"uint256","name":"spread","type":"uint256"},{"internalType":"address","name":"assetContract","type":"address"},{"internalType":"uint256","name":"notionalAmount","type":"uint256"},{"internalType":"uint256","name":"paymentFrequency","type":"uint256"},{"internalType":"uint256","name":"startingDate","type":"uint256"},{"internalType":"uint256","name":"maturityDate","type":"uint256"},{"internalType":"uint256","name":"benchmark","type":"uint256"},{"internalType":"uint8","name":"index","type":"uint8"}],"internalType":"struct IRSTypes.IRS[]","name":"","type":"tuple[]"}],"stateMutability":"view","type":"function"},{"inputs":[],"name":"getListOfBonds","outputs":[{"components":[{"internalType":"string","name":"isin","type":"string"},{"internalType":"string","name":"name","type":"string"},{"internalType":"string","name":"symbol","type":"string"},{"internalType":"address","name":"currency","type":"address"},{"internalType":"uint256","name":"denomination","type":"uint256"},{"internalType":"uint256","name":"issueVolume","type":"uint256"},{"internalType":"uint256","name":"couponRate","type":"uint256"},{"internalType":"uint8","name":"couponType","type":"uint8"},{"internalType":"uint256","name":"couponFrequency","type":"uint256"},{"internalType":"uint256","name":"issueDate","type":"uint256"},{"internalType":"uint256","name":"maturityDate","type":"uint256"}],"internalType":"struct BondData.Bond[]","name":"","type":"tuple[]"}],"stateMutability":"view","type":"function"},{"inputs":[],"name":"getListOfBondsDealIDs","outputs":[{"internalType":"string[]","name":"","type":"string[]"}],"stateMutability":"view","type":"function"},{"inputs":[],"name":"getListOfDeals","outputs":[{"components":[{"internalType":"string","name":"dealID","type":"string"},{"internalType":"string","name":"prospectusURI","type":"string"},{"internalType":"address","name":"issuerAddress","type":"address"},{"internalType":"uint256","name":"debtAmount","type":"uint256"},{"internalType":"uint256","name":"denomination","type":"uint256"},{"internalType":"uint256","name":"couponRate","type":"uint256"},{"internalType":"uint256","name":"couponFrequency","type":"uint256"},{"internalType":"uint256","name":"maturityDate","type":"uint256"},{"internalType":"uint256","name":"index","type":"uint256"},{"internalType":"address","name":"currency","type":"address"},{"internalType":"uint8","name":"couponType","type":"uint8"},{"internalType":"enum BondData.DealStatus","name":"status","type":"uint8"}],"internalType":"struct BondData.Deal[]","name":"","type":"tuple[]"}],"stateMutability":"view","type":"function"},{"inputs":[],"name":"getListOfIRS","outputs":[{"components":[{"internalType":"address","name":"irsContract","type":"address"},{"internalType":"address","name":"fixedInterestPayer","type":"address"},{"internalType":"address","name":"floatingInterestPayer","type":"address"},{"internalType":"uint8","name":"ratesDecimals","type":"uint8"},{"internalType":"uint8","name":"status","type":"uint8"},{"internalType":"uint256","name":"swapRate","type":"uint256"},{"internalType":"uint256","name":"spread","type":"uint256"},{"internalType":"address","name":"assetContract","type":"address"},{"internalType":"uint256","name":"notionalAmount","type":"uint256"},{"internalType":"uint256","name":"paymentFrequency","type":"uint256"},{"internalType":"uint256","name":"startingDate","type":"uint256"},{"internalType":"uint256","name":"maturityDate","type":"uint256"},{"internalType":"uint256","name":"benchmark","type":"uint256"},{"internalType":"uint8","name":"index","type":"uint8"}],"internalType":"struct IRSTypes.IRS[]","name":"","type":"tuple[]"}],"stateMutability":"view","type":"function"},{"inputs":[{"internalType":"string","name":"_dealID","type":"string"}],"name":"getTotalAmounInvested","outputs":[{"internalType":"uint256","name":"","type":"uint256"}],"stateMutability":"view","type":"function"},{"inputs":[],"name":"identityRegistryContract","outputs":[{"internalType":"address","name":"","type":"address"}],"stateMutability":"view","type":"function"},{"inputs":[],"name":"irsCallContract","outputs":[{"internalType":"address","name":"","type":"address"}],"stateMutability":"view","type":"function"},{"inputs":[{"internalType":"string","name":"_dealID","type":"string"},{"components":[{"internalType":"string","name":"isin","type":"string"},{"internalType":"string","name":"name","type":"string"},{"internalType":"string","name":"symbol","type":"string"},{"internalType":"address","name":"currency","type":"address"},{"internalType":"uint256","name":"denomination","type":"uint256"},{"internalType":"uint256","name":"issueVolume","type":"uint256"},{"internalType":"uint256","name":"couponRate","type":"uint256"},{"internalType":"uint8","name":"couponType","type":"uint8"},{"internalType":"uint256","name":"couponFrequency","type":"uint256"},{"internalType":"uint256","name":"issueDate","type":"uint256"},{"internalType":"uint256","name":"maturityDate","type":"uint256"}],"internalType":"struct BondData.Bond","name":"_bond","type":"tuple"},{"internalType":"address","name":"_bondContract","type":"address"}],"name":"issue","outputs":[],"stateMutability":"nonpayable","type":"function"},{"inputs":[{"internalType":"address","name":"","type":"address"},{"internalType":"uint256","name":"","type":"uint256"}],"name":"issuerDeals","outputs":[{"internalType":"string","name":"dealID","type":"string"},{"internalType":"string","name":"prospectusURI","type":"string"},{"internalType":"address","name":"issuerAddress","type":"address"},{"internalType":"uint256","name":"debtAmount","type":"uint256"},{"internalType":"uint256","name":"denomination","type":"uint256"},{"internalType":"uint256","name":"couponRate","type":"uint256"},{"internalType":"uint256","name":"couponFrequency","type":"uint256"},{"internalType":"uint256","name":"maturityDate","type":"uint256"},{"internalType":"uint256","name":"index","type":"uint256"},{"internalType":"address","name":"currency","type":"address"},{"internalType":"uint8","name":"couponType","type":"uint8"},{"internalType":"enum BondData.DealStatus","name":"status","type":"uint8"}],"stateMutability":"view","type":"function"},{"inputs":[{"internalType":"address","name":"","type":"address"},{"internalType":"uint256","name":"","type":"uint256"}],"name":"issuerIRS","outputs":[{"internalType":"address","name":"irsContract","type":"address"},{"internalType":"address","name":"fixedInterestPayer","type":"address"},{"internalType":"address","name":"floatingInterestPayer","type":"address"},{"internalType":"uint8","name":"ratesDecimals","type":"uint8"},{"internalType":"uint8","name":"status","type":"uint8"},{"internalType":"uint256","name":"swapRate","type":"uint256"},{"internalType":"uint256","name":"spread","type":"uint256"},{"internalType":"address","name":"assetContract","type":"address"},{"internalType":"uint256","name":"notionalAmount","type":"uint256"},{"internalType":"uint256","name":"paymentFrequency","type":"uint256"},{"internalType":"uint256","name":"startingDate","type":"uint256"},{"internalType":"uint256","name":"maturityDate","type":"uint256"},{"internalType":"uint256","name":"benchmark","type":"uint256"},{"internalType":"uint8","name":"index","type":"uint8"}],"stateMutability":"view","type":"function"},{"inputs":[],"name":"issuersFundContract","outputs":[{"internalType":"address","name":"","type":"address"}],"stateMutability":"view","type":"function"},{"inputs":[{"internalType":"string","name":"_dealID","type":"string"},{"internalType":"address","name":"_bondContract","type":"address"}],"name":"redeem","outputs":[],"stateMutability":"nonpayable","type":"function"},{"inputs":[{"internalType":"string","name":"_dealID","type":"string"},{"internalType":"uint256","name":"_amount","type":"uint256"}],"name":"registerForDeal","outputs":[],"stateMutability":"nonpayable","type":"function"},{"inputs":[{"internalType":"string","name":"_dealID","type":"string"}],"name":"rejectDeal","outputs":[],"stateMutability":"nonpayable","type":"function"},{"inputs":[],"name":"rolesContract","outputs":[{"internalType":"address","name":"","type":"address"}],"stateMutability":"view","type":"function"},{"inputs":[{"internalType":"uint256","name":"_benchmark","type":"uint256"}],"name":"setBenchmark","outputs":[],"stateMutability":"nonpayable","type":"function"},{"inputs":[{"internalType":"string","name":"_dealID","type":"string"},{"internalType":"address","name":"_bondContractAddress","type":"address"}],"name":"setBondContractAddress","outputs":[],"stateMutability":"nonpayable","type":"function"},{"inputs":[{"internalType":"uint256","name":"_newBenchmark","type":"uint256"},{"internalType":"address","name":"_swapContract","type":"address"}],"name":"setIRSBenchmark","outputs":[],"stateMutability":"nonpayable","type":"function"},{"inputs":[{"internalType":"address","name":"_fixedPayerContract","type":"address"},{"internalType":"address","name":"_floatingPayerContract","type":"address"},{"internalType":"address","name":"_irsContractAddress","type":"address"},{"components":[{"internalType":"address","name":"irsContract","type":"address"},{"internalType":"address","name":"fixedInterestPayer","type":"address"},{"internalType":"address","name":"floatingInterestPayer","type":"address"},{"internalType":"uint8","name":"ratesDecimals","type":"uint8"},{"internalType":"uint8","name":"status","type":"uint8"},{"internalType":"uint256","name":"swapRate","type":"uint256"},{"internalType":"uint256","name":"spread","type":"uint256"},{"internalType":"address","name":"assetContract","type":"address"},{"internalType":"uint256","name":"notionalAmount","type":"uint256"},{"internalType":"uint256","name":"paymentFrequency","type":"uint256"},{"internalType":"uint256","name":"startingDate","type":"uint256"},{"internalType":"uint256","name":"maturityDate","type":"uint256"},{"internalType":"uint256","name":"benchmark","type":"uint256"},{"internalType":"uint8","name":"index","type":"uint8"}],"internalType":"struct IRSTypes.IRS","name":"_irs","type":"tuple"}],"name":"setIRSContractAddress","outputs":[],"stateMutability":"nonpayable","type":"function"},{"inputs":[{"internalType":"address","name":"_issuerFundContract","type":"address"}],"name":"setIssuerFundContract","outputs":[],"stateMutability":"nonpayable","type":"function"},{"inputs":[{"internalType":"address","name":"_toposManager","type":"address"}],"name":"setManager","outputs":[],"stateMutability":"nonpayable","type":"function"},{"inputs":[{"internalType":"string","name":"_dealID","type":"string"},{"components":[{"internalType":"string","name":"dealID","type":"string"},{"internalType":"string","name":"prospectusURI","type":"string"},{"internalType":"address","name":"issuerAddress","type":"address"},{"internalType":"uint256","name":"debtAmount","type":"uint256"},{"internalType":"uint256","name":"denomination","type":"uint256"},{"internalType":"uint256","name":"couponRate","type":"uint256"},{"internalType":"uint256","name":"couponFrequency","type":"uint256"},{"internalType":"uint256","name":"maturityDate","type":"uint256"},{"internalType":"uint256","name":"index","type":"uint256"},{"internalType":"address","name":"currency","type":"address"},{"internalType":"uint8","name":"couponType","type":"uint8"},{"internalType":"enum BondData.DealStatus","name":"status","type":"uint8"}],"internalType":"struct BondData.Deal","name":"_deal","type":"tuple"}],"name":"submitDeal","outputs":[],"stateMutability":"nonpayable","type":"function"},{"inputs":[{"internalType":"address","name":"_swapContract","type":"address"}],"name":"swapIRS","outputs":[],"stateMutability":"nonpayable","type":"function"},{"inputs":[],"name":"toposManager","outputs":[{"internalType":"address","name":"","type":"address"}],"stateMutability":"view","type":"function"},{"inputs":[{"internalType":"string","name":"","type":"string"}],"name":"totalAmountInvestedForDeal","outputs":[{"internalType":"uint256","name":"","type":"uint256"}],"stateMutability":"view","type":"function"},{"inputs":[{"internalType":"string","name":"_dealID","type":"string"}],"name":"withdrawIssuerFund","outputs":[],"stateMutability":"nonpayable","type":"function"}],"evm":{"bytecode":{"linkReferences":{},"object":"608034620000e957601f6200400538819003918201601f19168301916001600160401b03831184841017620000ee5780849260c094604052833981010312620000e9576200004d8162000104565b6200005b6020830162000104565b916200006a6040820162000104565b90620000796060820162000104565b9360a06200008a6080840162000104565b9201519460018060a01b0380948180948160018060a01b03199916896008541617600855168760095416176009551685600a541617600a551683600b541617600b551690600c541617600c55600e55604051613eeb90816200011a8239f35b600080fd5b634e487b7160e01b600052604160045260246000fd5b51906001600160a01b0382168203620000e95756fe6080604052600436101561001257600080fd5b6000803560e01c8063041e9b89146132eb578063088674e0146132c45780630dd3d9a4146131995780630df8bfda14612b9e5780631882c19514612b2557806319662d8e146126a95780631b59122c14612504578063234b153f146123d4578063281ddc8e146122ee5780632e55f48714611ca25780632f6679101461025d57806336f9c4da14611bbb5780633887bdcf14611b425780633bbada4614611a4e57806348f92ee81461194c578063499fa18a146118bc57806349f5d1d91461180a578063507251cb146110a85780635e43522e146110815780635ed7e2c114611036578063605936ea14610fe357806368a2da5114610fb2578063754f399a14610e8257806379a9456914610e645780637af4d65214610e3d5780637bafe3d014610df05780637f31ed7314610dc95780639f0d8d2a14610d48578063a0a57dac14610c83578063af9080f814610c65578063b83c7fba14610be9578063c3a2a93a14610b96578063c8d7f62e14610a8d578063ca53b39114610a66578063d0ebdbe71461098d578063d7c4029c146105ec578063e70791801461051c578063f3413c4f146102eb578063fb90e441146102c4578063fe0ab4b31461025d578063fe3b85b71461020b5763ff6689d0146101eb57600080fd5b346102085780600319360112610208576020600e54604051908152f35b80fd5b503461020857604036600319011261020857602090610228613382565b610230613398565b9060406001600160a01b039384809316815260028652209116600052825260406000205416604051908152f35b5034610208576020366003190112610208576004359067ffffffffffffffff82116102085760206001600160a01b036102b08261029d3660048801613464565b81604051938285809451938492016134bb565b810160018152030190205416604051908152f35b503461020857806003193601126102085760206001600160a01b03600d5416604051908152f35b503461020857806003193601126102085760105461030881613cd8565b906103166040519283613442565b80825260108352602092838301917f1b6847dc741a1b0cd08d278845f9d819d87b734759afb55fe2de5cb82a9ae67282845b8382106104405750505050604051928484019085855251809152604084019460408260051b8601019392955b8287106103815785850386f35b909192938280600192603f198982030185528751906103d16103bf6103af84516101608086528501906135f3565b85850151848203878601526135f3565b604084015183820360408501526135f3565b9160606001600160a01b038183015116908301526080808201519083015260a0808201519083015260c0808201519083015260ff60e08201511660e083015261010080820151908301526101208082015190830152610140809101519101529601920196019592919092610374565b60409796949751610160810181811067ffffffffffffffff82111761050657600192600b928a92604052610473876137be565b81526104808588016137be565b83820152610490600288016137be565b60408201526001600160a01b03600388015416606082015260048701546080820152600587015460a0820152600687015460c082015260ff60078801541660e082015260088701546101008201526009870154610120820152600a87015461014082015281520193019101909196939596610348565b634e487b7160e01b600052604160045260246000fd5b503461020857602090816003193601126102085760043567ffffffffffffffff81116105e857826105cf926105586105c1933690600401613464565b908061016060405161056981613425565b606081526060868201528260408201528260608201528260808201528260a08201528260c08201528260e0820152826101008201528261012082015282610140820152015282604051948386809551938492016134bb565b820190815203019020613e08565b906105e4604051928284938452830190613649565b0390f35b5080fd5b50346102085760403660031901126102085760043567ffffffffffffffff81116105e85761061e9036906004016135c5565b610629929192613398565b6001600160a01b0393610641856008541633146138e3565b6040519283928183853760ff8285018781526009958691602098899103019020015460a81c16600681101561097957600403610950578690846040518486823787818681018b81520301902001750500000000000000000000000000000000000000000060ff60a81b19918183825416179055866106d660088b8b60405180928b8d83378b820190815203019020015461372d565b50018183825416179055836002604051878982378a818d8a820190815203019020015416895260068852866107298a6008888c8b604085209460405193849283378c820190815203019020015490613768565b50019182541617905516803b1561094c578580916004604051809481937fbe040fb00000000000000000000000000000000000000000000000000000000083525af1801561094157908691610929575b5050845b6040518284823782810190868160039384815203019020548210156108eb57876107dc8360016107bf82604051898b82378c818b81018a815203019020613711565b50015493896040518092898b833789820190815203019020613711565b5054168115908115610811575b50505060001981146107fd5760010161077d565b602486634e487b7160e01b81526011600452fd5b8987604051878982378a818d8a82019081520301902001541691670de0b6b3a76400008085029485041417156108d7576040517fa9059cbb0000000000000000000000000000000000000000000000000000000081526001600160a01b0391909116600482015260248101929092528690829060449082908b905af180156108cc5761089f575b80806107e9565b6108be90863d88116108c5575b6108b68183613442565b81019061392e565b5038610898565b503d6108ac565b6040513d89823e3d90fd5b602489634e487b7160e01b81526011600452fd5b60405186815287907fdfdf42ff0d0eb3e6ec5b40d8cf21fb2f7102b67e5e2d56ab36e817f807213c5b9080610923818b01888a613c62565b0390a180f35b61093290613411565b61093d578438610779565b8480fd5b6040513d88823e3d90fd5b8580fd5b508361097583604051938493632dc5942160e21b855260048501526024840191613c62565b0390fd5b602487634e487b7160e01b81526021600452fd5b503461020857602036600319011261020857806109a8613382565b6001600160a01b03906109c0826008541633146138e3565b816009541691823b15610a6157608484928360405195869485937fcfde189000000000000000000000000000000000000000000000000000000000855260406004860152600760448601527f4d414e414745520000000000000000000000000000000000000000000000000060648601521660248401525af18015610a5657610a465750f35b610a4f90613411565b6102085780f35b6040513d84823e3d90fd5b505050fd5b503461020857806003193601126102085760206001600160a01b0360095416604051908152f35b503461020857602090816003193601126102085760043567ffffffffffffffff81116105e85782610ac3819236906004016135c5565b9190826040519384928337810160038152030190208054610ae381613cd8565b90610af16040519283613442565b8082528382018093865284862086915b838310610b5757505050506040519280840191818552518092526040840192945b828110610b2f5784840385f35b855180516001600160a01b031685528201518483015294810194604090930192600101610b22565b60028760019260409a9997989a51610b6e816133f5565b6001600160a01b03865416815284860154838201528152019201920191909694939596610b01565b503461020857806003193601126102085760a06001600160a01b0380600854169080600954169080600a541681600b541691600d5416926040519485526020850152604084015260608301526080820152f35b50346102085760203660031901126102085780610c04613382565b6001600160a01b0390610c1c826008541633146138e3565b16803b15610c62578180916004604051809481937f442447ca0000000000000000000000000000000000000000000000000000000083525af18015610a5657610a465750f35b50fd5b50346102085780600319360112610208576020600e54604051908152f35b50346102085760203660031901126102085760043567ffffffffffffffff81116105e857610ccf91610cbb6020923690600401613464565b9082604051948386809551938492016134bb565b820190815203019020610ce1816137be565b906105e4610cf1600183016137be565b916001600160a01b039081600282015416946003820154916004810154600582015460068301549060078401549260096008860154950154966040519b8c9b60ff8a60a81c169a60ff8b60a01c169a16988d613864565b50346102085760403660031901126102085780610d63613398565b6001600160a01b0390610d7b826008541633146138e3565b16803b15610c62578180916024604051809481937f68a2da5100000000000000000000000000000000000000000000000000000000835260043560048401525af18015610a5657610a465750f35b503461020857806003193601126102085760206001600160a01b0360085416604051908152f35b503461020857602036600319011261020857610e0a613382565b6001600160a01b0390610e22826008541633146138e3565b1680156105e8576001600160a01b0319600d541617600d5580f35b503461020857806003193601126102085760206001600160a01b03600c5416604051908152f35b50346102085780600319360112610208576020600f54604051908152f35b503461020857602090816003193601126102085760043567ffffffffffffffff81116105e857610eb69036906004016135c5565b9092610ece6001600160a01b036008541633146138e3565b60ff600960405184878237838186810188815203019020015460a81c166006811015610f9e577f735ccdd611541d36c82a3622baab7f58b8a0f5be664555b0d9c95ddde16096d39394610f26600161092393146139be565b60096040518583823784818781018a81520301902001750300000000000000000000000000000000000000000060ff60a81b199181838254161790556009610f8460086040518987823788818d8c820190815203019020015461372d565b500191825416179055604051938385948552840191613c62565b602484634e487b7160e01b81526021600452fd5b503461020857602036600319011261020857610fda6001600160a01b036008541633146138e3565b600435600f5580f35b5034610208576020366003190112610208576004359067ffffffffffffffff82116102085760208061101836600486016135c5565b91908260405193849283378101600481520301902054604051908152f35b5034610208576020366003190112610208576004359067ffffffffffffffff821161020857602061106e8161029d3660048701613464565b8101600481520301902054604051908152f35b503461020857806003193601126102085760206001600160a01b03600b5416604051908152f35b503461020857600319906060368301126102085767ffffffffffffffff6004358181116116d0576110dd9036906004016135c5565b939091602435116116d05761016090602435360301126105e8576110ff6133ae565b926111166001600160a01b036008541633146138e3565b60ff60096040518385823760208185810188815203019020015460a81c166006811015610f9e576002036117e6576040518183823760208183810160018152030190206001600160a01b0385166001600160a01b03198254161790556009604051828482376020818481018781520301902001750400000000000000000000000000000000000000000060ff60a81b1991818382541617905560096111d16008604051868882376020818881018b815203019020015461372d565b5001918254161790556001600160a01b036002604051838582376020818581018881520301902001541683526006602052604083206040518284823760208184810187815203019020908054600160401b8110156105065761123891600182018155613768565b9190916117d0578082036116fc575b5050601254600160401b8110156116e85760018101806012558110156116d457818361129892601287527fbb8a6a4669ba250d26cd7a459eca9d215f8307e33aebe50379bc5a3617ec344401613a90565b6001600160a01b0384163b156116d0576040517fd76805aa000000000000000000000000000000000000000000000000000000008152602060048201526113506113026112ef602435600401602435600401613c83565b6101606024860152610184850191613c62565b61132c6113186024803501602435600401613c83565b602319868503810160448801529391613c62565b90611341604460243501602435600401613c83565b91858403016064860152613c62565b946001600160a01b036113676064602435016133c4565b1660848301526084602435013560a483015260a4602435013560c483015260c4602435013560e483015260ff6113a160e460243501613618565b169161010492838201528581610124938560243501358583015281836001600160a01b03826101449d8e8a60243501358184015260243501356101648301520393165af18015610941579086916116bc575b5050601054600160401b8110156116a8576001810180601055811015611694576010865294957f44b55c2d9270546faf6ff2f0acac078011883b82782d9b08de2d3af4543c2b1895600b02927f1b6847dc741a1b0cd08d278845f9d819d87b734759afb55fe2de5cb82a9ae67c929061149d61147460046024350180613a09565b90877f1b6847dc741a1b0cd08d278845f9d819d87b734759afb55fe2de5cb82a9ae67201613a90565b6114dc6114b36024803501602435600401613a09565b907f1b6847dc741a1b0cd08d278845f9d819d87b734759afb55fe2de5cb82a9ae6738801613a90565b61151c6114f3604460243501602435600401613a09565b907f1b6847dc741a1b0cd08d278845f9d819d87b734759afb55fe2de5cb82a9ae6748801613a90565b7f1b6847dc741a1b0cd08d278845f9d819d87b734759afb55fe2de5cb82a9ae67585016001600160a01b03611555606460243501613946565b166001600160a01b0319825416179055608460243501357f1b6847dc741a1b0cd08d278845f9d819d87b734759afb55fe2de5cb82a9ae67686015560a460243501357f1b6847dc741a1b0cd08d278845f9d819d87b734759afb55fe2de5cb82a9ae67786015560c460243501357f1b6847dc741a1b0cd08d278845f9d819d87b734759afb55fe2de5cb82a9ae6788601557f1b6847dc741a1b0cd08d278845f9d819d87b734759afb55fe2de5cb82a9ae679850160ff61161960e460243501613b54565b1660ff1982541617905560243501357f1b6847dc741a1b0cd08d278845f9d819d87b734759afb55fe2de5cb82a9ae67a85015560243501357f1b6847dc741a1b0cd08d278845f9d819d87b734759afb55fe2de5cb82a9ae67b8401556024350135910155610923604051928392602084526020840191613c62565b602486634e487b7160e01b81526032600452fd5b602486634e487b7160e01b81526041600452fd5b6116c590613411565b61093d5784386113f3565b8280fd5b602484634e487b7160e01b81526032600452fd5b602484634e487b7160e01b81526041600452fd5b60ff6009808461170f856117c997613b85565b61171f6001860160018301613b85565b600281016001600160a01b036002870154166001600160a01b03198254161790556003850154600382015560048501546004820155600585015460058201556006850154600682015560078501546007820155600885015460088201550192016001600160a01b038154166001600160a01b03198454161783556117be82825460a01c16849060ff60a01b1960ff60a01b83549260a01b169116179055565b5460a81c1690613b62565b3880611247565b634e487b7160e01b600052600060045260246000fd5b610975604051928392632dc5942160e21b8452602060048501526024840191613c62565b503461020857604036600319011261020857611824613382565b6024356001600160a01b03809216835260066020526040832080548210156118b8579061185091613768565b506105e461185d826137be565b9261186a600184016137be565b9281600282015416946003820154916004810154600582015460068301549060078401549260096008860154950154966040519b8c9b60ff8a60a81c169a60ff8b60a01c169a16988d613864565b8380fd5b50346102085760403660031901126102085760043567ffffffffffffffff81116105e8576118ee903690600401613464565b61190a60206024359281604051938285809451938492016134bb565b8101600381520301902080548210156116d0576119279250613711565b508054600190910154604080516001600160a01b039093168352602083019190915290f35b503461020857602090816003193601126102085760043567ffffffffffffffff81116105e8576119809036906004016135c5565b90926119986001600160a01b036008541633146138e3565b60ff600960405184878237838186810188815203019020015460a81c166006811015610f9e577f039501081328ffe3eb02459ad6f6e90b69e23ba1422b574ee84c1f52b2fc031093946119f0600161092393146139be565b60096040518583823784818781018a81520301902001750200000000000000000000000000000000000000000060ff60a81b199181838254161790556009610f8460086040518987823788818d8c820190815203019020015461372d565b503461020857604036600319011261020857611a68613382565b602435916001600160a01b03809216815260076020526040812090815484101561020857506101c092611a9a916136f5565b5090808254169181600182015416916002820154600383015460048401548360058601541660068601549160078701549360ff60088901549660098a01549882600b600a8d01549c0154169b60206040519e8f9081520152811660408d0152818160a01c1660608d015260a81c1660808b015260a08a015260c089015260e08801526101008701526101208601526101408501526101608401526101808301526101a0820152f35b50346102085760203660031901126102085780611b5d613382565b6001600160a01b0390611b75826008541633146138e3565b16803b15610c62578180916004604051809481937f8119c0650000000000000000000000000000000000000000000000000000000083525af18015610a5657610a465750f35b5034610208578060031936011261020857601154611bd881613cd8565b90611be66040519283613442565b8082526011835260209283830191817f31ecc21a745e3968a04e9570e4425bc18fa8019c68028196b546d1669c200c68845b838310611c7d5750505050604051928484019085855251809152604084019460408260051b8601019392955b828710611c515785850386f35b909192938280611c6d600193603f198a82030186528851613649565b9601920196019592919092611c44565b600a88600192611c90859b9a989b613e08565b81520192019201919096939596611c18565b50346102085761022036600319011261020857611cbd613382565b611cc5613398565b611ccd6133ae565b906101c03660631901126118b85760405192611ce8846133d8565b6064356001600160a01b03811681036122e95784526084356001600160a01b03811681036122e957602085015260a4356001600160a01b03811681036122e957604085015260c43560ff811681036122e957606085015260e43560ff811681036122e95760808501526101043560a08501526101243560c08501526001600160a01b03610144351661014435036122e9576101443560e085015261016435610100850152610184356101208501526101a4356101408501526101c4356101608501526101e43561018085015260ff610204351661020435036122e9576001600160a01b0390610204356101a086015216845260026020526001600160a01b036040852091166000526020526001600160a01b03604060002091166001600160a01b0319825416179055601354600160401b8110156105065760018101806013558110156122d3576013600052600c81027f66de8ffda797e3de9c05e8fc57b3bf0ec28a930d40b0d285d93c06501cf6a0900182516001600160a01b031681546001600160a01b03191617905560208201516001600160a01b031690600c81027f66de8ffda797e3de9c05e8fc57b3bf0ec28a930d40b0d285d93c06501cf6a091018281546001600160a01b031916179055600c81027f66de8ffda797e3de9c05e8fc57b3bf0ec28a930d40b0d285d93c06501cf6a0920160408401516001600160a01b031681546001600160a01b031916178155606084015160ff16611f2390829060ff60a01b1960ff60a01b83549260a01b169116179055565b608084015181549060a81b60ff60a81b169060ff60a81b191617905560a0830151600c82027f66de8ffda797e3de9c05e8fc57b3bf0ec28a930d40b0d285d93c06501cf6a093015560c0830151600c82027f66de8ffda797e3de9c05e8fc57b3bf0ec28a930d40b0d285d93c06501cf6a0940155600c81027f66de8ffda797e3de9c05e8fc57b3bf0ec28a930d40b0d285d93c06501cf6a0950160e08401516001600160a01b031681546001600160a01b031916179055610100830151600c82027f66de8ffda797e3de9c05e8fc57b3bf0ec28a930d40b0d285d93c06501cf6a0960155610120830151600c82027f66de8ffda797e3de9c05e8fc57b3bf0ec28a930d40b0d285d93c06501cf6a0970155610140830151600c82027f66de8ffda797e3de9c05e8fc57b3bf0ec28a930d40b0d285d93c06501cf6a0980155610160830151600c82027f66de8ffda797e3de9c05e8fc57b3bf0ec28a930d40b0d285d93c06501cf6a0990155610180830151600c82027f66de8ffda797e3de9c05e8fc57b3bf0ec28a930d40b0d285d93c06501cf6a09a0155600c027f66de8ffda797e3de9c05e8fc57b3bf0ec28a930d40b0d285d93c06501cf6a09b016101a083015160ff1660ff19825416179055825260076020526040822081516001600160a01b031660208301516001600160a01b03168360408101516001600160a01b0316606082015160ff16608083015160ff1660a084015160c085015160e08601516001600160a01b0316906101008701519261012088015194610140890151966101608a0151986101808b01519a6101a0015160ff169b604051809e612188826133d8565b81526020015260408d015260608c015260808b015260a08a015260c089015260e08801526101008701526101208601526101408501526101608401526101808301526101a08201526121d991613cf0565b60408101516001600160a01b031682526007602052604082209080516001600160a01b03169060208101516001600160a01b03169060408101516001600160a01b0316606082015160ff16608083015160ff1660a084015160c085015160e08601516001600160a01b0316906101008701519261012088015194610140890151966101608a0151986101808b01519a6101a0015160ff169b604051809e61227f826133d8565b81526020015260408d015260608c015260808b015260a08a015260c089015260e08801526101008701526101208601526101408501526101608401526101808301526101a08201526122d091613cf0565b80f35b634e487b7160e01b600052603260045260246000fd5b600080fd5b503461020857806003193601126102085760125461230b81613cd8565b906123196040519283613442565b8082526012835260209283830191817fbb8a6a4669ba250d26cd7a459eca9d215f8307e33aebe50379bc5a3617ec3444845b8383106123b05750505050604051928484019085855251809152604084019460408260051b8601019392955b8287106123845785850386f35b9091929382806123a0600193603f198a820301865288516135f3565b9601920196019592919092612377565b60018881926123c2859b9a989b6137be565b8152019201920191909693959661234b565b50346102085780600319360112610208576013546123f181613cd8565b906123ff6040519283613442565b808252601383527f66de8ffda797e3de9c05e8fc57b3bf0ec28a930d40b0d285d93c06501cf6a0909260208084015b83831061244357604051806105e487826134de565b600c82600192604051612455816133d8565b6001600160a01b03808b5416825280868c0154168483015260028b015490808216604084015260ff918260a0918181841c16606087015260a81c16608085015260038d01549084015260048c015460c084015260058c01541660e083015260068b015461010083015260078b015461012083015260088b015461014083015260098b0154610160830152600a8b0154610180830152600b8b0154166101a082015281520196019201919461242e565b503461020857602090816003193601126102085760043567ffffffffffffffff81116105e857612538903690600401613464565b604051908051918482019261254e8183866134bb565b8101848152600282876001600160a01b03948594030190200154163314801561269c575b61257b9061395a565b8060096040518781865161259081838b6134bb565b8101898152030190200154161561265857938460096125e48697600d5416938360026040518381806125c68d8d519283916134bb565b81018d815203019020015416966040518093819289519283916134bb565b81018981520301902001541690803b1561093d5761263c858094604051968795869485937fe04cd97f0000000000000000000000000000000000000000000000000000000085526060600486015260648501906135f3565b916024840152604483015203925af18015610a5657610a465750f35b6064856040519062461bcd60e51b82526004820152600560248201527f746f6b656e0000000000000000000000000000000000000000000000000000006044820152fd5b5060085481163314612572565b5034610208576003196040368201126105e85767ffffffffffffffff6004358181116118b8576126dd9036906004016135c5565b929091602435116118b85761018090602435360301126116d057602460206001600160a01b0360095416604051928380927f877b9a670000000000000000000000000000000000000000000000000000000082523360048301525afa908115612b1a578491612afb575b5015612ab75761276e6001600160a01b03612766604460243501613946565b16331461395a565b60ff60096040518484823760208186810188815203019020015460a81c166006811015610f9e5761279f90156139be565b6040518282823782810184815281900360200190206127cd6127c660046024350180613a09565b9083613a90565b6127ed6127e36024803501602435600401613a09565b9060018401613a90565b600281016001600160a01b03612807604460243501613946565b82546001600160a01b0319169116179055602435606481013560038301556084810135600483015560a4810135600583015560c4810135600683015560e4810135600783015561010481013560088301556001600160a01b039061286e9061012401613946565b166001600160a01b03196009830154161760098201556128b461289661014460243501613b54565b600983019060ff60a01b1960ff60a01b83549260a01b169116179055565b6006610164602435013510156118b8576128d990600961016460243501359101613b62565b6009604051838382376020818581018781520301902001750100000000000000000000000000000000000000000060ff60a81b198254161790556011549182600860405183858237602081858101898152030190200155604051818382376020818381018781520301902092600160401b81101561050657806001612961920160115561372d565b6117d057837febc5645d06a6c6900ffbabb37c6fc84326bd870990f736254f05abb3287ffd41948203612a9d575b50506129a8604051928392604084526040840191613c62565b81810360208301526109236101606129fc6129db6129cb60046024350180613c83565b6101808752610180870191613c62565b6129ee6024803501602435600401613c83565b908683036020880152613c62565b926001600160a01b03612a136044602435016133c4565b166040820152602435606481013560608301526084810135608083015260a481013560a083015260c481013560c083015260e481013560e08301526101048101356101008301526001600160a01b0390612a7090610124016133c4565b1661012082015260ff612a8861014460243501613618565b16610140820152016101646024350135613626565b60ff6009808461170f85612ab097613b85565b388061298f565b606460405162461bcd60e51b815260206004820152600a60248201527f6e6f7420697373756572000000000000000000000000000000000000000000006044820152fd5b612b14915060203d6020116108c5576108b68183613442565b38612747565b6040513d86823e3d90fd5b50346102085760403660031901126102085760043567ffffffffffffffff81116105e857612b57903690600401613464565b6001600160a01b03612b806020612b6c613398565b9381604051938285809451938492016134bb565b8101600181520301902091166001600160a01b031982541617905580f35b50346102085760403660031901126102085767ffffffffffffffff6004358181116116d057612bd19036906004016135c5565b60248035936001600160a01b039182600a54169260405180947fb9209e33000000000000000000000000000000000000000000000000000000008252336004830152818460209788935afa908115612f1857899161317c575b50156131395760ff60096040518789823786818981018d815203019020015460a81c166006811015613126576002036131025760046040518688823785818881018c815203019020015492838802881594898204148517156130ef576004604051888a823787818d8b82019081520301902001549081156130dc57066130ac5783158061306e575b1561302b57612cd588604051888a823787818a8101600481520301902054613cb5565b604051878982378681898101600481520301902055338952886005918287528689898c60019460ff86612d0c60408a2086886139a5565b01541615612f235750612d6893926002926040612d3f612d6094338b528b8852612d39838c2085876139a5565b54613cb5565b988a82518486823788818681016003815203019020973383525220916139a5565b015490613711565b500155338952808552612d8388612d3960408c20898b6139a5565b90338a528552612d9760408a2087896139a5565b555b80600d541688813b1561020857612dec899289838a604051968795869485937f925b7cb6000000000000000000000000000000000000000000000000000000008552604060048601526044850191613c62565b908a83015203925af18015612f1857612f05575b508060096040518789823786818981018d81520301902001541690600d541692670de0b6b3a7640000808902988904141715612ef25783929188606492604051998a9586947f23b872dd00000000000000000000000000000000000000000000000000000000865233600487015285015260448401525af1938415612ee7577f0bdaf52b4de514796607307fbbcf007ee6d59e81e1be436b67c5a567a2e8d12194612eca575b50612ebe604051938493604085526040850191613c62565b9033908301520390a180f35b612ee090823d84116108c5576108b68183613442565b5038612ea6565b6040513d87823e3d90fd5b5086634e487b7160e01b81526011600452fd5b612f1190989198613411565b9638612e00565b6040513d8b823e3d90fd5b95505050505091604051888a823787818a810160038152030190205490604051926060840190848210908211176130185790612f7e60408e8e60029695835287528b8701938885528288019586523382528c52208b8d6139a5565b935184558484019051151560ff801983541691161790555191015560405186888237858188810160038152030190209060405191612fbb836133f5565b338352868301908a8252805490600160401b8210156130185790612fe3918482018155613711565b93909361300657849051166001600160a01b031984541617835551910155612d99565b858c634e487b7160e01b815280600452fd5b868d634e487b7160e01b81526041600452fd5b6064856006856040519262461bcd60e51b845260048401528201527f616d6f756e7400000000000000000000000000000000000000000000000000006044820152fd5b5061308d60405187898237868189810160048152030190205489613cb5565b6003604051888a823787818d8b82019081520301902001541015612cb2565b8288604051907f3728b83d0000000000000000000000000000000000000000000000000000000082526004820152fd5b848b634e487b7160e01b81526012600452fd5b838a634e487b7160e01b81526011600452fd5b50826109758686604051948594632dc5942160e21b86526004860152840191613c62565b8289634e487b7160e01b81526021600452fd5b6064846014846040519262461bcd60e51b845260048401528201527f4143434f554e545f4e4f545f414150524f5645440000000000000000000000006044820152fd5b6131939150853d87116108c5576108b68183613442565b38612c2a565b5034610208576020908160031936011261020857906001600160a01b0391826131c0613382565b16815260079182815260408220908154926131da84613cd8565b946131e86040519687613442565b84865282860193825282822091935b85851061320c57604051806105e489826134de565b600c8460019260405161321e816133d8565b8b87541681528b85880154168382015260028701548c8116604083015260ff908160a0918181841c16606086015260a81c166080840152600389015490830152600488015460c08301528c60058901541660e083015260068801546101008301528688015461012083015260088801546101408301526009880154610160830152600a880154610180830152600b880154166101a08201528152019301940193916131f7565b503461020857806003193601126102085760206001600160a01b03600a5416604051908152f35b503461020857604036600319011261020857613305613382565b60243567ffffffffffffffff81116116d0576133549160406060946001600160a01b036133386020953690600401613464565b93168152600584522082604051948386809551938492016134bb565b820190815203019020805490600260ff60018301541691015490604051928352151560208301526040820152f35b600435906001600160a01b03821682036122e957565b602435906001600160a01b03821682036122e957565b604435906001600160a01b03821682036122e957565b35906001600160a01b03821682036122e957565b6101c0810190811067ffffffffffffffff82111761050657604052565b6040810190811067ffffffffffffffff82111761050657604052565b67ffffffffffffffff811161050657604052565b610180810190811067ffffffffffffffff82111761050657604052565b90601f8019910116810190811067ffffffffffffffff82111761050657604052565b81601f820112156122e95780359067ffffffffffffffff82116105065760405192613499601f8401601f191660200185613442565b828452602083830101116122e957816000926020809301838601378301015290565b60005b8381106134ce5750506000910152565b81810151838201526020016134be565b60208082019080835283518092528060408094019401926000905b83821061350857505050505090565b9091929394836101c060019288516001600160a01b03808251168352808583015116858401528087830151168784015260ff9060608281850151169085015260808281850151169085015260a0808401519085015260c0808401519085015260e090818401511690840152610100808301519084015261012080830151908401526101408083015190840152610160808301519084015261018080830151908401526101a0809201511690820152019601920190939291936134f9565b9181601f840112156122e95782359167ffffffffffffffff83116122e957602083818601950101116122e957565b9060209161360c815180928185528580860191016134bb565b601f01601f1916010190565b359060ff821682036122e957565b9060068210156136335752565b634e487b7160e01b600052602160045260246000fd5b906136f29061367661366484516101808085528401906135f3565b602085015183820360208501526135f3565b926001600160a01b03806040830151166040840152606082015160608401526080820151608084015260a082015160a084015260c082015160c084015260e082015160e084015261010080830151908401526101209081830151169083015261014060ff81830151169083015261016080910151910190613626565b90565b80548210156122d357600052600c602060002091020190600090565b80548210156122d35760005260206000209060011b0190600090565b6011548110156122d357600a906011600052027f31ecc21a745e3968a04e9570e4425bc18fa8019c68028196b546d1669c200c680190600090565b80548210156122d357600052600a602060002091020190600090565b90600182811c921680156137b4575b602083101461379e57565b634e487b7160e01b600052602260045260246000fd5b91607f1691613793565b90604051918260008254926137d284613784565b90818452600194858116908160001461384157506001146137fe575b50506137fc92500383613442565b565b9093915060005260209081600020936000915b8183106138295750506137fc935082010138806137ee565b85548884018501529485019487945091830191613811565b9150506137fc94506020925060ff191682840152151560051b82010138806137ee565b97919561016099939561389e959e9d9b956137fc9d9861389060ff9b958d6101809081815201906135f3565b8c810360208e0152906135f3565b9e6001600160a01b0380981660408c015260608b015260808a015260a089015260c088015260e087015261010086015216610120840152166101408201520190613626565b156138ea57565b606460405162461bcd60e51b815260206004820152601260248201527f4f4e4c595f544f504f535f4d414e4147455200000000000000000000000000006044820152fd5b908160209103126122e9575180151581036122e95790565b356001600160a01b03811681036122e95790565b1561396157565b606460405162461bcd60e51b815260206004820152600760248201527f61646472657373000000000000000000000000000000000000000000000000006044820152fd5b6020919283604051948593843782019081520301902090565b156139c557565b606460405162461bcd60e51b815260206004820152600660248201527f73746174757300000000000000000000000000000000000000000000000000006044820152fd5b903590601e19813603018212156122e9570180359067ffffffffffffffff82116122e9576020019181360383136122e957565b90601f8111613a4a57505050565b600091825260208220906020601f850160051c83019410613a86575b601f0160051c01915b828110613a7b57505050565b818155600101613a6f565b9092508290613a66565b90929167ffffffffffffffff811161050657613ab681613ab08454613784565b84613a3c565b6000601f8211600114613af05781929394600092613ae5575b50508160011b916000199060031b1c1916179055565b013590503880613acf565b601f198216948382526020918281209281905b888210613b3c57505083600195969710613b22575b505050811b019055565b0135600019600384901b60f8161c19169055388080613b18565b80600184968294958701358155019501920190613b03565b3560ff811681036122e95790565b9060068110156136335760ff60a81b1960ff60a81b83549260a81b169116179055565b90808214613c5e57613b978154613784565b9067ffffffffffffffff8211610506578190613bbd82613bb78654613784565b86613a3c565b600090601f8311600114613bf357600092613be85750508160011b916000199060031b1c1916179055565b015490503880613acf565b81526020808220858352818320935090601f1985169083905b828210613c45575050908460019594939210613c2c57505050811b019055565b015460001960f88460031b161c19169055388080613b18565b8495819295850154815560018091019601940190613c0c565b5050565b908060209392818452848401376000828201840152601f01601f1916010190565b9035601e19823603018112156122e957016020813591019167ffffffffffffffff82116122e95781360383136122e957565b91908201809211613cc257565b634e487b7160e01b600052601160045260246000fd5b67ffffffffffffffff81116105065760051b60200190565b8054600160401b81101561050657613d0d916001820181556136f5565b6117d0576101a0600b60ff926001600160a01b03808651166001600160a01b03199081845416178355600183018260208901511682825416179055600283018260408901511682825416178155613d7f8760608a015116829060ff60a01b1960ff60a01b83549260a01b169116179055565b608088015160ff60a81b1960ff60a81b83549260a81b16911617905560a0870151600384015560c08701516004840155600583019160e088015116908254161790556101008501516006820155610120850151600782015561014085015160088201556101608501516009820155610180850151600a820155019201511660ff19825416179055565b90604051613e1581613425565b60ff8193613e22816137be565b8352613e30600182016137be565b602084015260096001600160a01b03918260028201541660408601526003810154606086015260048101546080860152600581015460a0860152600681015460c0860152600781015460e086015260088101546101008601520154908116610120840152818160a01c1661014084015260a81c1690600682101561363357610160015256fea26469706673582212204818560e01e49874edbb7bc240a95564e6296a76c8245b3f38575ef3cb06abfb64736f6c63430008130033","opcodes":"PUSH1 0x80 CALLVALUE PUSH3 0xE9 JUMPI PUSH1 0x1F PUSH3 0x4005 CODESIZE DUP2 SWAP1 SUB SWAP2 DUP3 ADD PUSH1 0x1F NOT AND DUP4 ADD SWAP2 PUSH1 0x1 PUSH1 0x1 PUSH1 0x40 SHL SUB DUP4 GT DUP5 DUP5 LT OR PUSH3 0xEE JUMPI DUP1 DUP5 SWAP3 PUSH1 0xC0 SWAP5 PUSH1 0x40 MSTORE DUP4 CODECOPY DUP2 ADD SUB SLT PUSH3 0xE9 JUMPI PUSH3 0x4D DUP2 PUSH3 0x104 JUMP JUMPDEST PUSH3 0x5B PUSH1 0x20 DUP4 ADD PUSH3 0x104 JUMP JUMPDEST SWAP2 PUSH3 0x6A PUSH1 0x40 DUP3 ADD PUSH3 0x104 JUMP JUMPDEST SWAP1 PUSH3 0x79 PUSH1 0x60 DUP3 ADD PUSH3 0x104 JUMP JUMPDEST SWAP4 PUSH1 0xA0 PUSH3 0x8A PUSH1 0x80 DUP5 ADD PUSH3 0x104 JUMP JUMPDEST SWAP3 ADD MLOAD SWAP5 PUSH1 0x1 DUP1 PUSH1 0xA0 SHL SUB DUP1 SWAP5 DUP2 DUP1 SWAP5 DUP2 PUSH1 0x1 DUP1 PUSH1 0xA0 SHL SUB NOT SWAP10 AND DUP10 PUSH1 0x8 SLOAD AND OR PUSH1 0x8 SSTORE AND DUP8 PUSH1 0x9 SLOAD AND OR PUSH1 0x9 SSTORE AND DUP6 PUSH1 0xA SLOAD AND OR PUSH1 0xA SSTORE AND DUP4 PUSH1 0xB SLOAD AND OR PUSH1 0xB SSTORE AND SWAP1 PUSH1 0xC SLOAD AND OR PUSH1 0xC SSTORE PUSH1 0xE SSTORE PUSH1 0x40 MLOAD PUSH2 0x3EEB SWAP1 DUP2 PUSH3 0x11A DUP3 CODECOPY RETURN JUMPDEST PUSH1 0x0 DUP1 REVERT JUMPDEST PUSH4 0x4E487B71 PUSH1 0xE0 SHL PUSH1 0x0 MSTORE PUSH1 0x41 PUSH1 0x4 MSTORE PUSH1 0x24 PUSH1 0x0 REVERT JUMPDEST MLOAD SWAP1 PUSH1 0x1 PUSH1 0x1 PUSH1 0xA0 SHL SUB DUP3 AND DUP3 SUB PUSH3 0xE9 JUMPI JUMP INVALID PUSH1 0x80 PUSH1 0x40 MSTORE PUSH1 0x4 CALLDATASIZE LT ISZERO PUSH2 0x12 JUMPI PUSH1 0x0 DUP1 REVERT JUMPDEST PUSH1 0x0 DUP1 CALLDATALOAD PUSH1 0xE0 SHR DUP1 PUSH4 0x41E9B89 EQ PUSH2 0x32EB JUMPI DUP1 PUSH4 0x88674E0 EQ PUSH2 0x32C4 JUMPI DUP1 PUSH4 0xDD3D9A4 EQ PUSH2 0x3199 JUMPI DUP1 PUSH4 0xDF8BFDA EQ PUSH2 0x2B9E JUMPI DUP1 PUSH4 0x1882C195 EQ PUSH2 0x2B25 JUMPI DUP1 PUSH4 0x19662D8E EQ PUSH2 0x26A9 JUMPI DUP1 PUSH4 0x1B59122C EQ PUSH2 0x2504 JUMPI DUP1 PUSH4 0x234B153F EQ PUSH2 0x23D4 JUMPI DUP1 PUSH4 0x281DDC8E EQ PUSH2 0x22EE JUMPI DUP1 PUSH4 0x2E55F487 EQ PUSH2 0x1CA2 JUMPI DUP1 PUSH4 0x2F667910 EQ PUSH2 0x25D JUMPI DUP1 PUSH4 0x36F9C4DA EQ PUSH2 0x1BBB JUMPI DUP1 PUSH4 0x3887BDCF EQ PUSH2 0x1B42 JUMPI DUP1 PUSH4 0x3BBADA46 EQ PUSH2 0x1A4E JUMPI DUP1 PUSH4 0x48F92EE8 EQ PUSH2 0x194C JUMPI DUP1 PUSH4 0x499FA18A EQ PUSH2 0x18BC JUMPI DUP1 PUSH4 0x49F5D1D9 EQ PUSH2 0x180A JUMPI DUP1 PUSH4 0x507251CB EQ PUSH2 0x10A8 JUMPI DUP1 PUSH4 0x5E43522E EQ PUSH2 0x1081 JUMPI DUP1 PUSH4 0x5ED7E2C1 EQ PUSH2 0x1036 JUMPI DUP1 PUSH4 0x605936EA EQ PUSH2 0xFE3 JUMPI DUP1 PUSH4 0x68A2DA51 EQ PUSH2 0xFB2 JUMPI DUP1 PUSH4 0x754F399A EQ PUSH2 0xE82 JUMPI DUP1 PUSH4 0x79A94569 EQ PUSH2 0xE64 JUMPI DUP1 PUSH4 0x7AF4D652 EQ PUSH2 0xE3D JUMPI DUP1 PUSH4 0x7BAFE3D0 EQ PUSH2 0xDF0 JUMPI DUP1 PUSH4 0x7F31ED73 EQ PUSH2 0xDC9 JUMPI DUP1 PUSH4 0x9F0D8D2A EQ PUSH2 0xD48 JUMPI DUP1 PUSH4 0xA0A57DAC EQ PUSH2 0xC83 JUMPI DUP1 PUSH4 0xAF9080F8 EQ PUSH2 0xC65 JUMPI DUP1 PUSH4 0xB83C7FBA EQ PUSH2 0xBE9 JUMPI DUP1 PUSH4 0xC3A2A93A EQ PUSH2 0xB96 JUMPI DUP1 PUSH4 0xC8D7F62E EQ PUSH2 0xA8D JUMPI DUP1 PUSH4 0xCA53B391 EQ PUSH2 0xA66 JUMPI DUP1 PUSH4 0xD0EBDBE7 EQ PUSH2 0x98D JUMPI DUP1 PUSH4 0xD7C4029C EQ PUSH2 0x5EC JUMPI DUP1 PUSH4 0xE7079180 EQ PUSH2 0x51C JUMPI DUP1 PUSH4 0xF3413C4F EQ PUSH2 0x2EB JUMPI DUP1 PUSH4 0xFB90E441 EQ PUSH2 0x2C4 JUMPI DUP1 PUSH4 0xFE0AB4B3 EQ PUSH2 0x25D JUMPI DUP1 PUSH4 0xFE3B85B7 EQ PUSH2 0x20B JUMPI PUSH4 0xFF6689D0 EQ PUSH2 0x1EB JUMPI PUSH1 0x0 DUP1 REVERT JUMPDEST CALLVALUE PUSH2 0x208 JUMPI DUP1 PUSH1 0x3 NOT CALLDATASIZE ADD SLT PUSH2 0x208 JUMPI PUSH1 0x20 PUSH1 0xE SLOAD PUSH1 0x40 MLOAD SWAP1 DUP2 MSTORE RETURN JUMPDEST DUP1 REVERT JUMPDEST POP CALLVALUE PUSH2 0x208 JUMPI PUSH1 0x40 CALLDATASIZE PUSH1 0x3 NOT ADD SLT PUSH2 0x208 JUMPI PUSH1 0x20 SWAP1 PUSH2 0x228 PUSH2 0x3382 JUMP JUMPDEST PUSH2 0x230 PUSH2 0x3398 JUMP JUMPDEST SWAP1 PUSH1 0x40 PUSH1 0x1 PUSH1 0x1 PUSH1 0xA0 SHL SUB SWAP4 DUP5 DUP1 SWAP4 AND DUP2 MSTORE PUSH1 0x2 DUP7 MSTORE KECCAK256 SWAP2 AND PUSH1 0x0 MSTORE DUP3 MSTORE PUSH1 0x40 PUSH1 0x0 KECCAK256 SLOAD AND PUSH1 0x40 MLOAD SWAP1 DUP2 MSTORE RETURN JUMPDEST POP CALLVALUE PUSH2 0x208 JUMPI PUSH1 0x20 CALLDATASIZE PUSH1 0x3 NOT ADD SLT PUSH2 0x208 JUMPI PUSH1 0x4 CALLDATALOAD SWAP1 PUSH8 0xFFFFFFFFFFFFFFFF DUP3 GT PUSH2 0x208 JUMPI PUSH1 0x20 PUSH1 0x1 PUSH1 0x1 PUSH1 0xA0 SHL SUB PUSH2 0x2B0 DUP3 PUSH2 0x29D CALLDATASIZE PUSH1 0x4 DUP9 ADD PUSH2 0x3464 JUMP JUMPDEST DUP2 PUSH1 0x40 MLOAD SWAP4 DUP3 DUP6 DUP1 SWAP5 MLOAD SWAP4 DUP5 SWAP3 ADD PUSH2 0x34BB JUMP JUMPDEST DUP2 ADD PUSH1 0x1 DUP2 MSTORE SUB ADD SWAP1 KECCAK256 SLOAD AND PUSH1 0x40 MLOAD SWAP1 DUP2 MSTORE RETURN JUMPDEST POP CALLVALUE PUSH2 0x208 JUMPI DUP1 PUSH1 0x3 NOT CALLDATASIZE ADD SLT PUSH2 0x208 JUMPI PUSH1 0x20 PUSH1 0x1 PUSH1 0x1 PUSH1 0xA0 SHL SUB PUSH1 0xD SLOAD AND PUSH1 0x40 MLOAD SWAP1 DUP2 MSTORE RETURN JUMPDEST POP CALLVALUE PUSH2 0x208 JUMPI DUP1 PUSH1 0x3 NOT CALLDATASIZE ADD SLT PUSH2 0x208 JUMPI PUSH1 0x10 SLOAD PUSH2 0x308 DUP2 PUSH2 0x3CD8 JUMP JUMPDEST SWAP1 PUSH2 0x316 PUSH1 0x40 MLOAD SWAP3 DUP4 PUSH2 0x3442 JUMP JUMPDEST DUP1 DUP3 MSTORE PUSH1 0x10 DUP4 MSTORE PUSH1 0x20 SWAP3 DUP4 DUP4 ADD SWAP2 PUSH32 0x1B6847DC741A1B0CD08D278845F9D819D87B734759AFB55FE2DE5CB82A9AE672 DUP3 DUP5 JUMPDEST DUP4 DUP3 LT PUSH2 0x440 JUMPI POP POP POP POP PUSH1 0x40 MLOAD SWAP3 DUP5 DUP5 ADD SWAP1 DUP6 DUP6 MSTORE MLOAD DUP1 SWAP2 MSTORE PUSH1 0x40 DUP5 ADD SWAP5 PUSH1 0x40 DUP3 PUSH1 0x5 SHL DUP7 ADD ADD SWAP4 SWAP3 SWAP6 JUMPDEST DUP3 DUP8 LT PUSH2 0x381 JUMPI DUP6 DUP6 SUB DUP7 RETURN JUMPDEST SWAP1 SWAP2 SWAP3 SWAP4 DUP3 DUP1 PUSH1 0x1 SWAP3 PUSH1 0x3F NOT DUP10 DUP3 SUB ADD DUP6 MSTORE DUP8 MLOAD SWAP1 PUSH2 0x3D1 PUSH2 0x3BF PUSH2 0x3AF DUP5 MLOAD PUSH2 0x160 DUP1 DUP7 MSTORE DUP6 ADD SWAP1 PUSH2 0x35F3 JUMP JUMPDEST DUP6 DUP6 ADD MLOAD DUP5 DUP3 SUB DUP8 DUP7 ADD MSTORE PUSH2 0x35F3 JUMP JUMPDEST PUSH1 0x40 DUP5 ADD MLOAD DUP4 DUP3 SUB PUSH1 0x40 DUP6 ADD MSTORE PUSH2 0x35F3 JUMP JUMPDEST SWAP2 PUSH1 0x60 PUSH1 0x1 PUSH1 0x1 PUSH1 0xA0 SHL SUB DUP2 DUP4 ADD MLOAD AND SWAP1 DUP4 ADD MSTORE PUSH1 0x80 DUP1 DUP3 ADD MLOAD SWAP1 DUP4 ADD MSTORE PUSH1 0xA0 DUP1 DUP3 ADD MLOAD SWAP1 DUP4 ADD MSTORE PUSH1 0xC0 DUP1 DUP3 ADD MLOAD SWAP1 DUP4 ADD MSTORE PUSH1 0xFF PUSH1 0xE0 DUP3 ADD MLOAD AND PUSH1 0xE0 DUP4 ADD MSTORE PUSH2 0x100 DUP1 DUP3 ADD MLOAD SWAP1 DUP4 ADD MSTORE PUSH2 0x120 DUP1 DUP3 ADD MLOAD SWAP1 DUP4 ADD MSTORE PUSH2 0x140 DUP1 SWAP2 ADD MLOAD SWAP2 ADD MSTORE SWAP7 ADD SWAP3 ADD SWAP7 ADD SWAP6 SWAP3 SWAP2 SWAP1 SWAP3 PUSH2 0x374 JUMP JUMPDEST PUSH1 0x40 SWAP8 SWAP7 SWAP5 SWAP8 MLOAD PUSH2 0x160 DUP2 ADD DUP2 DUP2 LT PUSH8 0xFFFFFFFFFFFFFFFF DUP3 GT OR PUSH2 0x506 JUMPI PUSH1 0x1 SWAP3 PUSH1 0xB SWAP3 DUP11 SWAP3 PUSH1 0x40 MSTORE PUSH2 0x473 DUP8 PUSH2 0x37BE JUMP JUMPDEST DUP2 MSTORE PUSH2 0x480 DUP6 DUP9 ADD PUSH2 0x37BE JUMP JUMPDEST DUP4 DUP3 ADD MSTORE PUSH2 0x490 PUSH1 0x2 DUP9 ADD PUSH2 0x37BE JUMP JUMPDEST PUSH1 0x40 DUP3 ADD MSTORE PUSH1 0x1 PUSH1 0x1 PUSH1 0xA0 SHL SUB PUSH1 0x3 DUP9 ADD SLOAD AND PUSH1 0x60 DUP3 ADD MSTORE PUSH1 0x4 DUP8 ADD SLOAD PUSH1 0x80 DUP3 ADD MSTORE PUSH1 0x5 DUP8 ADD SLOAD PUSH1 0xA0 DUP3 ADD MSTORE PUSH1 0x6 DUP8 ADD SLOAD PUSH1 0xC0 DUP3 ADD MSTORE PUSH1 0xFF PUSH1 0x7 DUP9 ADD SLOAD AND PUSH1 0xE0 DUP3 ADD MSTORE PUSH1 0x8 DUP8 ADD SLOAD PUSH2 0x100 DUP3 ADD MSTORE PUSH1 0x9 DUP8 ADD SLOAD PUSH2 0x120 DUP3 ADD MSTORE PUSH1 0xA DUP8 ADD SLOAD PUSH2 0x140 DUP3 ADD MSTORE DUP2 MSTORE ADD SWAP4 ADD SWAP2 ADD SWAP1 SWAP2 SWAP7 SWAP4 SWAP6 SWAP7 PUSH2 0x348 JUMP JUMPDEST PUSH4 0x4E487B71 PUSH1 0xE0 SHL PUSH1 0x0 MSTORE PUSH1 0x41 PUSH1 0x4 MSTORE PUSH1 0x24 PUSH1 0x0 REVERT JUMPDEST POP CALLVALUE PUSH2 0x208 JUMPI PUSH1 0x20 SWAP1 DUP2 PUSH1 0x3 NOT CALLDATASIZE ADD SLT PUSH2 0x208 JUMPI PUSH1 0x4 CALLDATALOAD PUSH8 0xFFFFFFFFFFFFFFFF DUP2 GT PUSH2 0x5E8 JUMPI DUP3 PUSH2 0x5CF SWAP3 PUSH2 0x558 PUSH2 0x5C1 SWAP4 CALLDATASIZE SWAP1 PUSH1 0x4 ADD PUSH2 0x3464 JUMP JUMPDEST SWAP1 DUP1 PUSH2 0x160 PUSH1 0x40 MLOAD PUSH2 0x569 DUP2 PUSH2 0x3425 JUMP JUMPDEST PUSH1 0x60 DUP2 MSTORE PUSH1 0x60 DUP7 DUP3 ADD MSTORE DUP3 PUSH1 0x40 DUP3 ADD MSTORE DUP3 PUSH1 0x60 DUP3 ADD MSTORE DUP3 PUSH1 0x80 DUP3 ADD MSTORE DUP3 PUSH1 0xA0 DUP3 ADD MSTORE DUP3 PUSH1 0xC0 DUP3 ADD MSTORE DUP3 PUSH1 0xE0 DUP3 ADD MSTORE DUP3 PUSH2 0x100 DUP3 ADD MSTORE DUP3 PUSH2 0x120 DUP3 ADD MSTORE DUP3 PUSH2 0x140 DUP3 ADD MSTORE ADD MSTORE DUP3 PUSH1 0x40 MLOAD SWAP5 DUP4 DUP7 DUP1 SWAP6 MLOAD SWAP4 DUP5 SWAP3 ADD PUSH2 0x34BB JUMP JUMPDEST DUP3 ADD SWAP1 DUP2 MSTORE SUB ADD SWAP1 KECCAK256 PUSH2 0x3E08 JUMP JUMPDEST SWAP1 PUSH2 0x5E4 PUSH1 0x40 MLOAD SWAP3 DUP3 DUP5 SWAP4 DUP5 MSTORE DUP4 ADD SWAP1 PUSH2 0x3649 JUMP JUMPDEST SUB SWAP1 RETURN JUMPDEST POP DUP1 REVERT JUMPDEST POP CALLVALUE PUSH2 0x208 JUMPI PUSH1 0x40 CALLDATASIZE PUSH1 0x3 NOT ADD SLT PUSH2 0x208 JUMPI PUSH1 0x4 CALLDATALOAD PUSH8 0xFFFFFFFFFFFFFFFF DUP2 GT PUSH2 0x5E8 JUMPI PUSH2 0x61E SWAP1 CALLDATASIZE SWAP1 PUSH1 0x4 ADD PUSH2 0x35C5 JUMP JUMPDEST PUSH2 0x629 SWAP3 SWAP2 SWAP3 PUSH2 0x3398 JUMP JUMPDEST PUSH1 0x1 PUSH1 0x1 PUSH1 0xA0 SHL SUB SWAP4 PUSH2 0x641 DUP6 PUSH1 0x8 SLOAD AND CALLER EQ PUSH2 0x38E3 JUMP JUMPDEST PUSH1 0x40 MLOAD SWAP3 DUP4 SWAP3 DUP2 DUP4 DUP6 CALLDATACOPY PUSH1 0xFF DUP3 DUP6 ADD DUP8 DUP2 MSTORE PUSH1 0x9 SWAP6 DUP7 SWAP2 PUSH1 0x20 SWAP9 DUP10 SWAP2 SUB ADD SWAP1 KECCAK256 ADD SLOAD PUSH1 0xA8 SHR AND PUSH1 0x6 DUP2 LT ISZERO PUSH2 0x979 JUMPI PUSH1 0x4 SUB PUSH2 0x950 JUMPI DUP7 SWAP1 DUP5 PUSH1 0x40 MLOAD DUP5 DUP7 DUP3 CALLDATACOPY DUP8 DUP2 DUP7 DUP2 ADD DUP12 DUP2 MSTORE SUB ADD SWAP1 KECCAK256 ADD PUSH22 0x5000000000000000000000000000000000000000000 PUSH1 0xFF PUSH1 0xA8 SHL NOT SWAP2 DUP2 DUP4 DUP3 SLOAD AND OR SWAP1 SSTORE DUP7 PUSH2 0x6D6 PUSH1 0x8 DUP12 DUP12 PUSH1 0x40 MLOAD DUP1 SWAP3 DUP12 DUP14 DUP4 CALLDATACOPY DUP12 DUP3 ADD SWAP1 DUP2 MSTORE SUB ADD SWAP1 KECCAK256 ADD SLOAD PUSH2 0x372D JUMP JUMPDEST POP ADD DUP2 DUP4 DUP3 SLOAD AND OR SWAP1 SSTORE DUP4 PUSH1 0x2 PUSH1 0x40 MLOAD DUP8 DUP10 DUP3 CALLDATACOPY DUP11 DUP2 DUP14 DUP11 DUP3 ADD SWAP1 DUP2 MSTORE SUB ADD SWAP1 KECCAK256 ADD SLOAD AND DUP10 MSTORE PUSH1 0x6 DUP9 MSTORE DUP7 PUSH2 0x729 DUP11 PUSH1 0x8 DUP9 DUP13 DUP12 PUSH1 0x40 DUP6 KECCAK256 SWAP5 PUSH1 0x40 MLOAD SWAP4 DUP5 SWAP3 DUP4 CALLDATACOPY DUP13 DUP3 ADD SWAP1 DUP2 MSTORE SUB ADD SWAP1 KECCAK256 ADD SLOAD SWAP1 PUSH2 0x3768 JUMP JUMPDEST POP ADD SWAP2 DUP3 SLOAD AND OR SWAP1 SSTORE AND DUP1 EXTCODESIZE ISZERO PUSH2 0x94C JUMPI DUP6 DUP1 SWAP2 PUSH1 0x4 PUSH1 0x40 MLOAD DUP1 SWAP5 DUP2 SWAP4 PUSH32 0xBE040FB000000000000000000000000000000000000000000000000000000000 DUP4 MSTORE GAS CALL DUP1 ISZERO PUSH2 0x941 JUMPI SWAP1 DUP7 SWAP2 PUSH2 0x929 JUMPI JUMPDEST POP POP DUP5 JUMPDEST PUSH1 0x40 MLOAD DUP3 DUP5 DUP3 CALLDATACOPY DUP3 DUP2 ADD SWAP1 DUP7 DUP2 PUSH1 0x3 SWAP4 DUP5 DUP2 MSTORE SUB ADD SWAP1 KECCAK256 SLOAD DUP3 LT ISZERO PUSH2 0x8EB JUMPI DUP8 PUSH2 0x7DC DUP4 PUSH1 0x1 PUSH2 0x7BF DUP3 PUSH1 0x40 MLOAD DUP10 DUP12 DUP3 CALLDATACOPY DUP13 DUP2 DUP12 DUP2 ADD DUP11 DUP2 MSTORE SUB ADD SWAP1 KECCAK256 PUSH2 0x3711 JUMP JUMPDEST POP ADD SLOAD SWAP4 DUP10 PUSH1 0x40 MLOAD DUP1 SWAP3 DUP10 DUP12 DUP4 CALLDATACOPY DUP10 DUP3 ADD SWAP1 DUP2 MSTORE SUB ADD SWAP1 KECCAK256 PUSH2 0x3711 JUMP JUMPDEST POP SLOAD AND DUP2 ISZERO SWAP1 DUP2 ISZERO PUSH2 0x811 JUMPI JUMPDEST POP POP POP PUSH1 0x0 NOT DUP2 EQ PUSH2 0x7FD JUMPI PUSH1 0x1 ADD PUSH2 0x77D JUMP JUMPDEST PUSH1 0x24 DUP7 PUSH4 0x4E487B71 PUSH1 0xE0 SHL DUP2 MSTORE PUSH1 0x11 PUSH1 0x4 MSTORE REVERT JUMPDEST DUP10 DUP8 PUSH1 0x40 MLOAD DUP8 DUP10 DUP3 CALLDATACOPY DUP11 DUP2 DUP14 DUP11 DUP3 ADD SWAP1 DUP2 MSTORE SUB ADD SWAP1 KECCAK256 ADD SLOAD AND SWAP2 PUSH8 0xDE0B6B3A7640000 DUP1 DUP6 MUL SWAP5 DUP6 DIV EQ OR ISZERO PUSH2 0x8D7 JUMPI PUSH1 0x40 MLOAD PUSH32 0xA9059CBB00000000000000000000000000000000000000000000000000000000 DUP2 MSTORE PUSH1 0x1 PUSH1 0x1 PUSH1 0xA0 SHL SUB SWAP2 SWAP1 SWAP2 AND PUSH1 0x4 DUP3 ADD MSTORE PUSH1 0x24 DUP2 ADD SWAP3 SWAP1 SWAP3 MSTORE DUP7 SWAP1 DUP3 SWAP1 PUSH1 0x44 SWAP1 DUP3 SWAP1 DUP12 SWAP1 GAS CALL DUP1 ISZERO PUSH2 0x8CC JUMPI PUSH2 0x89F JUMPI JUMPDEST DUP1 DUP1 PUSH2 0x7E9 JUMP JUMPDEST PUSH2 0x8BE SWAP1 DUP7 RETURNDATASIZE DUP9 GT PUSH2 0x8C5 JUMPI JUMPDEST PUSH2 0x8B6 DUP2 DUP4 PUSH2 0x3442 JUMP JUMPDEST DUP2 ADD SWAP1 PUSH2 0x392E JUMP JUMPDEST POP CODESIZE PUSH2 0x898 JUMP JUMPDEST POP RETURNDATASIZE PUSH2 0x8AC JUMP JUMPDEST PUSH1 0x40 MLOAD RETURNDATASIZE DUP10 DUP3 RETURNDATACOPY RETURNDATASIZE SWAP1 REVERT JUMPDEST PUSH1 0x24 DUP10 PUSH4 0x4E487B71 PUSH1 0xE0 SHL DUP2 MSTORE PUSH1 0x11 PUSH1 0x4 MSTORE REVERT JUMPDEST PUSH1 0x40 MLOAD DUP7 DUP2 MSTORE DUP8 SWAP1 PUSH32 0xDFDF42FF0D0EB3E6EC5B40D8CF21FB2F7102B67E5E2D56AB36E817F807213C5B SWAP1 DUP1 PUSH2 0x923 DUP2 DUP12 ADD DUP9 DUP11 PUSH2 0x3C62 JUMP JUMPDEST SUB SWAP1 LOG1 DUP1 RETURN JUMPDEST PUSH2 0x932 SWAP1 PUSH2 0x3411 JUMP JUMPDEST PUSH2 0x93D JUMPI DUP5 CODESIZE PUSH2 0x779 JUMP JUMPDEST DUP5 DUP1 REVERT JUMPDEST PUSH1 0x40 MLOAD RETURNDATASIZE DUP9 DUP3 RETURNDATACOPY RETURNDATASIZE SWAP1 REVERT JUMPDEST DUP6 DUP1 REVERT JUMPDEST POP DUP4 PUSH2 0x975 DUP4 PUSH1 0x40 MLOAD SWAP4 DUP5 SWAP4 PUSH4 0x2DC59421 PUSH1 0xE2 SHL DUP6 MSTORE PUSH1 0x4 DUP6 ADD MSTORE PUSH1 0x24 DUP5 ADD SWAP2 PUSH2 0x3C62 JUMP JUMPDEST SUB SWAP1 REVERT JUMPDEST PUSH1 0x24 DUP8 PUSH4 0x4E487B71 PUSH1 0xE0 SHL DUP2 MSTORE PUSH1 0x21 PUSH1 0x4 MSTORE REVERT JUMPDEST POP CALLVALUE PUSH2 0x208 JUMPI PUSH1 0x20 CALLDATASIZE PUSH1 0x3 NOT ADD SLT PUSH2 0x208 JUMPI DUP1 PUSH2 0x9A8 PUSH2 0x3382 JUMP JUMPDEST PUSH1 0x1 PUSH1 0x1 PUSH1 0xA0 SHL SUB SWAP1 PUSH2 0x9C0 DUP3 PUSH1 0x8 SLOAD AND CALLER EQ PUSH2 0x38E3 JUMP JUMPDEST DUP2 PUSH1 0x9 SLOAD AND SWAP2 DUP3 EXTCODESIZE ISZERO PUSH2 0xA61 JUMPI PUSH1 0x84 DUP5 SWAP3 DUP4 PUSH1 0x40 MLOAD SWAP6 DUP7 SWAP5 DUP6 SWAP4 PUSH32 0xCFDE189000000000000000000000000000000000000000000000000000000000 DUP6 MSTORE PUSH1 0x40 PUSH1 0x4 DUP7 ADD MSTORE PUSH1 0x7 PUSH1 0x44 DUP7 ADD MSTORE PUSH32 0x4D414E4147455200000000000000000000000000000000000000000000000000 PUSH1 0x64 DUP7 ADD MSTORE AND PUSH1 0x24 DUP5 ADD MSTORE GAS CALL DUP1 ISZERO PUSH2 0xA56 JUMPI PUSH2 0xA46 JUMPI POP RETURN JUMPDEST PUSH2 0xA4F SWAP1 PUSH2 0x3411 JUMP JUMPDEST PUSH2 0x208 JUMPI DUP1 RETURN JUMPDEST PUSH1 0x40 MLOAD RETURNDATASIZE DUP5 DUP3 RETURNDATACOPY RETURNDATASIZE SWAP1 REVERT JUMPDEST POP POP POP REVERT JUMPDEST POP CALLVALUE PUSH2 0x208 JUMPI DUP1 PUSH1 0x3 NOT CALLDATASIZE ADD SLT PUSH2 0x208 JUMPI PUSH1 0x20 PUSH1 0x1 PUSH1 0x1 PUSH1 0xA0 SHL SUB PUSH1 0x9 SLOAD AND PUSH1 0x40 MLOAD SWAP1 DUP2 MSTORE RETURN JUMPDEST POP CALLVALUE PUSH2 0x208 JUMPI PUSH1 0x20 SWAP1 DUP2 PUSH1 0x3 NOT CALLDATASIZE ADD SLT PUSH2 0x208 JUMPI PUSH1 0x4 CALLDATALOAD PUSH8 0xFFFFFFFFFFFFFFFF DUP2 GT PUSH2 0x5E8 JUMPI DUP3 PUSH2 0xAC3 DUP2 SWAP3 CALLDATASIZE SWAP1 PUSH1 0x4 ADD PUSH2 0x35C5 JUMP JUMPDEST SWAP2 SWAP1 DUP3 PUSH1 0x40 MLOAD SWAP4 DUP5 SWAP3 DUP4 CALLDATACOPY DUP2 ADD PUSH1 0x3 DUP2 MSTORE SUB ADD SWAP1 KECCAK256 DUP1 SLOAD PUSH2 0xAE3 DUP2 PUSH2 0x3CD8 JUMP JUMPDEST SWAP1 PUSH2 0xAF1 PUSH1 0x40 MLOAD SWAP3 DUP4 PUSH2 0x3442 JUMP JUMPDEST DUP1 DUP3 MSTORE DUP4 DUP3 ADD DUP1 SWAP4 DUP7 MSTORE DUP5 DUP7 KECCAK256 DUP7 SWAP2 JUMPDEST DUP4 DUP4 LT PUSH2 0xB57 JUMPI POP POP POP POP PUSH1 0x40 MLOAD SWAP3 DUP1 DUP5 ADD SWAP2 DUP2 DUP6 MSTORE MLOAD DUP1 SWAP3 MSTORE PUSH1 0x40 DUP5 ADD SWAP3 SWAP5 JUMPDEST DUP3 DUP2 LT PUSH2 0xB2F JUMPI DUP5 DUP5 SUB DUP6 RETURN JUMPDEST DUP6 MLOAD DUP1 MLOAD PUSH1 0x1 PUSH1 0x1 PUSH1 0xA0 SHL SUB AND DUP6 MSTORE DUP3 ADD MLOAD DUP5 DUP4 ADD MSTORE SWAP5 DUP2 ADD SWAP5 PUSH1 0x40 SWAP1 SWAP4 ADD SWAP3 PUSH1 0x1 ADD PUSH2 0xB22 JUMP JUMPDEST PUSH1 0x2 DUP8 PUSH1 0x1 SWAP3 PUSH1 0x40 SWAP11 SWAP10 SWAP8 SWAP9 SWAP11 MLOAD PUSH2 0xB6E DUP2 PUSH2 0x33F5 JUMP JUMPDEST PUSH1 0x1 PUSH1 0x1 PUSH1 0xA0 SHL SUB DUP7 SLOAD AND DUP2 MSTORE DUP5 DUP7 ADD SLOAD DUP4 DUP3 ADD MSTORE DUP2 MSTORE ADD SWAP3 ADD SWAP3 ADD SWAP2 SWAP1 SWAP7 SWAP5 SWAP4 SWAP6 SWAP7 PUSH2 0xB01 JUMP JUMPDEST POP CALLVALUE PUSH2 0x208 JUMPI DUP1 PUSH1 0x3 NOT CALLDATASIZE ADD SLT PUSH2 0x208 JUMPI PUSH1 0xA0 PUSH1 0x1 PUSH1 0x1 PUSH1 0xA0 SHL SUB DUP1 PUSH1 0x8 SLOAD AND SWAP1 DUP1 PUSH1 0x9 SLOAD AND SWAP1 DUP1 PUSH1 0xA SLOAD AND DUP2 PUSH1 0xB SLOAD AND SWAP2 PUSH1 0xD SLOAD AND SWAP3 PUSH1 0x40 MLOAD SWAP5 DUP6 MSTORE PUSH1 0x20 DUP6 ADD MSTORE PUSH1 0x40 DUP5 ADD MSTORE PUSH1 0x60 DUP4 ADD MSTORE PUSH1 0x80 DUP3 ADD MSTORE RETURN JUMPDEST POP CALLVALUE PUSH2 0x208 JUMPI PUSH1 0x20 CALLDATASIZE PUSH1 0x3 NOT ADD SLT PUSH2 0x208 JUMPI DUP1 PUSH2 0xC04 PUSH2 0x3382 JUMP JUMPDEST PUSH1 0x1 PUSH1 0x1 PUSH1 0xA0 SHL SUB SWAP1 PUSH2 0xC1C DUP3 PUSH1 0x8 SLOAD AND CALLER EQ PUSH2 0x38E3 JUMP JUMPDEST AND DUP1 EXTCODESIZE ISZERO PUSH2 0xC62 JUMPI DUP2 DUP1 SWAP2 PUSH1 0x4 PUSH1 0x40 MLOAD DUP1 SWAP5 DUP2 SWAP4 PUSH32 0x442447CA00000000000000000000000000000000000000000000000000000000 DUP4 MSTORE GAS CALL DUP1 ISZERO PUSH2 0xA56 JUMPI PUSH2 0xA46 JUMPI POP RETURN JUMPDEST POP REVERT JUMPDEST POP CALLVALUE PUSH2 0x208 JUMPI DUP1 PUSH1 0x3 NOT CALLDATASIZE ADD SLT PUSH2 0x208 JUMPI PUSH1 0x20 PUSH1 0xE SLOAD PUSH1 0x40 MLOAD SWAP1 DUP2 MSTORE RETURN JUMPDEST POP CALLVALUE PUSH2 0x208 JUMPI PUSH1 0x20 CALLDATASIZE PUSH1 0x3 NOT ADD SLT PUSH2 0x208 JUMPI PUSH1 0x4 CALLDATALOAD PUSH8 0xFFFFFFFFFFFFFFFF DUP2 GT PUSH2 0x5E8 JUMPI PUSH2 0xCCF SWAP2 PUSH2 0xCBB PUSH1 0x20 SWAP3 CALLDATASIZE SWAP1 PUSH1 0x4 ADD PUSH2 0x3464 JUMP JUMPDEST SWAP1 DUP3 PUSH1 0x40 MLOAD SWAP5 DUP4 DUP7 DUP1 SWAP6 MLOAD SWAP4 DUP5 SWAP3 ADD PUSH2 0x34BB JUMP JUMPDEST DUP3 ADD SWAP1 DUP2 MSTORE SUB ADD SWAP1 KECCAK256 PUSH2 0xCE1 DUP2 PUSH2 0x37BE JUMP JUMPDEST SWAP1 PUSH2 0x5E4 PUSH2 0xCF1 PUSH1 0x1 DUP4 ADD PUSH2 0x37BE JUMP JUMPDEST SWAP2 PUSH1 0x1 PUSH1 0x1 PUSH1 0xA0 SHL SUB SWAP1 DUP2 PUSH1 0x2 DUP3 ADD SLOAD AND SWAP5 PUSH1 0x3 DUP3 ADD SLOAD SWAP2 PUSH1 0x4 DUP2 ADD SLOAD PUSH1 0x5 DUP3 ADD SLOAD PUSH1 0x6 DUP4 ADD SLOAD SWAP1 PUSH1 0x7 DUP5 ADD SLOAD SWAP3 PUSH1 0x9 PUSH1 0x8 DUP7 ADD SLOAD SWAP6 ADD SLOAD SWAP7 PUSH1 0x40 MLOAD SWAP12 DUP13 SWAP12 PUSH1 0xFF DUP11 PUSH1 0xA8 SHR AND SWAP11 PUSH1 0xFF DUP12 PUSH1 0xA0 SHR AND SWAP11 AND SWAP9 DUP14 PUSH2 0x3864 JUMP JUMPDEST POP CALLVALUE PUSH2 0x208 JUMPI PUSH1 0x40 CALLDATASIZE PUSH1 0x3 NOT ADD SLT PUSH2 0x208 JUMPI DUP1 PUSH2 0xD63 PUSH2 0x3398 JUMP JUMPDEST PUSH1 0x1 PUSH1 0x1 PUSH1 0xA0 SHL SUB SWAP1 PUSH2 0xD7B DUP3 PUSH1 0x8 SLOAD AND CALLER EQ PUSH2 0x38E3 JUMP JUMPDEST AND DUP1 EXTCODESIZE ISZERO PUSH2 0xC62 JUMPI DUP2 DUP1 SWAP2 PUSH1 0x24 PUSH1 0x40 MLOAD DUP1 SWAP5 DUP2 SWAP4 PUSH32 0x68A2DA5100000000000000000000000000000000000000000000000000000000 DUP4 MSTORE PUSH1 0x4 CALLDATALOAD PUSH1 0x4 DUP5 ADD MSTORE GAS CALL DUP1 ISZERO PUSH2 0xA56 JUMPI PUSH2 0xA46 JUMPI POP RETURN JUMPDEST POP CALLVALUE PUSH2 0x208 JUMPI DUP1 PUSH1 0x3 NOT CALLDATASIZE ADD SLT PUSH2 0x208 JUMPI PUSH1 0x20 PUSH1 0x1 PUSH1 0x1 PUSH1 0xA0 SHL SUB PUSH1 0x8 SLOAD AND PUSH1 0x40 MLOAD SWAP1 DUP2 MSTORE RETURN JUMPDEST POP CALLVALUE PUSH2 0x208 JUMPI PUSH1 0x20 CALLDATASIZE PUSH1 0x3 NOT ADD SLT PUSH2 0x208 JUMPI PUSH2 0xE0A PUSH2 0x3382 JUMP JUMPDEST PUSH1 0x1 PUSH1 0x1 PUSH1 0xA0 SHL SUB SWAP1 PUSH2 0xE22 DUP3 PUSH1 0x8 SLOAD AND CALLER EQ PUSH2 0x38E3 JUMP JUMPDEST AND DUP1 ISZERO PUSH2 0x5E8 JUMPI PUSH1 0x1 PUSH1 0x1 PUSH1 0xA0 SHL SUB NOT PUSH1 0xD SLOAD AND OR PUSH1 0xD SSTORE DUP1 RETURN JUMPDEST POP CALLVALUE PUSH2 0x208 JUMPI DUP1 PUSH1 0x3 NOT CALLDATASIZE ADD SLT PUSH2 0x208 JUMPI PUSH1 0x20 PUSH1 0x1 PUSH1 0x1 PUSH1 0xA0 SHL SUB PUSH1 0xC SLOAD AND PUSH1 0x40 MLOAD SWAP1 DUP2 MSTORE RETURN JUMPDEST POP CALLVALUE PUSH2 0x208 JUMPI DUP1 PUSH1 0x3 NOT CALLDATASIZE ADD SLT PUSH2 0x208 JUMPI PUSH1 0x20 PUSH1 0xF SLOAD PUSH1 0x40 MLOAD SWAP1 DUP2 MSTORE RETURN JUMPDEST POP CALLVALUE PUSH2 0x208 JUMPI PUSH1 0x20 SWAP1 DUP2 PUSH1 0x3 NOT CALLDATASIZE ADD SLT PUSH2 0x208 JUMPI PUSH1 0x4 CALLDATALOAD PUSH8 0xFFFFFFFFFFFFFFFF DUP2 GT PUSH2 0x5E8 JUMPI PUSH2 0xEB6 SWAP1 CALLDATASIZE SWAP1 PUSH1 0x4 ADD PUSH2 0x35C5 JUMP JUMPDEST SWAP1 SWAP3 PUSH2 0xECE PUSH1 0x1 PUSH1 0x1 PUSH1 0xA0 SHL SUB PUSH1 0x8 SLOAD AND CALLER EQ PUSH2 0x38E3 JUMP JUMPDEST PUSH1 0xFF PUSH1 0x9 PUSH1 0x40 MLOAD DUP5 DUP8 DUP3 CALLDATACOPY DUP4 DUP2 DUP7 DUP2 ADD DUP9 DUP2 MSTORE SUB ADD SWAP1 KECCAK256 ADD SLOAD PUSH1 0xA8 SHR AND PUSH1 0x6 DUP2 LT ISZERO PUSH2 0xF9E JUMPI PUSH32 0x735CCDD611541D36C82A3622BAAB7F58B8A0F5BE664555B0D9C95DDDE16096D3 SWAP4 SWAP5 PUSH2 0xF26 PUSH1 0x1 PUSH2 0x923 SWAP4 EQ PUSH2 0x39BE JUMP JUMPDEST PUSH1 0x9 PUSH1 0x40 MLOAD DUP6 DUP4 DUP3 CALLDATACOPY DUP5 DUP2 DUP8 DUP2 ADD DUP11 DUP2 MSTORE SUB ADD SWAP1 KECCAK256 ADD PUSH22 0x3000000000000000000000000000000000000000000 PUSH1 0xFF PUSH1 0xA8 SHL NOT SWAP2 DUP2 DUP4 DUP3 SLOAD AND OR SWAP1 SSTORE PUSH1 0x9 PUSH2 0xF84 PUSH1 0x8 PUSH1 0x40 MLOAD DUP10 DUP8 DUP3 CALLDATACOPY DUP9 DUP2 DUP14 DUP13 DUP3 ADD SWAP1 DUP2 MSTORE SUB ADD SWAP1 KECCAK256 ADD SLOAD PUSH2 0x372D JUMP JUMPDEST POP ADD SWAP2 DUP3 SLOAD AND OR SWAP1 SSTORE PUSH1 0x40 MLOAD SWAP4 DUP4 DUP6 SWAP5 DUP6 MSTORE DUP5 ADD SWAP2 PUSH2 0x3C62 JUMP JUMPDEST PUSH1 0x24 DUP5 PUSH4 0x4E487B71 PUSH1 0xE0 SHL DUP2 MSTORE PUSH1 0x21 PUSH1 0x4 MSTORE REVERT JUMPDEST POP CALLVALUE PUSH2 0x208 JUMPI PUSH1 0x20 CALLDATASIZE PUSH1 0x3 NOT ADD SLT PUSH2 0x208 JUMPI PUSH2 0xFDA PUSH1 0x1 PUSH1 0x1 PUSH1 0xA0 SHL SUB PUSH1 0x8 SLOAD AND CALLER EQ PUSH2 0x38E3 JUMP JUMPDEST PUSH1 0x4 CALLDATALOAD PUSH1 0xF SSTORE DUP1 RETURN JUMPDEST POP CALLVALUE PUSH2 0x208 JUMPI PUSH1 0x20 CALLDATASIZE PUSH1 0x3 NOT ADD SLT PUSH2 0x208 JUMPI PUSH1 0x4 CALLDATALOAD SWAP1 PUSH8 0xFFFFFFFFFFFFFFFF DUP3 GT PUSH2 0x208 JUMPI PUSH1 0x20 DUP1 PUSH2 0x1018 CALLDATASIZE PUSH1 0x4 DUP7 ADD PUSH2 0x35C5 JUMP JUMPDEST SWAP2 SWAP1 DUP3 PUSH1 0x40 MLOAD SWAP4 DUP5 SWAP3 DUP4 CALLDATACOPY DUP2 ADD PUSH1 0x4 DUP2 MSTORE SUB ADD SWAP1 KECCAK256 SLOAD PUSH1 0x40 MLOAD SWAP1 DUP2 MSTORE RETURN JUMPDEST POP CALLVALUE PUSH2 0x208 JUMPI PUSH1 0x20 CALLDATASIZE PUSH1 0x3 NOT ADD SLT PUSH2 0x208 JUMPI PUSH1 0x4 CALLDATALOAD SWAP1 PUSH8 0xFFFFFFFFFFFFFFFF DUP3 GT PUSH2 0x208 JUMPI PUSH1 0x20 PUSH2 0x106E DUP2 PUSH2 0x29D CALLDATASIZE PUSH1 0x4 DUP8 ADD PUSH2 0x3464 JUMP JUMPDEST DUP2 ADD PUSH1 0x4 DUP2 MSTORE SUB ADD SWAP1 KECCAK256 SLOAD PUSH1 0x40 MLOAD SWAP1 DUP2 MSTORE RETURN JUMPDEST POP CALLVALUE PUSH2 0x208 JUMPI DUP1 PUSH1 0x3 NOT CALLDATASIZE ADD SLT PUSH2 0x208 JUMPI PUSH1 0x20 PUSH1 0x1 PUSH1 0x1 PUSH1 0xA0 SHL SUB PUSH1 0xB SLOAD AND PUSH1 0x40 MLOAD SWAP1 DUP2 MSTORE RETURN JUMPDEST POP CALLVALUE PUSH2 0x208 JUMPI PUSH1 0x3 NOT SWAP1 PUSH1 0x60 CALLDATASIZE DUP4 ADD SLT PUSH2 0x208 JUMPI PUSH8 0xFFFFFFFFFFFFFFFF PUSH1 0x4 CALLDATALOAD DUP2 DUP2 GT PUSH2 0x16D0 JUMPI PUSH2 0x10DD SWAP1 CALLDATASIZE SWAP1 PUSH1 0x4 ADD PUSH2 0x35C5 JUMP JUMPDEST SWAP4 SWAP1 SWAP2 PUSH1 0x24 CALLDATALOAD GT PUSH2 0x16D0 JUMPI PUSH2 0x160 SWAP1 PUSH1 0x24 CALLDATALOAD CALLDATASIZE SUB ADD SLT PUSH2 0x5E8 JUMPI PUSH2 0x10FF PUSH2 0x33AE JUMP JUMPDEST SWAP3 PUSH2 0x1116 PUSH1 0x1 PUSH1 0x1 PUSH1 0xA0 SHL SUB PUSH1 0x8 SLOAD AND CALLER EQ PUSH2 0x38E3 JUMP JUMPDEST PUSH1 0xFF PUSH1 0x9 PUSH1 0x40 MLOAD DUP4 DUP6 DUP3 CALLDATACOPY PUSH1 0x20 DUP2 DUP6 DUP2 ADD DUP9 DUP2 MSTORE SUB ADD SWAP1 KECCAK256 ADD SLOAD PUSH1 0xA8 SHR AND PUSH1 0x6 DUP2 LT ISZERO PUSH2 0xF9E JUMPI PUSH1 0x2 SUB PUSH2 0x17E6 JUMPI PUSH1 0x40 MLOAD DUP2 DUP4 DUP3 CALLDATACOPY PUSH1 0x20 DUP2 DUP4 DUP2 ADD PUSH1 0x1 DUP2 MSTORE SUB ADD SWAP1 KECCAK256 PUSH1 0x1 PUSH1 0x1 PUSH1 0xA0 SHL SUB DUP6 AND PUSH1 0x1 PUSH1 0x1 PUSH1 0xA0 SHL SUB NOT DUP3 SLOAD AND OR SWAP1 SSTORE PUSH1 0x9 PUSH1 0x40 MLOAD DUP3 DUP5 DUP3 CALLDATACOPY PUSH1 0x20 DUP2 DUP5 DUP2 ADD DUP8 DUP2 MSTORE SUB ADD SWAP1 KECCAK256 ADD PUSH22 0x4000000000000000000000000000000000000000000 PUSH1 0xFF PUSH1 0xA8 SHL NOT SWAP2 DUP2 DUP4 DUP3 SLOAD AND OR SWAP1 SSTORE PUSH1 0x9 PUSH2 0x11D1 PUSH1 0x8 PUSH1 0x40 MLOAD DUP7 DUP9 DUP3 CALLDATACOPY PUSH1 0x20 DUP2 DUP9 DUP2 ADD DUP12 DUP2 MSTORE SUB ADD SWAP1 KECCAK256 ADD SLOAD PUSH2 0x372D JUMP JUMPDEST POP ADD SWAP2 DUP3 SLOAD AND OR SWAP1 SSTORE PUSH1 0x1 PUSH1 0x1 PUSH1 0xA0 SHL SUB PUSH1 0x2 PUSH1 0x40 MLOAD DUP4 DUP6 DUP3 CALLDATACOPY PUSH1 0x20 DUP2 DUP6 DUP2 ADD DUP9 DUP2 MSTORE SUB ADD SWAP1 KECCAK256 ADD SLOAD AND DUP4 MSTORE PUSH1 0x6 PUSH1 0x20 MSTORE PUSH1 0x40 DUP4 KECCAK256 PUSH1 0x40 MLOAD DUP3 DUP5 DUP3 CALLDATACOPY PUSH1 0x20 DUP2 DUP5 DUP2 ADD DUP8 DUP2 MSTORE SUB ADD SWAP1 KECCAK256 SWAP1 DUP1 SLOAD PUSH1 0x1 PUSH1 0x40 SHL DUP2 LT ISZERO PUSH2 0x506 JUMPI PUSH2 0x1238 SWAP2 PUSH1 0x1 DUP3 ADD DUP2 SSTORE PUSH2 0x3768 JUMP JUMPDEST SWAP2 SWAP1 SWAP2 PUSH2 0x17D0 JUMPI DUP1 DUP3 SUB PUSH2 0x16FC JUMPI JUMPDEST POP POP PUSH1 0x12 SLOAD PUSH1 0x1 PUSH1 0x40 SHL DUP2 LT ISZERO PUSH2 0x16E8 JUMPI PUSH1 0x1 DUP2 ADD DUP1 PUSH1 0x12 SSTORE DUP2 LT ISZERO PUSH2 0x16D4 JUMPI DUP2 DUP4 PUSH2 0x1298 SWAP3 PUSH1 0x12 DUP8 MSTORE PUSH32 0xBB8A6A4669BA250D26CD7A459ECA9D215F8307E33AEBE50379BC5A3617EC3444 ADD PUSH2 0x3A90 JUMP JUMPDEST PUSH1 0x1 PUSH1 0x1 PUSH1 0xA0 SHL SUB DUP5 AND EXTCODESIZE ISZERO PUSH2 0x16D0 JUMPI PUSH1 0x40 MLOAD PUSH32 0xD76805AA00000000000000000000000000000000000000000000000000000000 DUP2 MSTORE PUSH1 0x20 PUSH1 0x4 DUP3 ADD MSTORE PUSH2 0x1350 PUSH2 0x1302 PUSH2 0x12EF PUSH1 0x24 CALLDATALOAD PUSH1 0x4 ADD PUSH1 0x24 CALLDATALOAD PUSH1 0x4 ADD PUSH2 0x3C83 JUMP JUMPDEST PUSH2 0x160 PUSH1 0x24 DUP7 ADD MSTORE PUSH2 0x184 DUP6 ADD SWAP2 PUSH2 0x3C62 JUMP JUMPDEST PUSH2 0x132C PUSH2 0x1318 PUSH1 0x24 DUP1 CALLDATALOAD ADD PUSH1 0x24 CALLDATALOAD PUSH1 0x4 ADD PUSH2 0x3C83 JUMP JUMPDEST PUSH1 0x23 NOT DUP7 DUP6 SUB DUP2 ADD PUSH1 0x44 DUP9 ADD MSTORE SWAP4 SWAP2 PUSH2 0x3C62 JUMP JUMPDEST SWAP1 PUSH2 0x1341 PUSH1 0x44 PUSH1 0x24 CALLDATALOAD ADD PUSH1 0x24 CALLDATALOAD PUSH1 0x4 ADD PUSH2 0x3C83 JUMP JUMPDEST SWAP2 DUP6 DUP5 SUB ADD PUSH1 0x64 DUP7 ADD MSTORE PUSH2 0x3C62 JUMP JUMPDEST SWAP5 PUSH1 0x1 PUSH1 0x1 PUSH1 0xA0 SHL SUB PUSH2 0x1367 PUSH1 0x64 PUSH1 0x24 CALLDATALOAD ADD PUSH2 0x33C4 JUMP JUMPDEST AND PUSH1 0x84 DUP4 ADD MSTORE PUSH1 0x84 PUSH1 0x24 CALLDATALOAD ADD CALLDATALOAD PUSH1 0xA4 DUP4 ADD MSTORE PUSH1 0xA4 PUSH1 0x24 CALLDATALOAD ADD CALLDATALOAD PUSH1 0xC4 DUP4 ADD MSTORE PUSH1 0xC4 PUSH1 0x24 CALLDATALOAD ADD CALLDATALOAD PUSH1 0xE4 DUP4 ADD MSTORE PUSH1 0xFF PUSH2 0x13A1 PUSH1 0xE4 PUSH1 0x24 CALLDATALOAD ADD PUSH2 0x3618 JUMP JUMPDEST AND SWAP2 PUSH2 0x104 SWAP3 DUP4 DUP3 ADD MSTORE DUP6 DUP2 PUSH2 0x124 SWAP4 DUP6 PUSH1 0x24 CALLDATALOAD ADD CALLDATALOAD DUP6 DUP4 ADD MSTORE DUP2 DUP4 PUSH1 0x1 PUSH1 0x1 PUSH1 0xA0 SHL SUB DUP3 PUSH2 0x144 SWAP14 DUP15 DUP11 PUSH1 0x24 CALLDATALOAD ADD CALLDATALOAD DUP2 DUP5 ADD MSTORE PUSH1 0x24 CALLDATALOAD ADD CALLDATALOAD PUSH2 0x164 DUP4 ADD MSTORE SUB SWAP4 AND GAS CALL DUP1 ISZERO PUSH2 0x941 JUMPI SWAP1 DUP7 SWAP2 PUSH2 0x16BC JUMPI JUMPDEST POP POP PUSH1 0x10 SLOAD PUSH1 0x1 PUSH1 0x40 SHL DUP2 LT ISZERO PUSH2 0x16A8 JUMPI PUSH1 0x1 DUP2 ADD DUP1 PUSH1 0x10 SSTORE DUP2 LT ISZERO PUSH2 0x1694 JUMPI PUSH1 0x10 DUP7 MSTORE SWAP5 SWAP6 PUSH32 0x44B55C2D9270546FAF6FF2F0ACAC078011883B82782D9B08DE2D3AF4543C2B18 SWAP6 PUSH1 0xB MUL SWAP3 PUSH32 0x1B6847DC741A1B0CD08D278845F9D819D87B734759AFB55FE2DE5CB82A9AE67C SWAP3 SWAP1 PUSH2 0x149D PUSH2 0x1474 PUSH1 0x4 PUSH1 0x24 CALLDATALOAD ADD DUP1 PUSH2 0x3A09 JUMP JUMPDEST SWAP1 DUP8 PUSH32 0x1B6847DC741A1B0CD08D278845F9D819D87B734759AFB55FE2DE5CB82A9AE672 ADD PUSH2 0x3A90 JUMP JUMPDEST PUSH2 0x14DC PUSH2 0x14B3 PUSH1 0x24 DUP1 CALLDATALOAD ADD PUSH1 0x24 CALLDATALOAD PUSH1 0x4 ADD PUSH2 0x3A09 JUMP JUMPDEST SWAP1 PUSH32 0x1B6847DC741A1B0CD08D278845F9D819D87B734759AFB55FE2DE5CB82A9AE673 DUP9 ADD PUSH2 0x3A90 JUMP JUMPDEST PUSH2 0x151C PUSH2 0x14F3 PUSH1 0x44 PUSH1 0x24 CALLDATALOAD ADD PUSH1 0x24 CALLDATALOAD PUSH1 0x4 ADD PUSH2 0x3A09 JUMP JUMPDEST SWAP1 PUSH32 0x1B6847DC741A1B0CD08D278845F9D819D87B734759AFB55FE2DE5CB82A9AE674 DUP9 ADD PUSH2 0x3A90 JUMP JUMPDEST PUSH32 0x1B6847DC741A1B0CD08D278845F9D819D87B734759AFB55FE2DE5CB82A9AE675 DUP6 ADD PUSH1 0x1 PUSH1 0x1 PUSH1 0xA0 SHL SUB PUSH2 0x1555 PUSH1 0x64 PUSH1 0x24 CALLDATALOAD ADD PUSH2 0x3946 JUMP JUMPDEST AND PUSH1 0x1 PUSH1 0x1 PUSH1 0xA0 SHL SUB NOT DUP3 SLOAD AND OR SWAP1 SSTORE PUSH1 0x84 PUSH1 0x24 CALLDATALOAD ADD CALLDATALOAD PUSH32 0x1B6847DC741A1B0CD08D278845F9D819D87B734759AFB55FE2DE5CB82A9AE676 DUP7 ADD SSTORE PUSH1 0xA4 PUSH1 0x24 CALLDATALOAD ADD CALLDATALOAD PUSH32 0x1B6847DC741A1B0CD08D278845F9D819D87B734759AFB55FE2DE5CB82A9AE677 DUP7 ADD SSTORE PUSH1 0xC4 PUSH1 0x24 CALLDATALOAD ADD CALLDATALOAD PUSH32 0x1B6847DC741A1B0CD08D278845F9D819D87B734759AFB55FE2DE5CB82A9AE678 DUP7 ADD SSTORE PUSH32 0x1B6847DC741A1B0CD08D278845F9D819D87B734759AFB55FE2DE5CB82A9AE679 DUP6 ADD PUSH1 0xFF PUSH2 0x1619 PUSH1 0xE4 PUSH1 0x24 CALLDATALOAD ADD PUSH2 0x3B54 JUMP JUMPDEST AND PUSH1 0xFF NOT DUP3 SLOAD AND OR SWAP1 SSTORE PUSH1 0x24 CALLDATALOAD ADD CALLDATALOAD PUSH32 0x1B6847DC741A1B0CD08D278845F9D819D87B734759AFB55FE2DE5CB82A9AE67A DUP6 ADD SSTORE PUSH1 0x24 CALLDATALOAD ADD CALLDATALOAD PUSH32 0x1B6847DC741A1B0CD08D278845F9D819D87B734759AFB55FE2DE5CB82A9AE67B DUP5 ADD SSTORE PUSH1 0x24 CALLDATALOAD ADD CALLDATALOAD SWAP2 ADD SSTORE PUSH2 0x923 PUSH1 0x40 MLOAD SWAP3 DUP4 SWAP3 PUSH1 0x20 DUP5 MSTORE PUSH1 0x20 DUP5 ADD SWAP2 PUSH2 0x3C62 JUMP JUMPDEST PUSH1 0x24 DUP7 PUSH4 0x4E487B71 PUSH1 0xE0 SHL DUP2 MSTORE PUSH1 0x32 PUSH1 0x4 MSTORE REVERT JUMPDEST PUSH1 0x24 DUP7 PUSH4 0x4E487B71 PUSH1 0xE0 SHL DUP2 MSTORE PUSH1 0x41 PUSH1 0x4 MSTORE REVERT JUMPDEST PUSH2 0x16C5 SWAP1 PUSH2 0x3411 JUMP JUMPDEST PUSH2 0x93D JUMPI DUP5 CODESIZE PUSH2 0x13F3 JUMP JUMPDEST DUP3 DUP1 REVERT JUMPDEST PUSH1 0x24 DUP5 PUSH4 0x4E487B71 PUSH1 0xE0 SHL DUP2 MSTORE PUSH1 0x32 PUSH1 0x4 MSTORE REVERT JUMPDEST PUSH1 0x24 DUP5 PUSH4 0x4E487B71 PUSH1 0xE0 SHL DUP2 MSTORE PUSH1 0x41 PUSH1 0x4 MSTORE REVERT JUMPDEST PUSH1 0xFF PUSH1 0x9 DUP1 DUP5 PUSH2 0x170F DUP6 PUSH2 0x17C9 SWAP8 PUSH2 0x3B85 JUMP JUMPDEST PUSH2 0x171F PUSH1 0x1 DUP7 ADD PUSH1 0x1 DUP4 ADD PUSH2 0x3B85 JUMP JUMPDEST PUSH1 0x2 DUP2 ADD PUSH1 0x1 PUSH1 0x1 PUSH1 0xA0 SHL SUB PUSH1 0x2 DUP8 ADD SLOAD AND PUSH1 0x1 PUSH1 0x1 PUSH1 0xA0 SHL SUB NOT DUP3 SLOAD AND OR SWAP1 SSTORE PUSH1 0x3 DUP6 ADD SLOAD PUSH1 0x3 DUP3 ADD SSTORE PUSH1 0x4 DUP6 ADD SLOAD PUSH1 0x4 DUP3 ADD SSTORE PUSH1 0x5 DUP6 ADD SLOAD PUSH1 0x5 DUP3 ADD SSTORE PUSH1 0x6 DUP6 ADD SLOAD PUSH1 0x6 DUP3 ADD SSTORE PUSH1 0x7 DUP6 ADD SLOAD PUSH1 0x7 DUP3 ADD SSTORE PUSH1 0x8 DUP6 ADD SLOAD PUSH1 0x8 DUP3 ADD SSTORE ADD SWAP3 ADD PUSH1 0x1 PUSH1 0x1 PUSH1 0xA0 SHL SUB DUP2 SLOAD AND PUSH1 0x1 PUSH1 0x1 PUSH1 0xA0 SHL SUB NOT DUP5 SLOAD AND OR DUP4 SSTORE PUSH2 0x17BE DUP3 DUP3 SLOAD PUSH1 0xA0 SHR AND DUP5 SWAP1 PUSH1 0xFF PUSH1 0xA0 SHL NOT PUSH1 0xFF PUSH1 0xA0 SHL DUP4 SLOAD SWAP3 PUSH1 0xA0 SHL AND SWAP2 AND OR SWAP1 SSTORE JUMP JUMPDEST SLOAD PUSH1 0xA8 SHR AND SWAP1 PUSH2 0x3B62 JUMP JUMPDEST CODESIZE DUP1 PUSH2 0x1247 JUMP JUMPDEST PUSH4 0x4E487B71 PUSH1 0xE0 SHL PUSH1 0x0 MSTORE PUSH1 0x0 PUSH1 0x4 MSTORE PUSH1 0x24 PUSH1 0x0 REVERT JUMPDEST PUSH2 0x975 PUSH1 0x40 MLOAD SWAP3 DUP4 SWAP3 PUSH4 0x2DC59421 PUSH1 0xE2 SHL DUP5 MSTORE PUSH1 0x20 PUSH1 0x4 DUP6 ADD MSTORE PUSH1 0x24 DUP5 ADD SWAP2 PUSH2 0x3C62 JUMP JUMPDEST POP CALLVALUE PUSH2 0x208 JUMPI PUSH1 0x40 CALLDATASIZE PUSH1 0x3 NOT ADD SLT PUSH2 0x208 JUMPI PUSH2 0x1824 PUSH2 0x3382 JUMP JUMPDEST PUSH1 0x24 CALLDATALOAD PUSH1 0x1 PUSH1 0x1 PUSH1 0xA0 SHL SUB DUP1 SWAP3 AND DUP4 MSTORE PUSH1 0x6 PUSH1 0x20 MSTORE PUSH1 0x40 DUP4 KECCAK256 DUP1 SLOAD DUP3 LT ISZERO PUSH2 0x18B8 JUMPI SWAP1 PUSH2 0x1850 SWAP2 PUSH2 0x3768 JUMP JUMPDEST POP PUSH2 0x5E4 PUSH2 0x185D DUP3 PUSH2 0x37BE JUMP JUMPDEST SWAP3 PUSH2 0x186A PUSH1 0x1 DUP5 ADD PUSH2 0x37BE JUMP JUMPDEST SWAP3 DUP2 PUSH1 0x2 DUP3 ADD SLOAD AND SWAP5 PUSH1 0x3 DUP3 ADD SLOAD SWAP2 PUSH1 0x4 DUP2 ADD SLOAD PUSH1 0x5 DUP3 ADD SLOAD PUSH1 0x6 DUP4 ADD SLOAD SWAP1 PUSH1 0x7 DUP5 ADD SLOAD SWAP3 PUSH1 0x9 PUSH1 0x8 DUP7 ADD SLOAD SWAP6 ADD SLOAD SWAP7 PUSH1 0x40 MLOAD SWAP12 DUP13 SWAP12 PUSH1 0xFF DUP11 PUSH1 0xA8 SHR AND SWAP11 PUSH1 0xFF DUP12 PUSH1 0xA0 SHR AND SWAP11 AND SWAP9 DUP14 PUSH2 0x3864 JUMP JUMPDEST DUP4 DUP1 REVERT JUMPDEST POP CALLVALUE PUSH2 0x208 JUMPI PUSH1 0x40 CALLDATASIZE PUSH1 0x3 NOT ADD SLT PUSH2 0x208 JUMPI PUSH1 0x4 CALLDATALOAD PUSH8 0xFFFFFFFFFFFFFFFF DUP2 GT PUSH2 0x5E8 JUMPI PUSH2 0x18EE SWAP1 CALLDATASIZE SWAP1 PUSH1 0x4 ADD PUSH2 0x3464 JUMP JUMPDEST PUSH2 0x190A PUSH1 0x20 PUSH1 0x24 CALLDATALOAD SWAP3 DUP2 PUSH1 0x40 MLOAD SWAP4 DUP3 DUP6 DUP1 SWAP5 MLOAD SWAP4 DUP5 SWAP3 ADD PUSH2 0x34BB JUMP JUMPDEST DUP2 ADD PUSH1 0x3 DUP2 MSTORE SUB ADD SWAP1 KECCAK256 DUP1 SLOAD DUP3 LT ISZERO PUSH2 0x16D0 JUMPI PUSH2 0x1927 SWAP3 POP PUSH2 0x3711 JUMP JUMPDEST POP DUP1 SLOAD PUSH1 0x1 SWAP1 SWAP2 ADD SLOAD PUSH1 0x40 DUP1 MLOAD PUSH1 0x1 PUSH1 0x1 PUSH1 0xA0 SHL SUB SWAP1 SWAP4 AND DUP4 MSTORE PUSH1 0x20 DUP4 ADD SWAP2 SWAP1 SWAP2 MSTORE SWAP1 RETURN JUMPDEST POP CALLVALUE PUSH2 0x208 JUMPI PUSH1 0x20 SWAP1 DUP2 PUSH1 0x3 NOT CALLDATASIZE ADD SLT PUSH2 0x208 JUMPI PUSH1 0x4 CALLDATALOAD PUSH8 0xFFFFFFFFFFFFFFFF DUP2 GT PUSH2 0x5E8 JUMPI PUSH2 0x1980 SWAP1 CALLDATASIZE SWAP1 PUSH1 0x4 ADD PUSH2 0x35C5 JUMP JUMPDEST SWAP1 SWAP3 PUSH2 0x1998 PUSH1 0x1 PUSH1 0x1 PUSH1 0xA0 SHL SUB PUSH1 0x8 SLOAD AND CALLER EQ PUSH2 0x38E3 JUMP JUMPDEST PUSH1 0xFF PUSH1 0x9 PUSH1 0x40 MLOAD DUP5 DUP8 DUP3 CALLDATACOPY DUP4 DUP2 DUP7 DUP2 ADD DUP9 DUP2 MSTORE SUB ADD SWAP1 KECCAK256 ADD SLOAD PUSH1 0xA8 SHR AND PUSH1 0x6 DUP2 LT ISZERO PUSH2 0xF9E JUMPI PUSH32 0x39501081328FFE3EB02459AD6F6E90B69E23BA1422B574EE84C1F52B2FC0310 SWAP4 SWAP5 PUSH2 0x19F0 PUSH1 0x1 PUSH2 0x923 SWAP4 EQ PUSH2 0x39BE JUMP JUMPDEST PUSH1 0x9 PUSH1 0x40 MLOAD DUP6 DUP4 DUP3 CALLDATACOPY DUP5 DUP2 DUP8 DUP2 ADD DUP11 DUP2 MSTORE SUB ADD SWAP1 KECCAK256 ADD PUSH22 0x2000000000000000000000000000000000000000000 PUSH1 0xFF PUSH1 0xA8 SHL NOT SWAP2 DUP2 DUP4 DUP3 SLOAD AND OR SWAP1 SSTORE PUSH1 0x9 PUSH2 0xF84 PUSH1 0x8 PUSH1 0x40 MLOAD DUP10 DUP8 DUP3 CALLDATACOPY DUP9 DUP2 DUP14 DUP13 DUP3 ADD SWAP1 DUP2 MSTORE SUB ADD SWAP1 KECCAK256 ADD SLOAD PUSH2 0x372D JUMP JUMPDEST POP CALLVALUE PUSH2 0x208 JUMPI PUSH1 0x40 CALLDATASIZE PUSH1 0x3 NOT ADD SLT PUSH2 0x208 JUMPI PUSH2 0x1A68 PUSH2 0x3382 JUMP JUMPDEST PUSH1 0x24 CALLDATALOAD SWAP2 PUSH1 0x1 PUSH1 0x1 PUSH1 0xA0 SHL SUB DUP1 SWAP3 AND DUP2 MSTORE PUSH1 0x7 PUSH1 0x20 MSTORE PUSH1 0x40 DUP2 KECCAK256 SWAP1 DUP2 SLOAD DUP5 LT ISZERO PUSH2 0x208 JUMPI POP PUSH2 0x1C0 SWAP3 PUSH2 0x1A9A SWAP2 PUSH2 0x36F5 JUMP JUMPDEST POP SWAP1 DUP1 DUP3 SLOAD AND SWAP2 DUP2 PUSH1 0x1 DUP3 ADD SLOAD AND SWAP2 PUSH1 0x2 DUP3 ADD SLOAD PUSH1 0x3 DUP4 ADD SLOAD PUSH1 0x4 DUP5 ADD SLOAD DUP4 PUSH1 0x5 DUP7 ADD SLOAD AND PUSH1 0x6 DUP7 ADD SLOAD SWAP2 PUSH1 0x7 DUP8 ADD SLOAD SWAP4 PUSH1 0xFF PUSH1 0x8 DUP10 ADD SLOAD SWAP7 PUSH1 0x9 DUP11 ADD SLOAD SWAP9 DUP3 PUSH1 0xB PUSH1 0xA DUP14 ADD SLOAD SWAP13 ADD SLOAD AND SWAP12 PUSH1 0x20 PUSH1 0x40 MLOAD SWAP15 DUP16 SWAP1 DUP2 MSTORE ADD MSTORE DUP2 AND PUSH1 0x40 DUP14 ADD MSTORE DUP2 DUP2 PUSH1 0xA0 SHR AND PUSH1 0x60 DUP14 ADD MSTORE PUSH1 0xA8 SHR AND PUSH1 0x80 DUP12 ADD MSTORE PUSH1 0xA0 DUP11 ADD MSTORE PUSH1 0xC0 DUP10 ADD MSTORE PUSH1 0xE0 DUP9 ADD MSTORE PUSH2 0x100 DUP8 ADD MSTORE PUSH2 0x120 DUP7 ADD MSTORE PUSH2 0x140 DUP6 ADD MSTORE PUSH2 0x160 DUP5 ADD MSTORE PUSH2 0x180 DUP4 ADD MSTORE PUSH2 0x1A0 DUP3 ADD MSTORE RETURN JUMPDEST POP CALLVALUE PUSH2 0x208 JUMPI PUSH1 0x20 CALLDATASIZE PUSH1 0x3 NOT ADD SLT PUSH2 0x208 JUMPI DUP1 PUSH2 0x1B5D PUSH2 0x3382 JUMP JUMPDEST PUSH1 0x1 PUSH1 0x1 PUSH1 0xA0 SHL SUB SWAP1 PUSH2 0x1B75 DUP3 PUSH1 0x8 SLOAD AND CALLER EQ PUSH2 0x38E3 JUMP JUMPDEST AND DUP1 EXTCODESIZE ISZERO PUSH2 0xC62 JUMPI DUP2 DUP1 SWAP2 PUSH1 0x4 PUSH1 0x40 MLOAD DUP1 SWAP5 DUP2 SWAP4 PUSH32 0x8119C06500000000000000000000000000000000000000000000000000000000 DUP4 MSTORE GAS CALL DUP1 ISZERO PUSH2 0xA56 JUMPI PUSH2 0xA46 JUMPI POP RETURN JUMPDEST POP CALLVALUE PUSH2 0x208 JUMPI DUP1 PUSH1 0x3 NOT CALLDATASIZE ADD SLT PUSH2 0x208 JUMPI PUSH1 0x11 SLOAD PUSH2 0x1BD8 DUP2 PUSH2 0x3CD8 JUMP JUMPDEST SWAP1 PUSH2 0x1BE6 PUSH1 0x40 MLOAD SWAP3 DUP4 PUSH2 0x3442 JUMP JUMPDEST DUP1 DUP3 MSTORE PUSH1 0x11 DUP4 MSTORE PUSH1 0x20 SWAP3 DUP4 DUP4 ADD SWAP2 DUP2 PUSH32 0x31ECC21A745E3968A04E9570E4425BC18FA8019C68028196B546D1669C200C68 DUP5 JUMPDEST DUP4 DUP4 LT PUSH2 0x1C7D JUMPI POP POP POP POP PUSH1 0x40 MLOAD SWAP3 DUP5 DUP5 ADD SWAP1 DUP6 DUP6 MSTORE MLOAD DUP1 SWAP2 MSTORE PUSH1 0x40 DUP5 ADD SWAP5 PUSH1 0x40 DUP3 PUSH1 0x5 SHL DUP7 ADD ADD SWAP4 SWAP3 SWAP6 JUMPDEST DUP3 DUP8 LT PUSH2 0x1C51 JUMPI DUP6 DUP6 SUB DUP7 RETURN JUMPDEST SWAP1 SWAP2 SWAP3 SWAP4 DUP3 DUP1 PUSH2 0x1C6D PUSH1 0x1 SWAP4 PUSH1 0x3F NOT DUP11 DUP3 SUB ADD DUP7 MSTORE DUP9 MLOAD PUSH2 0x3649 JUMP JUMPDEST SWAP7 ADD SWAP3 ADD SWAP7 ADD SWAP6 SWAP3 SWAP2 SWAP1 SWAP3 PUSH2 0x1C44 JUMP JUMPDEST PUSH1 0xA DUP9 PUSH1 0x1 SWAP3 PUSH2 0x1C90 DUP6 SWAP12 SWAP11 SWAP9 SWAP12 PUSH2 0x3E08 JUMP JUMPDEST DUP2 MSTORE ADD SWAP3 ADD SWAP3 ADD SWAP2 SWAP1 SWAP7 SWAP4 SWAP6 SWAP7 PUSH2 0x1C18 JUMP JUMPDEST POP CALLVALUE PUSH2 0x208 JUMPI PUSH2 0x220 CALLDATASIZE PUSH1 0x3 NOT ADD SLT PUSH2 0x208 JUMPI PUSH2 0x1CBD PUSH2 0x3382 JUMP JUMPDEST PUSH2 0x1CC5 PUSH2 0x3398 JUMP JUMPDEST PUSH2 0x1CCD PUSH2 0x33AE JUMP JUMPDEST SWAP1 PUSH2 0x1C0 CALLDATASIZE PUSH1 0x63 NOT ADD SLT PUSH2 0x18B8 JUMPI PUSH1 0x40 MLOAD SWAP3 PUSH2 0x1CE8 DUP5 PUSH2 0x33D8 JUMP JUMPDEST PUSH1 0x64 CALLDATALOAD PUSH1 0x1 PUSH1 0x1 PUSH1 0xA0 SHL SUB DUP2 AND DUP2 SUB PUSH2 0x22E9 JUMPI DUP5 MSTORE PUSH1 0x84 CALLDATALOAD PUSH1 0x1 PUSH1 0x1 PUSH1 0xA0 SHL SUB DUP2 AND DUP2 SUB PUSH2 0x22E9 JUMPI PUSH1 0x20 DUP6 ADD MSTORE PUSH1 0xA4 CALLDATALOAD PUSH1 0x1 PUSH1 0x1 PUSH1 0xA0 SHL SUB DUP2 AND DUP2 SUB PUSH2 0x22E9 JUMPI PUSH1 0x40 DUP6 ADD MSTORE PUSH1 0xC4 CALLDATALOAD PUSH1 0xFF DUP2 AND DUP2 SUB PUSH2 0x22E9 JUMPI PUSH1 0x60 DUP6 ADD MSTORE PUSH1 0xE4 CALLDATALOAD PUSH1 0xFF DUP2 AND DUP2 SUB PUSH2 0x22E9 JUMPI PUSH1 0x80 DUP6 ADD MSTORE PUSH2 0x104 CALLDATALOAD PUSH1 0xA0 DUP6 ADD MSTORE PUSH2 0x124 CALLDATALOAD PUSH1 0xC0 DUP6 ADD MSTORE PUSH1 0x1 PUSH1 0x1 PUSH1 0xA0 SHL SUB PUSH2 0x144 CALLDATALOAD AND PUSH2 0x144 CALLDATALOAD SUB PUSH2 0x22E9 JUMPI PUSH2 0x144 CALLDATALOAD PUSH1 0xE0 DUP6 ADD MSTORE PUSH2 0x164 CALLDATALOAD PUSH2 0x100 DUP6 ADD MSTORE PUSH2 0x184 CALLDATALOAD PUSH2 0x120 DUP6 ADD MSTORE PUSH2 0x1A4 CALLDATALOAD PUSH2 0x140 DUP6 ADD MSTORE PUSH2 0x1C4 CALLDATALOAD PUSH2 0x160 DUP6 ADD MSTORE PUSH2 0x1E4 CALLDATALOAD PUSH2 0x180 DUP6 ADD MSTORE PUSH1 0xFF PUSH2 0x204 CALLDATALOAD AND PUSH2 0x204 CALLDATALOAD SUB PUSH2 0x22E9 JUMPI PUSH1 0x1 PUSH1 0x1 PUSH1 0xA0 SHL SUB SWAP1 PUSH2 0x204 CALLDATALOAD PUSH2 0x1A0 DUP7 ADD MSTORE AND DUP5 MSTORE PUSH1 0x2 PUSH1 0x20 MSTORE PUSH1 0x1 PUSH1 0x1 PUSH1 0xA0 SHL SUB PUSH1 0x40 DUP6 KECCAK256 SWAP2 AND PUSH1 0x0 MSTORE PUSH1 0x20 MSTORE PUSH1 0x1 PUSH1 0x1 PUSH1 0xA0 SHL SUB PUSH1 0x40 PUSH1 0x0 KECCAK256 SWAP2 AND PUSH1 0x1 PUSH1 0x1 PUSH1 0xA0 SHL SUB NOT DUP3 SLOAD AND OR SWAP1 SSTORE PUSH1 0x13 SLOAD PUSH1 0x1 PUSH1 0x40 SHL DUP2 LT ISZERO PUSH2 0x506 JUMPI PUSH1 0x1 DUP2 ADD DUP1 PUSH1 0x13 SSTORE DUP2 LT ISZERO PUSH2 0x22D3 JUMPI PUSH1 0x13 PUSH1 0x0 MSTORE PUSH1 0xC DUP2 MUL PUSH32 0x66DE8FFDA797E3DE9C05E8FC57B3BF0EC28A930D40B0D285D93C06501CF6A090 ADD DUP3 MLOAD PUSH1 0x1 PUSH1 0x1 PUSH1 0xA0 SHL SUB AND DUP2 SLOAD PUSH1 0x1 PUSH1 0x1 PUSH1 0xA0 SHL SUB NOT AND OR SWAP1 SSTORE PUSH1 0x20 DUP3 ADD MLOAD PUSH1 0x1 PUSH1 0x1 PUSH1 0xA0 SHL SUB AND SWAP1 PUSH1 0xC DUP2 MUL PUSH32 0x66DE8FFDA797E3DE9C05E8FC57B3BF0EC28A930D40B0D285D93C06501CF6A091 ADD DUP3 DUP2 SLOAD PUSH1 0x1 PUSH1 0x1 PUSH1 0xA0 SHL SUB NOT AND OR SWAP1 SSTORE PUSH1 0xC DUP2 MUL PUSH32 0x66DE8FFDA797E3DE9C05E8FC57B3BF0EC28A930D40B0D285D93C06501CF6A092 ADD PUSH1 0x40 DUP5 ADD MLOAD PUSH1 0x1 PUSH1 0x1 PUSH1 0xA0 SHL SUB AND DUP2 SLOAD PUSH1 0x1 PUSH1 0x1 PUSH1 0xA0 SHL SUB NOT AND OR DUP2 SSTORE PUSH1 0x60 DUP5 ADD MLOAD PUSH1 0xFF AND PUSH2 0x1F23 SWAP1 DUP3 SWAP1 PUSH1 0xFF PUSH1 0xA0 SHL NOT PUSH1 0xFF PUSH1 0xA0 SHL DUP4 SLOAD SWAP3 PUSH1 0xA0 SHL AND SWAP2 AND OR SWAP1 SSTORE JUMP JUMPDEST PUSH1 0x80 DUP5 ADD MLOAD DUP2 SLOAD SWAP1 PUSH1 0xA8 SHL PUSH1 0xFF PUSH1 0xA8 SHL AND SWAP1 PUSH1 0xFF PUSH1 0xA8 SHL NOT AND OR SWAP1 SSTORE PUSH1 0xA0 DUP4 ADD MLOAD PUSH1 0xC DUP3 MUL PUSH32 0x66DE8FFDA797E3DE9C05E8FC57B3BF0EC28A930D40B0D285D93C06501CF6A093 ADD SSTORE PUSH1 0xC0 DUP4 ADD MLOAD PUSH1 0xC DUP3 MUL PUSH32 0x66DE8FFDA797E3DE9C05E8FC57B3BF0EC28A930D40B0D285D93C06501CF6A094 ADD SSTORE PUSH1 0xC DUP2 MUL PUSH32 0x66DE8FFDA797E3DE9C05E8FC57B3BF0EC28A930D40B0D285D93C06501CF6A095 ADD PUSH1 0xE0 DUP5 ADD MLOAD PUSH1 0x1 PUSH1 0x1 PUSH1 0xA0 SHL SUB AND DUP2 SLOAD PUSH1 0x1 PUSH1 0x1 PUSH1 0xA0 SHL SUB NOT AND OR SWAP1 SSTORE PUSH2 0x100 DUP4 ADD MLOAD PUSH1 0xC DUP3 MUL PUSH32 0x66DE8FFDA797E3DE9C05E8FC57B3BF0EC28A930D40B0D285D93C06501CF6A096 ADD SSTORE PUSH2 0x120 DUP4 ADD MLOAD PUSH1 0xC DUP3 MUL PUSH32 0x66DE8FFDA797E3DE9C05E8FC57B3BF0EC28A930D40B0D285D93C06501CF6A097 ADD SSTORE PUSH2 0x140 DUP4 ADD MLOAD PUSH1 0xC DUP3 MUL PUSH32 0x66DE8FFDA797E3DE9C05E8FC57B3BF0EC28A930D40B0D285D93C06501CF6A098 ADD SSTORE PUSH2 0x160 DUP4 ADD MLOAD PUSH1 0xC DUP3 MUL PUSH32 0x66DE8FFDA797E3DE9C05E8FC57B3BF0EC28A930D40B0D285D93C06501CF6A099 ADD SSTORE PUSH2 0x180 DUP4 ADD MLOAD PUSH1 0xC DUP3 MUL PUSH32 0x66DE8FFDA797E3DE9C05E8FC57B3BF0EC28A930D40B0D285D93C06501CF6A09A ADD SSTORE PUSH1 0xC MUL PUSH32 0x66DE8FFDA797E3DE9C05E8FC57B3BF0EC28A930D40B0D285D93C06501CF6A09B ADD PUSH2 0x1A0 DUP4 ADD MLOAD PUSH1 0xFF AND PUSH1 0xFF NOT DUP3 SLOAD AND OR SWAP1 SSTORE DUP3 MSTORE PUSH1 0x7 PUSH1 0x20 MSTORE PUSH1 0x40 DUP3 KECCAK256 DUP2 MLOAD PUSH1 0x1 PUSH1 0x1 PUSH1 0xA0 SHL SUB AND PUSH1 0x20 DUP4 ADD MLOAD PUSH1 0x1 PUSH1 0x1 PUSH1 0xA0 SHL SUB AND DUP4 PUSH1 0x40 DUP2 ADD MLOAD PUSH1 0x1 PUSH1 0x1 PUSH1 0xA0 SHL SUB AND PUSH1 0x60 DUP3 ADD MLOAD PUSH1 0xFF AND PUSH1 0x80 DUP4 ADD MLOAD PUSH1 0xFF AND PUSH1 0xA0 DUP5 ADD MLOAD PUSH1 0xC0 DUP6 ADD MLOAD PUSH1 0xE0 DUP7 ADD MLOAD PUSH1 0x1 PUSH1 0x1 PUSH1 0xA0 SHL SUB AND SWAP1 PUSH2 0x100 DUP8 ADD MLOAD SWAP3 PUSH2 0x120 DUP9 ADD MLOAD SWAP5 PUSH2 0x140 DUP10 ADD MLOAD SWAP7 PUSH2 0x160 DUP11 ADD MLOAD SWAP9 PUSH2 0x180 DUP12 ADD MLOAD SWAP11 PUSH2 0x1A0 ADD MLOAD PUSH1 0xFF AND SWAP12 PUSH1 0x40 MLOAD DUP1 SWAP15 PUSH2 0x2188 DUP3 PUSH2 0x33D8 JUMP JUMPDEST DUP2 MSTORE PUSH1 0x20 ADD MSTORE PUSH1 0x40 DUP14 ADD MSTORE PUSH1 0x60 DUP13 ADD MSTORE PUSH1 0x80 DUP12 ADD MSTORE PUSH1 0xA0 DUP11 ADD MSTORE PUSH1 0xC0 DUP10 ADD MSTORE PUSH1 0xE0 DUP9 ADD MSTORE PUSH2 0x100 DUP8 ADD MSTORE PUSH2 0x120 DUP7 ADD MSTORE PUSH2 0x140 DUP6 ADD MSTORE PUSH2 0x160 DUP5 ADD MSTORE PUSH2 0x180 DUP4 ADD MSTORE PUSH2 0x1A0 DUP3 ADD MSTORE PUSH2 0x21D9 SWAP2 PUSH2 0x3CF0 JUMP JUMPDEST PUSH1 0x40 DUP2 ADD MLOAD PUSH1 0x1 PUSH1 0x1 PUSH1 0xA0 SHL SUB AND DUP3 MSTORE PUSH1 0x7 PUSH1 0x20 MSTORE PUSH1 0x40 DUP3 KECCAK256 SWAP1 DUP1 MLOAD PUSH1 0x1 PUSH1 0x1 PUSH1 0xA0 SHL SUB AND SWAP1 PUSH1 0x20 DUP2 ADD MLOAD PUSH1 0x1 PUSH1 0x1 PUSH1 0xA0 SHL SUB AND SWAP1 PUSH1 0x40 DUP2 ADD MLOAD PUSH1 0x1 PUSH1 0x1 PUSH1 0xA0 SHL SUB AND PUSH1 0x60 DUP3 ADD MLOAD PUSH1 0xFF AND PUSH1 0x80 DUP4 ADD MLOAD PUSH1 0xFF AND PUSH1 0xA0 DUP5 ADD MLOAD PUSH1 0xC0 DUP6 ADD MLOAD PUSH1 0xE0 DUP7 ADD MLOAD PUSH1 0x1 PUSH1 0x1 PUSH1 0xA0 SHL SUB AND SWAP1 PUSH2 0x100 DUP8 ADD MLOAD SWAP3 PUSH2 0x120 DUP9 ADD MLOAD SWAP5 PUSH2 0x140 DUP10 ADD MLOAD SWAP7 PUSH2 0x160 DUP11 ADD MLOAD SWAP9 PUSH2 0x180 DUP12 ADD MLOAD SWAP11 PUSH2 0x1A0 ADD MLOAD PUSH1 0xFF AND SWAP12 PUSH1 0x40 MLOAD DUP1 SWAP15 PUSH2 0x227F DUP3 PUSH2 0x33D8 JUMP JUMPDEST DUP2 MSTORE PUSH1 0x20 ADD MSTORE PUSH1 0x40 DUP14 ADD MSTORE PUSH1 0x60 DUP13 ADD MSTORE PUSH1 0x80 DUP12 ADD MSTORE PUSH1 0xA0 DUP11 ADD MSTORE PUSH1 0xC0 DUP10 ADD MSTORE PUSH1 0xE0 DUP9 ADD MSTORE PUSH2 0x100 DUP8 ADD MSTORE PUSH2 0x120 DUP7 ADD MSTORE PUSH2 0x140 DUP6 ADD MSTORE PUSH2 0x160 DUP5 ADD MSTORE PUSH2 0x180 DUP4 ADD MSTORE PUSH2 0x1A0 DUP3 ADD MSTORE PUSH2 0x22D0 SWAP2 PUSH2 0x3CF0 JUMP JUMPDEST DUP1 RETURN JUMPDEST PUSH4 0x4E487B71 PUSH1 0xE0 SHL PUSH1 0x0 MSTORE PUSH1 0x32 PUSH1 0x4 MSTORE PUSH1 0x24 PUSH1 0x0 REVERT JUMPDEST PUSH1 0x0 DUP1 REVERT JUMPDEST POP CALLVALUE PUSH2 0x208 JUMPI DUP1 PUSH1 0x3 NOT CALLDATASIZE ADD SLT PUSH2 0x208 JUMPI PUSH1 0x12 SLOAD PUSH2 0x230B DUP2 PUSH2 0x3CD8 JUMP JUMPDEST SWAP1 PUSH2 0x2319 PUSH1 0x40 MLOAD SWAP3 DUP4 PUSH2 0x3442 JUMP JUMPDEST DUP1 DUP3 MSTORE PUSH1 0x12 DUP4 MSTORE PUSH1 0x20 SWAP3 DUP4 DUP4 ADD SWAP2 DUP2 PUSH32 0xBB8A6A4669BA250D26CD7A459ECA9D215F8307E33AEBE50379BC5A3617EC3444 DUP5 JUMPDEST DUP4 DUP4 LT PUSH2 0x23B0 JUMPI POP POP POP POP PUSH1 0x40 MLOAD SWAP3 DUP5 DUP5 ADD SWAP1 DUP6 DUP6 MSTORE MLOAD DUP1 SWAP2 MSTORE PUSH1 0x40 DUP5 ADD SWAP5 PUSH1 0x40 DUP3 PUSH1 0x5 SHL DUP7 ADD ADD SWAP4 SWAP3 SWAP6 JUMPDEST DUP3 DUP8 LT PUSH2 0x2384 JUMPI DUP6 DUP6 SUB DUP7 RETURN JUMPDEST SWAP1 SWAP2 SWAP3 SWAP4 DUP3 DUP1 PUSH2 0x23A0 PUSH1 0x1 SWAP4 PUSH1 0x3F NOT DUP11 DUP3 SUB ADD DUP7 MSTORE DUP9 MLOAD PUSH2 0x35F3 JUMP JUMPDEST SWAP7 ADD SWAP3 ADD SWAP7 ADD SWAP6 SWAP3 SWAP2 SWAP1 SWAP3 PUSH2 0x2377 JUMP JUMPDEST PUSH1 0x1 DUP9 DUP2 SWAP3 PUSH2 0x23C2 DUP6 SWAP12 SWAP11 SWAP9 SWAP12 PUSH2 0x37BE JUMP JUMPDEST DUP2 MSTORE ADD SWAP3 ADD SWAP3 ADD SWAP2 SWAP1 SWAP7 SWAP4 SWAP6 SWAP7 PUSH2 0x234B JUMP JUMPDEST POP CALLVALUE PUSH2 0x208 JUMPI DUP1 PUSH1 0x3 NOT CALLDATASIZE ADD SLT PUSH2 0x208 JUMPI PUSH1 0x13 SLOAD PUSH2 0x23F1 DUP2 PUSH2 0x3CD8 JUMP JUMPDEST SWAP1 PUSH2 0x23FF PUSH1 0x40 MLOAD SWAP3 DUP4 PUSH2 0x3442 JUMP JUMPDEST DUP1 DUP3 MSTORE PUSH1 0x13 DUP4 MSTORE PUSH32 0x66DE8FFDA797E3DE9C05E8FC57B3BF0EC28A930D40B0D285D93C06501CF6A090 SWAP3 PUSH1 0x20 DUP1 DUP5 ADD JUMPDEST DUP4 DUP4 LT PUSH2 0x2443 JUMPI PUSH1 0x40 MLOAD DUP1 PUSH2 0x5E4 DUP8 DUP3 PUSH2 0x34DE JUMP JUMPDEST PUSH1 0xC DUP3 PUSH1 0x1 SWAP3 PUSH1 0x40 MLOAD PUSH2 0x2455 DUP2 PUSH2 0x33D8 JUMP JUMPDEST PUSH1 0x1 PUSH1 0x1 PUSH1 0xA0 SHL SUB DUP1 DUP12 SLOAD AND DUP3 MSTORE DUP1 DUP7 DUP13 ADD SLOAD AND DUP5 DUP4 ADD MSTORE PUSH1 0x2 DUP12 ADD SLOAD SWAP1 DUP1 DUP3 AND PUSH1 0x40 DUP5 ADD MSTORE PUSH1 0xFF SWAP2 DUP3 PUSH1 0xA0 SWAP2 DUP2 DUP2 DUP5 SHR AND PUSH1 0x60 DUP8 ADD MSTORE PUSH1 0xA8 SHR AND PUSH1 0x80 DUP6 ADD MSTORE PUSH1 0x3 DUP14 ADD SLOAD SWAP1 DUP5 ADD MSTORE PUSH1 0x4 DUP13 ADD SLOAD PUSH1 0xC0 DUP5 ADD MSTORE PUSH1 0x5 DUP13 ADD SLOAD AND PUSH1 0xE0 DUP4 ADD MSTORE PUSH1 0x6 DUP12 ADD SLOAD PUSH2 0x100 DUP4 ADD MSTORE PUSH1 0x7 DUP12 ADD SLOAD PUSH2 0x120 DUP4 ADD MSTORE PUSH1 0x8 DUP12 ADD SLOAD PUSH2 0x140 DUP4 ADD MSTORE PUSH1 0x9 DUP12 ADD SLOAD PUSH2 0x160 DUP4 ADD MSTORE PUSH1 0xA DUP12 ADD SLOAD PUSH2 0x180 DUP4 ADD MSTORE PUSH1 0xB DUP12 ADD SLOAD AND PUSH2 0x1A0 DUP3 ADD MSTORE DUP2 MSTORE ADD SWAP7 ADD SWAP3 ADD SWAP2 SWAP5 PUSH2 0x242E JUMP JUMPDEST POP CALLVALUE PUSH2 0x208 JUMPI PUSH1 0x20 SWAP1 DUP2 PUSH1 0x3 NOT CALLDATASIZE ADD SLT PUSH2 0x208 JUMPI PUSH1 0x4 CALLDATALOAD PUSH8 0xFFFFFFFFFFFFFFFF DUP2 GT PUSH2 0x5E8 JUMPI PUSH2 0x2538 SWAP1 CALLDATASIZE SWAP1 PUSH1 0x4 ADD PUSH2 0x3464 JUMP JUMPDEST PUSH1 0x40 MLOAD SWAP1 DUP1 MLOAD SWAP2 DUP5 DUP3 ADD SWAP3 PUSH2 0x254E DUP2 DUP4 DUP7 PUSH2 0x34BB JUMP JUMPDEST DUP2 ADD DUP5 DUP2 MSTORE PUSH1 0x2 DUP3 DUP8 PUSH1 0x1 PUSH1 0x1 PUSH1 0xA0 SHL SUB SWAP5 DUP6 SWAP5 SUB ADD SWAP1 KECCAK256 ADD SLOAD AND CALLER EQ DUP1 ISZERO PUSH2 0x269C JUMPI JUMPDEST PUSH2 0x257B SWAP1 PUSH2 0x395A JUMP JUMPDEST DUP1 PUSH1 0x9 PUSH1 0x40 MLOAD DUP8 DUP2 DUP7 MLOAD PUSH2 0x2590 DUP2 DUP4 DUP12 PUSH2 0x34BB JUMP JUMPDEST DUP2 ADD DUP10 DUP2 MSTORE SUB ADD SWAP1 KECCAK256 ADD SLOAD AND ISZERO PUSH2 0x2658 JUMPI SWAP4 DUP5 PUSH1 0x9 PUSH2 0x25E4 DUP7 SWAP8 PUSH1 0xD SLOAD AND SWAP4 DUP4 PUSH1 0x2 PUSH1 0x40 MLOAD DUP4 DUP2 DUP1 PUSH2 0x25C6 DUP14 DUP14 MLOAD SWAP3 DUP4 SWAP2 PUSH2 0x34BB JUMP JUMPDEST DUP2 ADD DUP14 DUP2 MSTORE SUB ADD SWAP1 KECCAK256 ADD SLOAD AND SWAP7 PUSH1 0x40 MLOAD DUP1 SWAP4 DUP2 SWAP3 DUP10 MLOAD SWAP3 DUP4 SWAP2 PUSH2 0x34BB JUMP JUMPDEST DUP2 ADD DUP10 DUP2 MSTORE SUB ADD SWAP1 KECCAK256 ADD SLOAD AND SWAP1 DUP1 EXTCODESIZE ISZERO PUSH2 0x93D JUMPI PUSH2 0x263C DUP6 DUP1 SWAP5 PUSH1 0x40 MLOAD SWAP7 DUP8 SWAP6 DUP7 SWAP5 DUP6 SWAP4 PUSH32 0xE04CD97F00000000000000000000000000000000000000000000000000000000 DUP6 MSTORE PUSH1 0x60 PUSH1 0x4 DUP7 ADD MSTORE PUSH1 0x64 DUP6 ADD SWAP1 PUSH2 0x35F3 JUMP JUMPDEST SWAP2 PUSH1 0x24 DUP5 ADD MSTORE PUSH1 0x44 DUP4 ADD MSTORE SUB SWAP3 GAS CALL DUP1 ISZERO PUSH2 0xA56 JUMPI PUSH2 0xA46 JUMPI POP RETURN JUMPDEST PUSH1 0x64 DUP6 PUSH1 0x40 MLOAD SWAP1 PUSH3 0x461BCD PUSH1 0xE5 SHL DUP3 MSTORE PUSH1 0x4 DUP3 ADD MSTORE PUSH1 0x5 PUSH1 0x24 DUP3 ADD MSTORE PUSH32 0x746F6B656E000000000000000000000000000000000000000000000000000000 PUSH1 0x44 DUP3 ADD MSTORE REVERT JUMPDEST POP PUSH1 0x8 SLOAD DUP2 AND CALLER EQ PUSH2 0x2572 JUMP JUMPDEST POP CALLVALUE PUSH2 0x208 JUMPI PUSH1 0x3 NOT PUSH1 0x40 CALLDATASIZE DUP3 ADD SLT PUSH2 0x5E8 JUMPI PUSH8 0xFFFFFFFFFFFFFFFF PUSH1 0x4 CALLDATALOAD DUP2 DUP2 GT PUSH2 0x18B8 JUMPI PUSH2 0x26DD SWAP1 CALLDATASIZE SWAP1 PUSH1 0x4 ADD PUSH2 0x35C5 JUMP JUMPDEST SWAP3 SWAP1 SWAP2 PUSH1 0x24 CALLDATALOAD GT PUSH2 0x18B8 JUMPI PUSH2 0x180 SWAP1 PUSH1 0x24 CALLDATALOAD CALLDATASIZE SUB ADD SLT PUSH2 0x16D0 JUMPI PUSH1 0x24 PUSH1 0x20 PUSH1 0x1 PUSH1 0x1 PUSH1 0xA0 SHL SUB PUSH1 0x9 SLOAD AND PUSH1 0x40 MLOAD SWAP3 DUP4 DUP1 SWAP3 PUSH32 0x877B9A6700000000000000000000000000000000000000000000000000000000 DUP3 MSTORE CALLER PUSH1 0x4 DUP4 ADD MSTORE GAS STATICCALL SWAP1 DUP2 ISZERO PUSH2 0x2B1A JUMPI DUP5 SWAP2 PUSH2 0x2AFB JUMPI JUMPDEST POP ISZERO PUSH2 0x2AB7 JUMPI PUSH2 0x276E PUSH1 0x1 PUSH1 0x1 PUSH1 0xA0 SHL SUB PUSH2 0x2766 PUSH1 0x44 PUSH1 0x24 CALLDATALOAD ADD PUSH2 0x3946 JUMP JUMPDEST AND CALLER EQ PUSH2 0x395A JUMP JUMPDEST PUSH1 0xFF PUSH1 0x9 PUSH1 0x40 MLOAD DUP5 DUP5 DUP3 CALLDATACOPY PUSH1 0x20 DUP2 DUP7 DUP2 ADD DUP9 DUP2 MSTORE SUB ADD SWAP1 KECCAK256 ADD SLOAD PUSH1 0xA8 SHR AND PUSH1 0x6 DUP2 LT ISZERO PUSH2 0xF9E JUMPI PUSH2 0x279F SWAP1 ISZERO PUSH2 0x39BE JUMP JUMPDEST PUSH1 0x40 MLOAD DUP3 DUP3 DUP3 CALLDATACOPY DUP3 DUP2 ADD DUP5 DUP2 MSTORE DUP2 SWAP1 SUB PUSH1 0x20 ADD SWAP1 KECCAK256 PUSH2 0x27CD PUSH2 0x27C6 PUSH1 0x4 PUSH1 0x24 CALLDATALOAD ADD DUP1 PUSH2 0x3A09 JUMP JUMPDEST SWAP1 DUP4 PUSH2 0x3A90 JUMP JUMPDEST PUSH2 0x27ED PUSH2 0x27E3 PUSH1 0x24 DUP1 CALLDATALOAD ADD PUSH1 0x24 CALLDATALOAD PUSH1 0x4 ADD PUSH2 0x3A09 JUMP JUMPDEST SWAP1 PUSH1 0x1 DUP5 ADD PUSH2 0x3A90 JUMP JUMPDEST PUSH1 0x2 DUP2 ADD PUSH1 0x1 PUSH1 0x1 PUSH1 0xA0 SHL SUB PUSH2 0x2807 PUSH1 0x44 PUSH1 0x24 CALLDATALOAD ADD PUSH2 0x3946 JUMP JUMPDEST DUP3 SLOAD PUSH1 0x1 PUSH1 0x1 PUSH1 0xA0 SHL SUB NOT AND SWAP2 AND OR SWAP1 SSTORE PUSH1 0x24 CALLDATALOAD PUSH1 0x64 DUP2 ADD CALLDATALOAD PUSH1 0x3 DUP4 ADD SSTORE PUSH1 0x84 DUP2 ADD CALLDATALOAD PUSH1 0x4 DUP4 ADD SSTORE PUSH1 0xA4 DUP2 ADD CALLDATALOAD PUSH1 0x5 DUP4 ADD SSTORE PUSH1 0xC4 DUP2 ADD CALLDATALOAD PUSH1 0x6 DUP4 ADD SSTORE PUSH1 0xE4 DUP2 ADD CALLDATALOAD PUSH1 0x7 DUP4 ADD SSTORE PUSH2 0x104 DUP2 ADD CALLDATALOAD PUSH1 0x8 DUP4 ADD SSTORE PUSH1 0x1 PUSH1 0x1 PUSH1 0xA0 SHL SUB SWAP1 PUSH2 0x286E SWAP1 PUSH2 0x124 ADD PUSH2 0x3946 JUMP JUMPDEST AND PUSH1 0x1 PUSH1 0x1 PUSH1 0xA0 SHL SUB NOT PUSH1 0x9 DUP4 ADD SLOAD AND OR PUSH1 0x9 DUP3 ADD SSTORE PUSH2 0x28B4 PUSH2 0x2896 PUSH2 0x144 PUSH1 0x24 CALLDATALOAD ADD PUSH2 0x3B54 JUMP JUMPDEST PUSH1 0x9 DUP4 ADD SWAP1 PUSH1 0xFF PUSH1 0xA0 SHL NOT PUSH1 0xFF PUSH1 0xA0 SHL DUP4 SLOAD SWAP3 PUSH1 0xA0 SHL AND SWAP2 AND OR SWAP1 SSTORE JUMP JUMPDEST PUSH1 0x6 PUSH2 0x164 PUSH1 0x24 CALLDATALOAD ADD CALLDATALOAD LT ISZERO PUSH2 0x18B8 JUMPI PUSH2 0x28D9 SWAP1 PUSH1 0x9 PUSH2 0x164 PUSH1 0x24 CALLDATALOAD ADD CALLDATALOAD SWAP2 ADD PUSH2 0x3B62 JUMP JUMPDEST PUSH1 0x9 PUSH1 0x40 MLOAD DUP4 DUP4 DUP3 CALLDATACOPY PUSH1 0x20 DUP2 DUP6 DUP2 ADD DUP8 DUP2 MSTORE SUB ADD SWAP1 KECCAK256 ADD PUSH22 0x1000000000000000000000000000000000000000000 PUSH1 0xFF PUSH1 0xA8 SHL NOT DUP3 SLOAD AND OR SWAP1 SSTORE PUSH1 0x11 SLOAD SWAP2 DUP3 PUSH1 0x8 PUSH1 0x40 MLOAD DUP4 DUP6 DUP3 CALLDATACOPY PUSH1 0x20 DUP2 DUP6 DUP2 ADD DUP10 DUP2 MSTORE SUB ADD SWAP1 KECCAK256 ADD SSTORE PUSH1 0x40 MLOAD DUP2 DUP4 DUP3 CALLDATACOPY PUSH1 0x20 DUP2 DUP4 DUP2 ADD DUP8 DUP2 MSTORE SUB ADD SWAP1 KECCAK256 SWAP3 PUSH1 0x1 PUSH1 0x40 SHL DUP2 LT ISZERO PUSH2 0x506 JUMPI DUP1 PUSH1 0x1 PUSH2 0x2961 SWAP3 ADD PUSH1 0x11 SSTORE PUSH2 0x372D JUMP JUMPDEST PUSH2 0x17D0 JUMPI DUP4 PUSH32 0xEBC5645D06A6C6900FFBABB37C6FC84326BD870990F736254F05ABB3287FFD41 SWAP5 DUP3 SUB PUSH2 0x2A9D JUMPI JUMPDEST POP POP PUSH2 0x29A8 PUSH1 0x40 MLOAD SWAP3 DUP4 SWAP3 PUSH1 0x40 DUP5 MSTORE PUSH1 0x40 DUP5 ADD SWAP2 PUSH2 0x3C62 JUMP JUMPDEST DUP2 DUP2 SUB PUSH1 0x20 DUP4 ADD MSTORE PUSH2 0x923 PUSH2 0x160 PUSH2 0x29FC PUSH2 0x29DB PUSH2 0x29CB PUSH1 0x4 PUSH1 0x24 CALLDATALOAD ADD DUP1 PUSH2 0x3C83 JUMP JUMPDEST PUSH2 0x180 DUP8 MSTORE PUSH2 0x180 DUP8 ADD SWAP2 PUSH2 0x3C62 JUMP JUMPDEST PUSH2 0x29EE PUSH1 0x24 DUP1 CALLDATALOAD ADD PUSH1 0x24 CALLDATALOAD PUSH1 0x4 ADD PUSH2 0x3C83 JUMP JUMPDEST SWAP1 DUP7 DUP4 SUB PUSH1 0x20 DUP9 ADD MSTORE PUSH2 0x3C62 JUMP JUMPDEST SWAP3 PUSH1 0x1 PUSH1 0x1 PUSH1 0xA0 SHL SUB PUSH2 0x2A13 PUSH1 0x44 PUSH1 0x24 CALLDATALOAD ADD PUSH2 0x33C4 JUMP JUMPDEST AND PUSH1 0x40 DUP3 ADD MSTORE PUSH1 0x24 CALLDATALOAD PUSH1 0x64 DUP2 ADD CALLDATALOAD PUSH1 0x60 DUP4 ADD MSTORE PUSH1 0x84 DUP2 ADD CALLDATALOAD PUSH1 0x80 DUP4 ADD MSTORE PUSH1 0xA4 DUP2 ADD CALLDATALOAD PUSH1 0xA0 DUP4 ADD MSTORE PUSH1 0xC4 DUP2 ADD CALLDATALOAD PUSH1 0xC0 DUP4 ADD MSTORE PUSH1 0xE4 DUP2 ADD CALLDATALOAD PUSH1 0xE0 DUP4 ADD MSTORE PUSH2 0x104 DUP2 ADD CALLDATALOAD PUSH2 0x100 DUP4 ADD MSTORE PUSH1 0x1 PUSH1 0x1 PUSH1 0xA0 SHL SUB SWAP1 PUSH2 0x2A70 SWAP1 PUSH2 0x124 ADD PUSH2 0x33C4 JUMP JUMPDEST AND PUSH2 0x120 DUP3 ADD MSTORE PUSH1 0xFF PUSH2 0x2A88 PUSH2 0x144 PUSH1 0x24 CALLDATALOAD ADD PUSH2 0x3618 JUMP JUMPDEST AND PUSH2 0x140 DUP3 ADD MSTORE ADD PUSH2 0x164 PUSH1 0x24 CALLDATALOAD ADD CALLDATALOAD PUSH2 0x3626 JUMP JUMPDEST PUSH1 0xFF PUSH1 0x9 DUP1 DUP5 PUSH2 0x170F DUP6 PUSH2 0x2AB0 SWAP8 PUSH2 0x3B85 JUMP JUMPDEST CODESIZE DUP1 PUSH2 0x298F JUMP JUMPDEST PUSH1 0x64 PUSH1 0x40 MLOAD PUSH3 0x461BCD PUSH1 0xE5 SHL DUP2 MSTORE PUSH1 0x20 PUSH1 0x4 DUP3 ADD MSTORE PUSH1 0xA PUSH1 0x24 DUP3 ADD MSTORE PUSH32 0x6E6F742069737375657200000000000000000000000000000000000000000000 PUSH1 0x44 DUP3 ADD MSTORE REVERT JUMPDEST PUSH2 0x2B14 SWAP2 POP PUSH1 0x20 RETURNDATASIZE PUSH1 0x20 GT PUSH2 0x8C5 JUMPI PUSH2 0x8B6 DUP2 DUP4 PUSH2 0x3442 JUMP JUMPDEST CODESIZE PUSH2 0x2747 JUMP JUMPDEST PUSH1 0x40 MLOAD RETURNDATASIZE DUP7 DUP3 RETURNDATACOPY RETURNDATASIZE SWAP1 REVERT JUMPDEST POP CALLVALUE PUSH2 0x208 JUMPI PUSH1 0x40 CALLDATASIZE PUSH1 0x3 NOT ADD SLT PUSH2 0x208 JUMPI PUSH1 0x4 CALLDATALOAD PUSH8 0xFFFFFFFFFFFFFFFF DUP2 GT PUSH2 0x5E8 JUMPI PUSH2 0x2B57 SWAP1 CALLDATASIZE SWAP1 PUSH1 0x4 ADD PUSH2 0x3464 JUMP JUMPDEST PUSH1 0x1 PUSH1 0x1 PUSH1 0xA0 SHL SUB PUSH2 0x2B80 PUSH1 0x20 PUSH2 0x2B6C PUSH2 0x3398 JUMP JUMPDEST SWAP4 DUP2 PUSH1 0x40 MLOAD SWAP4 DUP3 DUP6 DUP1 SWAP5 MLOAD SWAP4 DUP5 SWAP3 ADD PUSH2 0x34BB JUMP JUMPDEST DUP2 ADD PUSH1 0x1 DUP2 MSTORE SUB ADD SWAP1 KECCAK256 SWAP2 AND PUSH1 0x1 PUSH1 0x1 PUSH1 0xA0 SHL SUB NOT DUP3 SLOAD AND OR SWAP1 SSTORE DUP1 RETURN JUMPDEST POP CALLVALUE PUSH2 0x208 JUMPI PUSH1 0x40 CALLDATASIZE PUSH1 0x3 NOT ADD SLT PUSH2 0x208 JUMPI PUSH8 0xFFFFFFFFFFFFFFFF PUSH1 0x4 CALLDATALOAD DUP2 DUP2 GT PUSH2 0x16D0 JUMPI PUSH2 0x2BD1 SWAP1 CALLDATASIZE SWAP1 PUSH1 0x4 ADD PUSH2 0x35C5 JUMP JUMPDEST PUSH1 0x24 DUP1 CALLDATALOAD SWAP4 PUSH1 0x1 PUSH1 0x1 PUSH1 0xA0 SHL SUB SWAP2 DUP3 PUSH1 0xA SLOAD AND SWAP3 PUSH1 0x40 MLOAD DUP1 SWAP5 PUSH32 0xB9209E3300000000000000000000000000000000000000000000000000000000 DUP3 MSTORE CALLER PUSH1 0x4 DUP4 ADD MSTORE DUP2 DUP5 PUSH1 0x20 SWAP8 DUP9 SWAP4 GAS STATICCALL SWAP1 DUP2 ISZERO PUSH2 0x2F18 JUMPI DUP10 SWAP2 PUSH2 0x317C JUMPI JUMPDEST POP ISZERO PUSH2 0x3139 JUMPI PUSH1 0xFF PUSH1 0x9 PUSH1 0x40 MLOAD DUP8 DUP10 DUP3 CALLDATACOPY DUP7 DUP2 DUP10 DUP2 ADD DUP14 DUP2 MSTORE SUB ADD SWAP1 KECCAK256 ADD SLOAD PUSH1 0xA8 SHR AND PUSH1 0x6 DUP2 LT ISZERO PUSH2 0x3126 JUMPI PUSH1 0x2 SUB PUSH2 0x3102 JUMPI PUSH1 0x4 PUSH1 0x40 MLOAD DUP7 DUP9 DUP3 CALLDATACOPY DUP6 DUP2 DUP9 DUP2 ADD DUP13 DUP2 MSTORE SUB ADD SWAP1 KECCAK256 ADD SLOAD SWAP3 DUP4 DUP9 MUL DUP9 ISZERO SWAP5 DUP10 DUP3 DIV EQ DUP6 OR ISZERO PUSH2 0x30EF JUMPI PUSH1 0x4 PUSH1 0x40 MLOAD DUP9 DUP11 DUP3 CALLDATACOPY DUP8 DUP2 DUP14 DUP12 DUP3 ADD SWAP1 DUP2 MSTORE SUB ADD SWAP1 KECCAK256 ADD SLOAD SWAP1 DUP2 ISZERO PUSH2 0x30DC JUMPI MOD PUSH2 0x30AC JUMPI DUP4 ISZERO DUP1 PUSH2 0x306E JUMPI JUMPDEST ISZERO PUSH2 0x302B JUMPI PUSH2 0x2CD5 DUP9 PUSH1 0x40 MLOAD DUP9 DUP11 DUP3 CALLDATACOPY DUP8 DUP2 DUP11 DUP2 ADD PUSH1 0x4 DUP2 MSTORE SUB ADD SWAP1 KECCAK256 SLOAD PUSH2 0x3CB5 JUMP JUMPDEST PUSH1 0x40 MLOAD DUP8 DUP10 DUP3 CALLDATACOPY DUP7 DUP2 DUP10 DUP2 ADD PUSH1 0x4 DUP2 MSTORE SUB ADD SWAP1 KECCAK256 SSTORE CALLER DUP10 MSTORE DUP9 PUSH1 0x5 SWAP2 DUP3 DUP8 MSTORE DUP7 DUP10 DUP10 DUP13 PUSH1 0x1 SWAP5 PUSH1 0xFF DUP7 PUSH2 0x2D0C PUSH1 0x40 DUP11 KECCAK256 DUP7 DUP9 PUSH2 0x39A5 JUMP JUMPDEST ADD SLOAD AND ISZERO PUSH2 0x2F23 JUMPI POP PUSH2 0x2D68 SWAP4 SWAP3 PUSH1 0x2 SWAP3 PUSH1 0x40 PUSH2 0x2D3F PUSH2 0x2D60 SWAP5 CALLER DUP12 MSTORE DUP12 DUP9 MSTORE PUSH2 0x2D39 DUP4 DUP13 KECCAK256 DUP6 DUP8 PUSH2 0x39A5 JUMP JUMPDEST SLOAD PUSH2 0x3CB5 JUMP JUMPDEST SWAP9 DUP11 DUP3 MLOAD DUP5 DUP7 DUP3 CALLDATACOPY DUP9 DUP2 DUP7 DUP2 ADD PUSH1 0x3 DUP2 MSTORE SUB ADD SWAP1 KECCAK256 SWAP8 CALLER DUP4 MSTORE MSTORE KECCAK256 SWAP2 PUSH2 0x39A5 JUMP JUMPDEST ADD SLOAD SWAP1 PUSH2 0x3711 JUMP JUMPDEST POP ADD SSTORE CALLER DUP10 MSTORE DUP1 DUP6 MSTORE PUSH2 0x2D83 DUP9 PUSH2 0x2D39 PUSH1 0x40 DUP13 KECCAK256 DUP10 DUP12 PUSH2 0x39A5 JUMP JUMPDEST SWAP1 CALLER DUP11 MSTORE DUP6 MSTORE PUSH2 0x2D97 PUSH1 0x40 DUP11 KECCAK256 DUP8 DUP10 PUSH2 0x39A5 JUMP JUMPDEST SSTORE JUMPDEST DUP1 PUSH1 0xD SLOAD AND DUP9 DUP2 EXTCODESIZE ISZERO PUSH2 0x208 JUMPI PUSH2 0x2DEC DUP10 SWAP3 DUP10 DUP4 DUP11 PUSH1 0x40 MLOAD SWAP7 DUP8 SWAP6 DUP7 SWAP5 DUP6 SWAP4 PUSH32 0x925B7CB600000000000000000000000000000000000000000000000000000000 DUP6 MSTORE PUSH1 0x40 PUSH1 0x4 DUP7 ADD MSTORE PUSH1 0x44 DUP6 ADD SWAP2 PUSH2 0x3C62 JUMP JUMPDEST SWAP1 DUP11 DUP4 ADD MSTORE SUB SWAP3 GAS CALL DUP1 ISZERO PUSH2 0x2F18 JUMPI PUSH2 0x2F05 JUMPI JUMPDEST POP DUP1 PUSH1 0x9 PUSH1 0x40 MLOAD DUP8 DUP10 DUP3 CALLDATACOPY DUP7 DUP2 DUP10 DUP2 ADD DUP14 DUP2 MSTORE SUB ADD SWAP1 KECCAK256 ADD SLOAD AND SWAP1 PUSH1 0xD SLOAD AND SWAP3 PUSH8 0xDE0B6B3A7640000 DUP1 DUP10 MUL SWAP9 DUP10 DIV EQ OR ISZERO PUSH2 0x2EF2 JUMPI DUP4 SWAP3 SWAP2 DUP9 PUSH1 0x64 SWAP3 PUSH1 0x40 MLOAD SWAP10 DUP11 SWAP6 DUP7 SWAP5 PUSH32 0x23B872DD00000000000000000000000000000000000000000000000000000000 DUP7 MSTORE CALLER PUSH1 0x4 DUP8 ADD MSTORE DUP6 ADD MSTORE PUSH1 0x44 DUP5 ADD MSTORE GAS CALL SWAP4 DUP5 ISZERO PUSH2 0x2EE7 JUMPI PUSH32 0xBDAF52B4DE514796607307FBBCF007EE6D59E81E1BE436B67C5A567A2E8D121 SWAP5 PUSH2 0x2ECA JUMPI JUMPDEST POP PUSH2 0x2EBE PUSH1 0x40 MLOAD SWAP4 DUP5 SWAP4 PUSH1 0x40 DUP6 MSTORE PUSH1 0x40 DUP6 ADD SWAP2 PUSH2 0x3C62 JUMP JUMPDEST SWAP1 CALLER SWAP1 DUP4 ADD MSTORE SUB SWAP1 LOG1 DUP1 RETURN JUMPDEST PUSH2 0x2EE0 SWAP1 DUP3 RETURNDATASIZE DUP5 GT PUSH2 0x8C5 JUMPI PUSH2 0x8B6 DUP2 DUP4 PUSH2 0x3442 JUMP JUMPDEST POP CODESIZE PUSH2 0x2EA6 JUMP JUMPDEST PUSH1 0x40 MLOAD RETURNDATASIZE DUP8 DUP3 RETURNDATACOPY RETURNDATASIZE SWAP1 REVERT JUMPDEST POP DUP7 PUSH4 0x4E487B71 PUSH1 0xE0 SHL DUP2 MSTORE PUSH1 0x11 PUSH1 0x4 MSTORE REVERT JUMPDEST PUSH2 0x2F11 SWAP1 SWAP9 SWAP2 SWAP9 PUSH2 0x3411 JUMP JUMPDEST SWAP7 CODESIZE PUSH2 0x2E00 JUMP JUMPDEST PUSH1 0x40 MLOAD RETURNDATASIZE DUP12 DUP3 RETURNDATACOPY RETURNDATASIZE SWAP1 REVERT JUMPDEST SWAP6 POP POP POP POP POP SWAP2 PUSH1 0x40 MLOAD DUP9 DUP11 DUP3 CALLDATACOPY DUP8 DUP2 DUP11 DUP2 ADD PUSH1 0x3 DUP2 MSTORE SUB ADD SWAP1 KECCAK256 SLOAD SWAP1 PUSH1 0x40 MLOAD SWAP3 PUSH1 0x60 DUP5 ADD SWAP1 DUP5 DUP3 LT SWAP1 DUP3 GT OR PUSH2 0x3018 JUMPI SWAP1 PUSH2 0x2F7E PUSH1 0x40 DUP15 DUP15 PUSH1 0x2 SWAP7 SWAP6 DUP4 MSTORE DUP8 MSTORE DUP12 DUP8 ADD SWAP4 DUP9 DUP6 MSTORE DUP3 DUP9 ADD SWAP6 DUP7 MSTORE CALLER DUP3 MSTORE DUP13 MSTORE KECCAK256 DUP12 DUP14 PUSH2 0x39A5 JUMP JUMPDEST SWAP4 MLOAD DUP5 SSTORE DUP5 DUP5 ADD SWAP1 MLOAD ISZERO ISZERO PUSH1 0xFF DUP1 NOT DUP4 SLOAD AND SWAP2 AND OR SWAP1 SSTORE MLOAD SWAP2 ADD SSTORE PUSH1 0x40 MLOAD DUP7 DUP9 DUP3 CALLDATACOPY DUP6 DUP2 DUP9 DUP2 ADD PUSH1 0x3 DUP2 MSTORE SUB ADD SWAP1 KECCAK256 SWAP1 PUSH1 0x40 MLOAD SWAP2 PUSH2 0x2FBB DUP4 PUSH2 0x33F5 JUMP JUMPDEST CALLER DUP4 MSTORE DUP7 DUP4 ADD SWAP1 DUP11 DUP3 MSTORE DUP1 SLOAD SWAP1 PUSH1 0x1 PUSH1 0x40 SHL DUP3 LT ISZERO PUSH2 0x3018 JUMPI SWAP1 PUSH2 0x2FE3 SWAP2 DUP5 DUP3 ADD DUP2 SSTORE PUSH2 0x3711 JUMP JUMPDEST SWAP4 SWAP1 SWAP4 PUSH2 0x3006 JUMPI DUP5 SWAP1 MLOAD AND PUSH1 0x1 PUSH1 0x1 PUSH1 0xA0 SHL SUB NOT DUP5 SLOAD AND OR DUP4 SSTORE MLOAD SWAP2 ADD SSTORE PUSH2 0x2D99 JUMP JUMPDEST DUP6 DUP13 PUSH4 0x4E487B71 PUSH1 0xE0 SHL DUP2 MSTORE DUP1 PUSH1 0x4 MSTORE REVERT JUMPDEST DUP7 DUP14 PUSH4 0x4E487B71 PUSH1 0xE0 SHL DUP2 MSTORE PUSH1 0x41 PUSH1 0x4 MSTORE REVERT JUMPDEST PUSH1 0x64 DUP6 PUSH1 0x6 DUP6 PUSH1 0x40 MLOAD SWAP3 PUSH3 0x461BCD PUSH1 0xE5 SHL DUP5 MSTORE PUSH1 0x4 DUP5 ADD MSTORE DUP3 ADD MSTORE PUSH32 0x616D6F756E740000000000000000000000000000000000000000000000000000 PUSH1 0x44 DUP3 ADD MSTORE REVERT JUMPDEST POP PUSH2 0x308D PUSH1 0x40 MLOAD DUP8 DUP10 DUP3 CALLDATACOPY DUP7 DUP2 DUP10 DUP2 ADD PUSH1 0x4 DUP2 MSTORE SUB ADD SWAP1 KECCAK256 SLOAD DUP10 PUSH2 0x3CB5 JUMP JUMPDEST PUSH1 0x3 PUSH1 0x40 MLOAD DUP9 DUP11 DUP3 CALLDATACOPY DUP8 DUP2 DUP14 DUP12 DUP3 ADD SWAP1 DUP2 MSTORE SUB ADD SWAP1 KECCAK256 ADD SLOAD LT ISZERO PUSH2 0x2CB2 JUMP JUMPDEST DUP3 DUP9 PUSH1 0x40 MLOAD SWAP1 PUSH32 0x3728B83D00000000000000000000000000000000000000000000000000000000 DUP3 MSTORE PUSH1 0x4 DUP3 ADD MSTORE REVERT JUMPDEST DUP5 DUP12 PUSH4 0x4E487B71 PUSH1 0xE0 SHL DUP2 MSTORE PUSH1 0x12 PUSH1 0x4 MSTORE REVERT JUMPDEST DUP4 DUP11 PUSH4 0x4E487B71 PUSH1 0xE0 SHL DUP2 MSTORE PUSH1 0x11 PUSH1 0x4 MSTORE REVERT JUMPDEST POP DUP3 PUSH2 0x975 DUP7 DUP7 PUSH1 0x40 MLOAD SWAP5 DUP6 SWAP5 PUSH4 0x2DC59421 PUSH1 0xE2 SHL DUP7 MSTORE PUSH1 0x4 DUP7 ADD MSTORE DUP5 ADD SWAP2 PUSH2 0x3C62 JUMP JUMPDEST DUP3 DUP10 PUSH4 0x4E487B71 PUSH1 0xE0 SHL DUP2 MSTORE PUSH1 0x21 PUSH1 0x4 MSTORE REVERT JUMPDEST PUSH1 0x64 DUP5 PUSH1 0x14 DUP5 PUSH1 0x40 MLOAD SWAP3 PUSH3 0x461BCD PUSH1 0xE5 SHL DUP5 MSTORE PUSH1 0x4 DUP5 ADD MSTORE DUP3 ADD MSTORE PUSH32 0x4143434F554E545F4E4F545F414150524F564544000000000000000000000000 PUSH1 0x44 DUP3 ADD MSTORE REVERT JUMPDEST PUSH2 0x3193 SWAP2 POP DUP6 RETURNDATASIZE DUP8 GT PUSH2 0x8C5 JUMPI PUSH2 0x8B6 DUP2 DUP4 PUSH2 0x3442 JUMP JUMPDEST CODESIZE PUSH2 0x2C2A JUMP JUMPDEST POP CALLVALUE PUSH2 0x208 JUMPI PUSH1 0x20 SWAP1 DUP2 PUSH1 0x3 NOT CALLDATASIZE ADD SLT PUSH2 0x208 JUMPI SWAP1 PUSH1 0x1 PUSH1 0x1 PUSH1 0xA0 SHL SUB SWAP2 DUP3 PUSH2 0x31C0 PUSH2 0x3382 JUMP JUMPDEST AND DUP2 MSTORE PUSH1 0x7 SWAP2 DUP3 DUP2 MSTORE PUSH1 0x40 DUP3 KECCAK256 SWAP1 DUP2 SLOAD SWAP3 PUSH2 0x31DA DUP5 PUSH2 0x3CD8 JUMP JUMPDEST SWAP5 PUSH2 0x31E8 PUSH1 0x40 MLOAD SWAP7 DUP8 PUSH2 0x3442 JUMP JUMPDEST DUP5 DUP7 MSTORE DUP3 DUP7 ADD SWAP4 DUP3 MSTORE DUP3 DUP3 KECCAK256 SWAP2 SWAP4 JUMPDEST DUP6 DUP6 LT PUSH2 0x320C JUMPI PUSH1 0x40 MLOAD DUP1 PUSH2 0x5E4 DUP10 DUP3 PUSH2 0x34DE JUMP JUMPDEST PUSH1 0xC DUP5 PUSH1 0x1 SWAP3 PUSH1 0x40 MLOAD PUSH2 0x321E DUP2 PUSH2 0x33D8 JUMP JUMPDEST DUP12 DUP8 SLOAD AND DUP2 MSTORE DUP12 DUP6 DUP9 ADD SLOAD AND DUP4 DUP3 ADD MSTORE PUSH1 0x2 DUP8 ADD SLOAD DUP13 DUP2 AND PUSH1 0x40 DUP4 ADD MSTORE PUSH1 0xFF SWAP1 DUP2 PUSH1 0xA0 SWAP2 DUP2 DUP2 DUP5 SHR AND PUSH1 0x60 DUP7 ADD MSTORE PUSH1 0xA8 SHR AND PUSH1 0x80 DUP5 ADD MSTORE PUSH1 0x3 DUP10 ADD SLOAD SWAP1 DUP4 ADD MSTORE PUSH1 0x4 DUP9 ADD SLOAD PUSH1 0xC0 DUP4 ADD MSTORE DUP13 PUSH1 0x5 DUP10 ADD SLOAD AND PUSH1 0xE0 DUP4 ADD MSTORE PUSH1 0x6 DUP9 ADD SLOAD PUSH2 0x100 DUP4 ADD MSTORE DUP7 DUP9 ADD SLOAD PUSH2 0x120 DUP4 ADD MSTORE PUSH1 0x8 DUP9 ADD SLOAD PUSH2 0x140 DUP4 ADD MSTORE PUSH1 0x9 DUP9 ADD SLOAD PUSH2 0x160 DUP4 ADD MSTORE PUSH1 0xA DUP9 ADD SLOAD PUSH2 0x180 DUP4 ADD MSTORE PUSH1 0xB DUP9 ADD SLOAD AND PUSH2 0x1A0 DUP3 ADD MSTORE DUP2 MSTORE ADD SWAP4 ADD SWAP5 ADD SWAP4 SWAP2 PUSH2 0x31F7 JUMP JUMPDEST POP CALLVALUE PUSH2 0x208 JUMPI DUP1 PUSH1 0x3 NOT CALLDATASIZE ADD SLT PUSH2 0x208 JUMPI PUSH1 0x20 PUSH1 0x1 PUSH1 0x1 PUSH1 0xA0 SHL SUB PUSH1 0xA SLOAD AND PUSH1 0x40 MLOAD SWAP1 DUP2 MSTORE RETURN JUMPDEST POP CALLVALUE PUSH2 0x208 JUMPI PUSH1 0x40 CALLDATASIZE PUSH1 0x3 NOT ADD SLT PUSH2 0x208 JUMPI PUSH2 0x3305 PUSH2 0x3382 JUMP JUMPDEST PUSH1 0x24 CALLDATALOAD PUSH8 0xFFFFFFFFFFFFFFFF DUP2 GT PUSH2 0x16D0 JUMPI PUSH2 0x3354 SWAP2 PUSH1 0x40 PUSH1 0x60 SWAP5 PUSH1 0x1 PUSH1 0x1 PUSH1 0xA0 SHL SUB PUSH2 0x3338 PUSH1 0x20 SWAP6 CALLDATASIZE SWAP1 PUSH1 0x4 ADD PUSH2 0x3464 JUMP JUMPDEST SWAP4 AND DUP2 MSTORE PUSH1 0x5 DUP5 MSTORE KECCAK256 DUP3 PUSH1 0x40 MLOAD SWAP5 DUP4 DUP7 DUP1 SWAP6 MLOAD SWAP4 DUP5 SWAP3 ADD PUSH2 0x34BB JUMP JUMPDEST DUP3 ADD SWAP1 DUP2 MSTORE SUB ADD SWAP1 KECCAK256 DUP1 SLOAD SWAP1 PUSH1 0x2 PUSH1 0xFF PUSH1 0x1 DUP4 ADD SLOAD AND SWAP2 ADD SLOAD SWAP1 PUSH1 0x40 MLOAD SWAP3 DUP4 MSTORE ISZERO ISZERO PUSH1 0x20 DUP4 ADD MSTORE PUSH1 0x40 DUP3 ADD MSTORE RETURN JUMPDEST PUSH1 0x4 CALLDATALOAD SWAP1 PUSH1 0x1 PUSH1 0x1 PUSH1 0xA0 SHL SUB DUP3 AND DUP3 SUB PUSH2 0x22E9 JUMPI JUMP JUMPDEST PUSH1 0x24 CALLDATALOAD SWAP1 PUSH1 0x1 PUSH1 0x1 PUSH1 0xA0 SHL SUB DUP3 AND DUP3 SUB PUSH2 0x22E9 JUMPI JUMP JUMPDEST PUSH1 0x44 CALLDATALOAD SWAP1 PUSH1 0x1 PUSH1 0x1 PUSH1 0xA0 SHL SUB DUP3 AND DUP3 SUB PUSH2 0x22E9 JUMPI JUMP JUMPDEST CALLDATALOAD SWAP1 PUSH1 0x1 PUSH1 0x1 PUSH1 0xA0 SHL SUB DUP3 AND DUP3 SUB PUSH2 0x22E9 JUMPI JUMP JUMPDEST PUSH2 0x1C0 DUP2 ADD SWAP1 DUP2 LT PUSH8 0xFFFFFFFFFFFFFFFF DUP3 GT OR PUSH2 0x506 JUMPI PUSH1 0x40 MSTORE JUMP JUMPDEST PUSH1 0x40 DUP2 ADD SWAP1 DUP2 LT PUSH8 0xFFFFFFFFFFFFFFFF DUP3 GT OR PUSH2 0x506 JUMPI PUSH1 0x40 MSTORE JUMP JUMPDEST PUSH8 0xFFFFFFFFFFFFFFFF DUP2 GT PUSH2 0x506 JUMPI PUSH1 0x40 MSTORE JUMP JUMPDEST PUSH2 0x180 DUP2 ADD SWAP1 DUP2 LT PUSH8 0xFFFFFFFFFFFFFFFF DUP3 GT OR PUSH2 0x506 JUMPI PUSH1 0x40 MSTORE JUMP JUMPDEST SWAP1 PUSH1 0x1F DUP1 NOT SWAP2 ADD AND DUP2 ADD SWAP1 DUP2 LT PUSH8 0xFFFFFFFFFFFFFFFF DUP3 GT OR PUSH2 0x506 JUMPI PUSH1 0x40 MSTORE JUMP JUMPDEST DUP2 PUSH1 0x1F DUP3 ADD SLT ISZERO PUSH2 0x22E9 JUMPI DUP1 CALLDATALOAD SWAP1 PUSH8 0xFFFFFFFFFFFFFFFF DUP3 GT PUSH2 0x506 JUMPI PUSH1 0x40 MLOAD SWAP3 PUSH2 0x3499 PUSH1 0x1F DUP5 ADD PUSH1 0x1F NOT AND PUSH1 0x20 ADD DUP6 PUSH2 0x3442 JUMP JUMPDEST DUP3 DUP5 MSTORE PUSH1 0x20 DUP4 DUP4 ADD ADD GT PUSH2 0x22E9 JUMPI DUP2 PUSH1 0x0 SWAP3 PUSH1 0x20 DUP1 SWAP4 ADD DUP4 DUP7 ADD CALLDATACOPY DUP4 ADD ADD MSTORE SWAP1 JUMP JUMPDEST PUSH1 0x0 JUMPDEST DUP4 DUP2 LT PUSH2 0x34CE JUMPI POP POP PUSH1 0x0 SWAP2 ADD MSTORE JUMP JUMPDEST DUP2 DUP2 ADD MLOAD DUP4 DUP3 ADD MSTORE PUSH1 0x20 ADD PUSH2 0x34BE JUMP JUMPDEST PUSH1 0x20 DUP1 DUP3 ADD SWAP1 DUP1 DUP4 MSTORE DUP4 MLOAD DUP1 SWAP3 MSTORE DUP1 PUSH1 0x40 DUP1 SWAP5 ADD SWAP5 ADD SWAP3 PUSH1 0x0 SWAP1 JUMPDEST DUP4 DUP3 LT PUSH2 0x3508 JUMPI POP POP POP POP POP SWAP1 JUMP JUMPDEST SWAP1 SWAP2 SWAP3 SWAP4 SWAP5 DUP4 PUSH2 0x1C0 PUSH1 0x1 SWAP3 DUP9 MLOAD PUSH1 0x1 PUSH1 0x1 PUSH1 0xA0 SHL SUB DUP1 DUP3 MLOAD AND DUP4 MSTORE DUP1 DUP6 DUP4 ADD MLOAD AND DUP6 DUP5 ADD MSTORE DUP1 DUP8 DUP4 ADD MLOAD AND DUP8 DUP5 ADD MSTORE PUSH1 0xFF SWAP1 PUSH1 0x60 DUP3 DUP2 DUP6 ADD MLOAD AND SWAP1 DUP6 ADD MSTORE PUSH1 0x80 DUP3 DUP2 DUP6 ADD MLOAD AND SWAP1 DUP6 ADD MSTORE PUSH1 0xA0 DUP1 DUP5 ADD MLOAD SWAP1 DUP6 ADD MSTORE PUSH1 0xC0 DUP1 DUP5 ADD MLOAD SWAP1 DUP6 ADD MSTORE PUSH1 0xE0 SWAP1 DUP2 DUP5 ADD MLOAD AND SWAP1 DUP5 ADD MSTORE PUSH2 0x100 DUP1 DUP4 ADD MLOAD SWAP1 DUP5 ADD MSTORE PUSH2 0x120 DUP1 DUP4 ADD MLOAD SWAP1 DUP5 ADD MSTORE PUSH2 0x140 DUP1 DUP4 ADD MLOAD SWAP1 DUP5 ADD MSTORE PUSH2 0x160 DUP1 DUP4 ADD MLOAD SWAP1 DUP5 ADD MSTORE PUSH2 0x180 DUP1 DUP4 ADD MLOAD SWAP1 DUP5 ADD MSTORE PUSH2 0x1A0 DUP1 SWAP3 ADD MLOAD AND SWAP1 DUP3 ADD MSTORE ADD SWAP7 ADD SWAP3 ADD SWAP1 SWAP4 SWAP3 SWAP2 SWAP4 PUSH2 0x34F9 JUMP JUMPDEST SWAP2 DUP2 PUSH1 0x1F DUP5 ADD SLT ISZERO PUSH2 0x22E9 JUMPI DUP3 CALLDATALOAD SWAP2 PUSH8 0xFFFFFFFFFFFFFFFF DUP4 GT PUSH2 0x22E9 JUMPI PUSH1 0x20 DUP4 DUP2 DUP7 ADD SWAP6 ADD ADD GT PUSH2 0x22E9 JUMPI JUMP JUMPDEST SWAP1 PUSH1 0x20 SWAP2 PUSH2 0x360C DUP2 MLOAD DUP1 SWAP3 DUP2 DUP6 MSTORE DUP6 DUP1 DUP7 ADD SWAP2 ADD PUSH2 0x34BB JUMP JUMPDEST PUSH1 0x1F ADD PUSH1 0x1F NOT AND ADD ADD SWAP1 JUMP JUMPDEST CALLDATALOAD SWAP1 PUSH1 0xFF DUP3 AND DUP3 SUB PUSH2 0x22E9 JUMPI JUMP JUMPDEST SWAP1 PUSH1 0x6 DUP3 LT ISZERO PUSH2 0x3633 JUMPI MSTORE JUMP JUMPDEST PUSH4 0x4E487B71 PUSH1 0xE0 SHL PUSH1 0x0 MSTORE PUSH1 0x21 PUSH1 0x4 MSTORE PUSH1 0x24 PUSH1 0x0 REVERT JUMPDEST SWAP1 PUSH2 0x36F2 SWAP1 PUSH2 0x3676 PUSH2 0x3664 DUP5 MLOAD PUSH2 0x180 DUP1 DUP6 MSTORE DUP5 ADD SWAP1 PUSH2 0x35F3 JUMP JUMPDEST PUSH1 0x20 DUP6 ADD MLOAD DUP4 DUP3 SUB PUSH1 0x20 DUP6 ADD MSTORE PUSH2 0x35F3 JUMP JUMPDEST SWAP3 PUSH1 0x1 PUSH1 0x1 PUSH1 0xA0 SHL SUB DUP1 PUSH1 0x40 DUP4 ADD MLOAD AND PUSH1 0x40 DUP5 ADD MSTORE PUSH1 0x60 DUP3 ADD MLOAD PUSH1 0x60 DUP5 ADD MSTORE PUSH1 0x80 DUP3 ADD MLOAD PUSH1 0x80 DUP5 ADD MSTORE PUSH1 0xA0 DUP3 ADD MLOAD PUSH1 0xA0 DUP5 ADD MSTORE PUSH1 0xC0 DUP3 ADD MLOAD PUSH1 0xC0 DUP5 ADD MSTORE PUSH1 0xE0 DUP3 ADD MLOAD PUSH1 0xE0 DUP5 ADD MSTORE PUSH2 0x100 DUP1 DUP4 ADD MLOAD SWAP1 DUP5 ADD MSTORE PUSH2 0x120 SWAP1 DUP2 DUP4 ADD MLOAD AND SWAP1 DUP4 ADD MSTORE PUSH2 0x140 PUSH1 0xFF DUP2 DUP4 ADD MLOAD AND SWAP1 DUP4 ADD MSTORE PUSH2 0x160 DUP1 SWAP2 ADD MLOAD SWAP2 ADD SWAP1 PUSH2 0x3626 JUMP JUMPDEST SWAP1 JUMP JUMPDEST DUP1 SLOAD DUP3 LT ISZERO PUSH2 0x22D3 JUMPI PUSH1 0x0 MSTORE PUSH1 0xC PUSH1 0x20 PUSH1 0x0 KECCAK256 SWAP2 MUL ADD SWAP1 PUSH1 0x0 SWAP1 JUMP JUMPDEST DUP1 SLOAD DUP3 LT ISZERO PUSH2 0x22D3 JUMPI PUSH1 0x0 MSTORE PUSH1 0x20 PUSH1 0x0 KECCAK256 SWAP1 PUSH1 0x1 SHL ADD SWAP1 PUSH1 0x0 SWAP1 JUMP JUMPDEST PUSH1 0x11 SLOAD DUP2 LT ISZERO PUSH2 0x22D3 JUMPI PUSH1 0xA SWAP1 PUSH1 0x11 PUSH1 0x0 MSTORE MUL PUSH32 0x31ECC21A745E3968A04E9570E4425BC18FA8019C68028196B546D1669C200C68 ADD SWAP1 PUSH1 0x0 SWAP1 JUMP JUMPDEST DUP1 SLOAD DUP3 LT ISZERO PUSH2 0x22D3 JUMPI PUSH1 0x0 MSTORE PUSH1 0xA PUSH1 0x20 PUSH1 0x0 KECCAK256 SWAP2 MUL ADD SWAP1 PUSH1 0x0 SWAP1 JUMP JUMPDEST SWAP1 PUSH1 0x1 DUP3 DUP2 SHR SWAP3 AND DUP1 ISZERO PUSH2 0x37B4 JUMPI JUMPDEST PUSH1 0x20 DUP4 LT EQ PUSH2 0x379E JUMPI JUMP JUMPDEST PUSH4 0x4E487B71 PUSH1 0xE0 SHL PUSH1 0x0 MSTORE PUSH1 0x22 PUSH1 0x4 MSTORE PUSH1 0x24 PUSH1 0x0 REVERT JUMPDEST SWAP2 PUSH1 0x7F AND SWAP2 PUSH2 0x3793 JUMP JUMPDEST SWAP1 PUSH1 0x40 MLOAD SWAP2 DUP3 PUSH1 0x0 DUP3 SLOAD SWAP3 PUSH2 0x37D2 DUP5 PUSH2 0x3784 JUMP JUMPDEST SWAP1 DUP2 DUP5 MSTORE PUSH1 0x1 SWAP5 DUP6 DUP2 AND SWAP1 DUP2 PUSH1 0x0 EQ PUSH2 0x3841 JUMPI POP PUSH1 0x1 EQ PUSH2 0x37FE JUMPI JUMPDEST POP POP PUSH2 0x37FC SWAP3 POP SUB DUP4 PUSH2 0x3442 JUMP JUMPDEST JUMP JUMPDEST SWAP1 SWAP4 SWAP2 POP PUSH1 0x0 MSTORE PUSH1 0x20 SWAP1 DUP2 PUSH1 0x0 KECCAK256 SWAP4 PUSH1 0x0 SWAP2 JUMPDEST DUP2 DUP4 LT PUSH2 0x3829 JUMPI POP POP PUSH2 0x37FC SWAP4 POP DUP3 ADD ADD CODESIZE DUP1 PUSH2 0x37EE JUMP JUMPDEST DUP6 SLOAD DUP9 DUP5 ADD DUP6 ADD MSTORE SWAP5 DUP6 ADD SWAP5 DUP8 SWAP5 POP SWAP2 DUP4 ADD SWAP2 PUSH2 0x3811 JUMP JUMPDEST SWAP2 POP POP PUSH2 0x37FC SWAP5 POP PUSH1 0x20 SWAP3 POP PUSH1 0xFF NOT AND DUP3 DUP5 ADD MSTORE ISZERO ISZERO PUSH1 0x5 SHL DUP3 ADD ADD CODESIZE DUP1 PUSH2 0x37EE JUMP JUMPDEST SWAP8 SWAP2 SWAP6 PUSH2 0x160 SWAP10 SWAP4 SWAP6 PUSH2 0x389E SWAP6 SWAP15 SWAP14 SWAP12 SWAP6 PUSH2 0x37FC SWAP14 SWAP9 PUSH2 0x3890 PUSH1 0xFF SWAP12 SWAP6 DUP14 PUSH2 0x180 SWAP1 DUP2 DUP2 MSTORE ADD SWAP1 PUSH2 0x35F3 JUMP JUMPDEST DUP13 DUP2 SUB PUSH1 0x20 DUP15 ADD MSTORE SWAP1 PUSH2 0x35F3 JUMP JUMPDEST SWAP15 PUSH1 0x1 PUSH1 0x1 PUSH1 0xA0 SHL SUB DUP1 SWAP9 AND PUSH1 0x40 DUP13 ADD MSTORE PUSH1 0x60 DUP12 ADD MSTORE PUSH1 0x80 DUP11 ADD MSTORE PUSH1 0xA0 DUP10 ADD MSTORE PUSH1 0xC0 DUP9 ADD MSTORE PUSH1 0xE0 DUP8 ADD MSTORE PUSH2 0x100 DUP7 ADD MSTORE AND PUSH2 0x120 DUP5 ADD MSTORE AND PUSH2 0x140 DUP3 ADD MSTORE ADD SWAP1 PUSH2 0x3626 JUMP JUMPDEST ISZERO PUSH2 0x38EA JUMPI JUMP JUMPDEST PUSH1 0x64 PUSH1 0x40 MLOAD PUSH3 0x461BCD PUSH1 0xE5 SHL DUP2 MSTORE PUSH1 0x20 PUSH1 0x4 DUP3 ADD MSTORE PUSH1 0x12 PUSH1 0x24 DUP3 ADD MSTORE PUSH32 0x4F4E4C595F544F504F535F4D414E414745520000000000000000000000000000 PUSH1 0x44 DUP3 ADD MSTORE REVERT JUMPDEST SWAP1 DUP2 PUSH1 0x20 SWAP2 SUB SLT PUSH2 0x22E9 JUMPI MLOAD DUP1 ISZERO ISZERO DUP2 SUB PUSH2 0x22E9 JUMPI SWAP1 JUMP JUMPDEST CALLDATALOAD PUSH1 0x1 PUSH1 0x1 PUSH1 0xA0 SHL SUB DUP2 AND DUP2 SUB PUSH2 0x22E9 JUMPI SWAP1 JUMP JUMPDEST ISZERO PUSH2 0x3961 JUMPI JUMP JUMPDEST PUSH1 0x64 PUSH1 0x40 MLOAD PUSH3 0x461BCD PUSH1 0xE5 SHL DUP2 MSTORE PUSH1 0x20 PUSH1 0x4 DUP3 ADD MSTORE PUSH1 0x7 PUSH1 0x24 DUP3 ADD MSTORE PUSH32 0x6164647265737300000000000000000000000000000000000000000000000000 PUSH1 0x44 DUP3 ADD MSTORE REVERT JUMPDEST PUSH1 0x20 SWAP2 SWAP3 DUP4 PUSH1 0x40 MLOAD SWAP5 DUP6 SWAP4 DUP5 CALLDATACOPY DUP3 ADD SWAP1 DUP2 MSTORE SUB ADD SWAP1 KECCAK256 SWAP1 JUMP JUMPDEST ISZERO PUSH2 0x39C5 JUMPI JUMP JUMPDEST PUSH1 0x64 PUSH1 0x40 MLOAD PUSH3 0x461BCD PUSH1 0xE5 SHL DUP2 MSTORE PUSH1 0x20 PUSH1 0x4 DUP3 ADD MSTORE PUSH1 0x6 PUSH1 0x24 DUP3 ADD MSTORE PUSH32 0x7374617475730000000000000000000000000000000000000000000000000000 PUSH1 0x44 DUP3 ADD MSTORE REVERT JUMPDEST SWAP1 CALLDATALOAD SWAP1 PUSH1 0x1E NOT DUP2 CALLDATASIZE SUB ADD DUP3 SLT ISZERO PUSH2 0x22E9 JUMPI ADD DUP1 CALLDATALOAD SWAP1 PUSH8 0xFFFFFFFFFFFFFFFF DUP3 GT PUSH2 0x22E9 JUMPI PUSH1 0x20 ADD SWAP2 DUP2 CALLDATASIZE SUB DUP4 SGT PUSH2 0x22E9 JUMPI JUMP JUMPDEST SWAP1 PUSH1 0x1F DUP2 GT PUSH2 0x3A4A JUMPI POP POP POP JUMP JUMPDEST PUSH1 0x0 SWAP2 DUP3 MSTORE PUSH1 0x20 DUP3 KECCAK256 SWAP1 PUSH1 0x20 PUSH1 0x1F DUP6 ADD PUSH1 0x5 SHR DUP4 ADD SWAP5 LT PUSH2 0x3A86 JUMPI JUMPDEST PUSH1 0x1F ADD PUSH1 0x5 SHR ADD SWAP2 JUMPDEST DUP3 DUP2 LT PUSH2 0x3A7B JUMPI POP POP POP JUMP JUMPDEST DUP2 DUP2 SSTORE PUSH1 0x1 ADD PUSH2 0x3A6F JUMP JUMPDEST SWAP1 SWAP3 POP DUP3 SWAP1 PUSH2 0x3A66 JUMP JUMPDEST SWAP1 SWAP3 SWAP2 PUSH8 0xFFFFFFFFFFFFFFFF DUP2 GT PUSH2 0x506 JUMPI PUSH2 0x3AB6 DUP2 PUSH2 0x3AB0 DUP5 SLOAD PUSH2 0x3784 JUMP JUMPDEST DUP5 PUSH2 0x3A3C JUMP JUMPDEST PUSH1 0x0 PUSH1 0x1F DUP3 GT PUSH1 0x1 EQ PUSH2 0x3AF0 JUMPI DUP2 SWAP3 SWAP4 SWAP5 PUSH1 0x0 SWAP3 PUSH2 0x3AE5 JUMPI JUMPDEST POP POP DUP2 PUSH1 0x1 SHL SWAP2 PUSH1 0x0 NOT SWAP1 PUSH1 0x3 SHL SHR NOT AND OR SWAP1 SSTORE JUMP JUMPDEST ADD CALLDATALOAD SWAP1 POP CODESIZE DUP1 PUSH2 0x3ACF JUMP JUMPDEST PUSH1 0x1F NOT DUP3 AND SWAP5 DUP4 DUP3 MSTORE PUSH1 0x20 SWAP2 DUP3 DUP2 KECCAK256 SWAP3 DUP2 SWAP1 JUMPDEST DUP9 DUP3 LT PUSH2 0x3B3C JUMPI POP POP DUP4 PUSH1 0x1 SWAP6 SWAP7 SWAP8 LT PUSH2 0x3B22 JUMPI JUMPDEST POP POP POP DUP2 SHL ADD SWAP1 SSTORE JUMP JUMPDEST ADD CALLDATALOAD PUSH1 0x0 NOT PUSH1 0x3 DUP5 SWAP1 SHL PUSH1 0xF8 AND SHR NOT AND SWAP1 SSTORE CODESIZE DUP1 DUP1 PUSH2 0x3B18 JUMP JUMPDEST DUP1 PUSH1 0x1 DUP5 SWAP7 DUP3 SWAP5 SWAP6 DUP8 ADD CALLDATALOAD DUP2 SSTORE ADD SWAP6 ADD SWAP3 ADD SWAP1 PUSH2 0x3B03 JUMP JUMPDEST CALLDATALOAD PUSH1 0xFF DUP2 AND DUP2 SUB PUSH2 0x22E9 JUMPI SWAP1 JUMP JUMPDEST SWAP1 PUSH1 0x6 DUP2 LT ISZERO PUSH2 0x3633 JUMPI PUSH1 0xFF PUSH1 0xA8 SHL NOT PUSH1 0xFF PUSH1 0xA8 SHL DUP4 SLOAD SWAP3 PUSH1 0xA8 SHL AND SWAP2 AND OR SWAP1 SSTORE JUMP JUMPDEST SWAP1 DUP1 DUP3 EQ PUSH2 0x3C5E JUMPI PUSH2 0x3B97 DUP2 SLOAD PUSH2 0x3784 JUMP JUMPDEST SWAP1 PUSH8 0xFFFFFFFFFFFFFFFF DUP3 GT PUSH2 0x506 JUMPI DUP2 SWAP1 PUSH2 0x3BBD DUP3 PUSH2 0x3BB7 DUP7 SLOAD PUSH2 0x3784 JUMP JUMPDEST DUP7 PUSH2 0x3A3C JUMP JUMPDEST PUSH1 0x0 SWAP1 PUSH1 0x1F DUP4 GT PUSH1 0x1 EQ PUSH2 0x3BF3 JUMPI PUSH1 0x0 SWAP3 PUSH2 0x3BE8 JUMPI POP POP DUP2 PUSH1 0x1 SHL SWAP2 PUSH1 0x0 NOT SWAP1 PUSH1 0x3 SHL SHR NOT AND OR SWAP1 SSTORE JUMP JUMPDEST ADD SLOAD SWAP1 POP CODESIZE DUP1 PUSH2 0x3ACF JUMP JUMPDEST DUP2 MSTORE PUSH1 0x20 DUP1 DUP3 KECCAK256 DUP6 DUP4 MSTORE DUP2 DUP4 KECCAK256 SWAP4 POP SWAP1 PUSH1 0x1F NOT DUP6 AND SWAP1 DUP4 SWAP1 JUMPDEST DUP3 DUP3 LT PUSH2 0x3C45 JUMPI POP POP SWAP1 DUP5 PUSH1 0x1 SWAP6 SWAP5 SWAP4 SWAP3 LT PUSH2 0x3C2C JUMPI POP POP POP DUP2 SHL ADD SWAP1 SSTORE JUMP JUMPDEST ADD SLOAD PUSH1 0x0 NOT PUSH1 0xF8 DUP5 PUSH1 0x3 SHL AND SHR NOT AND SWAP1 SSTORE CODESIZE DUP1 DUP1 PUSH2 0x3B18 JUMP JUMPDEST DUP5 SWAP6 DUP2 SWAP3 SWAP6 DUP6 ADD SLOAD DUP2 SSTORE PUSH1 0x1 DUP1 SWAP2 ADD SWAP7 ADD SWAP5 ADD SWAP1 PUSH2 0x3C0C JUMP JUMPDEST POP POP JUMP JUMPDEST SWAP1 DUP1 PUSH1 0x20 SWAP4 SWAP3 DUP2 DUP5 MSTORE DUP5 DUP5 ADD CALLDATACOPY PUSH1 0x0 DUP3 DUP3 ADD DUP5 ADD MSTORE PUSH1 0x1F ADD PUSH1 0x1F NOT AND ADD ADD SWAP1 JUMP JUMPDEST SWAP1 CALLDATALOAD PUSH1 0x1E NOT DUP3 CALLDATASIZE SUB ADD DUP2 SLT ISZERO PUSH2 0x22E9 JUMPI ADD PUSH1 0x20 DUP2 CALLDATALOAD SWAP2 ADD SWAP2 PUSH8 0xFFFFFFFFFFFFFFFF DUP3 GT PUSH2 0x22E9 JUMPI DUP2 CALLDATASIZE SUB DUP4 SGT PUSH2 0x22E9 JUMPI JUMP JUMPDEST SWAP2 SWAP1 DUP3 ADD DUP1 SWAP3 GT PUSH2 0x3CC2 JUMPI JUMP JUMPDEST PUSH4 0x4E487B71 PUSH1 0xE0 SHL PUSH1 0x0 MSTORE PUSH1 0x11 PUSH1 0x4 MSTORE PUSH1 0x24 PUSH1 0x0 REVERT JUMPDEST PUSH8 0xFFFFFFFFFFFFFFFF DUP2 GT PUSH2 0x506 JUMPI PUSH1 0x5 SHL PUSH1 0x20 ADD SWAP1 JUMP JUMPDEST DUP1 SLOAD PUSH1 0x1 PUSH1 0x40 SHL DUP2 LT ISZERO PUSH2 0x506 JUMPI PUSH2 0x3D0D SWAP2 PUSH1 0x1 DUP3 ADD DUP2 SSTORE PUSH2 0x36F5 JUMP JUMPDEST PUSH2 0x17D0 JUMPI PUSH2 0x1A0 PUSH1 0xB PUSH1 0xFF SWAP3 PUSH1 0x1 PUSH1 0x1 PUSH1 0xA0 SHL SUB DUP1 DUP7 MLOAD AND PUSH1 0x1 PUSH1 0x1 PUSH1 0xA0 SHL SUB NOT SWAP1 DUP2 DUP5 SLOAD AND OR DUP4 SSTORE PUSH1 0x1 DUP4 ADD DUP3 PUSH1 0x20 DUP10 ADD MLOAD AND DUP3 DUP3 SLOAD AND OR SWAP1 SSTORE PUSH1 0x2 DUP4 ADD DUP3 PUSH1 0x40 DUP10 ADD MLOAD AND DUP3 DUP3 SLOAD AND OR DUP2 SSTORE PUSH2 0x3D7F DUP8 PUSH1 0x60 DUP11 ADD MLOAD AND DUP3 SWAP1 PUSH1 0xFF PUSH1 0xA0 SHL NOT PUSH1 0xFF PUSH1 0xA0 SHL DUP4 SLOAD SWAP3 PUSH1 0xA0 SHL AND SWAP2 AND OR SWAP1 SSTORE JUMP JUMPDEST PUSH1 0x80 DUP9 ADD MLOAD PUSH1 0xFF PUSH1 0xA8 SHL NOT PUSH1 0xFF PUSH1 0xA8 SHL DUP4 SLOAD SWAP3 PUSH1 0xA8 SHL AND SWAP2 AND OR SWAP1 SSTORE PUSH1 0xA0 DUP8 ADD MLOAD PUSH1 0x3 DUP5 ADD SSTORE PUSH1 0xC0 DUP8 ADD MLOAD PUSH1 0x4 DUP5 ADD SSTORE PUSH1 0x5 DUP4 ADD SWAP2 PUSH1 0xE0 DUP9 ADD MLOAD AND SWAP1 DUP3 SLOAD AND OR SWAP1 SSTORE PUSH2 0x100 DUP6 ADD MLOAD PUSH1 0x6 DUP3 ADD SSTORE PUSH2 0x120 DUP6 ADD MLOAD PUSH1 0x7 DUP3 ADD SSTORE PUSH2 0x140 DUP6 ADD MLOAD PUSH1 0x8 DUP3 ADD SSTORE PUSH2 0x160 DUP6 ADD MLOAD PUSH1 0x9 DUP3 ADD SSTORE PUSH2 0x180 DUP6 ADD MLOAD PUSH1 0xA DUP3 ADD SSTORE ADD SWAP3 ADD MLOAD AND PUSH1 0xFF NOT DUP3 SLOAD AND OR SWAP1 SSTORE JUMP JUMPDEST SWAP1 PUSH1 0x40 MLOAD PUSH2 0x3E15 DUP2 PUSH2 0x3425 JUMP JUMPDEST PUSH1 0xFF DUP2 SWAP4 PUSH2 0x3E22 DUP2 PUSH2 0x37BE JUMP JUMPDEST DUP4 MSTORE PUSH2 0x3E30 PUSH1 0x1 DUP3 ADD PUSH2 0x37BE JUMP JUMPDEST PUSH1 0x20 DUP5 ADD MSTORE PUSH1 0x9 PUSH1 0x1 PUSH1 0x1 PUSH1 0xA0 SHL SUB SWAP2 DUP3 PUSH1 0x2 DUP3 ADD SLOAD AND PUSH1 0x40 DUP7 ADD MSTORE PUSH1 0x3 DUP2 ADD SLOAD PUSH1 0x60 DUP7 ADD MSTORE PUSH1 0x4 DUP2 ADD SLOAD PUSH1 0x80 DUP7 ADD MSTORE PUSH1 0x5 DUP2 ADD SLOAD PUSH1 0xA0 DUP7 ADD MSTORE PUSH1 0x6 DUP2 ADD SLOAD PUSH1 0xC0 DUP7 ADD MSTORE PUSH1 0x7 DUP2 ADD SLOAD PUSH1 0xE0 DUP7 ADD MSTORE PUSH1 0x8 DUP2 ADD SLOAD PUSH2 0x100 DUP7 ADD MSTORE ADD SLOAD SWAP1 DUP2 AND PUSH2 0x120 DUP5 ADD MSTORE DUP2 DUP2 PUSH1 0xA0 SHR AND PUSH2 0x140 DUP5 ADD MSTORE PUSH1 0xA8 SHR AND SWAP1 PUSH1 0x6 DUP3 LT ISZERO PUSH2 0x3633 JUMPI PUSH2 0x160 ADD MSTORE JUMP INVALID LOG2 PUSH5 0x6970667358 0x22 SLT KECCAK256 BASEFEE XOR JUMP 0xE ADD 0xE4 SWAP9 PUSH21 0xEDBB7BC240A95564E6296A76C8245B3F38575EF3CB MOD 0xAB 0xFB PUSH5 0x736F6C6343 STOP ADDMOD SGT STOP CALLER "},"methodIdentifiers":{"amountInvested(address,string)":"041e9b89","approveDeal(string)":"48f92ee8","bondCallContract()":"5e43522e","dealBondContracts(string)":"fe0ab4b3","dealFees()":"af9080f8","dealInvestment(string,uint256)":"499fa18a","deals(string)":"a0a57dac","endSwapContract(address)":"b83c7fba","getBenchmark()":"79a94569","getContracts()":"c3a2a93a","getDeal(string)":"e7079180","getDealBondContract(string)":"2f667910","getDealFees()":"ff6689d0","getDealInvestment(string)":"c8d7f62e","getIRSContract(address,address)":"fe3b85b7","getIssuerIRS(address)":"0dd3d9a4","getListOfBonds()":"f3413c4f","getListOfBondsDealIDs()":"281ddc8e","getListOfDeals()":"36f9c4da","getListOfIRS()":"234b153f","getTotalAmounInvested(string)":"605936ea","identityRegistryContract()":"088674e0","irsCallContract()":"7af4d652","issue(string,(string,string,string,address,uint256,uint256,uint256,uint8,uint256,uint256,uint256),address)":"507251cb","issuerDeals(address,uint256)":"49f5d1d9","issuerIRS(address,uint256)":"3bbada46","issuersFundContract()":"fb90e441","redeem(string,address)":"d7c4029c","registerForDeal(string,uint256)":"0df8bfda","rejectDeal(string)":"754f399a","rolesContract()":"ca53b391","setBenchmark(uint256)":"68a2da51","setBondContractAddress(string,address)":"1882c195","setIRSBenchmark(uint256,address)":"9f0d8d2a","setIRSContractAddress(address,address,address,(address,address,address,uint8,uint8,uint256,uint256,address,uint256,uint256,uint256,uint256,uint256,uint8))":"2e55f487","setIssuerFundContract(address)":"7bafe3d0","setManager(address)":"d0ebdbe7","submitDeal(string,(string,string,address,uint256,uint256,uint256,uint256,uint256,uint256,address,uint8,uint8))":"19662d8e","swapIRS(address)":"3887bdcf","toposManager()":"7f31ed73","totalAmountInvestedForDeal(string)":"5ed7e2c1","withdrawIssuerFund(string)":"1b59122c"}}}}}