{"contracts/Topos/Bank/ToposBank.sol":{"ToposBank":{"abi":[{"inputs":[{"internalType":"address","name":"_toposManager","type":"address"},{"internalType":"address","name":"_rolesContract","type":"address"},{"internalType":"address","name":"_identityRegistryContract","type":"address"},{"internalType":"address","name":"_bondCallContract","type":"address"},{"internalType":"address","name":"_irsCallContract","type":"address"},{"internalType":"uint256","name":"_dealFees","type":"uint256"}],"stateMutability":"nonpayable","type":"constructor"},{"inputs":[{"internalType":"uint256","name":"amount","type":"uint256"}],"name":"InvalidAmount","type":"error"},{"inputs":[{"internalType":"string","name":"dealID","type":"string"}],"name":"InvalidDealStatus","type":"error"},{"anonymous":false,"inputs":[{"indexed":false,"internalType":"string","name":"_dealID","type":"string"}],"name":"BondIssue","type":"event"},{"anonymous":false,"inputs":[{"indexed":false,"internalType":"string","name":"_dealID","type":"string"}],"name":"BondRedeem","type":"event"},{"anonymous":false,"inputs":[{"indexed":false,"internalType":"string","name":"dealID","type":"string"}],"name":"DealAPproved","type":"event"},{"anonymous":false,"inputs":[{"indexed":false,"internalType":"string","name":"dealID","type":"string"}],"name":"DealARejected","type":"event"},{"anonymous":false,"inputs":[{"indexed":false,"internalType":"string","name":"dealID","type":"string"},{"components":[{"internalType":"string","name":"dealID","type":"string"},{"internalType":"string","name":"prospectusURI","type":"string"},{"internalType":"address","name":"issuerAddress","type":"address"},{"internalType":"uint256","name":"debtAmount","type":"uint256"},{"internalType":"uint256","name":"denomination","type":"uint256"},{"internalType":"uint256","name":"couponRate","type":"uint256"},{"internalType":"uint256","name":"couponFrequency","type":"uint256"},{"internalType":"uint256","name":"maturityDate","type":"uint256"},{"internalType":"uint256","name":"index","type":"uint256"},{"internalType":"address","name":"currency","type":"address"},{"internalType":"uint8","name":"couponType","type":"uint8"},{"internalType":"enum BondData.DealStatus","name":"status","type":"uint8"}],"indexed":false,"internalType":"struct BondData.Deal","name":"deal","type":"tuple"}],"name":"DealSubmitted","type":"event"},{"anonymous":false,"inputs":[{"indexed":false,"internalType":"string","name":"dealID","type":"string"},{"indexed":false,"internalType":"address","name":"investor","type":"address"}],"name":"RegisterForDeal","type":"event"},{"inputs":[{"internalType":"address","name":"","type":"address"},{"internalType":"string","name":"","type":"string"}],"name":"amountInvested","outputs":[{"internalType":"uint256","name":"amount","type":"uint256"},{"internalType":"bool","name":"hasInvested","type":"bool"},{"internalType":"uint256","name":"index","type":"uint256"}],"stateMutability":"view","type":"function"},{"inputs":[{"internalType":"string","name":"_dealID","type":"string"}],"name":"approveDeal","outputs":[],"stateMutability":"nonpayable","type":"function"},{"inputs":[],"name":"bondCallContract","outputs":[{"internalType":"address","name":"","type":"address"}],"stateMutability":"view","type":"function"},{"inputs":[{"internalType":"string","name":"","type":"string"}],"name":"dealBondContracts","outputs":[{"internalType":"address","name":"","type":"address"}],"stateMutability":"view","type":"function"},{"inputs":[],"name":"dealFees","outputs":[{"internalType":"uint256","name":"","type":"uint256"}],"stateMutability":"view","type":"function"},{"inputs":[{"internalType":"string","name":"","type":"string"},{"internalType":"uint256","name":"","type":"uint256"}],"name":"dealInvestment","outputs":[{"internalType":"address","name":"investor","type":"address"},{"internalType":"uint256","name":"amount","type":"uint256"}],"stateMutability":"view","type":"function"},{"inputs":[{"internalType":"string","name":"","type":"string"}],"name":"deals","outputs":[{"internalType":"string","name":"dealID","type":"string"},{"internalType":"string","name":"prospectusURI","type":"string"},{"internalType":"address","name":"issuerAddress","type":"address"},{"internalType":"uint256","name":"debtAmount","type":"uint256"},{"internalType":"uint256","name":"denomination","type":"uint256"},{"internalType":"uint256","name":"couponRate","type":"uint256"},{"internalType":"uint256","name":"couponFrequency","type":"uint256"},{"internalType":"uint256","name":"maturityDate","type":"uint256"},{"internalType":"uint256","name":"index","type":"uint256"},{"internalType":"address","name":"currency","type":"address"},{"internalType":"uint8","name":"couponType","type":"uint8"},{"internalType":"enum BondData.DealStatus","name":"status","type":"uint8"}],"stateMutability":"view","type":"function"},{"inputs":[{"internalType":"address","name":"_swapContract","type":"address"}],"name":"endSwapContract","outputs":[],"stateMutability":"nonpayable","type":"function"},{"inputs":[],"name":"getContracts","outputs":[{"internalType":"address","name":"manager","type":"address"},{"internalType":"address","name":"roles","type":"address"},{"internalType":"address","name":"identityRegistry","type":"address"},{"internalType":"address","name":"bondCall","type":"address"},{"internalType":"address","name":"issuerFund","type":"address"}],"stateMutability":"view","type":"function"},{"inputs":[{"internalType":"string","name":"_dealID","type":"string"}],"name":"getDeal","outputs":[{"components":[{"internalType":"string","name":"dealID","type":"string"},{"internalType":"string","name":"prospectusURI","type":"string"},{"internalType":"address","name":"issuerAddress","type":"address"},{"internalType":"uint256","name":"debtAmount","type":"uint256"},{"internalType":"uint256","name":"denomination","type":"uint256"},{"internalType":"uint256","name":"couponRate","type":"uint256"},{"internalType":"uint256","name":"couponFrequency","type":"uint256"},{"internalType":"uint256","name":"maturityDate","type":"uint256"},{"internalType":"uint256","name":"index","type":"uint256"},{"internalType":"address","name":"currency","type":"address"},{"internalType":"uint8","name":"couponType","type":"uint8"},{"internalType":"enum BondData.DealStatus","name":"status","type":"uint8"}],"internalType":"struct BondData.Deal","name":"","type":"tuple"}],"stateMutability":"view","type":"function"},{"inputs":[{"internalType":"string","name":"_dealID","type":"string"}],"name":"getDealBondContract","outputs":[{"internalType":"address","name":"","type":"address"}],"stateMutability":"view","type":"function"},{"inputs":[],"name":"getDealFees","outputs":[{"internalType":"uint256","name":"","type":"uint256"}],"stateMutability":"view","type":"function"},{"inputs":[{"internalType":"string","name":"_dealID","type":"string"}],"name":"getDealInvestment","outputs":[{"components":[{"internalType":"address","name":"investor","type":"address"},{"internalType":"uint256","name":"amount","type":"uint256"}],"internalType":"struct BondData.DealInvestment[]","name":"","type":"tuple[]"}],"stateMutability":"view","type":"function"},{"inputs":[],"name":"getListOfBonds","outputs":[{"components":[{"internalType":"string","name":"isin","type":"string"},{"internalType":"string","name":"name","type":"string"},{"internalType":"string","name":"symbol","type":"string"},{"internalType":"address","name":"currency","type":"address"},{"internalType":"uint256","name":"denomination","type":"uint256"},{"internalType":"uint256","name":"issueVolume","type":"uint256"},{"internalType":"uint256","name":"couponRate","type":"uint256"},{"internalType":"uint8","name":"couponType","type":"uint8"},{"internalType":"uint256","name":"couponFrequency","type":"uint256"},{"internalType":"uint256","name":"issueDate","type":"uint256"},{"internalType":"uint256","name":"maturityDate","type":"uint256"}],"internalType":"struct BondData.Bond[]","name":"","type":"tuple[]"}],"stateMutability":"view","type":"function"},{"inputs":[],"name":"getListOfBondsDealIDs","outputs":[{"internalType":"string[]","name":"","type":"string[]"}],"stateMutability":"view","type":"function"},{"inputs":[],"name":"getListOfDeals","outputs":[{"components":[{"internalType":"string","name":"dealID","type":"string"},{"internalType":"string","name":"prospectusURI","type":"string"},{"internalType":"address","name":"issuerAddress","type":"address"},{"internalType":"uint256","name":"debtAmount","type":"uint256"},{"internalType":"uint256","name":"denomination","type":"uint256"},{"internalType":"uint256","name":"couponRate","type":"uint256"},{"internalType":"uint256","name":"couponFrequency","type":"uint256"},{"internalType":"uint256","name":"maturityDate","type":"uint256"},{"internalType":"uint256","name":"index","type":"uint256"},{"internalType":"address","name":"currency","type":"address"},{"internalType":"uint8","name":"couponType","type":"uint8"},{"internalType":"enum BondData.DealStatus","name":"status","type":"uint8"}],"internalType":"struct BondData.Deal[]","name":"","type":"tuple[]"}],"stateMutability":"view","type":"function"},{"inputs":[{"internalType":"string","name":"_dealID","type":"string"}],"name":"getTotalAmounInvested","outputs":[{"internalType":"uint256","name":"","type":"uint256"}],"stateMutability":"view","type":"function"},{"inputs":[],"name":"identityRegistryContract","outputs":[{"internalType":"address","name":"","type":"address"}],"stateMutability":"view","type":"function"},{"inputs":[],"name":"irsCallContract","outputs":[{"internalType":"address","name":"","type":"address"}],"stateMutability":"view","type":"function"},{"inputs":[{"internalType":"string","name":"_dealID","type":"string"},{"components":[{"internalType":"string","name":"isin","type":"string"},{"internalType":"string","name":"name","type":"string"},{"internalType":"string","name":"symbol","type":"string"},{"internalType":"address","name":"currency","type":"address"},{"internalType":"uint256","name":"denomination","type":"uint256"},{"internalType":"uint256","name":"issueVolume","type":"uint256"},{"internalType":"uint256","name":"couponRate","type":"uint256"},{"internalType":"uint8","name":"couponType","type":"uint8"},{"internalType":"uint256","name":"couponFrequency","type":"uint256"},{"internalType":"uint256","name":"issueDate","type":"uint256"},{"internalType":"uint256","name":"maturityDate","type":"uint256"}],"internalType":"struct BondData.Bond","name":"_bond","type":"tuple"},{"internalType":"address","name":"_bondContract","type":"address"}],"name":"issue","outputs":[],"stateMutability":"nonpayable","type":"function"},{"inputs":[{"internalType":"address","name":"","type":"address"},{"internalType":"uint256","name":"","type":"uint256"}],"name":"issuerDeals","outputs":[{"internalType":"string","name":"dealID","type":"string"},{"internalType":"string","name":"prospectusURI","type":"string"},{"internalType":"address","name":"issuerAddress","type":"address"},{"internalType":"uint256","name":"debtAmount","type":"uint256"},{"internalType":"uint256","name":"denomination","type":"uint256"},{"internalType":"uint256","name":"couponRate","type":"uint256"},{"internalType":"uint256","name":"couponFrequency","type":"uint256"},{"internalType":"uint256","name":"maturityDate","type":"uint256"},{"internalType":"uint256","name":"index","type":"uint256"},{"internalType":"address","name":"currency","type":"address"},{"internalType":"uint8","name":"couponType","type":"uint8"},{"internalType":"enum BondData.DealStatus","name":"status","type":"uint8"}],"stateMutability":"view","type":"function"},{"inputs":[],"name":"issuersFundContract","outputs":[{"internalType":"address","name":"","type":"address"}],"stateMutability":"view","type":"function"},{"inputs":[{"internalType":"string","name":"_dealID","type":"string"},{"internalType":"address","name":"_bondContract","type":"address"}],"name":"redeem","outputs":[],"stateMutability":"nonpayable","type":"function"},{"inputs":[{"internalType":"string","name":"_dealID","type":"string"},{"internalType":"uint256","name":"_amount","type":"uint256"}],"name":"registerForDeal","outputs":[],"stateMutability":"nonpayable","type":"function"},{"inputs":[{"internalType":"string","name":"_dealID","type":"string"}],"name":"rejectDeal","outputs":[],"stateMutability":"nonpayable","type":"function"},{"inputs":[],"name":"rolesContract","outputs":[{"internalType":"address","name":"","type":"address"}],"stateMutability":"view","type":"function"},{"inputs":[{"internalType":"string","name":"_dealID","type":"string"},{"internalType":"address","name":"_bondContractAddress","type":"address"}],"name":"setBondContractAddress","outputs":[],"stateMutability":"nonpayable","type":"function"},{"inputs":[{"internalType":"uint256","name":"_newBenchmark","type":"uint256"},{"internalType":"address","name":"_swapContract","type":"address"}],"name":"setIRSBenchmark","outputs":[],"stateMutability":"nonpayable","type":"function"},{"inputs":[{"internalType":"address","name":"_fixedPayerContract","type":"address"},{"internalType":"address","name":"_floatingPayerContract","type":"address"},{"internalType":"address","name":"_irsContractAddress","type":"address"}],"name":"setIRSContractAddress","outputs":[],"stateMutability":"nonpayable","type":"function"},{"inputs":[{"internalType":"address","name":"_issuerFundContract","type":"address"}],"name":"setIssuerFundContract","outputs":[],"stateMutability":"nonpayable","type":"function"},{"inputs":[{"internalType":"address","name":"_toposManager","type":"address"}],"name":"setManager","outputs":[],"stateMutability":"nonpayable","type":"function"},{"inputs":[{"internalType":"string","name":"_dealID","type":"string"},{"components":[{"internalType":"string","name":"dealID","type":"string"},{"internalType":"string","name":"prospectusURI","type":"string"},{"internalType":"address","name":"issuerAddress","type":"address"},{"internalType":"uint256","name":"debtAmount","type":"uint256"},{"internalType":"uint256","name":"denomination","type":"uint256"},{"internalType":"uint256","name":"couponRate","type":"uint256"},{"internalType":"uint256","name":"couponFrequency","type":"uint256"},{"internalType":"uint256","name":"maturityDate","type":"uint256"},{"internalType":"uint256","name":"index","type":"uint256"},{"internalType":"address","name":"currency","type":"address"},{"internalType":"uint8","name":"couponType","type":"uint8"},{"internalType":"enum BondData.DealStatus","name":"status","type":"uint8"}],"internalType":"struct BondData.Deal","name":"_deal","type":"tuple"}],"name":"submitDeal","outputs":[],"stateMutability":"nonpayable","type":"function"},{"inputs":[{"internalType":"address","name":"_swapContract","type":"address"}],"name":"swapIRS","outputs":[],"stateMutability":"nonpayable","type":"function"},{"inputs":[],"name":"toposManager","outputs":[{"internalType":"address","name":"","type":"address"}],"stateMutability":"view","type":"function"},{"inputs":[{"internalType":"string","name":"","type":"string"}],"name":"totalAmountInvestedForDeal","outputs":[{"internalType":"uint256","name":"","type":"uint256"}],"stateMutability":"view","type":"function"},{"inputs":[{"internalType":"string","name":"_dealID","type":"string"}],"name":"withdrawIssuerFund","outputs":[],"stateMutability":"nonpayable","type":"function"}],"evm":{"bytecode":{"linkReferences":{},"object":"60806040523480156200001157600080fd5b5060405162004100380380620041008339810160408190526200003491620000b8565b600780546001600160a01b03199081166001600160a01b03988916179091556008805482169688169690961790955560098054861694871694909417909355600a8054851692861692909217909155600b80549093169316929092179055600d5562000130565b80516001600160a01b0381168114620000b357600080fd5b919050565b60008060008060008060c08789031215620000d257600080fd5b620000dd876200009b565b9550620000ed602088016200009b565b9450620000fd604088016200009b565b93506200010d606088016200009b565b92506200011d608088016200009b565b915060a087015190509295509295509295565b613fc080620001406000396000f3fe608060405234801561001057600080fd5b506004361061025c5760003560e01c80637af4d65211610145578063ca53b391116100bd578063f3413c4f1161008c578063fe0ab4b311610071578063fe0ab4b3146105f3578063feb45fa614610627578063ff6689d01461067257600080fd5b8063f3413c4f146105cb578063fb90e441146105e057600080fd5b8063ca53b39114610572578063d0ebdbe714610585578063d7c4029c14610598578063e7079180146105ab57600080fd5b8063a0a57dac11610114578063b83c7fba116100f9578063b83c7fba146104f5578063c3a2a93a14610508578063c8d7f62e1461055257600080fd5b8063a0a57dac146104d9578063af9080f8146104ec57600080fd5b80637af4d6521461048d5780637bafe3d0146104a05780637f31ed73146104b35780639f0d8d2a146104c657600080fd5b80633887bdcf116101d8578063507251cb116101a75780635ed7e2c11161018c5780635ed7e2c11461042e578063605936ea14610467578063754f399a1461047a57600080fd5b8063507251cb146104085780635e43522e1461041b57600080fd5b80633887bdcf1461038557806348f92ee814610398578063499fa18a146103ab57806349f5d1d9146103dd57600080fd5b806319662d8e1161022f578063281ddc8e11610214578063281ddc8e146103485780632f6679101461035d57806336f9c4da1461037057600080fd5b806319662d8e146103225780631b59122c1461033557600080fd5b8063041e9b8914610261578063088674e0146102cf5780630df8bfda146102fa5780631882c1951461030f575b600080fd5b6102af61026f366004612e53565b60056020908152600092835260409092208151808301840180519281529084019290930191909120915280546001820154600290920154909160ff169083565b604080519384529115156020840152908201526060015b60405180910390f35b6009546102e2906001600160a01b031681565b6040516001600160a01b0390911681526020016102c6565b61030d610308366004612eec565b61067a565b005b61030d61031d366004612f38565b610d5a565b61030d610330366004612f8a565b610d9e565b61030d610343366004612ffb565b61115d565b61035061133a565b6040516102c69190613088565b6102e261036b366004612ffb565b611413565b610378611444565b6040516102c691906131f6565b61030d61039336600461324b565b611666565b61030d6103a636600461326f565b6116f0565b6103be6103b93660046132b1565b6118b0565b604080516001600160a01b0390931683526020830191909152016102c6565b6103f06103eb3660046132f6565b611905565b6040516102c69c9b9a99989796959493929190613322565b61030d6104163660046133b4565b611aae565b600a546102e2906001600160a01b031681565b61045961043c366004612ffb565b805160208183018101805160048252928201919093012091525481565b6040519081526020016102c6565b61045961047536600461326f565b611f02565b61030d61048836600461326f565b611f2e565b600b546102e2906001600160a01b031681565b61030d6104ae36600461324b565b6120e2565b6007546102e2906001600160a01b031681565b61030d6104d4366004613436565b612166565b6103f06104e7366004612ffb565b61222c565b610459600d5481565b61030d61050336600461324b565b612252565b600754600854600954600a54600c54604080516001600160a01b0396871681529486166020860152928516928401929092528316606083015291909116608082015260a0016102c6565b61056561056036600461326f565b6122dc565b6040516102c6919061345b565b6008546102e2906001600160a01b031681565b61030d61059336600461324b565b612372565b61030d6105a63660046134b3565b612442565b6105be6105b9366004612ffb565b612890565b6040516102c691906134ff565b6105d3612a92565b6040516102c69190613512565b600c546102e2906001600160a01b031681565b6102e2610601366004612ffb565b80516020818301810180516001825292820191909301209152546001600160a01b031681565b61030d61063536600461361a565b6001600160a01b03928316600090815260026020908152604080832094861683529390529190912080546001600160a01b03191691909216179055565b600d54610459565b6009546040517fb9209e330000000000000000000000000000000000000000000000000000000081523360048201819052916001600160a01b03169063b9209e3390602401602060405180830381865afa1580156106dc573d6000803e3d6000fd5b505050506040513d601f19601f82011682018060405250810190610700919061365a565b6107515760405162461bcd60e51b815260206004820152601460248201527f4143434f554e545f4e4f545f414150524f56454400000000000000000000000060448201526064015b60405180910390fd5b60026000858560405161076592919061367c565b9081526040519081900360200190206009015460ff600160a81b909104166005811115610794576107946130ea565b146107b6578383604051632dc5942160e21b81526004016107489291906136b5565b600084846040516107c892919061367c565b908152602001604051809103902060040154600085856040516107ec92919061367c565b9081526020016040518091039020600401548361080991906136df565b61081391906136f6565b1561084d576040517f3728b83d00000000000000000000000000000000000000000000000000000000815260048101839052602401610748565b81158015906108aa57506000848460405161086992919061367c565b9081526020016040518091039020600301546004858560405161088d92919061367c565b908152602001604051809103902054836108a79190613718565b11155b6108f65760405162461bcd60e51b815260206004820152600660248201527f616d6f756e7400000000000000000000000000000000000000000000000000006044820152606401610748565b816004858560405161090992919061367c565b9081526020016040518091039020546109229190613718565b6004858560405161093492919061367c565b9081526040805160209281900383018120939093553360009081526005909252902090610964908690869061367c565b9081526040519081900360200190206001015460ff1615610ab957336000908152600560205260409081902090518391906109a2908790879061367c565b908152604051908190036020019020546109bc9190613718565b600385856040516109ce92919061367c565b908152604080519182900360209081018320336000908152600590925291902090916109fd908890889061367c565b90815260200160405180910390206002015481548110610a1f57610a1f61372b565b9060005260206000209060020201600101819055508160056000336001600160a01b03166001600160a01b031681526020019081526020016000208585604051610a6a92919061367c565b90815260405190819003602001902054610a849190613718565b33600090815260056020526040908190209051610aa4908790879061367c565b90815260405190819003602001902055610bba565b604051806060016040528083815260200160011515815260200160038686604051610ae592919061367c565b90815260408051602092819003830190205490925233600090815260059091528190209051610b17908790879061367c565b9081526040805160209281900383018120845181559284015160018401805460ff1916911515919091179055920151600290910155600390610b5c908690869061367c565b90815260408051602092819003830181208183019092523381528281018581528254600180820185556000948552949093209151600290930290910180546001600160a01b0319166001600160a01b03909316929092178255519101555b600c546040517f925b7cb60000000000000000000000000000000000000000000000000000000081526001600160a01b039091169063925b7cb690610c0790879087908790600401613741565b600060405180830381600087803b158015610c2157600080fd5b505af1158015610c35573d6000803e3d6000fd5b5050505060008484604051610c4b92919061367c565b90815260405190819003602001902060090154600c546001600160a01b03918216916323b872dd91339116610c8886670de0b6b3a76400006136df565b6040517fffffffff0000000000000000000000000000000000000000000000000000000060e086901b1681526001600160a01b03938416600482015292909116602483015260448201526064016020604051808303816000875af1158015610cf4573d6000803e3d6000fd5b505050506040513d601f19601f82011682018060405250810190610d18919061365a565b507f0bdaf52b4de514796607307fbbcf007ee6d59e81e1be436b67c5a567a2e8d121848433604051610d4c93929190613765565b60405180910390a150505050565b80600183604051610d6b9190613792565b90815260405190819003602001902080546001600160a01b03929092166001600160a01b03199092169190911790555050565b6008546040517f877b9a670000000000000000000000000000000000000000000000000000000081523360048201526001600160a01b039091169063877b9a6790602401602060405180830381865afa158015610dff573d6000803e3d6000fd5b505050506040513d601f19601f82011682018060405250810190610e23919061365a565b610e6f5760405162461bcd60e51b815260206004820152600a60248201527f6e6f7420697373756572000000000000000000000000000000000000000000006044820152606401610748565b610e7f606082016040830161324b565b6001600160a01b0316336001600160a01b031614610ec95760405162461bcd60e51b81526020600482015260076024820152666164647265737360c81b6044820152606401610748565b6000808484604051610edc92919061367c565b9081526040519081900360200190206009015460ff600160a81b909104166005811115610f0b57610f0b6130ea565b14610f415760405162461bcd60e51b815260206004820152600660248201526573746174757360d01b6044820152606401610748565b8060008484604051610f5492919061367c565b908152604051908190036020019020610f6d82826139c9565b905050600160008484604051610f8492919061367c565b908152604051908190036020019020600901805460ff60a81b1916600160a81b836005811115610fb657610fb66130ea565b0217905550600f54604051600090610fd1908690869061367c565b908152602001604051809103902060080181905550600f60008484604051610ffa92919061367c565b908152604051602091819003820190208254600181018455600093845291909220600a909102018061102c8382613b07565b5060018181019061103f90840182613b07565b5060028281015490820180546001600160a01b039283166001600160a01b0319918216179091556003808501549084015560048085015490840155600580850154818501556006808601549085015560078086015490850155600880860154908501556009808601805491860180549290951693821684178555805474ffffffffffffffffffffffffffffffffffffffffff19909216909317600160a01b9182900460ff908116909202178085559254600160a81b90819004909116939260ff60a81b1916918490811115611116576111166130ea565b021790555050507febc5645d06a6c6900ffbabb37c6fc84326bd870990f736254f05abb3287ffd4183838360405161115093929190613c40565b60405180910390a1505050565b60008160405161116d9190613792565b90815260405190819003602001902060020154336001600160a01b0390911614806111a257506007546001600160a01b031633145b6111d85760405162461bcd60e51b81526020600482015260076024820152666164647265737360c81b6044820152606401610748565b60006001600160a01b03166000826040516111f39190613792565b908152604051908190036020019020600901546001600160a01b03160361125c5760405162461bcd60e51b815260206004820152600560248201527f746f6b656e0000000000000000000000000000000000000000000000000000006044820152606401610748565b600c546040516001600160a01b039091169063e04cd97f908390600090611284908390613792565b908152604051908190036020018120600201546001600160a01b0316906000906112af908790613792565b908152604051908190036020018120600901547fffffffff0000000000000000000000000000000000000000000000000000000060e086901b1682526113059392916001600160a01b0390911690600401613d52565b600060405180830381600087803b15801561131f57600080fd5b505af1158015611333573d6000803e3d6000fd5b5050505050565b60606010805480602002602001604051908101604052809291908181526020016000905b8282101561140a57838290600052602060002001805461137d906137f5565b80601f01602080910402602001604051908101604052809291908181526020018280546113a9906137f5565b80156113f65780601f106113cb576101008083540402835291602001916113f6565b820191906000526020600020905b8154815290600101906020018083116113d957829003601f168201915b50505050508152602001906001019061135e565b50505050905090565b60006001826040516114259190613792565b908152604051908190036020019020546001600160a01b031692915050565b6060600f805480602002602001604051908101604052809291908181526020016000905b8282101561140a57838290600052602060002090600a02016040518061018001604052908160008201805461149c906137f5565b80601f01602080910402602001604051908101604052809291908181526020018280546114c8906137f5565b80156115155780601f106114ea57610100808354040283529160200191611515565b820191906000526020600020905b8154815290600101906020018083116114f857829003601f168201915b5050505050815260200160018201805461152e906137f5565b80601f016020809104026020016040519081016040528092919081815260200182805461155a906137f5565b80156115a75780601f1061157c576101008083540402835291602001916115a7565b820191906000526020600020905b81548152906001019060200180831161158a57829003601f168201915b505050918352505060028201546001600160a01b03908116602083015260038301546040830152600483015460608301526005808401546080840152600684015460a0840152600784015460c0840152600884015460e0840152600984015491821661010084015260ff600160a01b8304811661012085015261014090930192600160a81b90920490911690811115611642576116426130ea565b6005811115611653576116536130ea565b8152505081526020019060010190611468565b6007546001600160a01b031633146116b55760405162461bcd60e51b815260206004820152601260248201527127a7262cafaa27a827a9afa6a0a720a3a2a960711b6044820152606401610748565b806001600160a01b0316638119c0656040518163ffffffff1660e01b8152600401600060405180830381600087803b15801561131f57600080fd5b6007546001600160a01b0316331461173f5760405162461bcd60e51b815260206004820152601260248201527127a7262cafaa27a827a9afa6a0a720a3a2a960711b6044820152606401610748565b60016000838360405161175392919061367c565b9081526040519081900360200190206009015460ff600160a81b909104166005811115611782576117826130ea565b146117b85760405162461bcd60e51b815260206004820152600660248201526573746174757360d01b6044820152606401610748565b6002600083836040516117cc92919061367c565b908152604051908190036020019020600901805460ff60a81b1916600160a81b8360058111156117fe576117fe6130ea565b02179055506002600f6000848460405161181992919061367c565b9081526020016040518091039020600801548154811061183b5761183b61372b565b600091825260209091206009600a9092020101805460ff60a81b1916600160a81b83600581111561186e5761186e6130ea565b02179055507f039501081328ffe3eb02459ad6f6e90b69e23ba1422b574ee84c1f52b2fc031082826040516118a49291906136b5565b60405180910390a15050565b815160208184018101805160038252928201918501919091209190528054829081106118db57600080fd5b6000918252602090912060029091020180546001909101546001600160a01b039091169250905082565b6006602052816000526040600020818154811061192157600080fd5b90600052602060002090600a020160009150915050806000018054611945906137f5565b80601f0160208091040260200160405190810160405280929190818152602001828054611971906137f5565b80156119be5780601f10611993576101008083540402835291602001916119be565b820191906000526020600020905b8154815290600101906020018083116119a157829003601f168201915b5050505050908060010180546119d3906137f5565b80601f01602080910402602001604051908101604052809291908181526020018280546119ff906137f5565b8015611a4c5780601f10611a2157610100808354040283529160200191611a4c565b820191906000526020600020905b815481529060010190602001808311611a2f57829003601f168201915b50505060028401546003850154600486015460058701546006880154600789015460088a01546009909a015498996001600160a01b0396871699959850939650919490939192919081169060ff600160a01b8204811691600160a81b9004168c565b6007546001600160a01b03163314611afd5760405162461bcd60e51b815260206004820152601260248201527127a7262cafaa27a827a9afa6a0a720a3a2a960711b6044820152606401610748565b600260008585604051611b1192919061367c565b9081526040519081900360200190206009015460ff600160a81b909104166005811115611b4057611b406130ea565b14611b62578383604051632dc5942160e21b81526004016107489291906136b5565b8060018585604051611b7592919061367c565b908152602001604051809103902060006101000a8154816001600160a01b0302191690836001600160a01b03160217905550600460008585604051611bbb92919061367c565b908152604051908190036020019020600901805460ff60a81b1916600160a81b836005811115611bed57611bed6130ea565b02179055506004600f60008686604051611c0892919061367c565b90815260200160405180910390206008015481548110611c2a57611c2a61372b565b600091825260209091206009600a9092020101805460ff60a81b1916600160a81b836005811115611c5d57611c5d6130ea565b021790555060066000808686604051611c7792919061367c565b9081526040805160209281900383019020600201546001600160a01b0316835290820192909252810160009081209151611cb4908790879061367c565b908152604051602091819003820190208254600181018455600093845291909220600a9091020180611ce68382613b07565b50600181810190611cf990840182613b07565b5060028281015490820180546001600160a01b039283166001600160a01b0319918216179091556003808501549084015560048085015490840155600580850154818501556006808601549085015560078086015490850155600880860154908501556009808601805491860180549290951693821684178555805474ffffffffffffffffffffffffffffffffffffffffff19909216909317600160a01b9182900460ff908116909202178085559254600160a81b90819004909116939260ff60a81b1916918490811115611dd057611dd06130ea565b021790555050601080546001810182556000919091527f1b6847dc741a1b0cd08d278845f9d819d87b734759afb55fe2de5cb82a9ae672019050611e1584868361387a565b506040517fd76805aa0000000000000000000000000000000000000000000000000000000081526001600160a01b0382169063d76805aa90611e5b908590600401613d85565b600060405180830381600087803b158015611e7557600080fd5b505af1158015611e89573d6000803e3d6000fd5b5050600e8054600181018255600091909152849250600b027fbb7b4a454dc3493923482f07822329ed19e8244eff582cc204f8554c3620c3fd019050611ecf8282613e89565b50507f44b55c2d9270546faf6ff2f0acac078011883b82782d9b08de2d3af4543c2b188484604051610d4c9291906136b5565b600060048383604051611f1692919061367c565b90815260200160405180910390205490505b92915050565b6007546001600160a01b03163314611f7d5760405162461bcd60e51b815260206004820152601260248201527127a7262cafaa27a827a9afa6a0a720a3a2a960711b6044820152606401610748565b600160008383604051611f9192919061367c565b9081526040519081900360200190206009015460ff600160a81b909104166005811115611fc057611fc06130ea565b14611ff65760405162461bcd60e51b815260206004820152600660248201526573746174757360d01b6044820152606401610748565b60036000838360405161200a92919061367c565b908152604051908190036020019020600901805460ff60a81b1916600160a81b83600581111561203c5761203c6130ea565b02179055506003600f6000848460405161205792919061367c565b908152602001604051809103902060080154815481106120795761207961372b565b600091825260209091206009600a9092020101805460ff60a81b1916600160a81b8360058111156120ac576120ac6130ea565b02179055507f735ccdd611541d36c82a3622baab7f58b8a0f5be664555b0d9c95ddde16096d382826040516118a49291906136b5565b6007546001600160a01b031633146121315760405162461bcd60e51b815260206004820152601260248201527127a7262cafaa27a827a9afa6a0a720a3a2a960711b6044820152606401610748565b6001600160a01b03811661214457600080fd5b600c80546001600160a01b0319166001600160a01b0392909216919091179055565b6007546001600160a01b031633146121b55760405162461bcd60e51b815260206004820152601260248201527127a7262cafaa27a827a9afa6a0a720a3a2a960711b6044820152606401610748565b6040517f68a2da51000000000000000000000000000000000000000000000000000000008152600481018390526001600160a01b038216906368a2da5190602401600060405180830381600087803b15801561221057600080fd5b505af1158015612224573d6000803e3d6000fd5b505050505050565b8051602081830181018051600082529282019190930120915280548190611945906137f5565b6007546001600160a01b031633146122a15760405162461bcd60e51b815260206004820152601260248201527127a7262cafaa27a827a9afa6a0a720a3a2a960711b6044820152606401610748565b806001600160a01b031663442447ca6040518163ffffffff1660e01b8152600401600060405180830381600087803b15801561131f57600080fd5b6060600383836040516122f092919061367c565b9081526020016040518091039020805480602002602001604051908101604052809291908181526020016000905b82821015612366576000848152602090819020604080518082019091526002850290910180546001600160a01b0316825260019081015482840152908352909201910161231e565b50505050905092915050565b6007546001600160a01b031633146123c15760405162461bcd60e51b815260206004820152601260248201527127a7262cafaa27a827a9afa6a0a720a3a2a960711b6044820152606401610748565b600854604080517fcfde18900000000000000000000000000000000000000000000000000000000081526004810191909152600760448201527f4d414e414745520000000000000000000000000000000000000000000000000060648201526001600160a01b0383811660248301529091169063cfde189090608401611305565b6007546001600160a01b031633146124915760405162461bcd60e51b815260206004820152601260248201527127a7262cafaa27a827a9afa6a0a720a3a2a960711b6044820152606401610748565b6004600084846040516124a592919061367c565b9081526040519081900360200190206009015460ff600160a81b9091041660058111156124d4576124d46130ea565b146124f6578282604051632dc5942160e21b81526004016107489291906136b5565b60056000848460405161250a92919061367c565b908152604051908190036020019020600901805460ff60a81b1916600160a81b83600581111561253c5761253c6130ea565b02179055506005600f6000858560405161255792919061367c565b908152602001604051809103902060080154815481106125795761257961372b565b600091825260209091206009600a9092020101805460ff60a81b1916600160a81b8360058111156125ac576125ac6130ea565b02179055506005600660008086866040516125c892919061367c565b9081526040805160209281900383019020600201546001600160a01b0316835290820192909252810160009081209151612605908790879061367c565b908152602001604051809103902060080154815481106126275761262761372b565b600091825260209091206009600a9092020101805460ff60a81b1916600160a81b83600581111561265a5761265a6130ea565b0217905550806001600160a01b031663be040fb06040518163ffffffff1660e01b8152600401600060405180830381600087803b15801561269a57600080fd5b505af11580156126ae573d6000803e3d6000fd5b5050505060005b600384846040516126c792919061367c565b9081526040519081900360200190205481101561285e576000600385856040516126f292919061367c565b908152602001604051809103902082815481106127115761271161372b565b906000526020600020906002020160010154905060006003868660405161273992919061367c565b908152602001604051809103902083815481106127585761275861372b565b60009182526020909120600290910201546001600160a01b031690508115612849576000868660405161278c92919061367c565b908152604051908190036020019020600901546001600160a01b031663a9059cbb826127c085670de0b6b3a76400006136df565b6040517fffffffff0000000000000000000000000000000000000000000000000000000060e085901b1681526001600160a01b03909216600483015260248201526044016020604051808303816000875af1158015612823573d6000803e3d6000fd5b505050506040513d601f19601f82011682018060405250810190612847919061365a565b505b5050808061285690613f71565b9150506126b5565b507fdfdf42ff0d0eb3e6ec5b40d8cf21fb2f7102b67e5e2d56ab36e817f807213c5b83836040516111509291906136b5565b612898612d02565b6000826040516128a89190613792565b9081526020016040518091039020604051806101800160405290816000820180546128d2906137f5565b80601f01602080910402602001604051908101604052809291908181526020018280546128fe906137f5565b801561294b5780601f106129205761010080835404028352916020019161294b565b820191906000526020600020905b81548152906001019060200180831161292e57829003601f168201915b50505050508152602001600182018054612964906137f5565b80601f0160208091040260200160405190810160405280929190818152602001828054612990906137f5565b80156129dd5780601f106129b2576101008083540402835291602001916129dd565b820191906000526020600020905b8154815290600101906020018083116129c057829003601f168201915b505050918352505060028201546001600160a01b03908116602083015260038301546040830152600483015460608301526005808401546080840152600684015460a0840152600784015460c0840152600884015460e0840152600984015491821661010084015260ff600160a01b8304811661012085015261014090930192600160a81b90920490911690811115612a7857612a786130ea565b6005811115612a8957612a896130ea565b90525092915050565b6060600e805480602002602001604051908101604052809291908181526020016000905b8282101561140a57838290600052602060002090600b020160405180610160016040529081600082018054612aea906137f5565b80601f0160208091040260200160405190810160405280929190818152602001828054612b16906137f5565b8015612b635780601f10612b3857610100808354040283529160200191612b63565b820191906000526020600020905b815481529060010190602001808311612b4657829003601f168201915b50505050508152602001600182018054612b7c906137f5565b80601f0160208091040260200160405190810160405280929190818152602001828054612ba8906137f5565b8015612bf55780601f10612bca57610100808354040283529160200191612bf5565b820191906000526020600020905b815481529060010190602001808311612bd857829003601f168201915b50505050508152602001600282018054612c0e906137f5565b80601f0160208091040260200160405190810160405280929190818152602001828054612c3a906137f5565b8015612c875780601f10612c5c57610100808354040283529160200191612c87565b820191906000526020600020905b815481529060010190602001808311612c6a57829003601f168201915b505050918352505060038201546001600160a01b0316602080830191909152600483015460408301526005830154606083015260068301546080830152600783015460ff1660a0830152600883015460c0830152600983015460e0830152600a90920154610100909101529082526001929092019101612ab6565b604051806101800160405280606081526020016060815260200160006001600160a01b0316815260200160008152602001600081526020016000815260200160008152602001600081526020016000815260200160006001600160a01b03168152602001600060ff16815260200160006005811115612d8357612d836130ea565b905290565b6001600160a01b0381168114612d9d57600080fd5b50565b8035612dab81612d88565b919050565b634e487b7160e01b600052604160045260246000fd5b600082601f830112612dd757600080fd5b813567ffffffffffffffff80821115612df257612df2612db0565b604051601f8301601f19908116603f01168101908282118183101715612e1a57612e1a612db0565b81604052838152866020858801011115612e3357600080fd5b836020870160208301376000602085830101528094505050505092915050565b60008060408385031215612e6657600080fd5b8235612e7181612d88565b9150602083013567ffffffffffffffff811115612e8d57600080fd5b612e9985828601612dc6565b9150509250929050565b60008083601f840112612eb557600080fd5b50813567ffffffffffffffff811115612ecd57600080fd5b602083019150836020828501011115612ee557600080fd5b9250929050565b600080600060408486031215612f0157600080fd5b833567ffffffffffffffff811115612f1857600080fd5b612f2486828701612ea3565b909790965060209590950135949350505050565b60008060408385031215612f4b57600080fd5b823567ffffffffffffffff811115612f6257600080fd5b612f6e85828601612dc6565b9250506020830135612f7f81612d88565b809150509250929050565b600080600060408486031215612f9f57600080fd5b833567ffffffffffffffff80821115612fb757600080fd5b612fc387838801612ea3565b90955093506020860135915080821115612fdc57600080fd5b5084016101808187031215612ff057600080fd5b809150509250925092565b60006020828403121561300d57600080fd5b813567ffffffffffffffff81111561302457600080fd5b61303084828501612dc6565b949350505050565b60005b8381101561305357818101518382015260200161303b565b50506000910152565b60008151808452613074816020860160208601613038565b601f01601f19169290920160200192915050565b6000602080830181845280855180835260408601915060408160051b870101925083870160005b828110156130dd57603f198886030184526130cb85835161305c565b945092850192908501906001016130af565b5092979650505050505050565b634e487b7160e01b600052602160045260246000fd5b6006811061311e57634e487b7160e01b600052602160045260246000fd5b9052565b600061018082518185526131388286018261305c565b91505060208301518482036020860152613152828261305c565b915050604083015161316f60408601826001600160a01b03169052565b50606083015160608501526080830151608085015260a083015160a085015260c083015160c085015260e083015160e0850152610100808401518186015250610120808401516131c9828701826001600160a01b03169052565b50506101408381015160ff1690850152610160808401516131ec82870182613100565b5090949350505050565b6000602080830181845280855180835260408601915060408160051b870101925083870160005b828110156130dd57603f19888603018452613239858351613122565b9450928501929085019060010161321d565b60006020828403121561325d57600080fd5b813561326881612d88565b9392505050565b6000806020838503121561328257600080fd5b823567ffffffffffffffff81111561329957600080fd5b6132a585828601612ea3565b90969095509350505050565b600080604083850312156132c457600080fd5b823567ffffffffffffffff8111156132db57600080fd5b6132e785828601612dc6565b95602094909401359450505050565b6000806040838503121561330957600080fd5b823561331481612d88565b946020939093013593505050565b6101808152600061333761018083018f61305c565b8281036020840152613349818f61305c565b9150506001600160a01b03808d1660408401528b60608401528a60808401528960a08401528860c08401528760e0840152866101008401528086166101208401525060ff84166101408301526133a3610160830184613100565b9d9c50505050505050505050505050565b600080600080606085870312156133ca57600080fd5b843567ffffffffffffffff808211156133e257600080fd5b6133ee88838901612ea3565b9096509450602087013591508082111561340757600080fd5b508501610160818803121561341b57600080fd5b9150604085013561342b81612d88565b939692955090935050565b6000806040838503121561344957600080fd5b823591506020830135612f7f81612d88565b602080825282518282018190526000919060409081850190868401855b828110156134a657815180516001600160a01b03168552860151868501529284019290850190600101613478565b5091979650505050505050565b6000806000604084860312156134c857600080fd5b833567ffffffffffffffff8111156134df57600080fd5b6134eb86828701612ea3565b9094509250506020840135612ff081612d88565b6020815260006132686020830184613122565b60006020808301818452808551808352604092508286019150828160051b87010184880160005b8381101561360c57603f19898403018552815161016081518186526135608287018261305c565b915050888201518582038a870152613578828261305c565b9150508782015185820389870152613590828261305c565b9150506060808301516135ad828801826001600160a01b03169052565b50506080828101519086015260a0808301519086015260c0808301519086015260e08083015160ff1690860152610100808301519086015261012080830151908601526101409182015191909401529386019390860190600101613539565b509098975050505050505050565b60008060006060848603121561362f57600080fd5b833561363a81612d88565b9250602084013561364a81612d88565b91506040840135612ff081612d88565b60006020828403121561366c57600080fd5b8151801515811461326857600080fd5b8183823760009101908152919050565b81835281816020850137506000828201602090810191909152601f909101601f19169091010190565b60208152600061303060208301848661368c565b634e487b7160e01b600052601160045260246000fd5b8082028115828204841417611f2857611f286136c9565b60008261371357634e487b7160e01b600052601260045260246000fd5b500690565b80820180821115611f2857611f286136c9565b634e487b7160e01b600052603260045260246000fd5b60408152600061375560408301858761368c565b9050826020830152949350505050565b60408152600061377960408301858761368c565b90506001600160a01b0383166020830152949350505050565b600082516137a4818460208701613038565b9190910192915050565b6000808335601e198436030181126137c557600080fd5b83018035915067ffffffffffffffff8211156137e057600080fd5b602001915036819003821315612ee557600080fd5b600181811c9082168061380957607f821691505b60208210810361382957634e487b7160e01b600052602260045260246000fd5b50919050565b601f82111561387557600081815260208120601f850160051c810160208610156138565750805b601f850160051c820191505b8181101561222457828155600101613862565b505050565b67ffffffffffffffff83111561389257613892612db0565b6138a6836138a083546137f5565b8361382f565b6000601f8411600181146138da57600085156138c25750838201355b600019600387901b1c1916600186901b178355611333565b600083815260209020601f19861690835b8281101561390b57868501358255602094850194600190920191016138eb565b50868210156139285760001960f88860031b161c19848701351681555b505060018560011b0183555050505050565b60008135611f2881612d88565b60ff81168114612d9d57600080fd5b60008135611f2881613947565b60068110612d9d57600080fd5b60008135611f2881613963565b6006821061399b57634e487b7160e01b600052602160045260246000fd5b805475ff0000000000000000000000000000000000000000008360a81b1660ff60a81b198216178255505050565b6139d382836137ae565b6139de81838561387a565b50506139ed60208301836137ae565b6139fb81836001860161387a565b5050613a2d613a0c6040840161393a565b600283016001600160a01b0382166001600160a01b03198254161781555050565b606082013560038201556080820135600482015560a0820135600582015560c0820135600682015560e08201356007820155610100820135600882015560098101613a9b613a7e610120850161393a565b82546001600160a01b0319166001600160a01b0391909116178255565b613af1613aab6101408501613956565b82547fffffffffffffffffffffff00ffffffffffffffffffffffffffffffffffffffff1660a09190911b74ff000000000000000000000000000000000000000016178255565b613875613b016101608501613970565b8261397d565b818103613b12575050565b613b1c82546137f5565b67ffffffffffffffff811115613b3457613b34612db0565b613b4881613b4284546137f5565b8461382f565b6000601f821160018114613b7c5760008315613b645750848201545b600019600385901b1c1916600184901b178455611333565b600085815260209020601f19841690600086815260209020845b83811015613bb65782860154825560019586019590910190602001613b96565b5085831015613bd45781850154600019600388901b60f8161c191681555b5050505050600190811b01905550565b6000808335601e19843603018112613bfb57600080fd5b830160208101925035905067ffffffffffffffff811115613c1b57600080fd5b803603821315612ee557600080fd5b8035612dab81613947565b8035612dab81613963565b604081526000613c5460408301858761368c565b8281036020840152610180613c698586613be4565b828452613c79838501828461368c565b92505050613c8a6020860186613be4565b8383036020850152613c9d83828461368c565b92505050613cad60408601612da0565b6001600160a01b038116604084015250606085013560608301526080850135608083015260a085013560a083015260c085013560c083015260e085013560e0830152610100808601358184015250610120613d09818701612da0565b6001600160a01b031690830152610140613d24868201613c2a565b60ff1690830152610160613d39868201613c35565b613d4582850182613100565b5090979650505050505050565b606081526000613d65606083018661305c565b6001600160a01b0394851660208401529290931660409091015292915050565b602081526000613d958384613be4565b610160806020860152613dad6101808601838561368c565b9250613dbc6020870187613be4565b9250601f1980878603016040880152613dd685858461368c565b9450613de56040890189613be4565b945091508087860301606088015250613dff84848361368c565b935050613e0e60608701612da0565b6001600160a01b03811660808701529150608086013560a086015260a086013560c086015260c086013560e0860152613e4960e08701613c2a565b9150610100613e5c8187018460ff169052565b86013561012086810191909152860135610140808701919091529095013594909301939093525090919050565b613e9382836137ae565b613e9e81838561387a565b5050613ead60208301836137ae565b613ebb81836001860161387a565b5050613eca60408301836137ae565b613ed881836002860161387a565b5050613f0a613ee96060840161393a565b600383016001600160a01b0382166001600160a01b03198254161781555050565b6080820135600482015560a0820135600582015560c08201356006820155613f4c613f3760e08401613956565b6007830160ff821660ff198254161781555050565b61010082013560088201556101208201356009820155610140820135600a8201555050565b600060018201613f8357613f836136c9565b506001019056fea264697066735822122081a1ada5506518320e860626594a37812e1655864e789bb35edecf293c0a824864736f6c63430008130033","opcodes":"PUSH1 0x80 PUSH1 0x40 MSTORE CALLVALUE DUP1 ISZERO PUSH3 0x11 JUMPI PUSH1 0x0 DUP1 REVERT JUMPDEST POP PUSH1 0x40 MLOAD PUSH3 0x4100 CODESIZE SUB DUP1 PUSH3 0x4100 DUP4 CODECOPY DUP2 ADD PUSH1 0x40 DUP2 SWAP1 MSTORE PUSH3 0x34 SWAP2 PUSH3 0xB8 JUMP JUMPDEST PUSH1 0x7 DUP1 SLOAD PUSH1 0x1 PUSH1 0x1 PUSH1 0xA0 SHL SUB NOT SWAP1 DUP2 AND PUSH1 0x1 PUSH1 0x1 PUSH1 0xA0 SHL SUB SWAP9 DUP10 AND OR SWAP1 SWAP2 SSTORE PUSH1 0x8 DUP1 SLOAD DUP3 AND SWAP7 DUP9 AND SWAP7 SWAP1 SWAP7 OR SWAP1 SWAP6 SSTORE PUSH1 0x9 DUP1 SLOAD DUP7 AND SWAP5 DUP8 AND SWAP5 SWAP1 SWAP5 OR SWAP1 SWAP4 SSTORE PUSH1 0xA DUP1 SLOAD DUP6 AND SWAP3 DUP7 AND SWAP3 SWAP1 SWAP3 OR SWAP1 SWAP2 SSTORE PUSH1 0xB DUP1 SLOAD SWAP1 SWAP4 AND SWAP4 AND SWAP3 SWAP1 SWAP3 OR SWAP1 SSTORE PUSH1 0xD SSTORE PUSH3 0x130 JUMP JUMPDEST DUP1 MLOAD PUSH1 0x1 PUSH1 0x1 PUSH1 0xA0 SHL SUB DUP2 AND DUP2 EQ PUSH3 0xB3 JUMPI PUSH1 0x0 DUP1 REVERT JUMPDEST SWAP2 SWAP1 POP JUMP JUMPDEST PUSH1 0x0 DUP1 PUSH1 0x0 DUP1 PUSH1 0x0 DUP1 PUSH1 0xC0 DUP8 DUP10 SUB SLT ISZERO PUSH3 0xD2 JUMPI PUSH1 0x0 DUP1 REVERT JUMPDEST PUSH3 0xDD DUP8 PUSH3 0x9B JUMP JUMPDEST SWAP6 POP PUSH3 0xED PUSH1 0x20 DUP9 ADD PUSH3 0x9B JUMP JUMPDEST SWAP5 POP PUSH3 0xFD PUSH1 0x40 DUP9 ADD PUSH3 0x9B JUMP JUMPDEST SWAP4 POP PUSH3 0x10D PUSH1 0x60 DUP9 ADD PUSH3 0x9B JUMP JUMPDEST SWAP3 POP PUSH3 0x11D PUSH1 0x80 DUP9 ADD PUSH3 0x9B JUMP JUMPDEST SWAP2 POP PUSH1 0xA0 DUP8 ADD MLOAD SWAP1 POP SWAP3 SWAP6 POP SWAP3 SWAP6 POP SWAP3 SWAP6 JUMP JUMPDEST PUSH2 0x3FC0 DUP1 PUSH3 0x140 PUSH1 0x0 CODECOPY PUSH1 0x0 RETURN INVALID PUSH1 0x80 PUSH1 0x40 MSTORE CALLVALUE DUP1 ISZERO PUSH2 0x10 JUMPI PUSH1 0x0 DUP1 REVERT JUMPDEST POP PUSH1 0x4 CALLDATASIZE LT PUSH2 0x25C JUMPI PUSH1 0x0 CALLDATALOAD PUSH1 0xE0 SHR DUP1 PUSH4 0x7AF4D652 GT PUSH2 0x145 JUMPI DUP1 PUSH4 0xCA53B391 GT PUSH2 0xBD JUMPI DUP1 PUSH4 0xF3413C4F GT PUSH2 0x8C JUMPI DUP1 PUSH4 0xFE0AB4B3 GT PUSH2 0x71 JUMPI DUP1 PUSH4 0xFE0AB4B3 EQ PUSH2 0x5F3 JUMPI DUP1 PUSH4 0xFEB45FA6 EQ PUSH2 0x627 JUMPI DUP1 PUSH4 0xFF6689D0 EQ PUSH2 0x672 JUMPI PUSH1 0x0 DUP1 REVERT JUMPDEST DUP1 PUSH4 0xF3413C4F EQ PUSH2 0x5CB JUMPI DUP1 PUSH4 0xFB90E441 EQ PUSH2 0x5E0 JUMPI PUSH1 0x0 DUP1 REVERT JUMPDEST DUP1 PUSH4 0xCA53B391 EQ PUSH2 0x572 JUMPI DUP1 PUSH4 0xD0EBDBE7 EQ PUSH2 0x585 JUMPI DUP1 PUSH4 0xD7C4029C EQ PUSH2 0x598 JUMPI DUP1 PUSH4 0xE7079180 EQ PUSH2 0x5AB JUMPI PUSH1 0x0 DUP1 REVERT JUMPDEST DUP1 PUSH4 0xA0A57DAC GT PUSH2 0x114 JUMPI DUP1 PUSH4 0xB83C7FBA GT PUSH2 0xF9 JUMPI DUP1 PUSH4 0xB83C7FBA EQ PUSH2 0x4F5 JUMPI DUP1 PUSH4 0xC3A2A93A EQ PUSH2 0x508 JUMPI DUP1 PUSH4 0xC8D7F62E EQ PUSH2 0x552 JUMPI PUSH1 0x0 DUP1 REVERT JUMPDEST DUP1 PUSH4 0xA0A57DAC EQ PUSH2 0x4D9 JUMPI DUP1 PUSH4 0xAF9080F8 EQ PUSH2 0x4EC JUMPI PUSH1 0x0 DUP1 REVERT JUMPDEST DUP1 PUSH4 0x7AF4D652 EQ PUSH2 0x48D JUMPI DUP1 PUSH4 0x7BAFE3D0 EQ PUSH2 0x4A0 JUMPI DUP1 PUSH4 0x7F31ED73 EQ PUSH2 0x4B3 JUMPI DUP1 PUSH4 0x9F0D8D2A EQ PUSH2 0x4C6 JUMPI PUSH1 0x0 DUP1 REVERT JUMPDEST DUP1 PUSH4 0x3887BDCF GT PUSH2 0x1D8 JUMPI DUP1 PUSH4 0x507251CB GT PUSH2 0x1A7 JUMPI DUP1 PUSH4 0x5ED7E2C1 GT PUSH2 0x18C JUMPI DUP1 PUSH4 0x5ED7E2C1 EQ PUSH2 0x42E JUMPI DUP1 PUSH4 0x605936EA EQ PUSH2 0x467 JUMPI DUP1 PUSH4 0x754F399A EQ PUSH2 0x47A JUMPI PUSH1 0x0 DUP1 REVERT JUMPDEST DUP1 PUSH4 0x507251CB EQ PUSH2 0x408 JUMPI DUP1 PUSH4 0x5E43522E EQ PUSH2 0x41B JUMPI PUSH1 0x0 DUP1 REVERT JUMPDEST DUP1 PUSH4 0x3887BDCF EQ PUSH2 0x385 JUMPI DUP1 PUSH4 0x48F92EE8 EQ PUSH2 0x398 JUMPI DUP1 PUSH4 0x499FA18A EQ PUSH2 0x3AB JUMPI DUP1 PUSH4 0x49F5D1D9 EQ PUSH2 0x3DD JUMPI PUSH1 0x0 DUP1 REVERT JUMPDEST DUP1 PUSH4 0x19662D8E GT PUSH2 0x22F JUMPI DUP1 PUSH4 0x281DDC8E GT PUSH2 0x214 JUMPI DUP1 PUSH4 0x281DDC8E EQ PUSH2 0x348 JUMPI DUP1 PUSH4 0x2F667910 EQ PUSH2 0x35D JUMPI DUP1 PUSH4 0x36F9C4DA EQ PUSH2 0x370 JUMPI PUSH1 0x0 DUP1 REVERT JUMPDEST DUP1 PUSH4 0x19662D8E EQ PUSH2 0x322 JUMPI DUP1 PUSH4 0x1B59122C EQ PUSH2 0x335 JUMPI PUSH1 0x0 DUP1 REVERT JUMPDEST DUP1 PUSH4 0x41E9B89 EQ PUSH2 0x261 JUMPI DUP1 PUSH4 0x88674E0 EQ PUSH2 0x2CF JUMPI DUP1 PUSH4 0xDF8BFDA EQ PUSH2 0x2FA JUMPI DUP1 PUSH4 0x1882C195 EQ PUSH2 0x30F JUMPI JUMPDEST PUSH1 0x0 DUP1 REVERT JUMPDEST PUSH2 0x2AF PUSH2 0x26F CALLDATASIZE PUSH1 0x4 PUSH2 0x2E53 JUMP JUMPDEST PUSH1 0x5 PUSH1 0x20 SWAP1 DUP2 MSTORE PUSH1 0x0 SWAP3 DUP4 MSTORE PUSH1 0x40 SWAP1 SWAP3 KECCAK256 DUP2 MLOAD DUP1 DUP4 ADD DUP5 ADD DUP1 MLOAD SWAP3 DUP2 MSTORE SWAP1 DUP5 ADD SWAP3 SWAP1 SWAP4 ADD SWAP2 SWAP1 SWAP2 KECCAK256 SWAP2 MSTORE DUP1 SLOAD PUSH1 0x1 DUP3 ADD SLOAD PUSH1 0x2 SWAP1 SWAP3 ADD SLOAD SWAP1 SWAP2 PUSH1 0xFF AND SWAP1 DUP4 JUMP JUMPDEST PUSH1 0x40 DUP1 MLOAD SWAP4 DUP5 MSTORE SWAP2 ISZERO ISZERO PUSH1 0x20 DUP5 ADD MSTORE SWAP1 DUP3 ADD MSTORE PUSH1 0x60 ADD JUMPDEST PUSH1 0x40 MLOAD DUP1 SWAP2 SUB SWAP1 RETURN JUMPDEST PUSH1 0x9 SLOAD PUSH2 0x2E2 SWAP1 PUSH1 0x1 PUSH1 0x1 PUSH1 0xA0 SHL SUB AND DUP2 JUMP JUMPDEST PUSH1 0x40 MLOAD PUSH1 0x1 PUSH1 0x1 PUSH1 0xA0 SHL SUB SWAP1 SWAP2 AND DUP2 MSTORE PUSH1 0x20 ADD PUSH2 0x2C6 JUMP JUMPDEST PUSH2 0x30D PUSH2 0x308 CALLDATASIZE PUSH1 0x4 PUSH2 0x2EEC JUMP JUMPDEST PUSH2 0x67A JUMP JUMPDEST STOP JUMPDEST PUSH2 0x30D PUSH2 0x31D CALLDATASIZE PUSH1 0x4 PUSH2 0x2F38 JUMP JUMPDEST PUSH2 0xD5A JUMP JUMPDEST PUSH2 0x30D PUSH2 0x330 CALLDATASIZE PUSH1 0x4 PUSH2 0x2F8A JUMP JUMPDEST PUSH2 0xD9E JUMP JUMPDEST PUSH2 0x30D PUSH2 0x343 CALLDATASIZE PUSH1 0x4 PUSH2 0x2FFB JUMP JUMPDEST PUSH2 0x115D JUMP JUMPDEST PUSH2 0x350 PUSH2 0x133A JUMP JUMPDEST PUSH1 0x40 MLOAD PUSH2 0x2C6 SWAP2 SWAP1 PUSH2 0x3088 JUMP JUMPDEST PUSH2 0x2E2 PUSH2 0x36B CALLDATASIZE PUSH1 0x4 PUSH2 0x2FFB JUMP JUMPDEST PUSH2 0x1413 JUMP JUMPDEST PUSH2 0x378 PUSH2 0x1444 JUMP JUMPDEST PUSH1 0x40 MLOAD PUSH2 0x2C6 SWAP2 SWAP1 PUSH2 0x31F6 JUMP JUMPDEST PUSH2 0x30D PUSH2 0x393 CALLDATASIZE PUSH1 0x4 PUSH2 0x324B JUMP JUMPDEST PUSH2 0x1666 JUMP JUMPDEST PUSH2 0x30D PUSH2 0x3A6 CALLDATASIZE PUSH1 0x4 PUSH2 0x326F JUMP JUMPDEST PUSH2 0x16F0 JUMP JUMPDEST PUSH2 0x3BE PUSH2 0x3B9 CALLDATASIZE PUSH1 0x4 PUSH2 0x32B1 JUMP JUMPDEST PUSH2 0x18B0 JUMP JUMPDEST PUSH1 0x40 DUP1 MLOAD PUSH1 0x1 PUSH1 0x1 PUSH1 0xA0 SHL SUB SWAP1 SWAP4 AND DUP4 MSTORE PUSH1 0x20 DUP4 ADD SWAP2 SWAP1 SWAP2 MSTORE ADD PUSH2 0x2C6 JUMP JUMPDEST PUSH2 0x3F0 PUSH2 0x3EB CALLDATASIZE PUSH1 0x4 PUSH2 0x32F6 JUMP JUMPDEST PUSH2 0x1905 JUMP JUMPDEST PUSH1 0x40 MLOAD PUSH2 0x2C6 SWAP13 SWAP12 SWAP11 SWAP10 SWAP9 SWAP8 SWAP7 SWAP6 SWAP5 SWAP4 SWAP3 SWAP2 SWAP1 PUSH2 0x3322 JUMP JUMPDEST PUSH2 0x30D PUSH2 0x416 CALLDATASIZE PUSH1 0x4 PUSH2 0x33B4 JUMP JUMPDEST PUSH2 0x1AAE JUMP JUMPDEST PUSH1 0xA SLOAD PUSH2 0x2E2 SWAP1 PUSH1 0x1 PUSH1 0x1 PUSH1 0xA0 SHL SUB AND DUP2 JUMP JUMPDEST PUSH2 0x459 PUSH2 0x43C CALLDATASIZE PUSH1 0x4 PUSH2 0x2FFB JUMP JUMPDEST DUP1 MLOAD PUSH1 0x20 DUP2 DUP4 ADD DUP2 ADD DUP1 MLOAD PUSH1 0x4 DUP3 MSTORE SWAP3 DUP3 ADD SWAP2 SWAP1 SWAP4 ADD KECCAK256 SWAP2 MSTORE SLOAD DUP2 JUMP JUMPDEST PUSH1 0x40 MLOAD SWAP1 DUP2 MSTORE PUSH1 0x20 ADD PUSH2 0x2C6 JUMP JUMPDEST PUSH2 0x459 PUSH2 0x475 CALLDATASIZE PUSH1 0x4 PUSH2 0x326F JUMP JUMPDEST PUSH2 0x1F02 JUMP JUMPDEST PUSH2 0x30D PUSH2 0x488 CALLDATASIZE PUSH1 0x4 PUSH2 0x326F JUMP JUMPDEST PUSH2 0x1F2E JUMP JUMPDEST PUSH1 0xB SLOAD PUSH2 0x2E2 SWAP1 PUSH1 0x1 PUSH1 0x1 PUSH1 0xA0 SHL SUB AND DUP2 JUMP JUMPDEST PUSH2 0x30D PUSH2 0x4AE CALLDATASIZE PUSH1 0x4 PUSH2 0x324B JUMP JUMPDEST PUSH2 0x20E2 JUMP JUMPDEST PUSH1 0x7 SLOAD PUSH2 0x2E2 SWAP1 PUSH1 0x1 PUSH1 0x1 PUSH1 0xA0 SHL SUB AND DUP2 JUMP JUMPDEST PUSH2 0x30D PUSH2 0x4D4 CALLDATASIZE PUSH1 0x4 PUSH2 0x3436 JUMP JUMPDEST PUSH2 0x2166 JUMP JUMPDEST PUSH2 0x3F0 PUSH2 0x4E7 CALLDATASIZE PUSH1 0x4 PUSH2 0x2FFB JUMP JUMPDEST PUSH2 0x222C JUMP JUMPDEST PUSH2 0x459 PUSH1 0xD SLOAD DUP2 JUMP JUMPDEST PUSH2 0x30D PUSH2 0x503 CALLDATASIZE PUSH1 0x4 PUSH2 0x324B JUMP JUMPDEST PUSH2 0x2252 JUMP JUMPDEST PUSH1 0x7 SLOAD PUSH1 0x8 SLOAD PUSH1 0x9 SLOAD PUSH1 0xA SLOAD PUSH1 0xC SLOAD PUSH1 0x40 DUP1 MLOAD PUSH1 0x1 PUSH1 0x1 PUSH1 0xA0 SHL SUB SWAP7 DUP8 AND DUP2 MSTORE SWAP5 DUP7 AND PUSH1 0x20 DUP7 ADD MSTORE SWAP3 DUP6 AND SWAP3 DUP5 ADD SWAP3 SWAP1 SWAP3 MSTORE DUP4 AND PUSH1 0x60 DUP4 ADD MSTORE SWAP2 SWAP1 SWAP2 AND PUSH1 0x80 DUP3 ADD MSTORE PUSH1 0xA0 ADD PUSH2 0x2C6 JUMP JUMPDEST PUSH2 0x565 PUSH2 0x560 CALLDATASIZE PUSH1 0x4 PUSH2 0x326F JUMP JUMPDEST PUSH2 0x22DC JUMP JUMPDEST PUSH1 0x40 MLOAD PUSH2 0x2C6 SWAP2 SWAP1 PUSH2 0x345B JUMP JUMPDEST PUSH1 0x8 SLOAD PUSH2 0x2E2 SWAP1 PUSH1 0x1 PUSH1 0x1 PUSH1 0xA0 SHL SUB AND DUP2 JUMP JUMPDEST PUSH2 0x30D PUSH2 0x593 CALLDATASIZE PUSH1 0x4 PUSH2 0x324B JUMP JUMPDEST PUSH2 0x2372 JUMP JUMPDEST PUSH2 0x30D PUSH2 0x5A6 CALLDATASIZE PUSH1 0x4 PUSH2 0x34B3 JUMP JUMPDEST PUSH2 0x2442 JUMP JUMPDEST PUSH2 0x5BE PUSH2 0x5B9 CALLDATASIZE PUSH1 0x4 PUSH2 0x2FFB JUMP JUMPDEST PUSH2 0x2890 JUMP JUMPDEST PUSH1 0x40 MLOAD PUSH2 0x2C6 SWAP2 SWAP1 PUSH2 0x34FF JUMP JUMPDEST PUSH2 0x5D3 PUSH2 0x2A92 JUMP JUMPDEST PUSH1 0x40 MLOAD PUSH2 0x2C6 SWAP2 SWAP1 PUSH2 0x3512 JUMP JUMPDEST PUSH1 0xC SLOAD PUSH2 0x2E2 SWAP1 PUSH1 0x1 PUSH1 0x1 PUSH1 0xA0 SHL SUB AND DUP2 JUMP JUMPDEST PUSH2 0x2E2 PUSH2 0x601 CALLDATASIZE PUSH1 0x4 PUSH2 0x2FFB JUMP JUMPDEST DUP1 MLOAD PUSH1 0x20 DUP2 DUP4 ADD DUP2 ADD DUP1 MLOAD PUSH1 0x1 DUP3 MSTORE SWAP3 DUP3 ADD SWAP2 SWAP1 SWAP4 ADD KECCAK256 SWAP2 MSTORE SLOAD PUSH1 0x1 PUSH1 0x1 PUSH1 0xA0 SHL SUB AND DUP2 JUMP JUMPDEST PUSH2 0x30D PUSH2 0x635 CALLDATASIZE PUSH1 0x4 PUSH2 0x361A JUMP JUMPDEST PUSH1 0x1 PUSH1 0x1 PUSH1 0xA0 SHL SUB SWAP3 DUP4 AND PUSH1 0x0 SWAP1 DUP2 MSTORE PUSH1 0x2 PUSH1 0x20 SWAP1 DUP2 MSTORE PUSH1 0x40 DUP1 DUP4 KECCAK256 SWAP5 DUP7 AND DUP4 MSTORE SWAP4 SWAP1 MSTORE SWAP2 SWAP1 SWAP2 KECCAK256 DUP1 SLOAD PUSH1 0x1 PUSH1 0x1 PUSH1 0xA0 SHL SUB NOT AND SWAP2 SWAP1 SWAP3 AND OR SWAP1 SSTORE JUMP JUMPDEST PUSH1 0xD SLOAD PUSH2 0x459 JUMP JUMPDEST PUSH1 0x9 SLOAD PUSH1 0x40 MLOAD PUSH32 0xB9209E3300000000000000000000000000000000000000000000000000000000 DUP2 MSTORE CALLER PUSH1 0x4 DUP3 ADD DUP2 SWAP1 MSTORE SWAP2 PUSH1 0x1 PUSH1 0x1 PUSH1 0xA0 SHL SUB AND SWAP1 PUSH4 0xB9209E33 SWAP1 PUSH1 0x24 ADD PUSH1 0x20 PUSH1 0x40 MLOAD DUP1 DUP4 SUB DUP2 DUP7 GAS STATICCALL ISZERO DUP1 ISZERO PUSH2 0x6DC JUMPI RETURNDATASIZE PUSH1 0x0 DUP1 RETURNDATACOPY RETURNDATASIZE PUSH1 0x0 REVERT JUMPDEST POP POP POP POP PUSH1 0x40 MLOAD RETURNDATASIZE PUSH1 0x1F NOT PUSH1 0x1F DUP3 ADD AND DUP3 ADD DUP1 PUSH1 0x40 MSTORE POP DUP2 ADD SWAP1 PUSH2 0x700 SWAP2 SWAP1 PUSH2 0x365A JUMP JUMPDEST PUSH2 0x751 JUMPI PUSH1 0x40 MLOAD PUSH3 0x461BCD PUSH1 0xE5 SHL DUP2 MSTORE PUSH1 0x20 PUSH1 0x4 DUP3 ADD MSTORE PUSH1 0x14 PUSH1 0x24 DUP3 ADD MSTORE PUSH32 0x4143434F554E545F4E4F545F414150524F564544000000000000000000000000 PUSH1 0x44 DUP3 ADD MSTORE PUSH1 0x64 ADD JUMPDEST PUSH1 0x40 MLOAD DUP1 SWAP2 SUB SWAP1 REVERT JUMPDEST PUSH1 0x2 PUSH1 0x0 DUP6 DUP6 PUSH1 0x40 MLOAD PUSH2 0x765 SWAP3 SWAP2 SWAP1 PUSH2 0x367C JUMP JUMPDEST SWAP1 DUP2 MSTORE PUSH1 0x40 MLOAD SWAP1 DUP2 SWAP1 SUB PUSH1 0x20 ADD SWAP1 KECCAK256 PUSH1 0x9 ADD SLOAD PUSH1 0xFF PUSH1 0x1 PUSH1 0xA8 SHL SWAP1 SWAP2 DIV AND PUSH1 0x5 DUP2 GT ISZERO PUSH2 0x794 JUMPI PUSH2 0x794 PUSH2 0x30EA JUMP JUMPDEST EQ PUSH2 0x7B6 JUMPI DUP4 DUP4 PUSH1 0x40 MLOAD PUSH4 0x2DC59421 PUSH1 0xE2 SHL DUP2 MSTORE PUSH1 0x4 ADD PUSH2 0x748 SWAP3 SWAP2 SWAP1 PUSH2 0x36B5 JUMP JUMPDEST PUSH1 0x0 DUP5 DUP5 PUSH1 0x40 MLOAD PUSH2 0x7C8 SWAP3 SWAP2 SWAP1 PUSH2 0x367C JUMP JUMPDEST SWAP1 DUP2 MSTORE PUSH1 0x20 ADD PUSH1 0x40 MLOAD DUP1 SWAP2 SUB SWAP1 KECCAK256 PUSH1 0x4 ADD SLOAD PUSH1 0x0 DUP6 DUP6 PUSH1 0x40 MLOAD PUSH2 0x7EC SWAP3 SWAP2 SWAP1 PUSH2 0x367C JUMP JUMPDEST SWAP1 DUP2 MSTORE PUSH1 0x20 ADD PUSH1 0x40 MLOAD DUP1 SWAP2 SUB SWAP1 KECCAK256 PUSH1 0x4 ADD SLOAD DUP4 PUSH2 0x809 SWAP2 SWAP1 PUSH2 0x36DF JUMP JUMPDEST PUSH2 0x813 SWAP2 SWAP1 PUSH2 0x36F6 JUMP JUMPDEST ISZERO PUSH2 0x84D JUMPI PUSH1 0x40 MLOAD PUSH32 0x3728B83D00000000000000000000000000000000000000000000000000000000 DUP2 MSTORE PUSH1 0x4 DUP2 ADD DUP4 SWAP1 MSTORE PUSH1 0x24 ADD PUSH2 0x748 JUMP JUMPDEST DUP2 ISZERO DUP1 ISZERO SWAP1 PUSH2 0x8AA JUMPI POP PUSH1 0x0 DUP5 DUP5 PUSH1 0x40 MLOAD PUSH2 0x869 SWAP3 SWAP2 SWAP1 PUSH2 0x367C JUMP JUMPDEST SWAP1 DUP2 MSTORE PUSH1 0x20 ADD PUSH1 0x40 MLOAD DUP1 SWAP2 SUB SWAP1 KECCAK256 PUSH1 0x3 ADD SLOAD PUSH1 0x4 DUP6 DUP6 PUSH1 0x40 MLOAD PUSH2 0x88D SWAP3 SWAP2 SWAP1 PUSH2 0x367C JUMP JUMPDEST SWAP1 DUP2 MSTORE PUSH1 0x20 ADD PUSH1 0x40 MLOAD DUP1 SWAP2 SUB SWAP1 KECCAK256 SLOAD DUP4 PUSH2 0x8A7 SWAP2 SWAP1 PUSH2 0x3718 JUMP JUMPDEST GT ISZERO JUMPDEST PUSH2 0x8F6 JUMPI PUSH1 0x40 MLOAD PUSH3 0x461BCD PUSH1 0xE5 SHL DUP2 MSTORE PUSH1 0x20 PUSH1 0x4 DUP3 ADD MSTORE PUSH1 0x6 PUSH1 0x24 DUP3 ADD MSTORE PUSH32 0x616D6F756E740000000000000000000000000000000000000000000000000000 PUSH1 0x44 DUP3 ADD MSTORE PUSH1 0x64 ADD PUSH2 0x748 JUMP JUMPDEST DUP2 PUSH1 0x4 DUP6 DUP6 PUSH1 0x40 MLOAD PUSH2 0x909 SWAP3 SWAP2 SWAP1 PUSH2 0x367C JUMP JUMPDEST SWAP1 DUP2 MSTORE PUSH1 0x20 ADD PUSH1 0x40 MLOAD DUP1 SWAP2 SUB SWAP1 KECCAK256 SLOAD PUSH2 0x922 SWAP2 SWAP1 PUSH2 0x3718 JUMP JUMPDEST PUSH1 0x4 DUP6 DUP6 PUSH1 0x40 MLOAD PUSH2 0x934 SWAP3 SWAP2 SWAP1 PUSH2 0x367C JUMP JUMPDEST SWAP1 DUP2 MSTORE PUSH1 0x40 DUP1 MLOAD PUSH1 0x20 SWAP3 DUP2 SWAP1 SUB DUP4 ADD DUP2 KECCAK256 SWAP4 SWAP1 SWAP4 SSTORE CALLER PUSH1 0x0 SWAP1 DUP2 MSTORE PUSH1 0x5 SWAP1 SWAP3 MSTORE SWAP1 KECCAK256 SWAP1 PUSH2 0x964 SWAP1 DUP7 SWAP1 DUP7 SWAP1 PUSH2 0x367C JUMP JUMPDEST SWAP1 DUP2 MSTORE PUSH1 0x40 MLOAD SWAP1 DUP2 SWAP1 SUB PUSH1 0x20 ADD SWAP1 KECCAK256 PUSH1 0x1 ADD SLOAD PUSH1 0xFF AND ISZERO PUSH2 0xAB9 JUMPI CALLER PUSH1 0x0 SWAP1 DUP2 MSTORE PUSH1 0x5 PUSH1 0x20 MSTORE PUSH1 0x40 SWAP1 DUP2 SWAP1 KECCAK256 SWAP1 MLOAD DUP4 SWAP2 SWAP1 PUSH2 0x9A2 SWAP1 DUP8 SWAP1 DUP8 SWAP1 PUSH2 0x367C JUMP JUMPDEST SWAP1 DUP2 MSTORE PUSH1 0x40 MLOAD SWAP1 DUP2 SWAP1 SUB PUSH1 0x20 ADD SWAP1 KECCAK256 SLOAD PUSH2 0x9BC SWAP2 SWAP1 PUSH2 0x3718 JUMP JUMPDEST PUSH1 0x3 DUP6 DUP6 PUSH1 0x40 MLOAD PUSH2 0x9CE SWAP3 SWAP2 SWAP1 PUSH2 0x367C JUMP JUMPDEST SWAP1 DUP2 MSTORE PUSH1 0x40 DUP1 MLOAD SWAP2 DUP3 SWAP1 SUB PUSH1 0x20 SWAP1 DUP2 ADD DUP4 KECCAK256 CALLER PUSH1 0x0 SWAP1 DUP2 MSTORE PUSH1 0x5 SWAP1 SWAP3 MSTORE SWAP2 SWAP1 KECCAK256 SWAP1 SWAP2 PUSH2 0x9FD SWAP1 DUP9 SWAP1 DUP9 SWAP1 PUSH2 0x367C JUMP JUMPDEST SWAP1 DUP2 MSTORE PUSH1 0x20 ADD PUSH1 0x40 MLOAD DUP1 SWAP2 SUB SWAP1 KECCAK256 PUSH1 0x2 ADD SLOAD DUP2 SLOAD DUP2 LT PUSH2 0xA1F JUMPI PUSH2 0xA1F PUSH2 0x372B JUMP JUMPDEST SWAP1 PUSH1 0x0 MSTORE PUSH1 0x20 PUSH1 0x0 KECCAK256 SWAP1 PUSH1 0x2 MUL ADD PUSH1 0x1 ADD DUP2 SWAP1 SSTORE POP DUP2 PUSH1 0x5 PUSH1 0x0 CALLER PUSH1 0x1 PUSH1 0x1 PUSH1 0xA0 SHL SUB AND PUSH1 0x1 PUSH1 0x1 PUSH1 0xA0 SHL SUB AND DUP2 MSTORE PUSH1 0x20 ADD SWAP1 DUP2 MSTORE PUSH1 0x20 ADD PUSH1 0x0 KECCAK256 DUP6 DUP6 PUSH1 0x40 MLOAD PUSH2 0xA6A SWAP3 SWAP2 SWAP1 PUSH2 0x367C JUMP JUMPDEST SWAP1 DUP2 MSTORE PUSH1 0x40 MLOAD SWAP1 DUP2 SWAP1 SUB PUSH1 0x20 ADD SWAP1 KECCAK256 SLOAD PUSH2 0xA84 SWAP2 SWAP1 PUSH2 0x3718 JUMP JUMPDEST CALLER PUSH1 0x0 SWAP1 DUP2 MSTORE PUSH1 0x5 PUSH1 0x20 MSTORE PUSH1 0x40 SWAP1 DUP2 SWAP1 KECCAK256 SWAP1 MLOAD PUSH2 0xAA4 SWAP1 DUP8 SWAP1 DUP8 SWAP1 PUSH2 0x367C JUMP JUMPDEST SWAP1 DUP2 MSTORE PUSH1 0x40 MLOAD SWAP1 DUP2 SWAP1 SUB PUSH1 0x20 ADD SWAP1 KECCAK256 SSTORE PUSH2 0xBBA JUMP JUMPDEST PUSH1 0x40 MLOAD DUP1 PUSH1 0x60 ADD PUSH1 0x40 MSTORE DUP1 DUP4 DUP2 MSTORE PUSH1 0x20 ADD PUSH1 0x1 ISZERO ISZERO DUP2 MSTORE PUSH1 0x20 ADD PUSH1 0x3 DUP7 DUP7 PUSH1 0x40 MLOAD PUSH2 0xAE5 SWAP3 SWAP2 SWAP1 PUSH2 0x367C JUMP JUMPDEST SWAP1 DUP2 MSTORE PUSH1 0x40 DUP1 MLOAD PUSH1 0x20 SWAP3 DUP2 SWAP1 SUB DUP4 ADD SWAP1 KECCAK256 SLOAD SWAP1 SWAP3 MSTORE CALLER PUSH1 0x0 SWAP1 DUP2 MSTORE PUSH1 0x5 SWAP1 SWAP2 MSTORE DUP2 SWAP1 KECCAK256 SWAP1 MLOAD PUSH2 0xB17 SWAP1 DUP8 SWAP1 DUP8 SWAP1 PUSH2 0x367C JUMP JUMPDEST SWAP1 DUP2 MSTORE PUSH1 0x40 DUP1 MLOAD PUSH1 0x20 SWAP3 DUP2 SWAP1 SUB DUP4 ADD DUP2 KECCAK256 DUP5 MLOAD DUP2 SSTORE SWAP3 DUP5 ADD MLOAD PUSH1 0x1 DUP5 ADD DUP1 SLOAD PUSH1 0xFF NOT AND SWAP2 ISZERO ISZERO SWAP2 SWAP1 SWAP2 OR SWAP1 SSTORE SWAP3 ADD MLOAD PUSH1 0x2 SWAP1 SWAP2 ADD SSTORE PUSH1 0x3 SWAP1 PUSH2 0xB5C SWAP1 DUP7 SWAP1 DUP7 SWAP1 PUSH2 0x367C JUMP JUMPDEST SWAP1 DUP2 MSTORE PUSH1 0x40 DUP1 MLOAD PUSH1 0x20 SWAP3 DUP2 SWAP1 SUB DUP4 ADD DUP2 KECCAK256 DUP2 DUP4 ADD SWAP1 SWAP3 MSTORE CALLER DUP2 MSTORE DUP3 DUP2 ADD DUP6 DUP2 MSTORE DUP3 SLOAD PUSH1 0x1 DUP1 DUP3 ADD DUP6 SSTORE PUSH1 0x0 SWAP5 DUP6 MSTORE SWAP5 SWAP1 SWAP4 KECCAK256 SWAP2 MLOAD PUSH1 0x2 SWAP1 SWAP4 MUL SWAP1 SWAP2 ADD DUP1 SLOAD PUSH1 0x1 PUSH1 0x1 PUSH1 0xA0 SHL SUB NOT AND PUSH1 0x1 PUSH1 0x1 PUSH1 0xA0 SHL SUB SWAP1 SWAP4 AND SWAP3 SWAP1 SWAP3 OR DUP3 SSTORE MLOAD SWAP2 ADD SSTORE JUMPDEST PUSH1 0xC SLOAD PUSH1 0x40 MLOAD PUSH32 0x925B7CB600000000000000000000000000000000000000000000000000000000 DUP2 MSTORE PUSH1 0x1 PUSH1 0x1 PUSH1 0xA0 SHL SUB SWAP1 SWAP2 AND SWAP1 PUSH4 0x925B7CB6 SWAP1 PUSH2 0xC07 SWAP1 DUP8 SWAP1 DUP8 SWAP1 DUP8 SWAP1 PUSH1 0x4 ADD PUSH2 0x3741 JUMP JUMPDEST PUSH1 0x0 PUSH1 0x40 MLOAD DUP1 DUP4 SUB DUP2 PUSH1 0x0 DUP8 DUP1 EXTCODESIZE ISZERO DUP1 ISZERO PUSH2 0xC21 JUMPI PUSH1 0x0 DUP1 REVERT JUMPDEST POP GAS CALL ISZERO DUP1 ISZERO PUSH2 0xC35 JUMPI RETURNDATASIZE PUSH1 0x0 DUP1 RETURNDATACOPY RETURNDATASIZE PUSH1 0x0 REVERT JUMPDEST POP POP POP POP PUSH1 0x0 DUP5 DUP5 PUSH1 0x40 MLOAD PUSH2 0xC4B SWAP3 SWAP2 SWAP1 PUSH2 0x367C JUMP JUMPDEST SWAP1 DUP2 MSTORE PUSH1 0x40 MLOAD SWAP1 DUP2 SWAP1 SUB PUSH1 0x20 ADD SWAP1 KECCAK256 PUSH1 0x9 ADD SLOAD PUSH1 0xC SLOAD PUSH1 0x1 PUSH1 0x1 PUSH1 0xA0 SHL SUB SWAP2 DUP3 AND SWAP2 PUSH4 0x23B872DD SWAP2 CALLER SWAP2 AND PUSH2 0xC88 DUP7 PUSH8 0xDE0B6B3A7640000 PUSH2 0x36DF JUMP JUMPDEST PUSH1 0x40 MLOAD PUSH32 0xFFFFFFFF00000000000000000000000000000000000000000000000000000000 PUSH1 0xE0 DUP7 SWAP1 SHL AND DUP2 MSTORE PUSH1 0x1 PUSH1 0x1 PUSH1 0xA0 SHL SUB SWAP4 DUP5 AND PUSH1 0x4 DUP3 ADD MSTORE SWAP3 SWAP1 SWAP2 AND PUSH1 0x24 DUP4 ADD MSTORE PUSH1 0x44 DUP3 ADD MSTORE PUSH1 0x64 ADD PUSH1 0x20 PUSH1 0x40 MLOAD DUP1 DUP4 SUB DUP2 PUSH1 0x0 DUP8 GAS CALL ISZERO DUP1 ISZERO PUSH2 0xCF4 JUMPI RETURNDATASIZE PUSH1 0x0 DUP1 RETURNDATACOPY RETURNDATASIZE PUSH1 0x0 REVERT JUMPDEST POP POP POP POP PUSH1 0x40 MLOAD RETURNDATASIZE PUSH1 0x1F NOT PUSH1 0x1F DUP3 ADD AND DUP3 ADD DUP1 PUSH1 0x40 MSTORE POP DUP2 ADD SWAP1 PUSH2 0xD18 SWAP2 SWAP1 PUSH2 0x365A JUMP JUMPDEST POP PUSH32 0xBDAF52B4DE514796607307FBBCF007EE6D59E81E1BE436B67C5A567A2E8D121 DUP5 DUP5 CALLER PUSH1 0x40 MLOAD PUSH2 0xD4C SWAP4 SWAP3 SWAP2 SWAP1 PUSH2 0x3765 JUMP JUMPDEST PUSH1 0x40 MLOAD DUP1 SWAP2 SUB SWAP1 LOG1 POP POP POP POP JUMP JUMPDEST DUP1 PUSH1 0x1 DUP4 PUSH1 0x40 MLOAD PUSH2 0xD6B SWAP2 SWAP1 PUSH2 0x3792 JUMP JUMPDEST SWAP1 DUP2 MSTORE PUSH1 0x40 MLOAD SWAP1 DUP2 SWAP1 SUB PUSH1 0x20 ADD SWAP1 KECCAK256 DUP1 SLOAD PUSH1 0x1 PUSH1 0x1 PUSH1 0xA0 SHL SUB SWAP3 SWAP1 SWAP3 AND PUSH1 0x1 PUSH1 0x1 PUSH1 0xA0 SHL SUB NOT SWAP1 SWAP3 AND SWAP2 SWAP1 SWAP2 OR SWAP1 SSTORE POP POP JUMP JUMPDEST PUSH1 0x8 SLOAD PUSH1 0x40 MLOAD PUSH32 0x877B9A6700000000000000000000000000000000000000000000000000000000 DUP2 MSTORE CALLER PUSH1 0x4 DUP3 ADD MSTORE PUSH1 0x1 PUSH1 0x1 PUSH1 0xA0 SHL SUB SWAP1 SWAP2 AND SWAP1 PUSH4 0x877B9A67 SWAP1 PUSH1 0x24 ADD PUSH1 0x20 PUSH1 0x40 MLOAD DUP1 DUP4 SUB DUP2 DUP7 GAS STATICCALL ISZERO DUP1 ISZERO PUSH2 0xDFF JUMPI RETURNDATASIZE PUSH1 0x0 DUP1 RETURNDATACOPY RETURNDATASIZE PUSH1 0x0 REVERT JUMPDEST POP POP POP POP PUSH1 0x40 MLOAD RETURNDATASIZE PUSH1 0x1F NOT PUSH1 0x1F DUP3 ADD AND DUP3 ADD DUP1 PUSH1 0x40 MSTORE POP DUP2 ADD SWAP1 PUSH2 0xE23 SWAP2 SWAP1 PUSH2 0x365A JUMP JUMPDEST PUSH2 0xE6F JUMPI PUSH1 0x40 MLOAD PUSH3 0x461BCD PUSH1 0xE5 SHL DUP2 MSTORE PUSH1 0x20 PUSH1 0x4 DUP3 ADD MSTORE PUSH1 0xA PUSH1 0x24 DUP3 ADD MSTORE PUSH32 0x6E6F742069737375657200000000000000000000000000000000000000000000 PUSH1 0x44 DUP3 ADD MSTORE PUSH1 0x64 ADD PUSH2 0x748 JUMP JUMPDEST PUSH2 0xE7F PUSH1 0x60 DUP3 ADD PUSH1 0x40 DUP4 ADD PUSH2 0x324B JUMP JUMPDEST PUSH1 0x1 PUSH1 0x1 PUSH1 0xA0 SHL SUB AND CALLER PUSH1 0x1 PUSH1 0x1 PUSH1 0xA0 SHL SUB AND EQ PUSH2 0xEC9 JUMPI PUSH1 0x40 MLOAD PUSH3 0x461BCD PUSH1 0xE5 SHL DUP2 MSTORE PUSH1 0x20 PUSH1 0x4 DUP3 ADD MSTORE PUSH1 0x7 PUSH1 0x24 DUP3 ADD MSTORE PUSH7 0x61646472657373 PUSH1 0xC8 SHL PUSH1 0x44 DUP3 ADD MSTORE PUSH1 0x64 ADD PUSH2 0x748 JUMP JUMPDEST PUSH1 0x0 DUP1 DUP5 DUP5 PUSH1 0x40 MLOAD PUSH2 0xEDC SWAP3 SWAP2 SWAP1 PUSH2 0x367C JUMP JUMPDEST SWAP1 DUP2 MSTORE PUSH1 0x40 MLOAD SWAP1 DUP2 SWAP1 SUB PUSH1 0x20 ADD SWAP1 KECCAK256 PUSH1 0x9 ADD SLOAD PUSH1 0xFF PUSH1 0x1 PUSH1 0xA8 SHL SWAP1 SWAP2 DIV AND PUSH1 0x5 DUP2 GT ISZERO PUSH2 0xF0B JUMPI PUSH2 0xF0B PUSH2 0x30EA JUMP JUMPDEST EQ PUSH2 0xF41 JUMPI PUSH1 0x40 MLOAD PUSH3 0x461BCD PUSH1 0xE5 SHL DUP2 MSTORE PUSH1 0x20 PUSH1 0x4 DUP3 ADD MSTORE PUSH1 0x6 PUSH1 0x24 DUP3 ADD MSTORE PUSH6 0x737461747573 PUSH1 0xD0 SHL PUSH1 0x44 DUP3 ADD MSTORE PUSH1 0x64 ADD PUSH2 0x748 JUMP JUMPDEST DUP1 PUSH1 0x0 DUP5 DUP5 PUSH1 0x40 MLOAD PUSH2 0xF54 SWAP3 SWAP2 SWAP1 PUSH2 0x367C JUMP JUMPDEST SWAP1 DUP2 MSTORE PUSH1 0x40 MLOAD SWAP1 DUP2 SWAP1 SUB PUSH1 0x20 ADD SWAP1 KECCAK256 PUSH2 0xF6D DUP3 DUP3 PUSH2 0x39C9 JUMP JUMPDEST SWAP1 POP POP PUSH1 0x1 PUSH1 0x0 DUP5 DUP5 PUSH1 0x40 MLOAD PUSH2 0xF84 SWAP3 SWAP2 SWAP1 PUSH2 0x367C JUMP JUMPDEST SWAP1 DUP2 MSTORE PUSH1 0x40 MLOAD SWAP1 DUP2 SWAP1 SUB PUSH1 0x20 ADD SWAP1 KECCAK256 PUSH1 0x9 ADD DUP1 SLOAD PUSH1 0xFF PUSH1 0xA8 SHL NOT AND PUSH1 0x1 PUSH1 0xA8 SHL DUP4 PUSH1 0x5 DUP2 GT ISZERO PUSH2 0xFB6 JUMPI PUSH2 0xFB6 PUSH2 0x30EA JUMP JUMPDEST MUL OR SWAP1 SSTORE POP PUSH1 0xF SLOAD PUSH1 0x40 MLOAD PUSH1 0x0 SWAP1 PUSH2 0xFD1 SWAP1 DUP7 SWAP1 DUP7 SWAP1 PUSH2 0x367C JUMP JUMPDEST SWAP1 DUP2 MSTORE PUSH1 0x20 ADD PUSH1 0x40 MLOAD DUP1 SWAP2 SUB SWAP1 KECCAK256 PUSH1 0x8 ADD DUP2 SWAP1 SSTORE POP PUSH1 0xF PUSH1 0x0 DUP5 DUP5 PUSH1 0x40 MLOAD PUSH2 0xFFA SWAP3 SWAP2 SWAP1 PUSH2 0x367C JUMP JUMPDEST SWAP1 DUP2 MSTORE PUSH1 0x40 MLOAD PUSH1 0x20 SWAP2 DUP2 SWAP1 SUB DUP3 ADD SWAP1 KECCAK256 DUP3 SLOAD PUSH1 0x1 DUP2 ADD DUP5 SSTORE PUSH1 0x0 SWAP4 DUP5 MSTORE SWAP2 SWAP1 SWAP3 KECCAK256 PUSH1 0xA SWAP1 SWAP2 MUL ADD DUP1 PUSH2 0x102C DUP4 DUP3 PUSH2 0x3B07 JUMP JUMPDEST POP PUSH1 0x1 DUP2 DUP2 ADD SWAP1 PUSH2 0x103F SWAP1 DUP5 ADD DUP3 PUSH2 0x3B07 JUMP JUMPDEST POP PUSH1 0x2 DUP3 DUP2 ADD SLOAD SWAP1 DUP3 ADD DUP1 SLOAD PUSH1 0x1 PUSH1 0x1 PUSH1 0xA0 SHL SUB SWAP3 DUP4 AND PUSH1 0x1 PUSH1 0x1 PUSH1 0xA0 SHL SUB NOT SWAP2 DUP3 AND OR SWAP1 SWAP2 SSTORE PUSH1 0x3 DUP1 DUP6 ADD SLOAD SWAP1 DUP5 ADD SSTORE PUSH1 0x4 DUP1 DUP6 ADD SLOAD SWAP1 DUP5 ADD SSTORE PUSH1 0x5 DUP1 DUP6 ADD SLOAD DUP2 DUP6 ADD SSTORE PUSH1 0x6 DUP1 DUP7 ADD SLOAD SWAP1 DUP6 ADD SSTORE PUSH1 0x7 DUP1 DUP7 ADD SLOAD SWAP1 DUP6 ADD SSTORE PUSH1 0x8 DUP1 DUP7 ADD SLOAD SWAP1 DUP6 ADD SSTORE PUSH1 0x9 DUP1 DUP7 ADD DUP1 SLOAD SWAP2 DUP7 ADD DUP1 SLOAD SWAP3 SWAP1 SWAP6 AND SWAP4 DUP3 AND DUP5 OR DUP6 SSTORE DUP1 SLOAD PUSH21 0xFFFFFFFFFFFFFFFFFFFFFFFFFFFFFFFFFFFFFFFFFF NOT SWAP1 SWAP3 AND SWAP1 SWAP4 OR PUSH1 0x1 PUSH1 0xA0 SHL SWAP2 DUP3 SWAP1 DIV PUSH1 0xFF SWAP1 DUP2 AND SWAP1 SWAP3 MUL OR DUP1 DUP6 SSTORE SWAP3 SLOAD PUSH1 0x1 PUSH1 0xA8 SHL SWAP1 DUP2 SWAP1 DIV SWAP1 SWAP2 AND SWAP4 SWAP3 PUSH1 0xFF PUSH1 0xA8 SHL NOT AND SWAP2 DUP5 SWAP1 DUP2 GT ISZERO PUSH2 0x1116 JUMPI PUSH2 0x1116 PUSH2 0x30EA JUMP JUMPDEST MUL OR SWAP1 SSTORE POP POP POP PUSH32 0xEBC5645D06A6C6900FFBABB37C6FC84326BD870990F736254F05ABB3287FFD41 DUP4 DUP4 DUP4 PUSH1 0x40 MLOAD PUSH2 0x1150 SWAP4 SWAP3 SWAP2 SWAP1 PUSH2 0x3C40 JUMP JUMPDEST PUSH1 0x40 MLOAD DUP1 SWAP2 SUB SWAP1 LOG1 POP POP POP JUMP JUMPDEST PUSH1 0x0 DUP2 PUSH1 0x40 MLOAD PUSH2 0x116D SWAP2 SWAP1 PUSH2 0x3792 JUMP JUMPDEST SWAP1 DUP2 MSTORE PUSH1 0x40 MLOAD SWAP1 DUP2 SWAP1 SUB PUSH1 0x20 ADD SWAP1 KECCAK256 PUSH1 0x2 ADD SLOAD CALLER PUSH1 0x1 PUSH1 0x1 PUSH1 0xA0 SHL SUB SWAP1 SWAP2 AND EQ DUP1 PUSH2 0x11A2 JUMPI POP PUSH1 0x7 SLOAD PUSH1 0x1 PUSH1 0x1 PUSH1 0xA0 SHL SUB AND CALLER EQ JUMPDEST PUSH2 0x11D8 JUMPI PUSH1 0x40 MLOAD PUSH3 0x461BCD PUSH1 0xE5 SHL DUP2 MSTORE PUSH1 0x20 PUSH1 0x4 DUP3 ADD MSTORE PUSH1 0x7 PUSH1 0x24 DUP3 ADD MSTORE PUSH7 0x61646472657373 PUSH1 0xC8 SHL PUSH1 0x44 DUP3 ADD MSTORE PUSH1 0x64 ADD PUSH2 0x748 JUMP JUMPDEST PUSH1 0x0 PUSH1 0x1 PUSH1 0x1 PUSH1 0xA0 SHL SUB AND PUSH1 0x0 DUP3 PUSH1 0x40 MLOAD PUSH2 0x11F3 SWAP2 SWAP1 PUSH2 0x3792 JUMP JUMPDEST SWAP1 DUP2 MSTORE PUSH1 0x40 MLOAD SWAP1 DUP2 SWAP1 SUB PUSH1 0x20 ADD SWAP1 KECCAK256 PUSH1 0x9 ADD SLOAD PUSH1 0x1 PUSH1 0x1 PUSH1 0xA0 SHL SUB AND SUB PUSH2 0x125C JUMPI PUSH1 0x40 MLOAD PUSH3 0x461BCD PUSH1 0xE5 SHL DUP2 MSTORE PUSH1 0x20 PUSH1 0x4 DUP3 ADD MSTORE PUSH1 0x5 PUSH1 0x24 DUP3 ADD MSTORE PUSH32 0x746F6B656E000000000000000000000000000000000000000000000000000000 PUSH1 0x44 DUP3 ADD MSTORE PUSH1 0x64 ADD PUSH2 0x748 JUMP JUMPDEST PUSH1 0xC SLOAD PUSH1 0x40 MLOAD PUSH1 0x1 PUSH1 0x1 PUSH1 0xA0 SHL SUB SWAP1 SWAP2 AND SWAP1 PUSH4 0xE04CD97F SWAP1 DUP4 SWAP1 PUSH1 0x0 SWAP1 PUSH2 0x1284 SWAP1 DUP4 SWAP1 PUSH2 0x3792 JUMP JUMPDEST SWAP1 DUP2 MSTORE PUSH1 0x40 MLOAD SWAP1 DUP2 SWAP1 SUB PUSH1 0x20 ADD DUP2 KECCAK256 PUSH1 0x2 ADD SLOAD PUSH1 0x1 PUSH1 0x1 PUSH1 0xA0 SHL SUB AND SWAP1 PUSH1 0x0 SWAP1 PUSH2 0x12AF SWAP1 DUP8 SWAP1 PUSH2 0x3792 JUMP JUMPDEST SWAP1 DUP2 MSTORE PUSH1 0x40 MLOAD SWAP1 DUP2 SWAP1 SUB PUSH1 0x20 ADD DUP2 KECCAK256 PUSH1 0x9 ADD SLOAD PUSH32 0xFFFFFFFF00000000000000000000000000000000000000000000000000000000 PUSH1 0xE0 DUP7 SWAP1 SHL AND DUP3 MSTORE PUSH2 0x1305 SWAP4 SWAP3 SWAP2 PUSH1 0x1 PUSH1 0x1 PUSH1 0xA0 SHL SUB SWAP1 SWAP2 AND SWAP1 PUSH1 0x4 ADD PUSH2 0x3D52 JUMP JUMPDEST PUSH1 0x0 PUSH1 0x40 MLOAD DUP1 DUP4 SUB DUP2 PUSH1 0x0 DUP8 DUP1 EXTCODESIZE ISZERO DUP1 ISZERO PUSH2 0x131F JUMPI PUSH1 0x0 DUP1 REVERT JUMPDEST POP GAS CALL ISZERO DUP1 ISZERO PUSH2 0x1333 JUMPI RETURNDATASIZE PUSH1 0x0 DUP1 RETURNDATACOPY RETURNDATASIZE PUSH1 0x0 REVERT JUMPDEST POP POP POP POP POP JUMP JUMPDEST PUSH1 0x60 PUSH1 0x10 DUP1 SLOAD DUP1 PUSH1 0x20 MUL PUSH1 0x20 ADD PUSH1 0x40 MLOAD SWAP1 DUP2 ADD PUSH1 0x40 MSTORE DUP1 SWAP3 SWAP2 SWAP1 DUP2 DUP2 MSTORE PUSH1 0x20 ADD PUSH1 0x0 SWAP1 JUMPDEST DUP3 DUP3 LT ISZERO PUSH2 0x140A JUMPI DUP4 DUP3 SWAP1 PUSH1 0x0 MSTORE PUSH1 0x20 PUSH1 0x0 KECCAK256 ADD DUP1 SLOAD PUSH2 0x137D SWAP1 PUSH2 0x37F5 JUMP JUMPDEST DUP1 PUSH1 0x1F ADD PUSH1 0x20 DUP1 SWAP2 DIV MUL PUSH1 0x20 ADD PUSH1 0x40 MLOAD SWAP1 DUP2 ADD PUSH1 0x40 MSTORE DUP1 SWAP3 SWAP2 SWAP1 DUP2 DUP2 MSTORE PUSH1 0x20 ADD DUP3 DUP1 SLOAD PUSH2 0x13A9 SWAP1 PUSH2 0x37F5 JUMP JUMPDEST DUP1 ISZERO PUSH2 0x13F6 JUMPI DUP1 PUSH1 0x1F LT PUSH2 0x13CB JUMPI PUSH2 0x100 DUP1 DUP4 SLOAD DIV MUL DUP4 MSTORE SWAP2 PUSH1 0x20 ADD SWAP2 PUSH2 0x13F6 JUMP JUMPDEST DUP3 ADD SWAP2 SWAP1 PUSH1 0x0 MSTORE PUSH1 0x20 PUSH1 0x0 KECCAK256 SWAP1 JUMPDEST DUP2 SLOAD DUP2 MSTORE SWAP1 PUSH1 0x1 ADD SWAP1 PUSH1 0x20 ADD DUP1 DUP4 GT PUSH2 0x13D9 JUMPI DUP3 SWAP1 SUB PUSH1 0x1F AND DUP3 ADD SWAP2 JUMPDEST POP POP POP POP POP DUP2 MSTORE PUSH1 0x20 ADD SWAP1 PUSH1 0x1 ADD SWAP1 PUSH2 0x135E JUMP JUMPDEST POP POP POP POP SWAP1 POP SWAP1 JUMP JUMPDEST PUSH1 0x0 PUSH1 0x1 DUP3 PUSH1 0x40 MLOAD PUSH2 0x1425 SWAP2 SWAP1 PUSH2 0x3792 JUMP JUMPDEST SWAP1 DUP2 MSTORE PUSH1 0x40 MLOAD SWAP1 DUP2 SWAP1 SUB PUSH1 0x20 ADD SWAP1 KECCAK256 SLOAD PUSH1 0x1 PUSH1 0x1 PUSH1 0xA0 SHL SUB AND SWAP3 SWAP2 POP POP JUMP JUMPDEST PUSH1 0x60 PUSH1 0xF DUP1 SLOAD DUP1 PUSH1 0x20 MUL PUSH1 0x20 ADD PUSH1 0x40 MLOAD SWAP1 DUP2 ADD PUSH1 0x40 MSTORE DUP1 SWAP3 SWAP2 SWAP1 DUP2 DUP2 MSTORE PUSH1 0x20 ADD PUSH1 0x0 SWAP1 JUMPDEST DUP3 DUP3 LT ISZERO PUSH2 0x140A JUMPI DUP4 DUP3 SWAP1 PUSH1 0x0 MSTORE PUSH1 0x20 PUSH1 0x0 KECCAK256 SWAP1 PUSH1 0xA MUL ADD PUSH1 0x40 MLOAD DUP1 PUSH2 0x180 ADD PUSH1 0x40 MSTORE SWAP1 DUP2 PUSH1 0x0 DUP3 ADD DUP1 SLOAD PUSH2 0x149C SWAP1 PUSH2 0x37F5 JUMP JUMPDEST DUP1 PUSH1 0x1F ADD PUSH1 0x20 DUP1 SWAP2 DIV MUL PUSH1 0x20 ADD PUSH1 0x40 MLOAD SWAP1 DUP2 ADD PUSH1 0x40 MSTORE DUP1 SWAP3 SWAP2 SWAP1 DUP2 DUP2 MSTORE PUSH1 0x20 ADD DUP3 DUP1 SLOAD PUSH2 0x14C8 SWAP1 PUSH2 0x37F5 JUMP JUMPDEST DUP1 ISZERO PUSH2 0x1515 JUMPI DUP1 PUSH1 0x1F LT PUSH2 0x14EA JUMPI PUSH2 0x100 DUP1 DUP4 SLOAD DIV MUL DUP4 MSTORE SWAP2 PUSH1 0x20 ADD SWAP2 PUSH2 0x1515 JUMP JUMPDEST DUP3 ADD SWAP2 SWAP1 PUSH1 0x0 MSTORE PUSH1 0x20 PUSH1 0x0 KECCAK256 SWAP1 JUMPDEST DUP2 SLOAD DUP2 MSTORE SWAP1 PUSH1 0x1 ADD SWAP1 PUSH1 0x20 ADD DUP1 DUP4 GT PUSH2 0x14F8 JUMPI DUP3 SWAP1 SUB PUSH1 0x1F AND DUP3 ADD SWAP2 JUMPDEST POP POP POP POP POP DUP2 MSTORE PUSH1 0x20 ADD PUSH1 0x1 DUP3 ADD DUP1 SLOAD PUSH2 0x152E SWAP1 PUSH2 0x37F5 JUMP JUMPDEST DUP1 PUSH1 0x1F ADD PUSH1 0x20 DUP1 SWAP2 DIV MUL PUSH1 0x20 ADD PUSH1 0x40 MLOAD SWAP1 DUP2 ADD PUSH1 0x40 MSTORE DUP1 SWAP3 SWAP2 SWAP1 DUP2 DUP2 MSTORE PUSH1 0x20 ADD DUP3 DUP1 SLOAD PUSH2 0x155A SWAP1 PUSH2 0x37F5 JUMP JUMPDEST DUP1 ISZERO PUSH2 0x15A7 JUMPI DUP1 PUSH1 0x1F LT PUSH2 0x157C JUMPI PUSH2 0x100 DUP1 DUP4 SLOAD DIV MUL DUP4 MSTORE SWAP2 PUSH1 0x20 ADD SWAP2 PUSH2 0x15A7 JUMP JUMPDEST DUP3 ADD SWAP2 SWAP1 PUSH1 0x0 MSTORE PUSH1 0x20 PUSH1 0x0 KECCAK256 SWAP1 JUMPDEST DUP2 SLOAD DUP2 MSTORE SWAP1 PUSH1 0x1 ADD SWAP1 PUSH1 0x20 ADD DUP1 DUP4 GT PUSH2 0x158A JUMPI DUP3 SWAP1 SUB PUSH1 0x1F AND DUP3 ADD SWAP2 JUMPDEST POP POP POP SWAP2 DUP4 MSTORE POP POP PUSH1 0x2 DUP3 ADD SLOAD PUSH1 0x1 PUSH1 0x1 PUSH1 0xA0 SHL SUB SWAP1 DUP2 AND PUSH1 0x20 DUP4 ADD MSTORE PUSH1 0x3 DUP4 ADD SLOAD PUSH1 0x40 DUP4 ADD MSTORE PUSH1 0x4 DUP4 ADD SLOAD PUSH1 0x60 DUP4 ADD MSTORE PUSH1 0x5 DUP1 DUP5 ADD SLOAD PUSH1 0x80 DUP5 ADD MSTORE PUSH1 0x6 DUP5 ADD SLOAD PUSH1 0xA0 DUP5 ADD MSTORE PUSH1 0x7 DUP5 ADD SLOAD PUSH1 0xC0 DUP5 ADD MSTORE PUSH1 0x8 DUP5 ADD SLOAD PUSH1 0xE0 DUP5 ADD MSTORE PUSH1 0x9 DUP5 ADD SLOAD SWAP2 DUP3 AND PUSH2 0x100 DUP5 ADD MSTORE PUSH1 0xFF PUSH1 0x1 PUSH1 0xA0 SHL DUP4 DIV DUP2 AND PUSH2 0x120 DUP6 ADD MSTORE PUSH2 0x140 SWAP1 SWAP4 ADD SWAP3 PUSH1 0x1 PUSH1 0xA8 SHL SWAP1 SWAP3 DIV SWAP1 SWAP2 AND SWAP1 DUP2 GT ISZERO PUSH2 0x1642 JUMPI PUSH2 0x1642 PUSH2 0x30EA JUMP JUMPDEST PUSH1 0x5 DUP2 GT ISZERO PUSH2 0x1653 JUMPI PUSH2 0x1653 PUSH2 0x30EA JUMP JUMPDEST DUP2 MSTORE POP POP DUP2 MSTORE PUSH1 0x20 ADD SWAP1 PUSH1 0x1 ADD SWAP1 PUSH2 0x1468 JUMP JUMPDEST PUSH1 0x7 SLOAD PUSH1 0x1 PUSH1 0x1 PUSH1 0xA0 SHL SUB AND CALLER EQ PUSH2 0x16B5 JUMPI PUSH1 0x40 MLOAD PUSH3 0x461BCD PUSH1 0xE5 SHL DUP2 MSTORE PUSH1 0x20 PUSH1 0x4 DUP3 ADD MSTORE PUSH1 0x12 PUSH1 0x24 DUP3 ADD MSTORE PUSH18 0x27A7262CAFAA27A827A9AFA6A0A720A3A2A9 PUSH1 0x71 SHL PUSH1 0x44 DUP3 ADD MSTORE PUSH1 0x64 ADD PUSH2 0x748 JUMP JUMPDEST DUP1 PUSH1 0x1 PUSH1 0x1 PUSH1 0xA0 SHL SUB AND PUSH4 0x8119C065 PUSH1 0x40 MLOAD DUP2 PUSH4 0xFFFFFFFF AND PUSH1 0xE0 SHL DUP2 MSTORE PUSH1 0x4 ADD PUSH1 0x0 PUSH1 0x40 MLOAD DUP1 DUP4 SUB DUP2 PUSH1 0x0 DUP8 DUP1 EXTCODESIZE ISZERO DUP1 ISZERO PUSH2 0x131F JUMPI PUSH1 0x0 DUP1 REVERT JUMPDEST PUSH1 0x7 SLOAD PUSH1 0x1 PUSH1 0x1 PUSH1 0xA0 SHL SUB AND CALLER EQ PUSH2 0x173F JUMPI PUSH1 0x40 MLOAD PUSH3 0x461BCD PUSH1 0xE5 SHL DUP2 MSTORE PUSH1 0x20 PUSH1 0x4 DUP3 ADD MSTORE PUSH1 0x12 PUSH1 0x24 DUP3 ADD MSTORE PUSH18 0x27A7262CAFAA27A827A9AFA6A0A720A3A2A9 PUSH1 0x71 SHL PUSH1 0x44 DUP3 ADD MSTORE PUSH1 0x64 ADD PUSH2 0x748 JUMP JUMPDEST PUSH1 0x1 PUSH1 0x0 DUP4 DUP4 PUSH1 0x40 MLOAD PUSH2 0x1753 SWAP3 SWAP2 SWAP1 PUSH2 0x367C JUMP JUMPDEST SWAP1 DUP2 MSTORE PUSH1 0x40 MLOAD SWAP1 DUP2 SWAP1 SUB PUSH1 0x20 ADD SWAP1 KECCAK256 PUSH1 0x9 ADD SLOAD PUSH1 0xFF PUSH1 0x1 PUSH1 0xA8 SHL SWAP1 SWAP2 DIV AND PUSH1 0x5 DUP2 GT ISZERO PUSH2 0x1782 JUMPI PUSH2 0x1782 PUSH2 0x30EA JUMP JUMPDEST EQ PUSH2 0x17B8 JUMPI PUSH1 0x40 MLOAD PUSH3 0x461BCD PUSH1 0xE5 SHL DUP2 MSTORE PUSH1 0x20 PUSH1 0x4 DUP3 ADD MSTORE PUSH1 0x6 PUSH1 0x24 DUP3 ADD MSTORE PUSH6 0x737461747573 PUSH1 0xD0 SHL PUSH1 0x44 DUP3 ADD MSTORE PUSH1 0x64 ADD PUSH2 0x748 JUMP JUMPDEST PUSH1 0x2 PUSH1 0x0 DUP4 DUP4 PUSH1 0x40 MLOAD PUSH2 0x17CC SWAP3 SWAP2 SWAP1 PUSH2 0x367C JUMP JUMPDEST SWAP1 DUP2 MSTORE PUSH1 0x40 MLOAD SWAP1 DUP2 SWAP1 SUB PUSH1 0x20 ADD SWAP1 KECCAK256 PUSH1 0x9 ADD DUP1 SLOAD PUSH1 0xFF PUSH1 0xA8 SHL NOT AND PUSH1 0x1 PUSH1 0xA8 SHL DUP4 PUSH1 0x5 DUP2 GT ISZERO PUSH2 0x17FE JUMPI PUSH2 0x17FE PUSH2 0x30EA JUMP JUMPDEST MUL OR SWAP1 SSTORE POP PUSH1 0x2 PUSH1 0xF PUSH1 0x0 DUP5 DUP5 PUSH1 0x40 MLOAD PUSH2 0x1819 SWAP3 SWAP2 SWAP1 PUSH2 0x367C JUMP JUMPDEST SWAP1 DUP2 MSTORE PUSH1 0x20 ADD PUSH1 0x40 MLOAD DUP1 SWAP2 SUB SWAP1 KECCAK256 PUSH1 0x8 ADD SLOAD DUP2 SLOAD DUP2 LT PUSH2 0x183B JUMPI PUSH2 0x183B PUSH2 0x372B JUMP JUMPDEST PUSH1 0x0 SWAP2 DUP3 MSTORE PUSH1 0x20 SWAP1 SWAP2 KECCAK256 PUSH1 0x9 PUSH1 0xA SWAP1 SWAP3 MUL ADD ADD DUP1 SLOAD PUSH1 0xFF PUSH1 0xA8 SHL NOT AND PUSH1 0x1 PUSH1 0xA8 SHL DUP4 PUSH1 0x5 DUP2 GT ISZERO PUSH2 0x186E JUMPI PUSH2 0x186E PUSH2 0x30EA JUMP JUMPDEST MUL OR SWAP1 SSTORE POP PUSH32 0x39501081328FFE3EB02459AD6F6E90B69E23BA1422B574EE84C1F52B2FC0310 DUP3 DUP3 PUSH1 0x40 MLOAD PUSH2 0x18A4 SWAP3 SWAP2 SWAP1 PUSH2 0x36B5 JUMP JUMPDEST PUSH1 0x40 MLOAD DUP1 SWAP2 SUB SWAP1 LOG1 POP POP JUMP JUMPDEST DUP2 MLOAD PUSH1 0x20 DUP2 DUP5 ADD DUP2 ADD DUP1 MLOAD PUSH1 0x3 DUP3 MSTORE SWAP3 DUP3 ADD SWAP2 DUP6 ADD SWAP2 SWAP1 SWAP2 KECCAK256 SWAP2 SWAP1 MSTORE DUP1 SLOAD DUP3 SWAP1 DUP2 LT PUSH2 0x18DB JUMPI PUSH1 0x0 DUP1 REVERT JUMPDEST PUSH1 0x0 SWAP2 DUP3 MSTORE PUSH1 0x20 SWAP1 SWAP2 KECCAK256 PUSH1 0x2 SWAP1 SWAP2 MUL ADD DUP1 SLOAD PUSH1 0x1 SWAP1 SWAP2 ADD SLOAD PUSH1 0x1 PUSH1 0x1 PUSH1 0xA0 SHL SUB SWAP1 SWAP2 AND SWAP3 POP SWAP1 POP DUP3 JUMP JUMPDEST PUSH1 0x6 PUSH1 0x20 MSTORE DUP2 PUSH1 0x0 MSTORE PUSH1 0x40 PUSH1 0x0 KECCAK256 DUP2 DUP2 SLOAD DUP2 LT PUSH2 0x1921 JUMPI PUSH1 0x0 DUP1 REVERT JUMPDEST SWAP1 PUSH1 0x0 MSTORE PUSH1 0x20 PUSH1 0x0 KECCAK256 SWAP1 PUSH1 0xA MUL ADD PUSH1 0x0 SWAP2 POP SWAP2 POP POP DUP1 PUSH1 0x0 ADD DUP1 SLOAD PUSH2 0x1945 SWAP1 PUSH2 0x37F5 JUMP JUMPDEST DUP1 PUSH1 0x1F ADD PUSH1 0x20 DUP1 SWAP2 DIV MUL PUSH1 0x20 ADD PUSH1 0x40 MLOAD SWAP1 DUP2 ADD PUSH1 0x40 MSTORE DUP1 SWAP3 SWAP2 SWAP1 DUP2 DUP2 MSTORE PUSH1 0x20 ADD DUP3 DUP1 SLOAD PUSH2 0x1971 SWAP1 PUSH2 0x37F5 JUMP JUMPDEST DUP1 ISZERO PUSH2 0x19BE JUMPI DUP1 PUSH1 0x1F LT PUSH2 0x1993 JUMPI PUSH2 0x100 DUP1 DUP4 SLOAD DIV MUL DUP4 MSTORE SWAP2 PUSH1 0x20 ADD SWAP2 PUSH2 0x19BE JUMP JUMPDEST DUP3 ADD SWAP2 SWAP1 PUSH1 0x0 MSTORE PUSH1 0x20 PUSH1 0x0 KECCAK256 SWAP1 JUMPDEST DUP2 SLOAD DUP2 MSTORE SWAP1 PUSH1 0x1 ADD SWAP1 PUSH1 0x20 ADD DUP1 DUP4 GT PUSH2 0x19A1 JUMPI DUP3 SWAP1 SUB PUSH1 0x1F AND DUP3 ADD SWAP2 JUMPDEST POP POP POP POP POP SWAP1 DUP1 PUSH1 0x1 ADD DUP1 SLOAD PUSH2 0x19D3 SWAP1 PUSH2 0x37F5 JUMP JUMPDEST DUP1 PUSH1 0x1F ADD PUSH1 0x20 DUP1 SWAP2 DIV MUL PUSH1 0x20 ADD PUSH1 0x40 MLOAD SWAP1 DUP2 ADD PUSH1 0x40 MSTORE DUP1 SWAP3 SWAP2 SWAP1 DUP2 DUP2 MSTORE PUSH1 0x20 ADD DUP3 DUP1 SLOAD PUSH2 0x19FF SWAP1 PUSH2 0x37F5 JUMP JUMPDEST DUP1 ISZERO PUSH2 0x1A4C JUMPI DUP1 PUSH1 0x1F LT PUSH2 0x1A21 JUMPI PUSH2 0x100 DUP1 DUP4 SLOAD DIV MUL DUP4 MSTORE SWAP2 PUSH1 0x20 ADD SWAP2 PUSH2 0x1A4C JUMP JUMPDEST DUP3 ADD SWAP2 SWAP1 PUSH1 0x0 MSTORE PUSH1 0x20 PUSH1 0x0 KECCAK256 SWAP1 JUMPDEST DUP2 SLOAD DUP2 MSTORE SWAP1 PUSH1 0x1 ADD SWAP1 PUSH1 0x20 ADD DUP1 DUP4 GT PUSH2 0x1A2F JUMPI DUP3 SWAP1 SUB PUSH1 0x1F AND DUP3 ADD SWAP2 JUMPDEST POP POP POP PUSH1 0x2 DUP5 ADD SLOAD PUSH1 0x3 DUP6 ADD SLOAD PUSH1 0x4 DUP7 ADD SLOAD PUSH1 0x5 DUP8 ADD SLOAD PUSH1 0x6 DUP9 ADD SLOAD PUSH1 0x7 DUP10 ADD SLOAD PUSH1 0x8 DUP11 ADD SLOAD PUSH1 0x9 SWAP1 SWAP11 ADD SLOAD SWAP9 SWAP10 PUSH1 0x1 PUSH1 0x1 PUSH1 0xA0 SHL SUB SWAP7 DUP8 AND SWAP10 SWAP6 SWAP9 POP SWAP4 SWAP7 POP SWAP2 SWAP5 SWAP1 SWAP4 SWAP2 SWAP3 SWAP2 SWAP1 DUP2 AND SWAP1 PUSH1 0xFF PUSH1 0x1 PUSH1 0xA0 SHL DUP3 DIV DUP2 AND SWAP2 PUSH1 0x1 PUSH1 0xA8 SHL SWAP1 DIV AND DUP13 JUMP JUMPDEST PUSH1 0x7 SLOAD PUSH1 0x1 PUSH1 0x1 PUSH1 0xA0 SHL SUB AND CALLER EQ PUSH2 0x1AFD JUMPI PUSH1 0x40 MLOAD PUSH3 0x461BCD PUSH1 0xE5 SHL DUP2 MSTORE PUSH1 0x20 PUSH1 0x4 DUP3 ADD MSTORE PUSH1 0x12 PUSH1 0x24 DUP3 ADD MSTORE PUSH18 0x27A7262CAFAA27A827A9AFA6A0A720A3A2A9 PUSH1 0x71 SHL PUSH1 0x44 DUP3 ADD MSTORE PUSH1 0x64 ADD PUSH2 0x748 JUMP JUMPDEST PUSH1 0x2 PUSH1 0x0 DUP6 DUP6 PUSH1 0x40 MLOAD PUSH2 0x1B11 SWAP3 SWAP2 SWAP1 PUSH2 0x367C JUMP JUMPDEST SWAP1 DUP2 MSTORE PUSH1 0x40 MLOAD SWAP1 DUP2 SWAP1 SUB PUSH1 0x20 ADD SWAP1 KECCAK256 PUSH1 0x9 ADD SLOAD PUSH1 0xFF PUSH1 0x1 PUSH1 0xA8 SHL SWAP1 SWAP2 DIV AND PUSH1 0x5 DUP2 GT ISZERO PUSH2 0x1B40 JUMPI PUSH2 0x1B40 PUSH2 0x30EA JUMP JUMPDEST EQ PUSH2 0x1B62 JUMPI DUP4 DUP4 PUSH1 0x40 MLOAD PUSH4 0x2DC59421 PUSH1 0xE2 SHL DUP2 MSTORE PUSH1 0x4 ADD PUSH2 0x748 SWAP3 SWAP2 SWAP1 PUSH2 0x36B5 JUMP JUMPDEST DUP1 PUSH1 0x1 DUP6 DUP6 PUSH1 0x40 MLOAD PUSH2 0x1B75 SWAP3 SWAP2 SWAP1 PUSH2 0x367C JUMP JUMPDEST SWAP1 DUP2 MSTORE PUSH1 0x20 ADD PUSH1 0x40 MLOAD DUP1 SWAP2 SUB SWAP1 KECCAK256 PUSH1 0x0 PUSH2 0x100 EXP DUP2 SLOAD DUP2 PUSH1 0x1 PUSH1 0x1 PUSH1 0xA0 SHL SUB MUL NOT AND SWAP1 DUP4 PUSH1 0x1 PUSH1 0x1 PUSH1 0xA0 SHL SUB AND MUL OR SWAP1 SSTORE POP PUSH1 0x4 PUSH1 0x0 DUP6 DUP6 PUSH1 0x40 MLOAD PUSH2 0x1BBB SWAP3 SWAP2 SWAP1 PUSH2 0x367C JUMP JUMPDEST SWAP1 DUP2 MSTORE PUSH1 0x40 MLOAD SWAP1 DUP2 SWAP1 SUB PUSH1 0x20 ADD SWAP1 KECCAK256 PUSH1 0x9 ADD DUP1 SLOAD PUSH1 0xFF PUSH1 0xA8 SHL NOT AND PUSH1 0x1 PUSH1 0xA8 SHL DUP4 PUSH1 0x5 DUP2 GT ISZERO PUSH2 0x1BED JUMPI PUSH2 0x1BED PUSH2 0x30EA JUMP JUMPDEST MUL OR SWAP1 SSTORE POP PUSH1 0x4 PUSH1 0xF PUSH1 0x0 DUP7 DUP7 PUSH1 0x40 MLOAD PUSH2 0x1C08 SWAP3 SWAP2 SWAP1 PUSH2 0x367C JUMP JUMPDEST SWAP1 DUP2 MSTORE PUSH1 0x20 ADD PUSH1 0x40 MLOAD DUP1 SWAP2 SUB SWAP1 KECCAK256 PUSH1 0x8 ADD SLOAD DUP2 SLOAD DUP2 LT PUSH2 0x1C2A JUMPI PUSH2 0x1C2A PUSH2 0x372B JUMP JUMPDEST PUSH1 0x0 SWAP2 DUP3 MSTORE PUSH1 0x20 SWAP1 SWAP2 KECCAK256 PUSH1 0x9 PUSH1 0xA SWAP1 SWAP3 MUL ADD ADD DUP1 SLOAD PUSH1 0xFF PUSH1 0xA8 SHL NOT AND PUSH1 0x1 PUSH1 0xA8 SHL DUP4 PUSH1 0x5 DUP2 GT ISZERO PUSH2 0x1C5D JUMPI PUSH2 0x1C5D PUSH2 0x30EA JUMP JUMPDEST MUL OR SWAP1 SSTORE POP PUSH1 0x6 PUSH1 0x0 DUP1 DUP7 DUP7 PUSH1 0x40 MLOAD PUSH2 0x1C77 SWAP3 SWAP2 SWAP1 PUSH2 0x367C JUMP JUMPDEST SWAP1 DUP2 MSTORE PUSH1 0x40 DUP1 MLOAD PUSH1 0x20 SWAP3 DUP2 SWAP1 SUB DUP4 ADD SWAP1 KECCAK256 PUSH1 0x2 ADD SLOAD PUSH1 0x1 PUSH1 0x1 PUSH1 0xA0 SHL SUB AND DUP4 MSTORE SWAP1 DUP3 ADD SWAP3 SWAP1 SWAP3 MSTORE DUP2 ADD PUSH1 0x0 SWAP1 DUP2 KECCAK256 SWAP2 MLOAD PUSH2 0x1CB4 SWAP1 DUP8 SWAP1 DUP8 SWAP1 PUSH2 0x367C JUMP JUMPDEST SWAP1 DUP2 MSTORE PUSH1 0x40 MLOAD PUSH1 0x20 SWAP2 DUP2 SWAP1 SUB DUP3 ADD SWAP1 KECCAK256 DUP3 SLOAD PUSH1 0x1 DUP2 ADD DUP5 SSTORE PUSH1 0x0 SWAP4 DUP5 MSTORE SWAP2 SWAP1 SWAP3 KECCAK256 PUSH1 0xA SWAP1 SWAP2 MUL ADD DUP1 PUSH2 0x1CE6 DUP4 DUP3 PUSH2 0x3B07 JUMP JUMPDEST POP PUSH1 0x1 DUP2 DUP2 ADD SWAP1 PUSH2 0x1CF9 SWAP1 DUP5 ADD DUP3 PUSH2 0x3B07 JUMP JUMPDEST POP PUSH1 0x2 DUP3 DUP2 ADD SLOAD SWAP1 DUP3 ADD DUP1 SLOAD PUSH1 0x1 PUSH1 0x1 PUSH1 0xA0 SHL SUB SWAP3 DUP4 AND PUSH1 0x1 PUSH1 0x1 PUSH1 0xA0 SHL SUB NOT SWAP2 DUP3 AND OR SWAP1 SWAP2 SSTORE PUSH1 0x3 DUP1 DUP6 ADD SLOAD SWAP1 DUP5 ADD SSTORE PUSH1 0x4 DUP1 DUP6 ADD SLOAD SWAP1 DUP5 ADD SSTORE PUSH1 0x5 DUP1 DUP6 ADD SLOAD DUP2 DUP6 ADD SSTORE PUSH1 0x6 DUP1 DUP7 ADD SLOAD SWAP1 DUP6 ADD SSTORE PUSH1 0x7 DUP1 DUP7 ADD SLOAD SWAP1 DUP6 ADD SSTORE PUSH1 0x8 DUP1 DUP7 ADD SLOAD SWAP1 DUP6 ADD SSTORE PUSH1 0x9 DUP1 DUP7 ADD DUP1 SLOAD SWAP2 DUP7 ADD DUP1 SLOAD SWAP3 SWAP1 SWAP6 AND SWAP4 DUP3 AND DUP5 OR DUP6 SSTORE DUP1 SLOAD PUSH21 0xFFFFFFFFFFFFFFFFFFFFFFFFFFFFFFFFFFFFFFFFFF NOT SWAP1 SWAP3 AND SWAP1 SWAP4 OR PUSH1 0x1 PUSH1 0xA0 SHL SWAP2 DUP3 SWAP1 DIV PUSH1 0xFF SWAP1 DUP2 AND SWAP1 SWAP3 MUL OR DUP1 DUP6 SSTORE SWAP3 SLOAD PUSH1 0x1 PUSH1 0xA8 SHL SWAP1 DUP2 SWAP1 DIV SWAP1 SWAP2 AND SWAP4 SWAP3 PUSH1 0xFF PUSH1 0xA8 SHL NOT AND SWAP2 DUP5 SWAP1 DUP2 GT ISZERO PUSH2 0x1DD0 JUMPI PUSH2 0x1DD0 PUSH2 0x30EA JUMP JUMPDEST MUL OR SWAP1 SSTORE POP POP PUSH1 0x10 DUP1 SLOAD PUSH1 0x1 DUP2 ADD DUP3 SSTORE PUSH1 0x0 SWAP2 SWAP1 SWAP2 MSTORE PUSH32 0x1B6847DC741A1B0CD08D278845F9D819D87B734759AFB55FE2DE5CB82A9AE672 ADD SWAP1 POP PUSH2 0x1E15 DUP5 DUP7 DUP4 PUSH2 0x387A JUMP JUMPDEST POP PUSH1 0x40 MLOAD PUSH32 0xD76805AA00000000000000000000000000000000000000000000000000000000 DUP2 MSTORE PUSH1 0x1 PUSH1 0x1 PUSH1 0xA0 SHL SUB DUP3 AND SWAP1 PUSH4 0xD76805AA SWAP1 PUSH2 0x1E5B SWAP1 DUP6 SWAP1 PUSH1 0x4 ADD PUSH2 0x3D85 JUMP JUMPDEST PUSH1 0x0 PUSH1 0x40 MLOAD DUP1 DUP4 SUB DUP2 PUSH1 0x0 DUP8 DUP1 EXTCODESIZE ISZERO DUP1 ISZERO PUSH2 0x1E75 JUMPI PUSH1 0x0 DUP1 REVERT JUMPDEST POP GAS CALL ISZERO DUP1 ISZERO PUSH2 0x1E89 JUMPI RETURNDATASIZE PUSH1 0x0 DUP1 RETURNDATACOPY RETURNDATASIZE PUSH1 0x0 REVERT JUMPDEST POP POP PUSH1 0xE DUP1 SLOAD PUSH1 0x1 DUP2 ADD DUP3 SSTORE PUSH1 0x0 SWAP2 SWAP1 SWAP2 MSTORE DUP5 SWAP3 POP PUSH1 0xB MUL PUSH32 0xBB7B4A454DC3493923482F07822329ED19E8244EFF582CC204F8554C3620C3FD ADD SWAP1 POP PUSH2 0x1ECF DUP3 DUP3 PUSH2 0x3E89 JUMP JUMPDEST POP POP PUSH32 0x44B55C2D9270546FAF6FF2F0ACAC078011883B82782D9B08DE2D3AF4543C2B18 DUP5 DUP5 PUSH1 0x40 MLOAD PUSH2 0xD4C SWAP3 SWAP2 SWAP1 PUSH2 0x36B5 JUMP JUMPDEST PUSH1 0x0 PUSH1 0x4 DUP4 DUP4 PUSH1 0x40 MLOAD PUSH2 0x1F16 SWAP3 SWAP2 SWAP1 PUSH2 0x367C JUMP JUMPDEST SWAP1 DUP2 MSTORE PUSH1 0x20 ADD PUSH1 0x40 MLOAD DUP1 SWAP2 SUB SWAP1 KECCAK256 SLOAD SWAP1 POP JUMPDEST SWAP3 SWAP2 POP POP JUMP JUMPDEST PUSH1 0x7 SLOAD PUSH1 0x1 PUSH1 0x1 PUSH1 0xA0 SHL SUB AND CALLER EQ PUSH2 0x1F7D JUMPI PUSH1 0x40 MLOAD PUSH3 0x461BCD PUSH1 0xE5 SHL DUP2 MSTORE PUSH1 0x20 PUSH1 0x4 DUP3 ADD MSTORE PUSH1 0x12 PUSH1 0x24 DUP3 ADD MSTORE PUSH18 0x27A7262CAFAA27A827A9AFA6A0A720A3A2A9 PUSH1 0x71 SHL PUSH1 0x44 DUP3 ADD MSTORE PUSH1 0x64 ADD PUSH2 0x748 JUMP JUMPDEST PUSH1 0x1 PUSH1 0x0 DUP4 DUP4 PUSH1 0x40 MLOAD PUSH2 0x1F91 SWAP3 SWAP2 SWAP1 PUSH2 0x367C JUMP JUMPDEST SWAP1 DUP2 MSTORE PUSH1 0x40 MLOAD SWAP1 DUP2 SWAP1 SUB PUSH1 0x20 ADD SWAP1 KECCAK256 PUSH1 0x9 ADD SLOAD PUSH1 0xFF PUSH1 0x1 PUSH1 0xA8 SHL SWAP1 SWAP2 DIV AND PUSH1 0x5 DUP2 GT ISZERO PUSH2 0x1FC0 JUMPI PUSH2 0x1FC0 PUSH2 0x30EA JUMP JUMPDEST EQ PUSH2 0x1FF6 JUMPI PUSH1 0x40 MLOAD PUSH3 0x461BCD PUSH1 0xE5 SHL DUP2 MSTORE PUSH1 0x20 PUSH1 0x4 DUP3 ADD MSTORE PUSH1 0x6 PUSH1 0x24 DUP3 ADD MSTORE PUSH6 0x737461747573 PUSH1 0xD0 SHL PUSH1 0x44 DUP3 ADD MSTORE PUSH1 0x64 ADD PUSH2 0x748 JUMP JUMPDEST PUSH1 0x3 PUSH1 0x0 DUP4 DUP4 PUSH1 0x40 MLOAD PUSH2 0x200A SWAP3 SWAP2 SWAP1 PUSH2 0x367C JUMP JUMPDEST SWAP1 DUP2 MSTORE PUSH1 0x40 MLOAD SWAP1 DUP2 SWAP1 SUB PUSH1 0x20 ADD SWAP1 KECCAK256 PUSH1 0x9 ADD DUP1 SLOAD PUSH1 0xFF PUSH1 0xA8 SHL NOT AND PUSH1 0x1 PUSH1 0xA8 SHL DUP4 PUSH1 0x5 DUP2 GT ISZERO PUSH2 0x203C JUMPI PUSH2 0x203C PUSH2 0x30EA JUMP JUMPDEST MUL OR SWAP1 SSTORE POP PUSH1 0x3 PUSH1 0xF PUSH1 0x0 DUP5 DUP5 PUSH1 0x40 MLOAD PUSH2 0x2057 SWAP3 SWAP2 SWAP1 PUSH2 0x367C JUMP JUMPDEST SWAP1 DUP2 MSTORE PUSH1 0x20 ADD PUSH1 0x40 MLOAD DUP1 SWAP2 SUB SWAP1 KECCAK256 PUSH1 0x8 ADD SLOAD DUP2 SLOAD DUP2 LT PUSH2 0x2079 JUMPI PUSH2 0x2079 PUSH2 0x372B JUMP JUMPDEST PUSH1 0x0 SWAP2 DUP3 MSTORE PUSH1 0x20 SWAP1 SWAP2 KECCAK256 PUSH1 0x9 PUSH1 0xA SWAP1 SWAP3 MUL ADD ADD DUP1 SLOAD PUSH1 0xFF PUSH1 0xA8 SHL NOT AND PUSH1 0x1 PUSH1 0xA8 SHL DUP4 PUSH1 0x5 DUP2 GT ISZERO PUSH2 0x20AC JUMPI PUSH2 0x20AC PUSH2 0x30EA JUMP JUMPDEST MUL OR SWAP1 SSTORE POP PUSH32 0x735CCDD611541D36C82A3622BAAB7F58B8A0F5BE664555B0D9C95DDDE16096D3 DUP3 DUP3 PUSH1 0x40 MLOAD PUSH2 0x18A4 SWAP3 SWAP2 SWAP1 PUSH2 0x36B5 JUMP JUMPDEST PUSH1 0x7 SLOAD PUSH1 0x1 PUSH1 0x1 PUSH1 0xA0 SHL SUB AND CALLER EQ PUSH2 0x2131 JUMPI PUSH1 0x40 MLOAD PUSH3 0x461BCD PUSH1 0xE5 SHL DUP2 MSTORE PUSH1 0x20 PUSH1 0x4 DUP3 ADD MSTORE PUSH1 0x12 PUSH1 0x24 DUP3 ADD MSTORE PUSH18 0x27A7262CAFAA27A827A9AFA6A0A720A3A2A9 PUSH1 0x71 SHL PUSH1 0x44 DUP3 ADD MSTORE PUSH1 0x64 ADD PUSH2 0x748 JUMP JUMPDEST PUSH1 0x1 PUSH1 0x1 PUSH1 0xA0 SHL SUB DUP2 AND PUSH2 0x2144 JUMPI PUSH1 0x0 DUP1 REVERT JUMPDEST PUSH1 0xC DUP1 SLOAD PUSH1 0x1 PUSH1 0x1 PUSH1 0xA0 SHL SUB NOT AND PUSH1 0x1 PUSH1 0x1 PUSH1 0xA0 SHL SUB SWAP3 SWAP1 SWAP3 AND SWAP2 SWAP1 SWAP2 OR SWAP1 SSTORE JUMP JUMPDEST PUSH1 0x7 SLOAD PUSH1 0x1 PUSH1 0x1 PUSH1 0xA0 SHL SUB AND CALLER EQ PUSH2 0x21B5 JUMPI PUSH1 0x40 MLOAD PUSH3 0x461BCD PUSH1 0xE5 SHL DUP2 MSTORE PUSH1 0x20 PUSH1 0x4 DUP3 ADD MSTORE PUSH1 0x12 PUSH1 0x24 DUP3 ADD MSTORE PUSH18 0x27A7262CAFAA27A827A9AFA6A0A720A3A2A9 PUSH1 0x71 SHL PUSH1 0x44 DUP3 ADD MSTORE PUSH1 0x64 ADD PUSH2 0x748 JUMP JUMPDEST PUSH1 0x40 MLOAD PUSH32 0x68A2DA5100000000000000000000000000000000000000000000000000000000 DUP2 MSTORE PUSH1 0x4 DUP2 ADD DUP4 SWAP1 MSTORE PUSH1 0x1 PUSH1 0x1 PUSH1 0xA0 SHL SUB DUP3 AND SWAP1 PUSH4 0x68A2DA51 SWAP1 PUSH1 0x24 ADD PUSH1 0x0 PUSH1 0x40 MLOAD DUP1 DUP4 SUB DUP2 PUSH1 0x0 DUP8 DUP1 EXTCODESIZE ISZERO DUP1 ISZERO PUSH2 0x2210 JUMPI PUSH1 0x0 DUP1 REVERT JUMPDEST POP GAS CALL ISZERO DUP1 ISZERO PUSH2 0x2224 JUMPI RETURNDATASIZE PUSH1 0x0 DUP1 RETURNDATACOPY RETURNDATASIZE PUSH1 0x0 REVERT JUMPDEST POP POP POP POP POP POP JUMP JUMPDEST DUP1 MLOAD PUSH1 0x20 DUP2 DUP4 ADD DUP2 ADD DUP1 MLOAD PUSH1 0x0 DUP3 MSTORE SWAP3 DUP3 ADD SWAP2 SWAP1 SWAP4 ADD KECCAK256 SWAP2 MSTORE DUP1 SLOAD DUP2 SWAP1 PUSH2 0x1945 SWAP1 PUSH2 0x37F5 JUMP JUMPDEST PUSH1 0x7 SLOAD PUSH1 0x1 PUSH1 0x1 PUSH1 0xA0 SHL SUB AND CALLER EQ PUSH2 0x22A1 JUMPI PUSH1 0x40 MLOAD PUSH3 0x461BCD PUSH1 0xE5 SHL DUP2 MSTORE PUSH1 0x20 PUSH1 0x4 DUP3 ADD MSTORE PUSH1 0x12 PUSH1 0x24 DUP3 ADD MSTORE PUSH18 0x27A7262CAFAA27A827A9AFA6A0A720A3A2A9 PUSH1 0x71 SHL PUSH1 0x44 DUP3 ADD MSTORE PUSH1 0x64 ADD PUSH2 0x748 JUMP JUMPDEST DUP1 PUSH1 0x1 PUSH1 0x1 PUSH1 0xA0 SHL SUB AND PUSH4 0x442447CA PUSH1 0x40 MLOAD DUP2 PUSH4 0xFFFFFFFF AND PUSH1 0xE0 SHL DUP2 MSTORE PUSH1 0x4 ADD PUSH1 0x0 PUSH1 0x40 MLOAD DUP1 DUP4 SUB DUP2 PUSH1 0x0 DUP8 DUP1 EXTCODESIZE ISZERO DUP1 ISZERO PUSH2 0x131F JUMPI PUSH1 0x0 DUP1 REVERT JUMPDEST PUSH1 0x60 PUSH1 0x3 DUP4 DUP4 PUSH1 0x40 MLOAD PUSH2 0x22F0 SWAP3 SWAP2 SWAP1 PUSH2 0x367C JUMP JUMPDEST SWAP1 DUP2 MSTORE PUSH1 0x20 ADD PUSH1 0x40 MLOAD DUP1 SWAP2 SUB SWAP1 KECCAK256 DUP1 SLOAD DUP1 PUSH1 0x20 MUL PUSH1 0x20 ADD PUSH1 0x40 MLOAD SWAP1 DUP2 ADD PUSH1 0x40 MSTORE DUP1 SWAP3 SWAP2 SWAP1 DUP2 DUP2 MSTORE PUSH1 0x20 ADD PUSH1 0x0 SWAP1 JUMPDEST DUP3 DUP3 LT ISZERO PUSH2 0x2366 JUMPI PUSH1 0x0 DUP5 DUP2 MSTORE PUSH1 0x20 SWAP1 DUP2 SWAP1 KECCAK256 PUSH1 0x40 DUP1 MLOAD DUP1 DUP3 ADD SWAP1 SWAP2 MSTORE PUSH1 0x2 DUP6 MUL SWAP1 SWAP2 ADD DUP1 SLOAD PUSH1 0x1 PUSH1 0x1 PUSH1 0xA0 SHL SUB AND DUP3 MSTORE PUSH1 0x1 SWAP1 DUP2 ADD SLOAD DUP3 DUP5 ADD MSTORE SWAP1 DUP4 MSTORE SWAP1 SWAP3 ADD SWAP2 ADD PUSH2 0x231E JUMP JUMPDEST POP POP POP POP SWAP1 POP SWAP3 SWAP2 POP POP JUMP JUMPDEST PUSH1 0x7 SLOAD PUSH1 0x1 PUSH1 0x1 PUSH1 0xA0 SHL SUB AND CALLER EQ PUSH2 0x23C1 JUMPI PUSH1 0x40 MLOAD PUSH3 0x461BCD PUSH1 0xE5 SHL DUP2 MSTORE PUSH1 0x20 PUSH1 0x4 DUP3 ADD MSTORE PUSH1 0x12 PUSH1 0x24 DUP3 ADD MSTORE PUSH18 0x27A7262CAFAA27A827A9AFA6A0A720A3A2A9 PUSH1 0x71 SHL PUSH1 0x44 DUP3 ADD MSTORE PUSH1 0x64 ADD PUSH2 0x748 JUMP JUMPDEST PUSH1 0x8 SLOAD PUSH1 0x40 DUP1 MLOAD PUSH32 0xCFDE189000000000000000000000000000000000000000000000000000000000 DUP2 MSTORE PUSH1 0x4 DUP2 ADD SWAP2 SWAP1 SWAP2 MSTORE PUSH1 0x7 PUSH1 0x44 DUP3 ADD MSTORE PUSH32 0x4D414E4147455200000000000000000000000000000000000000000000000000 PUSH1 0x64 DUP3 ADD MSTORE PUSH1 0x1 PUSH1 0x1 PUSH1 0xA0 SHL SUB DUP4 DUP2 AND PUSH1 0x24 DUP4 ADD MSTORE SWAP1 SWAP2 AND SWAP1 PUSH4 0xCFDE1890 SWAP1 PUSH1 0x84 ADD PUSH2 0x1305 JUMP JUMPDEST PUSH1 0x7 SLOAD PUSH1 0x1 PUSH1 0x1 PUSH1 0xA0 SHL SUB AND CALLER EQ PUSH2 0x2491 JUMPI PUSH1 0x40 MLOAD PUSH3 0x461BCD PUSH1 0xE5 SHL DUP2 MSTORE PUSH1 0x20 PUSH1 0x4 DUP3 ADD MSTORE PUSH1 0x12 PUSH1 0x24 DUP3 ADD MSTORE PUSH18 0x27A7262CAFAA27A827A9AFA6A0A720A3A2A9 PUSH1 0x71 SHL PUSH1 0x44 DUP3 ADD MSTORE PUSH1 0x64 ADD PUSH2 0x748 JUMP JUMPDEST PUSH1 0x4 PUSH1 0x0 DUP5 DUP5 PUSH1 0x40 MLOAD PUSH2 0x24A5 SWAP3 SWAP2 SWAP1 PUSH2 0x367C JUMP JUMPDEST SWAP1 DUP2 MSTORE PUSH1 0x40 MLOAD SWAP1 DUP2 SWAP1 SUB PUSH1 0x20 ADD SWAP1 KECCAK256 PUSH1 0x9 ADD SLOAD PUSH1 0xFF PUSH1 0x1 PUSH1 0xA8 SHL SWAP1 SWAP2 DIV AND PUSH1 0x5 DUP2 GT ISZERO PUSH2 0x24D4 JUMPI PUSH2 0x24D4 PUSH2 0x30EA JUMP JUMPDEST EQ PUSH2 0x24F6 JUMPI DUP3 DUP3 PUSH1 0x40 MLOAD PUSH4 0x2DC59421 PUSH1 0xE2 SHL DUP2 MSTORE PUSH1 0x4 ADD PUSH2 0x748 SWAP3 SWAP2 SWAP1 PUSH2 0x36B5 JUMP JUMPDEST PUSH1 0x5 PUSH1 0x0 DUP5 DUP5 PUSH1 0x40 MLOAD PUSH2 0x250A SWAP3 SWAP2 SWAP1 PUSH2 0x367C JUMP JUMPDEST SWAP1 DUP2 MSTORE PUSH1 0x40 MLOAD SWAP1 DUP2 SWAP1 SUB PUSH1 0x20 ADD SWAP1 KECCAK256 PUSH1 0x9 ADD DUP1 SLOAD PUSH1 0xFF PUSH1 0xA8 SHL NOT AND PUSH1 0x1 PUSH1 0xA8 SHL DUP4 PUSH1 0x5 DUP2 GT ISZERO PUSH2 0x253C JUMPI PUSH2 0x253C PUSH2 0x30EA JUMP JUMPDEST MUL OR SWAP1 SSTORE POP PUSH1 0x5 PUSH1 0xF PUSH1 0x0 DUP6 DUP6 PUSH1 0x40 MLOAD PUSH2 0x2557 SWAP3 SWAP2 SWAP1 PUSH2 0x367C JUMP JUMPDEST SWAP1 DUP2 MSTORE PUSH1 0x20 ADD PUSH1 0x40 MLOAD DUP1 SWAP2 SUB SWAP1 KECCAK256 PUSH1 0x8 ADD SLOAD DUP2 SLOAD DUP2 LT PUSH2 0x2579 JUMPI PUSH2 0x2579 PUSH2 0x372B JUMP JUMPDEST PUSH1 0x0 SWAP2 DUP3 MSTORE PUSH1 0x20 SWAP1 SWAP2 KECCAK256 PUSH1 0x9 PUSH1 0xA SWAP1 SWAP3 MUL ADD ADD DUP1 SLOAD PUSH1 0xFF PUSH1 0xA8 SHL NOT AND PUSH1 0x1 PUSH1 0xA8 SHL DUP4 PUSH1 0x5 DUP2 GT ISZERO PUSH2 0x25AC JUMPI PUSH2 0x25AC PUSH2 0x30EA JUMP JUMPDEST MUL OR SWAP1 SSTORE POP PUSH1 0x5 PUSH1 0x6 PUSH1 0x0 DUP1 DUP7 DUP7 PUSH1 0x40 MLOAD PUSH2 0x25C8 SWAP3 SWAP2 SWAP1 PUSH2 0x367C JUMP JUMPDEST SWAP1 DUP2 MSTORE PUSH1 0x40 DUP1 MLOAD PUSH1 0x20 SWAP3 DUP2 SWAP1 SUB DUP4 ADD SWAP1 KECCAK256 PUSH1 0x2 ADD SLOAD PUSH1 0x1 PUSH1 0x1 PUSH1 0xA0 SHL SUB AND DUP4 MSTORE SWAP1 DUP3 ADD SWAP3 SWAP1 SWAP3 MSTORE DUP2 ADD PUSH1 0x0 SWAP1 DUP2 KECCAK256 SWAP2 MLOAD PUSH2 0x2605 SWAP1 DUP8 SWAP1 DUP8 SWAP1 PUSH2 0x367C JUMP JUMPDEST SWAP1 DUP2 MSTORE PUSH1 0x20 ADD PUSH1 0x40 MLOAD DUP1 SWAP2 SUB SWAP1 KECCAK256 PUSH1 0x8 ADD SLOAD DUP2 SLOAD DUP2 LT PUSH2 0x2627 JUMPI PUSH2 0x2627 PUSH2 0x372B JUMP JUMPDEST PUSH1 0x0 SWAP2 DUP3 MSTORE PUSH1 0x20 SWAP1 SWAP2 KECCAK256 PUSH1 0x9 PUSH1 0xA SWAP1 SWAP3 MUL ADD ADD DUP1 SLOAD PUSH1 0xFF PUSH1 0xA8 SHL NOT AND PUSH1 0x1 PUSH1 0xA8 SHL DUP4 PUSH1 0x5 DUP2 GT ISZERO PUSH2 0x265A JUMPI PUSH2 0x265A PUSH2 0x30EA JUMP JUMPDEST MUL OR SWAP1 SSTORE POP DUP1 PUSH1 0x1 PUSH1 0x1 PUSH1 0xA0 SHL SUB AND PUSH4 0xBE040FB0 PUSH1 0x40 MLOAD DUP2 PUSH4 0xFFFFFFFF AND PUSH1 0xE0 SHL DUP2 MSTORE PUSH1 0x4 ADD PUSH1 0x0 PUSH1 0x40 MLOAD DUP1 DUP4 SUB DUP2 PUSH1 0x0 DUP8 DUP1 EXTCODESIZE ISZERO DUP1 ISZERO PUSH2 0x269A JUMPI PUSH1 0x0 DUP1 REVERT JUMPDEST POP GAS CALL ISZERO DUP1 ISZERO PUSH2 0x26AE JUMPI RETURNDATASIZE PUSH1 0x0 DUP1 RETURNDATACOPY RETURNDATASIZE PUSH1 0x0 REVERT JUMPDEST POP POP POP POP PUSH1 0x0 JUMPDEST PUSH1 0x3 DUP5 DUP5 PUSH1 0x40 MLOAD PUSH2 0x26C7 SWAP3 SWAP2 SWAP1 PUSH2 0x367C JUMP JUMPDEST SWAP1 DUP2 MSTORE PUSH1 0x40 MLOAD SWAP1 DUP2 SWAP1 SUB PUSH1 0x20 ADD SWAP1 KECCAK256 SLOAD DUP2 LT ISZERO PUSH2 0x285E JUMPI PUSH1 0x0 PUSH1 0x3 DUP6 DUP6 PUSH1 0x40 MLOAD PUSH2 0x26F2 SWAP3 SWAP2 SWAP1 PUSH2 0x367C JUMP JUMPDEST SWAP1 DUP2 MSTORE PUSH1 0x20 ADD PUSH1 0x40 MLOAD DUP1 SWAP2 SUB SWAP1 KECCAK256 DUP3 DUP2 SLOAD DUP2 LT PUSH2 0x2711 JUMPI PUSH2 0x2711 PUSH2 0x372B JUMP JUMPDEST SWAP1 PUSH1 0x0 MSTORE PUSH1 0x20 PUSH1 0x0 KECCAK256 SWAP1 PUSH1 0x2 MUL ADD PUSH1 0x1 ADD SLOAD SWAP1 POP PUSH1 0x0 PUSH1 0x3 DUP7 DUP7 PUSH1 0x40 MLOAD PUSH2 0x2739 SWAP3 SWAP2 SWAP1 PUSH2 0x367C JUMP JUMPDEST SWAP1 DUP2 MSTORE PUSH1 0x20 ADD PUSH1 0x40 MLOAD DUP1 SWAP2 SUB SWAP1 KECCAK256 DUP4 DUP2 SLOAD DUP2 LT PUSH2 0x2758 JUMPI PUSH2 0x2758 PUSH2 0x372B JUMP JUMPDEST PUSH1 0x0 SWAP2 DUP3 MSTORE PUSH1 0x20 SWAP1 SWAP2 KECCAK256 PUSH1 0x2 SWAP1 SWAP2 MUL ADD SLOAD PUSH1 0x1 PUSH1 0x1 PUSH1 0xA0 SHL SUB AND SWAP1 POP DUP2 ISZERO PUSH2 0x2849 JUMPI PUSH1 0x0 DUP7 DUP7 PUSH1 0x40 MLOAD PUSH2 0x278C SWAP3 SWAP2 SWAP1 PUSH2 0x367C JUMP JUMPDEST SWAP1 DUP2 MSTORE PUSH1 0x40 MLOAD SWAP1 DUP2 SWAP1 SUB PUSH1 0x20 ADD SWAP1 KECCAK256 PUSH1 0x9 ADD SLOAD PUSH1 0x1 PUSH1 0x1 PUSH1 0xA0 SHL SUB AND PUSH4 0xA9059CBB DUP3 PUSH2 0x27C0 DUP6 PUSH8 0xDE0B6B3A7640000 PUSH2 0x36DF JUMP JUMPDEST PUSH1 0x40 MLOAD PUSH32 0xFFFFFFFF00000000000000000000000000000000000000000000000000000000 PUSH1 0xE0 DUP6 SWAP1 SHL AND DUP2 MSTORE PUSH1 0x1 PUSH1 0x1 PUSH1 0xA0 SHL SUB SWAP1 SWAP3 AND PUSH1 0x4 DUP4 ADD MSTORE PUSH1 0x24 DUP3 ADD MSTORE PUSH1 0x44 ADD PUSH1 0x20 PUSH1 0x40 MLOAD DUP1 DUP4 SUB DUP2 PUSH1 0x0 DUP8 GAS CALL ISZERO DUP1 ISZERO PUSH2 0x2823 JUMPI RETURNDATASIZE PUSH1 0x0 DUP1 RETURNDATACOPY RETURNDATASIZE PUSH1 0x0 REVERT JUMPDEST POP POP POP POP PUSH1 0x40 MLOAD RETURNDATASIZE PUSH1 0x1F NOT PUSH1 0x1F DUP3 ADD AND DUP3 ADD DUP1 PUSH1 0x40 MSTORE POP DUP2 ADD SWAP1 PUSH2 0x2847 SWAP2 SWAP1 PUSH2 0x365A JUMP JUMPDEST POP JUMPDEST POP POP DUP1 DUP1 PUSH2 0x2856 SWAP1 PUSH2 0x3F71 JUMP JUMPDEST SWAP2 POP POP PUSH2 0x26B5 JUMP JUMPDEST POP PUSH32 0xDFDF42FF0D0EB3E6EC5B40D8CF21FB2F7102B67E5E2D56AB36E817F807213C5B DUP4 DUP4 PUSH1 0x40 MLOAD PUSH2 0x1150 SWAP3 SWAP2 SWAP1 PUSH2 0x36B5 JUMP JUMPDEST PUSH2 0x2898 PUSH2 0x2D02 JUMP JUMPDEST PUSH1 0x0 DUP3 PUSH1 0x40 MLOAD PUSH2 0x28A8 SWAP2 SWAP1 PUSH2 0x3792 JUMP JUMPDEST SWAP1 DUP2 MSTORE PUSH1 0x20 ADD PUSH1 0x40 MLOAD DUP1 SWAP2 SUB SWAP1 KECCAK256 PUSH1 0x40 MLOAD DUP1 PUSH2 0x180 ADD PUSH1 0x40 MSTORE SWAP1 DUP2 PUSH1 0x0 DUP3 ADD DUP1 SLOAD PUSH2 0x28D2 SWAP1 PUSH2 0x37F5 JUMP JUMPDEST DUP1 PUSH1 0x1F ADD PUSH1 0x20 DUP1 SWAP2 DIV MUL PUSH1 0x20 ADD PUSH1 0x40 MLOAD SWAP1 DUP2 ADD PUSH1 0x40 MSTORE DUP1 SWAP3 SWAP2 SWAP1 DUP2 DUP2 MSTORE PUSH1 0x20 ADD DUP3 DUP1 SLOAD PUSH2 0x28FE SWAP1 PUSH2 0x37F5 JUMP JUMPDEST DUP1 ISZERO PUSH2 0x294B JUMPI DUP1 PUSH1 0x1F LT PUSH2 0x2920 JUMPI PUSH2 0x100 DUP1 DUP4 SLOAD DIV MUL DUP4 MSTORE SWAP2 PUSH1 0x20 ADD SWAP2 PUSH2 0x294B JUMP JUMPDEST DUP3 ADD SWAP2 SWAP1 PUSH1 0x0 MSTORE PUSH1 0x20 PUSH1 0x0 KECCAK256 SWAP1 JUMPDEST DUP2 SLOAD DUP2 MSTORE SWAP1 PUSH1 0x1 ADD SWAP1 PUSH1 0x20 ADD DUP1 DUP4 GT PUSH2 0x292E JUMPI DUP3 SWAP1 SUB PUSH1 0x1F AND DUP3 ADD SWAP2 JUMPDEST POP POP POP POP POP DUP2 MSTORE PUSH1 0x20 ADD PUSH1 0x1 DUP3 ADD DUP1 SLOAD PUSH2 0x2964 SWAP1 PUSH2 0x37F5 JUMP JUMPDEST DUP1 PUSH1 0x1F ADD PUSH1 0x20 DUP1 SWAP2 DIV MUL PUSH1 0x20 ADD PUSH1 0x40 MLOAD SWAP1 DUP2 ADD PUSH1 0x40 MSTORE DUP1 SWAP3 SWAP2 SWAP1 DUP2 DUP2 MSTORE PUSH1 0x20 ADD DUP3 DUP1 SLOAD PUSH2 0x2990 SWAP1 PUSH2 0x37F5 JUMP JUMPDEST DUP1 ISZERO PUSH2 0x29DD JUMPI DUP1 PUSH1 0x1F LT PUSH2 0x29B2 JUMPI PUSH2 0x100 DUP1 DUP4 SLOAD DIV MUL DUP4 MSTORE SWAP2 PUSH1 0x20 ADD SWAP2 PUSH2 0x29DD JUMP JUMPDEST DUP3 ADD SWAP2 SWAP1 PUSH1 0x0 MSTORE PUSH1 0x20 PUSH1 0x0 KECCAK256 SWAP1 JUMPDEST DUP2 SLOAD DUP2 MSTORE SWAP1 PUSH1 0x1 ADD SWAP1 PUSH1 0x20 ADD DUP1 DUP4 GT PUSH2 0x29C0 JUMPI DUP3 SWAP1 SUB PUSH1 0x1F AND DUP3 ADD SWAP2 JUMPDEST POP POP POP SWAP2 DUP4 MSTORE POP POP PUSH1 0x2 DUP3 ADD SLOAD PUSH1 0x1 PUSH1 0x1 PUSH1 0xA0 SHL SUB SWAP1 DUP2 AND PUSH1 0x20 DUP4 ADD MSTORE PUSH1 0x3 DUP4 ADD SLOAD PUSH1 0x40 DUP4 ADD MSTORE PUSH1 0x4 DUP4 ADD SLOAD PUSH1 0x60 DUP4 ADD MSTORE PUSH1 0x5 DUP1 DUP5 ADD SLOAD PUSH1 0x80 DUP5 ADD MSTORE PUSH1 0x6 DUP5 ADD SLOAD PUSH1 0xA0 DUP5 ADD MSTORE PUSH1 0x7 DUP5 ADD SLOAD PUSH1 0xC0 DUP5 ADD MSTORE PUSH1 0x8 DUP5 ADD SLOAD PUSH1 0xE0 DUP5 ADD MSTORE PUSH1 0x9 DUP5 ADD SLOAD SWAP2 DUP3 AND PUSH2 0x100 DUP5 ADD MSTORE PUSH1 0xFF PUSH1 0x1 PUSH1 0xA0 SHL DUP4 DIV DUP2 AND PUSH2 0x120 DUP6 ADD MSTORE PUSH2 0x140 SWAP1 SWAP4 ADD SWAP3 PUSH1 0x1 PUSH1 0xA8 SHL SWAP1 SWAP3 DIV SWAP1 SWAP2 AND SWAP1 DUP2 GT ISZERO PUSH2 0x2A78 JUMPI PUSH2 0x2A78 PUSH2 0x30EA JUMP JUMPDEST PUSH1 0x5 DUP2 GT ISZERO PUSH2 0x2A89 JUMPI PUSH2 0x2A89 PUSH2 0x30EA JUMP JUMPDEST SWAP1 MSTORE POP SWAP3 SWAP2 POP POP JUMP JUMPDEST PUSH1 0x60 PUSH1 0xE DUP1 SLOAD DUP1 PUSH1 0x20 MUL PUSH1 0x20 ADD PUSH1 0x40 MLOAD SWAP1 DUP2 ADD PUSH1 0x40 MSTORE DUP1 SWAP3 SWAP2 SWAP1 DUP2 DUP2 MSTORE PUSH1 0x20 ADD PUSH1 0x0 SWAP1 JUMPDEST DUP3 DUP3 LT ISZERO PUSH2 0x140A JUMPI DUP4 DUP3 SWAP1 PUSH1 0x0 MSTORE PUSH1 0x20 PUSH1 0x0 KECCAK256 SWAP1 PUSH1 0xB MUL ADD PUSH1 0x40 MLOAD DUP1 PUSH2 0x160 ADD PUSH1 0x40 MSTORE SWAP1 DUP2 PUSH1 0x0 DUP3 ADD DUP1 SLOAD PUSH2 0x2AEA SWAP1 PUSH2 0x37F5 JUMP JUMPDEST DUP1 PUSH1 0x1F ADD PUSH1 0x20 DUP1 SWAP2 DIV MUL PUSH1 0x20 ADD PUSH1 0x40 MLOAD SWAP1 DUP2 ADD PUSH1 0x40 MSTORE DUP1 SWAP3 SWAP2 SWAP1 DUP2 DUP2 MSTORE PUSH1 0x20 ADD DUP3 DUP1 SLOAD PUSH2 0x2B16 SWAP1 PUSH2 0x37F5 JUMP JUMPDEST DUP1 ISZERO PUSH2 0x2B63 JUMPI DUP1 PUSH1 0x1F LT PUSH2 0x2B38 JUMPI PUSH2 0x100 DUP1 DUP4 SLOAD DIV MUL DUP4 MSTORE SWAP2 PUSH1 0x20 ADD SWAP2 PUSH2 0x2B63 JUMP JUMPDEST DUP3 ADD SWAP2 SWAP1 PUSH1 0x0 MSTORE PUSH1 0x20 PUSH1 0x0 KECCAK256 SWAP1 JUMPDEST DUP2 SLOAD DUP2 MSTORE SWAP1 PUSH1 0x1 ADD SWAP1 PUSH1 0x20 ADD DUP1 DUP4 GT PUSH2 0x2B46 JUMPI DUP3 SWAP1 SUB PUSH1 0x1F AND DUP3 ADD SWAP2 JUMPDEST POP POP POP POP POP DUP2 MSTORE PUSH1 0x20 ADD PUSH1 0x1 DUP3 ADD DUP1 SLOAD PUSH2 0x2B7C SWAP1 PUSH2 0x37F5 JUMP JUMPDEST DUP1 PUSH1 0x1F ADD PUSH1 0x20 DUP1 SWAP2 DIV MUL PUSH1 0x20 ADD PUSH1 0x40 MLOAD SWAP1 DUP2 ADD PUSH1 0x40 MSTORE DUP1 SWAP3 SWAP2 SWAP1 DUP2 DUP2 MSTORE PUSH1 0x20 ADD DUP3 DUP1 SLOAD PUSH2 0x2BA8 SWAP1 PUSH2 0x37F5 JUMP JUMPDEST DUP1 ISZERO PUSH2 0x2BF5 JUMPI DUP1 PUSH1 0x1F LT PUSH2 0x2BCA JUMPI PUSH2 0x100 DUP1 DUP4 SLOAD DIV MUL DUP4 MSTORE SWAP2 PUSH1 0x20 ADD SWAP2 PUSH2 0x2BF5 JUMP JUMPDEST DUP3 ADD SWAP2 SWAP1 PUSH1 0x0 MSTORE PUSH1 0x20 PUSH1 0x0 KECCAK256 SWAP1 JUMPDEST DUP2 SLOAD DUP2 MSTORE SWAP1 PUSH1 0x1 ADD SWAP1 PUSH1 0x20 ADD DUP1 DUP4 GT PUSH2 0x2BD8 JUMPI DUP3 SWAP1 SUB PUSH1 0x1F AND DUP3 ADD SWAP2 JUMPDEST POP POP POP POP POP DUP2 MSTORE PUSH1 0x20 ADD PUSH1 0x2 DUP3 ADD DUP1 SLOAD PUSH2 0x2C0E SWAP1 PUSH2 0x37F5 JUMP JUMPDEST DUP1 PUSH1 0x1F ADD PUSH1 0x20 DUP1 SWAP2 DIV MUL PUSH1 0x20 ADD PUSH1 0x40 MLOAD SWAP1 DUP2 ADD PUSH1 0x40 MSTORE DUP1 SWAP3 SWAP2 SWAP1 DUP2 DUP2 MSTORE PUSH1 0x20 ADD DUP3 DUP1 SLOAD PUSH2 0x2C3A SWAP1 PUSH2 0x37F5 JUMP JUMPDEST DUP1 ISZERO PUSH2 0x2C87 JUMPI DUP1 PUSH1 0x1F LT PUSH2 0x2C5C JUMPI PUSH2 0x100 DUP1 DUP4 SLOAD DIV MUL DUP4 MSTORE SWAP2 PUSH1 0x20 ADD SWAP2 PUSH2 0x2C87 JUMP JUMPDEST DUP3 ADD SWAP2 SWAP1 PUSH1 0x0 MSTORE PUSH1 0x20 PUSH1 0x0 KECCAK256 SWAP1 JUMPDEST DUP2 SLOAD DUP2 MSTORE SWAP1 PUSH1 0x1 ADD SWAP1 PUSH1 0x20 ADD DUP1 DUP4 GT PUSH2 0x2C6A JUMPI DUP3 SWAP1 SUB PUSH1 0x1F AND DUP3 ADD SWAP2 JUMPDEST POP POP POP SWAP2 DUP4 MSTORE POP POP PUSH1 0x3 DUP3 ADD SLOAD PUSH1 0x1 PUSH1 0x1 PUSH1 0xA0 SHL SUB AND PUSH1 0x20 DUP1 DUP4 ADD SWAP2 SWAP1 SWAP2 MSTORE PUSH1 0x4 DUP4 ADD SLOAD PUSH1 0x40 DUP4 ADD MSTORE PUSH1 0x5 DUP4 ADD SLOAD PUSH1 0x60 DUP4 ADD MSTORE PUSH1 0x6 DUP4 ADD SLOAD PUSH1 0x80 DUP4 ADD MSTORE PUSH1 0x7 DUP4 ADD SLOAD PUSH1 0xFF AND PUSH1 0xA0 DUP4 ADD MSTORE PUSH1 0x8 DUP4 ADD SLOAD PUSH1 0xC0 DUP4 ADD MSTORE PUSH1 0x9 DUP4 ADD SLOAD PUSH1 0xE0 DUP4 ADD MSTORE PUSH1 0xA SWAP1 SWAP3 ADD SLOAD PUSH2 0x100 SWAP1 SWAP2 ADD MSTORE SWAP1 DUP3 MSTORE PUSH1 0x1 SWAP3 SWAP1 SWAP3 ADD SWAP2 ADD PUSH2 0x2AB6 JUMP JUMPDEST PUSH1 0x40 MLOAD DUP1 PUSH2 0x180 ADD PUSH1 0x40 MSTORE DUP1 PUSH1 0x60 DUP2 MSTORE PUSH1 0x20 ADD PUSH1 0x60 DUP2 MSTORE PUSH1 0x20 ADD PUSH1 0x0 PUSH1 0x1 PUSH1 0x1 PUSH1 0xA0 SHL SUB AND DUP2 MSTORE PUSH1 0x20 ADD PUSH1 0x0 DUP2 MSTORE PUSH1 0x20 ADD PUSH1 0x0 DUP2 MSTORE PUSH1 0x20 ADD PUSH1 0x0 DUP2 MSTORE PUSH1 0x20 ADD PUSH1 0x0 DUP2 MSTORE PUSH1 0x20 ADD PUSH1 0x0 DUP2 MSTORE PUSH1 0x20 ADD PUSH1 0x0 DUP2 MSTORE PUSH1 0x20 ADD PUSH1 0x0 PUSH1 0x1 PUSH1 0x1 PUSH1 0xA0 SHL SUB AND DUP2 MSTORE PUSH1 0x20 ADD PUSH1 0x0 PUSH1 0xFF AND DUP2 MSTORE PUSH1 0x20 ADD PUSH1 0x0 PUSH1 0x5 DUP2 GT ISZERO PUSH2 0x2D83 JUMPI PUSH2 0x2D83 PUSH2 0x30EA JUMP JUMPDEST SWAP1 MSTORE SWAP1 JUMP JUMPDEST PUSH1 0x1 PUSH1 0x1 PUSH1 0xA0 SHL SUB DUP2 AND DUP2 EQ PUSH2 0x2D9D JUMPI PUSH1 0x0 DUP1 REVERT JUMPDEST POP JUMP JUMPDEST DUP1 CALLDATALOAD PUSH2 0x2DAB DUP2 PUSH2 0x2D88 JUMP JUMPDEST SWAP2 SWAP1 POP JUMP JUMPDEST PUSH4 0x4E487B71 PUSH1 0xE0 SHL PUSH1 0x0 MSTORE PUSH1 0x41 PUSH1 0x4 MSTORE PUSH1 0x24 PUSH1 0x0 REVERT JUMPDEST PUSH1 0x0 DUP3 PUSH1 0x1F DUP4 ADD SLT PUSH2 0x2DD7 JUMPI PUSH1 0x0 DUP1 REVERT JUMPDEST DUP2 CALLDATALOAD PUSH8 0xFFFFFFFFFFFFFFFF DUP1 DUP3 GT ISZERO PUSH2 0x2DF2 JUMPI PUSH2 0x2DF2 PUSH2 0x2DB0 JUMP JUMPDEST PUSH1 0x40 MLOAD PUSH1 0x1F DUP4 ADD PUSH1 0x1F NOT SWAP1 DUP2 AND PUSH1 0x3F ADD AND DUP2 ADD SWAP1 DUP3 DUP3 GT DUP2 DUP4 LT OR ISZERO PUSH2 0x2E1A JUMPI PUSH2 0x2E1A PUSH2 0x2DB0 JUMP JUMPDEST DUP2 PUSH1 0x40 MSTORE DUP4 DUP2 MSTORE DUP7 PUSH1 0x20 DUP6 DUP9 ADD ADD GT ISZERO PUSH2 0x2E33 JUMPI PUSH1 0x0 DUP1 REVERT JUMPDEST DUP4 PUSH1 0x20 DUP8 ADD PUSH1 0x20 DUP4 ADD CALLDATACOPY PUSH1 0x0 PUSH1 0x20 DUP6 DUP4 ADD ADD MSTORE DUP1 SWAP5 POP POP POP POP POP SWAP3 SWAP2 POP POP JUMP JUMPDEST PUSH1 0x0 DUP1 PUSH1 0x40 DUP4 DUP6 SUB SLT ISZERO PUSH2 0x2E66 JUMPI PUSH1 0x0 DUP1 REVERT JUMPDEST DUP3 CALLDATALOAD PUSH2 0x2E71 DUP2 PUSH2 0x2D88 JUMP JUMPDEST SWAP2 POP PUSH1 0x20 DUP4 ADD CALLDATALOAD PUSH8 0xFFFFFFFFFFFFFFFF DUP2 GT ISZERO PUSH2 0x2E8D JUMPI PUSH1 0x0 DUP1 REVERT JUMPDEST PUSH2 0x2E99 DUP6 DUP3 DUP7 ADD PUSH2 0x2DC6 JUMP JUMPDEST SWAP2 POP POP SWAP3 POP SWAP3 SWAP1 POP JUMP JUMPDEST PUSH1 0x0 DUP1 DUP4 PUSH1 0x1F DUP5 ADD SLT PUSH2 0x2EB5 JUMPI PUSH1 0x0 DUP1 REVERT JUMPDEST POP DUP2 CALLDATALOAD PUSH8 0xFFFFFFFFFFFFFFFF DUP2 GT ISZERO PUSH2 0x2ECD JUMPI PUSH1 0x0 DUP1 REVERT JUMPDEST PUSH1 0x20 DUP4 ADD SWAP2 POP DUP4 PUSH1 0x20 DUP3 DUP6 ADD ADD GT ISZERO PUSH2 0x2EE5 JUMPI PUSH1 0x0 DUP1 REVERT JUMPDEST SWAP3 POP SWAP3 SWAP1 POP JUMP JUMPDEST PUSH1 0x0 DUP1 PUSH1 0x0 PUSH1 0x40 DUP5 DUP7 SUB SLT ISZERO PUSH2 0x2F01 JUMPI PUSH1 0x0 DUP1 REVERT JUMPDEST DUP4 CALLDATALOAD PUSH8 0xFFFFFFFFFFFFFFFF DUP2 GT ISZERO PUSH2 0x2F18 JUMPI PUSH1 0x0 DUP1 REVERT JUMPDEST PUSH2 0x2F24 DUP7 DUP3 DUP8 ADD PUSH2 0x2EA3 JUMP JUMPDEST SWAP1 SWAP8 SWAP1 SWAP7 POP PUSH1 0x20 SWAP6 SWAP1 SWAP6 ADD CALLDATALOAD SWAP5 SWAP4 POP POP POP POP JUMP JUMPDEST PUSH1 0x0 DUP1 PUSH1 0x40 DUP4 DUP6 SUB SLT ISZERO PUSH2 0x2F4B JUMPI PUSH1 0x0 DUP1 REVERT JUMPDEST DUP3 CALLDATALOAD PUSH8 0xFFFFFFFFFFFFFFFF DUP2 GT ISZERO PUSH2 0x2F62 JUMPI PUSH1 0x0 DUP1 REVERT JUMPDEST PUSH2 0x2F6E DUP6 DUP3 DUP7 ADD PUSH2 0x2DC6 JUMP JUMPDEST SWAP3 POP POP PUSH1 0x20 DUP4 ADD CALLDATALOAD PUSH2 0x2F7F DUP2 PUSH2 0x2D88 JUMP JUMPDEST DUP1 SWAP2 POP POP SWAP3 POP SWAP3 SWAP1 POP JUMP JUMPDEST PUSH1 0x0 DUP1 PUSH1 0x0 PUSH1 0x40 DUP5 DUP7 SUB SLT ISZERO PUSH2 0x2F9F JUMPI PUSH1 0x0 DUP1 REVERT JUMPDEST DUP4 CALLDATALOAD PUSH8 0xFFFFFFFFFFFFFFFF DUP1 DUP3 GT ISZERO PUSH2 0x2FB7 JUMPI PUSH1 0x0 DUP1 REVERT JUMPDEST PUSH2 0x2FC3 DUP8 DUP4 DUP9 ADD PUSH2 0x2EA3 JUMP JUMPDEST SWAP1 SWAP6 POP SWAP4 POP PUSH1 0x20 DUP7 ADD CALLDATALOAD SWAP2 POP DUP1 DUP3 GT ISZERO PUSH2 0x2FDC JUMPI PUSH1 0x0 DUP1 REVERT JUMPDEST POP DUP5 ADD PUSH2 0x180 DUP2 DUP8 SUB SLT ISZERO PUSH2 0x2FF0 JUMPI PUSH1 0x0 DUP1 REVERT JUMPDEST DUP1 SWAP2 POP POP SWAP3 POP SWAP3 POP SWAP3 JUMP JUMPDEST PUSH1 0x0 PUSH1 0x20 DUP3 DUP5 SUB SLT ISZERO PUSH2 0x300D JUMPI PUSH1 0x0 DUP1 REVERT JUMPDEST DUP2 CALLDATALOAD PUSH8 0xFFFFFFFFFFFFFFFF DUP2 GT ISZERO PUSH2 0x3024 JUMPI PUSH1 0x0 DUP1 REVERT JUMPDEST PUSH2 0x3030 DUP5 DUP3 DUP6 ADD PUSH2 0x2DC6 JUMP JUMPDEST SWAP5 SWAP4 POP POP POP POP JUMP JUMPDEST PUSH1 0x0 JUMPDEST DUP4 DUP2 LT ISZERO PUSH2 0x3053 JUMPI DUP2 DUP2 ADD MLOAD DUP4 DUP3 ADD MSTORE PUSH1 0x20 ADD PUSH2 0x303B JUMP JUMPDEST POP POP PUSH1 0x0 SWAP2 ADD MSTORE JUMP JUMPDEST PUSH1 0x0 DUP2 MLOAD DUP1 DUP5 MSTORE PUSH2 0x3074 DUP2 PUSH1 0x20 DUP7 ADD PUSH1 0x20 DUP7 ADD PUSH2 0x3038 JUMP JUMPDEST PUSH1 0x1F ADD PUSH1 0x1F NOT AND SWAP3 SWAP1 SWAP3 ADD PUSH1 0x20 ADD SWAP3 SWAP2 POP POP JUMP JUMPDEST PUSH1 0x0 PUSH1 0x20 DUP1 DUP4 ADD DUP2 DUP5 MSTORE DUP1 DUP6 MLOAD DUP1 DUP4 MSTORE PUSH1 0x40 DUP7 ADD SWAP2 POP PUSH1 0x40 DUP2 PUSH1 0x5 SHL DUP8 ADD ADD SWAP3 POP DUP4 DUP8 ADD PUSH1 0x0 JUMPDEST DUP3 DUP2 LT ISZERO PUSH2 0x30DD JUMPI PUSH1 0x3F NOT DUP9 DUP7 SUB ADD DUP5 MSTORE PUSH2 0x30CB DUP6 DUP4 MLOAD PUSH2 0x305C JUMP JUMPDEST SWAP5 POP SWAP3 DUP6 ADD SWAP3 SWAP1 DUP6 ADD SWAP1 PUSH1 0x1 ADD PUSH2 0x30AF JUMP JUMPDEST POP SWAP3 SWAP8 SWAP7 POP POP POP POP POP POP POP JUMP JUMPDEST PUSH4 0x4E487B71 PUSH1 0xE0 SHL PUSH1 0x0 MSTORE PUSH1 0x21 PUSH1 0x4 MSTORE PUSH1 0x24 PUSH1 0x0 REVERT JUMPDEST PUSH1 0x6 DUP2 LT PUSH2 0x311E JUMPI PUSH4 0x4E487B71 PUSH1 0xE0 SHL PUSH1 0x0 MSTORE PUSH1 0x21 PUSH1 0x4 MSTORE PUSH1 0x24 PUSH1 0x0 REVERT JUMPDEST SWAP1 MSTORE JUMP JUMPDEST PUSH1 0x0 PUSH2 0x180 DUP3 MLOAD DUP2 DUP6 MSTORE PUSH2 0x3138 DUP3 DUP7 ADD DUP3 PUSH2 0x305C JUMP JUMPDEST SWAP2 POP POP PUSH1 0x20 DUP4 ADD MLOAD DUP5 DUP3 SUB PUSH1 0x20 DUP7 ADD MSTORE PUSH2 0x3152 DUP3 DUP3 PUSH2 0x305C JUMP JUMPDEST SWAP2 POP POP PUSH1 0x40 DUP4 ADD MLOAD PUSH2 0x316F PUSH1 0x40 DUP7 ADD DUP3 PUSH1 0x1 PUSH1 0x1 PUSH1 0xA0 SHL SUB AND SWAP1 MSTORE JUMP JUMPDEST POP PUSH1 0x60 DUP4 ADD MLOAD PUSH1 0x60 DUP6 ADD MSTORE PUSH1 0x80 DUP4 ADD MLOAD PUSH1 0x80 DUP6 ADD MSTORE PUSH1 0xA0 DUP4 ADD MLOAD PUSH1 0xA0 DUP6 ADD MSTORE PUSH1 0xC0 DUP4 ADD MLOAD PUSH1 0xC0 DUP6 ADD MSTORE PUSH1 0xE0 DUP4 ADD MLOAD PUSH1 0xE0 DUP6 ADD MSTORE PUSH2 0x100 DUP1 DUP5 ADD MLOAD DUP2 DUP7 ADD MSTORE POP PUSH2 0x120 DUP1 DUP5 ADD MLOAD PUSH2 0x31C9 DUP3 DUP8 ADD DUP3 PUSH1 0x1 PUSH1 0x1 PUSH1 0xA0 SHL SUB AND SWAP1 MSTORE JUMP JUMPDEST POP POP PUSH2 0x140 DUP4 DUP2 ADD MLOAD PUSH1 0xFF AND SWAP1 DUP6 ADD MSTORE PUSH2 0x160 DUP1 DUP5 ADD MLOAD PUSH2 0x31EC DUP3 DUP8 ADD DUP3 PUSH2 0x3100 JUMP JUMPDEST POP SWAP1 SWAP5 SWAP4 POP POP POP POP JUMP JUMPDEST PUSH1 0x0 PUSH1 0x20 DUP1 DUP4 ADD DUP2 DUP5 MSTORE DUP1 DUP6 MLOAD DUP1 DUP4 MSTORE PUSH1 0x40 DUP7 ADD SWAP2 POP PUSH1 0x40 DUP2 PUSH1 0x5 SHL DUP8 ADD ADD SWAP3 POP DUP4 DUP8 ADD PUSH1 0x0 JUMPDEST DUP3 DUP2 LT ISZERO PUSH2 0x30DD JUMPI PUSH1 0x3F NOT DUP9 DUP7 SUB ADD DUP5 MSTORE PUSH2 0x3239 DUP6 DUP4 MLOAD PUSH2 0x3122 JUMP JUMPDEST SWAP5 POP SWAP3 DUP6 ADD SWAP3 SWAP1 DUP6 ADD SWAP1 PUSH1 0x1 ADD PUSH2 0x321D JUMP JUMPDEST PUSH1 0x0 PUSH1 0x20 DUP3 DUP5 SUB SLT ISZERO PUSH2 0x325D JUMPI PUSH1 0x0 DUP1 REVERT JUMPDEST DUP2 CALLDATALOAD PUSH2 0x3268 DUP2 PUSH2 0x2D88 JUMP JUMPDEST SWAP4 SWAP3 POP POP POP JUMP JUMPDEST PUSH1 0x0 DUP1 PUSH1 0x20 DUP4 DUP6 SUB SLT ISZERO PUSH2 0x3282 JUMPI PUSH1 0x0 DUP1 REVERT JUMPDEST DUP3 CALLDATALOAD PUSH8 0xFFFFFFFFFFFFFFFF DUP2 GT ISZERO PUSH2 0x3299 JUMPI PUSH1 0x0 DUP1 REVERT JUMPDEST PUSH2 0x32A5 DUP6 DUP3 DUP7 ADD PUSH2 0x2EA3 JUMP JUMPDEST SWAP1 SWAP7 SWAP1 SWAP6 POP SWAP4 POP POP POP POP JUMP JUMPDEST PUSH1 0x0 DUP1 PUSH1 0x40 DUP4 DUP6 SUB SLT ISZERO PUSH2 0x32C4 JUMPI PUSH1 0x0 DUP1 REVERT JUMPDEST DUP3 CALLDATALOAD PUSH8 0xFFFFFFFFFFFFFFFF DUP2 GT ISZERO PUSH2 0x32DB JUMPI PUSH1 0x0 DUP1 REVERT JUMPDEST PUSH2 0x32E7 DUP6 DUP3 DUP7 ADD PUSH2 0x2DC6 JUMP JUMPDEST SWAP6 PUSH1 0x20 SWAP5 SWAP1 SWAP5 ADD CALLDATALOAD SWAP5 POP POP POP POP JUMP JUMPDEST PUSH1 0x0 DUP1 PUSH1 0x40 DUP4 DUP6 SUB SLT ISZERO PUSH2 0x3309 JUMPI PUSH1 0x0 DUP1 REVERT JUMPDEST DUP3 CALLDATALOAD PUSH2 0x3314 DUP2 PUSH2 0x2D88 JUMP JUMPDEST SWAP5 PUSH1 0x20 SWAP4 SWAP1 SWAP4 ADD CALLDATALOAD SWAP4 POP POP POP JUMP JUMPDEST PUSH2 0x180 DUP2 MSTORE PUSH1 0x0 PUSH2 0x3337 PUSH2 0x180 DUP4 ADD DUP16 PUSH2 0x305C JUMP JUMPDEST DUP3 DUP2 SUB PUSH1 0x20 DUP5 ADD MSTORE PUSH2 0x3349 DUP2 DUP16 PUSH2 0x305C JUMP JUMPDEST SWAP2 POP POP PUSH1 0x1 PUSH1 0x1 PUSH1 0xA0 SHL SUB DUP1 DUP14 AND PUSH1 0x40 DUP5 ADD MSTORE DUP12 PUSH1 0x60 DUP5 ADD MSTORE DUP11 PUSH1 0x80 DUP5 ADD MSTORE DUP10 PUSH1 0xA0 DUP5 ADD MSTORE DUP9 PUSH1 0xC0 DUP5 ADD MSTORE DUP8 PUSH1 0xE0 DUP5 ADD MSTORE DUP7 PUSH2 0x100 DUP5 ADD MSTORE DUP1 DUP7 AND PUSH2 0x120 DUP5 ADD MSTORE POP PUSH1 0xFF DUP5 AND PUSH2 0x140 DUP4 ADD MSTORE PUSH2 0x33A3 PUSH2 0x160 DUP4 ADD DUP5 PUSH2 0x3100 JUMP JUMPDEST SWAP14 SWAP13 POP POP POP POP POP POP POP POP POP POP POP POP POP JUMP JUMPDEST PUSH1 0x0 DUP1 PUSH1 0x0 DUP1 PUSH1 0x60 DUP6 DUP8 SUB SLT ISZERO PUSH2 0x33CA JUMPI PUSH1 0x0 DUP1 REVERT JUMPDEST DUP5 CALLDATALOAD PUSH8 0xFFFFFFFFFFFFFFFF DUP1 DUP3 GT ISZERO PUSH2 0x33E2 JUMPI PUSH1 0x0 DUP1 REVERT JUMPDEST PUSH2 0x33EE DUP9 DUP4 DUP10 ADD PUSH2 0x2EA3 JUMP JUMPDEST SWAP1 SWAP7 POP SWAP5 POP PUSH1 0x20 DUP8 ADD CALLDATALOAD SWAP2 POP DUP1 DUP3 GT ISZERO PUSH2 0x3407 JUMPI PUSH1 0x0 DUP1 REVERT JUMPDEST POP DUP6 ADD PUSH2 0x160 DUP2 DUP9 SUB SLT ISZERO PUSH2 0x341B JUMPI PUSH1 0x0 DUP1 REVERT JUMPDEST SWAP2 POP PUSH1 0x40 DUP6 ADD CALLDATALOAD PUSH2 0x342B DUP2 PUSH2 0x2D88 JUMP JUMPDEST SWAP4 SWAP7 SWAP3 SWAP6 POP SWAP1 SWAP4 POP POP JUMP JUMPDEST PUSH1 0x0 DUP1 PUSH1 0x40 DUP4 DUP6 SUB SLT ISZERO PUSH2 0x3449 JUMPI PUSH1 0x0 DUP1 REVERT JUMPDEST DUP3 CALLDATALOAD SWAP2 POP PUSH1 0x20 DUP4 ADD CALLDATALOAD PUSH2 0x2F7F DUP2 PUSH2 0x2D88 JUMP JUMPDEST PUSH1 0x20 DUP1 DUP3 MSTORE DUP3 MLOAD DUP3 DUP3 ADD DUP2 SWAP1 MSTORE PUSH1 0x0 SWAP2 SWAP1 PUSH1 0x40 SWAP1 DUP2 DUP6 ADD SWAP1 DUP7 DUP5 ADD DUP6 JUMPDEST DUP3 DUP2 LT ISZERO PUSH2 0x34A6 JUMPI DUP2 MLOAD DUP1 MLOAD PUSH1 0x1 PUSH1 0x1 PUSH1 0xA0 SHL SUB AND DUP6 MSTORE DUP7 ADD MLOAD DUP7 DUP6 ADD MSTORE SWAP3 DUP5 ADD SWAP3 SWAP1 DUP6 ADD SWAP1 PUSH1 0x1 ADD PUSH2 0x3478 JUMP JUMPDEST POP SWAP2 SWAP8 SWAP7 POP POP POP POP POP POP POP JUMP JUMPDEST PUSH1 0x0 DUP1 PUSH1 0x0 PUSH1 0x40 DUP5 DUP7 SUB SLT ISZERO PUSH2 0x34C8 JUMPI PUSH1 0x0 DUP1 REVERT JUMPDEST DUP4 CALLDATALOAD PUSH8 0xFFFFFFFFFFFFFFFF DUP2 GT ISZERO PUSH2 0x34DF JUMPI PUSH1 0x0 DUP1 REVERT JUMPDEST PUSH2 0x34EB DUP7 DUP3 DUP8 ADD PUSH2 0x2EA3 JUMP JUMPDEST SWAP1 SWAP5 POP SWAP3 POP POP PUSH1 0x20 DUP5 ADD CALLDATALOAD PUSH2 0x2FF0 DUP2 PUSH2 0x2D88 JUMP JUMPDEST PUSH1 0x20 DUP2 MSTORE PUSH1 0x0 PUSH2 0x3268 PUSH1 0x20 DUP4 ADD DUP5 PUSH2 0x3122 JUMP JUMPDEST PUSH1 0x0 PUSH1 0x20 DUP1 DUP4 ADD DUP2 DUP5 MSTORE DUP1 DUP6 MLOAD DUP1 DUP4 MSTORE PUSH1 0x40 SWAP3 POP DUP3 DUP7 ADD SWAP2 POP DUP3 DUP2 PUSH1 0x5 SHL DUP8 ADD ADD DUP5 DUP9 ADD PUSH1 0x0 JUMPDEST DUP4 DUP2 LT ISZERO PUSH2 0x360C JUMPI PUSH1 0x3F NOT DUP10 DUP5 SUB ADD DUP6 MSTORE DUP2 MLOAD PUSH2 0x160 DUP2 MLOAD DUP2 DUP7 MSTORE PUSH2 0x3560 DUP3 DUP8 ADD DUP3 PUSH2 0x305C JUMP JUMPDEST SWAP2 POP POP DUP9 DUP3 ADD MLOAD DUP6 DUP3 SUB DUP11 DUP8 ADD MSTORE PUSH2 0x3578 DUP3 DUP3 PUSH2 0x305C JUMP JUMPDEST SWAP2 POP POP DUP8 DUP3 ADD MLOAD DUP6 DUP3 SUB DUP10 DUP8 ADD MSTORE PUSH2 0x3590 DUP3 DUP3 PUSH2 0x305C JUMP JUMPDEST SWAP2 POP POP PUSH1 0x60 DUP1 DUP4 ADD MLOAD PUSH2 0x35AD DUP3 DUP9 ADD DUP3 PUSH1 0x1 PUSH1 0x1 PUSH1 0xA0 SHL SUB AND SWAP1 MSTORE JUMP JUMPDEST POP POP PUSH1 0x80 DUP3 DUP2 ADD MLOAD SWAP1 DUP7 ADD MSTORE PUSH1 0xA0 DUP1 DUP4 ADD MLOAD SWAP1 DUP7 ADD MSTORE PUSH1 0xC0 DUP1 DUP4 ADD MLOAD SWAP1 DUP7 ADD MSTORE PUSH1 0xE0 DUP1 DUP4 ADD MLOAD PUSH1 0xFF AND SWAP1 DUP7 ADD MSTORE PUSH2 0x100 DUP1 DUP4 ADD MLOAD SWAP1 DUP7 ADD MSTORE PUSH2 0x120 DUP1 DUP4 ADD MLOAD SWAP1 DUP7 ADD MSTORE PUSH2 0x140 SWAP2 DUP3 ADD MLOAD SWAP2 SWAP1 SWAP5 ADD MSTORE SWAP4 DUP7 ADD SWAP4 SWAP1 DUP7 ADD SWAP1 PUSH1 0x1 ADD PUSH2 0x3539 JUMP JUMPDEST POP SWAP1 SWAP9 SWAP8 POP POP POP POP POP POP POP POP JUMP JUMPDEST PUSH1 0x0 DUP1 PUSH1 0x0 PUSH1 0x60 DUP5 DUP7 SUB SLT ISZERO PUSH2 0x362F JUMPI PUSH1 0x0 DUP1 REVERT JUMPDEST DUP4 CALLDATALOAD PUSH2 0x363A DUP2 PUSH2 0x2D88 JUMP JUMPDEST SWAP3 POP PUSH1 0x20 DUP5 ADD CALLDATALOAD PUSH2 0x364A DUP2 PUSH2 0x2D88 JUMP JUMPDEST SWAP2 POP PUSH1 0x40 DUP5 ADD CALLDATALOAD PUSH2 0x2FF0 DUP2 PUSH2 0x2D88 JUMP JUMPDEST PUSH1 0x0 PUSH1 0x20 DUP3 DUP5 SUB SLT ISZERO PUSH2 0x366C JUMPI PUSH1 0x0 DUP1 REVERT JUMPDEST DUP2 MLOAD DUP1 ISZERO ISZERO DUP2 EQ PUSH2 0x3268 JUMPI PUSH1 0x0 DUP1 REVERT JUMPDEST DUP2 DUP4 DUP3 CALLDATACOPY PUSH1 0x0 SWAP2 ADD SWAP1 DUP2 MSTORE SWAP2 SWAP1 POP JUMP JUMPDEST DUP2 DUP4 MSTORE DUP2 DUP2 PUSH1 0x20 DUP6 ADD CALLDATACOPY POP PUSH1 0x0 DUP3 DUP3 ADD PUSH1 0x20 SWAP1 DUP2 ADD SWAP2 SWAP1 SWAP2 MSTORE PUSH1 0x1F SWAP1 SWAP2 ADD PUSH1 0x1F NOT AND SWAP1 SWAP2 ADD ADD SWAP1 JUMP JUMPDEST PUSH1 0x20 DUP2 MSTORE PUSH1 0x0 PUSH2 0x3030 PUSH1 0x20 DUP4 ADD DUP5 DUP7 PUSH2 0x368C JUMP JUMPDEST PUSH4 0x4E487B71 PUSH1 0xE0 SHL PUSH1 0x0 MSTORE PUSH1 0x11 PUSH1 0x4 MSTORE PUSH1 0x24 PUSH1 0x0 REVERT JUMPDEST DUP1 DUP3 MUL DUP2 ISZERO DUP3 DUP3 DIV DUP5 EQ OR PUSH2 0x1F28 JUMPI PUSH2 0x1F28 PUSH2 0x36C9 JUMP JUMPDEST PUSH1 0x0 DUP3 PUSH2 0x3713 JUMPI PUSH4 0x4E487B71 PUSH1 0xE0 SHL PUSH1 0x0 MSTORE PUSH1 0x12 PUSH1 0x4 MSTORE PUSH1 0x24 PUSH1 0x0 REVERT JUMPDEST POP MOD SWAP1 JUMP JUMPDEST DUP1 DUP3 ADD DUP1 DUP3 GT ISZERO PUSH2 0x1F28 JUMPI PUSH2 0x1F28 PUSH2 0x36C9 JUMP JUMPDEST PUSH4 0x4E487B71 PUSH1 0xE0 SHL PUSH1 0x0 MSTORE PUSH1 0x32 PUSH1 0x4 MSTORE PUSH1 0x24 PUSH1 0x0 REVERT JUMPDEST PUSH1 0x40 DUP2 MSTORE PUSH1 0x0 PUSH2 0x3755 PUSH1 0x40 DUP4 ADD DUP6 DUP8 PUSH2 0x368C JUMP JUMPDEST SWAP1 POP DUP3 PUSH1 0x20 DUP4 ADD MSTORE SWAP5 SWAP4 POP POP POP POP JUMP JUMPDEST PUSH1 0x40 DUP2 MSTORE PUSH1 0x0 PUSH2 0x3779 PUSH1 0x40 DUP4 ADD DUP6 DUP8 PUSH2 0x368C JUMP JUMPDEST SWAP1 POP PUSH1 0x1 PUSH1 0x1 PUSH1 0xA0 SHL SUB DUP4 AND PUSH1 0x20 DUP4 ADD MSTORE SWAP5 SWAP4 POP POP POP POP JUMP JUMPDEST PUSH1 0x0 DUP3 MLOAD PUSH2 0x37A4 DUP2 DUP5 PUSH1 0x20 DUP8 ADD PUSH2 0x3038 JUMP JUMPDEST SWAP2 SWAP1 SWAP2 ADD SWAP3 SWAP2 POP POP JUMP JUMPDEST PUSH1 0x0 DUP1 DUP4 CALLDATALOAD PUSH1 0x1E NOT DUP5 CALLDATASIZE SUB ADD DUP2 SLT PUSH2 0x37C5 JUMPI PUSH1 0x0 DUP1 REVERT JUMPDEST DUP4 ADD DUP1 CALLDATALOAD SWAP2 POP PUSH8 0xFFFFFFFFFFFFFFFF DUP3 GT ISZERO PUSH2 0x37E0 JUMPI PUSH1 0x0 DUP1 REVERT JUMPDEST PUSH1 0x20 ADD SWAP2 POP CALLDATASIZE DUP2 SWAP1 SUB DUP3 SGT ISZERO PUSH2 0x2EE5 JUMPI PUSH1 0x0 DUP1 REVERT JUMPDEST PUSH1 0x1 DUP2 DUP2 SHR SWAP1 DUP3 AND DUP1 PUSH2 0x3809 JUMPI PUSH1 0x7F DUP3 AND SWAP2 POP JUMPDEST PUSH1 0x20 DUP3 LT DUP2 SUB PUSH2 0x3829 JUMPI PUSH4 0x4E487B71 PUSH1 0xE0 SHL PUSH1 0x0 MSTORE PUSH1 0x22 PUSH1 0x4 MSTORE PUSH1 0x24 PUSH1 0x0 REVERT JUMPDEST POP SWAP2 SWAP1 POP JUMP JUMPDEST PUSH1 0x1F DUP3 GT ISZERO PUSH2 0x3875 JUMPI PUSH1 0x0 DUP2 DUP2 MSTORE PUSH1 0x20 DUP2 KECCAK256 PUSH1 0x1F DUP6 ADD PUSH1 0x5 SHR DUP2 ADD PUSH1 0x20 DUP7 LT ISZERO PUSH2 0x3856 JUMPI POP DUP1 JUMPDEST PUSH1 0x1F DUP6 ADD PUSH1 0x5 SHR DUP3 ADD SWAP2 POP JUMPDEST DUP2 DUP2 LT ISZERO PUSH2 0x2224 JUMPI DUP3 DUP2 SSTORE PUSH1 0x1 ADD PUSH2 0x3862 JUMP JUMPDEST POP POP POP JUMP JUMPDEST PUSH8 0xFFFFFFFFFFFFFFFF DUP4 GT ISZERO PUSH2 0x3892 JUMPI PUSH2 0x3892 PUSH2 0x2DB0 JUMP JUMPDEST PUSH2 0x38A6 DUP4 PUSH2 0x38A0 DUP4 SLOAD PUSH2 0x37F5 JUMP JUMPDEST DUP4 PUSH2 0x382F JUMP JUMPDEST PUSH1 0x0 PUSH1 0x1F DUP5 GT PUSH1 0x1 DUP2 EQ PUSH2 0x38DA JUMPI PUSH1 0x0 DUP6 ISZERO PUSH2 0x38C2 JUMPI POP DUP4 DUP3 ADD CALLDATALOAD JUMPDEST PUSH1 0x0 NOT PUSH1 0x3 DUP8 SWAP1 SHL SHR NOT AND PUSH1 0x1 DUP7 SWAP1 SHL OR DUP4 SSTORE PUSH2 0x1333 JUMP JUMPDEST PUSH1 0x0 DUP4 DUP2 MSTORE PUSH1 0x20 SWAP1 KECCAK256 PUSH1 0x1F NOT DUP7 AND SWAP1 DUP4 JUMPDEST DUP3 DUP2 LT ISZERO PUSH2 0x390B JUMPI DUP7 DUP6 ADD CALLDATALOAD DUP3 SSTORE PUSH1 0x20 SWAP5 DUP6 ADD SWAP5 PUSH1 0x1 SWAP1 SWAP3 ADD SWAP2 ADD PUSH2 0x38EB JUMP JUMPDEST POP DUP7 DUP3 LT ISZERO PUSH2 0x3928 JUMPI PUSH1 0x0 NOT PUSH1 0xF8 DUP9 PUSH1 0x3 SHL AND SHR NOT DUP5 DUP8 ADD CALLDATALOAD AND DUP2 SSTORE JUMPDEST POP POP PUSH1 0x1 DUP6 PUSH1 0x1 SHL ADD DUP4 SSTORE POP POP POP POP POP JUMP JUMPDEST PUSH1 0x0 DUP2 CALLDATALOAD PUSH2 0x1F28 DUP2 PUSH2 0x2D88 JUMP JUMPDEST PUSH1 0xFF DUP2 AND DUP2 EQ PUSH2 0x2D9D JUMPI PUSH1 0x0 DUP1 REVERT JUMPDEST PUSH1 0x0 DUP2 CALLDATALOAD PUSH2 0x1F28 DUP2 PUSH2 0x3947 JUMP JUMPDEST PUSH1 0x6 DUP2 LT PUSH2 0x2D9D JUMPI PUSH1 0x0 DUP1 REVERT JUMPDEST PUSH1 0x0 DUP2 CALLDATALOAD PUSH2 0x1F28 DUP2 PUSH2 0x3963 JUMP JUMPDEST PUSH1 0x6 DUP3 LT PUSH2 0x399B JUMPI PUSH4 0x4E487B71 PUSH1 0xE0 SHL PUSH1 0x0 MSTORE PUSH1 0x21 PUSH1 0x4 MSTORE PUSH1 0x24 PUSH1 0x0 REVERT JUMPDEST DUP1 SLOAD PUSH22 0xFF000000000000000000000000000000000000000000 DUP4 PUSH1 0xA8 SHL AND PUSH1 0xFF PUSH1 0xA8 SHL NOT DUP3 AND OR DUP3 SSTORE POP POP POP JUMP JUMPDEST PUSH2 0x39D3 DUP3 DUP4 PUSH2 0x37AE JUMP JUMPDEST PUSH2 0x39DE DUP2 DUP4 DUP6 PUSH2 0x387A JUMP JUMPDEST POP POP PUSH2 0x39ED PUSH1 0x20 DUP4 ADD DUP4 PUSH2 0x37AE JUMP JUMPDEST PUSH2 0x39FB DUP2 DUP4 PUSH1 0x1 DUP7 ADD PUSH2 0x387A JUMP JUMPDEST POP POP PUSH2 0x3A2D PUSH2 0x3A0C PUSH1 0x40 DUP5 ADD PUSH2 0x393A JUMP JUMPDEST PUSH1 0x2 DUP4 ADD PUSH1 0x1 PUSH1 0x1 PUSH1 0xA0 SHL SUB DUP3 AND PUSH1 0x1 PUSH1 0x1 PUSH1 0xA0 SHL SUB NOT DUP3 SLOAD AND OR DUP2 SSTORE POP POP JUMP JUMPDEST PUSH1 0x60 DUP3 ADD CALLDATALOAD PUSH1 0x3 DUP3 ADD SSTORE PUSH1 0x80 DUP3 ADD CALLDATALOAD PUSH1 0x4 DUP3 ADD SSTORE PUSH1 0xA0 DUP3 ADD CALLDATALOAD PUSH1 0x5 DUP3 ADD SSTORE PUSH1 0xC0 DUP3 ADD CALLDATALOAD PUSH1 0x6 DUP3 ADD SSTORE PUSH1 0xE0 DUP3 ADD CALLDATALOAD PUSH1 0x7 DUP3 ADD SSTORE PUSH2 0x100 DUP3 ADD CALLDATALOAD PUSH1 0x8 DUP3 ADD SSTORE PUSH1 0x9 DUP2 ADD PUSH2 0x3A9B PUSH2 0x3A7E PUSH2 0x120 DUP6 ADD PUSH2 0x393A JUMP JUMPDEST DUP3 SLOAD PUSH1 0x1 PUSH1 0x1 PUSH1 0xA0 SHL SUB NOT AND PUSH1 0x1 PUSH1 0x1 PUSH1 0xA0 SHL SUB SWAP2 SWAP1 SWAP2 AND OR DUP3 SSTORE JUMP JUMPDEST PUSH2 0x3AF1 PUSH2 0x3AAB PUSH2 0x140 DUP6 ADD PUSH2 0x3956 JUMP JUMPDEST DUP3 SLOAD PUSH32 0xFFFFFFFFFFFFFFFFFFFFFF00FFFFFFFFFFFFFFFFFFFFFFFFFFFFFFFFFFFFFFFF AND PUSH1 0xA0 SWAP2 SWAP1 SWAP2 SHL PUSH21 0xFF0000000000000000000000000000000000000000 AND OR DUP3 SSTORE JUMP JUMPDEST PUSH2 0x3875 PUSH2 0x3B01 PUSH2 0x160 DUP6 ADD PUSH2 0x3970 JUMP JUMPDEST DUP3 PUSH2 0x397D JUMP JUMPDEST DUP2 DUP2 SUB PUSH2 0x3B12 JUMPI POP POP JUMP JUMPDEST PUSH2 0x3B1C DUP3 SLOAD PUSH2 0x37F5 JUMP JUMPDEST PUSH8 0xFFFFFFFFFFFFFFFF DUP2 GT ISZERO PUSH2 0x3B34 JUMPI PUSH2 0x3B34 PUSH2 0x2DB0 JUMP JUMPDEST PUSH2 0x3B48 DUP2 PUSH2 0x3B42 DUP5 SLOAD PUSH2 0x37F5 JUMP JUMPDEST DUP5 PUSH2 0x382F JUMP JUMPDEST PUSH1 0x0 PUSH1 0x1F DUP3 GT PUSH1 0x1 DUP2 EQ PUSH2 0x3B7C JUMPI PUSH1 0x0 DUP4 ISZERO PUSH2 0x3B64 JUMPI POP DUP5 DUP3 ADD SLOAD JUMPDEST PUSH1 0x0 NOT PUSH1 0x3 DUP6 SWAP1 SHL SHR NOT AND PUSH1 0x1 DUP5 SWAP1 SHL OR DUP5 SSTORE PUSH2 0x1333 JUMP JUMPDEST PUSH1 0x0 DUP6 DUP2 MSTORE PUSH1 0x20 SWAP1 KECCAK256 PUSH1 0x1F NOT DUP5 AND SWAP1 PUSH1 0x0 DUP7 DUP2 MSTORE PUSH1 0x20 SWAP1 KECCAK256 DUP5 JUMPDEST DUP4 DUP2 LT ISZERO PUSH2 0x3BB6 JUMPI DUP3 DUP7 ADD SLOAD DUP3 SSTORE PUSH1 0x1 SWAP6 DUP7 ADD SWAP6 SWAP1 SWAP2 ADD SWAP1 PUSH1 0x20 ADD PUSH2 0x3B96 JUMP JUMPDEST POP DUP6 DUP4 LT ISZERO PUSH2 0x3BD4 JUMPI DUP2 DUP6 ADD SLOAD PUSH1 0x0 NOT PUSH1 0x3 DUP9 SWAP1 SHL PUSH1 0xF8 AND SHR NOT AND DUP2 SSTORE JUMPDEST POP POP POP POP POP PUSH1 0x1 SWAP1 DUP2 SHL ADD SWAP1 SSTORE POP JUMP JUMPDEST PUSH1 0x0 DUP1 DUP4 CALLDATALOAD PUSH1 0x1E NOT DUP5 CALLDATASIZE SUB ADD DUP2 SLT PUSH2 0x3BFB JUMPI PUSH1 0x0 DUP1 REVERT JUMPDEST DUP4 ADD PUSH1 0x20 DUP2 ADD SWAP3 POP CALLDATALOAD SWAP1 POP PUSH8 0xFFFFFFFFFFFFFFFF DUP2 GT ISZERO PUSH2 0x3C1B JUMPI PUSH1 0x0 DUP1 REVERT JUMPDEST DUP1 CALLDATASIZE SUB DUP3 SGT ISZERO PUSH2 0x2EE5 JUMPI PUSH1 0x0 DUP1 REVERT JUMPDEST DUP1 CALLDATALOAD PUSH2 0x2DAB DUP2 PUSH2 0x3947 JUMP JUMPDEST DUP1 CALLDATALOAD PUSH2 0x2DAB DUP2 PUSH2 0x3963 JUMP JUMPDEST PUSH1 0x40 DUP2 MSTORE PUSH1 0x0 PUSH2 0x3C54 PUSH1 0x40 DUP4 ADD DUP6 DUP8 PUSH2 0x368C JUMP JUMPDEST DUP3 DUP2 SUB PUSH1 0x20 DUP5 ADD MSTORE PUSH2 0x180 PUSH2 0x3C69 DUP6 DUP7 PUSH2 0x3BE4 JUMP JUMPDEST DUP3 DUP5 MSTORE PUSH2 0x3C79 DUP4 DUP6 ADD DUP3 DUP5 PUSH2 0x368C JUMP JUMPDEST SWAP3 POP POP POP PUSH2 0x3C8A PUSH1 0x20 DUP7 ADD DUP7 PUSH2 0x3BE4 JUMP JUMPDEST DUP4 DUP4 SUB PUSH1 0x20 DUP6 ADD MSTORE PUSH2 0x3C9D DUP4 DUP3 DUP5 PUSH2 0x368C JUMP JUMPDEST SWAP3 POP POP POP PUSH2 0x3CAD PUSH1 0x40 DUP7 ADD PUSH2 0x2DA0 JUMP JUMPDEST PUSH1 0x1 PUSH1 0x1 PUSH1 0xA0 SHL SUB DUP2 AND PUSH1 0x40 DUP5 ADD MSTORE POP PUSH1 0x60 DUP6 ADD CALLDATALOAD PUSH1 0x60 DUP4 ADD MSTORE PUSH1 0x80 DUP6 ADD CALLDATALOAD PUSH1 0x80 DUP4 ADD MSTORE PUSH1 0xA0 DUP6 ADD CALLDATALOAD PUSH1 0xA0 DUP4 ADD MSTORE PUSH1 0xC0 DUP6 ADD CALLDATALOAD PUSH1 0xC0 DUP4 ADD MSTORE PUSH1 0xE0 DUP6 ADD CALLDATALOAD PUSH1 0xE0 DUP4 ADD MSTORE PUSH2 0x100 DUP1 DUP7 ADD CALLDATALOAD DUP2 DUP5 ADD MSTORE POP PUSH2 0x120 PUSH2 0x3D09 DUP2 DUP8 ADD PUSH2 0x2DA0 JUMP JUMPDEST PUSH1 0x1 PUSH1 0x1 PUSH1 0xA0 SHL SUB AND SWAP1 DUP4 ADD MSTORE PUSH2 0x140 PUSH2 0x3D24 DUP7 DUP3 ADD PUSH2 0x3C2A JUMP JUMPDEST PUSH1 0xFF AND SWAP1 DUP4 ADD MSTORE PUSH2 0x160 PUSH2 0x3D39 DUP7 DUP3 ADD PUSH2 0x3C35 JUMP JUMPDEST PUSH2 0x3D45 DUP3 DUP6 ADD DUP3 PUSH2 0x3100 JUMP JUMPDEST POP SWAP1 SWAP8 SWAP7 POP POP POP POP POP POP POP JUMP JUMPDEST PUSH1 0x60 DUP2 MSTORE PUSH1 0x0 PUSH2 0x3D65 PUSH1 0x60 DUP4 ADD DUP7 PUSH2 0x305C JUMP JUMPDEST PUSH1 0x1 PUSH1 0x1 PUSH1 0xA0 SHL SUB SWAP5 DUP6 AND PUSH1 0x20 DUP5 ADD MSTORE SWAP3 SWAP1 SWAP4 AND PUSH1 0x40 SWAP1 SWAP2 ADD MSTORE SWAP3 SWAP2 POP POP JUMP JUMPDEST PUSH1 0x20 DUP2 MSTORE PUSH1 0x0 PUSH2 0x3D95 DUP4 DUP5 PUSH2 0x3BE4 JUMP JUMPDEST PUSH2 0x160 DUP1 PUSH1 0x20 DUP7 ADD MSTORE PUSH2 0x3DAD PUSH2 0x180 DUP7 ADD DUP4 DUP6 PUSH2 0x368C JUMP JUMPDEST SWAP3 POP PUSH2 0x3DBC PUSH1 0x20 DUP8 ADD DUP8 PUSH2 0x3BE4 JUMP JUMPDEST SWAP3 POP PUSH1 0x1F NOT DUP1 DUP8 DUP7 SUB ADD PUSH1 0x40 DUP9 ADD MSTORE PUSH2 0x3DD6 DUP6 DUP6 DUP5 PUSH2 0x368C JUMP JUMPDEST SWAP5 POP PUSH2 0x3DE5 PUSH1 0x40 DUP10 ADD DUP10 PUSH2 0x3BE4 JUMP JUMPDEST SWAP5 POP SWAP2 POP DUP1 DUP8 DUP7 SUB ADD PUSH1 0x60 DUP9 ADD MSTORE POP PUSH2 0x3DFF DUP5 DUP5 DUP4 PUSH2 0x368C JUMP JUMPDEST SWAP4 POP POP PUSH2 0x3E0E PUSH1 0x60 DUP8 ADD PUSH2 0x2DA0 JUMP JUMPDEST PUSH1 0x1 PUSH1 0x1 PUSH1 0xA0 SHL SUB DUP2 AND PUSH1 0x80 DUP8 ADD MSTORE SWAP2 POP PUSH1 0x80 DUP7 ADD CALLDATALOAD PUSH1 0xA0 DUP7 ADD MSTORE PUSH1 0xA0 DUP7 ADD CALLDATALOAD PUSH1 0xC0 DUP7 ADD MSTORE PUSH1 0xC0 DUP7 ADD CALLDATALOAD PUSH1 0xE0 DUP7 ADD MSTORE PUSH2 0x3E49 PUSH1 0xE0 DUP8 ADD PUSH2 0x3C2A JUMP JUMPDEST SWAP2 POP PUSH2 0x100 PUSH2 0x3E5C DUP2 DUP8 ADD DUP5 PUSH1 0xFF AND SWAP1 MSTORE JUMP JUMPDEST DUP7 ADD CALLDATALOAD PUSH2 0x120 DUP7 DUP2 ADD SWAP2 SWAP1 SWAP2 MSTORE DUP7 ADD CALLDATALOAD PUSH2 0x140 DUP1 DUP8 ADD SWAP2 SWAP1 SWAP2 MSTORE SWAP1 SWAP6 ADD CALLDATALOAD SWAP5 SWAP1 SWAP4 ADD SWAP4 SWAP1 SWAP4 MSTORE POP SWAP1 SWAP2 SWAP1 POP JUMP JUMPDEST PUSH2 0x3E93 DUP3 DUP4 PUSH2 0x37AE JUMP JUMPDEST PUSH2 0x3E9E DUP2 DUP4 DUP6 PUSH2 0x387A JUMP JUMPDEST POP POP PUSH2 0x3EAD PUSH1 0x20 DUP4 ADD DUP4 PUSH2 0x37AE JUMP JUMPDEST PUSH2 0x3EBB DUP2 DUP4 PUSH1 0x1 DUP7 ADD PUSH2 0x387A JUMP JUMPDEST POP POP PUSH2 0x3ECA PUSH1 0x40 DUP4 ADD DUP4 PUSH2 0x37AE JUMP JUMPDEST PUSH2 0x3ED8 DUP2 DUP4 PUSH1 0x2 DUP7 ADD PUSH2 0x387A JUMP JUMPDEST POP POP PUSH2 0x3F0A PUSH2 0x3EE9 PUSH1 0x60 DUP5 ADD PUSH2 0x393A JUMP JUMPDEST PUSH1 0x3 DUP4 ADD PUSH1 0x1 PUSH1 0x1 PUSH1 0xA0 SHL SUB DUP3 AND PUSH1 0x1 PUSH1 0x1 PUSH1 0xA0 SHL SUB NOT DUP3 SLOAD AND OR DUP2 SSTORE POP POP JUMP JUMPDEST PUSH1 0x80 DUP3 ADD CALLDATALOAD PUSH1 0x4 DUP3 ADD SSTORE PUSH1 0xA0 DUP3 ADD CALLDATALOAD PUSH1 0x5 DUP3 ADD SSTORE PUSH1 0xC0 DUP3 ADD CALLDATALOAD PUSH1 0x6 DUP3 ADD SSTORE PUSH2 0x3F4C PUSH2 0x3F37 PUSH1 0xE0 DUP5 ADD PUSH2 0x3956 JUMP JUMPDEST PUSH1 0x7 DUP4 ADD PUSH1 0xFF DUP3 AND PUSH1 0xFF NOT DUP3 SLOAD AND OR DUP2 SSTORE POP POP JUMP JUMPDEST PUSH2 0x100 DUP3 ADD CALLDATALOAD PUSH1 0x8 DUP3 ADD SSTORE PUSH2 0x120 DUP3 ADD CALLDATALOAD PUSH1 0x9 DUP3 ADD SSTORE PUSH2 0x140 DUP3 ADD CALLDATALOAD PUSH1 0xA DUP3 ADD SSTORE POP POP JUMP JUMPDEST PUSH1 0x0 PUSH1 0x1 DUP3 ADD PUSH2 0x3F83 JUMPI PUSH2 0x3F83 PUSH2 0x36C9 JUMP JUMPDEST POP PUSH1 0x1 ADD SWAP1 JUMP INVALID LOG2 PUSH5 0x6970667358 0x22 SLT KECCAK256 DUP2 LOG1 0xAD 0xA5 POP PUSH6 0x18320E860626 MSIZE 0x4A CALLDATACOPY DUP2 0x2E AND SSTORE DUP7 0x4E PUSH25 0x9BB35EDECF293C0A824864736F6C6343000813003300000000 "},"methodIdentifiers":{"amountInvested(address,string)":"041e9b89","approveDeal(string)":"48f92ee8","bondCallContract()":"5e43522e","dealBondContracts(string)":"fe0ab4b3","dealFees()":"af9080f8","dealInvestment(string,uint256)":"499fa18a","deals(string)":"a0a57dac","endSwapContract(address)":"b83c7fba","getContracts()":"c3a2a93a","getDeal(string)":"e7079180","getDealBondContract(string)":"2f667910","getDealFees()":"ff6689d0","getDealInvestment(string)":"c8d7f62e","getListOfBonds()":"f3413c4f","getListOfBondsDealIDs()":"281ddc8e","getListOfDeals()":"36f9c4da","getTotalAmounInvested(string)":"605936ea","identityRegistryContract()":"088674e0","irsCallContract()":"7af4d652","issue(string,(string,string,string,address,uint256,uint256,uint256,uint8,uint256,uint256,uint256),address)":"507251cb","issuerDeals(address,uint256)":"49f5d1d9","issuersFundContract()":"fb90e441","redeem(string,address)":"d7c4029c","registerForDeal(string,uint256)":"0df8bfda","rejectDeal(string)":"754f399a","rolesContract()":"ca53b391","setBondContractAddress(string,address)":"1882c195","setIRSBenchmark(uint256,address)":"9f0d8d2a","setIRSContractAddress(address,address,address)":"feb45fa6","setIssuerFundContract(address)":"7bafe3d0","setManager(address)":"d0ebdbe7","submitDeal(string,(string,string,address,uint256,uint256,uint256,uint256,uint256,uint256,address,uint8,uint8))":"19662d8e","swapIRS(address)":"3887bdcf","toposManager()":"7f31ed73","totalAmountInvestedForDeal(string)":"5ed7e2c1","withdrawIssuerFund(string)":"1b59122c"}}}}}