{
  "_format": "hh-sol-artifact-1",
  "contractName": "Roles",
  "sourceName": "contracts/utils/Roles.sol",
  "abi": [
    {
      "inputs": [],
      "stateMutability": "nonpayable",
      "type": "constructor"
    },
    {
      "inputs": [
        {
          "internalType": "address",
          "name": "_user",
          "type": "address"
        }
      ],
      "name": "getRole",
      "outputs": [
        {
          "internalType": "string",
          "name": "",
          "type": "string"
        }
      ],
      "stateMutability": "view",
      "type": "function"
    },
    {
      "inputs": [
        {
          "internalType": "address",
          "name": "_user",
          "type": "address"
        }
      ],
      "name": "isInvestor",
      "outputs": [
        {
          "internalType": "bool",
          "name": "",
          "type": "bool"
        }
      ],
      "stateMutability": "view",
      "type": "function"
    },
    {
      "inputs": [
        {
          "internalType": "address",
          "name": "_user",
          "type": "address"
        }
      ],
      "name": "isIssuer",
      "outputs": [
        {
          "internalType": "bool",
          "name": "",
          "type": "bool"
        }
      ],
      "stateMutability": "view",
      "type": "function"
    },
    {
      "inputs": [],
      "name": "owner",
      "outputs": [
        {
          "internalType": "address",
          "name": "",
          "type": "address"
        }
      ],
      "stateMutability": "view",
      "type": "function"
    },
    {
      "inputs": [
        {
          "internalType": "string",
          "name": "_role",
          "type": "string"
        },
        {
          "internalType": "address",
          "name": "_user",
          "type": "address"
        }
      ],
      "name": "setRole",
      "outputs": [],
      "stateMutability": "nonpayable",
      "type": "function"
    },
    {
      "inputs": [
        {
          "internalType": "address",
          "name": "_toposBankContract",
          "type": "address"
        }
      ],
      "name": "setToposBankContract",
      "outputs": [],
      "stateMutability": "nonpayable",
      "type": "function"
    },
    {
      "inputs": [],
      "name": "toposBankContract",
      "outputs": [
        {
          "internalType": "address",
          "name": "",
          "type": "address"
        }
      ],
      "stateMutability": "view",
      "type": "function"
    }
  ],
  "bytecode": "0x60806040523480156200001157600080fd5b5033600160006101000a81548173ffffffffffffffffffffffffffffffffffffffff021916908373ffffffffffffffffffffffffffffffffffffffff1602179055506040518060400160405280600781526020017f4d414e41474552000000000000000000000000000000000000000000000000008152506000803373ffffffffffffffffffffffffffffffffffffffff1673ffffffffffffffffffffffffffffffffffffffff1681526020019081526020016000209081620000d5919062000356565b506200043d565b600081519050919050565b7f4e487b7100000000000000000000000000000000000000000000000000000000600052604160045260246000fd5b7f4e487b7100000000000000000000000000000000000000000000000000000000600052602260045260246000fd5b600060028204905060018216806200015e57607f821691505b60208210810362000174576200017362000116565b5b50919050565b60008190508160005260206000209050919050565b60006020601f8301049050919050565b600082821b905092915050565b600060088302620001de7fffffffffffffffffffffffffffffffffffffffffffffffffffffffffffffffff826200019f565b620001ea86836200019f565b95508019841693508086168417925050509392505050565b6000819050919050565b6000819050919050565b600062000237620002316200022b8462000202565b6200020c565b62000202565b9050919050565b6000819050919050565b620002538362000216565b6200026b62000262826200023e565b848454620001ac565b825550505050565b600090565b6200028262000273565b6200028f81848462000248565b505050565b5b81811015620002b757620002ab60008262000278565b60018101905062000295565b5050565b601f8211156200030657620002d0816200017a565b620002db846200018f565b81016020851015620002eb578190505b62000303620002fa856200018f565b83018262000294565b50505b505050565b600082821c905092915050565b60006200032b600019846008026200030b565b1980831691505092915050565b600062000346838362000318565b9150826002028217905092915050565b6200036182620000dc565b67ffffffffffffffff8111156200037d576200037c620000e7565b5b62000389825462000145565b62000396828285620002bb565b600060209050601f831160018114620003ce5760008415620003b9578287015190505b620003c5858262000338565b86555062000435565b601f198416620003de866200017a565b60005b828110156200040857848901518255600182019150602085019450602081019050620003e1565b8683101562000428578489015162000424601f89168262000318565b8355505b6001600288020188555050505b505050505050565b610e1b806200044d6000396000f3fe608060405234801561001057600080fd5b506004361061007d5760003560e01c80638da5cb5b1161005b5780638da5cb5b146100fe5780639c34712a1461011c578063cee2a9cf1461013a578063cfde18901461016a5761007d565b8063386c210614610082578063442767331461009e578063877b9a67146100ce575b600080fd5b61009c600480360381019061009791906105ee565b610186565b005b6100b860048036038101906100b391906105ee565b61025a565b6040516100c591906106ab565b60405180910390f35b6100e860048036038101906100e391906105ee565b61032a565b6040516100f591906106e8565b60405180910390f35b6101066103bd565b6040516101139190610712565b60405180910390f35b6101246103e3565b6040516101319190610712565b60405180910390f35b610154600480360381019061014f91906105ee565b610409565b60405161016191906106e8565b60405180910390f35b610184600480360381019061017f9190610862565b61049c565b005b600160009054906101000a900473ffffffffffffffffffffffffffffffffffffffff1673ffffffffffffffffffffffffffffffffffffffff163373ffffffffffffffffffffffffffffffffffffffff1614610216576040517f08c379a000000000000000000000000000000000000000000000000000000000815260040161020d9061090a565b60405180910390fd5b80600260006101000a81548173ffffffffffffffffffffffffffffffffffffffff021916908373ffffffffffffffffffffffffffffffffffffffff16021790555050565b60606000808373ffffffffffffffffffffffffffffffffffffffff1673ffffffffffffffffffffffffffffffffffffffff16815260200190815260200160002080546102a590610959565b80601f01602080910402602001604051908101604052809291908181526020018280546102d190610959565b801561031e5780601f106102f35761010080835404028352916020019161031e565b820191906000526020600020905b81548152906001019060200180831161030157829003601f168201915b50505050509050919050565b600060405160200161033b906109e1565b604051602081830303815290604052805190602001206000808473ffffffffffffffffffffffffffffffffffffffff1673ffffffffffffffffffffffffffffffffffffffff16815260200190815260200160002060405160200161039f9190610a8e565b60405160208183030381529060405280519060200120149050919050565b600160009054906101000a900473ffffffffffffffffffffffffffffffffffffffff1681565b600260009054906101000a900473ffffffffffffffffffffffffffffffffffffffff1681565b600060405160200161041a90610af1565b604051602081830303815290604052805190602001206000808473ffffffffffffffffffffffffffffffffffffffff1673ffffffffffffffffffffffffffffffffffffffff16815260200190815260200160002060405160200161047e9190610a8e565b60405160208183030381529060405280519060200120149050919050565b600260009054906101000a900473ffffffffffffffffffffffffffffffffffffffff1673ffffffffffffffffffffffffffffffffffffffff163373ffffffffffffffffffffffffffffffffffffffff161461052c576040517f08c379a000000000000000000000000000000000000000000000000000000000815260040161052390610b52565b60405180910390fd5b816000808373ffffffffffffffffffffffffffffffffffffffff1673ffffffffffffffffffffffffffffffffffffffff16815260200190815260200160002090816105779190610d13565b505050565b6000604051905090565b600080fd5b600080fd5b600073ffffffffffffffffffffffffffffffffffffffff82169050919050565b60006105bb82610590565b9050919050565b6105cb816105b0565b81146105d657600080fd5b50565b6000813590506105e8816105c2565b92915050565b60006020828403121561060457610603610586565b5b6000610612848285016105d9565b91505092915050565b600081519050919050565b600082825260208201905092915050565b60005b8381101561065557808201518184015260208101905061063a565b60008484015250505050565b6000601f19601f8301169050919050565b600061067d8261061b565b6106878185610626565b9350610697818560208601610637565b6106a081610661565b840191505092915050565b600060208201905081810360008301526106c58184610672565b905092915050565b60008115159050919050565b6106e2816106cd565b82525050565b60006020820190506106fd60008301846106d9565b92915050565b61070c816105b0565b82525050565b60006020820190506107276000830184610703565b92915050565b600080fd5b600080fd5b7f4e487b7100000000000000000000000000000000000000000000000000000000600052604160045260246000fd5b61076f82610661565b810181811067ffffffffffffffff8211171561078e5761078d610737565b5b80604052505050565b60006107a161057c565b90506107ad8282610766565b919050565b600067ffffffffffffffff8211156107cd576107cc610737565b5b6107d682610661565b9050602081019050919050565b82818337600083830152505050565b6000610805610800846107b2565b610797565b90508281526020810184848401111561082157610820610732565b5b61082c8482856107e3565b509392505050565b600082601f8301126108495761084861072d565b5b81356108598482602086016107f2565b91505092915050565b6000806040838503121561087957610878610586565b5b600083013567ffffffffffffffff8111156108975761089661058b565b5b6108a385828601610834565b92505060206108b4858286016105d9565b9150509250929050565b7f4f4e4c595f4f574e455200000000000000000000000000000000000000000000600082015250565b60006108f4600a83610626565b91506108ff826108be565b602082019050919050565b60006020820190508181036000830152610923816108e7565b9050919050565b7f4e487b7100000000000000000000000000000000000000000000000000000000600052602260045260246000fd5b6000600282049050600182168061097157607f821691505b6020821081036109845761098361092a565b5b50919050565b600081905092915050565b7f4953535545520000000000000000000000000000000000000000000000000000600082015250565b60006109cb60068361098a565b91506109d682610995565b600682019050919050565b60006109ec826109be565b9150819050919050565b60008190508160005260206000209050919050565b60008154610a1881610959565b610a22818661098a565b94506001821660008114610a3d5760018114610a5257610a85565b60ff1983168652811515820286019350610a85565b610a5b856109f6565b60005b83811015610a7d57815481890152600182019150602081019050610a5e565b838801955050505b50505092915050565b6000610a9a8284610a0b565b915081905092915050565b7f494e564553544f52000000000000000000000000000000000000000000000000600082015250565b6000610adb60088361098a565b9150610ae682610aa5565b600882019050919050565b6000610afc82610ace565b9150819050919050565b7f526f6c65733a204f4e4c595f544f504f535f42414e4b00000000000000000000600082015250565b6000610b3c601683610626565b9150610b4782610b06565b602082019050919050565b60006020820190508181036000830152610b6b81610b2f565b9050919050565b60006020601f8301049050919050565b600082821b905092915050565b600060088302610bbf7fffffffffffffffffffffffffffffffffffffffffffffffffffffffffffffffff82610b82565b610bc98683610b82565b95508019841693508086168417925050509392505050565b6000819050919050565b6000819050919050565b6000610c10610c0b610c0684610be1565b610beb565b610be1565b9050919050565b6000819050919050565b610c2a83610bf5565b610c3e610c3682610c17565b848454610b8f565b825550505050565b600090565b610c53610c46565b610c5e818484610c21565b505050565b5b81811015610c8257610c77600082610c4b565b600181019050610c64565b5050565b601f821115610cc757610c98816109f6565b610ca184610b72565b81016020851015610cb0578190505b610cc4610cbc85610b72565b830182610c63565b50505b505050565b600082821c905092915050565b6000610cea60001984600802610ccc565b1980831691505092915050565b6000610d038383610cd9565b9150826002028217905092915050565b610d1c8261061b565b67ffffffffffffffff811115610d3557610d34610737565b5b610d3f8254610959565b610d4a828285610c86565b600060209050601f831160018114610d7d5760008415610d6b578287015190505b610d758582610cf7565b865550610ddd565b601f198416610d8b866109f6565b60005b82811015610db357848901518255600182019150602085019450602081019050610d8e565b86831015610dd05784890151610dcc601f891682610cd9565b8355505b6001600288020188555050505b50505050505056fea2646970667358221220624ea1ae325927197a6e7280b6c0ec69e809a18aae4df1d117acb22b2662a7dc64736f6c63430008130033",
  "linkReferences": {},
  "deployedLinkReferences": {}
}