{
  "_format": "hh-sol-artifact-1",
  "contractName": "Roles",
  "sourceName": "contracts/utils/Roles.sol",
  "abi": [
    {
      "inputs": [],
      "stateMutability": "nonpayable",
      "type": "constructor"
    },
    {
      "inputs": [
        {
          "internalType": "address",
          "name": "_user",
          "type": "address"
        }
      ],
      "name": "getRole",
      "outputs": [
        {
          "internalType": "string",
          "name": "",
          "type": "string"
        }
      ],
      "stateMutability": "view",
      "type": "function"
    },
    {
      "inputs": [
        {
          "internalType": "address",
          "name": "_user",
          "type": "address"
        }
      ],
      "name": "isInvestor",
      "outputs": [
        {
          "internalType": "bool",
          "name": "",
          "type": "bool"
        }
      ],
      "stateMutability": "view",
      "type": "function"
    },
    {
      "inputs": [
        {
          "internalType": "address",
          "name": "_user",
          "type": "address"
        }
      ],
      "name": "isIssuer",
      "outputs": [
        {
          "internalType": "bool",
          "name": "",
          "type": "bool"
        }
      ],
      "stateMutability": "view",
      "type": "function"
    },
    {
      "inputs": [],
      "name": "owner",
      "outputs": [
        {
          "internalType": "address",
          "name": "",
          "type": "address"
        }
      ],
      "stateMutability": "view",
      "type": "function"
    },
    {
      "inputs": [
        {
          "internalType": "address",
          "name": "",
          "type": "address"
        }
      ],
      "name": "roles",
      "outputs": [
        {
          "internalType": "string",
          "name": "",
          "type": "string"
        }
      ],
      "stateMutability": "view",
      "type": "function"
    },
    {
      "inputs": [
        {
          "internalType": "string",
          "name": "_role",
          "type": "string"
        },
        {
          "internalType": "address",
          "name": "_user",
          "type": "address"
        }
      ],
      "name": "setRole",
      "outputs": [],
      "stateMutability": "nonpayable",
      "type": "function"
    },
    {
      "inputs": [
        {
          "internalType": "address",
          "name": "_toposBankContract",
          "type": "address"
        }
      ],
      "name": "setToposBankContract",
      "outputs": [],
      "stateMutability": "nonpayable",
      "type": "function"
    },
    {
      "inputs": [],
      "name": "toposBankContract",
      "outputs": [
        {
          "internalType": "address",
          "name": "",
          "type": "address"
        }
      ],
      "stateMutability": "view",
      "type": "function"
    }
  ],
  "bytecode": "0x608060405234801561001057600080fd5b5033600160006101000a81548173ffffffffffffffffffffffffffffffffffffffff021916908373ffffffffffffffffffffffffffffffffffffffff160217905550610ef6806100616000396000f3fe608060405234801561001057600080fd5b50600436106100885760003560e01c8063993746421161005b57806399374642146101275780639c34712a14610157578063cee2a9cf14610175578063cfde1890146101a557610088565b8063386c21061461008d57806344276733146100a9578063877b9a67146100d95780638da5cb5b14610109575b600080fd5b6100a760048036038101906100a291906106c9565b6101c1565b005b6100c360048036038101906100be91906106c9565b610295565b6040516100d09190610786565b60405180910390f35b6100f360048036038101906100ee91906106c9565b610365565b60405161010091906107c3565b60405180910390f35b6101116103f8565b60405161011e91906107ed565b60405180910390f35b610141600480360381019061013c91906106c9565b61041e565b60405161014e9190610786565b60405180910390f35b61015f6104be565b60405161016c91906107ed565b60405180910390f35b61018f600480360381019061018a91906106c9565b6104e4565b60405161019c91906107c3565b60405180910390f35b6101bf60048036038101906101ba919061093d565b610577565b005b600160009054906101000a900473ffffffffffffffffffffffffffffffffffffffff1673ffffffffffffffffffffffffffffffffffffffff163373ffffffffffffffffffffffffffffffffffffffff1614610251576040517f08c379a0000000000000000000000000000000000000000000000000000000008152600401610248906109e5565b60405180910390fd5b80600260006101000a81548173ffffffffffffffffffffffffffffffffffffffff021916908373ffffffffffffffffffffffffffffffffffffffff16021790555050565b60606000808373ffffffffffffffffffffffffffffffffffffffff1673ffffffffffffffffffffffffffffffffffffffff16815260200190815260200160002080546102e090610a34565b80601f016020809104026020016040519081016040528092919081815260200182805461030c90610a34565b80156103595780601f1061032e57610100808354040283529160200191610359565b820191906000526020600020905b81548152906001019060200180831161033c57829003601f168201915b50505050509050919050565b600060405160200161037690610abc565b604051602081830303815290604052805190602001206000808473ffffffffffffffffffffffffffffffffffffffff1673ffffffffffffffffffffffffffffffffffffffff1681526020019081526020016000206040516020016103da9190610b69565b60405160208183030381529060405280519060200120149050919050565b600160009054906101000a900473ffffffffffffffffffffffffffffffffffffffff1681565b6000602052806000526040600020600091509050805461043d90610a34565b80601f016020809104026020016040519081016040528092919081815260200182805461046990610a34565b80156104b65780601f1061048b576101008083540402835291602001916104b6565b820191906000526020600020905b81548152906001019060200180831161049957829003601f168201915b505050505081565b600260009054906101000a900473ffffffffffffffffffffffffffffffffffffffff1681565b60006040516020016104f590610bcc565b604051602081830303815290604052805190602001206000808473ffffffffffffffffffffffffffffffffffffffff1673ffffffffffffffffffffffffffffffffffffffff1681526020019081526020016000206040516020016105599190610b69565b60405160208183030381529060405280519060200120149050919050565b600260009054906101000a900473ffffffffffffffffffffffffffffffffffffffff1673ffffffffffffffffffffffffffffffffffffffff163373ffffffffffffffffffffffffffffffffffffffff1614610607576040517f08c379a00000000000000000000000000000000000000000000000000000000081526004016105fe90610c2d565b60405180910390fd5b816000808373ffffffffffffffffffffffffffffffffffffffff1673ffffffffffffffffffffffffffffffffffffffff16815260200190815260200160002090816106529190610dee565b505050565b6000604051905090565b600080fd5b600080fd5b600073ffffffffffffffffffffffffffffffffffffffff82169050919050565b60006106968261066b565b9050919050565b6106a68161068b565b81146106b157600080fd5b50565b6000813590506106c38161069d565b92915050565b6000602082840312156106df576106de610661565b5b60006106ed848285016106b4565b91505092915050565b600081519050919050565b600082825260208201905092915050565b60005b83811015610730578082015181840152602081019050610715565b60008484015250505050565b6000601f19601f8301169050919050565b6000610758826106f6565b6107628185610701565b9350610772818560208601610712565b61077b8161073c565b840191505092915050565b600060208201905081810360008301526107a0818461074d565b905092915050565b60008115159050919050565b6107bd816107a8565b82525050565b60006020820190506107d860008301846107b4565b92915050565b6107e78161068b565b82525050565b600060208201905061080260008301846107de565b92915050565b600080fd5b600080fd5b7f4e487b7100000000000000000000000000000000000000000000000000000000600052604160045260246000fd5b61084a8261073c565b810181811067ffffffffffffffff8211171561086957610868610812565b5b80604052505050565b600061087c610657565b90506108888282610841565b919050565b600067ffffffffffffffff8211156108a8576108a7610812565b5b6108b18261073c565b9050602081019050919050565b82818337600083830152505050565b60006108e06108db8461088d565b610872565b9050828152602081018484840111156108fc576108fb61080d565b5b6109078482856108be565b509392505050565b600082601f83011261092457610923610808565b5b81356109348482602086016108cd565b91505092915050565b6000806040838503121561095457610953610661565b5b600083013567ffffffffffffffff81111561097257610971610666565b5b61097e8582860161090f565b925050602061098f858286016106b4565b9150509250929050565b7f4f4e4c595f4f574e455200000000000000000000000000000000000000000000600082015250565b60006109cf600a83610701565b91506109da82610999565b602082019050919050565b600060208201905081810360008301526109fe816109c2565b9050919050565b7f4e487b7100000000000000000000000000000000000000000000000000000000600052602260045260246000fd5b60006002820490506001821680610a4c57607f821691505b602082108103610a5f57610a5e610a05565b5b50919050565b600081905092915050565b7f4953535545520000000000000000000000000000000000000000000000000000600082015250565b6000610aa6600683610a65565b9150610ab182610a70565b600682019050919050565b6000610ac782610a99565b9150819050919050565b60008190508160005260206000209050919050565b60008154610af381610a34565b610afd8186610a65565b94506001821660008114610b185760018114610b2d57610b60565b60ff1983168652811515820286019350610b60565b610b3685610ad1565b60005b83811015610b5857815481890152600182019150602081019050610b39565b838801955050505b50505092915050565b6000610b758284610ae6565b915081905092915050565b7f494e564553544f52000000000000000000000000000000000000000000000000600082015250565b6000610bb6600883610a65565b9150610bc182610b80565b600882019050919050565b6000610bd782610ba9565b9150819050919050565b7f526f6c65733a204f4e4c595f544f504f535f42414e4b00000000000000000000600082015250565b6000610c17601683610701565b9150610c2282610be1565b602082019050919050565b60006020820190508181036000830152610c4681610c0a565b9050919050565b60006020601f8301049050919050565b600082821b905092915050565b600060088302610c9a7fffffffffffffffffffffffffffffffffffffffffffffffffffffffffffffffff82610c5d565b610ca48683610c5d565b95508019841693508086168417925050509392505050565b6000819050919050565b6000819050919050565b6000610ceb610ce6610ce184610cbc565b610cc6565b610cbc565b9050919050565b6000819050919050565b610d0583610cd0565b610d19610d1182610cf2565b848454610c6a565b825550505050565b600090565b610d2e610d21565b610d39818484610cfc565b505050565b5b81811015610d5d57610d52600082610d26565b600181019050610d3f565b5050565b601f821115610da257610d7381610ad1565b610d7c84610c4d565b81016020851015610d8b578190505b610d9f610d9785610c4d565b830182610d3e565b50505b505050565b600082821c905092915050565b6000610dc560001984600802610da7565b1980831691505092915050565b6000610dde8383610db4565b9150826002028217905092915050565b610df7826106f6565b67ffffffffffffffff811115610e1057610e0f610812565b5b610e1a8254610a34565b610e25828285610d61565b600060209050601f831160018114610e585760008415610e46578287015190505b610e508582610dd2565b865550610eb8565b601f198416610e6686610ad1565b60005b82811015610e8e57848901518255600182019150602085019450602081019050610e69565b86831015610eab5784890151610ea7601f891682610db4565b8355505b6001600288020188555050505b50505050505056fea2646970667358221220af9f915f11782a3f1f630f40cf74a8b7b0d8fe68ce887180df86d60eaf12422064736f6c63430008130033",
  "linkReferences": {},
  "deployedLinkReferences": {}
}