{
  "_format": "hh-sol-artifact-1",
  "contractName": "ToposBank",
  "sourceName": "contracts/Topos/Bank/ToposBank.sol",
  "abi": [
    {
      "inputs": [
        {
          "internalType": "address",
          "name": "_toposManager",
          "type": "address"
        },
        {
          "internalType": "address",
          "name": "_rolesContract",
          "type": "address"
        },
        {
          "internalType": "address",
          "name": "_identityRegistryContract",
          "type": "address"
        },
        {
          "internalType": "address",
          "name": "_bondCallContract",
          "type": "address"
        },
        {
          "internalType": "address",
          "name": "_irsCallContract",
          "type": "address"
        },
        {
          "internalType": "uint256",
          "name": "_dealFees",
          "type": "uint256"
        }
      ],
      "stateMutability": "nonpayable",
      "type": "constructor"
    },
    {
      "inputs": [
        {
          "internalType": "uint256",
          "name": "amount",
          "type": "uint256"
        }
      ],
      "name": "InvalidAmount",
      "type": "error"
    },
    {
      "inputs": [
        {
          "internalType": "string",
          "name": "dealID",
          "type": "string"
        }
      ],
      "name": "InvalidDealStatus",
      "type": "error"
    },
    {
      "anonymous": false,
      "inputs": [
        {
          "indexed": false,
          "internalType": "string",
          "name": "_dealID",
          "type": "string"
        }
      ],
      "name": "BondIssue",
      "type": "event"
    },
    {
      "anonymous": false,
      "inputs": [
        {
          "indexed": false,
          "internalType": "string",
          "name": "_dealID",
          "type": "string"
        }
      ],
      "name": "BondRedeem",
      "type": "event"
    },
    {
      "anonymous": false,
      "inputs": [
        {
          "indexed": false,
          "internalType": "string",
          "name": "dealID",
          "type": "string"
        }
      ],
      "name": "DealAPproved",
      "type": "event"
    },
    {
      "anonymous": false,
      "inputs": [
        {
          "indexed": false,
          "internalType": "string",
          "name": "dealID",
          "type": "string"
        }
      ],
      "name": "DealARejected",
      "type": "event"
    },
    {
      "anonymous": false,
      "inputs": [
        {
          "indexed": false,
          "internalType": "string",
          "name": "dealID",
          "type": "string"
        },
        {
          "components": [
            {
              "internalType": "string",
              "name": "dealID",
              "type": "string"
            },
            {
              "internalType": "string",
              "name": "prospectusURI",
              "type": "string"
            },
            {
              "internalType": "address",
              "name": "issuerAddress",
              "type": "address"
            },
            {
              "internalType": "uint256",
              "name": "debtAmount",
              "type": "uint256"
            },
            {
              "internalType": "uint256",
              "name": "denomination",
              "type": "uint256"
            },
            {
              "internalType": "uint256",
              "name": "couponRate",
              "type": "uint256"
            },
            {
              "internalType": "uint256",
              "name": "couponFrequency",
              "type": "uint256"
            },
            {
              "internalType": "uint256",
              "name": "maturityDate",
              "type": "uint256"
            },
            {
              "internalType": "uint256",
              "name": "index",
              "type": "uint256"
            },
            {
              "internalType": "address",
              "name": "currency",
              "type": "address"
            },
            {
              "internalType": "uint8",
              "name": "couponType",
              "type": "uint8"
            },
            {
              "internalType": "enum BondData.DealStatus",
              "name": "status",
              "type": "uint8"
            }
          ],
          "indexed": false,
          "internalType": "struct BondData.Deal",
          "name": "deal",
          "type": "tuple"
        }
      ],
      "name": "DealSubmitted",
      "type": "event"
    },
    {
      "anonymous": false,
      "inputs": [
        {
          "indexed": false,
          "internalType": "string",
          "name": "dealID",
          "type": "string"
        },
        {
          "indexed": false,
          "internalType": "address",
          "name": "investor",
          "type": "address"
        }
      ],
      "name": "RegisterForDeal",
      "type": "event"
    },
    {
      "inputs": [
        {
          "internalType": "address",
          "name": "",
          "type": "address"
        },
        {
          "internalType": "string",
          "name": "",
          "type": "string"
        }
      ],
      "name": "amountInvested",
      "outputs": [
        {
          "internalType": "uint256",
          "name": "amount",
          "type": "uint256"
        },
        {
          "internalType": "bool",
          "name": "hasInvested",
          "type": "bool"
        },
        {
          "internalType": "uint256",
          "name": "index",
          "type": "uint256"
        }
      ],
      "stateMutability": "view",
      "type": "function"
    },
    {
      "inputs": [
        {
          "internalType": "string",
          "name": "_dealID",
          "type": "string"
        }
      ],
      "name": "approveDeal",
      "outputs": [],
      "stateMutability": "nonpayable",
      "type": "function"
    },
    {
      "inputs": [],
      "name": "bondCallContract",
      "outputs": [
        {
          "internalType": "address",
          "name": "",
          "type": "address"
        }
      ],
      "stateMutability": "view",
      "type": "function"
    },
    {
      "inputs": [
        {
          "internalType": "string",
          "name": "",
          "type": "string"
        }
      ],
      "name": "dealBondContracts",
      "outputs": [
        {
          "internalType": "address",
          "name": "",
          "type": "address"
        }
      ],
      "stateMutability": "view",
      "type": "function"
    },
    {
      "inputs": [],
      "name": "dealFees",
      "outputs": [
        {
          "internalType": "uint256",
          "name": "",
          "type": "uint256"
        }
      ],
      "stateMutability": "view",
      "type": "function"
    },
    {
      "inputs": [
        {
          "internalType": "string",
          "name": "",
          "type": "string"
        },
        {
          "internalType": "uint256",
          "name": "",
          "type": "uint256"
        }
      ],
      "name": "dealInvestment",
      "outputs": [
        {
          "internalType": "address",
          "name": "investor",
          "type": "address"
        },
        {
          "internalType": "uint256",
          "name": "amount",
          "type": "uint256"
        }
      ],
      "stateMutability": "view",
      "type": "function"
    },
    {
      "inputs": [
        {
          "internalType": "string",
          "name": "",
          "type": "string"
        }
      ],
      "name": "deals",
      "outputs": [
        {
          "internalType": "string",
          "name": "dealID",
          "type": "string"
        },
        {
          "internalType": "string",
          "name": "prospectusURI",
          "type": "string"
        },
        {
          "internalType": "address",
          "name": "issuerAddress",
          "type": "address"
        },
        {
          "internalType": "uint256",
          "name": "debtAmount",
          "type": "uint256"
        },
        {
          "internalType": "uint256",
          "name": "denomination",
          "type": "uint256"
        },
        {
          "internalType": "uint256",
          "name": "couponRate",
          "type": "uint256"
        },
        {
          "internalType": "uint256",
          "name": "couponFrequency",
          "type": "uint256"
        },
        {
          "internalType": "uint256",
          "name": "maturityDate",
          "type": "uint256"
        },
        {
          "internalType": "uint256",
          "name": "index",
          "type": "uint256"
        },
        {
          "internalType": "address",
          "name": "currency",
          "type": "address"
        },
        {
          "internalType": "uint8",
          "name": "couponType",
          "type": "uint8"
        },
        {
          "internalType": "enum BondData.DealStatus",
          "name": "status",
          "type": "uint8"
        }
      ],
      "stateMutability": "view",
      "type": "function"
    },
    {
      "inputs": [
        {
          "internalType": "address",
          "name": "_swapContract",
          "type": "address"
        }
      ],
      "name": "endSwapContract",
      "outputs": [],
      "stateMutability": "nonpayable",
      "type": "function"
    },
    {
      "inputs": [],
      "name": "getBenchmark",
      "outputs": [
        {
          "internalType": "uint256",
          "name": "",
          "type": "uint256"
        }
      ],
      "stateMutability": "view",
      "type": "function"
    },
    {
      "inputs": [],
      "name": "getContracts",
      "outputs": [
        {
          "internalType": "address",
          "name": "manager",
          "type": "address"
        },
        {
          "internalType": "address",
          "name": "roles",
          "type": "address"
        },
        {
          "internalType": "address",
          "name": "identityRegistry",
          "type": "address"
        },
        {
          "internalType": "address",
          "name": "bondCall",
          "type": "address"
        },
        {
          "internalType": "address",
          "name": "issuerFund",
          "type": "address"
        }
      ],
      "stateMutability": "view",
      "type": "function"
    },
    {
      "inputs": [
        {
          "internalType": "string",
          "name": "_dealID",
          "type": "string"
        }
      ],
      "name": "getDeal",
      "outputs": [
        {
          "components": [
            {
              "internalType": "string",
              "name": "dealID",
              "type": "string"
            },
            {
              "internalType": "string",
              "name": "prospectusURI",
              "type": "string"
            },
            {
              "internalType": "address",
              "name": "issuerAddress",
              "type": "address"
            },
            {
              "internalType": "uint256",
              "name": "debtAmount",
              "type": "uint256"
            },
            {
              "internalType": "uint256",
              "name": "denomination",
              "type": "uint256"
            },
            {
              "internalType": "uint256",
              "name": "couponRate",
              "type": "uint256"
            },
            {
              "internalType": "uint256",
              "name": "couponFrequency",
              "type": "uint256"
            },
            {
              "internalType": "uint256",
              "name": "maturityDate",
              "type": "uint256"
            },
            {
              "internalType": "uint256",
              "name": "index",
              "type": "uint256"
            },
            {
              "internalType": "address",
              "name": "currency",
              "type": "address"
            },
            {
              "internalType": "uint8",
              "name": "couponType",
              "type": "uint8"
            },
            {
              "internalType": "enum BondData.DealStatus",
              "name": "status",
              "type": "uint8"
            }
          ],
          "internalType": "struct BondData.Deal",
          "name": "",
          "type": "tuple"
        }
      ],
      "stateMutability": "view",
      "type": "function"
    },
    {
      "inputs": [
        {
          "internalType": "string",
          "name": "_dealID",
          "type": "string"
        }
      ],
      "name": "getDealBondContract",
      "outputs": [
        {
          "internalType": "address",
          "name": "",
          "type": "address"
        }
      ],
      "stateMutability": "view",
      "type": "function"
    },
    {
      "inputs": [],
      "name": "getDealFees",
      "outputs": [
        {
          "internalType": "uint256",
          "name": "",
          "type": "uint256"
        }
      ],
      "stateMutability": "view",
      "type": "function"
    },
    {
      "inputs": [
        {
          "internalType": "string",
          "name": "_dealID",
          "type": "string"
        }
      ],
      "name": "getDealInvestment",
      "outputs": [
        {
          "components": [
            {
              "internalType": "address",
              "name": "investor",
              "type": "address"
            },
            {
              "internalType": "uint256",
              "name": "amount",
              "type": "uint256"
            }
          ],
          "internalType": "struct BondData.DealInvestment[]",
          "name": "",
          "type": "tuple[]"
        }
      ],
      "stateMutability": "view",
      "type": "function"
    },
    {
      "inputs": [
        {
          "internalType": "address",
          "name": "_fixedPayerContract",
          "type": "address"
        },
        {
          "internalType": "address",
          "name": "_floatingPayerContract",
          "type": "address"
        }
      ],
      "name": "getIRSContract",
      "outputs": [
        {
          "internalType": "address",
          "name": "",
          "type": "address"
        }
      ],
      "stateMutability": "view",
      "type": "function"
    },
    {
      "inputs": [],
      "name": "getListOfBonds",
      "outputs": [
        {
          "components": [
            {
              "internalType": "string",
              "name": "isin",
              "type": "string"
            },
            {
              "internalType": "string",
              "name": "name",
              "type": "string"
            },
            {
              "internalType": "string",
              "name": "symbol",
              "type": "string"
            },
            {
              "internalType": "address",
              "name": "currency",
              "type": "address"
            },
            {
              "internalType": "uint256",
              "name": "denomination",
              "type": "uint256"
            },
            {
              "internalType": "uint256",
              "name": "issueVolume",
              "type": "uint256"
            },
            {
              "internalType": "uint256",
              "name": "couponRate",
              "type": "uint256"
            },
            {
              "internalType": "uint8",
              "name": "couponType",
              "type": "uint8"
            },
            {
              "internalType": "uint256",
              "name": "couponFrequency",
              "type": "uint256"
            },
            {
              "internalType": "uint256",
              "name": "issueDate",
              "type": "uint256"
            },
            {
              "internalType": "uint256",
              "name": "maturityDate",
              "type": "uint256"
            }
          ],
          "internalType": "struct BondData.Bond[]",
          "name": "",
          "type": "tuple[]"
        }
      ],
      "stateMutability": "view",
      "type": "function"
    },
    {
      "inputs": [],
      "name": "getListOfBondsDealIDs",
      "outputs": [
        {
          "internalType": "string[]",
          "name": "",
          "type": "string[]"
        }
      ],
      "stateMutability": "view",
      "type": "function"
    },
    {
      "inputs": [],
      "name": "getListOfDeals",
      "outputs": [
        {
          "components": [
            {
              "internalType": "string",
              "name": "dealID",
              "type": "string"
            },
            {
              "internalType": "string",
              "name": "prospectusURI",
              "type": "string"
            },
            {
              "internalType": "address",
              "name": "issuerAddress",
              "type": "address"
            },
            {
              "internalType": "uint256",
              "name": "debtAmount",
              "type": "uint256"
            },
            {
              "internalType": "uint256",
              "name": "denomination",
              "type": "uint256"
            },
            {
              "internalType": "uint256",
              "name": "couponRate",
              "type": "uint256"
            },
            {
              "internalType": "uint256",
              "name": "couponFrequency",
              "type": "uint256"
            },
            {
              "internalType": "uint256",
              "name": "maturityDate",
              "type": "uint256"
            },
            {
              "internalType": "uint256",
              "name": "index",
              "type": "uint256"
            },
            {
              "internalType": "address",
              "name": "currency",
              "type": "address"
            },
            {
              "internalType": "uint8",
              "name": "couponType",
              "type": "uint8"
            },
            {
              "internalType": "enum BondData.DealStatus",
              "name": "status",
              "type": "uint8"
            }
          ],
          "internalType": "struct BondData.Deal[]",
          "name": "",
          "type": "tuple[]"
        }
      ],
      "stateMutability": "view",
      "type": "function"
    },
    {
      "inputs": [],
      "name": "getListOfIRS",
      "outputs": [
        {
          "components": [
            {
              "internalType": "address",
              "name": "fixedInterestPayer",
              "type": "address"
            },
            {
              "internalType": "address",
              "name": "floatingInterestPayer",
              "type": "address"
            },
            {
              "internalType": "uint8",
              "name": "ratesDecimals",
              "type": "uint8"
            },
            {
              "internalType": "uint8",
              "name": "status",
              "type": "uint8"
            },
            {
              "internalType": "uint256",
              "name": "swapRate",
              "type": "uint256"
            },
            {
              "internalType": "uint256",
              "name": "spread",
              "type": "uint256"
            },
            {
              "internalType": "address",
              "name": "assetContract",
              "type": "address"
            },
            {
              "internalType": "uint256",
              "name": "notionalAmount",
              "type": "uint256"
            },
            {
              "internalType": "uint256",
              "name": "paymentFrequency",
              "type": "uint256"
            },
            {
              "internalType": "uint256",
              "name": "startingDate",
              "type": "uint256"
            },
            {
              "internalType": "uint256",
              "name": "maturityDate",
              "type": "uint256"
            },
            {
              "internalType": "uint256",
              "name": "benchmark",
              "type": "uint256"
            }
          ],
          "internalType": "struct IRSTypes.IRS[]",
          "name": "",
          "type": "tuple[]"
        }
      ],
      "stateMutability": "view",
      "type": "function"
    },
    {
      "inputs": [
        {
          "internalType": "string",
          "name": "_dealID",
          "type": "string"
        }
      ],
      "name": "getTotalAmounInvested",
      "outputs": [
        {
          "internalType": "uint256",
          "name": "",
          "type": "uint256"
        }
      ],
      "stateMutability": "view",
      "type": "function"
    },
    {
      "inputs": [],
      "name": "identityRegistryContract",
      "outputs": [
        {
          "internalType": "address",
          "name": "",
          "type": "address"
        }
      ],
      "stateMutability": "view",
      "type": "function"
    },
    {
      "inputs": [],
      "name": "irsCallContract",
      "outputs": [
        {
          "internalType": "address",
          "name": "",
          "type": "address"
        }
      ],
      "stateMutability": "view",
      "type": "function"
    },
    {
      "inputs": [
        {
          "internalType": "string",
          "name": "_dealID",
          "type": "string"
        },
        {
          "components": [
            {
              "internalType": "string",
              "name": "isin",
              "type": "string"
            },
            {
              "internalType": "string",
              "name": "name",
              "type": "string"
            },
            {
              "internalType": "string",
              "name": "symbol",
              "type": "string"
            },
            {
              "internalType": "address",
              "name": "currency",
              "type": "address"
            },
            {
              "internalType": "uint256",
              "name": "denomination",
              "type": "uint256"
            },
            {
              "internalType": "uint256",
              "name": "issueVolume",
              "type": "uint256"
            },
            {
              "internalType": "uint256",
              "name": "couponRate",
              "type": "uint256"
            },
            {
              "internalType": "uint8",
              "name": "couponType",
              "type": "uint8"
            },
            {
              "internalType": "uint256",
              "name": "couponFrequency",
              "type": "uint256"
            },
            {
              "internalType": "uint256",
              "name": "issueDate",
              "type": "uint256"
            },
            {
              "internalType": "uint256",
              "name": "maturityDate",
              "type": "uint256"
            }
          ],
          "internalType": "struct BondData.Bond",
          "name": "_bond",
          "type": "tuple"
        },
        {
          "internalType": "address",
          "name": "_bondContract",
          "type": "address"
        }
      ],
      "name": "issue",
      "outputs": [],
      "stateMutability": "nonpayable",
      "type": "function"
    },
    {
      "inputs": [
        {
          "internalType": "address",
          "name": "",
          "type": "address"
        },
        {
          "internalType": "uint256",
          "name": "",
          "type": "uint256"
        }
      ],
      "name": "issuerDeals",
      "outputs": [
        {
          "internalType": "string",
          "name": "dealID",
          "type": "string"
        },
        {
          "internalType": "string",
          "name": "prospectusURI",
          "type": "string"
        },
        {
          "internalType": "address",
          "name": "issuerAddress",
          "type": "address"
        },
        {
          "internalType": "uint256",
          "name": "debtAmount",
          "type": "uint256"
        },
        {
          "internalType": "uint256",
          "name": "denomination",
          "type": "uint256"
        },
        {
          "internalType": "uint256",
          "name": "couponRate",
          "type": "uint256"
        },
        {
          "internalType": "uint256",
          "name": "couponFrequency",
          "type": "uint256"
        },
        {
          "internalType": "uint256",
          "name": "maturityDate",
          "type": "uint256"
        },
        {
          "internalType": "uint256",
          "name": "index",
          "type": "uint256"
        },
        {
          "internalType": "address",
          "name": "currency",
          "type": "address"
        },
        {
          "internalType": "uint8",
          "name": "couponType",
          "type": "uint8"
        },
        {
          "internalType": "enum BondData.DealStatus",
          "name": "status",
          "type": "uint8"
        }
      ],
      "stateMutability": "view",
      "type": "function"
    },
    {
      "inputs": [],
      "name": "issuersFundContract",
      "outputs": [
        {
          "internalType": "address",
          "name": "",
          "type": "address"
        }
      ],
      "stateMutability": "view",
      "type": "function"
    },
    {
      "inputs": [
        {
          "internalType": "string",
          "name": "_dealID",
          "type": "string"
        },
        {
          "internalType": "address",
          "name": "_bondContract",
          "type": "address"
        }
      ],
      "name": "redeem",
      "outputs": [],
      "stateMutability": "nonpayable",
      "type": "function"
    },
    {
      "inputs": [
        {
          "internalType": "string",
          "name": "_dealID",
          "type": "string"
        },
        {
          "internalType": "uint256",
          "name": "_amount",
          "type": "uint256"
        }
      ],
      "name": "registerForDeal",
      "outputs": [],
      "stateMutability": "nonpayable",
      "type": "function"
    },
    {
      "inputs": [
        {
          "internalType": "string",
          "name": "_dealID",
          "type": "string"
        }
      ],
      "name": "rejectDeal",
      "outputs": [],
      "stateMutability": "nonpayable",
      "type": "function"
    },
    {
      "inputs": [],
      "name": "rolesContract",
      "outputs": [
        {
          "internalType": "address",
          "name": "",
          "type": "address"
        }
      ],
      "stateMutability": "view",
      "type": "function"
    },
    {
      "inputs": [
        {
          "internalType": "uint256",
          "name": "_benchmark",
          "type": "uint256"
        }
      ],
      "name": "setBenchmark",
      "outputs": [],
      "stateMutability": "nonpayable",
      "type": "function"
    },
    {
      "inputs": [
        {
          "internalType": "string",
          "name": "_dealID",
          "type": "string"
        },
        {
          "internalType": "address",
          "name": "_bondContractAddress",
          "type": "address"
        }
      ],
      "name": "setBondContractAddress",
      "outputs": [],
      "stateMutability": "nonpayable",
      "type": "function"
    },
    {
      "inputs": [
        {
          "internalType": "uint256",
          "name": "_newBenchmark",
          "type": "uint256"
        },
        {
          "internalType": "address",
          "name": "_swapContract",
          "type": "address"
        }
      ],
      "name": "setIRSBenchmark",
      "outputs": [],
      "stateMutability": "nonpayable",
      "type": "function"
    },
    {
      "inputs": [
        {
          "internalType": "address",
          "name": "_fixedPayerContract",
          "type": "address"
        },
        {
          "internalType": "address",
          "name": "_floatingPayerContract",
          "type": "address"
        },
        {
          "internalType": "address",
          "name": "_irsContractAddress",
          "type": "address"
        },
        {
          "components": [
            {
              "internalType": "address",
              "name": "fixedInterestPayer",
              "type": "address"
            },
            {
              "internalType": "address",
              "name": "floatingInterestPayer",
              "type": "address"
            },
            {
              "internalType": "uint8",
              "name": "ratesDecimals",
              "type": "uint8"
            },
            {
              "internalType": "uint8",
              "name": "status",
              "type": "uint8"
            },
            {
              "internalType": "uint256",
              "name": "swapRate",
              "type": "uint256"
            },
            {
              "internalType": "uint256",
              "name": "spread",
              "type": "uint256"
            },
            {
              "internalType": "address",
              "name": "assetContract",
              "type": "address"
            },
            {
              "internalType": "uint256",
              "name": "notionalAmount",
              "type": "uint256"
            },
            {
              "internalType": "uint256",
              "name": "paymentFrequency",
              "type": "uint256"
            },
            {
              "internalType": "uint256",
              "name": "startingDate",
              "type": "uint256"
            },
            {
              "internalType": "uint256",
              "name": "maturityDate",
              "type": "uint256"
            },
            {
              "internalType": "uint256",
              "name": "benchmark",
              "type": "uint256"
            }
          ],
          "internalType": "struct IRSTypes.IRS",
          "name": "_irs",
          "type": "tuple"
        }
      ],
      "name": "setIRSContractAddress",
      "outputs": [],
      "stateMutability": "nonpayable",
      "type": "function"
    },
    {
      "inputs": [
        {
          "internalType": "address",
          "name": "_issuerFundContract",
          "type": "address"
        }
      ],
      "name": "setIssuerFundContract",
      "outputs": [],
      "stateMutability": "nonpayable",
      "type": "function"
    },
    {
      "inputs": [
        {
          "internalType": "address",
          "name": "_toposManager",
          "type": "address"
        }
      ],
      "name": "setManager",
      "outputs": [],
      "stateMutability": "nonpayable",
      "type": "function"
    },
    {
      "inputs": [
        {
          "internalType": "string",
          "name": "_dealID",
          "type": "string"
        },
        {
          "components": [
            {
              "internalType": "string",
              "name": "dealID",
              "type": "string"
            },
            {
              "internalType": "string",
              "name": "prospectusURI",
              "type": "string"
            },
            {
              "internalType": "address",
              "name": "issuerAddress",
              "type": "address"
            },
            {
              "internalType": "uint256",
              "name": "debtAmount",
              "type": "uint256"
            },
            {
              "internalType": "uint256",
              "name": "denomination",
              "type": "uint256"
            },
            {
              "internalType": "uint256",
              "name": "couponRate",
              "type": "uint256"
            },
            {
              "internalType": "uint256",
              "name": "couponFrequency",
              "type": "uint256"
            },
            {
              "internalType": "uint256",
              "name": "maturityDate",
              "type": "uint256"
            },
            {
              "internalType": "uint256",
              "name": "index",
              "type": "uint256"
            },
            {
              "internalType": "address",
              "name": "currency",
              "type": "address"
            },
            {
              "internalType": "uint8",
              "name": "couponType",
              "type": "uint8"
            },
            {
              "internalType": "enum BondData.DealStatus",
              "name": "status",
              "type": "uint8"
            }
          ],
          "internalType": "struct BondData.Deal",
          "name": "_deal",
          "type": "tuple"
        }
      ],
      "name": "submitDeal",
      "outputs": [],
      "stateMutability": "nonpayable",
      "type": "function"
    },
    {
      "inputs": [
        {
          "internalType": "address",
          "name": "_swapContract",
          "type": "address"
        }
      ],
      "name": "swapIRS",
      "outputs": [],
      "stateMutability": "nonpayable",
      "type": "function"
    },
    {
      "inputs": [],
      "name": "toposManager",
      "outputs": [
        {
          "internalType": "address",
          "name": "",
          "type": "address"
        }
      ],
      "stateMutability": "view",
      "type": "function"
    },
    {
      "inputs": [
        {
          "internalType": "string",
          "name": "",
          "type": "string"
        }
      ],
      "name": "totalAmountInvestedForDeal",
      "outputs": [
        {
          "internalType": "uint256",
          "name": "",
          "type": "uint256"
        }
      ],
      "stateMutability": "view",
      "type": "function"
    },
    {
      "inputs": [
        {
          "internalType": "string",
          "name": "_dealID",
          "type": "string"
        }
      ],
      "name": "withdrawIssuerFund",
      "outputs": [],
      "stateMutability": "nonpayable",
      "type": "function"
    }
  ],
  "bytecode": "0x60806040523480156200001157600080fd5b506040516200472d3803806200472d8339810160408190526200003491620000b8565b600780546001600160a01b03199081166001600160a01b03988916179091556008805482169688169690961790955560098054861694871694909417909355600a8054851692861692909217909155600b80549093169316929092179055600d5562000130565b80516001600160a01b0381168114620000b357600080fd5b919050565b60008060008060008060c08789031215620000d257600080fd5b620000dd876200009b565b9550620000ed602088016200009b565b9450620000fd604088016200009b565b93506200010d606088016200009b565b92506200011d608088016200009b565b915060a087015190509295509295509295565b6145ed80620001406000396000f3fe608060405234801561001057600080fd5b50600436106102c85760003560e01c8063760848d01161017b578063c8d7f62e116100d8578063f3413c4f1161008c578063fe0ab4b311610071578063fe0ab4b3146108f1578063fe3b85b714610925578063ff6689d01461095d57600080fd5b8063f3413c4f146108c9578063fb90e441146108de57600080fd5b8063d0ebdbe7116100bd578063d0ebdbe714610883578063d7c4029c14610896578063e7079180146108a957600080fd5b8063c8d7f62e14610850578063ca53b3911461087057600080fd5b80639f0d8d2a1161012f578063af9080f811610114578063af9080f8146107ea578063b83c7fba146107f3578063c3a2a93a1461080657600080fd5b80639f0d8d2a146107c4578063a0a57dac146107d757600080fd5b80637af4d652116101605780637af4d6521461078b5780637bafe3d01461079e5780637f31ed73146107b157600080fd5b8063760848d01461052157806379a945691461078357600080fd5b80633887bdcf116102295780635e43522e116101dd578063605936ea116101c2578063605936ea146104e857806368a2da51146104fb578063754f399a1461050e57600080fd5b80635e43522e1461049c5780635ed7e2c1146104af57600080fd5b8063499fa18a1161020e578063499fa18a1461042c57806349f5d1d91461045e578063507251cb1461048957600080fd5b80633887bdcf1461040657806348f92ee81461041957600080fd5b80631b59122c11610280578063281ddc8e11610265578063281ddc8e146103c95780632f667910146103de57806336f9c4da146103f157600080fd5b80631b59122c146103a1578063234b153f146103b457600080fd5b80630df8bfda116102b15780630df8bfda146103665780631882c1951461037b57806319662d8e1461038e57600080fd5b8063041e9b89146102cd578063088674e01461033b575b600080fd5b61031b6102db3660046132a3565b60056020908152600092835260409092208151808301840180519281529084019290930191909120915280546001820154600290920154909160ff169083565b604080519384529115156020840152908201526060015b60405180910390f35b60095461034e906001600160a01b031681565b6040516001600160a01b039091168152602001610332565b61037961037436600461333c565b610965565b005b610379610389366004613388565b611045565b61037961039c3660046133da565b611089565b6103796103af36600461344b565b611448565b6103bc611625565b6040516103329190613488565b6103d1611715565b60405161033291906135a9565b61034e6103ec36600461344b565b6117e5565b6103f9611816565b6040516103329190613717565b61037961041436600461376c565b611a38565b610379610427366004613790565b611ac2565b61043f61043a3660046137d2565b611c82565b604080516001600160a01b039093168352602083019190915201610332565b61047161046c366004613817565b611cd7565b6040516103329c9b9a99989796959493929190613843565b6103796104973660046138d5565b611e80565b600a5461034e906001600160a01b031681565b6104da6104bd36600461344b565b805160208183018101805160048252928201919093012091525481565b604051908152602001610332565b6104da6104f6366004613790565b6122d4565b610379610509366004613957565b612300565b61037961051c366004613790565b612354565b61037961052f36600461398a565b6001600160a01b039384166000908152600260209081526040808320958716835294815284822080546001600160a01b031990811695881695909517905560128054600181018255925282517fbb8a6a4669ba250d26cd7a459eca9d215f8307e33aebe50379bc5a3617ec3444600a909302928301805486169188169190911790558201517fbb8a6a4669ba250d26cd7a459eca9d215f8307e33aebe50379bc5a3617ec34458201805495840151606085015192881674ffffffffffffffffffffffffffffffffffffffffff1990971696909617600160a01b60ff978816021760ff60a81b1916600160a81b96909216959095021790935560808101517fbb8a6a4669ba250d26cd7a459eca9d215f8307e33aebe50379bc5a3617ec344684015560a08101517fbb8a6a4669ba250d26cd7a459eca9d215f8307e33aebe50379bc5a3617ec344784015560c08101517fbb8a6a4669ba250d26cd7a459eca9d215f8307e33aebe50379bc5a3617ec344884018054909316941693909317905560e08201517fbb8a6a4669ba250d26cd7a459eca9d215f8307e33aebe50379bc5a3617ec34498201556101008201517fbb8a6a4669ba250d26cd7a459eca9d215f8307e33aebe50379bc5a3617ec344a8201556101208201517fbb8a6a4669ba250d26cd7a459eca9d215f8307e33aebe50379bc5a3617ec344b8201556101408201517fbb8a6a4669ba250d26cd7a459eca9d215f8307e33aebe50379bc5a3617ec344c820155610160909101517fbb8a6a4669ba250d26cd7a459eca9d215f8307e33aebe50379bc5a3617ec344d90910155565b600e546104da565b600b5461034e906001600160a01b031681565b6103796107ac36600461376c565b612508565b60075461034e906001600160a01b031681565b6103796107d2366004613a9c565b61258c565b6104716107e536600461344b565b612652565b6104da600d5481565b61037961080136600461376c565b612678565b600754600854600954600a54600c54604080516001600160a01b0396871681529486166020860152928516928401929092528316606083015291909116608082015260a001610332565b61086361085e366004613790565b612702565b6040516103329190613ac1565b60085461034e906001600160a01b031681565b61037961089136600461376c565b612798565b6103796108a4366004613b0c565b612868565b6108bc6108b736600461344b565b612cb6565b6040516103329190613b58565b6108d1612eb8565b6040516103329190613b6b565b600c5461034e906001600160a01b031681565b61034e6108ff36600461344b565b80516020818301810180516001825292820191909301209152546001600160a01b031681565b61034e610933366004613c73565b6001600160a01b039182166000908152600260209081526040808320938516835292905220541690565b600d546104da565b6009546040517fb9209e330000000000000000000000000000000000000000000000000000000081523360048201819052916001600160a01b03169063b9209e3390602401602060405180830381865afa1580156109c7573d6000803e3d6000fd5b505050506040513d601f19601f820116820180604052508101906109eb9190613ca1565b610a3c5760405162461bcd60e51b815260206004820152601460248201527f4143434f554e545f4e4f545f414150524f56454400000000000000000000000060448201526064015b60405180910390fd5b600260008585604051610a50929190613cc3565b9081526040519081900360200190206009015460ff600160a81b909104166005811115610a7f57610a7f61360b565b14610aa1578383604051632dc5942160e21b8152600401610a33929190613cfc565b60008484604051610ab3929190613cc3565b90815260200160405180910390206004015460008585604051610ad7929190613cc3565b90815260200160405180910390206004015483610af49190613d26565b610afe9190613d3d565b15610b38576040517f3728b83d00000000000000000000000000000000000000000000000000000000815260048101839052602401610a33565b8115801590610b95575060008484604051610b54929190613cc3565b90815260200160405180910390206003015460048585604051610b78929190613cc3565b90815260200160405180910390205483610b929190613d5f565b11155b610be15760405162461bcd60e51b815260206004820152600660248201527f616d6f756e7400000000000000000000000000000000000000000000000000006044820152606401610a33565b8160048585604051610bf4929190613cc3565b908152602001604051809103902054610c0d9190613d5f565b60048585604051610c1f929190613cc3565b9081526040805160209281900383018120939093553360009081526005909252902090610c4f9086908690613cc3565b9081526040519081900360200190206001015460ff1615610da45733600090815260056020526040908190209051839190610c8d9087908790613cc3565b90815260405190819003602001902054610ca79190613d5f565b60038585604051610cb9929190613cc3565b90815260408051918290036020908101832033600090815260059092529190209091610ce89088908890613cc3565b90815260200160405180910390206002015481548110610d0a57610d0a613d72565b9060005260206000209060020201600101819055508160056000336001600160a01b03166001600160a01b031681526020019081526020016000208585604051610d55929190613cc3565b90815260405190819003602001902054610d6f9190613d5f565b33600090815260056020526040908190209051610d8f9087908790613cc3565b90815260405190819003602001902055610ea5565b604051806060016040528083815260200160011515815260200160038686604051610dd0929190613cc3565b90815260408051602092819003830190205490925233600090815260059091528190209051610e029087908790613cc3565b9081526040805160209281900383018120845181559284015160018401805460ff1916911515919091179055920151600290910155600390610e479086908690613cc3565b90815260408051602092819003830181208183019092523381528281018581528254600180820185556000948552949093209151600290930290910180546001600160a01b0319166001600160a01b03909316929092178255519101555b600c546040517f925b7cb60000000000000000000000000000000000000000000000000000000081526001600160a01b039091169063925b7cb690610ef290879087908790600401613d88565b600060405180830381600087803b158015610f0c57600080fd5b505af1158015610f20573d6000803e3d6000fd5b5050505060008484604051610f36929190613cc3565b90815260405190819003602001902060090154600c546001600160a01b03918216916323b872dd91339116610f7386670de0b6b3a7640000613d26565b6040517fffffffff0000000000000000000000000000000000000000000000000000000060e086901b1681526001600160a01b03938416600482015292909116602483015260448201526064016020604051808303816000875af1158015610fdf573d6000803e3d6000fd5b505050506040513d601f19601f820116820180604052508101906110039190613ca1565b507f0bdaf52b4de514796607307fbbcf007ee6d59e81e1be436b67c5a567a2e8d12184843360405161103793929190613dac565b60405180910390a150505050565b806001836040516110569190613dd9565b90815260405190819003602001902080546001600160a01b03929092166001600160a01b03199092169190911790555050565b6008546040517f877b9a670000000000000000000000000000000000000000000000000000000081523360048201526001600160a01b039091169063877b9a6790602401602060405180830381865afa1580156110ea573d6000803e3d6000fd5b505050506040513d601f19601f8201168201806040525081019061110e9190613ca1565b61115a5760405162461bcd60e51b815260206004820152600a60248201527f6e6f7420697373756572000000000000000000000000000000000000000000006044820152606401610a33565b61116a606082016040830161376c565b6001600160a01b0316336001600160a01b0316146111b45760405162461bcd60e51b81526020600482015260076024820152666164647265737360c81b6044820152606401610a33565b60008084846040516111c7929190613cc3565b9081526040519081900360200190206009015460ff600160a81b9091041660058111156111f6576111f661360b565b1461122c5760405162461bcd60e51b815260206004820152600660248201526573746174757360d01b6044820152606401610a33565b806000848460405161123f929190613cc3565b9081526040519081900360200190206112588282614001565b90505060016000848460405161126f929190613cc3565b908152604051908190036020019020600901805460ff60a81b1916600160a81b8360058111156112a1576112a161360b565b02179055506010546040516000906112bc9086908690613cc3565b9081526020016040518091039020600801819055506010600084846040516112e5929190613cc3565b908152604051602091819003820190208254600181018455600093845291909220600a9091020180611317838261413f565b5060018181019061132a9084018261413f565b5060028281015490820180546001600160a01b039283166001600160a01b0319918216179091556003808501549084015560048085015490840155600580850154818501556006808601549085015560078086015490850155600880860154908501556009808601805491860180549290951693821684178555805474ffffffffffffffffffffffffffffffffffffffffff19909216909317600160a01b9182900460ff908116909202178085559254600160a81b90819004909116939260ff60a81b19169184908111156114015761140161360b565b021790555050507febc5645d06a6c6900ffbabb37c6fc84326bd870990f736254f05abb3287ffd4183838360405161143b9392919061426d565b60405180910390a1505050565b6000816040516114589190613dd9565b90815260405190819003602001902060020154336001600160a01b03909116148061148d57506007546001600160a01b031633145b6114c35760405162461bcd60e51b81526020600482015260076024820152666164647265737360c81b6044820152606401610a33565b60006001600160a01b03166000826040516114de9190613dd9565b908152604051908190036020019020600901546001600160a01b0316036115475760405162461bcd60e51b815260206004820152600560248201527f746f6b656e0000000000000000000000000000000000000000000000000000006044820152606401610a33565b600c546040516001600160a01b039091169063e04cd97f90839060009061156f908390613dd9565b908152604051908190036020018120600201546001600160a01b03169060009061159a908790613dd9565b908152604051908190036020018120600901547fffffffff0000000000000000000000000000000000000000000000000000000060e086901b1682526115f09392916001600160a01b039091169060040161437f565b600060405180830381600087803b15801561160a57600080fd5b505af115801561161e573d6000803e3d6000fd5b5050505050565b60606012805480602002602001604051908101604052809291908181526020016000905b8282101561170c5760008481526020908190206040805161018081018252600a860290920180546001600160a01b0390811684526001808301548083168688015260ff600160a01b8204811695870195909552600160a81b9004909316606085015260028201546080850152600382015460a085015260048201541660c0840152600581015460e0840152600681015461010084015260078101546101208401526008810154610140840152600901546101608301529083529092019101611649565b50505050905090565b60606011805480602002602001604051908101604052809291908181526020016000905b8282101561170c57838290600052602060002001805461175890613e3c565b80601f016020809104026020016040519081016040528092919081815260200182805461178490613e3c565b80156117d15780601f106117a6576101008083540402835291602001916117d1565b820191906000526020600020905b8154815290600101906020018083116117b457829003601f168201915b505050505081526020019060010190611739565b60006001826040516117f79190613dd9565b908152604051908190036020019020546001600160a01b031692915050565b60606010805480602002602001604051908101604052809291908181526020016000905b8282101561170c57838290600052602060002090600a02016040518061018001604052908160008201805461186e90613e3c565b80601f016020809104026020016040519081016040528092919081815260200182805461189a90613e3c565b80156118e75780601f106118bc576101008083540402835291602001916118e7565b820191906000526020600020905b8154815290600101906020018083116118ca57829003601f168201915b5050505050815260200160018201805461190090613e3c565b80601f016020809104026020016040519081016040528092919081815260200182805461192c90613e3c565b80156119795780601f1061194e57610100808354040283529160200191611979565b820191906000526020600020905b81548152906001019060200180831161195c57829003601f168201915b505050918352505060028201546001600160a01b03908116602083015260038301546040830152600483015460608301526005808401546080840152600684015460a0840152600784015460c0840152600884015460e0840152600984015491821661010084015260ff600160a01b8304811661012085015261014090930192600160a81b90920490911690811115611a1457611a1461360b565b6005811115611a2557611a2561360b565b815250508152602001906001019061183a565b6007546001600160a01b03163314611a875760405162461bcd60e51b815260206004820152601260248201527127a7262cafaa27a827a9afa6a0a720a3a2a960711b6044820152606401610a33565b806001600160a01b0316638119c0656040518163ffffffff1660e01b8152600401600060405180830381600087803b15801561160a57600080fd5b6007546001600160a01b03163314611b115760405162461bcd60e51b815260206004820152601260248201527127a7262cafaa27a827a9afa6a0a720a3a2a960711b6044820152606401610a33565b600160008383604051611b25929190613cc3565b9081526040519081900360200190206009015460ff600160a81b909104166005811115611b5457611b5461360b565b14611b8a5760405162461bcd60e51b815260206004820152600660248201526573746174757360d01b6044820152606401610a33565b600260008383604051611b9e929190613cc3565b908152604051908190036020019020600901805460ff60a81b1916600160a81b836005811115611bd057611bd061360b565b02179055506002601060008484604051611beb929190613cc3565b90815260200160405180910390206008015481548110611c0d57611c0d613d72565b600091825260209091206009600a9092020101805460ff60a81b1916600160a81b836005811115611c4057611c4061360b565b02179055507f039501081328ffe3eb02459ad6f6e90b69e23ba1422b574ee84c1f52b2fc03108282604051611c76929190613cfc565b60405180910390a15050565b81516020818401810180516003825292820191850191909120919052805482908110611cad57600080fd5b6000918252602090912060029091020180546001909101546001600160a01b039091169250905082565b60066020528160005260406000208181548110611cf357600080fd5b90600052602060002090600a020160009150915050806000018054611d1790613e3c565b80601f0160208091040260200160405190810160405280929190818152602001828054611d4390613e3c565b8015611d905780601f10611d6557610100808354040283529160200191611d90565b820191906000526020600020905b815481529060010190602001808311611d7357829003601f168201915b505050505090806001018054611da590613e3c565b80601f0160208091040260200160405190810160405280929190818152602001828054611dd190613e3c565b8015611e1e5780601f10611df357610100808354040283529160200191611e1e565b820191906000526020600020905b815481529060010190602001808311611e0157829003601f168201915b50505060028401546003850154600486015460058701546006880154600789015460088a01546009909a015498996001600160a01b0396871699959850939650919490939192919081169060ff600160a01b8204811691600160a81b9004168c565b6007546001600160a01b03163314611ecf5760405162461bcd60e51b815260206004820152601260248201527127a7262cafaa27a827a9afa6a0a720a3a2a960711b6044820152606401610a33565b600260008585604051611ee3929190613cc3565b9081526040519081900360200190206009015460ff600160a81b909104166005811115611f1257611f1261360b565b14611f34578383604051632dc5942160e21b8152600401610a33929190613cfc565b8060018585604051611f47929190613cc3565b908152602001604051809103902060006101000a8154816001600160a01b0302191690836001600160a01b03160217905550600460008585604051611f8d929190613cc3565b908152604051908190036020019020600901805460ff60a81b1916600160a81b836005811115611fbf57611fbf61360b565b02179055506004601060008686604051611fda929190613cc3565b90815260200160405180910390206008015481548110611ffc57611ffc613d72565b600091825260209091206009600a9092020101805460ff60a81b1916600160a81b83600581111561202f5761202f61360b565b021790555060066000808686604051612049929190613cc3565b9081526040805160209281900383019020600201546001600160a01b03168352908201929092528101600090812091516120869087908790613cc3565b908152604051602091819003820190208254600181018455600093845291909220600a90910201806120b8838261413f565b506001818101906120cb9084018261413f565b5060028281015490820180546001600160a01b039283166001600160a01b0319918216179091556003808501549084015560048085015490840155600580850154818501556006808601549085015560078086015490850155600880860154908501556009808601805491860180549290951693821684178555805474ffffffffffffffffffffffffffffffffffffffffff19909216909317600160a01b9182900460ff908116909202178085559254600160a81b90819004909116939260ff60a81b19169184908111156121a2576121a261360b565b021790555050601180546001810182556000919091527f31ecc21a745e3968a04e9570e4425bc18fa8019c68028196b546d1669c200c680190506121e7848683613ec1565b506040517fd76805aa0000000000000000000000000000000000000000000000000000000081526001600160a01b0382169063d76805aa9061222d9085906004016143b2565b600060405180830381600087803b15801561224757600080fd5b505af115801561225b573d6000803e3d6000fd5b5050600f8054600181018255600091909152849250600b027f8d1108e10bcb7c27dddfc02ed9d693a074039d026cf4ea4240b40f7d581ac8020190506122a182826144b6565b50507f44b55c2d9270546faf6ff2f0acac078011883b82782d9b08de2d3af4543c2b188484604051611037929190613cfc565b6000600483836040516122e8929190613cc3565b90815260200160405180910390205490505b92915050565b6007546001600160a01b0316331461234f5760405162461bcd60e51b815260206004820152601260248201527127a7262cafaa27a827a9afa6a0a720a3a2a960711b6044820152606401610a33565b600e55565b6007546001600160a01b031633146123a35760405162461bcd60e51b815260206004820152601260248201527127a7262cafaa27a827a9afa6a0a720a3a2a960711b6044820152606401610a33565b6001600083836040516123b7929190613cc3565b9081526040519081900360200190206009015460ff600160a81b9091041660058111156123e6576123e661360b565b1461241c5760405162461bcd60e51b815260206004820152600660248201526573746174757360d01b6044820152606401610a33565b600360008383604051612430929190613cc3565b908152604051908190036020019020600901805460ff60a81b1916600160a81b8360058111156124625761246261360b565b0217905550600360106000848460405161247d929190613cc3565b9081526020016040518091039020600801548154811061249f5761249f613d72565b600091825260209091206009600a9092020101805460ff60a81b1916600160a81b8360058111156124d2576124d261360b565b02179055507f735ccdd611541d36c82a3622baab7f58b8a0f5be664555b0d9c95ddde16096d38282604051611c76929190613cfc565b6007546001600160a01b031633146125575760405162461bcd60e51b815260206004820152601260248201527127a7262cafaa27a827a9afa6a0a720a3a2a960711b6044820152606401610a33565b6001600160a01b03811661256a57600080fd5b600c80546001600160a01b0319166001600160a01b0392909216919091179055565b6007546001600160a01b031633146125db5760405162461bcd60e51b815260206004820152601260248201527127a7262cafaa27a827a9afa6a0a720a3a2a960711b6044820152606401610a33565b6040517f68a2da51000000000000000000000000000000000000000000000000000000008152600481018390526001600160a01b038216906368a2da5190602401600060405180830381600087803b15801561263657600080fd5b505af115801561264a573d6000803e3d6000fd5b505050505050565b8051602081830181018051600082529282019190930120915280548190611d1790613e3c565b6007546001600160a01b031633146126c75760405162461bcd60e51b815260206004820152601260248201527127a7262cafaa27a827a9afa6a0a720a3a2a960711b6044820152606401610a33565b806001600160a01b031663442447ca6040518163ffffffff1660e01b8152600401600060405180830381600087803b15801561160a57600080fd5b606060038383604051612716929190613cc3565b9081526020016040518091039020805480602002602001604051908101604052809291908181526020016000905b8282101561278c576000848152602090819020604080518082019091526002850290910180546001600160a01b03168252600190810154828401529083529092019101612744565b50505050905092915050565b6007546001600160a01b031633146127e75760405162461bcd60e51b815260206004820152601260248201527127a7262cafaa27a827a9afa6a0a720a3a2a960711b6044820152606401610a33565b600854604080517fcfde18900000000000000000000000000000000000000000000000000000000081526004810191909152600760448201527f4d414e414745520000000000000000000000000000000000000000000000000060648201526001600160a01b0383811660248301529091169063cfde1890906084016115f0565b6007546001600160a01b031633146128b75760405162461bcd60e51b815260206004820152601260248201527127a7262cafaa27a827a9afa6a0a720a3a2a960711b6044820152606401610a33565b6004600084846040516128cb929190613cc3565b9081526040519081900360200190206009015460ff600160a81b9091041660058111156128fa576128fa61360b565b1461291c578282604051632dc5942160e21b8152600401610a33929190613cfc565b600560008484604051612930929190613cc3565b908152604051908190036020019020600901805460ff60a81b1916600160a81b8360058111156129625761296261360b565b0217905550600560106000858560405161297d929190613cc3565b9081526020016040518091039020600801548154811061299f5761299f613d72565b600091825260209091206009600a9092020101805460ff60a81b1916600160a81b8360058111156129d2576129d261360b565b02179055506005600660008086866040516129ee929190613cc3565b9081526040805160209281900383019020600201546001600160a01b0316835290820192909252810160009081209151612a2b9087908790613cc3565b90815260200160405180910390206008015481548110612a4d57612a4d613d72565b600091825260209091206009600a9092020101805460ff60a81b1916600160a81b836005811115612a8057612a8061360b565b0217905550806001600160a01b031663be040fb06040518163ffffffff1660e01b8152600401600060405180830381600087803b158015612ac057600080fd5b505af1158015612ad4573d6000803e3d6000fd5b5050505060005b60038484604051612aed929190613cc3565b90815260405190819003602001902054811015612c8457600060038585604051612b18929190613cc3565b90815260200160405180910390208281548110612b3757612b37613d72565b9060005260206000209060020201600101549050600060038686604051612b5f929190613cc3565b90815260200160405180910390208381548110612b7e57612b7e613d72565b60009182526020909120600290910201546001600160a01b031690508115612c6f5760008686604051612bb2929190613cc3565b908152604051908190036020019020600901546001600160a01b031663a9059cbb82612be685670de0b6b3a7640000613d26565b6040517fffffffff0000000000000000000000000000000000000000000000000000000060e085901b1681526001600160a01b03909216600483015260248201526044016020604051808303816000875af1158015612c49573d6000803e3d6000fd5b505050506040513d601f19601f82011682018060405250810190612c6d9190613ca1565b505b50508080612c7c9061459e565b915050612adb565b507fdfdf42ff0d0eb3e6ec5b40d8cf21fb2f7102b67e5e2d56ab36e817f807213c5b838360405161143b929190613cfc565b612cbe613128565b600082604051612cce9190613dd9565b908152602001604051809103902060405180610180016040529081600082018054612cf890613e3c565b80601f0160208091040260200160405190810160405280929190818152602001828054612d2490613e3c565b8015612d715780601f10612d4657610100808354040283529160200191612d71565b820191906000526020600020905b815481529060010190602001808311612d5457829003601f168201915b50505050508152602001600182018054612d8a90613e3c565b80601f0160208091040260200160405190810160405280929190818152602001828054612db690613e3c565b8015612e035780601f10612dd857610100808354040283529160200191612e03565b820191906000526020600020905b815481529060010190602001808311612de657829003601f168201915b505050918352505060028201546001600160a01b03908116602083015260038301546040830152600483015460608301526005808401546080840152600684015460a0840152600784015460c0840152600884015460e0840152600984015491821661010084015260ff600160a01b8304811661012085015261014090930192600160a81b90920490911690811115612e9e57612e9e61360b565b6005811115612eaf57612eaf61360b565b90525092915050565b6060600f805480602002602001604051908101604052809291908181526020016000905b8282101561170c57838290600052602060002090600b020160405180610160016040529081600082018054612f1090613e3c565b80601f0160208091040260200160405190810160405280929190818152602001828054612f3c90613e3c565b8015612f895780601f10612f5e57610100808354040283529160200191612f89565b820191906000526020600020905b815481529060010190602001808311612f6c57829003601f168201915b50505050508152602001600182018054612fa290613e3c565b80601f0160208091040260200160405190810160405280929190818152602001828054612fce90613e3c565b801561301b5780601f10612ff05761010080835404028352916020019161301b565b820191906000526020600020905b815481529060010190602001808311612ffe57829003601f168201915b5050505050815260200160028201805461303490613e3c565b80601f016020809104026020016040519081016040528092919081815260200182805461306090613e3c565b80156130ad5780601f10613082576101008083540402835291602001916130ad565b820191906000526020600020905b81548152906001019060200180831161309057829003601f168201915b505050918352505060038201546001600160a01b0316602080830191909152600483015460408301526005830154606083015260068301546080830152600783015460ff1660a0830152600883015460c0830152600983015460e0830152600a90920154610100909101529082526001929092019101612edc565b604051806101800160405280606081526020016060815260200160006001600160a01b0316815260200160008152602001600081526020016000815260200160008152602001600081526020016000815260200160006001600160a01b03168152602001600060ff168152602001600060058111156131a9576131a961360b565b905290565b6001600160a01b03811681146131c357600080fd5b50565b80356131d1816131ae565b919050565b634e487b7160e01b600052604160045260246000fd5b604051610180810167ffffffffffffffff81118282101715613210576132106131d6565b60405290565b600082601f83011261322757600080fd5b813567ffffffffffffffff80821115613242576132426131d6565b604051601f8301601f19908116603f0116810190828211818310171561326a5761326a6131d6565b8160405283815286602085880101111561328357600080fd5b836020870160208301376000602085830101528094505050505092915050565b600080604083850312156132b657600080fd5b82356132c1816131ae565b9150602083013567ffffffffffffffff8111156132dd57600080fd5b6132e985828601613216565b9150509250929050565b60008083601f84011261330557600080fd5b50813567ffffffffffffffff81111561331d57600080fd5b60208301915083602082850101111561333557600080fd5b9250929050565b60008060006040848603121561335157600080fd5b833567ffffffffffffffff81111561336857600080fd5b613374868287016132f3565b909790965060209590950135949350505050565b6000806040838503121561339b57600080fd5b823567ffffffffffffffff8111156133b257600080fd5b6133be85828601613216565b92505060208301356133cf816131ae565b809150509250929050565b6000806000604084860312156133ef57600080fd5b833567ffffffffffffffff8082111561340757600080fd5b613413878388016132f3565b9095509350602086013591508082111561342c57600080fd5b508401610180818703121561344057600080fd5b809150509250925092565b60006020828403121561345d57600080fd5b813567ffffffffffffffff81111561347457600080fd5b61348084828501613216565b949350505050565b602080825282518282018190526000919060409081850190868401855b8281101561354c57815180516001600160a01b039081168652878201518116888701528682015160ff90811688880152606080840151909116908701526080808301519087015260a0808301519087015260c0808301519091169086015260e08082015190860152610100808201519086015261012080820151908601526101408082015190860152610160908101519085015261018090930192908501906001016134a5565b5091979650505050505050565b60005b8381101561357457818101518382015260200161355c565b50506000910152565b60008151808452613595816020860160208601613559565b601f01601f19169290920160200192915050565b6000602080830181845280855180835260408601915060408160051b870101925083870160005b828110156135fe57603f198886030184526135ec85835161357d565b945092850192908501906001016135d0565b5092979650505050505050565b634e487b7160e01b600052602160045260246000fd5b6006811061363f57634e487b7160e01b600052602160045260246000fd5b9052565b600061018082518185526136598286018261357d565b91505060208301518482036020860152613673828261357d565b915050604083015161369060408601826001600160a01b03169052565b50606083015160608501526080830151608085015260a083015160a085015260c083015160c085015260e083015160e0850152610100808401518186015250610120808401516136ea828701826001600160a01b03169052565b50506101408381015160ff16908501526101608084015161370d82870182613621565b5090949350505050565b6000602080830181845280855180835260408601915060408160051b870101925083870160005b828110156135fe57603f1988860301845261375a858351613643565b9450928501929085019060010161373e565b60006020828403121561377e57600080fd5b8135613789816131ae565b9392505050565b600080602083850312156137a357600080fd5b823567ffffffffffffffff8111156137ba57600080fd5b6137c6858286016132f3565b90969095509350505050565b600080604083850312156137e557600080fd5b823567ffffffffffffffff8111156137fc57600080fd5b61380885828601613216565b95602094909401359450505050565b6000806040838503121561382a57600080fd5b8235613835816131ae565b946020939093013593505050565b6101808152600061385861018083018f61357d565b828103602084015261386a818f61357d565b9150506001600160a01b03808d1660408401528b60608401528a60808401528960a08401528860c08401528760e0840152866101008401528086166101208401525060ff84166101408301526138c4610160830184613621565b9d9c50505050505050505050505050565b600080600080606085870312156138eb57600080fd5b843567ffffffffffffffff8082111561390357600080fd5b61390f888389016132f3565b9096509450602087013591508082111561392857600080fd5b508501610160818803121561393c57600080fd5b9150604085013561394c816131ae565b939692955090935050565b60006020828403121561396957600080fd5b5035919050565b60ff811681146131c357600080fd5b80356131d181613970565b6000806000808486036101e08112156139a257600080fd5b85356139ad816131ae565b945060208601356139bd816131ae565b935060408601356139cd816131ae565b9250610180605f1982018113156139e357600080fd5b6139eb6131ec565b91506139f9606088016131c6565b8252613a07608088016131c6565b6020830152613a1860a0880161397f565b6040830152613a2960c0880161397f565b606083015260e087013560808301526101008088013560a0840152610120613a52818a016131c6565b60c0850152610140808a013560e0860152610160808b013584870152848b0135838701526101a08b0135828701526101c08b01358187015250505050508091505092959194509250565b60008060408385031215613aaf57600080fd5b8235915060208301356133cf816131ae565b602080825282518282018190526000919060409081850190868401855b8281101561354c57815180516001600160a01b03168552860151868501529284019290850190600101613ade565b600080600060408486031215613b2157600080fd5b833567ffffffffffffffff811115613b3857600080fd5b613b44868287016132f3565b9094509250506020840135613440816131ae565b6020815260006137896020830184613643565b60006020808301818452808551808352604092508286019150828160051b87010184880160005b83811015613c6557603f1989840301855281516101608151818652613bb98287018261357d565b915050888201518582038a870152613bd1828261357d565b9150508782015185820389870152613be9828261357d565b915050606080830151613c06828801826001600160a01b03169052565b50506080828101519086015260a0808301519086015260c0808301519086015260e08083015160ff1690860152610100808301519086015261012080830151908601526101409182015191909401529386019390860190600101613b92565b509098975050505050505050565b60008060408385031215613c8657600080fd5b8235613c91816131ae565b915060208301356133cf816131ae565b600060208284031215613cb357600080fd5b8151801515811461378957600080fd5b8183823760009101908152919050565b81835281816020850137506000828201602090810191909152601f909101601f19169091010190565b602081526000613480602083018486613cd3565b634e487b7160e01b600052601160045260246000fd5b80820281158282048414176122fa576122fa613d10565b600082613d5a57634e487b7160e01b600052601260045260246000fd5b500690565b808201808211156122fa576122fa613d10565b634e487b7160e01b600052603260045260246000fd5b604081526000613d9c604083018587613cd3565b9050826020830152949350505050565b604081526000613dc0604083018587613cd3565b90506001600160a01b0383166020830152949350505050565b60008251613deb818460208701613559565b9190910192915050565b6000808335601e19843603018112613e0c57600080fd5b83018035915067ffffffffffffffff821115613e2757600080fd5b60200191503681900382131561333557600080fd5b600181811c90821680613e5057607f821691505b602082108103613e7057634e487b7160e01b600052602260045260246000fd5b50919050565b601f821115613ebc57600081815260208120601f850160051c81016020861015613e9d5750805b601f850160051c820191505b8181101561264a57828155600101613ea9565b505050565b67ffffffffffffffff831115613ed957613ed96131d6565b613eed83613ee78354613e3c565b83613e76565b6000601f841160018114613f215760008515613f095750838201355b600019600387901b1c1916600186901b17835561161e565b600083815260209020601f19861690835b82811015613f525786850135825560209485019460019092019101613f32565b5086821015613f6f5760001960f88860031b161c19848701351681555b505060018560011b0183555050505050565b600081356122fa816131ae565b600081356122fa81613970565b600681106131c357600080fd5b600081356122fa81613f9b565b60068210613fd357634e487b7160e01b600052602160045260246000fd5b805475ff0000000000000000000000000000000000000000008360a81b1660ff60a81b198216178255505050565b61400b8283613df5565b614016818385613ec1565b50506140256020830183613df5565b614033818360018601613ec1565b505061406561404460408401613f81565b600283016001600160a01b0382166001600160a01b03198254161781555050565b606082013560038201556080820135600482015560a0820135600582015560c0820135600682015560e082013560078201556101008201356008820155600981016140d36140b66101208501613f81565b82546001600160a01b0319166001600160a01b0391909116178255565b6141296140e36101408501613f8e565b82547fffffffffffffffffffffff00ffffffffffffffffffffffffffffffffffffffff1660a09190911b74ff000000000000000000000000000000000000000016178255565b613ebc6141396101608501613fa8565b82613fb5565b81810361414a575050565b6141548254613e3c565b67ffffffffffffffff81111561416c5761416c6131d6565b6141808161417a8454613e3c565b84613e76565b6000601f8211600181146141b4576000831561419c5750848201545b600019600385901b1c1916600184901b17845561161e565b600085815260209020601f19841690600086815260209020845b838110156141ee57828601548255600195860195909101906020016141ce565b508583101561420c5781850154600019600388901b60f8161c191681555b5050505050600190811b01905550565b6000808335601e1984360301811261423357600080fd5b830160208101925035905067ffffffffffffffff81111561425357600080fd5b80360382131561333557600080fd5b80356131d181613f9b565b604081526000614281604083018587613cd3565b8281036020840152610180614296858661421c565b8284526142a68385018284613cd3565b925050506142b7602086018661421c565b83830360208501526142ca838284613cd3565b925050506142da604086016131c6565b6001600160a01b038116604084015250606085013560608301526080850135608083015260a085013560a083015260c085013560c083015260e085013560e08301526101008086013581840152506101206143368187016131c6565b6001600160a01b03169083015261014061435186820161397f565b60ff1690830152610160614366868201614262565b61437282850182613621565b5090979650505050505050565b606081526000614392606083018661357d565b6001600160a01b0394851660208401529290931660409091015292915050565b6020815260006143c2838461421c565b6101608060208601526143da61018086018385613cd3565b92506143e9602087018761421c565b9250601f1980878603016040880152614403858584613cd3565b9450614412604089018961421c565b94509150808786030160608801525061442c848483613cd3565b93505061443b606087016131c6565b6001600160a01b03811660808701529150608086013560a086015260a086013560c086015260c086013560e086015261447660e0870161397f565b91506101006144898187018460ff169052565b86013561012086810191909152860135610140808701919091529095013594909301939093525090919050565b6144c08283613df5565b6144cb818385613ec1565b50506144da6020830183613df5565b6144e8818360018601613ec1565b50506144f76040830183613df5565b614505818360028601613ec1565b505061453761451660608401613f81565b600383016001600160a01b0382166001600160a01b03198254161781555050565b6080820135600482015560a0820135600582015560c0820135600682015561457961456460e08401613f8e565b6007830160ff821660ff198254161781555050565b61010082013560088201556101208201356009820155610140820135600a8201555050565b6000600182016145b0576145b0613d10565b506001019056fea2646970667358221220a3aa99cdb84f81223b9b0c7a425c91d9f2d853f7aaa598bd46fe1fa8ff52f90a64736f6c63430008130033",
  "linkReferences": {},
  "deployedLinkReferences": {}
}