{
  "_format": "hh-sol-artifact-1",
  "contractName": "ToposBank",
  "sourceName": "contracts/Topos/Bank/ToposBank.sol",
  "abi": [
    {
      "inputs": [
        {
          "internalType": "address",
          "name": "_toposManager",
          "type": "address"
        },
        {
          "internalType": "address",
          "name": "_rolesContract",
          "type": "address"
        },
        {
          "internalType": "address",
          "name": "_identityRegistryContract",
          "type": "address"
        },
        {
          "internalType": "address",
          "name": "_bondCallContract",
          "type": "address"
        },
        {
          "internalType": "uint256",
          "name": "_dealFees",
          "type": "uint256"
        }
      ],
      "stateMutability": "nonpayable",
      "type": "constructor"
    },
    {
      "inputs": [
        {
          "internalType": "uint256",
          "name": "amount",
          "type": "uint256"
        }
      ],
      "name": "InvalidAmount",
      "type": "error"
    },
    {
      "inputs": [
        {
          "internalType": "string",
          "name": "dealID",
          "type": "string"
        }
      ],
      "name": "InvalidDealStatus",
      "type": "error"
    },
    {
      "anonymous": false,
      "inputs": [
        {
          "indexed": false,
          "internalType": "string",
          "name": "_dealID",
          "type": "string"
        }
      ],
      "name": "BondIssue",
      "type": "event"
    },
    {
      "anonymous": false,
      "inputs": [
        {
          "indexed": false,
          "internalType": "string",
          "name": "_dealID",
          "type": "string"
        }
      ],
      "name": "BondRedeem",
      "type": "event"
    },
    {
      "anonymous": false,
      "inputs": [
        {
          "indexed": false,
          "internalType": "string",
          "name": "dealID",
          "type": "string"
        }
      ],
      "name": "DealAPproved",
      "type": "event"
    },
    {
      "anonymous": false,
      "inputs": [
        {
          "indexed": false,
          "internalType": "string",
          "name": "dealID",
          "type": "string"
        }
      ],
      "name": "DealARejected",
      "type": "event"
    },
    {
      "anonymous": false,
      "inputs": [
        {
          "indexed": false,
          "internalType": "string",
          "name": "dealID",
          "type": "string"
        },
        {
          "components": [
            {
              "internalType": "string",
              "name": "dealID",
              "type": "string"
            },
            {
              "internalType": "string",
              "name": "prospectusURI",
              "type": "string"
            },
            {
              "internalType": "address",
              "name": "issuerAddress",
              "type": "address"
            },
            {
              "internalType": "uint256",
              "name": "debtAmount",
              "type": "uint256"
            },
            {
              "internalType": "uint256",
              "name": "denomination",
              "type": "uint256"
            },
            {
              "internalType": "uint256",
              "name": "couponRate",
              "type": "uint256"
            },
            {
              "internalType": "uint256",
              "name": "couponFrequency",
              "type": "uint256"
            },
            {
              "internalType": "uint256",
              "name": "maturityDate",
              "type": "uint256"
            },
            {
              "internalType": "uint256",
              "name": "index",
              "type": "uint256"
            },
            {
              "internalType": "address",
              "name": "currency",
              "type": "address"
            },
            {
              "internalType": "uint8",
              "name": "couponType",
              "type": "uint8"
            },
            {
              "internalType": "enum BondData.DealStatus",
              "name": "status",
              "type": "uint8"
            }
          ],
          "indexed": false,
          "internalType": "struct BondData.Deal",
          "name": "deal",
          "type": "tuple"
        }
      ],
      "name": "DealSubmitted",
      "type": "event"
    },
    {
      "anonymous": false,
      "inputs": [
        {
          "indexed": false,
          "internalType": "string",
          "name": "dealID",
          "type": "string"
        },
        {
          "indexed": false,
          "internalType": "address",
          "name": "investor",
          "type": "address"
        }
      ],
      "name": "RegisterForDeal",
      "type": "event"
    },
    {
      "inputs": [
        {
          "internalType": "address",
          "name": "",
          "type": "address"
        },
        {
          "internalType": "string",
          "name": "",
          "type": "string"
        }
      ],
      "name": "amountInvested",
      "outputs": [
        {
          "internalType": "uint256",
          "name": "amount",
          "type": "uint256"
        },
        {
          "internalType": "bool",
          "name": "hasInvested",
          "type": "bool"
        },
        {
          "internalType": "uint256",
          "name": "index",
          "type": "uint256"
        }
      ],
      "stateMutability": "view",
      "type": "function"
    },
    {
      "inputs": [
        {
          "internalType": "string",
          "name": "_dealID",
          "type": "string"
        }
      ],
      "name": "approveDeal",
      "outputs": [],
      "stateMutability": "nonpayable",
      "type": "function"
    },
    {
      "inputs": [],
      "name": "bondCallContract",
      "outputs": [
        {
          "internalType": "address",
          "name": "",
          "type": "address"
        }
      ],
      "stateMutability": "view",
      "type": "function"
    },
    {
      "inputs": [
        {
          "internalType": "string",
          "name": "",
          "type": "string"
        }
      ],
      "name": "dealBondContracts",
      "outputs": [
        {
          "internalType": "address",
          "name": "",
          "type": "address"
        }
      ],
      "stateMutability": "view",
      "type": "function"
    },
    {
      "inputs": [],
      "name": "dealFees",
      "outputs": [
        {
          "internalType": "uint256",
          "name": "",
          "type": "uint256"
        }
      ],
      "stateMutability": "view",
      "type": "function"
    },
    {
      "inputs": [
        {
          "internalType": "string",
          "name": "",
          "type": "string"
        },
        {
          "internalType": "uint256",
          "name": "",
          "type": "uint256"
        }
      ],
      "name": "dealInvestment",
      "outputs": [
        {
          "internalType": "address",
          "name": "investor",
          "type": "address"
        },
        {
          "internalType": "uint256",
          "name": "amount",
          "type": "uint256"
        }
      ],
      "stateMutability": "view",
      "type": "function"
    },
    {
      "inputs": [
        {
          "internalType": "string",
          "name": "",
          "type": "string"
        }
      ],
      "name": "deals",
      "outputs": [
        {
          "internalType": "string",
          "name": "dealID",
          "type": "string"
        },
        {
          "internalType": "string",
          "name": "prospectusURI",
          "type": "string"
        },
        {
          "internalType": "address",
          "name": "issuerAddress",
          "type": "address"
        },
        {
          "internalType": "uint256",
          "name": "debtAmount",
          "type": "uint256"
        },
        {
          "internalType": "uint256",
          "name": "denomination",
          "type": "uint256"
        },
        {
          "internalType": "uint256",
          "name": "couponRate",
          "type": "uint256"
        },
        {
          "internalType": "uint256",
          "name": "couponFrequency",
          "type": "uint256"
        },
        {
          "internalType": "uint256",
          "name": "maturityDate",
          "type": "uint256"
        },
        {
          "internalType": "uint256",
          "name": "index",
          "type": "uint256"
        },
        {
          "internalType": "address",
          "name": "currency",
          "type": "address"
        },
        {
          "internalType": "uint8",
          "name": "couponType",
          "type": "uint8"
        },
        {
          "internalType": "enum BondData.DealStatus",
          "name": "status",
          "type": "uint8"
        }
      ],
      "stateMutability": "view",
      "type": "function"
    },
    {
      "inputs": [],
      "name": "getContracts",
      "outputs": [
        {
          "internalType": "address",
          "name": "manager",
          "type": "address"
        },
        {
          "internalType": "address",
          "name": "roles",
          "type": "address"
        },
        {
          "internalType": "address",
          "name": "identityRegistry",
          "type": "address"
        },
        {
          "internalType": "address",
          "name": "bondCall",
          "type": "address"
        },
        {
          "internalType": "address",
          "name": "issuerFund",
          "type": "address"
        }
      ],
      "stateMutability": "view",
      "type": "function"
    },
    {
      "inputs": [
        {
          "internalType": "string",
          "name": "_dealID",
          "type": "string"
        }
      ],
      "name": "getDeal",
      "outputs": [
        {
          "components": [
            {
              "internalType": "string",
              "name": "dealID",
              "type": "string"
            },
            {
              "internalType": "string",
              "name": "prospectusURI",
              "type": "string"
            },
            {
              "internalType": "address",
              "name": "issuerAddress",
              "type": "address"
            },
            {
              "internalType": "uint256",
              "name": "debtAmount",
              "type": "uint256"
            },
            {
              "internalType": "uint256",
              "name": "denomination",
              "type": "uint256"
            },
            {
              "internalType": "uint256",
              "name": "couponRate",
              "type": "uint256"
            },
            {
              "internalType": "uint256",
              "name": "couponFrequency",
              "type": "uint256"
            },
            {
              "internalType": "uint256",
              "name": "maturityDate",
              "type": "uint256"
            },
            {
              "internalType": "uint256",
              "name": "index",
              "type": "uint256"
            },
            {
              "internalType": "address",
              "name": "currency",
              "type": "address"
            },
            {
              "internalType": "uint8",
              "name": "couponType",
              "type": "uint8"
            },
            {
              "internalType": "enum BondData.DealStatus",
              "name": "status",
              "type": "uint8"
            }
          ],
          "internalType": "struct BondData.Deal",
          "name": "",
          "type": "tuple"
        }
      ],
      "stateMutability": "view",
      "type": "function"
    },
    {
      "inputs": [
        {
          "internalType": "string",
          "name": "_dealID",
          "type": "string"
        }
      ],
      "name": "getDealBondContract",
      "outputs": [
        {
          "internalType": "address",
          "name": "",
          "type": "address"
        }
      ],
      "stateMutability": "view",
      "type": "function"
    },
    {
      "inputs": [],
      "name": "getDealFees",
      "outputs": [
        {
          "internalType": "uint256",
          "name": "",
          "type": "uint256"
        }
      ],
      "stateMutability": "view",
      "type": "function"
    },
    {
      "inputs": [
        {
          "internalType": "string",
          "name": "_dealID",
          "type": "string"
        }
      ],
      "name": "getDealInvestment",
      "outputs": [
        {
          "components": [
            {
              "internalType": "address",
              "name": "investor",
              "type": "address"
            },
            {
              "internalType": "uint256",
              "name": "amount",
              "type": "uint256"
            }
          ],
          "internalType": "struct BondData.DealInvestment[]",
          "name": "",
          "type": "tuple[]"
        }
      ],
      "stateMutability": "view",
      "type": "function"
    },
    {
      "inputs": [],
      "name": "getListOfBonds",
      "outputs": [
        {
          "components": [
            {
              "internalType": "string",
              "name": "isin",
              "type": "string"
            },
            {
              "internalType": "string",
              "name": "name",
              "type": "string"
            },
            {
              "internalType": "string",
              "name": "symbol",
              "type": "string"
            },
            {
              "internalType": "address",
              "name": "currency",
              "type": "address"
            },
            {
              "internalType": "uint256",
              "name": "denomination",
              "type": "uint256"
            },
            {
              "internalType": "uint256",
              "name": "issueVolume",
              "type": "uint256"
            },
            {
              "internalType": "uint256",
              "name": "couponRate",
              "type": "uint256"
            },
            {
              "internalType": "uint8",
              "name": "couponType",
              "type": "uint8"
            },
            {
              "internalType": "uint256",
              "name": "couponFrequency",
              "type": "uint256"
            },
            {
              "internalType": "uint256",
              "name": "issueDate",
              "type": "uint256"
            },
            {
              "internalType": "uint256",
              "name": "maturityDate",
              "type": "uint256"
            }
          ],
          "internalType": "struct BondData.Bond[]",
          "name": "",
          "type": "tuple[]"
        }
      ],
      "stateMutability": "view",
      "type": "function"
    },
    {
      "inputs": [],
      "name": "getListOfBondsDealIDs",
      "outputs": [
        {
          "internalType": "string[]",
          "name": "",
          "type": "string[]"
        }
      ],
      "stateMutability": "view",
      "type": "function"
    },
    {
      "inputs": [],
      "name": "getListOfDeals",
      "outputs": [
        {
          "components": [
            {
              "internalType": "string",
              "name": "dealID",
              "type": "string"
            },
            {
              "internalType": "string",
              "name": "prospectusURI",
              "type": "string"
            },
            {
              "internalType": "address",
              "name": "issuerAddress",
              "type": "address"
            },
            {
              "internalType": "uint256",
              "name": "debtAmount",
              "type": "uint256"
            },
            {
              "internalType": "uint256",
              "name": "denomination",
              "type": "uint256"
            },
            {
              "internalType": "uint256",
              "name": "couponRate",
              "type": "uint256"
            },
            {
              "internalType": "uint256",
              "name": "couponFrequency",
              "type": "uint256"
            },
            {
              "internalType": "uint256",
              "name": "maturityDate",
              "type": "uint256"
            },
            {
              "internalType": "uint256",
              "name": "index",
              "type": "uint256"
            },
            {
              "internalType": "address",
              "name": "currency",
              "type": "address"
            },
            {
              "internalType": "uint8",
              "name": "couponType",
              "type": "uint8"
            },
            {
              "internalType": "enum BondData.DealStatus",
              "name": "status",
              "type": "uint8"
            }
          ],
          "internalType": "struct BondData.Deal[]",
          "name": "",
          "type": "tuple[]"
        }
      ],
      "stateMutability": "view",
      "type": "function"
    },
    {
      "inputs": [
        {
          "internalType": "string",
          "name": "_dealID",
          "type": "string"
        }
      ],
      "name": "getTotalAmounInvested",
      "outputs": [
        {
          "internalType": "uint256",
          "name": "",
          "type": "uint256"
        }
      ],
      "stateMutability": "view",
      "type": "function"
    },
    {
      "inputs": [],
      "name": "identityRegistryContract",
      "outputs": [
        {
          "internalType": "address",
          "name": "",
          "type": "address"
        }
      ],
      "stateMutability": "view",
      "type": "function"
    },
    {
      "inputs": [
        {
          "internalType": "string",
          "name": "_dealID",
          "type": "string"
        },
        {
          "components": [
            {
              "internalType": "string",
              "name": "isin",
              "type": "string"
            },
            {
              "internalType": "string",
              "name": "name",
              "type": "string"
            },
            {
              "internalType": "string",
              "name": "symbol",
              "type": "string"
            },
            {
              "internalType": "address",
              "name": "currency",
              "type": "address"
            },
            {
              "internalType": "uint256",
              "name": "denomination",
              "type": "uint256"
            },
            {
              "internalType": "uint256",
              "name": "issueVolume",
              "type": "uint256"
            },
            {
              "internalType": "uint256",
              "name": "couponRate",
              "type": "uint256"
            },
            {
              "internalType": "uint8",
              "name": "couponType",
              "type": "uint8"
            },
            {
              "internalType": "uint256",
              "name": "couponFrequency",
              "type": "uint256"
            },
            {
              "internalType": "uint256",
              "name": "issueDate",
              "type": "uint256"
            },
            {
              "internalType": "uint256",
              "name": "maturityDate",
              "type": "uint256"
            }
          ],
          "internalType": "struct BondData.Bond",
          "name": "_bond",
          "type": "tuple"
        },
        {
          "internalType": "address",
          "name": "_bondContract",
          "type": "address"
        }
      ],
      "name": "issue",
      "outputs": [],
      "stateMutability": "nonpayable",
      "type": "function"
    },
    {
      "inputs": [
        {
          "internalType": "address",
          "name": "",
          "type": "address"
        },
        {
          "internalType": "uint256",
          "name": "",
          "type": "uint256"
        }
      ],
      "name": "issuerDeals",
      "outputs": [
        {
          "internalType": "string",
          "name": "dealID",
          "type": "string"
        },
        {
          "internalType": "string",
          "name": "prospectusURI",
          "type": "string"
        },
        {
          "internalType": "address",
          "name": "issuerAddress",
          "type": "address"
        },
        {
          "internalType": "uint256",
          "name": "debtAmount",
          "type": "uint256"
        },
        {
          "internalType": "uint256",
          "name": "denomination",
          "type": "uint256"
        },
        {
          "internalType": "uint256",
          "name": "couponRate",
          "type": "uint256"
        },
        {
          "internalType": "uint256",
          "name": "couponFrequency",
          "type": "uint256"
        },
        {
          "internalType": "uint256",
          "name": "maturityDate",
          "type": "uint256"
        },
        {
          "internalType": "uint256",
          "name": "index",
          "type": "uint256"
        },
        {
          "internalType": "address",
          "name": "currency",
          "type": "address"
        },
        {
          "internalType": "uint8",
          "name": "couponType",
          "type": "uint8"
        },
        {
          "internalType": "enum BondData.DealStatus",
          "name": "status",
          "type": "uint8"
        }
      ],
      "stateMutability": "view",
      "type": "function"
    },
    {
      "inputs": [],
      "name": "issuersFundContract",
      "outputs": [
        {
          "internalType": "address",
          "name": "",
          "type": "address"
        }
      ],
      "stateMutability": "view",
      "type": "function"
    },
    {
      "inputs": [
        {
          "internalType": "string",
          "name": "_dealID",
          "type": "string"
        },
        {
          "internalType": "address",
          "name": "_bondContract",
          "type": "address"
        }
      ],
      "name": "redeem",
      "outputs": [],
      "stateMutability": "nonpayable",
      "type": "function"
    },
    {
      "inputs": [
        {
          "internalType": "string",
          "name": "_dealID",
          "type": "string"
        },
        {
          "internalType": "uint256",
          "name": "_amount",
          "type": "uint256"
        }
      ],
      "name": "registerForDeal",
      "outputs": [],
      "stateMutability": "nonpayable",
      "type": "function"
    },
    {
      "inputs": [
        {
          "internalType": "string",
          "name": "_dealID",
          "type": "string"
        }
      ],
      "name": "rejectDeal",
      "outputs": [],
      "stateMutability": "nonpayable",
      "type": "function"
    },
    {
      "inputs": [],
      "name": "rolesContract",
      "outputs": [
        {
          "internalType": "address",
          "name": "",
          "type": "address"
        }
      ],
      "stateMutability": "view",
      "type": "function"
    },
    {
      "inputs": [
        {
          "internalType": "string",
          "name": "_dealID",
          "type": "string"
        },
        {
          "internalType": "address",
          "name": "_bondContractAddress",
          "type": "address"
        }
      ],
      "name": "setBondContractAddress",
      "outputs": [],
      "stateMutability": "nonpayable",
      "type": "function"
    },
    {
      "inputs": [
        {
          "internalType": "address",
          "name": "_issuerFundContract",
          "type": "address"
        }
      ],
      "name": "setIssuerFundContract",
      "outputs": [],
      "stateMutability": "nonpayable",
      "type": "function"
    },
    {
      "inputs": [
        {
          "internalType": "address",
          "name": "_toposManager",
          "type": "address"
        }
      ],
      "name": "setManager",
      "outputs": [],
      "stateMutability": "nonpayable",
      "type": "function"
    },
    {
      "inputs": [
        {
          "internalType": "string",
          "name": "_dealID",
          "type": "string"
        },
        {
          "components": [
            {
              "internalType": "string",
              "name": "dealID",
              "type": "string"
            },
            {
              "internalType": "string",
              "name": "prospectusURI",
              "type": "string"
            },
            {
              "internalType": "address",
              "name": "issuerAddress",
              "type": "address"
            },
            {
              "internalType": "uint256",
              "name": "debtAmount",
              "type": "uint256"
            },
            {
              "internalType": "uint256",
              "name": "denomination",
              "type": "uint256"
            },
            {
              "internalType": "uint256",
              "name": "couponRate",
              "type": "uint256"
            },
            {
              "internalType": "uint256",
              "name": "couponFrequency",
              "type": "uint256"
            },
            {
              "internalType": "uint256",
              "name": "maturityDate",
              "type": "uint256"
            },
            {
              "internalType": "uint256",
              "name": "index",
              "type": "uint256"
            },
            {
              "internalType": "address",
              "name": "currency",
              "type": "address"
            },
            {
              "internalType": "uint8",
              "name": "couponType",
              "type": "uint8"
            },
            {
              "internalType": "enum BondData.DealStatus",
              "name": "status",
              "type": "uint8"
            }
          ],
          "internalType": "struct BondData.Deal",
          "name": "_deal",
          "type": "tuple"
        }
      ],
      "name": "submitDeal",
      "outputs": [],
      "stateMutability": "nonpayable",
      "type": "function"
    },
    {
      "inputs": [],
      "name": "toposManager",
      "outputs": [
        {
          "internalType": "address",
          "name": "",
          "type": "address"
        }
      ],
      "stateMutability": "view",
      "type": "function"
    },
    {
      "inputs": [
        {
          "internalType": "string",
          "name": "",
          "type": "string"
        }
      ],
      "name": "totalAmountInvestedForDeal",
      "outputs": [
        {
          "internalType": "uint256",
          "name": "",
          "type": "uint256"
        }
      ],
      "stateMutability": "view",
      "type": "function"
    },
    {
      "inputs": [
        {
          "internalType": "string",
          "name": "_dealID",
          "type": "string"
        }
      ],
      "name": "withdrawIssuerFund",
      "outputs": [],
      "stateMutability": "nonpayable",
      "type": "function"
    }
  ],
  "bytecode": "0x60806040523480156200001157600080fd5b5060405162003d9338038062003d938339810160408190526200003491620000a8565b600680546001600160a01b03199081166001600160a01b03978816179091556007805482169587169590951790945560088054851693861693909317909255600980549093169316929092179055600b556200010f565b80516001600160a01b0381168114620000a357600080fd5b919050565b600080600080600060a08688031215620000c157600080fd5b620000cc866200008b565b9450620000dc602087016200008b565b9350620000ec604087016200008b565b9250620000fc606087016200008b565b9150608086015190509295509295909350565b613c74806200011f6000396000f3fe608060405234801561001057600080fd5b50600436106101e55760003560e01c8063605936ea1161010f578063ca53b391116100a2578063f3413c4f11610071578063f3413c4f14610508578063fb90e4411461051d578063fe0ab4b314610530578063ff6689d01461056457600080fd5b8063ca53b391146104af578063d0ebdbe7146104c2578063d7c4029c146104d5578063e7079180146104e857600080fd5b8063a0a57dac116100de578063a0a57dac14610429578063af9080f81461043c578063c3a2a93a14610445578063c8d7f62e1461048f57600080fd5b8063605936ea146103dd578063754f399a146103f05780637bafe3d0146104035780637f31ed731461041657600080fd5b80632f6679101161018757806349f5d1d91161015657806349f5d1d914610353578063507251cb1461037e5780635e43522e146103915780635ed7e2c1146103a457600080fd5b80632f667910146102e657806336f9c4da146102f957806348f92ee81461030e578063499fa18a1461032157600080fd5b80631882c195116101c35780631882c1951461029857806319662d8e146102ab5780631b59122c146102be578063281ddc8e146102d157600080fd5b8063041e9b89146101ea578063088674e0146102585780630df8bfda14610283575b600080fd5b6102386101f8366004612b68565b60046020908152600092835260409092208151808301840180519281529084019290930191909120915280546001820154600290920154909160ff169083565b604080519384529115156020840152908201526060015b60405180910390f35b60085461026b906001600160a01b031681565b6040516001600160a01b03909116815260200161024f565b610296610291366004612c01565b61056c565b005b6102966102a6366004612c4d565b610c4a565b6102966102b9366004612c9f565b610c8e565b6102966102cc366004612d10565b61104d565b6102d961122a565b60405161024f9190612d9d565b61026b6102f4366004612d10565b611303565b610301611334565b60405161024f9190612f0b565b61029661031c366004612f60565b611556565b61033461032f366004612fa2565b611716565b604080516001600160a01b03909316835260208301919091520161024f565b610366610361366004612fe7565b61176b565b60405161024f9c9b9a99989796959493929190613013565b61029661038c3660046130a5565b611914565b60095461026b906001600160a01b031681565b6103cf6103b2366004612d10565b805160208183018101805160038252928201919093012091525481565b60405190815260200161024f565b6103cf6103eb366004612f60565b611d68565b6102966103fe366004612f60565b611d94565b610296610411366004613127565b611f48565b60065461026b906001600160a01b031681565b610366610437366004612d10565b611fcc565b6103cf600b5481565b600654600754600854600954600a54604080516001600160a01b0396871681529486166020860152928516928401929092528316606083015291909116608082015260a00161024f565b6104a261049d366004612f60565b611ff2565b60405161024f919061314b565b60075461026b906001600160a01b031681565b6102966104d0366004613127565b612088565b6102966104e33660046131a3565b612158565b6104fb6104f6366004612d10565b6125a5565b60405161024f91906131ef565b6105106127a7565b60405161024f9190613202565b600a5461026b906001600160a01b031681565b61026b61053e366004612d10565b80516020818301810180516001825292820191909301209152546001600160a01b031681565b600b546103cf565b6008546040517fb9209e330000000000000000000000000000000000000000000000000000000081523360048201819052916001600160a01b03169063b9209e3390602401602060405180830381865afa1580156105ce573d6000803e3d6000fd5b505050506040513d601f19601f820116820180604052508101906105f2919061330a565b6106435760405162461bcd60e51b815260206004820152601460248201527f4143434f554e545f4e4f545f414150524f56454400000000000000000000000060448201526064015b60405180910390fd5b60026000858560405161065792919061332c565b9081526040519081900360200190206009015460ff600160a81b90910416600581111561068657610686612dff565b146106a8578383604051632dc5942160e21b815260040161063a929190613365565b600084846040516106ba92919061332c565b908152602001604051809103902060040154600085856040516106de92919061332c565b908152602001604051809103902060040154836106fb919061338f565b61070591906133a6565b1561073f576040517f3728b83d0000000000000000000000000000000000000000000000000000000081526004810183905260240161063a565b811580159061079c57506000848460405161075b92919061332c565b9081526020016040518091039020600301546003858560405161077f92919061332c565b9081526020016040518091039020548361079991906133c8565b11155b6107e85760405162461bcd60e51b815260206004820152600660248201527f616d6f756e740000000000000000000000000000000000000000000000000000604482015260640161063a565b81600385856040516107fb92919061332c565b90815260200160405180910390205461081491906133c8565b6003858560405161082692919061332c565b9081526040805160209281900383018120939093553360009081526004909252902090610856908690869061332c565b9081526040519081900360200190206001015460ff16156109ab5733600090815260046020526040908190209051839190610894908790879061332c565b908152604051908190036020019020546108ae91906133c8565b600285856040516108c092919061332c565b908152604080519182900360209081018320336000908152600490925291902090916108ef908890889061332c565b90815260200160405180910390206002015481548110610911576109116133db565b9060005260206000209060020201600101819055508160046000336001600160a01b03166001600160a01b03168152602001908152602001600020858560405161095c92919061332c565b9081526040519081900360200190205461097691906133c8565b33600090815260046020526040908190209051610996908790879061332c565b90815260405190819003602001902055610aaa565b6040518060600160405280838152602001600115158152602001600286866040516109d792919061332c565b90815260408051602092819003830190205490925233600090815260049091528190209051610a09908790879061332c565b9081526040805160209281900383018120845181559284015160018401805460ff191691151591909117905592015160029182015590610a4c908690869061332c565b90815260408051602092819003830181208183019092523381528281018581528254600180820185556000948552949093209151600290930290910180546001600160a01b0319166001600160a01b03909316929092178255519101555b600a546040517f925b7cb60000000000000000000000000000000000000000000000000000000081526001600160a01b039091169063925b7cb690610af7908790879087906004016133f1565b600060405180830381600087803b158015610b1157600080fd5b505af1158015610b25573d6000803e3d6000fd5b5050505060008484604051610b3b92919061332c565b90815260405190819003602001902060090154600a546001600160a01b03918216916323b872dd91339116610b7886670de0b6b3a764000061338f565b6040517fffffffff0000000000000000000000000000000000000000000000000000000060e086901b1681526001600160a01b03938416600482015292909116602483015260448201526064016020604051808303816000875af1158015610be4573d6000803e3d6000fd5b505050506040513d601f19601f82011682018060405250810190610c08919061330a565b507f0bdaf52b4de514796607307fbbcf007ee6d59e81e1be436b67c5a567a2e8d121848433604051610c3c93929190613415565b60405180910390a150505050565b80600183604051610c5b9190613442565b90815260405190819003602001902080546001600160a01b03929092166001600160a01b03199092169190911790555050565b6007546040517f877b9a670000000000000000000000000000000000000000000000000000000081523360048201526001600160a01b039091169063877b9a6790602401602060405180830381865afa158015610cef573d6000803e3d6000fd5b505050506040513d601f19601f82011682018060405250810190610d13919061330a565b610d5f5760405162461bcd60e51b815260206004820152600a60248201527f6e6f742069737375657200000000000000000000000000000000000000000000604482015260640161063a565b610d6f6060820160408301613127565b6001600160a01b0316336001600160a01b031614610db95760405162461bcd60e51b81526020600482015260076024820152666164647265737360c81b604482015260640161063a565b6000808484604051610dcc92919061332c565b9081526040519081900360200190206009015460ff600160a81b909104166005811115610dfb57610dfb612dff565b14610e315760405162461bcd60e51b815260206004820152600660248201526573746174757360d01b604482015260640161063a565b8060008484604051610e4492919061332c565b908152604051908190036020019020610e5d828261367d565b905050600160008484604051610e7492919061332c565b908152604051908190036020019020600901805460ff60a81b1916600160a81b836005811115610ea657610ea6612dff565b0217905550600d54604051600090610ec1908690869061332c565b908152602001604051809103902060080181905550600d60008484604051610eea92919061332c565b908152604051602091819003820190208254600181018455600093845291909220600a9091020180610f1c83826137bb565b50600181810190610f2f908401826137bb565b5060028281015490820180546001600160a01b039283166001600160a01b0319918216179091556003808501549084015560048085015490840155600580850154818501556006808601549085015560078086015490850155600880860154908501556009808601805491860180549290951693821684178555805474ffffffffffffffffffffffffffffffffffffffffff19909216909317600160a01b9182900460ff908116909202178085559254600160a81b90819004909116939260ff60a81b191691849081111561100657611006612dff565b021790555050507febc5645d06a6c6900ffbabb37c6fc84326bd870990f736254f05abb3287ffd41838383604051611040939291906138f4565b60405180910390a1505050565b60008160405161105d9190613442565b90815260405190819003602001902060020154336001600160a01b03909116148061109257506006546001600160a01b031633145b6110c85760405162461bcd60e51b81526020600482015260076024820152666164647265737360c81b604482015260640161063a565b60006001600160a01b03166000826040516110e39190613442565b908152604051908190036020019020600901546001600160a01b03160361114c5760405162461bcd60e51b815260206004820152600560248201527f746f6b656e000000000000000000000000000000000000000000000000000000604482015260640161063a565b600a546040516001600160a01b039091169063e04cd97f908390600090611174908390613442565b908152604051908190036020018120600201546001600160a01b03169060009061119f908790613442565b908152604051908190036020018120600901547fffffffff0000000000000000000000000000000000000000000000000000000060e086901b1682526111f59392916001600160a01b0390911690600401613a06565b600060405180830381600087803b15801561120f57600080fd5b505af1158015611223573d6000803e3d6000fd5b5050505050565b6060600e805480602002602001604051908101604052809291908181526020016000905b828210156112fa57838290600052602060002001805461126d906134a5565b80601f0160208091040260200160405190810160405280929190818152602001828054611299906134a5565b80156112e65780601f106112bb576101008083540402835291602001916112e6565b820191906000526020600020905b8154815290600101906020018083116112c957829003601f168201915b50505050508152602001906001019061124e565b50505050905090565b60006001826040516113159190613442565b908152604051908190036020019020546001600160a01b031692915050565b6060600d805480602002602001604051908101604052809291908181526020016000905b828210156112fa57838290600052602060002090600a02016040518061018001604052908160008201805461138c906134a5565b80601f01602080910402602001604051908101604052809291908181526020018280546113b8906134a5565b80156114055780601f106113da57610100808354040283529160200191611405565b820191906000526020600020905b8154815290600101906020018083116113e857829003601f168201915b5050505050815260200160018201805461141e906134a5565b80601f016020809104026020016040519081016040528092919081815260200182805461144a906134a5565b80156114975780601f1061146c57610100808354040283529160200191611497565b820191906000526020600020905b81548152906001019060200180831161147a57829003601f168201915b505050918352505060028201546001600160a01b03908116602083015260038301546040830152600483015460608301526005808401546080840152600684015460a0840152600784015460c0840152600884015460e0840152600984015491821661010084015260ff600160a01b8304811661012085015261014090930192600160a81b9092049091169081111561153257611532612dff565b600581111561154357611543612dff565b8152505081526020019060010190611358565b6006546001600160a01b031633146115a55760405162461bcd60e51b815260206004820152601260248201527127a7262cafaa27a827a9afa6a0a720a3a2a960711b604482015260640161063a565b6001600083836040516115b992919061332c565b9081526040519081900360200190206009015460ff600160a81b9091041660058111156115e8576115e8612dff565b1461161e5760405162461bcd60e51b815260206004820152600660248201526573746174757360d01b604482015260640161063a565b60026000838360405161163292919061332c565b908152604051908190036020019020600901805460ff60a81b1916600160a81b83600581111561166457611664612dff565b02179055506002600d6000848460405161167f92919061332c565b908152602001604051809103902060080154815481106116a1576116a16133db565b600091825260209091206009600a9092020101805460ff60a81b1916600160a81b8360058111156116d4576116d4612dff565b02179055507f039501081328ffe3eb02459ad6f6e90b69e23ba1422b574ee84c1f52b2fc0310828260405161170a929190613365565b60405180910390a15050565b8151602081840181018051600282529282019185019190912091905280548290811061174157600080fd5b6000918252602090912060029091020180546001909101546001600160a01b039091169250905082565b6005602052816000526040600020818154811061178757600080fd5b90600052602060002090600a0201600091509150508060000180546117ab906134a5565b80601f01602080910402602001604051908101604052809291908181526020018280546117d7906134a5565b80156118245780601f106117f957610100808354040283529160200191611824565b820191906000526020600020905b81548152906001019060200180831161180757829003601f168201915b505050505090806001018054611839906134a5565b80601f0160208091040260200160405190810160405280929190818152602001828054611865906134a5565b80156118b25780601f10611887576101008083540402835291602001916118b2565b820191906000526020600020905b81548152906001019060200180831161189557829003601f168201915b50505060028401546003850154600486015460058701546006880154600789015460088a01546009909a015498996001600160a01b0396871699959850939650919490939192919081169060ff600160a01b8204811691600160a81b9004168c565b6006546001600160a01b031633146119635760405162461bcd60e51b815260206004820152601260248201527127a7262cafaa27a827a9afa6a0a720a3a2a960711b604482015260640161063a565b60026000858560405161197792919061332c565b9081526040519081900360200190206009015460ff600160a81b9091041660058111156119a6576119a6612dff565b146119c8578383604051632dc5942160e21b815260040161063a929190613365565b80600185856040516119db92919061332c565b908152602001604051809103902060006101000a8154816001600160a01b0302191690836001600160a01b03160217905550600460008585604051611a2192919061332c565b908152604051908190036020019020600901805460ff60a81b1916600160a81b836005811115611a5357611a53612dff565b02179055506004600d60008686604051611a6e92919061332c565b90815260200160405180910390206008015481548110611a9057611a906133db565b600091825260209091206009600a9092020101805460ff60a81b1916600160a81b836005811115611ac357611ac3612dff565b021790555060056000808686604051611add92919061332c565b9081526040805160209281900383019020600201546001600160a01b0316835290820192909252810160009081209151611b1a908790879061332c565b908152604051602091819003820190208254600181018455600093845291909220600a9091020180611b4c83826137bb565b50600181810190611b5f908401826137bb565b5060028281015490820180546001600160a01b039283166001600160a01b0319918216179091556003808501549084015560048085015490840155600580850154818501556006808601549085015560078086015490850155600880860154908501556009808601805491860180549290951693821684178555805474ffffffffffffffffffffffffffffffffffffffffff19909216909317600160a01b9182900460ff908116909202178085559254600160a81b90819004909116939260ff60a81b1916918490811115611c3657611c36612dff565b021790555050600e80546001810182556000919091527fbb7b4a454dc3493923482f07822329ed19e8244eff582cc204f8554c3620c3fd019050611c7b84868361352e565b506040517fd76805aa0000000000000000000000000000000000000000000000000000000081526001600160a01b0382169063d76805aa90611cc1908590600401613a39565b600060405180830381600087803b158015611cdb57600080fd5b505af1158015611cef573d6000803e3d6000fd5b5050600c8054600181018255600091909152849250600b027fdf6966c971051c3d54ec59162606531493a51404a002842f56009d7e5cf4a8c7019050611d358282613b3d565b50507f44b55c2d9270546faf6ff2f0acac078011883b82782d9b08de2d3af4543c2b188484604051610c3c929190613365565b600060038383604051611d7c92919061332c565b90815260200160405180910390205490505b92915050565b6006546001600160a01b03163314611de35760405162461bcd60e51b815260206004820152601260248201527127a7262cafaa27a827a9afa6a0a720a3a2a960711b604482015260640161063a565b600160008383604051611df792919061332c565b9081526040519081900360200190206009015460ff600160a81b909104166005811115611e2657611e26612dff565b14611e5c5760405162461bcd60e51b815260206004820152600660248201526573746174757360d01b604482015260640161063a565b600360008383604051611e7092919061332c565b908152604051908190036020019020600901805460ff60a81b1916600160a81b836005811115611ea257611ea2612dff565b02179055506003600d60008484604051611ebd92919061332c565b90815260200160405180910390206008015481548110611edf57611edf6133db565b600091825260209091206009600a9092020101805460ff60a81b1916600160a81b836005811115611f1257611f12612dff565b02179055507f735ccdd611541d36c82a3622baab7f58b8a0f5be664555b0d9c95ddde16096d3828260405161170a929190613365565b6006546001600160a01b03163314611f975760405162461bcd60e51b815260206004820152601260248201527127a7262cafaa27a827a9afa6a0a720a3a2a960711b604482015260640161063a565b6001600160a01b038116611faa57600080fd5b600a80546001600160a01b0319166001600160a01b0392909216919091179055565b80516020818301810180516000825292820191909301209152805481906117ab906134a5565b60606002838360405161200692919061332c565b9081526020016040518091039020805480602002602001604051908101604052809291908181526020016000905b8282101561207c576000848152602090819020604080518082019091526002850290910180546001600160a01b03168252600190810154828401529083529092019101612034565b50505050905092915050565b6006546001600160a01b031633146120d75760405162461bcd60e51b815260206004820152601260248201527127a7262cafaa27a827a9afa6a0a720a3a2a960711b604482015260640161063a565b60078054604080517fcfde1890000000000000000000000000000000000000000000000000000000008152600481019190915260448101929092527f4d414e414745520000000000000000000000000000000000000000000000000060648301526001600160a01b038381166024840152169063cfde1890906084016111f5565b6006546001600160a01b031633146121a75760405162461bcd60e51b815260206004820152601260248201527127a7262cafaa27a827a9afa6a0a720a3a2a960711b604482015260640161063a565b6004600084846040516121bb92919061332c565b9081526040519081900360200190206009015460ff600160a81b9091041660058111156121ea576121ea612dff565b1461220c578282604051632dc5942160e21b815260040161063a929190613365565b60056000848460405161222092919061332c565b908152604051908190036020019020600901805460ff60a81b1916600160a81b83600581111561225257612252612dff565b02179055506005600d6000858560405161226d92919061332c565b9081526020016040518091039020600801548154811061228f5761228f6133db565b600091825260209091206009600a9092020101805460ff60a81b1916600160a81b8360058111156122c2576122c2612dff565b021790555060058060008086866040516122dd92919061332c565b9081526040805160209281900383019020600201546001600160a01b031683529082019290925281016000908120915161231a908790879061332c565b9081526020016040518091039020600801548154811061233c5761233c6133db565b600091825260209091206009600a9092020101805460ff60a81b1916600160a81b83600581111561236f5761236f612dff565b0217905550806001600160a01b031663be040fb06040518163ffffffff1660e01b8152600401600060405180830381600087803b1580156123af57600080fd5b505af11580156123c3573d6000803e3d6000fd5b5050505060005b600284846040516123dc92919061332c565b908152604051908190036020019020548110156125735760006002858560405161240792919061332c565b90815260200160405180910390208281548110612426576124266133db565b906000526020600020906002020160010154905060006002868660405161244e92919061332c565b9081526020016040518091039020838154811061246d5761246d6133db565b60009182526020909120600290910201546001600160a01b03169050811561255e57600086866040516124a192919061332c565b908152604051908190036020019020600901546001600160a01b031663a9059cbb826124d585670de0b6b3a764000061338f565b6040517fffffffff0000000000000000000000000000000000000000000000000000000060e085901b1681526001600160a01b03909216600483015260248201526044016020604051808303816000875af1158015612538573d6000803e3d6000fd5b505050506040513d601f19601f8201168201806040525081019061255c919061330a565b505b5050808061256b90613c25565b9150506123ca565b507fdfdf42ff0d0eb3e6ec5b40d8cf21fb2f7102b67e5e2d56ab36e817f807213c5b8383604051611040929190613365565b6125ad612a17565b6000826040516125bd9190613442565b9081526020016040518091039020604051806101800160405290816000820180546125e7906134a5565b80601f0160208091040260200160405190810160405280929190818152602001828054612613906134a5565b80156126605780601f1061263557610100808354040283529160200191612660565b820191906000526020600020905b81548152906001019060200180831161264357829003601f168201915b50505050508152602001600182018054612679906134a5565b80601f01602080910402602001604051908101604052809291908181526020018280546126a5906134a5565b80156126f25780601f106126c7576101008083540402835291602001916126f2565b820191906000526020600020905b8154815290600101906020018083116126d557829003601f168201915b505050918352505060028201546001600160a01b03908116602083015260038301546040830152600483015460608301526005808401546080840152600684015460a0840152600784015460c0840152600884015460e0840152600984015491821661010084015260ff600160a01b8304811661012085015261014090930192600160a81b9092049091169081111561278d5761278d612dff565b600581111561279e5761279e612dff565b90525092915050565b6060600c805480602002602001604051908101604052809291908181526020016000905b828210156112fa57838290600052602060002090600b0201604051806101600160405290816000820180546127ff906134a5565b80601f016020809104026020016040519081016040528092919081815260200182805461282b906134a5565b80156128785780601f1061284d57610100808354040283529160200191612878565b820191906000526020600020905b81548152906001019060200180831161285b57829003601f168201915b50505050508152602001600182018054612891906134a5565b80601f01602080910402602001604051908101604052809291908181526020018280546128bd906134a5565b801561290a5780601f106128df5761010080835404028352916020019161290a565b820191906000526020600020905b8154815290600101906020018083116128ed57829003601f168201915b50505050508152602001600282018054612923906134a5565b80601f016020809104026020016040519081016040528092919081815260200182805461294f906134a5565b801561299c5780601f106129715761010080835404028352916020019161299c565b820191906000526020600020905b81548152906001019060200180831161297f57829003601f168201915b505050918352505060038201546001600160a01b0316602080830191909152600483015460408301526005830154606083015260068301546080830152600783015460ff1660a0830152600883015460c0830152600983015460e0830152600a909201546101009091015290825260019290920191016127cb565b604051806101800160405280606081526020016060815260200160006001600160a01b0316815260200160008152602001600081526020016000815260200160008152602001600081526020016000815260200160006001600160a01b03168152602001600060ff16815260200160006005811115612a9857612a98612dff565b905290565b6001600160a01b0381168114612ab257600080fd5b50565b8035612ac081612a9d565b919050565b634e487b7160e01b600052604160045260246000fd5b600082601f830112612aec57600080fd5b813567ffffffffffffffff80821115612b0757612b07612ac5565b604051601f8301601f19908116603f01168101908282118183101715612b2f57612b2f612ac5565b81604052838152866020858801011115612b4857600080fd5b836020870160208301376000602085830101528094505050505092915050565b60008060408385031215612b7b57600080fd5b8235612b8681612a9d565b9150602083013567ffffffffffffffff811115612ba257600080fd5b612bae85828601612adb565b9150509250929050565b60008083601f840112612bca57600080fd5b50813567ffffffffffffffff811115612be257600080fd5b602083019150836020828501011115612bfa57600080fd5b9250929050565b600080600060408486031215612c1657600080fd5b833567ffffffffffffffff811115612c2d57600080fd5b612c3986828701612bb8565b909790965060209590950135949350505050565b60008060408385031215612c6057600080fd5b823567ffffffffffffffff811115612c7757600080fd5b612c8385828601612adb565b9250506020830135612c9481612a9d565b809150509250929050565b600080600060408486031215612cb457600080fd5b833567ffffffffffffffff80821115612ccc57600080fd5b612cd887838801612bb8565b90955093506020860135915080821115612cf157600080fd5b5084016101808187031215612d0557600080fd5b809150509250925092565b600060208284031215612d2257600080fd5b813567ffffffffffffffff811115612d3957600080fd5b612d4584828501612adb565b949350505050565b60005b83811015612d68578181015183820152602001612d50565b50506000910152565b60008151808452612d89816020860160208601612d4d565b601f01601f19169290920160200192915050565b6000602080830181845280855180835260408601915060408160051b870101925083870160005b82811015612df257603f19888603018452612de0858351612d71565b94509285019290850190600101612dc4565b5092979650505050505050565b634e487b7160e01b600052602160045260246000fd5b60068110612e3357634e487b7160e01b600052602160045260246000fd5b9052565b60006101808251818552612e4d82860182612d71565b91505060208301518482036020860152612e678282612d71565b9150506040830151612e8460408601826001600160a01b03169052565b50606083015160608501526080830151608085015260a083015160a085015260c083015160c085015260e083015160e085015261010080840151818601525061012080840151612ede828701826001600160a01b03169052565b50506101408381015160ff169085015261016080840151612f0182870182612e15565b5090949350505050565b6000602080830181845280855180835260408601915060408160051b870101925083870160005b82811015612df257603f19888603018452612f4e858351612e37565b94509285019290850190600101612f32565b60008060208385031215612f7357600080fd5b823567ffffffffffffffff811115612f8a57600080fd5b612f9685828601612bb8565b90969095509350505050565b60008060408385031215612fb557600080fd5b823567ffffffffffffffff811115612fcc57600080fd5b612fd885828601612adb565b95602094909401359450505050565b60008060408385031215612ffa57600080fd5b823561300581612a9d565b946020939093013593505050565b6101808152600061302861018083018f612d71565b828103602084015261303a818f612d71565b9150506001600160a01b03808d1660408401528b60608401528a60808401528960a08401528860c08401528760e0840152866101008401528086166101208401525060ff8416610140830152613094610160830184612e15565b9d9c50505050505050505050505050565b600080600080606085870312156130bb57600080fd5b843567ffffffffffffffff808211156130d357600080fd5b6130df88838901612bb8565b909650945060208701359150808211156130f857600080fd5b508501610160818803121561310c57600080fd5b9150604085013561311c81612a9d565b939692955090935050565b60006020828403121561313957600080fd5b813561314481612a9d565b9392505050565b602080825282518282018190526000919060409081850190868401855b8281101561319657815180516001600160a01b03168552860151868501529284019290850190600101613168565b5091979650505050505050565b6000806000604084860312156131b857600080fd5b833567ffffffffffffffff8111156131cf57600080fd5b6131db86828701612bb8565b9094509250506020840135612d0581612a9d565b6020815260006131446020830184612e37565b60006020808301818452808551808352604092508286019150828160051b87010184880160005b838110156132fc57603f198984030185528151610160815181865261325082870182612d71565b915050888201518582038a8701526132688282612d71565b91505087820151858203898701526132808282612d71565b91505060608083015161329d828801826001600160a01b03169052565b50506080828101519086015260a0808301519086015260c0808301519086015260e08083015160ff1690860152610100808301519086015261012080830151908601526101409182015191909401529386019390860190600101613229565b509098975050505050505050565b60006020828403121561331c57600080fd5b8151801515811461314457600080fd5b8183823760009101908152919050565b81835281816020850137506000828201602090810191909152601f909101601f19169091010190565b602081526000612d4560208301848661333c565b634e487b7160e01b600052601160045260246000fd5b8082028115828204841417611d8e57611d8e613379565b6000826133c357634e487b7160e01b600052601260045260246000fd5b500690565b80820180821115611d8e57611d8e613379565b634e487b7160e01b600052603260045260246000fd5b60408152600061340560408301858761333c565b9050826020830152949350505050565b60408152600061342960408301858761333c565b90506001600160a01b0383166020830152949350505050565b60008251613454818460208701612d4d565b9190910192915050565b6000808335601e1984360301811261347557600080fd5b83018035915067ffffffffffffffff82111561349057600080fd5b602001915036819003821315612bfa57600080fd5b600181811c908216806134b957607f821691505b6020821081036134d957634e487b7160e01b600052602260045260246000fd5b50919050565b601f82111561352957600081815260208120601f850160051c810160208610156135065750805b601f850160051c820191505b8181101561352557828155600101613512565b5050505b505050565b67ffffffffffffffff83111561354657613546612ac5565b61355a8361355483546134a5565b836134df565b6000601f84116001811461358e57600085156135765750838201355b600019600387901b1c1916600186901b178355611223565b600083815260209020601f19861690835b828110156135bf578685013582556020948501946001909201910161359f565b50868210156135dc5760001960f88860031b161c19848701351681555b505060018560011b0183555050505050565b60008135611d8e81612a9d565b60ff81168114612ab257600080fd5b60008135611d8e816135fb565b60068110612ab257600080fd5b60008135611d8e81613617565b6006821061364f57634e487b7160e01b600052602160045260246000fd5b805475ff0000000000000000000000000000000000000000008360a81b1660ff60a81b198216178255505050565b613687828361345e565b61369281838561352e565b50506136a1602083018361345e565b6136af81836001860161352e565b50506136e16136c0604084016135ee565b600283016001600160a01b0382166001600160a01b03198254161781555050565b606082013560038201556080820135600482015560a0820135600582015560c0820135600682015560e0820135600782015561010082013560088201556009810161374f61373261012085016135ee565b82546001600160a01b0319166001600160a01b0391909116178255565b6137a561375f610140850161360a565b82547fffffffffffffffffffffff00ffffffffffffffffffffffffffffffffffffffff1660a09190911b74ff000000000000000000000000000000000000000016178255565b6135296137b56101608501613624565b82613631565b8181036137c6575050565b6137d082546134a5565b67ffffffffffffffff8111156137e8576137e8612ac5565b6137fc816137f684546134a5565b846134df565b6000601f82116001811461383057600083156138185750848201545b600019600385901b1c1916600184901b178455611223565b600085815260209020601f19841690600086815260209020845b8381101561386a578286015482556001958601959091019060200161384a565b50858310156138885781850154600019600388901b60f8161c191681555b5050505050600190811b01905550565b6000808335601e198436030181126138af57600080fd5b830160208101925035905067ffffffffffffffff8111156138cf57600080fd5b803603821315612bfa57600080fd5b8035612ac0816135fb565b8035612ac081613617565b60408152600061390860408301858761333c565b828103602084015261018061391d8586613898565b82845261392d838501828461333c565b9250505061393e6020860186613898565b838303602085015261395183828461333c565b9250505061396160408601612ab5565b6001600160a01b038116604084015250606085013560608301526080850135608083015260a085013560a083015260c085013560c083015260e085013560e08301526101008086013581840152506101206139bd818701612ab5565b6001600160a01b0316908301526101406139d88682016138de565b60ff16908301526101606139ed8682016138e9565b6139f982850182612e15565b5090979650505050505050565b606081526000613a196060830186612d71565b6001600160a01b0394851660208401529290931660409091015292915050565b602081526000613a498384613898565b610160806020860152613a616101808601838561333c565b9250613a706020870187613898565b9250601f1980878603016040880152613a8a85858461333c565b9450613a996040890189613898565b945091508087860301606088015250613ab384848361333c565b935050613ac260608701612ab5565b6001600160a01b03811660808701529150608086013560a086015260a086013560c086015260c086013560e0860152613afd60e087016138de565b9150610100613b108187018460ff169052565b86013561012086810191909152860135610140808701919091529095013594909301939093525090919050565b613b47828361345e565b613b5281838561352e565b5050613b61602083018361345e565b613b6f81836001860161352e565b5050613b7e604083018361345e565b613b8c81836002860161352e565b5050613bbe613b9d606084016135ee565b600383016001600160a01b0382166001600160a01b03198254161781555050565b6080820135600482015560a0820135600582015560c08201356006820155613c00613beb60e0840161360a565b6007830160ff821660ff198254161781555050565b61010082013560088201556101208201356009820155610140820135600a8201555050565b600060018201613c3757613c37613379565b506001019056fea26469706673582212201e0ac354f2b1baa03da4a2cf661b28a397a09b1c84e5539fb231c2b093797a0b64736f6c63430008130033",
  "linkReferences": {},
  "deployedLinkReferences": {}
}