{
  "_format": "hh-sol-artifact-1",
  "contractName": "ToposBank",
  "sourceName": "contracts/Topos/Bank/ToposBank.sol",
  "abi": [
    {
      "inputs": [
        {
          "internalType": "address",
          "name": "_toposManager",
          "type": "address"
        },
        {
          "internalType": "address",
          "name": "_rolesContract",
          "type": "address"
        },
        {
          "internalType": "address",
          "name": "_identityRegistryContract",
          "type": "address"
        },
        {
          "internalType": "address",
          "name": "_bondCallContract",
          "type": "address"
        },
        {
          "internalType": "address",
          "name": "_irsCallContract",
          "type": "address"
        },
        {
          "internalType": "uint256",
          "name": "_dealFees",
          "type": "uint256"
        }
      ],
      "stateMutability": "nonpayable",
      "type": "constructor"
    },
    {
      "inputs": [
        {
          "internalType": "uint256",
          "name": "amount",
          "type": "uint256"
        }
      ],
      "name": "InvalidAmount",
      "type": "error"
    },
    {
      "inputs": [
        {
          "internalType": "string",
          "name": "dealID",
          "type": "string"
        }
      ],
      "name": "InvalidDealStatus",
      "type": "error"
    },
    {
      "anonymous": false,
      "inputs": [
        {
          "indexed": false,
          "internalType": "string",
          "name": "_dealID",
          "type": "string"
        }
      ],
      "name": "BondIssue",
      "type": "event"
    },
    {
      "anonymous": false,
      "inputs": [
        {
          "indexed": false,
          "internalType": "string",
          "name": "_dealID",
          "type": "string"
        }
      ],
      "name": "BondRedeem",
      "type": "event"
    },
    {
      "anonymous": false,
      "inputs": [
        {
          "indexed": false,
          "internalType": "string",
          "name": "dealID",
          "type": "string"
        }
      ],
      "name": "DealAPproved",
      "type": "event"
    },
    {
      "anonymous": false,
      "inputs": [
        {
          "indexed": false,
          "internalType": "string",
          "name": "dealID",
          "type": "string"
        }
      ],
      "name": "DealARejected",
      "type": "event"
    },
    {
      "anonymous": false,
      "inputs": [
        {
          "indexed": false,
          "internalType": "string",
          "name": "dealID",
          "type": "string"
        },
        {
          "components": [
            {
              "internalType": "string",
              "name": "dealID",
              "type": "string"
            },
            {
              "internalType": "string",
              "name": "prospectusURI",
              "type": "string"
            },
            {
              "internalType": "address",
              "name": "issuerAddress",
              "type": "address"
            },
            {
              "internalType": "uint256",
              "name": "debtAmount",
              "type": "uint256"
            },
            {
              "internalType": "uint256",
              "name": "denomination",
              "type": "uint256"
            },
            {
              "internalType": "uint256",
              "name": "couponRate",
              "type": "uint256"
            },
            {
              "internalType": "uint256",
              "name": "couponFrequency",
              "type": "uint256"
            },
            {
              "internalType": "uint256",
              "name": "maturityDate",
              "type": "uint256"
            },
            {
              "internalType": "uint256",
              "name": "index",
              "type": "uint256"
            },
            {
              "internalType": "address",
              "name": "currency",
              "type": "address"
            },
            {
              "internalType": "uint8",
              "name": "couponType",
              "type": "uint8"
            },
            {
              "internalType": "enum BondData.DealStatus",
              "name": "status",
              "type": "uint8"
            }
          ],
          "indexed": false,
          "internalType": "struct BondData.Deal",
          "name": "deal",
          "type": "tuple"
        }
      ],
      "name": "DealSubmitted",
      "type": "event"
    },
    {
      "anonymous": false,
      "inputs": [
        {
          "indexed": false,
          "internalType": "string",
          "name": "dealID",
          "type": "string"
        },
        {
          "indexed": false,
          "internalType": "address",
          "name": "investor",
          "type": "address"
        }
      ],
      "name": "RegisterForDeal",
      "type": "event"
    },
    {
      "inputs": [
        {
          "internalType": "address",
          "name": "",
          "type": "address"
        },
        {
          "internalType": "string",
          "name": "",
          "type": "string"
        }
      ],
      "name": "amountInvested",
      "outputs": [
        {
          "internalType": "uint256",
          "name": "amount",
          "type": "uint256"
        },
        {
          "internalType": "bool",
          "name": "hasInvested",
          "type": "bool"
        },
        {
          "internalType": "uint256",
          "name": "index",
          "type": "uint256"
        }
      ],
      "stateMutability": "view",
      "type": "function"
    },
    {
      "inputs": [
        {
          "internalType": "string",
          "name": "_dealID",
          "type": "string"
        }
      ],
      "name": "approveDeal",
      "outputs": [],
      "stateMutability": "nonpayable",
      "type": "function"
    },
    {
      "inputs": [],
      "name": "bondCallContract",
      "outputs": [
        {
          "internalType": "address",
          "name": "",
          "type": "address"
        }
      ],
      "stateMutability": "view",
      "type": "function"
    },
    {
      "inputs": [
        {
          "internalType": "string",
          "name": "",
          "type": "string"
        }
      ],
      "name": "dealBondContracts",
      "outputs": [
        {
          "internalType": "address",
          "name": "",
          "type": "address"
        }
      ],
      "stateMutability": "view",
      "type": "function"
    },
    {
      "inputs": [],
      "name": "dealFees",
      "outputs": [
        {
          "internalType": "uint256",
          "name": "",
          "type": "uint256"
        }
      ],
      "stateMutability": "view",
      "type": "function"
    },
    {
      "inputs": [
        {
          "internalType": "string",
          "name": "",
          "type": "string"
        },
        {
          "internalType": "uint256",
          "name": "",
          "type": "uint256"
        }
      ],
      "name": "dealInvestment",
      "outputs": [
        {
          "internalType": "address",
          "name": "investor",
          "type": "address"
        },
        {
          "internalType": "uint256",
          "name": "amount",
          "type": "uint256"
        }
      ],
      "stateMutability": "view",
      "type": "function"
    },
    {
      "inputs": [
        {
          "internalType": "string",
          "name": "",
          "type": "string"
        }
      ],
      "name": "deals",
      "outputs": [
        {
          "internalType": "string",
          "name": "dealID",
          "type": "string"
        },
        {
          "internalType": "string",
          "name": "prospectusURI",
          "type": "string"
        },
        {
          "internalType": "address",
          "name": "issuerAddress",
          "type": "address"
        },
        {
          "internalType": "uint256",
          "name": "debtAmount",
          "type": "uint256"
        },
        {
          "internalType": "uint256",
          "name": "denomination",
          "type": "uint256"
        },
        {
          "internalType": "uint256",
          "name": "couponRate",
          "type": "uint256"
        },
        {
          "internalType": "uint256",
          "name": "couponFrequency",
          "type": "uint256"
        },
        {
          "internalType": "uint256",
          "name": "maturityDate",
          "type": "uint256"
        },
        {
          "internalType": "uint256",
          "name": "index",
          "type": "uint256"
        },
        {
          "internalType": "address",
          "name": "currency",
          "type": "address"
        },
        {
          "internalType": "uint8",
          "name": "couponType",
          "type": "uint8"
        },
        {
          "internalType": "enum BondData.DealStatus",
          "name": "status",
          "type": "uint8"
        }
      ],
      "stateMutability": "view",
      "type": "function"
    },
    {
      "inputs": [
        {
          "internalType": "address",
          "name": "_swapContract",
          "type": "address"
        }
      ],
      "name": "endSwapContract",
      "outputs": [],
      "stateMutability": "nonpayable",
      "type": "function"
    },
    {
      "inputs": [],
      "name": "getBenchmark",
      "outputs": [
        {
          "internalType": "uint256",
          "name": "",
          "type": "uint256"
        }
      ],
      "stateMutability": "view",
      "type": "function"
    },
    {
      "inputs": [],
      "name": "getContracts",
      "outputs": [
        {
          "internalType": "address",
          "name": "manager",
          "type": "address"
        },
        {
          "internalType": "address",
          "name": "roles",
          "type": "address"
        },
        {
          "internalType": "address",
          "name": "identityRegistry",
          "type": "address"
        },
        {
          "internalType": "address",
          "name": "bondCall",
          "type": "address"
        },
        {
          "internalType": "address",
          "name": "issuerFund",
          "type": "address"
        }
      ],
      "stateMutability": "view",
      "type": "function"
    },
    {
      "inputs": [
        {
          "internalType": "string",
          "name": "_dealID",
          "type": "string"
        }
      ],
      "name": "getDeal",
      "outputs": [
        {
          "components": [
            {
              "internalType": "string",
              "name": "dealID",
              "type": "string"
            },
            {
              "internalType": "string",
              "name": "prospectusURI",
              "type": "string"
            },
            {
              "internalType": "address",
              "name": "issuerAddress",
              "type": "address"
            },
            {
              "internalType": "uint256",
              "name": "debtAmount",
              "type": "uint256"
            },
            {
              "internalType": "uint256",
              "name": "denomination",
              "type": "uint256"
            },
            {
              "internalType": "uint256",
              "name": "couponRate",
              "type": "uint256"
            },
            {
              "internalType": "uint256",
              "name": "couponFrequency",
              "type": "uint256"
            },
            {
              "internalType": "uint256",
              "name": "maturityDate",
              "type": "uint256"
            },
            {
              "internalType": "uint256",
              "name": "index",
              "type": "uint256"
            },
            {
              "internalType": "address",
              "name": "currency",
              "type": "address"
            },
            {
              "internalType": "uint8",
              "name": "couponType",
              "type": "uint8"
            },
            {
              "internalType": "enum BondData.DealStatus",
              "name": "status",
              "type": "uint8"
            }
          ],
          "internalType": "struct BondData.Deal",
          "name": "",
          "type": "tuple"
        }
      ],
      "stateMutability": "view",
      "type": "function"
    },
    {
      "inputs": [
        {
          "internalType": "string",
          "name": "_dealID",
          "type": "string"
        }
      ],
      "name": "getDealBondContract",
      "outputs": [
        {
          "internalType": "address",
          "name": "",
          "type": "address"
        }
      ],
      "stateMutability": "view",
      "type": "function"
    },
    {
      "inputs": [],
      "name": "getDealFees",
      "outputs": [
        {
          "internalType": "uint256",
          "name": "",
          "type": "uint256"
        }
      ],
      "stateMutability": "view",
      "type": "function"
    },
    {
      "inputs": [
        {
          "internalType": "string",
          "name": "_dealID",
          "type": "string"
        }
      ],
      "name": "getDealInvestment",
      "outputs": [
        {
          "components": [
            {
              "internalType": "address",
              "name": "investor",
              "type": "address"
            },
            {
              "internalType": "uint256",
              "name": "amount",
              "type": "uint256"
            }
          ],
          "internalType": "struct BondData.DealInvestment[]",
          "name": "",
          "type": "tuple[]"
        }
      ],
      "stateMutability": "view",
      "type": "function"
    },
    {
      "inputs": [
        {
          "internalType": "address",
          "name": "_fixedPayerContract",
          "type": "address"
        },
        {
          "internalType": "address",
          "name": "_floatingPayerContract",
          "type": "address"
        }
      ],
      "name": "getIRSContract",
      "outputs": [
        {
          "internalType": "address",
          "name": "",
          "type": "address"
        }
      ],
      "stateMutability": "view",
      "type": "function"
    },
    {
      "inputs": [],
      "name": "getListOfBonds",
      "outputs": [
        {
          "components": [
            {
              "internalType": "string",
              "name": "isin",
              "type": "string"
            },
            {
              "internalType": "string",
              "name": "name",
              "type": "string"
            },
            {
              "internalType": "string",
              "name": "symbol",
              "type": "string"
            },
            {
              "internalType": "address",
              "name": "currency",
              "type": "address"
            },
            {
              "internalType": "uint256",
              "name": "denomination",
              "type": "uint256"
            },
            {
              "internalType": "uint256",
              "name": "issueVolume",
              "type": "uint256"
            },
            {
              "internalType": "uint256",
              "name": "couponRate",
              "type": "uint256"
            },
            {
              "internalType": "uint8",
              "name": "couponType",
              "type": "uint8"
            },
            {
              "internalType": "uint256",
              "name": "couponFrequency",
              "type": "uint256"
            },
            {
              "internalType": "uint256",
              "name": "issueDate",
              "type": "uint256"
            },
            {
              "internalType": "uint256",
              "name": "maturityDate",
              "type": "uint256"
            }
          ],
          "internalType": "struct BondData.Bond[]",
          "name": "",
          "type": "tuple[]"
        }
      ],
      "stateMutability": "view",
      "type": "function"
    },
    {
      "inputs": [],
      "name": "getListOfBondsDealIDs",
      "outputs": [
        {
          "internalType": "string[]",
          "name": "",
          "type": "string[]"
        }
      ],
      "stateMutability": "view",
      "type": "function"
    },
    {
      "inputs": [],
      "name": "getListOfDeals",
      "outputs": [
        {
          "components": [
            {
              "internalType": "string",
              "name": "dealID",
              "type": "string"
            },
            {
              "internalType": "string",
              "name": "prospectusURI",
              "type": "string"
            },
            {
              "internalType": "address",
              "name": "issuerAddress",
              "type": "address"
            },
            {
              "internalType": "uint256",
              "name": "debtAmount",
              "type": "uint256"
            },
            {
              "internalType": "uint256",
              "name": "denomination",
              "type": "uint256"
            },
            {
              "internalType": "uint256",
              "name": "couponRate",
              "type": "uint256"
            },
            {
              "internalType": "uint256",
              "name": "couponFrequency",
              "type": "uint256"
            },
            {
              "internalType": "uint256",
              "name": "maturityDate",
              "type": "uint256"
            },
            {
              "internalType": "uint256",
              "name": "index",
              "type": "uint256"
            },
            {
              "internalType": "address",
              "name": "currency",
              "type": "address"
            },
            {
              "internalType": "uint8",
              "name": "couponType",
              "type": "uint8"
            },
            {
              "internalType": "enum BondData.DealStatus",
              "name": "status",
              "type": "uint8"
            }
          ],
          "internalType": "struct BondData.Deal[]",
          "name": "",
          "type": "tuple[]"
        }
      ],
      "stateMutability": "view",
      "type": "function"
    },
    {
      "inputs": [
        {
          "internalType": "string",
          "name": "_dealID",
          "type": "string"
        }
      ],
      "name": "getTotalAmounInvested",
      "outputs": [
        {
          "internalType": "uint256",
          "name": "",
          "type": "uint256"
        }
      ],
      "stateMutability": "view",
      "type": "function"
    },
    {
      "inputs": [],
      "name": "identityRegistryContract",
      "outputs": [
        {
          "internalType": "address",
          "name": "",
          "type": "address"
        }
      ],
      "stateMutability": "view",
      "type": "function"
    },
    {
      "inputs": [],
      "name": "irsCallContract",
      "outputs": [
        {
          "internalType": "address",
          "name": "",
          "type": "address"
        }
      ],
      "stateMutability": "view",
      "type": "function"
    },
    {
      "inputs": [
        {
          "internalType": "string",
          "name": "_dealID",
          "type": "string"
        },
        {
          "components": [
            {
              "internalType": "string",
              "name": "isin",
              "type": "string"
            },
            {
              "internalType": "string",
              "name": "name",
              "type": "string"
            },
            {
              "internalType": "string",
              "name": "symbol",
              "type": "string"
            },
            {
              "internalType": "address",
              "name": "currency",
              "type": "address"
            },
            {
              "internalType": "uint256",
              "name": "denomination",
              "type": "uint256"
            },
            {
              "internalType": "uint256",
              "name": "issueVolume",
              "type": "uint256"
            },
            {
              "internalType": "uint256",
              "name": "couponRate",
              "type": "uint256"
            },
            {
              "internalType": "uint8",
              "name": "couponType",
              "type": "uint8"
            },
            {
              "internalType": "uint256",
              "name": "couponFrequency",
              "type": "uint256"
            },
            {
              "internalType": "uint256",
              "name": "issueDate",
              "type": "uint256"
            },
            {
              "internalType": "uint256",
              "name": "maturityDate",
              "type": "uint256"
            }
          ],
          "internalType": "struct BondData.Bond",
          "name": "_bond",
          "type": "tuple"
        },
        {
          "internalType": "address",
          "name": "_bondContract",
          "type": "address"
        }
      ],
      "name": "issue",
      "outputs": [],
      "stateMutability": "nonpayable",
      "type": "function"
    },
    {
      "inputs": [
        {
          "internalType": "address",
          "name": "",
          "type": "address"
        },
        {
          "internalType": "uint256",
          "name": "",
          "type": "uint256"
        }
      ],
      "name": "issuerDeals",
      "outputs": [
        {
          "internalType": "string",
          "name": "dealID",
          "type": "string"
        },
        {
          "internalType": "string",
          "name": "prospectusURI",
          "type": "string"
        },
        {
          "internalType": "address",
          "name": "issuerAddress",
          "type": "address"
        },
        {
          "internalType": "uint256",
          "name": "debtAmount",
          "type": "uint256"
        },
        {
          "internalType": "uint256",
          "name": "denomination",
          "type": "uint256"
        },
        {
          "internalType": "uint256",
          "name": "couponRate",
          "type": "uint256"
        },
        {
          "internalType": "uint256",
          "name": "couponFrequency",
          "type": "uint256"
        },
        {
          "internalType": "uint256",
          "name": "maturityDate",
          "type": "uint256"
        },
        {
          "internalType": "uint256",
          "name": "index",
          "type": "uint256"
        },
        {
          "internalType": "address",
          "name": "currency",
          "type": "address"
        },
        {
          "internalType": "uint8",
          "name": "couponType",
          "type": "uint8"
        },
        {
          "internalType": "enum BondData.DealStatus",
          "name": "status",
          "type": "uint8"
        }
      ],
      "stateMutability": "view",
      "type": "function"
    },
    {
      "inputs": [],
      "name": "issuersFundContract",
      "outputs": [
        {
          "internalType": "address",
          "name": "",
          "type": "address"
        }
      ],
      "stateMutability": "view",
      "type": "function"
    },
    {
      "inputs": [
        {
          "internalType": "string",
          "name": "_dealID",
          "type": "string"
        },
        {
          "internalType": "address",
          "name": "_bondContract",
          "type": "address"
        }
      ],
      "name": "redeem",
      "outputs": [],
      "stateMutability": "nonpayable",
      "type": "function"
    },
    {
      "inputs": [
        {
          "internalType": "string",
          "name": "_dealID",
          "type": "string"
        },
        {
          "internalType": "uint256",
          "name": "_amount",
          "type": "uint256"
        }
      ],
      "name": "registerForDeal",
      "outputs": [],
      "stateMutability": "nonpayable",
      "type": "function"
    },
    {
      "inputs": [
        {
          "internalType": "string",
          "name": "_dealID",
          "type": "string"
        }
      ],
      "name": "rejectDeal",
      "outputs": [],
      "stateMutability": "nonpayable",
      "type": "function"
    },
    {
      "inputs": [],
      "name": "rolesContract",
      "outputs": [
        {
          "internalType": "address",
          "name": "",
          "type": "address"
        }
      ],
      "stateMutability": "view",
      "type": "function"
    },
    {
      "inputs": [
        {
          "internalType": "uint256",
          "name": "_benchmark",
          "type": "uint256"
        }
      ],
      "name": "setBenchmark",
      "outputs": [],
      "stateMutability": "nonpayable",
      "type": "function"
    },
    {
      "inputs": [
        {
          "internalType": "string",
          "name": "_dealID",
          "type": "string"
        },
        {
          "internalType": "address",
          "name": "_bondContractAddress",
          "type": "address"
        }
      ],
      "name": "setBondContractAddress",
      "outputs": [],
      "stateMutability": "nonpayable",
      "type": "function"
    },
    {
      "inputs": [
        {
          "internalType": "uint256",
          "name": "_newBenchmark",
          "type": "uint256"
        },
        {
          "internalType": "address",
          "name": "_swapContract",
          "type": "address"
        }
      ],
      "name": "setIRSBenchmark",
      "outputs": [],
      "stateMutability": "nonpayable",
      "type": "function"
    },
    {
      "inputs": [
        {
          "internalType": "address",
          "name": "_fixedPayerContract",
          "type": "address"
        },
        {
          "internalType": "address",
          "name": "_floatingPayerContract",
          "type": "address"
        },
        {
          "internalType": "address",
          "name": "_irsContractAddress",
          "type": "address"
        }
      ],
      "name": "setIRSContractAddress",
      "outputs": [],
      "stateMutability": "nonpayable",
      "type": "function"
    },
    {
      "inputs": [
        {
          "internalType": "address",
          "name": "_issuerFundContract",
          "type": "address"
        }
      ],
      "name": "setIssuerFundContract",
      "outputs": [],
      "stateMutability": "nonpayable",
      "type": "function"
    },
    {
      "inputs": [
        {
          "internalType": "address",
          "name": "_toposManager",
          "type": "address"
        }
      ],
      "name": "setManager",
      "outputs": [],
      "stateMutability": "nonpayable",
      "type": "function"
    },
    {
      "inputs": [
        {
          "internalType": "string",
          "name": "_dealID",
          "type": "string"
        },
        {
          "components": [
            {
              "internalType": "string",
              "name": "dealID",
              "type": "string"
            },
            {
              "internalType": "string",
              "name": "prospectusURI",
              "type": "string"
            },
            {
              "internalType": "address",
              "name": "issuerAddress",
              "type": "address"
            },
            {
              "internalType": "uint256",
              "name": "debtAmount",
              "type": "uint256"
            },
            {
              "internalType": "uint256",
              "name": "denomination",
              "type": "uint256"
            },
            {
              "internalType": "uint256",
              "name": "couponRate",
              "type": "uint256"
            },
            {
              "internalType": "uint256",
              "name": "couponFrequency",
              "type": "uint256"
            },
            {
              "internalType": "uint256",
              "name": "maturityDate",
              "type": "uint256"
            },
            {
              "internalType": "uint256",
              "name": "index",
              "type": "uint256"
            },
            {
              "internalType": "address",
              "name": "currency",
              "type": "address"
            },
            {
              "internalType": "uint8",
              "name": "couponType",
              "type": "uint8"
            },
            {
              "internalType": "enum BondData.DealStatus",
              "name": "status",
              "type": "uint8"
            }
          ],
          "internalType": "struct BondData.Deal",
          "name": "_deal",
          "type": "tuple"
        }
      ],
      "name": "submitDeal",
      "outputs": [],
      "stateMutability": "nonpayable",
      "type": "function"
    },
    {
      "inputs": [
        {
          "internalType": "address",
          "name": "_swapContract",
          "type": "address"
        }
      ],
      "name": "swapIRS",
      "outputs": [],
      "stateMutability": "nonpayable",
      "type": "function"
    },
    {
      "inputs": [],
      "name": "toposManager",
      "outputs": [
        {
          "internalType": "address",
          "name": "",
          "type": "address"
        }
      ],
      "stateMutability": "view",
      "type": "function"
    },
    {
      "inputs": [
        {
          "internalType": "string",
          "name": "",
          "type": "string"
        }
      ],
      "name": "totalAmountInvestedForDeal",
      "outputs": [
        {
          "internalType": "uint256",
          "name": "",
          "type": "uint256"
        }
      ],
      "stateMutability": "view",
      "type": "function"
    },
    {
      "inputs": [
        {
          "internalType": "string",
          "name": "_dealID",
          "type": "string"
        }
      ],
      "name": "withdrawIssuerFund",
      "outputs": [],
      "stateMutability": "nonpayable",
      "type": "function"
    }
  ],
  "bytecode": "0x60806040523480156200001157600080fd5b506040516200423f3803806200423f8339810160408190526200003491620000b8565b600780546001600160a01b03199081166001600160a01b03988916179091556008805482169688169690961790955560098054861694871694909417909355600a8054851692861692909217909155600b80549093169316929092179055600d5562000130565b80516001600160a01b0381168114620000b357600080fd5b919050565b60008060008060008060c08789031215620000d257600080fd5b620000dd876200009b565b9550620000ed602088016200009b565b9450620000fd604088016200009b565b93506200010d606088016200009b565b92506200011d608088016200009b565b915060a087015190509295509295509295565b6140ff80620001406000396000f3fe608060405234801561001057600080fd5b50600436106102ad5760003560e01c806379a945691161017b578063ca53b391116100d8578063fb90e4411161008c578063fe3b85b711610071578063fe3b85b714610693578063feb45fa6146106cb578063ff6689d01461071657600080fd5b8063fb90e4411461064c578063fe0ab4b31461065f57600080fd5b8063d7c4029c116100bd578063d7c4029c14610604578063e707918014610617578063f3413c4f1461063757600080fd5b8063ca53b391146105de578063d0ebdbe7146105f157600080fd5b8063a0a57dac1161012f578063b83c7fba11610114578063b83c7fba14610561578063c3a2a93a14610574578063c8d7f62e146105be57600080fd5b8063a0a57dac14610545578063af9080f81461055857600080fd5b80637bafe3d0116101605780637bafe3d01461050c5780637f31ed731461051f5780639f0d8d2a1461053257600080fd5b806379a94569146104f15780637af4d652146104f957600080fd5b80633887bdcf116102295780635e43522e116101dd578063605936ea116101c2578063605936ea146104b857806368a2da51146104cb578063754f399a146104de57600080fd5b80635e43522e1461046c5780635ed7e2c11461047f57600080fd5b8063499fa18a1161020e578063499fa18a146103fc57806349f5d1d91461042e578063507251cb1461045957600080fd5b80633887bdcf146103d657806348f92ee8146103e957600080fd5b806319662d8e11610280578063281ddc8e11610265578063281ddc8e146103995780632f667910146103ae57806336f9c4da146103c157600080fd5b806319662d8e146103735780631b59122c1461038657600080fd5b8063041e9b89146102b2578063088674e0146103205780630df8bfda1461034b5780631882c19514610360575b600080fd5b6103006102c0366004612f4b565b60056020908152600092835260409092208151808301840180519281529084019290930191909120915280546001820154600290920154909160ff169083565b604080519384529115156020840152908201526060015b60405180910390f35b600954610333906001600160a01b031681565b6040516001600160a01b039091168152602001610317565b61035e610359366004612fe4565b61071e565b005b61035e61036e366004613030565b610dfe565b61035e610381366004613082565b610e42565b61035e6103943660046130f3565b611201565b6103a16113de565b6040516103179190613180565b6103336103bc3660046130f3565b6114b7565b6103c96114e8565b60405161031791906132ee565b61035e6103e4366004613343565b61170a565b61035e6103f7366004613367565b611794565b61040f61040a3660046133a9565b611954565b604080516001600160a01b039093168352602083019190915201610317565b61044161043c3660046133ee565b6119a9565b6040516103179c9b9a9998979695949392919061341a565b61035e6104673660046134ac565b611b52565b600a54610333906001600160a01b031681565b6104aa61048d3660046130f3565b805160208183018101805160048252928201919093012091525481565b604051908152602001610317565b6104aa6104c6366004613367565b611fa6565b61035e6104d936600461352e565b611fd2565b61035e6104ec366004613367565b612026565b600e546104aa565b600b54610333906001600160a01b031681565b61035e61051a366004613343565b6121da565b600754610333906001600160a01b031681565b61035e610540366004613547565b61225e565b6104416105533660046130f3565b612324565b6104aa600d5481565b61035e61056f366004613343565b61234a565b600754600854600954600a54600c54604080516001600160a01b0396871681529486166020860152928516928401929092528316606083015291909116608082015260a001610317565b6105d16105cc366004613367565b6123d4565b604051610317919061356c565b600854610333906001600160a01b031681565b61035e6105ff366004613343565b61246a565b61035e6106123660046135c4565b61253a565b61062a6106253660046130f3565b612988565b6040516103179190613610565b61063f612b8a565b6040516103179190613623565b600c54610333906001600160a01b031681565b61033361066d3660046130f3565b80516020818301810180516001825292820191909301209152546001600160a01b031681565b6103336106a136600461372b565b6001600160a01b039182166000908152600260209081526040808320938516835292905220541690565b61035e6106d9366004613759565b6001600160a01b03928316600090815260026020908152604080832094861683529390529190912080546001600160a01b03191691909216179055565b600d546104aa565b6009546040517fb9209e330000000000000000000000000000000000000000000000000000000081523360048201819052916001600160a01b03169063b9209e3390602401602060405180830381865afa158015610780573d6000803e3d6000fd5b505050506040513d601f19601f820116820180604052508101906107a49190613799565b6107f55760405162461bcd60e51b815260206004820152601460248201527f4143434f554e545f4e4f545f414150524f56454400000000000000000000000060448201526064015b60405180910390fd5b6002600085856040516108099291906137bb565b9081526040519081900360200190206009015460ff600160a81b909104166005811115610838576108386131e2565b1461085a578383604051632dc5942160e21b81526004016107ec9291906137f4565b6000848460405161086c9291906137bb565b908152602001604051809103902060040154600085856040516108909291906137bb565b908152602001604051809103902060040154836108ad919061381e565b6108b79190613835565b156108f1576040517f3728b83d000000000000000000000000000000000000000000000000000000008152600481018390526024016107ec565b811580159061094e57506000848460405161090d9291906137bb565b908152602001604051809103902060030154600485856040516109319291906137bb565b9081526020016040518091039020548361094b9190613857565b11155b61099a5760405162461bcd60e51b815260206004820152600660248201527f616d6f756e74000000000000000000000000000000000000000000000000000060448201526064016107ec565b81600485856040516109ad9291906137bb565b9081526020016040518091039020546109c69190613857565b600485856040516109d89291906137bb565b9081526040805160209281900383018120939093553360009081526005909252902090610a0890869086906137bb565b9081526040519081900360200190206001015460ff1615610b5d5733600090815260056020526040908190209051839190610a4690879087906137bb565b90815260405190819003602001902054610a609190613857565b60038585604051610a729291906137bb565b90815260408051918290036020908101832033600090815260059092529190209091610aa190889088906137bb565b90815260200160405180910390206002015481548110610ac357610ac361386a565b9060005260206000209060020201600101819055508160056000336001600160a01b03166001600160a01b031681526020019081526020016000208585604051610b0e9291906137bb565b90815260405190819003602001902054610b289190613857565b33600090815260056020526040908190209051610b4890879087906137bb565b90815260405190819003602001902055610c5e565b604051806060016040528083815260200160011515815260200160038686604051610b899291906137bb565b90815260408051602092819003830190205490925233600090815260059091528190209051610bbb90879087906137bb565b9081526040805160209281900383018120845181559284015160018401805460ff1916911515919091179055920151600290910155600390610c0090869086906137bb565b90815260408051602092819003830181208183019092523381528281018581528254600180820185556000948552949093209151600290930290910180546001600160a01b0319166001600160a01b03909316929092178255519101555b600c546040517f925b7cb60000000000000000000000000000000000000000000000000000000081526001600160a01b039091169063925b7cb690610cab90879087908790600401613880565b600060405180830381600087803b158015610cc557600080fd5b505af1158015610cd9573d6000803e3d6000fd5b5050505060008484604051610cef9291906137bb565b90815260405190819003602001902060090154600c546001600160a01b03918216916323b872dd91339116610d2c86670de0b6b3a764000061381e565b6040517fffffffff0000000000000000000000000000000000000000000000000000000060e086901b1681526001600160a01b03938416600482015292909116602483015260448201526064016020604051808303816000875af1158015610d98573d6000803e3d6000fd5b505050506040513d601f19601f82011682018060405250810190610dbc9190613799565b507f0bdaf52b4de514796607307fbbcf007ee6d59e81e1be436b67c5a567a2e8d121848433604051610df0939291906138a4565b60405180910390a150505050565b80600183604051610e0f91906138d1565b90815260405190819003602001902080546001600160a01b03929092166001600160a01b03199092169190911790555050565b6008546040517f877b9a670000000000000000000000000000000000000000000000000000000081523360048201526001600160a01b039091169063877b9a6790602401602060405180830381865afa158015610ea3573d6000803e3d6000fd5b505050506040513d601f19601f82011682018060405250810190610ec79190613799565b610f135760405162461bcd60e51b815260206004820152600a60248201527f6e6f74206973737565720000000000000000000000000000000000000000000060448201526064016107ec565b610f236060820160408301613343565b6001600160a01b0316336001600160a01b031614610f6d5760405162461bcd60e51b81526020600482015260076024820152666164647265737360c81b60448201526064016107ec565b6000808484604051610f809291906137bb565b9081526040519081900360200190206009015460ff600160a81b909104166005811115610faf57610faf6131e2565b14610fe55760405162461bcd60e51b815260206004820152600660248201526573746174757360d01b60448201526064016107ec565b8060008484604051610ff89291906137bb565b9081526040519081900360200190206110118282613b08565b9050506001600084846040516110289291906137bb565b908152604051908190036020019020600901805460ff60a81b1916600160a81b83600581111561105a5761105a6131e2565b021790555060105460405160009061107590869086906137bb565b90815260200160405180910390206008018190555060106000848460405161109e9291906137bb565b908152604051602091819003820190208254600181018455600093845291909220600a90910201806110d08382613c46565b506001818101906110e390840182613c46565b5060028281015490820180546001600160a01b039283166001600160a01b0319918216179091556003808501549084015560048085015490840155600580850154818501556006808601549085015560078086015490850155600880860154908501556009808601805491860180549290951693821684178555805474ffffffffffffffffffffffffffffffffffffffffff19909216909317600160a01b9182900460ff908116909202178085559254600160a81b90819004909116939260ff60a81b19169184908111156111ba576111ba6131e2565b021790555050507febc5645d06a6c6900ffbabb37c6fc84326bd870990f736254f05abb3287ffd418383836040516111f493929190613d7f565b60405180910390a1505050565b60008160405161121191906138d1565b90815260405190819003602001902060020154336001600160a01b03909116148061124657506007546001600160a01b031633145b61127c5760405162461bcd60e51b81526020600482015260076024820152666164647265737360c81b60448201526064016107ec565b60006001600160a01b031660008260405161129791906138d1565b908152604051908190036020019020600901546001600160a01b0316036113005760405162461bcd60e51b815260206004820152600560248201527f746f6b656e00000000000000000000000000000000000000000000000000000060448201526064016107ec565b600c546040516001600160a01b039091169063e04cd97f9083906000906113289083906138d1565b908152604051908190036020018120600201546001600160a01b0316906000906113539087906138d1565b908152604051908190036020018120600901547fffffffff0000000000000000000000000000000000000000000000000000000060e086901b1682526113a99392916001600160a01b0390911690600401613e91565b600060405180830381600087803b1580156113c357600080fd5b505af11580156113d7573d6000803e3d6000fd5b5050505050565b60606011805480602002602001604051908101604052809291908181526020016000905b828210156114ae57838290600052602060002001805461142190613934565b80601f016020809104026020016040519081016040528092919081815260200182805461144d90613934565b801561149a5780601f1061146f5761010080835404028352916020019161149a565b820191906000526020600020905b81548152906001019060200180831161147d57829003601f168201915b505050505081526020019060010190611402565b50505050905090565b60006001826040516114c991906138d1565b908152604051908190036020019020546001600160a01b031692915050565b60606010805480602002602001604051908101604052809291908181526020016000905b828210156114ae57838290600052602060002090600a02016040518061018001604052908160008201805461154090613934565b80601f016020809104026020016040519081016040528092919081815260200182805461156c90613934565b80156115b95780601f1061158e576101008083540402835291602001916115b9565b820191906000526020600020905b81548152906001019060200180831161159c57829003601f168201915b505050505081526020016001820180546115d290613934565b80601f01602080910402602001604051908101604052809291908181526020018280546115fe90613934565b801561164b5780601f106116205761010080835404028352916020019161164b565b820191906000526020600020905b81548152906001019060200180831161162e57829003601f168201915b505050918352505060028201546001600160a01b03908116602083015260038301546040830152600483015460608301526005808401546080840152600684015460a0840152600784015460c0840152600884015460e0840152600984015491821661010084015260ff600160a01b8304811661012085015261014090930192600160a81b909204909116908111156116e6576116e66131e2565b60058111156116f7576116f76131e2565b815250508152602001906001019061150c565b6007546001600160a01b031633146117595760405162461bcd60e51b815260206004820152601260248201527127a7262cafaa27a827a9afa6a0a720a3a2a960711b60448201526064016107ec565b806001600160a01b0316638119c0656040518163ffffffff1660e01b8152600401600060405180830381600087803b1580156113c357600080fd5b6007546001600160a01b031633146117e35760405162461bcd60e51b815260206004820152601260248201527127a7262cafaa27a827a9afa6a0a720a3a2a960711b60448201526064016107ec565b6001600083836040516117f79291906137bb565b9081526040519081900360200190206009015460ff600160a81b909104166005811115611826576118266131e2565b1461185c5760405162461bcd60e51b815260206004820152600660248201526573746174757360d01b60448201526064016107ec565b6002600083836040516118709291906137bb565b908152604051908190036020019020600901805460ff60a81b1916600160a81b8360058111156118a2576118a26131e2565b021790555060026010600084846040516118bd9291906137bb565b908152602001604051809103902060080154815481106118df576118df61386a565b600091825260209091206009600a9092020101805460ff60a81b1916600160a81b836005811115611912576119126131e2565b02179055507f039501081328ffe3eb02459ad6f6e90b69e23ba1422b574ee84c1f52b2fc031082826040516119489291906137f4565b60405180910390a15050565b8151602081840181018051600382529282019185019190912091905280548290811061197f57600080fd5b6000918252602090912060029091020180546001909101546001600160a01b039091169250905082565b600660205281600052604060002081815481106119c557600080fd5b90600052602060002090600a0201600091509150508060000180546119e990613934565b80601f0160208091040260200160405190810160405280929190818152602001828054611a1590613934565b8015611a625780601f10611a3757610100808354040283529160200191611a62565b820191906000526020600020905b815481529060010190602001808311611a4557829003601f168201915b505050505090806001018054611a7790613934565b80601f0160208091040260200160405190810160405280929190818152602001828054611aa390613934565b8015611af05780601f10611ac557610100808354040283529160200191611af0565b820191906000526020600020905b815481529060010190602001808311611ad357829003601f168201915b50505060028401546003850154600486015460058701546006880154600789015460088a01546009909a015498996001600160a01b0396871699959850939650919490939192919081169060ff600160a01b8204811691600160a81b9004168c565b6007546001600160a01b03163314611ba15760405162461bcd60e51b815260206004820152601260248201527127a7262cafaa27a827a9afa6a0a720a3a2a960711b60448201526064016107ec565b600260008585604051611bb59291906137bb565b9081526040519081900360200190206009015460ff600160a81b909104166005811115611be457611be46131e2565b14611c06578383604051632dc5942160e21b81526004016107ec9291906137f4565b8060018585604051611c199291906137bb565b908152602001604051809103902060006101000a8154816001600160a01b0302191690836001600160a01b03160217905550600460008585604051611c5f9291906137bb565b908152604051908190036020019020600901805460ff60a81b1916600160a81b836005811115611c9157611c916131e2565b02179055506004601060008686604051611cac9291906137bb565b90815260200160405180910390206008015481548110611cce57611cce61386a565b600091825260209091206009600a9092020101805460ff60a81b1916600160a81b836005811115611d0157611d016131e2565b021790555060066000808686604051611d1b9291906137bb565b9081526040805160209281900383019020600201546001600160a01b0316835290820192909252810160009081209151611d5890879087906137bb565b908152604051602091819003820190208254600181018455600093845291909220600a9091020180611d8a8382613c46565b50600181810190611d9d90840182613c46565b5060028281015490820180546001600160a01b039283166001600160a01b0319918216179091556003808501549084015560048085015490840155600580850154818501556006808601549085015560078086015490850155600880860154908501556009808601805491860180549290951693821684178555805474ffffffffffffffffffffffffffffffffffffffffff19909216909317600160a01b9182900460ff908116909202178085559254600160a81b90819004909116939260ff60a81b1916918490811115611e7457611e746131e2565b021790555050601180546001810182556000919091527f31ecc21a745e3968a04e9570e4425bc18fa8019c68028196b546d1669c200c68019050611eb98486836139b9565b506040517fd76805aa0000000000000000000000000000000000000000000000000000000081526001600160a01b0382169063d76805aa90611eff908590600401613ec4565b600060405180830381600087803b158015611f1957600080fd5b505af1158015611f2d573d6000803e3d6000fd5b5050600f8054600181018255600091909152849250600b027f8d1108e10bcb7c27dddfc02ed9d693a074039d026cf4ea4240b40f7d581ac802019050611f738282613fc8565b50507f44b55c2d9270546faf6ff2f0acac078011883b82782d9b08de2d3af4543c2b188484604051610df09291906137f4565b600060048383604051611fba9291906137bb565b90815260200160405180910390205490505b92915050565b6007546001600160a01b031633146120215760405162461bcd60e51b815260206004820152601260248201527127a7262cafaa27a827a9afa6a0a720a3a2a960711b60448201526064016107ec565b600e55565b6007546001600160a01b031633146120755760405162461bcd60e51b815260206004820152601260248201527127a7262cafaa27a827a9afa6a0a720a3a2a960711b60448201526064016107ec565b6001600083836040516120899291906137bb565b9081526040519081900360200190206009015460ff600160a81b9091041660058111156120b8576120b86131e2565b146120ee5760405162461bcd60e51b815260206004820152600660248201526573746174757360d01b60448201526064016107ec565b6003600083836040516121029291906137bb565b908152604051908190036020019020600901805460ff60a81b1916600160a81b836005811115612134576121346131e2565b0217905550600360106000848460405161214f9291906137bb565b908152602001604051809103902060080154815481106121715761217161386a565b600091825260209091206009600a9092020101805460ff60a81b1916600160a81b8360058111156121a4576121a46131e2565b02179055507f735ccdd611541d36c82a3622baab7f58b8a0f5be664555b0d9c95ddde16096d382826040516119489291906137f4565b6007546001600160a01b031633146122295760405162461bcd60e51b815260206004820152601260248201527127a7262cafaa27a827a9afa6a0a720a3a2a960711b60448201526064016107ec565b6001600160a01b03811661223c57600080fd5b600c80546001600160a01b0319166001600160a01b0392909216919091179055565b6007546001600160a01b031633146122ad5760405162461bcd60e51b815260206004820152601260248201527127a7262cafaa27a827a9afa6a0a720a3a2a960711b60448201526064016107ec565b6040517f68a2da51000000000000000000000000000000000000000000000000000000008152600481018390526001600160a01b038216906368a2da5190602401600060405180830381600087803b15801561230857600080fd5b505af115801561231c573d6000803e3d6000fd5b505050505050565b80516020818301810180516000825292820191909301209152805481906119e990613934565b6007546001600160a01b031633146123995760405162461bcd60e51b815260206004820152601260248201527127a7262cafaa27a827a9afa6a0a720a3a2a960711b60448201526064016107ec565b806001600160a01b031663442447ca6040518163ffffffff1660e01b8152600401600060405180830381600087803b1580156113c357600080fd5b6060600383836040516123e89291906137bb565b9081526020016040518091039020805480602002602001604051908101604052809291908181526020016000905b8282101561245e576000848152602090819020604080518082019091526002850290910180546001600160a01b03168252600190810154828401529083529092019101612416565b50505050905092915050565b6007546001600160a01b031633146124b95760405162461bcd60e51b815260206004820152601260248201527127a7262cafaa27a827a9afa6a0a720a3a2a960711b60448201526064016107ec565b600854604080517fcfde18900000000000000000000000000000000000000000000000000000000081526004810191909152600760448201527f4d414e414745520000000000000000000000000000000000000000000000000060648201526001600160a01b0383811660248301529091169063cfde1890906084016113a9565b6007546001600160a01b031633146125895760405162461bcd60e51b815260206004820152601260248201527127a7262cafaa27a827a9afa6a0a720a3a2a960711b60448201526064016107ec565b60046000848460405161259d9291906137bb565b9081526040519081900360200190206009015460ff600160a81b9091041660058111156125cc576125cc6131e2565b146125ee578282604051632dc5942160e21b81526004016107ec9291906137f4565b6005600084846040516126029291906137bb565b908152604051908190036020019020600901805460ff60a81b1916600160a81b836005811115612634576126346131e2565b0217905550600560106000858560405161264f9291906137bb565b908152602001604051809103902060080154815481106126715761267161386a565b600091825260209091206009600a9092020101805460ff60a81b1916600160a81b8360058111156126a4576126a46131e2565b02179055506005600660008086866040516126c09291906137bb565b9081526040805160209281900383019020600201546001600160a01b03168352908201929092528101600090812091516126fd90879087906137bb565b9081526020016040518091039020600801548154811061271f5761271f61386a565b600091825260209091206009600a9092020101805460ff60a81b1916600160a81b836005811115612752576127526131e2565b0217905550806001600160a01b031663be040fb06040518163ffffffff1660e01b8152600401600060405180830381600087803b15801561279257600080fd5b505af11580156127a6573d6000803e3d6000fd5b5050505060005b600384846040516127bf9291906137bb565b90815260405190819003602001902054811015612956576000600385856040516127ea9291906137bb565b908152602001604051809103902082815481106128095761280961386a565b90600052602060002090600202016001015490506000600386866040516128319291906137bb565b908152602001604051809103902083815481106128505761285061386a565b60009182526020909120600290910201546001600160a01b03169050811561294157600086866040516128849291906137bb565b908152604051908190036020019020600901546001600160a01b031663a9059cbb826128b885670de0b6b3a764000061381e565b6040517fffffffff0000000000000000000000000000000000000000000000000000000060e085901b1681526001600160a01b03909216600483015260248201526044016020604051808303816000875af115801561291b573d6000803e3d6000fd5b505050506040513d601f19601f8201168201806040525081019061293f9190613799565b505b5050808061294e906140b0565b9150506127ad565b507fdfdf42ff0d0eb3e6ec5b40d8cf21fb2f7102b67e5e2d56ab36e817f807213c5b83836040516111f49291906137f4565b612990612dfa565b6000826040516129a091906138d1565b9081526020016040518091039020604051806101800160405290816000820180546129ca90613934565b80601f01602080910402602001604051908101604052809291908181526020018280546129f690613934565b8015612a435780601f10612a1857610100808354040283529160200191612a43565b820191906000526020600020905b815481529060010190602001808311612a2657829003601f168201915b50505050508152602001600182018054612a5c90613934565b80601f0160208091040260200160405190810160405280929190818152602001828054612a8890613934565b8015612ad55780601f10612aaa57610100808354040283529160200191612ad5565b820191906000526020600020905b815481529060010190602001808311612ab857829003601f168201915b505050918352505060028201546001600160a01b03908116602083015260038301546040830152600483015460608301526005808401546080840152600684015460a0840152600784015460c0840152600884015460e0840152600984015491821661010084015260ff600160a01b8304811661012085015261014090930192600160a81b90920490911690811115612b7057612b706131e2565b6005811115612b8157612b816131e2565b90525092915050565b6060600f805480602002602001604051908101604052809291908181526020016000905b828210156114ae57838290600052602060002090600b020160405180610160016040529081600082018054612be290613934565b80601f0160208091040260200160405190810160405280929190818152602001828054612c0e90613934565b8015612c5b5780601f10612c3057610100808354040283529160200191612c5b565b820191906000526020600020905b815481529060010190602001808311612c3e57829003601f168201915b50505050508152602001600182018054612c7490613934565b80601f0160208091040260200160405190810160405280929190818152602001828054612ca090613934565b8015612ced5780601f10612cc257610100808354040283529160200191612ced565b820191906000526020600020905b815481529060010190602001808311612cd057829003601f168201915b50505050508152602001600282018054612d0690613934565b80601f0160208091040260200160405190810160405280929190818152602001828054612d3290613934565b8015612d7f5780601f10612d5457610100808354040283529160200191612d7f565b820191906000526020600020905b815481529060010190602001808311612d6257829003601f168201915b505050918352505060038201546001600160a01b0316602080830191909152600483015460408301526005830154606083015260068301546080830152600783015460ff1660a0830152600883015460c0830152600983015460e0830152600a90920154610100909101529082526001929092019101612bae565b604051806101800160405280606081526020016060815260200160006001600160a01b0316815260200160008152602001600081526020016000815260200160008152602001600081526020016000815260200160006001600160a01b03168152602001600060ff16815260200160006005811115612e7b57612e7b6131e2565b905290565b6001600160a01b0381168114612e9557600080fd5b50565b8035612ea381612e80565b919050565b634e487b7160e01b600052604160045260246000fd5b600082601f830112612ecf57600080fd5b813567ffffffffffffffff80821115612eea57612eea612ea8565b604051601f8301601f19908116603f01168101908282118183101715612f1257612f12612ea8565b81604052838152866020858801011115612f2b57600080fd5b836020870160208301376000602085830101528094505050505092915050565b60008060408385031215612f5e57600080fd5b8235612f6981612e80565b9150602083013567ffffffffffffffff811115612f8557600080fd5b612f9185828601612ebe565b9150509250929050565b60008083601f840112612fad57600080fd5b50813567ffffffffffffffff811115612fc557600080fd5b602083019150836020828501011115612fdd57600080fd5b9250929050565b600080600060408486031215612ff957600080fd5b833567ffffffffffffffff81111561301057600080fd5b61301c86828701612f9b565b909790965060209590950135949350505050565b6000806040838503121561304357600080fd5b823567ffffffffffffffff81111561305a57600080fd5b61306685828601612ebe565b925050602083013561307781612e80565b809150509250929050565b60008060006040848603121561309757600080fd5b833567ffffffffffffffff808211156130af57600080fd5b6130bb87838801612f9b565b909550935060208601359150808211156130d457600080fd5b50840161018081870312156130e857600080fd5b809150509250925092565b60006020828403121561310557600080fd5b813567ffffffffffffffff81111561311c57600080fd5b61312884828501612ebe565b949350505050565b60005b8381101561314b578181015183820152602001613133565b50506000910152565b6000815180845261316c816020860160208601613130565b601f01601f19169290920160200192915050565b6000602080830181845280855180835260408601915060408160051b870101925083870160005b828110156131d557603f198886030184526131c3858351613154565b945092850192908501906001016131a7565b5092979650505050505050565b634e487b7160e01b600052602160045260246000fd5b6006811061321657634e487b7160e01b600052602160045260246000fd5b9052565b6000610180825181855261323082860182613154565b9150506020830151848203602086015261324a8282613154565b915050604083015161326760408601826001600160a01b03169052565b50606083015160608501526080830151608085015260a083015160a085015260c083015160c085015260e083015160e0850152610100808401518186015250610120808401516132c1828701826001600160a01b03169052565b50506101408381015160ff1690850152610160808401516132e4828701826131f8565b5090949350505050565b6000602080830181845280855180835260408601915060408160051b870101925083870160005b828110156131d557603f1988860301845261333185835161321a565b94509285019290850190600101613315565b60006020828403121561335557600080fd5b813561336081612e80565b9392505050565b6000806020838503121561337a57600080fd5b823567ffffffffffffffff81111561339157600080fd5b61339d85828601612f9b565b90969095509350505050565b600080604083850312156133bc57600080fd5b823567ffffffffffffffff8111156133d357600080fd5b6133df85828601612ebe565b95602094909401359450505050565b6000806040838503121561340157600080fd5b823561340c81612e80565b946020939093013593505050565b6101808152600061342f61018083018f613154565b8281036020840152613441818f613154565b9150506001600160a01b03808d1660408401528b60608401528a60808401528960a08401528860c08401528760e0840152866101008401528086166101208401525060ff841661014083015261349b6101608301846131f8565b9d9c50505050505050505050505050565b600080600080606085870312156134c257600080fd5b843567ffffffffffffffff808211156134da57600080fd5b6134e688838901612f9b565b909650945060208701359150808211156134ff57600080fd5b508501610160818803121561351357600080fd5b9150604085013561352381612e80565b939692955090935050565b60006020828403121561354057600080fd5b5035919050565b6000806040838503121561355a57600080fd5b82359150602083013561307781612e80565b602080825282518282018190526000919060409081850190868401855b828110156135b757815180516001600160a01b03168552860151868501529284019290850190600101613589565b5091979650505050505050565b6000806000604084860312156135d957600080fd5b833567ffffffffffffffff8111156135f057600080fd5b6135fc86828701612f9b565b90945092505060208401356130e881612e80565b602081526000613360602083018461321a565b60006020808301818452808551808352604092508286019150828160051b87010184880160005b8381101561371d57603f198984030185528151610160815181865261367182870182613154565b915050888201518582038a8701526136898282613154565b91505087820151858203898701526136a18282613154565b9150506060808301516136be828801826001600160a01b03169052565b50506080828101519086015260a0808301519086015260c0808301519086015260e08083015160ff169086015261010080830151908601526101208083015190860152610140918201519190940152938601939086019060010161364a565b509098975050505050505050565b6000806040838503121561373e57600080fd5b823561374981612e80565b9150602083013561307781612e80565b60008060006060848603121561376e57600080fd5b833561377981612e80565b9250602084013561378981612e80565b915060408401356130e881612e80565b6000602082840312156137ab57600080fd5b8151801515811461336057600080fd5b8183823760009101908152919050565b81835281816020850137506000828201602090810191909152601f909101601f19169091010190565b6020815260006131286020830184866137cb565b634e487b7160e01b600052601160045260246000fd5b8082028115828204841417611fcc57611fcc613808565b60008261385257634e487b7160e01b600052601260045260246000fd5b500690565b80820180821115611fcc57611fcc613808565b634e487b7160e01b600052603260045260246000fd5b6040815260006138946040830185876137cb565b9050826020830152949350505050565b6040815260006138b86040830185876137cb565b90506001600160a01b0383166020830152949350505050565b600082516138e3818460208701613130565b9190910192915050565b6000808335601e1984360301811261390457600080fd5b83018035915067ffffffffffffffff82111561391f57600080fd5b602001915036819003821315612fdd57600080fd5b600181811c9082168061394857607f821691505b60208210810361396857634e487b7160e01b600052602260045260246000fd5b50919050565b601f8211156139b457600081815260208120601f850160051c810160208610156139955750805b601f850160051c820191505b8181101561231c578281556001016139a1565b505050565b67ffffffffffffffff8311156139d1576139d1612ea8565b6139e5836139df8354613934565b8361396e565b6000601f841160018114613a195760008515613a015750838201355b600019600387901b1c1916600186901b1783556113d7565b600083815260209020601f19861690835b82811015613a4a5786850135825560209485019460019092019101613a2a565b5086821015613a675760001960f88860031b161c19848701351681555b505060018560011b0183555050505050565b60008135611fcc81612e80565b60ff81168114612e9557600080fd5b60008135611fcc81613a86565b60068110612e9557600080fd5b60008135611fcc81613aa2565b60068210613ada57634e487b7160e01b600052602160045260246000fd5b805475ff0000000000000000000000000000000000000000008360a81b1660ff60a81b198216178255505050565b613b1282836138ed565b613b1d8183856139b9565b5050613b2c60208301836138ed565b613b3a8183600186016139b9565b5050613b6c613b4b60408401613a79565b600283016001600160a01b0382166001600160a01b03198254161781555050565b606082013560038201556080820135600482015560a0820135600582015560c0820135600682015560e08201356007820155610100820135600882015560098101613bda613bbd6101208501613a79565b82546001600160a01b0319166001600160a01b0391909116178255565b613c30613bea6101408501613a95565b82547fffffffffffffffffffffff00ffffffffffffffffffffffffffffffffffffffff1660a09190911b74ff000000000000000000000000000000000000000016178255565b6139b4613c406101608501613aaf565b82613abc565b818103613c51575050565b613c5b8254613934565b67ffffffffffffffff811115613c7357613c73612ea8565b613c8781613c818454613934565b8461396e565b6000601f821160018114613cbb5760008315613ca35750848201545b600019600385901b1c1916600184901b1784556113d7565b600085815260209020601f19841690600086815260209020845b83811015613cf55782860154825560019586019590910190602001613cd5565b5085831015613d135781850154600019600388901b60f8161c191681555b5050505050600190811b01905550565b6000808335601e19843603018112613d3a57600080fd5b830160208101925035905067ffffffffffffffff811115613d5a57600080fd5b803603821315612fdd57600080fd5b8035612ea381613a86565b8035612ea381613aa2565b604081526000613d936040830185876137cb565b8281036020840152610180613da88586613d23565b828452613db883850182846137cb565b92505050613dc96020860186613d23565b8383036020850152613ddc8382846137cb565b92505050613dec60408601612e98565b6001600160a01b038116604084015250606085013560608301526080850135608083015260a085013560a083015260c085013560c083015260e085013560e0830152610100808601358184015250610120613e48818701612e98565b6001600160a01b031690830152610140613e63868201613d69565b60ff1690830152610160613e78868201613d74565b613e84828501826131f8565b5090979650505050505050565b606081526000613ea46060830186613154565b6001600160a01b0394851660208401529290931660409091015292915050565b602081526000613ed48384613d23565b610160806020860152613eec610180860183856137cb565b9250613efb6020870187613d23565b9250601f1980878603016040880152613f158585846137cb565b9450613f246040890189613d23565b945091508087860301606088015250613f3e8484836137cb565b935050613f4d60608701612e98565b6001600160a01b03811660808701529150608086013560a086015260a086013560c086015260c086013560e0860152613f8860e08701613d69565b9150610100613f9b8187018460ff169052565b86013561012086810191909152860135610140808701919091529095013594909301939093525090919050565b613fd282836138ed565b613fdd8183856139b9565b5050613fec60208301836138ed565b613ffa8183600186016139b9565b505061400960408301836138ed565b6140178183600286016139b9565b505061404961402860608401613a79565b600383016001600160a01b0382166001600160a01b03198254161781555050565b6080820135600482015560a0820135600582015560c0820135600682015561408b61407660e08401613a95565b6007830160ff821660ff198254161781555050565b61010082013560088201556101208201356009820155610140820135600a8201555050565b6000600182016140c2576140c2613808565b506001019056fea2646970667358221220a8690c572aa273e90424f4d517ecde851b6d9344606e0abb9b73cf827410c91664736f6c63430008130033",
  "linkReferences": {},
  "deployedLinkReferences": {}
}