{
  "_format": "hh-sol-artifact-1",
  "contractName": "ToposBank",
  "sourceName": "contracts/Topos/Bank/ToposBank.sol",
  "abi": [
    {
      "inputs": [
        {
          "internalType": "address",
          "name": "_toposManager",
          "type": "address"
        },
        {
          "internalType": "address",
          "name": "_rolesContract",
          "type": "address"
        },
        {
          "internalType": "address",
          "name": "_identityRegistryContract",
          "type": "address"
        },
        {
          "internalType": "uint256",
          "name": "_dealFees",
          "type": "uint256"
        }
      ],
      "stateMutability": "nonpayable",
      "type": "constructor"
    },
    {
      "inputs": [
        {
          "internalType": "string",
          "name": "dealID",
          "type": "string"
        }
      ],
      "name": "InvalidDealStatus",
      "type": "error"
    },
    {
      "anonymous": false,
      "inputs": [
        {
          "indexed": false,
          "internalType": "string",
          "name": "_dealID",
          "type": "string"
        }
      ],
      "name": "BondIssue",
      "type": "event"
    },
    {
      "anonymous": false,
      "inputs": [
        {
          "indexed": false,
          "internalType": "string",
          "name": "_dealID",
          "type": "string"
        }
      ],
      "name": "BondRedeem",
      "type": "event"
    },
    {
      "anonymous": false,
      "inputs": [
        {
          "indexed": false,
          "internalType": "string",
          "name": "dealID",
          "type": "string"
        }
      ],
      "name": "DealAPproved",
      "type": "event"
    },
    {
      "anonymous": false,
      "inputs": [
        {
          "indexed": false,
          "internalType": "string",
          "name": "dealID",
          "type": "string"
        }
      ],
      "name": "DealARejected",
      "type": "event"
    },
    {
      "anonymous": false,
      "inputs": [
        {
          "indexed": false,
          "internalType": "string",
          "name": "dealID",
          "type": "string"
        },
        {
          "components": [
            {
              "internalType": "string",
              "name": "dealID",
              "type": "string"
            },
            {
              "internalType": "string",
              "name": "prospectusURI",
              "type": "string"
            },
            {
              "internalType": "address",
              "name": "issuerAddress",
              "type": "address"
            },
            {
              "internalType": "uint256",
              "name": "debtAmount",
              "type": "uint256"
            },
            {
              "internalType": "uint256",
              "name": "couponRate",
              "type": "uint256"
            },
            {
              "internalType": "uint256",
              "name": "couponFrequency",
              "type": "uint256"
            },
            {
              "internalType": "uint256",
              "name": "maturityDate",
              "type": "uint256"
            },
            {
              "internalType": "uint256",
              "name": "index",
              "type": "uint256"
            },
            {
              "internalType": "address",
              "name": "currency",
              "type": "address"
            },
            {
              "internalType": "uint8",
              "name": "couponType",
              "type": "uint8"
            },
            {
              "internalType": "enum BondData.DealStatus",
              "name": "status",
              "type": "uint8"
            }
          ],
          "indexed": false,
          "internalType": "struct BondData.Deal",
          "name": "deal",
          "type": "tuple"
        }
      ],
      "name": "DealSubmitted",
      "type": "event"
    },
    {
      "anonymous": false,
      "inputs": [
        {
          "indexed": false,
          "internalType": "string",
          "name": "dealID",
          "type": "string"
        },
        {
          "indexed": false,
          "internalType": "address",
          "name": "investor",
          "type": "address"
        }
      ],
      "name": "RegisterForDeal",
      "type": "event"
    },
    {
      "inputs": [
        {
          "internalType": "address",
          "name": "",
          "type": "address"
        },
        {
          "internalType": "string",
          "name": "",
          "type": "string"
        }
      ],
      "name": "amountInvested",
      "outputs": [
        {
          "internalType": "uint256",
          "name": "amount",
          "type": "uint256"
        },
        {
          "internalType": "bool",
          "name": "hasInvested",
          "type": "bool"
        },
        {
          "internalType": "uint256",
          "name": "index",
          "type": "uint256"
        }
      ],
      "stateMutability": "view",
      "type": "function"
    },
    {
      "inputs": [
        {
          "internalType": "string",
          "name": "_dealID",
          "type": "string"
        }
      ],
      "name": "approveDeal",
      "outputs": [],
      "stateMutability": "nonpayable",
      "type": "function"
    },
    {
      "inputs": [
        {
          "internalType": "string",
          "name": "",
          "type": "string"
        }
      ],
      "name": "dealBondContracts",
      "outputs": [
        {
          "internalType": "address",
          "name": "",
          "type": "address"
        }
      ],
      "stateMutability": "view",
      "type": "function"
    },
    {
      "inputs": [],
      "name": "dealFees",
      "outputs": [
        {
          "internalType": "uint256",
          "name": "",
          "type": "uint256"
        }
      ],
      "stateMutability": "view",
      "type": "function"
    },
    {
      "inputs": [
        {
          "internalType": "string",
          "name": "",
          "type": "string"
        },
        {
          "internalType": "uint256",
          "name": "",
          "type": "uint256"
        }
      ],
      "name": "dealInvestment",
      "outputs": [
        {
          "internalType": "address",
          "name": "investor",
          "type": "address"
        },
        {
          "internalType": "uint256",
          "name": "amount",
          "type": "uint256"
        }
      ],
      "stateMutability": "view",
      "type": "function"
    },
    {
      "inputs": [
        {
          "internalType": "string",
          "name": "",
          "type": "string"
        }
      ],
      "name": "deals",
      "outputs": [
        {
          "internalType": "string",
          "name": "dealID",
          "type": "string"
        },
        {
          "internalType": "string",
          "name": "prospectusURI",
          "type": "string"
        },
        {
          "internalType": "address",
          "name": "issuerAddress",
          "type": "address"
        },
        {
          "internalType": "uint256",
          "name": "debtAmount",
          "type": "uint256"
        },
        {
          "internalType": "uint256",
          "name": "couponRate",
          "type": "uint256"
        },
        {
          "internalType": "uint256",
          "name": "couponFrequency",
          "type": "uint256"
        },
        {
          "internalType": "uint256",
          "name": "maturityDate",
          "type": "uint256"
        },
        {
          "internalType": "uint256",
          "name": "index",
          "type": "uint256"
        },
        {
          "internalType": "address",
          "name": "currency",
          "type": "address"
        },
        {
          "internalType": "uint8",
          "name": "couponType",
          "type": "uint8"
        },
        {
          "internalType": "enum BondData.DealStatus",
          "name": "status",
          "type": "uint8"
        }
      ],
      "stateMutability": "view",
      "type": "function"
    },
    {
      "inputs": [],
      "name": "getContracts",
      "outputs": [
        {
          "internalType": "address",
          "name": "manager",
          "type": "address"
        },
        {
          "internalType": "address",
          "name": "roles",
          "type": "address"
        },
        {
          "internalType": "address",
          "name": "identityRegistry",
          "type": "address"
        },
        {
          "internalType": "address",
          "name": "issuerFund",
          "type": "address"
        }
      ],
      "stateMutability": "view",
      "type": "function"
    },
    {
      "inputs": [],
      "name": "getDealFees",
      "outputs": [
        {
          "internalType": "uint256",
          "name": "",
          "type": "uint256"
        }
      ],
      "stateMutability": "view",
      "type": "function"
    },
    {
      "inputs": [
        {
          "internalType": "string",
          "name": "_dealID",
          "type": "string"
        }
      ],
      "name": "getDealInvestment",
      "outputs": [
        {
          "components": [
            {
              "internalType": "address",
              "name": "investor",
              "type": "address"
            },
            {
              "internalType": "uint256",
              "name": "amount",
              "type": "uint256"
            }
          ],
          "internalType": "struct BondData.DealInvestment[]",
          "name": "",
          "type": "tuple[]"
        }
      ],
      "stateMutability": "view",
      "type": "function"
    },
    {
      "inputs": [
        {
          "internalType": "string",
          "name": "_dealID",
          "type": "string"
        }
      ],
      "name": "getTotalAmounInvested",
      "outputs": [
        {
          "internalType": "uint256",
          "name": "",
          "type": "uint256"
        }
      ],
      "stateMutability": "view",
      "type": "function"
    },
    {
      "inputs": [],
      "name": "identityRegistryContract",
      "outputs": [
        {
          "internalType": "address",
          "name": "",
          "type": "address"
        }
      ],
      "stateMutability": "view",
      "type": "function"
    },
    {
      "inputs": [
        {
          "internalType": "string",
          "name": "_dealID",
          "type": "string"
        },
        {
          "components": [
            {
              "internalType": "string",
              "name": "isin",
              "type": "string"
            },
            {
              "internalType": "string",
              "name": "name",
              "type": "string"
            },
            {
              "internalType": "string",
              "name": "symbol",
              "type": "string"
            },
            {
              "internalType": "address",
              "name": "currency",
              "type": "address"
            },
            {
              "internalType": "uint256",
              "name": "denomination",
              "type": "uint256"
            },
            {
              "internalType": "uint256",
              "name": "issueVolume",
              "type": "uint256"
            },
            {
              "internalType": "uint256",
              "name": "couponRate",
              "type": "uint256"
            },
            {
              "internalType": "uint8",
              "name": "couponType",
              "type": "uint8"
            },
            {
              "internalType": "uint256",
              "name": "couponFrequency",
              "type": "uint256"
            },
            {
              "internalType": "uint256",
              "name": "issueDate",
              "type": "uint256"
            },
            {
              "internalType": "uint256",
              "name": "maturityDate",
              "type": "uint256"
            }
          ],
          "internalType": "struct BondData.Bond",
          "name": "_bond",
          "type": "tuple"
        },
        {
          "internalType": "address",
          "name": "_bondContract",
          "type": "address"
        }
      ],
      "name": "issue",
      "outputs": [],
      "stateMutability": "nonpayable",
      "type": "function"
    },
    {
      "inputs": [
        {
          "internalType": "address",
          "name": "",
          "type": "address"
        },
        {
          "internalType": "uint256",
          "name": "",
          "type": "uint256"
        }
      ],
      "name": "issuerDeals",
      "outputs": [
        {
          "internalType": "string",
          "name": "dealID",
          "type": "string"
        },
        {
          "internalType": "string",
          "name": "prospectusURI",
          "type": "string"
        },
        {
          "internalType": "address",
          "name": "issuerAddress",
          "type": "address"
        },
        {
          "internalType": "uint256",
          "name": "debtAmount",
          "type": "uint256"
        },
        {
          "internalType": "uint256",
          "name": "couponRate",
          "type": "uint256"
        },
        {
          "internalType": "uint256",
          "name": "couponFrequency",
          "type": "uint256"
        },
        {
          "internalType": "uint256",
          "name": "maturityDate",
          "type": "uint256"
        },
        {
          "internalType": "uint256",
          "name": "index",
          "type": "uint256"
        },
        {
          "internalType": "address",
          "name": "currency",
          "type": "address"
        },
        {
          "internalType": "uint8",
          "name": "couponType",
          "type": "uint8"
        },
        {
          "internalType": "enum BondData.DealStatus",
          "name": "status",
          "type": "uint8"
        }
      ],
      "stateMutability": "view",
      "type": "function"
    },
    {
      "inputs": [],
      "name": "issuersFundContract",
      "outputs": [
        {
          "internalType": "address",
          "name": "",
          "type": "address"
        }
      ],
      "stateMutability": "view",
      "type": "function"
    },
    {
      "inputs": [
        {
          "internalType": "string",
          "name": "_dealID",
          "type": "string"
        },
        {
          "internalType": "address",
          "name": "_bondContract",
          "type": "address"
        }
      ],
      "name": "redeem",
      "outputs": [],
      "stateMutability": "nonpayable",
      "type": "function"
    },
    {
      "inputs": [
        {
          "internalType": "string",
          "name": "_dealID",
          "type": "string"
        },
        {
          "internalType": "uint256",
          "name": "_amount",
          "type": "uint256"
        }
      ],
      "name": "registerForDeal",
      "outputs": [],
      "stateMutability": "nonpayable",
      "type": "function"
    },
    {
      "inputs": [
        {
          "internalType": "string",
          "name": "_dealID",
          "type": "string"
        }
      ],
      "name": "rejectDeal",
      "outputs": [],
      "stateMutability": "nonpayable",
      "type": "function"
    },
    {
      "inputs": [],
      "name": "rolesContract",
      "outputs": [
        {
          "internalType": "address",
          "name": "",
          "type": "address"
        }
      ],
      "stateMutability": "view",
      "type": "function"
    },
    {
      "inputs": [
        {
          "internalType": "string",
          "name": "_dealID",
          "type": "string"
        },
        {
          "internalType": "address",
          "name": "_bondContractAddress",
          "type": "address"
        }
      ],
      "name": "setBondContractAddress",
      "outputs": [],
      "stateMutability": "nonpayable",
      "type": "function"
    },
    {
      "inputs": [
        {
          "internalType": "address",
          "name": "_issuerFundContract",
          "type": "address"
        }
      ],
      "name": "setIssuerFundContract",
      "outputs": [],
      "stateMutability": "nonpayable",
      "type": "function"
    },
    {
      "inputs": [
        {
          "internalType": "address",
          "name": "_toposManager",
          "type": "address"
        }
      ],
      "name": "setManager",
      "outputs": [],
      "stateMutability": "nonpayable",
      "type": "function"
    },
    {
      "inputs": [
        {
          "internalType": "string",
          "name": "_dealID",
          "type": "string"
        },
        {
          "components": [
            {
              "internalType": "string",
              "name": "dealID",
              "type": "string"
            },
            {
              "internalType": "string",
              "name": "prospectusURI",
              "type": "string"
            },
            {
              "internalType": "address",
              "name": "issuerAddress",
              "type": "address"
            },
            {
              "internalType": "uint256",
              "name": "debtAmount",
              "type": "uint256"
            },
            {
              "internalType": "uint256",
              "name": "couponRate",
              "type": "uint256"
            },
            {
              "internalType": "uint256",
              "name": "couponFrequency",
              "type": "uint256"
            },
            {
              "internalType": "uint256",
              "name": "maturityDate",
              "type": "uint256"
            },
            {
              "internalType": "uint256",
              "name": "index",
              "type": "uint256"
            },
            {
              "internalType": "address",
              "name": "currency",
              "type": "address"
            },
            {
              "internalType": "uint8",
              "name": "couponType",
              "type": "uint8"
            },
            {
              "internalType": "enum BondData.DealStatus",
              "name": "status",
              "type": "uint8"
            }
          ],
          "internalType": "struct BondData.Deal",
          "name": "_deal",
          "type": "tuple"
        }
      ],
      "name": "submitDeal",
      "outputs": [],
      "stateMutability": "nonpayable",
      "type": "function"
    },
    {
      "inputs": [],
      "name": "toposManager",
      "outputs": [
        {
          "internalType": "address",
          "name": "",
          "type": "address"
        }
      ],
      "stateMutability": "view",
      "type": "function"
    },
    {
      "inputs": [
        {
          "internalType": "string",
          "name": "",
          "type": "string"
        }
      ],
      "name": "totalAmountInvestedForDeal",
      "outputs": [
        {
          "internalType": "uint256",
          "name": "",
          "type": "uint256"
        }
      ],
      "stateMutability": "view",
      "type": "function"
    },
    {
      "inputs": [
        {
          "internalType": "string",
          "name": "_dealID",
          "type": "string"
        }
      ],
      "name": "withdrawIssuerFund",
      "outputs": [],
      "stateMutability": "nonpayable",
      "type": "function"
    }
  ],
  "bytecode": "0x60806040523480156200001157600080fd5b5060405162004eef38038062004eef8339818101604052810190620000379190620001b0565b83600660006101000a81548173ffffffffffffffffffffffffffffffffffffffff021916908373ffffffffffffffffffffffffffffffffffffffff16021790555082600760006101000a81548173ffffffffffffffffffffffffffffffffffffffff021916908373ffffffffffffffffffffffffffffffffffffffff16021790555081600860006101000a81548173ffffffffffffffffffffffffffffffffffffffff021916908373ffffffffffffffffffffffffffffffffffffffff16021790555080600a819055505050505062000222565b600080fd5b600073ffffffffffffffffffffffffffffffffffffffff82169050919050565b60006200013d8262000110565b9050919050565b6200014f8162000130565b81146200015b57600080fd5b50565b6000815190506200016f8162000144565b92915050565b6000819050919050565b6200018a8162000175565b81146200019657600080fd5b50565b600081519050620001aa816200017f565b92915050565b60008060008060808587031215620001cd57620001cc6200010b565b5b6000620001dd878288016200015e565b9450506020620001f0878288016200015e565b935050604062000203878288016200015e565b9250506060620002168782880162000199565b91505092959194509250565b614cbd80620002326000396000f3fe608060405234801561001057600080fd5b50600436106101735760003560e01c8063754f399a116100de578063c8d7f62e11610097578063d7c4029c11610071578063d7c4029c14610474578063fb90e44114610490578063fe0ab4b3146104ae578063ff6689d0146104de57610173565b8063c8d7f62e1461040a578063ca53b3911461043a578063d0ebdbe71461045857610173565b8063754f399a1461033b5780637bafe3d0146103575780637f31ed7314610373578063a0a57dac14610391578063af9080f8146103cb578063c3a2a93a146103e957610173565b806348f92ee81161013057806348f92ee814610238578063499fa18a1461025457806349f5d1d914610285578063507251cb146102bf5780635ed7e2c1146102db578063605936ea1461030b57610173565b8063041e9b8914610178578063088674e0146101aa5780630df8bfda146101c85780631882c195146101e45780631b59122c1461020057806323c8d7061461021c575b600080fd5b610192600480360381019061018d9190612de4565b6104fc565b6040516101a193929190612e74565b60405180910390f35b6101b2610556565b6040516101bf9190612eba565b60405180910390f35b6101e260048036038101906101dd9190612f61565b61057c565b005b6101fe60048036038101906101f99190612fc1565b610da4565b005b61021a6004803603810190610215919061301d565b610e05565b005b6102366004803603810190610231919061308b565b6110d2565b005b610252600480360381019061024d9190613107565b61158f565b005b61026e60048036038101906102699190613154565b6117b0565b60405161027c9291906131b0565b60405180910390f35b61029f600480360381019061029a91906131d9565b611827565b6040516102b69b9a9998979695949392919061332b565b60405180910390f35b6102d960048036038101906102d49190613404565b611a08565b005b6102f560048036038101906102f0919061301d565b611fa1565b6040516103029190613494565b60405180910390f35b61032560048036038101906103209190613107565b611fcf565b6040516103329190613494565b60405180910390f35b61035560048036038101906103509190613107565b611ffa565b005b610371600480360381019061036c91906134af565b61221b565b005b61037b61235e565b6040516103889190612eba565b60405180910390f35b6103ab60048036038101906103a6919061301d565b612384565b6040516103c29b9a9998979695949392919061332b565b60405180910390f35b6103d361255e565b6040516103e09190613494565b60405180910390f35b6103f1612564565b60405161040194939291906134dc565b60405180910390f35b610424600480360381019061041f9190613107565b61260c565b604051610431919061361d565b60405180910390f35b6104426126ec565b60405161044f9190612eba565b60405180910390f35b610472600480360381019061046d91906134af565b612712565b005b61048e6004803603810190610489919061363f565b612832565b005b610498612bb3565b6040516104a59190612eba565b60405180910390f35b6104c860048036038101906104c3919061301d565b612bd9565b6040516104d59190612eba565b60405180910390f35b6104e6612c22565b6040516104f39190613494565b60405180910390f35b600460205281600052604060002081805160208101820180518482526020830160208501208183528095505050505050600091509150508060000154908060010160009054906101000a900460ff16908060020154905083565b600860009054906101000a900473ffffffffffffffffffffffffffffffffffffffff1681565b33600860009054906101000a900473ffffffffffffffffffffffffffffffffffffffff1673ffffffffffffffffffffffffffffffffffffffff1663b9209e33826040518263ffffffff1660e01b81526004016105d89190612eba565b602060405180830381865afa1580156105f5573d6000803e3d6000fd5b505050506040513d601f19601f8201168201806040525081019061061991906136cb565b610658576040517f08c379a000000000000000000000000000000000000000000000000000000000815260040161064f90613744565b60405180910390fd5b6002600581111561066c5761066b6132b4565b5b6000858560405161067e929190613794565b908152602001604051809103902060080160159054906101000a900460ff1660058111156106af576106ae6132b4565b5b146106f35783836040517fb71650840000000000000000000000000000000000000000000000000000000081526004016106ea9291906137da565b60405180910390fd5b60008214158015610752575060008484604051610711929190613794565b90815260200160405180910390206003015460038585604051610735929190613794565b9081526020016040518091039020548361074f919061382d565b11155b610791576040517f08c379a0000000000000000000000000000000000000000000000000000000008152600401610788906138ad565b60405180910390fd5b81600385856040516107a4929190613794565b9081526020016040518091039020546107bd919061382d565b600385856040516107cf929190613794565b908152602001604051809103902081905550600460003373ffffffffffffffffffffffffffffffffffffffff1673ffffffffffffffffffffffffffffffffffffffff1681526020019081526020016000208484604051610830929190613794565b908152602001604051809103902060010160009054906101000a900460ff1615610a3c5781600460003373ffffffffffffffffffffffffffffffffffffffff1673ffffffffffffffffffffffffffffffffffffffff16815260200190815260200160002085856040516108a4929190613794565b9081526020016040518091039020600001546108c0919061382d565b600285856040516108d2929190613794565b9081526020016040518091039020600460003373ffffffffffffffffffffffffffffffffffffffff1673ffffffffffffffffffffffffffffffffffffffff168152602001908152602001600020868660405161092f929190613794565b90815260200160405180910390206002015481548110610952576109516138cd565b5b90600052602060002090600202016001018190555081600460003373ffffffffffffffffffffffffffffffffffffffff1673ffffffffffffffffffffffffffffffffffffffff16815260200190815260200160002085856040516109b7929190613794565b9081526020016040518091039020600001546109d3919061382d565b600460003373ffffffffffffffffffffffffffffffffffffffff1673ffffffffffffffffffffffffffffffffffffffff1681526020019081526020016000208585604051610a22929190613794565b908152602001604051809103902060000181905550610bd9565b604051806060016040528083815260200160011515815260200160028686604051610a68929190613794565b908152602001604051809103902080549050815250600460003373ffffffffffffffffffffffffffffffffffffffff1673ffffffffffffffffffffffffffffffffffffffff1681526020019081526020016000208585604051610acc929190613794565b90815260200160405180910390206000820151816000015560208201518160010160006101000a81548160ff0219169083151502179055506040820151816002015590505060028484604051610b23929190613794565b908152602001604051809103902060405180604001604052803373ffffffffffffffffffffffffffffffffffffffff16815260200184815250908060018154018082558091505060019003906000526020600020906002020160009091909190915060008201518160000160006101000a81548173ffffffffffffffffffffffffffffffffffffffff021916908373ffffffffffffffffffffffffffffffffffffffff1602179055506020820151816001015550505b600960009054906101000a900473ffffffffffffffffffffffffffffffffffffffff1673ffffffffffffffffffffffffffffffffffffffff1663925b7cb68585856040518463ffffffff1660e01b8152600401610c38939291906138fc565b600060405180830381600087803b158015610c5257600080fd5b505af1158015610c66573d6000803e3d6000fd5b5050505060008484604051610c7c929190613794565b908152602001604051809103902060080160009054906101000a900473ffffffffffffffffffffffffffffffffffffffff1673ffffffffffffffffffffffffffffffffffffffff166323b872dd33600960009054906101000a900473ffffffffffffffffffffffffffffffffffffffff16670de0b6b3a764000086610d01919061392e565b6040518463ffffffff1660e01b8152600401610d1f93929190613970565b6020604051808303816000875af1158015610d3e573d6000803e3d6000fd5b505050506040513d601f19601f82011682018060405250810190610d6291906136cb565b507f0bdaf52b4de514796607307fbbcf007ee6d59e81e1be436b67c5a567a2e8d121848433604051610d96939291906139a7565b60405180910390a150505050565b80600183604051610db59190613a0a565b908152602001604051809103902060006101000a81548173ffffffffffffffffffffffffffffffffffffffff021916908373ffffffffffffffffffffffffffffffffffffffff1602179055505050565b600081604051610e159190613a0a565b908152602001604051809103902060020160009054906101000a900473ffffffffffffffffffffffffffffffffffffffff1673ffffffffffffffffffffffffffffffffffffffff163373ffffffffffffffffffffffffffffffffffffffff161480610ecd5750600660009054906101000a900473ffffffffffffffffffffffffffffffffffffffff1673ffffffffffffffffffffffffffffffffffffffff163373ffffffffffffffffffffffffffffffffffffffff16145b610f0c576040517f08c379a0000000000000000000000000000000000000000000000000000000008152600401610f0390613a6d565b60405180910390fd5b600073ffffffffffffffffffffffffffffffffffffffff16600082604051610f349190613a0a565b908152602001604051809103902060080160009054906101000a900473ffffffffffffffffffffffffffffffffffffffff1673ffffffffffffffffffffffffffffffffffffffff1603610fbc576040517f08c379a0000000000000000000000000000000000000000000000000000000008152600401610fb390613ad9565b60405180910390fd5b600960009054906101000a900473ffffffffffffffffffffffffffffffffffffffff1673ffffffffffffffffffffffffffffffffffffffff1663e04cd97f8260008460405161100b9190613a0a565b908152602001604051809103902060020160009054906101000a900473ffffffffffffffffffffffffffffffffffffffff1660008560405161104d9190613a0a565b908152602001604051809103902060080160009054906101000a900473ffffffffffffffffffffffffffffffffffffffff166040518463ffffffff1660e01b815260040161109d93929190613af9565b600060405180830381600087803b1580156110b757600080fd5b505af11580156110cb573d6000803e3d6000fd5b5050505050565b600760009054906101000a900473ffffffffffffffffffffffffffffffffffffffff1673ffffffffffffffffffffffffffffffffffffffff1663877b9a67336040518263ffffffff1660e01b815260040161112d9190612eba565b602060405180830381865afa15801561114a573d6000803e3d6000fd5b505050506040513d601f19601f8201168201806040525081019061116e91906136cb565b6111ad576040517f08c379a00000000000000000000000000000000000000000000000000000000081526004016111a490613b83565b60405180910390fd5b8060400160208101906111c091906134af565b73ffffffffffffffffffffffffffffffffffffffff163373ffffffffffffffffffffffffffffffffffffffff161461122d576040517f08c379a000000000000000000000000000000000000000000000000000000000815260040161122490613bef565b60405180910390fd5b60006005811115611241576112406132b4565b5b60008484604051611253929190613794565b908152602001604051809103902060080160159054906101000a900460ff166005811115611284576112836132b4565b5b146112c4576040517f08c379a00000000000000000000000000000000000000000000000000000000081526004016112bb90613c5b565b60405180910390fd5b80600084846040516112d7929190613794565b908152602001604051809103902081816112f19190614407565b905050600160008484604051611308929190613794565b908152602001604051809103902060080160156101000a81548160ff0219169083600581111561133b5761133a6132b4565b5b0217905550600c8054905060008484604051611358929190613794565b908152602001604051809103902060070181905550600c60008484604051611381929190613794565b90815260200160405180910390209080600181540180825580915050600190039060005260206000209060090201600090919091909150600082018160000190816113cc919061442b565b50600182018160010190816113e1919061442b565b506002820160009054906101000a900473ffffffffffffffffffffffffffffffffffffffff168160020160006101000a81548173ffffffffffffffffffffffffffffffffffffffff021916908373ffffffffffffffffffffffffffffffffffffffff16021790555060038201548160030155600482015481600401556005820154816005015560068201548160060155600782015481600701556008820160009054906101000a900473ffffffffffffffffffffffffffffffffffffffff168160080160006101000a81548173ffffffffffffffffffffffffffffffffffffffff021916908373ffffffffffffffffffffffffffffffffffffffff1602179055506008820160149054906101000a900460ff168160080160146101000a81548160ff021916908360ff1602179055506008820160159054906101000a900460ff168160080160156101000a81548160ff02191690836005811115611548576115476132b4565b5b021790555050507fc32e04bf1356c91e89bdc0de134ba5c3fc8df94d30cea4436e9346bc335199ed838383604051611582939291906147b9565b60405180910390a1505050565b600660009054906101000a900473ffffffffffffffffffffffffffffffffffffffff1673ffffffffffffffffffffffffffffffffffffffff163373ffffffffffffffffffffffffffffffffffffffff161461161f576040517f08c379a00000000000000000000000000000000000000000000000000000000081526004016116169061483e565b60405180910390fd5b60016005811115611633576116326132b4565b5b60008383604051611645929190613794565b908152602001604051809103902060080160159054906101000a900460ff166005811115611676576116756132b4565b5b146116b6576040517f08c379a00000000000000000000000000000000000000000000000000000000081526004016116ad90613c5b565b60405180910390fd5b6002600083836040516116ca929190613794565b908152602001604051809103902060080160156101000a81548160ff021916908360058111156116fd576116fc6132b4565b5b02179055506002600c60008484604051611718929190613794565b9081526020016040518091039020600701548154811061173b5761173a6138cd565b5b906000526020600020906009020160080160156101000a81548160ff0219169083600581111561176e5761176d6132b4565b5b02179055507f039501081328ffe3eb02459ad6f6e90b69e23ba1422b574ee84c1f52b2fc031082826040516117a49291906137da565b60405180910390a15050565b60028280516020810182018051848252602083016020850120818352809550505050505081815481106117e257600080fd5b9060005260206000209060020201600091509150508060000160009054906101000a900473ffffffffffffffffffffffffffffffffffffffff16908060010154905082565b6005602052816000526040600020818154811061184357600080fd5b90600052602060002090600902016000915091505080600001805461186790613d27565b80601f016020809104026020016040519081016040528092919081815260200182805461189390613d27565b80156118e05780601f106118b5576101008083540402835291602001916118e0565b820191906000526020600020905b8154815290600101906020018083116118c357829003601f168201915b5050505050908060010180546118f590613d27565b80601f016020809104026020016040519081016040528092919081815260200182805461192190613d27565b801561196e5780601f106119435761010080835404028352916020019161196e565b820191906000526020600020905b81548152906001019060200180831161195157829003601f168201915b5050505050908060020160009054906101000a900473ffffffffffffffffffffffffffffffffffffffff16908060030154908060040154908060050154908060060154908060070154908060080160009054906101000a900473ffffffffffffffffffffffffffffffffffffffff16908060080160149054906101000a900460ff16908060080160159054906101000a900460ff1690508b565b600660009054906101000a900473ffffffffffffffffffffffffffffffffffffffff1673ffffffffffffffffffffffffffffffffffffffff163373ffffffffffffffffffffffffffffffffffffffff1614611a98576040517f08c379a0000000000000000000000000000000000000000000000000000000008152600401611a8f9061483e565b60405180910390fd5b60026005811115611aac57611aab6132b4565b5b60008585604051611abe929190613794565b908152602001604051809103902060080160159054906101000a900460ff166005811115611aef57611aee6132b4565b5b14611b335783836040517fb7165084000000000000000000000000000000000000000000000000000000008152600401611b2a9291906137da565b60405180910390fd5b8060018585604051611b46929190613794565b908152602001604051809103902060006101000a81548173ffffffffffffffffffffffffffffffffffffffff021916908373ffffffffffffffffffffffffffffffffffffffff16021790555060046005811115611ba657611ba56132b4565b5b60008585604051611bb8929190613794565b908152602001604051809103902060080160159054906101000a900460ff166005811115611be957611be86132b4565b5b50506004600c60008686604051611c01929190613794565b90815260200160405180910390206007015481548110611c2457611c236138cd565b5b906000526020600020906009020160080160156101000a81548160ff02191690836005811115611c5757611c566132b4565b5b021790555060056000808686604051611c71929190613794565b908152602001604051809103902060020160009054906101000a900473ffffffffffffffffffffffffffffffffffffffff1673ffffffffffffffffffffffffffffffffffffffff1673ffffffffffffffffffffffffffffffffffffffff16815260200190815260200160002060008585604051611cef929190613794565b9081526020016040518091039020908060018154018082558091505060019003906000526020600020906009020160009091909190915060008201816000019081611d3a919061442b565b5060018201816001019081611d4f919061442b565b506002820160009054906101000a900473ffffffffffffffffffffffffffffffffffffffff168160020160006101000a81548173ffffffffffffffffffffffffffffffffffffffff021916908373ffffffffffffffffffffffffffffffffffffffff16021790555060038201548160030155600482015481600401556005820154816005015560068201548160060155600782015481600701556008820160009054906101000a900473ffffffffffffffffffffffffffffffffffffffff168160080160006101000a81548173ffffffffffffffffffffffffffffffffffffffff021916908373ffffffffffffffffffffffffffffffffffffffff1602179055506008820160149054906101000a900460ff168160080160146101000a81548160ff021916908360ff1602179055506008820160159054906101000a900460ff168160080160156101000a81548160ff02191690836005811115611eb657611eb56132b4565b5b021790555050508073ffffffffffffffffffffffffffffffffffffffff1663d76805aa836040518263ffffffff1660e01b8152600401611ef691906149b9565b600060405180830381600087803b158015611f1057600080fd5b505af1158015611f24573d6000803e3d6000fd5b50505050600b8290806001815401808255809150506001900390600052602060002090600b02016000909190919091508181611f609190614b93565b50507f44b55c2d9270546faf6ff2f0acac078011883b82782d9b08de2d3af4543c2b188484604051611f939291906137da565b60405180910390a150505050565b6003818051602081018201805184825260208301602085012081835280955050505050506000915090505481565b600060038383604051611fe3929190613794565b908152602001604051809103902054905092915050565b600660009054906101000a900473ffffffffffffffffffffffffffffffffffffffff1673ffffffffffffffffffffffffffffffffffffffff163373ffffffffffffffffffffffffffffffffffffffff161461208a576040517f08c379a00000000000000000000000000000000000000000000000000000000081526004016120819061483e565b60405180910390fd5b6001600581111561209e5761209d6132b4565b5b600083836040516120b0929190613794565b908152602001604051809103902060080160159054906101000a900460ff1660058111156120e1576120e06132b4565b5b14612121576040517f08c379a000000000000000000000000000000000000000000000000000000000815260040161211890613c5b565b60405180910390fd5b600360008383604051612135929190613794565b908152602001604051809103902060080160156101000a81548160ff02191690836005811115612168576121676132b4565b5b02179055506003600c60008484604051612183929190613794565b908152602001604051809103902060070154815481106121a6576121a56138cd565b5b906000526020600020906009020160080160156101000a81548160ff021916908360058111156121d9576121d86132b4565b5b02179055507f735ccdd611541d36c82a3622baab7f58b8a0f5be664555b0d9c95ddde16096d3828260405161220f9291906137da565b60405180910390a15050565b600660009054906101000a900473ffffffffffffffffffffffffffffffffffffffff1673ffffffffffffffffffffffffffffffffffffffff163373ffffffffffffffffffffffffffffffffffffffff16146122ab576040517f08c379a00000000000000000000000000000000000000000000000000000000081526004016122a29061483e565b60405180910390fd5b600073ffffffffffffffffffffffffffffffffffffffff168173ffffffffffffffffffffffffffffffffffffffff160361231a576040517f08c379a000000000000000000000000000000000000000000000000000000000815260040161231190614bed565b60405180910390fd5b80600960006101000a81548173ffffffffffffffffffffffffffffffffffffffff021916908373ffffffffffffffffffffffffffffffffffffffff16021790555050565b600660009054906101000a900473ffffffffffffffffffffffffffffffffffffffff1681565b6000818051602081018201805184825260208301602085012081835280955050505050506000915090508060000180546123bd90613d27565b80601f01602080910402602001604051908101604052809291908181526020018280546123e990613d27565b80156124365780601f1061240b57610100808354040283529160200191612436565b820191906000526020600020905b81548152906001019060200180831161241957829003601f168201915b50505050509080600101805461244b90613d27565b80601f016020809104026020016040519081016040528092919081815260200182805461247790613d27565b80156124c45780601f10612499576101008083540402835291602001916124c4565b820191906000526020600020905b8154815290600101906020018083116124a757829003601f168201915b5050505050908060020160009054906101000a900473ffffffffffffffffffffffffffffffffffffffff16908060030154908060040154908060050154908060060154908060070154908060080160009054906101000a900473ffffffffffffffffffffffffffffffffffffffff16908060080160149054906101000a900460ff16908060080160159054906101000a900460ff1690508b565b600a5481565b600080600080600660009054906101000a900473ffffffffffffffffffffffffffffffffffffffff16600760009054906101000a900473ffffffffffffffffffffffffffffffffffffffff16600860009054906101000a900473ffffffffffffffffffffffffffffffffffffffff16600960009054906101000a900473ffffffffffffffffffffffffffffffffffffffff168094508195508296508397505050505090919293565b606060028383604051612620929190613794565b9081526020016040518091039020805480602002602001604051908101604052809291908181526020016000905b828210156126e057838290600052602060002090600202016040518060400160405290816000820160009054906101000a900473ffffffffffffffffffffffffffffffffffffffff1673ffffffffffffffffffffffffffffffffffffffff1673ffffffffffffffffffffffffffffffffffffffff1681526020016001820154815250508152602001906001019061264e565b50505050905092915050565b600760009054906101000a900473ffffffffffffffffffffffffffffffffffffffff1681565b600660009054906101000a900473ffffffffffffffffffffffffffffffffffffffff1673ffffffffffffffffffffffffffffffffffffffff163373ffffffffffffffffffffffffffffffffffffffff16146127a2576040517f08c379a00000000000000000000000000000000000000000000000000000000081526004016127999061483e565b60405180910390fd5b600760009054906101000a900473ffffffffffffffffffffffffffffffffffffffff1673ffffffffffffffffffffffffffffffffffffffff1663cfde1890826040518263ffffffff1660e01b81526004016127fd9190614c59565b600060405180830381600087803b15801561281757600080fd5b505af115801561282b573d6000803e3d6000fd5b5050505050565b600660009054906101000a900473ffffffffffffffffffffffffffffffffffffffff1673ffffffffffffffffffffffffffffffffffffffff163373ffffffffffffffffffffffffffffffffffffffff16146128c2576040517f08c379a00000000000000000000000000000000000000000000000000000000081526004016128b99061483e565b60405180910390fd5b600460058111156128d6576128d56132b4565b5b600084846040516128e8929190613794565b908152602001604051809103902060080160159054906101000a900460ff166005811115612919576129186132b4565b5b1461295d5782826040517fb71650840000000000000000000000000000000000000000000000000000000081526004016129549291906137da565b60405180910390fd5b6005808111156129705761296f6132b4565b5b60008484604051612982929190613794565b908152602001604051809103902060080160159054906101000a900460ff1660058111156129b3576129b26132b4565b5b50506005600c600085856040516129cb929190613794565b908152602001604051809103902060070154815481106129ee576129ed6138cd565b5b906000526020600020906009020160080160156101000a81548160ff02191690836005811115612a2157612a206132b4565b5b02179055506005806000808686604051612a3c929190613794565b908152602001604051809103902060020160009054906101000a900473ffffffffffffffffffffffffffffffffffffffff1673ffffffffffffffffffffffffffffffffffffffff1673ffffffffffffffffffffffffffffffffffffffff16815260200190815260200160002060008585604051612aba929190613794565b90815260200160405180910390206007015481548110612add57612adc6138cd565b5b906000526020600020906009020160080160156101000a81548160ff02191690836005811115612b1057612b0f6132b4565b5b02179055508073ffffffffffffffffffffffffffffffffffffffff1663be040fb06040518163ffffffff1660e01b8152600401600060405180830381600087803b158015612b5d57600080fd5b505af1158015612b71573d6000803e3d6000fd5b505050507fdfdf42ff0d0eb3e6ec5b40d8cf21fb2f7102b67e5e2d56ab36e817f807213c5b8383604051612ba69291906137da565b60405180910390a1505050565b600960009054906101000a900473ffffffffffffffffffffffffffffffffffffffff1681565b6001818051602081018201805184825260208301602085012081835280955050505050506000915054906101000a900473ffffffffffffffffffffffffffffffffffffffff1681565b6000600a54905090565b6000604051905090565b600080fd5b600080fd5b600073ffffffffffffffffffffffffffffffffffffffff82169050919050565b6000612c6b82612c40565b9050919050565b612c7b81612c60565b8114612c8657600080fd5b50565b600081359050612c9881612c72565b92915050565b600080fd5b600080fd5b6000601f19601f8301169050919050565b7f4e487b7100000000000000000000000000000000000000000000000000000000600052604160045260246000fd5b612cf182612ca8565b810181811067ffffffffffffffff82111715612d1057612d0f612cb9565b5b80604052505050565b6000612d23612c2c565b9050612d2f8282612ce8565b919050565b600067ffffffffffffffff821115612d4f57612d4e612cb9565b5b612d5882612ca8565b9050602081019050919050565b82818337600083830152505050565b6000612d87612d8284612d34565b612d19565b905082815260208101848484011115612da357612da2612ca3565b5b612dae848285612d65565b509392505050565b600082601f830112612dcb57612dca612c9e565b5b8135612ddb848260208601612d74565b91505092915050565b60008060408385031215612dfb57612dfa612c36565b5b6000612e0985828601612c89565b925050602083013567ffffffffffffffff811115612e2a57612e29612c3b565b5b612e3685828601612db6565b9150509250929050565b6000819050919050565b612e5381612e40565b82525050565b60008115159050919050565b612e6e81612e59565b82525050565b6000606082019050612e896000830186612e4a565b612e966020830185612e65565b612ea36040830184612e4a565b949350505050565b612eb481612c60565b82525050565b6000602082019050612ecf6000830184612eab565b92915050565b600080fd5b600080fd5b60008083601f840112612ef557612ef4612c9e565b5b8235905067ffffffffffffffff811115612f1257612f11612ed5565b5b602083019150836001820283011115612f2e57612f2d612eda565b5b9250929050565b612f3e81612e40565b8114612f4957600080fd5b50565b600081359050612f5b81612f35565b92915050565b600080600060408486031215612f7a57612f79612c36565b5b600084013567ffffffffffffffff811115612f9857612f97612c3b565b5b612fa486828701612edf565b93509350506020612fb786828701612f4c565b9150509250925092565b60008060408385031215612fd857612fd7612c36565b5b600083013567ffffffffffffffff811115612ff657612ff5612c3b565b5b61300285828601612db6565b925050602061301385828601612c89565b9150509250929050565b60006020828403121561303357613032612c36565b5b600082013567ffffffffffffffff81111561305157613050612c3b565b5b61305d84828501612db6565b91505092915050565b600080fd5b6000610160828403121561308257613081613066565b5b81905092915050565b6000806000604084860312156130a4576130a3612c36565b5b600084013567ffffffffffffffff8111156130c2576130c1612c3b565b5b6130ce86828701612edf565b9350935050602084013567ffffffffffffffff8111156130f1576130f0612c3b565b5b6130fd8682870161306b565b9150509250925092565b6000806020838503121561311e5761311d612c36565b5b600083013567ffffffffffffffff81111561313c5761313b612c3b565b5b61314885828601612edf565b92509250509250929050565b6000806040838503121561316b5761316a612c36565b5b600083013567ffffffffffffffff81111561318957613188612c3b565b5b61319585828601612db6565b92505060206131a685828601612f4c565b9150509250929050565b60006040820190506131c56000830185612eab565b6131d26020830184612e4a565b9392505050565b600080604083850312156131f0576131ef612c36565b5b60006131fe85828601612c89565b925050602061320f85828601612f4c565b9150509250929050565b600081519050919050565b600082825260208201905092915050565b60005b83811015613253578082015181840152602081019050613238565b60008484015250505050565b600061326a82613219565b6132748185613224565b9350613284818560208601613235565b61328d81612ca8565b840191505092915050565b600060ff82169050919050565b6132ae81613298565b82525050565b7f4e487b7100000000000000000000000000000000000000000000000000000000600052602160045260246000fd5b600681106132f4576132f36132b4565b5b50565b6000819050613305826132e3565b919050565b6000613315826132f7565b9050919050565b6133258161330a565b82525050565b6000610160820190508181036000830152613346818e61325f565b9050818103602083015261335a818d61325f565b9050613369604083018c612eab565b613376606083018b612e4a565b613383608083018a612e4a565b61339060a0830189612e4a565b61339d60c0830188612e4a565b6133aa60e0830187612e4a565b6133b8610100830186612eab565b6133c66101208301856132a5565b6133d461014083018461331c565b9c9b505050505050505050505050565b600061016082840312156133fb576133fa613066565b5b81905092915050565b6000806000806060858703121561341e5761341d612c36565b5b600085013567ffffffffffffffff81111561343c5761343b612c3b565b5b61344887828801612edf565b9450945050602085013567ffffffffffffffff81111561346b5761346a612c3b565b5b613477878288016133e4565b925050604061348887828801612c89565b91505092959194509250565b60006020820190506134a96000830184612e4a565b92915050565b6000602082840312156134c5576134c4612c36565b5b60006134d384828501612c89565b91505092915050565b60006080820190506134f16000830187612eab565b6134fe6020830186612eab565b61350b6040830185612eab565b6135186060830184612eab565b95945050505050565b600081519050919050565b600082825260208201905092915050565b6000819050602082019050919050565b61355681612c60565b82525050565b61356581612e40565b82525050565b604082016000820151613581600085018261354d565b506020820151613594602085018261355c565b50505050565b60006135a6838361356b565b60408301905092915050565b6000602082019050919050565b60006135ca82613521565b6135d4818561352c565b93506135df8361353d565b8060005b838110156136105781516135f7888261359a565b9750613602836135b2565b9250506001810190506135e3565b5085935050505092915050565b6000602082019050818103600083015261363781846135bf565b905092915050565b60008060006040848603121561365857613657612c36565b5b600084013567ffffffffffffffff81111561367657613675612c3b565b5b61368286828701612edf565b9350935050602061369586828701612c89565b9150509250925092565b6136a881612e59565b81146136b357600080fd5b50565b6000815190506136c58161369f565b92915050565b6000602082840312156136e1576136e0612c36565b5b60006136ef848285016136b6565b91505092915050565b7f4143434f554e545f4e4f545f414150524f564544000000000000000000000000600082015250565b600061372e601483613224565b9150613739826136f8565b602082019050919050565b6000602082019050818103600083015261375d81613721565b9050919050565b600081905092915050565b600061377b8385613764565b9350613788838584612d65565b82840190509392505050565b60006137a182848661376f565b91508190509392505050565b60006137b98385613224565b93506137c6838584612d65565b6137cf83612ca8565b840190509392505050565b600060208201905081810360008301526137f58184866137ad565b90509392505050565b7f4e487b7100000000000000000000000000000000000000000000000000000000600052601160045260246000fd5b600061383882612e40565b915061384383612e40565b925082820190508082111561385b5761385a6137fe565b5b92915050565b7f494e56414c49445f414d4f554e54000000000000000000000000000000000000600082015250565b6000613897600e83613224565b91506138a282613861565b602082019050919050565b600060208201905081810360008301526138c68161388a565b9050919050565b7f4e487b7100000000000000000000000000000000000000000000000000000000600052603260045260246000fd5b600060408201905081810360008301526139178185876137ad565b90506139266020830184612e4a565b949350505050565b600061393982612e40565b915061394483612e40565b925082820261395281612e40565b91508282048414831517613969576139686137fe565b5b5092915050565b60006060820190506139856000830186612eab565b6139926020830185612eab565b61399f6040830184612e4a565b949350505050565b600060408201905081810360008301526139c28185876137ad565b90506139d16020830184612eab565b949350505050565b60006139e482613219565b6139ee8185613764565b93506139fe818560208601613235565b80840191505092915050565b6000613a1682846139d9565b915081905092915050565b7f4e4f545f4953535545525f4e4f525f544f504f535f4d414e4147455200000000600082015250565b6000613a57601c83613224565b9150613a6282613a21565b602082019050919050565b60006020820190508181036000830152613a8681613a4a565b9050919050565b7f494e56414c49445f544f4b454e5f414444524553530000000000000000000000600082015250565b6000613ac3601583613224565b9150613ace82613a8d565b602082019050919050565b60006020820190508181036000830152613af281613ab6565b9050919050565b60006060820190508181036000830152613b13818661325f565b9050613b226020830185612eab565b613b2f6040830184612eab565b949350505050565b7f4f4e4c595f495353554552530000000000000000000000000000000000000000600082015250565b6000613b6d600c83613224565b9150613b7882613b37565b602082019050919050565b60006020820190508181036000830152613b9c81613b60565b9050919050565b7f494e56414c49445f4953535545525f4144445245535300000000000000000000600082015250565b6000613bd9601683613224565b9150613be482613ba3565b602082019050919050565b60006020820190508181036000830152613c0881613bcc565b9050919050565b7f494e56414c49445f4445414c5f53544154555300000000000000000000000000600082015250565b6000613c45601383613224565b9150613c5082613c0f565b602082019050919050565b60006020820190508181036000830152613c7481613c38565b9050919050565b600080fd5b600080fd5b600080fd5b60008083356001602003843603038112613ca757613ca6613c7b565b5b80840192508235915067ffffffffffffffff821115613cc957613cc8613c80565b5b602083019250600182023603831315613ce557613ce4613c85565b5b509250929050565b600082905092915050565b7f4e487b7100000000000000000000000000000000000000000000000000000000600052602260045260246000fd5b60006002820490506001821680613d3f57607f821691505b602082108103613d5257613d51613cf8565b5b50919050565b60008190508160005260206000209050919050565b60006020601f8301049050919050565b600082821b905092915050565b600060088302613dba7fffffffffffffffffffffffffffffffffffffffffffffffffffffffffffffffff82613d7d565b613dc48683613d7d565b95508019841693508086168417925050509392505050565b6000819050919050565b6000613e01613dfc613df784612e40565b613ddc565b612e40565b9050919050565b6000819050919050565b613e1b83613de6565b613e2f613e2782613e08565b848454613d8a565b825550505050565b600090565b613e44613e37565b613e4f818484613e12565b505050565b5b81811015613e7357613e68600082613e3c565b600181019050613e55565b5050565b601f821115613eb857613e8981613d58565b613e9284613d6d565b81016020851015613ea1578190505b613eb5613ead85613d6d565b830182613e54565b50505b505050565b600082821c905092915050565b6000613edb60001984600802613ebd565b1980831691505092915050565b6000613ef48383613eca565b9150826002028217905092915050565b613f0e8383613ced565b67ffffffffffffffff811115613f2757613f26612cb9565b5b613f318254613d27565b613f3c828285613e77565b6000601f831160018114613f6b5760008415613f59578287013590505b613f638582613ee8565b865550613fcb565b601f198416613f7986613d58565b60005b82811015613fa157848901358255600182019150602085019450602081019050613f7c565b86831015613fbe5784890135613fba601f891682613eca565b8355505b6001600288020188555050505b50505050505050565b613fdf838383613f04565b505050565b60008135613ff181612c72565b80915050919050565b60008160001b9050919050565b600073ffffffffffffffffffffffffffffffffffffffff61402784613ffa565b9350801983169250808416831791505092915050565b600061405861405361404e84612c40565b613ddc565b612c40565b9050919050565b600061406a8261403d565b9050919050565b600061407c8261405f565b9050919050565b6000819050919050565b61409682614071565b6140a96140a282614083565b8354614007565b8255505050565b600081356140bd81612f35565b80915050919050565b60007fffffffffffffffffffffffffffffffffffffffffffffffffffffffffffffffff6140f284613ffa565b9350801983169250808416831791505092915050565b61411182613de6565b61412461411d82613e08565b83546140c6565b8255505050565b61413481613298565b811461413f57600080fd5b50565b6000813561414f8161412b565b80915050919050565b60008160a01b9050919050565b600074ff000000000000000000000000000000000000000061418684614158565b9350801983169250808416831791505092915050565b60006141b76141b26141ad84613298565b613ddc565b613298565b9050919050565b6000819050919050565b6141d18261419c565b6141e46141dd826141be565b8354614165565b8255505050565b600681106141f857600080fd5b50565b60008135614208816141eb565b80915050919050565b60008160a81b9050919050565b600075ff00000000000000000000000000000000000000000061424084614211565b9350801983169250808416831791505092915050565b6000614261826132f7565b9050919050565b6000819050919050565b61427b82614256565b61428e61428782614268565b835461421e565b8255505050565b60008101600083016142a78185613c8a565b6142b2818386613fd4565b5050505060018101602083016142c88185613c8a565b6142d3818386613fd4565b505050506002810160408301806142e981613fe4565b90506142f5818461408d565b50505060038101606083018061430a816140b0565b90506143168184614108565b50505060048101608083018061432b816140b0565b90506143378184614108565b5050506005810160a083018061434c816140b0565b90506143588184614108565b5050506006810160c083018061436d816140b0565b90506143798184614108565b5050506007810160e083018061438e816140b0565b905061439a8184614108565b505050600881016101008301806143b081613fe4565b90506143bc818461408d565b505050600881016101208301806143d281614142565b90506143de81846141c8565b505050600881016101408301806143f4816141fb565b90506144008184614272565b5050505050565b6144118282614295565b5050565b60008154905061442481613d27565b9050919050565b818103614439575050614511565b61444282614415565b67ffffffffffffffff81111561445b5761445a612cb9565b5b6144658254613d27565b614470828285613e77565b6000601f83116001811461449f576000841561448d578287015490505b6144978582613ee8565b86555061450a565b601f1984166144ad87613d58565b96506144b886613d58565b60005b828110156144e0578489015482556001820191506001850194506020810190506144bb565b868310156144fd57848901546144f9601f891682613eca565b8355505b6001600288020188555050505b5050505050505b565b600080fd5b600080fd5b600080fd5b6000808335600160200384360303811261453f5761453e61451d565b5b83810192508235915060208301925067ffffffffffffffff82111561456757614566614513565b5b60018202360383131561457d5761457c614518565b5b509250929050565b600082825260208201905092915050565b60006145a28385614585565b93506145af838584612d65565b6145b883612ca8565b840190509392505050565b60006145d26020840184612c89565b905092915050565b60006145e96020840184612f4c565b905092915050565b6000813590506146008161412b565b92915050565b600061461560208401846145f1565b905092915050565b61462681613298565b82525050565b60008135905061463b816141eb565b92915050565b6000614650602084018461462c565b905092915050565b6146618161330a565b82525050565b6000610160830161467b6000840184614522565b858303600087015261468e838284614596565b9250505061469f6020840184614522565b85830360208701526146b2838284614596565b925050506146c360408401846145c3565b6146d0604086018261354d565b506146de60608401846145da565b6146eb606086018261355c565b506146f960808401846145da565b614706608086018261355c565b5061471460a08401846145da565b61472160a086018261355c565b5061472f60c08401846145da565b61473c60c086018261355c565b5061474a60e08401846145da565b61475760e086018261355c565b506147666101008401846145c3565b61477461010086018261354d565b50614783610120840184614606565b61479161012086018261461d565b506147a0610140840184614641565b6147ae610140860182614658565b508091505092915050565b600060408201905081810360008301526147d48185876137ad565b905081810360208301526147e88184614667565b9050949350505050565b7f4f4e4c595f544f504f535f4d414e414745520000000000000000000000000000600082015250565b6000614828601283613224565b9150614833826147f2565b602082019050919050565b600060208201905081810360008301526148578161481b565b9050919050565b600061016083016148726000840184614522565b8583036000870152614885838284614596565b925050506148966020840184614522565b85830360208701526148a9838284614596565b925050506148ba6040840184614522565b85830360408701526148cd838284614596565b925050506148de60608401846145c3565b6148eb606086018261354d565b506148f960808401846145da565b614906608086018261355c565b5061491460a08401846145da565b61492160a086018261355c565b5061492f60c08401846145da565b61493c60c086018261355c565b5061494a60e0840184614606565b61495760e086018261461d565b506149666101008401846145da565b61497461010086018261355c565b506149836101208401846145da565b61499161012086018261355c565b506149a06101408401846145da565b6149ae61014086018261355c565b508091505092915050565b600060208201905081810360008301526149d3818461485e565b905092915050565b600060ff6149e884613ffa565b9350801983169250808416831791505092915050565b614a078261419c565b614a1a614a13826141be565b83546149db565b8255505050565b6000810160008301614a338185613c8a565b614a3e818386613fd4565b505050506001810160208301614a548185613c8a565b614a5f818386613fd4565b505050506002810160408301614a758185613c8a565b614a80818386613fd4565b50505050600381016060830180614a9681613fe4565b9050614aa2818461408d565b505050600481016080830180614ab7816140b0565b9050614ac38184614108565b5050506005810160a0830180614ad8816140b0565b9050614ae48184614108565b5050506006810160c0830180614af9816140b0565b9050614b058184614108565b5050506007810160e0830180614b1a81614142565b9050614b2681846149fe565b50505060088101610100830180614b3c816140b0565b9050614b488184614108565b50505060098101610120830180614b5e816140b0565b9050614b6a8184614108565b505050600a8101610140830180614b80816140b0565b9050614b8c8184614108565b5050505050565b614b9d8282614a21565b5050565b7f494e56414c49445f434f4e54524143545f414444524553530000000000000000600082015250565b6000614bd7601883613224565b9150614be282614ba1565b602082019050919050565b60006020820190508181036000830152614c0681614bca565b9050919050565b7f4d414e4147455200000000000000000000000000000000000000000000000000600082015250565b6000614c43600783613224565b9150614c4e82614c0d565b602082019050919050565b60006040820190508181036000830152614c7281614c36565b9050614c816020830184612eab565b9291505056fea2646970667358221220e48968d1166f15a8b02832e775d703bf07fe3a7ffa6c9aa4af41b8d9ee5013ff64736f6c63430008130033",
  "linkReferences": {},
  "deployedLinkReferences": {}
}