{
  "_format": "hh-sol-artifact-1",
  "contractName": "ToposBank",
  "sourceName": "contracts/Topos/Bank/ToposBank.sol",
  "abi": [
    {
      "inputs": [
        {
          "internalType": "address",
          "name": "_toposManager",
          "type": "address"
        },
        {
          "internalType": "address",
          "name": "_rolesContract",
          "type": "address"
        },
        {
          "internalType": "address",
          "name": "_identityRegistryContract",
          "type": "address"
        },
        {
          "internalType": "address",
          "name": "_bondCallContract",
          "type": "address"
        },
        {
          "internalType": "uint256",
          "name": "_dealFees",
          "type": "uint256"
        }
      ],
      "stateMutability": "nonpayable",
      "type": "constructor"
    },
    {
      "inputs": [
        {
          "internalType": "uint256",
          "name": "amount",
          "type": "uint256"
        }
      ],
      "name": "InvalidAmount",
      "type": "error"
    },
    {
      "inputs": [
        {
          "internalType": "string",
          "name": "dealID",
          "type": "string"
        }
      ],
      "name": "InvalidDealStatus",
      "type": "error"
    },
    {
      "anonymous": false,
      "inputs": [
        {
          "indexed": false,
          "internalType": "string",
          "name": "_dealID",
          "type": "string"
        }
      ],
      "name": "BondIssue",
      "type": "event"
    },
    {
      "anonymous": false,
      "inputs": [
        {
          "indexed": false,
          "internalType": "string",
          "name": "_dealID",
          "type": "string"
        }
      ],
      "name": "BondRedeem",
      "type": "event"
    },
    {
      "anonymous": false,
      "inputs": [
        {
          "indexed": false,
          "internalType": "string",
          "name": "dealID",
          "type": "string"
        }
      ],
      "name": "DealAPproved",
      "type": "event"
    },
    {
      "anonymous": false,
      "inputs": [
        {
          "indexed": false,
          "internalType": "string",
          "name": "dealID",
          "type": "string"
        }
      ],
      "name": "DealARejected",
      "type": "event"
    },
    {
      "anonymous": false,
      "inputs": [
        {
          "indexed": false,
          "internalType": "string",
          "name": "dealID",
          "type": "string"
        },
        {
          "components": [
            {
              "internalType": "string",
              "name": "dealID",
              "type": "string"
            },
            {
              "internalType": "string",
              "name": "prospectusURI",
              "type": "string"
            },
            {
              "internalType": "address",
              "name": "issuerAddress",
              "type": "address"
            },
            {
              "internalType": "uint256",
              "name": "debtAmount",
              "type": "uint256"
            },
            {
              "internalType": "uint256",
              "name": "denomination",
              "type": "uint256"
            },
            {
              "internalType": "uint256",
              "name": "couponRate",
              "type": "uint256"
            },
            {
              "internalType": "uint256",
              "name": "couponFrequency",
              "type": "uint256"
            },
            {
              "internalType": "uint256",
              "name": "maturityDate",
              "type": "uint256"
            },
            {
              "internalType": "uint256",
              "name": "index",
              "type": "uint256"
            },
            {
              "internalType": "address",
              "name": "currency",
              "type": "address"
            },
            {
              "internalType": "uint8",
              "name": "couponType",
              "type": "uint8"
            },
            {
              "internalType": "enum BondData.DealStatus",
              "name": "status",
              "type": "uint8"
            }
          ],
          "indexed": false,
          "internalType": "struct BondData.Deal",
          "name": "deal",
          "type": "tuple"
        }
      ],
      "name": "DealSubmitted",
      "type": "event"
    },
    {
      "anonymous": false,
      "inputs": [
        {
          "indexed": false,
          "internalType": "string",
          "name": "dealID",
          "type": "string"
        },
        {
          "indexed": false,
          "internalType": "address",
          "name": "investor",
          "type": "address"
        }
      ],
      "name": "RegisterForDeal",
      "type": "event"
    },
    {
      "inputs": [
        {
          "internalType": "address",
          "name": "",
          "type": "address"
        },
        {
          "internalType": "string",
          "name": "",
          "type": "string"
        }
      ],
      "name": "amountInvested",
      "outputs": [
        {
          "internalType": "uint256",
          "name": "amount",
          "type": "uint256"
        },
        {
          "internalType": "bool",
          "name": "hasInvested",
          "type": "bool"
        },
        {
          "internalType": "uint256",
          "name": "index",
          "type": "uint256"
        }
      ],
      "stateMutability": "view",
      "type": "function"
    },
    {
      "inputs": [
        {
          "internalType": "string",
          "name": "_dealID",
          "type": "string"
        }
      ],
      "name": "approveDeal",
      "outputs": [],
      "stateMutability": "nonpayable",
      "type": "function"
    },
    {
      "inputs": [],
      "name": "bondCallContract",
      "outputs": [
        {
          "internalType": "address",
          "name": "",
          "type": "address"
        }
      ],
      "stateMutability": "view",
      "type": "function"
    },
    {
      "inputs": [
        {
          "internalType": "string",
          "name": "",
          "type": "string"
        }
      ],
      "name": "dealBondContracts",
      "outputs": [
        {
          "internalType": "address",
          "name": "",
          "type": "address"
        }
      ],
      "stateMutability": "view",
      "type": "function"
    },
    {
      "inputs": [],
      "name": "dealFees",
      "outputs": [
        {
          "internalType": "uint256",
          "name": "",
          "type": "uint256"
        }
      ],
      "stateMutability": "view",
      "type": "function"
    },
    {
      "inputs": [
        {
          "internalType": "string",
          "name": "",
          "type": "string"
        },
        {
          "internalType": "uint256",
          "name": "",
          "type": "uint256"
        }
      ],
      "name": "dealInvestment",
      "outputs": [
        {
          "internalType": "address",
          "name": "investor",
          "type": "address"
        },
        {
          "internalType": "uint256",
          "name": "amount",
          "type": "uint256"
        }
      ],
      "stateMutability": "view",
      "type": "function"
    },
    {
      "inputs": [
        {
          "internalType": "string",
          "name": "",
          "type": "string"
        }
      ],
      "name": "deals",
      "outputs": [
        {
          "internalType": "string",
          "name": "dealID",
          "type": "string"
        },
        {
          "internalType": "string",
          "name": "prospectusURI",
          "type": "string"
        },
        {
          "internalType": "address",
          "name": "issuerAddress",
          "type": "address"
        },
        {
          "internalType": "uint256",
          "name": "debtAmount",
          "type": "uint256"
        },
        {
          "internalType": "uint256",
          "name": "denomination",
          "type": "uint256"
        },
        {
          "internalType": "uint256",
          "name": "couponRate",
          "type": "uint256"
        },
        {
          "internalType": "uint256",
          "name": "couponFrequency",
          "type": "uint256"
        },
        {
          "internalType": "uint256",
          "name": "maturityDate",
          "type": "uint256"
        },
        {
          "internalType": "uint256",
          "name": "index",
          "type": "uint256"
        },
        {
          "internalType": "address",
          "name": "currency",
          "type": "address"
        },
        {
          "internalType": "uint8",
          "name": "couponType",
          "type": "uint8"
        },
        {
          "internalType": "enum BondData.DealStatus",
          "name": "status",
          "type": "uint8"
        }
      ],
      "stateMutability": "view",
      "type": "function"
    },
    {
      "inputs": [],
      "name": "getContracts",
      "outputs": [
        {
          "internalType": "address",
          "name": "manager",
          "type": "address"
        },
        {
          "internalType": "address",
          "name": "roles",
          "type": "address"
        },
        {
          "internalType": "address",
          "name": "identityRegistry",
          "type": "address"
        },
        {
          "internalType": "address",
          "name": "bondCall",
          "type": "address"
        },
        {
          "internalType": "address",
          "name": "issuerFund",
          "type": "address"
        }
      ],
      "stateMutability": "view",
      "type": "function"
    },
    {
      "inputs": [
        {
          "internalType": "string",
          "name": "_dealID",
          "type": "string"
        }
      ],
      "name": "getDeal",
      "outputs": [
        {
          "components": [
            {
              "internalType": "string",
              "name": "dealID",
              "type": "string"
            },
            {
              "internalType": "string",
              "name": "prospectusURI",
              "type": "string"
            },
            {
              "internalType": "address",
              "name": "issuerAddress",
              "type": "address"
            },
            {
              "internalType": "uint256",
              "name": "debtAmount",
              "type": "uint256"
            },
            {
              "internalType": "uint256",
              "name": "denomination",
              "type": "uint256"
            },
            {
              "internalType": "uint256",
              "name": "couponRate",
              "type": "uint256"
            },
            {
              "internalType": "uint256",
              "name": "couponFrequency",
              "type": "uint256"
            },
            {
              "internalType": "uint256",
              "name": "maturityDate",
              "type": "uint256"
            },
            {
              "internalType": "uint256",
              "name": "index",
              "type": "uint256"
            },
            {
              "internalType": "address",
              "name": "currency",
              "type": "address"
            },
            {
              "internalType": "uint8",
              "name": "couponType",
              "type": "uint8"
            },
            {
              "internalType": "enum BondData.DealStatus",
              "name": "status",
              "type": "uint8"
            }
          ],
          "internalType": "struct BondData.Deal",
          "name": "",
          "type": "tuple"
        }
      ],
      "stateMutability": "view",
      "type": "function"
    },
    {
      "inputs": [],
      "name": "getDealFees",
      "outputs": [
        {
          "internalType": "uint256",
          "name": "",
          "type": "uint256"
        }
      ],
      "stateMutability": "view",
      "type": "function"
    },
    {
      "inputs": [
        {
          "internalType": "string",
          "name": "_dealID",
          "type": "string"
        }
      ],
      "name": "getDealInvestment",
      "outputs": [
        {
          "components": [
            {
              "internalType": "address",
              "name": "investor",
              "type": "address"
            },
            {
              "internalType": "uint256",
              "name": "amount",
              "type": "uint256"
            }
          ],
          "internalType": "struct BondData.DealInvestment[]",
          "name": "",
          "type": "tuple[]"
        }
      ],
      "stateMutability": "view",
      "type": "function"
    },
    {
      "inputs": [],
      "name": "getListOfBonds",
      "outputs": [
        {
          "components": [
            {
              "internalType": "string",
              "name": "isin",
              "type": "string"
            },
            {
              "internalType": "string",
              "name": "name",
              "type": "string"
            },
            {
              "internalType": "string",
              "name": "symbol",
              "type": "string"
            },
            {
              "internalType": "address",
              "name": "currency",
              "type": "address"
            },
            {
              "internalType": "uint256",
              "name": "denomination",
              "type": "uint256"
            },
            {
              "internalType": "uint256",
              "name": "issueVolume",
              "type": "uint256"
            },
            {
              "internalType": "uint256",
              "name": "couponRate",
              "type": "uint256"
            },
            {
              "internalType": "uint8",
              "name": "couponType",
              "type": "uint8"
            },
            {
              "internalType": "uint256",
              "name": "couponFrequency",
              "type": "uint256"
            },
            {
              "internalType": "uint256",
              "name": "issueDate",
              "type": "uint256"
            },
            {
              "internalType": "uint256",
              "name": "maturityDate",
              "type": "uint256"
            }
          ],
          "internalType": "struct BondData.Bond[]",
          "name": "",
          "type": "tuple[]"
        }
      ],
      "stateMutability": "view",
      "type": "function"
    },
    {
      "inputs": [],
      "name": "getListOfBondsDealIDs",
      "outputs": [
        {
          "internalType": "string[]",
          "name": "",
          "type": "string[]"
        }
      ],
      "stateMutability": "view",
      "type": "function"
    },
    {
      "inputs": [],
      "name": "getListOfDeals",
      "outputs": [
        {
          "components": [
            {
              "internalType": "string",
              "name": "dealID",
              "type": "string"
            },
            {
              "internalType": "string",
              "name": "prospectusURI",
              "type": "string"
            },
            {
              "internalType": "address",
              "name": "issuerAddress",
              "type": "address"
            },
            {
              "internalType": "uint256",
              "name": "debtAmount",
              "type": "uint256"
            },
            {
              "internalType": "uint256",
              "name": "denomination",
              "type": "uint256"
            },
            {
              "internalType": "uint256",
              "name": "couponRate",
              "type": "uint256"
            },
            {
              "internalType": "uint256",
              "name": "couponFrequency",
              "type": "uint256"
            },
            {
              "internalType": "uint256",
              "name": "maturityDate",
              "type": "uint256"
            },
            {
              "internalType": "uint256",
              "name": "index",
              "type": "uint256"
            },
            {
              "internalType": "address",
              "name": "currency",
              "type": "address"
            },
            {
              "internalType": "uint8",
              "name": "couponType",
              "type": "uint8"
            },
            {
              "internalType": "enum BondData.DealStatus",
              "name": "status",
              "type": "uint8"
            }
          ],
          "internalType": "struct BondData.Deal[]",
          "name": "",
          "type": "tuple[]"
        }
      ],
      "stateMutability": "view",
      "type": "function"
    },
    {
      "inputs": [
        {
          "internalType": "string",
          "name": "_dealID",
          "type": "string"
        }
      ],
      "name": "getTotalAmounInvested",
      "outputs": [
        {
          "internalType": "uint256",
          "name": "",
          "type": "uint256"
        }
      ],
      "stateMutability": "view",
      "type": "function"
    },
    {
      "inputs": [],
      "name": "identityRegistryContract",
      "outputs": [
        {
          "internalType": "address",
          "name": "",
          "type": "address"
        }
      ],
      "stateMutability": "view",
      "type": "function"
    },
    {
      "inputs": [
        {
          "internalType": "string",
          "name": "_dealID",
          "type": "string"
        },
        {
          "components": [
            {
              "internalType": "string",
              "name": "isin",
              "type": "string"
            },
            {
              "internalType": "string",
              "name": "name",
              "type": "string"
            },
            {
              "internalType": "string",
              "name": "symbol",
              "type": "string"
            },
            {
              "internalType": "address",
              "name": "currency",
              "type": "address"
            },
            {
              "internalType": "uint256",
              "name": "denomination",
              "type": "uint256"
            },
            {
              "internalType": "uint256",
              "name": "issueVolume",
              "type": "uint256"
            },
            {
              "internalType": "uint256",
              "name": "couponRate",
              "type": "uint256"
            },
            {
              "internalType": "uint8",
              "name": "couponType",
              "type": "uint8"
            },
            {
              "internalType": "uint256",
              "name": "couponFrequency",
              "type": "uint256"
            },
            {
              "internalType": "uint256",
              "name": "issueDate",
              "type": "uint256"
            },
            {
              "internalType": "uint256",
              "name": "maturityDate",
              "type": "uint256"
            }
          ],
          "internalType": "struct BondData.Bond",
          "name": "_bond",
          "type": "tuple"
        },
        {
          "internalType": "address",
          "name": "_bondContract",
          "type": "address"
        }
      ],
      "name": "issue",
      "outputs": [],
      "stateMutability": "nonpayable",
      "type": "function"
    },
    {
      "inputs": [
        {
          "internalType": "address",
          "name": "",
          "type": "address"
        },
        {
          "internalType": "uint256",
          "name": "",
          "type": "uint256"
        }
      ],
      "name": "issuerDeals",
      "outputs": [
        {
          "internalType": "string",
          "name": "dealID",
          "type": "string"
        },
        {
          "internalType": "string",
          "name": "prospectusURI",
          "type": "string"
        },
        {
          "internalType": "address",
          "name": "issuerAddress",
          "type": "address"
        },
        {
          "internalType": "uint256",
          "name": "debtAmount",
          "type": "uint256"
        },
        {
          "internalType": "uint256",
          "name": "denomination",
          "type": "uint256"
        },
        {
          "internalType": "uint256",
          "name": "couponRate",
          "type": "uint256"
        },
        {
          "internalType": "uint256",
          "name": "couponFrequency",
          "type": "uint256"
        },
        {
          "internalType": "uint256",
          "name": "maturityDate",
          "type": "uint256"
        },
        {
          "internalType": "uint256",
          "name": "index",
          "type": "uint256"
        },
        {
          "internalType": "address",
          "name": "currency",
          "type": "address"
        },
        {
          "internalType": "uint8",
          "name": "couponType",
          "type": "uint8"
        },
        {
          "internalType": "enum BondData.DealStatus",
          "name": "status",
          "type": "uint8"
        }
      ],
      "stateMutability": "view",
      "type": "function"
    },
    {
      "inputs": [],
      "name": "issuersFundContract",
      "outputs": [
        {
          "internalType": "address",
          "name": "",
          "type": "address"
        }
      ],
      "stateMutability": "view",
      "type": "function"
    },
    {
      "inputs": [
        {
          "internalType": "string",
          "name": "_dealID",
          "type": "string"
        },
        {
          "internalType": "address",
          "name": "_bondContract",
          "type": "address"
        }
      ],
      "name": "redeem",
      "outputs": [],
      "stateMutability": "nonpayable",
      "type": "function"
    },
    {
      "inputs": [
        {
          "internalType": "string",
          "name": "_dealID",
          "type": "string"
        },
        {
          "internalType": "uint256",
          "name": "_amount",
          "type": "uint256"
        }
      ],
      "name": "registerForDeal",
      "outputs": [],
      "stateMutability": "nonpayable",
      "type": "function"
    },
    {
      "inputs": [
        {
          "internalType": "string",
          "name": "_dealID",
          "type": "string"
        }
      ],
      "name": "rejectDeal",
      "outputs": [],
      "stateMutability": "nonpayable",
      "type": "function"
    },
    {
      "inputs": [],
      "name": "rolesContract",
      "outputs": [
        {
          "internalType": "address",
          "name": "",
          "type": "address"
        }
      ],
      "stateMutability": "view",
      "type": "function"
    },
    {
      "inputs": [
        {
          "internalType": "string",
          "name": "_dealID",
          "type": "string"
        },
        {
          "internalType": "address",
          "name": "_bondContractAddress",
          "type": "address"
        }
      ],
      "name": "setBondContractAddress",
      "outputs": [],
      "stateMutability": "nonpayable",
      "type": "function"
    },
    {
      "inputs": [
        {
          "internalType": "address",
          "name": "_issuerFundContract",
          "type": "address"
        }
      ],
      "name": "setIssuerFundContract",
      "outputs": [],
      "stateMutability": "nonpayable",
      "type": "function"
    },
    {
      "inputs": [
        {
          "internalType": "address",
          "name": "_toposManager",
          "type": "address"
        }
      ],
      "name": "setManager",
      "outputs": [],
      "stateMutability": "nonpayable",
      "type": "function"
    },
    {
      "inputs": [
        {
          "internalType": "string",
          "name": "_dealID",
          "type": "string"
        },
        {
          "components": [
            {
              "internalType": "string",
              "name": "dealID",
              "type": "string"
            },
            {
              "internalType": "string",
              "name": "prospectusURI",
              "type": "string"
            },
            {
              "internalType": "address",
              "name": "issuerAddress",
              "type": "address"
            },
            {
              "internalType": "uint256",
              "name": "debtAmount",
              "type": "uint256"
            },
            {
              "internalType": "uint256",
              "name": "denomination",
              "type": "uint256"
            },
            {
              "internalType": "uint256",
              "name": "couponRate",
              "type": "uint256"
            },
            {
              "internalType": "uint256",
              "name": "couponFrequency",
              "type": "uint256"
            },
            {
              "internalType": "uint256",
              "name": "maturityDate",
              "type": "uint256"
            },
            {
              "internalType": "uint256",
              "name": "index",
              "type": "uint256"
            },
            {
              "internalType": "address",
              "name": "currency",
              "type": "address"
            },
            {
              "internalType": "uint8",
              "name": "couponType",
              "type": "uint8"
            },
            {
              "internalType": "enum BondData.DealStatus",
              "name": "status",
              "type": "uint8"
            }
          ],
          "internalType": "struct BondData.Deal",
          "name": "_deal",
          "type": "tuple"
        }
      ],
      "name": "submitDeal",
      "outputs": [],
      "stateMutability": "nonpayable",
      "type": "function"
    },
    {
      "inputs": [],
      "name": "toposManager",
      "outputs": [
        {
          "internalType": "address",
          "name": "",
          "type": "address"
        }
      ],
      "stateMutability": "view",
      "type": "function"
    },
    {
      "inputs": [
        {
          "internalType": "string",
          "name": "",
          "type": "string"
        }
      ],
      "name": "totalAmountInvestedForDeal",
      "outputs": [
        {
          "internalType": "uint256",
          "name": "",
          "type": "uint256"
        }
      ],
      "stateMutability": "view",
      "type": "function"
    },
    {
      "inputs": [
        {
          "internalType": "string",
          "name": "_dealID",
          "type": "string"
        }
      ],
      "name": "withdrawIssuerFund",
      "outputs": [],
      "stateMutability": "nonpayable",
      "type": "function"
    }
  ],
  "bytecode": "0x60806040523480156200001157600080fd5b506040516200621e3803806200621e8339818101604052810190620000379190620001f2565b84600660006101000a81548173ffffffffffffffffffffffffffffffffffffffff021916908373ffffffffffffffffffffffffffffffffffffffff16021790555083600760006101000a81548173ffffffffffffffffffffffffffffffffffffffff021916908373ffffffffffffffffffffffffffffffffffffffff16021790555082600860006101000a81548173ffffffffffffffffffffffffffffffffffffffff021916908373ffffffffffffffffffffffffffffffffffffffff16021790555081600960006101000a81548173ffffffffffffffffffffffffffffffffffffffff021916908373ffffffffffffffffffffffffffffffffffffffff16021790555080600b8190555050505050506200027a565b600080fd5b600073ffffffffffffffffffffffffffffffffffffffff82169050919050565b60006200017f8262000152565b9050919050565b620001918162000172565b81146200019d57600080fd5b50565b600081519050620001b18162000186565b92915050565b6000819050919050565b620001cc81620001b7565b8114620001d857600080fd5b50565b600081519050620001ec81620001c1565b92915050565b600080600080600060a086880312156200021157620002106200014d565b5b60006200022188828901620001a0565b95505060206200023488828901620001a0565b94505060406200024788828901620001a0565b93505060606200025a88828901620001a0565b92505060806200026d88828901620001db565b9150509295509295909350565b615f94806200028a6000396000f3fe608060405234801561001057600080fd5b50600436106101da5760003560e01c8063754f399a11610104578063ca53b391116100a2578063f3413c4f11610071578063f3413c4f14610584578063fb90e441146105a2578063fe0ab4b3146105c0578063ff6689d0146105f0576101da565b8063ca53b391146104fe578063d0ebdbe71461051c578063d7c4029c14610538578063e707918014610554576101da565b8063a0a57dac116100de578063a0a57dac14610453578063af9080f81461048e578063c3a2a93a146104ac578063c8d7f62e146104ce576101da565b8063754f399a146103fd5780637bafe3d0146104195780637f31ed7314610435576101da565b806336f9c4da1161017c578063507251cb1161014b578063507251cb146103635780635e43522e1461037f5780635ed7e2c11461039d578063605936ea146103cd576101da565b806336f9c4da146102bd57806348f92ee8146102db578063499fa18a146102f757806349f5d1d914610328576101da565b80631882c195116101b85780631882c1951461024b57806319662d8e146102675780631b59122c14610283578063281ddc8e1461029f576101da565b8063041e9b89146101df578063088674e0146102115780630df8bfda1461022f575b600080fd5b6101f960048036038101906101f491906139e5565b61060e565b60405161020893929190613a75565b60405180910390f35b610219610668565b6040516102269190613abb565b60405180910390f35b61024960048036038101906102449190613b62565b61068e565b005b61026560048036038101906102609190613bc2565b610f56565b005b610281600480360381019061027c9190613c43565b610fb7565b005b61029d60048036038101906102989190613cbf565b61147e565b005b6102a761174b565b6040516102b49190613e49565b60405180910390f35b6102c5611824565b6040516102d291906140e9565b60405180910390f35b6102f560048036038101906102f0919061410b565b611ae8565b005b610311600480360381019061030c9190614158565b611d09565b60405161031f9291906141b4565b60405180910390f35b610342600480360381019061033d91906141dd565b611d80565b60405161035a9c9b9a99989796959493929190614285565b60405180910390f35b61037d6004803603810190610378919061436d565b611f67565b005b610387612548565b6040516103949190613abb565b60405180910390f35b6103b760048036038101906103b29190613cbf565b61256e565b6040516103c491906143fd565b60405180910390f35b6103e760048036038101906103e2919061410b565b61259c565b6040516103f491906143fd565b60405180910390f35b6104176004803603810190610412919061410b565b6125c7565b005b610433600480360381019061042e9190614418565b6127e8565b005b61043d61292b565b60405161044a9190613abb565b60405180910390f35b61046d60048036038101906104689190613cbf565b612951565b6040516104859c9b9a99989796959493929190614285565b60405180910390f35b610496612b31565b6040516104a391906143fd565b60405180910390f35b6104b4612b37565b6040516104c5959493929190614445565b60405180910390f35b6104e860048036038101906104e3919061410b565b612c09565b6040516104f59190614576565b60405180910390f35b610506612ce9565b6040516105139190613abb565b60405180910390f35b61053660048036038101906105319190614418565b612d0f565b005b610552600480360381019061054d9190614598565b612e2f565b005b61056e60048036038101906105699190613cbf565b6131b0565b60405161057b9190614703565b60405180910390f35b61058c61344d565b60405161059991906148e4565b60405180910390f35b6105aa613712565b6040516105b79190613abb565b60405180910390f35b6105da60048036038101906105d59190613cbf565b613738565b6040516105e79190613abb565b60405180910390f35b6105f8613781565b60405161060591906143fd565b60405180910390f35b600460205281600052604060002081805160208101820180518482526020830160208501208183528095505050505050600091509150508060000154908060010160009054906101000a900460ff16908060020154905083565b600860009054906101000a900473ffffffffffffffffffffffffffffffffffffffff1681565b33600860009054906101000a900473ffffffffffffffffffffffffffffffffffffffff1673ffffffffffffffffffffffffffffffffffffffff1663b9209e33826040518263ffffffff1660e01b81526004016106ea9190613abb565b602060405180830381865afa158015610707573d6000803e3d6000fd5b505050506040513d601f19601f8201168201806040525081019061072b9190614932565b61076a576040517f08c379a0000000000000000000000000000000000000000000000000000000008152600401610761906149ab565b60405180910390fd5b6002600581111561077e5761077d613ed1565b5b600085856040516107909291906149fb565b908152602001604051809103902060090160159054906101000a900460ff1660058111156107c1576107c0613ed1565b5b146108055783836040517fb71650840000000000000000000000000000000000000000000000000000000081526004016107fc929190614a41565b60405180910390fd5b60008085856040516108189291906149fb565b9081526020016040518091039020600401546000868660405161083c9291906149fb565b908152602001604051809103902060040154846108599190614a94565b6108639190614b05565b146108a557816040517f3728b83d00000000000000000000000000000000000000000000000000000000815260040161089c91906143fd565b60405180910390fd5b600082141580156109045750600084846040516108c39291906149fb565b908152602001604051809103902060030154600385856040516108e79291906149fb565b908152602001604051809103902054836109019190614b36565b11155b610943576040517f08c379a000000000000000000000000000000000000000000000000000000000815260040161093a90614bb6565b60405180910390fd5b81600385856040516109569291906149fb565b90815260200160405180910390205461096f9190614b36565b600385856040516109819291906149fb565b908152602001604051809103902081905550600460003373ffffffffffffffffffffffffffffffffffffffff1673ffffffffffffffffffffffffffffffffffffffff16815260200190815260200160002084846040516109e29291906149fb565b908152602001604051809103902060010160009054906101000a900460ff1615610bee5781600460003373ffffffffffffffffffffffffffffffffffffffff1673ffffffffffffffffffffffffffffffffffffffff1681526020019081526020016000208585604051610a569291906149fb565b908152602001604051809103902060000154610a729190614b36565b60028585604051610a849291906149fb565b9081526020016040518091039020600460003373ffffffffffffffffffffffffffffffffffffffff1673ffffffffffffffffffffffffffffffffffffffff1681526020019081526020016000208686604051610ae19291906149fb565b90815260200160405180910390206002015481548110610b0457610b03614bd6565b5b90600052602060002090600202016001018190555081600460003373ffffffffffffffffffffffffffffffffffffffff1673ffffffffffffffffffffffffffffffffffffffff1681526020019081526020016000208585604051610b699291906149fb565b908152602001604051809103902060000154610b859190614b36565b600460003373ffffffffffffffffffffffffffffffffffffffff1673ffffffffffffffffffffffffffffffffffffffff1681526020019081526020016000208585604051610bd49291906149fb565b908152602001604051809103902060000181905550610d8b565b604051806060016040528083815260200160011515815260200160028686604051610c1a9291906149fb565b908152602001604051809103902080549050815250600460003373ffffffffffffffffffffffffffffffffffffffff1673ffffffffffffffffffffffffffffffffffffffff1681526020019081526020016000208585604051610c7e9291906149fb565b90815260200160405180910390206000820151816000015560208201518160010160006101000a81548160ff0219169083151502179055506040820151816002015590505060028484604051610cd59291906149fb565b908152602001604051809103902060405180604001604052803373ffffffffffffffffffffffffffffffffffffffff16815260200184815250908060018154018082558091505060019003906000526020600020906002020160009091909190915060008201518160000160006101000a81548173ffffffffffffffffffffffffffffffffffffffff021916908373ffffffffffffffffffffffffffffffffffffffff1602179055506020820151816001015550505b600a60009054906101000a900473ffffffffffffffffffffffffffffffffffffffff1673ffffffffffffffffffffffffffffffffffffffff1663925b7cb68585856040518463ffffffff1660e01b8152600401610dea93929190614c05565b600060405180830381600087803b158015610e0457600080fd5b505af1158015610e18573d6000803e3d6000fd5b5050505060008484604051610e2e9291906149fb565b908152602001604051809103902060090160009054906101000a900473ffffffffffffffffffffffffffffffffffffffff1673ffffffffffffffffffffffffffffffffffffffff166323b872dd33600a60009054906101000a900473ffffffffffffffffffffffffffffffffffffffff16670de0b6b3a764000086610eb39190614a94565b6040518463ffffffff1660e01b8152600401610ed193929190614c37565b6020604051808303816000875af1158015610ef0573d6000803e3d6000fd5b505050506040513d601f19601f82011682018060405250810190610f149190614932565b507f0bdaf52b4de514796607307fbbcf007ee6d59e81e1be436b67c5a567a2e8d121848433604051610f4893929190614c6e565b60405180910390a150505050565b80600183604051610f679190614cd1565b908152602001604051809103902060006101000a81548173ffffffffffffffffffffffffffffffffffffffff021916908373ffffffffffffffffffffffffffffffffffffffff1602179055505050565b600760009054906101000a900473ffffffffffffffffffffffffffffffffffffffff1673ffffffffffffffffffffffffffffffffffffffff1663877b9a67336040518263ffffffff1660e01b81526004016110129190613abb565b602060405180830381865afa15801561102f573d6000803e3d6000fd5b505050506040513d601f19601f820116820180604052508101906110539190614932565b611092576040517f08c379a000000000000000000000000000000000000000000000000000000000815260040161108990614d34565b60405180910390fd5b8060400160208101906110a59190614418565b73ffffffffffffffffffffffffffffffffffffffff163373ffffffffffffffffffffffffffffffffffffffff1614611112576040517f08c379a000000000000000000000000000000000000000000000000000000000815260040161110990614da0565b60405180910390fd5b6000600581111561112657611125613ed1565b5b600084846040516111389291906149fb565b908152602001604051809103902060090160159054906101000a900460ff16600581111561116957611168613ed1565b5b146111a9576040517f08c379a00000000000000000000000000000000000000000000000000000000081526004016111a090614e0c565b60405180910390fd5b80600084846040516111bc9291906149fb565b908152602001604051809103902081816111d691906155da565b9050506001600084846040516111ed9291906149fb565b908152602001604051809103902060090160156101000a81548160ff021916908360058111156112205761121f613ed1565b5b0217905550600d805490506000848460405161123d9291906149fb565b908152602001604051809103902060080181905550600d600084846040516112669291906149fb565b908152602001604051809103902090806001815401808255809150506001900390600052602060002090600a0201600090919091909150600082018160000190816112b191906155fe565b50600182018160010190816112c691906155fe565b506002820160009054906101000a900473ffffffffffffffffffffffffffffffffffffffff168160020160006101000a81548173ffffffffffffffffffffffffffffffffffffffff021916908373ffffffffffffffffffffffffffffffffffffffff1602179055506003820154816003015560048201548160040155600582015481600501556006820154816006015560078201548160070155600882015481600801556009820160009054906101000a900473ffffffffffffffffffffffffffffffffffffffff168160090160006101000a81548173ffffffffffffffffffffffffffffffffffffffff021916908373ffffffffffffffffffffffffffffffffffffffff1602179055506009820160149054906101000a900460ff168160090160146101000a81548160ff021916908360ff1602179055506009820160159054906101000a900460ff168160090160156101000a81548160ff0219169083600581111561143757611436613ed1565b5b021790555050507febc5645d06a6c6900ffbabb37c6fc84326bd870990f736254f05abb3287ffd418383836040516114719392919061597a565b60405180910390a1505050565b60008160405161148e9190614cd1565b908152602001604051809103902060020160009054906101000a900473ffffffffffffffffffffffffffffffffffffffff1673ffffffffffffffffffffffffffffffffffffffff163373ffffffffffffffffffffffffffffffffffffffff1614806115465750600660009054906101000a900473ffffffffffffffffffffffffffffffffffffffff1673ffffffffffffffffffffffffffffffffffffffff163373ffffffffffffffffffffffffffffffffffffffff16145b611585576040517f08c379a000000000000000000000000000000000000000000000000000000000815260040161157c906159ff565b60405180910390fd5b600073ffffffffffffffffffffffffffffffffffffffff166000826040516115ad9190614cd1565b908152602001604051809103902060090160009054906101000a900473ffffffffffffffffffffffffffffffffffffffff1673ffffffffffffffffffffffffffffffffffffffff1603611635576040517f08c379a000000000000000000000000000000000000000000000000000000000815260040161162c90615a6b565b60405180910390fd5b600a60009054906101000a900473ffffffffffffffffffffffffffffffffffffffff1673ffffffffffffffffffffffffffffffffffffffff1663e04cd97f826000846040516116849190614cd1565b908152602001604051809103902060020160009054906101000a900473ffffffffffffffffffffffffffffffffffffffff166000856040516116c69190614cd1565b908152602001604051809103902060090160009054906101000a900473ffffffffffffffffffffffffffffffffffffffff166040518463ffffffff1660e01b815260040161171693929190615a8b565b600060405180830381600087803b15801561173057600080fd5b505af1158015611744573d6000803e3d6000fd5b5050505050565b6060600e805480602002602001604051908101604052809291908181526020016000905b8282101561181b57838290600052602060002001805461178e90614ed8565b80601f01602080910402602001604051908101604052809291908181526020018280546117ba90614ed8565b80156118075780601f106117dc57610100808354040283529160200191611807565b820191906000526020600020905b8154815290600101906020018083116117ea57829003601f168201915b50505050508152602001906001019061176f565b50505050905090565b6060600d805480602002602001604051908101604052809291908181526020016000905b82821015611adf57838290600052602060002090600a02016040518061018001604052908160008201805461187c90614ed8565b80601f01602080910402602001604051908101604052809291908181526020018280546118a890614ed8565b80156118f55780601f106118ca576101008083540402835291602001916118f5565b820191906000526020600020905b8154815290600101906020018083116118d857829003601f168201915b5050505050815260200160018201805461190e90614ed8565b80601f016020809104026020016040519081016040528092919081815260200182805461193a90614ed8565b80156119875780601f1061195c57610100808354040283529160200191611987565b820191906000526020600020905b81548152906001019060200180831161196a57829003601f168201915b505050505081526020016002820160009054906101000a900473ffffffffffffffffffffffffffffffffffffffff1673ffffffffffffffffffffffffffffffffffffffff1673ffffffffffffffffffffffffffffffffffffffff1681526020016003820154815260200160048201548152602001600582015481526020016006820154815260200160078201548152602001600882015481526020016009820160009054906101000a900473ffffffffffffffffffffffffffffffffffffffff1673ffffffffffffffffffffffffffffffffffffffff1673ffffffffffffffffffffffffffffffffffffffff1681526020016009820160149054906101000a900460ff1660ff1660ff1681526020016009820160159054906101000a900460ff166005811115611aba57611ab9613ed1565b5b6005811115611acc57611acb613ed1565b5b8152505081526020019060010190611848565b50505050905090565b600660009054906101000a900473ffffffffffffffffffffffffffffffffffffffff1673ffffffffffffffffffffffffffffffffffffffff163373ffffffffffffffffffffffffffffffffffffffff1614611b78576040517f08c379a0000000000000000000000000000000000000000000000000000000008152600401611b6f90615b15565b60405180910390fd5b60016005811115611b8c57611b8b613ed1565b5b60008383604051611b9e9291906149fb565b908152602001604051809103902060090160159054906101000a900460ff166005811115611bcf57611bce613ed1565b5b14611c0f576040517f08c379a0000000000000000000000000000000000000000000000000000000008152600401611c0690614e0c565b60405180910390fd5b600260008383604051611c239291906149fb565b908152602001604051809103902060090160156101000a81548160ff02191690836005811115611c5657611c55613ed1565b5b02179055506002600d60008484604051611c719291906149fb565b90815260200160405180910390206008015481548110611c9457611c93614bd6565b5b90600052602060002090600a020160090160156101000a81548160ff02191690836005811115611cc757611cc6613ed1565b5b02179055507f039501081328ffe3eb02459ad6f6e90b69e23ba1422b574ee84c1f52b2fc03108282604051611cfd929190614a41565b60405180910390a15050565b6002828051602081018201805184825260208301602085012081835280955050505050508181548110611d3b57600080fd5b9060005260206000209060020201600091509150508060000160009054906101000a900473ffffffffffffffffffffffffffffffffffffffff16908060010154905082565b60056020528160005260406000208181548110611d9c57600080fd5b90600052602060002090600a020160009150915050806000018054611dc090614ed8565b80601f0160208091040260200160405190810160405280929190818152602001828054611dec90614ed8565b8015611e395780601f10611e0e57610100808354040283529160200191611e39565b820191906000526020600020905b815481529060010190602001808311611e1c57829003601f168201915b505050505090806001018054611e4e90614ed8565b80601f0160208091040260200160405190810160405280929190818152602001828054611e7a90614ed8565b8015611ec75780601f10611e9c57610100808354040283529160200191611ec7565b820191906000526020600020905b815481529060010190602001808311611eaa57829003601f168201915b5050505050908060020160009054906101000a900473ffffffffffffffffffffffffffffffffffffffff16908060030154908060040154908060050154908060060154908060070154908060080154908060090160009054906101000a900473ffffffffffffffffffffffffffffffffffffffff16908060090160149054906101000a900460ff16908060090160159054906101000a900460ff1690508c565b600660009054906101000a900473ffffffffffffffffffffffffffffffffffffffff1673ffffffffffffffffffffffffffffffffffffffff163373ffffffffffffffffffffffffffffffffffffffff1614611ff7576040517f08c379a0000000000000000000000000000000000000000000000000000000008152600401611fee90615b15565b60405180910390fd5b6002600581111561200b5761200a613ed1565b5b6000858560405161201d9291906149fb565b908152602001604051809103902060090160159054906101000a900460ff16600581111561204e5761204d613ed1565b5b146120925783836040517fb7165084000000000000000000000000000000000000000000000000000000008152600401612089929190614a41565b60405180910390fd5b80600185856040516120a59291906149fb565b908152602001604051809103902060006101000a81548173ffffffffffffffffffffffffffffffffffffffff021916908373ffffffffffffffffffffffffffffffffffffffff1602179055506004600581111561210557612104613ed1565b5b600085856040516121179291906149fb565b908152602001604051809103902060090160159054906101000a900460ff16600581111561214857612147613ed1565b5b50506004600d600086866040516121609291906149fb565b9081526020016040518091039020600801548154811061218357612182614bd6565b5b90600052602060002090600a020160090160156101000a81548160ff021916908360058111156121b6576121b5613ed1565b5b0217905550600560008086866040516121d09291906149fb565b908152602001604051809103902060020160009054906101000a900473ffffffffffffffffffffffffffffffffffffffff1673ffffffffffffffffffffffffffffffffffffffff1673ffffffffffffffffffffffffffffffffffffffff1681526020019081526020016000206000858560405161224e9291906149fb565b908152602001604051809103902090806001815401808255809150506001900390600052602060002090600a02016000909190919091506000820181600001908161229991906155fe565b50600182018160010190816122ae91906155fe565b506002820160009054906101000a900473ffffffffffffffffffffffffffffffffffffffff168160020160006101000a81548173ffffffffffffffffffffffffffffffffffffffff021916908373ffffffffffffffffffffffffffffffffffffffff1602179055506003820154816003015560048201548160040155600582015481600501556006820154816006015560078201548160070155600882015481600801556009820160009054906101000a900473ffffffffffffffffffffffffffffffffffffffff168160090160006101000a81548173ffffffffffffffffffffffffffffffffffffffff021916908373ffffffffffffffffffffffffffffffffffffffff1602179055506009820160149054906101000a900460ff168160090160146101000a81548160ff021916908360ff1602179055506009820160159054906101000a900460ff168160090160156101000a81548160ff0219169083600581111561241f5761241e613ed1565b5b02179055505050600e8484909180600181540180825580915050600190039060005260206000200160009091929091929091929091925091826124639291906150b5565b508073ffffffffffffffffffffffffffffffffffffffff1663d76805aa836040518263ffffffff1660e01b815260040161249d9190615c90565b600060405180830381600087803b1580156124b757600080fd5b505af11580156124cb573d6000803e3d6000fd5b50505050600c8290806001815401808255809150506001900390600052602060002090600b020160009091909190915081816125079190615e6a565b50507f44b55c2d9270546faf6ff2f0acac078011883b82782d9b08de2d3af4543c2b18848460405161253a929190614a41565b60405180910390a150505050565b600960009054906101000a900473ffffffffffffffffffffffffffffffffffffffff1681565b6003818051602081018201805184825260208301602085012081835280955050505050506000915090505481565b6000600383836040516125b09291906149fb565b908152602001604051809103902054905092915050565b600660009054906101000a900473ffffffffffffffffffffffffffffffffffffffff1673ffffffffffffffffffffffffffffffffffffffff163373ffffffffffffffffffffffffffffffffffffffff1614612657576040517f08c379a000000000000000000000000000000000000000000000000000000000815260040161264e90615b15565b60405180910390fd5b6001600581111561266b5761266a613ed1565b5b6000838360405161267d9291906149fb565b908152602001604051809103902060090160159054906101000a900460ff1660058111156126ae576126ad613ed1565b5b146126ee576040517f08c379a00000000000000000000000000000000000000000000000000000000081526004016126e590614e0c565b60405180910390fd5b6003600083836040516127029291906149fb565b908152602001604051809103902060090160156101000a81548160ff0219169083600581111561273557612734613ed1565b5b02179055506003600d600084846040516127509291906149fb565b9081526020016040518091039020600801548154811061277357612772614bd6565b5b90600052602060002090600a020160090160156101000a81548160ff021916908360058111156127a6576127a5613ed1565b5b02179055507f735ccdd611541d36c82a3622baab7f58b8a0f5be664555b0d9c95ddde16096d382826040516127dc929190614a41565b60405180910390a15050565b600660009054906101000a900473ffffffffffffffffffffffffffffffffffffffff1673ffffffffffffffffffffffffffffffffffffffff163373ffffffffffffffffffffffffffffffffffffffff1614612878576040517f08c379a000000000000000000000000000000000000000000000000000000000815260040161286f90615b15565b60405180910390fd5b600073ffffffffffffffffffffffffffffffffffffffff168173ffffffffffffffffffffffffffffffffffffffff16036128e7576040517f08c379a00000000000000000000000000000000000000000000000000000000081526004016128de90615ec4565b60405180910390fd5b80600a60006101000a81548173ffffffffffffffffffffffffffffffffffffffff021916908373ffffffffffffffffffffffffffffffffffffffff16021790555050565b600660009054906101000a900473ffffffffffffffffffffffffffffffffffffffff1681565b60008180516020810182018051848252602083016020850120818352809550505050505060009150905080600001805461298a90614ed8565b80601f01602080910402602001604051908101604052809291908181526020018280546129b690614ed8565b8015612a035780601f106129d857610100808354040283529160200191612a03565b820191906000526020600020905b8154815290600101906020018083116129e657829003601f168201915b505050505090806001018054612a1890614ed8565b80601f0160208091040260200160405190810160405280929190818152602001828054612a4490614ed8565b8015612a915780601f10612a6657610100808354040283529160200191612a91565b820191906000526020600020905b815481529060010190602001808311612a7457829003601f168201915b5050505050908060020160009054906101000a900473ffffffffffffffffffffffffffffffffffffffff16908060030154908060040154908060050154908060060154908060070154908060080154908060090160009054906101000a900473ffffffffffffffffffffffffffffffffffffffff16908060090160149054906101000a900460ff16908060090160159054906101000a900460ff1690508c565b600b5481565b6000806000806000600660009054906101000a900473ffffffffffffffffffffffffffffffffffffffff16600760009054906101000a900473ffffffffffffffffffffffffffffffffffffffff16600860009054906101000a900473ffffffffffffffffffffffffffffffffffffffff16600960009054906101000a900473ffffffffffffffffffffffffffffffffffffffff16600a60009054906101000a900473ffffffffffffffffffffffffffffffffffffffff1680955081965082975083985084995050505050509091929394565b606060028383604051612c1d9291906149fb565b9081526020016040518091039020805480602002602001604051908101604052809291908181526020016000905b82821015612cdd57838290600052602060002090600202016040518060400160405290816000820160009054906101000a900473ffffffffffffffffffffffffffffffffffffffff1673ffffffffffffffffffffffffffffffffffffffff1673ffffffffffffffffffffffffffffffffffffffff16815260200160018201548152505081526020019060010190612c4b565b50505050905092915050565b600760009054906101000a900473ffffffffffffffffffffffffffffffffffffffff1681565b600660009054906101000a900473ffffffffffffffffffffffffffffffffffffffff1673ffffffffffffffffffffffffffffffffffffffff163373ffffffffffffffffffffffffffffffffffffffff1614612d9f576040517f08c379a0000000000000000000000000000000000000000000000000000000008152600401612d9690615b15565b60405180910390fd5b600760009054906101000a900473ffffffffffffffffffffffffffffffffffffffff1673ffffffffffffffffffffffffffffffffffffffff1663cfde1890826040518263ffffffff1660e01b8152600401612dfa9190615f30565b600060405180830381600087803b158015612e1457600080fd5b505af1158015612e28573d6000803e3d6000fd5b5050505050565b600660009054906101000a900473ffffffffffffffffffffffffffffffffffffffff1673ffffffffffffffffffffffffffffffffffffffff163373ffffffffffffffffffffffffffffffffffffffff1614612ebf576040517f08c379a0000000000000000000000000000000000000000000000000000000008152600401612eb690615b15565b60405180910390fd5b60046005811115612ed357612ed2613ed1565b5b60008484604051612ee59291906149fb565b908152602001604051809103902060090160159054906101000a900460ff166005811115612f1657612f15613ed1565b5b14612f5a5782826040517fb7165084000000000000000000000000000000000000000000000000000000008152600401612f51929190614a41565b60405180910390fd5b600580811115612f6d57612f6c613ed1565b5b60008484604051612f7f9291906149fb565b908152602001604051809103902060090160159054906101000a900460ff166005811115612fb057612faf613ed1565b5b50506005600d60008585604051612fc89291906149fb565b90815260200160405180910390206008015481548110612feb57612fea614bd6565b5b90600052602060002090600a020160090160156101000a81548160ff0219169083600581111561301e5761301d613ed1565b5b021790555060058060008086866040516130399291906149fb565b908152602001604051809103902060020160009054906101000a900473ffffffffffffffffffffffffffffffffffffffff1673ffffffffffffffffffffffffffffffffffffffff1673ffffffffffffffffffffffffffffffffffffffff168152602001908152602001600020600085856040516130b79291906149fb565b908152602001604051809103902060080154815481106130da576130d9614bd6565b5b90600052602060002090600a020160090160156101000a81548160ff0219169083600581111561310d5761310c613ed1565b5b02179055508073ffffffffffffffffffffffffffffffffffffffff1663be040fb06040518163ffffffff1660e01b8152600401600060405180830381600087803b15801561315a57600080fd5b505af115801561316e573d6000803e3d6000fd5b505050507fdfdf42ff0d0eb3e6ec5b40d8cf21fb2f7102b67e5e2d56ab36e817f807213c5b83836040516131a3929190614a41565b60405180910390a1505050565b6131b861378b565b6000826040516131c89190614cd1565b9081526020016040518091039020604051806101800160405290816000820180546131f290614ed8565b80601f016020809104026020016040519081016040528092919081815260200182805461321e90614ed8565b801561326b5780601f106132405761010080835404028352916020019161326b565b820191906000526020600020905b81548152906001019060200180831161324e57829003601f168201915b5050505050815260200160018201805461328490614ed8565b80601f01602080910402602001604051908101604052809291908181526020018280546132b090614ed8565b80156132fd5780601f106132d2576101008083540402835291602001916132fd565b820191906000526020600020905b8154815290600101906020018083116132e057829003601f168201915b505050505081526020016002820160009054906101000a900473ffffffffffffffffffffffffffffffffffffffff1673ffffffffffffffffffffffffffffffffffffffff1673ffffffffffffffffffffffffffffffffffffffff1681526020016003820154815260200160048201548152602001600582015481526020016006820154815260200160078201548152602001600882015481526020016009820160009054906101000a900473ffffffffffffffffffffffffffffffffffffffff1673ffffffffffffffffffffffffffffffffffffffff1673ffffffffffffffffffffffffffffffffffffffff1681526020016009820160149054906101000a900460ff1660ff1660ff1681526020016009820160159054906101000a900460ff1660058111156134305761342f613ed1565b5b600581111561344257613441613ed1565b5b815250509050919050565b6060600c805480602002602001604051908101604052809291908181526020016000905b8282101561370957838290600052602060002090600b0201604051806101600160405290816000820180546134a590614ed8565b80601f01602080910402602001604051908101604052809291908181526020018280546134d190614ed8565b801561351e5780601f106134f35761010080835404028352916020019161351e565b820191906000526020600020905b81548152906001019060200180831161350157829003601f168201915b5050505050815260200160018201805461353790614ed8565b80601f016020809104026020016040519081016040528092919081815260200182805461356390614ed8565b80156135b05780601f10613585576101008083540402835291602001916135b0565b820191906000526020600020905b81548152906001019060200180831161359357829003601f168201915b505050505081526020016002820180546135c990614ed8565b80601f01602080910402602001604051908101604052809291908181526020018280546135f590614ed8565b80156136425780601f1061361757610100808354040283529160200191613642565b820191906000526020600020905b81548152906001019060200180831161362557829003601f168201915b505050505081526020016003820160009054906101000a900473ffffffffffffffffffffffffffffffffffffffff1673ffffffffffffffffffffffffffffffffffffffff1673ffffffffffffffffffffffffffffffffffffffff1681526020016004820154815260200160058201548152602001600682015481526020016007820160009054906101000a900460ff1660ff1660ff1681526020016008820154815260200160098201548152602001600a8201548152505081526020019060010190613471565b50505050905090565b600a60009054906101000a900473ffffffffffffffffffffffffffffffffffffffff1681565b6001818051602081018201805184825260208301602085012081835280955050505050506000915054906101000a900473ffffffffffffffffffffffffffffffffffffffff1681565b6000600b54905090565b6040518061018001604052806060815260200160608152602001600073ffffffffffffffffffffffffffffffffffffffff168152602001600081526020016000815260200160008152602001600081526020016000815260200160008152602001600073ffffffffffffffffffffffffffffffffffffffff168152602001600060ff1681526020016000600581111561382757613826613ed1565b5b81525090565b6000604051905090565b600080fd5b600080fd5b600073ffffffffffffffffffffffffffffffffffffffff82169050919050565b600061386c82613841565b9050919050565b61387c81613861565b811461388757600080fd5b50565b60008135905061389981613873565b92915050565b600080fd5b600080fd5b6000601f19601f8301169050919050565b7f4e487b7100000000000000000000000000000000000000000000000000000000600052604160045260246000fd5b6138f2826138a9565b810181811067ffffffffffffffff82111715613911576139106138ba565b5b80604052505050565b600061392461382d565b905061393082826138e9565b919050565b600067ffffffffffffffff8211156139505761394f6138ba565b5b613959826138a9565b9050602081019050919050565b82818337600083830152505050565b600061398861398384613935565b61391a565b9050828152602081018484840111156139a4576139a36138a4565b5b6139af848285613966565b509392505050565b600082601f8301126139cc576139cb61389f565b5b81356139dc848260208601613975565b91505092915050565b600080604083850312156139fc576139fb613837565b5b6000613a0a8582860161388a565b925050602083013567ffffffffffffffff811115613a2b57613a2a61383c565b5b613a37858286016139b7565b9150509250929050565b6000819050919050565b613a5481613a41565b82525050565b60008115159050919050565b613a6f81613a5a565b82525050565b6000606082019050613a8a6000830186613a4b565b613a976020830185613a66565b613aa46040830184613a4b565b949350505050565b613ab581613861565b82525050565b6000602082019050613ad06000830184613aac565b92915050565b600080fd5b600080fd5b60008083601f840112613af657613af561389f565b5b8235905067ffffffffffffffff811115613b1357613b12613ad6565b5b602083019150836001820283011115613b2f57613b2e613adb565b5b9250929050565b613b3f81613a41565b8114613b4a57600080fd5b50565b600081359050613b5c81613b36565b92915050565b600080600060408486031215613b7b57613b7a613837565b5b600084013567ffffffffffffffff811115613b9957613b9861383c565b5b613ba586828701613ae0565b93509350506020613bb886828701613b4d565b9150509250925092565b60008060408385031215613bd957613bd8613837565b5b600083013567ffffffffffffffff811115613bf757613bf661383c565b5b613c03858286016139b7565b9250506020613c148582860161388a565b9150509250929050565b600080fd5b60006101808284031215613c3a57613c39613c1e565b5b81905092915050565b600080600060408486031215613c5c57613c5b613837565b5b600084013567ffffffffffffffff811115613c7a57613c7961383c565b5b613c8686828701613ae0565b9350935050602084013567ffffffffffffffff811115613ca957613ca861383c565b5b613cb586828701613c23565b9150509250925092565b600060208284031215613cd557613cd4613837565b5b600082013567ffffffffffffffff811115613cf357613cf261383c565b5b613cff848285016139b7565b91505092915050565b600081519050919050565b600082825260208201905092915050565b6000819050602082019050919050565b600081519050919050565b600082825260208201905092915050565b60005b83811015613d6e578082015181840152602081019050613d53565b60008484015250505050565b6000613d8582613d34565b613d8f8185613d3f565b9350613d9f818560208601613d50565b613da8816138a9565b840191505092915050565b6000613dbf8383613d7a565b905092915050565b6000602082019050919050565b6000613ddf82613d08565b613de98185613d13565b935083602082028501613dfb85613d24565b8060005b85811015613e375784840389528151613e188582613db3565b9450613e2383613dc7565b925060208a01995050600181019050613dff565b50829750879550505050505092915050565b60006020820190508181036000830152613e638184613dd4565b905092915050565b600081519050919050565b600082825260208201905092915050565b6000819050602082019050919050565b613ea081613861565b82525050565b613eaf81613a41565b82525050565b600060ff82169050919050565b613ecb81613eb5565b82525050565b7f4e487b7100000000000000000000000000000000000000000000000000000000600052602160045260246000fd5b60068110613f1157613f10613ed1565b5b50565b6000819050613f2282613f00565b919050565b6000613f3282613f14565b9050919050565b613f4281613f27565b82525050565b6000610180830160008301518482036000860152613f668282613d7a565b91505060208301518482036020860152613f808282613d7a565b9150506040830151613f956040860182613e97565b506060830151613fa86060860182613ea6565b506080830151613fbb6080860182613ea6565b5060a0830151613fce60a0860182613ea6565b5060c0830151613fe160c0860182613ea6565b5060e0830151613ff460e0860182613ea6565b50610100830151614009610100860182613ea6565b5061012083015161401e610120860182613e97565b50610140830151614033610140860182613ec2565b50610160830151614048610160860182613f39565b508091505092915050565b600061405f8383613f48565b905092915050565b6000602082019050919050565b600061407f82613e6b565b6140898185613e76565b93508360208202850161409b85613e87565b8060005b858110156140d757848403895281516140b88582614053565b94506140c383614067565b925060208a0199505060018101905061409f565b50829750879550505050505092915050565b600060208201905081810360008301526141038184614074565b905092915050565b6000806020838503121561412257614121613837565b5b600083013567ffffffffffffffff8111156141405761413f61383c565b5b61414c85828601613ae0565b92509250509250929050565b6000806040838503121561416f5761416e613837565b5b600083013567ffffffffffffffff81111561418d5761418c61383c565b5b614199858286016139b7565b92505060206141aa85828601613b4d565b9150509250929050565b60006040820190506141c96000830185613aac565b6141d66020830184613a4b565b9392505050565b600080604083850312156141f4576141f3613837565b5b60006142028582860161388a565b925050602061421385828601613b4d565b9150509250929050565b600082825260208201905092915050565b600061423982613d34565b614243818561421d565b9350614253818560208601613d50565b61425c816138a9565b840191505092915050565b61427081613eb5565b82525050565b61427f81613f27565b82525050565b60006101808201905081810360008301526142a0818f61422e565b905081810360208301526142b4818e61422e565b90506142c3604083018d613aac565b6142d0606083018c613a4b565b6142dd608083018b613a4b565b6142ea60a083018a613a4b565b6142f760c0830189613a4b565b61430460e0830188613a4b565b614312610100830187613a4b565b614320610120830186613aac565b61432e610140830185614267565b61433c610160830184614276565b9d9c50505050505050505050505050565b6000610160828403121561436457614363613c1e565b5b81905092915050565b6000806000806060858703121561438757614386613837565b5b600085013567ffffffffffffffff8111156143a5576143a461383c565b5b6143b187828801613ae0565b9450945050602085013567ffffffffffffffff8111156143d4576143d361383c565b5b6143e08782880161434d565b92505060406143f18782880161388a565b91505092959194509250565b60006020820190506144126000830184613a4b565b92915050565b60006020828403121561442e5761442d613837565b5b600061443c8482850161388a565b91505092915050565b600060a08201905061445a6000830188613aac565b6144676020830187613aac565b6144746040830186613aac565b6144816060830185613aac565b61448e6080830184613aac565b9695505050505050565b600081519050919050565b600082825260208201905092915050565b6000819050602082019050919050565b6040820160008201516144da6000850182613e97565b5060208201516144ed6020850182613ea6565b50505050565b60006144ff83836144c4565b60408301905092915050565b6000602082019050919050565b600061452382614498565b61452d81856144a3565b9350614538836144b4565b8060005b8381101561456957815161455088826144f3565b975061455b8361450b565b92505060018101905061453c565b5085935050505092915050565b600060208201905081810360008301526145908184614518565b905092915050565b6000806000604084860312156145b1576145b0613837565b5b600084013567ffffffffffffffff8111156145cf576145ce61383c565b5b6145db86828701613ae0565b935093505060206145ee8682870161388a565b9150509250925092565b60006101808301600083015184820360008601526146168282613d7a565b915050602083015184820360208601526146308282613d7a565b91505060408301516146456040860182613e97565b5060608301516146586060860182613ea6565b50608083015161466b6080860182613ea6565b5060a083015161467e60a0860182613ea6565b5060c083015161469160c0860182613ea6565b5060e08301516146a460e0860182613ea6565b506101008301516146b9610100860182613ea6565b506101208301516146ce610120860182613e97565b506101408301516146e3610140860182613ec2565b506101608301516146f8610160860182613f39565b508091505092915050565b6000602082019050818103600083015261471d81846145f8565b905092915050565b600081519050919050565b600082825260208201905092915050565b6000819050602082019050919050565b600061016083016000830151848203600086015261476f8282613d7a565b915050602083015184820360208601526147898282613d7a565b915050604083015184820360408601526147a38282613d7a565b91505060608301516147b86060860182613e97565b5060808301516147cb6080860182613ea6565b5060a08301516147de60a0860182613ea6565b5060c08301516147f160c0860182613ea6565b5060e083015161480460e0860182613ec2565b50610100830151614819610100860182613ea6565b5061012083015161482e610120860182613ea6565b50610140830151614843610140860182613ea6565b508091505092915050565b600061485a8383614751565b905092915050565b6000602082019050919050565b600061487a82614725565b6148848185614730565b93508360208202850161489685614741565b8060005b858110156148d257848403895281516148b3858261484e565b94506148be83614862565b925060208a0199505060018101905061489a565b50829750879550505050505092915050565b600060208201905081810360008301526148fe818461486f565b905092915050565b61490f81613a5a565b811461491a57600080fd5b50565b60008151905061492c81614906565b92915050565b60006020828403121561494857614947613837565b5b60006149568482850161491d565b91505092915050565b7f4143434f554e545f4e4f545f414150524f564544000000000000000000000000600082015250565b600061499560148361421d565b91506149a08261495f565b602082019050919050565b600060208201905081810360008301526149c481614988565b9050919050565b600081905092915050565b60006149e283856149cb565b93506149ef838584613966565b82840190509392505050565b6000614a088284866149d6565b91508190509392505050565b6000614a20838561421d565b9350614a2d838584613966565b614a36836138a9565b840190509392505050565b60006020820190508181036000830152614a5c818486614a14565b90509392505050565b7f4e487b7100000000000000000000000000000000000000000000000000000000600052601160045260246000fd5b6000614a9f82613a41565b9150614aaa83613a41565b9250828202614ab881613a41565b91508282048414831517614acf57614ace614a65565b5b5092915050565b7f4e487b7100000000000000000000000000000000000000000000000000000000600052601260045260246000fd5b6000614b1082613a41565b9150614b1b83613a41565b925082614b2b57614b2a614ad6565b5b828206905092915050565b6000614b4182613a41565b9150614b4c83613a41565b9250828201905080821115614b6457614b63614a65565b5b92915050565b7f494e56414c49445f414d4f554e54000000000000000000000000000000000000600082015250565b6000614ba0600e8361421d565b9150614bab82614b6a565b602082019050919050565b60006020820190508181036000830152614bcf81614b93565b9050919050565b7f4e487b7100000000000000000000000000000000000000000000000000000000600052603260045260246000fd5b60006040820190508181036000830152614c20818587614a14565b9050614c2f6020830184613a4b565b949350505050565b6000606082019050614c4c6000830186613aac565b614c596020830185613aac565b614c666040830184613a4b565b949350505050565b60006040820190508181036000830152614c89818587614a14565b9050614c986020830184613aac565b949350505050565b6000614cab82613d34565b614cb581856149cb565b9350614cc5818560208601613d50565b80840191505092915050565b6000614cdd8284614ca0565b915081905092915050565b7f4f4e4c595f495353554552530000000000000000000000000000000000000000600082015250565b6000614d1e600c8361421d565b9150614d2982614ce8565b602082019050919050565b60006020820190508181036000830152614d4d81614d11565b9050919050565b7f494e56414c49445f4953535545525f4144445245535300000000000000000000600082015250565b6000614d8a60168361421d565b9150614d9582614d54565b602082019050919050565b60006020820190508181036000830152614db981614d7d565b9050919050565b7f494e56414c49445f4445414c5f53544154555300000000000000000000000000600082015250565b6000614df660138361421d565b9150614e0182614dc0565b602082019050919050565b60006020820190508181036000830152614e2581614de9565b9050919050565b600080fd5b600080fd5b600080fd5b60008083356001602003843603038112614e5857614e57614e2c565b5b80840192508235915067ffffffffffffffff821115614e7a57614e79614e31565b5b602083019250600182023603831315614e9657614e95614e36565b5b509250929050565b600082905092915050565b7f4e487b7100000000000000000000000000000000000000000000000000000000600052602260045260246000fd5b60006002820490506001821680614ef057607f821691505b602082108103614f0357614f02614ea9565b5b50919050565b60008190508160005260206000209050919050565b60006020601f8301049050919050565b600082821b905092915050565b600060088302614f6b7fffffffffffffffffffffffffffffffffffffffffffffffffffffffffffffffff82614f2e565b614f758683614f2e565b95508019841693508086168417925050509392505050565b6000819050919050565b6000614fb2614fad614fa884613a41565b614f8d565b613a41565b9050919050565b6000819050919050565b614fcc83614f97565b614fe0614fd882614fb9565b848454614f3b565b825550505050565b600090565b614ff5614fe8565b615000818484614fc3565b505050565b5b8181101561502457615019600082614fed565b600181019050615006565b5050565b601f8211156150695761503a81614f09565b61504384614f1e565b81016020851015615052578190505b61506661505e85614f1e565b830182615005565b50505b505050565b600082821c905092915050565b600061508c6000198460080261506e565b1980831691505092915050565b60006150a5838361507b565b9150826002028217905092915050565b6150bf8383614e9e565b67ffffffffffffffff8111156150d8576150d76138ba565b5b6150e28254614ed8565b6150ed828285615028565b6000601f83116001811461511c576000841561510a578287013590505b6151148582615099565b86555061517c565b601f19841661512a86614f09565b60005b828110156151525784890135825560018201915060208501945060208101905061512d565b8683101561516f578489013561516b601f89168261507b565b8355505b6001600288020188555050505b50505050505050565b6151908383836150b5565b505050565b600081356151a281613873565b80915050919050565b60008160001b9050919050565b600073ffffffffffffffffffffffffffffffffffffffff6151d8846151ab565b9350801983169250808416831791505092915050565b60006152096152046151ff84613841565b614f8d565b613841565b9050919050565b600061521b826151ee565b9050919050565b600061522d82615210565b9050919050565b6000819050919050565b61524782615222565b61525a61525382615234565b83546151b8565b8255505050565b6000813561526e81613b36565b80915050919050565b60007fffffffffffffffffffffffffffffffffffffffffffffffffffffffffffffffff6152a3846151ab565b9350801983169250808416831791505092915050565b6152c282614f97565b6152d56152ce82614fb9565b8354615277565b8255505050565b6152e581613eb5565b81146152f057600080fd5b50565b60008135615300816152dc565b80915050919050565b60008160a01b9050919050565b600074ff000000000000000000000000000000000000000061533784615309565b9350801983169250808416831791505092915050565b600061536861536361535e84613eb5565b614f8d565b613eb5565b9050919050565b6000819050919050565b6153828261534d565b61539561538e8261536f565b8354615316565b8255505050565b600681106153a957600080fd5b50565b600081356153b98161539c565b80915050919050565b60008160a81b9050919050565b600075ff0000000000000000000000000000000000000000006153f1846153c2565b9350801983169250808416831791505092915050565b600061541282613f14565b9050919050565b6000819050919050565b61542c82615407565b61543f61543882615419565b83546153cf565b8255505050565b60008101600083016154588185614e3b565b615463818386615185565b5050505060018101602083016154798185614e3b565b615484818386615185565b5050505060028101604083018061549a81615195565b90506154a6818461523e565b5050506003810160608301806154bb81615261565b90506154c781846152b9565b5050506004810160808301806154dc81615261565b90506154e881846152b9565b5050506005810160a08301806154fd81615261565b905061550981846152b9565b5050506006810160c083018061551e81615261565b905061552a81846152b9565b5050506007810160e083018061553f81615261565b905061554b81846152b9565b5050506008810161010083018061556181615261565b905061556d81846152b9565b5050506009810161012083018061558381615195565b905061558f818461523e565b505050600981016101408301806155a5816152f3565b90506155b18184615379565b505050600981016101608301806155c7816153ac565b90506155d38184615423565b5050505050565b6155e48282615446565b5050565b6000815490506155f781614ed8565b9050919050565b81810361560c5750506156e4565b615615826155e8565b67ffffffffffffffff81111561562e5761562d6138ba565b5b6156388254614ed8565b615643828285615028565b6000601f8311600181146156725760008415615660578287015490505b61566a8582615099565b8655506156dd565b601f19841661568087614f09565b965061568b86614f09565b60005b828110156156b35784890154825560018201915060018501945060208101905061568e565b868310156156d057848901546156cc601f89168261507b565b8355505b6001600288020188555050505b5050505050505b565b600080fd5b600080fd5b600080fd5b60008083356001602003843603038112615712576157116156f0565b5b83810192508235915060208301925067ffffffffffffffff82111561573a576157396156e6565b5b6001820236038313156157505761574f6156eb565b5b509250929050565b60006157648385613d3f565b9350615771838584613966565b61577a836138a9565b840190509392505050565b6000615794602084018461388a565b905092915050565b60006157ab6020840184613b4d565b905092915050565b6000813590506157c2816152dc565b92915050565b60006157d760208401846157b3565b905092915050565b6000813590506157ee8161539c565b92915050565b600061580360208401846157df565b905092915050565b6000610180830161581f60008401846156f5565b8583036000870152615832838284615758565b9250505061584360208401846156f5565b8583036020870152615856838284615758565b925050506158676040840184615785565b6158746040860182613e97565b50615882606084018461579c565b61588f6060860182613ea6565b5061589d608084018461579c565b6158aa6080860182613ea6565b506158b860a084018461579c565b6158c560a0860182613ea6565b506158d360c084018461579c565b6158e060c0860182613ea6565b506158ee60e084018461579c565b6158fb60e0860182613ea6565b5061590a61010084018461579c565b615918610100860182613ea6565b50615927610120840184615785565b615935610120860182613e97565b506159446101408401846157c8565b615952610140860182613ec2565b506159616101608401846157f4565b61596f610160860182613f39565b508091505092915050565b60006040820190508181036000830152615995818587614a14565b905081810360208301526159a9818461580b565b9050949350505050565b7f4e4f545f4953535545525f4e4f525f544f504f535f4d414e4147455200000000600082015250565b60006159e9601c8361421d565b91506159f4826159b3565b602082019050919050565b60006020820190508181036000830152615a18816159dc565b9050919050565b7f494e56414c49445f544f4b454e5f414444524553530000000000000000000000600082015250565b6000615a5560158361421d565b9150615a6082615a1f565b602082019050919050565b60006020820190508181036000830152615a8481615a48565b9050919050565b60006060820190508181036000830152615aa5818661422e565b9050615ab46020830185613aac565b615ac16040830184613aac565b949350505050565b7f4f4e4c595f544f504f535f4d414e414745520000000000000000000000000000600082015250565b6000615aff60128361421d565b9150615b0a82615ac9565b602082019050919050565b60006020820190508181036000830152615b2e81615af2565b9050919050565b60006101608301615b4960008401846156f5565b8583036000870152615b5c838284615758565b92505050615b6d60208401846156f5565b8583036020870152615b80838284615758565b92505050615b9160408401846156f5565b8583036040870152615ba4838284615758565b92505050615bb56060840184615785565b615bc26060860182613e97565b50615bd0608084018461579c565b615bdd6080860182613ea6565b50615beb60a084018461579c565b615bf860a0860182613ea6565b50615c0660c084018461579c565b615c1360c0860182613ea6565b50615c2160e08401846157c8565b615c2e60e0860182613ec2565b50615c3d61010084018461579c565b615c4b610100860182613ea6565b50615c5a61012084018461579c565b615c68610120860182613ea6565b50615c7761014084018461579c565b615c85610140860182613ea6565b508091505092915050565b60006020820190508181036000830152615caa8184615b35565b905092915050565b600060ff615cbf846151ab565b9350801983169250808416831791505092915050565b615cde8261534d565b615cf1615cea8261536f565b8354615cb2565b8255505050565b6000810160008301615d0a8185614e3b565b615d15818386615185565b505050506001810160208301615d2b8185614e3b565b615d36818386615185565b505050506002810160408301615d4c8185614e3b565b615d57818386615185565b50505050600381016060830180615d6d81615195565b9050615d79818461523e565b505050600481016080830180615d8e81615261565b9050615d9a81846152b9565b5050506005810160a0830180615daf81615261565b9050615dbb81846152b9565b5050506006810160c0830180615dd081615261565b9050615ddc81846152b9565b5050506007810160e0830180615df1816152f3565b9050615dfd8184615cd5565b50505060088101610100830180615e1381615261565b9050615e1f81846152b9565b50505060098101610120830180615e3581615261565b9050615e4181846152b9565b505050600a8101610140830180615e5781615261565b9050615e6381846152b9565b5050505050565b615e748282615cf8565b5050565b7f494e56414c49445f434f4e54524143545f414444524553530000000000000000600082015250565b6000615eae60188361421d565b9150615eb982615e78565b602082019050919050565b60006020820190508181036000830152615edd81615ea1565b9050919050565b7f4d414e4147455200000000000000000000000000000000000000000000000000600082015250565b6000615f1a60078361421d565b9150615f2582615ee4565b602082019050919050565b60006040820190508181036000830152615f4981615f0d565b9050615f586020830184613aac565b9291505056fea264697066735822122026f516acec5e63148134204abb0108d6e5efe30bd499f771a99dc06dcc30a98164736f6c63430008130033",
  "linkReferences": {},
  "deployedLinkReferences": {}
}