{
  "_format": "hh-sol-artifact-1",
  "contractName": "ToposBank",
  "sourceName": "contracts/Topos/Bank/ToposBank.sol",
  "abi": [
    {
      "inputs": [
        {
          "internalType": "address",
          "name": "_toposManager",
          "type": "address"
        },
        {
          "internalType": "address",
          "name": "_rolesContract",
          "type": "address"
        },
        {
          "internalType": "address",
          "name": "_identityRegistryContract",
          "type": "address"
        },
        {
          "internalType": "address",
          "name": "_bondCallContract",
          "type": "address"
        },
        {
          "internalType": "uint256",
          "name": "_dealFees",
          "type": "uint256"
        }
      ],
      "stateMutability": "nonpayable",
      "type": "constructor"
    },
    {
      "inputs": [
        {
          "internalType": "string",
          "name": "dealID",
          "type": "string"
        }
      ],
      "name": "InvalidDealStatus",
      "type": "error"
    },
    {
      "anonymous": false,
      "inputs": [
        {
          "indexed": false,
          "internalType": "string",
          "name": "_dealID",
          "type": "string"
        }
      ],
      "name": "BondIssue",
      "type": "event"
    },
    {
      "anonymous": false,
      "inputs": [
        {
          "indexed": false,
          "internalType": "string",
          "name": "_dealID",
          "type": "string"
        }
      ],
      "name": "BondRedeem",
      "type": "event"
    },
    {
      "anonymous": false,
      "inputs": [
        {
          "indexed": false,
          "internalType": "string",
          "name": "dealID",
          "type": "string"
        }
      ],
      "name": "DealAPproved",
      "type": "event"
    },
    {
      "anonymous": false,
      "inputs": [
        {
          "indexed": false,
          "internalType": "string",
          "name": "dealID",
          "type": "string"
        }
      ],
      "name": "DealARejected",
      "type": "event"
    },
    {
      "anonymous": false,
      "inputs": [
        {
          "indexed": false,
          "internalType": "string",
          "name": "dealID",
          "type": "string"
        },
        {
          "components": [
            {
              "internalType": "string",
              "name": "dealID",
              "type": "string"
            },
            {
              "internalType": "string",
              "name": "prospectusURI",
              "type": "string"
            },
            {
              "internalType": "address",
              "name": "issuerAddress",
              "type": "address"
            },
            {
              "internalType": "uint256",
              "name": "debtAmount",
              "type": "uint256"
            },
            {
              "internalType": "uint256",
              "name": "couponRate",
              "type": "uint256"
            },
            {
              "internalType": "uint256",
              "name": "couponFrequency",
              "type": "uint256"
            },
            {
              "internalType": "uint256",
              "name": "maturityDate",
              "type": "uint256"
            },
            {
              "internalType": "uint256",
              "name": "index",
              "type": "uint256"
            },
            {
              "internalType": "address",
              "name": "currency",
              "type": "address"
            },
            {
              "internalType": "uint8",
              "name": "couponType",
              "type": "uint8"
            },
            {
              "internalType": "enum BondData.DealStatus",
              "name": "status",
              "type": "uint8"
            }
          ],
          "indexed": false,
          "internalType": "struct BondData.Deal",
          "name": "deal",
          "type": "tuple"
        }
      ],
      "name": "DealSubmitted",
      "type": "event"
    },
    {
      "anonymous": false,
      "inputs": [
        {
          "indexed": false,
          "internalType": "string",
          "name": "dealID",
          "type": "string"
        },
        {
          "indexed": false,
          "internalType": "address",
          "name": "investor",
          "type": "address"
        }
      ],
      "name": "RegisterForDeal",
      "type": "event"
    },
    {
      "inputs": [
        {
          "internalType": "address",
          "name": "",
          "type": "address"
        },
        {
          "internalType": "string",
          "name": "",
          "type": "string"
        }
      ],
      "name": "amountInvested",
      "outputs": [
        {
          "internalType": "uint256",
          "name": "amount",
          "type": "uint256"
        },
        {
          "internalType": "bool",
          "name": "hasInvested",
          "type": "bool"
        },
        {
          "internalType": "uint256",
          "name": "index",
          "type": "uint256"
        }
      ],
      "stateMutability": "view",
      "type": "function"
    },
    {
      "inputs": [
        {
          "internalType": "string",
          "name": "_dealID",
          "type": "string"
        }
      ],
      "name": "approveDeal",
      "outputs": [],
      "stateMutability": "nonpayable",
      "type": "function"
    },
    {
      "inputs": [],
      "name": "bondCallContract",
      "outputs": [
        {
          "internalType": "address",
          "name": "",
          "type": "address"
        }
      ],
      "stateMutability": "view",
      "type": "function"
    },
    {
      "inputs": [
        {
          "internalType": "string",
          "name": "",
          "type": "string"
        }
      ],
      "name": "dealBondContracts",
      "outputs": [
        {
          "internalType": "address",
          "name": "",
          "type": "address"
        }
      ],
      "stateMutability": "view",
      "type": "function"
    },
    {
      "inputs": [],
      "name": "dealFees",
      "outputs": [
        {
          "internalType": "uint256",
          "name": "",
          "type": "uint256"
        }
      ],
      "stateMutability": "view",
      "type": "function"
    },
    {
      "inputs": [
        {
          "internalType": "string",
          "name": "",
          "type": "string"
        },
        {
          "internalType": "uint256",
          "name": "",
          "type": "uint256"
        }
      ],
      "name": "dealInvestment",
      "outputs": [
        {
          "internalType": "address",
          "name": "investor",
          "type": "address"
        },
        {
          "internalType": "uint256",
          "name": "amount",
          "type": "uint256"
        }
      ],
      "stateMutability": "view",
      "type": "function"
    },
    {
      "inputs": [
        {
          "internalType": "string",
          "name": "",
          "type": "string"
        }
      ],
      "name": "deals",
      "outputs": [
        {
          "internalType": "string",
          "name": "dealID",
          "type": "string"
        },
        {
          "internalType": "string",
          "name": "prospectusURI",
          "type": "string"
        },
        {
          "internalType": "address",
          "name": "issuerAddress",
          "type": "address"
        },
        {
          "internalType": "uint256",
          "name": "debtAmount",
          "type": "uint256"
        },
        {
          "internalType": "uint256",
          "name": "couponRate",
          "type": "uint256"
        },
        {
          "internalType": "uint256",
          "name": "couponFrequency",
          "type": "uint256"
        },
        {
          "internalType": "uint256",
          "name": "maturityDate",
          "type": "uint256"
        },
        {
          "internalType": "uint256",
          "name": "index",
          "type": "uint256"
        },
        {
          "internalType": "address",
          "name": "currency",
          "type": "address"
        },
        {
          "internalType": "uint8",
          "name": "couponType",
          "type": "uint8"
        },
        {
          "internalType": "enum BondData.DealStatus",
          "name": "status",
          "type": "uint8"
        }
      ],
      "stateMutability": "view",
      "type": "function"
    },
    {
      "inputs": [],
      "name": "getContracts",
      "outputs": [
        {
          "internalType": "address",
          "name": "manager",
          "type": "address"
        },
        {
          "internalType": "address",
          "name": "roles",
          "type": "address"
        },
        {
          "internalType": "address",
          "name": "identityRegistry",
          "type": "address"
        },
        {
          "internalType": "address",
          "name": "bondCall",
          "type": "address"
        },
        {
          "internalType": "address",
          "name": "issuerFund",
          "type": "address"
        }
      ],
      "stateMutability": "view",
      "type": "function"
    },
    {
      "inputs": [],
      "name": "getDealFees",
      "outputs": [
        {
          "internalType": "uint256",
          "name": "",
          "type": "uint256"
        }
      ],
      "stateMutability": "view",
      "type": "function"
    },
    {
      "inputs": [
        {
          "internalType": "string",
          "name": "_dealID",
          "type": "string"
        }
      ],
      "name": "getDealInvestment",
      "outputs": [
        {
          "components": [
            {
              "internalType": "address",
              "name": "investor",
              "type": "address"
            },
            {
              "internalType": "uint256",
              "name": "amount",
              "type": "uint256"
            }
          ],
          "internalType": "struct BondData.DealInvestment[]",
          "name": "",
          "type": "tuple[]"
        }
      ],
      "stateMutability": "view",
      "type": "function"
    },
    {
      "inputs": [],
      "name": "getListOfBonds",
      "outputs": [
        {
          "components": [
            {
              "internalType": "string",
              "name": "isin",
              "type": "string"
            },
            {
              "internalType": "string",
              "name": "name",
              "type": "string"
            },
            {
              "internalType": "string",
              "name": "symbol",
              "type": "string"
            },
            {
              "internalType": "address",
              "name": "currency",
              "type": "address"
            },
            {
              "internalType": "uint256",
              "name": "denomination",
              "type": "uint256"
            },
            {
              "internalType": "uint256",
              "name": "issueVolume",
              "type": "uint256"
            },
            {
              "internalType": "uint256",
              "name": "couponRate",
              "type": "uint256"
            },
            {
              "internalType": "uint8",
              "name": "couponType",
              "type": "uint8"
            },
            {
              "internalType": "uint256",
              "name": "couponFrequency",
              "type": "uint256"
            },
            {
              "internalType": "uint256",
              "name": "issueDate",
              "type": "uint256"
            },
            {
              "internalType": "uint256",
              "name": "maturityDate",
              "type": "uint256"
            }
          ],
          "internalType": "struct BondData.Bond[]",
          "name": "",
          "type": "tuple[]"
        }
      ],
      "stateMutability": "view",
      "type": "function"
    },
    {
      "inputs": [],
      "name": "getListOfDeals",
      "outputs": [
        {
          "components": [
            {
              "internalType": "string",
              "name": "dealID",
              "type": "string"
            },
            {
              "internalType": "string",
              "name": "prospectusURI",
              "type": "string"
            },
            {
              "internalType": "address",
              "name": "issuerAddress",
              "type": "address"
            },
            {
              "internalType": "uint256",
              "name": "debtAmount",
              "type": "uint256"
            },
            {
              "internalType": "uint256",
              "name": "couponRate",
              "type": "uint256"
            },
            {
              "internalType": "uint256",
              "name": "couponFrequency",
              "type": "uint256"
            },
            {
              "internalType": "uint256",
              "name": "maturityDate",
              "type": "uint256"
            },
            {
              "internalType": "uint256",
              "name": "index",
              "type": "uint256"
            },
            {
              "internalType": "address",
              "name": "currency",
              "type": "address"
            },
            {
              "internalType": "uint8",
              "name": "couponType",
              "type": "uint8"
            },
            {
              "internalType": "enum BondData.DealStatus",
              "name": "status",
              "type": "uint8"
            }
          ],
          "internalType": "struct BondData.Deal[]",
          "name": "",
          "type": "tuple[]"
        }
      ],
      "stateMutability": "view",
      "type": "function"
    },
    {
      "inputs": [
        {
          "internalType": "string",
          "name": "_dealID",
          "type": "string"
        }
      ],
      "name": "getTotalAmounInvested",
      "outputs": [
        {
          "internalType": "uint256",
          "name": "",
          "type": "uint256"
        }
      ],
      "stateMutability": "view",
      "type": "function"
    },
    {
      "inputs": [],
      "name": "identityRegistryContract",
      "outputs": [
        {
          "internalType": "address",
          "name": "",
          "type": "address"
        }
      ],
      "stateMutability": "view",
      "type": "function"
    },
    {
      "inputs": [
        {
          "internalType": "string",
          "name": "_dealID",
          "type": "string"
        },
        {
          "components": [
            {
              "internalType": "string",
              "name": "isin",
              "type": "string"
            },
            {
              "internalType": "string",
              "name": "name",
              "type": "string"
            },
            {
              "internalType": "string",
              "name": "symbol",
              "type": "string"
            },
            {
              "internalType": "address",
              "name": "currency",
              "type": "address"
            },
            {
              "internalType": "uint256",
              "name": "denomination",
              "type": "uint256"
            },
            {
              "internalType": "uint256",
              "name": "issueVolume",
              "type": "uint256"
            },
            {
              "internalType": "uint256",
              "name": "couponRate",
              "type": "uint256"
            },
            {
              "internalType": "uint8",
              "name": "couponType",
              "type": "uint8"
            },
            {
              "internalType": "uint256",
              "name": "couponFrequency",
              "type": "uint256"
            },
            {
              "internalType": "uint256",
              "name": "issueDate",
              "type": "uint256"
            },
            {
              "internalType": "uint256",
              "name": "maturityDate",
              "type": "uint256"
            }
          ],
          "internalType": "struct BondData.Bond",
          "name": "_bond",
          "type": "tuple"
        },
        {
          "internalType": "address",
          "name": "_bondContract",
          "type": "address"
        }
      ],
      "name": "issue",
      "outputs": [],
      "stateMutability": "nonpayable",
      "type": "function"
    },
    {
      "inputs": [
        {
          "internalType": "address",
          "name": "",
          "type": "address"
        },
        {
          "internalType": "uint256",
          "name": "",
          "type": "uint256"
        }
      ],
      "name": "issuerDeals",
      "outputs": [
        {
          "internalType": "string",
          "name": "dealID",
          "type": "string"
        },
        {
          "internalType": "string",
          "name": "prospectusURI",
          "type": "string"
        },
        {
          "internalType": "address",
          "name": "issuerAddress",
          "type": "address"
        },
        {
          "internalType": "uint256",
          "name": "debtAmount",
          "type": "uint256"
        },
        {
          "internalType": "uint256",
          "name": "couponRate",
          "type": "uint256"
        },
        {
          "internalType": "uint256",
          "name": "couponFrequency",
          "type": "uint256"
        },
        {
          "internalType": "uint256",
          "name": "maturityDate",
          "type": "uint256"
        },
        {
          "internalType": "uint256",
          "name": "index",
          "type": "uint256"
        },
        {
          "internalType": "address",
          "name": "currency",
          "type": "address"
        },
        {
          "internalType": "uint8",
          "name": "couponType",
          "type": "uint8"
        },
        {
          "internalType": "enum BondData.DealStatus",
          "name": "status",
          "type": "uint8"
        }
      ],
      "stateMutability": "view",
      "type": "function"
    },
    {
      "inputs": [],
      "name": "issuersFundContract",
      "outputs": [
        {
          "internalType": "address",
          "name": "",
          "type": "address"
        }
      ],
      "stateMutability": "view",
      "type": "function"
    },
    {
      "inputs": [
        {
          "internalType": "string",
          "name": "_dealID",
          "type": "string"
        },
        {
          "internalType": "address",
          "name": "_bondContract",
          "type": "address"
        }
      ],
      "name": "redeem",
      "outputs": [],
      "stateMutability": "nonpayable",
      "type": "function"
    },
    {
      "inputs": [
        {
          "internalType": "string",
          "name": "_dealID",
          "type": "string"
        },
        {
          "internalType": "uint256",
          "name": "_amount",
          "type": "uint256"
        }
      ],
      "name": "registerForDeal",
      "outputs": [],
      "stateMutability": "nonpayable",
      "type": "function"
    },
    {
      "inputs": [
        {
          "internalType": "string",
          "name": "_dealID",
          "type": "string"
        }
      ],
      "name": "rejectDeal",
      "outputs": [],
      "stateMutability": "nonpayable",
      "type": "function"
    },
    {
      "inputs": [],
      "name": "rolesContract",
      "outputs": [
        {
          "internalType": "address",
          "name": "",
          "type": "address"
        }
      ],
      "stateMutability": "view",
      "type": "function"
    },
    {
      "inputs": [
        {
          "internalType": "string",
          "name": "_dealID",
          "type": "string"
        },
        {
          "internalType": "address",
          "name": "_bondContractAddress",
          "type": "address"
        }
      ],
      "name": "setBondContractAddress",
      "outputs": [],
      "stateMutability": "nonpayable",
      "type": "function"
    },
    {
      "inputs": [
        {
          "internalType": "address",
          "name": "_issuerFundContract",
          "type": "address"
        }
      ],
      "name": "setIssuerFundContract",
      "outputs": [],
      "stateMutability": "nonpayable",
      "type": "function"
    },
    {
      "inputs": [
        {
          "internalType": "address",
          "name": "_toposManager",
          "type": "address"
        }
      ],
      "name": "setManager",
      "outputs": [],
      "stateMutability": "nonpayable",
      "type": "function"
    },
    {
      "inputs": [
        {
          "internalType": "string",
          "name": "_dealID",
          "type": "string"
        },
        {
          "components": [
            {
              "internalType": "string",
              "name": "dealID",
              "type": "string"
            },
            {
              "internalType": "string",
              "name": "prospectusURI",
              "type": "string"
            },
            {
              "internalType": "address",
              "name": "issuerAddress",
              "type": "address"
            },
            {
              "internalType": "uint256",
              "name": "debtAmount",
              "type": "uint256"
            },
            {
              "internalType": "uint256",
              "name": "couponRate",
              "type": "uint256"
            },
            {
              "internalType": "uint256",
              "name": "couponFrequency",
              "type": "uint256"
            },
            {
              "internalType": "uint256",
              "name": "maturityDate",
              "type": "uint256"
            },
            {
              "internalType": "uint256",
              "name": "index",
              "type": "uint256"
            },
            {
              "internalType": "address",
              "name": "currency",
              "type": "address"
            },
            {
              "internalType": "uint8",
              "name": "couponType",
              "type": "uint8"
            },
            {
              "internalType": "enum BondData.DealStatus",
              "name": "status",
              "type": "uint8"
            }
          ],
          "internalType": "struct BondData.Deal",
          "name": "_deal",
          "type": "tuple"
        }
      ],
      "name": "submitDeal",
      "outputs": [],
      "stateMutability": "nonpayable",
      "type": "function"
    },
    {
      "inputs": [],
      "name": "toposManager",
      "outputs": [
        {
          "internalType": "address",
          "name": "",
          "type": "address"
        }
      ],
      "stateMutability": "view",
      "type": "function"
    },
    {
      "inputs": [
        {
          "internalType": "string",
          "name": "",
          "type": "string"
        }
      ],
      "name": "totalAmountInvestedForDeal",
      "outputs": [
        {
          "internalType": "uint256",
          "name": "",
          "type": "uint256"
        }
      ],
      "stateMutability": "view",
      "type": "function"
    },
    {
      "inputs": [
        {
          "internalType": "string",
          "name": "_dealID",
          "type": "string"
        }
      ],
      "name": "withdrawIssuerFund",
      "outputs": [],
      "stateMutability": "nonpayable",
      "type": "function"
    }
  ],
  "bytecode": "0x60806040523480156200001157600080fd5b50604051620059c4380380620059c48339818101604052810190620000379190620001f2565b84600660006101000a81548173ffffffffffffffffffffffffffffffffffffffff021916908373ffffffffffffffffffffffffffffffffffffffff16021790555083600760006101000a81548173ffffffffffffffffffffffffffffffffffffffff021916908373ffffffffffffffffffffffffffffffffffffffff16021790555082600860006101000a81548173ffffffffffffffffffffffffffffffffffffffff021916908373ffffffffffffffffffffffffffffffffffffffff16021790555081600960006101000a81548173ffffffffffffffffffffffffffffffffffffffff021916908373ffffffffffffffffffffffffffffffffffffffff16021790555080600b8190555050505050506200027a565b600080fd5b600073ffffffffffffffffffffffffffffffffffffffff82169050919050565b60006200017f8262000152565b9050919050565b620001918162000172565b81146200019d57600080fd5b50565b600081519050620001b18162000186565b92915050565b6000819050919050565b620001cc81620001b7565b8114620001d857600080fd5b50565b600081519050620001ec81620001c1565b92915050565b600080600080600060a086880312156200021157620002106200014d565b5b60006200022188828901620001a0565b95505060206200023488828901620001a0565b94505060406200024788828901620001a0565b93505060606200025a88828901620001a0565b92505060806200026d88828901620001db565b9150509295509295909350565b61573a806200028a6000396000f3fe608060405234801561001057600080fd5b50600436106101c45760003560e01c8063754f399a116100f9578063ca53b39111610097578063f3413c4f11610071578063f3413c4f1461051e578063fb90e4411461053c578063fe0ab4b31461055a578063ff6689d01461058a576101c4565b8063ca53b391146104c8578063d0ebdbe7146104e6578063d7c4029c14610502576101c4565b8063a0a57dac116100d3578063a0a57dac1461041e578063af9080f814610458578063c3a2a93a14610476578063c8d7f62e14610498576101c4565b8063754f399a146103c85780637bafe3d0146103e45780637f31ed7314610400576101c4565b806348f92ee811610166578063507251cb11610140578063507251cb1461032e5780635e43522e1461034a5780635ed7e2c114610368578063605936ea14610398576101c4565b806348f92ee8146102a7578063499fa18a146102c357806349f5d1d9146102f4576101c4565b80631882c195116101a25780631882c195146102355780631b59122c1461025157806323c8d7061461026d57806336f9c4da14610289576101c4565b8063041e9b89146101c9578063088674e0146101fb5780630df8bfda14610219575b600080fd5b6101e360048036038101906101de919061345f565b6105a8565b6040516101f2939291906134ef565b60405180910390f35b610203610602565b6040516102109190613535565b60405180910390f35b610233600480360381019061022e91906135dc565b610628565b005b61024f600480360381019061024a919061363c565b610e50565b005b61026b60048036038101906102669190613698565b610eb1565b005b61028760048036038101906102829190613706565b61117e565b005b61029161163b565b60405161029e9190613a6a565b60405180910390f35b6102c160048036038101906102bc9190613a8c565b6118f5565b005b6102dd60048036038101906102d89190613ad9565b611b16565b6040516102eb929190613b35565b60405180910390f35b61030e60048036038101906103099190613b5e565b611b8d565b6040516103259b9a99989796959493929190613c06565b60405180910390f35b61034860048036038101906103439190613cdf565b611d6e565b005b610352612307565b60405161035f9190613535565b60405180910390f35b610382600480360381019061037d9190613698565b61232d565b60405161038f9190613d6f565b60405180910390f35b6103b260048036038101906103ad9190613a8c565b61235b565b6040516103bf9190613d6f565b60405180910390f35b6103e260048036038101906103dd9190613a8c565b612386565b005b6103fe60048036038101906103f99190613d8a565b6125a7565b005b6104086126ea565b6040516104159190613535565b60405180910390f35b61043860048036038101906104339190613698565b612710565b60405161044f9b9a99989796959493929190613c06565b60405180910390f35b6104606128ea565b60405161046d9190613d6f565b60405180910390f35b61047e6128f0565b60405161048f959493929190613db7565b60405180910390f35b6104b260048036038101906104ad9190613a8c565b6129c2565b6040516104bf9190613ee8565b60405180910390f35b6104d0612aa2565b6040516104dd9190613535565b60405180910390f35b61050060048036038101906104fb9190613d8a565b612ac8565b005b61051c60048036038101906105179190613f0a565b612be8565b005b610526612f69565b6040516105339190614129565b60405180910390f35b61054461322e565b6040516105519190613535565b60405180910390f35b610574600480360381019061056f9190613698565b613254565b6040516105819190613535565b60405180910390f35b61059261329d565b60405161059f9190613d6f565b60405180910390f35b600460205281600052604060002081805160208101820180518482526020830160208501208183528095505050505050600091509150508060000154908060010160009054906101000a900460ff16908060020154905083565b600860009054906101000a900473ffffffffffffffffffffffffffffffffffffffff1681565b33600860009054906101000a900473ffffffffffffffffffffffffffffffffffffffff1673ffffffffffffffffffffffffffffffffffffffff1663b9209e33826040518263ffffffff1660e01b81526004016106849190613535565b602060405180830381865afa1580156106a1573d6000803e3d6000fd5b505050506040513d601f19601f820116820180604052508101906106c59190614177565b610704576040517f08c379a00000000000000000000000000000000000000000000000000000000081526004016106fb906141f0565b60405180910390fd5b6002600581111561071857610717613867565b5b6000858560405161072a929190614240565b908152602001604051809103902060080160159054906101000a900460ff16600581111561075b5761075a613867565b5b1461079f5783836040517fb7165084000000000000000000000000000000000000000000000000000000008152600401610796929190614286565b60405180910390fd5b600082141580156107fe5750600084846040516107bd929190614240565b908152602001604051809103902060030154600385856040516107e1929190614240565b908152602001604051809103902054836107fb91906142d9565b11155b61083d576040517f08c379a000000000000000000000000000000000000000000000000000000000815260040161083490614359565b60405180910390fd5b8160038585604051610850929190614240565b90815260200160405180910390205461086991906142d9565b6003858560405161087b929190614240565b908152602001604051809103902081905550600460003373ffffffffffffffffffffffffffffffffffffffff1673ffffffffffffffffffffffffffffffffffffffff16815260200190815260200160002084846040516108dc929190614240565b908152602001604051809103902060010160009054906101000a900460ff1615610ae85781600460003373ffffffffffffffffffffffffffffffffffffffff1673ffffffffffffffffffffffffffffffffffffffff1681526020019081526020016000208585604051610950929190614240565b90815260200160405180910390206000015461096c91906142d9565b6002858560405161097e929190614240565b9081526020016040518091039020600460003373ffffffffffffffffffffffffffffffffffffffff1673ffffffffffffffffffffffffffffffffffffffff16815260200190815260200160002086866040516109db929190614240565b908152602001604051809103902060020154815481106109fe576109fd614379565b5b90600052602060002090600202016001018190555081600460003373ffffffffffffffffffffffffffffffffffffffff1673ffffffffffffffffffffffffffffffffffffffff1681526020019081526020016000208585604051610a63929190614240565b908152602001604051809103902060000154610a7f91906142d9565b600460003373ffffffffffffffffffffffffffffffffffffffff1673ffffffffffffffffffffffffffffffffffffffff1681526020019081526020016000208585604051610ace929190614240565b908152602001604051809103902060000181905550610c85565b604051806060016040528083815260200160011515815260200160028686604051610b14929190614240565b908152602001604051809103902080549050815250600460003373ffffffffffffffffffffffffffffffffffffffff1673ffffffffffffffffffffffffffffffffffffffff1681526020019081526020016000208585604051610b78929190614240565b90815260200160405180910390206000820151816000015560208201518160010160006101000a81548160ff0219169083151502179055506040820151816002015590505060028484604051610bcf929190614240565b908152602001604051809103902060405180604001604052803373ffffffffffffffffffffffffffffffffffffffff16815260200184815250908060018154018082558091505060019003906000526020600020906002020160009091909190915060008201518160000160006101000a81548173ffffffffffffffffffffffffffffffffffffffff021916908373ffffffffffffffffffffffffffffffffffffffff1602179055506020820151816001015550505b600a60009054906101000a900473ffffffffffffffffffffffffffffffffffffffff1673ffffffffffffffffffffffffffffffffffffffff1663925b7cb68585856040518463ffffffff1660e01b8152600401610ce4939291906143a8565b600060405180830381600087803b158015610cfe57600080fd5b505af1158015610d12573d6000803e3d6000fd5b5050505060008484604051610d28929190614240565b908152602001604051809103902060080160009054906101000a900473ffffffffffffffffffffffffffffffffffffffff1673ffffffffffffffffffffffffffffffffffffffff166323b872dd33600a60009054906101000a900473ffffffffffffffffffffffffffffffffffffffff16670de0b6b3a764000086610dad91906143da565b6040518463ffffffff1660e01b8152600401610dcb9392919061441c565b6020604051808303816000875af1158015610dea573d6000803e3d6000fd5b505050506040513d601f19601f82011682018060405250810190610e0e9190614177565b507f0bdaf52b4de514796607307fbbcf007ee6d59e81e1be436b67c5a567a2e8d121848433604051610e4293929190614453565b60405180910390a150505050565b80600183604051610e6191906144b6565b908152602001604051809103902060006101000a81548173ffffffffffffffffffffffffffffffffffffffff021916908373ffffffffffffffffffffffffffffffffffffffff1602179055505050565b600081604051610ec191906144b6565b908152602001604051809103902060020160009054906101000a900473ffffffffffffffffffffffffffffffffffffffff1673ffffffffffffffffffffffffffffffffffffffff163373ffffffffffffffffffffffffffffffffffffffff161480610f795750600660009054906101000a900473ffffffffffffffffffffffffffffffffffffffff1673ffffffffffffffffffffffffffffffffffffffff163373ffffffffffffffffffffffffffffffffffffffff16145b610fb8576040517f08c379a0000000000000000000000000000000000000000000000000000000008152600401610faf90614519565b60405180910390fd5b600073ffffffffffffffffffffffffffffffffffffffff16600082604051610fe091906144b6565b908152602001604051809103902060080160009054906101000a900473ffffffffffffffffffffffffffffffffffffffff1673ffffffffffffffffffffffffffffffffffffffff1603611068576040517f08c379a000000000000000000000000000000000000000000000000000000000815260040161105f90614585565b60405180910390fd5b600a60009054906101000a900473ffffffffffffffffffffffffffffffffffffffff1673ffffffffffffffffffffffffffffffffffffffff1663e04cd97f826000846040516110b791906144b6565b908152602001604051809103902060020160009054906101000a900473ffffffffffffffffffffffffffffffffffffffff166000856040516110f991906144b6565b908152602001604051809103902060080160009054906101000a900473ffffffffffffffffffffffffffffffffffffffff166040518463ffffffff1660e01b8152600401611149939291906145a5565b600060405180830381600087803b15801561116357600080fd5b505af1158015611177573d6000803e3d6000fd5b5050505050565b600760009054906101000a900473ffffffffffffffffffffffffffffffffffffffff1673ffffffffffffffffffffffffffffffffffffffff1663877b9a67336040518263ffffffff1660e01b81526004016111d99190613535565b602060405180830381865afa1580156111f6573d6000803e3d6000fd5b505050506040513d601f19601f8201168201806040525081019061121a9190614177565b611259576040517f08c379a00000000000000000000000000000000000000000000000000000000081526004016112509061462f565b60405180910390fd5b80604001602081019061126c9190613d8a565b73ffffffffffffffffffffffffffffffffffffffff163373ffffffffffffffffffffffffffffffffffffffff16146112d9576040517f08c379a00000000000000000000000000000000000000000000000000000000081526004016112d09061469b565b60405180910390fd5b600060058111156112ed576112ec613867565b5b600084846040516112ff929190614240565b908152602001604051809103902060080160159054906101000a900460ff1660058111156113305761132f613867565b5b14611370576040517f08c379a000000000000000000000000000000000000000000000000000000000815260040161136790614707565b60405180910390fd5b8060008484604051611383929190614240565b9081526020016040518091039020818161139d9190614eb3565b9050506001600084846040516113b4929190614240565b908152602001604051809103902060080160156101000a81548160ff021916908360058111156113e7576113e6613867565b5b0217905550600d8054905060008484604051611404929190614240565b908152602001604051809103902060070181905550600d6000848460405161142d929190614240565b90815260200160405180910390209080600181540180825580915050600190039060005260206000209060090201600090919091909150600082018160000190816114789190614ed7565b506001820181600101908161148d9190614ed7565b506002820160009054906101000a900473ffffffffffffffffffffffffffffffffffffffff168160020160006101000a81548173ffffffffffffffffffffffffffffffffffffffff021916908373ffffffffffffffffffffffffffffffffffffffff16021790555060038201548160030155600482015481600401556005820154816005015560068201548160060155600782015481600701556008820160009054906101000a900473ffffffffffffffffffffffffffffffffffffffff168160080160006101000a81548173ffffffffffffffffffffffffffffffffffffffff021916908373ffffffffffffffffffffffffffffffffffffffff1602179055506008820160149054906101000a900460ff168160080160146101000a81548160ff021916908360ff1602179055506008820160159054906101000a900460ff168160080160156101000a81548160ff021916908360058111156115f4576115f3613867565b5b021790555050507fc32e04bf1356c91e89bdc0de134ba5c3fc8df94d30cea4436e9346bc335199ed83838360405161162e93929190615236565b60405180910390a1505050565b6060600d805480602002602001604051908101604052809291908181526020016000905b828210156118ec578382906000526020600020906009020160405180610160016040529081600082018054611693906147d3565b80601f01602080910402602001604051908101604052809291908181526020018280546116bf906147d3565b801561170c5780601f106116e15761010080835404028352916020019161170c565b820191906000526020600020905b8154815290600101906020018083116116ef57829003601f168201915b50505050508152602001600182018054611725906147d3565b80601f0160208091040260200160405190810160405280929190818152602001828054611751906147d3565b801561179e5780601f106117735761010080835404028352916020019161179e565b820191906000526020600020905b81548152906001019060200180831161178157829003601f168201915b505050505081526020016002820160009054906101000a900473ffffffffffffffffffffffffffffffffffffffff1673ffffffffffffffffffffffffffffffffffffffff1673ffffffffffffffffffffffffffffffffffffffff16815260200160038201548152602001600482015481526020016005820154815260200160068201548152602001600782015481526020016008820160009054906101000a900473ffffffffffffffffffffffffffffffffffffffff1673ffffffffffffffffffffffffffffffffffffffff1673ffffffffffffffffffffffffffffffffffffffff1681526020016008820160149054906101000a900460ff1660ff1660ff1681526020016008820160159054906101000a900460ff1660058111156118c7576118c6613867565b5b60058111156118d9576118d8613867565b5b815250508152602001906001019061165f565b50505050905090565b600660009054906101000a900473ffffffffffffffffffffffffffffffffffffffff1673ffffffffffffffffffffffffffffffffffffffff163373ffffffffffffffffffffffffffffffffffffffff1614611985576040517f08c379a000000000000000000000000000000000000000000000000000000000815260040161197c906152bb565b60405180910390fd5b6001600581111561199957611998613867565b5b600083836040516119ab929190614240565b908152602001604051809103902060080160159054906101000a900460ff1660058111156119dc576119db613867565b5b14611a1c576040517f08c379a0000000000000000000000000000000000000000000000000000000008152600401611a1390614707565b60405180910390fd5b600260008383604051611a30929190614240565b908152602001604051809103902060080160156101000a81548160ff02191690836005811115611a6357611a62613867565b5b02179055506002600d60008484604051611a7e929190614240565b90815260200160405180910390206007015481548110611aa157611aa0614379565b5b906000526020600020906009020160080160156101000a81548160ff02191690836005811115611ad457611ad3613867565b5b02179055507f039501081328ffe3eb02459ad6f6e90b69e23ba1422b574ee84c1f52b2fc03108282604051611b0a929190614286565b60405180910390a15050565b6002828051602081018201805184825260208301602085012081835280955050505050508181548110611b4857600080fd5b9060005260206000209060020201600091509150508060000160009054906101000a900473ffffffffffffffffffffffffffffffffffffffff16908060010154905082565b60056020528160005260406000208181548110611ba957600080fd5b906000526020600020906009020160009150915050806000018054611bcd906147d3565b80601f0160208091040260200160405190810160405280929190818152602001828054611bf9906147d3565b8015611c465780601f10611c1b57610100808354040283529160200191611c46565b820191906000526020600020905b815481529060010190602001808311611c2957829003601f168201915b505050505090806001018054611c5b906147d3565b80601f0160208091040260200160405190810160405280929190818152602001828054611c87906147d3565b8015611cd45780601f10611ca957610100808354040283529160200191611cd4565b820191906000526020600020905b815481529060010190602001808311611cb757829003601f168201915b5050505050908060020160009054906101000a900473ffffffffffffffffffffffffffffffffffffffff16908060030154908060040154908060050154908060060154908060070154908060080160009054906101000a900473ffffffffffffffffffffffffffffffffffffffff16908060080160149054906101000a900460ff16908060080160159054906101000a900460ff1690508b565b600660009054906101000a900473ffffffffffffffffffffffffffffffffffffffff1673ffffffffffffffffffffffffffffffffffffffff163373ffffffffffffffffffffffffffffffffffffffff1614611dfe576040517f08c379a0000000000000000000000000000000000000000000000000000000008152600401611df5906152bb565b60405180910390fd5b60026005811115611e1257611e11613867565b5b60008585604051611e24929190614240565b908152602001604051809103902060080160159054906101000a900460ff166005811115611e5557611e54613867565b5b14611e995783836040517fb7165084000000000000000000000000000000000000000000000000000000008152600401611e90929190614286565b60405180910390fd5b8060018585604051611eac929190614240565b908152602001604051809103902060006101000a81548173ffffffffffffffffffffffffffffffffffffffff021916908373ffffffffffffffffffffffffffffffffffffffff16021790555060046005811115611f0c57611f0b613867565b5b60008585604051611f1e929190614240565b908152602001604051809103902060080160159054906101000a900460ff166005811115611f4f57611f4e613867565b5b50506004600d60008686604051611f67929190614240565b90815260200160405180910390206007015481548110611f8a57611f89614379565b5b906000526020600020906009020160080160156101000a81548160ff02191690836005811115611fbd57611fbc613867565b5b021790555060056000808686604051611fd7929190614240565b908152602001604051809103902060020160009054906101000a900473ffffffffffffffffffffffffffffffffffffffff1673ffffffffffffffffffffffffffffffffffffffff1673ffffffffffffffffffffffffffffffffffffffff16815260200190815260200160002060008585604051612055929190614240565b90815260200160405180910390209080600181540180825580915050600190039060005260206000209060090201600090919091909150600082018160000190816120a09190614ed7565b50600182018160010190816120b59190614ed7565b506002820160009054906101000a900473ffffffffffffffffffffffffffffffffffffffff168160020160006101000a81548173ffffffffffffffffffffffffffffffffffffffff021916908373ffffffffffffffffffffffffffffffffffffffff16021790555060038201548160030155600482015481600401556005820154816005015560068201548160060155600782015481600701556008820160009054906101000a900473ffffffffffffffffffffffffffffffffffffffff168160080160006101000a81548173ffffffffffffffffffffffffffffffffffffffff021916908373ffffffffffffffffffffffffffffffffffffffff1602179055506008820160149054906101000a900460ff168160080160146101000a81548160ff021916908360ff1602179055506008820160159054906101000a900460ff168160080160156101000a81548160ff0219169083600581111561221c5761221b613867565b5b021790555050508073ffffffffffffffffffffffffffffffffffffffff1663d76805aa836040518263ffffffff1660e01b815260040161225c9190615436565b600060405180830381600087803b15801561227657600080fd5b505af115801561228a573d6000803e3d6000fd5b50505050600c8290806001815401808255809150506001900390600052602060002090600b020160009091909190915081816122c69190615610565b50507f44b55c2d9270546faf6ff2f0acac078011883b82782d9b08de2d3af4543c2b1884846040516122f9929190614286565b60405180910390a150505050565b600960009054906101000a900473ffffffffffffffffffffffffffffffffffffffff1681565b6003818051602081018201805184825260208301602085012081835280955050505050506000915090505481565b60006003838360405161236f929190614240565b908152602001604051809103902054905092915050565b600660009054906101000a900473ffffffffffffffffffffffffffffffffffffffff1673ffffffffffffffffffffffffffffffffffffffff163373ffffffffffffffffffffffffffffffffffffffff1614612416576040517f08c379a000000000000000000000000000000000000000000000000000000000815260040161240d906152bb565b60405180910390fd5b6001600581111561242a57612429613867565b5b6000838360405161243c929190614240565b908152602001604051809103902060080160159054906101000a900460ff16600581111561246d5761246c613867565b5b146124ad576040517f08c379a00000000000000000000000000000000000000000000000000000000081526004016124a490614707565b60405180910390fd5b6003600083836040516124c1929190614240565b908152602001604051809103902060080160156101000a81548160ff021916908360058111156124f4576124f3613867565b5b02179055506003600d6000848460405161250f929190614240565b9081526020016040518091039020600701548154811061253257612531614379565b5b906000526020600020906009020160080160156101000a81548160ff0219169083600581111561256557612564613867565b5b02179055507f735ccdd611541d36c82a3622baab7f58b8a0f5be664555b0d9c95ddde16096d3828260405161259b929190614286565b60405180910390a15050565b600660009054906101000a900473ffffffffffffffffffffffffffffffffffffffff1673ffffffffffffffffffffffffffffffffffffffff163373ffffffffffffffffffffffffffffffffffffffff1614612637576040517f08c379a000000000000000000000000000000000000000000000000000000000815260040161262e906152bb565b60405180910390fd5b600073ffffffffffffffffffffffffffffffffffffffff168173ffffffffffffffffffffffffffffffffffffffff16036126a6576040517f08c379a000000000000000000000000000000000000000000000000000000000815260040161269d9061566a565b60405180910390fd5b80600a60006101000a81548173ffffffffffffffffffffffffffffffffffffffff021916908373ffffffffffffffffffffffffffffffffffffffff16021790555050565b600660009054906101000a900473ffffffffffffffffffffffffffffffffffffffff1681565b600081805160208101820180518482526020830160208501208183528095505050505050600091509050806000018054612749906147d3565b80601f0160208091040260200160405190810160405280929190818152602001828054612775906147d3565b80156127c25780601f10612797576101008083540402835291602001916127c2565b820191906000526020600020905b8154815290600101906020018083116127a557829003601f168201915b5050505050908060010180546127d7906147d3565b80601f0160208091040260200160405190810160405280929190818152602001828054612803906147d3565b80156128505780601f1061282557610100808354040283529160200191612850565b820191906000526020600020905b81548152906001019060200180831161283357829003601f168201915b5050505050908060020160009054906101000a900473ffffffffffffffffffffffffffffffffffffffff16908060030154908060040154908060050154908060060154908060070154908060080160009054906101000a900473ffffffffffffffffffffffffffffffffffffffff16908060080160149054906101000a900460ff16908060080160159054906101000a900460ff1690508b565b600b5481565b6000806000806000600660009054906101000a900473ffffffffffffffffffffffffffffffffffffffff16600760009054906101000a900473ffffffffffffffffffffffffffffffffffffffff16600860009054906101000a900473ffffffffffffffffffffffffffffffffffffffff16600960009054906101000a900473ffffffffffffffffffffffffffffffffffffffff16600a60009054906101000a900473ffffffffffffffffffffffffffffffffffffffff1680955081965082975083985084995050505050509091929394565b6060600283836040516129d6929190614240565b9081526020016040518091039020805480602002602001604051908101604052809291908181526020016000905b82821015612a9657838290600052602060002090600202016040518060400160405290816000820160009054906101000a900473ffffffffffffffffffffffffffffffffffffffff1673ffffffffffffffffffffffffffffffffffffffff1673ffffffffffffffffffffffffffffffffffffffff16815260200160018201548152505081526020019060010190612a04565b50505050905092915050565b600760009054906101000a900473ffffffffffffffffffffffffffffffffffffffff1681565b600660009054906101000a900473ffffffffffffffffffffffffffffffffffffffff1673ffffffffffffffffffffffffffffffffffffffff163373ffffffffffffffffffffffffffffffffffffffff1614612b58576040517f08c379a0000000000000000000000000000000000000000000000000000000008152600401612b4f906152bb565b60405180910390fd5b600760009054906101000a900473ffffffffffffffffffffffffffffffffffffffff1673ffffffffffffffffffffffffffffffffffffffff1663cfde1890826040518263ffffffff1660e01b8152600401612bb391906156d6565b600060405180830381600087803b158015612bcd57600080fd5b505af1158015612be1573d6000803e3d6000fd5b5050505050565b600660009054906101000a900473ffffffffffffffffffffffffffffffffffffffff1673ffffffffffffffffffffffffffffffffffffffff163373ffffffffffffffffffffffffffffffffffffffff1614612c78576040517f08c379a0000000000000000000000000000000000000000000000000000000008152600401612c6f906152bb565b60405180910390fd5b60046005811115612c8c57612c8b613867565b5b60008484604051612c9e929190614240565b908152602001604051809103902060080160159054906101000a900460ff166005811115612ccf57612cce613867565b5b14612d135782826040517fb7165084000000000000000000000000000000000000000000000000000000008152600401612d0a929190614286565b60405180910390fd5b600580811115612d2657612d25613867565b5b60008484604051612d38929190614240565b908152602001604051809103902060080160159054906101000a900460ff166005811115612d6957612d68613867565b5b50506005600d60008585604051612d81929190614240565b90815260200160405180910390206007015481548110612da457612da3614379565b5b906000526020600020906009020160080160156101000a81548160ff02191690836005811115612dd757612dd6613867565b5b02179055506005806000808686604051612df2929190614240565b908152602001604051809103902060020160009054906101000a900473ffffffffffffffffffffffffffffffffffffffff1673ffffffffffffffffffffffffffffffffffffffff1673ffffffffffffffffffffffffffffffffffffffff16815260200190815260200160002060008585604051612e70929190614240565b90815260200160405180910390206007015481548110612e9357612e92614379565b5b906000526020600020906009020160080160156101000a81548160ff02191690836005811115612ec657612ec5613867565b5b02179055508073ffffffffffffffffffffffffffffffffffffffff1663be040fb06040518163ffffffff1660e01b8152600401600060405180830381600087803b158015612f1357600080fd5b505af1158015612f27573d6000803e3d6000fd5b505050507fdfdf42ff0d0eb3e6ec5b40d8cf21fb2f7102b67e5e2d56ab36e817f807213c5b8383604051612f5c929190614286565b60405180910390a1505050565b6060600c805480602002602001604051908101604052809291908181526020016000905b8282101561322557838290600052602060002090600b020160405180610160016040529081600082018054612fc1906147d3565b80601f0160208091040260200160405190810160405280929190818152602001828054612fed906147d3565b801561303a5780601f1061300f5761010080835404028352916020019161303a565b820191906000526020600020905b81548152906001019060200180831161301d57829003601f168201915b50505050508152602001600182018054613053906147d3565b80601f016020809104026020016040519081016040528092919081815260200182805461307f906147d3565b80156130cc5780601f106130a1576101008083540402835291602001916130cc565b820191906000526020600020905b8154815290600101906020018083116130af57829003601f168201915b505050505081526020016002820180546130e5906147d3565b80601f0160208091040260200160405190810160405280929190818152602001828054613111906147d3565b801561315e5780601f106131335761010080835404028352916020019161315e565b820191906000526020600020905b81548152906001019060200180831161314157829003601f168201915b505050505081526020016003820160009054906101000a900473ffffffffffffffffffffffffffffffffffffffff1673ffffffffffffffffffffffffffffffffffffffff1673ffffffffffffffffffffffffffffffffffffffff1681526020016004820154815260200160058201548152602001600682015481526020016007820160009054906101000a900460ff1660ff1660ff1681526020016008820154815260200160098201548152602001600a8201548152505081526020019060010190612f8d565b50505050905090565b600a60009054906101000a900473ffffffffffffffffffffffffffffffffffffffff1681565b6001818051602081018201805184825260208301602085012081835280955050505050506000915054906101000a900473ffffffffffffffffffffffffffffffffffffffff1681565b6000600b54905090565b6000604051905090565b600080fd5b600080fd5b600073ffffffffffffffffffffffffffffffffffffffff82169050919050565b60006132e6826132bb565b9050919050565b6132f6816132db565b811461330157600080fd5b50565b600081359050613313816132ed565b92915050565b600080fd5b600080fd5b6000601f19601f8301169050919050565b7f4e487b7100000000000000000000000000000000000000000000000000000000600052604160045260246000fd5b61336c82613323565b810181811067ffffffffffffffff8211171561338b5761338a613334565b5b80604052505050565b600061339e6132a7565b90506133aa8282613363565b919050565b600067ffffffffffffffff8211156133ca576133c9613334565b5b6133d382613323565b9050602081019050919050565b82818337600083830152505050565b60006134026133fd846133af565b613394565b90508281526020810184848401111561341e5761341d61331e565b5b6134298482856133e0565b509392505050565b600082601f83011261344657613445613319565b5b81356134568482602086016133ef565b91505092915050565b60008060408385031215613476576134756132b1565b5b600061348485828601613304565b925050602083013567ffffffffffffffff8111156134a5576134a46132b6565b5b6134b185828601613431565b9150509250929050565b6000819050919050565b6134ce816134bb565b82525050565b60008115159050919050565b6134e9816134d4565b82525050565b600060608201905061350460008301866134c5565b61351160208301856134e0565b61351e60408301846134c5565b949350505050565b61352f816132db565b82525050565b600060208201905061354a6000830184613526565b92915050565b600080fd5b600080fd5b60008083601f8401126135705761356f613319565b5b8235905067ffffffffffffffff81111561358d5761358c613550565b5b6020830191508360018202830111156135a9576135a8613555565b5b9250929050565b6135b9816134bb565b81146135c457600080fd5b50565b6000813590506135d6816135b0565b92915050565b6000806000604084860312156135f5576135f46132b1565b5b600084013567ffffffffffffffff811115613613576136126132b6565b5b61361f8682870161355a565b93509350506020613632868287016135c7565b9150509250925092565b60008060408385031215613653576136526132b1565b5b600083013567ffffffffffffffff811115613671576136706132b6565b5b61367d85828601613431565b925050602061368e85828601613304565b9150509250929050565b6000602082840312156136ae576136ad6132b1565b5b600082013567ffffffffffffffff8111156136cc576136cb6132b6565b5b6136d884828501613431565b91505092915050565b600080fd5b600061016082840312156136fd576136fc6136e1565b5b81905092915050565b60008060006040848603121561371f5761371e6132b1565b5b600084013567ffffffffffffffff81111561373d5761373c6132b6565b5b6137498682870161355a565b9350935050602084013567ffffffffffffffff81111561376c5761376b6132b6565b5b613778868287016136e6565b9150509250925092565b600081519050919050565b600082825260208201905092915050565b6000819050602082019050919050565b600081519050919050565b600082825260208201905092915050565b60005b838110156137e85780820151818401526020810190506137cd565b60008484015250505050565b60006137ff826137ae565b61380981856137b9565b93506138198185602086016137ca565b61382281613323565b840191505092915050565b613836816132db565b82525050565b613845816134bb565b82525050565b600060ff82169050919050565b6138618161384b565b82525050565b7f4e487b7100000000000000000000000000000000000000000000000000000000600052602160045260246000fd5b600681106138a7576138a6613867565b5b50565b60008190506138b882613896565b919050565b60006138c8826138aa565b9050919050565b6138d8816138bd565b82525050565b60006101608301600083015184820360008601526138fc82826137f4565b9150506020830151848203602086015261391682826137f4565b915050604083015161392b604086018261382d565b50606083015161393e606086018261383c565b506080830151613951608086018261383c565b5060a083015161396460a086018261383c565b5060c083015161397760c086018261383c565b5060e083015161398a60e086018261383c565b5061010083015161399f61010086018261382d565b506101208301516139b4610120860182613858565b506101408301516139c96101408601826138cf565b508091505092915050565b60006139e083836138de565b905092915050565b6000602082019050919050565b6000613a0082613782565b613a0a818561378d565b935083602082028501613a1c8561379e565b8060005b85811015613a585784840389528151613a3985826139d4565b9450613a44836139e8565b925060208a01995050600181019050613a20565b50829750879550505050505092915050565b60006020820190508181036000830152613a8481846139f5565b905092915050565b60008060208385031215613aa357613aa26132b1565b5b600083013567ffffffffffffffff811115613ac157613ac06132b6565b5b613acd8582860161355a565b92509250509250929050565b60008060408385031215613af057613aef6132b1565b5b600083013567ffffffffffffffff811115613b0e57613b0d6132b6565b5b613b1a85828601613431565b9250506020613b2b858286016135c7565b9150509250929050565b6000604082019050613b4a6000830185613526565b613b5760208301846134c5565b9392505050565b60008060408385031215613b7557613b746132b1565b5b6000613b8385828601613304565b9250506020613b94858286016135c7565b9150509250929050565b600082825260208201905092915050565b6000613bba826137ae565b613bc48185613b9e565b9350613bd48185602086016137ca565b613bdd81613323565b840191505092915050565b613bf18161384b565b82525050565b613c00816138bd565b82525050565b6000610160820190508181036000830152613c21818e613baf565b90508181036020830152613c35818d613baf565b9050613c44604083018c613526565b613c51606083018b6134c5565b613c5e608083018a6134c5565b613c6b60a08301896134c5565b613c7860c08301886134c5565b613c8560e08301876134c5565b613c93610100830186613526565b613ca1610120830185613be8565b613caf610140830184613bf7565b9c9b505050505050505050505050565b60006101608284031215613cd657613cd56136e1565b5b81905092915050565b60008060008060608587031215613cf957613cf86132b1565b5b600085013567ffffffffffffffff811115613d1757613d166132b6565b5b613d238782880161355a565b9450945050602085013567ffffffffffffffff811115613d4657613d456132b6565b5b613d5287828801613cbf565b9250506040613d6387828801613304565b91505092959194509250565b6000602082019050613d8460008301846134c5565b92915050565b600060208284031215613da057613d9f6132b1565b5b6000613dae84828501613304565b91505092915050565b600060a082019050613dcc6000830188613526565b613dd96020830187613526565b613de66040830186613526565b613df36060830185613526565b613e006080830184613526565b9695505050505050565b600081519050919050565b600082825260208201905092915050565b6000819050602082019050919050565b604082016000820151613e4c600085018261382d565b506020820151613e5f602085018261383c565b50505050565b6000613e718383613e36565b60408301905092915050565b6000602082019050919050565b6000613e9582613e0a565b613e9f8185613e15565b9350613eaa83613e26565b8060005b83811015613edb578151613ec28882613e65565b9750613ecd83613e7d565b925050600181019050613eae565b5085935050505092915050565b60006020820190508181036000830152613f028184613e8a565b905092915050565b600080600060408486031215613f2357613f226132b1565b5b600084013567ffffffffffffffff811115613f4157613f406132b6565b5b613f4d8682870161355a565b93509350506020613f6086828701613304565b9150509250925092565b600081519050919050565b600082825260208201905092915050565b6000819050602082019050919050565b6000610160830160008301518482036000860152613fb482826137f4565b91505060208301518482036020860152613fce82826137f4565b91505060408301518482036040860152613fe882826137f4565b9150506060830151613ffd606086018261382d565b506080830151614010608086018261383c565b5060a083015161402360a086018261383c565b5060c083015161403660c086018261383c565b5060e083015161404960e0860182613858565b5061010083015161405e61010086018261383c565b5061012083015161407361012086018261383c565b5061014083015161408861014086018261383c565b508091505092915050565b600061409f8383613f96565b905092915050565b6000602082019050919050565b60006140bf82613f6a565b6140c98185613f75565b9350836020820285016140db85613f86565b8060005b8581101561411757848403895281516140f88582614093565b9450614103836140a7565b925060208a019950506001810190506140df565b50829750879550505050505092915050565b6000602082019050818103600083015261414381846140b4565b905092915050565b614154816134d4565b811461415f57600080fd5b50565b6000815190506141718161414b565b92915050565b60006020828403121561418d5761418c6132b1565b5b600061419b84828501614162565b91505092915050565b7f4143434f554e545f4e4f545f414150524f564544000000000000000000000000600082015250565b60006141da601483613b9e565b91506141e5826141a4565b602082019050919050565b60006020820190508181036000830152614209816141cd565b9050919050565b600081905092915050565b60006142278385614210565b93506142348385846133e0565b82840190509392505050565b600061424d82848661421b565b91508190509392505050565b60006142658385613b9e565b93506142728385846133e0565b61427b83613323565b840190509392505050565b600060208201905081810360008301526142a1818486614259565b90509392505050565b7f4e487b7100000000000000000000000000000000000000000000000000000000600052601160045260246000fd5b60006142e4826134bb565b91506142ef836134bb565b9250828201905080821115614307576143066142aa565b5b92915050565b7f494e56414c49445f414d4f554e54000000000000000000000000000000000000600082015250565b6000614343600e83613b9e565b915061434e8261430d565b602082019050919050565b6000602082019050818103600083015261437281614336565b9050919050565b7f4e487b7100000000000000000000000000000000000000000000000000000000600052603260045260246000fd5b600060408201905081810360008301526143c3818587614259565b90506143d260208301846134c5565b949350505050565b60006143e5826134bb565b91506143f0836134bb565b92508282026143fe816134bb565b91508282048414831517614415576144146142aa565b5b5092915050565b60006060820190506144316000830186613526565b61443e6020830185613526565b61444b60408301846134c5565b949350505050565b6000604082019050818103600083015261446e818587614259565b905061447d6020830184613526565b949350505050565b6000614490826137ae565b61449a8185614210565b93506144aa8185602086016137ca565b80840191505092915050565b60006144c28284614485565b915081905092915050565b7f4e4f545f4953535545525f4e4f525f544f504f535f4d414e4147455200000000600082015250565b6000614503601c83613b9e565b915061450e826144cd565b602082019050919050565b60006020820190508181036000830152614532816144f6565b9050919050565b7f494e56414c49445f544f4b454e5f414444524553530000000000000000000000600082015250565b600061456f601583613b9e565b915061457a82614539565b602082019050919050565b6000602082019050818103600083015261459e81614562565b9050919050565b600060608201905081810360008301526145bf8186613baf565b90506145ce6020830185613526565b6145db6040830184613526565b949350505050565b7f4f4e4c595f495353554552530000000000000000000000000000000000000000600082015250565b6000614619600c83613b9e565b9150614624826145e3565b602082019050919050565b600060208201905081810360008301526146488161460c565b9050919050565b7f494e56414c49445f4953535545525f4144445245535300000000000000000000600082015250565b6000614685601683613b9e565b91506146908261464f565b602082019050919050565b600060208201905081810360008301526146b481614678565b9050919050565b7f494e56414c49445f4445414c5f53544154555300000000000000000000000000600082015250565b60006146f1601383613b9e565b91506146fc826146bb565b602082019050919050565b60006020820190508181036000830152614720816146e4565b9050919050565b600080fd5b600080fd5b600080fd5b6000808335600160200384360303811261475357614752614727565b5b80840192508235915067ffffffffffffffff8211156147755761477461472c565b5b60208301925060018202360383131561479157614790614731565b5b509250929050565b600082905092915050565b7f4e487b7100000000000000000000000000000000000000000000000000000000600052602260045260246000fd5b600060028204905060018216806147eb57607f821691505b6020821081036147fe576147fd6147a4565b5b50919050565b60008190508160005260206000209050919050565b60006020601f8301049050919050565b600082821b905092915050565b6000600883026148667fffffffffffffffffffffffffffffffffffffffffffffffffffffffffffffffff82614829565b6148708683614829565b95508019841693508086168417925050509392505050565b6000819050919050565b60006148ad6148a86148a3846134bb565b614888565b6134bb565b9050919050565b6000819050919050565b6148c783614892565b6148db6148d3826148b4565b848454614836565b825550505050565b600090565b6148f06148e3565b6148fb8184846148be565b505050565b5b8181101561491f576149146000826148e8565b600181019050614901565b5050565b601f8211156149645761493581614804565b61493e84614819565b8101602085101561494d578190505b61496161495985614819565b830182614900565b50505b505050565b600082821c905092915050565b600061498760001984600802614969565b1980831691505092915050565b60006149a08383614976565b9150826002028217905092915050565b6149ba8383614799565b67ffffffffffffffff8111156149d3576149d2613334565b5b6149dd82546147d3565b6149e8828285614923565b6000601f831160018114614a175760008415614a05578287013590505b614a0f8582614994565b865550614a77565b601f198416614a2586614804565b60005b82811015614a4d57848901358255600182019150602085019450602081019050614a28565b86831015614a6a5784890135614a66601f891682614976565b8355505b6001600288020188555050505b50505050505050565b614a8b8383836149b0565b505050565b60008135614a9d816132ed565b80915050919050565b60008160001b9050919050565b600073ffffffffffffffffffffffffffffffffffffffff614ad384614aa6565b9350801983169250808416831791505092915050565b6000614b04614aff614afa846132bb565b614888565b6132bb565b9050919050565b6000614b1682614ae9565b9050919050565b6000614b2882614b0b565b9050919050565b6000819050919050565b614b4282614b1d565b614b55614b4e82614b2f565b8354614ab3565b8255505050565b60008135614b69816135b0565b80915050919050565b60007fffffffffffffffffffffffffffffffffffffffffffffffffffffffffffffffff614b9e84614aa6565b9350801983169250808416831791505092915050565b614bbd82614892565b614bd0614bc9826148b4565b8354614b72565b8255505050565b614be08161384b565b8114614beb57600080fd5b50565b60008135614bfb81614bd7565b80915050919050565b60008160a01b9050919050565b600074ff0000000000000000000000000000000000000000614c3284614c04565b9350801983169250808416831791505092915050565b6000614c63614c5e614c598461384b565b614888565b61384b565b9050919050565b6000819050919050565b614c7d82614c48565b614c90614c8982614c6a565b8354614c11565b8255505050565b60068110614ca457600080fd5b50565b60008135614cb481614c97565b80915050919050565b60008160a81b9050919050565b600075ff000000000000000000000000000000000000000000614cec84614cbd565b9350801983169250808416831791505092915050565b6000614d0d826138aa565b9050919050565b6000819050919050565b614d2782614d02565b614d3a614d3382614d14565b8354614cca565b8255505050565b6000810160008301614d538185614736565b614d5e818386614a80565b505050506001810160208301614d748185614736565b614d7f818386614a80565b50505050600281016040830180614d9581614a90565b9050614da18184614b39565b505050600381016060830180614db681614b5c565b9050614dc28184614bb4565b505050600481016080830180614dd781614b5c565b9050614de38184614bb4565b5050506005810160a0830180614df881614b5c565b9050614e048184614bb4565b5050506006810160c0830180614e1981614b5c565b9050614e258184614bb4565b5050506007810160e0830180614e3a81614b5c565b9050614e468184614bb4565b50505060088101610100830180614e5c81614a90565b9050614e688184614b39565b50505060088101610120830180614e7e81614bee565b9050614e8a8184614c74565b50505060088101610140830180614ea081614ca7565b9050614eac8184614d1e565b5050505050565b614ebd8282614d41565b5050565b600081549050614ed0816147d3565b9050919050565b818103614ee5575050614fbd565b614eee82614ec1565b67ffffffffffffffff811115614f0757614f06613334565b5b614f1182546147d3565b614f1c828285614923565b6000601f831160018114614f4b5760008415614f39578287015490505b614f438582614994565b865550614fb6565b601f198416614f5987614804565b9650614f6486614804565b60005b82811015614f8c57848901548255600182019150600185019450602081019050614f67565b86831015614fa95784890154614fa5601f891682614976565b8355505b6001600288020188555050505b5050505050505b565b600080fd5b600080fd5b600080fd5b60008083356001602003843603038112614feb57614fea614fc9565b5b83810192508235915060208301925067ffffffffffffffff82111561501357615012614fbf565b5b60018202360383131561502957615028614fc4565b5b509250929050565b600061503d83856137b9565b935061504a8385846133e0565b61505383613323565b840190509392505050565b600061506d6020840184613304565b905092915050565b600061508460208401846135c7565b905092915050565b60008135905061509b81614bd7565b92915050565b60006150b0602084018461508c565b905092915050565b6000813590506150c781614c97565b92915050565b60006150dc60208401846150b8565b905092915050565b600061016083016150f86000840184614fce565b858303600087015261510b838284615031565b9250505061511c6020840184614fce565b858303602087015261512f838284615031565b92505050615140604084018461505e565b61514d604086018261382d565b5061515b6060840184615075565b615168606086018261383c565b506151766080840184615075565b615183608086018261383c565b5061519160a0840184615075565b61519e60a086018261383c565b506151ac60c0840184615075565b6151b960c086018261383c565b506151c760e0840184615075565b6151d460e086018261383c565b506151e361010084018461505e565b6151f161010086018261382d565b506152006101208401846150a1565b61520e610120860182613858565b5061521d6101408401846150cd565b61522b6101408601826138cf565b508091505092915050565b60006040820190508181036000830152615251818587614259565b9050818103602083015261526581846150e4565b9050949350505050565b7f4f4e4c595f544f504f535f4d414e414745520000000000000000000000000000600082015250565b60006152a5601283613b9e565b91506152b08261526f565b602082019050919050565b600060208201905081810360008301526152d481615298565b9050919050565b600061016083016152ef6000840184614fce565b8583036000870152615302838284615031565b925050506153136020840184614fce565b8583036020870152615326838284615031565b925050506153376040840184614fce565b858303604087015261534a838284615031565b9250505061535b606084018461505e565b615368606086018261382d565b506153766080840184615075565b615383608086018261383c565b5061539160a0840184615075565b61539e60a086018261383c565b506153ac60c0840184615075565b6153b960c086018261383c565b506153c760e08401846150a1565b6153d460e0860182613858565b506153e3610100840184615075565b6153f161010086018261383c565b50615400610120840184615075565b61540e61012086018261383c565b5061541d610140840184615075565b61542b61014086018261383c565b508091505092915050565b6000602082019050818103600083015261545081846152db565b905092915050565b600060ff61546584614aa6565b9350801983169250808416831791505092915050565b61548482614c48565b61549761549082614c6a565b8354615458565b8255505050565b60008101600083016154b08185614736565b6154bb818386614a80565b5050505060018101602083016154d18185614736565b6154dc818386614a80565b5050505060028101604083016154f28185614736565b6154fd818386614a80565b5050505060038101606083018061551381614a90565b905061551f8184614b39565b50505060048101608083018061553481614b5c565b90506155408184614bb4565b5050506005810160a083018061555581614b5c565b90506155618184614bb4565b5050506006810160c083018061557681614b5c565b90506155828184614bb4565b5050506007810160e083018061559781614bee565b90506155a3818461547b565b505050600881016101008301806155b981614b5c565b90506155c58184614bb4565b505050600981016101208301806155db81614b5c565b90506155e78184614bb4565b505050600a81016101408301806155fd81614b5c565b90506156098184614bb4565b5050505050565b61561a828261549e565b5050565b7f494e56414c49445f434f4e54524143545f414444524553530000000000000000600082015250565b6000615654601883613b9e565b915061565f8261561e565b602082019050919050565b6000602082019050818103600083015261568381615647565b9050919050565b7f4d414e4147455200000000000000000000000000000000000000000000000000600082015250565b60006156c0600783613b9e565b91506156cb8261568a565b602082019050919050565b600060408201905081810360008301526156ef816156b3565b90506156fe6020830184613526565b9291505056fea2646970667358221220049ee9a0c1cd7463f23325840b3366eec459d295b5e077fb94e76c9a78438f4764736f6c63430008130033",
  "linkReferences": {},
  "deployedLinkReferences": {}
}