{
  "_format": "hh-sol-artifact-1",
  "contractName": "ToposBank",
  "sourceName": "contracts/Topos/Bank/ToposBank.sol",
  "abi": [
    {
      "inputs": [
        {
          "internalType": "address",
          "name": "_toposManager",
          "type": "address"
        },
        {
          "internalType": "address",
          "name": "_rolesContract",
          "type": "address"
        },
        {
          "internalType": "address",
          "name": "_identityRegistryContract",
          "type": "address"
        },
        {
          "internalType": "address",
          "name": "_bondCallContract",
          "type": "address"
        },
        {
          "internalType": "uint256",
          "name": "_dealFees",
          "type": "uint256"
        }
      ],
      "stateMutability": "nonpayable",
      "type": "constructor"
    },
    {
      "inputs": [
        {
          "internalType": "uint256",
          "name": "amount",
          "type": "uint256"
        }
      ],
      "name": "InvalidAmount",
      "type": "error"
    },
    {
      "inputs": [
        {
          "internalType": "string",
          "name": "dealID",
          "type": "string"
        }
      ],
      "name": "InvalidDealStatus",
      "type": "error"
    },
    {
      "anonymous": false,
      "inputs": [
        {
          "indexed": false,
          "internalType": "string",
          "name": "_dealID",
          "type": "string"
        }
      ],
      "name": "BondIssue",
      "type": "event"
    },
    {
      "anonymous": false,
      "inputs": [
        {
          "indexed": false,
          "internalType": "string",
          "name": "_dealID",
          "type": "string"
        }
      ],
      "name": "BondRedeem",
      "type": "event"
    },
    {
      "anonymous": false,
      "inputs": [
        {
          "indexed": false,
          "internalType": "string",
          "name": "dealID",
          "type": "string"
        }
      ],
      "name": "DealAPproved",
      "type": "event"
    },
    {
      "anonymous": false,
      "inputs": [
        {
          "indexed": false,
          "internalType": "string",
          "name": "dealID",
          "type": "string"
        }
      ],
      "name": "DealARejected",
      "type": "event"
    },
    {
      "anonymous": false,
      "inputs": [
        {
          "indexed": false,
          "internalType": "string",
          "name": "dealID",
          "type": "string"
        },
        {
          "components": [
            {
              "internalType": "string",
              "name": "dealID",
              "type": "string"
            },
            {
              "internalType": "string",
              "name": "prospectusURI",
              "type": "string"
            },
            {
              "internalType": "address",
              "name": "issuerAddress",
              "type": "address"
            },
            {
              "internalType": "uint256",
              "name": "debtAmount",
              "type": "uint256"
            },
            {
              "internalType": "uint256",
              "name": "denomination",
              "type": "uint256"
            },
            {
              "internalType": "uint256",
              "name": "couponRate",
              "type": "uint256"
            },
            {
              "internalType": "uint256",
              "name": "couponFrequency",
              "type": "uint256"
            },
            {
              "internalType": "uint256",
              "name": "maturityDate",
              "type": "uint256"
            },
            {
              "internalType": "uint256",
              "name": "index",
              "type": "uint256"
            },
            {
              "internalType": "address",
              "name": "currency",
              "type": "address"
            },
            {
              "internalType": "uint8",
              "name": "couponType",
              "type": "uint8"
            },
            {
              "internalType": "enum BondData.DealStatus",
              "name": "status",
              "type": "uint8"
            }
          ],
          "indexed": false,
          "internalType": "struct BondData.Deal",
          "name": "deal",
          "type": "tuple"
        }
      ],
      "name": "DealSubmitted",
      "type": "event"
    },
    {
      "anonymous": false,
      "inputs": [
        {
          "indexed": false,
          "internalType": "string",
          "name": "dealID",
          "type": "string"
        },
        {
          "indexed": false,
          "internalType": "address",
          "name": "investor",
          "type": "address"
        }
      ],
      "name": "RegisterForDeal",
      "type": "event"
    },
    {
      "inputs": [
        {
          "internalType": "address",
          "name": "",
          "type": "address"
        },
        {
          "internalType": "string",
          "name": "",
          "type": "string"
        }
      ],
      "name": "amountInvested",
      "outputs": [
        {
          "internalType": "uint256",
          "name": "amount",
          "type": "uint256"
        },
        {
          "internalType": "bool",
          "name": "hasInvested",
          "type": "bool"
        },
        {
          "internalType": "uint256",
          "name": "index",
          "type": "uint256"
        }
      ],
      "stateMutability": "view",
      "type": "function"
    },
    {
      "inputs": [
        {
          "internalType": "string",
          "name": "_dealID",
          "type": "string"
        }
      ],
      "name": "approveDeal",
      "outputs": [],
      "stateMutability": "nonpayable",
      "type": "function"
    },
    {
      "inputs": [],
      "name": "bondCallContract",
      "outputs": [
        {
          "internalType": "address",
          "name": "",
          "type": "address"
        }
      ],
      "stateMutability": "view",
      "type": "function"
    },
    {
      "inputs": [
        {
          "internalType": "string",
          "name": "",
          "type": "string"
        }
      ],
      "name": "dealBondContracts",
      "outputs": [
        {
          "internalType": "address",
          "name": "",
          "type": "address"
        }
      ],
      "stateMutability": "view",
      "type": "function"
    },
    {
      "inputs": [],
      "name": "dealFees",
      "outputs": [
        {
          "internalType": "uint256",
          "name": "",
          "type": "uint256"
        }
      ],
      "stateMutability": "view",
      "type": "function"
    },
    {
      "inputs": [
        {
          "internalType": "string",
          "name": "",
          "type": "string"
        },
        {
          "internalType": "uint256",
          "name": "",
          "type": "uint256"
        }
      ],
      "name": "dealInvestment",
      "outputs": [
        {
          "internalType": "address",
          "name": "investor",
          "type": "address"
        },
        {
          "internalType": "uint256",
          "name": "amount",
          "type": "uint256"
        }
      ],
      "stateMutability": "view",
      "type": "function"
    },
    {
      "inputs": [
        {
          "internalType": "string",
          "name": "",
          "type": "string"
        }
      ],
      "name": "deals",
      "outputs": [
        {
          "internalType": "string",
          "name": "dealID",
          "type": "string"
        },
        {
          "internalType": "string",
          "name": "prospectusURI",
          "type": "string"
        },
        {
          "internalType": "address",
          "name": "issuerAddress",
          "type": "address"
        },
        {
          "internalType": "uint256",
          "name": "debtAmount",
          "type": "uint256"
        },
        {
          "internalType": "uint256",
          "name": "denomination",
          "type": "uint256"
        },
        {
          "internalType": "uint256",
          "name": "couponRate",
          "type": "uint256"
        },
        {
          "internalType": "uint256",
          "name": "couponFrequency",
          "type": "uint256"
        },
        {
          "internalType": "uint256",
          "name": "maturityDate",
          "type": "uint256"
        },
        {
          "internalType": "uint256",
          "name": "index",
          "type": "uint256"
        },
        {
          "internalType": "address",
          "name": "currency",
          "type": "address"
        },
        {
          "internalType": "uint8",
          "name": "couponType",
          "type": "uint8"
        },
        {
          "internalType": "enum BondData.DealStatus",
          "name": "status",
          "type": "uint8"
        }
      ],
      "stateMutability": "view",
      "type": "function"
    },
    {
      "inputs": [],
      "name": "getContracts",
      "outputs": [
        {
          "internalType": "address",
          "name": "manager",
          "type": "address"
        },
        {
          "internalType": "address",
          "name": "roles",
          "type": "address"
        },
        {
          "internalType": "address",
          "name": "identityRegistry",
          "type": "address"
        },
        {
          "internalType": "address",
          "name": "bondCall",
          "type": "address"
        },
        {
          "internalType": "address",
          "name": "issuerFund",
          "type": "address"
        }
      ],
      "stateMutability": "view",
      "type": "function"
    },
    {
      "inputs": [
        {
          "internalType": "string",
          "name": "_dealID",
          "type": "string"
        }
      ],
      "name": "getDeal",
      "outputs": [
        {
          "components": [
            {
              "internalType": "string",
              "name": "dealID",
              "type": "string"
            },
            {
              "internalType": "string",
              "name": "prospectusURI",
              "type": "string"
            },
            {
              "internalType": "address",
              "name": "issuerAddress",
              "type": "address"
            },
            {
              "internalType": "uint256",
              "name": "debtAmount",
              "type": "uint256"
            },
            {
              "internalType": "uint256",
              "name": "denomination",
              "type": "uint256"
            },
            {
              "internalType": "uint256",
              "name": "couponRate",
              "type": "uint256"
            },
            {
              "internalType": "uint256",
              "name": "couponFrequency",
              "type": "uint256"
            },
            {
              "internalType": "uint256",
              "name": "maturityDate",
              "type": "uint256"
            },
            {
              "internalType": "uint256",
              "name": "index",
              "type": "uint256"
            },
            {
              "internalType": "address",
              "name": "currency",
              "type": "address"
            },
            {
              "internalType": "uint8",
              "name": "couponType",
              "type": "uint8"
            },
            {
              "internalType": "enum BondData.DealStatus",
              "name": "status",
              "type": "uint8"
            }
          ],
          "internalType": "struct BondData.Deal",
          "name": "",
          "type": "tuple"
        }
      ],
      "stateMutability": "view",
      "type": "function"
    },
    {
      "inputs": [
        {
          "internalType": "string",
          "name": "_dealID",
          "type": "string"
        }
      ],
      "name": "getDealBondContract",
      "outputs": [
        {
          "internalType": "address",
          "name": "",
          "type": "address"
        }
      ],
      "stateMutability": "view",
      "type": "function"
    },
    {
      "inputs": [],
      "name": "getDealFees",
      "outputs": [
        {
          "internalType": "uint256",
          "name": "",
          "type": "uint256"
        }
      ],
      "stateMutability": "view",
      "type": "function"
    },
    {
      "inputs": [
        {
          "internalType": "string",
          "name": "_dealID",
          "type": "string"
        }
      ],
      "name": "getDealInvestment",
      "outputs": [
        {
          "components": [
            {
              "internalType": "address",
              "name": "investor",
              "type": "address"
            },
            {
              "internalType": "uint256",
              "name": "amount",
              "type": "uint256"
            }
          ],
          "internalType": "struct BondData.DealInvestment[]",
          "name": "",
          "type": "tuple[]"
        }
      ],
      "stateMutability": "view",
      "type": "function"
    },
    {
      "inputs": [],
      "name": "getListOfBonds",
      "outputs": [
        {
          "components": [
            {
              "internalType": "string",
              "name": "isin",
              "type": "string"
            },
            {
              "internalType": "string",
              "name": "name",
              "type": "string"
            },
            {
              "internalType": "string",
              "name": "symbol",
              "type": "string"
            },
            {
              "internalType": "address",
              "name": "currency",
              "type": "address"
            },
            {
              "internalType": "uint256",
              "name": "denomination",
              "type": "uint256"
            },
            {
              "internalType": "uint256",
              "name": "issueVolume",
              "type": "uint256"
            },
            {
              "internalType": "uint256",
              "name": "couponRate",
              "type": "uint256"
            },
            {
              "internalType": "uint8",
              "name": "couponType",
              "type": "uint8"
            },
            {
              "internalType": "uint256",
              "name": "couponFrequency",
              "type": "uint256"
            },
            {
              "internalType": "uint256",
              "name": "issueDate",
              "type": "uint256"
            },
            {
              "internalType": "uint256",
              "name": "maturityDate",
              "type": "uint256"
            }
          ],
          "internalType": "struct BondData.Bond[]",
          "name": "",
          "type": "tuple[]"
        }
      ],
      "stateMutability": "view",
      "type": "function"
    },
    {
      "inputs": [],
      "name": "getListOfBondsDealIDs",
      "outputs": [
        {
          "internalType": "string[]",
          "name": "",
          "type": "string[]"
        }
      ],
      "stateMutability": "view",
      "type": "function"
    },
    {
      "inputs": [],
      "name": "getListOfDeals",
      "outputs": [
        {
          "components": [
            {
              "internalType": "string",
              "name": "dealID",
              "type": "string"
            },
            {
              "internalType": "string",
              "name": "prospectusURI",
              "type": "string"
            },
            {
              "internalType": "address",
              "name": "issuerAddress",
              "type": "address"
            },
            {
              "internalType": "uint256",
              "name": "debtAmount",
              "type": "uint256"
            },
            {
              "internalType": "uint256",
              "name": "denomination",
              "type": "uint256"
            },
            {
              "internalType": "uint256",
              "name": "couponRate",
              "type": "uint256"
            },
            {
              "internalType": "uint256",
              "name": "couponFrequency",
              "type": "uint256"
            },
            {
              "internalType": "uint256",
              "name": "maturityDate",
              "type": "uint256"
            },
            {
              "internalType": "uint256",
              "name": "index",
              "type": "uint256"
            },
            {
              "internalType": "address",
              "name": "currency",
              "type": "address"
            },
            {
              "internalType": "uint8",
              "name": "couponType",
              "type": "uint8"
            },
            {
              "internalType": "enum BondData.DealStatus",
              "name": "status",
              "type": "uint8"
            }
          ],
          "internalType": "struct BondData.Deal[]",
          "name": "",
          "type": "tuple[]"
        }
      ],
      "stateMutability": "view",
      "type": "function"
    },
    {
      "inputs": [
        {
          "internalType": "string",
          "name": "_dealID",
          "type": "string"
        }
      ],
      "name": "getTotalAmounInvested",
      "outputs": [
        {
          "internalType": "uint256",
          "name": "",
          "type": "uint256"
        }
      ],
      "stateMutability": "view",
      "type": "function"
    },
    {
      "inputs": [],
      "name": "identityRegistryContract",
      "outputs": [
        {
          "internalType": "address",
          "name": "",
          "type": "address"
        }
      ],
      "stateMutability": "view",
      "type": "function"
    },
    {
      "inputs": [
        {
          "internalType": "string",
          "name": "_dealID",
          "type": "string"
        },
        {
          "components": [
            {
              "internalType": "string",
              "name": "isin",
              "type": "string"
            },
            {
              "internalType": "string",
              "name": "name",
              "type": "string"
            },
            {
              "internalType": "string",
              "name": "symbol",
              "type": "string"
            },
            {
              "internalType": "address",
              "name": "currency",
              "type": "address"
            },
            {
              "internalType": "uint256",
              "name": "denomination",
              "type": "uint256"
            },
            {
              "internalType": "uint256",
              "name": "issueVolume",
              "type": "uint256"
            },
            {
              "internalType": "uint256",
              "name": "couponRate",
              "type": "uint256"
            },
            {
              "internalType": "uint8",
              "name": "couponType",
              "type": "uint8"
            },
            {
              "internalType": "uint256",
              "name": "couponFrequency",
              "type": "uint256"
            },
            {
              "internalType": "uint256",
              "name": "issueDate",
              "type": "uint256"
            },
            {
              "internalType": "uint256",
              "name": "maturityDate",
              "type": "uint256"
            }
          ],
          "internalType": "struct BondData.Bond",
          "name": "_bond",
          "type": "tuple"
        },
        {
          "internalType": "address",
          "name": "_bondContract",
          "type": "address"
        }
      ],
      "name": "issue",
      "outputs": [],
      "stateMutability": "nonpayable",
      "type": "function"
    },
    {
      "inputs": [
        {
          "internalType": "address",
          "name": "",
          "type": "address"
        },
        {
          "internalType": "uint256",
          "name": "",
          "type": "uint256"
        }
      ],
      "name": "issuerDeals",
      "outputs": [
        {
          "internalType": "string",
          "name": "dealID",
          "type": "string"
        },
        {
          "internalType": "string",
          "name": "prospectusURI",
          "type": "string"
        },
        {
          "internalType": "address",
          "name": "issuerAddress",
          "type": "address"
        },
        {
          "internalType": "uint256",
          "name": "debtAmount",
          "type": "uint256"
        },
        {
          "internalType": "uint256",
          "name": "denomination",
          "type": "uint256"
        },
        {
          "internalType": "uint256",
          "name": "couponRate",
          "type": "uint256"
        },
        {
          "internalType": "uint256",
          "name": "couponFrequency",
          "type": "uint256"
        },
        {
          "internalType": "uint256",
          "name": "maturityDate",
          "type": "uint256"
        },
        {
          "internalType": "uint256",
          "name": "index",
          "type": "uint256"
        },
        {
          "internalType": "address",
          "name": "currency",
          "type": "address"
        },
        {
          "internalType": "uint8",
          "name": "couponType",
          "type": "uint8"
        },
        {
          "internalType": "enum BondData.DealStatus",
          "name": "status",
          "type": "uint8"
        }
      ],
      "stateMutability": "view",
      "type": "function"
    },
    {
      "inputs": [],
      "name": "issuersFundContract",
      "outputs": [
        {
          "internalType": "address",
          "name": "",
          "type": "address"
        }
      ],
      "stateMutability": "view",
      "type": "function"
    },
    {
      "inputs": [
        {
          "internalType": "string",
          "name": "_dealID",
          "type": "string"
        },
        {
          "internalType": "address",
          "name": "_bondContract",
          "type": "address"
        }
      ],
      "name": "redeem",
      "outputs": [],
      "stateMutability": "nonpayable",
      "type": "function"
    },
    {
      "inputs": [
        {
          "internalType": "string",
          "name": "_dealID",
          "type": "string"
        },
        {
          "internalType": "uint256",
          "name": "_amount",
          "type": "uint256"
        }
      ],
      "name": "registerForDeal",
      "outputs": [],
      "stateMutability": "nonpayable",
      "type": "function"
    },
    {
      "inputs": [
        {
          "internalType": "string",
          "name": "_dealID",
          "type": "string"
        }
      ],
      "name": "rejectDeal",
      "outputs": [],
      "stateMutability": "nonpayable",
      "type": "function"
    },
    {
      "inputs": [],
      "name": "rolesContract",
      "outputs": [
        {
          "internalType": "address",
          "name": "",
          "type": "address"
        }
      ],
      "stateMutability": "view",
      "type": "function"
    },
    {
      "inputs": [
        {
          "internalType": "string",
          "name": "_dealID",
          "type": "string"
        },
        {
          "internalType": "address",
          "name": "_bondContractAddress",
          "type": "address"
        }
      ],
      "name": "setBondContractAddress",
      "outputs": [],
      "stateMutability": "nonpayable",
      "type": "function"
    },
    {
      "inputs": [
        {
          "internalType": "address",
          "name": "_issuerFundContract",
          "type": "address"
        }
      ],
      "name": "setIssuerFundContract",
      "outputs": [],
      "stateMutability": "nonpayable",
      "type": "function"
    },
    {
      "inputs": [
        {
          "internalType": "address",
          "name": "_toposManager",
          "type": "address"
        }
      ],
      "name": "setManager",
      "outputs": [],
      "stateMutability": "nonpayable",
      "type": "function"
    },
    {
      "inputs": [
        {
          "internalType": "string",
          "name": "_dealID",
          "type": "string"
        },
        {
          "components": [
            {
              "internalType": "string",
              "name": "dealID",
              "type": "string"
            },
            {
              "internalType": "string",
              "name": "prospectusURI",
              "type": "string"
            },
            {
              "internalType": "address",
              "name": "issuerAddress",
              "type": "address"
            },
            {
              "internalType": "uint256",
              "name": "debtAmount",
              "type": "uint256"
            },
            {
              "internalType": "uint256",
              "name": "denomination",
              "type": "uint256"
            },
            {
              "internalType": "uint256",
              "name": "couponRate",
              "type": "uint256"
            },
            {
              "internalType": "uint256",
              "name": "couponFrequency",
              "type": "uint256"
            },
            {
              "internalType": "uint256",
              "name": "maturityDate",
              "type": "uint256"
            },
            {
              "internalType": "uint256",
              "name": "index",
              "type": "uint256"
            },
            {
              "internalType": "address",
              "name": "currency",
              "type": "address"
            },
            {
              "internalType": "uint8",
              "name": "couponType",
              "type": "uint8"
            },
            {
              "internalType": "enum BondData.DealStatus",
              "name": "status",
              "type": "uint8"
            }
          ],
          "internalType": "struct BondData.Deal",
          "name": "_deal",
          "type": "tuple"
        }
      ],
      "name": "submitDeal",
      "outputs": [],
      "stateMutability": "nonpayable",
      "type": "function"
    },
    {
      "inputs": [],
      "name": "toposManager",
      "outputs": [
        {
          "internalType": "address",
          "name": "",
          "type": "address"
        }
      ],
      "stateMutability": "view",
      "type": "function"
    },
    {
      "inputs": [
        {
          "internalType": "string",
          "name": "",
          "type": "string"
        }
      ],
      "name": "totalAmountInvestedForDeal",
      "outputs": [
        {
          "internalType": "uint256",
          "name": "",
          "type": "uint256"
        }
      ],
      "stateMutability": "view",
      "type": "function"
    },
    {
      "inputs": [
        {
          "internalType": "string",
          "name": "_dealID",
          "type": "string"
        }
      ],
      "name": "withdrawIssuerFund",
      "outputs": [],
      "stateMutability": "nonpayable",
      "type": "function"
    }
  ],
  "bytecode": "0x60806040523480156200001157600080fd5b5060405162003bbe38038062003bbe8339810160408190526200003491620000a8565b600680546001600160a01b03199081166001600160a01b03978816179091556007805482169587169590951790945560088054851693861693909317909255600980549093169316929092179055600b556200010f565b80516001600160a01b0381168114620000a357600080fd5b919050565b600080600080600060a08688031215620000c157600080fd5b620000cc866200008b565b9450620000dc602087016200008b565b9350620000ec604087016200008b565b9250620000fc606087016200008b565b9150608086015190509295509295909350565b613a9f806200011f6000396000f3fe608060405234801561001057600080fd5b50600436106101e55760003560e01c8063605936ea1161010f578063ca53b391116100a2578063f3413c4f11610071578063f3413c4f14610508578063fb90e4411461051d578063fe0ab4b314610530578063ff6689d01461056457600080fd5b8063ca53b391146104af578063d0ebdbe7146104c2578063d7c4029c146104d5578063e7079180146104e857600080fd5b8063a0a57dac116100de578063a0a57dac14610429578063af9080f81461043c578063c3a2a93a14610445578063c8d7f62e1461048f57600080fd5b8063605936ea146103dd578063754f399a146103f05780637bafe3d0146104035780637f31ed731461041657600080fd5b80632f6679101161018757806349f5d1d91161015657806349f5d1d914610353578063507251cb1461037e5780635e43522e146103915780635ed7e2c1146103a457600080fd5b80632f667910146102e657806336f9c4da146102f957806348f92ee81461030e578063499fa18a1461032157600080fd5b80631882c195116101c35780631882c1951461029857806319662d8e146102ab5780631b59122c146102be578063281ddc8e146102d157600080fd5b8063041e9b89146101ea578063088674e0146102585780630df8bfda14610283575b600080fd5b6102386101f83660046129ac565b60046020908152600092835260409092208151808301840180519281529084019290930191909120915280546001820154600290920154909160ff169083565b604080519384529115156020840152908201526060015b60405180910390f35b60085461026b906001600160a01b031681565b6040516001600160a01b03909116815260200161024f565b610296610291366004612a45565b61056c565b005b6102966102a6366004612a91565b610c4a565b6102966102b9366004612ae3565b610c8e565b6102966102cc366004612b54565b61104d565b6102d961122a565b60405161024f9190612be1565b61026b6102f4366004612b54565b611303565b610301611334565b60405161024f9190612d4f565b61029661031c366004612da4565b611556565b61033461032f366004612de6565b611716565b604080516001600160a01b03909316835260208301919091520161024f565b610366610361366004612e2b565b61176b565b60405161024f9c9b9a99989796959493929190612e57565b61029661038c366004612ee9565b611914565b60095461026b906001600160a01b031681565b6103cf6103b2366004612b54565b805160208183018101805160038252928201919093012091525481565b60405190815260200161024f565b6103cf6103eb366004612da4565b611d5f565b6102966103fe366004612da4565b611d8b565b610296610411366004612f6b565b611f3f565b60065461026b906001600160a01b031681565b610366610437366004612b54565b611fc3565b6103cf600b5481565b600654600754600854600954600a54604080516001600160a01b0396871681529486166020860152928516928401929092528316606083015291909116608082015260a00161024f565b6104a261049d366004612da4565b611fe9565b60405161024f9190612f8f565b60075461026b906001600160a01b031681565b6102966104d0366004612f6b565b61207f565b6102966104e3366004612fe7565b61214f565b6104fb6104f6366004612b54565b6123e9565b60405161024f9190613033565b6105106125eb565b60405161024f9190613046565b600a5461026b906001600160a01b031681565b61026b61053e366004612b54565b80516020818301810180516001825292820191909301209152546001600160a01b031681565b600b546103cf565b6008546040517fb9209e330000000000000000000000000000000000000000000000000000000081523360048201819052916001600160a01b03169063b9209e3390602401602060405180830381865afa1580156105ce573d6000803e3d6000fd5b505050506040513d601f19601f820116820180604052508101906105f2919061314e565b6106435760405162461bcd60e51b815260206004820152601460248201527f4143434f554e545f4e4f545f414150524f56454400000000000000000000000060448201526064015b60405180910390fd5b600260008585604051610657929190613170565b9081526040519081900360200190206009015460ff600160a81b90910416600581111561068657610686612c43565b146106a8578383604051632dc5942160e21b815260040161063a9291906131a9565b600084846040516106ba929190613170565b908152602001604051809103902060040154600085856040516106de929190613170565b908152602001604051809103902060040154836106fb91906131d3565b61070591906131ea565b1561073f576040517f3728b83d0000000000000000000000000000000000000000000000000000000081526004810183905260240161063a565b811580159061079c57506000848460405161075b929190613170565b9081526020016040518091039020600301546003858560405161077f929190613170565b90815260200160405180910390205483610799919061320c565b11155b6107e85760405162461bcd60e51b815260206004820152600660248201527f616d6f756e740000000000000000000000000000000000000000000000000000604482015260640161063a565b81600385856040516107fb929190613170565b908152602001604051809103902054610814919061320c565b60038585604051610826929190613170565b90815260408051602092819003830181209390935533600090815260049092529020906108569086908690613170565b9081526040519081900360200190206001015460ff16156109ab57336000908152600460205260409081902090518391906108949087908790613170565b908152604051908190036020019020546108ae919061320c565b600285856040516108c0929190613170565b908152604080519182900360209081018320336000908152600490925291902090916108ef9088908890613170565b908152602001604051809103902060020154815481106109115761091161321f565b9060005260206000209060020201600101819055508160046000336001600160a01b03166001600160a01b03168152602001908152602001600020858560405161095c929190613170565b90815260405190819003602001902054610976919061320c565b336000908152600460205260409081902090516109969087908790613170565b90815260405190819003602001902055610aaa565b6040518060600160405280838152602001600115158152602001600286866040516109d7929190613170565b90815260408051602092819003830190205490925233600090815260049091528190209051610a099087908790613170565b9081526040805160209281900383018120845181559284015160018401805460ff191691151591909117905592015160029182015590610a4c9086908690613170565b90815260408051602092819003830181208183019092523381528281018581528254600180820185556000948552949093209151600290930290910180546001600160a01b0319166001600160a01b03909316929092178255519101555b600a546040517f925b7cb60000000000000000000000000000000000000000000000000000000081526001600160a01b039091169063925b7cb690610af790879087908790600401613235565b600060405180830381600087803b158015610b1157600080fd5b505af1158015610b25573d6000803e3d6000fd5b5050505060008484604051610b3b929190613170565b90815260405190819003602001902060090154600a546001600160a01b03918216916323b872dd91339116610b7886670de0b6b3a76400006131d3565b6040517fffffffff0000000000000000000000000000000000000000000000000000000060e086901b1681526001600160a01b03938416600482015292909116602483015260448201526064016020604051808303816000875af1158015610be4573d6000803e3d6000fd5b505050506040513d601f19601f82011682018060405250810190610c08919061314e565b507f0bdaf52b4de514796607307fbbcf007ee6d59e81e1be436b67c5a567a2e8d121848433604051610c3c93929190613259565b60405180910390a150505050565b80600183604051610c5b9190613286565b90815260405190819003602001902080546001600160a01b03929092166001600160a01b03199092169190911790555050565b6007546040517f877b9a670000000000000000000000000000000000000000000000000000000081523360048201526001600160a01b039091169063877b9a6790602401602060405180830381865afa158015610cef573d6000803e3d6000fd5b505050506040513d601f19601f82011682018060405250810190610d13919061314e565b610d5f5760405162461bcd60e51b815260206004820152600a60248201527f6e6f742069737375657200000000000000000000000000000000000000000000604482015260640161063a565b610d6f6060820160408301612f6b565b6001600160a01b0316336001600160a01b031614610db95760405162461bcd60e51b81526020600482015260076024820152666164647265737360c81b604482015260640161063a565b6000808484604051610dcc929190613170565b9081526040519081900360200190206009015460ff600160a81b909104166005811115610dfb57610dfb612c43565b14610e315760405162461bcd60e51b815260206004820152600660248201526573746174757360d01b604482015260640161063a565b8060008484604051610e44929190613170565b908152604051908190036020019020610e5d82826134c1565b905050600160008484604051610e74929190613170565b908152604051908190036020019020600901805460ff60a81b1916600160a81b836005811115610ea657610ea6612c43565b0217905550600d54604051600090610ec19086908690613170565b908152602001604051809103902060080181905550600d60008484604051610eea929190613170565b908152604051602091819003820190208254600181018455600093845291909220600a9091020180610f1c83826135ff565b50600181810190610f2f908401826135ff565b5060028281015490820180546001600160a01b039283166001600160a01b0319918216179091556003808501549084015560048085015490840155600580850154818501556006808601549085015560078086015490850155600880860154908501556009808601805491860180549290951693821684178555805474ffffffffffffffffffffffffffffffffffffffffff19909216909317600160a01b9182900460ff908116909202178085559254600160a81b90819004909116939260ff60a81b191691849081111561100657611006612c43565b021790555050507febc5645d06a6c6900ffbabb37c6fc84326bd870990f736254f05abb3287ffd4183838360405161104093929190613738565b60405180910390a1505050565b60008160405161105d9190613286565b90815260405190819003602001902060020154336001600160a01b03909116148061109257506006546001600160a01b031633145b6110c85760405162461bcd60e51b81526020600482015260076024820152666164647265737360c81b604482015260640161063a565b60006001600160a01b03166000826040516110e39190613286565b908152604051908190036020019020600901546001600160a01b03160361114c5760405162461bcd60e51b815260206004820152600560248201527f746f6b656e000000000000000000000000000000000000000000000000000000604482015260640161063a565b600a546040516001600160a01b039091169063e04cd97f908390600090611174908390613286565b908152604051908190036020018120600201546001600160a01b03169060009061119f908790613286565b908152604051908190036020018120600901547fffffffff0000000000000000000000000000000000000000000000000000000060e086901b1682526111f59392916001600160a01b039091169060040161384a565b600060405180830381600087803b15801561120f57600080fd5b505af1158015611223573d6000803e3d6000fd5b5050505050565b6060600e805480602002602001604051908101604052809291908181526020016000905b828210156112fa57838290600052602060002001805461126d906132e9565b80601f0160208091040260200160405190810160405280929190818152602001828054611299906132e9565b80156112e65780601f106112bb576101008083540402835291602001916112e6565b820191906000526020600020905b8154815290600101906020018083116112c957829003601f168201915b50505050508152602001906001019061124e565b50505050905090565b60006001826040516113159190613286565b908152604051908190036020019020546001600160a01b031692915050565b6060600d805480602002602001604051908101604052809291908181526020016000905b828210156112fa57838290600052602060002090600a02016040518061018001604052908160008201805461138c906132e9565b80601f01602080910402602001604051908101604052809291908181526020018280546113b8906132e9565b80156114055780601f106113da57610100808354040283529160200191611405565b820191906000526020600020905b8154815290600101906020018083116113e857829003601f168201915b5050505050815260200160018201805461141e906132e9565b80601f016020809104026020016040519081016040528092919081815260200182805461144a906132e9565b80156114975780601f1061146c57610100808354040283529160200191611497565b820191906000526020600020905b81548152906001019060200180831161147a57829003601f168201915b505050918352505060028201546001600160a01b03908116602083015260038301546040830152600483015460608301526005808401546080840152600684015460a0840152600784015460c0840152600884015460e0840152600984015491821661010084015260ff600160a01b8304811661012085015261014090930192600160a81b9092049091169081111561153257611532612c43565b600581111561154357611543612c43565b8152505081526020019060010190611358565b6006546001600160a01b031633146115a55760405162461bcd60e51b815260206004820152601260248201527127a7262cafaa27a827a9afa6a0a720a3a2a960711b604482015260640161063a565b6001600083836040516115b9929190613170565b9081526040519081900360200190206009015460ff600160a81b9091041660058111156115e8576115e8612c43565b1461161e5760405162461bcd60e51b815260206004820152600660248201526573746174757360d01b604482015260640161063a565b600260008383604051611632929190613170565b908152604051908190036020019020600901805460ff60a81b1916600160a81b83600581111561166457611664612c43565b02179055506002600d6000848460405161167f929190613170565b908152602001604051809103902060080154815481106116a1576116a161321f565b600091825260209091206009600a9092020101805460ff60a81b1916600160a81b8360058111156116d4576116d4612c43565b02179055507f039501081328ffe3eb02459ad6f6e90b69e23ba1422b574ee84c1f52b2fc0310828260405161170a9291906131a9565b60405180910390a15050565b8151602081840181018051600282529282019185019190912091905280548290811061174157600080fd5b6000918252602090912060029091020180546001909101546001600160a01b039091169250905082565b6005602052816000526040600020818154811061178757600080fd5b90600052602060002090600a0201600091509150508060000180546117ab906132e9565b80601f01602080910402602001604051908101604052809291908181526020018280546117d7906132e9565b80156118245780601f106117f957610100808354040283529160200191611824565b820191906000526020600020905b81548152906001019060200180831161180757829003601f168201915b505050505090806001018054611839906132e9565b80601f0160208091040260200160405190810160405280929190818152602001828054611865906132e9565b80156118b25780601f10611887576101008083540402835291602001916118b2565b820191906000526020600020905b81548152906001019060200180831161189557829003601f168201915b50505060028401546003850154600486015460058701546006880154600789015460088a01546009909a015498996001600160a01b0396871699959850939650919490939192919081169060ff600160a01b8204811691600160a81b9004168c565b6006546001600160a01b031633146119635760405162461bcd60e51b815260206004820152601260248201527127a7262cafaa27a827a9afa6a0a720a3a2a960711b604482015260640161063a565b600260008585604051611977929190613170565b9081526040519081900360200190206009015460ff600160a81b9091041660058111156119a6576119a6612c43565b146119c8578383604051632dc5942160e21b815260040161063a9291906131a9565b80600185856040516119db929190613170565b90815260405190819003602001902080546001600160a01b03929092166001600160a01b0319909216919091179055600460008585604051611a1e929190613170565b9081526040519081900360200190206009015460ff600160a81b909104166005811115611a4d57611a4d612c43565b50506004600d60008686604051611a65929190613170565b90815260200160405180910390206008015481548110611a8757611a8761321f565b600091825260209091206009600a9092020101805460ff60a81b1916600160a81b836005811115611aba57611aba612c43565b021790555060056000808686604051611ad4929190613170565b9081526040805160209281900383019020600201546001600160a01b0316835290820192909252810160009081209151611b119087908790613170565b908152604051602091819003820190208254600181018455600093845291909220600a9091020180611b4383826135ff565b50600181810190611b56908401826135ff565b5060028281015490820180546001600160a01b039283166001600160a01b0319918216179091556003808501549084015560048085015490840155600580850154818501556006808601549085015560078086015490850155600880860154908501556009808601805491860180549290951693821684178555805474ffffffffffffffffffffffffffffffffffffffffff19909216909317600160a01b9182900460ff908116909202178085559254600160a81b90819004909116939260ff60a81b1916918490811115611c2d57611c2d612c43565b021790555050600e80546001810182556000919091527fbb7b4a454dc3493923482f07822329ed19e8244eff582cc204f8554c3620c3fd019050611c72848683613372565b506040517fd76805aa0000000000000000000000000000000000000000000000000000000081526001600160a01b0382169063d76805aa90611cb890859060040161387d565b600060405180830381600087803b158015611cd257600080fd5b505af1158015611ce6573d6000803e3d6000fd5b5050600c8054600181018255600091909152849250600b027fdf6966c971051c3d54ec59162606531493a51404a002842f56009d7e5cf4a8c7019050611d2c8282613981565b50507f44b55c2d9270546faf6ff2f0acac078011883b82782d9b08de2d3af4543c2b188484604051610c3c9291906131a9565b600060038383604051611d73929190613170565b90815260200160405180910390205490505b92915050565b6006546001600160a01b03163314611dda5760405162461bcd60e51b815260206004820152601260248201527127a7262cafaa27a827a9afa6a0a720a3a2a960711b604482015260640161063a565b600160008383604051611dee929190613170565b9081526040519081900360200190206009015460ff600160a81b909104166005811115611e1d57611e1d612c43565b14611e535760405162461bcd60e51b815260206004820152600660248201526573746174757360d01b604482015260640161063a565b600360008383604051611e67929190613170565b908152604051908190036020019020600901805460ff60a81b1916600160a81b836005811115611e9957611e99612c43565b02179055506003600d60008484604051611eb4929190613170565b90815260200160405180910390206008015481548110611ed657611ed661321f565b600091825260209091206009600a9092020101805460ff60a81b1916600160a81b836005811115611f0957611f09612c43565b02179055507f735ccdd611541d36c82a3622baab7f58b8a0f5be664555b0d9c95ddde16096d3828260405161170a9291906131a9565b6006546001600160a01b03163314611f8e5760405162461bcd60e51b815260206004820152601260248201527127a7262cafaa27a827a9afa6a0a720a3a2a960711b604482015260640161063a565b6001600160a01b038116611fa157600080fd5b600a80546001600160a01b0319166001600160a01b0392909216919091179055565b80516020818301810180516000825292820191909301209152805481906117ab906132e9565b606060028383604051611ffd929190613170565b9081526020016040518091039020805480602002602001604051908101604052809291908181526020016000905b82821015612073576000848152602090819020604080518082019091526002850290910180546001600160a01b0316825260019081015482840152908352909201910161202b565b50505050905092915050565b6006546001600160a01b031633146120ce5760405162461bcd60e51b815260206004820152601260248201527127a7262cafaa27a827a9afa6a0a720a3a2a960711b604482015260640161063a565b60078054604080517fcfde1890000000000000000000000000000000000000000000000000000000008152600481019190915260448101929092527f4d414e414745520000000000000000000000000000000000000000000000000060648301526001600160a01b038381166024840152169063cfde1890906084016111f5565b6006546001600160a01b0316331461219e5760405162461bcd60e51b815260206004820152601260248201527127a7262cafaa27a827a9afa6a0a720a3a2a960711b604482015260640161063a565b6004600084846040516121b2929190613170565b9081526040519081900360200190206009015460ff600160a81b9091041660058111156121e1576121e1612c43565b14612203578282604051632dc5942160e21b815260040161063a9291906131a9565b600560008484604051612217929190613170565b9081526040519081900360200190206009015460ff600160a81b90910416600581111561224657612246612c43565b50506005600d6000858560405161225e929190613170565b908152602001604051809103902060080154815481106122805761228061321f565b600091825260209091206009600a9092020101805460ff60a81b1916600160a81b8360058111156122b3576122b3612c43565b021790555060058060008086866040516122ce929190613170565b9081526040805160209281900383019020600201546001600160a01b031683529082019290925281016000908120915161230b9087908790613170565b9081526020016040518091039020600801548154811061232d5761232d61321f565b600091825260209091206009600a9092020101805460ff60a81b1916600160a81b83600581111561236057612360612c43565b0217905550806001600160a01b031663be040fb06040518163ffffffff1660e01b8152600401600060405180830381600087803b1580156123a057600080fd5b505af11580156123b4573d6000803e3d6000fd5b505050507fdfdf42ff0d0eb3e6ec5b40d8cf21fb2f7102b67e5e2d56ab36e817f807213c5b83836040516110409291906131a9565b6123f161285b565b6000826040516124019190613286565b90815260200160405180910390206040518061018001604052908160008201805461242b906132e9565b80601f0160208091040260200160405190810160405280929190818152602001828054612457906132e9565b80156124a45780601f10612479576101008083540402835291602001916124a4565b820191906000526020600020905b81548152906001019060200180831161248757829003601f168201915b505050505081526020016001820180546124bd906132e9565b80601f01602080910402602001604051908101604052809291908181526020018280546124e9906132e9565b80156125365780601f1061250b57610100808354040283529160200191612536565b820191906000526020600020905b81548152906001019060200180831161251957829003601f168201915b505050918352505060028201546001600160a01b03908116602083015260038301546040830152600483015460608301526005808401546080840152600684015460a0840152600784015460c0840152600884015460e0840152600984015491821661010084015260ff600160a01b8304811661012085015261014090930192600160a81b909204909116908111156125d1576125d1612c43565b60058111156125e2576125e2612c43565b90525092915050565b6060600c805480602002602001604051908101604052809291908181526020016000905b828210156112fa57838290600052602060002090600b020160405180610160016040529081600082018054612643906132e9565b80601f016020809104026020016040519081016040528092919081815260200182805461266f906132e9565b80156126bc5780601f10612691576101008083540402835291602001916126bc565b820191906000526020600020905b81548152906001019060200180831161269f57829003601f168201915b505050505081526020016001820180546126d5906132e9565b80601f0160208091040260200160405190810160405280929190818152602001828054612701906132e9565b801561274e5780601f106127235761010080835404028352916020019161274e565b820191906000526020600020905b81548152906001019060200180831161273157829003601f168201915b50505050508152602001600282018054612767906132e9565b80601f0160208091040260200160405190810160405280929190818152602001828054612793906132e9565b80156127e05780601f106127b5576101008083540402835291602001916127e0565b820191906000526020600020905b8154815290600101906020018083116127c357829003601f168201915b505050918352505060038201546001600160a01b0316602080830191909152600483015460408301526005830154606083015260068301546080830152600783015460ff1660a0830152600883015460c0830152600983015460e0830152600a9092015461010090910152908252600192909201910161260f565b604051806101800160405280606081526020016060815260200160006001600160a01b0316815260200160008152602001600081526020016000815260200160008152602001600081526020016000815260200160006001600160a01b03168152602001600060ff168152602001600060058111156128dc576128dc612c43565b905290565b6001600160a01b03811681146128f657600080fd5b50565b8035612904816128e1565b919050565b634e487b7160e01b600052604160045260246000fd5b600082601f83011261293057600080fd5b813567ffffffffffffffff8082111561294b5761294b612909565b604051601f8301601f19908116603f0116810190828211818310171561297357612973612909565b8160405283815286602085880101111561298c57600080fd5b836020870160208301376000602085830101528094505050505092915050565b600080604083850312156129bf57600080fd5b82356129ca816128e1565b9150602083013567ffffffffffffffff8111156129e657600080fd5b6129f28582860161291f565b9150509250929050565b60008083601f840112612a0e57600080fd5b50813567ffffffffffffffff811115612a2657600080fd5b602083019150836020828501011115612a3e57600080fd5b9250929050565b600080600060408486031215612a5a57600080fd5b833567ffffffffffffffff811115612a7157600080fd5b612a7d868287016129fc565b909790965060209590950135949350505050565b60008060408385031215612aa457600080fd5b823567ffffffffffffffff811115612abb57600080fd5b612ac78582860161291f565b9250506020830135612ad8816128e1565b809150509250929050565b600080600060408486031215612af857600080fd5b833567ffffffffffffffff80821115612b1057600080fd5b612b1c878388016129fc565b90955093506020860135915080821115612b3557600080fd5b5084016101808187031215612b4957600080fd5b809150509250925092565b600060208284031215612b6657600080fd5b813567ffffffffffffffff811115612b7d57600080fd5b612b898482850161291f565b949350505050565b60005b83811015612bac578181015183820152602001612b94565b50506000910152565b60008151808452612bcd816020860160208601612b91565b601f01601f19169290920160200192915050565b6000602080830181845280855180835260408601915060408160051b870101925083870160005b82811015612c3657603f19888603018452612c24858351612bb5565b94509285019290850190600101612c08565b5092979650505050505050565b634e487b7160e01b600052602160045260246000fd5b60068110612c7757634e487b7160e01b600052602160045260246000fd5b9052565b60006101808251818552612c9182860182612bb5565b91505060208301518482036020860152612cab8282612bb5565b9150506040830151612cc860408601826001600160a01b03169052565b50606083015160608501526080830151608085015260a083015160a085015260c083015160c085015260e083015160e085015261010080840151818601525061012080840151612d22828701826001600160a01b03169052565b50506101408381015160ff169085015261016080840151612d4582870182612c59565b5090949350505050565b6000602080830181845280855180835260408601915060408160051b870101925083870160005b82811015612c3657603f19888603018452612d92858351612c7b565b94509285019290850190600101612d76565b60008060208385031215612db757600080fd5b823567ffffffffffffffff811115612dce57600080fd5b612dda858286016129fc565b90969095509350505050565b60008060408385031215612df957600080fd5b823567ffffffffffffffff811115612e1057600080fd5b612e1c8582860161291f565b95602094909401359450505050565b60008060408385031215612e3e57600080fd5b8235612e49816128e1565b946020939093013593505050565b61018081526000612e6c61018083018f612bb5565b8281036020840152612e7e818f612bb5565b9150506001600160a01b03808d1660408401528b60608401528a60808401528960a08401528860c08401528760e0840152866101008401528086166101208401525060ff8416610140830152612ed8610160830184612c59565b9d9c50505050505050505050505050565b60008060008060608587031215612eff57600080fd5b843567ffffffffffffffff80821115612f1757600080fd5b612f23888389016129fc565b90965094506020870135915080821115612f3c57600080fd5b5085016101608188031215612f5057600080fd5b91506040850135612f60816128e1565b939692955090935050565b600060208284031215612f7d57600080fd5b8135612f88816128e1565b9392505050565b602080825282518282018190526000919060409081850190868401855b82811015612fda57815180516001600160a01b03168552860151868501529284019290850190600101612fac565b5091979650505050505050565b600080600060408486031215612ffc57600080fd5b833567ffffffffffffffff81111561301357600080fd5b61301f868287016129fc565b9094509250506020840135612b49816128e1565b602081526000612f886020830184612c7b565b60006020808301818452808551808352604092508286019150828160051b87010184880160005b8381101561314057603f198984030185528151610160815181865261309482870182612bb5565b915050888201518582038a8701526130ac8282612bb5565b91505087820151858203898701526130c48282612bb5565b9150506060808301516130e1828801826001600160a01b03169052565b50506080828101519086015260a0808301519086015260c0808301519086015260e08083015160ff169086015261010080830151908601526101208083015190860152610140918201519190940152938601939086019060010161306d565b509098975050505050505050565b60006020828403121561316057600080fd5b81518015158114612f8857600080fd5b8183823760009101908152919050565b81835281816020850137506000828201602090810191909152601f909101601f19169091010190565b602081526000612b89602083018486613180565b634e487b7160e01b600052601160045260246000fd5b8082028115828204841417611d8557611d856131bd565b60008261320757634e487b7160e01b600052601260045260246000fd5b500690565b80820180821115611d8557611d856131bd565b634e487b7160e01b600052603260045260246000fd5b604081526000613249604083018587613180565b9050826020830152949350505050565b60408152600061326d604083018587613180565b90506001600160a01b0383166020830152949350505050565b60008251613298818460208701612b91565b9190910192915050565b6000808335601e198436030181126132b957600080fd5b83018035915067ffffffffffffffff8211156132d457600080fd5b602001915036819003821315612a3e57600080fd5b600181811c908216806132fd57607f821691505b60208210810361331d57634e487b7160e01b600052602260045260246000fd5b50919050565b601f82111561336d57600081815260208120601f850160051c8101602086101561334a5750805b601f850160051c820191505b8181101561336957828155600101613356565b5050505b505050565b67ffffffffffffffff83111561338a5761338a612909565b61339e8361339883546132e9565b83613323565b6000601f8411600181146133d257600085156133ba5750838201355b600019600387901b1c1916600186901b178355611223565b600083815260209020601f19861690835b8281101561340357868501358255602094850194600190920191016133e3565b50868210156134205760001960f88860031b161c19848701351681555b505060018560011b0183555050505050565b60008135611d85816128e1565b60ff811681146128f657600080fd5b60008135611d858161343f565b600681106128f657600080fd5b60008135611d858161345b565b6006821061349357634e487b7160e01b600052602160045260246000fd5b805475ff0000000000000000000000000000000000000000008360a81b1660ff60a81b198216178255505050565b6134cb82836132a2565b6134d6818385613372565b50506134e560208301836132a2565b6134f3818360018601613372565b505061352561350460408401613432565b600283016001600160a01b0382166001600160a01b03198254161781555050565b606082013560038201556080820135600482015560a0820135600582015560c0820135600682015560e082013560078201556101008201356008820155600981016135936135766101208501613432565b82546001600160a01b0319166001600160a01b0391909116178255565b6135e96135a3610140850161344e565b82547fffffffffffffffffffffff00ffffffffffffffffffffffffffffffffffffffff1660a09190911b74ff000000000000000000000000000000000000000016178255565b61336d6135f96101608501613468565b82613475565b81810361360a575050565b61361482546132e9565b67ffffffffffffffff81111561362c5761362c612909565b6136408161363a84546132e9565b84613323565b6000601f821160018114613674576000831561365c5750848201545b600019600385901b1c1916600184901b178455611223565b600085815260209020601f19841690600086815260209020845b838110156136ae578286015482556001958601959091019060200161368e565b50858310156136cc5781850154600019600388901b60f8161c191681555b5050505050600190811b01905550565b6000808335601e198436030181126136f357600080fd5b830160208101925035905067ffffffffffffffff81111561371357600080fd5b803603821315612a3e57600080fd5b80356129048161343f565b80356129048161345b565b60408152600061374c604083018587613180565b828103602084015261018061376185866136dc565b8284526137718385018284613180565b9250505061378260208601866136dc565b8383036020850152613795838284613180565b925050506137a5604086016128f9565b6001600160a01b038116604084015250606085013560608301526080850135608083015260a085013560a083015260c085013560c083015260e085013560e08301526101008086013581840152506101206138018187016128f9565b6001600160a01b03169083015261014061381c868201613722565b60ff169083015261016061383186820161372d565b61383d82850182612c59565b5090979650505050505050565b60608152600061385d6060830186612bb5565b6001600160a01b0394851660208401529290931660409091015292915050565b60208152600061388d83846136dc565b6101608060208601526138a561018086018385613180565b92506138b460208701876136dc565b9250601f19808786030160408801526138ce858584613180565b94506138dd60408901896136dc565b9450915080878603016060880152506138f7848483613180565b935050613906606087016128f9565b6001600160a01b03811660808701529150608086013560a086015260a086013560c086015260c086013560e086015261394160e08701613722565b91506101006139548187018460ff169052565b86013561012086810191909152860135610140808701919091529095013594909301939093525090919050565b61398b82836132a2565b613996818385613372565b50506139a560208301836132a2565b6139b3818360018601613372565b50506139c260408301836132a2565b6139d0818360028601613372565b5050613a026139e160608401613432565b600383016001600160a01b0382166001600160a01b03198254161781555050565b6080820135600482015560a0820135600582015560c08201356006820155613a44613a2f60e0840161344e565b6007830160ff821660ff198254161781555050565b61010082013560088201556101208201356009820155610140820135600a820155505056fea26469706673582212206f0ed12c079851e9491372077ad170cfe788cb761a6c48c69a27cc4c79beea5264736f6c63430008130033",
  "linkReferences": {},
  "deployedLinkReferences": {}
}