{
  "_format": "hh-sol-artifact-1",
  "contractName": "ToposBank",
  "sourceName": "contracts/Topos/Bank/ToposBank.sol",
  "abi": [
    {
      "inputs": [
        {
          "internalType": "address",
          "name": "_toposManager",
          "type": "address"
        },
        {
          "internalType": "address",
          "name": "_rolesContract",
          "type": "address"
        },
        {
          "internalType": "address",
          "name": "_identityRegistryContract",
          "type": "address"
        },
        {
          "internalType": "address",
          "name": "_bondCallContract",
          "type": "address"
        },
        {
          "internalType": "uint256",
          "name": "_dealFees",
          "type": "uint256"
        }
      ],
      "stateMutability": "nonpayable",
      "type": "constructor"
    },
    {
      "inputs": [
        {
          "internalType": "string",
          "name": "dealID",
          "type": "string"
        }
      ],
      "name": "InvalidDealStatus",
      "type": "error"
    },
    {
      "anonymous": false,
      "inputs": [
        {
          "indexed": false,
          "internalType": "string",
          "name": "_dealID",
          "type": "string"
        }
      ],
      "name": "BondIssue",
      "type": "event"
    },
    {
      "anonymous": false,
      "inputs": [
        {
          "indexed": false,
          "internalType": "string",
          "name": "_dealID",
          "type": "string"
        }
      ],
      "name": "BondRedeem",
      "type": "event"
    },
    {
      "anonymous": false,
      "inputs": [
        {
          "indexed": false,
          "internalType": "string",
          "name": "dealID",
          "type": "string"
        }
      ],
      "name": "DealAPproved",
      "type": "event"
    },
    {
      "anonymous": false,
      "inputs": [
        {
          "indexed": false,
          "internalType": "string",
          "name": "dealID",
          "type": "string"
        }
      ],
      "name": "DealARejected",
      "type": "event"
    },
    {
      "anonymous": false,
      "inputs": [
        {
          "indexed": false,
          "internalType": "string",
          "name": "dealID",
          "type": "string"
        },
        {
          "components": [
            {
              "internalType": "string",
              "name": "dealID",
              "type": "string"
            },
            {
              "internalType": "string",
              "name": "prospectusURI",
              "type": "string"
            },
            {
              "internalType": "address",
              "name": "issuerAddress",
              "type": "address"
            },
            {
              "internalType": "uint256",
              "name": "debtAmount",
              "type": "uint256"
            },
            {
              "internalType": "uint256",
              "name": "couponRate",
              "type": "uint256"
            },
            {
              "internalType": "uint256",
              "name": "couponFrequency",
              "type": "uint256"
            },
            {
              "internalType": "uint256",
              "name": "maturityDate",
              "type": "uint256"
            },
            {
              "internalType": "uint256",
              "name": "index",
              "type": "uint256"
            },
            {
              "internalType": "address",
              "name": "currency",
              "type": "address"
            },
            {
              "internalType": "uint8",
              "name": "couponType",
              "type": "uint8"
            },
            {
              "internalType": "enum BondData.DealStatus",
              "name": "status",
              "type": "uint8"
            }
          ],
          "indexed": false,
          "internalType": "struct BondData.Deal",
          "name": "deal",
          "type": "tuple"
        }
      ],
      "name": "DealSubmitted",
      "type": "event"
    },
    {
      "anonymous": false,
      "inputs": [
        {
          "indexed": false,
          "internalType": "string",
          "name": "dealID",
          "type": "string"
        },
        {
          "indexed": false,
          "internalType": "address",
          "name": "investor",
          "type": "address"
        }
      ],
      "name": "RegisterForDeal",
      "type": "event"
    },
    {
      "inputs": [
        {
          "internalType": "address",
          "name": "",
          "type": "address"
        },
        {
          "internalType": "string",
          "name": "",
          "type": "string"
        }
      ],
      "name": "amountInvested",
      "outputs": [
        {
          "internalType": "uint256",
          "name": "amount",
          "type": "uint256"
        },
        {
          "internalType": "bool",
          "name": "hasInvested",
          "type": "bool"
        },
        {
          "internalType": "uint256",
          "name": "index",
          "type": "uint256"
        }
      ],
      "stateMutability": "view",
      "type": "function"
    },
    {
      "inputs": [
        {
          "internalType": "string",
          "name": "_dealID",
          "type": "string"
        }
      ],
      "name": "approveDeal",
      "outputs": [],
      "stateMutability": "nonpayable",
      "type": "function"
    },
    {
      "inputs": [],
      "name": "bondCallContract",
      "outputs": [
        {
          "internalType": "address",
          "name": "",
          "type": "address"
        }
      ],
      "stateMutability": "view",
      "type": "function"
    },
    {
      "inputs": [
        {
          "internalType": "string",
          "name": "",
          "type": "string"
        }
      ],
      "name": "dealBondContracts",
      "outputs": [
        {
          "internalType": "address",
          "name": "",
          "type": "address"
        }
      ],
      "stateMutability": "view",
      "type": "function"
    },
    {
      "inputs": [],
      "name": "dealFees",
      "outputs": [
        {
          "internalType": "uint256",
          "name": "",
          "type": "uint256"
        }
      ],
      "stateMutability": "view",
      "type": "function"
    },
    {
      "inputs": [
        {
          "internalType": "string",
          "name": "",
          "type": "string"
        },
        {
          "internalType": "uint256",
          "name": "",
          "type": "uint256"
        }
      ],
      "name": "dealInvestment",
      "outputs": [
        {
          "internalType": "address",
          "name": "investor",
          "type": "address"
        },
        {
          "internalType": "uint256",
          "name": "amount",
          "type": "uint256"
        }
      ],
      "stateMutability": "view",
      "type": "function"
    },
    {
      "inputs": [
        {
          "internalType": "string",
          "name": "",
          "type": "string"
        }
      ],
      "name": "deals",
      "outputs": [
        {
          "internalType": "string",
          "name": "dealID",
          "type": "string"
        },
        {
          "internalType": "string",
          "name": "prospectusURI",
          "type": "string"
        },
        {
          "internalType": "address",
          "name": "issuerAddress",
          "type": "address"
        },
        {
          "internalType": "uint256",
          "name": "debtAmount",
          "type": "uint256"
        },
        {
          "internalType": "uint256",
          "name": "couponRate",
          "type": "uint256"
        },
        {
          "internalType": "uint256",
          "name": "couponFrequency",
          "type": "uint256"
        },
        {
          "internalType": "uint256",
          "name": "maturityDate",
          "type": "uint256"
        },
        {
          "internalType": "uint256",
          "name": "index",
          "type": "uint256"
        },
        {
          "internalType": "address",
          "name": "currency",
          "type": "address"
        },
        {
          "internalType": "uint8",
          "name": "couponType",
          "type": "uint8"
        },
        {
          "internalType": "enum BondData.DealStatus",
          "name": "status",
          "type": "uint8"
        }
      ],
      "stateMutability": "view",
      "type": "function"
    },
    {
      "inputs": [],
      "name": "getContracts",
      "outputs": [
        {
          "internalType": "address",
          "name": "manager",
          "type": "address"
        },
        {
          "internalType": "address",
          "name": "roles",
          "type": "address"
        },
        {
          "internalType": "address",
          "name": "identityRegistry",
          "type": "address"
        },
        {
          "internalType": "address",
          "name": "bondCall",
          "type": "address"
        },
        {
          "internalType": "address",
          "name": "issuerFund",
          "type": "address"
        }
      ],
      "stateMutability": "view",
      "type": "function"
    },
    {
      "inputs": [],
      "name": "getDealFees",
      "outputs": [
        {
          "internalType": "uint256",
          "name": "",
          "type": "uint256"
        }
      ],
      "stateMutability": "view",
      "type": "function"
    },
    {
      "inputs": [
        {
          "internalType": "string",
          "name": "_dealID",
          "type": "string"
        }
      ],
      "name": "getDealInvestment",
      "outputs": [
        {
          "components": [
            {
              "internalType": "address",
              "name": "investor",
              "type": "address"
            },
            {
              "internalType": "uint256",
              "name": "amount",
              "type": "uint256"
            }
          ],
          "internalType": "struct BondData.DealInvestment[]",
          "name": "",
          "type": "tuple[]"
        }
      ],
      "stateMutability": "view",
      "type": "function"
    },
    {
      "inputs": [
        {
          "internalType": "string",
          "name": "_dealID",
          "type": "string"
        }
      ],
      "name": "getTotalAmounInvested",
      "outputs": [
        {
          "internalType": "uint256",
          "name": "",
          "type": "uint256"
        }
      ],
      "stateMutability": "view",
      "type": "function"
    },
    {
      "inputs": [],
      "name": "identityRegistryContract",
      "outputs": [
        {
          "internalType": "address",
          "name": "",
          "type": "address"
        }
      ],
      "stateMutability": "view",
      "type": "function"
    },
    {
      "inputs": [
        {
          "internalType": "string",
          "name": "_dealID",
          "type": "string"
        },
        {
          "components": [
            {
              "internalType": "string",
              "name": "isin",
              "type": "string"
            },
            {
              "internalType": "string",
              "name": "name",
              "type": "string"
            },
            {
              "internalType": "string",
              "name": "symbol",
              "type": "string"
            },
            {
              "internalType": "address",
              "name": "currency",
              "type": "address"
            },
            {
              "internalType": "uint256",
              "name": "denomination",
              "type": "uint256"
            },
            {
              "internalType": "uint256",
              "name": "issueVolume",
              "type": "uint256"
            },
            {
              "internalType": "uint256",
              "name": "couponRate",
              "type": "uint256"
            },
            {
              "internalType": "uint8",
              "name": "couponType",
              "type": "uint8"
            },
            {
              "internalType": "uint256",
              "name": "couponFrequency",
              "type": "uint256"
            },
            {
              "internalType": "uint256",
              "name": "issueDate",
              "type": "uint256"
            },
            {
              "internalType": "uint256",
              "name": "maturityDate",
              "type": "uint256"
            }
          ],
          "internalType": "struct BondData.Bond",
          "name": "_bond",
          "type": "tuple"
        },
        {
          "internalType": "address",
          "name": "_bondContract",
          "type": "address"
        }
      ],
      "name": "issue",
      "outputs": [],
      "stateMutability": "nonpayable",
      "type": "function"
    },
    {
      "inputs": [
        {
          "internalType": "address",
          "name": "",
          "type": "address"
        },
        {
          "internalType": "uint256",
          "name": "",
          "type": "uint256"
        }
      ],
      "name": "issuerDeals",
      "outputs": [
        {
          "internalType": "string",
          "name": "dealID",
          "type": "string"
        },
        {
          "internalType": "string",
          "name": "prospectusURI",
          "type": "string"
        },
        {
          "internalType": "address",
          "name": "issuerAddress",
          "type": "address"
        },
        {
          "internalType": "uint256",
          "name": "debtAmount",
          "type": "uint256"
        },
        {
          "internalType": "uint256",
          "name": "couponRate",
          "type": "uint256"
        },
        {
          "internalType": "uint256",
          "name": "couponFrequency",
          "type": "uint256"
        },
        {
          "internalType": "uint256",
          "name": "maturityDate",
          "type": "uint256"
        },
        {
          "internalType": "uint256",
          "name": "index",
          "type": "uint256"
        },
        {
          "internalType": "address",
          "name": "currency",
          "type": "address"
        },
        {
          "internalType": "uint8",
          "name": "couponType",
          "type": "uint8"
        },
        {
          "internalType": "enum BondData.DealStatus",
          "name": "status",
          "type": "uint8"
        }
      ],
      "stateMutability": "view",
      "type": "function"
    },
    {
      "inputs": [],
      "name": "issuersFundContract",
      "outputs": [
        {
          "internalType": "address",
          "name": "",
          "type": "address"
        }
      ],
      "stateMutability": "view",
      "type": "function"
    },
    {
      "inputs": [
        {
          "internalType": "string",
          "name": "_dealID",
          "type": "string"
        },
        {
          "internalType": "address",
          "name": "_bondContract",
          "type": "address"
        }
      ],
      "name": "redeem",
      "outputs": [],
      "stateMutability": "nonpayable",
      "type": "function"
    },
    {
      "inputs": [
        {
          "internalType": "string",
          "name": "_dealID",
          "type": "string"
        },
        {
          "internalType": "uint256",
          "name": "_amount",
          "type": "uint256"
        }
      ],
      "name": "registerForDeal",
      "outputs": [],
      "stateMutability": "nonpayable",
      "type": "function"
    },
    {
      "inputs": [
        {
          "internalType": "string",
          "name": "_dealID",
          "type": "string"
        }
      ],
      "name": "rejectDeal",
      "outputs": [],
      "stateMutability": "nonpayable",
      "type": "function"
    },
    {
      "inputs": [],
      "name": "rolesContract",
      "outputs": [
        {
          "internalType": "address",
          "name": "",
          "type": "address"
        }
      ],
      "stateMutability": "view",
      "type": "function"
    },
    {
      "inputs": [
        {
          "internalType": "string",
          "name": "_dealID",
          "type": "string"
        },
        {
          "internalType": "address",
          "name": "_bondContractAddress",
          "type": "address"
        }
      ],
      "name": "setBondContractAddress",
      "outputs": [],
      "stateMutability": "nonpayable",
      "type": "function"
    },
    {
      "inputs": [
        {
          "internalType": "address",
          "name": "_issuerFundContract",
          "type": "address"
        }
      ],
      "name": "setIssuerFundContract",
      "outputs": [],
      "stateMutability": "nonpayable",
      "type": "function"
    },
    {
      "inputs": [
        {
          "internalType": "address",
          "name": "_toposManager",
          "type": "address"
        }
      ],
      "name": "setManager",
      "outputs": [],
      "stateMutability": "nonpayable",
      "type": "function"
    },
    {
      "inputs": [
        {
          "internalType": "string",
          "name": "_dealID",
          "type": "string"
        },
        {
          "components": [
            {
              "internalType": "string",
              "name": "dealID",
              "type": "string"
            },
            {
              "internalType": "string",
              "name": "prospectusURI",
              "type": "string"
            },
            {
              "internalType": "address",
              "name": "issuerAddress",
              "type": "address"
            },
            {
              "internalType": "uint256",
              "name": "debtAmount",
              "type": "uint256"
            },
            {
              "internalType": "uint256",
              "name": "couponRate",
              "type": "uint256"
            },
            {
              "internalType": "uint256",
              "name": "couponFrequency",
              "type": "uint256"
            },
            {
              "internalType": "uint256",
              "name": "maturityDate",
              "type": "uint256"
            },
            {
              "internalType": "uint256",
              "name": "index",
              "type": "uint256"
            },
            {
              "internalType": "address",
              "name": "currency",
              "type": "address"
            },
            {
              "internalType": "uint8",
              "name": "couponType",
              "type": "uint8"
            },
            {
              "internalType": "enum BondData.DealStatus",
              "name": "status",
              "type": "uint8"
            }
          ],
          "internalType": "struct BondData.Deal",
          "name": "_deal",
          "type": "tuple"
        }
      ],
      "name": "submitDeal",
      "outputs": [],
      "stateMutability": "nonpayable",
      "type": "function"
    },
    {
      "inputs": [],
      "name": "toposManager",
      "outputs": [
        {
          "internalType": "address",
          "name": "",
          "type": "address"
        }
      ],
      "stateMutability": "view",
      "type": "function"
    },
    {
      "inputs": [
        {
          "internalType": "string",
          "name": "",
          "type": "string"
        }
      ],
      "name": "totalAmountInvestedForDeal",
      "outputs": [
        {
          "internalType": "uint256",
          "name": "",
          "type": "uint256"
        }
      ],
      "stateMutability": "view",
      "type": "function"
    },
    {
      "inputs": [
        {
          "internalType": "string",
          "name": "_dealID",
          "type": "string"
        }
      ],
      "name": "withdrawIssuerFund",
      "outputs": [],
      "stateMutability": "nonpayable",
      "type": "function"
    }
  ],
  "bytecode": "0x60806040523480156200001157600080fd5b5060405162004fdf38038062004fdf8339818101604052810190620000379190620001f2565b84600660006101000a81548173ffffffffffffffffffffffffffffffffffffffff021916908373ffffffffffffffffffffffffffffffffffffffff16021790555083600760006101000a81548173ffffffffffffffffffffffffffffffffffffffff021916908373ffffffffffffffffffffffffffffffffffffffff16021790555082600860006101000a81548173ffffffffffffffffffffffffffffffffffffffff021916908373ffffffffffffffffffffffffffffffffffffffff16021790555081600960006101000a81548173ffffffffffffffffffffffffffffffffffffffff021916908373ffffffffffffffffffffffffffffffffffffffff16021790555080600b8190555050505050506200027a565b600080fd5b600073ffffffffffffffffffffffffffffffffffffffff82169050919050565b60006200017f8262000152565b9050919050565b620001918162000172565b81146200019d57600080fd5b50565b600081519050620001b18162000186565b92915050565b6000819050919050565b620001cc81620001b7565b8114620001d857600080fd5b50565b600081519050620001ec81620001c1565b92915050565b600080600080600060a086880312156200021157620002106200014d565b5b60006200022188828901620001a0565b95505060206200023488828901620001a0565b94505060406200024788828901620001a0565b93505060606200025a88828901620001a0565b92505060806200026d88828901620001db565b9150509295509295909350565b614d55806200028a6000396000f3fe608060405234801561001057600080fd5b506004361061018e5760003560e01c8063754f399a116100de578063c8d7f62e11610097578063d7c4029c11610071578063d7c4029c146104ae578063fb90e441146104ca578063fe0ab4b3146104e8578063ff6689d0146105185761018e565b8063c8d7f62e14610444578063ca53b39114610474578063d0ebdbe7146104925761018e565b8063754f399a146103745780637bafe3d0146103905780637f31ed73146103ac578063a0a57dac146103ca578063af9080f814610404578063c3a2a93a146104225761018e565b806348f92ee81161014b578063507251cb11610125578063507251cb146102da5780635e43522e146102f65780635ed7e2c114610314578063605936ea146103445761018e565b806348f92ee814610253578063499fa18a1461026f57806349f5d1d9146102a05761018e565b8063041e9b8914610193578063088674e0146101c55780630df8bfda146101e35780631882c195146101ff5780631b59122c1461021b57806323c8d70614610237575b600080fd5b6101ad60048036038101906101a89190612e6e565b610536565b6040516101bc93929190612efe565b60405180910390f35b6101cd610590565b6040516101da9190612f44565b60405180910390f35b6101fd60048036038101906101f89190612feb565b6105b6565b005b6102196004803603810190610214919061304b565b610dde565b005b610235600480360381019061023091906130a7565b610e3f565b005b610251600480360381019061024c9190613115565b61110c565b005b61026d60048036038101906102689190613191565b6115c9565b005b610289600480360381019061028491906131de565b6117ea565b60405161029792919061323a565b60405180910390f35b6102ba60048036038101906102b59190613263565b611861565b6040516102d19b9a999897969594939291906133b5565b60405180910390f35b6102f460048036038101906102ef919061348e565b611a42565b005b6102fe611fdb565b60405161030b9190612f44565b60405180910390f35b61032e600480360381019061032991906130a7565b612001565b60405161033b919061351e565b60405180910390f35b61035e60048036038101906103599190613191565b61202f565b60405161036b919061351e565b60405180910390f35b61038e60048036038101906103899190613191565b61205a565b005b6103aa60048036038101906103a59190613539565b61227b565b005b6103b46123be565b6040516103c19190612f44565b60405180910390f35b6103e460048036038101906103df91906130a7565b6123e4565b6040516103fb9b9a999897969594939291906133b5565b60405180910390f35b61040c6125be565b604051610419919061351e565b60405180910390f35b61042a6125c4565b60405161043b959493929190613566565b60405180910390f35b61045e60048036038101906104599190613191565b612696565b60405161046b91906136b5565b60405180910390f35b61047c612776565b6040516104899190612f44565b60405180910390f35b6104ac60048036038101906104a79190613539565b61279c565b005b6104c860048036038101906104c391906136d7565b6128bc565b005b6104d2612c3d565b6040516104df9190612f44565b60405180910390f35b61050260048036038101906104fd91906130a7565b612c63565b60405161050f9190612f44565b60405180910390f35b610520612cac565b60405161052d919061351e565b60405180910390f35b600460205281600052604060002081805160208101820180518482526020830160208501208183528095505050505050600091509150508060000154908060010160009054906101000a900460ff16908060020154905083565b600860009054906101000a900473ffffffffffffffffffffffffffffffffffffffff1681565b33600860009054906101000a900473ffffffffffffffffffffffffffffffffffffffff1673ffffffffffffffffffffffffffffffffffffffff1663b9209e33826040518263ffffffff1660e01b81526004016106129190612f44565b602060405180830381865afa15801561062f573d6000803e3d6000fd5b505050506040513d601f19601f820116820180604052508101906106539190613763565b610692576040517f08c379a0000000000000000000000000000000000000000000000000000000008152600401610689906137dc565b60405180910390fd5b600260058111156106a6576106a561333e565b5b600085856040516106b892919061382c565b908152602001604051809103902060080160159054906101000a900460ff1660058111156106e9576106e861333e565b5b1461072d5783836040517fb7165084000000000000000000000000000000000000000000000000000000008152600401610724929190613872565b60405180910390fd5b6000821415801561078c57506000848460405161074b92919061382c565b9081526020016040518091039020600301546003858560405161076f92919061382c565b9081526020016040518091039020548361078991906138c5565b11155b6107cb576040517f08c379a00000000000000000000000000000000000000000000000000000000081526004016107c290613945565b60405180910390fd5b81600385856040516107de92919061382c565b9081526020016040518091039020546107f791906138c5565b6003858560405161080992919061382c565b908152602001604051809103902081905550600460003373ffffffffffffffffffffffffffffffffffffffff1673ffffffffffffffffffffffffffffffffffffffff168152602001908152602001600020848460405161086a92919061382c565b908152602001604051809103902060010160009054906101000a900460ff1615610a765781600460003373ffffffffffffffffffffffffffffffffffffffff1673ffffffffffffffffffffffffffffffffffffffff16815260200190815260200160002085856040516108de92919061382c565b9081526020016040518091039020600001546108fa91906138c5565b6002858560405161090c92919061382c565b9081526020016040518091039020600460003373ffffffffffffffffffffffffffffffffffffffff1673ffffffffffffffffffffffffffffffffffffffff168152602001908152602001600020868660405161096992919061382c565b9081526020016040518091039020600201548154811061098c5761098b613965565b5b90600052602060002090600202016001018190555081600460003373ffffffffffffffffffffffffffffffffffffffff1673ffffffffffffffffffffffffffffffffffffffff16815260200190815260200160002085856040516109f192919061382c565b908152602001604051809103902060000154610a0d91906138c5565b600460003373ffffffffffffffffffffffffffffffffffffffff1673ffffffffffffffffffffffffffffffffffffffff1681526020019081526020016000208585604051610a5c92919061382c565b908152602001604051809103902060000181905550610c13565b604051806060016040528083815260200160011515815260200160028686604051610aa292919061382c565b908152602001604051809103902080549050815250600460003373ffffffffffffffffffffffffffffffffffffffff1673ffffffffffffffffffffffffffffffffffffffff1681526020019081526020016000208585604051610b0692919061382c565b90815260200160405180910390206000820151816000015560208201518160010160006101000a81548160ff0219169083151502179055506040820151816002015590505060028484604051610b5d92919061382c565b908152602001604051809103902060405180604001604052803373ffffffffffffffffffffffffffffffffffffffff16815260200184815250908060018154018082558091505060019003906000526020600020906002020160009091909190915060008201518160000160006101000a81548173ffffffffffffffffffffffffffffffffffffffff021916908373ffffffffffffffffffffffffffffffffffffffff1602179055506020820151816001015550505b600a60009054906101000a900473ffffffffffffffffffffffffffffffffffffffff1673ffffffffffffffffffffffffffffffffffffffff1663925b7cb68585856040518463ffffffff1660e01b8152600401610c7293929190613994565b600060405180830381600087803b158015610c8c57600080fd5b505af1158015610ca0573d6000803e3d6000fd5b5050505060008484604051610cb692919061382c565b908152602001604051809103902060080160009054906101000a900473ffffffffffffffffffffffffffffffffffffffff1673ffffffffffffffffffffffffffffffffffffffff166323b872dd33600a60009054906101000a900473ffffffffffffffffffffffffffffffffffffffff16670de0b6b3a764000086610d3b91906139c6565b6040518463ffffffff1660e01b8152600401610d5993929190613a08565b6020604051808303816000875af1158015610d78573d6000803e3d6000fd5b505050506040513d601f19601f82011682018060405250810190610d9c9190613763565b507f0bdaf52b4de514796607307fbbcf007ee6d59e81e1be436b67c5a567a2e8d121848433604051610dd093929190613a3f565b60405180910390a150505050565b80600183604051610def9190613aa2565b908152602001604051809103902060006101000a81548173ffffffffffffffffffffffffffffffffffffffff021916908373ffffffffffffffffffffffffffffffffffffffff1602179055505050565b600081604051610e4f9190613aa2565b908152602001604051809103902060020160009054906101000a900473ffffffffffffffffffffffffffffffffffffffff1673ffffffffffffffffffffffffffffffffffffffff163373ffffffffffffffffffffffffffffffffffffffff161480610f075750600660009054906101000a900473ffffffffffffffffffffffffffffffffffffffff1673ffffffffffffffffffffffffffffffffffffffff163373ffffffffffffffffffffffffffffffffffffffff16145b610f46576040517f08c379a0000000000000000000000000000000000000000000000000000000008152600401610f3d90613b05565b60405180910390fd5b600073ffffffffffffffffffffffffffffffffffffffff16600082604051610f6e9190613aa2565b908152602001604051809103902060080160009054906101000a900473ffffffffffffffffffffffffffffffffffffffff1673ffffffffffffffffffffffffffffffffffffffff1603610ff6576040517f08c379a0000000000000000000000000000000000000000000000000000000008152600401610fed90613b71565b60405180910390fd5b600a60009054906101000a900473ffffffffffffffffffffffffffffffffffffffff1673ffffffffffffffffffffffffffffffffffffffff1663e04cd97f826000846040516110459190613aa2565b908152602001604051809103902060020160009054906101000a900473ffffffffffffffffffffffffffffffffffffffff166000856040516110879190613aa2565b908152602001604051809103902060080160009054906101000a900473ffffffffffffffffffffffffffffffffffffffff166040518463ffffffff1660e01b81526004016110d793929190613b91565b600060405180830381600087803b1580156110f157600080fd5b505af1158015611105573d6000803e3d6000fd5b5050505050565b600760009054906101000a900473ffffffffffffffffffffffffffffffffffffffff1673ffffffffffffffffffffffffffffffffffffffff1663877b9a67336040518263ffffffff1660e01b81526004016111679190612f44565b602060405180830381865afa158015611184573d6000803e3d6000fd5b505050506040513d601f19601f820116820180604052508101906111a89190613763565b6111e7576040517f08c379a00000000000000000000000000000000000000000000000000000000081526004016111de90613c1b565b60405180910390fd5b8060400160208101906111fa9190613539565b73ffffffffffffffffffffffffffffffffffffffff163373ffffffffffffffffffffffffffffffffffffffff1614611267576040517f08c379a000000000000000000000000000000000000000000000000000000000815260040161125e90613c87565b60405180910390fd5b6000600581111561127b5761127a61333e565b5b6000848460405161128d92919061382c565b908152602001604051809103902060080160159054906101000a900460ff1660058111156112be576112bd61333e565b5b146112fe576040517f08c379a00000000000000000000000000000000000000000000000000000000081526004016112f590613cf3565b60405180910390fd5b806000848460405161131192919061382c565b9081526020016040518091039020818161132b919061449f565b90505060016000848460405161134292919061382c565b908152602001604051809103902060080160156101000a81548160ff021916908360058111156113755761137461333e565b5b0217905550600d805490506000848460405161139292919061382c565b908152602001604051809103902060070181905550600d600084846040516113bb92919061382c565b908152602001604051809103902090806001815401808255809150506001900390600052602060002090600902016000909190919091506000820181600001908161140691906144c3565b506001820181600101908161141b91906144c3565b506002820160009054906101000a900473ffffffffffffffffffffffffffffffffffffffff168160020160006101000a81548173ffffffffffffffffffffffffffffffffffffffff021916908373ffffffffffffffffffffffffffffffffffffffff16021790555060038201548160030155600482015481600401556005820154816005015560068201548160060155600782015481600701556008820160009054906101000a900473ffffffffffffffffffffffffffffffffffffffff168160080160006101000a81548173ffffffffffffffffffffffffffffffffffffffff021916908373ffffffffffffffffffffffffffffffffffffffff1602179055506008820160149054906101000a900460ff168160080160146101000a81548160ff021916908360ff1602179055506008820160159054906101000a900460ff168160080160156101000a81548160ff021916908360058111156115825761158161333e565b5b021790555050507fc32e04bf1356c91e89bdc0de134ba5c3fc8df94d30cea4436e9346bc335199ed8383836040516115bc93929190614851565b60405180910390a1505050565b600660009054906101000a900473ffffffffffffffffffffffffffffffffffffffff1673ffffffffffffffffffffffffffffffffffffffff163373ffffffffffffffffffffffffffffffffffffffff1614611659576040517f08c379a0000000000000000000000000000000000000000000000000000000008152600401611650906148d6565b60405180910390fd5b6001600581111561166d5761166c61333e565b5b6000838360405161167f92919061382c565b908152602001604051809103902060080160159054906101000a900460ff1660058111156116b0576116af61333e565b5b146116f0576040517f08c379a00000000000000000000000000000000000000000000000000000000081526004016116e790613cf3565b60405180910390fd5b60026000838360405161170492919061382c565b908152602001604051809103902060080160156101000a81548160ff021916908360058111156117375761173661333e565b5b02179055506002600d6000848460405161175292919061382c565b9081526020016040518091039020600701548154811061177557611774613965565b5b906000526020600020906009020160080160156101000a81548160ff021916908360058111156117a8576117a761333e565b5b02179055507f039501081328ffe3eb02459ad6f6e90b69e23ba1422b574ee84c1f52b2fc031082826040516117de929190613872565b60405180910390a15050565b600282805160208101820180518482526020830160208501208183528095505050505050818154811061181c57600080fd5b9060005260206000209060020201600091509150508060000160009054906101000a900473ffffffffffffffffffffffffffffffffffffffff16908060010154905082565b6005602052816000526040600020818154811061187d57600080fd5b9060005260206000209060090201600091509150508060000180546118a190613dbf565b80601f01602080910402602001604051908101604052809291908181526020018280546118cd90613dbf565b801561191a5780601f106118ef5761010080835404028352916020019161191a565b820191906000526020600020905b8154815290600101906020018083116118fd57829003601f168201915b50505050509080600101805461192f90613dbf565b80601f016020809104026020016040519081016040528092919081815260200182805461195b90613dbf565b80156119a85780601f1061197d576101008083540402835291602001916119a8565b820191906000526020600020905b81548152906001019060200180831161198b57829003601f168201915b5050505050908060020160009054906101000a900473ffffffffffffffffffffffffffffffffffffffff16908060030154908060040154908060050154908060060154908060070154908060080160009054906101000a900473ffffffffffffffffffffffffffffffffffffffff16908060080160149054906101000a900460ff16908060080160159054906101000a900460ff1690508b565b600660009054906101000a900473ffffffffffffffffffffffffffffffffffffffff1673ffffffffffffffffffffffffffffffffffffffff163373ffffffffffffffffffffffffffffffffffffffff1614611ad2576040517f08c379a0000000000000000000000000000000000000000000000000000000008152600401611ac9906148d6565b60405180910390fd5b60026005811115611ae657611ae561333e565b5b60008585604051611af892919061382c565b908152602001604051809103902060080160159054906101000a900460ff166005811115611b2957611b2861333e565b5b14611b6d5783836040517fb7165084000000000000000000000000000000000000000000000000000000008152600401611b64929190613872565b60405180910390fd5b8060018585604051611b8092919061382c565b908152602001604051809103902060006101000a81548173ffffffffffffffffffffffffffffffffffffffff021916908373ffffffffffffffffffffffffffffffffffffffff16021790555060046005811115611be057611bdf61333e565b5b60008585604051611bf292919061382c565b908152602001604051809103902060080160159054906101000a900460ff166005811115611c2357611c2261333e565b5b50506004600d60008686604051611c3b92919061382c565b90815260200160405180910390206007015481548110611c5e57611c5d613965565b5b906000526020600020906009020160080160156101000a81548160ff02191690836005811115611c9157611c9061333e565b5b021790555060056000808686604051611cab92919061382c565b908152602001604051809103902060020160009054906101000a900473ffffffffffffffffffffffffffffffffffffffff1673ffffffffffffffffffffffffffffffffffffffff1673ffffffffffffffffffffffffffffffffffffffff16815260200190815260200160002060008585604051611d2992919061382c565b9081526020016040518091039020908060018154018082558091505060019003906000526020600020906009020160009091909190915060008201816000019081611d7491906144c3565b5060018201816001019081611d8991906144c3565b506002820160009054906101000a900473ffffffffffffffffffffffffffffffffffffffff168160020160006101000a81548173ffffffffffffffffffffffffffffffffffffffff021916908373ffffffffffffffffffffffffffffffffffffffff16021790555060038201548160030155600482015481600401556005820154816005015560068201548160060155600782015481600701556008820160009054906101000a900473ffffffffffffffffffffffffffffffffffffffff168160080160006101000a81548173ffffffffffffffffffffffffffffffffffffffff021916908373ffffffffffffffffffffffffffffffffffffffff1602179055506008820160149054906101000a900460ff168160080160146101000a81548160ff021916908360ff1602179055506008820160159054906101000a900460ff168160080160156101000a81548160ff02191690836005811115611ef057611eef61333e565b5b021790555050508073ffffffffffffffffffffffffffffffffffffffff1663d76805aa836040518263ffffffff1660e01b8152600401611f309190614a51565b600060405180830381600087803b158015611f4a57600080fd5b505af1158015611f5e573d6000803e3d6000fd5b50505050600c8290806001815401808255809150506001900390600052602060002090600b02016000909190919091508181611f9a9190614c2b565b50507f44b55c2d9270546faf6ff2f0acac078011883b82782d9b08de2d3af4543c2b188484604051611fcd929190613872565b60405180910390a150505050565b600960009054906101000a900473ffffffffffffffffffffffffffffffffffffffff1681565b6003818051602081018201805184825260208301602085012081835280955050505050506000915090505481565b60006003838360405161204392919061382c565b908152602001604051809103902054905092915050565b600660009054906101000a900473ffffffffffffffffffffffffffffffffffffffff1673ffffffffffffffffffffffffffffffffffffffff163373ffffffffffffffffffffffffffffffffffffffff16146120ea576040517f08c379a00000000000000000000000000000000000000000000000000000000081526004016120e1906148d6565b60405180910390fd5b600160058111156120fe576120fd61333e565b5b6000838360405161211092919061382c565b908152602001604051809103902060080160159054906101000a900460ff1660058111156121415761214061333e565b5b14612181576040517f08c379a000000000000000000000000000000000000000000000000000000000815260040161217890613cf3565b60405180910390fd5b60036000838360405161219592919061382c565b908152602001604051809103902060080160156101000a81548160ff021916908360058111156121c8576121c761333e565b5b02179055506003600d600084846040516121e392919061382c565b9081526020016040518091039020600701548154811061220657612205613965565b5b906000526020600020906009020160080160156101000a81548160ff021916908360058111156122395761223861333e565b5b02179055507f735ccdd611541d36c82a3622baab7f58b8a0f5be664555b0d9c95ddde16096d3828260405161226f929190613872565b60405180910390a15050565b600660009054906101000a900473ffffffffffffffffffffffffffffffffffffffff1673ffffffffffffffffffffffffffffffffffffffff163373ffffffffffffffffffffffffffffffffffffffff161461230b576040517f08c379a0000000000000000000000000000000000000000000000000000000008152600401612302906148d6565b60405180910390fd5b600073ffffffffffffffffffffffffffffffffffffffff168173ffffffffffffffffffffffffffffffffffffffff160361237a576040517f08c379a000000000000000000000000000000000000000000000000000000000815260040161237190614c85565b60405180910390fd5b80600a60006101000a81548173ffffffffffffffffffffffffffffffffffffffff021916908373ffffffffffffffffffffffffffffffffffffffff16021790555050565b600660009054906101000a900473ffffffffffffffffffffffffffffffffffffffff1681565b60008180516020810182018051848252602083016020850120818352809550505050505060009150905080600001805461241d90613dbf565b80601f016020809104026020016040519081016040528092919081815260200182805461244990613dbf565b80156124965780601f1061246b57610100808354040283529160200191612496565b820191906000526020600020905b81548152906001019060200180831161247957829003601f168201915b5050505050908060010180546124ab90613dbf565b80601f01602080910402602001604051908101604052809291908181526020018280546124d790613dbf565b80156125245780601f106124f957610100808354040283529160200191612524565b820191906000526020600020905b81548152906001019060200180831161250757829003601f168201915b5050505050908060020160009054906101000a900473ffffffffffffffffffffffffffffffffffffffff16908060030154908060040154908060050154908060060154908060070154908060080160009054906101000a900473ffffffffffffffffffffffffffffffffffffffff16908060080160149054906101000a900460ff16908060080160159054906101000a900460ff1690508b565b600b5481565b6000806000806000600660009054906101000a900473ffffffffffffffffffffffffffffffffffffffff16600760009054906101000a900473ffffffffffffffffffffffffffffffffffffffff16600860009054906101000a900473ffffffffffffffffffffffffffffffffffffffff16600960009054906101000a900473ffffffffffffffffffffffffffffffffffffffff16600a60009054906101000a900473ffffffffffffffffffffffffffffffffffffffff1680955081965082975083985084995050505050509091929394565b6060600283836040516126aa92919061382c565b9081526020016040518091039020805480602002602001604051908101604052809291908181526020016000905b8282101561276a57838290600052602060002090600202016040518060400160405290816000820160009054906101000a900473ffffffffffffffffffffffffffffffffffffffff1673ffffffffffffffffffffffffffffffffffffffff1673ffffffffffffffffffffffffffffffffffffffff168152602001600182015481525050815260200190600101906126d8565b50505050905092915050565b600760009054906101000a900473ffffffffffffffffffffffffffffffffffffffff1681565b600660009054906101000a900473ffffffffffffffffffffffffffffffffffffffff1673ffffffffffffffffffffffffffffffffffffffff163373ffffffffffffffffffffffffffffffffffffffff161461282c576040517f08c379a0000000000000000000000000000000000000000000000000000000008152600401612823906148d6565b60405180910390fd5b600760009054906101000a900473ffffffffffffffffffffffffffffffffffffffff1673ffffffffffffffffffffffffffffffffffffffff1663cfde1890826040518263ffffffff1660e01b81526004016128879190614cf1565b600060405180830381600087803b1580156128a157600080fd5b505af11580156128b5573d6000803e3d6000fd5b5050505050565b600660009054906101000a900473ffffffffffffffffffffffffffffffffffffffff1673ffffffffffffffffffffffffffffffffffffffff163373ffffffffffffffffffffffffffffffffffffffff161461294c576040517f08c379a0000000000000000000000000000000000000000000000000000000008152600401612943906148d6565b60405180910390fd5b600460058111156129605761295f61333e565b5b6000848460405161297292919061382c565b908152602001604051809103902060080160159054906101000a900460ff1660058111156129a3576129a261333e565b5b146129e75782826040517fb71650840000000000000000000000000000000000000000000000000000000081526004016129de929190613872565b60405180910390fd5b6005808111156129fa576129f961333e565b5b60008484604051612a0c92919061382c565b908152602001604051809103902060080160159054906101000a900460ff166005811115612a3d57612a3c61333e565b5b50506005600d60008585604051612a5592919061382c565b90815260200160405180910390206007015481548110612a7857612a77613965565b5b906000526020600020906009020160080160156101000a81548160ff02191690836005811115612aab57612aaa61333e565b5b02179055506005806000808686604051612ac692919061382c565b908152602001604051809103902060020160009054906101000a900473ffffffffffffffffffffffffffffffffffffffff1673ffffffffffffffffffffffffffffffffffffffff1673ffffffffffffffffffffffffffffffffffffffff16815260200190815260200160002060008585604051612b4492919061382c565b90815260200160405180910390206007015481548110612b6757612b66613965565b5b906000526020600020906009020160080160156101000a81548160ff02191690836005811115612b9a57612b9961333e565b5b02179055508073ffffffffffffffffffffffffffffffffffffffff1663be040fb06040518163ffffffff1660e01b8152600401600060405180830381600087803b158015612be757600080fd5b505af1158015612bfb573d6000803e3d6000fd5b505050507fdfdf42ff0d0eb3e6ec5b40d8cf21fb2f7102b67e5e2d56ab36e817f807213c5b8383604051612c30929190613872565b60405180910390a1505050565b600a60009054906101000a900473ffffffffffffffffffffffffffffffffffffffff1681565b6001818051602081018201805184825260208301602085012081835280955050505050506000915054906101000a900473ffffffffffffffffffffffffffffffffffffffff1681565b6000600b54905090565b6000604051905090565b600080fd5b600080fd5b600073ffffffffffffffffffffffffffffffffffffffff82169050919050565b6000612cf582612cca565b9050919050565b612d0581612cea565b8114612d1057600080fd5b50565b600081359050612d2281612cfc565b92915050565b600080fd5b600080fd5b6000601f19601f8301169050919050565b7f4e487b7100000000000000000000000000000000000000000000000000000000600052604160045260246000fd5b612d7b82612d32565b810181811067ffffffffffffffff82111715612d9a57612d99612d43565b5b80604052505050565b6000612dad612cb6565b9050612db98282612d72565b919050565b600067ffffffffffffffff821115612dd957612dd8612d43565b5b612de282612d32565b9050602081019050919050565b82818337600083830152505050565b6000612e11612e0c84612dbe565b612da3565b905082815260208101848484011115612e2d57612e2c612d2d565b5b612e38848285612def565b509392505050565b600082601f830112612e5557612e54612d28565b5b8135612e65848260208601612dfe565b91505092915050565b60008060408385031215612e8557612e84612cc0565b5b6000612e9385828601612d13565b925050602083013567ffffffffffffffff811115612eb457612eb3612cc5565b5b612ec085828601612e40565b9150509250929050565b6000819050919050565b612edd81612eca565b82525050565b60008115159050919050565b612ef881612ee3565b82525050565b6000606082019050612f136000830186612ed4565b612f206020830185612eef565b612f2d6040830184612ed4565b949350505050565b612f3e81612cea565b82525050565b6000602082019050612f596000830184612f35565b92915050565b600080fd5b600080fd5b60008083601f840112612f7f57612f7e612d28565b5b8235905067ffffffffffffffff811115612f9c57612f9b612f5f565b5b602083019150836001820283011115612fb857612fb7612f64565b5b9250929050565b612fc881612eca565b8114612fd357600080fd5b50565b600081359050612fe581612fbf565b92915050565b60008060006040848603121561300457613003612cc0565b5b600084013567ffffffffffffffff81111561302257613021612cc5565b5b61302e86828701612f69565b9350935050602061304186828701612fd6565b9150509250925092565b6000806040838503121561306257613061612cc0565b5b600083013567ffffffffffffffff8111156130805761307f612cc5565b5b61308c85828601612e40565b925050602061309d85828601612d13565b9150509250929050565b6000602082840312156130bd576130bc612cc0565b5b600082013567ffffffffffffffff8111156130db576130da612cc5565b5b6130e784828501612e40565b91505092915050565b600080fd5b6000610160828403121561310c5761310b6130f0565b5b81905092915050565b60008060006040848603121561312e5761312d612cc0565b5b600084013567ffffffffffffffff81111561314c5761314b612cc5565b5b61315886828701612f69565b9350935050602084013567ffffffffffffffff81111561317b5761317a612cc5565b5b613187868287016130f5565b9150509250925092565b600080602083850312156131a8576131a7612cc0565b5b600083013567ffffffffffffffff8111156131c6576131c5612cc5565b5b6131d285828601612f69565b92509250509250929050565b600080604083850312156131f5576131f4612cc0565b5b600083013567ffffffffffffffff81111561321357613212612cc5565b5b61321f85828601612e40565b925050602061323085828601612fd6565b9150509250929050565b600060408201905061324f6000830185612f35565b61325c6020830184612ed4565b9392505050565b6000806040838503121561327a57613279612cc0565b5b600061328885828601612d13565b925050602061329985828601612fd6565b9150509250929050565b600081519050919050565b600082825260208201905092915050565b60005b838110156132dd5780820151818401526020810190506132c2565b60008484015250505050565b60006132f4826132a3565b6132fe81856132ae565b935061330e8185602086016132bf565b61331781612d32565b840191505092915050565b600060ff82169050919050565b61333881613322565b82525050565b7f4e487b7100000000000000000000000000000000000000000000000000000000600052602160045260246000fd5b6006811061337e5761337d61333e565b5b50565b600081905061338f8261336d565b919050565b600061339f82613381565b9050919050565b6133af81613394565b82525050565b60006101608201905081810360008301526133d0818e6132e9565b905081810360208301526133e4818d6132e9565b90506133f3604083018c612f35565b613400606083018b612ed4565b61340d608083018a612ed4565b61341a60a0830189612ed4565b61342760c0830188612ed4565b61343460e0830187612ed4565b613442610100830186612f35565b61345061012083018561332f565b61345e6101408301846133a6565b9c9b505050505050505050505050565b60006101608284031215613485576134846130f0565b5b81905092915050565b600080600080606085870312156134a8576134a7612cc0565b5b600085013567ffffffffffffffff8111156134c6576134c5612cc5565b5b6134d287828801612f69565b9450945050602085013567ffffffffffffffff8111156134f5576134f4612cc5565b5b6135018782880161346e565b925050604061351287828801612d13565b91505092959194509250565b60006020820190506135336000830184612ed4565b92915050565b60006020828403121561354f5761354e612cc0565b5b600061355d84828501612d13565b91505092915050565b600060a08201905061357b6000830188612f35565b6135886020830187612f35565b6135956040830186612f35565b6135a26060830185612f35565b6135af6080830184612f35565b9695505050505050565b600081519050919050565b600082825260208201905092915050565b6000819050602082019050919050565b6135ee81612cea565b82525050565b6135fd81612eca565b82525050565b60408201600082015161361960008501826135e5565b50602082015161362c60208501826135f4565b50505050565b600061363e8383613603565b60408301905092915050565b6000602082019050919050565b6000613662826135b9565b61366c81856135c4565b9350613677836135d5565b8060005b838110156136a857815161368f8882613632565b975061369a8361364a565b92505060018101905061367b565b5085935050505092915050565b600060208201905081810360008301526136cf8184613657565b905092915050565b6000806000604084860312156136f0576136ef612cc0565b5b600084013567ffffffffffffffff81111561370e5761370d612cc5565b5b61371a86828701612f69565b9350935050602061372d86828701612d13565b9150509250925092565b61374081612ee3565b811461374b57600080fd5b50565b60008151905061375d81613737565b92915050565b60006020828403121561377957613778612cc0565b5b60006137878482850161374e565b91505092915050565b7f4143434f554e545f4e4f545f414150524f564544000000000000000000000000600082015250565b60006137c66014836132ae565b91506137d182613790565b602082019050919050565b600060208201905081810360008301526137f5816137b9565b9050919050565b600081905092915050565b600061381383856137fc565b9350613820838584612def565b82840190509392505050565b6000613839828486613807565b91508190509392505050565b600061385183856132ae565b935061385e838584612def565b61386783612d32565b840190509392505050565b6000602082019050818103600083015261388d818486613845565b90509392505050565b7f4e487b7100000000000000000000000000000000000000000000000000000000600052601160045260246000fd5b60006138d082612eca565b91506138db83612eca565b92508282019050808211156138f3576138f2613896565b5b92915050565b7f494e56414c49445f414d4f554e54000000000000000000000000000000000000600082015250565b600061392f600e836132ae565b915061393a826138f9565b602082019050919050565b6000602082019050818103600083015261395e81613922565b9050919050565b7f4e487b7100000000000000000000000000000000000000000000000000000000600052603260045260246000fd5b600060408201905081810360008301526139af818587613845565b90506139be6020830184612ed4565b949350505050565b60006139d182612eca565b91506139dc83612eca565b92508282026139ea81612eca565b91508282048414831517613a0157613a00613896565b5b5092915050565b6000606082019050613a1d6000830186612f35565b613a2a6020830185612f35565b613a376040830184612ed4565b949350505050565b60006040820190508181036000830152613a5a818587613845565b9050613a696020830184612f35565b949350505050565b6000613a7c826132a3565b613a8681856137fc565b9350613a968185602086016132bf565b80840191505092915050565b6000613aae8284613a71565b915081905092915050565b7f4e4f545f4953535545525f4e4f525f544f504f535f4d414e4147455200000000600082015250565b6000613aef601c836132ae565b9150613afa82613ab9565b602082019050919050565b60006020820190508181036000830152613b1e81613ae2565b9050919050565b7f494e56414c49445f544f4b454e5f414444524553530000000000000000000000600082015250565b6000613b5b6015836132ae565b9150613b6682613b25565b602082019050919050565b60006020820190508181036000830152613b8a81613b4e565b9050919050565b60006060820190508181036000830152613bab81866132e9565b9050613bba6020830185612f35565b613bc76040830184612f35565b949350505050565b7f4f4e4c595f495353554552530000000000000000000000000000000000000000600082015250565b6000613c05600c836132ae565b9150613c1082613bcf565b602082019050919050565b60006020820190508181036000830152613c3481613bf8565b9050919050565b7f494e56414c49445f4953535545525f4144445245535300000000000000000000600082015250565b6000613c716016836132ae565b9150613c7c82613c3b565b602082019050919050565b60006020820190508181036000830152613ca081613c64565b9050919050565b7f494e56414c49445f4445414c5f53544154555300000000000000000000000000600082015250565b6000613cdd6013836132ae565b9150613ce882613ca7565b602082019050919050565b60006020820190508181036000830152613d0c81613cd0565b9050919050565b600080fd5b600080fd5b600080fd5b60008083356001602003843603038112613d3f57613d3e613d13565b5b80840192508235915067ffffffffffffffff821115613d6157613d60613d18565b5b602083019250600182023603831315613d7d57613d7c613d1d565b5b509250929050565b600082905092915050565b7f4e487b7100000000000000000000000000000000000000000000000000000000600052602260045260246000fd5b60006002820490506001821680613dd757607f821691505b602082108103613dea57613de9613d90565b5b50919050565b60008190508160005260206000209050919050565b60006020601f8301049050919050565b600082821b905092915050565b600060088302613e527fffffffffffffffffffffffffffffffffffffffffffffffffffffffffffffffff82613e15565b613e5c8683613e15565b95508019841693508086168417925050509392505050565b6000819050919050565b6000613e99613e94613e8f84612eca565b613e74565b612eca565b9050919050565b6000819050919050565b613eb383613e7e565b613ec7613ebf82613ea0565b848454613e22565b825550505050565b600090565b613edc613ecf565b613ee7818484613eaa565b505050565b5b81811015613f0b57613f00600082613ed4565b600181019050613eed565b5050565b601f821115613f5057613f2181613df0565b613f2a84613e05565b81016020851015613f39578190505b613f4d613f4585613e05565b830182613eec565b50505b505050565b600082821c905092915050565b6000613f7360001984600802613f55565b1980831691505092915050565b6000613f8c8383613f62565b9150826002028217905092915050565b613fa68383613d85565b67ffffffffffffffff811115613fbf57613fbe612d43565b5b613fc98254613dbf565b613fd4828285613f0f565b6000601f8311600181146140035760008415613ff1578287013590505b613ffb8582613f80565b865550614063565b601f19841661401186613df0565b60005b8281101561403957848901358255600182019150602085019450602081019050614014565b868310156140565784890135614052601f891682613f62565b8355505b6001600288020188555050505b50505050505050565b614077838383613f9c565b505050565b6000813561408981612cfc565b80915050919050565b60008160001b9050919050565b600073ffffffffffffffffffffffffffffffffffffffff6140bf84614092565b9350801983169250808416831791505092915050565b60006140f06140eb6140e684612cca565b613e74565b612cca565b9050919050565b6000614102826140d5565b9050919050565b6000614114826140f7565b9050919050565b6000819050919050565b61412e82614109565b61414161413a8261411b565b835461409f565b8255505050565b6000813561415581612fbf565b80915050919050565b60007fffffffffffffffffffffffffffffffffffffffffffffffffffffffffffffffff61418a84614092565b9350801983169250808416831791505092915050565b6141a982613e7e565b6141bc6141b582613ea0565b835461415e565b8255505050565b6141cc81613322565b81146141d757600080fd5b50565b600081356141e7816141c3565b80915050919050565b60008160a01b9050919050565b600074ff000000000000000000000000000000000000000061421e846141f0565b9350801983169250808416831791505092915050565b600061424f61424a61424584613322565b613e74565b613322565b9050919050565b6000819050919050565b61426982614234565b61427c61427582614256565b83546141fd565b8255505050565b6006811061429057600080fd5b50565b600081356142a081614283565b80915050919050565b60008160a81b9050919050565b600075ff0000000000000000000000000000000000000000006142d8846142a9565b9350801983169250808416831791505092915050565b60006142f982613381565b9050919050565b6000819050919050565b614313826142ee565b61432661431f82614300565b83546142b6565b8255505050565b600081016000830161433f8185613d22565b61434a81838661406c565b5050505060018101602083016143608185613d22565b61436b81838661406c565b505050506002810160408301806143818161407c565b905061438d8184614125565b5050506003810160608301806143a281614148565b90506143ae81846141a0565b5050506004810160808301806143c381614148565b90506143cf81846141a0565b5050506005810160a08301806143e481614148565b90506143f081846141a0565b5050506006810160c083018061440581614148565b905061441181846141a0565b5050506007810160e083018061442681614148565b905061443281846141a0565b505050600881016101008301806144488161407c565b90506144548184614125565b5050506008810161012083018061446a816141da565b90506144768184614260565b5050506008810161014083018061448c81614293565b9050614498818461430a565b5050505050565b6144a9828261432d565b5050565b6000815490506144bc81613dbf565b9050919050565b8181036144d15750506145a9565b6144da826144ad565b67ffffffffffffffff8111156144f3576144f2612d43565b5b6144fd8254613dbf565b614508828285613f0f565b6000601f8311600181146145375760008415614525578287015490505b61452f8582613f80565b8655506145a2565b601f19841661454587613df0565b965061455086613df0565b60005b8281101561457857848901548255600182019150600185019450602081019050614553565b868310156145955784890154614591601f891682613f62565b8355505b6001600288020188555050505b5050505050505b565b600080fd5b600080fd5b600080fd5b600080833560016020038436030381126145d7576145d66145b5565b5b83810192508235915060208301925067ffffffffffffffff8211156145ff576145fe6145ab565b5b600182023603831315614615576146146145b0565b5b509250929050565b600082825260208201905092915050565b600061463a838561461d565b9350614647838584612def565b61465083612d32565b840190509392505050565b600061466a6020840184612d13565b905092915050565b60006146816020840184612fd6565b905092915050565b600081359050614698816141c3565b92915050565b60006146ad6020840184614689565b905092915050565b6146be81613322565b82525050565b6000813590506146d381614283565b92915050565b60006146e860208401846146c4565b905092915050565b6146f981613394565b82525050565b6000610160830161471360008401846145ba565b858303600087015261472683828461462e565b9250505061473760208401846145ba565b858303602087015261474a83828461462e565b9250505061475b604084018461465b565b61476860408601826135e5565b506147766060840184614672565b61478360608601826135f4565b506147916080840184614672565b61479e60808601826135f4565b506147ac60a0840184614672565b6147b960a08601826135f4565b506147c760c0840184614672565b6147d460c08601826135f4565b506147e260e0840184614672565b6147ef60e08601826135f4565b506147fe61010084018461465b565b61480c6101008601826135e5565b5061481b61012084018461469e565b6148296101208601826146b5565b506148386101408401846146d9565b6148466101408601826146f0565b508091505092915050565b6000604082019050818103600083015261486c818587613845565b9050818103602083015261488081846146ff565b9050949350505050565b7f4f4e4c595f544f504f535f4d414e414745520000000000000000000000000000600082015250565b60006148c06012836132ae565b91506148cb8261488a565b602082019050919050565b600060208201905081810360008301526148ef816148b3565b9050919050565b6000610160830161490a60008401846145ba565b858303600087015261491d83828461462e565b9250505061492e60208401846145ba565b858303602087015261494183828461462e565b9250505061495260408401846145ba565b858303604087015261496583828461462e565b92505050614976606084018461465b565b61498360608601826135e5565b506149916080840184614672565b61499e60808601826135f4565b506149ac60a0840184614672565b6149b960a08601826135f4565b506149c760c0840184614672565b6149d460c08601826135f4565b506149e260e084018461469e565b6149ef60e08601826146b5565b506149fe610100840184614672565b614a0c6101008601826135f4565b50614a1b610120840184614672565b614a296101208601826135f4565b50614a38610140840184614672565b614a466101408601826135f4565b508091505092915050565b60006020820190508181036000830152614a6b81846148f6565b905092915050565b600060ff614a8084614092565b9350801983169250808416831791505092915050565b614a9f82614234565b614ab2614aab82614256565b8354614a73565b8255505050565b6000810160008301614acb8185613d22565b614ad681838661406c565b505050506001810160208301614aec8185613d22565b614af781838661406c565b505050506002810160408301614b0d8185613d22565b614b1881838661406c565b50505050600381016060830180614b2e8161407c565b9050614b3a8184614125565b505050600481016080830180614b4f81614148565b9050614b5b81846141a0565b5050506005810160a0830180614b7081614148565b9050614b7c81846141a0565b5050506006810160c0830180614b9181614148565b9050614b9d81846141a0565b5050506007810160e0830180614bb2816141da565b9050614bbe8184614a96565b50505060088101610100830180614bd481614148565b9050614be081846141a0565b50505060098101610120830180614bf681614148565b9050614c0281846141a0565b505050600a8101610140830180614c1881614148565b9050614c2481846141a0565b5050505050565b614c358282614ab9565b5050565b7f494e56414c49445f434f4e54524143545f414444524553530000000000000000600082015250565b6000614c6f6018836132ae565b9150614c7a82614c39565b602082019050919050565b60006020820190508181036000830152614c9e81614c62565b9050919050565b7f4d414e4147455200000000000000000000000000000000000000000000000000600082015250565b6000614cdb6007836132ae565b9150614ce682614ca5565b602082019050919050565b60006040820190508181036000830152614d0a81614cce565b9050614d196020830184612f35565b9291505056fea264697066735822122001235ff8feed9ef5dde83a04a541de487da907d0624a9eb3f94474ed9c58cc2964736f6c63430008130033",
  "linkReferences": {},
  "deployedLinkReferences": {}
}