{
  "_format": "hh-sol-artifact-1",
  "contractName": "ToposBank",
  "sourceName": "contracts/Topos/Bank/ToposBank.sol",
  "abi": [
    {
      "inputs": [
        {
          "internalType": "address",
          "name": "_toposManager",
          "type": "address"
        },
        {
          "internalType": "address",
          "name": "_rolesContract",
          "type": "address"
        },
        {
          "internalType": "address",
          "name": "_identityRegistryContract",
          "type": "address"
        },
        {
          "internalType": "address",
          "name": "_bondCallContract",
          "type": "address"
        },
        {
          "internalType": "address",
          "name": "_irsCallContract",
          "type": "address"
        },
        {
          "internalType": "uint256",
          "name": "_dealFees",
          "type": "uint256"
        }
      ],
      "stateMutability": "nonpayable",
      "type": "constructor"
    },
    {
      "inputs": [
        {
          "internalType": "uint256",
          "name": "amount",
          "type": "uint256"
        }
      ],
      "name": "InvalidAmount",
      "type": "error"
    },
    {
      "inputs": [
        {
          "internalType": "string",
          "name": "dealID",
          "type": "string"
        }
      ],
      "name": "InvalidDealStatus",
      "type": "error"
    },
    {
      "anonymous": false,
      "inputs": [
        {
          "indexed": false,
          "internalType": "string",
          "name": "_dealID",
          "type": "string"
        }
      ],
      "name": "BondIssue",
      "type": "event"
    },
    {
      "anonymous": false,
      "inputs": [
        {
          "indexed": false,
          "internalType": "string",
          "name": "_dealID",
          "type": "string"
        }
      ],
      "name": "BondRedeem",
      "type": "event"
    },
    {
      "anonymous": false,
      "inputs": [
        {
          "indexed": false,
          "internalType": "string",
          "name": "dealID",
          "type": "string"
        }
      ],
      "name": "DealAPproved",
      "type": "event"
    },
    {
      "anonymous": false,
      "inputs": [
        {
          "indexed": false,
          "internalType": "string",
          "name": "dealID",
          "type": "string"
        }
      ],
      "name": "DealARejected",
      "type": "event"
    },
    {
      "anonymous": false,
      "inputs": [
        {
          "indexed": false,
          "internalType": "string",
          "name": "dealID",
          "type": "string"
        },
        {
          "components": [
            {
              "internalType": "string",
              "name": "dealID",
              "type": "string"
            },
            {
              "internalType": "string",
              "name": "prospectusURI",
              "type": "string"
            },
            {
              "internalType": "address",
              "name": "issuerAddress",
              "type": "address"
            },
            {
              "internalType": "uint256",
              "name": "debtAmount",
              "type": "uint256"
            },
            {
              "internalType": "uint256",
              "name": "denomination",
              "type": "uint256"
            },
            {
              "internalType": "uint256",
              "name": "couponRate",
              "type": "uint256"
            },
            {
              "internalType": "uint256",
              "name": "couponFrequency",
              "type": "uint256"
            },
            {
              "internalType": "uint256",
              "name": "maturityDate",
              "type": "uint256"
            },
            {
              "internalType": "uint256",
              "name": "index",
              "type": "uint256"
            },
            {
              "internalType": "address",
              "name": "currency",
              "type": "address"
            },
            {
              "internalType": "uint8",
              "name": "couponType",
              "type": "uint8"
            },
            {
              "internalType": "enum BondData.DealStatus",
              "name": "status",
              "type": "uint8"
            }
          ],
          "indexed": false,
          "internalType": "struct BondData.Deal",
          "name": "deal",
          "type": "tuple"
        }
      ],
      "name": "DealSubmitted",
      "type": "event"
    },
    {
      "anonymous": false,
      "inputs": [
        {
          "indexed": false,
          "internalType": "string",
          "name": "dealID",
          "type": "string"
        },
        {
          "indexed": false,
          "internalType": "address",
          "name": "investor",
          "type": "address"
        }
      ],
      "name": "RegisterForDeal",
      "type": "event"
    },
    {
      "inputs": [
        {
          "internalType": "address",
          "name": "",
          "type": "address"
        },
        {
          "internalType": "string",
          "name": "",
          "type": "string"
        }
      ],
      "name": "amountInvested",
      "outputs": [
        {
          "internalType": "uint256",
          "name": "amount",
          "type": "uint256"
        },
        {
          "internalType": "bool",
          "name": "hasInvested",
          "type": "bool"
        },
        {
          "internalType": "uint256",
          "name": "index",
          "type": "uint256"
        }
      ],
      "stateMutability": "view",
      "type": "function"
    },
    {
      "inputs": [
        {
          "internalType": "string",
          "name": "_dealID",
          "type": "string"
        }
      ],
      "name": "approveDeal",
      "outputs": [],
      "stateMutability": "nonpayable",
      "type": "function"
    },
    {
      "inputs": [],
      "name": "bondCallContract",
      "outputs": [
        {
          "internalType": "address",
          "name": "",
          "type": "address"
        }
      ],
      "stateMutability": "view",
      "type": "function"
    },
    {
      "inputs": [
        {
          "internalType": "string",
          "name": "",
          "type": "string"
        }
      ],
      "name": "dealBondContracts",
      "outputs": [
        {
          "internalType": "address",
          "name": "",
          "type": "address"
        }
      ],
      "stateMutability": "view",
      "type": "function"
    },
    {
      "inputs": [],
      "name": "dealFees",
      "outputs": [
        {
          "internalType": "uint256",
          "name": "",
          "type": "uint256"
        }
      ],
      "stateMutability": "view",
      "type": "function"
    },
    {
      "inputs": [
        {
          "internalType": "string",
          "name": "",
          "type": "string"
        },
        {
          "internalType": "uint256",
          "name": "",
          "type": "uint256"
        }
      ],
      "name": "dealInvestment",
      "outputs": [
        {
          "internalType": "address",
          "name": "investor",
          "type": "address"
        },
        {
          "internalType": "uint256",
          "name": "amount",
          "type": "uint256"
        }
      ],
      "stateMutability": "view",
      "type": "function"
    },
    {
      "inputs": [
        {
          "internalType": "string",
          "name": "",
          "type": "string"
        }
      ],
      "name": "deals",
      "outputs": [
        {
          "internalType": "string",
          "name": "dealID",
          "type": "string"
        },
        {
          "internalType": "string",
          "name": "prospectusURI",
          "type": "string"
        },
        {
          "internalType": "address",
          "name": "issuerAddress",
          "type": "address"
        },
        {
          "internalType": "uint256",
          "name": "debtAmount",
          "type": "uint256"
        },
        {
          "internalType": "uint256",
          "name": "denomination",
          "type": "uint256"
        },
        {
          "internalType": "uint256",
          "name": "couponRate",
          "type": "uint256"
        },
        {
          "internalType": "uint256",
          "name": "couponFrequency",
          "type": "uint256"
        },
        {
          "internalType": "uint256",
          "name": "maturityDate",
          "type": "uint256"
        },
        {
          "internalType": "uint256",
          "name": "index",
          "type": "uint256"
        },
        {
          "internalType": "address",
          "name": "currency",
          "type": "address"
        },
        {
          "internalType": "uint8",
          "name": "couponType",
          "type": "uint8"
        },
        {
          "internalType": "enum BondData.DealStatus",
          "name": "status",
          "type": "uint8"
        }
      ],
      "stateMutability": "view",
      "type": "function"
    },
    {
      "inputs": [
        {
          "internalType": "address",
          "name": "_swapContract",
          "type": "address"
        }
      ],
      "name": "endSwapContract",
      "outputs": [],
      "stateMutability": "nonpayable",
      "type": "function"
    },
    {
      "inputs": [],
      "name": "getBenchmark",
      "outputs": [
        {
          "internalType": "uint256",
          "name": "",
          "type": "uint256"
        }
      ],
      "stateMutability": "view",
      "type": "function"
    },
    {
      "inputs": [],
      "name": "getContracts",
      "outputs": [
        {
          "internalType": "address",
          "name": "manager",
          "type": "address"
        },
        {
          "internalType": "address",
          "name": "roles",
          "type": "address"
        },
        {
          "internalType": "address",
          "name": "identityRegistry",
          "type": "address"
        },
        {
          "internalType": "address",
          "name": "bondCall",
          "type": "address"
        },
        {
          "internalType": "address",
          "name": "issuerFund",
          "type": "address"
        }
      ],
      "stateMutability": "view",
      "type": "function"
    },
    {
      "inputs": [
        {
          "internalType": "string",
          "name": "_dealID",
          "type": "string"
        }
      ],
      "name": "getDeal",
      "outputs": [
        {
          "components": [
            {
              "internalType": "string",
              "name": "dealID",
              "type": "string"
            },
            {
              "internalType": "string",
              "name": "prospectusURI",
              "type": "string"
            },
            {
              "internalType": "address",
              "name": "issuerAddress",
              "type": "address"
            },
            {
              "internalType": "uint256",
              "name": "debtAmount",
              "type": "uint256"
            },
            {
              "internalType": "uint256",
              "name": "denomination",
              "type": "uint256"
            },
            {
              "internalType": "uint256",
              "name": "couponRate",
              "type": "uint256"
            },
            {
              "internalType": "uint256",
              "name": "couponFrequency",
              "type": "uint256"
            },
            {
              "internalType": "uint256",
              "name": "maturityDate",
              "type": "uint256"
            },
            {
              "internalType": "uint256",
              "name": "index",
              "type": "uint256"
            },
            {
              "internalType": "address",
              "name": "currency",
              "type": "address"
            },
            {
              "internalType": "uint8",
              "name": "couponType",
              "type": "uint8"
            },
            {
              "internalType": "enum BondData.DealStatus",
              "name": "status",
              "type": "uint8"
            }
          ],
          "internalType": "struct BondData.Deal",
          "name": "",
          "type": "tuple"
        }
      ],
      "stateMutability": "view",
      "type": "function"
    },
    {
      "inputs": [
        {
          "internalType": "string",
          "name": "_dealID",
          "type": "string"
        }
      ],
      "name": "getDealBondContract",
      "outputs": [
        {
          "internalType": "address",
          "name": "",
          "type": "address"
        }
      ],
      "stateMutability": "view",
      "type": "function"
    },
    {
      "inputs": [],
      "name": "getDealFees",
      "outputs": [
        {
          "internalType": "uint256",
          "name": "",
          "type": "uint256"
        }
      ],
      "stateMutability": "view",
      "type": "function"
    },
    {
      "inputs": [
        {
          "internalType": "string",
          "name": "_dealID",
          "type": "string"
        }
      ],
      "name": "getDealInvestment",
      "outputs": [
        {
          "components": [
            {
              "internalType": "address",
              "name": "investor",
              "type": "address"
            },
            {
              "internalType": "uint256",
              "name": "amount",
              "type": "uint256"
            }
          ],
          "internalType": "struct BondData.DealInvestment[]",
          "name": "",
          "type": "tuple[]"
        }
      ],
      "stateMutability": "view",
      "type": "function"
    },
    {
      "inputs": [
        {
          "internalType": "address",
          "name": "_fixedPayerContract",
          "type": "address"
        },
        {
          "internalType": "address",
          "name": "_floatingPayerContract",
          "type": "address"
        }
      ],
      "name": "getIRSContract",
      "outputs": [
        {
          "internalType": "address",
          "name": "",
          "type": "address"
        }
      ],
      "stateMutability": "view",
      "type": "function"
    },
    {
      "inputs": [],
      "name": "getListOfBonds",
      "outputs": [
        {
          "components": [
            {
              "internalType": "string",
              "name": "isin",
              "type": "string"
            },
            {
              "internalType": "string",
              "name": "name",
              "type": "string"
            },
            {
              "internalType": "string",
              "name": "symbol",
              "type": "string"
            },
            {
              "internalType": "address",
              "name": "currency",
              "type": "address"
            },
            {
              "internalType": "uint256",
              "name": "denomination",
              "type": "uint256"
            },
            {
              "internalType": "uint256",
              "name": "issueVolume",
              "type": "uint256"
            },
            {
              "internalType": "uint256",
              "name": "couponRate",
              "type": "uint256"
            },
            {
              "internalType": "uint8",
              "name": "couponType",
              "type": "uint8"
            },
            {
              "internalType": "uint256",
              "name": "couponFrequency",
              "type": "uint256"
            },
            {
              "internalType": "uint256",
              "name": "issueDate",
              "type": "uint256"
            },
            {
              "internalType": "uint256",
              "name": "maturityDate",
              "type": "uint256"
            }
          ],
          "internalType": "struct BondData.Bond[]",
          "name": "",
          "type": "tuple[]"
        }
      ],
      "stateMutability": "view",
      "type": "function"
    },
    {
      "inputs": [],
      "name": "getListOfBondsDealIDs",
      "outputs": [
        {
          "internalType": "string[]",
          "name": "",
          "type": "string[]"
        }
      ],
      "stateMutability": "view",
      "type": "function"
    },
    {
      "inputs": [],
      "name": "getListOfDeals",
      "outputs": [
        {
          "components": [
            {
              "internalType": "string",
              "name": "dealID",
              "type": "string"
            },
            {
              "internalType": "string",
              "name": "prospectusURI",
              "type": "string"
            },
            {
              "internalType": "address",
              "name": "issuerAddress",
              "type": "address"
            },
            {
              "internalType": "uint256",
              "name": "debtAmount",
              "type": "uint256"
            },
            {
              "internalType": "uint256",
              "name": "denomination",
              "type": "uint256"
            },
            {
              "internalType": "uint256",
              "name": "couponRate",
              "type": "uint256"
            },
            {
              "internalType": "uint256",
              "name": "couponFrequency",
              "type": "uint256"
            },
            {
              "internalType": "uint256",
              "name": "maturityDate",
              "type": "uint256"
            },
            {
              "internalType": "uint256",
              "name": "index",
              "type": "uint256"
            },
            {
              "internalType": "address",
              "name": "currency",
              "type": "address"
            },
            {
              "internalType": "uint8",
              "name": "couponType",
              "type": "uint8"
            },
            {
              "internalType": "enum BondData.DealStatus",
              "name": "status",
              "type": "uint8"
            }
          ],
          "internalType": "struct BondData.Deal[]",
          "name": "",
          "type": "tuple[]"
        }
      ],
      "stateMutability": "view",
      "type": "function"
    },
    {
      "inputs": [],
      "name": "getListOfIRS",
      "outputs": [
        {
          "components": [
            {
              "internalType": "address",
              "name": "irsContract",
              "type": "address"
            },
            {
              "internalType": "address",
              "name": "fixedInterestPayer",
              "type": "address"
            },
            {
              "internalType": "address",
              "name": "floatingInterestPayer",
              "type": "address"
            },
            {
              "internalType": "uint8",
              "name": "ratesDecimals",
              "type": "uint8"
            },
            {
              "internalType": "uint8",
              "name": "status",
              "type": "uint8"
            },
            {
              "internalType": "uint256",
              "name": "swapRate",
              "type": "uint256"
            },
            {
              "internalType": "uint256",
              "name": "spread",
              "type": "uint256"
            },
            {
              "internalType": "address",
              "name": "assetContract",
              "type": "address"
            },
            {
              "internalType": "uint256",
              "name": "notionalAmount",
              "type": "uint256"
            },
            {
              "internalType": "uint256",
              "name": "paymentFrequency",
              "type": "uint256"
            },
            {
              "internalType": "uint256",
              "name": "startingDate",
              "type": "uint256"
            },
            {
              "internalType": "uint256",
              "name": "maturityDate",
              "type": "uint256"
            },
            {
              "internalType": "uint256",
              "name": "benchmark",
              "type": "uint256"
            },
            {
              "internalType": "uint8",
              "name": "index",
              "type": "uint8"
            }
          ],
          "internalType": "struct IRSTypes.IRS[]",
          "name": "",
          "type": "tuple[]"
        }
      ],
      "stateMutability": "view",
      "type": "function"
    },
    {
      "inputs": [
        {
          "internalType": "string",
          "name": "_dealID",
          "type": "string"
        }
      ],
      "name": "getTotalAmounInvested",
      "outputs": [
        {
          "internalType": "uint256",
          "name": "",
          "type": "uint256"
        }
      ],
      "stateMutability": "view",
      "type": "function"
    },
    {
      "inputs": [],
      "name": "identityRegistryContract",
      "outputs": [
        {
          "internalType": "address",
          "name": "",
          "type": "address"
        }
      ],
      "stateMutability": "view",
      "type": "function"
    },
    {
      "inputs": [],
      "name": "irsCallContract",
      "outputs": [
        {
          "internalType": "address",
          "name": "",
          "type": "address"
        }
      ],
      "stateMutability": "view",
      "type": "function"
    },
    {
      "inputs": [
        {
          "internalType": "string",
          "name": "_dealID",
          "type": "string"
        },
        {
          "components": [
            {
              "internalType": "string",
              "name": "isin",
              "type": "string"
            },
            {
              "internalType": "string",
              "name": "name",
              "type": "string"
            },
            {
              "internalType": "string",
              "name": "symbol",
              "type": "string"
            },
            {
              "internalType": "address",
              "name": "currency",
              "type": "address"
            },
            {
              "internalType": "uint256",
              "name": "denomination",
              "type": "uint256"
            },
            {
              "internalType": "uint256",
              "name": "issueVolume",
              "type": "uint256"
            },
            {
              "internalType": "uint256",
              "name": "couponRate",
              "type": "uint256"
            },
            {
              "internalType": "uint8",
              "name": "couponType",
              "type": "uint8"
            },
            {
              "internalType": "uint256",
              "name": "couponFrequency",
              "type": "uint256"
            },
            {
              "internalType": "uint256",
              "name": "issueDate",
              "type": "uint256"
            },
            {
              "internalType": "uint256",
              "name": "maturityDate",
              "type": "uint256"
            }
          ],
          "internalType": "struct BondData.Bond",
          "name": "_bond",
          "type": "tuple"
        },
        {
          "internalType": "address",
          "name": "_bondContract",
          "type": "address"
        }
      ],
      "name": "issue",
      "outputs": [],
      "stateMutability": "nonpayable",
      "type": "function"
    },
    {
      "inputs": [
        {
          "internalType": "address",
          "name": "",
          "type": "address"
        },
        {
          "internalType": "uint256",
          "name": "",
          "type": "uint256"
        }
      ],
      "name": "issuerDeals",
      "outputs": [
        {
          "internalType": "string",
          "name": "dealID",
          "type": "string"
        },
        {
          "internalType": "string",
          "name": "prospectusURI",
          "type": "string"
        },
        {
          "internalType": "address",
          "name": "issuerAddress",
          "type": "address"
        },
        {
          "internalType": "uint256",
          "name": "debtAmount",
          "type": "uint256"
        },
        {
          "internalType": "uint256",
          "name": "denomination",
          "type": "uint256"
        },
        {
          "internalType": "uint256",
          "name": "couponRate",
          "type": "uint256"
        },
        {
          "internalType": "uint256",
          "name": "couponFrequency",
          "type": "uint256"
        },
        {
          "internalType": "uint256",
          "name": "maturityDate",
          "type": "uint256"
        },
        {
          "internalType": "uint256",
          "name": "index",
          "type": "uint256"
        },
        {
          "internalType": "address",
          "name": "currency",
          "type": "address"
        },
        {
          "internalType": "uint8",
          "name": "couponType",
          "type": "uint8"
        },
        {
          "internalType": "enum BondData.DealStatus",
          "name": "status",
          "type": "uint8"
        }
      ],
      "stateMutability": "view",
      "type": "function"
    },
    {
      "inputs": [],
      "name": "issuersFundContract",
      "outputs": [
        {
          "internalType": "address",
          "name": "",
          "type": "address"
        }
      ],
      "stateMutability": "view",
      "type": "function"
    },
    {
      "inputs": [
        {
          "internalType": "string",
          "name": "_dealID",
          "type": "string"
        },
        {
          "internalType": "address",
          "name": "_bondContract",
          "type": "address"
        }
      ],
      "name": "redeem",
      "outputs": [],
      "stateMutability": "nonpayable",
      "type": "function"
    },
    {
      "inputs": [
        {
          "internalType": "string",
          "name": "_dealID",
          "type": "string"
        },
        {
          "internalType": "uint256",
          "name": "_amount",
          "type": "uint256"
        }
      ],
      "name": "registerForDeal",
      "outputs": [],
      "stateMutability": "nonpayable",
      "type": "function"
    },
    {
      "inputs": [
        {
          "internalType": "string",
          "name": "_dealID",
          "type": "string"
        }
      ],
      "name": "rejectDeal",
      "outputs": [],
      "stateMutability": "nonpayable",
      "type": "function"
    },
    {
      "inputs": [],
      "name": "rolesContract",
      "outputs": [
        {
          "internalType": "address",
          "name": "",
          "type": "address"
        }
      ],
      "stateMutability": "view",
      "type": "function"
    },
    {
      "inputs": [
        {
          "internalType": "uint256",
          "name": "_benchmark",
          "type": "uint256"
        }
      ],
      "name": "setBenchmark",
      "outputs": [],
      "stateMutability": "nonpayable",
      "type": "function"
    },
    {
      "inputs": [
        {
          "internalType": "string",
          "name": "_dealID",
          "type": "string"
        },
        {
          "internalType": "address",
          "name": "_bondContractAddress",
          "type": "address"
        }
      ],
      "name": "setBondContractAddress",
      "outputs": [],
      "stateMutability": "nonpayable",
      "type": "function"
    },
    {
      "inputs": [
        {
          "internalType": "uint256",
          "name": "_newBenchmark",
          "type": "uint256"
        },
        {
          "internalType": "address",
          "name": "_swapContract",
          "type": "address"
        }
      ],
      "name": "setIRSBenchmark",
      "outputs": [],
      "stateMutability": "nonpayable",
      "type": "function"
    },
    {
      "inputs": [
        {
          "internalType": "address",
          "name": "_fixedPayerContract",
          "type": "address"
        },
        {
          "internalType": "address",
          "name": "_floatingPayerContract",
          "type": "address"
        },
        {
          "internalType": "address",
          "name": "_irsContractAddress",
          "type": "address"
        },
        {
          "components": [
            {
              "internalType": "address",
              "name": "irsContract",
              "type": "address"
            },
            {
              "internalType": "address",
              "name": "fixedInterestPayer",
              "type": "address"
            },
            {
              "internalType": "address",
              "name": "floatingInterestPayer",
              "type": "address"
            },
            {
              "internalType": "uint8",
              "name": "ratesDecimals",
              "type": "uint8"
            },
            {
              "internalType": "uint8",
              "name": "status",
              "type": "uint8"
            },
            {
              "internalType": "uint256",
              "name": "swapRate",
              "type": "uint256"
            },
            {
              "internalType": "uint256",
              "name": "spread",
              "type": "uint256"
            },
            {
              "internalType": "address",
              "name": "assetContract",
              "type": "address"
            },
            {
              "internalType": "uint256",
              "name": "notionalAmount",
              "type": "uint256"
            },
            {
              "internalType": "uint256",
              "name": "paymentFrequency",
              "type": "uint256"
            },
            {
              "internalType": "uint256",
              "name": "startingDate",
              "type": "uint256"
            },
            {
              "internalType": "uint256",
              "name": "maturityDate",
              "type": "uint256"
            },
            {
              "internalType": "uint256",
              "name": "benchmark",
              "type": "uint256"
            },
            {
              "internalType": "uint8",
              "name": "index",
              "type": "uint8"
            }
          ],
          "internalType": "struct IRSTypes.IRS",
          "name": "_irs",
          "type": "tuple"
        }
      ],
      "name": "setIRSContractAddress",
      "outputs": [],
      "stateMutability": "nonpayable",
      "type": "function"
    },
    {
      "inputs": [
        {
          "internalType": "address",
          "name": "_issuerFundContract",
          "type": "address"
        }
      ],
      "name": "setIssuerFundContract",
      "outputs": [],
      "stateMutability": "nonpayable",
      "type": "function"
    },
    {
      "inputs": [
        {
          "internalType": "address",
          "name": "_toposManager",
          "type": "address"
        }
      ],
      "name": "setManager",
      "outputs": [],
      "stateMutability": "nonpayable",
      "type": "function"
    },
    {
      "inputs": [
        {
          "internalType": "string",
          "name": "_dealID",
          "type": "string"
        },
        {
          "components": [
            {
              "internalType": "string",
              "name": "dealID",
              "type": "string"
            },
            {
              "internalType": "string",
              "name": "prospectusURI",
              "type": "string"
            },
            {
              "internalType": "address",
              "name": "issuerAddress",
              "type": "address"
            },
            {
              "internalType": "uint256",
              "name": "debtAmount",
              "type": "uint256"
            },
            {
              "internalType": "uint256",
              "name": "denomination",
              "type": "uint256"
            },
            {
              "internalType": "uint256",
              "name": "couponRate",
              "type": "uint256"
            },
            {
              "internalType": "uint256",
              "name": "couponFrequency",
              "type": "uint256"
            },
            {
              "internalType": "uint256",
              "name": "maturityDate",
              "type": "uint256"
            },
            {
              "internalType": "uint256",
              "name": "index",
              "type": "uint256"
            },
            {
              "internalType": "address",
              "name": "currency",
              "type": "address"
            },
            {
              "internalType": "uint8",
              "name": "couponType",
              "type": "uint8"
            },
            {
              "internalType": "enum BondData.DealStatus",
              "name": "status",
              "type": "uint8"
            }
          ],
          "internalType": "struct BondData.Deal",
          "name": "_deal",
          "type": "tuple"
        }
      ],
      "name": "submitDeal",
      "outputs": [],
      "stateMutability": "nonpayable",
      "type": "function"
    },
    {
      "inputs": [
        {
          "internalType": "address",
          "name": "_swapContract",
          "type": "address"
        }
      ],
      "name": "swapIRS",
      "outputs": [],
      "stateMutability": "nonpayable",
      "type": "function"
    },
    {
      "inputs": [],
      "name": "toposManager",
      "outputs": [
        {
          "internalType": "address",
          "name": "",
          "type": "address"
        }
      ],
      "stateMutability": "view",
      "type": "function"
    },
    {
      "inputs": [
        {
          "internalType": "string",
          "name": "",
          "type": "string"
        }
      ],
      "name": "totalAmountInvestedForDeal",
      "outputs": [
        {
          "internalType": "uint256",
          "name": "",
          "type": "uint256"
        }
      ],
      "stateMutability": "view",
      "type": "function"
    },
    {
      "inputs": [
        {
          "internalType": "string",
          "name": "_dealID",
          "type": "string"
        }
      ],
      "name": "withdrawIssuerFund",
      "outputs": [],
      "stateMutability": "nonpayable",
      "type": "function"
    }
  ],
  "bytecode": "0x60806040523480156200001157600080fd5b50604051620047fd380380620047fd8339810160408190526200003491620000b8565b600780546001600160a01b03199081166001600160a01b03988916179091556008805482169688169690961790955560098054861694871694909417909355600a8054851692861692909217909155600b80549093169316929092179055600d5562000130565b80516001600160a01b0381168114620000b357600080fd5b919050565b60008060008060008060c08789031215620000d257600080fd5b620000dd876200009b565b9550620000ed602088016200009b565b9450620000fd604088016200009b565b93506200010d606088016200009b565b92506200011d608088016200009b565b915060a087015190509295509295509295565b6146bd80620001406000396000f3fe608060405234801561001057600080fd5b50600436106102c85760003560e01c8063754f399a1161017b578063c8d7f62e116100d8578063f3413c4f1161008c578063fe0ab4b311610071578063fe0ab4b31461095d578063fe3b85b714610991578063ff6689d0146109c957600080fd5b8063f3413c4f14610935578063fb90e4411461094a57600080fd5b8063d0ebdbe7116100bd578063d0ebdbe7146108ef578063d7c4029c14610902578063e70791801461091557600080fd5b8063c8d7f62e146108bc578063ca53b391146108dc57600080fd5b80639f0d8d2a1161012f578063af9080f811610114578063af9080f814610856578063b83c7fba1461085f578063c3a2a93a1461087257600080fd5b80639f0d8d2a14610830578063a0a57dac1461084357600080fd5b80637af4d652116101605780637af4d652146107f75780637bafe3d01461080a5780637f31ed731461081d57600080fd5b8063754f399a146107dc57806379a94569146107ef57600080fd5b806336f9c4da11610229578063507251cb116101dd5780635ed7e2c1116101c25780635ed7e2c11461077d578063605936ea146107b657806368a2da51146107c957600080fd5b8063507251cb146107575780635e43522e1461076a57600080fd5b806348f92ee81161020e57806348f92ee8146106e7578063499fa18a146106fa57806349f5d1d91461072c57600080fd5b806336f9c4da146106bf5780633887bdcf146106d457600080fd5b80631b59122c11610280578063281ddc8e11610265578063281ddc8e146103c95780632e55f487146103de5780632f667910146106ac57600080fd5b80631b59122c146103a1578063234b153f146103b457600080fd5b80630df8bfda116102b15780630df8bfda146103665780631882c1951461037b57806319662d8e1461038e57600080fd5b8063041e9b89146102cd578063088674e01461033b575b600080fd5b61031b6102db36600461332e565b60056020908152600092835260409092208151808301840180519281529084019290930191909120915280546001820154600290920154909160ff169083565b604080519384529115156020840152908201526060015b60405180910390f35b60095461034e906001600160a01b031681565b6040516001600160a01b039091168152602001610332565b6103796103743660046133c7565b6109d1565b005b610379610389366004613413565b6110b1565b61037961039c366004613465565b6110f5565b6103796103af3660046134d6565b6114b4565b6103bc611691565b6040516103329190613513565b6103d16117a0565b6040516103329190613652565b6103796103ec3660046136ce565b6001600160a01b039384166000908152600260209081526040808320958716835294815284822080546001600160a01b031990811695881695909517905560128054600181018255925282517fbb8a6a4669ba250d26cd7a459eca9d215f8307e33aebe50379bc5a3617ec3444600c909302928301805486169188169190911790558201517fbb8a6a4669ba250d26cd7a459eca9d215f8307e33aebe50379bc5a3617ec3445820180548516918716919091179055928101517fbb8a6a4669ba250d26cd7a459eca9d215f8307e33aebe50379bc5a3617ec3446840180546060840151608085015193881674ffffffffffffffffffffffffffffffffffffffffff1990921691909117600160a01b60ff928316021760ff60a81b1916600160a81b9382169390930292909217905560a08201517fbb8a6a4669ba250d26cd7a459eca9d215f8307e33aebe50379bc5a3617ec344785015560c08201517fbb8a6a4669ba250d26cd7a459eca9d215f8307e33aebe50379bc5a3617ec344885015560e08201517fbb8a6a4669ba250d26cd7a459eca9d215f8307e33aebe50379bc5a3617ec3449850180549094169516949094179091556101008101517fbb8a6a4669ba250d26cd7a459eca9d215f8307e33aebe50379bc5a3617ec344a8301556101208101517fbb8a6a4669ba250d26cd7a459eca9d215f8307e33aebe50379bc5a3617ec344b8301556101408101517fbb8a6a4669ba250d26cd7a459eca9d215f8307e33aebe50379bc5a3617ec344c8301556101608101517fbb8a6a4669ba250d26cd7a459eca9d215f8307e33aebe50379bc5a3617ec344d8301556101808101517fbb8a6a4669ba250d26cd7a459eca9d215f8307e33aebe50379bc5a3617ec344e8301556101a001517fbb8a6a4669ba250d26cd7a459eca9d215f8307e33aebe50379bc5a3617ec344f909101805460ff191691909216179055565b61034e6106ba3660046134d6565b611870565b6106c76118a1565b6040516103329190613913565b6103796106e2366004613968565b611ac3565b6103796106f536600461398c565b611b4d565b61070d6107083660046139ce565b611d0d565b604080516001600160a01b039093168352602083019190915201610332565b61073f61073a366004613a13565b611d62565b6040516103329c9b9a99989796959493929190613a3f565b610379610765366004613ad1565b611f0b565b600a5461034e906001600160a01b031681565b6107a861078b3660046134d6565b805160208183018101805160048252928201919093012091525481565b604051908152602001610332565b6107a86107c436600461398c565b61235f565b6103796107d7366004613b53565b61238b565b6103796107ea36600461398c565b6123df565b600e546107a8565b600b5461034e906001600160a01b031681565b610379610818366004613968565b612593565b60075461034e906001600160a01b031681565b61037961083e366004613b6c565b612617565b61073f6108513660046134d6565b6126dd565b6107a8600d5481565b61037961086d366004613968565b612703565b600754600854600954600a54600c54604080516001600160a01b0396871681529486166020860152928516928401929092528316606083015291909116608082015260a001610332565b6108cf6108ca36600461398c565b61278d565b6040516103329190613b91565b60085461034e906001600160a01b031681565b6103796108fd366004613968565b612823565b610379610910366004613bdc565b6128f3565b6109286109233660046134d6565b612d41565b6040516103329190613c28565b61093d612f43565b6040516103329190613c3b565b600c5461034e906001600160a01b031681565b61034e61096b3660046134d6565b80516020818301810180516001825292820191909301209152546001600160a01b031681565b61034e61099f366004613d43565b6001600160a01b039182166000908152600260209081526040808320938516835292905220541690565b600d546107a8565b6009546040517fb9209e330000000000000000000000000000000000000000000000000000000081523360048201819052916001600160a01b03169063b9209e3390602401602060405180830381865afa158015610a33573d6000803e3d6000fd5b505050506040513d601f19601f82011682018060405250810190610a579190613d71565b610aa85760405162461bcd60e51b815260206004820152601460248201527f4143434f554e545f4e4f545f414150524f56454400000000000000000000000060448201526064015b60405180910390fd5b600260008585604051610abc929190613d93565b9081526040519081900360200190206009015460ff600160a81b909104166005811115610aeb57610aeb613807565b14610b0d578383604051632dc5942160e21b8152600401610a9f929190613dcc565b60008484604051610b1f929190613d93565b90815260200160405180910390206004015460008585604051610b43929190613d93565b90815260200160405180910390206004015483610b609190613df6565b610b6a9190613e0d565b15610ba4576040517f3728b83d00000000000000000000000000000000000000000000000000000000815260048101839052602401610a9f565b8115801590610c01575060008484604051610bc0929190613d93565b90815260200160405180910390206003015460048585604051610be4929190613d93565b90815260200160405180910390205483610bfe9190613e2f565b11155b610c4d5760405162461bcd60e51b815260206004820152600660248201527f616d6f756e7400000000000000000000000000000000000000000000000000006044820152606401610a9f565b8160048585604051610c60929190613d93565b908152602001604051809103902054610c799190613e2f565b60048585604051610c8b929190613d93565b9081526040805160209281900383018120939093553360009081526005909252902090610cbb9086908690613d93565b9081526040519081900360200190206001015460ff1615610e105733600090815260056020526040908190209051839190610cf99087908790613d93565b90815260405190819003602001902054610d139190613e2f565b60038585604051610d25929190613d93565b90815260408051918290036020908101832033600090815260059092529190209091610d549088908890613d93565b90815260200160405180910390206002015481548110610d7657610d76613e42565b9060005260206000209060020201600101819055508160056000336001600160a01b03166001600160a01b031681526020019081526020016000208585604051610dc1929190613d93565b90815260405190819003602001902054610ddb9190613e2f565b33600090815260056020526040908190209051610dfb9087908790613d93565b90815260405190819003602001902055610f11565b604051806060016040528083815260200160011515815260200160038686604051610e3c929190613d93565b90815260408051602092819003830190205490925233600090815260059091528190209051610e6e9087908790613d93565b9081526040805160209281900383018120845181559284015160018401805460ff1916911515919091179055920151600290910155600390610eb39086908690613d93565b90815260408051602092819003830181208183019092523381528281018581528254600180820185556000948552949093209151600290930290910180546001600160a01b0319166001600160a01b03909316929092178255519101555b600c546040517f925b7cb60000000000000000000000000000000000000000000000000000000081526001600160a01b039091169063925b7cb690610f5e90879087908790600401613e58565b600060405180830381600087803b158015610f7857600080fd5b505af1158015610f8c573d6000803e3d6000fd5b5050505060008484604051610fa2929190613d93565b90815260405190819003602001902060090154600c546001600160a01b03918216916323b872dd91339116610fdf86670de0b6b3a7640000613df6565b6040517fffffffff0000000000000000000000000000000000000000000000000000000060e086901b1681526001600160a01b03938416600482015292909116602483015260448201526064016020604051808303816000875af115801561104b573d6000803e3d6000fd5b505050506040513d601f19601f8201168201806040525081019061106f9190613d71565b507f0bdaf52b4de514796607307fbbcf007ee6d59e81e1be436b67c5a567a2e8d1218484336040516110a393929190613e7c565b60405180910390a150505050565b806001836040516110c29190613ea9565b90815260405190819003602001902080546001600160a01b03929092166001600160a01b03199092169190911790555050565b6008546040517f877b9a670000000000000000000000000000000000000000000000000000000081523360048201526001600160a01b039091169063877b9a6790602401602060405180830381865afa158015611156573d6000803e3d6000fd5b505050506040513d601f19601f8201168201806040525081019061117a9190613d71565b6111c65760405162461bcd60e51b815260206004820152600a60248201527f6e6f7420697373756572000000000000000000000000000000000000000000006044820152606401610a9f565b6111d66060820160408301613968565b6001600160a01b0316336001600160a01b0316146112205760405162461bcd60e51b81526020600482015260076024820152666164647265737360c81b6044820152606401610a9f565b6000808484604051611233929190613d93565b9081526040519081900360200190206009015460ff600160a81b90910416600581111561126257611262613807565b146112985760405162461bcd60e51b815260206004820152600660248201526573746174757360d01b6044820152606401610a9f565b80600084846040516112ab929190613d93565b9081526040519081900360200190206112c482826140d1565b9050506001600084846040516112db929190613d93565b908152604051908190036020019020600901805460ff60a81b1916600160a81b83600581111561130d5761130d613807565b02179055506010546040516000906113289086908690613d93565b908152602001604051809103902060080181905550601060008484604051611351929190613d93565b908152604051602091819003820190208254600181018455600093845291909220600a9091020180611383838261420f565b506001818101906113969084018261420f565b5060028281015490820180546001600160a01b039283166001600160a01b0319918216179091556003808501549084015560048085015490840155600580850154818501556006808601549085015560078086015490850155600880860154908501556009808601805491860180549290951693821684178555805474ffffffffffffffffffffffffffffffffffffffffff19909216909317600160a01b9182900460ff908116909202178085559254600160a81b90819004909116939260ff60a81b191691849081111561146d5761146d613807565b021790555050507febc5645d06a6c6900ffbabb37c6fc84326bd870990f736254f05abb3287ffd418383836040516114a79392919061433d565b60405180910390a1505050565b6000816040516114c49190613ea9565b90815260405190819003602001902060020154336001600160a01b0390911614806114f957506007546001600160a01b031633145b61152f5760405162461bcd60e51b81526020600482015260076024820152666164647265737360c81b6044820152606401610a9f565b60006001600160a01b031660008260405161154a9190613ea9565b908152604051908190036020019020600901546001600160a01b0316036115b35760405162461bcd60e51b815260206004820152600560248201527f746f6b656e0000000000000000000000000000000000000000000000000000006044820152606401610a9f565b600c546040516001600160a01b039091169063e04cd97f9083906000906115db908390613ea9565b908152604051908190036020018120600201546001600160a01b031690600090611606908790613ea9565b908152604051908190036020018120600901547fffffffff0000000000000000000000000000000000000000000000000000000060e086901b16825261165c9392916001600160a01b039091169060040161444f565b600060405180830381600087803b15801561167657600080fd5b505af115801561168a573d6000803e3d6000fd5b5050505050565b60606012805480602002602001604051908101604052809291908181526020016000905b82821015611797576000848152602090819020604080516101c081018252600c860290920180546001600160a01b03908116845260018083015482168587015260028301548083169486019490945260ff600160a01b850481166060870152600160a81b90940484166080860152600383015460a0860152600483015460c0860152600583015490911660e08501526006820154610100850152600782015461012085015260088201546101408501526009820154610160850152600a820154610180850152600b909101549091166101a083015290835290920191016116b5565b50505050905090565b60606011805480602002602001604051908101604052809291908181526020016000905b828210156117975783829060005260206000200180546117e390613f0c565b80601f016020809104026020016040519081016040528092919081815260200182805461180f90613f0c565b801561185c5780601f106118315761010080835404028352916020019161185c565b820191906000526020600020905b81548152906001019060200180831161183f57829003601f168201915b5050505050815260200190600101906117c4565b60006001826040516118829190613ea9565b908152604051908190036020019020546001600160a01b031692915050565b60606010805480602002602001604051908101604052809291908181526020016000905b8282101561179757838290600052602060002090600a0201604051806101800160405290816000820180546118f990613f0c565b80601f016020809104026020016040519081016040528092919081815260200182805461192590613f0c565b80156119725780601f1061194757610100808354040283529160200191611972565b820191906000526020600020905b81548152906001019060200180831161195557829003601f168201915b5050505050815260200160018201805461198b90613f0c565b80601f01602080910402602001604051908101604052809291908181526020018280546119b790613f0c565b8015611a045780601f106119d957610100808354040283529160200191611a04565b820191906000526020600020905b8154815290600101906020018083116119e757829003601f168201915b505050918352505060028201546001600160a01b03908116602083015260038301546040830152600483015460608301526005808401546080840152600684015460a0840152600784015460c0840152600884015460e0840152600984015491821661010084015260ff600160a01b8304811661012085015261014090930192600160a81b90920490911690811115611a9f57611a9f613807565b6005811115611ab057611ab0613807565b81525050815260200190600101906118c5565b6007546001600160a01b03163314611b125760405162461bcd60e51b815260206004820152601260248201527127a7262cafaa27a827a9afa6a0a720a3a2a960711b6044820152606401610a9f565b806001600160a01b0316638119c0656040518163ffffffff1660e01b8152600401600060405180830381600087803b15801561167657600080fd5b6007546001600160a01b03163314611b9c5760405162461bcd60e51b815260206004820152601260248201527127a7262cafaa27a827a9afa6a0a720a3a2a960711b6044820152606401610a9f565b600160008383604051611bb0929190613d93565b9081526040519081900360200190206009015460ff600160a81b909104166005811115611bdf57611bdf613807565b14611c155760405162461bcd60e51b815260206004820152600660248201526573746174757360d01b6044820152606401610a9f565b600260008383604051611c29929190613d93565b908152604051908190036020019020600901805460ff60a81b1916600160a81b836005811115611c5b57611c5b613807565b02179055506002601060008484604051611c76929190613d93565b90815260200160405180910390206008015481548110611c9857611c98613e42565b600091825260209091206009600a9092020101805460ff60a81b1916600160a81b836005811115611ccb57611ccb613807565b02179055507f039501081328ffe3eb02459ad6f6e90b69e23ba1422b574ee84c1f52b2fc03108282604051611d01929190613dcc565b60405180910390a15050565b81516020818401810180516003825292820191850191909120919052805482908110611d3857600080fd5b6000918252602090912060029091020180546001909101546001600160a01b039091169250905082565b60066020528160005260406000208181548110611d7e57600080fd5b90600052602060002090600a020160009150915050806000018054611da290613f0c565b80601f0160208091040260200160405190810160405280929190818152602001828054611dce90613f0c565b8015611e1b5780601f10611df057610100808354040283529160200191611e1b565b820191906000526020600020905b815481529060010190602001808311611dfe57829003601f168201915b505050505090806001018054611e3090613f0c565b80601f0160208091040260200160405190810160405280929190818152602001828054611e5c90613f0c565b8015611ea95780601f10611e7e57610100808354040283529160200191611ea9565b820191906000526020600020905b815481529060010190602001808311611e8c57829003601f168201915b50505060028401546003850154600486015460058701546006880154600789015460088a01546009909a015498996001600160a01b0396871699959850939650919490939192919081169060ff600160a01b8204811691600160a81b9004168c565b6007546001600160a01b03163314611f5a5760405162461bcd60e51b815260206004820152601260248201527127a7262cafaa27a827a9afa6a0a720a3a2a960711b6044820152606401610a9f565b600260008585604051611f6e929190613d93565b9081526040519081900360200190206009015460ff600160a81b909104166005811115611f9d57611f9d613807565b14611fbf578383604051632dc5942160e21b8152600401610a9f929190613dcc565b8060018585604051611fd2929190613d93565b908152602001604051809103902060006101000a8154816001600160a01b0302191690836001600160a01b03160217905550600460008585604051612018929190613d93565b908152604051908190036020019020600901805460ff60a81b1916600160a81b83600581111561204a5761204a613807565b02179055506004601060008686604051612065929190613d93565b9081526020016040518091039020600801548154811061208757612087613e42565b600091825260209091206009600a9092020101805460ff60a81b1916600160a81b8360058111156120ba576120ba613807565b0217905550600660008086866040516120d4929190613d93565b9081526040805160209281900383019020600201546001600160a01b03168352908201929092528101600090812091516121119087908790613d93565b908152604051602091819003820190208254600181018455600093845291909220600a9091020180612143838261420f565b506001818101906121569084018261420f565b5060028281015490820180546001600160a01b039283166001600160a01b0319918216179091556003808501549084015560048085015490840155600580850154818501556006808601549085015560078086015490850155600880860154908501556009808601805491860180549290951693821684178555805474ffffffffffffffffffffffffffffffffffffffffff19909216909317600160a01b9182900460ff908116909202178085559254600160a81b90819004909116939260ff60a81b191691849081111561222d5761222d613807565b021790555050601180546001810182556000919091527f31ecc21a745e3968a04e9570e4425bc18fa8019c68028196b546d1669c200c68019050612272848683613f91565b506040517fd76805aa0000000000000000000000000000000000000000000000000000000081526001600160a01b0382169063d76805aa906122b8908590600401614482565b600060405180830381600087803b1580156122d257600080fd5b505af11580156122e6573d6000803e3d6000fd5b5050600f8054600181018255600091909152849250600b027f8d1108e10bcb7c27dddfc02ed9d693a074039d026cf4ea4240b40f7d581ac80201905061232c8282614586565b50507f44b55c2d9270546faf6ff2f0acac078011883b82782d9b08de2d3af4543c2b1884846040516110a3929190613dcc565b600060048383604051612373929190613d93565b90815260200160405180910390205490505b92915050565b6007546001600160a01b031633146123da5760405162461bcd60e51b815260206004820152601260248201527127a7262cafaa27a827a9afa6a0a720a3a2a960711b6044820152606401610a9f565b600e55565b6007546001600160a01b0316331461242e5760405162461bcd60e51b815260206004820152601260248201527127a7262cafaa27a827a9afa6a0a720a3a2a960711b6044820152606401610a9f565b600160008383604051612442929190613d93565b9081526040519081900360200190206009015460ff600160a81b90910416600581111561247157612471613807565b146124a75760405162461bcd60e51b815260206004820152600660248201526573746174757360d01b6044820152606401610a9f565b6003600083836040516124bb929190613d93565b908152604051908190036020019020600901805460ff60a81b1916600160a81b8360058111156124ed576124ed613807565b02179055506003601060008484604051612508929190613d93565b9081526020016040518091039020600801548154811061252a5761252a613e42565b600091825260209091206009600a9092020101805460ff60a81b1916600160a81b83600581111561255d5761255d613807565b02179055507f735ccdd611541d36c82a3622baab7f58b8a0f5be664555b0d9c95ddde16096d38282604051611d01929190613dcc565b6007546001600160a01b031633146125e25760405162461bcd60e51b815260206004820152601260248201527127a7262cafaa27a827a9afa6a0a720a3a2a960711b6044820152606401610a9f565b6001600160a01b0381166125f557600080fd5b600c80546001600160a01b0319166001600160a01b0392909216919091179055565b6007546001600160a01b031633146126665760405162461bcd60e51b815260206004820152601260248201527127a7262cafaa27a827a9afa6a0a720a3a2a960711b6044820152606401610a9f565b6040517f68a2da51000000000000000000000000000000000000000000000000000000008152600481018390526001600160a01b038216906368a2da5190602401600060405180830381600087803b1580156126c157600080fd5b505af11580156126d5573d6000803e3d6000fd5b505050505050565b8051602081830181018051600082529282019190930120915280548190611da290613f0c565b6007546001600160a01b031633146127525760405162461bcd60e51b815260206004820152601260248201527127a7262cafaa27a827a9afa6a0a720a3a2a960711b6044820152606401610a9f565b806001600160a01b031663442447ca6040518163ffffffff1660e01b8152600401600060405180830381600087803b15801561167657600080fd5b6060600383836040516127a1929190613d93565b9081526020016040518091039020805480602002602001604051908101604052809291908181526020016000905b82821015612817576000848152602090819020604080518082019091526002850290910180546001600160a01b031682526001908101548284015290835290920191016127cf565b50505050905092915050565b6007546001600160a01b031633146128725760405162461bcd60e51b815260206004820152601260248201527127a7262cafaa27a827a9afa6a0a720a3a2a960711b6044820152606401610a9f565b600854604080517fcfde18900000000000000000000000000000000000000000000000000000000081526004810191909152600760448201527f4d414e414745520000000000000000000000000000000000000000000000000060648201526001600160a01b0383811660248301529091169063cfde18909060840161165c565b6007546001600160a01b031633146129425760405162461bcd60e51b815260206004820152601260248201527127a7262cafaa27a827a9afa6a0a720a3a2a960711b6044820152606401610a9f565b600460008484604051612956929190613d93565b9081526040519081900360200190206009015460ff600160a81b90910416600581111561298557612985613807565b146129a7578282604051632dc5942160e21b8152600401610a9f929190613dcc565b6005600084846040516129bb929190613d93565b908152604051908190036020019020600901805460ff60a81b1916600160a81b8360058111156129ed576129ed613807565b02179055506005601060008585604051612a08929190613d93565b90815260200160405180910390206008015481548110612a2a57612a2a613e42565b600091825260209091206009600a9092020101805460ff60a81b1916600160a81b836005811115612a5d57612a5d613807565b0217905550600560066000808686604051612a79929190613d93565b9081526040805160209281900383019020600201546001600160a01b0316835290820192909252810160009081209151612ab69087908790613d93565b90815260200160405180910390206008015481548110612ad857612ad8613e42565b600091825260209091206009600a9092020101805460ff60a81b1916600160a81b836005811115612b0b57612b0b613807565b0217905550806001600160a01b031663be040fb06040518163ffffffff1660e01b8152600401600060405180830381600087803b158015612b4b57600080fd5b505af1158015612b5f573d6000803e3d6000fd5b5050505060005b60038484604051612b78929190613d93565b90815260405190819003602001902054811015612d0f57600060038585604051612ba3929190613d93565b90815260200160405180910390208281548110612bc257612bc2613e42565b9060005260206000209060020201600101549050600060038686604051612bea929190613d93565b90815260200160405180910390208381548110612c0957612c09613e42565b60009182526020909120600290910201546001600160a01b031690508115612cfa5760008686604051612c3d929190613d93565b908152604051908190036020019020600901546001600160a01b031663a9059cbb82612c7185670de0b6b3a7640000613df6565b6040517fffffffff0000000000000000000000000000000000000000000000000000000060e085901b1681526001600160a01b03909216600483015260248201526044016020604051808303816000875af1158015612cd4573d6000803e3d6000fd5b505050506040513d601f19601f82011682018060405250810190612cf89190613d71565b505b50508080612d079061466e565b915050612b66565b507fdfdf42ff0d0eb3e6ec5b40d8cf21fb2f7102b67e5e2d56ab36e817f807213c5b83836040516114a7929190613dcc565b612d496131b3565b600082604051612d599190613ea9565b908152602001604051809103902060405180610180016040529081600082018054612d8390613f0c565b80601f0160208091040260200160405190810160405280929190818152602001828054612daf90613f0c565b8015612dfc5780601f10612dd157610100808354040283529160200191612dfc565b820191906000526020600020905b815481529060010190602001808311612ddf57829003601f168201915b50505050508152602001600182018054612e1590613f0c565b80601f0160208091040260200160405190810160405280929190818152602001828054612e4190613f0c565b8015612e8e5780601f10612e6357610100808354040283529160200191612e8e565b820191906000526020600020905b815481529060010190602001808311612e7157829003601f168201915b505050918352505060028201546001600160a01b03908116602083015260038301546040830152600483015460608301526005808401546080840152600684015460a0840152600784015460c0840152600884015460e0840152600984015491821661010084015260ff600160a01b8304811661012085015261014090930192600160a81b90920490911690811115612f2957612f29613807565b6005811115612f3a57612f3a613807565b90525092915050565b6060600f805480602002602001604051908101604052809291908181526020016000905b8282101561179757838290600052602060002090600b020160405180610160016040529081600082018054612f9b90613f0c565b80601f0160208091040260200160405190810160405280929190818152602001828054612fc790613f0c565b80156130145780601f10612fe957610100808354040283529160200191613014565b820191906000526020600020905b815481529060010190602001808311612ff757829003601f168201915b5050505050815260200160018201805461302d90613f0c565b80601f016020809104026020016040519081016040528092919081815260200182805461305990613f0c565b80156130a65780601f1061307b576101008083540402835291602001916130a6565b820191906000526020600020905b81548152906001019060200180831161308957829003601f168201915b505050505081526020016002820180546130bf90613f0c565b80601f01602080910402602001604051908101604052809291908181526020018280546130eb90613f0c565b80156131385780601f1061310d57610100808354040283529160200191613138565b820191906000526020600020905b81548152906001019060200180831161311b57829003601f168201915b505050918352505060038201546001600160a01b0316602080830191909152600483015460408301526005830154606083015260068301546080830152600783015460ff1660a0830152600883015460c0830152600983015460e0830152600a90920154610100909101529082526001929092019101612f67565b604051806101800160405280606081526020016060815260200160006001600160a01b0316815260200160008152602001600081526020016000815260200160008152602001600081526020016000815260200160006001600160a01b03168152602001600060ff1681526020016000600581111561323457613234613807565b905290565b6001600160a01b038116811461324e57600080fd5b50565b803561325c81613239565b919050565b634e487b7160e01b600052604160045260246000fd5b6040516101c0810167ffffffffffffffff8111828210171561329b5761329b613261565b60405290565b600082601f8301126132b257600080fd5b813567ffffffffffffffff808211156132cd576132cd613261565b604051601f8301601f19908116603f011681019082821181831017156132f5576132f5613261565b8160405283815286602085880101111561330e57600080fd5b836020870160208301376000602085830101528094505050505092915050565b6000806040838503121561334157600080fd5b823561334c81613239565b9150602083013567ffffffffffffffff81111561336857600080fd5b613374858286016132a1565b9150509250929050565b60008083601f84011261339057600080fd5b50813567ffffffffffffffff8111156133a857600080fd5b6020830191508360208285010111156133c057600080fd5b9250929050565b6000806000604084860312156133dc57600080fd5b833567ffffffffffffffff8111156133f357600080fd5b6133ff8682870161337e565b909790965060209590950135949350505050565b6000806040838503121561342657600080fd5b823567ffffffffffffffff81111561343d57600080fd5b613449858286016132a1565b925050602083013561345a81613239565b809150509250929050565b60008060006040848603121561347a57600080fd5b833567ffffffffffffffff8082111561349257600080fd5b61349e8783880161337e565b909550935060208601359150808211156134b757600080fd5b50840161018081870312156134cb57600080fd5b809150509250925092565b6000602082840312156134e857600080fd5b813567ffffffffffffffff8111156134ff57600080fd5b61350b848285016132a1565b949350505050565b602080825282518282018190526000919060409081850190868401855b828110156135f557815180516001600160a01b039081168652878201518116888701528682015181168787015260608083015160ff9081169188019190915260808084015182169088015260a0808401519088015260c0808401519088015260e08084015190921691870191909152610100808301519087015261012080830151908701526101408083015190870152610160808301519087015261018080830151908701526101a09182015116908501526101c09093019290850190600101613530565b5091979650505050505050565b60005b8381101561361d578181015183820152602001613605565b50506000910152565b6000815180845261363e816020860160208601613602565b601f01601f19169290920160200192915050565b6000602080830181845280855180835260408601915060408160051b870101925083870160005b828110156136a757603f19888603018452613695858351613626565b94509285019290850190600101613679565b5092979650505050505050565b60ff8116811461324e57600080fd5b803561325c816136b4565b6000806000808486036102208112156136e657600080fd5b85356136f181613239565b9450602086013561370181613239565b9350604086013561371181613239565b92506101c0605f19820181131561372757600080fd5b61372f613277565b915061373d60608801613251565b825261374b60808801613251565b602083015261375c60a08801613251565b604083015261376d60c088016136c3565b606083015261377e60e088016136c3565b60808301526101008088013560a08401526101208089013560c08501526101406137a9818b01613251565b60e0860152610160808b0135848701526101809350838b0135838701526101a09250828b013582870152848b01358187015250506101e0890135828501526137f46102008a016136c3565b9084015250949793965091945090925050565b634e487b7160e01b600052602160045260246000fd5b6006811061383b57634e487b7160e01b600052602160045260246000fd5b9052565b6000610180825181855261385582860182613626565b9150506020830151848203602086015261386f8282613626565b915050604083015161388c60408601826001600160a01b03169052565b50606083015160608501526080830151608085015260a083015160a085015260c083015160c085015260e083015160e0850152610100808401518186015250610120808401516138e6828701826001600160a01b03169052565b50506101408381015160ff1690850152610160808401516139098287018261381d565b5090949350505050565b6000602080830181845280855180835260408601915060408160051b870101925083870160005b828110156136a757603f1988860301845261395685835161383f565b9450928501929085019060010161393a565b60006020828403121561397a57600080fd5b813561398581613239565b9392505050565b6000806020838503121561399f57600080fd5b823567ffffffffffffffff8111156139b657600080fd5b6139c28582860161337e565b90969095509350505050565b600080604083850312156139e157600080fd5b823567ffffffffffffffff8111156139f857600080fd5b613a04858286016132a1565b95602094909401359450505050565b60008060408385031215613a2657600080fd5b8235613a3181613239565b946020939093013593505050565b61018081526000613a5461018083018f613626565b8281036020840152613a66818f613626565b9150506001600160a01b03808d1660408401528b60608401528a60808401528960a08401528860c08401528760e0840152866101008401528086166101208401525060ff8416610140830152613ac061016083018461381d565b9d9c50505050505050505050505050565b60008060008060608587031215613ae757600080fd5b843567ffffffffffffffff80821115613aff57600080fd5b613b0b8883890161337e565b90965094506020870135915080821115613b2457600080fd5b5085016101608188031215613b3857600080fd5b91506040850135613b4881613239565b939692955090935050565b600060208284031215613b6557600080fd5b5035919050565b60008060408385031215613b7f57600080fd5b82359150602083013561345a81613239565b602080825282518282018190526000919060409081850190868401855b828110156135f557815180516001600160a01b03168552860151868501529284019290850190600101613bae565b600080600060408486031215613bf157600080fd5b833567ffffffffffffffff811115613c0857600080fd5b613c148682870161337e565b90945092505060208401356134cb81613239565b602081526000613985602083018461383f565b60006020808301818452808551808352604092508286019150828160051b87010184880160005b83811015613d3557603f1989840301855281516101608151818652613c8982870182613626565b915050888201518582038a870152613ca18282613626565b9150508782015185820389870152613cb98282613626565b915050606080830151613cd6828801826001600160a01b03169052565b50506080828101519086015260a0808301519086015260c0808301519086015260e08083015160ff1690860152610100808301519086015261012080830151908601526101409182015191909401529386019390860190600101613c62565b509098975050505050505050565b60008060408385031215613d5657600080fd5b8235613d6181613239565b9150602083013561345a81613239565b600060208284031215613d8357600080fd5b8151801515811461398557600080fd5b8183823760009101908152919050565b81835281816020850137506000828201602090810191909152601f909101601f19169091010190565b60208152600061350b602083018486613da3565b634e487b7160e01b600052601160045260246000fd5b808202811582820484141761238557612385613de0565b600082613e2a57634e487b7160e01b600052601260045260246000fd5b500690565b8082018082111561238557612385613de0565b634e487b7160e01b600052603260045260246000fd5b604081526000613e6c604083018587613da3565b9050826020830152949350505050565b604081526000613e90604083018587613da3565b90506001600160a01b0383166020830152949350505050565b60008251613ebb818460208701613602565b9190910192915050565b6000808335601e19843603018112613edc57600080fd5b83018035915067ffffffffffffffff821115613ef757600080fd5b6020019150368190038213156133c057600080fd5b600181811c90821680613f2057607f821691505b602082108103613f4057634e487b7160e01b600052602260045260246000fd5b50919050565b601f821115613f8c57600081815260208120601f850160051c81016020861015613f6d5750805b601f850160051c820191505b818110156126d557828155600101613f79565b505050565b67ffffffffffffffff831115613fa957613fa9613261565b613fbd83613fb78354613f0c565b83613f46565b6000601f841160018114613ff15760008515613fd95750838201355b600019600387901b1c1916600186901b17835561168a565b600083815260209020601f19861690835b828110156140225786850135825560209485019460019092019101614002565b508682101561403f5760001960f88860031b161c19848701351681555b505060018560011b0183555050505050565b6000813561238581613239565b60008135612385816136b4565b6006811061324e57600080fd5b600081356123858161406b565b600682106140a357634e487b7160e01b600052602160045260246000fd5b805475ff0000000000000000000000000000000000000000008360a81b1660ff60a81b198216178255505050565b6140db8283613ec5565b6140e6818385613f91565b50506140f56020830183613ec5565b614103818360018601613f91565b505061413561411460408401614051565b600283016001600160a01b0382166001600160a01b03198254161781555050565b606082013560038201556080820135600482015560a0820135600582015560c0820135600682015560e082013560078201556101008201356008820155600981016141a36141866101208501614051565b82546001600160a01b0319166001600160a01b0391909116178255565b6141f96141b3610140850161405e565b82547fffffffffffffffffffffff00ffffffffffffffffffffffffffffffffffffffff1660a09190911b74ff000000000000000000000000000000000000000016178255565b613f8c6142096101608501614078565b82614085565b81810361421a575050565b6142248254613f0c565b67ffffffffffffffff81111561423c5761423c613261565b6142508161424a8454613f0c565b84613f46565b6000601f821160018114614284576000831561426c5750848201545b600019600385901b1c1916600184901b17845561168a565b600085815260209020601f19841690600086815260209020845b838110156142be578286015482556001958601959091019060200161429e565b50858310156142dc5781850154600019600388901b60f8161c191681555b5050505050600190811b01905550565b6000808335601e1984360301811261430357600080fd5b830160208101925035905067ffffffffffffffff81111561432357600080fd5b8036038213156133c057600080fd5b803561325c8161406b565b604081526000614351604083018587613da3565b828103602084015261018061436685866142ec565b8284526143768385018284613da3565b9250505061438760208601866142ec565b838303602085015261439a838284613da3565b925050506143aa60408601613251565b6001600160a01b038116604084015250606085013560608301526080850135608083015260a085013560a083015260c085013560c083015260e085013560e0830152610100808601358184015250610120614406818701613251565b6001600160a01b0316908301526101406144218682016136c3565b60ff1690830152610160614436868201614332565b6144428285018261381d565b5090979650505050505050565b6060815260006144626060830186613626565b6001600160a01b0394851660208401529290931660409091015292915050565b60208152600061449283846142ec565b6101608060208601526144aa61018086018385613da3565b92506144b960208701876142ec565b9250601f19808786030160408801526144d3858584613da3565b94506144e260408901896142ec565b9450915080878603016060880152506144fc848483613da3565b93505061450b60608701613251565b6001600160a01b03811660808701529150608086013560a086015260a086013560c086015260c086013560e086015261454660e087016136c3565b91506101006145598187018460ff169052565b86013561012086810191909152860135610140808701919091529095013594909301939093525090919050565b6145908283613ec5565b61459b818385613f91565b50506145aa6020830183613ec5565b6145b8818360018601613f91565b50506145c76040830183613ec5565b6145d5818360028601613f91565b50506146076145e660608401614051565b600383016001600160a01b0382166001600160a01b03198254161781555050565b6080820135600482015560a0820135600582015560c0820135600682015561464961463460e0840161405e565b6007830160ff821660ff198254161781555050565b61010082013560088201556101208201356009820155610140820135600a8201555050565b60006001820161468057614680613de0565b506001019056fea26469706673582212204bbbcec4b247603f29bb2bfb0de1699eb85ad7aaa14fcfa200c8d7cb1508db8864736f6c63430008130033",
  "linkReferences": {},
  "deployedLinkReferences": {}
}