{
  "_format": "hh-sol-artifact-1",
  "contractName": "ToposBank",
  "sourceName": "contracts/Topos/Bank/ToposBank.sol",
  "abi": [
    {
      "inputs": [
        {
          "internalType": "address",
          "name": "_toposManager",
          "type": "address"
        },
        {
          "internalType": "address",
          "name": "_rolesContract",
          "type": "address"
        },
        {
          "internalType": "address",
          "name": "_identityRegistryContract",
          "type": "address"
        },
        {
          "internalType": "address",
          "name": "_bondCallContract",
          "type": "address"
        },
        {
          "internalType": "address",
          "name": "_irsCallContract",
          "type": "address"
        },
        {
          "internalType": "uint256",
          "name": "_dealFees",
          "type": "uint256"
        }
      ],
      "stateMutability": "nonpayable",
      "type": "constructor"
    },
    {
      "inputs": [
        {
          "internalType": "uint256",
          "name": "amount",
          "type": "uint256"
        }
      ],
      "name": "InvalidAmount",
      "type": "error"
    },
    {
      "inputs": [
        {
          "internalType": "string",
          "name": "dealID",
          "type": "string"
        }
      ],
      "name": "InvalidDealStatus",
      "type": "error"
    },
    {
      "anonymous": false,
      "inputs": [
        {
          "indexed": false,
          "internalType": "string",
          "name": "_dealID",
          "type": "string"
        }
      ],
      "name": "BondIssue",
      "type": "event"
    },
    {
      "anonymous": false,
      "inputs": [
        {
          "indexed": false,
          "internalType": "string",
          "name": "_dealID",
          "type": "string"
        }
      ],
      "name": "BondRedeem",
      "type": "event"
    },
    {
      "anonymous": false,
      "inputs": [
        {
          "indexed": false,
          "internalType": "string",
          "name": "dealID",
          "type": "string"
        }
      ],
      "name": "DealAPproved",
      "type": "event"
    },
    {
      "anonymous": false,
      "inputs": [
        {
          "indexed": false,
          "internalType": "string",
          "name": "dealID",
          "type": "string"
        }
      ],
      "name": "DealARejected",
      "type": "event"
    },
    {
      "anonymous": false,
      "inputs": [
        {
          "indexed": false,
          "internalType": "string",
          "name": "dealID",
          "type": "string"
        },
        {
          "components": [
            {
              "internalType": "string",
              "name": "dealID",
              "type": "string"
            },
            {
              "internalType": "string",
              "name": "prospectusURI",
              "type": "string"
            },
            {
              "internalType": "address",
              "name": "issuerAddress",
              "type": "address"
            },
            {
              "internalType": "uint256",
              "name": "debtAmount",
              "type": "uint256"
            },
            {
              "internalType": "uint256",
              "name": "denomination",
              "type": "uint256"
            },
            {
              "internalType": "uint256",
              "name": "couponRate",
              "type": "uint256"
            },
            {
              "internalType": "uint256",
              "name": "couponFrequency",
              "type": "uint256"
            },
            {
              "internalType": "uint256",
              "name": "maturityDate",
              "type": "uint256"
            },
            {
              "internalType": "uint256",
              "name": "index",
              "type": "uint256"
            },
            {
              "internalType": "address",
              "name": "currency",
              "type": "address"
            },
            {
              "internalType": "uint8",
              "name": "couponType",
              "type": "uint8"
            },
            {
              "internalType": "enum BondData.DealStatus",
              "name": "status",
              "type": "uint8"
            }
          ],
          "indexed": false,
          "internalType": "struct BondData.Deal",
          "name": "deal",
          "type": "tuple"
        }
      ],
      "name": "DealSubmitted",
      "type": "event"
    },
    {
      "anonymous": false,
      "inputs": [
        {
          "indexed": false,
          "internalType": "string",
          "name": "dealID",
          "type": "string"
        },
        {
          "indexed": false,
          "internalType": "address",
          "name": "investor",
          "type": "address"
        }
      ],
      "name": "RegisterForDeal",
      "type": "event"
    },
    {
      "inputs": [
        {
          "internalType": "address",
          "name": "",
          "type": "address"
        },
        {
          "internalType": "string",
          "name": "",
          "type": "string"
        }
      ],
      "name": "amountInvested",
      "outputs": [
        {
          "internalType": "uint256",
          "name": "amount",
          "type": "uint256"
        },
        {
          "internalType": "bool",
          "name": "hasInvested",
          "type": "bool"
        },
        {
          "internalType": "uint256",
          "name": "index",
          "type": "uint256"
        }
      ],
      "stateMutability": "view",
      "type": "function"
    },
    {
      "inputs": [
        {
          "internalType": "string",
          "name": "_dealID",
          "type": "string"
        }
      ],
      "name": "approveDeal",
      "outputs": [],
      "stateMutability": "nonpayable",
      "type": "function"
    },
    {
      "inputs": [],
      "name": "bondCallContract",
      "outputs": [
        {
          "internalType": "address",
          "name": "",
          "type": "address"
        }
      ],
      "stateMutability": "view",
      "type": "function"
    },
    {
      "inputs": [
        {
          "internalType": "string",
          "name": "",
          "type": "string"
        }
      ],
      "name": "dealBondContracts",
      "outputs": [
        {
          "internalType": "address",
          "name": "",
          "type": "address"
        }
      ],
      "stateMutability": "view",
      "type": "function"
    },
    {
      "inputs": [],
      "name": "dealFees",
      "outputs": [
        {
          "internalType": "uint256",
          "name": "",
          "type": "uint256"
        }
      ],
      "stateMutability": "view",
      "type": "function"
    },
    {
      "inputs": [
        {
          "internalType": "string",
          "name": "",
          "type": "string"
        },
        {
          "internalType": "uint256",
          "name": "",
          "type": "uint256"
        }
      ],
      "name": "dealInvestment",
      "outputs": [
        {
          "internalType": "address",
          "name": "investor",
          "type": "address"
        },
        {
          "internalType": "uint256",
          "name": "amount",
          "type": "uint256"
        }
      ],
      "stateMutability": "view",
      "type": "function"
    },
    {
      "inputs": [
        {
          "internalType": "string",
          "name": "",
          "type": "string"
        }
      ],
      "name": "deals",
      "outputs": [
        {
          "internalType": "string",
          "name": "dealID",
          "type": "string"
        },
        {
          "internalType": "string",
          "name": "prospectusURI",
          "type": "string"
        },
        {
          "internalType": "address",
          "name": "issuerAddress",
          "type": "address"
        },
        {
          "internalType": "uint256",
          "name": "debtAmount",
          "type": "uint256"
        },
        {
          "internalType": "uint256",
          "name": "denomination",
          "type": "uint256"
        },
        {
          "internalType": "uint256",
          "name": "couponRate",
          "type": "uint256"
        },
        {
          "internalType": "uint256",
          "name": "couponFrequency",
          "type": "uint256"
        },
        {
          "internalType": "uint256",
          "name": "maturityDate",
          "type": "uint256"
        },
        {
          "internalType": "uint256",
          "name": "index",
          "type": "uint256"
        },
        {
          "internalType": "address",
          "name": "currency",
          "type": "address"
        },
        {
          "internalType": "uint8",
          "name": "couponType",
          "type": "uint8"
        },
        {
          "internalType": "enum BondData.DealStatus",
          "name": "status",
          "type": "uint8"
        }
      ],
      "stateMutability": "view",
      "type": "function"
    },
    {
      "inputs": [
        {
          "internalType": "address",
          "name": "_swapContract",
          "type": "address"
        }
      ],
      "name": "endSwapContract",
      "outputs": [],
      "stateMutability": "nonpayable",
      "type": "function"
    },
    {
      "inputs": [],
      "name": "getBenchmark",
      "outputs": [
        {
          "internalType": "uint256",
          "name": "",
          "type": "uint256"
        }
      ],
      "stateMutability": "view",
      "type": "function"
    },
    {
      "inputs": [],
      "name": "getContracts",
      "outputs": [
        {
          "internalType": "address",
          "name": "manager",
          "type": "address"
        },
        {
          "internalType": "address",
          "name": "roles",
          "type": "address"
        },
        {
          "internalType": "address",
          "name": "identityRegistry",
          "type": "address"
        },
        {
          "internalType": "address",
          "name": "bondCall",
          "type": "address"
        },
        {
          "internalType": "address",
          "name": "issuerFund",
          "type": "address"
        }
      ],
      "stateMutability": "view",
      "type": "function"
    },
    {
      "inputs": [
        {
          "internalType": "string",
          "name": "_dealID",
          "type": "string"
        }
      ],
      "name": "getDeal",
      "outputs": [
        {
          "components": [
            {
              "internalType": "string",
              "name": "dealID",
              "type": "string"
            },
            {
              "internalType": "string",
              "name": "prospectusURI",
              "type": "string"
            },
            {
              "internalType": "address",
              "name": "issuerAddress",
              "type": "address"
            },
            {
              "internalType": "uint256",
              "name": "debtAmount",
              "type": "uint256"
            },
            {
              "internalType": "uint256",
              "name": "denomination",
              "type": "uint256"
            },
            {
              "internalType": "uint256",
              "name": "couponRate",
              "type": "uint256"
            },
            {
              "internalType": "uint256",
              "name": "couponFrequency",
              "type": "uint256"
            },
            {
              "internalType": "uint256",
              "name": "maturityDate",
              "type": "uint256"
            },
            {
              "internalType": "uint256",
              "name": "index",
              "type": "uint256"
            },
            {
              "internalType": "address",
              "name": "currency",
              "type": "address"
            },
            {
              "internalType": "uint8",
              "name": "couponType",
              "type": "uint8"
            },
            {
              "internalType": "enum BondData.DealStatus",
              "name": "status",
              "type": "uint8"
            }
          ],
          "internalType": "struct BondData.Deal",
          "name": "",
          "type": "tuple"
        }
      ],
      "stateMutability": "view",
      "type": "function"
    },
    {
      "inputs": [
        {
          "internalType": "string",
          "name": "_dealID",
          "type": "string"
        }
      ],
      "name": "getDealBondContract",
      "outputs": [
        {
          "internalType": "address",
          "name": "",
          "type": "address"
        }
      ],
      "stateMutability": "view",
      "type": "function"
    },
    {
      "inputs": [],
      "name": "getDealFees",
      "outputs": [
        {
          "internalType": "uint256",
          "name": "",
          "type": "uint256"
        }
      ],
      "stateMutability": "view",
      "type": "function"
    },
    {
      "inputs": [
        {
          "internalType": "string",
          "name": "_dealID",
          "type": "string"
        }
      ],
      "name": "getDealInvestment",
      "outputs": [
        {
          "components": [
            {
              "internalType": "address",
              "name": "investor",
              "type": "address"
            },
            {
              "internalType": "uint256",
              "name": "amount",
              "type": "uint256"
            }
          ],
          "internalType": "struct BondData.DealInvestment[]",
          "name": "",
          "type": "tuple[]"
        }
      ],
      "stateMutability": "view",
      "type": "function"
    },
    {
      "inputs": [
        {
          "internalType": "address",
          "name": "_fixedPayerContract",
          "type": "address"
        },
        {
          "internalType": "address",
          "name": "_floatingPayerContract",
          "type": "address"
        }
      ],
      "name": "getIRSContract",
      "outputs": [
        {
          "internalType": "address",
          "name": "",
          "type": "address"
        }
      ],
      "stateMutability": "view",
      "type": "function"
    },
    {
      "inputs": [
        {
          "internalType": "address",
          "name": "_account",
          "type": "address"
        }
      ],
      "name": "getIssuerIRS",
      "outputs": [
        {
          "components": [
            {
              "internalType": "address",
              "name": "irsContract",
              "type": "address"
            },
            {
              "internalType": "address",
              "name": "fixedInterestPayer",
              "type": "address"
            },
            {
              "internalType": "address",
              "name": "floatingInterestPayer",
              "type": "address"
            },
            {
              "internalType": "uint8",
              "name": "ratesDecimals",
              "type": "uint8"
            },
            {
              "internalType": "uint8",
              "name": "status",
              "type": "uint8"
            },
            {
              "internalType": "uint256",
              "name": "swapRate",
              "type": "uint256"
            },
            {
              "internalType": "uint256",
              "name": "spread",
              "type": "uint256"
            },
            {
              "internalType": "address",
              "name": "assetContract",
              "type": "address"
            },
            {
              "internalType": "uint256",
              "name": "notionalAmount",
              "type": "uint256"
            },
            {
              "internalType": "uint256",
              "name": "paymentFrequency",
              "type": "uint256"
            },
            {
              "internalType": "uint256",
              "name": "startingDate",
              "type": "uint256"
            },
            {
              "internalType": "uint256",
              "name": "maturityDate",
              "type": "uint256"
            },
            {
              "internalType": "uint256",
              "name": "benchmark",
              "type": "uint256"
            },
            {
              "internalType": "uint8",
              "name": "index",
              "type": "uint8"
            }
          ],
          "internalType": "struct IRSTypes.IRS[]",
          "name": "",
          "type": "tuple[]"
        }
      ],
      "stateMutability": "view",
      "type": "function"
    },
    {
      "inputs": [],
      "name": "getListOfBonds",
      "outputs": [
        {
          "components": [
            {
              "internalType": "string",
              "name": "isin",
              "type": "string"
            },
            {
              "internalType": "string",
              "name": "name",
              "type": "string"
            },
            {
              "internalType": "string",
              "name": "symbol",
              "type": "string"
            },
            {
              "internalType": "address",
              "name": "currency",
              "type": "address"
            },
            {
              "internalType": "uint256",
              "name": "denomination",
              "type": "uint256"
            },
            {
              "internalType": "uint256",
              "name": "issueVolume",
              "type": "uint256"
            },
            {
              "internalType": "uint256",
              "name": "couponRate",
              "type": "uint256"
            },
            {
              "internalType": "uint8",
              "name": "couponType",
              "type": "uint8"
            },
            {
              "internalType": "uint256",
              "name": "couponFrequency",
              "type": "uint256"
            },
            {
              "internalType": "uint256",
              "name": "issueDate",
              "type": "uint256"
            },
            {
              "internalType": "uint256",
              "name": "maturityDate",
              "type": "uint256"
            }
          ],
          "internalType": "struct BondData.Bond[]",
          "name": "",
          "type": "tuple[]"
        }
      ],
      "stateMutability": "view",
      "type": "function"
    },
    {
      "inputs": [],
      "name": "getListOfBondsDealIDs",
      "outputs": [
        {
          "internalType": "string[]",
          "name": "",
          "type": "string[]"
        }
      ],
      "stateMutability": "view",
      "type": "function"
    },
    {
      "inputs": [],
      "name": "getListOfDeals",
      "outputs": [
        {
          "components": [
            {
              "internalType": "string",
              "name": "dealID",
              "type": "string"
            },
            {
              "internalType": "string",
              "name": "prospectusURI",
              "type": "string"
            },
            {
              "internalType": "address",
              "name": "issuerAddress",
              "type": "address"
            },
            {
              "internalType": "uint256",
              "name": "debtAmount",
              "type": "uint256"
            },
            {
              "internalType": "uint256",
              "name": "denomination",
              "type": "uint256"
            },
            {
              "internalType": "uint256",
              "name": "couponRate",
              "type": "uint256"
            },
            {
              "internalType": "uint256",
              "name": "couponFrequency",
              "type": "uint256"
            },
            {
              "internalType": "uint256",
              "name": "maturityDate",
              "type": "uint256"
            },
            {
              "internalType": "uint256",
              "name": "index",
              "type": "uint256"
            },
            {
              "internalType": "address",
              "name": "currency",
              "type": "address"
            },
            {
              "internalType": "uint8",
              "name": "couponType",
              "type": "uint8"
            },
            {
              "internalType": "enum BondData.DealStatus",
              "name": "status",
              "type": "uint8"
            }
          ],
          "internalType": "struct BondData.Deal[]",
          "name": "",
          "type": "tuple[]"
        }
      ],
      "stateMutability": "view",
      "type": "function"
    },
    {
      "inputs": [],
      "name": "getListOfIRS",
      "outputs": [
        {
          "components": [
            {
              "internalType": "address",
              "name": "irsContract",
              "type": "address"
            },
            {
              "internalType": "address",
              "name": "fixedInterestPayer",
              "type": "address"
            },
            {
              "internalType": "address",
              "name": "floatingInterestPayer",
              "type": "address"
            },
            {
              "internalType": "uint8",
              "name": "ratesDecimals",
              "type": "uint8"
            },
            {
              "internalType": "uint8",
              "name": "status",
              "type": "uint8"
            },
            {
              "internalType": "uint256",
              "name": "swapRate",
              "type": "uint256"
            },
            {
              "internalType": "uint256",
              "name": "spread",
              "type": "uint256"
            },
            {
              "internalType": "address",
              "name": "assetContract",
              "type": "address"
            },
            {
              "internalType": "uint256",
              "name": "notionalAmount",
              "type": "uint256"
            },
            {
              "internalType": "uint256",
              "name": "paymentFrequency",
              "type": "uint256"
            },
            {
              "internalType": "uint256",
              "name": "startingDate",
              "type": "uint256"
            },
            {
              "internalType": "uint256",
              "name": "maturityDate",
              "type": "uint256"
            },
            {
              "internalType": "uint256",
              "name": "benchmark",
              "type": "uint256"
            },
            {
              "internalType": "uint8",
              "name": "index",
              "type": "uint8"
            }
          ],
          "internalType": "struct IRSTypes.IRS[]",
          "name": "",
          "type": "tuple[]"
        }
      ],
      "stateMutability": "view",
      "type": "function"
    },
    {
      "inputs": [
        {
          "internalType": "string",
          "name": "_dealID",
          "type": "string"
        }
      ],
      "name": "getTotalAmounInvested",
      "outputs": [
        {
          "internalType": "uint256",
          "name": "",
          "type": "uint256"
        }
      ],
      "stateMutability": "view",
      "type": "function"
    },
    {
      "inputs": [],
      "name": "identityRegistryContract",
      "outputs": [
        {
          "internalType": "address",
          "name": "",
          "type": "address"
        }
      ],
      "stateMutability": "view",
      "type": "function"
    },
    {
      "inputs": [],
      "name": "irsCallContract",
      "outputs": [
        {
          "internalType": "address",
          "name": "",
          "type": "address"
        }
      ],
      "stateMutability": "view",
      "type": "function"
    },
    {
      "inputs": [
        {
          "internalType": "string",
          "name": "_dealID",
          "type": "string"
        },
        {
          "components": [
            {
              "internalType": "string",
              "name": "isin",
              "type": "string"
            },
            {
              "internalType": "string",
              "name": "name",
              "type": "string"
            },
            {
              "internalType": "string",
              "name": "symbol",
              "type": "string"
            },
            {
              "internalType": "address",
              "name": "currency",
              "type": "address"
            },
            {
              "internalType": "uint256",
              "name": "denomination",
              "type": "uint256"
            },
            {
              "internalType": "uint256",
              "name": "issueVolume",
              "type": "uint256"
            },
            {
              "internalType": "uint256",
              "name": "couponRate",
              "type": "uint256"
            },
            {
              "internalType": "uint8",
              "name": "couponType",
              "type": "uint8"
            },
            {
              "internalType": "uint256",
              "name": "couponFrequency",
              "type": "uint256"
            },
            {
              "internalType": "uint256",
              "name": "issueDate",
              "type": "uint256"
            },
            {
              "internalType": "uint256",
              "name": "maturityDate",
              "type": "uint256"
            }
          ],
          "internalType": "struct BondData.Bond",
          "name": "_bond",
          "type": "tuple"
        },
        {
          "internalType": "address",
          "name": "_bondContract",
          "type": "address"
        }
      ],
      "name": "issue",
      "outputs": [],
      "stateMutability": "nonpayable",
      "type": "function"
    },
    {
      "inputs": [
        {
          "internalType": "address",
          "name": "",
          "type": "address"
        },
        {
          "internalType": "uint256",
          "name": "",
          "type": "uint256"
        }
      ],
      "name": "issuerDeals",
      "outputs": [
        {
          "internalType": "string",
          "name": "dealID",
          "type": "string"
        },
        {
          "internalType": "string",
          "name": "prospectusURI",
          "type": "string"
        },
        {
          "internalType": "address",
          "name": "issuerAddress",
          "type": "address"
        },
        {
          "internalType": "uint256",
          "name": "debtAmount",
          "type": "uint256"
        },
        {
          "internalType": "uint256",
          "name": "denomination",
          "type": "uint256"
        },
        {
          "internalType": "uint256",
          "name": "couponRate",
          "type": "uint256"
        },
        {
          "internalType": "uint256",
          "name": "couponFrequency",
          "type": "uint256"
        },
        {
          "internalType": "uint256",
          "name": "maturityDate",
          "type": "uint256"
        },
        {
          "internalType": "uint256",
          "name": "index",
          "type": "uint256"
        },
        {
          "internalType": "address",
          "name": "currency",
          "type": "address"
        },
        {
          "internalType": "uint8",
          "name": "couponType",
          "type": "uint8"
        },
        {
          "internalType": "enum BondData.DealStatus",
          "name": "status",
          "type": "uint8"
        }
      ],
      "stateMutability": "view",
      "type": "function"
    },
    {
      "inputs": [
        {
          "internalType": "address",
          "name": "",
          "type": "address"
        },
        {
          "internalType": "uint256",
          "name": "",
          "type": "uint256"
        }
      ],
      "name": "issuerIRS",
      "outputs": [
        {
          "internalType": "address",
          "name": "irsContract",
          "type": "address"
        },
        {
          "internalType": "address",
          "name": "fixedInterestPayer",
          "type": "address"
        },
        {
          "internalType": "address",
          "name": "floatingInterestPayer",
          "type": "address"
        },
        {
          "internalType": "uint8",
          "name": "ratesDecimals",
          "type": "uint8"
        },
        {
          "internalType": "uint8",
          "name": "status",
          "type": "uint8"
        },
        {
          "internalType": "uint256",
          "name": "swapRate",
          "type": "uint256"
        },
        {
          "internalType": "uint256",
          "name": "spread",
          "type": "uint256"
        },
        {
          "internalType": "address",
          "name": "assetContract",
          "type": "address"
        },
        {
          "internalType": "uint256",
          "name": "notionalAmount",
          "type": "uint256"
        },
        {
          "internalType": "uint256",
          "name": "paymentFrequency",
          "type": "uint256"
        },
        {
          "internalType": "uint256",
          "name": "startingDate",
          "type": "uint256"
        },
        {
          "internalType": "uint256",
          "name": "maturityDate",
          "type": "uint256"
        },
        {
          "internalType": "uint256",
          "name": "benchmark",
          "type": "uint256"
        },
        {
          "internalType": "uint8",
          "name": "index",
          "type": "uint8"
        }
      ],
      "stateMutability": "view",
      "type": "function"
    },
    {
      "inputs": [],
      "name": "issuersFundContract",
      "outputs": [
        {
          "internalType": "address",
          "name": "",
          "type": "address"
        }
      ],
      "stateMutability": "view",
      "type": "function"
    },
    {
      "inputs": [
        {
          "internalType": "string",
          "name": "_dealID",
          "type": "string"
        },
        {
          "internalType": "address",
          "name": "_bondContract",
          "type": "address"
        }
      ],
      "name": "redeem",
      "outputs": [],
      "stateMutability": "nonpayable",
      "type": "function"
    },
    {
      "inputs": [
        {
          "internalType": "string",
          "name": "_dealID",
          "type": "string"
        },
        {
          "internalType": "uint256",
          "name": "_amount",
          "type": "uint256"
        }
      ],
      "name": "registerForDeal",
      "outputs": [],
      "stateMutability": "nonpayable",
      "type": "function"
    },
    {
      "inputs": [
        {
          "internalType": "string",
          "name": "_dealID",
          "type": "string"
        }
      ],
      "name": "rejectDeal",
      "outputs": [],
      "stateMutability": "nonpayable",
      "type": "function"
    },
    {
      "inputs": [],
      "name": "rolesContract",
      "outputs": [
        {
          "internalType": "address",
          "name": "",
          "type": "address"
        }
      ],
      "stateMutability": "view",
      "type": "function"
    },
    {
      "inputs": [
        {
          "internalType": "uint256",
          "name": "_benchmark",
          "type": "uint256"
        }
      ],
      "name": "setBenchmark",
      "outputs": [],
      "stateMutability": "nonpayable",
      "type": "function"
    },
    {
      "inputs": [
        {
          "internalType": "string",
          "name": "_dealID",
          "type": "string"
        },
        {
          "internalType": "address",
          "name": "_bondContractAddress",
          "type": "address"
        }
      ],
      "name": "setBondContractAddress",
      "outputs": [],
      "stateMutability": "nonpayable",
      "type": "function"
    },
    {
      "inputs": [
        {
          "internalType": "uint256",
          "name": "_newBenchmark",
          "type": "uint256"
        },
        {
          "internalType": "address",
          "name": "_swapContract",
          "type": "address"
        }
      ],
      "name": "setIRSBenchmark",
      "outputs": [],
      "stateMutability": "nonpayable",
      "type": "function"
    },
    {
      "inputs": [
        {
          "internalType": "address",
          "name": "_fixedPayerContract",
          "type": "address"
        },
        {
          "internalType": "address",
          "name": "_floatingPayerContract",
          "type": "address"
        },
        {
          "internalType": "address",
          "name": "_irsContractAddress",
          "type": "address"
        },
        {
          "components": [
            {
              "internalType": "address",
              "name": "irsContract",
              "type": "address"
            },
            {
              "internalType": "address",
              "name": "fixedInterestPayer",
              "type": "address"
            },
            {
              "internalType": "address",
              "name": "floatingInterestPayer",
              "type": "address"
            },
            {
              "internalType": "uint8",
              "name": "ratesDecimals",
              "type": "uint8"
            },
            {
              "internalType": "uint8",
              "name": "status",
              "type": "uint8"
            },
            {
              "internalType": "uint256",
              "name": "swapRate",
              "type": "uint256"
            },
            {
              "internalType": "uint256",
              "name": "spread",
              "type": "uint256"
            },
            {
              "internalType": "address",
              "name": "assetContract",
              "type": "address"
            },
            {
              "internalType": "uint256",
              "name": "notionalAmount",
              "type": "uint256"
            },
            {
              "internalType": "uint256",
              "name": "paymentFrequency",
              "type": "uint256"
            },
            {
              "internalType": "uint256",
              "name": "startingDate",
              "type": "uint256"
            },
            {
              "internalType": "uint256",
              "name": "maturityDate",
              "type": "uint256"
            },
            {
              "internalType": "uint256",
              "name": "benchmark",
              "type": "uint256"
            },
            {
              "internalType": "uint8",
              "name": "index",
              "type": "uint8"
            }
          ],
          "internalType": "struct IRSTypes.IRS",
          "name": "_irs",
          "type": "tuple"
        }
      ],
      "name": "setIRSContractAddress",
      "outputs": [],
      "stateMutability": "nonpayable",
      "type": "function"
    },
    {
      "inputs": [
        {
          "internalType": "address",
          "name": "_issuerFundContract",
          "type": "address"
        }
      ],
      "name": "setIssuerFundContract",
      "outputs": [],
      "stateMutability": "nonpayable",
      "type": "function"
    },
    {
      "inputs": [
        {
          "internalType": "address",
          "name": "_toposManager",
          "type": "address"
        }
      ],
      "name": "setManager",
      "outputs": [],
      "stateMutability": "nonpayable",
      "type": "function"
    },
    {
      "inputs": [
        {
          "internalType": "string",
          "name": "_dealID",
          "type": "string"
        },
        {
          "components": [
            {
              "internalType": "string",
              "name": "dealID",
              "type": "string"
            },
            {
              "internalType": "string",
              "name": "prospectusURI",
              "type": "string"
            },
            {
              "internalType": "address",
              "name": "issuerAddress",
              "type": "address"
            },
            {
              "internalType": "uint256",
              "name": "debtAmount",
              "type": "uint256"
            },
            {
              "internalType": "uint256",
              "name": "denomination",
              "type": "uint256"
            },
            {
              "internalType": "uint256",
              "name": "couponRate",
              "type": "uint256"
            },
            {
              "internalType": "uint256",
              "name": "couponFrequency",
              "type": "uint256"
            },
            {
              "internalType": "uint256",
              "name": "maturityDate",
              "type": "uint256"
            },
            {
              "internalType": "uint256",
              "name": "index",
              "type": "uint256"
            },
            {
              "internalType": "address",
              "name": "currency",
              "type": "address"
            },
            {
              "internalType": "uint8",
              "name": "couponType",
              "type": "uint8"
            },
            {
              "internalType": "enum BondData.DealStatus",
              "name": "status",
              "type": "uint8"
            }
          ],
          "internalType": "struct BondData.Deal",
          "name": "_deal",
          "type": "tuple"
        }
      ],
      "name": "submitDeal",
      "outputs": [],
      "stateMutability": "nonpayable",
      "type": "function"
    },
    {
      "inputs": [
        {
          "internalType": "address",
          "name": "_swapContract",
          "type": "address"
        }
      ],
      "name": "swapIRS",
      "outputs": [],
      "stateMutability": "nonpayable",
      "type": "function"
    },
    {
      "inputs": [],
      "name": "toposManager",
      "outputs": [
        {
          "internalType": "address",
          "name": "",
          "type": "address"
        }
      ],
      "stateMutability": "view",
      "type": "function"
    },
    {
      "inputs": [
        {
          "internalType": "string",
          "name": "",
          "type": "string"
        }
      ],
      "name": "totalAmountInvestedForDeal",
      "outputs": [
        {
          "internalType": "uint256",
          "name": "",
          "type": "uint256"
        }
      ],
      "stateMutability": "view",
      "type": "function"
    },
    {
      "inputs": [
        {
          "internalType": "string",
          "name": "_dealID",
          "type": "string"
        }
      ],
      "name": "withdrawIssuerFund",
      "outputs": [],
      "stateMutability": "nonpayable",
      "type": "function"
    }
  ],
  "bytecode": "0x608034620000e957601f62003e4d38819003918201601f19168301916001600160401b03831184841017620000ee5780849260c094604052833981010312620000e9576200004d8162000104565b6200005b6020830162000104565b916200006a6040820162000104565b90620000796060820162000104565b9360a06200008a6080840162000104565b9201519460018060a01b0380948180948160018060a01b03199916896008541617600855168760095416176009551685600a541617600a551683600b541617600b551690600c541617600c55600e55604051613d3390816200011a8239f35b600080fd5b634e487b7160e01b600052604160045260246000fd5b51906001600160a01b0382168203620000e95756fe6080604052600436101561001257600080fd5b6000803560e01c8063041e9b8914613133578063088674e01461310c5780630dd3d9a414612fe15780630df8bfda146129e65780631882c1951461296d57806319662d8e146124f15780631b59122c1461234c578063234b153f1461221c578063281ddc8e146121365780632e55f48714611ca25780632f6679101461025d57806336f9c4da14611bbb5780633887bdcf14611b425780633bbada4614611a4e57806348f92ee81461194c578063499fa18a146118bc57806349f5d1d91461180a578063507251cb146110a85780635e43522e146110815780635ed7e2c114611036578063605936ea14610fe357806368a2da5114610fb2578063754f399a14610e8257806379a9456914610e645780637af4d65214610e3d5780637bafe3d014610df05780637f31ed7314610dc95780639f0d8d2a14610d48578063a0a57dac14610c83578063af9080f814610c65578063b83c7fba14610be9578063c3a2a93a14610b96578063c8d7f62e14610a8d578063ca53b39114610a66578063d0ebdbe71461098d578063d7c4029c146105ec578063e70791801461051c578063f3413c4f146102eb578063fb90e441146102c4578063fe0ab4b31461025d578063fe3b85b71461020b5763ff6689d0146101eb57600080fd5b346102085780600319360112610208576020600e54604051908152f35b80fd5b5034610208576040366003190112610208576020906102286131ca565b6102306131e0565b9060406001600160a01b039384809316815260028652209116600052825260406000205416604051908152f35b5034610208576020366003190112610208576004359067ffffffffffffffff82116102085760206001600160a01b036102b08261029d36600488016132ac565b8160405193828580945193849201613303565b810160018152030190205416604051908152f35b503461020857806003193601126102085760206001600160a01b03600d5416604051908152f35b503461020857806003193601126102085760105461030881613b20565b90610316604051928361328a565b80825260108352602092838301917f1b6847dc741a1b0cd08d278845f9d819d87b734759afb55fe2de5cb82a9ae67282845b8382106104405750505050604051928484019085855251809152604084019460408260051b8601019392955b8287106103815785850386f35b909192938280600192603f198982030185528751906103d16103bf6103af845161016080865285019061343b565b858501518482038786015261343b565b6040840151838203604085015261343b565b9160606001600160a01b038183015116908301526080808201519083015260a0808201519083015260c0808201519083015260ff60e08201511660e083015261010080820151908301526101208082015190830152610140809101519101529601920196019592919092610374565b60409796949751610160810181811067ffffffffffffffff82111761050657600192600b928a9260405261047387613606565b8152610480858801613606565b8382015261049060028801613606565b60408201526001600160a01b03600388015416606082015260048701546080820152600587015460a0820152600687015460c082015260ff60078801541660e082015260088701546101008201526009870154610120820152600a87015461014082015281520193019101909196939596610348565b634e487b7160e01b600052604160045260246000fd5b503461020857602090816003193601126102085760043567ffffffffffffffff81116105e857826105cf926105586105c19336906004016132ac565b90806101606040516105698161326d565b606081526060868201528260408201528260608201528260808201528260a08201528260c08201528260e082015282610100820152826101208201528261014082015201528260405194838680955193849201613303565b820190815203019020613c50565b906105e4604051928284938452830190613491565b0390f35b5080fd5b50346102085760403660031901126102085760043567ffffffffffffffff81116105e85761061e90369060040161340d565b6106299291926131e0565b6001600160a01b03936106418560085416331461372b565b6040519283928183853760ff8285018781526009958691602098899103019020015460a81c16600681101561097957600403610950578690846040518486823787818681018b81520301902001750500000000000000000000000000000000000000000060ff60a81b19918183825416179055866106d660088b8b60405180928b8d83378b8201908152030190200154613575565b50018183825416179055836002604051878982378a818d8a820190815203019020015416895260068852866107298a6008888c8b604085209460405193849283378c8201908152030190200154906135b0565b50019182541617905516803b1561094c578580916004604051809481937fbe040fb00000000000000000000000000000000000000000000000000000000083525af1801561094157908691610929575b5050845b6040518284823782810190868160039384815203019020548210156108eb57876107dc8360016107bf82604051898b82378c818b81018a815203019020613559565b50015493896040518092898b833789820190815203019020613559565b5054168115908115610811575b50505060001981146107fd5760010161077d565b602486634e487b7160e01b81526011600452fd5b8987604051878982378a818d8a82019081520301902001541691670de0b6b3a76400008085029485041417156108d7576040517fa9059cbb0000000000000000000000000000000000000000000000000000000081526001600160a01b0391909116600482015260248101929092528690829060449082908b905af180156108cc5761089f575b80806107e9565b6108be90863d88116108c5575b6108b6818361328a565b810190613776565b5038610898565b503d6108ac565b6040513d89823e3d90fd5b602489634e487b7160e01b81526011600452fd5b60405186815287907fdfdf42ff0d0eb3e6ec5b40d8cf21fb2f7102b67e5e2d56ab36e817f807213c5b9080610923818b01888a613aaa565b0390a180f35b61093290613259565b61093d578438610779565b8480fd5b6040513d88823e3d90fd5b8580fd5b508361097583604051938493632dc5942160e21b855260048501526024840191613aaa565b0390fd5b602487634e487b7160e01b81526021600452fd5b503461020857602036600319011261020857806109a86131ca565b6001600160a01b03906109c08260085416331461372b565b816009541691823b15610a6157608484928360405195869485937fcfde189000000000000000000000000000000000000000000000000000000000855260406004860152600760448601527f4d414e414745520000000000000000000000000000000000000000000000000060648601521660248401525af18015610a5657610a465750f35b610a4f90613259565b6102085780f35b6040513d84823e3d90fd5b505050fd5b503461020857806003193601126102085760206001600160a01b0360095416604051908152f35b503461020857602090816003193601126102085760043567ffffffffffffffff81116105e85782610ac38192369060040161340d565b9190826040519384928337810160038152030190208054610ae381613b20565b90610af1604051928361328a565b8082528382018093865284862086915b838310610b5757505050506040519280840191818552518092526040840192945b828110610b2f5784840385f35b855180516001600160a01b031685528201518483015294810194604090930192600101610b22565b60028760019260409a9997989a51610b6e8161323d565b6001600160a01b03865416815284860154838201528152019201920191909694939596610b01565b503461020857806003193601126102085760a06001600160a01b0380600854169080600954169080600a541681600b541691600d5416926040519485526020850152604084015260608301526080820152f35b50346102085760203660031901126102085780610c046131ca565b6001600160a01b0390610c1c8260085416331461372b565b16803b15610c62578180916004604051809481937f442447ca0000000000000000000000000000000000000000000000000000000083525af18015610a5657610a465750f35b50fd5b50346102085780600319360112610208576020600e54604051908152f35b50346102085760203660031901126102085760043567ffffffffffffffff81116105e857610ccf91610cbb60209236906004016132ac565b908260405194838680955193849201613303565b820190815203019020610ce181613606565b906105e4610cf160018301613606565b916001600160a01b039081600282015416946003820154916004810154600582015460068301549060078401549260096008860154950154966040519b8c9b60ff8a60a81c169a60ff8b60a01c169a16988d6136ac565b50346102085760403660031901126102085780610d636131e0565b6001600160a01b0390610d7b8260085416331461372b565b16803b15610c62578180916024604051809481937f68a2da5100000000000000000000000000000000000000000000000000000000835260043560048401525af18015610a5657610a465750f35b503461020857806003193601126102085760206001600160a01b0360085416604051908152f35b503461020857602036600319011261020857610e0a6131ca565b6001600160a01b0390610e228260085416331461372b565b1680156105e8576001600160a01b0319600d541617600d5580f35b503461020857806003193601126102085760206001600160a01b03600c5416604051908152f35b50346102085780600319360112610208576020600f54604051908152f35b503461020857602090816003193601126102085760043567ffffffffffffffff81116105e857610eb690369060040161340d565b9092610ece6001600160a01b0360085416331461372b565b60ff600960405184878237838186810188815203019020015460a81c166006811015610f9e577f735ccdd611541d36c82a3622baab7f58b8a0f5be664555b0d9c95ddde16096d39394610f2660016109239314613806565b60096040518583823784818781018a81520301902001750300000000000000000000000000000000000000000060ff60a81b199181838254161790556009610f8460086040518987823788818d8c8201908152030190200154613575565b500191825416179055604051938385948552840191613aaa565b602484634e487b7160e01b81526021600452fd5b503461020857602036600319011261020857610fda6001600160a01b0360085416331461372b565b600435600f5580f35b5034610208576020366003190112610208576004359067ffffffffffffffff821161020857602080611018366004860161340d565b91908260405193849283378101600481520301902054604051908152f35b5034610208576020366003190112610208576004359067ffffffffffffffff821161020857602061106e8161029d36600487016132ac565b8101600481520301902054604051908152f35b503461020857806003193601126102085760206001600160a01b03600b5416604051908152f35b503461020857600319906060368301126102085767ffffffffffffffff6004358181116116d0576110dd90369060040161340d565b939091602435116116d05761016090602435360301126105e8576110ff6131f6565b926111166001600160a01b0360085416331461372b565b60ff60096040518385823760208185810188815203019020015460a81c166006811015610f9e576002036117e6576040518183823760208183810160018152030190206001600160a01b0385166001600160a01b03198254161790556009604051828482376020818481018781520301902001750400000000000000000000000000000000000000000060ff60a81b1991818382541617905560096111d16008604051868882376020818881018b8152030190200154613575565b5001918254161790556001600160a01b036002604051838582376020818581018881520301902001541683526006602052604083206040518284823760208184810187815203019020908054600160401b81101561050657611238916001820181556135b0565b9190916117d0578082036116fc575b5050601254600160401b8110156116e85760018101806012558110156116d457818361129892601287527fbb8a6a4669ba250d26cd7a459eca9d215f8307e33aebe50379bc5a3617ec3444016138d8565b6001600160a01b0384163b156116d0576040517fd76805aa000000000000000000000000000000000000000000000000000000008152602060048201526113506113026112ef602435600401602435600401613acb565b6101606024860152610184850191613aaa565b61132c6113186024803501602435600401613acb565b602319868503810160448801529391613aaa565b90611341604460243501602435600401613acb565b91858403016064860152613aaa565b946001600160a01b0361136760646024350161320c565b1660848301526084602435013560a483015260a4602435013560c483015260c4602435013560e483015260ff6113a160e460243501613460565b169161010492838201528581610124938560243501358583015281836001600160a01b03826101449d8e8a60243501358184015260243501356101648301520393165af18015610941579086916116bc575b5050601054600160401b8110156116a8576001810180601055811015611694576010865294957f44b55c2d9270546faf6ff2f0acac078011883b82782d9b08de2d3af4543c2b1895600b02927f1b6847dc741a1b0cd08d278845f9d819d87b734759afb55fe2de5cb82a9ae67c929061149d61147460046024350180613851565b90877f1b6847dc741a1b0cd08d278845f9d819d87b734759afb55fe2de5cb82a9ae672016138d8565b6114dc6114b36024803501602435600401613851565b907f1b6847dc741a1b0cd08d278845f9d819d87b734759afb55fe2de5cb82a9ae67388016138d8565b61151c6114f3604460243501602435600401613851565b907f1b6847dc741a1b0cd08d278845f9d819d87b734759afb55fe2de5cb82a9ae67488016138d8565b7f1b6847dc741a1b0cd08d278845f9d819d87b734759afb55fe2de5cb82a9ae67585016001600160a01b0361155560646024350161378e565b166001600160a01b0319825416179055608460243501357f1b6847dc741a1b0cd08d278845f9d819d87b734759afb55fe2de5cb82a9ae67686015560a460243501357f1b6847dc741a1b0cd08d278845f9d819d87b734759afb55fe2de5cb82a9ae67786015560c460243501357f1b6847dc741a1b0cd08d278845f9d819d87b734759afb55fe2de5cb82a9ae6788601557f1b6847dc741a1b0cd08d278845f9d819d87b734759afb55fe2de5cb82a9ae679850160ff61161960e46024350161399c565b1660ff1982541617905560243501357f1b6847dc741a1b0cd08d278845f9d819d87b734759afb55fe2de5cb82a9ae67a85015560243501357f1b6847dc741a1b0cd08d278845f9d819d87b734759afb55fe2de5cb82a9ae67b8401556024350135910155610923604051928392602084526020840191613aaa565b602486634e487b7160e01b81526032600452fd5b602486634e487b7160e01b81526041600452fd5b6116c590613259565b61093d5784386113f3565b8280fd5b602484634e487b7160e01b81526032600452fd5b602484634e487b7160e01b81526041600452fd5b60ff6009808461170f856117c9976139cd565b61171f60018601600183016139cd565b600281016001600160a01b036002870154166001600160a01b03198254161790556003850154600382015560048501546004820155600585015460058201556006850154600682015560078501546007820155600885015460088201550192016001600160a01b038154166001600160a01b03198454161783556117be82825460a01c16849060ff60a01b1960ff60a01b83549260a01b169116179055565b5460a81c16906139aa565b3880611247565b634e487b7160e01b600052600060045260246000fd5b610975604051928392632dc5942160e21b8452602060048501526024840191613aaa565b5034610208576040366003190112610208576118246131ca565b6024356001600160a01b03809216835260066020526040832080548210156118b85790611850916135b0565b506105e461185d82613606565b9261186a60018401613606565b9281600282015416946003820154916004810154600582015460068301549060078401549260096008860154950154966040519b8c9b60ff8a60a81c169a60ff8b60a01c169a16988d6136ac565b8380fd5b50346102085760403660031901126102085760043567ffffffffffffffff81116105e8576118ee9036906004016132ac565b61190a6020602435928160405193828580945193849201613303565b8101600381520301902080548210156116d0576119279250613559565b508054600190910154604080516001600160a01b039093168352602083019190915290f35b503461020857602090816003193601126102085760043567ffffffffffffffff81116105e85761198090369060040161340d565b90926119986001600160a01b0360085416331461372b565b60ff600960405184878237838186810188815203019020015460a81c166006811015610f9e577f039501081328ffe3eb02459ad6f6e90b69e23ba1422b574ee84c1f52b2fc031093946119f060016109239314613806565b60096040518583823784818781018a81520301902001750200000000000000000000000000000000000000000060ff60a81b199181838254161790556009610f8460086040518987823788818d8c8201908152030190200154613575565b503461020857604036600319011261020857611a686131ca565b602435916001600160a01b03809216815260076020526040812090815484101561020857506101c092611a9a9161353d565b5090808254169181600182015416916002820154600383015460048401548360058601541660068601549160078701549360ff60088901549660098a01549882600b600a8d01549c0154169b60206040519e8f9081520152811660408d0152818160a01c1660608d015260a81c1660808b015260a08a015260c089015260e08801526101008701526101208601526101408501526101608401526101808301526101a0820152f35b50346102085760203660031901126102085780611b5d6131ca565b6001600160a01b0390611b758260085416331461372b565b16803b15610c62578180916004604051809481937f8119c0650000000000000000000000000000000000000000000000000000000083525af18015610a5657610a465750f35b5034610208578060031936011261020857601154611bd881613b20565b90611be6604051928361328a565b8082526011835260209283830191817f31ecc21a745e3968a04e9570e4425bc18fa8019c68028196b546d1669c200c68845b838310611c7d5750505050604051928484019085855251809152604084019460408260051b8601019392955b828710611c515785850386f35b909192938280611c6d600193603f198a82030186528851613491565b9601920196019592919092611c44565b600a88600192611c90859b9a989b613c50565b81520192019201919096939596611c18565b50346102085761022036600319011261020857611cbd6131ca565b611cc56131e0565b611ccd6131f6565b906101c03660631901126118b85760405192611ce884613220565b6064356001600160a01b03811681036121315784526084356001600160a01b038116810361213157602085015260a4356001600160a01b038116810361213157604085015260c43560ff8116810361213157606085015260e43560ff811681036121315760808501526101043560a08501526101243560c0850152610144356001600160a01b03811681036121315760e085015261016435610100850152610184356101208501526101a4356101408501526101c4356101608501526101e43561018085015260ff61020435166102043503612131576001600160a01b0390610204356101a086015216845260026020526001600160a01b036040852091166000526020526001600160a01b03604060002091166001600160a01b031982541617905560135490600160401b82101561050657600182018060135582101561211b57612118916013600052600c81027f66de8ffda797e3de9c05e8fc57b3bf0ec28a930d40b0d285d93c06501cf6a090016001600160a01b038351166001600160a01b03198254161790557f66de8ffda797e3de9c05e8fc57b3bf0ec28a930d40b0d285d93c06501cf6a09b600c6001600160a01b03602085015116927f66de8ffda797e3de9c05e8fc57b3bf0ec28a930d40b0d285d93c06501cf6a09182820201846001600160a01b03198254161790557f66de8ffda797e3de9c05e8fc57b3bf0ec28a930d40b0d285d93c06501cf6a092828202016001600160a01b036040870151166001600160a01b0319825416178155611f4260ff606088015116829060ff60a01b1960ff60a01b83549260a01b169116179055565b608086015160ff60a81b1960ff60a81b83549260a81b16911617905560a08501517f66de8ffda797e3de9c05e8fc57b3bf0ec28a930d40b0d285d93c06501cf6a093838302015560c08501517f66de8ffda797e3de9c05e8fc57b3bf0ec28a930d40b0d285d93c06501cf6a09483830201557f66de8ffda797e3de9c05e8fc57b3bf0ec28a930d40b0d285d93c06501cf6a095828202016001600160a01b0360e0870151166001600160a01b03198254161790556101008501517f66de8ffda797e3de9c05e8fc57b3bf0ec28a930d40b0d285d93c06501cf6a09683830201556101208501517f66de8ffda797e3de9c05e8fc57b3bf0ec28a930d40b0d285d93c06501cf6a09783830201556101408501517f66de8ffda797e3de9c05e8fc57b3bf0ec28a930d40b0d285d93c06501cf6a09883830201556101608501517f66de8ffda797e3de9c05e8fc57b3bf0ec28a930d40b0d285d93c06501cf6a09983830201556101808501517f66de8ffda797e3de9c05e8fc57b3bf0ec28a930d40b0d285d93c06501cf6a09a8383020155020160ff6101a08401511660ff19825416179055835260076020526120fa8160408520613b38565b6001600160a01b036040820151168352600760205260408320613b38565b80f35b634e487b7160e01b600052603260045260246000fd5b600080fd5b503461020857806003193601126102085760125461215381613b20565b90612161604051928361328a565b8082526012835260209283830191817fbb8a6a4669ba250d26cd7a459eca9d215f8307e33aebe50379bc5a3617ec3444845b8383106121f85750505050604051928484019085855251809152604084019460408260051b8601019392955b8287106121cc5785850386f35b9091929382806121e8600193603f198a8203018652885161343b565b96019201960195929190926121bf565b600188819261220a859b9a989b613606565b81520192019201919096939596612193565b503461020857806003193601126102085760135461223981613b20565b90612247604051928361328a565b808252601383527f66de8ffda797e3de9c05e8fc57b3bf0ec28a930d40b0d285d93c06501cf6a0909260208084015b83831061228b57604051806105e48782613326565b600c8260019260405161229d81613220565b6001600160a01b03808b5416825280868c0154168483015260028b015490808216604084015260ff918260a0918181841c16606087015260a81c16608085015260038d01549084015260048c015460c084015260058c01541660e083015260068b015461010083015260078b015461012083015260088b015461014083015260098b0154610160830152600a8b0154610180830152600b8b0154166101a0820152815201960192019194612276565b503461020857602090816003193601126102085760043567ffffffffffffffff81116105e8576123809036906004016132ac565b6040519080519184820192612396818386613303565b8101848152600282876001600160a01b0394859403019020015416331480156124e4575b6123c3906137a2565b806009604051878186516123d881838b613303565b810189815203019020015416156124a0579384600961242c8697600d54169383600260405183818061240e8d8d51928391613303565b81018d81520301902001541696604051809381928951928391613303565b81018981520301902001541690803b1561093d57612484858094604051968795869485937fe04cd97f00000000000000000000000000000000000000000000000000000000855260606004860152606485019061343b565b916024840152604483015203925af18015610a5657610a465750f35b6064856040519062461bcd60e51b82526004820152600560248201527f746f6b656e0000000000000000000000000000000000000000000000000000006044820152fd5b50600854811633146123ba565b5034610208576003196040368201126105e85767ffffffffffffffff6004358181116118b85761252590369060040161340d565b929091602435116118b85761018090602435360301126116d057602460206001600160a01b0360095416604051928380927f877b9a670000000000000000000000000000000000000000000000000000000082523360048301525afa908115612962578491612943575b50156128ff576125b66001600160a01b036125ae60446024350161378e565b1633146137a2565b60ff60096040518484823760208186810188815203019020015460a81c166006811015610f9e576125e79015613806565b60405182828237828101848152819003602001902061261561260e60046024350180613851565b90836138d8565b61263561262b6024803501602435600401613851565b90600184016138d8565b600281016001600160a01b0361264f60446024350161378e565b82546001600160a01b0319169116179055602435606481013560038301556084810135600483015560a4810135600583015560c4810135600683015560e4810135600783015561010481013560088301556001600160a01b03906126b6906101240161378e565b166001600160a01b03196009830154161760098201556126fc6126de6101446024350161399c565b600983019060ff60a01b1960ff60a01b83549260a01b169116179055565b6006610164602435013510156118b857612721906009610164602435013591016139aa565b6009604051838382376020818581018781520301902001750100000000000000000000000000000000000000000060ff60a81b198254161790556011549182600860405183858237602081858101898152030190200155604051818382376020818381018781520301902092600160401b811015610506578060016127a99201601155613575565b6117d057837febc5645d06a6c6900ffbabb37c6fc84326bd870990f736254f05abb3287ffd419482036128e5575b50506127f0604051928392604084526040840191613aaa565b818103602083015261092361016061284461282361281360046024350180613acb565b6101808752610180870191613aaa565b6128366024803501602435600401613acb565b908683036020880152613aaa565b926001600160a01b0361285b60446024350161320c565b166040820152602435606481013560608301526084810135608083015260a481013560a083015260c481013560c083015260e481013560e08301526101048101356101008301526001600160a01b03906128b8906101240161320c565b1661012082015260ff6128d061014460243501613460565b1661014082015201610164602435013561346e565b60ff6009808461170f856128f8976139cd565b38806127d7565b606460405162461bcd60e51b815260206004820152600a60248201527f6e6f7420697373756572000000000000000000000000000000000000000000006044820152fd5b61295c915060203d6020116108c5576108b6818361328a565b3861258f565b6040513d86823e3d90fd5b50346102085760403660031901126102085760043567ffffffffffffffff81116105e85761299f9036906004016132ac565b6001600160a01b036129c860206129b46131e0565b938160405193828580945193849201613303565b8101600181520301902091166001600160a01b031982541617905580f35b50346102085760403660031901126102085767ffffffffffffffff6004358181116116d057612a1990369060040161340d565b60248035936001600160a01b039182600a54169260405180947fb9209e33000000000000000000000000000000000000000000000000000000008252336004830152818460209788935afa908115612d60578991612fc4575b5015612f815760ff60096040518789823786818981018d815203019020015460a81c166006811015612f6e57600203612f4a5760046040518688823785818881018c81520301902001549283880288159489820414851715612f37576004604051888a823787818d8b8201908152030190200154908115612f245706612ef457831580612eb6575b15612e7357612b1d88604051888a823787818a8101600481520301902054613afd565b604051878982378681898101600481520301902055338952886005918287528689898c60019460ff86612b5460408a2086886137ed565b01541615612d6b5750612bb093926002926040612b87612ba894338b528b8852612b81838c2085876137ed565b54613afd565b988a82518486823788818681016003815203019020973383525220916137ed565b015490613559565b500155338952808552612bcb88612b8160408c20898b6137ed565b90338a528552612bdf60408a2087896137ed565b555b80600d541688813b1561020857612c34899289838a604051968795869485937f925b7cb6000000000000000000000000000000000000000000000000000000008552604060048601526044850191613aaa565b908a83015203925af18015612d6057612d4d575b508060096040518789823786818981018d81520301902001541690600d541692670de0b6b3a7640000808902988904141715612d3a5783929188606492604051998a9586947f23b872dd00000000000000000000000000000000000000000000000000000000865233600487015285015260448401525af1938415612d2f577f0bdaf52b4de514796607307fbbcf007ee6d59e81e1be436b67c5a567a2e8d12194612d12575b50612d06604051938493604085526040850191613aaa565b9033908301520390a180f35b612d2890823d84116108c5576108b6818361328a565b5038612cee565b6040513d87823e3d90fd5b5086634e487b7160e01b81526011600452fd5b612d5990989198613259565b9638612c48565b6040513d8b823e3d90fd5b95505050505091604051888a823787818a81016003815203019020549060405192606084019084821090821117612e605790612dc660408e8e60029695835287528b8701938885528288019586523382528c52208b8d6137ed565b935184558484019051151560ff801983541691161790555191015560405186888237858188810160038152030190209060405191612e038361323d565b338352868301908a8252805490600160401b821015612e605790612e2b918482018155613559565b939093612e4e57849051166001600160a01b031984541617835551910155612be1565b858c634e487b7160e01b815280600452fd5b868d634e487b7160e01b81526041600452fd5b6064856006856040519262461bcd60e51b845260048401528201527f616d6f756e7400000000000000000000000000000000000000000000000000006044820152fd5b50612ed560405187898237868189810160048152030190205489613afd565b6003604051888a823787818d8b82019081520301902001541015612afa565b8288604051907f3728b83d0000000000000000000000000000000000000000000000000000000082526004820152fd5b848b634e487b7160e01b81526012600452fd5b838a634e487b7160e01b81526011600452fd5b50826109758686604051948594632dc5942160e21b86526004860152840191613aaa565b8289634e487b7160e01b81526021600452fd5b6064846014846040519262461bcd60e51b845260048401528201527f4143434f554e545f4e4f545f414150524f5645440000000000000000000000006044820152fd5b612fdb9150853d87116108c5576108b6818361328a565b38612a72565b5034610208576020908160031936011261020857906001600160a01b0391826130086131ca565b168152600791828152604082209081549261302284613b20565b94613030604051968761328a565b84865282860193825282822091935b85851061305457604051806105e48982613326565b600c8460019260405161306681613220565b8b87541681528b85880154168382015260028701548c8116604083015260ff908160a0918181841c16606086015260a81c166080840152600389015490830152600488015460c08301528c60058901541660e083015260068801546101008301528688015461012083015260088801546101408301526009880154610160830152600a880154610180830152600b880154166101a082015281520193019401939161303f565b503461020857806003193601126102085760206001600160a01b03600a5416604051908152f35b50346102085760403660031901126102085761314d6131ca565b60243567ffffffffffffffff81116116d05761319c9160406060946001600160a01b0361318060209536906004016132ac565b9316815260058452208260405194838680955193849201613303565b820190815203019020805490600260ff60018301541691015490604051928352151560208301526040820152f35b600435906001600160a01b038216820361213157565b602435906001600160a01b038216820361213157565b604435906001600160a01b038216820361213157565b35906001600160a01b038216820361213157565b6101c0810190811067ffffffffffffffff82111761050657604052565b6040810190811067ffffffffffffffff82111761050657604052565b67ffffffffffffffff811161050657604052565b610180810190811067ffffffffffffffff82111761050657604052565b90601f8019910116810190811067ffffffffffffffff82111761050657604052565b81601f820112156121315780359067ffffffffffffffff821161050657604051926132e1601f8401601f19166020018561328a565b8284526020838301011161213157816000926020809301838601378301015290565b60005b8381106133165750506000910152565b8181015183820152602001613306565b60208082019080835283518092528060408094019401926000905b83821061335057505050505090565b9091929394836101c060019288516001600160a01b03808251168352808583015116858401528087830151168784015260ff9060608281850151169085015260808281850151169085015260a0808401519085015260c0808401519085015260e090818401511690840152610100808301519084015261012080830151908401526101408083015190840152610160808301519084015261018080830151908401526101a080920151169082015201960192019093929193613341565b9181601f840112156121315782359167ffffffffffffffff8311612131576020838186019501011161213157565b9060209161345481518092818552858086019101613303565b601f01601f1916010190565b359060ff8216820361213157565b90600682101561347b5752565b634e487b7160e01b600052602160045260246000fd5b9061353a906134be6134ac845161018080855284019061343b565b6020850151838203602085015261343b565b926001600160a01b03806040830151166040840152606082015160608401526080820151608084015260a082015160a084015260c082015160c084015260e082015160e084015261010080830151908401526101209081830151169083015261014060ff8183015116908301526101608091015191019061346e565b90565b805482101561211b57600052600c602060002091020190600090565b805482101561211b5760005260206000209060011b0190600090565b60115481101561211b57600a906011600052027f31ecc21a745e3968a04e9570e4425bc18fa8019c68028196b546d1669c200c680190600090565b805482101561211b57600052600a602060002091020190600090565b90600182811c921680156135fc575b60208310146135e657565b634e487b7160e01b600052602260045260246000fd5b91607f16916135db565b906040519182600082549261361a846135cc565b9081845260019485811690816000146136895750600114613646575b50506136449250038361328a565b565b9093915060005260209081600020936000915b81831061367157505061364493508201013880613636565b85548884018501529485019487945091830191613659565b91505061364494506020925060ff191682840152151560051b8201013880613636565b9791956101609993956136e6959e9d9b956136449d986136d860ff9b958d61018090818152019061343b565b8c810360208e01529061343b565b9e6001600160a01b0380981660408c015260608b015260808a015260a089015260c088015260e08701526101008601521661012084015216610140820152019061346e565b1561373257565b606460405162461bcd60e51b815260206004820152601260248201527f4f4e4c595f544f504f535f4d414e4147455200000000000000000000000000006044820152fd5b90816020910312612131575180151581036121315790565b356001600160a01b03811681036121315790565b156137a957565b606460405162461bcd60e51b815260206004820152600760248201527f61646472657373000000000000000000000000000000000000000000000000006044820152fd5b6020919283604051948593843782019081520301902090565b1561380d57565b606460405162461bcd60e51b815260206004820152600660248201527f73746174757300000000000000000000000000000000000000000000000000006044820152fd5b903590601e1981360301821215612131570180359067ffffffffffffffff82116121315760200191813603831361213157565b90601f811161389257505050565b600091825260208220906020601f850160051c830194106138ce575b601f0160051c01915b8281106138c357505050565b8181556001016138b7565b90925082906138ae565b90929167ffffffffffffffff8111610506576138fe816138f884546135cc565b84613884565b6000601f8211600114613938578192939460009261392d575b50508160011b916000199060031b1c1916179055565b013590503880613917565b601f198216948382526020918281209281905b8882106139845750508360019596971061396a575b505050811b019055565b0135600019600384901b60f8161c19169055388080613960565b8060018496829495870135815501950192019061394b565b3560ff811681036121315790565b90600681101561347b5760ff60a81b1960ff60a81b83549260a81b169116179055565b90808214613aa6576139df81546135cc565b9067ffffffffffffffff8211610506578190613a05826139ff86546135cc565b86613884565b600090601f8311600114613a3b57600092613a305750508160011b916000199060031b1c1916179055565b015490503880613917565b81526020808220858352818320935090601f1985169083905b828210613a8d575050908460019594939210613a7457505050811b019055565b015460001960f88460031b161c19169055388080613960565b8495819295850154815560018091019601940190613a54565b5050565b908060209392818452848401376000828201840152601f01601f1916010190565b9035601e198236030181121561213157016020813591019167ffffffffffffffff821161213157813603831361213157565b91908201809211613b0a57565b634e487b7160e01b600052601160045260246000fd5b67ffffffffffffffff81116105065760051b60200190565b8054600160401b81101561050657613b559160018201815561353d565b6117d0576101a0600b60ff926001600160a01b03808651166001600160a01b03199081845416178355600183018260208901511682825416179055600283018260408901511682825416178155613bc78760608a015116829060ff60a01b1960ff60a01b83549260a01b169116179055565b608088015160ff60a81b1960ff60a81b83549260a81b16911617905560a0870151600384015560c08701516004840155600583019160e088015116908254161790556101008501516006820155610120850151600782015561014085015160088201556101608501516009820155610180850151600a820155019201511660ff19825416179055565b90604051613c5d8161326d565b60ff8193613c6a81613606565b8352613c7860018201613606565b602084015260096001600160a01b03918260028201541660408601526003810154606086015260048101546080860152600581015460a0860152600681015460c0860152600781015460e086015260088101546101008601520154908116610120840152818160a01c1661014084015260a81c1690600682101561347b57610160015256fea26469706673582212203468172fab42a3208e9880211a0c6149c5ff825fe28ed5c7d33fa7deb1be515964736f6c63430008130033",
  "linkReferences": {},
  "deployedLinkReferences": {}
}