{
  "_format": "hh-sol-artifact-1",
  "contractName": "ToposBank",
  "sourceName": "contracts/Topos/Bank/ToposBank.sol",
  "abi": [
    {
      "inputs": [
        {
          "internalType": "address",
          "name": "_toposManager",
          "type": "address"
        },
        {
          "internalType": "address",
          "name": "_rolesContract",
          "type": "address"
        },
        {
          "internalType": "address",
          "name": "_identityRegistryContract",
          "type": "address"
        },
        {
          "internalType": "address",
          "name": "_bondCallContract",
          "type": "address"
        },
        {
          "internalType": "uint256",
          "name": "_dealFees",
          "type": "uint256"
        }
      ],
      "stateMutability": "nonpayable",
      "type": "constructor"
    },
    {
      "inputs": [
        {
          "internalType": "uint256",
          "name": "amount",
          "type": "uint256"
        }
      ],
      "name": "InvalidAmount",
      "type": "error"
    },
    {
      "inputs": [
        {
          "internalType": "string",
          "name": "dealID",
          "type": "string"
        }
      ],
      "name": "InvalidDealStatus",
      "type": "error"
    },
    {
      "anonymous": false,
      "inputs": [
        {
          "indexed": false,
          "internalType": "string",
          "name": "_dealID",
          "type": "string"
        }
      ],
      "name": "BondIssue",
      "type": "event"
    },
    {
      "anonymous": false,
      "inputs": [
        {
          "indexed": false,
          "internalType": "string",
          "name": "_dealID",
          "type": "string"
        }
      ],
      "name": "BondRedeem",
      "type": "event"
    },
    {
      "anonymous": false,
      "inputs": [
        {
          "indexed": false,
          "internalType": "string",
          "name": "dealID",
          "type": "string"
        }
      ],
      "name": "DealAPproved",
      "type": "event"
    },
    {
      "anonymous": false,
      "inputs": [
        {
          "indexed": false,
          "internalType": "string",
          "name": "dealID",
          "type": "string"
        }
      ],
      "name": "DealARejected",
      "type": "event"
    },
    {
      "anonymous": false,
      "inputs": [
        {
          "indexed": false,
          "internalType": "string",
          "name": "dealID",
          "type": "string"
        },
        {
          "components": [
            {
              "internalType": "string",
              "name": "dealID",
              "type": "string"
            },
            {
              "internalType": "string",
              "name": "prospectusURI",
              "type": "string"
            },
            {
              "internalType": "address",
              "name": "issuerAddress",
              "type": "address"
            },
            {
              "internalType": "uint256",
              "name": "debtAmount",
              "type": "uint256"
            },
            {
              "internalType": "uint256",
              "name": "denomination",
              "type": "uint256"
            },
            {
              "internalType": "uint256",
              "name": "couponRate",
              "type": "uint256"
            },
            {
              "internalType": "uint256",
              "name": "couponFrequency",
              "type": "uint256"
            },
            {
              "internalType": "uint256",
              "name": "maturityDate",
              "type": "uint256"
            },
            {
              "internalType": "uint256",
              "name": "index",
              "type": "uint256"
            },
            {
              "internalType": "address",
              "name": "currency",
              "type": "address"
            },
            {
              "internalType": "uint8",
              "name": "couponType",
              "type": "uint8"
            },
            {
              "internalType": "enum BondData.DealStatus",
              "name": "status",
              "type": "uint8"
            }
          ],
          "indexed": false,
          "internalType": "struct BondData.Deal",
          "name": "deal",
          "type": "tuple"
        }
      ],
      "name": "DealSubmitted",
      "type": "event"
    },
    {
      "anonymous": false,
      "inputs": [
        {
          "indexed": false,
          "internalType": "string",
          "name": "dealID",
          "type": "string"
        },
        {
          "indexed": false,
          "internalType": "address",
          "name": "investor",
          "type": "address"
        }
      ],
      "name": "RegisterForDeal",
      "type": "event"
    },
    {
      "inputs": [
        {
          "internalType": "address",
          "name": "",
          "type": "address"
        },
        {
          "internalType": "string",
          "name": "",
          "type": "string"
        }
      ],
      "name": "amountInvested",
      "outputs": [
        {
          "internalType": "uint256",
          "name": "amount",
          "type": "uint256"
        },
        {
          "internalType": "bool",
          "name": "hasInvested",
          "type": "bool"
        },
        {
          "internalType": "uint256",
          "name": "index",
          "type": "uint256"
        }
      ],
      "stateMutability": "view",
      "type": "function"
    },
    {
      "inputs": [
        {
          "internalType": "string",
          "name": "_dealID",
          "type": "string"
        }
      ],
      "name": "approveDeal",
      "outputs": [],
      "stateMutability": "nonpayable",
      "type": "function"
    },
    {
      "inputs": [],
      "name": "bondCallContract",
      "outputs": [
        {
          "internalType": "address",
          "name": "",
          "type": "address"
        }
      ],
      "stateMutability": "view",
      "type": "function"
    },
    {
      "inputs": [
        {
          "internalType": "string",
          "name": "",
          "type": "string"
        }
      ],
      "name": "dealBondContracts",
      "outputs": [
        {
          "internalType": "address",
          "name": "",
          "type": "address"
        }
      ],
      "stateMutability": "view",
      "type": "function"
    },
    {
      "inputs": [],
      "name": "dealFees",
      "outputs": [
        {
          "internalType": "uint256",
          "name": "",
          "type": "uint256"
        }
      ],
      "stateMutability": "view",
      "type": "function"
    },
    {
      "inputs": [
        {
          "internalType": "string",
          "name": "",
          "type": "string"
        },
        {
          "internalType": "uint256",
          "name": "",
          "type": "uint256"
        }
      ],
      "name": "dealInvestment",
      "outputs": [
        {
          "internalType": "address",
          "name": "investor",
          "type": "address"
        },
        {
          "internalType": "uint256",
          "name": "amount",
          "type": "uint256"
        }
      ],
      "stateMutability": "view",
      "type": "function"
    },
    {
      "inputs": [
        {
          "internalType": "string",
          "name": "",
          "type": "string"
        }
      ],
      "name": "deals",
      "outputs": [
        {
          "internalType": "string",
          "name": "dealID",
          "type": "string"
        },
        {
          "internalType": "string",
          "name": "prospectusURI",
          "type": "string"
        },
        {
          "internalType": "address",
          "name": "issuerAddress",
          "type": "address"
        },
        {
          "internalType": "uint256",
          "name": "debtAmount",
          "type": "uint256"
        },
        {
          "internalType": "uint256",
          "name": "denomination",
          "type": "uint256"
        },
        {
          "internalType": "uint256",
          "name": "couponRate",
          "type": "uint256"
        },
        {
          "internalType": "uint256",
          "name": "couponFrequency",
          "type": "uint256"
        },
        {
          "internalType": "uint256",
          "name": "maturityDate",
          "type": "uint256"
        },
        {
          "internalType": "uint256",
          "name": "index",
          "type": "uint256"
        },
        {
          "internalType": "address",
          "name": "currency",
          "type": "address"
        },
        {
          "internalType": "uint8",
          "name": "couponType",
          "type": "uint8"
        },
        {
          "internalType": "enum BondData.DealStatus",
          "name": "status",
          "type": "uint8"
        }
      ],
      "stateMutability": "view",
      "type": "function"
    },
    {
      "inputs": [
        {
          "internalType": "address",
          "name": "_swapContract",
          "type": "address"
        }
      ],
      "name": "endSwapContract",
      "outputs": [],
      "stateMutability": "nonpayable",
      "type": "function"
    },
    {
      "inputs": [],
      "name": "getContracts",
      "outputs": [
        {
          "internalType": "address",
          "name": "manager",
          "type": "address"
        },
        {
          "internalType": "address",
          "name": "roles",
          "type": "address"
        },
        {
          "internalType": "address",
          "name": "identityRegistry",
          "type": "address"
        },
        {
          "internalType": "address",
          "name": "bondCall",
          "type": "address"
        },
        {
          "internalType": "address",
          "name": "issuerFund",
          "type": "address"
        }
      ],
      "stateMutability": "view",
      "type": "function"
    },
    {
      "inputs": [
        {
          "internalType": "string",
          "name": "_dealID",
          "type": "string"
        }
      ],
      "name": "getDeal",
      "outputs": [
        {
          "components": [
            {
              "internalType": "string",
              "name": "dealID",
              "type": "string"
            },
            {
              "internalType": "string",
              "name": "prospectusURI",
              "type": "string"
            },
            {
              "internalType": "address",
              "name": "issuerAddress",
              "type": "address"
            },
            {
              "internalType": "uint256",
              "name": "debtAmount",
              "type": "uint256"
            },
            {
              "internalType": "uint256",
              "name": "denomination",
              "type": "uint256"
            },
            {
              "internalType": "uint256",
              "name": "couponRate",
              "type": "uint256"
            },
            {
              "internalType": "uint256",
              "name": "couponFrequency",
              "type": "uint256"
            },
            {
              "internalType": "uint256",
              "name": "maturityDate",
              "type": "uint256"
            },
            {
              "internalType": "uint256",
              "name": "index",
              "type": "uint256"
            },
            {
              "internalType": "address",
              "name": "currency",
              "type": "address"
            },
            {
              "internalType": "uint8",
              "name": "couponType",
              "type": "uint8"
            },
            {
              "internalType": "enum BondData.DealStatus",
              "name": "status",
              "type": "uint8"
            }
          ],
          "internalType": "struct BondData.Deal",
          "name": "",
          "type": "tuple"
        }
      ],
      "stateMutability": "view",
      "type": "function"
    },
    {
      "inputs": [
        {
          "internalType": "string",
          "name": "_dealID",
          "type": "string"
        }
      ],
      "name": "getDealBondContract",
      "outputs": [
        {
          "internalType": "address",
          "name": "",
          "type": "address"
        }
      ],
      "stateMutability": "view",
      "type": "function"
    },
    {
      "inputs": [],
      "name": "getDealFees",
      "outputs": [
        {
          "internalType": "uint256",
          "name": "",
          "type": "uint256"
        }
      ],
      "stateMutability": "view",
      "type": "function"
    },
    {
      "inputs": [
        {
          "internalType": "string",
          "name": "_dealID",
          "type": "string"
        }
      ],
      "name": "getDealInvestment",
      "outputs": [
        {
          "components": [
            {
              "internalType": "address",
              "name": "investor",
              "type": "address"
            },
            {
              "internalType": "uint256",
              "name": "amount",
              "type": "uint256"
            }
          ],
          "internalType": "struct BondData.DealInvestment[]",
          "name": "",
          "type": "tuple[]"
        }
      ],
      "stateMutability": "view",
      "type": "function"
    },
    {
      "inputs": [],
      "name": "getListOfBonds",
      "outputs": [
        {
          "components": [
            {
              "internalType": "string",
              "name": "isin",
              "type": "string"
            },
            {
              "internalType": "string",
              "name": "name",
              "type": "string"
            },
            {
              "internalType": "string",
              "name": "symbol",
              "type": "string"
            },
            {
              "internalType": "address",
              "name": "currency",
              "type": "address"
            },
            {
              "internalType": "uint256",
              "name": "denomination",
              "type": "uint256"
            },
            {
              "internalType": "uint256",
              "name": "issueVolume",
              "type": "uint256"
            },
            {
              "internalType": "uint256",
              "name": "couponRate",
              "type": "uint256"
            },
            {
              "internalType": "uint8",
              "name": "couponType",
              "type": "uint8"
            },
            {
              "internalType": "uint256",
              "name": "couponFrequency",
              "type": "uint256"
            },
            {
              "internalType": "uint256",
              "name": "issueDate",
              "type": "uint256"
            },
            {
              "internalType": "uint256",
              "name": "maturityDate",
              "type": "uint256"
            }
          ],
          "internalType": "struct BondData.Bond[]",
          "name": "",
          "type": "tuple[]"
        }
      ],
      "stateMutability": "view",
      "type": "function"
    },
    {
      "inputs": [],
      "name": "getListOfBondsDealIDs",
      "outputs": [
        {
          "internalType": "string[]",
          "name": "",
          "type": "string[]"
        }
      ],
      "stateMutability": "view",
      "type": "function"
    },
    {
      "inputs": [],
      "name": "getListOfDeals",
      "outputs": [
        {
          "components": [
            {
              "internalType": "string",
              "name": "dealID",
              "type": "string"
            },
            {
              "internalType": "string",
              "name": "prospectusURI",
              "type": "string"
            },
            {
              "internalType": "address",
              "name": "issuerAddress",
              "type": "address"
            },
            {
              "internalType": "uint256",
              "name": "debtAmount",
              "type": "uint256"
            },
            {
              "internalType": "uint256",
              "name": "denomination",
              "type": "uint256"
            },
            {
              "internalType": "uint256",
              "name": "couponRate",
              "type": "uint256"
            },
            {
              "internalType": "uint256",
              "name": "couponFrequency",
              "type": "uint256"
            },
            {
              "internalType": "uint256",
              "name": "maturityDate",
              "type": "uint256"
            },
            {
              "internalType": "uint256",
              "name": "index",
              "type": "uint256"
            },
            {
              "internalType": "address",
              "name": "currency",
              "type": "address"
            },
            {
              "internalType": "uint8",
              "name": "couponType",
              "type": "uint8"
            },
            {
              "internalType": "enum BondData.DealStatus",
              "name": "status",
              "type": "uint8"
            }
          ],
          "internalType": "struct BondData.Deal[]",
          "name": "",
          "type": "tuple[]"
        }
      ],
      "stateMutability": "view",
      "type": "function"
    },
    {
      "inputs": [
        {
          "internalType": "string",
          "name": "_dealID",
          "type": "string"
        }
      ],
      "name": "getTotalAmounInvested",
      "outputs": [
        {
          "internalType": "uint256",
          "name": "",
          "type": "uint256"
        }
      ],
      "stateMutability": "view",
      "type": "function"
    },
    {
      "inputs": [],
      "name": "identityRegistryContract",
      "outputs": [
        {
          "internalType": "address",
          "name": "",
          "type": "address"
        }
      ],
      "stateMutability": "view",
      "type": "function"
    },
    {
      "inputs": [
        {
          "internalType": "string",
          "name": "_dealID",
          "type": "string"
        },
        {
          "components": [
            {
              "internalType": "string",
              "name": "isin",
              "type": "string"
            },
            {
              "internalType": "string",
              "name": "name",
              "type": "string"
            },
            {
              "internalType": "string",
              "name": "symbol",
              "type": "string"
            },
            {
              "internalType": "address",
              "name": "currency",
              "type": "address"
            },
            {
              "internalType": "uint256",
              "name": "denomination",
              "type": "uint256"
            },
            {
              "internalType": "uint256",
              "name": "issueVolume",
              "type": "uint256"
            },
            {
              "internalType": "uint256",
              "name": "couponRate",
              "type": "uint256"
            },
            {
              "internalType": "uint8",
              "name": "couponType",
              "type": "uint8"
            },
            {
              "internalType": "uint256",
              "name": "couponFrequency",
              "type": "uint256"
            },
            {
              "internalType": "uint256",
              "name": "issueDate",
              "type": "uint256"
            },
            {
              "internalType": "uint256",
              "name": "maturityDate",
              "type": "uint256"
            }
          ],
          "internalType": "struct BondData.Bond",
          "name": "_bond",
          "type": "tuple"
        },
        {
          "internalType": "address",
          "name": "_bondContract",
          "type": "address"
        }
      ],
      "name": "issue",
      "outputs": [],
      "stateMutability": "nonpayable",
      "type": "function"
    },
    {
      "inputs": [
        {
          "internalType": "address",
          "name": "",
          "type": "address"
        },
        {
          "internalType": "uint256",
          "name": "",
          "type": "uint256"
        }
      ],
      "name": "issuerDeals",
      "outputs": [
        {
          "internalType": "string",
          "name": "dealID",
          "type": "string"
        },
        {
          "internalType": "string",
          "name": "prospectusURI",
          "type": "string"
        },
        {
          "internalType": "address",
          "name": "issuerAddress",
          "type": "address"
        },
        {
          "internalType": "uint256",
          "name": "debtAmount",
          "type": "uint256"
        },
        {
          "internalType": "uint256",
          "name": "denomination",
          "type": "uint256"
        },
        {
          "internalType": "uint256",
          "name": "couponRate",
          "type": "uint256"
        },
        {
          "internalType": "uint256",
          "name": "couponFrequency",
          "type": "uint256"
        },
        {
          "internalType": "uint256",
          "name": "maturityDate",
          "type": "uint256"
        },
        {
          "internalType": "uint256",
          "name": "index",
          "type": "uint256"
        },
        {
          "internalType": "address",
          "name": "currency",
          "type": "address"
        },
        {
          "internalType": "uint8",
          "name": "couponType",
          "type": "uint8"
        },
        {
          "internalType": "enum BondData.DealStatus",
          "name": "status",
          "type": "uint8"
        }
      ],
      "stateMutability": "view",
      "type": "function"
    },
    {
      "inputs": [],
      "name": "issuersFundContract",
      "outputs": [
        {
          "internalType": "address",
          "name": "",
          "type": "address"
        }
      ],
      "stateMutability": "view",
      "type": "function"
    },
    {
      "inputs": [
        {
          "internalType": "string",
          "name": "_dealID",
          "type": "string"
        },
        {
          "internalType": "address",
          "name": "_bondContract",
          "type": "address"
        }
      ],
      "name": "redeem",
      "outputs": [],
      "stateMutability": "nonpayable",
      "type": "function"
    },
    {
      "inputs": [
        {
          "internalType": "string",
          "name": "_dealID",
          "type": "string"
        },
        {
          "internalType": "uint256",
          "name": "_amount",
          "type": "uint256"
        }
      ],
      "name": "registerForDeal",
      "outputs": [],
      "stateMutability": "nonpayable",
      "type": "function"
    },
    {
      "inputs": [
        {
          "internalType": "string",
          "name": "_dealID",
          "type": "string"
        }
      ],
      "name": "rejectDeal",
      "outputs": [],
      "stateMutability": "nonpayable",
      "type": "function"
    },
    {
      "inputs": [],
      "name": "rolesContract",
      "outputs": [
        {
          "internalType": "address",
          "name": "",
          "type": "address"
        }
      ],
      "stateMutability": "view",
      "type": "function"
    },
    {
      "inputs": [
        {
          "internalType": "string",
          "name": "_dealID",
          "type": "string"
        },
        {
          "internalType": "address",
          "name": "_bondContractAddress",
          "type": "address"
        }
      ],
      "name": "setBondContractAddress",
      "outputs": [],
      "stateMutability": "nonpayable",
      "type": "function"
    },
    {
      "inputs": [
        {
          "internalType": "uint256",
          "name": "_newBenchmark",
          "type": "uint256"
        },
        {
          "internalType": "address",
          "name": "_swapContract",
          "type": "address"
        }
      ],
      "name": "setIRSBenchmark",
      "outputs": [],
      "stateMutability": "nonpayable",
      "type": "function"
    },
    {
      "inputs": [
        {
          "internalType": "address",
          "name": "_fixedPayerContract",
          "type": "address"
        },
        {
          "internalType": "address",
          "name": "_floatingPayerContract",
          "type": "address"
        },
        {
          "internalType": "address",
          "name": "_irsContractAddress",
          "type": "address"
        }
      ],
      "name": "setIRSContractAddress",
      "outputs": [],
      "stateMutability": "nonpayable",
      "type": "function"
    },
    {
      "inputs": [
        {
          "internalType": "address",
          "name": "_issuerFundContract",
          "type": "address"
        }
      ],
      "name": "setIssuerFundContract",
      "outputs": [],
      "stateMutability": "nonpayable",
      "type": "function"
    },
    {
      "inputs": [
        {
          "internalType": "address",
          "name": "_toposManager",
          "type": "address"
        }
      ],
      "name": "setManager",
      "outputs": [],
      "stateMutability": "nonpayable",
      "type": "function"
    },
    {
      "inputs": [
        {
          "internalType": "string",
          "name": "_dealID",
          "type": "string"
        },
        {
          "components": [
            {
              "internalType": "string",
              "name": "dealID",
              "type": "string"
            },
            {
              "internalType": "string",
              "name": "prospectusURI",
              "type": "string"
            },
            {
              "internalType": "address",
              "name": "issuerAddress",
              "type": "address"
            },
            {
              "internalType": "uint256",
              "name": "debtAmount",
              "type": "uint256"
            },
            {
              "internalType": "uint256",
              "name": "denomination",
              "type": "uint256"
            },
            {
              "internalType": "uint256",
              "name": "couponRate",
              "type": "uint256"
            },
            {
              "internalType": "uint256",
              "name": "couponFrequency",
              "type": "uint256"
            },
            {
              "internalType": "uint256",
              "name": "maturityDate",
              "type": "uint256"
            },
            {
              "internalType": "uint256",
              "name": "index",
              "type": "uint256"
            },
            {
              "internalType": "address",
              "name": "currency",
              "type": "address"
            },
            {
              "internalType": "uint8",
              "name": "couponType",
              "type": "uint8"
            },
            {
              "internalType": "enum BondData.DealStatus",
              "name": "status",
              "type": "uint8"
            }
          ],
          "internalType": "struct BondData.Deal",
          "name": "_deal",
          "type": "tuple"
        }
      ],
      "name": "submitDeal",
      "outputs": [],
      "stateMutability": "nonpayable",
      "type": "function"
    },
    {
      "inputs": [
        {
          "internalType": "address",
          "name": "_swapContract",
          "type": "address"
        }
      ],
      "name": "swapIRS",
      "outputs": [],
      "stateMutability": "nonpayable",
      "type": "function"
    },
    {
      "inputs": [],
      "name": "toposManager",
      "outputs": [
        {
          "internalType": "address",
          "name": "",
          "type": "address"
        }
      ],
      "stateMutability": "view",
      "type": "function"
    },
    {
      "inputs": [
        {
          "internalType": "string",
          "name": "",
          "type": "string"
        }
      ],
      "name": "totalAmountInvestedForDeal",
      "outputs": [
        {
          "internalType": "uint256",
          "name": "",
          "type": "uint256"
        }
      ],
      "stateMutability": "view",
      "type": "function"
    },
    {
      "inputs": [
        {
          "internalType": "string",
          "name": "_dealID",
          "type": "string"
        }
      ],
      "name": "withdrawIssuerFund",
      "outputs": [],
      "stateMutability": "nonpayable",
      "type": "function"
    }
  ],
  "bytecode": "0x60806040523480156200001157600080fd5b50604051620040b1380380620040b18339810160408190526200003491620000a8565b600780546001600160a01b03199081166001600160a01b03978816179091556008805482169587169590951790945560098054851693861693909317909255600a80549093169316929092179055600c556200010f565b80516001600160a01b0381168114620000a357600080fd5b919050565b600080600080600060a08688031215620000c157600080fd5b620000cc866200008b565b9450620000dc602087016200008b565b9350620000ec604087016200008b565b9250620000fc606087016200008b565b9150608086015190509295509295909350565b613f92806200011f6000396000f3fe608060405234801561001057600080fd5b50600436106102415760003560e01c8063754f399a11610145578063ca53b391116100bd578063f3413c4f1161008c578063fe0ab4b311610071578063fe0ab4b3146105c5578063feb45fa6146105f9578063ff6689d01461064457600080fd5b8063f3413c4f1461059d578063fb90e441146105b257600080fd5b8063ca53b39114610544578063d0ebdbe714610557578063d7c4029c1461056a578063e70791801461057d57600080fd5b8063a0a57dac11610114578063b83c7fba116100f9578063b83c7fba146104c7578063c3a2a93a146104da578063c8d7f62e1461052457600080fd5b8063a0a57dac146104ab578063af9080f8146104be57600080fd5b8063754f399a1461045f5780637bafe3d0146104725780637f31ed73146104855780639f0d8d2a1461049857600080fd5b806336f9c4da116101d857806349f5d1d9116101a75780635e43522e1161018c5780635e43522e146104005780635ed7e2c114610413578063605936ea1461044c57600080fd5b806349f5d1d9146103c2578063507251cb146103ed57600080fd5b806336f9c4da146103555780633887bdcf1461036a57806348f92ee81461037d578063499fa18a1461039057600080fd5b806319662d8e1161021457806319662d8e146103075780631b59122c1461031a578063281ddc8e1461032d5780632f6679101461034257600080fd5b8063041e9b8914610246578063088674e0146102b45780630df8bfda146102df5780631882c195146102f4575b600080fd5b610294610254366004612e25565b60056020908152600092835260409092208151808301840180519281529084019290930191909120915280546001820154600290920154909160ff169083565b604080519384529115156020840152908201526060015b60405180910390f35b6009546102c7906001600160a01b031681565b6040516001600160a01b0390911681526020016102ab565b6102f26102ed366004612ebe565b61064c565b005b6102f2610302366004612f0a565b610d2c565b6102f2610315366004612f5c565b610d70565b6102f2610328366004612fcd565b61112f565b61033561130c565b6040516102ab919061305a565b6102c7610350366004612fcd565b6113e5565b61035d611416565b6040516102ab91906131c8565b6102f261037836600461321d565b611638565b6102f261038b366004613241565b6116c2565b6103a361039e366004613283565b611882565b604080516001600160a01b0390931683526020830191909152016102ab565b6103d56103d03660046132c8565b6118d7565b6040516102ab9c9b9a999897969594939291906132f4565b6102f26103fb366004613386565b611a80565b600a546102c7906001600160a01b031681565b61043e610421366004612fcd565b805160208183018101805160048252928201919093012091525481565b6040519081526020016102ab565b61043e61045a366004613241565b611ed4565b6102f261046d366004613241565b611f00565b6102f261048036600461321d565b6120b4565b6007546102c7906001600160a01b031681565b6102f26104a6366004613408565b612138565b6103d56104b9366004612fcd565b6121fe565b61043e600c5481565b6102f26104d536600461321d565b612224565b600754600854600954600a54600b54604080516001600160a01b0396871681529486166020860152928516928401929092528316606083015291909116608082015260a0016102ab565b610537610532366004613241565b6122ae565b6040516102ab919061342d565b6008546102c7906001600160a01b031681565b6102f261056536600461321d565b612344565b6102f2610578366004613485565b612414565b61059061058b366004612fcd565b612862565b6040516102ab91906134d1565b6105a5612a64565b6040516102ab91906134e4565b600b546102c7906001600160a01b031681565b6102c76105d3366004612fcd565b80516020818301810180516001825292820191909301209152546001600160a01b031681565b6102f26106073660046135ec565b6001600160a01b03928316600090815260026020908152604080832094861683529390529190912080546001600160a01b03191691909216179055565b600c5461043e565b6009546040517fb9209e330000000000000000000000000000000000000000000000000000000081523360048201819052916001600160a01b03169063b9209e3390602401602060405180830381865afa1580156106ae573d6000803e3d6000fd5b505050506040513d601f19601f820116820180604052508101906106d2919061362c565b6107235760405162461bcd60e51b815260206004820152601460248201527f4143434f554e545f4e4f545f414150524f56454400000000000000000000000060448201526064015b60405180910390fd5b60026000858560405161073792919061364e565b9081526040519081900360200190206009015460ff600160a81b909104166005811115610766576107666130bc565b14610788578383604051632dc5942160e21b815260040161071a929190613687565b6000848460405161079a92919061364e565b908152602001604051809103902060040154600085856040516107be92919061364e565b908152602001604051809103902060040154836107db91906136b1565b6107e591906136c8565b1561081f576040517f3728b83d0000000000000000000000000000000000000000000000000000000081526004810183905260240161071a565b811580159061087c57506000848460405161083b92919061364e565b9081526020016040518091039020600301546004858560405161085f92919061364e565b9081526020016040518091039020548361087991906136ea565b11155b6108c85760405162461bcd60e51b815260206004820152600660248201527f616d6f756e740000000000000000000000000000000000000000000000000000604482015260640161071a565b81600485856040516108db92919061364e565b9081526020016040518091039020546108f491906136ea565b6004858560405161090692919061364e565b9081526040805160209281900383018120939093553360009081526005909252902090610936908690869061364e565b9081526040519081900360200190206001015460ff1615610a8b5733600090815260056020526040908190209051839190610974908790879061364e565b9081526040519081900360200190205461098e91906136ea565b600385856040516109a092919061364e565b908152604080519182900360209081018320336000908152600590925291902090916109cf908890889061364e565b908152602001604051809103902060020154815481106109f1576109f16136fd565b9060005260206000209060020201600101819055508160056000336001600160a01b03166001600160a01b031681526020019081526020016000208585604051610a3c92919061364e565b90815260405190819003602001902054610a5691906136ea565b33600090815260056020526040908190209051610a76908790879061364e565b90815260405190819003602001902055610b8c565b604051806060016040528083815260200160011515815260200160038686604051610ab792919061364e565b90815260408051602092819003830190205490925233600090815260059091528190209051610ae9908790879061364e565b9081526040805160209281900383018120845181559284015160018401805460ff1916911515919091179055920151600290910155600390610b2e908690869061364e565b90815260408051602092819003830181208183019092523381528281018581528254600180820185556000948552949093209151600290930290910180546001600160a01b0319166001600160a01b03909316929092178255519101555b600b546040517f925b7cb60000000000000000000000000000000000000000000000000000000081526001600160a01b039091169063925b7cb690610bd990879087908790600401613713565b600060405180830381600087803b158015610bf357600080fd5b505af1158015610c07573d6000803e3d6000fd5b5050505060008484604051610c1d92919061364e565b90815260405190819003602001902060090154600b546001600160a01b03918216916323b872dd91339116610c5a86670de0b6b3a76400006136b1565b6040517fffffffff0000000000000000000000000000000000000000000000000000000060e086901b1681526001600160a01b03938416600482015292909116602483015260448201526064016020604051808303816000875af1158015610cc6573d6000803e3d6000fd5b505050506040513d601f19601f82011682018060405250810190610cea919061362c565b507f0bdaf52b4de514796607307fbbcf007ee6d59e81e1be436b67c5a567a2e8d121848433604051610d1e93929190613737565b60405180910390a150505050565b80600183604051610d3d9190613764565b90815260405190819003602001902080546001600160a01b03929092166001600160a01b03199092169190911790555050565b6008546040517f877b9a670000000000000000000000000000000000000000000000000000000081523360048201526001600160a01b039091169063877b9a6790602401602060405180830381865afa158015610dd1573d6000803e3d6000fd5b505050506040513d601f19601f82011682018060405250810190610df5919061362c565b610e415760405162461bcd60e51b815260206004820152600a60248201527f6e6f742069737375657200000000000000000000000000000000000000000000604482015260640161071a565b610e51606082016040830161321d565b6001600160a01b0316336001600160a01b031614610e9b5760405162461bcd60e51b81526020600482015260076024820152666164647265737360c81b604482015260640161071a565b6000808484604051610eae92919061364e565b9081526040519081900360200190206009015460ff600160a81b909104166005811115610edd57610edd6130bc565b14610f135760405162461bcd60e51b815260206004820152600660248201526573746174757360d01b604482015260640161071a565b8060008484604051610f2692919061364e565b908152604051908190036020019020610f3f828261399b565b905050600160008484604051610f5692919061364e565b908152604051908190036020019020600901805460ff60a81b1916600160a81b836005811115610f8857610f886130bc565b0217905550600e54604051600090610fa3908690869061364e565b908152602001604051809103902060080181905550600e60008484604051610fcc92919061364e565b908152604051602091819003820190208254600181018455600093845291909220600a9091020180610ffe8382613ad9565b5060018181019061101190840182613ad9565b5060028281015490820180546001600160a01b039283166001600160a01b0319918216179091556003808501549084015560048085015490840155600580850154818501556006808601549085015560078086015490850155600880860154908501556009808601805491860180549290951693821684178555805474ffffffffffffffffffffffffffffffffffffffffff19909216909317600160a01b9182900460ff908116909202178085559254600160a81b90819004909116939260ff60a81b19169184908111156110e8576110e86130bc565b021790555050507febc5645d06a6c6900ffbabb37c6fc84326bd870990f736254f05abb3287ffd4183838360405161112293929190613c12565b60405180910390a1505050565b60008160405161113f9190613764565b90815260405190819003602001902060020154336001600160a01b03909116148061117457506007546001600160a01b031633145b6111aa5760405162461bcd60e51b81526020600482015260076024820152666164647265737360c81b604482015260640161071a565b60006001600160a01b03166000826040516111c59190613764565b908152604051908190036020019020600901546001600160a01b03160361122e5760405162461bcd60e51b815260206004820152600560248201527f746f6b656e000000000000000000000000000000000000000000000000000000604482015260640161071a565b600b546040516001600160a01b039091169063e04cd97f908390600090611256908390613764565b908152604051908190036020018120600201546001600160a01b031690600090611281908790613764565b908152604051908190036020018120600901547fffffffff0000000000000000000000000000000000000000000000000000000060e086901b1682526112d79392916001600160a01b0390911690600401613d24565b600060405180830381600087803b1580156112f157600080fd5b505af1158015611305573d6000803e3d6000fd5b5050505050565b6060600f805480602002602001604051908101604052809291908181526020016000905b828210156113dc57838290600052602060002001805461134f906137c7565b80601f016020809104026020016040519081016040528092919081815260200182805461137b906137c7565b80156113c85780601f1061139d576101008083540402835291602001916113c8565b820191906000526020600020905b8154815290600101906020018083116113ab57829003601f168201915b505050505081526020019060010190611330565b50505050905090565b60006001826040516113f79190613764565b908152604051908190036020019020546001600160a01b031692915050565b6060600e805480602002602001604051908101604052809291908181526020016000905b828210156113dc57838290600052602060002090600a02016040518061018001604052908160008201805461146e906137c7565b80601f016020809104026020016040519081016040528092919081815260200182805461149a906137c7565b80156114e75780601f106114bc576101008083540402835291602001916114e7565b820191906000526020600020905b8154815290600101906020018083116114ca57829003601f168201915b50505050508152602001600182018054611500906137c7565b80601f016020809104026020016040519081016040528092919081815260200182805461152c906137c7565b80156115795780601f1061154e57610100808354040283529160200191611579565b820191906000526020600020905b81548152906001019060200180831161155c57829003601f168201915b505050918352505060028201546001600160a01b03908116602083015260038301546040830152600483015460608301526005808401546080840152600684015460a0840152600784015460c0840152600884015460e0840152600984015491821661010084015260ff600160a01b8304811661012085015261014090930192600160a81b90920490911690811115611614576116146130bc565b6005811115611625576116256130bc565b815250508152602001906001019061143a565b6007546001600160a01b031633146116875760405162461bcd60e51b815260206004820152601260248201527127a7262cafaa27a827a9afa6a0a720a3a2a960711b604482015260640161071a565b806001600160a01b0316638119c0656040518163ffffffff1660e01b8152600401600060405180830381600087803b1580156112f157600080fd5b6007546001600160a01b031633146117115760405162461bcd60e51b815260206004820152601260248201527127a7262cafaa27a827a9afa6a0a720a3a2a960711b604482015260640161071a565b60016000838360405161172592919061364e565b9081526040519081900360200190206009015460ff600160a81b909104166005811115611754576117546130bc565b1461178a5760405162461bcd60e51b815260206004820152600660248201526573746174757360d01b604482015260640161071a565b60026000838360405161179e92919061364e565b908152604051908190036020019020600901805460ff60a81b1916600160a81b8360058111156117d0576117d06130bc565b02179055506002600e600084846040516117eb92919061364e565b9081526020016040518091039020600801548154811061180d5761180d6136fd565b600091825260209091206009600a9092020101805460ff60a81b1916600160a81b836005811115611840576118406130bc565b02179055507f039501081328ffe3eb02459ad6f6e90b69e23ba1422b574ee84c1f52b2fc03108282604051611876929190613687565b60405180910390a15050565b815160208184018101805160038252928201918501919091209190528054829081106118ad57600080fd5b6000918252602090912060029091020180546001909101546001600160a01b039091169250905082565b600660205281600052604060002081815481106118f357600080fd5b90600052602060002090600a020160009150915050806000018054611917906137c7565b80601f0160208091040260200160405190810160405280929190818152602001828054611943906137c7565b80156119905780601f1061196557610100808354040283529160200191611990565b820191906000526020600020905b81548152906001019060200180831161197357829003601f168201915b5050505050908060010180546119a5906137c7565b80601f01602080910402602001604051908101604052809291908181526020018280546119d1906137c7565b8015611a1e5780601f106119f357610100808354040283529160200191611a1e565b820191906000526020600020905b815481529060010190602001808311611a0157829003601f168201915b50505060028401546003850154600486015460058701546006880154600789015460088a01546009909a015498996001600160a01b0396871699959850939650919490939192919081169060ff600160a01b8204811691600160a81b9004168c565b6007546001600160a01b03163314611acf5760405162461bcd60e51b815260206004820152601260248201527127a7262cafaa27a827a9afa6a0a720a3a2a960711b604482015260640161071a565b600260008585604051611ae392919061364e565b9081526040519081900360200190206009015460ff600160a81b909104166005811115611b1257611b126130bc565b14611b34578383604051632dc5942160e21b815260040161071a929190613687565b8060018585604051611b4792919061364e565b908152602001604051809103902060006101000a8154816001600160a01b0302191690836001600160a01b03160217905550600460008585604051611b8d92919061364e565b908152604051908190036020019020600901805460ff60a81b1916600160a81b836005811115611bbf57611bbf6130bc565b02179055506004600e60008686604051611bda92919061364e565b90815260200160405180910390206008015481548110611bfc57611bfc6136fd565b600091825260209091206009600a9092020101805460ff60a81b1916600160a81b836005811115611c2f57611c2f6130bc565b021790555060066000808686604051611c4992919061364e565b9081526040805160209281900383019020600201546001600160a01b0316835290820192909252810160009081209151611c86908790879061364e565b908152604051602091819003820190208254600181018455600093845291909220600a9091020180611cb88382613ad9565b50600181810190611ccb90840182613ad9565b5060028281015490820180546001600160a01b039283166001600160a01b0319918216179091556003808501549084015560048085015490840155600580850154818501556006808601549085015560078086015490850155600880860154908501556009808601805491860180549290951693821684178555805474ffffffffffffffffffffffffffffffffffffffffff19909216909317600160a01b9182900460ff908116909202178085559254600160a81b90819004909116939260ff60a81b1916918490811115611da257611da26130bc565b021790555050600f80546001810182556000919091527f8d1108e10bcb7c27dddfc02ed9d693a074039d026cf4ea4240b40f7d581ac802019050611de784868361384c565b506040517fd76805aa0000000000000000000000000000000000000000000000000000000081526001600160a01b0382169063d76805aa90611e2d908590600401613d57565b600060405180830381600087803b158015611e4757600080fd5b505af1158015611e5b573d6000803e3d6000fd5b5050600d8054600181018255600091909152849250600b027fd7b6990105719101dabeb77144f2a3385c8033acd3af97e9423a695e81ad1eb5019050611ea18282613e5b565b50507f44b55c2d9270546faf6ff2f0acac078011883b82782d9b08de2d3af4543c2b188484604051610d1e929190613687565b600060048383604051611ee892919061364e565b90815260200160405180910390205490505b92915050565b6007546001600160a01b03163314611f4f5760405162461bcd60e51b815260206004820152601260248201527127a7262cafaa27a827a9afa6a0a720a3a2a960711b604482015260640161071a565b600160008383604051611f6392919061364e565b9081526040519081900360200190206009015460ff600160a81b909104166005811115611f9257611f926130bc565b14611fc85760405162461bcd60e51b815260206004820152600660248201526573746174757360d01b604482015260640161071a565b600360008383604051611fdc92919061364e565b908152604051908190036020019020600901805460ff60a81b1916600160a81b83600581111561200e5761200e6130bc565b02179055506003600e6000848460405161202992919061364e565b9081526020016040518091039020600801548154811061204b5761204b6136fd565b600091825260209091206009600a9092020101805460ff60a81b1916600160a81b83600581111561207e5761207e6130bc565b02179055507f735ccdd611541d36c82a3622baab7f58b8a0f5be664555b0d9c95ddde16096d38282604051611876929190613687565b6007546001600160a01b031633146121035760405162461bcd60e51b815260206004820152601260248201527127a7262cafaa27a827a9afa6a0a720a3a2a960711b604482015260640161071a565b6001600160a01b03811661211657600080fd5b600b80546001600160a01b0319166001600160a01b0392909216919091179055565b6007546001600160a01b031633146121875760405162461bcd60e51b815260206004820152601260248201527127a7262cafaa27a827a9afa6a0a720a3a2a960711b604482015260640161071a565b6040517f68a2da51000000000000000000000000000000000000000000000000000000008152600481018390526001600160a01b038216906368a2da5190602401600060405180830381600087803b1580156121e257600080fd5b505af11580156121f6573d6000803e3d6000fd5b505050505050565b8051602081830181018051600082529282019190930120915280548190611917906137c7565b6007546001600160a01b031633146122735760405162461bcd60e51b815260206004820152601260248201527127a7262cafaa27a827a9afa6a0a720a3a2a960711b604482015260640161071a565b806001600160a01b031663442447ca6040518163ffffffff1660e01b8152600401600060405180830381600087803b1580156112f157600080fd5b6060600383836040516122c292919061364e565b9081526020016040518091039020805480602002602001604051908101604052809291908181526020016000905b82821015612338576000848152602090819020604080518082019091526002850290910180546001600160a01b031682526001908101548284015290835290920191016122f0565b50505050905092915050565b6007546001600160a01b031633146123935760405162461bcd60e51b815260206004820152601260248201527127a7262cafaa27a827a9afa6a0a720a3a2a960711b604482015260640161071a565b600854604080517fcfde18900000000000000000000000000000000000000000000000000000000081526004810191909152600760448201527f4d414e414745520000000000000000000000000000000000000000000000000060648201526001600160a01b0383811660248301529091169063cfde1890906084016112d7565b6007546001600160a01b031633146124635760405162461bcd60e51b815260206004820152601260248201527127a7262cafaa27a827a9afa6a0a720a3a2a960711b604482015260640161071a565b60046000848460405161247792919061364e565b9081526040519081900360200190206009015460ff600160a81b9091041660058111156124a6576124a66130bc565b146124c8578282604051632dc5942160e21b815260040161071a929190613687565b6005600084846040516124dc92919061364e565b908152604051908190036020019020600901805460ff60a81b1916600160a81b83600581111561250e5761250e6130bc565b02179055506005600e6000858560405161252992919061364e565b9081526020016040518091039020600801548154811061254b5761254b6136fd565b600091825260209091206009600a9092020101805460ff60a81b1916600160a81b83600581111561257e5761257e6130bc565b021790555060056006600080868660405161259a92919061364e565b9081526040805160209281900383019020600201546001600160a01b03168352908201929092528101600090812091516125d7908790879061364e565b908152602001604051809103902060080154815481106125f9576125f96136fd565b600091825260209091206009600a9092020101805460ff60a81b1916600160a81b83600581111561262c5761262c6130bc565b0217905550806001600160a01b031663be040fb06040518163ffffffff1660e01b8152600401600060405180830381600087803b15801561266c57600080fd5b505af1158015612680573d6000803e3d6000fd5b5050505060005b6003848460405161269992919061364e565b90815260405190819003602001902054811015612830576000600385856040516126c492919061364e565b908152602001604051809103902082815481106126e3576126e36136fd565b906000526020600020906002020160010154905060006003868660405161270b92919061364e565b9081526020016040518091039020838154811061272a5761272a6136fd565b60009182526020909120600290910201546001600160a01b03169050811561281b576000868660405161275e92919061364e565b908152604051908190036020019020600901546001600160a01b031663a9059cbb8261279285670de0b6b3a76400006136b1565b6040517fffffffff0000000000000000000000000000000000000000000000000000000060e085901b1681526001600160a01b03909216600483015260248201526044016020604051808303816000875af11580156127f5573d6000803e3d6000fd5b505050506040513d601f19601f82011682018060405250810190612819919061362c565b505b5050808061282890613f43565b915050612687565b507fdfdf42ff0d0eb3e6ec5b40d8cf21fb2f7102b67e5e2d56ab36e817f807213c5b8383604051611122929190613687565b61286a612cd4565b60008260405161287a9190613764565b9081526020016040518091039020604051806101800160405290816000820180546128a4906137c7565b80601f01602080910402602001604051908101604052809291908181526020018280546128d0906137c7565b801561291d5780601f106128f25761010080835404028352916020019161291d565b820191906000526020600020905b81548152906001019060200180831161290057829003601f168201915b50505050508152602001600182018054612936906137c7565b80601f0160208091040260200160405190810160405280929190818152602001828054612962906137c7565b80156129af5780601f10612984576101008083540402835291602001916129af565b820191906000526020600020905b81548152906001019060200180831161299257829003601f168201915b505050918352505060028201546001600160a01b03908116602083015260038301546040830152600483015460608301526005808401546080840152600684015460a0840152600784015460c0840152600884015460e0840152600984015491821661010084015260ff600160a01b8304811661012085015261014090930192600160a81b90920490911690811115612a4a57612a4a6130bc565b6005811115612a5b57612a5b6130bc565b90525092915050565b6060600d805480602002602001604051908101604052809291908181526020016000905b828210156113dc57838290600052602060002090600b020160405180610160016040529081600082018054612abc906137c7565b80601f0160208091040260200160405190810160405280929190818152602001828054612ae8906137c7565b8015612b355780601f10612b0a57610100808354040283529160200191612b35565b820191906000526020600020905b815481529060010190602001808311612b1857829003601f168201915b50505050508152602001600182018054612b4e906137c7565b80601f0160208091040260200160405190810160405280929190818152602001828054612b7a906137c7565b8015612bc75780601f10612b9c57610100808354040283529160200191612bc7565b820191906000526020600020905b815481529060010190602001808311612baa57829003601f168201915b50505050508152602001600282018054612be0906137c7565b80601f0160208091040260200160405190810160405280929190818152602001828054612c0c906137c7565b8015612c595780601f10612c2e57610100808354040283529160200191612c59565b820191906000526020600020905b815481529060010190602001808311612c3c57829003601f168201915b505050918352505060038201546001600160a01b0316602080830191909152600483015460408301526005830154606083015260068301546080830152600783015460ff1660a0830152600883015460c0830152600983015460e0830152600a90920154610100909101529082526001929092019101612a88565b604051806101800160405280606081526020016060815260200160006001600160a01b0316815260200160008152602001600081526020016000815260200160008152602001600081526020016000815260200160006001600160a01b03168152602001600060ff16815260200160006005811115612d5557612d556130bc565b905290565b6001600160a01b0381168114612d6f57600080fd5b50565b8035612d7d81612d5a565b919050565b634e487b7160e01b600052604160045260246000fd5b600082601f830112612da957600080fd5b813567ffffffffffffffff80821115612dc457612dc4612d82565b604051601f8301601f19908116603f01168101908282118183101715612dec57612dec612d82565b81604052838152866020858801011115612e0557600080fd5b836020870160208301376000602085830101528094505050505092915050565b60008060408385031215612e3857600080fd5b8235612e4381612d5a565b9150602083013567ffffffffffffffff811115612e5f57600080fd5b612e6b85828601612d98565b9150509250929050565b60008083601f840112612e8757600080fd5b50813567ffffffffffffffff811115612e9f57600080fd5b602083019150836020828501011115612eb757600080fd5b9250929050565b600080600060408486031215612ed357600080fd5b833567ffffffffffffffff811115612eea57600080fd5b612ef686828701612e75565b909790965060209590950135949350505050565b60008060408385031215612f1d57600080fd5b823567ffffffffffffffff811115612f3457600080fd5b612f4085828601612d98565b9250506020830135612f5181612d5a565b809150509250929050565b600080600060408486031215612f7157600080fd5b833567ffffffffffffffff80821115612f8957600080fd5b612f9587838801612e75565b90955093506020860135915080821115612fae57600080fd5b5084016101808187031215612fc257600080fd5b809150509250925092565b600060208284031215612fdf57600080fd5b813567ffffffffffffffff811115612ff657600080fd5b61300284828501612d98565b949350505050565b60005b8381101561302557818101518382015260200161300d565b50506000910152565b6000815180845261304681602086016020860161300a565b601f01601f19169290920160200192915050565b6000602080830181845280855180835260408601915060408160051b870101925083870160005b828110156130af57603f1988860301845261309d85835161302e565b94509285019290850190600101613081565b5092979650505050505050565b634e487b7160e01b600052602160045260246000fd5b600681106130f057634e487b7160e01b600052602160045260246000fd5b9052565b6000610180825181855261310a8286018261302e565b91505060208301518482036020860152613124828261302e565b915050604083015161314160408601826001600160a01b03169052565b50606083015160608501526080830151608085015260a083015160a085015260c083015160c085015260e083015160e08501526101008084015181860152506101208084015161319b828701826001600160a01b03169052565b50506101408381015160ff1690850152610160808401516131be828701826130d2565b5090949350505050565b6000602080830181845280855180835260408601915060408160051b870101925083870160005b828110156130af57603f1988860301845261320b8583516130f4565b945092850192908501906001016131ef565b60006020828403121561322f57600080fd5b813561323a81612d5a565b9392505050565b6000806020838503121561325457600080fd5b823567ffffffffffffffff81111561326b57600080fd5b61327785828601612e75565b90969095509350505050565b6000806040838503121561329657600080fd5b823567ffffffffffffffff8111156132ad57600080fd5b6132b985828601612d98565b95602094909401359450505050565b600080604083850312156132db57600080fd5b82356132e681612d5a565b946020939093013593505050565b6101808152600061330961018083018f61302e565b828103602084015261331b818f61302e565b9150506001600160a01b03808d1660408401528b60608401528a60808401528960a08401528860c08401528760e0840152866101008401528086166101208401525060ff84166101408301526133756101608301846130d2565b9d9c50505050505050505050505050565b6000806000806060858703121561339c57600080fd5b843567ffffffffffffffff808211156133b457600080fd5b6133c088838901612e75565b909650945060208701359150808211156133d957600080fd5b50850161016081880312156133ed57600080fd5b915060408501356133fd81612d5a565b939692955090935050565b6000806040838503121561341b57600080fd5b823591506020830135612f5181612d5a565b602080825282518282018190526000919060409081850190868401855b8281101561347857815180516001600160a01b0316855286015186850152928401929085019060010161344a565b5091979650505050505050565b60008060006040848603121561349a57600080fd5b833567ffffffffffffffff8111156134b157600080fd5b6134bd86828701612e75565b9094509250506020840135612fc281612d5a565b60208152600061323a60208301846130f4565b60006020808301818452808551808352604092508286019150828160051b87010184880160005b838110156135de57603f19898403018552815161016081518186526135328287018261302e565b915050888201518582038a87015261354a828261302e565b9150508782015185820389870152613562828261302e565b91505060608083015161357f828801826001600160a01b03169052565b50506080828101519086015260a0808301519086015260c0808301519086015260e08083015160ff169086015261010080830151908601526101208083015190860152610140918201519190940152938601939086019060010161350b565b509098975050505050505050565b60008060006060848603121561360157600080fd5b833561360c81612d5a565b9250602084013561361c81612d5a565b91506040840135612fc281612d5a565b60006020828403121561363e57600080fd5b8151801515811461323a57600080fd5b8183823760009101908152919050565b81835281816020850137506000828201602090810191909152601f909101601f19169091010190565b60208152600061300260208301848661365e565b634e487b7160e01b600052601160045260246000fd5b8082028115828204841417611efa57611efa61369b565b6000826136e557634e487b7160e01b600052601260045260246000fd5b500690565b80820180821115611efa57611efa61369b565b634e487b7160e01b600052603260045260246000fd5b60408152600061372760408301858761365e565b9050826020830152949350505050565b60408152600061374b60408301858761365e565b90506001600160a01b0383166020830152949350505050565b6000825161377681846020870161300a565b9190910192915050565b6000808335601e1984360301811261379757600080fd5b83018035915067ffffffffffffffff8211156137b257600080fd5b602001915036819003821315612eb757600080fd5b600181811c908216806137db57607f821691505b6020821081036137fb57634e487b7160e01b600052602260045260246000fd5b50919050565b601f82111561384757600081815260208120601f850160051c810160208610156138285750805b601f850160051c820191505b818110156121f657828155600101613834565b505050565b67ffffffffffffffff83111561386457613864612d82565b6138788361387283546137c7565b83613801565b6000601f8411600181146138ac57600085156138945750838201355b600019600387901b1c1916600186901b178355611305565b600083815260209020601f19861690835b828110156138dd57868501358255602094850194600190920191016138bd565b50868210156138fa5760001960f88860031b161c19848701351681555b505060018560011b0183555050505050565b60008135611efa81612d5a565b60ff81168114612d6f57600080fd5b60008135611efa81613919565b60068110612d6f57600080fd5b60008135611efa81613935565b6006821061396d57634e487b7160e01b600052602160045260246000fd5b805475ff0000000000000000000000000000000000000000008360a81b1660ff60a81b198216178255505050565b6139a58283613780565b6139b081838561384c565b50506139bf6020830183613780565b6139cd81836001860161384c565b50506139ff6139de6040840161390c565b600283016001600160a01b0382166001600160a01b03198254161781555050565b606082013560038201556080820135600482015560a0820135600582015560c0820135600682015560e08201356007820155610100820135600882015560098101613a6d613a50610120850161390c565b82546001600160a01b0319166001600160a01b0391909116178255565b613ac3613a7d6101408501613928565b82547fffffffffffffffffffffff00ffffffffffffffffffffffffffffffffffffffff1660a09190911b74ff000000000000000000000000000000000000000016178255565b613847613ad36101608501613942565b8261394f565b818103613ae4575050565b613aee82546137c7565b67ffffffffffffffff811115613b0657613b06612d82565b613b1a81613b1484546137c7565b84613801565b6000601f821160018114613b4e5760008315613b365750848201545b600019600385901b1c1916600184901b178455611305565b600085815260209020601f19841690600086815260209020845b83811015613b885782860154825560019586019590910190602001613b68565b5085831015613ba65781850154600019600388901b60f8161c191681555b5050505050600190811b01905550565b6000808335601e19843603018112613bcd57600080fd5b830160208101925035905067ffffffffffffffff811115613bed57600080fd5b803603821315612eb757600080fd5b8035612d7d81613919565b8035612d7d81613935565b604081526000613c2660408301858761365e565b8281036020840152610180613c3b8586613bb6565b828452613c4b838501828461365e565b92505050613c5c6020860186613bb6565b8383036020850152613c6f83828461365e565b92505050613c7f60408601612d72565b6001600160a01b038116604084015250606085013560608301526080850135608083015260a085013560a083015260c085013560c083015260e085013560e0830152610100808601358184015250610120613cdb818701612d72565b6001600160a01b031690830152610140613cf6868201613bfc565b60ff1690830152610160613d0b868201613c07565b613d17828501826130d2565b5090979650505050505050565b606081526000613d37606083018661302e565b6001600160a01b0394851660208401529290931660409091015292915050565b602081526000613d678384613bb6565b610160806020860152613d7f6101808601838561365e565b9250613d8e6020870187613bb6565b9250601f1980878603016040880152613da885858461365e565b9450613db76040890189613bb6565b945091508087860301606088015250613dd184848361365e565b935050613de060608701612d72565b6001600160a01b03811660808701529150608086013560a086015260a086013560c086015260c086013560e0860152613e1b60e08701613bfc565b9150610100613e2e8187018460ff169052565b86013561012086810191909152860135610140808701919091529095013594909301939093525090919050565b613e658283613780565b613e7081838561384c565b5050613e7f6020830183613780565b613e8d81836001860161384c565b5050613e9c6040830183613780565b613eaa81836002860161384c565b5050613edc613ebb6060840161390c565b600383016001600160a01b0382166001600160a01b03198254161781555050565b6080820135600482015560a0820135600582015560c08201356006820155613f1e613f0960e08401613928565b6007830160ff821660ff198254161781555050565b61010082013560088201556101208201356009820155610140820135600a8201555050565b600060018201613f5557613f5561369b565b506001019056fea26469706673582212200ddc7d1a8c23b83a0e2081db9c0808f9a7560ba65f102701827bd16d0112b56b64736f6c63430008130033",
  "linkReferences": {},
  "deployedLinkReferences": {}
}