{
  "_format": "hh-sol-artifact-1",
  "contractName": "ToposBank",
  "sourceName": "contracts/Topos/Bank/ToposBank.sol",
  "abi": [
    {
      "inputs": [
        {
          "internalType": "address",
          "name": "_toposManager",
          "type": "address"
        },
        {
          "internalType": "address",
          "name": "_rolesContract",
          "type": "address"
        },
        {
          "internalType": "address",
          "name": "_identityRegistryContract",
          "type": "address"
        },
        {
          "internalType": "address",
          "name": "_bondCallContract",
          "type": "address"
        },
        {
          "internalType": "address",
          "name": "_irsCallContract",
          "type": "address"
        },
        {
          "internalType": "uint256",
          "name": "_dealFees",
          "type": "uint256"
        }
      ],
      "stateMutability": "nonpayable",
      "type": "constructor"
    },
    {
      "inputs": [
        {
          "internalType": "uint256",
          "name": "amount",
          "type": "uint256"
        }
      ],
      "name": "InvalidAmount",
      "type": "error"
    },
    {
      "inputs": [
        {
          "internalType": "string",
          "name": "dealID",
          "type": "string"
        }
      ],
      "name": "InvalidDealStatus",
      "type": "error"
    },
    {
      "anonymous": false,
      "inputs": [
        {
          "indexed": false,
          "internalType": "string",
          "name": "_dealID",
          "type": "string"
        }
      ],
      "name": "BondIssue",
      "type": "event"
    },
    {
      "anonymous": false,
      "inputs": [
        {
          "indexed": false,
          "internalType": "string",
          "name": "_dealID",
          "type": "string"
        }
      ],
      "name": "BondRedeem",
      "type": "event"
    },
    {
      "anonymous": false,
      "inputs": [
        {
          "indexed": false,
          "internalType": "string",
          "name": "dealID",
          "type": "string"
        }
      ],
      "name": "DealAPproved",
      "type": "event"
    },
    {
      "anonymous": false,
      "inputs": [
        {
          "indexed": false,
          "internalType": "string",
          "name": "dealID",
          "type": "string"
        }
      ],
      "name": "DealARejected",
      "type": "event"
    },
    {
      "anonymous": false,
      "inputs": [
        {
          "indexed": false,
          "internalType": "string",
          "name": "dealID",
          "type": "string"
        },
        {
          "components": [
            {
              "internalType": "string",
              "name": "dealID",
              "type": "string"
            },
            {
              "internalType": "string",
              "name": "prospectusURI",
              "type": "string"
            },
            {
              "internalType": "address",
              "name": "issuerAddress",
              "type": "address"
            },
            {
              "internalType": "uint256",
              "name": "debtAmount",
              "type": "uint256"
            },
            {
              "internalType": "uint256",
              "name": "denomination",
              "type": "uint256"
            },
            {
              "internalType": "uint256",
              "name": "couponRate",
              "type": "uint256"
            },
            {
              "internalType": "uint256",
              "name": "couponFrequency",
              "type": "uint256"
            },
            {
              "internalType": "uint256",
              "name": "maturityDate",
              "type": "uint256"
            },
            {
              "internalType": "uint256",
              "name": "index",
              "type": "uint256"
            },
            {
              "internalType": "address",
              "name": "currency",
              "type": "address"
            },
            {
              "internalType": "uint8",
              "name": "couponType",
              "type": "uint8"
            },
            {
              "internalType": "enum BondData.DealStatus",
              "name": "status",
              "type": "uint8"
            }
          ],
          "indexed": false,
          "internalType": "struct BondData.Deal",
          "name": "deal",
          "type": "tuple"
        }
      ],
      "name": "DealSubmitted",
      "type": "event"
    },
    {
      "anonymous": false,
      "inputs": [
        {
          "indexed": false,
          "internalType": "string",
          "name": "dealID",
          "type": "string"
        },
        {
          "indexed": false,
          "internalType": "address",
          "name": "investor",
          "type": "address"
        }
      ],
      "name": "RegisterForDeal",
      "type": "event"
    },
    {
      "inputs": [
        {
          "internalType": "address",
          "name": "",
          "type": "address"
        },
        {
          "internalType": "string",
          "name": "",
          "type": "string"
        }
      ],
      "name": "amountInvested",
      "outputs": [
        {
          "internalType": "uint256",
          "name": "amount",
          "type": "uint256"
        },
        {
          "internalType": "bool",
          "name": "hasInvested",
          "type": "bool"
        },
        {
          "internalType": "uint256",
          "name": "index",
          "type": "uint256"
        }
      ],
      "stateMutability": "view",
      "type": "function"
    },
    {
      "inputs": [
        {
          "internalType": "string",
          "name": "_dealID",
          "type": "string"
        }
      ],
      "name": "approveDeal",
      "outputs": [],
      "stateMutability": "nonpayable",
      "type": "function"
    },
    {
      "inputs": [],
      "name": "bondCallContract",
      "outputs": [
        {
          "internalType": "address",
          "name": "",
          "type": "address"
        }
      ],
      "stateMutability": "view",
      "type": "function"
    },
    {
      "inputs": [
        {
          "internalType": "string",
          "name": "",
          "type": "string"
        }
      ],
      "name": "dealBondContracts",
      "outputs": [
        {
          "internalType": "address",
          "name": "",
          "type": "address"
        }
      ],
      "stateMutability": "view",
      "type": "function"
    },
    {
      "inputs": [],
      "name": "dealFees",
      "outputs": [
        {
          "internalType": "uint256",
          "name": "",
          "type": "uint256"
        }
      ],
      "stateMutability": "view",
      "type": "function"
    },
    {
      "inputs": [
        {
          "internalType": "string",
          "name": "",
          "type": "string"
        },
        {
          "internalType": "uint256",
          "name": "",
          "type": "uint256"
        }
      ],
      "name": "dealInvestment",
      "outputs": [
        {
          "internalType": "address",
          "name": "investor",
          "type": "address"
        },
        {
          "internalType": "uint256",
          "name": "amount",
          "type": "uint256"
        }
      ],
      "stateMutability": "view",
      "type": "function"
    },
    {
      "inputs": [
        {
          "internalType": "string",
          "name": "",
          "type": "string"
        }
      ],
      "name": "deals",
      "outputs": [
        {
          "internalType": "string",
          "name": "dealID",
          "type": "string"
        },
        {
          "internalType": "string",
          "name": "prospectusURI",
          "type": "string"
        },
        {
          "internalType": "address",
          "name": "issuerAddress",
          "type": "address"
        },
        {
          "internalType": "uint256",
          "name": "debtAmount",
          "type": "uint256"
        },
        {
          "internalType": "uint256",
          "name": "denomination",
          "type": "uint256"
        },
        {
          "internalType": "uint256",
          "name": "couponRate",
          "type": "uint256"
        },
        {
          "internalType": "uint256",
          "name": "couponFrequency",
          "type": "uint256"
        },
        {
          "internalType": "uint256",
          "name": "maturityDate",
          "type": "uint256"
        },
        {
          "internalType": "uint256",
          "name": "index",
          "type": "uint256"
        },
        {
          "internalType": "address",
          "name": "currency",
          "type": "address"
        },
        {
          "internalType": "uint8",
          "name": "couponType",
          "type": "uint8"
        },
        {
          "internalType": "enum BondData.DealStatus",
          "name": "status",
          "type": "uint8"
        }
      ],
      "stateMutability": "view",
      "type": "function"
    },
    {
      "inputs": [
        {
          "internalType": "address",
          "name": "_swapContract",
          "type": "address"
        }
      ],
      "name": "endSwapContract",
      "outputs": [],
      "stateMutability": "nonpayable",
      "type": "function"
    },
    {
      "inputs": [],
      "name": "getBenchmark",
      "outputs": [
        {
          "internalType": "uint256",
          "name": "",
          "type": "uint256"
        }
      ],
      "stateMutability": "view",
      "type": "function"
    },
    {
      "inputs": [],
      "name": "getContracts",
      "outputs": [
        {
          "internalType": "address",
          "name": "manager",
          "type": "address"
        },
        {
          "internalType": "address",
          "name": "roles",
          "type": "address"
        },
        {
          "internalType": "address",
          "name": "identityRegistry",
          "type": "address"
        },
        {
          "internalType": "address",
          "name": "bondCall",
          "type": "address"
        },
        {
          "internalType": "address",
          "name": "issuerFund",
          "type": "address"
        }
      ],
      "stateMutability": "view",
      "type": "function"
    },
    {
      "inputs": [
        {
          "internalType": "string",
          "name": "_dealID",
          "type": "string"
        }
      ],
      "name": "getDeal",
      "outputs": [
        {
          "components": [
            {
              "internalType": "string",
              "name": "dealID",
              "type": "string"
            },
            {
              "internalType": "string",
              "name": "prospectusURI",
              "type": "string"
            },
            {
              "internalType": "address",
              "name": "issuerAddress",
              "type": "address"
            },
            {
              "internalType": "uint256",
              "name": "debtAmount",
              "type": "uint256"
            },
            {
              "internalType": "uint256",
              "name": "denomination",
              "type": "uint256"
            },
            {
              "internalType": "uint256",
              "name": "couponRate",
              "type": "uint256"
            },
            {
              "internalType": "uint256",
              "name": "couponFrequency",
              "type": "uint256"
            },
            {
              "internalType": "uint256",
              "name": "maturityDate",
              "type": "uint256"
            },
            {
              "internalType": "uint256",
              "name": "index",
              "type": "uint256"
            },
            {
              "internalType": "address",
              "name": "currency",
              "type": "address"
            },
            {
              "internalType": "uint8",
              "name": "couponType",
              "type": "uint8"
            },
            {
              "internalType": "enum BondData.DealStatus",
              "name": "status",
              "type": "uint8"
            }
          ],
          "internalType": "struct BondData.Deal",
          "name": "",
          "type": "tuple"
        }
      ],
      "stateMutability": "view",
      "type": "function"
    },
    {
      "inputs": [
        {
          "internalType": "string",
          "name": "_dealID",
          "type": "string"
        }
      ],
      "name": "getDealBondContract",
      "outputs": [
        {
          "internalType": "address",
          "name": "",
          "type": "address"
        }
      ],
      "stateMutability": "view",
      "type": "function"
    },
    {
      "inputs": [],
      "name": "getDealFees",
      "outputs": [
        {
          "internalType": "uint256",
          "name": "",
          "type": "uint256"
        }
      ],
      "stateMutability": "view",
      "type": "function"
    },
    {
      "inputs": [
        {
          "internalType": "string",
          "name": "_dealID",
          "type": "string"
        }
      ],
      "name": "getDealInvestment",
      "outputs": [
        {
          "components": [
            {
              "internalType": "address",
              "name": "investor",
              "type": "address"
            },
            {
              "internalType": "uint256",
              "name": "amount",
              "type": "uint256"
            }
          ],
          "internalType": "struct BondData.DealInvestment[]",
          "name": "",
          "type": "tuple[]"
        }
      ],
      "stateMutability": "view",
      "type": "function"
    },
    {
      "inputs": [],
      "name": "getListOfBonds",
      "outputs": [
        {
          "components": [
            {
              "internalType": "string",
              "name": "isin",
              "type": "string"
            },
            {
              "internalType": "string",
              "name": "name",
              "type": "string"
            },
            {
              "internalType": "string",
              "name": "symbol",
              "type": "string"
            },
            {
              "internalType": "address",
              "name": "currency",
              "type": "address"
            },
            {
              "internalType": "uint256",
              "name": "denomination",
              "type": "uint256"
            },
            {
              "internalType": "uint256",
              "name": "issueVolume",
              "type": "uint256"
            },
            {
              "internalType": "uint256",
              "name": "couponRate",
              "type": "uint256"
            },
            {
              "internalType": "uint8",
              "name": "couponType",
              "type": "uint8"
            },
            {
              "internalType": "uint256",
              "name": "couponFrequency",
              "type": "uint256"
            },
            {
              "internalType": "uint256",
              "name": "issueDate",
              "type": "uint256"
            },
            {
              "internalType": "uint256",
              "name": "maturityDate",
              "type": "uint256"
            }
          ],
          "internalType": "struct BondData.Bond[]",
          "name": "",
          "type": "tuple[]"
        }
      ],
      "stateMutability": "view",
      "type": "function"
    },
    {
      "inputs": [],
      "name": "getListOfBondsDealIDs",
      "outputs": [
        {
          "internalType": "string[]",
          "name": "",
          "type": "string[]"
        }
      ],
      "stateMutability": "view",
      "type": "function"
    },
    {
      "inputs": [],
      "name": "getListOfDeals",
      "outputs": [
        {
          "components": [
            {
              "internalType": "string",
              "name": "dealID",
              "type": "string"
            },
            {
              "internalType": "string",
              "name": "prospectusURI",
              "type": "string"
            },
            {
              "internalType": "address",
              "name": "issuerAddress",
              "type": "address"
            },
            {
              "internalType": "uint256",
              "name": "debtAmount",
              "type": "uint256"
            },
            {
              "internalType": "uint256",
              "name": "denomination",
              "type": "uint256"
            },
            {
              "internalType": "uint256",
              "name": "couponRate",
              "type": "uint256"
            },
            {
              "internalType": "uint256",
              "name": "couponFrequency",
              "type": "uint256"
            },
            {
              "internalType": "uint256",
              "name": "maturityDate",
              "type": "uint256"
            },
            {
              "internalType": "uint256",
              "name": "index",
              "type": "uint256"
            },
            {
              "internalType": "address",
              "name": "currency",
              "type": "address"
            },
            {
              "internalType": "uint8",
              "name": "couponType",
              "type": "uint8"
            },
            {
              "internalType": "enum BondData.DealStatus",
              "name": "status",
              "type": "uint8"
            }
          ],
          "internalType": "struct BondData.Deal[]",
          "name": "",
          "type": "tuple[]"
        }
      ],
      "stateMutability": "view",
      "type": "function"
    },
    {
      "inputs": [
        {
          "internalType": "string",
          "name": "_dealID",
          "type": "string"
        }
      ],
      "name": "getTotalAmounInvested",
      "outputs": [
        {
          "internalType": "uint256",
          "name": "",
          "type": "uint256"
        }
      ],
      "stateMutability": "view",
      "type": "function"
    },
    {
      "inputs": [],
      "name": "identityRegistryContract",
      "outputs": [
        {
          "internalType": "address",
          "name": "",
          "type": "address"
        }
      ],
      "stateMutability": "view",
      "type": "function"
    },
    {
      "inputs": [],
      "name": "irsCallContract",
      "outputs": [
        {
          "internalType": "address",
          "name": "",
          "type": "address"
        }
      ],
      "stateMutability": "view",
      "type": "function"
    },
    {
      "inputs": [
        {
          "internalType": "string",
          "name": "_dealID",
          "type": "string"
        },
        {
          "components": [
            {
              "internalType": "string",
              "name": "isin",
              "type": "string"
            },
            {
              "internalType": "string",
              "name": "name",
              "type": "string"
            },
            {
              "internalType": "string",
              "name": "symbol",
              "type": "string"
            },
            {
              "internalType": "address",
              "name": "currency",
              "type": "address"
            },
            {
              "internalType": "uint256",
              "name": "denomination",
              "type": "uint256"
            },
            {
              "internalType": "uint256",
              "name": "issueVolume",
              "type": "uint256"
            },
            {
              "internalType": "uint256",
              "name": "couponRate",
              "type": "uint256"
            },
            {
              "internalType": "uint8",
              "name": "couponType",
              "type": "uint8"
            },
            {
              "internalType": "uint256",
              "name": "couponFrequency",
              "type": "uint256"
            },
            {
              "internalType": "uint256",
              "name": "issueDate",
              "type": "uint256"
            },
            {
              "internalType": "uint256",
              "name": "maturityDate",
              "type": "uint256"
            }
          ],
          "internalType": "struct BondData.Bond",
          "name": "_bond",
          "type": "tuple"
        },
        {
          "internalType": "address",
          "name": "_bondContract",
          "type": "address"
        }
      ],
      "name": "issue",
      "outputs": [],
      "stateMutability": "nonpayable",
      "type": "function"
    },
    {
      "inputs": [
        {
          "internalType": "address",
          "name": "",
          "type": "address"
        },
        {
          "internalType": "uint256",
          "name": "",
          "type": "uint256"
        }
      ],
      "name": "issuerDeals",
      "outputs": [
        {
          "internalType": "string",
          "name": "dealID",
          "type": "string"
        },
        {
          "internalType": "string",
          "name": "prospectusURI",
          "type": "string"
        },
        {
          "internalType": "address",
          "name": "issuerAddress",
          "type": "address"
        },
        {
          "internalType": "uint256",
          "name": "debtAmount",
          "type": "uint256"
        },
        {
          "internalType": "uint256",
          "name": "denomination",
          "type": "uint256"
        },
        {
          "internalType": "uint256",
          "name": "couponRate",
          "type": "uint256"
        },
        {
          "internalType": "uint256",
          "name": "couponFrequency",
          "type": "uint256"
        },
        {
          "internalType": "uint256",
          "name": "maturityDate",
          "type": "uint256"
        },
        {
          "internalType": "uint256",
          "name": "index",
          "type": "uint256"
        },
        {
          "internalType": "address",
          "name": "currency",
          "type": "address"
        },
        {
          "internalType": "uint8",
          "name": "couponType",
          "type": "uint8"
        },
        {
          "internalType": "enum BondData.DealStatus",
          "name": "status",
          "type": "uint8"
        }
      ],
      "stateMutability": "view",
      "type": "function"
    },
    {
      "inputs": [],
      "name": "issuersFundContract",
      "outputs": [
        {
          "internalType": "address",
          "name": "",
          "type": "address"
        }
      ],
      "stateMutability": "view",
      "type": "function"
    },
    {
      "inputs": [
        {
          "internalType": "string",
          "name": "_dealID",
          "type": "string"
        },
        {
          "internalType": "address",
          "name": "_bondContract",
          "type": "address"
        }
      ],
      "name": "redeem",
      "outputs": [],
      "stateMutability": "nonpayable",
      "type": "function"
    },
    {
      "inputs": [
        {
          "internalType": "string",
          "name": "_dealID",
          "type": "string"
        },
        {
          "internalType": "uint256",
          "name": "_amount",
          "type": "uint256"
        }
      ],
      "name": "registerForDeal",
      "outputs": [],
      "stateMutability": "nonpayable",
      "type": "function"
    },
    {
      "inputs": [
        {
          "internalType": "string",
          "name": "_dealID",
          "type": "string"
        }
      ],
      "name": "rejectDeal",
      "outputs": [],
      "stateMutability": "nonpayable",
      "type": "function"
    },
    {
      "inputs": [],
      "name": "rolesContract",
      "outputs": [
        {
          "internalType": "address",
          "name": "",
          "type": "address"
        }
      ],
      "stateMutability": "view",
      "type": "function"
    },
    {
      "inputs": [
        {
          "internalType": "uint256",
          "name": "_benchmark",
          "type": "uint256"
        }
      ],
      "name": "setBenchmark",
      "outputs": [],
      "stateMutability": "nonpayable",
      "type": "function"
    },
    {
      "inputs": [
        {
          "internalType": "string",
          "name": "_dealID",
          "type": "string"
        },
        {
          "internalType": "address",
          "name": "_bondContractAddress",
          "type": "address"
        }
      ],
      "name": "setBondContractAddress",
      "outputs": [],
      "stateMutability": "nonpayable",
      "type": "function"
    },
    {
      "inputs": [
        {
          "internalType": "uint256",
          "name": "_newBenchmark",
          "type": "uint256"
        },
        {
          "internalType": "address",
          "name": "_swapContract",
          "type": "address"
        }
      ],
      "name": "setIRSBenchmark",
      "outputs": [],
      "stateMutability": "nonpayable",
      "type": "function"
    },
    {
      "inputs": [
        {
          "internalType": "address",
          "name": "_fixedPayerContract",
          "type": "address"
        },
        {
          "internalType": "address",
          "name": "_floatingPayerContract",
          "type": "address"
        },
        {
          "internalType": "address",
          "name": "_irsContractAddress",
          "type": "address"
        }
      ],
      "name": "setIRSContractAddress",
      "outputs": [],
      "stateMutability": "nonpayable",
      "type": "function"
    },
    {
      "inputs": [
        {
          "internalType": "address",
          "name": "_issuerFundContract",
          "type": "address"
        }
      ],
      "name": "setIssuerFundContract",
      "outputs": [],
      "stateMutability": "nonpayable",
      "type": "function"
    },
    {
      "inputs": [
        {
          "internalType": "address",
          "name": "_toposManager",
          "type": "address"
        }
      ],
      "name": "setManager",
      "outputs": [],
      "stateMutability": "nonpayable",
      "type": "function"
    },
    {
      "inputs": [
        {
          "internalType": "string",
          "name": "_dealID",
          "type": "string"
        },
        {
          "components": [
            {
              "internalType": "string",
              "name": "dealID",
              "type": "string"
            },
            {
              "internalType": "string",
              "name": "prospectusURI",
              "type": "string"
            },
            {
              "internalType": "address",
              "name": "issuerAddress",
              "type": "address"
            },
            {
              "internalType": "uint256",
              "name": "debtAmount",
              "type": "uint256"
            },
            {
              "internalType": "uint256",
              "name": "denomination",
              "type": "uint256"
            },
            {
              "internalType": "uint256",
              "name": "couponRate",
              "type": "uint256"
            },
            {
              "internalType": "uint256",
              "name": "couponFrequency",
              "type": "uint256"
            },
            {
              "internalType": "uint256",
              "name": "maturityDate",
              "type": "uint256"
            },
            {
              "internalType": "uint256",
              "name": "index",
              "type": "uint256"
            },
            {
              "internalType": "address",
              "name": "currency",
              "type": "address"
            },
            {
              "internalType": "uint8",
              "name": "couponType",
              "type": "uint8"
            },
            {
              "internalType": "enum BondData.DealStatus",
              "name": "status",
              "type": "uint8"
            }
          ],
          "internalType": "struct BondData.Deal",
          "name": "_deal",
          "type": "tuple"
        }
      ],
      "name": "submitDeal",
      "outputs": [],
      "stateMutability": "nonpayable",
      "type": "function"
    },
    {
      "inputs": [
        {
          "internalType": "address",
          "name": "_swapContract",
          "type": "address"
        }
      ],
      "name": "swapIRS",
      "outputs": [],
      "stateMutability": "nonpayable",
      "type": "function"
    },
    {
      "inputs": [],
      "name": "toposManager",
      "outputs": [
        {
          "internalType": "address",
          "name": "",
          "type": "address"
        }
      ],
      "stateMutability": "view",
      "type": "function"
    },
    {
      "inputs": [
        {
          "internalType": "string",
          "name": "",
          "type": "string"
        }
      ],
      "name": "totalAmountInvestedForDeal",
      "outputs": [
        {
          "internalType": "uint256",
          "name": "",
          "type": "uint256"
        }
      ],
      "stateMutability": "view",
      "type": "function"
    },
    {
      "inputs": [
        {
          "internalType": "string",
          "name": "_dealID",
          "type": "string"
        }
      ],
      "name": "withdrawIssuerFund",
      "outputs": [],
      "stateMutability": "nonpayable",
      "type": "function"
    }
  ],
  "bytecode": "0x60806040523480156200001157600080fd5b50604051620041be380380620041be8339810160408190526200003491620000b8565b600780546001600160a01b03199081166001600160a01b03988916179091556008805482169688169690961790955560098054861694871694909417909355600a8054851692861692909217909155600b80549093169316929092179055600d5562000130565b80516001600160a01b0381168114620000b357600080fd5b919050565b60008060008060008060c08789031215620000d257600080fd5b620000dd876200009b565b9550620000ed602088016200009b565b9450620000fd604088016200009b565b93506200010d606088016200009b565b92506200011d608088016200009b565b915060a087015190509295509295509295565b61407e80620001406000396000f3fe608060405234801561001057600080fd5b50600436106102925760003560e01c806379a9456911610160578063c8d7f62e116100d8578063f3413c4f1161008c578063fe0ab4b311610071578063fe0ab4b314610644578063feb45fa614610678578063ff6689d0146106c357600080fd5b8063f3413c4f1461061c578063fb90e4411461063157600080fd5b8063d0ebdbe7116100bd578063d0ebdbe7146105d6578063d7c4029c146105e9578063e7079180146105fc57600080fd5b8063c8d7f62e146105a3578063ca53b391146105c357600080fd5b80639f0d8d2a1161012f578063af9080f811610114578063af9080f81461053d578063b83c7fba14610546578063c3a2a93a1461055957600080fd5b80639f0d8d2a14610517578063a0a57dac1461052a57600080fd5b806379a94569146104d65780637af4d652146104de5780637bafe3d0146104f15780637f31ed731461050457600080fd5b80633887bdcf1161020e5780635e43522e116101c2578063605936ea116101a7578063605936ea1461049d57806368a2da51146104b0578063754f399a146104c357600080fd5b80635e43522e146104515780635ed7e2c11461046457600080fd5b8063499fa18a116101f3578063499fa18a146103e157806349f5d1d914610413578063507251cb1461043e57600080fd5b80633887bdcf146103bb57806348f92ee8146103ce57600080fd5b806319662d8e11610265578063281ddc8e1161024a578063281ddc8e1461037e5780632f6679101461039357806336f9c4da146103a657600080fd5b806319662d8e146103585780631b59122c1461036b57600080fd5b8063041e9b8914610297578063088674e0146103055780630df8bfda146103305780631882c19514610345575b600080fd5b6102e56102a5366004612ef8565b60056020908152600092835260409092208151808301840180519281529084019290930191909120915280546001820154600290920154909160ff169083565b604080519384529115156020840152908201526060015b60405180910390f35b600954610318906001600160a01b031681565b6040516001600160a01b0390911681526020016102fc565b61034361033e366004612f91565b6106cb565b005b610343610353366004612fdd565b610dab565b61034361036636600461302f565b610def565b6103436103793660046130a0565b6111ae565b61038661138b565b6040516102fc919061312d565b6103186103a13660046130a0565b611464565b6103ae611495565b6040516102fc919061329b565b6103436103c93660046132f0565b6116b7565b6103436103dc366004613314565b611741565b6103f46103ef366004613356565b611901565b604080516001600160a01b0390931683526020830191909152016102fc565b61042661042136600461339b565b611956565b6040516102fc9c9b9a999897969594939291906133c7565b61034361044c366004613459565b611aff565b600a54610318906001600160a01b031681565b61048f6104723660046130a0565b805160208183018101805160048252928201919093012091525481565b6040519081526020016102fc565b61048f6104ab366004613314565b611f53565b6103436104be3660046134db565b611f7f565b6103436104d1366004613314565b611fd3565b600e5461048f565b600b54610318906001600160a01b031681565b6103436104ff3660046132f0565b612187565b600754610318906001600160a01b031681565b6103436105253660046134f4565b61220b565b6104266105383660046130a0565b6122d1565b61048f600d5481565b6103436105543660046132f0565b6122f7565b600754600854600954600a54600c54604080516001600160a01b0396871681529486166020860152928516928401929092528316606083015291909116608082015260a0016102fc565b6105b66105b1366004613314565b612381565b6040516102fc9190613519565b600854610318906001600160a01b031681565b6103436105e43660046132f0565b612417565b6103436105f7366004613571565b6124e7565b61060f61060a3660046130a0565b612935565b6040516102fc91906135bd565b610624612b37565b6040516102fc91906135d0565b600c54610318906001600160a01b031681565b6103186106523660046130a0565b80516020818301810180516001825292820191909301209152546001600160a01b031681565b6103436106863660046136d8565b6001600160a01b03928316600090815260026020908152604080832094861683529390529190912080546001600160a01b03191691909216179055565b600d5461048f565b6009546040517fb9209e330000000000000000000000000000000000000000000000000000000081523360048201819052916001600160a01b03169063b9209e3390602401602060405180830381865afa15801561072d573d6000803e3d6000fd5b505050506040513d601f19601f820116820180604052508101906107519190613718565b6107a25760405162461bcd60e51b815260206004820152601460248201527f4143434f554e545f4e4f545f414150524f56454400000000000000000000000060448201526064015b60405180910390fd5b6002600085856040516107b692919061373a565b9081526040519081900360200190206009015460ff600160a81b9091041660058111156107e5576107e561318f565b14610807578383604051632dc5942160e21b8152600401610799929190613773565b6000848460405161081992919061373a565b9081526020016040518091039020600401546000858560405161083d92919061373a565b9081526020016040518091039020600401548361085a919061379d565b61086491906137b4565b1561089e576040517f3728b83d00000000000000000000000000000000000000000000000000000000815260048101839052602401610799565b81158015906108fb5750600084846040516108ba92919061373a565b908152602001604051809103902060030154600485856040516108de92919061373a565b908152602001604051809103902054836108f891906137d6565b11155b6109475760405162461bcd60e51b815260206004820152600660248201527f616d6f756e7400000000000000000000000000000000000000000000000000006044820152606401610799565b816004858560405161095a92919061373a565b90815260200160405180910390205461097391906137d6565b6004858560405161098592919061373a565b90815260408051602092819003830181209390935533600090815260059092529020906109b5908690869061373a565b9081526040519081900360200190206001015460ff1615610b0a57336000908152600560205260409081902090518391906109f3908790879061373a565b90815260405190819003602001902054610a0d91906137d6565b60038585604051610a1f92919061373a565b90815260408051918290036020908101832033600090815260059092529190209091610a4e908890889061373a565b90815260200160405180910390206002015481548110610a7057610a706137e9565b9060005260206000209060020201600101819055508160056000336001600160a01b03166001600160a01b031681526020019081526020016000208585604051610abb92919061373a565b90815260405190819003602001902054610ad591906137d6565b33600090815260056020526040908190209051610af5908790879061373a565b90815260405190819003602001902055610c0b565b604051806060016040528083815260200160011515815260200160038686604051610b3692919061373a565b90815260408051602092819003830190205490925233600090815260059091528190209051610b68908790879061373a565b9081526040805160209281900383018120845181559284015160018401805460ff1916911515919091179055920151600290910155600390610bad908690869061373a565b90815260408051602092819003830181208183019092523381528281018581528254600180820185556000948552949093209151600290930290910180546001600160a01b0319166001600160a01b03909316929092178255519101555b600c546040517f925b7cb60000000000000000000000000000000000000000000000000000000081526001600160a01b039091169063925b7cb690610c58908790879087906004016137ff565b600060405180830381600087803b158015610c7257600080fd5b505af1158015610c86573d6000803e3d6000fd5b5050505060008484604051610c9c92919061373a565b90815260405190819003602001902060090154600c546001600160a01b03918216916323b872dd91339116610cd986670de0b6b3a764000061379d565b6040517fffffffff0000000000000000000000000000000000000000000000000000000060e086901b1681526001600160a01b03938416600482015292909116602483015260448201526064016020604051808303816000875af1158015610d45573d6000803e3d6000fd5b505050506040513d601f19601f82011682018060405250810190610d699190613718565b507f0bdaf52b4de514796607307fbbcf007ee6d59e81e1be436b67c5a567a2e8d121848433604051610d9d93929190613823565b60405180910390a150505050565b80600183604051610dbc9190613850565b90815260405190819003602001902080546001600160a01b03929092166001600160a01b03199092169190911790555050565b6008546040517f877b9a670000000000000000000000000000000000000000000000000000000081523360048201526001600160a01b039091169063877b9a6790602401602060405180830381865afa158015610e50573d6000803e3d6000fd5b505050506040513d601f19601f82011682018060405250810190610e749190613718565b610ec05760405162461bcd60e51b815260206004820152600a60248201527f6e6f7420697373756572000000000000000000000000000000000000000000006044820152606401610799565b610ed060608201604083016132f0565b6001600160a01b0316336001600160a01b031614610f1a5760405162461bcd60e51b81526020600482015260076024820152666164647265737360c81b6044820152606401610799565b6000808484604051610f2d92919061373a565b9081526040519081900360200190206009015460ff600160a81b909104166005811115610f5c57610f5c61318f565b14610f925760405162461bcd60e51b815260206004820152600660248201526573746174757360d01b6044820152606401610799565b8060008484604051610fa592919061373a565b908152604051908190036020019020610fbe8282613a87565b905050600160008484604051610fd592919061373a565b908152604051908190036020019020600901805460ff60a81b1916600160a81b8360058111156110075761100761318f565b0217905550601054604051600090611022908690869061373a565b90815260200160405180910390206008018190555060106000848460405161104b92919061373a565b908152604051602091819003820190208254600181018455600093845291909220600a909102018061107d8382613bc5565b5060018181019061109090840182613bc5565b5060028281015490820180546001600160a01b039283166001600160a01b0319918216179091556003808501549084015560048085015490840155600580850154818501556006808601549085015560078086015490850155600880860154908501556009808601805491860180549290951693821684178555805474ffffffffffffffffffffffffffffffffffffffffff19909216909317600160a01b9182900460ff908116909202178085559254600160a81b90819004909116939260ff60a81b19169184908111156111675761116761318f565b021790555050507febc5645d06a6c6900ffbabb37c6fc84326bd870990f736254f05abb3287ffd418383836040516111a193929190613cfe565b60405180910390a1505050565b6000816040516111be9190613850565b90815260405190819003602001902060020154336001600160a01b0390911614806111f357506007546001600160a01b031633145b6112295760405162461bcd60e51b81526020600482015260076024820152666164647265737360c81b6044820152606401610799565b60006001600160a01b03166000826040516112449190613850565b908152604051908190036020019020600901546001600160a01b0316036112ad5760405162461bcd60e51b815260206004820152600560248201527f746f6b656e0000000000000000000000000000000000000000000000000000006044820152606401610799565b600c546040516001600160a01b039091169063e04cd97f9083906000906112d5908390613850565b908152604051908190036020018120600201546001600160a01b031690600090611300908790613850565b908152604051908190036020018120600901547fffffffff0000000000000000000000000000000000000000000000000000000060e086901b1682526113569392916001600160a01b0390911690600401613e10565b600060405180830381600087803b15801561137057600080fd5b505af1158015611384573d6000803e3d6000fd5b5050505050565b60606011805480602002602001604051908101604052809291908181526020016000905b8282101561145b5783829060005260206000200180546113ce906138b3565b80601f01602080910402602001604051908101604052809291908181526020018280546113fa906138b3565b80156114475780601f1061141c57610100808354040283529160200191611447565b820191906000526020600020905b81548152906001019060200180831161142a57829003601f168201915b5050505050815260200190600101906113af565b50505050905090565b60006001826040516114769190613850565b908152604051908190036020019020546001600160a01b031692915050565b60606010805480602002602001604051908101604052809291908181526020016000905b8282101561145b57838290600052602060002090600a0201604051806101800160405290816000820180546114ed906138b3565b80601f0160208091040260200160405190810160405280929190818152602001828054611519906138b3565b80156115665780601f1061153b57610100808354040283529160200191611566565b820191906000526020600020905b81548152906001019060200180831161154957829003601f168201915b5050505050815260200160018201805461157f906138b3565b80601f01602080910402602001604051908101604052809291908181526020018280546115ab906138b3565b80156115f85780601f106115cd576101008083540402835291602001916115f8565b820191906000526020600020905b8154815290600101906020018083116115db57829003601f168201915b505050918352505060028201546001600160a01b03908116602083015260038301546040830152600483015460608301526005808401546080840152600684015460a0840152600784015460c0840152600884015460e0840152600984015491821661010084015260ff600160a01b8304811661012085015261014090930192600160a81b909204909116908111156116935761169361318f565b60058111156116a4576116a461318f565b81525050815260200190600101906114b9565b6007546001600160a01b031633146117065760405162461bcd60e51b815260206004820152601260248201527127a7262cafaa27a827a9afa6a0a720a3a2a960711b6044820152606401610799565b806001600160a01b0316638119c0656040518163ffffffff1660e01b8152600401600060405180830381600087803b15801561137057600080fd5b6007546001600160a01b031633146117905760405162461bcd60e51b815260206004820152601260248201527127a7262cafaa27a827a9afa6a0a720a3a2a960711b6044820152606401610799565b6001600083836040516117a492919061373a565b9081526040519081900360200190206009015460ff600160a81b9091041660058111156117d3576117d361318f565b146118095760405162461bcd60e51b815260206004820152600660248201526573746174757360d01b6044820152606401610799565b60026000838360405161181d92919061373a565b908152604051908190036020019020600901805460ff60a81b1916600160a81b83600581111561184f5761184f61318f565b0217905550600260106000848460405161186a92919061373a565b9081526020016040518091039020600801548154811061188c5761188c6137e9565b600091825260209091206009600a9092020101805460ff60a81b1916600160a81b8360058111156118bf576118bf61318f565b02179055507f039501081328ffe3eb02459ad6f6e90b69e23ba1422b574ee84c1f52b2fc031082826040516118f5929190613773565b60405180910390a15050565b8151602081840181018051600382529282019185019190912091905280548290811061192c57600080fd5b6000918252602090912060029091020180546001909101546001600160a01b039091169250905082565b6006602052816000526040600020818154811061197257600080fd5b90600052602060002090600a020160009150915050806000018054611996906138b3565b80601f01602080910402602001604051908101604052809291908181526020018280546119c2906138b3565b8015611a0f5780601f106119e457610100808354040283529160200191611a0f565b820191906000526020600020905b8154815290600101906020018083116119f257829003601f168201915b505050505090806001018054611a24906138b3565b80601f0160208091040260200160405190810160405280929190818152602001828054611a50906138b3565b8015611a9d5780601f10611a7257610100808354040283529160200191611a9d565b820191906000526020600020905b815481529060010190602001808311611a8057829003601f168201915b50505060028401546003850154600486015460058701546006880154600789015460088a01546009909a015498996001600160a01b0396871699959850939650919490939192919081169060ff600160a01b8204811691600160a81b9004168c565b6007546001600160a01b03163314611b4e5760405162461bcd60e51b815260206004820152601260248201527127a7262cafaa27a827a9afa6a0a720a3a2a960711b6044820152606401610799565b600260008585604051611b6292919061373a565b9081526040519081900360200190206009015460ff600160a81b909104166005811115611b9157611b9161318f565b14611bb3578383604051632dc5942160e21b8152600401610799929190613773565b8060018585604051611bc692919061373a565b908152602001604051809103902060006101000a8154816001600160a01b0302191690836001600160a01b03160217905550600460008585604051611c0c92919061373a565b908152604051908190036020019020600901805460ff60a81b1916600160a81b836005811115611c3e57611c3e61318f565b02179055506004601060008686604051611c5992919061373a565b90815260200160405180910390206008015481548110611c7b57611c7b6137e9565b600091825260209091206009600a9092020101805460ff60a81b1916600160a81b836005811115611cae57611cae61318f565b021790555060066000808686604051611cc892919061373a565b9081526040805160209281900383019020600201546001600160a01b0316835290820192909252810160009081209151611d05908790879061373a565b908152604051602091819003820190208254600181018455600093845291909220600a9091020180611d378382613bc5565b50600181810190611d4a90840182613bc5565b5060028281015490820180546001600160a01b039283166001600160a01b0319918216179091556003808501549084015560048085015490840155600580850154818501556006808601549085015560078086015490850155600880860154908501556009808601805491860180549290951693821684178555805474ffffffffffffffffffffffffffffffffffffffffff19909216909317600160a01b9182900460ff908116909202178085559254600160a81b90819004909116939260ff60a81b1916918490811115611e2157611e2161318f565b021790555050601180546001810182556000919091527f31ecc21a745e3968a04e9570e4425bc18fa8019c68028196b546d1669c200c68019050611e66848683613938565b506040517fd76805aa0000000000000000000000000000000000000000000000000000000081526001600160a01b0382169063d76805aa90611eac908590600401613e43565b600060405180830381600087803b158015611ec657600080fd5b505af1158015611eda573d6000803e3d6000fd5b5050600f8054600181018255600091909152849250600b027f8d1108e10bcb7c27dddfc02ed9d693a074039d026cf4ea4240b40f7d581ac802019050611f208282613f47565b50507f44b55c2d9270546faf6ff2f0acac078011883b82782d9b08de2d3af4543c2b188484604051610d9d929190613773565b600060048383604051611f6792919061373a565b90815260200160405180910390205490505b92915050565b6007546001600160a01b03163314611fce5760405162461bcd60e51b815260206004820152601260248201527127a7262cafaa27a827a9afa6a0a720a3a2a960711b6044820152606401610799565b600e55565b6007546001600160a01b031633146120225760405162461bcd60e51b815260206004820152601260248201527127a7262cafaa27a827a9afa6a0a720a3a2a960711b6044820152606401610799565b60016000838360405161203692919061373a565b9081526040519081900360200190206009015460ff600160a81b9091041660058111156120655761206561318f565b1461209b5760405162461bcd60e51b815260206004820152600660248201526573746174757360d01b6044820152606401610799565b6003600083836040516120af92919061373a565b908152604051908190036020019020600901805460ff60a81b1916600160a81b8360058111156120e1576120e161318f565b021790555060036010600084846040516120fc92919061373a565b9081526020016040518091039020600801548154811061211e5761211e6137e9565b600091825260209091206009600a9092020101805460ff60a81b1916600160a81b8360058111156121515761215161318f565b02179055507f735ccdd611541d36c82a3622baab7f58b8a0f5be664555b0d9c95ddde16096d382826040516118f5929190613773565b6007546001600160a01b031633146121d65760405162461bcd60e51b815260206004820152601260248201527127a7262cafaa27a827a9afa6a0a720a3a2a960711b6044820152606401610799565b6001600160a01b0381166121e957600080fd5b600c80546001600160a01b0319166001600160a01b0392909216919091179055565b6007546001600160a01b0316331461225a5760405162461bcd60e51b815260206004820152601260248201527127a7262cafaa27a827a9afa6a0a720a3a2a960711b6044820152606401610799565b6040517f68a2da51000000000000000000000000000000000000000000000000000000008152600481018390526001600160a01b038216906368a2da5190602401600060405180830381600087803b1580156122b557600080fd5b505af11580156122c9573d6000803e3d6000fd5b505050505050565b8051602081830181018051600082529282019190930120915280548190611996906138b3565b6007546001600160a01b031633146123465760405162461bcd60e51b815260206004820152601260248201527127a7262cafaa27a827a9afa6a0a720a3a2a960711b6044820152606401610799565b806001600160a01b031663442447ca6040518163ffffffff1660e01b8152600401600060405180830381600087803b15801561137057600080fd5b60606003838360405161239592919061373a565b9081526020016040518091039020805480602002602001604051908101604052809291908181526020016000905b8282101561240b576000848152602090819020604080518082019091526002850290910180546001600160a01b031682526001908101548284015290835290920191016123c3565b50505050905092915050565b6007546001600160a01b031633146124665760405162461bcd60e51b815260206004820152601260248201527127a7262cafaa27a827a9afa6a0a720a3a2a960711b6044820152606401610799565b600854604080517fcfde18900000000000000000000000000000000000000000000000000000000081526004810191909152600760448201527f4d414e414745520000000000000000000000000000000000000000000000000060648201526001600160a01b0383811660248301529091169063cfde189090608401611356565b6007546001600160a01b031633146125365760405162461bcd60e51b815260206004820152601260248201527127a7262cafaa27a827a9afa6a0a720a3a2a960711b6044820152606401610799565b60046000848460405161254a92919061373a565b9081526040519081900360200190206009015460ff600160a81b9091041660058111156125795761257961318f565b1461259b578282604051632dc5942160e21b8152600401610799929190613773565b6005600084846040516125af92919061373a565b908152604051908190036020019020600901805460ff60a81b1916600160a81b8360058111156125e1576125e161318f565b021790555060056010600085856040516125fc92919061373a565b9081526020016040518091039020600801548154811061261e5761261e6137e9565b600091825260209091206009600a9092020101805460ff60a81b1916600160a81b8360058111156126515761265161318f565b021790555060056006600080868660405161266d92919061373a565b9081526040805160209281900383019020600201546001600160a01b03168352908201929092528101600090812091516126aa908790879061373a565b908152602001604051809103902060080154815481106126cc576126cc6137e9565b600091825260209091206009600a9092020101805460ff60a81b1916600160a81b8360058111156126ff576126ff61318f565b0217905550806001600160a01b031663be040fb06040518163ffffffff1660e01b8152600401600060405180830381600087803b15801561273f57600080fd5b505af1158015612753573d6000803e3d6000fd5b5050505060005b6003848460405161276c92919061373a565b908152604051908190036020019020548110156129035760006003858560405161279792919061373a565b908152602001604051809103902082815481106127b6576127b66137e9565b90600052602060002090600202016001015490506000600386866040516127de92919061373a565b908152602001604051809103902083815481106127fd576127fd6137e9565b60009182526020909120600290910201546001600160a01b0316905081156128ee576000868660405161283192919061373a565b908152604051908190036020019020600901546001600160a01b031663a9059cbb8261286585670de0b6b3a764000061379d565b6040517fffffffff0000000000000000000000000000000000000000000000000000000060e085901b1681526001600160a01b03909216600483015260248201526044016020604051808303816000875af11580156128c8573d6000803e3d6000fd5b505050506040513d601f19601f820116820180604052508101906128ec9190613718565b505b505080806128fb9061402f565b91505061275a565b507fdfdf42ff0d0eb3e6ec5b40d8cf21fb2f7102b67e5e2d56ab36e817f807213c5b83836040516111a1929190613773565b61293d612da7565b60008260405161294d9190613850565b908152602001604051809103902060405180610180016040529081600082018054612977906138b3565b80601f01602080910402602001604051908101604052809291908181526020018280546129a3906138b3565b80156129f05780601f106129c5576101008083540402835291602001916129f0565b820191906000526020600020905b8154815290600101906020018083116129d357829003601f168201915b50505050508152602001600182018054612a09906138b3565b80601f0160208091040260200160405190810160405280929190818152602001828054612a35906138b3565b8015612a825780601f10612a5757610100808354040283529160200191612a82565b820191906000526020600020905b815481529060010190602001808311612a6557829003601f168201915b505050918352505060028201546001600160a01b03908116602083015260038301546040830152600483015460608301526005808401546080840152600684015460a0840152600784015460c0840152600884015460e0840152600984015491821661010084015260ff600160a01b8304811661012085015261014090930192600160a81b90920490911690811115612b1d57612b1d61318f565b6005811115612b2e57612b2e61318f565b90525092915050565b6060600f805480602002602001604051908101604052809291908181526020016000905b8282101561145b57838290600052602060002090600b020160405180610160016040529081600082018054612b8f906138b3565b80601f0160208091040260200160405190810160405280929190818152602001828054612bbb906138b3565b8015612c085780601f10612bdd57610100808354040283529160200191612c08565b820191906000526020600020905b815481529060010190602001808311612beb57829003601f168201915b50505050508152602001600182018054612c21906138b3565b80601f0160208091040260200160405190810160405280929190818152602001828054612c4d906138b3565b8015612c9a5780601f10612c6f57610100808354040283529160200191612c9a565b820191906000526020600020905b815481529060010190602001808311612c7d57829003601f168201915b50505050508152602001600282018054612cb3906138b3565b80601f0160208091040260200160405190810160405280929190818152602001828054612cdf906138b3565b8015612d2c5780601f10612d0157610100808354040283529160200191612d2c565b820191906000526020600020905b815481529060010190602001808311612d0f57829003601f168201915b505050918352505060038201546001600160a01b0316602080830191909152600483015460408301526005830154606083015260068301546080830152600783015460ff1660a0830152600883015460c0830152600983015460e0830152600a90920154610100909101529082526001929092019101612b5b565b604051806101800160405280606081526020016060815260200160006001600160a01b0316815260200160008152602001600081526020016000815260200160008152602001600081526020016000815260200160006001600160a01b03168152602001600060ff16815260200160006005811115612e2857612e2861318f565b905290565b6001600160a01b0381168114612e4257600080fd5b50565b8035612e5081612e2d565b919050565b634e487b7160e01b600052604160045260246000fd5b600082601f830112612e7c57600080fd5b813567ffffffffffffffff80821115612e9757612e97612e55565b604051601f8301601f19908116603f01168101908282118183101715612ebf57612ebf612e55565b81604052838152866020858801011115612ed857600080fd5b836020870160208301376000602085830101528094505050505092915050565b60008060408385031215612f0b57600080fd5b8235612f1681612e2d565b9150602083013567ffffffffffffffff811115612f3257600080fd5b612f3e85828601612e6b565b9150509250929050565b60008083601f840112612f5a57600080fd5b50813567ffffffffffffffff811115612f7257600080fd5b602083019150836020828501011115612f8a57600080fd5b9250929050565b600080600060408486031215612fa657600080fd5b833567ffffffffffffffff811115612fbd57600080fd5b612fc986828701612f48565b909790965060209590950135949350505050565b60008060408385031215612ff057600080fd5b823567ffffffffffffffff81111561300757600080fd5b61301385828601612e6b565b925050602083013561302481612e2d565b809150509250929050565b60008060006040848603121561304457600080fd5b833567ffffffffffffffff8082111561305c57600080fd5b61306887838801612f48565b9095509350602086013591508082111561308157600080fd5b508401610180818703121561309557600080fd5b809150509250925092565b6000602082840312156130b257600080fd5b813567ffffffffffffffff8111156130c957600080fd5b6130d584828501612e6b565b949350505050565b60005b838110156130f85781810151838201526020016130e0565b50506000910152565b600081518084526131198160208601602086016130dd565b601f01601f19169290920160200192915050565b6000602080830181845280855180835260408601915060408160051b870101925083870160005b8281101561318257603f19888603018452613170858351613101565b94509285019290850190600101613154565b5092979650505050505050565b634e487b7160e01b600052602160045260246000fd5b600681106131c357634e487b7160e01b600052602160045260246000fd5b9052565b600061018082518185526131dd82860182613101565b915050602083015184820360208601526131f78282613101565b915050604083015161321460408601826001600160a01b03169052565b50606083015160608501526080830151608085015260a083015160a085015260c083015160c085015260e083015160e08501526101008084015181860152506101208084015161326e828701826001600160a01b03169052565b50506101408381015160ff169085015261016080840151613291828701826131a5565b5090949350505050565b6000602080830181845280855180835260408601915060408160051b870101925083870160005b8281101561318257603f198886030184526132de8583516131c7565b945092850192908501906001016132c2565b60006020828403121561330257600080fd5b813561330d81612e2d565b9392505050565b6000806020838503121561332757600080fd5b823567ffffffffffffffff81111561333e57600080fd5b61334a85828601612f48565b90969095509350505050565b6000806040838503121561336957600080fd5b823567ffffffffffffffff81111561338057600080fd5b61338c85828601612e6b565b95602094909401359450505050565b600080604083850312156133ae57600080fd5b82356133b981612e2d565b946020939093013593505050565b610180815260006133dc61018083018f613101565b82810360208401526133ee818f613101565b9150506001600160a01b03808d1660408401528b60608401528a60808401528960a08401528860c08401528760e0840152866101008401528086166101208401525060ff84166101408301526134486101608301846131a5565b9d9c50505050505050505050505050565b6000806000806060858703121561346f57600080fd5b843567ffffffffffffffff8082111561348757600080fd5b61349388838901612f48565b909650945060208701359150808211156134ac57600080fd5b50850161016081880312156134c057600080fd5b915060408501356134d081612e2d565b939692955090935050565b6000602082840312156134ed57600080fd5b5035919050565b6000806040838503121561350757600080fd5b82359150602083013561302481612e2d565b602080825282518282018190526000919060409081850190868401855b8281101561356457815180516001600160a01b03168552860151868501529284019290850190600101613536565b5091979650505050505050565b60008060006040848603121561358657600080fd5b833567ffffffffffffffff81111561359d57600080fd5b6135a986828701612f48565b909450925050602084013561309581612e2d565b60208152600061330d60208301846131c7565b60006020808301818452808551808352604092508286019150828160051b87010184880160005b838110156136ca57603f198984030185528151610160815181865261361e82870182613101565b915050888201518582038a8701526136368282613101565b915050878201518582038987015261364e8282613101565b91505060608083015161366b828801826001600160a01b03169052565b50506080828101519086015260a0808301519086015260c0808301519086015260e08083015160ff16908601526101008083015190860152610120808301519086015261014091820151919094015293860193908601906001016135f7565b509098975050505050505050565b6000806000606084860312156136ed57600080fd5b83356136f881612e2d565b9250602084013561370881612e2d565b9150604084013561309581612e2d565b60006020828403121561372a57600080fd5b8151801515811461330d57600080fd5b8183823760009101908152919050565b81835281816020850137506000828201602090810191909152601f909101601f19169091010190565b6020815260006130d560208301848661374a565b634e487b7160e01b600052601160045260246000fd5b8082028115828204841417611f7957611f79613787565b6000826137d157634e487b7160e01b600052601260045260246000fd5b500690565b80820180821115611f7957611f79613787565b634e487b7160e01b600052603260045260246000fd5b60408152600061381360408301858761374a565b9050826020830152949350505050565b60408152600061383760408301858761374a565b90506001600160a01b0383166020830152949350505050565b600082516138628184602087016130dd565b9190910192915050565b6000808335601e1984360301811261388357600080fd5b83018035915067ffffffffffffffff82111561389e57600080fd5b602001915036819003821315612f8a57600080fd5b600181811c908216806138c757607f821691505b6020821081036138e757634e487b7160e01b600052602260045260246000fd5b50919050565b601f82111561393357600081815260208120601f850160051c810160208610156139145750805b601f850160051c820191505b818110156122c957828155600101613920565b505050565b67ffffffffffffffff83111561395057613950612e55565b6139648361395e83546138b3565b836138ed565b6000601f84116001811461399857600085156139805750838201355b600019600387901b1c1916600186901b178355611384565b600083815260209020601f19861690835b828110156139c957868501358255602094850194600190920191016139a9565b50868210156139e65760001960f88860031b161c19848701351681555b505060018560011b0183555050505050565b60008135611f7981612e2d565b60ff81168114612e4257600080fd5b60008135611f7981613a05565b60068110612e4257600080fd5b60008135611f7981613a21565b60068210613a5957634e487b7160e01b600052602160045260246000fd5b805475ff0000000000000000000000000000000000000000008360a81b1660ff60a81b198216178255505050565b613a91828361386c565b613a9c818385613938565b5050613aab602083018361386c565b613ab9818360018601613938565b5050613aeb613aca604084016139f8565b600283016001600160a01b0382166001600160a01b03198254161781555050565b606082013560038201556080820135600482015560a0820135600582015560c0820135600682015560e08201356007820155610100820135600882015560098101613b59613b3c61012085016139f8565b82546001600160a01b0319166001600160a01b0391909116178255565b613baf613b696101408501613a14565b82547fffffffffffffffffffffff00ffffffffffffffffffffffffffffffffffffffff1660a09190911b74ff000000000000000000000000000000000000000016178255565b613933613bbf6101608501613a2e565b82613a3b565b818103613bd0575050565b613bda82546138b3565b67ffffffffffffffff811115613bf257613bf2612e55565b613c0681613c0084546138b3565b846138ed565b6000601f821160018114613c3a5760008315613c225750848201545b600019600385901b1c1916600184901b178455611384565b600085815260209020601f19841690600086815260209020845b83811015613c745782860154825560019586019590910190602001613c54565b5085831015613c925781850154600019600388901b60f8161c191681555b5050505050600190811b01905550565b6000808335601e19843603018112613cb957600080fd5b830160208101925035905067ffffffffffffffff811115613cd957600080fd5b803603821315612f8a57600080fd5b8035612e5081613a05565b8035612e5081613a21565b604081526000613d1260408301858761374a565b8281036020840152610180613d278586613ca2565b828452613d37838501828461374a565b92505050613d486020860186613ca2565b8383036020850152613d5b83828461374a565b92505050613d6b60408601612e45565b6001600160a01b038116604084015250606085013560608301526080850135608083015260a085013560a083015260c085013560c083015260e085013560e0830152610100808601358184015250610120613dc7818701612e45565b6001600160a01b031690830152610140613de2868201613ce8565b60ff1690830152610160613df7868201613cf3565b613e03828501826131a5565b5090979650505050505050565b606081526000613e236060830186613101565b6001600160a01b0394851660208401529290931660409091015292915050565b602081526000613e538384613ca2565b610160806020860152613e6b6101808601838561374a565b9250613e7a6020870187613ca2565b9250601f1980878603016040880152613e9485858461374a565b9450613ea36040890189613ca2565b945091508087860301606088015250613ebd84848361374a565b935050613ecc60608701612e45565b6001600160a01b03811660808701529150608086013560a086015260a086013560c086015260c086013560e0860152613f0760e08701613ce8565b9150610100613f1a8187018460ff169052565b86013561012086810191909152860135610140808701919091529095013594909301939093525090919050565b613f51828361386c565b613f5c818385613938565b5050613f6b602083018361386c565b613f79818360018601613938565b5050613f88604083018361386c565b613f96818360028601613938565b5050613fc8613fa7606084016139f8565b600383016001600160a01b0382166001600160a01b03198254161781555050565b6080820135600482015560a0820135600582015560c0820135600682015561400a613ff560e08401613a14565b6007830160ff821660ff198254161781555050565b61010082013560088201556101208201356009820155610140820135600a8201555050565b60006001820161404157614041613787565b506001019056fea2646970667358221220e6f6d7a5ac6ac477dca7b9e4f157d59475d1da71290292c41cbabf246482178d64736f6c63430008130033",
  "linkReferences": {},
  "deployedLinkReferences": {}
}