{
  "_format": "hh-sol-artifact-1",
  "contractName": "ToposBank",
  "sourceName": "contracts/Topos/Bank/ToposBank.sol",
  "abi": [
    {
      "inputs": [
        {
          "internalType": "address",
          "name": "_toposManager",
          "type": "address"
        },
        {
          "internalType": "address",
          "name": "_rolesContract",
          "type": "address"
        },
        {
          "internalType": "address",
          "name": "_identityRegistryContract",
          "type": "address"
        },
        {
          "internalType": "address",
          "name": "_bondCallContract",
          "type": "address"
        },
        {
          "internalType": "address",
          "name": "_irsCallContract",
          "type": "address"
        },
        {
          "internalType": "uint256",
          "name": "_dealFees",
          "type": "uint256"
        }
      ],
      "stateMutability": "nonpayable",
      "type": "constructor"
    },
    {
      "inputs": [
        {
          "internalType": "uint256",
          "name": "amount",
          "type": "uint256"
        }
      ],
      "name": "InvalidAmount",
      "type": "error"
    },
    {
      "inputs": [
        {
          "internalType": "string",
          "name": "dealID",
          "type": "string"
        }
      ],
      "name": "InvalidDealStatus",
      "type": "error"
    },
    {
      "anonymous": false,
      "inputs": [
        {
          "indexed": false,
          "internalType": "string",
          "name": "_dealID",
          "type": "string"
        }
      ],
      "name": "BondIssue",
      "type": "event"
    },
    {
      "anonymous": false,
      "inputs": [
        {
          "indexed": false,
          "internalType": "string",
          "name": "_dealID",
          "type": "string"
        }
      ],
      "name": "BondRedeem",
      "type": "event"
    },
    {
      "anonymous": false,
      "inputs": [
        {
          "indexed": false,
          "internalType": "string",
          "name": "dealID",
          "type": "string"
        }
      ],
      "name": "DealAPproved",
      "type": "event"
    },
    {
      "anonymous": false,
      "inputs": [
        {
          "indexed": false,
          "internalType": "string",
          "name": "dealID",
          "type": "string"
        }
      ],
      "name": "DealARejected",
      "type": "event"
    },
    {
      "anonymous": false,
      "inputs": [
        {
          "indexed": false,
          "internalType": "string",
          "name": "dealID",
          "type": "string"
        },
        {
          "components": [
            {
              "internalType": "string",
              "name": "dealID",
              "type": "string"
            },
            {
              "internalType": "string",
              "name": "prospectusURI",
              "type": "string"
            },
            {
              "internalType": "address",
              "name": "issuerAddress",
              "type": "address"
            },
            {
              "internalType": "uint256",
              "name": "debtAmount",
              "type": "uint256"
            },
            {
              "internalType": "uint256",
              "name": "denomination",
              "type": "uint256"
            },
            {
              "internalType": "uint256",
              "name": "couponRate",
              "type": "uint256"
            },
            {
              "internalType": "uint256",
              "name": "couponFrequency",
              "type": "uint256"
            },
            {
              "internalType": "uint256",
              "name": "maturityDate",
              "type": "uint256"
            },
            {
              "internalType": "uint256",
              "name": "index",
              "type": "uint256"
            },
            {
              "internalType": "address",
              "name": "currency",
              "type": "address"
            },
            {
              "internalType": "uint8",
              "name": "couponType",
              "type": "uint8"
            },
            {
              "internalType": "enum BondData.DealStatus",
              "name": "status",
              "type": "uint8"
            }
          ],
          "indexed": false,
          "internalType": "struct BondData.Deal",
          "name": "deal",
          "type": "tuple"
        }
      ],
      "name": "DealSubmitted",
      "type": "event"
    },
    {
      "anonymous": false,
      "inputs": [
        {
          "indexed": false,
          "internalType": "string",
          "name": "dealID",
          "type": "string"
        },
        {
          "indexed": false,
          "internalType": "address",
          "name": "investor",
          "type": "address"
        }
      ],
      "name": "RegisterForDeal",
      "type": "event"
    },
    {
      "inputs": [
        {
          "internalType": "address",
          "name": "",
          "type": "address"
        },
        {
          "internalType": "string",
          "name": "",
          "type": "string"
        }
      ],
      "name": "amountInvested",
      "outputs": [
        {
          "internalType": "uint256",
          "name": "amount",
          "type": "uint256"
        },
        {
          "internalType": "bool",
          "name": "hasInvested",
          "type": "bool"
        },
        {
          "internalType": "uint256",
          "name": "index",
          "type": "uint256"
        }
      ],
      "stateMutability": "view",
      "type": "function"
    },
    {
      "inputs": [
        {
          "internalType": "string",
          "name": "_dealID",
          "type": "string"
        }
      ],
      "name": "approveDeal",
      "outputs": [],
      "stateMutability": "nonpayable",
      "type": "function"
    },
    {
      "inputs": [],
      "name": "bondCallContract",
      "outputs": [
        {
          "internalType": "address",
          "name": "",
          "type": "address"
        }
      ],
      "stateMutability": "view",
      "type": "function"
    },
    {
      "inputs": [
        {
          "internalType": "string",
          "name": "",
          "type": "string"
        }
      ],
      "name": "dealBondContracts",
      "outputs": [
        {
          "internalType": "address",
          "name": "",
          "type": "address"
        }
      ],
      "stateMutability": "view",
      "type": "function"
    },
    {
      "inputs": [],
      "name": "dealFees",
      "outputs": [
        {
          "internalType": "uint256",
          "name": "",
          "type": "uint256"
        }
      ],
      "stateMutability": "view",
      "type": "function"
    },
    {
      "inputs": [
        {
          "internalType": "string",
          "name": "",
          "type": "string"
        },
        {
          "internalType": "uint256",
          "name": "",
          "type": "uint256"
        }
      ],
      "name": "dealInvestment",
      "outputs": [
        {
          "internalType": "address",
          "name": "investor",
          "type": "address"
        },
        {
          "internalType": "uint256",
          "name": "amount",
          "type": "uint256"
        }
      ],
      "stateMutability": "view",
      "type": "function"
    },
    {
      "inputs": [
        {
          "internalType": "string",
          "name": "",
          "type": "string"
        }
      ],
      "name": "deals",
      "outputs": [
        {
          "internalType": "string",
          "name": "dealID",
          "type": "string"
        },
        {
          "internalType": "string",
          "name": "prospectusURI",
          "type": "string"
        },
        {
          "internalType": "address",
          "name": "issuerAddress",
          "type": "address"
        },
        {
          "internalType": "uint256",
          "name": "debtAmount",
          "type": "uint256"
        },
        {
          "internalType": "uint256",
          "name": "denomination",
          "type": "uint256"
        },
        {
          "internalType": "uint256",
          "name": "couponRate",
          "type": "uint256"
        },
        {
          "internalType": "uint256",
          "name": "couponFrequency",
          "type": "uint256"
        },
        {
          "internalType": "uint256",
          "name": "maturityDate",
          "type": "uint256"
        },
        {
          "internalType": "uint256",
          "name": "index",
          "type": "uint256"
        },
        {
          "internalType": "address",
          "name": "currency",
          "type": "address"
        },
        {
          "internalType": "uint8",
          "name": "couponType",
          "type": "uint8"
        },
        {
          "internalType": "enum BondData.DealStatus",
          "name": "status",
          "type": "uint8"
        }
      ],
      "stateMutability": "view",
      "type": "function"
    },
    {
      "inputs": [
        {
          "internalType": "address",
          "name": "_swapContract",
          "type": "address"
        }
      ],
      "name": "endSwapContract",
      "outputs": [],
      "stateMutability": "nonpayable",
      "type": "function"
    },
    {
      "inputs": [],
      "name": "getContracts",
      "outputs": [
        {
          "internalType": "address",
          "name": "manager",
          "type": "address"
        },
        {
          "internalType": "address",
          "name": "roles",
          "type": "address"
        },
        {
          "internalType": "address",
          "name": "identityRegistry",
          "type": "address"
        },
        {
          "internalType": "address",
          "name": "bondCall",
          "type": "address"
        },
        {
          "internalType": "address",
          "name": "issuerFund",
          "type": "address"
        }
      ],
      "stateMutability": "view",
      "type": "function"
    },
    {
      "inputs": [
        {
          "internalType": "string",
          "name": "_dealID",
          "type": "string"
        }
      ],
      "name": "getDeal",
      "outputs": [
        {
          "components": [
            {
              "internalType": "string",
              "name": "dealID",
              "type": "string"
            },
            {
              "internalType": "string",
              "name": "prospectusURI",
              "type": "string"
            },
            {
              "internalType": "address",
              "name": "issuerAddress",
              "type": "address"
            },
            {
              "internalType": "uint256",
              "name": "debtAmount",
              "type": "uint256"
            },
            {
              "internalType": "uint256",
              "name": "denomination",
              "type": "uint256"
            },
            {
              "internalType": "uint256",
              "name": "couponRate",
              "type": "uint256"
            },
            {
              "internalType": "uint256",
              "name": "couponFrequency",
              "type": "uint256"
            },
            {
              "internalType": "uint256",
              "name": "maturityDate",
              "type": "uint256"
            },
            {
              "internalType": "uint256",
              "name": "index",
              "type": "uint256"
            },
            {
              "internalType": "address",
              "name": "currency",
              "type": "address"
            },
            {
              "internalType": "uint8",
              "name": "couponType",
              "type": "uint8"
            },
            {
              "internalType": "enum BondData.DealStatus",
              "name": "status",
              "type": "uint8"
            }
          ],
          "internalType": "struct BondData.Deal",
          "name": "",
          "type": "tuple"
        }
      ],
      "stateMutability": "view",
      "type": "function"
    },
    {
      "inputs": [
        {
          "internalType": "string",
          "name": "_dealID",
          "type": "string"
        }
      ],
      "name": "getDealBondContract",
      "outputs": [
        {
          "internalType": "address",
          "name": "",
          "type": "address"
        }
      ],
      "stateMutability": "view",
      "type": "function"
    },
    {
      "inputs": [],
      "name": "getDealFees",
      "outputs": [
        {
          "internalType": "uint256",
          "name": "",
          "type": "uint256"
        }
      ],
      "stateMutability": "view",
      "type": "function"
    },
    {
      "inputs": [
        {
          "internalType": "string",
          "name": "_dealID",
          "type": "string"
        }
      ],
      "name": "getDealInvestment",
      "outputs": [
        {
          "components": [
            {
              "internalType": "address",
              "name": "investor",
              "type": "address"
            },
            {
              "internalType": "uint256",
              "name": "amount",
              "type": "uint256"
            }
          ],
          "internalType": "struct BondData.DealInvestment[]",
          "name": "",
          "type": "tuple[]"
        }
      ],
      "stateMutability": "view",
      "type": "function"
    },
    {
      "inputs": [],
      "name": "getListOfBonds",
      "outputs": [
        {
          "components": [
            {
              "internalType": "string",
              "name": "isin",
              "type": "string"
            },
            {
              "internalType": "string",
              "name": "name",
              "type": "string"
            },
            {
              "internalType": "string",
              "name": "symbol",
              "type": "string"
            },
            {
              "internalType": "address",
              "name": "currency",
              "type": "address"
            },
            {
              "internalType": "uint256",
              "name": "denomination",
              "type": "uint256"
            },
            {
              "internalType": "uint256",
              "name": "issueVolume",
              "type": "uint256"
            },
            {
              "internalType": "uint256",
              "name": "couponRate",
              "type": "uint256"
            },
            {
              "internalType": "uint8",
              "name": "couponType",
              "type": "uint8"
            },
            {
              "internalType": "uint256",
              "name": "couponFrequency",
              "type": "uint256"
            },
            {
              "internalType": "uint256",
              "name": "issueDate",
              "type": "uint256"
            },
            {
              "internalType": "uint256",
              "name": "maturityDate",
              "type": "uint256"
            }
          ],
          "internalType": "struct BondData.Bond[]",
          "name": "",
          "type": "tuple[]"
        }
      ],
      "stateMutability": "view",
      "type": "function"
    },
    {
      "inputs": [],
      "name": "getListOfBondsDealIDs",
      "outputs": [
        {
          "internalType": "string[]",
          "name": "",
          "type": "string[]"
        }
      ],
      "stateMutability": "view",
      "type": "function"
    },
    {
      "inputs": [],
      "name": "getListOfDeals",
      "outputs": [
        {
          "components": [
            {
              "internalType": "string",
              "name": "dealID",
              "type": "string"
            },
            {
              "internalType": "string",
              "name": "prospectusURI",
              "type": "string"
            },
            {
              "internalType": "address",
              "name": "issuerAddress",
              "type": "address"
            },
            {
              "internalType": "uint256",
              "name": "debtAmount",
              "type": "uint256"
            },
            {
              "internalType": "uint256",
              "name": "denomination",
              "type": "uint256"
            },
            {
              "internalType": "uint256",
              "name": "couponRate",
              "type": "uint256"
            },
            {
              "internalType": "uint256",
              "name": "couponFrequency",
              "type": "uint256"
            },
            {
              "internalType": "uint256",
              "name": "maturityDate",
              "type": "uint256"
            },
            {
              "internalType": "uint256",
              "name": "index",
              "type": "uint256"
            },
            {
              "internalType": "address",
              "name": "currency",
              "type": "address"
            },
            {
              "internalType": "uint8",
              "name": "couponType",
              "type": "uint8"
            },
            {
              "internalType": "enum BondData.DealStatus",
              "name": "status",
              "type": "uint8"
            }
          ],
          "internalType": "struct BondData.Deal[]",
          "name": "",
          "type": "tuple[]"
        }
      ],
      "stateMutability": "view",
      "type": "function"
    },
    {
      "inputs": [
        {
          "internalType": "string",
          "name": "_dealID",
          "type": "string"
        }
      ],
      "name": "getTotalAmounInvested",
      "outputs": [
        {
          "internalType": "uint256",
          "name": "",
          "type": "uint256"
        }
      ],
      "stateMutability": "view",
      "type": "function"
    },
    {
      "inputs": [],
      "name": "identityRegistryContract",
      "outputs": [
        {
          "internalType": "address",
          "name": "",
          "type": "address"
        }
      ],
      "stateMutability": "view",
      "type": "function"
    },
    {
      "inputs": [],
      "name": "irsCallContract",
      "outputs": [
        {
          "internalType": "address",
          "name": "",
          "type": "address"
        }
      ],
      "stateMutability": "view",
      "type": "function"
    },
    {
      "inputs": [
        {
          "internalType": "string",
          "name": "_dealID",
          "type": "string"
        },
        {
          "components": [
            {
              "internalType": "string",
              "name": "isin",
              "type": "string"
            },
            {
              "internalType": "string",
              "name": "name",
              "type": "string"
            },
            {
              "internalType": "string",
              "name": "symbol",
              "type": "string"
            },
            {
              "internalType": "address",
              "name": "currency",
              "type": "address"
            },
            {
              "internalType": "uint256",
              "name": "denomination",
              "type": "uint256"
            },
            {
              "internalType": "uint256",
              "name": "issueVolume",
              "type": "uint256"
            },
            {
              "internalType": "uint256",
              "name": "couponRate",
              "type": "uint256"
            },
            {
              "internalType": "uint8",
              "name": "couponType",
              "type": "uint8"
            },
            {
              "internalType": "uint256",
              "name": "couponFrequency",
              "type": "uint256"
            },
            {
              "internalType": "uint256",
              "name": "issueDate",
              "type": "uint256"
            },
            {
              "internalType": "uint256",
              "name": "maturityDate",
              "type": "uint256"
            }
          ],
          "internalType": "struct BondData.Bond",
          "name": "_bond",
          "type": "tuple"
        },
        {
          "internalType": "address",
          "name": "_bondContract",
          "type": "address"
        }
      ],
      "name": "issue",
      "outputs": [],
      "stateMutability": "nonpayable",
      "type": "function"
    },
    {
      "inputs": [
        {
          "internalType": "address",
          "name": "",
          "type": "address"
        },
        {
          "internalType": "uint256",
          "name": "",
          "type": "uint256"
        }
      ],
      "name": "issuerDeals",
      "outputs": [
        {
          "internalType": "string",
          "name": "dealID",
          "type": "string"
        },
        {
          "internalType": "string",
          "name": "prospectusURI",
          "type": "string"
        },
        {
          "internalType": "address",
          "name": "issuerAddress",
          "type": "address"
        },
        {
          "internalType": "uint256",
          "name": "debtAmount",
          "type": "uint256"
        },
        {
          "internalType": "uint256",
          "name": "denomination",
          "type": "uint256"
        },
        {
          "internalType": "uint256",
          "name": "couponRate",
          "type": "uint256"
        },
        {
          "internalType": "uint256",
          "name": "couponFrequency",
          "type": "uint256"
        },
        {
          "internalType": "uint256",
          "name": "maturityDate",
          "type": "uint256"
        },
        {
          "internalType": "uint256",
          "name": "index",
          "type": "uint256"
        },
        {
          "internalType": "address",
          "name": "currency",
          "type": "address"
        },
        {
          "internalType": "uint8",
          "name": "couponType",
          "type": "uint8"
        },
        {
          "internalType": "enum BondData.DealStatus",
          "name": "status",
          "type": "uint8"
        }
      ],
      "stateMutability": "view",
      "type": "function"
    },
    {
      "inputs": [],
      "name": "issuersFundContract",
      "outputs": [
        {
          "internalType": "address",
          "name": "",
          "type": "address"
        }
      ],
      "stateMutability": "view",
      "type": "function"
    },
    {
      "inputs": [
        {
          "internalType": "string",
          "name": "_dealID",
          "type": "string"
        },
        {
          "internalType": "address",
          "name": "_bondContract",
          "type": "address"
        }
      ],
      "name": "redeem",
      "outputs": [],
      "stateMutability": "nonpayable",
      "type": "function"
    },
    {
      "inputs": [
        {
          "internalType": "string",
          "name": "_dealID",
          "type": "string"
        },
        {
          "internalType": "uint256",
          "name": "_amount",
          "type": "uint256"
        }
      ],
      "name": "registerForDeal",
      "outputs": [],
      "stateMutability": "nonpayable",
      "type": "function"
    },
    {
      "inputs": [
        {
          "internalType": "string",
          "name": "_dealID",
          "type": "string"
        }
      ],
      "name": "rejectDeal",
      "outputs": [],
      "stateMutability": "nonpayable",
      "type": "function"
    },
    {
      "inputs": [],
      "name": "rolesContract",
      "outputs": [
        {
          "internalType": "address",
          "name": "",
          "type": "address"
        }
      ],
      "stateMutability": "view",
      "type": "function"
    },
    {
      "inputs": [
        {
          "internalType": "string",
          "name": "_dealID",
          "type": "string"
        },
        {
          "internalType": "address",
          "name": "_bondContractAddress",
          "type": "address"
        }
      ],
      "name": "setBondContractAddress",
      "outputs": [],
      "stateMutability": "nonpayable",
      "type": "function"
    },
    {
      "inputs": [
        {
          "internalType": "uint256",
          "name": "_newBenchmark",
          "type": "uint256"
        },
        {
          "internalType": "address",
          "name": "_swapContract",
          "type": "address"
        }
      ],
      "name": "setIRSBenchmark",
      "outputs": [],
      "stateMutability": "nonpayable",
      "type": "function"
    },
    {
      "inputs": [
        {
          "internalType": "address",
          "name": "_fixedPayerContract",
          "type": "address"
        },
        {
          "internalType": "address",
          "name": "_floatingPayerContract",
          "type": "address"
        },
        {
          "internalType": "address",
          "name": "_irsContractAddress",
          "type": "address"
        }
      ],
      "name": "setIRSContractAddress",
      "outputs": [],
      "stateMutability": "nonpayable",
      "type": "function"
    },
    {
      "inputs": [
        {
          "internalType": "address",
          "name": "_issuerFundContract",
          "type": "address"
        }
      ],
      "name": "setIssuerFundContract",
      "outputs": [],
      "stateMutability": "nonpayable",
      "type": "function"
    },
    {
      "inputs": [
        {
          "internalType": "address",
          "name": "_toposManager",
          "type": "address"
        }
      ],
      "name": "setManager",
      "outputs": [],
      "stateMutability": "nonpayable",
      "type": "function"
    },
    {
      "inputs": [
        {
          "internalType": "string",
          "name": "_dealID",
          "type": "string"
        },
        {
          "components": [
            {
              "internalType": "string",
              "name": "dealID",
              "type": "string"
            },
            {
              "internalType": "string",
              "name": "prospectusURI",
              "type": "string"
            },
            {
              "internalType": "address",
              "name": "issuerAddress",
              "type": "address"
            },
            {
              "internalType": "uint256",
              "name": "debtAmount",
              "type": "uint256"
            },
            {
              "internalType": "uint256",
              "name": "denomination",
              "type": "uint256"
            },
            {
              "internalType": "uint256",
              "name": "couponRate",
              "type": "uint256"
            },
            {
              "internalType": "uint256",
              "name": "couponFrequency",
              "type": "uint256"
            },
            {
              "internalType": "uint256",
              "name": "maturityDate",
              "type": "uint256"
            },
            {
              "internalType": "uint256",
              "name": "index",
              "type": "uint256"
            },
            {
              "internalType": "address",
              "name": "currency",
              "type": "address"
            },
            {
              "internalType": "uint8",
              "name": "couponType",
              "type": "uint8"
            },
            {
              "internalType": "enum BondData.DealStatus",
              "name": "status",
              "type": "uint8"
            }
          ],
          "internalType": "struct BondData.Deal",
          "name": "_deal",
          "type": "tuple"
        }
      ],
      "name": "submitDeal",
      "outputs": [],
      "stateMutability": "nonpayable",
      "type": "function"
    },
    {
      "inputs": [
        {
          "internalType": "address",
          "name": "_swapContract",
          "type": "address"
        }
      ],
      "name": "swapIRS",
      "outputs": [],
      "stateMutability": "nonpayable",
      "type": "function"
    },
    {
      "inputs": [],
      "name": "toposManager",
      "outputs": [
        {
          "internalType": "address",
          "name": "",
          "type": "address"
        }
      ],
      "stateMutability": "view",
      "type": "function"
    },
    {
      "inputs": [
        {
          "internalType": "string",
          "name": "",
          "type": "string"
        }
      ],
      "name": "totalAmountInvestedForDeal",
      "outputs": [
        {
          "internalType": "uint256",
          "name": "",
          "type": "uint256"
        }
      ],
      "stateMutability": "view",
      "type": "function"
    },
    {
      "inputs": [
        {
          "internalType": "string",
          "name": "_dealID",
          "type": "string"
        }
      ],
      "name": "withdrawIssuerFund",
      "outputs": [],
      "stateMutability": "nonpayable",
      "type": "function"
    }
  ],
  "bytecode": "0x60806040523480156200001157600080fd5b5060405162004100380380620041008339810160408190526200003491620000b8565b600780546001600160a01b03199081166001600160a01b03988916179091556008805482169688169690961790955560098054861694871694909417909355600a8054851692861692909217909155600b80549093169316929092179055600d5562000130565b80516001600160a01b0381168114620000b357600080fd5b919050565b60008060008060008060c08789031215620000d257600080fd5b620000dd876200009b565b9550620000ed602088016200009b565b9450620000fd604088016200009b565b93506200010d606088016200009b565b92506200011d608088016200009b565b915060a087015190509295509295509295565b613fc080620001406000396000f3fe608060405234801561001057600080fd5b506004361061025c5760003560e01c80637af4d65211610145578063ca53b391116100bd578063f3413c4f1161008c578063fe0ab4b311610071578063fe0ab4b3146105f3578063feb45fa614610627578063ff6689d01461067257600080fd5b8063f3413c4f146105cb578063fb90e441146105e057600080fd5b8063ca53b39114610572578063d0ebdbe714610585578063d7c4029c14610598578063e7079180146105ab57600080fd5b8063a0a57dac11610114578063b83c7fba116100f9578063b83c7fba146104f5578063c3a2a93a14610508578063c8d7f62e1461055257600080fd5b8063a0a57dac146104d9578063af9080f8146104ec57600080fd5b80637af4d6521461048d5780637bafe3d0146104a05780637f31ed73146104b35780639f0d8d2a146104c657600080fd5b80633887bdcf116101d8578063507251cb116101a75780635ed7e2c11161018c5780635ed7e2c11461042e578063605936ea14610467578063754f399a1461047a57600080fd5b8063507251cb146104085780635e43522e1461041b57600080fd5b80633887bdcf1461038557806348f92ee814610398578063499fa18a146103ab57806349f5d1d9146103dd57600080fd5b806319662d8e1161022f578063281ddc8e11610214578063281ddc8e146103485780632f6679101461035d57806336f9c4da1461037057600080fd5b806319662d8e146103225780631b59122c1461033557600080fd5b8063041e9b8914610261578063088674e0146102cf5780630df8bfda146102fa5780631882c1951461030f575b600080fd5b6102af61026f366004612e53565b60056020908152600092835260409092208151808301840180519281529084019290930191909120915280546001820154600290920154909160ff169083565b604080519384529115156020840152908201526060015b60405180910390f35b6009546102e2906001600160a01b031681565b6040516001600160a01b0390911681526020016102c6565b61030d610308366004612eec565b61067a565b005b61030d61031d366004612f38565b610d5a565b61030d610330366004612f8a565b610d9e565b61030d610343366004612ffb565b61115d565b61035061133a565b6040516102c69190613088565b6102e261036b366004612ffb565b611413565b610378611444565b6040516102c691906131f6565b61030d61039336600461324b565b611666565b61030d6103a636600461326f565b6116f0565b6103be6103b93660046132b1565b6118b0565b604080516001600160a01b0390931683526020830191909152016102c6565b6103f06103eb3660046132f6565b611905565b6040516102c69c9b9a99989796959493929190613322565b61030d6104163660046133b4565b611aae565b600a546102e2906001600160a01b031681565b61045961043c366004612ffb565b805160208183018101805160048252928201919093012091525481565b6040519081526020016102c6565b61045961047536600461326f565b611f02565b61030d61048836600461326f565b611f2e565b600b546102e2906001600160a01b031681565b61030d6104ae36600461324b565b6120e2565b6007546102e2906001600160a01b031681565b61030d6104d4366004613436565b612166565b6103f06104e7366004612ffb565b61222c565b610459600d5481565b61030d61050336600461324b565b612252565b600754600854600954600a54600c54604080516001600160a01b0396871681529486166020860152928516928401929092528316606083015291909116608082015260a0016102c6565b61056561056036600461326f565b6122dc565b6040516102c6919061345b565b6008546102e2906001600160a01b031681565b61030d61059336600461324b565b612372565b61030d6105a63660046134b3565b612442565b6105be6105b9366004612ffb565b612890565b6040516102c691906134ff565b6105d3612a92565b6040516102c69190613512565b600c546102e2906001600160a01b031681565b6102e2610601366004612ffb565b80516020818301810180516001825292820191909301209152546001600160a01b031681565b61030d61063536600461361a565b6001600160a01b03928316600090815260026020908152604080832094861683529390529190912080546001600160a01b03191691909216179055565b600d54610459565b6009546040517fb9209e330000000000000000000000000000000000000000000000000000000081523360048201819052916001600160a01b03169063b9209e3390602401602060405180830381865afa1580156106dc573d6000803e3d6000fd5b505050506040513d601f19601f82011682018060405250810190610700919061365a565b6107515760405162461bcd60e51b815260206004820152601460248201527f4143434f554e545f4e4f545f414150524f56454400000000000000000000000060448201526064015b60405180910390fd5b60026000858560405161076592919061367c565b9081526040519081900360200190206009015460ff600160a81b909104166005811115610794576107946130ea565b146107b6578383604051632dc5942160e21b81526004016107489291906136b5565b600084846040516107c892919061367c565b908152602001604051809103902060040154600085856040516107ec92919061367c565b9081526020016040518091039020600401548361080991906136df565b61081391906136f6565b1561084d576040517f3728b83d00000000000000000000000000000000000000000000000000000000815260048101839052602401610748565b81158015906108aa57506000848460405161086992919061367c565b9081526020016040518091039020600301546004858560405161088d92919061367c565b908152602001604051809103902054836108a79190613718565b11155b6108f65760405162461bcd60e51b815260206004820152600660248201527f616d6f756e7400000000000000000000000000000000000000000000000000006044820152606401610748565b816004858560405161090992919061367c565b9081526020016040518091039020546109229190613718565b6004858560405161093492919061367c565b9081526040805160209281900383018120939093553360009081526005909252902090610964908690869061367c565b9081526040519081900360200190206001015460ff1615610ab957336000908152600560205260409081902090518391906109a2908790879061367c565b908152604051908190036020019020546109bc9190613718565b600385856040516109ce92919061367c565b908152604080519182900360209081018320336000908152600590925291902090916109fd908890889061367c565b90815260200160405180910390206002015481548110610a1f57610a1f61372b565b9060005260206000209060020201600101819055508160056000336001600160a01b03166001600160a01b031681526020019081526020016000208585604051610a6a92919061367c565b90815260405190819003602001902054610a849190613718565b33600090815260056020526040908190209051610aa4908790879061367c565b90815260405190819003602001902055610bba565b604051806060016040528083815260200160011515815260200160038686604051610ae592919061367c565b90815260408051602092819003830190205490925233600090815260059091528190209051610b17908790879061367c565b9081526040805160209281900383018120845181559284015160018401805460ff1916911515919091179055920151600290910155600390610b5c908690869061367c565b90815260408051602092819003830181208183019092523381528281018581528254600180820185556000948552949093209151600290930290910180546001600160a01b0319166001600160a01b03909316929092178255519101555b600c546040517f925b7cb60000000000000000000000000000000000000000000000000000000081526001600160a01b039091169063925b7cb690610c0790879087908790600401613741565b600060405180830381600087803b158015610c2157600080fd5b505af1158015610c35573d6000803e3d6000fd5b5050505060008484604051610c4b92919061367c565b90815260405190819003602001902060090154600c546001600160a01b03918216916323b872dd91339116610c8886670de0b6b3a76400006136df565b6040517fffffffff0000000000000000000000000000000000000000000000000000000060e086901b1681526001600160a01b03938416600482015292909116602483015260448201526064016020604051808303816000875af1158015610cf4573d6000803e3d6000fd5b505050506040513d601f19601f82011682018060405250810190610d18919061365a565b507f0bdaf52b4de514796607307fbbcf007ee6d59e81e1be436b67c5a567a2e8d121848433604051610d4c93929190613765565b60405180910390a150505050565b80600183604051610d6b9190613792565b90815260405190819003602001902080546001600160a01b03929092166001600160a01b03199092169190911790555050565b6008546040517f877b9a670000000000000000000000000000000000000000000000000000000081523360048201526001600160a01b039091169063877b9a6790602401602060405180830381865afa158015610dff573d6000803e3d6000fd5b505050506040513d601f19601f82011682018060405250810190610e23919061365a565b610e6f5760405162461bcd60e51b815260206004820152600a60248201527f6e6f7420697373756572000000000000000000000000000000000000000000006044820152606401610748565b610e7f606082016040830161324b565b6001600160a01b0316336001600160a01b031614610ec95760405162461bcd60e51b81526020600482015260076024820152666164647265737360c81b6044820152606401610748565b6000808484604051610edc92919061367c565b9081526040519081900360200190206009015460ff600160a81b909104166005811115610f0b57610f0b6130ea565b14610f415760405162461bcd60e51b815260206004820152600660248201526573746174757360d01b6044820152606401610748565b8060008484604051610f5492919061367c565b908152604051908190036020019020610f6d82826139c9565b905050600160008484604051610f8492919061367c565b908152604051908190036020019020600901805460ff60a81b1916600160a81b836005811115610fb657610fb66130ea565b0217905550600f54604051600090610fd1908690869061367c565b908152602001604051809103902060080181905550600f60008484604051610ffa92919061367c565b908152604051602091819003820190208254600181018455600093845291909220600a909102018061102c8382613b07565b5060018181019061103f90840182613b07565b5060028281015490820180546001600160a01b039283166001600160a01b0319918216179091556003808501549084015560048085015490840155600580850154818501556006808601549085015560078086015490850155600880860154908501556009808601805491860180549290951693821684178555805474ffffffffffffffffffffffffffffffffffffffffff19909216909317600160a01b9182900460ff908116909202178085559254600160a81b90819004909116939260ff60a81b1916918490811115611116576111166130ea565b021790555050507febc5645d06a6c6900ffbabb37c6fc84326bd870990f736254f05abb3287ffd4183838360405161115093929190613c40565b60405180910390a1505050565b60008160405161116d9190613792565b90815260405190819003602001902060020154336001600160a01b0390911614806111a257506007546001600160a01b031633145b6111d85760405162461bcd60e51b81526020600482015260076024820152666164647265737360c81b6044820152606401610748565b60006001600160a01b03166000826040516111f39190613792565b908152604051908190036020019020600901546001600160a01b03160361125c5760405162461bcd60e51b815260206004820152600560248201527f746f6b656e0000000000000000000000000000000000000000000000000000006044820152606401610748565b600c546040516001600160a01b039091169063e04cd97f908390600090611284908390613792565b908152604051908190036020018120600201546001600160a01b0316906000906112af908790613792565b908152604051908190036020018120600901547fffffffff0000000000000000000000000000000000000000000000000000000060e086901b1682526113059392916001600160a01b0390911690600401613d52565b600060405180830381600087803b15801561131f57600080fd5b505af1158015611333573d6000803e3d6000fd5b5050505050565b60606010805480602002602001604051908101604052809291908181526020016000905b8282101561140a57838290600052602060002001805461137d906137f5565b80601f01602080910402602001604051908101604052809291908181526020018280546113a9906137f5565b80156113f65780601f106113cb576101008083540402835291602001916113f6565b820191906000526020600020905b8154815290600101906020018083116113d957829003601f168201915b50505050508152602001906001019061135e565b50505050905090565b60006001826040516114259190613792565b908152604051908190036020019020546001600160a01b031692915050565b6060600f805480602002602001604051908101604052809291908181526020016000905b8282101561140a57838290600052602060002090600a02016040518061018001604052908160008201805461149c906137f5565b80601f01602080910402602001604051908101604052809291908181526020018280546114c8906137f5565b80156115155780601f106114ea57610100808354040283529160200191611515565b820191906000526020600020905b8154815290600101906020018083116114f857829003601f168201915b5050505050815260200160018201805461152e906137f5565b80601f016020809104026020016040519081016040528092919081815260200182805461155a906137f5565b80156115a75780601f1061157c576101008083540402835291602001916115a7565b820191906000526020600020905b81548152906001019060200180831161158a57829003601f168201915b505050918352505060028201546001600160a01b03908116602083015260038301546040830152600483015460608301526005808401546080840152600684015460a0840152600784015460c0840152600884015460e0840152600984015491821661010084015260ff600160a01b8304811661012085015261014090930192600160a81b90920490911690811115611642576116426130ea565b6005811115611653576116536130ea565b8152505081526020019060010190611468565b6007546001600160a01b031633146116b55760405162461bcd60e51b815260206004820152601260248201527127a7262cafaa27a827a9afa6a0a720a3a2a960711b6044820152606401610748565b806001600160a01b0316638119c0656040518163ffffffff1660e01b8152600401600060405180830381600087803b15801561131f57600080fd5b6007546001600160a01b0316331461173f5760405162461bcd60e51b815260206004820152601260248201527127a7262cafaa27a827a9afa6a0a720a3a2a960711b6044820152606401610748565b60016000838360405161175392919061367c565b9081526040519081900360200190206009015460ff600160a81b909104166005811115611782576117826130ea565b146117b85760405162461bcd60e51b815260206004820152600660248201526573746174757360d01b6044820152606401610748565b6002600083836040516117cc92919061367c565b908152604051908190036020019020600901805460ff60a81b1916600160a81b8360058111156117fe576117fe6130ea565b02179055506002600f6000848460405161181992919061367c565b9081526020016040518091039020600801548154811061183b5761183b61372b565b600091825260209091206009600a9092020101805460ff60a81b1916600160a81b83600581111561186e5761186e6130ea565b02179055507f039501081328ffe3eb02459ad6f6e90b69e23ba1422b574ee84c1f52b2fc031082826040516118a49291906136b5565b60405180910390a15050565b815160208184018101805160038252928201918501919091209190528054829081106118db57600080fd5b6000918252602090912060029091020180546001909101546001600160a01b039091169250905082565b6006602052816000526040600020818154811061192157600080fd5b90600052602060002090600a020160009150915050806000018054611945906137f5565b80601f0160208091040260200160405190810160405280929190818152602001828054611971906137f5565b80156119be5780601f10611993576101008083540402835291602001916119be565b820191906000526020600020905b8154815290600101906020018083116119a157829003601f168201915b5050505050908060010180546119d3906137f5565b80601f01602080910402602001604051908101604052809291908181526020018280546119ff906137f5565b8015611a4c5780601f10611a2157610100808354040283529160200191611a4c565b820191906000526020600020905b815481529060010190602001808311611a2f57829003601f168201915b50505060028401546003850154600486015460058701546006880154600789015460088a01546009909a015498996001600160a01b0396871699959850939650919490939192919081169060ff600160a01b8204811691600160a81b9004168c565b6007546001600160a01b03163314611afd5760405162461bcd60e51b815260206004820152601260248201527127a7262cafaa27a827a9afa6a0a720a3a2a960711b6044820152606401610748565b600260008585604051611b1192919061367c565b9081526040519081900360200190206009015460ff600160a81b909104166005811115611b4057611b406130ea565b14611b62578383604051632dc5942160e21b81526004016107489291906136b5565b8060018585604051611b7592919061367c565b908152602001604051809103902060006101000a8154816001600160a01b0302191690836001600160a01b03160217905550600460008585604051611bbb92919061367c565b908152604051908190036020019020600901805460ff60a81b1916600160a81b836005811115611bed57611bed6130ea565b02179055506004600f60008686604051611c0892919061367c565b90815260200160405180910390206008015481548110611c2a57611c2a61372b565b600091825260209091206009600a9092020101805460ff60a81b1916600160a81b836005811115611c5d57611c5d6130ea565b021790555060066000808686604051611c7792919061367c565b9081526040805160209281900383019020600201546001600160a01b0316835290820192909252810160009081209151611cb4908790879061367c565b908152604051602091819003820190208254600181018455600093845291909220600a9091020180611ce68382613b07565b50600181810190611cf990840182613b07565b5060028281015490820180546001600160a01b039283166001600160a01b0319918216179091556003808501549084015560048085015490840155600580850154818501556006808601549085015560078086015490850155600880860154908501556009808601805491860180549290951693821684178555805474ffffffffffffffffffffffffffffffffffffffffff19909216909317600160a01b9182900460ff908116909202178085559254600160a81b90819004909116939260ff60a81b1916918490811115611dd057611dd06130ea565b021790555050601080546001810182556000919091527f1b6847dc741a1b0cd08d278845f9d819d87b734759afb55fe2de5cb82a9ae672019050611e1584868361387a565b506040517fd76805aa0000000000000000000000000000000000000000000000000000000081526001600160a01b0382169063d76805aa90611e5b908590600401613d85565b600060405180830381600087803b158015611e7557600080fd5b505af1158015611e89573d6000803e3d6000fd5b5050600e8054600181018255600091909152849250600b027fbb7b4a454dc3493923482f07822329ed19e8244eff582cc204f8554c3620c3fd019050611ecf8282613e89565b50507f44b55c2d9270546faf6ff2f0acac078011883b82782d9b08de2d3af4543c2b188484604051610d4c9291906136b5565b600060048383604051611f1692919061367c565b90815260200160405180910390205490505b92915050565b6007546001600160a01b03163314611f7d5760405162461bcd60e51b815260206004820152601260248201527127a7262cafaa27a827a9afa6a0a720a3a2a960711b6044820152606401610748565b600160008383604051611f9192919061367c565b9081526040519081900360200190206009015460ff600160a81b909104166005811115611fc057611fc06130ea565b14611ff65760405162461bcd60e51b815260206004820152600660248201526573746174757360d01b6044820152606401610748565b60036000838360405161200a92919061367c565b908152604051908190036020019020600901805460ff60a81b1916600160a81b83600581111561203c5761203c6130ea565b02179055506003600f6000848460405161205792919061367c565b908152602001604051809103902060080154815481106120795761207961372b565b600091825260209091206009600a9092020101805460ff60a81b1916600160a81b8360058111156120ac576120ac6130ea565b02179055507f735ccdd611541d36c82a3622baab7f58b8a0f5be664555b0d9c95ddde16096d382826040516118a49291906136b5565b6007546001600160a01b031633146121315760405162461bcd60e51b815260206004820152601260248201527127a7262cafaa27a827a9afa6a0a720a3a2a960711b6044820152606401610748565b6001600160a01b03811661214457600080fd5b600c80546001600160a01b0319166001600160a01b0392909216919091179055565b6007546001600160a01b031633146121b55760405162461bcd60e51b815260206004820152601260248201527127a7262cafaa27a827a9afa6a0a720a3a2a960711b6044820152606401610748565b6040517f68a2da51000000000000000000000000000000000000000000000000000000008152600481018390526001600160a01b038216906368a2da5190602401600060405180830381600087803b15801561221057600080fd5b505af1158015612224573d6000803e3d6000fd5b505050505050565b8051602081830181018051600082529282019190930120915280548190611945906137f5565b6007546001600160a01b031633146122a15760405162461bcd60e51b815260206004820152601260248201527127a7262cafaa27a827a9afa6a0a720a3a2a960711b6044820152606401610748565b806001600160a01b031663442447ca6040518163ffffffff1660e01b8152600401600060405180830381600087803b15801561131f57600080fd5b6060600383836040516122f092919061367c565b9081526020016040518091039020805480602002602001604051908101604052809291908181526020016000905b82821015612366576000848152602090819020604080518082019091526002850290910180546001600160a01b0316825260019081015482840152908352909201910161231e565b50505050905092915050565b6007546001600160a01b031633146123c15760405162461bcd60e51b815260206004820152601260248201527127a7262cafaa27a827a9afa6a0a720a3a2a960711b6044820152606401610748565b600854604080517fcfde18900000000000000000000000000000000000000000000000000000000081526004810191909152600760448201527f4d414e414745520000000000000000000000000000000000000000000000000060648201526001600160a01b0383811660248301529091169063cfde189090608401611305565b6007546001600160a01b031633146124915760405162461bcd60e51b815260206004820152601260248201527127a7262cafaa27a827a9afa6a0a720a3a2a960711b6044820152606401610748565b6004600084846040516124a592919061367c565b9081526040519081900360200190206009015460ff600160a81b9091041660058111156124d4576124d46130ea565b146124f6578282604051632dc5942160e21b81526004016107489291906136b5565b60056000848460405161250a92919061367c565b908152604051908190036020019020600901805460ff60a81b1916600160a81b83600581111561253c5761253c6130ea565b02179055506005600f6000858560405161255792919061367c565b908152602001604051809103902060080154815481106125795761257961372b565b600091825260209091206009600a9092020101805460ff60a81b1916600160a81b8360058111156125ac576125ac6130ea565b02179055506005600660008086866040516125c892919061367c565b9081526040805160209281900383019020600201546001600160a01b0316835290820192909252810160009081209151612605908790879061367c565b908152602001604051809103902060080154815481106126275761262761372b565b600091825260209091206009600a9092020101805460ff60a81b1916600160a81b83600581111561265a5761265a6130ea565b0217905550806001600160a01b031663be040fb06040518163ffffffff1660e01b8152600401600060405180830381600087803b15801561269a57600080fd5b505af11580156126ae573d6000803e3d6000fd5b5050505060005b600384846040516126c792919061367c565b9081526040519081900360200190205481101561285e576000600385856040516126f292919061367c565b908152602001604051809103902082815481106127115761271161372b565b906000526020600020906002020160010154905060006003868660405161273992919061367c565b908152602001604051809103902083815481106127585761275861372b565b60009182526020909120600290910201546001600160a01b031690508115612849576000868660405161278c92919061367c565b908152604051908190036020019020600901546001600160a01b031663a9059cbb826127c085670de0b6b3a76400006136df565b6040517fffffffff0000000000000000000000000000000000000000000000000000000060e085901b1681526001600160a01b03909216600483015260248201526044016020604051808303816000875af1158015612823573d6000803e3d6000fd5b505050506040513d601f19601f82011682018060405250810190612847919061365a565b505b5050808061285690613f71565b9150506126b5565b507fdfdf42ff0d0eb3e6ec5b40d8cf21fb2f7102b67e5e2d56ab36e817f807213c5b83836040516111509291906136b5565b612898612d02565b6000826040516128a89190613792565b9081526020016040518091039020604051806101800160405290816000820180546128d2906137f5565b80601f01602080910402602001604051908101604052809291908181526020018280546128fe906137f5565b801561294b5780601f106129205761010080835404028352916020019161294b565b820191906000526020600020905b81548152906001019060200180831161292e57829003601f168201915b50505050508152602001600182018054612964906137f5565b80601f0160208091040260200160405190810160405280929190818152602001828054612990906137f5565b80156129dd5780601f106129b2576101008083540402835291602001916129dd565b820191906000526020600020905b8154815290600101906020018083116129c057829003601f168201915b505050918352505060028201546001600160a01b03908116602083015260038301546040830152600483015460608301526005808401546080840152600684015460a0840152600784015460c0840152600884015460e0840152600984015491821661010084015260ff600160a01b8304811661012085015261014090930192600160a81b90920490911690811115612a7857612a786130ea565b6005811115612a8957612a896130ea565b90525092915050565b6060600e805480602002602001604051908101604052809291908181526020016000905b8282101561140a57838290600052602060002090600b020160405180610160016040529081600082018054612aea906137f5565b80601f0160208091040260200160405190810160405280929190818152602001828054612b16906137f5565b8015612b635780601f10612b3857610100808354040283529160200191612b63565b820191906000526020600020905b815481529060010190602001808311612b4657829003601f168201915b50505050508152602001600182018054612b7c906137f5565b80601f0160208091040260200160405190810160405280929190818152602001828054612ba8906137f5565b8015612bf55780601f10612bca57610100808354040283529160200191612bf5565b820191906000526020600020905b815481529060010190602001808311612bd857829003601f168201915b50505050508152602001600282018054612c0e906137f5565b80601f0160208091040260200160405190810160405280929190818152602001828054612c3a906137f5565b8015612c875780601f10612c5c57610100808354040283529160200191612c87565b820191906000526020600020905b815481529060010190602001808311612c6a57829003601f168201915b505050918352505060038201546001600160a01b0316602080830191909152600483015460408301526005830154606083015260068301546080830152600783015460ff1660a0830152600883015460c0830152600983015460e0830152600a90920154610100909101529082526001929092019101612ab6565b604051806101800160405280606081526020016060815260200160006001600160a01b0316815260200160008152602001600081526020016000815260200160008152602001600081526020016000815260200160006001600160a01b03168152602001600060ff16815260200160006005811115612d8357612d836130ea565b905290565b6001600160a01b0381168114612d9d57600080fd5b50565b8035612dab81612d88565b919050565b634e487b7160e01b600052604160045260246000fd5b600082601f830112612dd757600080fd5b813567ffffffffffffffff80821115612df257612df2612db0565b604051601f8301601f19908116603f01168101908282118183101715612e1a57612e1a612db0565b81604052838152866020858801011115612e3357600080fd5b836020870160208301376000602085830101528094505050505092915050565b60008060408385031215612e6657600080fd5b8235612e7181612d88565b9150602083013567ffffffffffffffff811115612e8d57600080fd5b612e9985828601612dc6565b9150509250929050565b60008083601f840112612eb557600080fd5b50813567ffffffffffffffff811115612ecd57600080fd5b602083019150836020828501011115612ee557600080fd5b9250929050565b600080600060408486031215612f0157600080fd5b833567ffffffffffffffff811115612f1857600080fd5b612f2486828701612ea3565b909790965060209590950135949350505050565b60008060408385031215612f4b57600080fd5b823567ffffffffffffffff811115612f6257600080fd5b612f6e85828601612dc6565b9250506020830135612f7f81612d88565b809150509250929050565b600080600060408486031215612f9f57600080fd5b833567ffffffffffffffff80821115612fb757600080fd5b612fc387838801612ea3565b90955093506020860135915080821115612fdc57600080fd5b5084016101808187031215612ff057600080fd5b809150509250925092565b60006020828403121561300d57600080fd5b813567ffffffffffffffff81111561302457600080fd5b61303084828501612dc6565b949350505050565b60005b8381101561305357818101518382015260200161303b565b50506000910152565b60008151808452613074816020860160208601613038565b601f01601f19169290920160200192915050565b6000602080830181845280855180835260408601915060408160051b870101925083870160005b828110156130dd57603f198886030184526130cb85835161305c565b945092850192908501906001016130af565b5092979650505050505050565b634e487b7160e01b600052602160045260246000fd5b6006811061311e57634e487b7160e01b600052602160045260246000fd5b9052565b600061018082518185526131388286018261305c565b91505060208301518482036020860152613152828261305c565b915050604083015161316f60408601826001600160a01b03169052565b50606083015160608501526080830151608085015260a083015160a085015260c083015160c085015260e083015160e0850152610100808401518186015250610120808401516131c9828701826001600160a01b03169052565b50506101408381015160ff1690850152610160808401516131ec82870182613100565b5090949350505050565b6000602080830181845280855180835260408601915060408160051b870101925083870160005b828110156130dd57603f19888603018452613239858351613122565b9450928501929085019060010161321d565b60006020828403121561325d57600080fd5b813561326881612d88565b9392505050565b6000806020838503121561328257600080fd5b823567ffffffffffffffff81111561329957600080fd5b6132a585828601612ea3565b90969095509350505050565b600080604083850312156132c457600080fd5b823567ffffffffffffffff8111156132db57600080fd5b6132e785828601612dc6565b95602094909401359450505050565b6000806040838503121561330957600080fd5b823561331481612d88565b946020939093013593505050565b6101808152600061333761018083018f61305c565b8281036020840152613349818f61305c565b9150506001600160a01b03808d1660408401528b60608401528a60808401528960a08401528860c08401528760e0840152866101008401528086166101208401525060ff84166101408301526133a3610160830184613100565b9d9c50505050505050505050505050565b600080600080606085870312156133ca57600080fd5b843567ffffffffffffffff808211156133e257600080fd5b6133ee88838901612ea3565b9096509450602087013591508082111561340757600080fd5b508501610160818803121561341b57600080fd5b9150604085013561342b81612d88565b939692955090935050565b6000806040838503121561344957600080fd5b823591506020830135612f7f81612d88565b602080825282518282018190526000919060409081850190868401855b828110156134a657815180516001600160a01b03168552860151868501529284019290850190600101613478565b5091979650505050505050565b6000806000604084860312156134c857600080fd5b833567ffffffffffffffff8111156134df57600080fd5b6134eb86828701612ea3565b9094509250506020840135612ff081612d88565b6020815260006132686020830184613122565b60006020808301818452808551808352604092508286019150828160051b87010184880160005b8381101561360c57603f19898403018552815161016081518186526135608287018261305c565b915050888201518582038a870152613578828261305c565b9150508782015185820389870152613590828261305c565b9150506060808301516135ad828801826001600160a01b03169052565b50506080828101519086015260a0808301519086015260c0808301519086015260e08083015160ff1690860152610100808301519086015261012080830151908601526101409182015191909401529386019390860190600101613539565b509098975050505050505050565b60008060006060848603121561362f57600080fd5b833561363a81612d88565b9250602084013561364a81612d88565b91506040840135612ff081612d88565b60006020828403121561366c57600080fd5b8151801515811461326857600080fd5b8183823760009101908152919050565b81835281816020850137506000828201602090810191909152601f909101601f19169091010190565b60208152600061303060208301848661368c565b634e487b7160e01b600052601160045260246000fd5b8082028115828204841417611f2857611f286136c9565b60008261371357634e487b7160e01b600052601260045260246000fd5b500690565b80820180821115611f2857611f286136c9565b634e487b7160e01b600052603260045260246000fd5b60408152600061375560408301858761368c565b9050826020830152949350505050565b60408152600061377960408301858761368c565b90506001600160a01b0383166020830152949350505050565b600082516137a4818460208701613038565b9190910192915050565b6000808335601e198436030181126137c557600080fd5b83018035915067ffffffffffffffff8211156137e057600080fd5b602001915036819003821315612ee557600080fd5b600181811c9082168061380957607f821691505b60208210810361382957634e487b7160e01b600052602260045260246000fd5b50919050565b601f82111561387557600081815260208120601f850160051c810160208610156138565750805b601f850160051c820191505b8181101561222457828155600101613862565b505050565b67ffffffffffffffff83111561389257613892612db0565b6138a6836138a083546137f5565b8361382f565b6000601f8411600181146138da57600085156138c25750838201355b600019600387901b1c1916600186901b178355611333565b600083815260209020601f19861690835b8281101561390b57868501358255602094850194600190920191016138eb565b50868210156139285760001960f88860031b161c19848701351681555b505060018560011b0183555050505050565b60008135611f2881612d88565b60ff81168114612d9d57600080fd5b60008135611f2881613947565b60068110612d9d57600080fd5b60008135611f2881613963565b6006821061399b57634e487b7160e01b600052602160045260246000fd5b805475ff0000000000000000000000000000000000000000008360a81b1660ff60a81b198216178255505050565b6139d382836137ae565b6139de81838561387a565b50506139ed60208301836137ae565b6139fb81836001860161387a565b5050613a2d613a0c6040840161393a565b600283016001600160a01b0382166001600160a01b03198254161781555050565b606082013560038201556080820135600482015560a0820135600582015560c0820135600682015560e08201356007820155610100820135600882015560098101613a9b613a7e610120850161393a565b82546001600160a01b0319166001600160a01b0391909116178255565b613af1613aab6101408501613956565b82547fffffffffffffffffffffff00ffffffffffffffffffffffffffffffffffffffff1660a09190911b74ff000000000000000000000000000000000000000016178255565b613875613b016101608501613970565b8261397d565b818103613b12575050565b613b1c82546137f5565b67ffffffffffffffff811115613b3457613b34612db0565b613b4881613b4284546137f5565b8461382f565b6000601f821160018114613b7c5760008315613b645750848201545b600019600385901b1c1916600184901b178455611333565b600085815260209020601f19841690600086815260209020845b83811015613bb65782860154825560019586019590910190602001613b96565b5085831015613bd45781850154600019600388901b60f8161c191681555b5050505050600190811b01905550565b6000808335601e19843603018112613bfb57600080fd5b830160208101925035905067ffffffffffffffff811115613c1b57600080fd5b803603821315612ee557600080fd5b8035612dab81613947565b8035612dab81613963565b604081526000613c5460408301858761368c565b8281036020840152610180613c698586613be4565b828452613c79838501828461368c565b92505050613c8a6020860186613be4565b8383036020850152613c9d83828461368c565b92505050613cad60408601612da0565b6001600160a01b038116604084015250606085013560608301526080850135608083015260a085013560a083015260c085013560c083015260e085013560e0830152610100808601358184015250610120613d09818701612da0565b6001600160a01b031690830152610140613d24868201613c2a565b60ff1690830152610160613d39868201613c35565b613d4582850182613100565b5090979650505050505050565b606081526000613d65606083018661305c565b6001600160a01b0394851660208401529290931660409091015292915050565b602081526000613d958384613be4565b610160806020860152613dad6101808601838561368c565b9250613dbc6020870187613be4565b9250601f1980878603016040880152613dd685858461368c565b9450613de56040890189613be4565b945091508087860301606088015250613dff84848361368c565b935050613e0e60608701612da0565b6001600160a01b03811660808701529150608086013560a086015260a086013560c086015260c086013560e0860152613e4960e08701613c2a565b9150610100613e5c8187018460ff169052565b86013561012086810191909152860135610140808701919091529095013594909301939093525090919050565b613e9382836137ae565b613e9e81838561387a565b5050613ead60208301836137ae565b613ebb81836001860161387a565b5050613eca60408301836137ae565b613ed881836002860161387a565b5050613f0a613ee96060840161393a565b600383016001600160a01b0382166001600160a01b03198254161781555050565b6080820135600482015560a0820135600582015560c08201356006820155613f4c613f3760e08401613956565b6007830160ff821660ff198254161781555050565b61010082013560088201556101208201356009820155610140820135600a8201555050565b600060018201613f8357613f836136c9565b506001019056fea264697066735822122081a1ada5506518320e860626594a37812e1655864e789bb35edecf293c0a824864736f6c63430008130033",
  "linkReferences": {},
  "deployedLinkReferences": {}
}