{
  "_format": "hh-sol-artifact-1",
  "contractName": "ToposBank",
  "sourceName": "contracts/Topos/Bank/ToposBank.sol",
  "abi": [
    {
      "inputs": [
        {
          "internalType": "address",
          "name": "_toposManager",
          "type": "address"
        },
        {
          "internalType": "address",
          "name": "_rolesContract",
          "type": "address"
        },
        {
          "internalType": "address",
          "name": "_identityRegistryContract",
          "type": "address"
        },
        {
          "internalType": "address",
          "name": "_bondCallContract",
          "type": "address"
        },
        {
          "internalType": "uint256",
          "name": "_dealFees",
          "type": "uint256"
        }
      ],
      "stateMutability": "nonpayable",
      "type": "constructor"
    },
    {
      "inputs": [
        {
          "internalType": "uint256",
          "name": "amount",
          "type": "uint256"
        }
      ],
      "name": "InvalidAmount",
      "type": "error"
    },
    {
      "inputs": [
        {
          "internalType": "string",
          "name": "dealID",
          "type": "string"
        }
      ],
      "name": "InvalidDealStatus",
      "type": "error"
    },
    {
      "anonymous": false,
      "inputs": [
        {
          "indexed": false,
          "internalType": "string",
          "name": "_dealID",
          "type": "string"
        }
      ],
      "name": "BondIssue",
      "type": "event"
    },
    {
      "anonymous": false,
      "inputs": [
        {
          "indexed": false,
          "internalType": "string",
          "name": "_dealID",
          "type": "string"
        }
      ],
      "name": "BondRedeem",
      "type": "event"
    },
    {
      "anonymous": false,
      "inputs": [
        {
          "indexed": false,
          "internalType": "string",
          "name": "dealID",
          "type": "string"
        }
      ],
      "name": "DealAPproved",
      "type": "event"
    },
    {
      "anonymous": false,
      "inputs": [
        {
          "indexed": false,
          "internalType": "string",
          "name": "dealID",
          "type": "string"
        }
      ],
      "name": "DealARejected",
      "type": "event"
    },
    {
      "anonymous": false,
      "inputs": [
        {
          "indexed": false,
          "internalType": "string",
          "name": "dealID",
          "type": "string"
        },
        {
          "components": [
            {
              "internalType": "string",
              "name": "dealID",
              "type": "string"
            },
            {
              "internalType": "string",
              "name": "prospectusURI",
              "type": "string"
            },
            {
              "internalType": "address",
              "name": "issuerAddress",
              "type": "address"
            },
            {
              "internalType": "uint256",
              "name": "debtAmount",
              "type": "uint256"
            },
            {
              "internalType": "uint256",
              "name": "denomination",
              "type": "uint256"
            },
            {
              "internalType": "uint256",
              "name": "couponRate",
              "type": "uint256"
            },
            {
              "internalType": "uint256",
              "name": "couponFrequency",
              "type": "uint256"
            },
            {
              "internalType": "uint256",
              "name": "maturityDate",
              "type": "uint256"
            },
            {
              "internalType": "uint256",
              "name": "index",
              "type": "uint256"
            },
            {
              "internalType": "address",
              "name": "currency",
              "type": "address"
            },
            {
              "internalType": "uint8",
              "name": "couponType",
              "type": "uint8"
            },
            {
              "internalType": "enum BondData.DealStatus",
              "name": "status",
              "type": "uint8"
            }
          ],
          "indexed": false,
          "internalType": "struct BondData.Deal",
          "name": "deal",
          "type": "tuple"
        }
      ],
      "name": "DealSubmitted",
      "type": "event"
    },
    {
      "anonymous": false,
      "inputs": [
        {
          "indexed": false,
          "internalType": "string",
          "name": "dealID",
          "type": "string"
        },
        {
          "indexed": false,
          "internalType": "address",
          "name": "investor",
          "type": "address"
        }
      ],
      "name": "RegisterForDeal",
      "type": "event"
    },
    {
      "inputs": [
        {
          "internalType": "address",
          "name": "",
          "type": "address"
        },
        {
          "internalType": "string",
          "name": "",
          "type": "string"
        }
      ],
      "name": "amountInvested",
      "outputs": [
        {
          "internalType": "uint256",
          "name": "amount",
          "type": "uint256"
        },
        {
          "internalType": "bool",
          "name": "hasInvested",
          "type": "bool"
        },
        {
          "internalType": "uint256",
          "name": "index",
          "type": "uint256"
        }
      ],
      "stateMutability": "view",
      "type": "function"
    },
    {
      "inputs": [
        {
          "internalType": "string",
          "name": "_dealID",
          "type": "string"
        }
      ],
      "name": "approveDeal",
      "outputs": [],
      "stateMutability": "nonpayable",
      "type": "function"
    },
    {
      "inputs": [],
      "name": "bondCallContract",
      "outputs": [
        {
          "internalType": "address",
          "name": "",
          "type": "address"
        }
      ],
      "stateMutability": "view",
      "type": "function"
    },
    {
      "inputs": [
        {
          "internalType": "string",
          "name": "",
          "type": "string"
        }
      ],
      "name": "dealBondContracts",
      "outputs": [
        {
          "internalType": "address",
          "name": "",
          "type": "address"
        }
      ],
      "stateMutability": "view",
      "type": "function"
    },
    {
      "inputs": [],
      "name": "dealFees",
      "outputs": [
        {
          "internalType": "uint256",
          "name": "",
          "type": "uint256"
        }
      ],
      "stateMutability": "view",
      "type": "function"
    },
    {
      "inputs": [
        {
          "internalType": "string",
          "name": "",
          "type": "string"
        },
        {
          "internalType": "uint256",
          "name": "",
          "type": "uint256"
        }
      ],
      "name": "dealInvestment",
      "outputs": [
        {
          "internalType": "address",
          "name": "investor",
          "type": "address"
        },
        {
          "internalType": "uint256",
          "name": "amount",
          "type": "uint256"
        }
      ],
      "stateMutability": "view",
      "type": "function"
    },
    {
      "inputs": [
        {
          "internalType": "string",
          "name": "",
          "type": "string"
        }
      ],
      "name": "deals",
      "outputs": [
        {
          "internalType": "string",
          "name": "dealID",
          "type": "string"
        },
        {
          "internalType": "string",
          "name": "prospectusURI",
          "type": "string"
        },
        {
          "internalType": "address",
          "name": "issuerAddress",
          "type": "address"
        },
        {
          "internalType": "uint256",
          "name": "debtAmount",
          "type": "uint256"
        },
        {
          "internalType": "uint256",
          "name": "denomination",
          "type": "uint256"
        },
        {
          "internalType": "uint256",
          "name": "couponRate",
          "type": "uint256"
        },
        {
          "internalType": "uint256",
          "name": "couponFrequency",
          "type": "uint256"
        },
        {
          "internalType": "uint256",
          "name": "maturityDate",
          "type": "uint256"
        },
        {
          "internalType": "uint256",
          "name": "index",
          "type": "uint256"
        },
        {
          "internalType": "address",
          "name": "currency",
          "type": "address"
        },
        {
          "internalType": "uint8",
          "name": "couponType",
          "type": "uint8"
        },
        {
          "internalType": "enum BondData.DealStatus",
          "name": "status",
          "type": "uint8"
        }
      ],
      "stateMutability": "view",
      "type": "function"
    },
    {
      "inputs": [],
      "name": "getContracts",
      "outputs": [
        {
          "internalType": "address",
          "name": "manager",
          "type": "address"
        },
        {
          "internalType": "address",
          "name": "roles",
          "type": "address"
        },
        {
          "internalType": "address",
          "name": "identityRegistry",
          "type": "address"
        },
        {
          "internalType": "address",
          "name": "bondCall",
          "type": "address"
        },
        {
          "internalType": "address",
          "name": "issuerFund",
          "type": "address"
        }
      ],
      "stateMutability": "view",
      "type": "function"
    },
    {
      "inputs": [],
      "name": "getDealFees",
      "outputs": [
        {
          "internalType": "uint256",
          "name": "",
          "type": "uint256"
        }
      ],
      "stateMutability": "view",
      "type": "function"
    },
    {
      "inputs": [
        {
          "internalType": "string",
          "name": "_dealID",
          "type": "string"
        }
      ],
      "name": "getDealInvestment",
      "outputs": [
        {
          "components": [
            {
              "internalType": "address",
              "name": "investor",
              "type": "address"
            },
            {
              "internalType": "uint256",
              "name": "amount",
              "type": "uint256"
            }
          ],
          "internalType": "struct BondData.DealInvestment[]",
          "name": "",
          "type": "tuple[]"
        }
      ],
      "stateMutability": "view",
      "type": "function"
    },
    {
      "inputs": [],
      "name": "getListOfBonds",
      "outputs": [
        {
          "components": [
            {
              "internalType": "string",
              "name": "isin",
              "type": "string"
            },
            {
              "internalType": "string",
              "name": "name",
              "type": "string"
            },
            {
              "internalType": "string",
              "name": "symbol",
              "type": "string"
            },
            {
              "internalType": "address",
              "name": "currency",
              "type": "address"
            },
            {
              "internalType": "uint256",
              "name": "denomination",
              "type": "uint256"
            },
            {
              "internalType": "uint256",
              "name": "issueVolume",
              "type": "uint256"
            },
            {
              "internalType": "uint256",
              "name": "couponRate",
              "type": "uint256"
            },
            {
              "internalType": "uint8",
              "name": "couponType",
              "type": "uint8"
            },
            {
              "internalType": "uint256",
              "name": "couponFrequency",
              "type": "uint256"
            },
            {
              "internalType": "uint256",
              "name": "issueDate",
              "type": "uint256"
            },
            {
              "internalType": "uint256",
              "name": "maturityDate",
              "type": "uint256"
            }
          ],
          "internalType": "struct BondData.Bond[]",
          "name": "",
          "type": "tuple[]"
        }
      ],
      "stateMutability": "view",
      "type": "function"
    },
    {
      "inputs": [],
      "name": "getListOfDeals",
      "outputs": [
        {
          "components": [
            {
              "internalType": "string",
              "name": "dealID",
              "type": "string"
            },
            {
              "internalType": "string",
              "name": "prospectusURI",
              "type": "string"
            },
            {
              "internalType": "address",
              "name": "issuerAddress",
              "type": "address"
            },
            {
              "internalType": "uint256",
              "name": "debtAmount",
              "type": "uint256"
            },
            {
              "internalType": "uint256",
              "name": "denomination",
              "type": "uint256"
            },
            {
              "internalType": "uint256",
              "name": "couponRate",
              "type": "uint256"
            },
            {
              "internalType": "uint256",
              "name": "couponFrequency",
              "type": "uint256"
            },
            {
              "internalType": "uint256",
              "name": "maturityDate",
              "type": "uint256"
            },
            {
              "internalType": "uint256",
              "name": "index",
              "type": "uint256"
            },
            {
              "internalType": "address",
              "name": "currency",
              "type": "address"
            },
            {
              "internalType": "uint8",
              "name": "couponType",
              "type": "uint8"
            },
            {
              "internalType": "enum BondData.DealStatus",
              "name": "status",
              "type": "uint8"
            }
          ],
          "internalType": "struct BondData.Deal[]",
          "name": "",
          "type": "tuple[]"
        }
      ],
      "stateMutability": "view",
      "type": "function"
    },
    {
      "inputs": [
        {
          "internalType": "string",
          "name": "_dealID",
          "type": "string"
        }
      ],
      "name": "getTotalAmounInvested",
      "outputs": [
        {
          "internalType": "uint256",
          "name": "",
          "type": "uint256"
        }
      ],
      "stateMutability": "view",
      "type": "function"
    },
    {
      "inputs": [],
      "name": "identityRegistryContract",
      "outputs": [
        {
          "internalType": "address",
          "name": "",
          "type": "address"
        }
      ],
      "stateMutability": "view",
      "type": "function"
    },
    {
      "inputs": [
        {
          "internalType": "string",
          "name": "_dealID",
          "type": "string"
        },
        {
          "components": [
            {
              "internalType": "string",
              "name": "isin",
              "type": "string"
            },
            {
              "internalType": "string",
              "name": "name",
              "type": "string"
            },
            {
              "internalType": "string",
              "name": "symbol",
              "type": "string"
            },
            {
              "internalType": "address",
              "name": "currency",
              "type": "address"
            },
            {
              "internalType": "uint256",
              "name": "denomination",
              "type": "uint256"
            },
            {
              "internalType": "uint256",
              "name": "issueVolume",
              "type": "uint256"
            },
            {
              "internalType": "uint256",
              "name": "couponRate",
              "type": "uint256"
            },
            {
              "internalType": "uint8",
              "name": "couponType",
              "type": "uint8"
            },
            {
              "internalType": "uint256",
              "name": "couponFrequency",
              "type": "uint256"
            },
            {
              "internalType": "uint256",
              "name": "issueDate",
              "type": "uint256"
            },
            {
              "internalType": "uint256",
              "name": "maturityDate",
              "type": "uint256"
            }
          ],
          "internalType": "struct BondData.Bond",
          "name": "_bond",
          "type": "tuple"
        },
        {
          "internalType": "address",
          "name": "_bondContract",
          "type": "address"
        }
      ],
      "name": "issue",
      "outputs": [],
      "stateMutability": "nonpayable",
      "type": "function"
    },
    {
      "inputs": [
        {
          "internalType": "address",
          "name": "",
          "type": "address"
        },
        {
          "internalType": "uint256",
          "name": "",
          "type": "uint256"
        }
      ],
      "name": "issuerDeals",
      "outputs": [
        {
          "internalType": "string",
          "name": "dealID",
          "type": "string"
        },
        {
          "internalType": "string",
          "name": "prospectusURI",
          "type": "string"
        },
        {
          "internalType": "address",
          "name": "issuerAddress",
          "type": "address"
        },
        {
          "internalType": "uint256",
          "name": "debtAmount",
          "type": "uint256"
        },
        {
          "internalType": "uint256",
          "name": "denomination",
          "type": "uint256"
        },
        {
          "internalType": "uint256",
          "name": "couponRate",
          "type": "uint256"
        },
        {
          "internalType": "uint256",
          "name": "couponFrequency",
          "type": "uint256"
        },
        {
          "internalType": "uint256",
          "name": "maturityDate",
          "type": "uint256"
        },
        {
          "internalType": "uint256",
          "name": "index",
          "type": "uint256"
        },
        {
          "internalType": "address",
          "name": "currency",
          "type": "address"
        },
        {
          "internalType": "uint8",
          "name": "couponType",
          "type": "uint8"
        },
        {
          "internalType": "enum BondData.DealStatus",
          "name": "status",
          "type": "uint8"
        }
      ],
      "stateMutability": "view",
      "type": "function"
    },
    {
      "inputs": [],
      "name": "issuersFundContract",
      "outputs": [
        {
          "internalType": "address",
          "name": "",
          "type": "address"
        }
      ],
      "stateMutability": "view",
      "type": "function"
    },
    {
      "inputs": [
        {
          "internalType": "string",
          "name": "_dealID",
          "type": "string"
        },
        {
          "internalType": "address",
          "name": "_bondContract",
          "type": "address"
        }
      ],
      "name": "redeem",
      "outputs": [],
      "stateMutability": "nonpayable",
      "type": "function"
    },
    {
      "inputs": [
        {
          "internalType": "string",
          "name": "_dealID",
          "type": "string"
        },
        {
          "internalType": "uint256",
          "name": "_amount",
          "type": "uint256"
        }
      ],
      "name": "registerForDeal",
      "outputs": [],
      "stateMutability": "nonpayable",
      "type": "function"
    },
    {
      "inputs": [
        {
          "internalType": "string",
          "name": "_dealID",
          "type": "string"
        }
      ],
      "name": "rejectDeal",
      "outputs": [],
      "stateMutability": "nonpayable",
      "type": "function"
    },
    {
      "inputs": [],
      "name": "rolesContract",
      "outputs": [
        {
          "internalType": "address",
          "name": "",
          "type": "address"
        }
      ],
      "stateMutability": "view",
      "type": "function"
    },
    {
      "inputs": [
        {
          "internalType": "string",
          "name": "_dealID",
          "type": "string"
        },
        {
          "internalType": "address",
          "name": "_bondContractAddress",
          "type": "address"
        }
      ],
      "name": "setBondContractAddress",
      "outputs": [],
      "stateMutability": "nonpayable",
      "type": "function"
    },
    {
      "inputs": [
        {
          "internalType": "address",
          "name": "_issuerFundContract",
          "type": "address"
        }
      ],
      "name": "setIssuerFundContract",
      "outputs": [],
      "stateMutability": "nonpayable",
      "type": "function"
    },
    {
      "inputs": [
        {
          "internalType": "address",
          "name": "_toposManager",
          "type": "address"
        }
      ],
      "name": "setManager",
      "outputs": [],
      "stateMutability": "nonpayable",
      "type": "function"
    },
    {
      "inputs": [
        {
          "internalType": "string",
          "name": "_dealID",
          "type": "string"
        },
        {
          "components": [
            {
              "internalType": "string",
              "name": "dealID",
              "type": "string"
            },
            {
              "internalType": "string",
              "name": "prospectusURI",
              "type": "string"
            },
            {
              "internalType": "address",
              "name": "issuerAddress",
              "type": "address"
            },
            {
              "internalType": "uint256",
              "name": "debtAmount",
              "type": "uint256"
            },
            {
              "internalType": "uint256",
              "name": "denomination",
              "type": "uint256"
            },
            {
              "internalType": "uint256",
              "name": "couponRate",
              "type": "uint256"
            },
            {
              "internalType": "uint256",
              "name": "couponFrequency",
              "type": "uint256"
            },
            {
              "internalType": "uint256",
              "name": "maturityDate",
              "type": "uint256"
            },
            {
              "internalType": "uint256",
              "name": "index",
              "type": "uint256"
            },
            {
              "internalType": "address",
              "name": "currency",
              "type": "address"
            },
            {
              "internalType": "uint8",
              "name": "couponType",
              "type": "uint8"
            },
            {
              "internalType": "enum BondData.DealStatus",
              "name": "status",
              "type": "uint8"
            }
          ],
          "internalType": "struct BondData.Deal",
          "name": "_deal",
          "type": "tuple"
        }
      ],
      "name": "submitDeal",
      "outputs": [],
      "stateMutability": "nonpayable",
      "type": "function"
    },
    {
      "inputs": [],
      "name": "toposManager",
      "outputs": [
        {
          "internalType": "address",
          "name": "",
          "type": "address"
        }
      ],
      "stateMutability": "view",
      "type": "function"
    },
    {
      "inputs": [
        {
          "internalType": "string",
          "name": "",
          "type": "string"
        }
      ],
      "name": "totalAmountInvestedForDeal",
      "outputs": [
        {
          "internalType": "uint256",
          "name": "",
          "type": "uint256"
        }
      ],
      "stateMutability": "view",
      "type": "function"
    },
    {
      "inputs": [
        {
          "internalType": "string",
          "name": "_dealID",
          "type": "string"
        }
      ],
      "name": "withdrawIssuerFund",
      "outputs": [],
      "stateMutability": "nonpayable",
      "type": "function"
    }
  ],
  "bytecode": "0x60806040523480156200001157600080fd5b5060405162005b5338038062005b538339818101604052810190620000379190620001f2565b84600660006101000a81548173ffffffffffffffffffffffffffffffffffffffff021916908373ffffffffffffffffffffffffffffffffffffffff16021790555083600760006101000a81548173ffffffffffffffffffffffffffffffffffffffff021916908373ffffffffffffffffffffffffffffffffffffffff16021790555082600860006101000a81548173ffffffffffffffffffffffffffffffffffffffff021916908373ffffffffffffffffffffffffffffffffffffffff16021790555081600960006101000a81548173ffffffffffffffffffffffffffffffffffffffff021916908373ffffffffffffffffffffffffffffffffffffffff16021790555080600b8190555050505050506200027a565b600080fd5b600073ffffffffffffffffffffffffffffffffffffffff82169050919050565b60006200017f8262000152565b9050919050565b620001918162000172565b81146200019d57600080fd5b50565b600081519050620001b18162000186565b92915050565b6000819050919050565b620001cc81620001b7565b8114620001d857600080fd5b50565b600081519050620001ec81620001c1565b92915050565b600080600080600060a086880312156200021157620002106200014d565b5b60006200022188828901620001a0565b95505060206200023488828901620001a0565b94505060406200024788828901620001a0565b93505060606200025a88828901620001a0565b92505060806200026d88828901620001db565b9150509295509295909350565b6158c9806200028a6000396000f3fe608060405234801561001057600080fd5b50600436106101c45760003560e01c8063754f399a116100f9578063ca53b39111610097578063f3413c4f11610071578063f3413c4f14610520578063fb90e4411461053e578063fe0ab4b31461055c578063ff6689d01461058c576101c4565b8063ca53b391146104ca578063d0ebdbe7146104e8578063d7c4029c14610504576101c4565b8063a0a57dac116100d3578063a0a57dac1461041f578063af9080f81461045a578063c3a2a93a14610478578063c8d7f62e1461049a576101c4565b8063754f399a146103c95780637bafe3d0146103e55780637f31ed7314610401576101c4565b806348f92ee811610166578063507251cb11610140578063507251cb1461032f5780635e43522e1461034b5780635ed7e2c114610369578063605936ea14610399576101c4565b806348f92ee8146102a7578063499fa18a146102c357806349f5d1d9146102f4576101c4565b80631882c195116101a25780631882c1951461023557806319662d8e146102515780631b59122c1461026d57806336f9c4da14610289576101c4565b8063041e9b89146101c9578063088674e0146101fb5780630df8bfda14610219575b600080fd5b6101e360048036038101906101de919061352b565b6105aa565b6040516101f2939291906135bb565b60405180910390f35b610203610604565b6040516102109190613601565b60405180910390f35b610233600480360381019061022e91906136a8565b61062a565b005b61024f600480360381019061024a9190613708565b610ef2565b005b61026b60048036038101906102669190613789565b610f53565b005b61028760048036038101906102829190613805565b61141a565b005b6102916116e7565b60405161029e9190613b4b565b60405180910390f35b6102c160048036038101906102bc9190613b6d565b6119ab565b005b6102dd60048036038101906102d89190613bba565b611bcc565b6040516102eb929190613c16565b60405180910390f35b61030e60048036038101906103099190613c3f565b611c43565b6040516103269c9b9a99989796959493929190613ce7565b60405180910390f35b61034960048036038101906103449190613dcf565b611e2a565b005b6103536123cd565b6040516103609190613601565b60405180910390f35b610383600480360381019061037e9190613805565b6123f3565b6040516103909190613e5f565b60405180910390f35b6103b360048036038101906103ae9190613b6d565b612421565b6040516103c09190613e5f565b60405180910390f35b6103e360048036038101906103de9190613b6d565b61244c565b005b6103ff60048036038101906103fa9190613e7a565b61266d565b005b6104096127b0565b6040516104169190613601565b60405180910390f35b61043960048036038101906104349190613805565b6127d6565b6040516104519c9b9a99989796959493929190613ce7565b60405180910390f35b6104626129b6565b60405161046f9190613e5f565b60405180910390f35b6104806129bc565b604051610491959493929190613ea7565b60405180910390f35b6104b460048036038101906104af9190613b6d565b612a8e565b6040516104c19190613fd8565b60405180910390f35b6104d2612b6e565b6040516104df9190613601565b60405180910390f35b61050260048036038101906104fd9190613e7a565b612b94565b005b61051e60048036038101906105199190613ffa565b612cb4565b005b610528613035565b6040516105359190614219565b60405180910390f35b6105466132fa565b6040516105539190613601565b60405180910390f35b61057660048036038101906105719190613805565b613320565b6040516105839190613601565b60405180910390f35b610594613369565b6040516105a19190613e5f565b60405180910390f35b600460205281600052604060002081805160208101820180518482526020830160208501208183528095505050505050600091509150508060000154908060010160009054906101000a900460ff16908060020154905083565b600860009054906101000a900473ffffffffffffffffffffffffffffffffffffffff1681565b33600860009054906101000a900473ffffffffffffffffffffffffffffffffffffffff1673ffffffffffffffffffffffffffffffffffffffff1663b9209e33826040518263ffffffff1660e01b81526004016106869190613601565b602060405180830381865afa1580156106a3573d6000803e3d6000fd5b505050506040513d601f19601f820116820180604052508101906106c79190614267565b610706576040517f08c379a00000000000000000000000000000000000000000000000000000000081526004016106fd906142e0565b60405180910390fd5b6002600581111561071a57610719613933565b5b6000858560405161072c929190614330565b908152602001604051809103902060090160159054906101000a900460ff16600581111561075d5761075c613933565b5b146107a15783836040517fb7165084000000000000000000000000000000000000000000000000000000008152600401610798929190614376565b60405180910390fd5b60008085856040516107b4929190614330565b908152602001604051809103902060040154600086866040516107d8929190614330565b908152602001604051809103902060040154846107f591906143c9565b6107ff919061443a565b1461084157816040517f3728b83d0000000000000000000000000000000000000000000000000000000081526004016108389190613e5f565b60405180910390fd5b600082141580156108a057506000848460405161085f929190614330565b90815260200160405180910390206003015460038585604051610883929190614330565b9081526020016040518091039020548361089d919061446b565b11155b6108df576040517f08c379a00000000000000000000000000000000000000000000000000000000081526004016108d6906144eb565b60405180910390fd5b81600385856040516108f2929190614330565b90815260200160405180910390205461090b919061446b565b6003858560405161091d929190614330565b908152602001604051809103902081905550600460003373ffffffffffffffffffffffffffffffffffffffff1673ffffffffffffffffffffffffffffffffffffffff168152602001908152602001600020848460405161097e929190614330565b908152602001604051809103902060010160009054906101000a900460ff1615610b8a5781600460003373ffffffffffffffffffffffffffffffffffffffff1673ffffffffffffffffffffffffffffffffffffffff16815260200190815260200160002085856040516109f2929190614330565b908152602001604051809103902060000154610a0e919061446b565b60028585604051610a20929190614330565b9081526020016040518091039020600460003373ffffffffffffffffffffffffffffffffffffffff1673ffffffffffffffffffffffffffffffffffffffff1681526020019081526020016000208686604051610a7d929190614330565b90815260200160405180910390206002015481548110610aa057610a9f61450b565b5b90600052602060002090600202016001018190555081600460003373ffffffffffffffffffffffffffffffffffffffff1673ffffffffffffffffffffffffffffffffffffffff1681526020019081526020016000208585604051610b05929190614330565b908152602001604051809103902060000154610b21919061446b565b600460003373ffffffffffffffffffffffffffffffffffffffff1673ffffffffffffffffffffffffffffffffffffffff1681526020019081526020016000208585604051610b70929190614330565b908152602001604051809103902060000181905550610d27565b604051806060016040528083815260200160011515815260200160028686604051610bb6929190614330565b908152602001604051809103902080549050815250600460003373ffffffffffffffffffffffffffffffffffffffff1673ffffffffffffffffffffffffffffffffffffffff1681526020019081526020016000208585604051610c1a929190614330565b90815260200160405180910390206000820151816000015560208201518160010160006101000a81548160ff0219169083151502179055506040820151816002015590505060028484604051610c71929190614330565b908152602001604051809103902060405180604001604052803373ffffffffffffffffffffffffffffffffffffffff16815260200184815250908060018154018082558091505060019003906000526020600020906002020160009091909190915060008201518160000160006101000a81548173ffffffffffffffffffffffffffffffffffffffff021916908373ffffffffffffffffffffffffffffffffffffffff1602179055506020820151816001015550505b600a60009054906101000a900473ffffffffffffffffffffffffffffffffffffffff1673ffffffffffffffffffffffffffffffffffffffff1663925b7cb68585856040518463ffffffff1660e01b8152600401610d869392919061453a565b600060405180830381600087803b158015610da057600080fd5b505af1158015610db4573d6000803e3d6000fd5b5050505060008484604051610dca929190614330565b908152602001604051809103902060090160009054906101000a900473ffffffffffffffffffffffffffffffffffffffff1673ffffffffffffffffffffffffffffffffffffffff166323b872dd33600a60009054906101000a900473ffffffffffffffffffffffffffffffffffffffff16670de0b6b3a764000086610e4f91906143c9565b6040518463ffffffff1660e01b8152600401610e6d9392919061456c565b6020604051808303816000875af1158015610e8c573d6000803e3d6000fd5b505050506040513d601f19601f82011682018060405250810190610eb09190614267565b507f0bdaf52b4de514796607307fbbcf007ee6d59e81e1be436b67c5a567a2e8d121848433604051610ee4939291906145a3565b60405180910390a150505050565b80600183604051610f039190614606565b908152602001604051809103902060006101000a81548173ffffffffffffffffffffffffffffffffffffffff021916908373ffffffffffffffffffffffffffffffffffffffff1602179055505050565b600760009054906101000a900473ffffffffffffffffffffffffffffffffffffffff1673ffffffffffffffffffffffffffffffffffffffff1663877b9a67336040518263ffffffff1660e01b8152600401610fae9190613601565b602060405180830381865afa158015610fcb573d6000803e3d6000fd5b505050506040513d601f19601f82011682018060405250810190610fef9190614267565b61102e576040517f08c379a000000000000000000000000000000000000000000000000000000000815260040161102590614669565b60405180910390fd5b8060400160208101906110419190613e7a565b73ffffffffffffffffffffffffffffffffffffffff163373ffffffffffffffffffffffffffffffffffffffff16146110ae576040517f08c379a00000000000000000000000000000000000000000000000000000000081526004016110a5906146d5565b60405180910390fd5b600060058111156110c2576110c1613933565b5b600084846040516110d4929190614330565b908152602001604051809103902060090160159054906101000a900460ff16600581111561110557611104613933565b5b14611145576040517f08c379a000000000000000000000000000000000000000000000000000000000815260040161113c90614741565b60405180910390fd5b8060008484604051611158929190614330565b908152602001604051809103902081816111729190614f0f565b905050600160008484604051611189929190614330565b908152602001604051809103902060090160156101000a81548160ff021916908360058111156111bc576111bb613933565b5b0217905550600d80549050600084846040516111d9929190614330565b908152602001604051809103902060080181905550600d60008484604051611202929190614330565b908152602001604051809103902090806001815401808255809150506001900390600052602060002090600a02016000909190919091506000820181600001908161124d9190614f33565b50600182018160010190816112629190614f33565b506002820160009054906101000a900473ffffffffffffffffffffffffffffffffffffffff168160020160006101000a81548173ffffffffffffffffffffffffffffffffffffffff021916908373ffffffffffffffffffffffffffffffffffffffff1602179055506003820154816003015560048201548160040155600582015481600501556006820154816006015560078201548160070155600882015481600801556009820160009054906101000a900473ffffffffffffffffffffffffffffffffffffffff168160090160006101000a81548173ffffffffffffffffffffffffffffffffffffffff021916908373ffffffffffffffffffffffffffffffffffffffff1602179055506009820160149054906101000a900460ff168160090160146101000a81548160ff021916908360ff1602179055506009820160159054906101000a900460ff168160090160156101000a81548160ff021916908360058111156113d3576113d2613933565b5b021790555050507febc5645d06a6c6900ffbabb37c6fc84326bd870990f736254f05abb3287ffd4183838360405161140d939291906152af565b60405180910390a1505050565b60008160405161142a9190614606565b908152602001604051809103902060020160009054906101000a900473ffffffffffffffffffffffffffffffffffffffff1673ffffffffffffffffffffffffffffffffffffffff163373ffffffffffffffffffffffffffffffffffffffff1614806114e25750600660009054906101000a900473ffffffffffffffffffffffffffffffffffffffff1673ffffffffffffffffffffffffffffffffffffffff163373ffffffffffffffffffffffffffffffffffffffff16145b611521576040517f08c379a000000000000000000000000000000000000000000000000000000000815260040161151890615334565b60405180910390fd5b600073ffffffffffffffffffffffffffffffffffffffff166000826040516115499190614606565b908152602001604051809103902060090160009054906101000a900473ffffffffffffffffffffffffffffffffffffffff1673ffffffffffffffffffffffffffffffffffffffff16036115d1576040517f08c379a00000000000000000000000000000000000000000000000000000000081526004016115c8906153a0565b60405180910390fd5b600a60009054906101000a900473ffffffffffffffffffffffffffffffffffffffff1673ffffffffffffffffffffffffffffffffffffffff1663e04cd97f826000846040516116209190614606565b908152602001604051809103902060020160009054906101000a900473ffffffffffffffffffffffffffffffffffffffff166000856040516116629190614606565b908152602001604051809103902060090160009054906101000a900473ffffffffffffffffffffffffffffffffffffffff166040518463ffffffff1660e01b81526004016116b2939291906153c0565b600060405180830381600087803b1580156116cc57600080fd5b505af11580156116e0573d6000803e3d6000fd5b5050505050565b6060600d805480602002602001604051908101604052809291908181526020016000905b828210156119a257838290600052602060002090600a02016040518061018001604052908160008201805461173f9061480d565b80601f016020809104026020016040519081016040528092919081815260200182805461176b9061480d565b80156117b85780601f1061178d576101008083540402835291602001916117b8565b820191906000526020600020905b81548152906001019060200180831161179b57829003601f168201915b505050505081526020016001820180546117d19061480d565b80601f01602080910402602001604051908101604052809291908181526020018280546117fd9061480d565b801561184a5780601f1061181f5761010080835404028352916020019161184a565b820191906000526020600020905b81548152906001019060200180831161182d57829003601f168201915b505050505081526020016002820160009054906101000a900473ffffffffffffffffffffffffffffffffffffffff1673ffffffffffffffffffffffffffffffffffffffff1673ffffffffffffffffffffffffffffffffffffffff1681526020016003820154815260200160048201548152602001600582015481526020016006820154815260200160078201548152602001600882015481526020016009820160009054906101000a900473ffffffffffffffffffffffffffffffffffffffff1673ffffffffffffffffffffffffffffffffffffffff1673ffffffffffffffffffffffffffffffffffffffff1681526020016009820160149054906101000a900460ff1660ff1660ff1681526020016009820160159054906101000a900460ff16600581111561197d5761197c613933565b5b600581111561198f5761198e613933565b5b815250508152602001906001019061170b565b50505050905090565b600660009054906101000a900473ffffffffffffffffffffffffffffffffffffffff1673ffffffffffffffffffffffffffffffffffffffff163373ffffffffffffffffffffffffffffffffffffffff1614611a3b576040517f08c379a0000000000000000000000000000000000000000000000000000000008152600401611a329061544a565b60405180910390fd5b60016005811115611a4f57611a4e613933565b5b60008383604051611a61929190614330565b908152602001604051809103902060090160159054906101000a900460ff166005811115611a9257611a91613933565b5b14611ad2576040517f08c379a0000000000000000000000000000000000000000000000000000000008152600401611ac990614741565b60405180910390fd5b600260008383604051611ae6929190614330565b908152602001604051809103902060090160156101000a81548160ff02191690836005811115611b1957611b18613933565b5b02179055506002600d60008484604051611b34929190614330565b90815260200160405180910390206008015481548110611b5757611b5661450b565b5b90600052602060002090600a020160090160156101000a81548160ff02191690836005811115611b8a57611b89613933565b5b02179055507f039501081328ffe3eb02459ad6f6e90b69e23ba1422b574ee84c1f52b2fc03108282604051611bc0929190614376565b60405180910390a15050565b6002828051602081018201805184825260208301602085012081835280955050505050508181548110611bfe57600080fd5b9060005260206000209060020201600091509150508060000160009054906101000a900473ffffffffffffffffffffffffffffffffffffffff16908060010154905082565b60056020528160005260406000208181548110611c5f57600080fd5b90600052602060002090600a020160009150915050806000018054611c839061480d565b80601f0160208091040260200160405190810160405280929190818152602001828054611caf9061480d565b8015611cfc5780601f10611cd157610100808354040283529160200191611cfc565b820191906000526020600020905b815481529060010190602001808311611cdf57829003601f168201915b505050505090806001018054611d119061480d565b80601f0160208091040260200160405190810160405280929190818152602001828054611d3d9061480d565b8015611d8a5780601f10611d5f57610100808354040283529160200191611d8a565b820191906000526020600020905b815481529060010190602001808311611d6d57829003601f168201915b5050505050908060020160009054906101000a900473ffffffffffffffffffffffffffffffffffffffff16908060030154908060040154908060050154908060060154908060070154908060080154908060090160009054906101000a900473ffffffffffffffffffffffffffffffffffffffff16908060090160149054906101000a900460ff16908060090160159054906101000a900460ff1690508c565b600660009054906101000a900473ffffffffffffffffffffffffffffffffffffffff1673ffffffffffffffffffffffffffffffffffffffff163373ffffffffffffffffffffffffffffffffffffffff1614611eba576040517f08c379a0000000000000000000000000000000000000000000000000000000008152600401611eb19061544a565b60405180910390fd5b60026005811115611ece57611ecd613933565b5b60008585604051611ee0929190614330565b908152602001604051809103902060090160159054906101000a900460ff166005811115611f1157611f10613933565b5b14611f555783836040517fb7165084000000000000000000000000000000000000000000000000000000008152600401611f4c929190614376565b60405180910390fd5b8060018585604051611f68929190614330565b908152602001604051809103902060006101000a81548173ffffffffffffffffffffffffffffffffffffffff021916908373ffffffffffffffffffffffffffffffffffffffff16021790555060046005811115611fc857611fc7613933565b5b60008585604051611fda929190614330565b908152602001604051809103902060090160159054906101000a900460ff16600581111561200b5761200a613933565b5b50506004600d60008686604051612023929190614330565b908152602001604051809103902060080154815481106120465761204561450b565b5b90600052602060002090600a020160090160156101000a81548160ff0219169083600581111561207957612078613933565b5b021790555060056000808686604051612093929190614330565b908152602001604051809103902060020160009054906101000a900473ffffffffffffffffffffffffffffffffffffffff1673ffffffffffffffffffffffffffffffffffffffff1673ffffffffffffffffffffffffffffffffffffffff16815260200190815260200160002060008585604051612111929190614330565b908152602001604051809103902090806001815401808255809150506001900390600052602060002090600a02016000909190919091506000820181600001908161215c9190614f33565b50600182018160010190816121719190614f33565b506002820160009054906101000a900473ffffffffffffffffffffffffffffffffffffffff168160020160006101000a81548173ffffffffffffffffffffffffffffffffffffffff021916908373ffffffffffffffffffffffffffffffffffffffff1602179055506003820154816003015560048201548160040155600582015481600501556006820154816006015560078201548160070155600882015481600801556009820160009054906101000a900473ffffffffffffffffffffffffffffffffffffffff168160090160006101000a81548173ffffffffffffffffffffffffffffffffffffffff021916908373ffffffffffffffffffffffffffffffffffffffff1602179055506009820160149054906101000a900460ff168160090160146101000a81548160ff021916908360ff1602179055506009820160159054906101000a900460ff168160090160156101000a81548160ff021916908360058111156122e2576122e1613933565b5b021790555050508073ffffffffffffffffffffffffffffffffffffffff1663d76805aa836040518263ffffffff1660e01b815260040161232291906155c5565b600060405180830381600087803b15801561233c57600080fd5b505af1158015612350573d6000803e3d6000fd5b50505050600c8290806001815401808255809150506001900390600052602060002090600b0201600090919091909150818161238c919061579f565b50507f44b55c2d9270546faf6ff2f0acac078011883b82782d9b08de2d3af4543c2b1884846040516123bf929190614376565b60405180910390a150505050565b600960009054906101000a900473ffffffffffffffffffffffffffffffffffffffff1681565b6003818051602081018201805184825260208301602085012081835280955050505050506000915090505481565b600060038383604051612435929190614330565b908152602001604051809103902054905092915050565b600660009054906101000a900473ffffffffffffffffffffffffffffffffffffffff1673ffffffffffffffffffffffffffffffffffffffff163373ffffffffffffffffffffffffffffffffffffffff16146124dc576040517f08c379a00000000000000000000000000000000000000000000000000000000081526004016124d39061544a565b60405180910390fd5b600160058111156124f0576124ef613933565b5b60008383604051612502929190614330565b908152602001604051809103902060090160159054906101000a900460ff16600581111561253357612532613933565b5b14612573576040517f08c379a000000000000000000000000000000000000000000000000000000000815260040161256a90614741565b60405180910390fd5b600360008383604051612587929190614330565b908152602001604051809103902060090160156101000a81548160ff021916908360058111156125ba576125b9613933565b5b02179055506003600d600084846040516125d5929190614330565b908152602001604051809103902060080154815481106125f8576125f761450b565b5b90600052602060002090600a020160090160156101000a81548160ff0219169083600581111561262b5761262a613933565b5b02179055507f735ccdd611541d36c82a3622baab7f58b8a0f5be664555b0d9c95ddde16096d38282604051612661929190614376565b60405180910390a15050565b600660009054906101000a900473ffffffffffffffffffffffffffffffffffffffff1673ffffffffffffffffffffffffffffffffffffffff163373ffffffffffffffffffffffffffffffffffffffff16146126fd576040517f08c379a00000000000000000000000000000000000000000000000000000000081526004016126f49061544a565b60405180910390fd5b600073ffffffffffffffffffffffffffffffffffffffff168173ffffffffffffffffffffffffffffffffffffffff160361276c576040517f08c379a0000000000000000000000000000000000000000000000000000000008152600401612763906157f9565b60405180910390fd5b80600a60006101000a81548173ffffffffffffffffffffffffffffffffffffffff021916908373ffffffffffffffffffffffffffffffffffffffff16021790555050565b600660009054906101000a900473ffffffffffffffffffffffffffffffffffffffff1681565b60008180516020810182018051848252602083016020850120818352809550505050505060009150905080600001805461280f9061480d565b80601f016020809104026020016040519081016040528092919081815260200182805461283b9061480d565b80156128885780601f1061285d57610100808354040283529160200191612888565b820191906000526020600020905b81548152906001019060200180831161286b57829003601f168201915b50505050509080600101805461289d9061480d565b80601f01602080910402602001604051908101604052809291908181526020018280546128c99061480d565b80156129165780601f106128eb57610100808354040283529160200191612916565b820191906000526020600020905b8154815290600101906020018083116128f957829003601f168201915b5050505050908060020160009054906101000a900473ffffffffffffffffffffffffffffffffffffffff16908060030154908060040154908060050154908060060154908060070154908060080154908060090160009054906101000a900473ffffffffffffffffffffffffffffffffffffffff16908060090160149054906101000a900460ff16908060090160159054906101000a900460ff1690508c565b600b5481565b6000806000806000600660009054906101000a900473ffffffffffffffffffffffffffffffffffffffff16600760009054906101000a900473ffffffffffffffffffffffffffffffffffffffff16600860009054906101000a900473ffffffffffffffffffffffffffffffffffffffff16600960009054906101000a900473ffffffffffffffffffffffffffffffffffffffff16600a60009054906101000a900473ffffffffffffffffffffffffffffffffffffffff1680955081965082975083985084995050505050509091929394565b606060028383604051612aa2929190614330565b9081526020016040518091039020805480602002602001604051908101604052809291908181526020016000905b82821015612b6257838290600052602060002090600202016040518060400160405290816000820160009054906101000a900473ffffffffffffffffffffffffffffffffffffffff1673ffffffffffffffffffffffffffffffffffffffff1673ffffffffffffffffffffffffffffffffffffffff16815260200160018201548152505081526020019060010190612ad0565b50505050905092915050565b600760009054906101000a900473ffffffffffffffffffffffffffffffffffffffff1681565b600660009054906101000a900473ffffffffffffffffffffffffffffffffffffffff1673ffffffffffffffffffffffffffffffffffffffff163373ffffffffffffffffffffffffffffffffffffffff1614612c24576040517f08c379a0000000000000000000000000000000000000000000000000000000008152600401612c1b9061544a565b60405180910390fd5b600760009054906101000a900473ffffffffffffffffffffffffffffffffffffffff1673ffffffffffffffffffffffffffffffffffffffff1663cfde1890826040518263ffffffff1660e01b8152600401612c7f9190615865565b600060405180830381600087803b158015612c9957600080fd5b505af1158015612cad573d6000803e3d6000fd5b5050505050565b600660009054906101000a900473ffffffffffffffffffffffffffffffffffffffff1673ffffffffffffffffffffffffffffffffffffffff163373ffffffffffffffffffffffffffffffffffffffff1614612d44576040517f08c379a0000000000000000000000000000000000000000000000000000000008152600401612d3b9061544a565b60405180910390fd5b60046005811115612d5857612d57613933565b5b60008484604051612d6a929190614330565b908152602001604051809103902060090160159054906101000a900460ff166005811115612d9b57612d9a613933565b5b14612ddf5782826040517fb7165084000000000000000000000000000000000000000000000000000000008152600401612dd6929190614376565b60405180910390fd5b600580811115612df257612df1613933565b5b60008484604051612e04929190614330565b908152602001604051809103902060090160159054906101000a900460ff166005811115612e3557612e34613933565b5b50506005600d60008585604051612e4d929190614330565b90815260200160405180910390206008015481548110612e7057612e6f61450b565b5b90600052602060002090600a020160090160156101000a81548160ff02191690836005811115612ea357612ea2613933565b5b02179055506005806000808686604051612ebe929190614330565b908152602001604051809103902060020160009054906101000a900473ffffffffffffffffffffffffffffffffffffffff1673ffffffffffffffffffffffffffffffffffffffff1673ffffffffffffffffffffffffffffffffffffffff16815260200190815260200160002060008585604051612f3c929190614330565b90815260200160405180910390206008015481548110612f5f57612f5e61450b565b5b90600052602060002090600a020160090160156101000a81548160ff02191690836005811115612f9257612f91613933565b5b02179055508073ffffffffffffffffffffffffffffffffffffffff1663be040fb06040518163ffffffff1660e01b8152600401600060405180830381600087803b158015612fdf57600080fd5b505af1158015612ff3573d6000803e3d6000fd5b505050507fdfdf42ff0d0eb3e6ec5b40d8cf21fb2f7102b67e5e2d56ab36e817f807213c5b8383604051613028929190614376565b60405180910390a1505050565b6060600c805480602002602001604051908101604052809291908181526020016000905b828210156132f157838290600052602060002090600b02016040518061016001604052908160008201805461308d9061480d565b80601f01602080910402602001604051908101604052809291908181526020018280546130b99061480d565b80156131065780601f106130db57610100808354040283529160200191613106565b820191906000526020600020905b8154815290600101906020018083116130e957829003601f168201915b5050505050815260200160018201805461311f9061480d565b80601f016020809104026020016040519081016040528092919081815260200182805461314b9061480d565b80156131985780601f1061316d57610100808354040283529160200191613198565b820191906000526020600020905b81548152906001019060200180831161317b57829003601f168201915b505050505081526020016002820180546131b19061480d565b80601f01602080910402602001604051908101604052809291908181526020018280546131dd9061480d565b801561322a5780601f106131ff5761010080835404028352916020019161322a565b820191906000526020600020905b81548152906001019060200180831161320d57829003601f168201915b505050505081526020016003820160009054906101000a900473ffffffffffffffffffffffffffffffffffffffff1673ffffffffffffffffffffffffffffffffffffffff1673ffffffffffffffffffffffffffffffffffffffff1681526020016004820154815260200160058201548152602001600682015481526020016007820160009054906101000a900460ff1660ff1660ff1681526020016008820154815260200160098201548152602001600a8201548152505081526020019060010190613059565b50505050905090565b600a60009054906101000a900473ffffffffffffffffffffffffffffffffffffffff1681565b6001818051602081018201805184825260208301602085012081835280955050505050506000915054906101000a900473ffffffffffffffffffffffffffffffffffffffff1681565b6000600b54905090565b6000604051905090565b600080fd5b600080fd5b600073ffffffffffffffffffffffffffffffffffffffff82169050919050565b60006133b282613387565b9050919050565b6133c2816133a7565b81146133cd57600080fd5b50565b6000813590506133df816133b9565b92915050565b600080fd5b600080fd5b6000601f19601f8301169050919050565b7f4e487b7100000000000000000000000000000000000000000000000000000000600052604160045260246000fd5b613438826133ef565b810181811067ffffffffffffffff8211171561345757613456613400565b5b80604052505050565b600061346a613373565b9050613476828261342f565b919050565b600067ffffffffffffffff82111561349657613495613400565b5b61349f826133ef565b9050602081019050919050565b82818337600083830152505050565b60006134ce6134c98461347b565b613460565b9050828152602081018484840111156134ea576134e96133ea565b5b6134f58482856134ac565b509392505050565b600082601f830112613512576135116133e5565b5b81356135228482602086016134bb565b91505092915050565b600080604083850312156135425761354161337d565b5b6000613550858286016133d0565b925050602083013567ffffffffffffffff81111561357157613570613382565b5b61357d858286016134fd565b9150509250929050565b6000819050919050565b61359a81613587565b82525050565b60008115159050919050565b6135b5816135a0565b82525050565b60006060820190506135d06000830186613591565b6135dd60208301856135ac565b6135ea6040830184613591565b949350505050565b6135fb816133a7565b82525050565b600060208201905061361660008301846135f2565b92915050565b600080fd5b600080fd5b60008083601f84011261363c5761363b6133e5565b5b8235905067ffffffffffffffff8111156136595761365861361c565b5b60208301915083600182028301111561367557613674613621565b5b9250929050565b61368581613587565b811461369057600080fd5b50565b6000813590506136a28161367c565b92915050565b6000806000604084860312156136c1576136c061337d565b5b600084013567ffffffffffffffff8111156136df576136de613382565b5b6136eb86828701613626565b935093505060206136fe86828701613693565b9150509250925092565b6000806040838503121561371f5761371e61337d565b5b600083013567ffffffffffffffff81111561373d5761373c613382565b5b613749858286016134fd565b925050602061375a858286016133d0565b9150509250929050565b600080fd5b600061018082840312156137805761377f613764565b5b81905092915050565b6000806000604084860312156137a2576137a161337d565b5b600084013567ffffffffffffffff8111156137c0576137bf613382565b5b6137cc86828701613626565b9350935050602084013567ffffffffffffffff8111156137ef576137ee613382565b5b6137fb86828701613769565b9150509250925092565b60006020828403121561381b5761381a61337d565b5b600082013567ffffffffffffffff81111561383957613838613382565b5b613845848285016134fd565b91505092915050565b600081519050919050565b600082825260208201905092915050565b6000819050602082019050919050565b600081519050919050565b600082825260208201905092915050565b60005b838110156138b4578082015181840152602081019050613899565b60008484015250505050565b60006138cb8261387a565b6138d58185613885565b93506138e5818560208601613896565b6138ee816133ef565b840191505092915050565b613902816133a7565b82525050565b61391181613587565b82525050565b600060ff82169050919050565b61392d81613917565b82525050565b7f4e487b7100000000000000000000000000000000000000000000000000000000600052602160045260246000fd5b6006811061397357613972613933565b5b50565b600081905061398482613962565b919050565b600061399482613976565b9050919050565b6139a481613989565b82525050565b60006101808301600083015184820360008601526139c882826138c0565b915050602083015184820360208601526139e282826138c0565b91505060408301516139f760408601826138f9565b506060830151613a0a6060860182613908565b506080830151613a1d6080860182613908565b5060a0830151613a3060a0860182613908565b5060c0830151613a4360c0860182613908565b5060e0830151613a5660e0860182613908565b50610100830151613a6b610100860182613908565b50610120830151613a806101208601826138f9565b50610140830151613a95610140860182613924565b50610160830151613aaa61016086018261399b565b508091505092915050565b6000613ac183836139aa565b905092915050565b6000602082019050919050565b6000613ae18261384e565b613aeb8185613859565b935083602082028501613afd8561386a565b8060005b85811015613b395784840389528151613b1a8582613ab5565b9450613b2583613ac9565b925060208a01995050600181019050613b01565b50829750879550505050505092915050565b60006020820190508181036000830152613b658184613ad6565b905092915050565b60008060208385031215613b8457613b8361337d565b5b600083013567ffffffffffffffff811115613ba257613ba1613382565b5b613bae85828601613626565b92509250509250929050565b60008060408385031215613bd157613bd061337d565b5b600083013567ffffffffffffffff811115613bef57613bee613382565b5b613bfb858286016134fd565b9250506020613c0c85828601613693565b9150509250929050565b6000604082019050613c2b60008301856135f2565b613c386020830184613591565b9392505050565b60008060408385031215613c5657613c5561337d565b5b6000613c64858286016133d0565b9250506020613c7585828601613693565b9150509250929050565b600082825260208201905092915050565b6000613c9b8261387a565b613ca58185613c7f565b9350613cb5818560208601613896565b613cbe816133ef565b840191505092915050565b613cd281613917565b82525050565b613ce181613989565b82525050565b6000610180820190508181036000830152613d02818f613c90565b90508181036020830152613d16818e613c90565b9050613d25604083018d6135f2565b613d32606083018c613591565b613d3f608083018b613591565b613d4c60a083018a613591565b613d5960c0830189613591565b613d6660e0830188613591565b613d74610100830187613591565b613d826101208301866135f2565b613d90610140830185613cc9565b613d9e610160830184613cd8565b9d9c50505050505050505050505050565b60006101608284031215613dc657613dc5613764565b5b81905092915050565b60008060008060608587031215613de957613de861337d565b5b600085013567ffffffffffffffff811115613e0757613e06613382565b5b613e1387828801613626565b9450945050602085013567ffffffffffffffff811115613e3657613e35613382565b5b613e4287828801613daf565b9250506040613e53878288016133d0565b91505092959194509250565b6000602082019050613e746000830184613591565b92915050565b600060208284031215613e9057613e8f61337d565b5b6000613e9e848285016133d0565b91505092915050565b600060a082019050613ebc60008301886135f2565b613ec960208301876135f2565b613ed660408301866135f2565b613ee360608301856135f2565b613ef060808301846135f2565b9695505050505050565b600081519050919050565b600082825260208201905092915050565b6000819050602082019050919050565b604082016000820151613f3c60008501826138f9565b506020820151613f4f6020850182613908565b50505050565b6000613f618383613f26565b60408301905092915050565b6000602082019050919050565b6000613f8582613efa565b613f8f8185613f05565b9350613f9a83613f16565b8060005b83811015613fcb578151613fb28882613f55565b9750613fbd83613f6d565b925050600181019050613f9e565b5085935050505092915050565b60006020820190508181036000830152613ff28184613f7a565b905092915050565b6000806000604084860312156140135761401261337d565b5b600084013567ffffffffffffffff81111561403157614030613382565b5b61403d86828701613626565b93509350506020614050868287016133d0565b9150509250925092565b600081519050919050565b600082825260208201905092915050565b6000819050602082019050919050565b60006101608301600083015184820360008601526140a482826138c0565b915050602083015184820360208601526140be82826138c0565b915050604083015184820360408601526140d882826138c0565b91505060608301516140ed60608601826138f9565b5060808301516141006080860182613908565b5060a083015161411360a0860182613908565b5060c083015161412660c0860182613908565b5060e083015161413960e0860182613924565b5061010083015161414e610100860182613908565b50610120830151614163610120860182613908565b50610140830151614178610140860182613908565b508091505092915050565b600061418f8383614086565b905092915050565b6000602082019050919050565b60006141af8261405a565b6141b98185614065565b9350836020820285016141cb85614076565b8060005b8581101561420757848403895281516141e88582614183565b94506141f383614197565b925060208a019950506001810190506141cf565b50829750879550505050505092915050565b6000602082019050818103600083015261423381846141a4565b905092915050565b614244816135a0565b811461424f57600080fd5b50565b6000815190506142618161423b565b92915050565b60006020828403121561427d5761427c61337d565b5b600061428b84828501614252565b91505092915050565b7f4143434f554e545f4e4f545f414150524f564544000000000000000000000000600082015250565b60006142ca601483613c7f565b91506142d582614294565b602082019050919050565b600060208201905081810360008301526142f9816142bd565b9050919050565b600081905092915050565b60006143178385614300565b93506143248385846134ac565b82840190509392505050565b600061433d82848661430b565b91508190509392505050565b60006143558385613c7f565b93506143628385846134ac565b61436b836133ef565b840190509392505050565b60006020820190508181036000830152614391818486614349565b90509392505050565b7f4e487b7100000000000000000000000000000000000000000000000000000000600052601160045260246000fd5b60006143d482613587565b91506143df83613587565b92508282026143ed81613587565b915082820484148315176144045761440361439a565b5b5092915050565b7f4e487b7100000000000000000000000000000000000000000000000000000000600052601260045260246000fd5b600061444582613587565b915061445083613587565b9250826144605761445f61440b565b5b828206905092915050565b600061447682613587565b915061448183613587565b92508282019050808211156144995761449861439a565b5b92915050565b7f494e56414c49445f414d4f554e54000000000000000000000000000000000000600082015250565b60006144d5600e83613c7f565b91506144e08261449f565b602082019050919050565b60006020820190508181036000830152614504816144c8565b9050919050565b7f4e487b7100000000000000000000000000000000000000000000000000000000600052603260045260246000fd5b60006040820190508181036000830152614555818587614349565b90506145646020830184613591565b949350505050565b600060608201905061458160008301866135f2565b61458e60208301856135f2565b61459b6040830184613591565b949350505050565b600060408201905081810360008301526145be818587614349565b90506145cd60208301846135f2565b949350505050565b60006145e08261387a565b6145ea8185614300565b93506145fa818560208601613896565b80840191505092915050565b600061461282846145d5565b915081905092915050565b7f4f4e4c595f495353554552530000000000000000000000000000000000000000600082015250565b6000614653600c83613c7f565b915061465e8261461d565b602082019050919050565b6000602082019050818103600083015261468281614646565b9050919050565b7f494e56414c49445f4953535545525f4144445245535300000000000000000000600082015250565b60006146bf601683613c7f565b91506146ca82614689565b602082019050919050565b600060208201905081810360008301526146ee816146b2565b9050919050565b7f494e56414c49445f4445414c5f53544154555300000000000000000000000000600082015250565b600061472b601383613c7f565b9150614736826146f5565b602082019050919050565b6000602082019050818103600083015261475a8161471e565b9050919050565b600080fd5b600080fd5b600080fd5b6000808335600160200384360303811261478d5761478c614761565b5b80840192508235915067ffffffffffffffff8211156147af576147ae614766565b5b6020830192506001820236038313156147cb576147ca61476b565b5b509250929050565b600082905092915050565b7f4e487b7100000000000000000000000000000000000000000000000000000000600052602260045260246000fd5b6000600282049050600182168061482557607f821691505b602082108103614838576148376147de565b5b50919050565b60008190508160005260206000209050919050565b60006020601f8301049050919050565b600082821b905092915050565b6000600883026148a07fffffffffffffffffffffffffffffffffffffffffffffffffffffffffffffffff82614863565b6148aa8683614863565b95508019841693508086168417925050509392505050565b6000819050919050565b60006148e76148e26148dd84613587565b6148c2565b613587565b9050919050565b6000819050919050565b614901836148cc565b61491561490d826148ee565b848454614870565b825550505050565b600090565b61492a61491d565b6149358184846148f8565b505050565b5b818110156149595761494e600082614922565b60018101905061493b565b5050565b601f82111561499e5761496f8161483e565b61497884614853565b81016020851015614987578190505b61499b61499385614853565b83018261493a565b50505b505050565b600082821c905092915050565b60006149c1600019846008026149a3565b1980831691505092915050565b60006149da83836149b0565b9150826002028217905092915050565b6149f483836147d3565b67ffffffffffffffff811115614a0d57614a0c613400565b5b614a17825461480d565b614a2282828561495d565b6000601f831160018114614a515760008415614a3f578287013590505b614a4985826149ce565b865550614ab1565b601f198416614a5f8661483e565b60005b82811015614a8757848901358255600182019150602085019450602081019050614a62565b86831015614aa45784890135614aa0601f8916826149b0565b8355505b6001600288020188555050505b50505050505050565b614ac58383836149ea565b505050565b60008135614ad7816133b9565b80915050919050565b60008160001b9050919050565b600073ffffffffffffffffffffffffffffffffffffffff614b0d84614ae0565b9350801983169250808416831791505092915050565b6000614b3e614b39614b3484613387565b6148c2565b613387565b9050919050565b6000614b5082614b23565b9050919050565b6000614b6282614b45565b9050919050565b6000819050919050565b614b7c82614b57565b614b8f614b8882614b69565b8354614aed565b8255505050565b60008135614ba38161367c565b80915050919050565b60007fffffffffffffffffffffffffffffffffffffffffffffffffffffffffffffffff614bd884614ae0565b9350801983169250808416831791505092915050565b614bf7826148cc565b614c0a614c03826148ee565b8354614bac565b8255505050565b614c1a81613917565b8114614c2557600080fd5b50565b60008135614c3581614c11565b80915050919050565b60008160a01b9050919050565b600074ff0000000000000000000000000000000000000000614c6c84614c3e565b9350801983169250808416831791505092915050565b6000614c9d614c98614c9384613917565b6148c2565b613917565b9050919050565b6000819050919050565b614cb782614c82565b614cca614cc382614ca4565b8354614c4b565b8255505050565b60068110614cde57600080fd5b50565b60008135614cee81614cd1565b80915050919050565b60008160a81b9050919050565b600075ff000000000000000000000000000000000000000000614d2684614cf7565b9350801983169250808416831791505092915050565b6000614d4782613976565b9050919050565b6000819050919050565b614d6182614d3c565b614d74614d6d82614d4e565b8354614d04565b8255505050565b6000810160008301614d8d8185614770565b614d98818386614aba565b505050506001810160208301614dae8185614770565b614db9818386614aba565b50505050600281016040830180614dcf81614aca565b9050614ddb8184614b73565b505050600381016060830180614df081614b96565b9050614dfc8184614bee565b505050600481016080830180614e1181614b96565b9050614e1d8184614bee565b5050506005810160a0830180614e3281614b96565b9050614e3e8184614bee565b5050506006810160c0830180614e5381614b96565b9050614e5f8184614bee565b5050506007810160e0830180614e7481614b96565b9050614e808184614bee565b50505060088101610100830180614e9681614b96565b9050614ea28184614bee565b50505060098101610120830180614eb881614aca565b9050614ec48184614b73565b50505060098101610140830180614eda81614c28565b9050614ee68184614cae565b50505060098101610160830180614efc81614ce1565b9050614f088184614d58565b5050505050565b614f198282614d7b565b5050565b600081549050614f2c8161480d565b9050919050565b818103614f41575050615019565b614f4a82614f1d565b67ffffffffffffffff811115614f6357614f62613400565b5b614f6d825461480d565b614f7882828561495d565b6000601f831160018114614fa75760008415614f95578287015490505b614f9f85826149ce565b865550615012565b601f198416614fb58761483e565b9650614fc08661483e565b60005b82811015614fe857848901548255600182019150600185019450602081019050614fc3565b868310156150055784890154615001601f8916826149b0565b8355505b6001600288020188555050505b5050505050505b565b600080fd5b600080fd5b600080fd5b6000808335600160200384360303811261504757615046615025565b5b83810192508235915060208301925067ffffffffffffffff82111561506f5761506e61501b565b5b60018202360383131561508557615084615020565b5b509250929050565b60006150998385613885565b93506150a68385846134ac565b6150af836133ef565b840190509392505050565b60006150c960208401846133d0565b905092915050565b60006150e06020840184613693565b905092915050565b6000813590506150f781614c11565b92915050565b600061510c60208401846150e8565b905092915050565b60008135905061512381614cd1565b92915050565b60006151386020840184615114565b905092915050565b60006101808301615154600084018461502a565b858303600087015261516783828461508d565b92505050615178602084018461502a565b858303602087015261518b83828461508d565b9250505061519c60408401846150ba565b6151a960408601826138f9565b506151b760608401846150d1565b6151c46060860182613908565b506151d260808401846150d1565b6151df6080860182613908565b506151ed60a08401846150d1565b6151fa60a0860182613908565b5061520860c08401846150d1565b61521560c0860182613908565b5061522360e08401846150d1565b61523060e0860182613908565b5061523f6101008401846150d1565b61524d610100860182613908565b5061525c6101208401846150ba565b61526a6101208601826138f9565b506152796101408401846150fd565b615287610140860182613924565b50615296610160840184615129565b6152a461016086018261399b565b508091505092915050565b600060408201905081810360008301526152ca818587614349565b905081810360208301526152de8184615140565b9050949350505050565b7f4e4f545f4953535545525f4e4f525f544f504f535f4d414e4147455200000000600082015250565b600061531e601c83613c7f565b9150615329826152e8565b602082019050919050565b6000602082019050818103600083015261534d81615311565b9050919050565b7f494e56414c49445f544f4b454e5f414444524553530000000000000000000000600082015250565b600061538a601583613c7f565b915061539582615354565b602082019050919050565b600060208201905081810360008301526153b98161537d565b9050919050565b600060608201905081810360008301526153da8186613c90565b90506153e960208301856135f2565b6153f660408301846135f2565b949350505050565b7f4f4e4c595f544f504f535f4d414e414745520000000000000000000000000000600082015250565b6000615434601283613c7f565b915061543f826153fe565b602082019050919050565b6000602082019050818103600083015261546381615427565b9050919050565b6000610160830161547e600084018461502a565b858303600087015261549183828461508d565b925050506154a2602084018461502a565b85830360208701526154b583828461508d565b925050506154c6604084018461502a565b85830360408701526154d983828461508d565b925050506154ea60608401846150ba565b6154f760608601826138f9565b5061550560808401846150d1565b6155126080860182613908565b5061552060a08401846150d1565b61552d60a0860182613908565b5061553b60c08401846150d1565b61554860c0860182613908565b5061555660e08401846150fd565b61556360e0860182613924565b506155726101008401846150d1565b615580610100860182613908565b5061558f6101208401846150d1565b61559d610120860182613908565b506155ac6101408401846150d1565b6155ba610140860182613908565b508091505092915050565b600060208201905081810360008301526155df818461546a565b905092915050565b600060ff6155f484614ae0565b9350801983169250808416831791505092915050565b61561382614c82565b61562661561f82614ca4565b83546155e7565b8255505050565b600081016000830161563f8185614770565b61564a818386614aba565b5050505060018101602083016156608185614770565b61566b818386614aba565b5050505060028101604083016156818185614770565b61568c818386614aba565b505050506003810160608301806156a281614aca565b90506156ae8184614b73565b5050506004810160808301806156c381614b96565b90506156cf8184614bee565b5050506005810160a08301806156e481614b96565b90506156f08184614bee565b5050506006810160c083018061570581614b96565b90506157118184614bee565b5050506007810160e083018061572681614c28565b9050615732818461560a565b5050506008810161010083018061574881614b96565b90506157548184614bee565b5050506009810161012083018061576a81614b96565b90506157768184614bee565b505050600a810161014083018061578c81614b96565b90506157988184614bee565b5050505050565b6157a9828261562d565b5050565b7f494e56414c49445f434f4e54524143545f414444524553530000000000000000600082015250565b60006157e3601883613c7f565b91506157ee826157ad565b602082019050919050565b60006020820190508181036000830152615812816157d6565b9050919050565b7f4d414e4147455200000000000000000000000000000000000000000000000000600082015250565b600061584f600783613c7f565b915061585a82615819565b602082019050919050565b6000604082019050818103600083015261587e81615842565b905061588d60208301846135f2565b9291505056fea2646970667358221220fbf998567ccfb782ade2735b0dc3469be3f3910c0bd9ace4fe1d9635b604d9fc64736f6c63430008130033",
  "linkReferences": {},
  "deployedLinkReferences": {}
}