{
  "_format": "hh-sol-artifact-1",
  "contractName": "ToposTreasury",
  "sourceName": "contracts/treasury/ToposTreasury.sol",
  "abi": [
    {
      "inputs": [
        {
          "internalType": "address",
          "name": "_toposBankContract",
          "type": "address"
        }
      ],
      "stateMutability": "nonpayable",
      "type": "constructor"
    },
    {
      "inputs": [
        {
          "internalType": "string",
          "name": "_dealID",
          "type": "string"
        },
        {
          "internalType": "uint256",
          "name": "_amount",
          "type": "uint256"
        }
      ],
      "name": "addFunds",
      "outputs": [],
      "stateMutability": "nonpayable",
      "type": "function"
    },
    {
      "inputs": [
        {
          "internalType": "string",
          "name": "",
          "type": "string"
        }
      ],
      "name": "dealFunds",
      "outputs": [
        {
          "internalType": "uint256",
          "name": "",
          "type": "uint256"
        }
      ],
      "stateMutability": "view",
      "type": "function"
    },
    {
      "inputs": [],
      "name": "toposBankContract",
      "outputs": [
        {
          "internalType": "address",
          "name": "",
          "type": "address"
        }
      ],
      "stateMutability": "view",
      "type": "function"
    },
    {
      "inputs": [],
      "name": "toposManager",
      "outputs": [
        {
          "internalType": "address",
          "name": "",
          "type": "address"
        }
      ],
      "stateMutability": "view",
      "type": "function"
    },
    {
      "inputs": [
        {
          "internalType": "address",
          "name": "_newToposManager",
          "type": "address"
        }
      ],
      "name": "updateToposManager",
      "outputs": [],
      "stateMutability": "nonpayable",
      "type": "function"
    },
    {
      "inputs": [
        {
          "internalType": "address",
          "name": "_to",
          "type": "address"
        },
        {
          "internalType": "uint256",
          "name": "_amount",
          "type": "uint256"
        },
        {
          "internalType": "address",
          "name": "_tokenAddress",
          "type": "address"
        }
      ],
      "name": "withdraw",
      "outputs": [],
      "stateMutability": "nonpayable",
      "type": "function"
    },
    {
      "inputs": [
        {
          "internalType": "string",
          "name": "_dealID",
          "type": "string"
        },
        {
          "internalType": "address",
          "name": "_to",
          "type": "address"
        },
        {
          "internalType": "address",
          "name": "_tokenAddress",
          "type": "address"
        }
      ],
      "name": "withdrawFund",
      "outputs": [],
      "stateMutability": "nonpayable",
      "type": "function"
    }
  ],
  "bytecode": "0x60803461007a57601f61074638819003918201601f19168301916001600160401b0383118484101761007f5780849260209460405283398101031261007a57516001600160a01b0381169081900361007a5760018060a01b03193381600154161760015560025416176002556040516106b090816100968239f35b600080fd5b634e487b7160e01b600052604160045260246000fdfe6040608081526004908136101561001557600080fd5b600090813560e01c80634994a677146104d957806369328dec1461035a5780637e7783d5146102f85780637f31ed73146102d15780639c34712a146102aa578063a75ba119146101ef5763e04cd97f1461006e57600080fd5b346101eb5760603660031901126101eb57823567ffffffffffffffff81116101e75761009d9036908501610556565b6001600160a01b0360243581811681036101e3576100b9610601565b906100c983600154163314610617565b6100d2846105b2565b549283156101a057670de0b6b3a76400008085029485040361018d579261013592602092888097968b8a51978896879586936323b872dd60e01b8552309085016040919493929460608201956001600160a01b0380921683521660208201520152565b0393165af1801561018357610151939450610155575b506105b2565b5580f35b6101759060203d811161017c575b61016d818361051e565b810190610662565b508461014b565b503d610163565b84513d85823e3d90fd5b60248760118a634e487b7160e01b835252fd5b606488602088519162461bcd60e51b8352820152600860248201527f4e4f5f46554e44530000000000000000000000000000000000000000000000006044820152fd5b8480fd5b8280fd5b5080fd5b5082346101e757816003193601126101e75780359167ffffffffffffffff918284116101e357366023850112156101e357838101359283116101e35736602484860101116101e3576001600160a01b03600254163303610268575060248291519301833781019082825260208160243593030190205580f35b6020606492519162461bcd60e51b8352820152600f60248201527f4f4e4c595f544f504f535f42414e4b00000000000000000000000000000000006044820152fd5b50346101eb57816003193601126101eb576020906001600160a01b03600254169051908152f35b50346101eb57816003193601126101eb576020906001600160a01b03600154169051908152f35b8234610357576020366003190112610357576103126105eb565b7fffffffffffffffffffffffff0000000000000000000000000000000000000000600154916001600160a01b039061034d8285163314610617565b1691161760015580f35b80fd5b5091346101eb5760603660031901126101eb576103756105eb565b9260243593610382610601565b6001600160a01b039061039a82600154163314610617565b16908251937f70a0823100000000000000000000000000000000000000000000000000000000855230818601526020948581602481875afa9081156104cf57879161049e575b50871161045c5783516323b872dd60e01b8152309181019182526001600160a01b03909216602082015260408101879052909291849184919082908890829060600103925af19081156104535750610436578280f35b8161044c92903d1061017c5761016d818361051e565b5081808280f35b513d85823e3d90fd5b6064908585519162461bcd60e51b8352820152601260248201527f494e53554646494349454e545f46554e445300000000000000000000000000006044820152fd5b90508581813d83116104c8575b6104b5818361051e565b810103126104c45751386103e0565b8680fd5b503d6104ab565b85513d89823e3d90fd5b5090346103575760203660031901126103575782359067ffffffffffffffff8211610357575061051160209361051692369101610556565b6105b2565b549051908152f35b90601f8019910116810190811067ffffffffffffffff82111761054057604052565b634e487b7160e01b600052604160045260246000fd5b81601f820112156105ad5780359067ffffffffffffffff8211610540576040519261058b601f8401601f19166020018561051e565b828452602083830101116105ad57816000926020809301838601378301015290565b600080fd5b604051908181519160005b8381106105d65750506020918101600081520301902090565b602082820181015186830152859350016105bd565b600435906001600160a01b03821682036105ad57565b604435906001600160a01b03821682036105ad57565b1561061e57565b606460405162461bcd60e51b815260206004820152600b60248201527f4e4f545f414c4c4f5745440000000000000000000000000000000000000000006044820152fd5b908160209103126105ad575180151581036105ad579056fea264697066735822122092e70b3496527777873a3b1e2de36dbb41ab0bce98cd99c79fa2e9c2486fd3a264736f6c63430008130033",
  "linkReferences": {},
  "deployedLinkReferences": {}
}