{
  "_format": "hh-sol-artifact-1",
  "contractName": "Authentication",
  "sourceName": "contracts/Auth/Authentication.sol",
  "abi": [
    {
      "inputs": [
        {
          "internalType": "address",
          "name": "_identityRegistryContract",
          "type": "address"
        }
      ],
      "stateMutability": "nonpayable",
      "type": "constructor"
    },
    {
      "inputs": [],
      "name": "getSignatureHash",
      "outputs": [
        {
          "internalType": "string",
          "name": "",
          "type": "string"
        }
      ],
      "stateMutability": "view",
      "type": "function"
    },
    {
      "inputs": [],
      "name": "getUserAddress",
      "outputs": [
        {
          "internalType": "address",
          "name": "",
          "type": "address"
        }
      ],
      "stateMutability": "view",
      "type": "function"
    },
    {
      "inputs": [],
      "name": "identityRegistryContract",
      "outputs": [
        {
          "internalType": "address",
          "name": "",
          "type": "address"
        }
      ],
      "stateMutability": "view",
      "type": "function"
    },
    {
      "inputs": [],
      "name": "nbOfUsers",
      "outputs": [
        {
          "internalType": "uint256",
          "name": "",
          "type": "uint256"
        }
      ],
      "stateMutability": "view",
      "type": "function"
    },
    {
      "inputs": [
        {
          "internalType": "string",
          "name": "_signature",
          "type": "string"
        },
        {
          "internalType": "address",
          "name": "_user",
          "type": "address"
        }
      ],
      "name": "register",
      "outputs": [],
      "stateMutability": "nonpayable",
      "type": "function"
    }
  ],
  "bytecode": "0x608060405234801561001057600080fd5b506040516106ce3803806106ce83398101604081905261002f91610054565b600280546001600160a01b0319166001600160a01b0392909216919091179055610084565b60006020828403121561006657600080fd5b81516001600160a01b038116811461007d57600080fd5b9392505050565b61063b806100936000396000f3fe608060405234801561001057600080fd5b50600436106100675760003560e01c80631e59c529116100505780631e59c529146100b3578063c127ae41146100c8578063ebc3eee8146100dd57600080fd5b8063088674e01461006c578063126793231461009c575b600080fd5b60025461007f906001600160a01b031681565b6040516001600160a01b0390911681526020015b60405180910390f35b6100a560015481565b604051908152602001610093565b6100c66100c1366004610385565b6100fe565b005b6100d0610248565b6040516100939190610447565b336000908152602081905260409020600101546001600160a01b031661007f565b6002546001600160a01b0316331461015d5760405162461bcd60e51b815260206004820152601960248201527f4f4e4c595f49445f52454749535452595f434f4e54524143540000000000000060448201526064015b60405180910390fd5b6001600160a01b0381811660009081526020819052604090206001015416156101c85760405162461bcd60e51b815260206004820152601260248201527f414c52454144595f5245474953544552454400000000000000000000000000006044820152606401610154565b6001600160a01b03811660009081526020819052604090206101ea838261051e565b506001600160a01b0381166000818152602081905260408120600190810180547fffffffffffffffffffffffff0000000000000000000000000000000000000000169093179092558154919061023f836105de565b91905055505050565b336000818152602081905260409020600101546060916001600160a01b03909116146102b65760405162461bcd60e51b815260206004820152600b60248201527f4e6f7420616c6c6f7765640000000000000000000000000000000000000000006044820152606401610154565b33600090815260208190526040902080546102d090610495565b80601f01602080910402602001604051908101604052809291908181526020018280546102fc90610495565b80156103495780601f1061031e57610100808354040283529160200191610349565b820191906000526020600020905b81548152906001019060200180831161032c57829003601f168201915b5050505050905090565b634e487b7160e01b600052604160045260246000fd5b80356001600160a01b038116811461038057600080fd5b919050565b6000806040838503121561039857600080fd5b823567ffffffffffffffff808211156103b057600080fd5b818501915085601f8301126103c457600080fd5b8135818111156103d6576103d6610353565b604051601f8201601f19908116603f011681019083821181831017156103fe576103fe610353565b8160405282815288602084870101111561041757600080fd5b82602086016020830137600060208483010152809650505050505061043e60208401610369565b90509250929050565b600060208083528351808285015260005b8181101561047457858101830151858201604001528201610458565b506000604082860101526040601f19601f8301168501019250505092915050565b600181811c908216806104a957607f821691505b6020821081036104c957634e487b7160e01b600052602260045260246000fd5b50919050565b601f82111561051957600081815260208120601f850160051c810160208610156104f65750805b601f850160051c820191505b8181101561051557828155600101610502565b5050505b505050565b815167ffffffffffffffff81111561053857610538610353565b61054c816105468454610495565b846104cf565b602080601f83116001811461058157600084156105695750858301515b600019600386901b1c1916600185901b178555610515565b600085815260208120601f198616915b828110156105b057888601518255948401946001909101908401610591565b50858210156105ce5787850151600019600388901b60f8161c191681555b5050505050600190811b01905550565b6000600182016105fe57634e487b7160e01b600052601160045260246000fd5b506001019056fea26469706673582212202020b9cec4f515a3e747576c5f962f820f79e479a25a046321641485e8bd008e64736f6c63430008130033",
  "linkReferences": {},
  "deployedLinkReferences": {}
}