{
  "_format": "hh-sol-artifact-1",
  "contractName": "Authentication",
  "sourceName": "contracts/Auth/Authentication.sol",
  "abi": [
    {
      "inputs": [
        {
          "internalType": "address",
          "name": "_identityRegistryContract",
          "type": "address"
        }
      ],
      "stateMutability": "nonpayable",
      "type": "constructor"
    },
    {
      "inputs": [],
      "name": "getSignatureHash",
      "outputs": [
        {
          "internalType": "string",
          "name": "",
          "type": "string"
        }
      ],
      "stateMutability": "view",
      "type": "function"
    },
    {
      "inputs": [],
      "name": "getUserAddress",
      "outputs": [
        {
          "internalType": "address",
          "name": "",
          "type": "address"
        }
      ],
      "stateMutability": "view",
      "type": "function"
    },
    {
      "inputs": [],
      "name": "identityRegistryContract",
      "outputs": [
        {
          "internalType": "address",
          "name": "",
          "type": "address"
        }
      ],
      "stateMutability": "view",
      "type": "function"
    },
    {
      "inputs": [],
      "name": "nbOfUsers",
      "outputs": [
        {
          "internalType": "uint256",
          "name": "",
          "type": "uint256"
        }
      ],
      "stateMutability": "view",
      "type": "function"
    },
    {
      "inputs": [
        {
          "internalType": "string",
          "name": "_signature",
          "type": "string"
        },
        {
          "internalType": "address",
          "name": "_user",
          "type": "address"
        }
      ],
      "name": "register",
      "outputs": [],
      "stateMutability": "nonpayable",
      "type": "function"
    }
  ],
  "bytecode": "0x60803461007457601f61067638819003918201601f19168301916001600160401b038311848410176100795780849260209460405283398101031261007457516001600160a01b0381169081900361007457600280546001600160a01b0319169190911790556040516105e690816100908239f35b600080fd5b634e487b7160e01b600052604160045260246000fdfe608060408181526004918236101561001657600080fd5b600092833560e01c918263088674e01461050c5750816312679323146104ed5781631e59c52914610210578163c127ae411461009c575063ebc3eee81461005c57600080fd5b3461009857816003193601126100985773ffffffffffffffffffffffffffffffffffffffff600182602094338152808652200154169051908152f35b5080fd5b90503461020c578260031936011261020c5733835260209280845260019173ffffffffffffffffffffffffffffffffffffffff8385842001541633036101ca575033815280845283838220845193849184918154916100fa83610576565b808652928281169081156101a7575060011461016a575b505050610124925095939295038261053e565b82519382859384528251928382860152825b84811061015457505050828201840152601f01601f19168101030190f35b8181018301518882018801528795508201610136565b86528486209492508591905b81831061018f5750889450508201016101243880610111565b85548884018501529485019487945091830191610176565b9250505061012494925060ff191682840152151560051b82010186923880610111565b6064908585519162461bcd60e51b8352820152600b60248201527f4e6f7420616c6c6f7765640000000000000000000000000000000000000000006044820152fd5b8280fd5b83833461009857806003193601126100985782359267ffffffffffffffff908185116104e957366023860112156104e957848101358281116104d6578351936020601f19926102668285601f840116018861053e565b808752602498368a83830101116104d2578189928b859301838b01378801015287359273ffffffffffffffffffffffffffffffffffffffff958685168095036104d257866002541633036104915784895288835260019687858b20015416610450579088929185845283835284842091895191821161043e5788996102ef849a98999a54610576565b601f81116103e6575b508491601f8411600114610384575085919083610379575b5050600019600383901b1c191690861b1790555b84825252852001907fffffffffffffffffffffffff0000000000000000000000000000000000000000825416179055815490600019821461036757508101905580f35b8360118692634e487b7160e01b835252fd5b015190508c80610310565b8487528587209291908416875b8181106103cc575090848a95949392106103b3575b505050811b019055610324565b015160001960f88460031b161c191690558c80806103a6565b8383015185558d9a8f995090940193928701928701610391565b9193958691939597985052858b20601f850160051c810191878610610434575b918b9897959391601f8e9896940160051c01905b81811061042757506102f8565b9687558b988d970161041a565b9091508190610406565b8b8560418a634e487b7160e01b835252fd5b60648660128c8688519362461bcd60e51b85528401528201527f414c52454144595f5245474953544552454400000000000000000000000000006044820152fd5b60648660198c8688519362461bcd60e51b85528401528201527f4f4e4c595f49445f52454749535452595f434f4e5452414354000000000000006044820152fd5b8880fd5b602485604184634e487b7160e01b835252fd5b8380fd5b5050346100985781600319360112610098576020906001549051908152f35b84903461009857816003193601126100985760209073ffffffffffffffffffffffffffffffffffffffff600254168152f35b90601f8019910116810190811067ffffffffffffffff82111761056057604052565b634e487b7160e01b600052604160045260246000fd5b90600182811c921680156105a6575b602083101461059057565b634e487b7160e01b600052602260045260246000fd5b91607f169161058556fea2646970667358221220e7f42d8a2f928337cace069eab07b970c91bde085b014dc168e11cba0bc8cd8f64736f6c63430008130033",
  "linkReferences": {},
  "deployedLinkReferences": {}
}