{
  "_format": "hh-sol-artifact-1",
  "contractName": "BondTopos",
  "sourceName": "contracts/BondTopos.sol",
  "abi": [
    {
      "inputs": [
        {
          "internalType": "string",
          "name": "_dealID",
          "type": "string"
        },
        {
          "internalType": "address",
          "name": "_issuerWalletAddress",
          "type": "address"
        },
        {
          "internalType": "string",
          "name": "_countryOfIssuance",
          "type": "string"
        }
      ],
      "stateMutability": "nonpayable",
      "type": "constructor"
    },
    {
      "anonymous": false,
      "inputs": [
        {
          "indexed": false,
          "internalType": "address",
          "name": "_owner",
          "type": "address"
        },
        {
          "indexed": false,
          "internalType": "address",
          "name": "_spender",
          "type": "address"
        },
        {
          "indexed": false,
          "internalType": "uint256",
          "name": "_amount",
          "type": "uint256"
        }
      ],
      "name": "Approval",
      "type": "event"
    },
    {
      "anonymous": false,
      "inputs": [
        {
          "indexed": false,
          "internalType": "address",
          "name": "_from",
          "type": "address"
        },
        {
          "indexed": false,
          "internalType": "address",
          "name": "_to",
          "type": "address"
        },
        {
          "indexed": false,
          "internalType": "uint256",
          "name": "_amount",
          "type": "uint256"
        }
      ],
      "name": "Transfer",
      "type": "event"
    },
    {
      "inputs": [
        {
          "internalType": "address",
          "name": "_owner",
          "type": "address"
        },
        {
          "internalType": "address",
          "name": "_spender",
          "type": "address"
        }
      ],
      "name": "allowance",
      "outputs": [
        {
          "internalType": "uint256",
          "name": "",
          "type": "uint256"
        }
      ],
      "stateMutability": "view",
      "type": "function"
    },
    {
      "inputs": [
        {
          "internalType": "address",
          "name": "_spender",
          "type": "address"
        },
        {
          "internalType": "uint256",
          "name": "_amount",
          "type": "uint256"
        }
      ],
      "name": "approve",
      "outputs": [
        {
          "internalType": "bool",
          "name": "",
          "type": "bool"
        }
      ],
      "stateMutability": "nonpayable",
      "type": "function"
    },
    {
      "inputs": [
        {
          "internalType": "address",
          "name": "_account",
          "type": "address"
        }
      ],
      "name": "balanceOf",
      "outputs": [
        {
          "internalType": "uint256",
          "name": "",
          "type": "uint256"
        }
      ],
      "stateMutability": "view",
      "type": "function"
    },
    {
      "inputs": [],
      "name": "bondManager",
      "outputs": [
        {
          "internalType": "address",
          "name": "",
          "type": "address"
        }
      ],
      "stateMutability": "view",
      "type": "function"
    },
    {
      "inputs": [],
      "name": "bondStatus",
      "outputs": [
        {
          "internalType": "enum BondData.BondStatus",
          "name": "",
          "type": "uint8"
        }
      ],
      "stateMutability": "view",
      "type": "function"
    },
    {
      "inputs": [
        {
          "internalType": "string",
          "name": "",
          "type": "string"
        }
      ],
      "name": "bonds",
      "outputs": [
        {
          "internalType": "string",
          "name": "isin",
          "type": "string"
        },
        {
          "internalType": "string",
          "name": "name",
          "type": "string"
        },
        {
          "internalType": "string",
          "name": "symbol",
          "type": "string"
        },
        {
          "internalType": "address",
          "name": "currency",
          "type": "address"
        },
        {
          "internalType": "uint256",
          "name": "denomination",
          "type": "uint256"
        },
        {
          "internalType": "uint256",
          "name": "issueVolume",
          "type": "uint256"
        },
        {
          "internalType": "uint256",
          "name": "couponRate",
          "type": "uint256"
        },
        {
          "internalType": "uint8",
          "name": "couponType",
          "type": "uint8"
        },
        {
          "internalType": "uint256",
          "name": "couponFrequency",
          "type": "uint256"
        },
        {
          "internalType": "uint256",
          "name": "issueDate",
          "type": "uint256"
        },
        {
          "internalType": "uint256",
          "name": "maturityDate",
          "type": "uint256"
        }
      ],
      "stateMutability": "view",
      "type": "function"
    },
    {
      "inputs": [],
      "name": "couponFrequency",
      "outputs": [
        {
          "internalType": "uint256",
          "name": "",
          "type": "uint256"
        }
      ],
      "stateMutability": "view",
      "type": "function"
    },
    {
      "inputs": [],
      "name": "couponRate",
      "outputs": [
        {
          "internalType": "uint256",
          "name": "",
          "type": "uint256"
        }
      ],
      "stateMutability": "view",
      "type": "function"
    },
    {
      "inputs": [],
      "name": "couponType",
      "outputs": [
        {
          "internalType": "uint8",
          "name": "",
          "type": "uint8"
        }
      ],
      "stateMutability": "view",
      "type": "function"
    },
    {
      "inputs": [],
      "name": "currency",
      "outputs": [
        {
          "internalType": "address",
          "name": "",
          "type": "address"
        }
      ],
      "stateMutability": "view",
      "type": "function"
    },
    {
      "inputs": [],
      "name": "dealID",
      "outputs": [
        {
          "internalType": "string",
          "name": "",
          "type": "string"
        }
      ],
      "stateMutability": "view",
      "type": "function"
    },
    {
      "inputs": [
        {
          "internalType": "address",
          "name": "_spender",
          "type": "address"
        },
        {
          "internalType": "uint256",
          "name": "_amount",
          "type": "uint256"
        }
      ],
      "name": "decreaseAllowance",
      "outputs": [],
      "stateMutability": "nonpayable",
      "type": "function"
    },
    {
      "inputs": [],
      "name": "denomination",
      "outputs": [
        {
          "internalType": "uint256",
          "name": "",
          "type": "uint256"
        }
      ],
      "stateMutability": "view",
      "type": "function"
    },
    {
      "inputs": [],
      "name": "getDealID",
      "outputs": [
        {
          "internalType": "string",
          "name": "",
          "type": "string"
        }
      ],
      "stateMutability": "view",
      "type": "function"
    },
    {
      "inputs": [],
      "name": "getListOfInvestors",
      "outputs": [
        {
          "components": [
            {
              "internalType": "address",
              "name": "investor",
              "type": "address"
            },
            {
              "internalType": "uint256",
              "name": "amount",
              "type": "uint256"
            }
          ],
          "internalType": "struct BondData.DealInvestment[]",
          "name": "",
          "type": "tuple[]"
        }
      ],
      "stateMutability": "view",
      "type": "function"
    },
    {
      "inputs": [
        {
          "internalType": "address",
          "name": "_toposBankContract",
          "type": "address"
        },
        {
          "internalType": "address",
          "name": "_bondCallContractAddress",
          "type": "address"
        },
        {
          "internalType": "address",
          "name": "_identiRegistryContract",
          "type": "address"
        }
      ],
      "name": "initialize",
      "outputs": [],
      "stateMutability": "nonpayable",
      "type": "function"
    },
    {
      "inputs": [],
      "name": "isInitialized",
      "outputs": [
        {
          "internalType": "bool",
          "name": "",
          "type": "bool"
        }
      ],
      "stateMutability": "view",
      "type": "function"
    },
    {
      "inputs": [
        {
          "internalType": "address",
          "name": "",
          "type": "address"
        }
      ],
      "name": "isInvestor",
      "outputs": [
        {
          "internalType": "bool",
          "name": "",
          "type": "bool"
        }
      ],
      "stateMutability": "view",
      "type": "function"
    },
    {
      "inputs": [],
      "name": "isin",
      "outputs": [
        {
          "internalType": "string",
          "name": "",
          "type": "string"
        }
      ],
      "stateMutability": "view",
      "type": "function"
    },
    {
      "inputs": [
        {
          "components": [
            {
              "internalType": "string",
              "name": "isin",
              "type": "string"
            },
            {
              "internalType": "string",
              "name": "name",
              "type": "string"
            },
            {
              "internalType": "string",
              "name": "symbol",
              "type": "string"
            },
            {
              "internalType": "address",
              "name": "currency",
              "type": "address"
            },
            {
              "internalType": "uint256",
              "name": "denomination",
              "type": "uint256"
            },
            {
              "internalType": "uint256",
              "name": "issueVolume",
              "type": "uint256"
            },
            {
              "internalType": "uint256",
              "name": "couponRate",
              "type": "uint256"
            },
            {
              "internalType": "uint8",
              "name": "couponType",
              "type": "uint8"
            },
            {
              "internalType": "uint256",
              "name": "couponFrequency",
              "type": "uint256"
            },
            {
              "internalType": "uint256",
              "name": "issueDate",
              "type": "uint256"
            },
            {
              "internalType": "uint256",
              "name": "maturityDate",
              "type": "uint256"
            }
          ],
          "internalType": "struct BondData.Bond",
          "name": "_bond",
          "type": "tuple"
        }
      ],
      "name": "issue",
      "outputs": [],
      "stateMutability": "nonpayable",
      "type": "function"
    },
    {
      "inputs": [
        {
          "internalType": "string",
          "name": "",
          "type": "string"
        }
      ],
      "name": "issueData",
      "outputs": [
        {
          "internalType": "address",
          "name": "issuerWalletAddress",
          "type": "address"
        },
        {
          "internalType": "string",
          "name": "countryOfIssuance",
          "type": "string"
        },
        {
          "internalType": "address",
          "name": "bondCallContract",
          "type": "address"
        },
        {
          "internalType": "address",
          "name": "identyRegistryContract",
          "type": "address"
        }
      ],
      "stateMutability": "view",
      "type": "function"
    },
    {
      "inputs": [],
      "name": "issueDate",
      "outputs": [
        {
          "internalType": "uint256",
          "name": "",
          "type": "uint256"
        }
      ],
      "stateMutability": "view",
      "type": "function"
    },
    {
      "inputs": [],
      "name": "issueVolume",
      "outputs": [
        {
          "internalType": "uint256",
          "name": "",
          "type": "uint256"
        }
      ],
      "stateMutability": "view",
      "type": "function"
    },
    {
      "inputs": [],
      "name": "maturityDate",
      "outputs": [
        {
          "internalType": "uint256",
          "name": "",
          "type": "uint256"
        }
      ],
      "stateMutability": "view",
      "type": "function"
    },
    {
      "inputs": [],
      "name": "name",
      "outputs": [
        {
          "internalType": "string",
          "name": "",
          "type": "string"
        }
      ],
      "stateMutability": "view",
      "type": "function"
    },
    {
      "inputs": [
        {
          "internalType": "address",
          "name": "_account",
          "type": "address"
        }
      ],
      "name": "principalOf",
      "outputs": [
        {
          "internalType": "uint256",
          "name": "",
          "type": "uint256"
        }
      ],
      "stateMutability": "view",
      "type": "function"
    },
    {
      "inputs": [],
      "name": "redeem",
      "outputs": [],
      "stateMutability": "nonpayable",
      "type": "function"
    },
    {
      "inputs": [],
      "name": "symbol",
      "outputs": [
        {
          "internalType": "string",
          "name": "",
          "type": "string"
        }
      ],
      "stateMutability": "view",
      "type": "function"
    },
    {
      "inputs": [],
      "name": "toposBankContract",
      "outputs": [
        {
          "internalType": "address",
          "name": "",
          "type": "address"
        }
      ],
      "stateMutability": "view",
      "type": "function"
    },
    {
      "inputs": [],
      "name": "totalSupply",
      "outputs": [
        {
          "internalType": "uint256",
          "name": "",
          "type": "uint256"
        }
      ],
      "stateMutability": "view",
      "type": "function"
    },
    {
      "inputs": [
        {
          "internalType": "address",
          "name": "_to",
          "type": "address"
        },
        {
          "internalType": "uint256",
          "name": "_amount",
          "type": "uint256"
        },
        {
          "internalType": "bytes",
          "name": "_data",
          "type": "bytes"
        }
      ],
      "name": "transfer",
      "outputs": [
        {
          "internalType": "bool",
          "name": "",
          "type": "bool"
        }
      ],
      "stateMutability": "nonpayable",
      "type": "function"
    },
    {
      "inputs": [
        {
          "internalType": "address",
          "name": "_from",
          "type": "address"
        },
        {
          "internalType": "address",
          "name": "_to",
          "type": "address"
        },
        {
          "internalType": "uint256",
          "name": "_amount",
          "type": "uint256"
        },
        {
          "internalType": "bytes",
          "name": "_data",
          "type": "bytes"
        }
      ],
      "name": "transferFrom",
      "outputs": [
        {
          "internalType": "bool",
          "name": "",
          "type": "bool"
        }
      ],
      "stateMutability": "nonpayable",
      "type": "function"
    }
  ],
  "bytecode": "0x60806040523480156200001157600080fd5b506040516200508c3803806200508c833981810160405281019062000037919062000320565b826005908162000048919062000605565b5033600660006101000a81548173ffffffffffffffffffffffffffffffffffffffff021916908373ffffffffffffffffffffffffffffffffffffffff160217905550816000846040516200009d91906200072e565b908152602001604051809103902060000160006101000a81548173ffffffffffffffffffffffffffffffffffffffff021916908373ffffffffffffffffffffffffffffffffffffffff16021790555080600084604051620000ff91906200072e565b908152602001604051809103902060010190816200011e919062000605565b5050505062000747565b6000604051905090565b600080fd5b600080fd5b600080fd5b600080fd5b6000601f19601f8301169050919050565b7f4e487b7100000000000000000000000000000000000000000000000000000000600052604160045260246000fd5b620001918262000146565b810181811067ffffffffffffffff82111715620001b357620001b262000157565b5b80604052505050565b6000620001c862000128565b9050620001d6828262000186565b919050565b600067ffffffffffffffff821115620001f957620001f862000157565b5b620002048262000146565b9050602081019050919050565b60005b838110156200023157808201518184015260208101905062000214565b60008484015250505050565b6000620002546200024e84620001db565b620001bc565b90508281526020810184848401111562000273576200027262000141565b5b6200028084828562000211565b509392505050565b600082601f830112620002a0576200029f6200013c565b5b8151620002b28482602086016200023d565b91505092915050565b600073ffffffffffffffffffffffffffffffffffffffff82169050919050565b6000620002e882620002bb565b9050919050565b620002fa81620002db565b81146200030657600080fd5b50565b6000815190506200031a81620002ef565b92915050565b6000806000606084860312156200033c576200033b62000132565b5b600084015167ffffffffffffffff8111156200035d576200035c62000137565b5b6200036b8682870162000288565b93505060206200037e8682870162000309565b925050604084015167ffffffffffffffff811115620003a257620003a162000137565b5b620003b08682870162000288565b9150509250925092565b600081519050919050565b7f4e487b7100000000000000000000000000000000000000000000000000000000600052602260045260246000fd5b600060028204905060018216806200040d57607f821691505b602082108103620004235762000422620003c5565b5b50919050565b60008190508160005260206000209050919050565b60006020601f8301049050919050565b600082821b905092915050565b6000600883026200048d7fffffffffffffffffffffffffffffffffffffffffffffffffffffffffffffffff826200044e565b6200049986836200044e565b95508019841693508086168417925050509392505050565b6000819050919050565b6000819050919050565b6000620004e6620004e0620004da84620004b1565b620004bb565b620004b1565b9050919050565b6000819050919050565b6200050283620004c5565b6200051a6200051182620004ed565b8484546200045b565b825550505050565b600090565b6200053162000522565b6200053e818484620004f7565b505050565b5b8181101562000566576200055a60008262000527565b60018101905062000544565b5050565b601f821115620005b5576200057f8162000429565b6200058a846200043e565b810160208510156200059a578190505b620005b2620005a9856200043e565b83018262000543565b50505b505050565b600082821c905092915050565b6000620005da60001984600802620005ba565b1980831691505092915050565b6000620005f58383620005c7565b9150826002028217905092915050565b6200061082620003ba565b67ffffffffffffffff8111156200062c576200062b62000157565b5b620006388254620003f4565b620006458282856200056a565b600060209050601f8311600181146200067d576000841562000668578287015190505b620006748582620005e7565b865550620006e4565b601f1984166200068d8662000429565b60005b82811015620006b75784890151825560018201915060208501945060208101905062000690565b86831015620006d75784890151620006d3601f891682620005c7565b8355505b6001600288020188555050505b505050505050565b600081905092915050565b60006200070482620003ba565b620007108185620006ec565b93506200072281856020860162000211565b80840191505092915050565b60006200073c8284620006f7565b915081905092915050565b61493580620007576000396000f3fe608060405234801561001057600080fd5b50600436106101f05760003560e01c80638db6f28a1161010f578063c0c53b8b116100a2578063d76805aa11610071578063d76805aa146105c2578063dcaa7332146105de578063dd62ed3e146105fc578063e5a6b10f1461062c576101f0565b8063c0c53b8b1461053a578063c16aa77914610556578063cee2a9cf14610574578063d59624b4146105a4576101f0565b8063ab67aa58116100de578063ab67aa58146104b2578063be040fb0146104e2578063be45fd62146104ec578063c0bcb26f1461051c576101f0565b80638db6f28a1461043c57806395d89b411461045a5780639c34712a14610478578063a457c2d714610496576101f0565b80635eb0b3d01161018757806373975df11161015657806373975df1146103c457806382d5a60d146103e25780638bca6d16146104005780638d1343e01461041e576101f0565b80635eb0b3d01461032857806361e20a1c1461034657806370a0823114610376578063710d3329146103a6576101f0565b8063363cc427116101c3578063363cc4271461027f578063392e53cd1461029d57806341d6a582146102bb57806346e8de21146102ee576101f0565b8063045017ce146101f557806306fdde0314610213578063095ea7b31461023157806318160ddd14610261575b600080fd5b6101fd61064a565b60405161020a9190612cf9565b60405180910390f35b61021b610681565b6040516102289190612da4565b60405180910390f35b61024b60048036038101906102469190612e6e565b610733565b6040516102589190612ec9565b60405180910390f35b610269610852565b6040516102769190612ef3565b60405180910390f35b6102876108a9565b6040516102949190612f1d565b60405180910390f35b6102a56108cf565b6040516102b29190612ec9565b60405180910390f35b6102d560048036038101906102d0919061306d565b6108e2565b6040516102e594939291906130b6565b60405180910390f35b6103086004803603810190610303919061306d565b610a10565b60405161031f9b9a99989796959493929190613102565b60405180910390f35b610330610c45565b60405161033d9190612ef3565b60405180910390f35b610360600480360381019061035b91906131c2565b610c6f565b60405161036d9190612ef3565b60405180910390f35b610390600480360381019061038b91906131c2565b610cb8565b60405161039d9190612ef3565b60405180910390f35b6103ae610d2e565b6040516103bb9190612ef3565b60405180910390f35b6103cc610d58565b6040516103d99190612da4565b60405180910390f35b6103ea610de6565b6040516103f79190612da4565b60405180910390f35b610408610e98565b6040516104159190612ef3565b60405180910390f35b610426610ec2565b6040516104339190612ef3565b60405180910390f35b610444610eec565b60405161045191906132eb565b60405180910390f35b610462610fab565b60405161046f9190612da4565b60405180910390f35b61048061105d565b60405161048d9190612f1d565b60405180910390f35b6104b060048036038101906104ab9190612e6e565b611083565b005b6104cc60048036038101906104c7919061336d565b611098565b6040516104d99190612ec9565b60405180910390f35b6104ea6111c7565b005b610506600480360381019061050191906133f5565b611261565b6040516105139190612ec9565b60405180910390f35b610524611384565b6040516105319190612ef3565b60405180910390f35b610554600480360381019061054f9190613469565b6113ae565b005b61055e6115b1565b60405161056b9190613533565b60405180910390f35b61058e600480360381019061058991906131c2565b6115c4565b60405161059b9190612ec9565b60405180910390f35b6105ac6115e4565b6040516105b99190612ef3565b60405180910390f35b6105dc60048036038101906105d79190613573565b61160e565b005b6105e66116aa565b6040516105f39190612da4565b60405180910390f35b610616600480360381019061061191906135bc565b61173c565b6040516106239190612ef3565b60405180910390f35b6106346117c3565b6040516106419190612f1d565b60405180910390f35b60006001600560405161065d91906136ff565b908152602001604051809103902060070160009054906101000a900460ff16905090565b60606001600560405161069491906136ff565b908152602001604051809103902060010180546106b09061362b565b80601f01602080910402602001604051908101604052809291908181526020018280546106dc9061362b565b80156107295780601f106106fe57610100808354040283529160200191610729565b820191906000526020600020905b81548152906001019060200180831161070c57829003601f168201915b5050505050905090565b600082600080600560405161074891906136ff565b908152602001604051809103902060030160009054906101000a900473ffffffffffffffffffffffffffffffffffffffff1690508073ffffffffffffffffffffffffffffffffffffffff1663b9209e33836040518263ffffffff1660e01b81526004016107b59190612f1d565b602060405180830381865afa1580156107d2573d6000803e3d6000fd5b505050506040513d601f19601f820116820180604052508101906107f69190613742565b610835576040517f08c379a000000000000000000000000000000000000000000000000000000000815260040161082c906137bb565b60405180910390fd5b600032905061084581878761180d565b6001935050505092915050565b60006001600560405161086591906136ff565b9081526020016040518091039020600401546001600560405161088891906136ff565b9081526020016040518091039020600501546108a49190613839565b905090565b600660009054906101000a900473ffffffffffffffffffffffffffffffffffffffff1681565b600760149054906101000a900460ff1681565b6000818051602081018201805184825260208301602085012081835280955050505050506000915090508060000160009054906101000a900473ffffffffffffffffffffffffffffffffffffffff16908060010180546109419061362b565b80601f016020809104026020016040519081016040528092919081815260200182805461096d9061362b565b80156109ba5780601f1061098f576101008083540402835291602001916109ba565b820191906000526020600020905b81548152906001019060200180831161099d57829003601f168201915b5050505050908060020160009054906101000a900473ffffffffffffffffffffffffffffffffffffffff16908060030160009054906101000a900473ffffffffffffffffffffffffffffffffffffffff16905084565b600181805160208101820180518482526020830160208501208183528095505050505050600091509050806000018054610a499061362b565b80601f0160208091040260200160405190810160405280929190818152602001828054610a759061362b565b8015610ac25780601f10610a9757610100808354040283529160200191610ac2565b820191906000526020600020905b815481529060010190602001808311610aa557829003601f168201915b505050505090806001018054610ad79061362b565b80601f0160208091040260200160405190810160405280929190818152602001828054610b039061362b565b8015610b505780601f10610b2557610100808354040283529160200191610b50565b820191906000526020600020905b815481529060010190602001808311610b3357829003601f168201915b505050505090806002018054610b659061362b565b80601f0160208091040260200160405190810160405280929190818152602001828054610b919061362b565b8015610bde5780601f10610bb357610100808354040283529160200191610bde565b820191906000526020600020905b815481529060010190602001808311610bc157829003601f168201915b5050505050908060030160009054906101000a900473ffffffffffffffffffffffffffffffffffffffff16908060040154908060050154908060060154908060070160009054906101000a900460ff169080600801549080600901549080600a015490508b565b600060016005604051610c5891906136ff565b908152602001604051809103902060080154905090565b6000600260008373ffffffffffffffffffffffffffffffffffffffff1673ffffffffffffffffffffffffffffffffffffffff168152602001908152602001600020549050919050565b600060016005604051610ccb91906136ff565b908152602001604051809103902060040154600260008473ffffffffffffffffffffffffffffffffffffffff1673ffffffffffffffffffffffffffffffffffffffff16815260200190815260200160002054610d279190613839565b9050919050565b600060016005604051610d4191906136ff565b908152602001604051809103902060050154905090565b60058054610d659061362b565b80601f0160208091040260200160405190810160405280929190818152602001828054610d919061362b565b8015610dde5780601f10610db357610100808354040283529160200191610dde565b820191906000526020600020905b815481529060010190602001808311610dc157829003601f168201915b505050505081565b606060016005604051610df991906136ff565b90815260200160405180910390206000018054610e159061362b565b80601f0160208091040260200160405190810160405280929190818152602001828054610e419061362b565b8015610e8e5780601f10610e6357610100808354040283529160200191610e8e565b820191906000526020600020905b815481529060010190602001808311610e7157829003601f168201915b5050505050905090565b600060016005604051610eab91906136ff565b908152602001604051809103902060040154905090565b600060016005604051610ed591906136ff565b908152602001604051809103902060090154905090565b60606008805480602002602001604051908101604052809291908181526020016000905b82821015610fa257838290600052602060002090600202016040518060400160405290816000820160009054906101000a900473ffffffffffffffffffffffffffffffffffffffff1673ffffffffffffffffffffffffffffffffffffffff1673ffffffffffffffffffffffffffffffffffffffff16815260200160018201548152505081526020019060010190610f10565b50505050905090565b606060016005604051610fbe91906136ff565b90815260200160405180910390206002018054610fda9061362b565b80601f01602080910402602001604051908101604052809291908181526020018280546110069061362b565b80156110535780601f1061102857610100808354040283529160200191611053565b820191906000526020600020905b81548152906001019060200180831161103657829003601f168201915b5050505050905090565b600760009054906101000a900473ffffffffffffffffffffffffffffffffffffffff1681565b6000329050611093818484611c00565b505050565b60008460008060056040516110ad91906136ff565b908152602001604051809103902060030160009054906101000a900473ffffffffffffffffffffffffffffffffffffffff1690508073ffffffffffffffffffffffffffffffffffffffff1663b9209e33836040518263ffffffff1660e01b815260040161111a9190612f1d565b602060405180830381865afa158015611137573d6000803e3d6000fd5b505050506040513d601f19601f8201168201806040525081019061115b9190613742565b61119a576040517f08c379a0000000000000000000000000000000000000000000000000000000008152600401611191906137bb565b60405180910390fd5b60003290506111aa898289611f9d565b6111b789898989896120ea565b6001935050505095945050505050565b600760009054906101000a900473ffffffffffffffffffffffffffffffffffffffff1673ffffffffffffffffffffffffffffffffffffffff163373ffffffffffffffffffffffffffffffffffffffff1614611257576040517f08c379a000000000000000000000000000000000000000000000000000000000815260040161124e906138b6565b60405180910390fd5b61125f6124c4565b565b600084600080600560405161127691906136ff565b908152602001604051809103902060030160009054906101000a900473ffffffffffffffffffffffffffffffffffffffff1690508073ffffffffffffffffffffffffffffffffffffffff1663b9209e33836040518263ffffffff1660e01b81526004016112e39190612f1d565b602060405180830381865afa158015611300573d6000803e3d6000fd5b505050506040513d601f19601f820116820180604052508101906113249190613742565b611363576040517f08c379a000000000000000000000000000000000000000000000000000000000815260040161135a906137bb565b60405180910390fd5b600032905061137581898989896120ea565b60019350505050949350505050565b60006001600560405161139791906136ff565b908152602001604051809103902060060154905090565b600660009054906101000a900473ffffffffffffffffffffffffffffffffffffffff1673ffffffffffffffffffffffffffffffffffffffff163373ffffffffffffffffffffffffffffffffffffffff161461143e576040517f08c379a000000000000000000000000000000000000000000000000000000000815260040161143590613922565b60405180910390fd5b600760149054906101000a900460ff161561148e576040517f08c379a00000000000000000000000000000000000000000000000000000000081526004016114859061398e565b60405180910390fd5b82600760006101000a81548173ffffffffffffffffffffffffffffffffffffffff021916908373ffffffffffffffffffffffffffffffffffffffff16021790555081600060056040516114e191906136ff565b908152602001604051809103902060020160006101000a81548173ffffffffffffffffffffffffffffffffffffffff021916908373ffffffffffffffffffffffffffffffffffffffff160217905550806000600560405161154291906136ff565b908152602001604051809103902060030160006101000a81548173ffffffffffffffffffffffffffffffffffffffff021916908373ffffffffffffffffffffffffffffffffffffffff1602179055506001600760146101000a81548160ff021916908315150217905550505050565b600760159054906101000a900460ff1681565b60036020528060005260406000206000915054906101000a900460ff1681565b6000600160056040516115f791906136ff565b9081526020016040518091039020600a0154905090565b600760009054906101000a900473ffffffffffffffffffffffffffffffffffffffff1673ffffffffffffffffffffffffffffffffffffffff163373ffffffffffffffffffffffffffffffffffffffff161461169e576040517f08c379a0000000000000000000000000000000000000000000000000000000008152600401611695906138b6565b60405180910390fd5b6116a781612786565b50565b6060600580546116b99061362b565b80601f01602080910402602001604051908101604052809291908181526020018280546116e59061362b565b80156117325780601f1061170757610100808354040283529160200191611732565b820191906000526020600020905b81548152906001019060200180831161171557829003601f168201915b5050505050905090565b6000600460008473ffffffffffffffffffffffffffffffffffffffff1673ffffffffffffffffffffffffffffffffffffffff16815260200190815260200160002060008373ffffffffffffffffffffffffffffffffffffffff1673ffffffffffffffffffffffffffffffffffffffff16815260200190815260200160002054905092915050565b6000600160056040516117d691906136ff565b908152602001604051809103902060030160009054906101000a900473ffffffffffffffffffffffffffffffffffffffff16905090565b600073ffffffffffffffffffffffffffffffffffffffff168373ffffffffffffffffffffffffffffffffffffffff160361187c576040517f08c379a0000000000000000000000000000000000000000000000000000000008152600401611873906139fa565b60405180910390fd5b600073ffffffffffffffffffffffffffffffffffffffff168273ffffffffffffffffffffffffffffffffffffffff16036118eb576040517f08c379a00000000000000000000000000000000000000000000000000000000081526004016118e290613a66565b60405180910390fd5b6000811161192e576040517f08c379a000000000000000000000000000000000000000000000000000000000815260040161192590613ad2565b60405180910390fd5b6000600260008573ffffffffffffffffffffffffffffffffffffffff1673ffffffffffffffffffffffffffffffffffffffff1681526020019081526020016000205490506000600460008673ffffffffffffffffffffffffffffffffffffffff1673ffffffffffffffffffffffffffffffffffffffff16815260200190815260200160002060008573ffffffffffffffffffffffffffffffffffffffff1673ffffffffffffffffffffffffffffffffffffffff168152602001908152602001600020549050600060016005604051611a0691906136ff565b9081526020016040518091039020600401549050600060016005604051611a2d91906136ff565b9081526020016040518091039020600a0154905060008285611a4f9190613839565b9050814210611a93576040517f08c379a0000000000000000000000000000000000000000000000000000000008152600401611a8a90613b3e565b60405180910390fd5b80861115611ad6576040517f08c379a0000000000000000000000000000000000000000000000000000000008152600401611acd90613baa565b60405180910390fd5b6000838488611ae59190613bca565b611aef9190613c0c565b14611b2f576040517f08c379a0000000000000000000000000000000000000000000000000000000008152600401611b2690613ad2565b60405180910390fd5b8584611b3b9190613c3d565b600460008a73ffffffffffffffffffffffffffffffffffffffff1673ffffffffffffffffffffffffffffffffffffffff16815260200190815260200160002060008973ffffffffffffffffffffffffffffffffffffffff1673ffffffffffffffffffffffffffffffffffffffff168152602001908152602001600020819055507f8c5be1e5ebec7d5bd14f71427d1e84f3dd0314c0f7b2291e5b200ac8c7c3b925888888604051611bee93929190613c71565b60405180910390a15050505050505050565b600073ffffffffffffffffffffffffffffffffffffffff168373ffffffffffffffffffffffffffffffffffffffff1603611c6f576040517f08c379a0000000000000000000000000000000000000000000000000000000008152600401611c66906139fa565b60405180910390fd5b600073ffffffffffffffffffffffffffffffffffffffff168273ffffffffffffffffffffffffffffffffffffffff1603611cde576040517f08c379a0000000000000000000000000000000000000000000000000000000008152600401611cd590613a66565b60405180910390fd5b60008111611d21576040517f08c379a0000000000000000000000000000000000000000000000000000000008152600401611d1890613ad2565b60405180910390fd5b6000600460008573ffffffffffffffffffffffffffffffffffffffff1673ffffffffffffffffffffffffffffffffffffffff16815260200190815260200160002060008473ffffffffffffffffffffffffffffffffffffffff1673ffffffffffffffffffffffffffffffffffffffff168152602001908152602001600020549050600060016005604051611db591906136ff565b9081526020016040518091039020600401549050600060016005604051611ddc91906136ff565b9081526020016040518091039020600a01549050804210611e32576040517f08c379a0000000000000000000000000000000000000000000000000000000008152600401611e2990613b3e565b60405180910390fd5b82841115611e75576040517f08c379a0000000000000000000000000000000000000000000000000000000008152600401611e6c90613cf4565b60405180910390fd5b6000828386611e849190613bca565b611e8e9190613c0c565b14611ece576040517f08c379a0000000000000000000000000000000000000000000000000000000008152600401611ec590613ad2565b60405180910390fd5b8383611eda9190613d14565b600460008873ffffffffffffffffffffffffffffffffffffffff1673ffffffffffffffffffffffffffffffffffffffff16815260200190815260200160002060008773ffffffffffffffffffffffffffffffffffffffff1673ffffffffffffffffffffffffffffffffffffffff168152602001908152602001600020819055507f8c5be1e5ebec7d5bd14f71427d1e84f3dd0314c0f7b2291e5b200ac8c7c3b925868686604051611f8d93929190613c71565b60405180910390a1505050505050565b6000600460008573ffffffffffffffffffffffffffffffffffffffff1673ffffffffffffffffffffffffffffffffffffffff16815260200190815260200160002060008473ffffffffffffffffffffffffffffffffffffffff1673ffffffffffffffffffffffffffffffffffffffff16815260200190815260200160002054905080821115612061576040517f08c379a000000000000000000000000000000000000000000000000000000000815260040161205890613cf4565b60405180910390fd5b818103600460008673ffffffffffffffffffffffffffffffffffffffff1673ffffffffffffffffffffffffffffffffffffffff16815260200190815260200160002060008573ffffffffffffffffffffffffffffffffffffffff1673ffffffffffffffffffffffffffffffffffffffff1681526020019081526020016000208190555050505050565b600073ffffffffffffffffffffffffffffffffffffffff168573ffffffffffffffffffffffffffffffffffffffff1603612159576040517f08c379a0000000000000000000000000000000000000000000000000000000008152600401612150906139fa565b60405180910390fd5b600073ffffffffffffffffffffffffffffffffffffffff168473ffffffffffffffffffffffffffffffffffffffff16036121c8576040517f08c379a00000000000000000000000000000000000000000000000000000000081526004016121bf90613d94565b60405180910390fd5b6000831161220b576040517f08c379a000000000000000000000000000000000000000000000000000000000815260040161220290613ad2565b60405180910390fd5b6000600260008773ffffffffffffffffffffffffffffffffffffffff1673ffffffffffffffffffffffffffffffffffffffff16815260200190815260200160002054905060006001600560405161226291906136ff565b908152602001604051809103902060040154905060006001600560405161228991906136ff565b9081526020016040518091039020600a01549050600082846122ab9190613839565b90508142106122ef576040517f08c379a00000000000000000000000000000000000000000000000000000000081526004016122e690613b3e565b60405180910390fd5b80871115612332576040517f08c379a000000000000000000000000000000000000000000000000000000000815260040161232990613baa565b60405180910390fd5b60008384896123419190613bca565b61234b9190613c0c565b1461238b576040517f08c379a000000000000000000000000000000000000000000000000000000000815260040161238290613ad2565b60405180910390fd5b6123988989898989612ccf565b6000600260008a73ffffffffffffffffffffffffffffffffffffffff1673ffffffffffffffffffffffffffffffffffffffff16815260200190815260200160002054905060008486029050808603600260008d73ffffffffffffffffffffffffffffffffffffffff1673ffffffffffffffffffffffffffffffffffffffff16815260200190815260200160002081905550808201600260008c73ffffffffffffffffffffffffffffffffffffffff1673ffffffffffffffffffffffffffffffffffffffff168152602001908152602001600020819055505061247d8a8a8a8a8a612cd6565b7fddf252ad1be2c89b69c2b068fc378daa952ba7f163c4a11628f55a4df523b3ef8a8a8a6040516124b093929190613c71565b60405180910390a150505050505050505050565b600060018111156124d8576124d76134bc565b5b600760159054906101000a900460ff1660018111156124fa576124f96134bc565b5b1461253a576040517f08c379a000000000000000000000000000000000000000000000000000000000815260040161253190613e00565b60405180910390fd5b6001600560405161254b91906136ff565b9081526020016040518091039020600a0154421161259e576040517f08c379a000000000000000000000000000000000000000000000000000000000815260040161259590613e6c565b60405180910390fd5b6001600760156101000a81548160ff021916908360018111156125c4576125c36134bc565b5b02179055506000600760009054906101000a900473ffffffffffffffffffffffffffffffffffffffff1673ffffffffffffffffffffffffffffffffffffffff1663c8d7f62e60056040518263ffffffff1660e01b81526004016126279190613f10565b600060405180830381865afa158015612644573d6000803e3d6000fd5b505050506040513d6000823e3d601f19601f8201168201806040525081019061266d9190614074565b905060005b815181101561278257600060026000848481518110612694576126936140bd565b5b60200260200101516000015173ffffffffffffffffffffffffffffffffffffffff1673ffffffffffffffffffffffffffffffffffffffff168152602001908152602001600020541461276f576000600260008484815181106126f9576126f86140bd565b5b60200260200101516000015173ffffffffffffffffffffffffffffffffffffffff1673ffffffffffffffffffffffffffffffffffffffff16815260200190815260200160002081905550600060088281548110612759576127586140bd565b5b9060005260206000209060020201600101819055505b808061277a906140ec565b915050612672565b5050565b60008160a0013590506000600760009054906101000a900473ffffffffffffffffffffffffffffffffffffffff1673ffffffffffffffffffffffffffffffffffffffff1663605936ea60056040518263ffffffff1660e01b81526004016127ed9190613f10565b602060405180830381865afa15801561280a573d6000803e3d6000fd5b505050506040513d601f19601f8201168201806040525081019061282e9190614134565b9050808214612872576040517f08c379a0000000000000000000000000000000000000000000000000000000008152600401612869906141ad565b60405180910390fd5b6000600760009054906101000a900473ffffffffffffffffffffffffffffffffffffffff1673ffffffffffffffffffffffffffffffffffffffff1663c8d7f62e60056040518263ffffffff1660e01b81526004016128d09190613f10565b600060405180830381865afa1580156128ed573d6000803e3d6000fd5b505050506040513d6000823e3d601f19601f820116820180604052508101906129169190614074565b905060006001600560405161292b91906136ff565b90815260200160405180910390206004015490506000805b8351811015612bcf576000848281518110612961576129606140bd565b5b60200260200101516000015190506000858381518110612984576129836140bd565b5b6020026020010151602001519050600073ffffffffffffffffffffffffffffffffffffffff168273ffffffffffffffffffffffffffffffffffffffff1603612a01576040517f08c379a00000000000000000000000000000000000000000000000000000000081526004016129f890614219565b60405180910390fd5b60008114158015612a2857506000858683612a1c9190613bca565b612a269190613bca565b145b612a67576040517f08c379a0000000000000000000000000000000000000000000000000000000008152600401612a5e90613ad2565b60405180910390fd5b8084612a739190613c3d565b935080600260008473ffffffffffffffffffffffffffffffffffffffff1673ffffffffffffffffffffffffffffffffffffffff168152602001908152602001600020819055506001600360008473ffffffffffffffffffffffffffffffffffffffff1673ffffffffffffffffffffffffffffffffffffffff16815260200190815260200160002060006101000a81548160ff021916908315150217905550600860405180604001604052808473ffffffffffffffffffffffffffffffffffffffff16815260200183815250908060018154018082558091505060019003906000526020600020906002020160009091909190915060008201518160000160006101000a81548173ffffffffffffffffffffffffffffffffffffffff021916908373ffffffffffffffffffffffffffffffffffffffff16021790555060208201518160010155505050508080612bc7906140ec565b915050612943565b508560016005604051612be291906136ff565b90815260200160405180910390208181612bfc9190614885565b9050504260016005604051612c1191906136ff565b9081526020016040518091039020600901819055506000600760156101000a81548160ff02191690836001811115612c4c57612c4b6134bc565b5b0217905550600060016005604051612c6491906136ff565b9081526020016040518091039020600a01549050428111612c8457600080fd5b848214612cc6576040517f08c379a0000000000000000000000000000000000000000000000000000000008152600401612cbd906148df565b60405180910390fd5b50505050505050565b5050505050565b5050505050565b600060ff82169050919050565b612cf381612cdd565b82525050565b6000602082019050612d0e6000830184612cea565b92915050565b600081519050919050565b600082825260208201905092915050565b60005b83811015612d4e578082015181840152602081019050612d33565b60008484015250505050565b6000601f19601f8301169050919050565b6000612d7682612d14565b612d808185612d1f565b9350612d90818560208601612d30565b612d9981612d5a565b840191505092915050565b60006020820190508181036000830152612dbe8184612d6b565b905092915050565b6000604051905090565b600080fd5b600080fd5b600073ffffffffffffffffffffffffffffffffffffffff82169050919050565b6000612e0582612dda565b9050919050565b612e1581612dfa565b8114612e2057600080fd5b50565b600081359050612e3281612e0c565b92915050565b6000819050919050565b612e4b81612e38565b8114612e5657600080fd5b50565b600081359050612e6881612e42565b92915050565b60008060408385031215612e8557612e84612dd0565b5b6000612e9385828601612e23565b9250506020612ea485828601612e59565b9150509250929050565b60008115159050919050565b612ec381612eae565b82525050565b6000602082019050612ede6000830184612eba565b92915050565b612eed81612e38565b82525050565b6000602082019050612f086000830184612ee4565b92915050565b612f1781612dfa565b82525050565b6000602082019050612f326000830184612f0e565b92915050565b600080fd5b600080fd5b7f4e487b7100000000000000000000000000000000000000000000000000000000600052604160045260246000fd5b612f7a82612d5a565b810181811067ffffffffffffffff82111715612f9957612f98612f42565b5b80604052505050565b6000612fac612dc6565b9050612fb88282612f71565b919050565b600067ffffffffffffffff821115612fd857612fd7612f42565b5b612fe182612d5a565b9050602081019050919050565b82818337600083830152505050565b600061301061300b84612fbd565b612fa2565b90508281526020810184848401111561302c5761302b612f3d565b5b613037848285612fee565b509392505050565b600082601f83011261305457613053612f38565b5b8135613064848260208601612ffd565b91505092915050565b60006020828403121561308357613082612dd0565b5b600082013567ffffffffffffffff8111156130a1576130a0612dd5565b5b6130ad8482850161303f565b91505092915050565b60006080820190506130cb6000830187612f0e565b81810360208301526130dd8186612d6b565b90506130ec6040830185612f0e565b6130f96060830184612f0e565b95945050505050565b600061016082019050818103600083015261311d818e612d6b565b90508181036020830152613131818d612d6b565b90508181036040830152613145818c612d6b565b9050613154606083018b612f0e565b613161608083018a612ee4565b61316e60a0830189612ee4565b61317b60c0830188612ee4565b61318860e0830187612cea565b613196610100830186612ee4565b6131a4610120830185612ee4565b6131b2610140830184612ee4565b9c9b505050505050505050505050565b6000602082840312156131d8576131d7612dd0565b5b60006131e684828501612e23565b91505092915050565b600081519050919050565b600082825260208201905092915050565b6000819050602082019050919050565b61322481612dfa565b82525050565b61323381612e38565b82525050565b60408201600082015161324f600085018261321b565b506020820151613262602085018261322a565b50505050565b60006132748383613239565b60408301905092915050565b6000602082019050919050565b6000613298826131ef565b6132a281856131fa565b93506132ad8361320b565b8060005b838110156132de5781516132c58882613268565b97506132d083613280565b9250506001810190506132b1565b5085935050505092915050565b60006020820190508181036000830152613305818461328d565b905092915050565b600080fd5b600080fd5b60008083601f84011261332d5761332c612f38565b5b8235905067ffffffffffffffff81111561334a5761334961330d565b5b60208301915083600182028301111561336657613365613312565b5b9250929050565b60008060008060006080868803121561338957613388612dd0565b5b600061339788828901612e23565b95505060206133a888828901612e23565b94505060406133b988828901612e59565b935050606086013567ffffffffffffffff8111156133da576133d9612dd5565b5b6133e688828901613317565b92509250509295509295909350565b6000806000806060858703121561340f5761340e612dd0565b5b600061341d87828801612e23565b945050602061342e87828801612e59565b935050604085013567ffffffffffffffff81111561344f5761344e612dd5565b5b61345b87828801613317565b925092505092959194509250565b60008060006060848603121561348257613481612dd0565b5b600061349086828701612e23565b93505060206134a186828701612e23565b92505060406134b286828701612e23565b9150509250925092565b7f4e487b7100000000000000000000000000000000000000000000000000000000600052602160045260246000fd5b600281106134fc576134fb6134bc565b5b50565b600081905061350d826134eb565b919050565b600061351d826134ff565b9050919050565b61352d81613512565b82525050565b60006020820190506135486000830184613524565b92915050565b600080fd5b6000610160828403121561356a5761356961354e565b5b81905092915050565b60006020828403121561358957613588612dd0565b5b600082013567ffffffffffffffff8111156135a7576135a6612dd5565b5b6135b384828501613553565b91505092915050565b600080604083850312156135d3576135d2612dd0565b5b60006135e185828601612e23565b92505060206135f285828601612e23565b9150509250929050565b7f4e487b7100000000000000000000000000000000000000000000000000000000600052602260045260246000fd5b6000600282049050600182168061364357607f821691505b602082108103613656576136556135fc565b5b50919050565b600081905092915050565b60008190508160005260206000209050919050565b600081546136898161362b565b613693818661365c565b945060018216600081146136ae57600181146136c3576136f6565b60ff19831686528115158202860193506136f6565b6136cc85613667565b60005b838110156136ee578154818901526001820191506020810190506136cf565b838801955050505b50505092915050565b600061370b828461367c565b915081905092915050565b61371f81612eae565b811461372a57600080fd5b50565b60008151905061373c81613716565b92915050565b60006020828403121561375857613757612dd0565b5b60006137668482850161372d565b91505092915050565b7f4143434f554e545f4e4f545f414150524f564544000000000000000000000000600082015250565b60006137a5601483612d1f565b91506137b08261376f565b602082019050919050565b600060208201905081810360008301526137d481613798565b9050919050565b7f4e487b7100000000000000000000000000000000000000000000000000000000600052601260045260246000fd5b7f4e487b7100000000000000000000000000000000000000000000000000000000600052601160045260246000fd5b600061384482612e38565b915061384f83612e38565b92508261385f5761385e6137db565b5b828204905092915050565b7f4f4e4c595f544f504f535f42414e4b5f434f4e54524143540000000000000000600082015250565b60006138a0601883612d1f565b91506138ab8261386a565b602082019050919050565b600060208201905081810360008301526138cf81613893565b9050919050565b7f4f4e4c595f424f4e445f4d414e41474552000000000000000000000000000000600082015250565b600061390c601183612d1f565b9150613917826138d6565b602082019050919050565b6000602082019050818103600083015261393b816138ff565b9050919050565b7f414c52454144595f494e495449414c495a454400000000000000000000000000600082015250565b6000613978601383612d1f565b915061398382613942565b602082019050919050565b600060208201905081810360008301526139a78161396b565b9050919050565b7f494e56414c49445f414444524553530000000000000000000000000000000000600082015250565b60006139e4600f83612d1f565b91506139ef826139ae565b602082019050919050565b60006020820190508181036000830152613a13816139d7565b9050919050565b7f494e56414c49445f5350454e4445525f41444452455353000000000000000000600082015250565b6000613a50601783612d1f565b9150613a5b82613a1a565b602082019050919050565b60006020820190508181036000830152613a7f81613a43565b9050919050565b7f494e56414c49445f414d4f554e54000000000000000000000000000000000000600082015250565b6000613abc600e83612d1f565b9150613ac782613a86565b602082019050919050565b60006020820190508181036000830152613aeb81613aaf565b9050919050565b7f424f4e44535f4d41545552454400000000000000000000000000000000000000600082015250565b6000613b28600d83612d1f565b9150613b3382613af2565b602082019050919050565b60006020820190508181036000830152613b5781613b1b565b9050919050565b7f494e53554646494349454e545f42414c414e4345000000000000000000000000600082015250565b6000613b94601483612d1f565b9150613b9f82613b5e565b602082019050919050565b60006020820190508181036000830152613bc381613b87565b9050919050565b6000613bd582612e38565b9150613be083612e38565b9250828202613bee81612e38565b91508282048414831517613c0557613c0461380a565b5b5092915050565b6000613c1782612e38565b9150613c2283612e38565b925082613c3257613c316137db565b5b828206905092915050565b6000613c4882612e38565b9150613c5383612e38565b9250828201905080821115613c6b57613c6a61380a565b5b92915050565b6000606082019050613c866000830186612f0e565b613c936020830185612f0e565b613ca06040830184612ee4565b949350505050565b7f494e53554646494349454e545f414c4c4f57414e434500000000000000000000600082015250565b6000613cde601683612d1f565b9150613ce982613ca8565b602082019050919050565b60006020820190508181036000830152613d0d81613cd1565b9050919050565b6000613d1f82612e38565b9150613d2a83612e38565b9250828203905081811115613d4257613d4161380a565b5b92915050565b7f494e56414c49445f524543495049454e545f4144445245535300000000000000600082015250565b6000613d7e601983612d1f565b9150613d8982613d48565b602082019050919050565b60006020820190508181036000830152613dad81613d71565b9050919050565b7f424f4e44535f4e4f545f49535355454400000000000000000000000000000000600082015250565b6000613dea601083612d1f565b9150613df582613db4565b602082019050919050565b60006020820190508181036000830152613e1981613ddd565b9050919050565b7f574149545f54494c4c5f4d415455524954590000000000000000000000000000600082015250565b6000613e56601283612d1f565b9150613e6182613e20565b602082019050919050565b60006020820190508181036000830152613e8581613e49565b9050919050565b60008154613e998161362b565b613ea38186612d1f565b94506001821660008114613ebe5760018114613ed457613f07565b60ff198316865281151560200286019350613f07565b613edd85613667565b60005b83811015613eff57815481890152600182019150602081019050613ee0565b808801955050505b50505092915050565b60006020820190508181036000830152613f2a8184613e8c565b905092915050565b600067ffffffffffffffff821115613f4d57613f4c612f42565b5b602082029050602081019050919050565b600080fd5b600081519050613f7281612e0c565b92915050565b600081519050613f8781612e42565b92915050565b600060408284031215613fa357613fa2613f5e565b5b613fad6040612fa2565b90506000613fbd84828501613f63565b6000830152506020613fd184828501613f78565b60208301525092915050565b6000613ff0613feb84613f32565b612fa2565b9050808382526020820190506040840283018581111561401357614012613312565b5b835b8181101561403c57806140288882613f8d565b845260208401935050604081019050614015565b5050509392505050565b600082601f83011261405b5761405a612f38565b5b815161406b848260208601613fdd565b91505092915050565b60006020828403121561408a57614089612dd0565b5b600082015167ffffffffffffffff8111156140a8576140a7612dd5565b5b6140b484828501614046565b91505092915050565b7f4e487b7100000000000000000000000000000000000000000000000000000000600052603260045260246000fd5b60006140f782612e38565b91507fffffffffffffffffffffffffffffffffffffffffffffffffffffffffffffffff82036141295761412861380a565b5b600182019050919050565b60006020828403121561414a57614149612dd0565b5b600061415884828501613f78565b91505092915050565b7f494e56414c49445f49495355455f564f4c554d45000000000000000000000000600082015250565b6000614197601483612d1f565b91506141a282614161565b602082019050919050565b600060208201905081810360008301526141c68161418a565b9050919050565b7f494e56414c49445f494e564553544f525f414444524553530000000000000000600082015250565b6000614203601883612d1f565b915061420e826141cd565b602082019050919050565b60006020820190508181036000830152614232816141f6565b9050919050565b600080fd5b600080fd5b600080fd5b6000808335600160200384360303811261426557614264614239565b5b80840192508235915067ffffffffffffffff8211156142875761428661423e565b5b6020830192506001820236038313156142a3576142a2614243565b5b509250929050565b600082905092915050565b60006020601f8301049050919050565b600082821b905092915050565b6000600883026143037fffffffffffffffffffffffffffffffffffffffffffffffffffffffffffffffff826142c6565b61430d86836142c6565b95508019841693508086168417925050509392505050565b6000819050919050565b600061434a61434561434084612e38565b614325565b612e38565b9050919050565b6000819050919050565b6143648361432f565b61437861437082614351565b8484546142d3565b825550505050565b600090565b61438d614380565b61439881848461435b565b505050565b5b818110156143bc576143b1600082614385565b60018101905061439e565b5050565b601f821115614401576143d281613667565b6143db846142b6565b810160208510156143ea578190505b6143fe6143f6856142b6565b83018261439d565b50505b505050565b600082821c905092915050565b600061442460001984600802614406565b1980831691505092915050565b600061443d8383614413565b9150826002028217905092915050565b61445783836142ab565b67ffffffffffffffff8111156144705761446f612f42565b5b61447a825461362b565b6144858282856143c0565b6000601f8311600181146144b457600084156144a2578287013590505b6144ac8582614431565b865550614514565b601f1984166144c286613667565b60005b828110156144ea578489013582556001820191506020850194506020810190506144c5565b868310156145075784890135614503601f891682614413565b8355505b6001600288020188555050505b50505050505050565b61452883838361444d565b505050565b6000813561453a81612e0c565b80915050919050565b60008160001b9050919050565b600073ffffffffffffffffffffffffffffffffffffffff61457084614543565b9350801983169250808416831791505092915050565b60006145a161459c61459784612dda565b614325565b612dda565b9050919050565b60006145b382614586565b9050919050565b60006145c5826145a8565b9050919050565b6000819050919050565b6145df826145ba565b6145f26145eb826145cc565b8354614550565b8255505050565b6000813561460681612e42565b80915050919050565b60007fffffffffffffffffffffffffffffffffffffffffffffffffffffffffffffffff61463b84614543565b9350801983169250808416831791505092915050565b61465a8261432f565b61466d61466682614351565b835461460f565b8255505050565b61467d81612cdd565b811461468857600080fd5b50565b6000813561469881614674565b80915050919050565b600060ff6146ae84614543565b9350801983169250808416831791505092915050565b60006146df6146da6146d584612cdd565b614325565b612cdd565b9050919050565b6000819050919050565b6146f9826146c4565b61470c614705826146e6565b83546146a1565b8255505050565b60008101600083016147258185614248565b61473081838661451d565b5050505060018101602083016147468185614248565b61475181838661451d565b5050505060028101604083016147678185614248565b61477281838661451d565b505050506003810160608301806147888161452d565b905061479481846145d6565b5050506004810160808301806147a9816145f9565b90506147b58184614651565b5050506005810160a08301806147ca816145f9565b90506147d68184614651565b5050506006810160c08301806147eb816145f9565b90506147f78184614651565b5050506007810160e083018061480c8161468b565b905061481881846146f0565b5050506008810161010083018061482e816145f9565b905061483a8184614651565b50505060098101610120830180614850816145f9565b905061485c8184614651565b505050600a8101610140830180614872816145f9565b905061487e8184614651565b5050505050565b61488f8282614713565b5050565b7f494e56414c49445f544f54414c5f414d4f554e54000000000000000000000000600082015250565b60006148c9601483612d1f565b91506148d482614893565b602082019050919050565b600060208201905081810360008301526148f8816148bc565b905091905056fea2646970667358221220d04afc6654200c27b943f70a7d29b2faf3ec4980eae9ff90b427c1c57289e09264736f6c63430008130033",
  "linkReferences": {},
  "deployedLinkReferences": {}
}