{
  "_format": "hh-sol-artifact-1",
  "contractName": "BondTopos",
  "sourceName": "contracts/BondTopos.sol",
  "abi": [
    {
      "inputs": [
        {
          "internalType": "string",
          "name": "_dealID",
          "type": "string"
        },
        {
          "internalType": "address",
          "name": "_issuerWalletAddress",
          "type": "address"
        },
        {
          "internalType": "address",
          "name": "_toposBankContract",
          "type": "address"
        },
        {
          "internalType": "string",
          "name": "_countryOfIssuance",
          "type": "string"
        }
      ],
      "stateMutability": "nonpayable",
      "type": "constructor"
    },
    {
      "anonymous": false,
      "inputs": [
        {
          "indexed": false,
          "internalType": "address",
          "name": "_owner",
          "type": "address"
        },
        {
          "indexed": false,
          "internalType": "address",
          "name": "_spender",
          "type": "address"
        },
        {
          "indexed": false,
          "internalType": "uint256",
          "name": "_amount",
          "type": "uint256"
        }
      ],
      "name": "Approval",
      "type": "event"
    },
    {
      "anonymous": false,
      "inputs": [
        {
          "indexed": false,
          "internalType": "address",
          "name": "_from",
          "type": "address"
        },
        {
          "indexed": false,
          "internalType": "address",
          "name": "_to",
          "type": "address"
        },
        {
          "indexed": false,
          "internalType": "uint256",
          "name": "_amount",
          "type": "uint256"
        }
      ],
      "name": "Transfer",
      "type": "event"
    },
    {
      "inputs": [
        {
          "internalType": "address",
          "name": "_owner",
          "type": "address"
        },
        {
          "internalType": "address",
          "name": "_spender",
          "type": "address"
        }
      ],
      "name": "allowance",
      "outputs": [
        {
          "internalType": "uint256",
          "name": "",
          "type": "uint256"
        }
      ],
      "stateMutability": "view",
      "type": "function"
    },
    {
      "inputs": [
        {
          "internalType": "address",
          "name": "_spender",
          "type": "address"
        },
        {
          "internalType": "uint256",
          "name": "_amount",
          "type": "uint256"
        }
      ],
      "name": "approve",
      "outputs": [
        {
          "internalType": "bool",
          "name": "",
          "type": "bool"
        }
      ],
      "stateMutability": "nonpayable",
      "type": "function"
    },
    {
      "inputs": [
        {
          "internalType": "address",
          "name": "_account",
          "type": "address"
        }
      ],
      "name": "balanceOf",
      "outputs": [
        {
          "internalType": "uint256",
          "name": "",
          "type": "uint256"
        }
      ],
      "stateMutability": "view",
      "type": "function"
    },
    {
      "inputs": [],
      "name": "bondManager",
      "outputs": [
        {
          "internalType": "address",
          "name": "",
          "type": "address"
        }
      ],
      "stateMutability": "view",
      "type": "function"
    },
    {
      "inputs": [],
      "name": "bondStatus",
      "outputs": [
        {
          "internalType": "enum BondData.BondStatus",
          "name": "",
          "type": "uint8"
        }
      ],
      "stateMutability": "view",
      "type": "function"
    },
    {
      "inputs": [
        {
          "internalType": "string",
          "name": "",
          "type": "string"
        }
      ],
      "name": "bonds",
      "outputs": [
        {
          "internalType": "string",
          "name": "isin",
          "type": "string"
        },
        {
          "internalType": "string",
          "name": "name",
          "type": "string"
        },
        {
          "internalType": "string",
          "name": "symbol",
          "type": "string"
        },
        {
          "internalType": "address",
          "name": "currency",
          "type": "address"
        },
        {
          "internalType": "uint256",
          "name": "denomination",
          "type": "uint256"
        },
        {
          "internalType": "uint256",
          "name": "issueVolume",
          "type": "uint256"
        },
        {
          "internalType": "uint256",
          "name": "couponRate",
          "type": "uint256"
        },
        {
          "internalType": "uint8",
          "name": "couponType",
          "type": "uint8"
        },
        {
          "internalType": "uint256",
          "name": "couponFrequency",
          "type": "uint256"
        },
        {
          "internalType": "uint256",
          "name": "issueDate",
          "type": "uint256"
        },
        {
          "internalType": "uint256",
          "name": "maturityDate",
          "type": "uint256"
        }
      ],
      "stateMutability": "view",
      "type": "function"
    },
    {
      "inputs": [],
      "name": "couponFrequency",
      "outputs": [
        {
          "internalType": "uint256",
          "name": "",
          "type": "uint256"
        }
      ],
      "stateMutability": "view",
      "type": "function"
    },
    {
      "inputs": [],
      "name": "couponRate",
      "outputs": [
        {
          "internalType": "uint256",
          "name": "",
          "type": "uint256"
        }
      ],
      "stateMutability": "view",
      "type": "function"
    },
    {
      "inputs": [],
      "name": "couponType",
      "outputs": [
        {
          "internalType": "uint8",
          "name": "",
          "type": "uint8"
        }
      ],
      "stateMutability": "view",
      "type": "function"
    },
    {
      "inputs": [],
      "name": "currency",
      "outputs": [
        {
          "internalType": "address",
          "name": "",
          "type": "address"
        }
      ],
      "stateMutability": "view",
      "type": "function"
    },
    {
      "inputs": [],
      "name": "dealID",
      "outputs": [
        {
          "internalType": "string",
          "name": "",
          "type": "string"
        }
      ],
      "stateMutability": "view",
      "type": "function"
    },
    {
      "inputs": [
        {
          "internalType": "address",
          "name": "_spender",
          "type": "address"
        },
        {
          "internalType": "uint256",
          "name": "_amount",
          "type": "uint256"
        }
      ],
      "name": "decreaseAllowance",
      "outputs": [],
      "stateMutability": "nonpayable",
      "type": "function"
    },
    {
      "inputs": [],
      "name": "denomination",
      "outputs": [
        {
          "internalType": "uint256",
          "name": "",
          "type": "uint256"
        }
      ],
      "stateMutability": "view",
      "type": "function"
    },
    {
      "inputs": [],
      "name": "getListOfInvestors",
      "outputs": [
        {
          "components": [
            {
              "internalType": "address",
              "name": "investor",
              "type": "address"
            },
            {
              "internalType": "uint256",
              "name": "amount",
              "type": "uint256"
            }
          ],
          "internalType": "struct BondData.DealInvestment[]",
          "name": "",
          "type": "tuple[]"
        }
      ],
      "stateMutability": "view",
      "type": "function"
    },
    {
      "inputs": [
        {
          "internalType": "address",
          "name": "",
          "type": "address"
        }
      ],
      "name": "investorsIDs",
      "outputs": [
        {
          "internalType": "uint256",
          "name": "",
          "type": "uint256"
        }
      ],
      "stateMutability": "view",
      "type": "function"
    },
    {
      "inputs": [
        {
          "internalType": "address",
          "name": "",
          "type": "address"
        }
      ],
      "name": "isInvestor",
      "outputs": [
        {
          "internalType": "bool",
          "name": "",
          "type": "bool"
        }
      ],
      "stateMutability": "view",
      "type": "function"
    },
    {
      "inputs": [],
      "name": "isin",
      "outputs": [
        {
          "internalType": "string",
          "name": "",
          "type": "string"
        }
      ],
      "stateMutability": "view",
      "type": "function"
    },
    {
      "inputs": [
        {
          "components": [
            {
              "internalType": "string",
              "name": "isin",
              "type": "string"
            },
            {
              "internalType": "string",
              "name": "name",
              "type": "string"
            },
            {
              "internalType": "string",
              "name": "symbol",
              "type": "string"
            },
            {
              "internalType": "address",
              "name": "currency",
              "type": "address"
            },
            {
              "internalType": "uint256",
              "name": "denomination",
              "type": "uint256"
            },
            {
              "internalType": "uint256",
              "name": "issueVolume",
              "type": "uint256"
            },
            {
              "internalType": "uint256",
              "name": "couponRate",
              "type": "uint256"
            },
            {
              "internalType": "uint8",
              "name": "couponType",
              "type": "uint8"
            },
            {
              "internalType": "uint256",
              "name": "couponFrequency",
              "type": "uint256"
            },
            {
              "internalType": "uint256",
              "name": "issueDate",
              "type": "uint256"
            },
            {
              "internalType": "uint256",
              "name": "maturityDate",
              "type": "uint256"
            }
          ],
          "internalType": "struct BondData.Bond",
          "name": "_bond",
          "type": "tuple"
        }
      ],
      "name": "issue",
      "outputs": [],
      "stateMutability": "nonpayable",
      "type": "function"
    },
    {
      "inputs": [
        {
          "internalType": "string",
          "name": "",
          "type": "string"
        }
      ],
      "name": "issueData",
      "outputs": [
        {
          "internalType": "address",
          "name": "issuerWalletAddress",
          "type": "address"
        },
        {
          "internalType": "string",
          "name": "countryOfIssuance",
          "type": "string"
        }
      ],
      "stateMutability": "view",
      "type": "function"
    },
    {
      "inputs": [],
      "name": "issueDate",
      "outputs": [
        {
          "internalType": "uint256",
          "name": "",
          "type": "uint256"
        }
      ],
      "stateMutability": "view",
      "type": "function"
    },
    {
      "inputs": [],
      "name": "issueVolume",
      "outputs": [
        {
          "internalType": "uint256",
          "name": "",
          "type": "uint256"
        }
      ],
      "stateMutability": "view",
      "type": "function"
    },
    {
      "inputs": [],
      "name": "maturityDate",
      "outputs": [
        {
          "internalType": "uint256",
          "name": "",
          "type": "uint256"
        }
      ],
      "stateMutability": "view",
      "type": "function"
    },
    {
      "inputs": [],
      "name": "name",
      "outputs": [
        {
          "internalType": "string",
          "name": "",
          "type": "string"
        }
      ],
      "stateMutability": "view",
      "type": "function"
    },
    {
      "inputs": [
        {
          "internalType": "address",
          "name": "_account",
          "type": "address"
        }
      ],
      "name": "principalOf",
      "outputs": [
        {
          "internalType": "uint256",
          "name": "",
          "type": "uint256"
        }
      ],
      "stateMutability": "view",
      "type": "function"
    },
    {
      "inputs": [],
      "name": "redeem",
      "outputs": [],
      "stateMutability": "nonpayable",
      "type": "function"
    },
    {
      "inputs": [],
      "name": "symbol",
      "outputs": [
        {
          "internalType": "string",
          "name": "",
          "type": "string"
        }
      ],
      "stateMutability": "view",
      "type": "function"
    },
    {
      "inputs": [],
      "name": "toposBankContract",
      "outputs": [
        {
          "internalType": "address",
          "name": "",
          "type": "address"
        }
      ],
      "stateMutability": "view",
      "type": "function"
    },
    {
      "inputs": [],
      "name": "totalSupply",
      "outputs": [
        {
          "internalType": "uint256",
          "name": "",
          "type": "uint256"
        }
      ],
      "stateMutability": "view",
      "type": "function"
    },
    {
      "inputs": [
        {
          "internalType": "address",
          "name": "_to",
          "type": "address"
        },
        {
          "internalType": "uint256",
          "name": "_amount",
          "type": "uint256"
        },
        {
          "internalType": "bytes",
          "name": "_data",
          "type": "bytes"
        }
      ],
      "name": "transfer",
      "outputs": [
        {
          "internalType": "bool",
          "name": "",
          "type": "bool"
        }
      ],
      "stateMutability": "nonpayable",
      "type": "function"
    },
    {
      "inputs": [
        {
          "internalType": "address",
          "name": "_from",
          "type": "address"
        },
        {
          "internalType": "address",
          "name": "_to",
          "type": "address"
        },
        {
          "internalType": "uint256",
          "name": "_amount",
          "type": "uint256"
        },
        {
          "internalType": "bytes",
          "name": "_data",
          "type": "bytes"
        }
      ],
      "name": "transferFrom",
      "outputs": [
        {
          "internalType": "bool",
          "name": "",
          "type": "bool"
        }
      ],
      "stateMutability": "nonpayable",
      "type": "function"
    }
  ],
  "bytecode": "0x60806040523480156200001157600080fd5b50604051620029ca380380620029ca8339810160408190526200003491620001e0565b6006620000428582620002fe565b50600780546001600160a01b0319163317905560405183906000906200006a908790620003ca565b90815260405190819003602001812080546001600160a01b03939093166001600160a01b0319909316929092179091558190600090620000ac908790620003ca565b90815260200160405180910390206001019081620000cb9190620002fe565b5050600880546001600160a01b0319166001600160a01b039290921691909117905550620003e89050565b634e487b7160e01b600052604160045260246000fd5b60005b83811015620001295781810151838201526020016200010f565b50506000910152565b600082601f8301126200014457600080fd5b81516001600160401b0380821115620001615762000161620000f6565b604051601f8301601f19908116603f011681019082821181831017156200018c576200018c620000f6565b81604052838152866020858801011115620001a657600080fd5b620001b98460208301602089016200010c565b9695505050505050565b80516001600160a01b0381168114620001db57600080fd5b919050565b60008060008060808587031215620001f757600080fd5b84516001600160401b03808211156200020f57600080fd5b6200021d8883890162000132565b95506200022d60208801620001c3565b94506200023d60408801620001c3565b935060608701519150808211156200025457600080fd5b50620002638782880162000132565b91505092959194509250565b600181811c908216806200028457607f821691505b602082108103620002a557634e487b7160e01b600052602260045260246000fd5b50919050565b601f821115620002f957600081815260208120601f850160051c81016020861015620002d45750805b601f850160051c820191505b81811015620002f557828155600101620002e0565b5050505b505050565b81516001600160401b038111156200031a576200031a620000f6565b62000332816200032b84546200026f565b84620002ab565b602080601f8311600181146200036a5760008415620003515750858301515b600019600386901b1c1916600185901b178555620002f5565b600085815260208120601f198616915b828110156200039b578886015182559484019460019091019084016200037a565b5085821015620003ba5787850151600019600388901b60f8161c191681555b5050505050600190811b01905550565b60008251620003de8184602087016200010c565b9190910192915050565b6125d280620003f86000396000f3fe608060405234801561001057600080fd5b50600436106101da5760003560e01c80638db6f28a11610104578063c0bcb26f116100a2578063d76805aa11610071578063d76805aa146103f5578063dd62ed3e14610408578063e5a6b10f14610441578063e6ba4fea1461044957600080fd5b8063c0bcb26f146103a1578063c16aa779146103a9578063cee2a9cf146103ca578063d59624b4146103ed57600080fd5b8063a457c2d7116100de578063a457c2d71461035e578063ab67aa5814610373578063be040fb014610386578063be45fd621461038e57600080fd5b80638db6f28a1461032e57806395d89b41146103435780639c34712a1461034b57600080fd5b80635eb0b3d01161017c57806373975df11161014b57806373975df11461030e57806382d5a60d146103165780638bca6d161461031e5780638d1343e01461032657600080fd5b80635eb0b3d0146102c257806361e20a1c146102ca57806370a08231146102f3578063710d33291461030657600080fd5b806318160ddd116101b857806318160ddd14610236578063363cc4271461024c57806341d6a5821461027757806346e8de211461029857600080fd5b8063045017ce146101df57806306fdde03146101fe578063095ea7b314610213575b600080fd5b6101e7610469565b60405160ff90911681526020015b60405180910390f35b610206610497565b6040516101f59190611b5b565b610226610221366004611b8a565b610549565b60405190151581526020016101f5565b61023e610563565b6040519081526020016101f5565b60075461025f906001600160a01b031681565b6040516001600160a01b0390911681526020016101f5565b61028a610285366004611c26565b6105ba565b6040516101f5929190611cbb565b6102ab6102a6366004611c26565b610674565b6040516101f59b9a99989796959493929190611ce5565b61023e61087a565b61023e6102d8366004611d71565b6001600160a01b031660009081526002602052604090205490565b61023e610301366004611d71565b6108a4565b61023e6108f9565b610206610923565b6102066109b1565b61023e6109de565b61023e610a08565b610336610a32565b6040516101f59190611d8e565b610206610aa7565b60085461025f906001600160a01b031681565b61037161036c366004611b8a565b610ad6565b005b610226610381366004611e2f565b610ae7565b610371610c4e565b61022661039c366004611ea2565b610cb2565b61023e610e08565b6008546103bd90600160a01b900460ff1681565b6040516101f59190611f14565b6102266103d8366004611d71565b60036020526000908152604090205460ff1681565b61023e610e32565b610371610403366004611f3c565b610e5c565b61023e610416366004611f78565b6001600160a01b03918216600090815260056020908152604080832093909416825291909152205490565b61025f610ec2565b61023e610457366004611d71565b60046020526000908152604090205481565b60006001600660405161047c9190611feb565b9081526040519081900360200190206007015460ff16919050565b6060600160066040516104aa9190611feb565b908152602001604051809103902060010180546104c690611fb1565b80601f01602080910402602001604051908101604052809291908181526020018280546104f290611fb1565b801561053f5780601f106105145761010080835404028352916020019161053f565b820191906000526020600020905b81548152906001019060200180831161052257829003601f168201915b5050505050905090565b600032610557818585610ef6565b60019150505b92915050565b6000600160066040516105769190611feb565b908152602001604051809103902060040154600160066040516105999190611feb565b9081526020016040518091039020600501546105b5919061208d565b905090565b8051602081830181018051600082529282019190930120915280546001820180546001600160a01b0390921692916105f190611fb1565b80601f016020809104026020016040519081016040528092919081815260200182805461061d90611fb1565b801561066a5780601f1061063f5761010080835404028352916020019161066a565b820191906000526020600020905b81548152906001019060200180831161064d57829003601f168201915b5050505050905082565b805160208183018101805160018252928201919093012091528054819061069a90611fb1565b80601f01602080910402602001604051908101604052809291908181526020018280546106c690611fb1565b80156107135780601f106106e857610100808354040283529160200191610713565b820191906000526020600020905b8154815290600101906020018083116106f657829003601f168201915b50505050509080600101805461072890611fb1565b80601f016020809104026020016040519081016040528092919081815260200182805461075490611fb1565b80156107a15780601f10610776576101008083540402835291602001916107a1565b820191906000526020600020905b81548152906001019060200180831161078457829003601f168201915b5050505050908060020180546107b690611fb1565b80601f01602080910402602001604051908101604052809291908181526020018280546107e290611fb1565b801561082f5780601f106108045761010080835404028352916020019161082f565b820191906000526020600020905b81548152906001019060200180831161081257829003601f168201915b50505060038401546004850154600586015460068701546007880154600889015460098a0154600a909a015498996001600160a01b0390961698949750929550909360ff909116928b565b60006001600660405161088d9190611feb565b908152602001604051809103902060080154905090565b6000600160066040516108b79190611feb565b90815260200160405180910390206004015460026000846001600160a01b03166001600160a01b031681526020019081526020016000205461055d919061208d565b60006001600660405161090c9190611feb565b908152602001604051809103902060050154905090565b6006805461093090611fb1565b80601f016020809104026020016040519081016040528092919081815260200182805461095c90611fb1565b80156109a95780601f1061097e576101008083540402835291602001916109a9565b820191906000526020600020905b81548152906001019060200180831161098c57829003601f168201915b505050505081565b6060600160066040516109c49190611feb565b90815260405190819003602001902080546104c690611fb1565b6000600160066040516109f19190611feb565b908152602001604051809103902060040154905090565b600060016006604051610a1b9190611feb565b908152602001604051809103902060090154905090565b60606009805480602002602001604051908101604052809291908181526020016000905b82821015610a9e576000848152602090819020604080518082019091526002850290910180546001600160a01b03168252600190810154828401529083529092019101610a56565b50505050905090565b606060016006604051610aba9190611feb565b908152602001604051809103902060020180546104c690611fb1565b32610ae281848461109d565b505050565b6000846000600860009054906101000a90046001600160a01b03166001600160a01b031663c3a2a93a6040518163ffffffff1660e01b815260040160a060405180830381865afa158015610b3f573d6000803e3d6000fd5b505050506040513d601f19601f82011682018060405250810190610b6391906120a1565b505060405163b9209e3360e01b81526001600160a01b038681166004830152919450908416925063b9209e339150602401602060405180830381865afa158015610bb1573d6000803e3d6000fd5b505050506040513d601f19601f82011682018060405250810190610bd59190612116565b610c265760405162461bcd60e51b815260206004820152601460248201527f4143434f554e545f4e4f545f414150524f56454400000000000000000000000060448201526064015b60405180910390fd5b33610c328982896111fa565b610c3f898989898961125d565b50600198975050505050505050565b6008546001600160a01b03163314610ca85760405162461bcd60e51b815260206004820152601860248201527f4f4e4c595f544f504f535f42414e4b5f434f4e545241435400000000000000006044820152606401610c1d565b610cb06115e8565b565b6000846000600860009054906101000a90046001600160a01b03166001600160a01b031663c3a2a93a6040518163ffffffff1660e01b815260040160a060405180830381865afa158015610d0a573d6000803e3d6000fd5b505050506040513d601f19601f82011682018060405250810190610d2e91906120a1565b505060405163b9209e3360e01b81526001600160a01b038681166004830152919450908416925063b9209e339150602401602060405180830381865afa158015610d7c573d6000803e3d6000fd5b505050506040513d601f19601f82011682018060405250810190610da09190612116565b610dec5760405162461bcd60e51b815260206004820152601460248201527f4143434f554e545f4e4f545f414150524f5645440000000000000000000000006044820152606401610c1d565b33610dfa818989898961125d565b506001979650505050505050565b600060016006604051610e1b9190611feb565b908152602001604051809103902060060154905090565b600060016006604051610e459190611feb565b9081526020016040518091039020600a0154905090565b6008546001600160a01b03163314610eb65760405162461bcd60e51b815260206004820152601860248201527f4f4e4c595f544f504f535f42414e4b5f434f4e545241435400000000000000006044820152606401610c1d565b610ebf816117aa565b50565b600060016006604051610ed59190611feb565b908152604051908190036020019020600301546001600160a01b0316919050565b6001600160a01b038316610f0957600080fd5b6001600160a01b038216610f1c57600080fd5b60008111610f2957600080fd5b6001600160a01b0380841660009081526002602090815260408083205460058352818420948716845293909152808220549051909190600190610f6e90600690611feb565b9081526020016040518091039020600401549050600060016006604051610f959190611feb565b908152604051908190036020019020600a015490506000610fb6838661208d565b9050814210610ff15760405162461bcd60e51b81526020600482015260076024820152661b585d1d5c995960ca1b6044820152606401610c1d565b80861115610ffe57600080fd5b826110098188612138565b611013919061214f565b1561101d57600080fd5b6110278685612163565b6001600160a01b038981166000818152600560209081526040808320948d1680845294825291829020949094558051918252928101919091529081018790527f8c5be1e5ebec7d5bd14f71427d1e84f3dd0314c0f7b2291e5b200ac8c7c3b9259060600160405180910390a15050505050505050565b6001600160a01b0383166110b057600080fd5b6001600160a01b0382166110c357600080fd5b600081116110d057600080fd5b6001600160a01b038084166000908152600560209081526040808320938616835292905281812054915160019061110990600690611feb565b90815260200160405180910390206004015490506000600160066040516111309190611feb565b9081526020016040518091039020600a0154905080421061115057600080fd5b8284111561115d57600080fd5b816111688186612138565b611172919061214f565b1561117c57600080fd5b6111868484612176565b6001600160a01b038781166000818152600560209081526040808320948b1680845294825291829020949094558051918252928101919091529081018590527f8c5be1e5ebec7d5bd14f71427d1e84f3dd0314c0f7b2291e5b200ac8c7c3b9259060600160405180910390a1505050505050565b6001600160a01b038084166000908152600560209081526040808320938616835292905220548082111561122d57600080fd5b6001600160a01b039384166000908152600560209081526040808320959096168252939093529290912091039055565b6001600160a01b03851661127057600080fd5b6001600160a01b03841661128357600080fd5b6000831161129057600080fd5b6001600160a01b0385166000908152600260205260408082205490519091906001906112be90600690611feb565b90815260200160405180910390206004015490506000600160066040516112e59190611feb565b908152604051908190036020019020600a015490506000611306838561208d565b90508142106113415760405162461bcd60e51b81526020600482015260076024820152661b585d1d5c995960ca1b6044820152606401610c1d565b8087111561134e57600080fd5b826113598189612138565b611363919061214f565b1561136d57600080fd5b6001600160a01b0380891660008181526002602090815260408083208054958f1684528184208d8a02808c039091559484528486019055600390915290205460ff166114f8576001600160a01b03808b166000908152600360209081526040808320805460ff19166001179055928e168252600281528282205460049091529190205460098054909190811061140557611405612189565b906000526020600020906002020160010181905550600960405180604001604052808c6001600160a01b03168152602001600260008e6001600160a01b03166001600160a01b0316815260200190815260200160002054815250908060018154018082558091505060019003906000526020600020906002020160009091909190915060008201518160000160006101000a8154816001600160a01b0302191690836001600160a01b03160217905550602082015181600101555050600160098054905003600460008c6001600160a01b03166001600160a01b0316815260200190815260200160002081905550611590565b6001600160a01b038b1660009081526002602090815260408083205460049092529091205460098054909190811061153257611532612189565b60009182526020808320600292830201600101939093556001600160a01b038d1682528252604080822054600490935290205460098054909190811061157a5761157a612189565b9060005260206000209060020201600101819055505b50604080516001600160a01b03808d1682528b1660208201529081018990527fddf252ad1be2c89b69c2b068fc378daa952ba7f163c4a11628f55a4df523b3ef9060600160405180910390a150505050505050505050565b6000600854600160a01b900460ff16600181111561160857611608611efe565b1461161257600080fd5b600160066040516116239190611feb565b9081526020016040518091039020600a0154421161164057600080fd5b60088054600160a01b60ff60a01b1982161790915560405163646bfb1760e11b81526000916001600160a01b03169063c8d7f62e906116849060069060040161219f565b600060405180830381865afa1580156116a1573d6000803e3d6000fd5b505050506040513d6000823e601f3d908101601f191682016040526116c9919081019061222a565b905060005b81518110156117a657600260008383815181106116ed576116ed612189565b6020026020010151600001516001600160a01b03166001600160a01b03168152602001908152602001600020546000146117945760006002600084848151811061173957611739612189565b6020026020010151600001516001600160a01b03166001600160a01b031681526020019081526020016000208190555060006009828154811061177e5761177e612189565b9060005260206000209060020201600101819055505b8061179e81612300565b9150506116ce565b5050565b6008546040517f605936ea0000000000000000000000000000000000000000000000000000000081526000916001600160a01b03169063605936ea906117f59060069060040161219f565b602060405180830381865afa158015611812573d6000803e3d6000fd5b505050506040513d601f19601f820116820180604052508101906118369190612319565b9050808260a001351461184857600080fd5b60085460405163646bfb1760e11b81526000916001600160a01b03169063c8d7f62e9061187a9060069060040161219f565b600060405180830381865afa158015611897573d6000803e3d6000fd5b505050506040513d6000823e601f3d908101601f191682016040526118bf919081019061222a565b90506000600160066040516118d49190611feb565b90815260200160405180910390206004015490506000805b8351811015611a7157600084828151811061190957611909612189565b6020026020010151600001519050600085838151811061192b5761192b612189565b602002602001015160200151905060006001600160a01b0316826001600160a01b03160361195857600080fd5b801580159061197957508461196d8183612138565b6119779190612138565b155b61198257600080fd5b61198c8185612163565b6001600160a01b039283166000818152600260208181526040808420879055600382528084208054600160ff199091168117909155600483528185208a9055815180830190925294815290810195865260098054948501815590925290517f6e1540171b6c0c960b71a7020d9f60077f6af931a8bbf590da0223dacf75c7af92909102918201805473ffffffffffffffffffffffffffffffffffffffff1916919095161790935590517f6e1540171b6c0c960b71a7020d9f60077f6af931a8bbf590da0223dacf75c7b090920191909155915080611a6981612300565b9150506118ec565b508460016006604051611a849190611feb565b908152604051908190036020019020611a9d82826124a7565b9050504260016006604051611ab29190611feb565b908152604051908190036020018120600901919091556008805460ff60a01b191690554290600190611ae690600690611feb565b9081526020016040518091039020600a015411611b0257600080fd5b838114611b0e57600080fd5b5050505050565b6000815180845260005b81811015611b3b57602081850181015186830182015201611b1f565b506000602082860101526020601f19601f83011685010191505092915050565b602081526000611b6e6020830184611b15565b9392505050565b6001600160a01b0381168114610ebf57600080fd5b60008060408385031215611b9d57600080fd5b8235611ba881611b75565b946020939093013593505050565b634e487b7160e01b600052604160045260246000fd5b6040805190810167ffffffffffffffff81118282101715611bef57611bef611bb6565b60405290565b604051601f8201601f1916810167ffffffffffffffff81118282101715611c1e57611c1e611bb6565b604052919050565b60006020808385031215611c3957600080fd5b823567ffffffffffffffff80821115611c5157600080fd5b818501915085601f830112611c6557600080fd5b813581811115611c7757611c77611bb6565b611c89601f8201601f19168501611bf5565b91508082528684828501011115611c9f57600080fd5b8084840185840137600090820190930192909252509392505050565b6001600160a01b0383168152604060208201526000611cdd6040830184611b15565b949350505050565b6000610160808352611cf98184018f611b15565b90508281036020840152611d0d818e611b15565b90508281036040840152611d21818d611b15565b6001600160a01b039b909b1660608401525050608081019790975260a087019590955260c086019390935260ff9190911660e0850152610100840152610120830152610140909101529392505050565b600060208284031215611d8357600080fd5b8135611b6e81611b75565b602080825282518282018190526000919060409081850190868401855b82811015611dd957815180516001600160a01b03168552860151868501529284019290850190600101611dab565b5091979650505050505050565b60008083601f840112611df857600080fd5b50813567ffffffffffffffff811115611e1057600080fd5b602083019150836020828501011115611e2857600080fd5b9250929050565b600080600080600060808688031215611e4757600080fd5b8535611e5281611b75565b94506020860135611e6281611b75565b935060408601359250606086013567ffffffffffffffff811115611e8557600080fd5b611e9188828901611de6565b969995985093965092949392505050565b60008060008060608587031215611eb857600080fd5b8435611ec381611b75565b935060208501359250604085013567ffffffffffffffff811115611ee657600080fd5b611ef287828801611de6565b95989497509550505050565b634e487b7160e01b600052602160045260246000fd5b6020810160028310611f3657634e487b7160e01b600052602160045260246000fd5b91905290565b600060208284031215611f4e57600080fd5b813567ffffffffffffffff811115611f6557600080fd5b82016101608185031215611b6e57600080fd5b60008060408385031215611f8b57600080fd5b8235611f9681611b75565b91506020830135611fa681611b75565b809150509250929050565b600181811c90821680611fc557607f821691505b602082108103611fe557634e487b7160e01b600052602260045260246000fd5b50919050565b6000808354611ff981611fb1565b60018281168015612011576001811461202657612055565b60ff1984168752821515830287019450612055565b8760005260208060002060005b8581101561204c5781548a820152908401908201612033565b50505082870194505b50929695505050505050565b634e487b7160e01b600052601260045260246000fd5b634e487b7160e01b600052601160045260246000fd5b60008261209c5761209c612061565b500490565b600080600080600060a086880312156120b957600080fd5b85516120c481611b75565b60208701519095506120d581611b75565b60408701519094506120e681611b75565b60608701519093506120f781611b75565b608087015190925061210881611b75565b809150509295509295909350565b60006020828403121561212857600080fd5b81518015158114611b6e57600080fd5b808202811582820484141761055d5761055d612077565b60008261215e5761215e612061565b500690565b8082018082111561055d5761055d612077565b8181038181111561055d5761055d612077565b634e487b7160e01b600052603260045260246000fd5b60006020808352600084546121b381611fb1565b808487015260406001808416600081146121d457600181146121ee5761221c565b60ff1985168984015283151560051b89018301955061221c565b896000528660002060005b858110156122145781548b82018601529083019088016121f9565b8a0184019650505b509398975050505050505050565b6000602080838503121561223d57600080fd5b825167ffffffffffffffff8082111561225557600080fd5b818501915085601f83011261226957600080fd5b81518181111561227b5761227b611bb6565b612289848260051b01611bf5565b818152848101925060069190911b8301840190878211156122a957600080fd5b928401925b818410156122f557604084890312156122c75760008081fd5b6122cf611bcc565b84516122da81611b75565b815284860151868201528352604090930192918401916122ae565b979650505050505050565b60006001820161231257612312612077565b5060010190565b60006020828403121561232b57600080fd5b5051919050565b6000808335601e1984360301811261234957600080fd5b83018035915067ffffffffffffffff82111561236457600080fd5b602001915036819003821315611e2857600080fd5b601f821115610ae257600081815260208120601f850160051c810160208610156123a05750805b601f850160051c820191505b818110156123bf578281556001016123ac565b505050505050565b67ffffffffffffffff8311156123df576123df611bb6565b6123f3836123ed8354611fb1565b83612379565b6000601f841160018114612427576000851561240f5750838201355b600019600387901b1c1916600186901b178355611b0e565b600083815260209020601f19861690835b828110156124585786850135825560209485019460019092019101612438565b50868210156124755760001960f88860031b161c19848701351681555b505060018560011b0183555050505050565b6000813561055d81611b75565b6000813560ff8116811461055d57600080fd5b6124b18283612332565b6124bc8183856123c7565b50506124cb6020830183612332565b6124d98183600186016123c7565b50506124e86040830183612332565b6124f68183600286016123c7565b505061253561250760608401612487565b600383016001600160a01b03821673ffffffffffffffffffffffffffffffffffffffff198254161781555050565b6080820135600482015560a0820135600582015560c0820135600682015561257761256260e08401612494565b6007830160ff821660ff198254161781555050565b61010082013560088201556101208201356009820155610140820135600a820155505056fea2646970667358221220c561094a9031fe4ddbaccbe0314706e6d4c756ea03c25bf293849df2a155a79864736f6c63430008130033",
  "linkReferences": {},
  "deployedLinkReferences": {}
}