{
  "_format": "hh-sol-artifact-1",
  "contractName": "BondTopos",
  "sourceName": "contracts/BondTopos.sol",
  "abi": [
    {
      "inputs": [
        {
          "internalType": "string",
          "name": "_dealID",
          "type": "string"
        },
        {
          "internalType": "address",
          "name": "_issuerWalletAddress",
          "type": "address"
        },
        {
          "internalType": "address",
          "name": "_toposBankContract",
          "type": "address"
        },
        {
          "internalType": "string",
          "name": "_countryOfIssuance",
          "type": "string"
        }
      ],
      "stateMutability": "nonpayable",
      "type": "constructor"
    },
    {
      "anonymous": false,
      "inputs": [
        {
          "indexed": false,
          "internalType": "address",
          "name": "_owner",
          "type": "address"
        },
        {
          "indexed": false,
          "internalType": "address",
          "name": "_spender",
          "type": "address"
        },
        {
          "indexed": false,
          "internalType": "uint256",
          "name": "_amount",
          "type": "uint256"
        }
      ],
      "name": "Approval",
      "type": "event"
    },
    {
      "anonymous": false,
      "inputs": [
        {
          "indexed": false,
          "internalType": "address",
          "name": "_from",
          "type": "address"
        },
        {
          "indexed": false,
          "internalType": "address",
          "name": "_to",
          "type": "address"
        },
        {
          "indexed": false,
          "internalType": "uint256",
          "name": "_amount",
          "type": "uint256"
        }
      ],
      "name": "Transfer",
      "type": "event"
    },
    {
      "inputs": [
        {
          "internalType": "address",
          "name": "_owner",
          "type": "address"
        },
        {
          "internalType": "address",
          "name": "_spender",
          "type": "address"
        }
      ],
      "name": "allowance",
      "outputs": [
        {
          "internalType": "uint256",
          "name": "",
          "type": "uint256"
        }
      ],
      "stateMutability": "view",
      "type": "function"
    },
    {
      "inputs": [
        {
          "internalType": "address",
          "name": "_spender",
          "type": "address"
        },
        {
          "internalType": "uint256",
          "name": "_amount",
          "type": "uint256"
        }
      ],
      "name": "approve",
      "outputs": [
        {
          "internalType": "bool",
          "name": "",
          "type": "bool"
        }
      ],
      "stateMutability": "nonpayable",
      "type": "function"
    },
    {
      "inputs": [
        {
          "internalType": "address",
          "name": "_account",
          "type": "address"
        }
      ],
      "name": "balanceOf",
      "outputs": [
        {
          "internalType": "uint256",
          "name": "",
          "type": "uint256"
        }
      ],
      "stateMutability": "view",
      "type": "function"
    },
    {
      "inputs": [],
      "name": "bankContract",
      "outputs": [
        {
          "internalType": "address",
          "name": "",
          "type": "address"
        }
      ],
      "stateMutability": "view",
      "type": "function"
    },
    {
      "inputs": [],
      "name": "bondManager",
      "outputs": [
        {
          "internalType": "address",
          "name": "",
          "type": "address"
        }
      ],
      "stateMutability": "view",
      "type": "function"
    },
    {
      "inputs": [],
      "name": "bondStatus",
      "outputs": [
        {
          "internalType": "enum BondData.BondStatus",
          "name": "",
          "type": "uint8"
        }
      ],
      "stateMutability": "view",
      "type": "function"
    },
    {
      "inputs": [
        {
          "internalType": "string",
          "name": "",
          "type": "string"
        }
      ],
      "name": "bonds",
      "outputs": [
        {
          "internalType": "string",
          "name": "isin",
          "type": "string"
        },
        {
          "internalType": "string",
          "name": "name",
          "type": "string"
        },
        {
          "internalType": "string",
          "name": "symbol",
          "type": "string"
        },
        {
          "internalType": "address",
          "name": "currency",
          "type": "address"
        },
        {
          "internalType": "uint256",
          "name": "denomination",
          "type": "uint256"
        },
        {
          "internalType": "uint256",
          "name": "issueVolume",
          "type": "uint256"
        },
        {
          "internalType": "uint256",
          "name": "couponRate",
          "type": "uint256"
        },
        {
          "internalType": "uint8",
          "name": "couponType",
          "type": "uint8"
        },
        {
          "internalType": "uint256",
          "name": "couponFrequency",
          "type": "uint256"
        },
        {
          "internalType": "uint256",
          "name": "issueDate",
          "type": "uint256"
        },
        {
          "internalType": "uint256",
          "name": "maturityDate",
          "type": "uint256"
        }
      ],
      "stateMutability": "view",
      "type": "function"
    },
    {
      "inputs": [],
      "name": "couponFrequency",
      "outputs": [
        {
          "internalType": "uint256",
          "name": "",
          "type": "uint256"
        }
      ],
      "stateMutability": "view",
      "type": "function"
    },
    {
      "inputs": [],
      "name": "couponRate",
      "outputs": [
        {
          "internalType": "uint256",
          "name": "",
          "type": "uint256"
        }
      ],
      "stateMutability": "view",
      "type": "function"
    },
    {
      "inputs": [],
      "name": "couponType",
      "outputs": [
        {
          "internalType": "uint8",
          "name": "",
          "type": "uint8"
        }
      ],
      "stateMutability": "view",
      "type": "function"
    },
    {
      "inputs": [],
      "name": "currency",
      "outputs": [
        {
          "internalType": "address",
          "name": "",
          "type": "address"
        }
      ],
      "stateMutability": "view",
      "type": "function"
    },
    {
      "inputs": [],
      "name": "dealID",
      "outputs": [
        {
          "internalType": "string",
          "name": "",
          "type": "string"
        }
      ],
      "stateMutability": "view",
      "type": "function"
    },
    {
      "inputs": [
        {
          "internalType": "address",
          "name": "_spender",
          "type": "address"
        },
        {
          "internalType": "uint256",
          "name": "_amount",
          "type": "uint256"
        }
      ],
      "name": "decreaseAllowance",
      "outputs": [],
      "stateMutability": "nonpayable",
      "type": "function"
    },
    {
      "inputs": [],
      "name": "denomination",
      "outputs": [
        {
          "internalType": "uint256",
          "name": "",
          "type": "uint256"
        }
      ],
      "stateMutability": "view",
      "type": "function"
    },
    {
      "inputs": [],
      "name": "getListOfInvestors",
      "outputs": [
        {
          "components": [
            {
              "internalType": "address",
              "name": "investor",
              "type": "address"
            },
            {
              "internalType": "uint256",
              "name": "amount",
              "type": "uint256"
            }
          ],
          "internalType": "struct BondData.DealInvestment[]",
          "name": "",
          "type": "tuple[]"
        }
      ],
      "stateMutability": "view",
      "type": "function"
    },
    {
      "inputs": [
        {
          "internalType": "address",
          "name": "",
          "type": "address"
        }
      ],
      "name": "investorsIDs",
      "outputs": [
        {
          "internalType": "uint256",
          "name": "",
          "type": "uint256"
        }
      ],
      "stateMutability": "view",
      "type": "function"
    },
    {
      "inputs": [
        {
          "internalType": "address",
          "name": "",
          "type": "address"
        }
      ],
      "name": "isInvestor",
      "outputs": [
        {
          "internalType": "bool",
          "name": "",
          "type": "bool"
        }
      ],
      "stateMutability": "view",
      "type": "function"
    },
    {
      "inputs": [],
      "name": "isin",
      "outputs": [
        {
          "internalType": "string",
          "name": "",
          "type": "string"
        }
      ],
      "stateMutability": "view",
      "type": "function"
    },
    {
      "inputs": [
        {
          "components": [
            {
              "internalType": "string",
              "name": "isin",
              "type": "string"
            },
            {
              "internalType": "string",
              "name": "name",
              "type": "string"
            },
            {
              "internalType": "string",
              "name": "symbol",
              "type": "string"
            },
            {
              "internalType": "address",
              "name": "currency",
              "type": "address"
            },
            {
              "internalType": "uint256",
              "name": "denomination",
              "type": "uint256"
            },
            {
              "internalType": "uint256",
              "name": "issueVolume",
              "type": "uint256"
            },
            {
              "internalType": "uint256",
              "name": "couponRate",
              "type": "uint256"
            },
            {
              "internalType": "uint8",
              "name": "couponType",
              "type": "uint8"
            },
            {
              "internalType": "uint256",
              "name": "couponFrequency",
              "type": "uint256"
            },
            {
              "internalType": "uint256",
              "name": "issueDate",
              "type": "uint256"
            },
            {
              "internalType": "uint256",
              "name": "maturityDate",
              "type": "uint256"
            }
          ],
          "internalType": "struct BondData.Bond",
          "name": "_bond",
          "type": "tuple"
        }
      ],
      "name": "issue",
      "outputs": [],
      "stateMutability": "nonpayable",
      "type": "function"
    },
    {
      "inputs": [
        {
          "internalType": "string",
          "name": "",
          "type": "string"
        }
      ],
      "name": "issueData",
      "outputs": [
        {
          "internalType": "address",
          "name": "issuerWalletAddress",
          "type": "address"
        },
        {
          "internalType": "string",
          "name": "countryOfIssuance",
          "type": "string"
        }
      ],
      "stateMutability": "view",
      "type": "function"
    },
    {
      "inputs": [],
      "name": "issueDate",
      "outputs": [
        {
          "internalType": "uint256",
          "name": "",
          "type": "uint256"
        }
      ],
      "stateMutability": "view",
      "type": "function"
    },
    {
      "inputs": [],
      "name": "issueVolume",
      "outputs": [
        {
          "internalType": "uint256",
          "name": "",
          "type": "uint256"
        }
      ],
      "stateMutability": "view",
      "type": "function"
    },
    {
      "inputs": [],
      "name": "maturityDate",
      "outputs": [
        {
          "internalType": "uint256",
          "name": "",
          "type": "uint256"
        }
      ],
      "stateMutability": "view",
      "type": "function"
    },
    {
      "inputs": [],
      "name": "name",
      "outputs": [
        {
          "internalType": "string",
          "name": "",
          "type": "string"
        }
      ],
      "stateMutability": "view",
      "type": "function"
    },
    {
      "inputs": [
        {
          "internalType": "address",
          "name": "_account",
          "type": "address"
        }
      ],
      "name": "principalOf",
      "outputs": [
        {
          "internalType": "uint256",
          "name": "",
          "type": "uint256"
        }
      ],
      "stateMutability": "view",
      "type": "function"
    },
    {
      "inputs": [],
      "name": "redeem",
      "outputs": [],
      "stateMutability": "nonpayable",
      "type": "function"
    },
    {
      "inputs": [],
      "name": "symbol",
      "outputs": [
        {
          "internalType": "string",
          "name": "",
          "type": "string"
        }
      ],
      "stateMutability": "view",
      "type": "function"
    },
    {
      "inputs": [],
      "name": "toposBankContract",
      "outputs": [
        {
          "internalType": "address",
          "name": "",
          "type": "address"
        }
      ],
      "stateMutability": "view",
      "type": "function"
    },
    {
      "inputs": [],
      "name": "totalSupply",
      "outputs": [
        {
          "internalType": "uint256",
          "name": "",
          "type": "uint256"
        }
      ],
      "stateMutability": "view",
      "type": "function"
    },
    {
      "inputs": [
        {
          "internalType": "address",
          "name": "_to",
          "type": "address"
        },
        {
          "internalType": "uint256",
          "name": "_amount",
          "type": "uint256"
        },
        {
          "internalType": "bytes",
          "name": "_data",
          "type": "bytes"
        }
      ],
      "name": "transfer",
      "outputs": [
        {
          "internalType": "bool",
          "name": "",
          "type": "bool"
        }
      ],
      "stateMutability": "nonpayable",
      "type": "function"
    },
    {
      "inputs": [
        {
          "internalType": "address",
          "name": "_from",
          "type": "address"
        },
        {
          "internalType": "address",
          "name": "_to",
          "type": "address"
        },
        {
          "internalType": "uint256",
          "name": "_amount",
          "type": "uint256"
        },
        {
          "internalType": "bytes",
          "name": "_data",
          "type": "bytes"
        }
      ],
      "name": "transferFrom",
      "outputs": [
        {
          "internalType": "bool",
          "name": "",
          "type": "bool"
        }
      ],
      "stateMutability": "nonpayable",
      "type": "function"
    }
  ],
  "bytecode": "0x608060405234620003985762002394803803806200001d816200039d565b928339810190608081830312620003985780516001600160401b03929083811162000398578162000050918401620003e8565b92602090620000618285016200043f565b9362000070604082016200043f565b93606082015183811162000398576200008a9201620003e8565b90855191818311620002b357600654906001938483811c931680156200038d575b868410146200029257601f9283811162000341575b508086848211600114620002d557600091620002c9575b50600019600383901b1c191690851b176006555b836200014f8660018060a01b03199a338c6007541617600755604051908051918381818401946200011e818388620003c3565b60009082019081520301902080548e166001600160a01b039d8e1617905560405190519093849282908490620003c3565b8101600081520301902001948151938411620002b35785548581811c91168015620002a8575b82821014620002925783811162000247575b5080928411600114620001dc5750928293918392600094620001d0575b50501b916000199060031b1c19161790555b16906008541617600855604051611f3f9081620004558239f35b015192503880620001a4565b919083601f1981168760005284600020946000905b888383106200022c575050501062000212575b505050811b019055620001b6565b015160001960f88460031b161c1916905538808062000204565b858701518855909601959485019487935090810190620001f1565b86600052816000208480870160051c82019284881062000288575b0160051c019086905b8281106200027b57505062000187565b600081550186906200026b565b9250819262000262565b634e487b7160e01b600052602260045260246000fd5b90607f169062000175565b634e487b7160e01b600052604160045260246000fd5b905089015138620000d7565b869250601f19821690600660005288600020918c8a6000915b838310620003295750505083116200030f575b5050811b01600655620000eb565b8b015160001960f88460031b161c19169055388062000301565b84015185558a969094019392830192018a8e620002ee565b6006600052866000208480840160051c82019289851062000383575b0160051c019086905b82811062000376575050620000c0565b6000815501869062000366565b925081926200035d565b92607f1692620000ab565b600080fd5b6040519190601f01601f191682016001600160401b03811183821017620002b357604052565b60005b838110620003d75750506000910152565b8181015183820152602001620003c6565b81601f82011215620003985780516001600160401b038111620002b3576200041a601f8201601f19166020016200039d565b928184526020828401011162000398576200043c9160208085019101620003c3565b90565b51906001600160a01b0382168203620003985756fe604060808152600436101561001357600080fd5b60003560e01c8063045017ce1461174d57806306fdde031461172757806307c2e44914611187578063095ea7b31461162057806318160ddd146115f2578063363cc427146115ca57806341d6a5821461156257806346e8de211461144a5780635eb0b3d01461142b57806361e20a1c146113f257806370a08231146113ab578063710d33291461138c57806373975df11461136757806382d5a60d146113385780638bca6d16146113195780638d1343e0146112fa5780638db6f28a146111fe57806395d89b41146111af5780639c34712a14611187578063a457c2d71461107e578063ab67aa5814610d9e578063be040fb014610c59578063be45fd6214610981578063c0bcb26f1461095d578063c16aa7791461091a578063cee2a9cf146108dc578063d59624b4146108b4578063d76805aa1461022e578063dd62ed3e146101e0578063e5a6b10f146101af5763e6ba4fea1461017257600080fd5b346101aa5760203660031901126101aa576020906001600160a01b036101966117b6565b166000526004825280600020549051908152f35b600080fd5b50346101aa5760003660031901126101aa576020906001600160a01b0360036101d6611a7e565b0154169051908152f35b50346101aa57806003193601126101aa576020906101fc6117b6565b6102046117cc565b906001600160a01b0380911660005260058452826000209116600052825280600020549051908152f35b50346101aa576003196020368201126101aa5767ffffffffffffffff600435116101aa5761016090600435360301126101aa576001600160a01b0360085416610278813314611a33565b8151907f605936ea00000000000000000000000000000000000000000000000000000000825260206004830152602082806102b5602482016118cb565b0381845afa91821561087557600092610880575b508160a46004350135036101aa5760008351809263646bfb1760e11b82526020600483015281806102fc602482016118cb565b03915afa90811561087557600091610852575b50600461031a611a7e565b01549060009160005b82518110156103e2576001600160a01b0361033e8285611d96565b51511690602061034e8286611d96565b5101519482156101aa57851515806103c8575b156101aa576103c392610377876103be93611b3f565b96816000526002602052808a60002055600360205289600020600160ff198254161790556004602052838a600020558951916103b2836117e2565b82526020820152611e0d565b611d87565b610323565b506103dc846103d78189611dc0565b611dc0565b15610361565b5050506103ed611a7e565b6103fb600480350180611e81565b67ffffffffffffffff81959295116106c7576104178354611891565b601f811161080e575b506000601f82116001146107a757819293949560009261079c575b50508160011b916000199060031b1c19161782555b610464602460043501600435600401611e81565b67ffffffffffffffff81959295116106c7576104836001850154611891565b601f8111610755575b506000601f82116001146106e85781929394956000926106dd575b50508160011b916000199060031b1c19161760018401555b6104d3604460043501600435600401611e81565b67ffffffffffffffff81959295116106c7576104f26002830154611891565b601f811161067c575b506000601f821160011461060f578192939495600092610604575b50508160011b916000199060031b1c19161760028201555b60038101606460043501356001600160a01b0381168091036101aa5773ffffffffffffffffffffffffffffffffffffffff1982541617905560846004350135600482015560a46004350135600582015560c4600435013560068201556007810160e4600435013560ff81168091036101aa5760ff198254161790556101046004350135600882015561012460043501356009820155600a61014460043501359101554260096105db611a7e565b015560ff60a01b196008541660085542600a6105f5611a7e565b015411156101aa57036101aa57005b013590508580610516565b601f198216956002840160005260206000209160005b8881106106645750836001959697981061064a575b505050811b01600282015561052e565b0135600019600384901b60f8161c1916905585808061063a565b90926020600181928686013581550194019101610625565b600283016000526020600020601f830160051c810191602084106106bd575b601f0160051c01905b8181106106b157506104fb565b600081556001016106a4565b909150819061069b565b634e487b7160e01b600052604160045260246000fd5b0135905085806104a7565b601f198216956001860160005260206000209160005b88811061073d57508360019596979810610723575b505050811b0160018401556104bf565b0135600019600384901b60f8161c19169055858080610713565b909260206001819286860135815501940191016106fe565b600185016000526020600020601f830160051c810160208410610795575b601f830160051c8201811061078957505061048c565b60008155600101610773565b5080610773565b01359050858061043b565b601f198216958460005260206000209160005b8881106107f6575083600195969798106107dc575b505050811b018255610450565b0135600019600384901b60f8161c191690558580806107cf565b909260206001819286860135815501940191016107ba565b836000526020600020601f830160051c81016020841061084b575b601f830160051c8201811061083f575050610420565b60008155600101610829565b5080610829565b61086f91503d806000833e61086781836117fe565b810190611ce1565b3861030f565b83513d6000823e3d90fd5b9091506020813d6020116108ac575b8161089c602093836117fe565b810103126101aa575190386102c9565b3d915061088f565b50346101aa5760003660031901126101aa57602090600a6108d3611a7e565b01549051908152f35b50346101aa5760203660031901126101aa576020906001600160a01b036109016117b6565b166000526003825260ff81600020541690519015158152f35b50346101aa5760003660031901126101aa5760ff60085460a01c1690516002821015610947576020918152f35b634e487b7160e01b600052602160045260246000fd5b50346101aa5760003660031901126101aa5760209061097a611b4c565b9051908152f35b50346101aa5760603660031901126101aa5761099b6117b6565b9060443560243567ffffffffffffffff82116101aa576109c060049236908401611a05565b50506001600160a01b039360a085600854168551948580926361d1549d60e11b82525afa928315610c4e57600093610c19575b50835163b9209e3360e01b815285821693846004830152816024816020998a94165afa908115610c0e5790610a3091600091610be1575b50611c7e565b33156101aa5782156101aa5781156101aa57336000526002928386528460002054936004610a5c611a7e565b015494600a610a69611a7e565b0154610a80610a788884611b1f565b914210611eb4565b85116101aa57610a9986610a948188611dc0565b611eff565b6101aa577fddf252ad1be2c89b69c2b068fc378daa952ba7f163c4a11628f55a4df523b3ef95836000528289528760002054908602809233600052038860002055836000520186600020556003875260ff86600020541615600014610b9957816000526003875285600020600160ff19825416179055336000528087528560002054600488526001610b2e8860002054611dd3565b500155816000528652610b578560002054865190610b4b826117e2565b83825288820152611e0d565b60001960095401906000526004865284600020555b83513381526001600160a01b039091166020820152604081019190915280606081015b0390a15160018152f35b90336000528187528560002054600488526001610bb98860002054611dd3565b50015560005285528360002054600486526001610bd98660002054611dd3565b500155610b6c565b610c019150873d8911610c07575b610bf981836117fe565b810190611c66565b38610a2a565b503d610bef565b85513d6000823e3d90fd5b610c3b91935060a03d8111610c47575b610c3381836117fe565b810190611c1f565b505091505091386109f3565b503d610c29565b84513d6000823e3d90fd5b50346101aa5760003660031901126101aa57600854906001600160a01b039182811691610c87833314611a33565b60ff8260a01c169160029283811015610947576101aa57600a610ca8611a7e565b01544211156101aa5760ff60a01b197401000000000000000000000000000000000000000091161760085580519163646bfb1760e11b83526000836020958660048301528180610cfa602482016118cb565b03915afa928315610d9357600093610d76575b5060005b8351811015610d74578086610d29610d409387611d96565b5151166000528286528360002054610d4557611d87565b610d11565b86610d508287611d96565b51511660005282865260008481205560006001610d6c83611dd3565b500155611d87565b005b610d8c9193503d806000833e61086781836117fe565b9138610d0d565b82513d6000823e3d90fd5b50346101aa5760803660031901126101aa57610db86117b6565b90610dc16117cc565b91604435926064359167ffffffffffffffff83116101aa57610de860049336908501611a05565b50506001600160a01b039460a086600854168651958680926361d1549d60e11b82525afa938415610c0e57600094611059575b5085855163b9209e3360e01b8152818516958660048301528160248160209b8c94165afa90811561104e5790610e58916000916110375750611c7e565b82169081600052600587528560002033600052875285600020548082116101aa57819083600052600589528760002033600052895203866000205581156101aa5784156101aa5780156101aa57816000526002948588528660002054956004610ebf611a7e565b015493600a610ecc611a7e565b0154610edb610a78878b611b1f565b84116101aa57610eef85610a948187611dc0565b6101aa577fddf252ad1be2c89b69c2b068fc378daa952ba7f163c4a11628f55a4df523b3ef97610b8f9584600052838c528a60002054908602809284600052038b600020558460005201896000205560038a5260ff89600020541615600014610fee578260005260038a5288600020600160ff19825416179055600052808952876000205460048a526001610f878a60002054611dd3565b500155816000528852610fb08760002054885190610fa4826117e2565b8382528a820152611e0d565b60001960095401906000526004885286600020555b8551938493846040919493929460608201956001600160a01b0380921683521660208201520152565b600092919252818952876000205460048a52600161100f8a60002054611dd3565b5001556000528752856000205460048852600161102f8860002054611dd3565b500155610fc5565b610c019150893d8b11610c0757610bf981836117fe565b87513d6000823e3d90fd5b61107291945060a03d8111610c4757610c3381836117fe565b50509150509238610e1b565b50346101aa57806003193601126101aa576110976117b6565b6024359032156101aa576001600160a01b03811680156101aa5782156101aa57326000526005602052836000208160005260205283600020549360046110db611a7e565b0154600a6110e7611a7e565b01544210156101aa578585116101aa5780610a946111059287611dc0565b6101aa57838503948511611171573260008181526005602090815283822094825293845282902095909555519384526001600160a01b03919091169083015260408201527f8c5be1e5ebec7d5bd14f71427d1e84f3dd0314c0f7b2291e5b200ac8c7c3b92590606090a1005b634e487b7160e01b600052601160045260246000fd5b50346101aa5760003660031901126101aa576020906001600160a01b03600854169051908152f35b50346101aa5760003660031901126101aa576111e16111fa916111e860026111d5611a7e565b0182519384809261196f565b03836117fe565b51918291602083526020830190611791565b0390f35b50346101aa5760003660031901126101aa576009549061121d82611cc9565b9161122a825193846117fe565b808352602091828401918260096000527f6e1540171b6c0c960b71a7020d9f60077f6af931a8bbf590da0223dacf75c7af6000915b8383106112bd57505050508051938385948501918186525180925282850193926000905b8382106112905786860387f35b845180516001600160a01b0316875283015186840152879650948501949382019360019190910190611283565b600287600192879a989997516112d2816117e2565b6001600160a01b0386541681528486015483820152815201920192019190969395949661125f565b50346101aa5760003660031901126101aa5760209060096108d3611a7e565b50346101aa5760003660031901126101aa5760209060046108d3611a7e565b50346101aa5760003660031901126101aa576111e16111fa916111e861135c611a7e565b82519384809261196f565b50346101aa5760003660031901126101aa5780516111fa916111e8826111e1816118cb565b50346101aa5760003660031901126101aa5760209060056108d3611a7e565b50346101aa5760203660031901126101aa576020906001600160a01b036113d06117b6565b166000526002825261097a816000205460046113ea611a7e565b015490611b1f565b50346101aa5760203660031901126101aa576020906001600160a01b036114176117b6565b166000526002825280600020549051908152f35b50346101aa5760003660031901126101aa5760209060086108d3611a7e565b50346101aa57611517611473602061146136611820565b8185519382858094519384920161176e565b810160018152030190209180516114958161148e818761196f565b03826117fe565b8151936114b0856114a9816001850161196f565b03866117fe565b82516114c38161148e816002860161196f565b6001600160a01b03600383015416936004830154600584015460068501549161153260ff60078801541694600888015496611525600a60098b01549a01549a83519e8f9e8f92610160808552840190611791565b916020818403910152611791565b918c8303908d0152611791565b9760608a0152608089015260a088015260c087015260e08601526101008501526101208401526101408301520390f35b50346101aa57611588602061157636611820565b8184519382858094519384920161176e565b810160008152030190206111fa60016115b56001600160a01b038454169361148e8651809481930161196f565b83519384938452806020850152830190611791565b50346101aa5760003660031901126101aa576020906001600160a01b03600754169051908152f35b50346101aa5760003660031901126101aa5760209061097a6005611614611a7e565b015460046113ea611a7e565b50346101aa57806003193601126101aa576116396117b6565b9060243532156101aa576001600160a01b0383169081156101aa5780156101aa57326000526020936002855283600020549260058652846000208160005286528460002054936004611689611a7e565b0154906116a5610a7883600a61169d611a7e565b015493611b1f565b84116101aa5780610a946116b99286611dc0565b6101aa576116e8837f8c5be1e5ebec7d5bd14f71427d1e84f3dd0314c0f7b2291e5b200ac8c7c3b92595611b3f565b32600081815260058952878120938152928852918690205584519081526001600160a01b03909116602082015260408101919091528060608101610b8f565b50346101aa5760003660031901126101aa576111e16111fa916111e860016111d5611a7e565b50346101aa5760003660031901126101aa5760209060ff60076101d6611a7e565b60005b8381106117815750506000910152565b8181015183820152602001611771565b906020916117aa8151809281855285808601910161176e565b601f01601f1916010190565b600435906001600160a01b03821682036101aa57565b602435906001600160a01b03821682036101aa57565b6040810190811067ffffffffffffffff8211176106c757604052565b90601f8019910116810190811067ffffffffffffffff8211176106c757604052565b60206003198201126101aa5767ffffffffffffffff6004358181116101aa57826023820112156101aa5780600401359182116106c7576040519261186e601f8401601f1916602001856117fe565b828452602483830101116101aa5781600092602460209301838601378301015290565b90600182811c921680156118c1575b60208310146118ab57565b634e487b7160e01b600052602260045260246000fd5b91607f16916118a0565b600654600092916118db82611891565b8082529160019081811690811561195257506001146118f957505050565b9192935060066000527ff652222313e28459528d920b65115c16c04f3efc82aaedc97be59f3f377c0d3f916000925b84841061193a57505060209250010190565b80546020858501810191909152909301928101611928565b915050602093945060ff929192191683830152151560051b010190565b906000929180549161198083611891565b9182825260019384811690816000146119e257506001146119a2575b50505050565b90919394506000526020928360002092846000945b8386106119ce57505050500101903880808061199c565b8054858701830152940193859082016119b7565b9294505050602093945060ff191683830152151560051b0101903880808061199c565b9181601f840112156101aa5782359167ffffffffffffffff83116101aa57602083818601950101116101aa57565b15611a3a57565b606460405162461bcd60e51b815260206004820152601860248201527f4f4e4c595f544f504f535f42414e4b5f434f4e545241435400000000000000006044820152fd5b604051600654816000611a9083611891565b600193808516908115611b095750600114611ab3575b5060209281520301902090565b92905060066000527ff652222313e28459528d920b65115c16c04f3efc82aaedc97be59f3f377c0d3f9260005b818110611af4575090925081016020611aa6565b84548682015293820193859350602001611ae0565b60ff191684525080151502820190506020611aa6565b8115611b29570490565b634e487b7160e01b600052601260045260246000fd5b9190820180921161117157565b600460206001600160a01b0360085416604051928380927f79a945690000000000000000000000000000000000000000000000000000000082525afa908115611bff57600091611bcb575b506006611ba2611a7e565b015490600260ff6007611bb3611a7e565b01541603611bc757611bc491611b3f565b90565b5090565b906020823d8211611bf7575b81611be4602093836117fe565b81010312611bf457505138611b97565b80fd5b3d9150611bd7565b6040513d6000823e3d90fd5b51906001600160a01b03821682036101aa57565b908160a09103126101aa57611c3381611c0b565b91611c4060208301611c0b565b91611c4d60408201611c0b565b91611bc46080611c5f60608501611c0b565b9301611c0b565b908160209103126101aa575180151581036101aa5790565b15611c8557565b606460405162461bcd60e51b815260206004820152601460248201527f4143434f554e545f4e4f545f414150524f5645440000000000000000000000006044820152fd5b67ffffffffffffffff81116106c75760051b60200190565b9060209182818303126101aa5780519067ffffffffffffffff82116101aa570181601f820112156101aa57805192611d1884611cc9565b93604093611d28855196876117fe565b818652828087019260061b850101938185116101aa578301915b848310611d525750505050505090565b85838303126101aa578386918251611d69816117e2565b611d7286611c0b565b81528286015183820152815201920191611d42565b60001981146111715760010190565b8051821015611daa5760209160051b010190565b634e487b7160e01b600052603260045260246000fd5b8181029291811591840414171561117157565b600954811015611daa57600960005260011b7f6e1540171b6c0c960b71a7020d9f60077f6af931a8bbf590da0223dacf75c7af0190600090565b600954680100000000000000008110156106c757806001611e319201600955611dd3565b919091611e6b576020816001600160a01b03600193511673ffffffffffffffffffffffffffffffffffffffff198554161784550151910155565b634e487b7160e01b600052600060045260246000fd5b903590601e19813603018212156101aa570180359067ffffffffffffffff82116101aa576020019181360383136101aa57565b15611ebb57565b606460405162461bcd60e51b815260206004820152600760248201527f6d617475726564000000000000000000000000000000000000000000000000006044820152fd5b8115611b2957069056fea26469706673582212200f02369b4b11beb074a1c84354e100894a99bc922a75fe40a6860ad25d32fd5764736f6c63430008130033",
  "linkReferences": {},
  "deployedLinkReferences": {}
}