{
  "contractName": "BondStorage",
  "abi": [
    {
      "inputs": [],
      "name": "bondManager",
      "outputs": [
        {
          "internalType": "address",
          "name": "",
          "type": "address"
        }
      ],
      "stateMutability": "view",
      "type": "function"
    },
    {
      "inputs": [],
      "name": "bondStatus",
      "outputs": [
        {
          "internalType": "enum BondData.BondStatus",
          "name": "",
          "type": "uint8"
        }
      ],
      "stateMutability": "view",
      "type": "function"
    },
    {
      "inputs": [
        {
          "internalType": "string",
          "name": "",
          "type": "string"
        }
      ],
      "name": "bonds",
      "outputs": [
        {
          "internalType": "string",
          "name": "isin",
          "type": "string"
        },
        {
          "internalType": "string",
          "name": "name",
          "type": "string"
        },
        {
          "internalType": "string",
          "name": "symbol",
          "type": "string"
        },
        {
          "internalType": "address",
          "name": "currency",
          "type": "address"
        },
        {
          "internalType": "uint256",
          "name": "denomination",
          "type": "uint256"
        },
        {
          "internalType": "uint256",
          "name": "issueVolume",
          "type": "uint256"
        },
        {
          "internalType": "uint256",
          "name": "couponRate",
          "type": "uint256"
        },
        {
          "internalType": "uint8",
          "name": "couponType",
          "type": "uint8"
        },
        {
          "internalType": "uint256",
          "name": "couponFrequency",
          "type": "uint256"
        },
        {
          "internalType": "uint256",
          "name": "issueDate",
          "type": "uint256"
        },
        {
          "internalType": "uint256",
          "name": "maturityDate",
          "type": "uint256"
        }
      ],
      "stateMutability": "view",
      "type": "function"
    },
    {
      "inputs": [],
      "name": "dealID",
      "outputs": [
        {
          "internalType": "string",
          "name": "",
          "type": "string"
        }
      ],
      "stateMutability": "view",
      "type": "function"
    },
    {
      "inputs": [
        {
          "internalType": "string",
          "name": "",
          "type": "string"
        }
      ],
      "name": "issueData",
      "outputs": [
        {
          "internalType": "address",
          "name": "issuerWalletAddress",
          "type": "address"
        },
        {
          "internalType": "string",
          "name": "countryOfIssuance",
          "type": "string"
        },
        {
          "internalType": "address",
          "name": "bondCallContract",
          "type": "address"
        },
        {
          "internalType": "address",
          "name": "identyRegistryContract",
          "type": "address"
        }
      ],
      "stateMutability": "view",
      "type": "function"
    }
  ],
  "bytecode": "0x608060405234801561001057600080fd5b50610a56806100206000396000f3fe608060405234801561001057600080fd5b50600436106100575760003560e01c8063363cc4271461005c57806341d6a5821461007a57806346e8de21146100ad57806373975df1146100e7578063c16aa77914610105575b600080fd5b610064610123565b604051610071919061058e565b60405180910390f35b610094600480360381019061008f9190610703565b610149565b6040516100a494939291906107cb565b60405180910390f35b6100c760048036038101906100c29190610703565b610277565b6040516100de9b9a9998979695949392919061084c565b60405180910390f35b6100ef6104ac565b6040516100fc919061090c565b60405180910390f35b61010d61053a565b60405161011a91906109a5565b60405180910390f35b600560009054906101000a900473ffffffffffffffffffffffffffffffffffffffff1681565b6000818051602081018201805184825260208301602085012081835280955050505050506000915090508060000160009054906101000a900473ffffffffffffffffffffffffffffffffffffffff16908060010180546101a8906109ef565b80601f01602080910402602001604051908101604052809291908181526020018280546101d4906109ef565b80156102215780601f106101f657610100808354040283529160200191610221565b820191906000526020600020905b81548152906001019060200180831161020457829003601f168201915b5050505050908060020160009054906101000a900473ffffffffffffffffffffffffffffffffffffffff16908060030160009054906101000a900473ffffffffffffffffffffffffffffffffffffffff16905084565b6001818051602081018201805184825260208301602085012081835280955050505050506000915090508060000180546102b0906109ef565b80601f01602080910402602001604051908101604052809291908181526020018280546102dc906109ef565b80156103295780601f106102fe57610100808354040283529160200191610329565b820191906000526020600020905b81548152906001019060200180831161030c57829003601f168201915b50505050509080600101805461033e906109ef565b80601f016020809104026020016040519081016040528092919081815260200182805461036a906109ef565b80156103b75780601f1061038c576101008083540402835291602001916103b7565b820191906000526020600020905b81548152906001019060200180831161039a57829003601f168201915b5050505050908060020180546103cc906109ef565b80601f01602080910402602001604051908101604052809291908181526020018280546103f8906109ef565b80156104455780601f1061041a57610100808354040283529160200191610445565b820191906000526020600020905b81548152906001019060200180831161042857829003601f168201915b5050505050908060030160009054906101000a900473ffffffffffffffffffffffffffffffffffffffff16908060040154908060050154908060060154908060070160009054906101000a900460ff169080600801549080600901549080600a015490508b565b600480546104b9906109ef565b80601f01602080910402602001604051908101604052809291908181526020018280546104e5906109ef565b80156105325780601f1061050757610100808354040283529160200191610532565b820191906000526020600020905b81548152906001019060200180831161051557829003601f168201915b505050505081565b600560149054906101000a900460ff1681565b600073ffffffffffffffffffffffffffffffffffffffff82169050919050565b60006105788261054d565b9050919050565b6105888161056d565b82525050565b60006020820190506105a3600083018461057f565b92915050565b6000604051905090565b600080fd5b600080fd5b600080fd5b600080fd5b6000601f19601f8301169050919050565b7f4e487b7100000000000000000000000000000000000000000000000000000000600052604160045260246000fd5b610610826105c7565b810181811067ffffffffffffffff8211171561062f5761062e6105d8565b5b80604052505050565b60006106426105a9565b905061064e8282610607565b919050565b600067ffffffffffffffff82111561066e5761066d6105d8565b5b610677826105c7565b9050602081019050919050565b82818337600083830152505050565b60006106a66106a184610653565b610638565b9050828152602081018484840111156106c2576106c16105c2565b5b6106cd848285610684565b509392505050565b600082601f8301126106ea576106e96105bd565b5b81356106fa848260208601610693565b91505092915050565b600060208284031215610719576107186105b3565b5b600082013567ffffffffffffffff811115610737576107366105b8565b5b610743848285016106d5565b91505092915050565b600081519050919050565b600082825260208201905092915050565b60005b8381101561078657808201518184015260208101905061076b565b60008484015250505050565b600061079d8261074c565b6107a78185610757565b93506107b7818560208601610768565b6107c0816105c7565b840191505092915050565b60006080820190506107e0600083018761057f565b81810360208301526107f28186610792565b9050610801604083018561057f565b61080e606083018461057f565b95945050505050565b6000819050919050565b61082a81610817565b82525050565b600060ff82169050919050565b61084681610830565b82525050565b6000610160820190508181036000830152610867818e610792565b9050818103602083015261087b818d610792565b9050818103604083015261088f818c610792565b905061089e606083018b61057f565b6108ab608083018a610821565b6108b860a0830189610821565b6108c560c0830188610821565b6108d260e083018761083d565b6108e0610100830186610821565b6108ee610120830185610821565b6108fc610140830184610821565b9c9b505050505050505050505050565b600060208201905081810360008301526109268184610792565b905092915050565b7f4e487b7100000000000000000000000000000000000000000000000000000000600052602160045260246000fd5b6004811061096e5761096d61092e565b5b50565b600081905061097f8261095d565b919050565b600061098f82610971565b9050919050565b61099f81610984565b82525050565b60006020820190506109ba6000830184610996565b92915050565b7f4e487b7100000000000000000000000000000000000000000000000000000000600052602260045260246000fd5b60006002820490506001821680610a0757607f821691505b602082108103610a1a57610a196109c0565b5b5091905056fea2646970667358221220fdaa809dbfb844bb95281e9c1efe1be71883238c98750868d9f9188930e9e02f64736f6c63430008130033",
  "immutableReferences": {},
  "source": "// SPDX-License-Identifier: CC0-1.0\npragma solidity ^0.8.0;\n\nimport \"./BondData.sol\";\nimport \"./Registry/IIdentityRegistry.sol\";\n\ncontract BondStorage {\n    mapping(string => BondData.IssueData) public issueData;\n    mapping(string => BondData.Bond) public bonds;\n    mapping(address => uint256) principals;\n    mapping(address => mapping(address => uint256)) approvals;\n\n    string public dealID;\n    address public bondManager;\n\n    BondData.BondStatus public bondStatus;\n\n    modifier mustBeApproved(address _user) {\n        address registry = issueData[dealID].identyRegistryContract;\n        require(\n            IIdentityRegistry(registry).isVerified(_user),\n            \"ACCOUNT_NOT_AAPROVED\"\n        );\n        _;\n    }\n}",
  "sourcePath": "/Users/sam/Documents/Blockchain/Topos/ToposGrant/T-Grant/contracts/BondStorage.sol",
  "compiler": {
    "name": "solc",
    "version": "0.8.19+commit.7dd6d404.Emscripten.clang"
  },
  "schemaVersion": "3.4.9",
  "updatedAt": "2023-11-05T00:38:19.136Z",
  "devdoc": {
    "kind": "dev",
    "methods": {},
    "version": 1
  },
  "userdoc": {
    "kind": "user",
    "methods": {},
    "version": 1
  }
}