{
  "contractName": "BondFactory",
  "abi": [
    {
      "inputs": [],
      "name": "createBond",
      "outputs": [],
      "stateMutability": "nonpayable",
      "type": "function"
    }
  ],
  "bytecode": "0x6080604052348015600f57600080fd5b50606d80601d6000396000f3fe6080604052348015600f57600080fd5b506004361060285760003560e01c8063a091b79514602d575b600080fd5b60336035565b005b56fea2646970667358221220285a31c836310015562997a4507a14c62712b4912d112518c6a56eba8625af5a64736f6c63430008130033",
  "immutableReferences": {},
  "source": "// SPDX-License-Identifier: CC0-1.0\npragma solidity ^0.8.0;\n\nimport \"../interfaces/IBondFactory.sol\";\n\ncontract BondFactory is IBondFactory {\n    function createBond() external {}\n}",
  "sourcePath": "/Users/sam/Documents/Blockchain/Topos/ToposGrant/T-Grant/contracts/Topos/Factory/BondFactory.sol",
  "compiler": {
    "name": "solc",
    "version": "0.8.19+commit.7dd6d404.Emscripten.clang"
  },
  "schemaVersion": "3.4.9",
  "updatedAt": "2023-11-04T15:33:56.420Z",
  "devdoc": {
    "kind": "dev",
    "methods": {},
    "version": 1
  },
  "userdoc": {
    "kind": "user",
    "methods": {},
    "version": 1
  }
}