{
  "contractName": "BondStorage",
  "abi": [
    {
      "inputs": [],
      "name": "bondManager",
      "outputs": [
        {
          "internalType": "address",
          "name": "",
          "type": "address"
        }
      ],
      "stateMutability": "view",
      "type": "function"
    },
    {
      "inputs": [],
      "name": "bondStatus",
      "outputs": [
        {
          "internalType": "enum BondData.BondStatus",
          "name": "",
          "type": "uint8"
        }
      ],
      "stateMutability": "view",
      "type": "function"
    },
    {
      "inputs": [
        {
          "internalType": "string",
          "name": "",
          "type": "string"
        }
      ],
      "name": "bonds",
      "outputs": [
        {
          "internalType": "string",
          "name": "isin",
          "type": "string"
        },
        {
          "internalType": "string",
          "name": "name",
          "type": "string"
        },
        {
          "internalType": "string",
          "name": "symbol",
          "type": "string"
        },
        {
          "internalType": "address",
          "name": "currency",
          "type": "address"
        },
        {
          "internalType": "uint256",
          "name": "denomination",
          "type": "uint256"
        },
        {
          "internalType": "uint256",
          "name": "issueVolume",
          "type": "uint256"
        },
        {
          "internalType": "uint256",
          "name": "couponRate",
          "type": "uint256"
        },
        {
          "internalType": "uint8",
          "name": "couponType",
          "type": "uint8"
        },
        {
          "internalType": "uint256",
          "name": "couponFrequency",
          "type": "uint256"
        },
        {
          "internalType": "uint256",
          "name": "issueDate",
          "type": "uint256"
        },
        {
          "internalType": "uint256",
          "name": "maturityDate",
          "type": "uint256"
        }
      ],
      "stateMutability": "view",
      "type": "function"
    },
    {
      "inputs": [],
      "name": "dealID",
      "outputs": [
        {
          "internalType": "string",
          "name": "",
          "type": "string"
        }
      ],
      "stateMutability": "view",
      "type": "function"
    },
    {
      "inputs": [
        {
          "internalType": "address",
          "name": "",
          "type": "address"
        }
      ],
      "name": "isInvestor",
      "outputs": [
        {
          "internalType": "bool",
          "name": "",
          "type": "bool"
        }
      ],
      "stateMutability": "view",
      "type": "function"
    },
    {
      "inputs": [
        {
          "internalType": "string",
          "name": "",
          "type": "string"
        }
      ],
      "name": "issueData",
      "outputs": [
        {
          "internalType": "address",
          "name": "issuerWalletAddress",
          "type": "address"
        },
        {
          "internalType": "string",
          "name": "countryOfIssuance",
          "type": "string"
        },
        {
          "internalType": "address",
          "name": "bondCallContract",
          "type": "address"
        },
        {
          "internalType": "address",
          "name": "identyRegistryContract",
          "type": "address"
        }
      ],
      "stateMutability": "view",
      "type": "function"
    },
    {
      "inputs": [],
      "name": "toposBankContract",
      "outputs": [
        {
          "internalType": "address",
          "name": "",
          "type": "address"
        }
      ],
      "stateMutability": "view",
      "type": "function"
    }
  ],
  "bytecode": "0x608060405234801561001057600080fd5b50610b9f806100206000396000f3fe608060405234801561001057600080fd5b506004361061007d5760003560e01c806373975df11161005b57806373975df11461010d5780639c34712a1461012b578063c16aa77914610149578063cee2a9cf146101675761007d565b8063363cc4271461008257806341d6a582146100a057806346e8de21146100d3575b600080fd5b61008a610197565b6040516100979190610648565b60405180910390f35b6100ba60048036038101906100b591906107bd565b6101bd565b6040516100ca9493929190610885565b60405180910390f35b6100ed60048036038101906100e891906107bd565b6102eb565b6040516101049b9a99989796959493929190610906565b60405180910390f35b610115610520565b60405161012291906109c6565b60405180910390f35b6101336105ae565b6040516101409190610648565b60405180910390f35b6101516105d4565b60405161015e9190610a5f565b60405180910390f35b610181600480360381019061017c9190610aa6565b6105e7565b60405161018e9190610aee565b60405180910390f35b600660009054906101000a900473ffffffffffffffffffffffffffffffffffffffff1681565b6000818051602081018201805184825260208301602085012081835280955050505050506000915090508060000160009054906101000a900473ffffffffffffffffffffffffffffffffffffffff169080600101805461021c90610b38565b80601f016020809104026020016040519081016040528092919081815260200182805461024890610b38565b80156102955780601f1061026a57610100808354040283529160200191610295565b820191906000526020600020905b81548152906001019060200180831161027857829003601f168201915b5050505050908060020160009054906101000a900473ffffffffffffffffffffffffffffffffffffffff16908060030160009054906101000a900473ffffffffffffffffffffffffffffffffffffffff16905084565b60018180516020810182018051848252602083016020850120818352809550505050505060009150905080600001805461032490610b38565b80601f016020809104026020016040519081016040528092919081815260200182805461035090610b38565b801561039d5780601f106103725761010080835404028352916020019161039d565b820191906000526020600020905b81548152906001019060200180831161038057829003601f168201915b5050505050908060010180546103b290610b38565b80601f01602080910402602001604051908101604052809291908181526020018280546103de90610b38565b801561042b5780601f106104005761010080835404028352916020019161042b565b820191906000526020600020905b81548152906001019060200180831161040e57829003601f168201915b50505050509080600201805461044090610b38565b80601f016020809104026020016040519081016040528092919081815260200182805461046c90610b38565b80156104b95780601f1061048e576101008083540402835291602001916104b9565b820191906000526020600020905b81548152906001019060200180831161049c57829003601f168201915b5050505050908060030160009054906101000a900473ffffffffffffffffffffffffffffffffffffffff16908060040154908060050154908060060154908060070160009054906101000a900460ff169080600801549080600901549080600a015490508b565b6005805461052d90610b38565b80601f016020809104026020016040519081016040528092919081815260200182805461055990610b38565b80156105a65780601f1061057b576101008083540402835291602001916105a6565b820191906000526020600020905b81548152906001019060200180831161058957829003601f168201915b505050505081565b600760009054906101000a900473ffffffffffffffffffffffffffffffffffffffff1681565b600760149054906101000a900460ff1681565b60036020528060005260406000206000915054906101000a900460ff1681565b600073ffffffffffffffffffffffffffffffffffffffff82169050919050565b600061063282610607565b9050919050565b61064281610627565b82525050565b600060208201905061065d6000830184610639565b92915050565b6000604051905090565b600080fd5b600080fd5b600080fd5b600080fd5b6000601f19601f8301169050919050565b7f4e487b7100000000000000000000000000000000000000000000000000000000600052604160045260246000fd5b6106ca82610681565b810181811067ffffffffffffffff821117156106e9576106e8610692565b5b80604052505050565b60006106fc610663565b905061070882826106c1565b919050565b600067ffffffffffffffff82111561072857610727610692565b5b61073182610681565b9050602081019050919050565b82818337600083830152505050565b600061076061075b8461070d565b6106f2565b90508281526020810184848401111561077c5761077b61067c565b5b61078784828561073e565b509392505050565b600082601f8301126107a4576107a3610677565b5b81356107b484826020860161074d565b91505092915050565b6000602082840312156107d3576107d261066d565b5b600082013567ffffffffffffffff8111156107f1576107f0610672565b5b6107fd8482850161078f565b91505092915050565b600081519050919050565b600082825260208201905092915050565b60005b83811015610840578082015181840152602081019050610825565b60008484015250505050565b600061085782610806565b6108618185610811565b9350610871818560208601610822565b61087a81610681565b840191505092915050565b600060808201905061089a6000830187610639565b81810360208301526108ac818661084c565b90506108bb6040830185610639565b6108c86060830184610639565b95945050505050565b6000819050919050565b6108e4816108d1565b82525050565b600060ff82169050919050565b610900816108ea565b82525050565b6000610160820190508181036000830152610921818e61084c565b90508181036020830152610935818d61084c565b90508181036040830152610949818c61084c565b9050610958606083018b610639565b610965608083018a6108db565b61097260a08301896108db565b61097f60c08301886108db565b61098c60e08301876108f7565b61099a6101008301866108db565b6109a86101208301856108db565b6109b66101408301846108db565b9c9b505050505050505050505050565b600060208201905081810360008301526109e0818461084c565b905092915050565b7f4e487b7100000000000000000000000000000000000000000000000000000000600052602160045260246000fd5b60028110610a2857610a276109e8565b5b50565b6000819050610a3982610a17565b919050565b6000610a4982610a2b565b9050919050565b610a5981610a3e565b82525050565b6000602082019050610a746000830184610a50565b92915050565b610a8381610627565b8114610a8e57600080fd5b50565b600081359050610aa081610a7a565b92915050565b600060208284031215610abc57610abb61066d565b5b6000610aca84828501610a91565b91505092915050565b60008115159050919050565b610ae881610ad3565b82525050565b6000602082019050610b036000830184610adf565b92915050565b7f4e487b7100000000000000000000000000000000000000000000000000000000600052602260045260246000fd5b60006002820490506001821680610b5057607f821691505b602082108103610b6357610b62610b09565b5b5091905056fea2646970667358221220edc46276a2cf01da888fa9f24b79912cf29c07ef8a80ec4608a363b07ec2d30664736f6c63430008130033",
  "immutableReferences": {},
  "source": "// SPDX-License-Identifier: CC0-1.0\npragma solidity ^0.8.0;\n\nimport \"./BondData.sol\";\nimport \"./Registry/IIdentityRegistry.sol\";\n\ncontract BondStorage {\n    mapping(string => BondData.IssueData) public issueData;\n    mapping(string => BondData.Bond) public bonds;\n    mapping(address => uint256) principals;\n    mapping(address => bool) public isInvestor;\n    mapping(address => mapping(address => uint256)) approvals;\n\n    string public dealID;\n    address public bondManager;\n    address public toposBankContract;\n\n    BondData.BondStatus public bondStatus;\n\n    BondData.DealInvestment[] listOfInvestors;\n\n    modifier onlyBondManager {\n        require(msg.sender == bondManager, \"ONLY_BOND_MANAGER\");\n        _;\n    }\n\n    modifier onlyToposBankContract {\n        require(\n            msg.sender == toposBankContract,\n            \"ONLY_TOPOS_BANK_CONTRACT\"\n        );\n        _;\n    }\n\n    modifier mustBeApproved(address _user) {\n        address registry = issueData[dealID].identyRegistryContract;\n        require(\n            IIdentityRegistry(registry).isVerified(_user),\n            \"ACCOUNT_NOT_AAPROVED\"\n        );\n        _;\n    }\n}",
  "sourcePath": "/Users/sam/Documents/Blockchain/Topos/ToposGrant/T-Grant/contracts/BondStorage.sol",
  "compiler": {
    "name": "solc",
    "version": "0.8.19+commit.7dd6d404.Emscripten.clang"
  },
  "schemaVersion": "3.4.9",
  "updatedAt": "2023-11-05T20:48:21.697Z",
  "devdoc": {
    "kind": "dev",
    "methods": {},
    "version": 1
  },
  "userdoc": {
    "kind": "user",
    "methods": {},
    "version": 1
  }
}