{
  "contractName": "BondStorage",
  "abi": [
    {
      "anonymous": false,
      "inputs": [
        {
          "components": [
            {
              "internalType": "string",
              "name": "isin",
              "type": "string"
            },
            {
              "internalType": "string",
              "name": "name",
              "type": "string"
            },
            {
              "internalType": "string",
              "name": "symbol",
              "type": "string"
            },
            {
              "internalType": "address",
              "name": "currency",
              "type": "address"
            },
            {
              "internalType": "uint256",
              "name": "denomination",
              "type": "uint256"
            },
            {
              "internalType": "uint256",
              "name": "issueVolume",
              "type": "uint256"
            },
            {
              "internalType": "uint256",
              "name": "couponRate",
              "type": "uint256"
            },
            {
              "internalType": "uint8",
              "name": "couponType",
              "type": "uint8"
            },
            {
              "internalType": "uint256",
              "name": "couponFrequency",
              "type": "uint256"
            },
            {
              "internalType": "uint8",
              "name": "dayCountBasis",
              "type": "uint8"
            },
            {
              "internalType": "uint256",
              "name": "issueDate",
              "type": "uint256"
            },
            {
              "internalType": "uint256",
              "name": "maturityDate",
              "type": "uint256"
            }
          ],
          "indexed": false,
          "internalType": "struct IData.Bond",
          "name": "_bond",
          "type": "tuple"
        },
        {
          "components": [
            {
              "internalType": "address",
              "name": "investor",
              "type": "address"
            },
            {
              "internalType": "uint256",
              "name": "principal",
              "type": "uint256"
            }
          ],
          "indexed": false,
          "internalType": "struct IData.Offer[]",
          "name": "_offers",
          "type": "tuple[]"
        }
      ],
      "name": "BondIssued",
      "type": "event"
    },
    {
      "anonymous": false,
      "inputs": [
        {
          "indexed": true,
          "internalType": "bytes32",
          "name": "messageId",
          "type": "bytes32"
        },
        {
          "indexed": true,
          "internalType": "uint64",
          "name": "destinationChainSelector",
          "type": "uint64"
        },
        {
          "indexed": false,
          "internalType": "address",
          "name": "receiver",
          "type": "address"
        },
        {
          "indexed": false,
          "internalType": "string",
          "name": "text",
          "type": "string"
        },
        {
          "indexed": false,
          "internalType": "address",
          "name": "feeToken",
          "type": "address"
        },
        {
          "indexed": false,
          "internalType": "uint256",
          "name": "fees",
          "type": "uint256"
        }
      ],
      "name": "MessageSent",
      "type": "event"
    },
    {
      "anonymous": false,
      "inputs": [],
      "name": "Redeemed",
      "type": "event"
    },
    {
      "inputs": [],
      "name": "bondISIN",
      "outputs": [
        {
          "internalType": "string",
          "name": "",
          "type": "string"
        }
      ],
      "stateMutability": "view",
      "type": "function"
    },
    {
      "inputs": [],
      "name": "bondManager",
      "outputs": [
        {
          "internalType": "address",
          "name": "",
          "type": "address"
        }
      ],
      "stateMutability": "view",
      "type": "function"
    },
    {
      "inputs": [
        {
          "internalType": "address",
          "name": "",
          "type": "address"
        }
      ],
      "name": "isRegistered",
      "outputs": [
        {
          "internalType": "bool",
          "name": "",
          "type": "bool"
        }
      ],
      "stateMutability": "view",
      "type": "function"
    },
    {
      "inputs": [],
      "name": "issued",
      "outputs": [
        {
          "internalType": "uint256",
          "name": "",
          "type": "uint256"
        }
      ],
      "stateMutability": "view",
      "type": "function"
    },
    {
      "inputs": [],
      "name": "lock",
      "outputs": [
        {
          "internalType": "uint256",
          "name": "",
          "type": "uint256"
        }
      ],
      "stateMutability": "view",
      "type": "function"
    },
    {
      "inputs": [],
      "name": "redeemed",
      "outputs": [
        {
          "internalType": "uint256",
          "name": "",
          "type": "uint256"
        }
      ],
      "stateMutability": "view",
      "type": "function"
    },
    {
      "inputs": [
        {
          "internalType": "address",
          "name": "",
          "type": "address"
        }
      ],
      "name": "stakeholderType",
      "outputs": [
        {
          "internalType": "uint8",
          "name": "",
          "type": "uint8"
        }
      ],
      "stateMutability": "view",
      "type": "function"
    }
  ],
  "bytecode": "0x608060405234801561001057600080fd5b50610521806100206000396000f3fe608060405234801561001057600080fd5b506004361061007d5760003560e01c80635f1ff5491161005b5780635f1ff549146100ee578063c3c5a5471461010c578063e231bff01461013c578063f83d08ba1461015a5761007d565b80632c0bc9a014610082578063363cc427146100a057806337ca2119146100be575b600080fd5b61008a610178565b604051610097919061030e565b60405180910390f35b6100a8610206565b6040516100b59190610371565b60405180910390f35b6100d860048036038101906100d391906103bd565b61022c565b6040516100e59190610406565b60405180910390f35b6100f661024c565b604051610103919061043a565b60405180910390f35b610126600480360381019061012191906103bd565b610252565b6040516101339190610470565b60405180910390f35b610144610272565b604051610151919061043a565b60405180910390f35b610162610278565b60405161016f919061043a565b60405180910390f35b60078054610185906104ba565b80601f01602080910402602001604051908101604052809291908181526020018280546101b1906104ba565b80156101fe5780601f106101d3576101008083540402835291602001916101fe565b820191906000526020600020905b8154815290600101906020018083116101e157829003601f168201915b505050505081565b600860009054906101000a900473ffffffffffffffffffffffffffffffffffffffff1681565b60066020528060005260406000206000915054906101000a900460ff1681565b600a5481565b60056020528060005260406000206000915054906101000a900460ff1681565b600b5481565b60095481565b600081519050919050565b600082825260208201905092915050565b60005b838110156102b857808201518184015260208101905061029d565b60008484015250505050565b6000601f19601f8301169050919050565b60006102e08261027e565b6102ea8185610289565b93506102fa81856020860161029a565b610303816102c4565b840191505092915050565b6000602082019050818103600083015261032881846102d5565b905092915050565b600073ffffffffffffffffffffffffffffffffffffffff82169050919050565b600061035b82610330565b9050919050565b61036b81610350565b82525050565b60006020820190506103866000830184610362565b92915050565b600080fd5b61039a81610350565b81146103a557600080fd5b50565b6000813590506103b781610391565b92915050565b6000602082840312156103d3576103d261038c565b5b60006103e1848285016103a8565b91505092915050565b600060ff82169050919050565b610400816103ea565b82525050565b600060208201905061041b60008301846103f7565b92915050565b6000819050919050565b61043481610421565b82525050565b600060208201905061044f600083018461042b565b92915050565b60008115159050919050565b61046a81610455565b82525050565b60006020820190506104856000830184610461565b92915050565b7f4e487b7100000000000000000000000000000000000000000000000000000000600052602260045260246000fd5b600060028204905060018216806104d257607f821691505b6020821081036104e5576104e461048b565b5b5091905056fea26469706673582212207d9581b73205936483ec42747ec4f49c83d8ca36d7abfa0d008632db73b1abf264736f6c63430008130033",
  "immutableReferences": {},
  "source": "// SPDX-License-Identifier: CC0-1.0\npragma solidity ^0.8.0;\n\nimport \"./utils/IData.sol\";\n\ncontract BondStorage is IData {\n    mapping(string => Bond) internal _bonds;\n    mapping(string => Issuer) internal issuer;\n    mapping(address => uint256) internal _principals;\n    mapping(address => uint256) internal _principalsLocked;\n    mapping(address => mapping(address => uint256)) internal _approvals;\n    mapping(address => bool) public isRegistered;\n    mapping(address => uint8) public stakeholderType;\n\n    event BondIssued(Bond _bond, Offer[] _offers);\n    event Redeemed();\n    event MessageSent(\n        bytes32 indexed messageId,\n        uint64 indexed destinationChainSelector,\n        address receiver,\n        string text,\n        address feeToken,\n        uint256 fees\n    );\n\n    string public bondISIN;\n    address public bondManager;\n    uint256 public lock;\n    uint256 public issued;\n    uint256 public redeemed;\n\n    Offer[] internal _investorsOffer;\n\n    modifier onlyBondManager {\n        require(msg.sender == bondManager, \"ERC7092: NOT_ALLOWED\");\n        _;\n    }\n\n    modifier notLocked {\n        require(lock == 1, \"REDEEM_IS_LOCKED\");\n        _;\n    }\n}",
  "sourcePath": "/Users/sam/Documents/Blockchain/Topos/ToposGrant/T-Grant/contracts/BondStorage.sol",
  "compiler": {
    "name": "solc",
    "version": "0.8.19+commit.7dd6d404.Emscripten.clang"
  },
  "schemaVersion": "3.4.9",
  "updatedAt": "2023-10-30T04:39:00.006Z",
  "devdoc": {
    "kind": "dev",
    "methods": {},
    "version": 1
  },
  "userdoc": {
    "kind": "user",
    "methods": {},
    "version": 1
  }
}