{
  "contractName": "BondTopos",
  "abi": [
    {
      "inputs": [
        {
          "internalType": "string",
          "name": "_dealID",
          "type": "string"
        },
        {
          "internalType": "address",
          "name": "_bondManager",
          "type": "address"
        },
        {
          "internalType": "address",
          "name": "_issuerWalletAddress",
          "type": "address"
        },
        {
          "internalType": "string",
          "name": "_countryOfIssuance",
          "type": "string"
        },
        {
          "internalType": "address",
          "name": "_bondCallContractAddress",
          "type": "address"
        },
        {
          "internalType": "address",
          "name": "_toposBankContract",
          "type": "address"
        },
        {
          "internalType": "address",
          "name": "_identiRegistryContract",
          "type": "address"
        }
      ],
      "stateMutability": "nonpayable",
      "type": "constructor"
    },
    {
      "anonymous": false,
      "inputs": [
        {
          "indexed": false,
          "internalType": "address",
          "name": "_owner",
          "type": "address"
        },
        {
          "indexed": false,
          "internalType": "address",
          "name": "_spender",
          "type": "address"
        },
        {
          "indexed": false,
          "internalType": "uint256",
          "name": "_amount",
          "type": "uint256"
        }
      ],
      "name": "Approval",
      "type": "event"
    },
    {
      "anonymous": false,
      "inputs": [
        {
          "indexed": false,
          "internalType": "address",
          "name": "_from",
          "type": "address"
        },
        {
          "indexed": false,
          "internalType": "address",
          "name": "_to",
          "type": "address"
        },
        {
          "indexed": false,
          "internalType": "uint256",
          "name": "_amount",
          "type": "uint256"
        }
      ],
      "name": "Transfer",
      "type": "event"
    },
    {
      "inputs": [],
      "name": "bondManager",
      "outputs": [
        {
          "internalType": "address",
          "name": "",
          "type": "address"
        }
      ],
      "stateMutability": "view",
      "type": "function"
    },
    {
      "inputs": [],
      "name": "bondStatus",
      "outputs": [
        {
          "internalType": "enum BondData.BondStatus",
          "name": "",
          "type": "uint8"
        }
      ],
      "stateMutability": "view",
      "type": "function"
    },
    {
      "inputs": [
        {
          "internalType": "string",
          "name": "",
          "type": "string"
        }
      ],
      "name": "bonds",
      "outputs": [
        {
          "internalType": "string",
          "name": "isin",
          "type": "string"
        },
        {
          "internalType": "string",
          "name": "name",
          "type": "string"
        },
        {
          "internalType": "string",
          "name": "symbol",
          "type": "string"
        },
        {
          "internalType": "address",
          "name": "currency",
          "type": "address"
        },
        {
          "internalType": "uint256",
          "name": "denomination",
          "type": "uint256"
        },
        {
          "internalType": "uint256",
          "name": "issueVolume",
          "type": "uint256"
        },
        {
          "internalType": "uint256",
          "name": "couponRate",
          "type": "uint256"
        },
        {
          "internalType": "uint8",
          "name": "couponType",
          "type": "uint8"
        },
        {
          "internalType": "uint256",
          "name": "couponFrequency",
          "type": "uint256"
        },
        {
          "internalType": "uint256",
          "name": "issueDate",
          "type": "uint256"
        },
        {
          "internalType": "uint256",
          "name": "maturityDate",
          "type": "uint256"
        }
      ],
      "stateMutability": "view",
      "type": "function"
    },
    {
      "inputs": [],
      "name": "dealID",
      "outputs": [
        {
          "internalType": "string",
          "name": "",
          "type": "string"
        }
      ],
      "stateMutability": "view",
      "type": "function"
    },
    {
      "inputs": [
        {
          "internalType": "address",
          "name": "",
          "type": "address"
        }
      ],
      "name": "isInvestor",
      "outputs": [
        {
          "internalType": "bool",
          "name": "",
          "type": "bool"
        }
      ],
      "stateMutability": "view",
      "type": "function"
    },
    {
      "inputs": [
        {
          "internalType": "string",
          "name": "",
          "type": "string"
        }
      ],
      "name": "issueData",
      "outputs": [
        {
          "internalType": "address",
          "name": "issuerWalletAddress",
          "type": "address"
        },
        {
          "internalType": "string",
          "name": "countryOfIssuance",
          "type": "string"
        },
        {
          "internalType": "address",
          "name": "bondCallContract",
          "type": "address"
        },
        {
          "internalType": "address",
          "name": "identyRegistryContract",
          "type": "address"
        }
      ],
      "stateMutability": "view",
      "type": "function"
    },
    {
      "inputs": [],
      "name": "toposBankContract",
      "outputs": [
        {
          "internalType": "address",
          "name": "",
          "type": "address"
        }
      ],
      "stateMutability": "view",
      "type": "function"
    },
    {
      "inputs": [
        {
          "components": [
            {
              "internalType": "string",
              "name": "isin",
              "type": "string"
            },
            {
              "internalType": "string",
              "name": "name",
              "type": "string"
            },
            {
              "internalType": "string",
              "name": "symbol",
              "type": "string"
            },
            {
              "internalType": "address",
              "name": "currency",
              "type": "address"
            },
            {
              "internalType": "uint256",
              "name": "denomination",
              "type": "uint256"
            },
            {
              "internalType": "uint256",
              "name": "issueVolume",
              "type": "uint256"
            },
            {
              "internalType": "uint256",
              "name": "couponRate",
              "type": "uint256"
            },
            {
              "internalType": "uint8",
              "name": "couponType",
              "type": "uint8"
            },
            {
              "internalType": "uint256",
              "name": "couponFrequency",
              "type": "uint256"
            },
            {
              "internalType": "uint256",
              "name": "issueDate",
              "type": "uint256"
            },
            {
              "internalType": "uint256",
              "name": "maturityDate",
              "type": "uint256"
            }
          ],
          "internalType": "struct BondData.Bond",
          "name": "_bond",
          "type": "tuple"
        }
      ],
      "name": "issue",
      "outputs": [],
      "stateMutability": "nonpayable",
      "type": "function"
    },
    {
      "inputs": [],
      "name": "redeem",
      "outputs": [],
      "stateMutability": "nonpayable",
      "type": "function"
    },
    {
      "inputs": [],
      "name": "isin",
      "outputs": [
        {
          "internalType": "string",
          "name": "",
          "type": "string"
        }
      ],
      "stateMutability": "view",
      "type": "function"
    },
    {
      "inputs": [],
      "name": "name",
      "outputs": [
        {
          "internalType": "string",
          "name": "",
          "type": "string"
        }
      ],
      "stateMutability": "view",
      "type": "function"
    },
    {
      "inputs": [],
      "name": "symbol",
      "outputs": [
        {
          "internalType": "string",
          "name": "",
          "type": "string"
        }
      ],
      "stateMutability": "view",
      "type": "function"
    },
    {
      "inputs": [],
      "name": "currency",
      "outputs": [
        {
          "internalType": "address",
          "name": "",
          "type": "address"
        }
      ],
      "stateMutability": "view",
      "type": "function"
    },
    {
      "inputs": [],
      "name": "denomination",
      "outputs": [
        {
          "internalType": "uint256",
          "name": "",
          "type": "uint256"
        }
      ],
      "stateMutability": "view",
      "type": "function"
    },
    {
      "inputs": [],
      "name": "issueVolume",
      "outputs": [
        {
          "internalType": "uint256",
          "name": "",
          "type": "uint256"
        }
      ],
      "stateMutability": "view",
      "type": "function"
    },
    {
      "inputs": [],
      "name": "totalSupply",
      "outputs": [
        {
          "internalType": "uint256",
          "name": "",
          "type": "uint256"
        }
      ],
      "stateMutability": "view",
      "type": "function"
    },
    {
      "inputs": [],
      "name": "couponRate",
      "outputs": [
        {
          "internalType": "uint256",
          "name": "",
          "type": "uint256"
        }
      ],
      "stateMutability": "view",
      "type": "function"
    },
    {
      "inputs": [],
      "name": "couponType",
      "outputs": [
        {
          "internalType": "uint8",
          "name": "",
          "type": "uint8"
        }
      ],
      "stateMutability": "view",
      "type": "function"
    },
    {
      "inputs": [],
      "name": "couponFrequency",
      "outputs": [
        {
          "internalType": "uint256",
          "name": "",
          "type": "uint256"
        }
      ],
      "stateMutability": "view",
      "type": "function"
    },
    {
      "inputs": [],
      "name": "issueDate",
      "outputs": [
        {
          "internalType": "uint256",
          "name": "",
          "type": "uint256"
        }
      ],
      "stateMutability": "view",
      "type": "function"
    },
    {
      "inputs": [],
      "name": "maturityDate",
      "outputs": [
        {
          "internalType": "uint256",
          "name": "",
          "type": "uint256"
        }
      ],
      "stateMutability": "view",
      "type": "function"
    },
    {
      "inputs": [
        {
          "internalType": "address",
          "name": "_account",
          "type": "address"
        }
      ],
      "name": "principalOf",
      "outputs": [
        {
          "internalType": "uint256",
          "name": "",
          "type": "uint256"
        }
      ],
      "stateMutability": "view",
      "type": "function"
    },
    {
      "inputs": [
        {
          "internalType": "address",
          "name": "_account",
          "type": "address"
        }
      ],
      "name": "balanceOf",
      "outputs": [
        {
          "internalType": "uint256",
          "name": "",
          "type": "uint256"
        }
      ],
      "stateMutability": "view",
      "type": "function"
    },
    {
      "inputs": [
        {
          "internalType": "address",
          "name": "_owner",
          "type": "address"
        },
        {
          "internalType": "address",
          "name": "_spender",
          "type": "address"
        }
      ],
      "name": "allowance",
      "outputs": [
        {
          "internalType": "uint256",
          "name": "",
          "type": "uint256"
        }
      ],
      "stateMutability": "view",
      "type": "function"
    },
    {
      "inputs": [
        {
          "internalType": "address",
          "name": "_spender",
          "type": "address"
        },
        {
          "internalType": "uint256",
          "name": "_amount",
          "type": "uint256"
        }
      ],
      "name": "approve",
      "outputs": [
        {
          "internalType": "bool",
          "name": "",
          "type": "bool"
        }
      ],
      "stateMutability": "nonpayable",
      "type": "function"
    },
    {
      "inputs": [
        {
          "internalType": "address",
          "name": "_spender",
          "type": "address"
        },
        {
          "internalType": "uint256",
          "name": "_amount",
          "type": "uint256"
        }
      ],
      "name": "decreaseAllowance",
      "outputs": [],
      "stateMutability": "nonpayable",
      "type": "function"
    },
    {
      "inputs": [
        {
          "internalType": "address",
          "name": "_to",
          "type": "address"
        },
        {
          "internalType": "uint256",
          "name": "_amount",
          "type": "uint256"
        },
        {
          "internalType": "bytes",
          "name": "_data",
          "type": "bytes"
        }
      ],
      "name": "transfer",
      "outputs": [
        {
          "internalType": "bool",
          "name": "",
          "type": "bool"
        }
      ],
      "stateMutability": "nonpayable",
      "type": "function"
    },
    {
      "inputs": [
        {
          "internalType": "address",
          "name": "_from",
          "type": "address"
        },
        {
          "internalType": "address",
          "name": "_to",
          "type": "address"
        },
        {
          "internalType": "uint256",
          "name": "_amount",
          "type": "uint256"
        },
        {
          "internalType": "bytes",
          "name": "_data",
          "type": "bytes"
        }
      ],
      "name": "transferFrom",
      "outputs": [
        {
          "internalType": "bool",
          "name": "",
          "type": "bool"
        }
      ],
      "stateMutability": "nonpayable",
      "type": "function"
    },
    {
      "inputs": [],
      "name": "getListOfInvestors",
      "outputs": [
        {
          "components": [
            {
              "internalType": "address",
              "name": "investor",
              "type": "address"
            },
            {
              "internalType": "uint256",
              "name": "amount",
              "type": "uint256"
            }
          ],
          "internalType": "struct BondData.DealInvestment[]",
          "name": "",
          "type": "tuple[]"
        }
      ],
      "stateMutability": "view",
      "type": "function"
    }
  ],
  "bytecode": "0x60806040523480156200001157600080fd5b50604051620049fe380380620049fe833981810160405281019062000037919062000429565b866005908162000048919062000765565b5085600660006101000a81548173ffffffffffffffffffffffffffffffffffffffff021916908373ffffffffffffffffffffffffffffffffffffffff160217905550846000886040516200009d91906200088e565b908152602001604051809103902060000160006101000a81548173ffffffffffffffffffffffffffffffffffffffff021916908373ffffffffffffffffffffffffffffffffffffffff16021790555083600088604051620000ff91906200088e565b908152602001604051809103902060010190816200011e919062000765565b5081600760006101000a81548173ffffffffffffffffffffffffffffffffffffffff021916908373ffffffffffffffffffffffffffffffffffffffff160217905550826000886040516200017391906200088e565b908152602001604051809103902060020160006101000a81548173ffffffffffffffffffffffffffffffffffffffff021916908373ffffffffffffffffffffffffffffffffffffffff16021790555080600088604051620001d591906200088e565b908152602001604051809103902060030160006101000a81548173ffffffffffffffffffffffffffffffffffffffff021916908373ffffffffffffffffffffffffffffffffffffffff16021790555050505050505050620008a7565b6000604051905090565b600080fd5b600080fd5b600080fd5b600080fd5b6000601f19601f8301169050919050565b7f4e487b7100000000000000000000000000000000000000000000000000000000600052604160045260246000fd5b6200029a826200024f565b810181811067ffffffffffffffff82111715620002bc57620002bb62000260565b5b80604052505050565b6000620002d162000231565b9050620002df82826200028f565b919050565b600067ffffffffffffffff82111562000302576200030162000260565b5b6200030d826200024f565b9050602081019050919050565b60005b838110156200033a5780820151818401526020810190506200031d565b60008484015250505050565b60006200035d6200035784620002e4565b620002c5565b9050828152602081018484840111156200037c576200037b6200024a565b5b620003898482856200031a565b509392505050565b600082601f830112620003a957620003a862000245565b5b8151620003bb84826020860162000346565b91505092915050565b600073ffffffffffffffffffffffffffffffffffffffff82169050919050565b6000620003f182620003c4565b9050919050565b6200040381620003e4565b81146200040f57600080fd5b50565b6000815190506200042381620003f8565b92915050565b600080600080600080600060e0888a0312156200044b576200044a6200023b565b5b600088015167ffffffffffffffff8111156200046c576200046b62000240565b5b6200047a8a828b0162000391565b97505060206200048d8a828b0162000412565b9650506040620004a08a828b0162000412565b955050606088015167ffffffffffffffff811115620004c457620004c362000240565b5b620004d28a828b0162000391565b9450506080620004e58a828b0162000412565b93505060a0620004f88a828b0162000412565b92505060c06200050b8a828b0162000412565b91505092959891949750929550565b600081519050919050565b7f4e487b7100000000000000000000000000000000000000000000000000000000600052602260045260246000fd5b600060028204905060018216806200056d57607f821691505b60208210810362000583576200058262000525565b5b50919050565b60008190508160005260206000209050919050565b60006020601f8301049050919050565b600082821b905092915050565b600060088302620005ed7fffffffffffffffffffffffffffffffffffffffffffffffffffffffffffffffff82620005ae565b620005f98683620005ae565b95508019841693508086168417925050509392505050565b6000819050919050565b6000819050919050565b600062000646620006406200063a8462000611565b6200061b565b62000611565b9050919050565b6000819050919050565b620006628362000625565b6200067a62000671826200064d565b848454620005bb565b825550505050565b600090565b6200069162000682565b6200069e81848462000657565b505050565b5b81811015620006c657620006ba60008262000687565b600181019050620006a4565b5050565b601f8211156200071557620006df8162000589565b620006ea846200059e565b81016020851015620006fa578190505b6200071262000709856200059e565b830182620006a3565b50505b505050565b600082821c905092915050565b60006200073a600019846008026200071a565b1980831691505092915050565b600062000755838362000727565b9150826002028217905092915050565b62000770826200051a565b67ffffffffffffffff8111156200078c576200078b62000260565b5b62000798825462000554565b620007a5828285620006ca565b600060209050601f831160018114620007dd5760008415620007c8578287015190505b620007d4858262000747565b86555062000844565b601f198416620007ed8662000589565b60005b828110156200081757848901518255600182019150602085019450602081019050620007f0565b8683101562000837578489015162000833601f89168262000727565b8355505b6001600288020188555050505b505050505050565b600081905092915050565b600062000864826200051a565b6200087081856200084c565b9350620008828185602086016200031a565b80840191505092915050565b60006200089c828462000857565b915081905092915050565b61414780620008b76000396000f3fe608060405234801561001057600080fd5b50600436106101cf5760003560e01c80638d1343e011610104578063be45fd62116100a2578063d59624b411610071578063d59624b414610549578063d76805aa14610567578063dd62ed3e14610583578063e5a6b10f146105b3576101cf565b8063be45fd62146104ad578063c0bcb26f146104dd578063c16aa779146104fb578063cee2a9cf14610519576101cf565b80639c34712a116100de5780639c34712a14610439578063a457c2d714610457578063ab67aa5814610473578063be040fb0146104a3576101cf565b80638d1343e0146103df5780638db6f28a146103fd57806395d89b411461041b576101cf565b80635eb0b3d011610171578063710d33291161014b578063710d33291461036757806373975df11461038557806382d5a60d146103a35780638bca6d16146103c1576101cf565b80635eb0b3d0146102e957806361e20a1c1461030757806370a0823114610337576101cf565b806318160ddd116101ad57806318160ddd14610240578063363cc4271461025e57806341d6a5821461027c57806346e8de21146102af576101cf565b8063045017ce146101d457806306fdde03146101f2578063095ea7b314610210575b600080fd5b6101dc6105d1565b6040516101e9919061270e565b60405180910390f35b6101fa610608565b60405161020791906127b9565b60405180910390f35b61022a60048036038101906102259190612883565b6106ba565b60405161023791906128de565b60405180910390f35b6102486107d9565b6040516102559190612908565b60405180910390f35b610266610830565b6040516102739190612932565b60405180910390f35b61029660048036038101906102919190612a82565b610856565b6040516102a69493929190612acb565b60405180910390f35b6102c960048036038101906102c49190612a82565b610984565b6040516102e09b9a99989796959493929190612b17565b60405180910390f35b6102f1610bb9565b6040516102fe9190612908565b60405180910390f35b610321600480360381019061031c9190612bd7565b610be3565b60405161032e9190612908565b60405180910390f35b610351600480360381019061034c9190612bd7565b610c2c565b60405161035e9190612908565b60405180910390f35b61036f610ca2565b60405161037c9190612908565b60405180910390f35b61038d610ccc565b60405161039a91906127b9565b60405180910390f35b6103ab610d5a565b6040516103b891906127b9565b60405180910390f35b6103c9610e0c565b6040516103d69190612908565b60405180910390f35b6103e7610e36565b6040516103f49190612908565b60405180910390f35b610405610e60565b6040516104129190612d00565b60405180910390f35b610423610f1f565b60405161043091906127b9565b60405180910390f35b610441610fd1565b60405161044e9190612932565b60405180910390f35b610471600480360381019061046c9190612883565b610ff7565b005b61048d60048036038101906104889190612d82565b61100c565b60405161049a91906128de565b60405180910390f35b6104ab61113b565b005b6104c760048036038101906104c29190612e0a565b6111cd565b6040516104d491906128de565b60405180910390f35b6104e56112f0565b6040516104f29190612908565b60405180910390f35b61050361131a565b6040516105109190612ef5565b60405180910390f35b610533600480360381019061052e9190612bd7565b61132d565b60405161054091906128de565b60405180910390f35b61055161134d565b60405161055e9190612908565b60405180910390f35b610581600480360381019061057c9190612f35565b611377565b005b61059d60048036038101906105989190612f7e565b611413565b6040516105aa9190612908565b60405180910390f35b6105bb61149a565b6040516105c89190612932565b60405180910390f35b6000600160056040516105e491906130c1565b908152602001604051809103902060070160009054906101000a900460ff16905090565b60606001600560405161061b91906130c1565b9081526020016040518091039020600101805461063790612fed565b80601f016020809104026020016040519081016040528092919081815260200182805461066390612fed565b80156106b05780601f10610685576101008083540402835291602001916106b0565b820191906000526020600020905b81548152906001019060200180831161069357829003601f168201915b5050505050905090565b60008260008060056040516106cf91906130c1565b908152602001604051809103902060030160009054906101000a900473ffffffffffffffffffffffffffffffffffffffff1690508073ffffffffffffffffffffffffffffffffffffffff1663b9209e33836040518263ffffffff1660e01b815260040161073c9190612932565b602060405180830381865afa158015610759573d6000803e3d6000fd5b505050506040513d601f19601f8201168201806040525081019061077d9190613104565b6107bc576040517f08c379a00000000000000000000000000000000000000000000000000000000081526004016107b39061317d565b60405180910390fd5b60003290506107cc8187876114e4565b6001935050505092915050565b6000600160056040516107ec91906130c1565b9081526020016040518091039020600401546001600560405161080f91906130c1565b90815260200160405180910390206005015461082b91906131fb565b905090565b600660009054906101000a900473ffffffffffffffffffffffffffffffffffffffff1681565b6000818051602081018201805184825260208301602085012081835280955050505050506000915090508060000160009054906101000a900473ffffffffffffffffffffffffffffffffffffffff16908060010180546108b590612fed565b80601f01602080910402602001604051908101604052809291908181526020018280546108e190612fed565b801561092e5780601f106109035761010080835404028352916020019161092e565b820191906000526020600020905b81548152906001019060200180831161091157829003601f168201915b5050505050908060020160009054906101000a900473ffffffffffffffffffffffffffffffffffffffff16908060030160009054906101000a900473ffffffffffffffffffffffffffffffffffffffff16905084565b6001818051602081018201805184825260208301602085012081835280955050505050506000915090508060000180546109bd90612fed565b80601f01602080910402602001604051908101604052809291908181526020018280546109e990612fed565b8015610a365780601f10610a0b57610100808354040283529160200191610a36565b820191906000526020600020905b815481529060010190602001808311610a1957829003601f168201915b505050505090806001018054610a4b90612fed565b80601f0160208091040260200160405190810160405280929190818152602001828054610a7790612fed565b8015610ac45780601f10610a9957610100808354040283529160200191610ac4565b820191906000526020600020905b815481529060010190602001808311610aa757829003601f168201915b505050505090806002018054610ad990612fed565b80601f0160208091040260200160405190810160405280929190818152602001828054610b0590612fed565b8015610b525780601f10610b2757610100808354040283529160200191610b52565b820191906000526020600020905b815481529060010190602001808311610b3557829003601f168201915b5050505050908060030160009054906101000a900473ffffffffffffffffffffffffffffffffffffffff16908060040154908060050154908060060154908060070160009054906101000a900460ff169080600801549080600901549080600a015490508b565b600060016005604051610bcc91906130c1565b908152602001604051809103902060080154905090565b6000600260008373ffffffffffffffffffffffffffffffffffffffff1673ffffffffffffffffffffffffffffffffffffffff168152602001908152602001600020549050919050565b600060016005604051610c3f91906130c1565b908152602001604051809103902060040154600260008473ffffffffffffffffffffffffffffffffffffffff1673ffffffffffffffffffffffffffffffffffffffff16815260200190815260200160002054610c9b91906131fb565b9050919050565b600060016005604051610cb591906130c1565b908152602001604051809103902060050154905090565b60058054610cd990612fed565b80601f0160208091040260200160405190810160405280929190818152602001828054610d0590612fed565b8015610d525780601f10610d2757610100808354040283529160200191610d52565b820191906000526020600020905b815481529060010190602001808311610d3557829003601f168201915b505050505081565b606060016005604051610d6d91906130c1565b90815260200160405180910390206000018054610d8990612fed565b80601f0160208091040260200160405190810160405280929190818152602001828054610db590612fed565b8015610e025780601f10610dd757610100808354040283529160200191610e02565b820191906000526020600020905b815481529060010190602001808311610de557829003601f168201915b5050505050905090565b600060016005604051610e1f91906130c1565b908152602001604051809103902060040154905090565b600060016005604051610e4991906130c1565b908152602001604051809103902060090154905090565b60606008805480602002602001604051908101604052809291908181526020016000905b82821015610f1657838290600052602060002090600202016040518060400160405290816000820160009054906101000a900473ffffffffffffffffffffffffffffffffffffffff1673ffffffffffffffffffffffffffffffffffffffff1673ffffffffffffffffffffffffffffffffffffffff16815260200160018201548152505081526020019060010190610e84565b50505050905090565b606060016005604051610f3291906130c1565b90815260200160405180910390206002018054610f4e90612fed565b80601f0160208091040260200160405190810160405280929190818152602001828054610f7a90612fed565b8015610fc75780601f10610f9c57610100808354040283529160200191610fc7565b820191906000526020600020905b815481529060010190602001808311610faa57829003601f168201915b5050505050905090565b600760009054906101000a900473ffffffffffffffffffffffffffffffffffffffff1681565b60003290506110078184846118d7565b505050565b600084600080600560405161102191906130c1565b908152602001604051809103902060030160009054906101000a900473ffffffffffffffffffffffffffffffffffffffff1690508073ffffffffffffffffffffffffffffffffffffffff1663b9209e33836040518263ffffffff1660e01b815260040161108e9190612932565b602060405180830381865afa1580156110ab573d6000803e3d6000fd5b505050506040513d601f19601f820116820180604052508101906110cf9190613104565b61110e576040517f08c379a00000000000000000000000000000000000000000000000000000000081526004016111059061317d565b60405180910390fd5b600032905061111e898289611c74565b61112b8989898989611dc1565b6001935050505095945050505050565b600760009054906101000a900473ffffffffffffffffffffffffffffffffffffffff1673ffffffffffffffffffffffffffffffffffffffff163373ffffffffffffffffffffffffffffffffffffffff16146111cb576040517f08c379a00000000000000000000000000000000000000000000000000000000081526004016111c290613278565b60405180910390fd5b565b60008460008060056040516111e291906130c1565b908152602001604051809103902060030160009054906101000a900473ffffffffffffffffffffffffffffffffffffffff1690508073ffffffffffffffffffffffffffffffffffffffff1663b9209e33836040518263ffffffff1660e01b815260040161124f9190612932565b602060405180830381865afa15801561126c573d6000803e3d6000fd5b505050506040513d601f19601f820116820180604052508101906112909190613104565b6112cf576040517f08c379a00000000000000000000000000000000000000000000000000000000081526004016112c69061317d565b60405180910390fd5b60003290506112e18189898989611dc1565b60019350505050949350505050565b60006001600560405161130391906130c1565b908152602001604051809103902060060154905090565b600760149054906101000a900460ff1681565b60036020528060005260406000206000915054906101000a900460ff1681565b60006001600560405161136091906130c1565b9081526020016040518091039020600a0154905090565b600760009054906101000a900473ffffffffffffffffffffffffffffffffffffffff1673ffffffffffffffffffffffffffffffffffffffff163373ffffffffffffffffffffffffffffffffffffffff1614611407576040517f08c379a00000000000000000000000000000000000000000000000000000000081526004016113fe90613278565b60405180910390fd5b6114108161219b565b50565b6000600460008473ffffffffffffffffffffffffffffffffffffffff1673ffffffffffffffffffffffffffffffffffffffff16815260200190815260200160002060008373ffffffffffffffffffffffffffffffffffffffff1673ffffffffffffffffffffffffffffffffffffffff16815260200190815260200160002054905092915050565b6000600160056040516114ad91906130c1565b908152602001604051809103902060030160009054906101000a900473ffffffffffffffffffffffffffffffffffffffff16905090565b600073ffffffffffffffffffffffffffffffffffffffff168373ffffffffffffffffffffffffffffffffffffffff1603611553576040517f08c379a000000000000000000000000000000000000000000000000000000000815260040161154a906132e4565b60405180910390fd5b600073ffffffffffffffffffffffffffffffffffffffff168273ffffffffffffffffffffffffffffffffffffffff16036115c2576040517f08c379a00000000000000000000000000000000000000000000000000000000081526004016115b990613350565b60405180910390fd5b60008111611605576040517f08c379a00000000000000000000000000000000000000000000000000000000081526004016115fc906133bc565b60405180910390fd5b6000600260008573ffffffffffffffffffffffffffffffffffffffff1673ffffffffffffffffffffffffffffffffffffffff1681526020019081526020016000205490506000600460008673ffffffffffffffffffffffffffffffffffffffff1673ffffffffffffffffffffffffffffffffffffffff16815260200190815260200160002060008573ffffffffffffffffffffffffffffffffffffffff1673ffffffffffffffffffffffffffffffffffffffff1681526020019081526020016000205490506000600160056040516116dd91906130c1565b908152602001604051809103902060040154905060006001600560405161170491906130c1565b9081526020016040518091039020600a015490506000828561172691906131fb565b905081421061176a576040517f08c379a000000000000000000000000000000000000000000000000000000000815260040161176190613428565b60405180910390fd5b808611156117ad576040517f08c379a00000000000000000000000000000000000000000000000000000000081526004016117a490613494565b60405180910390fd5b60008384886117bc91906134b4565b6117c691906134f6565b14611806576040517f08c379a00000000000000000000000000000000000000000000000000000000081526004016117fd906133bc565b60405180910390fd5b85846118129190613527565b600460008a73ffffffffffffffffffffffffffffffffffffffff1673ffffffffffffffffffffffffffffffffffffffff16815260200190815260200160002060008973ffffffffffffffffffffffffffffffffffffffff1673ffffffffffffffffffffffffffffffffffffffff168152602001908152602001600020819055507f8c5be1e5ebec7d5bd14f71427d1e84f3dd0314c0f7b2291e5b200ac8c7c3b9258888886040516118c59392919061355b565b60405180910390a15050505050505050565b600073ffffffffffffffffffffffffffffffffffffffff168373ffffffffffffffffffffffffffffffffffffffff1603611946576040517f08c379a000000000000000000000000000000000000000000000000000000000815260040161193d906132e4565b60405180910390fd5b600073ffffffffffffffffffffffffffffffffffffffff168273ffffffffffffffffffffffffffffffffffffffff16036119b5576040517f08c379a00000000000000000000000000000000000000000000000000000000081526004016119ac90613350565b60405180910390fd5b600081116119f8576040517f08c379a00000000000000000000000000000000000000000000000000000000081526004016119ef906133bc565b60405180910390fd5b6000600460008573ffffffffffffffffffffffffffffffffffffffff1673ffffffffffffffffffffffffffffffffffffffff16815260200190815260200160002060008473ffffffffffffffffffffffffffffffffffffffff1673ffffffffffffffffffffffffffffffffffffffff168152602001908152602001600020549050600060016005604051611a8c91906130c1565b9081526020016040518091039020600401549050600060016005604051611ab391906130c1565b9081526020016040518091039020600a01549050804210611b09576040517f08c379a0000000000000000000000000000000000000000000000000000000008152600401611b0090613428565b60405180910390fd5b82841115611b4c576040517f08c379a0000000000000000000000000000000000000000000000000000000008152600401611b43906135de565b60405180910390fd5b6000828386611b5b91906134b4565b611b6591906134f6565b14611ba5576040517f08c379a0000000000000000000000000000000000000000000000000000000008152600401611b9c906133bc565b60405180910390fd5b8383611bb191906135fe565b600460008873ffffffffffffffffffffffffffffffffffffffff1673ffffffffffffffffffffffffffffffffffffffff16815260200190815260200160002060008773ffffffffffffffffffffffffffffffffffffffff1673ffffffffffffffffffffffffffffffffffffffff168152602001908152602001600020819055507f8c5be1e5ebec7d5bd14f71427d1e84f3dd0314c0f7b2291e5b200ac8c7c3b925868686604051611c649392919061355b565b60405180910390a1505050505050565b6000600460008573ffffffffffffffffffffffffffffffffffffffff1673ffffffffffffffffffffffffffffffffffffffff16815260200190815260200160002060008473ffffffffffffffffffffffffffffffffffffffff1673ffffffffffffffffffffffffffffffffffffffff16815260200190815260200160002054905080821115611d38576040517f08c379a0000000000000000000000000000000000000000000000000000000008152600401611d2f906135de565b60405180910390fd5b818103600460008673ffffffffffffffffffffffffffffffffffffffff1673ffffffffffffffffffffffffffffffffffffffff16815260200190815260200160002060008573ffffffffffffffffffffffffffffffffffffffff1673ffffffffffffffffffffffffffffffffffffffff1681526020019081526020016000208190555050505050565b600073ffffffffffffffffffffffffffffffffffffffff168573ffffffffffffffffffffffffffffffffffffffff1603611e30576040517f08c379a0000000000000000000000000000000000000000000000000000000008152600401611e27906132e4565b60405180910390fd5b600073ffffffffffffffffffffffffffffffffffffffff168473ffffffffffffffffffffffffffffffffffffffff1603611e9f576040517f08c379a0000000000000000000000000000000000000000000000000000000008152600401611e969061367e565b60405180910390fd5b60008311611ee2576040517f08c379a0000000000000000000000000000000000000000000000000000000008152600401611ed9906133bc565b60405180910390fd5b6000600260008773ffffffffffffffffffffffffffffffffffffffff1673ffffffffffffffffffffffffffffffffffffffff168152602001908152602001600020549050600060016005604051611f3991906130c1565b9081526020016040518091039020600401549050600060016005604051611f6091906130c1565b9081526020016040518091039020600a0154905060008284611f8291906131fb565b9050814210611fc6576040517f08c379a0000000000000000000000000000000000000000000000000000000008152600401611fbd90613428565b60405180910390fd5b80871115612009576040517f08c379a000000000000000000000000000000000000000000000000000000000815260040161200090613494565b60405180910390fd5b600083848961201891906134b4565b61202291906134f6565b14612062576040517f08c379a0000000000000000000000000000000000000000000000000000000008152600401612059906133bc565b60405180910390fd5b61206f89898989896126e4565b6000600260008a73ffffffffffffffffffffffffffffffffffffffff1673ffffffffffffffffffffffffffffffffffffffff16815260200190815260200160002054905060008486029050808603600260008d73ffffffffffffffffffffffffffffffffffffffff1673ffffffffffffffffffffffffffffffffffffffff16815260200190815260200160002081905550808201600260008c73ffffffffffffffffffffffffffffffffffffffff1673ffffffffffffffffffffffffffffffffffffffff16815260200190815260200160002081905550506121548a8a8a8a8a6126eb565b7fddf252ad1be2c89b69c2b068fc378daa952ba7f163c4a11628f55a4df523b3ef8a8a8a6040516121879392919061355b565b60405180910390a150505050505050505050565b60008160a0013590506000600760009054906101000a900473ffffffffffffffffffffffffffffffffffffffff1673ffffffffffffffffffffffffffffffffffffffff1663605936ea60056040518263ffffffff1660e01b81526004016122029190613722565b602060405180830381865afa15801561221f573d6000803e3d6000fd5b505050506040513d601f19601f820116820180604052508101906122439190613759565b9050808214612287576040517f08c379a000000000000000000000000000000000000000000000000000000000815260040161227e906137d2565b60405180910390fd5b6000600760009054906101000a900473ffffffffffffffffffffffffffffffffffffffff1673ffffffffffffffffffffffffffffffffffffffff1663c8d7f62e60056040518263ffffffff1660e01b81526004016122e59190613722565b600060405180830381865afa158015612302573d6000803e3d6000fd5b505050506040513d6000823e3d601f19601f8201168201806040525081019061232b919061391f565b905060006001600560405161234091906130c1565b90815260200160405180910390206004015490506000805b83518110156125e457600084828151811061237657612375613968565b5b6020026020010151600001519050600085838151811061239957612398613968565b5b6020026020010151602001519050600073ffffffffffffffffffffffffffffffffffffffff168273ffffffffffffffffffffffffffffffffffffffff1603612416576040517f08c379a000000000000000000000000000000000000000000000000000000000815260040161240d906139e3565b60405180910390fd5b6000811415801561243d5750600085868361243191906134b4565b61243b91906134b4565b145b61247c576040517f08c379a0000000000000000000000000000000000000000000000000000000008152600401612473906133bc565b60405180910390fd5b80846124889190613527565b935080600260008473ffffffffffffffffffffffffffffffffffffffff1673ffffffffffffffffffffffffffffffffffffffff168152602001908152602001600020819055506001600360008473ffffffffffffffffffffffffffffffffffffffff1673ffffffffffffffffffffffffffffffffffffffff16815260200190815260200160002060006101000a81548160ff021916908315150217905550600860405180604001604052808473ffffffffffffffffffffffffffffffffffffffff16815260200183815250908060018154018082558091505060019003906000526020600020906002020160009091909190915060008201518160000160006101000a81548173ffffffffffffffffffffffffffffffffffffffff021916908373ffffffffffffffffffffffffffffffffffffffff160217905550602082015181600101555050505080806125dc90613a03565b915050612358565b5085600160056040516125f791906130c1565b908152602001604051809103902081816126119190614097565b905050426001600560405161262691906130c1565b9081526020016040518091039020600901819055506000600760146101000a81548160ff0219169083600181111561266157612660612e7e565b5b021790555060006001600560405161267991906130c1565b9081526020016040518091039020600a0154905042811161269957600080fd5b8482146126db576040517f08c379a00000000000000000000000000000000000000000000000000000000081526004016126d2906140f1565b60405180910390fd5b50505050505050565b5050505050565b5050505050565b600060ff82169050919050565b612708816126f2565b82525050565b600060208201905061272360008301846126ff565b92915050565b600081519050919050565b600082825260208201905092915050565b60005b83811015612763578082015181840152602081019050612748565b60008484015250505050565b6000601f19601f8301169050919050565b600061278b82612729565b6127958185612734565b93506127a5818560208601612745565b6127ae8161276f565b840191505092915050565b600060208201905081810360008301526127d38184612780565b905092915050565b6000604051905090565b600080fd5b600080fd5b600073ffffffffffffffffffffffffffffffffffffffff82169050919050565b600061281a826127ef565b9050919050565b61282a8161280f565b811461283557600080fd5b50565b60008135905061284781612821565b92915050565b6000819050919050565b6128608161284d565b811461286b57600080fd5b50565b60008135905061287d81612857565b92915050565b6000806040838503121561289a576128996127e5565b5b60006128a885828601612838565b92505060206128b98582860161286e565b9150509250929050565b60008115159050919050565b6128d8816128c3565b82525050565b60006020820190506128f360008301846128cf565b92915050565b6129028161284d565b82525050565b600060208201905061291d60008301846128f9565b92915050565b61292c8161280f565b82525050565b60006020820190506129476000830184612923565b92915050565b600080fd5b600080fd5b7f4e487b7100000000000000000000000000000000000000000000000000000000600052604160045260246000fd5b61298f8261276f565b810181811067ffffffffffffffff821117156129ae576129ad612957565b5b80604052505050565b60006129c16127db565b90506129cd8282612986565b919050565b600067ffffffffffffffff8211156129ed576129ec612957565b5b6129f68261276f565b9050602081019050919050565b82818337600083830152505050565b6000612a25612a20846129d2565b6129b7565b905082815260208101848484011115612a4157612a40612952565b5b612a4c848285612a03565b509392505050565b600082601f830112612a6957612a6861294d565b5b8135612a79848260208601612a12565b91505092915050565b600060208284031215612a9857612a976127e5565b5b600082013567ffffffffffffffff811115612ab657612ab56127ea565b5b612ac284828501612a54565b91505092915050565b6000608082019050612ae06000830187612923565b8181036020830152612af28186612780565b9050612b016040830185612923565b612b0e6060830184612923565b95945050505050565b6000610160820190508181036000830152612b32818e612780565b90508181036020830152612b46818d612780565b90508181036040830152612b5a818c612780565b9050612b69606083018b612923565b612b76608083018a6128f9565b612b8360a08301896128f9565b612b9060c08301886128f9565b612b9d60e08301876126ff565b612bab6101008301866128f9565b612bb96101208301856128f9565b612bc76101408301846128f9565b9c9b505050505050505050505050565b600060208284031215612bed57612bec6127e5565b5b6000612bfb84828501612838565b91505092915050565b600081519050919050565b600082825260208201905092915050565b6000819050602082019050919050565b612c398161280f565b82525050565b612c488161284d565b82525050565b604082016000820151612c646000850182612c30565b506020820151612c776020850182612c3f565b50505050565b6000612c898383612c4e565b60408301905092915050565b6000602082019050919050565b6000612cad82612c04565b612cb78185612c0f565b9350612cc283612c20565b8060005b83811015612cf3578151612cda8882612c7d565b9750612ce583612c95565b925050600181019050612cc6565b5085935050505092915050565b60006020820190508181036000830152612d1a8184612ca2565b905092915050565b600080fd5b600080fd5b60008083601f840112612d4257612d4161294d565b5b8235905067ffffffffffffffff811115612d5f57612d5e612d22565b5b602083019150836001820283011115612d7b57612d7a612d27565b5b9250929050565b600080600080600060808688031215612d9e57612d9d6127e5565b5b6000612dac88828901612838565b9550506020612dbd88828901612838565b9450506040612dce8882890161286e565b935050606086013567ffffffffffffffff811115612def57612dee6127ea565b5b612dfb88828901612d2c565b92509250509295509295909350565b60008060008060608587031215612e2457612e236127e5565b5b6000612e3287828801612838565b9450506020612e438782880161286e565b935050604085013567ffffffffffffffff811115612e6457612e636127ea565b5b612e7087828801612d2c565b925092505092959194509250565b7f4e487b7100000000000000000000000000000000000000000000000000000000600052602160045260246000fd5b60028110612ebe57612ebd612e7e565b5b50565b6000819050612ecf82612ead565b919050565b6000612edf82612ec1565b9050919050565b612eef81612ed4565b82525050565b6000602082019050612f0a6000830184612ee6565b92915050565b600080fd5b60006101608284031215612f2c57612f2b612f10565b5b81905092915050565b600060208284031215612f4b57612f4a6127e5565b5b600082013567ffffffffffffffff811115612f6957612f686127ea565b5b612f7584828501612f15565b91505092915050565b60008060408385031215612f9557612f946127e5565b5b6000612fa385828601612838565b9250506020612fb485828601612838565b9150509250929050565b7f4e487b7100000000000000000000000000000000000000000000000000000000600052602260045260246000fd5b6000600282049050600182168061300557607f821691505b60208210810361301857613017612fbe565b5b50919050565b600081905092915050565b60008190508160005260206000209050919050565b6000815461304b81612fed565b613055818661301e565b945060018216600081146130705760018114613085576130b8565b60ff19831686528115158202860193506130b8565b61308e85613029565b60005b838110156130b057815481890152600182019150602081019050613091565b838801955050505b50505092915050565b60006130cd828461303e565b915081905092915050565b6130e1816128c3565b81146130ec57600080fd5b50565b6000815190506130fe816130d8565b92915050565b60006020828403121561311a576131196127e5565b5b6000613128848285016130ef565b91505092915050565b7f4143434f554e545f4e4f545f414150524f564544000000000000000000000000600082015250565b6000613167601483612734565b915061317282613131565b602082019050919050565b600060208201905081810360008301526131968161315a565b9050919050565b7f4e487b7100000000000000000000000000000000000000000000000000000000600052601260045260246000fd5b7f4e487b7100000000000000000000000000000000000000000000000000000000600052601160045260246000fd5b60006132068261284d565b91506132118361284d565b9250826132215761322061319d565b5b828204905092915050565b7f4f4e4c595f544f504f535f42414e4b5f434f4e54524143540000000000000000600082015250565b6000613262601883612734565b915061326d8261322c565b602082019050919050565b6000602082019050818103600083015261329181613255565b9050919050565b7f494e56414c49445f414444524553530000000000000000000000000000000000600082015250565b60006132ce600f83612734565b91506132d982613298565b602082019050919050565b600060208201905081810360008301526132fd816132c1565b9050919050565b7f494e56414c49445f5350454e4445525f41444452455353000000000000000000600082015250565b600061333a601783612734565b915061334582613304565b602082019050919050565b600060208201905081810360008301526133698161332d565b9050919050565b7f494e56414c49445f414d4f554e54000000000000000000000000000000000000600082015250565b60006133a6600e83612734565b91506133b182613370565b602082019050919050565b600060208201905081810360008301526133d581613399565b9050919050565b7f424f4e44535f4d41545552454400000000000000000000000000000000000000600082015250565b6000613412600d83612734565b915061341d826133dc565b602082019050919050565b6000602082019050818103600083015261344181613405565b9050919050565b7f494e53554646494349454e545f42414c414e4345000000000000000000000000600082015250565b600061347e601483612734565b915061348982613448565b602082019050919050565b600060208201905081810360008301526134ad81613471565b9050919050565b60006134bf8261284d565b91506134ca8361284d565b92508282026134d88161284d565b915082820484148315176134ef576134ee6131cc565b5b5092915050565b60006135018261284d565b915061350c8361284d565b92508261351c5761351b61319d565b5b828206905092915050565b60006135328261284d565b915061353d8361284d565b9250828201905080821115613555576135546131cc565b5b92915050565b60006060820190506135706000830186612923565b61357d6020830185612923565b61358a60408301846128f9565b949350505050565b7f494e53554646494349454e545f414c4c4f57414e434500000000000000000000600082015250565b60006135c8601683612734565b91506135d382613592565b602082019050919050565b600060208201905081810360008301526135f7816135bb565b9050919050565b60006136098261284d565b91506136148361284d565b925082820390508181111561362c5761362b6131cc565b5b92915050565b7f494e56414c49445f524543495049454e545f4144445245535300000000000000600082015250565b6000613668601983612734565b915061367382613632565b602082019050919050565b600060208201905081810360008301526136978161365b565b9050919050565b600081546136ab81612fed565b6136b58186612734565b945060018216600081146136d057600181146136e657613719565b60ff198316865281151560200286019350613719565b6136ef85613029565b60005b83811015613711578154818901526001820191506020810190506136f2565b808801955050505b50505092915050565b6000602082019050818103600083015261373c818461369e565b905092915050565b60008151905061375381612857565b92915050565b60006020828403121561376f5761376e6127e5565b5b600061377d84828501613744565b91505092915050565b7f494e56414c49445f49495355455f564f4c554d45000000000000000000000000600082015250565b60006137bc601483612734565b91506137c782613786565b602082019050919050565b600060208201905081810360008301526137eb816137af565b9050919050565b600067ffffffffffffffff82111561380d5761380c612957565b5b602082029050602081019050919050565b600080fd5b60008151905061383281612821565b92915050565b60006040828403121561384e5761384d61381e565b5b61385860406129b7565b9050600061386884828501613823565b600083015250602061387c84828501613744565b60208301525092915050565b600061389b613896846137f2565b6129b7565b905080838252602082019050604084028301858111156138be576138bd612d27565b5b835b818110156138e757806138d38882613838565b8452602084019350506040810190506138c0565b5050509392505050565b600082601f8301126139065761390561294d565b5b8151613916848260208601613888565b91505092915050565b600060208284031215613935576139346127e5565b5b600082015167ffffffffffffffff811115613953576139526127ea565b5b61395f848285016138f1565b91505092915050565b7f4e487b7100000000000000000000000000000000000000000000000000000000600052603260045260246000fd5b7f494e56414c49445f494e564553544f525f414444524553530000000000000000600082015250565b60006139cd601883612734565b91506139d882613997565b602082019050919050565b600060208201905081810360008301526139fc816139c0565b9050919050565b6000613a0e8261284d565b91507fffffffffffffffffffffffffffffffffffffffffffffffffffffffffffffffff8203613a4057613a3f6131cc565b5b600182019050919050565b600080fd5b600080fd5b600080fd5b60008083356001602003843603038112613a7757613a76613a4b565b5b80840192508235915067ffffffffffffffff821115613a9957613a98613a50565b5b602083019250600182023603831315613ab557613ab4613a55565b5b509250929050565b600082905092915050565b60006020601f8301049050919050565b600082821b905092915050565b600060088302613b157fffffffffffffffffffffffffffffffffffffffffffffffffffffffffffffffff82613ad8565b613b1f8683613ad8565b95508019841693508086168417925050509392505050565b6000819050919050565b6000613b5c613b57613b528461284d565b613b37565b61284d565b9050919050565b6000819050919050565b613b7683613b41565b613b8a613b8282613b63565b848454613ae5565b825550505050565b600090565b613b9f613b92565b613baa818484613b6d565b505050565b5b81811015613bce57613bc3600082613b97565b600181019050613bb0565b5050565b601f821115613c1357613be481613029565b613bed84613ac8565b81016020851015613bfc578190505b613c10613c0885613ac8565b830182613baf565b50505b505050565b600082821c905092915050565b6000613c3660001984600802613c18565b1980831691505092915050565b6000613c4f8383613c25565b9150826002028217905092915050565b613c698383613abd565b67ffffffffffffffff811115613c8257613c81612957565b5b613c8c8254612fed565b613c97828285613bd2565b6000601f831160018114613cc65760008415613cb4578287013590505b613cbe8582613c43565b865550613d26565b601f198416613cd486613029565b60005b82811015613cfc57848901358255600182019150602085019450602081019050613cd7565b86831015613d195784890135613d15601f891682613c25565b8355505b6001600288020188555050505b50505050505050565b613d3a838383613c5f565b505050565b60008135613d4c81612821565b80915050919050565b60008160001b9050919050565b600073ffffffffffffffffffffffffffffffffffffffff613d8284613d55565b9350801983169250808416831791505092915050565b6000613db3613dae613da9846127ef565b613b37565b6127ef565b9050919050565b6000613dc582613d98565b9050919050565b6000613dd782613dba565b9050919050565b6000819050919050565b613df182613dcc565b613e04613dfd82613dde565b8354613d62565b8255505050565b60008135613e1881612857565b80915050919050565b60007fffffffffffffffffffffffffffffffffffffffffffffffffffffffffffffffff613e4d84613d55565b9350801983169250808416831791505092915050565b613e6c82613b41565b613e7f613e7882613b63565b8354613e21565b8255505050565b613e8f816126f2565b8114613e9a57600080fd5b50565b60008135613eaa81613e86565b80915050919050565b600060ff613ec084613d55565b9350801983169250808416831791505092915050565b6000613ef1613eec613ee7846126f2565b613b37565b6126f2565b9050919050565b6000819050919050565b613f0b82613ed6565b613f1e613f1782613ef8565b8354613eb3565b8255505050565b6000810160008301613f378185613a5a565b613f42818386613d2f565b505050506001810160208301613f588185613a5a565b613f63818386613d2f565b505050506002810160408301613f798185613a5a565b613f84818386613d2f565b50505050600381016060830180613f9a81613d3f565b9050613fa68184613de8565b505050600481016080830180613fbb81613e0b565b9050613fc78184613e63565b5050506005810160a0830180613fdc81613e0b565b9050613fe88184613e63565b5050506006810160c0830180613ffd81613e0b565b90506140098184613e63565b5050506007810160e083018061401e81613e9d565b905061402a8184613f02565b5050506008810161010083018061404081613e0b565b905061404c8184613e63565b5050506009810161012083018061406281613e0b565b905061406e8184613e63565b505050600a810161014083018061408481613e0b565b90506140908184613e63565b5050505050565b6140a18282613f25565b5050565b7f494e56414c49445f544f54414c5f414d4f554e54000000000000000000000000600082015250565b60006140db601483612734565b91506140e6826140a5565b602082019050919050565b6000602082019050818103600083015261410a816140ce565b905091905056fea264697066735822122081fd6b7552c0205d1fa20b62d9513cf5a3d96e1150e6e5543a7a3f292c839b0264736f6c63430008130033",
  "immutableReferences": {},
  "source": "// SPDX-License-Identifier: CC0-1.0\npragma solidity ^0.8.0;\n\nimport \"./IERC7092.sol\";\nimport \"./BondStorage.sol\";\nimport \"./BondData.sol\";\nimport \"./Topos/interfaces/IBonds.sol\";\nimport \"./Topos/interfaces/IToposBank.sol\";\n\ncontract BondTopos is IERC7092, BondStorage, IBonds {\n    constructor(\n        string memory _dealID,\n        address _bondManager,\n        address _issuerWalletAddress,\n        string memory _countryOfIssuance,\n        address _bondCallContractAddress,\n        address _toposBankContract,\n        address _identiRegistryContract\n    ) {\n        dealID = _dealID;\n        bondManager = _bondManager;\n        issueData[_dealID].issuerWalletAddress = _issuerWalletAddress;\n        issueData[_dealID].countryOfIssuance = _countryOfIssuance;\n        toposBankContract = _toposBankContract;\n        issueData[_dealID].bondCallContract = _bondCallContractAddress;\n        issueData[_dealID].identyRegistryContract = _identiRegistryContract;\n    }\n\n    function issue(\n        BondData.Bond calldata _bond\n    ) external onlyToposBankContract {\n        _issue(_bond);\n    }\n\n    function _issue(BondData.Bond calldata _bond) internal virtual {\n        uint256 _issueVolume = _bond.issueVolume;\n        uint256 _totalAmountInvested = IToposBank(toposBankContract).getTotalAmounInvested(dealID);\n        require(_issueVolume ==  _totalAmountInvested, \"INVALID_IISUE_VOLUME\");\n\n        BondData.DealInvestment[] memory _dealInvestment = IToposBank(toposBankContract).getDealInvestment(dealID);\n\n        uint256 _denomination = bonds[dealID].denomination;\n        uint256 volume;\n\n        for(uint256 i; i < _dealInvestment.length; i++) {\n            address investor = _dealInvestment[i].investor;\n            uint256 principal = _dealInvestment[i].amount;\n\n            require(investor != address(0), \"INVALID_INVESTOR_ADDRESS\");\n            require(\n                principal != 0 && (principal * _denomination) * _denomination == 0,\n                \"INVALID_AMOUNT\"\n            );\n\n            volume += principal;\n            principals[investor] = principal;\n            isInvestor[investor] = true;\n \n            listOfInvestors.push(\n                BondData.DealInvestment({\n                    investor: investor,\n                    amount: principal\n                })\n            );\n        }\n\n        bonds[dealID] = _bond;\n        bonds[dealID].issueDate = block.timestamp;\n        bondStatus = BondData.BondStatus.ISSUED;\n\n        uint256 _maturityDate = bonds[dealID].maturityDate;\n        require(_maturityDate > block.timestamp);\n        require(volume == _totalAmountInvested, \"INVALID_TOTAL_AMOUNT\");\n    }\n\n    function redeem() external onlyToposBankContract {\n\n    }\n \n    function isin() external view returns(string memory) {\n        return bonds[dealID].isin;\n    }\n\n    function name() external view returns(string memory) {\n        return bonds[dealID].name;\n    }\n\n    function symbol() external view returns(string memory) {\n        return bonds[dealID].symbol;\n    }\n\n    function currency() external view returns(address) {\n        return bonds[dealID].currency;\n    }\n\n    function denomination() external view returns(uint256) {\n        return bonds[dealID].denomination;\n    }\n\n    function issueVolume() external view returns(uint256) {\n        return bonds[dealID].issueVolume;\n    }\n\n    function totalSupply() external view returns(uint256) {\n        return bonds[dealID].issueVolume / bonds[dealID].denomination;\n    }\n\n    function couponRate() external view returns(uint256) {\n        return bonds[dealID].couponRate;\n    }\n\n    function couponType() external view returns(uint8) {\n        return bonds[dealID].couponType;\n    }\n\n    function couponFrequency() external view returns(uint256) {\n        return bonds[dealID].couponFrequency;\n    }\n\n    function issueDate() external view returns(uint256) {\n        return bonds[dealID].issueDate;\n    }\n\n    function maturityDate() external view returns(uint256) {\n        return bonds[dealID].maturityDate;\n    }\n\n    function principalOf(address _account) external view returns(uint256) {\n        return principals[_account];\n    }\n\n    function balanceOf(address _account) external view returns(uint256) {\n        return principals[_account] / bonds[dealID].denomination;\n    }\n\n    function allowance(address _owner, address _spender) external view returns(uint256) {\n        return approvals[_owner][_spender];\n    }\n\n    function approve(\n        address _spender,\n        uint256 _amount\n    ) external mustBeApproved(_spender) returns(bool) {\n        address _owner = tx.origin;\n\n        _approve(_owner, _spender, _amount);\n\n        return true;\n    }\n\n    function decreaseAllowance(\n        address _spender,\n        uint256 _amount\n    ) external {\n        address _owner = tx.origin;\n\n        _decreaseAllowance(_owner, _spender, _amount);\n    }\n\n    function transfer(\n        address _to,\n        uint256 _amount,\n        bytes calldata _data\n    ) external mustBeApproved(_to) returns(bool) {\n        address _from = tx.origin;\n\n        _transfer(_from, _to, _amount, _data);\n\n        return true;\n    }\n\n    function transferFrom(\n        address _from,\n        address _to,\n        uint256 _amount,\n        bytes calldata _data\n    ) external mustBeApproved(_to) returns(bool) {\n        address _spender = tx.origin;\n\n        _spendAllowance(_from, _spender, _amount);\n        _transfer(_from, _to, _amount, _data);\n\n        return true;\n    }\n\n    function getListOfInvestors() external view returns(BondData.DealInvestment[] memory) {\n        return listOfInvestors;\n    }\n\n    function _approve(\n        address _owner,\n        address _spender,\n        uint256 _amount\n    ) internal virtual {\n        require(_owner != address(0), \"INVALID_ADDRESS\");\n        require(_spender != address(0), \"INVALID_SPENDER_ADDRESS\");\n        require(_amount > 0, \"INVALID_AMOUNT\");\n\n        uint256 principal = principals[_owner];\n        uint256 approval = approvals[_owner][_spender];\n        uint256 _denomination = bonds[dealID].denomination;\n        uint256 _maturityDate = bonds[dealID].maturityDate;\n        uint256 balance = principal / _denomination;\n\n        require(block.timestamp < _maturityDate, \"BONDS_MATURED\");\n        require(_amount <= balance, \"INSUFFICIENT_BALANCE\");\n        require((_amount * _denomination) % _denomination == 0, \"INVALID_AMOUNT\");\n\n        approvals[_owner][_spender] = approval + _amount;\n\n        emit Approval(_owner, _spender, _amount);\n    }\n\n    function _decreaseAllowance(\n        address _owner,\n        address _spender,\n        uint256 _amount\n    ) internal virtual {\n        require(_owner != address(0), \"INVALID_ADDRESS\");\n        require(_spender != address(0), \"INVALID_SPENDER_ADDRESS\");\n        require(_amount > 0, \"INVALID_AMOUNT\");\n\n        uint256 approval = approvals[_owner][_spender];\n        uint256 _denomination = bonds[dealID].denomination;\n        uint256 _maturityDate = bonds[dealID].maturityDate;\n\n        require(block.timestamp < _maturityDate, \"BONDS_MATURED\");\n        require(_amount <= approval, \"INSUFFICIENT_ALLOWANCE\");\n        require((_amount * _denomination) % _denomination == 0, \"INVALID_AMOUNT\");\n\n        approvals[_owner][_spender] = approval - _amount;\n\n        emit Approval(_owner, _spender, _amount);\n    }\n\n    function _transfer(\n        address _from,\n        address _to,\n        uint256 _amount,\n        bytes calldata _data\n    ) internal virtual {\n        require(_from != address(0), \"INVALID_ADDRESS\");\n        require(_to != address(0), \"INVALID_RECIPIENT_ADDRESS\");\n        require(_amount > 0, \"INVALID_AMOUNT\");\n\n        uint256 principal = principals[_from];\n        uint256 _denomination = bonds[dealID].denomination;\n        uint256 _maturityDate = bonds[dealID].maturityDate;\n        uint256 balance = principal / _denomination;\n\n        require(block.timestamp < _maturityDate, \"BONDS_MATURED\");\n        require(_amount <= balance, \"INSUFFICIENT_BALANCE\");\n        require((_amount * _denomination) % _denomination == 0, \"INVALID_AMOUNT\");\n\n        _beforeBondTransfer(_from, _to, _amount, _data);\n\n        uint256 principalTo = principals[_to];\n        unchecked {\n            uint256 principalToTransfer = principal * _denomination;\n\n            principals[_from] = principal - principalToTransfer;\n            principals[_to] = principalTo + principalToTransfer;\n        }\n\n        _afterBondTransfer(_from, _to, _amount, _data);\n\n        emit Transfer(_from, _to, _amount);\n    }\n\n    function _spendAllowance(\n        address _from,\n        address _spender,\n        uint256 _amount\n    ) internal virtual {\n        uint256 currentApproval = approvals[_from][_spender];\n        require(_amount <= currentApproval, \"INSUFFICIENT_ALLOWANCE\");\n\n        unchecked {\n            approvals[_from][_spender] = currentApproval - _amount;\n        }\n    }\n\n    function _beforeBondTransfer(address _from, address _to, uint256 _amount, bytes calldata _data) internal virtual {}\n\n    function _afterBondTransfer(address _from, address _to, uint256 _amount, bytes calldata _data) internal virtual {}\n}",
  "sourcePath": "/Users/sam/Documents/Blockchain/Topos/ToposGrant/T-Grant/contracts/BondTopos.sol",
  "compiler": {
    "name": "solc",
    "version": "0.8.19+commit.7dd6d404.Emscripten.clang"
  },
  "schemaVersion": "3.4.9",
  "updatedAt": "2023-11-05T20:48:21.702Z",
  "devdoc": {
    "events": {
      "Approval(address,address,uint256)": {
        "params": {
          "_amount": "amount of bond tokens allowed by _owner to be spent by `_spender`        Or amount of bond tokens to decrease allowance from `_spender`",
          "_owner": "bondholder account",
          "_spender": "the account to be allowed to spend bonds"
        }
      },
      "Transfer(address,address,uint256)": {
        "params": {
          "_amount": "amount of bond tokens to be transferred",
          "_from": "bondholder account",
          "_to": "account to transfer bonds to"
        }
      }
    },
    "kind": "dev",
    "methods": {
      "allowance(address,address)": {
        "params": {
          "_owner": "the bondholder address",
          "_spender": "the address that has been authorized by the bondholder"
        }
      },
      "approve(address,uint256)": {
        "params": {
          "_amount": "amount of bond tokens to approve",
          "_spender": "the account to be authorized by the bondholder"
        }
      },
      "decreaseAllowance(address,uint256)": {
        "params": {
          "_amount": "amount of bond tokens to remove from allowance",
          "_spender": "the address to be authorized by the bondholder"
        }
      },
      "principalOf(address)": {
        "params": {
          "_account": "account address"
        }
      },
      "transfer(address,uint256,bytes)": {
        "params": {
          "_amount": "amount of bond tokens to transfer",
          "_data": "additional information provided by the token holder",
          "_to": "the address to send bonds to"
        }
      },
      "transferFrom(address,address,uint256,bytes)": {
        "params": {
          "_amount": "amount of bond tokens to transfer.",
          "_data": "additional information provided by the token holder",
          "_from": "the bondholder address",
          "_to": "the address to transfer bonds to"
        }
      }
    },
    "version": 1
  },
  "userdoc": {
    "events": {
      "Approval(address,address,uint256)": {
        "notice": "MUST be emitted when an account is approved to spend tokens or when the allowance is decreased"
      },
      "Transfer(address,address,uint256)": {
        "notice": "MUST be emitted when bond tokens are transferred, issued or redeemed, with the exception being during contract creation"
      }
    },
    "kind": "user",
    "methods": {
      "allowance(address,address)": {
        "notice": "Returns the number of tokens that the `_spender` account has been authorized by the `_owner` to manage"
      },
      "approve(address,uint256)": {
        "notice": "Authorizes `_spender` account to manage  a specified `_amount`of the bondholder's tokens"
      },
      "couponFrequency()": {
        "notice": "Returns the coupon frequency, i.e. the number of times coupons are paid in a year. OPTIONAL - interfaces and other contracts MUST NOT expect these values to be present. The method is used to improve usability."
      },
      "couponRate()": {
        "notice": "Returns the bond interest rate. It is RECOMMENDED to express the interest rate in basis points (bps).         1 basis point = 0.01% = 0.0001         ex: if interest rate = 5%, then coupon() => 500 basis points"
      },
      "couponType()": {
        "notice": "Returns the coupon type         For example, 0 can denote Zero coupon, 1 can denote Fixed Rate, 2 can denote Floating Rate, and so on OPTIONAL - interfaces and other contracts MUST NOT expect these values to be present. The method is used to improve usability."
      },
      "currency()": {
        "notice": "Returns the bond currency. This is the contract address of the token used to make payments and return the bond principal"
      },
      "decreaseAllowance(address,uint256)": {
        "notice": "Decreases the allowance granted to `_spender` by `_amount`"
      },
      "denomination()": {
        "notice": "Returns the bond denomination. This is the minimum amount in which the bonds may be issued. It MUST be expressed in units of the principal currency.         ex: If the denomination is set at 1,000, and the currency is USDC, then the bond denomination is equivalent to 1,000 USDC."
      },
      "isin()": {
        "notice": "Returns the bond isin"
      },
      "issueDate()": {
        "notice": "Returns the date when bonds were issued to investors. This is a Unix Timestamp similar the one returned by block.timestamp"
      },
      "issueVolume()": {
        "notice": "Returns the issue volume, which represents the total debt amount. It is RECOMMENDED to express the issue volume in terms of the denomination unit."
      },
      "maturityDate()": {
        "notice": "Returns the bond maturity date, i.e, the date when the principal is repaid. This is a Unix Timestamp similar the one returned by block.timestamp         The maturity date MUST be greater than the issue date"
      },
      "name()": {
        "notice": "Returns the bond name"
      },
      "principalOf(address)": {
        "notice": "Returns the principal of an account. It is RECOMMENDED to express the principal in the bond currency unit (e.g., USDC, DAI, etc)"
      },
      "symbol()": {
        "notice": "Returns the bond symbol         It is RECOMMENDED to represent the symbol as a combination of the issuer issuer's shorter name and the maturity date         Ex: If a company named Green Energy issues bonds that will mature on october 25, 2030, the bond symbol could be `GE30` or `GE2030` or `GE102530`"
      },
      "transfer(address,uint256,bytes)": {
        "notice": "Transfers `_amount` bonds to the address `_to`. Additionally, this method enables to attach data to the token being transferred"
      },
      "transferFrom(address,address,uint256,bytes)": {
        "notice": "Transfers `_amount` bonds from an account that has previously authorized the caller through the `approve` function         This methods also allows to attach data to the token that is being transferred"
      }
    },
    "version": 1
  }
}