{
  "contractName": "BondTopos",
  "abi": [
    {
      "inputs": [
        {
          "internalType": "string",
          "name": "_dealID",
          "type": "string"
        },
        {
          "internalType": "address",
          "name": "_bondManager",
          "type": "address"
        },
        {
          "internalType": "address",
          "name": "_issuerWalletAddress",
          "type": "address"
        },
        {
          "internalType": "string",
          "name": "_countryOfIssuance",
          "type": "string"
        },
        {
          "internalType": "address",
          "name": "_bondCallContractAddress",
          "type": "address"
        },
        {
          "internalType": "address",
          "name": "_toposBankContract",
          "type": "address"
        },
        {
          "internalType": "address",
          "name": "_identiRegistryContract",
          "type": "address"
        }
      ],
      "stateMutability": "nonpayable",
      "type": "constructor"
    },
    {
      "anonymous": false,
      "inputs": [
        {
          "indexed": false,
          "internalType": "address",
          "name": "_owner",
          "type": "address"
        },
        {
          "indexed": false,
          "internalType": "address",
          "name": "_spender",
          "type": "address"
        },
        {
          "indexed": false,
          "internalType": "uint256",
          "name": "_amount",
          "type": "uint256"
        }
      ],
      "name": "Approval",
      "type": "event"
    },
    {
      "anonymous": false,
      "inputs": [
        {
          "indexed": false,
          "internalType": "address",
          "name": "_from",
          "type": "address"
        },
        {
          "indexed": false,
          "internalType": "address",
          "name": "_to",
          "type": "address"
        },
        {
          "indexed": false,
          "internalType": "uint256",
          "name": "_amount",
          "type": "uint256"
        }
      ],
      "name": "Transfer",
      "type": "event"
    },
    {
      "inputs": [],
      "name": "bondManager",
      "outputs": [
        {
          "internalType": "address",
          "name": "",
          "type": "address"
        }
      ],
      "stateMutability": "view",
      "type": "function"
    },
    {
      "inputs": [],
      "name": "bondStatus",
      "outputs": [
        {
          "internalType": "enum BondData.BondStatus",
          "name": "",
          "type": "uint8"
        }
      ],
      "stateMutability": "view",
      "type": "function"
    },
    {
      "inputs": [
        {
          "internalType": "string",
          "name": "",
          "type": "string"
        }
      ],
      "name": "bonds",
      "outputs": [
        {
          "internalType": "string",
          "name": "isin",
          "type": "string"
        },
        {
          "internalType": "string",
          "name": "name",
          "type": "string"
        },
        {
          "internalType": "string",
          "name": "symbol",
          "type": "string"
        },
        {
          "internalType": "address",
          "name": "currency",
          "type": "address"
        },
        {
          "internalType": "uint256",
          "name": "denomination",
          "type": "uint256"
        },
        {
          "internalType": "uint256",
          "name": "issueVolume",
          "type": "uint256"
        },
        {
          "internalType": "uint256",
          "name": "couponRate",
          "type": "uint256"
        },
        {
          "internalType": "uint8",
          "name": "couponType",
          "type": "uint8"
        },
        {
          "internalType": "uint256",
          "name": "couponFrequency",
          "type": "uint256"
        },
        {
          "internalType": "uint256",
          "name": "issueDate",
          "type": "uint256"
        },
        {
          "internalType": "uint256",
          "name": "maturityDate",
          "type": "uint256"
        }
      ],
      "stateMutability": "view",
      "type": "function"
    },
    {
      "inputs": [],
      "name": "dealID",
      "outputs": [
        {
          "internalType": "string",
          "name": "",
          "type": "string"
        }
      ],
      "stateMutability": "view",
      "type": "function"
    },
    {
      "inputs": [
        {
          "internalType": "address",
          "name": "",
          "type": "address"
        }
      ],
      "name": "isInvestor",
      "outputs": [
        {
          "internalType": "bool",
          "name": "",
          "type": "bool"
        }
      ],
      "stateMutability": "view",
      "type": "function"
    },
    {
      "inputs": [
        {
          "internalType": "string",
          "name": "",
          "type": "string"
        }
      ],
      "name": "issueData",
      "outputs": [
        {
          "internalType": "address",
          "name": "issuerWalletAddress",
          "type": "address"
        },
        {
          "internalType": "string",
          "name": "countryOfIssuance",
          "type": "string"
        },
        {
          "internalType": "address",
          "name": "bondCallContract",
          "type": "address"
        },
        {
          "internalType": "address",
          "name": "identyRegistryContract",
          "type": "address"
        }
      ],
      "stateMutability": "view",
      "type": "function"
    },
    {
      "inputs": [],
      "name": "toposBankContract",
      "outputs": [
        {
          "internalType": "address",
          "name": "",
          "type": "address"
        }
      ],
      "stateMutability": "view",
      "type": "function"
    },
    {
      "inputs": [
        {
          "components": [
            {
              "internalType": "string",
              "name": "isin",
              "type": "string"
            },
            {
              "internalType": "string",
              "name": "name",
              "type": "string"
            },
            {
              "internalType": "string",
              "name": "symbol",
              "type": "string"
            },
            {
              "internalType": "address",
              "name": "currency",
              "type": "address"
            },
            {
              "internalType": "uint256",
              "name": "denomination",
              "type": "uint256"
            },
            {
              "internalType": "uint256",
              "name": "issueVolume",
              "type": "uint256"
            },
            {
              "internalType": "uint256",
              "name": "couponRate",
              "type": "uint256"
            },
            {
              "internalType": "uint8",
              "name": "couponType",
              "type": "uint8"
            },
            {
              "internalType": "uint256",
              "name": "couponFrequency",
              "type": "uint256"
            },
            {
              "internalType": "uint256",
              "name": "issueDate",
              "type": "uint256"
            },
            {
              "internalType": "uint256",
              "name": "maturityDate",
              "type": "uint256"
            }
          ],
          "internalType": "struct BondData.Bond",
          "name": "_bond",
          "type": "tuple"
        }
      ],
      "name": "issue",
      "outputs": [],
      "stateMutability": "nonpayable",
      "type": "function"
    },
    {
      "inputs": [],
      "name": "redeem",
      "outputs": [],
      "stateMutability": "nonpayable",
      "type": "function"
    },
    {
      "inputs": [],
      "name": "isin",
      "outputs": [
        {
          "internalType": "string",
          "name": "",
          "type": "string"
        }
      ],
      "stateMutability": "view",
      "type": "function"
    },
    {
      "inputs": [],
      "name": "name",
      "outputs": [
        {
          "internalType": "string",
          "name": "",
          "type": "string"
        }
      ],
      "stateMutability": "view",
      "type": "function"
    },
    {
      "inputs": [],
      "name": "symbol",
      "outputs": [
        {
          "internalType": "string",
          "name": "",
          "type": "string"
        }
      ],
      "stateMutability": "view",
      "type": "function"
    },
    {
      "inputs": [],
      "name": "currency",
      "outputs": [
        {
          "internalType": "address",
          "name": "",
          "type": "address"
        }
      ],
      "stateMutability": "view",
      "type": "function"
    },
    {
      "inputs": [],
      "name": "denomination",
      "outputs": [
        {
          "internalType": "uint256",
          "name": "",
          "type": "uint256"
        }
      ],
      "stateMutability": "view",
      "type": "function"
    },
    {
      "inputs": [],
      "name": "issueVolume",
      "outputs": [
        {
          "internalType": "uint256",
          "name": "",
          "type": "uint256"
        }
      ],
      "stateMutability": "view",
      "type": "function"
    },
    {
      "inputs": [],
      "name": "totalSupply",
      "outputs": [
        {
          "internalType": "uint256",
          "name": "",
          "type": "uint256"
        }
      ],
      "stateMutability": "view",
      "type": "function"
    },
    {
      "inputs": [],
      "name": "couponRate",
      "outputs": [
        {
          "internalType": "uint256",
          "name": "",
          "type": "uint256"
        }
      ],
      "stateMutability": "view",
      "type": "function"
    },
    {
      "inputs": [],
      "name": "couponType",
      "outputs": [
        {
          "internalType": "uint8",
          "name": "",
          "type": "uint8"
        }
      ],
      "stateMutability": "view",
      "type": "function"
    },
    {
      "inputs": [],
      "name": "couponFrequency",
      "outputs": [
        {
          "internalType": "uint256",
          "name": "",
          "type": "uint256"
        }
      ],
      "stateMutability": "view",
      "type": "function"
    },
    {
      "inputs": [],
      "name": "issueDate",
      "outputs": [
        {
          "internalType": "uint256",
          "name": "",
          "type": "uint256"
        }
      ],
      "stateMutability": "view",
      "type": "function"
    },
    {
      "inputs": [],
      "name": "maturityDate",
      "outputs": [
        {
          "internalType": "uint256",
          "name": "",
          "type": "uint256"
        }
      ],
      "stateMutability": "view",
      "type": "function"
    },
    {
      "inputs": [
        {
          "internalType": "address",
          "name": "_account",
          "type": "address"
        }
      ],
      "name": "principalOf",
      "outputs": [
        {
          "internalType": "uint256",
          "name": "",
          "type": "uint256"
        }
      ],
      "stateMutability": "view",
      "type": "function"
    },
    {
      "inputs": [
        {
          "internalType": "address",
          "name": "_account",
          "type": "address"
        }
      ],
      "name": "balanceOf",
      "outputs": [
        {
          "internalType": "uint256",
          "name": "",
          "type": "uint256"
        }
      ],
      "stateMutability": "view",
      "type": "function"
    },
    {
      "inputs": [
        {
          "internalType": "address",
          "name": "_owner",
          "type": "address"
        },
        {
          "internalType": "address",
          "name": "_spender",
          "type": "address"
        }
      ],
      "name": "allowance",
      "outputs": [
        {
          "internalType": "uint256",
          "name": "",
          "type": "uint256"
        }
      ],
      "stateMutability": "view",
      "type": "function"
    },
    {
      "inputs": [
        {
          "internalType": "address",
          "name": "_spender",
          "type": "address"
        },
        {
          "internalType": "uint256",
          "name": "_amount",
          "type": "uint256"
        }
      ],
      "name": "approve",
      "outputs": [
        {
          "internalType": "bool",
          "name": "",
          "type": "bool"
        }
      ],
      "stateMutability": "nonpayable",
      "type": "function"
    },
    {
      "inputs": [
        {
          "internalType": "address",
          "name": "_spender",
          "type": "address"
        },
        {
          "internalType": "uint256",
          "name": "_amount",
          "type": "uint256"
        }
      ],
      "name": "decreaseAllowance",
      "outputs": [],
      "stateMutability": "nonpayable",
      "type": "function"
    },
    {
      "inputs": [
        {
          "internalType": "address",
          "name": "_to",
          "type": "address"
        },
        {
          "internalType": "uint256",
          "name": "_amount",
          "type": "uint256"
        },
        {
          "internalType": "bytes",
          "name": "_data",
          "type": "bytes"
        }
      ],
      "name": "transfer",
      "outputs": [
        {
          "internalType": "bool",
          "name": "",
          "type": "bool"
        }
      ],
      "stateMutability": "nonpayable",
      "type": "function"
    },
    {
      "inputs": [
        {
          "internalType": "address",
          "name": "_from",
          "type": "address"
        },
        {
          "internalType": "address",
          "name": "_to",
          "type": "address"
        },
        {
          "internalType": "uint256",
          "name": "_amount",
          "type": "uint256"
        },
        {
          "internalType": "bytes",
          "name": "_data",
          "type": "bytes"
        }
      ],
      "name": "transferFrom",
      "outputs": [
        {
          "internalType": "bool",
          "name": "",
          "type": "bool"
        }
      ],
      "stateMutability": "nonpayable",
      "type": "function"
    },
    {
      "inputs": [],
      "name": "getListOfInvestors",
      "outputs": [
        {
          "components": [
            {
              "internalType": "address",
              "name": "investor",
              "type": "address"
            },
            {
              "internalType": "uint256",
              "name": "amount",
              "type": "uint256"
            }
          ],
          "internalType": "struct BondData.DealInvestment[]",
          "name": "",
          "type": "tuple[]"
        }
      ],
      "stateMutability": "view",
      "type": "function"
    }
  ],
  "bytecode": "0x60806040523480156200001157600080fd5b5060405162004da038038062004da0833981810160405281019062000037919062000429565b866005908162000048919062000765565b5085600660006101000a81548173ffffffffffffffffffffffffffffffffffffffff021916908373ffffffffffffffffffffffffffffffffffffffff160217905550846000886040516200009d91906200088e565b908152602001604051809103902060000160006101000a81548173ffffffffffffffffffffffffffffffffffffffff021916908373ffffffffffffffffffffffffffffffffffffffff16021790555083600088604051620000ff91906200088e565b908152602001604051809103902060010190816200011e919062000765565b5081600760006101000a81548173ffffffffffffffffffffffffffffffffffffffff021916908373ffffffffffffffffffffffffffffffffffffffff160217905550826000886040516200017391906200088e565b908152602001604051809103902060020160006101000a81548173ffffffffffffffffffffffffffffffffffffffff021916908373ffffffffffffffffffffffffffffffffffffffff16021790555080600088604051620001d591906200088e565b908152602001604051809103902060030160006101000a81548173ffffffffffffffffffffffffffffffffffffffff021916908373ffffffffffffffffffffffffffffffffffffffff16021790555050505050505050620008a7565b6000604051905090565b600080fd5b600080fd5b600080fd5b600080fd5b6000601f19601f8301169050919050565b7f4e487b7100000000000000000000000000000000000000000000000000000000600052604160045260246000fd5b6200029a826200024f565b810181811067ffffffffffffffff82111715620002bc57620002bb62000260565b5b80604052505050565b6000620002d162000231565b9050620002df82826200028f565b919050565b600067ffffffffffffffff82111562000302576200030162000260565b5b6200030d826200024f565b9050602081019050919050565b60005b838110156200033a5780820151818401526020810190506200031d565b60008484015250505050565b60006200035d6200035784620002e4565b620002c5565b9050828152602081018484840111156200037c576200037b6200024a565b5b620003898482856200031a565b509392505050565b600082601f830112620003a957620003a862000245565b5b8151620003bb84826020860162000346565b91505092915050565b600073ffffffffffffffffffffffffffffffffffffffff82169050919050565b6000620003f182620003c4565b9050919050565b6200040381620003e4565b81146200040f57600080fd5b50565b6000815190506200042381620003f8565b92915050565b600080600080600080600060e0888a0312156200044b576200044a6200023b565b5b600088015167ffffffffffffffff8111156200046c576200046b62000240565b5b6200047a8a828b0162000391565b97505060206200048d8a828b0162000412565b9650506040620004a08a828b0162000412565b955050606088015167ffffffffffffffff811115620004c457620004c362000240565b5b620004d28a828b0162000391565b9450506080620004e58a828b0162000412565b93505060a0620004f88a828b0162000412565b92505060c06200050b8a828b0162000412565b91505092959891949750929550565b600081519050919050565b7f4e487b7100000000000000000000000000000000000000000000000000000000600052602260045260246000fd5b600060028204905060018216806200056d57607f821691505b60208210810362000583576200058262000525565b5b50919050565b60008190508160005260206000209050919050565b60006020601f8301049050919050565b600082821b905092915050565b600060088302620005ed7fffffffffffffffffffffffffffffffffffffffffffffffffffffffffffffffff82620005ae565b620005f98683620005ae565b95508019841693508086168417925050509392505050565b6000819050919050565b6000819050919050565b600062000646620006406200063a8462000611565b6200061b565b62000611565b9050919050565b6000819050919050565b620006628362000625565b6200067a62000671826200064d565b848454620005bb565b825550505050565b600090565b6200069162000682565b6200069e81848462000657565b505050565b5b81811015620006c657620006ba60008262000687565b600181019050620006a4565b5050565b601f8211156200071557620006df8162000589565b620006ea846200059e565b81016020851015620006fa578190505b6200071262000709856200059e565b830182620006a3565b50505b505050565b600082821c905092915050565b60006200073a600019846008026200071a565b1980831691505092915050565b600062000755838362000727565b9150826002028217905092915050565b62000770826200051a565b67ffffffffffffffff8111156200078c576200078b62000260565b5b62000798825462000554565b620007a5828285620006ca565b600060209050601f831160018114620007dd5760008415620007c8578287015190505b620007d4858262000747565b86555062000844565b601f198416620007ed8662000589565b60005b828110156200081757848901518255600182019150602085019450602081019050620007f0565b8683101562000837578489015162000833601f89168262000727565b8355505b6001600288020188555050505b505050505050565b600081905092915050565b600062000864826200051a565b6200087081856200084c565b9350620008828185602086016200031a565b80840191505092915050565b60006200089c828462000857565b915081905092915050565b6144e980620008b76000396000f3fe608060405234801561001057600080fd5b50600436106101cf5760003560e01c80638d1343e011610104578063be45fd62116100a2578063d59624b411610071578063d59624b414610549578063d76805aa14610567578063dd62ed3e14610583578063e5a6b10f146105b3576101cf565b8063be45fd62146104ad578063c0bcb26f146104dd578063c16aa779146104fb578063cee2a9cf14610519576101cf565b80639c34712a116100de5780639c34712a14610439578063a457c2d714610457578063ab67aa5814610473578063be040fb0146104a3576101cf565b80638d1343e0146103df5780638db6f28a146103fd57806395d89b411461041b576101cf565b80635eb0b3d011610171578063710d33291161014b578063710d33291461036757806373975df11461038557806382d5a60d146103a35780638bca6d16146103c1576101cf565b80635eb0b3d0146102e957806361e20a1c1461030757806370a0823114610337576101cf565b806318160ddd116101ad57806318160ddd14610240578063363cc4271461025e57806341d6a5821461027c57806346e8de21146102af576101cf565b8063045017ce146101d457806306fdde03146101f2578063095ea7b314610210575b600080fd5b6101dc6105d1565b6040516101e991906129d8565b60405180910390f35b6101fa610608565b6040516102079190612a83565b60405180910390f35b61022a60048036038101906102259190612b4d565b6106ba565b6040516102379190612ba8565b60405180910390f35b6102486107d9565b6040516102559190612bd2565b60405180910390f35b610266610830565b6040516102739190612bfc565b60405180910390f35b61029660048036038101906102919190612d4c565b610856565b6040516102a69493929190612d95565b60405180910390f35b6102c960048036038101906102c49190612d4c565b610984565b6040516102e09b9a99989796959493929190612de1565b60405180910390f35b6102f1610bb9565b6040516102fe9190612bd2565b60405180910390f35b610321600480360381019061031c9190612ea1565b610be3565b60405161032e9190612bd2565b60405180910390f35b610351600480360381019061034c9190612ea1565b610c2c565b60405161035e9190612bd2565b60405180910390f35b61036f610ca2565b60405161037c9190612bd2565b60405180910390f35b61038d610ccc565b60405161039a9190612a83565b60405180910390f35b6103ab610d5a565b6040516103b89190612a83565b60405180910390f35b6103c9610e0c565b6040516103d69190612bd2565b60405180910390f35b6103e7610e36565b6040516103f49190612bd2565b60405180910390f35b610405610e60565b6040516104129190612fca565b60405180910390f35b610423610f1f565b6040516104309190612a83565b60405180910390f35b610441610fd1565b60405161044e9190612bfc565b60405180910390f35b610471600480360381019061046c9190612b4d565b610ff7565b005b61048d6004803603810190610488919061304c565b61100c565b60405161049a9190612ba8565b60405180910390f35b6104ab61113b565b005b6104c760048036038101906104c291906130d4565b6111d5565b6040516104d49190612ba8565b60405180910390f35b6104e56112f8565b6040516104f29190612bd2565b60405180910390f35b610503611322565b60405161051091906131bf565b60405180910390f35b610533600480360381019061052e9190612ea1565b611335565b6040516105409190612ba8565b60405180910390f35b610551611355565b60405161055e9190612bd2565b60405180910390f35b610581600480360381019061057c91906131ff565b61137f565b005b61059d60048036038101906105989190613248565b61141b565b6040516105aa9190612bd2565b60405180910390f35b6105bb6114a2565b6040516105c89190612bfc565b60405180910390f35b6000600160056040516105e4919061338b565b908152602001604051809103902060070160009054906101000a900460ff16905090565b60606001600560405161061b919061338b565b90815260200160405180910390206001018054610637906132b7565b80601f0160208091040260200160405190810160405280929190818152602001828054610663906132b7565b80156106b05780601f10610685576101008083540402835291602001916106b0565b820191906000526020600020905b81548152906001019060200180831161069357829003601f168201915b5050505050905090565b60008260008060056040516106cf919061338b565b908152602001604051809103902060030160009054906101000a900473ffffffffffffffffffffffffffffffffffffffff1690508073ffffffffffffffffffffffffffffffffffffffff1663b9209e33836040518263ffffffff1660e01b815260040161073c9190612bfc565b602060405180830381865afa158015610759573d6000803e3d6000fd5b505050506040513d601f19601f8201168201806040525081019061077d91906133ce565b6107bc576040517f08c379a00000000000000000000000000000000000000000000000000000000081526004016107b390613447565b60405180910390fd5b60003290506107cc8187876114ec565b6001935050505092915050565b6000600160056040516107ec919061338b565b9081526020016040518091039020600401546001600560405161080f919061338b565b90815260200160405180910390206005015461082b91906134c5565b905090565b600660009054906101000a900473ffffffffffffffffffffffffffffffffffffffff1681565b6000818051602081018201805184825260208301602085012081835280955050505050506000915090508060000160009054906101000a900473ffffffffffffffffffffffffffffffffffffffff16908060010180546108b5906132b7565b80601f01602080910402602001604051908101604052809291908181526020018280546108e1906132b7565b801561092e5780601f106109035761010080835404028352916020019161092e565b820191906000526020600020905b81548152906001019060200180831161091157829003601f168201915b5050505050908060020160009054906101000a900473ffffffffffffffffffffffffffffffffffffffff16908060030160009054906101000a900473ffffffffffffffffffffffffffffffffffffffff16905084565b6001818051602081018201805184825260208301602085012081835280955050505050506000915090508060000180546109bd906132b7565b80601f01602080910402602001604051908101604052809291908181526020018280546109e9906132b7565b8015610a365780601f10610a0b57610100808354040283529160200191610a36565b820191906000526020600020905b815481529060010190602001808311610a1957829003601f168201915b505050505090806001018054610a4b906132b7565b80601f0160208091040260200160405190810160405280929190818152602001828054610a77906132b7565b8015610ac45780601f10610a9957610100808354040283529160200191610ac4565b820191906000526020600020905b815481529060010190602001808311610aa757829003601f168201915b505050505090806002018054610ad9906132b7565b80601f0160208091040260200160405190810160405280929190818152602001828054610b05906132b7565b8015610b525780601f10610b2757610100808354040283529160200191610b52565b820191906000526020600020905b815481529060010190602001808311610b3557829003601f168201915b5050505050908060030160009054906101000a900473ffffffffffffffffffffffffffffffffffffffff16908060040154908060050154908060060154908060070160009054906101000a900460ff169080600801549080600901549080600a015490508b565b600060016005604051610bcc919061338b565b908152602001604051809103902060080154905090565b6000600260008373ffffffffffffffffffffffffffffffffffffffff1673ffffffffffffffffffffffffffffffffffffffff168152602001908152602001600020549050919050565b600060016005604051610c3f919061338b565b908152602001604051809103902060040154600260008473ffffffffffffffffffffffffffffffffffffffff1673ffffffffffffffffffffffffffffffffffffffff16815260200190815260200160002054610c9b91906134c5565b9050919050565b600060016005604051610cb5919061338b565b908152602001604051809103902060050154905090565b60058054610cd9906132b7565b80601f0160208091040260200160405190810160405280929190818152602001828054610d05906132b7565b8015610d525780601f10610d2757610100808354040283529160200191610d52565b820191906000526020600020905b815481529060010190602001808311610d3557829003601f168201915b505050505081565b606060016005604051610d6d919061338b565b90815260200160405180910390206000018054610d89906132b7565b80601f0160208091040260200160405190810160405280929190818152602001828054610db5906132b7565b8015610e025780601f10610dd757610100808354040283529160200191610e02565b820191906000526020600020905b815481529060010190602001808311610de557829003601f168201915b5050505050905090565b600060016005604051610e1f919061338b565b908152602001604051809103902060040154905090565b600060016005604051610e49919061338b565b908152602001604051809103902060090154905090565b60606008805480602002602001604051908101604052809291908181526020016000905b82821015610f1657838290600052602060002090600202016040518060400160405290816000820160009054906101000a900473ffffffffffffffffffffffffffffffffffffffff1673ffffffffffffffffffffffffffffffffffffffff1673ffffffffffffffffffffffffffffffffffffffff16815260200160018201548152505081526020019060010190610e84565b50505050905090565b606060016005604051610f32919061338b565b90815260200160405180910390206002018054610f4e906132b7565b80601f0160208091040260200160405190810160405280929190818152602001828054610f7a906132b7565b8015610fc75780601f10610f9c57610100808354040283529160200191610fc7565b820191906000526020600020905b815481529060010190602001808311610faa57829003601f168201915b5050505050905090565b600760009054906101000a900473ffffffffffffffffffffffffffffffffffffffff1681565b60003290506110078184846118df565b505050565b6000846000806005604051611021919061338b565b908152602001604051809103902060030160009054906101000a900473ffffffffffffffffffffffffffffffffffffffff1690508073ffffffffffffffffffffffffffffffffffffffff1663b9209e33836040518263ffffffff1660e01b815260040161108e9190612bfc565b602060405180830381865afa1580156110ab573d6000803e3d6000fd5b505050506040513d601f19601f820116820180604052508101906110cf91906133ce565b61110e576040517f08c379a000000000000000000000000000000000000000000000000000000000815260040161110590613447565b60405180910390fd5b600032905061111e898289611c7c565b61112b8989898989611dc9565b6001935050505095945050505050565b600760009054906101000a900473ffffffffffffffffffffffffffffffffffffffff1673ffffffffffffffffffffffffffffffffffffffff163373ffffffffffffffffffffffffffffffffffffffff16146111cb576040517f08c379a00000000000000000000000000000000000000000000000000000000081526004016111c290613542565b60405180910390fd5b6111d36121a3565b565b60008460008060056040516111ea919061338b565b908152602001604051809103902060030160009054906101000a900473ffffffffffffffffffffffffffffffffffffffff1690508073ffffffffffffffffffffffffffffffffffffffff1663b9209e33836040518263ffffffff1660e01b81526004016112579190612bfc565b602060405180830381865afa158015611274573d6000803e3d6000fd5b505050506040513d601f19601f8201168201806040525081019061129891906133ce565b6112d7576040517f08c379a00000000000000000000000000000000000000000000000000000000081526004016112ce90613447565b60405180910390fd5b60003290506112e98189898989611dc9565b60019350505050949350505050565b60006001600560405161130b919061338b565b908152602001604051809103902060060154905090565b600760149054906101000a900460ff1681565b60036020528060005260406000206000915054906101000a900460ff1681565b600060016005604051611368919061338b565b9081526020016040518091039020600a0154905090565b600760009054906101000a900473ffffffffffffffffffffffffffffffffffffffff1673ffffffffffffffffffffffffffffffffffffffff163373ffffffffffffffffffffffffffffffffffffffff161461140f576040517f08c379a000000000000000000000000000000000000000000000000000000000815260040161140690613542565b60405180910390fd5b61141881612465565b50565b6000600460008473ffffffffffffffffffffffffffffffffffffffff1673ffffffffffffffffffffffffffffffffffffffff16815260200190815260200160002060008373ffffffffffffffffffffffffffffffffffffffff1673ffffffffffffffffffffffffffffffffffffffff16815260200190815260200160002054905092915050565b6000600160056040516114b5919061338b565b908152602001604051809103902060030160009054906101000a900473ffffffffffffffffffffffffffffffffffffffff16905090565b600073ffffffffffffffffffffffffffffffffffffffff168373ffffffffffffffffffffffffffffffffffffffff160361155b576040517f08c379a0000000000000000000000000000000000000000000000000000000008152600401611552906135ae565b60405180910390fd5b600073ffffffffffffffffffffffffffffffffffffffff168273ffffffffffffffffffffffffffffffffffffffff16036115ca576040517f08c379a00000000000000000000000000000000000000000000000000000000081526004016115c19061361a565b60405180910390fd5b6000811161160d576040517f08c379a000000000000000000000000000000000000000000000000000000000815260040161160490613686565b60405180910390fd5b6000600260008573ffffffffffffffffffffffffffffffffffffffff1673ffffffffffffffffffffffffffffffffffffffff1681526020019081526020016000205490506000600460008673ffffffffffffffffffffffffffffffffffffffff1673ffffffffffffffffffffffffffffffffffffffff16815260200190815260200160002060008573ffffffffffffffffffffffffffffffffffffffff1673ffffffffffffffffffffffffffffffffffffffff1681526020019081526020016000205490506000600160056040516116e5919061338b565b908152602001604051809103902060040154905060006001600560405161170c919061338b565b9081526020016040518091039020600a015490506000828561172e91906134c5565b9050814210611772576040517f08c379a0000000000000000000000000000000000000000000000000000000008152600401611769906136f2565b60405180910390fd5b808611156117b5576040517f08c379a00000000000000000000000000000000000000000000000000000000081526004016117ac9061375e565b60405180910390fd5b60008384886117c4919061377e565b6117ce91906137c0565b1461180e576040517f08c379a000000000000000000000000000000000000000000000000000000000815260040161180590613686565b60405180910390fd5b858461181a91906137f1565b600460008a73ffffffffffffffffffffffffffffffffffffffff1673ffffffffffffffffffffffffffffffffffffffff16815260200190815260200160002060008973ffffffffffffffffffffffffffffffffffffffff1673ffffffffffffffffffffffffffffffffffffffff168152602001908152602001600020819055507f8c5be1e5ebec7d5bd14f71427d1e84f3dd0314c0f7b2291e5b200ac8c7c3b9258888886040516118cd93929190613825565b60405180910390a15050505050505050565b600073ffffffffffffffffffffffffffffffffffffffff168373ffffffffffffffffffffffffffffffffffffffff160361194e576040517f08c379a0000000000000000000000000000000000000000000000000000000008152600401611945906135ae565b60405180910390fd5b600073ffffffffffffffffffffffffffffffffffffffff168273ffffffffffffffffffffffffffffffffffffffff16036119bd576040517f08c379a00000000000000000000000000000000000000000000000000000000081526004016119b49061361a565b60405180910390fd5b60008111611a00576040517f08c379a00000000000000000000000000000000000000000000000000000000081526004016119f790613686565b60405180910390fd5b6000600460008573ffffffffffffffffffffffffffffffffffffffff1673ffffffffffffffffffffffffffffffffffffffff16815260200190815260200160002060008473ffffffffffffffffffffffffffffffffffffffff1673ffffffffffffffffffffffffffffffffffffffff168152602001908152602001600020549050600060016005604051611a94919061338b565b9081526020016040518091039020600401549050600060016005604051611abb919061338b565b9081526020016040518091039020600a01549050804210611b11576040517f08c379a0000000000000000000000000000000000000000000000000000000008152600401611b08906136f2565b60405180910390fd5b82841115611b54576040517f08c379a0000000000000000000000000000000000000000000000000000000008152600401611b4b906138a8565b60405180910390fd5b6000828386611b63919061377e565b611b6d91906137c0565b14611bad576040517f08c379a0000000000000000000000000000000000000000000000000000000008152600401611ba490613686565b60405180910390fd5b8383611bb991906138c8565b600460008873ffffffffffffffffffffffffffffffffffffffff1673ffffffffffffffffffffffffffffffffffffffff16815260200190815260200160002060008773ffffffffffffffffffffffffffffffffffffffff1673ffffffffffffffffffffffffffffffffffffffff168152602001908152602001600020819055507f8c5be1e5ebec7d5bd14f71427d1e84f3dd0314c0f7b2291e5b200ac8c7c3b925868686604051611c6c93929190613825565b60405180910390a1505050505050565b6000600460008573ffffffffffffffffffffffffffffffffffffffff1673ffffffffffffffffffffffffffffffffffffffff16815260200190815260200160002060008473ffffffffffffffffffffffffffffffffffffffff1673ffffffffffffffffffffffffffffffffffffffff16815260200190815260200160002054905080821115611d40576040517f08c379a0000000000000000000000000000000000000000000000000000000008152600401611d37906138a8565b60405180910390fd5b818103600460008673ffffffffffffffffffffffffffffffffffffffff1673ffffffffffffffffffffffffffffffffffffffff16815260200190815260200160002060008573ffffffffffffffffffffffffffffffffffffffff1673ffffffffffffffffffffffffffffffffffffffff1681526020019081526020016000208190555050505050565b600073ffffffffffffffffffffffffffffffffffffffff168573ffffffffffffffffffffffffffffffffffffffff1603611e38576040517f08c379a0000000000000000000000000000000000000000000000000000000008152600401611e2f906135ae565b60405180910390fd5b600073ffffffffffffffffffffffffffffffffffffffff168473ffffffffffffffffffffffffffffffffffffffff1603611ea7576040517f08c379a0000000000000000000000000000000000000000000000000000000008152600401611e9e90613948565b60405180910390fd5b60008311611eea576040517f08c379a0000000000000000000000000000000000000000000000000000000008152600401611ee190613686565b60405180910390fd5b6000600260008773ffffffffffffffffffffffffffffffffffffffff1673ffffffffffffffffffffffffffffffffffffffff168152602001908152602001600020549050600060016005604051611f41919061338b565b9081526020016040518091039020600401549050600060016005604051611f68919061338b565b9081526020016040518091039020600a0154905060008284611f8a91906134c5565b9050814210611fce576040517f08c379a0000000000000000000000000000000000000000000000000000000008152600401611fc5906136f2565b60405180910390fd5b80871115612011576040517f08c379a00000000000000000000000000000000000000000000000000000000081526004016120089061375e565b60405180910390fd5b6000838489612020919061377e565b61202a91906137c0565b1461206a576040517f08c379a000000000000000000000000000000000000000000000000000000000815260040161206190613686565b60405180910390fd5b61207789898989896129ae565b6000600260008a73ffffffffffffffffffffffffffffffffffffffff1673ffffffffffffffffffffffffffffffffffffffff16815260200190815260200160002054905060008486029050808603600260008d73ffffffffffffffffffffffffffffffffffffffff1673ffffffffffffffffffffffffffffffffffffffff16815260200190815260200160002081905550808201600260008c73ffffffffffffffffffffffffffffffffffffffff1673ffffffffffffffffffffffffffffffffffffffff168152602001908152602001600020819055505061215c8a8a8a8a8a6129b5565b7fddf252ad1be2c89b69c2b068fc378daa952ba7f163c4a11628f55a4df523b3ef8a8a8a60405161218f93929190613825565b60405180910390a150505050505050505050565b600060018111156121b7576121b6613148565b5b600760149054906101000a900460ff1660018111156121d9576121d8613148565b5b14612219576040517f08c379a0000000000000000000000000000000000000000000000000000000008152600401612210906139b4565b60405180910390fd5b6001600560405161222a919061338b565b9081526020016040518091039020600a0154421161227d576040517f08c379a000000000000000000000000000000000000000000000000000000000815260040161227490613a20565b60405180910390fd5b6001600760146101000a81548160ff021916908360018111156122a3576122a2613148565b5b02179055506000600760009054906101000a900473ffffffffffffffffffffffffffffffffffffffff1673ffffffffffffffffffffffffffffffffffffffff1663c8d7f62e60056040518263ffffffff1660e01b81526004016123069190613ac4565b600060405180830381865afa158015612323573d6000803e3d6000fd5b505050506040513d6000823e3d601f19601f8201168201806040525081019061234c9190613c28565b905060005b81518110156124615760006002600084848151811061237357612372613c71565b5b60200260200101516000015173ffffffffffffffffffffffffffffffffffffffff1673ffffffffffffffffffffffffffffffffffffffff168152602001908152602001600020541461244e576000600260008484815181106123d8576123d7613c71565b5b60200260200101516000015173ffffffffffffffffffffffffffffffffffffffff1673ffffffffffffffffffffffffffffffffffffffff1681526020019081526020016000208190555060006008828154811061243857612437613c71565b5b9060005260206000209060020201600101819055505b808061245990613ca0565b915050612351565b5050565b60008160a0013590506000600760009054906101000a900473ffffffffffffffffffffffffffffffffffffffff1673ffffffffffffffffffffffffffffffffffffffff1663605936ea60056040518263ffffffff1660e01b81526004016124cc9190613ac4565b602060405180830381865afa1580156124e9573d6000803e3d6000fd5b505050506040513d601f19601f8201168201806040525081019061250d9190613ce8565b9050808214612551576040517f08c379a000000000000000000000000000000000000000000000000000000000815260040161254890613d61565b60405180910390fd5b6000600760009054906101000a900473ffffffffffffffffffffffffffffffffffffffff1673ffffffffffffffffffffffffffffffffffffffff1663c8d7f62e60056040518263ffffffff1660e01b81526004016125af9190613ac4565b600060405180830381865afa1580156125cc573d6000803e3d6000fd5b505050506040513d6000823e3d601f19601f820116820180604052508101906125f59190613c28565b905060006001600560405161260a919061338b565b90815260200160405180910390206004015490506000805b83518110156128ae5760008482815181106126405761263f613c71565b5b6020026020010151600001519050600085838151811061266357612662613c71565b5b6020026020010151602001519050600073ffffffffffffffffffffffffffffffffffffffff168273ffffffffffffffffffffffffffffffffffffffff16036126e0576040517f08c379a00000000000000000000000000000000000000000000000000000000081526004016126d790613dcd565b60405180910390fd5b60008114158015612707575060008586836126fb919061377e565b612705919061377e565b145b612746576040517f08c379a000000000000000000000000000000000000000000000000000000000815260040161273d90613686565b60405180910390fd5b808461275291906137f1565b935080600260008473ffffffffffffffffffffffffffffffffffffffff1673ffffffffffffffffffffffffffffffffffffffff168152602001908152602001600020819055506001600360008473ffffffffffffffffffffffffffffffffffffffff1673ffffffffffffffffffffffffffffffffffffffff16815260200190815260200160002060006101000a81548160ff021916908315150217905550600860405180604001604052808473ffffffffffffffffffffffffffffffffffffffff16815260200183815250908060018154018082558091505060019003906000526020600020906002020160009091909190915060008201518160000160006101000a81548173ffffffffffffffffffffffffffffffffffffffff021916908373ffffffffffffffffffffffffffffffffffffffff160217905550602082015181600101555050505080806128a690613ca0565b915050612622565b5085600160056040516128c1919061338b565b908152602001604051809103902081816128db9190614439565b90505042600160056040516128f0919061338b565b9081526020016040518091039020600901819055506000600760146101000a81548160ff0219169083600181111561292b5761292a613148565b5b0217905550600060016005604051612943919061338b565b9081526020016040518091039020600a0154905042811161296357600080fd5b8482146129a5576040517f08c379a000000000000000000000000000000000000000000000000000000000815260040161299c90614493565b60405180910390fd5b50505050505050565b5050505050565b5050505050565b600060ff82169050919050565b6129d2816129bc565b82525050565b60006020820190506129ed60008301846129c9565b92915050565b600081519050919050565b600082825260208201905092915050565b60005b83811015612a2d578082015181840152602081019050612a12565b60008484015250505050565b6000601f19601f8301169050919050565b6000612a55826129f3565b612a5f81856129fe565b9350612a6f818560208601612a0f565b612a7881612a39565b840191505092915050565b60006020820190508181036000830152612a9d8184612a4a565b905092915050565b6000604051905090565b600080fd5b600080fd5b600073ffffffffffffffffffffffffffffffffffffffff82169050919050565b6000612ae482612ab9565b9050919050565b612af481612ad9565b8114612aff57600080fd5b50565b600081359050612b1181612aeb565b92915050565b6000819050919050565b612b2a81612b17565b8114612b3557600080fd5b50565b600081359050612b4781612b21565b92915050565b60008060408385031215612b6457612b63612aaf565b5b6000612b7285828601612b02565b9250506020612b8385828601612b38565b9150509250929050565b60008115159050919050565b612ba281612b8d565b82525050565b6000602082019050612bbd6000830184612b99565b92915050565b612bcc81612b17565b82525050565b6000602082019050612be76000830184612bc3565b92915050565b612bf681612ad9565b82525050565b6000602082019050612c116000830184612bed565b92915050565b600080fd5b600080fd5b7f4e487b7100000000000000000000000000000000000000000000000000000000600052604160045260246000fd5b612c5982612a39565b810181811067ffffffffffffffff82111715612c7857612c77612c21565b5b80604052505050565b6000612c8b612aa5565b9050612c978282612c50565b919050565b600067ffffffffffffffff821115612cb757612cb6612c21565b5b612cc082612a39565b9050602081019050919050565b82818337600083830152505050565b6000612cef612cea84612c9c565b612c81565b905082815260208101848484011115612d0b57612d0a612c1c565b5b612d16848285612ccd565b509392505050565b600082601f830112612d3357612d32612c17565b5b8135612d43848260208601612cdc565b91505092915050565b600060208284031215612d6257612d61612aaf565b5b600082013567ffffffffffffffff811115612d8057612d7f612ab4565b5b612d8c84828501612d1e565b91505092915050565b6000608082019050612daa6000830187612bed565b8181036020830152612dbc8186612a4a565b9050612dcb6040830185612bed565b612dd86060830184612bed565b95945050505050565b6000610160820190508181036000830152612dfc818e612a4a565b90508181036020830152612e10818d612a4a565b90508181036040830152612e24818c612a4a565b9050612e33606083018b612bed565b612e40608083018a612bc3565b612e4d60a0830189612bc3565b612e5a60c0830188612bc3565b612e6760e08301876129c9565b612e75610100830186612bc3565b612e83610120830185612bc3565b612e91610140830184612bc3565b9c9b505050505050505050505050565b600060208284031215612eb757612eb6612aaf565b5b6000612ec584828501612b02565b91505092915050565b600081519050919050565b600082825260208201905092915050565b6000819050602082019050919050565b612f0381612ad9565b82525050565b612f1281612b17565b82525050565b604082016000820151612f2e6000850182612efa565b506020820151612f416020850182612f09565b50505050565b6000612f538383612f18565b60408301905092915050565b6000602082019050919050565b6000612f7782612ece565b612f818185612ed9565b9350612f8c83612eea565b8060005b83811015612fbd578151612fa48882612f47565b9750612faf83612f5f565b925050600181019050612f90565b5085935050505092915050565b60006020820190508181036000830152612fe48184612f6c565b905092915050565b600080fd5b600080fd5b60008083601f84011261300c5761300b612c17565b5b8235905067ffffffffffffffff81111561302957613028612fec565b5b60208301915083600182028301111561304557613044612ff1565b5b9250929050565b60008060008060006080868803121561306857613067612aaf565b5b600061307688828901612b02565b955050602061308788828901612b02565b945050604061309888828901612b38565b935050606086013567ffffffffffffffff8111156130b9576130b8612ab4565b5b6130c588828901612ff6565b92509250509295509295909350565b600080600080606085870312156130ee576130ed612aaf565b5b60006130fc87828801612b02565b945050602061310d87828801612b38565b935050604085013567ffffffffffffffff81111561312e5761312d612ab4565b5b61313a87828801612ff6565b925092505092959194509250565b7f4e487b7100000000000000000000000000000000000000000000000000000000600052602160045260246000fd5b6002811061318857613187613148565b5b50565b600081905061319982613177565b919050565b60006131a98261318b565b9050919050565b6131b98161319e565b82525050565b60006020820190506131d460008301846131b0565b92915050565b600080fd5b600061016082840312156131f6576131f56131da565b5b81905092915050565b60006020828403121561321557613214612aaf565b5b600082013567ffffffffffffffff81111561323357613232612ab4565b5b61323f848285016131df565b91505092915050565b6000806040838503121561325f5761325e612aaf565b5b600061326d85828601612b02565b925050602061327e85828601612b02565b9150509250929050565b7f4e487b7100000000000000000000000000000000000000000000000000000000600052602260045260246000fd5b600060028204905060018216806132cf57607f821691505b6020821081036132e2576132e1613288565b5b50919050565b600081905092915050565b60008190508160005260206000209050919050565b60008154613315816132b7565b61331f81866132e8565b9450600182166000811461333a576001811461334f57613382565b60ff1983168652811515820286019350613382565b613358856132f3565b60005b8381101561337a5781548189015260018201915060208101905061335b565b838801955050505b50505092915050565b60006133978284613308565b915081905092915050565b6133ab81612b8d565b81146133b657600080fd5b50565b6000815190506133c8816133a2565b92915050565b6000602082840312156133e4576133e3612aaf565b5b60006133f2848285016133b9565b91505092915050565b7f4143434f554e545f4e4f545f414150524f564544000000000000000000000000600082015250565b60006134316014836129fe565b915061343c826133fb565b602082019050919050565b6000602082019050818103600083015261346081613424565b9050919050565b7f4e487b7100000000000000000000000000000000000000000000000000000000600052601260045260246000fd5b7f4e487b7100000000000000000000000000000000000000000000000000000000600052601160045260246000fd5b60006134d082612b17565b91506134db83612b17565b9250826134eb576134ea613467565b5b828204905092915050565b7f4f4e4c595f544f504f535f42414e4b5f434f4e54524143540000000000000000600082015250565b600061352c6018836129fe565b9150613537826134f6565b602082019050919050565b6000602082019050818103600083015261355b8161351f565b9050919050565b7f494e56414c49445f414444524553530000000000000000000000000000000000600082015250565b6000613598600f836129fe565b91506135a382613562565b602082019050919050565b600060208201905081810360008301526135c78161358b565b9050919050565b7f494e56414c49445f5350454e4445525f41444452455353000000000000000000600082015250565b60006136046017836129fe565b915061360f826135ce565b602082019050919050565b60006020820190508181036000830152613633816135f7565b9050919050565b7f494e56414c49445f414d4f554e54000000000000000000000000000000000000600082015250565b6000613670600e836129fe565b915061367b8261363a565b602082019050919050565b6000602082019050818103600083015261369f81613663565b9050919050565b7f424f4e44535f4d41545552454400000000000000000000000000000000000000600082015250565b60006136dc600d836129fe565b91506136e7826136a6565b602082019050919050565b6000602082019050818103600083015261370b816136cf565b9050919050565b7f494e53554646494349454e545f42414c414e4345000000000000000000000000600082015250565b60006137486014836129fe565b915061375382613712565b602082019050919050565b600060208201905081810360008301526137778161373b565b9050919050565b600061378982612b17565b915061379483612b17565b92508282026137a281612b17565b915082820484148315176137b9576137b8613496565b5b5092915050565b60006137cb82612b17565b91506137d683612b17565b9250826137e6576137e5613467565b5b828206905092915050565b60006137fc82612b17565b915061380783612b17565b925082820190508082111561381f5761381e613496565b5b92915050565b600060608201905061383a6000830186612bed565b6138476020830185612bed565b6138546040830184612bc3565b949350505050565b7f494e53554646494349454e545f414c4c4f57414e434500000000000000000000600082015250565b60006138926016836129fe565b915061389d8261385c565b602082019050919050565b600060208201905081810360008301526138c181613885565b9050919050565b60006138d382612b17565b91506138de83612b17565b92508282039050818111156138f6576138f5613496565b5b92915050565b7f494e56414c49445f524543495049454e545f4144445245535300000000000000600082015250565b60006139326019836129fe565b915061393d826138fc565b602082019050919050565b6000602082019050818103600083015261396181613925565b9050919050565b7f424f4e44535f4e4f545f49535355454400000000000000000000000000000000600082015250565b600061399e6010836129fe565b91506139a982613968565b602082019050919050565b600060208201905081810360008301526139cd81613991565b9050919050565b7f574149545f54494c4c5f4d415455524954590000000000000000000000000000600082015250565b6000613a0a6012836129fe565b9150613a15826139d4565b602082019050919050565b60006020820190508181036000830152613a39816139fd565b9050919050565b60008154613a4d816132b7565b613a5781866129fe565b94506001821660008114613a725760018114613a8857613abb565b60ff198316865281151560200286019350613abb565b613a91856132f3565b60005b83811015613ab357815481890152600182019150602081019050613a94565b808801955050505b50505092915050565b60006020820190508181036000830152613ade8184613a40565b905092915050565b600067ffffffffffffffff821115613b0157613b00612c21565b5b602082029050602081019050919050565b600080fd5b600081519050613b2681612aeb565b92915050565b600081519050613b3b81612b21565b92915050565b600060408284031215613b5757613b56613b12565b5b613b616040612c81565b90506000613b7184828501613b17565b6000830152506020613b8584828501613b2c565b60208301525092915050565b6000613ba4613b9f84613ae6565b612c81565b90508083825260208201905060408402830185811115613bc757613bc6612ff1565b5b835b81811015613bf05780613bdc8882613b41565b845260208401935050604081019050613bc9565b5050509392505050565b600082601f830112613c0f57613c0e612c17565b5b8151613c1f848260208601613b91565b91505092915050565b600060208284031215613c3e57613c3d612aaf565b5b600082015167ffffffffffffffff811115613c5c57613c5b612ab4565b5b613c6884828501613bfa565b91505092915050565b7f4e487b7100000000000000000000000000000000000000000000000000000000600052603260045260246000fd5b6000613cab82612b17565b91507fffffffffffffffffffffffffffffffffffffffffffffffffffffffffffffffff8203613cdd57613cdc613496565b5b600182019050919050565b600060208284031215613cfe57613cfd612aaf565b5b6000613d0c84828501613b2c565b91505092915050565b7f494e56414c49445f49495355455f564f4c554d45000000000000000000000000600082015250565b6000613d4b6014836129fe565b9150613d5682613d15565b602082019050919050565b60006020820190508181036000830152613d7a81613d3e565b9050919050565b7f494e56414c49445f494e564553544f525f414444524553530000000000000000600082015250565b6000613db76018836129fe565b9150613dc282613d81565b602082019050919050565b60006020820190508181036000830152613de681613daa565b9050919050565b600080fd5b600080fd5b600080fd5b60008083356001602003843603038112613e1957613e18613ded565b5b80840192508235915067ffffffffffffffff821115613e3b57613e3a613df2565b5b602083019250600182023603831315613e5757613e56613df7565b5b509250929050565b600082905092915050565b60006020601f8301049050919050565b600082821b905092915050565b600060088302613eb77fffffffffffffffffffffffffffffffffffffffffffffffffffffffffffffffff82613e7a565b613ec18683613e7a565b95508019841693508086168417925050509392505050565b6000819050919050565b6000613efe613ef9613ef484612b17565b613ed9565b612b17565b9050919050565b6000819050919050565b613f1883613ee3565b613f2c613f2482613f05565b848454613e87565b825550505050565b600090565b613f41613f34565b613f4c818484613f0f565b505050565b5b81811015613f7057613f65600082613f39565b600181019050613f52565b5050565b601f821115613fb557613f86816132f3565b613f8f84613e6a565b81016020851015613f9e578190505b613fb2613faa85613e6a565b830182613f51565b50505b505050565b600082821c905092915050565b6000613fd860001984600802613fba565b1980831691505092915050565b6000613ff18383613fc7565b9150826002028217905092915050565b61400b8383613e5f565b67ffffffffffffffff81111561402457614023612c21565b5b61402e82546132b7565b614039828285613f74565b6000601f8311600181146140685760008415614056578287013590505b6140608582613fe5565b8655506140c8565b601f198416614076866132f3565b60005b8281101561409e57848901358255600182019150602085019450602081019050614079565b868310156140bb57848901356140b7601f891682613fc7565b8355505b6001600288020188555050505b50505050505050565b6140dc838383614001565b505050565b600081356140ee81612aeb565b80915050919050565b60008160001b9050919050565b600073ffffffffffffffffffffffffffffffffffffffff614124846140f7565b9350801983169250808416831791505092915050565b600061415561415061414b84612ab9565b613ed9565b612ab9565b9050919050565b60006141678261413a565b9050919050565b60006141798261415c565b9050919050565b6000819050919050565b6141938261416e565b6141a661419f82614180565b8354614104565b8255505050565b600081356141ba81612b21565b80915050919050565b60007fffffffffffffffffffffffffffffffffffffffffffffffffffffffffffffffff6141ef846140f7565b9350801983169250808416831791505092915050565b61420e82613ee3565b61422161421a82613f05565b83546141c3565b8255505050565b614231816129bc565b811461423c57600080fd5b50565b6000813561424c81614228565b80915050919050565b600060ff614262846140f7565b9350801983169250808416831791505092915050565b600061429361428e614289846129bc565b613ed9565b6129bc565b9050919050565b6000819050919050565b6142ad82614278565b6142c06142b98261429a565b8354614255565b8255505050565b60008101600083016142d98185613dfc565b6142e48183866140d1565b5050505060018101602083016142fa8185613dfc565b6143058183866140d1565b50505050600281016040830161431b8185613dfc565b6143268183866140d1565b5050505060038101606083018061433c816140e1565b9050614348818461418a565b50505060048101608083018061435d816141ad565b90506143698184614205565b5050506005810160a083018061437e816141ad565b905061438a8184614205565b5050506006810160c083018061439f816141ad565b90506143ab8184614205565b5050506007810160e08301806143c08161423f565b90506143cc81846142a4565b505050600881016101008301806143e2816141ad565b90506143ee8184614205565b50505060098101610120830180614404816141ad565b90506144108184614205565b505050600a8101610140830180614426816141ad565b90506144328184614205565b5050505050565b61444382826142c7565b5050565b7f494e56414c49445f544f54414c5f414d4f554e54000000000000000000000000600082015250565b600061447d6014836129fe565b915061448882614447565b602082019050919050565b600060208201905081810360008301526144ac81614470565b905091905056fea2646970667358221220fde56347863d9a98ba23f41a1612ed503744ed6dfa593e0be90f7f0cff7509b664736f6c63430008130033",
  "immutableReferences": {},
  "source": "// SPDX-License-Identifier: CC0-1.0\npragma solidity ^0.8.0;\n\nimport \"./IERC7092.sol\";\nimport \"./BondStorage.sol\";\nimport \"./BondData.sol\";\nimport \"./Topos/interfaces/IBonds.sol\";\nimport \"./Topos/interfaces/IToposBank.sol\";\n\ncontract BondTopos is IERC7092, BondStorage, IBonds {\n    constructor(\n        string memory _dealID,\n        address _bondManager,\n        address _issuerWalletAddress,\n        string memory _countryOfIssuance,\n        address _bondCallContractAddress,\n        address _toposBankContract,\n        address _identiRegistryContract\n    ) {\n        dealID = _dealID;\n        bondManager = _bondManager;\n        issueData[_dealID].issuerWalletAddress = _issuerWalletAddress;\n        issueData[_dealID].countryOfIssuance = _countryOfIssuance;\n        toposBankContract = _toposBankContract;\n        issueData[_dealID].bondCallContract = _bondCallContractAddress;\n        issueData[_dealID].identyRegistryContract = _identiRegistryContract;\n    }\n\n    function issue(\n        BondData.Bond calldata _bond\n    ) external onlyToposBankContract {\n        _issue(_bond);\n    }\n\n    function redeem() external onlyToposBankContract {\n        _redeem();\n    }\n \n    function isin() external view returns(string memory) {\n        return bonds[dealID].isin;\n    }\n\n    function name() external view returns(string memory) {\n        return bonds[dealID].name;\n    }\n\n    function symbol() external view returns(string memory) {\n        return bonds[dealID].symbol;\n    }\n\n    function currency() external view returns(address) {\n        return bonds[dealID].currency;\n    }\n\n    function denomination() external view returns(uint256) {\n        return bonds[dealID].denomination;\n    }\n\n    function issueVolume() external view returns(uint256) {\n        return bonds[dealID].issueVolume;\n    }\n\n    function totalSupply() external view returns(uint256) {\n        return bonds[dealID].issueVolume / bonds[dealID].denomination;\n    }\n\n    function couponRate() external view returns(uint256) {\n        return bonds[dealID].couponRate;\n    }\n\n    function couponType() external view returns(uint8) {\n        return bonds[dealID].couponType;\n    }\n\n    function couponFrequency() external view returns(uint256) {\n        return bonds[dealID].couponFrequency;\n    }\n\n    function issueDate() external view returns(uint256) {\n        return bonds[dealID].issueDate;\n    }\n\n    function maturityDate() external view returns(uint256) {\n        return bonds[dealID].maturityDate;\n    }\n\n    function principalOf(address _account) external view returns(uint256) {\n        return principals[_account];\n    }\n\n    function balanceOf(address _account) external view returns(uint256) {\n        return principals[_account] / bonds[dealID].denomination;\n    }\n\n    function allowance(address _owner, address _spender) external view returns(uint256) {\n        return approvals[_owner][_spender];\n    }\n\n    function approve(\n        address _spender,\n        uint256 _amount\n    ) external mustBeApproved(_spender) returns(bool) {\n        address _owner = tx.origin;\n\n        _approve(_owner, _spender, _amount);\n\n        return true;\n    }\n\n    function decreaseAllowance(\n        address _spender,\n        uint256 _amount\n    ) external {\n        address _owner = tx.origin;\n\n        _decreaseAllowance(_owner, _spender, _amount);\n    }\n\n    function transfer(\n        address _to,\n        uint256 _amount,\n        bytes calldata _data\n    ) external mustBeApproved(_to) returns(bool) {\n        address _from = tx.origin;\n\n        _transfer(_from, _to, _amount, _data);\n\n        return true;\n    }\n\n    function transferFrom(\n        address _from,\n        address _to,\n        uint256 _amount,\n        bytes calldata _data\n    ) external mustBeApproved(_to) returns(bool) {\n        address _spender = tx.origin;\n\n        _spendAllowance(_from, _spender, _amount);\n        _transfer(_from, _to, _amount, _data);\n\n        return true;\n    }\n\n    function getListOfInvestors() external view returns(BondData.DealInvestment[] memory) {\n        return listOfInvestors;\n    }\n\n    function _issue(BondData.Bond calldata _bond) internal virtual {\n        uint256 _issueVolume = _bond.issueVolume;\n        uint256 _totalAmountInvested = IToposBank(toposBankContract).getTotalAmounInvested(dealID);\n        require(_issueVolume ==  _totalAmountInvested, \"INVALID_IISUE_VOLUME\");\n\n        BondData.DealInvestment[] memory _dealInvestment = IToposBank(toposBankContract).getDealInvestment(dealID);\n\n        uint256 _denomination = bonds[dealID].denomination;\n        uint256 volume;\n\n        for(uint256 i; i < _dealInvestment.length; i++) {\n            address investor = _dealInvestment[i].investor;\n            uint256 principal = _dealInvestment[i].amount;\n\n            require(investor != address(0), \"INVALID_INVESTOR_ADDRESS\");\n            require(\n                principal != 0 && (principal * _denomination) * _denomination == 0,\n                \"INVALID_AMOUNT\"\n            );\n\n            volume += principal;\n            principals[investor] = principal;\n            isInvestor[investor] = true;\n \n            listOfInvestors.push(\n                BondData.DealInvestment({\n                    investor: investor,\n                    amount: principal\n                })\n            );\n        }\n\n        bonds[dealID] = _bond;\n        bonds[dealID].issueDate = block.timestamp;\n        bondStatus = BondData.BondStatus.ISSUED;\n\n        uint256 _maturityDate = bonds[dealID].maturityDate;\n        require(_maturityDate > block.timestamp);\n        require(volume == _totalAmountInvested, \"INVALID_TOTAL_AMOUNT\");\n    }\n\n    function _redeem() internal virtual {\n        require(\n            bondStatus == BondData.BondStatus.ISSUED,\n            \"BONDS_NOT_ISSUED\"\n        );\n        require(\n            block.timestamp > bonds[dealID].maturityDate,\n            \"WAIT_TILL_MATURITY\"\n        );\n\n        bondStatus = BondData.BondStatus.REDEEMED;\n\n        BondData.DealInvestment[] memory _dealInvestment = IToposBank(toposBankContract).getDealInvestment(dealID);\n\n        for(uint256 i; i < _dealInvestment.length; i++) {\n            if(principals[_dealInvestment[i].investor] != 0) {\n                principals[_dealInvestment[i].investor] = 0;\n                listOfInvestors[i].amount = 0;\n            }\n        }\n    }\n\n    function _approve(\n        address _owner,\n        address _spender,\n        uint256 _amount\n    ) internal virtual {\n        require(_owner != address(0), \"INVALID_ADDRESS\");\n        require(_spender != address(0), \"INVALID_SPENDER_ADDRESS\");\n        require(_amount > 0, \"INVALID_AMOUNT\");\n\n        uint256 principal = principals[_owner];\n        uint256 approval = approvals[_owner][_spender];\n        uint256 _denomination = bonds[dealID].denomination;\n        uint256 _maturityDate = bonds[dealID].maturityDate;\n        uint256 balance = principal / _denomination;\n\n        require(block.timestamp < _maturityDate, \"BONDS_MATURED\");\n        require(_amount <= balance, \"INSUFFICIENT_BALANCE\");\n        require((_amount * _denomination) % _denomination == 0, \"INVALID_AMOUNT\");\n\n        approvals[_owner][_spender] = approval + _amount;\n\n        emit Approval(_owner, _spender, _amount);\n    }\n\n    function _decreaseAllowance(\n        address _owner,\n        address _spender,\n        uint256 _amount\n    ) internal virtual {\n        require(_owner != address(0), \"INVALID_ADDRESS\");\n        require(_spender != address(0), \"INVALID_SPENDER_ADDRESS\");\n        require(_amount > 0, \"INVALID_AMOUNT\");\n\n        uint256 approval = approvals[_owner][_spender];\n        uint256 _denomination = bonds[dealID].denomination;\n        uint256 _maturityDate = bonds[dealID].maturityDate;\n\n        require(block.timestamp < _maturityDate, \"BONDS_MATURED\");\n        require(_amount <= approval, \"INSUFFICIENT_ALLOWANCE\");\n        require((_amount * _denomination) % _denomination == 0, \"INVALID_AMOUNT\");\n\n        approvals[_owner][_spender] = approval - _amount;\n\n        emit Approval(_owner, _spender, _amount);\n    }\n\n    function _transfer(\n        address _from,\n        address _to,\n        uint256 _amount,\n        bytes calldata _data\n    ) internal virtual {\n        require(_from != address(0), \"INVALID_ADDRESS\");\n        require(_to != address(0), \"INVALID_RECIPIENT_ADDRESS\");\n        require(_amount > 0, \"INVALID_AMOUNT\");\n\n        uint256 principal = principals[_from];\n        uint256 _denomination = bonds[dealID].denomination;\n        uint256 _maturityDate = bonds[dealID].maturityDate;\n        uint256 balance = principal / _denomination;\n\n        require(block.timestamp < _maturityDate, \"BONDS_MATURED\");\n        require(_amount <= balance, \"INSUFFICIENT_BALANCE\");\n        require((_amount * _denomination) % _denomination == 0, \"INVALID_AMOUNT\");\n\n        _beforeBondTransfer(_from, _to, _amount, _data);\n\n        uint256 principalTo = principals[_to];\n        unchecked {\n            uint256 principalToTransfer = principal * _denomination;\n\n            principals[_from] = principal - principalToTransfer;\n            principals[_to] = principalTo + principalToTransfer;\n        }\n\n        _afterBondTransfer(_from, _to, _amount, _data);\n\n        emit Transfer(_from, _to, _amount);\n    }\n\n    function _spendAllowance(\n        address _from,\n        address _spender,\n        uint256 _amount\n    ) internal virtual {\n        uint256 currentApproval = approvals[_from][_spender];\n        require(_amount <= currentApproval, \"INSUFFICIENT_ALLOWANCE\");\n\n        unchecked {\n            approvals[_from][_spender] = currentApproval - _amount;\n        }\n    }\n\n    function _beforeBondTransfer(address _from, address _to, uint256 _amount, bytes calldata _data) internal virtual {}\n\n    function _afterBondTransfer(address _from, address _to, uint256 _amount, bytes calldata _data) internal virtual {}\n}",
  "sourcePath": "/Users/sam/Documents/Blockchain/Topos/ToposGrant/T-Grant/contracts/BondTopos.sol",
  "compiler": {
    "name": "solc",
    "version": "0.8.19+commit.7dd6d404.Emscripten.clang"
  },
  "schemaVersion": "3.4.9",
  "updatedAt": "2023-11-06T13:25:02.985Z",
  "devdoc": {
    "events": {
      "Approval(address,address,uint256)": {
        "params": {
          "_amount": "amount of bond tokens allowed by _owner to be spent by `_spender`        Or amount of bond tokens to decrease allowance from `_spender`",
          "_owner": "bondholder account",
          "_spender": "the account to be allowed to spend bonds"
        }
      },
      "Transfer(address,address,uint256)": {
        "params": {
          "_amount": "amount of bond tokens to be transferred",
          "_from": "bondholder account",
          "_to": "account to transfer bonds to"
        }
      }
    },
    "kind": "dev",
    "methods": {
      "allowance(address,address)": {
        "params": {
          "_owner": "the bondholder address",
          "_spender": "the address that has been authorized by the bondholder"
        }
      },
      "approve(address,uint256)": {
        "params": {
          "_amount": "amount of bond tokens to approve",
          "_spender": "the account to be authorized by the bondholder"
        }
      },
      "decreaseAllowance(address,uint256)": {
        "params": {
          "_amount": "amount of bond tokens to remove from allowance",
          "_spender": "the address to be authorized by the bondholder"
        }
      },
      "principalOf(address)": {
        "params": {
          "_account": "account address"
        }
      },
      "transfer(address,uint256,bytes)": {
        "params": {
          "_amount": "amount of bond tokens to transfer",
          "_data": "additional information provided by the token holder",
          "_to": "the address to send bonds to"
        }
      },
      "transferFrom(address,address,uint256,bytes)": {
        "params": {
          "_amount": "amount of bond tokens to transfer.",
          "_data": "additional information provided by the token holder",
          "_from": "the bondholder address",
          "_to": "the address to transfer bonds to"
        }
      }
    },
    "version": 1
  },
  "userdoc": {
    "events": {
      "Approval(address,address,uint256)": {
        "notice": "MUST be emitted when an account is approved to spend tokens or when the allowance is decreased"
      },
      "Transfer(address,address,uint256)": {
        "notice": "MUST be emitted when bond tokens are transferred, issued or redeemed, with the exception being during contract creation"
      }
    },
    "kind": "user",
    "methods": {
      "allowance(address,address)": {
        "notice": "Returns the number of tokens that the `_spender` account has been authorized by the `_owner` to manage"
      },
      "approve(address,uint256)": {
        "notice": "Authorizes `_spender` account to manage  a specified `_amount`of the bondholder's tokens"
      },
      "couponFrequency()": {
        "notice": "Returns the coupon frequency, i.e. the number of times coupons are paid in a year. OPTIONAL - interfaces and other contracts MUST NOT expect these values to be present. The method is used to improve usability."
      },
      "couponRate()": {
        "notice": "Returns the bond interest rate. It is RECOMMENDED to express the interest rate in basis points (bps).         1 basis point = 0.01% = 0.0001         ex: if interest rate = 5%, then coupon() => 500 basis points"
      },
      "couponType()": {
        "notice": "Returns the coupon type         For example, 0 can denote Zero coupon, 1 can denote Fixed Rate, 2 can denote Floating Rate, and so on OPTIONAL - interfaces and other contracts MUST NOT expect these values to be present. The method is used to improve usability."
      },
      "currency()": {
        "notice": "Returns the bond currency. This is the contract address of the token used to make payments and return the bond principal"
      },
      "decreaseAllowance(address,uint256)": {
        "notice": "Decreases the allowance granted to `_spender` by `_amount`"
      },
      "denomination()": {
        "notice": "Returns the bond denomination. This is the minimum amount in which the bonds may be issued. It MUST be expressed in units of the principal currency.         ex: If the denomination is set at 1,000, and the currency is USDC, then the bond denomination is equivalent to 1,000 USDC."
      },
      "isin()": {
        "notice": "Returns the bond isin"
      },
      "issueDate()": {
        "notice": "Returns the date when bonds were issued to investors. This is a Unix Timestamp similar the one returned by block.timestamp"
      },
      "issueVolume()": {
        "notice": "Returns the issue volume, which represents the total debt amount. It is RECOMMENDED to express the issue volume in terms of the denomination unit."
      },
      "maturityDate()": {
        "notice": "Returns the bond maturity date, i.e, the date when the principal is repaid. This is a Unix Timestamp similar the one returned by block.timestamp         The maturity date MUST be greater than the issue date"
      },
      "name()": {
        "notice": "Returns the bond name"
      },
      "principalOf(address)": {
        "notice": "Returns the principal of an account. It is RECOMMENDED to express the principal in the bond currency unit (e.g., USDC, DAI, etc)"
      },
      "symbol()": {
        "notice": "Returns the bond symbol         It is RECOMMENDED to represent the symbol as a combination of the issuer issuer's shorter name and the maturity date         Ex: If a company named Green Energy issues bonds that will mature on october 25, 2030, the bond symbol could be `GE30` or `GE2030` or `GE102530`"
      },
      "transfer(address,uint256,bytes)": {
        "notice": "Transfers `_amount` bonds to the address `_to`. Additionally, this method enables to attach data to the token being transferred"
      },
      "transferFrom(address,address,uint256,bytes)": {
        "notice": "Transfers `_amount` bonds from an account that has previously authorized the caller through the `approve` function         This methods also allows to attach data to the token that is being transferred"
      }
    },
    "version": 1
  }
}