{
  "contractName": "BondStorage",
  "abi": [
    {
      "inputs": [],
      "name": "bondManager",
      "outputs": [
        {
          "internalType": "address",
          "name": "",
          "type": "address"
        }
      ],
      "stateMutability": "view",
      "type": "function"
    },
    {
      "inputs": [],
      "name": "bondStatus",
      "outputs": [
        {
          "internalType": "enum BondData.BondStatus",
          "name": "",
          "type": "uint8"
        }
      ],
      "stateMutability": "view",
      "type": "function"
    },
    {
      "inputs": [
        {
          "internalType": "string",
          "name": "",
          "type": "string"
        }
      ],
      "name": "bonds",
      "outputs": [
        {
          "internalType": "string",
          "name": "isin",
          "type": "string"
        },
        {
          "internalType": "string",
          "name": "name",
          "type": "string"
        },
        {
          "internalType": "string",
          "name": "symbol",
          "type": "string"
        },
        {
          "internalType": "address",
          "name": "currency",
          "type": "address"
        },
        {
          "internalType": "uint256",
          "name": "denomination",
          "type": "uint256"
        },
        {
          "internalType": "uint256",
          "name": "issueVolume",
          "type": "uint256"
        },
        {
          "internalType": "uint256",
          "name": "couponRate",
          "type": "uint256"
        },
        {
          "internalType": "uint8",
          "name": "couponType",
          "type": "uint8"
        },
        {
          "internalType": "uint256",
          "name": "couponFrequency",
          "type": "uint256"
        },
        {
          "internalType": "uint256",
          "name": "issueDate",
          "type": "uint256"
        },
        {
          "internalType": "uint256",
          "name": "maturityDate",
          "type": "uint256"
        }
      ],
      "stateMutability": "view",
      "type": "function"
    },
    {
      "inputs": [],
      "name": "dealID",
      "outputs": [
        {
          "internalType": "string",
          "name": "",
          "type": "string"
        }
      ],
      "stateMutability": "view",
      "type": "function"
    },
    {
      "inputs": [],
      "name": "isInitialized",
      "outputs": [
        {
          "internalType": "bool",
          "name": "",
          "type": "bool"
        }
      ],
      "stateMutability": "view",
      "type": "function"
    },
    {
      "inputs": [
        {
          "internalType": "address",
          "name": "",
          "type": "address"
        }
      ],
      "name": "isInvestor",
      "outputs": [
        {
          "internalType": "bool",
          "name": "",
          "type": "bool"
        }
      ],
      "stateMutability": "view",
      "type": "function"
    },
    {
      "inputs": [
        {
          "internalType": "string",
          "name": "",
          "type": "string"
        }
      ],
      "name": "issueData",
      "outputs": [
        {
          "internalType": "address",
          "name": "issuerWalletAddress",
          "type": "address"
        },
        {
          "internalType": "string",
          "name": "countryOfIssuance",
          "type": "string"
        },
        {
          "internalType": "address",
          "name": "bondCallContract",
          "type": "address"
        },
        {
          "internalType": "address",
          "name": "identyRegistryContract",
          "type": "address"
        }
      ],
      "stateMutability": "view",
      "type": "function"
    },
    {
      "inputs": [],
      "name": "toposBankContract",
      "outputs": [
        {
          "internalType": "address",
          "name": "",
          "type": "address"
        }
      ],
      "stateMutability": "view",
      "type": "function"
    }
  ],
  "bytecode": "0x608060405234801561001057600080fd5b50610bdb806100206000396000f3fe608060405234801561001057600080fd5b50600436106100885760003560e01c806373975df11161005b57806373975df1146101365780639c34712a14610154578063c16aa77914610172578063cee2a9cf1461019057610088565b8063363cc4271461008d578063392e53cd146100ab57806341d6a582146100c957806346e8de21146100fc575b600080fd5b6100956101c0565b6040516100a29190610684565b60405180910390f35b6100b36101e6565b6040516100c091906106ba565b60405180910390f35b6100e360048036038101906100de919061082f565b6101f9565b6040516100f394939291906108f7565b60405180910390f35b6101166004803603810190610111919061082f565b610327565b60405161012d9b9a99989796959493929190610978565b60405180910390f35b61013e61055c565b60405161014b9190610a38565b60405180910390f35b61015c6105ea565b6040516101699190610684565b60405180910390f35b61017a610610565b6040516101879190610ad1565b60405180910390f35b6101aa60048036038101906101a59190610b18565b610623565b6040516101b791906106ba565b60405180910390f35b600660009054906101000a900473ffffffffffffffffffffffffffffffffffffffff1681565b600760149054906101000a900460ff1681565b6000818051602081018201805184825260208301602085012081835280955050505050506000915090508060000160009054906101000a900473ffffffffffffffffffffffffffffffffffffffff169080600101805461025890610b74565b80601f016020809104026020016040519081016040528092919081815260200182805461028490610b74565b80156102d15780601f106102a6576101008083540402835291602001916102d1565b820191906000526020600020905b8154815290600101906020018083116102b457829003601f168201915b5050505050908060020160009054906101000a900473ffffffffffffffffffffffffffffffffffffffff16908060030160009054906101000a900473ffffffffffffffffffffffffffffffffffffffff16905084565b60018180516020810182018051848252602083016020850120818352809550505050505060009150905080600001805461036090610b74565b80601f016020809104026020016040519081016040528092919081815260200182805461038c90610b74565b80156103d95780601f106103ae576101008083540402835291602001916103d9565b820191906000526020600020905b8154815290600101906020018083116103bc57829003601f168201915b5050505050908060010180546103ee90610b74565b80601f016020809104026020016040519081016040528092919081815260200182805461041a90610b74565b80156104675780601f1061043c57610100808354040283529160200191610467565b820191906000526020600020905b81548152906001019060200180831161044a57829003601f168201915b50505050509080600201805461047c90610b74565b80601f01602080910402602001604051908101604052809291908181526020018280546104a890610b74565b80156104f55780601f106104ca576101008083540402835291602001916104f5565b820191906000526020600020905b8154815290600101906020018083116104d857829003601f168201915b5050505050908060030160009054906101000a900473ffffffffffffffffffffffffffffffffffffffff16908060040154908060050154908060060154908060070160009054906101000a900460ff169080600801549080600901549080600a015490508b565b6005805461056990610b74565b80601f016020809104026020016040519081016040528092919081815260200182805461059590610b74565b80156105e25780601f106105b7576101008083540402835291602001916105e2565b820191906000526020600020905b8154815290600101906020018083116105c557829003601f168201915b505050505081565b600760009054906101000a900473ffffffffffffffffffffffffffffffffffffffff1681565b600760159054906101000a900460ff1681565b60036020528060005260406000206000915054906101000a900460ff1681565b600073ffffffffffffffffffffffffffffffffffffffff82169050919050565b600061066e82610643565b9050919050565b61067e81610663565b82525050565b60006020820190506106996000830184610675565b92915050565b60008115159050919050565b6106b48161069f565b82525050565b60006020820190506106cf60008301846106ab565b92915050565b6000604051905090565b600080fd5b600080fd5b600080fd5b600080fd5b6000601f19601f8301169050919050565b7f4e487b7100000000000000000000000000000000000000000000000000000000600052604160045260246000fd5b61073c826106f3565b810181811067ffffffffffffffff8211171561075b5761075a610704565b5b80604052505050565b600061076e6106d5565b905061077a8282610733565b919050565b600067ffffffffffffffff82111561079a57610799610704565b5b6107a3826106f3565b9050602081019050919050565b82818337600083830152505050565b60006107d26107cd8461077f565b610764565b9050828152602081018484840111156107ee576107ed6106ee565b5b6107f98482856107b0565b509392505050565b600082601f830112610816576108156106e9565b5b81356108268482602086016107bf565b91505092915050565b600060208284031215610845576108446106df565b5b600082013567ffffffffffffffff811115610863576108626106e4565b5b61086f84828501610801565b91505092915050565b600081519050919050565b600082825260208201905092915050565b60005b838110156108b2578082015181840152602081019050610897565b60008484015250505050565b60006108c982610878565b6108d38185610883565b93506108e3818560208601610894565b6108ec816106f3565b840191505092915050565b600060808201905061090c6000830187610675565b818103602083015261091e81866108be565b905061092d6040830185610675565b61093a6060830184610675565b95945050505050565b6000819050919050565b61095681610943565b82525050565b600060ff82169050919050565b6109728161095c565b82525050565b6000610160820190508181036000830152610993818e6108be565b905081810360208301526109a7818d6108be565b905081810360408301526109bb818c6108be565b90506109ca606083018b610675565b6109d7608083018a61094d565b6109e460a083018961094d565b6109f160c083018861094d565b6109fe60e0830187610969565b610a0c61010083018661094d565b610a1a61012083018561094d565b610a2861014083018461094d565b9c9b505050505050505050505050565b60006020820190508181036000830152610a5281846108be565b905092915050565b7f4e487b7100000000000000000000000000000000000000000000000000000000600052602160045260246000fd5b60028110610a9a57610a99610a5a565b5b50565b6000819050610aab82610a89565b919050565b6000610abb82610a9d565b9050919050565b610acb81610ab0565b82525050565b6000602082019050610ae66000830184610ac2565b92915050565b610af581610663565b8114610b0057600080fd5b50565b600081359050610b1281610aec565b92915050565b600060208284031215610b2e57610b2d6106df565b5b6000610b3c84828501610b03565b91505092915050565b7f4e487b7100000000000000000000000000000000000000000000000000000000600052602260045260246000fd5b60006002820490506001821680610b8c57607f821691505b602082108103610b9f57610b9e610b45565b5b5091905056fea2646970667358221220aade6c6d62dbd14a55287839c4b8f2f37b9fc6288fa5b057e835cbf7699be80464736f6c63430008130033",
  "immutableReferences": {},
  "source": "// SPDX-License-Identifier: CC0-1.0\npragma solidity ^0.8.0;\n\nimport \"./BondData.sol\";\nimport \"./Registry/IIdentityRegistry.sol\";\n\ncontract BondStorage {\n    mapping(string => BondData.IssueData) public issueData;\n    mapping(string => BondData.Bond) public bonds;\n    mapping(address => uint256) principals;\n    mapping(address => bool) public isInvestor;\n    mapping(address => mapping(address => uint256)) approvals;\n\n    string public dealID;\n    address public bondManager;\n    address public toposBankContract;\n    bool public isInitialized;\n\n    BondData.BondStatus public bondStatus;\n\n    BondData.DealInvestment[] listOfInvestors;\n\n    modifier onlyBondManager {\n        require(msg.sender == bondManager, \"ONLY_BOND_MANAGER\");\n        _;\n    }\n\n    modifier onlyToposBankContract {\n        require(\n            msg.sender == toposBankContract,\n            \"ONLY_TOPOS_BANK_CONTRACT\"\n        );\n        _;\n    }\n\n    modifier mustBeApproved(address _user) {\n        address registry = issueData[dealID].identyRegistryContract;\n        require(\n            IIdentityRegistry(registry).isVerified(_user),\n            \"ACCOUNT_NOT_AAPROVED\"\n        );\n        _;\n    }\n}",
  "sourcePath": "/Users/sam/Documents/Blockchain/Topos/ToposGrant/T-Grant/contracts/BondStorage.sol",
  "compiler": {
    "name": "solc",
    "version": "0.8.19+commit.7dd6d404.Emscripten.clang"
  },
  "schemaVersion": "3.4.9",
  "updatedAt": "2023-11-06T14:56:26.042Z",
  "devdoc": {
    "kind": "dev",
    "methods": {},
    "version": 1
  },
  "userdoc": {
    "kind": "user",
    "methods": {},
    "version": 1
  }
}