{
  "contractName": "BondTopos",
  "abi": [
    {
      "anonymous": false,
      "inputs": [
        {
          "indexed": false,
          "internalType": "address",
          "name": "_owner",
          "type": "address"
        },
        {
          "indexed": false,
          "internalType": "address",
          "name": "_spender",
          "type": "address"
        },
        {
          "indexed": false,
          "internalType": "uint256",
          "name": "_amount",
          "type": "uint256"
        }
      ],
      "name": "Approval",
      "type": "event"
    },
    {
      "anonymous": false,
      "inputs": [
        {
          "components": [
            {
              "internalType": "string",
              "name": "isin",
              "type": "string"
            },
            {
              "internalType": "string",
              "name": "name",
              "type": "string"
            },
            {
              "internalType": "string",
              "name": "symbol",
              "type": "string"
            },
            {
              "internalType": "address",
              "name": "currency",
              "type": "address"
            },
            {
              "internalType": "uint256",
              "name": "denomination",
              "type": "uint256"
            },
            {
              "internalType": "uint256",
              "name": "issueVolume",
              "type": "uint256"
            },
            {
              "internalType": "uint256",
              "name": "couponRate",
              "type": "uint256"
            },
            {
              "internalType": "uint8",
              "name": "couponType",
              "type": "uint8"
            },
            {
              "internalType": "uint256",
              "name": "couponFrequency",
              "type": "uint256"
            },
            {
              "internalType": "uint8",
              "name": "dayCountBasis",
              "type": "uint8"
            },
            {
              "internalType": "uint256",
              "name": "issueDate",
              "type": "uint256"
            },
            {
              "internalType": "uint256",
              "name": "maturityDate",
              "type": "uint256"
            }
          ],
          "indexed": false,
          "internalType": "struct IData.Bond",
          "name": "_bond",
          "type": "tuple"
        },
        {
          "components": [
            {
              "internalType": "address",
              "name": "investor",
              "type": "address"
            },
            {
              "internalType": "uint256",
              "name": "principal",
              "type": "uint256"
            }
          ],
          "indexed": false,
          "internalType": "struct IData.Offer[]",
          "name": "_offers",
          "type": "tuple[]"
        }
      ],
      "name": "BondIssued",
      "type": "event"
    },
    {
      "anonymous": false,
      "inputs": [
        {
          "indexed": true,
          "internalType": "bytes32",
          "name": "messageId",
          "type": "bytes32"
        },
        {
          "indexed": true,
          "internalType": "uint64",
          "name": "destinationChainSelector",
          "type": "uint64"
        },
        {
          "indexed": false,
          "internalType": "address",
          "name": "receiver",
          "type": "address"
        },
        {
          "indexed": false,
          "internalType": "string",
          "name": "text",
          "type": "string"
        },
        {
          "indexed": false,
          "internalType": "address",
          "name": "feeToken",
          "type": "address"
        },
        {
          "indexed": false,
          "internalType": "uint256",
          "name": "fees",
          "type": "uint256"
        }
      ],
      "name": "MessageSent",
      "type": "event"
    },
    {
      "anonymous": false,
      "inputs": [],
      "name": "Redeemed",
      "type": "event"
    },
    {
      "anonymous": false,
      "inputs": [
        {
          "indexed": false,
          "internalType": "address",
          "name": "_from",
          "type": "address"
        },
        {
          "indexed": false,
          "internalType": "address",
          "name": "_to",
          "type": "address"
        },
        {
          "indexed": false,
          "internalType": "uint256",
          "name": "_amount",
          "type": "uint256"
        }
      ],
      "name": "Transfer",
      "type": "event"
    },
    {
      "inputs": [],
      "name": "bondISIN",
      "outputs": [
        {
          "internalType": "string",
          "name": "",
          "type": "string"
        }
      ],
      "stateMutability": "view",
      "type": "function"
    },
    {
      "inputs": [],
      "name": "bondManager",
      "outputs": [
        {
          "internalType": "address",
          "name": "",
          "type": "address"
        }
      ],
      "stateMutability": "view",
      "type": "function"
    },
    {
      "inputs": [
        {
          "internalType": "address",
          "name": "",
          "type": "address"
        }
      ],
      "name": "isRegistered",
      "outputs": [
        {
          "internalType": "bool",
          "name": "",
          "type": "bool"
        }
      ],
      "stateMutability": "view",
      "type": "function"
    },
    {
      "inputs": [],
      "name": "issued",
      "outputs": [
        {
          "internalType": "uint256",
          "name": "",
          "type": "uint256"
        }
      ],
      "stateMutability": "view",
      "type": "function"
    },
    {
      "inputs": [],
      "name": "lock",
      "outputs": [
        {
          "internalType": "uint256",
          "name": "",
          "type": "uint256"
        }
      ],
      "stateMutability": "view",
      "type": "function"
    },
    {
      "inputs": [],
      "name": "redeemed",
      "outputs": [
        {
          "internalType": "uint256",
          "name": "",
          "type": "uint256"
        }
      ],
      "stateMutability": "view",
      "type": "function"
    },
    {
      "inputs": [
        {
          "internalType": "address",
          "name": "",
          "type": "address"
        }
      ],
      "name": "stakeholderType",
      "outputs": [
        {
          "internalType": "uint8",
          "name": "",
          "type": "uint8"
        }
      ],
      "stateMutability": "view",
      "type": "function"
    },
    {
      "inputs": [],
      "name": "isin",
      "outputs": [
        {
          "internalType": "string",
          "name": "",
          "type": "string"
        }
      ],
      "stateMutability": "view",
      "type": "function"
    },
    {
      "inputs": [],
      "name": "name",
      "outputs": [
        {
          "internalType": "string",
          "name": "",
          "type": "string"
        }
      ],
      "stateMutability": "view",
      "type": "function"
    },
    {
      "inputs": [],
      "name": "symbol",
      "outputs": [
        {
          "internalType": "string",
          "name": "",
          "type": "string"
        }
      ],
      "stateMutability": "view",
      "type": "function"
    },
    {
      "inputs": [],
      "name": "currency",
      "outputs": [
        {
          "internalType": "address",
          "name": "",
          "type": "address"
        }
      ],
      "stateMutability": "view",
      "type": "function"
    },
    {
      "inputs": [],
      "name": "denomination",
      "outputs": [
        {
          "internalType": "uint256",
          "name": "",
          "type": "uint256"
        }
      ],
      "stateMutability": "view",
      "type": "function"
    },
    {
      "inputs": [],
      "name": "issueVolume",
      "outputs": [
        {
          "internalType": "uint256",
          "name": "",
          "type": "uint256"
        }
      ],
      "stateMutability": "view",
      "type": "function"
    },
    {
      "inputs": [],
      "name": "couponRate",
      "outputs": [
        {
          "internalType": "uint256",
          "name": "",
          "type": "uint256"
        }
      ],
      "stateMutability": "view",
      "type": "function"
    },
    {
      "inputs": [],
      "name": "couponType",
      "outputs": [
        {
          "internalType": "uint8",
          "name": "",
          "type": "uint8"
        }
      ],
      "stateMutability": "view",
      "type": "function"
    },
    {
      "inputs": [],
      "name": "couponFrequency",
      "outputs": [
        {
          "internalType": "uint256",
          "name": "",
          "type": "uint256"
        }
      ],
      "stateMutability": "view",
      "type": "function"
    },
    {
      "inputs": [],
      "name": "dayCountBasis",
      "outputs": [
        {
          "internalType": "uint8",
          "name": "",
          "type": "uint8"
        }
      ],
      "stateMutability": "view",
      "type": "function"
    },
    {
      "inputs": [],
      "name": "issueDate",
      "outputs": [
        {
          "internalType": "uint256",
          "name": "",
          "type": "uint256"
        }
      ],
      "stateMutability": "view",
      "type": "function"
    },
    {
      "inputs": [],
      "name": "maturityDate",
      "outputs": [
        {
          "internalType": "uint256",
          "name": "",
          "type": "uint256"
        }
      ],
      "stateMutability": "view",
      "type": "function"
    },
    {
      "inputs": [
        {
          "internalType": "address",
          "name": "_account",
          "type": "address"
        }
      ],
      "name": "principalOf",
      "outputs": [
        {
          "internalType": "uint256",
          "name": "",
          "type": "uint256"
        }
      ],
      "stateMutability": "view",
      "type": "function"
    },
    {
      "inputs": [
        {
          "internalType": "address",
          "name": "_owner",
          "type": "address"
        },
        {
          "internalType": "address",
          "name": "_spender",
          "type": "address"
        }
      ],
      "name": "allowance",
      "outputs": [
        {
          "internalType": "uint256",
          "name": "",
          "type": "uint256"
        }
      ],
      "stateMutability": "view",
      "type": "function"
    },
    {
      "inputs": [
        {
          "internalType": "address",
          "name": "_spender",
          "type": "address"
        },
        {
          "internalType": "uint256",
          "name": "_amount",
          "type": "uint256"
        }
      ],
      "name": "approve",
      "outputs": [
        {
          "internalType": "bool",
          "name": "",
          "type": "bool"
        }
      ],
      "stateMutability": "nonpayable",
      "type": "function"
    },
    {
      "inputs": [
        {
          "internalType": "address",
          "name": "_spender",
          "type": "address"
        },
        {
          "internalType": "uint256",
          "name": "_amount",
          "type": "uint256"
        }
      ],
      "name": "decreaseAllowance",
      "outputs": [
        {
          "internalType": "bool",
          "name": "",
          "type": "bool"
        }
      ],
      "stateMutability": "nonpayable",
      "type": "function"
    },
    {
      "inputs": [
        {
          "internalType": "address",
          "name": "_to",
          "type": "address"
        },
        {
          "internalType": "uint256",
          "name": "_amount",
          "type": "uint256"
        },
        {
          "internalType": "bytes",
          "name": "_data",
          "type": "bytes"
        }
      ],
      "name": "transfer",
      "outputs": [
        {
          "internalType": "bool",
          "name": "",
          "type": "bool"
        }
      ],
      "stateMutability": "nonpayable",
      "type": "function"
    },
    {
      "inputs": [
        {
          "internalType": "address",
          "name": "_from",
          "type": "address"
        },
        {
          "internalType": "address",
          "name": "_to",
          "type": "address"
        },
        {
          "internalType": "uint256",
          "name": "_amount",
          "type": "uint256"
        },
        {
          "internalType": "bytes",
          "name": "_data",
          "type": "bytes"
        }
      ],
      "name": "transferFrom",
      "outputs": [
        {
          "internalType": "bool",
          "name": "",
          "type": "bool"
        }
      ],
      "stateMutability": "nonpayable",
      "type": "function"
    }
  ],
  "bytecode": "0x608060405234801561001057600080fd5b506123ca806100206000396000f3fe608060405234801561001057600080fd5b50600436106101735760003560e01c80638d1343e0116100de578063c0bcb26f11610097578063dd62ed3e11610071578063dd62ed3e1461046c578063e231bff01461049c578063e5a6b10f146104ba578063f83d08ba146104d857610173565b8063c0bcb26f14610400578063c3c5a5471461041e578063d59624b41461044e57610173565b80638d1343e01461031657806395d89b4114610334578063a457c2d714610352578063ab67aa5814610382578063bde7aa47146103b2578063be45fd62146103d057610173565b80635eb0b3d0116101305780635eb0b3d0146102505780635f1ff5491461026e57806361e20a1c1461028c578063710d3329146102bc57806382d5a60d146102da5780638bca6d16146102f857610173565b8063045017ce1461017857806306fdde0314610196578063095ea7b3146101b45780632c0bc9a0146101e4578063363cc4271461020257806337ca211914610220575b600080fd5b6101806104f6565b60405161018d91906117c6565b60405180910390f35b61019e61052c565b6040516101ab9190611871565b60405180910390f35b6101ce60048036038101906101c99190611931565b6105de565b6040516101db919061198c565b60405180910390f35b6101ec6105fa565b6040516101f99190611871565b60405180910390f35b61020a610688565b60405161021791906119b6565b60405180910390f35b61023a600480360381019061023591906119d1565b6106ae565b60405161024791906117c6565b60405180910390f35b6102586106ce565b6040516102659190611a0d565b60405180910390f35b6102766106f7565b6040516102839190611a0d565b60405180910390f35b6102a660048036038101906102a191906119d1565b6106fd565b6040516102b39190611a0d565b60405180910390f35b6102c4610746565b6040516102d19190611a0d565b60405180910390f35b6102e261076f565b6040516102ef9190611871565b60405180910390f35b610300610821565b60405161030d9190611a0d565b60405180910390f35b61031e61084a565b60405161032b9190611a0d565b60405180910390f35b61033c610873565b6040516103499190611871565b60405180910390f35b61036c60048036038101906103679190611931565b610925565b604051610379919061198c565b60405180910390f35b61039c60048036038101906103979190611a8d565b610941565b6040516103a9919061198c565b60405180910390f35b6103ba61096d565b6040516103c791906117c6565b60405180910390f35b6103ea60048036038101906103e59190611b15565b6109a3565b6040516103f7919061198c565b60405180910390f35b6104086109c3565b6040516104159190611a0d565b60405180910390f35b610438600480360381019061043391906119d1565b6109ec565b604051610445919061198c565b60405180910390f35b610456610a0c565b6040516104639190611a0d565b60405180910390f35b61048660048036038101906104819190611b89565b610a35565b6040516104939190611a0d565b60405180910390f35b6104a4610a3d565b6040516104b19190611a0d565b60405180910390f35b6104c2610a43565b6040516104cf91906119b6565b60405180910390f35b6104e0610a8c565b6040516104ed9190611a0d565b60405180910390f35b60008060076040516105089190611ccc565b908152602001604051809103902060070160009054906101000a900460ff16905090565b60606000600760405161053f9190611ccc565b9081526020016040518091039020600101805461055b90611bf8565b80601f016020809104026020016040519081016040528092919081815260200182805461058790611bf8565b80156105d45780601f106105a9576101008083540402835291602001916105d4565b820191906000526020600020905b8154815290600101906020018083116105b757829003601f168201915b5050505050905090565b6000803390506105ef818585610a92565b600191505092915050565b6007805461060790611bf8565b80601f016020809104026020016040519081016040528092919081815260200182805461063390611bf8565b80156106805780601f1061065557610100808354040283529160200191610680565b820191906000526020600020905b81548152906001019060200180831161066357829003601f168201915b505050505081565b600860009054906101000a900473ffffffffffffffffffffffffffffffffffffffff1681565b60066020528060005260406000206000915054906101000a900460ff1681565b60008060076040516106e09190611ccc565b908152602001604051809103902060080154905090565b600a5481565b6000600260008373ffffffffffffffffffffffffffffffffffffffff1673ffffffffffffffffffffffffffffffffffffffff168152602001908152602001600020549050919050565b60008060076040516107589190611ccc565b908152602001604051809103902060050154905090565b6060600060076040516107829190611ccc565b9081526020016040518091039020600001805461079e90611bf8565b80601f01602080910402602001604051908101604052809291908181526020018280546107ca90611bf8565b80156108175780601f106107ec57610100808354040283529160200191610817565b820191906000526020600020905b8154815290600101906020018083116107fa57829003601f168201915b5050505050905090565b60008060076040516108339190611ccc565b908152602001604051809103902060040154905090565b600080600760405161085c9190611ccc565b9081526020016040518091039020600a0154905090565b6060600060076040516108869190611ccc565b908152602001604051809103902060020180546108a290611bf8565b80601f01602080910402602001604051908101604052809291908181526020018280546108ce90611bf8565b801561091b5780601f106108f05761010080835404028352916020019161091b565b820191906000526020600020905b8154815290600101906020018083116108fe57829003601f168201915b5050505050905090565b600080339050610936818585610e83565b600191505092915050565b60008033905061095287828761121e565b61095f878787878761136b565b600191505095945050505050565b600080600760405161097f9190611ccc565b908152602001604051809103902060090160009054906101000a900460ff16905090565b6000803390506109b6818787878761136b565b6001915050949350505050565b60008060076040516109d59190611ccc565b908152602001604051809103902060060154905090565b60056020528060005260406000206000915054906101000a900460ff1681565b6000806007604051610a1e9190611ccc565b9081526020016040518091039020600b0154905090565b600092915050565b600b5481565b6000806007604051610a559190611ccc565b908152602001604051809103902060030160009054906101000a900473ffffffffffffffffffffffffffffffffffffffff16905090565b60095481565b600073ffffffffffffffffffffffffffffffffffffffff168373ffffffffffffffffffffffffffffffffffffffff1603610b01576040517f08c379a0000000000000000000000000000000000000000000000000000000008152600401610af890611d2f565b60405180910390fd5b600073ffffffffffffffffffffffffffffffffffffffff168273ffffffffffffffffffffffffffffffffffffffff1603610b70576040517f08c379a0000000000000000000000000000000000000000000000000000000008152600401610b6790611d9b565b60405180910390fd5b60008111610bb3576040517f08c379a0000000000000000000000000000000000000000000000000000000008152600401610baa90611e07565b60405180910390fd5b6000600260008573ffffffffffffffffffffffffffffffffffffffff1673ffffffffffffffffffffffffffffffffffffffff1681526020019081526020016000205490506000600460008673ffffffffffffffffffffffffffffffffffffffff1673ffffffffffffffffffffffffffffffffffffffff16815260200190815260200160002060008573ffffffffffffffffffffffffffffffffffffffff1673ffffffffffffffffffffffffffffffffffffffff1681526020019081526020016000205490506000806007604051610c8a9190611ccc565b90815260200160405180910390206004015490506000806007604051610cb09190611ccc565b9081526020016040518091039020600b0154905060008285610cd29190611e85565b9050814210610d16576040517f08c379a0000000000000000000000000000000000000000000000000000000008152600401610d0d90611f02565b60405180910390fd5b80861115610d59576040517f08c379a0000000000000000000000000000000000000000000000000000000008152600401610d5090611f6e565b60405180910390fd5b6000838488610d689190611f8e565b610d729190611fd0565b14610db2576040517f08c379a0000000000000000000000000000000000000000000000000000000008152600401610da990611e07565b60405180910390fd5b8584610dbe9190612001565b600460008a73ffffffffffffffffffffffffffffffffffffffff1673ffffffffffffffffffffffffffffffffffffffff16815260200190815260200160002060008973ffffffffffffffffffffffffffffffffffffffff1673ffffffffffffffffffffffffffffffffffffffff168152602001908152602001600020819055507f8c5be1e5ebec7d5bd14f71427d1e84f3dd0314c0f7b2291e5b200ac8c7c3b925888888604051610e7193929190612035565b60405180910390a15050505050505050565b600073ffffffffffffffffffffffffffffffffffffffff168373ffffffffffffffffffffffffffffffffffffffff1603610ef2576040517f08c379a0000000000000000000000000000000000000000000000000000000008152600401610ee9906120b8565b60405180910390fd5b600073ffffffffffffffffffffffffffffffffffffffff168273ffffffffffffffffffffffffffffffffffffffff1603610f61576040517f08c379a0000000000000000000000000000000000000000000000000000000008152600401610f5890612124565b60405180910390fd5b60008111610fa4576040517f08c379a0000000000000000000000000000000000000000000000000000000008152600401610f9b90612190565b60405180910390fd5b6000600460008573ffffffffffffffffffffffffffffffffffffffff1673ffffffffffffffffffffffffffffffffffffffff16815260200190815260200160002060008473ffffffffffffffffffffffffffffffffffffffff1673ffffffffffffffffffffffffffffffffffffffff16815260200190815260200160002054905060008060076040516110379190611ccc565b9081526020016040518091039020600401549050600080600760405161105d9190611ccc565b9081526020016040518091039020600b015490508042106110b3576040517f08c379a00000000000000000000000000000000000000000000000000000000081526004016110aa906121fc565b60405180910390fd5b828411156110f6576040517f08c379a00000000000000000000000000000000000000000000000000000000081526004016110ed90612268565b60405180910390fd5b60008283866111059190611f8e565b61110f9190611fd0565b1461114f576040517f08c379a000000000000000000000000000000000000000000000000000000000815260040161114690612190565b60405180910390fd5b838361115b9190612288565b600460008873ffffffffffffffffffffffffffffffffffffffff1673ffffffffffffffffffffffffffffffffffffffff16815260200190815260200160002060008773ffffffffffffffffffffffffffffffffffffffff1673ffffffffffffffffffffffffffffffffffffffff168152602001908152602001600020819055507f8c5be1e5ebec7d5bd14f71427d1e84f3dd0314c0f7b2291e5b200ac8c7c3b92586868660405161120e93929190612035565b60405180910390a1505050505050565b6000600460008573ffffffffffffffffffffffffffffffffffffffff1673ffffffffffffffffffffffffffffffffffffffff16815260200190815260200160002060008473ffffffffffffffffffffffffffffffffffffffff1673ffffffffffffffffffffffffffffffffffffffff168152602001908152602001600020549050808211156112e2576040517f08c379a00000000000000000000000000000000000000000000000000000000081526004016112d990612308565b60405180910390fd5b818103600460008673ffffffffffffffffffffffffffffffffffffffff1673ffffffffffffffffffffffffffffffffffffffff16815260200190815260200160002060008573ffffffffffffffffffffffffffffffffffffffff1673ffffffffffffffffffffffffffffffffffffffff1681526020019081526020016000208190555050505050565b600073ffffffffffffffffffffffffffffffffffffffff168573ffffffffffffffffffffffffffffffffffffffff16036113da576040517f08c379a00000000000000000000000000000000000000000000000000000000081526004016113d1906120b8565b60405180910390fd5b600073ffffffffffffffffffffffffffffffffffffffff168473ffffffffffffffffffffffffffffffffffffffff1603611449576040517f08c379a000000000000000000000000000000000000000000000000000000000815260040161144090612124565b60405180910390fd5b6000831161148c576040517f08c379a000000000000000000000000000000000000000000000000000000000815260040161148390612190565b60405180910390fd5b6000600260008773ffffffffffffffffffffffffffffffffffffffff1673ffffffffffffffffffffffffffffffffffffffff16815260200190815260200160002054905060008060076040516114e29190611ccc565b908152602001604051809103902060040154905060008060076040516115089190611ccc565b9081526020016040518091039020600b015490506000828461152a9190611e85565b905081421061156e576040517f08c379a0000000000000000000000000000000000000000000000000000000008152600401611565906121fc565b60405180910390fd5b808711156115b1576040517f08c379a00000000000000000000000000000000000000000000000000000000081526004016115a890612374565b60405180910390fd5b60008384896115c09190611f8e565b6115ca9190611fd0565b1461160a576040517f08c379a000000000000000000000000000000000000000000000000000000000815260040161160190612190565b60405180910390fd5b611617898989898961179c565b6000600260008a73ffffffffffffffffffffffffffffffffffffffff1673ffffffffffffffffffffffffffffffffffffffff16815260200190815260200160002054905060008489029050808603600260008d73ffffffffffffffffffffffffffffffffffffffff1673ffffffffffffffffffffffffffffffffffffffff16815260200190815260200160002081905550808201600260008c73ffffffffffffffffffffffffffffffffffffffff1673ffffffffffffffffffffffffffffffffffffffff16815260200190815260200160002081905550506002600660008b73ffffffffffffffffffffffffffffffffffffffff1673ffffffffffffffffffffffffffffffffffffffff16815260200190815260200160002060006101000a81548160ff021916908360ff1602179055507fddf252ad1be2c89b69c2b068fc378daa952ba7f163c4a11628f55a4df523b3ef8a8a8a60405161177b93929190612035565b60405180910390a16117908a8a8a8a8a6117a3565b50505050505050505050565b5050505050565b5050505050565b600060ff82169050919050565b6117c0816117aa565b82525050565b60006020820190506117db60008301846117b7565b92915050565b600081519050919050565b600082825260208201905092915050565b60005b8381101561181b578082015181840152602081019050611800565b60008484015250505050565b6000601f19601f8301169050919050565b6000611843826117e1565b61184d81856117ec565b935061185d8185602086016117fd565b61186681611827565b840191505092915050565b6000602082019050818103600083015261188b8184611838565b905092915050565b600080fd5b600080fd5b600073ffffffffffffffffffffffffffffffffffffffff82169050919050565b60006118c88261189d565b9050919050565b6118d8816118bd565b81146118e357600080fd5b50565b6000813590506118f5816118cf565b92915050565b6000819050919050565b61190e816118fb565b811461191957600080fd5b50565b60008135905061192b81611905565b92915050565b6000806040838503121561194857611947611893565b5b6000611956858286016118e6565b92505060206119678582860161191c565b9150509250929050565b60008115159050919050565b61198681611971565b82525050565b60006020820190506119a1600083018461197d565b92915050565b6119b0816118bd565b82525050565b60006020820190506119cb60008301846119a7565b92915050565b6000602082840312156119e7576119e6611893565b5b60006119f5848285016118e6565b91505092915050565b611a07816118fb565b82525050565b6000602082019050611a2260008301846119fe565b92915050565b600080fd5b600080fd5b600080fd5b60008083601f840112611a4d57611a4c611a28565b5b8235905067ffffffffffffffff811115611a6a57611a69611a2d565b5b602083019150836001820283011115611a8657611a85611a32565b5b9250929050565b600080600080600060808688031215611aa957611aa8611893565b5b6000611ab7888289016118e6565b9550506020611ac8888289016118e6565b9450506040611ad98882890161191c565b935050606086013567ffffffffffffffff811115611afa57611af9611898565b5b611b0688828901611a37565b92509250509295509295909350565b60008060008060608587031215611b2f57611b2e611893565b5b6000611b3d878288016118e6565b9450506020611b4e8782880161191c565b935050604085013567ffffffffffffffff811115611b6f57611b6e611898565b5b611b7b87828801611a37565b925092505092959194509250565b60008060408385031215611ba057611b9f611893565b5b6000611bae858286016118e6565b9250506020611bbf858286016118e6565b9150509250929050565b7f4e487b7100000000000000000000000000000000000000000000000000000000600052602260045260246000fd5b60006002820490506001821680611c1057607f821691505b602082108103611c2357611c22611bc9565b5b50919050565b600081905092915050565b60008190508160005260206000209050919050565b60008154611c5681611bf8565b611c608186611c29565b94506001821660008114611c7b5760018114611c9057611cc3565b60ff1983168652811515820286019350611cc3565b611c9985611c34565b60005b83811015611cbb57815481890152600182019150602081019050611c9c565b838801955050505b50505092915050565b6000611cd88284611c49565b915081905092915050565b7f426f6e64546f706f733a204f574e45525f5a45524f5f41444452455353000000600082015250565b6000611d19601d836117ec565b9150611d2482611ce3565b602082019050919050565b60006020820190508181036000830152611d4881611d0c565b9050919050565b7f426f6e64546f706f733a205350454e4445525f5a45524f5f4144445245535300600082015250565b6000611d85601f836117ec565b9150611d9082611d4f565b602082019050919050565b60006020820190508181036000830152611db481611d78565b9050919050565b7f426f6e64546f706f733a20494e56414c49445f414d4f554e5400000000000000600082015250565b6000611df16019836117ec565b9150611dfc82611dbb565b602082019050919050565b60006020820190508181036000830152611e2081611de4565b9050919050565b7f4e487b7100000000000000000000000000000000000000000000000000000000600052601260045260246000fd5b7f4e487b7100000000000000000000000000000000000000000000000000000000600052601160045260246000fd5b6000611e90826118fb565b9150611e9b836118fb565b925082611eab57611eaa611e27565b5b828204905092915050565b7f426f6e64546f706f733a20424f4e44535f4d4154555245440000000000000000600082015250565b6000611eec6018836117ec565b9150611ef782611eb6565b602082019050919050565b60006020820190508181036000830152611f1b81611edf565b9050919050565b7f426f6e64546f706f733a20494e53554646494349454e545f42414c414e434500600082015250565b6000611f58601f836117ec565b9150611f6382611f22565b602082019050919050565b60006020820190508181036000830152611f8781611f4b565b9050919050565b6000611f99826118fb565b9150611fa4836118fb565b9250828202611fb2816118fb565b91508282048414831517611fc957611fc8611e56565b5b5092915050565b6000611fdb826118fb565b9150611fe6836118fb565b925082611ff657611ff5611e27565b5b828206905092915050565b600061200c826118fb565b9150612017836118fb565b925082820190508082111561202f5761202e611e56565b5b92915050565b600060608201905061204a60008301866119a7565b61205760208301856119a7565b61206460408301846119fe565b949350505050565b7f455243373039323a204f574e45525f5a45524f5f414444524553530000000000600082015250565b60006120a2601b836117ec565b91506120ad8261206c565b602082019050919050565b600060208201905081810360008301526120d181612095565b9050919050565b7f455243373039323a205350454e4445525f5a45524f5f41444452455353000000600082015250565b600061210e601d836117ec565b9150612119826120d8565b602082019050919050565b6000602082019050818103600083015261213d81612101565b9050919050565b7f455243373039323a20494e56414c49445f414d4f554e54000000000000000000600082015250565b600061217a6017836117ec565b915061218582612144565b602082019050919050565b600060208201905081810360008301526121a98161216d565b9050919050565b7f455243373039323a20424f4e44535f4d41545552454400000000000000000000600082015250565b60006121e66016836117ec565b91506121f1826121b0565b602082019050919050565b60006020820190508181036000830152612215816121d9565b9050919050565b7f455243373039323a204e4f545f454e4f5547485f415050524f56414c00000000600082015250565b6000612252601c836117ec565b915061225d8261221c565b602082019050919050565b6000602082019050818103600083015261228181612245565b9050919050565b6000612293826118fb565b915061229e836118fb565b92508282039050818111156122b6576122b5611e56565b5b92915050565b7f455243373039323a20494e53554646494349454e545f414c4c4f57414e434500600082015250565b60006122f2601f836117ec565b91506122fd826122bc565b602082019050919050565b60006020820190508181036000830152612321816122e5565b9050919050565b7f455243373039323a20494e53554646494349454e545f42414c414e4345000000600082015250565b600061235e601d836117ec565b915061236982612328565b602082019050919050565b6000602082019050818103600083015261238d81612351565b905091905056fea2646970667358221220b20a1afb38718eec32047f465e44ac7ea0cea3f9dabb2a800a87405df1d2021264736f6c63430008130033",
  "immutableReferences": {},
  "source": "// SPDX-License-Identifier: CC0-1.0\npragma solidity ^0.8.0;\n\nimport \"./IERC7092.sol\";\nimport \"./BondStorage.sol\";\n\ncontract BondTopos is IERC7092, BondStorage {\n    function isin() external view returns(string memory) {\n        return _bonds[bondISIN].isin;\n    }\n\n    function name() external view returns(string memory) {\n        return _bonds[bondISIN].name;\n    }\n\n    function symbol() external view returns(string memory) {\n        return _bonds[bondISIN].symbol;\n    }\n\n    function currency() external view returns(address) {\n        return _bonds[bondISIN].currency;\n    }\n\n    function denomination() external view returns(uint256) {\n        return _bonds[bondISIN].denomination;\n    }\n\n    function issueVolume() external view returns(uint256) {\n        return _bonds[bondISIN].issueVolume;\n    }\n\n    function couponRate() external view returns(uint256) {\n        return _bonds[bondISIN].couponRate;\n    }\n\n    function couponType() external view returns(uint8) {\n        return _bonds[bondISIN].couponType;\n    }\n\n    function couponFrequency() external view returns(uint256) {\n        return _bonds[bondISIN].couponFrequency;\n    }\n\n    function dayCountBasis() external view returns(uint8) {\n        return _bonds[bondISIN].dayCountBasis;\n    }\n\n    function issueDate() external view returns(uint256) {\n        return _bonds[bondISIN].issueDate;\n    }\n\n    function maturityDate() external view returns(uint256) {\n        return _bonds[bondISIN].maturityDate;\n    }\n\n    function principalOf(address _account) external view returns(uint256) {\n        return _principals[_account];\n    }\n\n    function allowance(address _owner, address _spender) external view returns(uint256) {\n\n    }\n\n    function approve(address _spender, uint256 _amount) external returns(bool) {\n        address _owner = msg.sender;\n        _approve(_owner, _spender, _amount);\n\n        return true;\n    }\n\n    function decreaseAllowance(address _spender, uint256 _amount) external returns(bool) {\n        address _owner = msg.sender;\n\n        _decreaseAllowance(_owner, _spender, _amount);\n\n        return true;\n    }\n\n    function transfer(address _to, uint256 _amount, bytes calldata _data) external returns(bool) {\n        address _from = msg.sender;\n\n        _transfer(_from, _to, _amount, _data);\n\n        return true;\n    }\n\n    function transferFrom(address _from, address _to, uint256 _amount, bytes calldata _data) external returns(bool) {\n        address _spender = msg.sender;\n\n        _spendApproval(_from, _spender, _amount);\n\n        _transfer(_from, _to, _amount, _data);\n\n        return true;\n    }\n\n    function _approve(address _owner, address _spender, uint256 _amount) internal virtual {\n        require(_owner != address(0), \"BondTopos: OWNER_ZERO_ADDRESS\");\n        require(_spender != address(0), \"BondTopos: SPENDER_ZERO_ADDRESS\");\n        require(_amount > 0, \"BondTopos: INVALID_AMOUNT\");\n\n        uint256 principal = _principals[_owner];\n        uint256 _approval = _approvals[_owner][_spender];\n        uint256 _denomination = _bonds[bondISIN].denomination;\n        uint256 _maturityDate = _bonds[bondISIN].maturityDate;\n\n        uint256 _balance = principal / _denomination;\n\n        require(block.timestamp < _maturityDate, \"BondTopos: BONDS_MATURED\");\n        require(_amount <= _balance, \"BondTopos: INSUFFICIENT_BALANCE\");\n        require((_amount * _denomination) % _denomination == 0, \"BondTopos: INVALID_AMOUNT\");\n\n        _approvals[_owner][_spender]  = _approval + _amount;\n\n        emit Approval(_owner, _spender, _amount);\n    }\n\n    function _decreaseAllowance(address _owner, address _spender, uint256 _amount) internal virtual {\n        require(_owner != address(0), \"ERC7092: OWNER_ZERO_ADDRESS\");\n        require(_spender != address(0), \"ERC7092: SPENDER_ZERO_ADDRESS\");\n        require(_amount > 0, \"ERC7092: INVALID_AMOUNT\");\n\n        uint256 _approval = _approvals[_owner][_spender];\n        uint256 _denomination = _bonds[bondISIN].denomination;\n        uint256 _maturityDate = _bonds[bondISIN].maturityDate;\n\n        require(block.timestamp < _maturityDate, \"ERC7092: BONDS_MATURED\");\n        require(_amount <= _approval, \"ERC7092: NOT_ENOUGH_APPROVAL\");\n        require((_amount * _denomination) % _denomination == 0, \"ERC7092: INVALID_AMOUNT\");\n\n        _approvals[_owner][_spender]  = _approval - _amount;\n\n        emit Approval(_owner, _spender, _amount);\n    }\n\n    function _transfer(\n        address _from,\n        address _to,\n        uint256 _amount,\n        bytes calldata _data\n    ) internal virtual {\n        require(_from != address(0), \"ERC7092: OWNER_ZERO_ADDRESS\");\n        require(_to != address(0), \"ERC7092: SPENDER_ZERO_ADDRESS\");\n        require(_amount > 0, \"ERC7092: INVALID_AMOUNT\");\n\n        uint256 principal = _principals[_from];\n        uint256 _denomination = _bonds[bondISIN].denomination;\n        uint256 _maturityDate = _bonds[bondISIN].maturityDate;\n\n        uint256 _balance = principal / _denomination;\n\n        require(block.timestamp < _maturityDate, \"ERC7092: BONDS_MATURED\");\n        require(_amount <= _balance, \"ERC7092: INSUFFICIENT_BALANCE\");\n        require((_amount * _denomination) % _denomination == 0, \"ERC7092: INVALID_AMOUNT\");\n\n        _beforeBondTransfer(_from, _to, _amount, _data);\n\n        uint256 principalTo = _principals[_to];\n\n        unchecked {\n            uint256 _principalTransferred = _amount * _denomination;\n\n            _principals[_from] = principal - _principalTransferred;\n            _principals[_to] = principalTo + _principalTransferred;\n        }\n\n        stakeholderType[_to] = 2;\n\n        emit Transfer(_from, _to, _amount);\n\n        _afterBondTransfer(_from, _to, _amount, _data);\n    }\n\n    function _spendApproval(address _from, address _spender, uint256 _amount) internal virtual {\n        uint256 currentApproval = _approvals[_from][_spender];\n        require(_amount <= currentApproval, \"ERC7092: INSUFFICIENT_ALLOWANCE\");\n\n        unchecked {\n            _approvals[_from][_spender] = currentApproval - _amount;\n        }\n   }\n\n    function _beforeBondTransfer(address _from, address _to, uint256 _amount, bytes calldata _data) internal virtual {}\n\n    function _afterBondTransfer(address _from, address _to, uint256 _amount, bytes calldata _data) internal virtual {}\n}",
  "sourcePath": "/Users/sam/Documents/Blockchain/Topos/ToposGrant/T-Grant/contracts/BondTopos.sol",
  "compiler": {
    "name": "solc",
    "version": "0.8.19+commit.7dd6d404.Emscripten.clang"
  },
  "schemaVersion": "3.4.9",
  "updatedAt": "2023-10-30T04:39:00.007Z",
  "devdoc": {
    "events": {
      "Approval(address,address,uint256)": {
        "params": {
          "_amount": "amount of bond tokens allowed by _owner to be spent by `_spender`        Or amount of bond tokens to decrease allowance from `_spender`",
          "_owner": "bondholder account",
          "_spender": "the account to be allowed to spend bonds"
        }
      },
      "Transfer(address,address,uint256)": {
        "params": {
          "_amount": "amount of bond tokens to be transferred",
          "_from": "bondholder account",
          "_to": "account to transfer bonds to"
        }
      }
    },
    "kind": "dev",
    "methods": {
      "allowance(address,address)": {
        "params": {
          "_owner": "the bondholder address",
          "_spender": "the address that has been authorized by the bondholder"
        }
      },
      "approve(address,uint256)": {
        "params": {
          "_amount": "amount of bond tokens to approve",
          "_spender": "the account to be authorized by the bondholder"
        }
      },
      "decreaseAllowance(address,uint256)": {
        "params": {
          "_amount": "amount of bond tokens to remove from allowance",
          "_spender": "the address to be authorized by the bondholder"
        }
      },
      "principalOf(address)": {
        "params": {
          "_account": "account address"
        }
      },
      "transfer(address,uint256,bytes)": {
        "params": {
          "_amount": "amount of bond tokens to transfer",
          "_data": "additional information provided by the token holder",
          "_to": "the address to send bonds to"
        }
      },
      "transferFrom(address,address,uint256,bytes)": {
        "params": {
          "_amount": "amount of bond tokens to transfer.",
          "_data": "additional information provided by the token holder",
          "_from": "the bondholder address",
          "_to": "the address to transfer bonds to"
        }
      }
    },
    "version": 1
  },
  "userdoc": {
    "events": {
      "Approval(address,address,uint256)": {
        "notice": "MUST be emitted when an account is approved to spend tokens or when the allowance is decreased"
      },
      "Transfer(address,address,uint256)": {
        "notice": "MUST be emitted when bond tokens are transferred, issued or redeemed, with the exception being during contract creation"
      }
    },
    "kind": "user",
    "methods": {
      "allowance(address,address)": {
        "notice": "Returns the number of tokens that the `_spender` account has been authorized by the `_owner` to manage"
      },
      "approve(address,uint256)": {
        "notice": "Authorizes `_spender` account to manage  a specified `_amount`of the bondholder's tokens"
      },
      "couponFrequency()": {
        "notice": "Returns the coupon frequency, i.e. the number of times coupons are paid in a year. OPTIONAL - interfaces and other contracts MUST NOT expect these values to be present. The method is used to improve usability."
      },
      "couponRate()": {
        "notice": "Returns the bond interest rate. It is RECOMMENDED to express the interest rate in basis points (bps).         1 basis point = 0.01% = 0.0001         ex: if interest rate = 5%, then coupon() => 500 basis points"
      },
      "couponType()": {
        "notice": "Returns the coupon type         For example, 0 can denote Zero coupon, 1 can denote Fixed Rate, 2 can denote Floating Rate, and so on OPTIONAL - interfaces and other contracts MUST NOT expect these values to be present. The method is used to improve usability."
      },
      "currency()": {
        "notice": "Returns the bond currency. This is the contract address of the token used to make payments and return the bond principal"
      },
      "dayCountBasis()": {
        "notice": "Returns the day count basis         For example, 0 can denote actual/actual, 1 can denote actual/360, and so on OPTIONAL - interfaces and other contracts MUST NOT expect these values to be present. The method is used to improve usability."
      },
      "decreaseAllowance(address,uint256)": {
        "notice": "Decreases the allowance granted to `_spender` by `_amount`"
      },
      "denomination()": {
        "notice": "Returns the bond denomination. This is the minimum amount in which the bonds may be issued. It MUST be expressed in units of the principal currency.         ex: If the denomination is set at 1,000, and the currency is USDC, then the bond denomination is equivalent to 1,000 USDC."
      },
      "isin()": {
        "notice": "Returns the bond isin"
      },
      "issueDate()": {
        "notice": "Returns the date when bonds were issued to investors. This is a Unix Timestamp similar the one returned by block.timestamp"
      },
      "issueVolume()": {
        "notice": "Returns the issue volume, which represents the total debt amount. It is RECOMMENDED to express the issue volume in terms of the denomination unit."
      },
      "maturityDate()": {
        "notice": "Returns the bond maturity date, i.e, the date when the principal is repaid. This is a Unix Timestamp similar the one returned by block.timestamp         The maturity date MUST be greater than the issue date"
      },
      "name()": {
        "notice": "Returns the bond name"
      },
      "principalOf(address)": {
        "notice": "Returns the principal of an account. It is RECOMMENDED to express the principal in the bond currency unit (e.g., USDC, DAI, etc)"
      },
      "symbol()": {
        "notice": "Returns the bond symbol         It is RECOMMENDED to represent the symbol as a combination of the issuer issuer's shorter name and the maturity date         Ex: If a company named Green Energy issues bonds that will mature on october 25, 2030, the bond symbol could be `GE30` or `GE2030` or `GE102530`"
      },
      "transfer(address,uint256,bytes)": {
        "notice": "Transfers `_amount` bonds to the address `_to`. Additionally, this method enables to attach data to the token being transferred"
      },
      "transferFrom(address,address,uint256,bytes)": {
        "notice": "Transfers `_amount` bonds from an account that has previously authorized the caller through the `approve` function         This methods also allows to attach data to the token that is being transferred"
      }
    },
    "version": 1
  }
}