{
  "contractName": "BondTopos",
  "abi": [
    {
      "inputs": [
        {
          "internalType": "string",
          "name": "_dealID",
          "type": "string"
        },
        {
          "internalType": "address",
          "name": "_bondManager",
          "type": "address"
        },
        {
          "internalType": "address",
          "name": "_issuerWalletAddress",
          "type": "address"
        },
        {
          "internalType": "string",
          "name": "_countryOfIssuance",
          "type": "string"
        },
        {
          "internalType": "address",
          "name": "_bondCallContractAddress",
          "type": "address"
        },
        {
          "internalType": "address",
          "name": "_identiRegistryContract",
          "type": "address"
        }
      ],
      "stateMutability": "nonpayable",
      "type": "constructor"
    },
    {
      "anonymous": false,
      "inputs": [
        {
          "indexed": false,
          "internalType": "address",
          "name": "_owner",
          "type": "address"
        },
        {
          "indexed": false,
          "internalType": "address",
          "name": "_spender",
          "type": "address"
        },
        {
          "indexed": false,
          "internalType": "uint256",
          "name": "_amount",
          "type": "uint256"
        }
      ],
      "name": "Approval",
      "type": "event"
    },
    {
      "anonymous": false,
      "inputs": [
        {
          "indexed": false,
          "internalType": "address",
          "name": "_from",
          "type": "address"
        },
        {
          "indexed": false,
          "internalType": "address",
          "name": "_to",
          "type": "address"
        },
        {
          "indexed": false,
          "internalType": "uint256",
          "name": "_amount",
          "type": "uint256"
        }
      ],
      "name": "Transfer",
      "type": "event"
    },
    {
      "inputs": [],
      "name": "bondManager",
      "outputs": [
        {
          "internalType": "address",
          "name": "",
          "type": "address"
        }
      ],
      "stateMutability": "view",
      "type": "function"
    },
    {
      "inputs": [],
      "name": "bondStatus",
      "outputs": [
        {
          "internalType": "enum BondData.BondStatus",
          "name": "",
          "type": "uint8"
        }
      ],
      "stateMutability": "view",
      "type": "function"
    },
    {
      "inputs": [
        {
          "internalType": "string",
          "name": "",
          "type": "string"
        }
      ],
      "name": "bonds",
      "outputs": [
        {
          "internalType": "string",
          "name": "isin",
          "type": "string"
        },
        {
          "internalType": "string",
          "name": "name",
          "type": "string"
        },
        {
          "internalType": "string",
          "name": "symbol",
          "type": "string"
        },
        {
          "internalType": "address",
          "name": "currency",
          "type": "address"
        },
        {
          "internalType": "uint256",
          "name": "denomination",
          "type": "uint256"
        },
        {
          "internalType": "uint256",
          "name": "issueVolume",
          "type": "uint256"
        },
        {
          "internalType": "uint256",
          "name": "couponRate",
          "type": "uint256"
        },
        {
          "internalType": "uint8",
          "name": "couponType",
          "type": "uint8"
        },
        {
          "internalType": "uint256",
          "name": "couponFrequency",
          "type": "uint256"
        },
        {
          "internalType": "uint256",
          "name": "issueDate",
          "type": "uint256"
        },
        {
          "internalType": "uint256",
          "name": "maturityDate",
          "type": "uint256"
        }
      ],
      "stateMutability": "view",
      "type": "function"
    },
    {
      "inputs": [],
      "name": "dealID",
      "outputs": [
        {
          "internalType": "string",
          "name": "",
          "type": "string"
        }
      ],
      "stateMutability": "view",
      "type": "function"
    },
    {
      "inputs": [
        {
          "internalType": "string",
          "name": "",
          "type": "string"
        }
      ],
      "name": "issueData",
      "outputs": [
        {
          "internalType": "address",
          "name": "issuerWalletAddress",
          "type": "address"
        },
        {
          "internalType": "string",
          "name": "countryOfIssuance",
          "type": "string"
        },
        {
          "internalType": "address",
          "name": "bondCallContract",
          "type": "address"
        },
        {
          "internalType": "address",
          "name": "identyRegistryContract",
          "type": "address"
        }
      ],
      "stateMutability": "view",
      "type": "function"
    },
    {
      "inputs": [],
      "name": "isin",
      "outputs": [
        {
          "internalType": "string",
          "name": "",
          "type": "string"
        }
      ],
      "stateMutability": "view",
      "type": "function"
    },
    {
      "inputs": [],
      "name": "name",
      "outputs": [
        {
          "internalType": "string",
          "name": "",
          "type": "string"
        }
      ],
      "stateMutability": "view",
      "type": "function"
    },
    {
      "inputs": [],
      "name": "symbol",
      "outputs": [
        {
          "internalType": "string",
          "name": "",
          "type": "string"
        }
      ],
      "stateMutability": "view",
      "type": "function"
    },
    {
      "inputs": [],
      "name": "currency",
      "outputs": [
        {
          "internalType": "address",
          "name": "",
          "type": "address"
        }
      ],
      "stateMutability": "view",
      "type": "function"
    },
    {
      "inputs": [],
      "name": "denomination",
      "outputs": [
        {
          "internalType": "uint256",
          "name": "",
          "type": "uint256"
        }
      ],
      "stateMutability": "view",
      "type": "function"
    },
    {
      "inputs": [],
      "name": "issueVolume",
      "outputs": [
        {
          "internalType": "uint256",
          "name": "",
          "type": "uint256"
        }
      ],
      "stateMutability": "view",
      "type": "function"
    },
    {
      "inputs": [],
      "name": "totalSupply",
      "outputs": [
        {
          "internalType": "uint256",
          "name": "",
          "type": "uint256"
        }
      ],
      "stateMutability": "view",
      "type": "function"
    },
    {
      "inputs": [],
      "name": "couponRate",
      "outputs": [
        {
          "internalType": "uint256",
          "name": "",
          "type": "uint256"
        }
      ],
      "stateMutability": "view",
      "type": "function"
    },
    {
      "inputs": [],
      "name": "couponType",
      "outputs": [
        {
          "internalType": "uint8",
          "name": "",
          "type": "uint8"
        }
      ],
      "stateMutability": "view",
      "type": "function"
    },
    {
      "inputs": [],
      "name": "couponFrequency",
      "outputs": [
        {
          "internalType": "uint256",
          "name": "",
          "type": "uint256"
        }
      ],
      "stateMutability": "view",
      "type": "function"
    },
    {
      "inputs": [],
      "name": "issueDate",
      "outputs": [
        {
          "internalType": "uint256",
          "name": "",
          "type": "uint256"
        }
      ],
      "stateMutability": "view",
      "type": "function"
    },
    {
      "inputs": [],
      "name": "maturityDate",
      "outputs": [
        {
          "internalType": "uint256",
          "name": "",
          "type": "uint256"
        }
      ],
      "stateMutability": "view",
      "type": "function"
    },
    {
      "inputs": [
        {
          "internalType": "address",
          "name": "_account",
          "type": "address"
        }
      ],
      "name": "principalOf",
      "outputs": [
        {
          "internalType": "uint256",
          "name": "",
          "type": "uint256"
        }
      ],
      "stateMutability": "view",
      "type": "function"
    },
    {
      "inputs": [
        {
          "internalType": "address",
          "name": "_account",
          "type": "address"
        }
      ],
      "name": "balanceOf",
      "outputs": [
        {
          "internalType": "uint256",
          "name": "",
          "type": "uint256"
        }
      ],
      "stateMutability": "view",
      "type": "function"
    },
    {
      "inputs": [
        {
          "internalType": "address",
          "name": "_owner",
          "type": "address"
        },
        {
          "internalType": "address",
          "name": "_spender",
          "type": "address"
        }
      ],
      "name": "allowance",
      "outputs": [
        {
          "internalType": "uint256",
          "name": "",
          "type": "uint256"
        }
      ],
      "stateMutability": "view",
      "type": "function"
    },
    {
      "inputs": [
        {
          "internalType": "address",
          "name": "_spender",
          "type": "address"
        },
        {
          "internalType": "uint256",
          "name": "_amount",
          "type": "uint256"
        }
      ],
      "name": "approve",
      "outputs": [
        {
          "internalType": "bool",
          "name": "",
          "type": "bool"
        }
      ],
      "stateMutability": "nonpayable",
      "type": "function"
    },
    {
      "inputs": [
        {
          "internalType": "address",
          "name": "_spender",
          "type": "address"
        },
        {
          "internalType": "uint256",
          "name": "_amount",
          "type": "uint256"
        }
      ],
      "name": "decreaseAllowance",
      "outputs": [],
      "stateMutability": "nonpayable",
      "type": "function"
    },
    {
      "inputs": [
        {
          "internalType": "address",
          "name": "_to",
          "type": "address"
        },
        {
          "internalType": "uint256",
          "name": "_amount",
          "type": "uint256"
        },
        {
          "internalType": "bytes",
          "name": "_data",
          "type": "bytes"
        }
      ],
      "name": "transfer",
      "outputs": [
        {
          "internalType": "bool",
          "name": "",
          "type": "bool"
        }
      ],
      "stateMutability": "nonpayable",
      "type": "function"
    },
    {
      "inputs": [
        {
          "internalType": "address",
          "name": "_from",
          "type": "address"
        },
        {
          "internalType": "address",
          "name": "_to",
          "type": "address"
        },
        {
          "internalType": "uint256",
          "name": "_amount",
          "type": "uint256"
        },
        {
          "internalType": "bytes",
          "name": "_data",
          "type": "bytes"
        }
      ],
      "name": "transferFrom",
      "outputs": [
        {
          "internalType": "bool",
          "name": "",
          "type": "bool"
        }
      ],
      "stateMutability": "nonpayable",
      "type": "function"
    }
  ],
  "bytecode": "0x60806040523480156200001157600080fd5b50604051620034b5380380620034b58339818101604052810190620000379190620003e7565b85600490816200004891906200070c565b5084600560006101000a81548173ffffffffffffffffffffffffffffffffffffffff021916908373ffffffffffffffffffffffffffffffffffffffff160217905550836000876040516200009d919062000835565b908152602001604051809103902060000160006101000a81548173ffffffffffffffffffffffffffffffffffffffff021916908373ffffffffffffffffffffffffffffffffffffffff16021790555082600087604051620000ff919062000835565b908152602001604051809103902060010190816200011e91906200070c565b508160008760405162000132919062000835565b908152602001604051809103902060020160006101000a81548173ffffffffffffffffffffffffffffffffffffffff021916908373ffffffffffffffffffffffffffffffffffffffff1602179055508060008760405162000194919062000835565b908152602001604051809103902060030160006101000a81548173ffffffffffffffffffffffffffffffffffffffff021916908373ffffffffffffffffffffffffffffffffffffffff1602179055505050505050506200084e565b6000604051905090565b600080fd5b600080fd5b600080fd5b600080fd5b6000601f19601f8301169050919050565b7f4e487b7100000000000000000000000000000000000000000000000000000000600052604160045260246000fd5b62000258826200020d565b810181811067ffffffffffffffff821117156200027a57620002796200021e565b5b80604052505050565b60006200028f620001ef565b90506200029d82826200024d565b919050565b600067ffffffffffffffff821115620002c057620002bf6200021e565b5b620002cb826200020d565b9050602081019050919050565b60005b83811015620002f8578082015181840152602081019050620002db565b60008484015250505050565b60006200031b6200031584620002a2565b62000283565b9050828152602081018484840111156200033a576200033962000208565b5b62000347848285620002d8565b509392505050565b600082601f83011262000367576200036662000203565b5b81516200037984826020860162000304565b91505092915050565b600073ffffffffffffffffffffffffffffffffffffffff82169050919050565b6000620003af8262000382565b9050919050565b620003c181620003a2565b8114620003cd57600080fd5b50565b600081519050620003e181620003b6565b92915050565b60008060008060008060c08789031215620004075762000406620001f9565b5b600087015167ffffffffffffffff811115620004285762000427620001fe565b5b6200043689828a016200034f565b96505060206200044989828a01620003d0565b95505060406200045c89828a01620003d0565b945050606087015167ffffffffffffffff81111562000480576200047f620001fe565b5b6200048e89828a016200034f565b9350506080620004a189828a01620003d0565b92505060a0620004b489828a01620003d0565b9150509295509295509295565b600081519050919050565b7f4e487b7100000000000000000000000000000000000000000000000000000000600052602260045260246000fd5b600060028204905060018216806200051457607f821691505b6020821081036200052a5762000529620004cc565b5b50919050565b60008190508160005260206000209050919050565b60006020601f8301049050919050565b600082821b905092915050565b600060088302620005947fffffffffffffffffffffffffffffffffffffffffffffffffffffffffffffffff8262000555565b620005a0868362000555565b95508019841693508086168417925050509392505050565b6000819050919050565b6000819050919050565b6000620005ed620005e7620005e184620005b8565b620005c2565b620005b8565b9050919050565b6000819050919050565b6200060983620005cc565b620006216200061882620005f4565b84845462000562565b825550505050565b600090565b6200063862000629565b62000645818484620005fe565b505050565b5b818110156200066d57620006616000826200062e565b6001810190506200064b565b5050565b601f821115620006bc57620006868162000530565b620006918462000545565b81016020851015620006a1578190505b620006b9620006b08562000545565b8301826200064a565b50505b505050565b600082821c905092915050565b6000620006e160001984600802620006c1565b1980831691505092915050565b6000620006fc8383620006ce565b9150826002028217905092915050565b6200071782620004c1565b67ffffffffffffffff8111156200073357620007326200021e565b5b6200073f8254620004fb565b6200074c82828562000671565b600060209050601f8311600181146200078457600084156200076f578287015190505b6200077b8582620006ee565b865550620007eb565b601f198416620007948662000530565b60005b82811015620007be5784890151825560018201915060208501945060208101905062000797565b86831015620007de5784890151620007da601f891682620006ce565b8355505b6001600288020188555050505b505050505050565b600081905092915050565b60006200080b82620004c1565b620008178185620007f3565b935062000829818560208601620002d8565b80840191505092915050565b6000620008438284620007fe565b915081905092915050565b612c57806200085e6000396000f3fe608060405234801561001057600080fd5b50600436106101585760003560e01c806382d5a60d116100c3578063be45fd621161007c578063be45fd62146103f0578063c0bcb26f14610420578063c16aa7791461043e578063d59624b41461045c578063dd62ed3e1461047a578063e5a6b10f146104aa57610158565b806382d5a60d1461032c5780638bca6d161461034a5780638d1343e01461036857806395d89b4114610386578063a457c2d7146103a4578063ab67aa58146103c057610158565b806346e8de211161011557806346e8de21146102385780635eb0b3d01461027257806361e20a1c1461029057806370a08231146102c0578063710d3329146102f057806373975df11461030e57610158565b8063045017ce1461015d57806306fdde031461017b578063095ea7b31461019957806318160ddd146101c9578063363cc427146101e757806341d6a58214610205575b600080fd5b6101656104c8565b6040516101729190611e89565b60405180910390f35b6101836104ff565b6040516101909190611f34565b60405180910390f35b6101b360048036038101906101ae9190611ffe565b6105b1565b6040516101c09190612059565b60405180910390f35b6101d16106d0565b6040516101de9190612083565b60405180910390f35b6101ef610727565b6040516101fc91906120ad565b60405180910390f35b61021f600480360381019061021a91906121fd565b61074d565b60405161022f9493929190612246565b60405180910390f35b610252600480360381019061024d91906121fd565b61087b565b6040516102699b9a99989796959493929190612292565b60405180910390f35b61027a610ab0565b6040516102879190612083565b60405180910390f35b6102aa60048036038101906102a59190612352565b610ada565b6040516102b79190612083565b60405180910390f35b6102da60048036038101906102d59190612352565b610b23565b6040516102e79190612083565b60405180910390f35b6102f8610b99565b6040516103059190612083565b60405180910390f35b610316610bc3565b6040516103239190611f34565b60405180910390f35b610334610c51565b6040516103419190611f34565b60405180910390f35b610352610d03565b60405161035f9190612083565b60405180910390f35b610370610d2d565b60405161037d9190612083565b60405180910390f35b61038e610d57565b60405161039b9190611f34565b60405180910390f35b6103be60048036038101906103b99190611ffe565b610e09565b005b6103da60048036038101906103d591906123df565b610e1e565b6040516103e79190612059565b60405180910390f35b61040a60048036038101906104059190612467565b610f4d565b6040516104179190612059565b60405180910390f35b610428611070565b6040516104359190612083565b60405180910390f35b61044661109a565b6040516104539190612552565b60405180910390f35b6104646110ad565b6040516104719190612083565b60405180910390f35b610494600480360381019061048f919061256d565b6110d7565b6040516104a19190612083565b60405180910390f35b6104b261115e565b6040516104bf91906120ad565b60405180910390f35b6000600160046040516104db91906126b0565b908152602001604051809103902060070160009054906101000a900460ff16905090565b60606001600460405161051291906126b0565b9081526020016040518091039020600101805461052e906125dc565b80601f016020809104026020016040519081016040528092919081815260200182805461055a906125dc565b80156105a75780601f1061057c576101008083540402835291602001916105a7565b820191906000526020600020905b81548152906001019060200180831161058a57829003601f168201915b5050505050905090565b60008260008060046040516105c691906126b0565b908152602001604051809103902060030160009054906101000a900473ffffffffffffffffffffffffffffffffffffffff1690508073ffffffffffffffffffffffffffffffffffffffff1663b9209e33836040518263ffffffff1660e01b815260040161063391906120ad565b602060405180830381865afa158015610650573d6000803e3d6000fd5b505050506040513d601f19601f8201168201806040525081019061067491906126f3565b6106b3576040517f08c379a00000000000000000000000000000000000000000000000000000000081526004016106aa9061276c565b60405180910390fd5b60003290506106c38187876111a8565b6001935050505092915050565b6000600160046040516106e391906126b0565b9081526020016040518091039020600401546001600460405161070691906126b0565b90815260200160405180910390206005015461072291906127ea565b905090565b600560009054906101000a900473ffffffffffffffffffffffffffffffffffffffff1681565b6000818051602081018201805184825260208301602085012081835280955050505050506000915090508060000160009054906101000a900473ffffffffffffffffffffffffffffffffffffffff16908060010180546107ac906125dc565b80601f01602080910402602001604051908101604052809291908181526020018280546107d8906125dc565b80156108255780601f106107fa57610100808354040283529160200191610825565b820191906000526020600020905b81548152906001019060200180831161080857829003601f168201915b5050505050908060020160009054906101000a900473ffffffffffffffffffffffffffffffffffffffff16908060030160009054906101000a900473ffffffffffffffffffffffffffffffffffffffff16905084565b6001818051602081018201805184825260208301602085012081835280955050505050506000915090508060000180546108b4906125dc565b80601f01602080910402602001604051908101604052809291908181526020018280546108e0906125dc565b801561092d5780601f106109025761010080835404028352916020019161092d565b820191906000526020600020905b81548152906001019060200180831161091057829003601f168201915b505050505090806001018054610942906125dc565b80601f016020809104026020016040519081016040528092919081815260200182805461096e906125dc565b80156109bb5780601f10610990576101008083540402835291602001916109bb565b820191906000526020600020905b81548152906001019060200180831161099e57829003601f168201915b5050505050908060020180546109d0906125dc565b80601f01602080910402602001604051908101604052809291908181526020018280546109fc906125dc565b8015610a495780601f10610a1e57610100808354040283529160200191610a49565b820191906000526020600020905b815481529060010190602001808311610a2c57829003601f168201915b5050505050908060030160009054906101000a900473ffffffffffffffffffffffffffffffffffffffff16908060040154908060050154908060060154908060070160009054906101000a900460ff169080600801549080600901549080600a015490508b565b600060016004604051610ac391906126b0565b908152602001604051809103902060080154905090565b6000600260008373ffffffffffffffffffffffffffffffffffffffff1673ffffffffffffffffffffffffffffffffffffffff168152602001908152602001600020549050919050565b600060016004604051610b3691906126b0565b908152602001604051809103902060040154600260008473ffffffffffffffffffffffffffffffffffffffff1673ffffffffffffffffffffffffffffffffffffffff16815260200190815260200160002054610b9291906127ea565b9050919050565b600060016004604051610bac91906126b0565b908152602001604051809103902060050154905090565b60048054610bd0906125dc565b80601f0160208091040260200160405190810160405280929190818152602001828054610bfc906125dc565b8015610c495780601f10610c1e57610100808354040283529160200191610c49565b820191906000526020600020905b815481529060010190602001808311610c2c57829003601f168201915b505050505081565b606060016004604051610c6491906126b0565b90815260200160405180910390206000018054610c80906125dc565b80601f0160208091040260200160405190810160405280929190818152602001828054610cac906125dc565b8015610cf95780601f10610cce57610100808354040283529160200191610cf9565b820191906000526020600020905b815481529060010190602001808311610cdc57829003601f168201915b5050505050905090565b600060016004604051610d1691906126b0565b908152602001604051809103902060040154905090565b600060016004604051610d4091906126b0565b908152602001604051809103902060090154905090565b606060016004604051610d6a91906126b0565b90815260200160405180910390206002018054610d86906125dc565b80601f0160208091040260200160405190810160405280929190818152602001828054610db2906125dc565b8015610dff5780601f10610dd457610100808354040283529160200191610dff565b820191906000526020600020905b815481529060010190602001808311610de257829003601f168201915b5050505050905090565b6000329050610e1981848461159b565b505050565b6000846000806004604051610e3391906126b0565b908152602001604051809103902060030160009054906101000a900473ffffffffffffffffffffffffffffffffffffffff1690508073ffffffffffffffffffffffffffffffffffffffff1663b9209e33836040518263ffffffff1660e01b8152600401610ea091906120ad565b602060405180830381865afa158015610ebd573d6000803e3d6000fd5b505050506040513d601f19601f82011682018060405250810190610ee191906126f3565b610f20576040517f08c379a0000000000000000000000000000000000000000000000000000000008152600401610f179061276c565b60405180910390fd5b6000329050610f30898289611938565b610f3d8989898989611a85565b6001935050505095945050505050565b6000846000806004604051610f6291906126b0565b908152602001604051809103902060030160009054906101000a900473ffffffffffffffffffffffffffffffffffffffff1690508073ffffffffffffffffffffffffffffffffffffffff1663b9209e33836040518263ffffffff1660e01b8152600401610fcf91906120ad565b602060405180830381865afa158015610fec573d6000803e3d6000fd5b505050506040513d601f19601f8201168201806040525081019061101091906126f3565b61104f576040517f08c379a00000000000000000000000000000000000000000000000000000000081526004016110469061276c565b60405180910390fd5b60003290506110618189898989611a85565b60019350505050949350505050565b60006001600460405161108391906126b0565b908152602001604051809103902060060154905090565b600560149054906101000a900460ff1681565b6000600160046040516110c091906126b0565b9081526020016040518091039020600a0154905090565b6000600360008473ffffffffffffffffffffffffffffffffffffffff1673ffffffffffffffffffffffffffffffffffffffff16815260200190815260200160002060008373ffffffffffffffffffffffffffffffffffffffff1673ffffffffffffffffffffffffffffffffffffffff16815260200190815260200160002054905092915050565b60006001600460405161117191906126b0565b908152602001604051809103902060030160009054906101000a900473ffffffffffffffffffffffffffffffffffffffff16905090565b600073ffffffffffffffffffffffffffffffffffffffff168373ffffffffffffffffffffffffffffffffffffffff1603611217576040517f08c379a000000000000000000000000000000000000000000000000000000000815260040161120e90612867565b60405180910390fd5b600073ffffffffffffffffffffffffffffffffffffffff168273ffffffffffffffffffffffffffffffffffffffff1603611286576040517f08c379a000000000000000000000000000000000000000000000000000000000815260040161127d906128d3565b60405180910390fd5b600081116112c9576040517f08c379a00000000000000000000000000000000000000000000000000000000081526004016112c09061293f565b60405180910390fd5b6000600260008573ffffffffffffffffffffffffffffffffffffffff1673ffffffffffffffffffffffffffffffffffffffff1681526020019081526020016000205490506000600360008673ffffffffffffffffffffffffffffffffffffffff1673ffffffffffffffffffffffffffffffffffffffff16815260200190815260200160002060008573ffffffffffffffffffffffffffffffffffffffff1673ffffffffffffffffffffffffffffffffffffffff1681526020019081526020016000205490506000600160046040516113a191906126b0565b90815260200160405180910390206004015490506000600160046040516113c891906126b0565b9081526020016040518091039020600a01549050600082856113ea91906127ea565b905081421061142e576040517f08c379a0000000000000000000000000000000000000000000000000000000008152600401611425906129ab565b60405180910390fd5b80861115611471576040517f08c379a000000000000000000000000000000000000000000000000000000000815260040161146890612a17565b60405180910390fd5b60008384886114809190612a37565b61148a9190612a79565b146114ca576040517f08c379a00000000000000000000000000000000000000000000000000000000081526004016114c19061293f565b60405180910390fd5b85846114d69190612aaa565b600360008a73ffffffffffffffffffffffffffffffffffffffff1673ffffffffffffffffffffffffffffffffffffffff16815260200190815260200160002060008973ffffffffffffffffffffffffffffffffffffffff1673ffffffffffffffffffffffffffffffffffffffff168152602001908152602001600020819055507f8c5be1e5ebec7d5bd14f71427d1e84f3dd0314c0f7b2291e5b200ac8c7c3b92588888860405161158993929190612ade565b60405180910390a15050505050505050565b600073ffffffffffffffffffffffffffffffffffffffff168373ffffffffffffffffffffffffffffffffffffffff160361160a576040517f08c379a000000000000000000000000000000000000000000000000000000000815260040161160190612867565b60405180910390fd5b600073ffffffffffffffffffffffffffffffffffffffff168273ffffffffffffffffffffffffffffffffffffffff1603611679576040517f08c379a0000000000000000000000000000000000000000000000000000000008152600401611670906128d3565b60405180910390fd5b600081116116bc576040517f08c379a00000000000000000000000000000000000000000000000000000000081526004016116b39061293f565b60405180910390fd5b6000600360008573ffffffffffffffffffffffffffffffffffffffff1673ffffffffffffffffffffffffffffffffffffffff16815260200190815260200160002060008473ffffffffffffffffffffffffffffffffffffffff1673ffffffffffffffffffffffffffffffffffffffff16815260200190815260200160002054905060006001600460405161175091906126b0565b908152602001604051809103902060040154905060006001600460405161177791906126b0565b9081526020016040518091039020600a015490508042106117cd576040517f08c379a00000000000000000000000000000000000000000000000000000000081526004016117c4906129ab565b60405180910390fd5b82841115611810576040517f08c379a000000000000000000000000000000000000000000000000000000000815260040161180790612b61565b60405180910390fd5b600082838661181f9190612a37565b6118299190612a79565b14611869576040517f08c379a00000000000000000000000000000000000000000000000000000000081526004016118609061293f565b60405180910390fd5b83836118759190612b81565b600360008873ffffffffffffffffffffffffffffffffffffffff1673ffffffffffffffffffffffffffffffffffffffff16815260200190815260200160002060008773ffffffffffffffffffffffffffffffffffffffff1673ffffffffffffffffffffffffffffffffffffffff168152602001908152602001600020819055507f8c5be1e5ebec7d5bd14f71427d1e84f3dd0314c0f7b2291e5b200ac8c7c3b92586868660405161192893929190612ade565b60405180910390a1505050505050565b6000600360008573ffffffffffffffffffffffffffffffffffffffff1673ffffffffffffffffffffffffffffffffffffffff16815260200190815260200160002060008473ffffffffffffffffffffffffffffffffffffffff1673ffffffffffffffffffffffffffffffffffffffff168152602001908152602001600020549050808211156119fc576040517f08c379a00000000000000000000000000000000000000000000000000000000081526004016119f390612b61565b60405180910390fd5b818103600360008673ffffffffffffffffffffffffffffffffffffffff1673ffffffffffffffffffffffffffffffffffffffff16815260200190815260200160002060008573ffffffffffffffffffffffffffffffffffffffff1673ffffffffffffffffffffffffffffffffffffffff1681526020019081526020016000208190555050505050565b600073ffffffffffffffffffffffffffffffffffffffff168573ffffffffffffffffffffffffffffffffffffffff1603611af4576040517f08c379a0000000000000000000000000000000000000000000000000000000008152600401611aeb90612867565b60405180910390fd5b600073ffffffffffffffffffffffffffffffffffffffff168473ffffffffffffffffffffffffffffffffffffffff1603611b63576040517f08c379a0000000000000000000000000000000000000000000000000000000008152600401611b5a90612c01565b60405180910390fd5b60008311611ba6576040517f08c379a0000000000000000000000000000000000000000000000000000000008152600401611b9d9061293f565b60405180910390fd5b6000600260008773ffffffffffffffffffffffffffffffffffffffff1673ffffffffffffffffffffffffffffffffffffffff168152602001908152602001600020549050600060016004604051611bfd91906126b0565b9081526020016040518091039020600401549050600060016004604051611c2491906126b0565b9081526020016040518091039020600a0154905060008284611c4691906127ea565b9050814210611c8a576040517f08c379a0000000000000000000000000000000000000000000000000000000008152600401611c81906129ab565b60405180910390fd5b80871115611ccd576040517f08c379a0000000000000000000000000000000000000000000000000000000008152600401611cc490612a17565b60405180910390fd5b6000838489611cdc9190612a37565b611ce69190612a79565b14611d26576040517f08c379a0000000000000000000000000000000000000000000000000000000008152600401611d1d9061293f565b60405180910390fd5b611d338989898989611e5f565b6000600260008a73ffffffffffffffffffffffffffffffffffffffff1673ffffffffffffffffffffffffffffffffffffffff16815260200190815260200160002054905060008486029050808603600260008d73ffffffffffffffffffffffffffffffffffffffff1673ffffffffffffffffffffffffffffffffffffffff16815260200190815260200160002081905550808201600260008c73ffffffffffffffffffffffffffffffffffffffff1673ffffffffffffffffffffffffffffffffffffffff1681526020019081526020016000208190555050611e188a8a8a8a8a611e66565b7fddf252ad1be2c89b69c2b068fc378daa952ba7f163c4a11628f55a4df523b3ef8a8a8a604051611e4b93929190612ade565b60405180910390a150505050505050505050565b5050505050565b5050505050565b600060ff82169050919050565b611e8381611e6d565b82525050565b6000602082019050611e9e6000830184611e7a565b92915050565b600081519050919050565b600082825260208201905092915050565b60005b83811015611ede578082015181840152602081019050611ec3565b60008484015250505050565b6000601f19601f8301169050919050565b6000611f0682611ea4565b611f108185611eaf565b9350611f20818560208601611ec0565b611f2981611eea565b840191505092915050565b60006020820190508181036000830152611f4e8184611efb565b905092915050565b6000604051905090565b600080fd5b600080fd5b600073ffffffffffffffffffffffffffffffffffffffff82169050919050565b6000611f9582611f6a565b9050919050565b611fa581611f8a565b8114611fb057600080fd5b50565b600081359050611fc281611f9c565b92915050565b6000819050919050565b611fdb81611fc8565b8114611fe657600080fd5b50565b600081359050611ff881611fd2565b92915050565b6000806040838503121561201557612014611f60565b5b600061202385828601611fb3565b925050602061203485828601611fe9565b9150509250929050565b60008115159050919050565b6120538161203e565b82525050565b600060208201905061206e600083018461204a565b92915050565b61207d81611fc8565b82525050565b60006020820190506120986000830184612074565b92915050565b6120a781611f8a565b82525050565b60006020820190506120c2600083018461209e565b92915050565b600080fd5b600080fd5b7f4e487b7100000000000000000000000000000000000000000000000000000000600052604160045260246000fd5b61210a82611eea565b810181811067ffffffffffffffff82111715612129576121286120d2565b5b80604052505050565b600061213c611f56565b90506121488282612101565b919050565b600067ffffffffffffffff821115612168576121676120d2565b5b61217182611eea565b9050602081019050919050565b82818337600083830152505050565b60006121a061219b8461214d565b612132565b9050828152602081018484840111156121bc576121bb6120cd565b5b6121c784828561217e565b509392505050565b600082601f8301126121e4576121e36120c8565b5b81356121f484826020860161218d565b91505092915050565b60006020828403121561221357612212611f60565b5b600082013567ffffffffffffffff81111561223157612230611f65565b5b61223d848285016121cf565b91505092915050565b600060808201905061225b600083018761209e565b818103602083015261226d8186611efb565b905061227c604083018561209e565b612289606083018461209e565b95945050505050565b60006101608201905081810360008301526122ad818e611efb565b905081810360208301526122c1818d611efb565b905081810360408301526122d5818c611efb565b90506122e4606083018b61209e565b6122f1608083018a612074565b6122fe60a0830189612074565b61230b60c0830188612074565b61231860e0830187611e7a565b612326610100830186612074565b612334610120830185612074565b612342610140830184612074565b9c9b505050505050505050505050565b60006020828403121561236857612367611f60565b5b600061237684828501611fb3565b91505092915050565b600080fd5b600080fd5b60008083601f84011261239f5761239e6120c8565b5b8235905067ffffffffffffffff8111156123bc576123bb61237f565b5b6020830191508360018202830111156123d8576123d7612384565b5b9250929050565b6000806000806000608086880312156123fb576123fa611f60565b5b600061240988828901611fb3565b955050602061241a88828901611fb3565b945050604061242b88828901611fe9565b935050606086013567ffffffffffffffff81111561244c5761244b611f65565b5b61245888828901612389565b92509250509295509295909350565b6000806000806060858703121561248157612480611f60565b5b600061248f87828801611fb3565b94505060206124a087828801611fe9565b935050604085013567ffffffffffffffff8111156124c1576124c0611f65565b5b6124cd87828801612389565b925092505092959194509250565b7f4e487b7100000000000000000000000000000000000000000000000000000000600052602160045260246000fd5b6004811061251b5761251a6124db565b5b50565b600081905061252c8261250a565b919050565b600061253c8261251e565b9050919050565b61254c81612531565b82525050565b60006020820190506125676000830184612543565b92915050565b6000806040838503121561258457612583611f60565b5b600061259285828601611fb3565b92505060206125a385828601611fb3565b9150509250929050565b7f4e487b7100000000000000000000000000000000000000000000000000000000600052602260045260246000fd5b600060028204905060018216806125f457607f821691505b602082108103612607576126066125ad565b5b50919050565b600081905092915050565b60008190508160005260206000209050919050565b6000815461263a816125dc565b612644818661260d565b9450600182166000811461265f5760018114612674576126a7565b60ff19831686528115158202860193506126a7565b61267d85612618565b60005b8381101561269f57815481890152600182019150602081019050612680565b838801955050505b50505092915050565b60006126bc828461262d565b915081905092915050565b6126d08161203e565b81146126db57600080fd5b50565b6000815190506126ed816126c7565b92915050565b60006020828403121561270957612708611f60565b5b6000612717848285016126de565b91505092915050565b7f4143434f554e545f4e4f545f414150524f564544000000000000000000000000600082015250565b6000612756601483611eaf565b915061276182612720565b602082019050919050565b6000602082019050818103600083015261278581612749565b9050919050565b7f4e487b7100000000000000000000000000000000000000000000000000000000600052601260045260246000fd5b7f4e487b7100000000000000000000000000000000000000000000000000000000600052601160045260246000fd5b60006127f582611fc8565b915061280083611fc8565b9250826128105761280f61278c565b5b828204905092915050565b7f494e56414c49445f414444524553530000000000000000000000000000000000600082015250565b6000612851600f83611eaf565b915061285c8261281b565b602082019050919050565b6000602082019050818103600083015261288081612844565b9050919050565b7f494e56414c49445f5350454e4445525f41444452455353000000000000000000600082015250565b60006128bd601783611eaf565b91506128c882612887565b602082019050919050565b600060208201905081810360008301526128ec816128b0565b9050919050565b7f494e56414c49445f414d4f554e54000000000000000000000000000000000000600082015250565b6000612929600e83611eaf565b9150612934826128f3565b602082019050919050565b600060208201905081810360008301526129588161291c565b9050919050565b7f424f4e44535f4d41545552454400000000000000000000000000000000000000600082015250565b6000612995600d83611eaf565b91506129a08261295f565b602082019050919050565b600060208201905081810360008301526129c481612988565b9050919050565b7f494e53554646494349454e545f42414c414e4345000000000000000000000000600082015250565b6000612a01601483611eaf565b9150612a0c826129cb565b602082019050919050565b60006020820190508181036000830152612a30816129f4565b9050919050565b6000612a4282611fc8565b9150612a4d83611fc8565b9250828202612a5b81611fc8565b91508282048414831517612a7257612a716127bb565b5b5092915050565b6000612a8482611fc8565b9150612a8f83611fc8565b925082612a9f57612a9e61278c565b5b828206905092915050565b6000612ab582611fc8565b9150612ac083611fc8565b9250828201905080821115612ad857612ad76127bb565b5b92915050565b6000606082019050612af3600083018661209e565b612b00602083018561209e565b612b0d6040830184612074565b949350505050565b7f494e53554646494349454e545f414c4c4f57414e434500000000000000000000600082015250565b6000612b4b601683611eaf565b9150612b5682612b15565b602082019050919050565b60006020820190508181036000830152612b7a81612b3e565b9050919050565b6000612b8c82611fc8565b9150612b9783611fc8565b9250828203905081811115612baf57612bae6127bb565b5b92915050565b7f494e56414c49445f524543495049454e545f4144445245535300000000000000600082015250565b6000612beb601983611eaf565b9150612bf682612bb5565b602082019050919050565b60006020820190508181036000830152612c1a81612bde565b905091905056fea2646970667358221220e44bff013e2c45424b0486f7dc105c38df8515a7834c07b06e8c1e0b554d6c5164736f6c63430008130033",
  "immutableReferences": {},
  "source": "// SPDX-License-Identifier: CC0-1.0\npragma solidity ^0.8.0;\n\nimport \"./IERC7092.sol\";\nimport \"./BondStorage.sol\";\n\ncontract BondTopos is IERC7092, BondStorage {\n    constructor(\n        string memory _dealID,\n        address _bondManager,\n        address _issuerWalletAddress,\n        string memory _countryOfIssuance,\n        address _bondCallContractAddress,\n        address _identiRegistryContract\n    ) {\n        dealID = _dealID;\n        bondManager = _bondManager;\n        issueData[_dealID].issuerWalletAddress = _issuerWalletAddress;\n        issueData[_dealID].countryOfIssuance = _countryOfIssuance;\n        issueData[_dealID].bondCallContract = _bondCallContractAddress;\n        issueData[_dealID].identyRegistryContract = _identiRegistryContract;\n    }\n\n    function isin() external view returns(string memory) {\n        return bonds[dealID].isin;\n    }\n\n    function name() external view returns(string memory) {\n        return bonds[dealID].name;\n    }\n\n    function symbol() external view returns(string memory) {\n        return bonds[dealID].symbol;\n    }\n\n    function currency() external view returns(address) {\n        return bonds[dealID].currency;\n    }\n\n    function denomination() external view returns(uint256) {\n        return bonds[dealID].denomination;\n    }\n\n    function issueVolume() external view returns(uint256) {\n        return bonds[dealID].issueVolume;\n    }\n\n    function totalSupply() external view returns(uint256) {\n        return bonds[dealID].issueVolume / bonds[dealID].denomination;\n    }\n\n    function couponRate() external view returns(uint256) {\n        return bonds[dealID].couponRate;\n    }\n\n    function couponType() external view returns(uint8) {\n        return bonds[dealID].couponType;\n    }\n\n    function couponFrequency() external view returns(uint256) {\n        return bonds[dealID].couponFrequency;\n    }\n\n    function issueDate() external view returns(uint256) {\n        return bonds[dealID].issueDate;\n    }\n\n    function maturityDate() external view returns(uint256) {\n        return bonds[dealID].maturityDate;\n    }\n\n    function principalOf(address _account) external view returns(uint256) {\n        return principals[_account];\n    }\n\n    function balanceOf(address _account) external view returns(uint256) {\n        return principals[_account] / bonds[dealID].denomination;\n    }\n\n    function allowance(address _owner, address _spender) external view returns(uint256) {\n        return approvals[_owner][_spender];\n    }\n\n    function approve(\n        address _spender,\n        uint256 _amount\n    ) external mustBeApproved(_spender) returns(bool) {\n        address _owner = tx.origin;\n\n        _approve(_owner, _spender, _amount);\n\n        return true;\n    }\n\n    function decreaseAllowance(\n        address _spender,\n        uint256 _amount\n    ) external {\n        address _owner = tx.origin;\n\n        _decreaseAllowance(_owner, _spender, _amount);\n    }\n\n    function transfer(\n        address _to,\n        uint256 _amount,\n        bytes calldata _data\n    ) external mustBeApproved(_to) returns(bool) {\n        address _from = tx.origin;\n\n        _transfer(_from, _to, _amount, _data);\n\n        return true;\n    }\n\n    function transferFrom(\n        address _from,\n        address _to,\n        uint256 _amount,\n        bytes calldata _data\n    ) external mustBeApproved(_to) returns(bool) {\n        address _spender = tx.origin;\n\n        _spendAllowance(_from, _spender, _amount);\n        _transfer(_from, _to, _amount, _data);\n\n        return true;\n    }\n\n    function _approve(\n        address _owner,\n        address _spender,\n        uint256 _amount\n    ) internal virtual {\n        require(_owner != address(0), \"INVALID_ADDRESS\");\n        require(_spender != address(0), \"INVALID_SPENDER_ADDRESS\");\n        require(_amount > 0, \"INVALID_AMOUNT\");\n\n        uint256 principal = principals[_owner];\n        uint256 approval = approvals[_owner][_spender];\n        uint256 _denomination = bonds[dealID].denomination;\n        uint256 _maturityDate = bonds[dealID].maturityDate;\n        uint256 balance = principal / _denomination;\n\n        require(block.timestamp < _maturityDate, \"BONDS_MATURED\");\n        require(_amount <= balance, \"INSUFFICIENT_BALANCE\");\n        require((_amount * _denomination) % _denomination == 0, \"INVALID_AMOUNT\");\n\n        approvals[_owner][_spender] = approval + _amount;\n\n        emit Approval(_owner, _spender, _amount);\n    }\n\n    function _decreaseAllowance(\n        address _owner,\n        address _spender,\n        uint256 _amount\n    ) internal virtual {\n        require(_owner != address(0), \"INVALID_ADDRESS\");\n        require(_spender != address(0), \"INVALID_SPENDER_ADDRESS\");\n        require(_amount > 0, \"INVALID_AMOUNT\");\n\n        uint256 approval = approvals[_owner][_spender];\n        uint256 _denomination = bonds[dealID].denomination;\n        uint256 _maturityDate = bonds[dealID].maturityDate;\n\n        require(block.timestamp < _maturityDate, \"BONDS_MATURED\");\n        require(_amount <= approval, \"INSUFFICIENT_ALLOWANCE\");\n        require((_amount * _denomination) % _denomination == 0, \"INVALID_AMOUNT\");\n\n        approvals[_owner][_spender] = approval - _amount;\n\n        emit Approval(_owner, _spender, _amount);\n    }\n\n    function _transfer(\n        address _from,\n        address _to,\n        uint256 _amount,\n        bytes calldata _data\n    ) internal virtual {\n        require(_from != address(0), \"INVALID_ADDRESS\");\n        require(_to != address(0), \"INVALID_RECIPIENT_ADDRESS\");\n        require(_amount > 0, \"INVALID_AMOUNT\");\n\n        uint256 principal = principals[_from];\n        uint256 _denomination = bonds[dealID].denomination;\n        uint256 _maturityDate = bonds[dealID].maturityDate;\n        uint256 balance = principal / _denomination;\n\n        require(block.timestamp < _maturityDate, \"BONDS_MATURED\");\n        require(_amount <= balance, \"INSUFFICIENT_BALANCE\");\n        require((_amount * _denomination) % _denomination == 0, \"INVALID_AMOUNT\");\n\n        _beforeBondTransfer(_from, _to, _amount, _data);\n\n        uint256 principalTo = principals[_to];\n        unchecked {\n            uint256 principalToTransfer = principal * _denomination;\n\n            principals[_from] = principal - principalToTransfer;\n            principals[_to] = principalTo + principalToTransfer;\n        }\n\n        _afterBondTransfer(_from, _to, _amount, _data);\n\n        emit Transfer(_from, _to, _amount);\n    }\n\n    function _spendAllowance(\n        address _from,\n        address _spender,\n        uint256 _amount\n    ) internal virtual {\n        uint256 currentApproval = approvals[_from][_spender];\n        require(_amount <= currentApproval, \"INSUFFICIENT_ALLOWANCE\");\n\n        unchecked {\n            approvals[_from][_spender] = currentApproval - _amount;\n        }\n    }\n\n    function _beforeBondTransfer(address _from, address _to, uint256 _amount, bytes calldata _data) internal virtual {}\n\n    function _afterBondTransfer(address _from, address _to, uint256 _amount, bytes calldata _data) internal virtual {}\n}",
  "sourcePath": "/Users/sam/Documents/Blockchain/Topos/ToposGrant/T-Grant/contracts/BondTopos.sol",
  "compiler": {
    "name": "solc",
    "version": "0.8.19+commit.7dd6d404.Emscripten.clang"
  },
  "schemaVersion": "3.4.9",
  "updatedAt": "2023-11-04T15:33:56.404Z",
  "devdoc": {
    "events": {
      "Approval(address,address,uint256)": {
        "params": {
          "_amount": "amount of bond tokens allowed by _owner to be spent by `_spender`        Or amount of bond tokens to decrease allowance from `_spender`",
          "_owner": "bondholder account",
          "_spender": "the account to be allowed to spend bonds"
        }
      },
      "Transfer(address,address,uint256)": {
        "params": {
          "_amount": "amount of bond tokens to be transferred",
          "_from": "bondholder account",
          "_to": "account to transfer bonds to"
        }
      }
    },
    "kind": "dev",
    "methods": {
      "allowance(address,address)": {
        "params": {
          "_owner": "the bondholder address",
          "_spender": "the address that has been authorized by the bondholder"
        }
      },
      "approve(address,uint256)": {
        "params": {
          "_amount": "amount of bond tokens to approve",
          "_spender": "the account to be authorized by the bondholder"
        }
      },
      "decreaseAllowance(address,uint256)": {
        "params": {
          "_amount": "amount of bond tokens to remove from allowance",
          "_spender": "the address to be authorized by the bondholder"
        }
      },
      "principalOf(address)": {
        "params": {
          "_account": "account address"
        }
      },
      "transfer(address,uint256,bytes)": {
        "params": {
          "_amount": "amount of bond tokens to transfer",
          "_data": "additional information provided by the token holder",
          "_to": "the address to send bonds to"
        }
      },
      "transferFrom(address,address,uint256,bytes)": {
        "params": {
          "_amount": "amount of bond tokens to transfer.",
          "_data": "additional information provided by the token holder",
          "_from": "the bondholder address",
          "_to": "the address to transfer bonds to"
        }
      }
    },
    "version": 1
  },
  "userdoc": {
    "events": {
      "Approval(address,address,uint256)": {
        "notice": "MUST be emitted when an account is approved to spend tokens or when the allowance is decreased"
      },
      "Transfer(address,address,uint256)": {
        "notice": "MUST be emitted when bond tokens are transferred, issued or redeemed, with the exception being during contract creation"
      }
    },
    "kind": "user",
    "methods": {
      "allowance(address,address)": {
        "notice": "Returns the number of tokens that the `_spender` account has been authorized by the `_owner` to manage"
      },
      "approve(address,uint256)": {
        "notice": "Authorizes `_spender` account to manage  a specified `_amount`of the bondholder's tokens"
      },
      "couponFrequency()": {
        "notice": "Returns the coupon frequency, i.e. the number of times coupons are paid in a year. OPTIONAL - interfaces and other contracts MUST NOT expect these values to be present. The method is used to improve usability."
      },
      "couponRate()": {
        "notice": "Returns the bond interest rate. It is RECOMMENDED to express the interest rate in basis points (bps).         1 basis point = 0.01% = 0.0001         ex: if interest rate = 5%, then coupon() => 500 basis points"
      },
      "couponType()": {
        "notice": "Returns the coupon type         For example, 0 can denote Zero coupon, 1 can denote Fixed Rate, 2 can denote Floating Rate, and so on OPTIONAL - interfaces and other contracts MUST NOT expect these values to be present. The method is used to improve usability."
      },
      "currency()": {
        "notice": "Returns the bond currency. This is the contract address of the token used to make payments and return the bond principal"
      },
      "decreaseAllowance(address,uint256)": {
        "notice": "Decreases the allowance granted to `_spender` by `_amount`"
      },
      "denomination()": {
        "notice": "Returns the bond denomination. This is the minimum amount in which the bonds may be issued. It MUST be expressed in units of the principal currency.         ex: If the denomination is set at 1,000, and the currency is USDC, then the bond denomination is equivalent to 1,000 USDC."
      },
      "isin()": {
        "notice": "Returns the bond isin"
      },
      "issueDate()": {
        "notice": "Returns the date when bonds were issued to investors. This is a Unix Timestamp similar the one returned by block.timestamp"
      },
      "issueVolume()": {
        "notice": "Returns the issue volume, which represents the total debt amount. It is RECOMMENDED to express the issue volume in terms of the denomination unit."
      },
      "maturityDate()": {
        "notice": "Returns the bond maturity date, i.e, the date when the principal is repaid. This is a Unix Timestamp similar the one returned by block.timestamp         The maturity date MUST be greater than the issue date"
      },
      "name()": {
        "notice": "Returns the bond name"
      },
      "principalOf(address)": {
        "notice": "Returns the principal of an account. It is RECOMMENDED to express the principal in the bond currency unit (e.g., USDC, DAI, etc)"
      },
      "symbol()": {
        "notice": "Returns the bond symbol         It is RECOMMENDED to represent the symbol as a combination of the issuer issuer's shorter name and the maturity date         Ex: If a company named Green Energy issues bonds that will mature on october 25, 2030, the bond symbol could be `GE30` or `GE2030` or `GE102530`"
      },
      "transfer(address,uint256,bytes)": {
        "notice": "Transfers `_amount` bonds to the address `_to`. Additionally, this method enables to attach data to the token being transferred"
      },
      "transferFrom(address,address,uint256,bytes)": {
        "notice": "Transfers `_amount` bonds from an account that has previously authorized the caller through the `approve` function         This methods also allows to attach data to the token that is being transferred"
      }
    },
    "version": 1
  }
}