{
  "contractName": "IssuersFund",
  "abi": [
    {
      "inputs": [
        {
          "internalType": "address",
          "name": "_bankContract",
          "type": "address"
        }
      ],
      "stateMutability": "nonpayable",
      "type": "constructor"
    },
    {
      "inputs": [],
      "name": "bankContract",
      "outputs": [
        {
          "internalType": "address",
          "name": "",
          "type": "address"
        }
      ],
      "stateMutability": "view",
      "type": "function"
    },
    {
      "inputs": [
        {
          "internalType": "string",
          "name": "",
          "type": "string"
        }
      ],
      "name": "totalAmount",
      "outputs": [
        {
          "internalType": "uint256",
          "name": "",
          "type": "uint256"
        }
      ],
      "stateMutability": "view",
      "type": "function"
    },
    {
      "inputs": [
        {
          "internalType": "string",
          "name": "_dealID",
          "type": "string"
        },
        {
          "internalType": "uint256",
          "name": "_amount",
          "type": "uint256"
        }
      ],
      "name": "addFund",
      "outputs": [],
      "stateMutability": "nonpayable",
      "type": "function"
    },
    {
      "inputs": [
        {
          "internalType": "string",
          "name": "_dealID",
          "type": "string"
        },
        {
          "internalType": "address",
          "name": "_issuer",
          "type": "address"
        },
        {
          "internalType": "address",
          "name": "_tokenAddress",
          "type": "address"
        }
      ],
      "name": "withdrawFund",
      "outputs": [],
      "stateMutability": "nonpayable",
      "type": "function"
    }
  ],
  "bytecode": "0x608060405234801561001057600080fd5b50604051610a69380380610a69833981810160405281019061003291906100dc565b80600160006101000a81548173ffffffffffffffffffffffffffffffffffffffff021916908373ffffffffffffffffffffffffffffffffffffffff16021790555050610109565b600080fd5b600073ffffffffffffffffffffffffffffffffffffffff82169050919050565b60006100a98261007e565b9050919050565b6100b98161009e565b81146100c457600080fd5b50565b6000815190506100d6816100b0565b92915050565b6000602082840312156100f2576100f1610079565b5b6000610100848285016100c7565b91505092915050565b610951806101186000396000f3fe608060405234801561001057600080fd5b506004361061004c5760003560e01c806307c2e4491461005157806314fccfcb1461006f578063925b7cb61461009f578063e04cd97f146100bb575b600080fd5b6100596100d7565b60405161006691906103c0565b60405180910390f35b61008960048036038101906100849190610535565b6100fd565b6040516100969190610597565b60405180910390f35b6100b960048036038101906100b491906105de565b61012b565b005b6100d560048036038101906100d09190610666565b610210565b005b600160009054906101000a900473ffffffffffffffffffffffffffffffffffffffff1681565b6000818051602081018201805184825260208301602085012081835280955050505050506000915090505481565b600160009054906101000a900473ffffffffffffffffffffffffffffffffffffffff1673ffffffffffffffffffffffffffffffffffffffff163373ffffffffffffffffffffffffffffffffffffffff16146101bb576040517f08c379a00000000000000000000000000000000000000000000000000000000081526004016101b290610732565b60405180910390fd5b600080836040516101cc91906107c3565b908152602001604051809103902054905081816101e99190610809565b6000846040516101f991906107c3565b908152602001604051809103902081905550505050565b600160009054906101000a900473ffffffffffffffffffffffffffffffffffffffff1673ffffffffffffffffffffffffffffffffffffffff163373ffffffffffffffffffffffffffffffffffffffff16146102a0576040517f08c379a000000000000000000000000000000000000000000000000000000000815260040161029790610732565b60405180910390fd5b600080846040516102b191906107c3565b90815260200160405180910390205490508173ffffffffffffffffffffffffffffffffffffffff166323b872dd3085670de0b6b3a7640000856102f4919061083d565b6040518463ffffffff1660e01b81526004016103129392919061087f565b6020604051808303816000875af1158015610331573d6000803e3d6000fd5b505050506040513d601f19601f8201168201806040525081019061035591906108ee565b506000808560405161036791906107c3565b90815260200160405180910390208190555050505050565b600073ffffffffffffffffffffffffffffffffffffffff82169050919050565b60006103aa8261037f565b9050919050565b6103ba8161039f565b82525050565b60006020820190506103d560008301846103b1565b92915050565b6000604051905090565b600080fd5b600080fd5b600080fd5b600080fd5b6000601f19601f8301169050919050565b7f4e487b7100000000000000000000000000000000000000000000000000000000600052604160045260246000fd5b610442826103f9565b810181811067ffffffffffffffff821117156104615761046061040a565b5b80604052505050565b60006104746103db565b90506104808282610439565b919050565b600067ffffffffffffffff8211156104a05761049f61040a565b5b6104a9826103f9565b9050602081019050919050565b82818337600083830152505050565b60006104d86104d384610485565b61046a565b9050828152602081018484840111156104f4576104f36103f4565b5b6104ff8482856104b6565b509392505050565b600082601f83011261051c5761051b6103ef565b5b813561052c8482602086016104c5565b91505092915050565b60006020828403121561054b5761054a6103e5565b5b600082013567ffffffffffffffff811115610569576105686103ea565b5b61057584828501610507565b91505092915050565b6000819050919050565b6105918161057e565b82525050565b60006020820190506105ac6000830184610588565b92915050565b6105bb8161057e565b81146105c657600080fd5b50565b6000813590506105d8816105b2565b92915050565b600080604083850312156105f5576105f46103e5565b5b600083013567ffffffffffffffff811115610613576106126103ea565b5b61061f85828601610507565b9250506020610630858286016105c9565b9150509250929050565b6106438161039f565b811461064e57600080fd5b50565b6000813590506106608161063a565b92915050565b60008060006060848603121561067f5761067e6103e5565b5b600084013567ffffffffffffffff81111561069d5761069c6103ea565b5b6106a986828701610507565b93505060206106ba86828701610651565b92505060406106cb86828701610651565b9150509250925092565b600082825260208201905092915050565b7f4973737565727346756e643a204f4e4c595f42414e4b00000000000000000000600082015250565b600061071c6016836106d5565b9150610727826106e6565b602082019050919050565b6000602082019050818103600083015261074b8161070f565b9050919050565b600081519050919050565b600081905092915050565b60005b8381101561078657808201518184015260208101905061076b565b60008484015250505050565b600061079d82610752565b6107a7818561075d565b93506107b7818560208601610768565b80840191505092915050565b60006107cf8284610792565b915081905092915050565b7f4e487b7100000000000000000000000000000000000000000000000000000000600052601160045260246000fd5b60006108148261057e565b915061081f8361057e565b9250828201905080821115610837576108366107da565b5b92915050565b60006108488261057e565b91506108538361057e565b92508282026108618161057e565b91508282048414831517610878576108776107da565b5b5092915050565b600060608201905061089460008301866103b1565b6108a160208301856103b1565b6108ae6040830184610588565b949350505050565b60008115159050919050565b6108cb816108b6565b81146108d657600080fd5b50565b6000815190506108e8816108c2565b92915050565b600060208284031215610904576109036103e5565b5b6000610912848285016108d9565b9150509291505056fea2646970667358221220929e0483b74e2bcac97186fad3a971e54b19031047ca3faaf6be1d0a7eba699f64736f6c63430008130033",
  "immutableReferences": {},
  "source": "// SPDX-License-Identifier: MIT\npragma solidity ^0.8.19;\n\nimport \"../tests/tokens/IERC20.sol\";\nimport \"./IIssuersFund.sol\";\n\ncontract IssuersFund is IIssuersFund {\n    mapping(string => uint256) public totalAmount;\n\n    address public bankContract;\n\n    modifier onlyBankContract {\n        require(msg.sender == bankContract, \"IssuersFund: ONLY_BANK\");\n        _;\n    }\n\n    constructor(address _bankContract) {\n        bankContract = _bankContract;\n    }\n\n    function addFund(string memory _dealID, uint256 _amount) external onlyBankContract {\n        uint256 previousAmount = totalAmount[_dealID];\n\n        totalAmount[_dealID] = previousAmount + _amount;\n    }\n\n    function withdrawFund(string memory _dealID, address _issuer, address _tokenAddress) external onlyBankContract {\n        uint256 _amount = totalAmount[_dealID];\n\n        IERC20(_tokenAddress).transferFrom(address(this), _issuer, _amount * 1 ether);\n\n        totalAmount[_dealID] = 0;\n    }\n}",
  "sourcePath": "/Users/sam/Documents/Blockchain/Topos/ToposGrant/T-Grant/contracts/treasury/IssuersFund.sol.sol",
  "compiler": {
    "name": "solc",
    "version": "0.8.19+commit.7dd6d404.Emscripten.clang"
  },
  "schemaVersion": "3.4.9",
  "updatedAt": "2023-11-06T12:35:21.226Z",
  "devdoc": {
    "kind": "dev",
    "methods": {},
    "version": 1
  },
  "userdoc": {
    "kind": "user",
    "methods": {},
    "version": 1
  }
}