{
  "contractName": "IssuersFund",
  "abi": [
    {
      "inputs": [
        {
          "internalType": "address",
          "name": "_bankContract",
          "type": "address"
        },
        {
          "internalType": "address",
          "name": "_toposTreasury",
          "type": "address"
        }
      ],
      "stateMutability": "nonpayable",
      "type": "constructor"
    },
    {
      "inputs": [],
      "name": "toposBankContract",
      "outputs": [
        {
          "internalType": "address",
          "name": "",
          "type": "address"
        }
      ],
      "stateMutability": "view",
      "type": "function"
    },
    {
      "inputs": [],
      "name": "toposManager",
      "outputs": [
        {
          "internalType": "address",
          "name": "",
          "type": "address"
        }
      ],
      "stateMutability": "view",
      "type": "function"
    },
    {
      "inputs": [],
      "name": "toposTreasury",
      "outputs": [
        {
          "internalType": "address",
          "name": "",
          "type": "address"
        }
      ],
      "stateMutability": "view",
      "type": "function"
    },
    {
      "inputs": [
        {
          "internalType": "string",
          "name": "",
          "type": "string"
        }
      ],
      "name": "totalAmount",
      "outputs": [
        {
          "internalType": "uint256",
          "name": "",
          "type": "uint256"
        }
      ],
      "stateMutability": "view",
      "type": "function"
    },
    {
      "inputs": [
        {
          "internalType": "string",
          "name": "_dealID",
          "type": "string"
        },
        {
          "internalType": "uint256",
          "name": "_amount",
          "type": "uint256"
        }
      ],
      "name": "addFund",
      "outputs": [],
      "stateMutability": "nonpayable",
      "type": "function"
    },
    {
      "inputs": [
        {
          "internalType": "string",
          "name": "_dealID",
          "type": "string"
        },
        {
          "internalType": "address",
          "name": "_issuer",
          "type": "address"
        },
        {
          "internalType": "address",
          "name": "_tokenAddress",
          "type": "address"
        }
      ],
      "name": "withdrawFund",
      "outputs": [],
      "stateMutability": "nonpayable",
      "type": "function"
    },
    {
      "inputs": [
        {
          "internalType": "address",
          "name": "_to",
          "type": "address"
        },
        {
          "internalType": "uint256",
          "name": "_amount",
          "type": "uint256"
        },
        {
          "internalType": "address",
          "name": "_tokenAddress",
          "type": "address"
        }
      ],
      "name": "withdraw",
      "outputs": [],
      "stateMutability": "nonpayable",
      "type": "function"
    }
  ],
  "bytecode": "0x60806040523480156200001157600080fd5b50604051620011403803806200114083398181016040528101906200003791906200016c565b33600160006101000a81548173ffffffffffffffffffffffffffffffffffffffff021916908373ffffffffffffffffffffffffffffffffffffffff16021790555081600260006101000a81548173ffffffffffffffffffffffffffffffffffffffff021916908373ffffffffffffffffffffffffffffffffffffffff16021790555080600360006101000a81548173ffffffffffffffffffffffffffffffffffffffff021916908373ffffffffffffffffffffffffffffffffffffffff1602179055505050620001b3565b600080fd5b600073ffffffffffffffffffffffffffffffffffffffff82169050919050565b6000620001348262000107565b9050919050565b620001468162000127565b81146200015257600080fd5b50565b60008151905062000166816200013b565b92915050565b6000806040838503121562000186576200018562000102565b5b6000620001968582860162000155565b9250506020620001a98582860162000155565b9150509250929050565b610f7d80620001c36000396000f3fe608060405234801561001057600080fd5b506004361061007d5760003560e01c80637f31ed731161005b5780637f31ed73146100ec578063925b7cb61461010a5780639c34712a14610126578063e04cd97f146101445761007d565b806314fccfcb146100825780633d52baf9146100b257806369328dec146100d0575b600080fd5b61009c60048036038101906100979190610904565b610160565b6040516100a99190610966565b60405180910390f35b6100ba61018e565b6040516100c791906109c2565b60405180910390f35b6100ea60048036038101906100e59190610a35565b6101b4565b005b6100f461038c565b60405161010191906109c2565b60405180910390f35b610124600480360381019061011f9190610a88565b6103b2565b005b61012e610497565b60405161013b91906109c2565b60405180910390f35b61015e60048036038101906101599190610ae4565b6104bd565b005b6000818051602081018201805184825260208301602085012081835280955050505050506000915090505481565b600360009054906101000a900473ffffffffffffffffffffffffffffffffffffffff1681565b600160009054906101000a900473ffffffffffffffffffffffffffffffffffffffff1673ffffffffffffffffffffffffffffffffffffffff163373ffffffffffffffffffffffffffffffffffffffff1614610244576040517f08c379a000000000000000000000000000000000000000000000000000000000815260040161023b90610bb0565b60405180910390fd5b60008173ffffffffffffffffffffffffffffffffffffffff166370a08231306040518263ffffffff1660e01b815260040161027f91906109c2565b602060405180830381865afa15801561029c573d6000803e3d6000fd5b505050506040513d601f19601f820116820180604052508101906102c09190610be5565b905080831115610305576040517f08c379a00000000000000000000000000000000000000000000000000000000081526004016102fc90610c5e565b60405180910390fd5b8173ffffffffffffffffffffffffffffffffffffffff166323b872dd3086866040518463ffffffff1660e01b815260040161034293929190610c7e565b6020604051808303816000875af1158015610361573d6000803e3d6000fd5b505050506040513d601f19601f820116820180604052508101906103859190610ced565b5050505050565b600160009054906101000a900473ffffffffffffffffffffffffffffffffffffffff1681565b600260009054906101000a900473ffffffffffffffffffffffffffffffffffffffff1673ffffffffffffffffffffffffffffffffffffffff163373ffffffffffffffffffffffffffffffffffffffff1614610442576040517f08c379a000000000000000000000000000000000000000000000000000000000815260040161043990610d66565b60405180910390fd5b600080836040516104539190610df7565b908152602001604051809103902054905081816104709190610e3d565b6000846040516104809190610df7565b908152602001604051809103902081905550505050565b600260009054906101000a900473ffffffffffffffffffffffffffffffffffffffff1681565b600260009054906101000a900473ffffffffffffffffffffffffffffffffffffffff1673ffffffffffffffffffffffffffffffffffffffff163373ffffffffffffffffffffffffffffffffffffffff161461054d576040517f08c379a000000000000000000000000000000000000000000000000000000000815260040161054490610d66565b60405180910390fd5b6000808460405161055e9190610df7565b90815260200160405180910390205490506000600260009054906101000a900473ffffffffffffffffffffffffffffffffffffffff1673ffffffffffffffffffffffffffffffffffffffff1663ff6689d06040518163ffffffff1660e01b8152600401602060405180830381865afa1580156105de573d6000803e3d6000fd5b505050506040513d601f19601f820116820180604052508101906106029190610be5565b90508273ffffffffffffffffffffffffffffffffffffffff166323b872dd30600360009054906101000a900473ffffffffffffffffffffffffffffffffffffffff16612710670de0b6b3a76400008661065b9190610e71565b6106659190610ee2565b6040518463ffffffff1660e01b815260040161068393929190610c7e565b6020604051808303816000875af11580156106a2573d6000803e3d6000fd5b505050506040513d601f19601f820116820180604052508101906106c69190610ced565b508273ffffffffffffffffffffffffffffffffffffffff166323b872dd3086612710670de0b6b3a764000086886127106107009190610e71565b61070a9190610f13565b6107149190610e71565b61071e9190610ee2565b6040518463ffffffff1660e01b815260040161073c93929190610c7e565b6020604051808303816000875af115801561075b573d6000803e3d6000fd5b505050506040513d601f19601f8201168201806040525081019061077f9190610ced565b50600080866040516107919190610df7565b9081526020016040518091039020819055505050505050565b6000604051905090565b600080fd5b600080fd5b600080fd5b600080fd5b6000601f19601f8301169050919050565b7f4e487b7100000000000000000000000000000000000000000000000000000000600052604160045260246000fd5b610811826107c8565b810181811067ffffffffffffffff821117156108305761082f6107d9565b5b80604052505050565b60006108436107aa565b905061084f8282610808565b919050565b600067ffffffffffffffff82111561086f5761086e6107d9565b5b610878826107c8565b9050602081019050919050565b82818337600083830152505050565b60006108a76108a284610854565b610839565b9050828152602081018484840111156108c3576108c26107c3565b5b6108ce848285610885565b509392505050565b600082601f8301126108eb576108ea6107be565b5b81356108fb848260208601610894565b91505092915050565b60006020828403121561091a576109196107b4565b5b600082013567ffffffffffffffff811115610938576109376107b9565b5b610944848285016108d6565b91505092915050565b6000819050919050565b6109608161094d565b82525050565b600060208201905061097b6000830184610957565b92915050565b600073ffffffffffffffffffffffffffffffffffffffff82169050919050565b60006109ac82610981565b9050919050565b6109bc816109a1565b82525050565b60006020820190506109d760008301846109b3565b92915050565b6109e6816109a1565b81146109f157600080fd5b50565b600081359050610a03816109dd565b92915050565b610a128161094d565b8114610a1d57600080fd5b50565b600081359050610a2f81610a09565b92915050565b600080600060608486031215610a4e57610a4d6107b4565b5b6000610a5c868287016109f4565b9350506020610a6d86828701610a20565b9250506040610a7e868287016109f4565b9150509250925092565b60008060408385031215610a9f57610a9e6107b4565b5b600083013567ffffffffffffffff811115610abd57610abc6107b9565b5b610ac9858286016108d6565b9250506020610ada85828601610a20565b9150509250929050565b600080600060608486031215610afd57610afc6107b4565b5b600084013567ffffffffffffffff811115610b1b57610b1a6107b9565b5b610b27868287016108d6565b9350506020610b38868287016109f4565b9250506040610b49868287016109f4565b9150509250925092565b600082825260208201905092915050565b7f4e4f545f414c4c4f574544000000000000000000000000000000000000000000600082015250565b6000610b9a600b83610b53565b9150610ba582610b64565b602082019050919050565b60006020820190508181036000830152610bc981610b8d565b9050919050565b600081519050610bdf81610a09565b92915050565b600060208284031215610bfb57610bfa6107b4565b5b6000610c0984828501610bd0565b91505092915050565b7f494e53554646494349454e545f46554e44530000000000000000000000000000600082015250565b6000610c48601283610b53565b9150610c5382610c12565b602082019050919050565b60006020820190508181036000830152610c7781610c3b565b9050919050565b6000606082019050610c9360008301866109b3565b610ca060208301856109b3565b610cad6040830184610957565b949350505050565b60008115159050919050565b610cca81610cb5565b8114610cd557600080fd5b50565b600081519050610ce781610cc1565b92915050565b600060208284031215610d0357610d026107b4565b5b6000610d1184828501610cd8565b91505092915050565b7f4973737565727346756e643a204f4e4c595f42414e4b00000000000000000000600082015250565b6000610d50601683610b53565b9150610d5b82610d1a565b602082019050919050565b60006020820190508181036000830152610d7f81610d43565b9050919050565b600081519050919050565b600081905092915050565b60005b83811015610dba578082015181840152602081019050610d9f565b60008484015250505050565b6000610dd182610d86565b610ddb8185610d91565b9350610deb818560208601610d9c565b80840191505092915050565b6000610e038284610dc6565b915081905092915050565b7f4e487b7100000000000000000000000000000000000000000000000000000000600052601160045260246000fd5b6000610e488261094d565b9150610e538361094d565b9250828201905080821115610e6b57610e6a610e0e565b5b92915050565b6000610e7c8261094d565b9150610e878361094d565b9250828202610e958161094d565b91508282048414831517610eac57610eab610e0e565b5b5092915050565b7f4e487b7100000000000000000000000000000000000000000000000000000000600052601260045260246000fd5b6000610eed8261094d565b9150610ef88361094d565b925082610f0857610f07610eb3565b5b828204905092915050565b6000610f1e8261094d565b9150610f298361094d565b9250828203905081811115610f4157610f40610e0e565b5b9291505056fea2646970667358221220304d438d0309462346e331f3df6f7af9cead66c419e642f3aec08bcf976c115864736f6c63430008130033",
  "immutableReferences": {},
  "source": "// SPDX-License-Identifier: MIT\npragma solidity ^0.8.19;\n\nimport \"../tests/tokens/IERC20.sol\";\nimport \"./IIssuersFund.sol\";\nimport \"./IToposTreasury.sol\";\nimport \"../Topos/interfaces/IToposBank.sol\";\n\ncontract IssuersFund is IIssuersFund {\n    mapping(string => uint256) public totalAmount;\n\n    address public toposManager;\n    address public toposBankContract;\n    address public toposTreasury;\n\n    modifier onlyToposManager {\n        require(\n            msg.sender == toposManager,\n            \"NOT_ALLOWED\"\n        );\n        _;\n    }\n\n    modifier onlyBankContract {\n        require(msg.sender == toposBankContract, \"IssuersFund: ONLY_BANK\");\n        _;\n    }\n\n    constructor(address _bankContract, address _toposTreasury) {\n        toposManager = msg.sender;\n        toposBankContract = _bankContract;\n        toposTreasury = _toposTreasury;\n    }\n\n    function addFund(string memory _dealID, uint256 _amount) external onlyBankContract {\n        uint256 previousAmount = totalAmount[_dealID];\n\n        totalAmount[_dealID] = previousAmount + _amount;\n    }\n\n    function withdrawFund(string memory _dealID, address _issuer, address _tokenAddress) external onlyBankContract {\n        uint256 _amount = totalAmount[_dealID];\n\n        uint256 fees = IToposBank(toposBankContract).getDealFees();\n\n        IERC20(_tokenAddress).transferFrom(address(this), toposTreasury, (fees * 1 ether) / 10000);\n        IERC20(_tokenAddress).transferFrom(address(this), _issuer, (10000 * _amount - fees) * 1 ether / 10000);\n\n        totalAmount[_dealID] = 0;\n    }\n\n    /**\n    * @notice Allows to withdraw tokens sent accidently. Issuers funds deposits are done through `addFund`\n    * @param _to account address to send tokens to\n    * @param _amount amount of tokens to send\n    * @param _tokenAddress the token contract address\n    */\n    function withdraw(address _to, uint256 _amount, address _tokenAddress) external onlyToposManager {\n        uint256 availabaleBalance = IERC20(_tokenAddress).balanceOf(address(this));\n        require(_amount <= availabaleBalance, \"INSUFFICIENT_FUNDS\");\n\n        IERC20(_tokenAddress).transferFrom(address(this), _to, _amount);\n    }\n}",
  "sourcePath": "/Users/sam/Documents/Blockchain/Topos/ToposGrant/T-Grant/contracts/treasury/IssuersFund.sol.sol",
  "compiler": {
    "name": "solc",
    "version": "0.8.19+commit.7dd6d404.Emscripten.clang"
  },
  "schemaVersion": "3.4.9",
  "updatedAt": "2023-11-06T13:25:03.021Z",
  "devdoc": {
    "kind": "dev",
    "methods": {
      "withdraw(address,uint256,address)": {
        "params": {
          "_amount": "amount of tokens to send",
          "_to": "account address to send tokens to",
          "_tokenAddress": "the token contract address"
        }
      }
    },
    "version": 1
  },
  "userdoc": {
    "kind": "user",
    "methods": {
      "withdraw(address,uint256,address)": {
        "notice": "Allows to withdraw tokens sent accidently. Issuers funds deposits are done through `addFund`"
      }
    },
    "version": 1
  }
}