{
  "contractName": "Roles",
  "abi": [
    {
      "inputs": [
        {
          "internalType": "address",
          "name": "_toposBankContract",
          "type": "address"
        }
      ],
      "stateMutability": "nonpayable",
      "type": "constructor"
    },
    {
      "inputs": [
        {
          "internalType": "address",
          "name": "",
          "type": "address"
        }
      ],
      "name": "roles",
      "outputs": [
        {
          "internalType": "string",
          "name": "",
          "type": "string"
        }
      ],
      "stateMutability": "view",
      "type": "function"
    },
    {
      "inputs": [],
      "name": "toposBankContract",
      "outputs": [
        {
          "internalType": "address",
          "name": "",
          "type": "address"
        }
      ],
      "stateMutability": "view",
      "type": "function"
    },
    {
      "inputs": [
        {
          "internalType": "string",
          "name": "_role",
          "type": "string"
        },
        {
          "internalType": "address",
          "name": "_user",
          "type": "address"
        }
      ],
      "name": "setRole",
      "outputs": [],
      "stateMutability": "nonpayable",
      "type": "function"
    },
    {
      "inputs": [
        {
          "internalType": "address",
          "name": "_user",
          "type": "address"
        }
      ],
      "name": "getRole",
      "outputs": [
        {
          "internalType": "string",
          "name": "",
          "type": "string"
        }
      ],
      "stateMutability": "view",
      "type": "function"
    },
    {
      "inputs": [
        {
          "internalType": "address",
          "name": "_user",
          "type": "address"
        }
      ],
      "name": "isIssuer",
      "outputs": [
        {
          "internalType": "bool",
          "name": "",
          "type": "bool"
        }
      ],
      "stateMutability": "view",
      "type": "function"
    },
    {
      "inputs": [
        {
          "internalType": "address",
          "name": "_user",
          "type": "address"
        }
      ],
      "name": "isInvestor",
      "outputs": [
        {
          "internalType": "bool",
          "name": "",
          "type": "bool"
        }
      ],
      "stateMutability": "view",
      "type": "function"
    }
  ],
  "bytecode": "0x608060405234801561001057600080fd5b50604051610e48380380610e48833981810160405281019061003291906100dc565b80600160006101000a81548173ffffffffffffffffffffffffffffffffffffffff021916908373ffffffffffffffffffffffffffffffffffffffff16021790555050610109565b600080fd5b600073ffffffffffffffffffffffffffffffffffffffff82169050919050565b60006100a98261007e565b9050919050565b6100b98161009e565b81146100c457600080fd5b50565b6000815190506100d6816100b0565b92915050565b6000602082840312156100f2576100f1610079565b5b6000610100848285016100c7565b91505092915050565b610d30806101186000396000f3fe608060405234801561001057600080fd5b50600436106100625760003560e01c80634427673314610067578063877b9a671461009757806399374642146100c75780639c34712a146100f7578063cee2a9cf14610115578063cfde189014610145575b600080fd5b610081600480360381019061007c919061056f565b610161565b60405161008e919061062c565b60405180910390f35b6100b160048036038101906100ac919061056f565b610231565b6040516100be9190610669565b60405180910390f35b6100e160048036038101906100dc919061056f565b6102c4565b6040516100ee919061062c565b60405180910390f35b6100ff610364565b60405161010c9190610693565b60405180910390f35b61012f600480360381019061012a919061056f565b61038a565b60405161013c9190610669565b60405180910390f35b61015f600480360381019061015a91906107e3565b61041d565b005b60606000808373ffffffffffffffffffffffffffffffffffffffff1673ffffffffffffffffffffffffffffffffffffffff16815260200190815260200160002080546101ac9061086e565b80601f01602080910402602001604051908101604052809291908181526020018280546101d89061086e565b80156102255780601f106101fa57610100808354040283529160200191610225565b820191906000526020600020905b81548152906001019060200180831161020857829003601f168201915b50505050509050919050565b6000604051602001610242906108f6565b604051602081830303815290604052805190602001206000808473ffffffffffffffffffffffffffffffffffffffff1673ffffffffffffffffffffffffffffffffffffffff1681526020019081526020016000206040516020016102a691906109a3565b60405160208183030381529060405280519060200120149050919050565b600060205280600052604060002060009150905080546102e39061086e565b80601f016020809104026020016040519081016040528092919081815260200182805461030f9061086e565b801561035c5780601f106103315761010080835404028352916020019161035c565b820191906000526020600020905b81548152906001019060200180831161033f57829003601f168201915b505050505081565b600160009054906101000a900473ffffffffffffffffffffffffffffffffffffffff1681565b600060405160200161039b90610a06565b604051602081830303815290604052805190602001206000808473ffffffffffffffffffffffffffffffffffffffff1673ffffffffffffffffffffffffffffffffffffffff1681526020019081526020016000206040516020016103ff91906109a3565b60405160208183030381529060405280519060200120149050919050565b600160009054906101000a900473ffffffffffffffffffffffffffffffffffffffff1673ffffffffffffffffffffffffffffffffffffffff163373ffffffffffffffffffffffffffffffffffffffff16146104ad576040517f08c379a00000000000000000000000000000000000000000000000000000000081526004016104a490610a67565b60405180910390fd5b816000808373ffffffffffffffffffffffffffffffffffffffff1673ffffffffffffffffffffffffffffffffffffffff16815260200190815260200160002090816104f89190610c28565b505050565b6000604051905090565b600080fd5b600080fd5b600073ffffffffffffffffffffffffffffffffffffffff82169050919050565b600061053c82610511565b9050919050565b61054c81610531565b811461055757600080fd5b50565b60008135905061056981610543565b92915050565b60006020828403121561058557610584610507565b5b60006105938482850161055a565b91505092915050565b600081519050919050565b600082825260208201905092915050565b60005b838110156105d65780820151818401526020810190506105bb565b60008484015250505050565b6000601f19601f8301169050919050565b60006105fe8261059c565b61060881856105a7565b93506106188185602086016105b8565b610621816105e2565b840191505092915050565b6000602082019050818103600083015261064681846105f3565b905092915050565b60008115159050919050565b6106638161064e565b82525050565b600060208201905061067e600083018461065a565b92915050565b61068d81610531565b82525050565b60006020820190506106a86000830184610684565b92915050565b600080fd5b600080fd5b7f4e487b7100000000000000000000000000000000000000000000000000000000600052604160045260246000fd5b6106f0826105e2565b810181811067ffffffffffffffff8211171561070f5761070e6106b8565b5b80604052505050565b60006107226104fd565b905061072e82826106e7565b919050565b600067ffffffffffffffff82111561074e5761074d6106b8565b5b610757826105e2565b9050602081019050919050565b82818337600083830152505050565b600061078661078184610733565b610718565b9050828152602081018484840111156107a2576107a16106b3565b5b6107ad848285610764565b509392505050565b600082601f8301126107ca576107c96106ae565b5b81356107da848260208601610773565b91505092915050565b600080604083850312156107fa576107f9610507565b5b600083013567ffffffffffffffff8111156108185761081761050c565b5b610824858286016107b5565b92505060206108358582860161055a565b9150509250929050565b7f4e487b7100000000000000000000000000000000000000000000000000000000600052602260045260246000fd5b6000600282049050600182168061088657607f821691505b6020821081036108995761089861083f565b5b50919050565b600081905092915050565b7f4953535545520000000000000000000000000000000000000000000000000000600082015250565b60006108e060068361089f565b91506108eb826108aa565b600682019050919050565b6000610901826108d3565b9150819050919050565b60008190508160005260206000209050919050565b6000815461092d8161086e565b610937818661089f565b9450600182166000811461095257600181146109675761099a565b60ff198316865281151582028601935061099a565b6109708561090b565b60005b8381101561099257815481890152600182019150602081019050610973565b838801955050505b50505092915050565b60006109af8284610920565b915081905092915050565b7f494e564553544f52000000000000000000000000000000000000000000000000600082015250565b60006109f060088361089f565b91506109fb826109ba565b600882019050919050565b6000610a11826109e3565b9150819050919050565b7f526f6c65733a204f4e4c595f544f504f535f42414e4b00000000000000000000600082015250565b6000610a516016836105a7565b9150610a5c82610a1b565b602082019050919050565b60006020820190508181036000830152610a8081610a44565b9050919050565b60006020601f8301049050919050565b600082821b905092915050565b600060088302610ad47fffffffffffffffffffffffffffffffffffffffffffffffffffffffffffffffff82610a97565b610ade8683610a97565b95508019841693508086168417925050509392505050565b6000819050919050565b6000819050919050565b6000610b25610b20610b1b84610af6565b610b00565b610af6565b9050919050565b6000819050919050565b610b3f83610b0a565b610b53610b4b82610b2c565b848454610aa4565b825550505050565b600090565b610b68610b5b565b610b73818484610b36565b505050565b5b81811015610b9757610b8c600082610b60565b600181019050610b79565b5050565b601f821115610bdc57610bad8161090b565b610bb684610a87565b81016020851015610bc5578190505b610bd9610bd185610a87565b830182610b78565b50505b505050565b600082821c905092915050565b6000610bff60001984600802610be1565b1980831691505092915050565b6000610c188383610bee565b9150826002028217905092915050565b610c318261059c565b67ffffffffffffffff811115610c4a57610c496106b8565b5b610c54825461086e565b610c5f828285610b9b565b600060209050601f831160018114610c925760008415610c80578287015190505b610c8a8582610c0c565b865550610cf2565b601f198416610ca08661090b565b60005b82811015610cc857848901518255600182019150602085019450602081019050610ca3565b86831015610ce55784890151610ce1601f891682610bee565b8355505b6001600288020188555050505b50505050505056fea264697066735822122054230c79cc612880b00c1c52ac2e16f5b486679e5261640f0fff0a7f1e06cd1964736f6c63430008130033",
  "immutableReferences": {},
  "source": "// SPDX-License-Identifier: CC0-1.0\npragma solidity ^0.8.0;\n\nimport \"../Topos/interfaces/IRoles.sol\";\n\ncontract Roles is IRoles {\n    mapping(address => string) public roles;\n\n    address public toposBankContract;\n\n    modifier onlyToposBank {\n        require(\n            msg.sender == toposBankContract,\n            \"Roles: ONLY_TOPOS_BANK\"\n        );\n        _;\n    }\n\n    constructor(address _toposBankContract) {\n        toposBankContract = _toposBankContract;\n    }\n\n    function setRole(string memory _role, address _user) external onlyToposBank {\n        roles[_user] = _role;\n    }\n\n    function getRole(address _user) external view returns(string memory) {\n        return roles[_user];\n    }\n\n    function isIssuer(address _user) external view returns(bool) {\n        return keccak256(abi.encodePacked(roles[_user])) == keccak256(abi.encodePacked(\"ISSUER\"));\n    }\n\n    function isInvestor(address _user) external view returns(bool) {\n        return keccak256(abi.encodePacked(roles[_user])) == keccak256(abi.encodePacked(\"INVESTOR\"));\n    }\n}",
  "sourcePath": "/Users/sam/Documents/Blockchain/Topos/ToposGrant/T-Grant/contracts/utils/Roles.sol",
  "compiler": {
    "name": "solc",
    "version": "0.8.19+commit.7dd6d404.Emscripten.clang"
  },
  "schemaVersion": "3.4.9",
  "updatedAt": "2023-11-04T15:33:56.444Z",
  "devdoc": {
    "kind": "dev",
    "methods": {},
    "version": 1
  },
  "userdoc": {
    "kind": "user",
    "methods": {},
    "version": 1
  }
}