{
  "contractName": "ToposBank",
  "abi": [
    {
      "inputs": [
        {
          "internalType": "address",
          "name": "_toposManager",
          "type": "address"
        },
        {
          "internalType": "address",
          "name": "_rolesContract",
          "type": "address"
        },
        {
          "internalType": "address",
          "name": "_identityRegistryContract",
          "type": "address"
        }
      ],
      "stateMutability": "nonpayable",
      "type": "constructor"
    },
    {
      "inputs": [
        {
          "internalType": "address",
          "name": "investor",
          "type": "address"
        }
      ],
      "name": "InvalidInvestorAddress",
      "type": "error"
    },
    {
      "inputs": [
        {
          "internalType": "string",
          "name": "dealID",
          "type": "string"
        }
      ],
      "name": "IvalidDealStatus",
      "type": "error"
    },
    {
      "anonymous": false,
      "inputs": [
        {
          "indexed": false,
          "internalType": "string",
          "name": "dealID",
          "type": "string"
        }
      ],
      "name": "DealAPproved",
      "type": "event"
    },
    {
      "anonymous": false,
      "inputs": [
        {
          "indexed": false,
          "internalType": "string",
          "name": "dealID",
          "type": "string"
        }
      ],
      "name": "DealARejected",
      "type": "event"
    },
    {
      "anonymous": false,
      "inputs": [
        {
          "indexed": false,
          "internalType": "string",
          "name": "dealID",
          "type": "string"
        },
        {
          "components": [
            {
              "internalType": "string",
              "name": "dealID",
              "type": "string"
            },
            {
              "internalType": "string",
              "name": "prospectusURI",
              "type": "string"
            },
            {
              "internalType": "address",
              "name": "issuerAddress",
              "type": "address"
            },
            {
              "internalType": "uint256",
              "name": "debtAmount",
              "type": "uint256"
            },
            {
              "internalType": "uint256",
              "name": "couponRate",
              "type": "uint256"
            },
            {
              "internalType": "uint256",
              "name": "couponFrequency",
              "type": "uint256"
            },
            {
              "internalType": "uint256",
              "name": "maturityDate",
              "type": "uint256"
            },
            {
              "internalType": "uint256",
              "name": "index",
              "type": "uint256"
            },
            {
              "internalType": "address",
              "name": "currency",
              "type": "address"
            },
            {
              "internalType": "uint8",
              "name": "couponType",
              "type": "uint8"
            },
            {
              "internalType": "enum BondData.DealStatus",
              "name": "status",
              "type": "uint8"
            }
          ],
          "indexed": false,
          "internalType": "struct BondData.Deal",
          "name": "deal",
          "type": "tuple"
        }
      ],
      "name": "DealSubmitted",
      "type": "event"
    },
    {
      "inputs": [
        {
          "internalType": "string",
          "name": "",
          "type": "string"
        }
      ],
      "name": "dealBondContracts",
      "outputs": [
        {
          "internalType": "address",
          "name": "",
          "type": "address"
        }
      ],
      "stateMutability": "view",
      "type": "function"
    },
    {
      "inputs": [
        {
          "internalType": "string",
          "name": "",
          "type": "string"
        }
      ],
      "name": "deals",
      "outputs": [
        {
          "internalType": "string",
          "name": "dealID",
          "type": "string"
        },
        {
          "internalType": "string",
          "name": "prospectusURI",
          "type": "string"
        },
        {
          "internalType": "address",
          "name": "issuerAddress",
          "type": "address"
        },
        {
          "internalType": "uint256",
          "name": "debtAmount",
          "type": "uint256"
        },
        {
          "internalType": "uint256",
          "name": "couponRate",
          "type": "uint256"
        },
        {
          "internalType": "uint256",
          "name": "couponFrequency",
          "type": "uint256"
        },
        {
          "internalType": "uint256",
          "name": "maturityDate",
          "type": "uint256"
        },
        {
          "internalType": "uint256",
          "name": "index",
          "type": "uint256"
        },
        {
          "internalType": "address",
          "name": "currency",
          "type": "address"
        },
        {
          "internalType": "uint8",
          "name": "couponType",
          "type": "uint8"
        },
        {
          "internalType": "enum BondData.DealStatus",
          "name": "status",
          "type": "uint8"
        }
      ],
      "stateMutability": "view",
      "type": "function"
    },
    {
      "inputs": [],
      "name": "identityRegistryContract",
      "outputs": [
        {
          "internalType": "address",
          "name": "",
          "type": "address"
        }
      ],
      "stateMutability": "view",
      "type": "function"
    },
    {
      "inputs": [
        {
          "internalType": "address",
          "name": "",
          "type": "address"
        }
      ],
      "name": "investorStatus",
      "outputs": [
        {
          "internalType": "enum BondData.StakeHolderStatus",
          "name": "",
          "type": "uint8"
        }
      ],
      "stateMutability": "view",
      "type": "function"
    },
    {
      "inputs": [
        {
          "internalType": "address",
          "name": "",
          "type": "address"
        }
      ],
      "name": "investors",
      "outputs": [
        {
          "internalType": "string",
          "name": "name",
          "type": "string"
        },
        {
          "internalType": "string",
          "name": "country",
          "type": "string"
        },
        {
          "internalType": "string",
          "name": "investorType",
          "type": "string"
        },
        {
          "internalType": "address",
          "name": "walletAddress",
          "type": "address"
        }
      ],
      "stateMutability": "view",
      "type": "function"
    },
    {
      "inputs": [
        {
          "internalType": "address",
          "name": "",
          "type": "address"
        }
      ],
      "name": "issuerStatus",
      "outputs": [
        {
          "internalType": "enum BondData.StakeHolderStatus",
          "name": "",
          "type": "uint8"
        }
      ],
      "stateMutability": "view",
      "type": "function"
    },
    {
      "inputs": [
        {
          "internalType": "address",
          "name": "",
          "type": "address"
        }
      ],
      "name": "issuers",
      "outputs": [
        {
          "internalType": "string",
          "name": "documentURI",
          "type": "string"
        },
        {
          "internalType": "string",
          "name": "name",
          "type": "string"
        },
        {
          "internalType": "string",
          "name": "country",
          "type": "string"
        },
        {
          "internalType": "string",
          "name": "issuerType",
          "type": "string"
        },
        {
          "internalType": "string",
          "name": "creditRating",
          "type": "string"
        },
        {
          "internalType": "uint256",
          "name": "carbonCredit",
          "type": "uint256"
        },
        {
          "internalType": "address",
          "name": "walletAddress",
          "type": "address"
        }
      ],
      "stateMutability": "view",
      "type": "function"
    },
    {
      "inputs": [],
      "name": "rolesContract",
      "outputs": [
        {
          "internalType": "address",
          "name": "",
          "type": "address"
        }
      ],
      "stateMutability": "view",
      "type": "function"
    },
    {
      "inputs": [],
      "name": "toposManager",
      "outputs": [
        {
          "internalType": "address",
          "name": "",
          "type": "address"
        }
      ],
      "stateMutability": "view",
      "type": "function"
    },
    {
      "inputs": [
        {
          "components": [
            {
              "internalType": "string",
              "name": "documentURI",
              "type": "string"
            },
            {
              "internalType": "string",
              "name": "name",
              "type": "string"
            },
            {
              "internalType": "string",
              "name": "country",
              "type": "string"
            },
            {
              "internalType": "string",
              "name": "issuerType",
              "type": "string"
            },
            {
              "internalType": "string",
              "name": "creditRating",
              "type": "string"
            },
            {
              "internalType": "uint256",
              "name": "carbonCredit",
              "type": "uint256"
            },
            {
              "internalType": "address",
              "name": "walletAddress",
              "type": "address"
            }
          ],
          "internalType": "struct BondData.Issuer",
          "name": "_issuer",
          "type": "tuple"
        }
      ],
      "name": "requestRegistrationIssuer",
      "outputs": [],
      "stateMutability": "nonpayable",
      "type": "function"
    },
    {
      "inputs": [
        {
          "components": [
            {
              "internalType": "string",
              "name": "name",
              "type": "string"
            },
            {
              "internalType": "string",
              "name": "country",
              "type": "string"
            },
            {
              "internalType": "string",
              "name": "investorType",
              "type": "string"
            },
            {
              "internalType": "address",
              "name": "walletAddress",
              "type": "address"
            }
          ],
          "internalType": "struct BondData.Investor",
          "name": "_investor",
          "type": "tuple"
        }
      ],
      "name": "requestRegistrationInvestor",
      "outputs": [],
      "stateMutability": "nonpayable",
      "type": "function"
    },
    {
      "inputs": [
        {
          "internalType": "address",
          "name": "_issuer",
          "type": "address"
        }
      ],
      "name": "approveIssuer",
      "outputs": [],
      "stateMutability": "nonpayable",
      "type": "function"
    },
    {
      "inputs": [
        {
          "internalType": "address",
          "name": "_investor",
          "type": "address"
        }
      ],
      "name": "approveInvestor",
      "outputs": [],
      "stateMutability": "nonpayable",
      "type": "function"
    },
    {
      "inputs": [
        {
          "internalType": "address",
          "name": "_issuer",
          "type": "address"
        }
      ],
      "name": "rejectIssuer",
      "outputs": [],
      "stateMutability": "nonpayable",
      "type": "function"
    },
    {
      "inputs": [
        {
          "internalType": "address",
          "name": "_investor",
          "type": "address"
        }
      ],
      "name": "rejectInvestor",
      "outputs": [],
      "stateMutability": "nonpayable",
      "type": "function"
    },
    {
      "inputs": [
        {
          "internalType": "string",
          "name": "_dealID",
          "type": "string"
        },
        {
          "components": [
            {
              "internalType": "string",
              "name": "dealID",
              "type": "string"
            },
            {
              "internalType": "string",
              "name": "prospectusURI",
              "type": "string"
            },
            {
              "internalType": "address",
              "name": "issuerAddress",
              "type": "address"
            },
            {
              "internalType": "uint256",
              "name": "debtAmount",
              "type": "uint256"
            },
            {
              "internalType": "uint256",
              "name": "couponRate",
              "type": "uint256"
            },
            {
              "internalType": "uint256",
              "name": "couponFrequency",
              "type": "uint256"
            },
            {
              "internalType": "uint256",
              "name": "maturityDate",
              "type": "uint256"
            },
            {
              "internalType": "uint256",
              "name": "index",
              "type": "uint256"
            },
            {
              "internalType": "address",
              "name": "currency",
              "type": "address"
            },
            {
              "internalType": "uint8",
              "name": "couponType",
              "type": "uint8"
            },
            {
              "internalType": "enum BondData.DealStatus",
              "name": "status",
              "type": "uint8"
            }
          ],
          "internalType": "struct BondData.Deal",
          "name": "_deal",
          "type": "tuple"
        }
      ],
      "name": "submitDeal",
      "outputs": [],
      "stateMutability": "nonpayable",
      "type": "function"
    },
    {
      "inputs": [
        {
          "internalType": "string",
          "name": "_dealID",
          "type": "string"
        }
      ],
      "name": "approveDeal",
      "outputs": [],
      "stateMutability": "nonpayable",
      "type": "function"
    },
    {
      "inputs": [
        {
          "internalType": "string",
          "name": "_dealID",
          "type": "string"
        }
      ],
      "name": "rejectDeal",
      "outputs": [],
      "stateMutability": "nonpayable",
      "type": "function"
    },
    {
      "inputs": [
        {
          "internalType": "string",
          "name": "_dealID",
          "type": "string"
        },
        {
          "components": [
            {
              "internalType": "address",
              "name": "investor",
              "type": "address"
            },
            {
              "internalType": "uint256",
              "name": "amount",
              "type": "uint256"
            }
          ],
          "internalType": "struct BondData.Investment",
          "name": "_investment",
          "type": "tuple"
        }
      ],
      "name": "registerForDeal",
      "outputs": [],
      "stateMutability": "nonpayable",
      "type": "function"
    },
    {
      "inputs": [
        {
          "internalType": "string",
          "name": "_delaID",
          "type": "string"
        }
      ],
      "name": "issue",
      "outputs": [],
      "stateMutability": "nonpayable",
      "type": "function"
    },
    {
      "inputs": [],
      "name": "redeem",
      "outputs": [],
      "stateMutability": "nonpayable",
      "type": "function"
    }
  ],
  "bytecode": "0x60806040523480156200001157600080fd5b5060405162004362380380620043628339818101604052810190620000379190620001dc565b82600660006101000a81548173ffffffffffffffffffffffffffffffffffffffff021916908373ffffffffffffffffffffffffffffffffffffffff16021790555081600760006101000a81548173ffffffffffffffffffffffffffffffffffffffff021916908373ffffffffffffffffffffffffffffffffffffffff1602179055508173ffffffffffffffffffffffffffffffffffffffff1663cfde1890846040518263ffffffff1660e01b8152600401620000f49190620002aa565b600060405180830381600087803b1580156200010f57600080fd5b505af115801562000124573d6000803e3d6000fd5b5050505080600860006101000a81548173ffffffffffffffffffffffffffffffffffffffff021916908373ffffffffffffffffffffffffffffffffffffffff160217905550505050620002dc565b600080fd5b600073ffffffffffffffffffffffffffffffffffffffff82169050919050565b6000620001a48262000177565b9050919050565b620001b68162000197565b8114620001c257600080fd5b50565b600081519050620001d681620001ab565b92915050565b600080600060608486031215620001f857620001f762000172565b5b60006200020886828701620001c5565b93505060206200021b86828701620001c5565b92505060406200022e86828701620001c5565b9150509250925092565b600082825260208201905092915050565b7f4d414e4147455200000000000000000000000000000000000000000000000000600082015250565b60006200028160078362000238565b91506200028e8262000249565b602082019050919050565b620002a48162000197565b82525050565b60006040820190508181036000830152620002c58162000272565b9050620002d6602083018462000299565b92915050565b61407680620002ec6000396000f3fe608060405234801561001057600080fd5b50600436106101375760003560e01c80637f31ed73116100b8578063ca53b3911161007c578063ca53b39114610321578063d304a8131461033f578063d31628a01461035b578063f936d49d14610377578063fcbb3c18146103a7578063fe0ab4b3146103d757610137565b80637f31ed731461028757806382deb86e146102a5578063a0a57dac146102c1578063be040fb0146102fb578063c88efe651461030557610137565b80633dc349be116100ff5780633dc349be146101e457806348f92ee8146102005780636f7bc9be1461021c578063754f399a1461024f5780637de141291461026b57610137565b8063025ed1fa1461013c578063088674e01461015857806323c8d7061461017657806338a7543e146101925780633cad9b0d146101c8575b600080fd5b6101566004803603810190610151919061264f565b610407565b005b610160610618565b60405161016d91906126f0565b60405180910390f35b610190600480360381019061018b919061272b565b61063e565b005b6101ac60048036038101906101a791906127d3565b610afb565b6040516101bf97969594939291906128a9565b60405180910390f35b6101e260048036038101906101dd919061293b565b610e05565b005b6101fe60048036038101906101f991906129a7565b610e99565b005b61021a6004803603810190610215919061293b565b611187565b005b610236600480360381019061023191906127d3565b6113a8565b60405161024694939291906129f0565b60405180910390f35b6102696004803603810190610264919061293b565b611590565b005b610285600480360381019061028091906127d3565b6117b1565b005b61028f6119ec565b60405161029c91906126f0565b60405180910390f35b6102bf60048036038101906102ba91906127d3565b611a12565b005b6102db60048036038101906102d69190612b7a565b611c4d565b6040516102f29b9a99989796959493929190612c56565b60405180910390f35b610303611e27565b005b61031f600480360381019061031a91906127d3565b611eb9565b005b610329612067565b60405161033691906126f0565b60405180910390f35b610359600480360381019061035491906127d3565b61208d565b005b61037560048036038101906103709190612d2e565b61223b565b005b610391600480360381019061038c91906127d3565b612529565b60405161039e9190612dbf565b60405180910390f35b6103c160048036038101906103bc91906127d3565b612549565b6040516103ce9190612dbf565b60405180910390f35b6103f160048036038101906103ec9190612b7a565b612569565b6040516103fe91906126f0565b60405180910390f35b33600860009054906101000a900473ffffffffffffffffffffffffffffffffffffffff1673ffffffffffffffffffffffffffffffffffffffff1663b9209e33826040518263ffffffff1660e01b815260040161046391906126f0565b602060405180830381865afa158015610480573d6000803e3d6000fd5b505050506040513d601f19601f820116820180604052508101906104a49190612e12565b6104e3576040517f08c379a00000000000000000000000000000000000000000000000000000000081526004016104da90612e8b565b60405180910390fd5b8160000160208101906104f691906127d3565b73ffffffffffffffffffffffffffffffffffffffff163373ffffffffffffffffffffffffffffffffffffffff16146105775781600001602081019061053b91906127d3565b6040517fbba560a100000000000000000000000000000000000000000000000000000000815260040161056e91906126f0565b60405180910390fd5b6002600581111561058b5761058a612bdf565b5b6000858560405161059d929190612edb565b908152602001604051809103902060080160159054906101000a900460ff1660058111156105ce576105cd612bdf565b5b146106125783836040517f4c249fb1000000000000000000000000000000000000000000000000000000008152600401610609929190612f21565b60405180910390fd5b50505050565b600860009054906101000a900473ffffffffffffffffffffffffffffffffffffffff1681565b600760009054906101000a900473ffffffffffffffffffffffffffffffffffffffff1673ffffffffffffffffffffffffffffffffffffffff1663877b9a67336040518263ffffffff1660e01b815260040161069991906126f0565b602060405180830381865afa1580156106b6573d6000803e3d6000fd5b505050506040513d601f19601f820116820180604052508101906106da9190612e12565b610719576040517f08c379a000000000000000000000000000000000000000000000000000000000815260040161071090612f91565b60405180910390fd5b80604001602081019061072c91906127d3565b73ffffffffffffffffffffffffffffffffffffffff163373ffffffffffffffffffffffffffffffffffffffff1614610799576040517f08c379a000000000000000000000000000000000000000000000000000000000815260040161079090612ffd565b60405180910390fd5b600060058111156107ad576107ac612bdf565b5b600084846040516107bf929190612edb565b908152602001604051809103902060080160159054906101000a900460ff1660058111156107f0576107ef612bdf565b5b14610830576040517f08c379a000000000000000000000000000000000000000000000000000000000815260040161082790613069565b60405180910390fd5b8060008484604051610843929190612edb565b9081526020016040518091039020818161085d919061382c565b905050600160008484604051610874929190612edb565b908152602001604051809103902060080160156101000a81548160ff021916908360058111156108a7576108a6612bdf565b5b0217905550600a80549050600084846040516108c4929190612edb565b908152602001604051809103902060070181905550600a600084846040516108ed929190612edb565b90815260200160405180910390209080600181540180825580915050600190039060005260206000209060090201600090919091909150600082018160000190816109389190613850565b506001820181600101908161094d9190613850565b506002820160009054906101000a900473ffffffffffffffffffffffffffffffffffffffff168160020160006101000a81548173ffffffffffffffffffffffffffffffffffffffff021916908373ffffffffffffffffffffffffffffffffffffffff16021790555060038201548160030155600482015481600401556005820154816005015560068201548160060155600782015481600701556008820160009054906101000a900473ffffffffffffffffffffffffffffffffffffffff168160080160006101000a81548173ffffffffffffffffffffffffffffffffffffffff021916908373ffffffffffffffffffffffffffffffffffffffff1602179055506008820160149054906101000a900460ff168160080160146101000a81548160ff021916908360ff1602179055506008820160159054906101000a900460ff168160080160156101000a81548160ff02191690836005811115610ab457610ab3612bdf565b5b021790555050507fc32e04bf1356c91e89bdc0de134ba5c3fc8df94d30cea4436e9346bc335199ed838383604051610aee93929190613c11565b60405180910390a1505050565b6001602052806000526040600020600091509050806000018054610b1e90613135565b80601f0160208091040260200160405190810160405280929190818152602001828054610b4a90613135565b8015610b975780601f10610b6c57610100808354040283529160200191610b97565b820191906000526020600020905b815481529060010190602001808311610b7a57829003601f168201915b505050505090806001018054610bac90613135565b80601f0160208091040260200160405190810160405280929190818152602001828054610bd890613135565b8015610c255780601f10610bfa57610100808354040283529160200191610c25565b820191906000526020600020905b815481529060010190602001808311610c0857829003601f168201915b505050505090806002018054610c3a90613135565b80601f0160208091040260200160405190810160405280929190818152602001828054610c6690613135565b8015610cb35780601f10610c8857610100808354040283529160200191610cb3565b820191906000526020600020905b815481529060010190602001808311610c9657829003601f168201915b505050505090806003018054610cc890613135565b80601f0160208091040260200160405190810160405280929190818152602001828054610cf490613135565b8015610d415780601f10610d1657610100808354040283529160200191610d41565b820191906000526020600020905b815481529060010190602001808311610d2457829003601f168201915b505050505090806004018054610d5690613135565b80601f0160208091040260200160405190810160405280929190818152602001828054610d8290613135565b8015610dcf5780601f10610da457610100808354040283529160200191610dcf565b820191906000526020600020905b815481529060010190602001808311610db257829003601f168201915b5050505050908060050154908060060160009054906101000a900473ffffffffffffffffffffffffffffffffffffffff16905087565b600660009054906101000a900473ffffffffffffffffffffffffffffffffffffffff1673ffffffffffffffffffffffffffffffffffffffff163373ffffffffffffffffffffffffffffffffffffffff1614610e95576040517f08c379a0000000000000000000000000000000000000000000000000000000008152600401610e8c90613c96565b60405180910390fd5b5050565b8060c0016020810190610eac91906127d3565b600860009054906101000a900473ffffffffffffffffffffffffffffffffffffffff1673ffffffffffffffffffffffffffffffffffffffff1663b9209e33826040518263ffffffff1660e01b8152600401610f0791906126f0565b602060405180830381865afa158015610f24573d6000803e3d6000fd5b505050506040513d601f19601f82011682018060405250810190610f489190612e12565b610f87576040517f08c379a0000000000000000000000000000000000000000000000000000000008152600401610f7e90612e8b565b60405180910390fd5b8160c0016020810190610f9a91906127d3565b73ffffffffffffffffffffffffffffffffffffffff163373ffffffffffffffffffffffffffffffffffffffff1614611007576040517f08c379a0000000000000000000000000000000000000000000000000000000008152600401610ffe90613d02565b60405180910390fd5b6000600381111561101b5761101a612bdf565b5b600460003373ffffffffffffffffffffffffffffffffffffffff1673ffffffffffffffffffffffffffffffffffffffff16815260200190815260200160002060009054906101000a900460ff16600381111561107a57611079612bdf565b5b146110ba576040517f08c379a00000000000000000000000000000000000000000000000000000000081526004016110b190613d6e565b60405180910390fd5b81600160008460c00160208101906110d291906127d3565b73ffffffffffffffffffffffffffffffffffffffff1673ffffffffffffffffffffffffffffffffffffffff16815260200190815260200160002081816111189190613e79565b9050506001600460003373ffffffffffffffffffffffffffffffffffffffff1673ffffffffffffffffffffffffffffffffffffffff16815260200190815260200160002060006101000a81548160ff0219169083600381111561117e5761117d612bdf565b5b02179055505050565b600660009054906101000a900473ffffffffffffffffffffffffffffffffffffffff1673ffffffffffffffffffffffffffffffffffffffff163373ffffffffffffffffffffffffffffffffffffffff1614611217576040517f08c379a000000000000000000000000000000000000000000000000000000000815260040161120e90613c96565b60405180910390fd5b6001600581111561122b5761122a612bdf565b5b6000838360405161123d929190612edb565b908152602001604051809103902060080160159054906101000a900460ff16600581111561126e5761126d612bdf565b5b146112ae576040517f08c379a00000000000000000000000000000000000000000000000000000000081526004016112a590613069565b60405180910390fd5b6002600083836040516112c2929190612edb565b908152602001604051809103902060080160156101000a81548160ff021916908360058111156112f5576112f4612bdf565b5b02179055506002600a60008484604051611310929190612edb565b9081526020016040518091039020600701548154811061133357611332613e87565b5b906000526020600020906009020160080160156101000a81548160ff0219169083600581111561136657611365612bdf565b5b02179055507f039501081328ffe3eb02459ad6f6e90b69e23ba1422b574ee84c1f52b2fc0310828260405161139c929190612f21565b60405180910390a15050565b60026020528060005260406000206000915090508060000180546113cb90613135565b80601f01602080910402602001604051908101604052809291908181526020018280546113f790613135565b80156114445780601f1061141957610100808354040283529160200191611444565b820191906000526020600020905b81548152906001019060200180831161142757829003601f168201915b50505050509080600101805461145990613135565b80601f016020809104026020016040519081016040528092919081815260200182805461148590613135565b80156114d25780601f106114a7576101008083540402835291602001916114d2565b820191906000526020600020905b8154815290600101906020018083116114b557829003601f168201915b5050505050908060020180546114e790613135565b80601f016020809104026020016040519081016040528092919081815260200182805461151390613135565b80156115605780601f1061153557610100808354040283529160200191611560565b820191906000526020600020905b81548152906001019060200180831161154357829003601f168201915b5050505050908060030160009054906101000a900473ffffffffffffffffffffffffffffffffffffffff16905084565b600660009054906101000a900473ffffffffffffffffffffffffffffffffffffffff1673ffffffffffffffffffffffffffffffffffffffff163373ffffffffffffffffffffffffffffffffffffffff1614611620576040517f08c379a000000000000000000000000000000000000000000000000000000000815260040161161790613c96565b60405180910390fd5b6001600581111561163457611633612bdf565b5b60008383604051611646929190612edb565b908152602001604051809103902060080160159054906101000a900460ff16600581111561167757611676612bdf565b5b146116b7576040517f08c379a00000000000000000000000000000000000000000000000000000000081526004016116ae90613069565b60405180910390fd5b6003600083836040516116cb929190612edb565b908152602001604051809103902060080160156101000a81548160ff021916908360058111156116fe576116fd612bdf565b5b02179055506003600a60008484604051611719929190612edb565b9081526020016040518091039020600701548154811061173c5761173b613e87565b5b906000526020600020906009020160080160156101000a81548160ff0219169083600581111561176f5761176e612bdf565b5b02179055507f735ccdd611541d36c82a3622baab7f58b8a0f5be664555b0d9c95ddde16096d382826040516117a5929190612f21565b60405180910390a15050565b600660009054906101000a900473ffffffffffffffffffffffffffffffffffffffff1673ffffffffffffffffffffffffffffffffffffffff163373ffffffffffffffffffffffffffffffffffffffff1614611841576040517f08c379a000000000000000000000000000000000000000000000000000000000815260040161183890613c96565b60405180910390fd5b6001600381111561185557611854612bdf565b5b600560008373ffffffffffffffffffffffffffffffffffffffff1673ffffffffffffffffffffffffffffffffffffffff16815260200190815260200160002060009054906101000a900460ff1660038111156118b4576118b3612bdf565b5b146118f4576040517f08c379a00000000000000000000000000000000000000000000000000000000081526004016118eb90613d6e565b60405180910390fd5b6002600560008373ffffffffffffffffffffffffffffffffffffffff1673ffffffffffffffffffffffffffffffffffffffff16815260200190815260200160002060006101000a81548160ff0219169083600381111561195757611956612bdf565b5b0217905550600760009054906101000a900473ffffffffffffffffffffffffffffffffffffffff1673ffffffffffffffffffffffffffffffffffffffff1663cfde1890826040518263ffffffff1660e01b81526004016119b79190613f02565b600060405180830381600087803b1580156119d157600080fd5b505af11580156119e5573d6000803e3d6000fd5b5050505050565b600660009054906101000a900473ffffffffffffffffffffffffffffffffffffffff1681565b600660009054906101000a900473ffffffffffffffffffffffffffffffffffffffff1673ffffffffffffffffffffffffffffffffffffffff163373ffffffffffffffffffffffffffffffffffffffff1614611aa2576040517f08c379a0000000000000000000000000000000000000000000000000000000008152600401611a9990613c96565b60405180910390fd5b60016003811115611ab657611ab5612bdf565b5b600460008373ffffffffffffffffffffffffffffffffffffffff1673ffffffffffffffffffffffffffffffffffffffff16815260200190815260200160002060009054906101000a900460ff166003811115611b1557611b14612bdf565b5b14611b55576040517f08c379a0000000000000000000000000000000000000000000000000000000008152600401611b4c90613d6e565b60405180910390fd5b6002600460008373ffffffffffffffffffffffffffffffffffffffff1673ffffffffffffffffffffffffffffffffffffffff16815260200190815260200160002060006101000a81548160ff02191690836003811115611bb857611bb7612bdf565b5b0217905550600760009054906101000a900473ffffffffffffffffffffffffffffffffffffffff1673ffffffffffffffffffffffffffffffffffffffff1663cfde1890826040518263ffffffff1660e01b8152600401611c189190613f7c565b600060405180830381600087803b158015611c3257600080fd5b505af1158015611c46573d6000803e3d6000fd5b5050505050565b600081805160208101820180518482526020830160208501208183528095505050505050600091509050806000018054611c8690613135565b80601f0160208091040260200160405190810160405280929190818152602001828054611cb290613135565b8015611cff5780601f10611cd457610100808354040283529160200191611cff565b820191906000526020600020905b815481529060010190602001808311611ce257829003601f168201915b505050505090806001018054611d1490613135565b80601f0160208091040260200160405190810160405280929190818152602001828054611d4090613135565b8015611d8d5780601f10611d6257610100808354040283529160200191611d8d565b820191906000526020600020905b815481529060010190602001808311611d7057829003601f168201915b5050505050908060020160009054906101000a900473ffffffffffffffffffffffffffffffffffffffff16908060030154908060040154908060050154908060060154908060070154908060080160009054906101000a900473ffffffffffffffffffffffffffffffffffffffff16908060080160149054906101000a900460ff16908060080160159054906101000a900460ff1690508b565b600660009054906101000a900473ffffffffffffffffffffffffffffffffffffffff1673ffffffffffffffffffffffffffffffffffffffff163373ffffffffffffffffffffffffffffffffffffffff1614611eb7576040517f08c379a0000000000000000000000000000000000000000000000000000000008152600401611eae90613c96565b60405180910390fd5b565b600660009054906101000a900473ffffffffffffffffffffffffffffffffffffffff1673ffffffffffffffffffffffffffffffffffffffff163373ffffffffffffffffffffffffffffffffffffffff1614611f49576040517f08c379a0000000000000000000000000000000000000000000000000000000008152600401611f4090613c96565b60405180910390fd5b60016003811115611f5d57611f5c612bdf565b5b600460008373ffffffffffffffffffffffffffffffffffffffff1673ffffffffffffffffffffffffffffffffffffffff16815260200190815260200160002060009054906101000a900460ff166003811115611fbc57611fbb612bdf565b5b14611ffc576040517f08c379a0000000000000000000000000000000000000000000000000000000008152600401611ff390613d6e565b60405180910390fd5b6003600460008373ffffffffffffffffffffffffffffffffffffffff1673ffffffffffffffffffffffffffffffffffffffff16815260200190815260200160002060006101000a81548160ff0219169083600381111561205f5761205e612bdf565b5b021790555050565b600760009054906101000a900473ffffffffffffffffffffffffffffffffffffffff1681565b600660009054906101000a900473ffffffffffffffffffffffffffffffffffffffff1673ffffffffffffffffffffffffffffffffffffffff163373ffffffffffffffffffffffffffffffffffffffff161461211d576040517f08c379a000000000000000000000000000000000000000000000000000000000815260040161211490613c96565b60405180910390fd5b6001600381111561213157612130612bdf565b5b600560008373ffffffffffffffffffffffffffffffffffffffff1673ffffffffffffffffffffffffffffffffffffffff16815260200190815260200160002060009054906101000a900460ff1660038111156121905761218f612bdf565b5b146121d0576040517f08c379a00000000000000000000000000000000000000000000000000000000081526004016121c790613d6e565b60405180910390fd5b6003600560008373ffffffffffffffffffffffffffffffffffffffff1673ffffffffffffffffffffffffffffffffffffffff16815260200190815260200160002060006101000a81548160ff0219169083600381111561223357612232612bdf565b5b021790555050565b80606001602081019061224e91906127d3565b600860009054906101000a900473ffffffffffffffffffffffffffffffffffffffff1673ffffffffffffffffffffffffffffffffffffffff1663b9209e33826040518263ffffffff1660e01b81526004016122a991906126f0565b602060405180830381865afa1580156122c6573d6000803e3d6000fd5b505050506040513d601f19601f820116820180604052508101906122ea9190612e12565b612329576040517f08c379a000000000000000000000000000000000000000000000000000000000815260040161232090612e8b565b60405180910390fd5b81606001602081019061233c91906127d3565b73ffffffffffffffffffffffffffffffffffffffff163373ffffffffffffffffffffffffffffffffffffffff16146123a9576040517f08c379a00000000000000000000000000000000000000000000000000000000081526004016123a090613d02565b60405180910390fd5b600060038111156123bd576123bc612bdf565b5b600560003373ffffffffffffffffffffffffffffffffffffffff1673ffffffffffffffffffffffffffffffffffffffff16815260200190815260200160002060009054906101000a900460ff16600381111561241c5761241b612bdf565b5b1461245c576040517f08c379a000000000000000000000000000000000000000000000000000000000815260040161245390613d6e565b60405180910390fd5b816002600084606001602081019061247491906127d3565b73ffffffffffffffffffffffffffffffffffffffff1673ffffffffffffffffffffffffffffffffffffffff16815260200190815260200160002081816124ba9190614032565b9050506001600560003373ffffffffffffffffffffffffffffffffffffffff1673ffffffffffffffffffffffffffffffffffffffff16815260200190815260200160002060006101000a81548160ff021916908360038111156125205761251f612bdf565b5b02179055505050565b60056020528060005260406000206000915054906101000a900460ff1681565b60046020528060005260406000206000915054906101000a900460ff1681565b6003818051602081018201805184825260208301602085012081835280955050505050506000915054906101000a900473ffffffffffffffffffffffffffffffffffffffff1681565b6000604051905090565b600080fd5b600080fd5b600080fd5b600080fd5b600080fd5b60008083601f8401126125eb576125ea6125c6565b5b8235905067ffffffffffffffff811115612608576126076125cb565b5b602083019150836001820283011115612624576126236125d0565b5b9250929050565b600080fd5b6000604082840312156126465761264561262b565b5b81905092915050565b600080600060608486031215612668576126676125bc565b5b600084013567ffffffffffffffff811115612686576126856125c1565b5b612692868287016125d5565b935093505060206126a586828701612630565b9150509250925092565b600073ffffffffffffffffffffffffffffffffffffffff82169050919050565b60006126da826126af565b9050919050565b6126ea816126cf565b82525050565b600060208201905061270560008301846126e1565b92915050565b600061016082840312156127225761272161262b565b5b81905092915050565b600080600060408486031215612744576127436125bc565b5b600084013567ffffffffffffffff811115612762576127616125c1565b5b61276e868287016125d5565b9350935050602084013567ffffffffffffffff811115612791576127906125c1565b5b61279d8682870161270b565b9150509250925092565b6127b0816126cf565b81146127bb57600080fd5b50565b6000813590506127cd816127a7565b92915050565b6000602082840312156127e9576127e86125bc565b5b60006127f7848285016127be565b91505092915050565b600081519050919050565b600082825260208201905092915050565b60005b8381101561283a57808201518184015260208101905061281f565b60008484015250505050565b6000601f19601f8301169050919050565b600061286282612800565b61286c818561280b565b935061287c81856020860161281c565b61288581612846565b840191505092915050565b6000819050919050565b6128a381612890565b82525050565b600060e08201905081810360008301526128c3818a612857565b905081810360208301526128d78189612857565b905081810360408301526128eb8188612857565b905081810360608301526128ff8187612857565b905081810360808301526129138186612857565b905061292260a083018561289a565b61292f60c08301846126e1565b98975050505050505050565b60008060208385031215612952576129516125bc565b5b600083013567ffffffffffffffff8111156129705761296f6125c1565b5b61297c858286016125d5565b92509250509250929050565b600060e0828403121561299e5761299d61262b565b5b81905092915050565b6000602082840312156129bd576129bc6125bc565b5b600082013567ffffffffffffffff8111156129db576129da6125c1565b5b6129e784828501612988565b91505092915050565b60006080820190508181036000830152612a0a8187612857565b90508181036020830152612a1e8186612857565b90508181036040830152612a328185612857565b9050612a4160608301846126e1565b95945050505050565b600080fd5b7f4e487b7100000000000000000000000000000000000000000000000000000000600052604160045260246000fd5b612a8782612846565b810181811067ffffffffffffffff82111715612aa657612aa5612a4f565b5b80604052505050565b6000612ab96125b2565b9050612ac58282612a7e565b919050565b600067ffffffffffffffff821115612ae557612ae4612a4f565b5b612aee82612846565b9050602081019050919050565b82818337600083830152505050565b6000612b1d612b1884612aca565b612aaf565b905082815260208101848484011115612b3957612b38612a4a565b5b612b44848285612afb565b509392505050565b600082601f830112612b6157612b606125c6565b5b8135612b71848260208601612b0a565b91505092915050565b600060208284031215612b9057612b8f6125bc565b5b600082013567ffffffffffffffff811115612bae57612bad6125c1565b5b612bba84828501612b4c565b91505092915050565b600060ff82169050919050565b612bd981612bc3565b82525050565b7f4e487b7100000000000000000000000000000000000000000000000000000000600052602160045260246000fd5b60068110612c1f57612c1e612bdf565b5b50565b6000819050612c3082612c0e565b919050565b6000612c4082612c22565b9050919050565b612c5081612c35565b82525050565b6000610160820190508181036000830152612c71818e612857565b90508181036020830152612c85818d612857565b9050612c94604083018c6126e1565b612ca1606083018b61289a565b612cae608083018a61289a565b612cbb60a083018961289a565b612cc860c083018861289a565b612cd560e083018761289a565b612ce36101008301866126e1565b612cf1610120830185612bd0565b612cff610140830184612c47565b9c9b505050505050505050505050565b600060808284031215612d2557612d2461262b565b5b81905092915050565b600060208284031215612d4457612d436125bc565b5b600082013567ffffffffffffffff811115612d6257612d616125c1565b5b612d6e84828501612d0f565b91505092915050565b60048110612d8857612d87612bdf565b5b50565b6000819050612d9982612d77565b919050565b6000612da982612d8b565b9050919050565b612db981612d9e565b82525050565b6000602082019050612dd46000830184612db0565b92915050565b60008115159050919050565b612def81612dda565b8114612dfa57600080fd5b50565b600081519050612e0c81612de6565b92915050565b600060208284031215612e2857612e276125bc565b5b6000612e3684828501612dfd565b91505092915050565b7f4143434f554e545f4e4f545f414150524f564544000000000000000000000000600082015250565b6000612e7560148361280b565b9150612e8082612e3f565b602082019050919050565b60006020820190508181036000830152612ea481612e68565b9050919050565b600081905092915050565b6000612ec28385612eab565b9350612ecf838584612afb565b82840190509392505050565b6000612ee8828486612eb6565b91508190509392505050565b6000612f00838561280b565b9350612f0d838584612afb565b612f1683612846565b840190509392505050565b60006020820190508181036000830152612f3c818486612ef4565b90509392505050565b7f4f4e4c595f495353554552530000000000000000000000000000000000000000600082015250565b6000612f7b600c8361280b565b9150612f8682612f45565b602082019050919050565b60006020820190508181036000830152612faa81612f6e565b9050919050565b7f494e56414c49445f4953535545525f4144445245535300000000000000000000600082015250565b6000612fe760168361280b565b9150612ff282612fb1565b602082019050919050565b6000602082019050818103600083015261301681612fda565b9050919050565b7f494e56414c49445f4445414c5f53544154555300000000000000000000000000600082015250565b600061305360138361280b565b915061305e8261301d565b602082019050919050565b6000602082019050818103600083015261308281613046565b9050919050565b600080fd5b600080fd5b600080fd5b600080833560016020038436030381126130b5576130b4613089565b5b80840192508235915067ffffffffffffffff8211156130d7576130d661308e565b5b6020830192506001820236038313156130f3576130f2613093565b5b509250929050565b600082905092915050565b7f4e487b7100000000000000000000000000000000000000000000000000000000600052602260045260246000fd5b6000600282049050600182168061314d57607f821691505b6020821081036131605761315f613106565b5b50919050565b60008190508160005260206000209050919050565b60006020601f8301049050919050565b600082821b905092915050565b6000600883026131c87fffffffffffffffffffffffffffffffffffffffffffffffffffffffffffffffff8261318b565b6131d2868361318b565b95508019841693508086168417925050509392505050565b6000819050919050565b600061320f61320a61320584612890565b6131ea565b612890565b9050919050565b6000819050919050565b613229836131f4565b61323d61323582613216565b848454613198565b825550505050565b600090565b613252613245565b61325d818484613220565b505050565b5b818110156132815761327660008261324a565b600181019050613263565b5050565b601f8211156132c65761329781613166565b6132a08461317b565b810160208510156132af578190505b6132c36132bb8561317b565b830182613262565b50505b505050565b600082821c905092915050565b60006132e9600019846008026132cb565b1980831691505092915050565b600061330283836132d8565b9150826002028217905092915050565b61331c83836130fb565b67ffffffffffffffff81111561333557613334612a4f565b5b61333f8254613135565b61334a828285613285565b6000601f8311600181146133795760008415613367578287013590505b61337185826132f6565b8655506133d9565b601f19841661338786613166565b60005b828110156133af5784890135825560018201915060208501945060208101905061338a565b868310156133cc57848901356133c8601f8916826132d8565b8355505b6001600288020188555050505b50505050505050565b6133ed838383613312565b505050565b600081356133ff816127a7565b80915050919050565b60008160001b9050919050565b600073ffffffffffffffffffffffffffffffffffffffff61343584613408565b9350801983169250808416831791505092915050565b600061346661346161345c846126af565b6131ea565b6126af565b9050919050565b60006134788261344b565b9050919050565b600061348a8261346d565b9050919050565b6000819050919050565b6134a48261347f565b6134b76134b082613491565b8354613415565b8255505050565b6134c781612890565b81146134d257600080fd5b50565b600081356134e2816134be565b80915050919050565b60007fffffffffffffffffffffffffffffffffffffffffffffffffffffffffffffffff61351784613408565b9350801983169250808416831791505092915050565b613536826131f4565b61354961354282613216565b83546134eb565b8255505050565b61355981612bc3565b811461356457600080fd5b50565b6000813561357481613550565b80915050919050565b60008160a01b9050919050565b600074ff00000000000000000000000000000000000000006135ab8461357d565b9350801983169250808416831791505092915050565b60006135dc6135d76135d284612bc3565b6131ea565b612bc3565b9050919050565b6000819050919050565b6135f6826135c1565b613609613602826135e3565b835461358a565b8255505050565b6006811061361d57600080fd5b50565b6000813561362d81613610565b80915050919050565b60008160a81b9050919050565b600075ff00000000000000000000000000000000000000000061366584613636565b9350801983169250808416831791505092915050565b600061368682612c22565b9050919050565b6000819050919050565b6136a08261367b565b6136b36136ac8261368d565b8354613643565b8255505050565b60008101600083016136cc8185613098565b6136d78183866133e2565b5050505060018101602083016136ed8185613098565b6136f88183866133e2565b5050505060028101604083018061370e816133f2565b905061371a818461349b565b50505060038101606083018061372f816134d5565b905061373b818461352d565b505050600481016080830180613750816134d5565b905061375c818461352d565b5050506005810160a0830180613771816134d5565b905061377d818461352d565b5050506006810160c0830180613792816134d5565b905061379e818461352d565b5050506007810160e08301806137b3816134d5565b90506137bf818461352d565b505050600881016101008301806137d5816133f2565b90506137e1818461349b565b505050600881016101208301806137f781613567565b905061380381846135ed565b5050506008810161014083018061381981613620565b90506138258184613697565b5050505050565b61383682826136ba565b5050565b60008154905061384981613135565b9050919050565b81810361385e575050613936565b6138678261383a565b67ffffffffffffffff8111156138805761387f612a4f565b5b61388a8254613135565b613895828285613285565b6000601f8311600181146138c457600084156138b2578287015490505b6138bc85826132f6565b86555061392f565b601f1984166138d287613166565b96506138dd86613166565b60005b82811015613905578489015482556001820191506001850194506020810190506138e0565b86831015613922578489015461391e601f8916826132d8565b8355505b6001600288020188555050505b5050505050505b565b600080fd5b600080fd5b600080fd5b6000808335600160200384360303811261396457613963613942565b5b83810192508235915060208301925067ffffffffffffffff82111561398c5761398b613938565b5b6001820236038313156139a2576139a161393d565b5b509250929050565b600082825260208201905092915050565b60006139c783856139aa565b93506139d4838584612afb565b6139dd83612846565b840190509392505050565b60006139f760208401846127be565b905092915050565b613a08816126cf565b82525050565b600081359050613a1d816134be565b92915050565b6000613a326020840184613a0e565b905092915050565b613a4381612890565b82525050565b600081359050613a5881613550565b92915050565b6000613a6d6020840184613a49565b905092915050565b613a7e81612bc3565b82525050565b600081359050613a9381613610565b92915050565b6000613aa86020840184613a84565b905092915050565b613ab981612c35565b82525050565b60006101608301613ad36000840184613947565b8583036000870152613ae68382846139bb565b92505050613af76020840184613947565b8583036020870152613b0a8382846139bb565b92505050613b1b60408401846139e8565b613b2860408601826139ff565b50613b366060840184613a23565b613b436060860182613a3a565b50613b516080840184613a23565b613b5e6080860182613a3a565b50613b6c60a0840184613a23565b613b7960a0860182613a3a565b50613b8760c0840184613a23565b613b9460c0860182613a3a565b50613ba260e0840184613a23565b613baf60e0860182613a3a565b50613bbe6101008401846139e8565b613bcc6101008601826139ff565b50613bdb610120840184613a5e565b613be9610120860182613a75565b50613bf8610140840184613a99565b613c06610140860182613ab0565b508091505092915050565b60006040820190508181036000830152613c2c818587612ef4565b90508181036020830152613c408184613abf565b9050949350505050565b7f4f4e4c595f544f504f535f4d414e414745520000000000000000000000000000600082015250565b6000613c8060128361280b565b9150613c8b82613c4a565b602082019050919050565b60006020820190508181036000830152613caf81613c73565b9050919050565b7f494e56414c49445f414444524553530000000000000000000000000000000000600082015250565b6000613cec600f8361280b565b9150613cf782613cb6565b602082019050919050565b60006020820190508181036000830152613d1b81613cdf565b9050919050565b7f434845434b5f594f55525f535441545553000000000000000000000000000000600082015250565b6000613d5860118361280b565b9150613d6382613d22565b602082019050919050565b60006020820190508181036000830152613d8781613d4b565b9050919050565b6000810160008301613da08185613098565b613dab8183866133e2565b505050506001810160208301613dc18185613098565b613dcc8183866133e2565b505050506002810160408301613de28185613098565b613ded8183866133e2565b505050506003810160608301613e038185613098565b613e0e8183866133e2565b505050506004810160808301613e248185613098565b613e2f8183866133e2565b505050506005810160a0830180613e45816134d5565b9050613e51818461352d565b5050506006810160c0830180613e66816133f2565b9050613e72818461349b565b5050505050565b613e838282613d8e565b5050565b7f4e487b7100000000000000000000000000000000000000000000000000000000600052603260045260246000fd5b7f494e564553544f52000000000000000000000000000000000000000000000000600082015250565b6000613eec60088361280b565b9150613ef782613eb6565b602082019050919050565b60006040820190508181036000830152613f1b81613edf565b9050613f2a60208301846126e1565b92915050565b7f4953535545520000000000000000000000000000000000000000000000000000600082015250565b6000613f6660068361280b565b9150613f7182613f30565b602082019050919050565b60006040820190508181036000830152613f9581613f59565b9050613fa460208301846126e1565b92915050565b6000810160008301613fbc8185613098565b613fc78183866133e2565b505050506001810160208301613fdd8185613098565b613fe88183866133e2565b505050506002810160408301613ffe8185613098565b6140098183866133e2565b5050505060038101606083018061401f816133f2565b905061402b818461349b565b5050505050565b61403c8282613faa565b505056fea2646970667358221220680aadce7cff40dad4c27398225e85e8af031b18a3a199b421656d33dc64442864736f6c63430008130033",
  "immutableReferences": {},
  "source": "// SPDX-License-Identifier: CC0-1.0\npragma solidity ^0.8.0;\n\nimport \"../interfaces/IToposBank.sol\";\nimport \"./ToposBankStorage.sol\";\nimport \"../interfaces/IRoles.sol\";\n\ncontract ToposBank is IToposBank, ToposBankStorage {\n    constructor(\n        address _toposManager,\n        address _rolesContract,\n        address _identityRegistryContract\n    ) {\n        toposManager = _toposManager;\n        rolesContract = _rolesContract;\n        IRoles(_rolesContract).setRole(\"MANAGER\", _toposManager);\n        identityRegistryContract = _identityRegistryContract;\n    }\n\n    function requestRegistrationIssuer(\n        BondData.Issuer calldata _issuer\n    ) external mustBeApproved(_issuer.walletAddress) {\n        require(msg.sender == _issuer.walletAddress, \"INVALID_ADDRESS\");\n        require(\n            issuerStatus[msg.sender] == BondData.StakeHolderStatus.UNDEFINED,\n            \"CHECK_YOUR_STATUS\"\n        );\n\n        issuers[_issuer.walletAddress] = _issuer;\n        issuerStatus[msg.sender] = BondData.StakeHolderStatus.SUBMITTED;\n    }\n\n    function requestRegistrationInvestor(\n        BondData.Investor calldata _investor\n    ) external mustBeApproved(_investor.walletAddress) {\n        require(msg.sender == _investor.walletAddress, \"INVALID_ADDRESS\");\n        require(\n            investorStatus[msg.sender] == BondData.StakeHolderStatus.UNDEFINED,\n            \"CHECK_YOUR_STATUS\"\n        );\n\n        investors[_investor.walletAddress] = _investor;\n        investorStatus[msg.sender] = BondData.StakeHolderStatus.SUBMITTED;\n    }\n\n    function approveIssuer(address _issuer) external onlyToposManager {\n        require(\n            issuerStatus[_issuer] == BondData.StakeHolderStatus.SUBMITTED,\n            \"CHECK_YOUR_STATUS\"\n        );\n\n        issuerStatus[_issuer] = BondData.StakeHolderStatus.APPROVED;\n        IRoles(rolesContract).setRole(\"ISSUER\", _issuer);\n    }\n\n    function approveInvestor(address _investor) external onlyToposManager {\n        require(\n            investorStatus[_investor] == BondData.StakeHolderStatus.SUBMITTED,\n            \"CHECK_YOUR_STATUS\"\n        );\n\n        investorStatus[_investor] = BondData.StakeHolderStatus.APPROVED;\n        IRoles(rolesContract).setRole(\"INVESTOR\", _investor);\n    }\n\n    function rejectIssuer(address _issuer) external onlyToposManager {\n        require(\n            issuerStatus[_issuer] == BondData.StakeHolderStatus.SUBMITTED,\n            \"CHECK_YOUR_STATUS\"\n        );\n\n        issuerStatus[_issuer] = BondData.StakeHolderStatus.REJECTED;\n    }\n\n    function rejectInvestor(address _investor) external onlyToposManager {\n        require(\n            investorStatus[_investor] == BondData.StakeHolderStatus.SUBMITTED,\n            \"CHECK_YOUR_STATUS\"\n        );\n\n        investorStatus[_investor] = BondData.StakeHolderStatus.REJECTED;\n    }\n\n    function submitDeal(\n        string calldata _dealID,\n        BondData.Deal calldata _deal\n    ) external {\n        require(\n            IRoles(rolesContract).isIssuer(msg.sender),\n            \"ONLY_ISSUERS\"\n        );\n        require(\n            msg.sender == _deal.issuerAddress,\n            \"INVALID_ISSUER_ADDRESS\"\n        );\n        require(\n            deals[_dealID].status == BondData.DealStatus.UNDEFINED,\n            \"INVALID_DEAL_STATUS\"\n        );\n\n        deals[_dealID] = _deal;\n        deals[_dealID].status = BondData.DealStatus.SUBMITTED;\n        deals[_dealID].index = listOfDeals.length;\n\n        listOfDeals.push(deals[_dealID]);\n\n        emit DealSubmitted(_dealID, _deal);\n    }\n\n    function approveDeal(\n        string calldata _dealID\n    ) external onlyToposManager {\n        require(\n            deals[_dealID].status == BondData.DealStatus.SUBMITTED,\n            \"INVALID_DEAL_STATUS\"\n        );\n\n        deals[_dealID].status = BondData.DealStatus.APPROVED;\n        listOfDeals[deals[_dealID].index].status = BondData.DealStatus.APPROVED;\n\n        emit DealAPproved(_dealID);\n    }\n\n    function rejectDeal(\n        string calldata _dealID\n    ) external onlyToposManager {\n        require(\n            deals[_dealID].status == BondData.DealStatus.SUBMITTED,\n            \"INVALID_DEAL_STATUS\"\n        );\n\n        deals[_dealID].status = BondData.DealStatus.REJECTED;\n        listOfDeals[deals[_dealID].index].status = BondData.DealStatus.REJECTED;\n\n        emit DealARejected(_dealID);\n    }\n\n    function registerForDeal(\n        string calldata _dealID,\n        BondData.Investment calldata _investment\n    ) external mustBeApproved(msg.sender) {\n        if(msg.sender != _investment.investor)\n            revert BondData.InvalidInvestorAddress(_investment.investor);\n        if(deals[_dealID].status != BondData.DealStatus.APPROVED)\n            revert BondData.IvalidDealStatus(_dealID);\n        \n        \n    }\n\n    function issue(string calldata _delaID) external onlyToposManager {\n\n    }\n\n    function redeem() external onlyToposManager {\n\n    }\n}",
  "sourcePath": "/Users/sam/Documents/Blockchain/Topos/ToposGrant/T-Grant/contracts/Topos/Bank/ToposBank.sol",
  "compiler": {
    "name": "solc",
    "version": "0.8.19+commit.7dd6d404.Emscripten.clang"
  },
  "schemaVersion": "3.4.9",
  "updatedAt": "2023-11-04T15:33:56.412Z",
  "devdoc": {
    "kind": "dev",
    "methods": {},
    "version": 1
  },
  "userdoc": {
    "kind": "user",
    "methods": {},
    "version": 1
  }
}