{
  "contractName": "ToposBank",
  "abi": [
    {
      "inputs": [
        {
          "internalType": "address",
          "name": "_toposManager",
          "type": "address"
        },
        {
          "internalType": "address",
          "name": "_rolesContract",
          "type": "address"
        },
        {
          "internalType": "address",
          "name": "_identityRegistryContract",
          "type": "address"
        },
        {
          "internalType": "uint256",
          "name": "_dealFees",
          "type": "uint256"
        }
      ],
      "stateMutability": "nonpayable",
      "type": "constructor"
    },
    {
      "inputs": [
        {
          "internalType": "string",
          "name": "dealID",
          "type": "string"
        }
      ],
      "name": "InvalidDealStatus",
      "type": "error"
    },
    {
      "anonymous": false,
      "inputs": [
        {
          "indexed": false,
          "internalType": "address",
          "name": "investor",
          "type": "address"
        }
      ],
      "name": "ApproveInvestor",
      "type": "event"
    },
    {
      "anonymous": false,
      "inputs": [
        {
          "indexed": false,
          "internalType": "address",
          "name": "issuer",
          "type": "address"
        }
      ],
      "name": "ApproveIssuer",
      "type": "event"
    },
    {
      "anonymous": false,
      "inputs": [
        {
          "indexed": false,
          "internalType": "string",
          "name": "_dealID",
          "type": "string"
        }
      ],
      "name": "BondIssue",
      "type": "event"
    },
    {
      "anonymous": false,
      "inputs": [
        {
          "indexed": false,
          "internalType": "string",
          "name": "_dealID",
          "type": "string"
        }
      ],
      "name": "BondRedeem",
      "type": "event"
    },
    {
      "anonymous": false,
      "inputs": [
        {
          "indexed": false,
          "internalType": "string",
          "name": "dealID",
          "type": "string"
        }
      ],
      "name": "DealAPproved",
      "type": "event"
    },
    {
      "anonymous": false,
      "inputs": [
        {
          "indexed": false,
          "internalType": "string",
          "name": "dealID",
          "type": "string"
        }
      ],
      "name": "DealARejected",
      "type": "event"
    },
    {
      "anonymous": false,
      "inputs": [
        {
          "indexed": false,
          "internalType": "string",
          "name": "dealID",
          "type": "string"
        },
        {
          "components": [
            {
              "internalType": "string",
              "name": "dealID",
              "type": "string"
            },
            {
              "internalType": "string",
              "name": "prospectusURI",
              "type": "string"
            },
            {
              "internalType": "address",
              "name": "issuerAddress",
              "type": "address"
            },
            {
              "internalType": "uint256",
              "name": "debtAmount",
              "type": "uint256"
            },
            {
              "internalType": "uint256",
              "name": "couponRate",
              "type": "uint256"
            },
            {
              "internalType": "uint256",
              "name": "couponFrequency",
              "type": "uint256"
            },
            {
              "internalType": "uint256",
              "name": "maturityDate",
              "type": "uint256"
            },
            {
              "internalType": "uint256",
              "name": "index",
              "type": "uint256"
            },
            {
              "internalType": "address",
              "name": "currency",
              "type": "address"
            },
            {
              "internalType": "uint8",
              "name": "couponType",
              "type": "uint8"
            },
            {
              "internalType": "enum BondData.DealStatus",
              "name": "status",
              "type": "uint8"
            }
          ],
          "indexed": false,
          "internalType": "struct BondData.Deal",
          "name": "deal",
          "type": "tuple"
        }
      ],
      "name": "DealSubmitted",
      "type": "event"
    },
    {
      "anonymous": false,
      "inputs": [
        {
          "indexed": false,
          "internalType": "string",
          "name": "dealID",
          "type": "string"
        },
        {
          "indexed": false,
          "internalType": "address",
          "name": "investor",
          "type": "address"
        }
      ],
      "name": "RegisterForDeal",
      "type": "event"
    },
    {
      "anonymous": false,
      "inputs": [
        {
          "indexed": false,
          "internalType": "address",
          "name": "investor",
          "type": "address"
        }
      ],
      "name": "RejectInvestor",
      "type": "event"
    },
    {
      "anonymous": false,
      "inputs": [
        {
          "indexed": false,
          "internalType": "address",
          "name": "issuer",
          "type": "address"
        }
      ],
      "name": "RejectIssuer",
      "type": "event"
    },
    {
      "anonymous": false,
      "inputs": [
        {
          "indexed": false,
          "internalType": "address",
          "name": "investor",
          "type": "address"
        }
      ],
      "name": "RequestInvestorRegistration",
      "type": "event"
    },
    {
      "anonymous": false,
      "inputs": [
        {
          "indexed": false,
          "internalType": "address",
          "name": "issuer",
          "type": "address"
        }
      ],
      "name": "RequestIssuerRegistration",
      "type": "event"
    },
    {
      "inputs": [
        {
          "internalType": "address",
          "name": "",
          "type": "address"
        },
        {
          "internalType": "string",
          "name": "",
          "type": "string"
        }
      ],
      "name": "amountInvested",
      "outputs": [
        {
          "internalType": "uint256",
          "name": "amount",
          "type": "uint256"
        },
        {
          "internalType": "bool",
          "name": "hasInvested",
          "type": "bool"
        },
        {
          "internalType": "uint256",
          "name": "index",
          "type": "uint256"
        }
      ],
      "stateMutability": "view",
      "type": "function"
    },
    {
      "inputs": [
        {
          "internalType": "string",
          "name": "",
          "type": "string"
        }
      ],
      "name": "dealBondContracts",
      "outputs": [
        {
          "internalType": "address",
          "name": "",
          "type": "address"
        }
      ],
      "stateMutability": "view",
      "type": "function"
    },
    {
      "inputs": [],
      "name": "dealFees",
      "outputs": [
        {
          "internalType": "uint256",
          "name": "",
          "type": "uint256"
        }
      ],
      "stateMutability": "view",
      "type": "function"
    },
    {
      "inputs": [
        {
          "internalType": "string",
          "name": "",
          "type": "string"
        },
        {
          "internalType": "uint256",
          "name": "",
          "type": "uint256"
        }
      ],
      "name": "dealInvestment",
      "outputs": [
        {
          "internalType": "address",
          "name": "investor",
          "type": "address"
        },
        {
          "internalType": "uint256",
          "name": "amount",
          "type": "uint256"
        }
      ],
      "stateMutability": "view",
      "type": "function"
    },
    {
      "inputs": [
        {
          "internalType": "string",
          "name": "",
          "type": "string"
        }
      ],
      "name": "deals",
      "outputs": [
        {
          "internalType": "string",
          "name": "dealID",
          "type": "string"
        },
        {
          "internalType": "string",
          "name": "prospectusURI",
          "type": "string"
        },
        {
          "internalType": "address",
          "name": "issuerAddress",
          "type": "address"
        },
        {
          "internalType": "uint256",
          "name": "debtAmount",
          "type": "uint256"
        },
        {
          "internalType": "uint256",
          "name": "couponRate",
          "type": "uint256"
        },
        {
          "internalType": "uint256",
          "name": "couponFrequency",
          "type": "uint256"
        },
        {
          "internalType": "uint256",
          "name": "maturityDate",
          "type": "uint256"
        },
        {
          "internalType": "uint256",
          "name": "index",
          "type": "uint256"
        },
        {
          "internalType": "address",
          "name": "currency",
          "type": "address"
        },
        {
          "internalType": "uint8",
          "name": "couponType",
          "type": "uint8"
        },
        {
          "internalType": "enum BondData.DealStatus",
          "name": "status",
          "type": "uint8"
        }
      ],
      "stateMutability": "view",
      "type": "function"
    },
    {
      "inputs": [],
      "name": "identityRegistryContract",
      "outputs": [
        {
          "internalType": "address",
          "name": "",
          "type": "address"
        }
      ],
      "stateMutability": "view",
      "type": "function"
    },
    {
      "inputs": [
        {
          "internalType": "address",
          "name": "",
          "type": "address"
        }
      ],
      "name": "investorStatus",
      "outputs": [
        {
          "internalType": "enum BondData.StakeHolderStatus",
          "name": "",
          "type": "uint8"
        }
      ],
      "stateMutability": "view",
      "type": "function"
    },
    {
      "inputs": [
        {
          "internalType": "address",
          "name": "",
          "type": "address"
        }
      ],
      "name": "investors",
      "outputs": [
        {
          "internalType": "string",
          "name": "name",
          "type": "string"
        },
        {
          "internalType": "string",
          "name": "country",
          "type": "string"
        },
        {
          "internalType": "string",
          "name": "investorType",
          "type": "string"
        },
        {
          "internalType": "address",
          "name": "walletAddress",
          "type": "address"
        }
      ],
      "stateMutability": "view",
      "type": "function"
    },
    {
      "inputs": [
        {
          "internalType": "address",
          "name": "",
          "type": "address"
        },
        {
          "internalType": "uint256",
          "name": "",
          "type": "uint256"
        }
      ],
      "name": "issuerDeals",
      "outputs": [
        {
          "internalType": "string",
          "name": "dealID",
          "type": "string"
        },
        {
          "internalType": "string",
          "name": "prospectusURI",
          "type": "string"
        },
        {
          "internalType": "address",
          "name": "issuerAddress",
          "type": "address"
        },
        {
          "internalType": "uint256",
          "name": "debtAmount",
          "type": "uint256"
        },
        {
          "internalType": "uint256",
          "name": "couponRate",
          "type": "uint256"
        },
        {
          "internalType": "uint256",
          "name": "couponFrequency",
          "type": "uint256"
        },
        {
          "internalType": "uint256",
          "name": "maturityDate",
          "type": "uint256"
        },
        {
          "internalType": "uint256",
          "name": "index",
          "type": "uint256"
        },
        {
          "internalType": "address",
          "name": "currency",
          "type": "address"
        },
        {
          "internalType": "uint8",
          "name": "couponType",
          "type": "uint8"
        },
        {
          "internalType": "enum BondData.DealStatus",
          "name": "status",
          "type": "uint8"
        }
      ],
      "stateMutability": "view",
      "type": "function"
    },
    {
      "inputs": [
        {
          "internalType": "address",
          "name": "",
          "type": "address"
        }
      ],
      "name": "issuerStatus",
      "outputs": [
        {
          "internalType": "enum BondData.StakeHolderStatus",
          "name": "",
          "type": "uint8"
        }
      ],
      "stateMutability": "view",
      "type": "function"
    },
    {
      "inputs": [
        {
          "internalType": "address",
          "name": "",
          "type": "address"
        }
      ],
      "name": "issuers",
      "outputs": [
        {
          "internalType": "string",
          "name": "documentURI",
          "type": "string"
        },
        {
          "internalType": "string",
          "name": "name",
          "type": "string"
        },
        {
          "internalType": "string",
          "name": "country",
          "type": "string"
        },
        {
          "internalType": "string",
          "name": "issuerType",
          "type": "string"
        },
        {
          "internalType": "string",
          "name": "creditRating",
          "type": "string"
        },
        {
          "internalType": "uint256",
          "name": "carbonCredit",
          "type": "uint256"
        },
        {
          "internalType": "address",
          "name": "walletAddress",
          "type": "address"
        }
      ],
      "stateMutability": "view",
      "type": "function"
    },
    {
      "inputs": [],
      "name": "issuersFundContract",
      "outputs": [
        {
          "internalType": "address",
          "name": "",
          "type": "address"
        }
      ],
      "stateMutability": "view",
      "type": "function"
    },
    {
      "inputs": [],
      "name": "rolesContract",
      "outputs": [
        {
          "internalType": "address",
          "name": "",
          "type": "address"
        }
      ],
      "stateMutability": "view",
      "type": "function"
    },
    {
      "inputs": [],
      "name": "toposManager",
      "outputs": [
        {
          "internalType": "address",
          "name": "",
          "type": "address"
        }
      ],
      "stateMutability": "view",
      "type": "function"
    },
    {
      "inputs": [
        {
          "internalType": "string",
          "name": "",
          "type": "string"
        }
      ],
      "name": "totalAmountInvestedForDeal",
      "outputs": [
        {
          "internalType": "uint256",
          "name": "",
          "type": "uint256"
        }
      ],
      "stateMutability": "view",
      "type": "function"
    },
    {
      "inputs": [
        {
          "components": [
            {
              "internalType": "string",
              "name": "documentURI",
              "type": "string"
            },
            {
              "internalType": "string",
              "name": "name",
              "type": "string"
            },
            {
              "internalType": "string",
              "name": "country",
              "type": "string"
            },
            {
              "internalType": "string",
              "name": "issuerType",
              "type": "string"
            },
            {
              "internalType": "string",
              "name": "creditRating",
              "type": "string"
            },
            {
              "internalType": "uint256",
              "name": "carbonCredit",
              "type": "uint256"
            },
            {
              "internalType": "address",
              "name": "walletAddress",
              "type": "address"
            }
          ],
          "internalType": "struct BondData.Issuer",
          "name": "_issuer",
          "type": "tuple"
        }
      ],
      "name": "requestRegistrationIssuer",
      "outputs": [],
      "stateMutability": "nonpayable",
      "type": "function"
    },
    {
      "inputs": [
        {
          "components": [
            {
              "internalType": "string",
              "name": "name",
              "type": "string"
            },
            {
              "internalType": "string",
              "name": "country",
              "type": "string"
            },
            {
              "internalType": "string",
              "name": "investorType",
              "type": "string"
            },
            {
              "internalType": "address",
              "name": "walletAddress",
              "type": "address"
            }
          ],
          "internalType": "struct BondData.Investor",
          "name": "_investor",
          "type": "tuple"
        }
      ],
      "name": "requestRegistrationInvestor",
      "outputs": [],
      "stateMutability": "nonpayable",
      "type": "function"
    },
    {
      "inputs": [
        {
          "internalType": "address",
          "name": "_issuer",
          "type": "address"
        }
      ],
      "name": "approveIssuer",
      "outputs": [],
      "stateMutability": "nonpayable",
      "type": "function"
    },
    {
      "inputs": [
        {
          "internalType": "address",
          "name": "_investor",
          "type": "address"
        }
      ],
      "name": "approveInvestor",
      "outputs": [],
      "stateMutability": "nonpayable",
      "type": "function"
    },
    {
      "inputs": [
        {
          "internalType": "address",
          "name": "_issuer",
          "type": "address"
        }
      ],
      "name": "rejectIssuer",
      "outputs": [],
      "stateMutability": "nonpayable",
      "type": "function"
    },
    {
      "inputs": [
        {
          "internalType": "address",
          "name": "_investor",
          "type": "address"
        }
      ],
      "name": "rejectInvestor",
      "outputs": [],
      "stateMutability": "nonpayable",
      "type": "function"
    },
    {
      "inputs": [
        {
          "internalType": "string",
          "name": "_dealID",
          "type": "string"
        },
        {
          "components": [
            {
              "internalType": "string",
              "name": "dealID",
              "type": "string"
            },
            {
              "internalType": "string",
              "name": "prospectusURI",
              "type": "string"
            },
            {
              "internalType": "address",
              "name": "issuerAddress",
              "type": "address"
            },
            {
              "internalType": "uint256",
              "name": "debtAmount",
              "type": "uint256"
            },
            {
              "internalType": "uint256",
              "name": "couponRate",
              "type": "uint256"
            },
            {
              "internalType": "uint256",
              "name": "couponFrequency",
              "type": "uint256"
            },
            {
              "internalType": "uint256",
              "name": "maturityDate",
              "type": "uint256"
            },
            {
              "internalType": "uint256",
              "name": "index",
              "type": "uint256"
            },
            {
              "internalType": "address",
              "name": "currency",
              "type": "address"
            },
            {
              "internalType": "uint8",
              "name": "couponType",
              "type": "uint8"
            },
            {
              "internalType": "enum BondData.DealStatus",
              "name": "status",
              "type": "uint8"
            }
          ],
          "internalType": "struct BondData.Deal",
          "name": "_deal",
          "type": "tuple"
        }
      ],
      "name": "submitDeal",
      "outputs": [],
      "stateMutability": "nonpayable",
      "type": "function"
    },
    {
      "inputs": [
        {
          "internalType": "string",
          "name": "_dealID",
          "type": "string"
        }
      ],
      "name": "approveDeal",
      "outputs": [],
      "stateMutability": "nonpayable",
      "type": "function"
    },
    {
      "inputs": [
        {
          "internalType": "string",
          "name": "_dealID",
          "type": "string"
        }
      ],
      "name": "rejectDeal",
      "outputs": [],
      "stateMutability": "nonpayable",
      "type": "function"
    },
    {
      "inputs": [
        {
          "internalType": "string",
          "name": "_dealID",
          "type": "string"
        },
        {
          "internalType": "uint256",
          "name": "_amount",
          "type": "uint256"
        }
      ],
      "name": "registerForDeal",
      "outputs": [],
      "stateMutability": "nonpayable",
      "type": "function"
    },
    {
      "inputs": [
        {
          "internalType": "string",
          "name": "_dealID",
          "type": "string"
        },
        {
          "components": [
            {
              "internalType": "string",
              "name": "isin",
              "type": "string"
            },
            {
              "internalType": "string",
              "name": "name",
              "type": "string"
            },
            {
              "internalType": "string",
              "name": "symbol",
              "type": "string"
            },
            {
              "internalType": "address",
              "name": "currency",
              "type": "address"
            },
            {
              "internalType": "uint256",
              "name": "denomination",
              "type": "uint256"
            },
            {
              "internalType": "uint256",
              "name": "issueVolume",
              "type": "uint256"
            },
            {
              "internalType": "uint256",
              "name": "couponRate",
              "type": "uint256"
            },
            {
              "internalType": "uint8",
              "name": "couponType",
              "type": "uint8"
            },
            {
              "internalType": "uint256",
              "name": "couponFrequency",
              "type": "uint256"
            },
            {
              "internalType": "uint256",
              "name": "issueDate",
              "type": "uint256"
            },
            {
              "internalType": "uint256",
              "name": "maturityDate",
              "type": "uint256"
            }
          ],
          "internalType": "struct BondData.Bond",
          "name": "_bond",
          "type": "tuple"
        },
        {
          "internalType": "address",
          "name": "_bondContract",
          "type": "address"
        }
      ],
      "name": "issue",
      "outputs": [],
      "stateMutability": "nonpayable",
      "type": "function"
    },
    {
      "inputs": [
        {
          "internalType": "string",
          "name": "_dealID",
          "type": "string"
        },
        {
          "internalType": "address",
          "name": "_bondContract",
          "type": "address"
        }
      ],
      "name": "redeem",
      "outputs": [],
      "stateMutability": "nonpayable",
      "type": "function"
    },
    {
      "inputs": [
        {
          "internalType": "string",
          "name": "_dealID",
          "type": "string"
        }
      ],
      "name": "getTotalAmounInvested",
      "outputs": [
        {
          "internalType": "uint256",
          "name": "",
          "type": "uint256"
        }
      ],
      "stateMutability": "view",
      "type": "function"
    },
    {
      "inputs": [
        {
          "internalType": "string",
          "name": "_dealID",
          "type": "string"
        }
      ],
      "name": "getDealInvestment",
      "outputs": [
        {
          "components": [
            {
              "internalType": "address",
              "name": "investor",
              "type": "address"
            },
            {
              "internalType": "uint256",
              "name": "amount",
              "type": "uint256"
            }
          ],
          "internalType": "struct BondData.DealInvestment[]",
          "name": "",
          "type": "tuple[]"
        }
      ],
      "stateMutability": "view",
      "type": "function"
    },
    {
      "inputs": [],
      "name": "getDealFees",
      "outputs": [
        {
          "internalType": "uint256",
          "name": "",
          "type": "uint256"
        }
      ],
      "stateMutability": "view",
      "type": "function"
    },
    {
      "inputs": [
        {
          "internalType": "string",
          "name": "_dealID",
          "type": "string"
        }
      ],
      "name": "withdrawIssuerFund",
      "outputs": [],
      "stateMutability": "nonpayable",
      "type": "function"
    },
    {
      "inputs": [
        {
          "internalType": "string",
          "name": "_dealID",
          "type": "string"
        },
        {
          "internalType": "address",
          "name": "_bondContractAddress",
          "type": "address"
        }
      ],
      "name": "setBondContractAddress",
      "outputs": [],
      "stateMutability": "nonpayable",
      "type": "function"
    },
    {
      "inputs": [
        {
          "internalType": "address",
          "name": "_issuerFundContract",
          "type": "address"
        }
      ],
      "name": "setIssuerFundContract",
      "outputs": [],
      "stateMutability": "nonpayable",
      "type": "function"
    }
  ],
  "bytecode": "0x60806040523480156200001157600080fd5b50604051620068203803806200682083398181016040528101906200003791906200021f565b83600a60006101000a81548173ffffffffffffffffffffffffffffffffffffffff021916908373ffffffffffffffffffffffffffffffffffffffff16021790555082600b60006101000a81548173ffffffffffffffffffffffffffffffffffffffff021916908373ffffffffffffffffffffffffffffffffffffffff1602179055508273ffffffffffffffffffffffffffffffffffffffff1663cfde1890856040518263ffffffff1660e01b8152600401620000f4919062000303565b600060405180830381600087803b1580156200010f57600080fd5b505af115801562000124573d6000803e3d6000fd5b5050505081600c60006101000a81548173ffffffffffffffffffffffffffffffffffffffff021916908373ffffffffffffffffffffffffffffffffffffffff16021790555080600e819055505050505062000335565b600080fd5b600073ffffffffffffffffffffffffffffffffffffffff82169050919050565b6000620001ac826200017f565b9050919050565b620001be816200019f565b8114620001ca57600080fd5b50565b600081519050620001de81620001b3565b92915050565b6000819050919050565b620001f981620001e4565b81146200020557600080fd5b50565b6000815190506200021981620001ee565b92915050565b600080600080608085870312156200023c576200023b6200017a565b5b60006200024c87828801620001cd565b94505060206200025f87828801620001cd565b93505060406200027287828801620001cd565b9250506060620002858782880162000208565b91505092959194509250565b600082825260208201905092915050565b7f4d414e4147455200000000000000000000000000000000000000000000000000600082015250565b6000620002da60078362000291565b9150620002e782620002a2565b602082019050919050565b620002fd816200019f565b82525050565b600060408201905081810360008301526200031e81620002cb565b90506200032f6020830184620002f2565b92915050565b6164db80620003456000396000f3fe608060405234801561001057600080fd5b50600436106101fb5760003560e01c80637bafe3d01161011a578063ca53b391116100ad578063f936d49d1161007c578063f936d49d146105ec578063fb90e4411461061c578063fcbb3c181461063a578063fe0ab4b31461066a578063ff6689d01461069a576101fb565b8063ca53b3911461057a578063d304a81314610598578063d31628a0146105b4578063d7c4029c146105d0576101fb565b8063a0a57dac116100e9578063a0a57dac146104d6578063af9080f814610510578063c88efe651461052e578063c8d7f62e1461054a576101fb565b80637bafe3d0146104645780637de14129146104805780637f31ed731461049c57806382deb86e146104ba576101fb565b806348f92ee8116101925780635ed7e2c1116101615780635ed7e2c1146103b5578063605936ea146103e55780636f7bc9be14610415578063754f399a14610448576101fb565b806348f92ee814610312578063499fa18a1461032e57806349f5d1d91461035f578063507251cb14610399576101fb565b80631b59122c116101ce5780631b59122c1461028857806323c8d706146102a457806338a7543e146102c05780633dc349be146102f6576101fb565b8063041e9b8914610200578063088674e0146102325780630df8bfda146102505780631882c1951461026c575b600080fd5b61021a60048036038101906102159190614147565b6106b8565b604051610229939291906141d7565b60405180910390f35b61023a610712565b604051610247919061421d565b60405180910390f35b61026a600480360381019061026591906142c4565b610738565b005b61028660048036038101906102819190614324565b610ef8565b005b6102a2600480360381019061029d9190614380565b610f59565b005b6102be60048036038101906102b991906143ee565b6111ae565b005b6102da60048036038101906102d5919061446a565b61166b565b6040516102ed9796959493929190614516565b60405180910390f35b610310600480360381019061030b91906145c7565b611975565b005b61032c60048036038101906103279190614610565b611cac565b005b6103486004803603810190610343919061465d565b611ecd565b6040516103569291906146b9565b60405180910390f35b610379600480360381019061037491906146e2565b611f44565b6040516103909b9a999897969594939291906147b5565b60405180910390f35b6103b360048036038101906103ae919061488e565b612125565b005b6103cf60048036038101906103ca9190614380565b6126be565b6040516103dc919061491e565b60405180910390f35b6103ff60048036038101906103fa9190614610565b6126ec565b60405161040c919061491e565b60405180910390f35b61042f600480360381019061042a919061446a565b612717565b60405161043f9493929190614939565b60405180910390f35b610462600480360381019061045d9190614610565b6128ff565b005b61047e6004803603810190610479919061446a565b612b20565b005b61049a6004803603810190610495919061446a565b612c63565b005b6104a4612ed5565b6040516104b1919061421d565b60405180910390f35b6104d460048036038101906104cf919061446a565b612efb565b005b6104f060048036038101906104eb9190614380565b61316d565b6040516105079b9a999897969594939291906147b5565b60405180910390f35b610518613347565b604051610525919061491e565b60405180910390f35b6105486004803603810190610543919061446a565b61334d565b005b610564600480360381019061055f9190614610565b613532565b6040516105719190614a8f565b60405180910390f35b610582613612565b60405161058f919061421d565b60405180910390f35b6105b260048036038101906105ad919061446a565b613638565b005b6105ce60048036038101906105c99190614ad0565b61381d565b005b6105ea60048036038101906105e59190614b19565b613b54565b005b6106066004803603810190610601919061446a565b613ed6565b6040516106139190614bc1565b60405180910390f35b610624613ef6565b604051610631919061421d565b60405180910390f35b610654600480360381019061064f919061446a565b613f1c565b6040516106619190614bc1565b60405180910390f35b610684600480360381019061067f9190614380565b613f3c565b604051610691919061421d565b60405180910390f35b6106a2613f85565b6040516106af919061491e565b60405180910390f35b600860205281600052604060002081805160208101820180518482526020830160208501208183528095505050505050600091509150508060000154908060010160009054906101000a900460ff16908060020154905083565b600c60009054906101000a900473ffffffffffffffffffffffffffffffffffffffff1681565b33600c60009054906101000a900473ffffffffffffffffffffffffffffffffffffffff1673ffffffffffffffffffffffffffffffffffffffff1663b9209e33826040518263ffffffff1660e01b8152600401610794919061421d565b602060405180830381865afa1580156107b1573d6000803e3d6000fd5b505050506040513d601f19601f820116820180604052508101906107d59190614c08565b610814576040517f08c379a000000000000000000000000000000000000000000000000000000000815260040161080b90614c81565b60405180910390fd5b600060058585604051610828929190614cd1565b90815260200160405180910390205490506002600581111561084d5761084c61473e565b5b6000868660405161085f929190614cd1565b908152602001604051809103902060080160159054906101000a900460ff1660058111156108905761088f61473e565b5b146108d45784846040517fb71650840000000000000000000000000000000000000000000000000000000081526004016108cb929190614d17565b60405180910390fd5b600083141580156109135750600085856040516108f2929190614cd1565b90815260200160405180910390206003015481846109109190614d6a565b11155b610952576040517f08c379a000000000000000000000000000000000000000000000000000000000815260040161094990614dea565b60405180910390fd5b6000600860003373ffffffffffffffffffffffffffffffffffffffff1673ffffffffffffffffffffffffffffffffffffffff16815260200190815260200160002086866040516109a3929190614cd1565b908152602001604051809103902060010160009054906101000a900460ff16905083826109d09190614d6a565b600587876040516109e2929190614cd1565b9081526020016040518091039020819055508015610b8e576000600860003373ffffffffffffffffffffffffffffffffffffffff1673ffffffffffffffffffffffffffffffffffffffff1681526020019081526020016000208787604051610a4b929190614cd1565b90815260200160405180910390206002015490506000600860003373ffffffffffffffffffffffffffffffffffffffff1673ffffffffffffffffffffffffffffffffffffffff1681526020019081526020016000208888604051610ab0929190614cd1565b90815260200160405180910390206000015490508581610ad09190614d6a565b60048989604051610ae2929190614cd1565b90815260200160405180910390208381548110610b0257610b01614e0a565b5b9060005260206000209060020201600101819055508581610b239190614d6a565b600860003373ffffffffffffffffffffffffffffffffffffffff1673ffffffffffffffffffffffffffffffffffffffff1681526020019081526020016000208989604051610b72929190614cd1565b9081526020016040518091039020600001819055505050610d2b565b604051806060016040528085815260200160011515815260200160048888604051610bba929190614cd1565b908152602001604051809103902080549050815250600860003373ffffffffffffffffffffffffffffffffffffffff1673ffffffffffffffffffffffffffffffffffffffff1681526020019081526020016000208787604051610c1e929190614cd1565b90815260200160405180910390206000820151816000015560208201518160010160006101000a81548160ff0219169083151502179055506040820151816002015590505060048686604051610c75929190614cd1565b908152602001604051809103902060405180604001604052803373ffffffffffffffffffffffffffffffffffffffff16815260200186815250908060018154018082558091505060019003906000526020600020906002020160009091909190915060008201518160000160006101000a81548173ffffffffffffffffffffffffffffffffffffffff021916908373ffffffffffffffffffffffffffffffffffffffff1602179055506020820151816001015550505b600d60009054906101000a900473ffffffffffffffffffffffffffffffffffffffff1673ffffffffffffffffffffffffffffffffffffffff1663925b7cb68787876040518463ffffffff1660e01b8152600401610d8a93929190614e39565b600060405180830381600087803b158015610da457600080fd5b505af1158015610db8573d6000803e3d6000fd5b5050505060008686604051610dce929190614cd1565b908152602001604051809103902060080160009054906101000a900473ffffffffffffffffffffffffffffffffffffffff1673ffffffffffffffffffffffffffffffffffffffff166323b872dd33600d60009054906101000a900473ffffffffffffffffffffffffffffffffffffffff16670de0b6b3a764000088610e539190614e6b565b6040518463ffffffff1660e01b8152600401610e7193929190614ead565b6020604051808303816000875af1158015610e90573d6000803e3d6000fd5b505050506040513d601f19601f82011682018060405250810190610eb49190614c08565b507f0bdaf52b4de514796607307fbbcf007ee6d59e81e1be436b67c5a567a2e8d121868633604051610ee893929190614ee4565b60405180910390a1505050505050565b80600383604051610f099190614f47565b908152602001604051809103902060006101000a81548173ffffffffffffffffffffffffffffffffffffffff021916908373ffffffffffffffffffffffffffffffffffffffff1602179055505050565b60008082604051610f6a9190614f47565b908152602001604051809103902060020160009054906101000a900473ffffffffffffffffffffffffffffffffffffffff16905060008083604051610faf9190614f47565b908152602001604051809103902060080160009054906101000a900473ffffffffffffffffffffffffffffffffffffffff1690508173ffffffffffffffffffffffffffffffffffffffff163373ffffffffffffffffffffffffffffffffffffffff16148061106a5750600a60009054906101000a900473ffffffffffffffffffffffffffffffffffffffff1673ffffffffffffffffffffffffffffffffffffffff163373ffffffffffffffffffffffffffffffffffffffff16145b6110a9576040517f08c379a00000000000000000000000000000000000000000000000000000000081526004016110a090614faa565b60405180910390fd5b600073ffffffffffffffffffffffffffffffffffffffff168173ffffffffffffffffffffffffffffffffffffffff1603611118576040517f08c379a000000000000000000000000000000000000000000000000000000000815260040161110f90615016565b60405180910390fd5b600d60009054906101000a900473ffffffffffffffffffffffffffffffffffffffff1673ffffffffffffffffffffffffffffffffffffffff1663e04cd97f8484846040518463ffffffff1660e01b815260040161117793929190615036565b600060405180830381600087803b15801561119157600080fd5b505af11580156111a5573d6000803e3d6000fd5b50505050505050565b600b60009054906101000a900473ffffffffffffffffffffffffffffffffffffffff1673ffffffffffffffffffffffffffffffffffffffff1663877b9a67336040518263ffffffff1660e01b8152600401611209919061421d565b602060405180830381865afa158015611226573d6000803e3d6000fd5b505050506040513d601f19601f8201168201806040525081019061124a9190614c08565b611289576040517f08c379a0000000000000000000000000000000000000000000000000000000008152600401611280906150c0565b60405180910390fd5b80604001602081019061129c919061446a565b73ffffffffffffffffffffffffffffffffffffffff163373ffffffffffffffffffffffffffffffffffffffff1614611309576040517f08c379a00000000000000000000000000000000000000000000000000000000081526004016113009061512c565b60405180910390fd5b6000600581111561131d5761131c61473e565b5b6000848460405161132f929190614cd1565b908152602001604051809103902060080160159054906101000a900460ff1660058111156113605761135f61473e565b5b146113a0576040517f08c379a000000000000000000000000000000000000000000000000000000000815260040161139790615198565b60405180910390fd5b80600084846040516113b3929190614cd1565b908152602001604051809103902081816113cd9190615944565b9050506001600084846040516113e4929190614cd1565b908152602001604051809103902060080160156101000a81548160ff021916908360058111156114175761141661473e565b5b021790555060108054905060008484604051611434929190614cd1565b90815260200160405180910390206007018190555060106000848460405161145d929190614cd1565b90815260200160405180910390209080600181540180825580915050600190039060005260206000209060090201600090919091909150600082018160000190816114a89190615968565b50600182018160010190816114bd9190615968565b506002820160009054906101000a900473ffffffffffffffffffffffffffffffffffffffff168160020160006101000a81548173ffffffffffffffffffffffffffffffffffffffff021916908373ffffffffffffffffffffffffffffffffffffffff16021790555060038201548160030155600482015481600401556005820154816005015560068201548160060155600782015481600701556008820160009054906101000a900473ffffffffffffffffffffffffffffffffffffffff168160080160006101000a81548173ffffffffffffffffffffffffffffffffffffffff021916908373ffffffffffffffffffffffffffffffffffffffff1602179055506008820160149054906101000a900460ff168160080160146101000a81548160ff021916908360ff1602179055506008820160159054906101000a900460ff168160080160156101000a81548160ff021916908360058111156116245761162361473e565b5b021790555050507fc32e04bf1356c91e89bdc0de134ba5c3fc8df94d30cea4436e9346bc335199ed83838360405161165e93929190615cf6565b60405180910390a1505050565b600160205280600052604060002060009150905080600001805461168e90615264565b80601f01602080910402602001604051908101604052809291908181526020018280546116ba90615264565b80156117075780601f106116dc57610100808354040283529160200191611707565b820191906000526020600020905b8154815290600101906020018083116116ea57829003601f168201915b50505050509080600101805461171c90615264565b80601f016020809104026020016040519081016040528092919081815260200182805461174890615264565b80156117955780601f1061176a57610100808354040283529160200191611795565b820191906000526020600020905b81548152906001019060200180831161177857829003601f168201915b5050505050908060020180546117aa90615264565b80601f01602080910402602001604051908101604052809291908181526020018280546117d690615264565b80156118235780601f106117f857610100808354040283529160200191611823565b820191906000526020600020905b81548152906001019060200180831161180657829003601f168201915b50505050509080600301805461183890615264565b80601f016020809104026020016040519081016040528092919081815260200182805461186490615264565b80156118b15780601f10611886576101008083540402835291602001916118b1565b820191906000526020600020905b81548152906001019060200180831161189457829003601f168201915b5050505050908060040180546118c690615264565b80601f01602080910402602001604051908101604052809291908181526020018280546118f290615264565b801561193f5780601f106119145761010080835404028352916020019161193f565b820191906000526020600020905b81548152906001019060200180831161192257829003601f168201915b5050505050908060050154908060060160009054906101000a900473ffffffffffffffffffffffffffffffffffffffff16905087565b8060c0016020810190611988919061446a565b600c60009054906101000a900473ffffffffffffffffffffffffffffffffffffffff1673ffffffffffffffffffffffffffffffffffffffff1663b9209e33826040518263ffffffff1660e01b81526004016119e3919061421d565b602060405180830381865afa158015611a00573d6000803e3d6000fd5b505050506040513d601f19601f82011682018060405250810190611a249190614c08565b611a63576040517f08c379a0000000000000000000000000000000000000000000000000000000008152600401611a5a90614c81565b60405180910390fd5b8160c0016020810190611a76919061446a565b73ffffffffffffffffffffffffffffffffffffffff163373ffffffffffffffffffffffffffffffffffffffff1614611ae3576040517f08c379a0000000000000000000000000000000000000000000000000000000008152600401611ada90615d7b565b60405180910390fd5b60006003811115611af757611af661473e565b5b600660003373ffffffffffffffffffffffffffffffffffffffff1673ffffffffffffffffffffffffffffffffffffffff16815260200190815260200160002060009054906101000a900460ff166003811115611b5657611b5561473e565b5b14611b96576040517f08c379a0000000000000000000000000000000000000000000000000000000008152600401611b8d90615de7565b60405180910390fd5b81600160008460c0016020810190611bae919061446a565b73ffffffffffffffffffffffffffffffffffffffff1673ffffffffffffffffffffffffffffffffffffffff1681526020019081526020016000208181611bf49190615ef2565b9050506001600660003373ffffffffffffffffffffffffffffffffffffffff1673ffffffffffffffffffffffffffffffffffffffff16815260200190815260200160002060006101000a81548160ff02191690836003811115611c5a57611c5961473e565b5b02179055507f0a0028275fa37d11ea8d5d29fd14fd8aa6c52af0e0cf819b89ca2cd9193f11858260c0016020810190611c93919061446a565b604051611ca0919061421d565b60405180910390a15050565b600a60009054906101000a900473ffffffffffffffffffffffffffffffffffffffff1673ffffffffffffffffffffffffffffffffffffffff163373ffffffffffffffffffffffffffffffffffffffff1614611d3c576040517f08c379a0000000000000000000000000000000000000000000000000000000008152600401611d3390615f4c565b60405180910390fd5b60016005811115611d5057611d4f61473e565b5b60008383604051611d62929190614cd1565b908152602001604051809103902060080160159054906101000a900460ff166005811115611d9357611d9261473e565b5b14611dd3576040517f08c379a0000000000000000000000000000000000000000000000000000000008152600401611dca90615198565b60405180910390fd5b600260008383604051611de7929190614cd1565b908152602001604051809103902060080160156101000a81548160ff02191690836005811115611e1a57611e1961473e565b5b02179055506002601060008484604051611e35929190614cd1565b90815260200160405180910390206007015481548110611e5857611e57614e0a565b5b906000526020600020906009020160080160156101000a81548160ff02191690836005811115611e8b57611e8a61473e565b5b02179055507f039501081328ffe3eb02459ad6f6e90b69e23ba1422b574ee84c1f52b2fc03108282604051611ec1929190614d17565b60405180910390a15050565b6004828051602081018201805184825260208301602085012081835280955050505050508181548110611eff57600080fd5b9060005260206000209060020201600091509150508060000160009054906101000a900473ffffffffffffffffffffffffffffffffffffffff16908060010154905082565b60096020528160005260406000208181548110611f6057600080fd5b906000526020600020906009020160009150915050806000018054611f8490615264565b80601f0160208091040260200160405190810160405280929190818152602001828054611fb090615264565b8015611ffd5780601f10611fd257610100808354040283529160200191611ffd565b820191906000526020600020905b815481529060010190602001808311611fe057829003601f168201915b50505050509080600101805461201290615264565b80601f016020809104026020016040519081016040528092919081815260200182805461203e90615264565b801561208b5780601f106120605761010080835404028352916020019161208b565b820191906000526020600020905b81548152906001019060200180831161206e57829003601f168201915b5050505050908060020160009054906101000a900473ffffffffffffffffffffffffffffffffffffffff16908060030154908060040154908060050154908060060154908060070154908060080160009054906101000a900473ffffffffffffffffffffffffffffffffffffffff16908060080160149054906101000a900460ff16908060080160159054906101000a900460ff1690508b565b600a60009054906101000a900473ffffffffffffffffffffffffffffffffffffffff1673ffffffffffffffffffffffffffffffffffffffff163373ffffffffffffffffffffffffffffffffffffffff16146121b5576040517f08c379a00000000000000000000000000000000000000000000000000000000081526004016121ac90615f4c565b60405180910390fd5b600260058111156121c9576121c861473e565b5b600085856040516121db929190614cd1565b908152602001604051809103902060080160159054906101000a900460ff16600581111561220c5761220b61473e565b5b146122505783836040517fb7165084000000000000000000000000000000000000000000000000000000008152600401612247929190614d17565b60405180910390fd5b8060038585604051612263929190614cd1565b908152602001604051809103902060006101000a81548173ffffffffffffffffffffffffffffffffffffffff021916908373ffffffffffffffffffffffffffffffffffffffff160217905550600460058111156122c3576122c261473e565b5b600085856040516122d5929190614cd1565b908152602001604051809103902060080160159054906101000a900460ff1660058111156123065761230561473e565b5b5050600460106000868660405161231e929190614cd1565b9081526020016040518091039020600701548154811061234157612340614e0a565b5b906000526020600020906009020160080160156101000a81548160ff021916908360058111156123745761237361473e565b5b02179055506009600080868660405161238e929190614cd1565b908152602001604051809103902060020160009054906101000a900473ffffffffffffffffffffffffffffffffffffffff1673ffffffffffffffffffffffffffffffffffffffff1673ffffffffffffffffffffffffffffffffffffffff1681526020019081526020016000206000858560405161240c929190614cd1565b90815260200160405180910390209080600181540180825580915050600190039060005260206000209060090201600090919091909150600082018160000190816124579190615968565b506001820181600101908161246c9190615968565b506002820160009054906101000a900473ffffffffffffffffffffffffffffffffffffffff168160020160006101000a81548173ffffffffffffffffffffffffffffffffffffffff021916908373ffffffffffffffffffffffffffffffffffffffff16021790555060038201548160030155600482015481600401556005820154816005015560068201548160060155600782015481600701556008820160009054906101000a900473ffffffffffffffffffffffffffffffffffffffff168160080160006101000a81548173ffffffffffffffffffffffffffffffffffffffff021916908373ffffffffffffffffffffffffffffffffffffffff1602179055506008820160149054906101000a900460ff168160080160146101000a81548160ff021916908360ff1602179055506008820160159054906101000a900460ff168160080160156101000a81548160ff021916908360058111156125d3576125d261473e565b5b021790555050508073ffffffffffffffffffffffffffffffffffffffff1663d76805aa836040518263ffffffff1660e01b815260040161261391906160c7565b600060405180830381600087803b15801561262d57600080fd5b505af1158015612641573d6000803e3d6000fd5b50505050600f8290806001815401808255809150506001900390600052602060002090600b0201600090919091909150818161267d91906162a1565b50507f44b55c2d9270546faf6ff2f0acac078011883b82782d9b08de2d3af4543c2b1884846040516126b0929190614d17565b60405180910390a150505050565b6005818051602081018201805184825260208301602085012081835280955050505050506000915090505481565b600060058383604051612700929190614cd1565b908152602001604051809103902054905092915050565b600260205280600052604060002060009150905080600001805461273a90615264565b80601f016020809104026020016040519081016040528092919081815260200182805461276690615264565b80156127b35780601f10612788576101008083540402835291602001916127b3565b820191906000526020600020905b81548152906001019060200180831161279657829003601f168201915b5050505050908060010180546127c890615264565b80601f01602080910402602001604051908101604052809291908181526020018280546127f490615264565b80156128415780601f1061281657610100808354040283529160200191612841565b820191906000526020600020905b81548152906001019060200180831161282457829003601f168201915b50505050509080600201805461285690615264565b80601f016020809104026020016040519081016040528092919081815260200182805461288290615264565b80156128cf5780601f106128a4576101008083540402835291602001916128cf565b820191906000526020600020905b8154815290600101906020018083116128b257829003601f168201915b5050505050908060030160009054906101000a900473ffffffffffffffffffffffffffffffffffffffff16905084565b600a60009054906101000a900473ffffffffffffffffffffffffffffffffffffffff1673ffffffffffffffffffffffffffffffffffffffff163373ffffffffffffffffffffffffffffffffffffffff161461298f576040517f08c379a000000000000000000000000000000000000000000000000000000000815260040161298690615f4c565b60405180910390fd5b600160058111156129a3576129a261473e565b5b600083836040516129b5929190614cd1565b908152602001604051809103902060080160159054906101000a900460ff1660058111156129e6576129e561473e565b5b14612a26576040517f08c379a0000000000000000000000000000000000000000000000000000000008152600401612a1d90615198565b60405180910390fd5b600360008383604051612a3a929190614cd1565b908152602001604051809103902060080160156101000a81548160ff02191690836005811115612a6d57612a6c61473e565b5b02179055506003601060008484604051612a88929190614cd1565b90815260200160405180910390206007015481548110612aab57612aaa614e0a565b5b906000526020600020906009020160080160156101000a81548160ff02191690836005811115612ade57612add61473e565b5b02179055507f735ccdd611541d36c82a3622baab7f58b8a0f5be664555b0d9c95ddde16096d38282604051612b14929190614d17565b60405180910390a15050565b600a60009054906101000a900473ffffffffffffffffffffffffffffffffffffffff1673ffffffffffffffffffffffffffffffffffffffff163373ffffffffffffffffffffffffffffffffffffffff1614612bb0576040517f08c379a0000000000000000000000000000000000000000000000000000000008152600401612ba790615f4c565b60405180910390fd5b600073ffffffffffffffffffffffffffffffffffffffff168173ffffffffffffffffffffffffffffffffffffffff1603612c1f576040517f08c379a0000000000000000000000000000000000000000000000000000000008152600401612c16906162fb565b60405180910390fd5b80600d60006101000a81548173ffffffffffffffffffffffffffffffffffffffff021916908373ffffffffffffffffffffffffffffffffffffffff16021790555050565b600a60009054906101000a900473ffffffffffffffffffffffffffffffffffffffff1673ffffffffffffffffffffffffffffffffffffffff163373ffffffffffffffffffffffffffffffffffffffff1614612cf3576040517f08c379a0000000000000000000000000000000000000000000000000000000008152600401612cea90615f4c565b60405180910390fd5b60016003811115612d0757612d0661473e565b5b600760008373ffffffffffffffffffffffffffffffffffffffff1673ffffffffffffffffffffffffffffffffffffffff16815260200190815260200160002060009054906101000a900460ff166003811115612d6657612d6561473e565b5b14612da6576040517f08c379a0000000000000000000000000000000000000000000000000000000008152600401612d9d90615de7565b60405180910390fd5b6002600760008373ffffffffffffffffffffffffffffffffffffffff1673ffffffffffffffffffffffffffffffffffffffff16815260200190815260200160002060006101000a81548160ff02191690836003811115612e0957612e0861473e565b5b0217905550600b60009054906101000a900473ffffffffffffffffffffffffffffffffffffffff1673ffffffffffffffffffffffffffffffffffffffff1663cfde1890826040518263ffffffff1660e01b8152600401612e699190616367565b600060405180830381600087803b158015612e8357600080fd5b505af1158015612e97573d6000803e3d6000fd5b505050507f45b6e306480b490c59801f6f851ed6d7d4bd880db4c8f75dd1112d2fc0a1c9d781604051612eca919061421d565b60405180910390a150565b600a60009054906101000a900473ffffffffffffffffffffffffffffffffffffffff1681565b600a60009054906101000a900473ffffffffffffffffffffffffffffffffffffffff1673ffffffffffffffffffffffffffffffffffffffff163373ffffffffffffffffffffffffffffffffffffffff1614612f8b576040517f08c379a0000000000000000000000000000000000000000000000000000000008152600401612f8290615f4c565b60405180910390fd5b60016003811115612f9f57612f9e61473e565b5b600660008373ffffffffffffffffffffffffffffffffffffffff1673ffffffffffffffffffffffffffffffffffffffff16815260200190815260200160002060009054906101000a900460ff166003811115612ffe57612ffd61473e565b5b1461303e576040517f08c379a000000000000000000000000000000000000000000000000000000000815260040161303590615de7565b60405180910390fd5b6002600660008373ffffffffffffffffffffffffffffffffffffffff1673ffffffffffffffffffffffffffffffffffffffff16815260200190815260200160002060006101000a81548160ff021916908360038111156130a1576130a061473e565b5b0217905550600b60009054906101000a900473ffffffffffffffffffffffffffffffffffffffff1673ffffffffffffffffffffffffffffffffffffffff1663cfde1890826040518263ffffffff1660e01b815260040161310191906163e1565b600060405180830381600087803b15801561311b57600080fd5b505af115801561312f573d6000803e3d6000fd5b505050507f0e387c88130575bf91cadf15934854a1ed11d5c16d63f1106b6fd6e139d1202e81604051613162919061421d565b60405180910390a150565b6000818051602081018201805184825260208301602085012081835280955050505050506000915090508060000180546131a690615264565b80601f01602080910402602001604051908101604052809291908181526020018280546131d290615264565b801561321f5780601f106131f45761010080835404028352916020019161321f565b820191906000526020600020905b81548152906001019060200180831161320257829003601f168201915b50505050509080600101805461323490615264565b80601f016020809104026020016040519081016040528092919081815260200182805461326090615264565b80156132ad5780601f10613282576101008083540402835291602001916132ad565b820191906000526020600020905b81548152906001019060200180831161329057829003601f168201915b5050505050908060020160009054906101000a900473ffffffffffffffffffffffffffffffffffffffff16908060030154908060040154908060050154908060060154908060070154908060080160009054906101000a900473ffffffffffffffffffffffffffffffffffffffff16908060080160149054906101000a900460ff16908060080160159054906101000a900460ff1690508b565b600e5481565b600a60009054906101000a900473ffffffffffffffffffffffffffffffffffffffff1673ffffffffffffffffffffffffffffffffffffffff163373ffffffffffffffffffffffffffffffffffffffff16146133dd576040517f08c379a00000000000000000000000000000000000000000000000000000000081526004016133d490615f4c565b60405180910390fd5b600160038111156133f1576133f061473e565b5b600660008373ffffffffffffffffffffffffffffffffffffffff1673ffffffffffffffffffffffffffffffffffffffff16815260200190815260200160002060009054906101000a900460ff1660038111156134505761344f61473e565b5b14613490576040517f08c379a000000000000000000000000000000000000000000000000000000000815260040161348790615de7565b60405180910390fd5b6003600660008373ffffffffffffffffffffffffffffffffffffffff1673ffffffffffffffffffffffffffffffffffffffff16815260200190815260200160002060006101000a81548160ff021916908360038111156134f3576134f261473e565b5b02179055507fe341ab2ef130ae159f5f54c8be96a79ffe8f98948aa6d0e1bdeb60e6201ada2a81604051613527919061421d565b60405180910390a150565b606060048383604051613546929190614cd1565b9081526020016040518091039020805480602002602001604051908101604052809291908181526020016000905b8282101561360657838290600052602060002090600202016040518060400160405290816000820160009054906101000a900473ffffffffffffffffffffffffffffffffffffffff1673ffffffffffffffffffffffffffffffffffffffff1673ffffffffffffffffffffffffffffffffffffffff16815260200160018201548152505081526020019060010190613574565b50505050905092915050565b600b60009054906101000a900473ffffffffffffffffffffffffffffffffffffffff1681565b600a60009054906101000a900473ffffffffffffffffffffffffffffffffffffffff1673ffffffffffffffffffffffffffffffffffffffff163373ffffffffffffffffffffffffffffffffffffffff16146136c8576040517f08c379a00000000000000000000000000000000000000000000000000000000081526004016136bf90615f4c565b60405180910390fd5b600160038111156136dc576136db61473e565b5b600760008373ffffffffffffffffffffffffffffffffffffffff1673ffffffffffffffffffffffffffffffffffffffff16815260200190815260200160002060009054906101000a900460ff16600381111561373b5761373a61473e565b5b1461377b576040517f08c379a000000000000000000000000000000000000000000000000000000000815260040161377290615de7565b60405180910390fd5b6003600760008373ffffffffffffffffffffffffffffffffffffffff1673ffffffffffffffffffffffffffffffffffffffff16815260200190815260200160002060006101000a81548160ff021916908360038111156137de576137dd61473e565b5b02179055507f7456ce1c99ee8a1b09f67c52be737a92db545ec137e72de0e1b70bc0c4a1280981604051613812919061421d565b60405180910390a150565b806060016020810190613830919061446a565b600c60009054906101000a900473ffffffffffffffffffffffffffffffffffffffff1673ffffffffffffffffffffffffffffffffffffffff1663b9209e33826040518263ffffffff1660e01b815260040161388b919061421d565b602060405180830381865afa1580156138a8573d6000803e3d6000fd5b505050506040513d601f19601f820116820180604052508101906138cc9190614c08565b61390b576040517f08c379a000000000000000000000000000000000000000000000000000000000815260040161390290614c81565b60405180910390fd5b81606001602081019061391e919061446a565b73ffffffffffffffffffffffffffffffffffffffff163373ffffffffffffffffffffffffffffffffffffffff161461398b576040517f08c379a000000000000000000000000000000000000000000000000000000000815260040161398290615d7b565b60405180910390fd5b6000600381111561399f5761399e61473e565b5b600760003373ffffffffffffffffffffffffffffffffffffffff1673ffffffffffffffffffffffffffffffffffffffff16815260200190815260200160002060009054906101000a900460ff1660038111156139fe576139fd61473e565b5b14613a3e576040517f08c379a0000000000000000000000000000000000000000000000000000000008152600401613a3590615de7565b60405180910390fd5b8160026000846060016020810190613a56919061446a565b73ffffffffffffffffffffffffffffffffffffffff1673ffffffffffffffffffffffffffffffffffffffff1681526020019081526020016000208181613a9c9190616497565b9050506001600760003373ffffffffffffffffffffffffffffffffffffffff1673ffffffffffffffffffffffffffffffffffffffff16815260200190815260200160002060006101000a81548160ff02191690836003811115613b0257613b0161473e565b5b02179055507fe42136ccc1d423b080e7fa005aa542f4bc344c1e5420e3c313fbe9ce0077ad54826060016020810190613b3b919061446a565b604051613b48919061421d565b60405180910390a15050565b600a60009054906101000a900473ffffffffffffffffffffffffffffffffffffffff1673ffffffffffffffffffffffffffffffffffffffff163373ffffffffffffffffffffffffffffffffffffffff1614613be4576040517f08c379a0000000000000000000000000000000000000000000000000000000008152600401613bdb90615f4c565b60405180910390fd5b60046005811115613bf857613bf761473e565b5b60008484604051613c0a929190614cd1565b908152602001604051809103902060080160159054906101000a900460ff166005811115613c3b57613c3a61473e565b5b14613c7f5782826040517fb7165084000000000000000000000000000000000000000000000000000000008152600401613c76929190614d17565b60405180910390fd5b600580811115613c9257613c9161473e565b5b60008484604051613ca4929190614cd1565b908152602001604051809103902060080160159054906101000a900460ff166005811115613cd557613cd461473e565b5b50506005601060008585604051613ced929190614cd1565b90815260200160405180910390206007015481548110613d1057613d0f614e0a565b5b906000526020600020906009020160080160156101000a81548160ff02191690836005811115613d4357613d4261473e565b5b0217905550600560096000808686604051613d5f929190614cd1565b908152602001604051809103902060020160009054906101000a900473ffffffffffffffffffffffffffffffffffffffff1673ffffffffffffffffffffffffffffffffffffffff1673ffffffffffffffffffffffffffffffffffffffff16815260200190815260200160002060008585604051613ddd929190614cd1565b90815260200160405180910390206007015481548110613e0057613dff614e0a565b5b906000526020600020906009020160080160156101000a81548160ff02191690836005811115613e3357613e3261473e565b5b02179055508073ffffffffffffffffffffffffffffffffffffffff1663be040fb06040518163ffffffff1660e01b8152600401600060405180830381600087803b158015613e8057600080fd5b505af1158015613e94573d6000803e3d6000fd5b505050507fdfdf42ff0d0eb3e6ec5b40d8cf21fb2f7102b67e5e2d56ab36e817f807213c5b8383604051613ec9929190614d17565b60405180910390a1505050565b60076020528060005260406000206000915054906101000a900460ff1681565b600d60009054906101000a900473ffffffffffffffffffffffffffffffffffffffff1681565b60066020528060005260406000206000915054906101000a900460ff1681565b6003818051602081018201805184825260208301602085012081835280955050505050506000915054906101000a900473ffffffffffffffffffffffffffffffffffffffff1681565b6000600e54905090565b6000604051905090565b600080fd5b600080fd5b600073ffffffffffffffffffffffffffffffffffffffff82169050919050565b6000613fce82613fa3565b9050919050565b613fde81613fc3565b8114613fe957600080fd5b50565b600081359050613ffb81613fd5565b92915050565b600080fd5b600080fd5b6000601f19601f8301169050919050565b7f4e487b7100000000000000000000000000000000000000000000000000000000600052604160045260246000fd5b6140548261400b565b810181811067ffffffffffffffff821117156140735761407261401c565b5b80604052505050565b6000614086613f8f565b9050614092828261404b565b919050565b600067ffffffffffffffff8211156140b2576140b161401c565b5b6140bb8261400b565b9050602081019050919050565b82818337600083830152505050565b60006140ea6140e584614097565b61407c565b90508281526020810184848401111561410657614105614006565b5b6141118482856140c8565b509392505050565b600082601f83011261412e5761412d614001565b5b813561413e8482602086016140d7565b91505092915050565b6000806040838503121561415e5761415d613f99565b5b600061416c85828601613fec565b925050602083013567ffffffffffffffff81111561418d5761418c613f9e565b5b61419985828601614119565b9150509250929050565b6000819050919050565b6141b6816141a3565b82525050565b60008115159050919050565b6141d1816141bc565b82525050565b60006060820190506141ec60008301866141ad565b6141f960208301856141c8565b61420660408301846141ad565b949350505050565b61421781613fc3565b82525050565b6000602082019050614232600083018461420e565b92915050565b600080fd5b600080fd5b60008083601f84011261425857614257614001565b5b8235905067ffffffffffffffff81111561427557614274614238565b5b6020830191508360018202830111156142915761429061423d565b5b9250929050565b6142a1816141a3565b81146142ac57600080fd5b50565b6000813590506142be81614298565b92915050565b6000806000604084860312156142dd576142dc613f99565b5b600084013567ffffffffffffffff8111156142fb576142fa613f9e565b5b61430786828701614242565b9350935050602061431a868287016142af565b9150509250925092565b6000806040838503121561433b5761433a613f99565b5b600083013567ffffffffffffffff81111561435957614358613f9e565b5b61436585828601614119565b925050602061437685828601613fec565b9150509250929050565b60006020828403121561439657614395613f99565b5b600082013567ffffffffffffffff8111156143b4576143b3613f9e565b5b6143c084828501614119565b91505092915050565b600080fd5b600061016082840312156143e5576143e46143c9565b5b81905092915050565b60008060006040848603121561440757614406613f99565b5b600084013567ffffffffffffffff81111561442557614424613f9e565b5b61443186828701614242565b9350935050602084013567ffffffffffffffff81111561445457614453613f9e565b5b614460868287016143ce565b9150509250925092565b6000602082840312156144805761447f613f99565b5b600061448e84828501613fec565b91505092915050565b600081519050919050565b600082825260208201905092915050565b60005b838110156144d15780820151818401526020810190506144b6565b60008484015250505050565b60006144e882614497565b6144f281856144a2565b93506145028185602086016144b3565b61450b8161400b565b840191505092915050565b600060e0820190508181036000830152614530818a6144dd565b9050818103602083015261454481896144dd565b9050818103604083015261455881886144dd565b9050818103606083015261456c81876144dd565b9050818103608083015261458081866144dd565b905061458f60a08301856141ad565b61459c60c083018461420e565b98975050505050505050565b600060e082840312156145be576145bd6143c9565b5b81905092915050565b6000602082840312156145dd576145dc613f99565b5b600082013567ffffffffffffffff8111156145fb576145fa613f9e565b5b614607848285016145a8565b91505092915050565b6000806020838503121561462757614626613f99565b5b600083013567ffffffffffffffff81111561464557614644613f9e565b5b61465185828601614242565b92509250509250929050565b6000806040838503121561467457614673613f99565b5b600083013567ffffffffffffffff81111561469257614691613f9e565b5b61469e85828601614119565b92505060206146af858286016142af565b9150509250929050565b60006040820190506146ce600083018561420e565b6146db60208301846141ad565b9392505050565b600080604083850312156146f9576146f8613f99565b5b600061470785828601613fec565b9250506020614718858286016142af565b9150509250929050565b600060ff82169050919050565b61473881614722565b82525050565b7f4e487b7100000000000000000000000000000000000000000000000000000000600052602160045260246000fd5b6006811061477e5761477d61473e565b5b50565b600081905061478f8261476d565b919050565b600061479f82614781565b9050919050565b6147af81614794565b82525050565b60006101608201905081810360008301526147d0818e6144dd565b905081810360208301526147e4818d6144dd565b90506147f3604083018c61420e565b614800606083018b6141ad565b61480d608083018a6141ad565b61481a60a08301896141ad565b61482760c08301886141ad565b61483460e08301876141ad565b61484261010083018661420e565b61485061012083018561472f565b61485e6101408301846147a6565b9c9b505050505050505050505050565b60006101608284031215614885576148846143c9565b5b81905092915050565b600080600080606085870312156148a8576148a7613f99565b5b600085013567ffffffffffffffff8111156148c6576148c5613f9e565b5b6148d287828801614242565b9450945050602085013567ffffffffffffffff8111156148f5576148f4613f9e565b5b6149018782880161486e565b925050604061491287828801613fec565b91505092959194509250565b600060208201905061493360008301846141ad565b92915050565b6000608082019050818103600083015261495381876144dd565b9050818103602083015261496781866144dd565b9050818103604083015261497b81856144dd565b905061498a606083018461420e565b95945050505050565b600081519050919050565b600082825260208201905092915050565b6000819050602082019050919050565b6149c881613fc3565b82525050565b6149d7816141a3565b82525050565b6040820160008201516149f360008501826149bf565b506020820151614a0660208501826149ce565b50505050565b6000614a1883836149dd565b60408301905092915050565b6000602082019050919050565b6000614a3c82614993565b614a46818561499e565b9350614a51836149af565b8060005b83811015614a82578151614a698882614a0c565b9750614a7483614a24565b925050600181019050614a55565b5085935050505092915050565b60006020820190508181036000830152614aa98184614a31565b905092915050565b600060808284031215614ac757614ac66143c9565b5b81905092915050565b600060208284031215614ae657614ae5613f99565b5b600082013567ffffffffffffffff811115614b0457614b03613f9e565b5b614b1084828501614ab1565b91505092915050565b600080600060408486031215614b3257614b31613f99565b5b600084013567ffffffffffffffff811115614b5057614b4f613f9e565b5b614b5c86828701614242565b93509350506020614b6f86828701613fec565b9150509250925092565b60048110614b8a57614b8961473e565b5b50565b6000819050614b9b82614b79565b919050565b6000614bab82614b8d565b9050919050565b614bbb81614ba0565b82525050565b6000602082019050614bd66000830184614bb2565b92915050565b614be5816141bc565b8114614bf057600080fd5b50565b600081519050614c0281614bdc565b92915050565b600060208284031215614c1e57614c1d613f99565b5b6000614c2c84828501614bf3565b91505092915050565b7f4143434f554e545f4e4f545f414150524f564544000000000000000000000000600082015250565b6000614c6b6014836144a2565b9150614c7682614c35565b602082019050919050565b60006020820190508181036000830152614c9a81614c5e565b9050919050565b600081905092915050565b6000614cb88385614ca1565b9350614cc58385846140c8565b82840190509392505050565b6000614cde828486614cac565b91508190509392505050565b6000614cf683856144a2565b9350614d038385846140c8565b614d0c8361400b565b840190509392505050565b60006020820190508181036000830152614d32818486614cea565b90509392505050565b7f4e487b7100000000000000000000000000000000000000000000000000000000600052601160045260246000fd5b6000614d75826141a3565b9150614d80836141a3565b9250828201905080821115614d9857614d97614d3b565b5b92915050565b7f494e56414c49445f414d4f554e54000000000000000000000000000000000000600082015250565b6000614dd4600e836144a2565b9150614ddf82614d9e565b602082019050919050565b60006020820190508181036000830152614e0381614dc7565b9050919050565b7f4e487b7100000000000000000000000000000000000000000000000000000000600052603260045260246000fd5b60006040820190508181036000830152614e54818587614cea565b9050614e6360208301846141ad565b949350505050565b6000614e76826141a3565b9150614e81836141a3565b9250828202614e8f816141a3565b91508282048414831517614ea657614ea5614d3b565b5b5092915050565b6000606082019050614ec2600083018661420e565b614ecf602083018561420e565b614edc60408301846141ad565b949350505050565b60006040820190508181036000830152614eff818587614cea565b9050614f0e602083018461420e565b949350505050565b6000614f2182614497565b614f2b8185614ca1565b9350614f3b8185602086016144b3565b80840191505092915050565b6000614f538284614f16565b915081905092915050565b7f4e4f545f4953535545525f4e4f525f544f504f535f4d414e4147455200000000600082015250565b6000614f94601c836144a2565b9150614f9f82614f5e565b602082019050919050565b60006020820190508181036000830152614fc381614f87565b9050919050565b7f494e56414c49445f544f4b454e5f414444524553530000000000000000000000600082015250565b60006150006015836144a2565b915061500b82614fca565b602082019050919050565b6000602082019050818103600083015261502f81614ff3565b9050919050565b6000606082019050818103600083015261505081866144dd565b905061505f602083018561420e565b61506c604083018461420e565b949350505050565b7f4f4e4c595f495353554552530000000000000000000000000000000000000000600082015250565b60006150aa600c836144a2565b91506150b582615074565b602082019050919050565b600060208201905081810360008301526150d98161509d565b9050919050565b7f494e56414c49445f4953535545525f4144445245535300000000000000000000600082015250565b60006151166016836144a2565b9150615121826150e0565b602082019050919050565b6000602082019050818103600083015261514581615109565b9050919050565b7f494e56414c49445f4445414c5f53544154555300000000000000000000000000600082015250565b60006151826013836144a2565b915061518d8261514c565b602082019050919050565b600060208201905081810360008301526151b181615175565b9050919050565b600080fd5b600080fd5b600080fd5b600080833560016020038436030381126151e4576151e36151b8565b5b80840192508235915067ffffffffffffffff821115615206576152056151bd565b5b602083019250600182023603831315615222576152216151c2565b5b509250929050565b600082905092915050565b7f4e487b7100000000000000000000000000000000000000000000000000000000600052602260045260246000fd5b6000600282049050600182168061527c57607f821691505b60208210810361528f5761528e615235565b5b50919050565b60008190508160005260206000209050919050565b60006020601f8301049050919050565b600082821b905092915050565b6000600883026152f77fffffffffffffffffffffffffffffffffffffffffffffffffffffffffffffffff826152ba565b61530186836152ba565b95508019841693508086168417925050509392505050565b6000819050919050565b600061533e615339615334846141a3565b615319565b6141a3565b9050919050565b6000819050919050565b61535883615323565b61536c61536482615345565b8484546152c7565b825550505050565b600090565b615381615374565b61538c81848461534f565b505050565b5b818110156153b0576153a5600082615379565b600181019050615392565b5050565b601f8211156153f5576153c681615295565b6153cf846152aa565b810160208510156153de578190505b6153f26153ea856152aa565b830182615391565b50505b505050565b600082821c905092915050565b6000615418600019846008026153fa565b1980831691505092915050565b60006154318383615407565b9150826002028217905092915050565b61544b838361522a565b67ffffffffffffffff8111156154645761546361401c565b5b61546e8254615264565b6154798282856153b4565b6000601f8311600181146154a85760008415615496578287013590505b6154a08582615425565b865550615508565b601f1984166154b686615295565b60005b828110156154de578489013582556001820191506020850194506020810190506154b9565b868310156154fb57848901356154f7601f891682615407565b8355505b6001600288020188555050505b50505050505050565b61551c838383615441565b505050565b6000813561552e81613fd5565b80915050919050565b60008160001b9050919050565b600073ffffffffffffffffffffffffffffffffffffffff61556484615537565b9350801983169250808416831791505092915050565b600061559561559061558b84613fa3565b615319565b613fa3565b9050919050565b60006155a78261557a565b9050919050565b60006155b98261559c565b9050919050565b6000819050919050565b6155d3826155ae565b6155e66155df826155c0565b8354615544565b8255505050565b600081356155fa81614298565b80915050919050565b60007fffffffffffffffffffffffffffffffffffffffffffffffffffffffffffffffff61562f84615537565b9350801983169250808416831791505092915050565b61564e82615323565b61566161565a82615345565b8354615603565b8255505050565b61567181614722565b811461567c57600080fd5b50565b6000813561568c81615668565b80915050919050565b60008160a01b9050919050565b600074ff00000000000000000000000000000000000000006156c384615695565b9350801983169250808416831791505092915050565b60006156f46156ef6156ea84614722565b615319565b614722565b9050919050565b6000819050919050565b61570e826156d9565b61572161571a826156fb565b83546156a2565b8255505050565b6006811061573557600080fd5b50565b6000813561574581615728565b80915050919050565b60008160a81b9050919050565b600075ff00000000000000000000000000000000000000000061577d8461574e565b9350801983169250808416831791505092915050565b600061579e82614781565b9050919050565b6000819050919050565b6157b882615793565b6157cb6157c4826157a5565b835461575b565b8255505050565b60008101600083016157e481856151c7565b6157ef818386615511565b50505050600181016020830161580581856151c7565b615810818386615511565b5050505060028101604083018061582681615521565b905061583281846155ca565b505050600381016060830180615847816155ed565b90506158538184615645565b505050600481016080830180615868816155ed565b90506158748184615645565b5050506005810160a0830180615889816155ed565b90506158958184615645565b5050506006810160c08301806158aa816155ed565b90506158b68184615645565b5050506007810160e08301806158cb816155ed565b90506158d78184615645565b505050600881016101008301806158ed81615521565b90506158f981846155ca565b5050506008810161012083018061590f8161567f565b905061591b8184615705565b5050506008810161014083018061593181615738565b905061593d81846157af565b5050505050565b61594e82826157d2565b5050565b60008154905061596181615264565b9050919050565b818103615976575050615a4e565b61597f82615952565b67ffffffffffffffff8111156159985761599761401c565b5b6159a28254615264565b6159ad8282856153b4565b6000601f8311600181146159dc57600084156159ca578287015490505b6159d48582615425565b865550615a47565b601f1984166159ea87615295565b96506159f586615295565b60005b82811015615a1d578489015482556001820191506001850194506020810190506159f8565b86831015615a3a5784890154615a36601f891682615407565b8355505b6001600288020188555050505b5050505050505b565b600080fd5b600080fd5b600080fd5b60008083356001602003843603038112615a7c57615a7b615a5a565b5b83810192508235915060208301925067ffffffffffffffff821115615aa457615aa3615a50565b5b600182023603831315615aba57615ab9615a55565b5b509250929050565b600082825260208201905092915050565b6000615adf8385615ac2565b9350615aec8385846140c8565b615af58361400b565b840190509392505050565b6000615b0f6020840184613fec565b905092915050565b6000615b2660208401846142af565b905092915050565b600081359050615b3d81615668565b92915050565b6000615b526020840184615b2e565b905092915050565b615b6381614722565b82525050565b600081359050615b7881615728565b92915050565b6000615b8d6020840184615b69565b905092915050565b615b9e81614794565b82525050565b60006101608301615bb86000840184615a5f565b8583036000870152615bcb838284615ad3565b92505050615bdc6020840184615a5f565b8583036020870152615bef838284615ad3565b92505050615c006040840184615b00565b615c0d60408601826149bf565b50615c1b6060840184615b17565b615c2860608601826149ce565b50615c366080840184615b17565b615c4360808601826149ce565b50615c5160a0840184615b17565b615c5e60a08601826149ce565b50615c6c60c0840184615b17565b615c7960c08601826149ce565b50615c8760e0840184615b17565b615c9460e08601826149ce565b50615ca3610100840184615b00565b615cb16101008601826149bf565b50615cc0610120840184615b43565b615cce610120860182615b5a565b50615cdd610140840184615b7e565b615ceb610140860182615b95565b508091505092915050565b60006040820190508181036000830152615d11818587614cea565b90508181036020830152615d258184615ba4565b9050949350505050565b7f494e56414c49445f414444524553530000000000000000000000000000000000600082015250565b6000615d65600f836144a2565b9150615d7082615d2f565b602082019050919050565b60006020820190508181036000830152615d9481615d58565b9050919050565b7f434845434b5f594f55525f535441545553000000000000000000000000000000600082015250565b6000615dd16011836144a2565b9150615ddc82615d9b565b602082019050919050565b60006020820190508181036000830152615e0081615dc4565b9050919050565b6000810160008301615e1981856151c7565b615e24818386615511565b505050506001810160208301615e3a81856151c7565b615e45818386615511565b505050506002810160408301615e5b81856151c7565b615e66818386615511565b505050506003810160608301615e7c81856151c7565b615e87818386615511565b505050506004810160808301615e9d81856151c7565b615ea8818386615511565b505050506005810160a0830180615ebe816155ed565b9050615eca8184615645565b5050506006810160c0830180615edf81615521565b9050615eeb81846155ca565b5050505050565b615efc8282615e07565b5050565b7f4f4e4c595f544f504f535f4d414e414745520000000000000000000000000000600082015250565b6000615f366012836144a2565b9150615f4182615f00565b602082019050919050565b60006020820190508181036000830152615f6581615f29565b9050919050565b60006101608301615f806000840184615a5f565b8583036000870152615f93838284615ad3565b92505050615fa46020840184615a5f565b8583036020870152615fb7838284615ad3565b92505050615fc86040840184615a5f565b8583036040870152615fdb838284615ad3565b92505050615fec6060840184615b00565b615ff960608601826149bf565b506160076080840184615b17565b61601460808601826149ce565b5061602260a0840184615b17565b61602f60a08601826149ce565b5061603d60c0840184615b17565b61604a60c08601826149ce565b5061605860e0840184615b43565b61606560e0860182615b5a565b50616074610100840184615b17565b6160826101008601826149ce565b50616091610120840184615b17565b61609f6101208601826149ce565b506160ae610140840184615b17565b6160bc6101408601826149ce565b508091505092915050565b600060208201905081810360008301526160e18184615f6c565b905092915050565b600060ff6160f684615537565b9350801983169250808416831791505092915050565b616115826156d9565b616128616121826156fb565b83546160e9565b8255505050565b600081016000830161614181856151c7565b61614c818386615511565b50505050600181016020830161616281856151c7565b61616d818386615511565b50505050600281016040830161618381856151c7565b61618e818386615511565b505050506003810160608301806161a481615521565b90506161b081846155ca565b5050506004810160808301806161c5816155ed565b90506161d18184615645565b5050506005810160a08301806161e6816155ed565b90506161f28184615645565b5050506006810160c0830180616207816155ed565b90506162138184615645565b5050506007810160e08301806162288161567f565b9050616234818461610c565b5050506008810161010083018061624a816155ed565b90506162568184615645565b5050506009810161012083018061626c816155ed565b90506162788184615645565b505050600a810161014083018061628e816155ed565b905061629a8184615645565b5050505050565b6162ab828261612f565b5050565b7f494e56414c49445f434f4e54524143545f414444524553530000000000000000600082015250565b60006162e56018836144a2565b91506162f0826162af565b602082019050919050565b60006020820190508181036000830152616314816162d8565b9050919050565b7f494e564553544f52000000000000000000000000000000000000000000000000600082015250565b60006163516008836144a2565b915061635c8261631b565b602082019050919050565b6000604082019050818103600083015261638081616344565b905061638f602083018461420e565b92915050565b7f4953535545520000000000000000000000000000000000000000000000000000600082015250565b60006163cb6006836144a2565b91506163d682616395565b602082019050919050565b600060408201905081810360008301526163fa816163be565b9050616409602083018461420e565b92915050565b600081016000830161642181856151c7565b61642c818386615511565b50505050600181016020830161644281856151c7565b61644d818386615511565b50505050600281016040830161646381856151c7565b61646e818386615511565b5050505060038101606083018061648481615521565b905061649081846155ca565b5050505050565b6164a1828261640f565b505056fea264697066735822122010bc3af7e9793b4fc260edf9a6c6ec1072d9608ffaad6373928e82970ed8d9d064736f6c63430008130033",
  "immutableReferences": {},
  "source": "// SPDX-License-Identifier: CC0-1.0\npragma solidity ^0.8.0;\n\nimport \"../interfaces/IToposBank.sol\";\nimport \"./ToposBankStorage.sol\";\nimport \"../interfaces/IRoles.sol\";\nimport \"../interfaces/IBonds.sol\";\nimport \"../../tests/tokens/IERC20.sol\";\nimport \"../../treasury/IIssuersFund.sol\";\n\ncontract ToposBank is IToposBank, ToposBankStorage {\n    constructor(\n        address _toposManager,\n        address _rolesContract,\n        address _identityRegistryContract,\n        uint256 _dealFees\n    ) {\n        toposManager = _toposManager;\n        rolesContract = _rolesContract;\n        IRoles(_rolesContract).setRole(\"MANAGER\", _toposManager);\n        identityRegistryContract = _identityRegistryContract;\n        dealFees = _dealFees;\n    }\n\n    /**\n    * @notice Sends an registration request to become an issuer.\n    * @param _issuer Issuer struct. See BondData.sol\n    */\n    function requestRegistrationIssuer(\n        BondData.Issuer calldata _issuer\n    ) external mustBeApproved(_issuer.walletAddress) {\n        require(msg.sender == _issuer.walletAddress, \"INVALID_ADDRESS\");\n        require(\n            issuerStatus[msg.sender] == BondData.StakeHolderStatus.UNDEFINED,\n            \"CHECK_YOUR_STATUS\"\n        );\n\n        issuers[_issuer.walletAddress] = _issuer;\n        issuerStatus[msg.sender] = BondData.StakeHolderStatus.SUBMITTED;\n\n        emit RequestIssuerRegistration(_issuer.walletAddress);\n    }\n\n    /**\n    * @notice Sends an registration request to become an investor.\n    * @param _investor Investor struct. See BondData.sol\n    */\n    function requestRegistrationInvestor(\n        BondData.Investor calldata _investor\n    ) external mustBeApproved(_investor.walletAddress) {\n        require(msg.sender == _investor.walletAddress, \"INVALID_ADDRESS\");\n        require(\n            investorStatus[msg.sender] == BondData.StakeHolderStatus.UNDEFINED,\n            \"CHECK_YOUR_STATUS\"\n        );\n\n        investors[_investor.walletAddress] = _investor;\n        investorStatus[msg.sender] = BondData.StakeHolderStatus.SUBMITTED;\n\n        emit RequestInvestorRegistration(_investor.walletAddress);\n    }\n\n    /**\n    * @notice Approves an issuer registration request. Can be called only by Topos manager\n    * @param _issuer issuer's account address\n    */\n    function approveIssuer(address _issuer) external onlyToposManager {\n        require(\n            issuerStatus[_issuer] == BondData.StakeHolderStatus.SUBMITTED,\n            \"CHECK_YOUR_STATUS\"\n        );\n\n        issuerStatus[_issuer] = BondData.StakeHolderStatus.APPROVED;\n        IRoles(rolesContract).setRole(\"ISSUER\", _issuer);\n\n        emit ApproveIssuer(_issuer);\n    }\n\n    /**\n    * @notice Approves an investor registration request. Can be called only by Topos manager\n    * @param _investor investor's account address\n    */\n    function approveInvestor(address _investor) external onlyToposManager {\n        require(\n            investorStatus[_investor] == BondData.StakeHolderStatus.SUBMITTED,\n            \"CHECK_YOUR_STATUS\"\n        );\n\n        investorStatus[_investor] = BondData.StakeHolderStatus.APPROVED;\n        IRoles(rolesContract).setRole(\"INVESTOR\", _investor);\n\n        emit ApproveInvestor(_investor);\n    }\n\n    /**\n    * @notice Rejects an issuer registration request. Can be called only by Topos manager\n    * @param _issuer issuer's account address\n    */\n    function rejectIssuer(address _issuer) external onlyToposManager {\n        require(\n            issuerStatus[_issuer] == BondData.StakeHolderStatus.SUBMITTED,\n            \"CHECK_YOUR_STATUS\"\n        );\n\n        issuerStatus[_issuer] = BondData.StakeHolderStatus.REJECTED;\n\n        emit RejectIssuer(_issuer);\n    }\n\n    /**\n    * @notice Rejects an investor registration request. Can be called only by Topos manager\n    * @param _investor investor's account address\n    */\n    function rejectInvestor(address _investor) external onlyToposManager {\n        require(\n            investorStatus[_investor] == BondData.StakeHolderStatus.SUBMITTED,\n            \"CHECK_YOUR_STATUS\"\n        );\n\n        investorStatus[_investor] = BondData.StakeHolderStatus.REJECTED;\n\n        emit RejectInvestor(_investor);\n    }\n\n    /**\n    * @notice Submits a deal. Can be called only by registered issuers\n    * @param _dealID the deal ID\n    * @param _deal deal struct containing deal information - see BondData.sol\n    */\n    function submitDeal(\n        string calldata _dealID,\n        BondData.Deal calldata _deal\n    ) external {\n        require(\n            IRoles(rolesContract).isIssuer(msg.sender),\n            \"ONLY_ISSUERS\"\n        );\n        require(\n            msg.sender == _deal.issuerAddress,\n            \"INVALID_ISSUER_ADDRESS\"\n        );\n        require(\n            deals[_dealID].status == BondData.DealStatus.UNDEFINED,\n            \"INVALID_DEAL_STATUS\"\n        );\n\n        deals[_dealID] = _deal;\n        deals[_dealID].status = BondData.DealStatus.SUBMITTED;\n        deals[_dealID].index = listOfDeals.length;\n\n        listOfDeals.push(deals[_dealID]);\n\n        emit DealSubmitted(_dealID, _deal);\n    }\n\n    /**\n    * @notice Approves a deal. Can be called only by Topos Manager\n    * @param _dealID the deal ID\n    */\n    function approveDeal(\n        string calldata _dealID\n    ) external onlyToposManager {\n        require(\n            deals[_dealID].status == BondData.DealStatus.SUBMITTED,\n            \"INVALID_DEAL_STATUS\"\n        );\n\n        deals[_dealID].status = BondData.DealStatus.APPROVED;\n        listOfDeals[deals[_dealID].index].status = BondData.DealStatus.APPROVED;\n\n        emit DealAPproved(_dealID);\n    }\n\n    /**\n    * @notice Rejects a deal. Can be called only by Topos Manager\n    * @param _dealID the deal ID\n    */\n    function rejectDeal(\n        string calldata _dealID\n    ) external onlyToposManager {\n        require(\n            deals[_dealID].status == BondData.DealStatus.SUBMITTED,\n            \"INVALID_DEAL_STATUS\"\n        );\n\n        deals[_dealID].status = BondData.DealStatus.REJECTED;\n        listOfDeals[deals[_dealID].index].status = BondData.DealStatus.REJECTED;\n\n        emit DealARejected(_dealID);\n    }\n\n    /**\n    * @notice Investors call this function to register for a Deal\n    *         Investors must submit the amount the want to invest\n    * @param _dealID the deal ID\n    * @param _amount Amount to invest - in bond currency unit\n    */\n    function registerForDeal(\n        string calldata _dealID,\n        uint256 _amount\n    ) external mustBeApproved(msg.sender) {\n        uint256 _totalAmountInvested = totalAmountInvestedForDeal[_dealID];\n\n        if(deals[_dealID].status != BondData.DealStatus.APPROVED)\n            revert BondData.InvalidDealStatus(_dealID);\n        require(\n            _amount != 0 && _amount + _totalAmountInvested <= deals[_dealID].debtAmount,\n            \"INVALID_AMOUNT\"\n        );\n\n        bool hasInvested = amountInvested[msg.sender][_dealID].hasInvested;\n        totalAmountInvestedForDeal[_dealID] = _totalAmountInvested + _amount;\n\n        if(hasInvested) {\n            uint256 index = amountInvested[msg.sender][_dealID].index;\n            uint256 amount  = amountInvested[msg.sender][_dealID].amount;\n\n            dealInvestment[_dealID][index].amount = amount + _amount;\n            amountInvested[msg.sender][_dealID].amount = amount + _amount;\n        } else {\n            amountInvested[msg.sender][_dealID] =  BondData.Investment(\n                {\n                    amount: _amount,\n                    hasInvested: true,\n                    index: dealInvestment[_dealID].length\n                }\n            );\n\n            dealInvestment[_dealID].push(\n                BondData.DealInvestment(\n                    {\n                        investor: msg.sender,\n                        amount: _amount\n                    }\n                )\n            );       \n        }\n\n        IIssuersFund(issuersFundContract).addFund(_dealID, _amount);\n        IERC20(\n            deals[_dealID].currency\n        ).transferFrom(\n            msg.sender, issuersFundContract, _amount * 1 ether\n        );\n\n        emit RegisterForDeal(_dealID, msg.sender);\n    }\n\n    /**\n    * @notice Issues bonds to investors. Can be called only by Topos Manager\n    * @param _dealID the deal ID\n    * @param _bond bond struct containing bond information - see BondData.sol\n    * @param _bondContract the ERC-7092 bond contract address\n    */\n    function issue(\n        string calldata _dealID,\n        BondData.Bond calldata _bond,\n        address _bondContract\n    ) external onlyToposManager {\n        if(deals[_dealID].status != BondData.DealStatus.APPROVED)\n            revert BondData.InvalidDealStatus(_dealID);\n\n        dealBondContracts[_dealID] = _bondContract;\n\n        deals[_dealID].status != BondData.DealStatus.ISSUED;\n        listOfDeals[deals[_dealID].index].status = BondData.DealStatus.ISSUED;\n        issuerDeals[deals[_dealID].issuerAddress].push(deals[_dealID]);\n\n        IBonds(_bondContract).issue(_bond);\n\n        bonds.push(_bond);\n\n        emit BondIssue(_dealID);\n    }\n\n    /**\n    * @notice Redeem bonds. Can be called only by Topos Manager\n    * @param _dealID the deal ID\n    * @param _bondContract the ERC-7092 bond contract address\n    */\n    function redeem(\n        string calldata _dealID,\n        address _bondContract\n    ) external onlyToposManager {\n        if(deals[_dealID].status != BondData.DealStatus.ISSUED)\n            revert BondData.InvalidDealStatus(_dealID);\n\n        deals[_dealID].status != BondData.DealStatus.REDEEMED;\n        listOfDeals[deals[_dealID].index].status = BondData.DealStatus.REDEEMED;\n        issuerDeals[deals[_dealID].issuerAddress][deals[_dealID].index].status = BondData.DealStatus.REDEEMED;\n\n        IBonds(_bondContract).redeem();\n\n        emit BondRedeem(_dealID);\n    }\n\n    function getTotalAmounInvested(\n        string calldata _dealID\n    ) external view returns(uint256) {\n        return totalAmountInvestedForDeal[_dealID];\n    }\n\n    function getDealInvestment(\n        string calldata _dealID\n    ) external view returns(BondData.DealInvestment[] memory) {\n        return dealInvestment[_dealID];\n    }\n\n    /**\n    * @notice Returns the deal fees in bips\n    *         1 bips = 0.01% = 0.0001\n    *         ex: if interest rate = 5%, then `dealFees = 500`\n    */\n    function getDealFees() external view returns(uint256) {\n        return dealFees;\n    }\n\n    /**\n    * @notice Transfer deal funds to issuer. Can be called either by the issuer or by the Topos manager\n    * @param _dealID deal ID\n    */\n    function withdrawIssuerFund(\n        string memory _dealID\n    ) external {\n        address issuer = deals[_dealID].issuerAddress;\n        address tokenAddress = deals[_dealID].currency;\n\n        require(\n            msg.sender == issuer || msg.sender == toposManager, \"NOT_ISSUER_NOR_TOPOS_MANAGER\"\n        );\n        require(tokenAddress != address(0), \"INVALID_TOKEN_ADDRESS\");\n\n        IIssuersFund(issuersFundContract).withdrawFund(_dealID, issuer, tokenAddress);\n    }\n\n    function setBondContractAddress(\n        string memory _dealID,\n        address _bondContractAddress\n    ) external {\n        dealBondContracts[_dealID] = _bondContractAddress;\n    }\n\n    function setIssuerFundContract(\n        address _issuerFundContract\n    ) external onlyToposManager {\n        require(_issuerFundContract != address(0), \"INVALID_CONTRACT_ADDRESS\");\n\n        issuersFundContract = _issuerFundContract;\n    }\n}",
  "sourcePath": "/Users/sam/Documents/Blockchain/Topos/ToposGrant/T-Grant/contracts/Topos/Bank/ToposBank.sol",
  "compiler": {
    "name": "solc",
    "version": "0.8.19+commit.7dd6d404.Emscripten.clang"
  },
  "schemaVersion": "3.4.9",
  "updatedAt": "2023-11-06T14:56:26.069Z",
  "devdoc": {
    "kind": "dev",
    "methods": {
      "approveDeal(string)": {
        "params": {
          "_dealID": "the deal ID"
        }
      },
      "approveInvestor(address)": {
        "params": {
          "_investor": "investor's account address"
        }
      },
      "approveIssuer(address)": {
        "params": {
          "_issuer": "issuer's account address"
        }
      },
      "issue(string,(string,string,string,address,uint256,uint256,uint256,uint8,uint256,uint256,uint256),address)": {
        "params": {
          "_bond": "bond struct containing bond information - see BondData.sol",
          "_bondContract": "the ERC-7092 bond contract address",
          "_dealID": "the deal ID"
        }
      },
      "redeem(string,address)": {
        "params": {
          "_bondContract": "the ERC-7092 bond contract address",
          "_dealID": "the deal ID"
        }
      },
      "registerForDeal(string,uint256)": {
        "params": {
          "_amount": "Amount to invest - in bond currency unit",
          "_dealID": "the deal ID"
        }
      },
      "rejectDeal(string)": {
        "params": {
          "_dealID": "the deal ID"
        }
      },
      "rejectInvestor(address)": {
        "params": {
          "_investor": "investor's account address"
        }
      },
      "rejectIssuer(address)": {
        "params": {
          "_issuer": "issuer's account address"
        }
      },
      "requestRegistrationInvestor((string,string,string,address))": {
        "params": {
          "_investor": "Investor struct. See BondData.sol"
        }
      },
      "requestRegistrationIssuer((string,string,string,string,string,uint256,address))": {
        "params": {
          "_issuer": "Issuer struct. See BondData.sol"
        }
      },
      "submitDeal(string,(string,string,address,uint256,uint256,uint256,uint256,uint256,address,uint8,uint8))": {
        "params": {
          "_deal": "deal struct containing deal information - see BondData.sol",
          "_dealID": "the deal ID"
        }
      },
      "withdrawIssuerFund(string)": {
        "params": {
          "_dealID": "deal ID"
        }
      }
    },
    "version": 1
  },
  "userdoc": {
    "kind": "user",
    "methods": {
      "approveDeal(string)": {
        "notice": "Approves a deal. Can be called only by Topos Manager"
      },
      "approveInvestor(address)": {
        "notice": "Approves an investor registration request. Can be called only by Topos manager"
      },
      "approveIssuer(address)": {
        "notice": "Approves an issuer registration request. Can be called only by Topos manager"
      },
      "getDealFees()": {
        "notice": "Returns the deal fees in bips         1 bips = 0.01% = 0.0001         ex: if interest rate = 5%, then `dealFees = 500`"
      },
      "issue(string,(string,string,string,address,uint256,uint256,uint256,uint8,uint256,uint256,uint256),address)": {
        "notice": "Issues bonds to investors. Can be called only by Topos Manager"
      },
      "redeem(string,address)": {
        "notice": "Redeem bonds. Can be called only by Topos Manager"
      },
      "registerForDeal(string,uint256)": {
        "notice": "Investors call this function to register for a Deal         Investors must submit the amount the want to invest"
      },
      "rejectDeal(string)": {
        "notice": "Rejects a deal. Can be called only by Topos Manager"
      },
      "rejectInvestor(address)": {
        "notice": "Rejects an investor registration request. Can be called only by Topos manager"
      },
      "rejectIssuer(address)": {
        "notice": "Rejects an issuer registration request. Can be called only by Topos manager"
      },
      "requestRegistrationInvestor((string,string,string,address))": {
        "notice": "Sends an registration request to become an investor."
      },
      "requestRegistrationIssuer((string,string,string,string,string,uint256,address))": {
        "notice": "Sends an registration request to become an issuer."
      },
      "submitDeal(string,(string,string,address,uint256,uint256,uint256,uint256,uint256,address,uint8,uint8))": {
        "notice": "Submits a deal. Can be called only by registered issuers"
      },
      "withdrawIssuerFund(string)": {
        "notice": "Transfer deal funds to issuer. Can be called either by the issuer or by the Topos manager"
      }
    },
    "version": 1
  }
}