{
  "contractName": "ToposTreasury",
  "abi": [
    {
      "inputs": [
        {
          "internalType": "address",
          "name": "_toposBankContract",
          "type": "address"
        }
      ],
      "stateMutability": "nonpayable",
      "type": "constructor"
    },
    {
      "inputs": [
        {
          "internalType": "string",
          "name": "",
          "type": "string"
        }
      ],
      "name": "dealFunds",
      "outputs": [
        {
          "internalType": "uint256",
          "name": "",
          "type": "uint256"
        }
      ],
      "stateMutability": "view",
      "type": "function"
    },
    {
      "inputs": [],
      "name": "toposBankContract",
      "outputs": [
        {
          "internalType": "address",
          "name": "",
          "type": "address"
        }
      ],
      "stateMutability": "view",
      "type": "function"
    },
    {
      "inputs": [],
      "name": "toposManager",
      "outputs": [
        {
          "internalType": "address",
          "name": "",
          "type": "address"
        }
      ],
      "stateMutability": "view",
      "type": "function"
    },
    {
      "inputs": [
        {
          "internalType": "address",
          "name": "_newToposManager",
          "type": "address"
        }
      ],
      "name": "updateToposManager",
      "outputs": [],
      "stateMutability": "nonpayable",
      "type": "function"
    },
    {
      "inputs": [
        {
          "internalType": "string",
          "name": "_dealID",
          "type": "string"
        },
        {
          "internalType": "uint256",
          "name": "_amount",
          "type": "uint256"
        }
      ],
      "name": "addFunds",
      "outputs": [],
      "stateMutability": "nonpayable",
      "type": "function"
    },
    {
      "inputs": [
        {
          "internalType": "string",
          "name": "_dealID",
          "type": "string"
        },
        {
          "internalType": "address",
          "name": "_to",
          "type": "address"
        },
        {
          "internalType": "address",
          "name": "_tokenAddress",
          "type": "address"
        }
      ],
      "name": "withdrawFund",
      "outputs": [],
      "stateMutability": "nonpayable",
      "type": "function"
    },
    {
      "inputs": [
        {
          "internalType": "address",
          "name": "_to",
          "type": "address"
        },
        {
          "internalType": "uint256",
          "name": "_amount",
          "type": "uint256"
        },
        {
          "internalType": "address",
          "name": "_tokenAddress",
          "type": "address"
        }
      ],
      "name": "withdraw",
      "outputs": [],
      "stateMutability": "nonpayable",
      "type": "function"
    }
  ],
  "bytecode": "0x608060405234801561001057600080fd5b5060405162001092380380620010928339818101604052810190610034919061011f565b33600160006101000a81548173ffffffffffffffffffffffffffffffffffffffff021916908373ffffffffffffffffffffffffffffffffffffffff16021790555080600260006101000a81548173ffffffffffffffffffffffffffffffffffffffff021916908373ffffffffffffffffffffffffffffffffffffffff1602179055505061014c565b600080fd5b600073ffffffffffffffffffffffffffffffffffffffff82169050919050565b60006100ec826100c1565b9050919050565b6100fc816100e1565b811461010757600080fd5b50565b600081519050610119816100f3565b92915050565b600060208284031215610135576101346100bc565b5b60006101438482850161010a565b91505092915050565b610f36806200015c6000396000f3fe608060405234801561001057600080fd5b506004361061007d5760003560e01c80637f31ed731161005b5780637f31ed73146100ea5780639c34712a14610108578063a75ba11914610126578063e04cd97f146101425761007d565b80634994a6771461008257806369328dec146100b25780637e7783d5146100ce575b600080fd5b61009c6004803603810190610097919061084a565b61015e565b6040516100a991906108ac565b60405180910390f35b6100cc60048036038101906100c79190610951565b61018c565b005b6100e860048036038101906100e391906109a4565b610364565b005b6100f2610438565b6040516100ff91906109e0565b60405180910390f35b61011061045e565b60405161011d91906109e0565b60405180910390f35b610140600480360381019061013b9190610a5b565b610484565b005b61015c60048036038101906101579190610abb565b61053e565b005b6000818051602081018201805184825260208301602085012081835280955050505050506000915090505481565b600160009054906101000a900473ffffffffffffffffffffffffffffffffffffffff1673ffffffffffffffffffffffffffffffffffffffff163373ffffffffffffffffffffffffffffffffffffffff161461021c576040517f08c379a000000000000000000000000000000000000000000000000000000000815260040161021390610b87565b60405180910390fd5b60008173ffffffffffffffffffffffffffffffffffffffff166370a08231306040518263ffffffff1660e01b815260040161025791906109e0565b602060405180830381865afa158015610274573d6000803e3d6000fd5b505050506040513d601f19601f820116820180604052508101906102989190610bbc565b9050808311156102dd576040517f08c379a00000000000000000000000000000000000000000000000000000000081526004016102d490610c35565b60405180910390fd5b8173ffffffffffffffffffffffffffffffffffffffff166323b872dd3086866040518463ffffffff1660e01b815260040161031a93929190610c55565b6020604051808303816000875af1158015610339573d6000803e3d6000fd5b505050506040513d601f19601f8201168201806040525081019061035d9190610cc4565b5050505050565b600160009054906101000a900473ffffffffffffffffffffffffffffffffffffffff1673ffffffffffffffffffffffffffffffffffffffff163373ffffffffffffffffffffffffffffffffffffffff16146103f4576040517f08c379a00000000000000000000000000000000000000000000000000000000081526004016103eb90610b87565b60405180910390fd5b80600160006101000a81548173ffffffffffffffffffffffffffffffffffffffff021916908373ffffffffffffffffffffffffffffffffffffffff16021790555050565b600160009054906101000a900473ffffffffffffffffffffffffffffffffffffffff1681565b600260009054906101000a900473ffffffffffffffffffffffffffffffffffffffff1681565b600260009054906101000a900473ffffffffffffffffffffffffffffffffffffffff1673ffffffffffffffffffffffffffffffffffffffff163373ffffffffffffffffffffffffffffffffffffffff1614610514576040517f08c379a000000000000000000000000000000000000000000000000000000000815260040161050b90610d3d565b60405180910390fd5b8060008484604051610527929190610d8d565b908152602001604051809103902081905550505050565b600160009054906101000a900473ffffffffffffffffffffffffffffffffffffffff1673ffffffffffffffffffffffffffffffffffffffff163373ffffffffffffffffffffffffffffffffffffffff16146105ce576040517f08c379a00000000000000000000000000000000000000000000000000000000081526004016105c590610b87565b60405180910390fd5b600080846040516105df9190610e0c565b908152602001604051809103902054905060008111610633576040517f08c379a000000000000000000000000000000000000000000000000000000000815260040161062a90610e6f565b60405180910390fd5b8173ffffffffffffffffffffffffffffffffffffffff166323b872dd3085670de0b6b3a7640000856106659190610ebe565b6040518463ffffffff1660e01b815260040161068393929190610c55565b6020604051808303816000875af11580156106a2573d6000803e3d6000fd5b505050506040513d601f19601f820116820180604052508101906106c69190610cc4565b50600080856040516106d89190610e0c565b90815260200160405180910390208190555050505050565b6000604051905090565b600080fd5b600080fd5b600080fd5b600080fd5b6000601f19601f8301169050919050565b7f4e487b7100000000000000000000000000000000000000000000000000000000600052604160045260246000fd5b6107578261070e565b810181811067ffffffffffffffff821117156107765761077561071f565b5b80604052505050565b60006107896106f0565b9050610795828261074e565b919050565b600067ffffffffffffffff8211156107b5576107b461071f565b5b6107be8261070e565b9050602081019050919050565b82818337600083830152505050565b60006107ed6107e88461079a565b61077f565b90508281526020810184848401111561080957610808610709565b5b6108148482856107cb565b509392505050565b600082601f83011261083157610830610704565b5b81356108418482602086016107da565b91505092915050565b6000602082840312156108605761085f6106fa565b5b600082013567ffffffffffffffff81111561087e5761087d6106ff565b5b61088a8482850161081c565b91505092915050565b6000819050919050565b6108a681610893565b82525050565b60006020820190506108c1600083018461089d565b92915050565b600073ffffffffffffffffffffffffffffffffffffffff82169050919050565b60006108f2826108c7565b9050919050565b610902816108e7565b811461090d57600080fd5b50565b60008135905061091f816108f9565b92915050565b61092e81610893565b811461093957600080fd5b50565b60008135905061094b81610925565b92915050565b60008060006060848603121561096a576109696106fa565b5b600061097886828701610910565b93505060206109898682870161093c565b925050604061099a86828701610910565b9150509250925092565b6000602082840312156109ba576109b96106fa565b5b60006109c884828501610910565b91505092915050565b6109da816108e7565b82525050565b60006020820190506109f560008301846109d1565b92915050565b600080fd5b600080fd5b60008083601f840112610a1b57610a1a610704565b5b8235905067ffffffffffffffff811115610a3857610a376109fb565b5b602083019150836001820283011115610a5457610a53610a00565b5b9250929050565b600080600060408486031215610a7457610a736106fa565b5b600084013567ffffffffffffffff811115610a9257610a916106ff565b5b610a9e86828701610a05565b93509350506020610ab18682870161093c565b9150509250925092565b600080600060608486031215610ad457610ad36106fa565b5b600084013567ffffffffffffffff811115610af257610af16106ff565b5b610afe8682870161081c565b9350506020610b0f86828701610910565b9250506040610b2086828701610910565b9150509250925092565b600082825260208201905092915050565b7f4e4f545f414c4c4f574544000000000000000000000000000000000000000000600082015250565b6000610b71600b83610b2a565b9150610b7c82610b3b565b602082019050919050565b60006020820190508181036000830152610ba081610b64565b9050919050565b600081519050610bb681610925565b92915050565b600060208284031215610bd257610bd16106fa565b5b6000610be084828501610ba7565b91505092915050565b7f494e53554646494349454e545f46554e44530000000000000000000000000000600082015250565b6000610c1f601283610b2a565b9150610c2a82610be9565b602082019050919050565b60006020820190508181036000830152610c4e81610c12565b9050919050565b6000606082019050610c6a60008301866109d1565b610c7760208301856109d1565b610c84604083018461089d565b949350505050565b60008115159050919050565b610ca181610c8c565b8114610cac57600080fd5b50565b600081519050610cbe81610c98565b92915050565b600060208284031215610cda57610cd96106fa565b5b6000610ce884828501610caf565b91505092915050565b7f4f4e4c595f544f504f535f42414e4b0000000000000000000000000000000000600082015250565b6000610d27600f83610b2a565b9150610d3282610cf1565b602082019050919050565b60006020820190508181036000830152610d5681610d1a565b9050919050565b600081905092915050565b6000610d748385610d5d565b9350610d818385846107cb565b82840190509392505050565b6000610d9a828486610d68565b91508190509392505050565b600081519050919050565b60005b83811015610dcf578082015181840152602081019050610db4565b60008484015250505050565b6000610de682610da6565b610df08185610d5d565b9350610e00818560208601610db1565b80840191505092915050565b6000610e188284610ddb565b915081905092915050565b7f4e4f5f46554e4453000000000000000000000000000000000000000000000000600082015250565b6000610e59600883610b2a565b9150610e6482610e23565b602082019050919050565b60006020820190508181036000830152610e8881610e4c565b9050919050565b7f4e487b7100000000000000000000000000000000000000000000000000000000600052601160045260246000fd5b6000610ec982610893565b9150610ed483610893565b9250828202610ee281610893565b91508282048414831517610ef957610ef8610e8f565b5b509291505056fea264697066735822122058b136789296b0bf58339f4aa8cf6d053a48e3472eb1942f42c0c13cf73c242164736f6c63430008130033",
  "immutableReferences": {},
  "source": "// SPDX-License-Identifier: MIT\npragma solidity ^0.8.19;\n\nimport \"../tests/tokens/IERC20.sol\";\nimport \"./IToposTreasury.sol\";\n\ncontract ToposTreasury is IToposTreasury {\n    mapping(string => uint256) public dealFunds;\n\n    address public toposManager;\n    address public toposBankContract;\n\n    constructor(address _toposBankContract) {\n        toposManager = msg.sender;\n        toposBankContract = _toposBankContract;\n    }\n\n    modifier onlyToposManager {\n        require(\n            msg.sender == toposManager,\n            \"NOT_ALLOWED\"\n        );\n        _;\n    }\n\n    modifier onlyToposBankContract {\n        require(\n            msg.sender == toposBankContract,\n            \"ONLY_TOPOS_BANK\"\n        );\n        _;\n    }\n\n    /**\n    * @notice Updates the topos manager account address. Can be called all only by Topos manager\n    * @param _newToposManager the new topos manager account address\n    */\n    function updateToposManager(address _newToposManager) external onlyToposManager {\n        toposManager = _newToposManager;\n    }\n\n    /**\n    * @notice Adds fees collected from deals. Called only by the Topos Bank Contract\n    * @param _dealID deal ID\n    * @param _amount amount of tokens collected as fees\n    */\n    function addFunds(string calldata _dealID, uint256 _amount) external onlyToposBankContract {\n        dealFunds[_dealID] = _amount;\n    }\n\n    /**\n    * @notice Withdraws fees collected from deals. Called only by Topos manager\n    * @param _dealID deal ID\n    * @param _to account address to send tokens to\n    * @param _tokenAddress the token contract address\n    */\n    function withdrawFund(string memory _dealID, address _to, address _tokenAddress) external onlyToposManager {\n        uint256 _amount = dealFunds[_dealID];\n        require(_amount > 0, \"NO_FUNDS\");\n\n        IERC20(_tokenAddress).transferFrom(address(this), _to, _amount * 1 ether);\n\n        dealFunds[_dealID] = 0;\n    }\n\n    /**\n    * @notice Allows to withdraw tokens sent accidently. Fees deposit are done through `addFund`\n    * @param _to account address to send tokens to\n    * @param _amount amount of tokens to send\n    * @param _tokenAddress the token contract address\n    */\n    function withdraw(address _to, uint256 _amount, address _tokenAddress) external onlyToposManager {\n        uint256 availabaleBalance = IERC20(_tokenAddress).balanceOf(address(this));\n        require(_amount <= availabaleBalance, \"INSUFFICIENT_FUNDS\");\n\n        IERC20(_tokenAddress).transferFrom(address(this), _to, _amount);\n    }\n}",
  "sourcePath": "/Users/sam/Documents/Blockchain/Topos/ToposGrant/T-Grant/contracts/treasury/ToposTreasury.sol",
  "compiler": {
    "name": "solc",
    "version": "0.8.19+commit.7dd6d404.Emscripten.clang"
  },
  "schemaVersion": "3.4.9",
  "updatedAt": "2023-11-06T14:56:26.084Z",
  "devdoc": {
    "kind": "dev",
    "methods": {
      "addFunds(string,uint256)": {
        "params": {
          "_amount": "amount of tokens collected as fees",
          "_dealID": "deal ID"
        }
      },
      "updateToposManager(address)": {
        "params": {
          "_newToposManager": "the new topos manager account address"
        }
      },
      "withdraw(address,uint256,address)": {
        "params": {
          "_amount": "amount of tokens to send",
          "_to": "account address to send tokens to",
          "_tokenAddress": "the token contract address"
        }
      },
      "withdrawFund(string,address,address)": {
        "params": {
          "_dealID": "deal ID",
          "_to": "account address to send tokens to",
          "_tokenAddress": "the token contract address"
        }
      }
    },
    "version": 1
  },
  "userdoc": {
    "kind": "user",
    "methods": {
      "addFunds(string,uint256)": {
        "notice": "Adds fees collected from deals. Called only by the Topos Bank Contract"
      },
      "updateToposManager(address)": {
        "notice": "Updates the topos manager account address. Can be called all only by Topos manager"
      },
      "withdraw(address,uint256,address)": {
        "notice": "Allows to withdraw tokens sent accidently. Fees deposit are done through `addFund`"
      },
      "withdrawFund(string,address,address)": {
        "notice": "Withdraws fees collected from deals. Called only by Topos manager"
      }
    },
    "version": 1
  }
}