{
  "contractName": "ToposBankStorage",
  "abi": [
    {
      "anonymous": false,
      "inputs": [
        {
          "indexed": false,
          "internalType": "address",
          "name": "investor",
          "type": "address"
        }
      ],
      "name": "ApproveInvestor",
      "type": "event"
    },
    {
      "anonymous": false,
      "inputs": [
        {
          "indexed": false,
          "internalType": "address",
          "name": "issuer",
          "type": "address"
        }
      ],
      "name": "ApproveIssuer",
      "type": "event"
    },
    {
      "anonymous": false,
      "inputs": [
        {
          "indexed": false,
          "internalType": "string",
          "name": "_dealID",
          "type": "string"
        }
      ],
      "name": "BondIssue",
      "type": "event"
    },
    {
      "anonymous": false,
      "inputs": [
        {
          "indexed": false,
          "internalType": "string",
          "name": "_dealID",
          "type": "string"
        }
      ],
      "name": "BondRedeem",
      "type": "event"
    },
    {
      "anonymous": false,
      "inputs": [
        {
          "indexed": false,
          "internalType": "string",
          "name": "dealID",
          "type": "string"
        }
      ],
      "name": "DealAPproved",
      "type": "event"
    },
    {
      "anonymous": false,
      "inputs": [
        {
          "indexed": false,
          "internalType": "string",
          "name": "dealID",
          "type": "string"
        }
      ],
      "name": "DealARejected",
      "type": "event"
    },
    {
      "anonymous": false,
      "inputs": [
        {
          "indexed": false,
          "internalType": "string",
          "name": "dealID",
          "type": "string"
        },
        {
          "components": [
            {
              "internalType": "string",
              "name": "dealID",
              "type": "string"
            },
            {
              "internalType": "string",
              "name": "prospectusURI",
              "type": "string"
            },
            {
              "internalType": "address",
              "name": "issuerAddress",
              "type": "address"
            },
            {
              "internalType": "uint256",
              "name": "debtAmount",
              "type": "uint256"
            },
            {
              "internalType": "uint256",
              "name": "couponRate",
              "type": "uint256"
            },
            {
              "internalType": "uint256",
              "name": "couponFrequency",
              "type": "uint256"
            },
            {
              "internalType": "uint256",
              "name": "maturityDate",
              "type": "uint256"
            },
            {
              "internalType": "uint256",
              "name": "index",
              "type": "uint256"
            },
            {
              "internalType": "address",
              "name": "currency",
              "type": "address"
            },
            {
              "internalType": "uint8",
              "name": "couponType",
              "type": "uint8"
            },
            {
              "internalType": "enum BondData.DealStatus",
              "name": "status",
              "type": "uint8"
            }
          ],
          "indexed": false,
          "internalType": "struct BondData.Deal",
          "name": "deal",
          "type": "tuple"
        }
      ],
      "name": "DealSubmitted",
      "type": "event"
    },
    {
      "anonymous": false,
      "inputs": [
        {
          "indexed": false,
          "internalType": "string",
          "name": "dealID",
          "type": "string"
        },
        {
          "indexed": false,
          "internalType": "address",
          "name": "investor",
          "type": "address"
        }
      ],
      "name": "RegisterForDeal",
      "type": "event"
    },
    {
      "anonymous": false,
      "inputs": [
        {
          "indexed": false,
          "internalType": "address",
          "name": "investor",
          "type": "address"
        }
      ],
      "name": "RejectInvestor",
      "type": "event"
    },
    {
      "anonymous": false,
      "inputs": [
        {
          "indexed": false,
          "internalType": "address",
          "name": "issuer",
          "type": "address"
        }
      ],
      "name": "RejectIssuer",
      "type": "event"
    },
    {
      "anonymous": false,
      "inputs": [
        {
          "indexed": false,
          "internalType": "address",
          "name": "investor",
          "type": "address"
        }
      ],
      "name": "RequestInvestorRegistration",
      "type": "event"
    },
    {
      "anonymous": false,
      "inputs": [
        {
          "indexed": false,
          "internalType": "address",
          "name": "issuer",
          "type": "address"
        }
      ],
      "name": "RequestIssuerRegistration",
      "type": "event"
    },
    {
      "inputs": [
        {
          "internalType": "address",
          "name": "",
          "type": "address"
        },
        {
          "internalType": "string",
          "name": "",
          "type": "string"
        }
      ],
      "name": "amountInvested",
      "outputs": [
        {
          "internalType": "uint256",
          "name": "amount",
          "type": "uint256"
        },
        {
          "internalType": "bool",
          "name": "hasInvested",
          "type": "bool"
        },
        {
          "internalType": "uint256",
          "name": "index",
          "type": "uint256"
        }
      ],
      "stateMutability": "view",
      "type": "function"
    },
    {
      "inputs": [
        {
          "internalType": "string",
          "name": "",
          "type": "string"
        }
      ],
      "name": "dealBondContracts",
      "outputs": [
        {
          "internalType": "address",
          "name": "",
          "type": "address"
        }
      ],
      "stateMutability": "view",
      "type": "function"
    },
    {
      "inputs": [
        {
          "internalType": "string",
          "name": "",
          "type": "string"
        },
        {
          "internalType": "uint256",
          "name": "",
          "type": "uint256"
        }
      ],
      "name": "dealInvestment",
      "outputs": [
        {
          "internalType": "address",
          "name": "investor",
          "type": "address"
        },
        {
          "internalType": "uint256",
          "name": "amount",
          "type": "uint256"
        }
      ],
      "stateMutability": "view",
      "type": "function"
    },
    {
      "inputs": [
        {
          "internalType": "string",
          "name": "",
          "type": "string"
        }
      ],
      "name": "deals",
      "outputs": [
        {
          "internalType": "string",
          "name": "dealID",
          "type": "string"
        },
        {
          "internalType": "string",
          "name": "prospectusURI",
          "type": "string"
        },
        {
          "internalType": "address",
          "name": "issuerAddress",
          "type": "address"
        },
        {
          "internalType": "uint256",
          "name": "debtAmount",
          "type": "uint256"
        },
        {
          "internalType": "uint256",
          "name": "couponRate",
          "type": "uint256"
        },
        {
          "internalType": "uint256",
          "name": "couponFrequency",
          "type": "uint256"
        },
        {
          "internalType": "uint256",
          "name": "maturityDate",
          "type": "uint256"
        },
        {
          "internalType": "uint256",
          "name": "index",
          "type": "uint256"
        },
        {
          "internalType": "address",
          "name": "currency",
          "type": "address"
        },
        {
          "internalType": "uint8",
          "name": "couponType",
          "type": "uint8"
        },
        {
          "internalType": "enum BondData.DealStatus",
          "name": "status",
          "type": "uint8"
        }
      ],
      "stateMutability": "view",
      "type": "function"
    },
    {
      "inputs": [],
      "name": "identityRegistryContract",
      "outputs": [
        {
          "internalType": "address",
          "name": "",
          "type": "address"
        }
      ],
      "stateMutability": "view",
      "type": "function"
    },
    {
      "inputs": [
        {
          "internalType": "address",
          "name": "",
          "type": "address"
        }
      ],
      "name": "investorStatus",
      "outputs": [
        {
          "internalType": "enum BondData.StakeHolderStatus",
          "name": "",
          "type": "uint8"
        }
      ],
      "stateMutability": "view",
      "type": "function"
    },
    {
      "inputs": [
        {
          "internalType": "address",
          "name": "",
          "type": "address"
        }
      ],
      "name": "investors",
      "outputs": [
        {
          "internalType": "string",
          "name": "name",
          "type": "string"
        },
        {
          "internalType": "string",
          "name": "country",
          "type": "string"
        },
        {
          "internalType": "string",
          "name": "investorType",
          "type": "string"
        },
        {
          "internalType": "address",
          "name": "walletAddress",
          "type": "address"
        }
      ],
      "stateMutability": "view",
      "type": "function"
    },
    {
      "inputs": [
        {
          "internalType": "address",
          "name": "",
          "type": "address"
        },
        {
          "internalType": "uint256",
          "name": "",
          "type": "uint256"
        }
      ],
      "name": "issuerDeals",
      "outputs": [
        {
          "internalType": "string",
          "name": "dealID",
          "type": "string"
        },
        {
          "internalType": "string",
          "name": "prospectusURI",
          "type": "string"
        },
        {
          "internalType": "address",
          "name": "issuerAddress",
          "type": "address"
        },
        {
          "internalType": "uint256",
          "name": "debtAmount",
          "type": "uint256"
        },
        {
          "internalType": "uint256",
          "name": "couponRate",
          "type": "uint256"
        },
        {
          "internalType": "uint256",
          "name": "couponFrequency",
          "type": "uint256"
        },
        {
          "internalType": "uint256",
          "name": "maturityDate",
          "type": "uint256"
        },
        {
          "internalType": "uint256",
          "name": "index",
          "type": "uint256"
        },
        {
          "internalType": "address",
          "name": "currency",
          "type": "address"
        },
        {
          "internalType": "uint8",
          "name": "couponType",
          "type": "uint8"
        },
        {
          "internalType": "enum BondData.DealStatus",
          "name": "status",
          "type": "uint8"
        }
      ],
      "stateMutability": "view",
      "type": "function"
    },
    {
      "inputs": [
        {
          "internalType": "address",
          "name": "",
          "type": "address"
        }
      ],
      "name": "issuerStatus",
      "outputs": [
        {
          "internalType": "enum BondData.StakeHolderStatus",
          "name": "",
          "type": "uint8"
        }
      ],
      "stateMutability": "view",
      "type": "function"
    },
    {
      "inputs": [
        {
          "internalType": "address",
          "name": "",
          "type": "address"
        }
      ],
      "name": "issuers",
      "outputs": [
        {
          "internalType": "string",
          "name": "documentURI",
          "type": "string"
        },
        {
          "internalType": "string",
          "name": "name",
          "type": "string"
        },
        {
          "internalType": "string",
          "name": "country",
          "type": "string"
        },
        {
          "internalType": "string",
          "name": "issuerType",
          "type": "string"
        },
        {
          "internalType": "string",
          "name": "creditRating",
          "type": "string"
        },
        {
          "internalType": "uint256",
          "name": "carbonCredit",
          "type": "uint256"
        },
        {
          "internalType": "address",
          "name": "walletAddress",
          "type": "address"
        }
      ],
      "stateMutability": "view",
      "type": "function"
    },
    {
      "inputs": [],
      "name": "issuersFundContract",
      "outputs": [
        {
          "internalType": "address",
          "name": "",
          "type": "address"
        }
      ],
      "stateMutability": "view",
      "type": "function"
    },
    {
      "inputs": [],
      "name": "rolesContract",
      "outputs": [
        {
          "internalType": "address",
          "name": "",
          "type": "address"
        }
      ],
      "stateMutability": "view",
      "type": "function"
    },
    {
      "inputs": [],
      "name": "toposManager",
      "outputs": [
        {
          "internalType": "address",
          "name": "",
          "type": "address"
        }
      ],
      "stateMutability": "view",
      "type": "function"
    },
    {
      "inputs": [
        {
          "internalType": "string",
          "name": "",
          "type": "string"
        }
      ],
      "name": "totalAmountInvestedForDeal",
      "outputs": [
        {
          "internalType": "uint256",
          "name": "",
          "type": "uint256"
        }
      ],
      "stateMutability": "view",
      "type": "function"
    }
  ],
  "bytecode": "0x608060405234801561001057600080fd5b5061160f806100206000396000f3fe608060405234801561001057600080fd5b50600436106100ea5760003560e01c80637f31ed731161008c578063f936d49d11610066578063f936d49d146102b9578063fb90e441146102e9578063fcbb3c1814610307578063fe0ab4b314610337576100ea565b80637f31ed7314610243578063a0a57dac14610261578063ca53b3911461029b576100ea565b8063499fa18a116100c8578063499fa18a1461017557806349f5d1d9146101a65780635ed7e2c1146101e05780636f7bc9be14610210576100ea565b8063041e9b89146100ef578063088674e01461012157806338a7543e1461013f575b600080fd5b61010960048036038101906101049190610fec565b610367565b6040516101189392919061107c565b60405180910390f35b6101296103c1565b60405161013691906110c2565b60405180910390f35b610159600480360381019061015491906110dd565b6103e7565b60405161016c9796959493929190611189565b60405180910390f35b61018f600480360381019061018a9190611247565b6106f1565b60405161019d9291906112a3565b60405180910390f35b6101c060048036038101906101bb91906112cc565b610768565b6040516101d79b9a9998979695949392919061139f565b60405180910390f35b6101fa60048036038101906101f59190611458565b610949565b60405161020791906114a1565b60405180910390f35b61022a600480360381019061022591906110dd565b610977565b60405161023a94939291906114bc565b60405180910390f35b61024b610b5f565b60405161025891906110c2565b60405180910390f35b61027b60048036038101906102769190611458565b610b85565b6040516102929b9a9998979695949392919061139f565b60405180910390f35b6102a3610d5f565b6040516102b091906110c2565b60405180910390f35b6102d360048036038101906102ce91906110dd565b610d85565b6040516102e0919061155e565b60405180910390f35b6102f1610da5565b6040516102fe91906110c2565b60405180910390f35b610321600480360381019061031c91906110dd565b610dcb565b60405161032e919061155e565b60405180910390f35b610351600480360381019061034c9190611458565b610deb565b60405161035e91906110c2565b60405180910390f35b600860205281600052604060002081805160208101820180518482526020830160208501208183528095505050505050600091509150508060000154908060010160009054906101000a900460ff16908060020154905083565b600c60009054906101000a900473ffffffffffffffffffffffffffffffffffffffff1681565b600160205280600052604060002060009150905080600001805461040a906115a8565b80601f0160208091040260200160405190810160405280929190818152602001828054610436906115a8565b80156104835780601f1061045857610100808354040283529160200191610483565b820191906000526020600020905b81548152906001019060200180831161046657829003601f168201915b505050505090806001018054610498906115a8565b80601f01602080910402602001604051908101604052809291908181526020018280546104c4906115a8565b80156105115780601f106104e657610100808354040283529160200191610511565b820191906000526020600020905b8154815290600101906020018083116104f457829003601f168201915b505050505090806002018054610526906115a8565b80601f0160208091040260200160405190810160405280929190818152602001828054610552906115a8565b801561059f5780601f106105745761010080835404028352916020019161059f565b820191906000526020600020905b81548152906001019060200180831161058257829003601f168201915b5050505050908060030180546105b4906115a8565b80601f01602080910402602001604051908101604052809291908181526020018280546105e0906115a8565b801561062d5780601f106106025761010080835404028352916020019161062d565b820191906000526020600020905b81548152906001019060200180831161061057829003601f168201915b505050505090806004018054610642906115a8565b80601f016020809104026020016040519081016040528092919081815260200182805461066e906115a8565b80156106bb5780601f10610690576101008083540402835291602001916106bb565b820191906000526020600020905b81548152906001019060200180831161069e57829003601f168201915b5050505050908060050154908060060160009054906101000a900473ffffffffffffffffffffffffffffffffffffffff16905087565b600482805160208101820180518482526020830160208501208183528095505050505050818154811061072357600080fd5b9060005260206000209060020201600091509150508060000160009054906101000a900473ffffffffffffffffffffffffffffffffffffffff16908060010154905082565b6009602052816000526040600020818154811061078457600080fd5b9060005260206000209060090201600091509150508060000180546107a8906115a8565b80601f01602080910402602001604051908101604052809291908181526020018280546107d4906115a8565b80156108215780601f106107f657610100808354040283529160200191610821565b820191906000526020600020905b81548152906001019060200180831161080457829003601f168201915b505050505090806001018054610836906115a8565b80601f0160208091040260200160405190810160405280929190818152602001828054610862906115a8565b80156108af5780601f10610884576101008083540402835291602001916108af565b820191906000526020600020905b81548152906001019060200180831161089257829003601f168201915b5050505050908060020160009054906101000a900473ffffffffffffffffffffffffffffffffffffffff16908060030154908060040154908060050154908060060154908060070154908060080160009054906101000a900473ffffffffffffffffffffffffffffffffffffffff16908060080160149054906101000a900460ff16908060080160159054906101000a900460ff1690508b565b6005818051602081018201805184825260208301602085012081835280955050505050506000915090505481565b600260205280600052604060002060009150905080600001805461099a906115a8565b80601f01602080910402602001604051908101604052809291908181526020018280546109c6906115a8565b8015610a135780601f106109e857610100808354040283529160200191610a13565b820191906000526020600020905b8154815290600101906020018083116109f657829003601f168201915b505050505090806001018054610a28906115a8565b80601f0160208091040260200160405190810160405280929190818152602001828054610a54906115a8565b8015610aa15780601f10610a7657610100808354040283529160200191610aa1565b820191906000526020600020905b815481529060010190602001808311610a8457829003601f168201915b505050505090806002018054610ab6906115a8565b80601f0160208091040260200160405190810160405280929190818152602001828054610ae2906115a8565b8015610b2f5780601f10610b0457610100808354040283529160200191610b2f565b820191906000526020600020905b815481529060010190602001808311610b1257829003601f168201915b5050505050908060030160009054906101000a900473ffffffffffffffffffffffffffffffffffffffff16905084565b600a60009054906101000a900473ffffffffffffffffffffffffffffffffffffffff1681565b600081805160208101820180518482526020830160208501208183528095505050505050600091509050806000018054610bbe906115a8565b80601f0160208091040260200160405190810160405280929190818152602001828054610bea906115a8565b8015610c375780601f10610c0c57610100808354040283529160200191610c37565b820191906000526020600020905b815481529060010190602001808311610c1a57829003601f168201915b505050505090806001018054610c4c906115a8565b80601f0160208091040260200160405190810160405280929190818152602001828054610c78906115a8565b8015610cc55780601f10610c9a57610100808354040283529160200191610cc5565b820191906000526020600020905b815481529060010190602001808311610ca857829003601f168201915b5050505050908060020160009054906101000a900473ffffffffffffffffffffffffffffffffffffffff16908060030154908060040154908060050154908060060154908060070154908060080160009054906101000a900473ffffffffffffffffffffffffffffffffffffffff16908060080160149054906101000a900460ff16908060080160159054906101000a900460ff1690508b565b600b60009054906101000a900473ffffffffffffffffffffffffffffffffffffffff1681565b60076020528060005260406000206000915054906101000a900460ff1681565b600d60009054906101000a900473ffffffffffffffffffffffffffffffffffffffff1681565b60066020528060005260406000206000915054906101000a900460ff1681565b6003818051602081018201805184825260208301602085012081835280955050505050506000915054906101000a900473ffffffffffffffffffffffffffffffffffffffff1681565b6000604051905090565b600080fd5b600080fd5b600073ffffffffffffffffffffffffffffffffffffffff82169050919050565b6000610e7382610e48565b9050919050565b610e8381610e68565b8114610e8e57600080fd5b50565b600081359050610ea081610e7a565b92915050565b600080fd5b600080fd5b6000601f19601f8301169050919050565b7f4e487b7100000000000000000000000000000000000000000000000000000000600052604160045260246000fd5b610ef982610eb0565b810181811067ffffffffffffffff82111715610f1857610f17610ec1565b5b80604052505050565b6000610f2b610e34565b9050610f378282610ef0565b919050565b600067ffffffffffffffff821115610f5757610f56610ec1565b5b610f6082610eb0565b9050602081019050919050565b82818337600083830152505050565b6000610f8f610f8a84610f3c565b610f21565b905082815260208101848484011115610fab57610faa610eab565b5b610fb6848285610f6d565b509392505050565b600082601f830112610fd357610fd2610ea6565b5b8135610fe3848260208601610f7c565b91505092915050565b6000806040838503121561100357611002610e3e565b5b600061101185828601610e91565b925050602083013567ffffffffffffffff81111561103257611031610e43565b5b61103e85828601610fbe565b9150509250929050565b6000819050919050565b61105b81611048565b82525050565b60008115159050919050565b61107681611061565b82525050565b60006060820190506110916000830186611052565b61109e602083018561106d565b6110ab6040830184611052565b949350505050565b6110bc81610e68565b82525050565b60006020820190506110d760008301846110b3565b92915050565b6000602082840312156110f3576110f2610e3e565b5b600061110184828501610e91565b91505092915050565b600081519050919050565b600082825260208201905092915050565b60005b83811015611144578082015181840152602081019050611129565b60008484015250505050565b600061115b8261110a565b6111658185611115565b9350611175818560208601611126565b61117e81610eb0565b840191505092915050565b600060e08201905081810360008301526111a3818a611150565b905081810360208301526111b78189611150565b905081810360408301526111cb8188611150565b905081810360608301526111df8187611150565b905081810360808301526111f38186611150565b905061120260a0830185611052565b61120f60c08301846110b3565b98975050505050505050565b61122481611048565b811461122f57600080fd5b50565b6000813590506112418161121b565b92915050565b6000806040838503121561125e5761125d610e3e565b5b600083013567ffffffffffffffff81111561127c5761127b610e43565b5b61128885828601610fbe565b925050602061129985828601611232565b9150509250929050565b60006040820190506112b860008301856110b3565b6112c56020830184611052565b9392505050565b600080604083850312156112e3576112e2610e3e565b5b60006112f185828601610e91565b925050602061130285828601611232565b9150509250929050565b600060ff82169050919050565b6113228161130c565b82525050565b7f4e487b7100000000000000000000000000000000000000000000000000000000600052602160045260246000fd5b6006811061136857611367611328565b5b50565b600081905061137982611357565b919050565b60006113898261136b565b9050919050565b6113998161137e565b82525050565b60006101608201905081810360008301526113ba818e611150565b905081810360208301526113ce818d611150565b90506113dd604083018c6110b3565b6113ea606083018b611052565b6113f7608083018a611052565b61140460a0830189611052565b61141160c0830188611052565b61141e60e0830187611052565b61142c6101008301866110b3565b61143a610120830185611319565b611448610140830184611390565b9c9b505050505050505050505050565b60006020828403121561146e5761146d610e3e565b5b600082013567ffffffffffffffff81111561148c5761148b610e43565b5b61149884828501610fbe565b91505092915050565b60006020820190506114b66000830184611052565b92915050565b600060808201905081810360008301526114d68187611150565b905081810360208301526114ea8186611150565b905081810360408301526114fe8185611150565b905061150d60608301846110b3565b95945050505050565b6004811061152757611526611328565b5b50565b600081905061153882611516565b919050565b60006115488261152a565b9050919050565b6115588161153d565b82525050565b6000602082019050611573600083018461154f565b92915050565b7f4e487b7100000000000000000000000000000000000000000000000000000000600052602260045260246000fd5b600060028204905060018216806115c057607f821691505b6020821081036115d3576115d2611579565b5b5091905056fea264697066735822122092ccbd39c043954e2da1613cf2517d7b25c909a1c3b31de02c797a54ffadd45f64736f6c63430008130033",
  "immutableReferences": {},
  "source": "// SPDX-License-Identifier: CC0-1.0\npragma solidity ^0.8.0;\n\nimport \"../../BondData.sol\";\nimport \"../../Registry/IIdentityRegistry.sol\";\nimport \"../../tests/tokens/IERC20.sol\";\n\ncontract ToposBankStorage {\n    mapping(string => BondData.Deal) public deals;\n    mapping(address => BondData.Issuer) public issuers;\n    mapping(address => BondData.Investor) public investors;\n    mapping(string => address) public dealBondContracts;\n    mapping(string => BondData.DealInvestment[]) public dealInvestment;\n    mapping(string => uint256) public totalAmountInvestedForDeal;\n    mapping(address => BondData.StakeHolderStatus) public issuerStatus;\n    mapping(address => BondData.StakeHolderStatus) public investorStatus;\n    mapping(address => mapping(string => BondData.Investment)) public amountInvested;\n    mapping(address => BondData.Deal[]) public issuerDeals;\n\n    address public toposManager;\n    address public rolesContract;\n    address public identityRegistryContract;\n    address public issuersFundContract;\n\n    BondData.Bond[] bonds;\n    BondData.Deal[] listOfDeals;\n\n    address bondFactoryContract;\n\n    modifier onlyToposManager {\n        require(\n            msg.sender == toposManager,\n            \"ONLY_TOPOS_MANAGER\"\n        );\n        _;\n    }\n\n    modifier mustBeApproved(address _user) {\n        require(\n            IIdentityRegistry(identityRegistryContract).isVerified(_user),\n            \"ACCOUNT_NOT_AAPROVED\"\n        );\n        _;\n    }\n\n    event RequestIssuerRegistration(address issuer);\n    event RequestInvestorRegistration(address investor);\n    event ApproveIssuer(address issuer);\n    event ApproveInvestor(address investor);\n    event RejectIssuer(address issuer);\n    event RejectInvestor(address investor);\n    event DealSubmitted(string dealID, BondData.Deal deal);\n    event DealAPproved(string dealID);\n    event DealARejected(string dealID);\n    event RegisterForDeal(string dealID, address investor);\n    event BondIssue(string _dealID);\n    event BondRedeem(string _dealID);\n}",
  "sourcePath": "/Users/sam/Documents/Blockchain/Topos/ToposGrant/T-Grant/contracts/Topos/Bank/ToposBankStorage.sol",
  "compiler": {
    "name": "solc",
    "version": "0.8.19+commit.7dd6d404.Emscripten.clang"
  },
  "schemaVersion": "3.4.9",
  "updatedAt": "2023-11-06T12:35:21.219Z",
  "devdoc": {
    "kind": "dev",
    "methods": {},
    "version": 1
  },
  "userdoc": {
    "kind": "user",
    "methods": {},
    "version": 1
  }
}