{
  "contractName": "ToposBankStorage",
  "abi": [
    {
      "anonymous": false,
      "inputs": [
        {
          "indexed": false,
          "internalType": "string",
          "name": "dealID",
          "type": "string"
        }
      ],
      "name": "DealAPproved",
      "type": "event"
    },
    {
      "anonymous": false,
      "inputs": [
        {
          "indexed": false,
          "internalType": "string",
          "name": "dealID",
          "type": "string"
        }
      ],
      "name": "DealARejected",
      "type": "event"
    },
    {
      "anonymous": false,
      "inputs": [
        {
          "indexed": false,
          "internalType": "string",
          "name": "dealID",
          "type": "string"
        },
        {
          "components": [
            {
              "internalType": "string",
              "name": "dealID",
              "type": "string"
            },
            {
              "internalType": "string",
              "name": "prospectusURI",
              "type": "string"
            },
            {
              "internalType": "address",
              "name": "issuerAddress",
              "type": "address"
            },
            {
              "internalType": "uint256",
              "name": "debtAmount",
              "type": "uint256"
            },
            {
              "internalType": "uint256",
              "name": "couponRate",
              "type": "uint256"
            },
            {
              "internalType": "uint256",
              "name": "couponFrequency",
              "type": "uint256"
            },
            {
              "internalType": "uint256",
              "name": "maturityDate",
              "type": "uint256"
            },
            {
              "internalType": "uint256",
              "name": "index",
              "type": "uint256"
            },
            {
              "internalType": "address",
              "name": "currency",
              "type": "address"
            },
            {
              "internalType": "uint8",
              "name": "couponType",
              "type": "uint8"
            },
            {
              "internalType": "enum BondData.DealStatus",
              "name": "status",
              "type": "uint8"
            }
          ],
          "indexed": false,
          "internalType": "struct BondData.Deal",
          "name": "deal",
          "type": "tuple"
        }
      ],
      "name": "DealSubmitted",
      "type": "event"
    },
    {
      "inputs": [
        {
          "internalType": "string",
          "name": "",
          "type": "string"
        }
      ],
      "name": "dealBondContracts",
      "outputs": [
        {
          "internalType": "address",
          "name": "",
          "type": "address"
        }
      ],
      "stateMutability": "view",
      "type": "function"
    },
    {
      "inputs": [
        {
          "internalType": "string",
          "name": "",
          "type": "string"
        }
      ],
      "name": "deals",
      "outputs": [
        {
          "internalType": "string",
          "name": "dealID",
          "type": "string"
        },
        {
          "internalType": "string",
          "name": "prospectusURI",
          "type": "string"
        },
        {
          "internalType": "address",
          "name": "issuerAddress",
          "type": "address"
        },
        {
          "internalType": "uint256",
          "name": "debtAmount",
          "type": "uint256"
        },
        {
          "internalType": "uint256",
          "name": "couponRate",
          "type": "uint256"
        },
        {
          "internalType": "uint256",
          "name": "couponFrequency",
          "type": "uint256"
        },
        {
          "internalType": "uint256",
          "name": "maturityDate",
          "type": "uint256"
        },
        {
          "internalType": "uint256",
          "name": "index",
          "type": "uint256"
        },
        {
          "internalType": "address",
          "name": "currency",
          "type": "address"
        },
        {
          "internalType": "uint8",
          "name": "couponType",
          "type": "uint8"
        },
        {
          "internalType": "enum BondData.DealStatus",
          "name": "status",
          "type": "uint8"
        }
      ],
      "stateMutability": "view",
      "type": "function"
    },
    {
      "inputs": [],
      "name": "identityRegistryContract",
      "outputs": [
        {
          "internalType": "address",
          "name": "",
          "type": "address"
        }
      ],
      "stateMutability": "view",
      "type": "function"
    },
    {
      "inputs": [
        {
          "internalType": "address",
          "name": "",
          "type": "address"
        }
      ],
      "name": "investorStatus",
      "outputs": [
        {
          "internalType": "enum BondData.StakeHolderStatus",
          "name": "",
          "type": "uint8"
        }
      ],
      "stateMutability": "view",
      "type": "function"
    },
    {
      "inputs": [
        {
          "internalType": "address",
          "name": "",
          "type": "address"
        }
      ],
      "name": "investors",
      "outputs": [
        {
          "internalType": "string",
          "name": "name",
          "type": "string"
        },
        {
          "internalType": "string",
          "name": "country",
          "type": "string"
        },
        {
          "internalType": "string",
          "name": "investorType",
          "type": "string"
        },
        {
          "internalType": "address",
          "name": "walletAddress",
          "type": "address"
        }
      ],
      "stateMutability": "view",
      "type": "function"
    },
    {
      "inputs": [
        {
          "internalType": "address",
          "name": "",
          "type": "address"
        }
      ],
      "name": "issuerStatus",
      "outputs": [
        {
          "internalType": "enum BondData.StakeHolderStatus",
          "name": "",
          "type": "uint8"
        }
      ],
      "stateMutability": "view",
      "type": "function"
    },
    {
      "inputs": [
        {
          "internalType": "address",
          "name": "",
          "type": "address"
        }
      ],
      "name": "issuers",
      "outputs": [
        {
          "internalType": "string",
          "name": "documentURI",
          "type": "string"
        },
        {
          "internalType": "string",
          "name": "name",
          "type": "string"
        },
        {
          "internalType": "string",
          "name": "country",
          "type": "string"
        },
        {
          "internalType": "string",
          "name": "issuerType",
          "type": "string"
        },
        {
          "internalType": "string",
          "name": "creditRating",
          "type": "string"
        },
        {
          "internalType": "uint256",
          "name": "carbonCredit",
          "type": "uint256"
        },
        {
          "internalType": "address",
          "name": "walletAddress",
          "type": "address"
        }
      ],
      "stateMutability": "view",
      "type": "function"
    },
    {
      "inputs": [],
      "name": "rolesContract",
      "outputs": [
        {
          "internalType": "address",
          "name": "",
          "type": "address"
        }
      ],
      "stateMutability": "view",
      "type": "function"
    },
    {
      "inputs": [],
      "name": "toposManager",
      "outputs": [
        {
          "internalType": "address",
          "name": "",
          "type": "address"
        }
      ],
      "stateMutability": "view",
      "type": "function"
    }
  ],
  "bytecode": "0x608060405234801561001057600080fd5b5061100d806100206000396000f3fe608060405234801561001057600080fd5b50600436106100935760003560e01c8063a0a57dac11610066578063a0a57dac1461013d578063ca53b39114610177578063f936d49d14610195578063fcbb3c18146101c5578063fe0ab4b3146101f557610093565b8063088674e01461009857806338a7543e146100b65780636f7bc9be146100ec5780637f31ed731461011f575b600080fd5b6100a0610225565b6040516100ad9190610a2d565b60405180910390f35b6100d060048036038101906100cb9190610a88565b61024b565b6040516100e39796959493929190610b5e565b60405180910390f35b61010660048036038101906101019190610a88565b610555565b6040516101169493929190610bf0565b60405180910390f35b61012761073d565b6040516101349190610a2d565b60405180910390f35b61015760048036038101906101529190610d7f565b610763565b60405161016e9b9a99989796959493929190610e5b565b60405180910390f35b61017f61093d565b60405161018c9190610a2d565b60405180910390f35b6101af60048036038101906101aa9190610a88565b610963565b6040516101bc9190610f5c565b60405180910390f35b6101df60048036038101906101da9190610a88565b610983565b6040516101ec9190610f5c565b60405180910390f35b61020f600480360381019061020a9190610d7f565b6109a3565b60405161021c9190610a2d565b60405180910390f35b600860009054906101000a900473ffffffffffffffffffffffffffffffffffffffff1681565b600160205280600052604060002060009150905080600001805461026e90610fa6565b80601f016020809104026020016040519081016040528092919081815260200182805461029a90610fa6565b80156102e75780601f106102bc576101008083540402835291602001916102e7565b820191906000526020600020905b8154815290600101906020018083116102ca57829003601f168201915b5050505050908060010180546102fc90610fa6565b80601f016020809104026020016040519081016040528092919081815260200182805461032890610fa6565b80156103755780601f1061034a57610100808354040283529160200191610375565b820191906000526020600020905b81548152906001019060200180831161035857829003601f168201915b50505050509080600201805461038a90610fa6565b80601f01602080910402602001604051908101604052809291908181526020018280546103b690610fa6565b80156104035780601f106103d857610100808354040283529160200191610403565b820191906000526020600020905b8154815290600101906020018083116103e657829003601f168201915b50505050509080600301805461041890610fa6565b80601f016020809104026020016040519081016040528092919081815260200182805461044490610fa6565b80156104915780601f1061046657610100808354040283529160200191610491565b820191906000526020600020905b81548152906001019060200180831161047457829003601f168201915b5050505050908060040180546104a690610fa6565b80601f01602080910402602001604051908101604052809291908181526020018280546104d290610fa6565b801561051f5780601f106104f45761010080835404028352916020019161051f565b820191906000526020600020905b81548152906001019060200180831161050257829003601f168201915b5050505050908060050154908060060160009054906101000a900473ffffffffffffffffffffffffffffffffffffffff16905087565b600260205280600052604060002060009150905080600001805461057890610fa6565b80601f01602080910402602001604051908101604052809291908181526020018280546105a490610fa6565b80156105f15780601f106105c6576101008083540402835291602001916105f1565b820191906000526020600020905b8154815290600101906020018083116105d457829003601f168201915b50505050509080600101805461060690610fa6565b80601f016020809104026020016040519081016040528092919081815260200182805461063290610fa6565b801561067f5780601f106106545761010080835404028352916020019161067f565b820191906000526020600020905b81548152906001019060200180831161066257829003601f168201915b50505050509080600201805461069490610fa6565b80601f01602080910402602001604051908101604052809291908181526020018280546106c090610fa6565b801561070d5780601f106106e25761010080835404028352916020019161070d565b820191906000526020600020905b8154815290600101906020018083116106f057829003601f168201915b5050505050908060030160009054906101000a900473ffffffffffffffffffffffffffffffffffffffff16905084565b600660009054906101000a900473ffffffffffffffffffffffffffffffffffffffff1681565b60008180516020810182018051848252602083016020850120818352809550505050505060009150905080600001805461079c90610fa6565b80601f01602080910402602001604051908101604052809291908181526020018280546107c890610fa6565b80156108155780601f106107ea57610100808354040283529160200191610815565b820191906000526020600020905b8154815290600101906020018083116107f857829003601f168201915b50505050509080600101805461082a90610fa6565b80601f016020809104026020016040519081016040528092919081815260200182805461085690610fa6565b80156108a35780601f10610878576101008083540402835291602001916108a3565b820191906000526020600020905b81548152906001019060200180831161088657829003601f168201915b5050505050908060020160009054906101000a900473ffffffffffffffffffffffffffffffffffffffff16908060030154908060040154908060050154908060060154908060070154908060080160009054906101000a900473ffffffffffffffffffffffffffffffffffffffff16908060080160149054906101000a900460ff16908060080160159054906101000a900460ff1690508b565b600760009054906101000a900473ffffffffffffffffffffffffffffffffffffffff1681565b60056020528060005260406000206000915054906101000a900460ff1681565b60046020528060005260406000206000915054906101000a900460ff1681565b6003818051602081018201805184825260208301602085012081835280955050505050506000915054906101000a900473ffffffffffffffffffffffffffffffffffffffff1681565b600073ffffffffffffffffffffffffffffffffffffffff82169050919050565b6000610a17826109ec565b9050919050565b610a2781610a0c565b82525050565b6000602082019050610a426000830184610a1e565b92915050565b6000604051905090565b600080fd5b600080fd5b610a6581610a0c565b8114610a7057600080fd5b50565b600081359050610a8281610a5c565b92915050565b600060208284031215610a9e57610a9d610a52565b5b6000610aac84828501610a73565b91505092915050565b600081519050919050565b600082825260208201905092915050565b60005b83811015610aef578082015181840152602081019050610ad4565b60008484015250505050565b6000601f19601f8301169050919050565b6000610b1782610ab5565b610b218185610ac0565b9350610b31818560208601610ad1565b610b3a81610afb565b840191505092915050565b6000819050919050565b610b5881610b45565b82525050565b600060e0820190508181036000830152610b78818a610b0c565b90508181036020830152610b8c8189610b0c565b90508181036040830152610ba08188610b0c565b90508181036060830152610bb48187610b0c565b90508181036080830152610bc88186610b0c565b9050610bd760a0830185610b4f565b610be460c0830184610a1e565b98975050505050505050565b60006080820190508181036000830152610c0a8187610b0c565b90508181036020830152610c1e8186610b0c565b90508181036040830152610c328185610b0c565b9050610c416060830184610a1e565b95945050505050565b600080fd5b600080fd5b7f4e487b7100000000000000000000000000000000000000000000000000000000600052604160045260246000fd5b610c8c82610afb565b810181811067ffffffffffffffff82111715610cab57610caa610c54565b5b80604052505050565b6000610cbe610a48565b9050610cca8282610c83565b919050565b600067ffffffffffffffff821115610cea57610ce9610c54565b5b610cf382610afb565b9050602081019050919050565b82818337600083830152505050565b6000610d22610d1d84610ccf565b610cb4565b905082815260208101848484011115610d3e57610d3d610c4f565b5b610d49848285610d00565b509392505050565b600082601f830112610d6657610d65610c4a565b5b8135610d76848260208601610d0f565b91505092915050565b600060208284031215610d9557610d94610a52565b5b600082013567ffffffffffffffff811115610db357610db2610a57565b5b610dbf84828501610d51565b91505092915050565b600060ff82169050919050565b610dde81610dc8565b82525050565b7f4e487b7100000000000000000000000000000000000000000000000000000000600052602160045260246000fd5b60068110610e2457610e23610de4565b5b50565b6000819050610e3582610e13565b919050565b6000610e4582610e27565b9050919050565b610e5581610e3a565b82525050565b6000610160820190508181036000830152610e76818e610b0c565b90508181036020830152610e8a818d610b0c565b9050610e99604083018c610a1e565b610ea6606083018b610b4f565b610eb3608083018a610b4f565b610ec060a0830189610b4f565b610ecd60c0830188610b4f565b610eda60e0830187610b4f565b610ee8610100830186610a1e565b610ef6610120830185610dd5565b610f04610140830184610e4c565b9c9b505050505050505050505050565b60048110610f2557610f24610de4565b5b50565b6000819050610f3682610f14565b919050565b6000610f4682610f28565b9050919050565b610f5681610f3b565b82525050565b6000602082019050610f716000830184610f4d565b92915050565b7f4e487b7100000000000000000000000000000000000000000000000000000000600052602260045260246000fd5b60006002820490506001821680610fbe57607f821691505b602082108103610fd157610fd0610f77565b5b5091905056fea264697066735822122043446ed70d4968efa3c3105e6be4f4127aba3657369bb259cff594c3a5249e5364736f6c63430008130033",
  "immutableReferences": {},
  "source": "// SPDX-License-Identifier: CC0-1.0\npragma solidity ^0.8.0;\n\nimport \"../../BondData.sol\";\nimport \"../../Registry/IIdentityRegistry.sol\";\nimport \"../../tests/tokens/IERC20.sol\";\n\ncontract ToposBankStorage {\n    mapping(string => BondData.Deal) public deals;\n    mapping(address => BondData.Issuer) public issuers;\n    mapping(address => BondData.Investor) public investors;\n    mapping(string => address) public dealBondContracts;\n    mapping(address => BondData.StakeHolderStatus) public issuerStatus;\n    mapping(address => BondData.StakeHolderStatus) public investorStatus;\n\n    address public toposManager;\n    address public rolesContract;\n    address public identityRegistryContract;\n\n    BondData.Bond[] bonds;\n    BondData.Deal[] listOfDeals;\n\n    address bondFactoryContract;\n\n    modifier onlyToposManager {\n        require(\n            msg.sender == toposManager,\n            \"ONLY_TOPOS_MANAGER\"\n        );\n        _;\n    }\n\n    modifier mustBeApproved(address _user) {\n        require(\n            IIdentityRegistry(identityRegistryContract).isVerified(_user),\n            \"ACCOUNT_NOT_AAPROVED\"\n        );\n        _;\n    }\n\n    event DealSubmitted(string dealID, BondData.Deal deal);\n    event DealAPproved(string dealID);\n    event DealARejected(string dealID);\n}",
  "sourcePath": "/Users/sam/Documents/Blockchain/Topos/ToposGrant/T-Grant/contracts/Topos/Bank/ToposBankStorage.sol",
  "compiler": {
    "name": "solc",
    "version": "0.8.19+commit.7dd6d404.Emscripten.clang"
  },
  "schemaVersion": "3.4.9",
  "updatedAt": "2023-11-04T15:33:56.418Z",
  "devdoc": {
    "kind": "dev",
    "methods": {},
    "version": 1
  },
  "userdoc": {
    "kind": "user",
    "methods": {},
    "version": 1
  }
}