{
  "contractName": "ToposBank",
  "abi": [
    {
      "inputs": [
        {
          "internalType": "address",
          "name": "_toposManager",
          "type": "address"
        },
        {
          "internalType": "address",
          "name": "_rolesContract",
          "type": "address"
        },
        {
          "internalType": "address",
          "name": "_identityRegistryContract",
          "type": "address"
        }
      ],
      "stateMutability": "nonpayable",
      "type": "constructor"
    },
    {
      "inputs": [
        {
          "internalType": "string",
          "name": "dealID",
          "type": "string"
        }
      ],
      "name": "InvalidDealStatus",
      "type": "error"
    },
    {
      "anonymous": false,
      "inputs": [
        {
          "indexed": false,
          "internalType": "address",
          "name": "investor",
          "type": "address"
        }
      ],
      "name": "ApproveInvestor",
      "type": "event"
    },
    {
      "anonymous": false,
      "inputs": [
        {
          "indexed": false,
          "internalType": "address",
          "name": "issuer",
          "type": "address"
        }
      ],
      "name": "ApproveIssuer",
      "type": "event"
    },
    {
      "anonymous": false,
      "inputs": [
        {
          "indexed": false,
          "internalType": "string",
          "name": "_dealID",
          "type": "string"
        }
      ],
      "name": "BondIssue",
      "type": "event"
    },
    {
      "anonymous": false,
      "inputs": [
        {
          "indexed": false,
          "internalType": "string",
          "name": "_dealID",
          "type": "string"
        }
      ],
      "name": "BondRedeem",
      "type": "event"
    },
    {
      "anonymous": false,
      "inputs": [
        {
          "indexed": false,
          "internalType": "string",
          "name": "dealID",
          "type": "string"
        }
      ],
      "name": "DealAPproved",
      "type": "event"
    },
    {
      "anonymous": false,
      "inputs": [
        {
          "indexed": false,
          "internalType": "string",
          "name": "dealID",
          "type": "string"
        }
      ],
      "name": "DealARejected",
      "type": "event"
    },
    {
      "anonymous": false,
      "inputs": [
        {
          "indexed": false,
          "internalType": "string",
          "name": "dealID",
          "type": "string"
        },
        {
          "components": [
            {
              "internalType": "string",
              "name": "dealID",
              "type": "string"
            },
            {
              "internalType": "string",
              "name": "prospectusURI",
              "type": "string"
            },
            {
              "internalType": "address",
              "name": "issuerAddress",
              "type": "address"
            },
            {
              "internalType": "uint256",
              "name": "debtAmount",
              "type": "uint256"
            },
            {
              "internalType": "uint256",
              "name": "couponRate",
              "type": "uint256"
            },
            {
              "internalType": "uint256",
              "name": "couponFrequency",
              "type": "uint256"
            },
            {
              "internalType": "uint256",
              "name": "maturityDate",
              "type": "uint256"
            },
            {
              "internalType": "uint256",
              "name": "index",
              "type": "uint256"
            },
            {
              "internalType": "address",
              "name": "currency",
              "type": "address"
            },
            {
              "internalType": "uint8",
              "name": "couponType",
              "type": "uint8"
            },
            {
              "internalType": "enum BondData.DealStatus",
              "name": "status",
              "type": "uint8"
            }
          ],
          "indexed": false,
          "internalType": "struct BondData.Deal",
          "name": "deal",
          "type": "tuple"
        }
      ],
      "name": "DealSubmitted",
      "type": "event"
    },
    {
      "anonymous": false,
      "inputs": [
        {
          "indexed": false,
          "internalType": "string",
          "name": "dealID",
          "type": "string"
        },
        {
          "indexed": false,
          "internalType": "address",
          "name": "investor",
          "type": "address"
        }
      ],
      "name": "RegisterForDeal",
      "type": "event"
    },
    {
      "anonymous": false,
      "inputs": [
        {
          "indexed": false,
          "internalType": "address",
          "name": "investor",
          "type": "address"
        }
      ],
      "name": "RejectInvestor",
      "type": "event"
    },
    {
      "anonymous": false,
      "inputs": [
        {
          "indexed": false,
          "internalType": "address",
          "name": "issuer",
          "type": "address"
        }
      ],
      "name": "RejectIssuer",
      "type": "event"
    },
    {
      "anonymous": false,
      "inputs": [
        {
          "indexed": false,
          "internalType": "address",
          "name": "investor",
          "type": "address"
        }
      ],
      "name": "RequestInvestorRegistration",
      "type": "event"
    },
    {
      "anonymous": false,
      "inputs": [
        {
          "indexed": false,
          "internalType": "address",
          "name": "issuer",
          "type": "address"
        }
      ],
      "name": "RequestIssuerRegistration",
      "type": "event"
    },
    {
      "inputs": [
        {
          "internalType": "address",
          "name": "",
          "type": "address"
        },
        {
          "internalType": "string",
          "name": "",
          "type": "string"
        }
      ],
      "name": "amountInvested",
      "outputs": [
        {
          "internalType": "uint256",
          "name": "amount",
          "type": "uint256"
        },
        {
          "internalType": "bool",
          "name": "hasInvested",
          "type": "bool"
        },
        {
          "internalType": "uint256",
          "name": "index",
          "type": "uint256"
        }
      ],
      "stateMutability": "view",
      "type": "function"
    },
    {
      "inputs": [
        {
          "internalType": "string",
          "name": "",
          "type": "string"
        }
      ],
      "name": "dealBondContracts",
      "outputs": [
        {
          "internalType": "address",
          "name": "",
          "type": "address"
        }
      ],
      "stateMutability": "view",
      "type": "function"
    },
    {
      "inputs": [
        {
          "internalType": "string",
          "name": "",
          "type": "string"
        },
        {
          "internalType": "uint256",
          "name": "",
          "type": "uint256"
        }
      ],
      "name": "dealInvestment",
      "outputs": [
        {
          "internalType": "address",
          "name": "investor",
          "type": "address"
        },
        {
          "internalType": "uint256",
          "name": "amount",
          "type": "uint256"
        }
      ],
      "stateMutability": "view",
      "type": "function"
    },
    {
      "inputs": [
        {
          "internalType": "string",
          "name": "",
          "type": "string"
        }
      ],
      "name": "deals",
      "outputs": [
        {
          "internalType": "string",
          "name": "dealID",
          "type": "string"
        },
        {
          "internalType": "string",
          "name": "prospectusURI",
          "type": "string"
        },
        {
          "internalType": "address",
          "name": "issuerAddress",
          "type": "address"
        },
        {
          "internalType": "uint256",
          "name": "debtAmount",
          "type": "uint256"
        },
        {
          "internalType": "uint256",
          "name": "couponRate",
          "type": "uint256"
        },
        {
          "internalType": "uint256",
          "name": "couponFrequency",
          "type": "uint256"
        },
        {
          "internalType": "uint256",
          "name": "maturityDate",
          "type": "uint256"
        },
        {
          "internalType": "uint256",
          "name": "index",
          "type": "uint256"
        },
        {
          "internalType": "address",
          "name": "currency",
          "type": "address"
        },
        {
          "internalType": "uint8",
          "name": "couponType",
          "type": "uint8"
        },
        {
          "internalType": "enum BondData.DealStatus",
          "name": "status",
          "type": "uint8"
        }
      ],
      "stateMutability": "view",
      "type": "function"
    },
    {
      "inputs": [],
      "name": "identityRegistryContract",
      "outputs": [
        {
          "internalType": "address",
          "name": "",
          "type": "address"
        }
      ],
      "stateMutability": "view",
      "type": "function"
    },
    {
      "inputs": [
        {
          "internalType": "address",
          "name": "",
          "type": "address"
        }
      ],
      "name": "investorStatus",
      "outputs": [
        {
          "internalType": "enum BondData.StakeHolderStatus",
          "name": "",
          "type": "uint8"
        }
      ],
      "stateMutability": "view",
      "type": "function"
    },
    {
      "inputs": [
        {
          "internalType": "address",
          "name": "",
          "type": "address"
        }
      ],
      "name": "investors",
      "outputs": [
        {
          "internalType": "string",
          "name": "name",
          "type": "string"
        },
        {
          "internalType": "string",
          "name": "country",
          "type": "string"
        },
        {
          "internalType": "string",
          "name": "investorType",
          "type": "string"
        },
        {
          "internalType": "address",
          "name": "walletAddress",
          "type": "address"
        }
      ],
      "stateMutability": "view",
      "type": "function"
    },
    {
      "inputs": [
        {
          "internalType": "address",
          "name": "",
          "type": "address"
        },
        {
          "internalType": "uint256",
          "name": "",
          "type": "uint256"
        }
      ],
      "name": "issuerDeals",
      "outputs": [
        {
          "internalType": "string",
          "name": "dealID",
          "type": "string"
        },
        {
          "internalType": "string",
          "name": "prospectusURI",
          "type": "string"
        },
        {
          "internalType": "address",
          "name": "issuerAddress",
          "type": "address"
        },
        {
          "internalType": "uint256",
          "name": "debtAmount",
          "type": "uint256"
        },
        {
          "internalType": "uint256",
          "name": "couponRate",
          "type": "uint256"
        },
        {
          "internalType": "uint256",
          "name": "couponFrequency",
          "type": "uint256"
        },
        {
          "internalType": "uint256",
          "name": "maturityDate",
          "type": "uint256"
        },
        {
          "internalType": "uint256",
          "name": "index",
          "type": "uint256"
        },
        {
          "internalType": "address",
          "name": "currency",
          "type": "address"
        },
        {
          "internalType": "uint8",
          "name": "couponType",
          "type": "uint8"
        },
        {
          "internalType": "enum BondData.DealStatus",
          "name": "status",
          "type": "uint8"
        }
      ],
      "stateMutability": "view",
      "type": "function"
    },
    {
      "inputs": [
        {
          "internalType": "address",
          "name": "",
          "type": "address"
        }
      ],
      "name": "issuerStatus",
      "outputs": [
        {
          "internalType": "enum BondData.StakeHolderStatus",
          "name": "",
          "type": "uint8"
        }
      ],
      "stateMutability": "view",
      "type": "function"
    },
    {
      "inputs": [
        {
          "internalType": "address",
          "name": "",
          "type": "address"
        }
      ],
      "name": "issuers",
      "outputs": [
        {
          "internalType": "string",
          "name": "documentURI",
          "type": "string"
        },
        {
          "internalType": "string",
          "name": "name",
          "type": "string"
        },
        {
          "internalType": "string",
          "name": "country",
          "type": "string"
        },
        {
          "internalType": "string",
          "name": "issuerType",
          "type": "string"
        },
        {
          "internalType": "string",
          "name": "creditRating",
          "type": "string"
        },
        {
          "internalType": "uint256",
          "name": "carbonCredit",
          "type": "uint256"
        },
        {
          "internalType": "address",
          "name": "walletAddress",
          "type": "address"
        }
      ],
      "stateMutability": "view",
      "type": "function"
    },
    {
      "inputs": [],
      "name": "rolesContract",
      "outputs": [
        {
          "internalType": "address",
          "name": "",
          "type": "address"
        }
      ],
      "stateMutability": "view",
      "type": "function"
    },
    {
      "inputs": [],
      "name": "toposManager",
      "outputs": [
        {
          "internalType": "address",
          "name": "",
          "type": "address"
        }
      ],
      "stateMutability": "view",
      "type": "function"
    },
    {
      "inputs": [
        {
          "internalType": "string",
          "name": "",
          "type": "string"
        }
      ],
      "name": "totalAmountInvestedForDeal",
      "outputs": [
        {
          "internalType": "uint256",
          "name": "",
          "type": "uint256"
        }
      ],
      "stateMutability": "view",
      "type": "function"
    },
    {
      "inputs": [
        {
          "components": [
            {
              "internalType": "string",
              "name": "documentURI",
              "type": "string"
            },
            {
              "internalType": "string",
              "name": "name",
              "type": "string"
            },
            {
              "internalType": "string",
              "name": "country",
              "type": "string"
            },
            {
              "internalType": "string",
              "name": "issuerType",
              "type": "string"
            },
            {
              "internalType": "string",
              "name": "creditRating",
              "type": "string"
            },
            {
              "internalType": "uint256",
              "name": "carbonCredit",
              "type": "uint256"
            },
            {
              "internalType": "address",
              "name": "walletAddress",
              "type": "address"
            }
          ],
          "internalType": "struct BondData.Issuer",
          "name": "_issuer",
          "type": "tuple"
        }
      ],
      "name": "requestRegistrationIssuer",
      "outputs": [],
      "stateMutability": "nonpayable",
      "type": "function"
    },
    {
      "inputs": [
        {
          "components": [
            {
              "internalType": "string",
              "name": "name",
              "type": "string"
            },
            {
              "internalType": "string",
              "name": "country",
              "type": "string"
            },
            {
              "internalType": "string",
              "name": "investorType",
              "type": "string"
            },
            {
              "internalType": "address",
              "name": "walletAddress",
              "type": "address"
            }
          ],
          "internalType": "struct BondData.Investor",
          "name": "_investor",
          "type": "tuple"
        }
      ],
      "name": "requestRegistrationInvestor",
      "outputs": [],
      "stateMutability": "nonpayable",
      "type": "function"
    },
    {
      "inputs": [
        {
          "internalType": "address",
          "name": "_issuer",
          "type": "address"
        }
      ],
      "name": "approveIssuer",
      "outputs": [],
      "stateMutability": "nonpayable",
      "type": "function"
    },
    {
      "inputs": [
        {
          "internalType": "address",
          "name": "_investor",
          "type": "address"
        }
      ],
      "name": "approveInvestor",
      "outputs": [],
      "stateMutability": "nonpayable",
      "type": "function"
    },
    {
      "inputs": [
        {
          "internalType": "address",
          "name": "_issuer",
          "type": "address"
        }
      ],
      "name": "rejectIssuer",
      "outputs": [],
      "stateMutability": "nonpayable",
      "type": "function"
    },
    {
      "inputs": [
        {
          "internalType": "address",
          "name": "_investor",
          "type": "address"
        }
      ],
      "name": "rejectInvestor",
      "outputs": [],
      "stateMutability": "nonpayable",
      "type": "function"
    },
    {
      "inputs": [
        {
          "internalType": "string",
          "name": "_dealID",
          "type": "string"
        },
        {
          "components": [
            {
              "internalType": "string",
              "name": "dealID",
              "type": "string"
            },
            {
              "internalType": "string",
              "name": "prospectusURI",
              "type": "string"
            },
            {
              "internalType": "address",
              "name": "issuerAddress",
              "type": "address"
            },
            {
              "internalType": "uint256",
              "name": "debtAmount",
              "type": "uint256"
            },
            {
              "internalType": "uint256",
              "name": "couponRate",
              "type": "uint256"
            },
            {
              "internalType": "uint256",
              "name": "couponFrequency",
              "type": "uint256"
            },
            {
              "internalType": "uint256",
              "name": "maturityDate",
              "type": "uint256"
            },
            {
              "internalType": "uint256",
              "name": "index",
              "type": "uint256"
            },
            {
              "internalType": "address",
              "name": "currency",
              "type": "address"
            },
            {
              "internalType": "uint8",
              "name": "couponType",
              "type": "uint8"
            },
            {
              "internalType": "enum BondData.DealStatus",
              "name": "status",
              "type": "uint8"
            }
          ],
          "internalType": "struct BondData.Deal",
          "name": "_deal",
          "type": "tuple"
        }
      ],
      "name": "submitDeal",
      "outputs": [],
      "stateMutability": "nonpayable",
      "type": "function"
    },
    {
      "inputs": [
        {
          "internalType": "string",
          "name": "_dealID",
          "type": "string"
        }
      ],
      "name": "approveDeal",
      "outputs": [],
      "stateMutability": "nonpayable",
      "type": "function"
    },
    {
      "inputs": [
        {
          "internalType": "string",
          "name": "_dealID",
          "type": "string"
        }
      ],
      "name": "rejectDeal",
      "outputs": [],
      "stateMutability": "nonpayable",
      "type": "function"
    },
    {
      "inputs": [
        {
          "internalType": "string",
          "name": "_dealID",
          "type": "string"
        },
        {
          "internalType": "uint256",
          "name": "_amount",
          "type": "uint256"
        }
      ],
      "name": "registerForDeal",
      "outputs": [],
      "stateMutability": "nonpayable",
      "type": "function"
    },
    {
      "inputs": [
        {
          "internalType": "string",
          "name": "_dealID",
          "type": "string"
        },
        {
          "components": [
            {
              "internalType": "string",
              "name": "isin",
              "type": "string"
            },
            {
              "internalType": "string",
              "name": "name",
              "type": "string"
            },
            {
              "internalType": "string",
              "name": "symbol",
              "type": "string"
            },
            {
              "internalType": "address",
              "name": "currency",
              "type": "address"
            },
            {
              "internalType": "uint256",
              "name": "denomination",
              "type": "uint256"
            },
            {
              "internalType": "uint256",
              "name": "issueVolume",
              "type": "uint256"
            },
            {
              "internalType": "uint256",
              "name": "couponRate",
              "type": "uint256"
            },
            {
              "internalType": "uint8",
              "name": "couponType",
              "type": "uint8"
            },
            {
              "internalType": "uint256",
              "name": "couponFrequency",
              "type": "uint256"
            },
            {
              "internalType": "uint256",
              "name": "issueDate",
              "type": "uint256"
            },
            {
              "internalType": "uint256",
              "name": "maturityDate",
              "type": "uint256"
            }
          ],
          "internalType": "struct BondData.Bond",
          "name": "_bond",
          "type": "tuple"
        },
        {
          "internalType": "address",
          "name": "_bondContract",
          "type": "address"
        }
      ],
      "name": "issue",
      "outputs": [],
      "stateMutability": "nonpayable",
      "type": "function"
    },
    {
      "inputs": [],
      "name": "redeem",
      "outputs": [],
      "stateMutability": "nonpayable",
      "type": "function"
    },
    {
      "inputs": [
        {
          "internalType": "string",
          "name": "_dealID",
          "type": "string"
        }
      ],
      "name": "getTotalAmounInvested",
      "outputs": [
        {
          "internalType": "uint256",
          "name": "",
          "type": "uint256"
        }
      ],
      "stateMutability": "view",
      "type": "function"
    },
    {
      "inputs": [
        {
          "internalType": "string",
          "name": "_dealID",
          "type": "string"
        }
      ],
      "name": "getDealInvestment",
      "outputs": [
        {
          "components": [
            {
              "internalType": "address",
              "name": "investor",
              "type": "address"
            },
            {
              "internalType": "uint256",
              "name": "amount",
              "type": "uint256"
            }
          ],
          "internalType": "struct BondData.DealInvestment[]",
          "name": "",
          "type": "tuple[]"
        }
      ],
      "stateMutability": "view",
      "type": "function"
    }
  ],
  "bytecode": "0x60806040523480156200001157600080fd5b5060405162005adb38038062005adb8339818101604052810190620000379190620001dc565b82600a60006101000a81548173ffffffffffffffffffffffffffffffffffffffff021916908373ffffffffffffffffffffffffffffffffffffffff16021790555081600b60006101000a81548173ffffffffffffffffffffffffffffffffffffffff021916908373ffffffffffffffffffffffffffffffffffffffff1602179055508173ffffffffffffffffffffffffffffffffffffffff1663cfde1890846040518263ffffffff1660e01b8152600401620000f49190620002aa565b600060405180830381600087803b1580156200010f57600080fd5b505af115801562000124573d6000803e3d6000fd5b5050505080600c60006101000a81548173ffffffffffffffffffffffffffffffffffffffff021916908373ffffffffffffffffffffffffffffffffffffffff160217905550505050620002dc565b600080fd5b600073ffffffffffffffffffffffffffffffffffffffff82169050919050565b6000620001a48262000177565b9050919050565b620001b68162000197565b8114620001c257600080fd5b50565b600081519050620001d681620001ab565b92915050565b600080600060608486031215620001f857620001f762000172565b5b60006200020886828701620001c5565b93505060206200021b86828701620001c5565b92505060406200022e86828701620001c5565b9150509250925092565b600082825260208201905092915050565b7f4d414e4147455200000000000000000000000000000000000000000000000000600082015250565b60006200028160078362000238565b91506200028e8262000249565b602082019050919050565b620002a48162000197565b82525050565b60006040820190508181036000830152620002c58162000272565b9050620002d6602083018462000299565b92915050565b6157ef80620002ec6000396000f3fe608060405234801561001057600080fd5b50600436106101a95760003560e01c8063754f399a116100f9578063c8d7f62e11610097578063d31628a011610071578063d31628a0146104fa578063f936d49d14610516578063fcbb3c1814610546578063fe0ab4b314610576576101a9565b8063c8d7f62e14610490578063ca53b391146104c0578063d304a813146104de576101a9565b806382deb86e116100d357806382deb86e14610414578063a0a57dac14610430578063be040fb01461046a578063c88efe6514610474576101a9565b8063754f399a146103be5780637de14129146103da5780637f31ed73146103f6576101a9565b806348f92ee811610166578063507251cb11610140578063507251cb1461030f5780635ed7e2c11461032b578063605936ea1461035b5780636f7bc9be1461038b576101a9565b806348f92ee814610288578063499fa18a146102a457806349f5d1d9146102d5576101a9565b8063041e9b89146101ae578063088674e0146101e05780630df8bfda146101fe57806323c8d7061461021a57806338a7543e146102365780633dc349be1461026c575b600080fd5b6101c860048036038101906101c3919061378c565b6105a6565b6040516101d79392919061381c565b60405180910390f35b6101e8610600565b6040516101f59190613862565b60405180910390f35b61021860048036038101906102139190613909565b610626565b005b610234600480360381019061022f919061398e565b610c5c565b005b610250600480360381019061024b9190613a0a565b611119565b6040516102639796959493929190613ab6565b60405180910390f35b61028660048036038101906102819190613b67565b611423565b005b6102a2600480360381019061029d9190613bb0565b61175a565b005b6102be60048036038101906102b99190613bfd565b61197b565b6040516102cc929190613c59565b60405180910390f35b6102ef60048036038101906102ea9190613c82565b6119f2565b6040516103069b9a99989796959493929190613d55565b60405180910390f35b61032960048036038101906103249190613e2e565b611bd3565b005b61034560048036038101906103409190613ebe565b61216c565b6040516103529190613f07565b60405180910390f35b61037560048036038101906103709190613bb0565b61219a565b6040516103829190613f07565b60405180910390f35b6103a560048036038101906103a09190613a0a565b6121c5565b6040516103b59493929190613f22565b60405180910390f35b6103d860048036038101906103d39190613bb0565b6123ad565b005b6103f460048036038101906103ef9190613a0a565b6125ce565b005b6103fe612840565b60405161040b9190613862565b60405180910390f35b61042e60048036038101906104299190613a0a565b612866565b005b61044a60048036038101906104459190613ebe565b612ad8565b6040516104619b9a99989796959493929190613d55565b60405180910390f35b610472612cb2565b005b61048e60048036038101906104899190613a0a565b612d44565b005b6104aa60048036038101906104a59190613bb0565b612f29565b6040516104b79190614078565b60405180910390f35b6104c8613009565b6040516104d59190613862565b60405180910390f35b6104f860048036038101906104f39190613a0a565b61302f565b005b610514600480360381019061050f91906140b9565b613214565b005b610530600480360381019061052b9190613a0a565b61354b565b60405161053d919061414a565b60405180910390f35b610560600480360381019061055b9190613a0a565b61356b565b60405161056d919061414a565b60405180910390f35b610590600480360381019061058b9190613ebe565b61358b565b60405161059d9190613862565b60405180910390f35b600860205281600052604060002081805160208101820180518482526020830160208501208183528095505050505050600091509150508060000154908060010160009054906101000a900460ff16908060020154905083565b600c60009054906101000a900473ffffffffffffffffffffffffffffffffffffffff1681565b33600c60009054906101000a900473ffffffffffffffffffffffffffffffffffffffff1673ffffffffffffffffffffffffffffffffffffffff1663b9209e33826040518263ffffffff1660e01b81526004016106829190613862565b602060405180830381865afa15801561069f573d6000803e3d6000fd5b505050506040513d601f19601f820116820180604052508101906106c39190614191565b610702576040517f08c379a00000000000000000000000000000000000000000000000000000000081526004016106f99061420a565b60405180910390fd5b60006005858560405161071692919061425a565b90815260200160405180910390205490506002600581111561073b5761073a613cde565b5b6000868660405161074d92919061425a565b908152602001604051809103902060080160159054906101000a900460ff16600581111561077e5761077d613cde565b5b146107c25784846040517fb71650840000000000000000000000000000000000000000000000000000000081526004016107b99291906142a0565b60405180910390fd5b600083141580156108015750600085856040516107e092919061425a565b90815260200160405180910390206003015481846107fe91906142f3565b11155b610840576040517f08c379a000000000000000000000000000000000000000000000000000000000815260040161083790614373565b60405180910390fd5b6000600860003373ffffffffffffffffffffffffffffffffffffffff1673ffffffffffffffffffffffffffffffffffffffff168152602001908152602001600020868660405161089192919061425a565b908152602001604051809103902060010160009054906101000a900460ff16905083826108be91906142f3565b600587876040516108d092919061425a565b9081526020016040518091039020819055508015610a7c576000600860003373ffffffffffffffffffffffffffffffffffffffff1673ffffffffffffffffffffffffffffffffffffffff168152602001908152602001600020878760405161093992919061425a565b90815260200160405180910390206002015490506000600860003373ffffffffffffffffffffffffffffffffffffffff1673ffffffffffffffffffffffffffffffffffffffff168152602001908152602001600020888860405161099e92919061425a565b908152602001604051809103902060000154905085816109be91906142f3565b600489896040516109d092919061425a565b908152602001604051809103902083815481106109f0576109ef614393565b5b9060005260206000209060020201600101819055508581610a1191906142f3565b600860003373ffffffffffffffffffffffffffffffffffffffff1673ffffffffffffffffffffffffffffffffffffffff1681526020019081526020016000208989604051610a6092919061425a565b9081526020016040518091039020600001819055505050610c19565b604051806060016040528085815260200160011515815260200160048888604051610aa892919061425a565b908152602001604051809103902080549050815250600860003373ffffffffffffffffffffffffffffffffffffffff1673ffffffffffffffffffffffffffffffffffffffff1681526020019081526020016000208787604051610b0c92919061425a565b90815260200160405180910390206000820151816000015560208201518160010160006101000a81548160ff0219169083151502179055506040820151816002015590505060048686604051610b6392919061425a565b908152602001604051809103902060405180604001604052803373ffffffffffffffffffffffffffffffffffffffff16815260200186815250908060018154018082558091505060019003906000526020600020906002020160009091909190915060008201518160000160006101000a81548173ffffffffffffffffffffffffffffffffffffffff021916908373ffffffffffffffffffffffffffffffffffffffff1602179055506020820151816001015550505b7f0bdaf52b4de514796607307fbbcf007ee6d59e81e1be436b67c5a567a2e8d121868633604051610c4c939291906143c2565b60405180910390a1505050505050565b600b60009054906101000a900473ffffffffffffffffffffffffffffffffffffffff1673ffffffffffffffffffffffffffffffffffffffff1663877b9a67336040518263ffffffff1660e01b8152600401610cb79190613862565b602060405180830381865afa158015610cd4573d6000803e3d6000fd5b505050506040513d601f19601f82011682018060405250810190610cf89190614191565b610d37576040517f08c379a0000000000000000000000000000000000000000000000000000000008152600401610d2e90614440565b60405180910390fd5b806040016020810190610d4a9190613a0a565b73ffffffffffffffffffffffffffffffffffffffff163373ffffffffffffffffffffffffffffffffffffffff1614610db7576040517f08c379a0000000000000000000000000000000000000000000000000000000008152600401610dae906144ac565b60405180910390fd5b60006005811115610dcb57610dca613cde565b5b60008484604051610ddd92919061425a565b908152602001604051809103902060080160159054906101000a900460ff166005811115610e0e57610e0d613cde565b5b14610e4e576040517f08c379a0000000000000000000000000000000000000000000000000000000008152600401610e4590614518565b60405180910390fd5b8060008484604051610e6192919061425a565b90815260200160405180910390208181610e7b9190614cc4565b905050600160008484604051610e9292919061425a565b908152602001604051809103902060080160156101000a81548160ff02191690836005811115610ec557610ec4613cde565b5b0217905550600e8054905060008484604051610ee292919061425a565b908152602001604051809103902060070181905550600e60008484604051610f0b92919061425a565b9081526020016040518091039020908060018154018082558091505060019003906000526020600020906009020160009091909190915060008201816000019081610f569190614ce8565b5060018201816001019081610f6b9190614ce8565b506002820160009054906101000a900473ffffffffffffffffffffffffffffffffffffffff168160020160006101000a81548173ffffffffffffffffffffffffffffffffffffffff021916908373ffffffffffffffffffffffffffffffffffffffff16021790555060038201548160030155600482015481600401556005820154816005015560068201548160060155600782015481600701556008820160009054906101000a900473ffffffffffffffffffffffffffffffffffffffff168160080160006101000a81548173ffffffffffffffffffffffffffffffffffffffff021916908373ffffffffffffffffffffffffffffffffffffffff1602179055506008820160149054906101000a900460ff168160080160146101000a81548160ff021916908360ff1602179055506008820160159054906101000a900460ff168160080160156101000a81548160ff021916908360058111156110d2576110d1613cde565b5b021790555050507fc32e04bf1356c91e89bdc0de134ba5c3fc8df94d30cea4436e9346bc335199ed83838360405161110c93929190615076565b60405180910390a1505050565b600160205280600052604060002060009150905080600001805461113c906145e4565b80601f0160208091040260200160405190810160405280929190818152602001828054611168906145e4565b80156111b55780601f1061118a576101008083540402835291602001916111b5565b820191906000526020600020905b81548152906001019060200180831161119857829003601f168201915b5050505050908060010180546111ca906145e4565b80601f01602080910402602001604051908101604052809291908181526020018280546111f6906145e4565b80156112435780601f1061121857610100808354040283529160200191611243565b820191906000526020600020905b81548152906001019060200180831161122657829003601f168201915b505050505090806002018054611258906145e4565b80601f0160208091040260200160405190810160405280929190818152602001828054611284906145e4565b80156112d15780601f106112a6576101008083540402835291602001916112d1565b820191906000526020600020905b8154815290600101906020018083116112b457829003601f168201915b5050505050908060030180546112e6906145e4565b80601f0160208091040260200160405190810160405280929190818152602001828054611312906145e4565b801561135f5780601f106113345761010080835404028352916020019161135f565b820191906000526020600020905b81548152906001019060200180831161134257829003601f168201915b505050505090806004018054611374906145e4565b80601f01602080910402602001604051908101604052809291908181526020018280546113a0906145e4565b80156113ed5780601f106113c2576101008083540402835291602001916113ed565b820191906000526020600020905b8154815290600101906020018083116113d057829003601f168201915b5050505050908060050154908060060160009054906101000a900473ffffffffffffffffffffffffffffffffffffffff16905087565b8060c00160208101906114369190613a0a565b600c60009054906101000a900473ffffffffffffffffffffffffffffffffffffffff1673ffffffffffffffffffffffffffffffffffffffff1663b9209e33826040518263ffffffff1660e01b81526004016114919190613862565b602060405180830381865afa1580156114ae573d6000803e3d6000fd5b505050506040513d601f19601f820116820180604052508101906114d29190614191565b611511576040517f08c379a00000000000000000000000000000000000000000000000000000000081526004016115089061420a565b60405180910390fd5b8160c00160208101906115249190613a0a565b73ffffffffffffffffffffffffffffffffffffffff163373ffffffffffffffffffffffffffffffffffffffff1614611591576040517f08c379a0000000000000000000000000000000000000000000000000000000008152600401611588906150fb565b60405180910390fd5b600060038111156115a5576115a4613cde565b5b600660003373ffffffffffffffffffffffffffffffffffffffff1673ffffffffffffffffffffffffffffffffffffffff16815260200190815260200160002060009054906101000a900460ff16600381111561160457611603613cde565b5b14611644576040517f08c379a000000000000000000000000000000000000000000000000000000000815260040161163b90615167565b60405180910390fd5b81600160008460c001602081019061165c9190613a0a565b73ffffffffffffffffffffffffffffffffffffffff1673ffffffffffffffffffffffffffffffffffffffff16815260200190815260200160002081816116a29190615272565b9050506001600660003373ffffffffffffffffffffffffffffffffffffffff1673ffffffffffffffffffffffffffffffffffffffff16815260200190815260200160002060006101000a81548160ff0219169083600381111561170857611707613cde565b5b02179055507f0a0028275fa37d11ea8d5d29fd14fd8aa6c52af0e0cf819b89ca2cd9193f11858260c00160208101906117419190613a0a565b60405161174e9190613862565b60405180910390a15050565b600a60009054906101000a900473ffffffffffffffffffffffffffffffffffffffff1673ffffffffffffffffffffffffffffffffffffffff163373ffffffffffffffffffffffffffffffffffffffff16146117ea576040517f08c379a00000000000000000000000000000000000000000000000000000000081526004016117e1906152cc565b60405180910390fd5b600160058111156117fe576117fd613cde565b5b6000838360405161181092919061425a565b908152602001604051809103902060080160159054906101000a900460ff16600581111561184157611840613cde565b5b14611881576040517f08c379a000000000000000000000000000000000000000000000000000000000815260040161187890614518565b60405180910390fd5b60026000838360405161189592919061425a565b908152602001604051809103902060080160156101000a81548160ff021916908360058111156118c8576118c7613cde565b5b02179055506002600e600084846040516118e392919061425a565b9081526020016040518091039020600701548154811061190657611905614393565b5b906000526020600020906009020160080160156101000a81548160ff0219169083600581111561193957611938613cde565b5b02179055507f039501081328ffe3eb02459ad6f6e90b69e23ba1422b574ee84c1f52b2fc0310828260405161196f9291906142a0565b60405180910390a15050565b60048280516020810182018051848252602083016020850120818352809550505050505081815481106119ad57600080fd5b9060005260206000209060020201600091509150508060000160009054906101000a900473ffffffffffffffffffffffffffffffffffffffff16908060010154905082565b60096020528160005260406000208181548110611a0e57600080fd5b906000526020600020906009020160009150915050806000018054611a32906145e4565b80601f0160208091040260200160405190810160405280929190818152602001828054611a5e906145e4565b8015611aab5780601f10611a8057610100808354040283529160200191611aab565b820191906000526020600020905b815481529060010190602001808311611a8e57829003601f168201915b505050505090806001018054611ac0906145e4565b80601f0160208091040260200160405190810160405280929190818152602001828054611aec906145e4565b8015611b395780601f10611b0e57610100808354040283529160200191611b39565b820191906000526020600020905b815481529060010190602001808311611b1c57829003601f168201915b5050505050908060020160009054906101000a900473ffffffffffffffffffffffffffffffffffffffff16908060030154908060040154908060050154908060060154908060070154908060080160009054906101000a900473ffffffffffffffffffffffffffffffffffffffff16908060080160149054906101000a900460ff16908060080160159054906101000a900460ff1690508b565b600a60009054906101000a900473ffffffffffffffffffffffffffffffffffffffff1673ffffffffffffffffffffffffffffffffffffffff163373ffffffffffffffffffffffffffffffffffffffff1614611c63576040517f08c379a0000000000000000000000000000000000000000000000000000000008152600401611c5a906152cc565b60405180910390fd5b60026005811115611c7757611c76613cde565b5b60008585604051611c8992919061425a565b908152602001604051809103902060080160159054906101000a900460ff166005811115611cba57611cb9613cde565b5b14611cfe5783836040517fb7165084000000000000000000000000000000000000000000000000000000008152600401611cf59291906142a0565b60405180910390fd5b8060038585604051611d1192919061425a565b908152602001604051809103902060006101000a81548173ffffffffffffffffffffffffffffffffffffffff021916908373ffffffffffffffffffffffffffffffffffffffff16021790555060046005811115611d7157611d70613cde565b5b60008585604051611d8392919061425a565b908152602001604051809103902060080160159054906101000a900460ff166005811115611db457611db3613cde565b5b50506004600e60008686604051611dcc92919061425a565b90815260200160405180910390206007015481548110611def57611dee614393565b5b906000526020600020906009020160080160156101000a81548160ff02191690836005811115611e2257611e21613cde565b5b02179055508073ffffffffffffffffffffffffffffffffffffffff1663d76805aa836040518263ffffffff1660e01b8152600401611e609190615447565b600060405180830381600087803b158015611e7a57600080fd5b505af1158015611e8e573d6000803e3d6000fd5b50505050600d8290806001815401808255809150506001900390600052602060002090600b02016000909190919091508181611eca9190615621565b505060096000808686604051611ee192919061425a565b908152602001604051809103902060020160009054906101000a900473ffffffffffffffffffffffffffffffffffffffff1673ffffffffffffffffffffffffffffffffffffffff1673ffffffffffffffffffffffffffffffffffffffff16815260200190815260200160002060008585604051611f5f92919061425a565b9081526020016040518091039020908060018154018082558091505060019003906000526020600020906009020160009091909190915060008201816000019081611faa9190614ce8565b5060018201816001019081611fbf9190614ce8565b506002820160009054906101000a900473ffffffffffffffffffffffffffffffffffffffff168160020160006101000a81548173ffffffffffffffffffffffffffffffffffffffff021916908373ffffffffffffffffffffffffffffffffffffffff16021790555060038201548160030155600482015481600401556005820154816005015560068201548160060155600782015481600701556008820160009054906101000a900473ffffffffffffffffffffffffffffffffffffffff168160080160006101000a81548173ffffffffffffffffffffffffffffffffffffffff021916908373ffffffffffffffffffffffffffffffffffffffff1602179055506008820160149054906101000a900460ff168160080160146101000a81548160ff021916908360ff1602179055506008820160159054906101000a900460ff168160080160156101000a81548160ff0219169083600581111561212657612125613cde565b5b021790555050507f44b55c2d9270546faf6ff2f0acac078011883b82782d9b08de2d3af4543c2b18848460405161215e9291906142a0565b60405180910390a150505050565b6005818051602081018201805184825260208301602085012081835280955050505050506000915090505481565b6000600583836040516121ae92919061425a565b908152602001604051809103902054905092915050565b60026020528060005260406000206000915090508060000180546121e8906145e4565b80601f0160208091040260200160405190810160405280929190818152602001828054612214906145e4565b80156122615780601f1061223657610100808354040283529160200191612261565b820191906000526020600020905b81548152906001019060200180831161224457829003601f168201915b505050505090806001018054612276906145e4565b80601f01602080910402602001604051908101604052809291908181526020018280546122a2906145e4565b80156122ef5780601f106122c4576101008083540402835291602001916122ef565b820191906000526020600020905b8154815290600101906020018083116122d257829003601f168201915b505050505090806002018054612304906145e4565b80601f0160208091040260200160405190810160405280929190818152602001828054612330906145e4565b801561237d5780601f106123525761010080835404028352916020019161237d565b820191906000526020600020905b81548152906001019060200180831161236057829003601f168201915b5050505050908060030160009054906101000a900473ffffffffffffffffffffffffffffffffffffffff16905084565b600a60009054906101000a900473ffffffffffffffffffffffffffffffffffffffff1673ffffffffffffffffffffffffffffffffffffffff163373ffffffffffffffffffffffffffffffffffffffff161461243d576040517f08c379a0000000000000000000000000000000000000000000000000000000008152600401612434906152cc565b60405180910390fd5b6001600581111561245157612450613cde565b5b6000838360405161246392919061425a565b908152602001604051809103902060080160159054906101000a900460ff16600581111561249457612493613cde565b5b146124d4576040517f08c379a00000000000000000000000000000000000000000000000000000000081526004016124cb90614518565b60405180910390fd5b6003600083836040516124e892919061425a565b908152602001604051809103902060080160156101000a81548160ff0219169083600581111561251b5761251a613cde565b5b02179055506003600e6000848460405161253692919061425a565b9081526020016040518091039020600701548154811061255957612558614393565b5b906000526020600020906009020160080160156101000a81548160ff0219169083600581111561258c5761258b613cde565b5b02179055507f735ccdd611541d36c82a3622baab7f58b8a0f5be664555b0d9c95ddde16096d382826040516125c29291906142a0565b60405180910390a15050565b600a60009054906101000a900473ffffffffffffffffffffffffffffffffffffffff1673ffffffffffffffffffffffffffffffffffffffff163373ffffffffffffffffffffffffffffffffffffffff161461265e576040517f08c379a0000000000000000000000000000000000000000000000000000000008152600401612655906152cc565b60405180910390fd5b6001600381111561267257612671613cde565b5b600760008373ffffffffffffffffffffffffffffffffffffffff1673ffffffffffffffffffffffffffffffffffffffff16815260200190815260200160002060009054906101000a900460ff1660038111156126d1576126d0613cde565b5b14612711576040517f08c379a000000000000000000000000000000000000000000000000000000000815260040161270890615167565b60405180910390fd5b6002600760008373ffffffffffffffffffffffffffffffffffffffff1673ffffffffffffffffffffffffffffffffffffffff16815260200190815260200160002060006101000a81548160ff0219169083600381111561277457612773613cde565b5b0217905550600b60009054906101000a900473ffffffffffffffffffffffffffffffffffffffff1673ffffffffffffffffffffffffffffffffffffffff1663cfde1890826040518263ffffffff1660e01b81526004016127d4919061567b565b600060405180830381600087803b1580156127ee57600080fd5b505af1158015612802573d6000803e3d6000fd5b505050507f45b6e306480b490c59801f6f851ed6d7d4bd880db4c8f75dd1112d2fc0a1c9d7816040516128359190613862565b60405180910390a150565b600a60009054906101000a900473ffffffffffffffffffffffffffffffffffffffff1681565b600a60009054906101000a900473ffffffffffffffffffffffffffffffffffffffff1673ffffffffffffffffffffffffffffffffffffffff163373ffffffffffffffffffffffffffffffffffffffff16146128f6576040517f08c379a00000000000000000000000000000000000000000000000000000000081526004016128ed906152cc565b60405180910390fd5b6001600381111561290a57612909613cde565b5b600660008373ffffffffffffffffffffffffffffffffffffffff1673ffffffffffffffffffffffffffffffffffffffff16815260200190815260200160002060009054906101000a900460ff16600381111561296957612968613cde565b5b146129a9576040517f08c379a00000000000000000000000000000000000000000000000000000000081526004016129a090615167565b60405180910390fd5b6002600660008373ffffffffffffffffffffffffffffffffffffffff1673ffffffffffffffffffffffffffffffffffffffff16815260200190815260200160002060006101000a81548160ff02191690836003811115612a0c57612a0b613cde565b5b0217905550600b60009054906101000a900473ffffffffffffffffffffffffffffffffffffffff1673ffffffffffffffffffffffffffffffffffffffff1663cfde1890826040518263ffffffff1660e01b8152600401612a6c91906156f5565b600060405180830381600087803b158015612a8657600080fd5b505af1158015612a9a573d6000803e3d6000fd5b505050507f0e387c88130575bf91cadf15934854a1ed11d5c16d63f1106b6fd6e139d1202e81604051612acd9190613862565b60405180910390a150565b600081805160208101820180518482526020830160208501208183528095505050505050600091509050806000018054612b11906145e4565b80601f0160208091040260200160405190810160405280929190818152602001828054612b3d906145e4565b8015612b8a5780601f10612b5f57610100808354040283529160200191612b8a565b820191906000526020600020905b815481529060010190602001808311612b6d57829003601f168201915b505050505090806001018054612b9f906145e4565b80601f0160208091040260200160405190810160405280929190818152602001828054612bcb906145e4565b8015612c185780601f10612bed57610100808354040283529160200191612c18565b820191906000526020600020905b815481529060010190602001808311612bfb57829003601f168201915b5050505050908060020160009054906101000a900473ffffffffffffffffffffffffffffffffffffffff16908060030154908060040154908060050154908060060154908060070154908060080160009054906101000a900473ffffffffffffffffffffffffffffffffffffffff16908060080160149054906101000a900460ff16908060080160159054906101000a900460ff1690508b565b600a60009054906101000a900473ffffffffffffffffffffffffffffffffffffffff1673ffffffffffffffffffffffffffffffffffffffff163373ffffffffffffffffffffffffffffffffffffffff1614612d42576040517f08c379a0000000000000000000000000000000000000000000000000000000008152600401612d39906152cc565b60405180910390fd5b565b600a60009054906101000a900473ffffffffffffffffffffffffffffffffffffffff1673ffffffffffffffffffffffffffffffffffffffff163373ffffffffffffffffffffffffffffffffffffffff1614612dd4576040517f08c379a0000000000000000000000000000000000000000000000000000000008152600401612dcb906152cc565b60405180910390fd5b60016003811115612de857612de7613cde565b5b600660008373ffffffffffffffffffffffffffffffffffffffff1673ffffffffffffffffffffffffffffffffffffffff16815260200190815260200160002060009054906101000a900460ff166003811115612e4757612e46613cde565b5b14612e87576040517f08c379a0000000000000000000000000000000000000000000000000000000008152600401612e7e90615167565b60405180910390fd5b6003600660008373ffffffffffffffffffffffffffffffffffffffff1673ffffffffffffffffffffffffffffffffffffffff16815260200190815260200160002060006101000a81548160ff02191690836003811115612eea57612ee9613cde565b5b02179055507fe341ab2ef130ae159f5f54c8be96a79ffe8f98948aa6d0e1bdeb60e6201ada2a81604051612f1e9190613862565b60405180910390a150565b606060048383604051612f3d92919061425a565b9081526020016040518091039020805480602002602001604051908101604052809291908181526020016000905b82821015612ffd57838290600052602060002090600202016040518060400160405290816000820160009054906101000a900473ffffffffffffffffffffffffffffffffffffffff1673ffffffffffffffffffffffffffffffffffffffff1673ffffffffffffffffffffffffffffffffffffffff16815260200160018201548152505081526020019060010190612f6b565b50505050905092915050565b600b60009054906101000a900473ffffffffffffffffffffffffffffffffffffffff1681565b600a60009054906101000a900473ffffffffffffffffffffffffffffffffffffffff1673ffffffffffffffffffffffffffffffffffffffff163373ffffffffffffffffffffffffffffffffffffffff16146130bf576040517f08c379a00000000000000000000000000000000000000000000000000000000081526004016130b6906152cc565b60405180910390fd5b600160038111156130d3576130d2613cde565b5b600760008373ffffffffffffffffffffffffffffffffffffffff1673ffffffffffffffffffffffffffffffffffffffff16815260200190815260200160002060009054906101000a900460ff16600381111561313257613131613cde565b5b14613172576040517f08c379a000000000000000000000000000000000000000000000000000000000815260040161316990615167565b60405180910390fd5b6003600760008373ffffffffffffffffffffffffffffffffffffffff1673ffffffffffffffffffffffffffffffffffffffff16815260200190815260200160002060006101000a81548160ff021916908360038111156131d5576131d4613cde565b5b02179055507f7456ce1c99ee8a1b09f67c52be737a92db545ec137e72de0e1b70bc0c4a12809816040516132099190613862565b60405180910390a150565b8060600160208101906132279190613a0a565b600c60009054906101000a900473ffffffffffffffffffffffffffffffffffffffff1673ffffffffffffffffffffffffffffffffffffffff1663b9209e33826040518263ffffffff1660e01b81526004016132829190613862565b602060405180830381865afa15801561329f573d6000803e3d6000fd5b505050506040513d601f19601f820116820180604052508101906132c39190614191565b613302576040517f08c379a00000000000000000000000000000000000000000000000000000000081526004016132f99061420a565b60405180910390fd5b8160600160208101906133159190613a0a565b73ffffffffffffffffffffffffffffffffffffffff163373ffffffffffffffffffffffffffffffffffffffff1614613382576040517f08c379a0000000000000000000000000000000000000000000000000000000008152600401613379906150fb565b60405180910390fd5b6000600381111561339657613395613cde565b5b600760003373ffffffffffffffffffffffffffffffffffffffff1673ffffffffffffffffffffffffffffffffffffffff16815260200190815260200160002060009054906101000a900460ff1660038111156133f5576133f4613cde565b5b14613435576040517f08c379a000000000000000000000000000000000000000000000000000000000815260040161342c90615167565b60405180910390fd5b816002600084606001602081019061344d9190613a0a565b73ffffffffffffffffffffffffffffffffffffffff1673ffffffffffffffffffffffffffffffffffffffff168152602001908152602001600020818161349391906157ab565b9050506001600760003373ffffffffffffffffffffffffffffffffffffffff1673ffffffffffffffffffffffffffffffffffffffff16815260200190815260200160002060006101000a81548160ff021916908360038111156134f9576134f8613cde565b5b02179055507fe42136ccc1d423b080e7fa005aa542f4bc344c1e5420e3c313fbe9ce0077ad548260600160208101906135329190613a0a565b60405161353f9190613862565b60405180910390a15050565b60076020528060005260406000206000915054906101000a900460ff1681565b60066020528060005260406000206000915054906101000a900460ff1681565b6003818051602081018201805184825260208301602085012081835280955050505050506000915054906101000a900473ffffffffffffffffffffffffffffffffffffffff1681565b6000604051905090565b600080fd5b600080fd5b600073ffffffffffffffffffffffffffffffffffffffff82169050919050565b6000613613826135e8565b9050919050565b61362381613608565b811461362e57600080fd5b50565b6000813590506136408161361a565b92915050565b600080fd5b600080fd5b6000601f19601f8301169050919050565b7f4e487b7100000000000000000000000000000000000000000000000000000000600052604160045260246000fd5b61369982613650565b810181811067ffffffffffffffff821117156136b8576136b7613661565b5b80604052505050565b60006136cb6135d4565b90506136d78282613690565b919050565b600067ffffffffffffffff8211156136f7576136f6613661565b5b61370082613650565b9050602081019050919050565b82818337600083830152505050565b600061372f61372a846136dc565b6136c1565b90508281526020810184848401111561374b5761374a61364b565b5b61375684828561370d565b509392505050565b600082601f83011261377357613772613646565b5b813561378384826020860161371c565b91505092915050565b600080604083850312156137a3576137a26135de565b5b60006137b185828601613631565b925050602083013567ffffffffffffffff8111156137d2576137d16135e3565b5b6137de8582860161375e565b9150509250929050565b6000819050919050565b6137fb816137e8565b82525050565b60008115159050919050565b61381681613801565b82525050565b600060608201905061383160008301866137f2565b61383e602083018561380d565b61384b60408301846137f2565b949350505050565b61385c81613608565b82525050565b60006020820190506138776000830184613853565b92915050565b600080fd5b600080fd5b60008083601f84011261389d5761389c613646565b5b8235905067ffffffffffffffff8111156138ba576138b961387d565b5b6020830191508360018202830111156138d6576138d5613882565b5b9250929050565b6138e6816137e8565b81146138f157600080fd5b50565b600081359050613903816138dd565b92915050565b600080600060408486031215613922576139216135de565b5b600084013567ffffffffffffffff8111156139405761393f6135e3565b5b61394c86828701613887565b9350935050602061395f868287016138f4565b9150509250925092565b600080fd5b6000610160828403121561398557613984613969565b5b81905092915050565b6000806000604084860312156139a7576139a66135de565b5b600084013567ffffffffffffffff8111156139c5576139c46135e3565b5b6139d186828701613887565b9350935050602084013567ffffffffffffffff8111156139f4576139f36135e3565b5b613a008682870161396e565b9150509250925092565b600060208284031215613a2057613a1f6135de565b5b6000613a2e84828501613631565b91505092915050565b600081519050919050565b600082825260208201905092915050565b60005b83811015613a71578082015181840152602081019050613a56565b60008484015250505050565b6000613a8882613a37565b613a928185613a42565b9350613aa2818560208601613a53565b613aab81613650565b840191505092915050565b600060e0820190508181036000830152613ad0818a613a7d565b90508181036020830152613ae48189613a7d565b90508181036040830152613af88188613a7d565b90508181036060830152613b0c8187613a7d565b90508181036080830152613b208186613a7d565b9050613b2f60a08301856137f2565b613b3c60c0830184613853565b98975050505050505050565b600060e08284031215613b5e57613b5d613969565b5b81905092915050565b600060208284031215613b7d57613b7c6135de565b5b600082013567ffffffffffffffff811115613b9b57613b9a6135e3565b5b613ba784828501613b48565b91505092915050565b60008060208385031215613bc757613bc66135de565b5b600083013567ffffffffffffffff811115613be557613be46135e3565b5b613bf185828601613887565b92509250509250929050565b60008060408385031215613c1457613c136135de565b5b600083013567ffffffffffffffff811115613c3257613c316135e3565b5b613c3e8582860161375e565b9250506020613c4f858286016138f4565b9150509250929050565b6000604082019050613c6e6000830185613853565b613c7b60208301846137f2565b9392505050565b60008060408385031215613c9957613c986135de565b5b6000613ca785828601613631565b9250506020613cb8858286016138f4565b9150509250929050565b600060ff82169050919050565b613cd881613cc2565b82525050565b7f4e487b7100000000000000000000000000000000000000000000000000000000600052602160045260246000fd5b60068110613d1e57613d1d613cde565b5b50565b6000819050613d2f82613d0d565b919050565b6000613d3f82613d21565b9050919050565b613d4f81613d34565b82525050565b6000610160820190508181036000830152613d70818e613a7d565b90508181036020830152613d84818d613a7d565b9050613d93604083018c613853565b613da0606083018b6137f2565b613dad608083018a6137f2565b613dba60a08301896137f2565b613dc760c08301886137f2565b613dd460e08301876137f2565b613de2610100830186613853565b613df0610120830185613ccf565b613dfe610140830184613d46565b9c9b505050505050505050505050565b60006101608284031215613e2557613e24613969565b5b81905092915050565b60008060008060608587031215613e4857613e476135de565b5b600085013567ffffffffffffffff811115613e6657613e656135e3565b5b613e7287828801613887565b9450945050602085013567ffffffffffffffff811115613e9557613e946135e3565b5b613ea187828801613e0e565b9250506040613eb287828801613631565b91505092959194509250565b600060208284031215613ed457613ed36135de565b5b600082013567ffffffffffffffff811115613ef257613ef16135e3565b5b613efe8482850161375e565b91505092915050565b6000602082019050613f1c60008301846137f2565b92915050565b60006080820190508181036000830152613f3c8187613a7d565b90508181036020830152613f508186613a7d565b90508181036040830152613f648185613a7d565b9050613f736060830184613853565b95945050505050565b600081519050919050565b600082825260208201905092915050565b6000819050602082019050919050565b613fb181613608565b82525050565b613fc0816137e8565b82525050565b604082016000820151613fdc6000850182613fa8565b506020820151613fef6020850182613fb7565b50505050565b60006140018383613fc6565b60408301905092915050565b6000602082019050919050565b600061402582613f7c565b61402f8185613f87565b935061403a83613f98565b8060005b8381101561406b5781516140528882613ff5565b975061405d8361400d565b92505060018101905061403e565b5085935050505092915050565b60006020820190508181036000830152614092818461401a565b905092915050565b6000608082840312156140b0576140af613969565b5b81905092915050565b6000602082840312156140cf576140ce6135de565b5b600082013567ffffffffffffffff8111156140ed576140ec6135e3565b5b6140f98482850161409a565b91505092915050565b6004811061411357614112613cde565b5b50565b600081905061412482614102565b919050565b600061413482614116565b9050919050565b61414481614129565b82525050565b600060208201905061415f600083018461413b565b92915050565b61416e81613801565b811461417957600080fd5b50565b60008151905061418b81614165565b92915050565b6000602082840312156141a7576141a66135de565b5b60006141b58482850161417c565b91505092915050565b7f4143434f554e545f4e4f545f414150524f564544000000000000000000000000600082015250565b60006141f4601483613a42565b91506141ff826141be565b602082019050919050565b60006020820190508181036000830152614223816141e7565b9050919050565b600081905092915050565b6000614241838561422a565b935061424e83858461370d565b82840190509392505050565b6000614267828486614235565b91508190509392505050565b600061427f8385613a42565b935061428c83858461370d565b61429583613650565b840190509392505050565b600060208201905081810360008301526142bb818486614273565b90509392505050565b7f4e487b7100000000000000000000000000000000000000000000000000000000600052601160045260246000fd5b60006142fe826137e8565b9150614309836137e8565b9250828201905080821115614321576143206142c4565b5b92915050565b7f494e56414c49445f414d4f554e54000000000000000000000000000000000000600082015250565b600061435d600e83613a42565b915061436882614327565b602082019050919050565b6000602082019050818103600083015261438c81614350565b9050919050565b7f4e487b7100000000000000000000000000000000000000000000000000000000600052603260045260246000fd5b600060408201905081810360008301526143dd818587614273565b90506143ec6020830184613853565b949350505050565b7f4f4e4c595f495353554552530000000000000000000000000000000000000000600082015250565b600061442a600c83613a42565b9150614435826143f4565b602082019050919050565b600060208201905081810360008301526144598161441d565b9050919050565b7f494e56414c49445f4953535545525f4144445245535300000000000000000000600082015250565b6000614496601683613a42565b91506144a182614460565b602082019050919050565b600060208201905081810360008301526144c581614489565b9050919050565b7f494e56414c49445f4445414c5f53544154555300000000000000000000000000600082015250565b6000614502601383613a42565b915061450d826144cc565b602082019050919050565b60006020820190508181036000830152614531816144f5565b9050919050565b600080fd5b600080fd5b600080fd5b6000808335600160200384360303811261456457614563614538565b5b80840192508235915067ffffffffffffffff8211156145865761458561453d565b5b6020830192506001820236038313156145a2576145a1614542565b5b509250929050565b600082905092915050565b7f4e487b7100000000000000000000000000000000000000000000000000000000600052602260045260246000fd5b600060028204905060018216806145fc57607f821691505b60208210810361460f5761460e6145b5565b5b50919050565b60008190508160005260206000209050919050565b60006020601f8301049050919050565b600082821b905092915050565b6000600883026146777fffffffffffffffffffffffffffffffffffffffffffffffffffffffffffffffff8261463a565b614681868361463a565b95508019841693508086168417925050509392505050565b6000819050919050565b60006146be6146b96146b4846137e8565b614699565b6137e8565b9050919050565b6000819050919050565b6146d8836146a3565b6146ec6146e4826146c5565b848454614647565b825550505050565b600090565b6147016146f4565b61470c8184846146cf565b505050565b5b81811015614730576147256000826146f9565b600181019050614712565b5050565b601f8211156147755761474681614615565b61474f8461462a565b8101602085101561475e578190505b61477261476a8561462a565b830182614711565b50505b505050565b600082821c905092915050565b60006147986000198460080261477a565b1980831691505092915050565b60006147b18383614787565b9150826002028217905092915050565b6147cb83836145aa565b67ffffffffffffffff8111156147e4576147e3613661565b5b6147ee82546145e4565b6147f9828285614734565b6000601f8311600181146148285760008415614816578287013590505b61482085826147a5565b865550614888565b601f19841661483686614615565b60005b8281101561485e57848901358255600182019150602085019450602081019050614839565b8683101561487b5784890135614877601f891682614787565b8355505b6001600288020188555050505b50505050505050565b61489c8383836147c1565b505050565b600081356148ae8161361a565b80915050919050565b60008160001b9050919050565b600073ffffffffffffffffffffffffffffffffffffffff6148e4846148b7565b9350801983169250808416831791505092915050565b600061491561491061490b846135e8565b614699565b6135e8565b9050919050565b6000614927826148fa565b9050919050565b60006149398261491c565b9050919050565b6000819050919050565b6149538261492e565b61496661495f82614940565b83546148c4565b8255505050565b6000813561497a816138dd565b80915050919050565b60007fffffffffffffffffffffffffffffffffffffffffffffffffffffffffffffffff6149af846148b7565b9350801983169250808416831791505092915050565b6149ce826146a3565b6149e16149da826146c5565b8354614983565b8255505050565b6149f181613cc2565b81146149fc57600080fd5b50565b60008135614a0c816149e8565b80915050919050565b60008160a01b9050919050565b600074ff0000000000000000000000000000000000000000614a4384614a15565b9350801983169250808416831791505092915050565b6000614a74614a6f614a6a84613cc2565b614699565b613cc2565b9050919050565b6000819050919050565b614a8e82614a59565b614aa1614a9a82614a7b565b8354614a22565b8255505050565b60068110614ab557600080fd5b50565b60008135614ac581614aa8565b80915050919050565b60008160a81b9050919050565b600075ff000000000000000000000000000000000000000000614afd84614ace565b9350801983169250808416831791505092915050565b6000614b1e82613d21565b9050919050565b6000819050919050565b614b3882614b13565b614b4b614b4482614b25565b8354614adb565b8255505050565b6000810160008301614b648185614547565b614b6f818386614891565b505050506001810160208301614b858185614547565b614b90818386614891565b50505050600281016040830180614ba6816148a1565b9050614bb2818461494a565b505050600381016060830180614bc78161496d565b9050614bd381846149c5565b505050600481016080830180614be88161496d565b9050614bf481846149c5565b5050506005810160a0830180614c098161496d565b9050614c1581846149c5565b5050506006810160c0830180614c2a8161496d565b9050614c3681846149c5565b5050506007810160e0830180614c4b8161496d565b9050614c5781846149c5565b50505060088101610100830180614c6d816148a1565b9050614c79818461494a565b50505060088101610120830180614c8f816149ff565b9050614c9b8184614a85565b50505060088101610140830180614cb181614ab8565b9050614cbd8184614b2f565b5050505050565b614cce8282614b52565b5050565b600081549050614ce1816145e4565b9050919050565b818103614cf6575050614dce565b614cff82614cd2565b67ffffffffffffffff811115614d1857614d17613661565b5b614d2282546145e4565b614d2d828285614734565b6000601f831160018114614d5c5760008415614d4a578287015490505b614d5485826147a5565b865550614dc7565b601f198416614d6a87614615565b9650614d7586614615565b60005b82811015614d9d57848901548255600182019150600185019450602081019050614d78565b86831015614dba5784890154614db6601f891682614787565b8355505b6001600288020188555050505b5050505050505b565b600080fd5b600080fd5b600080fd5b60008083356001602003843603038112614dfc57614dfb614dda565b5b83810192508235915060208301925067ffffffffffffffff821115614e2457614e23614dd0565b5b600182023603831315614e3a57614e39614dd5565b5b509250929050565b600082825260208201905092915050565b6000614e5f8385614e42565b9350614e6c83858461370d565b614e7583613650565b840190509392505050565b6000614e8f6020840184613631565b905092915050565b6000614ea660208401846138f4565b905092915050565b600081359050614ebd816149e8565b92915050565b6000614ed26020840184614eae565b905092915050565b614ee381613cc2565b82525050565b600081359050614ef881614aa8565b92915050565b6000614f0d6020840184614ee9565b905092915050565b614f1e81613d34565b82525050565b60006101608301614f386000840184614ddf565b8583036000870152614f4b838284614e53565b92505050614f5c6020840184614ddf565b8583036020870152614f6f838284614e53565b92505050614f806040840184614e80565b614f8d6040860182613fa8565b50614f9b6060840184614e97565b614fa86060860182613fb7565b50614fb66080840184614e97565b614fc36080860182613fb7565b50614fd160a0840184614e97565b614fde60a0860182613fb7565b50614fec60c0840184614e97565b614ff960c0860182613fb7565b5061500760e0840184614e97565b61501460e0860182613fb7565b50615023610100840184614e80565b615031610100860182613fa8565b50615040610120840184614ec3565b61504e610120860182614eda565b5061505d610140840184614efe565b61506b610140860182614f15565b508091505092915050565b60006040820190508181036000830152615091818587614273565b905081810360208301526150a58184614f24565b9050949350505050565b7f494e56414c49445f414444524553530000000000000000000000000000000000600082015250565b60006150e5600f83613a42565b91506150f0826150af565b602082019050919050565b60006020820190508181036000830152615114816150d8565b9050919050565b7f434845434b5f594f55525f535441545553000000000000000000000000000000600082015250565b6000615151601183613a42565b915061515c8261511b565b602082019050919050565b6000602082019050818103600083015261518081615144565b9050919050565b60008101600083016151998185614547565b6151a4818386614891565b5050505060018101602083016151ba8185614547565b6151c5818386614891565b5050505060028101604083016151db8185614547565b6151e6818386614891565b5050505060038101606083016151fc8185614547565b615207818386614891565b50505050600481016080830161521d8185614547565b615228818386614891565b505050506005810160a083018061523e8161496d565b905061524a81846149c5565b5050506006810160c083018061525f816148a1565b905061526b818461494a565b5050505050565b61527c8282615187565b5050565b7f4f4e4c595f544f504f535f4d414e414745520000000000000000000000000000600082015250565b60006152b6601283613a42565b91506152c182615280565b602082019050919050565b600060208201905081810360008301526152e5816152a9565b9050919050565b600061016083016153006000840184614ddf565b8583036000870152615313838284614e53565b925050506153246020840184614ddf565b8583036020870152615337838284614e53565b925050506153486040840184614ddf565b858303604087015261535b838284614e53565b9250505061536c6060840184614e80565b6153796060860182613fa8565b506153876080840184614e97565b6153946080860182613fb7565b506153a260a0840184614e97565b6153af60a0860182613fb7565b506153bd60c0840184614e97565b6153ca60c0860182613fb7565b506153d860e0840184614ec3565b6153e560e0860182614eda565b506153f4610100840184614e97565b615402610100860182613fb7565b50615411610120840184614e97565b61541f610120860182613fb7565b5061542e610140840184614e97565b61543c610140860182613fb7565b508091505092915050565b6000602082019050818103600083015261546181846152ec565b905092915050565b600060ff615476846148b7565b9350801983169250808416831791505092915050565b61549582614a59565b6154a86154a182614a7b565b8354615469565b8255505050565b60008101600083016154c18185614547565b6154cc818386614891565b5050505060018101602083016154e28185614547565b6154ed818386614891565b5050505060028101604083016155038185614547565b61550e818386614891565b50505050600381016060830180615524816148a1565b9050615530818461494a565b5050506004810160808301806155458161496d565b905061555181846149c5565b5050506005810160a08301806155668161496d565b905061557281846149c5565b5050506006810160c08301806155878161496d565b905061559381846149c5565b5050506007810160e08301806155a8816149ff565b90506155b4818461548c565b505050600881016101008301806155ca8161496d565b90506155d681846149c5565b505050600981016101208301806155ec8161496d565b90506155f881846149c5565b505050600a810161014083018061560e8161496d565b905061561a81846149c5565b5050505050565b61562b82826154af565b5050565b7f494e564553544f52000000000000000000000000000000000000000000000000600082015250565b6000615665600883613a42565b91506156708261562f565b602082019050919050565b6000604082019050818103600083015261569481615658565b90506156a36020830184613853565b92915050565b7f4953535545520000000000000000000000000000000000000000000000000000600082015250565b60006156df600683613a42565b91506156ea826156a9565b602082019050919050565b6000604082019050818103600083015261570e816156d2565b905061571d6020830184613853565b92915050565b60008101600083016157358185614547565b615740818386614891565b5050505060018101602083016157568185614547565b615761818386614891565b5050505060028101604083016157778185614547565b615782818386614891565b50505050600381016060830180615798816148a1565b90506157a4818461494a565b5050505050565b6157b58282615723565b505056fea2646970667358221220af1aed996b55da8dd616e7fd027567fe505cea93dba33a73bf5674fa4fc6736064736f6c63430008130033",
  "immutableReferences": {},
  "source": "// SPDX-License-Identifier: CC0-1.0\npragma solidity ^0.8.0;\n\nimport \"../interfaces/IToposBank.sol\";\nimport \"./ToposBankStorage.sol\";\nimport \"../interfaces/IRoles.sol\";\nimport \"../interfaces/IBonds.sol\";\n\ncontract ToposBank is IToposBank, ToposBankStorage {\n    constructor(\n        address _toposManager,\n        address _rolesContract,\n        address _identityRegistryContract\n    ) {\n        toposManager = _toposManager;\n        rolesContract = _rolesContract;\n        IRoles(_rolesContract).setRole(\"MANAGER\", _toposManager);\n        identityRegistryContract = _identityRegistryContract;\n    }\n\n    function requestRegistrationIssuer(\n        BondData.Issuer calldata _issuer\n    ) external mustBeApproved(_issuer.walletAddress) {\n        require(msg.sender == _issuer.walletAddress, \"INVALID_ADDRESS\");\n        require(\n            issuerStatus[msg.sender] == BondData.StakeHolderStatus.UNDEFINED,\n            \"CHECK_YOUR_STATUS\"\n        );\n\n        issuers[_issuer.walletAddress] = _issuer;\n        issuerStatus[msg.sender] = BondData.StakeHolderStatus.SUBMITTED;\n\n        emit RequestIssuerRegistration(_issuer.walletAddress);\n    }\n\n    function requestRegistrationInvestor(\n        BondData.Investor calldata _investor\n    ) external mustBeApproved(_investor.walletAddress) {\n        require(msg.sender == _investor.walletAddress, \"INVALID_ADDRESS\");\n        require(\n            investorStatus[msg.sender] == BondData.StakeHolderStatus.UNDEFINED,\n            \"CHECK_YOUR_STATUS\"\n        );\n\n        investors[_investor.walletAddress] = _investor;\n        investorStatus[msg.sender] = BondData.StakeHolderStatus.SUBMITTED;\n\n        emit RequestInvestorRegistration(_investor.walletAddress);\n    }\n\n    function approveIssuer(address _issuer) external onlyToposManager {\n        require(\n            issuerStatus[_issuer] == BondData.StakeHolderStatus.SUBMITTED,\n            \"CHECK_YOUR_STATUS\"\n        );\n\n        issuerStatus[_issuer] = BondData.StakeHolderStatus.APPROVED;\n        IRoles(rolesContract).setRole(\"ISSUER\", _issuer);\n\n        emit ApproveIssuer(_issuer);\n    }\n\n    function approveInvestor(address _investor) external onlyToposManager {\n        require(\n            investorStatus[_investor] == BondData.StakeHolderStatus.SUBMITTED,\n            \"CHECK_YOUR_STATUS\"\n        );\n\n        investorStatus[_investor] = BondData.StakeHolderStatus.APPROVED;\n        IRoles(rolesContract).setRole(\"INVESTOR\", _investor);\n\n        emit ApproveInvestor(_investor);\n    }\n\n    function rejectIssuer(address _issuer) external onlyToposManager {\n        require(\n            issuerStatus[_issuer] == BondData.StakeHolderStatus.SUBMITTED,\n            \"CHECK_YOUR_STATUS\"\n        );\n\n        issuerStatus[_issuer] = BondData.StakeHolderStatus.REJECTED;\n\n        emit RejectIssuer(_issuer);\n    }\n\n    function rejectInvestor(address _investor) external onlyToposManager {\n        require(\n            investorStatus[_investor] == BondData.StakeHolderStatus.SUBMITTED,\n            \"CHECK_YOUR_STATUS\"\n        );\n\n        investorStatus[_investor] = BondData.StakeHolderStatus.REJECTED;\n\n        emit RejectInvestor(_investor);\n    }\n\n    function submitDeal(\n        string calldata _dealID,\n        BondData.Deal calldata _deal\n    ) external {\n        require(\n            IRoles(rolesContract).isIssuer(msg.sender),\n            \"ONLY_ISSUERS\"\n        );\n        require(\n            msg.sender == _deal.issuerAddress,\n            \"INVALID_ISSUER_ADDRESS\"\n        );\n        require(\n            deals[_dealID].status == BondData.DealStatus.UNDEFINED,\n            \"INVALID_DEAL_STATUS\"\n        );\n\n        deals[_dealID] = _deal;\n        deals[_dealID].status = BondData.DealStatus.SUBMITTED;\n        deals[_dealID].index = listOfDeals.length;\n\n        listOfDeals.push(deals[_dealID]);\n\n        emit DealSubmitted(_dealID, _deal);\n    }\n\n    function approveDeal(\n        string calldata _dealID\n    ) external onlyToposManager {\n        require(\n            deals[_dealID].status == BondData.DealStatus.SUBMITTED,\n            \"INVALID_DEAL_STATUS\"\n        );\n\n        deals[_dealID].status = BondData.DealStatus.APPROVED;\n        listOfDeals[deals[_dealID].index].status = BondData.DealStatus.APPROVED;\n\n        emit DealAPproved(_dealID);\n    }\n\n    function rejectDeal(\n        string calldata _dealID\n    ) external onlyToposManager {\n        require(\n            deals[_dealID].status == BondData.DealStatus.SUBMITTED,\n            \"INVALID_DEAL_STATUS\"\n        );\n\n        deals[_dealID].status = BondData.DealStatus.REJECTED;\n        listOfDeals[deals[_dealID].index].status = BondData.DealStatus.REJECTED;\n\n        emit DealARejected(_dealID);\n    }\n\n    function registerForDeal(\n        string calldata _dealID,\n        uint256 _amount\n    ) external mustBeApproved(msg.sender) {\n        uint256 _totalAmountInvested = totalAmountInvestedForDeal[_dealID];\n\n        if(deals[_dealID].status != BondData.DealStatus.APPROVED)\n            revert BondData.InvalidDealStatus(_dealID);\n        require(\n            _amount != 0 && _amount + _totalAmountInvested <= deals[_dealID].debtAmount,\n            \"INVALID_AMOUNT\"\n        );\n\n        bool hasInvested = amountInvested[msg.sender][_dealID].hasInvested;\n        totalAmountInvestedForDeal[_dealID] = _totalAmountInvested + _amount;\n\n        if(hasInvested) {\n            uint256 index = amountInvested[msg.sender][_dealID].index;\n            uint256 amount  = amountInvested[msg.sender][_dealID].amount;\n\n            dealInvestment[_dealID][index].amount = amount + _amount;\n            amountInvested[msg.sender][_dealID].amount = amount + _amount;\n        } else {\n            amountInvested[msg.sender][_dealID] =  BondData.Investment(\n                {\n                    amount: _amount,\n                    hasInvested: true,\n                    index: dealInvestment[_dealID].length\n                }\n            );\n\n            dealInvestment[_dealID].push(\n                BondData.DealInvestment(\n                    {\n                        investor: msg.sender,\n                        amount: _amount\n                    }\n                )\n            );       \n        }\n\n        emit RegisterForDeal(_dealID, msg.sender);\n    }\n\n    function issue(\n        string calldata _dealID,\n        BondData.Bond calldata _bond,\n        address _bondContract\n    ) external onlyToposManager {\n        if(deals[_dealID].status != BondData.DealStatus.APPROVED)\n            revert BondData.InvalidDealStatus(_dealID);\n\n        dealBondContracts[_dealID] = _bondContract;\n\n        deals[_dealID].status != BondData.DealStatus.ISSUED;\n        listOfDeals[deals[_dealID].index].status = BondData.DealStatus.ISSUED;\n\n        IBonds(_bondContract).issue(_bond);\n\n        bonds.push(_bond);\n        issuerDeals[deals[_dealID].issuerAddress].push(deals[_dealID]);\n\n        emit BondIssue(_dealID);\n    }\n\n    function redeem() external onlyToposManager {\n\n    }\n\n    function getTotalAmounInvested(\n        string calldata _dealID\n    ) external view returns(uint256) {\n        return totalAmountInvestedForDeal[_dealID];\n    }\n\n    function getDealInvestment(\n        string calldata _dealID\n    ) external view returns(BondData.DealInvestment[] memory) {\n        return dealInvestment[_dealID];\n    }\n}",
  "sourcePath": "/Users/sam/Documents/Blockchain/Topos/ToposGrant/T-Grant/contracts/Topos/Bank/ToposBank.sol",
  "compiler": {
    "name": "solc",
    "version": "0.8.19+commit.7dd6d404.Emscripten.clang"
  },
  "schemaVersion": "3.4.9",
  "updatedAt": "2023-11-05T20:48:21.715Z",
  "devdoc": {
    "kind": "dev",
    "methods": {},
    "version": 1
  },
  "userdoc": {
    "kind": "user",
    "methods": {},
    "version": 1
  }
}