{
  "contractName": "ToposBank",
  "abi": [
    {
      "inputs": [
        {
          "internalType": "address",
          "name": "_toposManager",
          "type": "address"
        },
        {
          "internalType": "address",
          "name": "_rolesContract",
          "type": "address"
        },
        {
          "internalType": "address",
          "name": "_identityRegistryContract",
          "type": "address"
        }
      ],
      "stateMutability": "nonpayable",
      "type": "constructor"
    },
    {
      "inputs": [
        {
          "internalType": "string",
          "name": "dealID",
          "type": "string"
        }
      ],
      "name": "InvalidDealStatus",
      "type": "error"
    },
    {
      "anonymous": false,
      "inputs": [
        {
          "indexed": false,
          "internalType": "string",
          "name": "dealID",
          "type": "string"
        }
      ],
      "name": "DealAPproved",
      "type": "event"
    },
    {
      "anonymous": false,
      "inputs": [
        {
          "indexed": false,
          "internalType": "string",
          "name": "dealID",
          "type": "string"
        }
      ],
      "name": "DealARejected",
      "type": "event"
    },
    {
      "anonymous": false,
      "inputs": [
        {
          "indexed": false,
          "internalType": "string",
          "name": "dealID",
          "type": "string"
        },
        {
          "components": [
            {
              "internalType": "string",
              "name": "dealID",
              "type": "string"
            },
            {
              "internalType": "string",
              "name": "prospectusURI",
              "type": "string"
            },
            {
              "internalType": "address",
              "name": "issuerAddress",
              "type": "address"
            },
            {
              "internalType": "uint256",
              "name": "debtAmount",
              "type": "uint256"
            },
            {
              "internalType": "uint256",
              "name": "couponRate",
              "type": "uint256"
            },
            {
              "internalType": "uint256",
              "name": "couponFrequency",
              "type": "uint256"
            },
            {
              "internalType": "uint256",
              "name": "maturityDate",
              "type": "uint256"
            },
            {
              "internalType": "uint256",
              "name": "index",
              "type": "uint256"
            },
            {
              "internalType": "address",
              "name": "currency",
              "type": "address"
            },
            {
              "internalType": "uint8",
              "name": "couponType",
              "type": "uint8"
            },
            {
              "internalType": "enum BondData.DealStatus",
              "name": "status",
              "type": "uint8"
            }
          ],
          "indexed": false,
          "internalType": "struct BondData.Deal",
          "name": "deal",
          "type": "tuple"
        }
      ],
      "name": "DealSubmitted",
      "type": "event"
    },
    {
      "inputs": [
        {
          "internalType": "address",
          "name": "",
          "type": "address"
        },
        {
          "internalType": "string",
          "name": "",
          "type": "string"
        }
      ],
      "name": "amountInvested",
      "outputs": [
        {
          "internalType": "uint256",
          "name": "amount",
          "type": "uint256"
        },
        {
          "internalType": "bool",
          "name": "hasInvested",
          "type": "bool"
        },
        {
          "internalType": "uint256",
          "name": "index",
          "type": "uint256"
        }
      ],
      "stateMutability": "view",
      "type": "function"
    },
    {
      "inputs": [
        {
          "internalType": "string",
          "name": "",
          "type": "string"
        }
      ],
      "name": "dealBondContracts",
      "outputs": [
        {
          "internalType": "address",
          "name": "",
          "type": "address"
        }
      ],
      "stateMutability": "view",
      "type": "function"
    },
    {
      "inputs": [
        {
          "internalType": "string",
          "name": "",
          "type": "string"
        },
        {
          "internalType": "uint256",
          "name": "",
          "type": "uint256"
        }
      ],
      "name": "dealInvestment",
      "outputs": [
        {
          "internalType": "address",
          "name": "investor",
          "type": "address"
        },
        {
          "internalType": "uint256",
          "name": "amount",
          "type": "uint256"
        }
      ],
      "stateMutability": "view",
      "type": "function"
    },
    {
      "inputs": [
        {
          "internalType": "string",
          "name": "",
          "type": "string"
        }
      ],
      "name": "deals",
      "outputs": [
        {
          "internalType": "string",
          "name": "dealID",
          "type": "string"
        },
        {
          "internalType": "string",
          "name": "prospectusURI",
          "type": "string"
        },
        {
          "internalType": "address",
          "name": "issuerAddress",
          "type": "address"
        },
        {
          "internalType": "uint256",
          "name": "debtAmount",
          "type": "uint256"
        },
        {
          "internalType": "uint256",
          "name": "couponRate",
          "type": "uint256"
        },
        {
          "internalType": "uint256",
          "name": "couponFrequency",
          "type": "uint256"
        },
        {
          "internalType": "uint256",
          "name": "maturityDate",
          "type": "uint256"
        },
        {
          "internalType": "uint256",
          "name": "index",
          "type": "uint256"
        },
        {
          "internalType": "address",
          "name": "currency",
          "type": "address"
        },
        {
          "internalType": "uint8",
          "name": "couponType",
          "type": "uint8"
        },
        {
          "internalType": "enum BondData.DealStatus",
          "name": "status",
          "type": "uint8"
        }
      ],
      "stateMutability": "view",
      "type": "function"
    },
    {
      "inputs": [],
      "name": "identityRegistryContract",
      "outputs": [
        {
          "internalType": "address",
          "name": "",
          "type": "address"
        }
      ],
      "stateMutability": "view",
      "type": "function"
    },
    {
      "inputs": [
        {
          "internalType": "address",
          "name": "",
          "type": "address"
        }
      ],
      "name": "investorStatus",
      "outputs": [
        {
          "internalType": "enum BondData.StakeHolderStatus",
          "name": "",
          "type": "uint8"
        }
      ],
      "stateMutability": "view",
      "type": "function"
    },
    {
      "inputs": [
        {
          "internalType": "address",
          "name": "",
          "type": "address"
        }
      ],
      "name": "investors",
      "outputs": [
        {
          "internalType": "string",
          "name": "name",
          "type": "string"
        },
        {
          "internalType": "string",
          "name": "country",
          "type": "string"
        },
        {
          "internalType": "string",
          "name": "investorType",
          "type": "string"
        },
        {
          "internalType": "address",
          "name": "walletAddress",
          "type": "address"
        }
      ],
      "stateMutability": "view",
      "type": "function"
    },
    {
      "inputs": [
        {
          "internalType": "address",
          "name": "",
          "type": "address"
        }
      ],
      "name": "issuerStatus",
      "outputs": [
        {
          "internalType": "enum BondData.StakeHolderStatus",
          "name": "",
          "type": "uint8"
        }
      ],
      "stateMutability": "view",
      "type": "function"
    },
    {
      "inputs": [
        {
          "internalType": "address",
          "name": "",
          "type": "address"
        }
      ],
      "name": "issuers",
      "outputs": [
        {
          "internalType": "string",
          "name": "documentURI",
          "type": "string"
        },
        {
          "internalType": "string",
          "name": "name",
          "type": "string"
        },
        {
          "internalType": "string",
          "name": "country",
          "type": "string"
        },
        {
          "internalType": "string",
          "name": "issuerType",
          "type": "string"
        },
        {
          "internalType": "string",
          "name": "creditRating",
          "type": "string"
        },
        {
          "internalType": "uint256",
          "name": "carbonCredit",
          "type": "uint256"
        },
        {
          "internalType": "address",
          "name": "walletAddress",
          "type": "address"
        }
      ],
      "stateMutability": "view",
      "type": "function"
    },
    {
      "inputs": [],
      "name": "rolesContract",
      "outputs": [
        {
          "internalType": "address",
          "name": "",
          "type": "address"
        }
      ],
      "stateMutability": "view",
      "type": "function"
    },
    {
      "inputs": [],
      "name": "toposManager",
      "outputs": [
        {
          "internalType": "address",
          "name": "",
          "type": "address"
        }
      ],
      "stateMutability": "view",
      "type": "function"
    },
    {
      "inputs": [
        {
          "components": [
            {
              "internalType": "string",
              "name": "documentURI",
              "type": "string"
            },
            {
              "internalType": "string",
              "name": "name",
              "type": "string"
            },
            {
              "internalType": "string",
              "name": "country",
              "type": "string"
            },
            {
              "internalType": "string",
              "name": "issuerType",
              "type": "string"
            },
            {
              "internalType": "string",
              "name": "creditRating",
              "type": "string"
            },
            {
              "internalType": "uint256",
              "name": "carbonCredit",
              "type": "uint256"
            },
            {
              "internalType": "address",
              "name": "walletAddress",
              "type": "address"
            }
          ],
          "internalType": "struct BondData.Issuer",
          "name": "_issuer",
          "type": "tuple"
        }
      ],
      "name": "requestRegistrationIssuer",
      "outputs": [],
      "stateMutability": "nonpayable",
      "type": "function"
    },
    {
      "inputs": [
        {
          "components": [
            {
              "internalType": "string",
              "name": "name",
              "type": "string"
            },
            {
              "internalType": "string",
              "name": "country",
              "type": "string"
            },
            {
              "internalType": "string",
              "name": "investorType",
              "type": "string"
            },
            {
              "internalType": "address",
              "name": "walletAddress",
              "type": "address"
            }
          ],
          "internalType": "struct BondData.Investor",
          "name": "_investor",
          "type": "tuple"
        }
      ],
      "name": "requestRegistrationInvestor",
      "outputs": [],
      "stateMutability": "nonpayable",
      "type": "function"
    },
    {
      "inputs": [
        {
          "internalType": "address",
          "name": "_issuer",
          "type": "address"
        }
      ],
      "name": "approveIssuer",
      "outputs": [],
      "stateMutability": "nonpayable",
      "type": "function"
    },
    {
      "inputs": [
        {
          "internalType": "address",
          "name": "_investor",
          "type": "address"
        }
      ],
      "name": "approveInvestor",
      "outputs": [],
      "stateMutability": "nonpayable",
      "type": "function"
    },
    {
      "inputs": [
        {
          "internalType": "address",
          "name": "_issuer",
          "type": "address"
        }
      ],
      "name": "rejectIssuer",
      "outputs": [],
      "stateMutability": "nonpayable",
      "type": "function"
    },
    {
      "inputs": [
        {
          "internalType": "address",
          "name": "_investor",
          "type": "address"
        }
      ],
      "name": "rejectInvestor",
      "outputs": [],
      "stateMutability": "nonpayable",
      "type": "function"
    },
    {
      "inputs": [
        {
          "internalType": "string",
          "name": "_dealID",
          "type": "string"
        },
        {
          "components": [
            {
              "internalType": "string",
              "name": "dealID",
              "type": "string"
            },
            {
              "internalType": "string",
              "name": "prospectusURI",
              "type": "string"
            },
            {
              "internalType": "address",
              "name": "issuerAddress",
              "type": "address"
            },
            {
              "internalType": "uint256",
              "name": "debtAmount",
              "type": "uint256"
            },
            {
              "internalType": "uint256",
              "name": "couponRate",
              "type": "uint256"
            },
            {
              "internalType": "uint256",
              "name": "couponFrequency",
              "type": "uint256"
            },
            {
              "internalType": "uint256",
              "name": "maturityDate",
              "type": "uint256"
            },
            {
              "internalType": "uint256",
              "name": "index",
              "type": "uint256"
            },
            {
              "internalType": "address",
              "name": "currency",
              "type": "address"
            },
            {
              "internalType": "uint8",
              "name": "couponType",
              "type": "uint8"
            },
            {
              "internalType": "enum BondData.DealStatus",
              "name": "status",
              "type": "uint8"
            }
          ],
          "internalType": "struct BondData.Deal",
          "name": "_deal",
          "type": "tuple"
        }
      ],
      "name": "submitDeal",
      "outputs": [],
      "stateMutability": "nonpayable",
      "type": "function"
    },
    {
      "inputs": [
        {
          "internalType": "string",
          "name": "_dealID",
          "type": "string"
        }
      ],
      "name": "approveDeal",
      "outputs": [],
      "stateMutability": "nonpayable",
      "type": "function"
    },
    {
      "inputs": [
        {
          "internalType": "string",
          "name": "_dealID",
          "type": "string"
        }
      ],
      "name": "rejectDeal",
      "outputs": [],
      "stateMutability": "nonpayable",
      "type": "function"
    },
    {
      "inputs": [
        {
          "internalType": "string",
          "name": "_dealID",
          "type": "string"
        },
        {
          "internalType": "uint256",
          "name": "_amount",
          "type": "uint256"
        }
      ],
      "name": "registerForDeal",
      "outputs": [],
      "stateMutability": "nonpayable",
      "type": "function"
    },
    {
      "inputs": [
        {
          "internalType": "string",
          "name": "_delaID",
          "type": "string"
        }
      ],
      "name": "issue",
      "outputs": [],
      "stateMutability": "nonpayable",
      "type": "function"
    },
    {
      "inputs": [],
      "name": "redeem",
      "outputs": [],
      "stateMutability": "nonpayable",
      "type": "function"
    }
  ],
  "bytecode": "0x60806040523480156200001157600080fd5b50604051620049dc380380620049dc8339818101604052810190620000379190620001dc565b82600860006101000a81548173ffffffffffffffffffffffffffffffffffffffff021916908373ffffffffffffffffffffffffffffffffffffffff16021790555081600960006101000a81548173ffffffffffffffffffffffffffffffffffffffff021916908373ffffffffffffffffffffffffffffffffffffffff1602179055508173ffffffffffffffffffffffffffffffffffffffff1663cfde1890846040518263ffffffff1660e01b8152600401620000f49190620002aa565b600060405180830381600087803b1580156200010f57600080fd5b505af115801562000124573d6000803e3d6000fd5b5050505080600a60006101000a81548173ffffffffffffffffffffffffffffffffffffffff021916908373ffffffffffffffffffffffffffffffffffffffff160217905550505050620002dc565b600080fd5b600073ffffffffffffffffffffffffffffffffffffffff82169050919050565b6000620001a48262000177565b9050919050565b620001b68162000197565b8114620001c257600080fd5b50565b600081519050620001d681620001ab565b92915050565b600080600060608486031215620001f857620001f762000172565b5b60006200020886828701620001c5565b93505060206200021b86828701620001c5565b92505060406200022e86828701620001c5565b9150509250925092565b600082825260208201905092915050565b7f4d414e4147455200000000000000000000000000000000000000000000000000600082015250565b60006200028160078362000238565b91506200028e8262000249565b602082019050919050565b620002a48162000197565b82525050565b60006040820190508181036000830152620002c58162000272565b9050620002d6602083018462000299565b92915050565b6146f080620002ec6000396000f3fe608060405234801561001057600080fd5b506004361061014d5760003560e01c80637de14129116100c3578063ca53b3911161007c578063ca53b3911461039a578063d304a813146103b8578063d31628a0146103d4578063f936d49d146103f0578063fcbb3c1814610420578063fe0ab4b3146104505761014d565b80637de14129146102e45780637f31ed731461030057806382deb86e1461031e578063a0a57dac1461033a578063be040fb014610374578063c88efe651461037e5761014d565b80633cad9b0d116101155780633cad9b0d146102105780633dc349be1461022c57806348f92ee814610248578063499fa18a146102645780636f7bc9be14610295578063754f399a146102c85761014d565b8063041e9b8914610152578063088674e0146101845780630df8bfda146101a257806323c8d706146101be57806338a7543e146101da575b600080fd5b61016c60048036038101906101679190612c0d565b610480565b60405161017b93929190612c9d565b60405180910390f35b61018c6104da565b6040516101999190612ce3565b60405180910390f35b6101bc60048036038101906101b79190612d8a565b610500565b005b6101d860048036038101906101d39190612e0f565b610a6a565b005b6101f460048036038101906101ef9190612e8b565b610f27565b6040516102079796959493929190612f37565b60405180910390f35b61022a60048036038101906102259190612fc9565b611231565b005b61024660048036038101906102419190613035565b6112c5565b005b610262600480360381019061025d9190612fc9565b6115b3565b005b61027e6004803603810190610279919061307e565b6117d4565b60405161028c9291906130da565b60405180910390f35b6102af60048036038101906102aa9190612e8b565b61184b565b6040516102bf9493929190613103565b60405180910390f35b6102e260048036038101906102dd9190612fc9565b611a33565b005b6102fe60048036038101906102f99190612e8b565b611c54565b005b610308611e8f565b6040516103159190612ce3565b60405180910390f35b61033860048036038101906103339190612e8b565b611eb5565b005b610354600480360381019061034f919061315d565b6120f0565b60405161036b9b9a99989796959493929190613239565b60405180910390f35b61037c6122ca565b005b61039860048036038101906103939190612e8b565b61235c565b005b6103a261250a565b6040516103af9190612ce3565b60405180910390f35b6103d260048036038101906103cd9190612e8b565b612530565b005b6103ee60048036038101906103e99190613311565b6126de565b005b61040a60048036038101906104059190612e8b565b6129cc565b60405161041791906133a2565b60405180910390f35b61043a60048036038101906104359190612e8b565b6129ec565b60405161044791906133a2565b60405180910390f35b61046a6004803603810190610465919061315d565b612a0c565b6040516104779190612ce3565b60405180910390f35b600760205281600052604060002081805160208101820180518482526020830160208501208183528095505050505050600091509150508060000154908060010160009054906101000a900460ff16908060020154905083565b600a60009054906101000a900473ffffffffffffffffffffffffffffffffffffffff1681565b33600a60009054906101000a900473ffffffffffffffffffffffffffffffffffffffff1673ffffffffffffffffffffffffffffffffffffffff1663b9209e33826040518263ffffffff1660e01b815260040161055c9190612ce3565b602060405180830381865afa158015610579573d6000803e3d6000fd5b505050506040513d601f19601f8201168201806040525081019061059d91906133e9565b6105dc576040517f08c379a00000000000000000000000000000000000000000000000000000000081526004016105d390613462565b60405180910390fd5b600260058111156105f0576105ef6131c2565b5b600085856040516106029291906134b2565b908152602001604051809103902060080160159054906101000a900460ff166005811115610633576106326131c2565b5b146106775783836040517fb716508400000000000000000000000000000000000000000000000000000000815260040161066e9291906134f8565b60405180910390fd5b600082036106ba576040517f08c379a00000000000000000000000000000000000000000000000000000000081526004016106b190613568565b60405180910390fd5b6000600760003373ffffffffffffffffffffffffffffffffffffffff1673ffffffffffffffffffffffffffffffffffffffff168152602001908152602001600020858560405161070b9291906134b2565b908152602001604051809103902060010160009054906101000a900460ff16905080156108c6576000600760003373ffffffffffffffffffffffffffffffffffffffff1673ffffffffffffffffffffffffffffffffffffffff16815260200190815260200160002086866040516107839291906134b2565b90815260200160405180910390206002015490506000600760003373ffffffffffffffffffffffffffffffffffffffff1673ffffffffffffffffffffffffffffffffffffffff16815260200190815260200160002087876040516107e89291906134b2565b9081526020016040518091039020600001549050848161080891906135b7565b6004888860405161081a9291906134b2565b9081526020016040518091039020838154811061083a576108396135eb565b5b906000526020600020906002020160010181905550848161085b91906135b7565b600760003373ffffffffffffffffffffffffffffffffffffffff1673ffffffffffffffffffffffffffffffffffffffff16815260200190815260200160002088886040516108aa9291906134b2565b9081526020016040518091039020600001819055505050610a63565b6040518060600160405280848152602001600115158152602001600487876040516108f29291906134b2565b908152602001604051809103902080549050815250600760003373ffffffffffffffffffffffffffffffffffffffff1673ffffffffffffffffffffffffffffffffffffffff16815260200190815260200160002086866040516109569291906134b2565b90815260200160405180910390206000820151816000015560208201518160010160006101000a81548160ff02191690831515021790555060408201518160020155905050600485856040516109ad9291906134b2565b908152602001604051809103902060405180604001604052803373ffffffffffffffffffffffffffffffffffffffff16815260200185815250908060018154018082558091505060019003906000526020600020906002020160009091909190915060008201518160000160006101000a81548173ffffffffffffffffffffffffffffffffffffffff021916908373ffffffffffffffffffffffffffffffffffffffff1602179055506020820151816001015550505b5050505050565b600960009054906101000a900473ffffffffffffffffffffffffffffffffffffffff1673ffffffffffffffffffffffffffffffffffffffff1663877b9a67336040518263ffffffff1660e01b8152600401610ac59190612ce3565b602060405180830381865afa158015610ae2573d6000803e3d6000fd5b505050506040513d601f19601f82011682018060405250810190610b0691906133e9565b610b45576040517f08c379a0000000000000000000000000000000000000000000000000000000008152600401610b3c90613666565b60405180910390fd5b806040016020810190610b589190612e8b565b73ffffffffffffffffffffffffffffffffffffffff163373ffffffffffffffffffffffffffffffffffffffff1614610bc5576040517f08c379a0000000000000000000000000000000000000000000000000000000008152600401610bbc906136d2565b60405180910390fd5b60006005811115610bd957610bd86131c2565b5b60008484604051610beb9291906134b2565b908152602001604051809103902060080160159054906101000a900460ff166005811115610c1c57610c1b6131c2565b5b14610c5c576040517f08c379a0000000000000000000000000000000000000000000000000000000008152600401610c539061373e565b60405180910390fd5b8060008484604051610c6f9291906134b2565b90815260200160405180910390208181610c899190613eea565b905050600160008484604051610ca09291906134b2565b908152602001604051809103902060080160156101000a81548160ff02191690836005811115610cd357610cd26131c2565b5b0217905550600c8054905060008484604051610cf09291906134b2565b908152602001604051809103902060070181905550600c60008484604051610d199291906134b2565b9081526020016040518091039020908060018154018082558091505060019003906000526020600020906009020160009091909190915060008201816000019081610d649190613f0e565b5060018201816001019081610d799190613f0e565b506002820160009054906101000a900473ffffffffffffffffffffffffffffffffffffffff168160020160006101000a81548173ffffffffffffffffffffffffffffffffffffffff021916908373ffffffffffffffffffffffffffffffffffffffff16021790555060038201548160030155600482015481600401556005820154816005015560068201548160060155600782015481600701556008820160009054906101000a900473ffffffffffffffffffffffffffffffffffffffff168160080160006101000a81548173ffffffffffffffffffffffffffffffffffffffff021916908373ffffffffffffffffffffffffffffffffffffffff1602179055506008820160149054906101000a900460ff168160080160146101000a81548160ff021916908360ff1602179055506008820160159054906101000a900460ff168160080160156101000a81548160ff02191690836005811115610ee057610edf6131c2565b5b021790555050507fc32e04bf1356c91e89bdc0de134ba5c3fc8df94d30cea4436e9346bc335199ed838383604051610f1a939291906142ba565b60405180910390a1505050565b6001602052806000526040600020600091509050806000018054610f4a9061380a565b80601f0160208091040260200160405190810160405280929190818152602001828054610f769061380a565b8015610fc35780601f10610f9857610100808354040283529160200191610fc3565b820191906000526020600020905b815481529060010190602001808311610fa657829003601f168201915b505050505090806001018054610fd89061380a565b80601f01602080910402602001604051908101604052809291908181526020018280546110049061380a565b80156110515780601f1061102657610100808354040283529160200191611051565b820191906000526020600020905b81548152906001019060200180831161103457829003601f168201915b5050505050908060020180546110669061380a565b80601f01602080910402602001604051908101604052809291908181526020018280546110929061380a565b80156110df5780601f106110b4576101008083540402835291602001916110df565b820191906000526020600020905b8154815290600101906020018083116110c257829003601f168201915b5050505050908060030180546110f49061380a565b80601f01602080910402602001604051908101604052809291908181526020018280546111209061380a565b801561116d5780601f106111425761010080835404028352916020019161116d565b820191906000526020600020905b81548152906001019060200180831161115057829003601f168201915b5050505050908060040180546111829061380a565b80601f01602080910402602001604051908101604052809291908181526020018280546111ae9061380a565b80156111fb5780601f106111d0576101008083540402835291602001916111fb565b820191906000526020600020905b8154815290600101906020018083116111de57829003601f168201915b5050505050908060050154908060060160009054906101000a900473ffffffffffffffffffffffffffffffffffffffff16905087565b600860009054906101000a900473ffffffffffffffffffffffffffffffffffffffff1673ffffffffffffffffffffffffffffffffffffffff163373ffffffffffffffffffffffffffffffffffffffff16146112c1576040517f08c379a00000000000000000000000000000000000000000000000000000000081526004016112b89061433f565b60405180910390fd5b5050565b8060c00160208101906112d89190612e8b565b600a60009054906101000a900473ffffffffffffffffffffffffffffffffffffffff1673ffffffffffffffffffffffffffffffffffffffff1663b9209e33826040518263ffffffff1660e01b81526004016113339190612ce3565b602060405180830381865afa158015611350573d6000803e3d6000fd5b505050506040513d601f19601f8201168201806040525081019061137491906133e9565b6113b3576040517f08c379a00000000000000000000000000000000000000000000000000000000081526004016113aa90613462565b60405180910390fd5b8160c00160208101906113c69190612e8b565b73ffffffffffffffffffffffffffffffffffffffff163373ffffffffffffffffffffffffffffffffffffffff1614611433576040517f08c379a000000000000000000000000000000000000000000000000000000000815260040161142a906143ab565b60405180910390fd5b60006003811115611447576114466131c2565b5b600560003373ffffffffffffffffffffffffffffffffffffffff1673ffffffffffffffffffffffffffffffffffffffff16815260200190815260200160002060009054906101000a900460ff1660038111156114a6576114a56131c2565b5b146114e6576040517f08c379a00000000000000000000000000000000000000000000000000000000081526004016114dd90614417565b60405180910390fd5b81600160008460c00160208101906114fe9190612e8b565b73ffffffffffffffffffffffffffffffffffffffff1673ffffffffffffffffffffffffffffffffffffffff16815260200190815260200160002081816115449190614522565b9050506001600560003373ffffffffffffffffffffffffffffffffffffffff1673ffffffffffffffffffffffffffffffffffffffff16815260200190815260200160002060006101000a81548160ff021916908360038111156115aa576115a96131c2565b5b02179055505050565b600860009054906101000a900473ffffffffffffffffffffffffffffffffffffffff1673ffffffffffffffffffffffffffffffffffffffff163373ffffffffffffffffffffffffffffffffffffffff1614611643576040517f08c379a000000000000000000000000000000000000000000000000000000000815260040161163a9061433f565b60405180910390fd5b60016005811115611657576116566131c2565b5b600083836040516116699291906134b2565b908152602001604051809103902060080160159054906101000a900460ff16600581111561169a576116996131c2565b5b146116da576040517f08c379a00000000000000000000000000000000000000000000000000000000081526004016116d19061373e565b60405180910390fd5b6002600083836040516116ee9291906134b2565b908152602001604051809103902060080160156101000a81548160ff02191690836005811115611721576117206131c2565b5b02179055506002600c6000848460405161173c9291906134b2565b9081526020016040518091039020600701548154811061175f5761175e6135eb565b5b906000526020600020906009020160080160156101000a81548160ff02191690836005811115611792576117916131c2565b5b02179055507f039501081328ffe3eb02459ad6f6e90b69e23ba1422b574ee84c1f52b2fc031082826040516117c89291906134f8565b60405180910390a15050565b600482805160208101820180518482526020830160208501208183528095505050505050818154811061180657600080fd5b9060005260206000209060020201600091509150508060000160009054906101000a900473ffffffffffffffffffffffffffffffffffffffff16908060010154905082565b600260205280600052604060002060009150905080600001805461186e9061380a565b80601f016020809104026020016040519081016040528092919081815260200182805461189a9061380a565b80156118e75780601f106118bc576101008083540402835291602001916118e7565b820191906000526020600020905b8154815290600101906020018083116118ca57829003601f168201915b5050505050908060010180546118fc9061380a565b80601f01602080910402602001604051908101604052809291908181526020018280546119289061380a565b80156119755780601f1061194a57610100808354040283529160200191611975565b820191906000526020600020905b81548152906001019060200180831161195857829003601f168201915b50505050509080600201805461198a9061380a565b80601f01602080910402602001604051908101604052809291908181526020018280546119b69061380a565b8015611a035780601f106119d857610100808354040283529160200191611a03565b820191906000526020600020905b8154815290600101906020018083116119e657829003601f168201915b5050505050908060030160009054906101000a900473ffffffffffffffffffffffffffffffffffffffff16905084565b600860009054906101000a900473ffffffffffffffffffffffffffffffffffffffff1673ffffffffffffffffffffffffffffffffffffffff163373ffffffffffffffffffffffffffffffffffffffff1614611ac3576040517f08c379a0000000000000000000000000000000000000000000000000000000008152600401611aba9061433f565b60405180910390fd5b60016005811115611ad757611ad66131c2565b5b60008383604051611ae99291906134b2565b908152602001604051809103902060080160159054906101000a900460ff166005811115611b1a57611b196131c2565b5b14611b5a576040517f08c379a0000000000000000000000000000000000000000000000000000000008152600401611b519061373e565b60405180910390fd5b600360008383604051611b6e9291906134b2565b908152602001604051809103902060080160156101000a81548160ff02191690836005811115611ba157611ba06131c2565b5b02179055506003600c60008484604051611bbc9291906134b2565b90815260200160405180910390206007015481548110611bdf57611bde6135eb565b5b906000526020600020906009020160080160156101000a81548160ff02191690836005811115611c1257611c116131c2565b5b02179055507f735ccdd611541d36c82a3622baab7f58b8a0f5be664555b0d9c95ddde16096d38282604051611c489291906134f8565b60405180910390a15050565b600860009054906101000a900473ffffffffffffffffffffffffffffffffffffffff1673ffffffffffffffffffffffffffffffffffffffff163373ffffffffffffffffffffffffffffffffffffffff1614611ce4576040517f08c379a0000000000000000000000000000000000000000000000000000000008152600401611cdb9061433f565b60405180910390fd5b60016003811115611cf857611cf76131c2565b5b600660008373ffffffffffffffffffffffffffffffffffffffff1673ffffffffffffffffffffffffffffffffffffffff16815260200190815260200160002060009054906101000a900460ff166003811115611d5757611d566131c2565b5b14611d97576040517f08c379a0000000000000000000000000000000000000000000000000000000008152600401611d8e90614417565b60405180910390fd5b6002600660008373ffffffffffffffffffffffffffffffffffffffff1673ffffffffffffffffffffffffffffffffffffffff16815260200190815260200160002060006101000a81548160ff02191690836003811115611dfa57611df96131c2565b5b0217905550600960009054906101000a900473ffffffffffffffffffffffffffffffffffffffff1673ffffffffffffffffffffffffffffffffffffffff1663cfde1890826040518263ffffffff1660e01b8152600401611e5a919061457c565b600060405180830381600087803b158015611e7457600080fd5b505af1158015611e88573d6000803e3d6000fd5b5050505050565b600860009054906101000a900473ffffffffffffffffffffffffffffffffffffffff1681565b600860009054906101000a900473ffffffffffffffffffffffffffffffffffffffff1673ffffffffffffffffffffffffffffffffffffffff163373ffffffffffffffffffffffffffffffffffffffff1614611f45576040517f08c379a0000000000000000000000000000000000000000000000000000000008152600401611f3c9061433f565b60405180910390fd5b60016003811115611f5957611f586131c2565b5b600560008373ffffffffffffffffffffffffffffffffffffffff1673ffffffffffffffffffffffffffffffffffffffff16815260200190815260200160002060009054906101000a900460ff166003811115611fb857611fb76131c2565b5b14611ff8576040517f08c379a0000000000000000000000000000000000000000000000000000000008152600401611fef90614417565b60405180910390fd5b6002600560008373ffffffffffffffffffffffffffffffffffffffff1673ffffffffffffffffffffffffffffffffffffffff16815260200190815260200160002060006101000a81548160ff0219169083600381111561205b5761205a6131c2565b5b0217905550600960009054906101000a900473ffffffffffffffffffffffffffffffffffffffff1673ffffffffffffffffffffffffffffffffffffffff1663cfde1890826040518263ffffffff1660e01b81526004016120bb91906145f6565b600060405180830381600087803b1580156120d557600080fd5b505af11580156120e9573d6000803e3d6000fd5b5050505050565b6000818051602081018201805184825260208301602085012081835280955050505050506000915090508060000180546121299061380a565b80601f01602080910402602001604051908101604052809291908181526020018280546121559061380a565b80156121a25780601f10612177576101008083540402835291602001916121a2565b820191906000526020600020905b81548152906001019060200180831161218557829003601f168201915b5050505050908060010180546121b79061380a565b80601f01602080910402602001604051908101604052809291908181526020018280546121e39061380a565b80156122305780601f1061220557610100808354040283529160200191612230565b820191906000526020600020905b81548152906001019060200180831161221357829003601f168201915b5050505050908060020160009054906101000a900473ffffffffffffffffffffffffffffffffffffffff16908060030154908060040154908060050154908060060154908060070154908060080160009054906101000a900473ffffffffffffffffffffffffffffffffffffffff16908060080160149054906101000a900460ff16908060080160159054906101000a900460ff1690508b565b600860009054906101000a900473ffffffffffffffffffffffffffffffffffffffff1673ffffffffffffffffffffffffffffffffffffffff163373ffffffffffffffffffffffffffffffffffffffff161461235a576040517f08c379a00000000000000000000000000000000000000000000000000000000081526004016123519061433f565b60405180910390fd5b565b600860009054906101000a900473ffffffffffffffffffffffffffffffffffffffff1673ffffffffffffffffffffffffffffffffffffffff163373ffffffffffffffffffffffffffffffffffffffff16146123ec576040517f08c379a00000000000000000000000000000000000000000000000000000000081526004016123e39061433f565b60405180910390fd5b60016003811115612400576123ff6131c2565b5b600560008373ffffffffffffffffffffffffffffffffffffffff1673ffffffffffffffffffffffffffffffffffffffff16815260200190815260200160002060009054906101000a900460ff16600381111561245f5761245e6131c2565b5b1461249f576040517f08c379a000000000000000000000000000000000000000000000000000000000815260040161249690614417565b60405180910390fd5b6003600560008373ffffffffffffffffffffffffffffffffffffffff1673ffffffffffffffffffffffffffffffffffffffff16815260200190815260200160002060006101000a81548160ff02191690836003811115612502576125016131c2565b5b021790555050565b600960009054906101000a900473ffffffffffffffffffffffffffffffffffffffff1681565b600860009054906101000a900473ffffffffffffffffffffffffffffffffffffffff1673ffffffffffffffffffffffffffffffffffffffff163373ffffffffffffffffffffffffffffffffffffffff16146125c0576040517f08c379a00000000000000000000000000000000000000000000000000000000081526004016125b79061433f565b60405180910390fd5b600160038111156125d4576125d36131c2565b5b600660008373ffffffffffffffffffffffffffffffffffffffff1673ffffffffffffffffffffffffffffffffffffffff16815260200190815260200160002060009054906101000a900460ff166003811115612633576126326131c2565b5b14612673576040517f08c379a000000000000000000000000000000000000000000000000000000000815260040161266a90614417565b60405180910390fd5b6003600660008373ffffffffffffffffffffffffffffffffffffffff1673ffffffffffffffffffffffffffffffffffffffff16815260200190815260200160002060006101000a81548160ff021916908360038111156126d6576126d56131c2565b5b021790555050565b8060600160208101906126f19190612e8b565b600a60009054906101000a900473ffffffffffffffffffffffffffffffffffffffff1673ffffffffffffffffffffffffffffffffffffffff1663b9209e33826040518263ffffffff1660e01b815260040161274c9190612ce3565b602060405180830381865afa158015612769573d6000803e3d6000fd5b505050506040513d601f19601f8201168201806040525081019061278d91906133e9565b6127cc576040517f08c379a00000000000000000000000000000000000000000000000000000000081526004016127c390613462565b60405180910390fd5b8160600160208101906127df9190612e8b565b73ffffffffffffffffffffffffffffffffffffffff163373ffffffffffffffffffffffffffffffffffffffff161461284c576040517f08c379a0000000000000000000000000000000000000000000000000000000008152600401612843906143ab565b60405180910390fd5b600060038111156128605761285f6131c2565b5b600660003373ffffffffffffffffffffffffffffffffffffffff1673ffffffffffffffffffffffffffffffffffffffff16815260200190815260200160002060009054906101000a900460ff1660038111156128bf576128be6131c2565b5b146128ff576040517f08c379a00000000000000000000000000000000000000000000000000000000081526004016128f690614417565b60405180910390fd5b81600260008460600160208101906129179190612e8b565b73ffffffffffffffffffffffffffffffffffffffff1673ffffffffffffffffffffffffffffffffffffffff168152602001908152602001600020818161295d91906146ac565b9050506001600660003373ffffffffffffffffffffffffffffffffffffffff1673ffffffffffffffffffffffffffffffffffffffff16815260200190815260200160002060006101000a81548160ff021916908360038111156129c3576129c26131c2565b5b02179055505050565b60066020528060005260406000206000915054906101000a900460ff1681565b60056020528060005260406000206000915054906101000a900460ff1681565b6003818051602081018201805184825260208301602085012081835280955050505050506000915054906101000a900473ffffffffffffffffffffffffffffffffffffffff1681565b6000604051905090565b600080fd5b600080fd5b600073ffffffffffffffffffffffffffffffffffffffff82169050919050565b6000612a9482612a69565b9050919050565b612aa481612a89565b8114612aaf57600080fd5b50565b600081359050612ac181612a9b565b92915050565b600080fd5b600080fd5b6000601f19601f8301169050919050565b7f4e487b7100000000000000000000000000000000000000000000000000000000600052604160045260246000fd5b612b1a82612ad1565b810181811067ffffffffffffffff82111715612b3957612b38612ae2565b5b80604052505050565b6000612b4c612a55565b9050612b588282612b11565b919050565b600067ffffffffffffffff821115612b7857612b77612ae2565b5b612b8182612ad1565b9050602081019050919050565b82818337600083830152505050565b6000612bb0612bab84612b5d565b612b42565b905082815260208101848484011115612bcc57612bcb612acc565b5b612bd7848285612b8e565b509392505050565b600082601f830112612bf457612bf3612ac7565b5b8135612c04848260208601612b9d565b91505092915050565b60008060408385031215612c2457612c23612a5f565b5b6000612c3285828601612ab2565b925050602083013567ffffffffffffffff811115612c5357612c52612a64565b5b612c5f85828601612bdf565b9150509250929050565b6000819050919050565b612c7c81612c69565b82525050565b60008115159050919050565b612c9781612c82565b82525050565b6000606082019050612cb26000830186612c73565b612cbf6020830185612c8e565b612ccc6040830184612c73565b949350505050565b612cdd81612a89565b82525050565b6000602082019050612cf86000830184612cd4565b92915050565b600080fd5b600080fd5b60008083601f840112612d1e57612d1d612ac7565b5b8235905067ffffffffffffffff811115612d3b57612d3a612cfe565b5b602083019150836001820283011115612d5757612d56612d03565b5b9250929050565b612d6781612c69565b8114612d7257600080fd5b50565b600081359050612d8481612d5e565b92915050565b600080600060408486031215612da357612da2612a5f565b5b600084013567ffffffffffffffff811115612dc157612dc0612a64565b5b612dcd86828701612d08565b93509350506020612de086828701612d75565b9150509250925092565b600080fd5b60006101608284031215612e0657612e05612dea565b5b81905092915050565b600080600060408486031215612e2857612e27612a5f565b5b600084013567ffffffffffffffff811115612e4657612e45612a64565b5b612e5286828701612d08565b9350935050602084013567ffffffffffffffff811115612e7557612e74612a64565b5b612e8186828701612def565b9150509250925092565b600060208284031215612ea157612ea0612a5f565b5b6000612eaf84828501612ab2565b91505092915050565b600081519050919050565b600082825260208201905092915050565b60005b83811015612ef2578082015181840152602081019050612ed7565b60008484015250505050565b6000612f0982612eb8565b612f138185612ec3565b9350612f23818560208601612ed4565b612f2c81612ad1565b840191505092915050565b600060e0820190508181036000830152612f51818a612efe565b90508181036020830152612f658189612efe565b90508181036040830152612f798188612efe565b90508181036060830152612f8d8187612efe565b90508181036080830152612fa18186612efe565b9050612fb060a0830185612c73565b612fbd60c0830184612cd4565b98975050505050505050565b60008060208385031215612fe057612fdf612a5f565b5b600083013567ffffffffffffffff811115612ffe57612ffd612a64565b5b61300a85828601612d08565b92509250509250929050565b600060e0828403121561302c5761302b612dea565b5b81905092915050565b60006020828403121561304b5761304a612a5f565b5b600082013567ffffffffffffffff81111561306957613068612a64565b5b61307584828501613016565b91505092915050565b6000806040838503121561309557613094612a5f565b5b600083013567ffffffffffffffff8111156130b3576130b2612a64565b5b6130bf85828601612bdf565b92505060206130d085828601612d75565b9150509250929050565b60006040820190506130ef6000830185612cd4565b6130fc6020830184612c73565b9392505050565b6000608082019050818103600083015261311d8187612efe565b905081810360208301526131318186612efe565b905081810360408301526131458185612efe565b90506131546060830184612cd4565b95945050505050565b60006020828403121561317357613172612a5f565b5b600082013567ffffffffffffffff81111561319157613190612a64565b5b61319d84828501612bdf565b91505092915050565b600060ff82169050919050565b6131bc816131a6565b82525050565b7f4e487b7100000000000000000000000000000000000000000000000000000000600052602160045260246000fd5b60068110613202576132016131c2565b5b50565b6000819050613213826131f1565b919050565b600061322382613205565b9050919050565b61323381613218565b82525050565b6000610160820190508181036000830152613254818e612efe565b90508181036020830152613268818d612efe565b9050613277604083018c612cd4565b613284606083018b612c73565b613291608083018a612c73565b61329e60a0830189612c73565b6132ab60c0830188612c73565b6132b860e0830187612c73565b6132c6610100830186612cd4565b6132d46101208301856131b3565b6132e261014083018461322a565b9c9b505050505050505050505050565b60006080828403121561330857613307612dea565b5b81905092915050565b60006020828403121561332757613326612a5f565b5b600082013567ffffffffffffffff81111561334557613344612a64565b5b613351848285016132f2565b91505092915050565b6004811061336b5761336a6131c2565b5b50565b600081905061337c8261335a565b919050565b600061338c8261336e565b9050919050565b61339c81613381565b82525050565b60006020820190506133b76000830184613393565b92915050565b6133c681612c82565b81146133d157600080fd5b50565b6000815190506133e3816133bd565b92915050565b6000602082840312156133ff576133fe612a5f565b5b600061340d848285016133d4565b91505092915050565b7f4143434f554e545f4e4f545f414150524f564544000000000000000000000000600082015250565b600061344c601483612ec3565b915061345782613416565b602082019050919050565b6000602082019050818103600083015261347b8161343f565b9050919050565b600081905092915050565b60006134998385613482565b93506134a6838584612b8e565b82840190509392505050565b60006134bf82848661348d565b91508190509392505050565b60006134d78385612ec3565b93506134e4838584612b8e565b6134ed83612ad1565b840190509392505050565b600060208201905081810360008301526135138184866134cb565b90509392505050565b7f494e56414c49445f414d4f554e54000000000000000000000000000000000000600082015250565b6000613552600e83612ec3565b915061355d8261351c565b602082019050919050565b6000602082019050818103600083015261358181613545565b9050919050565b7f4e487b7100000000000000000000000000000000000000000000000000000000600052601160045260246000fd5b60006135c282612c69565b91506135cd83612c69565b92508282019050808211156135e5576135e4613588565b5b92915050565b7f4e487b7100000000000000000000000000000000000000000000000000000000600052603260045260246000fd5b7f4f4e4c595f495353554552530000000000000000000000000000000000000000600082015250565b6000613650600c83612ec3565b915061365b8261361a565b602082019050919050565b6000602082019050818103600083015261367f81613643565b9050919050565b7f494e56414c49445f4953535545525f4144445245535300000000000000000000600082015250565b60006136bc601683612ec3565b91506136c782613686565b602082019050919050565b600060208201905081810360008301526136eb816136af565b9050919050565b7f494e56414c49445f4445414c5f53544154555300000000000000000000000000600082015250565b6000613728601383612ec3565b9150613733826136f2565b602082019050919050565b600060208201905081810360008301526137578161371b565b9050919050565b600080fd5b600080fd5b600080fd5b6000808335600160200384360303811261378a5761378961375e565b5b80840192508235915067ffffffffffffffff8211156137ac576137ab613763565b5b6020830192506001820236038313156137c8576137c7613768565b5b509250929050565b600082905092915050565b7f4e487b7100000000000000000000000000000000000000000000000000000000600052602260045260246000fd5b6000600282049050600182168061382257607f821691505b602082108103613835576138346137db565b5b50919050565b60008190508160005260206000209050919050565b60006020601f8301049050919050565b600082821b905092915050565b60006008830261389d7fffffffffffffffffffffffffffffffffffffffffffffffffffffffffffffffff82613860565b6138a78683613860565b95508019841693508086168417925050509392505050565b6000819050919050565b60006138e46138df6138da84612c69565b6138bf565b612c69565b9050919050565b6000819050919050565b6138fe836138c9565b61391261390a826138eb565b84845461386d565b825550505050565b600090565b61392761391a565b6139328184846138f5565b505050565b5b818110156139565761394b60008261391f565b600181019050613938565b5050565b601f82111561399b5761396c8161383b565b61397584613850565b81016020851015613984578190505b61399861399085613850565b830182613937565b50505b505050565b600082821c905092915050565b60006139be600019846008026139a0565b1980831691505092915050565b60006139d783836139ad565b9150826002028217905092915050565b6139f183836137d0565b67ffffffffffffffff811115613a0a57613a09612ae2565b5b613a14825461380a565b613a1f82828561395a565b6000601f831160018114613a4e5760008415613a3c578287013590505b613a4685826139cb565b865550613aae565b601f198416613a5c8661383b565b60005b82811015613a8457848901358255600182019150602085019450602081019050613a5f565b86831015613aa15784890135613a9d601f8916826139ad565b8355505b6001600288020188555050505b50505050505050565b613ac28383836139e7565b505050565b60008135613ad481612a9b565b80915050919050565b60008160001b9050919050565b600073ffffffffffffffffffffffffffffffffffffffff613b0a84613add565b9350801983169250808416831791505092915050565b6000613b3b613b36613b3184612a69565b6138bf565b612a69565b9050919050565b6000613b4d82613b20565b9050919050565b6000613b5f82613b42565b9050919050565b6000819050919050565b613b7982613b54565b613b8c613b8582613b66565b8354613aea565b8255505050565b60008135613ba081612d5e565b80915050919050565b60007fffffffffffffffffffffffffffffffffffffffffffffffffffffffffffffffff613bd584613add565b9350801983169250808416831791505092915050565b613bf4826138c9565b613c07613c00826138eb565b8354613ba9565b8255505050565b613c17816131a6565b8114613c2257600080fd5b50565b60008135613c3281613c0e565b80915050919050565b60008160a01b9050919050565b600074ff0000000000000000000000000000000000000000613c6984613c3b565b9350801983169250808416831791505092915050565b6000613c9a613c95613c90846131a6565b6138bf565b6131a6565b9050919050565b6000819050919050565b613cb482613c7f565b613cc7613cc082613ca1565b8354613c48565b8255505050565b60068110613cdb57600080fd5b50565b60008135613ceb81613cce565b80915050919050565b60008160a81b9050919050565b600075ff000000000000000000000000000000000000000000613d2384613cf4565b9350801983169250808416831791505092915050565b6000613d4482613205565b9050919050565b6000819050919050565b613d5e82613d39565b613d71613d6a82613d4b565b8354613d01565b8255505050565b6000810160008301613d8a818561376d565b613d95818386613ab7565b505050506001810160208301613dab818561376d565b613db6818386613ab7565b50505050600281016040830180613dcc81613ac7565b9050613dd88184613b70565b505050600381016060830180613ded81613b93565b9050613df98184613beb565b505050600481016080830180613e0e81613b93565b9050613e1a8184613beb565b5050506005810160a0830180613e2f81613b93565b9050613e3b8184613beb565b5050506006810160c0830180613e5081613b93565b9050613e5c8184613beb565b5050506007810160e0830180613e7181613b93565b9050613e7d8184613beb565b50505060088101610100830180613e9381613ac7565b9050613e9f8184613b70565b50505060088101610120830180613eb581613c25565b9050613ec18184613cab565b50505060088101610140830180613ed781613cde565b9050613ee38184613d55565b5050505050565b613ef48282613d78565b5050565b600081549050613f078161380a565b9050919050565b818103613f1c575050613ff4565b613f2582613ef8565b67ffffffffffffffff811115613f3e57613f3d612ae2565b5b613f48825461380a565b613f5382828561395a565b6000601f831160018114613f825760008415613f70578287015490505b613f7a85826139cb565b865550613fed565b601f198416613f908761383b565b9650613f9b8661383b565b60005b82811015613fc357848901548255600182019150600185019450602081019050613f9e565b86831015613fe05784890154613fdc601f8916826139ad565b8355505b6001600288020188555050505b5050505050505b565b600080fd5b600080fd5b600080fd5b6000808335600160200384360303811261402257614021614000565b5b83810192508235915060208301925067ffffffffffffffff82111561404a57614049613ff6565b5b6001820236038313156140605761405f613ffb565b5b509250929050565b600082825260208201905092915050565b60006140858385614068565b9350614092838584612b8e565b61409b83612ad1565b840190509392505050565b60006140b56020840184612ab2565b905092915050565b6140c681612a89565b82525050565b60006140db6020840184612d75565b905092915050565b6140ec81612c69565b82525050565b60008135905061410181613c0e565b92915050565b600061411660208401846140f2565b905092915050565b614127816131a6565b82525050565b60008135905061413c81613cce565b92915050565b6000614151602084018461412d565b905092915050565b61416281613218565b82525050565b6000610160830161417c6000840184614005565b858303600087015261418f838284614079565b925050506141a06020840184614005565b85830360208701526141b3838284614079565b925050506141c460408401846140a6565b6141d160408601826140bd565b506141df60608401846140cc565b6141ec60608601826140e3565b506141fa60808401846140cc565b61420760808601826140e3565b5061421560a08401846140cc565b61422260a08601826140e3565b5061423060c08401846140cc565b61423d60c08601826140e3565b5061424b60e08401846140cc565b61425860e08601826140e3565b506142676101008401846140a6565b6142756101008601826140bd565b50614284610120840184614107565b61429261012086018261411e565b506142a1610140840184614142565b6142af610140860182614159565b508091505092915050565b600060408201905081810360008301526142d58185876134cb565b905081810360208301526142e98184614168565b9050949350505050565b7f4f4e4c595f544f504f535f4d414e414745520000000000000000000000000000600082015250565b6000614329601283612ec3565b9150614334826142f3565b602082019050919050565b600060208201905081810360008301526143588161431c565b9050919050565b7f494e56414c49445f414444524553530000000000000000000000000000000000600082015250565b6000614395600f83612ec3565b91506143a08261435f565b602082019050919050565b600060208201905081810360008301526143c481614388565b9050919050565b7f434845434b5f594f55525f535441545553000000000000000000000000000000600082015250565b6000614401601183612ec3565b915061440c826143cb565b602082019050919050565b60006020820190508181036000830152614430816143f4565b9050919050565b6000810160008301614449818561376d565b614454818386613ab7565b50505050600181016020830161446a818561376d565b614475818386613ab7565b50505050600281016040830161448b818561376d565b614496818386613ab7565b5050505060038101606083016144ac818561376d565b6144b7818386613ab7565b5050505060048101608083016144cd818561376d565b6144d8818386613ab7565b505050506005810160a08301806144ee81613b93565b90506144fa8184613beb565b5050506006810160c083018061450f81613ac7565b905061451b8184613b70565b5050505050565b61452c8282614437565b5050565b7f494e564553544f52000000000000000000000000000000000000000000000000600082015250565b6000614566600883612ec3565b915061457182614530565b602082019050919050565b6000604082019050818103600083015261459581614559565b90506145a46020830184612cd4565b92915050565b7f4953535545520000000000000000000000000000000000000000000000000000600082015250565b60006145e0600683612ec3565b91506145eb826145aa565b602082019050919050565b6000604082019050818103600083015261460f816145d3565b905061461e6020830184612cd4565b92915050565b6000810160008301614636818561376d565b614641818386613ab7565b505050506001810160208301614657818561376d565b614662818386613ab7565b505050506002810160408301614678818561376d565b614683818386613ab7565b5050505060038101606083018061469981613ac7565b90506146a58184613b70565b5050505050565b6146b68282614624565b505056fea2646970667358221220f1a101859da70ea1ca8fc687b6fe1e4b41db7e141020ede2ecb1708eb145217f64736f6c63430008130033",
  "immutableReferences": {},
  "source": "// SPDX-License-Identifier: CC0-1.0\npragma solidity ^0.8.0;\n\nimport \"../interfaces/IToposBank.sol\";\nimport \"./ToposBankStorage.sol\";\nimport \"../interfaces/IRoles.sol\";\n\ncontract ToposBank is IToposBank, ToposBankStorage {\n    constructor(\n        address _toposManager,\n        address _rolesContract,\n        address _identityRegistryContract\n    ) {\n        toposManager = _toposManager;\n        rolesContract = _rolesContract;\n        IRoles(_rolesContract).setRole(\"MANAGER\", _toposManager);\n        identityRegistryContract = _identityRegistryContract;\n    }\n\n    function requestRegistrationIssuer(\n        BondData.Issuer calldata _issuer\n    ) external mustBeApproved(_issuer.walletAddress) {\n        require(msg.sender == _issuer.walletAddress, \"INVALID_ADDRESS\");\n        require(\n            issuerStatus[msg.sender] == BondData.StakeHolderStatus.UNDEFINED,\n            \"CHECK_YOUR_STATUS\"\n        );\n\n        issuers[_issuer.walletAddress] = _issuer;\n        issuerStatus[msg.sender] = BondData.StakeHolderStatus.SUBMITTED;\n    }\n\n    function requestRegistrationInvestor(\n        BondData.Investor calldata _investor\n    ) external mustBeApproved(_investor.walletAddress) {\n        require(msg.sender == _investor.walletAddress, \"INVALID_ADDRESS\");\n        require(\n            investorStatus[msg.sender] == BondData.StakeHolderStatus.UNDEFINED,\n            \"CHECK_YOUR_STATUS\"\n        );\n\n        investors[_investor.walletAddress] = _investor;\n        investorStatus[msg.sender] = BondData.StakeHolderStatus.SUBMITTED;\n    }\n\n    function approveIssuer(address _issuer) external onlyToposManager {\n        require(\n            issuerStatus[_issuer] == BondData.StakeHolderStatus.SUBMITTED,\n            \"CHECK_YOUR_STATUS\"\n        );\n\n        issuerStatus[_issuer] = BondData.StakeHolderStatus.APPROVED;\n        IRoles(rolesContract).setRole(\"ISSUER\", _issuer);\n    }\n\n    function approveInvestor(address _investor) external onlyToposManager {\n        require(\n            investorStatus[_investor] == BondData.StakeHolderStatus.SUBMITTED,\n            \"CHECK_YOUR_STATUS\"\n        );\n\n        investorStatus[_investor] = BondData.StakeHolderStatus.APPROVED;\n        IRoles(rolesContract).setRole(\"INVESTOR\", _investor);\n    }\n\n    function rejectIssuer(address _issuer) external onlyToposManager {\n        require(\n            issuerStatus[_issuer] == BondData.StakeHolderStatus.SUBMITTED,\n            \"CHECK_YOUR_STATUS\"\n        );\n\n        issuerStatus[_issuer] = BondData.StakeHolderStatus.REJECTED;\n    }\n\n    function rejectInvestor(address _investor) external onlyToposManager {\n        require(\n            investorStatus[_investor] == BondData.StakeHolderStatus.SUBMITTED,\n            \"CHECK_YOUR_STATUS\"\n        );\n\n        investorStatus[_investor] = BondData.StakeHolderStatus.REJECTED;\n    }\n\n    function submitDeal(\n        string calldata _dealID,\n        BondData.Deal calldata _deal\n    ) external {\n        require(\n            IRoles(rolesContract).isIssuer(msg.sender),\n            \"ONLY_ISSUERS\"\n        );\n        require(\n            msg.sender == _deal.issuerAddress,\n            \"INVALID_ISSUER_ADDRESS\"\n        );\n        require(\n            deals[_dealID].status == BondData.DealStatus.UNDEFINED,\n            \"INVALID_DEAL_STATUS\"\n        );\n\n        deals[_dealID] = _deal;\n        deals[_dealID].status = BondData.DealStatus.SUBMITTED;\n        deals[_dealID].index = listOfDeals.length;\n\n        listOfDeals.push(deals[_dealID]);\n\n        emit DealSubmitted(_dealID, _deal);\n    }\n\n    function approveDeal(\n        string calldata _dealID\n    ) external onlyToposManager {\n        require(\n            deals[_dealID].status == BondData.DealStatus.SUBMITTED,\n            \"INVALID_DEAL_STATUS\"\n        );\n\n        deals[_dealID].status = BondData.DealStatus.APPROVED;\n        listOfDeals[deals[_dealID].index].status = BondData.DealStatus.APPROVED;\n\n        emit DealAPproved(_dealID);\n    }\n\n    function rejectDeal(\n        string calldata _dealID\n    ) external onlyToposManager {\n        require(\n            deals[_dealID].status == BondData.DealStatus.SUBMITTED,\n            \"INVALID_DEAL_STATUS\"\n        );\n\n        deals[_dealID].status = BondData.DealStatus.REJECTED;\n        listOfDeals[deals[_dealID].index].status = BondData.DealStatus.REJECTED;\n\n        emit DealARejected(_dealID);\n    }\n\n    function registerForDeal(\n        string calldata _dealID,\n        uint256 _amount\n    ) external mustBeApproved(msg.sender) {\n        if(deals[_dealID].status != BondData.DealStatus.APPROVED)\n            revert BondData.InvalidDealStatus(_dealID);\n        require(_amount != 0, \"INVALID_AMOUNT\");\n\n        bool hasInvested = amountInvested[msg.sender][_dealID].hasInvested;\n\n        if(hasInvested) {\n            uint256 index = amountInvested[msg.sender][_dealID].index;\n            uint256 amount  = amountInvested[msg.sender][_dealID].amount;\n\n            dealInvestment[_dealID][index].amount = amount + _amount;\n            amountInvested[msg.sender][_dealID].amount = amount + _amount;\n        } else {\n            amountInvested[msg.sender][_dealID] =  BondData.Investment(\n                {\n                    amount: _amount,\n                    hasInvested: true,\n                    index: dealInvestment[_dealID].length\n                }\n            );\n\n            dealInvestment[_dealID].push(\n                BondData.DealInvestment(\n                    {\n                        investor: msg.sender,\n                        amount: _amount\n                    }\n                )\n            );       \n        }\n    }\n\n    function issue(string calldata _delaID) external onlyToposManager {\n\n    }\n\n    function redeem() external onlyToposManager {\n\n    }\n}",
  "sourcePath": "/Users/sam/Documents/Blockchain/Topos/ToposGrant/T-Grant/contracts/Topos/Bank/ToposBank.sol",
  "compiler": {
    "name": "solc",
    "version": "0.8.19+commit.7dd6d404.Emscripten.clang"
  },
  "schemaVersion": "3.4.9",
  "updatedAt": "2023-11-05T00:38:19.153Z",
  "devdoc": {
    "kind": "dev",
    "methods": {},
    "version": 1
  },
  "userdoc": {
    "kind": "user",
    "methods": {},
    "version": 1
  }
}