{
  "contractName": "ToposBank",
  "abi": [
    {
      "inputs": [
        {
          "internalType": "address",
          "name": "_toposManager",
          "type": "address"
        },
        {
          "internalType": "address",
          "name": "_rolesContract",
          "type": "address"
        },
        {
          "internalType": "address",
          "name": "_identityRegistryContract",
          "type": "address"
        }
      ],
      "stateMutability": "nonpayable",
      "type": "constructor"
    },
    {
      "inputs": [
        {
          "internalType": "string",
          "name": "dealID",
          "type": "string"
        }
      ],
      "name": "InvalidDealStatus",
      "type": "error"
    },
    {
      "anonymous": false,
      "inputs": [
        {
          "indexed": false,
          "internalType": "address",
          "name": "investor",
          "type": "address"
        }
      ],
      "name": "ApproveInvestor",
      "type": "event"
    },
    {
      "anonymous": false,
      "inputs": [
        {
          "indexed": false,
          "internalType": "address",
          "name": "issuer",
          "type": "address"
        }
      ],
      "name": "ApproveIssuer",
      "type": "event"
    },
    {
      "anonymous": false,
      "inputs": [
        {
          "indexed": false,
          "internalType": "string",
          "name": "_dealID",
          "type": "string"
        }
      ],
      "name": "BondIssue",
      "type": "event"
    },
    {
      "anonymous": false,
      "inputs": [
        {
          "indexed": false,
          "internalType": "string",
          "name": "_dealID",
          "type": "string"
        }
      ],
      "name": "BondRedeem",
      "type": "event"
    },
    {
      "anonymous": false,
      "inputs": [
        {
          "indexed": false,
          "internalType": "string",
          "name": "dealID",
          "type": "string"
        }
      ],
      "name": "DealAPproved",
      "type": "event"
    },
    {
      "anonymous": false,
      "inputs": [
        {
          "indexed": false,
          "internalType": "string",
          "name": "dealID",
          "type": "string"
        }
      ],
      "name": "DealARejected",
      "type": "event"
    },
    {
      "anonymous": false,
      "inputs": [
        {
          "indexed": false,
          "internalType": "string",
          "name": "dealID",
          "type": "string"
        },
        {
          "components": [
            {
              "internalType": "string",
              "name": "dealID",
              "type": "string"
            },
            {
              "internalType": "string",
              "name": "prospectusURI",
              "type": "string"
            },
            {
              "internalType": "address",
              "name": "issuerAddress",
              "type": "address"
            },
            {
              "internalType": "uint256",
              "name": "debtAmount",
              "type": "uint256"
            },
            {
              "internalType": "uint256",
              "name": "couponRate",
              "type": "uint256"
            },
            {
              "internalType": "uint256",
              "name": "couponFrequency",
              "type": "uint256"
            },
            {
              "internalType": "uint256",
              "name": "maturityDate",
              "type": "uint256"
            },
            {
              "internalType": "uint256",
              "name": "index",
              "type": "uint256"
            },
            {
              "internalType": "address",
              "name": "currency",
              "type": "address"
            },
            {
              "internalType": "uint8",
              "name": "couponType",
              "type": "uint8"
            },
            {
              "internalType": "enum BondData.DealStatus",
              "name": "status",
              "type": "uint8"
            }
          ],
          "indexed": false,
          "internalType": "struct BondData.Deal",
          "name": "deal",
          "type": "tuple"
        }
      ],
      "name": "DealSubmitted",
      "type": "event"
    },
    {
      "anonymous": false,
      "inputs": [
        {
          "indexed": false,
          "internalType": "string",
          "name": "dealID",
          "type": "string"
        },
        {
          "indexed": false,
          "internalType": "address",
          "name": "investor",
          "type": "address"
        }
      ],
      "name": "RegisterForDeal",
      "type": "event"
    },
    {
      "anonymous": false,
      "inputs": [
        {
          "indexed": false,
          "internalType": "address",
          "name": "investor",
          "type": "address"
        }
      ],
      "name": "RejectInvestor",
      "type": "event"
    },
    {
      "anonymous": false,
      "inputs": [
        {
          "indexed": false,
          "internalType": "address",
          "name": "issuer",
          "type": "address"
        }
      ],
      "name": "RejectIssuer",
      "type": "event"
    },
    {
      "anonymous": false,
      "inputs": [
        {
          "indexed": false,
          "internalType": "address",
          "name": "investor",
          "type": "address"
        }
      ],
      "name": "RequestInvestorRegistration",
      "type": "event"
    },
    {
      "anonymous": false,
      "inputs": [
        {
          "indexed": false,
          "internalType": "address",
          "name": "issuer",
          "type": "address"
        }
      ],
      "name": "RequestIssuerRegistration",
      "type": "event"
    },
    {
      "inputs": [
        {
          "internalType": "address",
          "name": "",
          "type": "address"
        },
        {
          "internalType": "string",
          "name": "",
          "type": "string"
        }
      ],
      "name": "amountInvested",
      "outputs": [
        {
          "internalType": "uint256",
          "name": "amount",
          "type": "uint256"
        },
        {
          "internalType": "bool",
          "name": "hasInvested",
          "type": "bool"
        },
        {
          "internalType": "uint256",
          "name": "index",
          "type": "uint256"
        }
      ],
      "stateMutability": "view",
      "type": "function"
    },
    {
      "inputs": [
        {
          "internalType": "string",
          "name": "",
          "type": "string"
        }
      ],
      "name": "dealBondContracts",
      "outputs": [
        {
          "internalType": "address",
          "name": "",
          "type": "address"
        }
      ],
      "stateMutability": "view",
      "type": "function"
    },
    {
      "inputs": [
        {
          "internalType": "string",
          "name": "",
          "type": "string"
        },
        {
          "internalType": "uint256",
          "name": "",
          "type": "uint256"
        }
      ],
      "name": "dealInvestment",
      "outputs": [
        {
          "internalType": "address",
          "name": "investor",
          "type": "address"
        },
        {
          "internalType": "uint256",
          "name": "amount",
          "type": "uint256"
        }
      ],
      "stateMutability": "view",
      "type": "function"
    },
    {
      "inputs": [
        {
          "internalType": "string",
          "name": "",
          "type": "string"
        }
      ],
      "name": "deals",
      "outputs": [
        {
          "internalType": "string",
          "name": "dealID",
          "type": "string"
        },
        {
          "internalType": "string",
          "name": "prospectusURI",
          "type": "string"
        },
        {
          "internalType": "address",
          "name": "issuerAddress",
          "type": "address"
        },
        {
          "internalType": "uint256",
          "name": "debtAmount",
          "type": "uint256"
        },
        {
          "internalType": "uint256",
          "name": "couponRate",
          "type": "uint256"
        },
        {
          "internalType": "uint256",
          "name": "couponFrequency",
          "type": "uint256"
        },
        {
          "internalType": "uint256",
          "name": "maturityDate",
          "type": "uint256"
        },
        {
          "internalType": "uint256",
          "name": "index",
          "type": "uint256"
        },
        {
          "internalType": "address",
          "name": "currency",
          "type": "address"
        },
        {
          "internalType": "uint8",
          "name": "couponType",
          "type": "uint8"
        },
        {
          "internalType": "enum BondData.DealStatus",
          "name": "status",
          "type": "uint8"
        }
      ],
      "stateMutability": "view",
      "type": "function"
    },
    {
      "inputs": [],
      "name": "identityRegistryContract",
      "outputs": [
        {
          "internalType": "address",
          "name": "",
          "type": "address"
        }
      ],
      "stateMutability": "view",
      "type": "function"
    },
    {
      "inputs": [
        {
          "internalType": "address",
          "name": "",
          "type": "address"
        }
      ],
      "name": "investorStatus",
      "outputs": [
        {
          "internalType": "enum BondData.StakeHolderStatus",
          "name": "",
          "type": "uint8"
        }
      ],
      "stateMutability": "view",
      "type": "function"
    },
    {
      "inputs": [
        {
          "internalType": "address",
          "name": "",
          "type": "address"
        }
      ],
      "name": "investors",
      "outputs": [
        {
          "internalType": "string",
          "name": "name",
          "type": "string"
        },
        {
          "internalType": "string",
          "name": "country",
          "type": "string"
        },
        {
          "internalType": "string",
          "name": "investorType",
          "type": "string"
        },
        {
          "internalType": "address",
          "name": "walletAddress",
          "type": "address"
        }
      ],
      "stateMutability": "view",
      "type": "function"
    },
    {
      "inputs": [
        {
          "internalType": "address",
          "name": "",
          "type": "address"
        },
        {
          "internalType": "uint256",
          "name": "",
          "type": "uint256"
        }
      ],
      "name": "issuerDeals",
      "outputs": [
        {
          "internalType": "string",
          "name": "dealID",
          "type": "string"
        },
        {
          "internalType": "string",
          "name": "prospectusURI",
          "type": "string"
        },
        {
          "internalType": "address",
          "name": "issuerAddress",
          "type": "address"
        },
        {
          "internalType": "uint256",
          "name": "debtAmount",
          "type": "uint256"
        },
        {
          "internalType": "uint256",
          "name": "couponRate",
          "type": "uint256"
        },
        {
          "internalType": "uint256",
          "name": "couponFrequency",
          "type": "uint256"
        },
        {
          "internalType": "uint256",
          "name": "maturityDate",
          "type": "uint256"
        },
        {
          "internalType": "uint256",
          "name": "index",
          "type": "uint256"
        },
        {
          "internalType": "address",
          "name": "currency",
          "type": "address"
        },
        {
          "internalType": "uint8",
          "name": "couponType",
          "type": "uint8"
        },
        {
          "internalType": "enum BondData.DealStatus",
          "name": "status",
          "type": "uint8"
        }
      ],
      "stateMutability": "view",
      "type": "function"
    },
    {
      "inputs": [
        {
          "internalType": "address",
          "name": "",
          "type": "address"
        }
      ],
      "name": "issuerStatus",
      "outputs": [
        {
          "internalType": "enum BondData.StakeHolderStatus",
          "name": "",
          "type": "uint8"
        }
      ],
      "stateMutability": "view",
      "type": "function"
    },
    {
      "inputs": [
        {
          "internalType": "address",
          "name": "",
          "type": "address"
        }
      ],
      "name": "issuers",
      "outputs": [
        {
          "internalType": "string",
          "name": "documentURI",
          "type": "string"
        },
        {
          "internalType": "string",
          "name": "name",
          "type": "string"
        },
        {
          "internalType": "string",
          "name": "country",
          "type": "string"
        },
        {
          "internalType": "string",
          "name": "issuerType",
          "type": "string"
        },
        {
          "internalType": "string",
          "name": "creditRating",
          "type": "string"
        },
        {
          "internalType": "uint256",
          "name": "carbonCredit",
          "type": "uint256"
        },
        {
          "internalType": "address",
          "name": "walletAddress",
          "type": "address"
        }
      ],
      "stateMutability": "view",
      "type": "function"
    },
    {
      "inputs": [],
      "name": "issuersFundContract",
      "outputs": [
        {
          "internalType": "address",
          "name": "",
          "type": "address"
        }
      ],
      "stateMutability": "view",
      "type": "function"
    },
    {
      "inputs": [],
      "name": "rolesContract",
      "outputs": [
        {
          "internalType": "address",
          "name": "",
          "type": "address"
        }
      ],
      "stateMutability": "view",
      "type": "function"
    },
    {
      "inputs": [],
      "name": "toposManager",
      "outputs": [
        {
          "internalType": "address",
          "name": "",
          "type": "address"
        }
      ],
      "stateMutability": "view",
      "type": "function"
    },
    {
      "inputs": [
        {
          "internalType": "string",
          "name": "",
          "type": "string"
        }
      ],
      "name": "totalAmountInvestedForDeal",
      "outputs": [
        {
          "internalType": "uint256",
          "name": "",
          "type": "uint256"
        }
      ],
      "stateMutability": "view",
      "type": "function"
    },
    {
      "inputs": [
        {
          "components": [
            {
              "internalType": "string",
              "name": "documentURI",
              "type": "string"
            },
            {
              "internalType": "string",
              "name": "name",
              "type": "string"
            },
            {
              "internalType": "string",
              "name": "country",
              "type": "string"
            },
            {
              "internalType": "string",
              "name": "issuerType",
              "type": "string"
            },
            {
              "internalType": "string",
              "name": "creditRating",
              "type": "string"
            },
            {
              "internalType": "uint256",
              "name": "carbonCredit",
              "type": "uint256"
            },
            {
              "internalType": "address",
              "name": "walletAddress",
              "type": "address"
            }
          ],
          "internalType": "struct BondData.Issuer",
          "name": "_issuer",
          "type": "tuple"
        }
      ],
      "name": "requestRegistrationIssuer",
      "outputs": [],
      "stateMutability": "nonpayable",
      "type": "function"
    },
    {
      "inputs": [
        {
          "components": [
            {
              "internalType": "string",
              "name": "name",
              "type": "string"
            },
            {
              "internalType": "string",
              "name": "country",
              "type": "string"
            },
            {
              "internalType": "string",
              "name": "investorType",
              "type": "string"
            },
            {
              "internalType": "address",
              "name": "walletAddress",
              "type": "address"
            }
          ],
          "internalType": "struct BondData.Investor",
          "name": "_investor",
          "type": "tuple"
        }
      ],
      "name": "requestRegistrationInvestor",
      "outputs": [],
      "stateMutability": "nonpayable",
      "type": "function"
    },
    {
      "inputs": [
        {
          "internalType": "address",
          "name": "_issuer",
          "type": "address"
        }
      ],
      "name": "approveIssuer",
      "outputs": [],
      "stateMutability": "nonpayable",
      "type": "function"
    },
    {
      "inputs": [
        {
          "internalType": "address",
          "name": "_investor",
          "type": "address"
        }
      ],
      "name": "approveInvestor",
      "outputs": [],
      "stateMutability": "nonpayable",
      "type": "function"
    },
    {
      "inputs": [
        {
          "internalType": "address",
          "name": "_issuer",
          "type": "address"
        }
      ],
      "name": "rejectIssuer",
      "outputs": [],
      "stateMutability": "nonpayable",
      "type": "function"
    },
    {
      "inputs": [
        {
          "internalType": "address",
          "name": "_investor",
          "type": "address"
        }
      ],
      "name": "rejectInvestor",
      "outputs": [],
      "stateMutability": "nonpayable",
      "type": "function"
    },
    {
      "inputs": [
        {
          "internalType": "string",
          "name": "_dealID",
          "type": "string"
        },
        {
          "components": [
            {
              "internalType": "string",
              "name": "dealID",
              "type": "string"
            },
            {
              "internalType": "string",
              "name": "prospectusURI",
              "type": "string"
            },
            {
              "internalType": "address",
              "name": "issuerAddress",
              "type": "address"
            },
            {
              "internalType": "uint256",
              "name": "debtAmount",
              "type": "uint256"
            },
            {
              "internalType": "uint256",
              "name": "couponRate",
              "type": "uint256"
            },
            {
              "internalType": "uint256",
              "name": "couponFrequency",
              "type": "uint256"
            },
            {
              "internalType": "uint256",
              "name": "maturityDate",
              "type": "uint256"
            },
            {
              "internalType": "uint256",
              "name": "index",
              "type": "uint256"
            },
            {
              "internalType": "address",
              "name": "currency",
              "type": "address"
            },
            {
              "internalType": "uint8",
              "name": "couponType",
              "type": "uint8"
            },
            {
              "internalType": "enum BondData.DealStatus",
              "name": "status",
              "type": "uint8"
            }
          ],
          "internalType": "struct BondData.Deal",
          "name": "_deal",
          "type": "tuple"
        }
      ],
      "name": "submitDeal",
      "outputs": [],
      "stateMutability": "nonpayable",
      "type": "function"
    },
    {
      "inputs": [
        {
          "internalType": "string",
          "name": "_dealID",
          "type": "string"
        }
      ],
      "name": "approveDeal",
      "outputs": [],
      "stateMutability": "nonpayable",
      "type": "function"
    },
    {
      "inputs": [
        {
          "internalType": "string",
          "name": "_dealID",
          "type": "string"
        }
      ],
      "name": "rejectDeal",
      "outputs": [],
      "stateMutability": "nonpayable",
      "type": "function"
    },
    {
      "inputs": [
        {
          "internalType": "string",
          "name": "_dealID",
          "type": "string"
        },
        {
          "internalType": "uint256",
          "name": "_amount",
          "type": "uint256"
        }
      ],
      "name": "registerForDeal",
      "outputs": [],
      "stateMutability": "nonpayable",
      "type": "function"
    },
    {
      "inputs": [
        {
          "internalType": "string",
          "name": "_dealID",
          "type": "string"
        },
        {
          "components": [
            {
              "internalType": "string",
              "name": "isin",
              "type": "string"
            },
            {
              "internalType": "string",
              "name": "name",
              "type": "string"
            },
            {
              "internalType": "string",
              "name": "symbol",
              "type": "string"
            },
            {
              "internalType": "address",
              "name": "currency",
              "type": "address"
            },
            {
              "internalType": "uint256",
              "name": "denomination",
              "type": "uint256"
            },
            {
              "internalType": "uint256",
              "name": "issueVolume",
              "type": "uint256"
            },
            {
              "internalType": "uint256",
              "name": "couponRate",
              "type": "uint256"
            },
            {
              "internalType": "uint8",
              "name": "couponType",
              "type": "uint8"
            },
            {
              "internalType": "uint256",
              "name": "couponFrequency",
              "type": "uint256"
            },
            {
              "internalType": "uint256",
              "name": "issueDate",
              "type": "uint256"
            },
            {
              "internalType": "uint256",
              "name": "maturityDate",
              "type": "uint256"
            }
          ],
          "internalType": "struct BondData.Bond",
          "name": "_bond",
          "type": "tuple"
        },
        {
          "internalType": "address",
          "name": "_bondContract",
          "type": "address"
        }
      ],
      "name": "issue",
      "outputs": [],
      "stateMutability": "nonpayable",
      "type": "function"
    },
    {
      "inputs": [
        {
          "internalType": "string",
          "name": "_dealID",
          "type": "string"
        },
        {
          "internalType": "address",
          "name": "_bondContract",
          "type": "address"
        }
      ],
      "name": "redeem",
      "outputs": [],
      "stateMutability": "nonpayable",
      "type": "function"
    },
    {
      "inputs": [
        {
          "internalType": "string",
          "name": "_dealID",
          "type": "string"
        }
      ],
      "name": "getTotalAmounInvested",
      "outputs": [
        {
          "internalType": "uint256",
          "name": "",
          "type": "uint256"
        }
      ],
      "stateMutability": "view",
      "type": "function"
    },
    {
      "inputs": [
        {
          "internalType": "string",
          "name": "_dealID",
          "type": "string"
        }
      ],
      "name": "getDealInvestment",
      "outputs": [
        {
          "components": [
            {
              "internalType": "address",
              "name": "investor",
              "type": "address"
            },
            {
              "internalType": "uint256",
              "name": "amount",
              "type": "uint256"
            }
          ],
          "internalType": "struct BondData.DealInvestment[]",
          "name": "",
          "type": "tuple[]"
        }
      ],
      "stateMutability": "view",
      "type": "function"
    },
    {
      "inputs": [
        {
          "internalType": "address",
          "name": "_issuerFundContract",
          "type": "address"
        }
      ],
      "name": "setIssuerFundContract",
      "outputs": [],
      "stateMutability": "nonpayable",
      "type": "function"
    }
  ],
  "bytecode": "0x60806040523480156200001157600080fd5b50604051620062a7380380620062a78339818101604052810190620000379190620001dc565b82600a60006101000a81548173ffffffffffffffffffffffffffffffffffffffff021916908373ffffffffffffffffffffffffffffffffffffffff16021790555081600b60006101000a81548173ffffffffffffffffffffffffffffffffffffffff021916908373ffffffffffffffffffffffffffffffffffffffff1602179055508173ffffffffffffffffffffffffffffffffffffffff1663cfde1890846040518263ffffffff1660e01b8152600401620000f49190620002aa565b600060405180830381600087803b1580156200010f57600080fd5b505af115801562000124573d6000803e3d6000fd5b5050505080600c60006101000a81548173ffffffffffffffffffffffffffffffffffffffff021916908373ffffffffffffffffffffffffffffffffffffffff160217905550505050620002dc565b600080fd5b600073ffffffffffffffffffffffffffffffffffffffff82169050919050565b6000620001a48262000177565b9050919050565b620001b68162000197565b8114620001c257600080fd5b50565b600081519050620001d681620001ab565b92915050565b600080600060608486031215620001f857620001f762000172565b5b60006200020886828701620001c5565b93505060206200021b86828701620001c5565b92505060406200022e86828701620001c5565b9150509250925092565b600082825260208201905092915050565b7f4d414e4147455200000000000000000000000000000000000000000000000000600082015250565b60006200028160078362000238565b91506200028e8262000249565b602082019050919050565b620002a48162000197565b82525050565b60006040820190508181036000830152620002c58162000272565b9050620002d6602083018462000299565b92915050565b615fbb80620002ec6000396000f3fe608060405234801561001057600080fd5b50600436106101cf5760003560e01c80637bafe3d011610104578063ca53b391116100a2578063f936d49d11610071578063f936d49d1461056a578063fb90e4411461059a578063fcbb3c18146105b8578063fe0ab4b3146105e8576101cf565b8063ca53b391146104f8578063d304a81314610516578063d31628a014610532578063d7c4029c1461054e576101cf565b806382deb86e116100de57806382deb86e14610456578063a0a57dac14610472578063c88efe65146104ac578063c8d7f62e146104c8576101cf565b80637bafe3d0146104005780637de141291461041c5780637f31ed7314610438576101cf565b8063499fa18a116101715780635ed7e2c11161014b5780635ed7e2c114610351578063605936ea146103815780636f7bc9be146103b1578063754f399a146103e4576101cf565b8063499fa18a146102ca57806349f5d1d9146102fb578063507251cb14610335576101cf565b806323c8d706116101ad57806323c8d7061461024057806338a7543e1461025c5780633dc349be1461029257806348f92ee8146102ae576101cf565b8063041e9b89146101d4578063088674e0146102065780630df8bfda14610224575b600080fd5b6101ee60048036038101906101e99190613de1565b610618565b6040516101fd93929190613e71565b60405180910390f35b61020e610672565b60405161021b9190613eb7565b60405180910390f35b61023e60048036038101906102399190613f5e565b610698565b005b61025a60048036038101906102559190613fe3565b610e58565b005b6102766004803603810190610271919061405f565b611315565b604051610289979695949392919061410b565b60405180910390f35b6102ac60048036038101906102a791906141bc565b61161f565b005b6102c860048036038101906102c39190614205565b611956565b005b6102e460048036038101906102df9190614252565b611b77565b6040516102f29291906142ae565b60405180910390f35b610315600480360381019061031091906142d7565b611bee565b60405161032c9b9a999897969594939291906143aa565b60405180910390f35b61034f600480360381019061034a9190614483565b611dcf565b005b61036b60048036038101906103669190614513565b612368565b604051610378919061455c565b60405180910390f35b61039b60048036038101906103969190614205565b612396565b6040516103a8919061455c565b60405180910390f35b6103cb60048036038101906103c6919061405f565b6123c1565b6040516103db9493929190614577565b60405180910390f35b6103fe60048036038101906103f99190614205565b6125a9565b005b61041a6004803603810190610415919061405f565b6127ca565b005b6104366004803603810190610431919061405f565b61290d565b005b610440612b7f565b60405161044d9190613eb7565b60405180910390f35b610470600480360381019061046b919061405f565b612ba5565b005b61048c60048036038101906104879190614513565b612e17565b6040516104a39b9a999897969594939291906143aa565b60405180910390f35b6104c660048036038101906104c1919061405f565b612ff1565b005b6104e260048036038101906104dd9190614205565b6131d6565b6040516104ef91906146cd565b60405180910390f35b6105006132b6565b60405161050d9190613eb7565b60405180910390f35b610530600480360381019061052b919061405f565b6132dc565b005b61054c6004803603810190610547919061470e565b6134c1565b005b61056860048036038101906105639190614757565b6137f8565b005b610584600480360381019061057f919061405f565b613b7a565b60405161059191906147ff565b60405180910390f35b6105a2613b9a565b6040516105af9190613eb7565b60405180910390f35b6105d260048036038101906105cd919061405f565b613bc0565b6040516105df91906147ff565b60405180910390f35b61060260048036038101906105fd9190614513565b613be0565b60405161060f9190613eb7565b60405180910390f35b600860205281600052604060002081805160208101820180518482526020830160208501208183528095505050505050600091509150508060000154908060010160009054906101000a900460ff16908060020154905083565b600c60009054906101000a900473ffffffffffffffffffffffffffffffffffffffff1681565b33600c60009054906101000a900473ffffffffffffffffffffffffffffffffffffffff1673ffffffffffffffffffffffffffffffffffffffff1663b9209e33826040518263ffffffff1660e01b81526004016106f49190613eb7565b602060405180830381865afa158015610711573d6000803e3d6000fd5b505050506040513d601f19601f820116820180604052508101906107359190614846565b610774576040517f08c379a000000000000000000000000000000000000000000000000000000000815260040161076b906148bf565b60405180910390fd5b60006005858560405161078892919061490f565b9081526020016040518091039020549050600260058111156107ad576107ac614333565b5b600086866040516107bf92919061490f565b908152602001604051809103902060080160159054906101000a900460ff1660058111156107f0576107ef614333565b5b146108345784846040517fb716508400000000000000000000000000000000000000000000000000000000815260040161082b929190614955565b60405180910390fd5b6000831415801561087357506000858560405161085292919061490f565b908152602001604051809103902060030154818461087091906149a8565b11155b6108b2576040517f08c379a00000000000000000000000000000000000000000000000000000000081526004016108a990614a28565b60405180910390fd5b6000600860003373ffffffffffffffffffffffffffffffffffffffff1673ffffffffffffffffffffffffffffffffffffffff168152602001908152602001600020868660405161090392919061490f565b908152602001604051809103902060010160009054906101000a900460ff169050838261093091906149a8565b6005878760405161094292919061490f565b9081526020016040518091039020819055508015610aee576000600860003373ffffffffffffffffffffffffffffffffffffffff1673ffffffffffffffffffffffffffffffffffffffff16815260200190815260200160002087876040516109ab92919061490f565b90815260200160405180910390206002015490506000600860003373ffffffffffffffffffffffffffffffffffffffff1673ffffffffffffffffffffffffffffffffffffffff1681526020019081526020016000208888604051610a1092919061490f565b90815260200160405180910390206000015490508581610a3091906149a8565b60048989604051610a4292919061490f565b90815260200160405180910390208381548110610a6257610a61614a48565b5b9060005260206000209060020201600101819055508581610a8391906149a8565b600860003373ffffffffffffffffffffffffffffffffffffffff1673ffffffffffffffffffffffffffffffffffffffff1681526020019081526020016000208989604051610ad292919061490f565b9081526020016040518091039020600001819055505050610c8b565b604051806060016040528085815260200160011515815260200160048888604051610b1a92919061490f565b908152602001604051809103902080549050815250600860003373ffffffffffffffffffffffffffffffffffffffff1673ffffffffffffffffffffffffffffffffffffffff1681526020019081526020016000208787604051610b7e92919061490f565b90815260200160405180910390206000820151816000015560208201518160010160006101000a81548160ff0219169083151502179055506040820151816002015590505060048686604051610bd592919061490f565b908152602001604051809103902060405180604001604052803373ffffffffffffffffffffffffffffffffffffffff16815260200186815250908060018154018082558091505060019003906000526020600020906002020160009091909190915060008201518160000160006101000a81548173ffffffffffffffffffffffffffffffffffffffff021916908373ffffffffffffffffffffffffffffffffffffffff1602179055506020820151816001015550505b600d60009054906101000a900473ffffffffffffffffffffffffffffffffffffffff1673ffffffffffffffffffffffffffffffffffffffff1663925b7cb68787876040518463ffffffff1660e01b8152600401610cea93929190614a77565b600060405180830381600087803b158015610d0457600080fd5b505af1158015610d18573d6000803e3d6000fd5b5050505060008686604051610d2e92919061490f565b908152602001604051809103902060080160009054906101000a900473ffffffffffffffffffffffffffffffffffffffff1673ffffffffffffffffffffffffffffffffffffffff166323b872dd33600d60009054906101000a900473ffffffffffffffffffffffffffffffffffffffff16670de0b6b3a764000088610db39190614aa9565b6040518463ffffffff1660e01b8152600401610dd193929190614aeb565b6020604051808303816000875af1158015610df0573d6000803e3d6000fd5b505050506040513d601f19601f82011682018060405250810190610e149190614846565b507f0bdaf52b4de514796607307fbbcf007ee6d59e81e1be436b67c5a567a2e8d121868633604051610e4893929190614b22565b60405180910390a1505050505050565b600b60009054906101000a900473ffffffffffffffffffffffffffffffffffffffff1673ffffffffffffffffffffffffffffffffffffffff1663877b9a67336040518263ffffffff1660e01b8152600401610eb39190613eb7565b602060405180830381865afa158015610ed0573d6000803e3d6000fd5b505050506040513d601f19601f82011682018060405250810190610ef49190614846565b610f33576040517f08c379a0000000000000000000000000000000000000000000000000000000008152600401610f2a90614ba0565b60405180910390fd5b806040016020810190610f46919061405f565b73ffffffffffffffffffffffffffffffffffffffff163373ffffffffffffffffffffffffffffffffffffffff1614610fb3576040517f08c379a0000000000000000000000000000000000000000000000000000000008152600401610faa90614c0c565b60405180910390fd5b60006005811115610fc757610fc6614333565b5b60008484604051610fd992919061490f565b908152602001604051809103902060080160159054906101000a900460ff16600581111561100a57611009614333565b5b1461104a576040517f08c379a000000000000000000000000000000000000000000000000000000000815260040161104190614c78565b60405180910390fd5b806000848460405161105d92919061490f565b908152602001604051809103902081816110779190615424565b90505060016000848460405161108e92919061490f565b908152602001604051809103902060080160156101000a81548160ff021916908360058111156110c1576110c0614333565b5b0217905550600f80549050600084846040516110de92919061490f565b908152602001604051809103902060070181905550600f6000848460405161110792919061490f565b90815260200160405180910390209080600181540180825580915050600190039060005260206000209060090201600090919091909150600082018160000190816111529190615448565b50600182018160010190816111679190615448565b506002820160009054906101000a900473ffffffffffffffffffffffffffffffffffffffff168160020160006101000a81548173ffffffffffffffffffffffffffffffffffffffff021916908373ffffffffffffffffffffffffffffffffffffffff16021790555060038201548160030155600482015481600401556005820154816005015560068201548160060155600782015481600701556008820160009054906101000a900473ffffffffffffffffffffffffffffffffffffffff168160080160006101000a81548173ffffffffffffffffffffffffffffffffffffffff021916908373ffffffffffffffffffffffffffffffffffffffff1602179055506008820160149054906101000a900460ff168160080160146101000a81548160ff021916908360ff1602179055506008820160159054906101000a900460ff168160080160156101000a81548160ff021916908360058111156112ce576112cd614333565b5b021790555050507fc32e04bf1356c91e89bdc0de134ba5c3fc8df94d30cea4436e9346bc335199ed838383604051611308939291906157d6565b60405180910390a1505050565b600160205280600052604060002060009150905080600001805461133890614d44565b80601f016020809104026020016040519081016040528092919081815260200182805461136490614d44565b80156113b15780601f10611386576101008083540402835291602001916113b1565b820191906000526020600020905b81548152906001019060200180831161139457829003601f168201915b5050505050908060010180546113c690614d44565b80601f01602080910402602001604051908101604052809291908181526020018280546113f290614d44565b801561143f5780601f106114145761010080835404028352916020019161143f565b820191906000526020600020905b81548152906001019060200180831161142257829003601f168201915b50505050509080600201805461145490614d44565b80601f016020809104026020016040519081016040528092919081815260200182805461148090614d44565b80156114cd5780601f106114a2576101008083540402835291602001916114cd565b820191906000526020600020905b8154815290600101906020018083116114b057829003601f168201915b5050505050908060030180546114e290614d44565b80601f016020809104026020016040519081016040528092919081815260200182805461150e90614d44565b801561155b5780601f106115305761010080835404028352916020019161155b565b820191906000526020600020905b81548152906001019060200180831161153e57829003601f168201915b50505050509080600401805461157090614d44565b80601f016020809104026020016040519081016040528092919081815260200182805461159c90614d44565b80156115e95780601f106115be576101008083540402835291602001916115e9565b820191906000526020600020905b8154815290600101906020018083116115cc57829003601f168201915b5050505050908060050154908060060160009054906101000a900473ffffffffffffffffffffffffffffffffffffffff16905087565b8060c0016020810190611632919061405f565b600c60009054906101000a900473ffffffffffffffffffffffffffffffffffffffff1673ffffffffffffffffffffffffffffffffffffffff1663b9209e33826040518263ffffffff1660e01b815260040161168d9190613eb7565b602060405180830381865afa1580156116aa573d6000803e3d6000fd5b505050506040513d601f19601f820116820180604052508101906116ce9190614846565b61170d576040517f08c379a0000000000000000000000000000000000000000000000000000000008152600401611704906148bf565b60405180910390fd5b8160c0016020810190611720919061405f565b73ffffffffffffffffffffffffffffffffffffffff163373ffffffffffffffffffffffffffffffffffffffff161461178d576040517f08c379a00000000000000000000000000000000000000000000000000000000081526004016117849061585b565b60405180910390fd5b600060038111156117a1576117a0614333565b5b600660003373ffffffffffffffffffffffffffffffffffffffff1673ffffffffffffffffffffffffffffffffffffffff16815260200190815260200160002060009054906101000a900460ff166003811115611800576117ff614333565b5b14611840576040517f08c379a0000000000000000000000000000000000000000000000000000000008152600401611837906158c7565b60405180910390fd5b81600160008460c0016020810190611858919061405f565b73ffffffffffffffffffffffffffffffffffffffff1673ffffffffffffffffffffffffffffffffffffffff168152602001908152602001600020818161189e91906159d2565b9050506001600660003373ffffffffffffffffffffffffffffffffffffffff1673ffffffffffffffffffffffffffffffffffffffff16815260200190815260200160002060006101000a81548160ff0219169083600381111561190457611903614333565b5b02179055507f0a0028275fa37d11ea8d5d29fd14fd8aa6c52af0e0cf819b89ca2cd9193f11858260c001602081019061193d919061405f565b60405161194a9190613eb7565b60405180910390a15050565b600a60009054906101000a900473ffffffffffffffffffffffffffffffffffffffff1673ffffffffffffffffffffffffffffffffffffffff163373ffffffffffffffffffffffffffffffffffffffff16146119e6576040517f08c379a00000000000000000000000000000000000000000000000000000000081526004016119dd90615a2c565b60405180910390fd5b600160058111156119fa576119f9614333565b5b60008383604051611a0c92919061490f565b908152602001604051809103902060080160159054906101000a900460ff166005811115611a3d57611a3c614333565b5b14611a7d576040517f08c379a0000000000000000000000000000000000000000000000000000000008152600401611a7490614c78565b60405180910390fd5b600260008383604051611a9192919061490f565b908152602001604051809103902060080160156101000a81548160ff02191690836005811115611ac457611ac3614333565b5b02179055506002600f60008484604051611adf92919061490f565b90815260200160405180910390206007015481548110611b0257611b01614a48565b5b906000526020600020906009020160080160156101000a81548160ff02191690836005811115611b3557611b34614333565b5b02179055507f039501081328ffe3eb02459ad6f6e90b69e23ba1422b574ee84c1f52b2fc03108282604051611b6b929190614955565b60405180910390a15050565b6004828051602081018201805184825260208301602085012081835280955050505050508181548110611ba957600080fd5b9060005260206000209060020201600091509150508060000160009054906101000a900473ffffffffffffffffffffffffffffffffffffffff16908060010154905082565b60096020528160005260406000208181548110611c0a57600080fd5b906000526020600020906009020160009150915050806000018054611c2e90614d44565b80601f0160208091040260200160405190810160405280929190818152602001828054611c5a90614d44565b8015611ca75780601f10611c7c57610100808354040283529160200191611ca7565b820191906000526020600020905b815481529060010190602001808311611c8a57829003601f168201915b505050505090806001018054611cbc90614d44565b80601f0160208091040260200160405190810160405280929190818152602001828054611ce890614d44565b8015611d355780601f10611d0a57610100808354040283529160200191611d35565b820191906000526020600020905b815481529060010190602001808311611d1857829003601f168201915b5050505050908060020160009054906101000a900473ffffffffffffffffffffffffffffffffffffffff16908060030154908060040154908060050154908060060154908060070154908060080160009054906101000a900473ffffffffffffffffffffffffffffffffffffffff16908060080160149054906101000a900460ff16908060080160159054906101000a900460ff1690508b565b600a60009054906101000a900473ffffffffffffffffffffffffffffffffffffffff1673ffffffffffffffffffffffffffffffffffffffff163373ffffffffffffffffffffffffffffffffffffffff1614611e5f576040517f08c379a0000000000000000000000000000000000000000000000000000000008152600401611e5690615a2c565b60405180910390fd5b60026005811115611e7357611e72614333565b5b60008585604051611e8592919061490f565b908152602001604051809103902060080160159054906101000a900460ff166005811115611eb657611eb5614333565b5b14611efa5783836040517fb7165084000000000000000000000000000000000000000000000000000000008152600401611ef1929190614955565b60405180910390fd5b8060038585604051611f0d92919061490f565b908152602001604051809103902060006101000a81548173ffffffffffffffffffffffffffffffffffffffff021916908373ffffffffffffffffffffffffffffffffffffffff16021790555060046005811115611f6d57611f6c614333565b5b60008585604051611f7f92919061490f565b908152602001604051809103902060080160159054906101000a900460ff166005811115611fb057611faf614333565b5b50506004600f60008686604051611fc892919061490f565b90815260200160405180910390206007015481548110611feb57611fea614a48565b5b906000526020600020906009020160080160156101000a81548160ff0219169083600581111561201e5761201d614333565b5b02179055506009600080868660405161203892919061490f565b908152602001604051809103902060020160009054906101000a900473ffffffffffffffffffffffffffffffffffffffff1673ffffffffffffffffffffffffffffffffffffffff1673ffffffffffffffffffffffffffffffffffffffff168152602001908152602001600020600085856040516120b692919061490f565b90815260200160405180910390209080600181540180825580915050600190039060005260206000209060090201600090919091909150600082018160000190816121019190615448565b50600182018160010190816121169190615448565b506002820160009054906101000a900473ffffffffffffffffffffffffffffffffffffffff168160020160006101000a81548173ffffffffffffffffffffffffffffffffffffffff021916908373ffffffffffffffffffffffffffffffffffffffff16021790555060038201548160030155600482015481600401556005820154816005015560068201548160060155600782015481600701556008820160009054906101000a900473ffffffffffffffffffffffffffffffffffffffff168160080160006101000a81548173ffffffffffffffffffffffffffffffffffffffff021916908373ffffffffffffffffffffffffffffffffffffffff1602179055506008820160149054906101000a900460ff168160080160146101000a81548160ff021916908360ff1602179055506008820160159054906101000a900460ff168160080160156101000a81548160ff0219169083600581111561227d5761227c614333565b5b021790555050508073ffffffffffffffffffffffffffffffffffffffff1663d76805aa836040518263ffffffff1660e01b81526004016122bd9190615ba7565b600060405180830381600087803b1580156122d757600080fd5b505af11580156122eb573d6000803e3d6000fd5b50505050600e8290806001815401808255809150506001900390600052602060002090600b020160009091909190915081816123279190615d81565b50507f44b55c2d9270546faf6ff2f0acac078011883b82782d9b08de2d3af4543c2b18848460405161235a929190614955565b60405180910390a150505050565b6005818051602081018201805184825260208301602085012081835280955050505050506000915090505481565b6000600583836040516123aa92919061490f565b908152602001604051809103902054905092915050565b60026020528060005260406000206000915090508060000180546123e490614d44565b80601f016020809104026020016040519081016040528092919081815260200182805461241090614d44565b801561245d5780601f106124325761010080835404028352916020019161245d565b820191906000526020600020905b81548152906001019060200180831161244057829003601f168201915b50505050509080600101805461247290614d44565b80601f016020809104026020016040519081016040528092919081815260200182805461249e90614d44565b80156124eb5780601f106124c0576101008083540402835291602001916124eb565b820191906000526020600020905b8154815290600101906020018083116124ce57829003601f168201915b50505050509080600201805461250090614d44565b80601f016020809104026020016040519081016040528092919081815260200182805461252c90614d44565b80156125795780601f1061254e57610100808354040283529160200191612579565b820191906000526020600020905b81548152906001019060200180831161255c57829003601f168201915b5050505050908060030160009054906101000a900473ffffffffffffffffffffffffffffffffffffffff16905084565b600a60009054906101000a900473ffffffffffffffffffffffffffffffffffffffff1673ffffffffffffffffffffffffffffffffffffffff163373ffffffffffffffffffffffffffffffffffffffff1614612639576040517f08c379a000000000000000000000000000000000000000000000000000000000815260040161263090615a2c565b60405180910390fd5b6001600581111561264d5761264c614333565b5b6000838360405161265f92919061490f565b908152602001604051809103902060080160159054906101000a900460ff1660058111156126905761268f614333565b5b146126d0576040517f08c379a00000000000000000000000000000000000000000000000000000000081526004016126c790614c78565b60405180910390fd5b6003600083836040516126e492919061490f565b908152602001604051809103902060080160156101000a81548160ff0219169083600581111561271757612716614333565b5b02179055506003600f6000848460405161273292919061490f565b9081526020016040518091039020600701548154811061275557612754614a48565b5b906000526020600020906009020160080160156101000a81548160ff0219169083600581111561278857612787614333565b5b02179055507f735ccdd611541d36c82a3622baab7f58b8a0f5be664555b0d9c95ddde16096d382826040516127be929190614955565b60405180910390a15050565b600a60009054906101000a900473ffffffffffffffffffffffffffffffffffffffff1673ffffffffffffffffffffffffffffffffffffffff163373ffffffffffffffffffffffffffffffffffffffff161461285a576040517f08c379a000000000000000000000000000000000000000000000000000000000815260040161285190615a2c565b60405180910390fd5b600073ffffffffffffffffffffffffffffffffffffffff168173ffffffffffffffffffffffffffffffffffffffff16036128c9576040517f08c379a00000000000000000000000000000000000000000000000000000000081526004016128c090615ddb565b60405180910390fd5b80600d60006101000a81548173ffffffffffffffffffffffffffffffffffffffff021916908373ffffffffffffffffffffffffffffffffffffffff16021790555050565b600a60009054906101000a900473ffffffffffffffffffffffffffffffffffffffff1673ffffffffffffffffffffffffffffffffffffffff163373ffffffffffffffffffffffffffffffffffffffff161461299d576040517f08c379a000000000000000000000000000000000000000000000000000000000815260040161299490615a2c565b60405180910390fd5b600160038111156129b1576129b0614333565b5b600760008373ffffffffffffffffffffffffffffffffffffffff1673ffffffffffffffffffffffffffffffffffffffff16815260200190815260200160002060009054906101000a900460ff166003811115612a1057612a0f614333565b5b14612a50576040517f08c379a0000000000000000000000000000000000000000000000000000000008152600401612a47906158c7565b60405180910390fd5b6002600760008373ffffffffffffffffffffffffffffffffffffffff1673ffffffffffffffffffffffffffffffffffffffff16815260200190815260200160002060006101000a81548160ff02191690836003811115612ab357612ab2614333565b5b0217905550600b60009054906101000a900473ffffffffffffffffffffffffffffffffffffffff1673ffffffffffffffffffffffffffffffffffffffff1663cfde1890826040518263ffffffff1660e01b8152600401612b139190615e47565b600060405180830381600087803b158015612b2d57600080fd5b505af1158015612b41573d6000803e3d6000fd5b505050507f45b6e306480b490c59801f6f851ed6d7d4bd880db4c8f75dd1112d2fc0a1c9d781604051612b749190613eb7565b60405180910390a150565b600a60009054906101000a900473ffffffffffffffffffffffffffffffffffffffff1681565b600a60009054906101000a900473ffffffffffffffffffffffffffffffffffffffff1673ffffffffffffffffffffffffffffffffffffffff163373ffffffffffffffffffffffffffffffffffffffff1614612c35576040517f08c379a0000000000000000000000000000000000000000000000000000000008152600401612c2c90615a2c565b60405180910390fd5b60016003811115612c4957612c48614333565b5b600660008373ffffffffffffffffffffffffffffffffffffffff1673ffffffffffffffffffffffffffffffffffffffff16815260200190815260200160002060009054906101000a900460ff166003811115612ca857612ca7614333565b5b14612ce8576040517f08c379a0000000000000000000000000000000000000000000000000000000008152600401612cdf906158c7565b60405180910390fd5b6002600660008373ffffffffffffffffffffffffffffffffffffffff1673ffffffffffffffffffffffffffffffffffffffff16815260200190815260200160002060006101000a81548160ff02191690836003811115612d4b57612d4a614333565b5b0217905550600b60009054906101000a900473ffffffffffffffffffffffffffffffffffffffff1673ffffffffffffffffffffffffffffffffffffffff1663cfde1890826040518263ffffffff1660e01b8152600401612dab9190615ec1565b600060405180830381600087803b158015612dc557600080fd5b505af1158015612dd9573d6000803e3d6000fd5b505050507f0e387c88130575bf91cadf15934854a1ed11d5c16d63f1106b6fd6e139d1202e81604051612e0c9190613eb7565b60405180910390a150565b600081805160208101820180518482526020830160208501208183528095505050505050600091509050806000018054612e5090614d44565b80601f0160208091040260200160405190810160405280929190818152602001828054612e7c90614d44565b8015612ec95780601f10612e9e57610100808354040283529160200191612ec9565b820191906000526020600020905b815481529060010190602001808311612eac57829003601f168201915b505050505090806001018054612ede90614d44565b80601f0160208091040260200160405190810160405280929190818152602001828054612f0a90614d44565b8015612f575780601f10612f2c57610100808354040283529160200191612f57565b820191906000526020600020905b815481529060010190602001808311612f3a57829003601f168201915b5050505050908060020160009054906101000a900473ffffffffffffffffffffffffffffffffffffffff16908060030154908060040154908060050154908060060154908060070154908060080160009054906101000a900473ffffffffffffffffffffffffffffffffffffffff16908060080160149054906101000a900460ff16908060080160159054906101000a900460ff1690508b565b600a60009054906101000a900473ffffffffffffffffffffffffffffffffffffffff1673ffffffffffffffffffffffffffffffffffffffff163373ffffffffffffffffffffffffffffffffffffffff1614613081576040517f08c379a000000000000000000000000000000000000000000000000000000000815260040161307890615a2c565b60405180910390fd5b6001600381111561309557613094614333565b5b600660008373ffffffffffffffffffffffffffffffffffffffff1673ffffffffffffffffffffffffffffffffffffffff16815260200190815260200160002060009054906101000a900460ff1660038111156130f4576130f3614333565b5b14613134576040517f08c379a000000000000000000000000000000000000000000000000000000000815260040161312b906158c7565b60405180910390fd5b6003600660008373ffffffffffffffffffffffffffffffffffffffff1673ffffffffffffffffffffffffffffffffffffffff16815260200190815260200160002060006101000a81548160ff0219169083600381111561319757613196614333565b5b02179055507fe341ab2ef130ae159f5f54c8be96a79ffe8f98948aa6d0e1bdeb60e6201ada2a816040516131cb9190613eb7565b60405180910390a150565b6060600483836040516131ea92919061490f565b9081526020016040518091039020805480602002602001604051908101604052809291908181526020016000905b828210156132aa57838290600052602060002090600202016040518060400160405290816000820160009054906101000a900473ffffffffffffffffffffffffffffffffffffffff1673ffffffffffffffffffffffffffffffffffffffff1673ffffffffffffffffffffffffffffffffffffffff16815260200160018201548152505081526020019060010190613218565b50505050905092915050565b600b60009054906101000a900473ffffffffffffffffffffffffffffffffffffffff1681565b600a60009054906101000a900473ffffffffffffffffffffffffffffffffffffffff1673ffffffffffffffffffffffffffffffffffffffff163373ffffffffffffffffffffffffffffffffffffffff161461336c576040517f08c379a000000000000000000000000000000000000000000000000000000000815260040161336390615a2c565b60405180910390fd5b600160038111156133805761337f614333565b5b600760008373ffffffffffffffffffffffffffffffffffffffff1673ffffffffffffffffffffffffffffffffffffffff16815260200190815260200160002060009054906101000a900460ff1660038111156133df576133de614333565b5b1461341f576040517f08c379a0000000000000000000000000000000000000000000000000000000008152600401613416906158c7565b60405180910390fd5b6003600760008373ffffffffffffffffffffffffffffffffffffffff1673ffffffffffffffffffffffffffffffffffffffff16815260200190815260200160002060006101000a81548160ff0219169083600381111561348257613481614333565b5b02179055507f7456ce1c99ee8a1b09f67c52be737a92db545ec137e72de0e1b70bc0c4a12809816040516134b69190613eb7565b60405180910390a150565b8060600160208101906134d4919061405f565b600c60009054906101000a900473ffffffffffffffffffffffffffffffffffffffff1673ffffffffffffffffffffffffffffffffffffffff1663b9209e33826040518263ffffffff1660e01b815260040161352f9190613eb7565b602060405180830381865afa15801561354c573d6000803e3d6000fd5b505050506040513d601f19601f820116820180604052508101906135709190614846565b6135af576040517f08c379a00000000000000000000000000000000000000000000000000000000081526004016135a6906148bf565b60405180910390fd5b8160600160208101906135c2919061405f565b73ffffffffffffffffffffffffffffffffffffffff163373ffffffffffffffffffffffffffffffffffffffff161461362f576040517f08c379a00000000000000000000000000000000000000000000000000000000081526004016136269061585b565b60405180910390fd5b6000600381111561364357613642614333565b5b600760003373ffffffffffffffffffffffffffffffffffffffff1673ffffffffffffffffffffffffffffffffffffffff16815260200190815260200160002060009054906101000a900460ff1660038111156136a2576136a1614333565b5b146136e2576040517f08c379a00000000000000000000000000000000000000000000000000000000081526004016136d9906158c7565b60405180910390fd5b81600260008460600160208101906136fa919061405f565b73ffffffffffffffffffffffffffffffffffffffff1673ffffffffffffffffffffffffffffffffffffffff16815260200190815260200160002081816137409190615f77565b9050506001600760003373ffffffffffffffffffffffffffffffffffffffff1673ffffffffffffffffffffffffffffffffffffffff16815260200190815260200160002060006101000a81548160ff021916908360038111156137a6576137a5614333565b5b02179055507fe42136ccc1d423b080e7fa005aa542f4bc344c1e5420e3c313fbe9ce0077ad548260600160208101906137df919061405f565b6040516137ec9190613eb7565b60405180910390a15050565b600a60009054906101000a900473ffffffffffffffffffffffffffffffffffffffff1673ffffffffffffffffffffffffffffffffffffffff163373ffffffffffffffffffffffffffffffffffffffff1614613888576040517f08c379a000000000000000000000000000000000000000000000000000000000815260040161387f90615a2c565b60405180910390fd5b6004600581111561389c5761389b614333565b5b600084846040516138ae92919061490f565b908152602001604051809103902060080160159054906101000a900460ff1660058111156138df576138de614333565b5b146139235782826040517fb716508400000000000000000000000000000000000000000000000000000000815260040161391a929190614955565b60405180910390fd5b60058081111561393657613935614333565b5b6000848460405161394892919061490f565b908152602001604051809103902060080160159054906101000a900460ff16600581111561397957613978614333565b5b50506005600f6000858560405161399192919061490f565b908152602001604051809103902060070154815481106139b4576139b3614a48565b5b906000526020600020906009020160080160156101000a81548160ff021916908360058111156139e7576139e6614333565b5b0217905550600560096000808686604051613a0392919061490f565b908152602001604051809103902060020160009054906101000a900473ffffffffffffffffffffffffffffffffffffffff1673ffffffffffffffffffffffffffffffffffffffff1673ffffffffffffffffffffffffffffffffffffffff16815260200190815260200160002060008585604051613a8192919061490f565b90815260200160405180910390206007015481548110613aa457613aa3614a48565b5b906000526020600020906009020160080160156101000a81548160ff02191690836005811115613ad757613ad6614333565b5b02179055508073ffffffffffffffffffffffffffffffffffffffff1663be040fb06040518163ffffffff1660e01b8152600401600060405180830381600087803b158015613b2457600080fd5b505af1158015613b38573d6000803e3d6000fd5b505050507fdfdf42ff0d0eb3e6ec5b40d8cf21fb2f7102b67e5e2d56ab36e817f807213c5b8383604051613b6d929190614955565b60405180910390a1505050565b60076020528060005260406000206000915054906101000a900460ff1681565b600d60009054906101000a900473ffffffffffffffffffffffffffffffffffffffff1681565b60066020528060005260406000206000915054906101000a900460ff1681565b6003818051602081018201805184825260208301602085012081835280955050505050506000915054906101000a900473ffffffffffffffffffffffffffffffffffffffff1681565b6000604051905090565b600080fd5b600080fd5b600073ffffffffffffffffffffffffffffffffffffffff82169050919050565b6000613c6882613c3d565b9050919050565b613c7881613c5d565b8114613c8357600080fd5b50565b600081359050613c9581613c6f565b92915050565b600080fd5b600080fd5b6000601f19601f8301169050919050565b7f4e487b7100000000000000000000000000000000000000000000000000000000600052604160045260246000fd5b613cee82613ca5565b810181811067ffffffffffffffff82111715613d0d57613d0c613cb6565b5b80604052505050565b6000613d20613c29565b9050613d2c8282613ce5565b919050565b600067ffffffffffffffff821115613d4c57613d4b613cb6565b5b613d5582613ca5565b9050602081019050919050565b82818337600083830152505050565b6000613d84613d7f84613d31565b613d16565b905082815260208101848484011115613da057613d9f613ca0565b5b613dab848285613d62565b509392505050565b600082601f830112613dc857613dc7613c9b565b5b8135613dd8848260208601613d71565b91505092915050565b60008060408385031215613df857613df7613c33565b5b6000613e0685828601613c86565b925050602083013567ffffffffffffffff811115613e2757613e26613c38565b5b613e3385828601613db3565b9150509250929050565b6000819050919050565b613e5081613e3d565b82525050565b60008115159050919050565b613e6b81613e56565b82525050565b6000606082019050613e866000830186613e47565b613e936020830185613e62565b613ea06040830184613e47565b949350505050565b613eb181613c5d565b82525050565b6000602082019050613ecc6000830184613ea8565b92915050565b600080fd5b600080fd5b60008083601f840112613ef257613ef1613c9b565b5b8235905067ffffffffffffffff811115613f0f57613f0e613ed2565b5b602083019150836001820283011115613f2b57613f2a613ed7565b5b9250929050565b613f3b81613e3d565b8114613f4657600080fd5b50565b600081359050613f5881613f32565b92915050565b600080600060408486031215613f7757613f76613c33565b5b600084013567ffffffffffffffff811115613f9557613f94613c38565b5b613fa186828701613edc565b93509350506020613fb486828701613f49565b9150509250925092565b600080fd5b60006101608284031215613fda57613fd9613fbe565b5b81905092915050565b600080600060408486031215613ffc57613ffb613c33565b5b600084013567ffffffffffffffff81111561401a57614019613c38565b5b61402686828701613edc565b9350935050602084013567ffffffffffffffff81111561404957614048613c38565b5b61405586828701613fc3565b9150509250925092565b60006020828403121561407557614074613c33565b5b600061408384828501613c86565b91505092915050565b600081519050919050565b600082825260208201905092915050565b60005b838110156140c65780820151818401526020810190506140ab565b60008484015250505050565b60006140dd8261408c565b6140e78185614097565b93506140f78185602086016140a8565b61410081613ca5565b840191505092915050565b600060e0820190508181036000830152614125818a6140d2565b9050818103602083015261413981896140d2565b9050818103604083015261414d81886140d2565b9050818103606083015261416181876140d2565b9050818103608083015261417581866140d2565b905061418460a0830185613e47565b61419160c0830184613ea8565b98975050505050505050565b600060e082840312156141b3576141b2613fbe565b5b81905092915050565b6000602082840312156141d2576141d1613c33565b5b600082013567ffffffffffffffff8111156141f0576141ef613c38565b5b6141fc8482850161419d565b91505092915050565b6000806020838503121561421c5761421b613c33565b5b600083013567ffffffffffffffff81111561423a57614239613c38565b5b61424685828601613edc565b92509250509250929050565b6000806040838503121561426957614268613c33565b5b600083013567ffffffffffffffff81111561428757614286613c38565b5b61429385828601613db3565b92505060206142a485828601613f49565b9150509250929050565b60006040820190506142c36000830185613ea8565b6142d06020830184613e47565b9392505050565b600080604083850312156142ee576142ed613c33565b5b60006142fc85828601613c86565b925050602061430d85828601613f49565b9150509250929050565b600060ff82169050919050565b61432d81614317565b82525050565b7f4e487b7100000000000000000000000000000000000000000000000000000000600052602160045260246000fd5b6006811061437357614372614333565b5b50565b600081905061438482614362565b919050565b600061439482614376565b9050919050565b6143a481614389565b82525050565b60006101608201905081810360008301526143c5818e6140d2565b905081810360208301526143d9818d6140d2565b90506143e8604083018c613ea8565b6143f5606083018b613e47565b614402608083018a613e47565b61440f60a0830189613e47565b61441c60c0830188613e47565b61442960e0830187613e47565b614437610100830186613ea8565b614445610120830185614324565b61445361014083018461439b565b9c9b505050505050505050505050565b6000610160828403121561447a57614479613fbe565b5b81905092915050565b6000806000806060858703121561449d5761449c613c33565b5b600085013567ffffffffffffffff8111156144bb576144ba613c38565b5b6144c787828801613edc565b9450945050602085013567ffffffffffffffff8111156144ea576144e9613c38565b5b6144f687828801614463565b925050604061450787828801613c86565b91505092959194509250565b60006020828403121561452957614528613c33565b5b600082013567ffffffffffffffff81111561454757614546613c38565b5b61455384828501613db3565b91505092915050565b60006020820190506145716000830184613e47565b92915050565b6000608082019050818103600083015261459181876140d2565b905081810360208301526145a581866140d2565b905081810360408301526145b981856140d2565b90506145c86060830184613ea8565b95945050505050565b600081519050919050565b600082825260208201905092915050565b6000819050602082019050919050565b61460681613c5d565b82525050565b61461581613e3d565b82525050565b60408201600082015161463160008501826145fd565b506020820151614644602085018261460c565b50505050565b6000614656838361461b565b60408301905092915050565b6000602082019050919050565b600061467a826145d1565b61468481856145dc565b935061468f836145ed565b8060005b838110156146c05781516146a7888261464a565b97506146b283614662565b925050600181019050614693565b5085935050505092915050565b600060208201905081810360008301526146e7818461466f565b905092915050565b60006080828403121561470557614704613fbe565b5b81905092915050565b60006020828403121561472457614723613c33565b5b600082013567ffffffffffffffff81111561474257614741613c38565b5b61474e848285016146ef565b91505092915050565b6000806000604084860312156147705761476f613c33565b5b600084013567ffffffffffffffff81111561478e5761478d613c38565b5b61479a86828701613edc565b935093505060206147ad86828701613c86565b9150509250925092565b600481106147c8576147c7614333565b5b50565b60008190506147d9826147b7565b919050565b60006147e9826147cb565b9050919050565b6147f9816147de565b82525050565b600060208201905061481460008301846147f0565b92915050565b61482381613e56565b811461482e57600080fd5b50565b6000815190506148408161481a565b92915050565b60006020828403121561485c5761485b613c33565b5b600061486a84828501614831565b91505092915050565b7f4143434f554e545f4e4f545f414150524f564544000000000000000000000000600082015250565b60006148a9601483614097565b91506148b482614873565b602082019050919050565b600060208201905081810360008301526148d88161489c565b9050919050565b600081905092915050565b60006148f683856148df565b9350614903838584613d62565b82840190509392505050565b600061491c8284866148ea565b91508190509392505050565b60006149348385614097565b9350614941838584613d62565b61494a83613ca5565b840190509392505050565b60006020820190508181036000830152614970818486614928565b90509392505050565b7f4e487b7100000000000000000000000000000000000000000000000000000000600052601160045260246000fd5b60006149b382613e3d565b91506149be83613e3d565b92508282019050808211156149d6576149d5614979565b5b92915050565b7f494e56414c49445f414d4f554e54000000000000000000000000000000000000600082015250565b6000614a12600e83614097565b9150614a1d826149dc565b602082019050919050565b60006020820190508181036000830152614a4181614a05565b9050919050565b7f4e487b7100000000000000000000000000000000000000000000000000000000600052603260045260246000fd5b60006040820190508181036000830152614a92818587614928565b9050614aa16020830184613e47565b949350505050565b6000614ab482613e3d565b9150614abf83613e3d565b9250828202614acd81613e3d565b91508282048414831517614ae457614ae3614979565b5b5092915050565b6000606082019050614b006000830186613ea8565b614b0d6020830185613ea8565b614b1a6040830184613e47565b949350505050565b60006040820190508181036000830152614b3d818587614928565b9050614b4c6020830184613ea8565b949350505050565b7f4f4e4c595f495353554552530000000000000000000000000000000000000000600082015250565b6000614b8a600c83614097565b9150614b9582614b54565b602082019050919050565b60006020820190508181036000830152614bb981614b7d565b9050919050565b7f494e56414c49445f4953535545525f4144445245535300000000000000000000600082015250565b6000614bf6601683614097565b9150614c0182614bc0565b602082019050919050565b60006020820190508181036000830152614c2581614be9565b9050919050565b7f494e56414c49445f4445414c5f53544154555300000000000000000000000000600082015250565b6000614c62601383614097565b9150614c6d82614c2c565b602082019050919050565b60006020820190508181036000830152614c9181614c55565b9050919050565b600080fd5b600080fd5b600080fd5b60008083356001602003843603038112614cc457614cc3614c98565b5b80840192508235915067ffffffffffffffff821115614ce657614ce5614c9d565b5b602083019250600182023603831315614d0257614d01614ca2565b5b509250929050565b600082905092915050565b7f4e487b7100000000000000000000000000000000000000000000000000000000600052602260045260246000fd5b60006002820490506001821680614d5c57607f821691505b602082108103614d6f57614d6e614d15565b5b50919050565b60008190508160005260206000209050919050565b60006020601f8301049050919050565b600082821b905092915050565b600060088302614dd77fffffffffffffffffffffffffffffffffffffffffffffffffffffffffffffffff82614d9a565b614de18683614d9a565b95508019841693508086168417925050509392505050565b6000819050919050565b6000614e1e614e19614e1484613e3d565b614df9565b613e3d565b9050919050565b6000819050919050565b614e3883614e03565b614e4c614e4482614e25565b848454614da7565b825550505050565b600090565b614e61614e54565b614e6c818484614e2f565b505050565b5b81811015614e9057614e85600082614e59565b600181019050614e72565b5050565b601f821115614ed557614ea681614d75565b614eaf84614d8a565b81016020851015614ebe578190505b614ed2614eca85614d8a565b830182614e71565b50505b505050565b600082821c905092915050565b6000614ef860001984600802614eda565b1980831691505092915050565b6000614f118383614ee7565b9150826002028217905092915050565b614f2b8383614d0a565b67ffffffffffffffff811115614f4457614f43613cb6565b5b614f4e8254614d44565b614f59828285614e94565b6000601f831160018114614f885760008415614f76578287013590505b614f808582614f05565b865550614fe8565b601f198416614f9686614d75565b60005b82811015614fbe57848901358255600182019150602085019450602081019050614f99565b86831015614fdb5784890135614fd7601f891682614ee7565b8355505b6001600288020188555050505b50505050505050565b614ffc838383614f21565b505050565b6000813561500e81613c6f565b80915050919050565b60008160001b9050919050565b600073ffffffffffffffffffffffffffffffffffffffff61504484615017565b9350801983169250808416831791505092915050565b600061507561507061506b84613c3d565b614df9565b613c3d565b9050919050565b60006150878261505a565b9050919050565b60006150998261507c565b9050919050565b6000819050919050565b6150b38261508e565b6150c66150bf826150a0565b8354615024565b8255505050565b600081356150da81613f32565b80915050919050565b60007fffffffffffffffffffffffffffffffffffffffffffffffffffffffffffffffff61510f84615017565b9350801983169250808416831791505092915050565b61512e82614e03565b61514161513a82614e25565b83546150e3565b8255505050565b61515181614317565b811461515c57600080fd5b50565b6000813561516c81615148565b80915050919050565b60008160a01b9050919050565b600074ff00000000000000000000000000000000000000006151a384615175565b9350801983169250808416831791505092915050565b60006151d46151cf6151ca84614317565b614df9565b614317565b9050919050565b6000819050919050565b6151ee826151b9565b6152016151fa826151db565b8354615182565b8255505050565b6006811061521557600080fd5b50565b6000813561522581615208565b80915050919050565b60008160a81b9050919050565b600075ff00000000000000000000000000000000000000000061525d8461522e565b9350801983169250808416831791505092915050565b600061527e82614376565b9050919050565b6000819050919050565b61529882615273565b6152ab6152a482615285565b835461523b565b8255505050565b60008101600083016152c48185614ca7565b6152cf818386614ff1565b5050505060018101602083016152e58185614ca7565b6152f0818386614ff1565b5050505060028101604083018061530681615001565b905061531281846150aa565b505050600381016060830180615327816150cd565b90506153338184615125565b505050600481016080830180615348816150cd565b90506153548184615125565b5050506005810160a0830180615369816150cd565b90506153758184615125565b5050506006810160c083018061538a816150cd565b90506153968184615125565b5050506007810160e08301806153ab816150cd565b90506153b78184615125565b505050600881016101008301806153cd81615001565b90506153d981846150aa565b505050600881016101208301806153ef8161515f565b90506153fb81846151e5565b5050506008810161014083018061541181615218565b905061541d818461528f565b5050505050565b61542e82826152b2565b5050565b60008154905061544181614d44565b9050919050565b81810361545657505061552e565b61545f82615432565b67ffffffffffffffff81111561547857615477613cb6565b5b6154828254614d44565b61548d828285614e94565b6000601f8311600181146154bc57600084156154aa578287015490505b6154b48582614f05565b865550615527565b601f1984166154ca87614d75565b96506154d586614d75565b60005b828110156154fd578489015482556001820191506001850194506020810190506154d8565b8683101561551a5784890154615516601f891682614ee7565b8355505b6001600288020188555050505b5050505050505b565b600080fd5b600080fd5b600080fd5b6000808335600160200384360303811261555c5761555b61553a565b5b83810192508235915060208301925067ffffffffffffffff82111561558457615583615530565b5b60018202360383131561559a57615599615535565b5b509250929050565b600082825260208201905092915050565b60006155bf83856155a2565b93506155cc838584613d62565b6155d583613ca5565b840190509392505050565b60006155ef6020840184613c86565b905092915050565b60006156066020840184613f49565b905092915050565b60008135905061561d81615148565b92915050565b6000615632602084018461560e565b905092915050565b61564381614317565b82525050565b60008135905061565881615208565b92915050565b600061566d6020840184615649565b905092915050565b61567e81614389565b82525050565b60006101608301615698600084018461553f565b85830360008701526156ab8382846155b3565b925050506156bc602084018461553f565b85830360208701526156cf8382846155b3565b925050506156e060408401846155e0565b6156ed60408601826145fd565b506156fb60608401846155f7565b615708606086018261460c565b5061571660808401846155f7565b615723608086018261460c565b5061573160a08401846155f7565b61573e60a086018261460c565b5061574c60c08401846155f7565b61575960c086018261460c565b5061576760e08401846155f7565b61577460e086018261460c565b506157836101008401846155e0565b6157916101008601826145fd565b506157a0610120840184615623565b6157ae61012086018261563a565b506157bd61014084018461565e565b6157cb610140860182615675565b508091505092915050565b600060408201905081810360008301526157f1818587614928565b905081810360208301526158058184615684565b9050949350505050565b7f494e56414c49445f414444524553530000000000000000000000000000000000600082015250565b6000615845600f83614097565b91506158508261580f565b602082019050919050565b6000602082019050818103600083015261587481615838565b9050919050565b7f434845434b5f594f55525f535441545553000000000000000000000000000000600082015250565b60006158b1601183614097565b91506158bc8261587b565b602082019050919050565b600060208201905081810360008301526158e0816158a4565b9050919050565b60008101600083016158f98185614ca7565b615904818386614ff1565b50505050600181016020830161591a8185614ca7565b615925818386614ff1565b50505050600281016040830161593b8185614ca7565b615946818386614ff1565b50505050600381016060830161595c8185614ca7565b615967818386614ff1565b50505050600481016080830161597d8185614ca7565b615988818386614ff1565b505050506005810160a083018061599e816150cd565b90506159aa8184615125565b5050506006810160c08301806159bf81615001565b90506159cb81846150aa565b5050505050565b6159dc82826158e7565b5050565b7f4f4e4c595f544f504f535f4d414e414745520000000000000000000000000000600082015250565b6000615a16601283614097565b9150615a21826159e0565b602082019050919050565b60006020820190508181036000830152615a4581615a09565b9050919050565b60006101608301615a60600084018461553f565b8583036000870152615a738382846155b3565b92505050615a84602084018461553f565b8583036020870152615a978382846155b3565b92505050615aa8604084018461553f565b8583036040870152615abb8382846155b3565b92505050615acc60608401846155e0565b615ad960608601826145fd565b50615ae760808401846155f7565b615af4608086018261460c565b50615b0260a08401846155f7565b615b0f60a086018261460c565b50615b1d60c08401846155f7565b615b2a60c086018261460c565b50615b3860e0840184615623565b615b4560e086018261563a565b50615b546101008401846155f7565b615b6261010086018261460c565b50615b716101208401846155f7565b615b7f61012086018261460c565b50615b8e6101408401846155f7565b615b9c61014086018261460c565b508091505092915050565b60006020820190508181036000830152615bc18184615a4c565b905092915050565b600060ff615bd684615017565b9350801983169250808416831791505092915050565b615bf5826151b9565b615c08615c01826151db565b8354615bc9565b8255505050565b6000810160008301615c218185614ca7565b615c2c818386614ff1565b505050506001810160208301615c428185614ca7565b615c4d818386614ff1565b505050506002810160408301615c638185614ca7565b615c6e818386614ff1565b50505050600381016060830180615c8481615001565b9050615c9081846150aa565b505050600481016080830180615ca5816150cd565b9050615cb18184615125565b5050506005810160a0830180615cc6816150cd565b9050615cd28184615125565b5050506006810160c0830180615ce7816150cd565b9050615cf38184615125565b5050506007810160e0830180615d088161515f565b9050615d148184615bec565b50505060088101610100830180615d2a816150cd565b9050615d368184615125565b50505060098101610120830180615d4c816150cd565b9050615d588184615125565b505050600a8101610140830180615d6e816150cd565b9050615d7a8184615125565b5050505050565b615d8b8282615c0f565b5050565b7f494e56414c49445f434f4e54524143545f414444524553530000000000000000600082015250565b6000615dc5601883614097565b9150615dd082615d8f565b602082019050919050565b60006020820190508181036000830152615df481615db8565b9050919050565b7f494e564553544f52000000000000000000000000000000000000000000000000600082015250565b6000615e31600883614097565b9150615e3c82615dfb565b602082019050919050565b60006040820190508181036000830152615e6081615e24565b9050615e6f6020830184613ea8565b92915050565b7f4953535545520000000000000000000000000000000000000000000000000000600082015250565b6000615eab600683614097565b9150615eb682615e75565b602082019050919050565b60006040820190508181036000830152615eda81615e9e565b9050615ee96020830184613ea8565b92915050565b6000810160008301615f018185614ca7565b615f0c818386614ff1565b505050506001810160208301615f228185614ca7565b615f2d818386614ff1565b505050506002810160408301615f438185614ca7565b615f4e818386614ff1565b50505050600381016060830180615f6481615001565b9050615f7081846150aa565b5050505050565b615f818282615eef565b505056fea2646970667358221220d2fb1b41f26fcdf0f58975a88f568a3ed52229f33ff00b2f2314ff228340c7fa64736f6c63430008130033",
  "immutableReferences": {},
  "source": "// SPDX-License-Identifier: CC0-1.0\npragma solidity ^0.8.0;\n\nimport \"../interfaces/IToposBank.sol\";\nimport \"./ToposBankStorage.sol\";\nimport \"../interfaces/IRoles.sol\";\nimport \"../interfaces/IBonds.sol\";\nimport \"../../tests/tokens/IERC20.sol\";\nimport \"../../treasury/IIssuersFund.sol\";\n\ncontract ToposBank is IToposBank, ToposBankStorage {\n    constructor(\n        address _toposManager,\n        address _rolesContract,\n        address _identityRegistryContract\n    ) {\n        toposManager = _toposManager;\n        rolesContract = _rolesContract;\n        IRoles(_rolesContract).setRole(\"MANAGER\", _toposManager);\n        identityRegistryContract = _identityRegistryContract;\n    }\n\n    /**\n    * @notice Sends an registration request to become an issuer.\n    * @param _issuer Issuer struct. See BondData.sol\n    */\n    function requestRegistrationIssuer(\n        BondData.Issuer calldata _issuer\n    ) external mustBeApproved(_issuer.walletAddress) {\n        require(msg.sender == _issuer.walletAddress, \"INVALID_ADDRESS\");\n        require(\n            issuerStatus[msg.sender] == BondData.StakeHolderStatus.UNDEFINED,\n            \"CHECK_YOUR_STATUS\"\n        );\n\n        issuers[_issuer.walletAddress] = _issuer;\n        issuerStatus[msg.sender] = BondData.StakeHolderStatus.SUBMITTED;\n\n        emit RequestIssuerRegistration(_issuer.walletAddress);\n    }\n\n    /**\n    * @notice Sends an registration request to become an investor.\n    * @param _investor Investor struct. See BondData.sol\n    */\n    function requestRegistrationInvestor(\n        BondData.Investor calldata _investor\n    ) external mustBeApproved(_investor.walletAddress) {\n        require(msg.sender == _investor.walletAddress, \"INVALID_ADDRESS\");\n        require(\n            investorStatus[msg.sender] == BondData.StakeHolderStatus.UNDEFINED,\n            \"CHECK_YOUR_STATUS\"\n        );\n\n        investors[_investor.walletAddress] = _investor;\n        investorStatus[msg.sender] = BondData.StakeHolderStatus.SUBMITTED;\n\n        emit RequestInvestorRegistration(_investor.walletAddress);\n    }\n\n    /**\n    * @notice Approves an issuer registration request. Can be called only by Topos manager\n    * @param _issuer issuer's account address\n    */\n    function approveIssuer(address _issuer) external onlyToposManager {\n        require(\n            issuerStatus[_issuer] == BondData.StakeHolderStatus.SUBMITTED,\n            \"CHECK_YOUR_STATUS\"\n        );\n\n        issuerStatus[_issuer] = BondData.StakeHolderStatus.APPROVED;\n        IRoles(rolesContract).setRole(\"ISSUER\", _issuer);\n\n        emit ApproveIssuer(_issuer);\n    }\n\n    /**\n    * @notice Approves an investor registration request. Can be called only by Topos manager\n    * @param _investor investor's account address\n    */\n    function approveInvestor(address _investor) external onlyToposManager {\n        require(\n            investorStatus[_investor] == BondData.StakeHolderStatus.SUBMITTED,\n            \"CHECK_YOUR_STATUS\"\n        );\n\n        investorStatus[_investor] = BondData.StakeHolderStatus.APPROVED;\n        IRoles(rolesContract).setRole(\"INVESTOR\", _investor);\n\n        emit ApproveInvestor(_investor);\n    }\n\n    /**\n    * @notice Rejects an issuer registration request. Can be called only by Topos manager\n    * @param _issuer issuer's account address\n    */\n    function rejectIssuer(address _issuer) external onlyToposManager {\n        require(\n            issuerStatus[_issuer] == BondData.StakeHolderStatus.SUBMITTED,\n            \"CHECK_YOUR_STATUS\"\n        );\n\n        issuerStatus[_issuer] = BondData.StakeHolderStatus.REJECTED;\n\n        emit RejectIssuer(_issuer);\n    }\n\n    /**\n    * @notice Rejects an investor registration request. Can be called only by Topos manager\n    * @param _investor investor's account address\n    */\n    function rejectInvestor(address _investor) external onlyToposManager {\n        require(\n            investorStatus[_investor] == BondData.StakeHolderStatus.SUBMITTED,\n            \"CHECK_YOUR_STATUS\"\n        );\n\n        investorStatus[_investor] = BondData.StakeHolderStatus.REJECTED;\n\n        emit RejectInvestor(_investor);\n    }\n\n    /**\n    * @notice Submits a deal. Can be called only by registered issuers\n    * @param _dealID the deal ID\n    * @param _deal deal struct containing deal information - see BondData.sol\n    */\n    function submitDeal(\n        string calldata _dealID,\n        BondData.Deal calldata _deal\n    ) external {\n        require(\n            IRoles(rolesContract).isIssuer(msg.sender),\n            \"ONLY_ISSUERS\"\n        );\n        require(\n            msg.sender == _deal.issuerAddress,\n            \"INVALID_ISSUER_ADDRESS\"\n        );\n        require(\n            deals[_dealID].status == BondData.DealStatus.UNDEFINED,\n            \"INVALID_DEAL_STATUS\"\n        );\n\n        deals[_dealID] = _deal;\n        deals[_dealID].status = BondData.DealStatus.SUBMITTED;\n        deals[_dealID].index = listOfDeals.length;\n\n        listOfDeals.push(deals[_dealID]);\n\n        emit DealSubmitted(_dealID, _deal);\n    }\n\n    /**\n    * @notice Approves a deal. Can be called only by Topos Manager\n    * @param _dealID the deal ID\n    */\n    function approveDeal(\n        string calldata _dealID\n    ) external onlyToposManager {\n        require(\n            deals[_dealID].status == BondData.DealStatus.SUBMITTED,\n            \"INVALID_DEAL_STATUS\"\n        );\n\n        deals[_dealID].status = BondData.DealStatus.APPROVED;\n        listOfDeals[deals[_dealID].index].status = BondData.DealStatus.APPROVED;\n\n        emit DealAPproved(_dealID);\n    }\n\n    /**\n    * @notice Rejects a deal. Can be called only by Topos Manager\n    * @param _dealID the deal ID\n    */\n    function rejectDeal(\n        string calldata _dealID\n    ) external onlyToposManager {\n        require(\n            deals[_dealID].status == BondData.DealStatus.SUBMITTED,\n            \"INVALID_DEAL_STATUS\"\n        );\n\n        deals[_dealID].status = BondData.DealStatus.REJECTED;\n        listOfDeals[deals[_dealID].index].status = BondData.DealStatus.REJECTED;\n\n        emit DealARejected(_dealID);\n    }\n\n    /**\n    * @notice Investors call this function to register for a Deal\n    *         Investors must submit the amount the want to invest\n    * @param _dealID the deal ID\n    * @param _amount Amount to invest - in bond currency unit\n    */\n    function registerForDeal(\n        string calldata _dealID,\n        uint256 _amount\n    ) external mustBeApproved(msg.sender) {\n        uint256 _totalAmountInvested = totalAmountInvestedForDeal[_dealID];\n\n        if(deals[_dealID].status != BondData.DealStatus.APPROVED)\n            revert BondData.InvalidDealStatus(_dealID);\n        require(\n            _amount != 0 && _amount + _totalAmountInvested <= deals[_dealID].debtAmount,\n            \"INVALID_AMOUNT\"\n        );\n\n        bool hasInvested = amountInvested[msg.sender][_dealID].hasInvested;\n        totalAmountInvestedForDeal[_dealID] = _totalAmountInvested + _amount;\n\n        if(hasInvested) {\n            uint256 index = amountInvested[msg.sender][_dealID].index;\n            uint256 amount  = amountInvested[msg.sender][_dealID].amount;\n\n            dealInvestment[_dealID][index].amount = amount + _amount;\n            amountInvested[msg.sender][_dealID].amount = amount + _amount;\n        } else {\n            amountInvested[msg.sender][_dealID] =  BondData.Investment(\n                {\n                    amount: _amount,\n                    hasInvested: true,\n                    index: dealInvestment[_dealID].length\n                }\n            );\n\n            dealInvestment[_dealID].push(\n                BondData.DealInvestment(\n                    {\n                        investor: msg.sender,\n                        amount: _amount\n                    }\n                )\n            );       \n        }\n\n        IIssuersFund(issuersFundContract).addFund(_dealID, _amount);\n        IERC20(\n            deals[_dealID].currency\n        ).transferFrom(\n            msg.sender, issuersFundContract, _amount * 1 ether\n        );\n\n        emit RegisterForDeal(_dealID, msg.sender);\n    }\n\n    /**\n    * @notice Issues bonds to investors. Can be called only by Topos Manager\n    * @param _dealID the deal ID\n    * @param _bond bond struct containing bond information - see BondData.sol\n    * @param _bondContract the ERC-7092 bond contract address\n    */\n    function issue(\n        string calldata _dealID,\n        BondData.Bond calldata _bond,\n        address _bondContract\n    ) external onlyToposManager {\n        if(deals[_dealID].status != BondData.DealStatus.APPROVED)\n            revert BondData.InvalidDealStatus(_dealID);\n\n        dealBondContracts[_dealID] = _bondContract;\n\n        deals[_dealID].status != BondData.DealStatus.ISSUED;\n        listOfDeals[deals[_dealID].index].status = BondData.DealStatus.ISSUED;\n        issuerDeals[deals[_dealID].issuerAddress].push(deals[_dealID]);\n\n        IBonds(_bondContract).issue(_bond);\n\n        bonds.push(_bond);\n\n        emit BondIssue(_dealID);\n    }\n\n    /**\n    * @notice Redeem bonds. Can be called only by Topos Manager\n    * @param _dealID the deal ID\n    * @param _bondContract the ERC-7092 bond contract address\n    */\n    function redeem(\n        string calldata _dealID,\n        address _bondContract\n    ) external onlyToposManager {\n        if(deals[_dealID].status != BondData.DealStatus.ISSUED)\n            revert BondData.InvalidDealStatus(_dealID);\n\n        deals[_dealID].status != BondData.DealStatus.REDEEMED;\n        listOfDeals[deals[_dealID].index].status = BondData.DealStatus.REDEEMED;\n        issuerDeals[deals[_dealID].issuerAddress][deals[_dealID].index].status = BondData.DealStatus.REDEEMED;\n\n        IBonds(_bondContract).redeem();\n\n        emit BondRedeem(_dealID);\n    }\n\n    function getTotalAmounInvested(\n        string calldata _dealID\n    ) external view returns(uint256) {\n        return totalAmountInvestedForDeal[_dealID];\n    }\n\n    function getDealInvestment(\n        string calldata _dealID\n    ) external view returns(BondData.DealInvestment[] memory) {\n        return dealInvestment[_dealID];\n    }\n\n    function setIssuerFundContract(\n        address _issuerFundContract\n    ) external onlyToposManager {\n        require(_issuerFundContract != address(0), \"INVALID_CONTRACT_ADDRESS\");\n\n        issuersFundContract = _issuerFundContract;\n    }\n}",
  "sourcePath": "/Users/sam/Documents/Blockchain/Topos/ToposGrant/T-Grant/contracts/Topos/Bank/ToposBank.sol",
  "compiler": {
    "name": "solc",
    "version": "0.8.19+commit.7dd6d404.Emscripten.clang"
  },
  "schemaVersion": "3.4.9",
  "updatedAt": "2023-11-06T12:35:21.202Z",
  "devdoc": {
    "kind": "dev",
    "methods": {
      "approveDeal(string)": {
        "params": {
          "_dealID": "the deal ID"
        }
      },
      "approveInvestor(address)": {
        "params": {
          "_investor": "investor's account address"
        }
      },
      "approveIssuer(address)": {
        "params": {
          "_issuer": "issuer's account address"
        }
      },
      "issue(string,(string,string,string,address,uint256,uint256,uint256,uint8,uint256,uint256,uint256),address)": {
        "params": {
          "_bond": "bond struct containing bond information - see BondData.sol",
          "_bondContract": "the ERC-7092 bond contract address",
          "_dealID": "the deal ID"
        }
      },
      "redeem(string,address)": {
        "params": {
          "_bondContract": "the ERC-7092 bond contract address",
          "_dealID": "the deal ID"
        }
      },
      "registerForDeal(string,uint256)": {
        "params": {
          "_amount": "Amount to invest - in bond currency unit",
          "_dealID": "the deal ID"
        }
      },
      "rejectDeal(string)": {
        "params": {
          "_dealID": "the deal ID"
        }
      },
      "rejectInvestor(address)": {
        "params": {
          "_investor": "investor's account address"
        }
      },
      "rejectIssuer(address)": {
        "params": {
          "_issuer": "issuer's account address"
        }
      },
      "requestRegistrationInvestor((string,string,string,address))": {
        "params": {
          "_investor": "Investor struct. See BondData.sol"
        }
      },
      "requestRegistrationIssuer((string,string,string,string,string,uint256,address))": {
        "params": {
          "_issuer": "Issuer struct. See BondData.sol"
        }
      },
      "submitDeal(string,(string,string,address,uint256,uint256,uint256,uint256,uint256,address,uint8,uint8))": {
        "params": {
          "_deal": "deal struct containing deal information - see BondData.sol",
          "_dealID": "the deal ID"
        }
      }
    },
    "version": 1
  },
  "userdoc": {
    "kind": "user",
    "methods": {
      "approveDeal(string)": {
        "notice": "Approves a deal. Can be called only by Topos Manager"
      },
      "approveInvestor(address)": {
        "notice": "Approves an investor registration request. Can be called only by Topos manager"
      },
      "approveIssuer(address)": {
        "notice": "Approves an issuer registration request. Can be called only by Topos manager"
      },
      "issue(string,(string,string,string,address,uint256,uint256,uint256,uint8,uint256,uint256,uint256),address)": {
        "notice": "Issues bonds to investors. Can be called only by Topos Manager"
      },
      "redeem(string,address)": {
        "notice": "Redeem bonds. Can be called only by Topos Manager"
      },
      "registerForDeal(string,uint256)": {
        "notice": "Investors call this function to register for a Deal         Investors must submit the amount the want to invest"
      },
      "rejectDeal(string)": {
        "notice": "Rejects a deal. Can be called only by Topos Manager"
      },
      "rejectInvestor(address)": {
        "notice": "Rejects an investor registration request. Can be called only by Topos manager"
      },
      "rejectIssuer(address)": {
        "notice": "Rejects an issuer registration request. Can be called only by Topos manager"
      },
      "requestRegistrationInvestor((string,string,string,address))": {
        "notice": "Sends an registration request to become an investor."
      },
      "requestRegistrationIssuer((string,string,string,string,string,uint256,address))": {
        "notice": "Sends an registration request to become an issuer."
      },
      "submitDeal(string,(string,string,address,uint256,uint256,uint256,uint256,uint256,address,uint8,uint8))": {
        "notice": "Submits a deal. Can be called only by registered issuers"
      }
    },
    "version": 1
  }
}