{
  "contractName": "ToposBank",
  "abi": [
    {
      "inputs": [
        {
          "internalType": "address",
          "name": "_toposManager",
          "type": "address"
        },
        {
          "internalType": "address",
          "name": "_rolesContract",
          "type": "address"
        },
        {
          "internalType": "address",
          "name": "_identityRegistryContract",
          "type": "address"
        }
      ],
      "stateMutability": "nonpayable",
      "type": "constructor"
    },
    {
      "inputs": [
        {
          "internalType": "string",
          "name": "dealID",
          "type": "string"
        }
      ],
      "name": "InvalidDealStatus",
      "type": "error"
    },
    {
      "anonymous": false,
      "inputs": [
        {
          "indexed": false,
          "internalType": "address",
          "name": "investor",
          "type": "address"
        }
      ],
      "name": "ApproveInvestor",
      "type": "event"
    },
    {
      "anonymous": false,
      "inputs": [
        {
          "indexed": false,
          "internalType": "address",
          "name": "issuer",
          "type": "address"
        }
      ],
      "name": "ApproveIssuer",
      "type": "event"
    },
    {
      "anonymous": false,
      "inputs": [
        {
          "indexed": false,
          "internalType": "string",
          "name": "_dealID",
          "type": "string"
        }
      ],
      "name": "BondIssue",
      "type": "event"
    },
    {
      "anonymous": false,
      "inputs": [
        {
          "indexed": false,
          "internalType": "string",
          "name": "_dealID",
          "type": "string"
        }
      ],
      "name": "BondRedeem",
      "type": "event"
    },
    {
      "anonymous": false,
      "inputs": [
        {
          "indexed": false,
          "internalType": "string",
          "name": "dealID",
          "type": "string"
        }
      ],
      "name": "DealAPproved",
      "type": "event"
    },
    {
      "anonymous": false,
      "inputs": [
        {
          "indexed": false,
          "internalType": "string",
          "name": "dealID",
          "type": "string"
        }
      ],
      "name": "DealARejected",
      "type": "event"
    },
    {
      "anonymous": false,
      "inputs": [
        {
          "indexed": false,
          "internalType": "string",
          "name": "dealID",
          "type": "string"
        },
        {
          "components": [
            {
              "internalType": "string",
              "name": "dealID",
              "type": "string"
            },
            {
              "internalType": "string",
              "name": "prospectusURI",
              "type": "string"
            },
            {
              "internalType": "address",
              "name": "issuerAddress",
              "type": "address"
            },
            {
              "internalType": "uint256",
              "name": "debtAmount",
              "type": "uint256"
            },
            {
              "internalType": "uint256",
              "name": "couponRate",
              "type": "uint256"
            },
            {
              "internalType": "uint256",
              "name": "couponFrequency",
              "type": "uint256"
            },
            {
              "internalType": "uint256",
              "name": "maturityDate",
              "type": "uint256"
            },
            {
              "internalType": "uint256",
              "name": "index",
              "type": "uint256"
            },
            {
              "internalType": "address",
              "name": "currency",
              "type": "address"
            },
            {
              "internalType": "uint8",
              "name": "couponType",
              "type": "uint8"
            },
            {
              "internalType": "enum BondData.DealStatus",
              "name": "status",
              "type": "uint8"
            }
          ],
          "indexed": false,
          "internalType": "struct BondData.Deal",
          "name": "deal",
          "type": "tuple"
        }
      ],
      "name": "DealSubmitted",
      "type": "event"
    },
    {
      "anonymous": false,
      "inputs": [
        {
          "indexed": false,
          "internalType": "string",
          "name": "dealID",
          "type": "string"
        },
        {
          "indexed": false,
          "internalType": "address",
          "name": "investor",
          "type": "address"
        }
      ],
      "name": "RegisterForDeal",
      "type": "event"
    },
    {
      "anonymous": false,
      "inputs": [
        {
          "indexed": false,
          "internalType": "address",
          "name": "investor",
          "type": "address"
        }
      ],
      "name": "RejectInvestor",
      "type": "event"
    },
    {
      "anonymous": false,
      "inputs": [
        {
          "indexed": false,
          "internalType": "address",
          "name": "issuer",
          "type": "address"
        }
      ],
      "name": "RejectIssuer",
      "type": "event"
    },
    {
      "anonymous": false,
      "inputs": [
        {
          "indexed": false,
          "internalType": "address",
          "name": "investor",
          "type": "address"
        }
      ],
      "name": "RequestInvestorRegistration",
      "type": "event"
    },
    {
      "anonymous": false,
      "inputs": [
        {
          "indexed": false,
          "internalType": "address",
          "name": "issuer",
          "type": "address"
        }
      ],
      "name": "RequestIssuerRegistration",
      "type": "event"
    },
    {
      "inputs": [
        {
          "internalType": "address",
          "name": "",
          "type": "address"
        },
        {
          "internalType": "string",
          "name": "",
          "type": "string"
        }
      ],
      "name": "amountInvested",
      "outputs": [
        {
          "internalType": "uint256",
          "name": "amount",
          "type": "uint256"
        },
        {
          "internalType": "bool",
          "name": "hasInvested",
          "type": "bool"
        },
        {
          "internalType": "uint256",
          "name": "index",
          "type": "uint256"
        }
      ],
      "stateMutability": "view",
      "type": "function"
    },
    {
      "inputs": [
        {
          "internalType": "string",
          "name": "",
          "type": "string"
        }
      ],
      "name": "dealBondContracts",
      "outputs": [
        {
          "internalType": "address",
          "name": "",
          "type": "address"
        }
      ],
      "stateMutability": "view",
      "type": "function"
    },
    {
      "inputs": [
        {
          "internalType": "string",
          "name": "",
          "type": "string"
        },
        {
          "internalType": "uint256",
          "name": "",
          "type": "uint256"
        }
      ],
      "name": "dealInvestment",
      "outputs": [
        {
          "internalType": "address",
          "name": "investor",
          "type": "address"
        },
        {
          "internalType": "uint256",
          "name": "amount",
          "type": "uint256"
        }
      ],
      "stateMutability": "view",
      "type": "function"
    },
    {
      "inputs": [
        {
          "internalType": "string",
          "name": "",
          "type": "string"
        }
      ],
      "name": "deals",
      "outputs": [
        {
          "internalType": "string",
          "name": "dealID",
          "type": "string"
        },
        {
          "internalType": "string",
          "name": "prospectusURI",
          "type": "string"
        },
        {
          "internalType": "address",
          "name": "issuerAddress",
          "type": "address"
        },
        {
          "internalType": "uint256",
          "name": "debtAmount",
          "type": "uint256"
        },
        {
          "internalType": "uint256",
          "name": "couponRate",
          "type": "uint256"
        },
        {
          "internalType": "uint256",
          "name": "couponFrequency",
          "type": "uint256"
        },
        {
          "internalType": "uint256",
          "name": "maturityDate",
          "type": "uint256"
        },
        {
          "internalType": "uint256",
          "name": "index",
          "type": "uint256"
        },
        {
          "internalType": "address",
          "name": "currency",
          "type": "address"
        },
        {
          "internalType": "uint8",
          "name": "couponType",
          "type": "uint8"
        },
        {
          "internalType": "enum BondData.DealStatus",
          "name": "status",
          "type": "uint8"
        }
      ],
      "stateMutability": "view",
      "type": "function"
    },
    {
      "inputs": [],
      "name": "identityRegistryContract",
      "outputs": [
        {
          "internalType": "address",
          "name": "",
          "type": "address"
        }
      ],
      "stateMutability": "view",
      "type": "function"
    },
    {
      "inputs": [
        {
          "internalType": "address",
          "name": "",
          "type": "address"
        }
      ],
      "name": "investorStatus",
      "outputs": [
        {
          "internalType": "enum BondData.StakeHolderStatus",
          "name": "",
          "type": "uint8"
        }
      ],
      "stateMutability": "view",
      "type": "function"
    },
    {
      "inputs": [
        {
          "internalType": "address",
          "name": "",
          "type": "address"
        }
      ],
      "name": "investors",
      "outputs": [
        {
          "internalType": "string",
          "name": "name",
          "type": "string"
        },
        {
          "internalType": "string",
          "name": "country",
          "type": "string"
        },
        {
          "internalType": "string",
          "name": "investorType",
          "type": "string"
        },
        {
          "internalType": "address",
          "name": "walletAddress",
          "type": "address"
        }
      ],
      "stateMutability": "view",
      "type": "function"
    },
    {
      "inputs": [
        {
          "internalType": "address",
          "name": "",
          "type": "address"
        },
        {
          "internalType": "uint256",
          "name": "",
          "type": "uint256"
        }
      ],
      "name": "issuerDeals",
      "outputs": [
        {
          "internalType": "string",
          "name": "dealID",
          "type": "string"
        },
        {
          "internalType": "string",
          "name": "prospectusURI",
          "type": "string"
        },
        {
          "internalType": "address",
          "name": "issuerAddress",
          "type": "address"
        },
        {
          "internalType": "uint256",
          "name": "debtAmount",
          "type": "uint256"
        },
        {
          "internalType": "uint256",
          "name": "couponRate",
          "type": "uint256"
        },
        {
          "internalType": "uint256",
          "name": "couponFrequency",
          "type": "uint256"
        },
        {
          "internalType": "uint256",
          "name": "maturityDate",
          "type": "uint256"
        },
        {
          "internalType": "uint256",
          "name": "index",
          "type": "uint256"
        },
        {
          "internalType": "address",
          "name": "currency",
          "type": "address"
        },
        {
          "internalType": "uint8",
          "name": "couponType",
          "type": "uint8"
        },
        {
          "internalType": "enum BondData.DealStatus",
          "name": "status",
          "type": "uint8"
        }
      ],
      "stateMutability": "view",
      "type": "function"
    },
    {
      "inputs": [
        {
          "internalType": "address",
          "name": "",
          "type": "address"
        }
      ],
      "name": "issuerStatus",
      "outputs": [
        {
          "internalType": "enum BondData.StakeHolderStatus",
          "name": "",
          "type": "uint8"
        }
      ],
      "stateMutability": "view",
      "type": "function"
    },
    {
      "inputs": [
        {
          "internalType": "address",
          "name": "",
          "type": "address"
        }
      ],
      "name": "issuers",
      "outputs": [
        {
          "internalType": "string",
          "name": "documentURI",
          "type": "string"
        },
        {
          "internalType": "string",
          "name": "name",
          "type": "string"
        },
        {
          "internalType": "string",
          "name": "country",
          "type": "string"
        },
        {
          "internalType": "string",
          "name": "issuerType",
          "type": "string"
        },
        {
          "internalType": "string",
          "name": "creditRating",
          "type": "string"
        },
        {
          "internalType": "uint256",
          "name": "carbonCredit",
          "type": "uint256"
        },
        {
          "internalType": "address",
          "name": "walletAddress",
          "type": "address"
        }
      ],
      "stateMutability": "view",
      "type": "function"
    },
    {
      "inputs": [],
      "name": "rolesContract",
      "outputs": [
        {
          "internalType": "address",
          "name": "",
          "type": "address"
        }
      ],
      "stateMutability": "view",
      "type": "function"
    },
    {
      "inputs": [],
      "name": "toposManager",
      "outputs": [
        {
          "internalType": "address",
          "name": "",
          "type": "address"
        }
      ],
      "stateMutability": "view",
      "type": "function"
    },
    {
      "inputs": [
        {
          "internalType": "string",
          "name": "",
          "type": "string"
        }
      ],
      "name": "totalAmountInvestedForDeal",
      "outputs": [
        {
          "internalType": "uint256",
          "name": "",
          "type": "uint256"
        }
      ],
      "stateMutability": "view",
      "type": "function"
    },
    {
      "inputs": [
        {
          "components": [
            {
              "internalType": "string",
              "name": "documentURI",
              "type": "string"
            },
            {
              "internalType": "string",
              "name": "name",
              "type": "string"
            },
            {
              "internalType": "string",
              "name": "country",
              "type": "string"
            },
            {
              "internalType": "string",
              "name": "issuerType",
              "type": "string"
            },
            {
              "internalType": "string",
              "name": "creditRating",
              "type": "string"
            },
            {
              "internalType": "uint256",
              "name": "carbonCredit",
              "type": "uint256"
            },
            {
              "internalType": "address",
              "name": "walletAddress",
              "type": "address"
            }
          ],
          "internalType": "struct BondData.Issuer",
          "name": "_issuer",
          "type": "tuple"
        }
      ],
      "name": "requestRegistrationIssuer",
      "outputs": [],
      "stateMutability": "nonpayable",
      "type": "function"
    },
    {
      "inputs": [
        {
          "components": [
            {
              "internalType": "string",
              "name": "name",
              "type": "string"
            },
            {
              "internalType": "string",
              "name": "country",
              "type": "string"
            },
            {
              "internalType": "string",
              "name": "investorType",
              "type": "string"
            },
            {
              "internalType": "address",
              "name": "walletAddress",
              "type": "address"
            }
          ],
          "internalType": "struct BondData.Investor",
          "name": "_investor",
          "type": "tuple"
        }
      ],
      "name": "requestRegistrationInvestor",
      "outputs": [],
      "stateMutability": "nonpayable",
      "type": "function"
    },
    {
      "inputs": [
        {
          "internalType": "address",
          "name": "_issuer",
          "type": "address"
        }
      ],
      "name": "approveIssuer",
      "outputs": [],
      "stateMutability": "nonpayable",
      "type": "function"
    },
    {
      "inputs": [
        {
          "internalType": "address",
          "name": "_investor",
          "type": "address"
        }
      ],
      "name": "approveInvestor",
      "outputs": [],
      "stateMutability": "nonpayable",
      "type": "function"
    },
    {
      "inputs": [
        {
          "internalType": "address",
          "name": "_issuer",
          "type": "address"
        }
      ],
      "name": "rejectIssuer",
      "outputs": [],
      "stateMutability": "nonpayable",
      "type": "function"
    },
    {
      "inputs": [
        {
          "internalType": "address",
          "name": "_investor",
          "type": "address"
        }
      ],
      "name": "rejectInvestor",
      "outputs": [],
      "stateMutability": "nonpayable",
      "type": "function"
    },
    {
      "inputs": [
        {
          "internalType": "string",
          "name": "_dealID",
          "type": "string"
        },
        {
          "components": [
            {
              "internalType": "string",
              "name": "dealID",
              "type": "string"
            },
            {
              "internalType": "string",
              "name": "prospectusURI",
              "type": "string"
            },
            {
              "internalType": "address",
              "name": "issuerAddress",
              "type": "address"
            },
            {
              "internalType": "uint256",
              "name": "debtAmount",
              "type": "uint256"
            },
            {
              "internalType": "uint256",
              "name": "couponRate",
              "type": "uint256"
            },
            {
              "internalType": "uint256",
              "name": "couponFrequency",
              "type": "uint256"
            },
            {
              "internalType": "uint256",
              "name": "maturityDate",
              "type": "uint256"
            },
            {
              "internalType": "uint256",
              "name": "index",
              "type": "uint256"
            },
            {
              "internalType": "address",
              "name": "currency",
              "type": "address"
            },
            {
              "internalType": "uint8",
              "name": "couponType",
              "type": "uint8"
            },
            {
              "internalType": "enum BondData.DealStatus",
              "name": "status",
              "type": "uint8"
            }
          ],
          "internalType": "struct BondData.Deal",
          "name": "_deal",
          "type": "tuple"
        }
      ],
      "name": "submitDeal",
      "outputs": [],
      "stateMutability": "nonpayable",
      "type": "function"
    },
    {
      "inputs": [
        {
          "internalType": "string",
          "name": "_dealID",
          "type": "string"
        }
      ],
      "name": "approveDeal",
      "outputs": [],
      "stateMutability": "nonpayable",
      "type": "function"
    },
    {
      "inputs": [
        {
          "internalType": "string",
          "name": "_dealID",
          "type": "string"
        }
      ],
      "name": "rejectDeal",
      "outputs": [],
      "stateMutability": "nonpayable",
      "type": "function"
    },
    {
      "inputs": [
        {
          "internalType": "string",
          "name": "_dealID",
          "type": "string"
        },
        {
          "internalType": "uint256",
          "name": "_amount",
          "type": "uint256"
        }
      ],
      "name": "registerForDeal",
      "outputs": [],
      "stateMutability": "nonpayable",
      "type": "function"
    },
    {
      "inputs": [
        {
          "internalType": "string",
          "name": "_dealID",
          "type": "string"
        },
        {
          "components": [
            {
              "internalType": "string",
              "name": "isin",
              "type": "string"
            },
            {
              "internalType": "string",
              "name": "name",
              "type": "string"
            },
            {
              "internalType": "string",
              "name": "symbol",
              "type": "string"
            },
            {
              "internalType": "address",
              "name": "currency",
              "type": "address"
            },
            {
              "internalType": "uint256",
              "name": "denomination",
              "type": "uint256"
            },
            {
              "internalType": "uint256",
              "name": "issueVolume",
              "type": "uint256"
            },
            {
              "internalType": "uint256",
              "name": "couponRate",
              "type": "uint256"
            },
            {
              "internalType": "uint8",
              "name": "couponType",
              "type": "uint8"
            },
            {
              "internalType": "uint256",
              "name": "couponFrequency",
              "type": "uint256"
            },
            {
              "internalType": "uint256",
              "name": "issueDate",
              "type": "uint256"
            },
            {
              "internalType": "uint256",
              "name": "maturityDate",
              "type": "uint256"
            }
          ],
          "internalType": "struct BondData.Bond",
          "name": "_bond",
          "type": "tuple"
        },
        {
          "internalType": "address",
          "name": "_bondContract",
          "type": "address"
        }
      ],
      "name": "issue",
      "outputs": [],
      "stateMutability": "nonpayable",
      "type": "function"
    },
    {
      "inputs": [
        {
          "internalType": "string",
          "name": "_dealID",
          "type": "string"
        },
        {
          "internalType": "address",
          "name": "_bondContract",
          "type": "address"
        }
      ],
      "name": "redeem",
      "outputs": [],
      "stateMutability": "nonpayable",
      "type": "function"
    },
    {
      "inputs": [
        {
          "internalType": "string",
          "name": "_dealID",
          "type": "string"
        }
      ],
      "name": "getTotalAmounInvested",
      "outputs": [
        {
          "internalType": "uint256",
          "name": "",
          "type": "uint256"
        }
      ],
      "stateMutability": "view",
      "type": "function"
    },
    {
      "inputs": [
        {
          "internalType": "string",
          "name": "_dealID",
          "type": "string"
        }
      ],
      "name": "getDealInvestment",
      "outputs": [
        {
          "components": [
            {
              "internalType": "address",
              "name": "investor",
              "type": "address"
            },
            {
              "internalType": "uint256",
              "name": "amount",
              "type": "uint256"
            }
          ],
          "internalType": "struct BondData.DealInvestment[]",
          "name": "",
          "type": "tuple[]"
        }
      ],
      "stateMutability": "view",
      "type": "function"
    }
  ],
  "bytecode": "0x60806040523480156200001157600080fd5b5060405162005e3d38038062005e3d8339818101604052810190620000379190620001dc565b82600a60006101000a81548173ffffffffffffffffffffffffffffffffffffffff021916908373ffffffffffffffffffffffffffffffffffffffff16021790555081600b60006101000a81548173ffffffffffffffffffffffffffffffffffffffff021916908373ffffffffffffffffffffffffffffffffffffffff1602179055508173ffffffffffffffffffffffffffffffffffffffff1663cfde1890846040518263ffffffff1660e01b8152600401620000f49190620002aa565b600060405180830381600087803b1580156200010f57600080fd5b505af115801562000124573d6000803e3d6000fd5b5050505080600c60006101000a81548173ffffffffffffffffffffffffffffffffffffffff021916908373ffffffffffffffffffffffffffffffffffffffff160217905550505050620002dc565b600080fd5b600073ffffffffffffffffffffffffffffffffffffffff82169050919050565b6000620001a48262000177565b9050919050565b620001b68162000197565b8114620001c257600080fd5b50565b600081519050620001d681620001ab565b92915050565b600080600060608486031215620001f857620001f762000172565b5b60006200020886828701620001c5565b93505060206200021b86828701620001c5565b92505060406200022e86828701620001c5565b9150509250925092565b600082825260208201905092915050565b7f4d414e4147455200000000000000000000000000000000000000000000000000600082015250565b60006200028160078362000238565b91506200028e8262000249565b602082019050919050565b620002a48162000197565b82525050565b60006040820190508181036000830152620002c58162000272565b9050620002d6602083018462000299565b92915050565b615b5180620002ec6000396000f3fe608060405234801561001057600080fd5b50600436106101a95760003560e01c8063754f399a116100f9578063ca53b39111610097578063d7c4029c11610071578063d7c4029c1461050c578063f936d49d14610528578063fcbb3c1814610558578063fe0ab4b314610588576101a9565b8063ca53b391146104b6578063d304a813146104d4578063d31628a0146104f0576101a9565b806382deb86e116100d357806382deb86e14610414578063a0a57dac14610430578063c88efe651461046a578063c8d7f62e14610486576101a9565b8063754f399a146103be5780637de14129146103da5780637f31ed73146103f6576101a9565b806348f92ee811610166578063507251cb11610140578063507251cb1461030f5780635ed7e2c11461032b578063605936ea1461035b5780636f7bc9be1461038b576101a9565b806348f92ee814610288578063499fa18a146102a457806349f5d1d9146102d5576101a9565b8063041e9b89146101ae578063088674e0146101e05780630df8bfda146101fe57806323c8d7061461021a57806338a7543e146102365780633dc349be1461026c575b600080fd5b6101c860048036038101906101c39190613a8e565b6105b8565b6040516101d793929190613b1e565b60405180910390f35b6101e8610612565b6040516101f59190613b64565b60405180910390f35b61021860048036038101906102139190613c0b565b610638565b005b610234600480360381019061022f9190613c90565b610c6e565b005b610250600480360381019061024b9190613d0c565b61112b565b6040516102639796959493929190613db8565b60405180910390f35b61028660048036038101906102819190613e69565b611435565b005b6102a2600480360381019061029d9190613eb2565b61176c565b005b6102be60048036038101906102b99190613eff565b61198d565b6040516102cc929190613f5b565b60405180910390f35b6102ef60048036038101906102ea9190613f84565b611a04565b6040516103069b9a99989796959493929190614057565b60405180910390f35b61032960048036038101906103249190614130565b611be5565b005b610345600480360381019061034091906141c0565b61217e565b6040516103529190614209565b60405180910390f35b61037560048036038101906103709190613eb2565b6121ac565b6040516103829190614209565b60405180910390f35b6103a560048036038101906103a09190613d0c565b6121d7565b6040516103b59493929190614224565b60405180910390f35b6103d860048036038101906103d39190613eb2565b6123bf565b005b6103f460048036038101906103ef9190613d0c565b6125e0565b005b6103fe612852565b60405161040b9190613b64565b60405180910390f35b61042e60048036038101906104299190613d0c565b612878565b005b61044a600480360381019061044591906141c0565b612aea565b6040516104619b9a99989796959493929190614057565b60405180910390f35b610484600480360381019061047f9190613d0c565b612cc4565b005b6104a0600480360381019061049b9190613eb2565b612ea9565b6040516104ad919061437a565b60405180910390f35b6104be612f89565b6040516104cb9190613b64565b60405180910390f35b6104ee60048036038101906104e99190613d0c565b612faf565b005b61050a600480360381019061050591906143bb565b613194565b005b61052660048036038101906105219190614404565b6134cb565b005b610542600480360381019061053d9190613d0c565b61384d565b60405161054f91906144ac565b60405180910390f35b610572600480360381019061056d9190613d0c565b61386d565b60405161057f91906144ac565b60405180910390f35b6105a2600480360381019061059d91906141c0565b61388d565b6040516105af9190613b64565b60405180910390f35b600860205281600052604060002081805160208101820180518482526020830160208501208183528095505050505050600091509150508060000154908060010160009054906101000a900460ff16908060020154905083565b600c60009054906101000a900473ffffffffffffffffffffffffffffffffffffffff1681565b33600c60009054906101000a900473ffffffffffffffffffffffffffffffffffffffff1673ffffffffffffffffffffffffffffffffffffffff1663b9209e33826040518263ffffffff1660e01b81526004016106949190613b64565b602060405180830381865afa1580156106b1573d6000803e3d6000fd5b505050506040513d601f19601f820116820180604052508101906106d591906144f3565b610714576040517f08c379a000000000000000000000000000000000000000000000000000000000815260040161070b9061456c565b60405180910390fd5b6000600585856040516107289291906145bc565b90815260200160405180910390205490506002600581111561074d5761074c613fe0565b5b6000868660405161075f9291906145bc565b908152602001604051809103902060080160159054906101000a900460ff1660058111156107905761078f613fe0565b5b146107d45784846040517fb71650840000000000000000000000000000000000000000000000000000000081526004016107cb929190614602565b60405180910390fd5b600083141580156108135750600085856040516107f29291906145bc565b90815260200160405180910390206003015481846108109190614655565b11155b610852576040517f08c379a0000000000000000000000000000000000000000000000000000000008152600401610849906146d5565b60405180910390fd5b6000600860003373ffffffffffffffffffffffffffffffffffffffff1673ffffffffffffffffffffffffffffffffffffffff16815260200190815260200160002086866040516108a39291906145bc565b908152602001604051809103902060010160009054906101000a900460ff16905083826108d09190614655565b600587876040516108e29291906145bc565b9081526020016040518091039020819055508015610a8e576000600860003373ffffffffffffffffffffffffffffffffffffffff1673ffffffffffffffffffffffffffffffffffffffff168152602001908152602001600020878760405161094b9291906145bc565b90815260200160405180910390206002015490506000600860003373ffffffffffffffffffffffffffffffffffffffff1673ffffffffffffffffffffffffffffffffffffffff16815260200190815260200160002088886040516109b09291906145bc565b908152602001604051809103902060000154905085816109d09190614655565b600489896040516109e29291906145bc565b90815260200160405180910390208381548110610a0257610a016146f5565b5b9060005260206000209060020201600101819055508581610a239190614655565b600860003373ffffffffffffffffffffffffffffffffffffffff1673ffffffffffffffffffffffffffffffffffffffff1681526020019081526020016000208989604051610a729291906145bc565b9081526020016040518091039020600001819055505050610c2b565b604051806060016040528085815260200160011515815260200160048888604051610aba9291906145bc565b908152602001604051809103902080549050815250600860003373ffffffffffffffffffffffffffffffffffffffff1673ffffffffffffffffffffffffffffffffffffffff1681526020019081526020016000208787604051610b1e9291906145bc565b90815260200160405180910390206000820151816000015560208201518160010160006101000a81548160ff0219169083151502179055506040820151816002015590505060048686604051610b759291906145bc565b908152602001604051809103902060405180604001604052803373ffffffffffffffffffffffffffffffffffffffff16815260200186815250908060018154018082558091505060019003906000526020600020906002020160009091909190915060008201518160000160006101000a81548173ffffffffffffffffffffffffffffffffffffffff021916908373ffffffffffffffffffffffffffffffffffffffff1602179055506020820151816001015550505b7f0bdaf52b4de514796607307fbbcf007ee6d59e81e1be436b67c5a567a2e8d121868633604051610c5e93929190614724565b60405180910390a1505050505050565b600b60009054906101000a900473ffffffffffffffffffffffffffffffffffffffff1673ffffffffffffffffffffffffffffffffffffffff1663877b9a67336040518263ffffffff1660e01b8152600401610cc99190613b64565b602060405180830381865afa158015610ce6573d6000803e3d6000fd5b505050506040513d601f19601f82011682018060405250810190610d0a91906144f3565b610d49576040517f08c379a0000000000000000000000000000000000000000000000000000000008152600401610d40906147a2565b60405180910390fd5b806040016020810190610d5c9190613d0c565b73ffffffffffffffffffffffffffffffffffffffff163373ffffffffffffffffffffffffffffffffffffffff1614610dc9576040517f08c379a0000000000000000000000000000000000000000000000000000000008152600401610dc09061480e565b60405180910390fd5b60006005811115610ddd57610ddc613fe0565b5b60008484604051610def9291906145bc565b908152602001604051809103902060080160159054906101000a900460ff166005811115610e2057610e1f613fe0565b5b14610e60576040517f08c379a0000000000000000000000000000000000000000000000000000000008152600401610e579061487a565b60405180910390fd5b8060008484604051610e739291906145bc565b90815260200160405180910390208181610e8d9190615026565b905050600160008484604051610ea49291906145bc565b908152602001604051809103902060080160156101000a81548160ff02191690836005811115610ed757610ed6613fe0565b5b0217905550600e8054905060008484604051610ef49291906145bc565b908152602001604051809103902060070181905550600e60008484604051610f1d9291906145bc565b9081526020016040518091039020908060018154018082558091505060019003906000526020600020906009020160009091909190915060008201816000019081610f68919061504a565b5060018201816001019081610f7d919061504a565b506002820160009054906101000a900473ffffffffffffffffffffffffffffffffffffffff168160020160006101000a81548173ffffffffffffffffffffffffffffffffffffffff021916908373ffffffffffffffffffffffffffffffffffffffff16021790555060038201548160030155600482015481600401556005820154816005015560068201548160060155600782015481600701556008820160009054906101000a900473ffffffffffffffffffffffffffffffffffffffff168160080160006101000a81548173ffffffffffffffffffffffffffffffffffffffff021916908373ffffffffffffffffffffffffffffffffffffffff1602179055506008820160149054906101000a900460ff168160080160146101000a81548160ff021916908360ff1602179055506008820160159054906101000a900460ff168160080160156101000a81548160ff021916908360058111156110e4576110e3613fe0565b5b021790555050507fc32e04bf1356c91e89bdc0de134ba5c3fc8df94d30cea4436e9346bc335199ed83838360405161111e939291906153d8565b60405180910390a1505050565b600160205280600052604060002060009150905080600001805461114e90614946565b80601f016020809104026020016040519081016040528092919081815260200182805461117a90614946565b80156111c75780601f1061119c576101008083540402835291602001916111c7565b820191906000526020600020905b8154815290600101906020018083116111aa57829003601f168201915b5050505050908060010180546111dc90614946565b80601f016020809104026020016040519081016040528092919081815260200182805461120890614946565b80156112555780601f1061122a57610100808354040283529160200191611255565b820191906000526020600020905b81548152906001019060200180831161123857829003601f168201915b50505050509080600201805461126a90614946565b80601f016020809104026020016040519081016040528092919081815260200182805461129690614946565b80156112e35780601f106112b8576101008083540402835291602001916112e3565b820191906000526020600020905b8154815290600101906020018083116112c657829003601f168201915b5050505050908060030180546112f890614946565b80601f016020809104026020016040519081016040528092919081815260200182805461132490614946565b80156113715780601f1061134657610100808354040283529160200191611371565b820191906000526020600020905b81548152906001019060200180831161135457829003601f168201915b50505050509080600401805461138690614946565b80601f01602080910402602001604051908101604052809291908181526020018280546113b290614946565b80156113ff5780601f106113d4576101008083540402835291602001916113ff565b820191906000526020600020905b8154815290600101906020018083116113e257829003601f168201915b5050505050908060050154908060060160009054906101000a900473ffffffffffffffffffffffffffffffffffffffff16905087565b8060c00160208101906114489190613d0c565b600c60009054906101000a900473ffffffffffffffffffffffffffffffffffffffff1673ffffffffffffffffffffffffffffffffffffffff1663b9209e33826040518263ffffffff1660e01b81526004016114a39190613b64565b602060405180830381865afa1580156114c0573d6000803e3d6000fd5b505050506040513d601f19601f820116820180604052508101906114e491906144f3565b611523576040517f08c379a000000000000000000000000000000000000000000000000000000000815260040161151a9061456c565b60405180910390fd5b8160c00160208101906115369190613d0c565b73ffffffffffffffffffffffffffffffffffffffff163373ffffffffffffffffffffffffffffffffffffffff16146115a3576040517f08c379a000000000000000000000000000000000000000000000000000000000815260040161159a9061545d565b60405180910390fd5b600060038111156115b7576115b6613fe0565b5b600660003373ffffffffffffffffffffffffffffffffffffffff1673ffffffffffffffffffffffffffffffffffffffff16815260200190815260200160002060009054906101000a900460ff16600381111561161657611615613fe0565b5b14611656576040517f08c379a000000000000000000000000000000000000000000000000000000000815260040161164d906154c9565b60405180910390fd5b81600160008460c001602081019061166e9190613d0c565b73ffffffffffffffffffffffffffffffffffffffff1673ffffffffffffffffffffffffffffffffffffffff16815260200190815260200160002081816116b491906155d4565b9050506001600660003373ffffffffffffffffffffffffffffffffffffffff1673ffffffffffffffffffffffffffffffffffffffff16815260200190815260200160002060006101000a81548160ff0219169083600381111561171a57611719613fe0565b5b02179055507f0a0028275fa37d11ea8d5d29fd14fd8aa6c52af0e0cf819b89ca2cd9193f11858260c00160208101906117539190613d0c565b6040516117609190613b64565b60405180910390a15050565b600a60009054906101000a900473ffffffffffffffffffffffffffffffffffffffff1673ffffffffffffffffffffffffffffffffffffffff163373ffffffffffffffffffffffffffffffffffffffff16146117fc576040517f08c379a00000000000000000000000000000000000000000000000000000000081526004016117f39061562e565b60405180910390fd5b600160058111156118105761180f613fe0565b5b600083836040516118229291906145bc565b908152602001604051809103902060080160159054906101000a900460ff16600581111561185357611852613fe0565b5b14611893576040517f08c379a000000000000000000000000000000000000000000000000000000000815260040161188a9061487a565b60405180910390fd5b6002600083836040516118a79291906145bc565b908152602001604051809103902060080160156101000a81548160ff021916908360058111156118da576118d9613fe0565b5b02179055506002600e600084846040516118f59291906145bc565b90815260200160405180910390206007015481548110611918576119176146f5565b5b906000526020600020906009020160080160156101000a81548160ff0219169083600581111561194b5761194a613fe0565b5b02179055507f039501081328ffe3eb02459ad6f6e90b69e23ba1422b574ee84c1f52b2fc03108282604051611981929190614602565b60405180910390a15050565b60048280516020810182018051848252602083016020850120818352809550505050505081815481106119bf57600080fd5b9060005260206000209060020201600091509150508060000160009054906101000a900473ffffffffffffffffffffffffffffffffffffffff16908060010154905082565b60096020528160005260406000208181548110611a2057600080fd5b906000526020600020906009020160009150915050806000018054611a4490614946565b80601f0160208091040260200160405190810160405280929190818152602001828054611a7090614946565b8015611abd5780601f10611a9257610100808354040283529160200191611abd565b820191906000526020600020905b815481529060010190602001808311611aa057829003601f168201915b505050505090806001018054611ad290614946565b80601f0160208091040260200160405190810160405280929190818152602001828054611afe90614946565b8015611b4b5780601f10611b2057610100808354040283529160200191611b4b565b820191906000526020600020905b815481529060010190602001808311611b2e57829003601f168201915b5050505050908060020160009054906101000a900473ffffffffffffffffffffffffffffffffffffffff16908060030154908060040154908060050154908060060154908060070154908060080160009054906101000a900473ffffffffffffffffffffffffffffffffffffffff16908060080160149054906101000a900460ff16908060080160159054906101000a900460ff1690508b565b600a60009054906101000a900473ffffffffffffffffffffffffffffffffffffffff1673ffffffffffffffffffffffffffffffffffffffff163373ffffffffffffffffffffffffffffffffffffffff1614611c75576040517f08c379a0000000000000000000000000000000000000000000000000000000008152600401611c6c9061562e565b60405180910390fd5b60026005811115611c8957611c88613fe0565b5b60008585604051611c9b9291906145bc565b908152602001604051809103902060080160159054906101000a900460ff166005811115611ccc57611ccb613fe0565b5b14611d105783836040517fb7165084000000000000000000000000000000000000000000000000000000008152600401611d07929190614602565b60405180910390fd5b8060038585604051611d239291906145bc565b908152602001604051809103902060006101000a81548173ffffffffffffffffffffffffffffffffffffffff021916908373ffffffffffffffffffffffffffffffffffffffff16021790555060046005811115611d8357611d82613fe0565b5b60008585604051611d959291906145bc565b908152602001604051809103902060080160159054906101000a900460ff166005811115611dc657611dc5613fe0565b5b50506004600e60008686604051611dde9291906145bc565b90815260200160405180910390206007015481548110611e0157611e006146f5565b5b906000526020600020906009020160080160156101000a81548160ff02191690836005811115611e3457611e33613fe0565b5b021790555060096000808686604051611e4e9291906145bc565b908152602001604051809103902060020160009054906101000a900473ffffffffffffffffffffffffffffffffffffffff1673ffffffffffffffffffffffffffffffffffffffff1673ffffffffffffffffffffffffffffffffffffffff16815260200190815260200160002060008585604051611ecc9291906145bc565b9081526020016040518091039020908060018154018082558091505060019003906000526020600020906009020160009091909190915060008201816000019081611f17919061504a565b5060018201816001019081611f2c919061504a565b506002820160009054906101000a900473ffffffffffffffffffffffffffffffffffffffff168160020160006101000a81548173ffffffffffffffffffffffffffffffffffffffff021916908373ffffffffffffffffffffffffffffffffffffffff16021790555060038201548160030155600482015481600401556005820154816005015560068201548160060155600782015481600701556008820160009054906101000a900473ffffffffffffffffffffffffffffffffffffffff168160080160006101000a81548173ffffffffffffffffffffffffffffffffffffffff021916908373ffffffffffffffffffffffffffffffffffffffff1602179055506008820160149054906101000a900460ff168160080160146101000a81548160ff021916908360ff1602179055506008820160159054906101000a900460ff168160080160156101000a81548160ff0219169083600581111561209357612092613fe0565b5b021790555050508073ffffffffffffffffffffffffffffffffffffffff1663d76805aa836040518263ffffffff1660e01b81526004016120d391906157a9565b600060405180830381600087803b1580156120ed57600080fd5b505af1158015612101573d6000803e3d6000fd5b50505050600d8290806001815401808255809150506001900390600052602060002090600b0201600090919091909150818161213d9190615983565b50507f44b55c2d9270546faf6ff2f0acac078011883b82782d9b08de2d3af4543c2b188484604051612170929190614602565b60405180910390a150505050565b6005818051602081018201805184825260208301602085012081835280955050505050506000915090505481565b6000600583836040516121c09291906145bc565b908152602001604051809103902054905092915050565b60026020528060005260406000206000915090508060000180546121fa90614946565b80601f016020809104026020016040519081016040528092919081815260200182805461222690614946565b80156122735780601f1061224857610100808354040283529160200191612273565b820191906000526020600020905b81548152906001019060200180831161225657829003601f168201915b50505050509080600101805461228890614946565b80601f01602080910402602001604051908101604052809291908181526020018280546122b490614946565b80156123015780601f106122d657610100808354040283529160200191612301565b820191906000526020600020905b8154815290600101906020018083116122e457829003601f168201915b50505050509080600201805461231690614946565b80601f016020809104026020016040519081016040528092919081815260200182805461234290614946565b801561238f5780601f106123645761010080835404028352916020019161238f565b820191906000526020600020905b81548152906001019060200180831161237257829003601f168201915b5050505050908060030160009054906101000a900473ffffffffffffffffffffffffffffffffffffffff16905084565b600a60009054906101000a900473ffffffffffffffffffffffffffffffffffffffff1673ffffffffffffffffffffffffffffffffffffffff163373ffffffffffffffffffffffffffffffffffffffff161461244f576040517f08c379a00000000000000000000000000000000000000000000000000000000081526004016124469061562e565b60405180910390fd5b6001600581111561246357612462613fe0565b5b600083836040516124759291906145bc565b908152602001604051809103902060080160159054906101000a900460ff1660058111156124a6576124a5613fe0565b5b146124e6576040517f08c379a00000000000000000000000000000000000000000000000000000000081526004016124dd9061487a565b60405180910390fd5b6003600083836040516124fa9291906145bc565b908152602001604051809103902060080160156101000a81548160ff0219169083600581111561252d5761252c613fe0565b5b02179055506003600e600084846040516125489291906145bc565b9081526020016040518091039020600701548154811061256b5761256a6146f5565b5b906000526020600020906009020160080160156101000a81548160ff0219169083600581111561259e5761259d613fe0565b5b02179055507f735ccdd611541d36c82a3622baab7f58b8a0f5be664555b0d9c95ddde16096d382826040516125d4929190614602565b60405180910390a15050565b600a60009054906101000a900473ffffffffffffffffffffffffffffffffffffffff1673ffffffffffffffffffffffffffffffffffffffff163373ffffffffffffffffffffffffffffffffffffffff1614612670576040517f08c379a00000000000000000000000000000000000000000000000000000000081526004016126679061562e565b60405180910390fd5b6001600381111561268457612683613fe0565b5b600760008373ffffffffffffffffffffffffffffffffffffffff1673ffffffffffffffffffffffffffffffffffffffff16815260200190815260200160002060009054906101000a900460ff1660038111156126e3576126e2613fe0565b5b14612723576040517f08c379a000000000000000000000000000000000000000000000000000000000815260040161271a906154c9565b60405180910390fd5b6002600760008373ffffffffffffffffffffffffffffffffffffffff1673ffffffffffffffffffffffffffffffffffffffff16815260200190815260200160002060006101000a81548160ff0219169083600381111561278657612785613fe0565b5b0217905550600b60009054906101000a900473ffffffffffffffffffffffffffffffffffffffff1673ffffffffffffffffffffffffffffffffffffffff1663cfde1890826040518263ffffffff1660e01b81526004016127e691906159dd565b600060405180830381600087803b15801561280057600080fd5b505af1158015612814573d6000803e3d6000fd5b505050507f45b6e306480b490c59801f6f851ed6d7d4bd880db4c8f75dd1112d2fc0a1c9d7816040516128479190613b64565b60405180910390a150565b600a60009054906101000a900473ffffffffffffffffffffffffffffffffffffffff1681565b600a60009054906101000a900473ffffffffffffffffffffffffffffffffffffffff1673ffffffffffffffffffffffffffffffffffffffff163373ffffffffffffffffffffffffffffffffffffffff1614612908576040517f08c379a00000000000000000000000000000000000000000000000000000000081526004016128ff9061562e565b60405180910390fd5b6001600381111561291c5761291b613fe0565b5b600660008373ffffffffffffffffffffffffffffffffffffffff1673ffffffffffffffffffffffffffffffffffffffff16815260200190815260200160002060009054906101000a900460ff16600381111561297b5761297a613fe0565b5b146129bb576040517f08c379a00000000000000000000000000000000000000000000000000000000081526004016129b2906154c9565b60405180910390fd5b6002600660008373ffffffffffffffffffffffffffffffffffffffff1673ffffffffffffffffffffffffffffffffffffffff16815260200190815260200160002060006101000a81548160ff02191690836003811115612a1e57612a1d613fe0565b5b0217905550600b60009054906101000a900473ffffffffffffffffffffffffffffffffffffffff1673ffffffffffffffffffffffffffffffffffffffff1663cfde1890826040518263ffffffff1660e01b8152600401612a7e9190615a57565b600060405180830381600087803b158015612a9857600080fd5b505af1158015612aac573d6000803e3d6000fd5b505050507f0e387c88130575bf91cadf15934854a1ed11d5c16d63f1106b6fd6e139d1202e81604051612adf9190613b64565b60405180910390a150565b600081805160208101820180518482526020830160208501208183528095505050505050600091509050806000018054612b2390614946565b80601f0160208091040260200160405190810160405280929190818152602001828054612b4f90614946565b8015612b9c5780601f10612b7157610100808354040283529160200191612b9c565b820191906000526020600020905b815481529060010190602001808311612b7f57829003601f168201915b505050505090806001018054612bb190614946565b80601f0160208091040260200160405190810160405280929190818152602001828054612bdd90614946565b8015612c2a5780601f10612bff57610100808354040283529160200191612c2a565b820191906000526020600020905b815481529060010190602001808311612c0d57829003601f168201915b5050505050908060020160009054906101000a900473ffffffffffffffffffffffffffffffffffffffff16908060030154908060040154908060050154908060060154908060070154908060080160009054906101000a900473ffffffffffffffffffffffffffffffffffffffff16908060080160149054906101000a900460ff16908060080160159054906101000a900460ff1690508b565b600a60009054906101000a900473ffffffffffffffffffffffffffffffffffffffff1673ffffffffffffffffffffffffffffffffffffffff163373ffffffffffffffffffffffffffffffffffffffff1614612d54576040517f08c379a0000000000000000000000000000000000000000000000000000000008152600401612d4b9061562e565b60405180910390fd5b60016003811115612d6857612d67613fe0565b5b600660008373ffffffffffffffffffffffffffffffffffffffff1673ffffffffffffffffffffffffffffffffffffffff16815260200190815260200160002060009054906101000a900460ff166003811115612dc757612dc6613fe0565b5b14612e07576040517f08c379a0000000000000000000000000000000000000000000000000000000008152600401612dfe906154c9565b60405180910390fd5b6003600660008373ffffffffffffffffffffffffffffffffffffffff1673ffffffffffffffffffffffffffffffffffffffff16815260200190815260200160002060006101000a81548160ff02191690836003811115612e6a57612e69613fe0565b5b02179055507fe341ab2ef130ae159f5f54c8be96a79ffe8f98948aa6d0e1bdeb60e6201ada2a81604051612e9e9190613b64565b60405180910390a150565b606060048383604051612ebd9291906145bc565b9081526020016040518091039020805480602002602001604051908101604052809291908181526020016000905b82821015612f7d57838290600052602060002090600202016040518060400160405290816000820160009054906101000a900473ffffffffffffffffffffffffffffffffffffffff1673ffffffffffffffffffffffffffffffffffffffff1673ffffffffffffffffffffffffffffffffffffffff16815260200160018201548152505081526020019060010190612eeb565b50505050905092915050565b600b60009054906101000a900473ffffffffffffffffffffffffffffffffffffffff1681565b600a60009054906101000a900473ffffffffffffffffffffffffffffffffffffffff1673ffffffffffffffffffffffffffffffffffffffff163373ffffffffffffffffffffffffffffffffffffffff161461303f576040517f08c379a00000000000000000000000000000000000000000000000000000000081526004016130369061562e565b60405180910390fd5b6001600381111561305357613052613fe0565b5b600760008373ffffffffffffffffffffffffffffffffffffffff1673ffffffffffffffffffffffffffffffffffffffff16815260200190815260200160002060009054906101000a900460ff1660038111156130b2576130b1613fe0565b5b146130f2576040517f08c379a00000000000000000000000000000000000000000000000000000000081526004016130e9906154c9565b60405180910390fd5b6003600760008373ffffffffffffffffffffffffffffffffffffffff1673ffffffffffffffffffffffffffffffffffffffff16815260200190815260200160002060006101000a81548160ff0219169083600381111561315557613154613fe0565b5b02179055507f7456ce1c99ee8a1b09f67c52be737a92db545ec137e72de0e1b70bc0c4a12809816040516131899190613b64565b60405180910390a150565b8060600160208101906131a79190613d0c565b600c60009054906101000a900473ffffffffffffffffffffffffffffffffffffffff1673ffffffffffffffffffffffffffffffffffffffff1663b9209e33826040518263ffffffff1660e01b81526004016132029190613b64565b602060405180830381865afa15801561321f573d6000803e3d6000fd5b505050506040513d601f19601f8201168201806040525081019061324391906144f3565b613282576040517f08c379a00000000000000000000000000000000000000000000000000000000081526004016132799061456c565b60405180910390fd5b8160600160208101906132959190613d0c565b73ffffffffffffffffffffffffffffffffffffffff163373ffffffffffffffffffffffffffffffffffffffff1614613302576040517f08c379a00000000000000000000000000000000000000000000000000000000081526004016132f99061545d565b60405180910390fd5b6000600381111561331657613315613fe0565b5b600760003373ffffffffffffffffffffffffffffffffffffffff1673ffffffffffffffffffffffffffffffffffffffff16815260200190815260200160002060009054906101000a900460ff16600381111561337557613374613fe0565b5b146133b5576040517f08c379a00000000000000000000000000000000000000000000000000000000081526004016133ac906154c9565b60405180910390fd5b81600260008460600160208101906133cd9190613d0c565b73ffffffffffffffffffffffffffffffffffffffff1673ffffffffffffffffffffffffffffffffffffffff16815260200190815260200160002081816134139190615b0d565b9050506001600760003373ffffffffffffffffffffffffffffffffffffffff1673ffffffffffffffffffffffffffffffffffffffff16815260200190815260200160002060006101000a81548160ff0219169083600381111561347957613478613fe0565b5b02179055507fe42136ccc1d423b080e7fa005aa542f4bc344c1e5420e3c313fbe9ce0077ad548260600160208101906134b29190613d0c565b6040516134bf9190613b64565b60405180910390a15050565b600a60009054906101000a900473ffffffffffffffffffffffffffffffffffffffff1673ffffffffffffffffffffffffffffffffffffffff163373ffffffffffffffffffffffffffffffffffffffff161461355b576040517f08c379a00000000000000000000000000000000000000000000000000000000081526004016135529061562e565b60405180910390fd5b6004600581111561356f5761356e613fe0565b5b600084846040516135819291906145bc565b908152602001604051809103902060080160159054906101000a900460ff1660058111156135b2576135b1613fe0565b5b146135f65782826040517fb71650840000000000000000000000000000000000000000000000000000000081526004016135ed929190614602565b60405180910390fd5b60058081111561360957613608613fe0565b5b6000848460405161361b9291906145bc565b908152602001604051809103902060080160159054906101000a900460ff16600581111561364c5761364b613fe0565b5b50506005600e600085856040516136649291906145bc565b90815260200160405180910390206007015481548110613687576136866146f5565b5b906000526020600020906009020160080160156101000a81548160ff021916908360058111156136ba576136b9613fe0565b5b02179055506005600960008086866040516136d69291906145bc565b908152602001604051809103902060020160009054906101000a900473ffffffffffffffffffffffffffffffffffffffff1673ffffffffffffffffffffffffffffffffffffffff1673ffffffffffffffffffffffffffffffffffffffff168152602001908152602001600020600085856040516137549291906145bc565b90815260200160405180910390206007015481548110613777576137766146f5565b5b906000526020600020906009020160080160156101000a81548160ff021916908360058111156137aa576137a9613fe0565b5b02179055508073ffffffffffffffffffffffffffffffffffffffff1663be040fb06040518163ffffffff1660e01b8152600401600060405180830381600087803b1580156137f757600080fd5b505af115801561380b573d6000803e3d6000fd5b505050507fdfdf42ff0d0eb3e6ec5b40d8cf21fb2f7102b67e5e2d56ab36e817f807213c5b8383604051613840929190614602565b60405180910390a1505050565b60076020528060005260406000206000915054906101000a900460ff1681565b60066020528060005260406000206000915054906101000a900460ff1681565b6003818051602081018201805184825260208301602085012081835280955050505050506000915054906101000a900473ffffffffffffffffffffffffffffffffffffffff1681565b6000604051905090565b600080fd5b600080fd5b600073ffffffffffffffffffffffffffffffffffffffff82169050919050565b6000613915826138ea565b9050919050565b6139258161390a565b811461393057600080fd5b50565b6000813590506139428161391c565b92915050565b600080fd5b600080fd5b6000601f19601f8301169050919050565b7f4e487b7100000000000000000000000000000000000000000000000000000000600052604160045260246000fd5b61399b82613952565b810181811067ffffffffffffffff821117156139ba576139b9613963565b5b80604052505050565b60006139cd6138d6565b90506139d98282613992565b919050565b600067ffffffffffffffff8211156139f9576139f8613963565b5b613a0282613952565b9050602081019050919050565b82818337600083830152505050565b6000613a31613a2c846139de565b6139c3565b905082815260208101848484011115613a4d57613a4c61394d565b5b613a58848285613a0f565b509392505050565b600082601f830112613a7557613a74613948565b5b8135613a85848260208601613a1e565b91505092915050565b60008060408385031215613aa557613aa46138e0565b5b6000613ab385828601613933565b925050602083013567ffffffffffffffff811115613ad457613ad36138e5565b5b613ae085828601613a60565b9150509250929050565b6000819050919050565b613afd81613aea565b82525050565b60008115159050919050565b613b1881613b03565b82525050565b6000606082019050613b336000830186613af4565b613b406020830185613b0f565b613b4d6040830184613af4565b949350505050565b613b5e8161390a565b82525050565b6000602082019050613b796000830184613b55565b92915050565b600080fd5b600080fd5b60008083601f840112613b9f57613b9e613948565b5b8235905067ffffffffffffffff811115613bbc57613bbb613b7f565b5b602083019150836001820283011115613bd857613bd7613b84565b5b9250929050565b613be881613aea565b8114613bf357600080fd5b50565b600081359050613c0581613bdf565b92915050565b600080600060408486031215613c2457613c236138e0565b5b600084013567ffffffffffffffff811115613c4257613c416138e5565b5b613c4e86828701613b89565b93509350506020613c6186828701613bf6565b9150509250925092565b600080fd5b60006101608284031215613c8757613c86613c6b565b5b81905092915050565b600080600060408486031215613ca957613ca86138e0565b5b600084013567ffffffffffffffff811115613cc757613cc66138e5565b5b613cd386828701613b89565b9350935050602084013567ffffffffffffffff811115613cf657613cf56138e5565b5b613d0286828701613c70565b9150509250925092565b600060208284031215613d2257613d216138e0565b5b6000613d3084828501613933565b91505092915050565b600081519050919050565b600082825260208201905092915050565b60005b83811015613d73578082015181840152602081019050613d58565b60008484015250505050565b6000613d8a82613d39565b613d948185613d44565b9350613da4818560208601613d55565b613dad81613952565b840191505092915050565b600060e0820190508181036000830152613dd2818a613d7f565b90508181036020830152613de68189613d7f565b90508181036040830152613dfa8188613d7f565b90508181036060830152613e0e8187613d7f565b90508181036080830152613e228186613d7f565b9050613e3160a0830185613af4565b613e3e60c0830184613b55565b98975050505050505050565b600060e08284031215613e6057613e5f613c6b565b5b81905092915050565b600060208284031215613e7f57613e7e6138e0565b5b600082013567ffffffffffffffff811115613e9d57613e9c6138e5565b5b613ea984828501613e4a565b91505092915050565b60008060208385031215613ec957613ec86138e0565b5b600083013567ffffffffffffffff811115613ee757613ee66138e5565b5b613ef385828601613b89565b92509250509250929050565b60008060408385031215613f1657613f156138e0565b5b600083013567ffffffffffffffff811115613f3457613f336138e5565b5b613f4085828601613a60565b9250506020613f5185828601613bf6565b9150509250929050565b6000604082019050613f706000830185613b55565b613f7d6020830184613af4565b9392505050565b60008060408385031215613f9b57613f9a6138e0565b5b6000613fa985828601613933565b9250506020613fba85828601613bf6565b9150509250929050565b600060ff82169050919050565b613fda81613fc4565b82525050565b7f4e487b7100000000000000000000000000000000000000000000000000000000600052602160045260246000fd5b600681106140205761401f613fe0565b5b50565b60008190506140318261400f565b919050565b600061404182614023565b9050919050565b61405181614036565b82525050565b6000610160820190508181036000830152614072818e613d7f565b90508181036020830152614086818d613d7f565b9050614095604083018c613b55565b6140a2606083018b613af4565b6140af608083018a613af4565b6140bc60a0830189613af4565b6140c960c0830188613af4565b6140d660e0830187613af4565b6140e4610100830186613b55565b6140f2610120830185613fd1565b614100610140830184614048565b9c9b505050505050505050505050565b6000610160828403121561412757614126613c6b565b5b81905092915050565b6000806000806060858703121561414a576141496138e0565b5b600085013567ffffffffffffffff811115614168576141676138e5565b5b61417487828801613b89565b9450945050602085013567ffffffffffffffff811115614197576141966138e5565b5b6141a387828801614110565b92505060406141b487828801613933565b91505092959194509250565b6000602082840312156141d6576141d56138e0565b5b600082013567ffffffffffffffff8111156141f4576141f36138e5565b5b61420084828501613a60565b91505092915050565b600060208201905061421e6000830184613af4565b92915050565b6000608082019050818103600083015261423e8187613d7f565b905081810360208301526142528186613d7f565b905081810360408301526142668185613d7f565b90506142756060830184613b55565b95945050505050565b600081519050919050565b600082825260208201905092915050565b6000819050602082019050919050565b6142b38161390a565b82525050565b6142c281613aea565b82525050565b6040820160008201516142de60008501826142aa565b5060208201516142f160208501826142b9565b50505050565b600061430383836142c8565b60408301905092915050565b6000602082019050919050565b60006143278261427e565b6143318185614289565b935061433c8361429a565b8060005b8381101561436d57815161435488826142f7565b975061435f8361430f565b925050600181019050614340565b5085935050505092915050565b60006020820190508181036000830152614394818461431c565b905092915050565b6000608082840312156143b2576143b1613c6b565b5b81905092915050565b6000602082840312156143d1576143d06138e0565b5b600082013567ffffffffffffffff8111156143ef576143ee6138e5565b5b6143fb8482850161439c565b91505092915050565b60008060006040848603121561441d5761441c6138e0565b5b600084013567ffffffffffffffff81111561443b5761443a6138e5565b5b61444786828701613b89565b9350935050602061445a86828701613933565b9150509250925092565b6004811061447557614474613fe0565b5b50565b600081905061448682614464565b919050565b600061449682614478565b9050919050565b6144a68161448b565b82525050565b60006020820190506144c1600083018461449d565b92915050565b6144d081613b03565b81146144db57600080fd5b50565b6000815190506144ed816144c7565b92915050565b600060208284031215614509576145086138e0565b5b6000614517848285016144de565b91505092915050565b7f4143434f554e545f4e4f545f414150524f564544000000000000000000000000600082015250565b6000614556601483613d44565b915061456182614520565b602082019050919050565b6000602082019050818103600083015261458581614549565b9050919050565b600081905092915050565b60006145a3838561458c565b93506145b0838584613a0f565b82840190509392505050565b60006145c9828486614597565b91508190509392505050565b60006145e18385613d44565b93506145ee838584613a0f565b6145f783613952565b840190509392505050565b6000602082019050818103600083015261461d8184866145d5565b90509392505050565b7f4e487b7100000000000000000000000000000000000000000000000000000000600052601160045260246000fd5b600061466082613aea565b915061466b83613aea565b925082820190508082111561468357614682614626565b5b92915050565b7f494e56414c49445f414d4f554e54000000000000000000000000000000000000600082015250565b60006146bf600e83613d44565b91506146ca82614689565b602082019050919050565b600060208201905081810360008301526146ee816146b2565b9050919050565b7f4e487b7100000000000000000000000000000000000000000000000000000000600052603260045260246000fd5b6000604082019050818103600083015261473f8185876145d5565b905061474e6020830184613b55565b949350505050565b7f4f4e4c595f495353554552530000000000000000000000000000000000000000600082015250565b600061478c600c83613d44565b915061479782614756565b602082019050919050565b600060208201905081810360008301526147bb8161477f565b9050919050565b7f494e56414c49445f4953535545525f4144445245535300000000000000000000600082015250565b60006147f8601683613d44565b9150614803826147c2565b602082019050919050565b60006020820190508181036000830152614827816147eb565b9050919050565b7f494e56414c49445f4445414c5f53544154555300000000000000000000000000600082015250565b6000614864601383613d44565b915061486f8261482e565b602082019050919050565b6000602082019050818103600083015261489381614857565b9050919050565b600080fd5b600080fd5b600080fd5b600080833560016020038436030381126148c6576148c561489a565b5b80840192508235915067ffffffffffffffff8211156148e8576148e761489f565b5b602083019250600182023603831315614904576149036148a4565b5b509250929050565b600082905092915050565b7f4e487b7100000000000000000000000000000000000000000000000000000000600052602260045260246000fd5b6000600282049050600182168061495e57607f821691505b60208210810361497157614970614917565b5b50919050565b60008190508160005260206000209050919050565b60006020601f8301049050919050565b600082821b905092915050565b6000600883026149d97fffffffffffffffffffffffffffffffffffffffffffffffffffffffffffffffff8261499c565b6149e3868361499c565b95508019841693508086168417925050509392505050565b6000819050919050565b6000614a20614a1b614a1684613aea565b6149fb565b613aea565b9050919050565b6000819050919050565b614a3a83614a05565b614a4e614a4682614a27565b8484546149a9565b825550505050565b600090565b614a63614a56565b614a6e818484614a31565b505050565b5b81811015614a9257614a87600082614a5b565b600181019050614a74565b5050565b601f821115614ad757614aa881614977565b614ab18461498c565b81016020851015614ac0578190505b614ad4614acc8561498c565b830182614a73565b50505b505050565b600082821c905092915050565b6000614afa60001984600802614adc565b1980831691505092915050565b6000614b138383614ae9565b9150826002028217905092915050565b614b2d838361490c565b67ffffffffffffffff811115614b4657614b45613963565b5b614b508254614946565b614b5b828285614a96565b6000601f831160018114614b8a5760008415614b78578287013590505b614b828582614b07565b865550614bea565b601f198416614b9886614977565b60005b82811015614bc057848901358255600182019150602085019450602081019050614b9b565b86831015614bdd5784890135614bd9601f891682614ae9565b8355505b6001600288020188555050505b50505050505050565b614bfe838383614b23565b505050565b60008135614c108161391c565b80915050919050565b60008160001b9050919050565b600073ffffffffffffffffffffffffffffffffffffffff614c4684614c19565b9350801983169250808416831791505092915050565b6000614c77614c72614c6d846138ea565b6149fb565b6138ea565b9050919050565b6000614c8982614c5c565b9050919050565b6000614c9b82614c7e565b9050919050565b6000819050919050565b614cb582614c90565b614cc8614cc182614ca2565b8354614c26565b8255505050565b60008135614cdc81613bdf565b80915050919050565b60007fffffffffffffffffffffffffffffffffffffffffffffffffffffffffffffffff614d1184614c19565b9350801983169250808416831791505092915050565b614d3082614a05565b614d43614d3c82614a27565b8354614ce5565b8255505050565b614d5381613fc4565b8114614d5e57600080fd5b50565b60008135614d6e81614d4a565b80915050919050565b60008160a01b9050919050565b600074ff0000000000000000000000000000000000000000614da584614d77565b9350801983169250808416831791505092915050565b6000614dd6614dd1614dcc84613fc4565b6149fb565b613fc4565b9050919050565b6000819050919050565b614df082614dbb565b614e03614dfc82614ddd565b8354614d84565b8255505050565b60068110614e1757600080fd5b50565b60008135614e2781614e0a565b80915050919050565b60008160a81b9050919050565b600075ff000000000000000000000000000000000000000000614e5f84614e30565b9350801983169250808416831791505092915050565b6000614e8082614023565b9050919050565b6000819050919050565b614e9a82614e75565b614ead614ea682614e87565b8354614e3d565b8255505050565b6000810160008301614ec681856148a9565b614ed1818386614bf3565b505050506001810160208301614ee781856148a9565b614ef2818386614bf3565b50505050600281016040830180614f0881614c03565b9050614f148184614cac565b505050600381016060830180614f2981614ccf565b9050614f358184614d27565b505050600481016080830180614f4a81614ccf565b9050614f568184614d27565b5050506005810160a0830180614f6b81614ccf565b9050614f778184614d27565b5050506006810160c0830180614f8c81614ccf565b9050614f988184614d27565b5050506007810160e0830180614fad81614ccf565b9050614fb98184614d27565b50505060088101610100830180614fcf81614c03565b9050614fdb8184614cac565b50505060088101610120830180614ff181614d61565b9050614ffd8184614de7565b5050506008810161014083018061501381614e1a565b905061501f8184614e91565b5050505050565b6150308282614eb4565b5050565b60008154905061504381614946565b9050919050565b818103615058575050615130565b61506182615034565b67ffffffffffffffff81111561507a57615079613963565b5b6150848254614946565b61508f828285614a96565b6000601f8311600181146150be57600084156150ac578287015490505b6150b68582614b07565b865550615129565b601f1984166150cc87614977565b96506150d786614977565b60005b828110156150ff578489015482556001820191506001850194506020810190506150da565b8683101561511c5784890154615118601f891682614ae9565b8355505b6001600288020188555050505b5050505050505b565b600080fd5b600080fd5b600080fd5b6000808335600160200384360303811261515e5761515d61513c565b5b83810192508235915060208301925067ffffffffffffffff82111561518657615185615132565b5b60018202360383131561519c5761519b615137565b5b509250929050565b600082825260208201905092915050565b60006151c183856151a4565b93506151ce838584613a0f565b6151d783613952565b840190509392505050565b60006151f16020840184613933565b905092915050565b60006152086020840184613bf6565b905092915050565b60008135905061521f81614d4a565b92915050565b60006152346020840184615210565b905092915050565b61524581613fc4565b82525050565b60008135905061525a81614e0a565b92915050565b600061526f602084018461524b565b905092915050565b61528081614036565b82525050565b6000610160830161529a6000840184615141565b85830360008701526152ad8382846151b5565b925050506152be6020840184615141565b85830360208701526152d18382846151b5565b925050506152e260408401846151e2565b6152ef60408601826142aa565b506152fd60608401846151f9565b61530a60608601826142b9565b5061531860808401846151f9565b61532560808601826142b9565b5061533360a08401846151f9565b61534060a08601826142b9565b5061534e60c08401846151f9565b61535b60c08601826142b9565b5061536960e08401846151f9565b61537660e08601826142b9565b506153856101008401846151e2565b6153936101008601826142aa565b506153a2610120840184615225565b6153b061012086018261523c565b506153bf610140840184615260565b6153cd610140860182615277565b508091505092915050565b600060408201905081810360008301526153f38185876145d5565b905081810360208301526154078184615286565b9050949350505050565b7f494e56414c49445f414444524553530000000000000000000000000000000000600082015250565b6000615447600f83613d44565b915061545282615411565b602082019050919050565b600060208201905081810360008301526154768161543a565b9050919050565b7f434845434b5f594f55525f535441545553000000000000000000000000000000600082015250565b60006154b3601183613d44565b91506154be8261547d565b602082019050919050565b600060208201905081810360008301526154e2816154a6565b9050919050565b60008101600083016154fb81856148a9565b615506818386614bf3565b50505050600181016020830161551c81856148a9565b615527818386614bf3565b50505050600281016040830161553d81856148a9565b615548818386614bf3565b50505050600381016060830161555e81856148a9565b615569818386614bf3565b50505050600481016080830161557f81856148a9565b61558a818386614bf3565b505050506005810160a08301806155a081614ccf565b90506155ac8184614d27565b5050506006810160c08301806155c181614c03565b90506155cd8184614cac565b5050505050565b6155de82826154e9565b5050565b7f4f4e4c595f544f504f535f4d414e414745520000000000000000000000000000600082015250565b6000615618601283613d44565b9150615623826155e2565b602082019050919050565b600060208201905081810360008301526156478161560b565b9050919050565b600061016083016156626000840184615141565b85830360008701526156758382846151b5565b925050506156866020840184615141565b85830360208701526156998382846151b5565b925050506156aa6040840184615141565b85830360408701526156bd8382846151b5565b925050506156ce60608401846151e2565b6156db60608601826142aa565b506156e960808401846151f9565b6156f660808601826142b9565b5061570460a08401846151f9565b61571160a08601826142b9565b5061571f60c08401846151f9565b61572c60c08601826142b9565b5061573a60e0840184615225565b61574760e086018261523c565b506157566101008401846151f9565b6157646101008601826142b9565b506157736101208401846151f9565b6157816101208601826142b9565b506157906101408401846151f9565b61579e6101408601826142b9565b508091505092915050565b600060208201905081810360008301526157c3818461564e565b905092915050565b600060ff6157d884614c19565b9350801983169250808416831791505092915050565b6157f782614dbb565b61580a61580382614ddd565b83546157cb565b8255505050565b600081016000830161582381856148a9565b61582e818386614bf3565b50505050600181016020830161584481856148a9565b61584f818386614bf3565b50505050600281016040830161586581856148a9565b615870818386614bf3565b5050505060038101606083018061588681614c03565b90506158928184614cac565b5050506004810160808301806158a781614ccf565b90506158b38184614d27565b5050506005810160a08301806158c881614ccf565b90506158d48184614d27565b5050506006810160c08301806158e981614ccf565b90506158f58184614d27565b5050506007810160e083018061590a81614d61565b905061591681846157ee565b5050506008810161010083018061592c81614ccf565b90506159388184614d27565b5050506009810161012083018061594e81614ccf565b905061595a8184614d27565b505050600a810161014083018061597081614ccf565b905061597c8184614d27565b5050505050565b61598d8282615811565b5050565b7f494e564553544f52000000000000000000000000000000000000000000000000600082015250565b60006159c7600883613d44565b91506159d282615991565b602082019050919050565b600060408201905081810360008301526159f6816159ba565b9050615a056020830184613b55565b92915050565b7f4953535545520000000000000000000000000000000000000000000000000000600082015250565b6000615a41600683613d44565b9150615a4c82615a0b565b602082019050919050565b60006040820190508181036000830152615a7081615a34565b9050615a7f6020830184613b55565b92915050565b6000810160008301615a9781856148a9565b615aa2818386614bf3565b505050506001810160208301615ab881856148a9565b615ac3818386614bf3565b505050506002810160408301615ad981856148a9565b615ae4818386614bf3565b50505050600381016060830180615afa81614c03565b9050615b068184614cac565b5050505050565b615b178282615a85565b505056fea2646970667358221220083a4e830e4eb0f3ed26570af17700aa8ee96c57e69e94d6a8f53e4650e63d2264736f6c63430008130033",
  "immutableReferences": {},
  "source": "// SPDX-License-Identifier: CC0-1.0\npragma solidity ^0.8.0;\n\nimport \"../interfaces/IToposBank.sol\";\nimport \"./ToposBankStorage.sol\";\nimport \"../interfaces/IRoles.sol\";\nimport \"../interfaces/IBonds.sol\";\n\ncontract ToposBank is IToposBank, ToposBankStorage {\n    constructor(\n        address _toposManager,\n        address _rolesContract,\n        address _identityRegistryContract\n    ) {\n        toposManager = _toposManager;\n        rolesContract = _rolesContract;\n        IRoles(_rolesContract).setRole(\"MANAGER\", _toposManager);\n        identityRegistryContract = _identityRegistryContract;\n    }\n\n    function requestRegistrationIssuer(\n        BondData.Issuer calldata _issuer\n    ) external mustBeApproved(_issuer.walletAddress) {\n        require(msg.sender == _issuer.walletAddress, \"INVALID_ADDRESS\");\n        require(\n            issuerStatus[msg.sender] == BondData.StakeHolderStatus.UNDEFINED,\n            \"CHECK_YOUR_STATUS\"\n        );\n\n        issuers[_issuer.walletAddress] = _issuer;\n        issuerStatus[msg.sender] = BondData.StakeHolderStatus.SUBMITTED;\n\n        emit RequestIssuerRegistration(_issuer.walletAddress);\n    }\n\n    function requestRegistrationInvestor(\n        BondData.Investor calldata _investor\n    ) external mustBeApproved(_investor.walletAddress) {\n        require(msg.sender == _investor.walletAddress, \"INVALID_ADDRESS\");\n        require(\n            investorStatus[msg.sender] == BondData.StakeHolderStatus.UNDEFINED,\n            \"CHECK_YOUR_STATUS\"\n        );\n\n        investors[_investor.walletAddress] = _investor;\n        investorStatus[msg.sender] = BondData.StakeHolderStatus.SUBMITTED;\n\n        emit RequestInvestorRegistration(_investor.walletAddress);\n    }\n\n    function approveIssuer(address _issuer) external onlyToposManager {\n        require(\n            issuerStatus[_issuer] == BondData.StakeHolderStatus.SUBMITTED,\n            \"CHECK_YOUR_STATUS\"\n        );\n\n        issuerStatus[_issuer] = BondData.StakeHolderStatus.APPROVED;\n        IRoles(rolesContract).setRole(\"ISSUER\", _issuer);\n\n        emit ApproveIssuer(_issuer);\n    }\n\n    function approveInvestor(address _investor) external onlyToposManager {\n        require(\n            investorStatus[_investor] == BondData.StakeHolderStatus.SUBMITTED,\n            \"CHECK_YOUR_STATUS\"\n        );\n\n        investorStatus[_investor] = BondData.StakeHolderStatus.APPROVED;\n        IRoles(rolesContract).setRole(\"INVESTOR\", _investor);\n\n        emit ApproveInvestor(_investor);\n    }\n\n    function rejectIssuer(address _issuer) external onlyToposManager {\n        require(\n            issuerStatus[_issuer] == BondData.StakeHolderStatus.SUBMITTED,\n            \"CHECK_YOUR_STATUS\"\n        );\n\n        issuerStatus[_issuer] = BondData.StakeHolderStatus.REJECTED;\n\n        emit RejectIssuer(_issuer);\n    }\n\n    function rejectInvestor(address _investor) external onlyToposManager {\n        require(\n            investorStatus[_investor] == BondData.StakeHolderStatus.SUBMITTED,\n            \"CHECK_YOUR_STATUS\"\n        );\n\n        investorStatus[_investor] = BondData.StakeHolderStatus.REJECTED;\n\n        emit RejectInvestor(_investor);\n    }\n\n    function submitDeal(\n        string calldata _dealID,\n        BondData.Deal calldata _deal\n    ) external {\n        require(\n            IRoles(rolesContract).isIssuer(msg.sender),\n            \"ONLY_ISSUERS\"\n        );\n        require(\n            msg.sender == _deal.issuerAddress,\n            \"INVALID_ISSUER_ADDRESS\"\n        );\n        require(\n            deals[_dealID].status == BondData.DealStatus.UNDEFINED,\n            \"INVALID_DEAL_STATUS\"\n        );\n\n        deals[_dealID] = _deal;\n        deals[_dealID].status = BondData.DealStatus.SUBMITTED;\n        deals[_dealID].index = listOfDeals.length;\n\n        listOfDeals.push(deals[_dealID]);\n\n        emit DealSubmitted(_dealID, _deal);\n    }\n\n    function approveDeal(\n        string calldata _dealID\n    ) external onlyToposManager {\n        require(\n            deals[_dealID].status == BondData.DealStatus.SUBMITTED,\n            \"INVALID_DEAL_STATUS\"\n        );\n\n        deals[_dealID].status = BondData.DealStatus.APPROVED;\n        listOfDeals[deals[_dealID].index].status = BondData.DealStatus.APPROVED;\n\n        emit DealAPproved(_dealID);\n    }\n\n    function rejectDeal(\n        string calldata _dealID\n    ) external onlyToposManager {\n        require(\n            deals[_dealID].status == BondData.DealStatus.SUBMITTED,\n            \"INVALID_DEAL_STATUS\"\n        );\n\n        deals[_dealID].status = BondData.DealStatus.REJECTED;\n        listOfDeals[deals[_dealID].index].status = BondData.DealStatus.REJECTED;\n\n        emit DealARejected(_dealID);\n    }\n\n    function registerForDeal(\n        string calldata _dealID,\n        uint256 _amount\n    ) external mustBeApproved(msg.sender) {\n        uint256 _totalAmountInvested = totalAmountInvestedForDeal[_dealID];\n\n        if(deals[_dealID].status != BondData.DealStatus.APPROVED)\n            revert BondData.InvalidDealStatus(_dealID);\n        require(\n            _amount != 0 && _amount + _totalAmountInvested <= deals[_dealID].debtAmount,\n            \"INVALID_AMOUNT\"\n        );\n\n        bool hasInvested = amountInvested[msg.sender][_dealID].hasInvested;\n        totalAmountInvestedForDeal[_dealID] = _totalAmountInvested + _amount;\n\n        if(hasInvested) {\n            uint256 index = amountInvested[msg.sender][_dealID].index;\n            uint256 amount  = amountInvested[msg.sender][_dealID].amount;\n\n            dealInvestment[_dealID][index].amount = amount + _amount;\n            amountInvested[msg.sender][_dealID].amount = amount + _amount;\n        } else {\n            amountInvested[msg.sender][_dealID] =  BondData.Investment(\n                {\n                    amount: _amount,\n                    hasInvested: true,\n                    index: dealInvestment[_dealID].length\n                }\n            );\n\n            dealInvestment[_dealID].push(\n                BondData.DealInvestment(\n                    {\n                        investor: msg.sender,\n                        amount: _amount\n                    }\n                )\n            );       \n        }\n\n        emit RegisterForDeal(_dealID, msg.sender);\n    }\n\n    function issue(\n        string calldata _dealID,\n        BondData.Bond calldata _bond,\n        address _bondContract\n    ) external onlyToposManager {\n        if(deals[_dealID].status != BondData.DealStatus.APPROVED)\n            revert BondData.InvalidDealStatus(_dealID);\n\n        dealBondContracts[_dealID] = _bondContract;\n\n        deals[_dealID].status != BondData.DealStatus.ISSUED;\n        listOfDeals[deals[_dealID].index].status = BondData.DealStatus.ISSUED;\n        issuerDeals[deals[_dealID].issuerAddress].push(deals[_dealID]);\n\n        IBonds(_bondContract).issue(_bond);\n\n        bonds.push(_bond);\n\n        emit BondIssue(_dealID);\n    }\n\n    function redeem(\n        string calldata _dealID,\n        address _bondContract\n    ) external onlyToposManager {\n        if(deals[_dealID].status != BondData.DealStatus.ISSUED)\n            revert BondData.InvalidDealStatus(_dealID);\n\n        deals[_dealID].status != BondData.DealStatus.REDEEMED;\n        listOfDeals[deals[_dealID].index].status = BondData.DealStatus.REDEEMED;\n        issuerDeals[deals[_dealID].issuerAddress][deals[_dealID].index].status = BondData.DealStatus.REDEEMED;\n\n        IBonds(_bondContract).redeem();\n\n        emit BondRedeem(_dealID);\n    }\n\n    function getTotalAmounInvested(\n        string calldata _dealID\n    ) external view returns(uint256) {\n        return totalAmountInvestedForDeal[_dealID];\n    }\n\n    function getDealInvestment(\n        string calldata _dealID\n    ) external view returns(BondData.DealInvestment[] memory) {\n        return dealInvestment[_dealID];\n    }\n}",
  "sourcePath": "/Users/sam/Documents/Blockchain/Topos/ToposGrant/T-Grant/contracts/Topos/Bank/ToposBank.sol",
  "compiler": {
    "name": "solc",
    "version": "0.8.19+commit.7dd6d404.Emscripten.clang"
  },
  "schemaVersion": "3.4.9",
  "updatedAt": "2023-11-06T00:16:33.252Z",
  "devdoc": {
    "kind": "dev",
    "methods": {},
    "version": 1
  },
  "userdoc": {
    "kind": "user",
    "methods": {},
    "version": 1
  }
}