{
  "contractName": "ToposBank",
  "abi": [
    {
      "inputs": [
        {
          "internalType": "address",
          "name": "_toposManager",
          "type": "address"
        },
        {
          "internalType": "address",
          "name": "_rolesContract",
          "type": "address"
        },
        {
          "internalType": "address",
          "name": "_identityRegistryContract",
          "type": "address"
        },
        {
          "internalType": "uint256",
          "name": "_dealFees",
          "type": "uint256"
        }
      ],
      "stateMutability": "nonpayable",
      "type": "constructor"
    },
    {
      "inputs": [
        {
          "internalType": "string",
          "name": "dealID",
          "type": "string"
        }
      ],
      "name": "InvalidDealStatus",
      "type": "error"
    },
    {
      "anonymous": false,
      "inputs": [
        {
          "indexed": false,
          "internalType": "address",
          "name": "investor",
          "type": "address"
        }
      ],
      "name": "ApproveInvestor",
      "type": "event"
    },
    {
      "anonymous": false,
      "inputs": [
        {
          "indexed": false,
          "internalType": "address",
          "name": "issuer",
          "type": "address"
        }
      ],
      "name": "ApproveIssuer",
      "type": "event"
    },
    {
      "anonymous": false,
      "inputs": [
        {
          "indexed": false,
          "internalType": "string",
          "name": "_dealID",
          "type": "string"
        }
      ],
      "name": "BondIssue",
      "type": "event"
    },
    {
      "anonymous": false,
      "inputs": [
        {
          "indexed": false,
          "internalType": "string",
          "name": "_dealID",
          "type": "string"
        }
      ],
      "name": "BondRedeem",
      "type": "event"
    },
    {
      "anonymous": false,
      "inputs": [
        {
          "indexed": false,
          "internalType": "string",
          "name": "dealID",
          "type": "string"
        }
      ],
      "name": "DealAPproved",
      "type": "event"
    },
    {
      "anonymous": false,
      "inputs": [
        {
          "indexed": false,
          "internalType": "string",
          "name": "dealID",
          "type": "string"
        }
      ],
      "name": "DealARejected",
      "type": "event"
    },
    {
      "anonymous": false,
      "inputs": [
        {
          "indexed": false,
          "internalType": "string",
          "name": "dealID",
          "type": "string"
        },
        {
          "components": [
            {
              "internalType": "string",
              "name": "dealID",
              "type": "string"
            },
            {
              "internalType": "string",
              "name": "prospectusURI",
              "type": "string"
            },
            {
              "internalType": "address",
              "name": "issuerAddress",
              "type": "address"
            },
            {
              "internalType": "uint256",
              "name": "debtAmount",
              "type": "uint256"
            },
            {
              "internalType": "uint256",
              "name": "couponRate",
              "type": "uint256"
            },
            {
              "internalType": "uint256",
              "name": "couponFrequency",
              "type": "uint256"
            },
            {
              "internalType": "uint256",
              "name": "maturityDate",
              "type": "uint256"
            },
            {
              "internalType": "uint256",
              "name": "index",
              "type": "uint256"
            },
            {
              "internalType": "address",
              "name": "currency",
              "type": "address"
            },
            {
              "internalType": "uint8",
              "name": "couponType",
              "type": "uint8"
            },
            {
              "internalType": "enum BondData.DealStatus",
              "name": "status",
              "type": "uint8"
            }
          ],
          "indexed": false,
          "internalType": "struct BondData.Deal",
          "name": "deal",
          "type": "tuple"
        }
      ],
      "name": "DealSubmitted",
      "type": "event"
    },
    {
      "anonymous": false,
      "inputs": [
        {
          "indexed": false,
          "internalType": "string",
          "name": "dealID",
          "type": "string"
        },
        {
          "indexed": false,
          "internalType": "address",
          "name": "investor",
          "type": "address"
        }
      ],
      "name": "RegisterForDeal",
      "type": "event"
    },
    {
      "anonymous": false,
      "inputs": [
        {
          "indexed": false,
          "internalType": "address",
          "name": "investor",
          "type": "address"
        }
      ],
      "name": "RejectInvestor",
      "type": "event"
    },
    {
      "anonymous": false,
      "inputs": [
        {
          "indexed": false,
          "internalType": "address",
          "name": "issuer",
          "type": "address"
        }
      ],
      "name": "RejectIssuer",
      "type": "event"
    },
    {
      "anonymous": false,
      "inputs": [
        {
          "indexed": false,
          "internalType": "address",
          "name": "investor",
          "type": "address"
        }
      ],
      "name": "RequestInvestorRegistration",
      "type": "event"
    },
    {
      "anonymous": false,
      "inputs": [
        {
          "indexed": false,
          "internalType": "address",
          "name": "issuer",
          "type": "address"
        }
      ],
      "name": "RequestIssuerRegistration",
      "type": "event"
    },
    {
      "inputs": [
        {
          "internalType": "address",
          "name": "",
          "type": "address"
        },
        {
          "internalType": "string",
          "name": "",
          "type": "string"
        }
      ],
      "name": "amountInvested",
      "outputs": [
        {
          "internalType": "uint256",
          "name": "amount",
          "type": "uint256"
        },
        {
          "internalType": "bool",
          "name": "hasInvested",
          "type": "bool"
        },
        {
          "internalType": "uint256",
          "name": "index",
          "type": "uint256"
        }
      ],
      "stateMutability": "view",
      "type": "function"
    },
    {
      "inputs": [
        {
          "internalType": "string",
          "name": "",
          "type": "string"
        }
      ],
      "name": "dealBondContracts",
      "outputs": [
        {
          "internalType": "address",
          "name": "",
          "type": "address"
        }
      ],
      "stateMutability": "view",
      "type": "function"
    },
    {
      "inputs": [],
      "name": "dealFees",
      "outputs": [
        {
          "internalType": "uint256",
          "name": "",
          "type": "uint256"
        }
      ],
      "stateMutability": "view",
      "type": "function"
    },
    {
      "inputs": [
        {
          "internalType": "string",
          "name": "",
          "type": "string"
        },
        {
          "internalType": "uint256",
          "name": "",
          "type": "uint256"
        }
      ],
      "name": "dealInvestment",
      "outputs": [
        {
          "internalType": "address",
          "name": "investor",
          "type": "address"
        },
        {
          "internalType": "uint256",
          "name": "amount",
          "type": "uint256"
        }
      ],
      "stateMutability": "view",
      "type": "function"
    },
    {
      "inputs": [
        {
          "internalType": "string",
          "name": "",
          "type": "string"
        }
      ],
      "name": "deals",
      "outputs": [
        {
          "internalType": "string",
          "name": "dealID",
          "type": "string"
        },
        {
          "internalType": "string",
          "name": "prospectusURI",
          "type": "string"
        },
        {
          "internalType": "address",
          "name": "issuerAddress",
          "type": "address"
        },
        {
          "internalType": "uint256",
          "name": "debtAmount",
          "type": "uint256"
        },
        {
          "internalType": "uint256",
          "name": "couponRate",
          "type": "uint256"
        },
        {
          "internalType": "uint256",
          "name": "couponFrequency",
          "type": "uint256"
        },
        {
          "internalType": "uint256",
          "name": "maturityDate",
          "type": "uint256"
        },
        {
          "internalType": "uint256",
          "name": "index",
          "type": "uint256"
        },
        {
          "internalType": "address",
          "name": "currency",
          "type": "address"
        },
        {
          "internalType": "uint8",
          "name": "couponType",
          "type": "uint8"
        },
        {
          "internalType": "enum BondData.DealStatus",
          "name": "status",
          "type": "uint8"
        }
      ],
      "stateMutability": "view",
      "type": "function"
    },
    {
      "inputs": [],
      "name": "identityRegistryContract",
      "outputs": [
        {
          "internalType": "address",
          "name": "",
          "type": "address"
        }
      ],
      "stateMutability": "view",
      "type": "function"
    },
    {
      "inputs": [
        {
          "internalType": "address",
          "name": "",
          "type": "address"
        }
      ],
      "name": "investorStatus",
      "outputs": [
        {
          "internalType": "enum BondData.StakeHolderStatus",
          "name": "",
          "type": "uint8"
        }
      ],
      "stateMutability": "view",
      "type": "function"
    },
    {
      "inputs": [
        {
          "internalType": "address",
          "name": "",
          "type": "address"
        }
      ],
      "name": "investors",
      "outputs": [
        {
          "internalType": "string",
          "name": "name",
          "type": "string"
        },
        {
          "internalType": "string",
          "name": "country",
          "type": "string"
        },
        {
          "internalType": "string",
          "name": "investorType",
          "type": "string"
        },
        {
          "internalType": "address",
          "name": "walletAddress",
          "type": "address"
        }
      ],
      "stateMutability": "view",
      "type": "function"
    },
    {
      "inputs": [
        {
          "internalType": "address",
          "name": "",
          "type": "address"
        },
        {
          "internalType": "uint256",
          "name": "",
          "type": "uint256"
        }
      ],
      "name": "issuerDeals",
      "outputs": [
        {
          "internalType": "string",
          "name": "dealID",
          "type": "string"
        },
        {
          "internalType": "string",
          "name": "prospectusURI",
          "type": "string"
        },
        {
          "internalType": "address",
          "name": "issuerAddress",
          "type": "address"
        },
        {
          "internalType": "uint256",
          "name": "debtAmount",
          "type": "uint256"
        },
        {
          "internalType": "uint256",
          "name": "couponRate",
          "type": "uint256"
        },
        {
          "internalType": "uint256",
          "name": "couponFrequency",
          "type": "uint256"
        },
        {
          "internalType": "uint256",
          "name": "maturityDate",
          "type": "uint256"
        },
        {
          "internalType": "uint256",
          "name": "index",
          "type": "uint256"
        },
        {
          "internalType": "address",
          "name": "currency",
          "type": "address"
        },
        {
          "internalType": "uint8",
          "name": "couponType",
          "type": "uint8"
        },
        {
          "internalType": "enum BondData.DealStatus",
          "name": "status",
          "type": "uint8"
        }
      ],
      "stateMutability": "view",
      "type": "function"
    },
    {
      "inputs": [
        {
          "internalType": "address",
          "name": "",
          "type": "address"
        }
      ],
      "name": "issuerStatus",
      "outputs": [
        {
          "internalType": "enum BondData.StakeHolderStatus",
          "name": "",
          "type": "uint8"
        }
      ],
      "stateMutability": "view",
      "type": "function"
    },
    {
      "inputs": [
        {
          "internalType": "address",
          "name": "",
          "type": "address"
        }
      ],
      "name": "issuers",
      "outputs": [
        {
          "internalType": "string",
          "name": "documentURI",
          "type": "string"
        },
        {
          "internalType": "string",
          "name": "name",
          "type": "string"
        },
        {
          "internalType": "string",
          "name": "country",
          "type": "string"
        },
        {
          "internalType": "string",
          "name": "issuerType",
          "type": "string"
        },
        {
          "internalType": "string",
          "name": "creditRating",
          "type": "string"
        },
        {
          "internalType": "uint256",
          "name": "carbonCredit",
          "type": "uint256"
        },
        {
          "internalType": "address",
          "name": "walletAddress",
          "type": "address"
        }
      ],
      "stateMutability": "view",
      "type": "function"
    },
    {
      "inputs": [],
      "name": "issuersFundContract",
      "outputs": [
        {
          "internalType": "address",
          "name": "",
          "type": "address"
        }
      ],
      "stateMutability": "view",
      "type": "function"
    },
    {
      "inputs": [],
      "name": "rolesContract",
      "outputs": [
        {
          "internalType": "address",
          "name": "",
          "type": "address"
        }
      ],
      "stateMutability": "view",
      "type": "function"
    },
    {
      "inputs": [],
      "name": "toposManager",
      "outputs": [
        {
          "internalType": "address",
          "name": "",
          "type": "address"
        }
      ],
      "stateMutability": "view",
      "type": "function"
    },
    {
      "inputs": [
        {
          "internalType": "string",
          "name": "",
          "type": "string"
        }
      ],
      "name": "totalAmountInvestedForDeal",
      "outputs": [
        {
          "internalType": "uint256",
          "name": "",
          "type": "uint256"
        }
      ],
      "stateMutability": "view",
      "type": "function"
    },
    {
      "inputs": [
        {
          "components": [
            {
              "internalType": "string",
              "name": "documentURI",
              "type": "string"
            },
            {
              "internalType": "string",
              "name": "name",
              "type": "string"
            },
            {
              "internalType": "string",
              "name": "country",
              "type": "string"
            },
            {
              "internalType": "string",
              "name": "issuerType",
              "type": "string"
            },
            {
              "internalType": "string",
              "name": "creditRating",
              "type": "string"
            },
            {
              "internalType": "uint256",
              "name": "carbonCredit",
              "type": "uint256"
            },
            {
              "internalType": "address",
              "name": "walletAddress",
              "type": "address"
            }
          ],
          "internalType": "struct BondData.Issuer",
          "name": "_issuer",
          "type": "tuple"
        }
      ],
      "name": "requestRegistrationIssuer",
      "outputs": [],
      "stateMutability": "nonpayable",
      "type": "function"
    },
    {
      "inputs": [
        {
          "components": [
            {
              "internalType": "string",
              "name": "name",
              "type": "string"
            },
            {
              "internalType": "string",
              "name": "country",
              "type": "string"
            },
            {
              "internalType": "string",
              "name": "investorType",
              "type": "string"
            },
            {
              "internalType": "address",
              "name": "walletAddress",
              "type": "address"
            }
          ],
          "internalType": "struct BondData.Investor",
          "name": "_investor",
          "type": "tuple"
        }
      ],
      "name": "requestRegistrationInvestor",
      "outputs": [],
      "stateMutability": "nonpayable",
      "type": "function"
    },
    {
      "inputs": [
        {
          "internalType": "address",
          "name": "_issuer",
          "type": "address"
        }
      ],
      "name": "approveIssuer",
      "outputs": [],
      "stateMutability": "nonpayable",
      "type": "function"
    },
    {
      "inputs": [
        {
          "internalType": "address",
          "name": "_investor",
          "type": "address"
        }
      ],
      "name": "approveInvestor",
      "outputs": [],
      "stateMutability": "nonpayable",
      "type": "function"
    },
    {
      "inputs": [
        {
          "internalType": "address",
          "name": "_issuer",
          "type": "address"
        }
      ],
      "name": "rejectIssuer",
      "outputs": [],
      "stateMutability": "nonpayable",
      "type": "function"
    },
    {
      "inputs": [
        {
          "internalType": "address",
          "name": "_investor",
          "type": "address"
        }
      ],
      "name": "rejectInvestor",
      "outputs": [],
      "stateMutability": "nonpayable",
      "type": "function"
    },
    {
      "inputs": [
        {
          "internalType": "string",
          "name": "_dealID",
          "type": "string"
        },
        {
          "components": [
            {
              "internalType": "string",
              "name": "dealID",
              "type": "string"
            },
            {
              "internalType": "string",
              "name": "prospectusURI",
              "type": "string"
            },
            {
              "internalType": "address",
              "name": "issuerAddress",
              "type": "address"
            },
            {
              "internalType": "uint256",
              "name": "debtAmount",
              "type": "uint256"
            },
            {
              "internalType": "uint256",
              "name": "couponRate",
              "type": "uint256"
            },
            {
              "internalType": "uint256",
              "name": "couponFrequency",
              "type": "uint256"
            },
            {
              "internalType": "uint256",
              "name": "maturityDate",
              "type": "uint256"
            },
            {
              "internalType": "uint256",
              "name": "index",
              "type": "uint256"
            },
            {
              "internalType": "address",
              "name": "currency",
              "type": "address"
            },
            {
              "internalType": "uint8",
              "name": "couponType",
              "type": "uint8"
            },
            {
              "internalType": "enum BondData.DealStatus",
              "name": "status",
              "type": "uint8"
            }
          ],
          "internalType": "struct BondData.Deal",
          "name": "_deal",
          "type": "tuple"
        }
      ],
      "name": "submitDeal",
      "outputs": [],
      "stateMutability": "nonpayable",
      "type": "function"
    },
    {
      "inputs": [
        {
          "internalType": "string",
          "name": "_dealID",
          "type": "string"
        }
      ],
      "name": "approveDeal",
      "outputs": [],
      "stateMutability": "nonpayable",
      "type": "function"
    },
    {
      "inputs": [
        {
          "internalType": "string",
          "name": "_dealID",
          "type": "string"
        }
      ],
      "name": "rejectDeal",
      "outputs": [],
      "stateMutability": "nonpayable",
      "type": "function"
    },
    {
      "inputs": [
        {
          "internalType": "string",
          "name": "_dealID",
          "type": "string"
        },
        {
          "internalType": "uint256",
          "name": "_amount",
          "type": "uint256"
        }
      ],
      "name": "registerForDeal",
      "outputs": [],
      "stateMutability": "nonpayable",
      "type": "function"
    },
    {
      "inputs": [
        {
          "internalType": "string",
          "name": "_dealID",
          "type": "string"
        },
        {
          "components": [
            {
              "internalType": "string",
              "name": "isin",
              "type": "string"
            },
            {
              "internalType": "string",
              "name": "name",
              "type": "string"
            },
            {
              "internalType": "string",
              "name": "symbol",
              "type": "string"
            },
            {
              "internalType": "address",
              "name": "currency",
              "type": "address"
            },
            {
              "internalType": "uint256",
              "name": "denomination",
              "type": "uint256"
            },
            {
              "internalType": "uint256",
              "name": "issueVolume",
              "type": "uint256"
            },
            {
              "internalType": "uint256",
              "name": "couponRate",
              "type": "uint256"
            },
            {
              "internalType": "uint8",
              "name": "couponType",
              "type": "uint8"
            },
            {
              "internalType": "uint256",
              "name": "couponFrequency",
              "type": "uint256"
            },
            {
              "internalType": "uint256",
              "name": "issueDate",
              "type": "uint256"
            },
            {
              "internalType": "uint256",
              "name": "maturityDate",
              "type": "uint256"
            }
          ],
          "internalType": "struct BondData.Bond",
          "name": "_bond",
          "type": "tuple"
        },
        {
          "internalType": "address",
          "name": "_bondContract",
          "type": "address"
        }
      ],
      "name": "issue",
      "outputs": [],
      "stateMutability": "nonpayable",
      "type": "function"
    },
    {
      "inputs": [
        {
          "internalType": "string",
          "name": "_dealID",
          "type": "string"
        },
        {
          "internalType": "address",
          "name": "_bondContract",
          "type": "address"
        }
      ],
      "name": "redeem",
      "outputs": [],
      "stateMutability": "nonpayable",
      "type": "function"
    },
    {
      "inputs": [
        {
          "internalType": "string",
          "name": "_dealID",
          "type": "string"
        }
      ],
      "name": "getTotalAmounInvested",
      "outputs": [
        {
          "internalType": "uint256",
          "name": "",
          "type": "uint256"
        }
      ],
      "stateMutability": "view",
      "type": "function"
    },
    {
      "inputs": [
        {
          "internalType": "string",
          "name": "_dealID",
          "type": "string"
        }
      ],
      "name": "getDealInvestment",
      "outputs": [
        {
          "components": [
            {
              "internalType": "address",
              "name": "investor",
              "type": "address"
            },
            {
              "internalType": "uint256",
              "name": "amount",
              "type": "uint256"
            }
          ],
          "internalType": "struct BondData.DealInvestment[]",
          "name": "",
          "type": "tuple[]"
        }
      ],
      "stateMutability": "view",
      "type": "function"
    },
    {
      "inputs": [
        {
          "internalType": "address",
          "name": "_issuerFundContract",
          "type": "address"
        }
      ],
      "name": "setIssuerFundContract",
      "outputs": [],
      "stateMutability": "nonpayable",
      "type": "function"
    },
    {
      "inputs": [],
      "name": "getDealFees",
      "outputs": [
        {
          "internalType": "uint256",
          "name": "",
          "type": "uint256"
        }
      ],
      "stateMutability": "view",
      "type": "function"
    }
  ],
  "bytecode": "0x60806040523480156200001157600080fd5b50604051620063623803806200636283398181016040528101906200003791906200021f565b83600a60006101000a81548173ffffffffffffffffffffffffffffffffffffffff021916908373ffffffffffffffffffffffffffffffffffffffff16021790555082600b60006101000a81548173ffffffffffffffffffffffffffffffffffffffff021916908373ffffffffffffffffffffffffffffffffffffffff1602179055508273ffffffffffffffffffffffffffffffffffffffff1663cfde1890856040518263ffffffff1660e01b8152600401620000f4919062000303565b600060405180830381600087803b1580156200010f57600080fd5b505af115801562000124573d6000803e3d6000fd5b5050505081600c60006101000a81548173ffffffffffffffffffffffffffffffffffffffff021916908373ffffffffffffffffffffffffffffffffffffffff16021790555080600e819055505050505062000335565b600080fd5b600073ffffffffffffffffffffffffffffffffffffffff82169050919050565b6000620001ac826200017f565b9050919050565b620001be816200019f565b8114620001ca57600080fd5b50565b600081519050620001de81620001b3565b92915050565b6000819050919050565b620001f981620001e4565b81146200020557600080fd5b50565b6000815190506200021981620001ee565b92915050565b600080600080608085870312156200023c576200023b6200017a565b5b60006200024c87828801620001cd565b94505060206200025f87828801620001cd565b93505060406200027287828801620001cd565b9250506060620002858782880162000208565b91505092959194509250565b600082825260208201905092915050565b7f4d414e4147455200000000000000000000000000000000000000000000000000600082015250565b6000620002da60078362000291565b9150620002e782620002a2565b602082019050919050565b620002fd816200019f565b82525050565b600060408201905081810360008301526200031e81620002cb565b90506200032f6020830184620002f2565b92915050565b61601d80620003456000396000f3fe608060405234801561001057600080fd5b50600436106101e55760003560e01c80637de141291161010f578063d304a813116100a2578063fb90e44111610071578063fb90e441146105ce578063fcbb3c18146105ec578063fe0ab4b31461061c578063ff6689d01461064c576101e5565b8063d304a8131461054a578063d31628a014610566578063d7c4029c14610582578063f936d49d1461059e576101e5565b8063af9080f8116100de578063af9080f8146104c2578063c88efe65146104e0578063c8d7f62e146104fc578063ca53b3911461052c576101e5565b80637de14129146104325780637f31ed731461044e57806382deb86e1461046c578063a0a57dac14610488576101e5565b8063499fa18a11610187578063605936ea11610156578063605936ea146103975780636f7bc9be146103c7578063754f399a146103fa5780637bafe3d014610416576101e5565b8063499fa18a146102e057806349f5d1d914610311578063507251cb1461034b5780635ed7e2c114610367576101e5565b806323c8d706116101c357806323c8d7061461025657806338a7543e146102725780633dc349be146102a857806348f92ee8146102c4576101e5565b8063041e9b89146101ea578063088674e01461021c5780630df8bfda1461023a575b600080fd5b61020460048036038101906101ff9190613e43565b61066a565b60405161021393929190613ed3565b60405180910390f35b6102246106c4565b6040516102319190613f19565b60405180910390f35b610254600480360381019061024f9190613fc0565b6106ea565b005b610270600480360381019061026b9190614045565b610eaa565b005b61028c600480360381019061028791906140c1565b611367565b60405161029f979695949392919061416d565b60405180910390f35b6102c260048036038101906102bd919061421e565b611671565b005b6102de60048036038101906102d99190614267565b6119a8565b005b6102fa60048036038101906102f591906142b4565b611bc9565b604051610308929190614310565b60405180910390f35b61032b60048036038101906103269190614339565b611c40565b6040516103429b9a9998979695949392919061440c565b60405180910390f35b610365600480360381019061036091906144e5565b611e21565b005b610381600480360381019061037c9190614575565b6123ba565b60405161038e91906145be565b60405180910390f35b6103b160048036038101906103ac9190614267565b6123e8565b6040516103be91906145be565b60405180910390f35b6103e160048036038101906103dc91906140c1565b612413565b6040516103f194939291906145d9565b60405180910390f35b610414600480360381019061040f9190614267565b6125fb565b005b610430600480360381019061042b91906140c1565b61281c565b005b61044c600480360381019061044791906140c1565b61295f565b005b610456612bd1565b6040516104639190613f19565b60405180910390f35b610486600480360381019061048191906140c1565b612bf7565b005b6104a2600480360381019061049d9190614575565b612e69565b6040516104b99b9a9998979695949392919061440c565b60405180910390f35b6104ca613043565b6040516104d791906145be565b60405180910390f35b6104fa60048036038101906104f591906140c1565b613049565b005b61051660048036038101906105119190614267565b61322e565b604051610523919061472f565b60405180910390f35b61053461330e565b6040516105419190613f19565b60405180910390f35b610564600480360381019061055f91906140c1565b613334565b005b610580600480360381019061057b9190614770565b613519565b005b61059c600480360381019061059791906147b9565b613850565b005b6105b860048036038101906105b391906140c1565b613bd2565b6040516105c59190614861565b60405180910390f35b6105d6613bf2565b6040516105e39190613f19565b60405180910390f35b610606600480360381019061060191906140c1565b613c18565b6040516106139190614861565b60405180910390f35b61063660048036038101906106319190614575565b613c38565b6040516106439190613f19565b60405180910390f35b610654613c81565b60405161066191906145be565b60405180910390f35b600860205281600052604060002081805160208101820180518482526020830160208501208183528095505050505050600091509150508060000154908060010160009054906101000a900460ff16908060020154905083565b600c60009054906101000a900473ffffffffffffffffffffffffffffffffffffffff1681565b33600c60009054906101000a900473ffffffffffffffffffffffffffffffffffffffff1673ffffffffffffffffffffffffffffffffffffffff1663b9209e33826040518263ffffffff1660e01b81526004016107469190613f19565b602060405180830381865afa158015610763573d6000803e3d6000fd5b505050506040513d601f19601f8201168201806040525081019061078791906148a8565b6107c6576040517f08c379a00000000000000000000000000000000000000000000000000000000081526004016107bd90614921565b60405180910390fd5b6000600585856040516107da929190614971565b9081526020016040518091039020549050600260058111156107ff576107fe614395565b5b60008686604051610811929190614971565b908152602001604051809103902060080160159054906101000a900460ff16600581111561084257610841614395565b5b146108865784846040517fb716508400000000000000000000000000000000000000000000000000000000815260040161087d9291906149b7565b60405180910390fd5b600083141580156108c55750600085856040516108a4929190614971565b90815260200160405180910390206003015481846108c29190614a0a565b11155b610904576040517f08c379a00000000000000000000000000000000000000000000000000000000081526004016108fb90614a8a565b60405180910390fd5b6000600860003373ffffffffffffffffffffffffffffffffffffffff1673ffffffffffffffffffffffffffffffffffffffff1681526020019081526020016000208686604051610955929190614971565b908152602001604051809103902060010160009054906101000a900460ff16905083826109829190614a0a565b60058787604051610994929190614971565b9081526020016040518091039020819055508015610b40576000600860003373ffffffffffffffffffffffffffffffffffffffff1673ffffffffffffffffffffffffffffffffffffffff16815260200190815260200160002087876040516109fd929190614971565b90815260200160405180910390206002015490506000600860003373ffffffffffffffffffffffffffffffffffffffff1673ffffffffffffffffffffffffffffffffffffffff1681526020019081526020016000208888604051610a62929190614971565b90815260200160405180910390206000015490508581610a829190614a0a565b60048989604051610a94929190614971565b90815260200160405180910390208381548110610ab457610ab3614aaa565b5b9060005260206000209060020201600101819055508581610ad59190614a0a565b600860003373ffffffffffffffffffffffffffffffffffffffff1673ffffffffffffffffffffffffffffffffffffffff1681526020019081526020016000208989604051610b24929190614971565b9081526020016040518091039020600001819055505050610cdd565b604051806060016040528085815260200160011515815260200160048888604051610b6c929190614971565b908152602001604051809103902080549050815250600860003373ffffffffffffffffffffffffffffffffffffffff1673ffffffffffffffffffffffffffffffffffffffff1681526020019081526020016000208787604051610bd0929190614971565b90815260200160405180910390206000820151816000015560208201518160010160006101000a81548160ff0219169083151502179055506040820151816002015590505060048686604051610c27929190614971565b908152602001604051809103902060405180604001604052803373ffffffffffffffffffffffffffffffffffffffff16815260200186815250908060018154018082558091505060019003906000526020600020906002020160009091909190915060008201518160000160006101000a81548173ffffffffffffffffffffffffffffffffffffffff021916908373ffffffffffffffffffffffffffffffffffffffff1602179055506020820151816001015550505b600d60009054906101000a900473ffffffffffffffffffffffffffffffffffffffff1673ffffffffffffffffffffffffffffffffffffffff1663925b7cb68787876040518463ffffffff1660e01b8152600401610d3c93929190614ad9565b600060405180830381600087803b158015610d5657600080fd5b505af1158015610d6a573d6000803e3d6000fd5b5050505060008686604051610d80929190614971565b908152602001604051809103902060080160009054906101000a900473ffffffffffffffffffffffffffffffffffffffff1673ffffffffffffffffffffffffffffffffffffffff166323b872dd33600d60009054906101000a900473ffffffffffffffffffffffffffffffffffffffff16670de0b6b3a764000088610e059190614b0b565b6040518463ffffffff1660e01b8152600401610e2393929190614b4d565b6020604051808303816000875af1158015610e42573d6000803e3d6000fd5b505050506040513d601f19601f82011682018060405250810190610e6691906148a8565b507f0bdaf52b4de514796607307fbbcf007ee6d59e81e1be436b67c5a567a2e8d121868633604051610e9a93929190614b84565b60405180910390a1505050505050565b600b60009054906101000a900473ffffffffffffffffffffffffffffffffffffffff1673ffffffffffffffffffffffffffffffffffffffff1663877b9a67336040518263ffffffff1660e01b8152600401610f059190613f19565b602060405180830381865afa158015610f22573d6000803e3d6000fd5b505050506040513d601f19601f82011682018060405250810190610f4691906148a8565b610f85576040517f08c379a0000000000000000000000000000000000000000000000000000000008152600401610f7c90614c02565b60405180910390fd5b806040016020810190610f9891906140c1565b73ffffffffffffffffffffffffffffffffffffffff163373ffffffffffffffffffffffffffffffffffffffff1614611005576040517f08c379a0000000000000000000000000000000000000000000000000000000008152600401610ffc90614c6e565b60405180910390fd5b6000600581111561101957611018614395565b5b6000848460405161102b929190614971565b908152602001604051809103902060080160159054906101000a900460ff16600581111561105c5761105b614395565b5b1461109c576040517f08c379a000000000000000000000000000000000000000000000000000000000815260040161109390614cda565b60405180910390fd5b80600084846040516110af929190614971565b908152602001604051809103902081816110c99190615486565b9050506001600084846040516110e0929190614971565b908152602001604051809103902060080160156101000a81548160ff0219169083600581111561111357611112614395565b5b021790555060108054905060008484604051611130929190614971565b908152602001604051809103902060070181905550601060008484604051611159929190614971565b90815260200160405180910390209080600181540180825580915050600190039060005260206000209060090201600090919091909150600082018160000190816111a491906154aa565b50600182018160010190816111b991906154aa565b506002820160009054906101000a900473ffffffffffffffffffffffffffffffffffffffff168160020160006101000a81548173ffffffffffffffffffffffffffffffffffffffff021916908373ffffffffffffffffffffffffffffffffffffffff16021790555060038201548160030155600482015481600401556005820154816005015560068201548160060155600782015481600701556008820160009054906101000a900473ffffffffffffffffffffffffffffffffffffffff168160080160006101000a81548173ffffffffffffffffffffffffffffffffffffffff021916908373ffffffffffffffffffffffffffffffffffffffff1602179055506008820160149054906101000a900460ff168160080160146101000a81548160ff021916908360ff1602179055506008820160159054906101000a900460ff168160080160156101000a81548160ff021916908360058111156113205761131f614395565b5b021790555050507fc32e04bf1356c91e89bdc0de134ba5c3fc8df94d30cea4436e9346bc335199ed83838360405161135a93929190615838565b60405180910390a1505050565b600160205280600052604060002060009150905080600001805461138a90614da6565b80601f01602080910402602001604051908101604052809291908181526020018280546113b690614da6565b80156114035780601f106113d857610100808354040283529160200191611403565b820191906000526020600020905b8154815290600101906020018083116113e657829003601f168201915b50505050509080600101805461141890614da6565b80601f016020809104026020016040519081016040528092919081815260200182805461144490614da6565b80156114915780601f1061146657610100808354040283529160200191611491565b820191906000526020600020905b81548152906001019060200180831161147457829003601f168201915b5050505050908060020180546114a690614da6565b80601f01602080910402602001604051908101604052809291908181526020018280546114d290614da6565b801561151f5780601f106114f45761010080835404028352916020019161151f565b820191906000526020600020905b81548152906001019060200180831161150257829003601f168201915b50505050509080600301805461153490614da6565b80601f016020809104026020016040519081016040528092919081815260200182805461156090614da6565b80156115ad5780601f10611582576101008083540402835291602001916115ad565b820191906000526020600020905b81548152906001019060200180831161159057829003601f168201915b5050505050908060040180546115c290614da6565b80601f01602080910402602001604051908101604052809291908181526020018280546115ee90614da6565b801561163b5780601f106116105761010080835404028352916020019161163b565b820191906000526020600020905b81548152906001019060200180831161161e57829003601f168201915b5050505050908060050154908060060160009054906101000a900473ffffffffffffffffffffffffffffffffffffffff16905087565b8060c001602081019061168491906140c1565b600c60009054906101000a900473ffffffffffffffffffffffffffffffffffffffff1673ffffffffffffffffffffffffffffffffffffffff1663b9209e33826040518263ffffffff1660e01b81526004016116df9190613f19565b602060405180830381865afa1580156116fc573d6000803e3d6000fd5b505050506040513d601f19601f8201168201806040525081019061172091906148a8565b61175f576040517f08c379a000000000000000000000000000000000000000000000000000000000815260040161175690614921565b60405180910390fd5b8160c001602081019061177291906140c1565b73ffffffffffffffffffffffffffffffffffffffff163373ffffffffffffffffffffffffffffffffffffffff16146117df576040517f08c379a00000000000000000000000000000000000000000000000000000000081526004016117d6906158bd565b60405180910390fd5b600060038111156117f3576117f2614395565b5b600660003373ffffffffffffffffffffffffffffffffffffffff1673ffffffffffffffffffffffffffffffffffffffff16815260200190815260200160002060009054906101000a900460ff16600381111561185257611851614395565b5b14611892576040517f08c379a000000000000000000000000000000000000000000000000000000000815260040161188990615929565b60405180910390fd5b81600160008460c00160208101906118aa91906140c1565b73ffffffffffffffffffffffffffffffffffffffff1673ffffffffffffffffffffffffffffffffffffffff16815260200190815260200160002081816118f09190615a34565b9050506001600660003373ffffffffffffffffffffffffffffffffffffffff1673ffffffffffffffffffffffffffffffffffffffff16815260200190815260200160002060006101000a81548160ff0219169083600381111561195657611955614395565b5b02179055507f0a0028275fa37d11ea8d5d29fd14fd8aa6c52af0e0cf819b89ca2cd9193f11858260c001602081019061198f91906140c1565b60405161199c9190613f19565b60405180910390a15050565b600a60009054906101000a900473ffffffffffffffffffffffffffffffffffffffff1673ffffffffffffffffffffffffffffffffffffffff163373ffffffffffffffffffffffffffffffffffffffff1614611a38576040517f08c379a0000000000000000000000000000000000000000000000000000000008152600401611a2f90615a8e565b60405180910390fd5b60016005811115611a4c57611a4b614395565b5b60008383604051611a5e929190614971565b908152602001604051809103902060080160159054906101000a900460ff166005811115611a8f57611a8e614395565b5b14611acf576040517f08c379a0000000000000000000000000000000000000000000000000000000008152600401611ac690614cda565b60405180910390fd5b600260008383604051611ae3929190614971565b908152602001604051809103902060080160156101000a81548160ff02191690836005811115611b1657611b15614395565b5b02179055506002601060008484604051611b31929190614971565b90815260200160405180910390206007015481548110611b5457611b53614aaa565b5b906000526020600020906009020160080160156101000a81548160ff02191690836005811115611b8757611b86614395565b5b02179055507f039501081328ffe3eb02459ad6f6e90b69e23ba1422b574ee84c1f52b2fc03108282604051611bbd9291906149b7565b60405180910390a15050565b6004828051602081018201805184825260208301602085012081835280955050505050508181548110611bfb57600080fd5b9060005260206000209060020201600091509150508060000160009054906101000a900473ffffffffffffffffffffffffffffffffffffffff16908060010154905082565b60096020528160005260406000208181548110611c5c57600080fd5b906000526020600020906009020160009150915050806000018054611c8090614da6565b80601f0160208091040260200160405190810160405280929190818152602001828054611cac90614da6565b8015611cf95780601f10611cce57610100808354040283529160200191611cf9565b820191906000526020600020905b815481529060010190602001808311611cdc57829003601f168201915b505050505090806001018054611d0e90614da6565b80601f0160208091040260200160405190810160405280929190818152602001828054611d3a90614da6565b8015611d875780601f10611d5c57610100808354040283529160200191611d87565b820191906000526020600020905b815481529060010190602001808311611d6a57829003601f168201915b5050505050908060020160009054906101000a900473ffffffffffffffffffffffffffffffffffffffff16908060030154908060040154908060050154908060060154908060070154908060080160009054906101000a900473ffffffffffffffffffffffffffffffffffffffff16908060080160149054906101000a900460ff16908060080160159054906101000a900460ff1690508b565b600a60009054906101000a900473ffffffffffffffffffffffffffffffffffffffff1673ffffffffffffffffffffffffffffffffffffffff163373ffffffffffffffffffffffffffffffffffffffff1614611eb1576040517f08c379a0000000000000000000000000000000000000000000000000000000008152600401611ea890615a8e565b60405180910390fd5b60026005811115611ec557611ec4614395565b5b60008585604051611ed7929190614971565b908152602001604051809103902060080160159054906101000a900460ff166005811115611f0857611f07614395565b5b14611f4c5783836040517fb7165084000000000000000000000000000000000000000000000000000000008152600401611f439291906149b7565b60405180910390fd5b8060038585604051611f5f929190614971565b908152602001604051809103902060006101000a81548173ffffffffffffffffffffffffffffffffffffffff021916908373ffffffffffffffffffffffffffffffffffffffff16021790555060046005811115611fbf57611fbe614395565b5b60008585604051611fd1929190614971565b908152602001604051809103902060080160159054906101000a900460ff16600581111561200257612001614395565b5b5050600460106000868660405161201a929190614971565b9081526020016040518091039020600701548154811061203d5761203c614aaa565b5b906000526020600020906009020160080160156101000a81548160ff021916908360058111156120705761206f614395565b5b02179055506009600080868660405161208a929190614971565b908152602001604051809103902060020160009054906101000a900473ffffffffffffffffffffffffffffffffffffffff1673ffffffffffffffffffffffffffffffffffffffff1673ffffffffffffffffffffffffffffffffffffffff16815260200190815260200160002060008585604051612108929190614971565b908152602001604051809103902090806001815401808255809150506001900390600052602060002090600902016000909190919091506000820181600001908161215391906154aa565b506001820181600101908161216891906154aa565b506002820160009054906101000a900473ffffffffffffffffffffffffffffffffffffffff168160020160006101000a81548173ffffffffffffffffffffffffffffffffffffffff021916908373ffffffffffffffffffffffffffffffffffffffff16021790555060038201548160030155600482015481600401556005820154816005015560068201548160060155600782015481600701556008820160009054906101000a900473ffffffffffffffffffffffffffffffffffffffff168160080160006101000a81548173ffffffffffffffffffffffffffffffffffffffff021916908373ffffffffffffffffffffffffffffffffffffffff1602179055506008820160149054906101000a900460ff168160080160146101000a81548160ff021916908360ff1602179055506008820160159054906101000a900460ff168160080160156101000a81548160ff021916908360058111156122cf576122ce614395565b5b021790555050508073ffffffffffffffffffffffffffffffffffffffff1663d76805aa836040518263ffffffff1660e01b815260040161230f9190615c09565b600060405180830381600087803b15801561232957600080fd5b505af115801561233d573d6000803e3d6000fd5b50505050600f8290806001815401808255809150506001900390600052602060002090600b020160009091909190915081816123799190615de3565b50507f44b55c2d9270546faf6ff2f0acac078011883b82782d9b08de2d3af4543c2b1884846040516123ac9291906149b7565b60405180910390a150505050565b6005818051602081018201805184825260208301602085012081835280955050505050506000915090505481565b6000600583836040516123fc929190614971565b908152602001604051809103902054905092915050565b600260205280600052604060002060009150905080600001805461243690614da6565b80601f016020809104026020016040519081016040528092919081815260200182805461246290614da6565b80156124af5780601f10612484576101008083540402835291602001916124af565b820191906000526020600020905b81548152906001019060200180831161249257829003601f168201915b5050505050908060010180546124c490614da6565b80601f01602080910402602001604051908101604052809291908181526020018280546124f090614da6565b801561253d5780601f106125125761010080835404028352916020019161253d565b820191906000526020600020905b81548152906001019060200180831161252057829003601f168201915b50505050509080600201805461255290614da6565b80601f016020809104026020016040519081016040528092919081815260200182805461257e90614da6565b80156125cb5780601f106125a0576101008083540402835291602001916125cb565b820191906000526020600020905b8154815290600101906020018083116125ae57829003601f168201915b5050505050908060030160009054906101000a900473ffffffffffffffffffffffffffffffffffffffff16905084565b600a60009054906101000a900473ffffffffffffffffffffffffffffffffffffffff1673ffffffffffffffffffffffffffffffffffffffff163373ffffffffffffffffffffffffffffffffffffffff161461268b576040517f08c379a000000000000000000000000000000000000000000000000000000000815260040161268290615a8e565b60405180910390fd5b6001600581111561269f5761269e614395565b5b600083836040516126b1929190614971565b908152602001604051809103902060080160159054906101000a900460ff1660058111156126e2576126e1614395565b5b14612722576040517f08c379a000000000000000000000000000000000000000000000000000000000815260040161271990614cda565b60405180910390fd5b600360008383604051612736929190614971565b908152602001604051809103902060080160156101000a81548160ff0219169083600581111561276957612768614395565b5b02179055506003601060008484604051612784929190614971565b908152602001604051809103902060070154815481106127a7576127a6614aaa565b5b906000526020600020906009020160080160156101000a81548160ff021916908360058111156127da576127d9614395565b5b02179055507f735ccdd611541d36c82a3622baab7f58b8a0f5be664555b0d9c95ddde16096d382826040516128109291906149b7565b60405180910390a15050565b600a60009054906101000a900473ffffffffffffffffffffffffffffffffffffffff1673ffffffffffffffffffffffffffffffffffffffff163373ffffffffffffffffffffffffffffffffffffffff16146128ac576040517f08c379a00000000000000000000000000000000000000000000000000000000081526004016128a390615a8e565b60405180910390fd5b600073ffffffffffffffffffffffffffffffffffffffff168173ffffffffffffffffffffffffffffffffffffffff160361291b576040517f08c379a000000000000000000000000000000000000000000000000000000000815260040161291290615e3d565b60405180910390fd5b80600d60006101000a81548173ffffffffffffffffffffffffffffffffffffffff021916908373ffffffffffffffffffffffffffffffffffffffff16021790555050565b600a60009054906101000a900473ffffffffffffffffffffffffffffffffffffffff1673ffffffffffffffffffffffffffffffffffffffff163373ffffffffffffffffffffffffffffffffffffffff16146129ef576040517f08c379a00000000000000000000000000000000000000000000000000000000081526004016129e690615a8e565b60405180910390fd5b60016003811115612a0357612a02614395565b5b600760008373ffffffffffffffffffffffffffffffffffffffff1673ffffffffffffffffffffffffffffffffffffffff16815260200190815260200160002060009054906101000a900460ff166003811115612a6257612a61614395565b5b14612aa2576040517f08c379a0000000000000000000000000000000000000000000000000000000008152600401612a9990615929565b60405180910390fd5b6002600760008373ffffffffffffffffffffffffffffffffffffffff1673ffffffffffffffffffffffffffffffffffffffff16815260200190815260200160002060006101000a81548160ff02191690836003811115612b0557612b04614395565b5b0217905550600b60009054906101000a900473ffffffffffffffffffffffffffffffffffffffff1673ffffffffffffffffffffffffffffffffffffffff1663cfde1890826040518263ffffffff1660e01b8152600401612b659190615ea9565b600060405180830381600087803b158015612b7f57600080fd5b505af1158015612b93573d6000803e3d6000fd5b505050507f45b6e306480b490c59801f6f851ed6d7d4bd880db4c8f75dd1112d2fc0a1c9d781604051612bc69190613f19565b60405180910390a150565b600a60009054906101000a900473ffffffffffffffffffffffffffffffffffffffff1681565b600a60009054906101000a900473ffffffffffffffffffffffffffffffffffffffff1673ffffffffffffffffffffffffffffffffffffffff163373ffffffffffffffffffffffffffffffffffffffff1614612c87576040517f08c379a0000000000000000000000000000000000000000000000000000000008152600401612c7e90615a8e565b60405180910390fd5b60016003811115612c9b57612c9a614395565b5b600660008373ffffffffffffffffffffffffffffffffffffffff1673ffffffffffffffffffffffffffffffffffffffff16815260200190815260200160002060009054906101000a900460ff166003811115612cfa57612cf9614395565b5b14612d3a576040517f08c379a0000000000000000000000000000000000000000000000000000000008152600401612d3190615929565b60405180910390fd5b6002600660008373ffffffffffffffffffffffffffffffffffffffff1673ffffffffffffffffffffffffffffffffffffffff16815260200190815260200160002060006101000a81548160ff02191690836003811115612d9d57612d9c614395565b5b0217905550600b60009054906101000a900473ffffffffffffffffffffffffffffffffffffffff1673ffffffffffffffffffffffffffffffffffffffff1663cfde1890826040518263ffffffff1660e01b8152600401612dfd9190615f23565b600060405180830381600087803b158015612e1757600080fd5b505af1158015612e2b573d6000803e3d6000fd5b505050507f0e387c88130575bf91cadf15934854a1ed11d5c16d63f1106b6fd6e139d1202e81604051612e5e9190613f19565b60405180910390a150565b600081805160208101820180518482526020830160208501208183528095505050505050600091509050806000018054612ea290614da6565b80601f0160208091040260200160405190810160405280929190818152602001828054612ece90614da6565b8015612f1b5780601f10612ef057610100808354040283529160200191612f1b565b820191906000526020600020905b815481529060010190602001808311612efe57829003601f168201915b505050505090806001018054612f3090614da6565b80601f0160208091040260200160405190810160405280929190818152602001828054612f5c90614da6565b8015612fa95780601f10612f7e57610100808354040283529160200191612fa9565b820191906000526020600020905b815481529060010190602001808311612f8c57829003601f168201915b5050505050908060020160009054906101000a900473ffffffffffffffffffffffffffffffffffffffff16908060030154908060040154908060050154908060060154908060070154908060080160009054906101000a900473ffffffffffffffffffffffffffffffffffffffff16908060080160149054906101000a900460ff16908060080160159054906101000a900460ff1690508b565b600e5481565b600a60009054906101000a900473ffffffffffffffffffffffffffffffffffffffff1673ffffffffffffffffffffffffffffffffffffffff163373ffffffffffffffffffffffffffffffffffffffff16146130d9576040517f08c379a00000000000000000000000000000000000000000000000000000000081526004016130d090615a8e565b60405180910390fd5b600160038111156130ed576130ec614395565b5b600660008373ffffffffffffffffffffffffffffffffffffffff1673ffffffffffffffffffffffffffffffffffffffff16815260200190815260200160002060009054906101000a900460ff16600381111561314c5761314b614395565b5b1461318c576040517f08c379a000000000000000000000000000000000000000000000000000000000815260040161318390615929565b60405180910390fd5b6003600660008373ffffffffffffffffffffffffffffffffffffffff1673ffffffffffffffffffffffffffffffffffffffff16815260200190815260200160002060006101000a81548160ff021916908360038111156131ef576131ee614395565b5b02179055507fe341ab2ef130ae159f5f54c8be96a79ffe8f98948aa6d0e1bdeb60e6201ada2a816040516132239190613f19565b60405180910390a150565b606060048383604051613242929190614971565b9081526020016040518091039020805480602002602001604051908101604052809291908181526020016000905b8282101561330257838290600052602060002090600202016040518060400160405290816000820160009054906101000a900473ffffffffffffffffffffffffffffffffffffffff1673ffffffffffffffffffffffffffffffffffffffff1673ffffffffffffffffffffffffffffffffffffffff16815260200160018201548152505081526020019060010190613270565b50505050905092915050565b600b60009054906101000a900473ffffffffffffffffffffffffffffffffffffffff1681565b600a60009054906101000a900473ffffffffffffffffffffffffffffffffffffffff1673ffffffffffffffffffffffffffffffffffffffff163373ffffffffffffffffffffffffffffffffffffffff16146133c4576040517f08c379a00000000000000000000000000000000000000000000000000000000081526004016133bb90615a8e565b60405180910390fd5b600160038111156133d8576133d7614395565b5b600760008373ffffffffffffffffffffffffffffffffffffffff1673ffffffffffffffffffffffffffffffffffffffff16815260200190815260200160002060009054906101000a900460ff16600381111561343757613436614395565b5b14613477576040517f08c379a000000000000000000000000000000000000000000000000000000000815260040161346e90615929565b60405180910390fd5b6003600760008373ffffffffffffffffffffffffffffffffffffffff1673ffffffffffffffffffffffffffffffffffffffff16815260200190815260200160002060006101000a81548160ff021916908360038111156134da576134d9614395565b5b02179055507f7456ce1c99ee8a1b09f67c52be737a92db545ec137e72de0e1b70bc0c4a128098160405161350e9190613f19565b60405180910390a150565b80606001602081019061352c91906140c1565b600c60009054906101000a900473ffffffffffffffffffffffffffffffffffffffff1673ffffffffffffffffffffffffffffffffffffffff1663b9209e33826040518263ffffffff1660e01b81526004016135879190613f19565b602060405180830381865afa1580156135a4573d6000803e3d6000fd5b505050506040513d601f19601f820116820180604052508101906135c891906148a8565b613607576040517f08c379a00000000000000000000000000000000000000000000000000000000081526004016135fe90614921565b60405180910390fd5b81606001602081019061361a91906140c1565b73ffffffffffffffffffffffffffffffffffffffff163373ffffffffffffffffffffffffffffffffffffffff1614613687576040517f08c379a000000000000000000000000000000000000000000000000000000000815260040161367e906158bd565b60405180910390fd5b6000600381111561369b5761369a614395565b5b600760003373ffffffffffffffffffffffffffffffffffffffff1673ffffffffffffffffffffffffffffffffffffffff16815260200190815260200160002060009054906101000a900460ff1660038111156136fa576136f9614395565b5b1461373a576040517f08c379a000000000000000000000000000000000000000000000000000000000815260040161373190615929565b60405180910390fd5b816002600084606001602081019061375291906140c1565b73ffffffffffffffffffffffffffffffffffffffff1673ffffffffffffffffffffffffffffffffffffffff16815260200190815260200160002081816137989190615fd9565b9050506001600760003373ffffffffffffffffffffffffffffffffffffffff1673ffffffffffffffffffffffffffffffffffffffff16815260200190815260200160002060006101000a81548160ff021916908360038111156137fe576137fd614395565b5b02179055507fe42136ccc1d423b080e7fa005aa542f4bc344c1e5420e3c313fbe9ce0077ad5482606001602081019061383791906140c1565b6040516138449190613f19565b60405180910390a15050565b600a60009054906101000a900473ffffffffffffffffffffffffffffffffffffffff1673ffffffffffffffffffffffffffffffffffffffff163373ffffffffffffffffffffffffffffffffffffffff16146138e0576040517f08c379a00000000000000000000000000000000000000000000000000000000081526004016138d790615a8e565b60405180910390fd5b600460058111156138f4576138f3614395565b5b60008484604051613906929190614971565b908152602001604051809103902060080160159054906101000a900460ff16600581111561393757613936614395565b5b1461397b5782826040517fb71650840000000000000000000000000000000000000000000000000000000081526004016139729291906149b7565b60405180910390fd5b60058081111561398e5761398d614395565b5b600084846040516139a0929190614971565b908152602001604051809103902060080160159054906101000a900460ff1660058111156139d1576139d0614395565b5b505060056010600085856040516139e9929190614971565b90815260200160405180910390206007015481548110613a0c57613a0b614aaa565b5b906000526020600020906009020160080160156101000a81548160ff02191690836005811115613a3f57613a3e614395565b5b0217905550600560096000808686604051613a5b929190614971565b908152602001604051809103902060020160009054906101000a900473ffffffffffffffffffffffffffffffffffffffff1673ffffffffffffffffffffffffffffffffffffffff1673ffffffffffffffffffffffffffffffffffffffff16815260200190815260200160002060008585604051613ad9929190614971565b90815260200160405180910390206007015481548110613afc57613afb614aaa565b5b906000526020600020906009020160080160156101000a81548160ff02191690836005811115613b2f57613b2e614395565b5b02179055508073ffffffffffffffffffffffffffffffffffffffff1663be040fb06040518163ffffffff1660e01b8152600401600060405180830381600087803b158015613b7c57600080fd5b505af1158015613b90573d6000803e3d6000fd5b505050507fdfdf42ff0d0eb3e6ec5b40d8cf21fb2f7102b67e5e2d56ab36e817f807213c5b8383604051613bc59291906149b7565b60405180910390a1505050565b60076020528060005260406000206000915054906101000a900460ff1681565b600d60009054906101000a900473ffffffffffffffffffffffffffffffffffffffff1681565b60066020528060005260406000206000915054906101000a900460ff1681565b6003818051602081018201805184825260208301602085012081835280955050505050506000915054906101000a900473ffffffffffffffffffffffffffffffffffffffff1681565b6000600e54905090565b6000604051905090565b600080fd5b600080fd5b600073ffffffffffffffffffffffffffffffffffffffff82169050919050565b6000613cca82613c9f565b9050919050565b613cda81613cbf565b8114613ce557600080fd5b50565b600081359050613cf781613cd1565b92915050565b600080fd5b600080fd5b6000601f19601f8301169050919050565b7f4e487b7100000000000000000000000000000000000000000000000000000000600052604160045260246000fd5b613d5082613d07565b810181811067ffffffffffffffff82111715613d6f57613d6e613d18565b5b80604052505050565b6000613d82613c8b565b9050613d8e8282613d47565b919050565b600067ffffffffffffffff821115613dae57613dad613d18565b5b613db782613d07565b9050602081019050919050565b82818337600083830152505050565b6000613de6613de184613d93565b613d78565b905082815260208101848484011115613e0257613e01613d02565b5b613e0d848285613dc4565b509392505050565b600082601f830112613e2a57613e29613cfd565b5b8135613e3a848260208601613dd3565b91505092915050565b60008060408385031215613e5a57613e59613c95565b5b6000613e6885828601613ce8565b925050602083013567ffffffffffffffff811115613e8957613e88613c9a565b5b613e9585828601613e15565b9150509250929050565b6000819050919050565b613eb281613e9f565b82525050565b60008115159050919050565b613ecd81613eb8565b82525050565b6000606082019050613ee86000830186613ea9565b613ef56020830185613ec4565b613f026040830184613ea9565b949350505050565b613f1381613cbf565b82525050565b6000602082019050613f2e6000830184613f0a565b92915050565b600080fd5b600080fd5b60008083601f840112613f5457613f53613cfd565b5b8235905067ffffffffffffffff811115613f7157613f70613f34565b5b602083019150836001820283011115613f8d57613f8c613f39565b5b9250929050565b613f9d81613e9f565b8114613fa857600080fd5b50565b600081359050613fba81613f94565b92915050565b600080600060408486031215613fd957613fd8613c95565b5b600084013567ffffffffffffffff811115613ff757613ff6613c9a565b5b61400386828701613f3e565b9350935050602061401686828701613fab565b9150509250925092565b600080fd5b6000610160828403121561403c5761403b614020565b5b81905092915050565b60008060006040848603121561405e5761405d613c95565b5b600084013567ffffffffffffffff81111561407c5761407b613c9a565b5b61408886828701613f3e565b9350935050602084013567ffffffffffffffff8111156140ab576140aa613c9a565b5b6140b786828701614025565b9150509250925092565b6000602082840312156140d7576140d6613c95565b5b60006140e584828501613ce8565b91505092915050565b600081519050919050565b600082825260208201905092915050565b60005b8381101561412857808201518184015260208101905061410d565b60008484015250505050565b600061413f826140ee565b61414981856140f9565b935061415981856020860161410a565b61416281613d07565b840191505092915050565b600060e0820190508181036000830152614187818a614134565b9050818103602083015261419b8189614134565b905081810360408301526141af8188614134565b905081810360608301526141c38187614134565b905081810360808301526141d78186614134565b90506141e660a0830185613ea9565b6141f360c0830184613f0a565b98975050505050505050565b600060e0828403121561421557614214614020565b5b81905092915050565b60006020828403121561423457614233613c95565b5b600082013567ffffffffffffffff81111561425257614251613c9a565b5b61425e848285016141ff565b91505092915050565b6000806020838503121561427e5761427d613c95565b5b600083013567ffffffffffffffff81111561429c5761429b613c9a565b5b6142a885828601613f3e565b92509250509250929050565b600080604083850312156142cb576142ca613c95565b5b600083013567ffffffffffffffff8111156142e9576142e8613c9a565b5b6142f585828601613e15565b925050602061430685828601613fab565b9150509250929050565b60006040820190506143256000830185613f0a565b6143326020830184613ea9565b9392505050565b600080604083850312156143505761434f613c95565b5b600061435e85828601613ce8565b925050602061436f85828601613fab565b9150509250929050565b600060ff82169050919050565b61438f81614379565b82525050565b7f4e487b7100000000000000000000000000000000000000000000000000000000600052602160045260246000fd5b600681106143d5576143d4614395565b5b50565b60008190506143e6826143c4565b919050565b60006143f6826143d8565b9050919050565b614406816143eb565b82525050565b6000610160820190508181036000830152614427818e614134565b9050818103602083015261443b818d614134565b905061444a604083018c613f0a565b614457606083018b613ea9565b614464608083018a613ea9565b61447160a0830189613ea9565b61447e60c0830188613ea9565b61448b60e0830187613ea9565b614499610100830186613f0a565b6144a7610120830185614386565b6144b56101408301846143fd565b9c9b505050505050505050505050565b600061016082840312156144dc576144db614020565b5b81905092915050565b600080600080606085870312156144ff576144fe613c95565b5b600085013567ffffffffffffffff81111561451d5761451c613c9a565b5b61452987828801613f3e565b9450945050602085013567ffffffffffffffff81111561454c5761454b613c9a565b5b614558878288016144c5565b925050604061456987828801613ce8565b91505092959194509250565b60006020828403121561458b5761458a613c95565b5b600082013567ffffffffffffffff8111156145a9576145a8613c9a565b5b6145b584828501613e15565b91505092915050565b60006020820190506145d36000830184613ea9565b92915050565b600060808201905081810360008301526145f38187614134565b905081810360208301526146078186614134565b9050818103604083015261461b8185614134565b905061462a6060830184613f0a565b95945050505050565b600081519050919050565b600082825260208201905092915050565b6000819050602082019050919050565b61466881613cbf565b82525050565b61467781613e9f565b82525050565b604082016000820151614693600085018261465f565b5060208201516146a6602085018261466e565b50505050565b60006146b8838361467d565b60408301905092915050565b6000602082019050919050565b60006146dc82614633565b6146e6818561463e565b93506146f18361464f565b8060005b8381101561472257815161470988826146ac565b9750614714836146c4565b9250506001810190506146f5565b5085935050505092915050565b6000602082019050818103600083015261474981846146d1565b905092915050565b60006080828403121561476757614766614020565b5b81905092915050565b60006020828403121561478657614785613c95565b5b600082013567ffffffffffffffff8111156147a4576147a3613c9a565b5b6147b084828501614751565b91505092915050565b6000806000604084860312156147d2576147d1613c95565b5b600084013567ffffffffffffffff8111156147f0576147ef613c9a565b5b6147fc86828701613f3e565b9350935050602061480f86828701613ce8565b9150509250925092565b6004811061482a57614829614395565b5b50565b600081905061483b82614819565b919050565b600061484b8261482d565b9050919050565b61485b81614840565b82525050565b60006020820190506148766000830184614852565b92915050565b61488581613eb8565b811461489057600080fd5b50565b6000815190506148a28161487c565b92915050565b6000602082840312156148be576148bd613c95565b5b60006148cc84828501614893565b91505092915050565b7f4143434f554e545f4e4f545f414150524f564544000000000000000000000000600082015250565b600061490b6014836140f9565b9150614916826148d5565b602082019050919050565b6000602082019050818103600083015261493a816148fe565b9050919050565b600081905092915050565b60006149588385614941565b9350614965838584613dc4565b82840190509392505050565b600061497e82848661494c565b91508190509392505050565b600061499683856140f9565b93506149a3838584613dc4565b6149ac83613d07565b840190509392505050565b600060208201905081810360008301526149d281848661498a565b90509392505050565b7f4e487b7100000000000000000000000000000000000000000000000000000000600052601160045260246000fd5b6000614a1582613e9f565b9150614a2083613e9f565b9250828201905080821115614a3857614a376149db565b5b92915050565b7f494e56414c49445f414d4f554e54000000000000000000000000000000000000600082015250565b6000614a74600e836140f9565b9150614a7f82614a3e565b602082019050919050565b60006020820190508181036000830152614aa381614a67565b9050919050565b7f4e487b7100000000000000000000000000000000000000000000000000000000600052603260045260246000fd5b60006040820190508181036000830152614af481858761498a565b9050614b036020830184613ea9565b949350505050565b6000614b1682613e9f565b9150614b2183613e9f565b9250828202614b2f81613e9f565b91508282048414831517614b4657614b456149db565b5b5092915050565b6000606082019050614b626000830186613f0a565b614b6f6020830185613f0a565b614b7c6040830184613ea9565b949350505050565b60006040820190508181036000830152614b9f81858761498a565b9050614bae6020830184613f0a565b949350505050565b7f4f4e4c595f495353554552530000000000000000000000000000000000000000600082015250565b6000614bec600c836140f9565b9150614bf782614bb6565b602082019050919050565b60006020820190508181036000830152614c1b81614bdf565b9050919050565b7f494e56414c49445f4953535545525f4144445245535300000000000000000000600082015250565b6000614c586016836140f9565b9150614c6382614c22565b602082019050919050565b60006020820190508181036000830152614c8781614c4b565b9050919050565b7f494e56414c49445f4445414c5f53544154555300000000000000000000000000600082015250565b6000614cc46013836140f9565b9150614ccf82614c8e565b602082019050919050565b60006020820190508181036000830152614cf381614cb7565b9050919050565b600080fd5b600080fd5b600080fd5b60008083356001602003843603038112614d2657614d25614cfa565b5b80840192508235915067ffffffffffffffff821115614d4857614d47614cff565b5b602083019250600182023603831315614d6457614d63614d04565b5b509250929050565b600082905092915050565b7f4e487b7100000000000000000000000000000000000000000000000000000000600052602260045260246000fd5b60006002820490506001821680614dbe57607f821691505b602082108103614dd157614dd0614d77565b5b50919050565b60008190508160005260206000209050919050565b60006020601f8301049050919050565b600082821b905092915050565b600060088302614e397fffffffffffffffffffffffffffffffffffffffffffffffffffffffffffffffff82614dfc565b614e438683614dfc565b95508019841693508086168417925050509392505050565b6000819050919050565b6000614e80614e7b614e7684613e9f565b614e5b565b613e9f565b9050919050565b6000819050919050565b614e9a83614e65565b614eae614ea682614e87565b848454614e09565b825550505050565b600090565b614ec3614eb6565b614ece818484614e91565b505050565b5b81811015614ef257614ee7600082614ebb565b600181019050614ed4565b5050565b601f821115614f3757614f0881614dd7565b614f1184614dec565b81016020851015614f20578190505b614f34614f2c85614dec565b830182614ed3565b50505b505050565b600082821c905092915050565b6000614f5a60001984600802614f3c565b1980831691505092915050565b6000614f738383614f49565b9150826002028217905092915050565b614f8d8383614d6c565b67ffffffffffffffff811115614fa657614fa5613d18565b5b614fb08254614da6565b614fbb828285614ef6565b6000601f831160018114614fea5760008415614fd8578287013590505b614fe28582614f67565b86555061504a565b601f198416614ff886614dd7565b60005b8281101561502057848901358255600182019150602085019450602081019050614ffb565b8683101561503d5784890135615039601f891682614f49565b8355505b6001600288020188555050505b50505050505050565b61505e838383614f83565b505050565b6000813561507081613cd1565b80915050919050565b60008160001b9050919050565b600073ffffffffffffffffffffffffffffffffffffffff6150a684615079565b9350801983169250808416831791505092915050565b60006150d76150d26150cd84613c9f565b614e5b565b613c9f565b9050919050565b60006150e9826150bc565b9050919050565b60006150fb826150de565b9050919050565b6000819050919050565b615115826150f0565b61512861512182615102565b8354615086565b8255505050565b6000813561513c81613f94565b80915050919050565b60007fffffffffffffffffffffffffffffffffffffffffffffffffffffffffffffffff61517184615079565b9350801983169250808416831791505092915050565b61519082614e65565b6151a361519c82614e87565b8354615145565b8255505050565b6151b381614379565b81146151be57600080fd5b50565b600081356151ce816151aa565b80915050919050565b60008160a01b9050919050565b600074ff0000000000000000000000000000000000000000615205846151d7565b9350801983169250808416831791505092915050565b600061523661523161522c84614379565b614e5b565b614379565b9050919050565b6000819050919050565b6152508261521b565b61526361525c8261523d565b83546151e4565b8255505050565b6006811061527757600080fd5b50565b600081356152878161526a565b80915050919050565b60008160a81b9050919050565b600075ff0000000000000000000000000000000000000000006152bf84615290565b9350801983169250808416831791505092915050565b60006152e0826143d8565b9050919050565b6000819050919050565b6152fa826152d5565b61530d615306826152e7565b835461529d565b8255505050565b60008101600083016153268185614d09565b615331818386615053565b5050505060018101602083016153478185614d09565b615352818386615053565b5050505060028101604083018061536881615063565b9050615374818461510c565b5050506003810160608301806153898161512f565b90506153958184615187565b5050506004810160808301806153aa8161512f565b90506153b68184615187565b5050506005810160a08301806153cb8161512f565b90506153d78184615187565b5050506006810160c08301806153ec8161512f565b90506153f88184615187565b5050506007810160e083018061540d8161512f565b90506154198184615187565b5050506008810161010083018061542f81615063565b905061543b818461510c565b50505060088101610120830180615451816151c1565b905061545d8184615247565b505050600881016101408301806154738161527a565b905061547f81846152f1565b5050505050565b6154908282615314565b5050565b6000815490506154a381614da6565b9050919050565b8181036154b8575050615590565b6154c182615494565b67ffffffffffffffff8111156154da576154d9613d18565b5b6154e48254614da6565b6154ef828285614ef6565b6000601f83116001811461551e576000841561550c578287015490505b6155168582614f67565b865550615589565b601f19841661552c87614dd7565b965061553786614dd7565b60005b8281101561555f5784890154825560018201915060018501945060208101905061553a565b8683101561557c5784890154615578601f891682614f49565b8355505b6001600288020188555050505b5050505050505b565b600080fd5b600080fd5b600080fd5b600080833560016020038436030381126155be576155bd61559c565b5b83810192508235915060208301925067ffffffffffffffff8211156155e6576155e5615592565b5b6001820236038313156155fc576155fb615597565b5b509250929050565b600082825260208201905092915050565b60006156218385615604565b935061562e838584613dc4565b61563783613d07565b840190509392505050565b60006156516020840184613ce8565b905092915050565b60006156686020840184613fab565b905092915050565b60008135905061567f816151aa565b92915050565b60006156946020840184615670565b905092915050565b6156a581614379565b82525050565b6000813590506156ba8161526a565b92915050565b60006156cf60208401846156ab565b905092915050565b6156e0816143eb565b82525050565b600061016083016156fa60008401846155a1565b858303600087015261570d838284615615565b9250505061571e60208401846155a1565b8583036020870152615731838284615615565b925050506157426040840184615642565b61574f604086018261465f565b5061575d6060840184615659565b61576a606086018261466e565b506157786080840184615659565b615785608086018261466e565b5061579360a0840184615659565b6157a060a086018261466e565b506157ae60c0840184615659565b6157bb60c086018261466e565b506157c960e0840184615659565b6157d660e086018261466e565b506157e5610100840184615642565b6157f361010086018261465f565b50615802610120840184615685565b61581061012086018261569c565b5061581f6101408401846156c0565b61582d6101408601826156d7565b508091505092915050565b6000604082019050818103600083015261585381858761498a565b9050818103602083015261586781846156e6565b9050949350505050565b7f494e56414c49445f414444524553530000000000000000000000000000000000600082015250565b60006158a7600f836140f9565b91506158b282615871565b602082019050919050565b600060208201905081810360008301526158d68161589a565b9050919050565b7f434845434b5f594f55525f535441545553000000000000000000000000000000600082015250565b60006159136011836140f9565b915061591e826158dd565b602082019050919050565b6000602082019050818103600083015261594281615906565b9050919050565b600081016000830161595b8185614d09565b615966818386615053565b50505050600181016020830161597c8185614d09565b615987818386615053565b50505050600281016040830161599d8185614d09565b6159a8818386615053565b5050505060038101606083016159be8185614d09565b6159c9818386615053565b5050505060048101608083016159df8185614d09565b6159ea818386615053565b505050506005810160a0830180615a008161512f565b9050615a0c8184615187565b5050506006810160c0830180615a2181615063565b9050615a2d818461510c565b5050505050565b615a3e8282615949565b5050565b7f4f4e4c595f544f504f535f4d414e414745520000000000000000000000000000600082015250565b6000615a786012836140f9565b9150615a8382615a42565b602082019050919050565b60006020820190508181036000830152615aa781615a6b565b9050919050565b60006101608301615ac260008401846155a1565b8583036000870152615ad5838284615615565b92505050615ae660208401846155a1565b8583036020870152615af9838284615615565b92505050615b0a60408401846155a1565b8583036040870152615b1d838284615615565b92505050615b2e6060840184615642565b615b3b606086018261465f565b50615b496080840184615659565b615b56608086018261466e565b50615b6460a0840184615659565b615b7160a086018261466e565b50615b7f60c0840184615659565b615b8c60c086018261466e565b50615b9a60e0840184615685565b615ba760e086018261569c565b50615bb6610100840184615659565b615bc461010086018261466e565b50615bd3610120840184615659565b615be161012086018261466e565b50615bf0610140840184615659565b615bfe61014086018261466e565b508091505092915050565b60006020820190508181036000830152615c238184615aae565b905092915050565b600060ff615c3884615079565b9350801983169250808416831791505092915050565b615c578261521b565b615c6a615c638261523d565b8354615c2b565b8255505050565b6000810160008301615c838185614d09565b615c8e818386615053565b505050506001810160208301615ca48185614d09565b615caf818386615053565b505050506002810160408301615cc58185614d09565b615cd0818386615053565b50505050600381016060830180615ce681615063565b9050615cf2818461510c565b505050600481016080830180615d078161512f565b9050615d138184615187565b5050506005810160a0830180615d288161512f565b9050615d348184615187565b5050506006810160c0830180615d498161512f565b9050615d558184615187565b5050506007810160e0830180615d6a816151c1565b9050615d768184615c4e565b50505060088101610100830180615d8c8161512f565b9050615d988184615187565b50505060098101610120830180615dae8161512f565b9050615dba8184615187565b505050600a8101610140830180615dd08161512f565b9050615ddc8184615187565b5050505050565b615ded8282615c71565b5050565b7f494e56414c49445f434f4e54524143545f414444524553530000000000000000600082015250565b6000615e276018836140f9565b9150615e3282615df1565b602082019050919050565b60006020820190508181036000830152615e5681615e1a565b9050919050565b7f494e564553544f52000000000000000000000000000000000000000000000000600082015250565b6000615e936008836140f9565b9150615e9e82615e5d565b602082019050919050565b60006040820190508181036000830152615ec281615e86565b9050615ed16020830184613f0a565b92915050565b7f4953535545520000000000000000000000000000000000000000000000000000600082015250565b6000615f0d6006836140f9565b9150615f1882615ed7565b602082019050919050565b60006040820190508181036000830152615f3c81615f00565b9050615f4b6020830184613f0a565b92915050565b6000810160008301615f638185614d09565b615f6e818386615053565b505050506001810160208301615f848185614d09565b615f8f818386615053565b505050506002810160408301615fa58185614d09565b615fb0818386615053565b50505050600381016060830180615fc681615063565b9050615fd2818461510c565b5050505050565b615fe38282615f51565b505056fea2646970667358221220a5135cc87df3dff20f87111700731c615e6987bba95817ba0d71b46f0f0d501064736f6c63430008130033",
  "immutableReferences": {},
  "source": "// SPDX-License-Identifier: CC0-1.0\npragma solidity ^0.8.0;\n\nimport \"../interfaces/IToposBank.sol\";\nimport \"./ToposBankStorage.sol\";\nimport \"../interfaces/IRoles.sol\";\nimport \"../interfaces/IBonds.sol\";\nimport \"../../tests/tokens/IERC20.sol\";\nimport \"../../treasury/IIssuersFund.sol\";\n\ncontract ToposBank is IToposBank, ToposBankStorage {\n    constructor(\n        address _toposManager,\n        address _rolesContract,\n        address _identityRegistryContract,\n        uint256 _dealFees\n    ) {\n        toposManager = _toposManager;\n        rolesContract = _rolesContract;\n        IRoles(_rolesContract).setRole(\"MANAGER\", _toposManager);\n        identityRegistryContract = _identityRegistryContract;\n        dealFees = _dealFees;\n    }\n\n    /**\n    * @notice Sends an registration request to become an issuer.\n    * @param _issuer Issuer struct. See BondData.sol\n    */\n    function requestRegistrationIssuer(\n        BondData.Issuer calldata _issuer\n    ) external mustBeApproved(_issuer.walletAddress) {\n        require(msg.sender == _issuer.walletAddress, \"INVALID_ADDRESS\");\n        require(\n            issuerStatus[msg.sender] == BondData.StakeHolderStatus.UNDEFINED,\n            \"CHECK_YOUR_STATUS\"\n        );\n\n        issuers[_issuer.walletAddress] = _issuer;\n        issuerStatus[msg.sender] = BondData.StakeHolderStatus.SUBMITTED;\n\n        emit RequestIssuerRegistration(_issuer.walletAddress);\n    }\n\n    /**\n    * @notice Sends an registration request to become an investor.\n    * @param _investor Investor struct. See BondData.sol\n    */\n    function requestRegistrationInvestor(\n        BondData.Investor calldata _investor\n    ) external mustBeApproved(_investor.walletAddress) {\n        require(msg.sender == _investor.walletAddress, \"INVALID_ADDRESS\");\n        require(\n            investorStatus[msg.sender] == BondData.StakeHolderStatus.UNDEFINED,\n            \"CHECK_YOUR_STATUS\"\n        );\n\n        investors[_investor.walletAddress] = _investor;\n        investorStatus[msg.sender] = BondData.StakeHolderStatus.SUBMITTED;\n\n        emit RequestInvestorRegistration(_investor.walletAddress);\n    }\n\n    /**\n    * @notice Approves an issuer registration request. Can be called only by Topos manager\n    * @param _issuer issuer's account address\n    */\n    function approveIssuer(address _issuer) external onlyToposManager {\n        require(\n            issuerStatus[_issuer] == BondData.StakeHolderStatus.SUBMITTED,\n            \"CHECK_YOUR_STATUS\"\n        );\n\n        issuerStatus[_issuer] = BondData.StakeHolderStatus.APPROVED;\n        IRoles(rolesContract).setRole(\"ISSUER\", _issuer);\n\n        emit ApproveIssuer(_issuer);\n    }\n\n    /**\n    * @notice Approves an investor registration request. Can be called only by Topos manager\n    * @param _investor investor's account address\n    */\n    function approveInvestor(address _investor) external onlyToposManager {\n        require(\n            investorStatus[_investor] == BondData.StakeHolderStatus.SUBMITTED,\n            \"CHECK_YOUR_STATUS\"\n        );\n\n        investorStatus[_investor] = BondData.StakeHolderStatus.APPROVED;\n        IRoles(rolesContract).setRole(\"INVESTOR\", _investor);\n\n        emit ApproveInvestor(_investor);\n    }\n\n    /**\n    * @notice Rejects an issuer registration request. Can be called only by Topos manager\n    * @param _issuer issuer's account address\n    */\n    function rejectIssuer(address _issuer) external onlyToposManager {\n        require(\n            issuerStatus[_issuer] == BondData.StakeHolderStatus.SUBMITTED,\n            \"CHECK_YOUR_STATUS\"\n        );\n\n        issuerStatus[_issuer] = BondData.StakeHolderStatus.REJECTED;\n\n        emit RejectIssuer(_issuer);\n    }\n\n    /**\n    * @notice Rejects an investor registration request. Can be called only by Topos manager\n    * @param _investor investor's account address\n    */\n    function rejectInvestor(address _investor) external onlyToposManager {\n        require(\n            investorStatus[_investor] == BondData.StakeHolderStatus.SUBMITTED,\n            \"CHECK_YOUR_STATUS\"\n        );\n\n        investorStatus[_investor] = BondData.StakeHolderStatus.REJECTED;\n\n        emit RejectInvestor(_investor);\n    }\n\n    /**\n    * @notice Submits a deal. Can be called only by registered issuers\n    * @param _dealID the deal ID\n    * @param _deal deal struct containing deal information - see BondData.sol\n    */\n    function submitDeal(\n        string calldata _dealID,\n        BondData.Deal calldata _deal\n    ) external {\n        require(\n            IRoles(rolesContract).isIssuer(msg.sender),\n            \"ONLY_ISSUERS\"\n        );\n        require(\n            msg.sender == _deal.issuerAddress,\n            \"INVALID_ISSUER_ADDRESS\"\n        );\n        require(\n            deals[_dealID].status == BondData.DealStatus.UNDEFINED,\n            \"INVALID_DEAL_STATUS\"\n        );\n\n        deals[_dealID] = _deal;\n        deals[_dealID].status = BondData.DealStatus.SUBMITTED;\n        deals[_dealID].index = listOfDeals.length;\n\n        listOfDeals.push(deals[_dealID]);\n\n        emit DealSubmitted(_dealID, _deal);\n    }\n\n    /**\n    * @notice Approves a deal. Can be called only by Topos Manager\n    * @param _dealID the deal ID\n    */\n    function approveDeal(\n        string calldata _dealID\n    ) external onlyToposManager {\n        require(\n            deals[_dealID].status == BondData.DealStatus.SUBMITTED,\n            \"INVALID_DEAL_STATUS\"\n        );\n\n        deals[_dealID].status = BondData.DealStatus.APPROVED;\n        listOfDeals[deals[_dealID].index].status = BondData.DealStatus.APPROVED;\n\n        emit DealAPproved(_dealID);\n    }\n\n    /**\n    * @notice Rejects a deal. Can be called only by Topos Manager\n    * @param _dealID the deal ID\n    */\n    function rejectDeal(\n        string calldata _dealID\n    ) external onlyToposManager {\n        require(\n            deals[_dealID].status == BondData.DealStatus.SUBMITTED,\n            \"INVALID_DEAL_STATUS\"\n        );\n\n        deals[_dealID].status = BondData.DealStatus.REJECTED;\n        listOfDeals[deals[_dealID].index].status = BondData.DealStatus.REJECTED;\n\n        emit DealARejected(_dealID);\n    }\n\n    /**\n    * @notice Investors call this function to register for a Deal\n    *         Investors must submit the amount the want to invest\n    * @param _dealID the deal ID\n    * @param _amount Amount to invest - in bond currency unit\n    */\n    function registerForDeal(\n        string calldata _dealID,\n        uint256 _amount\n    ) external mustBeApproved(msg.sender) {\n        uint256 _totalAmountInvested = totalAmountInvestedForDeal[_dealID];\n\n        if(deals[_dealID].status != BondData.DealStatus.APPROVED)\n            revert BondData.InvalidDealStatus(_dealID);\n        require(\n            _amount != 0 && _amount + _totalAmountInvested <= deals[_dealID].debtAmount,\n            \"INVALID_AMOUNT\"\n        );\n\n        bool hasInvested = amountInvested[msg.sender][_dealID].hasInvested;\n        totalAmountInvestedForDeal[_dealID] = _totalAmountInvested + _amount;\n\n        if(hasInvested) {\n            uint256 index = amountInvested[msg.sender][_dealID].index;\n            uint256 amount  = amountInvested[msg.sender][_dealID].amount;\n\n            dealInvestment[_dealID][index].amount = amount + _amount;\n            amountInvested[msg.sender][_dealID].amount = amount + _amount;\n        } else {\n            amountInvested[msg.sender][_dealID] =  BondData.Investment(\n                {\n                    amount: _amount,\n                    hasInvested: true,\n                    index: dealInvestment[_dealID].length\n                }\n            );\n\n            dealInvestment[_dealID].push(\n                BondData.DealInvestment(\n                    {\n                        investor: msg.sender,\n                        amount: _amount\n                    }\n                )\n            );       \n        }\n\n        IIssuersFund(issuersFundContract).addFund(_dealID, _amount);\n        IERC20(\n            deals[_dealID].currency\n        ).transferFrom(\n            msg.sender, issuersFundContract, _amount * 1 ether\n        );\n\n        emit RegisterForDeal(_dealID, msg.sender);\n    }\n\n    /**\n    * @notice Issues bonds to investors. Can be called only by Topos Manager\n    * @param _dealID the deal ID\n    * @param _bond bond struct containing bond information - see BondData.sol\n    * @param _bondContract the ERC-7092 bond contract address\n    */\n    function issue(\n        string calldata _dealID,\n        BondData.Bond calldata _bond,\n        address _bondContract\n    ) external onlyToposManager {\n        if(deals[_dealID].status != BondData.DealStatus.APPROVED)\n            revert BondData.InvalidDealStatus(_dealID);\n\n        dealBondContracts[_dealID] = _bondContract;\n\n        deals[_dealID].status != BondData.DealStatus.ISSUED;\n        listOfDeals[deals[_dealID].index].status = BondData.DealStatus.ISSUED;\n        issuerDeals[deals[_dealID].issuerAddress].push(deals[_dealID]);\n\n        IBonds(_bondContract).issue(_bond);\n\n        bonds.push(_bond);\n\n        emit BondIssue(_dealID);\n    }\n\n    /**\n    * @notice Redeem bonds. Can be called only by Topos Manager\n    * @param _dealID the deal ID\n    * @param _bondContract the ERC-7092 bond contract address\n    */\n    function redeem(\n        string calldata _dealID,\n        address _bondContract\n    ) external onlyToposManager {\n        if(deals[_dealID].status != BondData.DealStatus.ISSUED)\n            revert BondData.InvalidDealStatus(_dealID);\n\n        deals[_dealID].status != BondData.DealStatus.REDEEMED;\n        listOfDeals[deals[_dealID].index].status = BondData.DealStatus.REDEEMED;\n        issuerDeals[deals[_dealID].issuerAddress][deals[_dealID].index].status = BondData.DealStatus.REDEEMED;\n\n        IBonds(_bondContract).redeem();\n\n        emit BondRedeem(_dealID);\n    }\n\n    function getTotalAmounInvested(\n        string calldata _dealID\n    ) external view returns(uint256) {\n        return totalAmountInvestedForDeal[_dealID];\n    }\n\n    function getDealInvestment(\n        string calldata _dealID\n    ) external view returns(BondData.DealInvestment[] memory) {\n        return dealInvestment[_dealID];\n    }\n\n    function setIssuerFundContract(\n        address _issuerFundContract\n    ) external onlyToposManager {\n        require(_issuerFundContract != address(0), \"INVALID_CONTRACT_ADDRESS\");\n\n        issuersFundContract = _issuerFundContract;\n    }\n\n    /**\n    * @notice Returns the deal fees in bips\n    *         1 bips = 0.01% = 0.0001\n    *         ex: if interest rate = 5%, then `dealFees = 500`\n    */\n    function getDealFees() external view returns(uint256) {\n        return dealFees;\n    }\n}",
  "sourcePath": "/Users/sam/Documents/Blockchain/Topos/ToposGrant/T-Grant/contracts/Topos/Bank/ToposBank.sol",
  "compiler": {
    "name": "solc",
    "version": "0.8.19+commit.7dd6d404.Emscripten.clang"
  },
  "schemaVersion": "3.4.9",
  "updatedAt": "2023-11-06T13:25:03.007Z",
  "devdoc": {
    "kind": "dev",
    "methods": {
      "approveDeal(string)": {
        "params": {
          "_dealID": "the deal ID"
        }
      },
      "approveInvestor(address)": {
        "params": {
          "_investor": "investor's account address"
        }
      },
      "approveIssuer(address)": {
        "params": {
          "_issuer": "issuer's account address"
        }
      },
      "issue(string,(string,string,string,address,uint256,uint256,uint256,uint8,uint256,uint256,uint256),address)": {
        "params": {
          "_bond": "bond struct containing bond information - see BondData.sol",
          "_bondContract": "the ERC-7092 bond contract address",
          "_dealID": "the deal ID"
        }
      },
      "redeem(string,address)": {
        "params": {
          "_bondContract": "the ERC-7092 bond contract address",
          "_dealID": "the deal ID"
        }
      },
      "registerForDeal(string,uint256)": {
        "params": {
          "_amount": "Amount to invest - in bond currency unit",
          "_dealID": "the deal ID"
        }
      },
      "rejectDeal(string)": {
        "params": {
          "_dealID": "the deal ID"
        }
      },
      "rejectInvestor(address)": {
        "params": {
          "_investor": "investor's account address"
        }
      },
      "rejectIssuer(address)": {
        "params": {
          "_issuer": "issuer's account address"
        }
      },
      "requestRegistrationInvestor((string,string,string,address))": {
        "params": {
          "_investor": "Investor struct. See BondData.sol"
        }
      },
      "requestRegistrationIssuer((string,string,string,string,string,uint256,address))": {
        "params": {
          "_issuer": "Issuer struct. See BondData.sol"
        }
      },
      "submitDeal(string,(string,string,address,uint256,uint256,uint256,uint256,uint256,address,uint8,uint8))": {
        "params": {
          "_deal": "deal struct containing deal information - see BondData.sol",
          "_dealID": "the deal ID"
        }
      }
    },
    "version": 1
  },
  "userdoc": {
    "kind": "user",
    "methods": {
      "approveDeal(string)": {
        "notice": "Approves a deal. Can be called only by Topos Manager"
      },
      "approveInvestor(address)": {
        "notice": "Approves an investor registration request. Can be called only by Topos manager"
      },
      "approveIssuer(address)": {
        "notice": "Approves an issuer registration request. Can be called only by Topos manager"
      },
      "getDealFees()": {
        "notice": "Returns the deal fees in bips         1 bips = 0.01% = 0.0001         ex: if interest rate = 5%, then `dealFees = 500`"
      },
      "issue(string,(string,string,string,address,uint256,uint256,uint256,uint8,uint256,uint256,uint256),address)": {
        "notice": "Issues bonds to investors. Can be called only by Topos Manager"
      },
      "redeem(string,address)": {
        "notice": "Redeem bonds. Can be called only by Topos Manager"
      },
      "registerForDeal(string,uint256)": {
        "notice": "Investors call this function to register for a Deal         Investors must submit the amount the want to invest"
      },
      "rejectDeal(string)": {
        "notice": "Rejects a deal. Can be called only by Topos Manager"
      },
      "rejectInvestor(address)": {
        "notice": "Rejects an investor registration request. Can be called only by Topos manager"
      },
      "rejectIssuer(address)": {
        "notice": "Rejects an issuer registration request. Can be called only by Topos manager"
      },
      "requestRegistrationInvestor((string,string,string,address))": {
        "notice": "Sends an registration request to become an investor."
      },
      "requestRegistrationIssuer((string,string,string,string,string,uint256,address))": {
        "notice": "Sends an registration request to become an issuer."
      },
      "submitDeal(string,(string,string,address,uint256,uint256,uint256,uint256,uint256,address,uint8,uint8))": {
        "notice": "Submits a deal. Can be called only by registered issuers"
      }
    },
    "version": 1
  }
}