{
  "contractName": "ToposBankStorage",
  "abi": [
    {
      "anonymous": false,
      "inputs": [
        {
          "indexed": false,
          "internalType": "string",
          "name": "dealID",
          "type": "string"
        }
      ],
      "name": "DealAPproved",
      "type": "event"
    },
    {
      "anonymous": false,
      "inputs": [
        {
          "indexed": false,
          "internalType": "string",
          "name": "dealID",
          "type": "string"
        }
      ],
      "name": "DealARejected",
      "type": "event"
    },
    {
      "anonymous": false,
      "inputs": [
        {
          "indexed": false,
          "internalType": "string",
          "name": "dealID",
          "type": "string"
        },
        {
          "components": [
            {
              "internalType": "string",
              "name": "dealID",
              "type": "string"
            },
            {
              "internalType": "string",
              "name": "prospectusURI",
              "type": "string"
            },
            {
              "internalType": "address",
              "name": "issuerAddress",
              "type": "address"
            },
            {
              "internalType": "uint256",
              "name": "debtAmount",
              "type": "uint256"
            },
            {
              "internalType": "uint256",
              "name": "couponRate",
              "type": "uint256"
            },
            {
              "internalType": "uint256",
              "name": "couponFrequency",
              "type": "uint256"
            },
            {
              "internalType": "uint256",
              "name": "maturityDate",
              "type": "uint256"
            },
            {
              "internalType": "uint256",
              "name": "index",
              "type": "uint256"
            },
            {
              "internalType": "address",
              "name": "currency",
              "type": "address"
            },
            {
              "internalType": "uint8",
              "name": "couponType",
              "type": "uint8"
            },
            {
              "internalType": "enum BondData.DealStatus",
              "name": "status",
              "type": "uint8"
            }
          ],
          "indexed": false,
          "internalType": "struct BondData.Deal",
          "name": "deal",
          "type": "tuple"
        }
      ],
      "name": "DealSubmitted",
      "type": "event"
    },
    {
      "inputs": [
        {
          "internalType": "address",
          "name": "",
          "type": "address"
        },
        {
          "internalType": "string",
          "name": "",
          "type": "string"
        }
      ],
      "name": "amountInvested",
      "outputs": [
        {
          "internalType": "uint256",
          "name": "amount",
          "type": "uint256"
        },
        {
          "internalType": "bool",
          "name": "hasInvested",
          "type": "bool"
        },
        {
          "internalType": "uint256",
          "name": "index",
          "type": "uint256"
        }
      ],
      "stateMutability": "view",
      "type": "function"
    },
    {
      "inputs": [
        {
          "internalType": "string",
          "name": "",
          "type": "string"
        }
      ],
      "name": "dealBondContracts",
      "outputs": [
        {
          "internalType": "address",
          "name": "",
          "type": "address"
        }
      ],
      "stateMutability": "view",
      "type": "function"
    },
    {
      "inputs": [
        {
          "internalType": "string",
          "name": "",
          "type": "string"
        },
        {
          "internalType": "uint256",
          "name": "",
          "type": "uint256"
        }
      ],
      "name": "dealInvestment",
      "outputs": [
        {
          "internalType": "address",
          "name": "investor",
          "type": "address"
        },
        {
          "internalType": "uint256",
          "name": "amount",
          "type": "uint256"
        }
      ],
      "stateMutability": "view",
      "type": "function"
    },
    {
      "inputs": [
        {
          "internalType": "string",
          "name": "",
          "type": "string"
        }
      ],
      "name": "deals",
      "outputs": [
        {
          "internalType": "string",
          "name": "dealID",
          "type": "string"
        },
        {
          "internalType": "string",
          "name": "prospectusURI",
          "type": "string"
        },
        {
          "internalType": "address",
          "name": "issuerAddress",
          "type": "address"
        },
        {
          "internalType": "uint256",
          "name": "debtAmount",
          "type": "uint256"
        },
        {
          "internalType": "uint256",
          "name": "couponRate",
          "type": "uint256"
        },
        {
          "internalType": "uint256",
          "name": "couponFrequency",
          "type": "uint256"
        },
        {
          "internalType": "uint256",
          "name": "maturityDate",
          "type": "uint256"
        },
        {
          "internalType": "uint256",
          "name": "index",
          "type": "uint256"
        },
        {
          "internalType": "address",
          "name": "currency",
          "type": "address"
        },
        {
          "internalType": "uint8",
          "name": "couponType",
          "type": "uint8"
        },
        {
          "internalType": "enum BondData.DealStatus",
          "name": "status",
          "type": "uint8"
        }
      ],
      "stateMutability": "view",
      "type": "function"
    },
    {
      "inputs": [],
      "name": "identityRegistryContract",
      "outputs": [
        {
          "internalType": "address",
          "name": "",
          "type": "address"
        }
      ],
      "stateMutability": "view",
      "type": "function"
    },
    {
      "inputs": [
        {
          "internalType": "address",
          "name": "",
          "type": "address"
        }
      ],
      "name": "investorStatus",
      "outputs": [
        {
          "internalType": "enum BondData.StakeHolderStatus",
          "name": "",
          "type": "uint8"
        }
      ],
      "stateMutability": "view",
      "type": "function"
    },
    {
      "inputs": [
        {
          "internalType": "address",
          "name": "",
          "type": "address"
        }
      ],
      "name": "investors",
      "outputs": [
        {
          "internalType": "string",
          "name": "name",
          "type": "string"
        },
        {
          "internalType": "string",
          "name": "country",
          "type": "string"
        },
        {
          "internalType": "string",
          "name": "investorType",
          "type": "string"
        },
        {
          "internalType": "address",
          "name": "walletAddress",
          "type": "address"
        }
      ],
      "stateMutability": "view",
      "type": "function"
    },
    {
      "inputs": [
        {
          "internalType": "address",
          "name": "",
          "type": "address"
        }
      ],
      "name": "issuerStatus",
      "outputs": [
        {
          "internalType": "enum BondData.StakeHolderStatus",
          "name": "",
          "type": "uint8"
        }
      ],
      "stateMutability": "view",
      "type": "function"
    },
    {
      "inputs": [
        {
          "internalType": "address",
          "name": "",
          "type": "address"
        }
      ],
      "name": "issuers",
      "outputs": [
        {
          "internalType": "string",
          "name": "documentURI",
          "type": "string"
        },
        {
          "internalType": "string",
          "name": "name",
          "type": "string"
        },
        {
          "internalType": "string",
          "name": "country",
          "type": "string"
        },
        {
          "internalType": "string",
          "name": "issuerType",
          "type": "string"
        },
        {
          "internalType": "string",
          "name": "creditRating",
          "type": "string"
        },
        {
          "internalType": "uint256",
          "name": "carbonCredit",
          "type": "uint256"
        },
        {
          "internalType": "address",
          "name": "walletAddress",
          "type": "address"
        }
      ],
      "stateMutability": "view",
      "type": "function"
    },
    {
      "inputs": [],
      "name": "rolesContract",
      "outputs": [
        {
          "internalType": "address",
          "name": "",
          "type": "address"
        }
      ],
      "stateMutability": "view",
      "type": "function"
    },
    {
      "inputs": [],
      "name": "toposManager",
      "outputs": [
        {
          "internalType": "address",
          "name": "",
          "type": "address"
        }
      ],
      "stateMutability": "view",
      "type": "function"
    }
  ],
  "bytecode": "0x608060405234801561001057600080fd5b506112b6806100206000396000f3fe608060405234801561001057600080fd5b50600436106100a95760003560e01c80637f31ed73116100715780637f31ed7314610198578063a0a57dac146101b6578063ca53b391146101f0578063f936d49d1461020e578063fcbb3c181461023e578063fe0ab4b31461026e576100a9565b8063041e9b89146100ae578063088674e0146100e057806338a7543e146100fe578063499fa18a146101345780636f7bc9be14610165575b600080fd5b6100c860048036038101906100c39190610cee565b61029e565b6040516100d793929190610d7e565b60405180910390f35b6100e86102f8565b6040516100f59190610dc4565b60405180910390f35b61011860048036038101906101139190610ddf565b61031e565b60405161012b9796959493929190610e8b565b60405180910390f35b61014e60048036038101906101499190610f49565b610628565b60405161015c929190610fa5565b60405180910390f35b61017f600480360381019061017a9190610ddf565b61069f565b60405161018f9493929190610fce565b60405180910390f35b6101a0610887565b6040516101ad9190610dc4565b60405180910390f35b6101d060048036038101906101cb9190611028565b6108ad565b6040516101e79b9a99989796959493929190611104565b60405180910390f35b6101f8610a87565b6040516102059190610dc4565b60405180910390f35b61022860048036038101906102239190610ddf565b610aad565b6040516102359190611205565b60405180910390f35b61025860048036038101906102539190610ddf565b610acd565b6040516102659190611205565b60405180910390f35b61028860048036038101906102839190611028565b610aed565b6040516102959190610dc4565b60405180910390f35b600760205281600052604060002081805160208101820180518482526020830160208501208183528095505050505050600091509150508060000154908060010160009054906101000a900460ff16908060020154905083565b600a60009054906101000a900473ffffffffffffffffffffffffffffffffffffffff1681565b60016020528060005260406000206000915090508060000180546103419061124f565b80601f016020809104026020016040519081016040528092919081815260200182805461036d9061124f565b80156103ba5780601f1061038f576101008083540402835291602001916103ba565b820191906000526020600020905b81548152906001019060200180831161039d57829003601f168201915b5050505050908060010180546103cf9061124f565b80601f01602080910402602001604051908101604052809291908181526020018280546103fb9061124f565b80156104485780601f1061041d57610100808354040283529160200191610448565b820191906000526020600020905b81548152906001019060200180831161042b57829003601f168201915b50505050509080600201805461045d9061124f565b80601f01602080910402602001604051908101604052809291908181526020018280546104899061124f565b80156104d65780601f106104ab576101008083540402835291602001916104d6565b820191906000526020600020905b8154815290600101906020018083116104b957829003601f168201915b5050505050908060030180546104eb9061124f565b80601f01602080910402602001604051908101604052809291908181526020018280546105179061124f565b80156105645780601f1061053957610100808354040283529160200191610564565b820191906000526020600020905b81548152906001019060200180831161054757829003601f168201915b5050505050908060040180546105799061124f565b80601f01602080910402602001604051908101604052809291908181526020018280546105a59061124f565b80156105f25780601f106105c7576101008083540402835291602001916105f2565b820191906000526020600020905b8154815290600101906020018083116105d557829003601f168201915b5050505050908060050154908060060160009054906101000a900473ffffffffffffffffffffffffffffffffffffffff16905087565b600482805160208101820180518482526020830160208501208183528095505050505050818154811061065a57600080fd5b9060005260206000209060020201600091509150508060000160009054906101000a900473ffffffffffffffffffffffffffffffffffffffff16908060010154905082565b60026020528060005260406000206000915090508060000180546106c29061124f565b80601f01602080910402602001604051908101604052809291908181526020018280546106ee9061124f565b801561073b5780601f106107105761010080835404028352916020019161073b565b820191906000526020600020905b81548152906001019060200180831161071e57829003601f168201915b5050505050908060010180546107509061124f565b80601f016020809104026020016040519081016040528092919081815260200182805461077c9061124f565b80156107c95780601f1061079e576101008083540402835291602001916107c9565b820191906000526020600020905b8154815290600101906020018083116107ac57829003601f168201915b5050505050908060020180546107de9061124f565b80601f016020809104026020016040519081016040528092919081815260200182805461080a9061124f565b80156108575780601f1061082c57610100808354040283529160200191610857565b820191906000526020600020905b81548152906001019060200180831161083a57829003601f168201915b5050505050908060030160009054906101000a900473ffffffffffffffffffffffffffffffffffffffff16905084565b600860009054906101000a900473ffffffffffffffffffffffffffffffffffffffff1681565b6000818051602081018201805184825260208301602085012081835280955050505050506000915090508060000180546108e69061124f565b80601f01602080910402602001604051908101604052809291908181526020018280546109129061124f565b801561095f5780601f106109345761010080835404028352916020019161095f565b820191906000526020600020905b81548152906001019060200180831161094257829003601f168201915b5050505050908060010180546109749061124f565b80601f01602080910402602001604051908101604052809291908181526020018280546109a09061124f565b80156109ed5780601f106109c2576101008083540402835291602001916109ed565b820191906000526020600020905b8154815290600101906020018083116109d057829003601f168201915b5050505050908060020160009054906101000a900473ffffffffffffffffffffffffffffffffffffffff16908060030154908060040154908060050154908060060154908060070154908060080160009054906101000a900473ffffffffffffffffffffffffffffffffffffffff16908060080160149054906101000a900460ff16908060080160159054906101000a900460ff1690508b565b600960009054906101000a900473ffffffffffffffffffffffffffffffffffffffff1681565b60066020528060005260406000206000915054906101000a900460ff1681565b60056020528060005260406000206000915054906101000a900460ff1681565b6003818051602081018201805184825260208301602085012081835280955050505050506000915054906101000a900473ffffffffffffffffffffffffffffffffffffffff1681565b6000604051905090565b600080fd5b600080fd5b600073ffffffffffffffffffffffffffffffffffffffff82169050919050565b6000610b7582610b4a565b9050919050565b610b8581610b6a565b8114610b9057600080fd5b50565b600081359050610ba281610b7c565b92915050565b600080fd5b600080fd5b6000601f19601f8301169050919050565b7f4e487b7100000000000000000000000000000000000000000000000000000000600052604160045260246000fd5b610bfb82610bb2565b810181811067ffffffffffffffff82111715610c1a57610c19610bc3565b5b80604052505050565b6000610c2d610b36565b9050610c398282610bf2565b919050565b600067ffffffffffffffff821115610c5957610c58610bc3565b5b610c6282610bb2565b9050602081019050919050565b82818337600083830152505050565b6000610c91610c8c84610c3e565b610c23565b905082815260208101848484011115610cad57610cac610bad565b5b610cb8848285610c6f565b509392505050565b600082601f830112610cd557610cd4610ba8565b5b8135610ce5848260208601610c7e565b91505092915050565b60008060408385031215610d0557610d04610b40565b5b6000610d1385828601610b93565b925050602083013567ffffffffffffffff811115610d3457610d33610b45565b5b610d4085828601610cc0565b9150509250929050565b6000819050919050565b610d5d81610d4a565b82525050565b60008115159050919050565b610d7881610d63565b82525050565b6000606082019050610d936000830186610d54565b610da06020830185610d6f565b610dad6040830184610d54565b949350505050565b610dbe81610b6a565b82525050565b6000602082019050610dd96000830184610db5565b92915050565b600060208284031215610df557610df4610b40565b5b6000610e0384828501610b93565b91505092915050565b600081519050919050565b600082825260208201905092915050565b60005b83811015610e46578082015181840152602081019050610e2b565b60008484015250505050565b6000610e5d82610e0c565b610e678185610e17565b9350610e77818560208601610e28565b610e8081610bb2565b840191505092915050565b600060e0820190508181036000830152610ea5818a610e52565b90508181036020830152610eb98189610e52565b90508181036040830152610ecd8188610e52565b90508181036060830152610ee18187610e52565b90508181036080830152610ef58186610e52565b9050610f0460a0830185610d54565b610f1160c0830184610db5565b98975050505050505050565b610f2681610d4a565b8114610f3157600080fd5b50565b600081359050610f4381610f1d565b92915050565b60008060408385031215610f6057610f5f610b40565b5b600083013567ffffffffffffffff811115610f7e57610f7d610b45565b5b610f8a85828601610cc0565b9250506020610f9b85828601610f34565b9150509250929050565b6000604082019050610fba6000830185610db5565b610fc76020830184610d54565b9392505050565b60006080820190508181036000830152610fe88187610e52565b90508181036020830152610ffc8186610e52565b905081810360408301526110108185610e52565b905061101f6060830184610db5565b95945050505050565b60006020828403121561103e5761103d610b40565b5b600082013567ffffffffffffffff81111561105c5761105b610b45565b5b61106884828501610cc0565b91505092915050565b600060ff82169050919050565b61108781611071565b82525050565b7f4e487b7100000000000000000000000000000000000000000000000000000000600052602160045260246000fd5b600681106110cd576110cc61108d565b5b50565b60008190506110de826110bc565b919050565b60006110ee826110d0565b9050919050565b6110fe816110e3565b82525050565b600061016082019050818103600083015261111f818e610e52565b90508181036020830152611133818d610e52565b9050611142604083018c610db5565b61114f606083018b610d54565b61115c608083018a610d54565b61116960a0830189610d54565b61117660c0830188610d54565b61118360e0830187610d54565b611191610100830186610db5565b61119f61012083018561107e565b6111ad6101408301846110f5565b9c9b505050505050505050505050565b600481106111ce576111cd61108d565b5b50565b60008190506111df826111bd565b919050565b60006111ef826111d1565b9050919050565b6111ff816111e4565b82525050565b600060208201905061121a60008301846111f6565b92915050565b7f4e487b7100000000000000000000000000000000000000000000000000000000600052602260045260246000fd5b6000600282049050600182168061126757607f821691505b60208210810361127a57611279611220565b5b5091905056fea264697066735822122029354ac53f51e52efbb8860b47a0d910e75f4126aea3be33bfd9c2af640967e264736f6c63430008130033",
  "immutableReferences": {},
  "source": "// SPDX-License-Identifier: CC0-1.0\npragma solidity ^0.8.0;\n\nimport \"../../BondData.sol\";\nimport \"../../Registry/IIdentityRegistry.sol\";\nimport \"../../tests/tokens/IERC20.sol\";\n\ncontract ToposBankStorage {\n    mapping(string => BondData.Deal) public deals;\n    mapping(address => BondData.Issuer) public issuers;\n    mapping(address => BondData.Investor) public investors;\n    mapping(string => address) public dealBondContracts;\n    mapping(string => BondData.DealInvestment[]) public dealInvestment;\n    mapping(address => BondData.StakeHolderStatus) public issuerStatus;\n    mapping(address => BondData.StakeHolderStatus) public investorStatus;\n    mapping(address => mapping(string => BondData.Investment)) public amountInvested;\n\n    address public toposManager;\n    address public rolesContract;\n    address public identityRegistryContract;\n\n    BondData.Bond[] bonds;\n    BondData.Deal[] listOfDeals;\n\n    address bondFactoryContract;\n\n    modifier onlyToposManager {\n        require(\n            msg.sender == toposManager,\n            \"ONLY_TOPOS_MANAGER\"\n        );\n        _;\n    }\n\n    modifier mustBeApproved(address _user) {\n        require(\n            IIdentityRegistry(identityRegistryContract).isVerified(_user),\n            \"ACCOUNT_NOT_AAPROVED\"\n        );\n        _;\n    }\n\n    event DealSubmitted(string dealID, BondData.Deal deal);\n    event DealAPproved(string dealID);\n    event DealARejected(string dealID);\n}",
  "sourcePath": "/Users/sam/Documents/Blockchain/Topos/ToposGrant/T-Grant/contracts/Topos/Bank/ToposBankStorage.sol",
  "compiler": {
    "name": "solc",
    "version": "0.8.19+commit.7dd6d404.Emscripten.clang"
  },
  "schemaVersion": "3.4.9",
  "updatedAt": "2023-11-05T00:38:19.162Z",
  "devdoc": {
    "kind": "dev",
    "methods": {},
    "version": 1
  },
  "userdoc": {
    "kind": "user",
    "methods": {},
    "version": 1
  }
}