{
  "_format": "hh-sol-artifact-1",
  "contractName": "Investor",
  "sourceName": "contracts/Topos/Bank/Investor.sol",
  "abi": [
    {
      "inputs": [
        {
          "internalType": "address",
          "name": "_toposBankContract",
          "type": "address"
        }
      ],
      "stateMutability": "nonpayable",
      "type": "constructor"
    },
    {
      "anonymous": false,
      "inputs": [
        {
          "indexed": false,
          "internalType": "address",
          "name": "investor",
          "type": "address"
        }
      ],
      "name": "ApproveInvestor",
      "type": "event"
    },
    {
      "anonymous": false,
      "inputs": [
        {
          "indexed": false,
          "internalType": "address",
          "name": "investor",
          "type": "address"
        }
      ],
      "name": "RejectInvestor",
      "type": "event"
    },
    {
      "anonymous": false,
      "inputs": [
        {
          "indexed": false,
          "internalType": "address",
          "name": "investor",
          "type": "address"
        }
      ],
      "name": "RequestInvestorRegistration",
      "type": "event"
    },
    {
      "inputs": [
        {
          "internalType": "address",
          "name": "_investorAddress",
          "type": "address"
        }
      ],
      "name": "approveInvestor",
      "outputs": [],
      "stateMutability": "nonpayable",
      "type": "function"
    },
    {
      "inputs": [],
      "name": "getInvestors",
      "outputs": [
        {
          "components": [
            {
              "internalType": "string",
              "name": "name",
              "type": "string"
            },
            {
              "internalType": "string",
              "name": "country",
              "type": "string"
            },
            {
              "internalType": "string",
              "name": "investorType",
              "type": "string"
            },
            {
              "internalType": "address",
              "name": "walletAddress",
              "type": "address"
            },
            {
              "internalType": "enum BondData.StakeHolderStatus",
              "name": "status",
              "type": "uint8"
            },
            {
              "internalType": "uint256",
              "name": "index",
              "type": "uint256"
            }
          ],
          "internalType": "struct BondData.Investor[]",
          "name": "",
          "type": "tuple[]"
        }
      ],
      "stateMutability": "view",
      "type": "function"
    },
    {
      "inputs": [
        {
          "internalType": "address",
          "name": "",
          "type": "address"
        }
      ],
      "name": "investors",
      "outputs": [
        {
          "internalType": "string",
          "name": "name",
          "type": "string"
        },
        {
          "internalType": "string",
          "name": "country",
          "type": "string"
        },
        {
          "internalType": "string",
          "name": "investorType",
          "type": "string"
        },
        {
          "internalType": "address",
          "name": "walletAddress",
          "type": "address"
        },
        {
          "internalType": "enum BondData.StakeHolderStatus",
          "name": "status",
          "type": "uint8"
        },
        {
          "internalType": "uint256",
          "name": "index",
          "type": "uint256"
        }
      ],
      "stateMutability": "view",
      "type": "function"
    },
    {
      "inputs": [
        {
          "internalType": "address",
          "name": "_investorAddress",
          "type": "address"
        }
      ],
      "name": "rejectInvestor",
      "outputs": [],
      "stateMutability": "nonpayable",
      "type": "function"
    },
    {
      "inputs": [
        {
          "components": [
            {
              "internalType": "string",
              "name": "name",
              "type": "string"
            },
            {
              "internalType": "string",
              "name": "country",
              "type": "string"
            },
            {
              "internalType": "string",
              "name": "investorType",
              "type": "string"
            },
            {
              "internalType": "address",
              "name": "walletAddress",
              "type": "address"
            },
            {
              "internalType": "enum BondData.StakeHolderStatus",
              "name": "status",
              "type": "uint8"
            },
            {
              "internalType": "uint256",
              "name": "index",
              "type": "uint256"
            }
          ],
          "internalType": "struct BondData.Investor",
          "name": "_investor",
          "type": "tuple"
        }
      ],
      "name": "requestRegistrationInvestor",
      "outputs": [],
      "stateMutability": "nonpayable",
      "type": "function"
    },
    {
      "inputs": [],
      "name": "toposBankContract",
      "outputs": [
        {
          "internalType": "address",
          "name": "",
          "type": "address"
        }
      ],
      "stateMutability": "view",
      "type": "function"
    }
  ],
  "bytecode": "0x60806040523480156200001157600080fd5b50604051620026a1380380620026a18339818101604052810190620000379190620000e9565b80600160006101000a81548173ffffffffffffffffffffffffffffffffffffffff021916908373ffffffffffffffffffffffffffffffffffffffff160217905550506200011b565b600080fd5b600073ffffffffffffffffffffffffffffffffffffffff82169050919050565b6000620000b18262000084565b9050919050565b620000c381620000a4565b8114620000cf57600080fd5b50565b600081519050620000e381620000b8565b92915050565b6000602082840312156200010257620001016200007f565b5b60006200011284828501620000d2565b91505092915050565b612576806200012b6000396000f3fe608060405234801561001057600080fd5b50600436106100625760003560e01c80633d2be8f9146100675780636f7bc9be146100835780637de14129146100b85780639c34712a146100d4578063b2f5a54c146100f2578063d304a81314610110575b600080fd5b610081600480360381019061007c91906115f7565b61012c565b005b61009d6004803603810190610098919061169e565b610675565b6040516100af969594939291906117fa565b60405180910390f35b6100d260048036038101906100cd919061169e565b610876565b005b6100dc610deb565b6040516100e99190611870565b60405180910390f35b6100fa610e11565b6040516101079190611a5b565b60405180910390f35b61012a6004803603810190610125919061169e565b6110c1565b005b80606001602081019061013f919061169e565b6000600160009054906101000a900473ffffffffffffffffffffffffffffffffffffffff1673ffffffffffffffffffffffffffffffffffffffff1663c3a2a93a6040518163ffffffff1660e01b815260040160a060405180830381865afa1580156101ae573d6000803e3d6000fd5b505050506040513d601f19601f820116820180604052508101906101d29190611a92565b5050925050508073ffffffffffffffffffffffffffffffffffffffff1663b9209e33836040518263ffffffff1660e01b81526004016102119190611870565b602060405180830381865afa15801561022e573d6000803e3d6000fd5b505050506040513d601f19601f820116820180604052508101906102529190611b45565b610291576040517f08c379a000000000000000000000000000000000000000000000000000000000815260040161028890611bbe565b60405180910390fd5b60008360600160208101906102a6919061169e565b90508360600160208101906102bb919061169e565b73ffffffffffffffffffffffffffffffffffffffff163373ffffffffffffffffffffffffffffffffffffffff1614610328576040517f08c379a000000000000000000000000000000000000000000000000000000000815260040161031f90611c2a565b60405180910390fd5b6000600381111561033c5761033b61176a565b5b6000808373ffffffffffffffffffffffffffffffffffffffff1673ffffffffffffffffffffffffffffffffffffffff16815260200190815260200160002060030160149054906101000a900460ff16600381111561039d5761039c61176a565b5b146103dd576040517f08c379a00000000000000000000000000000000000000000000000000000000081526004016103d490611c96565b60405180910390fd5b836000808373ffffffffffffffffffffffffffffffffffffffff1673ffffffffffffffffffffffffffffffffffffffff1681526020019081526020016000208181610428919061231f565b90505060016000808373ffffffffffffffffffffffffffffffffffffffff1673ffffffffffffffffffffffffffffffffffffffff16815260200190815260200160002060030160146101000a81548160ff021916908360038111156104905761048f61176a565b5b02179055506002805490506000808373ffffffffffffffffffffffffffffffffffffffff1673ffffffffffffffffffffffffffffffffffffffff1681526020019081526020016000206004018190555060026000808373ffffffffffffffffffffffffffffffffffffffff1673ffffffffffffffffffffffffffffffffffffffff16815260200190815260200160002090806001815401808255809150506001900390600052602060002090600502016000909190919091506000820181600001908161055d9190612343565b50600182018160010190816105729190612343565b50600282018160020190816105879190612343565b506003820160009054906101000a900473ffffffffffffffffffffffffffffffffffffffff168160030160006101000a81548173ffffffffffffffffffffffffffffffffffffffff021916908373ffffffffffffffffffffffffffffffffffffffff1602179055506003820160149054906101000a900460ff168160030160146101000a81548160ff021916908360038111156106275761062661176a565b5b02179055506004820154816004015550507fe42136ccc1d423b080e7fa005aa542f4bc344c1e5420e3c313fbe9ce0077ad54816040516106679190611870565b60405180910390a150505050565b600060205280600052604060002060009150905080600001805461069890611d91565b80601f01602080910402602001604051908101604052809291908181526020018280546106c490611d91565b80156107115780601f106106e657610100808354040283529160200191610711565b820191906000526020600020905b8154815290600101906020018083116106f457829003601f168201915b50505050509080600101805461072690611d91565b80601f016020809104026020016040519081016040528092919081815260200182805461075290611d91565b801561079f5780601f106107745761010080835404028352916020019161079f565b820191906000526020600020905b81548152906001019060200180831161078257829003601f168201915b5050505050908060020180546107b490611d91565b80601f01602080910402602001604051908101604052809291908181526020018280546107e090611d91565b801561082d5780601f106108025761010080835404028352916020019161082d565b820191906000526020600020905b81548152906001019060200180831161081057829003601f168201915b5050505050908060030160009054906101000a900473ffffffffffffffffffffffffffffffffffffffff16908060030160149054906101000a900460ff16908060040154905086565b60008060008373ffffffffffffffffffffffffffffffffffffffff1673ffffffffffffffffffffffffffffffffffffffff1681526020019081526020016000206040518060c00160405290816000820180546108d190611d91565b80601f01602080910402602001604051908101604052809291908181526020018280546108fd90611d91565b801561094a5780601f1061091f5761010080835404028352916020019161094a565b820191906000526020600020905b81548152906001019060200180831161092d57829003601f168201915b5050505050815260200160018201805461096390611d91565b80601f016020809104026020016040519081016040528092919081815260200182805461098f90611d91565b80156109dc5780601f106109b1576101008083540402835291602001916109dc565b820191906000526020600020905b8154815290600101906020018083116109bf57829003601f168201915b505050505081526020016002820180546109f590611d91565b80601f0160208091040260200160405190810160405280929190818152602001828054610a2190611d91565b8015610a6e5780601f10610a4357610100808354040283529160200191610a6e565b820191906000526020600020905b815481529060010190602001808311610a5157829003601f168201915b505050505081526020016003820160009054906101000a900473ffffffffffffffffffffffffffffffffffffffff1673ffffffffffffffffffffffffffffffffffffffff1673ffffffffffffffffffffffffffffffffffffffff1681526020016003820160149054906101000a900460ff166003811115610af257610af161176a565b5b6003811115610b0457610b0361176a565b5b81526020016004820154815250509050600080600160009054906101000a900473ffffffffffffffffffffffffffffffffffffffff1673ffffffffffffffffffffffffffffffffffffffff1663c3a2a93a6040518163ffffffff1660e01b815260040160a060405180830381865afa158015610b84573d6000803e3d6000fd5b505050506040513d601f19601f82011682018060405250810190610ba89190611a92565b505050915091508173ffffffffffffffffffffffffffffffffffffffff163373ffffffffffffffffffffffffffffffffffffffff1614610c1d576040517f08c379a0000000000000000000000000000000000000000000000000000000008152600401610c1490612477565b60405180910390fd5b60016003811115610c3157610c3061176a565b5b83608001516003811115610c4857610c4761176a565b5b14610c88576040517f08c379a0000000000000000000000000000000000000000000000000000000008152600401610c7f90611c96565b60405180910390fd5b60026000808673ffffffffffffffffffffffffffffffffffffffff1673ffffffffffffffffffffffffffffffffffffffff16815260200190815260200160002060030160146101000a81548160ff02191690836003811115610ced57610cec61176a565b5b02179055506002808460a0015181548110610d0b57610d0a612497565b5b906000526020600020906005020160030160146101000a81548160ff02191690836003811115610d3e57610d3d61176a565b5b02179055508073ffffffffffffffffffffffffffffffffffffffff1663cfde1890856040518263ffffffff1660e01b8152600401610d7c9190612512565b600060405180830381600087803b158015610d9657600080fd5b505af1158015610daa573d6000803e3d6000fd5b505050507f45b6e306480b490c59801f6f851ed6d7d4bd880db4c8f75dd1112d2fc0a1c9d784604051610ddd9190611870565b60405180910390a150505050565b600160009054906101000a900473ffffffffffffffffffffffffffffffffffffffff1681565b60606002805480602002602001604051908101604052809291908181526020016000905b828210156110b857838290600052602060002090600502016040518060c0016040529081600082018054610e6890611d91565b80601f0160208091040260200160405190810160405280929190818152602001828054610e9490611d91565b8015610ee15780601f10610eb657610100808354040283529160200191610ee1565b820191906000526020600020905b815481529060010190602001808311610ec457829003601f168201915b50505050508152602001600182018054610efa90611d91565b80601f0160208091040260200160405190810160405280929190818152602001828054610f2690611d91565b8015610f735780601f10610f4857610100808354040283529160200191610f73565b820191906000526020600020905b815481529060010190602001808311610f5657829003601f168201915b50505050508152602001600282018054610f8c90611d91565b80601f0160208091040260200160405190810160405280929190818152602001828054610fb890611d91565b80156110055780601f10610fda57610100808354040283529160200191611005565b820191906000526020600020905b815481529060010190602001808311610fe857829003601f168201915b505050505081526020016003820160009054906101000a900473ffffffffffffffffffffffffffffffffffffffff1673ffffffffffffffffffffffffffffffffffffffff1673ffffffffffffffffffffffffffffffffffffffff1681526020016003820160149054906101000a900460ff1660038111156110895761108861176a565b5b600381111561109b5761109a61176a565b5b815260200160048201548152505081526020019060010190610e35565b50505050905090565b60008060008373ffffffffffffffffffffffffffffffffffffffff1673ffffffffffffffffffffffffffffffffffffffff1681526020019081526020016000206040518060c001604052908160008201805461111c90611d91565b80601f016020809104026020016040519081016040528092919081815260200182805461114890611d91565b80156111955780601f1061116a57610100808354040283529160200191611195565b820191906000526020600020905b81548152906001019060200180831161117857829003601f168201915b505050505081526020016001820180546111ae90611d91565b80601f01602080910402602001604051908101604052809291908181526020018280546111da90611d91565b80156112275780601f106111fc57610100808354040283529160200191611227565b820191906000526020600020905b81548152906001019060200180831161120a57829003601f168201915b5050505050815260200160028201805461124090611d91565b80601f016020809104026020016040519081016040528092919081815260200182805461126c90611d91565b80156112b95780601f1061128e576101008083540402835291602001916112b9565b820191906000526020600020905b81548152906001019060200180831161129c57829003601f168201915b505050505081526020016003820160009054906101000a900473ffffffffffffffffffffffffffffffffffffffff1673ffffffffffffffffffffffffffffffffffffffff1673ffffffffffffffffffffffffffffffffffffffff1681526020016003820160149054906101000a900460ff16600381111561133d5761133c61176a565b5b600381111561134f5761134e61176a565b5b815260200160048201548152505090506000600160009054906101000a900473ffffffffffffffffffffffffffffffffffffffff1673ffffffffffffffffffffffffffffffffffffffff1663c3a2a93a6040518163ffffffff1660e01b815260040160a060405180830381865afa1580156113ce573d6000803e3d6000fd5b505050506040513d601f19601f820116820180604052508101906113f29190611a92565b5050505090508073ffffffffffffffffffffffffffffffffffffffff163373ffffffffffffffffffffffffffffffffffffffff1614611466576040517f08c379a000000000000000000000000000000000000000000000000000000000815260040161145d90612477565b60405180910390fd5b6001600381111561147a5761147961176a565b5b826080015160038111156114915761149061176a565b5b146114d1576040517f08c379a00000000000000000000000000000000000000000000000000000000081526004016114c890611c96565b60405180910390fd5b60036000808573ffffffffffffffffffffffffffffffffffffffff1673ffffffffffffffffffffffffffffffffffffffff16815260200190815260200160002060030160146101000a81548160ff021916908360038111156115365761153561176a565b5b0217905550600360028360a001518154811061155557611554612497565b5b906000526020600020906005020160030160146101000a81548160ff021916908360038111156115885761158761176a565b5b02179055507f7456ce1c99ee8a1b09f67c52be737a92db545ec137e72de0e1b70bc0c4a12809836040516115bc9190611870565b60405180910390a1505050565b600080fd5b600080fd5b600080fd5b600060c082840312156115ee576115ed6115d3565b5b81905092915050565b60006020828403121561160d5761160c6115c9565b5b600082013567ffffffffffffffff81111561162b5761162a6115ce565b5b611637848285016115d8565b91505092915050565b600073ffffffffffffffffffffffffffffffffffffffff82169050919050565b600061166b82611640565b9050919050565b61167b81611660565b811461168657600080fd5b50565b60008135905061169881611672565b92915050565b6000602082840312156116b4576116b36115c9565b5b60006116c284828501611689565b91505092915050565b600081519050919050565b600082825260208201905092915050565b60005b838110156117055780820151818401526020810190506116ea565b60008484015250505050565b6000601f19601f8301169050919050565b600061172d826116cb565b61173781856116d6565b93506117478185602086016116e7565b61175081611711565b840191505092915050565b61176481611660565b82525050565b7f4e487b7100000000000000000000000000000000000000000000000000000000600052602160045260246000fd5b600481106117aa576117a961176a565b5b50565b60008190506117bb82611799565b919050565b60006117cb826117ad565b9050919050565b6117db816117c0565b82525050565b6000819050919050565b6117f4816117e1565b82525050565b600060c08201905081810360008301526118148189611722565b905081810360208301526118288188611722565b9050818103604083015261183c8187611722565b905061184b606083018661175b565b61185860808301856117d2565b61186560a08301846117eb565b979650505050505050565b6000602082019050611885600083018461175b565b92915050565b600081519050919050565b600082825260208201905092915050565b6000819050602082019050919050565b600082825260208201905092915050565b60006118d3826116cb565b6118dd81856118b7565b93506118ed8185602086016116e7565b6118f681611711565b840191505092915050565b61190a81611660565b82525050565b611919816117c0565b82525050565b611928816117e1565b82525050565b600060c083016000830151848203600086015261194b82826118c8565b9150506020830151848203602086015261196582826118c8565b9150506040830151848203604086015261197f82826118c8565b91505060608301516119946060860182611901565b5060808301516119a76080860182611910565b5060a08301516119ba60a086018261191f565b508091505092915050565b60006119d1838361192e565b905092915050565b6000602082019050919050565b60006119f18261188b565b6119fb8185611896565b935083602082028501611a0d856118a7565b8060005b85811015611a495784840389528151611a2a85826119c5565b9450611a35836119d9565b925060208a01995050600181019050611a11565b50829750879550505050505092915050565b60006020820190508181036000830152611a7581846119e6565b905092915050565b600081519050611a8c81611672565b92915050565b600080600080600060a08688031215611aae57611aad6115c9565b5b6000611abc88828901611a7d565b9550506020611acd88828901611a7d565b9450506040611ade88828901611a7d565b9350506060611aef88828901611a7d565b9250506080611b0088828901611a7d565b9150509295509295909350565b60008115159050919050565b611b2281611b0d565b8114611b2d57600080fd5b50565b600081519050611b3f81611b19565b92915050565b600060208284031215611b5b57611b5a6115c9565b5b6000611b6984828501611b30565b91505092915050565b7f4143434f554e545f4e4f545f414150524f564544000000000000000000000000600082015250565b6000611ba86014836116d6565b9150611bb382611b72565b602082019050919050565b60006020820190508181036000830152611bd781611b9b565b9050919050565b7f494e56414c49445f414444524553530000000000000000000000000000000000600082015250565b6000611c14600f836116d6565b9150611c1f82611bde565b602082019050919050565b60006020820190508181036000830152611c4381611c07565b9050919050565b7f434845434b5f594f55525f535441545553000000000000000000000000000000600082015250565b6000611c806011836116d6565b9150611c8b82611c4a565b602082019050919050565b60006020820190508181036000830152611caf81611c73565b9050919050565b600080fd5b600080fd5b600080fd5b60008083356001602003843603038112611ce257611ce1611cb6565b5b80840192508235915067ffffffffffffffff821115611d0457611d03611cbb565b5b602083019250600182023603831315611d2057611d1f611cc0565b5b509250929050565b600082905092915050565b7f4e487b7100000000000000000000000000000000000000000000000000000000600052604160045260246000fd5b7f4e487b7100000000000000000000000000000000000000000000000000000000600052602260045260246000fd5b60006002820490506001821680611da957607f821691505b602082108103611dbc57611dbb611d62565b5b50919050565b60008190508160005260206000209050919050565b60006020601f8301049050919050565b600082821b905092915050565b600060088302611e247fffffffffffffffffffffffffffffffffffffffffffffffffffffffffffffffff82611de7565b611e2e8683611de7565b95508019841693508086168417925050509392505050565b6000819050919050565b6000611e6b611e66611e61846117e1565b611e46565b6117e1565b9050919050565b6000819050919050565b611e8583611e50565b611e99611e9182611e72565b848454611df4565b825550505050565b600090565b611eae611ea1565b611eb9818484611e7c565b505050565b5b81811015611edd57611ed2600082611ea6565b600181019050611ebf565b5050565b601f821115611f2257611ef381611dc2565b611efc84611dd7565b81016020851015611f0b578190505b611f1f611f1785611dd7565b830182611ebe565b50505b505050565b600082821c905092915050565b6000611f4560001984600802611f27565b1980831691505092915050565b6000611f5e8383611f34565b9150826002028217905092915050565b611f788383611d28565b67ffffffffffffffff811115611f9157611f90611d33565b5b611f9b8254611d91565b611fa6828285611ee1565b6000601f831160018114611fd55760008415611fc3578287013590505b611fcd8582611f52565b865550612035565b601f198416611fe386611dc2565b60005b8281101561200b57848901358255600182019150602085019450602081019050611fe6565b868310156120285784890135612024601f891682611f34565b8355505b6001600288020188555050505b50505050505050565b612049838383611f6e565b505050565b6000813561205b81611672565b80915050919050565b60008160001b9050919050565b600073ffffffffffffffffffffffffffffffffffffffff61209184612064565b9350801983169250808416831791505092915050565b60006120c26120bd6120b884611640565b611e46565b611640565b9050919050565b60006120d4826120a7565b9050919050565b60006120e6826120c9565b9050919050565b6000819050919050565b612100826120db565b61211361210c826120ed565b8354612071565b8255505050565b6004811061212757600080fd5b50565b600081356121378161211a565b80915050919050565b60008160a01b9050919050565b600074ff000000000000000000000000000000000000000061216e84612140565b9350801983169250808416831791505092915050565b600061218f826117ad565b9050919050565b6000819050919050565b6121a982612184565b6121bc6121b582612196565b835461214d565b8255505050565b6121cc816117e1565b81146121d757600080fd5b50565b600081356121e7816121c3565b80915050919050565b60007fffffffffffffffffffffffffffffffffffffffffffffffffffffffffffffffff61221c84612064565b9350801983169250808416831791505092915050565b61223b82611e50565b61224e61224782611e72565b83546121f0565b8255505050565b60008101600083016122678185611cc5565b61227281838661203e565b5050505060018101602083016122888185611cc5565b61229381838661203e565b5050505060028101604083016122a98185611cc5565b6122b481838661203e565b505050506003810160608301806122ca8161204e565b90506122d681846120f7565b5050506003810160808301806122eb8161212a565b90506122f781846121a0565b5050506004810160a083018061230c816121da565b90506123188184612232565b5050505050565b6123298282612255565b5050565b60008154905061233c81611d91565b9050919050565b818103612351575050612429565b61235a8261232d565b67ffffffffffffffff81111561237357612372611d33565b5b61237d8254611d91565b612388828285611ee1565b6000601f8311600181146123b757600084156123a5578287015490505b6123af8582611f52565b865550612422565b601f1984166123c587611dc2565b96506123d086611dc2565b60005b828110156123f8578489015482556001820191506001850194506020810190506123d3565b868310156124155784890154612411601f891682611f34565b8355505b6001600288020188555050505b5050505050505b565b7f4f4e4c595f544f504f535f4d414e414745520000000000000000000000000000600082015250565b60006124616012836116d6565b915061246c8261242b565b602082019050919050565b6000602082019050818103600083015261249081612454565b9050919050565b7f4e487b7100000000000000000000000000000000000000000000000000000000600052603260045260246000fd5b7f494e564553544f52000000000000000000000000000000000000000000000000600082015250565b60006124fc6008836116d6565b9150612507826124c6565b602082019050919050565b6000604082019050818103600083015261252b816124ef565b905061253a602083018461175b565b9291505056fea2646970667358221220611042847913d6b734af4e7f2af999ccbb9559db70e2ceade1ee43824de114d064736f6c63430008130033",
  "linkReferences": {},
  "deployedLinkReferences": {}
}