{
  "_format": "hh-sol-artifact-1",
  "contractName": "Investor",
  "sourceName": "contracts/Topos/Bank/Investor.sol",
  "abi": [
    {
      "inputs": [
        {
          "internalType": "address",
          "name": "_toposBankContract",
          "type": "address"
        }
      ],
      "stateMutability": "nonpayable",
      "type": "constructor"
    },
    {
      "anonymous": false,
      "inputs": [
        {
          "indexed": false,
          "internalType": "address",
          "name": "investor",
          "type": "address"
        }
      ],
      "name": "ApproveInvestor",
      "type": "event"
    },
    {
      "anonymous": false,
      "inputs": [
        {
          "indexed": false,
          "internalType": "address",
          "name": "investor",
          "type": "address"
        }
      ],
      "name": "RejectInvestor",
      "type": "event"
    },
    {
      "anonymous": false,
      "inputs": [
        {
          "indexed": false,
          "internalType": "address",
          "name": "investor",
          "type": "address"
        }
      ],
      "name": "RequestInvestorRegistration",
      "type": "event"
    },
    {
      "inputs": [
        {
          "internalType": "address",
          "name": "_investor",
          "type": "address"
        }
      ],
      "name": "approveInvestor",
      "outputs": [],
      "stateMutability": "nonpayable",
      "type": "function"
    },
    {
      "inputs": [
        {
          "internalType": "address",
          "name": "",
          "type": "address"
        }
      ],
      "name": "investorStatus",
      "outputs": [
        {
          "internalType": "enum BondData.StakeHolderStatus",
          "name": "",
          "type": "uint8"
        }
      ],
      "stateMutability": "view",
      "type": "function"
    },
    {
      "inputs": [
        {
          "internalType": "address",
          "name": "",
          "type": "address"
        }
      ],
      "name": "investors",
      "outputs": [
        {
          "internalType": "string",
          "name": "name",
          "type": "string"
        },
        {
          "internalType": "string",
          "name": "country",
          "type": "string"
        },
        {
          "internalType": "string",
          "name": "investorType",
          "type": "string"
        },
        {
          "internalType": "address",
          "name": "walletAddress",
          "type": "address"
        }
      ],
      "stateMutability": "view",
      "type": "function"
    },
    {
      "inputs": [
        {
          "internalType": "address",
          "name": "_investor",
          "type": "address"
        }
      ],
      "name": "rejectInvestor",
      "outputs": [],
      "stateMutability": "nonpayable",
      "type": "function"
    },
    {
      "inputs": [
        {
          "components": [
            {
              "internalType": "string",
              "name": "name",
              "type": "string"
            },
            {
              "internalType": "string",
              "name": "country",
              "type": "string"
            },
            {
              "internalType": "string",
              "name": "investorType",
              "type": "string"
            },
            {
              "internalType": "address",
              "name": "walletAddress",
              "type": "address"
            }
          ],
          "internalType": "struct BondData.Investor",
          "name": "_investor",
          "type": "tuple"
        }
      ],
      "name": "requestRegistrationInvestor",
      "outputs": [],
      "stateMutability": "nonpayable",
      "type": "function"
    },
    {
      "inputs": [],
      "name": "toposBankContract",
      "outputs": [
        {
          "internalType": "address",
          "name": "",
          "type": "address"
        }
      ],
      "stateMutability": "view",
      "type": "function"
    }
  ],
  "bytecode": "0x60806040523480156200001157600080fd5b5060405162001854380380620018548339818101604052810190620000379190620000e9565b80600260006101000a81548173ffffffffffffffffffffffffffffffffffffffff021916908373ffffffffffffffffffffffffffffffffffffffff160217905550506200011b565b600080fd5b600073ffffffffffffffffffffffffffffffffffffffff82169050919050565b6000620000b18262000084565b9050919050565b620000c381620000a4565b8114620000cf57600080fd5b50565b600081519050620000e381620000b8565b92915050565b6000602082840312156200010257620001016200007f565b5b60006200011284828501620000d2565b91505092915050565b611729806200012b6000396000f3fe608060405234801561001057600080fd5b50600436106100625760003560e01c80636f7bc9be146100675780637de141291461009a5780639c34712a146100b6578063d304a813146100d4578063d31628a0146100f0578063f936d49d1461010c575b600080fd5b610081600480360381019061007c9190610ca4565b61013c565b6040516100919493929190610d70565b60405180910390f35b6100b460048036038101906100af9190610ca4565b610324565b005b6100be6105ee565b6040516100cb9190610dca565b60405180910390f35b6100ee60048036038101906100e99190610ca4565b610614565b005b61010a60048036038101906101059190610e09565b610870565b005b61012660048036038101906101219190610ca4565b610c1c565b6040516101339190610ec9565b60405180910390f35b600060205280600052604060002060009150905080600001805461015f90610f13565b80601f016020809104026020016040519081016040528092919081815260200182805461018b90610f13565b80156101d85780601f106101ad576101008083540402835291602001916101d8565b820191906000526020600020905b8154815290600101906020018083116101bb57829003601f168201915b5050505050908060010180546101ed90610f13565b80601f016020809104026020016040519081016040528092919081815260200182805461021990610f13565b80156102665780601f1061023b57610100808354040283529160200191610266565b820191906000526020600020905b81548152906001019060200180831161024957829003601f168201915b50505050509080600201805461027b90610f13565b80601f01602080910402602001604051908101604052809291908181526020018280546102a790610f13565b80156102f45780601f106102c9576101008083540402835291602001916102f4565b820191906000526020600020905b8154815290600101906020018083116102d757829003601f168201915b5050505050908060030160009054906101000a900473ffffffffffffffffffffffffffffffffffffffff16905084565b600080600260009054906101000a900473ffffffffffffffffffffffffffffffffffffffff1673ffffffffffffffffffffffffffffffffffffffff1663c3a2a93a6040518163ffffffff1660e01b8152600401608060405180830381865afa158015610394573d6000803e3d6000fd5b505050506040513d601f19601f820116820180604052508101906103b89190610f59565b5050915091508173ffffffffffffffffffffffffffffffffffffffff163373ffffffffffffffffffffffffffffffffffffffff161461042c576040517f08c379a00000000000000000000000000000000000000000000000000000000081526004016104239061100c565b60405180910390fd5b600160038111156104405761043f610e52565b5b600160008573ffffffffffffffffffffffffffffffffffffffff1673ffffffffffffffffffffffffffffffffffffffff16815260200190815260200160002060009054906101000a900460ff16600381111561049f5761049e610e52565b5b146104df576040517f08c379a00000000000000000000000000000000000000000000000000000000081526004016104d690611078565b60405180910390fd5b6002600160008573ffffffffffffffffffffffffffffffffffffffff1673ffffffffffffffffffffffffffffffffffffffff16815260200190815260200160002060006101000a81548160ff0219169083600381111561054257610541610e52565b5b02179055508073ffffffffffffffffffffffffffffffffffffffff1663cfde1890846040518263ffffffff1660e01b815260040161058091906110e4565b600060405180830381600087803b15801561059a57600080fd5b505af11580156105ae573d6000803e3d6000fd5b505050507f45b6e306480b490c59801f6f851ed6d7d4bd880db4c8f75dd1112d2fc0a1c9d7836040516105e19190610dca565b60405180910390a1505050565b600260009054906101000a900473ffffffffffffffffffffffffffffffffffffffff1681565b6000600260009054906101000a900473ffffffffffffffffffffffffffffffffffffffff1673ffffffffffffffffffffffffffffffffffffffff1663c3a2a93a6040518163ffffffff1660e01b8152600401608060405180830381865afa158015610683573d6000803e3d6000fd5b505050506040513d601f19601f820116820180604052508101906106a79190610f59565b50505090508073ffffffffffffffffffffffffffffffffffffffff163373ffffffffffffffffffffffffffffffffffffffff161461071a576040517f08c379a00000000000000000000000000000000000000000000000000000000081526004016107119061100c565b60405180910390fd5b6001600381111561072e5761072d610e52565b5b600160008473ffffffffffffffffffffffffffffffffffffffff1673ffffffffffffffffffffffffffffffffffffffff16815260200190815260200160002060009054906101000a900460ff16600381111561078d5761078c610e52565b5b146107cd576040517f08c379a00000000000000000000000000000000000000000000000000000000081526004016107c490611078565b60405180910390fd5b6003600160008473ffffffffffffffffffffffffffffffffffffffff1673ffffffffffffffffffffffffffffffffffffffff16815260200190815260200160002060006101000a81548160ff021916908360038111156108305761082f610e52565b5b02179055507f7456ce1c99ee8a1b09f67c52be737a92db545ec137e72de0e1b70bc0c4a12809826040516108649190610dca565b60405180910390a15050565b8060600160208101906108839190610ca4565b6000600260009054906101000a900473ffffffffffffffffffffffffffffffffffffffff1673ffffffffffffffffffffffffffffffffffffffff1663c3a2a93a6040518163ffffffff1660e01b8152600401608060405180830381865afa1580156108f2573d6000803e3d6000fd5b505050506040513d601f19601f820116820180604052508101906109169190610f59565b50925050508073ffffffffffffffffffffffffffffffffffffffff1663b9209e33836040518263ffffffff1660e01b81526004016109549190610dca565b602060405180830381865afa158015610971573d6000803e3d6000fd5b505050506040513d601f19601f82011682018060405250810190610995919061114a565b6109d4576040517f08c379a00000000000000000000000000000000000000000000000000000000081526004016109cb906111c3565b60405180910390fd5b8260600160208101906109e79190610ca4565b73ffffffffffffffffffffffffffffffffffffffff163373ffffffffffffffffffffffffffffffffffffffff1614610a54576040517f08c379a0000000000000000000000000000000000000000000000000000000008152600401610a4b9061122f565b60405180910390fd5b60006003811115610a6857610a67610e52565b5b600160003373ffffffffffffffffffffffffffffffffffffffff1673ffffffffffffffffffffffffffffffffffffffff16815260200190815260200160002060009054906101000a900460ff166003811115610ac757610ac6610e52565b5b14610b07576040517f08c379a0000000000000000000000000000000000000000000000000000000008152600401610afe90611078565b60405180910390fd5b82600080856060016020810190610b1e9190610ca4565b73ffffffffffffffffffffffffffffffffffffffff1673ffffffffffffffffffffffffffffffffffffffff1681526020019081526020016000208181610b6491906116e5565b90505060018060003373ffffffffffffffffffffffffffffffffffffffff1673ffffffffffffffffffffffffffffffffffffffff16815260200190815260200160002060006101000a81548160ff02191690836003811115610bc957610bc8610e52565b5b02179055507fe42136ccc1d423b080e7fa005aa542f4bc344c1e5420e3c313fbe9ce0077ad54836060016020810190610c029190610ca4565b604051610c0f9190610dca565b60405180910390a1505050565b60016020528060005260406000206000915054906101000a900460ff1681565b600080fd5b600080fd5b600073ffffffffffffffffffffffffffffffffffffffff82169050919050565b6000610c7182610c46565b9050919050565b610c8181610c66565b8114610c8c57600080fd5b50565b600081359050610c9e81610c78565b92915050565b600060208284031215610cba57610cb9610c3c565b5b6000610cc884828501610c8f565b91505092915050565b600081519050919050565b600082825260208201905092915050565b60005b83811015610d0b578082015181840152602081019050610cf0565b60008484015250505050565b6000601f19601f8301169050919050565b6000610d3382610cd1565b610d3d8185610cdc565b9350610d4d818560208601610ced565b610d5681610d17565b840191505092915050565b610d6a81610c66565b82525050565b60006080820190508181036000830152610d8a8187610d28565b90508181036020830152610d9e8186610d28565b90508181036040830152610db28185610d28565b9050610dc16060830184610d61565b95945050505050565b6000602082019050610ddf6000830184610d61565b92915050565b600080fd5b600060808284031215610e0057610dff610de5565b5b81905092915050565b600060208284031215610e1f57610e1e610c3c565b5b600082013567ffffffffffffffff811115610e3d57610e3c610c41565b5b610e4984828501610dea565b91505092915050565b7f4e487b7100000000000000000000000000000000000000000000000000000000600052602160045260246000fd5b60048110610e9257610e91610e52565b5b50565b6000819050610ea382610e81565b919050565b6000610eb382610e95565b9050919050565b610ec381610ea8565b82525050565b6000602082019050610ede6000830184610eba565b92915050565b7f4e487b7100000000000000000000000000000000000000000000000000000000600052602260045260246000fd5b60006002820490506001821680610f2b57607f821691505b602082108103610f3e57610f3d610ee4565b5b50919050565b600081519050610f5381610c78565b92915050565b60008060008060808587031215610f7357610f72610c3c565b5b6000610f8187828801610f44565b9450506020610f9287828801610f44565b9350506040610fa387828801610f44565b9250506060610fb487828801610f44565b91505092959194509250565b7f4f4e4c595f544f504f535f4d414e414745520000000000000000000000000000600082015250565b6000610ff6601283610cdc565b915061100182610fc0565b602082019050919050565b6000602082019050818103600083015261102581610fe9565b9050919050565b7f434845434b5f594f55525f535441545553000000000000000000000000000000600082015250565b6000611062601183610cdc565b915061106d8261102c565b602082019050919050565b6000602082019050818103600083015261109181611055565b9050919050565b7f494e564553544f52000000000000000000000000000000000000000000000000600082015250565b60006110ce600883610cdc565b91506110d982611098565b602082019050919050565b600060408201905081810360008301526110fd816110c1565b905061110c6020830184610d61565b92915050565b60008115159050919050565b61112781611112565b811461113257600080fd5b50565b6000815190506111448161111e565b92915050565b6000602082840312156111605761115f610c3c565b5b600061116e84828501611135565b91505092915050565b7f4143434f554e545f4e4f545f414150524f564544000000000000000000000000600082015250565b60006111ad601483610cdc565b91506111b882611177565b602082019050919050565b600060208201905081810360008301526111dc816111a0565b9050919050565b7f494e56414c49445f414444524553530000000000000000000000000000000000600082015250565b6000611219600f83610cdc565b9150611224826111e3565b602082019050919050565b600060208201905081810360008301526112488161120c565b9050919050565b600080fd5b600080fd5b600080fd5b6000808335600160200384360303811261127b5761127a61124f565b5b80840192508235915067ffffffffffffffff82111561129d5761129c611254565b5b6020830192506001820236038313156112b9576112b8611259565b5b509250929050565b600082905092915050565b7f4e487b7100000000000000000000000000000000000000000000000000000000600052604160045260246000fd5b60008190508160005260206000209050919050565b60006020601f8301049050919050565b600082821b905092915050565b60006008830261135d7fffffffffffffffffffffffffffffffffffffffffffffffffffffffffffffffff82611320565b6113678683611320565b95508019841693508086168417925050509392505050565b6000819050919050565b6000819050919050565b60006113ae6113a96113a48461137f565b611389565b61137f565b9050919050565b6000819050919050565b6113c883611393565b6113dc6113d4826113b5565b84845461132d565b825550505050565b600090565b6113f16113e4565b6113fc8184846113bf565b505050565b5b81811015611420576114156000826113e9565b600181019050611402565b5050565b601f82111561146557611436816112fb565b61143f84611310565b8101602085101561144e578190505b61146261145a85611310565b830182611401565b50505b505050565b600082821c905092915050565b60006114886000198460080261146a565b1980831691505092915050565b60006114a18383611477565b9150826002028217905092915050565b6114bb83836112c1565b67ffffffffffffffff8111156114d4576114d36112cc565b5b6114de8254610f13565b6114e9828285611424565b6000601f8311600181146115185760008415611506578287013590505b6115108582611495565b865550611578565b601f198416611526866112fb565b60005b8281101561154e57848901358255600182019150602085019450602081019050611529565b8683101561156b5784890135611567601f891682611477565b8355505b6001600288020188555050505b50505050505050565b61158c8383836114b1565b505050565b6000813561159e81610c78565b80915050919050565b60008160001b9050919050565b600073ffffffffffffffffffffffffffffffffffffffff6115d4846115a7565b9350801983169250808416831791505092915050565b60006116056116006115fb84610c46565b611389565b610c46565b9050919050565b6000611617826115ea565b9050919050565b60006116298261160c565b9050919050565b6000819050919050565b6116438261161e565b61165661164f82611630565b83546115b4565b8255505050565b600081016000830161166f818561125e565b61167a818386611581565b505050506001810160208301611690818561125e565b61169b818386611581565b5050505060028101604083016116b1818561125e565b6116bc818386611581565b505050506003810160608301806116d281611591565b90506116de818461163a565b5050505050565b6116ef828261165d565b505056fea2646970667358221220757dc01b1caaa2fb92249257844b24fbb461e3f2b7d3653f27c609ccb0261f7b64736f6c63430008130033",
  "linkReferences": {},
  "deployedLinkReferences": {}
}