{
  "_format": "hh-sol-artifact-1",
  "contractName": "BondFactory",
  "sourceName": "contracts/Topos/Factory/BondFactory.sol",
  "abi": [
    {
      "inputs": [
        {
          "internalType": "address",
          "name": "_toposManger",
          "type": "address"
        },
        {
          "internalType": "address",
          "name": "_toposBankContract",
          "type": "address"
        },
        {
          "internalType": "address",
          "name": "_bondCallContract",
          "type": "address"
        }
      ],
      "stateMutability": "nonpayable",
      "type": "constructor"
    },
    {
      "inputs": [
        {
          "internalType": "string",
          "name": "_dealID",
          "type": "string"
        },
        {
          "internalType": "address",
          "name": "_issuerWalletAddress",
          "type": "address"
        },
        {
          "internalType": "string",
          "name": "_countryOfIssuance",
          "type": "string"
        }
      ],
      "name": "DeployBondContract",
      "outputs": [],
      "stateMutability": "nonpayable",
      "type": "function"
    },
    {
      "inputs": [],
      "name": "bondCallContract",
      "outputs": [
        {
          "internalType": "address",
          "name": "",
          "type": "address"
        }
      ],
      "stateMutability": "view",
      "type": "function"
    },
    {
      "inputs": [
        {
          "internalType": "string",
          "name": "",
          "type": "string"
        }
      ],
      "name": "isBondContract",
      "outputs": [
        {
          "internalType": "bool",
          "name": "",
          "type": "bool"
        }
      ],
      "stateMutability": "view",
      "type": "function"
    },
    {
      "inputs": [],
      "name": "toposBankContract",
      "outputs": [
        {
          "internalType": "address",
          "name": "",
          "type": "address"
        }
      ],
      "stateMutability": "view",
      "type": "function"
    },
    {
      "inputs": [],
      "name": "toposManager",
      "outputs": [
        {
          "internalType": "address",
          "name": "",
          "type": "address"
        }
      ],
      "stateMutability": "view",
      "type": "function"
    }
  ],
  "bytecode": "0x608060405234801561001057600080fd5b5060405162005c4d38038062005c4d83398181016040528101906100349190610162565b82600160006101000a81548173ffffffffffffffffffffffffffffffffffffffff021916908373ffffffffffffffffffffffffffffffffffffffff16021790555081600260006101000a81548173ffffffffffffffffffffffffffffffffffffffff021916908373ffffffffffffffffffffffffffffffffffffffff16021790555080600360006101000a81548173ffffffffffffffffffffffffffffffffffffffff021916908373ffffffffffffffffffffffffffffffffffffffff1602179055505050506101b5565b600080fd5b600073ffffffffffffffffffffffffffffffffffffffff82169050919050565b600061012f82610104565b9050919050565b61013f81610124565b811461014a57600080fd5b50565b60008151905061015c81610136565b92915050565b60008060006060848603121561017b5761017a6100ff565b5b60006101898682870161014d565b935050602061019a8682870161014d565b92505060406101ab8682870161014d565b9150509250925092565b615a8880620001c56000396000f3fe60806040523480156200001157600080fd5b50600436106200005e5760003560e01c806306f0e27a14620000635780635e43522e14620000995780637f31ed7314620000bb57806397294ceb14620000dd5780639c34712a14620000fd575b600080fd5b6200008160048036038101906200007b9190620005a1565b6200011f565b6040516200009091906200060f565b60405180910390f35b620000a362000155565b604051620000b2919062000671565b60405180910390f35b620000c56200017b565b604051620000d4919062000671565b60405180910390f35b620000fb6004803603810190620000f5919062000728565b620001a1565b005b62000107620003f7565b60405162000116919062000671565b60405180910390f35b6000818051602081018201805184825260208301602085012081835280955050505050506000915054906101000a900460ff1681565b600360009054906101000a900473ffffffffffffffffffffffffffffffffffffffff1681565b600160009054906101000a900473ffffffffffffffffffffffffffffffffffffffff1681565b600160009054906101000a900473ffffffffffffffffffffffffffffffffffffffff1673ffffffffffffffffffffffffffffffffffffffff163373ffffffffffffffffffffffffffffffffffffffff161462000234576040517f08c379a00000000000000000000000000000000000000000000000000000000081526004016200022b906200082d565b60405180910390fd5b600085856040516200024892919062000883565b908152602001604051809103902060009054906101000a900460ff1615620002a7576040517f08c379a00000000000000000000000000000000000000000000000000000000081526004016200029e90620008ee565b60405180910390fd5b60008585604051602001620002be92919062000883565b604051602081830303815290604052620002d89062000959565b8686868686604051620002eb906200041d565b620002fb959493929190620009fc565b8190604051809103906000f59050801580156200031c573d6000803e3d6000fd5b509050600260009054906101000a900473ffffffffffffffffffffffffffffffffffffffff1673ffffffffffffffffffffffffffffffffffffffff16631882c1958787846040518463ffffffff1660e01b8152600401620003809392919062000a4b565b600060405180830381600087803b1580156200039b57600080fd5b505af1158015620003b0573d6000803e3d6000fd5b50505050600160008787604051620003ca92919062000883565b908152602001604051809103902060006101000a81548160ff021916908315150217905550505050505050565b600260009054906101000a900473ffffffffffffffffffffffffffffffffffffffff1681565b614fd18062000a8283390190565b6000604051905090565b600080fd5b600080fd5b600080fd5b600080fd5b6000601f19601f8301169050919050565b7f4e487b7100000000000000000000000000000000000000000000000000000000600052604160045260246000fd5b620004948262000449565b810181811067ffffffffffffffff82111715620004b657620004b56200045a565b5b80604052505050565b6000620004cb6200042b565b9050620004d9828262000489565b919050565b600067ffffffffffffffff821115620004fc57620004fb6200045a565b5b620005078262000449565b9050602081019050919050565b82818337600083830152505050565b60006200053a6200053484620004de565b620004bf565b90508281526020810184848401111562000559576200055862000444565b5b6200056684828562000514565b509392505050565b600082601f8301126200058657620005856200043f565b5b81356200059884826020860162000523565b91505092915050565b600060208284031215620005ba57620005b962000435565b5b600082013567ffffffffffffffff811115620005db57620005da6200043a565b5b620005e9848285016200056e565b91505092915050565b60008115159050919050565b6200060981620005f2565b82525050565b6000602082019050620006266000830184620005fe565b92915050565b600073ffffffffffffffffffffffffffffffffffffffff82169050919050565b600062000659826200062c565b9050919050565b6200066b816200064c565b82525050565b600060208201905062000688600083018462000660565b92915050565b600080fd5b600080fd5b60008083601f840112620006b157620006b06200043f565b5b8235905067ffffffffffffffff811115620006d157620006d06200068e565b5b602083019150836001820283011115620006f057620006ef62000693565b5b9250929050565b62000702816200064c565b81146200070e57600080fd5b50565b6000813590506200072281620006f7565b92915050565b60008060008060006060868803121562000747576200074662000435565b5b600086013567ffffffffffffffff8111156200076857620007676200043a565b5b620007768882890162000698565b955095505060206200078b8882890162000711565b935050604086013567ffffffffffffffff811115620007af57620007ae6200043a565b5b620007bd8882890162000698565b92509250509295509295909350565b600082825260208201905092915050565b7f4e4f545f414c4c4f574544000000000000000000000000000000000000000000600082015250565b600062000815600b83620007cc565b91506200082282620007dd565b602082019050919050565b60006020820190508181036000830152620008488162000806565b9050919050565b600081905092915050565b60006200086883856200084f565b93506200087783858462000514565b82840190509392505050565b6000620008928284866200085a565b91508190509392505050565b7f434f4e54524143545f414c52454144595f4445504c4f59454400000000000000600082015250565b6000620008d6601983620007cc565b9150620008e3826200089e565b602082019050919050565b600060208201905081810360008301526200090981620008c7565b9050919050565b600081519050919050565b6000819050602082019050919050565b6000819050919050565b60006200094382516200092b565b80915050919050565b600082821b905092915050565b6000620009668262000910565b8262000972846200091b565b90506200097f8162000935565b92506020821015620009c257620009bd7fffffffffffffffffffffffffffffffffffffffffffffffffffffffffffffffff836020036008026200094c565b831692505b5050919050565b6000620009d78385620007cc565b9350620009e683858462000514565b620009f18362000449565b840190509392505050565b6000606082019050818103600083015262000a19818789620009c9565b905062000a2a602083018662000660565b818103604083015262000a3f818486620009c9565b90509695505050505050565b6000604082019050818103600083015262000a68818587620009c9565b905062000a79602083018462000660565b94935050505056fe60806040523480156200001157600080fd5b5060405162004fd138038062004fd1833981810160405281019062000037919062000320565b826005908162000048919062000605565b5033600660006101000a81548173ffffffffffffffffffffffffffffffffffffffff021916908373ffffffffffffffffffffffffffffffffffffffff160217905550816000846040516200009d91906200072e565b908152602001604051809103902060000160006101000a81548173ffffffffffffffffffffffffffffffffffffffff021916908373ffffffffffffffffffffffffffffffffffffffff16021790555080600084604051620000ff91906200072e565b908152602001604051809103902060010190816200011e919062000605565b5050505062000747565b6000604051905090565b600080fd5b600080fd5b600080fd5b600080fd5b6000601f19601f8301169050919050565b7f4e487b7100000000000000000000000000000000000000000000000000000000600052604160045260246000fd5b620001918262000146565b810181811067ffffffffffffffff82111715620001b357620001b262000157565b5b80604052505050565b6000620001c862000128565b9050620001d6828262000186565b919050565b600067ffffffffffffffff821115620001f957620001f862000157565b5b620002048262000146565b9050602081019050919050565b60005b838110156200023157808201518184015260208101905062000214565b60008484015250505050565b6000620002546200024e84620001db565b620001bc565b90508281526020810184848401111562000273576200027262000141565b5b6200028084828562000211565b509392505050565b600082601f830112620002a0576200029f6200013c565b5b8151620002b28482602086016200023d565b91505092915050565b600073ffffffffffffffffffffffffffffffffffffffff82169050919050565b6000620002e882620002bb565b9050919050565b620002fa81620002db565b81146200030657600080fd5b50565b6000815190506200031a81620002ef565b92915050565b6000806000606084860312156200033c576200033b62000132565b5b600084015167ffffffffffffffff8111156200035d576200035c62000137565b5b6200036b8682870162000288565b93505060206200037e8682870162000309565b925050604084015167ffffffffffffffff811115620003a257620003a162000137565b5b620003b08682870162000288565b9150509250925092565b600081519050919050565b7f4e487b7100000000000000000000000000000000000000000000000000000000600052602260045260246000fd5b600060028204905060018216806200040d57607f821691505b602082108103620004235762000422620003c5565b5b50919050565b60008190508160005260206000209050919050565b60006020601f8301049050919050565b600082821b905092915050565b6000600883026200048d7fffffffffffffffffffffffffffffffffffffffffffffffffffffffffffffffff826200044e565b6200049986836200044e565b95508019841693508086168417925050509392505050565b6000819050919050565b6000819050919050565b6000620004e6620004e0620004da84620004b1565b620004bb565b620004b1565b9050919050565b6000819050919050565b6200050283620004c5565b6200051a6200051182620004ed565b8484546200045b565b825550505050565b600090565b6200053162000522565b6200053e818484620004f7565b505050565b5b8181101562000566576200055a60008262000527565b60018101905062000544565b5050565b601f821115620005b5576200057f8162000429565b6200058a846200043e565b810160208510156200059a578190505b620005b2620005a9856200043e565b83018262000543565b50505b505050565b600082821c905092915050565b6000620005da60001984600802620005ba565b1980831691505092915050565b6000620005f58383620005c7565b9150826002028217905092915050565b6200061082620003ba565b67ffffffffffffffff8111156200062c576200062b62000157565b5b620006388254620003f4565b620006458282856200056a565b600060209050601f8311600181146200067d576000841562000668578287015190505b620006748582620005e7565b865550620006e4565b601f1984166200068d8662000429565b60005b82811015620006b75784890151825560018201915060208501945060208101905062000690565b86831015620006d75784890151620006d3601f891682620005c7565b8355505b6001600288020188555050505b505050505050565b600081905092915050565b60006200070482620003ba565b620007108185620006ec565b93506200072281856020860162000211565b80840191505092915050565b60006200073c8284620006f7565b915081905092915050565b61487a80620007576000396000f3fe608060405234801561001057600080fd5b50600436106101e55760003560e01c80638d1343e01161010f578063c0bcb26f116100a2578063d59624b411610071578063d59624b414610599578063d76805aa146105b7578063dd62ed3e146105d3578063e5a6b10f14610603576101e5565b8063c0bcb26f14610511578063c0c53b8b1461052f578063c16aa7791461054b578063cee2a9cf14610569576101e5565b8063a457c2d7116100de578063a457c2d71461048b578063ab67aa58146104a7578063be040fb0146104d7578063be45fd62146104e1576101e5565b80638d1343e0146104135780638db6f28a1461043157806395d89b411461044f5780639c34712a1461046d576101e5565b806346e8de2111610187578063710d332911610156578063710d33291461039b57806373975df1146103b957806382d5a60d146103d75780638bca6d16146103f5576101e5565b806346e8de21146102e35780635eb0b3d01461031d57806361e20a1c1461033b57806370a082311461036b576101e5565b806318160ddd116101c357806318160ddd14610256578063363cc42714610274578063392e53cd1461029257806341d6a582146102b0576101e5565b8063045017ce146101ea57806306fdde0314610208578063095ea7b314610226575b600080fd5b6101f2610621565b6040516101ff9190612c3e565b60405180910390f35b610210610658565b60405161021d9190612ce9565b60405180910390f35b610240600480360381019061023b9190612db3565b61070a565b60405161024d9190612e0e565b60405180910390f35b61025e610829565b60405161026b9190612e38565b60405180910390f35b61027c610880565b6040516102899190612e62565b60405180910390f35b61029a6108a6565b6040516102a79190612e0e565b60405180910390f35b6102ca60048036038101906102c59190612fb2565b6108b9565b6040516102da9493929190612ffb565b60405180910390f35b6102fd60048036038101906102f89190612fb2565b6109e7565b6040516103149b9a99989796959493929190613047565b60405180910390f35b610325610c1c565b6040516103329190612e38565b60405180910390f35b61035560048036038101906103509190613107565b610c46565b6040516103629190612e38565b60405180910390f35b61038560048036038101906103809190613107565b610c8f565b6040516103929190612e38565b60405180910390f35b6103a3610d05565b6040516103b09190612e38565b60405180910390f35b6103c1610d2f565b6040516103ce9190612ce9565b60405180910390f35b6103df610dbd565b6040516103ec9190612ce9565b60405180910390f35b6103fd610e6f565b60405161040a9190612e38565b60405180910390f35b61041b610e99565b6040516104289190612e38565b60405180910390f35b610439610ec3565b6040516104469190613230565b60405180910390f35b610457610f82565b6040516104649190612ce9565b60405180910390f35b610475611034565b6040516104829190612e62565b60405180910390f35b6104a560048036038101906104a09190612db3565b61105a565b005b6104c160048036038101906104bc91906132b2565b61106f565b6040516104ce9190612e0e565b60405180910390f35b6104df61119e565b005b6104fb60048036038101906104f6919061333a565b611238565b6040516105089190612e0e565b60405180910390f35b61051961135b565b6040516105269190612e38565b60405180910390f35b610549600480360381019061054491906133ae565b611385565b005b610553611588565b6040516105609190613478565b60405180910390f35b610583600480360381019061057e9190613107565b61159b565b6040516105909190612e0e565b60405180910390f35b6105a16115bb565b6040516105ae9190612e38565b60405180910390f35b6105d160048036038101906105cc91906134b8565b6115e5565b005b6105ed60048036038101906105e89190613501565b611681565b6040516105fa9190612e38565b60405180910390f35b61060b611708565b6040516106189190612e62565b60405180910390f35b6000600160056040516106349190613644565b908152602001604051809103902060070160009054906101000a900460ff16905090565b60606001600560405161066b9190613644565b9081526020016040518091039020600101805461068790613570565b80601f01602080910402602001604051908101604052809291908181526020018280546106b390613570565b80156107005780601f106106d557610100808354040283529160200191610700565b820191906000526020600020905b8154815290600101906020018083116106e357829003601f168201915b5050505050905090565b600082600080600560405161071f9190613644565b908152602001604051809103902060030160009054906101000a900473ffffffffffffffffffffffffffffffffffffffff1690508073ffffffffffffffffffffffffffffffffffffffff1663b9209e33836040518263ffffffff1660e01b815260040161078c9190612e62565b602060405180830381865afa1580156107a9573d6000803e3d6000fd5b505050506040513d601f19601f820116820180604052508101906107cd9190613687565b61080c576040517f08c379a000000000000000000000000000000000000000000000000000000000815260040161080390613700565b60405180910390fd5b600032905061081c818787611752565b6001935050505092915050565b60006001600560405161083c9190613644565b9081526020016040518091039020600401546001600560405161085f9190613644565b90815260200160405180910390206005015461087b919061377e565b905090565b600660009054906101000a900473ffffffffffffffffffffffffffffffffffffffff1681565b600760149054906101000a900460ff1681565b6000818051602081018201805184825260208301602085012081835280955050505050506000915090508060000160009054906101000a900473ffffffffffffffffffffffffffffffffffffffff169080600101805461091890613570565b80601f016020809104026020016040519081016040528092919081815260200182805461094490613570565b80156109915780601f1061096657610100808354040283529160200191610991565b820191906000526020600020905b81548152906001019060200180831161097457829003601f168201915b5050505050908060020160009054906101000a900473ffffffffffffffffffffffffffffffffffffffff16908060030160009054906101000a900473ffffffffffffffffffffffffffffffffffffffff16905084565b600181805160208101820180518482526020830160208501208183528095505050505050600091509050806000018054610a2090613570565b80601f0160208091040260200160405190810160405280929190818152602001828054610a4c90613570565b8015610a995780601f10610a6e57610100808354040283529160200191610a99565b820191906000526020600020905b815481529060010190602001808311610a7c57829003601f168201915b505050505090806001018054610aae90613570565b80601f0160208091040260200160405190810160405280929190818152602001828054610ada90613570565b8015610b275780601f10610afc57610100808354040283529160200191610b27565b820191906000526020600020905b815481529060010190602001808311610b0a57829003601f168201915b505050505090806002018054610b3c90613570565b80601f0160208091040260200160405190810160405280929190818152602001828054610b6890613570565b8015610bb55780601f10610b8a57610100808354040283529160200191610bb5565b820191906000526020600020905b815481529060010190602001808311610b9857829003601f168201915b5050505050908060030160009054906101000a900473ffffffffffffffffffffffffffffffffffffffff16908060040154908060050154908060060154908060070160009054906101000a900460ff169080600801549080600901549080600a015490508b565b600060016005604051610c2f9190613644565b908152602001604051809103902060080154905090565b6000600260008373ffffffffffffffffffffffffffffffffffffffff1673ffffffffffffffffffffffffffffffffffffffff168152602001908152602001600020549050919050565b600060016005604051610ca29190613644565b908152602001604051809103902060040154600260008473ffffffffffffffffffffffffffffffffffffffff1673ffffffffffffffffffffffffffffffffffffffff16815260200190815260200160002054610cfe919061377e565b9050919050565b600060016005604051610d189190613644565b908152602001604051809103902060050154905090565b60058054610d3c90613570565b80601f0160208091040260200160405190810160405280929190818152602001828054610d6890613570565b8015610db55780601f10610d8a57610100808354040283529160200191610db5565b820191906000526020600020905b815481529060010190602001808311610d9857829003601f168201915b505050505081565b606060016005604051610dd09190613644565b90815260200160405180910390206000018054610dec90613570565b80601f0160208091040260200160405190810160405280929190818152602001828054610e1890613570565b8015610e655780601f10610e3a57610100808354040283529160200191610e65565b820191906000526020600020905b815481529060010190602001808311610e4857829003601f168201915b5050505050905090565b600060016005604051610e829190613644565b908152602001604051809103902060040154905090565b600060016005604051610eac9190613644565b908152602001604051809103902060090154905090565b60606008805480602002602001604051908101604052809291908181526020016000905b82821015610f7957838290600052602060002090600202016040518060400160405290816000820160009054906101000a900473ffffffffffffffffffffffffffffffffffffffff1673ffffffffffffffffffffffffffffffffffffffff1673ffffffffffffffffffffffffffffffffffffffff16815260200160018201548152505081526020019060010190610ee7565b50505050905090565b606060016005604051610f959190613644565b90815260200160405180910390206002018054610fb190613570565b80601f0160208091040260200160405190810160405280929190818152602001828054610fdd90613570565b801561102a5780601f10610fff5761010080835404028352916020019161102a565b820191906000526020600020905b81548152906001019060200180831161100d57829003601f168201915b5050505050905090565b600760009054906101000a900473ffffffffffffffffffffffffffffffffffffffff1681565b600032905061106a818484611b45565b505050565b60008460008060056040516110849190613644565b908152602001604051809103902060030160009054906101000a900473ffffffffffffffffffffffffffffffffffffffff1690508073ffffffffffffffffffffffffffffffffffffffff1663b9209e33836040518263ffffffff1660e01b81526004016110f19190612e62565b602060405180830381865afa15801561110e573d6000803e3d6000fd5b505050506040513d601f19601f820116820180604052508101906111329190613687565b611171576040517f08c379a000000000000000000000000000000000000000000000000000000000815260040161116890613700565b60405180910390fd5b6000329050611181898289611ee2565b61118e898989898961202f565b6001935050505095945050505050565b600760009054906101000a900473ffffffffffffffffffffffffffffffffffffffff1673ffffffffffffffffffffffffffffffffffffffff163373ffffffffffffffffffffffffffffffffffffffff161461122e576040517f08c379a0000000000000000000000000000000000000000000000000000000008152600401611225906137fb565b60405180910390fd5b611236612409565b565b600084600080600560405161124d9190613644565b908152602001604051809103902060030160009054906101000a900473ffffffffffffffffffffffffffffffffffffffff1690508073ffffffffffffffffffffffffffffffffffffffff1663b9209e33836040518263ffffffff1660e01b81526004016112ba9190612e62565b602060405180830381865afa1580156112d7573d6000803e3d6000fd5b505050506040513d601f19601f820116820180604052508101906112fb9190613687565b61133a576040517f08c379a000000000000000000000000000000000000000000000000000000000815260040161133190613700565b60405180910390fd5b600032905061134c818989898961202f565b60019350505050949350505050565b60006001600560405161136e9190613644565b908152602001604051809103902060060154905090565b600660009054906101000a900473ffffffffffffffffffffffffffffffffffffffff1673ffffffffffffffffffffffffffffffffffffffff163373ffffffffffffffffffffffffffffffffffffffff1614611415576040517f08c379a000000000000000000000000000000000000000000000000000000000815260040161140c90613867565b60405180910390fd5b600760149054906101000a900460ff1615611465576040517f08c379a000000000000000000000000000000000000000000000000000000000815260040161145c906138d3565b60405180910390fd5b82600760006101000a81548173ffffffffffffffffffffffffffffffffffffffff021916908373ffffffffffffffffffffffffffffffffffffffff16021790555081600060056040516114b89190613644565b908152602001604051809103902060020160006101000a81548173ffffffffffffffffffffffffffffffffffffffff021916908373ffffffffffffffffffffffffffffffffffffffff16021790555080600060056040516115199190613644565b908152602001604051809103902060030160006101000a81548173ffffffffffffffffffffffffffffffffffffffff021916908373ffffffffffffffffffffffffffffffffffffffff1602179055506001600760146101000a81548160ff021916908315150217905550505050565b600760159054906101000a900460ff1681565b60036020528060005260406000206000915054906101000a900460ff1681565b6000600160056040516115ce9190613644565b9081526020016040518091039020600a0154905090565b600760009054906101000a900473ffffffffffffffffffffffffffffffffffffffff1673ffffffffffffffffffffffffffffffffffffffff163373ffffffffffffffffffffffffffffffffffffffff1614611675576040517f08c379a000000000000000000000000000000000000000000000000000000000815260040161166c906137fb565b60405180910390fd5b61167e816126cb565b50565b6000600460008473ffffffffffffffffffffffffffffffffffffffff1673ffffffffffffffffffffffffffffffffffffffff16815260200190815260200160002060008373ffffffffffffffffffffffffffffffffffffffff1673ffffffffffffffffffffffffffffffffffffffff16815260200190815260200160002054905092915050565b60006001600560405161171b9190613644565b908152602001604051809103902060030160009054906101000a900473ffffffffffffffffffffffffffffffffffffffff16905090565b600073ffffffffffffffffffffffffffffffffffffffff168373ffffffffffffffffffffffffffffffffffffffff16036117c1576040517f08c379a00000000000000000000000000000000000000000000000000000000081526004016117b89061393f565b60405180910390fd5b600073ffffffffffffffffffffffffffffffffffffffff168273ffffffffffffffffffffffffffffffffffffffff1603611830576040517f08c379a0000000000000000000000000000000000000000000000000000000008152600401611827906139ab565b60405180910390fd5b60008111611873576040517f08c379a000000000000000000000000000000000000000000000000000000000815260040161186a90613a17565b60405180910390fd5b6000600260008573ffffffffffffffffffffffffffffffffffffffff1673ffffffffffffffffffffffffffffffffffffffff1681526020019081526020016000205490506000600460008673ffffffffffffffffffffffffffffffffffffffff1673ffffffffffffffffffffffffffffffffffffffff16815260200190815260200160002060008573ffffffffffffffffffffffffffffffffffffffff1673ffffffffffffffffffffffffffffffffffffffff16815260200190815260200160002054905060006001600560405161194b9190613644565b90815260200160405180910390206004015490506000600160056040516119729190613644565b9081526020016040518091039020600a0154905060008285611994919061377e565b90508142106119d8576040517f08c379a00000000000000000000000000000000000000000000000000000000081526004016119cf90613a83565b60405180910390fd5b80861115611a1b576040517f08c379a0000000000000000000000000000000000000000000000000000000008152600401611a1290613aef565b60405180910390fd5b6000838488611a2a9190613b0f565b611a349190613b51565b14611a74576040517f08c379a0000000000000000000000000000000000000000000000000000000008152600401611a6b90613a17565b60405180910390fd5b8584611a809190613b82565b600460008a73ffffffffffffffffffffffffffffffffffffffff1673ffffffffffffffffffffffffffffffffffffffff16815260200190815260200160002060008973ffffffffffffffffffffffffffffffffffffffff1673ffffffffffffffffffffffffffffffffffffffff168152602001908152602001600020819055507f8c5be1e5ebec7d5bd14f71427d1e84f3dd0314c0f7b2291e5b200ac8c7c3b925888888604051611b3393929190613bb6565b60405180910390a15050505050505050565b600073ffffffffffffffffffffffffffffffffffffffff168373ffffffffffffffffffffffffffffffffffffffff1603611bb4576040517f08c379a0000000000000000000000000000000000000000000000000000000008152600401611bab9061393f565b60405180910390fd5b600073ffffffffffffffffffffffffffffffffffffffff168273ffffffffffffffffffffffffffffffffffffffff1603611c23576040517f08c379a0000000000000000000000000000000000000000000000000000000008152600401611c1a906139ab565b60405180910390fd5b60008111611c66576040517f08c379a0000000000000000000000000000000000000000000000000000000008152600401611c5d90613a17565b60405180910390fd5b6000600460008573ffffffffffffffffffffffffffffffffffffffff1673ffffffffffffffffffffffffffffffffffffffff16815260200190815260200160002060008473ffffffffffffffffffffffffffffffffffffffff1673ffffffffffffffffffffffffffffffffffffffff168152602001908152602001600020549050600060016005604051611cfa9190613644565b9081526020016040518091039020600401549050600060016005604051611d219190613644565b9081526020016040518091039020600a01549050804210611d77576040517f08c379a0000000000000000000000000000000000000000000000000000000008152600401611d6e90613a83565b60405180910390fd5b82841115611dba576040517f08c379a0000000000000000000000000000000000000000000000000000000008152600401611db190613c39565b60405180910390fd5b6000828386611dc99190613b0f565b611dd39190613b51565b14611e13576040517f08c379a0000000000000000000000000000000000000000000000000000000008152600401611e0a90613a17565b60405180910390fd5b8383611e1f9190613c59565b600460008873ffffffffffffffffffffffffffffffffffffffff1673ffffffffffffffffffffffffffffffffffffffff16815260200190815260200160002060008773ffffffffffffffffffffffffffffffffffffffff1673ffffffffffffffffffffffffffffffffffffffff168152602001908152602001600020819055507f8c5be1e5ebec7d5bd14f71427d1e84f3dd0314c0f7b2291e5b200ac8c7c3b925868686604051611ed293929190613bb6565b60405180910390a1505050505050565b6000600460008573ffffffffffffffffffffffffffffffffffffffff1673ffffffffffffffffffffffffffffffffffffffff16815260200190815260200160002060008473ffffffffffffffffffffffffffffffffffffffff1673ffffffffffffffffffffffffffffffffffffffff16815260200190815260200160002054905080821115611fa6576040517f08c379a0000000000000000000000000000000000000000000000000000000008152600401611f9d90613c39565b60405180910390fd5b818103600460008673ffffffffffffffffffffffffffffffffffffffff1673ffffffffffffffffffffffffffffffffffffffff16815260200190815260200160002060008573ffffffffffffffffffffffffffffffffffffffff1673ffffffffffffffffffffffffffffffffffffffff1681526020019081526020016000208190555050505050565b600073ffffffffffffffffffffffffffffffffffffffff168573ffffffffffffffffffffffffffffffffffffffff160361209e576040517f08c379a00000000000000000000000000000000000000000000000000000000081526004016120959061393f565b60405180910390fd5b600073ffffffffffffffffffffffffffffffffffffffff168473ffffffffffffffffffffffffffffffffffffffff160361210d576040517f08c379a000000000000000000000000000000000000000000000000000000000815260040161210490613cd9565b60405180910390fd5b60008311612150576040517f08c379a000000000000000000000000000000000000000000000000000000000815260040161214790613a17565b60405180910390fd5b6000600260008773ffffffffffffffffffffffffffffffffffffffff1673ffffffffffffffffffffffffffffffffffffffff1681526020019081526020016000205490506000600160056040516121a79190613644565b90815260200160405180910390206004015490506000600160056040516121ce9190613644565b9081526020016040518091039020600a01549050600082846121f0919061377e565b9050814210612234576040517f08c379a000000000000000000000000000000000000000000000000000000000815260040161222b90613a83565b60405180910390fd5b80871115612277576040517f08c379a000000000000000000000000000000000000000000000000000000000815260040161226e90613aef565b60405180910390fd5b60008384896122869190613b0f565b6122909190613b51565b146122d0576040517f08c379a00000000000000000000000000000000000000000000000000000000081526004016122c790613a17565b60405180910390fd5b6122dd8989898989612c14565b6000600260008a73ffffffffffffffffffffffffffffffffffffffff1673ffffffffffffffffffffffffffffffffffffffff16815260200190815260200160002054905060008486029050808603600260008d73ffffffffffffffffffffffffffffffffffffffff1673ffffffffffffffffffffffffffffffffffffffff16815260200190815260200160002081905550808201600260008c73ffffffffffffffffffffffffffffffffffffffff1673ffffffffffffffffffffffffffffffffffffffff16815260200190815260200160002081905550506123c28a8a8a8a8a612c1b565b7fddf252ad1be2c89b69c2b068fc378daa952ba7f163c4a11628f55a4df523b3ef8a8a8a6040516123f593929190613bb6565b60405180910390a150505050505050505050565b6000600181111561241d5761241c613401565b5b600760159054906101000a900460ff16600181111561243f5761243e613401565b5b1461247f576040517f08c379a000000000000000000000000000000000000000000000000000000000815260040161247690613d45565b60405180910390fd5b600160056040516124909190613644565b9081526020016040518091039020600a015442116124e3576040517f08c379a00000000000000000000000000000000000000000000000000000000081526004016124da90613db1565b60405180910390fd5b6001600760156101000a81548160ff0219169083600181111561250957612508613401565b5b02179055506000600760009054906101000a900473ffffffffffffffffffffffffffffffffffffffff1673ffffffffffffffffffffffffffffffffffffffff1663c8d7f62e60056040518263ffffffff1660e01b815260040161256c9190613e55565b600060405180830381865afa158015612589573d6000803e3d6000fd5b505050506040513d6000823e3d601f19601f820116820180604052508101906125b29190613fb9565b905060005b81518110156126c7576000600260008484815181106125d9576125d8614002565b5b60200260200101516000015173ffffffffffffffffffffffffffffffffffffffff1673ffffffffffffffffffffffffffffffffffffffff16815260200190815260200160002054146126b45760006002600084848151811061263e5761263d614002565b5b60200260200101516000015173ffffffffffffffffffffffffffffffffffffffff1673ffffffffffffffffffffffffffffffffffffffff1681526020019081526020016000208190555060006008828154811061269e5761269d614002565b5b9060005260206000209060020201600101819055505b80806126bf90614031565b9150506125b7565b5050565b60008160a0013590506000600760009054906101000a900473ffffffffffffffffffffffffffffffffffffffff1673ffffffffffffffffffffffffffffffffffffffff1663605936ea60056040518263ffffffff1660e01b81526004016127329190613e55565b602060405180830381865afa15801561274f573d6000803e3d6000fd5b505050506040513d601f19601f820116820180604052508101906127739190614079565b90508082146127b7576040517f08c379a00000000000000000000000000000000000000000000000000000000081526004016127ae906140f2565b60405180910390fd5b6000600760009054906101000a900473ffffffffffffffffffffffffffffffffffffffff1673ffffffffffffffffffffffffffffffffffffffff1663c8d7f62e60056040518263ffffffff1660e01b81526004016128159190613e55565b600060405180830381865afa158015612832573d6000803e3d6000fd5b505050506040513d6000823e3d601f19601f8201168201806040525081019061285b9190613fb9565b90506000600160056040516128709190613644565b90815260200160405180910390206004015490506000805b8351811015612b145760008482815181106128a6576128a5614002565b5b602002602001015160000151905060008583815181106128c9576128c8614002565b5b6020026020010151602001519050600073ffffffffffffffffffffffffffffffffffffffff168273ffffffffffffffffffffffffffffffffffffffff1603612946576040517f08c379a000000000000000000000000000000000000000000000000000000000815260040161293d9061415e565b60405180910390fd5b6000811415801561296d575060008586836129619190613b0f565b61296b9190613b0f565b145b6129ac576040517f08c379a00000000000000000000000000000000000000000000000000000000081526004016129a390613a17565b60405180910390fd5b80846129b89190613b82565b935080600260008473ffffffffffffffffffffffffffffffffffffffff1673ffffffffffffffffffffffffffffffffffffffff168152602001908152602001600020819055506001600360008473ffffffffffffffffffffffffffffffffffffffff1673ffffffffffffffffffffffffffffffffffffffff16815260200190815260200160002060006101000a81548160ff021916908315150217905550600860405180604001604052808473ffffffffffffffffffffffffffffffffffffffff16815260200183815250908060018154018082558091505060019003906000526020600020906002020160009091909190915060008201518160000160006101000a81548173ffffffffffffffffffffffffffffffffffffffff021916908373ffffffffffffffffffffffffffffffffffffffff16021790555060208201518160010155505050508080612b0c90614031565b915050612888565b508560016005604051612b279190613644565b90815260200160405180910390208181612b4191906147ca565b9050504260016005604051612b569190613644565b9081526020016040518091039020600901819055506000600760156101000a81548160ff02191690836001811115612b9157612b90613401565b5b0217905550600060016005604051612ba99190613644565b9081526020016040518091039020600a01549050428111612bc957600080fd5b848214612c0b576040517f08c379a0000000000000000000000000000000000000000000000000000000008152600401612c0290614824565b60405180910390fd5b50505050505050565b5050505050565b5050505050565b600060ff82169050919050565b612c3881612c22565b82525050565b6000602082019050612c536000830184612c2f565b92915050565b600081519050919050565b600082825260208201905092915050565b60005b83811015612c93578082015181840152602081019050612c78565b60008484015250505050565b6000601f19601f8301169050919050565b6000612cbb82612c59565b612cc58185612c64565b9350612cd5818560208601612c75565b612cde81612c9f565b840191505092915050565b60006020820190508181036000830152612d038184612cb0565b905092915050565b6000604051905090565b600080fd5b600080fd5b600073ffffffffffffffffffffffffffffffffffffffff82169050919050565b6000612d4a82612d1f565b9050919050565b612d5a81612d3f565b8114612d6557600080fd5b50565b600081359050612d7781612d51565b92915050565b6000819050919050565b612d9081612d7d565b8114612d9b57600080fd5b50565b600081359050612dad81612d87565b92915050565b60008060408385031215612dca57612dc9612d15565b5b6000612dd885828601612d68565b9250506020612de985828601612d9e565b9150509250929050565b60008115159050919050565b612e0881612df3565b82525050565b6000602082019050612e236000830184612dff565b92915050565b612e3281612d7d565b82525050565b6000602082019050612e4d6000830184612e29565b92915050565b612e5c81612d3f565b82525050565b6000602082019050612e776000830184612e53565b92915050565b600080fd5b600080fd5b7f4e487b7100000000000000000000000000000000000000000000000000000000600052604160045260246000fd5b612ebf82612c9f565b810181811067ffffffffffffffff82111715612ede57612edd612e87565b5b80604052505050565b6000612ef1612d0b565b9050612efd8282612eb6565b919050565b600067ffffffffffffffff821115612f1d57612f1c612e87565b5b612f2682612c9f565b9050602081019050919050565b82818337600083830152505050565b6000612f55612f5084612f02565b612ee7565b905082815260208101848484011115612f7157612f70612e82565b5b612f7c848285612f33565b509392505050565b600082601f830112612f9957612f98612e7d565b5b8135612fa9848260208601612f42565b91505092915050565b600060208284031215612fc857612fc7612d15565b5b600082013567ffffffffffffffff811115612fe657612fe5612d1a565b5b612ff284828501612f84565b91505092915050565b60006080820190506130106000830187612e53565b81810360208301526130228186612cb0565b90506130316040830185612e53565b61303e6060830184612e53565b95945050505050565b6000610160820190508181036000830152613062818e612cb0565b90508181036020830152613076818d612cb0565b9050818103604083015261308a818c612cb0565b9050613099606083018b612e53565b6130a6608083018a612e29565b6130b360a0830189612e29565b6130c060c0830188612e29565b6130cd60e0830187612c2f565b6130db610100830186612e29565b6130e9610120830185612e29565b6130f7610140830184612e29565b9c9b505050505050505050505050565b60006020828403121561311d5761311c612d15565b5b600061312b84828501612d68565b91505092915050565b600081519050919050565b600082825260208201905092915050565b6000819050602082019050919050565b61316981612d3f565b82525050565b61317881612d7d565b82525050565b6040820160008201516131946000850182613160565b5060208201516131a7602085018261316f565b50505050565b60006131b9838361317e565b60408301905092915050565b6000602082019050919050565b60006131dd82613134565b6131e7818561313f565b93506131f283613150565b8060005b8381101561322357815161320a88826131ad565b9750613215836131c5565b9250506001810190506131f6565b5085935050505092915050565b6000602082019050818103600083015261324a81846131d2565b905092915050565b600080fd5b600080fd5b60008083601f84011261327257613271612e7d565b5b8235905067ffffffffffffffff81111561328f5761328e613252565b5b6020830191508360018202830111156132ab576132aa613257565b5b9250929050565b6000806000806000608086880312156132ce576132cd612d15565b5b60006132dc88828901612d68565b95505060206132ed88828901612d68565b94505060406132fe88828901612d9e565b935050606086013567ffffffffffffffff81111561331f5761331e612d1a565b5b61332b8882890161325c565b92509250509295509295909350565b6000806000806060858703121561335457613353612d15565b5b600061336287828801612d68565b945050602061337387828801612d9e565b935050604085013567ffffffffffffffff81111561339457613393612d1a565b5b6133a08782880161325c565b925092505092959194509250565b6000806000606084860312156133c7576133c6612d15565b5b60006133d586828701612d68565b93505060206133e686828701612d68565b92505060406133f786828701612d68565b9150509250925092565b7f4e487b7100000000000000000000000000000000000000000000000000000000600052602160045260246000fd5b6002811061344157613440613401565b5b50565b600081905061345282613430565b919050565b600061346282613444565b9050919050565b61347281613457565b82525050565b600060208201905061348d6000830184613469565b92915050565b600080fd5b600061016082840312156134af576134ae613493565b5b81905092915050565b6000602082840312156134ce576134cd612d15565b5b600082013567ffffffffffffffff8111156134ec576134eb612d1a565b5b6134f884828501613498565b91505092915050565b6000806040838503121561351857613517612d15565b5b600061352685828601612d68565b925050602061353785828601612d68565b9150509250929050565b7f4e487b7100000000000000000000000000000000000000000000000000000000600052602260045260246000fd5b6000600282049050600182168061358857607f821691505b60208210810361359b5761359a613541565b5b50919050565b600081905092915050565b60008190508160005260206000209050919050565b600081546135ce81613570565b6135d881866135a1565b945060018216600081146135f357600181146136085761363b565b60ff198316865281151582028601935061363b565b613611856135ac565b60005b8381101561363357815481890152600182019150602081019050613614565b838801955050505b50505092915050565b600061365082846135c1565b915081905092915050565b61366481612df3565b811461366f57600080fd5b50565b6000815190506136818161365b565b92915050565b60006020828403121561369d5761369c612d15565b5b60006136ab84828501613672565b91505092915050565b7f4143434f554e545f4e4f545f414150524f564544000000000000000000000000600082015250565b60006136ea601483612c64565b91506136f5826136b4565b602082019050919050565b60006020820190508181036000830152613719816136dd565b9050919050565b7f4e487b7100000000000000000000000000000000000000000000000000000000600052601260045260246000fd5b7f4e487b7100000000000000000000000000000000000000000000000000000000600052601160045260246000fd5b600061378982612d7d565b915061379483612d7d565b9250826137a4576137a3613720565b5b828204905092915050565b7f4f4e4c595f544f504f535f42414e4b5f434f4e54524143540000000000000000600082015250565b60006137e5601883612c64565b91506137f0826137af565b602082019050919050565b60006020820190508181036000830152613814816137d8565b9050919050565b7f4f4e4c595f424f4e445f4d414e41474552000000000000000000000000000000600082015250565b6000613851601183612c64565b915061385c8261381b565b602082019050919050565b6000602082019050818103600083015261388081613844565b9050919050565b7f414c52454144595f494e495449414c495a454400000000000000000000000000600082015250565b60006138bd601383612c64565b91506138c882613887565b602082019050919050565b600060208201905081810360008301526138ec816138b0565b9050919050565b7f494e56414c49445f414444524553530000000000000000000000000000000000600082015250565b6000613929600f83612c64565b9150613934826138f3565b602082019050919050565b600060208201905081810360008301526139588161391c565b9050919050565b7f494e56414c49445f5350454e4445525f41444452455353000000000000000000600082015250565b6000613995601783612c64565b91506139a08261395f565b602082019050919050565b600060208201905081810360008301526139c481613988565b9050919050565b7f494e56414c49445f414d4f554e54000000000000000000000000000000000000600082015250565b6000613a01600e83612c64565b9150613a0c826139cb565b602082019050919050565b60006020820190508181036000830152613a30816139f4565b9050919050565b7f424f4e44535f4d41545552454400000000000000000000000000000000000000600082015250565b6000613a6d600d83612c64565b9150613a7882613a37565b602082019050919050565b60006020820190508181036000830152613a9c81613a60565b9050919050565b7f494e53554646494349454e545f42414c414e4345000000000000000000000000600082015250565b6000613ad9601483612c64565b9150613ae482613aa3565b602082019050919050565b60006020820190508181036000830152613b0881613acc565b9050919050565b6000613b1a82612d7d565b9150613b2583612d7d565b9250828202613b3381612d7d565b91508282048414831517613b4a57613b4961374f565b5b5092915050565b6000613b5c82612d7d565b9150613b6783612d7d565b925082613b7757613b76613720565b5b828206905092915050565b6000613b8d82612d7d565b9150613b9883612d7d565b9250828201905080821115613bb057613baf61374f565b5b92915050565b6000606082019050613bcb6000830186612e53565b613bd86020830185612e53565b613be56040830184612e29565b949350505050565b7f494e53554646494349454e545f414c4c4f57414e434500000000000000000000600082015250565b6000613c23601683612c64565b9150613c2e82613bed565b602082019050919050565b60006020820190508181036000830152613c5281613c16565b9050919050565b6000613c6482612d7d565b9150613c6f83612d7d565b9250828203905081811115613c8757613c8661374f565b5b92915050565b7f494e56414c49445f524543495049454e545f4144445245535300000000000000600082015250565b6000613cc3601983612c64565b9150613cce82613c8d565b602082019050919050565b60006020820190508181036000830152613cf281613cb6565b9050919050565b7f424f4e44535f4e4f545f49535355454400000000000000000000000000000000600082015250565b6000613d2f601083612c64565b9150613d3a82613cf9565b602082019050919050565b60006020820190508181036000830152613d5e81613d22565b9050919050565b7f574149545f54494c4c5f4d415455524954590000000000000000000000000000600082015250565b6000613d9b601283612c64565b9150613da682613d65565b602082019050919050565b60006020820190508181036000830152613dca81613d8e565b9050919050565b60008154613dde81613570565b613de88186612c64565b94506001821660008114613e035760018114613e1957613e4c565b60ff198316865281151560200286019350613e4c565b613e22856135ac565b60005b83811015613e4457815481890152600182019150602081019050613e25565b808801955050505b50505092915050565b60006020820190508181036000830152613e6f8184613dd1565b905092915050565b600067ffffffffffffffff821115613e9257613e91612e87565b5b602082029050602081019050919050565b600080fd5b600081519050613eb781612d51565b92915050565b600081519050613ecc81612d87565b92915050565b600060408284031215613ee857613ee7613ea3565b5b613ef26040612ee7565b90506000613f0284828501613ea8565b6000830152506020613f1684828501613ebd565b60208301525092915050565b6000613f35613f3084613e77565b612ee7565b90508083825260208201905060408402830185811115613f5857613f57613257565b5b835b81811015613f815780613f6d8882613ed2565b845260208401935050604081019050613f5a565b5050509392505050565b600082601f830112613fa057613f9f612e7d565b5b8151613fb0848260208601613f22565b91505092915050565b600060208284031215613fcf57613fce612d15565b5b600082015167ffffffffffffffff811115613fed57613fec612d1a565b5b613ff984828501613f8b565b91505092915050565b7f4e487b7100000000000000000000000000000000000000000000000000000000600052603260045260246000fd5b600061403c82612d7d565b91507fffffffffffffffffffffffffffffffffffffffffffffffffffffffffffffffff820361406e5761406d61374f565b5b600182019050919050565b60006020828403121561408f5761408e612d15565b5b600061409d84828501613ebd565b91505092915050565b7f494e56414c49445f49495355455f564f4c554d45000000000000000000000000600082015250565b60006140dc601483612c64565b91506140e7826140a6565b602082019050919050565b6000602082019050818103600083015261410b816140cf565b9050919050565b7f494e56414c49445f494e564553544f525f414444524553530000000000000000600082015250565b6000614148601883612c64565b915061415382614112565b602082019050919050565b600060208201905081810360008301526141778161413b565b9050919050565b600080fd5b600080fd5b600080fd5b600080833560016020038436030381126141aa576141a961417e565b5b80840192508235915067ffffffffffffffff8211156141cc576141cb614183565b5b6020830192506001820236038313156141e8576141e7614188565b5b509250929050565b600082905092915050565b60006020601f8301049050919050565b600082821b905092915050565b6000600883026142487fffffffffffffffffffffffffffffffffffffffffffffffffffffffffffffffff8261420b565b614252868361420b565b95508019841693508086168417925050509392505050565b6000819050919050565b600061428f61428a61428584612d7d565b61426a565b612d7d565b9050919050565b6000819050919050565b6142a983614274565b6142bd6142b582614296565b848454614218565b825550505050565b600090565b6142d26142c5565b6142dd8184846142a0565b505050565b5b81811015614301576142f66000826142ca565b6001810190506142e3565b5050565b601f82111561434657614317816135ac565b614320846141fb565b8101602085101561432f578190505b61434361433b856141fb565b8301826142e2565b50505b505050565b600082821c905092915050565b60006143696000198460080261434b565b1980831691505092915050565b60006143828383614358565b9150826002028217905092915050565b61439c83836141f0565b67ffffffffffffffff8111156143b5576143b4612e87565b5b6143bf8254613570565b6143ca828285614305565b6000601f8311600181146143f957600084156143e7578287013590505b6143f18582614376565b865550614459565b601f198416614407866135ac565b60005b8281101561442f5784890135825560018201915060208501945060208101905061440a565b8683101561444c5784890135614448601f891682614358565b8355505b6001600288020188555050505b50505050505050565b61446d838383614392565b505050565b6000813561447f81612d51565b80915050919050565b60008160001b9050919050565b600073ffffffffffffffffffffffffffffffffffffffff6144b584614488565b9350801983169250808416831791505092915050565b60006144e66144e16144dc84612d1f565b61426a565b612d1f565b9050919050565b60006144f8826144cb565b9050919050565b600061450a826144ed565b9050919050565b6000819050919050565b614524826144ff565b61453761453082614511565b8354614495565b8255505050565b6000813561454b81612d87565b80915050919050565b60007fffffffffffffffffffffffffffffffffffffffffffffffffffffffffffffffff61458084614488565b9350801983169250808416831791505092915050565b61459f82614274565b6145b26145ab82614296565b8354614554565b8255505050565b6145c281612c22565b81146145cd57600080fd5b50565b600081356145dd816145b9565b80915050919050565b600060ff6145f384614488565b9350801983169250808416831791505092915050565b600061462461461f61461a84612c22565b61426a565b612c22565b9050919050565b6000819050919050565b61463e82614609565b61465161464a8261462b565b83546145e6565b8255505050565b600081016000830161466a818561418d565b614675818386614462565b50505050600181016020830161468b818561418d565b614696818386614462565b5050505060028101604083016146ac818561418d565b6146b7818386614462565b505050506003810160608301806146cd81614472565b90506146d9818461451b565b5050506004810160808301806146ee8161453e565b90506146fa8184614596565b5050506005810160a083018061470f8161453e565b905061471b8184614596565b5050506006810160c08301806147308161453e565b905061473c8184614596565b5050506007810160e0830180614751816145d0565b905061475d8184614635565b505050600881016101008301806147738161453e565b905061477f8184614596565b505050600981016101208301806147958161453e565b90506147a18184614596565b505050600a81016101408301806147b78161453e565b90506147c38184614596565b5050505050565b6147d48282614658565b5050565b7f494e56414c49445f544f54414c5f414d4f554e54000000000000000000000000600082015250565b600061480e601483612c64565b9150614819826147d8565b602082019050919050565b6000602082019050818103600083015261483d81614801565b905091905056fea26469706673582212205ac66009b34ee0349ebb40c8f78ca206c0adcaedaa29e2ee2278fcfa2f1870a964736f6c63430008130033a26469706673582212203d3fd8fa4de1a0bac87327f503bf0593ec7b3f58e165ec505abb0758861df45164736f6c63430008130033",
  "linkReferences": {},
  "deployedLinkReferences": {}
}